{
	"data": {
		"bytecode": {
			"linkReferences": {},
			"object": "6080604052604051611260380380611260833981810160405281019061002591906105b9565b8151815114610069576040517f08c379a0000000000000000000000000000000000000000000000000000000008152600401610060906106af565b60405180910390fd5b5f8251116100ac576040517f08c379a00000000000000000000000000000000000000000000000000000000081526004016100a390610717565b60405180910390fd5b5f5b8151811015610106576100fb8382815181106100cd576100cc610735565b5b60200260200101518383815181106100e8576100e7610735565b5b602002602001015161010e60201b60201c565b8060010190506100ae565b5050506108fa565b5f73ffffffffffffffffffffffffffffffffffffffff168273ffffffffffffffffffffffffffffffffffffffff160361017c576040517f08c379a0000000000000000000000000000000000000000000000000000000008152600401610173906107ac565b60405180910390fd5b5f81116101be576040517f08c379a00000000000000000000000000000000000000000000000000000000081526004016101b590610814565b60405180910390fd5b5f60015f8473ffffffffffffffffffffffffffffffffffffffff1673ffffffffffffffffffffffffffffffffffffffff1681526020019081526020015f20541461023d576040517f08c379a00000000000000000000000000000000000000000000000000000000081526004016102349061087c565b60405180910390fd5b8060015f8473ffffffffffffffffffffffffffffffffffffffff1673ffffffffffffffffffffffffffffffffffffffff1681526020019081526020015f205f82825461028991906108c7565b92505081905550805f808282546102a091906108c7565b92505081905550600482908060018154018082558091505060019003905f5260205f20015f9091909190916101000a81548173ffffffffffffffffffffffffffffffffffffffff021916908373ffffffffffffffffffffffffffffffffffffffff1602179055505050565b5f604051905090565b5f80fd5b5f80fd5b5f80fd5b5f601f19601f8301169050919050565b7f4e487b71000000000000000000000000000000000000000000000000000000005f52604160045260245ffd5b61036682610320565b810181811067ffffffffffffffff8211171561038557610384610330565b5b80604052505050565b5f61039761030b565b90506103a3828261035d565b919050565b5f67ffffffffffffffff8211156103c2576103c1610330565b5b602082029050602081019050919050565b5f80fd5b5f73ffffffffffffffffffffffffffffffffffffffff82169050919050565b5f610400826103d7565b9050919050565b610410816103f6565b811461041a575f80fd5b50565b5f8151905061042b81610407565b92915050565b5f61044361043e846103a8565b61038e565b90508083825260208201905060208402830185811115610466576104656103d3565b5b835b8181101561048f578061047b888261041d565b845260208401935050602081019050610468565b5050509392505050565b5f82601f8301126104ad576104ac61031c565b5b81516104bd848260208601610431565b91505092915050565b5f67ffffffffffffffff8211156104e0576104df610330565b5b602082029050602081019050919050565b5f819050919050565b610503816104f1565b811461050d575f80fd5b50565b5f8151905061051e816104fa565b92915050565b5f610536610531846104c6565b61038e565b90508083825260208201905060208402830185811115610559576105586103d3565b5b835b81811015610582578061056e8882610510565b84526020840193505060208101905061055b565b5050509392505050565b5f82601f8301126105a05761059f61031c565b5b81516105b0848260208601610524565b91505092915050565b5f80604083850312156105cf576105ce610314565b5b5f83015167ffffffffffffffff8111156105ec576105eb610318565b5b6105f885828601610499565b925050602083015167ffffffffffffffff81111561061957610618610318565b5b6106258582860161058c565b9150509250929050565b5f82825260208201905092915050565b7f5f706179656573206c656e677468206e6f7420657175616c73205f73686172655f8201527f73206c656e677468000000000000000000000000000000000000000000000000602082015250565b5f61069960288361062f565b91506106a48261063f565b604082019050919050565b5f6020820190508181035f8301526106c68161068d565b9050919050565b7f6e6f2070617965657300000000000000000000000000000000000000000000005f82015250565b5f61070160098361062f565b915061070c826106cd565b602082019050919050565b5f6020820190508181035f83015261072e816106f5565b9050919050565b7f4e487b71000000000000000000000000000000000000000000000000000000005f52603260045260245ffd5b7f696e76616c6964206163636f756e7400000000000000000000000000000000005f82015250565b5f610796600f8361062f565b91506107a182610762565b602082019050919050565b5f6020820190508181035f8301526107c38161078a565b9050919050565b7f5368617265732063616e206e6f74207a65726f000000000000000000000000005f82015250565b5f6107fe60138361062f565b9150610809826107ca565b602082019050919050565b5f6020820190508181035f83015261082b816107f2565b9050919050565b7f6163636f756e7420616c726561647920686173207368617265730000000000005f82015250565b5f610866601a8361062f565b915061087182610832565b602082019050919050565b5f6020820190508181035f8301526108938161085a565b9050919050565b7f4e487b71000000000000000000000000000000000000000000000000000000005f52601160045260245ffd5b5f6108d1826104f1565b91506108dc836104f1565b92508282019050808211156108f4576108f361089a565b5b92915050565b610959806109075f395ff3fe60806040526004361061007e575f3560e01c8063a3c2c4621161004d578063a3c2c4621461018c578063a3f8eace146101b6578063ce7c2ac2146101f2578063e33b7de31461022e576100be565b806337bdc99b146100c25780633a98ef39146100ea57806363037b0c146101145780639852595c14610150576100be565b366100be577f6ef95f06320e7a25a04a175ca677b7052bdd97131872c2192525a629f51be77033346040516100b49291906105ca565b60405180910390a1005b5f80fd5b3480156100cd575f80fd5b506100e860048036038101906100e3919061061f565b610258565b005b3480156100f5575f80fd5b506100fe610443565b60405161010b919061064a565b60405180910390f35b34801561011f575f80fd5b5061013a6004803603810190610135919061061f565b610448565b6040516101479190610663565b60405180910390f35b34801561015b575f80fd5b50610176600480360381019061017191906106a6565b610483565b604051610183919061064a565b60405180910390f35b348015610197575f80fd5b506101a0610498565b6040516101ad919061064a565b60405180910390f35b3480156101c1575f80fd5b506101dc60048036038101906101d791906106a6565b6104ac565b6040516101e9919061064a565b60405180910390f35b3480156101fd575f80fd5b50610218600480360381019061021391906106a6565b610558565b604051610225919061064a565b60405180910390f35b348015610239575f80fd5b5061024261056d565b60405161024f919061064a565b60405180910390f35b5f3390505f60015f8373ffffffffffffffffffffffffffffffffffffffff1673ffffffffffffffffffffffffffffffffffffffff1681526020019081526020015f2054116102db576040517f08c379a00000000000000000000000000000000000000000000000000000000081526004016102d29061072b565b60405180910390fd5b5f6102e5826104ac565b90508281101561032a576040517f08c379a000000000000000000000000000000000000000000000000000000000815260040161032190610793565b60405180910390fd5b8260035f8473ffffffffffffffffffffffffffffffffffffffff1673ffffffffffffffffffffffffffffffffffffffff1681526020019081526020015f205f82825461037691906107de565b925050819055508260025f82825461038e91906107de565b925050819055505f8273ffffffffffffffffffffffffffffffffffffffff16846040516103ba9061083e565b5f6040518083038185875af1925050503d805f81146103f4576040519150601f19603f3d011682016040523d82523d5f602084013e6103f9565b606091505b50509050801561043d577fdf20fd1e76bc69d672e4814fafb2c449bba3a5369d8359adf9e05e6fde87b05683856040516104349291906105ca565b60405180910390a15b50505050565b5f5481565b60048181548110610457575f80fd5b905f5260205f20015f915054906101000a900473ffffffffffffffffffffffffffffffffffffffff1681565b6003602052805f5260405f205f915090505481565b5f600254476104a791906107de565b905090565b5f60035f8373ffffffffffffffffffffffffffffffffffffffff1673ffffffffffffffffffffffffffffffffffffffff1681526020019081526020015f20545f546104f5610498565b60015f8673ffffffffffffffffffffffffffffffffffffffff1673ffffffffffffffffffffffffffffffffffffffff1681526020019081526020015f205461053d9190610852565b61054791906108c0565b61055191906108f0565b9050919050565b6001602052805f5260405f205f915090505481565b60025481565b5f73ffffffffffffffffffffffffffffffffffffffff82169050919050565b5f61059c82610573565b9050919050565b6105ac81610592565b82525050565b5f819050919050565b6105c4816105b2565b82525050565b5f6040820190506105dd5f8301856105a3565b6105ea60208301846105bb565b9392505050565b5f80fd5b6105fe816105b2565b8114610608575f80fd5b50565b5f81359050610619816105f5565b92915050565b5f60208284031215610634576106336105f1565b5b5f6106418482850161060b565b91505092915050565b5f60208201905061065d5f8301846105bb565b92915050565b5f6020820190506106765f8301846105a3565b92915050565b61068581610592565b811461068f575f80fd5b50565b5f813590506106a08161067c565b92915050565b5f602082840312156106bb576106ba6105f1565b5b5f6106c884828501610692565b91505092915050565b5f82825260208201905092915050565b7f6e6f7420706179656500000000000000000000000000000000000000000000005f82015250565b5f6107156009836106d1565b9150610720826106e1565b602082019050919050565b5f6020820190508181035f83015261074281610709565b9050919050565b7f7061796d656e74206e6f7420656e6f75676800000000000000000000000000005f82015250565b5f61077d6012836106d1565b915061078882610749565b602082019050919050565b5f6020820190508181035f8301526107aa81610771565b9050919050565b7f4e487b71000000000000000000000000000000000000000000000000000000005f52601160045260245ffd5b5f6107e8826105b2565b91506107f3836105b2565b925082820190508082111561080b5761080a6107b1565b5b92915050565b5f81905092915050565b50565b5f6108295f83610811565b91506108348261081b565b5f82019050919050565b5f6108488261081e565b9150819050919050565b5f61085c826105b2565b9150610867836105b2565b9250828202610875816105b2565b9150828204841483151761088c5761088b6107b1565b5b5092915050565b7f4e487b71000000000000000000000000000000000000000000000000000000005f52601260045260245ffd5b5f6108ca826105b2565b91506108d5836105b2565b9250826108e5576108e4610893565b5b828204905092915050565b5f6108fa826105b2565b9150610905836105b2565b925082820390508181111561091d5761091c6107b1565b5b9291505056fea2646970667358221220ae0fecd3970a13c3ac0b1e61e17085ff22080115a7521a3a36faff96e5aa929164736f6c634300081a0033",
			"opcodes": "PUSH1 0x80 PUSH1 0x40 MSTORE PUSH1 0x40 MLOAD PUSH2 0x1260 CODESIZE SUB DUP1 PUSH2 0x1260 DUP4 CODECOPY DUP2 DUP2 ADD PUSH1 0x40 MSTORE DUP2 ADD SWAP1 PUSH2 0x25 SWAP2 SWAP1 PUSH2 0x5B9 JUMP JUMPDEST DUP2 MLOAD DUP2 MLOAD EQ PUSH2 0x69 JUMPI PUSH1 0x40 MLOAD PUSH32 0x8C379A000000000000000000000000000000000000000000000000000000000 DUP2 MSTORE PUSH1 0x4 ADD PUSH2 0x60 SWAP1 PUSH2 0x6AF JUMP JUMPDEST PUSH1 0x40 MLOAD DUP1 SWAP2 SUB SWAP1 REVERT JUMPDEST PUSH0 DUP3 MLOAD GT PUSH2 0xAC JUMPI PUSH1 0x40 MLOAD PUSH32 0x8C379A000000000000000000000000000000000000000000000000000000000 DUP2 MSTORE PUSH1 0x4 ADD PUSH2 0xA3 SWAP1 PUSH2 0x717 JUMP JUMPDEST PUSH1 0x40 MLOAD DUP1 SWAP2 SUB SWAP1 REVERT JUMPDEST PUSH0 JUMPDEST DUP2 MLOAD DUP2 LT ISZERO PUSH2 0x106 JUMPI PUSH2 0xFB DUP4 DUP3 DUP2 MLOAD DUP2 LT PUSH2 0xCD JUMPI PUSH2 0xCC PUSH2 0x735 JUMP JUMPDEST JUMPDEST PUSH1 0x20 MUL PUSH1 0x20 ADD ADD MLOAD DUP4 DUP4 DUP2 MLOAD DUP2 LT PUSH2 0xE8 JUMPI PUSH2 0xE7 PUSH2 0x735 JUMP JUMPDEST JUMPDEST PUSH1 0x20 MUL PUSH1 0x20 ADD ADD MLOAD PUSH2 0x10E PUSH1 0x20 SHL PUSH1 0x20 SHR JUMP JUMPDEST DUP1 PUSH1 0x1 ADD SWAP1 POP PUSH2 0xAE JUMP JUMPDEST POP POP POP PUSH2 0x8FA JUMP JUMPDEST PUSH0 PUSH20 0xFFFFFFFFFFFFFFFFFFFFFFFFFFFFFFFFFFFFFFFF AND DUP3 PUSH20 0xFFFFFFFFFFFFFFFFFFFFFFFFFFFFFFFFFFFFFFFF AND SUB PUSH2 0x17C JUMPI PUSH1 0x40 MLOAD PUSH32 0x8C379A000000000000000000000000000000000000000000000000000000000 DUP2 MSTORE PUSH1 0x4 ADD PUSH2 0x173 SWAP1 PUSH2 0x7AC JUMP JUMPDEST PUSH1 0x40 MLOAD DUP1 SWAP2 SUB SWAP1 REVERT JUMPDEST PUSH0 DUP2 GT PUSH2 0x1BE JUMPI PUSH1 0x40 MLOAD PUSH32 0x8C379A000000000000000000000000000000000000000000000000000000000 DUP2 MSTORE PUSH1 0x4 ADD PUSH2 0x1B5 SWAP1 PUSH2 0x814 JUMP JUMPDEST PUSH1 0x40 MLOAD DUP1 SWAP2 SUB SWAP1 REVERT JUMPDEST PUSH0 PUSH1 0x1 PUSH0 DUP5 PUSH20 0xFFFFFFFFFFFFFFFFFFFFFFFFFFFFFFFFFFFFFFFF AND PUSH20 0xFFFFFFFFFFFFFFFFFFFFFFFFFFFFFFFFFFFFFFFF AND DUP2 MSTORE PUSH1 0x20 ADD SWAP1 DUP2 MSTORE PUSH1 0x20 ADD PUSH0 KECCAK256 SLOAD EQ PUSH2 0x23D JUMPI PUSH1 0x40 MLOAD PUSH32 0x8C379A000000000000000000000000000000000000000000000000000000000 DUP2 MSTORE PUSH1 0x4 ADD PUSH2 0x234 SWAP1 PUSH2 0x87C JUMP JUMPDEST PUSH1 0x40 MLOAD DUP1 SWAP2 SUB SWAP1 REVERT JUMPDEST DUP1 PUSH1 0x1 PUSH0 DUP5 PUSH20 0xFFFFFFFFFFFFFFFFFFFFFFFFFFFFFFFFFFFFFFFF AND PUSH20 0xFFFFFFFFFFFFFFFFFFFFFFFFFFFFFFFFFFFFFFFF AND DUP2 MSTORE PUSH1 0x20 ADD SWAP1 DUP2 MSTORE PUSH1 0x20 ADD PUSH0 KECCAK256 PUSH0 DUP3 DUP3 SLOAD PUSH2 0x289 SWAP2 SWAP1 PUSH2 0x8C7 JUMP JUMPDEST SWAP3 POP POP DUP2 SWAP1 SSTORE POP DUP1 PUSH0 DUP1 DUP3 DUP3 SLOAD PUSH2 0x2A0 SWAP2 SWAP1 PUSH2 0x8C7 JUMP JUMPDEST SWAP3 POP POP DUP2 SWAP1 SSTORE POP PUSH1 0x4 DUP3 SWAP1 DUP1 PUSH1 0x1 DUP2 SLOAD ADD DUP1 DUP3 SSTORE DUP1 SWAP2 POP POP PUSH1 0x1 SWAP1 SUB SWAP1 PUSH0 MSTORE PUSH1 0x20 PUSH0 KECCAK256 ADD PUSH0 SWAP1 SWAP2 SWAP1 SWAP2 SWAP1 SWAP2 PUSH2 0x100 EXP DUP2 SLOAD DUP2 PUSH20 0xFFFFFFFFFFFFFFFFFFFFFFFFFFFFFFFFFFFFFFFF MUL NOT AND SWAP1 DUP4 PUSH20 0xFFFFFFFFFFFFFFFFFFFFFFFFFFFFFFFFFFFFFFFF AND MUL OR SWAP1 SSTORE POP POP POP JUMP JUMPDEST PUSH0 PUSH1 0x40 MLOAD SWAP1 POP SWAP1 JUMP JUMPDEST PUSH0 DUP1 REVERT JUMPDEST PUSH0 DUP1 REVERT JUMPDEST PUSH0 DUP1 REVERT JUMPDEST PUSH0 PUSH1 0x1F NOT PUSH1 0x1F DUP4 ADD AND SWAP1 POP SWAP2 SWAP1 POP JUMP JUMPDEST PUSH32 0x4E487B7100000000000000000000000000000000000000000000000000000000 PUSH0 MSTORE PUSH1 0x41 PUSH1 0x4 MSTORE PUSH1 0x24 PUSH0 REVERT JUMPDEST PUSH2 0x366 DUP3 PUSH2 0x320 JUMP JUMPDEST DUP2 ADD DUP2 DUP2 LT PUSH8 0xFFFFFFFFFFFFFFFF DUP3 GT OR ISZERO PUSH2 0x385 JUMPI PUSH2 0x384 PUSH2 0x330 JUMP JUMPDEST JUMPDEST DUP1 PUSH1 0x40 MSTORE POP POP POP JUMP JUMPDEST PUSH0 PUSH2 0x397 PUSH2 0x30B JUMP JUMPDEST SWAP1 POP PUSH2 0x3A3 DUP3 DUP3 PUSH2 0x35D JUMP JUMPDEST SWAP2 SWAP1 POP JUMP JUMPDEST PUSH0 PUSH8 0xFFFFFFFFFFFFFFFF DUP3 GT ISZERO PUSH2 0x3C2 JUMPI PUSH2 0x3C1 PUSH2 0x330 JUMP JUMPDEST JUMPDEST PUSH1 0x20 DUP3 MUL SWAP1 POP PUSH1 0x20 DUP2 ADD SWAP1 POP SWAP2 SWAP1 POP JUMP JUMPDEST PUSH0 DUP1 REVERT JUMPDEST PUSH0 PUSH20 0xFFFFFFFFFFFFFFFFFFFFFFFFFFFFFFFFFFFFFFFF DUP3 AND SWAP1 POP SWAP2 SWAP1 POP JUMP JUMPDEST PUSH0 PUSH2 0x400 DUP3 PUSH2 0x3D7 JUMP JUMPDEST SWAP1 POP SWAP2 SWAP1 POP JUMP JUMPDEST PUSH2 0x410 DUP2 PUSH2 0x3F6 JUMP JUMPDEST DUP2 EQ PUSH2 0x41A JUMPI PUSH0 DUP1 REVERT JUMPDEST POP JUMP JUMPDEST PUSH0 DUP2 MLOAD SWAP1 POP PUSH2 0x42B DUP2 PUSH2 0x407 JUMP JUMPDEST SWAP3 SWAP2 POP POP JUMP JUMPDEST PUSH0 PUSH2 0x443 PUSH2 0x43E DUP5 PUSH2 0x3A8 JUMP JUMPDEST PUSH2 0x38E JUMP JUMPDEST SWAP1 POP DUP1 DUP4 DUP3 MSTORE PUSH1 0x20 DUP3 ADD SWAP1 POP PUSH1 0x20 DUP5 MUL DUP4 ADD DUP6 DUP2 GT ISZERO PUSH2 0x466 JUMPI PUSH2 0x465 PUSH2 0x3D3 JUMP JUMPDEST JUMPDEST DUP4 JUMPDEST DUP2 DUP2 LT ISZERO PUSH2 0x48F JUMPI DUP1 PUSH2 0x47B DUP9 DUP3 PUSH2 0x41D JUMP JUMPDEST DUP5 MSTORE PUSH1 0x20 DUP5 ADD SWAP4 POP POP PUSH1 0x20 DUP2 ADD SWAP1 POP PUSH2 0x468 JUMP JUMPDEST POP POP POP SWAP4 SWAP3 POP POP POP JUMP JUMPDEST PUSH0 DUP3 PUSH1 0x1F DUP4 ADD SLT PUSH2 0x4AD JUMPI PUSH2 0x4AC PUSH2 0x31C JUMP JUMPDEST JUMPDEST DUP2 MLOAD PUSH2 0x4BD DUP5 DUP3 PUSH1 0x20 DUP7 ADD PUSH2 0x431 JUMP JUMPDEST SWAP2 POP POP SWAP3 SWAP2 POP POP JUMP JUMPDEST PUSH0 PUSH8 0xFFFFFFFFFFFFFFFF DUP3 GT ISZERO PUSH2 0x4E0 JUMPI PUSH2 0x4DF PUSH2 0x330 JUMP JUMPDEST JUMPDEST PUSH1 0x20 DUP3 MUL SWAP1 POP PUSH1 0x20 DUP2 ADD SWAP1 POP SWAP2 SWAP1 POP JUMP JUMPDEST PUSH0 DUP2 SWAP1 POP SWAP2 SWAP1 POP JUMP JUMPDEST PUSH2 0x503 DUP2 PUSH2 0x4F1 JUMP JUMPDEST DUP2 EQ PUSH2 0x50D JUMPI PUSH0 DUP1 REVERT JUMPDEST POP JUMP JUMPDEST PUSH0 DUP2 MLOAD SWAP1 POP PUSH2 0x51E DUP2 PUSH2 0x4FA JUMP JUMPDEST SWAP3 SWAP2 POP POP JUMP JUMPDEST PUSH0 PUSH2 0x536 PUSH2 0x531 DUP5 PUSH2 0x4C6 JUMP JUMPDEST PUSH2 0x38E JUMP JUMPDEST SWAP1 POP DUP1 DUP4 DUP3 MSTORE PUSH1 0x20 DUP3 ADD SWAP1 POP PUSH1 0x20 DUP5 MUL DUP4 ADD DUP6 DUP2 GT ISZERO PUSH2 0x559 JUMPI PUSH2 0x558 PUSH2 0x3D3 JUMP JUMPDEST JUMPDEST DUP4 JUMPDEST DUP2 DUP2 LT ISZERO PUSH2 0x582 JUMPI DUP1 PUSH2 0x56E DUP9 DUP3 PUSH2 0x510 JUMP JUMPDEST DUP5 MSTORE PUSH1 0x20 DUP5 ADD SWAP4 POP POP PUSH1 0x20 DUP2 ADD SWAP1 POP PUSH2 0x55B JUMP JUMPDEST POP POP POP SWAP4 SWAP3 POP POP POP JUMP JUMPDEST PUSH0 DUP3 PUSH1 0x1F DUP4 ADD SLT PUSH2 0x5A0 JUMPI PUSH2 0x59F PUSH2 0x31C JUMP JUMPDEST JUMPDEST DUP2 MLOAD PUSH2 0x5B0 DUP5 DUP3 PUSH1 0x20 DUP7 ADD PUSH2 0x524 JUMP JUMPDEST SWAP2 POP POP SWAP3 SWAP2 POP POP JUMP JUMPDEST PUSH0 DUP1 PUSH1 0x40 DUP4 DUP6 SUB SLT ISZERO PUSH2 0x5CF JUMPI PUSH2 0x5CE PUSH2 0x314 JUMP JUMPDEST JUMPDEST PUSH0 DUP4 ADD MLOAD PUSH8 0xFFFFFFFFFFFFFFFF DUP2 GT ISZERO PUSH2 0x5EC JUMPI PUSH2 0x5EB PUSH2 0x318 JUMP JUMPDEST JUMPDEST PUSH2 0x5F8 DUP6 DUP3 DUP7 ADD PUSH2 0x499 JUMP JUMPDEST SWAP3 POP POP PUSH1 0x20 DUP4 ADD MLOAD PUSH8 0xFFFFFFFFFFFFFFFF DUP2 GT ISZERO PUSH2 0x619 JUMPI PUSH2 0x618 PUSH2 0x318 JUMP JUMPDEST JUMPDEST PUSH2 0x625 DUP6 DUP3 DUP7 ADD PUSH2 0x58C JUMP JUMPDEST SWAP2 POP POP SWAP3 POP SWAP3 SWAP1 POP JUMP JUMPDEST PUSH0 DUP3 DUP3 MSTORE PUSH1 0x20 DUP3 ADD SWAP1 POP SWAP3 SWAP2 POP POP JUMP JUMPDEST PUSH32 0x5F706179656573206C656E677468206E6F7420657175616C73205F7368617265 PUSH0 DUP3 ADD MSTORE PUSH32 0x73206C656E677468000000000000000000000000000000000000000000000000 PUSH1 0x20 DUP3 ADD MSTORE POP JUMP JUMPDEST PUSH0 PUSH2 0x699 PUSH1 0x28 DUP4 PUSH2 0x62F JUMP JUMPDEST SWAP2 POP PUSH2 0x6A4 DUP3 PUSH2 0x63F JUMP JUMPDEST PUSH1 0x40 DUP3 ADD SWAP1 POP SWAP2 SWAP1 POP JUMP JUMPDEST PUSH0 PUSH1 0x20 DUP3 ADD SWAP1 POP DUP2 DUP2 SUB PUSH0 DUP4 ADD MSTORE PUSH2 0x6C6 DUP2 PUSH2 0x68D JUMP JUMPDEST SWAP1 POP SWAP2 SWAP1 POP JUMP JUMPDEST PUSH32 0x6E6F207061796565730000000000000000000000000000000000000000000000 PUSH0 DUP3 ADD MSTORE POP JUMP JUMPDEST PUSH0 PUSH2 0x701 PUSH1 0x9 DUP4 PUSH2 0x62F JUMP JUMPDEST SWAP2 POP PUSH2 0x70C DUP3 PUSH2 0x6CD JUMP JUMPDEST PUSH1 0x20 DUP3 ADD SWAP1 POP SWAP2 SWAP1 POP JUMP JUMPDEST PUSH0 PUSH1 0x20 DUP3 ADD SWAP1 POP DUP2 DUP2 SUB PUSH0 DUP4 ADD MSTORE PUSH2 0x72E DUP2 PUSH2 0x6F5 JUMP JUMPDEST SWAP1 POP SWAP2 SWAP1 POP JUMP JUMPDEST PUSH32 0x4E487B7100000000000000000000000000000000000000000000000000000000 PUSH0 MSTORE PUSH1 0x32 PUSH1 0x4 MSTORE PUSH1 0x24 PUSH0 REVERT JUMPDEST PUSH32 0x696E76616C6964206163636F756E740000000000000000000000000000000000 PUSH0 DUP3 ADD MSTORE POP JUMP JUMPDEST PUSH0 PUSH2 0x796 PUSH1 0xF DUP4 PUSH2 0x62F JUMP JUMPDEST SWAP2 POP PUSH2 0x7A1 DUP3 PUSH2 0x762 JUMP JUMPDEST PUSH1 0x20 DUP3 ADD SWAP1 POP SWAP2 SWAP1 POP JUMP JUMPDEST PUSH0 PUSH1 0x20 DUP3 ADD SWAP1 POP DUP2 DUP2 SUB PUSH0 DUP4 ADD MSTORE PUSH2 0x7C3 DUP2 PUSH2 0x78A JUMP JUMPDEST SWAP1 POP SWAP2 SWAP1 POP JUMP JUMPDEST PUSH32 0x5368617265732063616E206E6F74207A65726F00000000000000000000000000 PUSH0 DUP3 ADD MSTORE POP JUMP JUMPDEST PUSH0 PUSH2 0x7FE PUSH1 0x13 DUP4 PUSH2 0x62F JUMP JUMPDEST SWAP2 POP PUSH2 0x809 DUP3 PUSH2 0x7CA JUMP JUMPDEST PUSH1 0x20 DUP3 ADD SWAP1 POP SWAP2 SWAP1 POP JUMP JUMPDEST PUSH0 PUSH1 0x20 DUP3 ADD SWAP1 POP DUP2 DUP2 SUB PUSH0 DUP4 ADD MSTORE PUSH2 0x82B DUP2 PUSH2 0x7F2 JUMP JUMPDEST SWAP1 POP SWAP2 SWAP1 POP JUMP JUMPDEST PUSH32 0x6163636F756E7420616C72656164792068617320736861726573000000000000 PUSH0 DUP3 ADD MSTORE POP JUMP JUMPDEST PUSH0 PUSH2 0x866 PUSH1 0x1A DUP4 PUSH2 0x62F JUMP JUMPDEST SWAP2 POP PUSH2 0x871 DUP3 PUSH2 0x832 JUMP JUMPDEST PUSH1 0x20 DUP3 ADD SWAP1 POP SWAP2 SWAP1 POP JUMP JUMPDEST PUSH0 PUSH1 0x20 DUP3 ADD SWAP1 POP DUP2 DUP2 SUB PUSH0 DUP4 ADD MSTORE PUSH2 0x893 DUP2 PUSH2 0x85A JUMP JUMPDEST SWAP1 POP SWAP2 SWAP1 POP JUMP JUMPDEST PUSH32 0x4E487B7100000000000000000000000000000000000000000000000000000000 PUSH0 MSTORE PUSH1 0x11 PUSH1 0x4 MSTORE PUSH1 0x24 PUSH0 REVERT JUMPDEST PUSH0 PUSH2 0x8D1 DUP3 PUSH2 0x4F1 JUMP JUMPDEST SWAP2 POP PUSH2 0x8DC DUP4 PUSH2 0x4F1 JUMP JUMPDEST SWAP3 POP DUP3 DUP3 ADD SWAP1 POP DUP1 DUP3 GT ISZERO PUSH2 0x8F4 JUMPI PUSH2 0x8F3 PUSH2 0x89A JUMP JUMPDEST JUMPDEST SWAP3 SWAP2 POP POP JUMP JUMPDEST PUSH2 0x959 DUP1 PUSH2 0x907 PUSH0 CODECOPY PUSH0 RETURN INVALID PUSH1 0x80 PUSH1 0x40 MSTORE PUSH1 0x4 CALLDATASIZE LT PUSH2 0x7E JUMPI PUSH0 CALLDATALOAD PUSH1 0xE0 SHR DUP1 PUSH4 0xA3C2C462 GT PUSH2 0x4D JUMPI DUP1 PUSH4 0xA3C2C462 EQ PUSH2 0x18C JUMPI DUP1 PUSH4 0xA3F8EACE EQ PUSH2 0x1B6 JUMPI DUP1 PUSH4 0xCE7C2AC2 EQ PUSH2 0x1F2 JUMPI DUP1 PUSH4 0xE33B7DE3 EQ PUSH2 0x22E JUMPI PUSH2 0xBE JUMP JUMPDEST DUP1 PUSH4 0x37BDC99B EQ PUSH2 0xC2 JUMPI DUP1 PUSH4 0x3A98EF39 EQ PUSH2 0xEA JUMPI DUP1 PUSH4 0x63037B0C EQ PUSH2 0x114 JUMPI DUP1 PUSH4 0x9852595C EQ PUSH2 0x150 JUMPI PUSH2 0xBE JUMP JUMPDEST CALLDATASIZE PUSH2 0xBE JUMPI PUSH32 0x6EF95F06320E7A25A04A175CA677B7052BDD97131872C2192525A629F51BE770 CALLER CALLVALUE PUSH1 0x40 MLOAD PUSH2 0xB4 SWAP3 SWAP2 SWAP1 PUSH2 0x5CA JUMP JUMPDEST PUSH1 0x40 MLOAD DUP1 SWAP2 SUB SWAP1 LOG1 STOP JUMPDEST PUSH0 DUP1 REVERT JUMPDEST CALLVALUE DUP1 ISZERO PUSH2 0xCD JUMPI PUSH0 DUP1 REVERT JUMPDEST POP PUSH2 0xE8 PUSH1 0x4 DUP1 CALLDATASIZE SUB DUP2 ADD SWAP1 PUSH2 0xE3 SWAP2 SWAP1 PUSH2 0x61F JUMP JUMPDEST PUSH2 0x258 JUMP JUMPDEST STOP JUMPDEST CALLVALUE DUP1 ISZERO PUSH2 0xF5 JUMPI PUSH0 DUP1 REVERT JUMPDEST POP PUSH2 0xFE PUSH2 0x443 JUMP JUMPDEST PUSH1 0x40 MLOAD PUSH2 0x10B SWAP2 SWAP1 PUSH2 0x64A JUMP JUMPDEST PUSH1 0x40 MLOAD DUP1 SWAP2 SUB SWAP1 RETURN JUMPDEST CALLVALUE DUP1 ISZERO PUSH2 0x11F JUMPI PUSH0 DUP1 REVERT JUMPDEST POP PUSH2 0x13A PUSH1 0x4 DUP1 CALLDATASIZE SUB DUP2 ADD SWAP1 PUSH2 0x135 SWAP2 SWAP1 PUSH2 0x61F JUMP JUMPDEST PUSH2 0x448 JUMP JUMPDEST PUSH1 0x40 MLOAD PUSH2 0x147 SWAP2 SWAP1 PUSH2 0x663 JUMP JUMPDEST PUSH1 0x40 MLOAD DUP1 SWAP2 SUB SWAP1 RETURN JUMPDEST CALLVALUE DUP1 ISZERO PUSH2 0x15B JUMPI PUSH0 DUP1 REVERT JUMPDEST POP PUSH2 0x176 PUSH1 0x4 DUP1 CALLDATASIZE SUB DUP2 ADD SWAP1 PUSH2 0x171 SWAP2 SWAP1 PUSH2 0x6A6 JUMP JUMPDEST PUSH2 0x483 JUMP JUMPDEST PUSH1 0x40 MLOAD PUSH2 0x183 SWAP2 SWAP1 PUSH2 0x64A JUMP JUMPDEST PUSH1 0x40 MLOAD DUP1 SWAP2 SUB SWAP1 RETURN JUMPDEST CALLVALUE DUP1 ISZERO PUSH2 0x197 JUMPI PUSH0 DUP1 REVERT JUMPDEST POP PUSH2 0x1A0 PUSH2 0x498 JUMP JUMPDEST PUSH1 0x40 MLOAD PUSH2 0x1AD SWAP2 SWAP1 PUSH2 0x64A JUMP JUMPDEST PUSH1 0x40 MLOAD DUP1 SWAP2 SUB SWAP1 RETURN JUMPDEST CALLVALUE DUP1 ISZERO PUSH2 0x1C1 JUMPI PUSH0 DUP1 REVERT JUMPDEST POP PUSH2 0x1DC PUSH1 0x4 DUP1 CALLDATASIZE SUB DUP2 ADD SWAP1 PUSH2 0x1D7 SWAP2 SWAP1 PUSH2 0x6A6 JUMP JUMPDEST PUSH2 0x4AC JUMP JUMPDEST PUSH1 0x40 MLOAD PUSH2 0x1E9 SWAP2 SWAP1 PUSH2 0x64A JUMP JUMPDEST PUSH1 0x40 MLOAD DUP1 SWAP2 SUB SWAP1 RETURN JUMPDEST CALLVALUE DUP1 ISZERO PUSH2 0x1FD JUMPI PUSH0 DUP1 REVERT JUMPDEST POP PUSH2 0x218 PUSH1 0x4 DUP1 CALLDATASIZE SUB DUP2 ADD SWAP1 PUSH2 0x213 SWAP2 SWAP1 PUSH2 0x6A6 JUMP JUMPDEST PUSH2 0x558 JUMP JUMPDEST PUSH1 0x40 MLOAD PUSH2 0x225 SWAP2 SWAP1 PUSH2 0x64A JUMP JUMPDEST PUSH1 0x40 MLOAD DUP1 SWAP2 SUB SWAP1 RETURN JUMPDEST CALLVALUE DUP1 ISZERO PUSH2 0x239 JUMPI PUSH0 DUP1 REVERT JUMPDEST POP PUSH2 0x242 PUSH2 0x56D JUMP JUMPDEST PUSH1 0x40 MLOAD PUSH2 0x24F SWAP2 SWAP1 PUSH2 0x64A JUMP JUMPDEST PUSH1 0x40 MLOAD DUP1 SWAP2 SUB SWAP1 RETURN JUMPDEST PUSH0 CALLER SWAP1 POP PUSH0 PUSH1 0x1 PUSH0 DUP4 PUSH20 0xFFFFFFFFFFFFFFFFFFFFFFFFFFFFFFFFFFFFFFFF AND PUSH20 0xFFFFFFFFFFFFFFFFFFFFFFFFFFFFFFFFFFFFFFFF AND DUP2 MSTORE PUSH1 0x20 ADD SWAP1 DUP2 MSTORE PUSH1 0x20 ADD PUSH0 KECCAK256 SLOAD GT PUSH2 0x2DB JUMPI PUSH1 0x40 MLOAD PUSH32 0x8C379A000000000000000000000000000000000000000000000000000000000 DUP2 MSTORE PUSH1 0x4 ADD PUSH2 0x2D2 SWAP1 PUSH2 0x72B JUMP JUMPDEST PUSH1 0x40 MLOAD DUP1 SWAP2 SUB SWAP1 REVERT JUMPDEST PUSH0 PUSH2 0x2E5 DUP3 PUSH2 0x4AC JUMP JUMPDEST SWAP1 POP DUP3 DUP2 LT ISZERO PUSH2 0x32A JUMPI PUSH1 0x40 MLOAD PUSH32 0x8C379A000000000000000000000000000000000000000000000000000000000 DUP2 MSTORE PUSH1 0x4 ADD PUSH2 0x321 SWAP1 PUSH2 0x793 JUMP JUMPDEST PUSH1 0x40 MLOAD DUP1 SWAP2 SUB SWAP1 REVERT JUMPDEST DUP3 PUSH1 0x3 PUSH0 DUP5 PUSH20 0xFFFFFFFFFFFFFFFFFFFFFFFFFFFFFFFFFFFFFFFF AND PUSH20 0xFFFFFFFFFFFFFFFFFFFFFFFFFFFFFFFFFFFFFFFF AND DUP2 MSTORE PUSH1 0x20 ADD SWAP1 DUP2 MSTORE PUSH1 0x20 ADD PUSH0 KECCAK256 PUSH0 DUP3 DUP3 SLOAD PUSH2 0x376 SWAP2 SWAP1 PUSH2 0x7DE JUMP JUMPDEST SWAP3 POP POP DUP2 SWAP1 SSTORE POP DUP3 PUSH1 0x2 PUSH0 DUP3 DUP3 SLOAD PUSH2 0x38E SWAP2 SWAP1 PUSH2 0x7DE JUMP JUMPDEST SWAP3 POP POP DUP2 SWAP1 SSTORE POP PUSH0 DUP3 PUSH20 0xFFFFFFFFFFFFFFFFFFFFFFFFFFFFFFFFFFFFFFFF AND DUP5 PUSH1 0x40 MLOAD PUSH2 0x3BA SWAP1 PUSH2 0x83E JUMP JUMPDEST PUSH0 PUSH1 0x40 MLOAD DUP1 DUP4 SUB DUP2 DUP6 DUP8 GAS CALL SWAP3 POP POP POP RETURNDATASIZE DUP1 PUSH0 DUP2 EQ PUSH2 0x3F4 JUMPI PUSH1 0x40 MLOAD SWAP2 POP PUSH1 0x1F NOT PUSH1 0x3F RETURNDATASIZE ADD AND DUP3 ADD PUSH1 0x40 MSTORE RETURNDATASIZE DUP3 MSTORE RETURNDATASIZE PUSH0 PUSH1 0x20 DUP5 ADD RETURNDATACOPY PUSH2 0x3F9 JUMP JUMPDEST PUSH1 0x60 SWAP2 POP JUMPDEST POP POP SWAP1 POP DUP1 ISZERO PUSH2 0x43D JUMPI PUSH32 0xDF20FD1E76BC69D672E4814FAFB2C449BBA3A5369D8359ADF9E05E6FDE87B056 DUP4 DUP6 PUSH1 0x40 MLOAD PUSH2 0x434 SWAP3 SWAP2 SWAP1 PUSH2 0x5CA JUMP JUMPDEST PUSH1 0x40 MLOAD DUP1 SWAP2 SUB SWAP1 LOG1 JUMPDEST POP POP POP POP JUMP JUMPDEST PUSH0 SLOAD DUP2 JUMP JUMPDEST PUSH1 0x4 DUP2 DUP2 SLOAD DUP2 LT PUSH2 0x457 JUMPI PUSH0 DUP1 REVERT JUMPDEST SWAP1 PUSH0 MSTORE PUSH1 0x20 PUSH0 KECCAK256 ADD PUSH0 SWAP2 POP SLOAD SWAP1 PUSH2 0x100 EXP SWAP1 DIV PUSH20 0xFFFFFFFFFFFFFFFFFFFFFFFFFFFFFFFFFFFFFFFF AND DUP2 JUMP JUMPDEST PUSH1 0x3 PUSH1 0x20 MSTORE DUP1 PUSH0 MSTORE PUSH1 0x40 PUSH0 KECCAK256 PUSH0 SWAP2 POP SWAP1 POP SLOAD DUP2 JUMP JUMPDEST PUSH0 PUSH1 0x2 SLOAD SELFBALANCE PUSH2 0x4A7 SWAP2 SWAP1 PUSH2 0x7DE JUMP JUMPDEST SWAP1 POP SWAP1 JUMP JUMPDEST PUSH0 PUSH1 0x3 PUSH0 DUP4 PUSH20 0xFFFFFFFFFFFFFFFFFFFFFFFFFFFFFFFFFFFFFFFF AND PUSH20 0xFFFFFFFFFFFFFFFFFFFFFFFFFFFFFFFFFFFFFFFF AND DUP2 MSTORE PUSH1 0x20 ADD SWAP1 DUP2 MSTORE PUSH1 0x20 ADD PUSH0 KECCAK256 SLOAD PUSH0 SLOAD PUSH2 0x4F5 PUSH2 0x498 JUMP JUMPDEST PUSH1 0x1 PUSH0 DUP7 PUSH20 0xFFFFFFFFFFFFFFFFFFFFFFFFFFFFFFFFFFFFFFFF AND PUSH20 0xFFFFFFFFFFFFFFFFFFFFFFFFFFFFFFFFFFFFFFFF AND DUP2 MSTORE PUSH1 0x20 ADD SWAP1 DUP2 MSTORE PUSH1 0x20 ADD PUSH0 KECCAK256 SLOAD PUSH2 0x53D SWAP2 SWAP1 PUSH2 0x852 JUMP JUMPDEST PUSH2 0x547 SWAP2 SWAP1 PUSH2 0x8C0 JUMP JUMPDEST PUSH2 0x551 SWAP2 SWAP1 PUSH2 0x8F0 JUMP JUMPDEST SWAP1 POP SWAP2 SWAP1 POP JUMP JUMPDEST PUSH1 0x1 PUSH1 0x20 MSTORE DUP1 PUSH0 MSTORE PUSH1 0x40 PUSH0 KECCAK256 PUSH0 SWAP2 POP SWAP1 POP SLOAD DUP2 JUMP JUMPDEST PUSH1 0x2 SLOAD DUP2 JUMP JUMPDEST PUSH0 PUSH20 0xFFFFFFFFFFFFFFFFFFFFFFFFFFFFFFFFFFFFFFFF DUP3 AND SWAP1 POP SWAP2 SWAP1 POP JUMP JUMPDEST PUSH0 PUSH2 0x59C DUP3 PUSH2 0x573 JUMP JUMPDEST SWAP1 POP SWAP2 SWAP1 POP JUMP JUMPDEST PUSH2 0x5AC DUP2 PUSH2 0x592 JUMP JUMPDEST DUP3 MSTORE POP POP JUMP JUMPDEST PUSH0 DUP2 SWAP1 POP SWAP2 SWAP1 POP JUMP JUMPDEST PUSH2 0x5C4 DUP2 PUSH2 0x5B2 JUMP JUMPDEST DUP3 MSTORE POP POP JUMP JUMPDEST PUSH0 PUSH1 0x40 DUP3 ADD SWAP1 POP PUSH2 0x5DD PUSH0 DUP4 ADD DUP6 PUSH2 0x5A3 JUMP JUMPDEST PUSH2 0x5EA PUSH1 0x20 DUP4 ADD DUP5 PUSH2 0x5BB JUMP JUMPDEST SWAP4 SWAP3 POP POP POP JUMP JUMPDEST PUSH0 DUP1 REVERT JUMPDEST PUSH2 0x5FE DUP2 PUSH2 0x5B2 JUMP JUMPDEST DUP2 EQ PUSH2 0x608 JUMPI PUSH0 DUP1 REVERT JUMPDEST POP JUMP JUMPDEST PUSH0 DUP2 CALLDATALOAD SWAP1 POP PUSH2 0x619 DUP2 PUSH2 0x5F5 JUMP JUMPDEST SWAP3 SWAP2 POP POP JUMP JUMPDEST PUSH0 PUSH1 0x20 DUP3 DUP5 SUB SLT ISZERO PUSH2 0x634 JUMPI PUSH2 0x633 PUSH2 0x5F1 JUMP JUMPDEST JUMPDEST PUSH0 PUSH2 0x641 DUP5 DUP3 DUP6 ADD PUSH2 0x60B JUMP JUMPDEST SWAP2 POP POP SWAP3 SWAP2 POP POP JUMP JUMPDEST PUSH0 PUSH1 0x20 DUP3 ADD SWAP1 POP PUSH2 0x65D PUSH0 DUP4 ADD DUP5 PUSH2 0x5BB JUMP JUMPDEST SWAP3 SWAP2 POP POP JUMP JUMPDEST PUSH0 PUSH1 0x20 DUP3 ADD SWAP1 POP PUSH2 0x676 PUSH0 DUP4 ADD DUP5 PUSH2 0x5A3 JUMP JUMPDEST SWAP3 SWAP2 POP POP JUMP JUMPDEST PUSH2 0x685 DUP2 PUSH2 0x592 JUMP JUMPDEST DUP2 EQ PUSH2 0x68F JUMPI PUSH0 DUP1 REVERT JUMPDEST POP JUMP JUMPDEST PUSH0 DUP2 CALLDATALOAD SWAP1 POP PUSH2 0x6A0 DUP2 PUSH2 0x67C JUMP JUMPDEST SWAP3 SWAP2 POP POP JUMP JUMPDEST PUSH0 PUSH1 0x20 DUP3 DUP5 SUB SLT ISZERO PUSH2 0x6BB JUMPI PUSH2 0x6BA PUSH2 0x5F1 JUMP JUMPDEST JUMPDEST PUSH0 PUSH2 0x6C8 DUP5 DUP3 DUP6 ADD PUSH2 0x692 JUMP JUMPDEST SWAP2 POP POP SWAP3 SWAP2 POP POP JUMP JUMPDEST PUSH0 DUP3 DUP3 MSTORE PUSH1 0x20 DUP3 ADD SWAP1 POP SWAP3 SWAP2 POP POP JUMP JUMPDEST PUSH32 0x6E6F742070617965650000000000000000000000000000000000000000000000 PUSH0 DUP3 ADD MSTORE POP JUMP JUMPDEST PUSH0 PUSH2 0x715 PUSH1 0x9 DUP4 PUSH2 0x6D1 JUMP JUMPDEST SWAP2 POP PUSH2 0x720 DUP3 PUSH2 0x6E1 JUMP JUMPDEST PUSH1 0x20 DUP3 ADD SWAP1 POP SWAP2 SWAP1 POP JUMP JUMPDEST PUSH0 PUSH1 0x20 DUP3 ADD SWAP1 POP DUP2 DUP2 SUB PUSH0 DUP4 ADD MSTORE PUSH2 0x742 DUP2 PUSH2 0x709 JUMP JUMPDEST SWAP1 POP SWAP2 SWAP1 POP JUMP JUMPDEST PUSH32 0x7061796D656E74206E6F7420656E6F7567680000000000000000000000000000 PUSH0 DUP3 ADD MSTORE POP JUMP JUMPDEST PUSH0 PUSH2 0x77D PUSH1 0x12 DUP4 PUSH2 0x6D1 JUMP JUMPDEST SWAP2 POP PUSH2 0x788 DUP3 PUSH2 0x749 JUMP JUMPDEST PUSH1 0x20 DUP3 ADD SWAP1 POP SWAP2 SWAP1 POP JUMP JUMPDEST PUSH0 PUSH1 0x20 DUP3 ADD SWAP1 POP DUP2 DUP2 SUB PUSH0 DUP4 ADD MSTORE PUSH2 0x7AA DUP2 PUSH2 0x771 JUMP JUMPDEST SWAP1 POP SWAP2 SWAP1 POP JUMP JUMPDEST PUSH32 0x4E487B7100000000000000000000000000000000000000000000000000000000 PUSH0 MSTORE PUSH1 0x11 PUSH1 0x4 MSTORE PUSH1 0x24 PUSH0 REVERT JUMPDEST PUSH0 PUSH2 0x7E8 DUP3 PUSH2 0x5B2 JUMP JUMPDEST SWAP2 POP PUSH2 0x7F3 DUP4 PUSH2 0x5B2 JUMP JUMPDEST SWAP3 POP DUP3 DUP3 ADD SWAP1 POP DUP1 DUP3 GT ISZERO PUSH2 0x80B JUMPI PUSH2 0x80A PUSH2 0x7B1 JUMP JUMPDEST JUMPDEST SWAP3 SWAP2 POP POP JUMP JUMPDEST PUSH0 DUP2 SWAP1 POP SWAP3 SWAP2 POP POP JUMP JUMPDEST POP JUMP JUMPDEST PUSH0 PUSH2 0x829 PUSH0 DUP4 PUSH2 0x811 JUMP JUMPDEST SWAP2 POP PUSH2 0x834 DUP3 PUSH2 0x81B JUMP JUMPDEST PUSH0 DUP3 ADD SWAP1 POP SWAP2 SWAP1 POP JUMP JUMPDEST PUSH0 PUSH2 0x848 DUP3 PUSH2 0x81E JUMP JUMPDEST SWAP2 POP DUP2 SWAP1 POP SWAP2 SWAP1 POP JUMP JUMPDEST PUSH0 PUSH2 0x85C DUP3 PUSH2 0x5B2 JUMP JUMPDEST SWAP2 POP PUSH2 0x867 DUP4 PUSH2 0x5B2 JUMP JUMPDEST SWAP3 POP DUP3 DUP3 MUL PUSH2 0x875 DUP2 PUSH2 0x5B2 JUMP JUMPDEST SWAP2 POP DUP3 DUP3 DIV DUP5 EQ DUP4 ISZERO OR PUSH2 0x88C JUMPI PUSH2 0x88B PUSH2 0x7B1 JUMP JUMPDEST JUMPDEST POP SWAP3 SWAP2 POP POP JUMP JUMPDEST PUSH32 0x4E487B7100000000000000000000000000000000000000000000000000000000 PUSH0 MSTORE PUSH1 0x12 PUSH1 0x4 MSTORE PUSH1 0x24 PUSH0 REVERT JUMPDEST PUSH0 PUSH2 0x8CA DUP3 PUSH2 0x5B2 JUMP JUMPDEST SWAP2 POP PUSH2 0x8D5 DUP4 PUSH2 0x5B2 JUMP JUMPDEST SWAP3 POP DUP3 PUSH2 0x8E5 JUMPI PUSH2 0x8E4 PUSH2 0x893 JUMP JUMPDEST JUMPDEST DUP3 DUP3 DIV SWAP1 POP SWAP3 SWAP2 POP POP JUMP JUMPDEST PUSH0 PUSH2 0x8FA DUP3 PUSH2 0x5B2 JUMP JUMPDEST SWAP2 POP PUSH2 0x905 DUP4 PUSH2 0x5B2 JUMP JUMPDEST SWAP3 POP DUP3 DUP3 SUB SWAP1 POP DUP2 DUP2 GT ISZERO PUSH2 0x91D JUMPI PUSH2 0x91C PUSH2 0x7B1 JUMP JUMPDEST JUMPDEST SWAP3 SWAP2 POP POP JUMP INVALID LOG2 PUSH5 0x6970667358 0x22 SLT KECCAK256 0xAE 0xF 0xEC 0xD3 SWAP8 EXP SGT 0xC3 0xAC SIGNEXTEND 0x1E PUSH2 0xE170 DUP6 SELFDESTRUCT 0x22 ADDMOD ADD ISZERO 0xA7 MSTORE BYTE GASPRICE CALLDATASIZE STATICCALL SELFDESTRUCT SWAP7 0xE5 0xAA SWAP3 SWAP2 PUSH5 0x736F6C6343 STOP ADDMOD BYTE STOP CALLER "
		},
		"gasEstimates": {
			"creation": {
				"codeDepositCost": "478600",
				"executionCost": "infinite",
				"totalCost": "infinite"
			},
			"external": {
				"payees(uint256)": "4989",
				"releasable(address)": "infinite",
				"release(uint256)": "infinite",
				"released(address)": "2869",
				"shares(address)": "2846",
				"totalReceived()": "infinite",
				"totalReleased()": "2491",
				"totalShares()": "2447"
			},
			"internal": {
				"_addPayee(address,uint256)": "infinite"
			}
		},
		"methodIdentifiers": {
			"payees(uint256)": "63037b0c",
			"releasable(address)": "a3f8eace",
			"release(uint256)": "37bdc99b",
			"released(address)": "9852595c",
			"shares(address)": "ce7c2ac2",
			"totalReceived()": "a3c2c462",
			"totalReleased()": "e33b7de3",
			"totalShares()": "3a98ef39"
		}
	},
	"abi": [
		{
			"inputs": [
				{
					"internalType": "address[]",
					"name": "_payees",
					"type": "address[]"
				},
				{
					"internalType": "uint256[]",
					"name": "_shares",
					"type": "uint256[]"
				}
			],
			"stateMutability": "payable",
			"type": "constructor"
		},
		{
			"anonymous": false,
			"inputs": [
				{
					"indexed": false,
					"internalType": "address",
					"name": "payee",
					"type": "address"
				},
				{
					"indexed": false,
					"internalType": "uint256",
					"name": "shares",
					"type": "uint256"
				}
			],
			"name": "PayeeAdded",
			"type": "event"
		},
		{
			"anonymous": false,
			"inputs": [
				{
					"indexed": false,
					"internalType": "address",
					"name": "sender",
					"type": "address"
				},
				{
					"indexed": false,
					"internalType": "uint256",
					"name": "amount",
					"type": "uint256"
				}
			],
			"name": "PaymentReceived",
			"type": "event"
		},
		{
			"anonymous": false,
			"inputs": [
				{
					"indexed": false,
					"internalType": "address",
					"name": "payee",
					"type": "address"
				},
				{
					"indexed": false,
					"internalType": "uint256",
					"name": "amount",
					"type": "uint256"
				}
			],
			"name": "PaymentReleased",
			"type": "event"
		},
		{
			"inputs": [
				{
					"internalType": "uint256",
					"name": "",
					"type": "uint256"
				}
			],
			"name": "payees",
			"outputs": [
				{
					"internalType": "address",
					"name": "",
					"type": "address"
				}
			],
			"stateMutability": "view",
			"type": "function"
		},
		{
			"inputs": [
				{
					"internalType": "address",
					"name": "account",
					"type": "address"
				}
			],
			"name": "releasable",
			"outputs": [
				{
					"internalType": "uint256",
					"name": "",
					"type": "uint256"
				}
			],
			"stateMutability": "view",
			"type": "function"
		},
		{
			"inputs": [
				{
					"internalType": "uint256",
					"name": "amount",
					"type": "uint256"
				}
			],
			"name": "release",
			"outputs": [],
			"stateMutability": "nonpayable",
			"type": "function"
		},
		{
			"inputs": [
				{
					"internalType": "address",
					"name": "account",
					"type": "address"
				}
			],
			"name": "released",
			"outputs": [
				{
					"internalType": "uint256",
					"name": "",
					"type": "uint256"
				}
			],
			"stateMutability": "view",
			"type": "function"
		},
		{
			"inputs": [
				{
					"internalType": "address",
					"name": "account",
					"type": "address"
				}
			],
			"name": "shares",
			"outputs": [
				{
					"internalType": "uint256",
					"name": "",
					"type": "uint256"
				}
			],
			"stateMutability": "view",
			"type": "function"
		},
		{
			"inputs": [],
			"name": "totalReceived",
			"outputs": [
				{
					"internalType": "uint256",
					"name": "",
					"type": "uint256"
				}
			],
			"stateMutability": "view",
			"type": "function"
		},
		{
			"inputs": [],
			"name": "totalReleased",
			"outputs": [
				{
					"internalType": "uint256",
					"name": "",
					"type": "uint256"
				}
			],
			"stateMutability": "view",
			"type": "function"
		},
		{
			"inputs": [],
			"name": "totalShares",
			"outputs": [
				{
					"internalType": "uint256",
					"name": "",
					"type": "uint256"
				}
			],
			"stateMutability": "view",
			"type": "function"
		},
		{
			"stateMutability": "payable",
			"type": "receive"
		}
	]
}