{
	"data": {
		"bytecode": {
			"linkReferences": {},
			"object": "6080604052348015600e575f80fd5b506102518061001c5f395ff3fe608060405234801561000f575f80fd5b5060043610610029575f3560e01c8063677342ce1461002d575b5f80fd5b6100476004803603810190610042919061010b565b61005d565b6040516100549190610145565b60405180910390f35b5f60038211156100c2578190505f600160028461007a91906101b8565b61008491906101e8565b90505b818110156100bc5780915060028182856100a191906101b8565b6100ab91906101e8565b6100b591906101b8565b9050610087565b506100cf565b5f82146100ce57600190505b5b919050565b5f80fd5b5f819050919050565b6100ea816100d8565b81146100f4575f80fd5b50565b5f81359050610105816100e1565b92915050565b5f602082840312156101205761011f6100d4565b5b5f61012d848285016100f7565b91505092915050565b61013f816100d8565b82525050565b5f6020820190506101585f830184610136565b92915050565b7f4e487b71000000000000000000000000000000000000000000000000000000005f52601260045260245ffd5b7f4e487b71000000000000000000000000000000000000000000000000000000005f52601160045260245ffd5b5f6101c2826100d8565b91506101cd836100d8565b9250826101dd576101dc61015e565b5b828204905092915050565b5f6101f2826100d8565b91506101fd836100d8565b92508282019050808211156102155761021461018b565b5b9291505056fea2646970667358221220c20c837d68f5c5979815bcfd2e8ff6217ad60a7a11165eabed22152bb39113d464736f6c634300081a0033",
			"opcodes": "PUSH1 0x80 PUSH1 0x40 MSTORE CALLVALUE DUP1 ISZERO PUSH1 0xE JUMPI PUSH0 DUP1 REVERT JUMPDEST POP PUSH2 0x251 DUP1 PUSH2 0x1C PUSH0 CODECOPY PUSH0 RETURN INVALID PUSH1 0x80 PUSH1 0x40 MSTORE CALLVALUE DUP1 ISZERO PUSH2 0xF JUMPI PUSH0 DUP1 REVERT JUMPDEST POP PUSH1 0x4 CALLDATASIZE LT PUSH2 0x29 JUMPI PUSH0 CALLDATALOAD PUSH1 0xE0 SHR DUP1 PUSH4 0x677342CE EQ PUSH2 0x2D JUMPI JUMPDEST PUSH0 DUP1 REVERT JUMPDEST PUSH2 0x47 PUSH1 0x4 DUP1 CALLDATASIZE SUB DUP2 ADD SWAP1 PUSH2 0x42 SWAP2 SWAP1 PUSH2 0x10B JUMP JUMPDEST PUSH2 0x5D JUMP JUMPDEST PUSH1 0x40 MLOAD PUSH2 0x54 SWAP2 SWAP1 PUSH2 0x145 JUMP JUMPDEST PUSH1 0x40 MLOAD DUP1 SWAP2 SUB SWAP1 RETURN JUMPDEST PUSH0 PUSH1 0x3 DUP3 GT ISZERO PUSH2 0xC2 JUMPI DUP2 SWAP1 POP PUSH0 PUSH1 0x1 PUSH1 0x2 DUP5 PUSH2 0x7A SWAP2 SWAP1 PUSH2 0x1B8 JUMP JUMPDEST PUSH2 0x84 SWAP2 SWAP1 PUSH2 0x1E8 JUMP JUMPDEST SWAP1 POP JUMPDEST DUP2 DUP2 LT ISZERO PUSH2 0xBC JUMPI DUP1 SWAP2 POP PUSH1 0x2 DUP2 DUP3 DUP6 PUSH2 0xA1 SWAP2 SWAP1 PUSH2 0x1B8 JUMP JUMPDEST PUSH2 0xAB SWAP2 SWAP1 PUSH2 0x1E8 JUMP JUMPDEST PUSH2 0xB5 SWAP2 SWAP1 PUSH2 0x1B8 JUMP JUMPDEST SWAP1 POP PUSH2 0x87 JUMP JUMPDEST POP PUSH2 0xCF JUMP JUMPDEST PUSH0 DUP3 EQ PUSH2 0xCE JUMPI PUSH1 0x1 SWAP1 POP JUMPDEST JUMPDEST SWAP2 SWAP1 POP JUMP JUMPDEST PUSH0 DUP1 REVERT JUMPDEST PUSH0 DUP2 SWAP1 POP SWAP2 SWAP1 POP JUMP JUMPDEST PUSH2 0xEA DUP2 PUSH2 0xD8 JUMP JUMPDEST DUP2 EQ PUSH2 0xF4 JUMPI PUSH0 DUP1 REVERT JUMPDEST POP JUMP JUMPDEST PUSH0 DUP2 CALLDATALOAD SWAP1 POP PUSH2 0x105 DUP2 PUSH2 0xE1 JUMP JUMPDEST SWAP3 SWAP2 POP POP JUMP JUMPDEST PUSH0 PUSH1 0x20 DUP3 DUP5 SUB SLT ISZERO PUSH2 0x120 JUMPI PUSH2 0x11F PUSH2 0xD4 JUMP JUMPDEST JUMPDEST PUSH0 PUSH2 0x12D DUP5 DUP3 DUP6 ADD PUSH2 0xF7 JUMP JUMPDEST SWAP2 POP POP SWAP3 SWAP2 POP POP JUMP JUMPDEST PUSH2 0x13F DUP2 PUSH2 0xD8 JUMP JUMPDEST DUP3 MSTORE POP POP JUMP JUMPDEST PUSH0 PUSH1 0x20 DUP3 ADD SWAP1 POP PUSH2 0x158 PUSH0 DUP4 ADD DUP5 PUSH2 0x136 JUMP JUMPDEST SWAP3 SWAP2 POP POP JUMP JUMPDEST PUSH32 0x4E487B7100000000000000000000000000000000000000000000000000000000 PUSH0 MSTORE PUSH1 0x12 PUSH1 0x4 MSTORE PUSH1 0x24 PUSH0 REVERT JUMPDEST PUSH32 0x4E487B7100000000000000000000000000000000000000000000000000000000 PUSH0 MSTORE PUSH1 0x11 PUSH1 0x4 MSTORE PUSH1 0x24 PUSH0 REVERT JUMPDEST PUSH0 PUSH2 0x1C2 DUP3 PUSH2 0xD8 JUMP JUMPDEST SWAP2 POP PUSH2 0x1CD DUP4 PUSH2 0xD8 JUMP JUMPDEST SWAP3 POP DUP3 PUSH2 0x1DD JUMPI PUSH2 0x1DC PUSH2 0x15E JUMP JUMPDEST JUMPDEST DUP3 DUP3 DIV SWAP1 POP SWAP3 SWAP2 POP POP JUMP JUMPDEST PUSH0 PUSH2 0x1F2 DUP3 PUSH2 0xD8 JUMP JUMPDEST SWAP2 POP PUSH2 0x1FD DUP4 PUSH2 0xD8 JUMP JUMPDEST SWAP3 POP DUP3 DUP3 ADD SWAP1 POP DUP1 DUP3 GT ISZERO PUSH2 0x215 JUMPI PUSH2 0x214 PUSH2 0x18B JUMP JUMPDEST JUMPDEST SWAP3 SWAP2 POP POP JUMP INVALID LOG2 PUSH5 0x6970667358 0x22 SLT KECCAK256 0xC2 0xC DUP4 PUSH30 0x68F5C5979815BCFD2E8FF6217AD60A7A11165EABED22152BB39113D46473 PUSH16 0x6C634300081A00330000000000000000 "
		},
		"gasEstimates": {
			"creation": {
				"codeDepositCost": "118600",
				"executionCost": "163",
				"totalCost": "118763"
			},
			"external": {
				"sqrt(uint256)": "infinite"
			}
		},
		"methodIdentifiers": {
			"sqrt(uint256)": "677342ce"
		}
	},
	"abi": [
		{
			"inputs": [
				{
					"internalType": "uint256",
					"name": "num",
					"type": "uint256"
				}
			],
			"name": "sqrt",
			"outputs": [
				{
					"internalType": "uint256",
					"name": "result",
					"type": "uint256"
				}
			],
			"stateMutability": "pure",
			"type": "function"
		}
	]
}