{
	"contracts/falshloan/UniswapV2Flashloan.sol": {
		"Test": {
			"abi": [
				{
					"inputs": [],
					"name": "fatoryAddress",
					"outputs": [
						{
							"internalType": "address",
							"name": "",
							"type": "address"
						}
					],
					"stateMutability": "view",
					"type": "function"
				},
				{
					"inputs": [],
					"name": "searchWETPairs",
					"outputs": [
						{
							"internalType": "uint256[]",
							"name": "",
							"type": "uint256[]"
						},
						{
							"internalType": "address[]",
							"name": "",
							"type": "address[]"
						}
					],
					"stateMutability": "view",
					"type": "function"
				},
				{
					"inputs": [],
					"name": "wethAddress",
					"outputs": [
						{
							"internalType": "address",
							"name": "",
							"type": "address"
						}
					],
					"stateMutability": "view",
					"type": "function"
				}
			],
			"devdoc": {
				"kind": "dev",
				"methods": {},
				"version": 1
			},
			"evm": {
				"assembly": "    /* \"contracts/falshloan/UniswapV2Flashloan.sol\":4421:6071  contract Test {... */\n  mstore(0x40, 0x80)\n    /* \"contracts/falshloan/UniswapV2Flashloan.sol\":4472:4514  0xF62c03E08ada871A0bEb309762E260a7a6a880E6 */\n  0xf62c03e08ada871a0beb309762e260a7a6a880e6\n    /* \"contracts/falshloan/UniswapV2Flashloan.sol\":4441:4514  address public fatoryAddress = 0xF62c03E08ada871A0bEb309762E260a7a6a880E6 */\n  0x00\n  dup1\n  0x0100\n  exp\n  dup2\n  sload\n  dup2\n  0xffffffffffffffffffffffffffffffffffffffff\n  mul\n  not\n  and\n  swap1\n  dup4\n  0xffffffffffffffffffffffffffffffffffffffff\n  and\n  mul\n  or\n  swap1\n  sstore\n  pop\n    /* \"contracts/falshloan/UniswapV2Flashloan.sol\":4549:4591  0xfFf9976782d46CC05630D1f6eBAb18b2324d6B14 */\n  0xfff9976782d46cc05630d1f6ebab18b2324d6b14\n    /* \"contracts/falshloan/UniswapV2Flashloan.sol\":4520:4591  address public wethAddress = 0xfFf9976782d46CC05630D1f6eBAb18b2324d6B14 */\n  0x01\n  exp(0x0100, 0x00)\n  dup2\n  sload\n  dup2\n  0xffffffffffffffffffffffffffffffffffffffff\n  mul\n  not\n  and\n  swap1\n  dup4\n  0xffffffffffffffffffffffffffffffffffffffff\n  and\n  mul\n  or\n  swap1\n  sstore\n  pop\n    /* \"contracts/falshloan/UniswapV2Flashloan.sol\":4421:6071  contract Test {... */\n  callvalue\n  dup1\n  iszero\n  tag_1\n  jumpi\n  0x00\n  dup1\n  revert\ntag_1:\n  pop\n  dataSize(sub_0)\n  dup1\n  dataOffset(sub_0)\n  0x00\n  codecopy\n  0x00\n  return\nstop\n\nsub_0: assembly {\n        /* \"contracts/falshloan/UniswapV2Flashloan.sol\":4421:6071  contract Test {... */\n      mstore(0x40, 0x80)\n      callvalue\n      dup1\n      iszero\n      tag_1\n      jumpi\n      0x00\n      dup1\n      revert\n    tag_1:\n      pop\n      jumpi(tag_2, lt(calldatasize, 0x04))\n      shr(0xe0, calldataload(0x00))\n      dup1\n      0x23bf1812\n      eq\n      tag_3\n      jumpi\n      dup1\n      0x4055cdfb\n      eq\n      tag_4\n      jumpi\n      dup1\n      0x4f0e0ef3\n      eq\n      tag_5\n      jumpi\n    tag_2:\n      0x00\n      dup1\n      revert\n        /* \"contracts/falshloan/UniswapV2Flashloan.sol\":4441:4514  address public fatoryAddress = 0xF62c03E08ada871A0bEb309762E260a7a6a880E6 */\n    tag_3:\n      tag_6\n      tag_7\n      jump\t// in\n    tag_6:\n      mload(0x40)\n      tag_8\n      swap2\n      swap1\n      tag_9\n      jump\t// in\n    tag_8:\n      mload(0x40)\n      dup1\n      swap2\n      sub\n      swap1\n      return\n        /* \"contracts/falshloan/UniswapV2Flashloan.sol\":4597:6069  function searchWETPairs() external view returns (... */\n    tag_4:\n      tag_10\n      tag_11\n      jump\t// in\n    tag_10:\n      mload(0x40)\n      tag_12\n      swap3\n      swap2\n      swap1\n      tag_13\n      jump\t// in\n    tag_12:\n      mload(0x40)\n      dup1\n      swap2\n      sub\n      swap1\n      return\n        /* \"contracts/falshloan/UniswapV2Flashloan.sol\":4520:4591  address public wethAddress = 0xfFf9976782d46CC05630D1f6eBAb18b2324d6B14 */\n    tag_5:\n      tag_14\n      tag_15\n      jump\t// in\n    tag_14:\n      mload(0x40)\n      tag_16\n      swap2\n      swap1\n      tag_9\n      jump\t// in\n    tag_16:\n      mload(0x40)\n      dup1\n      swap2\n      sub\n      swap1\n      return\n        /* \"contracts/falshloan/UniswapV2Flashloan.sol\":4441:4514  address public fatoryAddress = 0xF62c03E08ada871A0bEb309762E260a7a6a880E6 */\n    tag_7:\n      0x00\n      dup1\n      sload\n      swap1\n      0x0100\n      exp\n      swap1\n      div\n      0xffffffffffffffffffffffffffffffffffffffff\n      and\n      dup2\n      jump\t// out\n        /* \"contracts/falshloan/UniswapV2Flashloan.sol\":4597:6069  function searchWETPairs() external view returns (... */\n    tag_11:\n        /* \"contracts/falshloan/UniswapV2Flashloan.sol\":4683:4699  uint256[] memory */\n      0x60\n        /* \"contracts/falshloan/UniswapV2Flashloan.sol\":4747:4763  address[] memory */\n      dup1\n        /* \"contracts/falshloan/UniswapV2Flashloan.sol\":4780:4794  uint256 length */\n      0x00\n        /* \"contracts/falshloan/UniswapV2Flashloan.sol\":4815:4828  fatoryAddress */\n      dup1\n      0x00\n      swap1\n      sload\n      swap1\n      0x0100\n      exp\n      swap1\n      div\n      0xffffffffffffffffffffffffffffffffffffffff\n      and\n        /* \"contracts/falshloan/UniswapV2Flashloan.sol\":4797:4844  IUniswapV2Factory(fatoryAddress).allPairsLength */\n      0xffffffffffffffffffffffffffffffffffffffff\n      and\n      0x574f2ba3\n        /* \"contracts/falshloan/UniswapV2Flashloan.sol\":4797:4846  IUniswapV2Factory(fatoryAddress).allPairsLength() */\n      mload(0x40)\n      dup2\n      0xffffffff\n      and\n      0xe0\n      shl\n      dup2\n      mstore\n      0x04\n      add\n      0x20\n      mload(0x40)\n      dup1\n      dup4\n      sub\n      dup2\n      dup7\n      gas\n      staticcall\n      iszero\n      dup1\n      iszero\n      tag_19\n      jumpi\n      returndatasize\n      0x00\n      dup1\n      returndatacopy\n      revert(0x00, returndatasize)\n    tag_19:\n      pop\n      pop\n      pop\n      pop\n      mload(0x40)\n      returndatasize\n      not(0x1f)\n      0x1f\n      dup3\n      add\n      and\n      dup3\n      add\n      dup1\n      0x40\n      mstore\n      pop\n      dup2\n      add\n      swap1\n      tag_20\n      swap2\n      swap1\n      tag_21\n      jump\t// in\n    tag_20:\n        /* \"contracts/falshloan/UniswapV2Flashloan.sol\":4780:4846  uint256 length = IUniswapV2Factory(fatoryAddress).allPairsLength() */\n      swap1\n      pop\n        /* \"contracts/falshloan/UniswapV2Flashloan.sol\":4856:4884  uint256[] memory wethAmounts */\n      0x00\n        /* \"contracts/falshloan/UniswapV2Flashloan.sol\":4901:4907  length */\n      dup2\n        /* \"contracts/falshloan/UniswapV2Flashloan.sol\":4887:4908  new uint256[](length) */\n      0xffffffffffffffff\n      dup2\n      gt\n      iszero\n      tag_22\n      jumpi\n      tag_23\n      tag_24\n      jump\t// in\n    tag_23:\n    tag_22:\n      mload(0x40)\n      swap1\n      dup1\n      dup3\n      mstore\n      dup1\n      0x20\n      mul\n      0x20\n      add\n      dup3\n      add\n      0x40\n      mstore\n      dup1\n      iszero\n      tag_25\n      jumpi\n      dup2\n      0x20\n      add\n      0x20\n      dup3\n      mul\n      dup1\n      calldatasize\n      dup4\n      calldatacopy\n      dup1\n      dup3\n      add\n      swap2\n      pop\n      pop\n      swap1\n      pop\n    tag_25:\n      pop\n        /* \"contracts/falshloan/UniswapV2Flashloan.sol\":4856:4908  uint256[] memory wethAmounts = new uint256[](length) */\n      swap1\n      pop\n        /* \"contracts/falshloan/UniswapV2Flashloan.sol\":4918:4941  address[] memory tokens */\n      0x00\n        /* \"contracts/falshloan/UniswapV2Flashloan.sol\":4958:4964  length */\n      dup3\n        /* \"contracts/falshloan/UniswapV2Flashloan.sol\":4944:4965  new address[](length) */\n      0xffffffffffffffff\n      dup2\n      gt\n      iszero\n      tag_26\n      jumpi\n      tag_27\n      tag_24\n      jump\t// in\n    tag_27:\n    tag_26:\n      mload(0x40)\n      swap1\n      dup1\n      dup3\n      mstore\n      dup1\n      0x20\n      mul\n      0x20\n      add\n      dup3\n      add\n      0x40\n      mstore\n      dup1\n      iszero\n      tag_28\n      jumpi\n      dup2\n      0x20\n      add\n      0x20\n      dup3\n      mul\n      dup1\n      calldatasize\n      dup4\n      calldatacopy\n      dup1\n      dup3\n      add\n      swap2\n      pop\n      pop\n      swap1\n      pop\n    tag_28:\n      pop\n        /* \"contracts/falshloan/UniswapV2Flashloan.sol\":4918:4965  address[] memory tokens = new address[](length) */\n      swap1\n      pop\n        /* \"contracts/falshloan/UniswapV2Flashloan.sol\":4975:4989  uint256 cursor */\n      0x00\n        /* \"contracts/falshloan/UniswapV2Flashloan.sol\":5004:5013  uint256 i */\n      dup1\n        /* \"contracts/falshloan/UniswapV2Flashloan.sol\":5014:5015  0 */\n      0x00\n        /* \"contracts/falshloan/UniswapV2Flashloan.sol\":5004:5015  uint256 i=0 */\n      swap1\n      pop\n        /* \"contracts/falshloan/UniswapV2Flashloan.sol\":4999:6063  for (uint256 i=0; i< length; i++) {... */\n    tag_29:\n        /* \"contracts/falshloan/UniswapV2Flashloan.sol\":5020:5026  length */\n      dup5\n        /* \"contracts/falshloan/UniswapV2Flashloan.sol\":5017:5018  i */\n      dup2\n        /* \"contracts/falshloan/UniswapV2Flashloan.sol\":5017:5026  i< length */\n      lt\n        /* \"contracts/falshloan/UniswapV2Flashloan.sol\":4999:6063  for (uint256 i=0; i< length; i++) {... */\n      iszero\n      tag_30\n      jumpi\n        /* \"contracts/falshloan/UniswapV2Flashloan.sol\":5047:5066  address pairAddress */\n      0x00\n        /* \"contracts/falshloan/UniswapV2Flashloan.sol\":5087:5100  fatoryAddress */\n      dup1\n      0x00\n      swap1\n      sload\n      swap1\n      0x0100\n      exp\n      swap1\n      div\n      0xffffffffffffffffffffffffffffffffffffffff\n      and\n        /* \"contracts/falshloan/UniswapV2Flashloan.sol\":5069:5110  IUniswapV2Factory(fatoryAddress).allPairs */\n      0xffffffffffffffffffffffffffffffffffffffff\n      and\n      0x1e3dd18b\n        /* \"contracts/falshloan/UniswapV2Flashloan.sol\":5111:5112  i */\n      dup4\n        /* \"contracts/falshloan/UniswapV2Flashloan.sol\":5069:5113  IUniswapV2Factory(fatoryAddress).allPairs(i) */\n      mload(0x40)\n      dup3\n      0xffffffff\n      and\n      0xe0\n      shl\n      dup2\n      mstore\n      0x04\n      add\n      tag_32\n      swap2\n      swap1\n      tag_33\n      jump\t// in\n    tag_32:\n      0x20\n      mload(0x40)\n      dup1\n      dup4\n      sub\n      dup2\n      dup7\n      gas\n      staticcall\n      iszero\n      dup1\n      iszero\n      tag_35\n      jumpi\n      returndatasize\n      0x00\n      dup1\n      returndatacopy\n      revert(0x00, returndatasize)\n    tag_35:\n      pop\n      pop\n      pop\n      pop\n      mload(0x40)\n      returndatasize\n      not(0x1f)\n      0x1f\n      dup3\n      add\n      and\n      dup3\n      add\n      dup1\n      0x40\n      mstore\n      pop\n      dup2\n      add\n      swap1\n      tag_36\n      swap2\n      swap1\n      tag_37\n      jump\t// in\n    tag_36:\n        /* \"contracts/falshloan/UniswapV2Flashloan.sol\":5047:5113  address pairAddress = IUniswapV2Factory(fatoryAddress).allPairs(i) */\n      swap1\n      pop\n        /* \"contracts/falshloan/UniswapV2Flashloan.sol\":5127:5141  address token0 */\n      0x00\n        /* \"contracts/falshloan/UniswapV2Flashloan.sol\":5159:5170  pairAddress */\n      dup2\n        /* \"contracts/falshloan/UniswapV2Flashloan.sol\":5144:5178  IUniswapV2Pair(pairAddress).token0 */\n      0xffffffffffffffffffffffffffffffffffffffff\n      and\n      0x0dfe1681\n        /* \"contracts/falshloan/UniswapV2Flashloan.sol\":5144:5180  IUniswapV2Pair(pairAddress).token0() */\n      mload(0x40)\n      dup2\n      0xffffffff\n      and\n      0xe0\n      shl\n      dup2\n      mstore\n      0x04\n      add\n      0x20\n      mload(0x40)\n      dup1\n      dup4\n      sub\n      dup2\n      dup7\n      gas\n      staticcall\n      iszero\n      dup1\n      iszero\n      tag_39\n      jumpi\n      returndatasize\n      0x00\n      dup1\n      returndatacopy\n      revert(0x00, returndatasize)\n    tag_39:\n      pop\n      pop\n      pop\n      pop\n      mload(0x40)\n      returndatasize\n      not(0x1f)\n      0x1f\n      dup3\n      add\n      and\n      dup3\n      add\n      dup1\n      0x40\n      mstore\n      pop\n      dup2\n      add\n      swap1\n      tag_40\n      swap2\n      swap1\n      tag_37\n      jump\t// in\n    tag_40:\n        /* \"contracts/falshloan/UniswapV2Flashloan.sol\":5127:5180  address token0 = IUniswapV2Pair(pairAddress).token0() */\n      swap1\n      pop\n        /* \"contracts/falshloan/UniswapV2Flashloan.sol\":5194:5208  address token1 */\n      0x00\n        /* \"contracts/falshloan/UniswapV2Flashloan.sol\":5226:5237  pairAddress */\n      dup3\n        /* \"contracts/falshloan/UniswapV2Flashloan.sol\":5211:5245  IUniswapV2Pair(pairAddress).token1 */\n      0xffffffffffffffffffffffffffffffffffffffff\n      and\n      0xd21220a7\n        /* \"contracts/falshloan/UniswapV2Flashloan.sol\":5211:5247  IUniswapV2Pair(pairAddress).token1() */\n      mload(0x40)\n      dup2\n      0xffffffff\n      and\n      0xe0\n      shl\n      dup2\n      mstore\n      0x04\n      add\n      0x20\n      mload(0x40)\n      dup1\n      dup4\n      sub\n      dup2\n      dup7\n      gas\n      staticcall\n      iszero\n      dup1\n      iszero\n      tag_42\n      jumpi\n      returndatasize\n      0x00\n      dup1\n      returndatacopy\n      revert(0x00, returndatasize)\n    tag_42:\n      pop\n      pop\n      pop\n      pop\n      mload(0x40)\n      returndatasize\n      not(0x1f)\n      0x1f\n      dup3\n      add\n      and\n      dup3\n      add\n      dup1\n      0x40\n      mstore\n      pop\n      dup2\n      add\n      swap1\n      tag_43\n      swap2\n      swap1\n      tag_37\n      jump\t// in\n    tag_43:\n        /* \"contracts/falshloan/UniswapV2Flashloan.sol\":5194:5247  address token1 = IUniswapV2Pair(pairAddress).token1() */\n      swap1\n      pop\n        /* \"contracts/falshloan/UniswapV2Flashloan.sol\":5275:5286  wethAddress */\n      0x01\n      0x00\n      swap1\n      sload\n      swap1\n      0x0100\n      exp\n      swap1\n      div\n      0xffffffffffffffffffffffffffffffffffffffff\n      and\n        /* \"contracts/falshloan/UniswapV2Flashloan.sol\":5265:5286  token0 == wethAddress */\n      0xffffffffffffffffffffffffffffffffffffffff\n      and\n        /* \"contracts/falshloan/UniswapV2Flashloan.sol\":5265:5271  token0 */\n      dup3\n        /* \"contracts/falshloan/UniswapV2Flashloan.sol\":5265:5286  token0 == wethAddress */\n      0xffffffffffffffffffffffffffffffffffffffff\n      and\n      eq\n        /* \"contracts/falshloan/UniswapV2Flashloan.sol\":5265:5311  token0 == wethAddress || token1 == wethAddress */\n      dup1\n      tag_44\n      jumpi\n      pop\n        /* \"contracts/falshloan/UniswapV2Flashloan.sol\":5300:5311  wethAddress */\n      0x01\n      0x00\n      swap1\n      sload\n      swap1\n      0x0100\n      exp\n      swap1\n      div\n      0xffffffffffffffffffffffffffffffffffffffff\n      and\n        /* \"contracts/falshloan/UniswapV2Flashloan.sol\":5290:5311  token1 == wethAddress */\n      0xffffffffffffffffffffffffffffffffffffffff\n      and\n        /* \"contracts/falshloan/UniswapV2Flashloan.sol\":5290:5296  token1 */\n      dup2\n        /* \"contracts/falshloan/UniswapV2Flashloan.sol\":5290:5311  token1 == wethAddress */\n      0xffffffffffffffffffffffffffffffffffffffff\n      and\n      eq\n        /* \"contracts/falshloan/UniswapV2Flashloan.sol\":5265:5311  token0 == wethAddress || token1 == wethAddress */\n    tag_44:\n        /* \"contracts/falshloan/UniswapV2Flashloan.sol\":5261:6053  if (token0 == wethAddress || token1 == wethAddress) {... */\n      iszero\n      tag_45\n      jumpi\n        /* \"contracts/falshloan/UniswapV2Flashloan.sol\":5465:5481  uint112 reserve0 */\n      0x00\n        /* \"contracts/falshloan/UniswapV2Flashloan.sol\":5483:5499  uint112 reserve1 */\n      dup1\n        /* \"contracts/falshloan/UniswapV2Flashloan.sol\":5521:5532  pairAddress */\n      dup5\n        /* \"contracts/falshloan/UniswapV2Flashloan.sol\":5506:5545  IUniswapV2Pair(pairAddress).getReserves */\n      0xffffffffffffffffffffffffffffffffffffffff\n      and\n      0x0902f1ac\n        /* \"contracts/falshloan/UniswapV2Flashloan.sol\":5506:5547  IUniswapV2Pair(pairAddress).getReserves() */\n      mload(0x40)\n      dup2\n      0xffffffff\n      and\n      0xe0\n      shl\n      dup2\n      mstore\n      0x04\n      add\n      0x60\n      mload(0x40)\n      dup1\n      dup4\n      sub\n      dup2\n      dup7\n      gas\n      staticcall\n      iszero\n      dup1\n      iszero\n      tag_47\n      jumpi\n      returndatasize\n      0x00\n      dup1\n      returndatacopy\n      revert(0x00, returndatasize)\n    tag_47:\n      pop\n      pop\n      pop\n      pop\n      mload(0x40)\n      returndatasize\n      not(0x1f)\n      0x1f\n      dup3\n      add\n      and\n      dup3\n      add\n      dup1\n      0x40\n      mstore\n      pop\n      dup2\n      add\n      swap1\n      tag_48\n      swap2\n      swap1\n      tag_49\n      jump\t// in\n    tag_48:\n        /* \"contracts/falshloan/UniswapV2Flashloan.sol\":5464:5547  (uint112 reserve0, uint112 reserve1,  ) = IUniswapV2Pair(pairAddress).getReserves() */\n      pop\n      swap2\n      pop\n      swap2\n      pop\n        /* \"contracts/falshloan/UniswapV2Flashloan.sol\":5581:5582  0 */\n      0x00\n        /* \"contracts/falshloan/UniswapV2Flashloan.sol\":5569:5577  reserve0 */\n      dup3\n        /* \"contracts/falshloan/UniswapV2Flashloan.sol\":5569:5582  reserve0 != 0 */\n      0xffffffffffffffffffffffffffff\n      and\n      eq\n      iszero\n        /* \"contracts/falshloan/UniswapV2Flashloan.sol\":5569:5597  reserve0 != 0 && reserve1!=0 */\n      dup1\n      iszero\n      tag_50\n      jumpi\n      pop\n        /* \"contracts/falshloan/UniswapV2Flashloan.sol\":5596:5597  0 */\n      0x00\n        /* \"contracts/falshloan/UniswapV2Flashloan.sol\":5586:5594  reserve1 */\n      dup2\n        /* \"contracts/falshloan/UniswapV2Flashloan.sol\":5586:5597  reserve1!=0 */\n      0xffffffffffffffffffffffffffff\n      and\n      eq\n      iszero\n        /* \"contracts/falshloan/UniswapV2Flashloan.sol\":5569:5597  reserve0 != 0 && reserve1!=0 */\n    tag_50:\n        /* \"contracts/falshloan/UniswapV2Flashloan.sol\":5565:6039  if (reserve0 != 0 && reserve1!=0) {... */\n      iszero\n      tag_51\n      jumpi\n        /* \"contracts/falshloan/UniswapV2Flashloan.sol\":5635:5646  wethAddress */\n      0x01\n      0x00\n      swap1\n      sload\n      swap1\n      0x0100\n      exp\n      swap1\n      div\n      0xffffffffffffffffffffffffffffffffffffffff\n      and\n        /* \"contracts/falshloan/UniswapV2Flashloan.sol\":5625:5646  token0 == wethAddress */\n      0xffffffffffffffffffffffffffffffffffffffff\n      and\n        /* \"contracts/falshloan/UniswapV2Flashloan.sol\":5625:5631  token0 */\n      dup5\n        /* \"contracts/falshloan/UniswapV2Flashloan.sol\":5625:5646  token0 == wethAddress */\n      0xffffffffffffffffffffffffffffffffffffffff\n      and\n      sub\n        /* \"contracts/falshloan/UniswapV2Flashloan.sol\":5621:5991  if (token0 == wethAddress) {... */\n      tag_52\n      jumpi\n        /* \"contracts/falshloan/UniswapV2Flashloan.sol\":5737:5745  reserve0 */\n      dup2\n        /* \"contracts/falshloan/UniswapV2Flashloan.sol\":5715:5745  wethAmounts[cursor] = reserve0 */\n      0xffffffffffffffffffffffffffff\n      and\n        /* \"contracts/falshloan/UniswapV2Flashloan.sol\":5715:5726  wethAmounts */\n      dup10\n        /* \"contracts/falshloan/UniswapV2Flashloan.sol\":5727:5733  cursor */\n      dup9\n        /* \"contracts/falshloan/UniswapV2Flashloan.sol\":5715:5734  wethAmounts[cursor] */\n      dup2\n      mload\n      dup2\n      lt\n      tag_53\n      jumpi\n      tag_54\n      tag_55\n      jump\t// in\n    tag_54:\n    tag_53:\n      0x20\n      mul\n      0x20\n      add\n      add\n        /* \"contracts/falshloan/UniswapV2Flashloan.sol\":5715:5745  wethAmounts[cursor] = reserve0 */\n      dup2\n      dup2\n      mstore\n      pop\n      pop\n        /* \"contracts/falshloan/UniswapV2Flashloan.sol\":5788:5794  token1 */\n      dup3\n        /* \"contracts/falshloan/UniswapV2Flashloan.sol\":5771:5777  tokens */\n      dup9\n        /* \"contracts/falshloan/UniswapV2Flashloan.sol\":5778:5784  cursor */\n      dup9\n        /* \"contracts/falshloan/UniswapV2Flashloan.sol\":5771:5785  tokens[cursor] */\n      dup2\n      mload\n      dup2\n      lt\n      tag_56\n      jumpi\n      tag_57\n      tag_55\n      jump\t// in\n    tag_57:\n    tag_56:\n      0x20\n      mul\n      0x20\n      add\n      add\n        /* \"contracts/falshloan/UniswapV2Flashloan.sol\":5771:5794  tokens[cursor] = token1 */\n      swap1\n      0xffffffffffffffffffffffffffffffffffffffff\n      and\n      swap1\n      dup2\n      0xffffffffffffffffffffffffffffffffffffffff\n      and\n      dup2\n      mstore\n      pop\n      pop\n        /* \"contracts/falshloan/UniswapV2Flashloan.sol\":5621:5991  if (token0 == wethAddress) {... */\n      jump(tag_58)\n    tag_52:\n        /* \"contracts/falshloan/UniswapV2Flashloan.sol\":5911:5919  reserve1 */\n      dup1\n        /* \"contracts/falshloan/UniswapV2Flashloan.sol\":5889:5919  wethAmounts[cursor] = reserve1 */\n      0xffffffffffffffffffffffffffff\n      and\n        /* \"contracts/falshloan/UniswapV2Flashloan.sol\":5889:5900  wethAmounts */\n      dup10\n        /* \"contracts/falshloan/UniswapV2Flashloan.sol\":5901:5907  cursor */\n      dup9\n        /* \"contracts/falshloan/UniswapV2Flashloan.sol\":5889:5908  wethAmounts[cursor] */\n      dup2\n      mload\n      dup2\n      lt\n      tag_59\n      jumpi\n      tag_60\n      tag_55\n      jump\t// in\n    tag_60:\n    tag_59:\n      0x20\n      mul\n      0x20\n      add\n      add\n        /* \"contracts/falshloan/UniswapV2Flashloan.sol\":5889:5919  wethAmounts[cursor] = reserve1 */\n      dup2\n      dup2\n      mstore\n      pop\n      pop\n        /* \"contracts/falshloan/UniswapV2Flashloan.sol\":5962:5968  token0 */\n      dup4\n        /* \"contracts/falshloan/UniswapV2Flashloan.sol\":5945:5951  tokens */\n      dup9\n        /* \"contracts/falshloan/UniswapV2Flashloan.sol\":5952:5958  cursor */\n      dup9\n        /* \"contracts/falshloan/UniswapV2Flashloan.sol\":5945:5959  tokens[cursor] */\n      dup2\n      mload\n      dup2\n      lt\n      tag_61\n      jumpi\n      tag_62\n      tag_55\n      jump\t// in\n    tag_62:\n    tag_61:\n      0x20\n      mul\n      0x20\n      add\n      add\n        /* \"contracts/falshloan/UniswapV2Flashloan.sol\":5945:5968  tokens[cursor] = token0 */\n      swap1\n      0xffffffffffffffffffffffffffffffffffffffff\n      and\n      swap1\n      dup2\n      0xffffffffffffffffffffffffffffffffffffffff\n      and\n      dup2\n      mstore\n      pop\n      pop\n        /* \"contracts/falshloan/UniswapV2Flashloan.sol\":5621:5991  if (token0 == wethAddress) {... */\n    tag_58:\n        /* \"contracts/falshloan/UniswapV2Flashloan.sol\":6012:6020  cursor++ */\n      dup7\n      dup1\n      tag_63\n      swap1\n      tag_64\n      jump\t// in\n    tag_63:\n      swap8\n      pop\n      pop\n        /* \"contracts/falshloan/UniswapV2Flashloan.sol\":5565:6039  if (reserve0 != 0 && reserve1!=0) {... */\n    tag_51:\n        /* \"contracts/falshloan/UniswapV2Flashloan.sol\":5313:6053  {... */\n      pop\n      pop\n        /* \"contracts/falshloan/UniswapV2Flashloan.sol\":5261:6053  if (token0 == wethAddress || token1 == wethAddress) {... */\n    tag_45:\n        /* \"contracts/falshloan/UniswapV2Flashloan.sol\":5033:6063  {... */\n      pop\n      pop\n      pop\n        /* \"contracts/falshloan/UniswapV2Flashloan.sol\":5028:5031  i++ */\n      dup1\n      dup1\n      0x01\n      add\n      swap2\n      pop\n      pop\n        /* \"contracts/falshloan/UniswapV2Flashloan.sol\":4999:6063  for (uint256 i=0; i< length; i++) {... */\n      jump(tag_29)\n    tag_30:\n      pop\n        /* \"contracts/falshloan/UniswapV2Flashloan.sol\":4770:6069  {... */\n      pop\n      pop\n      pop\n      pop\n        /* \"contracts/falshloan/UniswapV2Flashloan.sol\":4597:6069  function searchWETPairs() external view returns (... */\n      swap1\n      swap2\n      jump\t// out\n        /* \"contracts/falshloan/UniswapV2Flashloan.sol\":4520:4591  address public wethAddress = 0xfFf9976782d46CC05630D1f6eBAb18b2324d6B14 */\n    tag_15:\n      0x01\n      0x00\n      swap1\n      sload\n      swap1\n      0x0100\n      exp\n      swap1\n      div\n      0xffffffffffffffffffffffffffffffffffffffff\n      and\n      dup2\n      jump\t// out\n        /* \"#utility.yul\":7:133   */\n    tag_65:\n        /* \"#utility.yul\":44:51   */\n      0x00\n        /* \"#utility.yul\":84:126   */\n      0xffffffffffffffffffffffffffffffffffffffff\n        /* \"#utility.yul\":77:82   */\n      dup3\n        /* \"#utility.yul\":73:127   */\n      and\n        /* \"#utility.yul\":62:127   */\n      swap1\n      pop\n        /* \"#utility.yul\":7:133   */\n      swap2\n      swap1\n      pop\n      jump\t// out\n        /* \"#utility.yul\":139:235   */\n    tag_66:\n        /* \"#utility.yul\":176:183   */\n      0x00\n        /* \"#utility.yul\":205:229   */\n      tag_101\n        /* \"#utility.yul\":223:228   */\n      dup3\n        /* \"#utility.yul\":205:229   */\n      tag_65\n      jump\t// in\n    tag_101:\n        /* \"#utility.yul\":194:229   */\n      swap1\n      pop\n        /* \"#utility.yul\":139:235   */\n      swap2\n      swap1\n      pop\n      jump\t// out\n        /* \"#utility.yul\":241:359   */\n    tag_67:\n        /* \"#utility.yul\":328:352   */\n      tag_103\n        /* \"#utility.yul\":346:351   */\n      dup2\n        /* \"#utility.yul\":328:352   */\n      tag_66\n      jump\t// in\n    tag_103:\n        /* \"#utility.yul\":323:326   */\n      dup3\n        /* \"#utility.yul\":316:353   */\n      mstore\n        /* \"#utility.yul\":241:359   */\n      pop\n      pop\n      jump\t// out\n        /* \"#utility.yul\":365:587   */\n    tag_9:\n        /* \"#utility.yul\":458:462   */\n      0x00\n        /* \"#utility.yul\":496:498   */\n      0x20\n        /* \"#utility.yul\":485:494   */\n      dup3\n        /* \"#utility.yul\":481:499   */\n      add\n        /* \"#utility.yul\":473:499   */\n      swap1\n      pop\n        /* \"#utility.yul\":509:580   */\n      tag_105\n        /* \"#utility.yul\":577:578   */\n      0x00\n        /* \"#utility.yul\":566:575   */\n      dup4\n        /* \"#utility.yul\":562:579   */\n      add\n        /* \"#utility.yul\":553:559   */\n      dup5\n        /* \"#utility.yul\":509:580   */\n      tag_67\n      jump\t// in\n    tag_105:\n        /* \"#utility.yul\":365:587   */\n      swap3\n      swap2\n      pop\n      pop\n      jump\t// out\n        /* \"#utility.yul\":593:707   */\n    tag_68:\n        /* \"#utility.yul\":660:666   */\n      0x00\n        /* \"#utility.yul\":694:699   */\n      dup2\n        /* \"#utility.yul\":688:700   */\n      mload\n        /* \"#utility.yul\":678:700   */\n      swap1\n      pop\n        /* \"#utility.yul\":593:707   */\n      swap2\n      swap1\n      pop\n      jump\t// out\n        /* \"#utility.yul\":713:897   */\n    tag_69:\n        /* \"#utility.yul\":812:823   */\n      0x00\n        /* \"#utility.yul\":846:852   */\n      dup3\n        /* \"#utility.yul\":841:844   */\n      dup3\n        /* \"#utility.yul\":834:853   */\n      mstore\n        /* \"#utility.yul\":886:890   */\n      0x20\n        /* \"#utility.yul\":881:884   */\n      dup3\n        /* \"#utility.yul\":877:891   */\n      add\n        /* \"#utility.yul\":862:891   */\n      swap1\n      pop\n        /* \"#utility.yul\":713:897   */\n      swap3\n      swap2\n      pop\n      pop\n      jump\t// out\n        /* \"#utility.yul\":903:1035   */\n    tag_70:\n        /* \"#utility.yul\":970:974   */\n      0x00\n        /* \"#utility.yul\":993:996   */\n      dup2\n        /* \"#utility.yul\":985:996   */\n      swap1\n      pop\n        /* \"#utility.yul\":1023:1027   */\n      0x20\n        /* \"#utility.yul\":1018:1021   */\n      dup3\n        /* \"#utility.yul\":1014:1028   */\n      add\n        /* \"#utility.yul\":1006:1028   */\n      swap1\n      pop\n        /* \"#utility.yul\":903:1035   */\n      swap2\n      swap1\n      pop\n      jump\t// out\n        /* \"#utility.yul\":1041:1118   */\n    tag_71:\n        /* \"#utility.yul\":1078:1085   */\n      0x00\n        /* \"#utility.yul\":1107:1112   */\n      dup2\n        /* \"#utility.yul\":1096:1112   */\n      swap1\n      pop\n        /* \"#utility.yul\":1041:1118   */\n      swap2\n      swap1\n      pop\n      jump\t// out\n        /* \"#utility.yul\":1124:1232   */\n    tag_72:\n        /* \"#utility.yul\":1201:1225   */\n      tag_111\n        /* \"#utility.yul\":1219:1224   */\n      dup2\n        /* \"#utility.yul\":1201:1225   */\n      tag_71\n      jump\t// in\n    tag_111:\n        /* \"#utility.yul\":1196:1199   */\n      dup3\n        /* \"#utility.yul\":1189:1226   */\n      mstore\n        /* \"#utility.yul\":1124:1232   */\n      pop\n      pop\n      jump\t// out\n        /* \"#utility.yul\":1238:1417   */\n    tag_73:\n        /* \"#utility.yul\":1307:1317   */\n      0x00\n        /* \"#utility.yul\":1328:1374   */\n      tag_113\n        /* \"#utility.yul\":1370:1373   */\n      dup4\n        /* \"#utility.yul\":1362:1368   */\n      dup4\n        /* \"#utility.yul\":1328:1374   */\n      tag_72\n      jump\t// in\n    tag_113:\n        /* \"#utility.yul\":1406:1410   */\n      0x20\n        /* \"#utility.yul\":1401:1404   */\n      dup4\n        /* \"#utility.yul\":1397:1411   */\n      add\n        /* \"#utility.yul\":1383:1411   */\n      swap1\n      pop\n        /* \"#utility.yul\":1238:1417   */\n      swap3\n      swap2\n      pop\n      pop\n      jump\t// out\n        /* \"#utility.yul\":1423:1536   */\n    tag_74:\n        /* \"#utility.yul\":1493:1497   */\n      0x00\n        /* \"#utility.yul\":1525:1529   */\n      0x20\n        /* \"#utility.yul\":1520:1523   */\n      dup3\n        /* \"#utility.yul\":1516:1530   */\n      add\n        /* \"#utility.yul\":1508:1530   */\n      swap1\n      pop\n        /* \"#utility.yul\":1423:1536   */\n      swap2\n      swap1\n      pop\n      jump\t// out\n        /* \"#utility.yul\":1572:2304   */\n    tag_75:\n        /* \"#utility.yul\":1691:1694   */\n      0x00\n        /* \"#utility.yul\":1720:1774   */\n      tag_116\n        /* \"#utility.yul\":1768:1773   */\n      dup3\n        /* \"#utility.yul\":1720:1774   */\n      tag_68\n      jump\t// in\n    tag_116:\n        /* \"#utility.yul\":1790:1876   */\n      tag_117\n        /* \"#utility.yul\":1869:1875   */\n      dup2\n        /* \"#utility.yul\":1864:1867   */\n      dup6\n        /* \"#utility.yul\":1790:1876   */\n      tag_69\n      jump\t// in\n    tag_117:\n        /* \"#utility.yul\":1783:1876   */\n      swap4\n      pop\n        /* \"#utility.yul\":1900:1956   */\n      tag_118\n        /* \"#utility.yul\":1950:1955   */\n      dup4\n        /* \"#utility.yul\":1900:1956   */\n      tag_70\n      jump\t// in\n    tag_118:\n        /* \"#utility.yul\":1979:1986   */\n      dup1\n        /* \"#utility.yul\":2010:2011   */\n      0x00\n        /* \"#utility.yul\":1995:2279   */\n    tag_119:\n        /* \"#utility.yul\":2020:2026   */\n      dup4\n        /* \"#utility.yul\":2017:2018   */\n      dup2\n        /* \"#utility.yul\":2014:2027   */\n      lt\n        /* \"#utility.yul\":1995:2279   */\n      iszero\n      tag_121\n      jumpi\n        /* \"#utility.yul\":2096:2102   */\n      dup2\n        /* \"#utility.yul\":2090:2103   */\n      mload\n        /* \"#utility.yul\":2123:2186   */\n      tag_122\n        /* \"#utility.yul\":2182:2185   */\n      dup9\n        /* \"#utility.yul\":2167:2180   */\n      dup3\n        /* \"#utility.yul\":2123:2186   */\n      tag_73\n      jump\t// in\n    tag_122:\n        /* \"#utility.yul\":2116:2186   */\n      swap8\n      pop\n        /* \"#utility.yul\":2209:2269   */\n      tag_123\n        /* \"#utility.yul\":2262:2268   */\n      dup4\n        /* \"#utility.yul\":2209:2269   */\n      tag_74\n      jump\t// in\n    tag_123:\n        /* \"#utility.yul\":2199:2269   */\n      swap3\n      pop\n        /* \"#utility.yul\":2055:2279   */\n      pop\n        /* \"#utility.yul\":2042:2043   */\n      0x01\n        /* \"#utility.yul\":2039:2040   */\n      dup2\n        /* \"#utility.yul\":2035:2044   */\n      add\n        /* \"#utility.yul\":2030:2044   */\n      swap1\n      pop\n        /* \"#utility.yul\":1995:2279   */\n      jump(tag_119)\n    tag_121:\n        /* \"#utility.yul\":1999:2013   */\n      pop\n        /* \"#utility.yul\":2295:2298   */\n      dup6\n        /* \"#utility.yul\":2288:2298   */\n      swap4\n      pop\n        /* \"#utility.yul\":1696:2304   */\n      pop\n      pop\n      pop\n        /* \"#utility.yul\":1572:2304   */\n      swap3\n      swap2\n      pop\n      pop\n      jump\t// out\n        /* \"#utility.yul\":2310:2424   */\n    tag_76:\n        /* \"#utility.yul\":2377:2383   */\n      0x00\n        /* \"#utility.yul\":2411:2416   */\n      dup2\n        /* \"#utility.yul\":2405:2417   */\n      mload\n        /* \"#utility.yul\":2395:2417   */\n      swap1\n      pop\n        /* \"#utility.yul\":2310:2424   */\n      swap2\n      swap1\n      pop\n      jump\t// out\n        /* \"#utility.yul\":2430:2614   */\n    tag_77:\n        /* \"#utility.yul\":2529:2540   */\n      0x00\n        /* \"#utility.yul\":2563:2569   */\n      dup3\n        /* \"#utility.yul\":2558:2561   */\n      dup3\n        /* \"#utility.yul\":2551:2570   */\n      mstore\n        /* \"#utility.yul\":2603:2607   */\n      0x20\n        /* \"#utility.yul\":2598:2601   */\n      dup3\n        /* \"#utility.yul\":2594:2608   */\n      add\n        /* \"#utility.yul\":2579:2608   */\n      swap1\n      pop\n        /* \"#utility.yul\":2430:2614   */\n      swap3\n      swap2\n      pop\n      pop\n      jump\t// out\n        /* \"#utility.yul\":2620:2752   */\n    tag_78:\n        /* \"#utility.yul\":2687:2691   */\n      0x00\n        /* \"#utility.yul\":2710:2713   */\n      dup2\n        /* \"#utility.yul\":2702:2713   */\n      swap1\n      pop\n        /* \"#utility.yul\":2740:2744   */\n      0x20\n        /* \"#utility.yul\":2735:2738   */\n      dup3\n        /* \"#utility.yul\":2731:2745   */\n      add\n        /* \"#utility.yul\":2723:2745   */\n      swap1\n      pop\n        /* \"#utility.yul\":2620:2752   */\n      swap2\n      swap1\n      pop\n      jump\t// out\n        /* \"#utility.yul\":2758:2866   */\n    tag_79:\n        /* \"#utility.yul\":2835:2859   */\n      tag_128\n        /* \"#utility.yul\":2853:2858   */\n      dup2\n        /* \"#utility.yul\":2835:2859   */\n      tag_66\n      jump\t// in\n    tag_128:\n        /* \"#utility.yul\":2830:2833   */\n      dup3\n        /* \"#utility.yul\":2823:2860   */\n      mstore\n        /* \"#utility.yul\":2758:2866   */\n      pop\n      pop\n      jump\t// out\n        /* \"#utility.yul\":2872:3051   */\n    tag_80:\n        /* \"#utility.yul\":2941:2951   */\n      0x00\n        /* \"#utility.yul\":2962:3008   */\n      tag_130\n        /* \"#utility.yul\":3004:3007   */\n      dup4\n        /* \"#utility.yul\":2996:3002   */\n      dup4\n        /* \"#utility.yul\":2962:3008   */\n      tag_79\n      jump\t// in\n    tag_130:\n        /* \"#utility.yul\":3040:3044   */\n      0x20\n        /* \"#utility.yul\":3035:3038   */\n      dup4\n        /* \"#utility.yul\":3031:3045   */\n      add\n        /* \"#utility.yul\":3017:3045   */\n      swap1\n      pop\n        /* \"#utility.yul\":2872:3051   */\n      swap3\n      swap2\n      pop\n      pop\n      jump\t// out\n        /* \"#utility.yul\":3057:3170   */\n    tag_81:\n        /* \"#utility.yul\":3127:3131   */\n      0x00\n        /* \"#utility.yul\":3159:3163   */\n      0x20\n        /* \"#utility.yul\":3154:3157   */\n      dup3\n        /* \"#utility.yul\":3150:3164   */\n      add\n        /* \"#utility.yul\":3142:3164   */\n      swap1\n      pop\n        /* \"#utility.yul\":3057:3170   */\n      swap2\n      swap1\n      pop\n      jump\t// out\n        /* \"#utility.yul\":3206:3938   */\n    tag_82:\n        /* \"#utility.yul\":3325:3328   */\n      0x00\n        /* \"#utility.yul\":3354:3408   */\n      tag_133\n        /* \"#utility.yul\":3402:3407   */\n      dup3\n        /* \"#utility.yul\":3354:3408   */\n      tag_76\n      jump\t// in\n    tag_133:\n        /* \"#utility.yul\":3424:3510   */\n      tag_134\n        /* \"#utility.yul\":3503:3509   */\n      dup2\n        /* \"#utility.yul\":3498:3501   */\n      dup6\n        /* \"#utility.yul\":3424:3510   */\n      tag_77\n      jump\t// in\n    tag_134:\n        /* \"#utility.yul\":3417:3510   */\n      swap4\n      pop\n        /* \"#utility.yul\":3534:3590   */\n      tag_135\n        /* \"#utility.yul\":3584:3589   */\n      dup4\n        /* \"#utility.yul\":3534:3590   */\n      tag_78\n      jump\t// in\n    tag_135:\n        /* \"#utility.yul\":3613:3620   */\n      dup1\n        /* \"#utility.yul\":3644:3645   */\n      0x00\n        /* \"#utility.yul\":3629:3913   */\n    tag_136:\n        /* \"#utility.yul\":3654:3660   */\n      dup4\n        /* \"#utility.yul\":3651:3652   */\n      dup2\n        /* \"#utility.yul\":3648:3661   */\n      lt\n        /* \"#utility.yul\":3629:3913   */\n      iszero\n      tag_138\n      jumpi\n        /* \"#utility.yul\":3730:3736   */\n      dup2\n        /* \"#utility.yul\":3724:3737   */\n      mload\n        /* \"#utility.yul\":3757:3820   */\n      tag_139\n        /* \"#utility.yul\":3816:3819   */\n      dup9\n        /* \"#utility.yul\":3801:3814   */\n      dup3\n        /* \"#utility.yul\":3757:3820   */\n      tag_80\n      jump\t// in\n    tag_139:\n        /* \"#utility.yul\":3750:3820   */\n      swap8\n      pop\n        /* \"#utility.yul\":3843:3903   */\n      tag_140\n        /* \"#utility.yul\":3896:3902   */\n      dup4\n        /* \"#utility.yul\":3843:3903   */\n      tag_81\n      jump\t// in\n    tag_140:\n        /* \"#utility.yul\":3833:3903   */\n      swap3\n      pop\n        /* \"#utility.yul\":3689:3913   */\n      pop\n        /* \"#utility.yul\":3676:3677   */\n      0x01\n        /* \"#utility.yul\":3673:3674   */\n      dup2\n        /* \"#utility.yul\":3669:3678   */\n      add\n        /* \"#utility.yul\":3664:3678   */\n      swap1\n      pop\n        /* \"#utility.yul\":3629:3913   */\n      jump(tag_136)\n    tag_138:\n        /* \"#utility.yul\":3633:3647   */\n      pop\n        /* \"#utility.yul\":3929:3932   */\n      dup6\n        /* \"#utility.yul\":3922:3932   */\n      swap4\n      pop\n        /* \"#utility.yul\":3330:3938   */\n      pop\n      pop\n      pop\n        /* \"#utility.yul\":3206:3938   */\n      swap3\n      swap2\n      pop\n      pop\n      jump\t// out\n        /* \"#utility.yul\":3944:4578   */\n    tag_13:\n        /* \"#utility.yul\":4165:4169   */\n      0x00\n        /* \"#utility.yul\":4203:4205   */\n      0x40\n        /* \"#utility.yul\":4192:4201   */\n      dup3\n        /* \"#utility.yul\":4188:4206   */\n      add\n        /* \"#utility.yul\":4180:4206   */\n      swap1\n      pop\n        /* \"#utility.yul\":4252:4261   */\n      dup2\n        /* \"#utility.yul\":4246:4250   */\n      dup2\n        /* \"#utility.yul\":4242:4262   */\n      sub\n        /* \"#utility.yul\":4238:4239   */\n      0x00\n        /* \"#utility.yul\":4227:4236   */\n      dup4\n        /* \"#utility.yul\":4223:4240   */\n      add\n        /* \"#utility.yul\":4216:4263   */\n      mstore\n        /* \"#utility.yul\":4280:4388   */\n      tag_142\n        /* \"#utility.yul\":4383:4387   */\n      dup2\n        /* \"#utility.yul\":4374:4380   */\n      dup6\n        /* \"#utility.yul\":4280:4388   */\n      tag_75\n      jump\t// in\n    tag_142:\n        /* \"#utility.yul\":4272:4388   */\n      swap1\n      pop\n        /* \"#utility.yul\":4435:4444   */\n      dup2\n        /* \"#utility.yul\":4429:4433   */\n      dup2\n        /* \"#utility.yul\":4425:4445   */\n      sub\n        /* \"#utility.yul\":4420:4422   */\n      0x20\n        /* \"#utility.yul\":4409:4418   */\n      dup4\n        /* \"#utility.yul\":4405:4423   */\n      add\n        /* \"#utility.yul\":4398:4446   */\n      mstore\n        /* \"#utility.yul\":4463:4571   */\n      tag_143\n        /* \"#utility.yul\":4566:4570   */\n      dup2\n        /* \"#utility.yul\":4557:4563   */\n      dup5\n        /* \"#utility.yul\":4463:4571   */\n      tag_82\n      jump\t// in\n    tag_143:\n        /* \"#utility.yul\":4455:4571   */\n      swap1\n      pop\n        /* \"#utility.yul\":3944:4578   */\n      swap4\n      swap3\n      pop\n      pop\n      pop\n      jump\t// out\n        /* \"#utility.yul\":4665:4782   */\n    tag_84:\n        /* \"#utility.yul\":4774:4775   */\n      0x00\n        /* \"#utility.yul\":4771:4772   */\n      dup1\n        /* \"#utility.yul\":4764:4776   */\n      revert\n        /* \"#utility.yul\":4911:5033   */\n    tag_86:\n        /* \"#utility.yul\":4984:5008   */\n      tag_148\n        /* \"#utility.yul\":5002:5007   */\n      dup2\n        /* \"#utility.yul\":4984:5008   */\n      tag_71\n      jump\t// in\n    tag_148:\n        /* \"#utility.yul\":4977:4982   */\n      dup2\n        /* \"#utility.yul\":4974:5009   */\n      eq\n        /* \"#utility.yul\":4964:5027   */\n      tag_149\n      jumpi\n        /* \"#utility.yul\":5023:5024   */\n      0x00\n        /* \"#utility.yul\":5020:5021   */\n      dup1\n        /* \"#utility.yul\":5013:5025   */\n      revert\n        /* \"#utility.yul\":4964:5027   */\n    tag_149:\n        /* \"#utility.yul\":4911:5033   */\n      pop\n      jump\t// out\n        /* \"#utility.yul\":5039:5182   */\n    tag_87:\n        /* \"#utility.yul\":5096:5101   */\n      0x00\n        /* \"#utility.yul\":5127:5133   */\n      dup2\n        /* \"#utility.yul\":5121:5134   */\n      mload\n        /* \"#utility.yul\":5112:5134   */\n      swap1\n      pop\n        /* \"#utility.yul\":5143:5176   */\n      tag_151\n        /* \"#utility.yul\":5170:5175   */\n      dup2\n        /* \"#utility.yul\":5143:5176   */\n      tag_86\n      jump\t// in\n    tag_151:\n        /* \"#utility.yul\":5039:5182   */\n      swap3\n      swap2\n      pop\n      pop\n      jump\t// out\n        /* \"#utility.yul\":5188:5539   */\n    tag_21:\n        /* \"#utility.yul\":5258:5264   */\n      0x00\n        /* \"#utility.yul\":5307:5309   */\n      0x20\n        /* \"#utility.yul\":5295:5304   */\n      dup3\n        /* \"#utility.yul\":5286:5293   */\n      dup5\n        /* \"#utility.yul\":5282:5305   */\n      sub\n        /* \"#utility.yul\":5278:5310   */\n      slt\n        /* \"#utility.yul\":5275:5394   */\n      iszero\n      tag_153\n      jumpi\n        /* \"#utility.yul\":5313:5392   */\n      tag_154\n      tag_84\n      jump\t// in\n    tag_154:\n        /* \"#utility.yul\":5275:5394   */\n    tag_153:\n        /* \"#utility.yul\":5433:5434   */\n      0x00\n        /* \"#utility.yul\":5458:5522   */\n      tag_155\n        /* \"#utility.yul\":5514:5521   */\n      dup5\n        /* \"#utility.yul\":5505:5511   */\n      dup3\n        /* \"#utility.yul\":5494:5503   */\n      dup6\n        /* \"#utility.yul\":5490:5512   */\n      add\n        /* \"#utility.yul\":5458:5522   */\n      tag_87\n      jump\t// in\n    tag_155:\n        /* \"#utility.yul\":5448:5522   */\n      swap2\n      pop\n        /* \"#utility.yul\":5404:5532   */\n      pop\n        /* \"#utility.yul\":5188:5539   */\n      swap3\n      swap2\n      pop\n      pop\n      jump\t// out\n        /* \"#utility.yul\":5545:5725   */\n    tag_24:\n        /* \"#utility.yul\":5593:5670   */\n      0x4e487b7100000000000000000000000000000000000000000000000000000000\n        /* \"#utility.yul\":5590:5591   */\n      0x00\n        /* \"#utility.yul\":5583:5671   */\n      mstore\n        /* \"#utility.yul\":5690:5694   */\n      0x41\n        /* \"#utility.yul\":5687:5688   */\n      0x04\n        /* \"#utility.yul\":5680:5695   */\n      mstore\n        /* \"#utility.yul\":5714:5718   */\n      0x24\n        /* \"#utility.yul\":5711:5712   */\n      0x00\n        /* \"#utility.yul\":5704:5719   */\n      revert\n        /* \"#utility.yul\":5731:5849   */\n    tag_88:\n        /* \"#utility.yul\":5818:5842   */\n      tag_158\n        /* \"#utility.yul\":5836:5841   */\n      dup2\n        /* \"#utility.yul\":5818:5842   */\n      tag_71\n      jump\t// in\n    tag_158:\n        /* \"#utility.yul\":5813:5816   */\n      dup3\n        /* \"#utility.yul\":5806:5843   */\n      mstore\n        /* \"#utility.yul\":5731:5849   */\n      pop\n      pop\n      jump\t// out\n        /* \"#utility.yul\":5855:6077   */\n    tag_33:\n        /* \"#utility.yul\":5948:5952   */\n      0x00\n        /* \"#utility.yul\":5986:5988   */\n      0x20\n        /* \"#utility.yul\":5975:5984   */\n      dup3\n        /* \"#utility.yul\":5971:5989   */\n      add\n        /* \"#utility.yul\":5963:5989   */\n      swap1\n      pop\n        /* \"#utility.yul\":5999:6070   */\n      tag_160\n        /* \"#utility.yul\":6067:6068   */\n      0x00\n        /* \"#utility.yul\":6056:6065   */\n      dup4\n        /* \"#utility.yul\":6052:6069   */\n      add\n        /* \"#utility.yul\":6043:6049   */\n      dup5\n        /* \"#utility.yul\":5999:6070   */\n      tag_88\n      jump\t// in\n    tag_160:\n        /* \"#utility.yul\":5855:6077   */\n      swap3\n      swap2\n      pop\n      pop\n      jump\t// out\n        /* \"#utility.yul\":6083:6205   */\n    tag_89:\n        /* \"#utility.yul\":6156:6180   */\n      tag_162\n        /* \"#utility.yul\":6174:6179   */\n      dup2\n        /* \"#utility.yul\":6156:6180   */\n      tag_66\n      jump\t// in\n    tag_162:\n        /* \"#utility.yul\":6149:6154   */\n      dup2\n        /* \"#utility.yul\":6146:6181   */\n      eq\n        /* \"#utility.yul\":6136:6199   */\n      tag_163\n      jumpi\n        /* \"#utility.yul\":6195:6196   */\n      0x00\n        /* \"#utility.yul\":6192:6193   */\n      dup1\n        /* \"#utility.yul\":6185:6197   */\n      revert\n        /* \"#utility.yul\":6136:6199   */\n    tag_163:\n        /* \"#utility.yul\":6083:6205   */\n      pop\n      jump\t// out\n        /* \"#utility.yul\":6211:6354   */\n    tag_90:\n        /* \"#utility.yul\":6268:6273   */\n      0x00\n        /* \"#utility.yul\":6299:6305   */\n      dup2\n        /* \"#utility.yul\":6293:6306   */\n      mload\n        /* \"#utility.yul\":6284:6306   */\n      swap1\n      pop\n        /* \"#utility.yul\":6315:6348   */\n      tag_165\n        /* \"#utility.yul\":6342:6347   */\n      dup2\n        /* \"#utility.yul\":6315:6348   */\n      tag_89\n      jump\t// in\n    tag_165:\n        /* \"#utility.yul\":6211:6354   */\n      swap3\n      swap2\n      pop\n      pop\n      jump\t// out\n        /* \"#utility.yul\":6360:6711   */\n    tag_37:\n        /* \"#utility.yul\":6430:6436   */\n      0x00\n        /* \"#utility.yul\":6479:6481   */\n      0x20\n        /* \"#utility.yul\":6467:6476   */\n      dup3\n        /* \"#utility.yul\":6458:6465   */\n      dup5\n        /* \"#utility.yul\":6454:6477   */\n      sub\n        /* \"#utility.yul\":6450:6482   */\n      slt\n        /* \"#utility.yul\":6447:6566   */\n      iszero\n      tag_167\n      jumpi\n        /* \"#utility.yul\":6485:6564   */\n      tag_168\n      tag_84\n      jump\t// in\n    tag_168:\n        /* \"#utility.yul\":6447:6566   */\n    tag_167:\n        /* \"#utility.yul\":6605:6606   */\n      0x00\n        /* \"#utility.yul\":6630:6694   */\n      tag_169\n        /* \"#utility.yul\":6686:6693   */\n      dup5\n        /* \"#utility.yul\":6677:6683   */\n      dup3\n        /* \"#utility.yul\":6666:6675   */\n      dup6\n        /* \"#utility.yul\":6662:6684   */\n      add\n        /* \"#utility.yul\":6630:6694   */\n      tag_90\n      jump\t// in\n    tag_169:\n        /* \"#utility.yul\":6620:6694   */\n      swap2\n      pop\n        /* \"#utility.yul\":6576:6704   */\n      pop\n        /* \"#utility.yul\":6360:6711   */\n      swap3\n      swap2\n      pop\n      pop\n      jump\t// out\n        /* \"#utility.yul\":6717:6831   */\n    tag_91:\n        /* \"#utility.yul\":6754:6761   */\n      0x00\n        /* \"#utility.yul\":6794:6824   */\n      0xffffffffffffffffffffffffffff\n        /* \"#utility.yul\":6787:6792   */\n      dup3\n        /* \"#utility.yul\":6783:6825   */\n      and\n        /* \"#utility.yul\":6772:6825   */\n      swap1\n      pop\n        /* \"#utility.yul\":6717:6831   */\n      swap2\n      swap1\n      pop\n      jump\t// out\n        /* \"#utility.yul\":6837:6959   */\n    tag_92:\n        /* \"#utility.yul\":6910:6934   */\n      tag_172\n        /* \"#utility.yul\":6928:6933   */\n      dup2\n        /* \"#utility.yul\":6910:6934   */\n      tag_91\n      jump\t// in\n    tag_172:\n        /* \"#utility.yul\":6903:6908   */\n      dup2\n        /* \"#utility.yul\":6900:6935   */\n      eq\n        /* \"#utility.yul\":6890:6953   */\n      tag_173\n      jumpi\n        /* \"#utility.yul\":6949:6950   */\n      0x00\n        /* \"#utility.yul\":6946:6947   */\n      dup1\n        /* \"#utility.yul\":6939:6951   */\n      revert\n        /* \"#utility.yul\":6890:6953   */\n    tag_173:\n        /* \"#utility.yul\":6837:6959   */\n      pop\n      jump\t// out\n        /* \"#utility.yul\":6965:7108   */\n    tag_93:\n        /* \"#utility.yul\":7022:7027   */\n      0x00\n        /* \"#utility.yul\":7053:7059   */\n      dup2\n        /* \"#utility.yul\":7047:7060   */\n      mload\n        /* \"#utility.yul\":7038:7060   */\n      swap1\n      pop\n        /* \"#utility.yul\":7069:7102   */\n      tag_175\n        /* \"#utility.yul\":7096:7101   */\n      dup2\n        /* \"#utility.yul\":7069:7102   */\n      tag_92\n      jump\t// in\n    tag_175:\n        /* \"#utility.yul\":6965:7108   */\n      swap3\n      swap2\n      pop\n      pop\n      jump\t// out\n        /* \"#utility.yul\":7114:7207   */\n    tag_94:\n        /* \"#utility.yul\":7150:7157   */\n      0x00\n        /* \"#utility.yul\":7190:7200   */\n      0xffffffff\n        /* \"#utility.yul\":7183:7188   */\n      dup3\n        /* \"#utility.yul\":7179:7201   */\n      and\n        /* \"#utility.yul\":7168:7201   */\n      swap1\n      pop\n        /* \"#utility.yul\":7114:7207   */\n      swap2\n      swap1\n      pop\n      jump\t// out\n        /* \"#utility.yul\":7213:7333   */\n    tag_95:\n        /* \"#utility.yul\":7285:7308   */\n      tag_178\n        /* \"#utility.yul\":7302:7307   */\n      dup2\n        /* \"#utility.yul\":7285:7308   */\n      tag_94\n      jump\t// in\n    tag_178:\n        /* \"#utility.yul\":7278:7283   */\n      dup2\n        /* \"#utility.yul\":7275:7309   */\n      eq\n        /* \"#utility.yul\":7265:7327   */\n      tag_179\n      jumpi\n        /* \"#utility.yul\":7323:7324   */\n      0x00\n        /* \"#utility.yul\":7320:7321   */\n      dup1\n        /* \"#utility.yul\":7313:7325   */\n      revert\n        /* \"#utility.yul\":7265:7327   */\n    tag_179:\n        /* \"#utility.yul\":7213:7333   */\n      pop\n      jump\t// out\n        /* \"#utility.yul\":7339:7480   */\n    tag_96:\n        /* \"#utility.yul\":7395:7400   */\n      0x00\n        /* \"#utility.yul\":7426:7432   */\n      dup2\n        /* \"#utility.yul\":7420:7433   */\n      mload\n        /* \"#utility.yul\":7411:7433   */\n      swap1\n      pop\n        /* \"#utility.yul\":7442:7474   */\n      tag_181\n        /* \"#utility.yul\":7468:7473   */\n      dup2\n        /* \"#utility.yul\":7442:7474   */\n      tag_95\n      jump\t// in\n    tag_181:\n        /* \"#utility.yul\":7339:7480   */\n      swap3\n      swap2\n      pop\n      pop\n      jump\t// out\n        /* \"#utility.yul\":7486:8147   */\n    tag_49:\n        /* \"#utility.yul\":7573:7579   */\n      0x00\n        /* \"#utility.yul\":7581:7587   */\n      dup1\n        /* \"#utility.yul\":7589:7595   */\n      0x00\n        /* \"#utility.yul\":7638:7640   */\n      0x60\n        /* \"#utility.yul\":7626:7635   */\n      dup5\n        /* \"#utility.yul\":7617:7624   */\n      dup7\n        /* \"#utility.yul\":7613:7636   */\n      sub\n        /* \"#utility.yul\":7609:7641   */\n      slt\n        /* \"#utility.yul\":7606:7725   */\n      iszero\n      tag_183\n      jumpi\n        /* \"#utility.yul\":7644:7723   */\n      tag_184\n      tag_84\n      jump\t// in\n    tag_184:\n        /* \"#utility.yul\":7606:7725   */\n    tag_183:\n        /* \"#utility.yul\":7764:7765   */\n      0x00\n        /* \"#utility.yul\":7789:7853   */\n      tag_185\n        /* \"#utility.yul\":7845:7852   */\n      dup7\n        /* \"#utility.yul\":7836:7842   */\n      dup3\n        /* \"#utility.yul\":7825:7834   */\n      dup8\n        /* \"#utility.yul\":7821:7843   */\n      add\n        /* \"#utility.yul\":7789:7853   */\n      tag_93\n      jump\t// in\n    tag_185:\n        /* \"#utility.yul\":7779:7853   */\n      swap4\n      pop\n        /* \"#utility.yul\":7735:7863   */\n      pop\n        /* \"#utility.yul\":7902:7904   */\n      0x20\n        /* \"#utility.yul\":7928:7992   */\n      tag_186\n        /* \"#utility.yul\":7984:7991   */\n      dup7\n        /* \"#utility.yul\":7975:7981   */\n      dup3\n        /* \"#utility.yul\":7964:7973   */\n      dup8\n        /* \"#utility.yul\":7960:7982   */\n      add\n        /* \"#utility.yul\":7928:7992   */\n      tag_93\n      jump\t// in\n    tag_186:\n        /* \"#utility.yul\":7918:7992   */\n      swap3\n      pop\n        /* \"#utility.yul\":7873:8002   */\n      pop\n        /* \"#utility.yul\":8041:8043   */\n      0x40\n        /* \"#utility.yul\":8067:8130   */\n      tag_187\n        /* \"#utility.yul\":8122:8129   */\n      dup7\n        /* \"#utility.yul\":8113:8119   */\n      dup3\n        /* \"#utility.yul\":8102:8111   */\n      dup8\n        /* \"#utility.yul\":8098:8120   */\n      add\n        /* \"#utility.yul\":8067:8130   */\n      tag_96\n      jump\t// in\n    tag_187:\n        /* \"#utility.yul\":8057:8130   */\n      swap2\n      pop\n        /* \"#utility.yul\":8012:8140   */\n      pop\n        /* \"#utility.yul\":7486:8147   */\n      swap3\n      pop\n      swap3\n      pop\n      swap3\n      jump\t// out\n        /* \"#utility.yul\":8153:8333   */\n    tag_55:\n        /* \"#utility.yul\":8201:8278   */\n      0x4e487b7100000000000000000000000000000000000000000000000000000000\n        /* \"#utility.yul\":8198:8199   */\n      0x00\n        /* \"#utility.yul\":8191:8279   */\n      mstore\n        /* \"#utility.yul\":8298:8302   */\n      0x32\n        /* \"#utility.yul\":8295:8296   */\n      0x04\n        /* \"#utility.yul\":8288:8303   */\n      mstore\n        /* \"#utility.yul\":8322:8326   */\n      0x24\n        /* \"#utility.yul\":8319:8320   */\n      0x00\n        /* \"#utility.yul\":8312:8327   */\n      revert\n        /* \"#utility.yul\":8339:8519   */\n    tag_97:\n        /* \"#utility.yul\":8387:8464   */\n      0x4e487b7100000000000000000000000000000000000000000000000000000000\n        /* \"#utility.yul\":8384:8385   */\n      0x00\n        /* \"#utility.yul\":8377:8465   */\n      mstore\n        /* \"#utility.yul\":8484:8488   */\n      0x11\n        /* \"#utility.yul\":8481:8482   */\n      0x04\n        /* \"#utility.yul\":8474:8489   */\n      mstore\n        /* \"#utility.yul\":8508:8512   */\n      0x24\n        /* \"#utility.yul\":8505:8506   */\n      0x00\n        /* \"#utility.yul\":8498:8513   */\n      revert\n        /* \"#utility.yul\":8525:8758   */\n    tag_64:\n        /* \"#utility.yul\":8564:8567   */\n      0x00\n        /* \"#utility.yul\":8587:8611   */\n      tag_191\n        /* \"#utility.yul\":8605:8610   */\n      dup3\n        /* \"#utility.yul\":8587:8611   */\n      tag_71\n      jump\t// in\n    tag_191:\n        /* \"#utility.yul\":8578:8611   */\n      swap2\n      pop\n        /* \"#utility.yul\":8633:8699   */\n      0xffffffffffffffffffffffffffffffffffffffffffffffffffffffffffffffff\n        /* \"#utility.yul\":8626:8631   */\n      dup3\n        /* \"#utility.yul\":8623:8700   */\n      sub\n        /* \"#utility.yul\":8620:8723   */\n      tag_192\n      jumpi\n        /* \"#utility.yul\":8703:8721   */\n      tag_193\n      tag_97\n      jump\t// in\n    tag_193:\n        /* \"#utility.yul\":8620:8723   */\n    tag_192:\n        /* \"#utility.yul\":8750:8751   */\n      0x01\n        /* \"#utility.yul\":8743:8748   */\n      dup3\n        /* \"#utility.yul\":8739:8752   */\n      add\n        /* \"#utility.yul\":8732:8752   */\n      swap1\n      pop\n        /* \"#utility.yul\":8525:8758   */\n      swap2\n      swap1\n      pop\n      jump\t// out\n\n    auxdata: 0xa2646970667358221220767820aa5068e4432084cbd869900ab3cbd00944e329d9d19ce4aaac247f59c164736f6c634300081a0033\n}\n",
				"bytecode": {
					"linkReferences": {},
					"object": "608060405273f62c03e08ada871a0beb309762e260a7a6a880e65f806101000a81548173ffffffffffffffffffffffffffffffffffffffff021916908373ffffffffffffffffffffffffffffffffffffffff16021790555073fff9976782d46cc05630d1f6ebab18b2324d6b1460015f6101000a81548173ffffffffffffffffffffffffffffffffffffffff021916908373ffffffffffffffffffffffffffffffffffffffff16021790555034801560b5575f80fd5b50610b1a806100c35f395ff3fe608060405234801561000f575f80fd5b506004361061003f575f3560e01c806323bf1812146100435780634055cdfb146100615780634f0e0ef314610080575b5f80fd5b61004b61009e565b60405161005891906106af565b60405180910390f35b6100696100c1565b60405161007792919061083f565b60405180910390f35b61008861064b565b60405161009591906106af565b60405180910390f35b5f8054906101000a900473ffffffffffffffffffffffffffffffffffffffff1681565b6060805f805f9054906101000a900473ffffffffffffffffffffffffffffffffffffffff1673ffffffffffffffffffffffffffffffffffffffff1663574f2ba36040518163ffffffff1660e01b8152600401602060405180830381865afa15801561012e573d5f803e3d5ffd5b505050506040513d601f19601f8201168201806040525081019061015291906108a2565b90505f8167ffffffffffffffff81111561016f5761016e6108cd565b5b60405190808252806020026020018201604052801561019d5781602001602082028036833780820191505090505b5090505f8267ffffffffffffffff8111156101bb576101ba6108cd565b5b6040519080825280602002602001820160405280156101e95781602001602082028036833780820191505090505b5090505f805f90505b84811015610642575f805f9054906101000a900473ffffffffffffffffffffffffffffffffffffffff1673ffffffffffffffffffffffffffffffffffffffff16631e3dd18b836040518263ffffffff1660e01b81526004016102549190610909565b602060405180830381865afa15801561026f573d5f803e3d5ffd5b505050506040513d601f19601f82011682018060405250810190610293919061094c565b90505f8173ffffffffffffffffffffffffffffffffffffffff16630dfe16816040518163ffffffff1660e01b8152600401602060405180830381865afa1580156102df573d5f803e3d5ffd5b505050506040513d601f19601f82011682018060405250810190610303919061094c565b90505f8273ffffffffffffffffffffffffffffffffffffffff1663d21220a76040518163ffffffff1660e01b8152600401602060405180830381865afa15801561034f573d5f803e3d5ffd5b505050506040513d601f19601f82011682018060405250810190610373919061094c565b905060015f9054906101000a900473ffffffffffffffffffffffffffffffffffffffff1673ffffffffffffffffffffffffffffffffffffffff168273ffffffffffffffffffffffffffffffffffffffff16148061041c575060015f9054906101000a900473ffffffffffffffffffffffffffffffffffffffff1673ffffffffffffffffffffffffffffffffffffffff168173ffffffffffffffffffffffffffffffffffffffff16145b15610632575f808473ffffffffffffffffffffffffffffffffffffffff16630902f1ac6040518163ffffffff1660e01b8152600401606060405180830381865afa15801561046c573d5f803e3d5ffd5b505050506040513d601f19601f8201168201806040525081019061049091906109f3565b50915091505f826dffffffffffffffffffffffffffff16141580156104c557505f816dffffffffffffffffffffffffffff1614155b1561062f5760015f9054906101000a900473ffffffffffffffffffffffffffffffffffffffff1673ffffffffffffffffffffffffffffffffffffffff168473ffffffffffffffffffffffffffffffffffffffff16036105a157816dffffffffffffffffffffffffffff1689888151811061054257610541610a43565b5b6020026020010181815250508288888151811061056257610561610a43565b5b602002602001019073ffffffffffffffffffffffffffffffffffffffff16908173ffffffffffffffffffffffffffffffffffffffff1681525050610620565b806dffffffffffffffffffffffffffff168988815181106105c5576105c4610a43565b5b602002602001018181525050838888815181106105e5576105e4610a43565b5b602002602001019073ffffffffffffffffffffffffffffffffffffffff16908173ffffffffffffffffffffffffffffffffffffffff16815250505b868061062b90610a9d565b9750505b50505b50505080806001019150506101f2565b50505050509091565b60015f9054906101000a900473ffffffffffffffffffffffffffffffffffffffff1681565b5f73ffffffffffffffffffffffffffffffffffffffff82169050919050565b5f61069982610670565b9050919050565b6106a98161068f565b82525050565b5f6020820190506106c25f8301846106a0565b92915050565b5f81519050919050565b5f82825260208201905092915050565b5f819050602082019050919050565b5f819050919050565b610703816106f1565b82525050565b5f61071483836106fa565b60208301905092915050565b5f602082019050919050565b5f610736826106c8565b61074081856106d2565b935061074b836106e2565b805f5b8381101561077b5781516107628882610709565b975061076d83610720565b92505060018101905061074e565b5085935050505092915050565b5f81519050919050565b5f82825260208201905092915050565b5f819050602082019050919050565b6107ba8161068f565b82525050565b5f6107cb83836107b1565b60208301905092915050565b5f602082019050919050565b5f6107ed82610788565b6107f78185610792565b9350610802836107a2565b805f5b8381101561083257815161081988826107c0565b9750610824836107d7565b925050600181019050610805565b5085935050505092915050565b5f6040820190508181035f830152610857818561072c565b9050818103602083015261086b81846107e3565b90509392505050565b5f80fd5b610881816106f1565b811461088b575f80fd5b50565b5f8151905061089c81610878565b92915050565b5f602082840312156108b7576108b6610874565b5b5f6108c48482850161088e565b91505092915050565b7f4e487b71000000000000000000000000000000000000000000000000000000005f52604160045260245ffd5b610903816106f1565b82525050565b5f60208201905061091c5f8301846108fa565b92915050565b61092b8161068f565b8114610935575f80fd5b50565b5f8151905061094681610922565b92915050565b5f6020828403121561096157610960610874565b5b5f61096e84828501610938565b91505092915050565b5f6dffffffffffffffffffffffffffff82169050919050565b61099981610977565b81146109a3575f80fd5b50565b5f815190506109b481610990565b92915050565b5f63ffffffff82169050919050565b6109d2816109ba565b81146109dc575f80fd5b50565b5f815190506109ed816109c9565b92915050565b5f805f60608486031215610a0a57610a09610874565b5b5f610a17868287016109a6565b9350506020610a28868287016109a6565b9250506040610a39868287016109df565b9150509250925092565b7f4e487b71000000000000000000000000000000000000000000000000000000005f52603260045260245ffd5b7f4e487b71000000000000000000000000000000000000000000000000000000005f52601160045260245ffd5b5f610aa7826106f1565b91507fffffffffffffffffffffffffffffffffffffffffffffffffffffffffffffffff8203610ad957610ad8610a70565b5b60018201905091905056fea2646970667358221220767820aa5068e4432084cbd869900ab3cbd00944e329d9d19ce4aaac247f59c164736f6c634300081a0033",
					"opcodes": "PUSH1 0x80 PUSH1 0x40 MSTORE PUSH20 0xF62C03E08ADA871A0BEB309762E260A7A6A880E6 PUSH0 DUP1 PUSH2 0x100 EXP DUP2 SLOAD DUP2 PUSH20 0xFFFFFFFFFFFFFFFFFFFFFFFFFFFFFFFFFFFFFFFF MUL NOT AND SWAP1 DUP4 PUSH20 0xFFFFFFFFFFFFFFFFFFFFFFFFFFFFFFFFFFFFFFFF AND MUL OR SWAP1 SSTORE POP PUSH20 0xFFF9976782D46CC05630D1F6EBAB18B2324D6B14 PUSH1 0x1 PUSH0 PUSH2 0x100 EXP DUP2 SLOAD DUP2 PUSH20 0xFFFFFFFFFFFFFFFFFFFFFFFFFFFFFFFFFFFFFFFF MUL NOT AND SWAP1 DUP4 PUSH20 0xFFFFFFFFFFFFFFFFFFFFFFFFFFFFFFFFFFFFFFFF AND MUL OR SWAP1 SSTORE POP CALLVALUE DUP1 ISZERO PUSH1 0xB5 JUMPI PUSH0 DUP1 REVERT JUMPDEST POP PUSH2 0xB1A DUP1 PUSH2 0xC3 PUSH0 CODECOPY PUSH0 RETURN INVALID PUSH1 0x80 PUSH1 0x40 MSTORE CALLVALUE DUP1 ISZERO PUSH2 0xF JUMPI PUSH0 DUP1 REVERT JUMPDEST POP PUSH1 0x4 CALLDATASIZE LT PUSH2 0x3F JUMPI PUSH0 CALLDATALOAD PUSH1 0xE0 SHR DUP1 PUSH4 0x23BF1812 EQ PUSH2 0x43 JUMPI DUP1 PUSH4 0x4055CDFB EQ PUSH2 0x61 JUMPI DUP1 PUSH4 0x4F0E0EF3 EQ PUSH2 0x80 JUMPI JUMPDEST PUSH0 DUP1 REVERT JUMPDEST PUSH2 0x4B PUSH2 0x9E JUMP JUMPDEST PUSH1 0x40 MLOAD PUSH2 0x58 SWAP2 SWAP1 PUSH2 0x6AF JUMP JUMPDEST PUSH1 0x40 MLOAD DUP1 SWAP2 SUB SWAP1 RETURN JUMPDEST PUSH2 0x69 PUSH2 0xC1 JUMP JUMPDEST PUSH1 0x40 MLOAD PUSH2 0x77 SWAP3 SWAP2 SWAP1 PUSH2 0x83F JUMP JUMPDEST PUSH1 0x40 MLOAD DUP1 SWAP2 SUB SWAP1 RETURN JUMPDEST PUSH2 0x88 PUSH2 0x64B JUMP JUMPDEST PUSH1 0x40 MLOAD PUSH2 0x95 SWAP2 SWAP1 PUSH2 0x6AF JUMP JUMPDEST PUSH1 0x40 MLOAD DUP1 SWAP2 SUB SWAP1 RETURN JUMPDEST PUSH0 DUP1 SLOAD SWAP1 PUSH2 0x100 EXP SWAP1 DIV PUSH20 0xFFFFFFFFFFFFFFFFFFFFFFFFFFFFFFFFFFFFFFFF AND DUP2 JUMP JUMPDEST PUSH1 0x60 DUP1 PUSH0 DUP1 PUSH0 SWAP1 SLOAD SWAP1 PUSH2 0x100 EXP SWAP1 DIV PUSH20 0xFFFFFFFFFFFFFFFFFFFFFFFFFFFFFFFFFFFFFFFF AND PUSH20 0xFFFFFFFFFFFFFFFFFFFFFFFFFFFFFFFFFFFFFFFF AND PUSH4 0x574F2BA3 PUSH1 0x40 MLOAD DUP2 PUSH4 0xFFFFFFFF AND PUSH1 0xE0 SHL DUP2 MSTORE PUSH1 0x4 ADD PUSH1 0x20 PUSH1 0x40 MLOAD DUP1 DUP4 SUB DUP2 DUP7 GAS STATICCALL ISZERO DUP1 ISZERO PUSH2 0x12E JUMPI RETURNDATASIZE PUSH0 DUP1 RETURNDATACOPY RETURNDATASIZE PUSH0 REVERT JUMPDEST POP POP POP POP PUSH1 0x40 MLOAD RETURNDATASIZE PUSH1 0x1F NOT PUSH1 0x1F DUP3 ADD AND DUP3 ADD DUP1 PUSH1 0x40 MSTORE POP DUP2 ADD SWAP1 PUSH2 0x152 SWAP2 SWAP1 PUSH2 0x8A2 JUMP JUMPDEST SWAP1 POP PUSH0 DUP2 PUSH8 0xFFFFFFFFFFFFFFFF DUP2 GT ISZERO PUSH2 0x16F JUMPI PUSH2 0x16E PUSH2 0x8CD JUMP JUMPDEST JUMPDEST PUSH1 0x40 MLOAD SWAP1 DUP1 DUP3 MSTORE DUP1 PUSH1 0x20 MUL PUSH1 0x20 ADD DUP3 ADD PUSH1 0x40 MSTORE DUP1 ISZERO PUSH2 0x19D JUMPI DUP2 PUSH1 0x20 ADD PUSH1 0x20 DUP3 MUL DUP1 CALLDATASIZE DUP4 CALLDATACOPY DUP1 DUP3 ADD SWAP2 POP POP SWAP1 POP JUMPDEST POP SWAP1 POP PUSH0 DUP3 PUSH8 0xFFFFFFFFFFFFFFFF DUP2 GT ISZERO PUSH2 0x1BB JUMPI PUSH2 0x1BA PUSH2 0x8CD JUMP JUMPDEST JUMPDEST PUSH1 0x40 MLOAD SWAP1 DUP1 DUP3 MSTORE DUP1 PUSH1 0x20 MUL PUSH1 0x20 ADD DUP3 ADD PUSH1 0x40 MSTORE DUP1 ISZERO PUSH2 0x1E9 JUMPI DUP2 PUSH1 0x20 ADD PUSH1 0x20 DUP3 MUL DUP1 CALLDATASIZE DUP4 CALLDATACOPY DUP1 DUP3 ADD SWAP2 POP POP SWAP1 POP JUMPDEST POP SWAP1 POP PUSH0 DUP1 PUSH0 SWAP1 POP JUMPDEST DUP5 DUP2 LT ISZERO PUSH2 0x642 JUMPI PUSH0 DUP1 PUSH0 SWAP1 SLOAD SWAP1 PUSH2 0x100 EXP SWAP1 DIV PUSH20 0xFFFFFFFFFFFFFFFFFFFFFFFFFFFFFFFFFFFFFFFF AND PUSH20 0xFFFFFFFFFFFFFFFFFFFFFFFFFFFFFFFFFFFFFFFF AND PUSH4 0x1E3DD18B DUP4 PUSH1 0x40 MLOAD DUP3 PUSH4 0xFFFFFFFF AND PUSH1 0xE0 SHL DUP2 MSTORE PUSH1 0x4 ADD PUSH2 0x254 SWAP2 SWAP1 PUSH2 0x909 JUMP JUMPDEST PUSH1 0x20 PUSH1 0x40 MLOAD DUP1 DUP4 SUB DUP2 DUP7 GAS STATICCALL ISZERO DUP1 ISZERO PUSH2 0x26F JUMPI RETURNDATASIZE PUSH0 DUP1 RETURNDATACOPY RETURNDATASIZE PUSH0 REVERT JUMPDEST POP POP POP POP PUSH1 0x40 MLOAD RETURNDATASIZE PUSH1 0x1F NOT PUSH1 0x1F DUP3 ADD AND DUP3 ADD DUP1 PUSH1 0x40 MSTORE POP DUP2 ADD SWAP1 PUSH2 0x293 SWAP2 SWAP1 PUSH2 0x94C JUMP JUMPDEST SWAP1 POP PUSH0 DUP2 PUSH20 0xFFFFFFFFFFFFFFFFFFFFFFFFFFFFFFFFFFFFFFFF AND PUSH4 0xDFE1681 PUSH1 0x40 MLOAD DUP2 PUSH4 0xFFFFFFFF AND PUSH1 0xE0 SHL DUP2 MSTORE PUSH1 0x4 ADD PUSH1 0x20 PUSH1 0x40 MLOAD DUP1 DUP4 SUB DUP2 DUP7 GAS STATICCALL ISZERO DUP1 ISZERO PUSH2 0x2DF JUMPI RETURNDATASIZE PUSH0 DUP1 RETURNDATACOPY RETURNDATASIZE PUSH0 REVERT JUMPDEST POP POP POP POP PUSH1 0x40 MLOAD RETURNDATASIZE PUSH1 0x1F NOT PUSH1 0x1F DUP3 ADD AND DUP3 ADD DUP1 PUSH1 0x40 MSTORE POP DUP2 ADD SWAP1 PUSH2 0x303 SWAP2 SWAP1 PUSH2 0x94C JUMP JUMPDEST SWAP1 POP PUSH0 DUP3 PUSH20 0xFFFFFFFFFFFFFFFFFFFFFFFFFFFFFFFFFFFFFFFF AND PUSH4 0xD21220A7 PUSH1 0x40 MLOAD DUP2 PUSH4 0xFFFFFFFF AND PUSH1 0xE0 SHL DUP2 MSTORE PUSH1 0x4 ADD PUSH1 0x20 PUSH1 0x40 MLOAD DUP1 DUP4 SUB DUP2 DUP7 GAS STATICCALL ISZERO DUP1 ISZERO PUSH2 0x34F JUMPI RETURNDATASIZE PUSH0 DUP1 RETURNDATACOPY RETURNDATASIZE PUSH0 REVERT JUMPDEST POP POP POP POP PUSH1 0x40 MLOAD RETURNDATASIZE PUSH1 0x1F NOT PUSH1 0x1F DUP3 ADD AND DUP3 ADD DUP1 PUSH1 0x40 MSTORE POP DUP2 ADD SWAP1 PUSH2 0x373 SWAP2 SWAP1 PUSH2 0x94C JUMP JUMPDEST SWAP1 POP PUSH1 0x1 PUSH0 SWAP1 SLOAD SWAP1 PUSH2 0x100 EXP SWAP1 DIV PUSH20 0xFFFFFFFFFFFFFFFFFFFFFFFFFFFFFFFFFFFFFFFF AND PUSH20 0xFFFFFFFFFFFFFFFFFFFFFFFFFFFFFFFFFFFFFFFF AND DUP3 PUSH20 0xFFFFFFFFFFFFFFFFFFFFFFFFFFFFFFFFFFFFFFFF AND EQ DUP1 PUSH2 0x41C JUMPI POP PUSH1 0x1 PUSH0 SWAP1 SLOAD SWAP1 PUSH2 0x100 EXP SWAP1 DIV PUSH20 0xFFFFFFFFFFFFFFFFFFFFFFFFFFFFFFFFFFFFFFFF AND PUSH20 0xFFFFFFFFFFFFFFFFFFFFFFFFFFFFFFFFFFFFFFFF AND DUP2 PUSH20 0xFFFFFFFFFFFFFFFFFFFFFFFFFFFFFFFFFFFFFFFF AND EQ JUMPDEST ISZERO PUSH2 0x632 JUMPI PUSH0 DUP1 DUP5 PUSH20 0xFFFFFFFFFFFFFFFFFFFFFFFFFFFFFFFFFFFFFFFF AND PUSH4 0x902F1AC PUSH1 0x40 MLOAD DUP2 PUSH4 0xFFFFFFFF AND PUSH1 0xE0 SHL DUP2 MSTORE PUSH1 0x4 ADD PUSH1 0x60 PUSH1 0x40 MLOAD DUP1 DUP4 SUB DUP2 DUP7 GAS STATICCALL ISZERO DUP1 ISZERO PUSH2 0x46C JUMPI RETURNDATASIZE PUSH0 DUP1 RETURNDATACOPY RETURNDATASIZE PUSH0 REVERT JUMPDEST POP POP POP POP PUSH1 0x40 MLOAD RETURNDATASIZE PUSH1 0x1F NOT PUSH1 0x1F DUP3 ADD AND DUP3 ADD DUP1 PUSH1 0x40 MSTORE POP DUP2 ADD SWAP1 PUSH2 0x490 SWAP2 SWAP1 PUSH2 0x9F3 JUMP JUMPDEST POP SWAP2 POP SWAP2 POP PUSH0 DUP3 PUSH14 0xFFFFFFFFFFFFFFFFFFFFFFFFFFFF AND EQ ISZERO DUP1 ISZERO PUSH2 0x4C5 JUMPI POP PUSH0 DUP2 PUSH14 0xFFFFFFFFFFFFFFFFFFFFFFFFFFFF AND EQ ISZERO JUMPDEST ISZERO PUSH2 0x62F JUMPI PUSH1 0x1 PUSH0 SWAP1 SLOAD SWAP1 PUSH2 0x100 EXP SWAP1 DIV PUSH20 0xFFFFFFFFFFFFFFFFFFFFFFFFFFFFFFFFFFFFFFFF AND PUSH20 0xFFFFFFFFFFFFFFFFFFFFFFFFFFFFFFFFFFFFFFFF AND DUP5 PUSH20 0xFFFFFFFFFFFFFFFFFFFFFFFFFFFFFFFFFFFFFFFF AND SUB PUSH2 0x5A1 JUMPI DUP2 PUSH14 0xFFFFFFFFFFFFFFFFFFFFFFFFFFFF AND DUP10 DUP9 DUP2 MLOAD DUP2 LT PUSH2 0x542 JUMPI PUSH2 0x541 PUSH2 0xA43 JUMP JUMPDEST JUMPDEST PUSH1 0x20 MUL PUSH1 0x20 ADD ADD DUP2 DUP2 MSTORE POP POP DUP3 DUP9 DUP9 DUP2 MLOAD DUP2 LT PUSH2 0x562 JUMPI PUSH2 0x561 PUSH2 0xA43 JUMP JUMPDEST JUMPDEST PUSH1 0x20 MUL PUSH1 0x20 ADD ADD SWAP1 PUSH20 0xFFFFFFFFFFFFFFFFFFFFFFFFFFFFFFFFFFFFFFFF AND SWAP1 DUP2 PUSH20 0xFFFFFFFFFFFFFFFFFFFFFFFFFFFFFFFFFFFFFFFF AND DUP2 MSTORE POP POP PUSH2 0x620 JUMP JUMPDEST DUP1 PUSH14 0xFFFFFFFFFFFFFFFFFFFFFFFFFFFF AND DUP10 DUP9 DUP2 MLOAD DUP2 LT PUSH2 0x5C5 JUMPI PUSH2 0x5C4 PUSH2 0xA43 JUMP JUMPDEST JUMPDEST PUSH1 0x20 MUL PUSH1 0x20 ADD ADD DUP2 DUP2 MSTORE POP POP DUP4 DUP9 DUP9 DUP2 MLOAD DUP2 LT PUSH2 0x5E5 JUMPI PUSH2 0x5E4 PUSH2 0xA43 JUMP JUMPDEST JUMPDEST PUSH1 0x20 MUL PUSH1 0x20 ADD ADD SWAP1 PUSH20 0xFFFFFFFFFFFFFFFFFFFFFFFFFFFFFFFFFFFFFFFF AND SWAP1 DUP2 PUSH20 0xFFFFFFFFFFFFFFFFFFFFFFFFFFFFFFFFFFFFFFFF AND DUP2 MSTORE POP POP JUMPDEST DUP7 DUP1 PUSH2 0x62B SWAP1 PUSH2 0xA9D JUMP JUMPDEST SWAP8 POP POP JUMPDEST POP POP JUMPDEST POP POP POP DUP1 DUP1 PUSH1 0x1 ADD SWAP2 POP POP PUSH2 0x1F2 JUMP JUMPDEST POP POP POP POP POP SWAP1 SWAP2 JUMP JUMPDEST PUSH1 0x1 PUSH0 SWAP1 SLOAD SWAP1 PUSH2 0x100 EXP SWAP1 DIV PUSH20 0xFFFFFFFFFFFFFFFFFFFFFFFFFFFFFFFFFFFFFFFF AND DUP2 JUMP JUMPDEST PUSH0 PUSH20 0xFFFFFFFFFFFFFFFFFFFFFFFFFFFFFFFFFFFFFFFF DUP3 AND SWAP1 POP SWAP2 SWAP1 POP JUMP JUMPDEST PUSH0 PUSH2 0x699 DUP3 PUSH2 0x670 JUMP JUMPDEST SWAP1 POP SWAP2 SWAP1 POP JUMP JUMPDEST PUSH2 0x6A9 DUP2 PUSH2 0x68F JUMP JUMPDEST DUP3 MSTORE POP POP JUMP JUMPDEST PUSH0 PUSH1 0x20 DUP3 ADD SWAP1 POP PUSH2 0x6C2 PUSH0 DUP4 ADD DUP5 PUSH2 0x6A0 JUMP JUMPDEST SWAP3 SWAP2 POP POP JUMP JUMPDEST PUSH0 DUP2 MLOAD SWAP1 POP SWAP2 SWAP1 POP JUMP JUMPDEST PUSH0 DUP3 DUP3 MSTORE PUSH1 0x20 DUP3 ADD SWAP1 POP SWAP3 SWAP2 POP POP JUMP JUMPDEST PUSH0 DUP2 SWAP1 POP PUSH1 0x20 DUP3 ADD SWAP1 POP SWAP2 SWAP1 POP JUMP JUMPDEST PUSH0 DUP2 SWAP1 POP SWAP2 SWAP1 POP JUMP JUMPDEST PUSH2 0x703 DUP2 PUSH2 0x6F1 JUMP JUMPDEST DUP3 MSTORE POP POP JUMP JUMPDEST PUSH0 PUSH2 0x714 DUP4 DUP4 PUSH2 0x6FA JUMP JUMPDEST PUSH1 0x20 DUP4 ADD SWAP1 POP SWAP3 SWAP2 POP POP JUMP JUMPDEST PUSH0 PUSH1 0x20 DUP3 ADD SWAP1 POP SWAP2 SWAP1 POP JUMP JUMPDEST PUSH0 PUSH2 0x736 DUP3 PUSH2 0x6C8 JUMP JUMPDEST PUSH2 0x740 DUP2 DUP6 PUSH2 0x6D2 JUMP JUMPDEST SWAP4 POP PUSH2 0x74B DUP4 PUSH2 0x6E2 JUMP JUMPDEST DUP1 PUSH0 JUMPDEST DUP4 DUP2 LT ISZERO PUSH2 0x77B JUMPI DUP2 MLOAD PUSH2 0x762 DUP9 DUP3 PUSH2 0x709 JUMP JUMPDEST SWAP8 POP PUSH2 0x76D DUP4 PUSH2 0x720 JUMP JUMPDEST SWAP3 POP POP PUSH1 0x1 DUP2 ADD SWAP1 POP PUSH2 0x74E JUMP JUMPDEST POP DUP6 SWAP4 POP POP POP POP SWAP3 SWAP2 POP POP JUMP JUMPDEST PUSH0 DUP2 MLOAD SWAP1 POP SWAP2 SWAP1 POP JUMP JUMPDEST PUSH0 DUP3 DUP3 MSTORE PUSH1 0x20 DUP3 ADD SWAP1 POP SWAP3 SWAP2 POP POP JUMP JUMPDEST PUSH0 DUP2 SWAP1 POP PUSH1 0x20 DUP3 ADD SWAP1 POP SWAP2 SWAP1 POP JUMP JUMPDEST PUSH2 0x7BA DUP2 PUSH2 0x68F JUMP JUMPDEST DUP3 MSTORE POP POP JUMP JUMPDEST PUSH0 PUSH2 0x7CB DUP4 DUP4 PUSH2 0x7B1 JUMP JUMPDEST PUSH1 0x20 DUP4 ADD SWAP1 POP SWAP3 SWAP2 POP POP JUMP JUMPDEST PUSH0 PUSH1 0x20 DUP3 ADD SWAP1 POP SWAP2 SWAP1 POP JUMP JUMPDEST PUSH0 PUSH2 0x7ED DUP3 PUSH2 0x788 JUMP JUMPDEST PUSH2 0x7F7 DUP2 DUP6 PUSH2 0x792 JUMP JUMPDEST SWAP4 POP PUSH2 0x802 DUP4 PUSH2 0x7A2 JUMP JUMPDEST DUP1 PUSH0 JUMPDEST DUP4 DUP2 LT ISZERO PUSH2 0x832 JUMPI DUP2 MLOAD PUSH2 0x819 DUP9 DUP3 PUSH2 0x7C0 JUMP JUMPDEST SWAP8 POP PUSH2 0x824 DUP4 PUSH2 0x7D7 JUMP JUMPDEST SWAP3 POP POP PUSH1 0x1 DUP2 ADD SWAP1 POP PUSH2 0x805 JUMP JUMPDEST POP DUP6 SWAP4 POP POP POP POP SWAP3 SWAP2 POP POP JUMP JUMPDEST PUSH0 PUSH1 0x40 DUP3 ADD SWAP1 POP DUP2 DUP2 SUB PUSH0 DUP4 ADD MSTORE PUSH2 0x857 DUP2 DUP6 PUSH2 0x72C JUMP JUMPDEST SWAP1 POP DUP2 DUP2 SUB PUSH1 0x20 DUP4 ADD MSTORE PUSH2 0x86B DUP2 DUP5 PUSH2 0x7E3 JUMP JUMPDEST SWAP1 POP SWAP4 SWAP3 POP POP POP JUMP JUMPDEST PUSH0 DUP1 REVERT JUMPDEST PUSH2 0x881 DUP2 PUSH2 0x6F1 JUMP JUMPDEST DUP2 EQ PUSH2 0x88B JUMPI PUSH0 DUP1 REVERT JUMPDEST POP JUMP JUMPDEST PUSH0 DUP2 MLOAD SWAP1 POP PUSH2 0x89C DUP2 PUSH2 0x878 JUMP JUMPDEST SWAP3 SWAP2 POP POP JUMP JUMPDEST PUSH0 PUSH1 0x20 DUP3 DUP5 SUB SLT ISZERO PUSH2 0x8B7 JUMPI PUSH2 0x8B6 PUSH2 0x874 JUMP JUMPDEST JUMPDEST PUSH0 PUSH2 0x8C4 DUP5 DUP3 DUP6 ADD PUSH2 0x88E JUMP JUMPDEST SWAP2 POP POP SWAP3 SWAP2 POP POP JUMP JUMPDEST PUSH32 0x4E487B7100000000000000000000000000000000000000000000000000000000 PUSH0 MSTORE PUSH1 0x41 PUSH1 0x4 MSTORE PUSH1 0x24 PUSH0 REVERT JUMPDEST PUSH2 0x903 DUP2 PUSH2 0x6F1 JUMP JUMPDEST DUP3 MSTORE POP POP JUMP JUMPDEST PUSH0 PUSH1 0x20 DUP3 ADD SWAP1 POP PUSH2 0x91C PUSH0 DUP4 ADD DUP5 PUSH2 0x8FA JUMP JUMPDEST SWAP3 SWAP2 POP POP JUMP JUMPDEST PUSH2 0x92B DUP2 PUSH2 0x68F JUMP JUMPDEST DUP2 EQ PUSH2 0x935 JUMPI PUSH0 DUP1 REVERT JUMPDEST POP JUMP JUMPDEST PUSH0 DUP2 MLOAD SWAP1 POP PUSH2 0x946 DUP2 PUSH2 0x922 JUMP JUMPDEST SWAP3 SWAP2 POP POP JUMP JUMPDEST PUSH0 PUSH1 0x20 DUP3 DUP5 SUB SLT ISZERO PUSH2 0x961 JUMPI PUSH2 0x960 PUSH2 0x874 JUMP JUMPDEST JUMPDEST PUSH0 PUSH2 0x96E DUP5 DUP3 DUP6 ADD PUSH2 0x938 JUMP JUMPDEST SWAP2 POP POP SWAP3 SWAP2 POP POP JUMP JUMPDEST PUSH0 PUSH14 0xFFFFFFFFFFFFFFFFFFFFFFFFFFFF DUP3 AND SWAP1 POP SWAP2 SWAP1 POP JUMP JUMPDEST PUSH2 0x999 DUP2 PUSH2 0x977 JUMP JUMPDEST DUP2 EQ PUSH2 0x9A3 JUMPI PUSH0 DUP1 REVERT JUMPDEST POP JUMP JUMPDEST PUSH0 DUP2 MLOAD SWAP1 POP PUSH2 0x9B4 DUP2 PUSH2 0x990 JUMP JUMPDEST SWAP3 SWAP2 POP POP JUMP JUMPDEST PUSH0 PUSH4 0xFFFFFFFF DUP3 AND SWAP1 POP SWAP2 SWAP1 POP JUMP JUMPDEST PUSH2 0x9D2 DUP2 PUSH2 0x9BA JUMP JUMPDEST DUP2 EQ PUSH2 0x9DC JUMPI PUSH0 DUP1 REVERT JUMPDEST POP JUMP JUMPDEST PUSH0 DUP2 MLOAD SWAP1 POP PUSH2 0x9ED DUP2 PUSH2 0x9C9 JUMP JUMPDEST SWAP3 SWAP2 POP POP JUMP JUMPDEST PUSH0 DUP1 PUSH0 PUSH1 0x60 DUP5 DUP7 SUB SLT ISZERO PUSH2 0xA0A JUMPI PUSH2 0xA09 PUSH2 0x874 JUMP JUMPDEST JUMPDEST PUSH0 PUSH2 0xA17 DUP7 DUP3 DUP8 ADD PUSH2 0x9A6 JUMP JUMPDEST SWAP4 POP POP PUSH1 0x20 PUSH2 0xA28 DUP7 DUP3 DUP8 ADD PUSH2 0x9A6 JUMP JUMPDEST SWAP3 POP POP PUSH1 0x40 PUSH2 0xA39 DUP7 DUP3 DUP8 ADD PUSH2 0x9DF JUMP JUMPDEST SWAP2 POP POP SWAP3 POP SWAP3 POP SWAP3 JUMP JUMPDEST PUSH32 0x4E487B7100000000000000000000000000000000000000000000000000000000 PUSH0 MSTORE PUSH1 0x32 PUSH1 0x4 MSTORE PUSH1 0x24 PUSH0 REVERT JUMPDEST PUSH32 0x4E487B7100000000000000000000000000000000000000000000000000000000 PUSH0 MSTORE PUSH1 0x11 PUSH1 0x4 MSTORE PUSH1 0x24 PUSH0 REVERT JUMPDEST PUSH0 PUSH2 0xAA7 DUP3 PUSH2 0x6F1 JUMP JUMPDEST SWAP2 POP PUSH32 0xFFFFFFFFFFFFFFFFFFFFFFFFFFFFFFFFFFFFFFFFFFFFFFFFFFFFFFFFFFFFFFFF DUP3 SUB PUSH2 0xAD9 JUMPI PUSH2 0xAD8 PUSH2 0xA70 JUMP JUMPDEST JUMPDEST PUSH1 0x1 DUP3 ADD SWAP1 POP SWAP2 SWAP1 POP JUMP INVALID LOG2 PUSH5 0x6970667358 0x22 SLT KECCAK256 PUSH23 0x7820AA5068E4432084CBD869900AB3CBD00944E329D9D1 SWAP13 0xE4 0xAA 0xAC 0x24 PUSH32 0x59C164736F6C634300081A003300000000000000000000000000000000000000 "
				},
				"gasEstimates": {
					"creation": {
						"codeDepositCost": "568400",
						"executionCost": "49130",
						"totalCost": "617530"
					},
					"external": {
						"fatoryAddress()": "2483",
						"searchWETPairs()": "infinite",
						"wethAddress()": "2530"
					}
				},
				"methodIdentifiers": {
					"fatoryAddress()": "23bf1812",
					"searchWETPairs()": "4055cdfb",
					"wethAddress()": "4f0e0ef3"
				}
			},
			"storageLayout": {
				"storage": [
					{
						"astId": 239,
						"contract": "contracts/falshloan/UniswapV2Flashloan.sol:Test",
						"label": "fatoryAddress",
						"offset": 0,
						"slot": "0",
						"type": "t_address"
					},
					{
						"astId": 242,
						"contract": "contracts/falshloan/UniswapV2Flashloan.sol:Test",
						"label": "wethAddress",
						"offset": 0,
						"slot": "1",
						"type": "t_address"
					}
				],
				"types": {
					"t_address": {
						"encoding": "inplace",
						"label": "address",
						"numberOfBytes": "20"
					}
				}
			},
			"userdoc": {
				"kind": "user",
				"methods": {},
				"version": 1
			}
		}
	}
}