{
	"contracts/utils/MerkleProof.sol": {
		"TestProof": {
			"abi": [
				{
					"anonymous": false,
					"inputs": [
						{
							"indexed": false,
							"internalType": "bytes32",
							"name": "errRoot",
							"type": "bytes32"
						}
					],
					"name": "ProofFail",
					"type": "event"
				},
				{
					"inputs": [
						{
							"internalType": "uint256",
							"name": "",
							"type": "uint256"
						}
					],
					"name": "proof",
					"outputs": [
						{
							"internalType": "bytes32",
							"name": "",
							"type": "bytes32"
						}
					],
					"stateMutability": "view",
					"type": "function"
				},
				{
					"inputs": [],
					"name": "root",
					"outputs": [
						{
							"internalType": "bytes32",
							"name": "",
							"type": "bytes32"
						}
					],
					"stateMutability": "view",
					"type": "function"
				},
				{
					"inputs": [],
					"name": "verifyLeaf",
					"outputs": [
						{
							"internalType": "bool",
							"name": "",
							"type": "bool"
						}
					],
					"stateMutability": "nonpayable",
					"type": "function"
				}
			],
			"devdoc": {
				"kind": "dev",
				"methods": {},
				"version": 1
			},
			"evm": {
				"assembly": "    /* \"contracts/utils/MerkleProof.sol\":863:1869  contract TestProof {... */\n  mstore(0x40, 0x80)\n  callvalue\n  dup1\n  iszero\n  tag_1\n  jumpi\n  revert(0x00, 0x00)\ntag_1:\n  pop\n  dataSize(sub_0)\n  dup1\n  dataOffset(sub_0)\n  0x00\n  codecopy\n  0x00\n  return\nstop\n\nsub_0: assembly {\n        /* \"contracts/utils/MerkleProof.sol\":863:1869  contract TestProof {... */\n      mstore(0x40, 0x80)\n      callvalue\n      dup1\n      iszero\n      tag_1\n      jumpi\n      revert(0x00, 0x00)\n    tag_1:\n      pop\n      jumpi(tag_2, lt(calldatasize, 0x04))\n      shr(0xe0, calldataload(0x00))\n      dup1\n      0x0b1de360\n      eq\n      tag_3\n      jumpi\n      dup1\n      0x16e3b09c\n      eq\n      tag_4\n      jumpi\n      dup1\n      0xebf0c717\n      eq\n      tag_5\n      jumpi\n    tag_2:\n      revert(0x00, 0x00)\n        /* \"contracts/utils/MerkleProof.sol\":1058:1867  function verifyLeaf() external returns (bool) {... */\n    tag_3:\n      tag_6\n      tag_7\n      jump\t// in\n    tag_6:\n      mload(0x40)\n      tag_8\n      swap2\n      swap1\n      tag_9\n      jump\t// in\n    tag_8:\n      mload(0x40)\n      dup1\n      swap2\n      sub\n      swap1\n      return\n        /* \"contracts/utils/MerkleProof.sol\":1029:1051  bytes32[] public proof */\n    tag_4:\n      tag_10\n      0x04\n      dup1\n      calldatasize\n      sub\n      dup2\n      add\n      swap1\n      tag_11\n      swap2\n      swap1\n      tag_12\n      jump\t// in\n    tag_11:\n      tag_13\n      jump\t// in\n    tag_10:\n      mload(0x40)\n      tag_14\n      swap2\n      swap1\n      tag_15\n      jump\t// in\n    tag_14:\n      mload(0x40)\n      dup1\n      swap2\n      sub\n      swap1\n      return\n        /* \"contracts/utils/MerkleProof.sol\":926:1023  bytes32 public constant root = 0x6d649da728564a114b7a35d7ab9712bb35c0973d88d918f0b77e98f554098228 */\n    tag_5:\n      tag_16\n      tag_17\n      jump\t// in\n    tag_16:\n      mload(0x40)\n      tag_18\n      swap2\n      swap1\n      tag_15\n      jump\t// in\n    tag_18:\n      mload(0x40)\n      dup1\n      swap2\n      sub\n      swap1\n      return\n        /* \"contracts/utils/MerkleProof.sol\":1058:1867  function verifyLeaf() external returns (bool) {... */\n    tag_7:\n        /* \"contracts/utils/MerkleProof.sol\":1098:1102  bool */\n      0x00\n        /* \"contracts/utils/MerkleProof.sol\":1114:1119  proof */\n      0x00\n        /* \"contracts/utils/MerkleProof.sol\":1125:1191  0xe511f2bcabebcb974e530ac6ddc211a9fa14bea01bef14199ed902f88b9d0518 */\n      0xe511f2bcabebcb974e530ac6ddc211a9fa14bea01bef14199ed902f88b9d0518\n        /* \"contracts/utils/MerkleProof.sol\":1114:1192  proof.push(0xe511f2bcabebcb974e530ac6ddc211a9fa14bea01bef14199ed902f88b9d0518) */\n      swap1\n      dup1\n      0x01\n      dup2\n      sload\n      add\n      dup1\n      dup3\n      sstore\n      dup1\n      swap2\n      pop\n      pop\n      0x01\n      swap1\n      sub\n      swap1\n      0x00\n      mstore\n      keccak256(0x00, 0x20)\n      add\n      0x00\n      swap1\n      swap2\n      0x00\n      shl\n      swap1\n      swap2\n      swap1\n      swap2\n      pop\n      sstore\n        /* \"contracts/utils/MerkleProof.sol\":1202:1207  proof */\n      0x00\n        /* \"contracts/utils/MerkleProof.sol\":1213:1279  0x5527280678aaa80d7c2296c355c7c600a333fd98ee7dd3df3610d2bca0603672 */\n      0x5527280678aaa80d7c2296c355c7c600a333fd98ee7dd3df3610d2bca0603672\n        /* \"contracts/utils/MerkleProof.sol\":1202:1280  proof.push(0x5527280678aaa80d7c2296c355c7c600a333fd98ee7dd3df3610d2bca0603672) */\n      swap1\n      dup1\n      0x01\n      dup2\n      sload\n      add\n      dup1\n      dup3\n      sstore\n      dup1\n      swap2\n      pop\n      pop\n      0x01\n      swap1\n      sub\n      swap1\n      0x00\n      mstore\n      keccak256(0x00, 0x20)\n      add\n      0x00\n      swap1\n      swap2\n      0x00\n      shl\n      swap1\n      swap2\n      swap1\n      swap2\n      pop\n      sstore\n        /* \"contracts/utils/MerkleProof.sol\":1290:1295  proof */\n      0x00\n        /* \"contracts/utils/MerkleProof.sol\":1301:1367  0x6dc277eda17b262674e6184a52d6ebf2eac80050c5ee4b876b2bc851ba9622fe */\n      0x6dc277eda17b262674e6184a52d6ebf2eac80050c5ee4b876b2bc851ba9622fe\n        /* \"contracts/utils/MerkleProof.sol\":1290:1368  proof.push(0x6dc277eda17b262674e6184a52d6ebf2eac80050c5ee4b876b2bc851ba9622fe) */\n      swap1\n      dup1\n      0x01\n      dup2\n      sload\n      add\n      dup1\n      dup3\n      sstore\n      dup1\n      swap2\n      pop\n      pop\n      0x01\n      swap1\n      sub\n      swap1\n      0x00\n      mstore\n      keccak256(0x00, 0x20)\n      add\n      0x00\n      swap1\n      swap2\n      0x00\n      shl\n      swap1\n      swap2\n      swap1\n      swap2\n      pop\n      sstore\n        /* \"contracts/utils/MerkleProof.sol\":1378:1383  proof */\n      0x00\n        /* \"contracts/utils/MerkleProof.sol\":1389:1455  0x946f07a4b999bc9b4acbd2e6fd8770c041478dc715dcf8fadb969c42a1df661b */\n      0x946f07a4b999bc9b4acbd2e6fd8770c041478dc715dcf8fadb969c42a1df661b\n        /* \"contracts/utils/MerkleProof.sol\":1378:1456  proof.push(0x946f07a4b999bc9b4acbd2e6fd8770c041478dc715dcf8fadb969c42a1df661b) */\n      swap1\n      dup1\n      0x01\n      dup2\n      sload\n      add\n      dup1\n      dup3\n      sstore\n      dup1\n      swap2\n      pop\n      pop\n      0x01\n      swap1\n      sub\n      swap1\n      0x00\n      mstore\n      keccak256(0x00, 0x20)\n      add\n      0x00\n      swap1\n      swap2\n      0x00\n      shl\n      swap1\n      swap2\n      swap1\n      swap2\n      pop\n      sstore\n        /* \"contracts/utils/MerkleProof.sol\":1466:1471  proof */\n      0x00\n        /* \"contracts/utils/MerkleProof.sol\":1477:1543  0x672ea51beb9a9e4187ed9968a047a5a3160db3c26bfcd9801bf9fa835b12e5f3 */\n      0x672ea51beb9a9e4187ed9968a047a5a3160db3c26bfcd9801bf9fa835b12e5f3\n        /* \"contracts/utils/MerkleProof.sol\":1466:1544  proof.push(0x672ea51beb9a9e4187ed9968a047a5a3160db3c26bfcd9801bf9fa835b12e5f3) */\n      swap1\n      dup1\n      0x01\n      dup2\n      sload\n      add\n      dup1\n      dup3\n      sstore\n      dup1\n      swap2\n      pop\n      pop\n      0x01\n      swap1\n      sub\n      swap1\n      0x00\n      mstore\n      keccak256(0x00, 0x20)\n      add\n      0x00\n      swap1\n      swap2\n      0x00\n      shl\n      swap1\n      swap2\n      swap1\n      swap2\n      pop\n      sstore\n        /* \"contracts/utils/MerkleProof.sol\":1555:1567  bytes32 leaf */\n      0x00\n        /* \"contracts/utils/MerkleProof.sol\":1570:1636  0x7b2e1e5d78c71d8d385435a44af6973d31aed552438f3fab5a17ea1140c4aae0 */\n      0x7b2e1e5d78c71d8d385435a44af6973d31aed552438f3fab5a17ea1140c4aae0\n        /* \"contracts/utils/MerkleProof.sol\":1555:1636  bytes32 leaf = 0x7b2e1e5d78c71d8d385435a44af6973d31aed552438f3fab5a17ea1140c4aae0 */\n      0x00\n      shl\n      swap1\n      pop\n        /* \"contracts/utils/MerkleProof.sol\":1646:1657  bool result */\n      0x00\n        /* \"contracts/utils/MerkleProof.sol\":1661:1698  MerkleProof.verify(proof, root, leaf) */\n      tag_25\n        /* \"contracts/utils/MerkleProof.sol\":1680:1685  proof */\n      0x00\n        /* \"contracts/utils/MerkleProof.sol\":1661:1698  MerkleProof.verify(proof, root, leaf) */\n      dup1\n      sload\n      dup1\n      0x20\n      mul\n      0x20\n      add\n      mload(0x40)\n      swap1\n      dup2\n      add\n      0x40\n      mstore\n      dup1\n      swap3\n      swap2\n      swap1\n      dup2\n      dup2\n      mstore\n      0x20\n      add\n      dup3\n      dup1\n      sload\n      dup1\n      iszero\n      tag_26\n      jumpi\n      0x20\n      mul\n      dup3\n      add\n      swap2\n      swap1\n      0x00\n      mstore\n      keccak256(0x00, 0x20)\n      swap1\n    tag_27:\n      dup2\n      sload\n      dup2\n      mstore\n      0x20\n      add\n      swap1\n      0x01\n      add\n      swap1\n      dup1\n      dup4\n      gt\n      tag_27\n      jumpi\n    tag_26:\n      pop\n      pop\n      pop\n      pop\n      pop\n        /* \"contracts/utils/MerkleProof.sol\":957:1023  0x6d649da728564a114b7a35d7ab9712bb35c0973d88d918f0b77e98f554098228 */\n      0x6d649da728564a114b7a35d7ab9712bb35c0973d88d918f0b77e98f554098228\n        /* \"contracts/utils/MerkleProof.sol\":1687:1691  root */\n      0x00\n      shl\n        /* \"contracts/utils/MerkleProof.sol\":1693:1697  leaf */\n      dup5\n        /* \"contracts/utils/MerkleProof.sol\":1661:1679  MerkleProof.verify */\n      tag_28\n        /* \"contracts/utils/MerkleProof.sol\":1661:1698  MerkleProof.verify(proof, root, leaf) */\n      jump\t// in\n    tag_25:\n        /* \"contracts/utils/MerkleProof.sol\":1646:1698  bool result =  MerkleProof.verify(proof, root, leaf) */\n      swap1\n      pop\n        /* \"contracts/utils/MerkleProof.sol\":1712:1718  result */\n      dup1\n        /* \"contracts/utils/MerkleProof.sol\":1708:1837  if(!result) {... */\n      tag_29\n      jumpi\n        /* \"contracts/utils/MerkleProof.sol\":1734:1749  bytes32 errRoot */\n      0x00\n        /* \"contracts/utils/MerkleProof.sol\":1752:1789  MerkleProof.processProof(proof, leaf) */\n      tag_30\n        /* \"contracts/utils/MerkleProof.sol\":1777:1782  proof */\n      0x00\n        /* \"contracts/utils/MerkleProof.sol\":1752:1789  MerkleProof.processProof(proof, leaf) */\n      dup1\n      sload\n      dup1\n      0x20\n      mul\n      0x20\n      add\n      mload(0x40)\n      swap1\n      dup2\n      add\n      0x40\n      mstore\n      dup1\n      swap3\n      swap2\n      swap1\n      dup2\n      dup2\n      mstore\n      0x20\n      add\n      dup3\n      dup1\n      sload\n      dup1\n      iszero\n      tag_31\n      jumpi\n      0x20\n      mul\n      dup3\n      add\n      swap2\n      swap1\n      0x00\n      mstore\n      keccak256(0x00, 0x20)\n      swap1\n    tag_32:\n      dup2\n      sload\n      dup2\n      mstore\n      0x20\n      add\n      swap1\n      0x01\n      add\n      swap1\n      dup1\n      dup4\n      gt\n      tag_32\n      jumpi\n    tag_31:\n      pop\n      pop\n      pop\n      pop\n      pop\n        /* \"contracts/utils/MerkleProof.sol\":1784:1788  leaf */\n      dup5\n        /* \"contracts/utils/MerkleProof.sol\":1752:1776  MerkleProof.processProof */\n      tag_33\n        /* \"contracts/utils/MerkleProof.sol\":1752:1789  MerkleProof.processProof(proof, leaf) */\n      jump\t// in\n    tag_30:\n        /* \"contracts/utils/MerkleProof.sol\":1734:1789  bytes32 errRoot = MerkleProof.processProof(proof, leaf) */\n      swap1\n      pop\n        /* \"contracts/utils/MerkleProof.sol\":1808:1826  ProofFail(errRoot) */\n      0xf4603dfd843561eb4bb57ecca7077074485962241fbde660f8fa0a10d9caab7e\n        /* \"contracts/utils/MerkleProof.sol\":1818:1825  errRoot */\n      dup2\n        /* \"contracts/utils/MerkleProof.sol\":1808:1826  ProofFail(errRoot) */\n      mload(0x40)\n      tag_34\n      swap2\n      swap1\n      tag_15\n      jump\t// in\n    tag_34:\n      mload(0x40)\n      dup1\n      swap2\n      sub\n      swap1\n      log1\n        /* \"contracts/utils/MerkleProof.sol\":1720:1837  {... */\n      pop\n        /* \"contracts/utils/MerkleProof.sol\":1708:1837  if(!result) {... */\n    tag_29:\n        /* \"contracts/utils/MerkleProof.sol\":1854:1860  result */\n      dup1\n        /* \"contracts/utils/MerkleProof.sol\":1847:1860  return result */\n      swap3\n      pop\n      pop\n      pop\n        /* \"contracts/utils/MerkleProof.sol\":1058:1867  function verifyLeaf() external returns (bool) {... */\n      swap1\n      jump\t// out\n        /* \"contracts/utils/MerkleProof.sol\":1029:1051  bytes32[] public proof */\n    tag_13:\n      0x00\n      dup2\n      dup2\n      sload\n      dup2\n      lt\n      tag_35\n      jumpi\n      0x00\n      dup1\n      revert\n    tag_35:\n      swap1\n      0x00\n      mstore\n      keccak256(0x00, 0x20)\n      add\n      0x00\n      swap2\n      pop\n      swap1\n      pop\n      sload\n      dup2\n      jump\t// out\n        /* \"contracts/utils/MerkleProof.sol\":926:1023  bytes32 public constant root = 0x6d649da728564a114b7a35d7ab9712bb35c0973d88d918f0b77e98f554098228 */\n    tag_17:\n        /* \"contracts/utils/MerkleProof.sol\":957:1023  0x6d649da728564a114b7a35d7ab9712bb35c0973d88d918f0b77e98f554098228 */\n      0x6d649da728564a114b7a35d7ab9712bb35c0973d88d918f0b77e98f554098228\n        /* \"contracts/utils/MerkleProof.sol\":926:1023  bytes32 public constant root = 0x6d649da728564a114b7a35d7ab9712bb35c0973d88d918f0b77e98f554098228 */\n      0x00\n      shl\n      dup2\n      jump\t// out\n        /* \"contracts/utils/MerkleProof.sol\":142:328  function verify (... */\n    tag_28:\n        /* \"contracts/utils/MerkleProof.sol\":265:269  bool */\n      0x00\n        /* \"contracts/utils/MerkleProof.sol\":317:321  root */\n      dup3\n        /* \"contracts/utils/MerkleProof.sol\":288:313  processProof(proof, leaf) */\n      tag_38\n        /* \"contracts/utils/MerkleProof.sol\":301:306  proof */\n      dup6\n        /* \"contracts/utils/MerkleProof.sol\":308:312  leaf */\n      dup5\n        /* \"contracts/utils/MerkleProof.sol\":288:300  processProof */\n      tag_33\n        /* \"contracts/utils/MerkleProof.sol\":288:313  processProof(proof, leaf) */\n      jump\t// in\n    tag_38:\n        /* \"contracts/utils/MerkleProof.sol\":288:321  processProof(proof, leaf) == root */\n      eq\n        /* \"contracts/utils/MerkleProof.sol\":281:321  return processProof(proof, leaf) == root */\n      swap1\n      pop\n        /* \"contracts/utils/MerkleProof.sol\":142:328  function verify (... */\n      swap4\n      swap3\n      pop\n      pop\n      pop\n      jump\t// out\n        /* \"contracts/utils/MerkleProof.sol\":364:648  function processProof(bytes32[] memory proof, bytes32 leaf) internal pure returns (bytes32) {... */\n    tag_33:\n        /* \"contracts/utils/MerkleProof.sol\":447:454  bytes32 */\n      0x00\n        /* \"contracts/utils/MerkleProof.sol\":466:485  bytes32 computeHash */\n      0x00\n        /* \"contracts/utils/MerkleProof.sol\":488:492  leaf */\n      dup3\n        /* \"contracts/utils/MerkleProof.sol\":466:492  bytes32 computeHash = leaf */\n      swap1\n      pop\n        /* \"contracts/utils/MerkleProof.sol\":506:515  uint256 i */\n      0x00\n        /* \"contracts/utils/MerkleProof.sol\":516:517  0 */\n      0x00\n        /* \"contracts/utils/MerkleProof.sol\":506:517  uint256 i=0 */\n      swap1\n      pop\n        /* \"contracts/utils/MerkleProof.sol\":502:614  for(uint256 i=0; i<proof.length; i++) {... */\n    tag_40:\n        /* \"contracts/utils/MerkleProof.sol\":521:526  proof */\n      dup5\n        /* \"contracts/utils/MerkleProof.sol\":521:533  proof.length */\n      mload\n        /* \"contracts/utils/MerkleProof.sol\":519:520  i */\n      dup2\n        /* \"contracts/utils/MerkleProof.sol\":519:533  i<proof.length */\n      lt\n        /* \"contracts/utils/MerkleProof.sol\":502:614  for(uint256 i=0; i<proof.length; i++) {... */\n      iszero\n      tag_41\n      jumpi\n        /* \"contracts/utils/MerkleProof.sol\":568:603  _computePair(computeHash, proof[i]) */\n      tag_43\n        /* \"contracts/utils/MerkleProof.sol\":581:592  computeHash */\n      dup3\n        /* \"contracts/utils/MerkleProof.sol\":594:599  proof */\n      dup7\n        /* \"contracts/utils/MerkleProof.sol\":600:601  i */\n      dup4\n        /* \"contracts/utils/MerkleProof.sol\":594:602  proof[i] */\n      dup2\n      mload\n      dup2\n      lt\n      tag_44\n      jumpi\n      tag_45\n      tag_46\n      jump\t// in\n    tag_45:\n    tag_44:\n      0x20\n      mul\n      0x20\n      add\n      add\n      mload\n        /* \"contracts/utils/MerkleProof.sol\":568:580  _computePair */\n      tag_47\n        /* \"contracts/utils/MerkleProof.sol\":568:603  _computePair(computeHash, proof[i]) */\n      jump\t// in\n    tag_43:\n        /* \"contracts/utils/MerkleProof.sol\":554:603  computeHash = _computePair(computeHash, proof[i]) */\n      swap2\n      pop\n        /* \"contracts/utils/MerkleProof.sol\":535:538  i++ */\n      dup1\n      dup1\n      0x01\n      add\n      swap2\n      pop\n      pop\n        /* \"contracts/utils/MerkleProof.sol\":502:614  for(uint256 i=0; i<proof.length; i++) {... */\n      jump(tag_40)\n    tag_41:\n      pop\n        /* \"contracts/utils/MerkleProof.sol\":630:641  computeHash */\n      dup1\n        /* \"contracts/utils/MerkleProof.sol\":623:641  return computeHash */\n      swap2\n      pop\n      pop\n        /* \"contracts/utils/MerkleProof.sol\":364:648  function processProof(bytes32[] memory proof, bytes32 leaf) internal pure returns (bytes32) {... */\n      swap3\n      swap2\n      pop\n      pop\n      jump\t// out\n        /* \"contracts/utils/MerkleProof.sol\":688:859  function _computePair(bytes32 a, bytes32 b) private  pure returns (bytes32) {... */\n    tag_47:\n        /* \"contracts/utils/MerkleProof.sol\":755:762  bytes32 */\n      0x00\n        /* \"contracts/utils/MerkleProof.sol\":785:786  b */\n      dup2\n        /* \"contracts/utils/MerkleProof.sol\":781:782  a */\n      dup4\n        /* \"contracts/utils/MerkleProof.sol\":781:786  a < b */\n      lt\n        /* \"contracts/utils/MerkleProof.sol\":781:852  a < b ? keccak256(abi.encodePacked(a, b)) : keccak256(abi.encode(b, a)) */\n      tag_49\n      jumpi\n        /* \"contracts/utils/MerkleProof.sol\":846:847  b */\n      dup2\n        /* \"contracts/utils/MerkleProof.sol\":849:850  a */\n      dup4\n        /* \"contracts/utils/MerkleProof.sol\":835:851  abi.encode(b, a) */\n      add(0x20, mload(0x40))\n      tag_50\n      swap3\n      swap2\n      swap1\n      tag_51\n      jump\t// in\n    tag_50:\n      mload(0x40)\n      0x20\n      dup2\n      dup4\n      sub\n      sub\n      dup2\n      mstore\n      swap1\n      0x40\n      mstore\n        /* \"contracts/utils/MerkleProof.sol\":825:852  keccak256(abi.encode(b, a)) */\n      dup1\n      mload\n      swap1\n      0x20\n      add\n      keccak256\n        /* \"contracts/utils/MerkleProof.sol\":781:852  a < b ? keccak256(abi.encodePacked(a, b)) : keccak256(abi.encode(b, a)) */\n      jump(tag_52)\n    tag_49:\n        /* \"contracts/utils/MerkleProof.sol\":816:817  a */\n      dup3\n        /* \"contracts/utils/MerkleProof.sol\":819:820  b */\n      dup3\n        /* \"contracts/utils/MerkleProof.sol\":799:821  abi.encodePacked(a, b) */\n      add(0x20, mload(0x40))\n      tag_53\n      swap3\n      swap2\n      swap1\n      tag_54\n      jump\t// in\n    tag_53:\n      mload(0x40)\n      0x20\n      dup2\n      dup4\n      sub\n      sub\n      dup2\n      mstore\n      swap1\n      0x40\n      mstore\n        /* \"contracts/utils/MerkleProof.sol\":789:822  keccak256(abi.encodePacked(a, b)) */\n      dup1\n      mload\n      swap1\n      0x20\n      add\n      keccak256\n        /* \"contracts/utils/MerkleProof.sol\":781:852  a < b ? keccak256(abi.encodePacked(a, b)) : keccak256(abi.encode(b, a)) */\n    tag_52:\n        /* \"contracts/utils/MerkleProof.sol\":774:852  return a < b ? keccak256(abi.encodePacked(a, b)) : keccak256(abi.encode(b, a)) */\n      swap1\n      pop\n        /* \"contracts/utils/MerkleProof.sol\":688:859  function _computePair(bytes32 a, bytes32 b) private  pure returns (bytes32) {... */\n      swap3\n      swap2\n      pop\n      pop\n      jump\t// out\n        /* \"#utility.yul\":7:97   */\n    tag_55:\n        /* \"#utility.yul\":41:48   */\n      0x00\n        /* \"#utility.yul\":84:89   */\n      dup2\n        /* \"#utility.yul\":77:90   */\n      iszero\n        /* \"#utility.yul\":70:91   */\n      iszero\n        /* \"#utility.yul\":59:91   */\n      swap1\n      pop\n        /* \"#utility.yul\":7:97   */\n      swap2\n      swap1\n      pop\n      jump\t// out\n        /* \"#utility.yul\":103:212   */\n    tag_56:\n        /* \"#utility.yul\":184:205   */\n      tag_70\n        /* \"#utility.yul\":199:204   */\n      dup2\n        /* \"#utility.yul\":184:205   */\n      tag_55\n      jump\t// in\n    tag_70:\n        /* \"#utility.yul\":179:182   */\n      dup3\n        /* \"#utility.yul\":172:206   */\n      mstore\n        /* \"#utility.yul\":103:212   */\n      pop\n      pop\n      jump\t// out\n        /* \"#utility.yul\":218:428   */\n    tag_9:\n        /* \"#utility.yul\":305:309   */\n      0x00\n        /* \"#utility.yul\":343:345   */\n      0x20\n        /* \"#utility.yul\":332:341   */\n      dup3\n        /* \"#utility.yul\":328:346   */\n      add\n        /* \"#utility.yul\":320:346   */\n      swap1\n      pop\n        /* \"#utility.yul\":356:421   */\n      tag_72\n        /* \"#utility.yul\":418:419   */\n      0x00\n        /* \"#utility.yul\":407:416   */\n      dup4\n        /* \"#utility.yul\":403:420   */\n      add\n        /* \"#utility.yul\":394:400   */\n      dup5\n        /* \"#utility.yul\":356:421   */\n      tag_56\n      jump\t// in\n    tag_72:\n        /* \"#utility.yul\":218:428   */\n      swap3\n      swap2\n      pop\n      pop\n      jump\t// out\n        /* \"#utility.yul\":515:632   */\n    tag_58:\n        /* \"#utility.yul\":624:625   */\n      0x00\n        /* \"#utility.yul\":621:622   */\n      0x00\n        /* \"#utility.yul\":614:626   */\n      revert\n        /* \"#utility.yul\":761:838   */\n    tag_60:\n        /* \"#utility.yul\":798:805   */\n      0x00\n        /* \"#utility.yul\":827:832   */\n      dup2\n        /* \"#utility.yul\":816:832   */\n      swap1\n      pop\n        /* \"#utility.yul\":761:838   */\n      swap2\n      swap1\n      pop\n      jump\t// out\n        /* \"#utility.yul\":844:966   */\n    tag_61:\n        /* \"#utility.yul\":917:941   */\n      tag_78\n        /* \"#utility.yul\":935:940   */\n      dup2\n        /* \"#utility.yul\":917:941   */\n      tag_60\n      jump\t// in\n    tag_78:\n        /* \"#utility.yul\":910:915   */\n      dup2\n        /* \"#utility.yul\":907:942   */\n      eq\n        /* \"#utility.yul\":897:960   */\n      tag_79\n      jumpi\n        /* \"#utility.yul\":956:957   */\n      0x00\n        /* \"#utility.yul\":953:954   */\n      0x00\n        /* \"#utility.yul\":946:958   */\n      revert\n        /* \"#utility.yul\":897:960   */\n    tag_79:\n        /* \"#utility.yul\":844:966   */\n      pop\n      jump\t// out\n        /* \"#utility.yul\":972:1111   */\n    tag_62:\n        /* \"#utility.yul\":1018:1023   */\n      0x00\n        /* \"#utility.yul\":1056:1062   */\n      dup2\n        /* \"#utility.yul\":1043:1063   */\n      calldataload\n        /* \"#utility.yul\":1034:1063   */\n      swap1\n      pop\n        /* \"#utility.yul\":1072:1105   */\n      tag_81\n        /* \"#utility.yul\":1099:1104   */\n      dup2\n        /* \"#utility.yul\":1072:1105   */\n      tag_61\n      jump\t// in\n    tag_81:\n        /* \"#utility.yul\":972:1111   */\n      swap3\n      swap2\n      pop\n      pop\n      jump\t// out\n        /* \"#utility.yul\":1117:1446   */\n    tag_12:\n        /* \"#utility.yul\":1176:1182   */\n      0x00\n        /* \"#utility.yul\":1225:1227   */\n      0x20\n        /* \"#utility.yul\":1213:1222   */\n      dup3\n        /* \"#utility.yul\":1204:1211   */\n      dup5\n        /* \"#utility.yul\":1200:1223   */\n      sub\n        /* \"#utility.yul\":1196:1228   */\n      slt\n        /* \"#utility.yul\":1193:1312   */\n      iszero\n      tag_83\n      jumpi\n        /* \"#utility.yul\":1231:1310   */\n      tag_84\n      tag_58\n      jump\t// in\n    tag_84:\n        /* \"#utility.yul\":1193:1312   */\n    tag_83:\n        /* \"#utility.yul\":1351:1352   */\n      0x00\n        /* \"#utility.yul\":1376:1429   */\n      tag_85\n        /* \"#utility.yul\":1421:1428   */\n      dup5\n        /* \"#utility.yul\":1412:1418   */\n      dup3\n        /* \"#utility.yul\":1401:1410   */\n      dup6\n        /* \"#utility.yul\":1397:1419   */\n      add\n        /* \"#utility.yul\":1376:1429   */\n      tag_62\n      jump\t// in\n    tag_85:\n        /* \"#utility.yul\":1366:1429   */\n      swap2\n      pop\n        /* \"#utility.yul\":1322:1439   */\n      pop\n        /* \"#utility.yul\":1117:1446   */\n      swap3\n      swap2\n      pop\n      pop\n      jump\t// out\n        /* \"#utility.yul\":1452:1529   */\n    tag_63:\n        /* \"#utility.yul\":1489:1496   */\n      0x00\n        /* \"#utility.yul\":1518:1523   */\n      dup2\n        /* \"#utility.yul\":1507:1523   */\n      swap1\n      pop\n        /* \"#utility.yul\":1452:1529   */\n      swap2\n      swap1\n      pop\n      jump\t// out\n        /* \"#utility.yul\":1535:1653   */\n    tag_64:\n        /* \"#utility.yul\":1622:1646   */\n      tag_88\n        /* \"#utility.yul\":1640:1645   */\n      dup2\n        /* \"#utility.yul\":1622:1646   */\n      tag_63\n      jump\t// in\n    tag_88:\n        /* \"#utility.yul\":1617:1620   */\n      dup3\n        /* \"#utility.yul\":1610:1647   */\n      mstore\n        /* \"#utility.yul\":1535:1653   */\n      pop\n      pop\n      jump\t// out\n        /* \"#utility.yul\":1659:1881   */\n    tag_15:\n        /* \"#utility.yul\":1752:1756   */\n      0x00\n        /* \"#utility.yul\":1790:1792   */\n      0x20\n        /* \"#utility.yul\":1779:1788   */\n      dup3\n        /* \"#utility.yul\":1775:1793   */\n      add\n        /* \"#utility.yul\":1767:1793   */\n      swap1\n      pop\n        /* \"#utility.yul\":1803:1874   */\n      tag_90\n        /* \"#utility.yul\":1871:1872   */\n      0x00\n        /* \"#utility.yul\":1860:1869   */\n      dup4\n        /* \"#utility.yul\":1856:1873   */\n      add\n        /* \"#utility.yul\":1847:1853   */\n      dup5\n        /* \"#utility.yul\":1803:1874   */\n      tag_64\n      jump\t// in\n    tag_90:\n        /* \"#utility.yul\":1659:1881   */\n      swap3\n      swap2\n      pop\n      pop\n      jump\t// out\n        /* \"#utility.yul\":1887:2067   */\n    tag_46:\n        /* \"#utility.yul\":1935:2012   */\n      0x4e487b7100000000000000000000000000000000000000000000000000000000\n        /* \"#utility.yul\":1932:1933   */\n      0x00\n        /* \"#utility.yul\":1925:2013   */\n      mstore\n        /* \"#utility.yul\":2032:2036   */\n      0x32\n        /* \"#utility.yul\":2029:2030   */\n      0x04\n        /* \"#utility.yul\":2022:2037   */\n      mstore\n        /* \"#utility.yul\":2056:2060   */\n      0x24\n        /* \"#utility.yul\":2053:2054   */\n      0x00\n        /* \"#utility.yul\":2046:2061   */\n      revert\n        /* \"#utility.yul\":2073:2405   */\n    tag_51:\n        /* \"#utility.yul\":2194:2198   */\n      0x00\n        /* \"#utility.yul\":2232:2234   */\n      0x40\n        /* \"#utility.yul\":2221:2230   */\n      dup3\n        /* \"#utility.yul\":2217:2235   */\n      add\n        /* \"#utility.yul\":2209:2235   */\n      swap1\n      pop\n        /* \"#utility.yul\":2245:2316   */\n      tag_93\n        /* \"#utility.yul\":2313:2314   */\n      0x00\n        /* \"#utility.yul\":2302:2311   */\n      dup4\n        /* \"#utility.yul\":2298:2315   */\n      add\n        /* \"#utility.yul\":2289:2295   */\n      dup6\n        /* \"#utility.yul\":2245:2316   */\n      tag_64\n      jump\t// in\n    tag_93:\n        /* \"#utility.yul\":2326:2398   */\n      tag_94\n        /* \"#utility.yul\":2394:2396   */\n      0x20\n        /* \"#utility.yul\":2383:2392   */\n      dup4\n        /* \"#utility.yul\":2379:2397   */\n      add\n        /* \"#utility.yul\":2370:2376   */\n      dup5\n        /* \"#utility.yul\":2326:2398   */\n      tag_64\n      jump\t// in\n    tag_94:\n        /* \"#utility.yul\":2073:2405   */\n      swap4\n      swap3\n      pop\n      pop\n      pop\n      jump\t// out\n        /* \"#utility.yul\":2411:2490   */\n    tag_65:\n        /* \"#utility.yul\":2450:2457   */\n      0x00\n        /* \"#utility.yul\":2479:2484   */\n      dup2\n        /* \"#utility.yul\":2468:2484   */\n      swap1\n      pop\n        /* \"#utility.yul\":2411:2490   */\n      swap2\n      swap1\n      pop\n      jump\t// out\n        /* \"#utility.yul\":2496:2653   */\n    tag_66:\n        /* \"#utility.yul\":2601:2646   */\n      tag_97\n        /* \"#utility.yul\":2621:2645   */\n      tag_98\n        /* \"#utility.yul\":2639:2644   */\n      dup3\n        /* \"#utility.yul\":2621:2645   */\n      tag_63\n      jump\t// in\n    tag_98:\n        /* \"#utility.yul\":2601:2646   */\n      tag_65\n      jump\t// in\n    tag_97:\n        /* \"#utility.yul\":2596:2599   */\n      dup3\n        /* \"#utility.yul\":2589:2647   */\n      mstore\n        /* \"#utility.yul\":2496:2653   */\n      pop\n      pop\n      jump\t// out\n        /* \"#utility.yul\":2659:3056   */\n    tag_54:\n        /* \"#utility.yul\":2799:2802   */\n      0x00\n        /* \"#utility.yul\":2814:2889   */\n      tag_100\n        /* \"#utility.yul\":2885:2888   */\n      dup3\n        /* \"#utility.yul\":2876:2882   */\n      dup6\n        /* \"#utility.yul\":2814:2889   */\n      tag_66\n      jump\t// in\n    tag_100:\n        /* \"#utility.yul\":2914:2916   */\n      0x20\n        /* \"#utility.yul\":2909:2912   */\n      dup3\n        /* \"#utility.yul\":2905:2917   */\n      add\n        /* \"#utility.yul\":2898:2917   */\n      swap2\n      pop\n        /* \"#utility.yul\":2927:3002   */\n      tag_101\n        /* \"#utility.yul\":2998:3001   */\n      dup3\n        /* \"#utility.yul\":2989:2995   */\n      dup5\n        /* \"#utility.yul\":2927:3002   */\n      tag_66\n      jump\t// in\n    tag_101:\n        /* \"#utility.yul\":3027:3029   */\n      0x20\n        /* \"#utility.yul\":3022:3025   */\n      dup3\n        /* \"#utility.yul\":3018:3030   */\n      add\n        /* \"#utility.yul\":3011:3030   */\n      swap2\n      pop\n        /* \"#utility.yul\":3047:3050   */\n      dup2\n        /* \"#utility.yul\":3040:3050   */\n      swap1\n      pop\n        /* \"#utility.yul\":2659:3056   */\n      swap4\n      swap3\n      pop\n      pop\n      pop\n      jump\t// out\n\n    auxdata: 0xa264697066735822122090e7f7dbe75865c0e7932528a6a6e8f8f960de46d3ba99df54acc0b04c02a60664736f6c634300081e0033\n}\n",
				"bytecode": {
					"linkReferences": {},
					"object": "6080604052348015600e575f5ffd5b506106058061001c5f395ff3fe608060405234801561000f575f5ffd5b506004361061003f575f3560e01c80630b1de3601461004357806316e3b09c14610061578063ebf0c71714610091575b5f5ffd5b61004b6100af565b6040516100589190610484565b60405180910390f35b61007b600480360381019061007691906104d4565b610356565b6040516100889190610517565b60405180910390f35b610099610375565b6040516100a69190610517565b60405180910390f35b5f5f7fe511f2bcabebcb974e530ac6ddc211a9fa14bea01bef14199ed902f88b9d0518908060018154018082558091505060019003905f5260205f20015f90915f1b9091909150555f7f5527280678aaa80d7c2296c355c7c600a333fd98ee7dd3df3610d2bca0603672908060018154018082558091505060019003905f5260205f20015f90915f1b9091909150555f7f6dc277eda17b262674e6184a52d6ebf2eac80050c5ee4b876b2bc851ba9622fe908060018154018082558091505060019003905f5260205f20015f90915f1b9091909150555f7f946f07a4b999bc9b4acbd2e6fd8770c041478dc715dcf8fadb969c42a1df661b908060018154018082558091505060019003905f5260205f20015f90915f1b9091909150555f7f672ea51beb9a9e4187ed9968a047a5a3160db3c26bfcd9801bf9fa835b12e5f3908060018154018082558091505060019003905f5260205f20015f90915f1b9091909150555f7f7b2e1e5d78c71d8d385435a44af6973d31aed552438f3fab5a17ea1140c4aae05f1b90505f6102b45f80548060200260200160405190810160405280929190818152602001828054801561028657602002820191905f5260205f20905b815481526020019060010190808311610272575b50505050507f6d649da728564a114b7a35d7ab9712bb35c0973d88d918f0b77e98f5540982285f1b8461039b565b90508061034e575f6103135f80548060200260200160405190810160405280929190818152602001828054801561030857602002820191905f5260205f20905b8154815260200190600101908083116102f4575b5050505050846103b1565b90507ff4603dfd843561eb4bb57ecca7077074485962241fbde660f8fa0a10d9caab7e816040516103449190610517565b60405180910390a1505b809250505090565b5f8181548110610364575f80fd5b905f5260205f20015f915090505481565b7f6d649da728564a114b7a35d7ab9712bb35c0973d88d918f0b77e98f5540982285f1b81565b5f826103a785846103b1565b1490509392505050565b5f5f8290505f5f90505b84518110156103f7576103e8828683815181106103db576103da610530565b5b6020026020010151610402565b915080806001019150506103bb565b508091505092915050565b5f81831061043857818360405160200161041d92919061055d565b60405160208183030381529060405280519060200120610462565b828260405160200161044b9291906105a4565b604051602081830303815290604052805190602001205b905092915050565b5f8115159050919050565b61047e8161046a565b82525050565b5f6020820190506104975f830184610475565b92915050565b5f5ffd5b5f819050919050565b6104b3816104a1565b81146104bd575f5ffd5b50565b5f813590506104ce816104aa565b92915050565b5f602082840312156104e9576104e861049d565b5b5f6104f6848285016104c0565b91505092915050565b5f819050919050565b610511816104ff565b82525050565b5f60208201905061052a5f830184610508565b92915050565b7f4e487b71000000000000000000000000000000000000000000000000000000005f52603260045260245ffd5b5f6040820190506105705f830185610508565b61057d6020830184610508565b9392505050565b5f819050919050565b61059e610599826104ff565b610584565b82525050565b5f6105af828561058d565b6020820191506105bf828461058d565b602082019150819050939250505056fea264697066735822122090e7f7dbe75865c0e7932528a6a6e8f8f960de46d3ba99df54acc0b04c02a60664736f6c634300081e0033",
					"opcodes": "PUSH1 0x80 PUSH1 0x40 MSTORE CALLVALUE DUP1 ISZERO PUSH1 0xE JUMPI PUSH0 PUSH0 REVERT JUMPDEST POP PUSH2 0x605 DUP1 PUSH2 0x1C PUSH0 CODECOPY PUSH0 RETURN INVALID PUSH1 0x80 PUSH1 0x40 MSTORE CALLVALUE DUP1 ISZERO PUSH2 0xF JUMPI PUSH0 PUSH0 REVERT JUMPDEST POP PUSH1 0x4 CALLDATASIZE LT PUSH2 0x3F JUMPI PUSH0 CALLDATALOAD PUSH1 0xE0 SHR DUP1 PUSH4 0xB1DE360 EQ PUSH2 0x43 JUMPI DUP1 PUSH4 0x16E3B09C EQ PUSH2 0x61 JUMPI DUP1 PUSH4 0xEBF0C717 EQ PUSH2 0x91 JUMPI JUMPDEST PUSH0 PUSH0 REVERT JUMPDEST PUSH2 0x4B PUSH2 0xAF JUMP JUMPDEST PUSH1 0x40 MLOAD PUSH2 0x58 SWAP2 SWAP1 PUSH2 0x484 JUMP JUMPDEST PUSH1 0x40 MLOAD DUP1 SWAP2 SUB SWAP1 RETURN JUMPDEST PUSH2 0x7B PUSH1 0x4 DUP1 CALLDATASIZE SUB DUP2 ADD SWAP1 PUSH2 0x76 SWAP2 SWAP1 PUSH2 0x4D4 JUMP JUMPDEST PUSH2 0x356 JUMP JUMPDEST PUSH1 0x40 MLOAD PUSH2 0x88 SWAP2 SWAP1 PUSH2 0x517 JUMP JUMPDEST PUSH1 0x40 MLOAD DUP1 SWAP2 SUB SWAP1 RETURN JUMPDEST PUSH2 0x99 PUSH2 0x375 JUMP JUMPDEST PUSH1 0x40 MLOAD PUSH2 0xA6 SWAP2 SWAP1 PUSH2 0x517 JUMP JUMPDEST PUSH1 0x40 MLOAD DUP1 SWAP2 SUB SWAP1 RETURN JUMPDEST PUSH0 PUSH0 PUSH32 0xE511F2BCABEBCB974E530AC6DDC211A9FA14BEA01BEF14199ED902F88B9D0518 SWAP1 DUP1 PUSH1 0x1 DUP2 SLOAD ADD DUP1 DUP3 SSTORE DUP1 SWAP2 POP POP PUSH1 0x1 SWAP1 SUB SWAP1 PUSH0 MSTORE PUSH1 0x20 PUSH0 KECCAK256 ADD PUSH0 SWAP1 SWAP2 PUSH0 SHL SWAP1 SWAP2 SWAP1 SWAP2 POP SSTORE PUSH0 PUSH32 0x5527280678AAA80D7C2296C355C7C600A333FD98EE7DD3DF3610D2BCA0603672 SWAP1 DUP1 PUSH1 0x1 DUP2 SLOAD ADD DUP1 DUP3 SSTORE DUP1 SWAP2 POP POP PUSH1 0x1 SWAP1 SUB SWAP1 PUSH0 MSTORE PUSH1 0x20 PUSH0 KECCAK256 ADD PUSH0 SWAP1 SWAP2 PUSH0 SHL SWAP1 SWAP2 SWAP1 SWAP2 POP SSTORE PUSH0 PUSH32 0x6DC277EDA17B262674E6184A52D6EBF2EAC80050C5EE4B876B2BC851BA9622FE SWAP1 DUP1 PUSH1 0x1 DUP2 SLOAD ADD DUP1 DUP3 SSTORE DUP1 SWAP2 POP POP PUSH1 0x1 SWAP1 SUB SWAP1 PUSH0 MSTORE PUSH1 0x20 PUSH0 KECCAK256 ADD PUSH0 SWAP1 SWAP2 PUSH0 SHL SWAP1 SWAP2 SWAP1 SWAP2 POP SSTORE PUSH0 PUSH32 0x946F07A4B999BC9B4ACBD2E6FD8770C041478DC715DCF8FADB969C42A1DF661B SWAP1 DUP1 PUSH1 0x1 DUP2 SLOAD ADD DUP1 DUP3 SSTORE DUP1 SWAP2 POP POP PUSH1 0x1 SWAP1 SUB SWAP1 PUSH0 MSTORE PUSH1 0x20 PUSH0 KECCAK256 ADD PUSH0 SWAP1 SWAP2 PUSH0 SHL SWAP1 SWAP2 SWAP1 SWAP2 POP SSTORE PUSH0 PUSH32 0x672EA51BEB9A9E4187ED9968A047A5A3160DB3C26BFCD9801BF9FA835B12E5F3 SWAP1 DUP1 PUSH1 0x1 DUP2 SLOAD ADD DUP1 DUP3 SSTORE DUP1 SWAP2 POP POP PUSH1 0x1 SWAP1 SUB SWAP1 PUSH0 MSTORE PUSH1 0x20 PUSH0 KECCAK256 ADD PUSH0 SWAP1 SWAP2 PUSH0 SHL SWAP1 SWAP2 SWAP1 SWAP2 POP SSTORE PUSH0 PUSH32 0x7B2E1E5D78C71D8D385435A44AF6973D31AED552438F3FAB5A17EA1140C4AAE0 PUSH0 SHL SWAP1 POP PUSH0 PUSH2 0x2B4 PUSH0 DUP1 SLOAD DUP1 PUSH1 0x20 MUL PUSH1 0x20 ADD PUSH1 0x40 MLOAD SWAP1 DUP2 ADD PUSH1 0x40 MSTORE DUP1 SWAP3 SWAP2 SWAP1 DUP2 DUP2 MSTORE PUSH1 0x20 ADD DUP3 DUP1 SLOAD DUP1 ISZERO PUSH2 0x286 JUMPI PUSH1 0x20 MUL DUP3 ADD SWAP2 SWAP1 PUSH0 MSTORE PUSH1 0x20 PUSH0 KECCAK256 SWAP1 JUMPDEST DUP2 SLOAD DUP2 MSTORE PUSH1 0x20 ADD SWAP1 PUSH1 0x1 ADD SWAP1 DUP1 DUP4 GT PUSH2 0x272 JUMPI JUMPDEST POP POP POP POP POP PUSH32 0x6D649DA728564A114B7A35D7AB9712BB35C0973D88D918F0B77E98F554098228 PUSH0 SHL DUP5 PUSH2 0x39B JUMP JUMPDEST SWAP1 POP DUP1 PUSH2 0x34E JUMPI PUSH0 PUSH2 0x313 PUSH0 DUP1 SLOAD DUP1 PUSH1 0x20 MUL PUSH1 0x20 ADD PUSH1 0x40 MLOAD SWAP1 DUP2 ADD PUSH1 0x40 MSTORE DUP1 SWAP3 SWAP2 SWAP1 DUP2 DUP2 MSTORE PUSH1 0x20 ADD DUP3 DUP1 SLOAD DUP1 ISZERO PUSH2 0x308 JUMPI PUSH1 0x20 MUL DUP3 ADD SWAP2 SWAP1 PUSH0 MSTORE PUSH1 0x20 PUSH0 KECCAK256 SWAP1 JUMPDEST DUP2 SLOAD DUP2 MSTORE PUSH1 0x20 ADD SWAP1 PUSH1 0x1 ADD SWAP1 DUP1 DUP4 GT PUSH2 0x2F4 JUMPI JUMPDEST POP POP POP POP POP DUP5 PUSH2 0x3B1 JUMP JUMPDEST SWAP1 POP PUSH32 0xF4603DFD843561EB4BB57ECCA7077074485962241FBDE660F8FA0A10D9CAAB7E DUP2 PUSH1 0x40 MLOAD PUSH2 0x344 SWAP2 SWAP1 PUSH2 0x517 JUMP JUMPDEST PUSH1 0x40 MLOAD DUP1 SWAP2 SUB SWAP1 LOG1 POP JUMPDEST DUP1 SWAP3 POP POP POP SWAP1 JUMP JUMPDEST PUSH0 DUP2 DUP2 SLOAD DUP2 LT PUSH2 0x364 JUMPI PUSH0 DUP1 REVERT JUMPDEST SWAP1 PUSH0 MSTORE PUSH1 0x20 PUSH0 KECCAK256 ADD PUSH0 SWAP2 POP SWAP1 POP SLOAD DUP2 JUMP JUMPDEST PUSH32 0x6D649DA728564A114B7A35D7AB9712BB35C0973D88D918F0B77E98F554098228 PUSH0 SHL DUP2 JUMP JUMPDEST PUSH0 DUP3 PUSH2 0x3A7 DUP6 DUP5 PUSH2 0x3B1 JUMP JUMPDEST EQ SWAP1 POP SWAP4 SWAP3 POP POP POP JUMP JUMPDEST PUSH0 PUSH0 DUP3 SWAP1 POP PUSH0 PUSH0 SWAP1 POP JUMPDEST DUP5 MLOAD DUP2 LT ISZERO PUSH2 0x3F7 JUMPI PUSH2 0x3E8 DUP3 DUP7 DUP4 DUP2 MLOAD DUP2 LT PUSH2 0x3DB JUMPI PUSH2 0x3DA PUSH2 0x530 JUMP JUMPDEST JUMPDEST PUSH1 0x20 MUL PUSH1 0x20 ADD ADD MLOAD PUSH2 0x402 JUMP JUMPDEST SWAP2 POP DUP1 DUP1 PUSH1 0x1 ADD SWAP2 POP POP PUSH2 0x3BB JUMP JUMPDEST POP DUP1 SWAP2 POP POP SWAP3 SWAP2 POP POP JUMP JUMPDEST PUSH0 DUP2 DUP4 LT PUSH2 0x438 JUMPI DUP2 DUP4 PUSH1 0x40 MLOAD PUSH1 0x20 ADD PUSH2 0x41D SWAP3 SWAP2 SWAP1 PUSH2 0x55D JUMP JUMPDEST PUSH1 0x40 MLOAD PUSH1 0x20 DUP2 DUP4 SUB SUB DUP2 MSTORE SWAP1 PUSH1 0x40 MSTORE DUP1 MLOAD SWAP1 PUSH1 0x20 ADD KECCAK256 PUSH2 0x462 JUMP JUMPDEST DUP3 DUP3 PUSH1 0x40 MLOAD PUSH1 0x20 ADD PUSH2 0x44B SWAP3 SWAP2 SWAP1 PUSH2 0x5A4 JUMP JUMPDEST PUSH1 0x40 MLOAD PUSH1 0x20 DUP2 DUP4 SUB SUB DUP2 MSTORE SWAP1 PUSH1 0x40 MSTORE DUP1 MLOAD SWAP1 PUSH1 0x20 ADD KECCAK256 JUMPDEST SWAP1 POP SWAP3 SWAP2 POP POP JUMP JUMPDEST PUSH0 DUP2 ISZERO ISZERO SWAP1 POP SWAP2 SWAP1 POP JUMP JUMPDEST PUSH2 0x47E DUP2 PUSH2 0x46A JUMP JUMPDEST DUP3 MSTORE POP POP JUMP JUMPDEST PUSH0 PUSH1 0x20 DUP3 ADD SWAP1 POP PUSH2 0x497 PUSH0 DUP4 ADD DUP5 PUSH2 0x475 JUMP JUMPDEST SWAP3 SWAP2 POP POP JUMP JUMPDEST PUSH0 PUSH0 REVERT JUMPDEST PUSH0 DUP2 SWAP1 POP SWAP2 SWAP1 POP JUMP JUMPDEST PUSH2 0x4B3 DUP2 PUSH2 0x4A1 JUMP JUMPDEST DUP2 EQ PUSH2 0x4BD JUMPI PUSH0 PUSH0 REVERT JUMPDEST POP JUMP JUMPDEST PUSH0 DUP2 CALLDATALOAD SWAP1 POP PUSH2 0x4CE DUP2 PUSH2 0x4AA JUMP JUMPDEST SWAP3 SWAP2 POP POP JUMP JUMPDEST PUSH0 PUSH1 0x20 DUP3 DUP5 SUB SLT ISZERO PUSH2 0x4E9 JUMPI PUSH2 0x4E8 PUSH2 0x49D JUMP JUMPDEST JUMPDEST PUSH0 PUSH2 0x4F6 DUP5 DUP3 DUP6 ADD PUSH2 0x4C0 JUMP JUMPDEST SWAP2 POP POP SWAP3 SWAP2 POP POP JUMP JUMPDEST PUSH0 DUP2 SWAP1 POP SWAP2 SWAP1 POP JUMP JUMPDEST PUSH2 0x511 DUP2 PUSH2 0x4FF JUMP JUMPDEST DUP3 MSTORE POP POP JUMP JUMPDEST PUSH0 PUSH1 0x20 DUP3 ADD SWAP1 POP PUSH2 0x52A PUSH0 DUP4 ADD DUP5 PUSH2 0x508 JUMP JUMPDEST SWAP3 SWAP2 POP POP JUMP JUMPDEST PUSH32 0x4E487B7100000000000000000000000000000000000000000000000000000000 PUSH0 MSTORE PUSH1 0x32 PUSH1 0x4 MSTORE PUSH1 0x24 PUSH0 REVERT JUMPDEST PUSH0 PUSH1 0x40 DUP3 ADD SWAP1 POP PUSH2 0x570 PUSH0 DUP4 ADD DUP6 PUSH2 0x508 JUMP JUMPDEST PUSH2 0x57D PUSH1 0x20 DUP4 ADD DUP5 PUSH2 0x508 JUMP JUMPDEST SWAP4 SWAP3 POP POP POP JUMP JUMPDEST PUSH0 DUP2 SWAP1 POP SWAP2 SWAP1 POP JUMP JUMPDEST PUSH2 0x59E PUSH2 0x599 DUP3 PUSH2 0x4FF JUMP JUMPDEST PUSH2 0x584 JUMP JUMPDEST DUP3 MSTORE POP POP JUMP JUMPDEST PUSH0 PUSH2 0x5AF DUP3 DUP6 PUSH2 0x58D JUMP JUMPDEST PUSH1 0x20 DUP3 ADD SWAP2 POP PUSH2 0x5BF DUP3 DUP5 PUSH2 0x58D JUMP JUMPDEST PUSH1 0x20 DUP3 ADD SWAP2 POP DUP2 SWAP1 POP SWAP4 SWAP3 POP POP POP JUMP INVALID LOG2 PUSH5 0x6970667358 0x22 SLT KECCAK256 SWAP1 SWAPN 0xF7 0xDB SWAPN 0x58 PUSH6 0xC0E7932528A6 0xA6 0xE8 EXTCALL EXTDELEGATECALL PUSH1 0xDE CHAINID 0xD3 0xBA SWAP10 0xDF SLOAD 0xAC 0xC0 0xB0 0x4C MUL 0xA6 MOD PUSH5 0x736F6C6343 STOP ADDMOD 0x1E STOP CALLER "
				},
				"gasEstimates": {
					"creation": {
						"codeDepositCost": "308200",
						"executionCost": "347",
						"totalCost": "308547"
					},
					"external": {
						"proof(uint256)": "4870",
						"root()": "352",
						"verifyLeaf()": "infinite"
					}
				},
				"methodIdentifiers": {
					"proof(uint256)": "16e3b09c",
					"root()": "ebf0c717",
					"verifyLeaf()": "0b1de360"
				}
			},
			"storageLayout": {
				"storage": [
					{
						"astId": 100,
						"contract": "contracts/utils/MerkleProof.sol:TestProof",
						"label": "proof",
						"offset": 0,
						"slot": "0",
						"type": "t_array(t_bytes32)dyn_storage"
					}
				],
				"types": {
					"t_array(t_bytes32)dyn_storage": {
						"base": "t_bytes32",
						"encoding": "dynamic_array",
						"label": "bytes32[]",
						"numberOfBytes": "32"
					},
					"t_bytes32": {
						"encoding": "inplace",
						"label": "bytes32",
						"numberOfBytes": "32"
					}
				}
			},
			"userdoc": {
				"kind": "user",
				"methods": {},
				"version": 1
			}
		}
	}
}