{
	"contracts/token/ERC20/CustomeERC20.sol": {
		"MyERC20": {
			"abi": [
				{
					"inputs": [
						{
							"internalType": "string",
							"name": "name_",
							"type": "string"
						},
						{
							"internalType": "string",
							"name": "symbol_",
							"type": "string"
						}
					],
					"stateMutability": "nonpayable",
					"type": "constructor"
				},
				{
					"inputs": [],
					"name": "AddressEmpty",
					"type": "error"
				},
				{
					"inputs": [
						{
							"internalType": "address",
							"name": "spender",
							"type": "address"
						},
						{
							"internalType": "uint256",
							"name": "allowance",
							"type": "uint256"
						},
						{
							"internalType": "uint256",
							"name": "needed",
							"type": "uint256"
						}
					],
					"name": "ERC20InsufficientAllowance",
					"type": "error"
				},
				{
					"inputs": [
						{
							"internalType": "address",
							"name": "sender",
							"type": "address"
						},
						{
							"internalType": "uint256",
							"name": "balance",
							"type": "uint256"
						},
						{
							"internalType": "uint256",
							"name": "needed",
							"type": "uint256"
						}
					],
					"name": "ERC20InsufficientBalance",
					"type": "error"
				},
				{
					"inputs": [
						{
							"internalType": "address",
							"name": "approver",
							"type": "address"
						}
					],
					"name": "ERC20InvalidApprover",
					"type": "error"
				},
				{
					"inputs": [
						{
							"internalType": "address",
							"name": "receiver",
							"type": "address"
						}
					],
					"name": "ERC20InvalidReceiver",
					"type": "error"
				},
				{
					"inputs": [
						{
							"internalType": "address",
							"name": "sender",
							"type": "address"
						}
					],
					"name": "ERC20InvalidSender",
					"type": "error"
				},
				{
					"inputs": [
						{
							"internalType": "address",
							"name": "spender",
							"type": "address"
						}
					],
					"name": "ERC20InvalidSpender",
					"type": "error"
				},
				{
					"inputs": [
						{
							"internalType": "string",
							"name": "info",
							"type": "string"
						}
					],
					"name": "OnlyAdmin",
					"type": "error"
				},
				{
					"inputs": [
						{
							"internalType": "string",
							"name": "info",
							"type": "string"
						}
					],
					"name": "OnlyLegalOwner",
					"type": "error"
				},
				{
					"inputs": [],
					"name": "TimeLimitZero",
					"type": "error"
				},
				{
					"anonymous": false,
					"inputs": [
						{
							"indexed": true,
							"internalType": "address",
							"name": "owner",
							"type": "address"
						},
						{
							"indexed": true,
							"internalType": "address",
							"name": "spender",
							"type": "address"
						},
						{
							"indexed": false,
							"internalType": "uint256",
							"name": "value",
							"type": "uint256"
						}
					],
					"name": "Approval",
					"type": "event"
				},
				{
					"anonymous": false,
					"inputs": [
						{
							"indexed": true,
							"internalType": "address",
							"name": "from",
							"type": "address"
						},
						{
							"indexed": true,
							"internalType": "address",
							"name": "to",
							"type": "address"
						},
						{
							"indexed": false,
							"internalType": "uint256",
							"name": "value",
							"type": "uint256"
						}
					],
					"name": "Transfer",
					"type": "event"
				},
				{
					"inputs": [],
					"name": "GRANTPRIVILEGES_NAMESPACE",
					"outputs": [
						{
							"internalType": "string",
							"name": "",
							"type": "string"
						}
					],
					"stateMutability": "view",
					"type": "function"
				},
				{
					"inputs": [
						{
							"internalType": "address",
							"name": "newOwner",
							"type": "address"
						},
						{
							"internalType": "uint256",
							"name": "_timeLimit",
							"type": "uint256"
						}
					],
					"name": "addOwner",
					"outputs": [],
					"stateMutability": "nonpayable",
					"type": "function"
				},
				{
					"inputs": [
						{
							"internalType": "address",
							"name": "owner",
							"type": "address"
						},
						{
							"internalType": "address",
							"name": "spender",
							"type": "address"
						}
					],
					"name": "allowance",
					"outputs": [
						{
							"internalType": "uint256",
							"name": "",
							"type": "uint256"
						}
					],
					"stateMutability": "view",
					"type": "function"
				},
				{
					"inputs": [
						{
							"internalType": "address",
							"name": "spender",
							"type": "address"
						},
						{
							"internalType": "uint256",
							"name": "value",
							"type": "uint256"
						}
					],
					"name": "approve",
					"outputs": [
						{
							"internalType": "bool",
							"name": "",
							"type": "bool"
						}
					],
					"stateMutability": "nonpayable",
					"type": "function"
				},
				{
					"inputs": [
						{
							"internalType": "address",
							"name": "account",
							"type": "address"
						}
					],
					"name": "balanceOf",
					"outputs": [
						{
							"internalType": "uint256",
							"name": "",
							"type": "uint256"
						}
					],
					"stateMutability": "view",
					"type": "function"
				},
				{
					"inputs": [
						{
							"internalType": "address",
							"name": "newAdmin",
							"type": "address"
						}
					],
					"name": "changeAdmin",
					"outputs": [],
					"stateMutability": "nonpayable",
					"type": "function"
				},
				{
					"inputs": [],
					"name": "decimals",
					"outputs": [
						{
							"internalType": "uint8",
							"name": "",
							"type": "uint8"
						}
					],
					"stateMutability": "view",
					"type": "function"
				},
				{
					"inputs": [],
					"name": "getAdminAddress",
					"outputs": [
						{
							"internalType": "address",
							"name": "",
							"type": "address"
						}
					],
					"stateMutability": "view",
					"type": "function"
				},
				{
					"inputs": [],
					"name": "getRemainingTime",
					"outputs": [
						{
							"internalType": "uint256",
							"name": "",
							"type": "uint256"
						}
					],
					"stateMutability": "view",
					"type": "function"
				},
				{
					"inputs": [
						{
							"internalType": "address",
							"name": "account",
							"type": "address"
						},
						{
							"internalType": "uint256",
							"name": "value",
							"type": "uint256"
						}
					],
					"name": "mint",
					"outputs": [],
					"stateMutability": "nonpayable",
					"type": "function"
				},
				{
					"inputs": [],
					"name": "name",
					"outputs": [
						{
							"internalType": "string",
							"name": "",
							"type": "string"
						}
					],
					"stateMutability": "view",
					"type": "function"
				},
				{
					"inputs": [],
					"name": "symbol",
					"outputs": [
						{
							"internalType": "string",
							"name": "",
							"type": "string"
						}
					],
					"stateMutability": "view",
					"type": "function"
				},
				{
					"inputs": [],
					"name": "totalSupply",
					"outputs": [
						{
							"internalType": "uint256",
							"name": "",
							"type": "uint256"
						}
					],
					"stateMutability": "view",
					"type": "function"
				},
				{
					"inputs": [
						{
							"internalType": "address",
							"name": "to",
							"type": "address"
						},
						{
							"internalType": "uint256",
							"name": "value",
							"type": "uint256"
						}
					],
					"name": "transfer",
					"outputs": [
						{
							"internalType": "bool",
							"name": "",
							"type": "bool"
						}
					],
					"stateMutability": "nonpayable",
					"type": "function"
				},
				{
					"inputs": [
						{
							"internalType": "address",
							"name": "from",
							"type": "address"
						},
						{
							"internalType": "address",
							"name": "to",
							"type": "address"
						},
						{
							"internalType": "uint256",
							"name": "value",
							"type": "uint256"
						}
					],
					"name": "transferFrom",
					"outputs": [
						{
							"internalType": "bool",
							"name": "",
							"type": "bool"
						}
					],
					"stateMutability": "nonpayable",
					"type": "function"
				}
			],
			"devdoc": {
				"errors": {
					"ERC20InsufficientAllowance(address,uint256,uint256)": [
						{
							"details": "Indicates a failure with the `spender`’s `allowance`. Used in transfers.",
							"params": {
								"allowance": "Amount of tokens a `spender` is allowed to operate with.",
								"needed": "Minimum amount required to perform a transfer.",
								"spender": "Address that may be allowed to operate on tokens without being their owner."
							}
						}
					],
					"ERC20InsufficientBalance(address,uint256,uint256)": [
						{
							"details": "Indicates an error related to the current `balance` of a `sender`. Used in transfers.",
							"params": {
								"balance": "Current balance for the interacting account.",
								"needed": "Minimum amount required to perform a transfer.",
								"sender": "Address whose tokens are being transferred."
							}
						}
					],
					"ERC20InvalidApprover(address)": [
						{
							"details": "Indicates a failure with the `approver` of a token to be approved. Used in approvals.",
							"params": {
								"approver": "Address initiating an approval operation."
							}
						}
					],
					"ERC20InvalidReceiver(address)": [
						{
							"details": "Indicates a failure with the token `receiver`. Used in transfers.",
							"params": {
								"receiver": "Address to which tokens are being transferred."
							}
						}
					],
					"ERC20InvalidSender(address)": [
						{
							"details": "Indicates a failure with the token `sender`. Used in transfers.",
							"params": {
								"sender": "Address whose tokens are being transferred."
							}
						}
					],
					"ERC20InvalidSpender(address)": [
						{
							"details": "Indicates a failure with the `spender` to be approved. Used in approvals.",
							"params": {
								"spender": "Address that may be allowed to operate on tokens without being their owner."
							}
						}
					]
				},
				"events": {
					"Approval(address,address,uint256)": {
						"details": "Emitted when the allowance of a `spender` for an `owner` is set by a call to {approve}. `value` is the new allowance."
					},
					"Transfer(address,address,uint256)": {
						"details": "Emitted when `value` tokens are moved from one account (`from`) to another (`to`). Note that `value` may be zero."
					}
				},
				"kind": "dev",
				"methods": {
					"addOwner(address,uint256)": {
						"details": "Adds a new authorized user with a time limit.",
						"params": {
							"_timeLimit": "Duration of access in seconds.",
							"newOwner": "Address of the new user."
						}
					},
					"allowance(address,address)": {
						"details": "See {IERC20-allowance}."
					},
					"approve(address,uint256)": {
						"details": "See {IERC20-approve}. NOTE: If `value` is the maximum `uint256`, the allowance is not updated on `transferFrom`. This is semantically equivalent to an infinite approval. Requirements: - `spender` cannot be the zero address."
					},
					"balanceOf(address)": {
						"details": "See {IERC20-balanceOf}."
					},
					"changeAdmin(address)": {
						"details": "Allows the current admin to transfer admin privileges to a new address.",
						"params": {
							"newAdmin": "Address of the new admin."
						}
					},
					"decimals()": {
						"details": "Returns the number of decimals used to get its user representation. For example, if `decimals` equals `2`, a balance of `505` tokens should be displayed to a user as `5.05` (`505 / 10 ** 2`). Tokens usually opt for a value of 18, imitating the relationship between Ether and Wei. This is the default value returned by this function, unless it's overridden. NOTE: This information is only used for _display_ purposes: it in no way affects any of the arithmetic of the contract, including {IERC20-balanceOf} and {IERC20-transfer}."
					},
					"getAdminAddress()": {
						"details": "Public function to get the current admin address.",
						"returns": {
							"_0": "Admin address."
						}
					},
					"getRemainingTime()": {
						"details": "Allows authorized users to check their remaining access time.",
						"returns": {
							"_0": "Remaining time in seconds, or 0 if authorization has expired."
						}
					},
					"name()": {
						"details": "Returns the name of the token."
					},
					"symbol()": {
						"details": "Returns the symbol of the token, usually a shorter version of the name."
					},
					"totalSupply()": {
						"details": "See {IERC20-totalSupply}."
					},
					"transfer(address,uint256)": {
						"details": "See {IERC20-transfer}. Requirements: - `to` cannot be the zero address. - the caller must have a balance of at least `value`."
					},
					"transferFrom(address,address,uint256)": {
						"details": "See {IERC20-transferFrom}. Skips emitting an {Approval} event indicating an allowance update. This is not required by the ERC. See {xref-ERC20-_approve-address-address-uint256-bool-}[_approve]. NOTE: Does not update the allowance if the current allowance is the maximum `uint256`. Requirements: - `from` and `to` cannot be the zero address. - `from` must have a balance of at least `value`. - the caller must have allowance for ``from``'s tokens of at least `value`."
					}
				},
				"version": 1
			},
			"evm": {
				"assembly": "    /* \"contracts/token/ERC20/CustomeERC20.sol\":159:548  contract MyERC20 is ERC20,GrantPrivileges {... */\n  mstore(0x40, 0x80)\n    /* \"contracts/token/ERC20/CustomeERC20.sol\":306:437  constructor(string memory name_, string memory symbol_) ERC20(name_, symbol_){... */\n  callvalue\n  dup1\n  iszero\n  tag_1\n  jumpi\n  revert(0x00, 0x00)\ntag_1:\n  pop\n  mload(0x40)\n  sub(codesize, bytecodeSize)\n  dup1\n  bytecodeSize\n  dup4\n  codecopy\n  dup2\n  dup2\n  add\n  0x40\n  mstore\n  dup2\n  add\n  swap1\n  tag_2\n  swap2\n  swap1\n  tag_3\n  jump\t// in\ntag_2:\n    /* \"contracts/token/ERC20/CustomeERC20.sol\":368:373  name_ */\n  dup2\n    /* \"contracts/token/ERC20/CustomeERC20.sol\":375:382  symbol_ */\n  dup2\n    /* \"@openzeppelin/contracts/token/ERC20/ERC20.sol\":1656:1661  name_ */\n  dup2\n    /* \"@openzeppelin/contracts/token/ERC20/ERC20.sol\":1648:1653  _name */\n  0x03\n    /* \"@openzeppelin/contracts/token/ERC20/ERC20.sol\":1648:1661  _name = name_ */\n  swap1\n  dup2\n  tag_8\n  swap2\n  swap1\n  tag_9\n  jump\t// in\ntag_8:\n  pop\n    /* \"@openzeppelin/contracts/token/ERC20/ERC20.sol\":1681:1688  symbol_ */\n  dup1\n    /* \"@openzeppelin/contracts/token/ERC20/ERC20.sol\":1671:1678  _symbol */\n  0x04\n    /* \"@openzeppelin/contracts/token/ERC20/ERC20.sol\":1671:1688  _symbol = symbol_ */\n  swap1\n  dup2\n  tag_10\n  swap2\n  swap1\n  tag_9\n  jump\t// in\ntag_10:\n  pop\n    /* \"@openzeppelin/contracts/token/ERC20/ERC20.sol\":1582:1695  constructor(string memory name_, string memory symbol_) {... */\n  pop\n  pop\n    /* \"contracts/utils/GrantPrivileges.sol\":3053:3081  _setAdminAddress(msg.sender) */\n  tag_12\n    /* \"contracts/utils/GrantPrivileges.sol\":3070:3080  msg.sender */\n  caller\n    /* \"contracts/utils/GrantPrivileges.sol\":3053:3069  _setAdminAddress */\n  shl(0x20, tag_13)\n    /* \"contracts/utils/GrantPrivileges.sol\":3053:3081  _setAdminAddress(msg.sender) */\n  0x20\n  shr\n  jump\t// in\ntag_12:\n    /* \"contracts/token/ERC20/CustomeERC20.sol\":393:430  _mint(msg.sender, 10000000000*10**18) */\n  tag_15\n    /* \"contracts/token/ERC20/CustomeERC20.sol\":399:409  msg.sender */\n  caller\n    /* \"contracts/token/ERC20/CustomeERC20.sol\":411:429  10000000000*10**18 */\n  0x204fce5e3e25026110000000\n    /* \"contracts/token/ERC20/CustomeERC20.sol\":393:398  _mint */\n  shl(0x20, tag_16)\n    /* \"contracts/token/ERC20/CustomeERC20.sol\":393:430  _mint(msg.sender, 10000000000*10**18) */\n  0x20\n  shr\n  jump\t// in\ntag_15:\n    /* \"contracts/token/ERC20/CustomeERC20.sol\":306:437  constructor(string memory name_, string memory symbol_) ERC20(name_, symbol_){... */\n  pop\n  pop\n    /* \"contracts/token/ERC20/CustomeERC20.sol\":159:548  contract MyERC20 is ERC20,GrantPrivileges {... */\n  jump(tag_17)\n    /* \"contracts/utils/GrantPrivileges.sol\":1857:1993  function _setAdminAddress(address _newAddress) private {... */\ntag_13:\n    /* \"contracts/utils/GrantPrivileges.sol\":1975:1986  _newAddress */\n  dup1\n    /* \"contracts/utils/GrantPrivileges.sol\":1922:1966  ADMIN_ADDRESS.erc7201Slot().getAddressSlot() */\n  tag_19\n    /* \"contracts/utils/GrantPrivileges.sol\":1922:1949  ADMIN_ADDRESS.erc7201Slot() */\n  tag_20\n    /* \"contracts/utils/GrantPrivileges.sol\":1922:1935  ADMIN_ADDRESS */\n  mload(0x40)\n  dup1\n  0x40\n  add\n  0x40\n  mstore\n  dup1\n  0x1c\n  dup2\n  mstore\n  0x20\n  add\n  0x4772616e7450726976696c656765732e61646d696e4164647265737300000000\n  dup2\n  mstore\n  pop\n    /* \"contracts/utils/GrantPrivileges.sol\":1922:1947  ADMIN_ADDRESS.erc7201Slot */\n  shl(0x20, tag_21)\n    /* \"contracts/utils/GrantPrivileges.sol\":1922:1949  ADMIN_ADDRESS.erc7201Slot() */\n  0x20\n  shr\n  jump\t// in\ntag_20:\n    /* \"contracts/utils/GrantPrivileges.sol\":1922:1964  ADMIN_ADDRESS.erc7201Slot().getAddressSlot */\n  shl(0x20, tag_22)\n    /* \"contracts/utils/GrantPrivileges.sol\":1922:1966  ADMIN_ADDRESS.erc7201Slot().getAddressSlot() */\n  0x20\n  shr\n  jump\t// in\ntag_19:\n    /* \"contracts/utils/GrantPrivileges.sol\":1922:1972  ADMIN_ADDRESS.erc7201Slot().getAddressSlot().value */\n  0x00\n  add\n  0x00\n    /* \"contracts/utils/GrantPrivileges.sol\":1922:1986  ADMIN_ADDRESS.erc7201Slot().getAddressSlot().value = _newAddress */\n  0x0100\n  exp\n  dup2\n  sload\n  dup2\n  0xffffffffffffffffffffffffffffffffffffffff\n  mul\n  not\n  and\n  swap1\n  dup4\n  0xffffffffffffffffffffffffffffffffffffffff\n  and\n  mul\n  or\n  swap1\n  sstore\n  pop\n    /* \"contracts/utils/GrantPrivileges.sol\":1857:1993  function _setAdminAddress(address _newAddress) private {... */\n  pop\n  jump\t// out\n    /* \"@openzeppelin/contracts/token/ERC20/ERC20.sol\":7439:7647  function _mint(address account, uint256 value) internal {... */\ntag_16:\n    /* \"@openzeppelin/contracts/token/ERC20/ERC20.sol\":7528:7529  0 */\n  0x00\n    /* \"@openzeppelin/contracts/token/ERC20/ERC20.sol\":7509:7530  account == address(0) */\n  0xffffffffffffffffffffffffffffffffffffffff\n  and\n    /* \"@openzeppelin/contracts/token/ERC20/ERC20.sol\":7509:7516  account */\n  dup3\n    /* \"@openzeppelin/contracts/token/ERC20/ERC20.sol\":7509:7530  account == address(0) */\n  0xffffffffffffffffffffffffffffffffffffffff\n  and\n  sub\n    /* \"@openzeppelin/contracts/token/ERC20/ERC20.sol\":7505:7596  if (account == address(0)) {... */\n  tag_24\n  jumpi\n    /* \"@openzeppelin/contracts/token/ERC20/ERC20.sol\":7582:7583  0 */\n  0x00\n    /* \"@openzeppelin/contracts/token/ERC20/ERC20.sol\":7553:7585  ERC20InvalidReceiver(address(0)) */\n  mload(0x40)\n  0xec442f0500000000000000000000000000000000000000000000000000000000\n  dup2\n  mstore\n  0x04\n  add\n  tag_25\n  swap2\n  swap1\n  tag_26\n  jump\t// in\ntag_25:\n  mload(0x40)\n  dup1\n  swap2\n  sub\n  swap1\n  revert\n    /* \"@openzeppelin/contracts/token/ERC20/ERC20.sol\":7505:7596  if (account == address(0)) {... */\ntag_24:\n    /* \"@openzeppelin/contracts/token/ERC20/ERC20.sol\":7605:7640  _update(address(0), account, value) */\n  tag_27\n    /* \"@openzeppelin/contracts/token/ERC20/ERC20.sol\":7621:7622  0 */\n  0x00\n    /* \"@openzeppelin/contracts/token/ERC20/ERC20.sol\":7625:7632  account */\n  dup4\n    /* \"@openzeppelin/contracts/token/ERC20/ERC20.sol\":7634:7639  value */\n  dup4\n    /* \"@openzeppelin/contracts/token/ERC20/ERC20.sol\":7605:7612  _update */\n  shl(0x20, tag_28)\n    /* \"@openzeppelin/contracts/token/ERC20/ERC20.sol\":7605:7640  _update(address(0), account, value) */\n  0x20\n  shr\n  jump\t// in\ntag_27:\n    /* \"@openzeppelin/contracts/token/ERC20/ERC20.sol\":7439:7647  function _mint(address account, uint256 value) internal {... */\n  pop\n  pop\n  jump\t// out\n    /* \"@openzeppelin/contracts/utils/SlotDerivation.sol\":1707:1984  function erc7201Slot(string memory namespace) internal pure returns (bytes32 slot) {... */\ntag_21:\n    /* \"@openzeppelin/contracts/utils/SlotDerivation.sol\":1776:1788  bytes32 slot */\n  0x00\n    /* \"@openzeppelin/contracts/utils/SlotDerivation.sol\":1907:1908  1 */\n  0x01\n    /* \"@openzeppelin/contracts/utils/SlotDerivation.sol\":1894:1903  namespace */\n  dup3\n    /* \"@openzeppelin/contracts/utils/SlotDerivation.sol\":1888:1904  mload(namespace) */\n  mload\n    /* \"@openzeppelin/contracts/utils/SlotDerivation.sol\":1881:1885  0x20 */\n  0x20\n    /* \"@openzeppelin/contracts/utils/SlotDerivation.sol\":1870:1879  namespace */\n  dup5\n    /* \"@openzeppelin/contracts/utils/SlotDerivation.sol\":1866:1886  add(namespace, 0x20) */\n  add\n    /* \"@openzeppelin/contracts/utils/SlotDerivation.sol\":1856:1905  keccak256(add(namespace, 0x20), mload(namespace)) */\n  keccak256\n    /* \"@openzeppelin/contracts/utils/SlotDerivation.sol\":1852:1909  sub(keccak256(add(namespace, 0x20), mload(namespace)), 1) */\n  sub\n    /* \"@openzeppelin/contracts/utils/SlotDerivation.sol\":1846:1850  0x00 */\n  0x00\n    /* \"@openzeppelin/contracts/utils/SlotDerivation.sol\":1839:1910  mstore(0x00, sub(keccak256(add(namespace, 0x20), mload(namespace)), 1)) */\n  mstore\n    /* \"@openzeppelin/contracts/utils/SlotDerivation.sol\":1962:1966  0xff */\n  0xff\n    /* \"@openzeppelin/contracts/utils/SlotDerivation.sol\":1958:1967  not(0xff) */\n  not\n    /* \"@openzeppelin/contracts/utils/SlotDerivation.sol\":1951:1955  0x20 */\n  0x20\n    /* \"@openzeppelin/contracts/utils/SlotDerivation.sol\":1945:1949  0x00 */\n  0x00\n    /* \"@openzeppelin/contracts/utils/SlotDerivation.sol\":1935:1956  keccak256(0x00, 0x20) */\n  keccak256\n    /* \"@openzeppelin/contracts/utils/SlotDerivation.sol\":1931:1968  and(keccak256(0x00, 0x20), not(0xff)) */\n  and\n    /* \"@openzeppelin/contracts/utils/SlotDerivation.sol\":1923:1968  slot := and(keccak256(0x00, 0x20), not(0xff)) */\n  swap1\n  pop\n    /* \"@openzeppelin/contracts/utils/SlotDerivation.sol\":1707:1984  function erc7201Slot(string memory namespace) internal pure returns (bytes32 slot) {... */\n  swap2\n  swap1\n  pop\n  jump\t// out\n    /* \"@openzeppelin/contracts/utils/StorageSlot.sol\":1899:2062  function getAddressSlot(bytes32 slot) internal pure returns (AddressSlot storage r) {... */\ntag_22:\n    /* \"@openzeppelin/contracts/utils/StorageSlot.sol\":1960:1981  AddressSlot storage r */\n  0x00\n    /* \"@openzeppelin/contracts/utils/StorageSlot.sol\":2042:2046  slot */\n  dup2\n    /* \"@openzeppelin/contracts/utils/StorageSlot.sol\":2032:2046  r.slot := slot */\n  swap1\n  pop\n    /* \"@openzeppelin/contracts/utils/StorageSlot.sol\":1899:2062  function getAddressSlot(bytes32 slot) internal pure returns (AddressSlot storage r) {... */\n  swap2\n  swap1\n  pop\n  jump\t// out\n    /* \"@openzeppelin/contracts/token/ERC20/ERC20.sol\":5989:7096  function _update(address from, address to, uint256 value) internal virtual {... */\ntag_28:\n    /* \"@openzeppelin/contracts/token/ERC20/ERC20.sol\":6094:6095  0 */\n  0x00\n    /* \"@openzeppelin/contracts/token/ERC20/ERC20.sol\":6078:6096  from == address(0) */\n  0xffffffffffffffffffffffffffffffffffffffff\n  and\n    /* \"@openzeppelin/contracts/token/ERC20/ERC20.sol\":6078:6082  from */\n  dup4\n    /* \"@openzeppelin/contracts/token/ERC20/ERC20.sol\":6078:6096  from == address(0) */\n  0xffffffffffffffffffffffffffffffffffffffff\n  and\n  sub\n    /* \"@openzeppelin/contracts/token/ERC20/ERC20.sol\":6074:6614  if (from == address(0)) {... */\n  tag_32\n  jumpi\n    /* \"@openzeppelin/contracts/token/ERC20/ERC20.sol\":6230:6235  value */\n  dup1\n    /* \"@openzeppelin/contracts/token/ERC20/ERC20.sol\":6214:6226  _totalSupply */\n  0x02\n  0x00\n    /* \"@openzeppelin/contracts/token/ERC20/ERC20.sol\":6214:6235  _totalSupply += value */\n  dup3\n  dup3\n  sload\n  tag_33\n  swap2\n  swap1\n  tag_34\n  jump\t// in\ntag_33:\n  swap3\n  pop\n  pop\n  dup2\n  swap1\n  sstore\n  pop\n    /* \"@openzeppelin/contracts/token/ERC20/ERC20.sol\":6074:6614  if (from == address(0)) {... */\n  jump(tag_35)\ntag_32:\n    /* \"@openzeppelin/contracts/token/ERC20/ERC20.sol\":6266:6285  uint256 fromBalance */\n  0x00\n    /* \"@openzeppelin/contracts/token/ERC20/ERC20.sol\":6288:6297  _balances */\n  0x00\n    /* \"@openzeppelin/contracts/token/ERC20/ERC20.sol\":6288:6303  _balances[from] */\n  0x00\n    /* \"@openzeppelin/contracts/token/ERC20/ERC20.sol\":6298:6302  from */\n  dup6\n    /* \"@openzeppelin/contracts/token/ERC20/ERC20.sol\":6288:6303  _balances[from] */\n  0xffffffffffffffffffffffffffffffffffffffff\n  and\n  0xffffffffffffffffffffffffffffffffffffffff\n  and\n  dup2\n  mstore\n  0x20\n  add\n  swap1\n  dup2\n  mstore\n  0x20\n  add\n  0x00\n  keccak256\n  sload\n    /* \"@openzeppelin/contracts/token/ERC20/ERC20.sol\":6266:6303  uint256 fromBalance = _balances[from] */\n  swap1\n  pop\n    /* \"@openzeppelin/contracts/token/ERC20/ERC20.sol\":6335:6340  value */\n  dup2\n    /* \"@openzeppelin/contracts/token/ERC20/ERC20.sol\":6321:6332  fromBalance */\n  dup2\n    /* \"@openzeppelin/contracts/token/ERC20/ERC20.sol\":6321:6340  fromBalance < value */\n  lt\n    /* \"@openzeppelin/contracts/token/ERC20/ERC20.sol\":6317:6432  if (fromBalance < value) {... */\n  iszero\n  tag_36\n  jumpi\n    /* \"@openzeppelin/contracts/token/ERC20/ERC20.sol\":6392:6396  from */\n  dup4\n    /* \"@openzeppelin/contracts/token/ERC20/ERC20.sol\":6398:6409  fromBalance */\n  dup2\n    /* \"@openzeppelin/contracts/token/ERC20/ERC20.sol\":6411:6416  value */\n  dup4\n    /* \"@openzeppelin/contracts/token/ERC20/ERC20.sol\":6367:6417  ERC20InsufficientBalance(from, fromBalance, value) */\n  mload(0x40)\n  0xe450d38c00000000000000000000000000000000000000000000000000000000\n  dup2\n  mstore\n  0x04\n  add\n  tag_37\n  swap4\n  swap3\n  swap2\n  swap1\n  tag_38\n  jump\t// in\ntag_37:\n  mload(0x40)\n  dup1\n  swap2\n  sub\n  swap1\n  revert\n    /* \"@openzeppelin/contracts/token/ERC20/ERC20.sol\":6317:6432  if (fromBalance < value) {... */\ntag_36:\n    /* \"@openzeppelin/contracts/token/ERC20/ERC20.sol\":6584:6589  value */\n  dup2\n    /* \"@openzeppelin/contracts/token/ERC20/ERC20.sol\":6570:6581  fromBalance */\n  dup2\n    /* \"@openzeppelin/contracts/token/ERC20/ERC20.sol\":6570:6589  fromBalance - value */\n  sub\n    /* \"@openzeppelin/contracts/token/ERC20/ERC20.sol\":6552:6561  _balances */\n  0x00\n    /* \"@openzeppelin/contracts/token/ERC20/ERC20.sol\":6552:6567  _balances[from] */\n  0x00\n    /* \"@openzeppelin/contracts/token/ERC20/ERC20.sol\":6562:6566  from */\n  dup7\n    /* \"@openzeppelin/contracts/token/ERC20/ERC20.sol\":6552:6567  _balances[from] */\n  0xffffffffffffffffffffffffffffffffffffffff\n  and\n  0xffffffffffffffffffffffffffffffffffffffff\n  and\n  dup2\n  mstore\n  0x20\n  add\n  swap1\n  dup2\n  mstore\n  0x20\n  add\n  0x00\n  keccak256\n    /* \"@openzeppelin/contracts/token/ERC20/ERC20.sol\":6552:6589  _balances[from] = fromBalance - value */\n  dup2\n  swap1\n  sstore\n  pop\n    /* \"@openzeppelin/contracts/token/ERC20/ERC20.sol\":6252:6614  {... */\n  pop\n    /* \"@openzeppelin/contracts/token/ERC20/ERC20.sol\":6074:6614  if (from == address(0)) {... */\ntag_35:\n    /* \"@openzeppelin/contracts/token/ERC20/ERC20.sol\":6642:6643  0 */\n  0x00\n    /* \"@openzeppelin/contracts/token/ERC20/ERC20.sol\":6628:6644  to == address(0) */\n  0xffffffffffffffffffffffffffffffffffffffff\n  and\n    /* \"@openzeppelin/contracts/token/ERC20/ERC20.sol\":6628:6630  to */\n  dup3\n    /* \"@openzeppelin/contracts/token/ERC20/ERC20.sol\":6628:6644  to == address(0) */\n  0xffffffffffffffffffffffffffffffffffffffff\n  and\n  sub\n    /* \"@openzeppelin/contracts/token/ERC20/ERC20.sol\":6624:7049  if (to == address(0)) {... */\n  tag_39\n  jumpi\n    /* \"@openzeppelin/contracts/token/ERC20/ERC20.sol\":6807:6812  value */\n  dup1\n    /* \"@openzeppelin/contracts/token/ERC20/ERC20.sol\":6791:6803  _totalSupply */\n  0x02\n  0x00\n    /* \"@openzeppelin/contracts/token/ERC20/ERC20.sol\":6791:6812  _totalSupply -= value */\n  dup3\n  dup3\n  sload\n  sub\n  swap3\n  pop\n  pop\n  dup2\n  swap1\n  sstore\n  pop\n    /* \"@openzeppelin/contracts/token/ERC20/ERC20.sol\":6624:7049  if (to == address(0)) {... */\n  jump(tag_40)\ntag_39:\n    /* \"@openzeppelin/contracts/token/ERC20/ERC20.sol\":7019:7024  value */\n  dup1\n    /* \"@openzeppelin/contracts/token/ERC20/ERC20.sol\":7002:7011  _balances */\n  0x00\n    /* \"@openzeppelin/contracts/token/ERC20/ERC20.sol\":7002:7015  _balances[to] */\n  0x00\n    /* \"@openzeppelin/contracts/token/ERC20/ERC20.sol\":7012:7014  to */\n  dup5\n    /* \"@openzeppelin/contracts/token/ERC20/ERC20.sol\":7002:7015  _balances[to] */\n  0xffffffffffffffffffffffffffffffffffffffff\n  and\n  0xffffffffffffffffffffffffffffffffffffffff\n  and\n  dup2\n  mstore\n  0x20\n  add\n  swap1\n  dup2\n  mstore\n  0x20\n  add\n  0x00\n  keccak256\n  0x00\n    /* \"@openzeppelin/contracts/token/ERC20/ERC20.sol\":7002:7024  _balances[to] += value */\n  dup3\n  dup3\n  sload\n  add\n  swap3\n  pop\n  pop\n  dup2\n  swap1\n  sstore\n  pop\n    /* \"@openzeppelin/contracts/token/ERC20/ERC20.sol\":6624:7049  if (to == address(0)) {... */\ntag_40:\n    /* \"@openzeppelin/contracts/token/ERC20/ERC20.sol\":7079:7081  to */\n  dup2\n    /* \"@openzeppelin/contracts/token/ERC20/ERC20.sol\":7064:7089  Transfer(from, to, value) */\n  0xffffffffffffffffffffffffffffffffffffffff\n  and\n    /* \"@openzeppelin/contracts/token/ERC20/ERC20.sol\":7073:7077  from */\n  dup4\n    /* \"@openzeppelin/contracts/token/ERC20/ERC20.sol\":7064:7089  Transfer(from, to, value) */\n  0xffffffffffffffffffffffffffffffffffffffff\n  and\n  0xddf252ad1be2c89b69c2b068fc378daa952ba7f163c4a11628f55a4df523b3ef\n    /* \"@openzeppelin/contracts/token/ERC20/ERC20.sol\":7083:7088  value */\n  dup4\n    /* \"@openzeppelin/contracts/token/ERC20/ERC20.sol\":7064:7089  Transfer(from, to, value) */\n  mload(0x40)\n  tag_41\n  swap2\n  swap1\n  tag_42\n  jump\t// in\ntag_41:\n  mload(0x40)\n  dup1\n  swap2\n  sub\n  swap1\n  log3\n    /* \"@openzeppelin/contracts/token/ERC20/ERC20.sol\":5989:7096  function _update(address from, address to, uint256 value) internal virtual {... */\n  pop\n  pop\n  pop\n  jump\t// out\n    /* \"#utility.yul\":7:82   */\ntag_43:\n    /* \"#utility.yul\":40:46   */\n  0x00\n    /* \"#utility.yul\":73:75   */\n  0x40\n    /* \"#utility.yul\":67:76   */\n  mload\n    /* \"#utility.yul\":57:76   */\n  swap1\n  pop\n    /* \"#utility.yul\":7:82   */\n  swap1\n  jump\t// out\n    /* \"#utility.yul\":88:205   */\ntag_44:\n    /* \"#utility.yul\":197:198   */\n  0x00\n    /* \"#utility.yul\":194:195   */\n  0x00\n    /* \"#utility.yul\":187:199   */\n  revert\n    /* \"#utility.yul\":211:328   */\ntag_45:\n    /* \"#utility.yul\":320:321   */\n  0x00\n    /* \"#utility.yul\":317:318   */\n  0x00\n    /* \"#utility.yul\":310:322   */\n  revert\n    /* \"#utility.yul\":334:451   */\ntag_46:\n    /* \"#utility.yul\":443:444   */\n  0x00\n    /* \"#utility.yul\":440:441   */\n  0x00\n    /* \"#utility.yul\":433:445   */\n  revert\n    /* \"#utility.yul\":457:574   */\ntag_47:\n    /* \"#utility.yul\":566:567   */\n  0x00\n    /* \"#utility.yul\":563:564   */\n  0x00\n    /* \"#utility.yul\":556:568   */\n  revert\n    /* \"#utility.yul\":580:682   */\ntag_48:\n    /* \"#utility.yul\":621:627   */\n  0x00\n    /* \"#utility.yul\":672:674   */\n  0x1f\n    /* \"#utility.yul\":668:675   */\n  not\n    /* \"#utility.yul\":663:665   */\n  0x1f\n    /* \"#utility.yul\":656:661   */\n  dup4\n    /* \"#utility.yul\":652:666   */\n  add\n    /* \"#utility.yul\":648:676   */\n  and\n    /* \"#utility.yul\":638:676   */\n  swap1\n  pop\n    /* \"#utility.yul\":580:682   */\n  swap2\n  swap1\n  pop\n  jump\t// out\n    /* \"#utility.yul\":688:868   */\ntag_49:\n    /* \"#utility.yul\":736:813   */\n  0x4e487b7100000000000000000000000000000000000000000000000000000000\n    /* \"#utility.yul\":733:734   */\n  0x00\n    /* \"#utility.yul\":726:814   */\n  mstore\n    /* \"#utility.yul\":833:837   */\n  0x41\n    /* \"#utility.yul\":830:831   */\n  0x04\n    /* \"#utility.yul\":823:838   */\n  mstore\n    /* \"#utility.yul\":857:861   */\n  0x24\n    /* \"#utility.yul\":854:855   */\n  0x00\n    /* \"#utility.yul\":847:862   */\n  revert\n    /* \"#utility.yul\":874:1155   */\ntag_50:\n    /* \"#utility.yul\":957:984   */\n  tag_89\n    /* \"#utility.yul\":979:983   */\n  dup3\n    /* \"#utility.yul\":957:984   */\n  tag_48\n  jump\t// in\ntag_89:\n    /* \"#utility.yul\":949:955   */\n  dup2\n    /* \"#utility.yul\":945:985   */\n  add\n    /* \"#utility.yul\":1087:1093   */\n  dup2\n    /* \"#utility.yul\":1075:1085   */\n  dup2\n    /* \"#utility.yul\":1072:1094   */\n  lt\n    /* \"#utility.yul\":1051:1069   */\n  0xffffffffffffffff\n    /* \"#utility.yul\":1039:1049   */\n  dup3\n    /* \"#utility.yul\":1036:1070   */\n  gt\n    /* \"#utility.yul\":1033:1095   */\n  or\n    /* \"#utility.yul\":1030:1118   */\n  iszero\n  tag_90\n  jumpi\n    /* \"#utility.yul\":1098:1116   */\n  tag_91\n  tag_49\n  jump\t// in\ntag_91:\n    /* \"#utility.yul\":1030:1118   */\ntag_90:\n    /* \"#utility.yul\":1138:1148   */\n  dup1\n    /* \"#utility.yul\":1134:1136   */\n  0x40\n    /* \"#utility.yul\":1127:1149   */\n  mstore\n    /* \"#utility.yul\":917:1155   */\n  pop\n    /* \"#utility.yul\":874:1155   */\n  pop\n  pop\n  jump\t// out\n    /* \"#utility.yul\":1161:1290   */\ntag_51:\n    /* \"#utility.yul\":1195:1201   */\n  0x00\n    /* \"#utility.yul\":1222:1242   */\n  tag_93\n  tag_43\n  jump\t// in\ntag_93:\n    /* \"#utility.yul\":1212:1242   */\n  swap1\n  pop\n    /* \"#utility.yul\":1251:1284   */\n  tag_94\n    /* \"#utility.yul\":1279:1283   */\n  dup3\n    /* \"#utility.yul\":1271:1277   */\n  dup3\n    /* \"#utility.yul\":1251:1284   */\n  tag_50\n  jump\t// in\ntag_94:\n    /* \"#utility.yul\":1161:1290   */\n  swap2\n  swap1\n  pop\n  jump\t// out\n    /* \"#utility.yul\":1296:1604   */\ntag_52:\n    /* \"#utility.yul\":1358:1362   */\n  0x00\n    /* \"#utility.yul\":1448:1466   */\n  0xffffffffffffffff\n    /* \"#utility.yul\":1440:1446   */\n  dup3\n    /* \"#utility.yul\":1437:1467   */\n  gt\n    /* \"#utility.yul\":1434:1490   */\n  iszero\n  tag_96\n  jumpi\n    /* \"#utility.yul\":1470:1488   */\n  tag_97\n  tag_49\n  jump\t// in\ntag_97:\n    /* \"#utility.yul\":1434:1490   */\ntag_96:\n    /* \"#utility.yul\":1508:1537   */\n  tag_98\n    /* \"#utility.yul\":1530:1536   */\n  dup3\n    /* \"#utility.yul\":1508:1537   */\n  tag_48\n  jump\t// in\ntag_98:\n    /* \"#utility.yul\":1500:1537   */\n  swap1\n  pop\n    /* \"#utility.yul\":1592:1596   */\n  0x20\n    /* \"#utility.yul\":1586:1590   */\n  dup2\n    /* \"#utility.yul\":1582:1597   */\n  add\n    /* \"#utility.yul\":1574:1597   */\n  swap1\n  pop\n    /* \"#utility.yul\":1296:1604   */\n  swap2\n  swap1\n  pop\n  jump\t// out\n    /* \"#utility.yul\":1610:1749   */\ntag_53:\n    /* \"#utility.yul\":1699:1705   */\n  dup3\n    /* \"#utility.yul\":1694:1697   */\n  dup2\n    /* \"#utility.yul\":1689:1692   */\n  dup4\n    /* \"#utility.yul\":1683:1706   */\n  mcopy\n    /* \"#utility.yul\":1740:1741   */\n  0x00\n    /* \"#utility.yul\":1731:1737   */\n  dup4\n    /* \"#utility.yul\":1726:1729   */\n  dup4\n    /* \"#utility.yul\":1722:1738   */\n  add\n    /* \"#utility.yul\":1715:1742   */\n  mstore\n    /* \"#utility.yul\":1610:1749   */\n  pop\n  pop\n  pop\n  jump\t// out\n    /* \"#utility.yul\":1755:2189   */\ntag_54:\n    /* \"#utility.yul\":1844:1849   */\n  0x00\n    /* \"#utility.yul\":1869:1935   */\n  tag_101\n    /* \"#utility.yul\":1885:1934   */\n  tag_102\n    /* \"#utility.yul\":1927:1933   */\n  dup5\n    /* \"#utility.yul\":1885:1934   */\n  tag_52\n  jump\t// in\ntag_102:\n    /* \"#utility.yul\":1869:1935   */\n  tag_51\n  jump\t// in\ntag_101:\n    /* \"#utility.yul\":1860:1935   */\n  swap1\n  pop\n    /* \"#utility.yul\":1958:1964   */\n  dup3\n    /* \"#utility.yul\":1951:1956   */\n  dup2\n    /* \"#utility.yul\":1944:1965   */\n  mstore\n    /* \"#utility.yul\":1996:2000   */\n  0x20\n    /* \"#utility.yul\":1989:1994   */\n  dup2\n    /* \"#utility.yul\":1985:2001   */\n  add\n    /* \"#utility.yul\":2034:2037   */\n  dup5\n    /* \"#utility.yul\":2025:2031   */\n  dup5\n    /* \"#utility.yul\":2020:2023   */\n  dup5\n    /* \"#utility.yul\":2016:2032   */\n  add\n    /* \"#utility.yul\":2013:2038   */\n  gt\n    /* \"#utility.yul\":2010:2122   */\n  iszero\n  tag_103\n  jumpi\n    /* \"#utility.yul\":2041:2120   */\n  tag_104\n  tag_47\n  jump\t// in\ntag_104:\n    /* \"#utility.yul\":2010:2122   */\ntag_103:\n    /* \"#utility.yul\":2131:2183   */\n  tag_105\n    /* \"#utility.yul\":2176:2182   */\n  dup5\n    /* \"#utility.yul\":2171:2174   */\n  dup3\n    /* \"#utility.yul\":2166:2169   */\n  dup6\n    /* \"#utility.yul\":2131:2183   */\n  tag_53\n  jump\t// in\ntag_105:\n    /* \"#utility.yul\":1850:2189   */\n  pop\n    /* \"#utility.yul\":1755:2189   */\n  swap4\n  swap3\n  pop\n  pop\n  pop\n  jump\t// out\n    /* \"#utility.yul\":2209:2564   */\ntag_55:\n    /* \"#utility.yul\":2276:2281   */\n  0x00\n    /* \"#utility.yul\":2325:2328   */\n  dup3\n    /* \"#utility.yul\":2318:2322   */\n  0x1f\n    /* \"#utility.yul\":2310:2316   */\n  dup4\n    /* \"#utility.yul\":2306:2323   */\n  add\n    /* \"#utility.yul\":2302:2329   */\n  slt\n    /* \"#utility.yul\":2292:2414   */\n  tag_107\n  jumpi\n    /* \"#utility.yul\":2333:2412   */\n  tag_108\n  tag_46\n  jump\t// in\ntag_108:\n    /* \"#utility.yul\":2292:2414   */\ntag_107:\n    /* \"#utility.yul\":2443:2449   */\n  dup2\n    /* \"#utility.yul\":2437:2450   */\n  mload\n    /* \"#utility.yul\":2468:2558   */\n  tag_109\n    /* \"#utility.yul\":2554:2557   */\n  dup5\n    /* \"#utility.yul\":2546:2552   */\n  dup3\n    /* \"#utility.yul\":2539:2543   */\n  0x20\n    /* \"#utility.yul\":2531:2537   */\n  dup7\n    /* \"#utility.yul\":2527:2544   */\n  add\n    /* \"#utility.yul\":2468:2558   */\n  tag_54\n  jump\t// in\ntag_109:\n    /* \"#utility.yul\":2459:2558   */\n  swap2\n  pop\n    /* \"#utility.yul\":2282:2564   */\n  pop\n    /* \"#utility.yul\":2209:2564   */\n  swap3\n  swap2\n  pop\n  pop\n  jump\t// out\n    /* \"#utility.yul\":2570:3423   */\ntag_3:\n    /* \"#utility.yul\":2669:2675   */\n  0x00\n    /* \"#utility.yul\":2677:2683   */\n  0x00\n    /* \"#utility.yul\":2726:2728   */\n  0x40\n    /* \"#utility.yul\":2714:2723   */\n  dup4\n    /* \"#utility.yul\":2705:2712   */\n  dup6\n    /* \"#utility.yul\":2701:2724   */\n  sub\n    /* \"#utility.yul\":2697:2729   */\n  slt\n    /* \"#utility.yul\":2694:2813   */\n  iszero\n  tag_111\n  jumpi\n    /* \"#utility.yul\":2732:2811   */\n  tag_112\n  tag_44\n  jump\t// in\ntag_112:\n    /* \"#utility.yul\":2694:2813   */\ntag_111:\n    /* \"#utility.yul\":2873:2874   */\n  0x00\n    /* \"#utility.yul\":2862:2871   */\n  dup4\n    /* \"#utility.yul\":2858:2875   */\n  add\n    /* \"#utility.yul\":2852:2876   */\n  mload\n    /* \"#utility.yul\":2903:2921   */\n  0xffffffffffffffff\n    /* \"#utility.yul\":2895:2901   */\n  dup2\n    /* \"#utility.yul\":2892:2922   */\n  gt\n    /* \"#utility.yul\":2889:3006   */\n  iszero\n  tag_113\n  jumpi\n    /* \"#utility.yul\":2925:3004   */\n  tag_114\n  tag_45\n  jump\t// in\ntag_114:\n    /* \"#utility.yul\":2889:3006   */\ntag_113:\n    /* \"#utility.yul\":3030:3104   */\n  tag_115\n    /* \"#utility.yul\":3096:3103   */\n  dup6\n    /* \"#utility.yul\":3087:3093   */\n  dup3\n    /* \"#utility.yul\":3076:3085   */\n  dup7\n    /* \"#utility.yul\":3072:3094   */\n  add\n    /* \"#utility.yul\":3030:3104   */\n  tag_55\n  jump\t// in\ntag_115:\n    /* \"#utility.yul\":3020:3104   */\n  swap3\n  pop\n    /* \"#utility.yul\":2823:3114   */\n  pop\n    /* \"#utility.yul\":3174:3176   */\n  0x20\n    /* \"#utility.yul\":3163:3172   */\n  dup4\n    /* \"#utility.yul\":3159:3177   */\n  add\n    /* \"#utility.yul\":3153:3178   */\n  mload\n    /* \"#utility.yul\":3205:3223   */\n  0xffffffffffffffff\n    /* \"#utility.yul\":3197:3203   */\n  dup2\n    /* \"#utility.yul\":3194:3224   */\n  gt\n    /* \"#utility.yul\":3191:3308   */\n  iszero\n  tag_116\n  jumpi\n    /* \"#utility.yul\":3227:3306   */\n  tag_117\n  tag_45\n  jump\t// in\ntag_117:\n    /* \"#utility.yul\":3191:3308   */\ntag_116:\n    /* \"#utility.yul\":3332:3406   */\n  tag_118\n    /* \"#utility.yul\":3398:3405   */\n  dup6\n    /* \"#utility.yul\":3389:3395   */\n  dup3\n    /* \"#utility.yul\":3378:3387   */\n  dup7\n    /* \"#utility.yul\":3374:3396   */\n  add\n    /* \"#utility.yul\":3332:3406   */\n  tag_55\n  jump\t// in\ntag_118:\n    /* \"#utility.yul\":3322:3406   */\n  swap2\n  pop\n    /* \"#utility.yul\":3124:3416   */\n  pop\n    /* \"#utility.yul\":2570:3423   */\n  swap3\n  pop\n  swap3\n  swap1\n  pop\n  jump\t// out\n    /* \"#utility.yul\":3429:3528   */\ntag_56:\n    /* \"#utility.yul\":3481:3487   */\n  0x00\n    /* \"#utility.yul\":3515:3520   */\n  dup2\n    /* \"#utility.yul\":3509:3521   */\n  mload\n    /* \"#utility.yul\":3499:3521   */\n  swap1\n  pop\n    /* \"#utility.yul\":3429:3528   */\n  swap2\n  swap1\n  pop\n  jump\t// out\n    /* \"#utility.yul\":3534:3714   */\ntag_57:\n    /* \"#utility.yul\":3582:3659   */\n  0x4e487b7100000000000000000000000000000000000000000000000000000000\n    /* \"#utility.yul\":3579:3580   */\n  0x00\n    /* \"#utility.yul\":3572:3660   */\n  mstore\n    /* \"#utility.yul\":3679:3683   */\n  0x22\n    /* \"#utility.yul\":3676:3677   */\n  0x04\n    /* \"#utility.yul\":3669:3684   */\n  mstore\n    /* \"#utility.yul\":3703:3707   */\n  0x24\n    /* \"#utility.yul\":3700:3701   */\n  0x00\n    /* \"#utility.yul\":3693:3708   */\n  revert\n    /* \"#utility.yul\":3720:4040   */\ntag_58:\n    /* \"#utility.yul\":3764:3770   */\n  0x00\n    /* \"#utility.yul\":3801:3802   */\n  0x02\n    /* \"#utility.yul\":3795:3799   */\n  dup3\n    /* \"#utility.yul\":3791:3803   */\n  div\n    /* \"#utility.yul\":3781:3803   */\n  swap1\n  pop\n    /* \"#utility.yul\":3848:3849   */\n  0x01\n    /* \"#utility.yul\":3842:3846   */\n  dup3\n    /* \"#utility.yul\":3838:3850   */\n  and\n    /* \"#utility.yul\":3869:3887   */\n  dup1\n    /* \"#utility.yul\":3859:3940   */\n  tag_122\n  jumpi\n    /* \"#utility.yul\":3925:3929   */\n  0x7f\n    /* \"#utility.yul\":3917:3923   */\n  dup3\n    /* \"#utility.yul\":3913:3930   */\n  and\n    /* \"#utility.yul\":3903:3930   */\n  swap2\n  pop\n    /* \"#utility.yul\":3859:3940   */\ntag_122:\n    /* \"#utility.yul\":3987:3989   */\n  0x20\n    /* \"#utility.yul\":3979:3985   */\n  dup3\n    /* \"#utility.yul\":3976:3990   */\n  lt\n    /* \"#utility.yul\":3956:3974   */\n  dup2\n    /* \"#utility.yul\":3953:3991   */\n  sub\n    /* \"#utility.yul\":3950:4034   */\n  tag_123\n  jumpi\n    /* \"#utility.yul\":4006:4024   */\n  tag_124\n  tag_57\n  jump\t// in\ntag_124:\n    /* \"#utility.yul\":3950:4034   */\ntag_123:\n    /* \"#utility.yul\":3771:4040   */\n  pop\n    /* \"#utility.yul\":3720:4040   */\n  swap2\n  swap1\n  pop\n  jump\t// out\n    /* \"#utility.yul\":4046:4187   */\ntag_59:\n    /* \"#utility.yul\":4095:4099   */\n  0x00\n    /* \"#utility.yul\":4118:4121   */\n  dup2\n    /* \"#utility.yul\":4110:4121   */\n  swap1\n  pop\n    /* \"#utility.yul\":4141:4144   */\n  dup2\n    /* \"#utility.yul\":4138:4139   */\n  0x00\n    /* \"#utility.yul\":4131:4145   */\n  mstore\n    /* \"#utility.yul\":4175:4179   */\n  0x20\n    /* \"#utility.yul\":4172:4173   */\n  0x00\n    /* \"#utility.yul\":4162:4180   */\n  keccak256\n    /* \"#utility.yul\":4154:4180   */\n  swap1\n  pop\n    /* \"#utility.yul\":4046:4187   */\n  swap2\n  swap1\n  pop\n  jump\t// out\n    /* \"#utility.yul\":4193:4286   */\ntag_60:\n    /* \"#utility.yul\":4230:4236   */\n  0x00\n    /* \"#utility.yul\":4277:4279   */\n  0x20\n    /* \"#utility.yul\":4272:4274   */\n  0x1f\n    /* \"#utility.yul\":4265:4270   */\n  dup4\n    /* \"#utility.yul\":4261:4275   */\n  add\n    /* \"#utility.yul\":4257:4280   */\n  div\n    /* \"#utility.yul\":4247:4280   */\n  swap1\n  pop\n    /* \"#utility.yul\":4193:4286   */\n  swap2\n  swap1\n  pop\n  jump\t// out\n    /* \"#utility.yul\":4292:4399   */\ntag_61:\n    /* \"#utility.yul\":4336:4344   */\n  0x00\n    /* \"#utility.yul\":4386:4391   */\n  dup3\n    /* \"#utility.yul\":4380:4384   */\n  dup3\n    /* \"#utility.yul\":4376:4392   */\n  shl\n    /* \"#utility.yul\":4355:4392   */\n  swap1\n  pop\n    /* \"#utility.yul\":4292:4399   */\n  swap3\n  swap2\n  pop\n  pop\n  jump\t// out\n    /* \"#utility.yul\":4405:4798   */\ntag_62:\n    /* \"#utility.yul\":4474:4480   */\n  0x00\n    /* \"#utility.yul\":4524:4525   */\n  0x08\n    /* \"#utility.yul\":4512:4522   */\n  dup4\n    /* \"#utility.yul\":4508:4526   */\n  mul\n    /* \"#utility.yul\":4547:4644   */\n  tag_129\n    /* \"#utility.yul\":4577:4643   */\n  0xffffffffffffffffffffffffffffffffffffffffffffffffffffffffffffffff\n    /* \"#utility.yul\":4566:4575   */\n  dup3\n    /* \"#utility.yul\":4547:4644   */\n  tag_61\n  jump\t// in\ntag_129:\n    /* \"#utility.yul\":4665:4704   */\n  tag_130\n    /* \"#utility.yul\":4695:4703   */\n  dup7\n    /* \"#utility.yul\":4684:4693   */\n  dup4\n    /* \"#utility.yul\":4665:4704   */\n  tag_61\n  jump\t// in\ntag_130:\n    /* \"#utility.yul\":4653:4704   */\n  swap6\n  pop\n    /* \"#utility.yul\":4737:4741   */\n  dup1\n    /* \"#utility.yul\":4733:4742   */\n  not\n    /* \"#utility.yul\":4726:4731   */\n  dup5\n    /* \"#utility.yul\":4722:4743   */\n  and\n    /* \"#utility.yul\":4713:4743   */\n  swap4\n  pop\n    /* \"#utility.yul\":4786:4790   */\n  dup1\n    /* \"#utility.yul\":4776:4784   */\n  dup7\n    /* \"#utility.yul\":4772:4791   */\n  and\n    /* \"#utility.yul\":4765:4770   */\n  dup5\n    /* \"#utility.yul\":4762:4792   */\n  or\n    /* \"#utility.yul\":4752:4792   */\n  swap3\n  pop\n    /* \"#utility.yul\":4481:4798   */\n  pop\n  pop\n    /* \"#utility.yul\":4405:4798   */\n  swap4\n  swap3\n  pop\n  pop\n  pop\n  jump\t// out\n    /* \"#utility.yul\":4804:4881   */\ntag_63:\n    /* \"#utility.yul\":4841:4848   */\n  0x00\n    /* \"#utility.yul\":4870:4875   */\n  dup2\n    /* \"#utility.yul\":4859:4875   */\n  swap1\n  pop\n    /* \"#utility.yul\":4804:4881   */\n  swap2\n  swap1\n  pop\n  jump\t// out\n    /* \"#utility.yul\":4887:4947   */\ntag_64:\n    /* \"#utility.yul\":4915:4918   */\n  0x00\n    /* \"#utility.yul\":4936:4941   */\n  dup2\n    /* \"#utility.yul\":4929:4941   */\n  swap1\n  pop\n    /* \"#utility.yul\":4887:4947   */\n  swap2\n  swap1\n  pop\n  jump\t// out\n    /* \"#utility.yul\":4953:5095   */\ntag_65:\n    /* \"#utility.yul\":5003:5012   */\n  0x00\n    /* \"#utility.yul\":5036:5089   */\n  tag_134\n    /* \"#utility.yul\":5054:5088   */\n  tag_135\n    /* \"#utility.yul\":5063:5087   */\n  tag_136\n    /* \"#utility.yul\":5081:5086   */\n  dup5\n    /* \"#utility.yul\":5063:5087   */\n  tag_63\n  jump\t// in\ntag_136:\n    /* \"#utility.yul\":5054:5088   */\n  tag_64\n  jump\t// in\ntag_135:\n    /* \"#utility.yul\":5036:5089   */\n  tag_63\n  jump\t// in\ntag_134:\n    /* \"#utility.yul\":5023:5089   */\n  swap1\n  pop\n    /* \"#utility.yul\":4953:5095   */\n  swap2\n  swap1\n  pop\n  jump\t// out\n    /* \"#utility.yul\":5101:5176   */\ntag_66:\n    /* \"#utility.yul\":5144:5147   */\n  0x00\n    /* \"#utility.yul\":5165:5170   */\n  dup2\n    /* \"#utility.yul\":5158:5170   */\n  swap1\n  pop\n    /* \"#utility.yul\":5101:5176   */\n  swap2\n  swap1\n  pop\n  jump\t// out\n    /* \"#utility.yul\":5182:5451   */\ntag_67:\n    /* \"#utility.yul\":5292:5331   */\n  tag_139\n    /* \"#utility.yul\":5323:5330   */\n  dup4\n    /* \"#utility.yul\":5292:5331   */\n  tag_65\n  jump\t// in\ntag_139:\n    /* \"#utility.yul\":5353:5444   */\n  tag_140\n    /* \"#utility.yul\":5402:5443   */\n  tag_141\n    /* \"#utility.yul\":5426:5442   */\n  dup3\n    /* \"#utility.yul\":5402:5443   */\n  tag_66\n  jump\t// in\ntag_141:\n    /* \"#utility.yul\":5394:5400   */\n  dup5\n    /* \"#utility.yul\":5387:5391   */\n  dup5\n    /* \"#utility.yul\":5381:5392   */\n  sload\n    /* \"#utility.yul\":5353:5444   */\n  tag_62\n  jump\t// in\ntag_140:\n    /* \"#utility.yul\":5347:5351   */\n  dup3\n    /* \"#utility.yul\":5340:5445   */\n  sstore\n    /* \"#utility.yul\":5258:5451   */\n  pop\n    /* \"#utility.yul\":5182:5451   */\n  pop\n  pop\n  pop\n  jump\t// out\n    /* \"#utility.yul\":5457:5530   */\ntag_68:\n    /* \"#utility.yul\":5502:5505   */\n  0x00\n    /* \"#utility.yul\":5523:5524   */\n  0x00\n    /* \"#utility.yul\":5516:5524   */\n  swap1\n  pop\n    /* \"#utility.yul\":5457:5530   */\n  swap1\n  jump\t// out\n    /* \"#utility.yul\":5536:5725   */\ntag_69:\n    /* \"#utility.yul\":5613:5645   */\n  tag_144\n  tag_68\n  jump\t// in\ntag_144:\n    /* \"#utility.yul\":5654:5719   */\n  tag_145\n    /* \"#utility.yul\":5712:5718   */\n  dup2\n    /* \"#utility.yul\":5704:5710   */\n  dup5\n    /* \"#utility.yul\":5698:5702   */\n  dup5\n    /* \"#utility.yul\":5654:5719   */\n  tag_67\n  jump\t// in\ntag_145:\n    /* \"#utility.yul\":5589:5725   */\n  pop\n    /* \"#utility.yul\":5536:5725   */\n  pop\n  pop\n  jump\t// out\n    /* \"#utility.yul\":5731:5917   */\ntag_70:\n    /* \"#utility.yul\":5791:5911   */\ntag_147:\n    /* \"#utility.yul\":5808:5811   */\n  dup2\n    /* \"#utility.yul\":5801:5806   */\n  dup2\n    /* \"#utility.yul\":5798:5812   */\n  lt\n    /* \"#utility.yul\":5791:5911   */\n  iszero\n  tag_149\n  jumpi\n    /* \"#utility.yul\":5862:5901   */\n  tag_150\n    /* \"#utility.yul\":5899:5900   */\n  0x00\n    /* \"#utility.yul\":5892:5897   */\n  dup3\n    /* \"#utility.yul\":5862:5901   */\n  tag_69\n  jump\t// in\ntag_150:\n    /* \"#utility.yul\":5835:5836   */\n  0x01\n    /* \"#utility.yul\":5828:5833   */\n  dup2\n    /* \"#utility.yul\":5824:5837   */\n  add\n    /* \"#utility.yul\":5815:5837   */\n  swap1\n  pop\n    /* \"#utility.yul\":5791:5911   */\n  jump(tag_147)\ntag_149:\n    /* \"#utility.yul\":5731:5917   */\n  pop\n  pop\n  jump\t// out\n    /* \"#utility.yul\":5923:6466   */\ntag_71:\n    /* \"#utility.yul\":6024:6026   */\n  0x1f\n    /* \"#utility.yul\":6019:6022   */\n  dup3\n    /* \"#utility.yul\":6016:6027   */\n  gt\n    /* \"#utility.yul\":6013:6459   */\n  iszero\n  tag_152\n  jumpi\n    /* \"#utility.yul\":6058:6096   */\n  tag_153\n    /* \"#utility.yul\":6090:6095   */\n  dup2\n    /* \"#utility.yul\":6058:6096   */\n  tag_59\n  jump\t// in\ntag_153:\n    /* \"#utility.yul\":6142:6171   */\n  tag_154\n    /* \"#utility.yul\":6160:6170   */\n  dup5\n    /* \"#utility.yul\":6142:6171   */\n  tag_60\n  jump\t// in\ntag_154:\n    /* \"#utility.yul\":6132:6140   */\n  dup2\n    /* \"#utility.yul\":6128:6172   */\n  add\n    /* \"#utility.yul\":6325:6327   */\n  0x20\n    /* \"#utility.yul\":6313:6323   */\n  dup6\n    /* \"#utility.yul\":6310:6328   */\n  lt\n    /* \"#utility.yul\":6307:6356   */\n  iszero\n  tag_155\n  jumpi\n    /* \"#utility.yul\":6346:6354   */\n  dup2\n    /* \"#utility.yul\":6331:6354   */\n  swap1\n  pop\n    /* \"#utility.yul\":6307:6356   */\ntag_155:\n    /* \"#utility.yul\":6369:6449   */\n  tag_156\n    /* \"#utility.yul\":6425:6447   */\n  tag_157\n    /* \"#utility.yul\":6443:6446   */\n  dup6\n    /* \"#utility.yul\":6425:6447   */\n  tag_60\n  jump\t// in\ntag_157:\n    /* \"#utility.yul\":6415:6423   */\n  dup4\n    /* \"#utility.yul\":6411:6448   */\n  add\n    /* \"#utility.yul\":6398:6409   */\n  dup3\n    /* \"#utility.yul\":6369:6449   */\n  tag_70\n  jump\t// in\ntag_156:\n    /* \"#utility.yul\":6028:6459   */\n  pop\n  pop\n    /* \"#utility.yul\":6013:6459   */\ntag_152:\n    /* \"#utility.yul\":5923:6466   */\n  pop\n  pop\n  pop\n  jump\t// out\n    /* \"#utility.yul\":6472:6589   */\ntag_72:\n    /* \"#utility.yul\":6526:6534   */\n  0x00\n    /* \"#utility.yul\":6576:6581   */\n  dup3\n    /* \"#utility.yul\":6570:6574   */\n  dup3\n    /* \"#utility.yul\":6566:6582   */\n  shr\n    /* \"#utility.yul\":6545:6582   */\n  swap1\n  pop\n    /* \"#utility.yul\":6472:6589   */\n  swap3\n  swap2\n  pop\n  pop\n  jump\t// out\n    /* \"#utility.yul\":6595:6764   */\ntag_73:\n    /* \"#utility.yul\":6639:6645   */\n  0x00\n    /* \"#utility.yul\":6672:6723   */\n  tag_160\n    /* \"#utility.yul\":6720:6721   */\n  0x00\n    /* \"#utility.yul\":6716:6722   */\n  not\n    /* \"#utility.yul\":6708:6713   */\n  dup5\n    /* \"#utility.yul\":6705:6706   */\n  0x08\n    /* \"#utility.yul\":6701:6714   */\n  mul\n    /* \"#utility.yul\":6672:6723   */\n  tag_72\n  jump\t// in\ntag_160:\n    /* \"#utility.yul\":6668:6724   */\n  not\n    /* \"#utility.yul\":6753:6757   */\n  dup1\n    /* \"#utility.yul\":6747:6751   */\n  dup4\n    /* \"#utility.yul\":6743:6758   */\n  and\n    /* \"#utility.yul\":6733:6758   */\n  swap2\n  pop\n    /* \"#utility.yul\":6646:6764   */\n  pop\n    /* \"#utility.yul\":6595:6764   */\n  swap3\n  swap2\n  pop\n  pop\n  jump\t// out\n    /* \"#utility.yul\":6769:7064   */\ntag_74:\n    /* \"#utility.yul\":6845:6849   */\n  0x00\n    /* \"#utility.yul\":6991:7020   */\n  tag_162\n    /* \"#utility.yul\":7016:7019   */\n  dup4\n    /* \"#utility.yul\":7010:7014   */\n  dup4\n    /* \"#utility.yul\":6991:7020   */\n  tag_73\n  jump\t// in\ntag_162:\n    /* \"#utility.yul\":6983:7020   */\n  swap2\n  pop\n    /* \"#utility.yul\":7053:7056   */\n  dup3\n    /* \"#utility.yul\":7050:7051   */\n  0x02\n    /* \"#utility.yul\":7046:7057   */\n  mul\n    /* \"#utility.yul\":7040:7044   */\n  dup3\n    /* \"#utility.yul\":7037:7058   */\n  or\n    /* \"#utility.yul\":7029:7058   */\n  swap1\n  pop\n    /* \"#utility.yul\":6769:7064   */\n  swap3\n  swap2\n  pop\n  pop\n  jump\t// out\n    /* \"#utility.yul\":7069:8464   */\ntag_9:\n    /* \"#utility.yul\":7186:7223   */\n  tag_164\n    /* \"#utility.yul\":7219:7222   */\n  dup3\n    /* \"#utility.yul\":7186:7223   */\n  tag_56\n  jump\t// in\ntag_164:\n    /* \"#utility.yul\":7288:7306   */\n  0xffffffffffffffff\n    /* \"#utility.yul\":7280:7286   */\n  dup2\n    /* \"#utility.yul\":7277:7307   */\n  gt\n    /* \"#utility.yul\":7274:7330   */\n  iszero\n  tag_165\n  jumpi\n    /* \"#utility.yul\":7310:7328   */\n  tag_166\n  tag_49\n  jump\t// in\ntag_166:\n    /* \"#utility.yul\":7274:7330   */\ntag_165:\n    /* \"#utility.yul\":7354:7392   */\n  tag_167\n    /* \"#utility.yul\":7386:7390   */\n  dup3\n    /* \"#utility.yul\":7380:7391   */\n  sload\n    /* \"#utility.yul\":7354:7392   */\n  tag_58\n  jump\t// in\ntag_167:\n    /* \"#utility.yul\":7439:7506   */\n  tag_168\n    /* \"#utility.yul\":7499:7505   */\n  dup3\n    /* \"#utility.yul\":7491:7497   */\n  dup3\n    /* \"#utility.yul\":7485:7489   */\n  dup6\n    /* \"#utility.yul\":7439:7506   */\n  tag_71\n  jump\t// in\ntag_168:\n    /* \"#utility.yul\":7533:7534   */\n  0x00\n    /* \"#utility.yul\":7557:7561   */\n  0x20\n    /* \"#utility.yul\":7544:7561   */\n  swap1\n  pop\n    /* \"#utility.yul\":7589:7591   */\n  0x1f\n    /* \"#utility.yul\":7581:7587   */\n  dup4\n    /* \"#utility.yul\":7578:7592   */\n  gt\n    /* \"#utility.yul\":7606:7607   */\n  0x01\n    /* \"#utility.yul\":7601:8219   */\n  dup2\n  eq\n  tag_170\n  jumpi\n    /* \"#utility.yul\":8263:8264   */\n  0x00\n    /* \"#utility.yul\":8280:8286   */\n  dup5\n    /* \"#utility.yul\":8277:8354   */\n  iszero\n  tag_171\n  jumpi\n    /* \"#utility.yul\":8329:8338   */\n  dup3\n    /* \"#utility.yul\":8324:8327   */\n  dup8\n    /* \"#utility.yul\":8320:8339   */\n  add\n    /* \"#utility.yul\":8314:8340   */\n  mload\n    /* \"#utility.yul\":8305:8340   */\n  swap1\n  pop\n    /* \"#utility.yul\":8277:8354   */\ntag_171:\n    /* \"#utility.yul\":8380:8447   */\n  tag_172\n    /* \"#utility.yul\":8440:8446   */\n  dup6\n    /* \"#utility.yul\":8433:8438   */\n  dup3\n    /* \"#utility.yul\":8380:8447   */\n  tag_74\n  jump\t// in\ntag_172:\n    /* \"#utility.yul\":8374:8378   */\n  dup7\n    /* \"#utility.yul\":8367:8448   */\n  sstore\n    /* \"#utility.yul\":8236:8458   */\n  pop\n    /* \"#utility.yul\":7571:8458   */\n  jump(tag_169)\n    /* \"#utility.yul\":7601:8219   */\ntag_170:\n    /* \"#utility.yul\":7653:7657   */\n  0x1f\n    /* \"#utility.yul\":7649:7658   */\n  not\n    /* \"#utility.yul\":7641:7647   */\n  dup5\n    /* \"#utility.yul\":7637:7659   */\n  and\n    /* \"#utility.yul\":7687:7724   */\n  tag_173\n    /* \"#utility.yul\":7719:7723   */\n  dup7\n    /* \"#utility.yul\":7687:7724   */\n  tag_59\n  jump\t// in\ntag_173:\n    /* \"#utility.yul\":7746:7747   */\n  0x00\n    /* \"#utility.yul\":7760:7968   */\ntag_174:\n    /* \"#utility.yul\":7774:7781   */\n  dup3\n    /* \"#utility.yul\":7771:7772   */\n  dup2\n    /* \"#utility.yul\":7768:7782   */\n  lt\n    /* \"#utility.yul\":7760:7968   */\n  iszero\n  tag_176\n  jumpi\n    /* \"#utility.yul\":7853:7862   */\n  dup5\n    /* \"#utility.yul\":7848:7851   */\n  dup10\n    /* \"#utility.yul\":7844:7863   */\n  add\n    /* \"#utility.yul\":7838:7864   */\n  mload\n    /* \"#utility.yul\":7830:7836   */\n  dup3\n    /* \"#utility.yul\":7823:7865   */\n  sstore\n    /* \"#utility.yul\":7904:7905   */\n  0x01\n    /* \"#utility.yul\":7896:7902   */\n  dup3\n    /* \"#utility.yul\":7892:7906   */\n  add\n    /* \"#utility.yul\":7882:7906   */\n  swap2\n  pop\n    /* \"#utility.yul\":7951:7953   */\n  0x20\n    /* \"#utility.yul\":7940:7949   */\n  dup6\n    /* \"#utility.yul\":7936:7954   */\n  add\n    /* \"#utility.yul\":7923:7954   */\n  swap5\n  pop\n    /* \"#utility.yul\":7797:7801   */\n  0x20\n    /* \"#utility.yul\":7794:7795   */\n  dup2\n    /* \"#utility.yul\":7790:7802   */\n  add\n    /* \"#utility.yul\":7785:7802   */\n  swap1\n  pop\n    /* \"#utility.yul\":7760:7968   */\n  jump(tag_174)\ntag_176:\n    /* \"#utility.yul\":7996:8002   */\n  dup7\n    /* \"#utility.yul\":7987:7994   */\n  dup4\n    /* \"#utility.yul\":7984:8003   */\n  lt\n    /* \"#utility.yul\":7981:8160   */\n  iszero\n  tag_177\n  jumpi\n    /* \"#utility.yul\":8054:8063   */\n  dup5\n    /* \"#utility.yul\":8049:8052   */\n  dup10\n    /* \"#utility.yul\":8045:8064   */\n  add\n    /* \"#utility.yul\":8039:8065   */\n  mload\n    /* \"#utility.yul\":8097:8145   */\n  tag_178\n    /* \"#utility.yul\":8139:8143   */\n  0x1f\n    /* \"#utility.yul\":8131:8137   */\n  dup10\n    /* \"#utility.yul\":8127:8144   */\n  and\n    /* \"#utility.yul\":8116:8125   */\n  dup3\n    /* \"#utility.yul\":8097:8145   */\n  tag_73\n  jump\t// in\ntag_178:\n    /* \"#utility.yul\":8089:8095   */\n  dup4\n    /* \"#utility.yul\":8082:8146   */\n  sstore\n    /* \"#utility.yul\":8004:8160   */\n  pop\n    /* \"#utility.yul\":7981:8160   */\ntag_177:\n    /* \"#utility.yul\":8206:8207   */\n  0x01\n    /* \"#utility.yul\":8202:8203   */\n  0x02\n    /* \"#utility.yul\":8194:8200   */\n  dup9\n    /* \"#utility.yul\":8190:8204   */\n  mul\n    /* \"#utility.yul\":8186:8208   */\n  add\n    /* \"#utility.yul\":8180:8184   */\n  dup9\n    /* \"#utility.yul\":8173:8209   */\n  sstore\n    /* \"#utility.yul\":7608:8219   */\n  pop\n  pop\n  pop\n    /* \"#utility.yul\":7571:8458   */\ntag_169:\n  pop\n    /* \"#utility.yul\":7161:8464   */\n  pop\n  pop\n  pop\n    /* \"#utility.yul\":7069:8464   */\n  pop\n  pop\n  jump\t// out\n    /* \"#utility.yul\":8470:8596   */\ntag_75:\n    /* \"#utility.yul\":8507:8514   */\n  0x00\n    /* \"#utility.yul\":8547:8589   */\n  0xffffffffffffffffffffffffffffffffffffffff\n    /* \"#utility.yul\":8540:8545   */\n  dup3\n    /* \"#utility.yul\":8536:8590   */\n  and\n    /* \"#utility.yul\":8525:8590   */\n  swap1\n  pop\n    /* \"#utility.yul\":8470:8596   */\n  swap2\n  swap1\n  pop\n  jump\t// out\n    /* \"#utility.yul\":8602:8698   */\ntag_76:\n    /* \"#utility.yul\":8639:8646   */\n  0x00\n    /* \"#utility.yul\":8668:8692   */\n  tag_181\n    /* \"#utility.yul\":8686:8691   */\n  dup3\n    /* \"#utility.yul\":8668:8692   */\n  tag_75\n  jump\t// in\ntag_181:\n    /* \"#utility.yul\":8657:8692   */\n  swap1\n  pop\n    /* \"#utility.yul\":8602:8698   */\n  swap2\n  swap1\n  pop\n  jump\t// out\n    /* \"#utility.yul\":8704:8822   */\ntag_77:\n    /* \"#utility.yul\":8791:8815   */\n  tag_183\n    /* \"#utility.yul\":8809:8814   */\n  dup2\n    /* \"#utility.yul\":8791:8815   */\n  tag_76\n  jump\t// in\ntag_183:\n    /* \"#utility.yul\":8786:8789   */\n  dup3\n    /* \"#utility.yul\":8779:8816   */\n  mstore\n    /* \"#utility.yul\":8704:8822   */\n  pop\n  pop\n  jump\t// out\n    /* \"#utility.yul\":8828:9050   */\ntag_26:\n    /* \"#utility.yul\":8921:8925   */\n  0x00\n    /* \"#utility.yul\":8959:8961   */\n  0x20\n    /* \"#utility.yul\":8948:8957   */\n  dup3\n    /* \"#utility.yul\":8944:8962   */\n  add\n    /* \"#utility.yul\":8936:8962   */\n  swap1\n  pop\n    /* \"#utility.yul\":8972:9043   */\n  tag_185\n    /* \"#utility.yul\":9040:9041   */\n  0x00\n    /* \"#utility.yul\":9029:9038   */\n  dup4\n    /* \"#utility.yul\":9025:9042   */\n  add\n    /* \"#utility.yul\":9016:9022   */\n  dup5\n    /* \"#utility.yul\":8972:9043   */\n  tag_77\n  jump\t// in\ntag_185:\n    /* \"#utility.yul\":8828:9050   */\n  swap3\n  swap2\n  pop\n  pop\n  jump\t// out\n    /* \"#utility.yul\":9056:9236   */\ntag_78:\n    /* \"#utility.yul\":9104:9181   */\n  0x4e487b7100000000000000000000000000000000000000000000000000000000\n    /* \"#utility.yul\":9101:9102   */\n  0x00\n    /* \"#utility.yul\":9094:9182   */\n  mstore\n    /* \"#utility.yul\":9201:9205   */\n  0x11\n    /* \"#utility.yul\":9198:9199   */\n  0x04\n    /* \"#utility.yul\":9191:9206   */\n  mstore\n    /* \"#utility.yul\":9225:9229   */\n  0x24\n    /* \"#utility.yul\":9222:9223   */\n  0x00\n    /* \"#utility.yul\":9215:9230   */\n  revert\n    /* \"#utility.yul\":9242:9433   */\ntag_34:\n    /* \"#utility.yul\":9282:9285   */\n  0x00\n    /* \"#utility.yul\":9301:9321   */\n  tag_188\n    /* \"#utility.yul\":9319:9320   */\n  dup3\n    /* \"#utility.yul\":9301:9321   */\n  tag_63\n  jump\t// in\ntag_188:\n    /* \"#utility.yul\":9296:9321   */\n  swap2\n  pop\n    /* \"#utility.yul\":9335:9355   */\n  tag_189\n    /* \"#utility.yul\":9353:9354   */\n  dup4\n    /* \"#utility.yul\":9335:9355   */\n  tag_63\n  jump\t// in\ntag_189:\n    /* \"#utility.yul\":9330:9355   */\n  swap3\n  pop\n    /* \"#utility.yul\":9378:9379   */\n  dup3\n    /* \"#utility.yul\":9375:9376   */\n  dup3\n    /* \"#utility.yul\":9371:9380   */\n  add\n    /* \"#utility.yul\":9364:9380   */\n  swap1\n  pop\n    /* \"#utility.yul\":9399:9402   */\n  dup1\n    /* \"#utility.yul\":9396:9397   */\n  dup3\n    /* \"#utility.yul\":9393:9403   */\n  gt\n    /* \"#utility.yul\":9390:9426   */\n  iszero\n  tag_190\n  jumpi\n    /* \"#utility.yul\":9406:9424   */\n  tag_191\n  tag_78\n  jump\t// in\ntag_191:\n    /* \"#utility.yul\":9390:9426   */\ntag_190:\n    /* \"#utility.yul\":9242:9433   */\n  swap3\n  swap2\n  pop\n  pop\n  jump\t// out\n    /* \"#utility.yul\":9439:9557   */\ntag_79:\n    /* \"#utility.yul\":9526:9550   */\n  tag_193\n    /* \"#utility.yul\":9544:9549   */\n  dup2\n    /* \"#utility.yul\":9526:9550   */\n  tag_63\n  jump\t// in\ntag_193:\n    /* \"#utility.yul\":9521:9524   */\n  dup3\n    /* \"#utility.yul\":9514:9551   */\n  mstore\n    /* \"#utility.yul\":9439:9557   */\n  pop\n  pop\n  jump\t// out\n    /* \"#utility.yul\":9563:10005   */\ntag_38:\n    /* \"#utility.yul\":9712:9716   */\n  0x00\n    /* \"#utility.yul\":9750:9752   */\n  0x60\n    /* \"#utility.yul\":9739:9748   */\n  dup3\n    /* \"#utility.yul\":9735:9753   */\n  add\n    /* \"#utility.yul\":9727:9753   */\n  swap1\n  pop\n    /* \"#utility.yul\":9763:9834   */\n  tag_195\n    /* \"#utility.yul\":9831:9832   */\n  0x00\n    /* \"#utility.yul\":9820:9829   */\n  dup4\n    /* \"#utility.yul\":9816:9833   */\n  add\n    /* \"#utility.yul\":9807:9813   */\n  dup7\n    /* \"#utility.yul\":9763:9834   */\n  tag_77\n  jump\t// in\ntag_195:\n    /* \"#utility.yul\":9844:9916   */\n  tag_196\n    /* \"#utility.yul\":9912:9914   */\n  0x20\n    /* \"#utility.yul\":9901:9910   */\n  dup4\n    /* \"#utility.yul\":9897:9915   */\n  add\n    /* \"#utility.yul\":9888:9894   */\n  dup6\n    /* \"#utility.yul\":9844:9916   */\n  tag_79\n  jump\t// in\ntag_196:\n    /* \"#utility.yul\":9926:9998   */\n  tag_197\n    /* \"#utility.yul\":9994:9996   */\n  0x40\n    /* \"#utility.yul\":9983:9992   */\n  dup4\n    /* \"#utility.yul\":9979:9997   */\n  add\n    /* \"#utility.yul\":9970:9976   */\n  dup5\n    /* \"#utility.yul\":9926:9998   */\n  tag_79\n  jump\t// in\ntag_197:\n    /* \"#utility.yul\":9563:10005   */\n  swap5\n  swap4\n  pop\n  pop\n  pop\n  pop\n  jump\t// out\n    /* \"#utility.yul\":10011:10233   */\ntag_42:\n    /* \"#utility.yul\":10104:10108   */\n  0x00\n    /* \"#utility.yul\":10142:10144   */\n  0x20\n    /* \"#utility.yul\":10131:10140   */\n  dup3\n    /* \"#utility.yul\":10127:10145   */\n  add\n    /* \"#utility.yul\":10119:10145   */\n  swap1\n  pop\n    /* \"#utility.yul\":10155:10226   */\n  tag_199\n    /* \"#utility.yul\":10223:10224   */\n  0x00\n    /* \"#utility.yul\":10212:10221   */\n  dup4\n    /* \"#utility.yul\":10208:10225   */\n  add\n    /* \"#utility.yul\":10199:10205   */\n  dup5\n    /* \"#utility.yul\":10155:10226   */\n  tag_79\n  jump\t// in\ntag_199:\n    /* \"#utility.yul\":10011:10233   */\n  swap3\n  swap2\n  pop\n  pop\n  jump\t// out\n    /* \"contracts/token/ERC20/CustomeERC20.sol\":159:548  contract MyERC20 is ERC20,GrantPrivileges {... */\ntag_17:\n  dataSize(sub_0)\n  dup1\n  dataOffset(sub_0)\n  0x00\n  codecopy\n  0x00\n  return\nstop\n\nsub_0: assembly {\n        /* \"contracts/token/ERC20/CustomeERC20.sol\":159:548  contract MyERC20 is ERC20,GrantPrivileges {... */\n      mstore(0x40, 0x80)\n      callvalue\n      dup1\n      iszero\n      tag_1\n      jumpi\n      revert(0x00, 0x00)\n    tag_1:\n      pop\n      jumpi(tag_2, lt(calldatasize, 0x04))\n      shr(0xe0, calldataload(0x00))\n      dup1\n      0x70a08231\n      gt\n      tag_18\n      jumpi\n      dup1\n      0xa9059cbb\n      gt\n      tag_19\n      jumpi\n      dup1\n      0xa9059cbb\n      eq\n      tag_14\n      jumpi\n      dup1\n      0xb2e6b912\n      eq\n      tag_15\n      jumpi\n      dup1\n      0xdd62ed3e\n      eq\n      tag_16\n      jumpi\n      dup1\n      0xefb98bcf\n      eq\n      tag_17\n      jumpi\n      jump(tag_2)\n    tag_19:\n      dup1\n      0x70a08231\n      eq\n      tag_10\n      jumpi\n      dup1\n      0x8f283970\n      eq\n      tag_11\n      jumpi\n      dup1\n      0x95cfbf6d\n      eq\n      tag_12\n      jumpi\n      dup1\n      0x95d89b41\n      eq\n      tag_13\n      jumpi\n      jump(tag_2)\n    tag_18:\n      dup1\n      0x23b872dd\n      gt\n      tag_20\n      jumpi\n      dup1\n      0x23b872dd\n      eq\n      tag_6\n      jumpi\n      dup1\n      0x313ce567\n      eq\n      tag_7\n      jumpi\n      dup1\n      0x3cc38f5c\n      eq\n      tag_8\n      jumpi\n      dup1\n      0x40c10f19\n      eq\n      tag_9\n      jumpi\n      jump(tag_2)\n    tag_20:\n      dup1\n      0x06fdde03\n      eq\n      tag_3\n      jumpi\n      dup1\n      0x095ea7b3\n      eq\n      tag_4\n      jumpi\n      dup1\n      0x18160ddd\n      eq\n      tag_5\n      jumpi\n    tag_2:\n      revert(0x00, 0x00)\n        /* \"@openzeppelin/contracts/token/ERC20/ERC20.sol\":1760:1849  function name() public view virtual returns (string memory) {... */\n    tag_3:\n      tag_21\n      tag_22\n      jump\t// in\n    tag_21:\n      mload(0x40)\n      tag_23\n      swap2\n      swap1\n      tag_24\n      jump\t// in\n    tag_23:\n      mload(0x40)\n      dup1\n      swap2\n      sub\n      swap1\n      return\n        /* \"@openzeppelin/contracts/token/ERC20/ERC20.sol\":3979:4165  function approve(address spender, uint256 value) public virtual returns (bool) {... */\n    tag_4:\n      tag_25\n      0x04\n      dup1\n      calldatasize\n      sub\n      dup2\n      add\n      swap1\n      tag_26\n      swap2\n      swap1\n      tag_27\n      jump\t// in\n    tag_26:\n      tag_28\n      jump\t// in\n    tag_25:\n      mload(0x40)\n      tag_29\n      swap2\n      swap1\n      tag_30\n      jump\t// in\n    tag_29:\n      mload(0x40)\n      dup1\n      swap2\n      sub\n      swap1\n      return\n        /* \"@openzeppelin/contracts/token/ERC20/ERC20.sol\":2830:2927  function totalSupply() public view virtual returns (uint256) {... */\n    tag_5:\n      tag_31\n      tag_32\n      jump\t// in\n    tag_31:\n      mload(0x40)\n      tag_33\n      swap2\n      swap1\n      tag_34\n      jump\t// in\n    tag_33:\n      mload(0x40)\n      dup1\n      swap2\n      sub\n      swap1\n      return\n        /* \"@openzeppelin/contracts/token/ERC20/ERC20.sol\":4757:5001  function transferFrom(address from, address to, uint256 value) public virtual returns (bool) {... */\n    tag_6:\n      tag_35\n      0x04\n      dup1\n      calldatasize\n      sub\n      dup2\n      add\n      swap1\n      tag_36\n      swap2\n      swap1\n      tag_37\n      jump\t// in\n    tag_36:\n      tag_38\n      jump\t// in\n    tag_35:\n      mload(0x40)\n      tag_39\n      swap2\n      swap1\n      tag_30\n      jump\t// in\n    tag_39:\n      mload(0x40)\n      dup1\n      swap2\n      sub\n      swap1\n      return\n        /* \"@openzeppelin/contracts/token/ERC20/ERC20.sol\":2688:2770  function decimals() public view virtual returns (uint8) {... */\n    tag_7:\n      tag_40\n      tag_41\n      jump\t// in\n    tag_40:\n      mload(0x40)\n      tag_42\n      swap2\n      swap1\n      tag_43\n      jump\t// in\n    tag_42:\n      mload(0x40)\n      dup1\n      swap2\n      sub\n      swap1\n      return\n        /* \"contracts/utils/GrantPrivileges.sol\":4498:4898  function addOwner(address newOwner, uint _timeLimit) external onlyAdmin {... */\n    tag_8:\n      tag_44\n      0x04\n      dup1\n      calldatasize\n      sub\n      dup2\n      add\n      swap1\n      tag_45\n      swap2\n      swap1\n      tag_27\n      jump\t// in\n    tag_45:\n      tag_46\n      jump\t// in\n    tag_44:\n      stop\n        /* \"contracts/token/ERC20/CustomeERC20.sol\":442:545  function mint(address account, uint256 value) external onlyAdmin {... */\n    tag_9:\n      tag_47\n      0x04\n      dup1\n      calldatasize\n      sub\n      dup2\n      add\n      swap1\n      tag_48\n      swap2\n      swap1\n      tag_27\n      jump\t// in\n    tag_48:\n      tag_49\n      jump\t// in\n    tag_47:\n      stop\n        /* \"@openzeppelin/contracts/token/ERC20/ERC20.sol\":2985:3101  function balanceOf(address account) public view virtual returns (uint256) {... */\n    tag_10:\n      tag_50\n      0x04\n      dup1\n      calldatasize\n      sub\n      dup2\n      add\n      swap1\n      tag_51\n      swap2\n      swap1\n      tag_52\n      jump\t// in\n    tag_51:\n      tag_53\n      jump\t// in\n    tag_50:\n      mload(0x40)\n      tag_54\n      swap2\n      swap1\n      tag_34\n      jump\t// in\n    tag_54:\n      mload(0x40)\n      dup1\n      swap2\n      sub\n      swap1\n      return\n        /* \"contracts/utils/GrantPrivileges.sol\":5956:6140  function changeAdmin(address newAdmin) external onlyAdmin {... */\n    tag_11:\n      tag_55\n      0x04\n      dup1\n      calldatasize\n      sub\n      dup2\n      add\n      swap1\n      tag_56\n      swap2\n      swap1\n      tag_52\n      jump\t// in\n    tag_56:\n      tag_57\n      jump\t// in\n    tag_55:\n      stop\n        /* \"contracts/utils/GrantPrivileges.sol\":1125:1203  string public constant GRANTPRIVILEGES_NAMESPACE = \"GrantPrivileges.Namespace\" */\n    tag_12:\n      tag_58\n      tag_59\n      jump\t// in\n    tag_58:\n      mload(0x40)\n      tag_60\n      swap2\n      swap1\n      tag_24\n      jump\t// in\n    tag_60:\n      mload(0x40)\n      dup1\n      swap2\n      sub\n      swap1\n      return\n        /* \"@openzeppelin/contracts/token/ERC20/ERC20.sol\":1962:2055  function symbol() public view virtual returns (string memory) {... */\n    tag_13:\n      tag_61\n      tag_62\n      jump\t// in\n    tag_61:\n      mload(0x40)\n      tag_63\n      swap2\n      swap1\n      tag_24\n      jump\t// in\n    tag_63:\n      mload(0x40)\n      dup1\n      swap2\n      sub\n      swap1\n      return\n        /* \"@openzeppelin/contracts/token/ERC20/ERC20.sol\":3296:3474  function transfer(address to, uint256 value) public virtual returns (bool) {... */\n    tag_14:\n      tag_64\n      0x04\n      dup1\n      calldatasize\n      sub\n      dup2\n      add\n      swap1\n      tag_65\n      swap2\n      swap1\n      tag_27\n      jump\t// in\n    tag_65:\n      tag_66\n      jump\t// in\n    tag_64:\n      mload(0x40)\n      tag_67\n      swap2\n      swap1\n      tag_30\n      jump\t// in\n    tag_67:\n      mload(0x40)\n      dup1\n      swap2\n      sub\n      swap1\n      return\n        /* \"contracts/utils/GrantPrivileges.sol\":5700:5801  function getAdminAddress() external view returns (address) {... */\n    tag_15:\n      tag_68\n      tag_69\n      jump\t// in\n    tag_68:\n      mload(0x40)\n      tag_70\n      swap2\n      swap1\n      tag_71\n      jump\t// in\n    tag_70:\n      mload(0x40)\n      dup1\n      swap2\n      sub\n      swap1\n      return\n        /* \"@openzeppelin/contracts/token/ERC20/ERC20.sol\":3532:3672  function allowance(address owner, address spender) public view virtual returns (uint256) {... */\n    tag_16:\n      tag_72\n      0x04\n      dup1\n      calldatasize\n      sub\n      dup2\n      add\n      swap1\n      tag_73\n      swap2\n      swap1\n      tag_74\n      jump\t// in\n    tag_73:\n      tag_75\n      jump\t// in\n    tag_72:\n      mload(0x40)\n      tag_76\n      swap2\n      swap1\n      tag_34\n      jump\t// in\n    tag_76:\n      mload(0x40)\n      dup1\n      swap2\n      sub\n      swap1\n      return\n        /* \"contracts/utils/GrantPrivileges.sol\":5071:5586  function getRemainingTime() external view onlyOwner returns (uint) {... */\n    tag_17:\n      tag_77\n      tag_78\n      jump\t// in\n    tag_77:\n      mload(0x40)\n      tag_79\n      swap2\n      swap1\n      tag_34\n      jump\t// in\n    tag_79:\n      mload(0x40)\n      dup1\n      swap2\n      sub\n      swap1\n      return\n        /* \"@openzeppelin/contracts/token/ERC20/ERC20.sol\":1760:1849  function name() public view virtual returns (string memory) {... */\n    tag_22:\n        /* \"@openzeppelin/contracts/token/ERC20/ERC20.sol\":1805:1818  string memory */\n      0x60\n        /* \"@openzeppelin/contracts/token/ERC20/ERC20.sol\":1837:1842  _name */\n      0x03\n        /* \"@openzeppelin/contracts/token/ERC20/ERC20.sol\":1830:1842  return _name */\n      dup1\n      sload\n      tag_81\n      swap1\n      tag_82\n      jump\t// in\n    tag_81:\n      dup1\n      0x1f\n      add\n      0x20\n      dup1\n      swap2\n      div\n      mul\n      0x20\n      add\n      mload(0x40)\n      swap1\n      dup2\n      add\n      0x40\n      mstore\n      dup1\n      swap3\n      swap2\n      swap1\n      dup2\n      dup2\n      mstore\n      0x20\n      add\n      dup3\n      dup1\n      sload\n      tag_83\n      swap1\n      tag_82\n      jump\t// in\n    tag_83:\n      dup1\n      iszero\n      tag_84\n      jumpi\n      dup1\n      0x1f\n      lt\n      tag_85\n      jumpi\n      0x0100\n      dup1\n      dup4\n      sload\n      div\n      mul\n      dup4\n      mstore\n      swap2\n      0x20\n      add\n      swap2\n      jump(tag_84)\n    tag_85:\n      dup3\n      add\n      swap2\n      swap1\n      0x00\n      mstore\n      keccak256(0x00, 0x20)\n      swap1\n    tag_86:\n      dup2\n      sload\n      dup2\n      mstore\n      swap1\n      0x01\n      add\n      swap1\n      0x20\n      add\n      dup1\n      dup4\n      gt\n      tag_86\n      jumpi\n      dup3\n      swap1\n      sub\n      0x1f\n      and\n      dup3\n      add\n      swap2\n    tag_84:\n      pop\n      pop\n      pop\n      pop\n      pop\n      swap1\n      pop\n        /* \"@openzeppelin/contracts/token/ERC20/ERC20.sol\":1760:1849  function name() public view virtual returns (string memory) {... */\n      swap1\n      jump\t// out\n        /* \"@openzeppelin/contracts/token/ERC20/ERC20.sol\":3979:4165  function approve(address spender, uint256 value) public virtual returns (bool) {... */\n    tag_28:\n        /* \"@openzeppelin/contracts/token/ERC20/ERC20.sol\":4052:4056  bool */\n      0x00\n        /* \"@openzeppelin/contracts/token/ERC20/ERC20.sol\":4068:4081  address owner */\n      0x00\n        /* \"@openzeppelin/contracts/token/ERC20/ERC20.sol\":4084:4096  _msgSender() */\n      tag_88\n        /* \"@openzeppelin/contracts/token/ERC20/ERC20.sol\":4084:4094  _msgSender */\n      tag_89\n        /* \"@openzeppelin/contracts/token/ERC20/ERC20.sol\":4084:4096  _msgSender() */\n      jump\t// in\n    tag_88:\n        /* \"@openzeppelin/contracts/token/ERC20/ERC20.sol\":4068:4096  address owner = _msgSender() */\n      swap1\n      pop\n        /* \"@openzeppelin/contracts/token/ERC20/ERC20.sol\":4106:4137  _approve(owner, spender, value) */\n      tag_90\n        /* \"@openzeppelin/contracts/token/ERC20/ERC20.sol\":4115:4120  owner */\n      dup2\n        /* \"@openzeppelin/contracts/token/ERC20/ERC20.sol\":4122:4129  spender */\n      dup6\n        /* \"@openzeppelin/contracts/token/ERC20/ERC20.sol\":4131:4136  value */\n      dup6\n        /* \"@openzeppelin/contracts/token/ERC20/ERC20.sol\":4106:4114  _approve */\n      tag_91\n        /* \"@openzeppelin/contracts/token/ERC20/ERC20.sol\":4106:4137  _approve(owner, spender, value) */\n      jump\t// in\n    tag_90:\n        /* \"@openzeppelin/contracts/token/ERC20/ERC20.sol\":4154:4158  true */\n      0x01\n        /* \"@openzeppelin/contracts/token/ERC20/ERC20.sol\":4147:4158  return true */\n      swap2\n      pop\n      pop\n        /* \"@openzeppelin/contracts/token/ERC20/ERC20.sol\":3979:4165  function approve(address spender, uint256 value) public virtual returns (bool) {... */\n      swap3\n      swap2\n      pop\n      pop\n      jump\t// out\n        /* \"@openzeppelin/contracts/token/ERC20/ERC20.sol\":2830:2927  function totalSupply() public view virtual returns (uint256) {... */\n    tag_32:\n        /* \"@openzeppelin/contracts/token/ERC20/ERC20.sol\":2882:2889  uint256 */\n      0x00\n        /* \"@openzeppelin/contracts/token/ERC20/ERC20.sol\":2908:2920  _totalSupply */\n      sload(0x02)\n        /* \"@openzeppelin/contracts/token/ERC20/ERC20.sol\":2901:2920  return _totalSupply */\n      swap1\n      pop\n        /* \"@openzeppelin/contracts/token/ERC20/ERC20.sol\":2830:2927  function totalSupply() public view virtual returns (uint256) {... */\n      swap1\n      jump\t// out\n        /* \"@openzeppelin/contracts/token/ERC20/ERC20.sol\":4757:5001  function transferFrom(address from, address to, uint256 value) public virtual returns (bool) {... */\n    tag_38:\n        /* \"@openzeppelin/contracts/token/ERC20/ERC20.sol\":4844:4848  bool */\n      0x00\n        /* \"@openzeppelin/contracts/token/ERC20/ERC20.sol\":4860:4875  address spender */\n      0x00\n        /* \"@openzeppelin/contracts/token/ERC20/ERC20.sol\":4878:4890  _msgSender() */\n      tag_94\n        /* \"@openzeppelin/contracts/token/ERC20/ERC20.sol\":4878:4888  _msgSender */\n      tag_89\n        /* \"@openzeppelin/contracts/token/ERC20/ERC20.sol\":4878:4890  _msgSender() */\n      jump\t// in\n    tag_94:\n        /* \"@openzeppelin/contracts/token/ERC20/ERC20.sol\":4860:4890  address spender = _msgSender() */\n      swap1\n      pop\n        /* \"@openzeppelin/contracts/token/ERC20/ERC20.sol\":4900:4937  _spendAllowance(from, spender, value) */\n      tag_95\n        /* \"@openzeppelin/contracts/token/ERC20/ERC20.sol\":4916:4920  from */\n      dup6\n        /* \"@openzeppelin/contracts/token/ERC20/ERC20.sol\":4922:4929  spender */\n      dup3\n        /* \"@openzeppelin/contracts/token/ERC20/ERC20.sol\":4931:4936  value */\n      dup6\n        /* \"@openzeppelin/contracts/token/ERC20/ERC20.sol\":4900:4915  _spendAllowance */\n      tag_96\n        /* \"@openzeppelin/contracts/token/ERC20/ERC20.sol\":4900:4937  _spendAllowance(from, spender, value) */\n      jump\t// in\n    tag_95:\n        /* \"@openzeppelin/contracts/token/ERC20/ERC20.sol\":4947:4973  _transfer(from, to, value) */\n      tag_97\n        /* \"@openzeppelin/contracts/token/ERC20/ERC20.sol\":4957:4961  from */\n      dup6\n        /* \"@openzeppelin/contracts/token/ERC20/ERC20.sol\":4963:4965  to */\n      dup6\n        /* \"@openzeppelin/contracts/token/ERC20/ERC20.sol\":4967:4972  value */\n      dup6\n        /* \"@openzeppelin/contracts/token/ERC20/ERC20.sol\":4947:4956  _transfer */\n      tag_98\n        /* \"@openzeppelin/contracts/token/ERC20/ERC20.sol\":4947:4973  _transfer(from, to, value) */\n      jump\t// in\n    tag_97:\n        /* \"@openzeppelin/contracts/token/ERC20/ERC20.sol\":4990:4994  true */\n      0x01\n        /* \"@openzeppelin/contracts/token/ERC20/ERC20.sol\":4983:4994  return true */\n      swap2\n      pop\n      pop\n        /* \"@openzeppelin/contracts/token/ERC20/ERC20.sol\":4757:5001  function transferFrom(address from, address to, uint256 value) public virtual returns (bool) {... */\n      swap4\n      swap3\n      pop\n      pop\n      pop\n      jump\t// out\n        /* \"@openzeppelin/contracts/token/ERC20/ERC20.sol\":2688:2770  function decimals() public view virtual returns (uint8) {... */\n    tag_41:\n        /* \"@openzeppelin/contracts/token/ERC20/ERC20.sol\":2737:2742  uint8 */\n      0x00\n        /* \"@openzeppelin/contracts/token/ERC20/ERC20.sol\":2761:2763  18 */\n      0x12\n        /* \"@openzeppelin/contracts/token/ERC20/ERC20.sol\":2754:2763  return 18 */\n      swap1\n      pop\n        /* \"@openzeppelin/contracts/token/ERC20/ERC20.sol\":2688:2770  function decimals() public view virtual returns (uint8) {... */\n      swap1\n      jump\t// out\n        /* \"contracts/utils/GrantPrivileges.sol\":4498:4898  function addOwner(address newOwner, uint _timeLimit) external onlyAdmin {... */\n    tag_46:\n        /* \"contracts/utils/GrantPrivileges.sol\":3253:3271  _getAdminAddress() */\n      tag_101\n        /* \"contracts/utils/GrantPrivileges.sol\":3253:3269  _getAdminAddress */\n      tag_102\n        /* \"contracts/utils/GrantPrivileges.sol\":3253:3271  _getAdminAddress() */\n      jump\t// in\n    tag_101:\n        /* \"contracts/utils/GrantPrivileges.sol\":3239:3271  msg.sender != _getAdminAddress() */\n      0xffffffffffffffffffffffffffffffffffffffff\n      and\n        /* \"contracts/utils/GrantPrivileges.sol\":3239:3249  msg.sender */\n      caller\n        /* \"contracts/utils/GrantPrivileges.sol\":3239:3271  msg.sender != _getAdminAddress() */\n      0xffffffffffffffffffffffffffffffffffffffff\n      and\n      eq\n        /* \"contracts/utils/GrantPrivileges.sol\":3235:3347  if (msg.sender != _getAdminAddress()) {... */\n      tag_103\n      jumpi\n        /* \"contracts/utils/GrantPrivileges.sol\":3294:3336  OnlyAdmin(\"only admin address can access\") */\n      mload(0x40)\n      0x0a2a9e3e00000000000000000000000000000000000000000000000000000000\n      dup2\n      mstore\n      0x04\n      add\n      tag_104\n      swap1\n      tag_105\n      jump\t// in\n    tag_104:\n      mload(0x40)\n      dup1\n      swap2\n      sub\n      swap1\n      revert\n        /* \"contracts/utils/GrantPrivileges.sol\":3235:3347  if (msg.sender != _getAdminAddress()) {... */\n    tag_103:\n        /* \"contracts/utils/GrantPrivileges.sol\":4604:4605  0 */\n      0x00\n        /* \"contracts/utils/GrantPrivileges.sol\":4584:4606  newOwner == address(0) */\n      0xffffffffffffffffffffffffffffffffffffffff\n      and\n        /* \"contracts/utils/GrantPrivileges.sol\":4584:4592  newOwner */\n      dup3\n        /* \"contracts/utils/GrantPrivileges.sol\":4584:4606  newOwner == address(0) */\n      0xffffffffffffffffffffffffffffffffffffffff\n      and\n      sub\n        /* \"contracts/utils/GrantPrivileges.sol\":4580:4654  if (newOwner == address(0)) {... */\n      tag_107\n      jumpi\n        /* \"contracts/utils/GrantPrivileges.sol\":4629:4643  AddressEmpty() */\n      mload(0x40)\n      0x5bb7a72300000000000000000000000000000000000000000000000000000000\n      dup2\n      mstore\n      0x04\n      add\n      mload(0x40)\n      dup1\n      swap2\n      sub\n      swap1\n      revert\n        /* \"contracts/utils/GrantPrivileges.sol\":4580:4654  if (newOwner == address(0)) {... */\n    tag_107:\n        /* \"contracts/utils/GrantPrivileges.sol\":4681:4682  0 */\n      0x00\n        /* \"contracts/utils/GrantPrivileges.sol\":4667:4677  _timeLimit */\n      dup2\n        /* \"contracts/utils/GrantPrivileges.sol\":4667:4682  _timeLimit == 0 */\n      sub\n        /* \"contracts/utils/GrantPrivileges.sol\":4663:4731  if (_timeLimit == 0) {... */\n      tag_108\n      jumpi\n        /* \"contracts/utils/GrantPrivileges.sol\":4705:4720  TimeLimitZero() */\n      mload(0x40)\n      0xe16a8aa400000000000000000000000000000000000000000000000000000000\n      dup2\n      mstore\n      0x04\n      add\n      mload(0x40)\n      dup1\n      swap2\n      sub\n      swap1\n      revert\n        /* \"contracts/utils/GrantPrivileges.sol\":4663:4731  if (_timeLimit == 0) {... */\n    tag_108:\n        /* \"contracts/utils/GrantPrivileges.sol\":4740:4767  OwnerInfo storage ownerInfo */\n      0x00\n        /* \"contracts/utils/GrantPrivileges.sol\":4770:4802  _getOwnerInfoByAddress(newOwner) */\n      tag_109\n        /* \"contracts/utils/GrantPrivileges.sol\":4793:4801  newOwner */\n      dup4\n        /* \"contracts/utils/GrantPrivileges.sol\":4770:4792  _getOwnerInfoByAddress */\n      tag_110\n        /* \"contracts/utils/GrantPrivileges.sol\":4770:4802  _getOwnerInfoByAddress(newOwner) */\n      jump\t// in\n    tag_109:\n        /* \"contracts/utils/GrantPrivileges.sol\":4740:4802  OwnerInfo storage ownerInfo = _getOwnerInfoByAddress(newOwner) */\n      swap1\n      pop\n        /* \"contracts/utils/GrantPrivileges.sol\":4834:4849  block.timestamp */\n      timestamp\n        /* \"contracts/utils/GrantPrivileges.sol\":4812:4821  ownerInfo */\n      dup2\n        /* \"contracts/utils/GrantPrivileges.sol\":4812:4831  ownerInfo.timestamp */\n      0x00\n      add\n        /* \"contracts/utils/GrantPrivileges.sol\":4812:4849  ownerInfo.timestamp = block.timestamp */\n      dup2\n      swap1\n      sstore\n      pop\n        /* \"contracts/utils/GrantPrivileges.sol\":4881:4891  _timeLimit */\n      dup2\n        /* \"contracts/utils/GrantPrivileges.sol\":4859:4868  ownerInfo */\n      dup2\n        /* \"contracts/utils/GrantPrivileges.sol\":4859:4878  ownerInfo.timeLimit */\n      0x01\n      add\n        /* \"contracts/utils/GrantPrivileges.sol\":4859:4891  ownerInfo.timeLimit = _timeLimit */\n      dup2\n      swap1\n      sstore\n      pop\n        /* \"contracts/utils/GrantPrivileges.sol\":4570:4898  {... */\n      pop\n        /* \"contracts/utils/GrantPrivileges.sol\":4498:4898  function addOwner(address newOwner, uint _timeLimit) external onlyAdmin {... */\n      pop\n      pop\n      jump\t// out\n        /* \"contracts/token/ERC20/CustomeERC20.sol\":442:545  function mint(address account, uint256 value) external onlyAdmin {... */\n    tag_49:\n        /* \"contracts/utils/GrantPrivileges.sol\":3253:3271  _getAdminAddress() */\n      tag_112\n        /* \"contracts/utils/GrantPrivileges.sol\":3253:3269  _getAdminAddress */\n      tag_102\n        /* \"contracts/utils/GrantPrivileges.sol\":3253:3271  _getAdminAddress() */\n      jump\t// in\n    tag_112:\n        /* \"contracts/utils/GrantPrivileges.sol\":3239:3271  msg.sender != _getAdminAddress() */\n      0xffffffffffffffffffffffffffffffffffffffff\n      and\n        /* \"contracts/utils/GrantPrivileges.sol\":3239:3249  msg.sender */\n      caller\n        /* \"contracts/utils/GrantPrivileges.sol\":3239:3271  msg.sender != _getAdminAddress() */\n      0xffffffffffffffffffffffffffffffffffffffff\n      and\n      eq\n        /* \"contracts/utils/GrantPrivileges.sol\":3235:3347  if (msg.sender != _getAdminAddress()) {... */\n      tag_113\n      jumpi\n        /* \"contracts/utils/GrantPrivileges.sol\":3294:3336  OnlyAdmin(\"only admin address can access\") */\n      mload(0x40)\n      0x0a2a9e3e00000000000000000000000000000000000000000000000000000000\n      dup2\n      mstore\n      0x04\n      add\n      tag_114\n      swap1\n      tag_105\n      jump\t// in\n    tag_114:\n      mload(0x40)\n      dup1\n      swap2\n      sub\n      swap1\n      revert\n        /* \"contracts/utils/GrantPrivileges.sol\":3235:3347  if (msg.sender != _getAdminAddress()) {... */\n    tag_113:\n        /* \"contracts/token/ERC20/CustomeERC20.sol\":517:538  _mint(account, value) */\n      tag_116\n        /* \"contracts/token/ERC20/CustomeERC20.sol\":523:530  account */\n      dup3\n        /* \"contracts/token/ERC20/CustomeERC20.sol\":532:537  value */\n      dup3\n        /* \"contracts/token/ERC20/CustomeERC20.sol\":517:522  _mint */\n      tag_117\n        /* \"contracts/token/ERC20/CustomeERC20.sol\":517:538  _mint(account, value) */\n      jump\t// in\n    tag_116:\n        /* \"contracts/token/ERC20/CustomeERC20.sol\":442:545  function mint(address account, uint256 value) external onlyAdmin {... */\n      pop\n      pop\n      jump\t// out\n        /* \"@openzeppelin/contracts/token/ERC20/ERC20.sol\":2985:3101  function balanceOf(address account) public view virtual returns (uint256) {... */\n    tag_53:\n        /* \"@openzeppelin/contracts/token/ERC20/ERC20.sol\":3050:3057  uint256 */\n      0x00\n        /* \"@openzeppelin/contracts/token/ERC20/ERC20.sol\":3076:3085  _balances */\n      0x00\n        /* \"@openzeppelin/contracts/token/ERC20/ERC20.sol\":3076:3094  _balances[account] */\n      0x00\n        /* \"@openzeppelin/contracts/token/ERC20/ERC20.sol\":3086:3093  account */\n      dup4\n        /* \"@openzeppelin/contracts/token/ERC20/ERC20.sol\":3076:3094  _balances[account] */\n      0xffffffffffffffffffffffffffffffffffffffff\n      and\n      0xffffffffffffffffffffffffffffffffffffffff\n      and\n      dup2\n      mstore\n      0x20\n      add\n      swap1\n      dup2\n      mstore\n      0x20\n      add\n      0x00\n      keccak256\n      sload\n        /* \"@openzeppelin/contracts/token/ERC20/ERC20.sol\":3069:3094  return _balances[account] */\n      swap1\n      pop\n        /* \"@openzeppelin/contracts/token/ERC20/ERC20.sol\":2985:3101  function balanceOf(address account) public view virtual returns (uint256) {... */\n      swap2\n      swap1\n      pop\n      jump\t// out\n        /* \"contracts/utils/GrantPrivileges.sol\":5956:6140  function changeAdmin(address newAdmin) external onlyAdmin {... */\n    tag_57:\n        /* \"contracts/utils/GrantPrivileges.sol\":3253:3271  _getAdminAddress() */\n      tag_120\n        /* \"contracts/utils/GrantPrivileges.sol\":3253:3269  _getAdminAddress */\n      tag_102\n        /* \"contracts/utils/GrantPrivileges.sol\":3253:3271  _getAdminAddress() */\n      jump\t// in\n    tag_120:\n        /* \"contracts/utils/GrantPrivileges.sol\":3239:3271  msg.sender != _getAdminAddress() */\n      0xffffffffffffffffffffffffffffffffffffffff\n      and\n        /* \"contracts/utils/GrantPrivileges.sol\":3239:3249  msg.sender */\n      caller\n        /* \"contracts/utils/GrantPrivileges.sol\":3239:3271  msg.sender != _getAdminAddress() */\n      0xffffffffffffffffffffffffffffffffffffffff\n      and\n      eq\n        /* \"contracts/utils/GrantPrivileges.sol\":3235:3347  if (msg.sender != _getAdminAddress()) {... */\n      tag_121\n      jumpi\n        /* \"contracts/utils/GrantPrivileges.sol\":3294:3336  OnlyAdmin(\"only admin address can access\") */\n      mload(0x40)\n      0x0a2a9e3e00000000000000000000000000000000000000000000000000000000\n      dup2\n      mstore\n      0x04\n      add\n      tag_122\n      swap1\n      tag_105\n      jump\t// in\n    tag_122:\n      mload(0x40)\n      dup1\n      swap2\n      sub\n      swap1\n      revert\n        /* \"contracts/utils/GrantPrivileges.sol\":3235:3347  if (msg.sender != _getAdminAddress()) {... */\n    tag_121:\n        /* \"contracts/utils/GrantPrivileges.sol\":6048:6049  0 */\n      0x00\n        /* \"contracts/utils/GrantPrivileges.sol\":6028:6050  newAdmin == address(0) */\n      0xffffffffffffffffffffffffffffffffffffffff\n      and\n        /* \"contracts/utils/GrantPrivileges.sol\":6028:6036  newAdmin */\n      dup2\n        /* \"contracts/utils/GrantPrivileges.sol\":6028:6050  newAdmin == address(0) */\n      0xffffffffffffffffffffffffffffffffffffffff\n      and\n      sub\n        /* \"contracts/utils/GrantPrivileges.sol\":6024:6098  if (newAdmin == address(0)) {... */\n      tag_124\n      jumpi\n        /* \"contracts/utils/GrantPrivileges.sol\":6073:6087  AddressEmpty() */\n      mload(0x40)\n      0x5bb7a72300000000000000000000000000000000000000000000000000000000\n      dup2\n      mstore\n      0x04\n      add\n      mload(0x40)\n      dup1\n      swap2\n      sub\n      swap1\n      revert\n        /* \"contracts/utils/GrantPrivileges.sol\":6024:6098  if (newAdmin == address(0)) {... */\n    tag_124:\n        /* \"contracts/utils/GrantPrivileges.sol\":6107:6133  _setAdminAddress(newAdmin) */\n      tag_125\n        /* \"contracts/utils/GrantPrivileges.sol\":6124:6132  newAdmin */\n      dup2\n        /* \"contracts/utils/GrantPrivileges.sol\":6107:6123  _setAdminAddress */\n      tag_126\n        /* \"contracts/utils/GrantPrivileges.sol\":6107:6133  _setAdminAddress(newAdmin) */\n      jump\t// in\n    tag_125:\n        /* \"contracts/utils/GrantPrivileges.sol\":5956:6140  function changeAdmin(address newAdmin) external onlyAdmin {... */\n      pop\n      jump\t// out\n        /* \"contracts/utils/GrantPrivileges.sol\":1125:1203  string public constant GRANTPRIVILEGES_NAMESPACE = \"GrantPrivileges.Namespace\" */\n    tag_59:\n      mload(0x40)\n      dup1\n      0x40\n      add\n      0x40\n      mstore\n      dup1\n      0x19\n      dup2\n      mstore\n      0x20\n      add\n      0x4772616e7450726976696c656765732e4e616d65737061636500000000000000\n      dup2\n      mstore\n      pop\n      dup2\n      jump\t// out\n        /* \"@openzeppelin/contracts/token/ERC20/ERC20.sol\":1962:2055  function symbol() public view virtual returns (string memory) {... */\n    tag_62:\n        /* \"@openzeppelin/contracts/token/ERC20/ERC20.sol\":2009:2022  string memory */\n      0x60\n        /* \"@openzeppelin/contracts/token/ERC20/ERC20.sol\":2041:2048  _symbol */\n      0x04\n        /* \"@openzeppelin/contracts/token/ERC20/ERC20.sol\":2034:2048  return _symbol */\n      dup1\n      sload\n      tag_128\n      swap1\n      tag_82\n      jump\t// in\n    tag_128:\n      dup1\n      0x1f\n      add\n      0x20\n      dup1\n      swap2\n      div\n      mul\n      0x20\n      add\n      mload(0x40)\n      swap1\n      dup2\n      add\n      0x40\n      mstore\n      dup1\n      swap3\n      swap2\n      swap1\n      dup2\n      dup2\n      mstore\n      0x20\n      add\n      dup3\n      dup1\n      sload\n      tag_129\n      swap1\n      tag_82\n      jump\t// in\n    tag_129:\n      dup1\n      iszero\n      tag_130\n      jumpi\n      dup1\n      0x1f\n      lt\n      tag_131\n      jumpi\n      0x0100\n      dup1\n      dup4\n      sload\n      div\n      mul\n      dup4\n      mstore\n      swap2\n      0x20\n      add\n      swap2\n      jump(tag_130)\n    tag_131:\n      dup3\n      add\n      swap2\n      swap1\n      0x00\n      mstore\n      keccak256(0x00, 0x20)\n      swap1\n    tag_132:\n      dup2\n      sload\n      dup2\n      mstore\n      swap1\n      0x01\n      add\n      swap1\n      0x20\n      add\n      dup1\n      dup4\n      gt\n      tag_132\n      jumpi\n      dup3\n      swap1\n      sub\n      0x1f\n      and\n      dup3\n      add\n      swap2\n    tag_130:\n      pop\n      pop\n      pop\n      pop\n      pop\n      swap1\n      pop\n        /* \"@openzeppelin/contracts/token/ERC20/ERC20.sol\":1962:2055  function symbol() public view virtual returns (string memory) {... */\n      swap1\n      jump\t// out\n        /* \"@openzeppelin/contracts/token/ERC20/ERC20.sol\":3296:3474  function transfer(address to, uint256 value) public virtual returns (bool) {... */\n    tag_66:\n        /* \"@openzeppelin/contracts/token/ERC20/ERC20.sol\":3365:3369  bool */\n      0x00\n        /* \"@openzeppelin/contracts/token/ERC20/ERC20.sol\":3381:3394  address owner */\n      0x00\n        /* \"@openzeppelin/contracts/token/ERC20/ERC20.sol\":3397:3409  _msgSender() */\n      tag_134\n        /* \"@openzeppelin/contracts/token/ERC20/ERC20.sol\":3397:3407  _msgSender */\n      tag_89\n        /* \"@openzeppelin/contracts/token/ERC20/ERC20.sol\":3397:3409  _msgSender() */\n      jump\t// in\n    tag_134:\n        /* \"@openzeppelin/contracts/token/ERC20/ERC20.sol\":3381:3409  address owner = _msgSender() */\n      swap1\n      pop\n        /* \"@openzeppelin/contracts/token/ERC20/ERC20.sol\":3419:3446  _transfer(owner, to, value) */\n      tag_135\n        /* \"@openzeppelin/contracts/token/ERC20/ERC20.sol\":3429:3434  owner */\n      dup2\n        /* \"@openzeppelin/contracts/token/ERC20/ERC20.sol\":3436:3438  to */\n      dup6\n        /* \"@openzeppelin/contracts/token/ERC20/ERC20.sol\":3440:3445  value */\n      dup6\n        /* \"@openzeppelin/contracts/token/ERC20/ERC20.sol\":3419:3428  _transfer */\n      tag_98\n        /* \"@openzeppelin/contracts/token/ERC20/ERC20.sol\":3419:3446  _transfer(owner, to, value) */\n      jump\t// in\n    tag_135:\n        /* \"@openzeppelin/contracts/token/ERC20/ERC20.sol\":3463:3467  true */\n      0x01\n        /* \"@openzeppelin/contracts/token/ERC20/ERC20.sol\":3456:3467  return true */\n      swap2\n      pop\n      pop\n        /* \"@openzeppelin/contracts/token/ERC20/ERC20.sol\":3296:3474  function transfer(address to, uint256 value) public virtual returns (bool) {... */\n      swap3\n      swap2\n      pop\n      pop\n      jump\t// out\n        /* \"contracts/utils/GrantPrivileges.sol\":5700:5801  function getAdminAddress() external view returns (address) {... */\n    tag_69:\n        /* \"contracts/utils/GrantPrivileges.sol\":5750:5757  address */\n      0x00\n        /* \"contracts/utils/GrantPrivileges.sol\":5776:5794  _getAdminAddress() */\n      tag_137\n        /* \"contracts/utils/GrantPrivileges.sol\":5776:5792  _getAdminAddress */\n      tag_102\n        /* \"contracts/utils/GrantPrivileges.sol\":5776:5794  _getAdminAddress() */\n      jump\t// in\n    tag_137:\n        /* \"contracts/utils/GrantPrivileges.sol\":5769:5794  return _getAdminAddress() */\n      swap1\n      pop\n        /* \"contracts/utils/GrantPrivileges.sol\":5700:5801  function getAdminAddress() external view returns (address) {... */\n      swap1\n      jump\t// out\n        /* \"@openzeppelin/contracts/token/ERC20/ERC20.sol\":3532:3672  function allowance(address owner, address spender) public view virtual returns (uint256) {... */\n    tag_75:\n        /* \"@openzeppelin/contracts/token/ERC20/ERC20.sol\":3612:3619  uint256 */\n      0x00\n        /* \"@openzeppelin/contracts/token/ERC20/ERC20.sol\":3638:3649  _allowances */\n      0x01\n        /* \"@openzeppelin/contracts/token/ERC20/ERC20.sol\":3638:3656  _allowances[owner] */\n      0x00\n        /* \"@openzeppelin/contracts/token/ERC20/ERC20.sol\":3650:3655  owner */\n      dup5\n        /* \"@openzeppelin/contracts/token/ERC20/ERC20.sol\":3638:3656  _allowances[owner] */\n      0xffffffffffffffffffffffffffffffffffffffff\n      and\n      0xffffffffffffffffffffffffffffffffffffffff\n      and\n      dup2\n      mstore\n      0x20\n      add\n      swap1\n      dup2\n      mstore\n      0x20\n      add\n      0x00\n      keccak256\n        /* \"@openzeppelin/contracts/token/ERC20/ERC20.sol\":3638:3665  _allowances[owner][spender] */\n      0x00\n        /* \"@openzeppelin/contracts/token/ERC20/ERC20.sol\":3657:3664  spender */\n      dup4\n        /* \"@openzeppelin/contracts/token/ERC20/ERC20.sol\":3638:3665  _allowances[owner][spender] */\n      0xffffffffffffffffffffffffffffffffffffffff\n      and\n      0xffffffffffffffffffffffffffffffffffffffff\n      and\n      dup2\n      mstore\n      0x20\n      add\n      swap1\n      dup2\n      mstore\n      0x20\n      add\n      0x00\n      keccak256\n      sload\n        /* \"@openzeppelin/contracts/token/ERC20/ERC20.sol\":3631:3665  return _allowances[owner][spender] */\n      swap1\n      pop\n        /* \"@openzeppelin/contracts/token/ERC20/ERC20.sol\":3532:3672  function allowance(address owner, address spender) public view virtual returns (uint256) {... */\n      swap3\n      swap2\n      pop\n      pop\n      jump\t// out\n        /* \"contracts/utils/GrantPrivileges.sol\":5071:5586  function getRemainingTime() external view onlyOwner returns (uint) {... */\n    tag_78:\n        /* \"contracts/utils/GrantPrivileges.sol\":5132:5136  uint */\n      0x00\n        /* \"contracts/utils/GrantPrivileges.sol\":3513:3531  _getAdminAddress() */\n      tag_140\n        /* \"contracts/utils/GrantPrivileges.sol\":3513:3529  _getAdminAddress */\n      tag_102\n        /* \"contracts/utils/GrantPrivileges.sol\":3513:3531  _getAdminAddress() */\n      jump\t// in\n    tag_140:\n        /* \"contracts/utils/GrantPrivileges.sol\":3499:3531  msg.sender != _getAdminAddress() */\n      0xffffffffffffffffffffffffffffffffffffffff\n      and\n        /* \"contracts/utils/GrantPrivileges.sol\":3499:3509  msg.sender */\n      caller\n        /* \"contracts/utils/GrantPrivileges.sol\":3499:3531  msg.sender != _getAdminAddress() */\n      0xffffffffffffffffffffffffffffffffffffffff\n      and\n      eq\n      iszero\n        /* \"contracts/utils/GrantPrivileges.sol\":3499:3559  msg.sender != _getAdminAddress() && !_legalOwner(msg.sender) */\n      dup1\n      iszero\n      tag_141\n      jumpi\n      pop\n        /* \"contracts/utils/GrantPrivileges.sol\":3536:3559  _legalOwner(msg.sender) */\n      tag_142\n        /* \"contracts/utils/GrantPrivileges.sol\":3548:3558  msg.sender */\n      caller\n        /* \"contracts/utils/GrantPrivileges.sol\":3536:3547  _legalOwner */\n      tag_143\n        /* \"contracts/utils/GrantPrivileges.sol\":3536:3559  _legalOwner(msg.sender) */\n      jump\t// in\n    tag_142:\n        /* \"contracts/utils/GrantPrivileges.sol\":3535:3559  !_legalOwner(msg.sender) */\n      iszero\n        /* \"contracts/utils/GrantPrivileges.sol\":3499:3559  msg.sender != _getAdminAddress() && !_legalOwner(msg.sender) */\n    tag_141:\n        /* \"contracts/utils/GrantPrivileges.sol\":3495:3646  if (msg.sender != _getAdminAddress() && !_legalOwner(msg.sender)) {... */\n      iszero\n      tag_144\n      jumpi\n        /* \"contracts/utils/GrantPrivileges.sol\":3582:3635  OnlyLegalOwner(\"only legal owner address can access\") */\n      mload(0x40)\n      0x5e9b54e100000000000000000000000000000000000000000000000000000000\n      dup2\n      mstore\n      0x04\n      add\n      tag_145\n      swap1\n      tag_146\n      jump\t// in\n    tag_145:\n      mload(0x40)\n      dup1\n      swap2\n      sub\n      swap1\n      revert\n        /* \"contracts/utils/GrantPrivileges.sol\":3495:3646  if (msg.sender != _getAdminAddress() && !_legalOwner(msg.sender)) {... */\n    tag_144:\n        /* \"contracts/utils/GrantPrivileges.sol\":5148:5175  OwnerInfo storage ownerInfo */\n      0x00\n        /* \"contracts/utils/GrantPrivileges.sol\":5178:5212  _getOwnerInfoByAddress(msg.sender) */\n      tag_148\n        /* \"contracts/utils/GrantPrivileges.sol\":5201:5211  msg.sender */\n      caller\n        /* \"contracts/utils/GrantPrivileges.sol\":5178:5200  _getOwnerInfoByAddress */\n      tag_110\n        /* \"contracts/utils/GrantPrivileges.sol\":5178:5212  _getOwnerInfoByAddress(msg.sender) */\n      jump\t// in\n    tag_148:\n        /* \"contracts/utils/GrantPrivileges.sol\":5148:5212  OwnerInfo storage ownerInfo = _getOwnerInfoByAddress(msg.sender) */\n      swap1\n      pop\n        /* \"contracts/utils/GrantPrivileges.sol\":5222:5236  uint timestamp */\n      0x00\n        /* \"contracts/utils/GrantPrivileges.sol\":5239:5248  ownerInfo */\n      dup2\n        /* \"contracts/utils/GrantPrivileges.sol\":5239:5258  ownerInfo.timestamp */\n      0x00\n      add\n      sload\n        /* \"contracts/utils/GrantPrivileges.sol\":5222:5258  uint timestamp = ownerInfo.timestamp */\n      swap1\n      pop\n        /* \"contracts/utils/GrantPrivileges.sol\":5268:5282  uint timeLimit */\n      0x00\n        /* \"contracts/utils/GrantPrivileges.sol\":5285:5294  ownerInfo */\n      dup3\n        /* \"contracts/utils/GrantPrivileges.sol\":5285:5304  ownerInfo.timeLimit */\n      0x01\n      add\n      sload\n        /* \"contracts/utils/GrantPrivileges.sol\":5268:5304  uint timeLimit = ownerInfo.timeLimit */\n      swap1\n      pop\n        /* \"contracts/utils/GrantPrivileges.sol\":5332:5333  0 */\n      0x00\n        /* \"contracts/utils/GrantPrivileges.sol\":5319:5328  timestamp */\n      dup3\n        /* \"contracts/utils/GrantPrivileges.sol\":5319:5333  timestamp == 0 */\n      eq\n        /* \"contracts/utils/GrantPrivileges.sol\":5319:5351  timestamp == 0 || timeLimit == 0 */\n      dup1\n      tag_149\n      jumpi\n      pop\n        /* \"contracts/utils/GrantPrivileges.sol\":5350:5351  0 */\n      0x00\n        /* \"contracts/utils/GrantPrivileges.sol\":5337:5346  timeLimit */\n      dup2\n        /* \"contracts/utils/GrantPrivileges.sol\":5337:5351  timeLimit == 0 */\n      eq\n        /* \"contracts/utils/GrantPrivileges.sol\":5319:5351  timestamp == 0 || timeLimit == 0 */\n    tag_149:\n        /* \"contracts/utils/GrantPrivileges.sol\":5315:5406  if (timestamp == 0 || timeLimit == 0) {... */\n      iszero\n      tag_150\n      jumpi\n        /* \"contracts/utils/GrantPrivileges.sol\":5374:5375  0 */\n      0x00\n        /* \"contracts/utils/GrantPrivileges.sol\":5367:5375  return 0 */\n      swap4\n      pop\n      pop\n      pop\n      pop\n      jump(tag_147)\n        /* \"contracts/utils/GrantPrivileges.sol\":5315:5406  if (timestamp == 0 || timeLimit == 0) {... */\n    tag_150:\n        /* \"contracts/utils/GrantPrivileges.sol\":5446:5461  block.timestamp */\n      timestamp\n        /* \"contracts/utils/GrantPrivileges.sol\":5433:5442  timeLimit */\n      dup2\n        /* \"contracts/utils/GrantPrivileges.sol\":5421:5430  timestamp */\n      dup4\n        /* \"contracts/utils/GrantPrivileges.sol\":5421:5442  timestamp + timeLimit */\n      tag_151\n      swap2\n      swap1\n      tag_152\n      jump\t// in\n    tag_151:\n        /* \"contracts/utils/GrantPrivileges.sol\":5420:5461  (timestamp + timeLimit) < block.timestamp */\n      lt\n        /* \"contracts/utils/GrantPrivileges.sol\":5416:5521  if ((timestamp + timeLimit) < block.timestamp) {... */\n      iszero\n      tag_153\n      jumpi\n        /* \"contracts/utils/GrantPrivileges.sol\":5484:5485  0 */\n      0x00\n        /* \"contracts/utils/GrantPrivileges.sol\":5477:5485  return 0 */\n      swap4\n      pop\n      pop\n      pop\n      pop\n      jump(tag_147)\n        /* \"contracts/utils/GrantPrivileges.sol\":5416:5521  if ((timestamp + timeLimit) < block.timestamp) {... */\n    tag_153:\n        /* \"contracts/utils/GrantPrivileges.sol\":5564:5579  block.timestamp */\n      timestamp\n        /* \"contracts/utils/GrantPrivileges.sol\":5551:5560  timeLimit */\n      dup2\n        /* \"contracts/utils/GrantPrivileges.sol\":5539:5548  timestamp */\n      dup4\n        /* \"contracts/utils/GrantPrivileges.sol\":5539:5560  timestamp + timeLimit */\n      tag_154\n      swap2\n      swap1\n      tag_152\n      jump\t// in\n    tag_154:\n        /* \"contracts/utils/GrantPrivileges.sol\":5538:5579  (timestamp + timeLimit) - block.timestamp */\n      tag_155\n      swap2\n      swap1\n      tag_156\n      jump\t// in\n    tag_155:\n        /* \"contracts/utils/GrantPrivileges.sol\":5531:5579  return (timestamp + timeLimit) - block.timestamp */\n      swap4\n      pop\n      pop\n      pop\n      pop\n        /* \"contracts/utils/GrantPrivileges.sol\":3655:3656  _ */\n    tag_147:\n        /* \"contracts/utils/GrantPrivileges.sol\":5071:5586  function getRemainingTime() external view onlyOwner returns (uint) {... */\n      swap1\n      jump\t// out\n        /* \"@openzeppelin/contracts/utils/Context.sol\":656:752  function _msgSender() internal view virtual returns (address) {... */\n    tag_89:\n        /* \"@openzeppelin/contracts/utils/Context.sol\":709:716  address */\n      0x00\n        /* \"@openzeppelin/contracts/utils/Context.sol\":735:745  msg.sender */\n      caller\n        /* \"@openzeppelin/contracts/utils/Context.sol\":728:745  return msg.sender */\n      swap1\n      pop\n        /* \"@openzeppelin/contracts/utils/Context.sol\":656:752  function _msgSender() internal view virtual returns (address) {... */\n      swap1\n      jump\t// out\n        /* \"@openzeppelin/contracts/token/ERC20/ERC20.sol\":8707:8835  function _approve(address owner, address spender, uint256 value) internal {... */\n    tag_91:\n        /* \"@openzeppelin/contracts/token/ERC20/ERC20.sol\":8791:8828  _approve(owner, spender, value, true) */\n      tag_159\n        /* \"@openzeppelin/contracts/token/ERC20/ERC20.sol\":8800:8805  owner */\n      dup4\n        /* \"@openzeppelin/contracts/token/ERC20/ERC20.sol\":8807:8814  spender */\n      dup4\n        /* \"@openzeppelin/contracts/token/ERC20/ERC20.sol\":8816:8821  value */\n      dup4\n        /* \"@openzeppelin/contracts/token/ERC20/ERC20.sol\":8823:8827  true */\n      0x01\n        /* \"@openzeppelin/contracts/token/ERC20/ERC20.sol\":8791:8799  _approve */\n      tag_160\n        /* \"@openzeppelin/contracts/token/ERC20/ERC20.sol\":8791:8828  _approve(owner, spender, value, true) */\n      jump\t// in\n    tag_159:\n        /* \"@openzeppelin/contracts/token/ERC20/ERC20.sol\":8707:8835  function _approve(address owner, address spender, uint256 value) internal {... */\n      pop\n      pop\n      pop\n      jump\t// out\n        /* \"@openzeppelin/contracts/token/ERC20/ERC20.sol\":10396:10872  function _spendAllowance(address owner, address spender, uint256 value) internal virtual {... */\n    tag_96:\n        /* \"@openzeppelin/contracts/token/ERC20/ERC20.sol\":10495:10519  uint256 currentAllowance */\n      0x00\n        /* \"@openzeppelin/contracts/token/ERC20/ERC20.sol\":10522:10547  allowance(owner, spender) */\n      tag_162\n        /* \"@openzeppelin/contracts/token/ERC20/ERC20.sol\":10532:10537  owner */\n      dup5\n        /* \"@openzeppelin/contracts/token/ERC20/ERC20.sol\":10539:10546  spender */\n      dup5\n        /* \"@openzeppelin/contracts/token/ERC20/ERC20.sol\":10522:10531  allowance */\n      tag_75\n        /* \"@openzeppelin/contracts/token/ERC20/ERC20.sol\":10522:10547  allowance(owner, spender) */\n      jump\t// in\n    tag_162:\n        /* \"@openzeppelin/contracts/token/ERC20/ERC20.sol\":10495:10547  uint256 currentAllowance = allowance(owner, spender) */\n      swap1\n      pop\n        /* \"@openzeppelin/contracts/token/ERC20/ERC20.sol\":10580:10597  type(uint256).max */\n      0xffffffffffffffffffffffffffffffffffffffffffffffffffffffffffffffff\n        /* \"@openzeppelin/contracts/token/ERC20/ERC20.sol\":10561:10577  currentAllowance */\n      dup2\n        /* \"@openzeppelin/contracts/token/ERC20/ERC20.sol\":10561:10597  currentAllowance < type(uint256).max */\n      lt\n        /* \"@openzeppelin/contracts/token/ERC20/ERC20.sol\":10557:10866  if (currentAllowance < type(uint256).max) {... */\n      iszero\n      tag_163\n      jumpi\n        /* \"@openzeppelin/contracts/token/ERC20/ERC20.sol\":10636:10641  value */\n      dup2\n        /* \"@openzeppelin/contracts/token/ERC20/ERC20.sol\":10617:10633  currentAllowance */\n      dup2\n        /* \"@openzeppelin/contracts/token/ERC20/ERC20.sol\":10617:10641  currentAllowance < value */\n      lt\n        /* \"@openzeppelin/contracts/token/ERC20/ERC20.sol\":10613:10743  if (currentAllowance < value) {... */\n      iszero\n      tag_164\n      jumpi\n        /* \"@openzeppelin/contracts/token/ERC20/ERC20.sol\":10695:10702  spender */\n      dup3\n        /* \"@openzeppelin/contracts/token/ERC20/ERC20.sol\":10704:10720  currentAllowance */\n      dup2\n        /* \"@openzeppelin/contracts/token/ERC20/ERC20.sol\":10722:10727  value */\n      dup4\n        /* \"@openzeppelin/contracts/token/ERC20/ERC20.sol\":10668:10728  ERC20InsufficientAllowance(spender, currentAllowance, value) */\n      mload(0x40)\n      0xfb8f41b200000000000000000000000000000000000000000000000000000000\n      dup2\n      mstore\n      0x04\n      add\n      tag_165\n      swap4\n      swap3\n      swap2\n      swap1\n      tag_166\n      jump\t// in\n    tag_165:\n      mload(0x40)\n      dup1\n      swap2\n      sub\n      swap1\n      revert\n        /* \"@openzeppelin/contracts/token/ERC20/ERC20.sol\":10613:10743  if (currentAllowance < value) {... */\n    tag_164:\n        /* \"@openzeppelin/contracts/token/ERC20/ERC20.sol\":10784:10841  _approve(owner, spender, currentAllowance - value, false) */\n      tag_167\n        /* \"@openzeppelin/contracts/token/ERC20/ERC20.sol\":10793:10798  owner */\n      dup5\n        /* \"@openzeppelin/contracts/token/ERC20/ERC20.sol\":10800:10807  spender */\n      dup5\n        /* \"@openzeppelin/contracts/token/ERC20/ERC20.sol\":10828:10833  value */\n      dup5\n        /* \"@openzeppelin/contracts/token/ERC20/ERC20.sol\":10809:10825  currentAllowance */\n      dup5\n        /* \"@openzeppelin/contracts/token/ERC20/ERC20.sol\":10809:10833  currentAllowance - value */\n      sub\n        /* \"@openzeppelin/contracts/token/ERC20/ERC20.sol\":10835:10840  false */\n      0x00\n        /* \"@openzeppelin/contracts/token/ERC20/ERC20.sol\":10784:10792  _approve */\n      tag_160\n        /* \"@openzeppelin/contracts/token/ERC20/ERC20.sol\":10784:10841  _approve(owner, spender, currentAllowance - value, false) */\n      jump\t// in\n    tag_167:\n        /* \"@openzeppelin/contracts/token/ERC20/ERC20.sol\":10557:10866  if (currentAllowance < type(uint256).max) {... */\n    tag_163:\n        /* \"@openzeppelin/contracts/token/ERC20/ERC20.sol\":10485:10872  {... */\n      pop\n        /* \"@openzeppelin/contracts/token/ERC20/ERC20.sol\":10396:10872  function _spendAllowance(address owner, address spender, uint256 value) internal virtual {... */\n      pop\n      pop\n      pop\n      jump\t// out\n        /* \"@openzeppelin/contracts/token/ERC20/ERC20.sol\":5374:5674  function _transfer(address from, address to, uint256 value) internal {... */\n    tag_98:\n        /* \"@openzeppelin/contracts/token/ERC20/ERC20.sol\":5473:5474  0 */\n      0x00\n        /* \"@openzeppelin/contracts/token/ERC20/ERC20.sol\":5457:5475  from == address(0) */\n      0xffffffffffffffffffffffffffffffffffffffff\n      and\n        /* \"@openzeppelin/contracts/token/ERC20/ERC20.sol\":5457:5461  from */\n      dup4\n        /* \"@openzeppelin/contracts/token/ERC20/ERC20.sol\":5457:5475  from == address(0) */\n      0xffffffffffffffffffffffffffffffffffffffff\n      and\n      sub\n        /* \"@openzeppelin/contracts/token/ERC20/ERC20.sol\":5453:5539  if (from == address(0)) {... */\n      tag_169\n      jumpi\n        /* \"@openzeppelin/contracts/token/ERC20/ERC20.sol\":5525:5526  0 */\n      0x00\n        /* \"@openzeppelin/contracts/token/ERC20/ERC20.sol\":5498:5528  ERC20InvalidSender(address(0)) */\n      mload(0x40)\n      0x96c6fd1e00000000000000000000000000000000000000000000000000000000\n      dup2\n      mstore\n      0x04\n      add\n      tag_170\n      swap2\n      swap1\n      tag_71\n      jump\t// in\n    tag_170:\n      mload(0x40)\n      dup1\n      swap2\n      sub\n      swap1\n      revert\n        /* \"@openzeppelin/contracts/token/ERC20/ERC20.sol\":5453:5539  if (from == address(0)) {... */\n    tag_169:\n        /* \"@openzeppelin/contracts/token/ERC20/ERC20.sol\":5566:5567  0 */\n      0x00\n        /* \"@openzeppelin/contracts/token/ERC20/ERC20.sol\":5552:5568  to == address(0) */\n      0xffffffffffffffffffffffffffffffffffffffff\n      and\n        /* \"@openzeppelin/contracts/token/ERC20/ERC20.sol\":5552:5554  to */\n      dup3\n        /* \"@openzeppelin/contracts/token/ERC20/ERC20.sol\":5552:5568  to == address(0) */\n      0xffffffffffffffffffffffffffffffffffffffff\n      and\n      sub\n        /* \"@openzeppelin/contracts/token/ERC20/ERC20.sol\":5548:5634  if (to == address(0)) {... */\n      tag_171\n      jumpi\n        /* \"@openzeppelin/contracts/token/ERC20/ERC20.sol\":5620:5621  0 */\n      0x00\n        /* \"@openzeppelin/contracts/token/ERC20/ERC20.sol\":5591:5623  ERC20InvalidReceiver(address(0)) */\n      mload(0x40)\n      0xec442f0500000000000000000000000000000000000000000000000000000000\n      dup2\n      mstore\n      0x04\n      add\n      tag_172\n      swap2\n      swap1\n      tag_71\n      jump\t// in\n    tag_172:\n      mload(0x40)\n      dup1\n      swap2\n      sub\n      swap1\n      revert\n        /* \"@openzeppelin/contracts/token/ERC20/ERC20.sol\":5548:5634  if (to == address(0)) {... */\n    tag_171:\n        /* \"@openzeppelin/contracts/token/ERC20/ERC20.sol\":5643:5667  _update(from, to, value) */\n      tag_173\n        /* \"@openzeppelin/contracts/token/ERC20/ERC20.sol\":5651:5655  from */\n      dup4\n        /* \"@openzeppelin/contracts/token/ERC20/ERC20.sol\":5657:5659  to */\n      dup4\n        /* \"@openzeppelin/contracts/token/ERC20/ERC20.sol\":5661:5666  value */\n      dup4\n        /* \"@openzeppelin/contracts/token/ERC20/ERC20.sol\":5643:5650  _update */\n      tag_174\n        /* \"@openzeppelin/contracts/token/ERC20/ERC20.sol\":5643:5667  _update(from, to, value) */\n      jump\t// in\n    tag_173:\n        /* \"@openzeppelin/contracts/token/ERC20/ERC20.sol\":5374:5674  function _transfer(address from, address to, uint256 value) internal {... */\n      pop\n      pop\n      pop\n      jump\t// out\n        /* \"contracts/utils/GrantPrivileges.sol\":1599:1732  function _getAdminAddress() private view returns (address) {... */\n    tag_102:\n        /* \"contracts/utils/GrantPrivileges.sol\":1649:1656  address */\n      0x00\n        /* \"contracts/utils/GrantPrivileges.sol\":1675:1719  ADMIN_ADDRESS.erc7201Slot().getAddressSlot() */\n      tag_176\n        /* \"contracts/utils/GrantPrivileges.sol\":1675:1702  ADMIN_ADDRESS.erc7201Slot() */\n      tag_177\n        /* \"contracts/utils/GrantPrivileges.sol\":1675:1688  ADMIN_ADDRESS */\n      mload(0x40)\n      dup1\n      0x40\n      add\n      0x40\n      mstore\n      dup1\n      0x1c\n      dup2\n      mstore\n      0x20\n      add\n      0x4772616e7450726976696c656765732e61646d696e4164647265737300000000\n      dup2\n      mstore\n      pop\n        /* \"contracts/utils/GrantPrivileges.sol\":1675:1700  ADMIN_ADDRESS.erc7201Slot */\n      tag_178\n        /* \"contracts/utils/GrantPrivileges.sol\":1675:1702  ADMIN_ADDRESS.erc7201Slot() */\n      jump\t// in\n    tag_177:\n        /* \"contracts/utils/GrantPrivileges.sol\":1675:1717  ADMIN_ADDRESS.erc7201Slot().getAddressSlot */\n      tag_179\n        /* \"contracts/utils/GrantPrivileges.sol\":1675:1719  ADMIN_ADDRESS.erc7201Slot().getAddressSlot() */\n      jump\t// in\n    tag_176:\n        /* \"contracts/utils/GrantPrivileges.sol\":1675:1725  ADMIN_ADDRESS.erc7201Slot().getAddressSlot().value */\n      0x00\n      add\n      0x00\n      swap1\n      sload\n      swap1\n      0x0100\n      exp\n      swap1\n      div\n      0xffffffffffffffffffffffffffffffffffffffff\n      and\n        /* \"contracts/utils/GrantPrivileges.sol\":1668:1725  return ADMIN_ADDRESS.erc7201Slot().getAddressSlot().value */\n      swap1\n      pop\n        /* \"contracts/utils/GrantPrivileges.sol\":1599:1732  function _getAdminAddress() private view returns (address) {... */\n      swap1\n      jump\t// out\n        /* \"contracts/utils/GrantPrivileges.sol\":2688:2934  function _getOwnerInfoByAddress(address _address) private pure returns (OwnerInfo storage r) {... */\n    tag_110:\n        /* \"contracts/utils/GrantPrivileges.sol\":2760:2779  OwnerInfo storage r */\n      0x00\n        /* \"contracts/utils/GrantPrivileges.sol\":2791:2812  bytes32 ownerInfoSlot */\n      0x00\n        /* \"contracts/utils/GrantPrivileges.sol\":2815:2878  GRANTPRIVILEGES_NAMESPACE.erc7201Slot().deriveMapping(_address) */\n      tag_181\n        /* \"contracts/utils/GrantPrivileges.sol\":2869:2877  _address */\n      dup4\n        /* \"contracts/utils/GrantPrivileges.sol\":2815:2854  GRANTPRIVILEGES_NAMESPACE.erc7201Slot() */\n      tag_182\n        /* \"contracts/utils/GrantPrivileges.sol\":2815:2840  GRANTPRIVILEGES_NAMESPACE */\n      mload(0x40)\n      dup1\n      0x40\n      add\n      0x40\n      mstore\n      dup1\n      0x19\n      dup2\n      mstore\n      0x20\n      add\n      0x4772616e7450726976696c656765732e4e616d65737061636500000000000000\n      dup2\n      mstore\n      pop\n        /* \"contracts/utils/GrantPrivileges.sol\":2815:2852  GRANTPRIVILEGES_NAMESPACE.erc7201Slot */\n      tag_178\n        /* \"contracts/utils/GrantPrivileges.sol\":2815:2854  GRANTPRIVILEGES_NAMESPACE.erc7201Slot() */\n      jump\t// in\n    tag_182:\n        /* \"contracts/utils/GrantPrivileges.sol\":2815:2868  GRANTPRIVILEGES_NAMESPACE.erc7201Slot().deriveMapping */\n      tag_183\n      swap1\n        /* \"contracts/utils/GrantPrivileges.sol\":2815:2878  GRANTPRIVILEGES_NAMESPACE.erc7201Slot().deriveMapping(_address) */\n      swap2\n      swap1\n      0xffffffff\n      and\n      jump\t// in\n    tag_181:\n        /* \"contracts/utils/GrantPrivileges.sol\":2791:2878  bytes32 ownerInfoSlot = GRANTPRIVILEGES_NAMESPACE.erc7201Slot().deriveMapping(_address) */\n      swap1\n      pop\n        /* \"contracts/utils/GrantPrivileges.sol\":2895:2927  _getOwnerInfoSlot(ownerInfoSlot) */\n      tag_184\n        /* \"contracts/utils/GrantPrivileges.sol\":2913:2926  ownerInfoSlot */\n      dup2\n        /* \"contracts/utils/GrantPrivileges.sol\":2895:2912  _getOwnerInfoSlot */\n      tag_185\n        /* \"contracts/utils/GrantPrivileges.sol\":2895:2927  _getOwnerInfoSlot(ownerInfoSlot) */\n      jump\t// in\n    tag_184:\n        /* \"contracts/utils/GrantPrivileges.sol\":2888:2927  return _getOwnerInfoSlot(ownerInfoSlot) */\n      swap2\n      pop\n      pop\n        /* \"contracts/utils/GrantPrivileges.sol\":2688:2934  function _getOwnerInfoByAddress(address _address) private pure returns (OwnerInfo storage r) {... */\n      swap2\n      swap1\n      pop\n      jump\t// out\n        /* \"@openzeppelin/contracts/token/ERC20/ERC20.sol\":7439:7647  function _mint(address account, uint256 value) internal {... */\n    tag_117:\n        /* \"@openzeppelin/contracts/token/ERC20/ERC20.sol\":7528:7529  0 */\n      0x00\n        /* \"@openzeppelin/contracts/token/ERC20/ERC20.sol\":7509:7530  account == address(0) */\n      0xffffffffffffffffffffffffffffffffffffffff\n      and\n        /* \"@openzeppelin/contracts/token/ERC20/ERC20.sol\":7509:7516  account */\n      dup3\n        /* \"@openzeppelin/contracts/token/ERC20/ERC20.sol\":7509:7530  account == address(0) */\n      0xffffffffffffffffffffffffffffffffffffffff\n      and\n      sub\n        /* \"@openzeppelin/contracts/token/ERC20/ERC20.sol\":7505:7596  if (account == address(0)) {... */\n      tag_187\n      jumpi\n        /* \"@openzeppelin/contracts/token/ERC20/ERC20.sol\":7582:7583  0 */\n      0x00\n        /* \"@openzeppelin/contracts/token/ERC20/ERC20.sol\":7553:7585  ERC20InvalidReceiver(address(0)) */\n      mload(0x40)\n      0xec442f0500000000000000000000000000000000000000000000000000000000\n      dup2\n      mstore\n      0x04\n      add\n      tag_188\n      swap2\n      swap1\n      tag_71\n      jump\t// in\n    tag_188:\n      mload(0x40)\n      dup1\n      swap2\n      sub\n      swap1\n      revert\n        /* \"@openzeppelin/contracts/token/ERC20/ERC20.sol\":7505:7596  if (account == address(0)) {... */\n    tag_187:\n        /* \"@openzeppelin/contracts/token/ERC20/ERC20.sol\":7605:7640  _update(address(0), account, value) */\n      tag_189\n        /* \"@openzeppelin/contracts/token/ERC20/ERC20.sol\":7621:7622  0 */\n      0x00\n        /* \"@openzeppelin/contracts/token/ERC20/ERC20.sol\":7625:7632  account */\n      dup4\n        /* \"@openzeppelin/contracts/token/ERC20/ERC20.sol\":7634:7639  value */\n      dup4\n        /* \"@openzeppelin/contracts/token/ERC20/ERC20.sol\":7605:7612  _update */\n      tag_174\n        /* \"@openzeppelin/contracts/token/ERC20/ERC20.sol\":7605:7640  _update(address(0), account, value) */\n      jump\t// in\n    tag_189:\n        /* \"@openzeppelin/contracts/token/ERC20/ERC20.sol\":7439:7647  function _mint(address account, uint256 value) internal {... */\n      pop\n      pop\n      jump\t// out\n        /* \"contracts/utils/GrantPrivileges.sol\":1857:1993  function _setAdminAddress(address _newAddress) private {... */\n    tag_126:\n        /* \"contracts/utils/GrantPrivileges.sol\":1975:1986  _newAddress */\n      dup1\n        /* \"contracts/utils/GrantPrivileges.sol\":1922:1966  ADMIN_ADDRESS.erc7201Slot().getAddressSlot() */\n      tag_191\n        /* \"contracts/utils/GrantPrivileges.sol\":1922:1949  ADMIN_ADDRESS.erc7201Slot() */\n      tag_192\n        /* \"contracts/utils/GrantPrivileges.sol\":1922:1935  ADMIN_ADDRESS */\n      mload(0x40)\n      dup1\n      0x40\n      add\n      0x40\n      mstore\n      dup1\n      0x1c\n      dup2\n      mstore\n      0x20\n      add\n      0x4772616e7450726976696c656765732e61646d696e4164647265737300000000\n      dup2\n      mstore\n      pop\n        /* \"contracts/utils/GrantPrivileges.sol\":1922:1947  ADMIN_ADDRESS.erc7201Slot */\n      tag_178\n        /* \"contracts/utils/GrantPrivileges.sol\":1922:1949  ADMIN_ADDRESS.erc7201Slot() */\n      jump\t// in\n    tag_192:\n        /* \"contracts/utils/GrantPrivileges.sol\":1922:1964  ADMIN_ADDRESS.erc7201Slot().getAddressSlot */\n      tag_179\n        /* \"contracts/utils/GrantPrivileges.sol\":1922:1966  ADMIN_ADDRESS.erc7201Slot().getAddressSlot() */\n      jump\t// in\n    tag_191:\n        /* \"contracts/utils/GrantPrivileges.sol\":1922:1972  ADMIN_ADDRESS.erc7201Slot().getAddressSlot().value */\n      0x00\n      add\n      0x00\n        /* \"contracts/utils/GrantPrivileges.sol\":1922:1986  ADMIN_ADDRESS.erc7201Slot().getAddressSlot().value = _newAddress */\n      0x0100\n      exp\n      dup2\n      sload\n      dup2\n      0xffffffffffffffffffffffffffffffffffffffff\n      mul\n      not\n      and\n      swap1\n      dup4\n      0xffffffffffffffffffffffffffffffffffffffff\n      and\n      mul\n      or\n      swap1\n      sstore\n      pop\n        /* \"contracts/utils/GrantPrivileges.sol\":1857:1993  function _setAdminAddress(address _newAddress) private {... */\n      pop\n      jump\t// out\n        /* \"contracts/utils/GrantPrivileges.sol\":3802:4314  function _legalOwner(address senderAddress) private view returns (bool) {... */\n    tag_143:\n        /* \"contracts/utils/GrantPrivileges.sol\":3868:3872  bool */\n      0x00\n        /* \"contracts/utils/GrantPrivileges.sol\":3884:3911  OwnerInfo storage ownerInfo */\n      0x00\n        /* \"contracts/utils/GrantPrivileges.sol\":3914:3951  _getOwnerInfoByAddress(senderAddress) */\n      tag_194\n        /* \"contracts/utils/GrantPrivileges.sol\":3937:3950  senderAddress */\n      dup4\n        /* \"contracts/utils/GrantPrivileges.sol\":3914:3936  _getOwnerInfoByAddress */\n      tag_110\n        /* \"contracts/utils/GrantPrivileges.sol\":3914:3951  _getOwnerInfoByAddress(senderAddress) */\n      jump\t// in\n    tag_194:\n        /* \"contracts/utils/GrantPrivileges.sol\":3884:3951  OwnerInfo storage ownerInfo = _getOwnerInfoByAddress(senderAddress) */\n      swap1\n      pop\n        /* \"contracts/utils/GrantPrivileges.sol\":3961:3975  uint timestamp */\n      0x00\n        /* \"contracts/utils/GrantPrivileges.sol\":3978:3987  ownerInfo */\n      dup2\n        /* \"contracts/utils/GrantPrivileges.sol\":3978:3997  ownerInfo.timestamp */\n      0x00\n      add\n      sload\n        /* \"contracts/utils/GrantPrivileges.sol\":3961:3997  uint timestamp = ownerInfo.timestamp */\n      swap1\n      pop\n        /* \"contracts/utils/GrantPrivileges.sol\":4007:4021  uint timeLimit */\n      0x00\n        /* \"contracts/utils/GrantPrivileges.sol\":4024:4033  ownerInfo */\n      dup3\n        /* \"contracts/utils/GrantPrivileges.sol\":4024:4043  ownerInfo.timeLimit */\n      0x01\n      add\n      sload\n        /* \"contracts/utils/GrantPrivileges.sol\":4007:4043  uint timeLimit = ownerInfo.timeLimit */\n      swap1\n      pop\n        /* \"contracts/utils/GrantPrivileges.sol\":4071:4072  0 */\n      0x00\n        /* \"contracts/utils/GrantPrivileges.sol\":4058:4067  timestamp */\n      dup3\n        /* \"contracts/utils/GrantPrivileges.sol\":4058:4072  timestamp == 0 */\n      eq\n        /* \"contracts/utils/GrantPrivileges.sol\":4058:4090  timestamp == 0 || timeLimit == 0 */\n      dup1\n      tag_195\n      jumpi\n      pop\n        /* \"contracts/utils/GrantPrivileges.sol\":4089:4090  0 */\n      0x00\n        /* \"contracts/utils/GrantPrivileges.sol\":4076:4085  timeLimit */\n      dup2\n        /* \"contracts/utils/GrantPrivileges.sol\":4076:4090  timeLimit == 0 */\n      eq\n        /* \"contracts/utils/GrantPrivileges.sol\":4058:4090  timestamp == 0 || timeLimit == 0 */\n    tag_195:\n        /* \"contracts/utils/GrantPrivileges.sol\":4054:4147  if (timestamp == 0 || timeLimit == 0) {... */\n      iszero\n      tag_196\n      jumpi\n        /* \"contracts/utils/GrantPrivileges.sol\":4113:4118  false */\n      0x00\n        /* \"contracts/utils/GrantPrivileges.sol\":4106:4118  return false */\n      swap4\n      pop\n      pop\n      pop\n      pop\n      jump(tag_193)\n        /* \"contracts/utils/GrantPrivileges.sol\":4054:4147  if (timestamp == 0 || timeLimit == 0) {... */\n    tag_196:\n        /* \"contracts/utils/GrantPrivileges.sol\":4238:4247  timeLimit */\n      dup1\n        /* \"contracts/utils/GrantPrivileges.sol\":4226:4235  timestamp */\n      dup3\n        /* \"contracts/utils/GrantPrivileges.sol\":4226:4247  timestamp + timeLimit */\n      tag_197\n      swap2\n      swap1\n      tag_152\n      jump\t// in\n    tag_197:\n        /* \"contracts/utils/GrantPrivileges.sol\":4207:4222  block.timestamp */\n      timestamp\n        /* \"contracts/utils/GrantPrivileges.sol\":4207:4248  block.timestamp > (timestamp + timeLimit) */\n      gt\n        /* \"contracts/utils/GrantPrivileges.sol\":4203:4287  if (block.timestamp > (timestamp + timeLimit)) {... */\n      iszero\n      tag_198\n      jumpi\n        /* \"contracts/utils/GrantPrivileges.sol\":4271:4276  false */\n      0x00\n        /* \"contracts/utils/GrantPrivileges.sol\":4264:4276  return false */\n      swap4\n      pop\n      pop\n      pop\n      pop\n      jump(tag_193)\n        /* \"contracts/utils/GrantPrivileges.sol\":4203:4287  if (block.timestamp > (timestamp + timeLimit)) {... */\n    tag_198:\n        /* \"contracts/utils/GrantPrivileges.sol\":4303:4307  true */\n      0x01\n        /* \"contracts/utils/GrantPrivileges.sol\":4296:4307  return true */\n      swap4\n      pop\n      pop\n      pop\n      pop\n        /* \"contracts/utils/GrantPrivileges.sol\":3802:4314  function _legalOwner(address senderAddress) private view returns (bool) {... */\n    tag_193:\n      swap2\n      swap1\n      pop\n      jump\t// out\n        /* \"@openzeppelin/contracts/token/ERC20/ERC20.sol\":9682:10114  function _approve(address owner, address spender, uint256 value, bool emitEvent) internal virtual {... */\n    tag_160:\n        /* \"@openzeppelin/contracts/token/ERC20/ERC20.sol\":9811:9812  0 */\n      0x00\n        /* \"@openzeppelin/contracts/token/ERC20/ERC20.sol\":9794:9813  owner == address(0) */\n      0xffffffffffffffffffffffffffffffffffffffff\n      and\n        /* \"@openzeppelin/contracts/token/ERC20/ERC20.sol\":9794:9799  owner */\n      dup5\n        /* \"@openzeppelin/contracts/token/ERC20/ERC20.sol\":9794:9813  owner == address(0) */\n      0xffffffffffffffffffffffffffffffffffffffff\n      and\n      sub\n        /* \"@openzeppelin/contracts/token/ERC20/ERC20.sol\":9790:9879  if (owner == address(0)) {... */\n      tag_200\n      jumpi\n        /* \"@openzeppelin/contracts/token/ERC20/ERC20.sol\":9865:9866  0 */\n      0x00\n        /* \"@openzeppelin/contracts/token/ERC20/ERC20.sol\":9836:9868  ERC20InvalidApprover(address(0)) */\n      mload(0x40)\n      0xe602df0500000000000000000000000000000000000000000000000000000000\n      dup2\n      mstore\n      0x04\n      add\n      tag_201\n      swap2\n      swap1\n      tag_71\n      jump\t// in\n    tag_201:\n      mload(0x40)\n      dup1\n      swap2\n      sub\n      swap1\n      revert\n        /* \"@openzeppelin/contracts/token/ERC20/ERC20.sol\":9790:9879  if (owner == address(0)) {... */\n    tag_200:\n        /* \"@openzeppelin/contracts/token/ERC20/ERC20.sol\":9911:9912  0 */\n      0x00\n        /* \"@openzeppelin/contracts/token/ERC20/ERC20.sol\":9892:9913  spender == address(0) */\n      0xffffffffffffffffffffffffffffffffffffffff\n      and\n        /* \"@openzeppelin/contracts/token/ERC20/ERC20.sol\":9892:9899  spender */\n      dup4\n        /* \"@openzeppelin/contracts/token/ERC20/ERC20.sol\":9892:9913  spender == address(0) */\n      0xffffffffffffffffffffffffffffffffffffffff\n      and\n      sub\n        /* \"@openzeppelin/contracts/token/ERC20/ERC20.sol\":9888:9978  if (spender == address(0)) {... */\n      tag_202\n      jumpi\n        /* \"@openzeppelin/contracts/token/ERC20/ERC20.sol\":9964:9965  0 */\n      0x00\n        /* \"@openzeppelin/contracts/token/ERC20/ERC20.sol\":9936:9967  ERC20InvalidSpender(address(0)) */\n      mload(0x40)\n      0x94280d6200000000000000000000000000000000000000000000000000000000\n      dup2\n      mstore\n      0x04\n      add\n      tag_203\n      swap2\n      swap1\n      tag_71\n      jump\t// in\n    tag_203:\n      mload(0x40)\n      dup1\n      swap2\n      sub\n      swap1\n      revert\n        /* \"@openzeppelin/contracts/token/ERC20/ERC20.sol\":9888:9978  if (spender == address(0)) {... */\n    tag_202:\n        /* \"@openzeppelin/contracts/token/ERC20/ERC20.sol\":10017:10022  value */\n      dup2\n        /* \"@openzeppelin/contracts/token/ERC20/ERC20.sol\":9987:9998  _allowances */\n      0x01\n        /* \"@openzeppelin/contracts/token/ERC20/ERC20.sol\":9987:10005  _allowances[owner] */\n      0x00\n        /* \"@openzeppelin/contracts/token/ERC20/ERC20.sol\":9999:10004  owner */\n      dup7\n        /* \"@openzeppelin/contracts/token/ERC20/ERC20.sol\":9987:10005  _allowances[owner] */\n      0xffffffffffffffffffffffffffffffffffffffff\n      and\n      0xffffffffffffffffffffffffffffffffffffffff\n      and\n      dup2\n      mstore\n      0x20\n      add\n      swap1\n      dup2\n      mstore\n      0x20\n      add\n      0x00\n      keccak256\n        /* \"@openzeppelin/contracts/token/ERC20/ERC20.sol\":9987:10014  _allowances[owner][spender] */\n      0x00\n        /* \"@openzeppelin/contracts/token/ERC20/ERC20.sol\":10006:10013  spender */\n      dup6\n        /* \"@openzeppelin/contracts/token/ERC20/ERC20.sol\":9987:10014  _allowances[owner][spender] */\n      0xffffffffffffffffffffffffffffffffffffffff\n      and\n      0xffffffffffffffffffffffffffffffffffffffff\n      and\n      dup2\n      mstore\n      0x20\n      add\n      swap1\n      dup2\n      mstore\n      0x20\n      add\n      0x00\n      keccak256\n        /* \"@openzeppelin/contracts/token/ERC20/ERC20.sol\":9987:10022  _allowances[owner][spender] = value */\n      dup2\n      swap1\n      sstore\n      pop\n        /* \"@openzeppelin/contracts/token/ERC20/ERC20.sol\":10036:10045  emitEvent */\n      dup1\n        /* \"@openzeppelin/contracts/token/ERC20/ERC20.sol\":10032:10108  if (emitEvent) {... */\n      iszero\n      tag_204\n      jumpi\n        /* \"@openzeppelin/contracts/token/ERC20/ERC20.sol\":10082:10089  spender */\n      dup3\n        /* \"@openzeppelin/contracts/token/ERC20/ERC20.sol\":10066:10097  Approval(owner, spender, value) */\n      0xffffffffffffffffffffffffffffffffffffffff\n      and\n        /* \"@openzeppelin/contracts/token/ERC20/ERC20.sol\":10075:10080  owner */\n      dup5\n        /* \"@openzeppelin/contracts/token/ERC20/ERC20.sol\":10066:10097  Approval(owner, spender, value) */\n      0xffffffffffffffffffffffffffffffffffffffff\n      and\n      0x8c5be1e5ebec7d5bd14f71427d1e84f3dd0314c0f7b2291e5b200ac8c7c3b925\n        /* \"@openzeppelin/contracts/token/ERC20/ERC20.sol\":10091:10096  value */\n      dup5\n        /* \"@openzeppelin/contracts/token/ERC20/ERC20.sol\":10066:10097  Approval(owner, spender, value) */\n      mload(0x40)\n      tag_205\n      swap2\n      swap1\n      tag_34\n      jump\t// in\n    tag_205:\n      mload(0x40)\n      dup1\n      swap2\n      sub\n      swap1\n      log3\n        /* \"@openzeppelin/contracts/token/ERC20/ERC20.sol\":10032:10108  if (emitEvent) {... */\n    tag_204:\n        /* \"@openzeppelin/contracts/token/ERC20/ERC20.sol\":9682:10114  function _approve(address owner, address spender, uint256 value, bool emitEvent) internal virtual {... */\n      pop\n      pop\n      pop\n      pop\n      jump\t// out\n        /* \"@openzeppelin/contracts/token/ERC20/ERC20.sol\":5989:7096  function _update(address from, address to, uint256 value) internal virtual {... */\n    tag_174:\n        /* \"@openzeppelin/contracts/token/ERC20/ERC20.sol\":6094:6095  0 */\n      0x00\n        /* \"@openzeppelin/contracts/token/ERC20/ERC20.sol\":6078:6096  from == address(0) */\n      0xffffffffffffffffffffffffffffffffffffffff\n      and\n        /* \"@openzeppelin/contracts/token/ERC20/ERC20.sol\":6078:6082  from */\n      dup4\n        /* \"@openzeppelin/contracts/token/ERC20/ERC20.sol\":6078:6096  from == address(0) */\n      0xffffffffffffffffffffffffffffffffffffffff\n      and\n      sub\n        /* \"@openzeppelin/contracts/token/ERC20/ERC20.sol\":6074:6614  if (from == address(0)) {... */\n      tag_207\n      jumpi\n        /* \"@openzeppelin/contracts/token/ERC20/ERC20.sol\":6230:6235  value */\n      dup1\n        /* \"@openzeppelin/contracts/token/ERC20/ERC20.sol\":6214:6226  _totalSupply */\n      0x02\n      0x00\n        /* \"@openzeppelin/contracts/token/ERC20/ERC20.sol\":6214:6235  _totalSupply += value */\n      dup3\n      dup3\n      sload\n      tag_208\n      swap2\n      swap1\n      tag_152\n      jump\t// in\n    tag_208:\n      swap3\n      pop\n      pop\n      dup2\n      swap1\n      sstore\n      pop\n        /* \"@openzeppelin/contracts/token/ERC20/ERC20.sol\":6074:6614  if (from == address(0)) {... */\n      jump(tag_209)\n    tag_207:\n        /* \"@openzeppelin/contracts/token/ERC20/ERC20.sol\":6266:6285  uint256 fromBalance */\n      0x00\n        /* \"@openzeppelin/contracts/token/ERC20/ERC20.sol\":6288:6297  _balances */\n      0x00\n        /* \"@openzeppelin/contracts/token/ERC20/ERC20.sol\":6288:6303  _balances[from] */\n      0x00\n        /* \"@openzeppelin/contracts/token/ERC20/ERC20.sol\":6298:6302  from */\n      dup6\n        /* \"@openzeppelin/contracts/token/ERC20/ERC20.sol\":6288:6303  _balances[from] */\n      0xffffffffffffffffffffffffffffffffffffffff\n      and\n      0xffffffffffffffffffffffffffffffffffffffff\n      and\n      dup2\n      mstore\n      0x20\n      add\n      swap1\n      dup2\n      mstore\n      0x20\n      add\n      0x00\n      keccak256\n      sload\n        /* \"@openzeppelin/contracts/token/ERC20/ERC20.sol\":6266:6303  uint256 fromBalance = _balances[from] */\n      swap1\n      pop\n        /* \"@openzeppelin/contracts/token/ERC20/ERC20.sol\":6335:6340  value */\n      dup2\n        /* \"@openzeppelin/contracts/token/ERC20/ERC20.sol\":6321:6332  fromBalance */\n      dup2\n        /* \"@openzeppelin/contracts/token/ERC20/ERC20.sol\":6321:6340  fromBalance < value */\n      lt\n        /* \"@openzeppelin/contracts/token/ERC20/ERC20.sol\":6317:6432  if (fromBalance < value) {... */\n      iszero\n      tag_210\n      jumpi\n        /* \"@openzeppelin/contracts/token/ERC20/ERC20.sol\":6392:6396  from */\n      dup4\n        /* \"@openzeppelin/contracts/token/ERC20/ERC20.sol\":6398:6409  fromBalance */\n      dup2\n        /* \"@openzeppelin/contracts/token/ERC20/ERC20.sol\":6411:6416  value */\n      dup4\n        /* \"@openzeppelin/contracts/token/ERC20/ERC20.sol\":6367:6417  ERC20InsufficientBalance(from, fromBalance, value) */\n      mload(0x40)\n      0xe450d38c00000000000000000000000000000000000000000000000000000000\n      dup2\n      mstore\n      0x04\n      add\n      tag_211\n      swap4\n      swap3\n      swap2\n      swap1\n      tag_166\n      jump\t// in\n    tag_211:\n      mload(0x40)\n      dup1\n      swap2\n      sub\n      swap1\n      revert\n        /* \"@openzeppelin/contracts/token/ERC20/ERC20.sol\":6317:6432  if (fromBalance < value) {... */\n    tag_210:\n        /* \"@openzeppelin/contracts/token/ERC20/ERC20.sol\":6584:6589  value */\n      dup2\n        /* \"@openzeppelin/contracts/token/ERC20/ERC20.sol\":6570:6581  fromBalance */\n      dup2\n        /* \"@openzeppelin/contracts/token/ERC20/ERC20.sol\":6570:6589  fromBalance - value */\n      sub\n        /* \"@openzeppelin/contracts/token/ERC20/ERC20.sol\":6552:6561  _balances */\n      0x00\n        /* \"@openzeppelin/contracts/token/ERC20/ERC20.sol\":6552:6567  _balances[from] */\n      0x00\n        /* \"@openzeppelin/contracts/token/ERC20/ERC20.sol\":6562:6566  from */\n      dup7\n        /* \"@openzeppelin/contracts/token/ERC20/ERC20.sol\":6552:6567  _balances[from] */\n      0xffffffffffffffffffffffffffffffffffffffff\n      and\n      0xffffffffffffffffffffffffffffffffffffffff\n      and\n      dup2\n      mstore\n      0x20\n      add\n      swap1\n      dup2\n      mstore\n      0x20\n      add\n      0x00\n      keccak256\n        /* \"@openzeppelin/contracts/token/ERC20/ERC20.sol\":6552:6589  _balances[from] = fromBalance - value */\n      dup2\n      swap1\n      sstore\n      pop\n        /* \"@openzeppelin/contracts/token/ERC20/ERC20.sol\":6252:6614  {... */\n      pop\n        /* \"@openzeppelin/contracts/token/ERC20/ERC20.sol\":6074:6614  if (from == address(0)) {... */\n    tag_209:\n        /* \"@openzeppelin/contracts/token/ERC20/ERC20.sol\":6642:6643  0 */\n      0x00\n        /* \"@openzeppelin/contracts/token/ERC20/ERC20.sol\":6628:6644  to == address(0) */\n      0xffffffffffffffffffffffffffffffffffffffff\n      and\n        /* \"@openzeppelin/contracts/token/ERC20/ERC20.sol\":6628:6630  to */\n      dup3\n        /* \"@openzeppelin/contracts/token/ERC20/ERC20.sol\":6628:6644  to == address(0) */\n      0xffffffffffffffffffffffffffffffffffffffff\n      and\n      sub\n        /* \"@openzeppelin/contracts/token/ERC20/ERC20.sol\":6624:7049  if (to == address(0)) {... */\n      tag_212\n      jumpi\n        /* \"@openzeppelin/contracts/token/ERC20/ERC20.sol\":6807:6812  value */\n      dup1\n        /* \"@openzeppelin/contracts/token/ERC20/ERC20.sol\":6791:6803  _totalSupply */\n      0x02\n      0x00\n        /* \"@openzeppelin/contracts/token/ERC20/ERC20.sol\":6791:6812  _totalSupply -= value */\n      dup3\n      dup3\n      sload\n      sub\n      swap3\n      pop\n      pop\n      dup2\n      swap1\n      sstore\n      pop\n        /* \"@openzeppelin/contracts/token/ERC20/ERC20.sol\":6624:7049  if (to == address(0)) {... */\n      jump(tag_213)\n    tag_212:\n        /* \"@openzeppelin/contracts/token/ERC20/ERC20.sol\":7019:7024  value */\n      dup1\n        /* \"@openzeppelin/contracts/token/ERC20/ERC20.sol\":7002:7011  _balances */\n      0x00\n        /* \"@openzeppelin/contracts/token/ERC20/ERC20.sol\":7002:7015  _balances[to] */\n      0x00\n        /* \"@openzeppelin/contracts/token/ERC20/ERC20.sol\":7012:7014  to */\n      dup5\n        /* \"@openzeppelin/contracts/token/ERC20/ERC20.sol\":7002:7015  _balances[to] */\n      0xffffffffffffffffffffffffffffffffffffffff\n      and\n      0xffffffffffffffffffffffffffffffffffffffff\n      and\n      dup2\n      mstore\n      0x20\n      add\n      swap1\n      dup2\n      mstore\n      0x20\n      add\n      0x00\n      keccak256\n      0x00\n        /* \"@openzeppelin/contracts/token/ERC20/ERC20.sol\":7002:7024  _balances[to] += value */\n      dup3\n      dup3\n      sload\n      add\n      swap3\n      pop\n      pop\n      dup2\n      swap1\n      sstore\n      pop\n        /* \"@openzeppelin/contracts/token/ERC20/ERC20.sol\":6624:7049  if (to == address(0)) {... */\n    tag_213:\n        /* \"@openzeppelin/contracts/token/ERC20/ERC20.sol\":7079:7081  to */\n      dup2\n        /* \"@openzeppelin/contracts/token/ERC20/ERC20.sol\":7064:7089  Transfer(from, to, value) */\n      0xffffffffffffffffffffffffffffffffffffffff\n      and\n        /* \"@openzeppelin/contracts/token/ERC20/ERC20.sol\":7073:7077  from */\n      dup4\n        /* \"@openzeppelin/contracts/token/ERC20/ERC20.sol\":7064:7089  Transfer(from, to, value) */\n      0xffffffffffffffffffffffffffffffffffffffff\n      and\n      0xddf252ad1be2c89b69c2b068fc378daa952ba7f163c4a11628f55a4df523b3ef\n        /* \"@openzeppelin/contracts/token/ERC20/ERC20.sol\":7083:7088  value */\n      dup4\n        /* \"@openzeppelin/contracts/token/ERC20/ERC20.sol\":7064:7089  Transfer(from, to, value) */\n      mload(0x40)\n      tag_214\n      swap2\n      swap1\n      tag_34\n      jump\t// in\n    tag_214:\n      mload(0x40)\n      dup1\n      swap2\n      sub\n      swap1\n      log3\n        /* \"@openzeppelin/contracts/token/ERC20/ERC20.sol\":5989:7096  function _update(address from, address to, uint256 value) internal virtual {... */\n      pop\n      pop\n      pop\n      jump\t// out\n        /* \"@openzeppelin/contracts/utils/SlotDerivation.sol\":1707:1984  function erc7201Slot(string memory namespace) internal pure returns (bytes32 slot) {... */\n    tag_178:\n        /* \"@openzeppelin/contracts/utils/SlotDerivation.sol\":1776:1788  bytes32 slot */\n      0x00\n        /* \"@openzeppelin/contracts/utils/SlotDerivation.sol\":1907:1908  1 */\n      0x01\n        /* \"@openzeppelin/contracts/utils/SlotDerivation.sol\":1894:1903  namespace */\n      dup3\n        /* \"@openzeppelin/contracts/utils/SlotDerivation.sol\":1888:1904  mload(namespace) */\n      mload\n        /* \"@openzeppelin/contracts/utils/SlotDerivation.sol\":1881:1885  0x20 */\n      0x20\n        /* \"@openzeppelin/contracts/utils/SlotDerivation.sol\":1870:1879  namespace */\n      dup5\n        /* \"@openzeppelin/contracts/utils/SlotDerivation.sol\":1866:1886  add(namespace, 0x20) */\n      add\n        /* \"@openzeppelin/contracts/utils/SlotDerivation.sol\":1856:1905  keccak256(add(namespace, 0x20), mload(namespace)) */\n      keccak256\n        /* \"@openzeppelin/contracts/utils/SlotDerivation.sol\":1852:1909  sub(keccak256(add(namespace, 0x20), mload(namespace)), 1) */\n      sub\n        /* \"@openzeppelin/contracts/utils/SlotDerivation.sol\":1846:1850  0x00 */\n      0x00\n        /* \"@openzeppelin/contracts/utils/SlotDerivation.sol\":1839:1910  mstore(0x00, sub(keccak256(add(namespace, 0x20), mload(namespace)), 1)) */\n      mstore\n        /* \"@openzeppelin/contracts/utils/SlotDerivation.sol\":1962:1966  0xff */\n      0xff\n        /* \"@openzeppelin/contracts/utils/SlotDerivation.sol\":1958:1967  not(0xff) */\n      not\n        /* \"@openzeppelin/contracts/utils/SlotDerivation.sol\":1951:1955  0x20 */\n      0x20\n        /* \"@openzeppelin/contracts/utils/SlotDerivation.sol\":1945:1949  0x00 */\n      0x00\n        /* \"@openzeppelin/contracts/utils/SlotDerivation.sol\":1935:1956  keccak256(0x00, 0x20) */\n      keccak256\n        /* \"@openzeppelin/contracts/utils/SlotDerivation.sol\":1931:1968  and(keccak256(0x00, 0x20), not(0xff)) */\n      and\n        /* \"@openzeppelin/contracts/utils/SlotDerivation.sol\":1923:1968  slot := and(keccak256(0x00, 0x20), not(0xff)) */\n      swap1\n      pop\n        /* \"@openzeppelin/contracts/utils/SlotDerivation.sol\":1707:1984  function erc7201Slot(string memory namespace) internal pure returns (bytes32 slot) {... */\n      swap2\n      swap1\n      pop\n      jump\t// out\n        /* \"@openzeppelin/contracts/utils/StorageSlot.sol\":1899:2062  function getAddressSlot(bytes32 slot) internal pure returns (AddressSlot storage r) {... */\n    tag_179:\n        /* \"@openzeppelin/contracts/utils/StorageSlot.sol\":1960:1981  AddressSlot storage r */\n      0x00\n        /* \"@openzeppelin/contracts/utils/StorageSlot.sol\":2042:2046  slot */\n      dup2\n        /* \"@openzeppelin/contracts/utils/StorageSlot.sol\":2032:2046  r.slot := slot */\n      swap1\n      pop\n        /* \"@openzeppelin/contracts/utils/StorageSlot.sol\":1899:2062  function getAddressSlot(bytes32 slot) internal pure returns (AddressSlot storage r) {... */\n      swap2\n      swap1\n      pop\n      jump\t// out\n        /* \"@openzeppelin/contracts/utils/SlotDerivation.sol\":2681:2949  function deriveMapping(bytes32 slot, address key) internal pure returns (bytes32 result) {... */\n    tag_183:\n        /* \"@openzeppelin/contracts/utils/SlotDerivation.sol\":2754:2768  bytes32 result */\n      0x00\n        /* \"@openzeppelin/contracts/utils/SlotDerivation.sol\":2853:2854  0 */\n      0x00\n        /* \"@openzeppelin/contracts/utils/SlotDerivation.sol\":2849:2855  not(0) */\n      not\n        /* \"@openzeppelin/contracts/utils/SlotDerivation.sol\":2845:2847  96 */\n      0x60\n        /* \"@openzeppelin/contracts/utils/SlotDerivation.sol\":2841:2856  shr(96, not(0)) */\n      shr\n        /* \"@openzeppelin/contracts/utils/SlotDerivation.sol\":2836:2839  key */\n      dup3\n        /* \"@openzeppelin/contracts/utils/SlotDerivation.sol\":2832:2857  and(key, shr(96, not(0))) */\n      and\n        /* \"@openzeppelin/contracts/utils/SlotDerivation.sol\":2826:2830  0x00 */\n      0x00\n        /* \"@openzeppelin/contracts/utils/SlotDerivation.sol\":2819:2858  mstore(0x00, and(key, shr(96, not(0)))) */\n      mstore\n        /* \"@openzeppelin/contracts/utils/SlotDerivation.sol\":2884:2888  slot */\n      dup3\n        /* \"@openzeppelin/contracts/utils/SlotDerivation.sol\":2878:2882  0x20 */\n      0x20\n        /* \"@openzeppelin/contracts/utils/SlotDerivation.sol\":2871:2889  mstore(0x20, slot) */\n      mstore\n        /* \"@openzeppelin/contracts/utils/SlotDerivation.sol\":2928:2932  0x40 */\n      0x40\n        /* \"@openzeppelin/contracts/utils/SlotDerivation.sol\":2922:2926  0x00 */\n      0x00\n        /* \"@openzeppelin/contracts/utils/SlotDerivation.sol\":2912:2933  keccak256(0x00, 0x40) */\n      keccak256\n        /* \"@openzeppelin/contracts/utils/SlotDerivation.sol\":2902:2933  result := keccak256(0x00, 0x40) */\n      swap1\n      pop\n        /* \"@openzeppelin/contracts/utils/SlotDerivation.sol\":2681:2949  function deriveMapping(bytes32 slot, address key) internal pure returns (bytes32 result) {... */\n      swap3\n      swap2\n      pop\n      pop\n      jump\t// out\n        /* \"contracts/utils/GrantPrivileges.sol\":2368:2531  function _getOwnerInfoSlot(bytes32 slot) private pure returns (OwnerInfo storage r) {... */\n    tag_185:\n        /* \"contracts/utils/GrantPrivileges.sol\":2431:2450  OwnerInfo storage r */\n      0x00\n        /* \"contracts/utils/GrantPrivileges.sol\":2511:2515  slot */\n      dup2\n        /* \"contracts/utils/GrantPrivileges.sol\":2501:2515  r.slot := slot */\n      swap1\n      pop\n        /* \"contracts/utils/GrantPrivileges.sol\":2368:2531  function _getOwnerInfoSlot(bytes32 slot) private pure returns (OwnerInfo storage r) {... */\n      swap2\n      swap1\n      pop\n      jump\t// out\n        /* \"#utility.yul\":7:106   */\n    tag_219:\n        /* \"#utility.yul\":59:65   */\n      0x00\n        /* \"#utility.yul\":93:98   */\n      dup2\n        /* \"#utility.yul\":87:99   */\n      mload\n        /* \"#utility.yul\":77:99   */\n      swap1\n      pop\n        /* \"#utility.yul\":7:106   */\n      swap2\n      swap1\n      pop\n      jump\t// out\n        /* \"#utility.yul\":112:281   */\n    tag_220:\n        /* \"#utility.yul\":196:207   */\n      0x00\n        /* \"#utility.yul\":230:236   */\n      dup3\n        /* \"#utility.yul\":225:228   */\n      dup3\n        /* \"#utility.yul\":218:237   */\n      mstore\n        /* \"#utility.yul\":270:274   */\n      0x20\n        /* \"#utility.yul\":265:268   */\n      dup3\n        /* \"#utility.yul\":261:275   */\n      add\n        /* \"#utility.yul\":246:275   */\n      swap1\n      pop\n        /* \"#utility.yul\":112:281   */\n      swap3\n      swap2\n      pop\n      pop\n      jump\t// out\n        /* \"#utility.yul\":287:426   */\n    tag_221:\n        /* \"#utility.yul\":376:382   */\n      dup3\n        /* \"#utility.yul\":371:374   */\n      dup2\n        /* \"#utility.yul\":366:369   */\n      dup4\n        /* \"#utility.yul\":360:383   */\n      mcopy\n        /* \"#utility.yul\":417:418   */\n      0x00\n        /* \"#utility.yul\":408:414   */\n      dup4\n        /* \"#utility.yul\":403:406   */\n      dup4\n        /* \"#utility.yul\":399:415   */\n      add\n        /* \"#utility.yul\":392:419   */\n      mstore\n        /* \"#utility.yul\":287:426   */\n      pop\n      pop\n      pop\n      jump\t// out\n        /* \"#utility.yul\":432:534   */\n    tag_222:\n        /* \"#utility.yul\":473:479   */\n      0x00\n        /* \"#utility.yul\":524:526   */\n      0x1f\n        /* \"#utility.yul\":520:527   */\n      not\n        /* \"#utility.yul\":515:517   */\n      0x1f\n        /* \"#utility.yul\":508:513   */\n      dup4\n        /* \"#utility.yul\":504:518   */\n      add\n        /* \"#utility.yul\":500:528   */\n      and\n        /* \"#utility.yul\":490:528   */\n      swap1\n      pop\n        /* \"#utility.yul\":432:534   */\n      swap2\n      swap1\n      pop\n      jump\t// out\n        /* \"#utility.yul\":540:917   */\n    tag_223:\n        /* \"#utility.yul\":628:631   */\n      0x00\n        /* \"#utility.yul\":656:695   */\n      tag_252\n        /* \"#utility.yul\":689:694   */\n      dup3\n        /* \"#utility.yul\":656:695   */\n      tag_219\n      jump\t// in\n    tag_252:\n        /* \"#utility.yul\":711:782   */\n      tag_253\n        /* \"#utility.yul\":775:781   */\n      dup2\n        /* \"#utility.yul\":770:773   */\n      dup6\n        /* \"#utility.yul\":711:782   */\n      tag_220\n      jump\t// in\n    tag_253:\n        /* \"#utility.yul\":704:782   */\n      swap4\n      pop\n        /* \"#utility.yul\":791:856   */\n      tag_254\n        /* \"#utility.yul\":849:855   */\n      dup2\n        /* \"#utility.yul\":844:847   */\n      dup6\n        /* \"#utility.yul\":837:841   */\n      0x20\n        /* \"#utility.yul\":830:835   */\n      dup7\n        /* \"#utility.yul\":826:842   */\n      add\n        /* \"#utility.yul\":791:856   */\n      tag_221\n      jump\t// in\n    tag_254:\n        /* \"#utility.yul\":881:910   */\n      tag_255\n        /* \"#utility.yul\":903:909   */\n      dup2\n        /* \"#utility.yul\":881:910   */\n      tag_222\n      jump\t// in\n    tag_255:\n        /* \"#utility.yul\":876:879   */\n      dup5\n        /* \"#utility.yul\":872:911   */\n      add\n        /* \"#utility.yul\":865:911   */\n      swap2\n      pop\n        /* \"#utility.yul\":632:917   */\n      pop\n        /* \"#utility.yul\":540:917   */\n      swap3\n      swap2\n      pop\n      pop\n      jump\t// out\n        /* \"#utility.yul\":923:1236   */\n    tag_24:\n        /* \"#utility.yul\":1036:1040   */\n      0x00\n        /* \"#utility.yul\":1074:1076   */\n      0x20\n        /* \"#utility.yul\":1063:1072   */\n      dup3\n        /* \"#utility.yul\":1059:1077   */\n      add\n        /* \"#utility.yul\":1051:1077   */\n      swap1\n      pop\n        /* \"#utility.yul\":1123:1132   */\n      dup2\n        /* \"#utility.yul\":1117:1121   */\n      dup2\n        /* \"#utility.yul\":1113:1133   */\n      sub\n        /* \"#utility.yul\":1109:1110   */\n      0x00\n        /* \"#utility.yul\":1098:1107   */\n      dup4\n        /* \"#utility.yul\":1094:1111   */\n      add\n        /* \"#utility.yul\":1087:1134   */\n      mstore\n        /* \"#utility.yul\":1151:1229   */\n      tag_257\n        /* \"#utility.yul\":1224:1228   */\n      dup2\n        /* \"#utility.yul\":1215:1221   */\n      dup5\n        /* \"#utility.yul\":1151:1229   */\n      tag_223\n      jump\t// in\n    tag_257:\n        /* \"#utility.yul\":1143:1229   */\n      swap1\n      pop\n        /* \"#utility.yul\":923:1236   */\n      swap3\n      swap2\n      pop\n      pop\n      jump\t// out\n        /* \"#utility.yul\":1323:1440   */\n    tag_225:\n        /* \"#utility.yul\":1432:1433   */\n      0x00\n        /* \"#utility.yul\":1429:1430   */\n      0x00\n        /* \"#utility.yul\":1422:1434   */\n      revert\n        /* \"#utility.yul\":1569:1695   */\n    tag_227:\n        /* \"#utility.yul\":1606:1613   */\n      0x00\n        /* \"#utility.yul\":1646:1688   */\n      0xffffffffffffffffffffffffffffffffffffffff\n        /* \"#utility.yul\":1639:1644   */\n      dup3\n        /* \"#utility.yul\":1635:1689   */\n      and\n        /* \"#utility.yul\":1624:1689   */\n      swap1\n      pop\n        /* \"#utility.yul\":1569:1695   */\n      swap2\n      swap1\n      pop\n      jump\t// out\n        /* \"#utility.yul\":1701:1797   */\n    tag_228:\n        /* \"#utility.yul\":1738:1745   */\n      0x00\n        /* \"#utility.yul\":1767:1791   */\n      tag_263\n        /* \"#utility.yul\":1785:1790   */\n      dup3\n        /* \"#utility.yul\":1767:1791   */\n      tag_227\n      jump\t// in\n    tag_263:\n        /* \"#utility.yul\":1756:1791   */\n      swap1\n      pop\n        /* \"#utility.yul\":1701:1797   */\n      swap2\n      swap1\n      pop\n      jump\t// out\n        /* \"#utility.yul\":1803:1925   */\n    tag_229:\n        /* \"#utility.yul\":1876:1900   */\n      tag_265\n        /* \"#utility.yul\":1894:1899   */\n      dup2\n        /* \"#utility.yul\":1876:1900   */\n      tag_228\n      jump\t// in\n    tag_265:\n        /* \"#utility.yul\":1869:1874   */\n      dup2\n        /* \"#utility.yul\":1866:1901   */\n      eq\n        /* \"#utility.yul\":1856:1919   */\n      tag_266\n      jumpi\n        /* \"#utility.yul\":1915:1916   */\n      0x00\n        /* \"#utility.yul\":1912:1913   */\n      0x00\n        /* \"#utility.yul\":1905:1917   */\n      revert\n        /* \"#utility.yul\":1856:1919   */\n    tag_266:\n        /* \"#utility.yul\":1803:1925   */\n      pop\n      jump\t// out\n        /* \"#utility.yul\":1931:2070   */\n    tag_230:\n        /* \"#utility.yul\":1977:1982   */\n      0x00\n        /* \"#utility.yul\":2015:2021   */\n      dup2\n        /* \"#utility.yul\":2002:2022   */\n      calldataload\n        /* \"#utility.yul\":1993:2022   */\n      swap1\n      pop\n        /* \"#utility.yul\":2031:2064   */\n      tag_268\n        /* \"#utility.yul\":2058:2063   */\n      dup2\n        /* \"#utility.yul\":2031:2064   */\n      tag_229\n      jump\t// in\n    tag_268:\n        /* \"#utility.yul\":1931:2070   */\n      swap3\n      swap2\n      pop\n      pop\n      jump\t// out\n        /* \"#utility.yul\":2076:2153   */\n    tag_231:\n        /* \"#utility.yul\":2113:2120   */\n      0x00\n        /* \"#utility.yul\":2142:2147   */\n      dup2\n        /* \"#utility.yul\":2131:2147   */\n      swap1\n      pop\n        /* \"#utility.yul\":2076:2153   */\n      swap2\n      swap1\n      pop\n      jump\t// out\n        /* \"#utility.yul\":2159:2281   */\n    tag_232:\n        /* \"#utility.yul\":2232:2256   */\n      tag_271\n        /* \"#utility.yul\":2250:2255   */\n      dup2\n        /* \"#utility.yul\":2232:2256   */\n      tag_231\n      jump\t// in\n    tag_271:\n        /* \"#utility.yul\":2225:2230   */\n      dup2\n        /* \"#utility.yul\":2222:2257   */\n      eq\n        /* \"#utility.yul\":2212:2275   */\n      tag_272\n      jumpi\n        /* \"#utility.yul\":2271:2272   */\n      0x00\n        /* \"#utility.yul\":2268:2269   */\n      0x00\n        /* \"#utility.yul\":2261:2273   */\n      revert\n        /* \"#utility.yul\":2212:2275   */\n    tag_272:\n        /* \"#utility.yul\":2159:2281   */\n      pop\n      jump\t// out\n        /* \"#utility.yul\":2287:2426   */\n    tag_233:\n        /* \"#utility.yul\":2333:2338   */\n      0x00\n        /* \"#utility.yul\":2371:2377   */\n      dup2\n        /* \"#utility.yul\":2358:2378   */\n      calldataload\n        /* \"#utility.yul\":2349:2378   */\n      swap1\n      pop\n        /* \"#utility.yul\":2387:2420   */\n      tag_274\n        /* \"#utility.yul\":2414:2419   */\n      dup2\n        /* \"#utility.yul\":2387:2420   */\n      tag_232\n      jump\t// in\n    tag_274:\n        /* \"#utility.yul\":2287:2426   */\n      swap3\n      swap2\n      pop\n      pop\n      jump\t// out\n        /* \"#utility.yul\":2432:2906   */\n    tag_27:\n        /* \"#utility.yul\":2500:2506   */\n      0x00\n        /* \"#utility.yul\":2508:2514   */\n      0x00\n        /* \"#utility.yul\":2557:2559   */\n      0x40\n        /* \"#utility.yul\":2545:2554   */\n      dup4\n        /* \"#utility.yul\":2536:2543   */\n      dup6\n        /* \"#utility.yul\":2532:2555   */\n      sub\n        /* \"#utility.yul\":2528:2560   */\n      slt\n        /* \"#utility.yul\":2525:2644   */\n      iszero\n      tag_276\n      jumpi\n        /* \"#utility.yul\":2563:2642   */\n      tag_277\n      tag_225\n      jump\t// in\n    tag_277:\n        /* \"#utility.yul\":2525:2644   */\n    tag_276:\n        /* \"#utility.yul\":2683:2684   */\n      0x00\n        /* \"#utility.yul\":2708:2761   */\n      tag_278\n        /* \"#utility.yul\":2753:2760   */\n      dup6\n        /* \"#utility.yul\":2744:2750   */\n      dup3\n        /* \"#utility.yul\":2733:2742   */\n      dup7\n        /* \"#utility.yul\":2729:2751   */\n      add\n        /* \"#utility.yul\":2708:2761   */\n      tag_230\n      jump\t// in\n    tag_278:\n        /* \"#utility.yul\":2698:2761   */\n      swap3\n      pop\n        /* \"#utility.yul\":2654:2771   */\n      pop\n        /* \"#utility.yul\":2810:2812   */\n      0x20\n        /* \"#utility.yul\":2836:2889   */\n      tag_279\n        /* \"#utility.yul\":2881:2888   */\n      dup6\n        /* \"#utility.yul\":2872:2878   */\n      dup3\n        /* \"#utility.yul\":2861:2870   */\n      dup7\n        /* \"#utility.yul\":2857:2879   */\n      add\n        /* \"#utility.yul\":2836:2889   */\n      tag_233\n      jump\t// in\n    tag_279:\n        /* \"#utility.yul\":2826:2889   */\n      swap2\n      pop\n        /* \"#utility.yul\":2781:2899   */\n      pop\n        /* \"#utility.yul\":2432:2906   */\n      swap3\n      pop\n      swap3\n      swap1\n      pop\n      jump\t// out\n        /* \"#utility.yul\":2912:3002   */\n    tag_234:\n        /* \"#utility.yul\":2946:2953   */\n      0x00\n        /* \"#utility.yul\":2989:2994   */\n      dup2\n        /* \"#utility.yul\":2982:2995   */\n      iszero\n        /* \"#utility.yul\":2975:2996   */\n      iszero\n        /* \"#utility.yul\":2964:2996   */\n      swap1\n      pop\n        /* \"#utility.yul\":2912:3002   */\n      swap2\n      swap1\n      pop\n      jump\t// out\n        /* \"#utility.yul\":3008:3117   */\n    tag_235:\n        /* \"#utility.yul\":3089:3110   */\n      tag_282\n        /* \"#utility.yul\":3104:3109   */\n      dup2\n        /* \"#utility.yul\":3089:3110   */\n      tag_234\n      jump\t// in\n    tag_282:\n        /* \"#utility.yul\":3084:3087   */\n      dup3\n        /* \"#utility.yul\":3077:3111   */\n      mstore\n        /* \"#utility.yul\":3008:3117   */\n      pop\n      pop\n      jump\t// out\n        /* \"#utility.yul\":3123:3333   */\n    tag_30:\n        /* \"#utility.yul\":3210:3214   */\n      0x00\n        /* \"#utility.yul\":3248:3250   */\n      0x20\n        /* \"#utility.yul\":3237:3246   */\n      dup3\n        /* \"#utility.yul\":3233:3251   */\n      add\n        /* \"#utility.yul\":3225:3251   */\n      swap1\n      pop\n        /* \"#utility.yul\":3261:3326   */\n      tag_284\n        /* \"#utility.yul\":3323:3324   */\n      0x00\n        /* \"#utility.yul\":3312:3321   */\n      dup4\n        /* \"#utility.yul\":3308:3325   */\n      add\n        /* \"#utility.yul\":3299:3305   */\n      dup5\n        /* \"#utility.yul\":3261:3326   */\n      tag_235\n      jump\t// in\n    tag_284:\n        /* \"#utility.yul\":3123:3333   */\n      swap3\n      swap2\n      pop\n      pop\n      jump\t// out\n        /* \"#utility.yul\":3339:3457   */\n    tag_236:\n        /* \"#utility.yul\":3426:3450   */\n      tag_286\n        /* \"#utility.yul\":3444:3449   */\n      dup2\n        /* \"#utility.yul\":3426:3450   */\n      tag_231\n      jump\t// in\n    tag_286:\n        /* \"#utility.yul\":3421:3424   */\n      dup3\n        /* \"#utility.yul\":3414:3451   */\n      mstore\n        /* \"#utility.yul\":3339:3457   */\n      pop\n      pop\n      jump\t// out\n        /* \"#utility.yul\":3463:3685   */\n    tag_34:\n        /* \"#utility.yul\":3556:3560   */\n      0x00\n        /* \"#utility.yul\":3594:3596   */\n      0x20\n        /* \"#utility.yul\":3583:3592   */\n      dup3\n        /* \"#utility.yul\":3579:3597   */\n      add\n        /* \"#utility.yul\":3571:3597   */\n      swap1\n      pop\n        /* \"#utility.yul\":3607:3678   */\n      tag_288\n        /* \"#utility.yul\":3675:3676   */\n      0x00\n        /* \"#utility.yul\":3664:3673   */\n      dup4\n        /* \"#utility.yul\":3660:3677   */\n      add\n        /* \"#utility.yul\":3651:3657   */\n      dup5\n        /* \"#utility.yul\":3607:3678   */\n      tag_236\n      jump\t// in\n    tag_288:\n        /* \"#utility.yul\":3463:3685   */\n      swap3\n      swap2\n      pop\n      pop\n      jump\t// out\n        /* \"#utility.yul\":3691:4310   */\n    tag_37:\n        /* \"#utility.yul\":3768:3774   */\n      0x00\n        /* \"#utility.yul\":3776:3782   */\n      0x00\n        /* \"#utility.yul\":3784:3790   */\n      0x00\n        /* \"#utility.yul\":3833:3835   */\n      0x60\n        /* \"#utility.yul\":3821:3830   */\n      dup5\n        /* \"#utility.yul\":3812:3819   */\n      dup7\n        /* \"#utility.yul\":3808:3831   */\n      sub\n        /* \"#utility.yul\":3804:3836   */\n      slt\n        /* \"#utility.yul\":3801:3920   */\n      iszero\n      tag_290\n      jumpi\n        /* \"#utility.yul\":3839:3918   */\n      tag_291\n      tag_225\n      jump\t// in\n    tag_291:\n        /* \"#utility.yul\":3801:3920   */\n    tag_290:\n        /* \"#utility.yul\":3959:3960   */\n      0x00\n        /* \"#utility.yul\":3984:4037   */\n      tag_292\n        /* \"#utility.yul\":4029:4036   */\n      dup7\n        /* \"#utility.yul\":4020:4026   */\n      dup3\n        /* \"#utility.yul\":4009:4018   */\n      dup8\n        /* \"#utility.yul\":4005:4027   */\n      add\n        /* \"#utility.yul\":3984:4037   */\n      tag_230\n      jump\t// in\n    tag_292:\n        /* \"#utility.yul\":3974:4037   */\n      swap4\n      pop\n        /* \"#utility.yul\":3930:4047   */\n      pop\n        /* \"#utility.yul\":4086:4088   */\n      0x20\n        /* \"#utility.yul\":4112:4165   */\n      tag_293\n        /* \"#utility.yul\":4157:4164   */\n      dup7\n        /* \"#utility.yul\":4148:4154   */\n      dup3\n        /* \"#utility.yul\":4137:4146   */\n      dup8\n        /* \"#utility.yul\":4133:4155   */\n      add\n        /* \"#utility.yul\":4112:4165   */\n      tag_230\n      jump\t// in\n    tag_293:\n        /* \"#utility.yul\":4102:4165   */\n      swap3\n      pop\n        /* \"#utility.yul\":4057:4175   */\n      pop\n        /* \"#utility.yul\":4214:4216   */\n      0x40\n        /* \"#utility.yul\":4240:4293   */\n      tag_294\n        /* \"#utility.yul\":4285:4292   */\n      dup7\n        /* \"#utility.yul\":4276:4282   */\n      dup3\n        /* \"#utility.yul\":4265:4274   */\n      dup8\n        /* \"#utility.yul\":4261:4283   */\n      add\n        /* \"#utility.yul\":4240:4293   */\n      tag_233\n      jump\t// in\n    tag_294:\n        /* \"#utility.yul\":4230:4293   */\n      swap2\n      pop\n        /* \"#utility.yul\":4185:4303   */\n      pop\n        /* \"#utility.yul\":3691:4310   */\n      swap3\n      pop\n      swap3\n      pop\n      swap3\n      jump\t// out\n        /* \"#utility.yul\":4316:4402   */\n    tag_237:\n        /* \"#utility.yul\":4351:4358   */\n      0x00\n        /* \"#utility.yul\":4391:4395   */\n      0xff\n        /* \"#utility.yul\":4384:4389   */\n      dup3\n        /* \"#utility.yul\":4380:4396   */\n      and\n        /* \"#utility.yul\":4369:4396   */\n      swap1\n      pop\n        /* \"#utility.yul\":4316:4402   */\n      swap2\n      swap1\n      pop\n      jump\t// out\n        /* \"#utility.yul\":4408:4520   */\n    tag_238:\n        /* \"#utility.yul\":4491:4513   */\n      tag_297\n        /* \"#utility.yul\":4507:4512   */\n      dup2\n        /* \"#utility.yul\":4491:4513   */\n      tag_237\n      jump\t// in\n    tag_297:\n        /* \"#utility.yul\":4486:4489   */\n      dup3\n        /* \"#utility.yul\":4479:4514   */\n      mstore\n        /* \"#utility.yul\":4408:4520   */\n      pop\n      pop\n      jump\t// out\n        /* \"#utility.yul\":4526:4740   */\n    tag_43:\n        /* \"#utility.yul\":4615:4619   */\n      0x00\n        /* \"#utility.yul\":4653:4655   */\n      0x20\n        /* \"#utility.yul\":4642:4651   */\n      dup3\n        /* \"#utility.yul\":4638:4656   */\n      add\n        /* \"#utility.yul\":4630:4656   */\n      swap1\n      pop\n        /* \"#utility.yul\":4666:4733   */\n      tag_299\n        /* \"#utility.yul\":4730:4731   */\n      0x00\n        /* \"#utility.yul\":4719:4728   */\n      dup4\n        /* \"#utility.yul\":4715:4732   */\n      add\n        /* \"#utility.yul\":4706:4712   */\n      dup5\n        /* \"#utility.yul\":4666:4733   */\n      tag_238\n      jump\t// in\n    tag_299:\n        /* \"#utility.yul\":4526:4740   */\n      swap3\n      swap2\n      pop\n      pop\n      jump\t// out\n        /* \"#utility.yul\":4746:5075   */\n    tag_52:\n        /* \"#utility.yul\":4805:4811   */\n      0x00\n        /* \"#utility.yul\":4854:4856   */\n      0x20\n        /* \"#utility.yul\":4842:4851   */\n      dup3\n        /* \"#utility.yul\":4833:4840   */\n      dup5\n        /* \"#utility.yul\":4829:4852   */\n      sub\n        /* \"#utility.yul\":4825:4857   */\n      slt\n        /* \"#utility.yul\":4822:4941   */\n      iszero\n      tag_301\n      jumpi\n        /* \"#utility.yul\":4860:4939   */\n      tag_302\n      tag_225\n      jump\t// in\n    tag_302:\n        /* \"#utility.yul\":4822:4941   */\n    tag_301:\n        /* \"#utility.yul\":4980:4981   */\n      0x00\n        /* \"#utility.yul\":5005:5058   */\n      tag_303\n        /* \"#utility.yul\":5050:5057   */\n      dup5\n        /* \"#utility.yul\":5041:5047   */\n      dup3\n        /* \"#utility.yul\":5030:5039   */\n      dup6\n        /* \"#utility.yul\":5026:5048   */\n      add\n        /* \"#utility.yul\":5005:5058   */\n      tag_230\n      jump\t// in\n    tag_303:\n        /* \"#utility.yul\":4995:5058   */\n      swap2\n      pop\n        /* \"#utility.yul\":4951:5068   */\n      pop\n        /* \"#utility.yul\":4746:5075   */\n      swap3\n      swap2\n      pop\n      pop\n      jump\t// out\n        /* \"#utility.yul\":5081:5199   */\n    tag_239:\n        /* \"#utility.yul\":5168:5192   */\n      tag_305\n        /* \"#utility.yul\":5186:5191   */\n      dup2\n        /* \"#utility.yul\":5168:5192   */\n      tag_228\n      jump\t// in\n    tag_305:\n        /* \"#utility.yul\":5163:5166   */\n      dup3\n        /* \"#utility.yul\":5156:5193   */\n      mstore\n        /* \"#utility.yul\":5081:5199   */\n      pop\n      pop\n      jump\t// out\n        /* \"#utility.yul\":5205:5427   */\n    tag_71:\n        /* \"#utility.yul\":5298:5302   */\n      0x00\n        /* \"#utility.yul\":5336:5338   */\n      0x20\n        /* \"#utility.yul\":5325:5334   */\n      dup3\n        /* \"#utility.yul\":5321:5339   */\n      add\n        /* \"#utility.yul\":5313:5339   */\n      swap1\n      pop\n        /* \"#utility.yul\":5349:5420   */\n      tag_307\n        /* \"#utility.yul\":5417:5418   */\n      0x00\n        /* \"#utility.yul\":5406:5415   */\n      dup4\n        /* \"#utility.yul\":5402:5419   */\n      add\n        /* \"#utility.yul\":5393:5399   */\n      dup5\n        /* \"#utility.yul\":5349:5420   */\n      tag_239\n      jump\t// in\n    tag_307:\n        /* \"#utility.yul\":5205:5427   */\n      swap3\n      swap2\n      pop\n      pop\n      jump\t// out\n        /* \"#utility.yul\":5433:5907   */\n    tag_74:\n        /* \"#utility.yul\":5501:5507   */\n      0x00\n        /* \"#utility.yul\":5509:5515   */\n      0x00\n        /* \"#utility.yul\":5558:5560   */\n      0x40\n        /* \"#utility.yul\":5546:5555   */\n      dup4\n        /* \"#utility.yul\":5537:5544   */\n      dup6\n        /* \"#utility.yul\":5533:5556   */\n      sub\n        /* \"#utility.yul\":5529:5561   */\n      slt\n        /* \"#utility.yul\":5526:5645   */\n      iszero\n      tag_309\n      jumpi\n        /* \"#utility.yul\":5564:5643   */\n      tag_310\n      tag_225\n      jump\t// in\n    tag_310:\n        /* \"#utility.yul\":5526:5645   */\n    tag_309:\n        /* \"#utility.yul\":5684:5685   */\n      0x00\n        /* \"#utility.yul\":5709:5762   */\n      tag_311\n        /* \"#utility.yul\":5754:5761   */\n      dup6\n        /* \"#utility.yul\":5745:5751   */\n      dup3\n        /* \"#utility.yul\":5734:5743   */\n      dup7\n        /* \"#utility.yul\":5730:5752   */\n      add\n        /* \"#utility.yul\":5709:5762   */\n      tag_230\n      jump\t// in\n    tag_311:\n        /* \"#utility.yul\":5699:5762   */\n      swap3\n      pop\n        /* \"#utility.yul\":5655:5772   */\n      pop\n        /* \"#utility.yul\":5811:5813   */\n      0x20\n        /* \"#utility.yul\":5837:5890   */\n      tag_312\n        /* \"#utility.yul\":5882:5889   */\n      dup6\n        /* \"#utility.yul\":5873:5879   */\n      dup3\n        /* \"#utility.yul\":5862:5871   */\n      dup7\n        /* \"#utility.yul\":5858:5880   */\n      add\n        /* \"#utility.yul\":5837:5890   */\n      tag_230\n      jump\t// in\n    tag_312:\n        /* \"#utility.yul\":5827:5890   */\n      swap2\n      pop\n        /* \"#utility.yul\":5782:5900   */\n      pop\n        /* \"#utility.yul\":5433:5907   */\n      swap3\n      pop\n      swap3\n      swap1\n      pop\n      jump\t// out\n        /* \"#utility.yul\":5913:6093   */\n    tag_240:\n        /* \"#utility.yul\":5961:6038   */\n      0x4e487b7100000000000000000000000000000000000000000000000000000000\n        /* \"#utility.yul\":5958:5959   */\n      0x00\n        /* \"#utility.yul\":5951:6039   */\n      mstore\n        /* \"#utility.yul\":6058:6062   */\n      0x22\n        /* \"#utility.yul\":6055:6056   */\n      0x04\n        /* \"#utility.yul\":6048:6063   */\n      mstore\n        /* \"#utility.yul\":6082:6086   */\n      0x24\n        /* \"#utility.yul\":6079:6080   */\n      0x00\n        /* \"#utility.yul\":6072:6087   */\n      revert\n        /* \"#utility.yul\":6099:6419   */\n    tag_82:\n        /* \"#utility.yul\":6143:6149   */\n      0x00\n        /* \"#utility.yul\":6180:6181   */\n      0x02\n        /* \"#utility.yul\":6174:6178   */\n      dup3\n        /* \"#utility.yul\":6170:6182   */\n      div\n        /* \"#utility.yul\":6160:6182   */\n      swap1\n      pop\n        /* \"#utility.yul\":6227:6228   */\n      0x01\n        /* \"#utility.yul\":6221:6225   */\n      dup3\n        /* \"#utility.yul\":6217:6229   */\n      and\n        /* \"#utility.yul\":6248:6266   */\n      dup1\n        /* \"#utility.yul\":6238:6319   */\n      tag_315\n      jumpi\n        /* \"#utility.yul\":6304:6308   */\n      0x7f\n        /* \"#utility.yul\":6296:6302   */\n      dup3\n        /* \"#utility.yul\":6292:6309   */\n      and\n        /* \"#utility.yul\":6282:6309   */\n      swap2\n      pop\n        /* \"#utility.yul\":6238:6319   */\n    tag_315:\n        /* \"#utility.yul\":6366:6368   */\n      0x20\n        /* \"#utility.yul\":6358:6364   */\n      dup3\n        /* \"#utility.yul\":6355:6369   */\n      lt\n        /* \"#utility.yul\":6335:6353   */\n      dup2\n        /* \"#utility.yul\":6332:6370   */\n      sub\n        /* \"#utility.yul\":6329:6413   */\n      tag_316\n      jumpi\n        /* \"#utility.yul\":6385:6403   */\n      tag_317\n      tag_240\n      jump\t// in\n    tag_317:\n        /* \"#utility.yul\":6329:6413   */\n    tag_316:\n        /* \"#utility.yul\":6150:6419   */\n      pop\n        /* \"#utility.yul\":6099:6419   */\n      swap2\n      swap1\n      pop\n      jump\t// out\n        /* \"#utility.yul\":6425:6604   */\n    tag_241:\n        /* \"#utility.yul\":6565:6596   */\n      0x6f6e6c792061646d696e20616464726573732063616e20616363657373000000\n        /* \"#utility.yul\":6561:6562   */\n      0x00\n        /* \"#utility.yul\":6553:6559   */\n      dup3\n        /* \"#utility.yul\":6549:6563   */\n      add\n        /* \"#utility.yul\":6542:6597   */\n      mstore\n        /* \"#utility.yul\":6425:6604   */\n      pop\n      jump\t// out\n        /* \"#utility.yul\":6610:6976   */\n    tag_242:\n        /* \"#utility.yul\":6752:6755   */\n      0x00\n        /* \"#utility.yul\":6773:6840   */\n      tag_320\n        /* \"#utility.yul\":6837:6839   */\n      0x1d\n        /* \"#utility.yul\":6832:6835   */\n      dup4\n        /* \"#utility.yul\":6773:6840   */\n      tag_220\n      jump\t// in\n    tag_320:\n        /* \"#utility.yul\":6766:6840   */\n      swap2\n      pop\n        /* \"#utility.yul\":6849:6942   */\n      tag_321\n        /* \"#utility.yul\":6938:6941   */\n      dup3\n        /* \"#utility.yul\":6849:6942   */\n      tag_241\n      jump\t// in\n    tag_321:\n        /* \"#utility.yul\":6967:6969   */\n      0x20\n        /* \"#utility.yul\":6962:6965   */\n      dup3\n        /* \"#utility.yul\":6958:6970   */\n      add\n        /* \"#utility.yul\":6951:6970   */\n      swap1\n      pop\n        /* \"#utility.yul\":6610:6976   */\n      swap2\n      swap1\n      pop\n      jump\t// out\n        /* \"#utility.yul\":6982:7401   */\n    tag_105:\n        /* \"#utility.yul\":7148:7152   */\n      0x00\n        /* \"#utility.yul\":7186:7188   */\n      0x20\n        /* \"#utility.yul\":7175:7184   */\n      dup3\n        /* \"#utility.yul\":7171:7189   */\n      add\n        /* \"#utility.yul\":7163:7189   */\n      swap1\n      pop\n        /* \"#utility.yul\":7235:7244   */\n      dup2\n        /* \"#utility.yul\":7229:7233   */\n      dup2\n        /* \"#utility.yul\":7225:7245   */\n      sub\n        /* \"#utility.yul\":7221:7222   */\n      0x00\n        /* \"#utility.yul\":7210:7219   */\n      dup4\n        /* \"#utility.yul\":7206:7223   */\n      add\n        /* \"#utility.yul\":7199:7246   */\n      mstore\n        /* \"#utility.yul\":7263:7394   */\n      tag_323\n        /* \"#utility.yul\":7389:7393   */\n      dup2\n        /* \"#utility.yul\":7263:7394   */\n      tag_242\n      jump\t// in\n    tag_323:\n        /* \"#utility.yul\":7255:7394   */\n      swap1\n      pop\n        /* \"#utility.yul\":6982:7401   */\n      swap2\n      swap1\n      pop\n      jump\t// out\n        /* \"#utility.yul\":7407:7629   */\n    tag_243:\n        /* \"#utility.yul\":7547:7581   */\n      0x6f6e6c79206c6567616c206f776e657220616464726573732063616e20616363\n        /* \"#utility.yul\":7543:7544   */\n      0x00\n        /* \"#utility.yul\":7535:7541   */\n      dup3\n        /* \"#utility.yul\":7531:7545   */\n      add\n        /* \"#utility.yul\":7524:7582   */\n      mstore\n        /* \"#utility.yul\":7616:7621   */\n      0x6573730000000000000000000000000000000000000000000000000000000000\n        /* \"#utility.yul\":7611:7613   */\n      0x20\n        /* \"#utility.yul\":7603:7609   */\n      dup3\n        /* \"#utility.yul\":7599:7614   */\n      add\n        /* \"#utility.yul\":7592:7622   */\n      mstore\n        /* \"#utility.yul\":7407:7629   */\n      pop\n      jump\t// out\n        /* \"#utility.yul\":7635:8001   */\n    tag_244:\n        /* \"#utility.yul\":7777:7780   */\n      0x00\n        /* \"#utility.yul\":7798:7865   */\n      tag_326\n        /* \"#utility.yul\":7862:7864   */\n      0x23\n        /* \"#utility.yul\":7857:7860   */\n      dup4\n        /* \"#utility.yul\":7798:7865   */\n      tag_220\n      jump\t// in\n    tag_326:\n        /* \"#utility.yul\":7791:7865   */\n      swap2\n      pop\n        /* \"#utility.yul\":7874:7967   */\n      tag_327\n        /* \"#utility.yul\":7963:7966   */\n      dup3\n        /* \"#utility.yul\":7874:7967   */\n      tag_243\n      jump\t// in\n    tag_327:\n        /* \"#utility.yul\":7992:7994   */\n      0x40\n        /* \"#utility.yul\":7987:7990   */\n      dup3\n        /* \"#utility.yul\":7983:7995   */\n      add\n        /* \"#utility.yul\":7976:7995   */\n      swap1\n      pop\n        /* \"#utility.yul\":7635:8001   */\n      swap2\n      swap1\n      pop\n      jump\t// out\n        /* \"#utility.yul\":8007:8426   */\n    tag_146:\n        /* \"#utility.yul\":8173:8177   */\n      0x00\n        /* \"#utility.yul\":8211:8213   */\n      0x20\n        /* \"#utility.yul\":8200:8209   */\n      dup3\n        /* \"#utility.yul\":8196:8214   */\n      add\n        /* \"#utility.yul\":8188:8214   */\n      swap1\n      pop\n        /* \"#utility.yul\":8260:8269   */\n      dup2\n        /* \"#utility.yul\":8254:8258   */\n      dup2\n        /* \"#utility.yul\":8250:8270   */\n      sub\n        /* \"#utility.yul\":8246:8247   */\n      0x00\n        /* \"#utility.yul\":8235:8244   */\n      dup4\n        /* \"#utility.yul\":8231:8248   */\n      add\n        /* \"#utility.yul\":8224:8271   */\n      mstore\n        /* \"#utility.yul\":8288:8419   */\n      tag_329\n        /* \"#utility.yul\":8414:8418   */\n      dup2\n        /* \"#utility.yul\":8288:8419   */\n      tag_244\n      jump\t// in\n    tag_329:\n        /* \"#utility.yul\":8280:8419   */\n      swap1\n      pop\n        /* \"#utility.yul\":8007:8426   */\n      swap2\n      swap1\n      pop\n      jump\t// out\n        /* \"#utility.yul\":8432:8612   */\n    tag_245:\n        /* \"#utility.yul\":8480:8557   */\n      0x4e487b7100000000000000000000000000000000000000000000000000000000\n        /* \"#utility.yul\":8477:8478   */\n      0x00\n        /* \"#utility.yul\":8470:8558   */\n      mstore\n        /* \"#utility.yul\":8577:8581   */\n      0x11\n        /* \"#utility.yul\":8574:8575   */\n      0x04\n        /* \"#utility.yul\":8567:8582   */\n      mstore\n        /* \"#utility.yul\":8601:8605   */\n      0x24\n        /* \"#utility.yul\":8598:8599   */\n      0x00\n        /* \"#utility.yul\":8591:8606   */\n      revert\n        /* \"#utility.yul\":8618:8809   */\n    tag_152:\n        /* \"#utility.yul\":8658:8661   */\n      0x00\n        /* \"#utility.yul\":8677:8697   */\n      tag_332\n        /* \"#utility.yul\":8695:8696   */\n      dup3\n        /* \"#utility.yul\":8677:8697   */\n      tag_231\n      jump\t// in\n    tag_332:\n        /* \"#utility.yul\":8672:8697   */\n      swap2\n      pop\n        /* \"#utility.yul\":8711:8731   */\n      tag_333\n        /* \"#utility.yul\":8729:8730   */\n      dup4\n        /* \"#utility.yul\":8711:8731   */\n      tag_231\n      jump\t// in\n    tag_333:\n        /* \"#utility.yul\":8706:8731   */\n      swap3\n      pop\n        /* \"#utility.yul\":8754:8755   */\n      dup3\n        /* \"#utility.yul\":8751:8752   */\n      dup3\n        /* \"#utility.yul\":8747:8756   */\n      add\n        /* \"#utility.yul\":8740:8756   */\n      swap1\n      pop\n        /* \"#utility.yul\":8775:8778   */\n      dup1\n        /* \"#utility.yul\":8772:8773   */\n      dup3\n        /* \"#utility.yul\":8769:8779   */\n      gt\n        /* \"#utility.yul\":8766:8802   */\n      iszero\n      tag_334\n      jumpi\n        /* \"#utility.yul\":8782:8800   */\n      tag_335\n      tag_245\n      jump\t// in\n    tag_335:\n        /* \"#utility.yul\":8766:8802   */\n    tag_334:\n        /* \"#utility.yul\":8618:8809   */\n      swap3\n      swap2\n      pop\n      pop\n      jump\t// out\n        /* \"#utility.yul\":8815:9009   */\n    tag_156:\n        /* \"#utility.yul\":8855:8859   */\n      0x00\n        /* \"#utility.yul\":8875:8895   */\n      tag_337\n        /* \"#utility.yul\":8893:8894   */\n      dup3\n        /* \"#utility.yul\":8875:8895   */\n      tag_231\n      jump\t// in\n    tag_337:\n        /* \"#utility.yul\":8870:8895   */\n      swap2\n      pop\n        /* \"#utility.yul\":8909:8929   */\n      tag_338\n        /* \"#utility.yul\":8927:8928   */\n      dup4\n        /* \"#utility.yul\":8909:8929   */\n      tag_231\n      jump\t// in\n    tag_338:\n        /* \"#utility.yul\":8904:8929   */\n      swap3\n      pop\n        /* \"#utility.yul\":8953:8954   */\n      dup3\n        /* \"#utility.yul\":8950:8951   */\n      dup3\n        /* \"#utility.yul\":8946:8955   */\n      sub\n        /* \"#utility.yul\":8938:8955   */\n      swap1\n      pop\n        /* \"#utility.yul\":8977:8978   */\n      dup2\n        /* \"#utility.yul\":8971:8975   */\n      dup2\n        /* \"#utility.yul\":8968:8979   */\n      gt\n        /* \"#utility.yul\":8965:9002   */\n      iszero\n      tag_339\n      jumpi\n        /* \"#utility.yul\":8982:9000   */\n      tag_340\n      tag_245\n      jump\t// in\n    tag_340:\n        /* \"#utility.yul\":8965:9002   */\n    tag_339:\n        /* \"#utility.yul\":8815:9009   */\n      swap3\n      swap2\n      pop\n      pop\n      jump\t// out\n        /* \"#utility.yul\":9015:9457   */\n    tag_166:\n        /* \"#utility.yul\":9164:9168   */\n      0x00\n        /* \"#utility.yul\":9202:9204   */\n      0x60\n        /* \"#utility.yul\":9191:9200   */\n      dup3\n        /* \"#utility.yul\":9187:9205   */\n      add\n        /* \"#utility.yul\":9179:9205   */\n      swap1\n      pop\n        /* \"#utility.yul\":9215:9286   */\n      tag_342\n        /* \"#utility.yul\":9283:9284   */\n      0x00\n        /* \"#utility.yul\":9272:9281   */\n      dup4\n        /* \"#utility.yul\":9268:9285   */\n      add\n        /* \"#utility.yul\":9259:9265   */\n      dup7\n        /* \"#utility.yul\":9215:9286   */\n      tag_239\n      jump\t// in\n    tag_342:\n        /* \"#utility.yul\":9296:9368   */\n      tag_343\n        /* \"#utility.yul\":9364:9366   */\n      0x20\n        /* \"#utility.yul\":9353:9362   */\n      dup4\n        /* \"#utility.yul\":9349:9367   */\n      add\n        /* \"#utility.yul\":9340:9346   */\n      dup6\n        /* \"#utility.yul\":9296:9368   */\n      tag_236\n      jump\t// in\n    tag_343:\n        /* \"#utility.yul\":9378:9450   */\n      tag_344\n        /* \"#utility.yul\":9446:9448   */\n      0x40\n        /* \"#utility.yul\":9435:9444   */\n      dup4\n        /* \"#utility.yul\":9431:9449   */\n      add\n        /* \"#utility.yul\":9422:9428   */\n      dup5\n        /* \"#utility.yul\":9378:9450   */\n      tag_236\n      jump\t// in\n    tag_344:\n        /* \"#utility.yul\":9015:9457   */\n      swap5\n      swap4\n      pop\n      pop\n      pop\n      pop\n      jump\t// out\n\n    auxdata: 0xa26469706673582212203b105ef77bd6206590529d92c9f0d580a39215f32954639f23045bde9e16cca064736f6c634300081e0033\n}\n",
				"bytecode": {
					"linkReferences": {},
					"object": "608060405234801561000f575f5ffd5b5060405161202a38038061202a8339818101604052810190610031919061052c565b8181816003908161004291906107b2565b50806004908161005291906107b2565b5050506100643361008760201b60201c565b610080336b204fce5e3e2502611000000061011c60201b60201c565b5050610996565b806100da6100cf6040518060400160405280601c81526020017f4772616e7450726976696c656765732e61646d696e41646472657373000000008152506101a160201b60201c565b6101bd60201b60201c565b5f015f6101000a81548173ffffffffffffffffffffffffffffffffffffffff021916908373ffffffffffffffffffffffffffffffffffffffff16021790555050565b5f73ffffffffffffffffffffffffffffffffffffffff168273ffffffffffffffffffffffffffffffffffffffff160361018c575f6040517fec442f0500000000000000000000000000000000000000000000000000000000815260040161018391906108c0565b60405180910390fd5b61019d5f83836101c660201b60201c565b5050565b5f600182516020840120035f5260ff1960205f20169050919050565b5f819050919050565b5f73ffffffffffffffffffffffffffffffffffffffff168373ffffffffffffffffffffffffffffffffffffffff1603610216578060025f82825461020a9190610906565b925050819055506102e4565b5f5f5f8573ffffffffffffffffffffffffffffffffffffffff1673ffffffffffffffffffffffffffffffffffffffff1681526020019081526020015f205490508181101561029f578381836040517fe450d38c00000000000000000000000000000000000000000000000000000000815260040161029693929190610948565b60405180910390fd5b8181035f5f8673ffffffffffffffffffffffffffffffffffffffff1673ffffffffffffffffffffffffffffffffffffffff1681526020019081526020015f2081905550505b5f73ffffffffffffffffffffffffffffffffffffffff168273ffffffffffffffffffffffffffffffffffffffff160361032b578060025f8282540392505081905550610375565b805f5f8473ffffffffffffffffffffffffffffffffffffffff1673ffffffffffffffffffffffffffffffffffffffff1681526020019081526020015f205f82825401925050819055505b8173ffffffffffffffffffffffffffffffffffffffff168373ffffffffffffffffffffffffffffffffffffffff167fddf252ad1be2c89b69c2b068fc378daa952ba7f163c4a11628f55a4df523b3ef836040516103d2919061097d565b60405180910390a3505050565b5f604051905090565b5f5ffd5b5f5ffd5b5f5ffd5b5f5ffd5b5f601f19601f8301169050919050565b7f4e487b71000000000000000000000000000000000000000000000000000000005f52604160045260245ffd5b61043e826103f8565b810181811067ffffffffffffffff8211171561045d5761045c610408565b5b80604052505050565b5f61046f6103df565b905061047b8282610435565b919050565b5f67ffffffffffffffff82111561049a57610499610408565b5b6104a3826103f8565b9050602081019050919050565b8281835e5f83830152505050565b5f6104d06104cb84610480565b610466565b9050828152602081018484840111156104ec576104eb6103f4565b5b6104f78482856104b0565b509392505050565b5f82601f830112610513576105126103f0565b5b81516105238482602086016104be565b91505092915050565b5f5f60408385031215610542576105416103e8565b5b5f83015167ffffffffffffffff81111561055f5761055e6103ec565b5b61056b858286016104ff565b925050602083015167ffffffffffffffff81111561058c5761058b6103ec565b5b610598858286016104ff565b9150509250929050565b5f81519050919050565b7f4e487b71000000000000000000000000000000000000000000000000000000005f52602260045260245ffd5b5f60028204905060018216806105f057607f821691505b602082108103610603576106026105ac565b5b50919050565b5f819050815f5260205f209050919050565b5f6020601f8301049050919050565b5f82821b905092915050565b5f600883026106657fffffffffffffffffffffffffffffffffffffffffffffffffffffffffffffffff8261062a565b61066f868361062a565b95508019841693508086168417925050509392505050565b5f819050919050565b5f819050919050565b5f6106b36106ae6106a984610687565b610690565b610687565b9050919050565b5f819050919050565b6106cc83610699565b6106e06106d8826106ba565b848454610636565b825550505050565b5f5f905090565b6106f76106e8565b6107028184846106c3565b505050565b5b818110156107255761071a5f826106ef565b600181019050610708565b5050565b601f82111561076a5761073b81610609565b6107448461061b565b81016020851015610753578190505b61076761075f8561061b565b830182610707565b50505b505050565b5f82821c905092915050565b5f61078a5f198460080261076f565b1980831691505092915050565b5f6107a2838361077b565b9150826002028217905092915050565b6107bb826105a2565b67ffffffffffffffff8111156107d4576107d3610408565b5b6107de82546105d9565b6107e9828285610729565b5f60209050601f83116001811461081a575f8415610808578287015190505b6108128582610797565b865550610879565b601f19841661082886610609565b5f5b8281101561084f5784890151825560018201915060208501945060208101905061082a565b8683101561086c5784890151610868601f89168261077b565b8355505b6001600288020188555050505b505050505050565b5f73ffffffffffffffffffffffffffffffffffffffff82169050919050565b5f6108aa82610881565b9050919050565b6108ba816108a0565b82525050565b5f6020820190506108d35f8301846108b1565b92915050565b7f4e487b71000000000000000000000000000000000000000000000000000000005f52601160045260245ffd5b5f61091082610687565b915061091b83610687565b9250828201905080821115610933576109326108d9565b5b92915050565b61094281610687565b82525050565b5f60608201905061095b5f8301866108b1565b6109686020830185610939565b6109756040830184610939565b949350505050565b5f6020820190506109905f830184610939565b92915050565b611687806109a35f395ff3fe608060405234801561000f575f5ffd5b50600436106100f3575f3560e01c806370a0823111610095578063a9059cbb11610064578063a9059cbb14610271578063b2e6b912146102a1578063dd62ed3e146102bf578063efb98bcf146102ef576100f3565b806370a08231146101e95780638f2839701461021957806395cfbf6d1461023557806395d89b4114610253576100f3565b806323b872dd116100d157806323b872dd14610163578063313ce567146101935780633cc38f5c146101b157806340c10f19146101cd576100f3565b806306fdde03146100f7578063095ea7b31461011557806318160ddd14610145575b5f5ffd5b6100ff61030d565b60405161010c91906111d7565b60405180910390f35b61012f600480360381019061012a9190611288565b61039d565b60405161013c91906112e0565b60405180910390f35b61014d6103bf565b60405161015a9190611308565b60405180910390f35b61017d60048036038101906101789190611321565b6103c8565b60405161018a91906112e0565b60405180910390f35b61019b6103f6565b6040516101a8919061138c565b60405180910390f35b6101cb60048036038101906101c69190611288565b6103fe565b005b6101e760048036038101906101e29190611288565b610533565b005b61020360048036038101906101fe91906113a5565b6105b6565b6040516102109190611308565b60405180910390f35b610233600480360381019061022e91906113a5565b6105fb565b005b61023d6106e1565b60405161024a91906111d7565b60405180910390f35b61025b61071a565b60405161026891906111d7565b60405180910390f35b61028b60048036038101906102869190611288565b6107aa565b60405161029891906112e0565b60405180910390f35b6102a96107cc565b6040516102b691906113df565b60405180910390f35b6102d960048036038101906102d491906113f8565b6107da565b6040516102e69190611308565b60405180910390f35b6102f761085c565b6040516103049190611308565b60405180910390f35b60606003805461031c90611463565b80601f016020809104026020016040519081016040528092919081815260200182805461034890611463565b80156103935780601f1061036a57610100808354040283529160200191610393565b820191905f5260205f20905b81548152906001019060200180831161037657829003601f168201915b5050505050905090565b5f5f6103a761095c565b90506103b4818585610963565b600191505092915050565b5f600254905090565b5f5f6103d261095c565b90506103df858285610975565b6103ea858585610a08565b60019150509392505050565b5f6012905090565b610406610af8565b73ffffffffffffffffffffffffffffffffffffffff163373ffffffffffffffffffffffffffffffffffffffff1614610473576040517f0a2a9e3e00000000000000000000000000000000000000000000000000000000815260040161046a906114dd565b60405180910390fd5b5f73ffffffffffffffffffffffffffffffffffffffff168273ffffffffffffffffffffffffffffffffffffffff16036104d8576040517f5bb7a72300000000000000000000000000000000000000000000000000000000815260040160405180910390fd5b5f8103610511576040517fe16a8aa400000000000000000000000000000000000000000000000000000000815260040160405180910390fd5b5f61051b83610b66565b905042815f0181905550818160010181905550505050565b61053b610af8565b73ffffffffffffffffffffffffffffffffffffffff163373ffffffffffffffffffffffffffffffffffffffff16146105a8576040517f0a2a9e3e00000000000000000000000000000000000000000000000000000000815260040161059f906114dd565b60405180910390fd5b6105b28282610bcb565b5050565b5f5f5f8373ffffffffffffffffffffffffffffffffffffffff1673ffffffffffffffffffffffffffffffffffffffff1681526020019081526020015f20549050919050565b610603610af8565b73ffffffffffffffffffffffffffffffffffffffff163373ffffffffffffffffffffffffffffffffffffffff1614610670576040517f0a2a9e3e000000000000000000000000000000000000000000000000000000008152600401610667906114dd565b60405180910390fd5b5f73ffffffffffffffffffffffffffffffffffffffff168173ffffffffffffffffffffffffffffffffffffffff16036106d5576040517f5bb7a72300000000000000000000000000000000000000000000000000000000815260040160405180910390fd5b6106de81610c4a565b50565b6040518060400160405280601981526020017f4772616e7450726976696c656765732e4e616d6573706163650000000000000081525081565b60606004805461072990611463565b80601f016020809104026020016040519081016040528092919081815260200182805461075590611463565b80156107a05780601f10610777576101008083540402835291602001916107a0565b820191905f5260205f20905b81548152906001019060200180831161078357829003601f168201915b5050505050905090565b5f5f6107b461095c565b90506107c1818585610a08565b600191505092915050565b5f6107d5610af8565b905090565b5f60015f8473ffffffffffffffffffffffffffffffffffffffff1673ffffffffffffffffffffffffffffffffffffffff1681526020019081526020015f205f8373ffffffffffffffffffffffffffffffffffffffff1673ffffffffffffffffffffffffffffffffffffffff1681526020019081526020015f2054905092915050565b5f610865610af8565b73ffffffffffffffffffffffffffffffffffffffff163373ffffffffffffffffffffffffffffffffffffffff16141580156108a657506108a433610cd3565b155b156108e6576040517f5e9b54e10000000000000000000000000000000000000000000000000000000081526004016108dd9061156b565b60405180910390fd5b5f6108f033610b66565b90505f815f015490505f826001015490505f82148061090e57505f81145b1561091e575f9350505050610959565b42818361092b91906115b6565b101561093c575f9350505050610959565b42818361094991906115b6565b61095391906115e9565b93505050505b90565b5f33905090565b6109708383836001610d37565b505050565b5f61098084846107da565b90507fffffffffffffffffffffffffffffffffffffffffffffffffffffffffffffffff811015610a0257818110156109f3578281836040517ffb8f41b20000000000000000000000000000000000000000000000000000000081526004016109ea9392919061161c565b60405180910390fd5b610a0184848484035f610d37565b5b50505050565b5f73ffffffffffffffffffffffffffffffffffffffff168373ffffffffffffffffffffffffffffffffffffffff1603610a78575f6040517f96c6fd1e000000000000000000000000000000000000000000000000000000008152600401610a6f91906113df565b60405180910390fd5b5f73ffffffffffffffffffffffffffffffffffffffff168273ffffffffffffffffffffffffffffffffffffffff1603610ae8575f6040517fec442f05000000000000000000000000000000000000000000000000000000008152600401610adf91906113df565b60405180910390fd5b610af3838383610f06565b505050565b5f610b3f610b3a6040518060400160405280601c81526020017f4772616e7450726976696c656765732e61646d696e416464726573730000000081525061111f565b61113b565b5f015f9054906101000a900473ffffffffffffffffffffffffffffffffffffffff16905090565b5f5f610bb883610baa6040518060400160405280601981526020017f4772616e7450726976696c656765732e4e616d6573706163650000000000000081525061111f565b61114490919063ffffffff16565b9050610bc38161115e565b915050919050565b5f73ffffffffffffffffffffffffffffffffffffffff168273ffffffffffffffffffffffffffffffffffffffff1603610c3b575f6040517fec442f05000000000000000000000000000000000000000000000000000000008152600401610c3291906113df565b60405180910390fd5b610c465f8383610f06565b5050565b80610c91610c8c6040518060400160405280601c81526020017f4772616e7450726976696c656765732e61646d696e416464726573730000000081525061111f565b61113b565b5f015f6101000a81548173ffffffffffffffffffffffffffffffffffffffff021916908373ffffffffffffffffffffffffffffffffffffffff16021790555050565b5f5f610cde83610b66565b90505f815f015490505f826001015490505f821480610cfc57505f81145b15610d0c575f9350505050610d32565b8082610d1891906115b6565b421115610d2a575f9350505050610d32565b600193505050505b919050565b5f73ffffffffffffffffffffffffffffffffffffffff168473ffffffffffffffffffffffffffffffffffffffff1603610da7575f6040517fe602df05000000000000000000000000000000000000000000000000000000008152600401610d9e91906113df565b60405180910390fd5b5f73ffffffffffffffffffffffffffffffffffffffff168373ffffffffffffffffffffffffffffffffffffffff1603610e17575f6040517f94280d62000000000000000000000000000000000000000000000000000000008152600401610e0e91906113df565b60405180910390fd5b8160015f8673ffffffffffffffffffffffffffffffffffffffff1673ffffffffffffffffffffffffffffffffffffffff1681526020019081526020015f205f8573ffffffffffffffffffffffffffffffffffffffff1673ffffffffffffffffffffffffffffffffffffffff1681526020019081526020015f20819055508015610f00578273ffffffffffffffffffffffffffffffffffffffff168473ffffffffffffffffffffffffffffffffffffffff167f8c5be1e5ebec7d5bd14f71427d1e84f3dd0314c0f7b2291e5b200ac8c7c3b92584604051610ef79190611308565b60405180910390a35b50505050565b5f73ffffffffffffffffffffffffffffffffffffffff168373ffffffffffffffffffffffffffffffffffffffff1603610f56578060025f828254610f4a91906115b6565b92505081905550611024565b5f5f5f8573ffffffffffffffffffffffffffffffffffffffff1673ffffffffffffffffffffffffffffffffffffffff1681526020019081526020015f2054905081811015610fdf578381836040517fe450d38c000000000000000000000000000000000000000000000000000000008152600401610fd69392919061161c565b60405180910390fd5b8181035f5f8673ffffffffffffffffffffffffffffffffffffffff1673ffffffffffffffffffffffffffffffffffffffff1681526020019081526020015f2081905550505b5f73ffffffffffffffffffffffffffffffffffffffff168273ffffffffffffffffffffffffffffffffffffffff160361106b578060025f82825403925050819055506110b5565b805f5f8473ffffffffffffffffffffffffffffffffffffffff1673ffffffffffffffffffffffffffffffffffffffff1681526020019081526020015f205f82825401925050819055505b8173ffffffffffffffffffffffffffffffffffffffff168373ffffffffffffffffffffffffffffffffffffffff167fddf252ad1be2c89b69c2b068fc378daa952ba7f163c4a11628f55a4df523b3ef836040516111129190611308565b60405180910390a3505050565b5f600182516020840120035f5260ff1960205f20169050919050565b5f819050919050565b5f5f1960601c82165f528260205260405f20905092915050565b5f819050919050565b5f81519050919050565b5f82825260208201905092915050565b8281835e5f83830152505050565b5f601f19601f8301169050919050565b5f6111a982611167565b6111b38185611171565b93506111c3818560208601611181565b6111cc8161118f565b840191505092915050565b5f6020820190508181035f8301526111ef818461119f565b905092915050565b5f5ffd5b5f73ffffffffffffffffffffffffffffffffffffffff82169050919050565b5f611224826111fb565b9050919050565b6112348161121a565b811461123e575f5ffd5b50565b5f8135905061124f8161122b565b92915050565b5f819050919050565b61126781611255565b8114611271575f5ffd5b50565b5f813590506112828161125e565b92915050565b5f5f6040838503121561129e5761129d6111f7565b5b5f6112ab85828601611241565b92505060206112bc85828601611274565b9150509250929050565b5f8115159050919050565b6112da816112c6565b82525050565b5f6020820190506112f35f8301846112d1565b92915050565b61130281611255565b82525050565b5f60208201905061131b5f8301846112f9565b92915050565b5f5f5f60608486031215611338576113376111f7565b5b5f61134586828701611241565b935050602061135686828701611241565b925050604061136786828701611274565b9150509250925092565b5f60ff82169050919050565b61138681611371565b82525050565b5f60208201905061139f5f83018461137d565b92915050565b5f602082840312156113ba576113b96111f7565b5b5f6113c784828501611241565b91505092915050565b6113d98161121a565b82525050565b5f6020820190506113f25f8301846113d0565b92915050565b5f5f6040838503121561140e5761140d6111f7565b5b5f61141b85828601611241565b925050602061142c85828601611241565b9150509250929050565b7f4e487b71000000000000000000000000000000000000000000000000000000005f52602260045260245ffd5b5f600282049050600182168061147a57607f821691505b60208210810361148d5761148c611436565b5b50919050565b7f6f6e6c792061646d696e20616464726573732063616e206163636573730000005f82015250565b5f6114c7601d83611171565b91506114d282611493565b602082019050919050565b5f6020820190508181035f8301526114f4816114bb565b9050919050565b7f6f6e6c79206c6567616c206f776e657220616464726573732063616e206163635f8201527f6573730000000000000000000000000000000000000000000000000000000000602082015250565b5f611555602383611171565b9150611560826114fb565b604082019050919050565b5f6020820190508181035f83015261158281611549565b9050919050565b7f4e487b71000000000000000000000000000000000000000000000000000000005f52601160045260245ffd5b5f6115c082611255565b91506115cb83611255565b92508282019050808211156115e3576115e2611589565b5b92915050565b5f6115f382611255565b91506115fe83611255565b925082820390508181111561161657611615611589565b5b92915050565b5f60608201905061162f5f8301866113d0565b61163c60208301856112f9565b61164960408301846112f9565b94935050505056fea26469706673582212203b105ef77bd6206590529d92c9f0d580a39215f32954639f23045bde9e16cca064736f6c634300081e0033",
					"opcodes": "PUSH1 0x80 PUSH1 0x40 MSTORE CALLVALUE DUP1 ISZERO PUSH2 0xF JUMPI PUSH0 PUSH0 REVERT JUMPDEST POP PUSH1 0x40 MLOAD PUSH2 0x202A CODESIZE SUB DUP1 PUSH2 0x202A DUP4 CODECOPY DUP2 DUP2 ADD PUSH1 0x40 MSTORE DUP2 ADD SWAP1 PUSH2 0x31 SWAP2 SWAP1 PUSH2 0x52C JUMP JUMPDEST DUP2 DUP2 DUP2 PUSH1 0x3 SWAP1 DUP2 PUSH2 0x42 SWAP2 SWAP1 PUSH2 0x7B2 JUMP JUMPDEST POP DUP1 PUSH1 0x4 SWAP1 DUP2 PUSH2 0x52 SWAP2 SWAP1 PUSH2 0x7B2 JUMP JUMPDEST POP POP POP PUSH2 0x64 CALLER PUSH2 0x87 PUSH1 0x20 SHL PUSH1 0x20 SHR JUMP JUMPDEST PUSH2 0x80 CALLER PUSH12 0x204FCE5E3E25026110000000 PUSH2 0x11C PUSH1 0x20 SHL PUSH1 0x20 SHR JUMP JUMPDEST POP POP PUSH2 0x996 JUMP JUMPDEST DUP1 PUSH2 0xDA PUSH2 0xCF PUSH1 0x40 MLOAD DUP1 PUSH1 0x40 ADD PUSH1 0x40 MSTORE DUP1 PUSH1 0x1C DUP2 MSTORE PUSH1 0x20 ADD PUSH32 0x4772616E7450726976696C656765732E61646D696E4164647265737300000000 DUP2 MSTORE POP PUSH2 0x1A1 PUSH1 0x20 SHL PUSH1 0x20 SHR JUMP JUMPDEST PUSH2 0x1BD PUSH1 0x20 SHL PUSH1 0x20 SHR JUMP JUMPDEST PUSH0 ADD PUSH0 PUSH2 0x100 EXP DUP2 SLOAD DUP2 PUSH20 0xFFFFFFFFFFFFFFFFFFFFFFFFFFFFFFFFFFFFFFFF MUL NOT AND SWAP1 DUP4 PUSH20 0xFFFFFFFFFFFFFFFFFFFFFFFFFFFFFFFFFFFFFFFF AND MUL OR SWAP1 SSTORE POP POP JUMP JUMPDEST PUSH0 PUSH20 0xFFFFFFFFFFFFFFFFFFFFFFFFFFFFFFFFFFFFFFFF AND DUP3 PUSH20 0xFFFFFFFFFFFFFFFFFFFFFFFFFFFFFFFFFFFFFFFF AND SUB PUSH2 0x18C JUMPI PUSH0 PUSH1 0x40 MLOAD PUSH32 0xEC442F0500000000000000000000000000000000000000000000000000000000 DUP2 MSTORE PUSH1 0x4 ADD PUSH2 0x183 SWAP2 SWAP1 PUSH2 0x8C0 JUMP JUMPDEST PUSH1 0x40 MLOAD DUP1 SWAP2 SUB SWAP1 REVERT JUMPDEST PUSH2 0x19D PUSH0 DUP4 DUP4 PUSH2 0x1C6 PUSH1 0x20 SHL PUSH1 0x20 SHR JUMP JUMPDEST POP POP JUMP JUMPDEST PUSH0 PUSH1 0x1 DUP3 MLOAD PUSH1 0x20 DUP5 ADD KECCAK256 SUB PUSH0 MSTORE PUSH1 0xFF NOT PUSH1 0x20 PUSH0 KECCAK256 AND SWAP1 POP SWAP2 SWAP1 POP JUMP JUMPDEST PUSH0 DUP2 SWAP1 POP SWAP2 SWAP1 POP JUMP JUMPDEST PUSH0 PUSH20 0xFFFFFFFFFFFFFFFFFFFFFFFFFFFFFFFFFFFFFFFF AND DUP4 PUSH20 0xFFFFFFFFFFFFFFFFFFFFFFFFFFFFFFFFFFFFFFFF AND SUB PUSH2 0x216 JUMPI DUP1 PUSH1 0x2 PUSH0 DUP3 DUP3 SLOAD PUSH2 0x20A SWAP2 SWAP1 PUSH2 0x906 JUMP JUMPDEST SWAP3 POP POP DUP2 SWAP1 SSTORE POP PUSH2 0x2E4 JUMP JUMPDEST PUSH0 PUSH0 PUSH0 DUP6 PUSH20 0xFFFFFFFFFFFFFFFFFFFFFFFFFFFFFFFFFFFFFFFF AND PUSH20 0xFFFFFFFFFFFFFFFFFFFFFFFFFFFFFFFFFFFFFFFF AND DUP2 MSTORE PUSH1 0x20 ADD SWAP1 DUP2 MSTORE PUSH1 0x20 ADD PUSH0 KECCAK256 SLOAD SWAP1 POP DUP2 DUP2 LT ISZERO PUSH2 0x29F JUMPI DUP4 DUP2 DUP4 PUSH1 0x40 MLOAD PUSH32 0xE450D38C00000000000000000000000000000000000000000000000000000000 DUP2 MSTORE PUSH1 0x4 ADD PUSH2 0x296 SWAP4 SWAP3 SWAP2 SWAP1 PUSH2 0x948 JUMP JUMPDEST PUSH1 0x40 MLOAD DUP1 SWAP2 SUB SWAP1 REVERT JUMPDEST DUP2 DUP2 SUB PUSH0 PUSH0 DUP7 PUSH20 0xFFFFFFFFFFFFFFFFFFFFFFFFFFFFFFFFFFFFFFFF AND PUSH20 0xFFFFFFFFFFFFFFFFFFFFFFFFFFFFFFFFFFFFFFFF AND DUP2 MSTORE PUSH1 0x20 ADD SWAP1 DUP2 MSTORE PUSH1 0x20 ADD PUSH0 KECCAK256 DUP2 SWAP1 SSTORE POP POP JUMPDEST PUSH0 PUSH20 0xFFFFFFFFFFFFFFFFFFFFFFFFFFFFFFFFFFFFFFFF AND DUP3 PUSH20 0xFFFFFFFFFFFFFFFFFFFFFFFFFFFFFFFFFFFFFFFF AND SUB PUSH2 0x32B JUMPI DUP1 PUSH1 0x2 PUSH0 DUP3 DUP3 SLOAD SUB SWAP3 POP POP DUP2 SWAP1 SSTORE POP PUSH2 0x375 JUMP JUMPDEST DUP1 PUSH0 PUSH0 DUP5 PUSH20 0xFFFFFFFFFFFFFFFFFFFFFFFFFFFFFFFFFFFFFFFF AND PUSH20 0xFFFFFFFFFFFFFFFFFFFFFFFFFFFFFFFFFFFFFFFF AND DUP2 MSTORE PUSH1 0x20 ADD SWAP1 DUP2 MSTORE PUSH1 0x20 ADD PUSH0 KECCAK256 PUSH0 DUP3 DUP3 SLOAD ADD SWAP3 POP POP DUP2 SWAP1 SSTORE POP JUMPDEST DUP2 PUSH20 0xFFFFFFFFFFFFFFFFFFFFFFFFFFFFFFFFFFFFFFFF AND DUP4 PUSH20 0xFFFFFFFFFFFFFFFFFFFFFFFFFFFFFFFFFFFFFFFF AND PUSH32 0xDDF252AD1BE2C89B69C2B068FC378DAA952BA7F163C4A11628F55A4DF523B3EF DUP4 PUSH1 0x40 MLOAD PUSH2 0x3D2 SWAP2 SWAP1 PUSH2 0x97D JUMP JUMPDEST PUSH1 0x40 MLOAD DUP1 SWAP2 SUB SWAP1 LOG3 POP POP POP JUMP JUMPDEST PUSH0 PUSH1 0x40 MLOAD SWAP1 POP SWAP1 JUMP JUMPDEST PUSH0 PUSH0 REVERT JUMPDEST PUSH0 PUSH0 REVERT JUMPDEST PUSH0 PUSH0 REVERT JUMPDEST PUSH0 PUSH0 REVERT JUMPDEST PUSH0 PUSH1 0x1F NOT PUSH1 0x1F DUP4 ADD AND SWAP1 POP SWAP2 SWAP1 POP JUMP JUMPDEST PUSH32 0x4E487B7100000000000000000000000000000000000000000000000000000000 PUSH0 MSTORE PUSH1 0x41 PUSH1 0x4 MSTORE PUSH1 0x24 PUSH0 REVERT JUMPDEST PUSH2 0x43E DUP3 PUSH2 0x3F8 JUMP JUMPDEST DUP2 ADD DUP2 DUP2 LT PUSH8 0xFFFFFFFFFFFFFFFF DUP3 GT OR ISZERO PUSH2 0x45D JUMPI PUSH2 0x45C PUSH2 0x408 JUMP JUMPDEST JUMPDEST DUP1 PUSH1 0x40 MSTORE POP POP POP JUMP JUMPDEST PUSH0 PUSH2 0x46F PUSH2 0x3DF JUMP JUMPDEST SWAP1 POP PUSH2 0x47B DUP3 DUP3 PUSH2 0x435 JUMP JUMPDEST SWAP2 SWAP1 POP JUMP JUMPDEST PUSH0 PUSH8 0xFFFFFFFFFFFFFFFF DUP3 GT ISZERO PUSH2 0x49A JUMPI PUSH2 0x499 PUSH2 0x408 JUMP JUMPDEST JUMPDEST PUSH2 0x4A3 DUP3 PUSH2 0x3F8 JUMP JUMPDEST SWAP1 POP PUSH1 0x20 DUP2 ADD SWAP1 POP SWAP2 SWAP1 POP JUMP JUMPDEST DUP3 DUP2 DUP4 MCOPY PUSH0 DUP4 DUP4 ADD MSTORE POP POP POP JUMP JUMPDEST PUSH0 PUSH2 0x4D0 PUSH2 0x4CB DUP5 PUSH2 0x480 JUMP JUMPDEST PUSH2 0x466 JUMP JUMPDEST SWAP1 POP DUP3 DUP2 MSTORE PUSH1 0x20 DUP2 ADD DUP5 DUP5 DUP5 ADD GT ISZERO PUSH2 0x4EC JUMPI PUSH2 0x4EB PUSH2 0x3F4 JUMP JUMPDEST JUMPDEST PUSH2 0x4F7 DUP5 DUP3 DUP6 PUSH2 0x4B0 JUMP JUMPDEST POP SWAP4 SWAP3 POP POP POP JUMP JUMPDEST PUSH0 DUP3 PUSH1 0x1F DUP4 ADD SLT PUSH2 0x513 JUMPI PUSH2 0x512 PUSH2 0x3F0 JUMP JUMPDEST JUMPDEST DUP2 MLOAD PUSH2 0x523 DUP5 DUP3 PUSH1 0x20 DUP7 ADD PUSH2 0x4BE JUMP JUMPDEST SWAP2 POP POP SWAP3 SWAP2 POP POP JUMP JUMPDEST PUSH0 PUSH0 PUSH1 0x40 DUP4 DUP6 SUB SLT ISZERO PUSH2 0x542 JUMPI PUSH2 0x541 PUSH2 0x3E8 JUMP JUMPDEST JUMPDEST PUSH0 DUP4 ADD MLOAD PUSH8 0xFFFFFFFFFFFFFFFF DUP2 GT ISZERO PUSH2 0x55F JUMPI PUSH2 0x55E PUSH2 0x3EC JUMP JUMPDEST JUMPDEST PUSH2 0x56B DUP6 DUP3 DUP7 ADD PUSH2 0x4FF JUMP JUMPDEST SWAP3 POP POP PUSH1 0x20 DUP4 ADD MLOAD PUSH8 0xFFFFFFFFFFFFFFFF DUP2 GT ISZERO PUSH2 0x58C JUMPI PUSH2 0x58B PUSH2 0x3EC JUMP JUMPDEST JUMPDEST PUSH2 0x598 DUP6 DUP3 DUP7 ADD PUSH2 0x4FF JUMP JUMPDEST SWAP2 POP POP SWAP3 POP SWAP3 SWAP1 POP JUMP JUMPDEST PUSH0 DUP2 MLOAD SWAP1 POP SWAP2 SWAP1 POP JUMP JUMPDEST PUSH32 0x4E487B7100000000000000000000000000000000000000000000000000000000 PUSH0 MSTORE PUSH1 0x22 PUSH1 0x4 MSTORE PUSH1 0x24 PUSH0 REVERT JUMPDEST PUSH0 PUSH1 0x2 DUP3 DIV SWAP1 POP PUSH1 0x1 DUP3 AND DUP1 PUSH2 0x5F0 JUMPI PUSH1 0x7F DUP3 AND SWAP2 POP JUMPDEST PUSH1 0x20 DUP3 LT DUP2 SUB PUSH2 0x603 JUMPI PUSH2 0x602 PUSH2 0x5AC JUMP JUMPDEST JUMPDEST POP SWAP2 SWAP1 POP JUMP JUMPDEST PUSH0 DUP2 SWAP1 POP DUP2 PUSH0 MSTORE PUSH1 0x20 PUSH0 KECCAK256 SWAP1 POP SWAP2 SWAP1 POP JUMP JUMPDEST PUSH0 PUSH1 0x20 PUSH1 0x1F DUP4 ADD DIV SWAP1 POP SWAP2 SWAP1 POP JUMP JUMPDEST PUSH0 DUP3 DUP3 SHL SWAP1 POP SWAP3 SWAP2 POP POP JUMP JUMPDEST PUSH0 PUSH1 0x8 DUP4 MUL PUSH2 0x665 PUSH32 0xFFFFFFFFFFFFFFFFFFFFFFFFFFFFFFFFFFFFFFFFFFFFFFFFFFFFFFFFFFFFFFFF DUP3 PUSH2 0x62A JUMP JUMPDEST PUSH2 0x66F DUP7 DUP4 PUSH2 0x62A JUMP JUMPDEST SWAP6 POP DUP1 NOT DUP5 AND SWAP4 POP DUP1 DUP7 AND DUP5 OR SWAP3 POP POP POP SWAP4 SWAP3 POP POP POP JUMP JUMPDEST PUSH0 DUP2 SWAP1 POP SWAP2 SWAP1 POP JUMP JUMPDEST PUSH0 DUP2 SWAP1 POP SWAP2 SWAP1 POP JUMP JUMPDEST PUSH0 PUSH2 0x6B3 PUSH2 0x6AE PUSH2 0x6A9 DUP5 PUSH2 0x687 JUMP JUMPDEST PUSH2 0x690 JUMP JUMPDEST PUSH2 0x687 JUMP JUMPDEST SWAP1 POP SWAP2 SWAP1 POP JUMP JUMPDEST PUSH0 DUP2 SWAP1 POP SWAP2 SWAP1 POP JUMP JUMPDEST PUSH2 0x6CC DUP4 PUSH2 0x699 JUMP JUMPDEST PUSH2 0x6E0 PUSH2 0x6D8 DUP3 PUSH2 0x6BA JUMP JUMPDEST DUP5 DUP5 SLOAD PUSH2 0x636 JUMP JUMPDEST DUP3 SSTORE POP POP POP POP JUMP JUMPDEST PUSH0 PUSH0 SWAP1 POP SWAP1 JUMP JUMPDEST PUSH2 0x6F7 PUSH2 0x6E8 JUMP JUMPDEST PUSH2 0x702 DUP2 DUP5 DUP5 PUSH2 0x6C3 JUMP JUMPDEST POP POP POP JUMP JUMPDEST JUMPDEST DUP2 DUP2 LT ISZERO PUSH2 0x725 JUMPI PUSH2 0x71A PUSH0 DUP3 PUSH2 0x6EF JUMP JUMPDEST PUSH1 0x1 DUP2 ADD SWAP1 POP PUSH2 0x708 JUMP JUMPDEST POP POP JUMP JUMPDEST PUSH1 0x1F DUP3 GT ISZERO PUSH2 0x76A JUMPI PUSH2 0x73B DUP2 PUSH2 0x609 JUMP JUMPDEST PUSH2 0x744 DUP5 PUSH2 0x61B JUMP JUMPDEST DUP2 ADD PUSH1 0x20 DUP6 LT ISZERO PUSH2 0x753 JUMPI DUP2 SWAP1 POP JUMPDEST PUSH2 0x767 PUSH2 0x75F DUP6 PUSH2 0x61B JUMP JUMPDEST DUP4 ADD DUP3 PUSH2 0x707 JUMP JUMPDEST POP POP JUMPDEST POP POP POP JUMP JUMPDEST PUSH0 DUP3 DUP3 SHR SWAP1 POP SWAP3 SWAP2 POP POP JUMP JUMPDEST PUSH0 PUSH2 0x78A PUSH0 NOT DUP5 PUSH1 0x8 MUL PUSH2 0x76F JUMP JUMPDEST NOT DUP1 DUP4 AND SWAP2 POP POP SWAP3 SWAP2 POP POP JUMP JUMPDEST PUSH0 PUSH2 0x7A2 DUP4 DUP4 PUSH2 0x77B JUMP JUMPDEST SWAP2 POP DUP3 PUSH1 0x2 MUL DUP3 OR SWAP1 POP SWAP3 SWAP2 POP POP JUMP JUMPDEST PUSH2 0x7BB DUP3 PUSH2 0x5A2 JUMP JUMPDEST PUSH8 0xFFFFFFFFFFFFFFFF DUP2 GT ISZERO PUSH2 0x7D4 JUMPI PUSH2 0x7D3 PUSH2 0x408 JUMP JUMPDEST JUMPDEST PUSH2 0x7DE DUP3 SLOAD PUSH2 0x5D9 JUMP JUMPDEST PUSH2 0x7E9 DUP3 DUP3 DUP6 PUSH2 0x729 JUMP JUMPDEST PUSH0 PUSH1 0x20 SWAP1 POP PUSH1 0x1F DUP4 GT PUSH1 0x1 DUP2 EQ PUSH2 0x81A JUMPI PUSH0 DUP5 ISZERO PUSH2 0x808 JUMPI DUP3 DUP8 ADD MLOAD SWAP1 POP JUMPDEST PUSH2 0x812 DUP6 DUP3 PUSH2 0x797 JUMP JUMPDEST DUP7 SSTORE POP PUSH2 0x879 JUMP JUMPDEST PUSH1 0x1F NOT DUP5 AND PUSH2 0x828 DUP7 PUSH2 0x609 JUMP JUMPDEST PUSH0 JUMPDEST DUP3 DUP2 LT ISZERO PUSH2 0x84F JUMPI DUP5 DUP10 ADD MLOAD DUP3 SSTORE PUSH1 0x1 DUP3 ADD SWAP2 POP PUSH1 0x20 DUP6 ADD SWAP5 POP PUSH1 0x20 DUP2 ADD SWAP1 POP PUSH2 0x82A JUMP JUMPDEST DUP7 DUP4 LT ISZERO PUSH2 0x86C JUMPI DUP5 DUP10 ADD MLOAD PUSH2 0x868 PUSH1 0x1F DUP10 AND DUP3 PUSH2 0x77B JUMP JUMPDEST DUP4 SSTORE POP JUMPDEST PUSH1 0x1 PUSH1 0x2 DUP9 MUL ADD DUP9 SSTORE POP POP POP JUMPDEST POP POP POP POP POP POP JUMP JUMPDEST PUSH0 PUSH20 0xFFFFFFFFFFFFFFFFFFFFFFFFFFFFFFFFFFFFFFFF DUP3 AND SWAP1 POP SWAP2 SWAP1 POP JUMP JUMPDEST PUSH0 PUSH2 0x8AA DUP3 PUSH2 0x881 JUMP JUMPDEST SWAP1 POP SWAP2 SWAP1 POP JUMP JUMPDEST PUSH2 0x8BA DUP2 PUSH2 0x8A0 JUMP JUMPDEST DUP3 MSTORE POP POP JUMP JUMPDEST PUSH0 PUSH1 0x20 DUP3 ADD SWAP1 POP PUSH2 0x8D3 PUSH0 DUP4 ADD DUP5 PUSH2 0x8B1 JUMP JUMPDEST SWAP3 SWAP2 POP POP JUMP JUMPDEST PUSH32 0x4E487B7100000000000000000000000000000000000000000000000000000000 PUSH0 MSTORE PUSH1 0x11 PUSH1 0x4 MSTORE PUSH1 0x24 PUSH0 REVERT JUMPDEST PUSH0 PUSH2 0x910 DUP3 PUSH2 0x687 JUMP JUMPDEST SWAP2 POP PUSH2 0x91B DUP4 PUSH2 0x687 JUMP JUMPDEST SWAP3 POP DUP3 DUP3 ADD SWAP1 POP DUP1 DUP3 GT ISZERO PUSH2 0x933 JUMPI PUSH2 0x932 PUSH2 0x8D9 JUMP JUMPDEST JUMPDEST SWAP3 SWAP2 POP POP JUMP JUMPDEST PUSH2 0x942 DUP2 PUSH2 0x687 JUMP JUMPDEST DUP3 MSTORE POP POP JUMP JUMPDEST PUSH0 PUSH1 0x60 DUP3 ADD SWAP1 POP PUSH2 0x95B PUSH0 DUP4 ADD DUP7 PUSH2 0x8B1 JUMP JUMPDEST PUSH2 0x968 PUSH1 0x20 DUP4 ADD DUP6 PUSH2 0x939 JUMP JUMPDEST PUSH2 0x975 PUSH1 0x40 DUP4 ADD DUP5 PUSH2 0x939 JUMP JUMPDEST SWAP5 SWAP4 POP POP POP POP JUMP JUMPDEST PUSH0 PUSH1 0x20 DUP3 ADD SWAP1 POP PUSH2 0x990 PUSH0 DUP4 ADD DUP5 PUSH2 0x939 JUMP JUMPDEST SWAP3 SWAP2 POP POP JUMP JUMPDEST PUSH2 0x1687 DUP1 PUSH2 0x9A3 PUSH0 CODECOPY PUSH0 RETURN INVALID PUSH1 0x80 PUSH1 0x40 MSTORE CALLVALUE DUP1 ISZERO PUSH2 0xF JUMPI PUSH0 PUSH0 REVERT JUMPDEST POP PUSH1 0x4 CALLDATASIZE LT PUSH2 0xF3 JUMPI PUSH0 CALLDATALOAD PUSH1 0xE0 SHR DUP1 PUSH4 0x70A08231 GT PUSH2 0x95 JUMPI DUP1 PUSH4 0xA9059CBB GT PUSH2 0x64 JUMPI DUP1 PUSH4 0xA9059CBB EQ PUSH2 0x271 JUMPI DUP1 PUSH4 0xB2E6B912 EQ PUSH2 0x2A1 JUMPI DUP1 PUSH4 0xDD62ED3E EQ PUSH2 0x2BF JUMPI DUP1 PUSH4 0xEFB98BCF EQ PUSH2 0x2EF JUMPI PUSH2 0xF3 JUMP JUMPDEST DUP1 PUSH4 0x70A08231 EQ PUSH2 0x1E9 JUMPI DUP1 PUSH4 0x8F283970 EQ PUSH2 0x219 JUMPI DUP1 PUSH4 0x95CFBF6D EQ PUSH2 0x235 JUMPI DUP1 PUSH4 0x95D89B41 EQ PUSH2 0x253 JUMPI PUSH2 0xF3 JUMP JUMPDEST DUP1 PUSH4 0x23B872DD GT PUSH2 0xD1 JUMPI DUP1 PUSH4 0x23B872DD EQ PUSH2 0x163 JUMPI DUP1 PUSH4 0x313CE567 EQ PUSH2 0x193 JUMPI DUP1 PUSH4 0x3CC38F5C EQ PUSH2 0x1B1 JUMPI DUP1 PUSH4 0x40C10F19 EQ PUSH2 0x1CD JUMPI PUSH2 0xF3 JUMP JUMPDEST DUP1 PUSH4 0x6FDDE03 EQ PUSH2 0xF7 JUMPI DUP1 PUSH4 0x95EA7B3 EQ PUSH2 0x115 JUMPI DUP1 PUSH4 0x18160DDD EQ PUSH2 0x145 JUMPI JUMPDEST PUSH0 PUSH0 REVERT JUMPDEST PUSH2 0xFF PUSH2 0x30D JUMP JUMPDEST PUSH1 0x40 MLOAD PUSH2 0x10C SWAP2 SWAP1 PUSH2 0x11D7 JUMP JUMPDEST PUSH1 0x40 MLOAD DUP1 SWAP2 SUB SWAP1 RETURN JUMPDEST PUSH2 0x12F PUSH1 0x4 DUP1 CALLDATASIZE SUB DUP2 ADD SWAP1 PUSH2 0x12A SWAP2 SWAP1 PUSH2 0x1288 JUMP JUMPDEST PUSH2 0x39D JUMP JUMPDEST PUSH1 0x40 MLOAD PUSH2 0x13C SWAP2 SWAP1 PUSH2 0x12E0 JUMP JUMPDEST PUSH1 0x40 MLOAD DUP1 SWAP2 SUB SWAP1 RETURN JUMPDEST PUSH2 0x14D PUSH2 0x3BF JUMP JUMPDEST PUSH1 0x40 MLOAD PUSH2 0x15A SWAP2 SWAP1 PUSH2 0x1308 JUMP JUMPDEST PUSH1 0x40 MLOAD DUP1 SWAP2 SUB SWAP1 RETURN JUMPDEST PUSH2 0x17D PUSH1 0x4 DUP1 CALLDATASIZE SUB DUP2 ADD SWAP1 PUSH2 0x178 SWAP2 SWAP1 PUSH2 0x1321 JUMP JUMPDEST PUSH2 0x3C8 JUMP JUMPDEST PUSH1 0x40 MLOAD PUSH2 0x18A SWAP2 SWAP1 PUSH2 0x12E0 JUMP JUMPDEST PUSH1 0x40 MLOAD DUP1 SWAP2 SUB SWAP1 RETURN JUMPDEST PUSH2 0x19B PUSH2 0x3F6 JUMP JUMPDEST PUSH1 0x40 MLOAD PUSH2 0x1A8 SWAP2 SWAP1 PUSH2 0x138C JUMP JUMPDEST PUSH1 0x40 MLOAD DUP1 SWAP2 SUB SWAP1 RETURN JUMPDEST PUSH2 0x1CB PUSH1 0x4 DUP1 CALLDATASIZE SUB DUP2 ADD SWAP1 PUSH2 0x1C6 SWAP2 SWAP1 PUSH2 0x1288 JUMP JUMPDEST PUSH2 0x3FE JUMP JUMPDEST STOP JUMPDEST PUSH2 0x1E7 PUSH1 0x4 DUP1 CALLDATASIZE SUB DUP2 ADD SWAP1 PUSH2 0x1E2 SWAP2 SWAP1 PUSH2 0x1288 JUMP JUMPDEST PUSH2 0x533 JUMP JUMPDEST STOP JUMPDEST PUSH2 0x203 PUSH1 0x4 DUP1 CALLDATASIZE SUB DUP2 ADD SWAP1 PUSH2 0x1FE SWAP2 SWAP1 PUSH2 0x13A5 JUMP JUMPDEST PUSH2 0x5B6 JUMP JUMPDEST PUSH1 0x40 MLOAD PUSH2 0x210 SWAP2 SWAP1 PUSH2 0x1308 JUMP JUMPDEST PUSH1 0x40 MLOAD DUP1 SWAP2 SUB SWAP1 RETURN JUMPDEST PUSH2 0x233 PUSH1 0x4 DUP1 CALLDATASIZE SUB DUP2 ADD SWAP1 PUSH2 0x22E SWAP2 SWAP1 PUSH2 0x13A5 JUMP JUMPDEST PUSH2 0x5FB JUMP JUMPDEST STOP JUMPDEST PUSH2 0x23D PUSH2 0x6E1 JUMP JUMPDEST PUSH1 0x40 MLOAD PUSH2 0x24A SWAP2 SWAP1 PUSH2 0x11D7 JUMP JUMPDEST PUSH1 0x40 MLOAD DUP1 SWAP2 SUB SWAP1 RETURN JUMPDEST PUSH2 0x25B PUSH2 0x71A JUMP JUMPDEST PUSH1 0x40 MLOAD PUSH2 0x268 SWAP2 SWAP1 PUSH2 0x11D7 JUMP JUMPDEST PUSH1 0x40 MLOAD DUP1 SWAP2 SUB SWAP1 RETURN JUMPDEST PUSH2 0x28B PUSH1 0x4 DUP1 CALLDATASIZE SUB DUP2 ADD SWAP1 PUSH2 0x286 SWAP2 SWAP1 PUSH2 0x1288 JUMP JUMPDEST PUSH2 0x7AA JUMP JUMPDEST PUSH1 0x40 MLOAD PUSH2 0x298 SWAP2 SWAP1 PUSH2 0x12E0 JUMP JUMPDEST PUSH1 0x40 MLOAD DUP1 SWAP2 SUB SWAP1 RETURN JUMPDEST PUSH2 0x2A9 PUSH2 0x7CC JUMP JUMPDEST PUSH1 0x40 MLOAD PUSH2 0x2B6 SWAP2 SWAP1 PUSH2 0x13DF JUMP JUMPDEST PUSH1 0x40 MLOAD DUP1 SWAP2 SUB SWAP1 RETURN JUMPDEST PUSH2 0x2D9 PUSH1 0x4 DUP1 CALLDATASIZE SUB DUP2 ADD SWAP1 PUSH2 0x2D4 SWAP2 SWAP1 PUSH2 0x13F8 JUMP JUMPDEST PUSH2 0x7DA JUMP JUMPDEST PUSH1 0x40 MLOAD PUSH2 0x2E6 SWAP2 SWAP1 PUSH2 0x1308 JUMP JUMPDEST PUSH1 0x40 MLOAD DUP1 SWAP2 SUB SWAP1 RETURN JUMPDEST PUSH2 0x2F7 PUSH2 0x85C JUMP JUMPDEST PUSH1 0x40 MLOAD PUSH2 0x304 SWAP2 SWAP1 PUSH2 0x1308 JUMP JUMPDEST PUSH1 0x40 MLOAD DUP1 SWAP2 SUB SWAP1 RETURN JUMPDEST PUSH1 0x60 PUSH1 0x3 DUP1 SLOAD PUSH2 0x31C SWAP1 PUSH2 0x1463 JUMP JUMPDEST DUP1 PUSH1 0x1F ADD PUSH1 0x20 DUP1 SWAP2 DIV MUL PUSH1 0x20 ADD PUSH1 0x40 MLOAD SWAP1 DUP2 ADD PUSH1 0x40 MSTORE DUP1 SWAP3 SWAP2 SWAP1 DUP2 DUP2 MSTORE PUSH1 0x20 ADD DUP3 DUP1 SLOAD PUSH2 0x348 SWAP1 PUSH2 0x1463 JUMP JUMPDEST DUP1 ISZERO PUSH2 0x393 JUMPI DUP1 PUSH1 0x1F LT PUSH2 0x36A JUMPI PUSH2 0x100 DUP1 DUP4 SLOAD DIV MUL DUP4 MSTORE SWAP2 PUSH1 0x20 ADD SWAP2 PUSH2 0x393 JUMP JUMPDEST DUP3 ADD SWAP2 SWAP1 PUSH0 MSTORE PUSH1 0x20 PUSH0 KECCAK256 SWAP1 JUMPDEST DUP2 SLOAD DUP2 MSTORE SWAP1 PUSH1 0x1 ADD SWAP1 PUSH1 0x20 ADD DUP1 DUP4 GT PUSH2 0x376 JUMPI DUP3 SWAP1 SUB PUSH1 0x1F AND DUP3 ADD SWAP2 JUMPDEST POP POP POP POP POP SWAP1 POP SWAP1 JUMP JUMPDEST PUSH0 PUSH0 PUSH2 0x3A7 PUSH2 0x95C JUMP JUMPDEST SWAP1 POP PUSH2 0x3B4 DUP2 DUP6 DUP6 PUSH2 0x963 JUMP JUMPDEST PUSH1 0x1 SWAP2 POP POP SWAP3 SWAP2 POP POP JUMP JUMPDEST PUSH0 PUSH1 0x2 SLOAD SWAP1 POP SWAP1 JUMP JUMPDEST PUSH0 PUSH0 PUSH2 0x3D2 PUSH2 0x95C JUMP JUMPDEST SWAP1 POP PUSH2 0x3DF DUP6 DUP3 DUP6 PUSH2 0x975 JUMP JUMPDEST PUSH2 0x3EA DUP6 DUP6 DUP6 PUSH2 0xA08 JUMP JUMPDEST PUSH1 0x1 SWAP2 POP POP SWAP4 SWAP3 POP POP POP JUMP JUMPDEST PUSH0 PUSH1 0x12 SWAP1 POP SWAP1 JUMP JUMPDEST PUSH2 0x406 PUSH2 0xAF8 JUMP JUMPDEST PUSH20 0xFFFFFFFFFFFFFFFFFFFFFFFFFFFFFFFFFFFFFFFF AND CALLER PUSH20 0xFFFFFFFFFFFFFFFFFFFFFFFFFFFFFFFFFFFFFFFF AND EQ PUSH2 0x473 JUMPI PUSH1 0x40 MLOAD PUSH32 0xA2A9E3E00000000000000000000000000000000000000000000000000000000 DUP2 MSTORE PUSH1 0x4 ADD PUSH2 0x46A SWAP1 PUSH2 0x14DD JUMP JUMPDEST PUSH1 0x40 MLOAD DUP1 SWAP2 SUB SWAP1 REVERT JUMPDEST PUSH0 PUSH20 0xFFFFFFFFFFFFFFFFFFFFFFFFFFFFFFFFFFFFFFFF AND DUP3 PUSH20 0xFFFFFFFFFFFFFFFFFFFFFFFFFFFFFFFFFFFFFFFF AND SUB PUSH2 0x4D8 JUMPI PUSH1 0x40 MLOAD PUSH32 0x5BB7A72300000000000000000000000000000000000000000000000000000000 DUP2 MSTORE PUSH1 0x4 ADD PUSH1 0x40 MLOAD DUP1 SWAP2 SUB SWAP1 REVERT JUMPDEST PUSH0 DUP2 SUB PUSH2 0x511 JUMPI PUSH1 0x40 MLOAD PUSH32 0xE16A8AA400000000000000000000000000000000000000000000000000000000 DUP2 MSTORE PUSH1 0x4 ADD PUSH1 0x40 MLOAD DUP1 SWAP2 SUB SWAP1 REVERT JUMPDEST PUSH0 PUSH2 0x51B DUP4 PUSH2 0xB66 JUMP JUMPDEST SWAP1 POP TIMESTAMP DUP2 PUSH0 ADD DUP2 SWAP1 SSTORE POP DUP2 DUP2 PUSH1 0x1 ADD DUP2 SWAP1 SSTORE POP POP POP POP JUMP JUMPDEST PUSH2 0x53B PUSH2 0xAF8 JUMP JUMPDEST PUSH20 0xFFFFFFFFFFFFFFFFFFFFFFFFFFFFFFFFFFFFFFFF AND CALLER PUSH20 0xFFFFFFFFFFFFFFFFFFFFFFFFFFFFFFFFFFFFFFFF AND EQ PUSH2 0x5A8 JUMPI PUSH1 0x40 MLOAD PUSH32 0xA2A9E3E00000000000000000000000000000000000000000000000000000000 DUP2 MSTORE PUSH1 0x4 ADD PUSH2 0x59F SWAP1 PUSH2 0x14DD JUMP JUMPDEST PUSH1 0x40 MLOAD DUP1 SWAP2 SUB SWAP1 REVERT JUMPDEST PUSH2 0x5B2 DUP3 DUP3 PUSH2 0xBCB JUMP JUMPDEST POP POP JUMP JUMPDEST PUSH0 PUSH0 PUSH0 DUP4 PUSH20 0xFFFFFFFFFFFFFFFFFFFFFFFFFFFFFFFFFFFFFFFF AND PUSH20 0xFFFFFFFFFFFFFFFFFFFFFFFFFFFFFFFFFFFFFFFF AND DUP2 MSTORE PUSH1 0x20 ADD SWAP1 DUP2 MSTORE PUSH1 0x20 ADD PUSH0 KECCAK256 SLOAD SWAP1 POP SWAP2 SWAP1 POP JUMP JUMPDEST PUSH2 0x603 PUSH2 0xAF8 JUMP JUMPDEST PUSH20 0xFFFFFFFFFFFFFFFFFFFFFFFFFFFFFFFFFFFFFFFF AND CALLER PUSH20 0xFFFFFFFFFFFFFFFFFFFFFFFFFFFFFFFFFFFFFFFF AND EQ PUSH2 0x670 JUMPI PUSH1 0x40 MLOAD PUSH32 0xA2A9E3E00000000000000000000000000000000000000000000000000000000 DUP2 MSTORE PUSH1 0x4 ADD PUSH2 0x667 SWAP1 PUSH2 0x14DD JUMP JUMPDEST PUSH1 0x40 MLOAD DUP1 SWAP2 SUB SWAP1 REVERT JUMPDEST PUSH0 PUSH20 0xFFFFFFFFFFFFFFFFFFFFFFFFFFFFFFFFFFFFFFFF AND DUP2 PUSH20 0xFFFFFFFFFFFFFFFFFFFFFFFFFFFFFFFFFFFFFFFF AND SUB PUSH2 0x6D5 JUMPI PUSH1 0x40 MLOAD PUSH32 0x5BB7A72300000000000000000000000000000000000000000000000000000000 DUP2 MSTORE PUSH1 0x4 ADD PUSH1 0x40 MLOAD DUP1 SWAP2 SUB SWAP1 REVERT JUMPDEST PUSH2 0x6DE DUP2 PUSH2 0xC4A JUMP JUMPDEST POP JUMP JUMPDEST PUSH1 0x40 MLOAD DUP1 PUSH1 0x40 ADD PUSH1 0x40 MSTORE DUP1 PUSH1 0x19 DUP2 MSTORE PUSH1 0x20 ADD PUSH32 0x4772616E7450726976696C656765732E4E616D65737061636500000000000000 DUP2 MSTORE POP DUP2 JUMP JUMPDEST PUSH1 0x60 PUSH1 0x4 DUP1 SLOAD PUSH2 0x729 SWAP1 PUSH2 0x1463 JUMP JUMPDEST DUP1 PUSH1 0x1F ADD PUSH1 0x20 DUP1 SWAP2 DIV MUL PUSH1 0x20 ADD PUSH1 0x40 MLOAD SWAP1 DUP2 ADD PUSH1 0x40 MSTORE DUP1 SWAP3 SWAP2 SWAP1 DUP2 DUP2 MSTORE PUSH1 0x20 ADD DUP3 DUP1 SLOAD PUSH2 0x755 SWAP1 PUSH2 0x1463 JUMP JUMPDEST DUP1 ISZERO PUSH2 0x7A0 JUMPI DUP1 PUSH1 0x1F LT PUSH2 0x777 JUMPI PUSH2 0x100 DUP1 DUP4 SLOAD DIV MUL DUP4 MSTORE SWAP2 PUSH1 0x20 ADD SWAP2 PUSH2 0x7A0 JUMP JUMPDEST DUP3 ADD SWAP2 SWAP1 PUSH0 MSTORE PUSH1 0x20 PUSH0 KECCAK256 SWAP1 JUMPDEST DUP2 SLOAD DUP2 MSTORE SWAP1 PUSH1 0x1 ADD SWAP1 PUSH1 0x20 ADD DUP1 DUP4 GT PUSH2 0x783 JUMPI DUP3 SWAP1 SUB PUSH1 0x1F AND DUP3 ADD SWAP2 JUMPDEST POP POP POP POP POP SWAP1 POP SWAP1 JUMP JUMPDEST PUSH0 PUSH0 PUSH2 0x7B4 PUSH2 0x95C JUMP JUMPDEST SWAP1 POP PUSH2 0x7C1 DUP2 DUP6 DUP6 PUSH2 0xA08 JUMP JUMPDEST PUSH1 0x1 SWAP2 POP POP SWAP3 SWAP2 POP POP JUMP JUMPDEST PUSH0 PUSH2 0x7D5 PUSH2 0xAF8 JUMP JUMPDEST SWAP1 POP SWAP1 JUMP JUMPDEST PUSH0 PUSH1 0x1 PUSH0 DUP5 PUSH20 0xFFFFFFFFFFFFFFFFFFFFFFFFFFFFFFFFFFFFFFFF AND PUSH20 0xFFFFFFFFFFFFFFFFFFFFFFFFFFFFFFFFFFFFFFFF AND DUP2 MSTORE PUSH1 0x20 ADD SWAP1 DUP2 MSTORE PUSH1 0x20 ADD PUSH0 KECCAK256 PUSH0 DUP4 PUSH20 0xFFFFFFFFFFFFFFFFFFFFFFFFFFFFFFFFFFFFFFFF AND PUSH20 0xFFFFFFFFFFFFFFFFFFFFFFFFFFFFFFFFFFFFFFFF AND DUP2 MSTORE PUSH1 0x20 ADD SWAP1 DUP2 MSTORE PUSH1 0x20 ADD PUSH0 KECCAK256 SLOAD SWAP1 POP SWAP3 SWAP2 POP POP JUMP JUMPDEST PUSH0 PUSH2 0x865 PUSH2 0xAF8 JUMP JUMPDEST PUSH20 0xFFFFFFFFFFFFFFFFFFFFFFFFFFFFFFFFFFFFFFFF AND CALLER PUSH20 0xFFFFFFFFFFFFFFFFFFFFFFFFFFFFFFFFFFFFFFFF AND EQ ISZERO DUP1 ISZERO PUSH2 0x8A6 JUMPI POP PUSH2 0x8A4 CALLER PUSH2 0xCD3 JUMP JUMPDEST ISZERO JUMPDEST ISZERO PUSH2 0x8E6 JUMPI PUSH1 0x40 MLOAD PUSH32 0x5E9B54E100000000000000000000000000000000000000000000000000000000 DUP2 MSTORE PUSH1 0x4 ADD PUSH2 0x8DD SWAP1 PUSH2 0x156B JUMP JUMPDEST PUSH1 0x40 MLOAD DUP1 SWAP2 SUB SWAP1 REVERT JUMPDEST PUSH0 PUSH2 0x8F0 CALLER PUSH2 0xB66 JUMP JUMPDEST SWAP1 POP PUSH0 DUP2 PUSH0 ADD SLOAD SWAP1 POP PUSH0 DUP3 PUSH1 0x1 ADD SLOAD SWAP1 POP PUSH0 DUP3 EQ DUP1 PUSH2 0x90E JUMPI POP PUSH0 DUP2 EQ JUMPDEST ISZERO PUSH2 0x91E JUMPI PUSH0 SWAP4 POP POP POP POP PUSH2 0x959 JUMP JUMPDEST TIMESTAMP DUP2 DUP4 PUSH2 0x92B SWAP2 SWAP1 PUSH2 0x15B6 JUMP JUMPDEST LT ISZERO PUSH2 0x93C JUMPI PUSH0 SWAP4 POP POP POP POP PUSH2 0x959 JUMP JUMPDEST TIMESTAMP DUP2 DUP4 PUSH2 0x949 SWAP2 SWAP1 PUSH2 0x15B6 JUMP JUMPDEST PUSH2 0x953 SWAP2 SWAP1 PUSH2 0x15E9 JUMP JUMPDEST SWAP4 POP POP POP POP JUMPDEST SWAP1 JUMP JUMPDEST PUSH0 CALLER SWAP1 POP SWAP1 JUMP JUMPDEST PUSH2 0x970 DUP4 DUP4 DUP4 PUSH1 0x1 PUSH2 0xD37 JUMP JUMPDEST POP POP POP JUMP JUMPDEST PUSH0 PUSH2 0x980 DUP5 DUP5 PUSH2 0x7DA JUMP JUMPDEST SWAP1 POP PUSH32 0xFFFFFFFFFFFFFFFFFFFFFFFFFFFFFFFFFFFFFFFFFFFFFFFFFFFFFFFFFFFFFFFF DUP2 LT ISZERO PUSH2 0xA02 JUMPI DUP2 DUP2 LT ISZERO PUSH2 0x9F3 JUMPI DUP3 DUP2 DUP4 PUSH1 0x40 MLOAD PUSH32 0xFB8F41B200000000000000000000000000000000000000000000000000000000 DUP2 MSTORE PUSH1 0x4 ADD PUSH2 0x9EA SWAP4 SWAP3 SWAP2 SWAP1 PUSH2 0x161C JUMP JUMPDEST PUSH1 0x40 MLOAD DUP1 SWAP2 SUB SWAP1 REVERT JUMPDEST PUSH2 0xA01 DUP5 DUP5 DUP5 DUP5 SUB PUSH0 PUSH2 0xD37 JUMP JUMPDEST JUMPDEST POP POP POP POP JUMP JUMPDEST PUSH0 PUSH20 0xFFFFFFFFFFFFFFFFFFFFFFFFFFFFFFFFFFFFFFFF AND DUP4 PUSH20 0xFFFFFFFFFFFFFFFFFFFFFFFFFFFFFFFFFFFFFFFF AND SUB PUSH2 0xA78 JUMPI PUSH0 PUSH1 0x40 MLOAD PUSH32 0x96C6FD1E00000000000000000000000000000000000000000000000000000000 DUP2 MSTORE PUSH1 0x4 ADD PUSH2 0xA6F SWAP2 SWAP1 PUSH2 0x13DF JUMP JUMPDEST PUSH1 0x40 MLOAD DUP1 SWAP2 SUB SWAP1 REVERT JUMPDEST PUSH0 PUSH20 0xFFFFFFFFFFFFFFFFFFFFFFFFFFFFFFFFFFFFFFFF AND DUP3 PUSH20 0xFFFFFFFFFFFFFFFFFFFFFFFFFFFFFFFFFFFFFFFF AND SUB PUSH2 0xAE8 JUMPI PUSH0 PUSH1 0x40 MLOAD PUSH32 0xEC442F0500000000000000000000000000000000000000000000000000000000 DUP2 MSTORE PUSH1 0x4 ADD PUSH2 0xADF SWAP2 SWAP1 PUSH2 0x13DF JUMP JUMPDEST PUSH1 0x40 MLOAD DUP1 SWAP2 SUB SWAP1 REVERT JUMPDEST PUSH2 0xAF3 DUP4 DUP4 DUP4 PUSH2 0xF06 JUMP JUMPDEST POP POP POP JUMP JUMPDEST PUSH0 PUSH2 0xB3F PUSH2 0xB3A PUSH1 0x40 MLOAD DUP1 PUSH1 0x40 ADD PUSH1 0x40 MSTORE DUP1 PUSH1 0x1C DUP2 MSTORE PUSH1 0x20 ADD PUSH32 0x4772616E7450726976696C656765732E61646D696E4164647265737300000000 DUP2 MSTORE POP PUSH2 0x111F JUMP JUMPDEST PUSH2 0x113B JUMP JUMPDEST PUSH0 ADD PUSH0 SWAP1 SLOAD SWAP1 PUSH2 0x100 EXP SWAP1 DIV PUSH20 0xFFFFFFFFFFFFFFFFFFFFFFFFFFFFFFFFFFFFFFFF AND SWAP1 POP SWAP1 JUMP JUMPDEST PUSH0 PUSH0 PUSH2 0xBB8 DUP4 PUSH2 0xBAA PUSH1 0x40 MLOAD DUP1 PUSH1 0x40 ADD PUSH1 0x40 MSTORE DUP1 PUSH1 0x19 DUP2 MSTORE PUSH1 0x20 ADD PUSH32 0x4772616E7450726976696C656765732E4E616D65737061636500000000000000 DUP2 MSTORE POP PUSH2 0x111F JUMP JUMPDEST PUSH2 0x1144 SWAP1 SWAP2 SWAP1 PUSH4 0xFFFFFFFF AND JUMP JUMPDEST SWAP1 POP PUSH2 0xBC3 DUP2 PUSH2 0x115E JUMP JUMPDEST SWAP2 POP POP SWAP2 SWAP1 POP JUMP JUMPDEST PUSH0 PUSH20 0xFFFFFFFFFFFFFFFFFFFFFFFFFFFFFFFFFFFFFFFF AND DUP3 PUSH20 0xFFFFFFFFFFFFFFFFFFFFFFFFFFFFFFFFFFFFFFFF AND SUB PUSH2 0xC3B JUMPI PUSH0 PUSH1 0x40 MLOAD PUSH32 0xEC442F0500000000000000000000000000000000000000000000000000000000 DUP2 MSTORE PUSH1 0x4 ADD PUSH2 0xC32 SWAP2 SWAP1 PUSH2 0x13DF JUMP JUMPDEST PUSH1 0x40 MLOAD DUP1 SWAP2 SUB SWAP1 REVERT JUMPDEST PUSH2 0xC46 PUSH0 DUP4 DUP4 PUSH2 0xF06 JUMP JUMPDEST POP POP JUMP JUMPDEST DUP1 PUSH2 0xC91 PUSH2 0xC8C PUSH1 0x40 MLOAD DUP1 PUSH1 0x40 ADD PUSH1 0x40 MSTORE DUP1 PUSH1 0x1C DUP2 MSTORE PUSH1 0x20 ADD PUSH32 0x4772616E7450726976696C656765732E61646D696E4164647265737300000000 DUP2 MSTORE POP PUSH2 0x111F JUMP JUMPDEST PUSH2 0x113B JUMP JUMPDEST PUSH0 ADD PUSH0 PUSH2 0x100 EXP DUP2 SLOAD DUP2 PUSH20 0xFFFFFFFFFFFFFFFFFFFFFFFFFFFFFFFFFFFFFFFF MUL NOT AND SWAP1 DUP4 PUSH20 0xFFFFFFFFFFFFFFFFFFFFFFFFFFFFFFFFFFFFFFFF AND MUL OR SWAP1 SSTORE POP POP JUMP JUMPDEST PUSH0 PUSH0 PUSH2 0xCDE DUP4 PUSH2 0xB66 JUMP JUMPDEST SWAP1 POP PUSH0 DUP2 PUSH0 ADD SLOAD SWAP1 POP PUSH0 DUP3 PUSH1 0x1 ADD SLOAD SWAP1 POP PUSH0 DUP3 EQ DUP1 PUSH2 0xCFC JUMPI POP PUSH0 DUP2 EQ JUMPDEST ISZERO PUSH2 0xD0C JUMPI PUSH0 SWAP4 POP POP POP POP PUSH2 0xD32 JUMP JUMPDEST DUP1 DUP3 PUSH2 0xD18 SWAP2 SWAP1 PUSH2 0x15B6 JUMP JUMPDEST TIMESTAMP GT ISZERO PUSH2 0xD2A JUMPI PUSH0 SWAP4 POP POP POP POP PUSH2 0xD32 JUMP JUMPDEST PUSH1 0x1 SWAP4 POP POP POP POP JUMPDEST SWAP2 SWAP1 POP JUMP JUMPDEST PUSH0 PUSH20 0xFFFFFFFFFFFFFFFFFFFFFFFFFFFFFFFFFFFFFFFF AND DUP5 PUSH20 0xFFFFFFFFFFFFFFFFFFFFFFFFFFFFFFFFFFFFFFFF AND SUB PUSH2 0xDA7 JUMPI PUSH0 PUSH1 0x40 MLOAD PUSH32 0xE602DF0500000000000000000000000000000000000000000000000000000000 DUP2 MSTORE PUSH1 0x4 ADD PUSH2 0xD9E SWAP2 SWAP1 PUSH2 0x13DF JUMP JUMPDEST PUSH1 0x40 MLOAD DUP1 SWAP2 SUB SWAP1 REVERT JUMPDEST PUSH0 PUSH20 0xFFFFFFFFFFFFFFFFFFFFFFFFFFFFFFFFFFFFFFFF AND DUP4 PUSH20 0xFFFFFFFFFFFFFFFFFFFFFFFFFFFFFFFFFFFFFFFF AND SUB PUSH2 0xE17 JUMPI PUSH0 PUSH1 0x40 MLOAD PUSH32 0x94280D6200000000000000000000000000000000000000000000000000000000 DUP2 MSTORE PUSH1 0x4 ADD PUSH2 0xE0E SWAP2 SWAP1 PUSH2 0x13DF JUMP JUMPDEST PUSH1 0x40 MLOAD DUP1 SWAP2 SUB SWAP1 REVERT JUMPDEST DUP2 PUSH1 0x1 PUSH0 DUP7 PUSH20 0xFFFFFFFFFFFFFFFFFFFFFFFFFFFFFFFFFFFFFFFF AND PUSH20 0xFFFFFFFFFFFFFFFFFFFFFFFFFFFFFFFFFFFFFFFF AND DUP2 MSTORE PUSH1 0x20 ADD SWAP1 DUP2 MSTORE PUSH1 0x20 ADD PUSH0 KECCAK256 PUSH0 DUP6 PUSH20 0xFFFFFFFFFFFFFFFFFFFFFFFFFFFFFFFFFFFFFFFF AND PUSH20 0xFFFFFFFFFFFFFFFFFFFFFFFFFFFFFFFFFFFFFFFF AND DUP2 MSTORE PUSH1 0x20 ADD SWAP1 DUP2 MSTORE PUSH1 0x20 ADD PUSH0 KECCAK256 DUP2 SWAP1 SSTORE POP DUP1 ISZERO PUSH2 0xF00 JUMPI DUP3 PUSH20 0xFFFFFFFFFFFFFFFFFFFFFFFFFFFFFFFFFFFFFFFF AND DUP5 PUSH20 0xFFFFFFFFFFFFFFFFFFFFFFFFFFFFFFFFFFFFFFFF AND PUSH32 0x8C5BE1E5EBEC7D5BD14F71427D1E84F3DD0314C0F7B2291E5B200AC8C7C3B925 DUP5 PUSH1 0x40 MLOAD PUSH2 0xEF7 SWAP2 SWAP1 PUSH2 0x1308 JUMP JUMPDEST PUSH1 0x40 MLOAD DUP1 SWAP2 SUB SWAP1 LOG3 JUMPDEST POP POP POP POP JUMP JUMPDEST PUSH0 PUSH20 0xFFFFFFFFFFFFFFFFFFFFFFFFFFFFFFFFFFFFFFFF AND DUP4 PUSH20 0xFFFFFFFFFFFFFFFFFFFFFFFFFFFFFFFFFFFFFFFF AND SUB PUSH2 0xF56 JUMPI DUP1 PUSH1 0x2 PUSH0 DUP3 DUP3 SLOAD PUSH2 0xF4A SWAP2 SWAP1 PUSH2 0x15B6 JUMP JUMPDEST SWAP3 POP POP DUP2 SWAP1 SSTORE POP PUSH2 0x1024 JUMP JUMPDEST PUSH0 PUSH0 PUSH0 DUP6 PUSH20 0xFFFFFFFFFFFFFFFFFFFFFFFFFFFFFFFFFFFFFFFF AND PUSH20 0xFFFFFFFFFFFFFFFFFFFFFFFFFFFFFFFFFFFFFFFF AND DUP2 MSTORE PUSH1 0x20 ADD SWAP1 DUP2 MSTORE PUSH1 0x20 ADD PUSH0 KECCAK256 SLOAD SWAP1 POP DUP2 DUP2 LT ISZERO PUSH2 0xFDF JUMPI DUP4 DUP2 DUP4 PUSH1 0x40 MLOAD PUSH32 0xE450D38C00000000000000000000000000000000000000000000000000000000 DUP2 MSTORE PUSH1 0x4 ADD PUSH2 0xFD6 SWAP4 SWAP3 SWAP2 SWAP1 PUSH2 0x161C JUMP JUMPDEST PUSH1 0x40 MLOAD DUP1 SWAP2 SUB SWAP1 REVERT JUMPDEST DUP2 DUP2 SUB PUSH0 PUSH0 DUP7 PUSH20 0xFFFFFFFFFFFFFFFFFFFFFFFFFFFFFFFFFFFFFFFF AND PUSH20 0xFFFFFFFFFFFFFFFFFFFFFFFFFFFFFFFFFFFFFFFF AND DUP2 MSTORE PUSH1 0x20 ADD SWAP1 DUP2 MSTORE PUSH1 0x20 ADD PUSH0 KECCAK256 DUP2 SWAP1 SSTORE POP POP JUMPDEST PUSH0 PUSH20 0xFFFFFFFFFFFFFFFFFFFFFFFFFFFFFFFFFFFFFFFF AND DUP3 PUSH20 0xFFFFFFFFFFFFFFFFFFFFFFFFFFFFFFFFFFFFFFFF AND SUB PUSH2 0x106B JUMPI DUP1 PUSH1 0x2 PUSH0 DUP3 DUP3 SLOAD SUB SWAP3 POP POP DUP2 SWAP1 SSTORE POP PUSH2 0x10B5 JUMP JUMPDEST DUP1 PUSH0 PUSH0 DUP5 PUSH20 0xFFFFFFFFFFFFFFFFFFFFFFFFFFFFFFFFFFFFFFFF AND PUSH20 0xFFFFFFFFFFFFFFFFFFFFFFFFFFFFFFFFFFFFFFFF AND DUP2 MSTORE PUSH1 0x20 ADD SWAP1 DUP2 MSTORE PUSH1 0x20 ADD PUSH0 KECCAK256 PUSH0 DUP3 DUP3 SLOAD ADD SWAP3 POP POP DUP2 SWAP1 SSTORE POP JUMPDEST DUP2 PUSH20 0xFFFFFFFFFFFFFFFFFFFFFFFFFFFFFFFFFFFFFFFF AND DUP4 PUSH20 0xFFFFFFFFFFFFFFFFFFFFFFFFFFFFFFFFFFFFFFFF AND PUSH32 0xDDF252AD1BE2C89B69C2B068FC378DAA952BA7F163C4A11628F55A4DF523B3EF DUP4 PUSH1 0x40 MLOAD PUSH2 0x1112 SWAP2 SWAP1 PUSH2 0x1308 JUMP JUMPDEST PUSH1 0x40 MLOAD DUP1 SWAP2 SUB SWAP1 LOG3 POP POP POP JUMP JUMPDEST PUSH0 PUSH1 0x1 DUP3 MLOAD PUSH1 0x20 DUP5 ADD KECCAK256 SUB PUSH0 MSTORE PUSH1 0xFF NOT PUSH1 0x20 PUSH0 KECCAK256 AND SWAP1 POP SWAP2 SWAP1 POP JUMP JUMPDEST PUSH0 DUP2 SWAP1 POP SWAP2 SWAP1 POP JUMP JUMPDEST PUSH0 PUSH0 NOT PUSH1 0x60 SHR DUP3 AND PUSH0 MSTORE DUP3 PUSH1 0x20 MSTORE PUSH1 0x40 PUSH0 KECCAK256 SWAP1 POP SWAP3 SWAP2 POP POP JUMP JUMPDEST PUSH0 DUP2 SWAP1 POP SWAP2 SWAP1 POP JUMP JUMPDEST PUSH0 DUP2 MLOAD SWAP1 POP SWAP2 SWAP1 POP JUMP JUMPDEST PUSH0 DUP3 DUP3 MSTORE PUSH1 0x20 DUP3 ADD SWAP1 POP SWAP3 SWAP2 POP POP JUMP JUMPDEST DUP3 DUP2 DUP4 MCOPY PUSH0 DUP4 DUP4 ADD MSTORE POP POP POP JUMP JUMPDEST PUSH0 PUSH1 0x1F NOT PUSH1 0x1F DUP4 ADD AND SWAP1 POP SWAP2 SWAP1 POP JUMP JUMPDEST PUSH0 PUSH2 0x11A9 DUP3 PUSH2 0x1167 JUMP JUMPDEST PUSH2 0x11B3 DUP2 DUP6 PUSH2 0x1171 JUMP JUMPDEST SWAP4 POP PUSH2 0x11C3 DUP2 DUP6 PUSH1 0x20 DUP7 ADD PUSH2 0x1181 JUMP JUMPDEST PUSH2 0x11CC DUP2 PUSH2 0x118F JUMP JUMPDEST DUP5 ADD SWAP2 POP POP SWAP3 SWAP2 POP POP JUMP JUMPDEST PUSH0 PUSH1 0x20 DUP3 ADD SWAP1 POP DUP2 DUP2 SUB PUSH0 DUP4 ADD MSTORE PUSH2 0x11EF DUP2 DUP5 PUSH2 0x119F JUMP JUMPDEST SWAP1 POP SWAP3 SWAP2 POP POP JUMP JUMPDEST PUSH0 PUSH0 REVERT JUMPDEST PUSH0 PUSH20 0xFFFFFFFFFFFFFFFFFFFFFFFFFFFFFFFFFFFFFFFF DUP3 AND SWAP1 POP SWAP2 SWAP1 POP JUMP JUMPDEST PUSH0 PUSH2 0x1224 DUP3 PUSH2 0x11FB JUMP JUMPDEST SWAP1 POP SWAP2 SWAP1 POP JUMP JUMPDEST PUSH2 0x1234 DUP2 PUSH2 0x121A JUMP JUMPDEST DUP2 EQ PUSH2 0x123E JUMPI PUSH0 PUSH0 REVERT JUMPDEST POP JUMP JUMPDEST PUSH0 DUP2 CALLDATALOAD SWAP1 POP PUSH2 0x124F DUP2 PUSH2 0x122B JUMP JUMPDEST SWAP3 SWAP2 POP POP JUMP JUMPDEST PUSH0 DUP2 SWAP1 POP SWAP2 SWAP1 POP JUMP JUMPDEST PUSH2 0x1267 DUP2 PUSH2 0x1255 JUMP JUMPDEST DUP2 EQ PUSH2 0x1271 JUMPI PUSH0 PUSH0 REVERT JUMPDEST POP JUMP JUMPDEST PUSH0 DUP2 CALLDATALOAD SWAP1 POP PUSH2 0x1282 DUP2 PUSH2 0x125E JUMP JUMPDEST SWAP3 SWAP2 POP POP JUMP JUMPDEST PUSH0 PUSH0 PUSH1 0x40 DUP4 DUP6 SUB SLT ISZERO PUSH2 0x129E JUMPI PUSH2 0x129D PUSH2 0x11F7 JUMP JUMPDEST JUMPDEST PUSH0 PUSH2 0x12AB DUP6 DUP3 DUP7 ADD PUSH2 0x1241 JUMP JUMPDEST SWAP3 POP POP PUSH1 0x20 PUSH2 0x12BC DUP6 DUP3 DUP7 ADD PUSH2 0x1274 JUMP JUMPDEST SWAP2 POP POP SWAP3 POP SWAP3 SWAP1 POP JUMP JUMPDEST PUSH0 DUP2 ISZERO ISZERO SWAP1 POP SWAP2 SWAP1 POP JUMP JUMPDEST PUSH2 0x12DA DUP2 PUSH2 0x12C6 JUMP JUMPDEST DUP3 MSTORE POP POP JUMP JUMPDEST PUSH0 PUSH1 0x20 DUP3 ADD SWAP1 POP PUSH2 0x12F3 PUSH0 DUP4 ADD DUP5 PUSH2 0x12D1 JUMP JUMPDEST SWAP3 SWAP2 POP POP JUMP JUMPDEST PUSH2 0x1302 DUP2 PUSH2 0x1255 JUMP JUMPDEST DUP3 MSTORE POP POP JUMP JUMPDEST PUSH0 PUSH1 0x20 DUP3 ADD SWAP1 POP PUSH2 0x131B PUSH0 DUP4 ADD DUP5 PUSH2 0x12F9 JUMP JUMPDEST SWAP3 SWAP2 POP POP JUMP JUMPDEST PUSH0 PUSH0 PUSH0 PUSH1 0x60 DUP5 DUP7 SUB SLT ISZERO PUSH2 0x1338 JUMPI PUSH2 0x1337 PUSH2 0x11F7 JUMP JUMPDEST JUMPDEST PUSH0 PUSH2 0x1345 DUP7 DUP3 DUP8 ADD PUSH2 0x1241 JUMP JUMPDEST SWAP4 POP POP PUSH1 0x20 PUSH2 0x1356 DUP7 DUP3 DUP8 ADD PUSH2 0x1241 JUMP JUMPDEST SWAP3 POP POP PUSH1 0x40 PUSH2 0x1367 DUP7 DUP3 DUP8 ADD PUSH2 0x1274 JUMP JUMPDEST SWAP2 POP POP SWAP3 POP SWAP3 POP SWAP3 JUMP JUMPDEST PUSH0 PUSH1 0xFF DUP3 AND SWAP1 POP SWAP2 SWAP1 POP JUMP JUMPDEST PUSH2 0x1386 DUP2 PUSH2 0x1371 JUMP JUMPDEST DUP3 MSTORE POP POP JUMP JUMPDEST PUSH0 PUSH1 0x20 DUP3 ADD SWAP1 POP PUSH2 0x139F PUSH0 DUP4 ADD DUP5 PUSH2 0x137D JUMP JUMPDEST SWAP3 SWAP2 POP POP JUMP JUMPDEST PUSH0 PUSH1 0x20 DUP3 DUP5 SUB SLT ISZERO PUSH2 0x13BA JUMPI PUSH2 0x13B9 PUSH2 0x11F7 JUMP JUMPDEST JUMPDEST PUSH0 PUSH2 0x13C7 DUP5 DUP3 DUP6 ADD PUSH2 0x1241 JUMP JUMPDEST SWAP2 POP POP SWAP3 SWAP2 POP POP JUMP JUMPDEST PUSH2 0x13D9 DUP2 PUSH2 0x121A JUMP JUMPDEST DUP3 MSTORE POP POP JUMP JUMPDEST PUSH0 PUSH1 0x20 DUP3 ADD SWAP1 POP PUSH2 0x13F2 PUSH0 DUP4 ADD DUP5 PUSH2 0x13D0 JUMP JUMPDEST SWAP3 SWAP2 POP POP JUMP JUMPDEST PUSH0 PUSH0 PUSH1 0x40 DUP4 DUP6 SUB SLT ISZERO PUSH2 0x140E JUMPI PUSH2 0x140D PUSH2 0x11F7 JUMP JUMPDEST JUMPDEST PUSH0 PUSH2 0x141B DUP6 DUP3 DUP7 ADD PUSH2 0x1241 JUMP JUMPDEST SWAP3 POP POP PUSH1 0x20 PUSH2 0x142C DUP6 DUP3 DUP7 ADD PUSH2 0x1241 JUMP JUMPDEST SWAP2 POP POP SWAP3 POP SWAP3 SWAP1 POP JUMP JUMPDEST PUSH32 0x4E487B7100000000000000000000000000000000000000000000000000000000 PUSH0 MSTORE PUSH1 0x22 PUSH1 0x4 MSTORE PUSH1 0x24 PUSH0 REVERT JUMPDEST PUSH0 PUSH1 0x2 DUP3 DIV SWAP1 POP PUSH1 0x1 DUP3 AND DUP1 PUSH2 0x147A JUMPI PUSH1 0x7F DUP3 AND SWAP2 POP JUMPDEST PUSH1 0x20 DUP3 LT DUP2 SUB PUSH2 0x148D JUMPI PUSH2 0x148C PUSH2 0x1436 JUMP JUMPDEST JUMPDEST POP SWAP2 SWAP1 POP JUMP JUMPDEST PUSH32 0x6F6E6C792061646D696E20616464726573732063616E20616363657373000000 PUSH0 DUP3 ADD MSTORE POP JUMP JUMPDEST PUSH0 PUSH2 0x14C7 PUSH1 0x1D DUP4 PUSH2 0x1171 JUMP JUMPDEST SWAP2 POP PUSH2 0x14D2 DUP3 PUSH2 0x1493 JUMP JUMPDEST PUSH1 0x20 DUP3 ADD SWAP1 POP SWAP2 SWAP1 POP JUMP JUMPDEST PUSH0 PUSH1 0x20 DUP3 ADD SWAP1 POP DUP2 DUP2 SUB PUSH0 DUP4 ADD MSTORE PUSH2 0x14F4 DUP2 PUSH2 0x14BB JUMP JUMPDEST SWAP1 POP SWAP2 SWAP1 POP JUMP JUMPDEST PUSH32 0x6F6E6C79206C6567616C206F776E657220616464726573732063616E20616363 PUSH0 DUP3 ADD MSTORE PUSH32 0x6573730000000000000000000000000000000000000000000000000000000000 PUSH1 0x20 DUP3 ADD MSTORE POP JUMP JUMPDEST PUSH0 PUSH2 0x1555 PUSH1 0x23 DUP4 PUSH2 0x1171 JUMP JUMPDEST SWAP2 POP PUSH2 0x1560 DUP3 PUSH2 0x14FB JUMP JUMPDEST PUSH1 0x40 DUP3 ADD SWAP1 POP SWAP2 SWAP1 POP JUMP JUMPDEST PUSH0 PUSH1 0x20 DUP3 ADD SWAP1 POP DUP2 DUP2 SUB PUSH0 DUP4 ADD MSTORE PUSH2 0x1582 DUP2 PUSH2 0x1549 JUMP JUMPDEST SWAP1 POP SWAP2 SWAP1 POP JUMP JUMPDEST PUSH32 0x4E487B7100000000000000000000000000000000000000000000000000000000 PUSH0 MSTORE PUSH1 0x11 PUSH1 0x4 MSTORE PUSH1 0x24 PUSH0 REVERT JUMPDEST PUSH0 PUSH2 0x15C0 DUP3 PUSH2 0x1255 JUMP JUMPDEST SWAP2 POP PUSH2 0x15CB DUP4 PUSH2 0x1255 JUMP JUMPDEST SWAP3 POP DUP3 DUP3 ADD SWAP1 POP DUP1 DUP3 GT ISZERO PUSH2 0x15E3 JUMPI PUSH2 0x15E2 PUSH2 0x1589 JUMP JUMPDEST JUMPDEST SWAP3 SWAP2 POP POP JUMP JUMPDEST PUSH0 PUSH2 0x15F3 DUP3 PUSH2 0x1255 JUMP JUMPDEST SWAP2 POP PUSH2 0x15FE DUP4 PUSH2 0x1255 JUMP JUMPDEST SWAP3 POP DUP3 DUP3 SUB SWAP1 POP DUP2 DUP2 GT ISZERO PUSH2 0x1616 JUMPI PUSH2 0x1615 PUSH2 0x1589 JUMP JUMPDEST JUMPDEST SWAP3 SWAP2 POP POP JUMP JUMPDEST PUSH0 PUSH1 0x60 DUP3 ADD SWAP1 POP PUSH2 0x162F PUSH0 DUP4 ADD DUP7 PUSH2 0x13D0 JUMP JUMPDEST PUSH2 0x163C PUSH1 0x20 DUP4 ADD DUP6 PUSH2 0x12F9 JUMP JUMPDEST PUSH2 0x1649 PUSH1 0x40 DUP4 ADD DUP5 PUSH2 0x12F9 JUMP JUMPDEST SWAP5 SWAP4 POP POP POP POP JUMP INVALID LOG2 PUSH5 0x6970667358 0x22 SLT KECCAK256 EXTCODESIZE LT MCOPY 0xF7 PUSH28 0xD6206590529D92C9F0D580A39215F32954639F23045BDE9E16CCA064 PUSH20 0x6F6C634300081E00330000000000000000000000 "
				},
				"gasEstimates": {
					"creation": {
						"codeDepositCost": "1153400",
						"executionCost": "infinite",
						"totalCost": "infinite"
					},
					"external": {
						"GRANTPRIVILEGES_NAMESPACE()": "infinite",
						"addOwner(address,uint256)": "infinite",
						"allowance(address,address)": "infinite",
						"approve(address,uint256)": "infinite",
						"balanceOf(address)": "2851",
						"changeAdmin(address)": "infinite",
						"decimals()": "383",
						"getAdminAddress()": "2844",
						"getRemainingTime()": "infinite",
						"mint(address,uint256)": "infinite",
						"name()": "infinite",
						"symbol()": "infinite",
						"totalSupply()": "2500",
						"transfer(address,uint256)": "infinite",
						"transferFrom(address,address,uint256)": "infinite"
					}
				},
				"methodIdentifiers": {
					"GRANTPRIVILEGES_NAMESPACE()": "95cfbf6d",
					"addOwner(address,uint256)": "3cc38f5c",
					"allowance(address,address)": "dd62ed3e",
					"approve(address,uint256)": "095ea7b3",
					"balanceOf(address)": "70a08231",
					"changeAdmin(address)": "8f283970",
					"decimals()": "313ce567",
					"getAdminAddress()": "b2e6b912",
					"getRemainingTime()": "efb98bcf",
					"mint(address,uint256)": "40c10f19",
					"name()": "06fdde03",
					"symbol()": "95d89b41",
					"totalSupply()": "18160ddd",
					"transfer(address,uint256)": "a9059cbb",
					"transferFrom(address,address,uint256)": "23b872dd"
				}
			},
			"storageLayout": {
				"storage": [
					{
						"astId": 159,
						"contract": "contracts/token/ERC20/CustomeERC20.sol:MyERC20",
						"label": "_balances",
						"offset": 0,
						"slot": "0",
						"type": "t_mapping(t_address,t_uint256)"
					},
					{
						"astId": 165,
						"contract": "contracts/token/ERC20/CustomeERC20.sol:MyERC20",
						"label": "_allowances",
						"offset": 0,
						"slot": "1",
						"type": "t_mapping(t_address,t_mapping(t_address,t_uint256))"
					},
					{
						"astId": 167,
						"contract": "contracts/token/ERC20/CustomeERC20.sol:MyERC20",
						"label": "_totalSupply",
						"offset": 0,
						"slot": "2",
						"type": "t_uint256"
					},
					{
						"astId": 169,
						"contract": "contracts/token/ERC20/CustomeERC20.sol:MyERC20",
						"label": "_name",
						"offset": 0,
						"slot": "3",
						"type": "t_string_storage"
					},
					{
						"astId": 171,
						"contract": "contracts/token/ERC20/CustomeERC20.sol:MyERC20",
						"label": "_symbol",
						"offset": 0,
						"slot": "4",
						"type": "t_string_storage"
					}
				],
				"types": {
					"t_address": {
						"encoding": "inplace",
						"label": "address",
						"numberOfBytes": "20"
					},
					"t_mapping(t_address,t_mapping(t_address,t_uint256))": {
						"encoding": "mapping",
						"key": "t_address",
						"label": "mapping(address => mapping(address => uint256))",
						"numberOfBytes": "32",
						"value": "t_mapping(t_address,t_uint256)"
					},
					"t_mapping(t_address,t_uint256)": {
						"encoding": "mapping",
						"key": "t_address",
						"label": "mapping(address => uint256)",
						"numberOfBytes": "32",
						"value": "t_uint256"
					},
					"t_string_storage": {
						"encoding": "bytes",
						"label": "string",
						"numberOfBytes": "32"
					},
					"t_uint256": {
						"encoding": "inplace",
						"label": "uint256",
						"numberOfBytes": "32"
					}
				}
			},
			"userdoc": {
				"kind": "user",
				"methods": {},
				"version": 1
			}
		}
	}
}