{
	"contracts/ERC712Storage.sol": {
		"ERC712Storage": {
			"abi": [
				{
					"inputs": [],
					"stateMutability": "nonpayable",
					"type": "constructor"
				},
				{
					"inputs": [],
					"name": "ECDSAInvalidSignature",
					"type": "error"
				},
				{
					"inputs": [
						{
							"internalType": "uint256",
							"name": "length",
							"type": "uint256"
						}
					],
					"name": "ECDSAInvalidSignatureLength",
					"type": "error"
				},
				{
					"inputs": [
						{
							"internalType": "bytes32",
							"name": "s",
							"type": "bytes32"
						}
					],
					"name": "ECDSAInvalidSignatureS",
					"type": "error"
				},
				{
					"inputs": [],
					"name": "number",
					"outputs": [
						{
							"internalType": "uint256",
							"name": "",
							"type": "uint256"
						}
					],
					"stateMutability": "view",
					"type": "function"
				},
				{
					"inputs": [],
					"name": "owner",
					"outputs": [
						{
							"internalType": "address",
							"name": "",
							"type": "address"
						}
					],
					"stateMutability": "view",
					"type": "function"
				},
				{
					"inputs": [
						{
							"internalType": "uint256",
							"name": "_num",
							"type": "uint256"
						},
						{
							"internalType": "bytes",
							"name": "_signature",
							"type": "bytes"
						}
					],
					"name": "permitStore",
					"outputs": [],
					"stateMutability": "nonpayable",
					"type": "function"
				}
			],
			"devdoc": {
				"errors": {
					"ECDSAInvalidSignature()": [
						{
							"details": "The signature derives the `address(0)`."
						}
					],
					"ECDSAInvalidSignatureLength(uint256)": [
						{
							"details": "The signature has an invalid length."
						}
					],
					"ECDSAInvalidSignatureS(bytes32)": [
						{
							"details": "The signature has an S value that is in the upper half order."
						}
					]
				},
				"kind": "dev",
				"methods": {},
				"version": 1
			},
			"evm": {
				"assembly": "    /* \"contracts/ERC712Storage.sol\":120:2270  contract ERC712Storage {... */\n  mstore(0x40, 0x80)\n    /* \"contracts/ERC712Storage.sol\":723:1054  constructor() {... */\n  callvalue\n  dup1\n  iszero\n  tag_1\n  jumpi\n  revert(0x00, 0x00)\ntag_1:\n  pop\n    /* \"contracts/ERC712Storage.sol\":270:365  keccak256(\"EIP712Domain(string name,string version,uint256 chainId,address verifyingContract)\") */\n  0x8b73c3c69bb8fe3d512ecc4cf759cc79239f7b179b0ffacaa9a75d522b39400f\n    /* \"contracts/ERC712Storage.sol\":845:867  bytes(\"EIP712Storage\") */\n  mload(0x40)\n  dup1\n  0x40\n  add\n  0x40\n  mstore\n  dup1\n  0x0d\n  dup2\n  mstore\n  0x20\n  add\n  0x45495037313253746f7261676500000000000000000000000000000000000000\n  dup2\n  mstore\n  pop\n    /* \"contracts/ERC712Storage.sol\":835:868  keccak256(bytes(\"EIP712Storage\")) */\n  dup1\n  mload\n  swap1\n  0x20\n  add\n  keccak256\n    /* \"contracts/ERC712Storage.sol\":900:910  bytes(\"1\") */\n  mload(0x40)\n  dup1\n  0x40\n  add\n  0x40\n  mstore\n  dup1\n  0x01\n  dup2\n  mstore\n  0x20\n  add\n  0x3100000000000000000000000000000000000000000000000000000000000000\n  dup2\n  mstore\n  pop\n    /* \"contracts/ERC712Storage.sol\":890:911  keccak256(bytes(\"1\")) */\n  dup1\n  mload\n  swap1\n  0x20\n  add\n  keccak256\n    /* \"contracts/ERC712Storage.sol\":936:949  block.chainid */\n  chainid\n    /* \"contracts/ERC712Storage.sol\":983:987  this */\n  address\n    /* \"contracts/ERC712Storage.sol\":776:1018  abi.encode(... */\n  add(0x20, mload(0x40))\n  tag_4\n  swap6\n  swap5\n  swap4\n  swap3\n  swap2\n  swap1\n  tag_5\n  jump\t// in\ntag_4:\n  mload(0x40)\n  0x20\n  dup2\n  dup4\n  sub\n  sub\n  dup2\n  mstore\n  swap1\n  0x40\n  mstore\n    /* \"contracts/ERC712Storage.sol\":766:1019  keccak256(abi.encode(... */\n  dup1\n  mload\n  swap1\n  0x20\n  add\n  keccak256\n    /* \"contracts/ERC712Storage.sol\":747:763  DOMAIN_SEPARATOR */\n  0x00\n    /* \"contracts/ERC712Storage.sol\":747:1019  DOMAIN_SEPARATOR = keccak256(abi.encode(... */\n  dup2\n  swap1\n  sstore\n  pop\n    /* \"contracts/ERC712Storage.sol\":1037:1047  msg.sender */\n  caller\n    /* \"contracts/ERC712Storage.sol\":1029:1034  owner */\n  0x02\n  0x00\n    /* \"contracts/ERC712Storage.sol\":1029:1047  owner = msg.sender */\n  0x0100\n  exp\n  dup2\n  sload\n  dup2\n  0xffffffffffffffffffffffffffffffffffffffff\n  mul\n  not\n  and\n  swap1\n  dup4\n  0xffffffffffffffffffffffffffffffffffffffff\n  and\n  mul\n  or\n  swap1\n  sstore\n  pop\n    /* \"contracts/ERC712Storage.sol\":120:2270  contract ERC712Storage {... */\n  jump(tag_6)\n    /* \"#utility.yul\":7:84   */\ntag_7:\n    /* \"#utility.yul\":44:51   */\n  0x00\n    /* \"#utility.yul\":73:78   */\n  dup2\n    /* \"#utility.yul\":62:78   */\n  swap1\n  pop\n    /* \"#utility.yul\":7:84   */\n  swap2\n  swap1\n  pop\n  jump\t// out\n    /* \"#utility.yul\":90:208   */\ntag_8:\n    /* \"#utility.yul\":177:201   */\n  tag_17\n    /* \"#utility.yul\":195:200   */\n  dup2\n    /* \"#utility.yul\":177:201   */\n  tag_7\n  jump\t// in\ntag_17:\n    /* \"#utility.yul\":172:175   */\n  dup3\n    /* \"#utility.yul\":165:202   */\n  mstore\n    /* \"#utility.yul\":90:208   */\n  pop\n  pop\n  jump\t// out\n    /* \"#utility.yul\":214:291   */\ntag_9:\n    /* \"#utility.yul\":251:258   */\n  0x00\n    /* \"#utility.yul\":280:285   */\n  dup2\n    /* \"#utility.yul\":269:285   */\n  swap1\n  pop\n    /* \"#utility.yul\":214:291   */\n  swap2\n  swap1\n  pop\n  jump\t// out\n    /* \"#utility.yul\":297:415   */\ntag_10:\n    /* \"#utility.yul\":384:408   */\n  tag_20\n    /* \"#utility.yul\":402:407   */\n  dup2\n    /* \"#utility.yul\":384:408   */\n  tag_9\n  jump\t// in\ntag_20:\n    /* \"#utility.yul\":379:382   */\n  dup3\n    /* \"#utility.yul\":372:409   */\n  mstore\n    /* \"#utility.yul\":297:415   */\n  pop\n  pop\n  jump\t// out\n    /* \"#utility.yul\":421:547   */\ntag_11:\n    /* \"#utility.yul\":458:465   */\n  0x00\n    /* \"#utility.yul\":498:540   */\n  0xffffffffffffffffffffffffffffffffffffffff\n    /* \"#utility.yul\":491:496   */\n  dup3\n    /* \"#utility.yul\":487:541   */\n  and\n    /* \"#utility.yul\":476:541   */\n  swap1\n  pop\n    /* \"#utility.yul\":421:547   */\n  swap2\n  swap1\n  pop\n  jump\t// out\n    /* \"#utility.yul\":553:649   */\ntag_12:\n    /* \"#utility.yul\":590:597   */\n  0x00\n    /* \"#utility.yul\":619:643   */\n  tag_23\n    /* \"#utility.yul\":637:642   */\n  dup3\n    /* \"#utility.yul\":619:643   */\n  tag_11\n  jump\t// in\ntag_23:\n    /* \"#utility.yul\":608:643   */\n  swap1\n  pop\n    /* \"#utility.yul\":553:649   */\n  swap2\n  swap1\n  pop\n  jump\t// out\n    /* \"#utility.yul\":655:773   */\ntag_13:\n    /* \"#utility.yul\":742:766   */\n  tag_25\n    /* \"#utility.yul\":760:765   */\n  dup2\n    /* \"#utility.yul\":742:766   */\n  tag_12\n  jump\t// in\ntag_25:\n    /* \"#utility.yul\":737:740   */\n  dup3\n    /* \"#utility.yul\":730:767   */\n  mstore\n    /* \"#utility.yul\":655:773   */\n  pop\n  pop\n  jump\t// out\n    /* \"#utility.yul\":779:1443   */\ntag_5:\n    /* \"#utility.yul\":984:988   */\n  0x00\n    /* \"#utility.yul\":1022:1025   */\n  0xa0\n    /* \"#utility.yul\":1011:1020   */\n  dup3\n    /* \"#utility.yul\":1007:1026   */\n  add\n    /* \"#utility.yul\":999:1026   */\n  swap1\n  pop\n    /* \"#utility.yul\":1036:1107   */\n  tag_27\n    /* \"#utility.yul\":1104:1105   */\n  0x00\n    /* \"#utility.yul\":1093:1102   */\n  dup4\n    /* \"#utility.yul\":1089:1106   */\n  add\n    /* \"#utility.yul\":1080:1086   */\n  dup9\n    /* \"#utility.yul\":1036:1107   */\n  tag_8\n  jump\t// in\ntag_27:\n    /* \"#utility.yul\":1117:1189   */\n  tag_28\n    /* \"#utility.yul\":1185:1187   */\n  0x20\n    /* \"#utility.yul\":1174:1183   */\n  dup4\n    /* \"#utility.yul\":1170:1188   */\n  add\n    /* \"#utility.yul\":1161:1167   */\n  dup8\n    /* \"#utility.yul\":1117:1189   */\n  tag_8\n  jump\t// in\ntag_28:\n    /* \"#utility.yul\":1199:1271   */\n  tag_29\n    /* \"#utility.yul\":1267:1269   */\n  0x40\n    /* \"#utility.yul\":1256:1265   */\n  dup4\n    /* \"#utility.yul\":1252:1270   */\n  add\n    /* \"#utility.yul\":1243:1249   */\n  dup7\n    /* \"#utility.yul\":1199:1271   */\n  tag_8\n  jump\t// in\ntag_29:\n    /* \"#utility.yul\":1281:1353   */\n  tag_30\n    /* \"#utility.yul\":1349:1351   */\n  0x60\n    /* \"#utility.yul\":1338:1347   */\n  dup4\n    /* \"#utility.yul\":1334:1352   */\n  add\n    /* \"#utility.yul\":1325:1331   */\n  dup6\n    /* \"#utility.yul\":1281:1353   */\n  tag_10\n  jump\t// in\ntag_30:\n    /* \"#utility.yul\":1363:1436   */\n  tag_31\n    /* \"#utility.yul\":1431:1434   */\n  0x80\n    /* \"#utility.yul\":1420:1429   */\n  dup4\n    /* \"#utility.yul\":1416:1435   */\n  add\n    /* \"#utility.yul\":1407:1413   */\n  dup5\n    /* \"#utility.yul\":1363:1436   */\n  tag_13\n  jump\t// in\ntag_31:\n    /* \"#utility.yul\":779:1443   */\n  swap7\n  swap6\n  pop\n  pop\n  pop\n  pop\n  pop\n  pop\n  jump\t// out\n    /* \"contracts/ERC712Storage.sol\":120:2270  contract ERC712Storage {... */\ntag_6:\n  dataSize(sub_0)\n  dup1\n  dataOffset(sub_0)\n  0x00\n  codecopy\n  0x00\n  return\nstop\n\nsub_0: assembly {\n        /* \"contracts/ERC712Storage.sol\":120:2270  contract ERC712Storage {... */\n      mstore(0x40, 0x80)\n      callvalue\n      dup1\n      iszero\n      tag_1\n      jumpi\n      revert(0x00, 0x00)\n    tag_1:\n      pop\n      jumpi(tag_2, lt(calldatasize, 0x04))\n      shr(0xe0, calldataload(0x00))\n      dup1\n      0x7fb4bf2a\n      eq\n      tag_3\n      jumpi\n      dup1\n      0x8381f58a\n      eq\n      tag_4\n      jumpi\n      dup1\n      0x8da5cb5b\n      eq\n      tag_5\n      jumpi\n    tag_2:\n      revert(0x00, 0x00)\n        /* \"contracts/ERC712Storage.sol\":1095:2267  function permitStore(uint256 _num, bytes memory _signature) public {... */\n    tag_3:\n      tag_6\n      0x04\n      dup1\n      calldatasize\n      sub\n      dup2\n      add\n      swap1\n      tag_7\n      swap2\n      swap1\n      tag_8\n      jump\t// in\n    tag_7:\n      tag_9\n      jump\t// in\n    tag_6:\n      stop\n        /* \"contracts/ERC712Storage.sol\":648:669  uint256 public number */\n    tag_4:\n      tag_10\n      tag_11\n      jump\t// in\n    tag_10:\n      mload(0x40)\n      tag_12\n      swap2\n      swap1\n      tag_13\n      jump\t// in\n    tag_12:\n      mload(0x40)\n      dup1\n      swap2\n      sub\n      swap1\n      return\n        /* \"contracts/ERC712Storage.sol\":675:696  address public  owner */\n    tag_5:\n      tag_14\n      tag_15\n      jump\t// in\n    tag_14:\n      mload(0x40)\n      tag_16\n      swap2\n      swap1\n      tag_17\n      jump\t// in\n    tag_16:\n      mload(0x40)\n      dup1\n      swap2\n      sub\n      swap1\n      return\n        /* \"contracts/ERC712Storage.sol\":1095:2267  function permitStore(uint256 _num, bytes memory _signature) public {... */\n    tag_9:\n        /* \"contracts/ERC712Storage.sol\":1201:1203  65 */\n      0x41\n        /* \"contracts/ERC712Storage.sol\":1180:1190  _signature */\n      dup2\n        /* \"contracts/ERC712Storage.sol\":1180:1197  _signature.length */\n      mload\n        /* \"contracts/ERC712Storage.sol\":1180:1203  _signature.length == 65 */\n      eq\n        /* \"contracts/ERC712Storage.sol\":1172:1232  require(_signature.length == 65, \"invalid signature length\") */\n      tag_19\n      jumpi\n      mload(0x40)\n      0x08c379a000000000000000000000000000000000000000000000000000000000\n      dup2\n      mstore\n      0x04\n      add\n      tag_20\n      swap1\n      tag_21\n      jump\t// in\n    tag_20:\n      mload(0x40)\n      dup1\n      swap2\n      sub\n      swap1\n      revert\n    tag_19:\n        /* \"contracts/ERC712Storage.sol\":1242:1251  bytes32 r */\n      0x00\n        /* \"contracts/ERC712Storage.sol\":1261:1270  bytes32 s */\n      0x00\n        /* \"contracts/ERC712Storage.sol\":1280:1287  uint8 v */\n      0x00\n        /* \"contracts/ERC712Storage.sol\":1563:1567  0x20 */\n      0x20\n        /* \"contracts/ERC712Storage.sol\":1551:1561  _signature */\n      dup5\n        /* \"contracts/ERC712Storage.sol\":1547:1568  add(_signature, 0x20) */\n      add\n        /* \"contracts/ERC712Storage.sol\":1541:1569  mload(add(_signature, 0x20)) */\n      mload\n        /* \"contracts/ERC712Storage.sol\":1536:1569  r := mload(add(_signature, 0x20)) */\n      swap3\n      pop\n        /* \"contracts/ERC712Storage.sol\":1659:1663  0x40 */\n      0x40\n        /* \"contracts/ERC712Storage.sol\":1647:1657  _signature */\n      dup5\n        /* \"contracts/ERC712Storage.sol\":1643:1664  add(_signature, 0x40) */\n      add\n        /* \"contracts/ERC712Storage.sol\":1637:1665  mload(add(_signature, 0x40)) */\n      mload\n        /* \"contracts/ERC712Storage.sol\":1632:1665  s := mload(add(_signature, 0x40)) */\n      swap2\n      pop\n        /* \"contracts/ERC712Storage.sol\":1761:1765  0x60 */\n      0x60\n        /* \"contracts/ERC712Storage.sol\":1749:1759  _signature */\n      dup5\n        /* \"contracts/ERC712Storage.sol\":1745:1766  add(_signature, 0x60) */\n      add\n        /* \"contracts/ERC712Storage.sol\":1739:1767  mload(add(_signature, 0x60)) */\n      mload\n        /* \"contracts/ERC712Storage.sol\":1736:1737  0 */\n      0x00\n        /* \"contracts/ERC712Storage.sol\":1731:1768  byte(0, mload(add(_signature, 0x60))) */\n      byte\n        /* \"contracts/ERC712Storage.sol\":1726:1768  v := byte(0, mload(add(_signature, 0x60))) */\n      swap1\n      pop\n        /* \"contracts/ERC712Storage.sol\":1821:1835  bytes32 digest */\n      0x00\n        /* \"contracts/ERC712Storage.sol\":1902:1918  DOMAIN_SEPARATOR */\n      sload(0x00)\n        /* \"contracts/ERC712Storage.sol\":443:495  keccak256(\"Storage(address spender,uint256 number)\") */\n      0xd0424b76ec7a3227309117de6d952e26508aa80cc81ccac30dc95ed1419924cd\n        /* \"contracts/ERC712Storage.sol\":1971:1981  msg.sender */\n      caller\n        /* \"contracts/ERC712Storage.sol\":1983:1987  _num */\n      dup9\n        /* \"contracts/ERC712Storage.sol\":1942:1988  abi.encode(STORAGE_TYPEHASH, msg.sender, _num) */\n      add(0x20, mload(0x40))\n      tag_22\n      swap4\n      swap3\n      swap2\n      swap1\n      tag_23\n      jump\t// in\n    tag_22:\n      mload(0x40)\n      0x20\n      dup2\n      dup4\n      sub\n      sub\n      dup2\n      mstore\n      swap1\n      0x40\n      mstore\n        /* \"contracts/ERC712Storage.sol\":1932:1989  keccak256(abi.encode(STORAGE_TYPEHASH, msg.sender, _num)) */\n      dup1\n      mload\n      swap1\n      0x20\n      add\n      keccak256\n        /* \"contracts/ERC712Storage.sol\":1848:1999  abi.encodePacked(... */\n      add(0x20, mload(0x40))\n      tag_24\n      swap3\n      swap2\n      swap1\n      tag_25\n      jump\t// in\n    tag_24:\n      mload(0x40)\n      0x20\n      dup2\n      dup4\n      sub\n      sub\n      dup2\n      mstore\n      swap1\n      0x40\n      mstore\n        /* \"contracts/ERC712Storage.sol\":1838:2000  keccak256(abi.encodePacked(... */\n      dup1\n      mload\n      swap1\n      0x20\n      add\n      keccak256\n        /* \"contracts/ERC712Storage.sol\":1821:2000  bytes32 digest = keccak256(abi.encodePacked(... */\n      swap1\n      pop\n        /* \"contracts/ERC712Storage.sol\":2037:2051  address signer */\n      0x00\n        /* \"contracts/ERC712Storage.sol\":2054:2077  digest.recover(v, r, s) */\n      tag_26\n        /* \"contracts/ERC712Storage.sol\":2069:2070  v */\n      dup4\n        /* \"contracts/ERC712Storage.sol\":2072:2073  r */\n      dup7\n        /* \"contracts/ERC712Storage.sol\":2075:2076  s */\n      dup7\n        /* \"contracts/ERC712Storage.sol\":2054:2060  digest */\n      dup6\n        /* \"contracts/ERC712Storage.sol\":2054:2068  digest.recover */\n      tag_27\n      swap1\n        /* \"contracts/ERC712Storage.sol\":2054:2077  digest.recover(v, r, s) */\n      swap4\n      swap3\n      swap2\n      swap1\n      0xffffffff\n      and\n      jump\t// in\n    tag_26:\n        /* \"contracts/ERC712Storage.sol\":2037:2077  address signer = digest.recover(v, r, s) */\n      swap1\n      pop\n        /* \"contracts/ERC712Storage.sol\":2165:2170  owner */\n      0x02\n      0x00\n      swap1\n      sload\n      swap1\n      0x0100\n      exp\n      swap1\n      div\n      0xffffffffffffffffffffffffffffffffffffffff\n      and\n        /* \"contracts/ERC712Storage.sol\":2155:2170  signer == owner */\n      0xffffffffffffffffffffffffffffffffffffffff\n      and\n        /* \"contracts/ERC712Storage.sol\":2155:2161  signer */\n      dup2\n        /* \"contracts/ERC712Storage.sol\":2155:2170  signer == owner */\n      0xffffffffffffffffffffffffffffffffffffffff\n      and\n      eq\n        /* \"contracts/ERC712Storage.sol\":2147:2207  require(signer == owner, \"ERC712Storage: Invalid signature\") */\n      tag_28\n      jumpi\n      mload(0x40)\n      0x08c379a000000000000000000000000000000000000000000000000000000000\n      dup2\n      mstore\n      0x04\n      add\n      tag_29\n      swap1\n      tag_30\n      jump\t// in\n    tag_29:\n      mload(0x40)\n      dup1\n      swap2\n      sub\n      swap1\n      revert\n    tag_28:\n        /* \"contracts/ERC712Storage.sol\":2256:2260  _num */\n      dup7\n        /* \"contracts/ERC712Storage.sol\":2247:2253  number */\n      0x01\n        /* \"contracts/ERC712Storage.sol\":2247:2260  number = _num */\n      dup2\n      swap1\n      sstore\n      pop\n        /* \"contracts/ERC712Storage.sol\":1162:2267  {... */\n      pop\n      pop\n      pop\n      pop\n      pop\n        /* \"contracts/ERC712Storage.sol\":1095:2267  function permitStore(uint256 _num, bytes memory _signature) public {... */\n      pop\n      pop\n      jump\t// out\n        /* \"contracts/ERC712Storage.sol\":648:669  uint256 public number */\n    tag_11:\n      sload(0x01)\n      dup2\n      jump\t// out\n        /* \"contracts/ERC712Storage.sol\":675:696  address public  owner */\n    tag_15:\n      0x02\n      0x00\n      swap1\n      sload\n      swap1\n      0x0100\n      exp\n      swap1\n      div\n      0xffffffffffffffffffffffffffffffffffffffff\n      and\n      dup2\n      jump\t// out\n        /* \"@openzeppelin/contracts/utils/cryptography/ECDSA.sol\":6887:7147  function recover(bytes32 hash, uint8 v, bytes32 r, bytes32 s) internal pure returns (address) {... */\n    tag_27:\n        /* \"@openzeppelin/contracts/utils/cryptography/ECDSA.sol\":6972:6979  address */\n      0x00\n        /* \"@openzeppelin/contracts/utils/cryptography/ECDSA.sol\":6992:7009  address recovered */\n      0x00\n        /* \"@openzeppelin/contracts/utils/cryptography/ECDSA.sol\":7011:7029  RecoverError error */\n      0x00\n        /* \"@openzeppelin/contracts/utils/cryptography/ECDSA.sol\":7031:7047  bytes32 errorArg */\n      0x00\n        /* \"@openzeppelin/contracts/utils/cryptography/ECDSA.sol\":7051:7076  tryRecover(hash, v, r, s) */\n      tag_32\n        /* \"@openzeppelin/contracts/utils/cryptography/ECDSA.sol\":7062:7066  hash */\n      dup9\n        /* \"@openzeppelin/contracts/utils/cryptography/ECDSA.sol\":7068:7069  v */\n      dup9\n        /* \"@openzeppelin/contracts/utils/cryptography/ECDSA.sol\":7071:7072  r */\n      dup9\n        /* \"@openzeppelin/contracts/utils/cryptography/ECDSA.sol\":7074:7075  s */\n      dup9\n        /* \"@openzeppelin/contracts/utils/cryptography/ECDSA.sol\":7051:7061  tryRecover */\n      tag_33\n        /* \"@openzeppelin/contracts/utils/cryptography/ECDSA.sol\":7051:7076  tryRecover(hash, v, r, s) */\n      jump\t// in\n    tag_32:\n        /* \"@openzeppelin/contracts/utils/cryptography/ECDSA.sol\":6991:7076  (address recovered, RecoverError error, bytes32 errorArg) = tryRecover(hash, v, r, s) */\n      swap3\n      pop\n      swap3\n      pop\n      swap3\n      pop\n        /* \"@openzeppelin/contracts/utils/cryptography/ECDSA.sol\":7086:7114  _throwError(error, errorArg) */\n      tag_34\n        /* \"@openzeppelin/contracts/utils/cryptography/ECDSA.sol\":7098:7103  error */\n      dup3\n        /* \"@openzeppelin/contracts/utils/cryptography/ECDSA.sol\":7105:7113  errorArg */\n      dup3\n        /* \"@openzeppelin/contracts/utils/cryptography/ECDSA.sol\":7086:7097  _throwError */\n      tag_35\n        /* \"@openzeppelin/contracts/utils/cryptography/ECDSA.sol\":7086:7114  _throwError(error, errorArg) */\n      jump\t// in\n    tag_34:\n        /* \"@openzeppelin/contracts/utils/cryptography/ECDSA.sol\":7131:7140  recovered */\n      dup3\n        /* \"@openzeppelin/contracts/utils/cryptography/ECDSA.sol\":7124:7140  return recovered */\n      swap4\n      pop\n      pop\n      pop\n      pop\n        /* \"@openzeppelin/contracts/utils/cryptography/ECDSA.sol\":6887:7147  function recover(bytes32 hash, uint8 v, bytes32 r, bytes32 s) internal pure returns (address) {... */\n      swap5\n      swap4\n      pop\n      pop\n      pop\n      pop\n      jump\t// out\n        /* \"@openzeppelin/contracts/utils/cryptography/ECDSA.sol\":5203:6754  function tryRecover(... */\n    tag_33:\n        /* \"@openzeppelin/contracts/utils/cryptography/ECDSA.sol\":5329:5346  address recovered */\n      0x00\n        /* \"@openzeppelin/contracts/utils/cryptography/ECDSA.sol\":5348:5364  RecoverError err */\n      0x00\n        /* \"@openzeppelin/contracts/utils/cryptography/ECDSA.sol\":5366:5380  bytes32 errArg */\n      0x00\n        /* \"@openzeppelin/contracts/utils/cryptography/ECDSA.sol\":6283:6349  0x7FFFFFFFFFFFFFFFFFFFFFFFFFFFFFFF5D576E7357A4501DDFE92F46681B20A0 */\n      0x7fffffffffffffffffffffffffffffff5d576e7357a4501ddfe92f46681b20a0\n        /* \"@openzeppelin/contracts/utils/cryptography/ECDSA.sol\":6278:6279  s */\n      dup5\n        /* \"@openzeppelin/contracts/utils/cryptography/ECDSA.sol\":6270:6280  uint256(s) */\n      0x00\n      shr\n        /* \"@openzeppelin/contracts/utils/cryptography/ECDSA.sol\":6270:6349  uint256(s) > 0x7FFFFFFFFFFFFFFFFFFFFFFFFFFFFFFF5D576E7357A4501DDFE92F46681B20A0 */\n      gt\n        /* \"@openzeppelin/contracts/utils/cryptography/ECDSA.sol\":6266:6430  if (uint256(s) > 0x7FFFFFFFFFFFFFFFFFFFFFFFFFFFFFFF5D576E7357A4501DDFE92F46681B20A0) {... */\n      iszero\n      tag_37\n      jumpi\n        /* \"@openzeppelin/contracts/utils/cryptography/ECDSA.sol\":6381:6382  0 */\n      0x00\n        /* \"@openzeppelin/contracts/utils/cryptography/ECDSA.sol\":6385:6415  RecoverError.InvalidSignatureS */\n      0x03\n        /* \"@openzeppelin/contracts/utils/cryptography/ECDSA.sol\":6417:6418  s */\n      dup6\n        /* \"@openzeppelin/contracts/utils/cryptography/ECDSA.sol\":6365:6419  return (address(0), RecoverError.InvalidSignatureS, s) */\n      swap3\n      pop\n      swap3\n      pop\n      swap3\n      pop\n      jump(tag_36)\n        /* \"@openzeppelin/contracts/utils/cryptography/ECDSA.sol\":6266:6430  if (uint256(s) > 0x7FFFFFFFFFFFFFFFFFFFFFFFFFFFFFFF5D576E7357A4501DDFE92F46681B20A0) {... */\n    tag_37:\n        /* \"@openzeppelin/contracts/utils/cryptography/ECDSA.sol\":6524:6538  address signer */\n      0x00\n        /* \"@openzeppelin/contracts/utils/cryptography/ECDSA.sol\":6541:6565  ecrecover(hash, v, r, s) */\n      0x01\n        /* \"@openzeppelin/contracts/utils/cryptography/ECDSA.sol\":6551:6555  hash */\n      dup9\n        /* \"@openzeppelin/contracts/utils/cryptography/ECDSA.sol\":6557:6558  v */\n      dup9\n        /* \"@openzeppelin/contracts/utils/cryptography/ECDSA.sol\":6560:6561  r */\n      dup9\n        /* \"@openzeppelin/contracts/utils/cryptography/ECDSA.sol\":6563:6564  s */\n      dup9\n        /* \"@openzeppelin/contracts/utils/cryptography/ECDSA.sol\":6541:6565  ecrecover(hash, v, r, s) */\n      mload(0x40)\n      0x00\n      dup2\n      mstore\n      0x20\n      add\n      0x40\n      mstore\n      mload(0x40)\n      tag_38\n      swap5\n      swap4\n      swap3\n      swap2\n      swap1\n      tag_39\n      jump\t// in\n    tag_38:\n      0x20\n      mload(0x40)\n      0x20\n      dup2\n      sub\n      swap1\n      dup1\n      dup5\n      sub\n      swap1\n      dup6\n      gas\n      staticcall\n      iszero\n      dup1\n      iszero\n      tag_41\n      jumpi\n      returndatacopy(0x00, 0x00, returndatasize)\n      revert(0x00, returndatasize)\n    tag_41:\n      pop\n      pop\n      pop\n      mload(sub(mload(0x40), 0x20))\n        /* \"@openzeppelin/contracts/utils/cryptography/ECDSA.sol\":6524:6565  address signer = ecrecover(hash, v, r, s) */\n      swap1\n      pop\n        /* \"@openzeppelin/contracts/utils/cryptography/ECDSA.sol\":6597:6598  0 */\n      0x00\n        /* \"@openzeppelin/contracts/utils/cryptography/ECDSA.sol\":6579:6599  signer == address(0) */\n      0xffffffffffffffffffffffffffffffffffffffff\n      and\n        /* \"@openzeppelin/contracts/utils/cryptography/ECDSA.sol\":6579:6585  signer */\n      dup2\n        /* \"@openzeppelin/contracts/utils/cryptography/ECDSA.sol\":6579:6599  signer == address(0) */\n      0xffffffffffffffffffffffffffffffffffffffff\n      and\n      sub\n        /* \"@openzeppelin/contracts/utils/cryptography/ECDSA.sol\":6575:6688  if (signer == address(0)) {... */\n      tag_42\n      jumpi\n        /* \"@openzeppelin/contracts/utils/cryptography/ECDSA.sol\":6631:6632  0 */\n      0x00\n        /* \"@openzeppelin/contracts/utils/cryptography/ECDSA.sol\":6635:6664  RecoverError.InvalidSignature */\n      0x01\n        /* \"@openzeppelin/contracts/utils/cryptography/ECDSA.sol\":6674:6675  0 */\n      0x00\n        /* \"@openzeppelin/contracts/utils/cryptography/ECDSA.sol\":6666:6676  bytes32(0) */\n      0x00\n      shl\n        /* \"@openzeppelin/contracts/utils/cryptography/ECDSA.sol\":6615:6677  return (address(0), RecoverError.InvalidSignature, bytes32(0)) */\n      swap4\n      pop\n      swap4\n      pop\n      swap4\n      pop\n      pop\n      jump(tag_36)\n        /* \"@openzeppelin/contracts/utils/cryptography/ECDSA.sol\":6575:6688  if (signer == address(0)) {... */\n    tag_42:\n        /* \"@openzeppelin/contracts/utils/cryptography/ECDSA.sol\":6706:6712  signer */\n      dup1\n        /* \"@openzeppelin/contracts/utils/cryptography/ECDSA.sol\":6714:6734  RecoverError.NoError */\n      0x00\n        /* \"@openzeppelin/contracts/utils/cryptography/ECDSA.sol\":6744:6745  0 */\n      0x00\n        /* \"@openzeppelin/contracts/utils/cryptography/ECDSA.sol\":6736:6746  bytes32(0) */\n      0x00\n      shl\n        /* \"@openzeppelin/contracts/utils/cryptography/ECDSA.sol\":6698:6747  return (signer, RecoverError.NoError, bytes32(0)) */\n      swap4\n      pop\n      swap4\n      pop\n      swap4\n      pop\n      pop\n        /* \"@openzeppelin/contracts/utils/cryptography/ECDSA.sol\":5203:6754  function tryRecover(... */\n    tag_36:\n      swap5\n      pop\n      swap5\n      pop\n      swap5\n      swap2\n      pop\n      pop\n      jump\t// out\n        /* \"@openzeppelin/contracts/utils/cryptography/ECDSA.sol\":7280:7812  function _throwError(RecoverError error, bytes32 errorArg) private pure {... */\n    tag_35:\n        /* \"@openzeppelin/contracts/utils/cryptography/ECDSA.sol\":7375:7395  RecoverError.NoError */\n      0x00\n        /* \"@openzeppelin/contracts/utils/cryptography/ECDSA.sol\":7366:7395  error == RecoverError.NoError */\n      0x03\n      dup2\n      gt\n      iszero\n      tag_44\n      jumpi\n      tag_45\n      tag_46\n      jump\t// in\n    tag_45:\n    tag_44:\n        /* \"@openzeppelin/contracts/utils/cryptography/ECDSA.sol\":7366:7371  error */\n      dup3\n        /* \"@openzeppelin/contracts/utils/cryptography/ECDSA.sol\":7366:7395  error == RecoverError.NoError */\n      0x03\n      dup2\n      gt\n      iszero\n      tag_47\n      jumpi\n      tag_48\n      tag_46\n      jump\t// in\n    tag_48:\n    tag_47:\n      sub\n        /* \"@openzeppelin/contracts/utils/cryptography/ECDSA.sol\":7362:7806  if (error == RecoverError.NoError) {... */\n      iszero\n        /* \"@openzeppelin/contracts/utils/cryptography/ECDSA.sol\":7411:7418  return; */\n      tag_43\n        /* \"@openzeppelin/contracts/utils/cryptography/ECDSA.sol\":7362:7806  if (error == RecoverError.NoError) {... */\n      jumpi\n        /* \"@openzeppelin/contracts/utils/cryptography/ECDSA.sol\":7471:7500  RecoverError.InvalidSignature */\n      0x01\n        /* \"@openzeppelin/contracts/utils/cryptography/ECDSA.sol\":7462:7500  error == RecoverError.InvalidSignature */\n      0x03\n      dup2\n      gt\n      iszero\n      tag_51\n      jumpi\n      tag_52\n      tag_46\n      jump\t// in\n    tag_52:\n    tag_51:\n        /* \"@openzeppelin/contracts/utils/cryptography/ECDSA.sol\":7462:7467  error */\n      dup3\n        /* \"@openzeppelin/contracts/utils/cryptography/ECDSA.sol\":7462:7500  error == RecoverError.InvalidSignature */\n      0x03\n      dup2\n      gt\n      iszero\n      tag_53\n      jumpi\n      tag_54\n      tag_46\n      jump\t// in\n    tag_54:\n    tag_53:\n      sub\n        /* \"@openzeppelin/contracts/utils/cryptography/ECDSA.sol\":7458:7806  if (error == RecoverError.InvalidSignature) {... */\n      tag_55\n      jumpi\n        /* \"@openzeppelin/contracts/utils/cryptography/ECDSA.sol\":7523:7546  ECDSAInvalidSignature() */\n      mload(0x40)\n      0xf645eedf00000000000000000000000000000000000000000000000000000000\n      dup2\n      mstore\n      0x04\n      add\n      mload(0x40)\n      dup1\n      swap2\n      sub\n      swap1\n      revert\n        /* \"@openzeppelin/contracts/utils/cryptography/ECDSA.sol\":7458:7806  if (error == RecoverError.InvalidSignature) {... */\n    tag_55:\n        /* \"@openzeppelin/contracts/utils/cryptography/ECDSA.sol\":7576:7611  RecoverError.InvalidSignatureLength */\n      0x02\n        /* \"@openzeppelin/contracts/utils/cryptography/ECDSA.sol\":7567:7611  error == RecoverError.InvalidSignatureLength */\n      0x03\n      dup2\n      gt\n      iszero\n      tag_57\n      jumpi\n      tag_58\n      tag_46\n      jump\t// in\n    tag_58:\n    tag_57:\n        /* \"@openzeppelin/contracts/utils/cryptography/ECDSA.sol\":7567:7572  error */\n      dup3\n        /* \"@openzeppelin/contracts/utils/cryptography/ECDSA.sol\":7567:7611  error == RecoverError.InvalidSignatureLength */\n      0x03\n      dup2\n      gt\n      iszero\n      tag_59\n      jumpi\n      tag_60\n      tag_46\n      jump\t// in\n    tag_60:\n    tag_59:\n      sub\n        /* \"@openzeppelin/contracts/utils/cryptography/ECDSA.sol\":7563:7806  if (error == RecoverError.InvalidSignatureLength) {... */\n      tag_61\n      jumpi\n        /* \"@openzeppelin/contracts/utils/cryptography/ECDSA.sol\":7670:7678  errorArg */\n      dup1\n        /* \"@openzeppelin/contracts/utils/cryptography/ECDSA.sol\":7662:7679  uint256(errorArg) */\n      0x00\n      shr\n        /* \"@openzeppelin/contracts/utils/cryptography/ECDSA.sol\":7634:7680  ECDSAInvalidSignatureLength(uint256(errorArg)) */\n      mload(0x40)\n      0xfce698f700000000000000000000000000000000000000000000000000000000\n      dup2\n      mstore\n      0x04\n      add\n      tag_62\n      swap2\n      swap1\n      tag_13\n      jump\t// in\n    tag_62:\n      mload(0x40)\n      dup1\n      swap2\n      sub\n      swap1\n      revert\n        /* \"@openzeppelin/contracts/utils/cryptography/ECDSA.sol\":7563:7806  if (error == RecoverError.InvalidSignatureLength) {... */\n    tag_61:\n        /* \"@openzeppelin/contracts/utils/cryptography/ECDSA.sol\":7710:7740  RecoverError.InvalidSignatureS */\n      0x03\n        /* \"@openzeppelin/contracts/utils/cryptography/ECDSA.sol\":7701:7740  error == RecoverError.InvalidSignatureS */\n      dup1\n      dup2\n      gt\n      iszero\n      tag_64\n      jumpi\n      tag_65\n      tag_46\n      jump\t// in\n    tag_65:\n    tag_64:\n        /* \"@openzeppelin/contracts/utils/cryptography/ECDSA.sol\":7701:7706  error */\n      dup3\n        /* \"@openzeppelin/contracts/utils/cryptography/ECDSA.sol\":7701:7740  error == RecoverError.InvalidSignatureS */\n      0x03\n      dup2\n      gt\n      iszero\n      tag_66\n      jumpi\n      tag_67\n      tag_46\n      jump\t// in\n    tag_67:\n    tag_66:\n      sub\n        /* \"@openzeppelin/contracts/utils/cryptography/ECDSA.sol\":7697:7806  if (error == RecoverError.InvalidSignatureS) {... */\n      tag_68\n      jumpi\n        /* \"@openzeppelin/contracts/utils/cryptography/ECDSA.sol\":7786:7794  errorArg */\n      dup1\n        /* \"@openzeppelin/contracts/utils/cryptography/ECDSA.sol\":7763:7795  ECDSAInvalidSignatureS(errorArg) */\n      mload(0x40)\n      0xd78bce0c00000000000000000000000000000000000000000000000000000000\n      dup2\n      mstore\n      0x04\n      add\n      tag_69\n      swap2\n      swap1\n      tag_70\n      jump\t// in\n    tag_69:\n      mload(0x40)\n      dup1\n      swap2\n      sub\n      swap1\n      revert\n        /* \"@openzeppelin/contracts/utils/cryptography/ECDSA.sol\":7697:7806  if (error == RecoverError.InvalidSignatureS) {... */\n    tag_68:\n        /* \"@openzeppelin/contracts/utils/cryptography/ECDSA.sol\":7280:7812  function _throwError(RecoverError error, bytes32 errorArg) private pure {... */\n    tag_43:\n      pop\n      pop\n      jump\t// out\n        /* \"#utility.yul\":7:82   */\n    tag_71:\n        /* \"#utility.yul\":40:46   */\n      0x00\n        /* \"#utility.yul\":73:75   */\n      0x40\n        /* \"#utility.yul\":67:76   */\n      mload\n        /* \"#utility.yul\":57:76   */\n      swap1\n      pop\n        /* \"#utility.yul\":7:82   */\n      swap1\n      jump\t// out\n        /* \"#utility.yul\":88:205   */\n    tag_72:\n        /* \"#utility.yul\":197:198   */\n      0x00\n        /* \"#utility.yul\":194:195   */\n      0x00\n        /* \"#utility.yul\":187:199   */\n      revert\n        /* \"#utility.yul\":211:328   */\n    tag_73:\n        /* \"#utility.yul\":320:321   */\n      0x00\n        /* \"#utility.yul\":317:318   */\n      0x00\n        /* \"#utility.yul\":310:322   */\n      revert\n        /* \"#utility.yul\":334:411   */\n    tag_74:\n        /* \"#utility.yul\":371:378   */\n      0x00\n        /* \"#utility.yul\":400:405   */\n      dup2\n        /* \"#utility.yul\":389:405   */\n      swap1\n      pop\n        /* \"#utility.yul\":334:411   */\n      swap2\n      swap1\n      pop\n      jump\t// out\n        /* \"#utility.yul\":417:539   */\n    tag_75:\n        /* \"#utility.yul\":490:514   */\n      tag_111\n        /* \"#utility.yul\":508:513   */\n      dup2\n        /* \"#utility.yul\":490:514   */\n      tag_74\n      jump\t// in\n    tag_111:\n        /* \"#utility.yul\":483:488   */\n      dup2\n        /* \"#utility.yul\":480:515   */\n      eq\n        /* \"#utility.yul\":470:533   */\n      tag_112\n      jumpi\n        /* \"#utility.yul\":529:530   */\n      0x00\n        /* \"#utility.yul\":526:527   */\n      0x00\n        /* \"#utility.yul\":519:531   */\n      revert\n        /* \"#utility.yul\":470:533   */\n    tag_112:\n        /* \"#utility.yul\":417:539   */\n      pop\n      jump\t// out\n        /* \"#utility.yul\":545:684   */\n    tag_76:\n        /* \"#utility.yul\":591:596   */\n      0x00\n        /* \"#utility.yul\":629:635   */\n      dup2\n        /* \"#utility.yul\":616:636   */\n      calldataload\n        /* \"#utility.yul\":607:636   */\n      swap1\n      pop\n        /* \"#utility.yul\":645:678   */\n      tag_114\n        /* \"#utility.yul\":672:677   */\n      dup2\n        /* \"#utility.yul\":645:678   */\n      tag_75\n      jump\t// in\n    tag_114:\n        /* \"#utility.yul\":545:684   */\n      swap3\n      swap2\n      pop\n      pop\n      jump\t// out\n        /* \"#utility.yul\":690:807   */\n    tag_77:\n        /* \"#utility.yul\":799:800   */\n      0x00\n        /* \"#utility.yul\":796:797   */\n      0x00\n        /* \"#utility.yul\":789:801   */\n      revert\n        /* \"#utility.yul\":813:930   */\n    tag_78:\n        /* \"#utility.yul\":922:923   */\n      0x00\n        /* \"#utility.yul\":919:920   */\n      0x00\n        /* \"#utility.yul\":912:924   */\n      revert\n        /* \"#utility.yul\":936:1038   */\n    tag_79:\n        /* \"#utility.yul\":977:983   */\n      0x00\n        /* \"#utility.yul\":1028:1030   */\n      0x1f\n        /* \"#utility.yul\":1024:1031   */\n      not\n        /* \"#utility.yul\":1019:1021   */\n      0x1f\n        /* \"#utility.yul\":1012:1017   */\n      dup4\n        /* \"#utility.yul\":1008:1022   */\n      add\n        /* \"#utility.yul\":1004:1032   */\n      and\n        /* \"#utility.yul\":994:1032   */\n      swap1\n      pop\n        /* \"#utility.yul\":936:1038   */\n      swap2\n      swap1\n      pop\n      jump\t// out\n        /* \"#utility.yul\":1044:1224   */\n    tag_80:\n        /* \"#utility.yul\":1092:1169   */\n      0x4e487b7100000000000000000000000000000000000000000000000000000000\n        /* \"#utility.yul\":1089:1090   */\n      0x00\n        /* \"#utility.yul\":1082:1170   */\n      mstore\n        /* \"#utility.yul\":1189:1193   */\n      0x41\n        /* \"#utility.yul\":1186:1187   */\n      0x04\n        /* \"#utility.yul\":1179:1194   */\n      mstore\n        /* \"#utility.yul\":1213:1217   */\n      0x24\n        /* \"#utility.yul\":1210:1211   */\n      0x00\n        /* \"#utility.yul\":1203:1218   */\n      revert\n        /* \"#utility.yul\":1230:1511   */\n    tag_81:\n        /* \"#utility.yul\":1313:1340   */\n      tag_120\n        /* \"#utility.yul\":1335:1339   */\n      dup3\n        /* \"#utility.yul\":1313:1340   */\n      tag_79\n      jump\t// in\n    tag_120:\n        /* \"#utility.yul\":1305:1311   */\n      dup2\n        /* \"#utility.yul\":1301:1341   */\n      add\n        /* \"#utility.yul\":1443:1449   */\n      dup2\n        /* \"#utility.yul\":1431:1441   */\n      dup2\n        /* \"#utility.yul\":1428:1450   */\n      lt\n        /* \"#utility.yul\":1407:1425   */\n      0xffffffffffffffff\n        /* \"#utility.yul\":1395:1405   */\n      dup3\n        /* \"#utility.yul\":1392:1426   */\n      gt\n        /* \"#utility.yul\":1389:1451   */\n      or\n        /* \"#utility.yul\":1386:1474   */\n      iszero\n      tag_121\n      jumpi\n        /* \"#utility.yul\":1454:1472   */\n      tag_122\n      tag_80\n      jump\t// in\n    tag_122:\n        /* \"#utility.yul\":1386:1474   */\n    tag_121:\n        /* \"#utility.yul\":1494:1504   */\n      dup1\n        /* \"#utility.yul\":1490:1492   */\n      0x40\n        /* \"#utility.yul\":1483:1505   */\n      mstore\n        /* \"#utility.yul\":1273:1511   */\n      pop\n        /* \"#utility.yul\":1230:1511   */\n      pop\n      pop\n      jump\t// out\n        /* \"#utility.yul\":1517:1646   */\n    tag_82:\n        /* \"#utility.yul\":1551:1557   */\n      0x00\n        /* \"#utility.yul\":1578:1598   */\n      tag_124\n      tag_71\n      jump\t// in\n    tag_124:\n        /* \"#utility.yul\":1568:1598   */\n      swap1\n      pop\n        /* \"#utility.yul\":1607:1640   */\n      tag_125\n        /* \"#utility.yul\":1635:1639   */\n      dup3\n        /* \"#utility.yul\":1627:1633   */\n      dup3\n        /* \"#utility.yul\":1607:1640   */\n      tag_81\n      jump\t// in\n    tag_125:\n        /* \"#utility.yul\":1517:1646   */\n      swap2\n      swap1\n      pop\n      jump\t// out\n        /* \"#utility.yul\":1652:1959   */\n    tag_83:\n        /* \"#utility.yul\":1713:1717   */\n      0x00\n        /* \"#utility.yul\":1803:1821   */\n      0xffffffffffffffff\n        /* \"#utility.yul\":1795:1801   */\n      dup3\n        /* \"#utility.yul\":1792:1822   */\n      gt\n        /* \"#utility.yul\":1789:1845   */\n      iszero\n      tag_127\n      jumpi\n        /* \"#utility.yul\":1825:1843   */\n      tag_128\n      tag_80\n      jump\t// in\n    tag_128:\n        /* \"#utility.yul\":1789:1845   */\n    tag_127:\n        /* \"#utility.yul\":1863:1892   */\n      tag_129\n        /* \"#utility.yul\":1885:1891   */\n      dup3\n        /* \"#utility.yul\":1863:1892   */\n      tag_79\n      jump\t// in\n    tag_129:\n        /* \"#utility.yul\":1855:1892   */\n      swap1\n      pop\n        /* \"#utility.yul\":1947:1951   */\n      0x20\n        /* \"#utility.yul\":1941:1945   */\n      dup2\n        /* \"#utility.yul\":1937:1952   */\n      add\n        /* \"#utility.yul\":1929:1952   */\n      swap1\n      pop\n        /* \"#utility.yul\":1652:1959   */\n      swap2\n      swap1\n      pop\n      jump\t// out\n        /* \"#utility.yul\":1965:2113   */\n    tag_84:\n        /* \"#utility.yul\":2063:2069   */\n      dup3\n        /* \"#utility.yul\":2058:2061   */\n      dup2\n        /* \"#utility.yul\":2053:2056   */\n      dup4\n        /* \"#utility.yul\":2040:2070   */\n      calldatacopy\n        /* \"#utility.yul\":2104:2105   */\n      0x00\n        /* \"#utility.yul\":2095:2101   */\n      dup4\n        /* \"#utility.yul\":2090:2093   */\n      dup4\n        /* \"#utility.yul\":2086:2102   */\n      add\n        /* \"#utility.yul\":2079:2106   */\n      mstore\n        /* \"#utility.yul\":1965:2113   */\n      pop\n      pop\n      pop\n      jump\t// out\n        /* \"#utility.yul\":2119:2542   */\n    tag_85:\n        /* \"#utility.yul\":2196:2201   */\n      0x00\n        /* \"#utility.yul\":2221:2286   */\n      tag_132\n        /* \"#utility.yul\":2237:2285   */\n      tag_133\n        /* \"#utility.yul\":2278:2284   */\n      dup5\n        /* \"#utility.yul\":2237:2285   */\n      tag_83\n      jump\t// in\n    tag_133:\n        /* \"#utility.yul\":2221:2286   */\n      tag_82\n      jump\t// in\n    tag_132:\n        /* \"#utility.yul\":2212:2286   */\n      swap1\n      pop\n        /* \"#utility.yul\":2309:2315   */\n      dup3\n        /* \"#utility.yul\":2302:2307   */\n      dup2\n        /* \"#utility.yul\":2295:2316   */\n      mstore\n        /* \"#utility.yul\":2347:2351   */\n      0x20\n        /* \"#utility.yul\":2340:2345   */\n      dup2\n        /* \"#utility.yul\":2336:2352   */\n      add\n        /* \"#utility.yul\":2385:2388   */\n      dup5\n        /* \"#utility.yul\":2376:2382   */\n      dup5\n        /* \"#utility.yul\":2371:2374   */\n      dup5\n        /* \"#utility.yul\":2367:2383   */\n      add\n        /* \"#utility.yul\":2364:2389   */\n      gt\n        /* \"#utility.yul\":2361:2473   */\n      iszero\n      tag_134\n      jumpi\n        /* \"#utility.yul\":2392:2471   */\n      tag_135\n      tag_78\n      jump\t// in\n    tag_135:\n        /* \"#utility.yul\":2361:2473   */\n    tag_134:\n        /* \"#utility.yul\":2482:2536   */\n      tag_136\n        /* \"#utility.yul\":2529:2535   */\n      dup5\n        /* \"#utility.yul\":2524:2527   */\n      dup3\n        /* \"#utility.yul\":2519:2522   */\n      dup6\n        /* \"#utility.yul\":2482:2536   */\n      tag_84\n      jump\t// in\n    tag_136:\n        /* \"#utility.yul\":2202:2542   */\n      pop\n        /* \"#utility.yul\":2119:2542   */\n      swap4\n      swap3\n      pop\n      pop\n      pop\n      jump\t// out\n        /* \"#utility.yul\":2561:2899   */\n    tag_86:\n        /* \"#utility.yul\":2616:2621   */\n      0x00\n        /* \"#utility.yul\":2665:2668   */\n      dup3\n        /* \"#utility.yul\":2658:2662   */\n      0x1f\n        /* \"#utility.yul\":2650:2656   */\n      dup4\n        /* \"#utility.yul\":2646:2663   */\n      add\n        /* \"#utility.yul\":2642:2669   */\n      slt\n        /* \"#utility.yul\":2632:2754   */\n      tag_138\n      jumpi\n        /* \"#utility.yul\":2673:2752   */\n      tag_139\n      tag_77\n      jump\t// in\n    tag_139:\n        /* \"#utility.yul\":2632:2754   */\n    tag_138:\n        /* \"#utility.yul\":2790:2796   */\n      dup2\n        /* \"#utility.yul\":2777:2797   */\n      calldataload\n        /* \"#utility.yul\":2815:2893   */\n      tag_140\n        /* \"#utility.yul\":2889:2892   */\n      dup5\n        /* \"#utility.yul\":2881:2887   */\n      dup3\n        /* \"#utility.yul\":2874:2878   */\n      0x20\n        /* \"#utility.yul\":2866:2872   */\n      dup7\n        /* \"#utility.yul\":2862:2879   */\n      add\n        /* \"#utility.yul\":2815:2893   */\n      tag_85\n      jump\t// in\n    tag_140:\n        /* \"#utility.yul\":2806:2893   */\n      swap2\n      pop\n        /* \"#utility.yul\":2622:2899   */\n      pop\n        /* \"#utility.yul\":2561:2899   */\n      swap3\n      swap2\n      pop\n      pop\n      jump\t// out\n        /* \"#utility.yul\":2905:3557   */\n    tag_8:\n        /* \"#utility.yul\":2982:2988   */\n      0x00\n        /* \"#utility.yul\":2990:2996   */\n      0x00\n        /* \"#utility.yul\":3039:3041   */\n      0x40\n        /* \"#utility.yul\":3027:3036   */\n      dup4\n        /* \"#utility.yul\":3018:3025   */\n      dup6\n        /* \"#utility.yul\":3014:3037   */\n      sub\n        /* \"#utility.yul\":3010:3042   */\n      slt\n        /* \"#utility.yul\":3007:3126   */\n      iszero\n      tag_142\n      jumpi\n        /* \"#utility.yul\":3045:3124   */\n      tag_143\n      tag_72\n      jump\t// in\n    tag_143:\n        /* \"#utility.yul\":3007:3126   */\n    tag_142:\n        /* \"#utility.yul\":3165:3166   */\n      0x00\n        /* \"#utility.yul\":3190:3243   */\n      tag_144\n        /* \"#utility.yul\":3235:3242   */\n      dup6\n        /* \"#utility.yul\":3226:3232   */\n      dup3\n        /* \"#utility.yul\":3215:3224   */\n      dup7\n        /* \"#utility.yul\":3211:3233   */\n      add\n        /* \"#utility.yul\":3190:3243   */\n      tag_76\n      jump\t// in\n    tag_144:\n        /* \"#utility.yul\":3180:3243   */\n      swap3\n      pop\n        /* \"#utility.yul\":3136:3253   */\n      pop\n        /* \"#utility.yul\":3320:3322   */\n      0x20\n        /* \"#utility.yul\":3309:3318   */\n      dup4\n        /* \"#utility.yul\":3305:3323   */\n      add\n        /* \"#utility.yul\":3292:3324   */\n      calldataload\n        /* \"#utility.yul\":3351:3369   */\n      0xffffffffffffffff\n        /* \"#utility.yul\":3343:3349   */\n      dup2\n        /* \"#utility.yul\":3340:3370   */\n      gt\n        /* \"#utility.yul\":3337:3454   */\n      iszero\n      tag_145\n      jumpi\n        /* \"#utility.yul\":3373:3452   */\n      tag_146\n      tag_73\n      jump\t// in\n    tag_146:\n        /* \"#utility.yul\":3337:3454   */\n    tag_145:\n        /* \"#utility.yul\":3478:3540   */\n      tag_147\n        /* \"#utility.yul\":3532:3539   */\n      dup6\n        /* \"#utility.yul\":3523:3529   */\n      dup3\n        /* \"#utility.yul\":3512:3521   */\n      dup7\n        /* \"#utility.yul\":3508:3530   */\n      add\n        /* \"#utility.yul\":3478:3540   */\n      tag_86\n      jump\t// in\n    tag_147:\n        /* \"#utility.yul\":3468:3540   */\n      swap2\n      pop\n        /* \"#utility.yul\":3263:3550   */\n      pop\n        /* \"#utility.yul\":2905:3557   */\n      swap3\n      pop\n      swap3\n      swap1\n      pop\n      jump\t// out\n        /* \"#utility.yul\":3563:3681   */\n    tag_87:\n        /* \"#utility.yul\":3650:3674   */\n      tag_149\n        /* \"#utility.yul\":3668:3673   */\n      dup2\n        /* \"#utility.yul\":3650:3674   */\n      tag_74\n      jump\t// in\n    tag_149:\n        /* \"#utility.yul\":3645:3648   */\n      dup3\n        /* \"#utility.yul\":3638:3675   */\n      mstore\n        /* \"#utility.yul\":3563:3681   */\n      pop\n      pop\n      jump\t// out\n        /* \"#utility.yul\":3687:3909   */\n    tag_13:\n        /* \"#utility.yul\":3780:3784   */\n      0x00\n        /* \"#utility.yul\":3818:3820   */\n      0x20\n        /* \"#utility.yul\":3807:3816   */\n      dup3\n        /* \"#utility.yul\":3803:3821   */\n      add\n        /* \"#utility.yul\":3795:3821   */\n      swap1\n      pop\n        /* \"#utility.yul\":3831:3902   */\n      tag_151\n        /* \"#utility.yul\":3899:3900   */\n      0x00\n        /* \"#utility.yul\":3888:3897   */\n      dup4\n        /* \"#utility.yul\":3884:3901   */\n      add\n        /* \"#utility.yul\":3875:3881   */\n      dup5\n        /* \"#utility.yul\":3831:3902   */\n      tag_87\n      jump\t// in\n    tag_151:\n        /* \"#utility.yul\":3687:3909   */\n      swap3\n      swap2\n      pop\n      pop\n      jump\t// out\n        /* \"#utility.yul\":3915:4041   */\n    tag_88:\n        /* \"#utility.yul\":3952:3959   */\n      0x00\n        /* \"#utility.yul\":3992:4034   */\n      0xffffffffffffffffffffffffffffffffffffffff\n        /* \"#utility.yul\":3985:3990   */\n      dup3\n        /* \"#utility.yul\":3981:4035   */\n      and\n        /* \"#utility.yul\":3970:4035   */\n      swap1\n      pop\n        /* \"#utility.yul\":3915:4041   */\n      swap2\n      swap1\n      pop\n      jump\t// out\n        /* \"#utility.yul\":4047:4143   */\n    tag_89:\n        /* \"#utility.yul\":4084:4091   */\n      0x00\n        /* \"#utility.yul\":4113:4137   */\n      tag_154\n        /* \"#utility.yul\":4131:4136   */\n      dup3\n        /* \"#utility.yul\":4113:4137   */\n      tag_88\n      jump\t// in\n    tag_154:\n        /* \"#utility.yul\":4102:4137   */\n      swap1\n      pop\n        /* \"#utility.yul\":4047:4143   */\n      swap2\n      swap1\n      pop\n      jump\t// out\n        /* \"#utility.yul\":4149:4267   */\n    tag_90:\n        /* \"#utility.yul\":4236:4260   */\n      tag_156\n        /* \"#utility.yul\":4254:4259   */\n      dup2\n        /* \"#utility.yul\":4236:4260   */\n      tag_89\n      jump\t// in\n    tag_156:\n        /* \"#utility.yul\":4231:4234   */\n      dup3\n        /* \"#utility.yul\":4224:4261   */\n      mstore\n        /* \"#utility.yul\":4149:4267   */\n      pop\n      pop\n      jump\t// out\n        /* \"#utility.yul\":4273:4495   */\n    tag_17:\n        /* \"#utility.yul\":4366:4370   */\n      0x00\n        /* \"#utility.yul\":4404:4406   */\n      0x20\n        /* \"#utility.yul\":4393:4402   */\n      dup3\n        /* \"#utility.yul\":4389:4407   */\n      add\n        /* \"#utility.yul\":4381:4407   */\n      swap1\n      pop\n        /* \"#utility.yul\":4417:4488   */\n      tag_158\n        /* \"#utility.yul\":4485:4486   */\n      0x00\n        /* \"#utility.yul\":4474:4483   */\n      dup4\n        /* \"#utility.yul\":4470:4487   */\n      add\n        /* \"#utility.yul\":4461:4467   */\n      dup5\n        /* \"#utility.yul\":4417:4488   */\n      tag_90\n      jump\t// in\n    tag_158:\n        /* \"#utility.yul\":4273:4495   */\n      swap3\n      swap2\n      pop\n      pop\n      jump\t// out\n        /* \"#utility.yul\":4501:4670   */\n    tag_91:\n        /* \"#utility.yul\":4585:4596   */\n      0x00\n        /* \"#utility.yul\":4619:4625   */\n      dup3\n        /* \"#utility.yul\":4614:4617   */\n      dup3\n        /* \"#utility.yul\":4607:4626   */\n      mstore\n        /* \"#utility.yul\":4659:4663   */\n      0x20\n        /* \"#utility.yul\":4654:4657   */\n      dup3\n        /* \"#utility.yul\":4650:4664   */\n      add\n        /* \"#utility.yul\":4635:4664   */\n      swap1\n      pop\n        /* \"#utility.yul\":4501:4670   */\n      swap3\n      swap2\n      pop\n      pop\n      jump\t// out\n        /* \"#utility.yul\":4676:4850   */\n    tag_92:\n        /* \"#utility.yul\":4816:4842   */\n      0x696e76616c6964207369676e6174757265206c656e6774680000000000000000\n        /* \"#utility.yul\":4812:4813   */\n      0x00\n        /* \"#utility.yul\":4804:4810   */\n      dup3\n        /* \"#utility.yul\":4800:4814   */\n      add\n        /* \"#utility.yul\":4793:4843   */\n      mstore\n        /* \"#utility.yul\":4676:4850   */\n      pop\n      jump\t// out\n        /* \"#utility.yul\":4856:5222   */\n    tag_93:\n        /* \"#utility.yul\":4998:5001   */\n      0x00\n        /* \"#utility.yul\":5019:5086   */\n      tag_162\n        /* \"#utility.yul\":5083:5085   */\n      0x18\n        /* \"#utility.yul\":5078:5081   */\n      dup4\n        /* \"#utility.yul\":5019:5086   */\n      tag_91\n      jump\t// in\n    tag_162:\n        /* \"#utility.yul\":5012:5086   */\n      swap2\n      pop\n        /* \"#utility.yul\":5095:5188   */\n      tag_163\n        /* \"#utility.yul\":5184:5187   */\n      dup3\n        /* \"#utility.yul\":5095:5188   */\n      tag_92\n      jump\t// in\n    tag_163:\n        /* \"#utility.yul\":5213:5215   */\n      0x20\n        /* \"#utility.yul\":5208:5211   */\n      dup3\n        /* \"#utility.yul\":5204:5216   */\n      add\n        /* \"#utility.yul\":5197:5216   */\n      swap1\n      pop\n        /* \"#utility.yul\":4856:5222   */\n      swap2\n      swap1\n      pop\n      jump\t// out\n        /* \"#utility.yul\":5228:5647   */\n    tag_21:\n        /* \"#utility.yul\":5394:5398   */\n      0x00\n        /* \"#utility.yul\":5432:5434   */\n      0x20\n        /* \"#utility.yul\":5421:5430   */\n      dup3\n        /* \"#utility.yul\":5417:5435   */\n      add\n        /* \"#utility.yul\":5409:5435   */\n      swap1\n      pop\n        /* \"#utility.yul\":5481:5490   */\n      dup2\n        /* \"#utility.yul\":5475:5479   */\n      dup2\n        /* \"#utility.yul\":5471:5491   */\n      sub\n        /* \"#utility.yul\":5467:5468   */\n      0x00\n        /* \"#utility.yul\":5456:5465   */\n      dup4\n        /* \"#utility.yul\":5452:5469   */\n      add\n        /* \"#utility.yul\":5445:5492   */\n      mstore\n        /* \"#utility.yul\":5509:5640   */\n      tag_165\n        /* \"#utility.yul\":5635:5639   */\n      dup2\n        /* \"#utility.yul\":5509:5640   */\n      tag_93\n      jump\t// in\n    tag_165:\n        /* \"#utility.yul\":5501:5640   */\n      swap1\n      pop\n        /* \"#utility.yul\":5228:5647   */\n      swap2\n      swap1\n      pop\n      jump\t// out\n        /* \"#utility.yul\":5653:5730   */\n    tag_94:\n        /* \"#utility.yul\":5690:5697   */\n      0x00\n        /* \"#utility.yul\":5719:5724   */\n      dup2\n        /* \"#utility.yul\":5708:5724   */\n      swap1\n      pop\n        /* \"#utility.yul\":5653:5730   */\n      swap2\n      swap1\n      pop\n      jump\t// out\n        /* \"#utility.yul\":5736:5854   */\n    tag_95:\n        /* \"#utility.yul\":5823:5847   */\n      tag_168\n        /* \"#utility.yul\":5841:5846   */\n      dup2\n        /* \"#utility.yul\":5823:5847   */\n      tag_94\n      jump\t// in\n    tag_168:\n        /* \"#utility.yul\":5818:5821   */\n      dup3\n        /* \"#utility.yul\":5811:5848   */\n      mstore\n        /* \"#utility.yul\":5736:5854   */\n      pop\n      pop\n      jump\t// out\n        /* \"#utility.yul\":5860:6302   */\n    tag_23:\n        /* \"#utility.yul\":6009:6013   */\n      0x00\n        /* \"#utility.yul\":6047:6049   */\n      0x60\n        /* \"#utility.yul\":6036:6045   */\n      dup3\n        /* \"#utility.yul\":6032:6050   */\n      add\n        /* \"#utility.yul\":6024:6050   */\n      swap1\n      pop\n        /* \"#utility.yul\":6060:6131   */\n      tag_170\n        /* \"#utility.yul\":6128:6129   */\n      0x00\n        /* \"#utility.yul\":6117:6126   */\n      dup4\n        /* \"#utility.yul\":6113:6130   */\n      add\n        /* \"#utility.yul\":6104:6110   */\n      dup7\n        /* \"#utility.yul\":6060:6131   */\n      tag_95\n      jump\t// in\n    tag_170:\n        /* \"#utility.yul\":6141:6213   */\n      tag_171\n        /* \"#utility.yul\":6209:6211   */\n      0x20\n        /* \"#utility.yul\":6198:6207   */\n      dup4\n        /* \"#utility.yul\":6194:6212   */\n      add\n        /* \"#utility.yul\":6185:6191   */\n      dup6\n        /* \"#utility.yul\":6141:6213   */\n      tag_90\n      jump\t// in\n    tag_171:\n        /* \"#utility.yul\":6223:6295   */\n      tag_172\n        /* \"#utility.yul\":6291:6293   */\n      0x40\n        /* \"#utility.yul\":6280:6289   */\n      dup4\n        /* \"#utility.yul\":6276:6294   */\n      add\n        /* \"#utility.yul\":6267:6273   */\n      dup5\n        /* \"#utility.yul\":6223:6295   */\n      tag_87\n      jump\t// in\n    tag_172:\n        /* \"#utility.yul\":5860:6302   */\n      swap5\n      swap4\n      pop\n      pop\n      pop\n      pop\n      jump\t// out\n        /* \"#utility.yul\":6308:6456   */\n    tag_96:\n        /* \"#utility.yul\":6410:6421   */\n      0x00\n        /* \"#utility.yul\":6447:6450   */\n      dup2\n        /* \"#utility.yul\":6432:6450   */\n      swap1\n      pop\n        /* \"#utility.yul\":6308:6456   */\n      swap3\n      swap2\n      pop\n      pop\n      jump\t// out\n        /* \"#utility.yul\":6462:6676   */\n    tag_97:\n        /* \"#utility.yul\":6602:6668   */\n      0x1901000000000000000000000000000000000000000000000000000000000000\n        /* \"#utility.yul\":6598:6599   */\n      0x00\n        /* \"#utility.yul\":6590:6596   */\n      dup3\n        /* \"#utility.yul\":6586:6600   */\n      add\n        /* \"#utility.yul\":6579:6669   */\n      mstore\n        /* \"#utility.yul\":6462:6676   */\n      pop\n      jump\t// out\n        /* \"#utility.yul\":6682:7082   */\n    tag_98:\n        /* \"#utility.yul\":6842:6845   */\n      0x00\n        /* \"#utility.yul\":6863:6947   */\n      tag_176\n        /* \"#utility.yul\":6945:6946   */\n      0x02\n        /* \"#utility.yul\":6940:6943   */\n      dup4\n        /* \"#utility.yul\":6863:6947   */\n      tag_96\n      jump\t// in\n    tag_176:\n        /* \"#utility.yul\":6856:6947   */\n      swap2\n      pop\n        /* \"#utility.yul\":6956:7049   */\n      tag_177\n        /* \"#utility.yul\":7045:7048   */\n      dup3\n        /* \"#utility.yul\":6956:7049   */\n      tag_97\n      jump\t// in\n    tag_177:\n        /* \"#utility.yul\":7074:7075   */\n      0x02\n        /* \"#utility.yul\":7069:7072   */\n      dup3\n        /* \"#utility.yul\":7065:7076   */\n      add\n        /* \"#utility.yul\":7058:7076   */\n      swap1\n      pop\n        /* \"#utility.yul\":6682:7082   */\n      swap2\n      swap1\n      pop\n      jump\t// out\n        /* \"#utility.yul\":7088:7167   */\n    tag_99:\n        /* \"#utility.yul\":7127:7134   */\n      0x00\n        /* \"#utility.yul\":7156:7161   */\n      dup2\n        /* \"#utility.yul\":7145:7161   */\n      swap1\n      pop\n        /* \"#utility.yul\":7088:7167   */\n      swap2\n      swap1\n      pop\n      jump\t// out\n        /* \"#utility.yul\":7173:7330   */\n    tag_100:\n        /* \"#utility.yul\":7278:7323   */\n      tag_180\n        /* \"#utility.yul\":7298:7322   */\n      tag_181\n        /* \"#utility.yul\":7316:7321   */\n      dup3\n        /* \"#utility.yul\":7298:7322   */\n      tag_94\n      jump\t// in\n    tag_181:\n        /* \"#utility.yul\":7278:7323   */\n      tag_99\n      jump\t// in\n    tag_180:\n        /* \"#utility.yul\":7273:7276   */\n      dup3\n        /* \"#utility.yul\":7266:7324   */\n      mstore\n        /* \"#utility.yul\":7173:7330   */\n      pop\n      pop\n      jump\t// out\n        /* \"#utility.yul\":7336:7999   */\n    tag_25:\n        /* \"#utility.yul\":7577:7580   */\n      0x00\n        /* \"#utility.yul\":7599:7747   */\n      tag_183\n        /* \"#utility.yul\":7743:7746   */\n      dup3\n        /* \"#utility.yul\":7599:7747   */\n      tag_98\n      jump\t// in\n    tag_183:\n        /* \"#utility.yul\":7592:7747   */\n      swap2\n      pop\n        /* \"#utility.yul\":7757:7832   */\n      tag_184\n        /* \"#utility.yul\":7828:7831   */\n      dup3\n        /* \"#utility.yul\":7819:7825   */\n      dup6\n        /* \"#utility.yul\":7757:7832   */\n      tag_100\n      jump\t// in\n    tag_184:\n        /* \"#utility.yul\":7857:7859   */\n      0x20\n        /* \"#utility.yul\":7852:7855   */\n      dup3\n        /* \"#utility.yul\":7848:7860   */\n      add\n        /* \"#utility.yul\":7841:7860   */\n      swap2\n      pop\n        /* \"#utility.yul\":7870:7945   */\n      tag_185\n        /* \"#utility.yul\":7941:7944   */\n      dup3\n        /* \"#utility.yul\":7932:7938   */\n      dup5\n        /* \"#utility.yul\":7870:7945   */\n      tag_100\n      jump\t// in\n    tag_185:\n        /* \"#utility.yul\":7970:7972   */\n      0x20\n        /* \"#utility.yul\":7965:7968   */\n      dup3\n        /* \"#utility.yul\":7961:7973   */\n      add\n        /* \"#utility.yul\":7954:7973   */\n      swap2\n      pop\n        /* \"#utility.yul\":7990:7993   */\n      dup2\n        /* \"#utility.yul\":7983:7993   */\n      swap1\n      pop\n        /* \"#utility.yul\":7336:7999   */\n      swap4\n      swap3\n      pop\n      pop\n      pop\n      jump\t// out\n        /* \"#utility.yul\":8005:8187   */\n    tag_101:\n        /* \"#utility.yul\":8145:8179   */\n      0x45524337313253746f726167653a20496e76616c6964207369676e6174757265\n        /* \"#utility.yul\":8141:8142   */\n      0x00\n        /* \"#utility.yul\":8133:8139   */\n      dup3\n        /* \"#utility.yul\":8129:8143   */\n      add\n        /* \"#utility.yul\":8122:8180   */\n      mstore\n        /* \"#utility.yul\":8005:8187   */\n      pop\n      jump\t// out\n        /* \"#utility.yul\":8193:8559   */\n    tag_102:\n        /* \"#utility.yul\":8335:8338   */\n      0x00\n        /* \"#utility.yul\":8356:8423   */\n      tag_188\n        /* \"#utility.yul\":8420:8422   */\n      0x20\n        /* \"#utility.yul\":8415:8418   */\n      dup4\n        /* \"#utility.yul\":8356:8423   */\n      tag_91\n      jump\t// in\n    tag_188:\n        /* \"#utility.yul\":8349:8423   */\n      swap2\n      pop\n        /* \"#utility.yul\":8432:8525   */\n      tag_189\n        /* \"#utility.yul\":8521:8524   */\n      dup3\n        /* \"#utility.yul\":8432:8525   */\n      tag_101\n      jump\t// in\n    tag_189:\n        /* \"#utility.yul\":8550:8552   */\n      0x20\n        /* \"#utility.yul\":8545:8548   */\n      dup3\n        /* \"#utility.yul\":8541:8553   */\n      add\n        /* \"#utility.yul\":8534:8553   */\n      swap1\n      pop\n        /* \"#utility.yul\":8193:8559   */\n      swap2\n      swap1\n      pop\n      jump\t// out\n        /* \"#utility.yul\":8565:8984   */\n    tag_30:\n        /* \"#utility.yul\":8731:8735   */\n      0x00\n        /* \"#utility.yul\":8769:8771   */\n      0x20\n        /* \"#utility.yul\":8758:8767   */\n      dup3\n        /* \"#utility.yul\":8754:8772   */\n      add\n        /* \"#utility.yul\":8746:8772   */\n      swap1\n      pop\n        /* \"#utility.yul\":8818:8827   */\n      dup2\n        /* \"#utility.yul\":8812:8816   */\n      dup2\n        /* \"#utility.yul\":8808:8828   */\n      sub\n        /* \"#utility.yul\":8804:8805   */\n      0x00\n        /* \"#utility.yul\":8793:8802   */\n      dup4\n        /* \"#utility.yul\":8789:8806   */\n      add\n        /* \"#utility.yul\":8782:8829   */\n      mstore\n        /* \"#utility.yul\":8846:8977   */\n      tag_191\n        /* \"#utility.yul\":8972:8976   */\n      dup2\n        /* \"#utility.yul\":8846:8977   */\n      tag_102\n      jump\t// in\n    tag_191:\n        /* \"#utility.yul\":8838:8977   */\n      swap1\n      pop\n        /* \"#utility.yul\":8565:8984   */\n      swap2\n      swap1\n      pop\n      jump\t// out\n        /* \"#utility.yul\":8990:9076   */\n    tag_103:\n        /* \"#utility.yul\":9025:9032   */\n      0x00\n        /* \"#utility.yul\":9065:9069   */\n      0xff\n        /* \"#utility.yul\":9058:9063   */\n      dup3\n        /* \"#utility.yul\":9054:9070   */\n      and\n        /* \"#utility.yul\":9043:9070   */\n      swap1\n      pop\n        /* \"#utility.yul\":8990:9076   */\n      swap2\n      swap1\n      pop\n      jump\t// out\n        /* \"#utility.yul\":9082:9194   */\n    tag_104:\n        /* \"#utility.yul\":9165:9187   */\n      tag_194\n        /* \"#utility.yul\":9181:9186   */\n      dup2\n        /* \"#utility.yul\":9165:9187   */\n      tag_103\n      jump\t// in\n    tag_194:\n        /* \"#utility.yul\":9160:9163   */\n      dup3\n        /* \"#utility.yul\":9153:9188   */\n      mstore\n        /* \"#utility.yul\":9082:9194   */\n      pop\n      pop\n      jump\t// out\n        /* \"#utility.yul\":9200:9745   */\n    tag_39:\n        /* \"#utility.yul\":9373:9377   */\n      0x00\n        /* \"#utility.yul\":9411:9414   */\n      0x80\n        /* \"#utility.yul\":9400:9409   */\n      dup3\n        /* \"#utility.yul\":9396:9415   */\n      add\n        /* \"#utility.yul\":9388:9415   */\n      swap1\n      pop\n        /* \"#utility.yul\":9425:9496   */\n      tag_196\n        /* \"#utility.yul\":9493:9494   */\n      0x00\n        /* \"#utility.yul\":9482:9491   */\n      dup4\n        /* \"#utility.yul\":9478:9495   */\n      add\n        /* \"#utility.yul\":9469:9475   */\n      dup8\n        /* \"#utility.yul\":9425:9496   */\n      tag_95\n      jump\t// in\n    tag_196:\n        /* \"#utility.yul\":9506:9574   */\n      tag_197\n        /* \"#utility.yul\":9570:9572   */\n      0x20\n        /* \"#utility.yul\":9559:9568   */\n      dup4\n        /* \"#utility.yul\":9555:9573   */\n      add\n        /* \"#utility.yul\":9546:9552   */\n      dup7\n        /* \"#utility.yul\":9506:9574   */\n      tag_104\n      jump\t// in\n    tag_197:\n        /* \"#utility.yul\":9584:9656   */\n      tag_198\n        /* \"#utility.yul\":9652:9654   */\n      0x40\n        /* \"#utility.yul\":9641:9650   */\n      dup4\n        /* \"#utility.yul\":9637:9655   */\n      add\n        /* \"#utility.yul\":9628:9634   */\n      dup6\n        /* \"#utility.yul\":9584:9656   */\n      tag_95\n      jump\t// in\n    tag_198:\n        /* \"#utility.yul\":9666:9738   */\n      tag_199\n        /* \"#utility.yul\":9734:9736   */\n      0x60\n        /* \"#utility.yul\":9723:9732   */\n      dup4\n        /* \"#utility.yul\":9719:9737   */\n      add\n        /* \"#utility.yul\":9710:9716   */\n      dup5\n        /* \"#utility.yul\":9666:9738   */\n      tag_95\n      jump\t// in\n    tag_199:\n        /* \"#utility.yul\":9200:9745   */\n      swap6\n      swap5\n      pop\n      pop\n      pop\n      pop\n      pop\n      jump\t// out\n        /* \"#utility.yul\":9751:9931   */\n    tag_46:\n        /* \"#utility.yul\":9799:9876   */\n      0x4e487b7100000000000000000000000000000000000000000000000000000000\n        /* \"#utility.yul\":9796:9797   */\n      0x00\n        /* \"#utility.yul\":9789:9877   */\n      mstore\n        /* \"#utility.yul\":9896:9900   */\n      0x21\n        /* \"#utility.yul\":9893:9894   */\n      0x04\n        /* \"#utility.yul\":9886:9901   */\n      mstore\n        /* \"#utility.yul\":9920:9924   */\n      0x24\n        /* \"#utility.yul\":9917:9918   */\n      0x00\n        /* \"#utility.yul\":9910:9925   */\n      revert\n        /* \"#utility.yul\":9937:10159   */\n    tag_70:\n        /* \"#utility.yul\":10030:10034   */\n      0x00\n        /* \"#utility.yul\":10068:10070   */\n      0x20\n        /* \"#utility.yul\":10057:10066   */\n      dup3\n        /* \"#utility.yul\":10053:10071   */\n      add\n        /* \"#utility.yul\":10045:10071   */\n      swap1\n      pop\n        /* \"#utility.yul\":10081:10152   */\n      tag_202\n        /* \"#utility.yul\":10149:10150   */\n      0x00\n        /* \"#utility.yul\":10138:10147   */\n      dup4\n        /* \"#utility.yul\":10134:10151   */\n      add\n        /* \"#utility.yul\":10125:10131   */\n      dup5\n        /* \"#utility.yul\":10081:10152   */\n      tag_95\n      jump\t// in\n    tag_202:\n        /* \"#utility.yul\":9937:10159   */\n      swap3\n      swap2\n      pop\n      pop\n      jump\t// out\n\n    auxdata: 0xa2646970667358221220eb6e85dd2d2e36c0877bd2759cc593dd1f900e063bbc876766dd03c40823231964736f6c634300081e0033\n}\n",
				"bytecode": {
					"linkReferences": {},
					"object": "608060405234801561000f575f5ffd5b507f8b73c3c69bb8fe3d512ecc4cf759cc79239f7b179b0ffacaa9a75d522b39400f6040518060400160405280600d81526020017f45495037313253746f7261676500000000000000000000000000000000000000815250805190602001206040518060400160405280600181526020017f31000000000000000000000000000000000000000000000000000000000000008152508051906020012046306040516020016100c1959493929190610190565b604051602081830303815290604052805190602001205f819055503360025f6101000a81548173ffffffffffffffffffffffffffffffffffffffff021916908373ffffffffffffffffffffffffffffffffffffffff1602179055506101e1565b5f819050919050565b61013381610121565b82525050565b5f819050919050565b61014b81610139565b82525050565b5f73ffffffffffffffffffffffffffffffffffffffff82169050919050565b5f61017a82610151565b9050919050565b61018a81610170565b82525050565b5f60a0820190506101a35f83018861012a565b6101b0602083018761012a565b6101bd604083018661012a565b6101ca6060830185610142565b6101d76080830184610181565b9695505050505050565b6109d6806101ee5f395ff3fe608060405234801561000f575f5ffd5b506004361061003f575f3560e01c80637fb4bf2a146100435780638381f58a1461005f5780638da5cb5b1461007d575b5f5ffd5b61005d6004803603810190610058919061064b565b61009b565b005b610067610229565b60405161007491906106b4565b60405180910390f35b61008561022f565b604051610092919061070c565b60405180910390f35b60418151146100df576040517f08c379a00000000000000000000000000000000000000000000000000000000081526004016100d69061077f565b60405180910390fd5b5f5f5f602084015192506040840151915060608401515f1a90505f5f547fd0424b76ec7a3227309117de6d952e26508aa80cc81ccac30dc95ed1419924cd3388604051602001610131939291906107b5565b6040516020818303038152906040528051906020012060405160200161015892919061085e565b6040516020818303038152906040528051906020012090505f61018883868685610254909392919063ffffffff16565b905060025f9054906101000a900473ffffffffffffffffffffffffffffffffffffffff1673ffffffffffffffffffffffffffffffffffffffff168173ffffffffffffffffffffffffffffffffffffffff1614610219576040517f08c379a0000000000000000000000000000000000000000000000000000000008152600401610210906108de565b60405180910390fd5b8660018190555050505050505050565b60015481565b60025f9054906101000a900473ffffffffffffffffffffffffffffffffffffffff1681565b5f5f5f5f61026488888888610282565b9250925092506102748282610369565b829350505050949350505050565b5f5f5f7f7fffffffffffffffffffffffffffffff5d576e7357a4501ddfe92f46681b20a0845f1c11156102be575f60038592509250925061035f565b5f6001888888886040515f81526020016040526040516102e19493929190610917565b6020604051602081039080840390855afa158015610301573d5f5f3e3d5ffd5b5050506020604051035190505f73ffffffffffffffffffffffffffffffffffffffff168173ffffffffffffffffffffffffffffffffffffffff1603610352575f60015f5f1b9350935093505061035f565b805f5f5f1b935093509350505b9450945094915050565b5f600381111561037c5761037b61095a565b5b82600381111561038f5761038e61095a565b5b03156104c757600160038111156103a9576103a861095a565b5b8260038111156103bc576103bb61095a565b5b036103f3576040517ff645eedf00000000000000000000000000000000000000000000000000000000815260040160405180910390fd5b600260038111156104075761040661095a565b5b82600381111561041a5761041961095a565b5b0361045e57805f1c6040517ffce698f700000000000000000000000000000000000000000000000000000000815260040161045591906106b4565b60405180910390fd5b6003808111156104715761047061095a565b5b8260038111156104845761048361095a565b5b036104c657806040517fd78bce0c0000000000000000000000000000000000000000000000000000000081526004016104bd9190610987565b60405180910390fd5b5b5050565b5f604051905090565b5f5ffd5b5f5ffd5b5f819050919050565b6104ee816104dc565b81146104f8575f5ffd5b50565b5f81359050610509816104e5565b92915050565b5f5ffd5b5f5ffd5b5f601f19601f8301169050919050565b7f4e487b71000000000000000000000000000000000000000000000000000000005f52604160045260245ffd5b61055d82610517565b810181811067ffffffffffffffff8211171561057c5761057b610527565b5b80604052505050565b5f61058e6104cb565b905061059a8282610554565b919050565b5f67ffffffffffffffff8211156105b9576105b8610527565b5b6105c282610517565b9050602081019050919050565b828183375f83830152505050565b5f6105ef6105ea8461059f565b610585565b90508281526020810184848401111561060b5761060a610513565b5b6106168482856105cf565b509392505050565b5f82601f8301126106325761063161050f565b5b81356106428482602086016105dd565b91505092915050565b5f5f60408385031215610661576106606104d4565b5b5f61066e858286016104fb565b925050602083013567ffffffffffffffff81111561068f5761068e6104d8565b5b61069b8582860161061e565b9150509250929050565b6106ae816104dc565b82525050565b5f6020820190506106c75f8301846106a5565b92915050565b5f73ffffffffffffffffffffffffffffffffffffffff82169050919050565b5f6106f6826106cd565b9050919050565b610706816106ec565b82525050565b5f60208201905061071f5f8301846106fd565b92915050565b5f82825260208201905092915050565b7f696e76616c6964207369676e6174757265206c656e67746800000000000000005f82015250565b5f610769601883610725565b915061077482610735565b602082019050919050565b5f6020820190508181035f8301526107968161075d565b9050919050565b5f819050919050565b6107af8161079d565b82525050565b5f6060820190506107c85f8301866107a6565b6107d560208301856106fd565b6107e260408301846106a5565b949350505050565b5f81905092915050565b7f19010000000000000000000000000000000000000000000000000000000000005f82015250565b5f6108286002836107ea565b9150610833826107f4565b600282019050919050565b5f819050919050565b6108586108538261079d565b61083e565b82525050565b5f6108688261081c565b91506108748285610847565b6020820191506108848284610847565b6020820191508190509392505050565b7f45524337313253746f726167653a20496e76616c6964207369676e61747572655f82015250565b5f6108c8602083610725565b91506108d382610894565b602082019050919050565b5f6020820190508181035f8301526108f5816108bc565b9050919050565b5f60ff82169050919050565b610911816108fc565b82525050565b5f60808201905061092a5f8301876107a6565b6109376020830186610908565b61094460408301856107a6565b61095160608301846107a6565b95945050505050565b7f4e487b71000000000000000000000000000000000000000000000000000000005f52602160045260245ffd5b5f60208201905061099a5f8301846107a6565b9291505056fea2646970667358221220eb6e85dd2d2e36c0877bd2759cc593dd1f900e063bbc876766dd03c40823231964736f6c634300081e0033",
					"opcodes": "PUSH1 0x80 PUSH1 0x40 MSTORE CALLVALUE DUP1 ISZERO PUSH2 0xF JUMPI PUSH0 PUSH0 REVERT JUMPDEST POP PUSH32 0x8B73C3C69BB8FE3D512ECC4CF759CC79239F7B179B0FFACAA9A75D522B39400F PUSH1 0x40 MLOAD DUP1 PUSH1 0x40 ADD PUSH1 0x40 MSTORE DUP1 PUSH1 0xD DUP2 MSTORE PUSH1 0x20 ADD PUSH32 0x45495037313253746F7261676500000000000000000000000000000000000000 DUP2 MSTORE POP DUP1 MLOAD SWAP1 PUSH1 0x20 ADD KECCAK256 PUSH1 0x40 MLOAD DUP1 PUSH1 0x40 ADD PUSH1 0x40 MSTORE DUP1 PUSH1 0x1 DUP2 MSTORE PUSH1 0x20 ADD PUSH32 0x3100000000000000000000000000000000000000000000000000000000000000 DUP2 MSTORE POP DUP1 MLOAD SWAP1 PUSH1 0x20 ADD KECCAK256 CHAINID ADDRESS PUSH1 0x40 MLOAD PUSH1 0x20 ADD PUSH2 0xC1 SWAP6 SWAP5 SWAP4 SWAP3 SWAP2 SWAP1 PUSH2 0x190 JUMP JUMPDEST PUSH1 0x40 MLOAD PUSH1 0x20 DUP2 DUP4 SUB SUB DUP2 MSTORE SWAP1 PUSH1 0x40 MSTORE DUP1 MLOAD SWAP1 PUSH1 0x20 ADD KECCAK256 PUSH0 DUP2 SWAP1 SSTORE POP CALLER PUSH1 0x2 PUSH0 PUSH2 0x100 EXP DUP2 SLOAD DUP2 PUSH20 0xFFFFFFFFFFFFFFFFFFFFFFFFFFFFFFFFFFFFFFFF MUL NOT AND SWAP1 DUP4 PUSH20 0xFFFFFFFFFFFFFFFFFFFFFFFFFFFFFFFFFFFFFFFF AND MUL OR SWAP1 SSTORE POP PUSH2 0x1E1 JUMP JUMPDEST PUSH0 DUP2 SWAP1 POP SWAP2 SWAP1 POP JUMP JUMPDEST PUSH2 0x133 DUP2 PUSH2 0x121 JUMP JUMPDEST DUP3 MSTORE POP POP JUMP JUMPDEST PUSH0 DUP2 SWAP1 POP SWAP2 SWAP1 POP JUMP JUMPDEST PUSH2 0x14B DUP2 PUSH2 0x139 JUMP JUMPDEST DUP3 MSTORE POP POP JUMP JUMPDEST PUSH0 PUSH20 0xFFFFFFFFFFFFFFFFFFFFFFFFFFFFFFFFFFFFFFFF DUP3 AND SWAP1 POP SWAP2 SWAP1 POP JUMP JUMPDEST PUSH0 PUSH2 0x17A DUP3 PUSH2 0x151 JUMP JUMPDEST SWAP1 POP SWAP2 SWAP1 POP JUMP JUMPDEST PUSH2 0x18A DUP2 PUSH2 0x170 JUMP JUMPDEST DUP3 MSTORE POP POP JUMP JUMPDEST PUSH0 PUSH1 0xA0 DUP3 ADD SWAP1 POP PUSH2 0x1A3 PUSH0 DUP4 ADD DUP9 PUSH2 0x12A JUMP JUMPDEST PUSH2 0x1B0 PUSH1 0x20 DUP4 ADD DUP8 PUSH2 0x12A JUMP JUMPDEST PUSH2 0x1BD PUSH1 0x40 DUP4 ADD DUP7 PUSH2 0x12A JUMP JUMPDEST PUSH2 0x1CA PUSH1 0x60 DUP4 ADD DUP6 PUSH2 0x142 JUMP JUMPDEST PUSH2 0x1D7 PUSH1 0x80 DUP4 ADD DUP5 PUSH2 0x181 JUMP JUMPDEST SWAP7 SWAP6 POP POP POP POP POP POP JUMP JUMPDEST PUSH2 0x9D6 DUP1 PUSH2 0x1EE PUSH0 CODECOPY PUSH0 RETURN INVALID PUSH1 0x80 PUSH1 0x40 MSTORE CALLVALUE DUP1 ISZERO PUSH2 0xF JUMPI PUSH0 PUSH0 REVERT JUMPDEST POP PUSH1 0x4 CALLDATASIZE LT PUSH2 0x3F JUMPI PUSH0 CALLDATALOAD PUSH1 0xE0 SHR DUP1 PUSH4 0x7FB4BF2A EQ PUSH2 0x43 JUMPI DUP1 PUSH4 0x8381F58A EQ PUSH2 0x5F JUMPI DUP1 PUSH4 0x8DA5CB5B EQ PUSH2 0x7D JUMPI JUMPDEST PUSH0 PUSH0 REVERT JUMPDEST PUSH2 0x5D PUSH1 0x4 DUP1 CALLDATASIZE SUB DUP2 ADD SWAP1 PUSH2 0x58 SWAP2 SWAP1 PUSH2 0x64B JUMP JUMPDEST PUSH2 0x9B JUMP JUMPDEST STOP JUMPDEST PUSH2 0x67 PUSH2 0x229 JUMP JUMPDEST PUSH1 0x40 MLOAD PUSH2 0x74 SWAP2 SWAP1 PUSH2 0x6B4 JUMP JUMPDEST PUSH1 0x40 MLOAD DUP1 SWAP2 SUB SWAP1 RETURN JUMPDEST PUSH2 0x85 PUSH2 0x22F JUMP JUMPDEST PUSH1 0x40 MLOAD PUSH2 0x92 SWAP2 SWAP1 PUSH2 0x70C JUMP JUMPDEST PUSH1 0x40 MLOAD DUP1 SWAP2 SUB SWAP1 RETURN JUMPDEST PUSH1 0x41 DUP2 MLOAD EQ PUSH2 0xDF JUMPI PUSH1 0x40 MLOAD PUSH32 0x8C379A000000000000000000000000000000000000000000000000000000000 DUP2 MSTORE PUSH1 0x4 ADD PUSH2 0xD6 SWAP1 PUSH2 0x77F JUMP JUMPDEST PUSH1 0x40 MLOAD DUP1 SWAP2 SUB SWAP1 REVERT JUMPDEST PUSH0 PUSH0 PUSH0 PUSH1 0x20 DUP5 ADD MLOAD SWAP3 POP PUSH1 0x40 DUP5 ADD MLOAD SWAP2 POP PUSH1 0x60 DUP5 ADD MLOAD PUSH0 BYTE SWAP1 POP PUSH0 PUSH0 SLOAD PUSH32 0xD0424B76EC7A3227309117DE6D952E26508AA80CC81CCAC30DC95ED1419924CD CALLER DUP9 PUSH1 0x40 MLOAD PUSH1 0x20 ADD PUSH2 0x131 SWAP4 SWAP3 SWAP2 SWAP1 PUSH2 0x7B5 JUMP JUMPDEST PUSH1 0x40 MLOAD PUSH1 0x20 DUP2 DUP4 SUB SUB DUP2 MSTORE SWAP1 PUSH1 0x40 MSTORE DUP1 MLOAD SWAP1 PUSH1 0x20 ADD KECCAK256 PUSH1 0x40 MLOAD PUSH1 0x20 ADD PUSH2 0x158 SWAP3 SWAP2 SWAP1 PUSH2 0x85E JUMP JUMPDEST PUSH1 0x40 MLOAD PUSH1 0x20 DUP2 DUP4 SUB SUB DUP2 MSTORE SWAP1 PUSH1 0x40 MSTORE DUP1 MLOAD SWAP1 PUSH1 0x20 ADD KECCAK256 SWAP1 POP PUSH0 PUSH2 0x188 DUP4 DUP7 DUP7 DUP6 PUSH2 0x254 SWAP1 SWAP4 SWAP3 SWAP2 SWAP1 PUSH4 0xFFFFFFFF AND JUMP JUMPDEST SWAP1 POP PUSH1 0x2 PUSH0 SWAP1 SLOAD SWAP1 PUSH2 0x100 EXP SWAP1 DIV PUSH20 0xFFFFFFFFFFFFFFFFFFFFFFFFFFFFFFFFFFFFFFFF AND PUSH20 0xFFFFFFFFFFFFFFFFFFFFFFFFFFFFFFFFFFFFFFFF AND DUP2 PUSH20 0xFFFFFFFFFFFFFFFFFFFFFFFFFFFFFFFFFFFFFFFF AND EQ PUSH2 0x219 JUMPI PUSH1 0x40 MLOAD PUSH32 0x8C379A000000000000000000000000000000000000000000000000000000000 DUP2 MSTORE PUSH1 0x4 ADD PUSH2 0x210 SWAP1 PUSH2 0x8DE JUMP JUMPDEST PUSH1 0x40 MLOAD DUP1 SWAP2 SUB SWAP1 REVERT JUMPDEST DUP7 PUSH1 0x1 DUP2 SWAP1 SSTORE POP POP POP POP POP POP POP POP JUMP JUMPDEST PUSH1 0x1 SLOAD DUP2 JUMP JUMPDEST PUSH1 0x2 PUSH0 SWAP1 SLOAD SWAP1 PUSH2 0x100 EXP SWAP1 DIV PUSH20 0xFFFFFFFFFFFFFFFFFFFFFFFFFFFFFFFFFFFFFFFF AND DUP2 JUMP JUMPDEST PUSH0 PUSH0 PUSH0 PUSH0 PUSH2 0x264 DUP9 DUP9 DUP9 DUP9 PUSH2 0x282 JUMP JUMPDEST SWAP3 POP SWAP3 POP SWAP3 POP PUSH2 0x274 DUP3 DUP3 PUSH2 0x369 JUMP JUMPDEST DUP3 SWAP4 POP POP POP POP SWAP5 SWAP4 POP POP POP POP JUMP JUMPDEST PUSH0 PUSH0 PUSH0 PUSH32 0x7FFFFFFFFFFFFFFFFFFFFFFFFFFFFFFF5D576E7357A4501DDFE92F46681B20A0 DUP5 PUSH0 SHR GT ISZERO PUSH2 0x2BE JUMPI PUSH0 PUSH1 0x3 DUP6 SWAP3 POP SWAP3 POP SWAP3 POP PUSH2 0x35F JUMP JUMPDEST PUSH0 PUSH1 0x1 DUP9 DUP9 DUP9 DUP9 PUSH1 0x40 MLOAD PUSH0 DUP2 MSTORE PUSH1 0x20 ADD PUSH1 0x40 MSTORE PUSH1 0x40 MLOAD PUSH2 0x2E1 SWAP5 SWAP4 SWAP3 SWAP2 SWAP1 PUSH2 0x917 JUMP JUMPDEST PUSH1 0x20 PUSH1 0x40 MLOAD PUSH1 0x20 DUP2 SUB SWAP1 DUP1 DUP5 SUB SWAP1 DUP6 GAS STATICCALL ISZERO DUP1 ISZERO PUSH2 0x301 JUMPI RETURNDATASIZE PUSH0 PUSH0 RETURNDATACOPY RETURNDATASIZE PUSH0 REVERT JUMPDEST POP POP POP PUSH1 0x20 PUSH1 0x40 MLOAD SUB MLOAD SWAP1 POP PUSH0 PUSH20 0xFFFFFFFFFFFFFFFFFFFFFFFFFFFFFFFFFFFFFFFF AND DUP2 PUSH20 0xFFFFFFFFFFFFFFFFFFFFFFFFFFFFFFFFFFFFFFFF AND SUB PUSH2 0x352 JUMPI PUSH0 PUSH1 0x1 PUSH0 PUSH0 SHL SWAP4 POP SWAP4 POP SWAP4 POP POP PUSH2 0x35F JUMP JUMPDEST DUP1 PUSH0 PUSH0 PUSH0 SHL SWAP4 POP SWAP4 POP SWAP4 POP POP JUMPDEST SWAP5 POP SWAP5 POP SWAP5 SWAP2 POP POP JUMP JUMPDEST PUSH0 PUSH1 0x3 DUP2 GT ISZERO PUSH2 0x37C JUMPI PUSH2 0x37B PUSH2 0x95A JUMP JUMPDEST JUMPDEST DUP3 PUSH1 0x3 DUP2 GT ISZERO PUSH2 0x38F JUMPI PUSH2 0x38E PUSH2 0x95A JUMP JUMPDEST JUMPDEST SUB ISZERO PUSH2 0x4C7 JUMPI PUSH1 0x1 PUSH1 0x3 DUP2 GT ISZERO PUSH2 0x3A9 JUMPI PUSH2 0x3A8 PUSH2 0x95A JUMP JUMPDEST JUMPDEST DUP3 PUSH1 0x3 DUP2 GT ISZERO PUSH2 0x3BC JUMPI PUSH2 0x3BB PUSH2 0x95A JUMP JUMPDEST JUMPDEST SUB PUSH2 0x3F3 JUMPI PUSH1 0x40 MLOAD PUSH32 0xF645EEDF00000000000000000000000000000000000000000000000000000000 DUP2 MSTORE PUSH1 0x4 ADD PUSH1 0x40 MLOAD DUP1 SWAP2 SUB SWAP1 REVERT JUMPDEST PUSH1 0x2 PUSH1 0x3 DUP2 GT ISZERO PUSH2 0x407 JUMPI PUSH2 0x406 PUSH2 0x95A JUMP JUMPDEST JUMPDEST DUP3 PUSH1 0x3 DUP2 GT ISZERO PUSH2 0x41A JUMPI PUSH2 0x419 PUSH2 0x95A JUMP JUMPDEST JUMPDEST SUB PUSH2 0x45E JUMPI DUP1 PUSH0 SHR PUSH1 0x40 MLOAD PUSH32 0xFCE698F700000000000000000000000000000000000000000000000000000000 DUP2 MSTORE PUSH1 0x4 ADD PUSH2 0x455 SWAP2 SWAP1 PUSH2 0x6B4 JUMP JUMPDEST PUSH1 0x40 MLOAD DUP1 SWAP2 SUB SWAP1 REVERT JUMPDEST PUSH1 0x3 DUP1 DUP2 GT ISZERO PUSH2 0x471 JUMPI PUSH2 0x470 PUSH2 0x95A JUMP JUMPDEST JUMPDEST DUP3 PUSH1 0x3 DUP2 GT ISZERO PUSH2 0x484 JUMPI PUSH2 0x483 PUSH2 0x95A JUMP JUMPDEST JUMPDEST SUB PUSH2 0x4C6 JUMPI DUP1 PUSH1 0x40 MLOAD PUSH32 0xD78BCE0C00000000000000000000000000000000000000000000000000000000 DUP2 MSTORE PUSH1 0x4 ADD PUSH2 0x4BD SWAP2 SWAP1 PUSH2 0x987 JUMP JUMPDEST PUSH1 0x40 MLOAD DUP1 SWAP2 SUB SWAP1 REVERT JUMPDEST JUMPDEST POP POP JUMP JUMPDEST PUSH0 PUSH1 0x40 MLOAD SWAP1 POP SWAP1 JUMP JUMPDEST PUSH0 PUSH0 REVERT JUMPDEST PUSH0 PUSH0 REVERT JUMPDEST PUSH0 DUP2 SWAP1 POP SWAP2 SWAP1 POP JUMP JUMPDEST PUSH2 0x4EE DUP2 PUSH2 0x4DC JUMP JUMPDEST DUP2 EQ PUSH2 0x4F8 JUMPI PUSH0 PUSH0 REVERT JUMPDEST POP JUMP JUMPDEST PUSH0 DUP2 CALLDATALOAD SWAP1 POP PUSH2 0x509 DUP2 PUSH2 0x4E5 JUMP JUMPDEST SWAP3 SWAP2 POP POP JUMP JUMPDEST PUSH0 PUSH0 REVERT JUMPDEST PUSH0 PUSH0 REVERT JUMPDEST PUSH0 PUSH1 0x1F NOT PUSH1 0x1F DUP4 ADD AND SWAP1 POP SWAP2 SWAP1 POP JUMP JUMPDEST PUSH32 0x4E487B7100000000000000000000000000000000000000000000000000000000 PUSH0 MSTORE PUSH1 0x41 PUSH1 0x4 MSTORE PUSH1 0x24 PUSH0 REVERT JUMPDEST PUSH2 0x55D DUP3 PUSH2 0x517 JUMP JUMPDEST DUP2 ADD DUP2 DUP2 LT PUSH8 0xFFFFFFFFFFFFFFFF DUP3 GT OR ISZERO PUSH2 0x57C JUMPI PUSH2 0x57B PUSH2 0x527 JUMP JUMPDEST JUMPDEST DUP1 PUSH1 0x40 MSTORE POP POP POP JUMP JUMPDEST PUSH0 PUSH2 0x58E PUSH2 0x4CB JUMP JUMPDEST SWAP1 POP PUSH2 0x59A DUP3 DUP3 PUSH2 0x554 JUMP JUMPDEST SWAP2 SWAP1 POP JUMP JUMPDEST PUSH0 PUSH8 0xFFFFFFFFFFFFFFFF DUP3 GT ISZERO PUSH2 0x5B9 JUMPI PUSH2 0x5B8 PUSH2 0x527 JUMP JUMPDEST JUMPDEST PUSH2 0x5C2 DUP3 PUSH2 0x517 JUMP JUMPDEST SWAP1 POP PUSH1 0x20 DUP2 ADD SWAP1 POP SWAP2 SWAP1 POP JUMP JUMPDEST DUP3 DUP2 DUP4 CALLDATACOPY PUSH0 DUP4 DUP4 ADD MSTORE POP POP POP JUMP JUMPDEST PUSH0 PUSH2 0x5EF PUSH2 0x5EA DUP5 PUSH2 0x59F JUMP JUMPDEST PUSH2 0x585 JUMP JUMPDEST SWAP1 POP DUP3 DUP2 MSTORE PUSH1 0x20 DUP2 ADD DUP5 DUP5 DUP5 ADD GT ISZERO PUSH2 0x60B JUMPI PUSH2 0x60A PUSH2 0x513 JUMP JUMPDEST JUMPDEST PUSH2 0x616 DUP5 DUP3 DUP6 PUSH2 0x5CF JUMP JUMPDEST POP SWAP4 SWAP3 POP POP POP JUMP JUMPDEST PUSH0 DUP3 PUSH1 0x1F DUP4 ADD SLT PUSH2 0x632 JUMPI PUSH2 0x631 PUSH2 0x50F JUMP JUMPDEST JUMPDEST DUP2 CALLDATALOAD PUSH2 0x642 DUP5 DUP3 PUSH1 0x20 DUP7 ADD PUSH2 0x5DD JUMP JUMPDEST SWAP2 POP POP SWAP3 SWAP2 POP POP JUMP JUMPDEST PUSH0 PUSH0 PUSH1 0x40 DUP4 DUP6 SUB SLT ISZERO PUSH2 0x661 JUMPI PUSH2 0x660 PUSH2 0x4D4 JUMP JUMPDEST JUMPDEST PUSH0 PUSH2 0x66E DUP6 DUP3 DUP7 ADD PUSH2 0x4FB JUMP JUMPDEST SWAP3 POP POP PUSH1 0x20 DUP4 ADD CALLDATALOAD PUSH8 0xFFFFFFFFFFFFFFFF DUP2 GT ISZERO PUSH2 0x68F JUMPI PUSH2 0x68E PUSH2 0x4D8 JUMP JUMPDEST JUMPDEST PUSH2 0x69B DUP6 DUP3 DUP7 ADD PUSH2 0x61E JUMP JUMPDEST SWAP2 POP POP SWAP3 POP SWAP3 SWAP1 POP JUMP JUMPDEST PUSH2 0x6AE DUP2 PUSH2 0x4DC JUMP JUMPDEST DUP3 MSTORE POP POP JUMP JUMPDEST PUSH0 PUSH1 0x20 DUP3 ADD SWAP1 POP PUSH2 0x6C7 PUSH0 DUP4 ADD DUP5 PUSH2 0x6A5 JUMP JUMPDEST SWAP3 SWAP2 POP POP JUMP JUMPDEST PUSH0 PUSH20 0xFFFFFFFFFFFFFFFFFFFFFFFFFFFFFFFFFFFFFFFF DUP3 AND SWAP1 POP SWAP2 SWAP1 POP JUMP JUMPDEST PUSH0 PUSH2 0x6F6 DUP3 PUSH2 0x6CD JUMP JUMPDEST SWAP1 POP SWAP2 SWAP1 POP JUMP JUMPDEST PUSH2 0x706 DUP2 PUSH2 0x6EC JUMP JUMPDEST DUP3 MSTORE POP POP JUMP JUMPDEST PUSH0 PUSH1 0x20 DUP3 ADD SWAP1 POP PUSH2 0x71F PUSH0 DUP4 ADD DUP5 PUSH2 0x6FD JUMP JUMPDEST SWAP3 SWAP2 POP POP JUMP JUMPDEST PUSH0 DUP3 DUP3 MSTORE PUSH1 0x20 DUP3 ADD SWAP1 POP SWAP3 SWAP2 POP POP JUMP JUMPDEST PUSH32 0x696E76616C6964207369676E6174757265206C656E6774680000000000000000 PUSH0 DUP3 ADD MSTORE POP JUMP JUMPDEST PUSH0 PUSH2 0x769 PUSH1 0x18 DUP4 PUSH2 0x725 JUMP JUMPDEST SWAP2 POP PUSH2 0x774 DUP3 PUSH2 0x735 JUMP JUMPDEST PUSH1 0x20 DUP3 ADD SWAP1 POP SWAP2 SWAP1 POP JUMP JUMPDEST PUSH0 PUSH1 0x20 DUP3 ADD SWAP1 POP DUP2 DUP2 SUB PUSH0 DUP4 ADD MSTORE PUSH2 0x796 DUP2 PUSH2 0x75D JUMP JUMPDEST SWAP1 POP SWAP2 SWAP1 POP JUMP JUMPDEST PUSH0 DUP2 SWAP1 POP SWAP2 SWAP1 POP JUMP JUMPDEST PUSH2 0x7AF DUP2 PUSH2 0x79D JUMP JUMPDEST DUP3 MSTORE POP POP JUMP JUMPDEST PUSH0 PUSH1 0x60 DUP3 ADD SWAP1 POP PUSH2 0x7C8 PUSH0 DUP4 ADD DUP7 PUSH2 0x7A6 JUMP JUMPDEST PUSH2 0x7D5 PUSH1 0x20 DUP4 ADD DUP6 PUSH2 0x6FD JUMP JUMPDEST PUSH2 0x7E2 PUSH1 0x40 DUP4 ADD DUP5 PUSH2 0x6A5 JUMP JUMPDEST SWAP5 SWAP4 POP POP POP POP JUMP JUMPDEST PUSH0 DUP2 SWAP1 POP SWAP3 SWAP2 POP POP JUMP JUMPDEST PUSH32 0x1901000000000000000000000000000000000000000000000000000000000000 PUSH0 DUP3 ADD MSTORE POP JUMP JUMPDEST PUSH0 PUSH2 0x828 PUSH1 0x2 DUP4 PUSH2 0x7EA JUMP JUMPDEST SWAP2 POP PUSH2 0x833 DUP3 PUSH2 0x7F4 JUMP JUMPDEST PUSH1 0x2 DUP3 ADD SWAP1 POP SWAP2 SWAP1 POP JUMP JUMPDEST PUSH0 DUP2 SWAP1 POP SWAP2 SWAP1 POP JUMP JUMPDEST PUSH2 0x858 PUSH2 0x853 DUP3 PUSH2 0x79D JUMP JUMPDEST PUSH2 0x83E JUMP JUMPDEST DUP3 MSTORE POP POP JUMP JUMPDEST PUSH0 PUSH2 0x868 DUP3 PUSH2 0x81C JUMP JUMPDEST SWAP2 POP PUSH2 0x874 DUP3 DUP6 PUSH2 0x847 JUMP JUMPDEST PUSH1 0x20 DUP3 ADD SWAP2 POP PUSH2 0x884 DUP3 DUP5 PUSH2 0x847 JUMP JUMPDEST PUSH1 0x20 DUP3 ADD SWAP2 POP DUP2 SWAP1 POP SWAP4 SWAP3 POP POP POP JUMP JUMPDEST PUSH32 0x45524337313253746F726167653A20496E76616C6964207369676E6174757265 PUSH0 DUP3 ADD MSTORE POP JUMP JUMPDEST PUSH0 PUSH2 0x8C8 PUSH1 0x20 DUP4 PUSH2 0x725 JUMP JUMPDEST SWAP2 POP PUSH2 0x8D3 DUP3 PUSH2 0x894 JUMP JUMPDEST PUSH1 0x20 DUP3 ADD SWAP1 POP SWAP2 SWAP1 POP JUMP JUMPDEST PUSH0 PUSH1 0x20 DUP3 ADD SWAP1 POP DUP2 DUP2 SUB PUSH0 DUP4 ADD MSTORE PUSH2 0x8F5 DUP2 PUSH2 0x8BC JUMP JUMPDEST SWAP1 POP SWAP2 SWAP1 POP JUMP JUMPDEST PUSH0 PUSH1 0xFF DUP3 AND SWAP1 POP SWAP2 SWAP1 POP JUMP JUMPDEST PUSH2 0x911 DUP2 PUSH2 0x8FC JUMP JUMPDEST DUP3 MSTORE POP POP JUMP JUMPDEST PUSH0 PUSH1 0x80 DUP3 ADD SWAP1 POP PUSH2 0x92A PUSH0 DUP4 ADD DUP8 PUSH2 0x7A6 JUMP JUMPDEST PUSH2 0x937 PUSH1 0x20 DUP4 ADD DUP7 PUSH2 0x908 JUMP JUMPDEST PUSH2 0x944 PUSH1 0x40 DUP4 ADD DUP6 PUSH2 0x7A6 JUMP JUMPDEST PUSH2 0x951 PUSH1 0x60 DUP4 ADD DUP5 PUSH2 0x7A6 JUMP JUMPDEST SWAP6 SWAP5 POP POP POP POP POP JUMP JUMPDEST PUSH32 0x4E487B7100000000000000000000000000000000000000000000000000000000 PUSH0 MSTORE PUSH1 0x21 PUSH1 0x4 MSTORE PUSH1 0x24 PUSH0 REVERT JUMPDEST PUSH0 PUSH1 0x20 DUP3 ADD SWAP1 POP PUSH2 0x99A PUSH0 DUP4 ADD DUP5 PUSH2 0x7A6 JUMP JUMPDEST SWAP3 SWAP2 POP POP JUMP INVALID LOG2 PUSH5 0x6970667358 0x22 SLT KECCAK256 0xEB PUSH15 0x85DD2D2E36C0877BD2759CC593DD1F SWAP1 0xE MOD EXTCODESIZE 0xBC DUP8 PUSH8 0x66DD03C408232319 PUSH5 0x736F6C6343 STOP ADDMOD 0x1E STOP CALLER "
				},
				"gasEstimates": {
					"creation": {
						"codeDepositCost": "503600",
						"executionCost": "infinite",
						"totalCost": "infinite"
					},
					"external": {
						"number()": "2425",
						"owner()": "2530",
						"permitStore(uint256,bytes)": "infinite"
					}
				},
				"methodIdentifiers": {
					"number()": "8381f58a",
					"owner()": "8da5cb5b",
					"permitStore(uint256,bytes)": "7fb4bf2a"
				}
			},
			"storageLayout": {
				"storage": [
					{
						"astId": 365,
						"contract": "contracts/ERC712Storage.sol:ERC712Storage",
						"label": "DOMAIN_SEPARATOR",
						"offset": 0,
						"slot": "0",
						"type": "t_bytes32"
					},
					{
						"astId": 367,
						"contract": "contracts/ERC712Storage.sol:ERC712Storage",
						"label": "number",
						"offset": 0,
						"slot": "1",
						"type": "t_uint256"
					},
					{
						"astId": 369,
						"contract": "contracts/ERC712Storage.sol:ERC712Storage",
						"label": "owner",
						"offset": 0,
						"slot": "2",
						"type": "t_address"
					}
				],
				"types": {
					"t_address": {
						"encoding": "inplace",
						"label": "address",
						"numberOfBytes": "20"
					},
					"t_bytes32": {
						"encoding": "inplace",
						"label": "bytes32",
						"numberOfBytes": "32"
					},
					"t_uint256": {
						"encoding": "inplace",
						"label": "uint256",
						"numberOfBytes": "32"
					}
				}
			},
			"userdoc": {
				"kind": "user",
				"methods": {},
				"version": 1
			}
		}
	}
}