{
	"contracts/token/ERC20/GeneralAirdrop.sol": {
		"GeneralAirdrop": {
			"abi": [
				{
					"anonymous": false,
					"inputs": [
						{
							"indexed": true,
							"internalType": "address",
							"name": "sender",
							"type": "address"
						},
						{
							"indexed": true,
							"internalType": "address",
							"name": "receiver",
							"type": "address"
						},
						{
							"indexed": false,
							"internalType": "uint256",
							"name": "amount",
							"type": "uint256"
						}
					],
					"name": "MultiAirdropETHFail",
					"type": "event"
				},
				{
					"anonymous": false,
					"inputs": [
						{
							"indexed": true,
							"internalType": "address",
							"name": "sender",
							"type": "address"
						}
					],
					"name": "MultiAirdropETHRebackFail",
					"type": "event"
				},
				{
					"inputs": [
						{
							"internalType": "address payable[]",
							"name": "_addresses",
							"type": "address[]"
						},
						{
							"internalType": "uint256[]",
							"name": "_amounts",
							"type": "uint256[]"
						}
					],
					"name": "multiTransferETH",
					"outputs": [],
					"stateMutability": "payable",
					"type": "function"
				},
				{
					"inputs": [
						{
							"internalType": "address",
							"name": "_token",
							"type": "address"
						},
						{
							"internalType": "address[]",
							"name": "_addresses",
							"type": "address[]"
						},
						{
							"internalType": "uint256[]",
							"name": "_amounts",
							"type": "uint256[]"
						}
					],
					"name": "multiTransferToken",
					"outputs": [],
					"stateMutability": "nonpayable",
					"type": "function"
				}
			],
			"devdoc": {
				"kind": "dev",
				"methods": {},
				"version": 1
			},
			"evm": {
				"assembly": "    /* \"contracts/token/ERC20/GeneralAirdrop.sol\":115:2240  contract GeneralAirdrop {... */\n  mstore(0x40, 0x80)\n  callvalue\n  dup1\n  iszero\n  tag_1\n  jumpi\n  revert(0x00, 0x00)\ntag_1:\n  pop\n  dataSize(sub_0)\n  dup1\n  dataOffset(sub_0)\n  0x00\n  codecopy\n  0x00\n  return\nstop\n\nsub_0: assembly {\n        /* \"contracts/token/ERC20/GeneralAirdrop.sol\":115:2240  contract GeneralAirdrop {... */\n      mstore(0x40, 0x80)\n      jumpi(tag_1, lt(calldatasize, 0x04))\n      shr(0xe0, calldataload(0x00))\n      dup1\n      0x41ed24a2\n      eq\n      tag_2\n      jumpi\n      dup1\n      0x77988cf8\n      eq\n      tag_3\n      jumpi\n    tag_1:\n      revert(0x00, 0x00)\n        /* \"contracts/token/ERC20/GeneralAirdrop.sol\":367:1027  function multiTransferToken(... */\n    tag_2:\n      callvalue\n      dup1\n      iszero\n      tag_4\n      jumpi\n      revert(0x00, 0x00)\n    tag_4:\n      pop\n      tag_5\n      0x04\n      dup1\n      calldatasize\n      sub\n      dup2\n      add\n      swap1\n      tag_6\n      swap2\n      swap1\n      tag_7\n      jump\t// in\n    tag_6:\n      tag_8\n      jump\t// in\n    tag_5:\n      stop\n        /* \"contracts/token/ERC20/GeneralAirdrop.sol\":1032:2019  function multiTransferETH(address payable[] calldata _addresses, uint256[] calldata _amounts) external payable {... */\n    tag_3:\n      tag_9\n      0x04\n      dup1\n      calldatasize\n      sub\n      dup2\n      add\n      swap1\n      tag_10\n      swap2\n      swap1\n      tag_11\n      jump\t// in\n    tag_10:\n      tag_12\n      jump\t// in\n    tag_9:\n      stop\n        /* \"contracts/token/ERC20/GeneralAirdrop.sol\":367:1027  function multiTransferToken(... */\n    tag_8:\n        /* \"contracts/token/ERC20/GeneralAirdrop.sol\":585:593  _amounts */\n      dup2\n      dup2\n        /* \"contracts/token/ERC20/GeneralAirdrop.sol\":585:600  _amounts.length */\n      swap1\n      pop\n        /* \"contracts/token/ERC20/GeneralAirdrop.sol\":564:574  _addresses */\n      dup5\n      dup5\n        /* \"contracts/token/ERC20/GeneralAirdrop.sol\":564:581  _addresses.length */\n      swap1\n      pop\n        /* \"contracts/token/ERC20/GeneralAirdrop.sol\":564:600  _addresses.length == _amounts.length */\n      eq\n        /* \"contracts/token/ERC20/GeneralAirdrop.sol\":556:648  require(_addresses.length == _amounts.length, \" lengths of Addresses and Amounts not equal\") */\n      tag_14\n      jumpi\n      mload(0x40)\n      0x08c379a000000000000000000000000000000000000000000000000000000000\n      dup2\n      mstore\n      0x04\n      add\n      tag_15\n      swap1\n      tag_16\n      jump\t// in\n    tag_15:\n      mload(0x40)\n      dup1\n      swap2\n      sub\n      swap1\n      revert\n    tag_14:\n        /* \"contracts/token/ERC20/GeneralAirdrop.sol\":688:700  IERC20 token */\n      0x00\n        /* \"contracts/token/ERC20/GeneralAirdrop.sol\":710:716  _token */\n      dup6\n        /* \"contracts/token/ERC20/GeneralAirdrop.sol\":688:717  IERC20 token = IERC20(_token) */\n      swap1\n      pop\n        /* \"contracts/token/ERC20/GeneralAirdrop.sol\":727:742  uint _amountSum */\n      0x00\n        /* \"contracts/token/ERC20/GeneralAirdrop.sol\":745:761  getSum(_amounts) */\n      tag_17\n        /* \"contracts/token/ERC20/GeneralAirdrop.sol\":752:760  _amounts */\n      dup5\n      dup5\n        /* \"contracts/token/ERC20/GeneralAirdrop.sol\":745:751  getSum */\n      tag_18\n        /* \"contracts/token/ERC20/GeneralAirdrop.sol\":745:761  getSum(_amounts) */\n      jump\t// in\n    tag_17:\n        /* \"contracts/token/ERC20/GeneralAirdrop.sol\":727:761  uint _amountSum = getSum(_amounts) */\n      swap1\n      pop\n        /* \"contracts/token/ERC20/GeneralAirdrop.sol\":823:833  _amountSum */\n      dup1\n        /* \"contracts/token/ERC20/GeneralAirdrop.sol\":779:784  token */\n      dup3\n        /* \"contracts/token/ERC20/GeneralAirdrop.sol\":779:794  token.allowance */\n      0xffffffffffffffffffffffffffffffffffffffff\n      and\n      0xdd62ed3e\n        /* \"contracts/token/ERC20/GeneralAirdrop.sol\":795:805  msg.sender */\n      caller\n        /* \"contracts/token/ERC20/GeneralAirdrop.sol\":815:819  this */\n      address\n        /* \"contracts/token/ERC20/GeneralAirdrop.sol\":779:821  token.allowance(msg.sender, address(this)) */\n      mload(0x40)\n      dup4\n      0xffffffff\n      and\n      0xe0\n      shl\n      dup2\n      mstore\n      0x04\n      add\n      tag_19\n      swap3\n      swap2\n      swap1\n      tag_20\n      jump\t// in\n    tag_19:\n      0x20\n      mload(0x40)\n      dup1\n      dup4\n      sub\n      dup2\n      dup7\n      gas\n      staticcall\n      iszero\n      dup1\n      iszero\n      tag_22\n      jumpi\n      returndatacopy(0x00, 0x00, returndatasize)\n      revert(0x00, returndatasize)\n    tag_22:\n      pop\n      pop\n      pop\n      pop\n      mload(0x40)\n      returndatasize\n      not(0x1f)\n      0x1f\n      dup3\n      add\n      and\n      dup3\n      add\n      dup1\n      0x40\n      mstore\n      pop\n      dup2\n      add\n      swap1\n      tag_23\n      swap2\n      swap1\n      tag_24\n      jump\t// in\n    tag_23:\n        /* \"contracts/token/ERC20/GeneralAirdrop.sol\":779:833  token.allowance(msg.sender, address(this))>=_amountSum */\n      lt\n      iszero\n        /* \"contracts/token/ERC20/GeneralAirdrop.sol\":771:863  require(token.allowance(msg.sender, address(this))>=_amountSum, \"Need approval ERC20 token\") */\n      tag_25\n      jumpi\n      mload(0x40)\n      0x08c379a000000000000000000000000000000000000000000000000000000000\n      dup2\n      mstore\n      0x04\n      add\n      tag_26\n      swap1\n      tag_27\n      jump\t// in\n    tag_26:\n      mload(0x40)\n      dup1\n      swap2\n      sub\n      swap1\n      revert\n    tag_25:\n        /* \"contracts/token/ERC20/GeneralAirdrop.sol\":901:907  uint i */\n      0x00\n        /* \"contracts/token/ERC20/GeneralAirdrop.sol\":908:909  0 */\n      0x00\n        /* \"contracts/token/ERC20/GeneralAirdrop.sol\":901:909  uint i=0 */\n      swap1\n      pop\n        /* \"contracts/token/ERC20/GeneralAirdrop.sol\":897:1020  for(uint i=0; i<_addresses.length; i++) {... */\n    tag_28:\n        /* \"contracts/token/ERC20/GeneralAirdrop.sol\":913:923  _addresses */\n      dup7\n      dup7\n        /* \"contracts/token/ERC20/GeneralAirdrop.sol\":913:930  _addresses.length */\n      swap1\n      pop\n        /* \"contracts/token/ERC20/GeneralAirdrop.sol\":911:912  i */\n      dup2\n        /* \"contracts/token/ERC20/GeneralAirdrop.sol\":911:930  i<_addresses.length */\n      lt\n        /* \"contracts/token/ERC20/GeneralAirdrop.sol\":897:1020  for(uint i=0; i<_addresses.length; i++) {... */\n      iszero\n      tag_29\n      jumpi\n        /* \"contracts/token/ERC20/GeneralAirdrop.sol\":951:956  token */\n      dup3\n        /* \"contracts/token/ERC20/GeneralAirdrop.sol\":951:969  token.transferFrom */\n      0xffffffffffffffffffffffffffffffffffffffff\n      and\n      0x23b872dd\n        /* \"contracts/token/ERC20/GeneralAirdrop.sol\":970:980  msg.sender */\n      caller\n        /* \"contracts/token/ERC20/GeneralAirdrop.sol\":982:992  _addresses */\n      dup10\n      dup10\n        /* \"contracts/token/ERC20/GeneralAirdrop.sol\":993:994  i */\n      dup6\n        /* \"contracts/token/ERC20/GeneralAirdrop.sol\":982:995  _addresses[i] */\n      dup2\n      dup2\n      lt\n      tag_31\n      jumpi\n      tag_32\n      tag_33\n      jump\t// in\n    tag_32:\n    tag_31:\n      swap1\n      pop\n      0x20\n      mul\n      add\n      0x20\n      dup2\n      add\n      swap1\n      tag_34\n      swap2\n      swap1\n      tag_35\n      jump\t// in\n    tag_34:\n        /* \"contracts/token/ERC20/GeneralAirdrop.sol\":997:1005  _amounts */\n      dup9\n      dup9\n        /* \"contracts/token/ERC20/GeneralAirdrop.sol\":1006:1007  i */\n      dup7\n        /* \"contracts/token/ERC20/GeneralAirdrop.sol\":997:1008  _amounts[i] */\n      dup2\n      dup2\n      lt\n      tag_36\n      jumpi\n      tag_37\n      tag_33\n      jump\t// in\n    tag_37:\n    tag_36:\n      swap1\n      pop\n      0x20\n      mul\n      add\n      calldataload\n        /* \"contracts/token/ERC20/GeneralAirdrop.sol\":951:1009  token.transferFrom(msg.sender, _addresses[i], _amounts[i]) */\n      mload(0x40)\n      dup5\n      0xffffffff\n      and\n      0xe0\n      shl\n      dup2\n      mstore\n      0x04\n      add\n      tag_38\n      swap4\n      swap3\n      swap2\n      swap1\n      tag_39\n      jump\t// in\n    tag_38:\n      0x20\n      mload(0x40)\n      dup1\n      dup4\n      sub\n      dup2\n      0x00\n      dup8\n      gas\n      call\n      iszero\n      dup1\n      iszero\n      tag_41\n      jumpi\n      returndatacopy(0x00, 0x00, returndatasize)\n      revert(0x00, returndatasize)\n    tag_41:\n      pop\n      pop\n      pop\n      pop\n      mload(0x40)\n      returndatasize\n      not(0x1f)\n      0x1f\n      dup3\n      add\n      and\n      dup3\n      add\n      dup1\n      0x40\n      mstore\n      pop\n      dup2\n      add\n      swap1\n      tag_42\n      swap2\n      swap1\n      tag_43\n      jump\t// in\n    tag_42:\n      pop\n        /* \"contracts/token/ERC20/GeneralAirdrop.sol\":932:935  i++ */\n      dup1\n      dup1\n      0x01\n      add\n      swap2\n      pop\n      pop\n        /* \"contracts/token/ERC20/GeneralAirdrop.sol\":897:1020  for(uint i=0; i<_addresses.length; i++) {... */\n      jump(tag_28)\n    tag_29:\n      pop\n        /* \"contracts/token/ERC20/GeneralAirdrop.sol\":510:1027  {... */\n      pop\n      pop\n        /* \"contracts/token/ERC20/GeneralAirdrop.sol\":367:1027  function multiTransferToken(... */\n      pop\n      pop\n      pop\n      pop\n      pop\n      jump\t// out\n        /* \"contracts/token/ERC20/GeneralAirdrop.sol\":1032:2019  function multiTransferETH(address payable[] calldata _addresses, uint256[] calldata _amounts) external payable {... */\n    tag_12:\n        /* \"contracts/token/ERC20/GeneralAirdrop.sol\":1218:1226  _amounts */\n      dup2\n      dup2\n        /* \"contracts/token/ERC20/GeneralAirdrop.sol\":1218:1233  _amounts.length */\n      swap1\n      pop\n        /* \"contracts/token/ERC20/GeneralAirdrop.sol\":1197:1207  _addresses */\n      dup5\n      dup5\n        /* \"contracts/token/ERC20/GeneralAirdrop.sol\":1197:1214  _addresses.length */\n      swap1\n      pop\n        /* \"contracts/token/ERC20/GeneralAirdrop.sol\":1197:1233  _addresses.length == _amounts.length */\n      eq\n        /* \"contracts/token/ERC20/GeneralAirdrop.sol\":1189:1281  require(_addresses.length == _amounts.length, \" lengths of Addresses and Amounts not equal\") */\n      tag_45\n      jumpi\n      mload(0x40)\n      0x08c379a000000000000000000000000000000000000000000000000000000000\n      dup2\n      mstore\n      0x04\n      add\n      tag_46\n      swap1\n      tag_16\n      jump\t// in\n    tag_46:\n      mload(0x40)\n      dup1\n      swap2\n      sub\n      swap1\n      revert\n    tag_45:\n        /* \"contracts/token/ERC20/GeneralAirdrop.sol\":1315:1330  uint _amountSum */\n      0x00\n        /* \"contracts/token/ERC20/GeneralAirdrop.sol\":1333:1349  getSum(_amounts) */\n      tag_47\n        /* \"contracts/token/ERC20/GeneralAirdrop.sol\":1340:1348  _amounts */\n      dup4\n      dup4\n        /* \"contracts/token/ERC20/GeneralAirdrop.sol\":1333:1339  getSum */\n      tag_18\n        /* \"contracts/token/ERC20/GeneralAirdrop.sol\":1333:1349  getSum(_amounts) */\n      jump\t// in\n    tag_47:\n        /* \"contracts/token/ERC20/GeneralAirdrop.sol\":1315:1349  uint _amountSum = getSum(_amounts) */\n      swap1\n      pop\n        /* \"contracts/token/ERC20/GeneralAirdrop.sol\":1378:1388  _amountSum */\n      dup1\n        /* \"contracts/token/ERC20/GeneralAirdrop.sol\":1367:1376  msg.value */\n      callvalue\n        /* \"contracts/token/ERC20/GeneralAirdrop.sol\":1367:1388  msg.value>=_amountSum */\n      lt\n      iszero\n        /* \"contracts/token/ERC20/GeneralAirdrop.sol\":1359:1412  require(msg.value>=_amountSum, \"msgValue not enough\") */\n      tag_48\n      jumpi\n      mload(0x40)\n      0x08c379a000000000000000000000000000000000000000000000000000000000\n      dup2\n      mstore\n      0x04\n      add\n      tag_49\n      swap1\n      tag_50\n      jump\t// in\n    tag_49:\n      mload(0x40)\n      dup1\n      swap2\n      sub\n      swap1\n      revert\n    tag_48:\n        /* \"contracts/token/ERC20/GeneralAirdrop.sol\":1422:1434  uint sendSum */\n      0x00\n        /* \"contracts/token/ERC20/GeneralAirdrop.sol\":1437:1438  0 */\n      0x00\n        /* \"contracts/token/ERC20/GeneralAirdrop.sol\":1422:1438  uint sendSum = 0 */\n      swap1\n      pop\n        /* \"contracts/token/ERC20/GeneralAirdrop.sol\":1452:1458  uint i */\n      0x00\n        /* \"contracts/token/ERC20/GeneralAirdrop.sol\":1459:1460  0 */\n      0x00\n        /* \"contracts/token/ERC20/GeneralAirdrop.sol\":1452:1460  uint i=0 */\n      swap1\n      pop\n        /* \"contracts/token/ERC20/GeneralAirdrop.sol\":1448:1803  for(uint i=0; i<_addresses.length; i++) {... */\n    tag_51:\n        /* \"contracts/token/ERC20/GeneralAirdrop.sol\":1464:1474  _addresses */\n      dup7\n      dup7\n        /* \"contracts/token/ERC20/GeneralAirdrop.sol\":1464:1481  _addresses.length */\n      swap1\n      pop\n        /* \"contracts/token/ERC20/GeneralAirdrop.sol\":1462:1463  i */\n      dup2\n        /* \"contracts/token/ERC20/GeneralAirdrop.sol\":1462:1481  i<_addresses.length */\n      lt\n        /* \"contracts/token/ERC20/GeneralAirdrop.sol\":1448:1803  for(uint i=0; i<_addresses.length; i++) {... */\n      iszero\n      tag_52\n      jumpi\n        /* \"contracts/token/ERC20/GeneralAirdrop.sol\":1572:1584  bool success */\n      0x00\n        /* \"contracts/token/ERC20/GeneralAirdrop.sol\":1590:1600  _addresses */\n      dup8\n      dup8\n        /* \"contracts/token/ERC20/GeneralAirdrop.sol\":1601:1602  i */\n      dup4\n        /* \"contracts/token/ERC20/GeneralAirdrop.sol\":1590:1603  _addresses[i] */\n      dup2\n      dup2\n      lt\n      tag_54\n      jumpi\n      tag_55\n      tag_33\n      jump\t// in\n    tag_55:\n    tag_54:\n      swap1\n      pop\n      0x20\n      mul\n      add\n      0x20\n      dup2\n      add\n      swap1\n      tag_56\n      swap2\n      swap1\n      tag_57\n      jump\t// in\n    tag_56:\n        /* \"contracts/token/ERC20/GeneralAirdrop.sol\":1590:1608  _addresses[i].call */\n      0xffffffffffffffffffffffffffffffffffffffff\n      and\n        /* \"contracts/token/ERC20/GeneralAirdrop.sol\":1616:1624  _amounts */\n      dup7\n      dup7\n        /* \"contracts/token/ERC20/GeneralAirdrop.sol\":1625:1626  i */\n      dup5\n        /* \"contracts/token/ERC20/GeneralAirdrop.sol\":1616:1627  _amounts[i] */\n      dup2\n      dup2\n      lt\n      tag_58\n      jumpi\n      tag_59\n      tag_33\n      jump\t// in\n    tag_59:\n    tag_58:\n      swap1\n      pop\n      0x20\n      mul\n      add\n      calldataload\n        /* \"contracts/token/ERC20/GeneralAirdrop.sol\":1590:1632  _addresses[i].call{value: _amounts[i]}(\"\") */\n      mload(0x40)\n      tag_60\n      swap1\n      tag_61\n      jump\t// in\n    tag_60:\n      0x00\n      mload(0x40)\n      dup1\n      dup4\n      sub\n      dup2\n      dup6\n      dup8\n      gas\n      call\n      swap3\n      pop\n      pop\n      pop\n      returndatasize\n      dup1\n      0x00\n      dup2\n      eq\n      tag_64\n      jumpi\n      mload(0x40)\n      swap2\n      pop\n      and(add(returndatasize, 0x3f), not(0x1f))\n      dup3\n      add\n      0x40\n      mstore\n      returndatasize\n      dup3\n      mstore\n      returndatasize\n      0x00\n      0x20\n      dup5\n      add\n      returndatacopy\n      jump(tag_63)\n    tag_64:\n      0x60\n      swap2\n      pop\n    tag_63:\n      pop\n        /* \"contracts/token/ERC20/GeneralAirdrop.sol\":1571:1632  (bool success, ) = _addresses[i].call{value: _amounts[i]}(\"\") */\n      pop\n      swap1\n      pop\n        /* \"contracts/token/ERC20/GeneralAirdrop.sol\":1651:1658  success */\n      dup1\n        /* \"contracts/token/ERC20/GeneralAirdrop.sol\":1646:1757  if (!success) {... */\n      tag_65\n      jumpi\n        /* \"contracts/token/ERC20/GeneralAirdrop.sol\":1715:1725  _addresses */\n      dup8\n      dup8\n        /* \"contracts/token/ERC20/GeneralAirdrop.sol\":1726:1727  i */\n      dup4\n        /* \"contracts/token/ERC20/GeneralAirdrop.sol\":1715:1728  _addresses[i] */\n      dup2\n      dup2\n      lt\n      tag_66\n      jumpi\n      tag_67\n      tag_33\n      jump\t// in\n    tag_67:\n    tag_66:\n      swap1\n      pop\n      0x20\n      mul\n      add\n      0x20\n      dup2\n      add\n      swap1\n      tag_68\n      swap2\n      swap1\n      tag_57\n      jump\t// in\n    tag_68:\n        /* \"contracts/token/ERC20/GeneralAirdrop.sol\":1683:1742  MultiAirdropETHFail(msg.sender, _addresses[i], _amounts[i]) */\n      0xffffffffffffffffffffffffffffffffffffffff\n      and\n        /* \"contracts/token/ERC20/GeneralAirdrop.sol\":1703:1713  msg.sender */\n      caller\n        /* \"contracts/token/ERC20/GeneralAirdrop.sol\":1683:1742  MultiAirdropETHFail(msg.sender, _addresses[i], _amounts[i]) */\n      0xffffffffffffffffffffffffffffffffffffffff\n      and\n      0xf74c61fd0e23e85ad03b1481901cd6e7b7f88a303083915a9e4e0aeeab67316a\n        /* \"contracts/token/ERC20/GeneralAirdrop.sol\":1730:1738  _amounts */\n      dup9\n      dup9\n        /* \"contracts/token/ERC20/GeneralAirdrop.sol\":1739:1740  i */\n      dup7\n        /* \"contracts/token/ERC20/GeneralAirdrop.sol\":1730:1741  _amounts[i] */\n      dup2\n      dup2\n      lt\n      tag_69\n      jumpi\n      tag_70\n      tag_33\n      jump\t// in\n    tag_70:\n    tag_69:\n      swap1\n      pop\n      0x20\n      mul\n      add\n      calldataload\n        /* \"contracts/token/ERC20/GeneralAirdrop.sol\":1683:1742  MultiAirdropETHFail(msg.sender, _addresses[i], _amounts[i]) */\n      mload(0x40)\n      tag_71\n      swap2\n      swap1\n      tag_72\n      jump\t// in\n    tag_71:\n      mload(0x40)\n      dup1\n      swap2\n      sub\n      swap1\n      log3\n        /* \"contracts/token/ERC20/GeneralAirdrop.sol\":1646:1757  if (!success) {... */\n    tag_65:\n        /* \"contracts/token/ERC20/GeneralAirdrop.sol\":1781:1789  _amounts */\n      dup6\n      dup6\n        /* \"contracts/token/ERC20/GeneralAirdrop.sol\":1790:1791  i */\n      dup4\n        /* \"contracts/token/ERC20/GeneralAirdrop.sol\":1781:1792  _amounts[i] */\n      dup2\n      dup2\n      lt\n      tag_73\n      jumpi\n      tag_74\n      tag_33\n      jump\t// in\n    tag_74:\n    tag_73:\n      swap1\n      pop\n      0x20\n      mul\n      add\n      calldataload\n        /* \"contracts/token/ERC20/GeneralAirdrop.sol\":1770:1792  sendSum += _amounts[i] */\n      dup4\n      tag_75\n      swap2\n      swap1\n      tag_76\n      jump\t// in\n    tag_75:\n      swap3\n      pop\n        /* \"contracts/token/ERC20/GeneralAirdrop.sol\":1488:1803  {... */\n      pop\n        /* \"contracts/token/ERC20/GeneralAirdrop.sol\":1483:1486  i++ */\n      dup1\n      dup1\n      0x01\n      add\n      swap2\n      pop\n      pop\n        /* \"contracts/token/ERC20/GeneralAirdrop.sol\":1448:1803  for(uint i=0; i<_addresses.length; i++) {... */\n      jump(tag_51)\n    tag_52:\n      pop\n        /* \"contracts/token/ERC20/GeneralAirdrop.sol\":1840:1857  bool rebackResult */\n      0x00\n        /* \"contracts/token/ERC20/GeneralAirdrop.sol\":1871:1881  msg.sender */\n      caller\n        /* \"contracts/token/ERC20/GeneralAirdrop.sol\":1863:1887  payable(msg.sender).call */\n      0xffffffffffffffffffffffffffffffffffffffff\n      and\n        /* \"contracts/token/ERC20/GeneralAirdrop.sol\":1905:1912  sendSum */\n      dup3\n        /* \"contracts/token/ERC20/GeneralAirdrop.sol\":1895:1904  msg.value */\n      callvalue\n        /* \"contracts/token/ERC20/GeneralAirdrop.sol\":1895:1912  msg.value-sendSum */\n      tag_77\n      swap2\n      swap1\n      tag_78\n      jump\t// in\n    tag_77:\n        /* \"contracts/token/ERC20/GeneralAirdrop.sol\":1863:1917  payable(msg.sender).call{value: msg.value-sendSum}(\"\") */\n      mload(0x40)\n      tag_79\n      swap1\n      tag_61\n      jump\t// in\n    tag_79:\n      0x00\n      mload(0x40)\n      dup1\n      dup4\n      sub\n      dup2\n      dup6\n      dup8\n      gas\n      call\n      swap3\n      pop\n      pop\n      pop\n      returndatasize\n      dup1\n      0x00\n      dup2\n      eq\n      tag_82\n      jumpi\n      mload(0x40)\n      swap2\n      pop\n      and(add(returndatasize, 0x3f), not(0x1f))\n      dup3\n      add\n      0x40\n      mstore\n      returndatasize\n      dup3\n      mstore\n      returndatasize\n      0x00\n      0x20\n      dup5\n      add\n      returndatacopy\n      jump(tag_81)\n    tag_82:\n      0x60\n      swap2\n      pop\n    tag_81:\n      pop\n        /* \"contracts/token/ERC20/GeneralAirdrop.sol\":1839:1917  (bool rebackResult, ) = payable(msg.sender).call{value: msg.value-sendSum}(\"\") */\n      pop\n      swap1\n      pop\n        /* \"contracts/token/ERC20/GeneralAirdrop.sol\":1932:1944  rebackResult */\n      dup1\n        /* \"contracts/token/ERC20/GeneralAirdrop.sol\":1927:2013  if (!rebackResult) {... */\n      tag_83\n      jumpi\n        /* \"contracts/token/ERC20/GeneralAirdrop.sol\":1991:2001  msg.sender */\n      caller\n        /* \"contracts/token/ERC20/GeneralAirdrop.sol\":1965:2002  MultiAirdropETHRebackFail(msg.sender) */\n      0xffffffffffffffffffffffffffffffffffffffff\n      and\n      0x08fbab07f09f46ad2d85b20bb9d7a5e69d8de0e6d69ec34e94ea3ddafc6f7151\n      mload(0x40)\n      mload(0x40)\n      dup1\n      swap2\n      sub\n      swap1\n      log2\n        /* \"contracts/token/ERC20/GeneralAirdrop.sol\":1927:2013  if (!rebackResult) {... */\n    tag_83:\n        /* \"contracts/token/ERC20/GeneralAirdrop.sol\":1143:2019  {... */\n      pop\n      pop\n      pop\n        /* \"contracts/token/ERC20/GeneralAirdrop.sol\":1032:2019  function multiTransferETH(address payable[] calldata _addresses, uint256[] calldata _amounts) external payable {... */\n      pop\n      pop\n      pop\n      pop\n      jump\t// out\n        /* \"contracts/token/ERC20/GeneralAirdrop.sol\":2024:2238  function getSum(uint256[] calldata _amounts) private pure returns(uint256) {... */\n    tag_18:\n        /* \"contracts/token/ERC20/GeneralAirdrop.sol\":2090:2097  uint256 */\n      0x00\n        /* \"contracts/token/ERC20/GeneralAirdrop.sol\":2109:2117  uint sum */\n      0x00\n        /* \"contracts/token/ERC20/GeneralAirdrop.sol\":2120:2121  0 */\n      0x00\n        /* \"contracts/token/ERC20/GeneralAirdrop.sol\":2109:2121  uint sum = 0 */\n      swap1\n      pop\n        /* \"contracts/token/ERC20/GeneralAirdrop.sol\":2135:2141  uint i */\n      0x00\n        /* \"contracts/token/ERC20/GeneralAirdrop.sol\":2142:2143  0 */\n      0x00\n        /* \"contracts/token/ERC20/GeneralAirdrop.sol\":2135:2143  uint i=0 */\n      swap1\n      pop\n        /* \"contracts/token/ERC20/GeneralAirdrop.sol\":2131:2212  for(uint i=0; i<_amounts.length; i++) {... */\n    tag_85:\n        /* \"contracts/token/ERC20/GeneralAirdrop.sol\":2147:2155  _amounts */\n      dup5\n      dup5\n        /* \"contracts/token/ERC20/GeneralAirdrop.sol\":2147:2162  _amounts.length */\n      swap1\n      pop\n        /* \"contracts/token/ERC20/GeneralAirdrop.sol\":2145:2146  i */\n      dup2\n        /* \"contracts/token/ERC20/GeneralAirdrop.sol\":2145:2162  i<_amounts.length */\n      lt\n        /* \"contracts/token/ERC20/GeneralAirdrop.sol\":2131:2212  for(uint i=0; i<_amounts.length; i++) {... */\n      iszero\n      tag_86\n      jumpi\n        /* \"contracts/token/ERC20/GeneralAirdrop.sol\":2190:2198  _amounts */\n      dup5\n      dup5\n        /* \"contracts/token/ERC20/GeneralAirdrop.sol\":2199:2200  i */\n      dup3\n        /* \"contracts/token/ERC20/GeneralAirdrop.sol\":2190:2201  _amounts[i] */\n      dup2\n      dup2\n      lt\n      tag_88\n      jumpi\n      tag_89\n      tag_33\n      jump\t// in\n    tag_89:\n    tag_88:\n      swap1\n      pop\n      0x20\n      mul\n      add\n      calldataload\n        /* \"contracts/token/ERC20/GeneralAirdrop.sol\":2183:2201  sum += _amounts[i] */\n      dup3\n      tag_90\n      swap2\n      swap1\n      tag_76\n      jump\t// in\n    tag_90:\n      swap2\n      pop\n        /* \"contracts/token/ERC20/GeneralAirdrop.sol\":2164:2167  i++ */\n      dup1\n      dup1\n      0x01\n      add\n      swap2\n      pop\n      pop\n        /* \"contracts/token/ERC20/GeneralAirdrop.sol\":2131:2212  for(uint i=0; i<_amounts.length; i++) {... */\n      jump(tag_85)\n    tag_86:\n      pop\n        /* \"contracts/token/ERC20/GeneralAirdrop.sol\":2228:2231  sum */\n      dup1\n        /* \"contracts/token/ERC20/GeneralAirdrop.sol\":2221:2231  return sum */\n      swap2\n      pop\n      pop\n        /* \"contracts/token/ERC20/GeneralAirdrop.sol\":2024:2238  function getSum(uint256[] calldata _amounts) private pure returns(uint256) {... */\n      swap3\n      swap2\n      pop\n      pop\n      jump\t// out\n        /* \"#utility.yul\":88:205   */\n    tag_92:\n        /* \"#utility.yul\":197:198   */\n      0x00\n        /* \"#utility.yul\":194:195   */\n      0x00\n        /* \"#utility.yul\":187:199   */\n      revert\n        /* \"#utility.yul\":211:328   */\n    tag_93:\n        /* \"#utility.yul\":320:321   */\n      0x00\n        /* \"#utility.yul\":317:318   */\n      0x00\n        /* \"#utility.yul\":310:322   */\n      revert\n        /* \"#utility.yul\":334:460   */\n    tag_94:\n        /* \"#utility.yul\":371:378   */\n      0x00\n        /* \"#utility.yul\":411:453   */\n      0xffffffffffffffffffffffffffffffffffffffff\n        /* \"#utility.yul\":404:409   */\n      dup3\n        /* \"#utility.yul\":400:454   */\n      and\n        /* \"#utility.yul\":389:454   */\n      swap1\n      pop\n        /* \"#utility.yul\":334:460   */\n      swap2\n      swap1\n      pop\n      jump\t// out\n        /* \"#utility.yul\":466:562   */\n    tag_95:\n        /* \"#utility.yul\":503:510   */\n      0x00\n        /* \"#utility.yul\":532:556   */\n      tag_132\n        /* \"#utility.yul\":550:555   */\n      dup3\n        /* \"#utility.yul\":532:556   */\n      tag_94\n      jump\t// in\n    tag_132:\n        /* \"#utility.yul\":521:556   */\n      swap1\n      pop\n        /* \"#utility.yul\":466:562   */\n      swap2\n      swap1\n      pop\n      jump\t// out\n        /* \"#utility.yul\":568:690   */\n    tag_96:\n        /* \"#utility.yul\":641:665   */\n      tag_134\n        /* \"#utility.yul\":659:664   */\n      dup2\n        /* \"#utility.yul\":641:665   */\n      tag_95\n      jump\t// in\n    tag_134:\n        /* \"#utility.yul\":634:639   */\n      dup2\n        /* \"#utility.yul\":631:666   */\n      eq\n        /* \"#utility.yul\":621:684   */\n      tag_135\n      jumpi\n        /* \"#utility.yul\":680:681   */\n      0x00\n        /* \"#utility.yul\":677:678   */\n      0x00\n        /* \"#utility.yul\":670:682   */\n      revert\n        /* \"#utility.yul\":621:684   */\n    tag_135:\n        /* \"#utility.yul\":568:690   */\n      pop\n      jump\t// out\n        /* \"#utility.yul\":696:835   */\n    tag_97:\n        /* \"#utility.yul\":742:747   */\n      0x00\n        /* \"#utility.yul\":780:786   */\n      dup2\n        /* \"#utility.yul\":767:787   */\n      calldataload\n        /* \"#utility.yul\":758:787   */\n      swap1\n      pop\n        /* \"#utility.yul\":796:829   */\n      tag_137\n        /* \"#utility.yul\":823:828   */\n      dup2\n        /* \"#utility.yul\":796:829   */\n      tag_96\n      jump\t// in\n    tag_137:\n        /* \"#utility.yul\":696:835   */\n      swap3\n      swap2\n      pop\n      pop\n      jump\t// out\n        /* \"#utility.yul\":841:958   */\n    tag_98:\n        /* \"#utility.yul\":950:951   */\n      0x00\n        /* \"#utility.yul\":947:948   */\n      0x00\n        /* \"#utility.yul\":940:952   */\n      revert\n        /* \"#utility.yul\":964:1081   */\n    tag_99:\n        /* \"#utility.yul\":1073:1074   */\n      0x00\n        /* \"#utility.yul\":1070:1071   */\n      0x00\n        /* \"#utility.yul\":1063:1075   */\n      revert\n        /* \"#utility.yul\":1087:1204   */\n    tag_100:\n        /* \"#utility.yul\":1196:1197   */\n      0x00\n        /* \"#utility.yul\":1193:1194   */\n      0x00\n        /* \"#utility.yul\":1186:1198   */\n      revert\n        /* \"#utility.yul\":1227:1795   */\n    tag_101:\n        /* \"#utility.yul\":1300:1308   */\n      0x00\n        /* \"#utility.yul\":1310:1316   */\n      0x00\n        /* \"#utility.yul\":1360:1363   */\n      dup4\n        /* \"#utility.yul\":1353:1357   */\n      0x1f\n        /* \"#utility.yul\":1345:1351   */\n      dup5\n        /* \"#utility.yul\":1341:1358   */\n      add\n        /* \"#utility.yul\":1337:1364   */\n      slt\n        /* \"#utility.yul\":1327:1449   */\n      tag_142\n      jumpi\n        /* \"#utility.yul\":1368:1447   */\n      tag_143\n      tag_98\n      jump\t// in\n    tag_143:\n        /* \"#utility.yul\":1327:1449   */\n    tag_142:\n        /* \"#utility.yul\":1481:1487   */\n      dup3\n        /* \"#utility.yul\":1468:1488   */\n      calldataload\n        /* \"#utility.yul\":1458:1488   */\n      swap1\n      pop\n        /* \"#utility.yul\":1511:1529   */\n      0xffffffffffffffff\n        /* \"#utility.yul\":1503:1509   */\n      dup2\n        /* \"#utility.yul\":1500:1530   */\n      gt\n        /* \"#utility.yul\":1497:1614   */\n      iszero\n      tag_144\n      jumpi\n        /* \"#utility.yul\":1533:1612   */\n      tag_145\n      tag_99\n      jump\t// in\n    tag_145:\n        /* \"#utility.yul\":1497:1614   */\n    tag_144:\n        /* \"#utility.yul\":1647:1651   */\n      0x20\n        /* \"#utility.yul\":1639:1645   */\n      dup4\n        /* \"#utility.yul\":1635:1652   */\n      add\n        /* \"#utility.yul\":1623:1652   */\n      swap2\n      pop\n        /* \"#utility.yul\":1701:1704   */\n      dup4\n        /* \"#utility.yul\":1693:1697   */\n      0x20\n        /* \"#utility.yul\":1685:1691   */\n      dup3\n        /* \"#utility.yul\":1681:1698   */\n      mul\n        /* \"#utility.yul\":1671:1679   */\n      dup4\n        /* \"#utility.yul\":1667:1699   */\n      add\n        /* \"#utility.yul\":1664:1705   */\n      gt\n        /* \"#utility.yul\":1661:1789   */\n      iszero\n      tag_146\n      jumpi\n        /* \"#utility.yul\":1708:1787   */\n      tag_147\n      tag_100\n      jump\t// in\n    tag_147:\n        /* \"#utility.yul\":1661:1789   */\n    tag_146:\n        /* \"#utility.yul\":1227:1795   */\n      swap3\n      pop\n      swap3\n      swap1\n      pop\n      jump\t// out\n        /* \"#utility.yul\":1818:2386   */\n    tag_102:\n        /* \"#utility.yul\":1891:1899   */\n      0x00\n        /* \"#utility.yul\":1901:1907   */\n      0x00\n        /* \"#utility.yul\":1951:1954   */\n      dup4\n        /* \"#utility.yul\":1944:1948   */\n      0x1f\n        /* \"#utility.yul\":1936:1942   */\n      dup5\n        /* \"#utility.yul\":1932:1949   */\n      add\n        /* \"#utility.yul\":1928:1955   */\n      slt\n        /* \"#utility.yul\":1918:2040   */\n      tag_149\n      jumpi\n        /* \"#utility.yul\":1959:2038   */\n      tag_150\n      tag_98\n      jump\t// in\n    tag_150:\n        /* \"#utility.yul\":1918:2040   */\n    tag_149:\n        /* \"#utility.yul\":2072:2078   */\n      dup3\n        /* \"#utility.yul\":2059:2079   */\n      calldataload\n        /* \"#utility.yul\":2049:2079   */\n      swap1\n      pop\n        /* \"#utility.yul\":2102:2120   */\n      0xffffffffffffffff\n        /* \"#utility.yul\":2094:2100   */\n      dup2\n        /* \"#utility.yul\":2091:2121   */\n      gt\n        /* \"#utility.yul\":2088:2205   */\n      iszero\n      tag_151\n      jumpi\n        /* \"#utility.yul\":2124:2203   */\n      tag_152\n      tag_99\n      jump\t// in\n    tag_152:\n        /* \"#utility.yul\":2088:2205   */\n    tag_151:\n        /* \"#utility.yul\":2238:2242   */\n      0x20\n        /* \"#utility.yul\":2230:2236   */\n      dup4\n        /* \"#utility.yul\":2226:2243   */\n      add\n        /* \"#utility.yul\":2214:2243   */\n      swap2\n      pop\n        /* \"#utility.yul\":2292:2295   */\n      dup4\n        /* \"#utility.yul\":2284:2288   */\n      0x20\n        /* \"#utility.yul\":2276:2282   */\n      dup3\n        /* \"#utility.yul\":2272:2289   */\n      mul\n        /* \"#utility.yul\":2262:2270   */\n      dup4\n        /* \"#utility.yul\":2258:2290   */\n      add\n        /* \"#utility.yul\":2255:2296   */\n      gt\n        /* \"#utility.yul\":2252:2380   */\n      iszero\n      tag_153\n      jumpi\n        /* \"#utility.yul\":2299:2378   */\n      tag_154\n      tag_100\n      jump\t// in\n    tag_154:\n        /* \"#utility.yul\":2252:2380   */\n    tag_153:\n        /* \"#utility.yul\":1818:2386   */\n      swap3\n      pop\n      swap3\n      swap1\n      pop\n      jump\t// out\n        /* \"#utility.yul\":2392:3471   */\n    tag_7:\n        /* \"#utility.yul\":2523:2529   */\n      0x00\n        /* \"#utility.yul\":2531:2537   */\n      0x00\n        /* \"#utility.yul\":2539:2545   */\n      0x00\n        /* \"#utility.yul\":2547:2553   */\n      0x00\n        /* \"#utility.yul\":2555:2561   */\n      0x00\n        /* \"#utility.yul\":2604:2606   */\n      0x60\n        /* \"#utility.yul\":2592:2601   */\n      dup7\n        /* \"#utility.yul\":2583:2590   */\n      dup9\n        /* \"#utility.yul\":2579:2602   */\n      sub\n        /* \"#utility.yul\":2575:2607   */\n      slt\n        /* \"#utility.yul\":2572:2691   */\n      iszero\n      tag_156\n      jumpi\n        /* \"#utility.yul\":2610:2689   */\n      tag_157\n      tag_92\n      jump\t// in\n    tag_157:\n        /* \"#utility.yul\":2572:2691   */\n    tag_156:\n        /* \"#utility.yul\":2730:2731   */\n      0x00\n        /* \"#utility.yul\":2755:2808   */\n      tag_158\n        /* \"#utility.yul\":2800:2807   */\n      dup9\n        /* \"#utility.yul\":2791:2797   */\n      dup3\n        /* \"#utility.yul\":2780:2789   */\n      dup10\n        /* \"#utility.yul\":2776:2798   */\n      add\n        /* \"#utility.yul\":2755:2808   */\n      tag_97\n      jump\t// in\n    tag_158:\n        /* \"#utility.yul\":2745:2808   */\n      swap6\n      pop\n        /* \"#utility.yul\":2701:2818   */\n      pop\n        /* \"#utility.yul\":2885:2887   */\n      0x20\n        /* \"#utility.yul\":2874:2883   */\n      dup7\n        /* \"#utility.yul\":2870:2888   */\n      add\n        /* \"#utility.yul\":2857:2889   */\n      calldataload\n        /* \"#utility.yul\":2916:2934   */\n      0xffffffffffffffff\n        /* \"#utility.yul\":2908:2914   */\n      dup2\n        /* \"#utility.yul\":2905:2935   */\n      gt\n        /* \"#utility.yul\":2902:3019   */\n      iszero\n      tag_159\n      jumpi\n        /* \"#utility.yul\":2938:3017   */\n      tag_160\n      tag_93\n      jump\t// in\n    tag_160:\n        /* \"#utility.yul\":2902:3019   */\n    tag_159:\n        /* \"#utility.yul\":3051:3131   */\n      tag_161\n        /* \"#utility.yul\":3123:3130   */\n      dup9\n        /* \"#utility.yul\":3114:3120   */\n      dup3\n        /* \"#utility.yul\":3103:3112   */\n      dup10\n        /* \"#utility.yul\":3099:3121   */\n      add\n        /* \"#utility.yul\":3051:3131   */\n      tag_101\n      jump\t// in\n    tag_161:\n        /* \"#utility.yul\":3033:3131   */\n      swap5\n      pop\n      swap5\n      pop\n        /* \"#utility.yul\":2828:3141   */\n      pop\n        /* \"#utility.yul\":3208:3210   */\n      0x40\n        /* \"#utility.yul\":3197:3206   */\n      dup7\n        /* \"#utility.yul\":3193:3211   */\n      add\n        /* \"#utility.yul\":3180:3212   */\n      calldataload\n        /* \"#utility.yul\":3239:3257   */\n      0xffffffffffffffff\n        /* \"#utility.yul\":3231:3237   */\n      dup2\n        /* \"#utility.yul\":3228:3258   */\n      gt\n        /* \"#utility.yul\":3225:3342   */\n      iszero\n      tag_162\n      jumpi\n        /* \"#utility.yul\":3261:3340   */\n      tag_163\n      tag_93\n      jump\t// in\n    tag_163:\n        /* \"#utility.yul\":3225:3342   */\n    tag_162:\n        /* \"#utility.yul\":3374:3454   */\n      tag_164\n        /* \"#utility.yul\":3446:3453   */\n      dup9\n        /* \"#utility.yul\":3437:3443   */\n      dup3\n        /* \"#utility.yul\":3426:3435   */\n      dup10\n        /* \"#utility.yul\":3422:3444   */\n      add\n        /* \"#utility.yul\":3374:3454   */\n      tag_102\n      jump\t// in\n    tag_164:\n        /* \"#utility.yul\":3356:3454   */\n      swap3\n      pop\n      swap3\n      pop\n        /* \"#utility.yul\":3151:3464   */\n      pop\n        /* \"#utility.yul\":2392:3471   */\n      swap3\n      swap6\n      pop\n      swap3\n      swap6\n      swap1\n      swap4\n      pop\n      jump\t// out\n        /* \"#utility.yul\":3502:4078   */\n    tag_103:\n        /* \"#utility.yul\":3583:3591   */\n      0x00\n        /* \"#utility.yul\":3593:3599   */\n      0x00\n        /* \"#utility.yul\":3643:3646   */\n      dup4\n        /* \"#utility.yul\":3636:3640   */\n      0x1f\n        /* \"#utility.yul\":3628:3634   */\n      dup5\n        /* \"#utility.yul\":3624:3641   */\n      add\n        /* \"#utility.yul\":3620:3647   */\n      slt\n        /* \"#utility.yul\":3610:3732   */\n      tag_166\n      jumpi\n        /* \"#utility.yul\":3651:3730   */\n      tag_167\n      tag_98\n      jump\t// in\n    tag_167:\n        /* \"#utility.yul\":3610:3732   */\n    tag_166:\n        /* \"#utility.yul\":3764:3770   */\n      dup3\n        /* \"#utility.yul\":3751:3771   */\n      calldataload\n        /* \"#utility.yul\":3741:3771   */\n      swap1\n      pop\n        /* \"#utility.yul\":3794:3812   */\n      0xffffffffffffffff\n        /* \"#utility.yul\":3786:3792   */\n      dup2\n        /* \"#utility.yul\":3783:3813   */\n      gt\n        /* \"#utility.yul\":3780:3897   */\n      iszero\n      tag_168\n      jumpi\n        /* \"#utility.yul\":3816:3895   */\n      tag_169\n      tag_99\n      jump\t// in\n    tag_169:\n        /* \"#utility.yul\":3780:3897   */\n    tag_168:\n        /* \"#utility.yul\":3930:3934   */\n      0x20\n        /* \"#utility.yul\":3922:3928   */\n      dup4\n        /* \"#utility.yul\":3918:3935   */\n      add\n        /* \"#utility.yul\":3906:3935   */\n      swap2\n      pop\n        /* \"#utility.yul\":3984:3987   */\n      dup4\n        /* \"#utility.yul\":3976:3980   */\n      0x20\n        /* \"#utility.yul\":3968:3974   */\n      dup3\n        /* \"#utility.yul\":3964:3981   */\n      mul\n        /* \"#utility.yul\":3954:3962   */\n      dup4\n        /* \"#utility.yul\":3950:3982   */\n      add\n        /* \"#utility.yul\":3947:3988   */\n      gt\n        /* \"#utility.yul\":3944:4072   */\n      iszero\n      tag_170\n      jumpi\n        /* \"#utility.yul\":3991:4070   */\n      tag_171\n      tag_100\n      jump\t// in\n    tag_171:\n        /* \"#utility.yul\":3944:4072   */\n    tag_170:\n        /* \"#utility.yul\":3502:4078   */\n      swap3\n      pop\n      swap3\n      swap1\n      pop\n      jump\t// out\n        /* \"#utility.yul\":4084:5034   */\n    tag_11:\n        /* \"#utility.yul\":4214:4220   */\n      0x00\n        /* \"#utility.yul\":4222:4228   */\n      0x00\n        /* \"#utility.yul\":4230:4236   */\n      0x00\n        /* \"#utility.yul\":4238:4244   */\n      0x00\n        /* \"#utility.yul\":4287:4289   */\n      0x40\n        /* \"#utility.yul\":4275:4284   */\n      dup6\n        /* \"#utility.yul\":4266:4273   */\n      dup8\n        /* \"#utility.yul\":4262:4285   */\n      sub\n        /* \"#utility.yul\":4258:4290   */\n      slt\n        /* \"#utility.yul\":4255:4374   */\n      iszero\n      tag_173\n      jumpi\n        /* \"#utility.yul\":4293:4372   */\n      tag_174\n      tag_92\n      jump\t// in\n    tag_174:\n        /* \"#utility.yul\":4255:4374   */\n    tag_173:\n        /* \"#utility.yul\":4441:4442   */\n      0x00\n        /* \"#utility.yul\":4430:4439   */\n      dup6\n        /* \"#utility.yul\":4426:4443   */\n      add\n        /* \"#utility.yul\":4413:4444   */\n      calldataload\n        /* \"#utility.yul\":4471:4489   */\n      0xffffffffffffffff\n        /* \"#utility.yul\":4463:4469   */\n      dup2\n        /* \"#utility.yul\":4460:4490   */\n      gt\n        /* \"#utility.yul\":4457:4574   */\n      iszero\n      tag_175\n      jumpi\n        /* \"#utility.yul\":4493:4572   */\n      tag_176\n      tag_93\n      jump\t// in\n    tag_176:\n        /* \"#utility.yul\":4457:4574   */\n    tag_175:\n        /* \"#utility.yul\":4606:4694   */\n      tag_177\n        /* \"#utility.yul\":4686:4693   */\n      dup8\n        /* \"#utility.yul\":4677:4683   */\n      dup3\n        /* \"#utility.yul\":4666:4675   */\n      dup9\n        /* \"#utility.yul\":4662:4684   */\n      add\n        /* \"#utility.yul\":4606:4694   */\n      tag_103\n      jump\t// in\n    tag_177:\n        /* \"#utility.yul\":4588:4694   */\n      swap5\n      pop\n      swap5\n      pop\n        /* \"#utility.yul\":4384:4704   */\n      pop\n        /* \"#utility.yul\":4771:4773   */\n      0x20\n        /* \"#utility.yul\":4760:4769   */\n      dup6\n        /* \"#utility.yul\":4756:4774   */\n      add\n        /* \"#utility.yul\":4743:4775   */\n      calldataload\n        /* \"#utility.yul\":4802:4820   */\n      0xffffffffffffffff\n        /* \"#utility.yul\":4794:4800   */\n      dup2\n        /* \"#utility.yul\":4791:4821   */\n      gt\n        /* \"#utility.yul\":4788:4905   */\n      iszero\n      tag_178\n      jumpi\n        /* \"#utility.yul\":4824:4903   */\n      tag_179\n      tag_93\n      jump\t// in\n    tag_179:\n        /* \"#utility.yul\":4788:4905   */\n    tag_178:\n        /* \"#utility.yul\":4937:5017   */\n      tag_180\n        /* \"#utility.yul\":5009:5016   */\n      dup8\n        /* \"#utility.yul\":5000:5006   */\n      dup3\n        /* \"#utility.yul\":4989:4998   */\n      dup9\n        /* \"#utility.yul\":4985:5007   */\n      add\n        /* \"#utility.yul\":4937:5017   */\n      tag_102\n      jump\t// in\n    tag_180:\n        /* \"#utility.yul\":4919:5017   */\n      swap3\n      pop\n      swap3\n      pop\n        /* \"#utility.yul\":4714:5027   */\n      pop\n        /* \"#utility.yul\":4084:5034   */\n      swap3\n      swap6\n      swap2\n      swap5\n      pop\n      swap3\n      pop\n      jump\t// out\n        /* \"#utility.yul\":5040:5209   */\n    tag_104:\n        /* \"#utility.yul\":5124:5135   */\n      0x00\n        /* \"#utility.yul\":5158:5164   */\n      dup3\n        /* \"#utility.yul\":5153:5156   */\n      dup3\n        /* \"#utility.yul\":5146:5165   */\n      mstore\n        /* \"#utility.yul\":5198:5202   */\n      0x20\n        /* \"#utility.yul\":5193:5196   */\n      dup3\n        /* \"#utility.yul\":5189:5203   */\n      add\n        /* \"#utility.yul\":5174:5203   */\n      swap1\n      pop\n        /* \"#utility.yul\":5040:5209   */\n      swap3\n      swap2\n      pop\n      pop\n      jump\t// out\n        /* \"#utility.yul\":5215:5445   */\n    tag_105:\n        /* \"#utility.yul\":5355:5389   */\n      0x206c656e67746873206f662041646472657373657320616e6420416d6f756e74\n        /* \"#utility.yul\":5351:5352   */\n      0x00\n        /* \"#utility.yul\":5343:5349   */\n      dup3\n        /* \"#utility.yul\":5339:5353   */\n      add\n        /* \"#utility.yul\":5332:5390   */\n      mstore\n        /* \"#utility.yul\":5424:5437   */\n      0x73206e6f7420657175616c000000000000000000000000000000000000000000\n        /* \"#utility.yul\":5419:5421   */\n      0x20\n        /* \"#utility.yul\":5411:5417   */\n      dup3\n        /* \"#utility.yul\":5407:5422   */\n      add\n        /* \"#utility.yul\":5400:5438   */\n      mstore\n        /* \"#utility.yul\":5215:5445   */\n      pop\n      jump\t// out\n        /* \"#utility.yul\":5451:5817   */\n    tag_106:\n        /* \"#utility.yul\":5593:5596   */\n      0x00\n        /* \"#utility.yul\":5614:5681   */\n      tag_184\n        /* \"#utility.yul\":5678:5680   */\n      0x2b\n        /* \"#utility.yul\":5673:5676   */\n      dup4\n        /* \"#utility.yul\":5614:5681   */\n      tag_104\n      jump\t// in\n    tag_184:\n        /* \"#utility.yul\":5607:5681   */\n      swap2\n      pop\n        /* \"#utility.yul\":5690:5783   */\n      tag_185\n        /* \"#utility.yul\":5779:5782   */\n      dup3\n        /* \"#utility.yul\":5690:5783   */\n      tag_105\n      jump\t// in\n    tag_185:\n        /* \"#utility.yul\":5808:5810   */\n      0x40\n        /* \"#utility.yul\":5803:5806   */\n      dup3\n        /* \"#utility.yul\":5799:5811   */\n      add\n        /* \"#utility.yul\":5792:5811   */\n      swap1\n      pop\n        /* \"#utility.yul\":5451:5817   */\n      swap2\n      swap1\n      pop\n      jump\t// out\n        /* \"#utility.yul\":5823:6242   */\n    tag_16:\n        /* \"#utility.yul\":5989:5993   */\n      0x00\n        /* \"#utility.yul\":6027:6029   */\n      0x20\n        /* \"#utility.yul\":6016:6025   */\n      dup3\n        /* \"#utility.yul\":6012:6030   */\n      add\n        /* \"#utility.yul\":6004:6030   */\n      swap1\n      pop\n        /* \"#utility.yul\":6076:6085   */\n      dup2\n        /* \"#utility.yul\":6070:6074   */\n      dup2\n        /* \"#utility.yul\":6066:6086   */\n      sub\n        /* \"#utility.yul\":6062:6063   */\n      0x00\n        /* \"#utility.yul\":6051:6060   */\n      dup4\n        /* \"#utility.yul\":6047:6064   */\n      add\n        /* \"#utility.yul\":6040:6087   */\n      mstore\n        /* \"#utility.yul\":6104:6235   */\n      tag_187\n        /* \"#utility.yul\":6230:6234   */\n      dup2\n        /* \"#utility.yul\":6104:6235   */\n      tag_106\n      jump\t// in\n    tag_187:\n        /* \"#utility.yul\":6096:6235   */\n      swap1\n      pop\n        /* \"#utility.yul\":5823:6242   */\n      swap2\n      swap1\n      pop\n      jump\t// out\n        /* \"#utility.yul\":6248:6366   */\n    tag_107:\n        /* \"#utility.yul\":6335:6359   */\n      tag_189\n        /* \"#utility.yul\":6353:6358   */\n      dup2\n        /* \"#utility.yul\":6335:6359   */\n      tag_95\n      jump\t// in\n    tag_189:\n        /* \"#utility.yul\":6330:6333   */\n      dup3\n        /* \"#utility.yul\":6323:6360   */\n      mstore\n        /* \"#utility.yul\":6248:6366   */\n      pop\n      pop\n      jump\t// out\n        /* \"#utility.yul\":6372:6704   */\n    tag_20:\n        /* \"#utility.yul\":6493:6497   */\n      0x00\n        /* \"#utility.yul\":6531:6533   */\n      0x40\n        /* \"#utility.yul\":6520:6529   */\n      dup3\n        /* \"#utility.yul\":6516:6534   */\n      add\n        /* \"#utility.yul\":6508:6534   */\n      swap1\n      pop\n        /* \"#utility.yul\":6544:6615   */\n      tag_191\n        /* \"#utility.yul\":6612:6613   */\n      0x00\n        /* \"#utility.yul\":6601:6610   */\n      dup4\n        /* \"#utility.yul\":6597:6614   */\n      add\n        /* \"#utility.yul\":6588:6594   */\n      dup6\n        /* \"#utility.yul\":6544:6615   */\n      tag_107\n      jump\t// in\n    tag_191:\n        /* \"#utility.yul\":6625:6697   */\n      tag_192\n        /* \"#utility.yul\":6693:6695   */\n      0x20\n        /* \"#utility.yul\":6682:6691   */\n      dup4\n        /* \"#utility.yul\":6678:6696   */\n      add\n        /* \"#utility.yul\":6669:6675   */\n      dup5\n        /* \"#utility.yul\":6625:6697   */\n      tag_107\n      jump\t// in\n    tag_192:\n        /* \"#utility.yul\":6372:6704   */\n      swap4\n      swap3\n      pop\n      pop\n      pop\n      jump\t// out\n        /* \"#utility.yul\":6710:6787   */\n    tag_108:\n        /* \"#utility.yul\":6747:6754   */\n      0x00\n        /* \"#utility.yul\":6776:6781   */\n      dup2\n        /* \"#utility.yul\":6765:6781   */\n      swap1\n      pop\n        /* \"#utility.yul\":6710:6787   */\n      swap2\n      swap1\n      pop\n      jump\t// out\n        /* \"#utility.yul\":6793:6915   */\n    tag_109:\n        /* \"#utility.yul\":6866:6890   */\n      tag_195\n        /* \"#utility.yul\":6884:6889   */\n      dup2\n        /* \"#utility.yul\":6866:6890   */\n      tag_108\n      jump\t// in\n    tag_195:\n        /* \"#utility.yul\":6859:6864   */\n      dup2\n        /* \"#utility.yul\":6856:6891   */\n      eq\n        /* \"#utility.yul\":6846:6909   */\n      tag_196\n      jumpi\n        /* \"#utility.yul\":6905:6906   */\n      0x00\n        /* \"#utility.yul\":6902:6903   */\n      0x00\n        /* \"#utility.yul\":6895:6907   */\n      revert\n        /* \"#utility.yul\":6846:6909   */\n    tag_196:\n        /* \"#utility.yul\":6793:6915   */\n      pop\n      jump\t// out\n        /* \"#utility.yul\":6921:7064   */\n    tag_110:\n        /* \"#utility.yul\":6978:6983   */\n      0x00\n        /* \"#utility.yul\":7009:7015   */\n      dup2\n        /* \"#utility.yul\":7003:7016   */\n      mload\n        /* \"#utility.yul\":6994:7016   */\n      swap1\n      pop\n        /* \"#utility.yul\":7025:7058   */\n      tag_198\n        /* \"#utility.yul\":7052:7057   */\n      dup2\n        /* \"#utility.yul\":7025:7058   */\n      tag_109\n      jump\t// in\n    tag_198:\n        /* \"#utility.yul\":6921:7064   */\n      swap3\n      swap2\n      pop\n      pop\n      jump\t// out\n        /* \"#utility.yul\":7070:7421   */\n    tag_24:\n        /* \"#utility.yul\":7140:7146   */\n      0x00\n        /* \"#utility.yul\":7189:7191   */\n      0x20\n        /* \"#utility.yul\":7177:7186   */\n      dup3\n        /* \"#utility.yul\":7168:7175   */\n      dup5\n        /* \"#utility.yul\":7164:7187   */\n      sub\n        /* \"#utility.yul\":7160:7192   */\n      slt\n        /* \"#utility.yul\":7157:7276   */\n      iszero\n      tag_200\n      jumpi\n        /* \"#utility.yul\":7195:7274   */\n      tag_201\n      tag_92\n      jump\t// in\n    tag_201:\n        /* \"#utility.yul\":7157:7276   */\n    tag_200:\n        /* \"#utility.yul\":7315:7316   */\n      0x00\n        /* \"#utility.yul\":7340:7404   */\n      tag_202\n        /* \"#utility.yul\":7396:7403   */\n      dup5\n        /* \"#utility.yul\":7387:7393   */\n      dup3\n        /* \"#utility.yul\":7376:7385   */\n      dup6\n        /* \"#utility.yul\":7372:7394   */\n      add\n        /* \"#utility.yul\":7340:7404   */\n      tag_110\n      jump\t// in\n    tag_202:\n        /* \"#utility.yul\":7330:7404   */\n      swap2\n      pop\n        /* \"#utility.yul\":7286:7414   */\n      pop\n        /* \"#utility.yul\":7070:7421   */\n      swap3\n      swap2\n      pop\n      pop\n      jump\t// out\n        /* \"#utility.yul\":7427:7602   */\n    tag_111:\n        /* \"#utility.yul\":7567:7594   */\n      0x4e65656420617070726f76616c20455243323020746f6b656e00000000000000\n        /* \"#utility.yul\":7563:7564   */\n      0x00\n        /* \"#utility.yul\":7555:7561   */\n      dup3\n        /* \"#utility.yul\":7551:7565   */\n      add\n        /* \"#utility.yul\":7544:7595   */\n      mstore\n        /* \"#utility.yul\":7427:7602   */\n      pop\n      jump\t// out\n        /* \"#utility.yul\":7608:7974   */\n    tag_112:\n        /* \"#utility.yul\":7750:7753   */\n      0x00\n        /* \"#utility.yul\":7771:7838   */\n      tag_205\n        /* \"#utility.yul\":7835:7837   */\n      0x19\n        /* \"#utility.yul\":7830:7833   */\n      dup4\n        /* \"#utility.yul\":7771:7838   */\n      tag_104\n      jump\t// in\n    tag_205:\n        /* \"#utility.yul\":7764:7838   */\n      swap2\n      pop\n        /* \"#utility.yul\":7847:7940   */\n      tag_206\n        /* \"#utility.yul\":7936:7939   */\n      dup3\n        /* \"#utility.yul\":7847:7940   */\n      tag_111\n      jump\t// in\n    tag_206:\n        /* \"#utility.yul\":7965:7967   */\n      0x20\n        /* \"#utility.yul\":7960:7963   */\n      dup3\n        /* \"#utility.yul\":7956:7968   */\n      add\n        /* \"#utility.yul\":7949:7968   */\n      swap1\n      pop\n        /* \"#utility.yul\":7608:7974   */\n      swap2\n      swap1\n      pop\n      jump\t// out\n        /* \"#utility.yul\":7980:8399   */\n    tag_27:\n        /* \"#utility.yul\":8146:8150   */\n      0x00\n        /* \"#utility.yul\":8184:8186   */\n      0x20\n        /* \"#utility.yul\":8173:8182   */\n      dup3\n        /* \"#utility.yul\":8169:8187   */\n      add\n        /* \"#utility.yul\":8161:8187   */\n      swap1\n      pop\n        /* \"#utility.yul\":8233:8242   */\n      dup2\n        /* \"#utility.yul\":8227:8231   */\n      dup2\n        /* \"#utility.yul\":8223:8243   */\n      sub\n        /* \"#utility.yul\":8219:8220   */\n      0x00\n        /* \"#utility.yul\":8208:8217   */\n      dup4\n        /* \"#utility.yul\":8204:8221   */\n      add\n        /* \"#utility.yul\":8197:8244   */\n      mstore\n        /* \"#utility.yul\":8261:8392   */\n      tag_208\n        /* \"#utility.yul\":8387:8391   */\n      dup2\n        /* \"#utility.yul\":8261:8392   */\n      tag_112\n      jump\t// in\n    tag_208:\n        /* \"#utility.yul\":8253:8392   */\n      swap1\n      pop\n        /* \"#utility.yul\":7980:8399   */\n      swap2\n      swap1\n      pop\n      jump\t// out\n        /* \"#utility.yul\":8405:8585   */\n    tag_33:\n        /* \"#utility.yul\":8453:8530   */\n      0x4e487b7100000000000000000000000000000000000000000000000000000000\n        /* \"#utility.yul\":8450:8451   */\n      0x00\n        /* \"#utility.yul\":8443:8531   */\n      mstore\n        /* \"#utility.yul\":8550:8554   */\n      0x32\n        /* \"#utility.yul\":8547:8548   */\n      0x04\n        /* \"#utility.yul\":8540:8555   */\n      mstore\n        /* \"#utility.yul\":8574:8578   */\n      0x24\n        /* \"#utility.yul\":8571:8572   */\n      0x00\n        /* \"#utility.yul\":8564:8579   */\n      revert\n        /* \"#utility.yul\":8591:8920   */\n    tag_35:\n        /* \"#utility.yul\":8650:8656   */\n      0x00\n        /* \"#utility.yul\":8699:8701   */\n      0x20\n        /* \"#utility.yul\":8687:8696   */\n      dup3\n        /* \"#utility.yul\":8678:8685   */\n      dup5\n        /* \"#utility.yul\":8674:8697   */\n      sub\n        /* \"#utility.yul\":8670:8702   */\n      slt\n        /* \"#utility.yul\":8667:8786   */\n      iszero\n      tag_211\n      jumpi\n        /* \"#utility.yul\":8705:8784   */\n      tag_212\n      tag_92\n      jump\t// in\n    tag_212:\n        /* \"#utility.yul\":8667:8786   */\n    tag_211:\n        /* \"#utility.yul\":8825:8826   */\n      0x00\n        /* \"#utility.yul\":8850:8903   */\n      tag_213\n        /* \"#utility.yul\":8895:8902   */\n      dup5\n        /* \"#utility.yul\":8886:8892   */\n      dup3\n        /* \"#utility.yul\":8875:8884   */\n      dup6\n        /* \"#utility.yul\":8871:8893   */\n      add\n        /* \"#utility.yul\":8850:8903   */\n      tag_97\n      jump\t// in\n    tag_213:\n        /* \"#utility.yul\":8840:8903   */\n      swap2\n      pop\n        /* \"#utility.yul\":8796:8913   */\n      pop\n        /* \"#utility.yul\":8591:8920   */\n      swap3\n      swap2\n      pop\n      pop\n      jump\t// out\n        /* \"#utility.yul\":8926:9044   */\n    tag_113:\n        /* \"#utility.yul\":9013:9037   */\n      tag_215\n        /* \"#utility.yul\":9031:9036   */\n      dup2\n        /* \"#utility.yul\":9013:9037   */\n      tag_108\n      jump\t// in\n    tag_215:\n        /* \"#utility.yul\":9008:9011   */\n      dup3\n        /* \"#utility.yul\":9001:9038   */\n      mstore\n        /* \"#utility.yul\":8926:9044   */\n      pop\n      pop\n      jump\t// out\n        /* \"#utility.yul\":9050:9492   */\n    tag_39:\n        /* \"#utility.yul\":9199:9203   */\n      0x00\n        /* \"#utility.yul\":9237:9239   */\n      0x60\n        /* \"#utility.yul\":9226:9235   */\n      dup3\n        /* \"#utility.yul\":9222:9240   */\n      add\n        /* \"#utility.yul\":9214:9240   */\n      swap1\n      pop\n        /* \"#utility.yul\":9250:9321   */\n      tag_217\n        /* \"#utility.yul\":9318:9319   */\n      0x00\n        /* \"#utility.yul\":9307:9316   */\n      dup4\n        /* \"#utility.yul\":9303:9320   */\n      add\n        /* \"#utility.yul\":9294:9300   */\n      dup7\n        /* \"#utility.yul\":9250:9321   */\n      tag_107\n      jump\t// in\n    tag_217:\n        /* \"#utility.yul\":9331:9403   */\n      tag_218\n        /* \"#utility.yul\":9399:9401   */\n      0x20\n        /* \"#utility.yul\":9388:9397   */\n      dup4\n        /* \"#utility.yul\":9384:9402   */\n      add\n        /* \"#utility.yul\":9375:9381   */\n      dup6\n        /* \"#utility.yul\":9331:9403   */\n      tag_107\n      jump\t// in\n    tag_218:\n        /* \"#utility.yul\":9413:9485   */\n      tag_219\n        /* \"#utility.yul\":9481:9483   */\n      0x40\n        /* \"#utility.yul\":9470:9479   */\n      dup4\n        /* \"#utility.yul\":9466:9484   */\n      add\n        /* \"#utility.yul\":9457:9463   */\n      dup5\n        /* \"#utility.yul\":9413:9485   */\n      tag_113\n      jump\t// in\n    tag_219:\n        /* \"#utility.yul\":9050:9492   */\n      swap5\n      swap4\n      pop\n      pop\n      pop\n      pop\n      jump\t// out\n        /* \"#utility.yul\":9498:9588   */\n    tag_114:\n        /* \"#utility.yul\":9532:9539   */\n      0x00\n        /* \"#utility.yul\":9575:9580   */\n      dup2\n        /* \"#utility.yul\":9568:9581   */\n      iszero\n        /* \"#utility.yul\":9561:9582   */\n      iszero\n        /* \"#utility.yul\":9550:9582   */\n      swap1\n      pop\n        /* \"#utility.yul\":9498:9588   */\n      swap2\n      swap1\n      pop\n      jump\t// out\n        /* \"#utility.yul\":9594:9710   */\n    tag_115:\n        /* \"#utility.yul\":9664:9685   */\n      tag_222\n        /* \"#utility.yul\":9679:9684   */\n      dup2\n        /* \"#utility.yul\":9664:9685   */\n      tag_114\n      jump\t// in\n    tag_222:\n        /* \"#utility.yul\":9657:9662   */\n      dup2\n        /* \"#utility.yul\":9654:9686   */\n      eq\n        /* \"#utility.yul\":9644:9704   */\n      tag_223\n      jumpi\n        /* \"#utility.yul\":9700:9701   */\n      0x00\n        /* \"#utility.yul\":9697:9698   */\n      0x00\n        /* \"#utility.yul\":9690:9702   */\n      revert\n        /* \"#utility.yul\":9644:9704   */\n    tag_223:\n        /* \"#utility.yul\":9594:9710   */\n      pop\n      jump\t// out\n        /* \"#utility.yul\":9716:9853   */\n    tag_116:\n        /* \"#utility.yul\":9770:9775   */\n      0x00\n        /* \"#utility.yul\":9801:9807   */\n      dup2\n        /* \"#utility.yul\":9795:9808   */\n      mload\n        /* \"#utility.yul\":9786:9808   */\n      swap1\n      pop\n        /* \"#utility.yul\":9817:9847   */\n      tag_225\n        /* \"#utility.yul\":9841:9846   */\n      dup2\n        /* \"#utility.yul\":9817:9847   */\n      tag_115\n      jump\t// in\n    tag_225:\n        /* \"#utility.yul\":9716:9853   */\n      swap3\n      swap2\n      pop\n      pop\n      jump\t// out\n        /* \"#utility.yul\":9859:10204   */\n    tag_43:\n        /* \"#utility.yul\":9926:9932   */\n      0x00\n        /* \"#utility.yul\":9975:9977   */\n      0x20\n        /* \"#utility.yul\":9963:9972   */\n      dup3\n        /* \"#utility.yul\":9954:9961   */\n      dup5\n        /* \"#utility.yul\":9950:9973   */\n      sub\n        /* \"#utility.yul\":9946:9978   */\n      slt\n        /* \"#utility.yul\":9943:10062   */\n      iszero\n      tag_227\n      jumpi\n        /* \"#utility.yul\":9981:10060   */\n      tag_228\n      tag_92\n      jump\t// in\n    tag_228:\n        /* \"#utility.yul\":9943:10062   */\n    tag_227:\n        /* \"#utility.yul\":10101:10102   */\n      0x00\n        /* \"#utility.yul\":10126:10187   */\n      tag_229\n        /* \"#utility.yul\":10179:10186   */\n      dup5\n        /* \"#utility.yul\":10170:10176   */\n      dup3\n        /* \"#utility.yul\":10159:10168   */\n      dup6\n        /* \"#utility.yul\":10155:10177   */\n      add\n        /* \"#utility.yul\":10126:10187   */\n      tag_116\n      jump\t// in\n    tag_229:\n        /* \"#utility.yul\":10116:10187   */\n      swap2\n      pop\n        /* \"#utility.yul\":10072:10197   */\n      pop\n        /* \"#utility.yul\":9859:10204   */\n      swap3\n      swap2\n      pop\n      pop\n      jump\t// out\n        /* \"#utility.yul\":10210:10379   */\n    tag_117:\n        /* \"#utility.yul\":10350:10371   */\n      0x6d736756616c7565206e6f7420656e6f75676800000000000000000000000000\n        /* \"#utility.yul\":10346:10347   */\n      0x00\n        /* \"#utility.yul\":10338:10344   */\n      dup3\n        /* \"#utility.yul\":10334:10348   */\n      add\n        /* \"#utility.yul\":10327:10372   */\n      mstore\n        /* \"#utility.yul\":10210:10379   */\n      pop\n      jump\t// out\n        /* \"#utility.yul\":10385:10751   */\n    tag_118:\n        /* \"#utility.yul\":10527:10530   */\n      0x00\n        /* \"#utility.yul\":10548:10615   */\n      tag_232\n        /* \"#utility.yul\":10612:10614   */\n      0x13\n        /* \"#utility.yul\":10607:10610   */\n      dup4\n        /* \"#utility.yul\":10548:10615   */\n      tag_104\n      jump\t// in\n    tag_232:\n        /* \"#utility.yul\":10541:10615   */\n      swap2\n      pop\n        /* \"#utility.yul\":10624:10717   */\n      tag_233\n        /* \"#utility.yul\":10713:10716   */\n      dup3\n        /* \"#utility.yul\":10624:10717   */\n      tag_117\n      jump\t// in\n    tag_233:\n        /* \"#utility.yul\":10742:10744   */\n      0x20\n        /* \"#utility.yul\":10737:10740   */\n      dup3\n        /* \"#utility.yul\":10733:10745   */\n      add\n        /* \"#utility.yul\":10726:10745   */\n      swap1\n      pop\n        /* \"#utility.yul\":10385:10751   */\n      swap2\n      swap1\n      pop\n      jump\t// out\n        /* \"#utility.yul\":10757:11176   */\n    tag_50:\n        /* \"#utility.yul\":10923:10927   */\n      0x00\n        /* \"#utility.yul\":10961:10963   */\n      0x20\n        /* \"#utility.yul\":10950:10959   */\n      dup3\n        /* \"#utility.yul\":10946:10964   */\n      add\n        /* \"#utility.yul\":10938:10964   */\n      swap1\n      pop\n        /* \"#utility.yul\":11010:11019   */\n      dup2\n        /* \"#utility.yul\":11004:11008   */\n      dup2\n        /* \"#utility.yul\":11000:11020   */\n      sub\n        /* \"#utility.yul\":10996:10997   */\n      0x00\n        /* \"#utility.yul\":10985:10994   */\n      dup4\n        /* \"#utility.yul\":10981:10998   */\n      add\n        /* \"#utility.yul\":10974:11021   */\n      mstore\n        /* \"#utility.yul\":11038:11169   */\n      tag_235\n        /* \"#utility.yul\":11164:11168   */\n      dup2\n        /* \"#utility.yul\":11038:11169   */\n      tag_118\n      jump\t// in\n    tag_235:\n        /* \"#utility.yul\":11030:11169   */\n      swap1\n      pop\n        /* \"#utility.yul\":10757:11176   */\n      swap2\n      swap1\n      pop\n      jump\t// out\n        /* \"#utility.yul\":11182:11286   */\n    tag_119:\n        /* \"#utility.yul\":11227:11234   */\n      0x00\n        /* \"#utility.yul\":11256:11280   */\n      tag_237\n        /* \"#utility.yul\":11274:11279   */\n      dup3\n        /* \"#utility.yul\":11256:11280   */\n      tag_94\n      jump\t// in\n    tag_237:\n        /* \"#utility.yul\":11245:11280   */\n      swap1\n      pop\n        /* \"#utility.yul\":11182:11286   */\n      swap2\n      swap1\n      pop\n      jump\t// out\n        /* \"#utility.yul\":11292:11430   */\n    tag_120:\n        /* \"#utility.yul\":11373:11405   */\n      tag_239\n        /* \"#utility.yul\":11399:11404   */\n      dup2\n        /* \"#utility.yul\":11373:11405   */\n      tag_119\n      jump\t// in\n    tag_239:\n        /* \"#utility.yul\":11366:11371   */\n      dup2\n        /* \"#utility.yul\":11363:11406   */\n      eq\n        /* \"#utility.yul\":11353:11424   */\n      tag_240\n      jumpi\n        /* \"#utility.yul\":11420:11421   */\n      0x00\n        /* \"#utility.yul\":11417:11418   */\n      0x00\n        /* \"#utility.yul\":11410:11422   */\n      revert\n        /* \"#utility.yul\":11353:11424   */\n    tag_240:\n        /* \"#utility.yul\":11292:11430   */\n      pop\n      jump\t// out\n        /* \"#utility.yul\":11436:11591   */\n    tag_121:\n        /* \"#utility.yul\":11490:11495   */\n      0x00\n        /* \"#utility.yul\":11528:11534   */\n      dup2\n        /* \"#utility.yul\":11515:11535   */\n      calldataload\n        /* \"#utility.yul\":11506:11535   */\n      swap1\n      pop\n        /* \"#utility.yul\":11544:11585   */\n      tag_242\n        /* \"#utility.yul\":11579:11584   */\n      dup2\n        /* \"#utility.yul\":11544:11585   */\n      tag_120\n      jump\t// in\n    tag_242:\n        /* \"#utility.yul\":11436:11591   */\n      swap3\n      swap2\n      pop\n      pop\n      jump\t// out\n        /* \"#utility.yul\":11597:11942   */\n    tag_57:\n        /* \"#utility.yul\":11664:11670   */\n      0x00\n        /* \"#utility.yul\":11713:11715   */\n      0x20\n        /* \"#utility.yul\":11701:11710   */\n      dup3\n        /* \"#utility.yul\":11692:11699   */\n      dup5\n        /* \"#utility.yul\":11688:11711   */\n      sub\n        /* \"#utility.yul\":11684:11716   */\n      slt\n        /* \"#utility.yul\":11681:11800   */\n      iszero\n      tag_244\n      jumpi\n        /* \"#utility.yul\":11719:11798   */\n      tag_245\n      tag_92\n      jump\t// in\n    tag_245:\n        /* \"#utility.yul\":11681:11800   */\n    tag_244:\n        /* \"#utility.yul\":11839:11840   */\n      0x00\n        /* \"#utility.yul\":11864:11925   */\n      tag_246\n        /* \"#utility.yul\":11917:11924   */\n      dup5\n        /* \"#utility.yul\":11908:11914   */\n      dup3\n        /* \"#utility.yul\":11897:11906   */\n      dup6\n        /* \"#utility.yul\":11893:11915   */\n      add\n        /* \"#utility.yul\":11864:11925   */\n      tag_121\n      jump\t// in\n    tag_246:\n        /* \"#utility.yul\":11854:11925   */\n      swap2\n      pop\n        /* \"#utility.yul\":11810:11935   */\n      pop\n        /* \"#utility.yul\":11597:11942   */\n      swap3\n      swap2\n      pop\n      pop\n      jump\t// out\n        /* \"#utility.yul\":11948:12095   */\n    tag_122:\n        /* \"#utility.yul\":12049:12060   */\n      0x00\n        /* \"#utility.yul\":12086:12089   */\n      dup2\n        /* \"#utility.yul\":12071:12089   */\n      swap1\n      pop\n        /* \"#utility.yul\":11948:12095   */\n      swap3\n      swap2\n      pop\n      pop\n      jump\t// out\n        /* \"#utility.yul\":12101:12215   */\n    tag_123:\n      pop\n      jump\t// out\n        /* \"#utility.yul\":12221:12619   */\n    tag_124:\n        /* \"#utility.yul\":12380:12383   */\n      0x00\n        /* \"#utility.yul\":12401:12484   */\n      tag_250\n        /* \"#utility.yul\":12482:12483   */\n      0x00\n        /* \"#utility.yul\":12477:12480   */\n      dup4\n        /* \"#utility.yul\":12401:12484   */\n      tag_122\n      jump\t// in\n    tag_250:\n        /* \"#utility.yul\":12394:12484   */\n      swap2\n      pop\n        /* \"#utility.yul\":12493:12586   */\n      tag_251\n        /* \"#utility.yul\":12582:12585   */\n      dup3\n        /* \"#utility.yul\":12493:12586   */\n      tag_123\n      jump\t// in\n    tag_251:\n        /* \"#utility.yul\":12611:12612   */\n      0x00\n        /* \"#utility.yul\":12606:12609   */\n      dup3\n        /* \"#utility.yul\":12602:12613   */\n      add\n        /* \"#utility.yul\":12595:12613   */\n      swap1\n      pop\n        /* \"#utility.yul\":12221:12619   */\n      swap2\n      swap1\n      pop\n      jump\t// out\n        /* \"#utility.yul\":12625:13004   */\n    tag_61:\n        /* \"#utility.yul\":12809:12812   */\n      0x00\n        /* \"#utility.yul\":12831:12978   */\n      tag_253\n        /* \"#utility.yul\":12974:12977   */\n      dup3\n        /* \"#utility.yul\":12831:12978   */\n      tag_124\n      jump\t// in\n    tag_253:\n        /* \"#utility.yul\":12824:12978   */\n      swap2\n      pop\n        /* \"#utility.yul\":12995:12998   */\n      dup2\n        /* \"#utility.yul\":12988:12998   */\n      swap1\n      pop\n        /* \"#utility.yul\":12625:13004   */\n      swap2\n      swap1\n      pop\n      jump\t// out\n        /* \"#utility.yul\":13010:13232   */\n    tag_72:\n        /* \"#utility.yul\":13103:13107   */\n      0x00\n        /* \"#utility.yul\":13141:13143   */\n      0x20\n        /* \"#utility.yul\":13130:13139   */\n      dup3\n        /* \"#utility.yul\":13126:13144   */\n      add\n        /* \"#utility.yul\":13118:13144   */\n      swap1\n      pop\n        /* \"#utility.yul\":13154:13225   */\n      tag_255\n        /* \"#utility.yul\":13222:13223   */\n      0x00\n        /* \"#utility.yul\":13211:13220   */\n      dup4\n        /* \"#utility.yul\":13207:13224   */\n      add\n        /* \"#utility.yul\":13198:13204   */\n      dup5\n        /* \"#utility.yul\":13154:13225   */\n      tag_113\n      jump\t// in\n    tag_255:\n        /* \"#utility.yul\":13010:13232   */\n      swap3\n      swap2\n      pop\n      pop\n      jump\t// out\n        /* \"#utility.yul\":13238:13418   */\n    tag_125:\n        /* \"#utility.yul\":13286:13363   */\n      0x4e487b7100000000000000000000000000000000000000000000000000000000\n        /* \"#utility.yul\":13283:13284   */\n      0x00\n        /* \"#utility.yul\":13276:13364   */\n      mstore\n        /* \"#utility.yul\":13383:13387   */\n      0x11\n        /* \"#utility.yul\":13380:13381   */\n      0x04\n        /* \"#utility.yul\":13373:13388   */\n      mstore\n        /* \"#utility.yul\":13407:13411   */\n      0x24\n        /* \"#utility.yul\":13404:13405   */\n      0x00\n        /* \"#utility.yul\":13397:13412   */\n      revert\n        /* \"#utility.yul\":13424:13615   */\n    tag_76:\n        /* \"#utility.yul\":13464:13467   */\n      0x00\n        /* \"#utility.yul\":13483:13503   */\n      tag_258\n        /* \"#utility.yul\":13501:13502   */\n      dup3\n        /* \"#utility.yul\":13483:13503   */\n      tag_108\n      jump\t// in\n    tag_258:\n        /* \"#utility.yul\":13478:13503   */\n      swap2\n      pop\n        /* \"#utility.yul\":13517:13537   */\n      tag_259\n        /* \"#utility.yul\":13535:13536   */\n      dup4\n        /* \"#utility.yul\":13517:13537   */\n      tag_108\n      jump\t// in\n    tag_259:\n        /* \"#utility.yul\":13512:13537   */\n      swap3\n      pop\n        /* \"#utility.yul\":13560:13561   */\n      dup3\n        /* \"#utility.yul\":13557:13558   */\n      dup3\n        /* \"#utility.yul\":13553:13562   */\n      add\n        /* \"#utility.yul\":13546:13562   */\n      swap1\n      pop\n        /* \"#utility.yul\":13581:13584   */\n      dup1\n        /* \"#utility.yul\":13578:13579   */\n      dup3\n        /* \"#utility.yul\":13575:13585   */\n      gt\n        /* \"#utility.yul\":13572:13608   */\n      iszero\n      tag_260\n      jumpi\n        /* \"#utility.yul\":13588:13606   */\n      tag_261\n      tag_125\n      jump\t// in\n    tag_261:\n        /* \"#utility.yul\":13572:13608   */\n    tag_260:\n        /* \"#utility.yul\":13424:13615   */\n      swap3\n      swap2\n      pop\n      pop\n      jump\t// out\n        /* \"#utility.yul\":13621:13815   */\n    tag_78:\n        /* \"#utility.yul\":13661:13665   */\n      0x00\n        /* \"#utility.yul\":13681:13701   */\n      tag_263\n        /* \"#utility.yul\":13699:13700   */\n      dup3\n        /* \"#utility.yul\":13681:13701   */\n      tag_108\n      jump\t// in\n    tag_263:\n        /* \"#utility.yul\":13676:13701   */\n      swap2\n      pop\n        /* \"#utility.yul\":13715:13735   */\n      tag_264\n        /* \"#utility.yul\":13733:13734   */\n      dup4\n        /* \"#utility.yul\":13715:13735   */\n      tag_108\n      jump\t// in\n    tag_264:\n        /* \"#utility.yul\":13710:13735   */\n      swap3\n      pop\n        /* \"#utility.yul\":13759:13760   */\n      dup3\n        /* \"#utility.yul\":13756:13757   */\n      dup3\n        /* \"#utility.yul\":13752:13761   */\n      sub\n        /* \"#utility.yul\":13744:13761   */\n      swap1\n      pop\n        /* \"#utility.yul\":13783:13784   */\n      dup2\n        /* \"#utility.yul\":13777:13781   */\n      dup2\n        /* \"#utility.yul\":13774:13785   */\n      gt\n        /* \"#utility.yul\":13771:13808   */\n      iszero\n      tag_265\n      jumpi\n        /* \"#utility.yul\":13788:13806   */\n      tag_266\n      tag_125\n      jump\t// in\n    tag_266:\n        /* \"#utility.yul\":13771:13808   */\n    tag_265:\n        /* \"#utility.yul\":13621:13815   */\n      swap3\n      swap2\n      pop\n      pop\n      jump\t// out\n\n    auxdata: 0xa26469706673582212202003e1a6e12758d6ca9ffb0c874f2ad85197709e16ed1813f44ed23253a373df64736f6c634300081e0033\n}\n",
				"bytecode": {
					"linkReferences": {},
					"object": "6080604052348015600e575f5ffd5b50610cbb8061001c5f395ff3fe608060405260043610610028575f3560e01c806341ed24a21461002c57806377988cf814610054575b5f5ffd5b348015610037575f5ffd5b50610052600480360381019061004d91906106d0565b610070565b005b61006e600480360381019061006991906107b6565b61026a565b005b8181905084849050146100b8576040517f08c379a00000000000000000000000000000000000000000000000000000000081526004016100af906108b4565b60405180910390fd5b5f8590505f6100c78484610564565b9050808273ffffffffffffffffffffffffffffffffffffffff1663dd62ed3e33306040518363ffffffff1660e01b81526004016101059291906108e1565b602060405180830381865afa158015610120573d5f5f3e3d5ffd5b505050506040513d601f19601f82011682018060405250810190610144919061093b565b1015610185576040517f08c379a000000000000000000000000000000000000000000000000000000000815260040161017c906109b0565b60405180910390fd5b5f5f90505b86869050811015610260578273ffffffffffffffffffffffffffffffffffffffff166323b872dd338989858181106101c5576101c46109ce565b5b90506020020160208101906101da91906109fb565b8888868181106101ed576101ec6109ce565b5b905060200201356040518463ffffffff1660e01b815260040161021293929190610a35565b6020604051808303815f875af115801561022e573d5f5f3e3d5ffd5b505050506040513d601f19601f820116820180604052508101906102529190610a9f565b50808060010191505061018a565b5050505050505050565b8181905084849050146102b2576040517f08c379a00000000000000000000000000000000000000000000000000000000081526004016102a9906108b4565b60405180910390fd5b5f6102bd8383610564565b905080341015610302576040517f08c379a00000000000000000000000000000000000000000000000000000000081526004016102f990610b14565b60405180910390fd5b5f5f90505f5f90505b8686905081101561049e575f87878381811061032a576103296109ce565b5b905060200201602081019061033f9190610b6d565b73ffffffffffffffffffffffffffffffffffffffff16868684818110610368576103676109ce565b5b9050602002013560405161037b90610bc5565b5f6040518083038185875af1925050503d805f81146103b5576040519150601f19603f3d011682016040523d82523d5f602084013e6103ba565b606091505b5050905080610469578787838181106103d6576103d56109ce565b5b90506020020160208101906103eb9190610b6d565b73ffffffffffffffffffffffffffffffffffffffff163373ffffffffffffffffffffffffffffffffffffffff167ff74c61fd0e23e85ad03b1481901cd6e7b7f88a303083915a9e4e0aeeab67316a88888681811061044c5761044b6109ce565b5b905060200201356040516104609190610bd9565b60405180910390a35b85858381811061047c5761047b6109ce565b5b905060200201358361048e9190610c1f565b925050808060010191505061030b565b505f3373ffffffffffffffffffffffffffffffffffffffff1682346104c39190610c52565b6040516104cf90610bc5565b5f6040518083038185875af1925050503d805f8114610509576040519150601f19603f3d011682016040523d82523d5f602084013e61050e565b606091505b505090508061055b573373ffffffffffffffffffffffffffffffffffffffff167f08fbab07f09f46ad2d85b20bb9d7a5e69d8de0e6d69ec34e94ea3ddafc6f715160405160405180910390a25b50505050505050565b5f5f5f90505f5f90505b848490508110156105ad5784848281811061058c5761058b6109ce565b5b905060200201358261059e9190610c1f565b9150808060010191505061056e565b508091505092915050565b5f5ffd5b5f5ffd5b5f73ffffffffffffffffffffffffffffffffffffffff82169050919050565b5f6105e9826105c0565b9050919050565b6105f9816105df565b8114610603575f5ffd5b50565b5f81359050610614816105f0565b92915050565b5f5ffd5b5f5ffd5b5f5ffd5b5f5f83601f84011261063b5761063a61061a565b5b8235905067ffffffffffffffff8111156106585761065761061e565b5b60208301915083602082028301111561067457610673610622565b5b9250929050565b5f5f83601f8401126106905761068f61061a565b5b8235905067ffffffffffffffff8111156106ad576106ac61061e565b5b6020830191508360208202830111156106c9576106c8610622565b5b9250929050565b5f5f5f5f5f606086880312156106e9576106e86105b8565b5b5f6106f688828901610606565b955050602086013567ffffffffffffffff811115610717576107166105bc565b5b61072388828901610626565b9450945050604086013567ffffffffffffffff811115610746576107456105bc565b5b6107528882890161067b565b92509250509295509295909350565b5f5f83601f8401126107765761077561061a565b5b8235905067ffffffffffffffff8111156107935761079261061e565b5b6020830191508360208202830111156107af576107ae610622565b5b9250929050565b5f5f5f5f604085870312156107ce576107cd6105b8565b5b5f85013567ffffffffffffffff8111156107eb576107ea6105bc565b5b6107f787828801610761565b9450945050602085013567ffffffffffffffff81111561081a576108196105bc565b5b6108268782880161067b565b925092505092959194509250565b5f82825260208201905092915050565b7f206c656e67746873206f662041646472657373657320616e6420416d6f756e745f8201527f73206e6f7420657175616c000000000000000000000000000000000000000000602082015250565b5f61089e602b83610834565b91506108a982610844565b604082019050919050565b5f6020820190508181035f8301526108cb81610892565b9050919050565b6108db816105df565b82525050565b5f6040820190506108f45f8301856108d2565b61090160208301846108d2565b9392505050565b5f819050919050565b61091a81610908565b8114610924575f5ffd5b50565b5f8151905061093581610911565b92915050565b5f602082840312156109505761094f6105b8565b5b5f61095d84828501610927565b91505092915050565b7f4e65656420617070726f76616c20455243323020746f6b656e000000000000005f82015250565b5f61099a601983610834565b91506109a582610966565b602082019050919050565b5f6020820190508181035f8301526109c78161098e565b9050919050565b7f4e487b71000000000000000000000000000000000000000000000000000000005f52603260045260245ffd5b5f60208284031215610a1057610a0f6105b8565b5b5f610a1d84828501610606565b91505092915050565b610a2f81610908565b82525050565b5f606082019050610a485f8301866108d2565b610a5560208301856108d2565b610a626040830184610a26565b949350505050565b5f8115159050919050565b610a7e81610a6a565b8114610a88575f5ffd5b50565b5f81519050610a9981610a75565b92915050565b5f60208284031215610ab457610ab36105b8565b5b5f610ac184828501610a8b565b91505092915050565b7f6d736756616c7565206e6f7420656e6f756768000000000000000000000000005f82015250565b5f610afe601383610834565b9150610b0982610aca565b602082019050919050565b5f6020820190508181035f830152610b2b81610af2565b9050919050565b5f610b3c826105c0565b9050919050565b610b4c81610b32565b8114610b56575f5ffd5b50565b5f81359050610b6781610b43565b92915050565b5f60208284031215610b8257610b816105b8565b5b5f610b8f84828501610b59565b91505092915050565b5f81905092915050565b50565b5f610bb05f83610b98565b9150610bbb82610ba2565b5f82019050919050565b5f610bcf82610ba5565b9150819050919050565b5f602082019050610bec5f830184610a26565b92915050565b7f4e487b71000000000000000000000000000000000000000000000000000000005f52601160045260245ffd5b5f610c2982610908565b9150610c3483610908565b9250828201905080821115610c4c57610c4b610bf2565b5b92915050565b5f610c5c82610908565b9150610c6783610908565b9250828203905081811115610c7f57610c7e610bf2565b5b9291505056fea26469706673582212202003e1a6e12758d6ca9ffb0c874f2ad85197709e16ed1813f44ed23253a373df64736f6c634300081e0033",
					"opcodes": "PUSH1 0x80 PUSH1 0x40 MSTORE CALLVALUE DUP1 ISZERO PUSH1 0xE JUMPI PUSH0 PUSH0 REVERT JUMPDEST POP PUSH2 0xCBB DUP1 PUSH2 0x1C PUSH0 CODECOPY PUSH0 RETURN INVALID PUSH1 0x80 PUSH1 0x40 MSTORE PUSH1 0x4 CALLDATASIZE LT PUSH2 0x28 JUMPI PUSH0 CALLDATALOAD PUSH1 0xE0 SHR DUP1 PUSH4 0x41ED24A2 EQ PUSH2 0x2C JUMPI DUP1 PUSH4 0x77988CF8 EQ PUSH2 0x54 JUMPI JUMPDEST PUSH0 PUSH0 REVERT JUMPDEST CALLVALUE DUP1 ISZERO PUSH2 0x37 JUMPI PUSH0 PUSH0 REVERT JUMPDEST POP PUSH2 0x52 PUSH1 0x4 DUP1 CALLDATASIZE SUB DUP2 ADD SWAP1 PUSH2 0x4D SWAP2 SWAP1 PUSH2 0x6D0 JUMP JUMPDEST PUSH2 0x70 JUMP JUMPDEST STOP JUMPDEST PUSH2 0x6E PUSH1 0x4 DUP1 CALLDATASIZE SUB DUP2 ADD SWAP1 PUSH2 0x69 SWAP2 SWAP1 PUSH2 0x7B6 JUMP JUMPDEST PUSH2 0x26A JUMP JUMPDEST STOP JUMPDEST DUP2 DUP2 SWAP1 POP DUP5 DUP5 SWAP1 POP EQ PUSH2 0xB8 JUMPI PUSH1 0x40 MLOAD PUSH32 0x8C379A000000000000000000000000000000000000000000000000000000000 DUP2 MSTORE PUSH1 0x4 ADD PUSH2 0xAF SWAP1 PUSH2 0x8B4 JUMP JUMPDEST PUSH1 0x40 MLOAD DUP1 SWAP2 SUB SWAP1 REVERT JUMPDEST PUSH0 DUP6 SWAP1 POP PUSH0 PUSH2 0xC7 DUP5 DUP5 PUSH2 0x564 JUMP JUMPDEST SWAP1 POP DUP1 DUP3 PUSH20 0xFFFFFFFFFFFFFFFFFFFFFFFFFFFFFFFFFFFFFFFF AND PUSH4 0xDD62ED3E CALLER ADDRESS PUSH1 0x40 MLOAD DUP4 PUSH4 0xFFFFFFFF AND PUSH1 0xE0 SHL DUP2 MSTORE PUSH1 0x4 ADD PUSH2 0x105 SWAP3 SWAP2 SWAP1 PUSH2 0x8E1 JUMP JUMPDEST PUSH1 0x20 PUSH1 0x40 MLOAD DUP1 DUP4 SUB DUP2 DUP7 GAS STATICCALL ISZERO DUP1 ISZERO PUSH2 0x120 JUMPI RETURNDATASIZE PUSH0 PUSH0 RETURNDATACOPY RETURNDATASIZE PUSH0 REVERT JUMPDEST POP POP POP POP PUSH1 0x40 MLOAD RETURNDATASIZE PUSH1 0x1F NOT PUSH1 0x1F DUP3 ADD AND DUP3 ADD DUP1 PUSH1 0x40 MSTORE POP DUP2 ADD SWAP1 PUSH2 0x144 SWAP2 SWAP1 PUSH2 0x93B JUMP JUMPDEST LT ISZERO PUSH2 0x185 JUMPI PUSH1 0x40 MLOAD PUSH32 0x8C379A000000000000000000000000000000000000000000000000000000000 DUP2 MSTORE PUSH1 0x4 ADD PUSH2 0x17C SWAP1 PUSH2 0x9B0 JUMP JUMPDEST PUSH1 0x40 MLOAD DUP1 SWAP2 SUB SWAP1 REVERT JUMPDEST PUSH0 PUSH0 SWAP1 POP JUMPDEST DUP7 DUP7 SWAP1 POP DUP2 LT ISZERO PUSH2 0x260 JUMPI DUP3 PUSH20 0xFFFFFFFFFFFFFFFFFFFFFFFFFFFFFFFFFFFFFFFF AND PUSH4 0x23B872DD CALLER DUP10 DUP10 DUP6 DUP2 DUP2 LT PUSH2 0x1C5 JUMPI PUSH2 0x1C4 PUSH2 0x9CE JUMP JUMPDEST JUMPDEST SWAP1 POP PUSH1 0x20 MUL ADD PUSH1 0x20 DUP2 ADD SWAP1 PUSH2 0x1DA SWAP2 SWAP1 PUSH2 0x9FB JUMP JUMPDEST DUP9 DUP9 DUP7 DUP2 DUP2 LT PUSH2 0x1ED JUMPI PUSH2 0x1EC PUSH2 0x9CE JUMP JUMPDEST JUMPDEST SWAP1 POP PUSH1 0x20 MUL ADD CALLDATALOAD PUSH1 0x40 MLOAD DUP5 PUSH4 0xFFFFFFFF AND PUSH1 0xE0 SHL DUP2 MSTORE PUSH1 0x4 ADD PUSH2 0x212 SWAP4 SWAP3 SWAP2 SWAP1 PUSH2 0xA35 JUMP JUMPDEST PUSH1 0x20 PUSH1 0x40 MLOAD DUP1 DUP4 SUB DUP2 PUSH0 DUP8 GAS CALL ISZERO DUP1 ISZERO PUSH2 0x22E JUMPI RETURNDATASIZE PUSH0 PUSH0 RETURNDATACOPY RETURNDATASIZE PUSH0 REVERT JUMPDEST POP POP POP POP PUSH1 0x40 MLOAD RETURNDATASIZE PUSH1 0x1F NOT PUSH1 0x1F DUP3 ADD AND DUP3 ADD DUP1 PUSH1 0x40 MSTORE POP DUP2 ADD SWAP1 PUSH2 0x252 SWAP2 SWAP1 PUSH2 0xA9F JUMP JUMPDEST POP DUP1 DUP1 PUSH1 0x1 ADD SWAP2 POP POP PUSH2 0x18A JUMP JUMPDEST POP POP POP POP POP POP POP POP JUMP JUMPDEST DUP2 DUP2 SWAP1 POP DUP5 DUP5 SWAP1 POP EQ PUSH2 0x2B2 JUMPI PUSH1 0x40 MLOAD PUSH32 0x8C379A000000000000000000000000000000000000000000000000000000000 DUP2 MSTORE PUSH1 0x4 ADD PUSH2 0x2A9 SWAP1 PUSH2 0x8B4 JUMP JUMPDEST PUSH1 0x40 MLOAD DUP1 SWAP2 SUB SWAP1 REVERT JUMPDEST PUSH0 PUSH2 0x2BD DUP4 DUP4 PUSH2 0x564 JUMP JUMPDEST SWAP1 POP DUP1 CALLVALUE LT ISZERO PUSH2 0x302 JUMPI PUSH1 0x40 MLOAD PUSH32 0x8C379A000000000000000000000000000000000000000000000000000000000 DUP2 MSTORE PUSH1 0x4 ADD PUSH2 0x2F9 SWAP1 PUSH2 0xB14 JUMP JUMPDEST PUSH1 0x40 MLOAD DUP1 SWAP2 SUB SWAP1 REVERT JUMPDEST PUSH0 PUSH0 SWAP1 POP PUSH0 PUSH0 SWAP1 POP JUMPDEST DUP7 DUP7 SWAP1 POP DUP2 LT ISZERO PUSH2 0x49E JUMPI PUSH0 DUP8 DUP8 DUP4 DUP2 DUP2 LT PUSH2 0x32A JUMPI PUSH2 0x329 PUSH2 0x9CE JUMP JUMPDEST JUMPDEST SWAP1 POP PUSH1 0x20 MUL ADD PUSH1 0x20 DUP2 ADD SWAP1 PUSH2 0x33F SWAP2 SWAP1 PUSH2 0xB6D JUMP JUMPDEST PUSH20 0xFFFFFFFFFFFFFFFFFFFFFFFFFFFFFFFFFFFFFFFF AND DUP7 DUP7 DUP5 DUP2 DUP2 LT PUSH2 0x368 JUMPI PUSH2 0x367 PUSH2 0x9CE JUMP JUMPDEST JUMPDEST SWAP1 POP PUSH1 0x20 MUL ADD CALLDATALOAD PUSH1 0x40 MLOAD PUSH2 0x37B SWAP1 PUSH2 0xBC5 JUMP JUMPDEST PUSH0 PUSH1 0x40 MLOAD DUP1 DUP4 SUB DUP2 DUP6 DUP8 GAS CALL SWAP3 POP POP POP RETURNDATASIZE DUP1 PUSH0 DUP2 EQ PUSH2 0x3B5 JUMPI PUSH1 0x40 MLOAD SWAP2 POP PUSH1 0x1F NOT PUSH1 0x3F RETURNDATASIZE ADD AND DUP3 ADD PUSH1 0x40 MSTORE RETURNDATASIZE DUP3 MSTORE RETURNDATASIZE PUSH0 PUSH1 0x20 DUP5 ADD RETURNDATACOPY PUSH2 0x3BA JUMP JUMPDEST PUSH1 0x60 SWAP2 POP JUMPDEST POP POP SWAP1 POP DUP1 PUSH2 0x469 JUMPI DUP8 DUP8 DUP4 DUP2 DUP2 LT PUSH2 0x3D6 JUMPI PUSH2 0x3D5 PUSH2 0x9CE JUMP JUMPDEST JUMPDEST SWAP1 POP PUSH1 0x20 MUL ADD PUSH1 0x20 DUP2 ADD SWAP1 PUSH2 0x3EB SWAP2 SWAP1 PUSH2 0xB6D JUMP JUMPDEST PUSH20 0xFFFFFFFFFFFFFFFFFFFFFFFFFFFFFFFFFFFFFFFF AND CALLER PUSH20 0xFFFFFFFFFFFFFFFFFFFFFFFFFFFFFFFFFFFFFFFF AND PUSH32 0xF74C61FD0E23E85AD03B1481901CD6E7B7F88A303083915A9E4E0AEEAB67316A DUP9 DUP9 DUP7 DUP2 DUP2 LT PUSH2 0x44C JUMPI PUSH2 0x44B PUSH2 0x9CE JUMP JUMPDEST JUMPDEST SWAP1 POP PUSH1 0x20 MUL ADD CALLDATALOAD PUSH1 0x40 MLOAD PUSH2 0x460 SWAP2 SWAP1 PUSH2 0xBD9 JUMP JUMPDEST PUSH1 0x40 MLOAD DUP1 SWAP2 SUB SWAP1 LOG3 JUMPDEST DUP6 DUP6 DUP4 DUP2 DUP2 LT PUSH2 0x47C JUMPI PUSH2 0x47B PUSH2 0x9CE JUMP JUMPDEST JUMPDEST SWAP1 POP PUSH1 0x20 MUL ADD CALLDATALOAD DUP4 PUSH2 0x48E SWAP2 SWAP1 PUSH2 0xC1F JUMP JUMPDEST SWAP3 POP POP DUP1 DUP1 PUSH1 0x1 ADD SWAP2 POP POP PUSH2 0x30B JUMP JUMPDEST POP PUSH0 CALLER PUSH20 0xFFFFFFFFFFFFFFFFFFFFFFFFFFFFFFFFFFFFFFFF AND DUP3 CALLVALUE PUSH2 0x4C3 SWAP2 SWAP1 PUSH2 0xC52 JUMP JUMPDEST PUSH1 0x40 MLOAD PUSH2 0x4CF SWAP1 PUSH2 0xBC5 JUMP JUMPDEST PUSH0 PUSH1 0x40 MLOAD DUP1 DUP4 SUB DUP2 DUP6 DUP8 GAS CALL SWAP3 POP POP POP RETURNDATASIZE DUP1 PUSH0 DUP2 EQ PUSH2 0x509 JUMPI PUSH1 0x40 MLOAD SWAP2 POP PUSH1 0x1F NOT PUSH1 0x3F RETURNDATASIZE ADD AND DUP3 ADD PUSH1 0x40 MSTORE RETURNDATASIZE DUP3 MSTORE RETURNDATASIZE PUSH0 PUSH1 0x20 DUP5 ADD RETURNDATACOPY PUSH2 0x50E JUMP JUMPDEST PUSH1 0x60 SWAP2 POP JUMPDEST POP POP SWAP1 POP DUP1 PUSH2 0x55B JUMPI CALLER PUSH20 0xFFFFFFFFFFFFFFFFFFFFFFFFFFFFFFFFFFFFFFFF AND PUSH32 0x8FBAB07F09F46AD2D85B20BB9D7A5E69D8DE0E6D69EC34E94EA3DDAFC6F7151 PUSH1 0x40 MLOAD PUSH1 0x40 MLOAD DUP1 SWAP2 SUB SWAP1 LOG2 JUMPDEST POP POP POP POP POP POP POP JUMP JUMPDEST PUSH0 PUSH0 PUSH0 SWAP1 POP PUSH0 PUSH0 SWAP1 POP JUMPDEST DUP5 DUP5 SWAP1 POP DUP2 LT ISZERO PUSH2 0x5AD JUMPI DUP5 DUP5 DUP3 DUP2 DUP2 LT PUSH2 0x58C JUMPI PUSH2 0x58B PUSH2 0x9CE JUMP JUMPDEST JUMPDEST SWAP1 POP PUSH1 0x20 MUL ADD CALLDATALOAD DUP3 PUSH2 0x59E SWAP2 SWAP1 PUSH2 0xC1F JUMP JUMPDEST SWAP2 POP DUP1 DUP1 PUSH1 0x1 ADD SWAP2 POP POP PUSH2 0x56E JUMP JUMPDEST POP DUP1 SWAP2 POP POP SWAP3 SWAP2 POP POP JUMP JUMPDEST PUSH0 PUSH0 REVERT JUMPDEST PUSH0 PUSH0 REVERT JUMPDEST PUSH0 PUSH20 0xFFFFFFFFFFFFFFFFFFFFFFFFFFFFFFFFFFFFFFFF DUP3 AND SWAP1 POP SWAP2 SWAP1 POP JUMP JUMPDEST PUSH0 PUSH2 0x5E9 DUP3 PUSH2 0x5C0 JUMP JUMPDEST SWAP1 POP SWAP2 SWAP1 POP JUMP JUMPDEST PUSH2 0x5F9 DUP2 PUSH2 0x5DF JUMP JUMPDEST DUP2 EQ PUSH2 0x603 JUMPI PUSH0 PUSH0 REVERT JUMPDEST POP JUMP JUMPDEST PUSH0 DUP2 CALLDATALOAD SWAP1 POP PUSH2 0x614 DUP2 PUSH2 0x5F0 JUMP JUMPDEST SWAP3 SWAP2 POP POP JUMP JUMPDEST PUSH0 PUSH0 REVERT JUMPDEST PUSH0 PUSH0 REVERT JUMPDEST PUSH0 PUSH0 REVERT JUMPDEST PUSH0 PUSH0 DUP4 PUSH1 0x1F DUP5 ADD SLT PUSH2 0x63B JUMPI PUSH2 0x63A PUSH2 0x61A JUMP JUMPDEST JUMPDEST DUP3 CALLDATALOAD SWAP1 POP PUSH8 0xFFFFFFFFFFFFFFFF DUP2 GT ISZERO PUSH2 0x658 JUMPI PUSH2 0x657 PUSH2 0x61E JUMP JUMPDEST JUMPDEST PUSH1 0x20 DUP4 ADD SWAP2 POP DUP4 PUSH1 0x20 DUP3 MUL DUP4 ADD GT ISZERO PUSH2 0x674 JUMPI PUSH2 0x673 PUSH2 0x622 JUMP JUMPDEST JUMPDEST SWAP3 POP SWAP3 SWAP1 POP JUMP JUMPDEST PUSH0 PUSH0 DUP4 PUSH1 0x1F DUP5 ADD SLT PUSH2 0x690 JUMPI PUSH2 0x68F PUSH2 0x61A JUMP JUMPDEST JUMPDEST DUP3 CALLDATALOAD SWAP1 POP PUSH8 0xFFFFFFFFFFFFFFFF DUP2 GT ISZERO PUSH2 0x6AD JUMPI PUSH2 0x6AC PUSH2 0x61E JUMP JUMPDEST JUMPDEST PUSH1 0x20 DUP4 ADD SWAP2 POP DUP4 PUSH1 0x20 DUP3 MUL DUP4 ADD GT ISZERO PUSH2 0x6C9 JUMPI PUSH2 0x6C8 PUSH2 0x622 JUMP JUMPDEST JUMPDEST SWAP3 POP SWAP3 SWAP1 POP JUMP JUMPDEST PUSH0 PUSH0 PUSH0 PUSH0 PUSH0 PUSH1 0x60 DUP7 DUP9 SUB SLT ISZERO PUSH2 0x6E9 JUMPI PUSH2 0x6E8 PUSH2 0x5B8 JUMP JUMPDEST JUMPDEST PUSH0 PUSH2 0x6F6 DUP9 DUP3 DUP10 ADD PUSH2 0x606 JUMP JUMPDEST SWAP6 POP POP PUSH1 0x20 DUP7 ADD CALLDATALOAD PUSH8 0xFFFFFFFFFFFFFFFF DUP2 GT ISZERO PUSH2 0x717 JUMPI PUSH2 0x716 PUSH2 0x5BC JUMP JUMPDEST JUMPDEST PUSH2 0x723 DUP9 DUP3 DUP10 ADD PUSH2 0x626 JUMP JUMPDEST SWAP5 POP SWAP5 POP POP PUSH1 0x40 DUP7 ADD CALLDATALOAD PUSH8 0xFFFFFFFFFFFFFFFF DUP2 GT ISZERO PUSH2 0x746 JUMPI PUSH2 0x745 PUSH2 0x5BC JUMP JUMPDEST JUMPDEST PUSH2 0x752 DUP9 DUP3 DUP10 ADD PUSH2 0x67B JUMP JUMPDEST SWAP3 POP SWAP3 POP POP SWAP3 SWAP6 POP SWAP3 SWAP6 SWAP1 SWAP4 POP JUMP JUMPDEST PUSH0 PUSH0 DUP4 PUSH1 0x1F DUP5 ADD SLT PUSH2 0x776 JUMPI PUSH2 0x775 PUSH2 0x61A JUMP JUMPDEST JUMPDEST DUP3 CALLDATALOAD SWAP1 POP PUSH8 0xFFFFFFFFFFFFFFFF DUP2 GT ISZERO PUSH2 0x793 JUMPI PUSH2 0x792 PUSH2 0x61E JUMP JUMPDEST JUMPDEST PUSH1 0x20 DUP4 ADD SWAP2 POP DUP4 PUSH1 0x20 DUP3 MUL DUP4 ADD GT ISZERO PUSH2 0x7AF JUMPI PUSH2 0x7AE PUSH2 0x622 JUMP JUMPDEST JUMPDEST SWAP3 POP SWAP3 SWAP1 POP JUMP JUMPDEST PUSH0 PUSH0 PUSH0 PUSH0 PUSH1 0x40 DUP6 DUP8 SUB SLT ISZERO PUSH2 0x7CE JUMPI PUSH2 0x7CD PUSH2 0x5B8 JUMP JUMPDEST JUMPDEST PUSH0 DUP6 ADD CALLDATALOAD PUSH8 0xFFFFFFFFFFFFFFFF DUP2 GT ISZERO PUSH2 0x7EB JUMPI PUSH2 0x7EA PUSH2 0x5BC JUMP JUMPDEST JUMPDEST PUSH2 0x7F7 DUP8 DUP3 DUP9 ADD PUSH2 0x761 JUMP JUMPDEST SWAP5 POP SWAP5 POP POP PUSH1 0x20 DUP6 ADD CALLDATALOAD PUSH8 0xFFFFFFFFFFFFFFFF DUP2 GT ISZERO PUSH2 0x81A JUMPI PUSH2 0x819 PUSH2 0x5BC JUMP JUMPDEST JUMPDEST PUSH2 0x826 DUP8 DUP3 DUP9 ADD PUSH2 0x67B JUMP JUMPDEST SWAP3 POP SWAP3 POP POP SWAP3 SWAP6 SWAP2 SWAP5 POP SWAP3 POP JUMP JUMPDEST PUSH0 DUP3 DUP3 MSTORE PUSH1 0x20 DUP3 ADD SWAP1 POP SWAP3 SWAP2 POP POP JUMP JUMPDEST PUSH32 0x206C656E67746873206F662041646472657373657320616E6420416D6F756E74 PUSH0 DUP3 ADD MSTORE PUSH32 0x73206E6F7420657175616C000000000000000000000000000000000000000000 PUSH1 0x20 DUP3 ADD MSTORE POP JUMP JUMPDEST PUSH0 PUSH2 0x89E PUSH1 0x2B DUP4 PUSH2 0x834 JUMP JUMPDEST SWAP2 POP PUSH2 0x8A9 DUP3 PUSH2 0x844 JUMP JUMPDEST PUSH1 0x40 DUP3 ADD SWAP1 POP SWAP2 SWAP1 POP JUMP JUMPDEST PUSH0 PUSH1 0x20 DUP3 ADD SWAP1 POP DUP2 DUP2 SUB PUSH0 DUP4 ADD MSTORE PUSH2 0x8CB DUP2 PUSH2 0x892 JUMP JUMPDEST SWAP1 POP SWAP2 SWAP1 POP JUMP JUMPDEST PUSH2 0x8DB DUP2 PUSH2 0x5DF JUMP JUMPDEST DUP3 MSTORE POP POP JUMP JUMPDEST PUSH0 PUSH1 0x40 DUP3 ADD SWAP1 POP PUSH2 0x8F4 PUSH0 DUP4 ADD DUP6 PUSH2 0x8D2 JUMP JUMPDEST PUSH2 0x901 PUSH1 0x20 DUP4 ADD DUP5 PUSH2 0x8D2 JUMP JUMPDEST SWAP4 SWAP3 POP POP POP JUMP JUMPDEST PUSH0 DUP2 SWAP1 POP SWAP2 SWAP1 POP JUMP JUMPDEST PUSH2 0x91A DUP2 PUSH2 0x908 JUMP JUMPDEST DUP2 EQ PUSH2 0x924 JUMPI PUSH0 PUSH0 REVERT JUMPDEST POP JUMP JUMPDEST PUSH0 DUP2 MLOAD SWAP1 POP PUSH2 0x935 DUP2 PUSH2 0x911 JUMP JUMPDEST SWAP3 SWAP2 POP POP JUMP JUMPDEST PUSH0 PUSH1 0x20 DUP3 DUP5 SUB SLT ISZERO PUSH2 0x950 JUMPI PUSH2 0x94F PUSH2 0x5B8 JUMP JUMPDEST JUMPDEST PUSH0 PUSH2 0x95D DUP5 DUP3 DUP6 ADD PUSH2 0x927 JUMP JUMPDEST SWAP2 POP POP SWAP3 SWAP2 POP POP JUMP JUMPDEST PUSH32 0x4E65656420617070726F76616C20455243323020746F6B656E00000000000000 PUSH0 DUP3 ADD MSTORE POP JUMP JUMPDEST PUSH0 PUSH2 0x99A PUSH1 0x19 DUP4 PUSH2 0x834 JUMP JUMPDEST SWAP2 POP PUSH2 0x9A5 DUP3 PUSH2 0x966 JUMP JUMPDEST PUSH1 0x20 DUP3 ADD SWAP1 POP SWAP2 SWAP1 POP JUMP JUMPDEST PUSH0 PUSH1 0x20 DUP3 ADD SWAP1 POP DUP2 DUP2 SUB PUSH0 DUP4 ADD MSTORE PUSH2 0x9C7 DUP2 PUSH2 0x98E JUMP JUMPDEST SWAP1 POP SWAP2 SWAP1 POP JUMP JUMPDEST PUSH32 0x4E487B7100000000000000000000000000000000000000000000000000000000 PUSH0 MSTORE PUSH1 0x32 PUSH1 0x4 MSTORE PUSH1 0x24 PUSH0 REVERT JUMPDEST PUSH0 PUSH1 0x20 DUP3 DUP5 SUB SLT ISZERO PUSH2 0xA10 JUMPI PUSH2 0xA0F PUSH2 0x5B8 JUMP JUMPDEST JUMPDEST PUSH0 PUSH2 0xA1D DUP5 DUP3 DUP6 ADD PUSH2 0x606 JUMP JUMPDEST SWAP2 POP POP SWAP3 SWAP2 POP POP JUMP JUMPDEST PUSH2 0xA2F DUP2 PUSH2 0x908 JUMP JUMPDEST DUP3 MSTORE POP POP JUMP JUMPDEST PUSH0 PUSH1 0x60 DUP3 ADD SWAP1 POP PUSH2 0xA48 PUSH0 DUP4 ADD DUP7 PUSH2 0x8D2 JUMP JUMPDEST PUSH2 0xA55 PUSH1 0x20 DUP4 ADD DUP6 PUSH2 0x8D2 JUMP JUMPDEST PUSH2 0xA62 PUSH1 0x40 DUP4 ADD DUP5 PUSH2 0xA26 JUMP JUMPDEST SWAP5 SWAP4 POP POP POP POP JUMP JUMPDEST PUSH0 DUP2 ISZERO ISZERO SWAP1 POP SWAP2 SWAP1 POP JUMP JUMPDEST PUSH2 0xA7E DUP2 PUSH2 0xA6A JUMP JUMPDEST DUP2 EQ PUSH2 0xA88 JUMPI PUSH0 PUSH0 REVERT JUMPDEST POP JUMP JUMPDEST PUSH0 DUP2 MLOAD SWAP1 POP PUSH2 0xA99 DUP2 PUSH2 0xA75 JUMP JUMPDEST SWAP3 SWAP2 POP POP JUMP JUMPDEST PUSH0 PUSH1 0x20 DUP3 DUP5 SUB SLT ISZERO PUSH2 0xAB4 JUMPI PUSH2 0xAB3 PUSH2 0x5B8 JUMP JUMPDEST JUMPDEST PUSH0 PUSH2 0xAC1 DUP5 DUP3 DUP6 ADD PUSH2 0xA8B JUMP JUMPDEST SWAP2 POP POP SWAP3 SWAP2 POP POP JUMP JUMPDEST PUSH32 0x6D736756616C7565206E6F7420656E6F75676800000000000000000000000000 PUSH0 DUP3 ADD MSTORE POP JUMP JUMPDEST PUSH0 PUSH2 0xAFE PUSH1 0x13 DUP4 PUSH2 0x834 JUMP JUMPDEST SWAP2 POP PUSH2 0xB09 DUP3 PUSH2 0xACA JUMP JUMPDEST PUSH1 0x20 DUP3 ADD SWAP1 POP SWAP2 SWAP1 POP JUMP JUMPDEST PUSH0 PUSH1 0x20 DUP3 ADD SWAP1 POP DUP2 DUP2 SUB PUSH0 DUP4 ADD MSTORE PUSH2 0xB2B DUP2 PUSH2 0xAF2 JUMP JUMPDEST SWAP1 POP SWAP2 SWAP1 POP JUMP JUMPDEST PUSH0 PUSH2 0xB3C DUP3 PUSH2 0x5C0 JUMP JUMPDEST SWAP1 POP SWAP2 SWAP1 POP JUMP JUMPDEST PUSH2 0xB4C DUP2 PUSH2 0xB32 JUMP JUMPDEST DUP2 EQ PUSH2 0xB56 JUMPI PUSH0 PUSH0 REVERT JUMPDEST POP JUMP JUMPDEST PUSH0 DUP2 CALLDATALOAD SWAP1 POP PUSH2 0xB67 DUP2 PUSH2 0xB43 JUMP JUMPDEST SWAP3 SWAP2 POP POP JUMP JUMPDEST PUSH0 PUSH1 0x20 DUP3 DUP5 SUB SLT ISZERO PUSH2 0xB82 JUMPI PUSH2 0xB81 PUSH2 0x5B8 JUMP JUMPDEST JUMPDEST PUSH0 PUSH2 0xB8F DUP5 DUP3 DUP6 ADD PUSH2 0xB59 JUMP JUMPDEST SWAP2 POP POP SWAP3 SWAP2 POP POP JUMP JUMPDEST PUSH0 DUP2 SWAP1 POP SWAP3 SWAP2 POP POP JUMP JUMPDEST POP JUMP JUMPDEST PUSH0 PUSH2 0xBB0 PUSH0 DUP4 PUSH2 0xB98 JUMP JUMPDEST SWAP2 POP PUSH2 0xBBB DUP3 PUSH2 0xBA2 JUMP JUMPDEST PUSH0 DUP3 ADD SWAP1 POP SWAP2 SWAP1 POP JUMP JUMPDEST PUSH0 PUSH2 0xBCF DUP3 PUSH2 0xBA5 JUMP JUMPDEST SWAP2 POP DUP2 SWAP1 POP SWAP2 SWAP1 POP JUMP JUMPDEST PUSH0 PUSH1 0x20 DUP3 ADD SWAP1 POP PUSH2 0xBEC PUSH0 DUP4 ADD DUP5 PUSH2 0xA26 JUMP JUMPDEST SWAP3 SWAP2 POP POP JUMP JUMPDEST PUSH32 0x4E487B7100000000000000000000000000000000000000000000000000000000 PUSH0 MSTORE PUSH1 0x11 PUSH1 0x4 MSTORE PUSH1 0x24 PUSH0 REVERT JUMPDEST PUSH0 PUSH2 0xC29 DUP3 PUSH2 0x908 JUMP JUMPDEST SWAP2 POP PUSH2 0xC34 DUP4 PUSH2 0x908 JUMP JUMPDEST SWAP3 POP DUP3 DUP3 ADD SWAP1 POP DUP1 DUP3 GT ISZERO PUSH2 0xC4C JUMPI PUSH2 0xC4B PUSH2 0xBF2 JUMP JUMPDEST JUMPDEST SWAP3 SWAP2 POP POP JUMP JUMPDEST PUSH0 PUSH2 0xC5C DUP3 PUSH2 0x908 JUMP JUMPDEST SWAP2 POP PUSH2 0xC67 DUP4 PUSH2 0x908 JUMP JUMPDEST SWAP3 POP DUP3 DUP3 SUB SWAP1 POP DUP2 DUP2 GT ISZERO PUSH2 0xC7F JUMPI PUSH2 0xC7E PUSH2 0xBF2 JUMP JUMPDEST JUMPDEST SWAP3 SWAP2 POP POP JUMP INVALID LOG2 PUSH5 0x6970667358 0x22 SLT KECCAK256 KECCAK256 SUB RJUMPI 0xA6E1 0x27 PC 0xD6 0xCA SWAP16 EXTSTATICCALL 0xC DUP8 0x4F 0x2A 0xD8 MLOAD SWAP8 PUSH17 0x9E16ED1813F44ED23253A373DF64736F6C PUSH4 0x4300081E STOP CALLER "
				},
				"gasEstimates": {
					"creation": {
						"codeDepositCost": "651800",
						"executionCost": "681",
						"totalCost": "652481"
					},
					"external": {
						"multiTransferETH(address[],uint256[])": "infinite",
						"multiTransferToken(address,address[],uint256[])": "infinite"
					},
					"internal": {
						"getSum(uint256[] calldata)": "infinite"
					}
				},
				"methodIdentifiers": {
					"multiTransferETH(address[],uint256[])": "77988cf8",
					"multiTransferToken(address,address[],uint256[])": "41ed24a2"
				}
			},
			"storageLayout": {
				"storage": [],
				"types": null
			},
			"userdoc": {
				"kind": "user",
				"methods": {},
				"version": 1
			}
		}
	}
}