{
	"data": {
		"bytecode": {
			"linkReferences": {},
			"object": "6080604052348015600e575f80fd5b506107698061001c5f395ff3fe608060405234801561000f575f80fd5b506004361061004a575f3560e01c8063095fb2121461004e57806323e30c8b1461005857806369d81255146100885780636bee346d146100a6575b5f80fd5b6100566100c4565b005b610072600480360381019061006d91906103c6565b61017b565b60405161007f9190610474565b60405180910390f35b6100906102a0565b60405161009d919061049c565b60405180910390f35b6100ae6102b8565b6040516100bb919061049c565b60405180910390f35b5f69021e19e0c9bab2400000905073c96ebfddced5ac60136029c1f5486abdef20ba5f73ffffffffffffffffffffffffffffffffffffffff16635cffe9de3073c96ebfddced5ac60136029c1f5486abdef20ba5f846040518463ffffffff1660e01b815260040161013793929190610552565b6020604051808303815f875af1158015610153573d5f803e3d5ffd5b505050506040513d601f19601f8201168201806040525081019061017791906105cf565b5050565b5f8084866101899190610627565b905073c96ebfddced5ac60136029c1f5486abdef20ba5f73ffffffffffffffffffffffffffffffffffffffff1663095ea7b373c96ebfddced5ac60136029c1f5486abdef20ba5f836040518363ffffffff1660e01b81526004016101ee92919061065a565b6020604051808303815f875af115801561020a573d5f803e3d5ffd5b505050506040513d601f19601f8201168201806040525081019061022e91906105cf565b507f2c207741f09cd567933fa4d7425d2cb30a59450985fd053a3031d33837b00b2c8888888888888760405161026a97969594939291906106cb565b60405180910390a17f439148f0bbc682ca079e46d6e2c2f0c1e3b820f1a291b069d8882abf8cf18dd99150509695505050505050565b73c96ebfddced5ac60136029c1f5486abdef20ba5f81565b73c96ebfddced5ac60136029c1f5486abdef20ba5f81565b5f80fd5b5f80fd5b5f73ffffffffffffffffffffffffffffffffffffffff82169050919050565b5f610301826102d8565b9050919050565b610311816102f7565b811461031b575f80fd5b50565b5f8135905061032c81610308565b92915050565b5f819050919050565b61034481610332565b811461034e575f80fd5b50565b5f8135905061035f8161033b565b92915050565b5f80fd5b5f80fd5b5f80fd5b5f8083601f84011261038657610385610365565b5b8235905067ffffffffffffffff8111156103a3576103a2610369565b5b6020830191508360018202830111156103bf576103be61036d565b5b9250929050565b5f805f805f8060a087890312156103e0576103df6102d0565b5b5f6103ed89828a0161031e565b96505060206103fe89828a0161031e565b955050604061040f89828a01610351565b945050606061042089828a01610351565b935050608087013567ffffffffffffffff811115610441576104406102d4565b5b61044d89828a01610371565b92509250509295509295509295565b5f819050919050565b61046e8161045c565b82525050565b5f6020820190506104875f830184610465565b92915050565b610496816102f7565b82525050565b5f6020820190506104af5f83018461048d565b92915050565b5f819050919050565b5f6104d86104d36104ce846102d8565b6104b5565b6102d8565b9050919050565b5f6104e9826104be565b9050919050565b5f6104fa826104df565b9050919050565b61050a816104f0565b82525050565b61051981610332565b82525050565b5f82825260208201905092915050565b50565b5f61053d5f8361051f565b91506105488261052f565b5f82019050919050565b5f6080820190506105655f830186610501565b610572602083018561048d565b61057f6040830184610510565b818103606083015261059081610532565b9050949350505050565b5f8115159050919050565b6105ae8161059a565b81146105b8575f80fd5b50565b5f815190506105c9816105a5565b92915050565b5f602082840312156105e4576105e36102d0565b5b5f6105f1848285016105bb565b91505092915050565b7f4e487b71000000000000000000000000000000000000000000000000000000005f52601160045260245ffd5b5f61063182610332565b915061063c83610332565b9250828201905080821115610654576106536105fa565b5b92915050565b5f60408201905061066d5f83018561048d565b61067a6020830184610510565b9392505050565b828183375f83830152505050565b5f601f19601f8301169050919050565b5f6106aa838561051f565b93506106b7838584610681565b6106c08361068f565b840190509392505050565b5f60c0820190506106de5f83018a61048d565b6106eb602083018961048d565b6106f86040830188610510565b6107056060830187610510565b818103608083015261071881858761069f565b905061072760a0830184610510565b9897505050505050505056fea264697066735822122093e306cea1d4da020754423784e3225b8ccaf4319ce3400a0a518e2dba862fb564736f6c634300081a0033",
			"opcodes": "PUSH1 0x80 PUSH1 0x40 MSTORE CALLVALUE DUP1 ISZERO PUSH1 0xE JUMPI PUSH0 DUP1 REVERT JUMPDEST POP PUSH2 0x769 DUP1 PUSH2 0x1C PUSH0 CODECOPY PUSH0 RETURN INVALID PUSH1 0x80 PUSH1 0x40 MSTORE CALLVALUE DUP1 ISZERO PUSH2 0xF JUMPI PUSH0 DUP1 REVERT JUMPDEST POP PUSH1 0x4 CALLDATASIZE LT PUSH2 0x4A JUMPI PUSH0 CALLDATALOAD PUSH1 0xE0 SHR DUP1 PUSH4 0x95FB212 EQ PUSH2 0x4E JUMPI DUP1 PUSH4 0x23E30C8B EQ PUSH2 0x58 JUMPI DUP1 PUSH4 0x69D81255 EQ PUSH2 0x88 JUMPI DUP1 PUSH4 0x6BEE346D EQ PUSH2 0xA6 JUMPI JUMPDEST PUSH0 DUP1 REVERT JUMPDEST PUSH2 0x56 PUSH2 0xC4 JUMP JUMPDEST STOP JUMPDEST PUSH2 0x72 PUSH1 0x4 DUP1 CALLDATASIZE SUB DUP2 ADD SWAP1 PUSH2 0x6D SWAP2 SWAP1 PUSH2 0x3C6 JUMP JUMPDEST PUSH2 0x17B JUMP JUMPDEST PUSH1 0x40 MLOAD PUSH2 0x7F SWAP2 SWAP1 PUSH2 0x474 JUMP JUMPDEST PUSH1 0x40 MLOAD DUP1 SWAP2 SUB SWAP1 RETURN JUMPDEST PUSH2 0x90 PUSH2 0x2A0 JUMP JUMPDEST PUSH1 0x40 MLOAD PUSH2 0x9D SWAP2 SWAP1 PUSH2 0x49C JUMP JUMPDEST PUSH1 0x40 MLOAD DUP1 SWAP2 SUB SWAP1 RETURN JUMPDEST PUSH2 0xAE PUSH2 0x2B8 JUMP JUMPDEST PUSH1 0x40 MLOAD PUSH2 0xBB SWAP2 SWAP1 PUSH2 0x49C JUMP JUMPDEST PUSH1 0x40 MLOAD DUP1 SWAP2 SUB SWAP1 RETURN JUMPDEST PUSH0 PUSH10 0x21E19E0C9BAB2400000 SWAP1 POP PUSH20 0xC96EBFDDCED5AC60136029C1F5486ABDEF20BA5F PUSH20 0xFFFFFFFFFFFFFFFFFFFFFFFFFFFFFFFFFFFFFFFF AND PUSH4 0x5CFFE9DE ADDRESS PUSH20 0xC96EBFDDCED5AC60136029C1F5486ABDEF20BA5F DUP5 PUSH1 0x40 MLOAD DUP5 PUSH4 0xFFFFFFFF AND PUSH1 0xE0 SHL DUP2 MSTORE PUSH1 0x4 ADD PUSH2 0x137 SWAP4 SWAP3 SWAP2 SWAP1 PUSH2 0x552 JUMP JUMPDEST PUSH1 0x20 PUSH1 0x40 MLOAD DUP1 DUP4 SUB DUP2 PUSH0 DUP8 GAS CALL ISZERO DUP1 ISZERO PUSH2 0x153 JUMPI RETURNDATASIZE PUSH0 DUP1 RETURNDATACOPY RETURNDATASIZE PUSH0 REVERT JUMPDEST POP POP POP POP PUSH1 0x40 MLOAD RETURNDATASIZE PUSH1 0x1F NOT PUSH1 0x1F DUP3 ADD AND DUP3 ADD DUP1 PUSH1 0x40 MSTORE POP DUP2 ADD SWAP1 PUSH2 0x177 SWAP2 SWAP1 PUSH2 0x5CF JUMP JUMPDEST POP POP JUMP JUMPDEST PUSH0 DUP1 DUP5 DUP7 PUSH2 0x189 SWAP2 SWAP1 PUSH2 0x627 JUMP JUMPDEST SWAP1 POP PUSH20 0xC96EBFDDCED5AC60136029C1F5486ABDEF20BA5F PUSH20 0xFFFFFFFFFFFFFFFFFFFFFFFFFFFFFFFFFFFFFFFF AND PUSH4 0x95EA7B3 PUSH20 0xC96EBFDDCED5AC60136029C1F5486ABDEF20BA5F DUP4 PUSH1 0x40 MLOAD DUP4 PUSH4 0xFFFFFFFF AND PUSH1 0xE0 SHL DUP2 MSTORE PUSH1 0x4 ADD PUSH2 0x1EE SWAP3 SWAP2 SWAP1 PUSH2 0x65A JUMP JUMPDEST PUSH1 0x20 PUSH1 0x40 MLOAD DUP1 DUP4 SUB DUP2 PUSH0 DUP8 GAS CALL ISZERO DUP1 ISZERO PUSH2 0x20A JUMPI RETURNDATASIZE PUSH0 DUP1 RETURNDATACOPY RETURNDATASIZE PUSH0 REVERT JUMPDEST POP POP POP POP PUSH1 0x40 MLOAD RETURNDATASIZE PUSH1 0x1F NOT PUSH1 0x1F DUP3 ADD AND DUP3 ADD DUP1 PUSH1 0x40 MSTORE POP DUP2 ADD SWAP1 PUSH2 0x22E SWAP2 SWAP1 PUSH2 0x5CF JUMP JUMPDEST POP PUSH32 0x2C207741F09CD567933FA4D7425D2CB30A59450985FD053A3031D33837B00B2C DUP9 DUP9 DUP9 DUP9 DUP9 DUP9 DUP8 PUSH1 0x40 MLOAD PUSH2 0x26A SWAP8 SWAP7 SWAP6 SWAP5 SWAP4 SWAP3 SWAP2 SWAP1 PUSH2 0x6CB JUMP JUMPDEST PUSH1 0x40 MLOAD DUP1 SWAP2 SUB SWAP1 LOG1 PUSH32 0x439148F0BBC682CA079E46D6E2C2F0C1E3B820F1A291B069D8882ABF8CF18DD9 SWAP2 POP POP SWAP7 SWAP6 POP POP POP POP POP POP JUMP JUMPDEST PUSH20 0xC96EBFDDCED5AC60136029C1F5486ABDEF20BA5F DUP2 JUMP JUMPDEST PUSH20 0xC96EBFDDCED5AC60136029C1F5486ABDEF20BA5F DUP2 JUMP JUMPDEST PUSH0 DUP1 REVERT JUMPDEST PUSH0 DUP1 REVERT JUMPDEST PUSH0 PUSH20 0xFFFFFFFFFFFFFFFFFFFFFFFFFFFFFFFFFFFFFFFF DUP3 AND SWAP1 POP SWAP2 SWAP1 POP JUMP JUMPDEST PUSH0 PUSH2 0x301 DUP3 PUSH2 0x2D8 JUMP JUMPDEST SWAP1 POP SWAP2 SWAP1 POP JUMP JUMPDEST PUSH2 0x311 DUP2 PUSH2 0x2F7 JUMP JUMPDEST DUP2 EQ PUSH2 0x31B JUMPI PUSH0 DUP1 REVERT JUMPDEST POP JUMP JUMPDEST PUSH0 DUP2 CALLDATALOAD SWAP1 POP PUSH2 0x32C DUP2 PUSH2 0x308 JUMP JUMPDEST SWAP3 SWAP2 POP POP JUMP JUMPDEST PUSH0 DUP2 SWAP1 POP SWAP2 SWAP1 POP JUMP JUMPDEST PUSH2 0x344 DUP2 PUSH2 0x332 JUMP JUMPDEST DUP2 EQ PUSH2 0x34E JUMPI PUSH0 DUP1 REVERT JUMPDEST POP JUMP JUMPDEST PUSH0 DUP2 CALLDATALOAD SWAP1 POP PUSH2 0x35F DUP2 PUSH2 0x33B JUMP JUMPDEST SWAP3 SWAP2 POP POP JUMP JUMPDEST PUSH0 DUP1 REVERT JUMPDEST PUSH0 DUP1 REVERT JUMPDEST PUSH0 DUP1 REVERT JUMPDEST PUSH0 DUP1 DUP4 PUSH1 0x1F DUP5 ADD SLT PUSH2 0x386 JUMPI PUSH2 0x385 PUSH2 0x365 JUMP JUMPDEST JUMPDEST DUP3 CALLDATALOAD SWAP1 POP PUSH8 0xFFFFFFFFFFFFFFFF DUP2 GT ISZERO PUSH2 0x3A3 JUMPI PUSH2 0x3A2 PUSH2 0x369 JUMP JUMPDEST JUMPDEST PUSH1 0x20 DUP4 ADD SWAP2 POP DUP4 PUSH1 0x1 DUP3 MUL DUP4 ADD GT ISZERO PUSH2 0x3BF JUMPI PUSH2 0x3BE PUSH2 0x36D JUMP JUMPDEST JUMPDEST SWAP3 POP SWAP3 SWAP1 POP JUMP JUMPDEST PUSH0 DUP1 PUSH0 DUP1 PUSH0 DUP1 PUSH1 0xA0 DUP8 DUP10 SUB SLT ISZERO PUSH2 0x3E0 JUMPI PUSH2 0x3DF PUSH2 0x2D0 JUMP JUMPDEST JUMPDEST PUSH0 PUSH2 0x3ED DUP10 DUP3 DUP11 ADD PUSH2 0x31E JUMP JUMPDEST SWAP7 POP POP PUSH1 0x20 PUSH2 0x3FE DUP10 DUP3 DUP11 ADD PUSH2 0x31E JUMP JUMPDEST SWAP6 POP POP PUSH1 0x40 PUSH2 0x40F DUP10 DUP3 DUP11 ADD PUSH2 0x351 JUMP JUMPDEST SWAP5 POP POP PUSH1 0x60 PUSH2 0x420 DUP10 DUP3 DUP11 ADD PUSH2 0x351 JUMP JUMPDEST SWAP4 POP POP PUSH1 0x80 DUP8 ADD CALLDATALOAD PUSH8 0xFFFFFFFFFFFFFFFF DUP2 GT ISZERO PUSH2 0x441 JUMPI PUSH2 0x440 PUSH2 0x2D4 JUMP JUMPDEST JUMPDEST PUSH2 0x44D DUP10 DUP3 DUP11 ADD PUSH2 0x371 JUMP JUMPDEST SWAP3 POP SWAP3 POP POP SWAP3 SWAP6 POP SWAP3 SWAP6 POP SWAP3 SWAP6 JUMP JUMPDEST PUSH0 DUP2 SWAP1 POP SWAP2 SWAP1 POP JUMP JUMPDEST PUSH2 0x46E DUP2 PUSH2 0x45C JUMP JUMPDEST DUP3 MSTORE POP POP JUMP JUMPDEST PUSH0 PUSH1 0x20 DUP3 ADD SWAP1 POP PUSH2 0x487 PUSH0 DUP4 ADD DUP5 PUSH2 0x465 JUMP JUMPDEST SWAP3 SWAP2 POP POP JUMP JUMPDEST PUSH2 0x496 DUP2 PUSH2 0x2F7 JUMP JUMPDEST DUP3 MSTORE POP POP JUMP JUMPDEST PUSH0 PUSH1 0x20 DUP3 ADD SWAP1 POP PUSH2 0x4AF PUSH0 DUP4 ADD DUP5 PUSH2 0x48D JUMP JUMPDEST SWAP3 SWAP2 POP POP JUMP JUMPDEST PUSH0 DUP2 SWAP1 POP SWAP2 SWAP1 POP JUMP JUMPDEST PUSH0 PUSH2 0x4D8 PUSH2 0x4D3 PUSH2 0x4CE DUP5 PUSH2 0x2D8 JUMP JUMPDEST PUSH2 0x4B5 JUMP JUMPDEST PUSH2 0x2D8 JUMP JUMPDEST SWAP1 POP SWAP2 SWAP1 POP JUMP JUMPDEST PUSH0 PUSH2 0x4E9 DUP3 PUSH2 0x4BE JUMP JUMPDEST SWAP1 POP SWAP2 SWAP1 POP JUMP JUMPDEST PUSH0 PUSH2 0x4FA DUP3 PUSH2 0x4DF JUMP JUMPDEST SWAP1 POP SWAP2 SWAP1 POP JUMP JUMPDEST PUSH2 0x50A DUP2 PUSH2 0x4F0 JUMP JUMPDEST DUP3 MSTORE POP POP JUMP JUMPDEST PUSH2 0x519 DUP2 PUSH2 0x332 JUMP JUMPDEST DUP3 MSTORE POP POP JUMP JUMPDEST PUSH0 DUP3 DUP3 MSTORE PUSH1 0x20 DUP3 ADD SWAP1 POP SWAP3 SWAP2 POP POP JUMP JUMPDEST POP JUMP JUMPDEST PUSH0 PUSH2 0x53D PUSH0 DUP4 PUSH2 0x51F JUMP JUMPDEST SWAP2 POP PUSH2 0x548 DUP3 PUSH2 0x52F JUMP JUMPDEST PUSH0 DUP3 ADD SWAP1 POP SWAP2 SWAP1 POP JUMP JUMPDEST PUSH0 PUSH1 0x80 DUP3 ADD SWAP1 POP PUSH2 0x565 PUSH0 DUP4 ADD DUP7 PUSH2 0x501 JUMP JUMPDEST PUSH2 0x572 PUSH1 0x20 DUP4 ADD DUP6 PUSH2 0x48D JUMP JUMPDEST PUSH2 0x57F PUSH1 0x40 DUP4 ADD DUP5 PUSH2 0x510 JUMP JUMPDEST DUP2 DUP2 SUB PUSH1 0x60 DUP4 ADD MSTORE PUSH2 0x590 DUP2 PUSH2 0x532 JUMP JUMPDEST SWAP1 POP SWAP5 SWAP4 POP POP POP POP JUMP JUMPDEST PUSH0 DUP2 ISZERO ISZERO SWAP1 POP SWAP2 SWAP1 POP JUMP JUMPDEST PUSH2 0x5AE DUP2 PUSH2 0x59A JUMP JUMPDEST DUP2 EQ PUSH2 0x5B8 JUMPI PUSH0 DUP1 REVERT JUMPDEST POP JUMP JUMPDEST PUSH0 DUP2 MLOAD SWAP1 POP PUSH2 0x5C9 DUP2 PUSH2 0x5A5 JUMP JUMPDEST SWAP3 SWAP2 POP POP JUMP JUMPDEST PUSH0 PUSH1 0x20 DUP3 DUP5 SUB SLT ISZERO PUSH2 0x5E4 JUMPI PUSH2 0x5E3 PUSH2 0x2D0 JUMP JUMPDEST JUMPDEST PUSH0 PUSH2 0x5F1 DUP5 DUP3 DUP6 ADD PUSH2 0x5BB JUMP JUMPDEST SWAP2 POP POP SWAP3 SWAP2 POP POP JUMP JUMPDEST PUSH32 0x4E487B7100000000000000000000000000000000000000000000000000000000 PUSH0 MSTORE PUSH1 0x11 PUSH1 0x4 MSTORE PUSH1 0x24 PUSH0 REVERT JUMPDEST PUSH0 PUSH2 0x631 DUP3 PUSH2 0x332 JUMP JUMPDEST SWAP2 POP PUSH2 0x63C DUP4 PUSH2 0x332 JUMP JUMPDEST SWAP3 POP DUP3 DUP3 ADD SWAP1 POP DUP1 DUP3 GT ISZERO PUSH2 0x654 JUMPI PUSH2 0x653 PUSH2 0x5FA JUMP JUMPDEST JUMPDEST SWAP3 SWAP2 POP POP JUMP JUMPDEST PUSH0 PUSH1 0x40 DUP3 ADD SWAP1 POP PUSH2 0x66D PUSH0 DUP4 ADD DUP6 PUSH2 0x48D JUMP JUMPDEST PUSH2 0x67A PUSH1 0x20 DUP4 ADD DUP5 PUSH2 0x510 JUMP JUMPDEST SWAP4 SWAP3 POP POP POP JUMP JUMPDEST DUP3 DUP2 DUP4 CALLDATACOPY PUSH0 DUP4 DUP4 ADD MSTORE POP POP POP JUMP JUMPDEST PUSH0 PUSH1 0x1F NOT PUSH1 0x1F DUP4 ADD AND SWAP1 POP SWAP2 SWAP1 POP JUMP JUMPDEST PUSH0 PUSH2 0x6AA DUP4 DUP6 PUSH2 0x51F JUMP JUMPDEST SWAP4 POP PUSH2 0x6B7 DUP4 DUP6 DUP5 PUSH2 0x681 JUMP JUMPDEST PUSH2 0x6C0 DUP4 PUSH2 0x68F JUMP JUMPDEST DUP5 ADD SWAP1 POP SWAP4 SWAP3 POP POP POP JUMP JUMPDEST PUSH0 PUSH1 0xC0 DUP3 ADD SWAP1 POP PUSH2 0x6DE PUSH0 DUP4 ADD DUP11 PUSH2 0x48D JUMP JUMPDEST PUSH2 0x6EB PUSH1 0x20 DUP4 ADD DUP10 PUSH2 0x48D JUMP JUMPDEST PUSH2 0x6F8 PUSH1 0x40 DUP4 ADD DUP9 PUSH2 0x510 JUMP JUMPDEST PUSH2 0x705 PUSH1 0x60 DUP4 ADD DUP8 PUSH2 0x510 JUMP JUMPDEST DUP2 DUP2 SUB PUSH1 0x80 DUP4 ADD MSTORE PUSH2 0x718 DUP2 DUP6 DUP8 PUSH2 0x69F JUMP JUMPDEST SWAP1 POP PUSH2 0x727 PUSH1 0xA0 DUP4 ADD DUP5 PUSH2 0x510 JUMP JUMPDEST SWAP9 SWAP8 POP POP POP POP POP POP POP POP JUMP INVALID LOG2 PUSH5 0x6970667358 0x22 SLT KECCAK256 SWAP4 0xE3 MOD 0xCE LOG1 0xD4 0xDA MUL SMOD SLOAD TIMESTAMP CALLDATACOPY DUP5 0xE3 0x22 JUMPDEST DUP13 0xCA DELEGATECALL BALANCE SWAP13 0xE3 BLOCKHASH EXP EXP MLOAD DUP15 0x2D 0xBA DUP7 0x2F 0xB5 PUSH5 0x736F6C6343 STOP ADDMOD BYTE STOP CALLER "
		},
		"gasEstimates": {
			"creation": {
				"codeDepositCost": "379400",
				"executionCost": "416",
				"totalCost": "379816"
			},
			"external": {
				"lenderAddress()": "395",
				"nftSwapAddress()": "417",
				"onFlashLoan(address,address,uint256,uint256,bytes)": "infinite",
				"testFlashLoan()": "infinite"
			}
		},
		"methodIdentifiers": {
			"lenderAddress()": "69d81255",
			"nftSwapAddress()": "6bee346d",
			"onFlashLoan(address,address,uint256,uint256,bytes)": "23e30c8b",
			"testFlashLoan()": "095fb212"
		}
	},
	"abi": [
		{
			"anonymous": false,
			"inputs": [
				{
					"indexed": false,
					"internalType": "address",
					"name": "initiator",
					"type": "address"
				},
				{
					"indexed": false,
					"internalType": "address",
					"name": "token",
					"type": "address"
				},
				{
					"indexed": false,
					"internalType": "uint256",
					"name": "amount",
					"type": "uint256"
				},
				{
					"indexed": false,
					"internalType": "uint256",
					"name": "fee",
					"type": "uint256"
				},
				{
					"indexed": false,
					"internalType": "bytes",
					"name": "data",
					"type": "bytes"
				},
				{
					"indexed": false,
					"internalType": "uint256",
					"name": "approveAmount",
					"type": "uint256"
				}
			],
			"name": "OnFlashLoanEvent",
			"type": "event"
		},
		{
			"inputs": [],
			"name": "lenderAddress",
			"outputs": [
				{
					"internalType": "address",
					"name": "",
					"type": "address"
				}
			],
			"stateMutability": "view",
			"type": "function"
		},
		{
			"inputs": [],
			"name": "nftSwapAddress",
			"outputs": [
				{
					"internalType": "address",
					"name": "",
					"type": "address"
				}
			],
			"stateMutability": "view",
			"type": "function"
		},
		{
			"inputs": [
				{
					"internalType": "address",
					"name": "initiator",
					"type": "address"
				},
				{
					"internalType": "address",
					"name": "token",
					"type": "address"
				},
				{
					"internalType": "uint256",
					"name": "amount",
					"type": "uint256"
				},
				{
					"internalType": "uint256",
					"name": "fee",
					"type": "uint256"
				},
				{
					"internalType": "bytes",
					"name": "data",
					"type": "bytes"
				}
			],
			"name": "onFlashLoan",
			"outputs": [
				{
					"internalType": "bytes32",
					"name": "",
					"type": "bytes32"
				}
			],
			"stateMutability": "nonpayable",
			"type": "function"
		},
		{
			"inputs": [],
			"name": "testFlashLoan",
			"outputs": [],
			"stateMutability": "nonpayable",
			"type": "function"
		}
	]
}