{
	"data": {
		"bytecode": {
			"linkReferences": {},
			"object": "608060405234801561000f575f80fd5b506040518060400160405280600881526020017f53776170436f696e0000000000000000000000000000000000000000000000008152506040518060400160405280600281526020017f5343000000000000000000000000000000000000000000000000000000000000815250816003908161008b9190610356565b50806004908161009b9190610356565b5050505f60055f6101000a81548160ff0219169083151502179055503360115f6101000a81548173ffffffffffffffffffffffffffffffffffffffff021916908373ffffffffffffffffffffffffffffffffffffffff160217905550600f60095f018190555060056009600201819055506003600960040181905550610425565b5f81519050919050565b7f4e487b71000000000000000000000000000000000000000000000000000000005f52604160045260245ffd5b7f4e487b71000000000000000000000000000000000000000000000000000000005f52602260045260245ffd5b5f600282049050600182168061019757607f821691505b6020821081036101aa576101a9610153565b5b50919050565b5f819050815f5260205f209050919050565b5f6020601f8301049050919050565b5f82821b905092915050565b5f6008830261020c7fffffffffffffffffffffffffffffffffffffffffffffffffffffffffffffffff826101d1565b61021686836101d1565b95508019841693508086168417925050509392505050565b5f819050919050565b5f819050919050565b5f61025a6102556102508461022e565b610237565b61022e565b9050919050565b5f819050919050565b61027383610240565b61028761027f82610261565b8484546101dd565b825550505050565b5f90565b61029b61028f565b6102a681848461026a565b505050565b5b818110156102c9576102be5f82610293565b6001810190506102ac565b5050565b601f82111561030e576102df816101b0565b6102e8846101c2565b810160208510156102f7578190505b61030b610303856101c2565b8301826102ab565b50505b505050565b5f82821c905092915050565b5f61032e5f1984600802610313565b1980831691505092915050565b5f610346838361031f565b9150826002028217905092915050565b61035f8261011c565b67ffffffffffffffff81111561037857610377610126565b5b6103828254610180565b61038d8282856102cd565b5f60209050601f8311600181146103be575f84156103ac578287015190505b6103b6858261033b565b86555061041d565b601f1984166103cc866101b0565b5f5b828110156103f3578489015182556001820191506020850194506020810190506103ce565b86831015610410578489015161040c601f89168261031f565b8355505b6001600288020188555050505b505050505050565b615e89806104325f395ff3fe608060405260043610610275575f3560e01c8063a0010c621161014e578063d905777e116100c0578063e90d2fe111610079578063e90d2fe114610a38578063eac449d914610a60578063ef8b30f714610a88578063f340fa0114610ac4578063f851a44014610af4578063fc0bb17814610b1e57610296565b8063d905777e146108f6578063d9d98ce414610932578063da62dc981461096e578063dd62ed3e146109ac578063e43197ef146109e8578063e8aa7e3314610a1057610296565b8063b460af9411610112578063b460af94146107c8578063b789bf5214610804578063b80083fa1461082e578063ba08765214610856578063d09b6d4314610892578063d87368cf146108ba57610296565b8063a0010c62146106c4578063a893c9be14610700578063a9059cbb14610728578063aa1e537c14610764578063b3d7f6b91461078c57610296565b80635c975abb116101e75780638456cb59116101ab5780638456cb59146105d457806384ed8c72146105ea5780638de93222146106125780638f2839701461064257806394bf804d1461066a57806395d89b411461069a57610296565b80635c975abb146104cc5780635cffe9de146104f6578063613255ab146105325780636f31ab341461056e57806370a082311461059857610296565b806318160ddd1161023957806318160ddd146103ba57806323b872dd146103e45780632d61297d14610420578063313ce567146104505780633f4ba83a1461047a5780634cdad5061461049057610296565b806301e1d114146102b257806306fdde03146102dc578063095ea7b3146103065780630a28a47714610342578063150b7a021461037e57610296565b36610296575f3411156102945761029261028d610b5a565b610b61565b505b005b5f3411156102b0576102ae6102a9610b5a565b610b61565b505b005b3480156102bd575f80fd5b506102c6610bff565b6040516102d39190614837565b60405180910390f35b3480156102e7575f80fd5b506102f0610c06565b6040516102fd91906148c0565b60405180910390f35b348015610311575f80fd5b5061032c60048036038101906103279190614975565b610c96565b60405161033991906149cd565b60405180910390f35b34801561034d575f80fd5b50610368600480360381019061036391906149e6565b610cb8565b6040516103759190614837565b60405180910390f35b348015610389575f80fd5b506103a4600480360381019061039f9190614b3d565b610ccf565b6040516103b19190614bf7565b60405180910390f35b3480156103c5575f80fd5b506103ce610d33565b6040516103db9190614837565b60405180910390f35b3480156103ef575f80fd5b5061040a60048036038101906104059190614c10565b610d3c565b60405161041791906149cd565b60405180910390f35b34801561042b575f80fd5b50610434610d6a565b6040516104479796959493929190614c60565b60405180910390f35b34801561045b575f80fd5b50610464610db1565b6040516104719190614ce8565b60405180910390f35b348015610485575f80fd5b5061048e610db9565b005b34801561049b575f80fd5b506104b660048036038101906104b191906149e6565b610e52565b6040516104c39190614837565b60405180910390f35b3480156104d7575f80fd5b506104e0610e69565b6040516104ed91906149cd565b60405180910390f35b348015610501575f80fd5b5061051c60048036038101906105179190614d99565b610e7e565b60405161052991906149cd565b60405180910390f35b34801561053d575f80fd5b5061055860048036038101906105539190614e1d565b6110a3565b6040516105659190614837565b60405180910390f35b348015610579575f80fd5b50610582611118565b60405161058f9190614837565b60405180910390f35b3480156105a3575f80fd5b506105be60048036038101906105b99190614e1d565b61119d565b6040516105cb9190614837565b60405180910390f35b3480156105df575f80fd5b506105e86111e2565b005b3480156105f5575f80fd5b50610610600480360381019061060b91906149e6565b61127b565b005b61062c60048036038101906106279190614975565b6113a9565b6040516106399190614837565b60405180910390f35b34801561064d575f80fd5b5061066860048036038101906106639190614e1d565b611609565b005b610684600480360381019061067f9190614e48565b611749565b6040516106919190614837565b60405180910390f35b3480156106a5575f80fd5b506106ae611882565b6040516106bb91906148c0565b60405180910390f35b3480156106cf575f80fd5b506106ea60048036038101906106e59190614e1d565b611912565b6040516106f79190614837565b60405180910390f35b34801561070b575f80fd5b50610726600480360381019061072191906149e6565b611927565b005b348015610733575f80fd5b5061074e60048036038101906107499190614975565b611a57565b60405161075b91906149cd565b60405180910390f35b34801561076f575f80fd5b5061078a60048036038101906107859190614975565b611a79565b005b348015610797575f80fd5b506107b260048036038101906107ad91906149e6565b611bcd565b6040516107bf9190614837565b60405180910390f35b3480156107d3575f80fd5b506107ee60048036038101906107e99190614e86565b611be1565b6040516107fb9190614837565b60405180910390f35b34801561080f575f80fd5b50610818611d11565b6040516108259190614837565b60405180910390f35b348015610839575f80fd5b50610854600480360381019061084f9190614e1d565b611d17565b005b348015610861575f80fd5b5061087c60048036038101906108779190614e86565b61207e565b6040516108899190614837565b60405180910390f35b34801561089d575f80fd5b506108b860048036038101906108b39190614ed6565b6121ae565b005b3480156108c5575f80fd5b506108e060048036038101906108db9190614e1d565b612395565b6040516108ed9190614837565b60405180910390f35b348015610901575f80fd5b5061091c60048036038101906109179190614e1d565b6123db565b6040516109299190614837565b60405180910390f35b34801561093d575f80fd5b5061095860048036038101906109539190614975565b61245b565b6040516109659190614837565b60405180910390f35b348015610979575f80fd5b50610994600480360381019061098f9190614975565b6124de565b6040516109a393929190614f35565b60405180910390f35b3480156109b7575f80fd5b506109d260048036038101906109cd9190614f6a565b6125bf565b6040516109df9190614837565b60405180910390f35b3480156109f3575f80fd5b50610a0e6004803603810190610a099190614e1d565b612641565b005b348015610a1b575f80fd5b50610a366004803603810190610a319190614fe3565b6127d0565b005b348015610a43575f80fd5b50610a5e6004803603810190610a5991906149e6565b612932565b005b348015610a6b575f80fd5b50610a866004803603810190610a819190614975565b612a62565b005b348015610a93575f80fd5b50610aae6004803603810190610aa991906149e6565b612c83565b604051610abb9190614837565b60405180910390f35b610ade6004803603810190610ad99190614e1d565b610b61565b604051610aeb9190614837565b60405180910390f35b348015610aff575f80fd5b50610b08612c96565b604051610b159190615033565b60405180910390f35b348015610b29575f80fd5b50610b446004803603810190610b3f9190614975565b612cbb565b604051610b519190614837565b60405180910390f35b5f33905090565b5f8073ffffffffffffffffffffffffffffffffffffffff168273ffffffffffffffffffffffffffffffffffffffff1603610bd0576040517f08c379a0000000000000000000000000000000000000000000000000000000008152600401610bc790615096565b60405180910390fd5b5f3490505f808214610bf557610be7825f84612fbd565b9050610bf4848383613021565b5b8092505050919050565b5f47905090565b606060038054610c15906150e1565b80601f0160208091040260200160405190810160405280929190818152602001828054610c41906150e1565b8015610c8c5780601f10610c6357610100808354040283529160200191610c8c565b820191905f5260205f20905b815481529060010190602001808311610c6f57829003601f168201915b5050505050905090565b5f80610ca0610b5a565b9050610cad81858561309e565b600191505092915050565b5f80610cc3836130b0565b50905080915050919050565b5f828573ffffffffffffffffffffffffffffffffffffffff167fa05d90f300156ad1b545bc5d8197024456f21d22a708f5af04dd293e3d6052518685604051610d19929190615163565b60405180910390a363150b7a0260e01b9050949350505050565b5f600254905090565b5f80610d46610b5a565b9050610d538582856130f1565b610d5e858585613184565b60019150509392505050565b5f805f805f805f60095f0154965060096001015495506009600201549450600960030154935060096004015492506009600501549150600960060154905090919293949596565b5f6012905090565b60115f9054906101000a900473ffffffffffffffffffffffffffffffffffffffff1673ffffffffffffffffffffffffffffffffffffffff163373ffffffffffffffffffffffffffffffffffffffff1614610e48576040517f08c379a0000000000000000000000000000000000000000000000000000000008152600401610e3f906151db565b60405180910390fd5b610e50613274565b565b5f80610e5d836132d5565b50905080915050919050565b5f60055f9054906101000a900460ff16905090565b5f80610e89866110a3565b905080851115610ed057806040517ffd9a7609000000000000000000000000000000000000000000000000000000008152600401610ec79190614837565b60405180910390fd5b5f610edb878761245b565b90505f610efa82600289610eed610b5a565b610ef5610b5a565b61331a565b90505f8183610f099190615226565b9050610f158a89613529565b7f439148f0bbc682ca079e46d6e2c2f0c1e3b820f1a291b069d8882abf8cf18dd98a73ffffffffffffffffffffffffffffffffffffffff166323e30c8b610f5a610b5a565b8c8c868d8d6040518763ffffffff1660e01b8152600401610f8096959493929190615285565b6020604051808303815f875af1158015610f9c573d5f803e3d5ffd5b505050506040513d601f19601f82011682018060405250810190610fc09190615312565b1461100257896040517f678c5b00000000000000000000000000000000000000000000000000000000008152600401610ff99190615033565b60405180910390fd5b5f61100b6135a8565b90506110238b30848c61101e919061533d565b6130f1565b5f82148061105c57505f73ffffffffffffffffffffffffffffffffffffffff168173ffffffffffffffffffffffffffffffffffffffff16145b1561107b576110768b838b611071919061533d565b6135ac565b611091565b6110858b8a6135ac565b6110908b8284613184565b5b60019550505050505095945050505050565b5f3073ffffffffffffffffffffffffffffffffffffffff168273ffffffffffffffffffffffffffffffffffffffff16146110dd575f611111565b6110e5610d33565b7fffffffffffffffffffffffffffffffffffffffffffffffffffffffffffffffff6111109190615226565b5b9050919050565b5f3073ffffffffffffffffffffffffffffffffffffffff166370a0823161113d610b5a565b6040518263ffffffff1660e01b81526004016111599190615033565b602060405180830381865afa158015611174573d5f803e3d5ffd5b505050506040513d601f19601f820116820180604052508101906111989190615384565b905090565b5f805f8373ffffffffffffffffffffffffffffffffffffffff1673ffffffffffffffffffffffffffffffffffffffff1681526020019081526020015f20549050919050565b60115f9054906101000a900473ffffffffffffffffffffffffffffffffffffffff1673ffffffffffffffffffffffffffffffffffffffff163373ffffffffffffffffffffffffffffffffffffffff1614611271576040517f08c379a0000000000000000000000000000000000000000000000000000000008152600401611268906151db565b60405180910390fd5b61127961362b565b565b60115f9054906101000a900473ffffffffffffffffffffffffffffffffffffffff1673ffffffffffffffffffffffffffffffffffffffff163373ffffffffffffffffffffffffffffffffffffffff161461130a576040517f08c379a0000000000000000000000000000000000000000000000000000000008152600401611301906151db565b60405180910390fd5b6005811015801561131c575060328111155b61135b576040517f08c379a0000000000000000000000000000000000000000000000000000000008152600401611352906153f9565b60405180910390fd5b5f60095f015490508160095f01819055507f4b0d3912774c216d30c00b6c9f371801c6f52015168a3ad6d2fc21929ce939f8818360405161139d929190615417565b60405180910390a15050565b5f6113b4838361368d565b6113be8383613772565b5f60065f8573ffffffffffffffffffffffffffffffffffffffff1673ffffffffffffffffffffffffffffffffffffffff1681526020019081526020015f205f8481526020019081526020015f205f015f9054906101000a900473ffffffffffffffffffffffffffffffffffffffff1690505f60065f8673ffffffffffffffffffffffffffffffffffffffff1673ffffffffffffffffffffffffffffffffffffffff1681526020019081526020015f205f8581526020019081526020015f2060010154905060065f8673ffffffffffffffffffffffffffffffffffffffff1673ffffffffffffffffffffffffffffffffffffffff1681526020019081526020015f205f8581526020019081526020015f205f8082015f6101000a81549073ffffffffffffffffffffffffffffffffffffffff0219169055600182015f905550508473ffffffffffffffffffffffffffffffffffffffff166342842e0e3033876040518463ffffffff1660e01b815260040161153a9392919061543e565b5f604051808303815f87803b158015611551575f80fd5b505af1158015611563573d5f803e3d5ffd5b505050505f611575868685853461385b565b9050813411156115955761159433833461158f9190615226565b61394b565b5b3373ffffffffffffffffffffffffffffffffffffffff16858773ffffffffffffffffffffffffffffffffffffffff167f46eeb8df5d9354a8032630f20d4fa53dcf40cf7cf9c1285fec36eac468ffb53785876040516115f5929190615473565b60405180910390a480935050505092915050565b60115f9054906101000a900473ffffffffffffffffffffffffffffffffffffffff1673ffffffffffffffffffffffffffffffffffffffff163373ffffffffffffffffffffffffffffffffffffffff1614611698576040517f08c379a000000000000000000000000000000000000000000000000000000000815260040161168f906151db565b60405180910390fd5b5f73ffffffffffffffffffffffffffffffffffffffff168173ffffffffffffffffffffffffffffffffffffffff1603611706576040517f08c379a00000000000000000000000000000000000000000000000000000000081526004016116fd906154e4565b60405180910390fd5b8060115f6101000a81548173ffffffffffffffffffffffffffffffffffffffff021916908373ffffffffffffffffffffffffffffffffffffffff16021790555050565b5f8073ffffffffffffffffffffffffffffffffffffffff168273ffffffffffffffffffffffffffffffffffffffff16036117b8576040517f08c379a00000000000000000000000000000000000000000000000000000000081526004016117af90615096565b60405180910390fd5b5f6117c584600134613a01565b90508034101561180e5734816040517fe2a993dc000000000000000000000000000000000000000000000000000000008152600401611805929190615417565b60405180910390fd5b611819838286613021565b8034111561187857611829610b5a565b73ffffffffffffffffffffffffffffffffffffffff166108fc823461184e9190615226565b90811502906040515f60405180830381858888f19350505050158015611876573d5f803e3d5ffd5b505b8091505092915050565b606060048054611891906150e1565b80601f01602080910402602001604051908101604052809291908181526020018280546118bd906150e1565b80156119085780601f106118df57610100808354040283529160200191611908565b820191905f5260205f20905b8154815290600101906020018083116118eb57829003601f168201915b5050505050905090565b6010602052805f5260405f205f915090505481565b60115f9054906101000a900473ffffffffffffffffffffffffffffffffffffffff1673ffffffffffffffffffffffffffffffffffffffff163373ffffffffffffffffffffffffffffffffffffffff16146119b6576040517f08c379a00000000000000000000000000000000000000000000000000000000081526004016119ad906151db565b60405180910390fd5b600281101580156119c85750601e8111155b611a07576040517f08c379a00000000000000000000000000000000000000000000000000000000081526004016119fe9061554c565b60405180910390fd5b5f6009600201549050816009600201819055507f7ce0d8b21a288d3ba8f33f944e596d1488d12039e2d3db592c2eac65160899068183604051611a4b929190615417565b60405180910390a15050565b5f80611a61610b5a565b9050611a6e818585613184565b600191505092915050565b60115f9054906101000a900473ffffffffffffffffffffffffffffffffffffffff1673ffffffffffffffffffffffffffffffffffffffff163373ffffffffffffffffffffffffffffffffffffffff1614611b08576040517f08c379a0000000000000000000000000000000000000000000000000000000008152600401611aff906151db565b60405180910390fd5b60105f8373ffffffffffffffffffffffffffffffffffffffff1673ffffffffffffffffffffffffffffffffffffffff1681526020019081526020015f20548111611b87576040517f08c379a0000000000000000000000000000000000000000000000000000000008152600401611b7e906155b4565b60405180910390fd5b8060105f8473ffffffffffffffffffffffffffffffffffffffff1673ffffffffffffffffffffffffffffffffffffffff1681526020019081526020015f20819055505050565b5f611bda8260015f613a01565b9050919050565b5f8073ffffffffffffffffffffffffffffffffffffffff168373ffffffffffffffffffffffffffffffffffffffff1603611c50576040517f08c379a0000000000000000000000000000000000000000000000000000000008152600401611c4790615096565b60405180910390fd5b5f73ffffffffffffffffffffffffffffffffffffffff168273ffffffffffffffffffffffffffffffffffffffff1603611cbe576040517f08c379a0000000000000000000000000000000000000000000000000000000008152600401611cb59061561c565b60405180910390fd5b5f80611cc9866130b0565b915091505f611ce382600189611cdd610b5a565b89613a65565b9050611d04611cf0610b5a565b8787848b611cfe919061533d565b87613cb1565b8293505050509392505050565b60075481565b60115f9054906101000a900473ffffffffffffffffffffffffffffffffffffffff1673ffffffffffffffffffffffffffffffffffffffff163373ffffffffffffffffffffffffffffffffffffffff1614611da6576040517f08c379a0000000000000000000000000000000000000000000000000000000008152600401611d9d906151db565b60405180910390fd5b5f73ffffffffffffffffffffffffffffffffffffffff168173ffffffffffffffffffffffffffffffffffffffff1603611e14576040517f08c379a0000000000000000000000000000000000000000000000000000000008152600401611e0b90615684565b60405180910390fd5b8073ffffffffffffffffffffffffffffffffffffffff163073ffffffffffffffffffffffffffffffffffffffff1603611e82576040517f08c379a0000000000000000000000000000000000000000000000000000000008152600401611e7990615684565b60405180910390fd5b60085f8273ffffffffffffffffffffffffffffffffffffffff1673ffffffffffffffffffffffffffffffffffffffff1681526020019081526020015f205f9054906101000a900460ff1615611f0c576040517f08c379a0000000000000000000000000000000000000000000000000000000008152600401611f03906156ec565b60405180910390fd5b8073ffffffffffffffffffffffffffffffffffffffff166301ffc9a77f80ac58cd000000000000000000000000000000000000000000000000000000006040518263ffffffff1660e01b8152600401611f659190614bf7565b602060405180830381865afa158015611f80573d5f803e3d5ffd5b505050506040513d601f19601f82011682018060405250810190611fa49190615734565b611fe3576040517f08c379a0000000000000000000000000000000000000000000000000000000008152600401611fda906157a9565b60405180910390fd5b600160085f8373ffffffffffffffffffffffffffffffffffffffff1673ffffffffffffffffffffffffffffffffffffffff1681526020019081526020015f205f6101000a81548160ff0219169083151502179055508073ffffffffffffffffffffffffffffffffffffffff167f37fb5467cdf7dcb833b3c07d10482c6019526966533fc80293b05cd19ea55a6860405160405180910390a250565b5f8073ffffffffffffffffffffffffffffffffffffffff168373ffffffffffffffffffffffffffffffffffffffff16036120ed576040517f08c379a00000000000000000000000000000000000000000000000000000000081526004016120e490615096565b60405180910390fd5b5f73ffffffffffffffffffffffffffffffffffffffff168273ffffffffffffffffffffffffffffffffffffffff160361215b576040517f08c379a00000000000000000000000000000000000000000000000000000000081526004016121529061561c565b60405180910390fd5b5f80612166866132d5565b915091505f6121808260018561217a610b5a565b89613a65565b90506121a161218d610b5a565b8787848761219b919061533d565b8b613cb1565b8293505050509392505050565b82823373ffffffffffffffffffffffffffffffffffffffff1660065f8473ffffffffffffffffffffffffffffffffffffffff1673ffffffffffffffffffffffffffffffffffffffff1681526020019081526020015f205f8381526020019081526020015f205f015f9054906101000a900473ffffffffffffffffffffffffffffffffffffffff1673ffffffffffffffffffffffffffffffffffffffff161461228b576040517f08c379a0000000000000000000000000000000000000000000000000000000008152600401612282906151db565b60405180910390fd5b612295858561368d565b5f60065f8773ffffffffffffffffffffffffffffffffffffffff1673ffffffffffffffffffffffffffffffffffffffff1681526020019081526020015f205f8681526020019081526020015f206001015490508360065f8873ffffffffffffffffffffffffffffffffffffffff1673ffffffffffffffffffffffffffffffffffffffff1681526020019081526020015f205f8781526020019081526020015f2060010181905550848673ffffffffffffffffffffffffffffffffffffffff167f6977a36edc91fb22b7bc2d5d47822f29aee4197ea453342ae1e855faf2de067f8387604051612385929190615417565b60405180910390a3505050505050565b5f60105f8373ffffffffffffffffffffffffffffffffffffffff1673ffffffffffffffffffffffffffffffffffffffff1681526020019081526020015f20549050919050565b5f3073ffffffffffffffffffffffffffffffffffffffff166370a08231836040518263ffffffff1660e01b81526004016124159190615033565b602060405180830381865afa158015612430573d5f803e3d5ffd5b505050506040513d601f19601f820116820180604052508101906124549190615384565b9050919050565b5f3073ffffffffffffffffffffffffffffffffffffffff168373ffffffffffffffffffffffffffffffffffffffff16146124cc57826040517fb5a7db920000000000000000000000000000000000000000000000000000000081526004016124c39190615033565b60405180910390fd5b6124d68383613d89565b905092915050565b5f805f6124eb858561368d565b60065f8673ffffffffffffffffffffffffffffffffffffffff1673ffffffffffffffffffffffffffffffffffffffff1681526020019081526020015f205f8581526020019081526020015f205f015f9054906101000a900473ffffffffffffffffffffffffffffffffffffffff16925060065f8673ffffffffffffffffffffffffffffffffffffffff1673ffffffffffffffffffffffffffffffffffffffff1681526020019081526020015f205f8581526020019081526020015f206001015491506125b682612c83565b90509250925092565b5f60015f8473ffffffffffffffffffffffffffffffffffffffff1673ffffffffffffffffffffffffffffffffffffffff1681526020019081526020015f205f8373ffffffffffffffffffffffffffffffffffffffff1673ffffffffffffffffffffffffffffffffffffffff1681526020019081526020015f2054905092915050565b60115f9054906101000a900473ffffffffffffffffffffffffffffffffffffffff1673ffffffffffffffffffffffffffffffffffffffff163373ffffffffffffffffffffffffffffffffffffffff16146126d0576040517f08c379a00000000000000000000000000000000000000000000000000000000081526004016126c7906151db565b60405180910390fd5b5f73ffffffffffffffffffffffffffffffffffffffff168173ffffffffffffffffffffffffffffffffffffffff160361273e576040517f08c379a000000000000000000000000000000000000000000000000000000000815260040161273590615811565b60405180910390fd5b60085f8273ffffffffffffffffffffffffffffffffffffffff1673ffffffffffffffffffffffffffffffffffffffff1681526020019081526020015f205f6101000a81549060ff02191690558073ffffffffffffffffffffffffffffffffffffffff167f13d42f38aa17fe3792989c026a1b89b975ee252624a7d09716c1c7d5535fe94560405160405180910390a250565b5f8390506127dd81613db1565b6127e78484613e3f565b3360065f8373ffffffffffffffffffffffffffffffffffffffff1673ffffffffffffffffffffffffffffffffffffffff1681526020019081526020015f205f8581526020019081526020015f205f015f6101000a81548173ffffffffffffffffffffffffffffffffffffffff021916908373ffffffffffffffffffffffffffffffffffffffff1602179055508160065f8373ffffffffffffffffffffffffffffffffffffffff1673ffffffffffffffffffffffffffffffffffffffff1681526020019081526020015f205f8581526020019081526020015f20600101819055506128d18484613fdd565b3373ffffffffffffffffffffffffffffffffffffffff16838273ffffffffffffffffffffffffffffffffffffffff167f327e4f2fe0fa4f636fd95d07093f24ea69103f710f4b0a70505a5374e542e6e260405160405180910390a450505050565b60115f9054906101000a900473ffffffffffffffffffffffffffffffffffffffff1673ffffffffffffffffffffffffffffffffffffffff163373ffffffffffffffffffffffffffffffffffffffff16146129c1576040517f08c379a00000000000000000000000000000000000000000000000000000000081526004016129b8906151db565b60405180910390fd5b600181101580156129d35750600a8111155b612a12576040517f08c379a0000000000000000000000000000000000000000000000000000000008152600401612a0990615879565b60405180910390fd5b5f6009600401549050816009600401819055507f7ce0d8b21a288d3ba8f33f944e596d1488d12039e2d3db592c2eac65160899068183604051612a56929190615417565b60405180910390a15050565b81813373ffffffffffffffffffffffffffffffffffffffff1660065f8473ffffffffffffffffffffffffffffffffffffffff1673ffffffffffffffffffffffffffffffffffffffff1681526020019081526020015f205f8381526020019081526020015f205f015f9054906101000a900473ffffffffffffffffffffffffffffffffffffffff1673ffffffffffffffffffffffffffffffffffffffff1614612b3f576040517f08c379a0000000000000000000000000000000000000000000000000000000008152600401612b36906151db565b60405180910390fd5b612b49848461368d565b60065f8573ffffffffffffffffffffffffffffffffffffffff1673ffffffffffffffffffffffffffffffffffffffff1681526020019081526020015f205f8481526020019081526020015f205f8082015f6101000a81549073ffffffffffffffffffffffffffffffffffffffff0219169055600182015f905550508373ffffffffffffffffffffffffffffffffffffffff166342842e0e3033866040518463ffffffff1660e01b8152600401612c019392919061543e565b5f604051808303815f87803b158015612c18575f80fd5b505af1158015612c2a573d5f803e3d5ffd5b50505050828473ffffffffffffffffffffffffffffffffffffffff167f0f777b524526fde47d5911abc6e9b4629a69601c442b413d5145089ea06d5d3633604051612c759190615033565b60405180910390a350505050565b5f612c8f825f80612fbd565b9050919050565b60115f9054906101000a900473ffffffffffffffffffffffffffffffffffffffff1681565b5f612cc6838361368d565b5f60065f8573ffffffffffffffffffffffffffffffffffffffff1673ffffffffffffffffffffffffffffffffffffffff1681526020019081526020015f205f8481526020019081526020015f205f015f9054906101000a900473ffffffffffffffffffffffffffffffffffffffff1690505f60065f8673ffffffffffffffffffffffffffffffffffffffff1673ffffffffffffffffffffffffffffffffffffffff1681526020019081526020015f205f8581526020019081526020015f206001015490505f612d9482612c83565b905080612da03361119d565b1015612de1576040517f08c379a0000000000000000000000000000000000000000000000000000000008152600401612dd8906158e1565b60405180910390fd5b60065f8773ffffffffffffffffffffffffffffffffffffffff1673ffffffffffffffffffffffffffffffffffffffff1681526020019081526020015f205f8681526020019081526020015f205f8082015f6101000a81549073ffffffffffffffffffffffffffffffffffffffff0219169055600182015f905550508573ffffffffffffffffffffffffffffffffffffffff166342842e0e3033886040518463ffffffff1660e01b8152600401612e999392919061543e565b5f604051808303815f87803b158015612eb0575f80fd5b505af1158015612ec2573d5f803e3d5ffd5b505050505f612ee460095f01546103e85f866140f6909392919063ffffffff16565b90505f612ef082612c83565b90505f612f07825f86612f01610b5a565b8a61331a565b90505f8183612f169190615226565b9050612f2233826135ac565b5f8186612f2f9190615226565b9050612f3c338983613184565b3373ffffffffffffffffffffffffffffffffffffffff168a8c73ffffffffffffffffffffffffffffffffffffffff167ff9bea84bba698d2fffa1f9a98701f95a0397c282f5f560d02ebae89b30287df58a8c8b8a8a89604051612fa4969594939291906158ff565b60405180910390a4859850505050505050505092915050565b5f613018612fc9614143565b600a612fd59190615a8d565b612fdd610d33565b612fe7919061533d565b836001612ff2610bff565b612ffc919061533d565b6130069190615226565b85876140f6909392919063ffffffff16565b90509392505050565b61302b8382613529565b8273ffffffffffffffffffffffffffffffffffffffff1661304a610b5a565b73ffffffffffffffffffffffffffffffffffffffff167fdcbc1c05240f31ff3ad067ef1ee35ce4997762752e3a095284754544f4c709d78484604051613091929190615417565b60405180910390a3505050565b6130ab8383836001614147565b505050565b5f806130d16009600201546103e86001866140f6909392919063ffffffff16565b90506130ea81846130e29190615226565b60015f612fbd565b9150915091565b5f6130fc84846125bf565b90507fffffffffffffffffffffffffffffffffffffffffffffffffffffffffffffffff81101561317e578181101561316f578281836040517ffb8f41b200000000000000000000000000000000000000000000000000000000815260040161316693929190614f35565b60405180910390fd5b61317d84848484035f614147565b5b50505050565b5f73ffffffffffffffffffffffffffffffffffffffff168373ffffffffffffffffffffffffffffffffffffffff16036131f4575f6040517f96c6fd1e0000000000000000000000000000000000000000000000000000000081526004016131eb9190615033565b60405180910390fd5b5f73ffffffffffffffffffffffffffffffffffffffff168273ffffffffffffffffffffffffffffffffffffffff1603613264575f6040517fec442f0500000000000000000000000000000000000000000000000000000000815260040161325b9190615033565b60405180910390fd5b61326f838383614316565b505050565b61327c61432e565b5f60055f6101000a81548160ff0219169083151502179055507f5db9ee0a495bf2e6ff9c91a7834c1ba4fdd244a5e8aa4e537bd38aeae4b073aa6132be610b5a565b6040516132cb9190615033565b60405180910390a1565b5f805f6132e3845f80613a01565b90506133046009600201546103e86001846140f6909392919063ffffffff16565b915081816133129190615226565b925050915091565b5f8061332587611bcd565b90505f80613333858461436e565b915091505f600281111561334a57613349615ad7565b5b88600281111561335d5761335c615ad7565b5b0361339d578160096001015f828254613376919061533d565b925050819055508060096006015f828254613391919061533d565b9250508190555061343f565b6002808111156133b0576133af615ad7565b5b8860028111156133c3576133c2615ad7565b5b03613403578160096005015f8282546133dc919061533d565b925050819055508060096006015f8282546133f7919061533d565b9250508190555061343e565b6040517f08c379a000000000000000000000000000000000000000000000000000000000815260040161343590615b4e565b60405180910390fd5b5b82811115613482576040517f08c379a000000000000000000000000000000000000000000000000000000000815260040161347990615bb6565b60405180910390fd5b8473ffffffffffffffffffffffffffffffffffffffff168673ffffffffffffffffffffffffffffffffffffffff168960028111156134c3576134c2615ad7565b5b7f6d3f8c1b954db6e4918d1a09aaee7c931d63b075f42a2c99849af15a31ebc6c48c8b6134ee610d33565b6134f6610bff565b898960405161350a96959493929190615bd4565b60405180910390a461351b81612c83565b935050505095945050505050565b5f73ffffffffffffffffffffffffffffffffffffffff168273ffffffffffffffffffffffffffffffffffffffff1603613599575f6040517fec442f050000000000000000000000000000000000000000000000000000000081526004016135909190615033565b60405180910390fd5b6135a45f8383614316565b5050565b5f90565b5f73ffffffffffffffffffffffffffffffffffffffff168273ffffffffffffffffffffffffffffffffffffffff160361361c575f6040517f96c6fd1e0000000000000000000000000000000000000000000000000000000081526004016136139190615033565b60405180910390fd5b613627825f83614316565b5050565b61363361447e565b600160055f6101000a81548160ff0219169083151502179055507f62e78cea01bee320cd4e420270b5ea74000d11b0c9f74754ebdbfc544b05a258613676610b5a565b6040516136839190615033565b60405180910390a1565b5f73ffffffffffffffffffffffffffffffffffffffff1660065f8473ffffffffffffffffffffffffffffffffffffffff1673ffffffffffffffffffffffffffffffffffffffff1681526020019081526020015f205f8381526020019081526020015f205f015f9054906101000a900473ffffffffffffffffffffffffffffffffffffffff1673ffffffffffffffffffffffffffffffffffffffff160361376e578181336040517f374862d000000000000000000000000000000000000000000000000000000000815260040161376593929190615c33565b60405180910390fd5b5050565b3460065f8473ffffffffffffffffffffffffffffffffffffffff1673ffffffffffffffffffffffffffffffffffffffff1681526020019081526020015f205f8381526020019081526020015f206001015411156138575760065f8373ffffffffffffffffffffffffffffffffffffffff1673ffffffffffffffffffffffffffffffffffffffff1681526020019081526020015f205f8281526020019081526020015f2060010154346040517f7678bc2a00000000000000000000000000000000000000000000000000000000815260040161384e929190615417565b60405180910390fd5b5050565b5f8061387b60095f01546103e86001876140f6909392919063ffffffff16565b90505f613892825f8761388c610b5a565b8a613a65565b90505f8183876138a29190615226565b6138ac919061533d565b90505f8082146138cf576138c1825f88612fbd565b90506138ce888383613021565b5b8773ffffffffffffffffffffffffffffffffffffffff16898b73ffffffffffffffffffffffffffffffffffffffff167f9b3601ab2a615b4d66e41f4b99f6ba2669457b2eed89a33dbf99ca482950c61f8a8888876040516139339493929190615c68565b60405180910390a48094505050505095945050505050565b5f808373ffffffffffffffffffffffffffffffffffffffff168360405161397190615cd8565b5f6040518083038185875af1925050503d805f81146139ab576040519150601f19603f3d011682016040523d82523d5f602084013e6139b0565b606091505b5091509150816139fb578383826040517f5af922f70000000000000000000000000000000000000000000000000000000081526004016139f293929190615cec565b60405180910390fd5b50505050565b5f613a5c826001613a10610bff565b613a1a919061533d565b613a249190615226565b613a2c614143565b600a613a389190615a8d565b613a40610d33565b613a4a919061533d565b85876140f6909392919063ffffffff16565b90509392505050565b5f805f613a72848961436e565b915091505f6002811115613a8957613a88615ad7565b5b876002811115613a9c57613a9b615ad7565b5b03613adc578160096001015f828254613ab5919061533d565b925050819055508060096006015f828254613ad0919061533d565b92505081905550613be6565b60016002811115613af057613aef615ad7565b5b876002811115613b0357613b02615ad7565b5b03613b43578160096003015f828254613b1c919061533d565b925050819055508060096006015f828254613b37919061533d565b92505081905550613be5565b600280811115613b5657613b55615ad7565b5b876002811115613b6957613b68615ad7565b5b03613ba9578160096005015f828254613b82919061533d565b925050819055508060096006015f828254613b9d919061533d565b92505081905550613be4565b6040517f08c379a0000000000000000000000000000000000000000000000000000000008152600401613bdb90615d72565b60405180910390fd5b5b5b85811115613c29576040517f08c379a0000000000000000000000000000000000000000000000000000000008152600401613c2090615bb6565b60405180910390fd5b8373ffffffffffffffffffffffffffffffffffffffff168573ffffffffffffffffffffffffffffffffffffffff16886002811115613c6a57613c69615ad7565b5b7f80492185d7aaeb7ef59717729d4cb21708f7ee8ad23e0aa820742dc55400065c8b8a604051613c9b929190615417565b60405180910390a4809250505095945050505050565b8273ffffffffffffffffffffffffffffffffffffffff168573ffffffffffffffffffffffffffffffffffffffff1614613cf057613cef8386836130f1565b5b613cfa83826135ac565b613d04848361394b565b8273ffffffffffffffffffffffffffffffffffffffff168473ffffffffffffffffffffffffffffffffffffffff168673ffffffffffffffffffffffffffffffffffffffff167ffbde797d201c681b91056529119e0b02407c7bb96a4a2c75c01fc9667232c8db8585604051613d7a929190615417565b60405180910390a45050505050565b5f613da96009600401546127106001856140f6909392919063ffffffff16565b905092915050565b60085f8273ffffffffffffffffffffffffffffffffffffffff1673ffffffffffffffffffffffffffffffffffffffff1681526020019081526020015f205f9054906101000a900460ff16613e3c57806040517fbf16aab6000000000000000000000000000000000000000000000000000000008152600401613e339190615033565b60405180910390fd5b50565b3073ffffffffffffffffffffffffffffffffffffffff168273ffffffffffffffffffffffffffffffffffffffff16636352211e836040518263ffffffff1660e01b8152600401613e8f9190614837565b602060405180830381865afa158015613eaa573d5f803e3d5ffd5b505050506040513d601f19601f82011682018060405250810190613ece9190615da4565b73ffffffffffffffffffffffffffffffffffffffff1614158015613f9557503073ffffffffffffffffffffffffffffffffffffffff168273ffffffffffffffffffffffffffffffffffffffff1663081812fc836040518263ffffffff1660e01b8152600401613f3d9190614837565b602060405180830381865afa158015613f58573d5f803e3d5ffd5b505050506040513d601f19601f82011682018060405250810190613f7c9190615da4565b73ffffffffffffffffffffffffffffffffffffffff1614155b15613fd95781816040517f242d56f1000000000000000000000000000000000000000000000000000000008152600401613fd0929190615dcf565b60405180910390fd5b5050565b3073ffffffffffffffffffffffffffffffffffffffff168273ffffffffffffffffffffffffffffffffffffffff16636352211e836040518263ffffffff1660e01b815260040161402d9190614837565b602060405180830381865afa158015614048573d5f803e3d5ffd5b505050506040513d601f19601f8201168201806040525081019061406c9190615da4565b73ffffffffffffffffffffffffffffffffffffffff16146140f2578173ffffffffffffffffffffffffffffffffffffffff166342842e0e3330846040518463ffffffff1660e01b81526004016140c49392919061543e565b5f604051808303815f87803b1580156140db575f80fd5b505af11580156140ed573d5f803e3d5ffd5b505050505b5050565b5f614124614103836144bf565b801561411f57505f848061411a57614119615df6565b5b868809115b6144ec565b61412f8686866144f7565b614139919061533d565b9050949350505050565b5f90565b5f73ffffffffffffffffffffffffffffffffffffffff168473ffffffffffffffffffffffffffffffffffffffff16036141b7575f6040517fe602df050000000000000000000000000000000000000000000000000000000081526004016141ae9190615033565b60405180910390fd5b5f73ffffffffffffffffffffffffffffffffffffffff168373ffffffffffffffffffffffffffffffffffffffff1603614227575f6040517f94280d6200000000000000000000000000000000000000000000000000000000815260040161421e9190615033565b60405180910390fd5b8160015f8673ffffffffffffffffffffffffffffffffffffffff1673ffffffffffffffffffffffffffffffffffffffff1681526020019081526020015f205f8573ffffffffffffffffffffffffffffffffffffffff1673ffffffffffffffffffffffffffffffffffffffff1681526020019081526020015f20819055508015614310578273ffffffffffffffffffffffffffffffffffffffff168473ffffffffffffffffffffffffffffffffffffffff167f8c5be1e5ebec7d5bd14f71427d1e84f3dd0314c0f7b2291e5b200ac8c7c3b925846040516143079190614837565b60405180910390a35b50505050565b61431e61447e565b6143298383836145dc565b505050565b614336610e69565b61436c576040517f8dfc202b00000000000000000000000000000000000000000000000000000000815260040160405180910390fd5b565b5f805f60105f8673ffffffffffffffffffffffffffffffffffffffff1673ffffffffffffffffffffffffffffffffffffffff1681526020019081526020015f205490505f81036143c3578392505f9150614476565b83811115614423575f925083915083816143dd9190615226565b60105f8773ffffffffffffffffffffffffffffffffffffffff1673ffffffffffffffffffffffffffffffffffffffff1681526020019081526020015f2081905550614475565b808461442f9190615226565b925080915060105f8673ffffffffffffffffffffffffffffffffffffffff1673ffffffffffffffffffffffffffffffffffffffff1681526020019081526020015f205f90555b5b509250929050565b614486610e69565b156144bd576040517fd93c066500000000000000000000000000000000000000000000000000000000815260040160405180910390fd5b565b5f600160028360038111156144d7576144d6615ad7565b5b6144e19190615e23565b60ff16149050919050565b5f8115159050919050565b5f8083850290505f8019858709828110838203039150505f810361452f5783828161452557614524615df6565b5b04925050506145d5565b80841161454e5761454d6145485f8614601260116147f5565b61480e565b5b5f8486880990508281118203915080830392505f855f038616905080860495508084049350600181825f0304019050808302841793505f600287600302189050808702600203810290508087026002038102905080870260020381029050808702600203810290508087026002038102905080870260020381029050808502955050505050505b9392505050565b5f73ffffffffffffffffffffffffffffffffffffffff168373ffffffffffffffffffffffffffffffffffffffff160361462c578060025f828254614620919061533d565b925050819055506146fa565b5f805f8573ffffffffffffffffffffffffffffffffffffffff1673ffffffffffffffffffffffffffffffffffffffff1681526020019081526020015f20549050818110156146b5578381836040517fe450d38c0000000000000000000000000000000000000000000000000000000081526004016146ac93929190614f35565b60405180910390fd5b8181035f808673ffffffffffffffffffffffffffffffffffffffff1673ffffffffffffffffffffffffffffffffffffffff1681526020019081526020015f2081905550505b5f73ffffffffffffffffffffffffffffffffffffffff168273ffffffffffffffffffffffffffffffffffffffff1603614741578060025f828254039250508190555061478b565b805f808473ffffffffffffffffffffffffffffffffffffffff1673ffffffffffffffffffffffffffffffffffffffff1681526020019081526020015f205f82825401925050819055505b8173ffffffffffffffffffffffffffffffffffffffff168373ffffffffffffffffffffffffffffffffffffffff167fddf252ad1be2c89b69c2b068fc378daa952ba7f163c4a11628f55a4df523b3ef836040516147e89190614837565b60405180910390a3505050565b5f6147ff846144ec565b82841802821890509392505050565b634e487b715f52806020526024601cfd5b5f819050919050565b6148318161481f565b82525050565b5f60208201905061484a5f830184614828565b92915050565b5f81519050919050565b5f82825260208201905092915050565b8281835e5f83830152505050565b5f601f19601f8301169050919050565b5f61489282614850565b61489c818561485a565b93506148ac81856020860161486a565b6148b581614878565b840191505092915050565b5f6020820190508181035f8301526148d88184614888565b905092915050565b5f604051905090565b5f80fd5b5f80fd5b5f73ffffffffffffffffffffffffffffffffffffffff82169050919050565b5f61491a826148f1565b9050919050565b61492a81614910565b8114614934575f80fd5b50565b5f8135905061494581614921565b92915050565b6149548161481f565b811461495e575f80fd5b50565b5f8135905061496f8161494b565b92915050565b5f806040838503121561498b5761498a6148e9565b5b5f61499885828601614937565b92505060206149a985828601614961565b9150509250929050565b5f8115159050919050565b6149c7816149b3565b82525050565b5f6020820190506149e05f8301846149be565b92915050565b5f602082840312156149fb576149fa6148e9565b5b5f614a0884828501614961565b91505092915050565b5f80fd5b5f80fd5b7f4e487b71000000000000000000000000000000000000000000000000000000005f52604160045260245ffd5b614a4f82614878565b810181811067ffffffffffffffff82111715614a6e57614a6d614a19565b5b80604052505050565b5f614a806148e0565b9050614a8c8282614a46565b919050565b5f67ffffffffffffffff821115614aab57614aaa614a19565b5b614ab482614878565b9050602081019050919050565b828183375f83830152505050565b5f614ae1614adc84614a91565b614a77565b905082815260208101848484011115614afd57614afc614a15565b5b614b08848285614ac1565b509392505050565b5f82601f830112614b2457614b23614a11565b5b8135614b34848260208601614acf565b91505092915050565b5f805f8060808587031215614b5557614b546148e9565b5b5f614b6287828801614937565b9450506020614b7387828801614937565b9350506040614b8487828801614961565b925050606085013567ffffffffffffffff811115614ba557614ba46148ed565b5b614bb187828801614b10565b91505092959194509250565b5f7fffffffff0000000000000000000000000000000000000000000000000000000082169050919050565b614bf181614bbd565b82525050565b5f602082019050614c0a5f830184614be8565b92915050565b5f805f60608486031215614c2757614c266148e9565b5b5f614c3486828701614937565b9350506020614c4586828701614937565b9250506040614c5686828701614961565b9150509250925092565b5f60e082019050614c735f83018a614828565b614c806020830189614828565b614c8d6040830188614828565b614c9a6060830187614828565b614ca76080830186614828565b614cb460a0830185614828565b614cc160c0830184614828565b98975050505050505050565b5f60ff82169050919050565b614ce281614ccd565b82525050565b5f602082019050614cfb5f830184614cd9565b92915050565b5f614d0b82614910565b9050919050565b614d1b81614d01565b8114614d25575f80fd5b50565b5f81359050614d3681614d12565b92915050565b5f80fd5b5f80fd5b5f8083601f840112614d5957614d58614a11565b5b8235905067ffffffffffffffff811115614d7657614d75614d3c565b5b602083019150836001820283011115614d9257614d91614d40565b5b9250929050565b5f805f805f60808688031215614db257614db16148e9565b5b5f614dbf88828901614d28565b9550506020614dd088828901614937565b9450506040614de188828901614961565b935050606086013567ffffffffffffffff811115614e0257614e016148ed565b5b614e0e88828901614d44565b92509250509295509295909350565b5f60208284031215614e3257614e316148e9565b5b5f614e3f84828501614937565b91505092915050565b5f8060408385031215614e5e57614e5d6148e9565b5b5f614e6b85828601614961565b9250506020614e7c85828601614937565b9150509250929050565b5f805f60608486031215614e9d57614e9c6148e9565b5b5f614eaa86828701614961565b9350506020614ebb86828701614937565b9250506040614ecc86828701614937565b9150509250925092565b5f805f60608486031215614eed57614eec6148e9565b5b5f614efa86828701614937565b9350506020614f0b86828701614961565b9250506040614f1c86828701614961565b9150509250925092565b614f2f81614910565b82525050565b5f606082019050614f485f830186614f26565b614f556020830185614828565b614f626040830184614828565b949350505050565b5f8060408385031215614f8057614f7f6148e9565b5b5f614f8d85828601614937565b9250506020614f9e85828601614937565b9150509250929050565b5f614fb282614910565b9050919050565b614fc281614fa8565b8114614fcc575f80fd5b50565b5f81359050614fdd81614fb9565b92915050565b5f805f60608486031215614ffa57614ff96148e9565b5b5f61500786828701614fcf565b935050602061501886828701614961565b925050604061502986828701614961565b9150509250925092565b5f6020820190506150465f830184614f26565b92915050565b7f696e76616c6964207265636569766572000000000000000000000000000000005f82015250565b5f61508060108361485a565b915061508b8261504c565b602082019050919050565b5f6020820190508181035f8301526150ad81615074565b9050919050565b7f4e487b71000000000000000000000000000000000000000000000000000000005f52602260045260245ffd5b5f60028204905060018216806150f857607f821691505b60208210810361510b5761510a6150b4565b5b50919050565b5f81519050919050565b5f82825260208201905092915050565b5f61513582615111565b61513f818561511b565b935061514f81856020860161486a565b61515881614878565b840191505092915050565b5f6040820190506151765f830185614f26565b8181036020830152615188818461512b565b90509392505050565b7f6e6f7420617574686f72697a65640000000000000000000000000000000000005f82015250565b5f6151c5600e8361485a565b91506151d082615191565b602082019050919050565b5f6020820190508181035f8301526151f2816151b9565b9050919050565b7f4e487b71000000000000000000000000000000000000000000000000000000005f52601160045260245ffd5b5f6152308261481f565b915061523b8361481f565b9250828203905081811115615253576152526151f9565b5b92915050565b5f615264838561511b565b9350615271838584614ac1565b61527a83614878565b840190509392505050565b5f60a0820190506152985f830189614f26565b6152a56020830188614f26565b6152b26040830187614828565b6152bf6060830186614828565b81810360808301526152d2818486615259565b9050979650505050505050565b5f819050919050565b6152f1816152df565b81146152fb575f80fd5b50565b5f8151905061530c816152e8565b92915050565b5f60208284031215615327576153266148e9565b5b5f615334848285016152fe565b91505092915050565b5f6153478261481f565b91506153528361481f565b925082820190508082111561536a576153696151f9565b5b92915050565b5f8151905061537e8161494b565b92915050565b5f60208284031215615399576153986148e9565b5b5f6153a684828501615370565b91505092915050565b7f696e76616c6964206e66744f72646572466565000000000000000000000000005f82015250565b5f6153e360138361485a565b91506153ee826153af565b602082019050919050565b5f6020820190508181035f830152615410816153d7565b9050919050565b5f60408201905061542a5f830185614828565b6154376020830184614828565b9392505050565b5f6060820190506154515f830186614f26565b61545e6020830185614f26565b61546b6040830184614828565b949350505050565b5f6040820190506154865f830185614828565b6154936020830184614f26565b9392505050565b7f696e76616c6964206163636f756e7400000000000000000000000000000000005f82015250565b5f6154ce600f8361485a565b91506154d98261549a565b602082019050919050565b5f6020820190508181035f8301526154fb816154c2565b9050919050565b7f696e76616c6964207769746864726177466565000000000000000000000000005f82015250565b5f61553660138361485a565b915061554182615502565b602082019050919050565b5f6020820190508181035f8301526155638161552a565b9050919050565b7f66756e6420617661696c61626c65206d757374206265206772656174657200005f82015250565b5f61559e601e8361485a565b91506155a98261556a565b602082019050919050565b5f6020820190508181035f8301526155cb81615592565b9050919050565b7f696e76616c6964206f776e6572000000000000000000000000000000000000005f82015250565b5f615606600d8361485a565b9150615611826155d2565b602082019050919050565b5f6020820190508181035f830152615633816155fa565b9050919050565b7f696e76616c6964206e66742061646472657373000000000000000000000000005f82015250565b5f61566e60138361485a565b91506156798261563a565b602082019050919050565b5f6020820190508181035f83015261569b81615662565b9050919050565b7f616c72656164792065786973747320696e2077686974656c69737400000000005f82015250565b5f6156d6601b8361485a565b91506156e1826156a2565b602082019050919050565b5f6020820190508181035f830152615703816156ca565b9050919050565b615713816149b3565b811461571d575f80fd5b50565b5f8151905061572e8161570a565b92915050565b5f60208284031215615749576157486148e9565b5b5f61575684828501615720565b91505092915050565b7f696e76616c6964206e66742074797065000000000000000000000000000000005f82015250565b5f61579360108361485a565b915061579e8261575f565b602082019050919050565b5f6020820190508181035f8301526157c081615787565b9050919050565b7f696e76616c6964206e66740000000000000000000000000000000000000000005f82015250565b5f6157fb600b8361485a565b9150615806826157c7565b602082019050919050565b5f6020820190508181035f830152615828816157ef565b9050919050565b7f696e76616c696420666c617368466565000000000000000000000000000000005f82015250565b5f61586360108361485a565b915061586e8261582f565b602082019050919050565b5f6020820190508181035f83015261589081615857565b9050919050565b7f496e73756666696369656e7420616c6c6f77616e6365000000000000000000005f82015250565b5f6158cb60168361485a565b91506158d682615897565b602082019050919050565b5f6020820190508181035f8301526158f8816158bf565b9050919050565b5f60c0820190506159125f830189614828565b61591f6020830188614f26565b61592c6040830187614828565b6159396060830186614828565b6159466080830185614828565b61595360a0830184614828565b979650505050505050565b5f8160011c9050919050565b5f808291508390505b60018511156159b35780860481111561598f5761598e6151f9565b5b600185161561599e5780820291505b80810290506159ac8561595e565b9450615973565b94509492505050565b5f826159cb5760019050615a86565b816159d8575f9050615a86565b81600181146159ee57600281146159f857615a27565b6001915050615a86565b60ff841115615a0a57615a096151f9565b5b8360020a915084821115615a2157615a206151f9565b5b50615a86565b5060208310610133831016604e8410600b8410161715615a5c5782820a905083811115615a5757615a566151f9565b5b615a86565b615a69848484600161596a565b92509050818404811115615a8057615a7f6151f9565b5b81810290505b9392505050565b5f615a978261481f565b9150615aa283614ccd565b9250615acf7fffffffffffffffffffffffffffffffffffffffffffffffffffffffffffffffff84846159bc565b905092915050565b7f4e487b71000000000000000000000000000000000000000000000000000000005f52602160045260245ffd5b7f66656553686172657320756e68616e646c6520666565207479706500000000005f82015250565b5f615b38601b8361485a565b9150615b4382615b04565b602082019050919050565b5f6020820190508181035f830152615b6581615b2c565b9050919050565b7f667265654665652063616c63206572726f7221000000000000000000000000005f82015250565b5f615ba060138361485a565b9150615bab82615b6c565b602082019050919050565b5f6020820190508181035f830152615bcd81615b94565b9050919050565b5f60c082019050615be75f830189614828565b615bf46020830188614828565b615c016040830187614828565b615c0e6060830186614828565b615c1b6080830185614828565b615c2860a0830184614828565b979650505050505050565b5f606082019050615c465f830186614f26565b615c536020830185614828565b615c606040830184614f26565b949350505050565b5f608082019050615c7b5f830187614828565b615c886020830186614828565b615c956040830185614828565b615ca26060830184614828565b95945050505050565b5f81905092915050565b50565b5f615cc35f83615cab565b9150615cce82615cb5565b5f82019050919050565b5f615ce282615cb8565b9150819050919050565b5f606082019050615cff5f830186614f26565b615d0c6020830185614828565b8181036040830152615d1e818461512b565b9050949350505050565b7f66656541737365747320756e68616e646c6520666565207479706500000000005f82015250565b5f615d5c601b8361485a565b9150615d6782615d28565b602082019050919050565b5f6020820190508181035f830152615d8981615d50565b9050919050565b5f81519050615d9e81614921565b92915050565b5f60208284031215615db957615db86148e9565b5b5f615dc684828501615d90565b91505092915050565b5f604082019050615de25f830185614f26565b615def6020830184614828565b9392505050565b7f4e487b71000000000000000000000000000000000000000000000000000000005f52601260045260245ffd5b5f615e2d82614ccd565b9150615e3883614ccd565b925082615e4857615e47615df6565b5b82820690509291505056fea2646970667358221220299aba69893a8d50b04612acee157f235b551f6c2988ae418c4d39150c4fbd6664736f6c634300081a0033",
			"opcodes": "PUSH1 0x80 PUSH1 0x40 MSTORE CALLVALUE DUP1 ISZERO PUSH2 0xF JUMPI PUSH0 DUP1 REVERT JUMPDEST POP PUSH1 0x40 MLOAD DUP1 PUSH1 0x40 ADD PUSH1 0x40 MSTORE DUP1 PUSH1 0x8 DUP2 MSTORE PUSH1 0x20 ADD PUSH32 0x53776170436F696E000000000000000000000000000000000000000000000000 DUP2 MSTORE POP PUSH1 0x40 MLOAD DUP1 PUSH1 0x40 ADD PUSH1 0x40 MSTORE DUP1 PUSH1 0x2 DUP2 MSTORE PUSH1 0x20 ADD PUSH32 0x5343000000000000000000000000000000000000000000000000000000000000 DUP2 MSTORE POP DUP2 PUSH1 0x3 SWAP1 DUP2 PUSH2 0x8B SWAP2 SWAP1 PUSH2 0x356 JUMP JUMPDEST POP DUP1 PUSH1 0x4 SWAP1 DUP2 PUSH2 0x9B SWAP2 SWAP1 PUSH2 0x356 JUMP JUMPDEST POP POP POP PUSH0 PUSH1 0x5 PUSH0 PUSH2 0x100 EXP DUP2 SLOAD DUP2 PUSH1 0xFF MUL NOT AND SWAP1 DUP4 ISZERO ISZERO MUL OR SWAP1 SSTORE POP CALLER PUSH1 0x11 PUSH0 PUSH2 0x100 EXP DUP2 SLOAD DUP2 PUSH20 0xFFFFFFFFFFFFFFFFFFFFFFFFFFFFFFFFFFFFFFFF MUL NOT AND SWAP1 DUP4 PUSH20 0xFFFFFFFFFFFFFFFFFFFFFFFFFFFFFFFFFFFFFFFF AND MUL OR SWAP1 SSTORE POP PUSH1 0xF PUSH1 0x9 PUSH0 ADD DUP2 SWAP1 SSTORE POP PUSH1 0x5 PUSH1 0x9 PUSH1 0x2 ADD DUP2 SWAP1 SSTORE POP PUSH1 0x3 PUSH1 0x9 PUSH1 0x4 ADD DUP2 SWAP1 SSTORE POP PUSH2 0x425 JUMP JUMPDEST PUSH0 DUP2 MLOAD SWAP1 POP SWAP2 SWAP1 POP JUMP JUMPDEST PUSH32 0x4E487B7100000000000000000000000000000000000000000000000000000000 PUSH0 MSTORE PUSH1 0x41 PUSH1 0x4 MSTORE PUSH1 0x24 PUSH0 REVERT JUMPDEST PUSH32 0x4E487B7100000000000000000000000000000000000000000000000000000000 PUSH0 MSTORE PUSH1 0x22 PUSH1 0x4 MSTORE PUSH1 0x24 PUSH0 REVERT JUMPDEST PUSH0 PUSH1 0x2 DUP3 DIV SWAP1 POP PUSH1 0x1 DUP3 AND DUP1 PUSH2 0x197 JUMPI PUSH1 0x7F DUP3 AND SWAP2 POP JUMPDEST PUSH1 0x20 DUP3 LT DUP2 SUB PUSH2 0x1AA JUMPI PUSH2 0x1A9 PUSH2 0x153 JUMP JUMPDEST JUMPDEST POP SWAP2 SWAP1 POP JUMP JUMPDEST PUSH0 DUP2 SWAP1 POP DUP2 PUSH0 MSTORE PUSH1 0x20 PUSH0 KECCAK256 SWAP1 POP SWAP2 SWAP1 POP JUMP JUMPDEST PUSH0 PUSH1 0x20 PUSH1 0x1F DUP4 ADD DIV SWAP1 POP SWAP2 SWAP1 POP JUMP JUMPDEST PUSH0 DUP3 DUP3 SHL SWAP1 POP SWAP3 SWAP2 POP POP JUMP JUMPDEST PUSH0 PUSH1 0x8 DUP4 MUL PUSH2 0x20C PUSH32 0xFFFFFFFFFFFFFFFFFFFFFFFFFFFFFFFFFFFFFFFFFFFFFFFFFFFFFFFFFFFFFFFF DUP3 PUSH2 0x1D1 JUMP JUMPDEST PUSH2 0x216 DUP7 DUP4 PUSH2 0x1D1 JUMP JUMPDEST SWAP6 POP DUP1 NOT DUP5 AND SWAP4 POP DUP1 DUP7 AND DUP5 OR SWAP3 POP POP POP SWAP4 SWAP3 POP POP POP JUMP JUMPDEST PUSH0 DUP2 SWAP1 POP SWAP2 SWAP1 POP JUMP JUMPDEST PUSH0 DUP2 SWAP1 POP SWAP2 SWAP1 POP JUMP JUMPDEST PUSH0 PUSH2 0x25A PUSH2 0x255 PUSH2 0x250 DUP5 PUSH2 0x22E JUMP JUMPDEST PUSH2 0x237 JUMP JUMPDEST PUSH2 0x22E JUMP JUMPDEST SWAP1 POP SWAP2 SWAP1 POP JUMP JUMPDEST PUSH0 DUP2 SWAP1 POP SWAP2 SWAP1 POP JUMP JUMPDEST PUSH2 0x273 DUP4 PUSH2 0x240 JUMP JUMPDEST PUSH2 0x287 PUSH2 0x27F DUP3 PUSH2 0x261 JUMP JUMPDEST DUP5 DUP5 SLOAD PUSH2 0x1DD JUMP JUMPDEST DUP3 SSTORE POP POP POP POP JUMP JUMPDEST PUSH0 SWAP1 JUMP JUMPDEST PUSH2 0x29B PUSH2 0x28F JUMP JUMPDEST PUSH2 0x2A6 DUP2 DUP5 DUP5 PUSH2 0x26A JUMP JUMPDEST POP POP POP JUMP JUMPDEST JUMPDEST DUP2 DUP2 LT ISZERO PUSH2 0x2C9 JUMPI PUSH2 0x2BE PUSH0 DUP3 PUSH2 0x293 JUMP JUMPDEST PUSH1 0x1 DUP2 ADD SWAP1 POP PUSH2 0x2AC JUMP JUMPDEST POP POP JUMP JUMPDEST PUSH1 0x1F DUP3 GT ISZERO PUSH2 0x30E JUMPI PUSH2 0x2DF DUP2 PUSH2 0x1B0 JUMP JUMPDEST PUSH2 0x2E8 DUP5 PUSH2 0x1C2 JUMP JUMPDEST DUP2 ADD PUSH1 0x20 DUP6 LT ISZERO PUSH2 0x2F7 JUMPI DUP2 SWAP1 POP JUMPDEST PUSH2 0x30B PUSH2 0x303 DUP6 PUSH2 0x1C2 JUMP JUMPDEST DUP4 ADD DUP3 PUSH2 0x2AB JUMP JUMPDEST POP POP JUMPDEST POP POP POP JUMP JUMPDEST PUSH0 DUP3 DUP3 SHR SWAP1 POP SWAP3 SWAP2 POP POP JUMP JUMPDEST PUSH0 PUSH2 0x32E PUSH0 NOT DUP5 PUSH1 0x8 MUL PUSH2 0x313 JUMP JUMPDEST NOT DUP1 DUP4 AND SWAP2 POP POP SWAP3 SWAP2 POP POP JUMP JUMPDEST PUSH0 PUSH2 0x346 DUP4 DUP4 PUSH2 0x31F JUMP JUMPDEST SWAP2 POP DUP3 PUSH1 0x2 MUL DUP3 OR SWAP1 POP SWAP3 SWAP2 POP POP JUMP JUMPDEST PUSH2 0x35F DUP3 PUSH2 0x11C JUMP JUMPDEST PUSH8 0xFFFFFFFFFFFFFFFF DUP2 GT ISZERO PUSH2 0x378 JUMPI PUSH2 0x377 PUSH2 0x126 JUMP JUMPDEST JUMPDEST PUSH2 0x382 DUP3 SLOAD PUSH2 0x180 JUMP JUMPDEST PUSH2 0x38D DUP3 DUP3 DUP6 PUSH2 0x2CD JUMP JUMPDEST PUSH0 PUSH1 0x20 SWAP1 POP PUSH1 0x1F DUP4 GT PUSH1 0x1 DUP2 EQ PUSH2 0x3BE JUMPI PUSH0 DUP5 ISZERO PUSH2 0x3AC JUMPI DUP3 DUP8 ADD MLOAD SWAP1 POP JUMPDEST PUSH2 0x3B6 DUP6 DUP3 PUSH2 0x33B JUMP JUMPDEST DUP7 SSTORE POP PUSH2 0x41D JUMP JUMPDEST PUSH1 0x1F NOT DUP5 AND PUSH2 0x3CC DUP7 PUSH2 0x1B0 JUMP JUMPDEST PUSH0 JUMPDEST DUP3 DUP2 LT ISZERO PUSH2 0x3F3 JUMPI DUP5 DUP10 ADD MLOAD DUP3 SSTORE PUSH1 0x1 DUP3 ADD SWAP2 POP PUSH1 0x20 DUP6 ADD SWAP5 POP PUSH1 0x20 DUP2 ADD SWAP1 POP PUSH2 0x3CE JUMP JUMPDEST DUP7 DUP4 LT ISZERO PUSH2 0x410 JUMPI DUP5 DUP10 ADD MLOAD PUSH2 0x40C PUSH1 0x1F DUP10 AND DUP3 PUSH2 0x31F JUMP JUMPDEST DUP4 SSTORE POP JUMPDEST PUSH1 0x1 PUSH1 0x2 DUP9 MUL ADD DUP9 SSTORE POP POP POP JUMPDEST POP POP POP POP POP POP JUMP JUMPDEST PUSH2 0x5E89 DUP1 PUSH2 0x432 PUSH0 CODECOPY PUSH0 RETURN INVALID PUSH1 0x80 PUSH1 0x40 MSTORE PUSH1 0x4 CALLDATASIZE LT PUSH2 0x275 JUMPI PUSH0 CALLDATALOAD PUSH1 0xE0 SHR DUP1 PUSH4 0xA0010C62 GT PUSH2 0x14E JUMPI DUP1 PUSH4 0xD905777E GT PUSH2 0xC0 JUMPI DUP1 PUSH4 0xE90D2FE1 GT PUSH2 0x79 JUMPI DUP1 PUSH4 0xE90D2FE1 EQ PUSH2 0xA38 JUMPI DUP1 PUSH4 0xEAC449D9 EQ PUSH2 0xA60 JUMPI DUP1 PUSH4 0xEF8B30F7 EQ PUSH2 0xA88 JUMPI DUP1 PUSH4 0xF340FA01 EQ PUSH2 0xAC4 JUMPI DUP1 PUSH4 0xF851A440 EQ PUSH2 0xAF4 JUMPI DUP1 PUSH4 0xFC0BB178 EQ PUSH2 0xB1E JUMPI PUSH2 0x296 JUMP JUMPDEST DUP1 PUSH4 0xD905777E EQ PUSH2 0x8F6 JUMPI DUP1 PUSH4 0xD9D98CE4 EQ PUSH2 0x932 JUMPI DUP1 PUSH4 0xDA62DC98 EQ PUSH2 0x96E JUMPI DUP1 PUSH4 0xDD62ED3E EQ PUSH2 0x9AC JUMPI DUP1 PUSH4 0xE43197EF EQ PUSH2 0x9E8 JUMPI DUP1 PUSH4 0xE8AA7E33 EQ PUSH2 0xA10 JUMPI PUSH2 0x296 JUMP JUMPDEST DUP1 PUSH4 0xB460AF94 GT PUSH2 0x112 JUMPI DUP1 PUSH4 0xB460AF94 EQ PUSH2 0x7C8 JUMPI DUP1 PUSH4 0xB789BF52 EQ PUSH2 0x804 JUMPI DUP1 PUSH4 0xB80083FA EQ PUSH2 0x82E JUMPI DUP1 PUSH4 0xBA087652 EQ PUSH2 0x856 JUMPI DUP1 PUSH4 0xD09B6D43 EQ PUSH2 0x892 JUMPI DUP1 PUSH4 0xD87368CF EQ PUSH2 0x8BA JUMPI PUSH2 0x296 JUMP JUMPDEST DUP1 PUSH4 0xA0010C62 EQ PUSH2 0x6C4 JUMPI DUP1 PUSH4 0xA893C9BE EQ PUSH2 0x700 JUMPI DUP1 PUSH4 0xA9059CBB EQ PUSH2 0x728 JUMPI DUP1 PUSH4 0xAA1E537C EQ PUSH2 0x764 JUMPI DUP1 PUSH4 0xB3D7F6B9 EQ PUSH2 0x78C JUMPI PUSH2 0x296 JUMP JUMPDEST DUP1 PUSH4 0x5C975ABB GT PUSH2 0x1E7 JUMPI DUP1 PUSH4 0x8456CB59 GT PUSH2 0x1AB JUMPI DUP1 PUSH4 0x8456CB59 EQ PUSH2 0x5D4 JUMPI DUP1 PUSH4 0x84ED8C72 EQ PUSH2 0x5EA JUMPI DUP1 PUSH4 0x8DE93222 EQ PUSH2 0x612 JUMPI DUP1 PUSH4 0x8F283970 EQ PUSH2 0x642 JUMPI DUP1 PUSH4 0x94BF804D EQ PUSH2 0x66A JUMPI DUP1 PUSH4 0x95D89B41 EQ PUSH2 0x69A JUMPI PUSH2 0x296 JUMP JUMPDEST DUP1 PUSH4 0x5C975ABB EQ PUSH2 0x4CC JUMPI DUP1 PUSH4 0x5CFFE9DE EQ PUSH2 0x4F6 JUMPI DUP1 PUSH4 0x613255AB EQ PUSH2 0x532 JUMPI DUP1 PUSH4 0x6F31AB34 EQ PUSH2 0x56E JUMPI DUP1 PUSH4 0x70A08231 EQ PUSH2 0x598 JUMPI PUSH2 0x296 JUMP JUMPDEST DUP1 PUSH4 0x18160DDD GT PUSH2 0x239 JUMPI DUP1 PUSH4 0x18160DDD EQ PUSH2 0x3BA JUMPI DUP1 PUSH4 0x23B872DD EQ PUSH2 0x3E4 JUMPI DUP1 PUSH4 0x2D61297D EQ PUSH2 0x420 JUMPI DUP1 PUSH4 0x313CE567 EQ PUSH2 0x450 JUMPI DUP1 PUSH4 0x3F4BA83A EQ PUSH2 0x47A JUMPI DUP1 PUSH4 0x4CDAD506 EQ PUSH2 0x490 JUMPI PUSH2 0x296 JUMP JUMPDEST DUP1 PUSH4 0x1E1D114 EQ PUSH2 0x2B2 JUMPI DUP1 PUSH4 0x6FDDE03 EQ PUSH2 0x2DC JUMPI DUP1 PUSH4 0x95EA7B3 EQ PUSH2 0x306 JUMPI DUP1 PUSH4 0xA28A477 EQ PUSH2 0x342 JUMPI DUP1 PUSH4 0x150B7A02 EQ PUSH2 0x37E JUMPI PUSH2 0x296 JUMP JUMPDEST CALLDATASIZE PUSH2 0x296 JUMPI PUSH0 CALLVALUE GT ISZERO PUSH2 0x294 JUMPI PUSH2 0x292 PUSH2 0x28D PUSH2 0xB5A JUMP JUMPDEST PUSH2 0xB61 JUMP JUMPDEST POP JUMPDEST STOP JUMPDEST PUSH0 CALLVALUE GT ISZERO PUSH2 0x2B0 JUMPI PUSH2 0x2AE PUSH2 0x2A9 PUSH2 0xB5A JUMP JUMPDEST PUSH2 0xB61 JUMP JUMPDEST POP JUMPDEST STOP JUMPDEST CALLVALUE DUP1 ISZERO PUSH2 0x2BD JUMPI PUSH0 DUP1 REVERT JUMPDEST POP PUSH2 0x2C6 PUSH2 0xBFF JUMP JUMPDEST PUSH1 0x40 MLOAD PUSH2 0x2D3 SWAP2 SWAP1 PUSH2 0x4837 JUMP JUMPDEST PUSH1 0x40 MLOAD DUP1 SWAP2 SUB SWAP1 RETURN JUMPDEST CALLVALUE DUP1 ISZERO PUSH2 0x2E7 JUMPI PUSH0 DUP1 REVERT JUMPDEST POP PUSH2 0x2F0 PUSH2 0xC06 JUMP JUMPDEST PUSH1 0x40 MLOAD PUSH2 0x2FD SWAP2 SWAP1 PUSH2 0x48C0 JUMP JUMPDEST PUSH1 0x40 MLOAD DUP1 SWAP2 SUB SWAP1 RETURN JUMPDEST CALLVALUE DUP1 ISZERO PUSH2 0x311 JUMPI PUSH0 DUP1 REVERT JUMPDEST POP PUSH2 0x32C PUSH1 0x4 DUP1 CALLDATASIZE SUB DUP2 ADD SWAP1 PUSH2 0x327 SWAP2 SWAP1 PUSH2 0x4975 JUMP JUMPDEST PUSH2 0xC96 JUMP JUMPDEST PUSH1 0x40 MLOAD PUSH2 0x339 SWAP2 SWAP1 PUSH2 0x49CD JUMP JUMPDEST PUSH1 0x40 MLOAD DUP1 SWAP2 SUB SWAP1 RETURN JUMPDEST CALLVALUE DUP1 ISZERO PUSH2 0x34D JUMPI PUSH0 DUP1 REVERT JUMPDEST POP PUSH2 0x368 PUSH1 0x4 DUP1 CALLDATASIZE SUB DUP2 ADD SWAP1 PUSH2 0x363 SWAP2 SWAP1 PUSH2 0x49E6 JUMP JUMPDEST PUSH2 0xCB8 JUMP JUMPDEST PUSH1 0x40 MLOAD PUSH2 0x375 SWAP2 SWAP1 PUSH2 0x4837 JUMP JUMPDEST PUSH1 0x40 MLOAD DUP1 SWAP2 SUB SWAP1 RETURN JUMPDEST CALLVALUE DUP1 ISZERO PUSH2 0x389 JUMPI PUSH0 DUP1 REVERT JUMPDEST POP PUSH2 0x3A4 PUSH1 0x4 DUP1 CALLDATASIZE SUB DUP2 ADD SWAP1 PUSH2 0x39F SWAP2 SWAP1 PUSH2 0x4B3D JUMP JUMPDEST PUSH2 0xCCF JUMP JUMPDEST PUSH1 0x40 MLOAD PUSH2 0x3B1 SWAP2 SWAP1 PUSH2 0x4BF7 JUMP JUMPDEST PUSH1 0x40 MLOAD DUP1 SWAP2 SUB SWAP1 RETURN JUMPDEST CALLVALUE DUP1 ISZERO PUSH2 0x3C5 JUMPI PUSH0 DUP1 REVERT JUMPDEST POP PUSH2 0x3CE PUSH2 0xD33 JUMP JUMPDEST PUSH1 0x40 MLOAD PUSH2 0x3DB SWAP2 SWAP1 PUSH2 0x4837 JUMP JUMPDEST PUSH1 0x40 MLOAD DUP1 SWAP2 SUB SWAP1 RETURN JUMPDEST CALLVALUE DUP1 ISZERO PUSH2 0x3EF JUMPI PUSH0 DUP1 REVERT JUMPDEST POP PUSH2 0x40A PUSH1 0x4 DUP1 CALLDATASIZE SUB DUP2 ADD SWAP1 PUSH2 0x405 SWAP2 SWAP1 PUSH2 0x4C10 JUMP JUMPDEST PUSH2 0xD3C JUMP JUMPDEST PUSH1 0x40 MLOAD PUSH2 0x417 SWAP2 SWAP1 PUSH2 0x49CD JUMP JUMPDEST PUSH1 0x40 MLOAD DUP1 SWAP2 SUB SWAP1 RETURN JUMPDEST CALLVALUE DUP1 ISZERO PUSH2 0x42B JUMPI PUSH0 DUP1 REVERT JUMPDEST POP PUSH2 0x434 PUSH2 0xD6A JUMP JUMPDEST PUSH1 0x40 MLOAD PUSH2 0x447 SWAP8 SWAP7 SWAP6 SWAP5 SWAP4 SWAP3 SWAP2 SWAP1 PUSH2 0x4C60 JUMP JUMPDEST PUSH1 0x40 MLOAD DUP1 SWAP2 SUB SWAP1 RETURN JUMPDEST CALLVALUE DUP1 ISZERO PUSH2 0x45B JUMPI PUSH0 DUP1 REVERT JUMPDEST POP PUSH2 0x464 PUSH2 0xDB1 JUMP JUMPDEST PUSH1 0x40 MLOAD PUSH2 0x471 SWAP2 SWAP1 PUSH2 0x4CE8 JUMP JUMPDEST PUSH1 0x40 MLOAD DUP1 SWAP2 SUB SWAP1 RETURN JUMPDEST CALLVALUE DUP1 ISZERO PUSH2 0x485 JUMPI PUSH0 DUP1 REVERT JUMPDEST POP PUSH2 0x48E PUSH2 0xDB9 JUMP JUMPDEST STOP JUMPDEST CALLVALUE DUP1 ISZERO PUSH2 0x49B JUMPI PUSH0 DUP1 REVERT JUMPDEST POP PUSH2 0x4B6 PUSH1 0x4 DUP1 CALLDATASIZE SUB DUP2 ADD SWAP1 PUSH2 0x4B1 SWAP2 SWAP1 PUSH2 0x49E6 JUMP JUMPDEST PUSH2 0xE52 JUMP JUMPDEST PUSH1 0x40 MLOAD PUSH2 0x4C3 SWAP2 SWAP1 PUSH2 0x4837 JUMP JUMPDEST PUSH1 0x40 MLOAD DUP1 SWAP2 SUB SWAP1 RETURN JUMPDEST CALLVALUE DUP1 ISZERO PUSH2 0x4D7 JUMPI PUSH0 DUP1 REVERT JUMPDEST POP PUSH2 0x4E0 PUSH2 0xE69 JUMP JUMPDEST PUSH1 0x40 MLOAD PUSH2 0x4ED SWAP2 SWAP1 PUSH2 0x49CD JUMP JUMPDEST PUSH1 0x40 MLOAD DUP1 SWAP2 SUB SWAP1 RETURN JUMPDEST CALLVALUE DUP1 ISZERO PUSH2 0x501 JUMPI PUSH0 DUP1 REVERT JUMPDEST POP PUSH2 0x51C PUSH1 0x4 DUP1 CALLDATASIZE SUB DUP2 ADD SWAP1 PUSH2 0x517 SWAP2 SWAP1 PUSH2 0x4D99 JUMP JUMPDEST PUSH2 0xE7E JUMP JUMPDEST PUSH1 0x40 MLOAD PUSH2 0x529 SWAP2 SWAP1 PUSH2 0x49CD JUMP JUMPDEST PUSH1 0x40 MLOAD DUP1 SWAP2 SUB SWAP1 RETURN JUMPDEST CALLVALUE DUP1 ISZERO PUSH2 0x53D JUMPI PUSH0 DUP1 REVERT JUMPDEST POP PUSH2 0x558 PUSH1 0x4 DUP1 CALLDATASIZE SUB DUP2 ADD SWAP1 PUSH2 0x553 SWAP2 SWAP1 PUSH2 0x4E1D JUMP JUMPDEST PUSH2 0x10A3 JUMP JUMPDEST PUSH1 0x40 MLOAD PUSH2 0x565 SWAP2 SWAP1 PUSH2 0x4837 JUMP JUMPDEST PUSH1 0x40 MLOAD DUP1 SWAP2 SUB SWAP1 RETURN JUMPDEST CALLVALUE DUP1 ISZERO PUSH2 0x579 JUMPI PUSH0 DUP1 REVERT JUMPDEST POP PUSH2 0x582 PUSH2 0x1118 JUMP JUMPDEST PUSH1 0x40 MLOAD PUSH2 0x58F SWAP2 SWAP1 PUSH2 0x4837 JUMP JUMPDEST PUSH1 0x40 MLOAD DUP1 SWAP2 SUB SWAP1 RETURN JUMPDEST CALLVALUE DUP1 ISZERO PUSH2 0x5A3 JUMPI PUSH0 DUP1 REVERT JUMPDEST POP PUSH2 0x5BE PUSH1 0x4 DUP1 CALLDATASIZE SUB DUP2 ADD SWAP1 PUSH2 0x5B9 SWAP2 SWAP1 PUSH2 0x4E1D JUMP JUMPDEST PUSH2 0x119D JUMP JUMPDEST PUSH1 0x40 MLOAD PUSH2 0x5CB SWAP2 SWAP1 PUSH2 0x4837 JUMP JUMPDEST PUSH1 0x40 MLOAD DUP1 SWAP2 SUB SWAP1 RETURN JUMPDEST CALLVALUE DUP1 ISZERO PUSH2 0x5DF JUMPI PUSH0 DUP1 REVERT JUMPDEST POP PUSH2 0x5E8 PUSH2 0x11E2 JUMP JUMPDEST STOP JUMPDEST CALLVALUE DUP1 ISZERO PUSH2 0x5F5 JUMPI PUSH0 DUP1 REVERT JUMPDEST POP PUSH2 0x610 PUSH1 0x4 DUP1 CALLDATASIZE SUB DUP2 ADD SWAP1 PUSH2 0x60B SWAP2 SWAP1 PUSH2 0x49E6 JUMP JUMPDEST PUSH2 0x127B JUMP JUMPDEST STOP JUMPDEST PUSH2 0x62C PUSH1 0x4 DUP1 CALLDATASIZE SUB DUP2 ADD SWAP1 PUSH2 0x627 SWAP2 SWAP1 PUSH2 0x4975 JUMP JUMPDEST PUSH2 0x13A9 JUMP JUMPDEST PUSH1 0x40 MLOAD PUSH2 0x639 SWAP2 SWAP1 PUSH2 0x4837 JUMP JUMPDEST PUSH1 0x40 MLOAD DUP1 SWAP2 SUB SWAP1 RETURN JUMPDEST CALLVALUE DUP1 ISZERO PUSH2 0x64D JUMPI PUSH0 DUP1 REVERT JUMPDEST POP PUSH2 0x668 PUSH1 0x4 DUP1 CALLDATASIZE SUB DUP2 ADD SWAP1 PUSH2 0x663 SWAP2 SWAP1 PUSH2 0x4E1D JUMP JUMPDEST PUSH2 0x1609 JUMP JUMPDEST STOP JUMPDEST PUSH2 0x684 PUSH1 0x4 DUP1 CALLDATASIZE SUB DUP2 ADD SWAP1 PUSH2 0x67F SWAP2 SWAP1 PUSH2 0x4E48 JUMP JUMPDEST PUSH2 0x1749 JUMP JUMPDEST PUSH1 0x40 MLOAD PUSH2 0x691 SWAP2 SWAP1 PUSH2 0x4837 JUMP JUMPDEST PUSH1 0x40 MLOAD DUP1 SWAP2 SUB SWAP1 RETURN JUMPDEST CALLVALUE DUP1 ISZERO PUSH2 0x6A5 JUMPI PUSH0 DUP1 REVERT JUMPDEST POP PUSH2 0x6AE PUSH2 0x1882 JUMP JUMPDEST PUSH1 0x40 MLOAD PUSH2 0x6BB SWAP2 SWAP1 PUSH2 0x48C0 JUMP JUMPDEST PUSH1 0x40 MLOAD DUP1 SWAP2 SUB SWAP1 RETURN JUMPDEST CALLVALUE DUP1 ISZERO PUSH2 0x6CF JUMPI PUSH0 DUP1 REVERT JUMPDEST POP PUSH2 0x6EA PUSH1 0x4 DUP1 CALLDATASIZE SUB DUP2 ADD SWAP1 PUSH2 0x6E5 SWAP2 SWAP1 PUSH2 0x4E1D JUMP JUMPDEST PUSH2 0x1912 JUMP JUMPDEST PUSH1 0x40 MLOAD PUSH2 0x6F7 SWAP2 SWAP1 PUSH2 0x4837 JUMP JUMPDEST PUSH1 0x40 MLOAD DUP1 SWAP2 SUB SWAP1 RETURN JUMPDEST CALLVALUE DUP1 ISZERO PUSH2 0x70B JUMPI PUSH0 DUP1 REVERT JUMPDEST POP PUSH2 0x726 PUSH1 0x4 DUP1 CALLDATASIZE SUB DUP2 ADD SWAP1 PUSH2 0x721 SWAP2 SWAP1 PUSH2 0x49E6 JUMP JUMPDEST PUSH2 0x1927 JUMP JUMPDEST STOP JUMPDEST CALLVALUE DUP1 ISZERO PUSH2 0x733 JUMPI PUSH0 DUP1 REVERT JUMPDEST POP PUSH2 0x74E PUSH1 0x4 DUP1 CALLDATASIZE SUB DUP2 ADD SWAP1 PUSH2 0x749 SWAP2 SWAP1 PUSH2 0x4975 JUMP JUMPDEST PUSH2 0x1A57 JUMP JUMPDEST PUSH1 0x40 MLOAD PUSH2 0x75B SWAP2 SWAP1 PUSH2 0x49CD JUMP JUMPDEST PUSH1 0x40 MLOAD DUP1 SWAP2 SUB SWAP1 RETURN JUMPDEST CALLVALUE DUP1 ISZERO PUSH2 0x76F JUMPI PUSH0 DUP1 REVERT JUMPDEST POP PUSH2 0x78A PUSH1 0x4 DUP1 CALLDATASIZE SUB DUP2 ADD SWAP1 PUSH2 0x785 SWAP2 SWAP1 PUSH2 0x4975 JUMP JUMPDEST PUSH2 0x1A79 JUMP JUMPDEST STOP JUMPDEST CALLVALUE DUP1 ISZERO PUSH2 0x797 JUMPI PUSH0 DUP1 REVERT JUMPDEST POP PUSH2 0x7B2 PUSH1 0x4 DUP1 CALLDATASIZE SUB DUP2 ADD SWAP1 PUSH2 0x7AD SWAP2 SWAP1 PUSH2 0x49E6 JUMP JUMPDEST PUSH2 0x1BCD JUMP JUMPDEST PUSH1 0x40 MLOAD PUSH2 0x7BF SWAP2 SWAP1 PUSH2 0x4837 JUMP JUMPDEST PUSH1 0x40 MLOAD DUP1 SWAP2 SUB SWAP1 RETURN JUMPDEST CALLVALUE DUP1 ISZERO PUSH2 0x7D3 JUMPI PUSH0 DUP1 REVERT JUMPDEST POP PUSH2 0x7EE PUSH1 0x4 DUP1 CALLDATASIZE SUB DUP2 ADD SWAP1 PUSH2 0x7E9 SWAP2 SWAP1 PUSH2 0x4E86 JUMP JUMPDEST PUSH2 0x1BE1 JUMP JUMPDEST PUSH1 0x40 MLOAD PUSH2 0x7FB SWAP2 SWAP1 PUSH2 0x4837 JUMP JUMPDEST PUSH1 0x40 MLOAD DUP1 SWAP2 SUB SWAP1 RETURN JUMPDEST CALLVALUE DUP1 ISZERO PUSH2 0x80F JUMPI PUSH0 DUP1 REVERT JUMPDEST POP PUSH2 0x818 PUSH2 0x1D11 JUMP JUMPDEST PUSH1 0x40 MLOAD PUSH2 0x825 SWAP2 SWAP1 PUSH2 0x4837 JUMP JUMPDEST PUSH1 0x40 MLOAD DUP1 SWAP2 SUB SWAP1 RETURN JUMPDEST CALLVALUE DUP1 ISZERO PUSH2 0x839 JUMPI PUSH0 DUP1 REVERT JUMPDEST POP PUSH2 0x854 PUSH1 0x4 DUP1 CALLDATASIZE SUB DUP2 ADD SWAP1 PUSH2 0x84F SWAP2 SWAP1 PUSH2 0x4E1D JUMP JUMPDEST PUSH2 0x1D17 JUMP JUMPDEST STOP JUMPDEST CALLVALUE DUP1 ISZERO PUSH2 0x861 JUMPI PUSH0 DUP1 REVERT JUMPDEST POP PUSH2 0x87C PUSH1 0x4 DUP1 CALLDATASIZE SUB DUP2 ADD SWAP1 PUSH2 0x877 SWAP2 SWAP1 PUSH2 0x4E86 JUMP JUMPDEST PUSH2 0x207E JUMP JUMPDEST PUSH1 0x40 MLOAD PUSH2 0x889 SWAP2 SWAP1 PUSH2 0x4837 JUMP JUMPDEST PUSH1 0x40 MLOAD DUP1 SWAP2 SUB SWAP1 RETURN JUMPDEST CALLVALUE DUP1 ISZERO PUSH2 0x89D JUMPI PUSH0 DUP1 REVERT JUMPDEST POP PUSH2 0x8B8 PUSH1 0x4 DUP1 CALLDATASIZE SUB DUP2 ADD SWAP1 PUSH2 0x8B3 SWAP2 SWAP1 PUSH2 0x4ED6 JUMP JUMPDEST PUSH2 0x21AE JUMP JUMPDEST STOP JUMPDEST CALLVALUE DUP1 ISZERO PUSH2 0x8C5 JUMPI PUSH0 DUP1 REVERT JUMPDEST POP PUSH2 0x8E0 PUSH1 0x4 DUP1 CALLDATASIZE SUB DUP2 ADD SWAP1 PUSH2 0x8DB SWAP2 SWAP1 PUSH2 0x4E1D JUMP JUMPDEST PUSH2 0x2395 JUMP JUMPDEST PUSH1 0x40 MLOAD PUSH2 0x8ED SWAP2 SWAP1 PUSH2 0x4837 JUMP JUMPDEST PUSH1 0x40 MLOAD DUP1 SWAP2 SUB SWAP1 RETURN JUMPDEST CALLVALUE DUP1 ISZERO PUSH2 0x901 JUMPI PUSH0 DUP1 REVERT JUMPDEST POP PUSH2 0x91C PUSH1 0x4 DUP1 CALLDATASIZE SUB DUP2 ADD SWAP1 PUSH2 0x917 SWAP2 SWAP1 PUSH2 0x4E1D JUMP JUMPDEST PUSH2 0x23DB JUMP JUMPDEST PUSH1 0x40 MLOAD PUSH2 0x929 SWAP2 SWAP1 PUSH2 0x4837 JUMP JUMPDEST PUSH1 0x40 MLOAD DUP1 SWAP2 SUB SWAP1 RETURN JUMPDEST CALLVALUE DUP1 ISZERO PUSH2 0x93D JUMPI PUSH0 DUP1 REVERT JUMPDEST POP PUSH2 0x958 PUSH1 0x4 DUP1 CALLDATASIZE SUB DUP2 ADD SWAP1 PUSH2 0x953 SWAP2 SWAP1 PUSH2 0x4975 JUMP JUMPDEST PUSH2 0x245B JUMP JUMPDEST PUSH1 0x40 MLOAD PUSH2 0x965 SWAP2 SWAP1 PUSH2 0x4837 JUMP JUMPDEST PUSH1 0x40 MLOAD DUP1 SWAP2 SUB SWAP1 RETURN JUMPDEST CALLVALUE DUP1 ISZERO PUSH2 0x979 JUMPI PUSH0 DUP1 REVERT JUMPDEST POP PUSH2 0x994 PUSH1 0x4 DUP1 CALLDATASIZE SUB DUP2 ADD SWAP1 PUSH2 0x98F SWAP2 SWAP1 PUSH2 0x4975 JUMP JUMPDEST PUSH2 0x24DE JUMP JUMPDEST PUSH1 0x40 MLOAD PUSH2 0x9A3 SWAP4 SWAP3 SWAP2 SWAP1 PUSH2 0x4F35 JUMP JUMPDEST PUSH1 0x40 MLOAD DUP1 SWAP2 SUB SWAP1 RETURN JUMPDEST CALLVALUE DUP1 ISZERO PUSH2 0x9B7 JUMPI PUSH0 DUP1 REVERT JUMPDEST POP PUSH2 0x9D2 PUSH1 0x4 DUP1 CALLDATASIZE SUB DUP2 ADD SWAP1 PUSH2 0x9CD SWAP2 SWAP1 PUSH2 0x4F6A JUMP JUMPDEST PUSH2 0x25BF JUMP JUMPDEST PUSH1 0x40 MLOAD PUSH2 0x9DF SWAP2 SWAP1 PUSH2 0x4837 JUMP JUMPDEST PUSH1 0x40 MLOAD DUP1 SWAP2 SUB SWAP1 RETURN JUMPDEST CALLVALUE DUP1 ISZERO PUSH2 0x9F3 JUMPI PUSH0 DUP1 REVERT JUMPDEST POP PUSH2 0xA0E PUSH1 0x4 DUP1 CALLDATASIZE SUB DUP2 ADD SWAP1 PUSH2 0xA09 SWAP2 SWAP1 PUSH2 0x4E1D JUMP JUMPDEST PUSH2 0x2641 JUMP JUMPDEST STOP JUMPDEST CALLVALUE DUP1 ISZERO PUSH2 0xA1B JUMPI PUSH0 DUP1 REVERT JUMPDEST POP PUSH2 0xA36 PUSH1 0x4 DUP1 CALLDATASIZE SUB DUP2 ADD SWAP1 PUSH2 0xA31 SWAP2 SWAP1 PUSH2 0x4FE3 JUMP JUMPDEST PUSH2 0x27D0 JUMP JUMPDEST STOP JUMPDEST CALLVALUE DUP1 ISZERO PUSH2 0xA43 JUMPI PUSH0 DUP1 REVERT JUMPDEST POP PUSH2 0xA5E PUSH1 0x4 DUP1 CALLDATASIZE SUB DUP2 ADD SWAP1 PUSH2 0xA59 SWAP2 SWAP1 PUSH2 0x49E6 JUMP JUMPDEST PUSH2 0x2932 JUMP JUMPDEST STOP JUMPDEST CALLVALUE DUP1 ISZERO PUSH2 0xA6B JUMPI PUSH0 DUP1 REVERT JUMPDEST POP PUSH2 0xA86 PUSH1 0x4 DUP1 CALLDATASIZE SUB DUP2 ADD SWAP1 PUSH2 0xA81 SWAP2 SWAP1 PUSH2 0x4975 JUMP JUMPDEST PUSH2 0x2A62 JUMP JUMPDEST STOP JUMPDEST CALLVALUE DUP1 ISZERO PUSH2 0xA93 JUMPI PUSH0 DUP1 REVERT JUMPDEST POP PUSH2 0xAAE PUSH1 0x4 DUP1 CALLDATASIZE SUB DUP2 ADD SWAP1 PUSH2 0xAA9 SWAP2 SWAP1 PUSH2 0x49E6 JUMP JUMPDEST PUSH2 0x2C83 JUMP JUMPDEST PUSH1 0x40 MLOAD PUSH2 0xABB SWAP2 SWAP1 PUSH2 0x4837 JUMP JUMPDEST PUSH1 0x40 MLOAD DUP1 SWAP2 SUB SWAP1 RETURN JUMPDEST PUSH2 0xADE PUSH1 0x4 DUP1 CALLDATASIZE SUB DUP2 ADD SWAP1 PUSH2 0xAD9 SWAP2 SWAP1 PUSH2 0x4E1D JUMP JUMPDEST PUSH2 0xB61 JUMP JUMPDEST PUSH1 0x40 MLOAD PUSH2 0xAEB SWAP2 SWAP1 PUSH2 0x4837 JUMP JUMPDEST PUSH1 0x40 MLOAD DUP1 SWAP2 SUB SWAP1 RETURN JUMPDEST CALLVALUE DUP1 ISZERO PUSH2 0xAFF JUMPI PUSH0 DUP1 REVERT JUMPDEST POP PUSH2 0xB08 PUSH2 0x2C96 JUMP JUMPDEST PUSH1 0x40 MLOAD PUSH2 0xB15 SWAP2 SWAP1 PUSH2 0x5033 JUMP JUMPDEST PUSH1 0x40 MLOAD DUP1 SWAP2 SUB SWAP1 RETURN JUMPDEST CALLVALUE DUP1 ISZERO PUSH2 0xB29 JUMPI PUSH0 DUP1 REVERT JUMPDEST POP PUSH2 0xB44 PUSH1 0x4 DUP1 CALLDATASIZE SUB DUP2 ADD SWAP1 PUSH2 0xB3F SWAP2 SWAP1 PUSH2 0x4975 JUMP JUMPDEST PUSH2 0x2CBB JUMP JUMPDEST PUSH1 0x40 MLOAD PUSH2 0xB51 SWAP2 SWAP1 PUSH2 0x4837 JUMP JUMPDEST PUSH1 0x40 MLOAD DUP1 SWAP2 SUB SWAP1 RETURN JUMPDEST PUSH0 CALLER SWAP1 POP SWAP1 JUMP JUMPDEST PUSH0 DUP1 PUSH20 0xFFFFFFFFFFFFFFFFFFFFFFFFFFFFFFFFFFFFFFFF AND DUP3 PUSH20 0xFFFFFFFFFFFFFFFFFFFFFFFFFFFFFFFFFFFFFFFF AND SUB PUSH2 0xBD0 JUMPI PUSH1 0x40 MLOAD PUSH32 0x8C379A000000000000000000000000000000000000000000000000000000000 DUP2 MSTORE PUSH1 0x4 ADD PUSH2 0xBC7 SWAP1 PUSH2 0x5096 JUMP JUMPDEST PUSH1 0x40 MLOAD DUP1 SWAP2 SUB SWAP1 REVERT JUMPDEST PUSH0 CALLVALUE SWAP1 POP PUSH0 DUP1 DUP3 EQ PUSH2 0xBF5 JUMPI PUSH2 0xBE7 DUP3 PUSH0 DUP5 PUSH2 0x2FBD JUMP JUMPDEST SWAP1 POP PUSH2 0xBF4 DUP5 DUP4 DUP4 PUSH2 0x3021 JUMP JUMPDEST JUMPDEST DUP1 SWAP3 POP POP POP SWAP2 SWAP1 POP JUMP JUMPDEST PUSH0 SELFBALANCE SWAP1 POP SWAP1 JUMP JUMPDEST PUSH1 0x60 PUSH1 0x3 DUP1 SLOAD PUSH2 0xC15 SWAP1 PUSH2 0x50E1 JUMP JUMPDEST DUP1 PUSH1 0x1F ADD PUSH1 0x20 DUP1 SWAP2 DIV MUL PUSH1 0x20 ADD PUSH1 0x40 MLOAD SWAP1 DUP2 ADD PUSH1 0x40 MSTORE DUP1 SWAP3 SWAP2 SWAP1 DUP2 DUP2 MSTORE PUSH1 0x20 ADD DUP3 DUP1 SLOAD PUSH2 0xC41 SWAP1 PUSH2 0x50E1 JUMP JUMPDEST DUP1 ISZERO PUSH2 0xC8C JUMPI DUP1 PUSH1 0x1F LT PUSH2 0xC63 JUMPI PUSH2 0x100 DUP1 DUP4 SLOAD DIV MUL DUP4 MSTORE SWAP2 PUSH1 0x20 ADD SWAP2 PUSH2 0xC8C JUMP JUMPDEST DUP3 ADD SWAP2 SWAP1 PUSH0 MSTORE PUSH1 0x20 PUSH0 KECCAK256 SWAP1 JUMPDEST DUP2 SLOAD DUP2 MSTORE SWAP1 PUSH1 0x1 ADD SWAP1 PUSH1 0x20 ADD DUP1 DUP4 GT PUSH2 0xC6F JUMPI DUP3 SWAP1 SUB PUSH1 0x1F AND DUP3 ADD SWAP2 JUMPDEST POP POP POP POP POP SWAP1 POP SWAP1 JUMP JUMPDEST PUSH0 DUP1 PUSH2 0xCA0 PUSH2 0xB5A JUMP JUMPDEST SWAP1 POP PUSH2 0xCAD DUP2 DUP6 DUP6 PUSH2 0x309E JUMP JUMPDEST PUSH1 0x1 SWAP2 POP POP SWAP3 SWAP2 POP POP JUMP JUMPDEST PUSH0 DUP1 PUSH2 0xCC3 DUP4 PUSH2 0x30B0 JUMP JUMPDEST POP SWAP1 POP DUP1 SWAP2 POP POP SWAP2 SWAP1 POP JUMP JUMPDEST PUSH0 DUP3 DUP6 PUSH20 0xFFFFFFFFFFFFFFFFFFFFFFFFFFFFFFFFFFFFFFFF AND PUSH32 0xA05D90F300156AD1B545BC5D8197024456F21D22A708F5AF04DD293E3D605251 DUP7 DUP6 PUSH1 0x40 MLOAD PUSH2 0xD19 SWAP3 SWAP2 SWAP1 PUSH2 0x5163 JUMP JUMPDEST PUSH1 0x40 MLOAD DUP1 SWAP2 SUB SWAP1 LOG3 PUSH4 0x150B7A02 PUSH1 0xE0 SHL SWAP1 POP SWAP5 SWAP4 POP POP POP POP JUMP JUMPDEST PUSH0 PUSH1 0x2 SLOAD SWAP1 POP SWAP1 JUMP JUMPDEST PUSH0 DUP1 PUSH2 0xD46 PUSH2 0xB5A JUMP JUMPDEST SWAP1 POP PUSH2 0xD53 DUP6 DUP3 DUP6 PUSH2 0x30F1 JUMP JUMPDEST PUSH2 0xD5E DUP6 DUP6 DUP6 PUSH2 0x3184 JUMP JUMPDEST PUSH1 0x1 SWAP2 POP POP SWAP4 SWAP3 POP POP POP JUMP JUMPDEST PUSH0 DUP1 PUSH0 DUP1 PUSH0 DUP1 PUSH0 PUSH1 0x9 PUSH0 ADD SLOAD SWAP7 POP PUSH1 0x9 PUSH1 0x1 ADD SLOAD SWAP6 POP PUSH1 0x9 PUSH1 0x2 ADD SLOAD SWAP5 POP PUSH1 0x9 PUSH1 0x3 ADD SLOAD SWAP4 POP PUSH1 0x9 PUSH1 0x4 ADD SLOAD SWAP3 POP PUSH1 0x9 PUSH1 0x5 ADD SLOAD SWAP2 POP PUSH1 0x9 PUSH1 0x6 ADD SLOAD SWAP1 POP SWAP1 SWAP2 SWAP3 SWAP4 SWAP5 SWAP6 SWAP7 JUMP JUMPDEST PUSH0 PUSH1 0x12 SWAP1 POP SWAP1 JUMP JUMPDEST PUSH1 0x11 PUSH0 SWAP1 SLOAD SWAP1 PUSH2 0x100 EXP SWAP1 DIV PUSH20 0xFFFFFFFFFFFFFFFFFFFFFFFFFFFFFFFFFFFFFFFF AND PUSH20 0xFFFFFFFFFFFFFFFFFFFFFFFFFFFFFFFFFFFFFFFF AND CALLER PUSH20 0xFFFFFFFFFFFFFFFFFFFFFFFFFFFFFFFFFFFFFFFF AND EQ PUSH2 0xE48 JUMPI PUSH1 0x40 MLOAD PUSH32 0x8C379A000000000000000000000000000000000000000000000000000000000 DUP2 MSTORE PUSH1 0x4 ADD PUSH2 0xE3F SWAP1 PUSH2 0x51DB JUMP JUMPDEST PUSH1 0x40 MLOAD DUP1 SWAP2 SUB SWAP1 REVERT JUMPDEST PUSH2 0xE50 PUSH2 0x3274 JUMP JUMPDEST JUMP JUMPDEST PUSH0 DUP1 PUSH2 0xE5D DUP4 PUSH2 0x32D5 JUMP JUMPDEST POP SWAP1 POP DUP1 SWAP2 POP POP SWAP2 SWAP1 POP JUMP JUMPDEST PUSH0 PUSH1 0x5 PUSH0 SWAP1 SLOAD SWAP1 PUSH2 0x100 EXP SWAP1 DIV PUSH1 0xFF AND SWAP1 POP SWAP1 JUMP JUMPDEST PUSH0 DUP1 PUSH2 0xE89 DUP7 PUSH2 0x10A3 JUMP JUMPDEST SWAP1 POP DUP1 DUP6 GT ISZERO PUSH2 0xED0 JUMPI DUP1 PUSH1 0x40 MLOAD PUSH32 0xFD9A760900000000000000000000000000000000000000000000000000000000 DUP2 MSTORE PUSH1 0x4 ADD PUSH2 0xEC7 SWAP2 SWAP1 PUSH2 0x4837 JUMP JUMPDEST PUSH1 0x40 MLOAD DUP1 SWAP2 SUB SWAP1 REVERT JUMPDEST PUSH0 PUSH2 0xEDB DUP8 DUP8 PUSH2 0x245B JUMP JUMPDEST SWAP1 POP PUSH0 PUSH2 0xEFA DUP3 PUSH1 0x2 DUP10 PUSH2 0xEED PUSH2 0xB5A JUMP JUMPDEST PUSH2 0xEF5 PUSH2 0xB5A JUMP JUMPDEST PUSH2 0x331A JUMP JUMPDEST SWAP1 POP PUSH0 DUP2 DUP4 PUSH2 0xF09 SWAP2 SWAP1 PUSH2 0x5226 JUMP JUMPDEST SWAP1 POP PUSH2 0xF15 DUP11 DUP10 PUSH2 0x3529 JUMP JUMPDEST PUSH32 0x439148F0BBC682CA079E46D6E2C2F0C1E3B820F1A291B069D8882ABF8CF18DD9 DUP11 PUSH20 0xFFFFFFFFFFFFFFFFFFFFFFFFFFFFFFFFFFFFFFFF AND PUSH4 0x23E30C8B PUSH2 0xF5A PUSH2 0xB5A JUMP JUMPDEST DUP13 DUP13 DUP7 DUP14 DUP14 PUSH1 0x40 MLOAD DUP8 PUSH4 0xFFFFFFFF AND PUSH1 0xE0 SHL DUP2 MSTORE PUSH1 0x4 ADD PUSH2 0xF80 SWAP7 SWAP6 SWAP5 SWAP4 SWAP3 SWAP2 SWAP1 PUSH2 0x5285 JUMP JUMPDEST PUSH1 0x20 PUSH1 0x40 MLOAD DUP1 DUP4 SUB DUP2 PUSH0 DUP8 GAS CALL ISZERO DUP1 ISZERO PUSH2 0xF9C JUMPI RETURNDATASIZE PUSH0 DUP1 RETURNDATACOPY RETURNDATASIZE PUSH0 REVERT JUMPDEST POP POP POP POP PUSH1 0x40 MLOAD RETURNDATASIZE PUSH1 0x1F NOT PUSH1 0x1F DUP3 ADD AND DUP3 ADD DUP1 PUSH1 0x40 MSTORE POP DUP2 ADD SWAP1 PUSH2 0xFC0 SWAP2 SWAP1 PUSH2 0x5312 JUMP JUMPDEST EQ PUSH2 0x1002 JUMPI DUP10 PUSH1 0x40 MLOAD PUSH32 0x678C5B0000000000000000000000000000000000000000000000000000000000 DUP2 MSTORE PUSH1 0x4 ADD PUSH2 0xFF9 SWAP2 SWAP1 PUSH2 0x5033 JUMP JUMPDEST PUSH1 0x40 MLOAD DUP1 SWAP2 SUB SWAP1 REVERT JUMPDEST PUSH0 PUSH2 0x100B PUSH2 0x35A8 JUMP JUMPDEST SWAP1 POP PUSH2 0x1023 DUP12 ADDRESS DUP5 DUP13 PUSH2 0x101E SWAP2 SWAP1 PUSH2 0x533D JUMP JUMPDEST PUSH2 0x30F1 JUMP JUMPDEST PUSH0 DUP3 EQ DUP1 PUSH2 0x105C JUMPI POP PUSH0 PUSH20 0xFFFFFFFFFFFFFFFFFFFFFFFFFFFFFFFFFFFFFFFF AND DUP2 PUSH20 0xFFFFFFFFFFFFFFFFFFFFFFFFFFFFFFFFFFFFFFFF AND EQ JUMPDEST ISZERO PUSH2 0x107B JUMPI PUSH2 0x1076 DUP12 DUP4 DUP12 PUSH2 0x1071 SWAP2 SWAP1 PUSH2 0x533D JUMP JUMPDEST PUSH2 0x35AC JUMP JUMPDEST PUSH2 0x1091 JUMP JUMPDEST PUSH2 0x1085 DUP12 DUP11 PUSH2 0x35AC JUMP JUMPDEST PUSH2 0x1090 DUP12 DUP3 DUP5 PUSH2 0x3184 JUMP JUMPDEST JUMPDEST PUSH1 0x1 SWAP6 POP POP POP POP POP POP SWAP6 SWAP5 POP POP POP POP POP JUMP JUMPDEST PUSH0 ADDRESS PUSH20 0xFFFFFFFFFFFFFFFFFFFFFFFFFFFFFFFFFFFFFFFF AND DUP3 PUSH20 0xFFFFFFFFFFFFFFFFFFFFFFFFFFFFFFFFFFFFFFFF AND EQ PUSH2 0x10DD JUMPI PUSH0 PUSH2 0x1111 JUMP JUMPDEST PUSH2 0x10E5 PUSH2 0xD33 JUMP JUMPDEST PUSH32 0xFFFFFFFFFFFFFFFFFFFFFFFFFFFFFFFFFFFFFFFFFFFFFFFFFFFFFFFFFFFFFFFF PUSH2 0x1110 SWAP2 SWAP1 PUSH2 0x5226 JUMP JUMPDEST JUMPDEST SWAP1 POP SWAP2 SWAP1 POP JUMP JUMPDEST PUSH0 ADDRESS PUSH20 0xFFFFFFFFFFFFFFFFFFFFFFFFFFFFFFFFFFFFFFFF AND PUSH4 0x70A08231 PUSH2 0x113D PUSH2 0xB5A JUMP JUMPDEST PUSH1 0x40 MLOAD DUP3 PUSH4 0xFFFFFFFF AND PUSH1 0xE0 SHL DUP2 MSTORE PUSH1 0x4 ADD PUSH2 0x1159 SWAP2 SWAP1 PUSH2 0x5033 JUMP JUMPDEST PUSH1 0x20 PUSH1 0x40 MLOAD DUP1 DUP4 SUB DUP2 DUP7 GAS STATICCALL ISZERO DUP1 ISZERO PUSH2 0x1174 JUMPI RETURNDATASIZE PUSH0 DUP1 RETURNDATACOPY RETURNDATASIZE PUSH0 REVERT JUMPDEST POP POP POP POP PUSH1 0x40 MLOAD RETURNDATASIZE PUSH1 0x1F NOT PUSH1 0x1F DUP3 ADD AND DUP3 ADD DUP1 PUSH1 0x40 MSTORE POP DUP2 ADD SWAP1 PUSH2 0x1198 SWAP2 SWAP1 PUSH2 0x5384 JUMP JUMPDEST SWAP1 POP SWAP1 JUMP JUMPDEST PUSH0 DUP1 PUSH0 DUP4 PUSH20 0xFFFFFFFFFFFFFFFFFFFFFFFFFFFFFFFFFFFFFFFF AND PUSH20 0xFFFFFFFFFFFFFFFFFFFFFFFFFFFFFFFFFFFFFFFF AND DUP2 MSTORE PUSH1 0x20 ADD SWAP1 DUP2 MSTORE PUSH1 0x20 ADD PUSH0 KECCAK256 SLOAD SWAP1 POP SWAP2 SWAP1 POP JUMP JUMPDEST PUSH1 0x11 PUSH0 SWAP1 SLOAD SWAP1 PUSH2 0x100 EXP SWAP1 DIV PUSH20 0xFFFFFFFFFFFFFFFFFFFFFFFFFFFFFFFFFFFFFFFF AND PUSH20 0xFFFFFFFFFFFFFFFFFFFFFFFFFFFFFFFFFFFFFFFF AND CALLER PUSH20 0xFFFFFFFFFFFFFFFFFFFFFFFFFFFFFFFFFFFFFFFF AND EQ PUSH2 0x1271 JUMPI PUSH1 0x40 MLOAD PUSH32 0x8C379A000000000000000000000000000000000000000000000000000000000 DUP2 MSTORE PUSH1 0x4 ADD PUSH2 0x1268 SWAP1 PUSH2 0x51DB JUMP JUMPDEST PUSH1 0x40 MLOAD DUP1 SWAP2 SUB SWAP1 REVERT JUMPDEST PUSH2 0x1279 PUSH2 0x362B JUMP JUMPDEST JUMP JUMPDEST PUSH1 0x11 PUSH0 SWAP1 SLOAD SWAP1 PUSH2 0x100 EXP SWAP1 DIV PUSH20 0xFFFFFFFFFFFFFFFFFFFFFFFFFFFFFFFFFFFFFFFF AND PUSH20 0xFFFFFFFFFFFFFFFFFFFFFFFFFFFFFFFFFFFFFFFF AND CALLER PUSH20 0xFFFFFFFFFFFFFFFFFFFFFFFFFFFFFFFFFFFFFFFF AND EQ PUSH2 0x130A JUMPI PUSH1 0x40 MLOAD PUSH32 0x8C379A000000000000000000000000000000000000000000000000000000000 DUP2 MSTORE PUSH1 0x4 ADD PUSH2 0x1301 SWAP1 PUSH2 0x51DB JUMP JUMPDEST PUSH1 0x40 MLOAD DUP1 SWAP2 SUB SWAP1 REVERT JUMPDEST PUSH1 0x5 DUP2 LT ISZERO DUP1 ISZERO PUSH2 0x131C JUMPI POP PUSH1 0x32 DUP2 GT ISZERO JUMPDEST PUSH2 0x135B JUMPI PUSH1 0x40 MLOAD PUSH32 0x8C379A000000000000000000000000000000000000000000000000000000000 DUP2 MSTORE PUSH1 0x4 ADD PUSH2 0x1352 SWAP1 PUSH2 0x53F9 JUMP JUMPDEST PUSH1 0x40 MLOAD DUP1 SWAP2 SUB SWAP1 REVERT JUMPDEST PUSH0 PUSH1 0x9 PUSH0 ADD SLOAD SWAP1 POP DUP2 PUSH1 0x9 PUSH0 ADD DUP2 SWAP1 SSTORE POP PUSH32 0x4B0D3912774C216D30C00B6C9F371801C6F52015168A3AD6D2FC21929CE939F8 DUP2 DUP4 PUSH1 0x40 MLOAD PUSH2 0x139D SWAP3 SWAP2 SWAP1 PUSH2 0x5417 JUMP JUMPDEST PUSH1 0x40 MLOAD DUP1 SWAP2 SUB SWAP1 LOG1 POP POP JUMP JUMPDEST PUSH0 PUSH2 0x13B4 DUP4 DUP4 PUSH2 0x368D JUMP JUMPDEST PUSH2 0x13BE DUP4 DUP4 PUSH2 0x3772 JUMP JUMPDEST PUSH0 PUSH1 0x6 PUSH0 DUP6 PUSH20 0xFFFFFFFFFFFFFFFFFFFFFFFFFFFFFFFFFFFFFFFF AND PUSH20 0xFFFFFFFFFFFFFFFFFFFFFFFFFFFFFFFFFFFFFFFF AND DUP2 MSTORE PUSH1 0x20 ADD SWAP1 DUP2 MSTORE PUSH1 0x20 ADD PUSH0 KECCAK256 PUSH0 DUP5 DUP2 MSTORE PUSH1 0x20 ADD SWAP1 DUP2 MSTORE PUSH1 0x20 ADD PUSH0 KECCAK256 PUSH0 ADD PUSH0 SWAP1 SLOAD SWAP1 PUSH2 0x100 EXP SWAP1 DIV PUSH20 0xFFFFFFFFFFFFFFFFFFFFFFFFFFFFFFFFFFFFFFFF AND SWAP1 POP PUSH0 PUSH1 0x6 PUSH0 DUP7 PUSH20 0xFFFFFFFFFFFFFFFFFFFFFFFFFFFFFFFFFFFFFFFF AND PUSH20 0xFFFFFFFFFFFFFFFFFFFFFFFFFFFFFFFFFFFFFFFF AND DUP2 MSTORE PUSH1 0x20 ADD SWAP1 DUP2 MSTORE PUSH1 0x20 ADD PUSH0 KECCAK256 PUSH0 DUP6 DUP2 MSTORE PUSH1 0x20 ADD SWAP1 DUP2 MSTORE PUSH1 0x20 ADD PUSH0 KECCAK256 PUSH1 0x1 ADD SLOAD SWAP1 POP PUSH1 0x6 PUSH0 DUP7 PUSH20 0xFFFFFFFFFFFFFFFFFFFFFFFFFFFFFFFFFFFFFFFF AND PUSH20 0xFFFFFFFFFFFFFFFFFFFFFFFFFFFFFFFFFFFFFFFF AND DUP2 MSTORE PUSH1 0x20 ADD SWAP1 DUP2 MSTORE PUSH1 0x20 ADD PUSH0 KECCAK256 PUSH0 DUP6 DUP2 MSTORE PUSH1 0x20 ADD SWAP1 DUP2 MSTORE PUSH1 0x20 ADD PUSH0 KECCAK256 PUSH0 DUP1 DUP3 ADD PUSH0 PUSH2 0x100 EXP DUP2 SLOAD SWAP1 PUSH20 0xFFFFFFFFFFFFFFFFFFFFFFFFFFFFFFFFFFFFFFFF MUL NOT AND SWAP1 SSTORE PUSH1 0x1 DUP3 ADD PUSH0 SWAP1 SSTORE POP POP DUP5 PUSH20 0xFFFFFFFFFFFFFFFFFFFFFFFFFFFFFFFFFFFFFFFF AND PUSH4 0x42842E0E ADDRESS CALLER DUP8 PUSH1 0x40 MLOAD DUP5 PUSH4 0xFFFFFFFF AND PUSH1 0xE0 SHL DUP2 MSTORE PUSH1 0x4 ADD PUSH2 0x153A SWAP4 SWAP3 SWAP2 SWAP1 PUSH2 0x543E JUMP JUMPDEST PUSH0 PUSH1 0x40 MLOAD DUP1 DUP4 SUB DUP2 PUSH0 DUP8 DUP1 EXTCODESIZE ISZERO DUP1 ISZERO PUSH2 0x1551 JUMPI PUSH0 DUP1 REVERT JUMPDEST POP GAS CALL ISZERO DUP1 ISZERO PUSH2 0x1563 JUMPI RETURNDATASIZE PUSH0 DUP1 RETURNDATACOPY RETURNDATASIZE PUSH0 REVERT JUMPDEST POP POP POP POP PUSH0 PUSH2 0x1575 DUP7 DUP7 DUP6 DUP6 CALLVALUE PUSH2 0x385B JUMP JUMPDEST SWAP1 POP DUP2 CALLVALUE GT ISZERO PUSH2 0x1595 JUMPI PUSH2 0x1594 CALLER DUP4 CALLVALUE PUSH2 0x158F SWAP2 SWAP1 PUSH2 0x5226 JUMP JUMPDEST PUSH2 0x394B JUMP JUMPDEST JUMPDEST CALLER PUSH20 0xFFFFFFFFFFFFFFFFFFFFFFFFFFFFFFFFFFFFFFFF AND DUP6 DUP8 PUSH20 0xFFFFFFFFFFFFFFFFFFFFFFFFFFFFFFFFFFFFFFFF AND PUSH32 0x46EEB8DF5D9354A8032630F20D4FA53DCF40CF7CF9C1285FEC36EAC468FFB537 DUP6 DUP8 PUSH1 0x40 MLOAD PUSH2 0x15F5 SWAP3 SWAP2 SWAP1 PUSH2 0x5473 JUMP JUMPDEST PUSH1 0x40 MLOAD DUP1 SWAP2 SUB SWAP1 LOG4 DUP1 SWAP4 POP POP POP POP SWAP3 SWAP2 POP POP JUMP JUMPDEST PUSH1 0x11 PUSH0 SWAP1 SLOAD SWAP1 PUSH2 0x100 EXP SWAP1 DIV PUSH20 0xFFFFFFFFFFFFFFFFFFFFFFFFFFFFFFFFFFFFFFFF AND PUSH20 0xFFFFFFFFFFFFFFFFFFFFFFFFFFFFFFFFFFFFFFFF AND CALLER PUSH20 0xFFFFFFFFFFFFFFFFFFFFFFFFFFFFFFFFFFFFFFFF AND EQ PUSH2 0x1698 JUMPI PUSH1 0x40 MLOAD PUSH32 0x8C379A000000000000000000000000000000000000000000000000000000000 DUP2 MSTORE PUSH1 0x4 ADD PUSH2 0x168F SWAP1 PUSH2 0x51DB JUMP JUMPDEST PUSH1 0x40 MLOAD DUP1 SWAP2 SUB SWAP1 REVERT JUMPDEST PUSH0 PUSH20 0xFFFFFFFFFFFFFFFFFFFFFFFFFFFFFFFFFFFFFFFF AND DUP2 PUSH20 0xFFFFFFFFFFFFFFFFFFFFFFFFFFFFFFFFFFFFFFFF AND SUB PUSH2 0x1706 JUMPI PUSH1 0x40 MLOAD PUSH32 0x8C379A000000000000000000000000000000000000000000000000000000000 DUP2 MSTORE PUSH1 0x4 ADD PUSH2 0x16FD SWAP1 PUSH2 0x54E4 JUMP JUMPDEST PUSH1 0x40 MLOAD DUP1 SWAP2 SUB SWAP1 REVERT JUMPDEST DUP1 PUSH1 0x11 PUSH0 PUSH2 0x100 EXP DUP2 SLOAD DUP2 PUSH20 0xFFFFFFFFFFFFFFFFFFFFFFFFFFFFFFFFFFFFFFFF MUL NOT AND SWAP1 DUP4 PUSH20 0xFFFFFFFFFFFFFFFFFFFFFFFFFFFFFFFFFFFFFFFF AND MUL OR SWAP1 SSTORE POP POP JUMP JUMPDEST PUSH0 DUP1 PUSH20 0xFFFFFFFFFFFFFFFFFFFFFFFFFFFFFFFFFFFFFFFF AND DUP3 PUSH20 0xFFFFFFFFFFFFFFFFFFFFFFFFFFFFFFFFFFFFFFFF AND SUB PUSH2 0x17B8 JUMPI PUSH1 0x40 MLOAD PUSH32 0x8C379A000000000000000000000000000000000000000000000000000000000 DUP2 MSTORE PUSH1 0x4 ADD PUSH2 0x17AF SWAP1 PUSH2 0x5096 JUMP JUMPDEST PUSH1 0x40 MLOAD DUP1 SWAP2 SUB SWAP1 REVERT JUMPDEST PUSH0 PUSH2 0x17C5 DUP5 PUSH1 0x1 CALLVALUE PUSH2 0x3A01 JUMP JUMPDEST SWAP1 POP DUP1 CALLVALUE LT ISZERO PUSH2 0x180E JUMPI CALLVALUE DUP2 PUSH1 0x40 MLOAD PUSH32 0xE2A993DC00000000000000000000000000000000000000000000000000000000 DUP2 MSTORE PUSH1 0x4 ADD PUSH2 0x1805 SWAP3 SWAP2 SWAP1 PUSH2 0x5417 JUMP JUMPDEST PUSH1 0x40 MLOAD DUP1 SWAP2 SUB SWAP1 REVERT JUMPDEST PUSH2 0x1819 DUP4 DUP3 DUP7 PUSH2 0x3021 JUMP JUMPDEST DUP1 CALLVALUE GT ISZERO PUSH2 0x1878 JUMPI PUSH2 0x1829 PUSH2 0xB5A JUMP JUMPDEST PUSH20 0xFFFFFFFFFFFFFFFFFFFFFFFFFFFFFFFFFFFFFFFF AND PUSH2 0x8FC DUP3 CALLVALUE PUSH2 0x184E SWAP2 SWAP1 PUSH2 0x5226 JUMP JUMPDEST SWAP1 DUP2 ISZERO MUL SWAP1 PUSH1 0x40 MLOAD PUSH0 PUSH1 0x40 MLOAD DUP1 DUP4 SUB DUP2 DUP6 DUP9 DUP9 CALL SWAP4 POP POP POP POP ISZERO DUP1 ISZERO PUSH2 0x1876 JUMPI RETURNDATASIZE PUSH0 DUP1 RETURNDATACOPY RETURNDATASIZE PUSH0 REVERT JUMPDEST POP JUMPDEST DUP1 SWAP2 POP POP SWAP3 SWAP2 POP POP JUMP JUMPDEST PUSH1 0x60 PUSH1 0x4 DUP1 SLOAD PUSH2 0x1891 SWAP1 PUSH2 0x50E1 JUMP JUMPDEST DUP1 PUSH1 0x1F ADD PUSH1 0x20 DUP1 SWAP2 DIV MUL PUSH1 0x20 ADD PUSH1 0x40 MLOAD SWAP1 DUP2 ADD PUSH1 0x40 MSTORE DUP1 SWAP3 SWAP2 SWAP1 DUP2 DUP2 MSTORE PUSH1 0x20 ADD DUP3 DUP1 SLOAD PUSH2 0x18BD SWAP1 PUSH2 0x50E1 JUMP JUMPDEST DUP1 ISZERO PUSH2 0x1908 JUMPI DUP1 PUSH1 0x1F LT PUSH2 0x18DF JUMPI PUSH2 0x100 DUP1 DUP4 SLOAD DIV MUL DUP4 MSTORE SWAP2 PUSH1 0x20 ADD SWAP2 PUSH2 0x1908 JUMP JUMPDEST DUP3 ADD SWAP2 SWAP1 PUSH0 MSTORE PUSH1 0x20 PUSH0 KECCAK256 SWAP1 JUMPDEST DUP2 SLOAD DUP2 MSTORE SWAP1 PUSH1 0x1 ADD SWAP1 PUSH1 0x20 ADD DUP1 DUP4 GT PUSH2 0x18EB JUMPI DUP3 SWAP1 SUB PUSH1 0x1F AND DUP3 ADD SWAP2 JUMPDEST POP POP POP POP POP SWAP1 POP SWAP1 JUMP JUMPDEST PUSH1 0x10 PUSH1 0x20 MSTORE DUP1 PUSH0 MSTORE PUSH1 0x40 PUSH0 KECCAK256 PUSH0 SWAP2 POP SWAP1 POP SLOAD DUP2 JUMP JUMPDEST PUSH1 0x11 PUSH0 SWAP1 SLOAD SWAP1 PUSH2 0x100 EXP SWAP1 DIV PUSH20 0xFFFFFFFFFFFFFFFFFFFFFFFFFFFFFFFFFFFFFFFF AND PUSH20 0xFFFFFFFFFFFFFFFFFFFFFFFFFFFFFFFFFFFFFFFF AND CALLER PUSH20 0xFFFFFFFFFFFFFFFFFFFFFFFFFFFFFFFFFFFFFFFF AND EQ PUSH2 0x19B6 JUMPI PUSH1 0x40 MLOAD PUSH32 0x8C379A000000000000000000000000000000000000000000000000000000000 DUP2 MSTORE PUSH1 0x4 ADD PUSH2 0x19AD SWAP1 PUSH2 0x51DB JUMP JUMPDEST PUSH1 0x40 MLOAD DUP1 SWAP2 SUB SWAP1 REVERT JUMPDEST PUSH1 0x2 DUP2 LT ISZERO DUP1 ISZERO PUSH2 0x19C8 JUMPI POP PUSH1 0x1E DUP2 GT ISZERO JUMPDEST PUSH2 0x1A07 JUMPI PUSH1 0x40 MLOAD PUSH32 0x8C379A000000000000000000000000000000000000000000000000000000000 DUP2 MSTORE PUSH1 0x4 ADD PUSH2 0x19FE SWAP1 PUSH2 0x554C JUMP JUMPDEST PUSH1 0x40 MLOAD DUP1 SWAP2 SUB SWAP1 REVERT JUMPDEST PUSH0 PUSH1 0x9 PUSH1 0x2 ADD SLOAD SWAP1 POP DUP2 PUSH1 0x9 PUSH1 0x2 ADD DUP2 SWAP1 SSTORE POP PUSH32 0x7CE0D8B21A288D3BA8F33F944E596D1488D12039E2D3DB592C2EAC6516089906 DUP2 DUP4 PUSH1 0x40 MLOAD PUSH2 0x1A4B SWAP3 SWAP2 SWAP1 PUSH2 0x5417 JUMP JUMPDEST PUSH1 0x40 MLOAD DUP1 SWAP2 SUB SWAP1 LOG1 POP POP JUMP JUMPDEST PUSH0 DUP1 PUSH2 0x1A61 PUSH2 0xB5A JUMP JUMPDEST SWAP1 POP PUSH2 0x1A6E DUP2 DUP6 DUP6 PUSH2 0x3184 JUMP JUMPDEST PUSH1 0x1 SWAP2 POP POP SWAP3 SWAP2 POP POP JUMP JUMPDEST PUSH1 0x11 PUSH0 SWAP1 SLOAD SWAP1 PUSH2 0x100 EXP SWAP1 DIV PUSH20 0xFFFFFFFFFFFFFFFFFFFFFFFFFFFFFFFFFFFFFFFF AND PUSH20 0xFFFFFFFFFFFFFFFFFFFFFFFFFFFFFFFFFFFFFFFF AND CALLER PUSH20 0xFFFFFFFFFFFFFFFFFFFFFFFFFFFFFFFFFFFFFFFF AND EQ PUSH2 0x1B08 JUMPI PUSH1 0x40 MLOAD PUSH32 0x8C379A000000000000000000000000000000000000000000000000000000000 DUP2 MSTORE PUSH1 0x4 ADD PUSH2 0x1AFF SWAP1 PUSH2 0x51DB JUMP JUMPDEST PUSH1 0x40 MLOAD DUP1 SWAP2 SUB SWAP1 REVERT JUMPDEST PUSH1 0x10 PUSH0 DUP4 PUSH20 0xFFFFFFFFFFFFFFFFFFFFFFFFFFFFFFFFFFFFFFFF AND PUSH20 0xFFFFFFFFFFFFFFFFFFFFFFFFFFFFFFFFFFFFFFFF AND DUP2 MSTORE PUSH1 0x20 ADD SWAP1 DUP2 MSTORE PUSH1 0x20 ADD PUSH0 KECCAK256 SLOAD DUP2 GT PUSH2 0x1B87 JUMPI PUSH1 0x40 MLOAD PUSH32 0x8C379A000000000000000000000000000000000000000000000000000000000 DUP2 MSTORE PUSH1 0x4 ADD PUSH2 0x1B7E SWAP1 PUSH2 0x55B4 JUMP JUMPDEST PUSH1 0x40 MLOAD DUP1 SWAP2 SUB SWAP1 REVERT JUMPDEST DUP1 PUSH1 0x10 PUSH0 DUP5 PUSH20 0xFFFFFFFFFFFFFFFFFFFFFFFFFFFFFFFFFFFFFFFF AND PUSH20 0xFFFFFFFFFFFFFFFFFFFFFFFFFFFFFFFFFFFFFFFF AND DUP2 MSTORE PUSH1 0x20 ADD SWAP1 DUP2 MSTORE PUSH1 0x20 ADD PUSH0 KECCAK256 DUP2 SWAP1 SSTORE POP POP POP JUMP JUMPDEST PUSH0 PUSH2 0x1BDA DUP3 PUSH1 0x1 PUSH0 PUSH2 0x3A01 JUMP JUMPDEST SWAP1 POP SWAP2 SWAP1 POP JUMP JUMPDEST PUSH0 DUP1 PUSH20 0xFFFFFFFFFFFFFFFFFFFFFFFFFFFFFFFFFFFFFFFF AND DUP4 PUSH20 0xFFFFFFFFFFFFFFFFFFFFFFFFFFFFFFFFFFFFFFFF AND SUB PUSH2 0x1C50 JUMPI PUSH1 0x40 MLOAD PUSH32 0x8C379A000000000000000000000000000000000000000000000000000000000 DUP2 MSTORE PUSH1 0x4 ADD PUSH2 0x1C47 SWAP1 PUSH2 0x5096 JUMP JUMPDEST PUSH1 0x40 MLOAD DUP1 SWAP2 SUB SWAP1 REVERT JUMPDEST PUSH0 PUSH20 0xFFFFFFFFFFFFFFFFFFFFFFFFFFFFFFFFFFFFFFFF AND DUP3 PUSH20 0xFFFFFFFFFFFFFFFFFFFFFFFFFFFFFFFFFFFFFFFF AND SUB PUSH2 0x1CBE JUMPI PUSH1 0x40 MLOAD PUSH32 0x8C379A000000000000000000000000000000000000000000000000000000000 DUP2 MSTORE PUSH1 0x4 ADD PUSH2 0x1CB5 SWAP1 PUSH2 0x561C JUMP JUMPDEST PUSH1 0x40 MLOAD DUP1 SWAP2 SUB SWAP1 REVERT JUMPDEST PUSH0 DUP1 PUSH2 0x1CC9 DUP7 PUSH2 0x30B0 JUMP JUMPDEST SWAP2 POP SWAP2 POP PUSH0 PUSH2 0x1CE3 DUP3 PUSH1 0x1 DUP10 PUSH2 0x1CDD PUSH2 0xB5A JUMP JUMPDEST DUP10 PUSH2 0x3A65 JUMP JUMPDEST SWAP1 POP PUSH2 0x1D04 PUSH2 0x1CF0 PUSH2 0xB5A JUMP JUMPDEST DUP8 DUP8 DUP5 DUP12 PUSH2 0x1CFE SWAP2 SWAP1 PUSH2 0x533D JUMP JUMPDEST DUP8 PUSH2 0x3CB1 JUMP JUMPDEST DUP3 SWAP4 POP POP POP POP SWAP4 SWAP3 POP POP POP JUMP JUMPDEST PUSH1 0x7 SLOAD DUP2 JUMP JUMPDEST PUSH1 0x11 PUSH0 SWAP1 SLOAD SWAP1 PUSH2 0x100 EXP SWAP1 DIV PUSH20 0xFFFFFFFFFFFFFFFFFFFFFFFFFFFFFFFFFFFFFFFF AND PUSH20 0xFFFFFFFFFFFFFFFFFFFFFFFFFFFFFFFFFFFFFFFF AND CALLER PUSH20 0xFFFFFFFFFFFFFFFFFFFFFFFFFFFFFFFFFFFFFFFF AND EQ PUSH2 0x1DA6 JUMPI PUSH1 0x40 MLOAD PUSH32 0x8C379A000000000000000000000000000000000000000000000000000000000 DUP2 MSTORE PUSH1 0x4 ADD PUSH2 0x1D9D SWAP1 PUSH2 0x51DB JUMP JUMPDEST PUSH1 0x40 MLOAD DUP1 SWAP2 SUB SWAP1 REVERT JUMPDEST PUSH0 PUSH20 0xFFFFFFFFFFFFFFFFFFFFFFFFFFFFFFFFFFFFFFFF AND DUP2 PUSH20 0xFFFFFFFFFFFFFFFFFFFFFFFFFFFFFFFFFFFFFFFF AND SUB PUSH2 0x1E14 JUMPI PUSH1 0x40 MLOAD PUSH32 0x8C379A000000000000000000000000000000000000000000000000000000000 DUP2 MSTORE PUSH1 0x4 ADD PUSH2 0x1E0B SWAP1 PUSH2 0x5684 JUMP JUMPDEST PUSH1 0x40 MLOAD DUP1 SWAP2 SUB SWAP1 REVERT JUMPDEST DUP1 PUSH20 0xFFFFFFFFFFFFFFFFFFFFFFFFFFFFFFFFFFFFFFFF AND ADDRESS PUSH20 0xFFFFFFFFFFFFFFFFFFFFFFFFFFFFFFFFFFFFFFFF AND SUB PUSH2 0x1E82 JUMPI PUSH1 0x40 MLOAD PUSH32 0x8C379A000000000000000000000000000000000000000000000000000000000 DUP2 MSTORE PUSH1 0x4 ADD PUSH2 0x1E79 SWAP1 PUSH2 0x5684 JUMP JUMPDEST PUSH1 0x40 MLOAD DUP1 SWAP2 SUB SWAP1 REVERT JUMPDEST PUSH1 0x8 PUSH0 DUP3 PUSH20 0xFFFFFFFFFFFFFFFFFFFFFFFFFFFFFFFFFFFFFFFF AND PUSH20 0xFFFFFFFFFFFFFFFFFFFFFFFFFFFFFFFFFFFFFFFF AND DUP2 MSTORE PUSH1 0x20 ADD SWAP1 DUP2 MSTORE PUSH1 0x20 ADD PUSH0 KECCAK256 PUSH0 SWAP1 SLOAD SWAP1 PUSH2 0x100 EXP SWAP1 DIV PUSH1 0xFF AND ISZERO PUSH2 0x1F0C JUMPI PUSH1 0x40 MLOAD PUSH32 0x8C379A000000000000000000000000000000000000000000000000000000000 DUP2 MSTORE PUSH1 0x4 ADD PUSH2 0x1F03 SWAP1 PUSH2 0x56EC JUMP JUMPDEST PUSH1 0x40 MLOAD DUP1 SWAP2 SUB SWAP1 REVERT JUMPDEST DUP1 PUSH20 0xFFFFFFFFFFFFFFFFFFFFFFFFFFFFFFFFFFFFFFFF AND PUSH4 0x1FFC9A7 PUSH32 0x80AC58CD00000000000000000000000000000000000000000000000000000000 PUSH1 0x40 MLOAD DUP3 PUSH4 0xFFFFFFFF AND PUSH1 0xE0 SHL DUP2 MSTORE PUSH1 0x4 ADD PUSH2 0x1F65 SWAP2 SWAP1 PUSH2 0x4BF7 JUMP JUMPDEST PUSH1 0x20 PUSH1 0x40 MLOAD DUP1 DUP4 SUB DUP2 DUP7 GAS STATICCALL ISZERO DUP1 ISZERO PUSH2 0x1F80 JUMPI RETURNDATASIZE PUSH0 DUP1 RETURNDATACOPY RETURNDATASIZE PUSH0 REVERT JUMPDEST POP POP POP POP PUSH1 0x40 MLOAD RETURNDATASIZE PUSH1 0x1F NOT PUSH1 0x1F DUP3 ADD AND DUP3 ADD DUP1 PUSH1 0x40 MSTORE POP DUP2 ADD SWAP1 PUSH2 0x1FA4 SWAP2 SWAP1 PUSH2 0x5734 JUMP JUMPDEST PUSH2 0x1FE3 JUMPI PUSH1 0x40 MLOAD PUSH32 0x8C379A000000000000000000000000000000000000000000000000000000000 DUP2 MSTORE PUSH1 0x4 ADD PUSH2 0x1FDA SWAP1 PUSH2 0x57A9 JUMP JUMPDEST PUSH1 0x40 MLOAD DUP1 SWAP2 SUB SWAP1 REVERT JUMPDEST PUSH1 0x1 PUSH1 0x8 PUSH0 DUP4 PUSH20 0xFFFFFFFFFFFFFFFFFFFFFFFFFFFFFFFFFFFFFFFF AND PUSH20 0xFFFFFFFFFFFFFFFFFFFFFFFFFFFFFFFFFFFFFFFF AND DUP2 MSTORE PUSH1 0x20 ADD SWAP1 DUP2 MSTORE PUSH1 0x20 ADD PUSH0 KECCAK256 PUSH0 PUSH2 0x100 EXP DUP2 SLOAD DUP2 PUSH1 0xFF MUL NOT AND SWAP1 DUP4 ISZERO ISZERO MUL OR SWAP1 SSTORE POP DUP1 PUSH20 0xFFFFFFFFFFFFFFFFFFFFFFFFFFFFFFFFFFFFFFFF AND PUSH32 0x37FB5467CDF7DCB833B3C07D10482C6019526966533FC80293B05CD19EA55A68 PUSH1 0x40 MLOAD PUSH1 0x40 MLOAD DUP1 SWAP2 SUB SWAP1 LOG2 POP JUMP JUMPDEST PUSH0 DUP1 PUSH20 0xFFFFFFFFFFFFFFFFFFFFFFFFFFFFFFFFFFFFFFFF AND DUP4 PUSH20 0xFFFFFFFFFFFFFFFFFFFFFFFFFFFFFFFFFFFFFFFF AND SUB PUSH2 0x20ED JUMPI PUSH1 0x40 MLOAD PUSH32 0x8C379A000000000000000000000000000000000000000000000000000000000 DUP2 MSTORE PUSH1 0x4 ADD PUSH2 0x20E4 SWAP1 PUSH2 0x5096 JUMP JUMPDEST PUSH1 0x40 MLOAD DUP1 SWAP2 SUB SWAP1 REVERT JUMPDEST PUSH0 PUSH20 0xFFFFFFFFFFFFFFFFFFFFFFFFFFFFFFFFFFFFFFFF AND DUP3 PUSH20 0xFFFFFFFFFFFFFFFFFFFFFFFFFFFFFFFFFFFFFFFF AND SUB PUSH2 0x215B JUMPI PUSH1 0x40 MLOAD PUSH32 0x8C379A000000000000000000000000000000000000000000000000000000000 DUP2 MSTORE PUSH1 0x4 ADD PUSH2 0x2152 SWAP1 PUSH2 0x561C JUMP JUMPDEST PUSH1 0x40 MLOAD DUP1 SWAP2 SUB SWAP1 REVERT JUMPDEST PUSH0 DUP1 PUSH2 0x2166 DUP7 PUSH2 0x32D5 JUMP JUMPDEST SWAP2 POP SWAP2 POP PUSH0 PUSH2 0x2180 DUP3 PUSH1 0x1 DUP6 PUSH2 0x217A PUSH2 0xB5A JUMP JUMPDEST DUP10 PUSH2 0x3A65 JUMP JUMPDEST SWAP1 POP PUSH2 0x21A1 PUSH2 0x218D PUSH2 0xB5A JUMP JUMPDEST DUP8 DUP8 DUP5 DUP8 PUSH2 0x219B SWAP2 SWAP1 PUSH2 0x533D JUMP JUMPDEST DUP12 PUSH2 0x3CB1 JUMP JUMPDEST DUP3 SWAP4 POP POP POP POP SWAP4 SWAP3 POP POP POP JUMP JUMPDEST DUP3 DUP3 CALLER PUSH20 0xFFFFFFFFFFFFFFFFFFFFFFFFFFFFFFFFFFFFFFFF AND PUSH1 0x6 PUSH0 DUP5 PUSH20 0xFFFFFFFFFFFFFFFFFFFFFFFFFFFFFFFFFFFFFFFF AND PUSH20 0xFFFFFFFFFFFFFFFFFFFFFFFFFFFFFFFFFFFFFFFF AND DUP2 MSTORE PUSH1 0x20 ADD SWAP1 DUP2 MSTORE PUSH1 0x20 ADD PUSH0 KECCAK256 PUSH0 DUP4 DUP2 MSTORE PUSH1 0x20 ADD SWAP1 DUP2 MSTORE PUSH1 0x20 ADD PUSH0 KECCAK256 PUSH0 ADD PUSH0 SWAP1 SLOAD SWAP1 PUSH2 0x100 EXP SWAP1 DIV PUSH20 0xFFFFFFFFFFFFFFFFFFFFFFFFFFFFFFFFFFFFFFFF AND PUSH20 0xFFFFFFFFFFFFFFFFFFFFFFFFFFFFFFFFFFFFFFFF AND EQ PUSH2 0x228B JUMPI PUSH1 0x40 MLOAD PUSH32 0x8C379A000000000000000000000000000000000000000000000000000000000 DUP2 MSTORE PUSH1 0x4 ADD PUSH2 0x2282 SWAP1 PUSH2 0x51DB JUMP JUMPDEST PUSH1 0x40 MLOAD DUP1 SWAP2 SUB SWAP1 REVERT JUMPDEST PUSH2 0x2295 DUP6 DUP6 PUSH2 0x368D JUMP JUMPDEST PUSH0 PUSH1 0x6 PUSH0 DUP8 PUSH20 0xFFFFFFFFFFFFFFFFFFFFFFFFFFFFFFFFFFFFFFFF AND PUSH20 0xFFFFFFFFFFFFFFFFFFFFFFFFFFFFFFFFFFFFFFFF AND DUP2 MSTORE PUSH1 0x20 ADD SWAP1 DUP2 MSTORE PUSH1 0x20 ADD PUSH0 KECCAK256 PUSH0 DUP7 DUP2 MSTORE PUSH1 0x20 ADD SWAP1 DUP2 MSTORE PUSH1 0x20 ADD PUSH0 KECCAK256 PUSH1 0x1 ADD SLOAD SWAP1 POP DUP4 PUSH1 0x6 PUSH0 DUP9 PUSH20 0xFFFFFFFFFFFFFFFFFFFFFFFFFFFFFFFFFFFFFFFF AND PUSH20 0xFFFFFFFFFFFFFFFFFFFFFFFFFFFFFFFFFFFFFFFF AND DUP2 MSTORE PUSH1 0x20 ADD SWAP1 DUP2 MSTORE PUSH1 0x20 ADD PUSH0 KECCAK256 PUSH0 DUP8 DUP2 MSTORE PUSH1 0x20 ADD SWAP1 DUP2 MSTORE PUSH1 0x20 ADD PUSH0 KECCAK256 PUSH1 0x1 ADD DUP2 SWAP1 SSTORE POP DUP5 DUP7 PUSH20 0xFFFFFFFFFFFFFFFFFFFFFFFFFFFFFFFFFFFFFFFF AND PUSH32 0x6977A36EDC91FB22B7BC2D5D47822F29AEE4197EA453342AE1E855FAF2DE067F DUP4 DUP8 PUSH1 0x40 MLOAD PUSH2 0x2385 SWAP3 SWAP2 SWAP1 PUSH2 0x5417 JUMP JUMPDEST PUSH1 0x40 MLOAD DUP1 SWAP2 SUB SWAP1 LOG3 POP POP POP POP POP POP JUMP JUMPDEST PUSH0 PUSH1 0x10 PUSH0 DUP4 PUSH20 0xFFFFFFFFFFFFFFFFFFFFFFFFFFFFFFFFFFFFFFFF AND PUSH20 0xFFFFFFFFFFFFFFFFFFFFFFFFFFFFFFFFFFFFFFFF AND DUP2 MSTORE PUSH1 0x20 ADD SWAP1 DUP2 MSTORE PUSH1 0x20 ADD PUSH0 KECCAK256 SLOAD SWAP1 POP SWAP2 SWAP1 POP JUMP JUMPDEST PUSH0 ADDRESS PUSH20 0xFFFFFFFFFFFFFFFFFFFFFFFFFFFFFFFFFFFFFFFF AND PUSH4 0x70A08231 DUP4 PUSH1 0x40 MLOAD DUP3 PUSH4 0xFFFFFFFF AND PUSH1 0xE0 SHL DUP2 MSTORE PUSH1 0x4 ADD PUSH2 0x2415 SWAP2 SWAP1 PUSH2 0x5033 JUMP JUMPDEST PUSH1 0x20 PUSH1 0x40 MLOAD DUP1 DUP4 SUB DUP2 DUP7 GAS STATICCALL ISZERO DUP1 ISZERO PUSH2 0x2430 JUMPI RETURNDATASIZE PUSH0 DUP1 RETURNDATACOPY RETURNDATASIZE PUSH0 REVERT JUMPDEST POP POP POP POP PUSH1 0x40 MLOAD RETURNDATASIZE PUSH1 0x1F NOT PUSH1 0x1F DUP3 ADD AND DUP3 ADD DUP1 PUSH1 0x40 MSTORE POP DUP2 ADD SWAP1 PUSH2 0x2454 SWAP2 SWAP1 PUSH2 0x5384 JUMP JUMPDEST SWAP1 POP SWAP2 SWAP1 POP JUMP JUMPDEST PUSH0 ADDRESS PUSH20 0xFFFFFFFFFFFFFFFFFFFFFFFFFFFFFFFFFFFFFFFF AND DUP4 PUSH20 0xFFFFFFFFFFFFFFFFFFFFFFFFFFFFFFFFFFFFFFFF AND EQ PUSH2 0x24CC JUMPI DUP3 PUSH1 0x40 MLOAD PUSH32 0xB5A7DB9200000000000000000000000000000000000000000000000000000000 DUP2 MSTORE PUSH1 0x4 ADD PUSH2 0x24C3 SWAP2 SWAP1 PUSH2 0x5033 JUMP JUMPDEST PUSH1 0x40 MLOAD DUP1 SWAP2 SUB SWAP1 REVERT JUMPDEST PUSH2 0x24D6 DUP4 DUP4 PUSH2 0x3D89 JUMP JUMPDEST SWAP1 POP SWAP3 SWAP2 POP POP JUMP JUMPDEST PUSH0 DUP1 PUSH0 PUSH2 0x24EB DUP6 DUP6 PUSH2 0x368D JUMP JUMPDEST PUSH1 0x6 PUSH0 DUP7 PUSH20 0xFFFFFFFFFFFFFFFFFFFFFFFFFFFFFFFFFFFFFFFF AND PUSH20 0xFFFFFFFFFFFFFFFFFFFFFFFFFFFFFFFFFFFFFFFF AND DUP2 MSTORE PUSH1 0x20 ADD SWAP1 DUP2 MSTORE PUSH1 0x20 ADD PUSH0 KECCAK256 PUSH0 DUP6 DUP2 MSTORE PUSH1 0x20 ADD SWAP1 DUP2 MSTORE PUSH1 0x20 ADD PUSH0 KECCAK256 PUSH0 ADD PUSH0 SWAP1 SLOAD SWAP1 PUSH2 0x100 EXP SWAP1 DIV PUSH20 0xFFFFFFFFFFFFFFFFFFFFFFFFFFFFFFFFFFFFFFFF AND SWAP3 POP PUSH1 0x6 PUSH0 DUP7 PUSH20 0xFFFFFFFFFFFFFFFFFFFFFFFFFFFFFFFFFFFFFFFF AND PUSH20 0xFFFFFFFFFFFFFFFFFFFFFFFFFFFFFFFFFFFFFFFF AND DUP2 MSTORE PUSH1 0x20 ADD SWAP1 DUP2 MSTORE PUSH1 0x20 ADD PUSH0 KECCAK256 PUSH0 DUP6 DUP2 MSTORE PUSH1 0x20 ADD SWAP1 DUP2 MSTORE PUSH1 0x20 ADD PUSH0 KECCAK256 PUSH1 0x1 ADD SLOAD SWAP2 POP PUSH2 0x25B6 DUP3 PUSH2 0x2C83 JUMP JUMPDEST SWAP1 POP SWAP3 POP SWAP3 POP SWAP3 JUMP JUMPDEST PUSH0 PUSH1 0x1 PUSH0 DUP5 PUSH20 0xFFFFFFFFFFFFFFFFFFFFFFFFFFFFFFFFFFFFFFFF AND PUSH20 0xFFFFFFFFFFFFFFFFFFFFFFFFFFFFFFFFFFFFFFFF AND DUP2 MSTORE PUSH1 0x20 ADD SWAP1 DUP2 MSTORE PUSH1 0x20 ADD PUSH0 KECCAK256 PUSH0 DUP4 PUSH20 0xFFFFFFFFFFFFFFFFFFFFFFFFFFFFFFFFFFFFFFFF AND PUSH20 0xFFFFFFFFFFFFFFFFFFFFFFFFFFFFFFFFFFFFFFFF AND DUP2 MSTORE PUSH1 0x20 ADD SWAP1 DUP2 MSTORE PUSH1 0x20 ADD PUSH0 KECCAK256 SLOAD SWAP1 POP SWAP3 SWAP2 POP POP JUMP JUMPDEST PUSH1 0x11 PUSH0 SWAP1 SLOAD SWAP1 PUSH2 0x100 EXP SWAP1 DIV PUSH20 0xFFFFFFFFFFFFFFFFFFFFFFFFFFFFFFFFFFFFFFFF AND PUSH20 0xFFFFFFFFFFFFFFFFFFFFFFFFFFFFFFFFFFFFFFFF AND CALLER PUSH20 0xFFFFFFFFFFFFFFFFFFFFFFFFFFFFFFFFFFFFFFFF AND EQ PUSH2 0x26D0 JUMPI PUSH1 0x40 MLOAD PUSH32 0x8C379A000000000000000000000000000000000000000000000000000000000 DUP2 MSTORE PUSH1 0x4 ADD PUSH2 0x26C7 SWAP1 PUSH2 0x51DB JUMP JUMPDEST PUSH1 0x40 MLOAD DUP1 SWAP2 SUB SWAP1 REVERT JUMPDEST PUSH0 PUSH20 0xFFFFFFFFFFFFFFFFFFFFFFFFFFFFFFFFFFFFFFFF AND DUP2 PUSH20 0xFFFFFFFFFFFFFFFFFFFFFFFFFFFFFFFFFFFFFFFF AND SUB PUSH2 0x273E JUMPI PUSH1 0x40 MLOAD PUSH32 0x8C379A000000000000000000000000000000000000000000000000000000000 DUP2 MSTORE PUSH1 0x4 ADD PUSH2 0x2735 SWAP1 PUSH2 0x5811 JUMP JUMPDEST PUSH1 0x40 MLOAD DUP1 SWAP2 SUB SWAP1 REVERT JUMPDEST PUSH1 0x8 PUSH0 DUP3 PUSH20 0xFFFFFFFFFFFFFFFFFFFFFFFFFFFFFFFFFFFFFFFF AND PUSH20 0xFFFFFFFFFFFFFFFFFFFFFFFFFFFFFFFFFFFFFFFF AND DUP2 MSTORE PUSH1 0x20 ADD SWAP1 DUP2 MSTORE PUSH1 0x20 ADD PUSH0 KECCAK256 PUSH0 PUSH2 0x100 EXP DUP2 SLOAD SWAP1 PUSH1 0xFF MUL NOT AND SWAP1 SSTORE DUP1 PUSH20 0xFFFFFFFFFFFFFFFFFFFFFFFFFFFFFFFFFFFFFFFF AND PUSH32 0x13D42F38AA17FE3792989C026A1B89B975EE252624A7D09716C1C7D5535FE945 PUSH1 0x40 MLOAD PUSH1 0x40 MLOAD DUP1 SWAP2 SUB SWAP1 LOG2 POP JUMP JUMPDEST PUSH0 DUP4 SWAP1 POP PUSH2 0x27DD DUP2 PUSH2 0x3DB1 JUMP JUMPDEST PUSH2 0x27E7 DUP5 DUP5 PUSH2 0x3E3F JUMP JUMPDEST CALLER PUSH1 0x6 PUSH0 DUP4 PUSH20 0xFFFFFFFFFFFFFFFFFFFFFFFFFFFFFFFFFFFFFFFF AND PUSH20 0xFFFFFFFFFFFFFFFFFFFFFFFFFFFFFFFFFFFFFFFF AND DUP2 MSTORE PUSH1 0x20 ADD SWAP1 DUP2 MSTORE PUSH1 0x20 ADD PUSH0 KECCAK256 PUSH0 DUP6 DUP2 MSTORE PUSH1 0x20 ADD SWAP1 DUP2 MSTORE PUSH1 0x20 ADD PUSH0 KECCAK256 PUSH0 ADD PUSH0 PUSH2 0x100 EXP DUP2 SLOAD DUP2 PUSH20 0xFFFFFFFFFFFFFFFFFFFFFFFFFFFFFFFFFFFFFFFF MUL NOT AND SWAP1 DUP4 PUSH20 0xFFFFFFFFFFFFFFFFFFFFFFFFFFFFFFFFFFFFFFFF AND MUL OR SWAP1 SSTORE POP DUP2 PUSH1 0x6 PUSH0 DUP4 PUSH20 0xFFFFFFFFFFFFFFFFFFFFFFFFFFFFFFFFFFFFFFFF AND PUSH20 0xFFFFFFFFFFFFFFFFFFFFFFFFFFFFFFFFFFFFFFFF AND DUP2 MSTORE PUSH1 0x20 ADD SWAP1 DUP2 MSTORE PUSH1 0x20 ADD PUSH0 KECCAK256 PUSH0 DUP6 DUP2 MSTORE PUSH1 0x20 ADD SWAP1 DUP2 MSTORE PUSH1 0x20 ADD PUSH0 KECCAK256 PUSH1 0x1 ADD DUP2 SWAP1 SSTORE POP PUSH2 0x28D1 DUP5 DUP5 PUSH2 0x3FDD JUMP JUMPDEST CALLER PUSH20 0xFFFFFFFFFFFFFFFFFFFFFFFFFFFFFFFFFFFFFFFF AND DUP4 DUP3 PUSH20 0xFFFFFFFFFFFFFFFFFFFFFFFFFFFFFFFFFFFFFFFF AND PUSH32 0x327E4F2FE0FA4F636FD95D07093F24EA69103F710F4B0A70505A5374E542E6E2 PUSH1 0x40 MLOAD PUSH1 0x40 MLOAD DUP1 SWAP2 SUB SWAP1 LOG4 POP POP POP POP JUMP JUMPDEST PUSH1 0x11 PUSH0 SWAP1 SLOAD SWAP1 PUSH2 0x100 EXP SWAP1 DIV PUSH20 0xFFFFFFFFFFFFFFFFFFFFFFFFFFFFFFFFFFFFFFFF AND PUSH20 0xFFFFFFFFFFFFFFFFFFFFFFFFFFFFFFFFFFFFFFFF AND CALLER PUSH20 0xFFFFFFFFFFFFFFFFFFFFFFFFFFFFFFFFFFFFFFFF AND EQ PUSH2 0x29C1 JUMPI PUSH1 0x40 MLOAD PUSH32 0x8C379A000000000000000000000000000000000000000000000000000000000 DUP2 MSTORE PUSH1 0x4 ADD PUSH2 0x29B8 SWAP1 PUSH2 0x51DB JUMP JUMPDEST PUSH1 0x40 MLOAD DUP1 SWAP2 SUB SWAP1 REVERT JUMPDEST PUSH1 0x1 DUP2 LT ISZERO DUP1 ISZERO PUSH2 0x29D3 JUMPI POP PUSH1 0xA DUP2 GT ISZERO JUMPDEST PUSH2 0x2A12 JUMPI PUSH1 0x40 MLOAD PUSH32 0x8C379A000000000000000000000000000000000000000000000000000000000 DUP2 MSTORE PUSH1 0x4 ADD PUSH2 0x2A09 SWAP1 PUSH2 0x5879 JUMP JUMPDEST PUSH1 0x40 MLOAD DUP1 SWAP2 SUB SWAP1 REVERT JUMPDEST PUSH0 PUSH1 0x9 PUSH1 0x4 ADD SLOAD SWAP1 POP DUP2 PUSH1 0x9 PUSH1 0x4 ADD DUP2 SWAP1 SSTORE POP PUSH32 0x7CE0D8B21A288D3BA8F33F944E596D1488D12039E2D3DB592C2EAC6516089906 DUP2 DUP4 PUSH1 0x40 MLOAD PUSH2 0x2A56 SWAP3 SWAP2 SWAP1 PUSH2 0x5417 JUMP JUMPDEST PUSH1 0x40 MLOAD DUP1 SWAP2 SUB SWAP1 LOG1 POP POP JUMP JUMPDEST DUP2 DUP2 CALLER PUSH20 0xFFFFFFFFFFFFFFFFFFFFFFFFFFFFFFFFFFFFFFFF AND PUSH1 0x6 PUSH0 DUP5 PUSH20 0xFFFFFFFFFFFFFFFFFFFFFFFFFFFFFFFFFFFFFFFF AND PUSH20 0xFFFFFFFFFFFFFFFFFFFFFFFFFFFFFFFFFFFFFFFF AND DUP2 MSTORE PUSH1 0x20 ADD SWAP1 DUP2 MSTORE PUSH1 0x20 ADD PUSH0 KECCAK256 PUSH0 DUP4 DUP2 MSTORE PUSH1 0x20 ADD SWAP1 DUP2 MSTORE PUSH1 0x20 ADD PUSH0 KECCAK256 PUSH0 ADD PUSH0 SWAP1 SLOAD SWAP1 PUSH2 0x100 EXP SWAP1 DIV PUSH20 0xFFFFFFFFFFFFFFFFFFFFFFFFFFFFFFFFFFFFFFFF AND PUSH20 0xFFFFFFFFFFFFFFFFFFFFFFFFFFFFFFFFFFFFFFFF AND EQ PUSH2 0x2B3F JUMPI PUSH1 0x40 MLOAD PUSH32 0x8C379A000000000000000000000000000000000000000000000000000000000 DUP2 MSTORE PUSH1 0x4 ADD PUSH2 0x2B36 SWAP1 PUSH2 0x51DB JUMP JUMPDEST PUSH1 0x40 MLOAD DUP1 SWAP2 SUB SWAP1 REVERT JUMPDEST PUSH2 0x2B49 DUP5 DUP5 PUSH2 0x368D JUMP JUMPDEST PUSH1 0x6 PUSH0 DUP6 PUSH20 0xFFFFFFFFFFFFFFFFFFFFFFFFFFFFFFFFFFFFFFFF AND PUSH20 0xFFFFFFFFFFFFFFFFFFFFFFFFFFFFFFFFFFFFFFFF AND DUP2 MSTORE PUSH1 0x20 ADD SWAP1 DUP2 MSTORE PUSH1 0x20 ADD PUSH0 KECCAK256 PUSH0 DUP5 DUP2 MSTORE PUSH1 0x20 ADD SWAP1 DUP2 MSTORE PUSH1 0x20 ADD PUSH0 KECCAK256 PUSH0 DUP1 DUP3 ADD PUSH0 PUSH2 0x100 EXP DUP2 SLOAD SWAP1 PUSH20 0xFFFFFFFFFFFFFFFFFFFFFFFFFFFFFFFFFFFFFFFF MUL NOT AND SWAP1 SSTORE PUSH1 0x1 DUP3 ADD PUSH0 SWAP1 SSTORE POP POP DUP4 PUSH20 0xFFFFFFFFFFFFFFFFFFFFFFFFFFFFFFFFFFFFFFFF AND PUSH4 0x42842E0E ADDRESS CALLER DUP7 PUSH1 0x40 MLOAD DUP5 PUSH4 0xFFFFFFFF AND PUSH1 0xE0 SHL DUP2 MSTORE PUSH1 0x4 ADD PUSH2 0x2C01 SWAP4 SWAP3 SWAP2 SWAP1 PUSH2 0x543E JUMP JUMPDEST PUSH0 PUSH1 0x40 MLOAD DUP1 DUP4 SUB DUP2 PUSH0 DUP8 DUP1 EXTCODESIZE ISZERO DUP1 ISZERO PUSH2 0x2C18 JUMPI PUSH0 DUP1 REVERT JUMPDEST POP GAS CALL ISZERO DUP1 ISZERO PUSH2 0x2C2A JUMPI RETURNDATASIZE PUSH0 DUP1 RETURNDATACOPY RETURNDATASIZE PUSH0 REVERT JUMPDEST POP POP POP POP DUP3 DUP5 PUSH20 0xFFFFFFFFFFFFFFFFFFFFFFFFFFFFFFFFFFFFFFFF AND PUSH32 0xF777B524526FDE47D5911ABC6E9B4629A69601C442B413D5145089EA06D5D36 CALLER PUSH1 0x40 MLOAD PUSH2 0x2C75 SWAP2 SWAP1 PUSH2 0x5033 JUMP JUMPDEST PUSH1 0x40 MLOAD DUP1 SWAP2 SUB SWAP1 LOG3 POP POP POP POP JUMP JUMPDEST PUSH0 PUSH2 0x2C8F DUP3 PUSH0 DUP1 PUSH2 0x2FBD JUMP JUMPDEST SWAP1 POP SWAP2 SWAP1 POP JUMP JUMPDEST PUSH1 0x11 PUSH0 SWAP1 SLOAD SWAP1 PUSH2 0x100 EXP SWAP1 DIV PUSH20 0xFFFFFFFFFFFFFFFFFFFFFFFFFFFFFFFFFFFFFFFF AND DUP2 JUMP JUMPDEST PUSH0 PUSH2 0x2CC6 DUP4 DUP4 PUSH2 0x368D JUMP JUMPDEST PUSH0 PUSH1 0x6 PUSH0 DUP6 PUSH20 0xFFFFFFFFFFFFFFFFFFFFFFFFFFFFFFFFFFFFFFFF AND PUSH20 0xFFFFFFFFFFFFFFFFFFFFFFFFFFFFFFFFFFFFFFFF AND DUP2 MSTORE PUSH1 0x20 ADD SWAP1 DUP2 MSTORE PUSH1 0x20 ADD PUSH0 KECCAK256 PUSH0 DUP5 DUP2 MSTORE PUSH1 0x20 ADD SWAP1 DUP2 MSTORE PUSH1 0x20 ADD PUSH0 KECCAK256 PUSH0 ADD PUSH0 SWAP1 SLOAD SWAP1 PUSH2 0x100 EXP SWAP1 DIV PUSH20 0xFFFFFFFFFFFFFFFFFFFFFFFFFFFFFFFFFFFFFFFF AND SWAP1 POP PUSH0 PUSH1 0x6 PUSH0 DUP7 PUSH20 0xFFFFFFFFFFFFFFFFFFFFFFFFFFFFFFFFFFFFFFFF AND PUSH20 0xFFFFFFFFFFFFFFFFFFFFFFFFFFFFFFFFFFFFFFFF AND DUP2 MSTORE PUSH1 0x20 ADD SWAP1 DUP2 MSTORE PUSH1 0x20 ADD PUSH0 KECCAK256 PUSH0 DUP6 DUP2 MSTORE PUSH1 0x20 ADD SWAP1 DUP2 MSTORE PUSH1 0x20 ADD PUSH0 KECCAK256 PUSH1 0x1 ADD SLOAD SWAP1 POP PUSH0 PUSH2 0x2D94 DUP3 PUSH2 0x2C83 JUMP JUMPDEST SWAP1 POP DUP1 PUSH2 0x2DA0 CALLER PUSH2 0x119D JUMP JUMPDEST LT ISZERO PUSH2 0x2DE1 JUMPI PUSH1 0x40 MLOAD PUSH32 0x8C379A000000000000000000000000000000000000000000000000000000000 DUP2 MSTORE PUSH1 0x4 ADD PUSH2 0x2DD8 SWAP1 PUSH2 0x58E1 JUMP JUMPDEST PUSH1 0x40 MLOAD DUP1 SWAP2 SUB SWAP1 REVERT JUMPDEST PUSH1 0x6 PUSH0 DUP8 PUSH20 0xFFFFFFFFFFFFFFFFFFFFFFFFFFFFFFFFFFFFFFFF AND PUSH20 0xFFFFFFFFFFFFFFFFFFFFFFFFFFFFFFFFFFFFFFFF AND DUP2 MSTORE PUSH1 0x20 ADD SWAP1 DUP2 MSTORE PUSH1 0x20 ADD PUSH0 KECCAK256 PUSH0 DUP7 DUP2 MSTORE PUSH1 0x20 ADD SWAP1 DUP2 MSTORE PUSH1 0x20 ADD PUSH0 KECCAK256 PUSH0 DUP1 DUP3 ADD PUSH0 PUSH2 0x100 EXP DUP2 SLOAD SWAP1 PUSH20 0xFFFFFFFFFFFFFFFFFFFFFFFFFFFFFFFFFFFFFFFF MUL NOT AND SWAP1 SSTORE PUSH1 0x1 DUP3 ADD PUSH0 SWAP1 SSTORE POP POP DUP6 PUSH20 0xFFFFFFFFFFFFFFFFFFFFFFFFFFFFFFFFFFFFFFFF AND PUSH4 0x42842E0E ADDRESS CALLER DUP9 PUSH1 0x40 MLOAD DUP5 PUSH4 0xFFFFFFFF AND PUSH1 0xE0 SHL DUP2 MSTORE PUSH1 0x4 ADD PUSH2 0x2E99 SWAP4 SWAP3 SWAP2 SWAP1 PUSH2 0x543E JUMP JUMPDEST PUSH0 PUSH1 0x40 MLOAD DUP1 DUP4 SUB DUP2 PUSH0 DUP8 DUP1 EXTCODESIZE ISZERO DUP1 ISZERO PUSH2 0x2EB0 JUMPI PUSH0 DUP1 REVERT JUMPDEST POP GAS CALL ISZERO DUP1 ISZERO PUSH2 0x2EC2 JUMPI RETURNDATASIZE PUSH0 DUP1 RETURNDATACOPY RETURNDATASIZE PUSH0 REVERT JUMPDEST POP POP POP POP PUSH0 PUSH2 0x2EE4 PUSH1 0x9 PUSH0 ADD SLOAD PUSH2 0x3E8 PUSH0 DUP7 PUSH2 0x40F6 SWAP1 SWAP4 SWAP3 SWAP2 SWAP1 PUSH4 0xFFFFFFFF AND JUMP JUMPDEST SWAP1 POP PUSH0 PUSH2 0x2EF0 DUP3 PUSH2 0x2C83 JUMP JUMPDEST SWAP1 POP PUSH0 PUSH2 0x2F07 DUP3 PUSH0 DUP7 PUSH2 0x2F01 PUSH2 0xB5A JUMP JUMPDEST DUP11 PUSH2 0x331A JUMP JUMPDEST SWAP1 POP PUSH0 DUP2 DUP4 PUSH2 0x2F16 SWAP2 SWAP1 PUSH2 0x5226 JUMP JUMPDEST SWAP1 POP PUSH2 0x2F22 CALLER DUP3 PUSH2 0x35AC JUMP JUMPDEST PUSH0 DUP2 DUP7 PUSH2 0x2F2F SWAP2 SWAP1 PUSH2 0x5226 JUMP JUMPDEST SWAP1 POP PUSH2 0x2F3C CALLER DUP10 DUP4 PUSH2 0x3184 JUMP JUMPDEST CALLER PUSH20 0xFFFFFFFFFFFFFFFFFFFFFFFFFFFFFFFFFFFFFFFF AND DUP11 DUP13 PUSH20 0xFFFFFFFFFFFFFFFFFFFFFFFFFFFFFFFFFFFFFFFF AND PUSH32 0xF9BEA84BBA698D2FFFA1F9A98701F95A0397C282F5F560D02EBAE89B30287DF5 DUP11 DUP13 DUP12 DUP11 DUP11 DUP10 PUSH1 0x40 MLOAD PUSH2 0x2FA4 SWAP7 SWAP6 SWAP5 SWAP4 SWAP3 SWAP2 SWAP1 PUSH2 0x58FF JUMP JUMPDEST PUSH1 0x40 MLOAD DUP1 SWAP2 SUB SWAP1 LOG4 DUP6 SWAP9 POP POP POP POP POP POP POP POP POP SWAP3 SWAP2 POP POP JUMP JUMPDEST PUSH0 PUSH2 0x3018 PUSH2 0x2FC9 PUSH2 0x4143 JUMP JUMPDEST PUSH1 0xA PUSH2 0x2FD5 SWAP2 SWAP1 PUSH2 0x5A8D JUMP JUMPDEST PUSH2 0x2FDD PUSH2 0xD33 JUMP JUMPDEST PUSH2 0x2FE7 SWAP2 SWAP1 PUSH2 0x533D JUMP JUMPDEST DUP4 PUSH1 0x1 PUSH2 0x2FF2 PUSH2 0xBFF JUMP JUMPDEST PUSH2 0x2FFC SWAP2 SWAP1 PUSH2 0x533D JUMP JUMPDEST PUSH2 0x3006 SWAP2 SWAP1 PUSH2 0x5226 JUMP JUMPDEST DUP6 DUP8 PUSH2 0x40F6 SWAP1 SWAP4 SWAP3 SWAP2 SWAP1 PUSH4 0xFFFFFFFF AND JUMP JUMPDEST SWAP1 POP SWAP4 SWAP3 POP POP POP JUMP JUMPDEST PUSH2 0x302B DUP4 DUP3 PUSH2 0x3529 JUMP JUMPDEST DUP3 PUSH20 0xFFFFFFFFFFFFFFFFFFFFFFFFFFFFFFFFFFFFFFFF AND PUSH2 0x304A PUSH2 0xB5A JUMP JUMPDEST PUSH20 0xFFFFFFFFFFFFFFFFFFFFFFFFFFFFFFFFFFFFFFFF AND PUSH32 0xDCBC1C05240F31FF3AD067EF1EE35CE4997762752E3A095284754544F4C709D7 DUP5 DUP5 PUSH1 0x40 MLOAD PUSH2 0x3091 SWAP3 SWAP2 SWAP1 PUSH2 0x5417 JUMP JUMPDEST PUSH1 0x40 MLOAD DUP1 SWAP2 SUB SWAP1 LOG3 POP POP POP JUMP JUMPDEST PUSH2 0x30AB DUP4 DUP4 DUP4 PUSH1 0x1 PUSH2 0x4147 JUMP JUMPDEST POP POP POP JUMP JUMPDEST PUSH0 DUP1 PUSH2 0x30D1 PUSH1 0x9 PUSH1 0x2 ADD SLOAD PUSH2 0x3E8 PUSH1 0x1 DUP7 PUSH2 0x40F6 SWAP1 SWAP4 SWAP3 SWAP2 SWAP1 PUSH4 0xFFFFFFFF AND JUMP JUMPDEST SWAP1 POP PUSH2 0x30EA DUP2 DUP5 PUSH2 0x30E2 SWAP2 SWAP1 PUSH2 0x5226 JUMP JUMPDEST PUSH1 0x1 PUSH0 PUSH2 0x2FBD JUMP JUMPDEST SWAP2 POP SWAP2 POP SWAP2 JUMP JUMPDEST PUSH0 PUSH2 0x30FC DUP5 DUP5 PUSH2 0x25BF JUMP JUMPDEST SWAP1 POP PUSH32 0xFFFFFFFFFFFFFFFFFFFFFFFFFFFFFFFFFFFFFFFFFFFFFFFFFFFFFFFFFFFFFFFF DUP2 LT ISZERO PUSH2 0x317E JUMPI DUP2 DUP2 LT ISZERO PUSH2 0x316F JUMPI DUP3 DUP2 DUP4 PUSH1 0x40 MLOAD PUSH32 0xFB8F41B200000000000000000000000000000000000000000000000000000000 DUP2 MSTORE PUSH1 0x4 ADD PUSH2 0x3166 SWAP4 SWAP3 SWAP2 SWAP1 PUSH2 0x4F35 JUMP JUMPDEST PUSH1 0x40 MLOAD DUP1 SWAP2 SUB SWAP1 REVERT JUMPDEST PUSH2 0x317D DUP5 DUP5 DUP5 DUP5 SUB PUSH0 PUSH2 0x4147 JUMP JUMPDEST JUMPDEST POP POP POP POP JUMP JUMPDEST PUSH0 PUSH20 0xFFFFFFFFFFFFFFFFFFFFFFFFFFFFFFFFFFFFFFFF AND DUP4 PUSH20 0xFFFFFFFFFFFFFFFFFFFFFFFFFFFFFFFFFFFFFFFF AND SUB PUSH2 0x31F4 JUMPI PUSH0 PUSH1 0x40 MLOAD PUSH32 0x96C6FD1E00000000000000000000000000000000000000000000000000000000 DUP2 MSTORE PUSH1 0x4 ADD PUSH2 0x31EB SWAP2 SWAP1 PUSH2 0x5033 JUMP JUMPDEST PUSH1 0x40 MLOAD DUP1 SWAP2 SUB SWAP1 REVERT JUMPDEST PUSH0 PUSH20 0xFFFFFFFFFFFFFFFFFFFFFFFFFFFFFFFFFFFFFFFF AND DUP3 PUSH20 0xFFFFFFFFFFFFFFFFFFFFFFFFFFFFFFFFFFFFFFFF AND SUB PUSH2 0x3264 JUMPI PUSH0 PUSH1 0x40 MLOAD PUSH32 0xEC442F0500000000000000000000000000000000000000000000000000000000 DUP2 MSTORE PUSH1 0x4 ADD PUSH2 0x325B SWAP2 SWAP1 PUSH2 0x5033 JUMP JUMPDEST PUSH1 0x40 MLOAD DUP1 SWAP2 SUB SWAP1 REVERT JUMPDEST PUSH2 0x326F DUP4 DUP4 DUP4 PUSH2 0x4316 JUMP JUMPDEST POP POP POP JUMP JUMPDEST PUSH2 0x327C PUSH2 0x432E JUMP JUMPDEST PUSH0 PUSH1 0x5 PUSH0 PUSH2 0x100 EXP DUP2 SLOAD DUP2 PUSH1 0xFF MUL NOT AND SWAP1 DUP4 ISZERO ISZERO MUL OR SWAP1 SSTORE POP PUSH32 0x5DB9EE0A495BF2E6FF9C91A7834C1BA4FDD244A5E8AA4E537BD38AEAE4B073AA PUSH2 0x32BE PUSH2 0xB5A JUMP JUMPDEST PUSH1 0x40 MLOAD PUSH2 0x32CB SWAP2 SWAP1 PUSH2 0x5033 JUMP JUMPDEST PUSH1 0x40 MLOAD DUP1 SWAP2 SUB SWAP1 LOG1 JUMP JUMPDEST PUSH0 DUP1 PUSH0 PUSH2 0x32E3 DUP5 PUSH0 DUP1 PUSH2 0x3A01 JUMP JUMPDEST SWAP1 POP PUSH2 0x3304 PUSH1 0x9 PUSH1 0x2 ADD SLOAD PUSH2 0x3E8 PUSH1 0x1 DUP5 PUSH2 0x40F6 SWAP1 SWAP4 SWAP3 SWAP2 SWAP1 PUSH4 0xFFFFFFFF AND JUMP JUMPDEST SWAP2 POP DUP2 DUP2 PUSH2 0x3312 SWAP2 SWAP1 PUSH2 0x5226 JUMP JUMPDEST SWAP3 POP POP SWAP2 POP SWAP2 JUMP JUMPDEST PUSH0 DUP1 PUSH2 0x3325 DUP8 PUSH2 0x1BCD JUMP JUMPDEST SWAP1 POP PUSH0 DUP1 PUSH2 0x3333 DUP6 DUP5 PUSH2 0x436E JUMP JUMPDEST SWAP2 POP SWAP2 POP PUSH0 PUSH1 0x2 DUP2 GT ISZERO PUSH2 0x334A JUMPI PUSH2 0x3349 PUSH2 0x5AD7 JUMP JUMPDEST JUMPDEST DUP9 PUSH1 0x2 DUP2 GT ISZERO PUSH2 0x335D JUMPI PUSH2 0x335C PUSH2 0x5AD7 JUMP JUMPDEST JUMPDEST SUB PUSH2 0x339D JUMPI DUP2 PUSH1 0x9 PUSH1 0x1 ADD PUSH0 DUP3 DUP3 SLOAD PUSH2 0x3376 SWAP2 SWAP1 PUSH2 0x533D JUMP JUMPDEST SWAP3 POP POP DUP2 SWAP1 SSTORE POP DUP1 PUSH1 0x9 PUSH1 0x6 ADD PUSH0 DUP3 DUP3 SLOAD PUSH2 0x3391 SWAP2 SWAP1 PUSH2 0x533D JUMP JUMPDEST SWAP3 POP POP DUP2 SWAP1 SSTORE POP PUSH2 0x343F JUMP JUMPDEST PUSH1 0x2 DUP1 DUP2 GT ISZERO PUSH2 0x33B0 JUMPI PUSH2 0x33AF PUSH2 0x5AD7 JUMP JUMPDEST JUMPDEST DUP9 PUSH1 0x2 DUP2 GT ISZERO PUSH2 0x33C3 JUMPI PUSH2 0x33C2 PUSH2 0x5AD7 JUMP JUMPDEST JUMPDEST SUB PUSH2 0x3403 JUMPI DUP2 PUSH1 0x9 PUSH1 0x5 ADD PUSH0 DUP3 DUP3 SLOAD PUSH2 0x33DC SWAP2 SWAP1 PUSH2 0x533D JUMP JUMPDEST SWAP3 POP POP DUP2 SWAP1 SSTORE POP DUP1 PUSH1 0x9 PUSH1 0x6 ADD PUSH0 DUP3 DUP3 SLOAD PUSH2 0x33F7 SWAP2 SWAP1 PUSH2 0x533D JUMP JUMPDEST SWAP3 POP POP DUP2 SWAP1 SSTORE POP PUSH2 0x343E JUMP JUMPDEST PUSH1 0x40 MLOAD PUSH32 0x8C379A000000000000000000000000000000000000000000000000000000000 DUP2 MSTORE PUSH1 0x4 ADD PUSH2 0x3435 SWAP1 PUSH2 0x5B4E JUMP JUMPDEST PUSH1 0x40 MLOAD DUP1 SWAP2 SUB SWAP1 REVERT JUMPDEST JUMPDEST DUP3 DUP2 GT ISZERO PUSH2 0x3482 JUMPI PUSH1 0x40 MLOAD PUSH32 0x8C379A000000000000000000000000000000000000000000000000000000000 DUP2 MSTORE PUSH1 0x4 ADD PUSH2 0x3479 SWAP1 PUSH2 0x5BB6 JUMP JUMPDEST PUSH1 0x40 MLOAD DUP1 SWAP2 SUB SWAP1 REVERT JUMPDEST DUP5 PUSH20 0xFFFFFFFFFFFFFFFFFFFFFFFFFFFFFFFFFFFFFFFF AND DUP7 PUSH20 0xFFFFFFFFFFFFFFFFFFFFFFFFFFFFFFFFFFFFFFFF AND DUP10 PUSH1 0x2 DUP2 GT ISZERO PUSH2 0x34C3 JUMPI PUSH2 0x34C2 PUSH2 0x5AD7 JUMP JUMPDEST JUMPDEST PUSH32 0x6D3F8C1B954DB6E4918D1A09AAEE7C931D63B075F42A2C99849AF15A31EBC6C4 DUP13 DUP12 PUSH2 0x34EE PUSH2 0xD33 JUMP JUMPDEST PUSH2 0x34F6 PUSH2 0xBFF JUMP JUMPDEST DUP10 DUP10 PUSH1 0x40 MLOAD PUSH2 0x350A SWAP7 SWAP6 SWAP5 SWAP4 SWAP3 SWAP2 SWAP1 PUSH2 0x5BD4 JUMP JUMPDEST PUSH1 0x40 MLOAD DUP1 SWAP2 SUB SWAP1 LOG4 PUSH2 0x351B DUP2 PUSH2 0x2C83 JUMP JUMPDEST SWAP4 POP POP POP POP SWAP6 SWAP5 POP POP POP POP POP JUMP JUMPDEST PUSH0 PUSH20 0xFFFFFFFFFFFFFFFFFFFFFFFFFFFFFFFFFFFFFFFF AND DUP3 PUSH20 0xFFFFFFFFFFFFFFFFFFFFFFFFFFFFFFFFFFFFFFFF AND SUB PUSH2 0x3599 JUMPI PUSH0 PUSH1 0x40 MLOAD PUSH32 0xEC442F0500000000000000000000000000000000000000000000000000000000 DUP2 MSTORE PUSH1 0x4 ADD PUSH2 0x3590 SWAP2 SWAP1 PUSH2 0x5033 JUMP JUMPDEST PUSH1 0x40 MLOAD DUP1 SWAP2 SUB SWAP1 REVERT JUMPDEST PUSH2 0x35A4 PUSH0 DUP4 DUP4 PUSH2 0x4316 JUMP JUMPDEST POP POP JUMP JUMPDEST PUSH0 SWAP1 JUMP JUMPDEST PUSH0 PUSH20 0xFFFFFFFFFFFFFFFFFFFFFFFFFFFFFFFFFFFFFFFF AND DUP3 PUSH20 0xFFFFFFFFFFFFFFFFFFFFFFFFFFFFFFFFFFFFFFFF AND SUB PUSH2 0x361C JUMPI PUSH0 PUSH1 0x40 MLOAD PUSH32 0x96C6FD1E00000000000000000000000000000000000000000000000000000000 DUP2 MSTORE PUSH1 0x4 ADD PUSH2 0x3613 SWAP2 SWAP1 PUSH2 0x5033 JUMP JUMPDEST PUSH1 0x40 MLOAD DUP1 SWAP2 SUB SWAP1 REVERT JUMPDEST PUSH2 0x3627 DUP3 PUSH0 DUP4 PUSH2 0x4316 JUMP JUMPDEST POP POP JUMP JUMPDEST PUSH2 0x3633 PUSH2 0x447E JUMP JUMPDEST PUSH1 0x1 PUSH1 0x5 PUSH0 PUSH2 0x100 EXP DUP2 SLOAD DUP2 PUSH1 0xFF MUL NOT AND SWAP1 DUP4 ISZERO ISZERO MUL OR SWAP1 SSTORE POP PUSH32 0x62E78CEA01BEE320CD4E420270B5EA74000D11B0C9F74754EBDBFC544B05A258 PUSH2 0x3676 PUSH2 0xB5A JUMP JUMPDEST PUSH1 0x40 MLOAD PUSH2 0x3683 SWAP2 SWAP1 PUSH2 0x5033 JUMP JUMPDEST PUSH1 0x40 MLOAD DUP1 SWAP2 SUB SWAP1 LOG1 JUMP JUMPDEST PUSH0 PUSH20 0xFFFFFFFFFFFFFFFFFFFFFFFFFFFFFFFFFFFFFFFF AND PUSH1 0x6 PUSH0 DUP5 PUSH20 0xFFFFFFFFFFFFFFFFFFFFFFFFFFFFFFFFFFFFFFFF AND PUSH20 0xFFFFFFFFFFFFFFFFFFFFFFFFFFFFFFFFFFFFFFFF AND DUP2 MSTORE PUSH1 0x20 ADD SWAP1 DUP2 MSTORE PUSH1 0x20 ADD PUSH0 KECCAK256 PUSH0 DUP4 DUP2 MSTORE PUSH1 0x20 ADD SWAP1 DUP2 MSTORE PUSH1 0x20 ADD PUSH0 KECCAK256 PUSH0 ADD PUSH0 SWAP1 SLOAD SWAP1 PUSH2 0x100 EXP SWAP1 DIV PUSH20 0xFFFFFFFFFFFFFFFFFFFFFFFFFFFFFFFFFFFFFFFF AND PUSH20 0xFFFFFFFFFFFFFFFFFFFFFFFFFFFFFFFFFFFFFFFF AND SUB PUSH2 0x376E JUMPI DUP2 DUP2 CALLER PUSH1 0x40 MLOAD PUSH32 0x374862D000000000000000000000000000000000000000000000000000000000 DUP2 MSTORE PUSH1 0x4 ADD PUSH2 0x3765 SWAP4 SWAP3 SWAP2 SWAP1 PUSH2 0x5C33 JUMP JUMPDEST PUSH1 0x40 MLOAD DUP1 SWAP2 SUB SWAP1 REVERT JUMPDEST POP POP JUMP JUMPDEST CALLVALUE PUSH1 0x6 PUSH0 DUP5 PUSH20 0xFFFFFFFFFFFFFFFFFFFFFFFFFFFFFFFFFFFFFFFF AND PUSH20 0xFFFFFFFFFFFFFFFFFFFFFFFFFFFFFFFFFFFFFFFF AND DUP2 MSTORE PUSH1 0x20 ADD SWAP1 DUP2 MSTORE PUSH1 0x20 ADD PUSH0 KECCAK256 PUSH0 DUP4 DUP2 MSTORE PUSH1 0x20 ADD SWAP1 DUP2 MSTORE PUSH1 0x20 ADD PUSH0 KECCAK256 PUSH1 0x1 ADD SLOAD GT ISZERO PUSH2 0x3857 JUMPI PUSH1 0x6 PUSH0 DUP4 PUSH20 0xFFFFFFFFFFFFFFFFFFFFFFFFFFFFFFFFFFFFFFFF AND PUSH20 0xFFFFFFFFFFFFFFFFFFFFFFFFFFFFFFFFFFFFFFFF AND DUP2 MSTORE PUSH1 0x20 ADD SWAP1 DUP2 MSTORE PUSH1 0x20 ADD PUSH0 KECCAK256 PUSH0 DUP3 DUP2 MSTORE PUSH1 0x20 ADD SWAP1 DUP2 MSTORE PUSH1 0x20 ADD PUSH0 KECCAK256 PUSH1 0x1 ADD SLOAD CALLVALUE PUSH1 0x40 MLOAD PUSH32 0x7678BC2A00000000000000000000000000000000000000000000000000000000 DUP2 MSTORE PUSH1 0x4 ADD PUSH2 0x384E SWAP3 SWAP2 SWAP1 PUSH2 0x5417 JUMP JUMPDEST PUSH1 0x40 MLOAD DUP1 SWAP2 SUB SWAP1 REVERT JUMPDEST POP POP JUMP JUMPDEST PUSH0 DUP1 PUSH2 0x387B PUSH1 0x9 PUSH0 ADD SLOAD PUSH2 0x3E8 PUSH1 0x1 DUP8 PUSH2 0x40F6 SWAP1 SWAP4 SWAP3 SWAP2 SWAP1 PUSH4 0xFFFFFFFF AND JUMP JUMPDEST SWAP1 POP PUSH0 PUSH2 0x3892 DUP3 PUSH0 DUP8 PUSH2 0x388C PUSH2 0xB5A JUMP JUMPDEST DUP11 PUSH2 0x3A65 JUMP JUMPDEST SWAP1 POP PUSH0 DUP2 DUP4 DUP8 PUSH2 0x38A2 SWAP2 SWAP1 PUSH2 0x5226 JUMP JUMPDEST PUSH2 0x38AC SWAP2 SWAP1 PUSH2 0x533D JUMP JUMPDEST SWAP1 POP PUSH0 DUP1 DUP3 EQ PUSH2 0x38CF JUMPI PUSH2 0x38C1 DUP3 PUSH0 DUP9 PUSH2 0x2FBD JUMP JUMPDEST SWAP1 POP PUSH2 0x38CE DUP9 DUP4 DUP4 PUSH2 0x3021 JUMP JUMPDEST JUMPDEST DUP8 PUSH20 0xFFFFFFFFFFFFFFFFFFFFFFFFFFFFFFFFFFFFFFFF AND DUP10 DUP12 PUSH20 0xFFFFFFFFFFFFFFFFFFFFFFFFFFFFFFFFFFFFFFFF AND PUSH32 0x9B3601AB2A615B4D66E41F4B99F6BA2669457B2EED89A33DBF99CA482950C61F DUP11 DUP9 DUP9 DUP8 PUSH1 0x40 MLOAD PUSH2 0x3933 SWAP5 SWAP4 SWAP3 SWAP2 SWAP1 PUSH2 0x5C68 JUMP JUMPDEST PUSH1 0x40 MLOAD DUP1 SWAP2 SUB SWAP1 LOG4 DUP1 SWAP5 POP POP POP POP POP SWAP6 SWAP5 POP POP POP POP POP JUMP JUMPDEST PUSH0 DUP1 DUP4 PUSH20 0xFFFFFFFFFFFFFFFFFFFFFFFFFFFFFFFFFFFFFFFF AND DUP4 PUSH1 0x40 MLOAD PUSH2 0x3971 SWAP1 PUSH2 0x5CD8 JUMP JUMPDEST PUSH0 PUSH1 0x40 MLOAD DUP1 DUP4 SUB DUP2 DUP6 DUP8 GAS CALL SWAP3 POP POP POP RETURNDATASIZE DUP1 PUSH0 DUP2 EQ PUSH2 0x39AB JUMPI PUSH1 0x40 MLOAD SWAP2 POP PUSH1 0x1F NOT PUSH1 0x3F RETURNDATASIZE ADD AND DUP3 ADD PUSH1 0x40 MSTORE RETURNDATASIZE DUP3 MSTORE RETURNDATASIZE PUSH0 PUSH1 0x20 DUP5 ADD RETURNDATACOPY PUSH2 0x39B0 JUMP JUMPDEST PUSH1 0x60 SWAP2 POP JUMPDEST POP SWAP2 POP SWAP2 POP DUP2 PUSH2 0x39FB JUMPI DUP4 DUP4 DUP3 PUSH1 0x40 MLOAD PUSH32 0x5AF922F700000000000000000000000000000000000000000000000000000000 DUP2 MSTORE PUSH1 0x4 ADD PUSH2 0x39F2 SWAP4 SWAP3 SWAP2 SWAP1 PUSH2 0x5CEC JUMP JUMPDEST PUSH1 0x40 MLOAD DUP1 SWAP2 SUB SWAP1 REVERT JUMPDEST POP POP POP POP JUMP JUMPDEST PUSH0 PUSH2 0x3A5C DUP3 PUSH1 0x1 PUSH2 0x3A10 PUSH2 0xBFF JUMP JUMPDEST PUSH2 0x3A1A SWAP2 SWAP1 PUSH2 0x533D JUMP JUMPDEST PUSH2 0x3A24 SWAP2 SWAP1 PUSH2 0x5226 JUMP JUMPDEST PUSH2 0x3A2C PUSH2 0x4143 JUMP JUMPDEST PUSH1 0xA PUSH2 0x3A38 SWAP2 SWAP1 PUSH2 0x5A8D JUMP JUMPDEST PUSH2 0x3A40 PUSH2 0xD33 JUMP JUMPDEST PUSH2 0x3A4A SWAP2 SWAP1 PUSH2 0x533D JUMP JUMPDEST DUP6 DUP8 PUSH2 0x40F6 SWAP1 SWAP4 SWAP3 SWAP2 SWAP1 PUSH4 0xFFFFFFFF AND JUMP JUMPDEST SWAP1 POP SWAP4 SWAP3 POP POP POP JUMP JUMPDEST PUSH0 DUP1 PUSH0 PUSH2 0x3A72 DUP5 DUP10 PUSH2 0x436E JUMP JUMPDEST SWAP2 POP SWAP2 POP PUSH0 PUSH1 0x2 DUP2 GT ISZERO PUSH2 0x3A89 JUMPI PUSH2 0x3A88 PUSH2 0x5AD7 JUMP JUMPDEST JUMPDEST DUP8 PUSH1 0x2 DUP2 GT ISZERO PUSH2 0x3A9C JUMPI PUSH2 0x3A9B PUSH2 0x5AD7 JUMP JUMPDEST JUMPDEST SUB PUSH2 0x3ADC JUMPI DUP2 PUSH1 0x9 PUSH1 0x1 ADD PUSH0 DUP3 DUP3 SLOAD PUSH2 0x3AB5 SWAP2 SWAP1 PUSH2 0x533D JUMP JUMPDEST SWAP3 POP POP DUP2 SWAP1 SSTORE POP DUP1 PUSH1 0x9 PUSH1 0x6 ADD PUSH0 DUP3 DUP3 SLOAD PUSH2 0x3AD0 SWAP2 SWAP1 PUSH2 0x533D JUMP JUMPDEST SWAP3 POP POP DUP2 SWAP1 SSTORE POP PUSH2 0x3BE6 JUMP JUMPDEST PUSH1 0x1 PUSH1 0x2 DUP2 GT ISZERO PUSH2 0x3AF0 JUMPI PUSH2 0x3AEF PUSH2 0x5AD7 JUMP JUMPDEST JUMPDEST DUP8 PUSH1 0x2 DUP2 GT ISZERO PUSH2 0x3B03 JUMPI PUSH2 0x3B02 PUSH2 0x5AD7 JUMP JUMPDEST JUMPDEST SUB PUSH2 0x3B43 JUMPI DUP2 PUSH1 0x9 PUSH1 0x3 ADD PUSH0 DUP3 DUP3 SLOAD PUSH2 0x3B1C SWAP2 SWAP1 PUSH2 0x533D JUMP JUMPDEST SWAP3 POP POP DUP2 SWAP1 SSTORE POP DUP1 PUSH1 0x9 PUSH1 0x6 ADD PUSH0 DUP3 DUP3 SLOAD PUSH2 0x3B37 SWAP2 SWAP1 PUSH2 0x533D JUMP JUMPDEST SWAP3 POP POP DUP2 SWAP1 SSTORE POP PUSH2 0x3BE5 JUMP JUMPDEST PUSH1 0x2 DUP1 DUP2 GT ISZERO PUSH2 0x3B56 JUMPI PUSH2 0x3B55 PUSH2 0x5AD7 JUMP JUMPDEST JUMPDEST DUP8 PUSH1 0x2 DUP2 GT ISZERO PUSH2 0x3B69 JUMPI PUSH2 0x3B68 PUSH2 0x5AD7 JUMP JUMPDEST JUMPDEST SUB PUSH2 0x3BA9 JUMPI DUP2 PUSH1 0x9 PUSH1 0x5 ADD PUSH0 DUP3 DUP3 SLOAD PUSH2 0x3B82 SWAP2 SWAP1 PUSH2 0x533D JUMP JUMPDEST SWAP3 POP POP DUP2 SWAP1 SSTORE POP DUP1 PUSH1 0x9 PUSH1 0x6 ADD PUSH0 DUP3 DUP3 SLOAD PUSH2 0x3B9D SWAP2 SWAP1 PUSH2 0x533D JUMP JUMPDEST SWAP3 POP POP DUP2 SWAP1 SSTORE POP PUSH2 0x3BE4 JUMP JUMPDEST PUSH1 0x40 MLOAD PUSH32 0x8C379A000000000000000000000000000000000000000000000000000000000 DUP2 MSTORE PUSH1 0x4 ADD PUSH2 0x3BDB SWAP1 PUSH2 0x5D72 JUMP JUMPDEST PUSH1 0x40 MLOAD DUP1 SWAP2 SUB SWAP1 REVERT JUMPDEST JUMPDEST JUMPDEST DUP6 DUP2 GT ISZERO PUSH2 0x3C29 JUMPI PUSH1 0x40 MLOAD PUSH32 0x8C379A000000000000000000000000000000000000000000000000000000000 DUP2 MSTORE PUSH1 0x4 ADD PUSH2 0x3C20 SWAP1 PUSH2 0x5BB6 JUMP JUMPDEST PUSH1 0x40 MLOAD DUP1 SWAP2 SUB SWAP1 REVERT JUMPDEST DUP4 PUSH20 0xFFFFFFFFFFFFFFFFFFFFFFFFFFFFFFFFFFFFFFFF AND DUP6 PUSH20 0xFFFFFFFFFFFFFFFFFFFFFFFFFFFFFFFFFFFFFFFF AND DUP9 PUSH1 0x2 DUP2 GT ISZERO PUSH2 0x3C6A JUMPI PUSH2 0x3C69 PUSH2 0x5AD7 JUMP JUMPDEST JUMPDEST PUSH32 0x80492185D7AAEB7EF59717729D4CB21708F7EE8AD23E0AA820742DC55400065C DUP12 DUP11 PUSH1 0x40 MLOAD PUSH2 0x3C9B SWAP3 SWAP2 SWAP1 PUSH2 0x5417 JUMP JUMPDEST PUSH1 0x40 MLOAD DUP1 SWAP2 SUB SWAP1 LOG4 DUP1 SWAP3 POP POP POP SWAP6 SWAP5 POP POP POP POP POP JUMP JUMPDEST DUP3 PUSH20 0xFFFFFFFFFFFFFFFFFFFFFFFFFFFFFFFFFFFFFFFF AND DUP6 PUSH20 0xFFFFFFFFFFFFFFFFFFFFFFFFFFFFFFFFFFFFFFFF AND EQ PUSH2 0x3CF0 JUMPI PUSH2 0x3CEF DUP4 DUP7 DUP4 PUSH2 0x30F1 JUMP JUMPDEST JUMPDEST PUSH2 0x3CFA DUP4 DUP3 PUSH2 0x35AC JUMP JUMPDEST PUSH2 0x3D04 DUP5 DUP4 PUSH2 0x394B JUMP JUMPDEST DUP3 PUSH20 0xFFFFFFFFFFFFFFFFFFFFFFFFFFFFFFFFFFFFFFFF AND DUP5 PUSH20 0xFFFFFFFFFFFFFFFFFFFFFFFFFFFFFFFFFFFFFFFF AND DUP7 PUSH20 0xFFFFFFFFFFFFFFFFFFFFFFFFFFFFFFFFFFFFFFFF AND PUSH32 0xFBDE797D201C681B91056529119E0B02407C7BB96A4A2C75C01FC9667232C8DB DUP6 DUP6 PUSH1 0x40 MLOAD PUSH2 0x3D7A SWAP3 SWAP2 SWAP1 PUSH2 0x5417 JUMP JUMPDEST PUSH1 0x40 MLOAD DUP1 SWAP2 SUB SWAP1 LOG4 POP POP POP POP POP JUMP JUMPDEST PUSH0 PUSH2 0x3DA9 PUSH1 0x9 PUSH1 0x4 ADD SLOAD PUSH2 0x2710 PUSH1 0x1 DUP6 PUSH2 0x40F6 SWAP1 SWAP4 SWAP3 SWAP2 SWAP1 PUSH4 0xFFFFFFFF AND JUMP JUMPDEST SWAP1 POP SWAP3 SWAP2 POP POP JUMP JUMPDEST PUSH1 0x8 PUSH0 DUP3 PUSH20 0xFFFFFFFFFFFFFFFFFFFFFFFFFFFFFFFFFFFFFFFF AND PUSH20 0xFFFFFFFFFFFFFFFFFFFFFFFFFFFFFFFFFFFFFFFF AND DUP2 MSTORE PUSH1 0x20 ADD SWAP1 DUP2 MSTORE PUSH1 0x20 ADD PUSH0 KECCAK256 PUSH0 SWAP1 SLOAD SWAP1 PUSH2 0x100 EXP SWAP1 DIV PUSH1 0xFF AND PUSH2 0x3E3C JUMPI DUP1 PUSH1 0x40 MLOAD PUSH32 0xBF16AAB600000000000000000000000000000000000000000000000000000000 DUP2 MSTORE PUSH1 0x4 ADD PUSH2 0x3E33 SWAP2 SWAP1 PUSH2 0x5033 JUMP JUMPDEST PUSH1 0x40 MLOAD DUP1 SWAP2 SUB SWAP1 REVERT JUMPDEST POP JUMP JUMPDEST ADDRESS PUSH20 0xFFFFFFFFFFFFFFFFFFFFFFFFFFFFFFFFFFFFFFFF AND DUP3 PUSH20 0xFFFFFFFFFFFFFFFFFFFFFFFFFFFFFFFFFFFFFFFF AND PUSH4 0x6352211E DUP4 PUSH1 0x40 MLOAD DUP3 PUSH4 0xFFFFFFFF AND PUSH1 0xE0 SHL DUP2 MSTORE PUSH1 0x4 ADD PUSH2 0x3E8F SWAP2 SWAP1 PUSH2 0x4837 JUMP JUMPDEST PUSH1 0x20 PUSH1 0x40 MLOAD DUP1 DUP4 SUB DUP2 DUP7 GAS STATICCALL ISZERO DUP1 ISZERO PUSH2 0x3EAA JUMPI RETURNDATASIZE PUSH0 DUP1 RETURNDATACOPY RETURNDATASIZE PUSH0 REVERT JUMPDEST POP POP POP POP PUSH1 0x40 MLOAD RETURNDATASIZE PUSH1 0x1F NOT PUSH1 0x1F DUP3 ADD AND DUP3 ADD DUP1 PUSH1 0x40 MSTORE POP DUP2 ADD SWAP1 PUSH2 0x3ECE SWAP2 SWAP1 PUSH2 0x5DA4 JUMP JUMPDEST PUSH20 0xFFFFFFFFFFFFFFFFFFFFFFFFFFFFFFFFFFFFFFFF AND EQ ISZERO DUP1 ISZERO PUSH2 0x3F95 JUMPI POP ADDRESS PUSH20 0xFFFFFFFFFFFFFFFFFFFFFFFFFFFFFFFFFFFFFFFF AND DUP3 PUSH20 0xFFFFFFFFFFFFFFFFFFFFFFFFFFFFFFFFFFFFFFFF AND PUSH4 0x81812FC DUP4 PUSH1 0x40 MLOAD DUP3 PUSH4 0xFFFFFFFF AND PUSH1 0xE0 SHL DUP2 MSTORE PUSH1 0x4 ADD PUSH2 0x3F3D SWAP2 SWAP1 PUSH2 0x4837 JUMP JUMPDEST PUSH1 0x20 PUSH1 0x40 MLOAD DUP1 DUP4 SUB DUP2 DUP7 GAS STATICCALL ISZERO DUP1 ISZERO PUSH2 0x3F58 JUMPI RETURNDATASIZE PUSH0 DUP1 RETURNDATACOPY RETURNDATASIZE PUSH0 REVERT JUMPDEST POP POP POP POP PUSH1 0x40 MLOAD RETURNDATASIZE PUSH1 0x1F NOT PUSH1 0x1F DUP3 ADD AND DUP3 ADD DUP1 PUSH1 0x40 MSTORE POP DUP2 ADD SWAP1 PUSH2 0x3F7C SWAP2 SWAP1 PUSH2 0x5DA4 JUMP JUMPDEST PUSH20 0xFFFFFFFFFFFFFFFFFFFFFFFFFFFFFFFFFFFFFFFF AND EQ ISZERO JUMPDEST ISZERO PUSH2 0x3FD9 JUMPI DUP2 DUP2 PUSH1 0x40 MLOAD PUSH32 0x242D56F100000000000000000000000000000000000000000000000000000000 DUP2 MSTORE PUSH1 0x4 ADD PUSH2 0x3FD0 SWAP3 SWAP2 SWAP1 PUSH2 0x5DCF JUMP JUMPDEST PUSH1 0x40 MLOAD DUP1 SWAP2 SUB SWAP1 REVERT JUMPDEST POP POP JUMP JUMPDEST ADDRESS PUSH20 0xFFFFFFFFFFFFFFFFFFFFFFFFFFFFFFFFFFFFFFFF AND DUP3 PUSH20 0xFFFFFFFFFFFFFFFFFFFFFFFFFFFFFFFFFFFFFFFF AND PUSH4 0x6352211E DUP4 PUSH1 0x40 MLOAD DUP3 PUSH4 0xFFFFFFFF AND PUSH1 0xE0 SHL DUP2 MSTORE PUSH1 0x4 ADD PUSH2 0x402D SWAP2 SWAP1 PUSH2 0x4837 JUMP JUMPDEST PUSH1 0x20 PUSH1 0x40 MLOAD DUP1 DUP4 SUB DUP2 DUP7 GAS STATICCALL ISZERO DUP1 ISZERO PUSH2 0x4048 JUMPI RETURNDATASIZE PUSH0 DUP1 RETURNDATACOPY RETURNDATASIZE PUSH0 REVERT JUMPDEST POP POP POP POP PUSH1 0x40 MLOAD RETURNDATASIZE PUSH1 0x1F NOT PUSH1 0x1F DUP3 ADD AND DUP3 ADD DUP1 PUSH1 0x40 MSTORE POP DUP2 ADD SWAP1 PUSH2 0x406C SWAP2 SWAP1 PUSH2 0x5DA4 JUMP JUMPDEST PUSH20 0xFFFFFFFFFFFFFFFFFFFFFFFFFFFFFFFFFFFFFFFF AND EQ PUSH2 0x40F2 JUMPI DUP2 PUSH20 0xFFFFFFFFFFFFFFFFFFFFFFFFFFFFFFFFFFFFFFFF AND PUSH4 0x42842E0E CALLER ADDRESS DUP5 PUSH1 0x40 MLOAD DUP5 PUSH4 0xFFFFFFFF AND PUSH1 0xE0 SHL DUP2 MSTORE PUSH1 0x4 ADD PUSH2 0x40C4 SWAP4 SWAP3 SWAP2 SWAP1 PUSH2 0x543E JUMP JUMPDEST PUSH0 PUSH1 0x40 MLOAD DUP1 DUP4 SUB DUP2 PUSH0 DUP8 DUP1 EXTCODESIZE ISZERO DUP1 ISZERO PUSH2 0x40DB JUMPI PUSH0 DUP1 REVERT JUMPDEST POP GAS CALL ISZERO DUP1 ISZERO PUSH2 0x40ED JUMPI RETURNDATASIZE PUSH0 DUP1 RETURNDATACOPY RETURNDATASIZE PUSH0 REVERT JUMPDEST POP POP POP POP JUMPDEST POP POP JUMP JUMPDEST PUSH0 PUSH2 0x4124 PUSH2 0x4103 DUP4 PUSH2 0x44BF JUMP JUMPDEST DUP1 ISZERO PUSH2 0x411F JUMPI POP PUSH0 DUP5 DUP1 PUSH2 0x411A JUMPI PUSH2 0x4119 PUSH2 0x5DF6 JUMP JUMPDEST JUMPDEST DUP7 DUP9 MULMOD GT JUMPDEST PUSH2 0x44EC JUMP JUMPDEST PUSH2 0x412F DUP7 DUP7 DUP7 PUSH2 0x44F7 JUMP JUMPDEST PUSH2 0x4139 SWAP2 SWAP1 PUSH2 0x533D JUMP JUMPDEST SWAP1 POP SWAP5 SWAP4 POP POP POP POP JUMP JUMPDEST PUSH0 SWAP1 JUMP JUMPDEST PUSH0 PUSH20 0xFFFFFFFFFFFFFFFFFFFFFFFFFFFFFFFFFFFFFFFF AND DUP5 PUSH20 0xFFFFFFFFFFFFFFFFFFFFFFFFFFFFFFFFFFFFFFFF AND SUB PUSH2 0x41B7 JUMPI PUSH0 PUSH1 0x40 MLOAD PUSH32 0xE602DF0500000000000000000000000000000000000000000000000000000000 DUP2 MSTORE PUSH1 0x4 ADD PUSH2 0x41AE SWAP2 SWAP1 PUSH2 0x5033 JUMP JUMPDEST PUSH1 0x40 MLOAD DUP1 SWAP2 SUB SWAP1 REVERT JUMPDEST PUSH0 PUSH20 0xFFFFFFFFFFFFFFFFFFFFFFFFFFFFFFFFFFFFFFFF AND DUP4 PUSH20 0xFFFFFFFFFFFFFFFFFFFFFFFFFFFFFFFFFFFFFFFF AND SUB PUSH2 0x4227 JUMPI PUSH0 PUSH1 0x40 MLOAD PUSH32 0x94280D6200000000000000000000000000000000000000000000000000000000 DUP2 MSTORE PUSH1 0x4 ADD PUSH2 0x421E SWAP2 SWAP1 PUSH2 0x5033 JUMP JUMPDEST PUSH1 0x40 MLOAD DUP1 SWAP2 SUB SWAP1 REVERT JUMPDEST DUP2 PUSH1 0x1 PUSH0 DUP7 PUSH20 0xFFFFFFFFFFFFFFFFFFFFFFFFFFFFFFFFFFFFFFFF AND PUSH20 0xFFFFFFFFFFFFFFFFFFFFFFFFFFFFFFFFFFFFFFFF AND DUP2 MSTORE PUSH1 0x20 ADD SWAP1 DUP2 MSTORE PUSH1 0x20 ADD PUSH0 KECCAK256 PUSH0 DUP6 PUSH20 0xFFFFFFFFFFFFFFFFFFFFFFFFFFFFFFFFFFFFFFFF AND PUSH20 0xFFFFFFFFFFFFFFFFFFFFFFFFFFFFFFFFFFFFFFFF AND DUP2 MSTORE PUSH1 0x20 ADD SWAP1 DUP2 MSTORE PUSH1 0x20 ADD PUSH0 KECCAK256 DUP2 SWAP1 SSTORE POP DUP1 ISZERO PUSH2 0x4310 JUMPI DUP3 PUSH20 0xFFFFFFFFFFFFFFFFFFFFFFFFFFFFFFFFFFFFFFFF AND DUP5 PUSH20 0xFFFFFFFFFFFFFFFFFFFFFFFFFFFFFFFFFFFFFFFF AND PUSH32 0x8C5BE1E5EBEC7D5BD14F71427D1E84F3DD0314C0F7B2291E5B200AC8C7C3B925 DUP5 PUSH1 0x40 MLOAD PUSH2 0x4307 SWAP2 SWAP1 PUSH2 0x4837 JUMP JUMPDEST PUSH1 0x40 MLOAD DUP1 SWAP2 SUB SWAP1 LOG3 JUMPDEST POP POP POP POP JUMP JUMPDEST PUSH2 0x431E PUSH2 0x447E JUMP JUMPDEST PUSH2 0x4329 DUP4 DUP4 DUP4 PUSH2 0x45DC JUMP JUMPDEST POP POP POP JUMP JUMPDEST PUSH2 0x4336 PUSH2 0xE69 JUMP JUMPDEST PUSH2 0x436C JUMPI PUSH1 0x40 MLOAD PUSH32 0x8DFC202B00000000000000000000000000000000000000000000000000000000 DUP2 MSTORE PUSH1 0x4 ADD PUSH1 0x40 MLOAD DUP1 SWAP2 SUB SWAP1 REVERT JUMPDEST JUMP JUMPDEST PUSH0 DUP1 PUSH0 PUSH1 0x10 PUSH0 DUP7 PUSH20 0xFFFFFFFFFFFFFFFFFFFFFFFFFFFFFFFFFFFFFFFF AND PUSH20 0xFFFFFFFFFFFFFFFFFFFFFFFFFFFFFFFFFFFFFFFF AND DUP2 MSTORE PUSH1 0x20 ADD SWAP1 DUP2 MSTORE PUSH1 0x20 ADD PUSH0 KECCAK256 SLOAD SWAP1 POP PUSH0 DUP2 SUB PUSH2 0x43C3 JUMPI DUP4 SWAP3 POP PUSH0 SWAP2 POP PUSH2 0x4476 JUMP JUMPDEST DUP4 DUP2 GT ISZERO PUSH2 0x4423 JUMPI PUSH0 SWAP3 POP DUP4 SWAP2 POP DUP4 DUP2 PUSH2 0x43DD SWAP2 SWAP1 PUSH2 0x5226 JUMP JUMPDEST PUSH1 0x10 PUSH0 DUP8 PUSH20 0xFFFFFFFFFFFFFFFFFFFFFFFFFFFFFFFFFFFFFFFF AND PUSH20 0xFFFFFFFFFFFFFFFFFFFFFFFFFFFFFFFFFFFFFFFF AND DUP2 MSTORE PUSH1 0x20 ADD SWAP1 DUP2 MSTORE PUSH1 0x20 ADD PUSH0 KECCAK256 DUP2 SWAP1 SSTORE POP PUSH2 0x4475 JUMP JUMPDEST DUP1 DUP5 PUSH2 0x442F SWAP2 SWAP1 PUSH2 0x5226 JUMP JUMPDEST SWAP3 POP DUP1 SWAP2 POP PUSH1 0x10 PUSH0 DUP7 PUSH20 0xFFFFFFFFFFFFFFFFFFFFFFFFFFFFFFFFFFFFFFFF AND PUSH20 0xFFFFFFFFFFFFFFFFFFFFFFFFFFFFFFFFFFFFFFFF AND DUP2 MSTORE PUSH1 0x20 ADD SWAP1 DUP2 MSTORE PUSH1 0x20 ADD PUSH0 KECCAK256 PUSH0 SWAP1 SSTORE JUMPDEST JUMPDEST POP SWAP3 POP SWAP3 SWAP1 POP JUMP JUMPDEST PUSH2 0x4486 PUSH2 0xE69 JUMP JUMPDEST ISZERO PUSH2 0x44BD JUMPI PUSH1 0x40 MLOAD PUSH32 0xD93C066500000000000000000000000000000000000000000000000000000000 DUP2 MSTORE PUSH1 0x4 ADD PUSH1 0x40 MLOAD DUP1 SWAP2 SUB SWAP1 REVERT JUMPDEST JUMP JUMPDEST PUSH0 PUSH1 0x1 PUSH1 0x2 DUP4 PUSH1 0x3 DUP2 GT ISZERO PUSH2 0x44D7 JUMPI PUSH2 0x44D6 PUSH2 0x5AD7 JUMP JUMPDEST JUMPDEST PUSH2 0x44E1 SWAP2 SWAP1 PUSH2 0x5E23 JUMP JUMPDEST PUSH1 0xFF AND EQ SWAP1 POP SWAP2 SWAP1 POP JUMP JUMPDEST PUSH0 DUP2 ISZERO ISZERO SWAP1 POP SWAP2 SWAP1 POP JUMP JUMPDEST PUSH0 DUP1 DUP4 DUP6 MUL SWAP1 POP PUSH0 DUP1 NOT DUP6 DUP8 MULMOD DUP3 DUP2 LT DUP4 DUP3 SUB SUB SWAP2 POP POP PUSH0 DUP2 SUB PUSH2 0x452F JUMPI DUP4 DUP3 DUP2 PUSH2 0x4525 JUMPI PUSH2 0x4524 PUSH2 0x5DF6 JUMP JUMPDEST JUMPDEST DIV SWAP3 POP POP POP PUSH2 0x45D5 JUMP JUMPDEST DUP1 DUP5 GT PUSH2 0x454E JUMPI PUSH2 0x454D PUSH2 0x4548 PUSH0 DUP7 EQ PUSH1 0x12 PUSH1 0x11 PUSH2 0x47F5 JUMP JUMPDEST PUSH2 0x480E JUMP JUMPDEST JUMPDEST PUSH0 DUP5 DUP7 DUP9 MULMOD SWAP1 POP DUP3 DUP2 GT DUP3 SUB SWAP2 POP DUP1 DUP4 SUB SWAP3 POP PUSH0 DUP6 PUSH0 SUB DUP7 AND SWAP1 POP DUP1 DUP7 DIV SWAP6 POP DUP1 DUP5 DIV SWAP4 POP PUSH1 0x1 DUP2 DUP3 PUSH0 SUB DIV ADD SWAP1 POP DUP1 DUP4 MUL DUP5 OR SWAP4 POP PUSH0 PUSH1 0x2 DUP8 PUSH1 0x3 MUL XOR SWAP1 POP DUP1 DUP8 MUL PUSH1 0x2 SUB DUP2 MUL SWAP1 POP DUP1 DUP8 MUL PUSH1 0x2 SUB DUP2 MUL SWAP1 POP DUP1 DUP8 MUL PUSH1 0x2 SUB DUP2 MUL SWAP1 POP DUP1 DUP8 MUL PUSH1 0x2 SUB DUP2 MUL SWAP1 POP DUP1 DUP8 MUL PUSH1 0x2 SUB DUP2 MUL SWAP1 POP DUP1 DUP8 MUL PUSH1 0x2 SUB DUP2 MUL SWAP1 POP DUP1 DUP6 MUL SWAP6 POP POP POP POP POP POP JUMPDEST SWAP4 SWAP3 POP POP POP JUMP JUMPDEST PUSH0 PUSH20 0xFFFFFFFFFFFFFFFFFFFFFFFFFFFFFFFFFFFFFFFF AND DUP4 PUSH20 0xFFFFFFFFFFFFFFFFFFFFFFFFFFFFFFFFFFFFFFFF AND SUB PUSH2 0x462C JUMPI DUP1 PUSH1 0x2 PUSH0 DUP3 DUP3 SLOAD PUSH2 0x4620 SWAP2 SWAP1 PUSH2 0x533D JUMP JUMPDEST SWAP3 POP POP DUP2 SWAP1 SSTORE POP PUSH2 0x46FA JUMP JUMPDEST PUSH0 DUP1 PUSH0 DUP6 PUSH20 0xFFFFFFFFFFFFFFFFFFFFFFFFFFFFFFFFFFFFFFFF AND PUSH20 0xFFFFFFFFFFFFFFFFFFFFFFFFFFFFFFFFFFFFFFFF AND DUP2 MSTORE PUSH1 0x20 ADD SWAP1 DUP2 MSTORE PUSH1 0x20 ADD PUSH0 KECCAK256 SLOAD SWAP1 POP DUP2 DUP2 LT ISZERO PUSH2 0x46B5 JUMPI DUP4 DUP2 DUP4 PUSH1 0x40 MLOAD PUSH32 0xE450D38C00000000000000000000000000000000000000000000000000000000 DUP2 MSTORE PUSH1 0x4 ADD PUSH2 0x46AC SWAP4 SWAP3 SWAP2 SWAP1 PUSH2 0x4F35 JUMP JUMPDEST PUSH1 0x40 MLOAD DUP1 SWAP2 SUB SWAP1 REVERT JUMPDEST DUP2 DUP2 SUB PUSH0 DUP1 DUP7 PUSH20 0xFFFFFFFFFFFFFFFFFFFFFFFFFFFFFFFFFFFFFFFF AND PUSH20 0xFFFFFFFFFFFFFFFFFFFFFFFFFFFFFFFFFFFFFFFF AND DUP2 MSTORE PUSH1 0x20 ADD SWAP1 DUP2 MSTORE PUSH1 0x20 ADD PUSH0 KECCAK256 DUP2 SWAP1 SSTORE POP POP JUMPDEST PUSH0 PUSH20 0xFFFFFFFFFFFFFFFFFFFFFFFFFFFFFFFFFFFFFFFF AND DUP3 PUSH20 0xFFFFFFFFFFFFFFFFFFFFFFFFFFFFFFFFFFFFFFFF AND SUB PUSH2 0x4741 JUMPI DUP1 PUSH1 0x2 PUSH0 DUP3 DUP3 SLOAD SUB SWAP3 POP POP DUP2 SWAP1 SSTORE POP PUSH2 0x478B JUMP JUMPDEST DUP1 PUSH0 DUP1 DUP5 PUSH20 0xFFFFFFFFFFFFFFFFFFFFFFFFFFFFFFFFFFFFFFFF AND PUSH20 0xFFFFFFFFFFFFFFFFFFFFFFFFFFFFFFFFFFFFFFFF AND DUP2 MSTORE PUSH1 0x20 ADD SWAP1 DUP2 MSTORE PUSH1 0x20 ADD PUSH0 KECCAK256 PUSH0 DUP3 DUP3 SLOAD ADD SWAP3 POP POP DUP2 SWAP1 SSTORE POP JUMPDEST DUP2 PUSH20 0xFFFFFFFFFFFFFFFFFFFFFFFFFFFFFFFFFFFFFFFF AND DUP4 PUSH20 0xFFFFFFFFFFFFFFFFFFFFFFFFFFFFFFFFFFFFFFFF AND PUSH32 0xDDF252AD1BE2C89B69C2B068FC378DAA952BA7F163C4A11628F55A4DF523B3EF DUP4 PUSH1 0x40 MLOAD PUSH2 0x47E8 SWAP2 SWAP1 PUSH2 0x4837 JUMP JUMPDEST PUSH1 0x40 MLOAD DUP1 SWAP2 SUB SWAP1 LOG3 POP POP POP JUMP JUMPDEST PUSH0 PUSH2 0x47FF DUP5 PUSH2 0x44EC JUMP JUMPDEST DUP3 DUP5 XOR MUL DUP3 XOR SWAP1 POP SWAP4 SWAP3 POP POP POP JUMP JUMPDEST PUSH4 0x4E487B71 PUSH0 MSTORE DUP1 PUSH1 0x20 MSTORE PUSH1 0x24 PUSH1 0x1C REVERT JUMPDEST PUSH0 DUP2 SWAP1 POP SWAP2 SWAP1 POP JUMP JUMPDEST PUSH2 0x4831 DUP2 PUSH2 0x481F JUMP JUMPDEST DUP3 MSTORE POP POP JUMP JUMPDEST PUSH0 PUSH1 0x20 DUP3 ADD SWAP1 POP PUSH2 0x484A PUSH0 DUP4 ADD DUP5 PUSH2 0x4828 JUMP JUMPDEST SWAP3 SWAP2 POP POP JUMP JUMPDEST PUSH0 DUP2 MLOAD SWAP1 POP SWAP2 SWAP1 POP JUMP JUMPDEST PUSH0 DUP3 DUP3 MSTORE PUSH1 0x20 DUP3 ADD SWAP1 POP SWAP3 SWAP2 POP POP JUMP JUMPDEST DUP3 DUP2 DUP4 MCOPY PUSH0 DUP4 DUP4 ADD MSTORE POP POP POP JUMP JUMPDEST PUSH0 PUSH1 0x1F NOT PUSH1 0x1F DUP4 ADD AND SWAP1 POP SWAP2 SWAP1 POP JUMP JUMPDEST PUSH0 PUSH2 0x4892 DUP3 PUSH2 0x4850 JUMP JUMPDEST PUSH2 0x489C DUP2 DUP6 PUSH2 0x485A JUMP JUMPDEST SWAP4 POP PUSH2 0x48AC DUP2 DUP6 PUSH1 0x20 DUP7 ADD PUSH2 0x486A JUMP JUMPDEST PUSH2 0x48B5 DUP2 PUSH2 0x4878 JUMP JUMPDEST DUP5 ADD SWAP2 POP POP SWAP3 SWAP2 POP POP JUMP JUMPDEST PUSH0 PUSH1 0x20 DUP3 ADD SWAP1 POP DUP2 DUP2 SUB PUSH0 DUP4 ADD MSTORE PUSH2 0x48D8 DUP2 DUP5 PUSH2 0x4888 JUMP JUMPDEST SWAP1 POP SWAP3 SWAP2 POP POP JUMP JUMPDEST PUSH0 PUSH1 0x40 MLOAD SWAP1 POP SWAP1 JUMP JUMPDEST PUSH0 DUP1 REVERT JUMPDEST PUSH0 DUP1 REVERT JUMPDEST PUSH0 PUSH20 0xFFFFFFFFFFFFFFFFFFFFFFFFFFFFFFFFFFFFFFFF DUP3 AND SWAP1 POP SWAP2 SWAP1 POP JUMP JUMPDEST PUSH0 PUSH2 0x491A DUP3 PUSH2 0x48F1 JUMP JUMPDEST SWAP1 POP SWAP2 SWAP1 POP JUMP JUMPDEST PUSH2 0x492A DUP2 PUSH2 0x4910 JUMP JUMPDEST DUP2 EQ PUSH2 0x4934 JUMPI PUSH0 DUP1 REVERT JUMPDEST POP JUMP JUMPDEST PUSH0 DUP2 CALLDATALOAD SWAP1 POP PUSH2 0x4945 DUP2 PUSH2 0x4921 JUMP JUMPDEST SWAP3 SWAP2 POP POP JUMP JUMPDEST PUSH2 0x4954 DUP2 PUSH2 0x481F JUMP JUMPDEST DUP2 EQ PUSH2 0x495E JUMPI PUSH0 DUP1 REVERT JUMPDEST POP JUMP JUMPDEST PUSH0 DUP2 CALLDATALOAD SWAP1 POP PUSH2 0x496F DUP2 PUSH2 0x494B JUMP JUMPDEST SWAP3 SWAP2 POP POP JUMP JUMPDEST PUSH0 DUP1 PUSH1 0x40 DUP4 DUP6 SUB SLT ISZERO PUSH2 0x498B JUMPI PUSH2 0x498A PUSH2 0x48E9 JUMP JUMPDEST JUMPDEST PUSH0 PUSH2 0x4998 DUP6 DUP3 DUP7 ADD PUSH2 0x4937 JUMP JUMPDEST SWAP3 POP POP PUSH1 0x20 PUSH2 0x49A9 DUP6 DUP3 DUP7 ADD PUSH2 0x4961 JUMP JUMPDEST SWAP2 POP POP SWAP3 POP SWAP3 SWAP1 POP JUMP JUMPDEST PUSH0 DUP2 ISZERO ISZERO SWAP1 POP SWAP2 SWAP1 POP JUMP JUMPDEST PUSH2 0x49C7 DUP2 PUSH2 0x49B3 JUMP JUMPDEST DUP3 MSTORE POP POP JUMP JUMPDEST PUSH0 PUSH1 0x20 DUP3 ADD SWAP1 POP PUSH2 0x49E0 PUSH0 DUP4 ADD DUP5 PUSH2 0x49BE JUMP JUMPDEST SWAP3 SWAP2 POP POP JUMP JUMPDEST PUSH0 PUSH1 0x20 DUP3 DUP5 SUB SLT ISZERO PUSH2 0x49FB JUMPI PUSH2 0x49FA PUSH2 0x48E9 JUMP JUMPDEST JUMPDEST PUSH0 PUSH2 0x4A08 DUP5 DUP3 DUP6 ADD PUSH2 0x4961 JUMP JUMPDEST SWAP2 POP POP SWAP3 SWAP2 POP POP JUMP JUMPDEST PUSH0 DUP1 REVERT JUMPDEST PUSH0 DUP1 REVERT JUMPDEST PUSH32 0x4E487B7100000000000000000000000000000000000000000000000000000000 PUSH0 MSTORE PUSH1 0x41 PUSH1 0x4 MSTORE PUSH1 0x24 PUSH0 REVERT JUMPDEST PUSH2 0x4A4F DUP3 PUSH2 0x4878 JUMP JUMPDEST DUP2 ADD DUP2 DUP2 LT PUSH8 0xFFFFFFFFFFFFFFFF DUP3 GT OR ISZERO PUSH2 0x4A6E JUMPI PUSH2 0x4A6D PUSH2 0x4A19 JUMP JUMPDEST JUMPDEST DUP1 PUSH1 0x40 MSTORE POP POP POP JUMP JUMPDEST PUSH0 PUSH2 0x4A80 PUSH2 0x48E0 JUMP JUMPDEST SWAP1 POP PUSH2 0x4A8C DUP3 DUP3 PUSH2 0x4A46 JUMP JUMPDEST SWAP2 SWAP1 POP JUMP JUMPDEST PUSH0 PUSH8 0xFFFFFFFFFFFFFFFF DUP3 GT ISZERO PUSH2 0x4AAB JUMPI PUSH2 0x4AAA PUSH2 0x4A19 JUMP JUMPDEST JUMPDEST PUSH2 0x4AB4 DUP3 PUSH2 0x4878 JUMP JUMPDEST SWAP1 POP PUSH1 0x20 DUP2 ADD SWAP1 POP SWAP2 SWAP1 POP JUMP JUMPDEST DUP3 DUP2 DUP4 CALLDATACOPY PUSH0 DUP4 DUP4 ADD MSTORE POP POP POP JUMP JUMPDEST PUSH0 PUSH2 0x4AE1 PUSH2 0x4ADC DUP5 PUSH2 0x4A91 JUMP JUMPDEST PUSH2 0x4A77 JUMP JUMPDEST SWAP1 POP DUP3 DUP2 MSTORE PUSH1 0x20 DUP2 ADD DUP5 DUP5 DUP5 ADD GT ISZERO PUSH2 0x4AFD JUMPI PUSH2 0x4AFC PUSH2 0x4A15 JUMP JUMPDEST JUMPDEST PUSH2 0x4B08 DUP5 DUP3 DUP6 PUSH2 0x4AC1 JUMP JUMPDEST POP SWAP4 SWAP3 POP POP POP JUMP JUMPDEST PUSH0 DUP3 PUSH1 0x1F DUP4 ADD SLT PUSH2 0x4B24 JUMPI PUSH2 0x4B23 PUSH2 0x4A11 JUMP JUMPDEST JUMPDEST DUP2 CALLDATALOAD PUSH2 0x4B34 DUP5 DUP3 PUSH1 0x20 DUP7 ADD PUSH2 0x4ACF JUMP JUMPDEST SWAP2 POP POP SWAP3 SWAP2 POP POP JUMP JUMPDEST PUSH0 DUP1 PUSH0 DUP1 PUSH1 0x80 DUP6 DUP8 SUB SLT ISZERO PUSH2 0x4B55 JUMPI PUSH2 0x4B54 PUSH2 0x48E9 JUMP JUMPDEST JUMPDEST PUSH0 PUSH2 0x4B62 DUP8 DUP3 DUP9 ADD PUSH2 0x4937 JUMP JUMPDEST SWAP5 POP POP PUSH1 0x20 PUSH2 0x4B73 DUP8 DUP3 DUP9 ADD PUSH2 0x4937 JUMP JUMPDEST SWAP4 POP POP PUSH1 0x40 PUSH2 0x4B84 DUP8 DUP3 DUP9 ADD PUSH2 0x4961 JUMP JUMPDEST SWAP3 POP POP PUSH1 0x60 DUP6 ADD CALLDATALOAD PUSH8 0xFFFFFFFFFFFFFFFF DUP2 GT ISZERO PUSH2 0x4BA5 JUMPI PUSH2 0x4BA4 PUSH2 0x48ED JUMP JUMPDEST JUMPDEST PUSH2 0x4BB1 DUP8 DUP3 DUP9 ADD PUSH2 0x4B10 JUMP JUMPDEST SWAP2 POP POP SWAP3 SWAP6 SWAP2 SWAP5 POP SWAP3 POP JUMP JUMPDEST PUSH0 PUSH32 0xFFFFFFFF00000000000000000000000000000000000000000000000000000000 DUP3 AND SWAP1 POP SWAP2 SWAP1 POP JUMP JUMPDEST PUSH2 0x4BF1 DUP2 PUSH2 0x4BBD JUMP JUMPDEST DUP3 MSTORE POP POP JUMP JUMPDEST PUSH0 PUSH1 0x20 DUP3 ADD SWAP1 POP PUSH2 0x4C0A PUSH0 DUP4 ADD DUP5 PUSH2 0x4BE8 JUMP JUMPDEST SWAP3 SWAP2 POP POP JUMP JUMPDEST PUSH0 DUP1 PUSH0 PUSH1 0x60 DUP5 DUP7 SUB SLT ISZERO PUSH2 0x4C27 JUMPI PUSH2 0x4C26 PUSH2 0x48E9 JUMP JUMPDEST JUMPDEST PUSH0 PUSH2 0x4C34 DUP7 DUP3 DUP8 ADD PUSH2 0x4937 JUMP JUMPDEST SWAP4 POP POP PUSH1 0x20 PUSH2 0x4C45 DUP7 DUP3 DUP8 ADD PUSH2 0x4937 JUMP JUMPDEST SWAP3 POP POP PUSH1 0x40 PUSH2 0x4C56 DUP7 DUP3 DUP8 ADD PUSH2 0x4961 JUMP JUMPDEST SWAP2 POP POP SWAP3 POP SWAP3 POP SWAP3 JUMP JUMPDEST PUSH0 PUSH1 0xE0 DUP3 ADD SWAP1 POP PUSH2 0x4C73 PUSH0 DUP4 ADD DUP11 PUSH2 0x4828 JUMP JUMPDEST PUSH2 0x4C80 PUSH1 0x20 DUP4 ADD DUP10 PUSH2 0x4828 JUMP JUMPDEST PUSH2 0x4C8D PUSH1 0x40 DUP4 ADD DUP9 PUSH2 0x4828 JUMP JUMPDEST PUSH2 0x4C9A PUSH1 0x60 DUP4 ADD DUP8 PUSH2 0x4828 JUMP JUMPDEST PUSH2 0x4CA7 PUSH1 0x80 DUP4 ADD DUP7 PUSH2 0x4828 JUMP JUMPDEST PUSH2 0x4CB4 PUSH1 0xA0 DUP4 ADD DUP6 PUSH2 0x4828 JUMP JUMPDEST PUSH2 0x4CC1 PUSH1 0xC0 DUP4 ADD DUP5 PUSH2 0x4828 JUMP JUMPDEST SWAP9 SWAP8 POP POP POP POP POP POP POP POP JUMP JUMPDEST PUSH0 PUSH1 0xFF DUP3 AND SWAP1 POP SWAP2 SWAP1 POP JUMP JUMPDEST PUSH2 0x4CE2 DUP2 PUSH2 0x4CCD JUMP JUMPDEST DUP3 MSTORE POP POP JUMP JUMPDEST PUSH0 PUSH1 0x20 DUP3 ADD SWAP1 POP PUSH2 0x4CFB PUSH0 DUP4 ADD DUP5 PUSH2 0x4CD9 JUMP JUMPDEST SWAP3 SWAP2 POP POP JUMP JUMPDEST PUSH0 PUSH2 0x4D0B DUP3 PUSH2 0x4910 JUMP JUMPDEST SWAP1 POP SWAP2 SWAP1 POP JUMP JUMPDEST PUSH2 0x4D1B DUP2 PUSH2 0x4D01 JUMP JUMPDEST DUP2 EQ PUSH2 0x4D25 JUMPI PUSH0 DUP1 REVERT JUMPDEST POP JUMP JUMPDEST PUSH0 DUP2 CALLDATALOAD SWAP1 POP PUSH2 0x4D36 DUP2 PUSH2 0x4D12 JUMP JUMPDEST SWAP3 SWAP2 POP POP JUMP JUMPDEST PUSH0 DUP1 REVERT JUMPDEST PUSH0 DUP1 REVERT JUMPDEST PUSH0 DUP1 DUP4 PUSH1 0x1F DUP5 ADD SLT PUSH2 0x4D59 JUMPI PUSH2 0x4D58 PUSH2 0x4A11 JUMP JUMPDEST JUMPDEST DUP3 CALLDATALOAD SWAP1 POP PUSH8 0xFFFFFFFFFFFFFFFF DUP2 GT ISZERO PUSH2 0x4D76 JUMPI PUSH2 0x4D75 PUSH2 0x4D3C JUMP JUMPDEST JUMPDEST PUSH1 0x20 DUP4 ADD SWAP2 POP DUP4 PUSH1 0x1 DUP3 MUL DUP4 ADD GT ISZERO PUSH2 0x4D92 JUMPI PUSH2 0x4D91 PUSH2 0x4D40 JUMP JUMPDEST JUMPDEST SWAP3 POP SWAP3 SWAP1 POP JUMP JUMPDEST PUSH0 DUP1 PUSH0 DUP1 PUSH0 PUSH1 0x80 DUP7 DUP9 SUB SLT ISZERO PUSH2 0x4DB2 JUMPI PUSH2 0x4DB1 PUSH2 0x48E9 JUMP JUMPDEST JUMPDEST PUSH0 PUSH2 0x4DBF DUP9 DUP3 DUP10 ADD PUSH2 0x4D28 JUMP JUMPDEST SWAP6 POP POP PUSH1 0x20 PUSH2 0x4DD0 DUP9 DUP3 DUP10 ADD PUSH2 0x4937 JUMP JUMPDEST SWAP5 POP POP PUSH1 0x40 PUSH2 0x4DE1 DUP9 DUP3 DUP10 ADD PUSH2 0x4961 JUMP JUMPDEST SWAP4 POP POP PUSH1 0x60 DUP7 ADD CALLDATALOAD PUSH8 0xFFFFFFFFFFFFFFFF DUP2 GT ISZERO PUSH2 0x4E02 JUMPI PUSH2 0x4E01 PUSH2 0x48ED JUMP JUMPDEST JUMPDEST PUSH2 0x4E0E DUP9 DUP3 DUP10 ADD PUSH2 0x4D44 JUMP JUMPDEST SWAP3 POP SWAP3 POP POP SWAP3 SWAP6 POP SWAP3 SWAP6 SWAP1 SWAP4 POP JUMP JUMPDEST PUSH0 PUSH1 0x20 DUP3 DUP5 SUB SLT ISZERO PUSH2 0x4E32 JUMPI PUSH2 0x4E31 PUSH2 0x48E9 JUMP JUMPDEST JUMPDEST PUSH0 PUSH2 0x4E3F DUP5 DUP3 DUP6 ADD PUSH2 0x4937 JUMP JUMPDEST SWAP2 POP POP SWAP3 SWAP2 POP POP JUMP JUMPDEST PUSH0 DUP1 PUSH1 0x40 DUP4 DUP6 SUB SLT ISZERO PUSH2 0x4E5E JUMPI PUSH2 0x4E5D PUSH2 0x48E9 JUMP JUMPDEST JUMPDEST PUSH0 PUSH2 0x4E6B DUP6 DUP3 DUP7 ADD PUSH2 0x4961 JUMP JUMPDEST SWAP3 POP POP PUSH1 0x20 PUSH2 0x4E7C DUP6 DUP3 DUP7 ADD PUSH2 0x4937 JUMP JUMPDEST SWAP2 POP POP SWAP3 POP SWAP3 SWAP1 POP JUMP JUMPDEST PUSH0 DUP1 PUSH0 PUSH1 0x60 DUP5 DUP7 SUB SLT ISZERO PUSH2 0x4E9D JUMPI PUSH2 0x4E9C PUSH2 0x48E9 JUMP JUMPDEST JUMPDEST PUSH0 PUSH2 0x4EAA DUP7 DUP3 DUP8 ADD PUSH2 0x4961 JUMP JUMPDEST SWAP4 POP POP PUSH1 0x20 PUSH2 0x4EBB DUP7 DUP3 DUP8 ADD PUSH2 0x4937 JUMP JUMPDEST SWAP3 POP POP PUSH1 0x40 PUSH2 0x4ECC DUP7 DUP3 DUP8 ADD PUSH2 0x4937 JUMP JUMPDEST SWAP2 POP POP SWAP3 POP SWAP3 POP SWAP3 JUMP JUMPDEST PUSH0 DUP1 PUSH0 PUSH1 0x60 DUP5 DUP7 SUB SLT ISZERO PUSH2 0x4EED JUMPI PUSH2 0x4EEC PUSH2 0x48E9 JUMP JUMPDEST JUMPDEST PUSH0 PUSH2 0x4EFA DUP7 DUP3 DUP8 ADD PUSH2 0x4937 JUMP JUMPDEST SWAP4 POP POP PUSH1 0x20 PUSH2 0x4F0B DUP7 DUP3 DUP8 ADD PUSH2 0x4961 JUMP JUMPDEST SWAP3 POP POP PUSH1 0x40 PUSH2 0x4F1C DUP7 DUP3 DUP8 ADD PUSH2 0x4961 JUMP JUMPDEST SWAP2 POP POP SWAP3 POP SWAP3 POP SWAP3 JUMP JUMPDEST PUSH2 0x4F2F DUP2 PUSH2 0x4910 JUMP JUMPDEST DUP3 MSTORE POP POP JUMP JUMPDEST PUSH0 PUSH1 0x60 DUP3 ADD SWAP1 POP PUSH2 0x4F48 PUSH0 DUP4 ADD DUP7 PUSH2 0x4F26 JUMP JUMPDEST PUSH2 0x4F55 PUSH1 0x20 DUP4 ADD DUP6 PUSH2 0x4828 JUMP JUMPDEST PUSH2 0x4F62 PUSH1 0x40 DUP4 ADD DUP5 PUSH2 0x4828 JUMP JUMPDEST SWAP5 SWAP4 POP POP POP POP JUMP JUMPDEST PUSH0 DUP1 PUSH1 0x40 DUP4 DUP6 SUB SLT ISZERO PUSH2 0x4F80 JUMPI PUSH2 0x4F7F PUSH2 0x48E9 JUMP JUMPDEST JUMPDEST PUSH0 PUSH2 0x4F8D DUP6 DUP3 DUP7 ADD PUSH2 0x4937 JUMP JUMPDEST SWAP3 POP POP PUSH1 0x20 PUSH2 0x4F9E DUP6 DUP3 DUP7 ADD PUSH2 0x4937 JUMP JUMPDEST SWAP2 POP POP SWAP3 POP SWAP3 SWAP1 POP JUMP JUMPDEST PUSH0 PUSH2 0x4FB2 DUP3 PUSH2 0x4910 JUMP JUMPDEST SWAP1 POP SWAP2 SWAP1 POP JUMP JUMPDEST PUSH2 0x4FC2 DUP2 PUSH2 0x4FA8 JUMP JUMPDEST DUP2 EQ PUSH2 0x4FCC JUMPI PUSH0 DUP1 REVERT JUMPDEST POP JUMP JUMPDEST PUSH0 DUP2 CALLDATALOAD SWAP1 POP PUSH2 0x4FDD DUP2 PUSH2 0x4FB9 JUMP JUMPDEST SWAP3 SWAP2 POP POP JUMP JUMPDEST PUSH0 DUP1 PUSH0 PUSH1 0x60 DUP5 DUP7 SUB SLT ISZERO PUSH2 0x4FFA JUMPI PUSH2 0x4FF9 PUSH2 0x48E9 JUMP JUMPDEST JUMPDEST PUSH0 PUSH2 0x5007 DUP7 DUP3 DUP8 ADD PUSH2 0x4FCF JUMP JUMPDEST SWAP4 POP POP PUSH1 0x20 PUSH2 0x5018 DUP7 DUP3 DUP8 ADD PUSH2 0x4961 JUMP JUMPDEST SWAP3 POP POP PUSH1 0x40 PUSH2 0x5029 DUP7 DUP3 DUP8 ADD PUSH2 0x4961 JUMP JUMPDEST SWAP2 POP POP SWAP3 POP SWAP3 POP SWAP3 JUMP JUMPDEST PUSH0 PUSH1 0x20 DUP3 ADD SWAP1 POP PUSH2 0x5046 PUSH0 DUP4 ADD DUP5 PUSH2 0x4F26 JUMP JUMPDEST SWAP3 SWAP2 POP POP JUMP JUMPDEST PUSH32 0x696E76616C696420726563656976657200000000000000000000000000000000 PUSH0 DUP3 ADD MSTORE POP JUMP JUMPDEST PUSH0 PUSH2 0x5080 PUSH1 0x10 DUP4 PUSH2 0x485A JUMP JUMPDEST SWAP2 POP PUSH2 0x508B DUP3 PUSH2 0x504C JUMP JUMPDEST PUSH1 0x20 DUP3 ADD SWAP1 POP SWAP2 SWAP1 POP JUMP JUMPDEST PUSH0 PUSH1 0x20 DUP3 ADD SWAP1 POP DUP2 DUP2 SUB PUSH0 DUP4 ADD MSTORE PUSH2 0x50AD DUP2 PUSH2 0x5074 JUMP JUMPDEST SWAP1 POP SWAP2 SWAP1 POP JUMP JUMPDEST PUSH32 0x4E487B7100000000000000000000000000000000000000000000000000000000 PUSH0 MSTORE PUSH1 0x22 PUSH1 0x4 MSTORE PUSH1 0x24 PUSH0 REVERT JUMPDEST PUSH0 PUSH1 0x2 DUP3 DIV SWAP1 POP PUSH1 0x1 DUP3 AND DUP1 PUSH2 0x50F8 JUMPI PUSH1 0x7F DUP3 AND SWAP2 POP JUMPDEST PUSH1 0x20 DUP3 LT DUP2 SUB PUSH2 0x510B JUMPI PUSH2 0x510A PUSH2 0x50B4 JUMP JUMPDEST JUMPDEST POP SWAP2 SWAP1 POP JUMP JUMPDEST PUSH0 DUP2 MLOAD SWAP1 POP SWAP2 SWAP1 POP JUMP JUMPDEST PUSH0 DUP3 DUP3 MSTORE PUSH1 0x20 DUP3 ADD SWAP1 POP SWAP3 SWAP2 POP POP JUMP JUMPDEST PUSH0 PUSH2 0x5135 DUP3 PUSH2 0x5111 JUMP JUMPDEST PUSH2 0x513F DUP2 DUP6 PUSH2 0x511B JUMP JUMPDEST SWAP4 POP PUSH2 0x514F DUP2 DUP6 PUSH1 0x20 DUP7 ADD PUSH2 0x486A JUMP JUMPDEST PUSH2 0x5158 DUP2 PUSH2 0x4878 JUMP JUMPDEST DUP5 ADD SWAP2 POP POP SWAP3 SWAP2 POP POP JUMP JUMPDEST PUSH0 PUSH1 0x40 DUP3 ADD SWAP1 POP PUSH2 0x5176 PUSH0 DUP4 ADD DUP6 PUSH2 0x4F26 JUMP JUMPDEST DUP2 DUP2 SUB PUSH1 0x20 DUP4 ADD MSTORE PUSH2 0x5188 DUP2 DUP5 PUSH2 0x512B JUMP JUMPDEST SWAP1 POP SWAP4 SWAP3 POP POP POP JUMP JUMPDEST PUSH32 0x6E6F7420617574686F72697A6564000000000000000000000000000000000000 PUSH0 DUP3 ADD MSTORE POP JUMP JUMPDEST PUSH0 PUSH2 0x51C5 PUSH1 0xE DUP4 PUSH2 0x485A JUMP JUMPDEST SWAP2 POP PUSH2 0x51D0 DUP3 PUSH2 0x5191 JUMP JUMPDEST PUSH1 0x20 DUP3 ADD SWAP1 POP SWAP2 SWAP1 POP JUMP JUMPDEST PUSH0 PUSH1 0x20 DUP3 ADD SWAP1 POP DUP2 DUP2 SUB PUSH0 DUP4 ADD MSTORE PUSH2 0x51F2 DUP2 PUSH2 0x51B9 JUMP JUMPDEST SWAP1 POP SWAP2 SWAP1 POP JUMP JUMPDEST PUSH32 0x4E487B7100000000000000000000000000000000000000000000000000000000 PUSH0 MSTORE PUSH1 0x11 PUSH1 0x4 MSTORE PUSH1 0x24 PUSH0 REVERT JUMPDEST PUSH0 PUSH2 0x5230 DUP3 PUSH2 0x481F JUMP JUMPDEST SWAP2 POP PUSH2 0x523B DUP4 PUSH2 0x481F JUMP JUMPDEST SWAP3 POP DUP3 DUP3 SUB SWAP1 POP DUP2 DUP2 GT ISZERO PUSH2 0x5253 JUMPI PUSH2 0x5252 PUSH2 0x51F9 JUMP JUMPDEST JUMPDEST SWAP3 SWAP2 POP POP JUMP JUMPDEST PUSH0 PUSH2 0x5264 DUP4 DUP6 PUSH2 0x511B JUMP JUMPDEST SWAP4 POP PUSH2 0x5271 DUP4 DUP6 DUP5 PUSH2 0x4AC1 JUMP JUMPDEST PUSH2 0x527A DUP4 PUSH2 0x4878 JUMP JUMPDEST DUP5 ADD SWAP1 POP SWAP4 SWAP3 POP POP POP JUMP JUMPDEST PUSH0 PUSH1 0xA0 DUP3 ADD SWAP1 POP PUSH2 0x5298 PUSH0 DUP4 ADD DUP10 PUSH2 0x4F26 JUMP JUMPDEST PUSH2 0x52A5 PUSH1 0x20 DUP4 ADD DUP9 PUSH2 0x4F26 JUMP JUMPDEST PUSH2 0x52B2 PUSH1 0x40 DUP4 ADD DUP8 PUSH2 0x4828 JUMP JUMPDEST PUSH2 0x52BF PUSH1 0x60 DUP4 ADD DUP7 PUSH2 0x4828 JUMP JUMPDEST DUP2 DUP2 SUB PUSH1 0x80 DUP4 ADD MSTORE PUSH2 0x52D2 DUP2 DUP5 DUP7 PUSH2 0x5259 JUMP JUMPDEST SWAP1 POP SWAP8 SWAP7 POP POP POP POP POP POP POP JUMP JUMPDEST PUSH0 DUP2 SWAP1 POP SWAP2 SWAP1 POP JUMP JUMPDEST PUSH2 0x52F1 DUP2 PUSH2 0x52DF JUMP JUMPDEST DUP2 EQ PUSH2 0x52FB JUMPI PUSH0 DUP1 REVERT JUMPDEST POP JUMP JUMPDEST PUSH0 DUP2 MLOAD SWAP1 POP PUSH2 0x530C DUP2 PUSH2 0x52E8 JUMP JUMPDEST SWAP3 SWAP2 POP POP JUMP JUMPDEST PUSH0 PUSH1 0x20 DUP3 DUP5 SUB SLT ISZERO PUSH2 0x5327 JUMPI PUSH2 0x5326 PUSH2 0x48E9 JUMP JUMPDEST JUMPDEST PUSH0 PUSH2 0x5334 DUP5 DUP3 DUP6 ADD PUSH2 0x52FE JUMP JUMPDEST SWAP2 POP POP SWAP3 SWAP2 POP POP JUMP JUMPDEST PUSH0 PUSH2 0x5347 DUP3 PUSH2 0x481F JUMP JUMPDEST SWAP2 POP PUSH2 0x5352 DUP4 PUSH2 0x481F JUMP JUMPDEST SWAP3 POP DUP3 DUP3 ADD SWAP1 POP DUP1 DUP3 GT ISZERO PUSH2 0x536A JUMPI PUSH2 0x5369 PUSH2 0x51F9 JUMP JUMPDEST JUMPDEST SWAP3 SWAP2 POP POP JUMP JUMPDEST PUSH0 DUP2 MLOAD SWAP1 POP PUSH2 0x537E DUP2 PUSH2 0x494B JUMP JUMPDEST SWAP3 SWAP2 POP POP JUMP JUMPDEST PUSH0 PUSH1 0x20 DUP3 DUP5 SUB SLT ISZERO PUSH2 0x5399 JUMPI PUSH2 0x5398 PUSH2 0x48E9 JUMP JUMPDEST JUMPDEST PUSH0 PUSH2 0x53A6 DUP5 DUP3 DUP6 ADD PUSH2 0x5370 JUMP JUMPDEST SWAP2 POP POP SWAP3 SWAP2 POP POP JUMP JUMPDEST PUSH32 0x696E76616C6964206E66744F7264657246656500000000000000000000000000 PUSH0 DUP3 ADD MSTORE POP JUMP JUMPDEST PUSH0 PUSH2 0x53E3 PUSH1 0x13 DUP4 PUSH2 0x485A JUMP JUMPDEST SWAP2 POP PUSH2 0x53EE DUP3 PUSH2 0x53AF JUMP JUMPDEST PUSH1 0x20 DUP3 ADD SWAP1 POP SWAP2 SWAP1 POP JUMP JUMPDEST PUSH0 PUSH1 0x20 DUP3 ADD SWAP1 POP DUP2 DUP2 SUB PUSH0 DUP4 ADD MSTORE PUSH2 0x5410 DUP2 PUSH2 0x53D7 JUMP JUMPDEST SWAP1 POP SWAP2 SWAP1 POP JUMP JUMPDEST PUSH0 PUSH1 0x40 DUP3 ADD SWAP1 POP PUSH2 0x542A PUSH0 DUP4 ADD DUP6 PUSH2 0x4828 JUMP JUMPDEST PUSH2 0x5437 PUSH1 0x20 DUP4 ADD DUP5 PUSH2 0x4828 JUMP JUMPDEST SWAP4 SWAP3 POP POP POP JUMP JUMPDEST PUSH0 PUSH1 0x60 DUP3 ADD SWAP1 POP PUSH2 0x5451 PUSH0 DUP4 ADD DUP7 PUSH2 0x4F26 JUMP JUMPDEST PUSH2 0x545E PUSH1 0x20 DUP4 ADD DUP6 PUSH2 0x4F26 JUMP JUMPDEST PUSH2 0x546B PUSH1 0x40 DUP4 ADD DUP5 PUSH2 0x4828 JUMP JUMPDEST SWAP5 SWAP4 POP POP POP POP JUMP JUMPDEST PUSH0 PUSH1 0x40 DUP3 ADD SWAP1 POP PUSH2 0x5486 PUSH0 DUP4 ADD DUP6 PUSH2 0x4828 JUMP JUMPDEST PUSH2 0x5493 PUSH1 0x20 DUP4 ADD DUP5 PUSH2 0x4F26 JUMP JUMPDEST SWAP4 SWAP3 POP POP POP JUMP JUMPDEST PUSH32 0x696E76616C6964206163636F756E740000000000000000000000000000000000 PUSH0 DUP3 ADD MSTORE POP JUMP JUMPDEST PUSH0 PUSH2 0x54CE PUSH1 0xF DUP4 PUSH2 0x485A JUMP JUMPDEST SWAP2 POP PUSH2 0x54D9 DUP3 PUSH2 0x549A JUMP JUMPDEST PUSH1 0x20 DUP3 ADD SWAP1 POP SWAP2 SWAP1 POP JUMP JUMPDEST PUSH0 PUSH1 0x20 DUP3 ADD SWAP1 POP DUP2 DUP2 SUB PUSH0 DUP4 ADD MSTORE PUSH2 0x54FB DUP2 PUSH2 0x54C2 JUMP JUMPDEST SWAP1 POP SWAP2 SWAP1 POP JUMP JUMPDEST PUSH32 0x696E76616C696420776974686472617746656500000000000000000000000000 PUSH0 DUP3 ADD MSTORE POP JUMP JUMPDEST PUSH0 PUSH2 0x5536 PUSH1 0x13 DUP4 PUSH2 0x485A JUMP JUMPDEST SWAP2 POP PUSH2 0x5541 DUP3 PUSH2 0x5502 JUMP JUMPDEST PUSH1 0x20 DUP3 ADD SWAP1 POP SWAP2 SWAP1 POP JUMP JUMPDEST PUSH0 PUSH1 0x20 DUP3 ADD SWAP1 POP DUP2 DUP2 SUB PUSH0 DUP4 ADD MSTORE PUSH2 0x5563 DUP2 PUSH2 0x552A JUMP JUMPDEST SWAP1 POP SWAP2 SWAP1 POP JUMP JUMPDEST PUSH32 0x66756E6420617661696C61626C65206D75737420626520677265617465720000 PUSH0 DUP3 ADD MSTORE POP JUMP JUMPDEST PUSH0 PUSH2 0x559E PUSH1 0x1E DUP4 PUSH2 0x485A JUMP JUMPDEST SWAP2 POP PUSH2 0x55A9 DUP3 PUSH2 0x556A JUMP JUMPDEST PUSH1 0x20 DUP3 ADD SWAP1 POP SWAP2 SWAP1 POP JUMP JUMPDEST PUSH0 PUSH1 0x20 DUP3 ADD SWAP1 POP DUP2 DUP2 SUB PUSH0 DUP4 ADD MSTORE PUSH2 0x55CB DUP2 PUSH2 0x5592 JUMP JUMPDEST SWAP1 POP SWAP2 SWAP1 POP JUMP JUMPDEST PUSH32 0x696E76616C6964206F776E657200000000000000000000000000000000000000 PUSH0 DUP3 ADD MSTORE POP JUMP JUMPDEST PUSH0 PUSH2 0x5606 PUSH1 0xD DUP4 PUSH2 0x485A JUMP JUMPDEST SWAP2 POP PUSH2 0x5611 DUP3 PUSH2 0x55D2 JUMP JUMPDEST PUSH1 0x20 DUP3 ADD SWAP1 POP SWAP2 SWAP1 POP JUMP JUMPDEST PUSH0 PUSH1 0x20 DUP3 ADD SWAP1 POP DUP2 DUP2 SUB PUSH0 DUP4 ADD MSTORE PUSH2 0x5633 DUP2 PUSH2 0x55FA JUMP JUMPDEST SWAP1 POP SWAP2 SWAP1 POP JUMP JUMPDEST PUSH32 0x696E76616C6964206E6674206164647265737300000000000000000000000000 PUSH0 DUP3 ADD MSTORE POP JUMP JUMPDEST PUSH0 PUSH2 0x566E PUSH1 0x13 DUP4 PUSH2 0x485A JUMP JUMPDEST SWAP2 POP PUSH2 0x5679 DUP3 PUSH2 0x563A JUMP JUMPDEST PUSH1 0x20 DUP3 ADD SWAP1 POP SWAP2 SWAP1 POP JUMP JUMPDEST PUSH0 PUSH1 0x20 DUP3 ADD SWAP1 POP DUP2 DUP2 SUB PUSH0 DUP4 ADD MSTORE PUSH2 0x569B DUP2 PUSH2 0x5662 JUMP JUMPDEST SWAP1 POP SWAP2 SWAP1 POP JUMP JUMPDEST PUSH32 0x616C72656164792065786973747320696E2077686974656C6973740000000000 PUSH0 DUP3 ADD MSTORE POP JUMP JUMPDEST PUSH0 PUSH2 0x56D6 PUSH1 0x1B DUP4 PUSH2 0x485A JUMP JUMPDEST SWAP2 POP PUSH2 0x56E1 DUP3 PUSH2 0x56A2 JUMP JUMPDEST PUSH1 0x20 DUP3 ADD SWAP1 POP SWAP2 SWAP1 POP JUMP JUMPDEST PUSH0 PUSH1 0x20 DUP3 ADD SWAP1 POP DUP2 DUP2 SUB PUSH0 DUP4 ADD MSTORE PUSH2 0x5703 DUP2 PUSH2 0x56CA JUMP JUMPDEST SWAP1 POP SWAP2 SWAP1 POP JUMP JUMPDEST PUSH2 0x5713 DUP2 PUSH2 0x49B3 JUMP JUMPDEST DUP2 EQ PUSH2 0x571D JUMPI PUSH0 DUP1 REVERT JUMPDEST POP JUMP JUMPDEST PUSH0 DUP2 MLOAD SWAP1 POP PUSH2 0x572E DUP2 PUSH2 0x570A JUMP JUMPDEST SWAP3 SWAP2 POP POP JUMP JUMPDEST PUSH0 PUSH1 0x20 DUP3 DUP5 SUB SLT ISZERO PUSH2 0x5749 JUMPI PUSH2 0x5748 PUSH2 0x48E9 JUMP JUMPDEST JUMPDEST PUSH0 PUSH2 0x5756 DUP5 DUP3 DUP6 ADD PUSH2 0x5720 JUMP JUMPDEST SWAP2 POP POP SWAP3 SWAP2 POP POP JUMP JUMPDEST PUSH32 0x696E76616C6964206E6674207479706500000000000000000000000000000000 PUSH0 DUP3 ADD MSTORE POP JUMP JUMPDEST PUSH0 PUSH2 0x5793 PUSH1 0x10 DUP4 PUSH2 0x485A JUMP JUMPDEST SWAP2 POP PUSH2 0x579E DUP3 PUSH2 0x575F JUMP JUMPDEST PUSH1 0x20 DUP3 ADD SWAP1 POP SWAP2 SWAP1 POP JUMP JUMPDEST PUSH0 PUSH1 0x20 DUP3 ADD SWAP1 POP DUP2 DUP2 SUB PUSH0 DUP4 ADD MSTORE PUSH2 0x57C0 DUP2 PUSH2 0x5787 JUMP JUMPDEST SWAP1 POP SWAP2 SWAP1 POP JUMP JUMPDEST PUSH32 0x696E76616C6964206E6674000000000000000000000000000000000000000000 PUSH0 DUP3 ADD MSTORE POP JUMP JUMPDEST PUSH0 PUSH2 0x57FB PUSH1 0xB DUP4 PUSH2 0x485A JUMP JUMPDEST SWAP2 POP PUSH2 0x5806 DUP3 PUSH2 0x57C7 JUMP JUMPDEST PUSH1 0x20 DUP3 ADD SWAP1 POP SWAP2 SWAP1 POP JUMP JUMPDEST PUSH0 PUSH1 0x20 DUP3 ADD SWAP1 POP DUP2 DUP2 SUB PUSH0 DUP4 ADD MSTORE PUSH2 0x5828 DUP2 PUSH2 0x57EF JUMP JUMPDEST SWAP1 POP SWAP2 SWAP1 POP JUMP JUMPDEST PUSH32 0x696E76616C696420666C61736846656500000000000000000000000000000000 PUSH0 DUP3 ADD MSTORE POP JUMP JUMPDEST PUSH0 PUSH2 0x5863 PUSH1 0x10 DUP4 PUSH2 0x485A JUMP JUMPDEST SWAP2 POP PUSH2 0x586E DUP3 PUSH2 0x582F JUMP JUMPDEST PUSH1 0x20 DUP3 ADD SWAP1 POP SWAP2 SWAP1 POP JUMP JUMPDEST PUSH0 PUSH1 0x20 DUP3 ADD SWAP1 POP DUP2 DUP2 SUB PUSH0 DUP4 ADD MSTORE PUSH2 0x5890 DUP2 PUSH2 0x5857 JUMP JUMPDEST SWAP1 POP SWAP2 SWAP1 POP JUMP JUMPDEST PUSH32 0x496E73756666696369656E7420616C6C6F77616E636500000000000000000000 PUSH0 DUP3 ADD MSTORE POP JUMP JUMPDEST PUSH0 PUSH2 0x58CB PUSH1 0x16 DUP4 PUSH2 0x485A JUMP JUMPDEST SWAP2 POP PUSH2 0x58D6 DUP3 PUSH2 0x5897 JUMP JUMPDEST PUSH1 0x20 DUP3 ADD SWAP1 POP SWAP2 SWAP1 POP JUMP JUMPDEST PUSH0 PUSH1 0x20 DUP3 ADD SWAP1 POP DUP2 DUP2 SUB PUSH0 DUP4 ADD MSTORE PUSH2 0x58F8 DUP2 PUSH2 0x58BF JUMP JUMPDEST SWAP1 POP SWAP2 SWAP1 POP JUMP JUMPDEST PUSH0 PUSH1 0xC0 DUP3 ADD SWAP1 POP PUSH2 0x5912 PUSH0 DUP4 ADD DUP10 PUSH2 0x4828 JUMP JUMPDEST PUSH2 0x591F PUSH1 0x20 DUP4 ADD DUP9 PUSH2 0x4F26 JUMP JUMPDEST PUSH2 0x592C PUSH1 0x40 DUP4 ADD DUP8 PUSH2 0x4828 JUMP JUMPDEST PUSH2 0x5939 PUSH1 0x60 DUP4 ADD DUP7 PUSH2 0x4828 JUMP JUMPDEST PUSH2 0x5946 PUSH1 0x80 DUP4 ADD DUP6 PUSH2 0x4828 JUMP JUMPDEST PUSH2 0x5953 PUSH1 0xA0 DUP4 ADD DUP5 PUSH2 0x4828 JUMP JUMPDEST SWAP8 SWAP7 POP POP POP POP POP POP POP JUMP JUMPDEST PUSH0 DUP2 PUSH1 0x1 SHR SWAP1 POP SWAP2 SWAP1 POP JUMP JUMPDEST PUSH0 DUP1 DUP3 SWAP2 POP DUP4 SWAP1 POP JUMPDEST PUSH1 0x1 DUP6 GT ISZERO PUSH2 0x59B3 JUMPI DUP1 DUP7 DIV DUP2 GT ISZERO PUSH2 0x598F JUMPI PUSH2 0x598E PUSH2 0x51F9 JUMP JUMPDEST JUMPDEST PUSH1 0x1 DUP6 AND ISZERO PUSH2 0x599E JUMPI DUP1 DUP3 MUL SWAP2 POP JUMPDEST DUP1 DUP2 MUL SWAP1 POP PUSH2 0x59AC DUP6 PUSH2 0x595E JUMP JUMPDEST SWAP5 POP PUSH2 0x5973 JUMP JUMPDEST SWAP5 POP SWAP5 SWAP3 POP POP POP JUMP JUMPDEST PUSH0 DUP3 PUSH2 0x59CB JUMPI PUSH1 0x1 SWAP1 POP PUSH2 0x5A86 JUMP JUMPDEST DUP2 PUSH2 0x59D8 JUMPI PUSH0 SWAP1 POP PUSH2 0x5A86 JUMP JUMPDEST DUP2 PUSH1 0x1 DUP2 EQ PUSH2 0x59EE JUMPI PUSH1 0x2 DUP2 EQ PUSH2 0x59F8 JUMPI PUSH2 0x5A27 JUMP JUMPDEST PUSH1 0x1 SWAP2 POP POP PUSH2 0x5A86 JUMP JUMPDEST PUSH1 0xFF DUP5 GT ISZERO PUSH2 0x5A0A JUMPI PUSH2 0x5A09 PUSH2 0x51F9 JUMP JUMPDEST JUMPDEST DUP4 PUSH1 0x2 EXP SWAP2 POP DUP5 DUP3 GT ISZERO PUSH2 0x5A21 JUMPI PUSH2 0x5A20 PUSH2 0x51F9 JUMP JUMPDEST JUMPDEST POP PUSH2 0x5A86 JUMP JUMPDEST POP PUSH1 0x20 DUP4 LT PUSH2 0x133 DUP4 LT AND PUSH1 0x4E DUP5 LT PUSH1 0xB DUP5 LT AND OR ISZERO PUSH2 0x5A5C JUMPI DUP3 DUP3 EXP SWAP1 POP DUP4 DUP2 GT ISZERO PUSH2 0x5A57 JUMPI PUSH2 0x5A56 PUSH2 0x51F9 JUMP JUMPDEST JUMPDEST PUSH2 0x5A86 JUMP JUMPDEST PUSH2 0x5A69 DUP5 DUP5 DUP5 PUSH1 0x1 PUSH2 0x596A JUMP JUMPDEST SWAP3 POP SWAP1 POP DUP2 DUP5 DIV DUP2 GT ISZERO PUSH2 0x5A80 JUMPI PUSH2 0x5A7F PUSH2 0x51F9 JUMP JUMPDEST JUMPDEST DUP2 DUP2 MUL SWAP1 POP JUMPDEST SWAP4 SWAP3 POP POP POP JUMP JUMPDEST PUSH0 PUSH2 0x5A97 DUP3 PUSH2 0x481F JUMP JUMPDEST SWAP2 POP PUSH2 0x5AA2 DUP4 PUSH2 0x4CCD JUMP JUMPDEST SWAP3 POP PUSH2 0x5ACF PUSH32 0xFFFFFFFFFFFFFFFFFFFFFFFFFFFFFFFFFFFFFFFFFFFFFFFFFFFFFFFFFFFFFFFF DUP5 DUP5 PUSH2 0x59BC JUMP JUMPDEST SWAP1 POP SWAP3 SWAP2 POP POP JUMP JUMPDEST PUSH32 0x4E487B7100000000000000000000000000000000000000000000000000000000 PUSH0 MSTORE PUSH1 0x21 PUSH1 0x4 MSTORE PUSH1 0x24 PUSH0 REVERT JUMPDEST PUSH32 0x66656553686172657320756E68616E646C652066656520747970650000000000 PUSH0 DUP3 ADD MSTORE POP JUMP JUMPDEST PUSH0 PUSH2 0x5B38 PUSH1 0x1B DUP4 PUSH2 0x485A JUMP JUMPDEST SWAP2 POP PUSH2 0x5B43 DUP3 PUSH2 0x5B04 JUMP JUMPDEST PUSH1 0x20 DUP3 ADD SWAP1 POP SWAP2 SWAP1 POP JUMP JUMPDEST PUSH0 PUSH1 0x20 DUP3 ADD SWAP1 POP DUP2 DUP2 SUB PUSH0 DUP4 ADD MSTORE PUSH2 0x5B65 DUP2 PUSH2 0x5B2C JUMP JUMPDEST SWAP1 POP SWAP2 SWAP1 POP JUMP JUMPDEST PUSH32 0x667265654665652063616C63206572726F722100000000000000000000000000 PUSH0 DUP3 ADD MSTORE POP JUMP JUMPDEST PUSH0 PUSH2 0x5BA0 PUSH1 0x13 DUP4 PUSH2 0x485A JUMP JUMPDEST SWAP2 POP PUSH2 0x5BAB DUP3 PUSH2 0x5B6C JUMP JUMPDEST PUSH1 0x20 DUP3 ADD SWAP1 POP SWAP2 SWAP1 POP JUMP JUMPDEST PUSH0 PUSH1 0x20 DUP3 ADD SWAP1 POP DUP2 DUP2 SUB PUSH0 DUP4 ADD MSTORE PUSH2 0x5BCD DUP2 PUSH2 0x5B94 JUMP JUMPDEST SWAP1 POP SWAP2 SWAP1 POP JUMP JUMPDEST PUSH0 PUSH1 0xC0 DUP3 ADD SWAP1 POP PUSH2 0x5BE7 PUSH0 DUP4 ADD DUP10 PUSH2 0x4828 JUMP JUMPDEST PUSH2 0x5BF4 PUSH1 0x20 DUP4 ADD DUP9 PUSH2 0x4828 JUMP JUMPDEST PUSH2 0x5C01 PUSH1 0x40 DUP4 ADD DUP8 PUSH2 0x4828 JUMP JUMPDEST PUSH2 0x5C0E PUSH1 0x60 DUP4 ADD DUP7 PUSH2 0x4828 JUMP JUMPDEST PUSH2 0x5C1B PUSH1 0x80 DUP4 ADD DUP6 PUSH2 0x4828 JUMP JUMPDEST PUSH2 0x5C28 PUSH1 0xA0 DUP4 ADD DUP5 PUSH2 0x4828 JUMP JUMPDEST SWAP8 SWAP7 POP POP POP POP POP POP POP JUMP JUMPDEST PUSH0 PUSH1 0x60 DUP3 ADD SWAP1 POP PUSH2 0x5C46 PUSH0 DUP4 ADD DUP7 PUSH2 0x4F26 JUMP JUMPDEST PUSH2 0x5C53 PUSH1 0x20 DUP4 ADD DUP6 PUSH2 0x4828 JUMP JUMPDEST PUSH2 0x5C60 PUSH1 0x40 DUP4 ADD DUP5 PUSH2 0x4F26 JUMP JUMPDEST SWAP5 SWAP4 POP POP POP POP JUMP JUMPDEST PUSH0 PUSH1 0x80 DUP3 ADD SWAP1 POP PUSH2 0x5C7B PUSH0 DUP4 ADD DUP8 PUSH2 0x4828 JUMP JUMPDEST PUSH2 0x5C88 PUSH1 0x20 DUP4 ADD DUP7 PUSH2 0x4828 JUMP JUMPDEST PUSH2 0x5C95 PUSH1 0x40 DUP4 ADD DUP6 PUSH2 0x4828 JUMP JUMPDEST PUSH2 0x5CA2 PUSH1 0x60 DUP4 ADD DUP5 PUSH2 0x4828 JUMP JUMPDEST SWAP6 SWAP5 POP POP POP POP POP JUMP JUMPDEST PUSH0 DUP2 SWAP1 POP SWAP3 SWAP2 POP POP JUMP JUMPDEST POP JUMP JUMPDEST PUSH0 PUSH2 0x5CC3 PUSH0 DUP4 PUSH2 0x5CAB JUMP JUMPDEST SWAP2 POP PUSH2 0x5CCE DUP3 PUSH2 0x5CB5 JUMP JUMPDEST PUSH0 DUP3 ADD SWAP1 POP SWAP2 SWAP1 POP JUMP JUMPDEST PUSH0 PUSH2 0x5CE2 DUP3 PUSH2 0x5CB8 JUMP JUMPDEST SWAP2 POP DUP2 SWAP1 POP SWAP2 SWAP1 POP JUMP JUMPDEST PUSH0 PUSH1 0x60 DUP3 ADD SWAP1 POP PUSH2 0x5CFF PUSH0 DUP4 ADD DUP7 PUSH2 0x4F26 JUMP JUMPDEST PUSH2 0x5D0C PUSH1 0x20 DUP4 ADD DUP6 PUSH2 0x4828 JUMP JUMPDEST DUP2 DUP2 SUB PUSH1 0x40 DUP4 ADD MSTORE PUSH2 0x5D1E DUP2 DUP5 PUSH2 0x512B JUMP JUMPDEST SWAP1 POP SWAP5 SWAP4 POP POP POP POP JUMP JUMPDEST PUSH32 0x66656541737365747320756E68616E646C652066656520747970650000000000 PUSH0 DUP3 ADD MSTORE POP JUMP JUMPDEST PUSH0 PUSH2 0x5D5C PUSH1 0x1B DUP4 PUSH2 0x485A JUMP JUMPDEST SWAP2 POP PUSH2 0x5D67 DUP3 PUSH2 0x5D28 JUMP JUMPDEST PUSH1 0x20 DUP3 ADD SWAP1 POP SWAP2 SWAP1 POP JUMP JUMPDEST PUSH0 PUSH1 0x20 DUP3 ADD SWAP1 POP DUP2 DUP2 SUB PUSH0 DUP4 ADD MSTORE PUSH2 0x5D89 DUP2 PUSH2 0x5D50 JUMP JUMPDEST SWAP1 POP SWAP2 SWAP1 POP JUMP JUMPDEST PUSH0 DUP2 MLOAD SWAP1 POP PUSH2 0x5D9E DUP2 PUSH2 0x4921 JUMP JUMPDEST SWAP3 SWAP2 POP POP JUMP JUMPDEST PUSH0 PUSH1 0x20 DUP3 DUP5 SUB SLT ISZERO PUSH2 0x5DB9 JUMPI PUSH2 0x5DB8 PUSH2 0x48E9 JUMP JUMPDEST JUMPDEST PUSH0 PUSH2 0x5DC6 DUP5 DUP3 DUP6 ADD PUSH2 0x5D90 JUMP JUMPDEST SWAP2 POP POP SWAP3 SWAP2 POP POP JUMP JUMPDEST PUSH0 PUSH1 0x40 DUP3 ADD SWAP1 POP PUSH2 0x5DE2 PUSH0 DUP4 ADD DUP6 PUSH2 0x4F26 JUMP JUMPDEST PUSH2 0x5DEF PUSH1 0x20 DUP4 ADD DUP5 PUSH2 0x4828 JUMP JUMPDEST SWAP4 SWAP3 POP POP POP JUMP JUMPDEST PUSH32 0x4E487B7100000000000000000000000000000000000000000000000000000000 PUSH0 MSTORE PUSH1 0x12 PUSH1 0x4 MSTORE PUSH1 0x24 PUSH0 REVERT JUMPDEST PUSH0 PUSH2 0x5E2D DUP3 PUSH2 0x4CCD JUMP JUMPDEST SWAP2 POP PUSH2 0x5E38 DUP4 PUSH2 0x4CCD JUMP JUMPDEST SWAP3 POP DUP3 PUSH2 0x5E48 JUMPI PUSH2 0x5E47 PUSH2 0x5DF6 JUMP JUMPDEST JUMPDEST DUP3 DUP3 MOD SWAP1 POP SWAP3 SWAP2 POP POP JUMP INVALID LOG2 PUSH5 0x6970667358 0x22 SLT KECCAK256 0x29 SWAP11 0xBA PUSH10 0x893A8D50B04612ACEE15 PUSH32 0x235B551F6C2988AE418C4D39150C4FBD6664736F6C634300081A003300000000 "
		},
		"gasEstimates": {
			"creation": {
				"codeDepositCost": "4840200",
				"executionCost": "infinite",
				"totalCost": "infinite"
			},
			"external": {
				"": "infinite",
				"addNFTSupport(address)": "infinite",
				"admin()": "2640",
				"allowance(address,address)": "infinite",
				"approve(address,uint256)": "infinite",
				"balanceOf(address)": "2963",
				"changeAdmin(address)": "27029",
				"changeFlashFee(uint256)": "infinite",
				"changeNFTOrderFee(uint256)": "infinite",
				"changeWithdrawFee(uint256)": "infinite",
				"decimals()": "450",
				"deposit(address)": "infinite",
				"flashFee(address,uint256)": "infinite",
				"flashLoan(address,address,uint256,bytes)": "infinite",
				"fundsAvailable(address)": "2848",
				"getFundsAvailable(address)": "2984",
				"maxFlashLoan(address)": "infinite",
				"maxRedeem()": "infinite",
				"maxRedeem(address)": "infinite",
				"mint(uint256,address)": "infinite",
				"name()": "infinite",
				"onERC721Received(address,address,uint256,bytes)": "infinite",
				"onSale(address,uint256,uint256)": "infinite",
				"orderCounter()": "2492",
				"pause()": "30129",
				"paused()": "2519",
				"previewDeposit(uint256)": "infinite",
				"previewMint(uint256)": "infinite",
				"previewRedeem(uint256)": "infinite",
				"previewWithdraw(uint256)": "infinite",
				"purchase(address,uint256)": "infinite",
				"purchaseUseShares(address,uint256)": "infinite",
				"queryFoundInfo()": "infinite",
				"queryOrderInfo(address,uint256)": "infinite",
				"redeem(uint256,address,address)": "infinite",
				"removeNFTSupport(address)": "28275",
				"revoke(address,uint256)": "infinite",
				"symbol()": "infinite",
				"totalAssets()": "381",
				"totalSupply()": "2478",
				"transfer(address,uint256)": "infinite",
				"transferFrom(address,address,uint256)": "infinite",
				"unpause()": "30214",
				"update(address,uint256,uint256)": "infinite",
				"updateFundsAvailable(address,uint256)": "27314",
				"withdraw(uint256,address,address)": "infinite"
			},
			"internal": {
				"_calcRedeem(uint256)": "infinite",
				"_calcReturnAmount(address,uint256)": "infinite",
				"_calcWithdraw(uint256)": "infinite",
				"_checkNFTSupport(address)": "infinite",
				"_checkOrderExists(address,uint256)": "infinite",
				"_checkOwnerable(contract IERC721,uint256)": "infinite",
				"_checkValue(address,uint256)": "infinite",
				"_convertSharesByNFTOrderPrice(address,uint256,address,uint256,uint256)": "infinite",
				"_convertToAssets(uint256,enum Math.Rounding,uint256)": "infinite",
				"_convertToShares(uint256,enum Math.Rounding,uint256)": "infinite",
				"_decimalsOffset()": "14",
				"_deposit(address,uint256,uint256)": "infinite",
				"_doTransfer(address,uint256)": "infinite",
				"_flashFee(address,uint256)": "infinite",
				"_processFeeAssets(uint256,enum NFTSwap.FeeType,uint256,address,address)": "infinite",
				"_processFeeShares(uint256,enum NFTSwap.FeeType,uint256,address,address)": "infinite",
				"_transferFromIfNeed(contract IERC721,uint256)": "infinite",
				"_update(address,address,uint256)": "infinite",
				"_withdraw(address,address,address,uint256,uint256)": "infinite"
			}
		},
		"methodIdentifiers": {
			"addNFTSupport(address)": "b80083fa",
			"admin()": "f851a440",
			"allowance(address,address)": "dd62ed3e",
			"approve(address,uint256)": "095ea7b3",
			"balanceOf(address)": "70a08231",
			"changeAdmin(address)": "8f283970",
			"changeFlashFee(uint256)": "e90d2fe1",
			"changeNFTOrderFee(uint256)": "84ed8c72",
			"changeWithdrawFee(uint256)": "a893c9be",
			"decimals()": "313ce567",
			"deposit(address)": "f340fa01",
			"flashFee(address,uint256)": "d9d98ce4",
			"flashLoan(address,address,uint256,bytes)": "5cffe9de",
			"fundsAvailable(address)": "a0010c62",
			"getFundsAvailable(address)": "d87368cf",
			"maxFlashLoan(address)": "613255ab",
			"maxRedeem()": "6f31ab34",
			"maxRedeem(address)": "d905777e",
			"mint(uint256,address)": "94bf804d",
			"name()": "06fdde03",
			"onERC721Received(address,address,uint256,bytes)": "150b7a02",
			"onSale(address,uint256,uint256)": "e8aa7e33",
			"orderCounter()": "b789bf52",
			"pause()": "8456cb59",
			"paused()": "5c975abb",
			"previewDeposit(uint256)": "ef8b30f7",
			"previewMint(uint256)": "b3d7f6b9",
			"previewRedeem(uint256)": "4cdad506",
			"previewWithdraw(uint256)": "0a28a477",
			"purchase(address,uint256)": "8de93222",
			"purchaseUseShares(address,uint256)": "fc0bb178",
			"queryFoundInfo()": "2d61297d",
			"queryOrderInfo(address,uint256)": "da62dc98",
			"redeem(uint256,address,address)": "ba087652",
			"removeNFTSupport(address)": "e43197ef",
			"revoke(address,uint256)": "eac449d9",
			"symbol()": "95d89b41",
			"totalAssets()": "01e1d114",
			"totalSupply()": "18160ddd",
			"transfer(address,uint256)": "a9059cbb",
			"transferFrom(address,address,uint256)": "23b872dd",
			"unpause()": "3f4ba83a",
			"update(address,uint256,uint256)": "d09b6d43",
			"updateFundsAvailable(address,uint256)": "aa1e537c",
			"withdraw(uint256,address,address)": "b460af94"
		}
	},
	"abi": [
		{
			"inputs": [],
			"stateMutability": "nonpayable",
			"type": "constructor"
		},
		{
			"inputs": [
				{
					"internalType": "address",
					"name": "spender",
					"type": "address"
				},
				{
					"internalType": "uint256",
					"name": "allowance",
					"type": "uint256"
				},
				{
					"internalType": "uint256",
					"name": "needed",
					"type": "uint256"
				}
			],
			"name": "ERC20InsufficientAllowance",
			"type": "error"
		},
		{
			"inputs": [
				{
					"internalType": "address",
					"name": "sender",
					"type": "address"
				},
				{
					"internalType": "uint256",
					"name": "balance",
					"type": "uint256"
				},
				{
					"internalType": "uint256",
					"name": "needed",
					"type": "uint256"
				}
			],
			"name": "ERC20InsufficientBalance",
			"type": "error"
		},
		{
			"inputs": [
				{
					"internalType": "address",
					"name": "approver",
					"type": "address"
				}
			],
			"name": "ERC20InvalidApprover",
			"type": "error"
		},
		{
			"inputs": [
				{
					"internalType": "address",
					"name": "receiver",
					"type": "address"
				}
			],
			"name": "ERC20InvalidReceiver",
			"type": "error"
		},
		{
			"inputs": [
				{
					"internalType": "address",
					"name": "sender",
					"type": "address"
				}
			],
			"name": "ERC20InvalidSender",
			"type": "error"
		},
		{
			"inputs": [
				{
					"internalType": "address",
					"name": "spender",
					"type": "address"
				}
			],
			"name": "ERC20InvalidSpender",
			"type": "error"
		},
		{
			"inputs": [
				{
					"internalType": "uint256",
					"name": "maxLoan",
					"type": "uint256"
				}
			],
			"name": "ERC3156ExceededMaxLoan",
			"type": "error"
		},
		{
			"inputs": [
				{
					"internalType": "address",
					"name": "receiver",
					"type": "address"
				}
			],
			"name": "ERC3156InvalidReceiver",
			"type": "error"
		},
		{
			"inputs": [
				{
					"internalType": "address",
					"name": "token",
					"type": "address"
				}
			],
			"name": "ERC3156UnsupportedToken",
			"type": "error"
		},
		{
			"inputs": [
				{
					"internalType": "uint256",
					"name": "msgValue",
					"type": "uint256"
				},
				{
					"internalType": "uint256",
					"name": "needAssets",
					"type": "uint256"
				}
			],
			"name": "ETHInsufficient",
			"type": "error"
		},
		{
			"inputs": [],
			"name": "EnforcedPause",
			"type": "error"
		},
		{
			"inputs": [],
			"name": "ExpectedPause",
			"type": "error"
		},
		{
			"inputs": [
				{
					"internalType": "address",
					"name": "nftAddress",
					"type": "address"
				},
				{
					"internalType": "uint256",
					"name": "tokenId",
					"type": "uint256"
				}
			],
			"name": "NotReceivedToken",
			"type": "error"
		},
		{
			"inputs": [
				{
					"internalType": "address",
					"name": "nftAddress",
					"type": "address"
				},
				{
					"internalType": "uint256",
					"name": "_tokenId",
					"type": "uint256"
				},
				{
					"internalType": "address",
					"name": "sender",
					"type": "address"
				}
			],
			"name": "OrderNotExists",
			"type": "error"
		},
		{
			"inputs": [
				{
					"internalType": "uint256",
					"name": "orderPrice",
					"type": "uint256"
				},
				{
					"internalType": "uint256",
					"name": "msgValue",
					"type": "uint256"
				}
			],
			"name": "OrderPriceInsufficient",
			"type": "error"
		},
		{
			"inputs": [
				{
					"internalType": "uint256",
					"name": "shares",
					"type": "uint256"
				},
				{
					"internalType": "uint256",
					"name": "maxShares",
					"type": "uint256"
				}
			],
			"name": "SharesInsufficient",
			"type": "error"
		},
		{
			"inputs": [
				{
					"internalType": "address",
					"name": "nftAddress",
					"type": "address"
				}
			],
			"name": "UnsupportedToken",
			"type": "error"
		},
		{
			"inputs": [
				{
					"internalType": "address",
					"name": "receiver",
					"type": "address"
				},
				{
					"internalType": "uint256",
					"name": "amount",
					"type": "uint256"
				},
				{
					"internalType": "bytes",
					"name": "returnData",
					"type": "bytes"
				}
			],
			"name": "WithdrawCallFail",
			"type": "error"
		},
		{
			"anonymous": false,
			"inputs": [
				{
					"indexed": true,
					"internalType": "address",
					"name": "owner",
					"type": "address"
				},
				{
					"indexed": true,
					"internalType": "address",
					"name": "spender",
					"type": "address"
				},
				{
					"indexed": false,
					"internalType": "uint256",
					"name": "value",
					"type": "uint256"
				}
			],
			"name": "Approval",
			"type": "event"
		},
		{
			"anonymous": false,
			"inputs": [
				{
					"indexed": true,
					"internalType": "address",
					"name": "caller",
					"type": "address"
				},
				{
					"indexed": true,
					"internalType": "address",
					"name": "receiver",
					"type": "address"
				},
				{
					"indexed": false,
					"internalType": "uint256",
					"name": "assets",
					"type": "uint256"
				},
				{
					"indexed": false,
					"internalType": "uint256",
					"name": "shares",
					"type": "uint256"
				}
			],
			"name": "Deposit",
			"type": "event"
		},
		{
			"anonymous": false,
			"inputs": [
				{
					"indexed": true,
					"internalType": "address",
					"name": "operator",
					"type": "address"
				},
				{
					"indexed": false,
					"internalType": "address",
					"name": "from",
					"type": "address"
				},
				{
					"indexed": true,
					"internalType": "uint256",
					"name": "tokenId",
					"type": "uint256"
				},
				{
					"indexed": false,
					"internalType": "bytes",
					"name": "data",
					"type": "bytes"
				}
			],
			"name": "ERC721Received",
			"type": "event"
		},
		{
			"anonymous": false,
			"inputs": [
				{
					"indexed": false,
					"internalType": "uint256",
					"name": "feeAssets",
					"type": "uint256"
				},
				{
					"indexed": true,
					"internalType": "enum NFTSwap.FeeType",
					"name": "feeType",
					"type": "uint8"
				},
				{
					"indexed": false,
					"internalType": "uint256",
					"name": "assets",
					"type": "uint256"
				},
				{
					"indexed": true,
					"internalType": "address",
					"name": "caller",
					"type": "address"
				},
				{
					"indexed": true,
					"internalType": "address",
					"name": "owner",
					"type": "address"
				}
			],
			"name": "GetBenefit",
			"type": "event"
		},
		{
			"anonymous": false,
			"inputs": [
				{
					"indexed": false,
					"internalType": "uint256",
					"name": "feeShares",
					"type": "uint256"
				},
				{
					"indexed": true,
					"internalType": "enum NFTSwap.FeeType",
					"name": "feeType",
					"type": "uint8"
				},
				{
					"indexed": false,
					"internalType": "uint256",
					"name": "shares",
					"type": "uint256"
				},
				{
					"indexed": true,
					"internalType": "address",
					"name": "caller",
					"type": "address"
				},
				{
					"indexed": true,
					"internalType": "address",
					"name": "owner",
					"type": "address"
				},
				{
					"indexed": false,
					"internalType": "uint256",
					"name": "totalSupply",
					"type": "uint256"
				},
				{
					"indexed": false,
					"internalType": "uint256",
					"name": "totalAssets",
					"type": "uint256"
				},
				{
					"indexed": false,
					"internalType": "uint256",
					"name": "needFee",
					"type": "uint256"
				},
				{
					"indexed": false,
					"internalType": "uint256",
					"name": "feeFree",
					"type": "uint256"
				}
			],
			"name": "GetBenefitShares",
			"type": "event"
		},
		{
			"anonymous": false,
			"inputs": [
				{
					"indexed": false,
					"internalType": "string",
					"name": "desc",
					"type": "string"
				},
				{
					"indexed": false,
					"internalType": "uint256",
					"name": "assets",
					"type": "uint256"
				},
				{
					"indexed": false,
					"internalType": "uint256",
					"name": "shares",
					"type": "uint256"
				}
			],
			"name": "Log",
			"type": "event"
		},
		{
			"anonymous": false,
			"inputs": [
				{
					"indexed": true,
					"internalType": "address",
					"name": "nftAddress",
					"type": "address"
				},
				{
					"indexed": true,
					"internalType": "uint256",
					"name": "tokenId",
					"type": "uint256"
				},
				{
					"indexed": true,
					"internalType": "address",
					"name": "buyer",
					"type": "address"
				},
				{
					"indexed": false,
					"internalType": "uint256",
					"name": "orderPrice",
					"type": "uint256"
				},
				{
					"indexed": false,
					"internalType": "uint256",
					"name": "feeAmount",
					"type": "uint256"
				},
				{
					"indexed": false,
					"internalType": "uint256",
					"name": "freeFee",
					"type": "uint256"
				},
				{
					"indexed": false,
					"internalType": "uint256",
					"name": "shares",
					"type": "uint256"
				}
			],
			"name": "NFTOrderConvertShares",
			"type": "event"
		},
		{
			"anonymous": false,
			"inputs": [
				{
					"indexed": false,
					"internalType": "uint256",
					"name": "oldFee",
					"type": "uint256"
				},
				{
					"indexed": false,
					"internalType": "uint256",
					"name": "newFee",
					"type": "uint256"
				}
			],
			"name": "NFTOrderFeeChange",
			"type": "event"
		},
		{
			"anonymous": false,
			"inputs": [
				{
					"indexed": true,
					"internalType": "address",
					"name": "nftAddress",
					"type": "address"
				}
			],
			"name": "NFTSupportAdded",
			"type": "event"
		},
		{
			"anonymous": false,
			"inputs": [
				{
					"indexed": true,
					"internalType": "address",
					"name": "nftAddress",
					"type": "address"
				}
			],
			"name": "NFTSupportRemoved",
			"type": "event"
		},
		{
			"anonymous": false,
			"inputs": [
				{
					"indexed": true,
					"internalType": "address",
					"name": "nftAddress",
					"type": "address"
				},
				{
					"indexed": true,
					"internalType": "uint256",
					"name": "tokenId",
					"type": "uint256"
				},
				{
					"indexed": false,
					"internalType": "uint256",
					"name": "oldPrice",
					"type": "uint256"
				},
				{
					"indexed": false,
					"internalType": "uint256",
					"name": "newPrice",
					"type": "uint256"
				}
			],
			"name": "OrderInfoUpdate",
			"type": "event"
		},
		{
			"anonymous": false,
			"inputs": [
				{
					"indexed": true,
					"internalType": "address",
					"name": "nftAddress",
					"type": "address"
				},
				{
					"indexed": true,
					"internalType": "uint256",
					"name": "tokenId",
					"type": "uint256"
				},
				{
					"indexed": true,
					"internalType": "address",
					"name": "owner",
					"type": "address"
				}
			],
			"name": "OrderOnSale",
			"type": "event"
		},
		{
			"anonymous": false,
			"inputs": [
				{
					"indexed": true,
					"internalType": "address",
					"name": "nftAddress",
					"type": "address"
				},
				{
					"indexed": true,
					"internalType": "uint256",
					"name": "tokenId",
					"type": "uint256"
				},
				{
					"indexed": false,
					"internalType": "uint256",
					"name": "price",
					"type": "uint256"
				},
				{
					"indexed": false,
					"internalType": "address",
					"name": "owner",
					"type": "address"
				},
				{
					"indexed": true,
					"internalType": "address",
					"name": "buyer",
					"type": "address"
				}
			],
			"name": "OrderPurchase",
			"type": "event"
		},
		{
			"anonymous": false,
			"inputs": [
				{
					"indexed": true,
					"internalType": "address",
					"name": "nftAddress",
					"type": "address"
				},
				{
					"indexed": true,
					"internalType": "uint256",
					"name": "tokenId",
					"type": "uint256"
				},
				{
					"indexed": false,
					"internalType": "uint256",
					"name": "price",
					"type": "uint256"
				},
				{
					"indexed": false,
					"internalType": "address",
					"name": "owner",
					"type": "address"
				},
				{
					"indexed": true,
					"internalType": "address",
					"name": "buyer",
					"type": "address"
				},
				{
					"indexed": false,
					"internalType": "uint256",
					"name": "orderShares",
					"type": "uint256"
				},
				{
					"indexed": false,
					"internalType": "uint256",
					"name": "feeShares",
					"type": "uint256"
				},
				{
					"indexed": false,
					"internalType": "uint256",
					"name": "freeFeeShares",
					"type": "uint256"
				},
				{
					"indexed": false,
					"internalType": "uint256",
					"name": "ownerShares",
					"type": "uint256"
				}
			],
			"name": "OrderPurchaseShares",
			"type": "event"
		},
		{
			"anonymous": false,
			"inputs": [
				{
					"indexed": false,
					"internalType": "address",
					"name": "account",
					"type": "address"
				}
			],
			"name": "Paused",
			"type": "event"
		},
		{
			"anonymous": false,
			"inputs": [
				{
					"indexed": true,
					"internalType": "address",
					"name": "nftAddress",
					"type": "address"
				},
				{
					"indexed": true,
					"internalType": "uint256",
					"name": "tokenId",
					"type": "uint256"
				},
				{
					"indexed": false,
					"internalType": "address",
					"name": "owner",
					"type": "address"
				}
			],
			"name": "Revoke",
			"type": "event"
		},
		{
			"anonymous": false,
			"inputs": [
				{
					"indexed": true,
					"internalType": "address",
					"name": "from",
					"type": "address"
				},
				{
					"indexed": true,
					"internalType": "address",
					"name": "to",
					"type": "address"
				},
				{
					"indexed": false,
					"internalType": "uint256",
					"name": "value",
					"type": "uint256"
				}
			],
			"name": "Transfer",
			"type": "event"
		},
		{
			"anonymous": false,
			"inputs": [
				{
					"indexed": false,
					"internalType": "address",
					"name": "account",
					"type": "address"
				}
			],
			"name": "Unpaused",
			"type": "event"
		},
		{
			"anonymous": false,
			"inputs": [
				{
					"indexed": true,
					"internalType": "address",
					"name": "sender",
					"type": "address"
				},
				{
					"indexed": true,
					"internalType": "address",
					"name": "receiver",
					"type": "address"
				},
				{
					"indexed": true,
					"internalType": "address",
					"name": "owner",
					"type": "address"
				},
				{
					"indexed": false,
					"internalType": "uint256",
					"name": "assets",
					"type": "uint256"
				},
				{
					"indexed": false,
					"internalType": "uint256",
					"name": "shares",
					"type": "uint256"
				}
			],
			"name": "Withdraw",
			"type": "event"
		},
		{
			"anonymous": false,
			"inputs": [
				{
					"indexed": false,
					"internalType": "uint256",
					"name": "oldFee",
					"type": "uint256"
				},
				{
					"indexed": false,
					"internalType": "uint256",
					"name": "newFee",
					"type": "uint256"
				}
			],
			"name": "WithdrawFeeChange",
			"type": "event"
		},
		{
			"stateMutability": "payable",
			"type": "fallback"
		},
		{
			"inputs": [
				{
					"internalType": "address",
					"name": "_nftAddress",
					"type": "address"
				}
			],
			"name": "addNFTSupport",
			"outputs": [],
			"stateMutability": "nonpayable",
			"type": "function"
		},
		{
			"inputs": [],
			"name": "admin",
			"outputs": [
				{
					"internalType": "address",
					"name": "",
					"type": "address"
				}
			],
			"stateMutability": "view",
			"type": "function"
		},
		{
			"inputs": [
				{
					"internalType": "address",
					"name": "owner",
					"type": "address"
				},
				{
					"internalType": "address",
					"name": "spender",
					"type": "address"
				}
			],
			"name": "allowance",
			"outputs": [
				{
					"internalType": "uint256",
					"name": "",
					"type": "uint256"
				}
			],
			"stateMutability": "view",
			"type": "function"
		},
		{
			"inputs": [
				{
					"internalType": "address",
					"name": "spender",
					"type": "address"
				},
				{
					"internalType": "uint256",
					"name": "value",
					"type": "uint256"
				}
			],
			"name": "approve",
			"outputs": [
				{
					"internalType": "bool",
					"name": "",
					"type": "bool"
				}
			],
			"stateMutability": "nonpayable",
			"type": "function"
		},
		{
			"inputs": [
				{
					"internalType": "address",
					"name": "account",
					"type": "address"
				}
			],
			"name": "balanceOf",
			"outputs": [
				{
					"internalType": "uint256",
					"name": "",
					"type": "uint256"
				}
			],
			"stateMutability": "view",
			"type": "function"
		},
		{
			"inputs": [
				{
					"internalType": "address",
					"name": "account",
					"type": "address"
				}
			],
			"name": "changeAdmin",
			"outputs": [],
			"stateMutability": "nonpayable",
			"type": "function"
		},
		{
			"inputs": [
				{
					"internalType": "uint256",
					"name": "flashFee",
					"type": "uint256"
				}
			],
			"name": "changeFlashFee",
			"outputs": [],
			"stateMutability": "nonpayable",
			"type": "function"
		},
		{
			"inputs": [
				{
					"internalType": "uint256",
					"name": "_nftOrderFee",
					"type": "uint256"
				}
			],
			"name": "changeNFTOrderFee",
			"outputs": [],
			"stateMutability": "nonpayable",
			"type": "function"
		},
		{
			"inputs": [
				{
					"internalType": "uint256",
					"name": "_withdrawFee",
					"type": "uint256"
				}
			],
			"name": "changeWithdrawFee",
			"outputs": [],
			"stateMutability": "nonpayable",
			"type": "function"
		},
		{
			"inputs": [],
			"name": "decimals",
			"outputs": [
				{
					"internalType": "uint8",
					"name": "",
					"type": "uint8"
				}
			],
			"stateMutability": "view",
			"type": "function"
		},
		{
			"inputs": [
				{
					"internalType": "address",
					"name": "receiver",
					"type": "address"
				}
			],
			"name": "deposit",
			"outputs": [
				{
					"internalType": "uint256",
					"name": "",
					"type": "uint256"
				}
			],
			"stateMutability": "payable",
			"type": "function"
		},
		{
			"inputs": [
				{
					"internalType": "address",
					"name": "token",
					"type": "address"
				},
				{
					"internalType": "uint256",
					"name": "value",
					"type": "uint256"
				}
			],
			"name": "flashFee",
			"outputs": [
				{
					"internalType": "uint256",
					"name": "",
					"type": "uint256"
				}
			],
			"stateMutability": "view",
			"type": "function"
		},
		{
			"inputs": [
				{
					"internalType": "contract IERC3156FlashBorrower",
					"name": "receiver",
					"type": "address"
				},
				{
					"internalType": "address",
					"name": "token",
					"type": "address"
				},
				{
					"internalType": "uint256",
					"name": "value",
					"type": "uint256"
				},
				{
					"internalType": "bytes",
					"name": "data",
					"type": "bytes"
				}
			],
			"name": "flashLoan",
			"outputs": [
				{
					"internalType": "bool",
					"name": "",
					"type": "bool"
				}
			],
			"stateMutability": "nonpayable",
			"type": "function"
		},
		{
			"inputs": [
				{
					"internalType": "address",
					"name": "account",
					"type": "address"
				}
			],
			"name": "fundsAvailable",
			"outputs": [
				{
					"internalType": "uint256",
					"name": "",
					"type": "uint256"
				}
			],
			"stateMutability": "view",
			"type": "function"
		},
		{
			"inputs": [
				{
					"internalType": "address",
					"name": "account",
					"type": "address"
				}
			],
			"name": "getFundsAvailable",
			"outputs": [
				{
					"internalType": "uint256",
					"name": "",
					"type": "uint256"
				}
			],
			"stateMutability": "view",
			"type": "function"
		},
		{
			"inputs": [
				{
					"internalType": "address",
					"name": "token",
					"type": "address"
				}
			],
			"name": "maxFlashLoan",
			"outputs": [
				{
					"internalType": "uint256",
					"name": "",
					"type": "uint256"
				}
			],
			"stateMutability": "view",
			"type": "function"
		},
		{
			"inputs": [],
			"name": "maxRedeem",
			"outputs": [
				{
					"internalType": "uint256",
					"name": "",
					"type": "uint256"
				}
			],
			"stateMutability": "view",
			"type": "function"
		},
		{
			"inputs": [
				{
					"internalType": "address",
					"name": "owner",
					"type": "address"
				}
			],
			"name": "maxRedeem",
			"outputs": [
				{
					"internalType": "uint256",
					"name": "",
					"type": "uint256"
				}
			],
			"stateMutability": "view",
			"type": "function"
		},
		{
			"inputs": [
				{
					"internalType": "uint256",
					"name": "shares",
					"type": "uint256"
				},
				{
					"internalType": "address",
					"name": "receiver",
					"type": "address"
				}
			],
			"name": "mint",
			"outputs": [
				{
					"internalType": "uint256",
					"name": "",
					"type": "uint256"
				}
			],
			"stateMutability": "payable",
			"type": "function"
		},
		{
			"inputs": [],
			"name": "name",
			"outputs": [
				{
					"internalType": "string",
					"name": "",
					"type": "string"
				}
			],
			"stateMutability": "view",
			"type": "function"
		},
		{
			"inputs": [
				{
					"internalType": "address",
					"name": "operator",
					"type": "address"
				},
				{
					"internalType": "address",
					"name": "from",
					"type": "address"
				},
				{
					"internalType": "uint256",
					"name": "_tokenId",
					"type": "uint256"
				},
				{
					"internalType": "bytes",
					"name": "data",
					"type": "bytes"
				}
			],
			"name": "onERC721Received",
			"outputs": [
				{
					"internalType": "bytes4",
					"name": "",
					"type": "bytes4"
				}
			],
			"stateMutability": "nonpayable",
			"type": "function"
		},
		{
			"inputs": [
				{
					"internalType": "contract IERC721",
					"name": "nftContract",
					"type": "address"
				},
				{
					"internalType": "uint256",
					"name": "_tokenId",
					"type": "uint256"
				},
				{
					"internalType": "uint256",
					"name": "_price",
					"type": "uint256"
				}
			],
			"name": "onSale",
			"outputs": [],
			"stateMutability": "nonpayable",
			"type": "function"
		},
		{
			"inputs": [],
			"name": "orderCounter",
			"outputs": [
				{
					"internalType": "uint256",
					"name": "",
					"type": "uint256"
				}
			],
			"stateMutability": "view",
			"type": "function"
		},
		{
			"inputs": [],
			"name": "pause",
			"outputs": [],
			"stateMutability": "nonpayable",
			"type": "function"
		},
		{
			"inputs": [],
			"name": "paused",
			"outputs": [
				{
					"internalType": "bool",
					"name": "",
					"type": "bool"
				}
			],
			"stateMutability": "view",
			"type": "function"
		},
		{
			"inputs": [
				{
					"internalType": "uint256",
					"name": "assets",
					"type": "uint256"
				}
			],
			"name": "previewDeposit",
			"outputs": [
				{
					"internalType": "uint256",
					"name": "",
					"type": "uint256"
				}
			],
			"stateMutability": "view",
			"type": "function"
		},
		{
			"inputs": [
				{
					"internalType": "uint256",
					"name": "shares",
					"type": "uint256"
				}
			],
			"name": "previewMint",
			"outputs": [
				{
					"internalType": "uint256",
					"name": "",
					"type": "uint256"
				}
			],
			"stateMutability": "view",
			"type": "function"
		},
		{
			"inputs": [
				{
					"internalType": "uint256",
					"name": "shares",
					"type": "uint256"
				}
			],
			"name": "previewRedeem",
			"outputs": [
				{
					"internalType": "uint256",
					"name": "",
					"type": "uint256"
				}
			],
			"stateMutability": "view",
			"type": "function"
		},
		{
			"inputs": [
				{
					"internalType": "uint256",
					"name": "assets",
					"type": "uint256"
				}
			],
			"name": "previewWithdraw",
			"outputs": [
				{
					"internalType": "uint256",
					"name": "",
					"type": "uint256"
				}
			],
			"stateMutability": "view",
			"type": "function"
		},
		{
			"inputs": [
				{
					"internalType": "address",
					"name": "_nftAddress",
					"type": "address"
				},
				{
					"internalType": "uint256",
					"name": "_tokenId",
					"type": "uint256"
				}
			],
			"name": "purchase",
			"outputs": [
				{
					"internalType": "uint256",
					"name": "",
					"type": "uint256"
				}
			],
			"stateMutability": "payable",
			"type": "function"
		},
		{
			"inputs": [
				{
					"internalType": "address",
					"name": "_nftAddress",
					"type": "address"
				},
				{
					"internalType": "uint256",
					"name": "_tokenId",
					"type": "uint256"
				}
			],
			"name": "purchaseUseShares",
			"outputs": [
				{
					"internalType": "uint256",
					"name": "",
					"type": "uint256"
				}
			],
			"stateMutability": "nonpayable",
			"type": "function"
		},
		{
			"inputs": [],
			"name": "queryFoundInfo",
			"outputs": [
				{
					"internalType": "uint256",
					"name": "nftOrderFee",
					"type": "uint256"
				},
				{
					"internalType": "uint256",
					"name": "nftOrderEarning",
					"type": "uint256"
				},
				{
					"internalType": "uint256",
					"name": "withdrawFee",
					"type": "uint256"
				},
				{
					"internalType": "uint256",
					"name": "withdrawEarning",
					"type": "uint256"
				},
				{
					"internalType": "uint256",
					"name": "flashFee",
					"type": "uint256"
				},
				{
					"internalType": "uint256",
					"name": "flashEarning",
					"type": "uint256"
				},
				{
					"internalType": "uint256",
					"name": "feeFree",
					"type": "uint256"
				}
			],
			"stateMutability": "view",
			"type": "function"
		},
		{
			"inputs": [
				{
					"internalType": "address",
					"name": "_nftAddress",
					"type": "address"
				},
				{
					"internalType": "uint256",
					"name": "_tokenId",
					"type": "uint256"
				}
			],
			"name": "queryOrderInfo",
			"outputs": [
				{
					"internalType": "address",
					"name": "owner",
					"type": "address"
				},
				{
					"internalType": "uint256",
					"name": "price",
					"type": "uint256"
				},
				{
					"internalType": "uint256",
					"name": "sharePrice",
					"type": "uint256"
				}
			],
			"stateMutability": "view",
			"type": "function"
		},
		{
			"inputs": [
				{
					"internalType": "uint256",
					"name": "shares",
					"type": "uint256"
				},
				{
					"internalType": "address",
					"name": "receiver",
					"type": "address"
				},
				{
					"internalType": "address",
					"name": "owner",
					"type": "address"
				}
			],
			"name": "redeem",
			"outputs": [
				{
					"internalType": "uint256",
					"name": "",
					"type": "uint256"
				}
			],
			"stateMutability": "nonpayable",
			"type": "function"
		},
		{
			"inputs": [
				{
					"internalType": "address",
					"name": "_nftAddress",
					"type": "address"
				}
			],
			"name": "removeNFTSupport",
			"outputs": [],
			"stateMutability": "nonpayable",
			"type": "function"
		},
		{
			"inputs": [
				{
					"internalType": "address",
					"name": "_nftAddress",
					"type": "address"
				},
				{
					"internalType": "uint256",
					"name": "_tokenId",
					"type": "uint256"
				}
			],
			"name": "revoke",
			"outputs": [],
			"stateMutability": "nonpayable",
			"type": "function"
		},
		{
			"inputs": [],
			"name": "symbol",
			"outputs": [
				{
					"internalType": "string",
					"name": "",
					"type": "string"
				}
			],
			"stateMutability": "view",
			"type": "function"
		},
		{
			"inputs": [],
			"name": "totalAssets",
			"outputs": [
				{
					"internalType": "uint256",
					"name": "",
					"type": "uint256"
				}
			],
			"stateMutability": "view",
			"type": "function"
		},
		{
			"inputs": [],
			"name": "totalSupply",
			"outputs": [
				{
					"internalType": "uint256",
					"name": "",
					"type": "uint256"
				}
			],
			"stateMutability": "view",
			"type": "function"
		},
		{
			"inputs": [
				{
					"internalType": "address",
					"name": "to",
					"type": "address"
				},
				{
					"internalType": "uint256",
					"name": "value",
					"type": "uint256"
				}
			],
			"name": "transfer",
			"outputs": [
				{
					"internalType": "bool",
					"name": "",
					"type": "bool"
				}
			],
			"stateMutability": "nonpayable",
			"type": "function"
		},
		{
			"inputs": [
				{
					"internalType": "address",
					"name": "from",
					"type": "address"
				},
				{
					"internalType": "address",
					"name": "to",
					"type": "address"
				},
				{
					"internalType": "uint256",
					"name": "value",
					"type": "uint256"
				}
			],
			"name": "transferFrom",
			"outputs": [
				{
					"internalType": "bool",
					"name": "",
					"type": "bool"
				}
			],
			"stateMutability": "nonpayable",
			"type": "function"
		},
		{
			"inputs": [],
			"name": "unpause",
			"outputs": [],
			"stateMutability": "nonpayable",
			"type": "function"
		},
		{
			"inputs": [
				{
					"internalType": "address",
					"name": "_nftAddress",
					"type": "address"
				},
				{
					"internalType": "uint256",
					"name": "_tokenId",
					"type": "uint256"
				},
				{
					"internalType": "uint256",
					"name": "_newPrice",
					"type": "uint256"
				}
			],
			"name": "update",
			"outputs": [],
			"stateMutability": "nonpayable",
			"type": "function"
		},
		{
			"inputs": [
				{
					"internalType": "address",
					"name": "account",
					"type": "address"
				},
				{
					"internalType": "uint256",
					"name": "_available",
					"type": "uint256"
				}
			],
			"name": "updateFundsAvailable",
			"outputs": [],
			"stateMutability": "nonpayable",
			"type": "function"
		},
		{
			"inputs": [
				{
					"internalType": "uint256",
					"name": "assets",
					"type": "uint256"
				},
				{
					"internalType": "address",
					"name": "receiver",
					"type": "address"
				},
				{
					"internalType": "address",
					"name": "owner",
					"type": "address"
				}
			],
			"name": "withdraw",
			"outputs": [
				{
					"internalType": "uint256",
					"name": "",
					"type": "uint256"
				}
			],
			"stateMutability": "nonpayable",
			"type": "function"
		},
		{
			"stateMutability": "payable",
			"type": "receive"
		}
	]
}