{
	"data": {
		"bytecode": {
			"linkReferences": {},
			"object": "6080604052348015600e575f80fd5b5061100f8061001c5f395ff3fe608060405234801561000f575f80fd5b5060043610610055575f3560e01c806352ef6b2c146100595780637a0ed6271461007757806380a003ff14610095578063adfca15e146100c5578063cdffacc6146100f5575b5f80fd5b610061610125565b60405161006e9190610946565b60405180910390f35b61007f610141565b60405161008c9190610b3d565b60405180910390f35b6100af60048036038101906100aa9190610caa565b61038c565b6040516100bc9190610d00565b60405180910390f35b6100df60048036038101906100da9190610d43565b6103bb565b6040516100ec9190610dda565b60405180910390f35b61010f600480360381019061010a9190610e24565b610491565b60405161011c9190610e5e565b60405180910390f35b60605f6101306104b3565b905061013b816104f7565b91505090565b60605f61014c6104b3565b90505f610158826104f7565b90505f815190505f81036101c4575f67ffffffffffffffff8111156101805761017f610b86565b5b6040519080825280602002602001820160405280156101b957816020015b6101a6610830565b81526020019060019003908161019e5790505b509350505050610389565b8067ffffffffffffffff8111156101de576101dd610b86565b5b60405190808252806020026020018201604052801561021757816020015b610204610830565b8152602001906001900390816101fc5790505b5093505f5b81811015610384575f83828151811061023857610237610e77565b5b60200260200101519050610255818661050b90919063ffffffff16565b15610376575f61026e828761052990919063ffffffff16565b90508187848151811061028457610283610e77565b5b60200260200101515f019073ffffffffffffffffffffffffffffffffffffffff16908173ffffffffffffffffffffffffffffffffffffffff1681525050805f0180548060200260200160405190810160405280929190818152602001828054801561034d57602002820191905f5260205f20905f905b82829054906101000a900460e01b7bffffffffffffffffffffffffffffffffffffffffffffffffffffffff1916815260200190600401906020826003010492830192600103820291508084116102fa5790505b505050505087848151811061036557610364610e77565b5b602002602001015160200181905250505b50808060010191505061021c565b505050505b90565b5f8160405160200161039e9190610ef6565b604051602081830303815290604052805190602001209050919050565b60605f6103c66104b3565b90506103db838261050b90919063ffffffff16565b1561048b575f6103f4848361052990919063ffffffff16565b9050805f0180548060200260200160405190810160405280929190818152602001828054801561048257602002820191905f5260205f20905f905b82829054906101000a900460e01b7bffffffffffffffffffffffffffffffffffffffffffffffffffffffff19168152602001906004019060208260030104928301926001038202915080841161042f5790505b50505050509250505b50919050565b5f6104ac8261049e6105bc565b61060090919063ffffffff16565b9050919050565b5f6104f26040518060400160405280601981526020017f656970323533352e61646472657373546f46616365744d617000000000000000815250610635565b905090565b6060610504825f01610679565b9050919050565b5f61052182845f0161069890919063ffffffff16565b905092915050565b5f610534838361050b565b61057557816040517f702c0e5200000000000000000000000000000000000000000000000000000000815260040161056c9190610e5e565b60405180910390fd5b826002015f8373ffffffffffffffffffffffffffffffffffffffff1673ffffffffffffffffffffffffffffffffffffffff1681526020019081526020015f20905092915050565b5f6105fb6040518060400160405280601e81526020017f656970323533352e7369674661636574416464726573734d617070696e6700008152506106c5565b905090565b5f61060b83836106fc565b5f015f9054906101000a900473ffffffffffffffffffffffffffffffffffffffff16905092915050565b5f806106596040518060600160405280602a8152602001610fb0602a913984610749565b90505f61066582610775565b905061067081610791565b92505050919050565b60605f610687835f0161079a565b905060608190508092505050919050565b5f6106bd835f018373ffffffffffffffffffffffffffffffffffffffff165f1b6107f3565b905092915050565b5f806106f16106ec6040518060600160405280602b8152602001610f85602b913985610749565b610775565b905080915050919050565b5f80827bffffffffffffffffffffffffffffffffffffffffffffffffffffffff191690505f610734828661081390919063ffffffff16565b905061073f81610827565b9250505092915050565b6060828260405160200161075e929190610f56565b604051602081830303815290604052905092915050565b5f600182516020840120035f5260ff1960205f20169050919050565b5f819050919050565b6060815f018054806020026020016040519081016040528092919081815260200182805480156107e757602002820191905f5260205f20905b8154815260200190600101908083116107d3575b50505050509050919050565b5f80836001015f8481526020019081526020015f20541415905092915050565b5f815f528260205260405f20905092915050565b5f819050919050565b60405180604001604052805f73ffffffffffffffffffffffffffffffffffffffff168152602001606081525090565b5f81519050919050565b5f82825260208201905092915050565b5f819050602082019050919050565b5f73ffffffffffffffffffffffffffffffffffffffff82169050919050565b5f6108b182610888565b9050919050565b6108c1816108a7565b82525050565b5f6108d283836108b8565b60208301905092915050565b5f602082019050919050565b5f6108f48261085f565b6108fe8185610869565b935061090983610879565b805f5b8381101561093957815161092088826108c7565b975061092b836108de565b92505060018101905061090c565b5085935050505092915050565b5f6020820190508181035f83015261095e81846108ea565b905092915050565b5f81519050919050565b5f82825260208201905092915050565b5f819050602082019050919050565b5f81519050919050565b5f82825260208201905092915050565b5f819050602082019050919050565b5f7fffffffff0000000000000000000000000000000000000000000000000000000082169050919050565b6109ec816109b8565b82525050565b5f6109fd83836109e3565b60208301905092915050565b5f602082019050919050565b5f610a1f8261098f565b610a298185610999565b9350610a34836109a9565b805f5b83811015610a64578151610a4b88826109f2565b9750610a5683610a09565b925050600181019050610a37565b5085935050505092915050565b5f604083015f830151610a865f8601826108b8565b5060208301518482036020860152610a9e8282610a15565b9150508091505092915050565b5f610ab68383610a71565b905092915050565b5f602082019050919050565b5f610ad482610966565b610ade8185610970565b935083602082028501610af085610980565b805f5b85811015610b2b5784840389528151610b0c8582610aab565b9450610b1783610abe565b925060208a01995050600181019050610af3565b50829750879550505050505092915050565b5f6020820190508181035f830152610b558184610aca565b905092915050565b5f604051905090565b5f80fd5b5f80fd5b5f80fd5b5f80fd5b5f601f19601f8301169050919050565b7f4e487b71000000000000000000000000000000000000000000000000000000005f52604160045260245ffd5b610bbc82610b76565b810181811067ffffffffffffffff82111715610bdb57610bda610b86565b5b80604052505050565b5f610bed610b5d565b9050610bf98282610bb3565b919050565b5f67ffffffffffffffff821115610c1857610c17610b86565b5b610c2182610b76565b9050602081019050919050565b828183375f83830152505050565b5f610c4e610c4984610bfe565b610be4565b905082815260208101848484011115610c6a57610c69610b72565b5b610c75848285610c2e565b509392505050565b5f82601f830112610c9157610c90610b6e565b5b8135610ca1848260208601610c3c565b91505092915050565b5f60208284031215610cbf57610cbe610b66565b5b5f82013567ffffffffffffffff811115610cdc57610cdb610b6a565b5b610ce884828501610c7d565b91505092915050565b610cfa816109b8565b82525050565b5f602082019050610d135f830184610cf1565b92915050565b610d22816108a7565b8114610d2c575f80fd5b50565b5f81359050610d3d81610d19565b92915050565b5f60208284031215610d5857610d57610b66565b5b5f610d6584828501610d2f565b91505092915050565b5f82825260208201905092915050565b5f610d888261098f565b610d928185610d6e565b9350610d9d836109a9565b805f5b83811015610dcd578151610db488826109f2565b9750610dbf83610a09565b925050600181019050610da0565b5085935050505092915050565b5f6020820190508181035f830152610df28184610d7e565b905092915050565b610e03816109b8565b8114610e0d575f80fd5b50565b5f81359050610e1e81610dfa565b92915050565b5f60208284031215610e3957610e38610b66565b5b5f610e4684828501610e10565b91505092915050565b610e58816108a7565b82525050565b5f602082019050610e715f830184610e4f565b92915050565b7f4e487b71000000000000000000000000000000000000000000000000000000005f52603260045260245ffd5b5f81519050919050565b5f81905092915050565b8281835e5f83830152505050565b5f610ed082610ea4565b610eda8185610eae565b9350610eea818560208601610eb8565b80840191505092915050565b5f610f018284610ec6565b915081905092915050565b7f2e000000000000000000000000000000000000000000000000000000000000005f82015250565b5f610f40600183610eae565b9150610f4b82610f0c565b600182019050919050565b5f610f618285610ec6565b9150610f6c82610f34565b9150610f788284610ec6565b9150819050939250505056fe4469616d6f6e6453746f726167652e6e616d6573706163652e627974657334546f416464726573734d61704469616d6f6e6453746f726167652e6e616d6573706163652e61646472657373546f46616365744d6170a2646970667358221220a46abeda01c5bb41f445cf54c8970747d5f972dbda3eb52391b800b5f4cf345e64736f6c634300081a0033",
			"opcodes": "PUSH1 0x80 PUSH1 0x40 MSTORE CALLVALUE DUP1 ISZERO PUSH1 0xE JUMPI PUSH0 DUP1 REVERT JUMPDEST POP PUSH2 0x100F DUP1 PUSH2 0x1C PUSH0 CODECOPY PUSH0 RETURN INVALID PUSH1 0x80 PUSH1 0x40 MSTORE CALLVALUE DUP1 ISZERO PUSH2 0xF JUMPI PUSH0 DUP1 REVERT JUMPDEST POP PUSH1 0x4 CALLDATASIZE LT PUSH2 0x55 JUMPI PUSH0 CALLDATALOAD PUSH1 0xE0 SHR DUP1 PUSH4 0x52EF6B2C EQ PUSH2 0x59 JUMPI DUP1 PUSH4 0x7A0ED627 EQ PUSH2 0x77 JUMPI DUP1 PUSH4 0x80A003FF EQ PUSH2 0x95 JUMPI DUP1 PUSH4 0xADFCA15E EQ PUSH2 0xC5 JUMPI DUP1 PUSH4 0xCDFFACC6 EQ PUSH2 0xF5 JUMPI JUMPDEST PUSH0 DUP1 REVERT JUMPDEST PUSH2 0x61 PUSH2 0x125 JUMP JUMPDEST PUSH1 0x40 MLOAD PUSH2 0x6E SWAP2 SWAP1 PUSH2 0x946 JUMP JUMPDEST PUSH1 0x40 MLOAD DUP1 SWAP2 SUB SWAP1 RETURN JUMPDEST PUSH2 0x7F PUSH2 0x141 JUMP JUMPDEST PUSH1 0x40 MLOAD PUSH2 0x8C SWAP2 SWAP1 PUSH2 0xB3D JUMP JUMPDEST PUSH1 0x40 MLOAD DUP1 SWAP2 SUB SWAP1 RETURN JUMPDEST PUSH2 0xAF PUSH1 0x4 DUP1 CALLDATASIZE SUB DUP2 ADD SWAP1 PUSH2 0xAA SWAP2 SWAP1 PUSH2 0xCAA JUMP JUMPDEST PUSH2 0x38C JUMP JUMPDEST PUSH1 0x40 MLOAD PUSH2 0xBC SWAP2 SWAP1 PUSH2 0xD00 JUMP JUMPDEST PUSH1 0x40 MLOAD DUP1 SWAP2 SUB SWAP1 RETURN JUMPDEST PUSH2 0xDF PUSH1 0x4 DUP1 CALLDATASIZE SUB DUP2 ADD SWAP1 PUSH2 0xDA SWAP2 SWAP1 PUSH2 0xD43 JUMP JUMPDEST PUSH2 0x3BB JUMP JUMPDEST PUSH1 0x40 MLOAD PUSH2 0xEC SWAP2 SWAP1 PUSH2 0xDDA JUMP JUMPDEST PUSH1 0x40 MLOAD DUP1 SWAP2 SUB SWAP1 RETURN JUMPDEST PUSH2 0x10F PUSH1 0x4 DUP1 CALLDATASIZE SUB DUP2 ADD SWAP1 PUSH2 0x10A SWAP2 SWAP1 PUSH2 0xE24 JUMP JUMPDEST PUSH2 0x491 JUMP JUMPDEST PUSH1 0x40 MLOAD PUSH2 0x11C SWAP2 SWAP1 PUSH2 0xE5E JUMP JUMPDEST PUSH1 0x40 MLOAD DUP1 SWAP2 SUB SWAP1 RETURN JUMPDEST PUSH1 0x60 PUSH0 PUSH2 0x130 PUSH2 0x4B3 JUMP JUMPDEST SWAP1 POP PUSH2 0x13B DUP2 PUSH2 0x4F7 JUMP JUMPDEST SWAP2 POP POP SWAP1 JUMP JUMPDEST PUSH1 0x60 PUSH0 PUSH2 0x14C PUSH2 0x4B3 JUMP JUMPDEST SWAP1 POP PUSH0 PUSH2 0x158 DUP3 PUSH2 0x4F7 JUMP JUMPDEST SWAP1 POP PUSH0 DUP2 MLOAD SWAP1 POP PUSH0 DUP2 SUB PUSH2 0x1C4 JUMPI PUSH0 PUSH8 0xFFFFFFFFFFFFFFFF DUP2 GT ISZERO PUSH2 0x180 JUMPI PUSH2 0x17F PUSH2 0xB86 JUMP JUMPDEST JUMPDEST PUSH1 0x40 MLOAD SWAP1 DUP1 DUP3 MSTORE DUP1 PUSH1 0x20 MUL PUSH1 0x20 ADD DUP3 ADD PUSH1 0x40 MSTORE DUP1 ISZERO PUSH2 0x1B9 JUMPI DUP2 PUSH1 0x20 ADD JUMPDEST PUSH2 0x1A6 PUSH2 0x830 JUMP JUMPDEST DUP2 MSTORE PUSH1 0x20 ADD SWAP1 PUSH1 0x1 SWAP1 SUB SWAP1 DUP2 PUSH2 0x19E JUMPI SWAP1 POP JUMPDEST POP SWAP4 POP POP POP POP PUSH2 0x389 JUMP JUMPDEST DUP1 PUSH8 0xFFFFFFFFFFFFFFFF DUP2 GT ISZERO PUSH2 0x1DE JUMPI PUSH2 0x1DD PUSH2 0xB86 JUMP JUMPDEST JUMPDEST PUSH1 0x40 MLOAD SWAP1 DUP1 DUP3 MSTORE DUP1 PUSH1 0x20 MUL PUSH1 0x20 ADD DUP3 ADD PUSH1 0x40 MSTORE DUP1 ISZERO PUSH2 0x217 JUMPI DUP2 PUSH1 0x20 ADD JUMPDEST PUSH2 0x204 PUSH2 0x830 JUMP JUMPDEST DUP2 MSTORE PUSH1 0x20 ADD SWAP1 PUSH1 0x1 SWAP1 SUB SWAP1 DUP2 PUSH2 0x1FC JUMPI SWAP1 POP JUMPDEST POP SWAP4 POP PUSH0 JUMPDEST DUP2 DUP2 LT ISZERO PUSH2 0x384 JUMPI PUSH0 DUP4 DUP3 DUP2 MLOAD DUP2 LT PUSH2 0x238 JUMPI PUSH2 0x237 PUSH2 0xE77 JUMP JUMPDEST JUMPDEST PUSH1 0x20 MUL PUSH1 0x20 ADD ADD MLOAD SWAP1 POP PUSH2 0x255 DUP2 DUP7 PUSH2 0x50B SWAP1 SWAP2 SWAP1 PUSH4 0xFFFFFFFF AND JUMP JUMPDEST ISZERO PUSH2 0x376 JUMPI PUSH0 PUSH2 0x26E DUP3 DUP8 PUSH2 0x529 SWAP1 SWAP2 SWAP1 PUSH4 0xFFFFFFFF AND JUMP JUMPDEST SWAP1 POP DUP2 DUP8 DUP5 DUP2 MLOAD DUP2 LT PUSH2 0x284 JUMPI PUSH2 0x283 PUSH2 0xE77 JUMP JUMPDEST JUMPDEST PUSH1 0x20 MUL PUSH1 0x20 ADD ADD MLOAD PUSH0 ADD SWAP1 PUSH20 0xFFFFFFFFFFFFFFFFFFFFFFFFFFFFFFFFFFFFFFFF AND SWAP1 DUP2 PUSH20 0xFFFFFFFFFFFFFFFFFFFFFFFFFFFFFFFFFFFFFFFF AND DUP2 MSTORE POP POP DUP1 PUSH0 ADD DUP1 SLOAD DUP1 PUSH1 0x20 MUL PUSH1 0x20 ADD PUSH1 0x40 MLOAD SWAP1 DUP2 ADD PUSH1 0x40 MSTORE DUP1 SWAP3 SWAP2 SWAP1 DUP2 DUP2 MSTORE PUSH1 0x20 ADD DUP3 DUP1 SLOAD DUP1 ISZERO PUSH2 0x34D JUMPI PUSH1 0x20 MUL DUP3 ADD SWAP2 SWAP1 PUSH0 MSTORE PUSH1 0x20 PUSH0 KECCAK256 SWAP1 PUSH0 SWAP1 JUMPDEST DUP3 DUP3 SWAP1 SLOAD SWAP1 PUSH2 0x100 EXP SWAP1 DIV PUSH1 0xE0 SHL PUSH28 0xFFFFFFFFFFFFFFFFFFFFFFFFFFFFFFFFFFFFFFFFFFFFFFFFFFFFFFFF NOT AND DUP2 MSTORE PUSH1 0x20 ADD SWAP1 PUSH1 0x4 ADD SWAP1 PUSH1 0x20 DUP3 PUSH1 0x3 ADD DIV SWAP3 DUP4 ADD SWAP3 PUSH1 0x1 SUB DUP3 MUL SWAP2 POP DUP1 DUP5 GT PUSH2 0x2FA JUMPI SWAP1 POP JUMPDEST POP POP POP POP POP DUP8 DUP5 DUP2 MLOAD DUP2 LT PUSH2 0x365 JUMPI PUSH2 0x364 PUSH2 0xE77 JUMP JUMPDEST JUMPDEST PUSH1 0x20 MUL PUSH1 0x20 ADD ADD MLOAD PUSH1 0x20 ADD DUP2 SWAP1 MSTORE POP POP JUMPDEST POP DUP1 DUP1 PUSH1 0x1 ADD SWAP2 POP POP PUSH2 0x21C JUMP JUMPDEST POP POP POP POP JUMPDEST SWAP1 JUMP JUMPDEST PUSH0 DUP2 PUSH1 0x40 MLOAD PUSH1 0x20 ADD PUSH2 0x39E SWAP2 SWAP1 PUSH2 0xEF6 JUMP JUMPDEST PUSH1 0x40 MLOAD PUSH1 0x20 DUP2 DUP4 SUB SUB DUP2 MSTORE SWAP1 PUSH1 0x40 MSTORE DUP1 MLOAD SWAP1 PUSH1 0x20 ADD KECCAK256 SWAP1 POP SWAP2 SWAP1 POP JUMP JUMPDEST PUSH1 0x60 PUSH0 PUSH2 0x3C6 PUSH2 0x4B3 JUMP JUMPDEST SWAP1 POP PUSH2 0x3DB DUP4 DUP3 PUSH2 0x50B SWAP1 SWAP2 SWAP1 PUSH4 0xFFFFFFFF AND JUMP JUMPDEST ISZERO PUSH2 0x48B JUMPI PUSH0 PUSH2 0x3F4 DUP5 DUP4 PUSH2 0x529 SWAP1 SWAP2 SWAP1 PUSH4 0xFFFFFFFF AND JUMP JUMPDEST SWAP1 POP DUP1 PUSH0 ADD DUP1 SLOAD DUP1 PUSH1 0x20 MUL PUSH1 0x20 ADD PUSH1 0x40 MLOAD SWAP1 DUP2 ADD PUSH1 0x40 MSTORE DUP1 SWAP3 SWAP2 SWAP1 DUP2 DUP2 MSTORE PUSH1 0x20 ADD DUP3 DUP1 SLOAD DUP1 ISZERO PUSH2 0x482 JUMPI PUSH1 0x20 MUL DUP3 ADD SWAP2 SWAP1 PUSH0 MSTORE PUSH1 0x20 PUSH0 KECCAK256 SWAP1 PUSH0 SWAP1 JUMPDEST DUP3 DUP3 SWAP1 SLOAD SWAP1 PUSH2 0x100 EXP SWAP1 DIV PUSH1 0xE0 SHL PUSH28 0xFFFFFFFFFFFFFFFFFFFFFFFFFFFFFFFFFFFFFFFFFFFFFFFFFFFFFFFF NOT AND DUP2 MSTORE PUSH1 0x20 ADD SWAP1 PUSH1 0x4 ADD SWAP1 PUSH1 0x20 DUP3 PUSH1 0x3 ADD DIV SWAP3 DUP4 ADD SWAP3 PUSH1 0x1 SUB DUP3 MUL SWAP2 POP DUP1 DUP5 GT PUSH2 0x42F JUMPI SWAP1 POP JUMPDEST POP POP POP POP POP SWAP3 POP POP JUMPDEST POP SWAP2 SWAP1 POP JUMP JUMPDEST PUSH0 PUSH2 0x4AC DUP3 PUSH2 0x49E PUSH2 0x5BC JUMP JUMPDEST PUSH2 0x600 SWAP1 SWAP2 SWAP1 PUSH4 0xFFFFFFFF AND JUMP JUMPDEST SWAP1 POP SWAP2 SWAP1 POP JUMP JUMPDEST PUSH0 PUSH2 0x4F2 PUSH1 0x40 MLOAD DUP1 PUSH1 0x40 ADD PUSH1 0x40 MSTORE DUP1 PUSH1 0x19 DUP2 MSTORE PUSH1 0x20 ADD PUSH32 0x656970323533352E61646472657373546F46616365744D617000000000000000 DUP2 MSTORE POP PUSH2 0x635 JUMP JUMPDEST SWAP1 POP SWAP1 JUMP JUMPDEST PUSH1 0x60 PUSH2 0x504 DUP3 PUSH0 ADD PUSH2 0x679 JUMP JUMPDEST SWAP1 POP SWAP2 SWAP1 POP JUMP JUMPDEST PUSH0 PUSH2 0x521 DUP3 DUP5 PUSH0 ADD PUSH2 0x698 SWAP1 SWAP2 SWAP1 PUSH4 0xFFFFFFFF AND JUMP JUMPDEST SWAP1 POP SWAP3 SWAP2 POP POP JUMP JUMPDEST PUSH0 PUSH2 0x534 DUP4 DUP4 PUSH2 0x50B JUMP JUMPDEST PUSH2 0x575 JUMPI DUP2 PUSH1 0x40 MLOAD PUSH32 0x702C0E5200000000000000000000000000000000000000000000000000000000 DUP2 MSTORE PUSH1 0x4 ADD PUSH2 0x56C SWAP2 SWAP1 PUSH2 0xE5E JUMP JUMPDEST PUSH1 0x40 MLOAD DUP1 SWAP2 SUB SWAP1 REVERT JUMPDEST DUP3 PUSH1 0x2 ADD PUSH0 DUP4 PUSH20 0xFFFFFFFFFFFFFFFFFFFFFFFFFFFFFFFFFFFFFFFF AND PUSH20 0xFFFFFFFFFFFFFFFFFFFFFFFFFFFFFFFFFFFFFFFF AND DUP2 MSTORE PUSH1 0x20 ADD SWAP1 DUP2 MSTORE PUSH1 0x20 ADD PUSH0 KECCAK256 SWAP1 POP SWAP3 SWAP2 POP POP JUMP JUMPDEST PUSH0 PUSH2 0x5FB PUSH1 0x40 MLOAD DUP1 PUSH1 0x40 ADD PUSH1 0x40 MSTORE DUP1 PUSH1 0x1E DUP2 MSTORE PUSH1 0x20 ADD PUSH32 0x656970323533352E7369674661636574416464726573734D617070696E670000 DUP2 MSTORE POP PUSH2 0x6C5 JUMP JUMPDEST SWAP1 POP SWAP1 JUMP JUMPDEST PUSH0 PUSH2 0x60B DUP4 DUP4 PUSH2 0x6FC JUMP JUMPDEST PUSH0 ADD PUSH0 SWAP1 SLOAD SWAP1 PUSH2 0x100 EXP SWAP1 DIV PUSH20 0xFFFFFFFFFFFFFFFFFFFFFFFFFFFFFFFFFFFFFFFF AND SWAP1 POP SWAP3 SWAP2 POP POP JUMP JUMPDEST PUSH0 DUP1 PUSH2 0x659 PUSH1 0x40 MLOAD DUP1 PUSH1 0x60 ADD PUSH1 0x40 MSTORE DUP1 PUSH1 0x2A DUP2 MSTORE PUSH1 0x20 ADD PUSH2 0xFB0 PUSH1 0x2A SWAP2 CODECOPY DUP5 PUSH2 0x749 JUMP JUMPDEST SWAP1 POP PUSH0 PUSH2 0x665 DUP3 PUSH2 0x775 JUMP JUMPDEST SWAP1 POP PUSH2 0x670 DUP2 PUSH2 0x791 JUMP JUMPDEST SWAP3 POP POP POP SWAP2 SWAP1 POP JUMP JUMPDEST PUSH1 0x60 PUSH0 PUSH2 0x687 DUP4 PUSH0 ADD PUSH2 0x79A JUMP JUMPDEST SWAP1 POP PUSH1 0x60 DUP2 SWAP1 POP DUP1 SWAP3 POP POP POP SWAP2 SWAP1 POP JUMP JUMPDEST PUSH0 PUSH2 0x6BD DUP4 PUSH0 ADD DUP4 PUSH20 0xFFFFFFFFFFFFFFFFFFFFFFFFFFFFFFFFFFFFFFFF AND PUSH0 SHL PUSH2 0x7F3 JUMP JUMPDEST SWAP1 POP SWAP3 SWAP2 POP POP JUMP JUMPDEST PUSH0 DUP1 PUSH2 0x6F1 PUSH2 0x6EC PUSH1 0x40 MLOAD DUP1 PUSH1 0x60 ADD PUSH1 0x40 MSTORE DUP1 PUSH1 0x2B DUP2 MSTORE PUSH1 0x20 ADD PUSH2 0xF85 PUSH1 0x2B SWAP2 CODECOPY DUP6 PUSH2 0x749 JUMP JUMPDEST PUSH2 0x775 JUMP JUMPDEST SWAP1 POP DUP1 SWAP2 POP POP SWAP2 SWAP1 POP JUMP JUMPDEST PUSH0 DUP1 DUP3 PUSH28 0xFFFFFFFFFFFFFFFFFFFFFFFFFFFFFFFFFFFFFFFFFFFFFFFFFFFFFFFF NOT AND SWAP1 POP PUSH0 PUSH2 0x734 DUP3 DUP7 PUSH2 0x813 SWAP1 SWAP2 SWAP1 PUSH4 0xFFFFFFFF AND JUMP JUMPDEST SWAP1 POP PUSH2 0x73F DUP2 PUSH2 0x827 JUMP JUMPDEST SWAP3 POP POP POP SWAP3 SWAP2 POP POP JUMP JUMPDEST PUSH1 0x60 DUP3 DUP3 PUSH1 0x40 MLOAD PUSH1 0x20 ADD PUSH2 0x75E SWAP3 SWAP2 SWAP1 PUSH2 0xF56 JUMP JUMPDEST PUSH1 0x40 MLOAD PUSH1 0x20 DUP2 DUP4 SUB SUB DUP2 MSTORE SWAP1 PUSH1 0x40 MSTORE SWAP1 POP SWAP3 SWAP2 POP POP JUMP JUMPDEST PUSH0 PUSH1 0x1 DUP3 MLOAD PUSH1 0x20 DUP5 ADD KECCAK256 SUB PUSH0 MSTORE PUSH1 0xFF NOT PUSH1 0x20 PUSH0 KECCAK256 AND SWAP1 POP SWAP2 SWAP1 POP JUMP JUMPDEST PUSH0 DUP2 SWAP1 POP SWAP2 SWAP1 POP JUMP JUMPDEST PUSH1 0x60 DUP2 PUSH0 ADD DUP1 SLOAD DUP1 PUSH1 0x20 MUL PUSH1 0x20 ADD PUSH1 0x40 MLOAD SWAP1 DUP2 ADD PUSH1 0x40 MSTORE DUP1 SWAP3 SWAP2 SWAP1 DUP2 DUP2 MSTORE PUSH1 0x20 ADD DUP3 DUP1 SLOAD DUP1 ISZERO PUSH2 0x7E7 JUMPI PUSH1 0x20 MUL DUP3 ADD SWAP2 SWAP1 PUSH0 MSTORE PUSH1 0x20 PUSH0 KECCAK256 SWAP1 JUMPDEST DUP2 SLOAD DUP2 MSTORE PUSH1 0x20 ADD SWAP1 PUSH1 0x1 ADD SWAP1 DUP1 DUP4 GT PUSH2 0x7D3 JUMPI JUMPDEST POP POP POP POP POP SWAP1 POP SWAP2 SWAP1 POP JUMP JUMPDEST PUSH0 DUP1 DUP4 PUSH1 0x1 ADD PUSH0 DUP5 DUP2 MSTORE PUSH1 0x20 ADD SWAP1 DUP2 MSTORE PUSH1 0x20 ADD PUSH0 KECCAK256 SLOAD EQ ISZERO SWAP1 POP SWAP3 SWAP2 POP POP JUMP JUMPDEST PUSH0 DUP2 PUSH0 MSTORE DUP3 PUSH1 0x20 MSTORE PUSH1 0x40 PUSH0 KECCAK256 SWAP1 POP SWAP3 SWAP2 POP POP JUMP JUMPDEST PUSH0 DUP2 SWAP1 POP SWAP2 SWAP1 POP JUMP JUMPDEST PUSH1 0x40 MLOAD DUP1 PUSH1 0x40 ADD PUSH1 0x40 MSTORE DUP1 PUSH0 PUSH20 0xFFFFFFFFFFFFFFFFFFFFFFFFFFFFFFFFFFFFFFFF AND DUP2 MSTORE PUSH1 0x20 ADD PUSH1 0x60 DUP2 MSTORE POP SWAP1 JUMP JUMPDEST PUSH0 DUP2 MLOAD SWAP1 POP SWAP2 SWAP1 POP JUMP JUMPDEST PUSH0 DUP3 DUP3 MSTORE PUSH1 0x20 DUP3 ADD SWAP1 POP SWAP3 SWAP2 POP POP JUMP JUMPDEST PUSH0 DUP2 SWAP1 POP PUSH1 0x20 DUP3 ADD SWAP1 POP SWAP2 SWAP1 POP JUMP JUMPDEST PUSH0 PUSH20 0xFFFFFFFFFFFFFFFFFFFFFFFFFFFFFFFFFFFFFFFF DUP3 AND SWAP1 POP SWAP2 SWAP1 POP JUMP JUMPDEST PUSH0 PUSH2 0x8B1 DUP3 PUSH2 0x888 JUMP JUMPDEST SWAP1 POP SWAP2 SWAP1 POP JUMP JUMPDEST PUSH2 0x8C1 DUP2 PUSH2 0x8A7 JUMP JUMPDEST DUP3 MSTORE POP POP JUMP JUMPDEST PUSH0 PUSH2 0x8D2 DUP4 DUP4 PUSH2 0x8B8 JUMP JUMPDEST PUSH1 0x20 DUP4 ADD SWAP1 POP SWAP3 SWAP2 POP POP JUMP JUMPDEST PUSH0 PUSH1 0x20 DUP3 ADD SWAP1 POP SWAP2 SWAP1 POP JUMP JUMPDEST PUSH0 PUSH2 0x8F4 DUP3 PUSH2 0x85F JUMP JUMPDEST PUSH2 0x8FE DUP2 DUP6 PUSH2 0x869 JUMP JUMPDEST SWAP4 POP PUSH2 0x909 DUP4 PUSH2 0x879 JUMP JUMPDEST DUP1 PUSH0 JUMPDEST DUP4 DUP2 LT ISZERO PUSH2 0x939 JUMPI DUP2 MLOAD PUSH2 0x920 DUP9 DUP3 PUSH2 0x8C7 JUMP JUMPDEST SWAP8 POP PUSH2 0x92B DUP4 PUSH2 0x8DE JUMP JUMPDEST SWAP3 POP POP PUSH1 0x1 DUP2 ADD SWAP1 POP PUSH2 0x90C JUMP JUMPDEST POP DUP6 SWAP4 POP POP POP POP SWAP3 SWAP2 POP POP JUMP JUMPDEST PUSH0 PUSH1 0x20 DUP3 ADD SWAP1 POP DUP2 DUP2 SUB PUSH0 DUP4 ADD MSTORE PUSH2 0x95E DUP2 DUP5 PUSH2 0x8EA JUMP JUMPDEST SWAP1 POP SWAP3 SWAP2 POP POP JUMP JUMPDEST PUSH0 DUP2 MLOAD SWAP1 POP SWAP2 SWAP1 POP JUMP JUMPDEST PUSH0 DUP3 DUP3 MSTORE PUSH1 0x20 DUP3 ADD SWAP1 POP SWAP3 SWAP2 POP POP JUMP JUMPDEST PUSH0 DUP2 SWAP1 POP PUSH1 0x20 DUP3 ADD SWAP1 POP SWAP2 SWAP1 POP JUMP JUMPDEST PUSH0 DUP2 MLOAD SWAP1 POP SWAP2 SWAP1 POP JUMP JUMPDEST PUSH0 DUP3 DUP3 MSTORE PUSH1 0x20 DUP3 ADD SWAP1 POP SWAP3 SWAP2 POP POP JUMP JUMPDEST PUSH0 DUP2 SWAP1 POP PUSH1 0x20 DUP3 ADD SWAP1 POP SWAP2 SWAP1 POP JUMP JUMPDEST PUSH0 PUSH32 0xFFFFFFFF00000000000000000000000000000000000000000000000000000000 DUP3 AND SWAP1 POP SWAP2 SWAP1 POP JUMP JUMPDEST PUSH2 0x9EC DUP2 PUSH2 0x9B8 JUMP JUMPDEST DUP3 MSTORE POP POP JUMP JUMPDEST PUSH0 PUSH2 0x9FD DUP4 DUP4 PUSH2 0x9E3 JUMP JUMPDEST PUSH1 0x20 DUP4 ADD SWAP1 POP SWAP3 SWAP2 POP POP JUMP JUMPDEST PUSH0 PUSH1 0x20 DUP3 ADD SWAP1 POP SWAP2 SWAP1 POP JUMP JUMPDEST PUSH0 PUSH2 0xA1F DUP3 PUSH2 0x98F JUMP JUMPDEST PUSH2 0xA29 DUP2 DUP6 PUSH2 0x999 JUMP JUMPDEST SWAP4 POP PUSH2 0xA34 DUP4 PUSH2 0x9A9 JUMP JUMPDEST DUP1 PUSH0 JUMPDEST DUP4 DUP2 LT ISZERO PUSH2 0xA64 JUMPI DUP2 MLOAD PUSH2 0xA4B DUP9 DUP3 PUSH2 0x9F2 JUMP JUMPDEST SWAP8 POP PUSH2 0xA56 DUP4 PUSH2 0xA09 JUMP JUMPDEST SWAP3 POP POP PUSH1 0x1 DUP2 ADD SWAP1 POP PUSH2 0xA37 JUMP JUMPDEST POP DUP6 SWAP4 POP POP POP POP SWAP3 SWAP2 POP POP JUMP JUMPDEST PUSH0 PUSH1 0x40 DUP4 ADD PUSH0 DUP4 ADD MLOAD PUSH2 0xA86 PUSH0 DUP7 ADD DUP3 PUSH2 0x8B8 JUMP JUMPDEST POP PUSH1 0x20 DUP4 ADD MLOAD DUP5 DUP3 SUB PUSH1 0x20 DUP7 ADD MSTORE PUSH2 0xA9E DUP3 DUP3 PUSH2 0xA15 JUMP JUMPDEST SWAP2 POP POP DUP1 SWAP2 POP POP SWAP3 SWAP2 POP POP JUMP JUMPDEST PUSH0 PUSH2 0xAB6 DUP4 DUP4 PUSH2 0xA71 JUMP JUMPDEST SWAP1 POP SWAP3 SWAP2 POP POP JUMP JUMPDEST PUSH0 PUSH1 0x20 DUP3 ADD SWAP1 POP SWAP2 SWAP1 POP JUMP JUMPDEST PUSH0 PUSH2 0xAD4 DUP3 PUSH2 0x966 JUMP JUMPDEST PUSH2 0xADE DUP2 DUP6 PUSH2 0x970 JUMP JUMPDEST SWAP4 POP DUP4 PUSH1 0x20 DUP3 MUL DUP6 ADD PUSH2 0xAF0 DUP6 PUSH2 0x980 JUMP JUMPDEST DUP1 PUSH0 JUMPDEST DUP6 DUP2 LT ISZERO PUSH2 0xB2B JUMPI DUP5 DUP5 SUB DUP10 MSTORE DUP2 MLOAD PUSH2 0xB0C DUP6 DUP3 PUSH2 0xAAB JUMP JUMPDEST SWAP5 POP PUSH2 0xB17 DUP4 PUSH2 0xABE JUMP JUMPDEST SWAP3 POP PUSH1 0x20 DUP11 ADD SWAP10 POP POP PUSH1 0x1 DUP2 ADD SWAP1 POP PUSH2 0xAF3 JUMP JUMPDEST POP DUP3 SWAP8 POP DUP8 SWAP6 POP POP POP POP POP POP SWAP3 SWAP2 POP POP JUMP JUMPDEST PUSH0 PUSH1 0x20 DUP3 ADD SWAP1 POP DUP2 DUP2 SUB PUSH0 DUP4 ADD MSTORE PUSH2 0xB55 DUP2 DUP5 PUSH2 0xACA JUMP JUMPDEST SWAP1 POP SWAP3 SWAP2 POP POP JUMP JUMPDEST PUSH0 PUSH1 0x40 MLOAD SWAP1 POP SWAP1 JUMP JUMPDEST PUSH0 DUP1 REVERT JUMPDEST PUSH0 DUP1 REVERT JUMPDEST PUSH0 DUP1 REVERT JUMPDEST PUSH0 DUP1 REVERT JUMPDEST PUSH0 PUSH1 0x1F NOT PUSH1 0x1F DUP4 ADD AND SWAP1 POP SWAP2 SWAP1 POP JUMP JUMPDEST PUSH32 0x4E487B7100000000000000000000000000000000000000000000000000000000 PUSH0 MSTORE PUSH1 0x41 PUSH1 0x4 MSTORE PUSH1 0x24 PUSH0 REVERT JUMPDEST PUSH2 0xBBC DUP3 PUSH2 0xB76 JUMP JUMPDEST DUP2 ADD DUP2 DUP2 LT PUSH8 0xFFFFFFFFFFFFFFFF DUP3 GT OR ISZERO PUSH2 0xBDB JUMPI PUSH2 0xBDA PUSH2 0xB86 JUMP JUMPDEST JUMPDEST DUP1 PUSH1 0x40 MSTORE POP POP POP JUMP JUMPDEST PUSH0 PUSH2 0xBED PUSH2 0xB5D JUMP JUMPDEST SWAP1 POP PUSH2 0xBF9 DUP3 DUP3 PUSH2 0xBB3 JUMP JUMPDEST SWAP2 SWAP1 POP JUMP JUMPDEST PUSH0 PUSH8 0xFFFFFFFFFFFFFFFF DUP3 GT ISZERO PUSH2 0xC18 JUMPI PUSH2 0xC17 PUSH2 0xB86 JUMP JUMPDEST JUMPDEST PUSH2 0xC21 DUP3 PUSH2 0xB76 JUMP JUMPDEST SWAP1 POP PUSH1 0x20 DUP2 ADD SWAP1 POP SWAP2 SWAP1 POP JUMP JUMPDEST DUP3 DUP2 DUP4 CALLDATACOPY PUSH0 DUP4 DUP4 ADD MSTORE POP POP POP JUMP JUMPDEST PUSH0 PUSH2 0xC4E PUSH2 0xC49 DUP5 PUSH2 0xBFE JUMP JUMPDEST PUSH2 0xBE4 JUMP JUMPDEST SWAP1 POP DUP3 DUP2 MSTORE PUSH1 0x20 DUP2 ADD DUP5 DUP5 DUP5 ADD GT ISZERO PUSH2 0xC6A JUMPI PUSH2 0xC69 PUSH2 0xB72 JUMP JUMPDEST JUMPDEST PUSH2 0xC75 DUP5 DUP3 DUP6 PUSH2 0xC2E JUMP JUMPDEST POP SWAP4 SWAP3 POP POP POP JUMP JUMPDEST PUSH0 DUP3 PUSH1 0x1F DUP4 ADD SLT PUSH2 0xC91 JUMPI PUSH2 0xC90 PUSH2 0xB6E JUMP JUMPDEST JUMPDEST DUP2 CALLDATALOAD PUSH2 0xCA1 DUP5 DUP3 PUSH1 0x20 DUP7 ADD PUSH2 0xC3C JUMP JUMPDEST SWAP2 POP POP SWAP3 SWAP2 POP POP JUMP JUMPDEST PUSH0 PUSH1 0x20 DUP3 DUP5 SUB SLT ISZERO PUSH2 0xCBF JUMPI PUSH2 0xCBE PUSH2 0xB66 JUMP JUMPDEST JUMPDEST PUSH0 DUP3 ADD CALLDATALOAD PUSH8 0xFFFFFFFFFFFFFFFF DUP2 GT ISZERO PUSH2 0xCDC JUMPI PUSH2 0xCDB PUSH2 0xB6A JUMP JUMPDEST JUMPDEST PUSH2 0xCE8 DUP5 DUP3 DUP6 ADD PUSH2 0xC7D JUMP JUMPDEST SWAP2 POP POP SWAP3 SWAP2 POP POP JUMP JUMPDEST PUSH2 0xCFA DUP2 PUSH2 0x9B8 JUMP JUMPDEST DUP3 MSTORE POP POP JUMP JUMPDEST PUSH0 PUSH1 0x20 DUP3 ADD SWAP1 POP PUSH2 0xD13 PUSH0 DUP4 ADD DUP5 PUSH2 0xCF1 JUMP JUMPDEST SWAP3 SWAP2 POP POP JUMP JUMPDEST PUSH2 0xD22 DUP2 PUSH2 0x8A7 JUMP JUMPDEST DUP2 EQ PUSH2 0xD2C JUMPI PUSH0 DUP1 REVERT JUMPDEST POP JUMP JUMPDEST PUSH0 DUP2 CALLDATALOAD SWAP1 POP PUSH2 0xD3D DUP2 PUSH2 0xD19 JUMP JUMPDEST SWAP3 SWAP2 POP POP JUMP JUMPDEST PUSH0 PUSH1 0x20 DUP3 DUP5 SUB SLT ISZERO PUSH2 0xD58 JUMPI PUSH2 0xD57 PUSH2 0xB66 JUMP JUMPDEST JUMPDEST PUSH0 PUSH2 0xD65 DUP5 DUP3 DUP6 ADD PUSH2 0xD2F JUMP JUMPDEST SWAP2 POP POP SWAP3 SWAP2 POP POP JUMP JUMPDEST PUSH0 DUP3 DUP3 MSTORE PUSH1 0x20 DUP3 ADD SWAP1 POP SWAP3 SWAP2 POP POP JUMP JUMPDEST PUSH0 PUSH2 0xD88 DUP3 PUSH2 0x98F JUMP JUMPDEST PUSH2 0xD92 DUP2 DUP6 PUSH2 0xD6E JUMP JUMPDEST SWAP4 POP PUSH2 0xD9D DUP4 PUSH2 0x9A9 JUMP JUMPDEST DUP1 PUSH0 JUMPDEST DUP4 DUP2 LT ISZERO PUSH2 0xDCD JUMPI DUP2 MLOAD PUSH2 0xDB4 DUP9 DUP3 PUSH2 0x9F2 JUMP JUMPDEST SWAP8 POP PUSH2 0xDBF DUP4 PUSH2 0xA09 JUMP JUMPDEST SWAP3 POP POP PUSH1 0x1 DUP2 ADD SWAP1 POP PUSH2 0xDA0 JUMP JUMPDEST POP DUP6 SWAP4 POP POP POP POP SWAP3 SWAP2 POP POP JUMP JUMPDEST PUSH0 PUSH1 0x20 DUP3 ADD SWAP1 POP DUP2 DUP2 SUB PUSH0 DUP4 ADD MSTORE PUSH2 0xDF2 DUP2 DUP5 PUSH2 0xD7E JUMP JUMPDEST SWAP1 POP SWAP3 SWAP2 POP POP JUMP JUMPDEST PUSH2 0xE03 DUP2 PUSH2 0x9B8 JUMP JUMPDEST DUP2 EQ PUSH2 0xE0D JUMPI PUSH0 DUP1 REVERT JUMPDEST POP JUMP JUMPDEST PUSH0 DUP2 CALLDATALOAD SWAP1 POP PUSH2 0xE1E DUP2 PUSH2 0xDFA JUMP JUMPDEST SWAP3 SWAP2 POP POP JUMP JUMPDEST PUSH0 PUSH1 0x20 DUP3 DUP5 SUB SLT ISZERO PUSH2 0xE39 JUMPI PUSH2 0xE38 PUSH2 0xB66 JUMP JUMPDEST JUMPDEST PUSH0 PUSH2 0xE46 DUP5 DUP3 DUP6 ADD PUSH2 0xE10 JUMP JUMPDEST SWAP2 POP POP SWAP3 SWAP2 POP POP JUMP JUMPDEST PUSH2 0xE58 DUP2 PUSH2 0x8A7 JUMP JUMPDEST DUP3 MSTORE POP POP JUMP JUMPDEST PUSH0 PUSH1 0x20 DUP3 ADD SWAP1 POP PUSH2 0xE71 PUSH0 DUP4 ADD DUP5 PUSH2 0xE4F JUMP JUMPDEST SWAP3 SWAP2 POP POP JUMP JUMPDEST PUSH32 0x4E487B7100000000000000000000000000000000000000000000000000000000 PUSH0 MSTORE PUSH1 0x32 PUSH1 0x4 MSTORE PUSH1 0x24 PUSH0 REVERT JUMPDEST PUSH0 DUP2 MLOAD SWAP1 POP SWAP2 SWAP1 POP JUMP JUMPDEST PUSH0 DUP2 SWAP1 POP SWAP3 SWAP2 POP POP JUMP JUMPDEST DUP3 DUP2 DUP4 MCOPY PUSH0 DUP4 DUP4 ADD MSTORE POP POP POP JUMP JUMPDEST PUSH0 PUSH2 0xED0 DUP3 PUSH2 0xEA4 JUMP JUMPDEST PUSH2 0xEDA DUP2 DUP6 PUSH2 0xEAE JUMP JUMPDEST SWAP4 POP PUSH2 0xEEA DUP2 DUP6 PUSH1 0x20 DUP7 ADD PUSH2 0xEB8 JUMP JUMPDEST DUP1 DUP5 ADD SWAP2 POP POP SWAP3 SWAP2 POP POP JUMP JUMPDEST PUSH0 PUSH2 0xF01 DUP3 DUP5 PUSH2 0xEC6 JUMP JUMPDEST SWAP2 POP DUP2 SWAP1 POP SWAP3 SWAP2 POP POP JUMP JUMPDEST PUSH32 0x2E00000000000000000000000000000000000000000000000000000000000000 PUSH0 DUP3 ADD MSTORE POP JUMP JUMPDEST PUSH0 PUSH2 0xF40 PUSH1 0x1 DUP4 PUSH2 0xEAE JUMP JUMPDEST SWAP2 POP PUSH2 0xF4B DUP3 PUSH2 0xF0C JUMP JUMPDEST PUSH1 0x1 DUP3 ADD SWAP1 POP SWAP2 SWAP1 POP JUMP JUMPDEST PUSH0 PUSH2 0xF61 DUP3 DUP6 PUSH2 0xEC6 JUMP JUMPDEST SWAP2 POP PUSH2 0xF6C DUP3 PUSH2 0xF34 JUMP JUMPDEST SWAP2 POP PUSH2 0xF78 DUP3 DUP5 PUSH2 0xEC6 JUMP JUMPDEST SWAP2 POP DUP2 SWAP1 POP SWAP4 SWAP3 POP POP POP JUMP INVALID PREVRANDAO PUSH10 0x616D6F6E6453746F7261 PUSH8 0x652E6E616D657370 PUSH2 0x6365 0x2E PUSH3 0x797465 PUSH20 0x34546F416464726573734D61704469616D6F6E64 MSTORE8 PUSH21 0x6F726167652E6E616D6573706163652E6164647265 PUSH20 0x73546F46616365744D6170A26469706673582212 KECCAK256 LOG4 PUSH11 0xBEDA01C5BB41F445CF54C8 SWAP8 SMOD SELFBALANCE 0xD5 0xF9 PUSH19 0xDBDA3EB52391B800B5F4CF345E64736F6C6343 STOP ADDMOD BYTE STOP CALLER "
		},
		"gasEstimates": {
			"creation": {
				"codeDepositCost": "822200",
				"executionCost": "855",
				"totalCost": "823055"
			},
			"external": {
				"facetAddress(bytes4)": "infinite",
				"facetAddresses()": "infinite",
				"facetFunctionSelectors(address)": "infinite",
				"facets()": "infinite",
				"getSelector(string)": "infinite"
			}
		},
		"methodIdentifiers": {
			"facetAddress(bytes4)": "cdffacc6",
			"facetAddresses()": "52ef6b2c",
			"facetFunctionSelectors(address)": "adfca15e",
			"facets()": "7a0ed627",
			"getSelector(string)": "80a003ff"
		}
	},
	"abi": [
		{
			"inputs": [
				{
					"internalType": "address",
					"name": "key",
					"type": "address"
				}
			],
			"name": "AddressToFacetMapNonexistentKey",
			"type": "error"
		},
		{
			"inputs": [
				{
					"internalType": "bytes4",
					"name": "_functionSelector",
					"type": "bytes4"
				}
			],
			"name": "facetAddress",
			"outputs": [
				{
					"internalType": "address",
					"name": "facetAddress_",
					"type": "address"
				}
			],
			"stateMutability": "view",
			"type": "function"
		},
		{
			"inputs": [],
			"name": "facetAddresses",
			"outputs": [
				{
					"internalType": "address[]",
					"name": "facetAddresses_",
					"type": "address[]"
				}
			],
			"stateMutability": "view",
			"type": "function"
		},
		{
			"inputs": [
				{
					"internalType": "address",
					"name": "_facet",
					"type": "address"
				}
			],
			"name": "facetFunctionSelectors",
			"outputs": [
				{
					"internalType": "bytes4[]",
					"name": "facetFunctionSelectors_",
					"type": "bytes4[]"
				}
			],
			"stateMutability": "view",
			"type": "function"
		},
		{
			"inputs": [],
			"name": "facets",
			"outputs": [
				{
					"components": [
						{
							"internalType": "address",
							"name": "facetAddress",
							"type": "address"
						},
						{
							"internalType": "bytes4[]",
							"name": "functionSelectors",
							"type": "bytes4[]"
						}
					],
					"internalType": "struct IDiamondLoupe.Facet[]",
					"name": "facets_",
					"type": "tuple[]"
				}
			],
			"stateMutability": "view",
			"type": "function"
		},
		{
			"inputs": [
				{
					"internalType": "string",
					"name": "funcSign",
					"type": "string"
				}
			],
			"name": "getSelector",
			"outputs": [
				{
					"internalType": "bytes4",
					"name": "",
					"type": "bytes4"
				}
			],
			"stateMutability": "pure",
			"type": "function"
		}
	]
}