{
	"data": {
		"bytecode": {
			"linkReferences": {},
			"object": "6080604052348015600e575f80fd5b506123078061001c5f395ff3fe608060405234801561000f575f80fd5b5060043610610034575f3560e01c80631f931c1c1461003857806380a003ff14610054575b5f80fd5b610052600480360381019061004d91906117ce565b610084565b005b61006e60048036038101906100699190611997565b610240565b60405161007b9190611a18565b60405180910390f35b5f8585905090505f81036100c4576040517f7a351fa900000000000000000000000000000000000000000000000000000000815260040160405180910390fd5b5f5b818110156101ed57368787838181106100e2576100e1611a31565b5b90506020028101906100f49190611a6a565b90506100ff8161026f565b5f600281111561011257610111611a91565b5b8160200160208101906101259190611ae1565b600281111561013757610136611a91565b5b0361014a576101458161049b565b6101df565b6001600281111561015e5761015d611a91565b5b8160200160208101906101719190611ae1565b600281111561018357610182611a91565b5b03610196576101918161060b565b6101de565b6002808111156101a9576101a8611a91565b5b8160200160208101906101bc9190611ae1565b60028111156101ce576101cd611a91565b5b036101dd576101dc8161073a565b5b5b5b5080806001019150506100c6565b506101f9848484610863565b7f8faa70878671ccd212d20771b795c50af8fd3ff6cf27f4bde57e5d4de0aeb6738686868686604051610230959493929190611e64565b60405180910390a1505050505050565b5f816040516020016102529190611efd565b604051602081830303815290604052805190602001209050919050565b5f73ffffffffffffffffffffffffffffffffffffffff16815f0160208101906102989190611f13565b73ffffffffffffffffffffffffffffffffffffffff16036102e5576040517f6dc8921f00000000000000000000000000000000000000000000000000000000815260040160405180910390fd5b6103008160200160208101906102fb9190611ae1565b61096d565b610336576040517fd28ec94500000000000000000000000000000000000000000000000000000000815260040160405180910390fd5b5f8180604001906103479190611f3e565b905003610380576040517f4bd5ee3900000000000000000000000000000000000000000000000000000000815260040160405180910390fd5b5f5b8180604001906103929190611f3e565b9050811015610497575f60e01b7bffffffffffffffffffffffffffffffffffffffffffffffffffffffff19168280604001906103ce9190611f3e565b838181106103df576103de611a31565b5b90506020020160208101906103f49190611fa0565b7bffffffffffffffffffffffffffffffffffffffffffffffffffffffff19160361048a578180604001906104289190611f3e565b8281811061043957610438611a31565b5b905060200201602081019061044e9190611fa0565b6040517ffcb611a10000000000000000000000000000000000000000000000000000000081526004016104819190611a18565b60405180910390fd5b8080600101915050610382565b5050565b365f8280604001906104ad9190611f3e565b915091505f835f0160208101906104c49190611f13565b90505f5b838390508110156105ba575f8484838181106104e7576104e6611a31565b5b90506020020160208101906104fc9190611fa0565b90505f6105198261050b61099d565b6109e190919063ffffffff16565b90505f73ffffffffffffffffffffffffffffffffffffffff168173ffffffffffffffffffffffffffffffffffffffff161461058f578184826040517faa6047e100000000000000000000000000000000000000000000000000000000815260040161058693929190611fcb565b60405180910390fd5b6105ab828561059c61099d565b610a169092919063ffffffff16565b505080806001019150506104c8565b506106058383808060200260200160405190810160405280939291908181526020018383602002808284375f81840152601f19601f8201169050808301925050505050505082610a65565b50505050565b365f82806040019061061d9190611f3e565b915091505f835f0160208101906106349190611f13565b90505f5b83839050811015610733575f84848381811061065757610656611a31565b5b905060200201602081019061066c9190611fa0565b90505f6106898261067b61099d565b6109e190919063ffffffff16565b90505f73ffffffffffffffffffffffffffffffffffffffff168173ffffffffffffffffffffffffffffffffffffffff16036106fd5781846040517f269964350000000000000000000000000000000000000000000000000000000081526004016106f4929190612000565b60405180910390fd5b610719828561070a61099d565b610a169092919063ffffffff16565b610724828286610bcb565b50508080600101915050610638565b5050505050565b365f82806040019061074c9190611f3e565b915091505f5b82829050811015610802575f83838381811061077157610770611a31565b5b90506020020160208101906107869190611fa0565b90505f6107a38261079561099d565b6109e190919063ffffffff16565b90505f73ffffffffffffffffffffffffffffffffffffffff168173ffffffffffffffffffffffffffffffffffffffff16146107f3576107f2826107e461099d565b610c9290919063ffffffff16565b5b50508080600101915050610752565b5061085e8282808060200260200160405190810160405280939291908181526020018383602002808284375f81840152601f19601f82011690508083019250505050505050845f0160208101906108599190611f13565b610cc4565b505050565b5f73ffffffffffffffffffffffffffffffffffffffff168373ffffffffffffffffffffffffffffffffffffffff16141580156108a157505f82829050115b15610968575f808473ffffffffffffffffffffffffffffffffffffffff1684846040516108cf929190612055565b5f60405180830381855af49150503d805f8114610907576040519150601f19603f3d011682016040523d82523d5f602084013e61090c565b606091505b50915091508473ffffffffffffffffffffffffffffffffffffffff167fa102d0981040ababa34b128c580c150b84b87887fab658fa12daee528feefa4e8585858560405161095d94939291906120c9565b60405180910390a250505b505050565b5f60028081111561098157610980611a91565b5b82600281111561099457610993611a91565b5b11159050919050565b5f6109dc6040518060400160405280601e81526020017f656970323533352e7369674661636574416464726573734d617070696e670000815250610de0565b905090565b5f6109ec8383610e17565b5f015f9054906101000a900473ffffffffffffffffffffffffffffffffffffffff16905092915050565b80610a218484610e17565b5f015f6101000a81548173ffffffffffffffffffffffffffffffffffffffff021916908373ffffffffffffffffffffffffffffffffffffffff160217905550505050565b5f610a6e610e64565b90505f610a848383610ea890919063ffffffff16565b90505f5b8451811015610bc457610b4e858281518110610aa757610aa6611a31565b5b6020026020010151835f01805480602002602001604051908101604052809291908181526020018280548015610b3b57602002820191905f5260205f20905f905b82829054906101000a900460e01b7bffffffffffffffffffffffffffffffffffffffffffffffffffffffff191681526020019060040190602082600301049283019260010382029150808411610ae85790505b5050505050610f5c90919063ffffffff16565b610bb757815f01858281518110610b6857610b67611a31565b5b6020026020010151908060018154018082558091505060019003905f5260205f2090600891828204019190066004029091909190916101000a81548163ffffffff021916908360e01c02179055505b8080600101915050610a88565b5050505050565b5f600167ffffffffffffffff811115610be757610be6611873565b5b604051908082528060200260200182016040528015610c155781602001602082028036833780820191505090505b50905083815f81518110610c2c57610c2b611a31565b5b60200260200101907bffffffffffffffffffffffffffffffffffffffffffffffffffffffff191690817bffffffffffffffffffffffffffffffffffffffffffffffffffffffff191681525050610c828184610cc4565b610c8c8183610a65565b50505050565b610c9c8282610e17565b5f015f6101000a81549073ffffffffffffffffffffffffffffffffffffffff02191690555050565b5f610ccd610e64565b9050610ce28282610fff90919063ffffffff16565b15610ddb575f610cfb838361101d90919063ffffffff16565b9050610da084825f01805480602002602001604051908101604052809291908181526020018280548015610d8d57602002820191905f5260205f20905f905b82829054906101000a900460e01b7bffffffffffffffffffffffffffffffffffffffffffffffffffffffff191681526020019060040190602082600301049283019260010382029150808411610d3a5790505b50505050506110b090919063ffffffff16565b815f019080519060200190610db69291906115c3565b505f815f018054905003610dd957610dd7838361129990919063ffffffff16565b505b505b505050565b5f80610e0c610e076040518060600160405280602b815260200161227d602b913985611307565b611333565b905080915050919050565b5f80827bffffffffffffffffffffffffffffffffffffffffffffffffffffffff191690505f610e4f828661134f90919063ffffffff16565b9050610e5a81611363565b9250505092915050565b5f610ea36040518060400160405280601981526020017f656970323533352e61646472657373546f46616365744d61700000000000000081525061136c565b905090565b5f610eb38383610fff565b15610efe57826002015f8373ffffffffffffffffffffffffffffffffffffffff1673ffffffffffffffffffffffffffffffffffffffff1681526020019081526020015f209050610f56565b610f1382845f016113b090919063ffffffff16565b50826002015f8373ffffffffffffffffffffffffffffffffffffffff1673ffffffffffffffffffffffffffffffffffffffff1681526020019081526020015f2090505b92915050565b5f80835190505f8103610f72575f915050610ff9565b5f5b81811015610ff357837bffffffffffffffffffffffffffffffffffffffffffffffffffffffff1916858281518110610faf57610fae611a31565b5b60200260200101517bffffffffffffffffffffffffffffffffffffffffffffffffffffffff191603610fe657600192505050610ff9565b8080600101915050610f74565b505f9150505b92915050565b5f61101582845f016113dd90919063ffffffff16565b905092915050565b5f6110288383610fff565b61106957816040517f702c0e52000000000000000000000000000000000000000000000000000000008152600401611060919061210e565b60405180910390fd5b826002015f8373ffffffffffffffffffffffffffffffffffffffff1673ffffffffffffffffffffffffffffffffffffffff1681526020019081526020015f20905092915050565b60605f835190505f835190505f8214806110c957505f81145b156110d8578492505050611293565b5f808367ffffffffffffffff8111156110f4576110f3611873565b5b6040519080825280602002602001820160405280156111225781602001602082028036833780820191505090505b5090505f5b84811015611191576111538789838151811061114657611145611a31565b5b6020026020010151610f5c565b61118457808284806111649061215d565b95508151811061117757611176611a31565b5b6020026020010181815250505b8080600101915050611127565b505f8267ffffffffffffffff8111156111ad576111ac611873565b5b6040519080825280602002602001820160405280156111db5781602001602082028036833780820191505090505b5090505f5b8381101561128957888382815181106111fc576111fb611a31565b5b60200260200101518151811061121557611214611a31565b5b60200260200101518282815181106112305761122f611a31565b5b60200260200101907bffffffffffffffffffffffffffffffffffffffffffffffffffffffff191690817bffffffffffffffffffffffffffffffffffffffffffffffffffffffff19168152505080806001019150506111e0565b5080955050505050505b92915050565b5f826002015f8373ffffffffffffffffffffffffffffffffffffffff1673ffffffffffffffffffffffffffffffffffffffff1681526020019081526020015f205f8082015f6112e8919061166d565b50506112ff82845f0161140a90919063ffffffff16565b905092915050565b6060828260405160200161131c9291906121ee565b604051602081830303815290604052905092915050565b5f600182516020840120035f5260ff1960205f20169050919050565b5f815f528260205260405f20905092915050565b5f819050919050565b5f806113906040518060600160405280602a81526020016122a8602a913984611307565b90505f61139c82611333565b90506113a781611437565b92505050919050565b5f6113d5835f018373ffffffffffffffffffffffffffffffffffffffff165f1b611440565b905092915050565b5f611402835f018373ffffffffffffffffffffffffffffffffffffffff165f1b6114a7565b905092915050565b5f61142f835f018373ffffffffffffffffffffffffffffffffffffffff165f1b6114c7565b905092915050565b5f819050919050565b5f61144b83836114a7565b61149d57825f0182908060018154018082558091505060019003905f5260205f20015f9091909190915055825f0180549050836001015f8481526020019081526020015f2081905550600190506114a1565b5f90505b92915050565b5f80836001015f8481526020019081526020015f20541415905092915050565b5f80836001015f8481526020019081526020015f205490505f81146115b8575f6001826114f4919061221c565b90505f6001865f018054905061150a919061221c565b9050808214611570575f865f01828154811061152957611528611a31565b5b905f5260205f200154905080875f01848154811061154a57611549611a31565b5b905f5260205f20018190555083876001015f8381526020019081526020015f2081905550505b855f018054806115835761158261224f565b5b600190038181905f5260205f20015f90559055856001015f8681526020019081526020015f205f9055600193505050506115bd565b5f9150505b92915050565b828054828255905f5260205f209060070160089004810192821561165c579160200282015f5b8382111561162a57835183826101000a81548163ffffffff021916908360e01c021790555092602001926004016020816003010492830192600103026115e9565b801561165a5782816101000a81549063ffffffff021916905560040160208160030104928301926001030261162a565b505b5090506116699190611692565b5090565b5080545f825560070160089004905f5260205f209081019061168f9190611692565b50565b5b808211156116a9575f815f905550600101611693565b5090565b5f604051905090565b5f80fd5b5f80fd5b5f80fd5b5f80fd5b5f80fd5b5f8083601f8401126116df576116de6116be565b5b8235905067ffffffffffffffff8111156116fc576116fb6116c2565b5b602083019150836020820283011115611718576117176116c6565b5b9250929050565b5f73ffffffffffffffffffffffffffffffffffffffff82169050919050565b5f6117488261171f565b9050919050565b6117588161173e565b8114611762575f80fd5b50565b5f813590506117738161174f565b92915050565b5f8083601f84011261178e5761178d6116be565b5b8235905067ffffffffffffffff8111156117ab576117aa6116c2565b5b6020830191508360018202830111156117c7576117c66116c6565b5b9250929050565b5f805f805f606086880312156117e7576117e66116b6565b5b5f86013567ffffffffffffffff811115611804576118036116ba565b5b611810888289016116ca565b9550955050602061182388828901611765565b935050604086013567ffffffffffffffff811115611844576118436116ba565b5b61185088828901611779565b92509250509295509295909350565b5f80fd5b5f601f19601f8301169050919050565b7f4e487b71000000000000000000000000000000000000000000000000000000005f52604160045260245ffd5b6118a982611863565b810181811067ffffffffffffffff821117156118c8576118c7611873565b5b80604052505050565b5f6118da6116ad565b90506118e682826118a0565b919050565b5f67ffffffffffffffff82111561190557611904611873565b5b61190e82611863565b9050602081019050919050565b828183375f83830152505050565b5f61193b611936846118eb565b6118d1565b9050828152602081018484840111156119575761195661185f565b5b61196284828561191b565b509392505050565b5f82601f83011261197e5761197d6116be565b5b813561198e848260208601611929565b91505092915050565b5f602082840312156119ac576119ab6116b6565b5b5f82013567ffffffffffffffff8111156119c9576119c86116ba565b5b6119d58482850161196a565b91505092915050565b5f7fffffffff0000000000000000000000000000000000000000000000000000000082169050919050565b611a12816119de565b82525050565b5f602082019050611a2b5f830184611a09565b92915050565b7f4e487b71000000000000000000000000000000000000000000000000000000005f52603260045260245ffd5b5f80fd5b5f80fd5b5f80fd5b5f82356001606003833603038112611a8557611a84611a5e565b5b80830191505092915050565b7f4e487b71000000000000000000000000000000000000000000000000000000005f52602160045260245ffd5b60038110611aca575f80fd5b50565b5f81359050611adb81611abe565b92915050565b5f60208284031215611af657611af56116b6565b5b5f611b0384828501611acd565b91505092915050565b5f82825260208201905092915050565b5f819050919050565b5f611b336020840184611765565b905092915050565b611b448161173e565b82525050565b5f611b586020840184611acd565b905092915050565b60038110611b7157611b70611a91565b5b50565b5f819050611b8182611b60565b919050565b5f611b9082611b74565b9050919050565b611ba081611b86565b82525050565b5f80fd5b5f80fd5b5f80fd5b5f8083356001602003843603038112611bce57611bcd611bae565b5b83810192508235915060208301925067ffffffffffffffff821115611bf657611bf5611ba6565b5b602082023603831315611c0c57611c0b611baa565b5b509250929050565b5f82825260208201905092915050565b5f819050919050565b611c36816119de565b82525050565b5f611c478383611c2d565b60208301905092915050565b611c5c816119de565b8114611c66575f80fd5b50565b5f81359050611c7781611c53565b92915050565b5f611c8b6020840184611c69565b905092915050565b5f602082019050919050565b5f611caa8385611c14565b9350611cb582611c24565b805f5b85811015611ced57611cca8284611c7d565b611cd48882611c3c565b9750611cdf83611c93565b925050600181019050611cb8565b5085925050509392505050565b5f60608301611d0b5f840184611b25565b611d175f860182611b3b565b50611d256020840184611b4a565b611d326020860182611b97565b50611d406040840184611bb2565b8583036040870152611d53838284611c9f565b925050508091505092915050565b5f611d6c8383611cfa565b905092915050565b5f82356001606003833603038112611d8f57611d8e611bae565b5b82810191505092915050565b5f602082019050919050565b5f611db28385611b0c565b935083602084028501611dc484611b1c565b805f5b87811015611e07578484038952611dde8284611d74565b611de88582611d61565b9450611df383611d9b565b925060208a01995050600181019050611dc7565b50829750879450505050509392505050565b611e228161173e565b82525050565b5f82825260208201905092915050565b5f611e438385611e28565b9350611e5083858461191b565b611e5983611863565b840190509392505050565b5f6060820190508181035f830152611e7d818789611da7565b9050611e8c6020830186611e19565b8181036040830152611e9f818486611e38565b90509695505050505050565b5f81519050919050565b5f81905092915050565b8281835e5f83830152505050565b5f611ed782611eab565b611ee18185611eb5565b9350611ef1818560208601611ebf565b80840191505092915050565b5f611f088284611ecd565b915081905092915050565b5f60208284031215611f2857611f276116b6565b5b5f611f3584828501611765565b91505092915050565b5f8083356001602003843603038112611f5a57611f59611a5e565b5b80840192508235915067ffffffffffffffff821115611f7c57611f7b611a62565b5b602083019250602082023603831315611f9857611f97611a66565b5b509250929050565b5f60208284031215611fb557611fb46116b6565b5b5f611fc284828501611c69565b91505092915050565b5f606082019050611fde5f830186611a09565b611feb6020830185611e19565b611ff86040830184611e19565b949350505050565b5f6040820190506120135f830185611a09565b6120206020830184611e19565b9392505050565b5f81905092915050565b5f61203c8385612027565b935061204983858461191b565b82840190509392505050565b5f612061828486612031565b91508190509392505050565b5f8115159050919050565b6120818161206d565b82525050565b5f81519050919050565b5f61209b82612087565b6120a58185611e28565b93506120b5818560208601611ebf565b6120be81611863565b840191505092915050565b5f6060820190508181035f8301526120e2818688611e38565b90506120f16020830185612078565b81810360408301526121038184612091565b905095945050505050565b5f6020820190506121215f830184611e19565b92915050565b7f4e487b71000000000000000000000000000000000000000000000000000000005f52601160045260245ffd5b5f819050919050565b5f61216782612154565b91507fffffffffffffffffffffffffffffffffffffffffffffffffffffffffffffffff820361219957612198612127565b5b600182019050919050565b7f2e000000000000000000000000000000000000000000000000000000000000005f82015250565b5f6121d8600183611eb5565b91506121e3826121a4565b600182019050919050565b5f6121f98285611ecd565b9150612204826121cc565b91506122108284611ecd565b91508190509392505050565b5f61222682612154565b915061223183612154565b925082820390508181111561224957612248612127565b5b92915050565b7f4e487b71000000000000000000000000000000000000000000000000000000005f52603160045260245ffdfe4469616d6f6e6453746f726167652e6e616d6573706163652e627974657334546f416464726573734d61704469616d6f6e6453746f726167652e6e616d6573706163652e61646472657373546f46616365744d6170a2646970667358221220419a766e1092c5c7112f191a1fb387ac729df51628aba24ef8cdc6c60687c13e64736f6c634300081a0033",
			"opcodes": "PUSH1 0x80 PUSH1 0x40 MSTORE CALLVALUE DUP1 ISZERO PUSH1 0xE JUMPI PUSH0 DUP1 REVERT JUMPDEST POP PUSH2 0x2307 DUP1 PUSH2 0x1C PUSH0 CODECOPY PUSH0 RETURN INVALID PUSH1 0x80 PUSH1 0x40 MSTORE CALLVALUE DUP1 ISZERO PUSH2 0xF JUMPI PUSH0 DUP1 REVERT JUMPDEST POP PUSH1 0x4 CALLDATASIZE LT PUSH2 0x34 JUMPI PUSH0 CALLDATALOAD PUSH1 0xE0 SHR DUP1 PUSH4 0x1F931C1C EQ PUSH2 0x38 JUMPI DUP1 PUSH4 0x80A003FF EQ PUSH2 0x54 JUMPI JUMPDEST PUSH0 DUP1 REVERT JUMPDEST PUSH2 0x52 PUSH1 0x4 DUP1 CALLDATASIZE SUB DUP2 ADD SWAP1 PUSH2 0x4D SWAP2 SWAP1 PUSH2 0x17CE JUMP JUMPDEST PUSH2 0x84 JUMP JUMPDEST STOP JUMPDEST PUSH2 0x6E PUSH1 0x4 DUP1 CALLDATASIZE SUB DUP2 ADD SWAP1 PUSH2 0x69 SWAP2 SWAP1 PUSH2 0x1997 JUMP JUMPDEST PUSH2 0x240 JUMP JUMPDEST PUSH1 0x40 MLOAD PUSH2 0x7B SWAP2 SWAP1 PUSH2 0x1A18 JUMP JUMPDEST PUSH1 0x40 MLOAD DUP1 SWAP2 SUB SWAP1 RETURN JUMPDEST PUSH0 DUP6 DUP6 SWAP1 POP SWAP1 POP PUSH0 DUP2 SUB PUSH2 0xC4 JUMPI PUSH1 0x40 MLOAD PUSH32 0x7A351FA900000000000000000000000000000000000000000000000000000000 DUP2 MSTORE PUSH1 0x4 ADD PUSH1 0x40 MLOAD DUP1 SWAP2 SUB SWAP1 REVERT JUMPDEST PUSH0 JUMPDEST DUP2 DUP2 LT ISZERO PUSH2 0x1ED JUMPI CALLDATASIZE DUP8 DUP8 DUP4 DUP2 DUP2 LT PUSH2 0xE2 JUMPI PUSH2 0xE1 PUSH2 0x1A31 JUMP JUMPDEST JUMPDEST SWAP1 POP PUSH1 0x20 MUL DUP2 ADD SWAP1 PUSH2 0xF4 SWAP2 SWAP1 PUSH2 0x1A6A JUMP JUMPDEST SWAP1 POP PUSH2 0xFF DUP2 PUSH2 0x26F JUMP JUMPDEST PUSH0 PUSH1 0x2 DUP2 GT ISZERO PUSH2 0x112 JUMPI PUSH2 0x111 PUSH2 0x1A91 JUMP JUMPDEST JUMPDEST DUP2 PUSH1 0x20 ADD PUSH1 0x20 DUP2 ADD SWAP1 PUSH2 0x125 SWAP2 SWAP1 PUSH2 0x1AE1 JUMP JUMPDEST PUSH1 0x2 DUP2 GT ISZERO PUSH2 0x137 JUMPI PUSH2 0x136 PUSH2 0x1A91 JUMP JUMPDEST JUMPDEST SUB PUSH2 0x14A JUMPI PUSH2 0x145 DUP2 PUSH2 0x49B JUMP JUMPDEST PUSH2 0x1DF JUMP JUMPDEST PUSH1 0x1 PUSH1 0x2 DUP2 GT ISZERO PUSH2 0x15E JUMPI PUSH2 0x15D PUSH2 0x1A91 JUMP JUMPDEST JUMPDEST DUP2 PUSH1 0x20 ADD PUSH1 0x20 DUP2 ADD SWAP1 PUSH2 0x171 SWAP2 SWAP1 PUSH2 0x1AE1 JUMP JUMPDEST PUSH1 0x2 DUP2 GT ISZERO PUSH2 0x183 JUMPI PUSH2 0x182 PUSH2 0x1A91 JUMP JUMPDEST JUMPDEST SUB PUSH2 0x196 JUMPI PUSH2 0x191 DUP2 PUSH2 0x60B JUMP JUMPDEST PUSH2 0x1DE JUMP JUMPDEST PUSH1 0x2 DUP1 DUP2 GT ISZERO PUSH2 0x1A9 JUMPI PUSH2 0x1A8 PUSH2 0x1A91 JUMP JUMPDEST JUMPDEST DUP2 PUSH1 0x20 ADD PUSH1 0x20 DUP2 ADD SWAP1 PUSH2 0x1BC SWAP2 SWAP1 PUSH2 0x1AE1 JUMP JUMPDEST PUSH1 0x2 DUP2 GT ISZERO PUSH2 0x1CE JUMPI PUSH2 0x1CD PUSH2 0x1A91 JUMP JUMPDEST JUMPDEST SUB PUSH2 0x1DD JUMPI PUSH2 0x1DC DUP2 PUSH2 0x73A JUMP JUMPDEST JUMPDEST JUMPDEST JUMPDEST POP DUP1 DUP1 PUSH1 0x1 ADD SWAP2 POP POP PUSH2 0xC6 JUMP JUMPDEST POP PUSH2 0x1F9 DUP5 DUP5 DUP5 PUSH2 0x863 JUMP JUMPDEST PUSH32 0x8FAA70878671CCD212D20771B795C50AF8FD3FF6CF27F4BDE57E5D4DE0AEB673 DUP7 DUP7 DUP7 DUP7 DUP7 PUSH1 0x40 MLOAD PUSH2 0x230 SWAP6 SWAP5 SWAP4 SWAP3 SWAP2 SWAP1 PUSH2 0x1E64 JUMP JUMPDEST PUSH1 0x40 MLOAD DUP1 SWAP2 SUB SWAP1 LOG1 POP POP POP POP POP POP JUMP JUMPDEST PUSH0 DUP2 PUSH1 0x40 MLOAD PUSH1 0x20 ADD PUSH2 0x252 SWAP2 SWAP1 PUSH2 0x1EFD JUMP JUMPDEST PUSH1 0x40 MLOAD PUSH1 0x20 DUP2 DUP4 SUB SUB DUP2 MSTORE SWAP1 PUSH1 0x40 MSTORE DUP1 MLOAD SWAP1 PUSH1 0x20 ADD KECCAK256 SWAP1 POP SWAP2 SWAP1 POP JUMP JUMPDEST PUSH0 PUSH20 0xFFFFFFFFFFFFFFFFFFFFFFFFFFFFFFFFFFFFFFFF AND DUP2 PUSH0 ADD PUSH1 0x20 DUP2 ADD SWAP1 PUSH2 0x298 SWAP2 SWAP1 PUSH2 0x1F13 JUMP JUMPDEST PUSH20 0xFFFFFFFFFFFFFFFFFFFFFFFFFFFFFFFFFFFFFFFF AND SUB PUSH2 0x2E5 JUMPI PUSH1 0x40 MLOAD PUSH32 0x6DC8921F00000000000000000000000000000000000000000000000000000000 DUP2 MSTORE PUSH1 0x4 ADD PUSH1 0x40 MLOAD DUP1 SWAP2 SUB SWAP1 REVERT JUMPDEST PUSH2 0x300 DUP2 PUSH1 0x20 ADD PUSH1 0x20 DUP2 ADD SWAP1 PUSH2 0x2FB SWAP2 SWAP1 PUSH2 0x1AE1 JUMP JUMPDEST PUSH2 0x96D JUMP JUMPDEST PUSH2 0x336 JUMPI PUSH1 0x40 MLOAD PUSH32 0xD28EC94500000000000000000000000000000000000000000000000000000000 DUP2 MSTORE PUSH1 0x4 ADD PUSH1 0x40 MLOAD DUP1 SWAP2 SUB SWAP1 REVERT JUMPDEST PUSH0 DUP2 DUP1 PUSH1 0x40 ADD SWAP1 PUSH2 0x347 SWAP2 SWAP1 PUSH2 0x1F3E JUMP JUMPDEST SWAP1 POP SUB PUSH2 0x380 JUMPI PUSH1 0x40 MLOAD PUSH32 0x4BD5EE3900000000000000000000000000000000000000000000000000000000 DUP2 MSTORE PUSH1 0x4 ADD PUSH1 0x40 MLOAD DUP1 SWAP2 SUB SWAP1 REVERT JUMPDEST PUSH0 JUMPDEST DUP2 DUP1 PUSH1 0x40 ADD SWAP1 PUSH2 0x392 SWAP2 SWAP1 PUSH2 0x1F3E JUMP JUMPDEST SWAP1 POP DUP2 LT ISZERO PUSH2 0x497 JUMPI PUSH0 PUSH1 0xE0 SHL PUSH28 0xFFFFFFFFFFFFFFFFFFFFFFFFFFFFFFFFFFFFFFFFFFFFFFFFFFFFFFFF NOT AND DUP3 DUP1 PUSH1 0x40 ADD SWAP1 PUSH2 0x3CE SWAP2 SWAP1 PUSH2 0x1F3E JUMP JUMPDEST DUP4 DUP2 DUP2 LT PUSH2 0x3DF JUMPI PUSH2 0x3DE PUSH2 0x1A31 JUMP JUMPDEST JUMPDEST SWAP1 POP PUSH1 0x20 MUL ADD PUSH1 0x20 DUP2 ADD SWAP1 PUSH2 0x3F4 SWAP2 SWAP1 PUSH2 0x1FA0 JUMP JUMPDEST PUSH28 0xFFFFFFFFFFFFFFFFFFFFFFFFFFFFFFFFFFFFFFFFFFFFFFFFFFFFFFFF NOT AND SUB PUSH2 0x48A JUMPI DUP2 DUP1 PUSH1 0x40 ADD SWAP1 PUSH2 0x428 SWAP2 SWAP1 PUSH2 0x1F3E JUMP JUMPDEST DUP3 DUP2 DUP2 LT PUSH2 0x439 JUMPI PUSH2 0x438 PUSH2 0x1A31 JUMP JUMPDEST JUMPDEST SWAP1 POP PUSH1 0x20 MUL ADD PUSH1 0x20 DUP2 ADD SWAP1 PUSH2 0x44E SWAP2 SWAP1 PUSH2 0x1FA0 JUMP JUMPDEST PUSH1 0x40 MLOAD PUSH32 0xFCB611A100000000000000000000000000000000000000000000000000000000 DUP2 MSTORE PUSH1 0x4 ADD PUSH2 0x481 SWAP2 SWAP1 PUSH2 0x1A18 JUMP JUMPDEST PUSH1 0x40 MLOAD DUP1 SWAP2 SUB SWAP1 REVERT JUMPDEST DUP1 DUP1 PUSH1 0x1 ADD SWAP2 POP POP PUSH2 0x382 JUMP JUMPDEST POP POP JUMP JUMPDEST CALLDATASIZE PUSH0 DUP3 DUP1 PUSH1 0x40 ADD SWAP1 PUSH2 0x4AD SWAP2 SWAP1 PUSH2 0x1F3E JUMP JUMPDEST SWAP2 POP SWAP2 POP PUSH0 DUP4 PUSH0 ADD PUSH1 0x20 DUP2 ADD SWAP1 PUSH2 0x4C4 SWAP2 SWAP1 PUSH2 0x1F13 JUMP JUMPDEST SWAP1 POP PUSH0 JUMPDEST DUP4 DUP4 SWAP1 POP DUP2 LT ISZERO PUSH2 0x5BA JUMPI PUSH0 DUP5 DUP5 DUP4 DUP2 DUP2 LT PUSH2 0x4E7 JUMPI PUSH2 0x4E6 PUSH2 0x1A31 JUMP JUMPDEST JUMPDEST SWAP1 POP PUSH1 0x20 MUL ADD PUSH1 0x20 DUP2 ADD SWAP1 PUSH2 0x4FC SWAP2 SWAP1 PUSH2 0x1FA0 JUMP JUMPDEST SWAP1 POP PUSH0 PUSH2 0x519 DUP3 PUSH2 0x50B PUSH2 0x99D JUMP JUMPDEST PUSH2 0x9E1 SWAP1 SWAP2 SWAP1 PUSH4 0xFFFFFFFF AND JUMP JUMPDEST SWAP1 POP PUSH0 PUSH20 0xFFFFFFFFFFFFFFFFFFFFFFFFFFFFFFFFFFFFFFFF AND DUP2 PUSH20 0xFFFFFFFFFFFFFFFFFFFFFFFFFFFFFFFFFFFFFFFF AND EQ PUSH2 0x58F JUMPI DUP2 DUP5 DUP3 PUSH1 0x40 MLOAD PUSH32 0xAA6047E100000000000000000000000000000000000000000000000000000000 DUP2 MSTORE PUSH1 0x4 ADD PUSH2 0x586 SWAP4 SWAP3 SWAP2 SWAP1 PUSH2 0x1FCB JUMP JUMPDEST PUSH1 0x40 MLOAD DUP1 SWAP2 SUB SWAP1 REVERT JUMPDEST PUSH2 0x5AB DUP3 DUP6 PUSH2 0x59C PUSH2 0x99D JUMP JUMPDEST PUSH2 0xA16 SWAP1 SWAP3 SWAP2 SWAP1 PUSH4 0xFFFFFFFF AND JUMP JUMPDEST POP POP DUP1 DUP1 PUSH1 0x1 ADD SWAP2 POP POP PUSH2 0x4C8 JUMP JUMPDEST POP PUSH2 0x605 DUP4 DUP4 DUP1 DUP1 PUSH1 0x20 MUL PUSH1 0x20 ADD PUSH1 0x40 MLOAD SWAP1 DUP2 ADD PUSH1 0x40 MSTORE DUP1 SWAP4 SWAP3 SWAP2 SWAP1 DUP2 DUP2 MSTORE PUSH1 0x20 ADD DUP4 DUP4 PUSH1 0x20 MUL DUP1 DUP3 DUP5 CALLDATACOPY PUSH0 DUP2 DUP5 ADD MSTORE PUSH1 0x1F NOT PUSH1 0x1F DUP3 ADD AND SWAP1 POP DUP1 DUP4 ADD SWAP3 POP POP POP POP POP POP POP DUP3 PUSH2 0xA65 JUMP JUMPDEST POP POP POP POP JUMP JUMPDEST CALLDATASIZE PUSH0 DUP3 DUP1 PUSH1 0x40 ADD SWAP1 PUSH2 0x61D SWAP2 SWAP1 PUSH2 0x1F3E JUMP JUMPDEST SWAP2 POP SWAP2 POP PUSH0 DUP4 PUSH0 ADD PUSH1 0x20 DUP2 ADD SWAP1 PUSH2 0x634 SWAP2 SWAP1 PUSH2 0x1F13 JUMP JUMPDEST SWAP1 POP PUSH0 JUMPDEST DUP4 DUP4 SWAP1 POP DUP2 LT ISZERO PUSH2 0x733 JUMPI PUSH0 DUP5 DUP5 DUP4 DUP2 DUP2 LT PUSH2 0x657 JUMPI PUSH2 0x656 PUSH2 0x1A31 JUMP JUMPDEST JUMPDEST SWAP1 POP PUSH1 0x20 MUL ADD PUSH1 0x20 DUP2 ADD SWAP1 PUSH2 0x66C SWAP2 SWAP1 PUSH2 0x1FA0 JUMP JUMPDEST SWAP1 POP PUSH0 PUSH2 0x689 DUP3 PUSH2 0x67B PUSH2 0x99D JUMP JUMPDEST PUSH2 0x9E1 SWAP1 SWAP2 SWAP1 PUSH4 0xFFFFFFFF AND JUMP JUMPDEST SWAP1 POP PUSH0 PUSH20 0xFFFFFFFFFFFFFFFFFFFFFFFFFFFFFFFFFFFFFFFF AND DUP2 PUSH20 0xFFFFFFFFFFFFFFFFFFFFFFFFFFFFFFFFFFFFFFFF AND SUB PUSH2 0x6FD JUMPI DUP2 DUP5 PUSH1 0x40 MLOAD PUSH32 0x2699643500000000000000000000000000000000000000000000000000000000 DUP2 MSTORE PUSH1 0x4 ADD PUSH2 0x6F4 SWAP3 SWAP2 SWAP1 PUSH2 0x2000 JUMP JUMPDEST PUSH1 0x40 MLOAD DUP1 SWAP2 SUB SWAP1 REVERT JUMPDEST PUSH2 0x719 DUP3 DUP6 PUSH2 0x70A PUSH2 0x99D JUMP JUMPDEST PUSH2 0xA16 SWAP1 SWAP3 SWAP2 SWAP1 PUSH4 0xFFFFFFFF AND JUMP JUMPDEST PUSH2 0x724 DUP3 DUP3 DUP7 PUSH2 0xBCB JUMP JUMPDEST POP POP DUP1 DUP1 PUSH1 0x1 ADD SWAP2 POP POP PUSH2 0x638 JUMP JUMPDEST POP POP POP POP POP JUMP JUMPDEST CALLDATASIZE PUSH0 DUP3 DUP1 PUSH1 0x40 ADD SWAP1 PUSH2 0x74C SWAP2 SWAP1 PUSH2 0x1F3E JUMP JUMPDEST SWAP2 POP SWAP2 POP PUSH0 JUMPDEST DUP3 DUP3 SWAP1 POP DUP2 LT ISZERO PUSH2 0x802 JUMPI PUSH0 DUP4 DUP4 DUP4 DUP2 DUP2 LT PUSH2 0x771 JUMPI PUSH2 0x770 PUSH2 0x1A31 JUMP JUMPDEST JUMPDEST SWAP1 POP PUSH1 0x20 MUL ADD PUSH1 0x20 DUP2 ADD SWAP1 PUSH2 0x786 SWAP2 SWAP1 PUSH2 0x1FA0 JUMP JUMPDEST SWAP1 POP PUSH0 PUSH2 0x7A3 DUP3 PUSH2 0x795 PUSH2 0x99D JUMP JUMPDEST PUSH2 0x9E1 SWAP1 SWAP2 SWAP1 PUSH4 0xFFFFFFFF AND JUMP JUMPDEST SWAP1 POP PUSH0 PUSH20 0xFFFFFFFFFFFFFFFFFFFFFFFFFFFFFFFFFFFFFFFF AND DUP2 PUSH20 0xFFFFFFFFFFFFFFFFFFFFFFFFFFFFFFFFFFFFFFFF AND EQ PUSH2 0x7F3 JUMPI PUSH2 0x7F2 DUP3 PUSH2 0x7E4 PUSH2 0x99D JUMP JUMPDEST PUSH2 0xC92 SWAP1 SWAP2 SWAP1 PUSH4 0xFFFFFFFF AND JUMP JUMPDEST JUMPDEST POP POP DUP1 DUP1 PUSH1 0x1 ADD SWAP2 POP POP PUSH2 0x752 JUMP JUMPDEST POP PUSH2 0x85E DUP3 DUP3 DUP1 DUP1 PUSH1 0x20 MUL PUSH1 0x20 ADD PUSH1 0x40 MLOAD SWAP1 DUP2 ADD PUSH1 0x40 MSTORE DUP1 SWAP4 SWAP3 SWAP2 SWAP1 DUP2 DUP2 MSTORE PUSH1 0x20 ADD DUP4 DUP4 PUSH1 0x20 MUL DUP1 DUP3 DUP5 CALLDATACOPY PUSH0 DUP2 DUP5 ADD MSTORE PUSH1 0x1F NOT PUSH1 0x1F DUP3 ADD AND SWAP1 POP DUP1 DUP4 ADD SWAP3 POP POP POP POP POP POP POP DUP5 PUSH0 ADD PUSH1 0x20 DUP2 ADD SWAP1 PUSH2 0x859 SWAP2 SWAP1 PUSH2 0x1F13 JUMP JUMPDEST PUSH2 0xCC4 JUMP JUMPDEST POP POP POP JUMP JUMPDEST PUSH0 PUSH20 0xFFFFFFFFFFFFFFFFFFFFFFFFFFFFFFFFFFFFFFFF AND DUP4 PUSH20 0xFFFFFFFFFFFFFFFFFFFFFFFFFFFFFFFFFFFFFFFF AND EQ ISZERO DUP1 ISZERO PUSH2 0x8A1 JUMPI POP PUSH0 DUP3 DUP3 SWAP1 POP GT JUMPDEST ISZERO PUSH2 0x968 JUMPI PUSH0 DUP1 DUP5 PUSH20 0xFFFFFFFFFFFFFFFFFFFFFFFFFFFFFFFFFFFFFFFF AND DUP5 DUP5 PUSH1 0x40 MLOAD PUSH2 0x8CF SWAP3 SWAP2 SWAP1 PUSH2 0x2055 JUMP JUMPDEST PUSH0 PUSH1 0x40 MLOAD DUP1 DUP4 SUB DUP2 DUP6 GAS DELEGATECALL SWAP2 POP POP RETURNDATASIZE DUP1 PUSH0 DUP2 EQ PUSH2 0x907 JUMPI PUSH1 0x40 MLOAD SWAP2 POP PUSH1 0x1F NOT PUSH1 0x3F RETURNDATASIZE ADD AND DUP3 ADD PUSH1 0x40 MSTORE RETURNDATASIZE DUP3 MSTORE RETURNDATASIZE PUSH0 PUSH1 0x20 DUP5 ADD RETURNDATACOPY PUSH2 0x90C JUMP JUMPDEST PUSH1 0x60 SWAP2 POP JUMPDEST POP SWAP2 POP SWAP2 POP DUP5 PUSH20 0xFFFFFFFFFFFFFFFFFFFFFFFFFFFFFFFFFFFFFFFF AND PUSH32 0xA102D0981040ABABA34B128C580C150B84B87887FAB658FA12DAEE528FEEFA4E DUP6 DUP6 DUP6 DUP6 PUSH1 0x40 MLOAD PUSH2 0x95D SWAP5 SWAP4 SWAP3 SWAP2 SWAP1 PUSH2 0x20C9 JUMP JUMPDEST PUSH1 0x40 MLOAD DUP1 SWAP2 SUB SWAP1 LOG2 POP POP JUMPDEST POP POP POP JUMP JUMPDEST PUSH0 PUSH1 0x2 DUP1 DUP2 GT ISZERO PUSH2 0x981 JUMPI PUSH2 0x980 PUSH2 0x1A91 JUMP JUMPDEST JUMPDEST DUP3 PUSH1 0x2 DUP2 GT ISZERO PUSH2 0x994 JUMPI PUSH2 0x993 PUSH2 0x1A91 JUMP JUMPDEST JUMPDEST GT ISZERO SWAP1 POP SWAP2 SWAP1 POP JUMP JUMPDEST PUSH0 PUSH2 0x9DC PUSH1 0x40 MLOAD DUP1 PUSH1 0x40 ADD PUSH1 0x40 MSTORE DUP1 PUSH1 0x1E DUP2 MSTORE PUSH1 0x20 ADD PUSH32 0x656970323533352E7369674661636574416464726573734D617070696E670000 DUP2 MSTORE POP PUSH2 0xDE0 JUMP JUMPDEST SWAP1 POP SWAP1 JUMP JUMPDEST PUSH0 PUSH2 0x9EC DUP4 DUP4 PUSH2 0xE17 JUMP JUMPDEST PUSH0 ADD PUSH0 SWAP1 SLOAD SWAP1 PUSH2 0x100 EXP SWAP1 DIV PUSH20 0xFFFFFFFFFFFFFFFFFFFFFFFFFFFFFFFFFFFFFFFF AND SWAP1 POP SWAP3 SWAP2 POP POP JUMP JUMPDEST DUP1 PUSH2 0xA21 DUP5 DUP5 PUSH2 0xE17 JUMP JUMPDEST PUSH0 ADD PUSH0 PUSH2 0x100 EXP DUP2 SLOAD DUP2 PUSH20 0xFFFFFFFFFFFFFFFFFFFFFFFFFFFFFFFFFFFFFFFF MUL NOT AND SWAP1 DUP4 PUSH20 0xFFFFFFFFFFFFFFFFFFFFFFFFFFFFFFFFFFFFFFFF AND MUL OR SWAP1 SSTORE POP POP POP POP JUMP JUMPDEST PUSH0 PUSH2 0xA6E PUSH2 0xE64 JUMP JUMPDEST SWAP1 POP PUSH0 PUSH2 0xA84 DUP4 DUP4 PUSH2 0xEA8 SWAP1 SWAP2 SWAP1 PUSH4 0xFFFFFFFF AND JUMP JUMPDEST SWAP1 POP PUSH0 JUMPDEST DUP5 MLOAD DUP2 LT ISZERO PUSH2 0xBC4 JUMPI PUSH2 0xB4E DUP6 DUP3 DUP2 MLOAD DUP2 LT PUSH2 0xAA7 JUMPI PUSH2 0xAA6 PUSH2 0x1A31 JUMP JUMPDEST JUMPDEST PUSH1 0x20 MUL PUSH1 0x20 ADD ADD MLOAD DUP4 PUSH0 ADD DUP1 SLOAD DUP1 PUSH1 0x20 MUL PUSH1 0x20 ADD PUSH1 0x40 MLOAD SWAP1 DUP2 ADD PUSH1 0x40 MSTORE DUP1 SWAP3 SWAP2 SWAP1 DUP2 DUP2 MSTORE PUSH1 0x20 ADD DUP3 DUP1 SLOAD DUP1 ISZERO PUSH2 0xB3B JUMPI PUSH1 0x20 MUL DUP3 ADD SWAP2 SWAP1 PUSH0 MSTORE PUSH1 0x20 PUSH0 KECCAK256 SWAP1 PUSH0 SWAP1 JUMPDEST DUP3 DUP3 SWAP1 SLOAD SWAP1 PUSH2 0x100 EXP SWAP1 DIV PUSH1 0xE0 SHL PUSH28 0xFFFFFFFFFFFFFFFFFFFFFFFFFFFFFFFFFFFFFFFFFFFFFFFFFFFFFFFF NOT AND DUP2 MSTORE PUSH1 0x20 ADD SWAP1 PUSH1 0x4 ADD SWAP1 PUSH1 0x20 DUP3 PUSH1 0x3 ADD DIV SWAP3 DUP4 ADD SWAP3 PUSH1 0x1 SUB DUP3 MUL SWAP2 POP DUP1 DUP5 GT PUSH2 0xAE8 JUMPI SWAP1 POP JUMPDEST POP POP POP POP POP PUSH2 0xF5C SWAP1 SWAP2 SWAP1 PUSH4 0xFFFFFFFF AND JUMP JUMPDEST PUSH2 0xBB7 JUMPI DUP2 PUSH0 ADD DUP6 DUP3 DUP2 MLOAD DUP2 LT PUSH2 0xB68 JUMPI PUSH2 0xB67 PUSH2 0x1A31 JUMP JUMPDEST JUMPDEST PUSH1 0x20 MUL PUSH1 0x20 ADD ADD MLOAD SWAP1 DUP1 PUSH1 0x1 DUP2 SLOAD ADD DUP1 DUP3 SSTORE DUP1 SWAP2 POP POP PUSH1 0x1 SWAP1 SUB SWAP1 PUSH0 MSTORE PUSH1 0x20 PUSH0 KECCAK256 SWAP1 PUSH1 0x8 SWAP2 DUP3 DUP3 DIV ADD SWAP2 SWAP1 MOD PUSH1 0x4 MUL SWAP1 SWAP2 SWAP1 SWAP2 SWAP1 SWAP2 PUSH2 0x100 EXP DUP2 SLOAD DUP2 PUSH4 0xFFFFFFFF MUL NOT AND SWAP1 DUP4 PUSH1 0xE0 SHR MUL OR SWAP1 SSTORE POP JUMPDEST DUP1 DUP1 PUSH1 0x1 ADD SWAP2 POP POP PUSH2 0xA88 JUMP JUMPDEST POP POP POP POP POP JUMP JUMPDEST PUSH0 PUSH1 0x1 PUSH8 0xFFFFFFFFFFFFFFFF DUP2 GT ISZERO PUSH2 0xBE7 JUMPI PUSH2 0xBE6 PUSH2 0x1873 JUMP JUMPDEST JUMPDEST PUSH1 0x40 MLOAD SWAP1 DUP1 DUP3 MSTORE DUP1 PUSH1 0x20 MUL PUSH1 0x20 ADD DUP3 ADD PUSH1 0x40 MSTORE DUP1 ISZERO PUSH2 0xC15 JUMPI DUP2 PUSH1 0x20 ADD PUSH1 0x20 DUP3 MUL DUP1 CALLDATASIZE DUP4 CALLDATACOPY DUP1 DUP3 ADD SWAP2 POP POP SWAP1 POP JUMPDEST POP SWAP1 POP DUP4 DUP2 PUSH0 DUP2 MLOAD DUP2 LT PUSH2 0xC2C JUMPI PUSH2 0xC2B PUSH2 0x1A31 JUMP JUMPDEST JUMPDEST PUSH1 0x20 MUL PUSH1 0x20 ADD ADD SWAP1 PUSH28 0xFFFFFFFFFFFFFFFFFFFFFFFFFFFFFFFFFFFFFFFFFFFFFFFFFFFFFFFF NOT AND SWAP1 DUP2 PUSH28 0xFFFFFFFFFFFFFFFFFFFFFFFFFFFFFFFFFFFFFFFFFFFFFFFFFFFFFFFF NOT AND DUP2 MSTORE POP POP PUSH2 0xC82 DUP2 DUP5 PUSH2 0xCC4 JUMP JUMPDEST PUSH2 0xC8C DUP2 DUP4 PUSH2 0xA65 JUMP JUMPDEST POP POP POP POP JUMP JUMPDEST PUSH2 0xC9C DUP3 DUP3 PUSH2 0xE17 JUMP JUMPDEST PUSH0 ADD PUSH0 PUSH2 0x100 EXP DUP2 SLOAD SWAP1 PUSH20 0xFFFFFFFFFFFFFFFFFFFFFFFFFFFFFFFFFFFFFFFF MUL NOT AND SWAP1 SSTORE POP POP JUMP JUMPDEST PUSH0 PUSH2 0xCCD PUSH2 0xE64 JUMP JUMPDEST SWAP1 POP PUSH2 0xCE2 DUP3 DUP3 PUSH2 0xFFF SWAP1 SWAP2 SWAP1 PUSH4 0xFFFFFFFF AND JUMP JUMPDEST ISZERO PUSH2 0xDDB JUMPI PUSH0 PUSH2 0xCFB DUP4 DUP4 PUSH2 0x101D SWAP1 SWAP2 SWAP1 PUSH4 0xFFFFFFFF AND JUMP JUMPDEST SWAP1 POP PUSH2 0xDA0 DUP5 DUP3 PUSH0 ADD DUP1 SLOAD DUP1 PUSH1 0x20 MUL PUSH1 0x20 ADD PUSH1 0x40 MLOAD SWAP1 DUP2 ADD PUSH1 0x40 MSTORE DUP1 SWAP3 SWAP2 SWAP1 DUP2 DUP2 MSTORE PUSH1 0x20 ADD DUP3 DUP1 SLOAD DUP1 ISZERO PUSH2 0xD8D JUMPI PUSH1 0x20 MUL DUP3 ADD SWAP2 SWAP1 PUSH0 MSTORE PUSH1 0x20 PUSH0 KECCAK256 SWAP1 PUSH0 SWAP1 JUMPDEST DUP3 DUP3 SWAP1 SLOAD SWAP1 PUSH2 0x100 EXP SWAP1 DIV PUSH1 0xE0 SHL PUSH28 0xFFFFFFFFFFFFFFFFFFFFFFFFFFFFFFFFFFFFFFFFFFFFFFFFFFFFFFFF NOT AND DUP2 MSTORE PUSH1 0x20 ADD SWAP1 PUSH1 0x4 ADD SWAP1 PUSH1 0x20 DUP3 PUSH1 0x3 ADD DIV SWAP3 DUP4 ADD SWAP3 PUSH1 0x1 SUB DUP3 MUL SWAP2 POP DUP1 DUP5 GT PUSH2 0xD3A JUMPI SWAP1 POP JUMPDEST POP POP POP POP POP PUSH2 0x10B0 SWAP1 SWAP2 SWAP1 PUSH4 0xFFFFFFFF AND JUMP JUMPDEST DUP2 PUSH0 ADD SWAP1 DUP1 MLOAD SWAP1 PUSH1 0x20 ADD SWAP1 PUSH2 0xDB6 SWAP3 SWAP2 SWAP1 PUSH2 0x15C3 JUMP JUMPDEST POP PUSH0 DUP2 PUSH0 ADD DUP1 SLOAD SWAP1 POP SUB PUSH2 0xDD9 JUMPI PUSH2 0xDD7 DUP4 DUP4 PUSH2 0x1299 SWAP1 SWAP2 SWAP1 PUSH4 0xFFFFFFFF AND JUMP JUMPDEST POP JUMPDEST POP JUMPDEST POP POP POP JUMP JUMPDEST PUSH0 DUP1 PUSH2 0xE0C PUSH2 0xE07 PUSH1 0x40 MLOAD DUP1 PUSH1 0x60 ADD PUSH1 0x40 MSTORE DUP1 PUSH1 0x2B DUP2 MSTORE PUSH1 0x20 ADD PUSH2 0x227D PUSH1 0x2B SWAP2 CODECOPY DUP6 PUSH2 0x1307 JUMP JUMPDEST PUSH2 0x1333 JUMP JUMPDEST SWAP1 POP DUP1 SWAP2 POP POP SWAP2 SWAP1 POP JUMP JUMPDEST PUSH0 DUP1 DUP3 PUSH28 0xFFFFFFFFFFFFFFFFFFFFFFFFFFFFFFFFFFFFFFFFFFFFFFFFFFFFFFFF NOT AND SWAP1 POP PUSH0 PUSH2 0xE4F DUP3 DUP7 PUSH2 0x134F SWAP1 SWAP2 SWAP1 PUSH4 0xFFFFFFFF AND JUMP JUMPDEST SWAP1 POP PUSH2 0xE5A DUP2 PUSH2 0x1363 JUMP JUMPDEST SWAP3 POP POP POP SWAP3 SWAP2 POP POP JUMP JUMPDEST PUSH0 PUSH2 0xEA3 PUSH1 0x40 MLOAD DUP1 PUSH1 0x40 ADD PUSH1 0x40 MSTORE DUP1 PUSH1 0x19 DUP2 MSTORE PUSH1 0x20 ADD PUSH32 0x656970323533352E61646472657373546F46616365744D617000000000000000 DUP2 MSTORE POP PUSH2 0x136C JUMP JUMPDEST SWAP1 POP SWAP1 JUMP JUMPDEST PUSH0 PUSH2 0xEB3 DUP4 DUP4 PUSH2 0xFFF JUMP JUMPDEST ISZERO PUSH2 0xEFE JUMPI DUP3 PUSH1 0x2 ADD PUSH0 DUP4 PUSH20 0xFFFFFFFFFFFFFFFFFFFFFFFFFFFFFFFFFFFFFFFF AND PUSH20 0xFFFFFFFFFFFFFFFFFFFFFFFFFFFFFFFFFFFFFFFF AND DUP2 MSTORE PUSH1 0x20 ADD SWAP1 DUP2 MSTORE PUSH1 0x20 ADD PUSH0 KECCAK256 SWAP1 POP PUSH2 0xF56 JUMP JUMPDEST PUSH2 0xF13 DUP3 DUP5 PUSH0 ADD PUSH2 0x13B0 SWAP1 SWAP2 SWAP1 PUSH4 0xFFFFFFFF AND JUMP JUMPDEST POP DUP3 PUSH1 0x2 ADD PUSH0 DUP4 PUSH20 0xFFFFFFFFFFFFFFFFFFFFFFFFFFFFFFFFFFFFFFFF AND PUSH20 0xFFFFFFFFFFFFFFFFFFFFFFFFFFFFFFFFFFFFFFFF AND DUP2 MSTORE PUSH1 0x20 ADD SWAP1 DUP2 MSTORE PUSH1 0x20 ADD PUSH0 KECCAK256 SWAP1 POP JUMPDEST SWAP3 SWAP2 POP POP JUMP JUMPDEST PUSH0 DUP1 DUP4 MLOAD SWAP1 POP PUSH0 DUP2 SUB PUSH2 0xF72 JUMPI PUSH0 SWAP2 POP POP PUSH2 0xFF9 JUMP JUMPDEST PUSH0 JUMPDEST DUP2 DUP2 LT ISZERO PUSH2 0xFF3 JUMPI DUP4 PUSH28 0xFFFFFFFFFFFFFFFFFFFFFFFFFFFFFFFFFFFFFFFFFFFFFFFFFFFFFFFF NOT AND DUP6 DUP3 DUP2 MLOAD DUP2 LT PUSH2 0xFAF JUMPI PUSH2 0xFAE PUSH2 0x1A31 JUMP JUMPDEST JUMPDEST PUSH1 0x20 MUL PUSH1 0x20 ADD ADD MLOAD PUSH28 0xFFFFFFFFFFFFFFFFFFFFFFFFFFFFFFFFFFFFFFFFFFFFFFFFFFFFFFFF NOT AND SUB PUSH2 0xFE6 JUMPI PUSH1 0x1 SWAP3 POP POP POP PUSH2 0xFF9 JUMP JUMPDEST DUP1 DUP1 PUSH1 0x1 ADD SWAP2 POP POP PUSH2 0xF74 JUMP JUMPDEST POP PUSH0 SWAP2 POP POP JUMPDEST SWAP3 SWAP2 POP POP JUMP JUMPDEST PUSH0 PUSH2 0x1015 DUP3 DUP5 PUSH0 ADD PUSH2 0x13DD SWAP1 SWAP2 SWAP1 PUSH4 0xFFFFFFFF AND JUMP JUMPDEST SWAP1 POP SWAP3 SWAP2 POP POP JUMP JUMPDEST PUSH0 PUSH2 0x1028 DUP4 DUP4 PUSH2 0xFFF JUMP JUMPDEST PUSH2 0x1069 JUMPI DUP2 PUSH1 0x40 MLOAD PUSH32 0x702C0E5200000000000000000000000000000000000000000000000000000000 DUP2 MSTORE PUSH1 0x4 ADD PUSH2 0x1060 SWAP2 SWAP1 PUSH2 0x210E JUMP JUMPDEST PUSH1 0x40 MLOAD DUP1 SWAP2 SUB SWAP1 REVERT JUMPDEST DUP3 PUSH1 0x2 ADD PUSH0 DUP4 PUSH20 0xFFFFFFFFFFFFFFFFFFFFFFFFFFFFFFFFFFFFFFFF AND PUSH20 0xFFFFFFFFFFFFFFFFFFFFFFFFFFFFFFFFFFFFFFFF AND DUP2 MSTORE PUSH1 0x20 ADD SWAP1 DUP2 MSTORE PUSH1 0x20 ADD PUSH0 KECCAK256 SWAP1 POP SWAP3 SWAP2 POP POP JUMP JUMPDEST PUSH1 0x60 PUSH0 DUP4 MLOAD SWAP1 POP PUSH0 DUP4 MLOAD SWAP1 POP PUSH0 DUP3 EQ DUP1 PUSH2 0x10C9 JUMPI POP PUSH0 DUP2 EQ JUMPDEST ISZERO PUSH2 0x10D8 JUMPI DUP5 SWAP3 POP POP POP PUSH2 0x1293 JUMP JUMPDEST PUSH0 DUP1 DUP4 PUSH8 0xFFFFFFFFFFFFFFFF DUP2 GT ISZERO PUSH2 0x10F4 JUMPI PUSH2 0x10F3 PUSH2 0x1873 JUMP JUMPDEST JUMPDEST PUSH1 0x40 MLOAD SWAP1 DUP1 DUP3 MSTORE DUP1 PUSH1 0x20 MUL PUSH1 0x20 ADD DUP3 ADD PUSH1 0x40 MSTORE DUP1 ISZERO PUSH2 0x1122 JUMPI DUP2 PUSH1 0x20 ADD PUSH1 0x20 DUP3 MUL DUP1 CALLDATASIZE DUP4 CALLDATACOPY DUP1 DUP3 ADD SWAP2 POP POP SWAP1 POP JUMPDEST POP SWAP1 POP PUSH0 JUMPDEST DUP5 DUP2 LT ISZERO PUSH2 0x1191 JUMPI PUSH2 0x1153 DUP8 DUP10 DUP4 DUP2 MLOAD DUP2 LT PUSH2 0x1146 JUMPI PUSH2 0x1145 PUSH2 0x1A31 JUMP JUMPDEST JUMPDEST PUSH1 0x20 MUL PUSH1 0x20 ADD ADD MLOAD PUSH2 0xF5C JUMP JUMPDEST PUSH2 0x1184 JUMPI DUP1 DUP3 DUP5 DUP1 PUSH2 0x1164 SWAP1 PUSH2 0x215D JUMP JUMPDEST SWAP6 POP DUP2 MLOAD DUP2 LT PUSH2 0x1177 JUMPI PUSH2 0x1176 PUSH2 0x1A31 JUMP JUMPDEST JUMPDEST PUSH1 0x20 MUL PUSH1 0x20 ADD ADD DUP2 DUP2 MSTORE POP POP JUMPDEST DUP1 DUP1 PUSH1 0x1 ADD SWAP2 POP POP PUSH2 0x1127 JUMP JUMPDEST POP PUSH0 DUP3 PUSH8 0xFFFFFFFFFFFFFFFF DUP2 GT ISZERO PUSH2 0x11AD JUMPI PUSH2 0x11AC PUSH2 0x1873 JUMP JUMPDEST JUMPDEST PUSH1 0x40 MLOAD SWAP1 DUP1 DUP3 MSTORE DUP1 PUSH1 0x20 MUL PUSH1 0x20 ADD DUP3 ADD PUSH1 0x40 MSTORE DUP1 ISZERO PUSH2 0x11DB JUMPI DUP2 PUSH1 0x20 ADD PUSH1 0x20 DUP3 MUL DUP1 CALLDATASIZE DUP4 CALLDATACOPY DUP1 DUP3 ADD SWAP2 POP POP SWAP1 POP JUMPDEST POP SWAP1 POP PUSH0 JUMPDEST DUP4 DUP2 LT ISZERO PUSH2 0x1289 JUMPI DUP9 DUP4 DUP3 DUP2 MLOAD DUP2 LT PUSH2 0x11FC JUMPI PUSH2 0x11FB PUSH2 0x1A31 JUMP JUMPDEST JUMPDEST PUSH1 0x20 MUL PUSH1 0x20 ADD ADD MLOAD DUP2 MLOAD DUP2 LT PUSH2 0x1215 JUMPI PUSH2 0x1214 PUSH2 0x1A31 JUMP JUMPDEST JUMPDEST PUSH1 0x20 MUL PUSH1 0x20 ADD ADD MLOAD DUP3 DUP3 DUP2 MLOAD DUP2 LT PUSH2 0x1230 JUMPI PUSH2 0x122F PUSH2 0x1A31 JUMP JUMPDEST JUMPDEST PUSH1 0x20 MUL PUSH1 0x20 ADD ADD SWAP1 PUSH28 0xFFFFFFFFFFFFFFFFFFFFFFFFFFFFFFFFFFFFFFFFFFFFFFFFFFFFFFFF NOT AND SWAP1 DUP2 PUSH28 0xFFFFFFFFFFFFFFFFFFFFFFFFFFFFFFFFFFFFFFFFFFFFFFFFFFFFFFFF NOT AND DUP2 MSTORE POP POP DUP1 DUP1 PUSH1 0x1 ADD SWAP2 POP POP PUSH2 0x11E0 JUMP JUMPDEST POP DUP1 SWAP6 POP POP POP POP POP POP JUMPDEST SWAP3 SWAP2 POP POP JUMP JUMPDEST PUSH0 DUP3 PUSH1 0x2 ADD PUSH0 DUP4 PUSH20 0xFFFFFFFFFFFFFFFFFFFFFFFFFFFFFFFFFFFFFFFF AND PUSH20 0xFFFFFFFFFFFFFFFFFFFFFFFFFFFFFFFFFFFFFFFF AND DUP2 MSTORE PUSH1 0x20 ADD SWAP1 DUP2 MSTORE PUSH1 0x20 ADD PUSH0 KECCAK256 PUSH0 DUP1 DUP3 ADD PUSH0 PUSH2 0x12E8 SWAP2 SWAP1 PUSH2 0x166D JUMP JUMPDEST POP POP PUSH2 0x12FF DUP3 DUP5 PUSH0 ADD PUSH2 0x140A SWAP1 SWAP2 SWAP1 PUSH4 0xFFFFFFFF AND JUMP JUMPDEST SWAP1 POP SWAP3 SWAP2 POP POP JUMP JUMPDEST PUSH1 0x60 DUP3 DUP3 PUSH1 0x40 MLOAD PUSH1 0x20 ADD PUSH2 0x131C SWAP3 SWAP2 SWAP1 PUSH2 0x21EE JUMP JUMPDEST PUSH1 0x40 MLOAD PUSH1 0x20 DUP2 DUP4 SUB SUB DUP2 MSTORE SWAP1 PUSH1 0x40 MSTORE SWAP1 POP SWAP3 SWAP2 POP POP JUMP JUMPDEST PUSH0 PUSH1 0x1 DUP3 MLOAD PUSH1 0x20 DUP5 ADD KECCAK256 SUB PUSH0 MSTORE PUSH1 0xFF NOT PUSH1 0x20 PUSH0 KECCAK256 AND SWAP1 POP SWAP2 SWAP1 POP JUMP JUMPDEST PUSH0 DUP2 PUSH0 MSTORE DUP3 PUSH1 0x20 MSTORE PUSH1 0x40 PUSH0 KECCAK256 SWAP1 POP SWAP3 SWAP2 POP POP JUMP JUMPDEST PUSH0 DUP2 SWAP1 POP SWAP2 SWAP1 POP JUMP JUMPDEST PUSH0 DUP1 PUSH2 0x1390 PUSH1 0x40 MLOAD DUP1 PUSH1 0x60 ADD PUSH1 0x40 MSTORE DUP1 PUSH1 0x2A DUP2 MSTORE PUSH1 0x20 ADD PUSH2 0x22A8 PUSH1 0x2A SWAP2 CODECOPY DUP5 PUSH2 0x1307 JUMP JUMPDEST SWAP1 POP PUSH0 PUSH2 0x139C DUP3 PUSH2 0x1333 JUMP JUMPDEST SWAP1 POP PUSH2 0x13A7 DUP2 PUSH2 0x1437 JUMP JUMPDEST SWAP3 POP POP POP SWAP2 SWAP1 POP JUMP JUMPDEST PUSH0 PUSH2 0x13D5 DUP4 PUSH0 ADD DUP4 PUSH20 0xFFFFFFFFFFFFFFFFFFFFFFFFFFFFFFFFFFFFFFFF AND PUSH0 SHL PUSH2 0x1440 JUMP JUMPDEST SWAP1 POP SWAP3 SWAP2 POP POP JUMP JUMPDEST PUSH0 PUSH2 0x1402 DUP4 PUSH0 ADD DUP4 PUSH20 0xFFFFFFFFFFFFFFFFFFFFFFFFFFFFFFFFFFFFFFFF AND PUSH0 SHL PUSH2 0x14A7 JUMP JUMPDEST SWAP1 POP SWAP3 SWAP2 POP POP JUMP JUMPDEST PUSH0 PUSH2 0x142F DUP4 PUSH0 ADD DUP4 PUSH20 0xFFFFFFFFFFFFFFFFFFFFFFFFFFFFFFFFFFFFFFFF AND PUSH0 SHL PUSH2 0x14C7 JUMP JUMPDEST SWAP1 POP SWAP3 SWAP2 POP POP JUMP JUMPDEST PUSH0 DUP2 SWAP1 POP SWAP2 SWAP1 POP JUMP JUMPDEST PUSH0 PUSH2 0x144B DUP4 DUP4 PUSH2 0x14A7 JUMP JUMPDEST PUSH2 0x149D JUMPI DUP3 PUSH0 ADD DUP3 SWAP1 DUP1 PUSH1 0x1 DUP2 SLOAD ADD DUP1 DUP3 SSTORE DUP1 SWAP2 POP POP PUSH1 0x1 SWAP1 SUB SWAP1 PUSH0 MSTORE PUSH1 0x20 PUSH0 KECCAK256 ADD PUSH0 SWAP1 SWAP2 SWAP1 SWAP2 SWAP1 SWAP2 POP SSTORE DUP3 PUSH0 ADD DUP1 SLOAD SWAP1 POP DUP4 PUSH1 0x1 ADD PUSH0 DUP5 DUP2 MSTORE PUSH1 0x20 ADD SWAP1 DUP2 MSTORE PUSH1 0x20 ADD PUSH0 KECCAK256 DUP2 SWAP1 SSTORE POP PUSH1 0x1 SWAP1 POP PUSH2 0x14A1 JUMP JUMPDEST PUSH0 SWAP1 POP JUMPDEST SWAP3 SWAP2 POP POP JUMP JUMPDEST PUSH0 DUP1 DUP4 PUSH1 0x1 ADD PUSH0 DUP5 DUP2 MSTORE PUSH1 0x20 ADD SWAP1 DUP2 MSTORE PUSH1 0x20 ADD PUSH0 KECCAK256 SLOAD EQ ISZERO SWAP1 POP SWAP3 SWAP2 POP POP JUMP JUMPDEST PUSH0 DUP1 DUP4 PUSH1 0x1 ADD PUSH0 DUP5 DUP2 MSTORE PUSH1 0x20 ADD SWAP1 DUP2 MSTORE PUSH1 0x20 ADD PUSH0 KECCAK256 SLOAD SWAP1 POP PUSH0 DUP2 EQ PUSH2 0x15B8 JUMPI PUSH0 PUSH1 0x1 DUP3 PUSH2 0x14F4 SWAP2 SWAP1 PUSH2 0x221C JUMP JUMPDEST SWAP1 POP PUSH0 PUSH1 0x1 DUP7 PUSH0 ADD DUP1 SLOAD SWAP1 POP PUSH2 0x150A SWAP2 SWAP1 PUSH2 0x221C JUMP JUMPDEST SWAP1 POP DUP1 DUP3 EQ PUSH2 0x1570 JUMPI PUSH0 DUP7 PUSH0 ADD DUP3 DUP2 SLOAD DUP2 LT PUSH2 0x1529 JUMPI PUSH2 0x1528 PUSH2 0x1A31 JUMP JUMPDEST JUMPDEST SWAP1 PUSH0 MSTORE PUSH1 0x20 PUSH0 KECCAK256 ADD SLOAD SWAP1 POP DUP1 DUP8 PUSH0 ADD DUP5 DUP2 SLOAD DUP2 LT PUSH2 0x154A JUMPI PUSH2 0x1549 PUSH2 0x1A31 JUMP JUMPDEST JUMPDEST SWAP1 PUSH0 MSTORE PUSH1 0x20 PUSH0 KECCAK256 ADD DUP2 SWAP1 SSTORE POP DUP4 DUP8 PUSH1 0x1 ADD PUSH0 DUP4 DUP2 MSTORE PUSH1 0x20 ADD SWAP1 DUP2 MSTORE PUSH1 0x20 ADD PUSH0 KECCAK256 DUP2 SWAP1 SSTORE POP POP JUMPDEST DUP6 PUSH0 ADD DUP1 SLOAD DUP1 PUSH2 0x1583 JUMPI PUSH2 0x1582 PUSH2 0x224F JUMP JUMPDEST JUMPDEST PUSH1 0x1 SWAP1 SUB DUP2 DUP2 SWAP1 PUSH0 MSTORE PUSH1 0x20 PUSH0 KECCAK256 ADD PUSH0 SWAP1 SSTORE SWAP1 SSTORE DUP6 PUSH1 0x1 ADD PUSH0 DUP7 DUP2 MSTORE PUSH1 0x20 ADD SWAP1 DUP2 MSTORE PUSH1 0x20 ADD PUSH0 KECCAK256 PUSH0 SWAP1 SSTORE PUSH1 0x1 SWAP4 POP POP POP POP PUSH2 0x15BD JUMP JUMPDEST PUSH0 SWAP2 POP POP JUMPDEST SWAP3 SWAP2 POP POP JUMP JUMPDEST DUP3 DUP1 SLOAD DUP3 DUP3 SSTORE SWAP1 PUSH0 MSTORE PUSH1 0x20 PUSH0 KECCAK256 SWAP1 PUSH1 0x7 ADD PUSH1 0x8 SWAP1 DIV DUP2 ADD SWAP3 DUP3 ISZERO PUSH2 0x165C JUMPI SWAP2 PUSH1 0x20 MUL DUP3 ADD PUSH0 JUMPDEST DUP4 DUP3 GT ISZERO PUSH2 0x162A JUMPI DUP4 MLOAD DUP4 DUP3 PUSH2 0x100 EXP DUP2 SLOAD DUP2 PUSH4 0xFFFFFFFF MUL NOT AND SWAP1 DUP4 PUSH1 0xE0 SHR MUL OR SWAP1 SSTORE POP SWAP3 PUSH1 0x20 ADD SWAP3 PUSH1 0x4 ADD PUSH1 0x20 DUP2 PUSH1 0x3 ADD DIV SWAP3 DUP4 ADD SWAP3 PUSH1 0x1 SUB MUL PUSH2 0x15E9 JUMP JUMPDEST DUP1 ISZERO PUSH2 0x165A JUMPI DUP3 DUP2 PUSH2 0x100 EXP DUP2 SLOAD SWAP1 PUSH4 0xFFFFFFFF MUL NOT AND SWAP1 SSTORE PUSH1 0x4 ADD PUSH1 0x20 DUP2 PUSH1 0x3 ADD DIV SWAP3 DUP4 ADD SWAP3 PUSH1 0x1 SUB MUL PUSH2 0x162A JUMP JUMPDEST POP JUMPDEST POP SWAP1 POP PUSH2 0x1669 SWAP2 SWAP1 PUSH2 0x1692 JUMP JUMPDEST POP SWAP1 JUMP JUMPDEST POP DUP1 SLOAD PUSH0 DUP3 SSTORE PUSH1 0x7 ADD PUSH1 0x8 SWAP1 DIV SWAP1 PUSH0 MSTORE PUSH1 0x20 PUSH0 KECCAK256 SWAP1 DUP2 ADD SWAP1 PUSH2 0x168F SWAP2 SWAP1 PUSH2 0x1692 JUMP JUMPDEST POP JUMP JUMPDEST JUMPDEST DUP1 DUP3 GT ISZERO PUSH2 0x16A9 JUMPI PUSH0 DUP2 PUSH0 SWAP1 SSTORE POP PUSH1 0x1 ADD PUSH2 0x1693 JUMP JUMPDEST POP SWAP1 JUMP JUMPDEST PUSH0 PUSH1 0x40 MLOAD SWAP1 POP SWAP1 JUMP JUMPDEST PUSH0 DUP1 REVERT JUMPDEST PUSH0 DUP1 REVERT JUMPDEST PUSH0 DUP1 REVERT JUMPDEST PUSH0 DUP1 REVERT JUMPDEST PUSH0 DUP1 REVERT JUMPDEST PUSH0 DUP1 DUP4 PUSH1 0x1F DUP5 ADD SLT PUSH2 0x16DF JUMPI PUSH2 0x16DE PUSH2 0x16BE JUMP JUMPDEST JUMPDEST DUP3 CALLDATALOAD SWAP1 POP PUSH8 0xFFFFFFFFFFFFFFFF DUP2 GT ISZERO PUSH2 0x16FC JUMPI PUSH2 0x16FB PUSH2 0x16C2 JUMP JUMPDEST JUMPDEST PUSH1 0x20 DUP4 ADD SWAP2 POP DUP4 PUSH1 0x20 DUP3 MUL DUP4 ADD GT ISZERO PUSH2 0x1718 JUMPI PUSH2 0x1717 PUSH2 0x16C6 JUMP JUMPDEST JUMPDEST SWAP3 POP SWAP3 SWAP1 POP JUMP JUMPDEST PUSH0 PUSH20 0xFFFFFFFFFFFFFFFFFFFFFFFFFFFFFFFFFFFFFFFF DUP3 AND SWAP1 POP SWAP2 SWAP1 POP JUMP JUMPDEST PUSH0 PUSH2 0x1748 DUP3 PUSH2 0x171F JUMP JUMPDEST SWAP1 POP SWAP2 SWAP1 POP JUMP JUMPDEST PUSH2 0x1758 DUP2 PUSH2 0x173E JUMP JUMPDEST DUP2 EQ PUSH2 0x1762 JUMPI PUSH0 DUP1 REVERT JUMPDEST POP JUMP JUMPDEST PUSH0 DUP2 CALLDATALOAD SWAP1 POP PUSH2 0x1773 DUP2 PUSH2 0x174F JUMP JUMPDEST SWAP3 SWAP2 POP POP JUMP JUMPDEST PUSH0 DUP1 DUP4 PUSH1 0x1F DUP5 ADD SLT PUSH2 0x178E JUMPI PUSH2 0x178D PUSH2 0x16BE JUMP JUMPDEST JUMPDEST DUP3 CALLDATALOAD SWAP1 POP PUSH8 0xFFFFFFFFFFFFFFFF DUP2 GT ISZERO PUSH2 0x17AB JUMPI PUSH2 0x17AA PUSH2 0x16C2 JUMP JUMPDEST JUMPDEST PUSH1 0x20 DUP4 ADD SWAP2 POP DUP4 PUSH1 0x1 DUP3 MUL DUP4 ADD GT ISZERO PUSH2 0x17C7 JUMPI PUSH2 0x17C6 PUSH2 0x16C6 JUMP JUMPDEST JUMPDEST SWAP3 POP SWAP3 SWAP1 POP JUMP JUMPDEST PUSH0 DUP1 PUSH0 DUP1 PUSH0 PUSH1 0x60 DUP7 DUP9 SUB SLT ISZERO PUSH2 0x17E7 JUMPI PUSH2 0x17E6 PUSH2 0x16B6 JUMP JUMPDEST JUMPDEST PUSH0 DUP7 ADD CALLDATALOAD PUSH8 0xFFFFFFFFFFFFFFFF DUP2 GT ISZERO PUSH2 0x1804 JUMPI PUSH2 0x1803 PUSH2 0x16BA JUMP JUMPDEST JUMPDEST PUSH2 0x1810 DUP9 DUP3 DUP10 ADD PUSH2 0x16CA JUMP JUMPDEST SWAP6 POP SWAP6 POP POP PUSH1 0x20 PUSH2 0x1823 DUP9 DUP3 DUP10 ADD PUSH2 0x1765 JUMP JUMPDEST SWAP4 POP POP PUSH1 0x40 DUP7 ADD CALLDATALOAD PUSH8 0xFFFFFFFFFFFFFFFF DUP2 GT ISZERO PUSH2 0x1844 JUMPI PUSH2 0x1843 PUSH2 0x16BA JUMP JUMPDEST JUMPDEST PUSH2 0x1850 DUP9 DUP3 DUP10 ADD PUSH2 0x1779 JUMP JUMPDEST SWAP3 POP SWAP3 POP POP SWAP3 SWAP6 POP SWAP3 SWAP6 SWAP1 SWAP4 POP JUMP JUMPDEST PUSH0 DUP1 REVERT JUMPDEST PUSH0 PUSH1 0x1F NOT PUSH1 0x1F DUP4 ADD AND SWAP1 POP SWAP2 SWAP1 POP JUMP JUMPDEST PUSH32 0x4E487B7100000000000000000000000000000000000000000000000000000000 PUSH0 MSTORE PUSH1 0x41 PUSH1 0x4 MSTORE PUSH1 0x24 PUSH0 REVERT JUMPDEST PUSH2 0x18A9 DUP3 PUSH2 0x1863 JUMP JUMPDEST DUP2 ADD DUP2 DUP2 LT PUSH8 0xFFFFFFFFFFFFFFFF DUP3 GT OR ISZERO PUSH2 0x18C8 JUMPI PUSH2 0x18C7 PUSH2 0x1873 JUMP JUMPDEST JUMPDEST DUP1 PUSH1 0x40 MSTORE POP POP POP JUMP JUMPDEST PUSH0 PUSH2 0x18DA PUSH2 0x16AD JUMP JUMPDEST SWAP1 POP PUSH2 0x18E6 DUP3 DUP3 PUSH2 0x18A0 JUMP JUMPDEST SWAP2 SWAP1 POP JUMP JUMPDEST PUSH0 PUSH8 0xFFFFFFFFFFFFFFFF DUP3 GT ISZERO PUSH2 0x1905 JUMPI PUSH2 0x1904 PUSH2 0x1873 JUMP JUMPDEST JUMPDEST PUSH2 0x190E DUP3 PUSH2 0x1863 JUMP JUMPDEST SWAP1 POP PUSH1 0x20 DUP2 ADD SWAP1 POP SWAP2 SWAP1 POP JUMP JUMPDEST DUP3 DUP2 DUP4 CALLDATACOPY PUSH0 DUP4 DUP4 ADD MSTORE POP POP POP JUMP JUMPDEST PUSH0 PUSH2 0x193B PUSH2 0x1936 DUP5 PUSH2 0x18EB JUMP JUMPDEST PUSH2 0x18D1 JUMP JUMPDEST SWAP1 POP DUP3 DUP2 MSTORE PUSH1 0x20 DUP2 ADD DUP5 DUP5 DUP5 ADD GT ISZERO PUSH2 0x1957 JUMPI PUSH2 0x1956 PUSH2 0x185F JUMP JUMPDEST JUMPDEST PUSH2 0x1962 DUP5 DUP3 DUP6 PUSH2 0x191B JUMP JUMPDEST POP SWAP4 SWAP3 POP POP POP JUMP JUMPDEST PUSH0 DUP3 PUSH1 0x1F DUP4 ADD SLT PUSH2 0x197E JUMPI PUSH2 0x197D PUSH2 0x16BE JUMP JUMPDEST JUMPDEST DUP2 CALLDATALOAD PUSH2 0x198E DUP5 DUP3 PUSH1 0x20 DUP7 ADD PUSH2 0x1929 JUMP JUMPDEST SWAP2 POP POP SWAP3 SWAP2 POP POP JUMP JUMPDEST PUSH0 PUSH1 0x20 DUP3 DUP5 SUB SLT ISZERO PUSH2 0x19AC JUMPI PUSH2 0x19AB PUSH2 0x16B6 JUMP JUMPDEST JUMPDEST PUSH0 DUP3 ADD CALLDATALOAD PUSH8 0xFFFFFFFFFFFFFFFF DUP2 GT ISZERO PUSH2 0x19C9 JUMPI PUSH2 0x19C8 PUSH2 0x16BA JUMP JUMPDEST JUMPDEST PUSH2 0x19D5 DUP5 DUP3 DUP6 ADD PUSH2 0x196A JUMP JUMPDEST SWAP2 POP POP SWAP3 SWAP2 POP POP JUMP JUMPDEST PUSH0 PUSH32 0xFFFFFFFF00000000000000000000000000000000000000000000000000000000 DUP3 AND SWAP1 POP SWAP2 SWAP1 POP JUMP JUMPDEST PUSH2 0x1A12 DUP2 PUSH2 0x19DE JUMP JUMPDEST DUP3 MSTORE POP POP JUMP JUMPDEST PUSH0 PUSH1 0x20 DUP3 ADD SWAP1 POP PUSH2 0x1A2B PUSH0 DUP4 ADD DUP5 PUSH2 0x1A09 JUMP JUMPDEST SWAP3 SWAP2 POP POP JUMP JUMPDEST PUSH32 0x4E487B7100000000000000000000000000000000000000000000000000000000 PUSH0 MSTORE PUSH1 0x32 PUSH1 0x4 MSTORE PUSH1 0x24 PUSH0 REVERT JUMPDEST PUSH0 DUP1 REVERT JUMPDEST PUSH0 DUP1 REVERT JUMPDEST PUSH0 DUP1 REVERT JUMPDEST PUSH0 DUP3 CALLDATALOAD PUSH1 0x1 PUSH1 0x60 SUB DUP4 CALLDATASIZE SUB SUB DUP2 SLT PUSH2 0x1A85 JUMPI PUSH2 0x1A84 PUSH2 0x1A5E JUMP JUMPDEST JUMPDEST DUP1 DUP4 ADD SWAP2 POP POP SWAP3 SWAP2 POP POP JUMP JUMPDEST PUSH32 0x4E487B7100000000000000000000000000000000000000000000000000000000 PUSH0 MSTORE PUSH1 0x21 PUSH1 0x4 MSTORE PUSH1 0x24 PUSH0 REVERT JUMPDEST PUSH1 0x3 DUP2 LT PUSH2 0x1ACA JUMPI PUSH0 DUP1 REVERT JUMPDEST POP JUMP JUMPDEST PUSH0 DUP2 CALLDATALOAD SWAP1 POP PUSH2 0x1ADB DUP2 PUSH2 0x1ABE JUMP JUMPDEST SWAP3 SWAP2 POP POP JUMP JUMPDEST PUSH0 PUSH1 0x20 DUP3 DUP5 SUB SLT ISZERO PUSH2 0x1AF6 JUMPI PUSH2 0x1AF5 PUSH2 0x16B6 JUMP JUMPDEST JUMPDEST PUSH0 PUSH2 0x1B03 DUP5 DUP3 DUP6 ADD PUSH2 0x1ACD JUMP JUMPDEST SWAP2 POP POP SWAP3 SWAP2 POP POP JUMP JUMPDEST PUSH0 DUP3 DUP3 MSTORE PUSH1 0x20 DUP3 ADD SWAP1 POP SWAP3 SWAP2 POP POP JUMP JUMPDEST PUSH0 DUP2 SWAP1 POP SWAP2 SWAP1 POP JUMP JUMPDEST PUSH0 PUSH2 0x1B33 PUSH1 0x20 DUP5 ADD DUP5 PUSH2 0x1765 JUMP JUMPDEST SWAP1 POP SWAP3 SWAP2 POP POP JUMP JUMPDEST PUSH2 0x1B44 DUP2 PUSH2 0x173E JUMP JUMPDEST DUP3 MSTORE POP POP JUMP JUMPDEST PUSH0 PUSH2 0x1B58 PUSH1 0x20 DUP5 ADD DUP5 PUSH2 0x1ACD JUMP JUMPDEST SWAP1 POP SWAP3 SWAP2 POP POP JUMP JUMPDEST PUSH1 0x3 DUP2 LT PUSH2 0x1B71 JUMPI PUSH2 0x1B70 PUSH2 0x1A91 JUMP JUMPDEST JUMPDEST POP JUMP JUMPDEST PUSH0 DUP2 SWAP1 POP PUSH2 0x1B81 DUP3 PUSH2 0x1B60 JUMP JUMPDEST SWAP2 SWAP1 POP JUMP JUMPDEST PUSH0 PUSH2 0x1B90 DUP3 PUSH2 0x1B74 JUMP JUMPDEST SWAP1 POP SWAP2 SWAP1 POP JUMP JUMPDEST PUSH2 0x1BA0 DUP2 PUSH2 0x1B86 JUMP JUMPDEST DUP3 MSTORE POP POP JUMP JUMPDEST PUSH0 DUP1 REVERT JUMPDEST PUSH0 DUP1 REVERT JUMPDEST PUSH0 DUP1 REVERT JUMPDEST PUSH0 DUP1 DUP4 CALLDATALOAD PUSH1 0x1 PUSH1 0x20 SUB DUP5 CALLDATASIZE SUB SUB DUP2 SLT PUSH2 0x1BCE JUMPI PUSH2 0x1BCD PUSH2 0x1BAE JUMP JUMPDEST JUMPDEST DUP4 DUP2 ADD SWAP3 POP DUP3 CALLDATALOAD SWAP2 POP PUSH1 0x20 DUP4 ADD SWAP3 POP PUSH8 0xFFFFFFFFFFFFFFFF DUP3 GT ISZERO PUSH2 0x1BF6 JUMPI PUSH2 0x1BF5 PUSH2 0x1BA6 JUMP JUMPDEST JUMPDEST PUSH1 0x20 DUP3 MUL CALLDATASIZE SUB DUP4 SGT ISZERO PUSH2 0x1C0C JUMPI PUSH2 0x1C0B PUSH2 0x1BAA JUMP JUMPDEST JUMPDEST POP SWAP3 POP SWAP3 SWAP1 POP JUMP JUMPDEST PUSH0 DUP3 DUP3 MSTORE PUSH1 0x20 DUP3 ADD SWAP1 POP SWAP3 SWAP2 POP POP JUMP JUMPDEST PUSH0 DUP2 SWAP1 POP SWAP2 SWAP1 POP JUMP JUMPDEST PUSH2 0x1C36 DUP2 PUSH2 0x19DE JUMP JUMPDEST DUP3 MSTORE POP POP JUMP JUMPDEST PUSH0 PUSH2 0x1C47 DUP4 DUP4 PUSH2 0x1C2D JUMP JUMPDEST PUSH1 0x20 DUP4 ADD SWAP1 POP SWAP3 SWAP2 POP POP JUMP JUMPDEST PUSH2 0x1C5C DUP2 PUSH2 0x19DE JUMP JUMPDEST DUP2 EQ PUSH2 0x1C66 JUMPI PUSH0 DUP1 REVERT JUMPDEST POP JUMP JUMPDEST PUSH0 DUP2 CALLDATALOAD SWAP1 POP PUSH2 0x1C77 DUP2 PUSH2 0x1C53 JUMP JUMPDEST SWAP3 SWAP2 POP POP JUMP JUMPDEST PUSH0 PUSH2 0x1C8B PUSH1 0x20 DUP5 ADD DUP5 PUSH2 0x1C69 JUMP JUMPDEST SWAP1 POP SWAP3 SWAP2 POP POP JUMP JUMPDEST PUSH0 PUSH1 0x20 DUP3 ADD SWAP1 POP SWAP2 SWAP1 POP JUMP JUMPDEST PUSH0 PUSH2 0x1CAA DUP4 DUP6 PUSH2 0x1C14 JUMP JUMPDEST SWAP4 POP PUSH2 0x1CB5 DUP3 PUSH2 0x1C24 JUMP JUMPDEST DUP1 PUSH0 JUMPDEST DUP6 DUP2 LT ISZERO PUSH2 0x1CED JUMPI PUSH2 0x1CCA DUP3 DUP5 PUSH2 0x1C7D JUMP JUMPDEST PUSH2 0x1CD4 DUP9 DUP3 PUSH2 0x1C3C JUMP JUMPDEST SWAP8 POP PUSH2 0x1CDF DUP4 PUSH2 0x1C93 JUMP JUMPDEST SWAP3 POP POP PUSH1 0x1 DUP2 ADD SWAP1 POP PUSH2 0x1CB8 JUMP JUMPDEST POP DUP6 SWAP3 POP POP POP SWAP4 SWAP3 POP POP POP JUMP JUMPDEST PUSH0 PUSH1 0x60 DUP4 ADD PUSH2 0x1D0B PUSH0 DUP5 ADD DUP5 PUSH2 0x1B25 JUMP JUMPDEST PUSH2 0x1D17 PUSH0 DUP7 ADD DUP3 PUSH2 0x1B3B JUMP JUMPDEST POP PUSH2 0x1D25 PUSH1 0x20 DUP5 ADD DUP5 PUSH2 0x1B4A JUMP JUMPDEST PUSH2 0x1D32 PUSH1 0x20 DUP7 ADD DUP3 PUSH2 0x1B97 JUMP JUMPDEST POP PUSH2 0x1D40 PUSH1 0x40 DUP5 ADD DUP5 PUSH2 0x1BB2 JUMP JUMPDEST DUP6 DUP4 SUB PUSH1 0x40 DUP8 ADD MSTORE PUSH2 0x1D53 DUP4 DUP3 DUP5 PUSH2 0x1C9F JUMP JUMPDEST SWAP3 POP POP POP DUP1 SWAP2 POP POP SWAP3 SWAP2 POP POP JUMP JUMPDEST PUSH0 PUSH2 0x1D6C DUP4 DUP4 PUSH2 0x1CFA JUMP JUMPDEST SWAP1 POP SWAP3 SWAP2 POP POP JUMP JUMPDEST PUSH0 DUP3 CALLDATALOAD PUSH1 0x1 PUSH1 0x60 SUB DUP4 CALLDATASIZE SUB SUB DUP2 SLT PUSH2 0x1D8F JUMPI PUSH2 0x1D8E PUSH2 0x1BAE JUMP JUMPDEST JUMPDEST DUP3 DUP2 ADD SWAP2 POP POP SWAP3 SWAP2 POP POP JUMP JUMPDEST PUSH0 PUSH1 0x20 DUP3 ADD SWAP1 POP SWAP2 SWAP1 POP JUMP JUMPDEST PUSH0 PUSH2 0x1DB2 DUP4 DUP6 PUSH2 0x1B0C JUMP JUMPDEST SWAP4 POP DUP4 PUSH1 0x20 DUP5 MUL DUP6 ADD PUSH2 0x1DC4 DUP5 PUSH2 0x1B1C JUMP JUMPDEST DUP1 PUSH0 JUMPDEST DUP8 DUP2 LT ISZERO PUSH2 0x1E07 JUMPI DUP5 DUP5 SUB DUP10 MSTORE PUSH2 0x1DDE DUP3 DUP5 PUSH2 0x1D74 JUMP JUMPDEST PUSH2 0x1DE8 DUP6 DUP3 PUSH2 0x1D61 JUMP JUMPDEST SWAP5 POP PUSH2 0x1DF3 DUP4 PUSH2 0x1D9B JUMP JUMPDEST SWAP3 POP PUSH1 0x20 DUP11 ADD SWAP10 POP POP PUSH1 0x1 DUP2 ADD SWAP1 POP PUSH2 0x1DC7 JUMP JUMPDEST POP DUP3 SWAP8 POP DUP8 SWAP5 POP POP POP POP POP SWAP4 SWAP3 POP POP POP JUMP JUMPDEST PUSH2 0x1E22 DUP2 PUSH2 0x173E JUMP JUMPDEST DUP3 MSTORE POP POP JUMP JUMPDEST PUSH0 DUP3 DUP3 MSTORE PUSH1 0x20 DUP3 ADD SWAP1 POP SWAP3 SWAP2 POP POP JUMP JUMPDEST PUSH0 PUSH2 0x1E43 DUP4 DUP6 PUSH2 0x1E28 JUMP JUMPDEST SWAP4 POP PUSH2 0x1E50 DUP4 DUP6 DUP5 PUSH2 0x191B JUMP JUMPDEST PUSH2 0x1E59 DUP4 PUSH2 0x1863 JUMP JUMPDEST DUP5 ADD SWAP1 POP SWAP4 SWAP3 POP POP POP JUMP JUMPDEST PUSH0 PUSH1 0x60 DUP3 ADD SWAP1 POP DUP2 DUP2 SUB PUSH0 DUP4 ADD MSTORE PUSH2 0x1E7D DUP2 DUP8 DUP10 PUSH2 0x1DA7 JUMP JUMPDEST SWAP1 POP PUSH2 0x1E8C PUSH1 0x20 DUP4 ADD DUP7 PUSH2 0x1E19 JUMP JUMPDEST DUP2 DUP2 SUB PUSH1 0x40 DUP4 ADD MSTORE PUSH2 0x1E9F DUP2 DUP5 DUP7 PUSH2 0x1E38 JUMP JUMPDEST SWAP1 POP SWAP7 SWAP6 POP POP POP POP POP POP JUMP JUMPDEST PUSH0 DUP2 MLOAD SWAP1 POP SWAP2 SWAP1 POP JUMP JUMPDEST PUSH0 DUP2 SWAP1 POP SWAP3 SWAP2 POP POP JUMP JUMPDEST DUP3 DUP2 DUP4 MCOPY PUSH0 DUP4 DUP4 ADD MSTORE POP POP POP JUMP JUMPDEST PUSH0 PUSH2 0x1ED7 DUP3 PUSH2 0x1EAB JUMP JUMPDEST PUSH2 0x1EE1 DUP2 DUP6 PUSH2 0x1EB5 JUMP JUMPDEST SWAP4 POP PUSH2 0x1EF1 DUP2 DUP6 PUSH1 0x20 DUP7 ADD PUSH2 0x1EBF JUMP JUMPDEST DUP1 DUP5 ADD SWAP2 POP POP SWAP3 SWAP2 POP POP JUMP JUMPDEST PUSH0 PUSH2 0x1F08 DUP3 DUP5 PUSH2 0x1ECD JUMP JUMPDEST SWAP2 POP DUP2 SWAP1 POP SWAP3 SWAP2 POP POP JUMP JUMPDEST PUSH0 PUSH1 0x20 DUP3 DUP5 SUB SLT ISZERO PUSH2 0x1F28 JUMPI PUSH2 0x1F27 PUSH2 0x16B6 JUMP JUMPDEST JUMPDEST PUSH0 PUSH2 0x1F35 DUP5 DUP3 DUP6 ADD PUSH2 0x1765 JUMP JUMPDEST SWAP2 POP POP SWAP3 SWAP2 POP POP JUMP JUMPDEST PUSH0 DUP1 DUP4 CALLDATALOAD PUSH1 0x1 PUSH1 0x20 SUB DUP5 CALLDATASIZE SUB SUB DUP2 SLT PUSH2 0x1F5A JUMPI PUSH2 0x1F59 PUSH2 0x1A5E JUMP JUMPDEST JUMPDEST DUP1 DUP5 ADD SWAP3 POP DUP3 CALLDATALOAD SWAP2 POP PUSH8 0xFFFFFFFFFFFFFFFF DUP3 GT ISZERO PUSH2 0x1F7C JUMPI PUSH2 0x1F7B PUSH2 0x1A62 JUMP JUMPDEST JUMPDEST PUSH1 0x20 DUP4 ADD SWAP3 POP PUSH1 0x20 DUP3 MUL CALLDATASIZE SUB DUP4 SGT ISZERO PUSH2 0x1F98 JUMPI PUSH2 0x1F97 PUSH2 0x1A66 JUMP JUMPDEST JUMPDEST POP SWAP3 POP SWAP3 SWAP1 POP JUMP JUMPDEST PUSH0 PUSH1 0x20 DUP3 DUP5 SUB SLT ISZERO PUSH2 0x1FB5 JUMPI PUSH2 0x1FB4 PUSH2 0x16B6 JUMP JUMPDEST JUMPDEST PUSH0 PUSH2 0x1FC2 DUP5 DUP3 DUP6 ADD PUSH2 0x1C69 JUMP JUMPDEST SWAP2 POP POP SWAP3 SWAP2 POP POP JUMP JUMPDEST PUSH0 PUSH1 0x60 DUP3 ADD SWAP1 POP PUSH2 0x1FDE PUSH0 DUP4 ADD DUP7 PUSH2 0x1A09 JUMP JUMPDEST PUSH2 0x1FEB PUSH1 0x20 DUP4 ADD DUP6 PUSH2 0x1E19 JUMP JUMPDEST PUSH2 0x1FF8 PUSH1 0x40 DUP4 ADD DUP5 PUSH2 0x1E19 JUMP JUMPDEST SWAP5 SWAP4 POP POP POP POP JUMP JUMPDEST PUSH0 PUSH1 0x40 DUP3 ADD SWAP1 POP PUSH2 0x2013 PUSH0 DUP4 ADD DUP6 PUSH2 0x1A09 JUMP JUMPDEST PUSH2 0x2020 PUSH1 0x20 DUP4 ADD DUP5 PUSH2 0x1E19 JUMP JUMPDEST SWAP4 SWAP3 POP POP POP JUMP JUMPDEST PUSH0 DUP2 SWAP1 POP SWAP3 SWAP2 POP POP JUMP JUMPDEST PUSH0 PUSH2 0x203C DUP4 DUP6 PUSH2 0x2027 JUMP JUMPDEST SWAP4 POP PUSH2 0x2049 DUP4 DUP6 DUP5 PUSH2 0x191B JUMP JUMPDEST DUP3 DUP5 ADD SWAP1 POP SWAP4 SWAP3 POP POP POP JUMP JUMPDEST PUSH0 PUSH2 0x2061 DUP3 DUP5 DUP7 PUSH2 0x2031 JUMP JUMPDEST SWAP2 POP DUP2 SWAP1 POP SWAP4 SWAP3 POP POP POP JUMP JUMPDEST PUSH0 DUP2 ISZERO ISZERO SWAP1 POP SWAP2 SWAP1 POP JUMP JUMPDEST PUSH2 0x2081 DUP2 PUSH2 0x206D JUMP JUMPDEST DUP3 MSTORE POP POP JUMP JUMPDEST PUSH0 DUP2 MLOAD SWAP1 POP SWAP2 SWAP1 POP JUMP JUMPDEST PUSH0 PUSH2 0x209B DUP3 PUSH2 0x2087 JUMP JUMPDEST PUSH2 0x20A5 DUP2 DUP6 PUSH2 0x1E28 JUMP JUMPDEST SWAP4 POP PUSH2 0x20B5 DUP2 DUP6 PUSH1 0x20 DUP7 ADD PUSH2 0x1EBF JUMP JUMPDEST PUSH2 0x20BE DUP2 PUSH2 0x1863 JUMP JUMPDEST DUP5 ADD SWAP2 POP POP SWAP3 SWAP2 POP POP JUMP JUMPDEST PUSH0 PUSH1 0x60 DUP3 ADD SWAP1 POP DUP2 DUP2 SUB PUSH0 DUP4 ADD MSTORE PUSH2 0x20E2 DUP2 DUP7 DUP9 PUSH2 0x1E38 JUMP JUMPDEST SWAP1 POP PUSH2 0x20F1 PUSH1 0x20 DUP4 ADD DUP6 PUSH2 0x2078 JUMP JUMPDEST DUP2 DUP2 SUB PUSH1 0x40 DUP4 ADD MSTORE PUSH2 0x2103 DUP2 DUP5 PUSH2 0x2091 JUMP JUMPDEST SWAP1 POP SWAP6 SWAP5 POP POP POP POP POP JUMP JUMPDEST PUSH0 PUSH1 0x20 DUP3 ADD SWAP1 POP PUSH2 0x2121 PUSH0 DUP4 ADD DUP5 PUSH2 0x1E19 JUMP JUMPDEST SWAP3 SWAP2 POP POP JUMP JUMPDEST PUSH32 0x4E487B7100000000000000000000000000000000000000000000000000000000 PUSH0 MSTORE PUSH1 0x11 PUSH1 0x4 MSTORE PUSH1 0x24 PUSH0 REVERT JUMPDEST PUSH0 DUP2 SWAP1 POP SWAP2 SWAP1 POP JUMP JUMPDEST PUSH0 PUSH2 0x2167 DUP3 PUSH2 0x2154 JUMP JUMPDEST SWAP2 POP PUSH32 0xFFFFFFFFFFFFFFFFFFFFFFFFFFFFFFFFFFFFFFFFFFFFFFFFFFFFFFFFFFFFFFFF DUP3 SUB PUSH2 0x2199 JUMPI PUSH2 0x2198 PUSH2 0x2127 JUMP JUMPDEST JUMPDEST PUSH1 0x1 DUP3 ADD SWAP1 POP SWAP2 SWAP1 POP JUMP JUMPDEST PUSH32 0x2E00000000000000000000000000000000000000000000000000000000000000 PUSH0 DUP3 ADD MSTORE POP JUMP JUMPDEST PUSH0 PUSH2 0x21D8 PUSH1 0x1 DUP4 PUSH2 0x1EB5 JUMP JUMPDEST SWAP2 POP PUSH2 0x21E3 DUP3 PUSH2 0x21A4 JUMP JUMPDEST PUSH1 0x1 DUP3 ADD SWAP1 POP SWAP2 SWAP1 POP JUMP JUMPDEST PUSH0 PUSH2 0x21F9 DUP3 DUP6 PUSH2 0x1ECD JUMP JUMPDEST SWAP2 POP PUSH2 0x2204 DUP3 PUSH2 0x21CC JUMP JUMPDEST SWAP2 POP PUSH2 0x2210 DUP3 DUP5 PUSH2 0x1ECD JUMP JUMPDEST SWAP2 POP DUP2 SWAP1 POP SWAP4 SWAP3 POP POP POP JUMP JUMPDEST PUSH0 PUSH2 0x2226 DUP3 PUSH2 0x2154 JUMP JUMPDEST SWAP2 POP PUSH2 0x2231 DUP4 PUSH2 0x2154 JUMP JUMPDEST SWAP3 POP DUP3 DUP3 SUB SWAP1 POP DUP2 DUP2 GT ISZERO PUSH2 0x2249 JUMPI PUSH2 0x2248 PUSH2 0x2127 JUMP JUMPDEST JUMPDEST SWAP3 SWAP2 POP POP JUMP JUMPDEST PUSH32 0x4E487B7100000000000000000000000000000000000000000000000000000000 PUSH0 MSTORE PUSH1 0x31 PUSH1 0x4 MSTORE PUSH1 0x24 PUSH0 REVERT INVALID PREVRANDAO PUSH10 0x616D6F6E6453746F7261 PUSH8 0x652E6E616D657370 PUSH2 0x6365 0x2E PUSH3 0x797465 PUSH20 0x34546F416464726573734D61704469616D6F6E64 MSTORE8 PUSH21 0x6F726167652E6E616D6573706163652E6164647265 PUSH20 0x73546F46616365744D6170A26469706673582212 KECCAK256 COINBASE SWAP11 PUSH23 0x6E1092C5C7112F191A1FB387AC729DF51628ABA24EF8CD 0xC6 0xC6 MOD DUP8 0xC1 RETURNDATACOPY PUSH5 0x736F6C6343 STOP ADDMOD BYTE STOP CALLER "
		},
		"gasEstimates": {
			"creation": {
				"codeDepositCost": "1793400",
				"executionCost": "1889",
				"totalCost": "1795289"
			},
			"external": {
				"diamondCut((address,uint8,bytes4[])[],address,bytes)": "infinite",
				"getSelector(string)": "infinite"
			},
			"internal": {
				"_addFacetCut(struct IDiamond.FacetCut calldata)": "infinite",
				"_checkFacetCut(struct IDiamond.FacetCut calldata)": "infinite",
				"_delegatecall(address,bytes calldata)": "infinite",
				"_isValidFacetCutAction(enum IDiamond.FacetCutAction)": "103",
				"_processAddFacetMapping(bytes4[] memory,address)": "infinite",
				"_processRemoveFacetMapping(bytes4[] memory,address)": "infinite",
				"_processReplaceFacetMapping(bytes4,address,address)": "infinite",
				"_removeFacetCut(struct IDiamond.FacetCut calldata)": "infinite",
				"_replaceFacetCut(struct IDiamond.FacetCut calldata)": "infinite"
			}
		},
		"methodIdentifiers": {
			"diamondCut((address,uint8,bytes4[])[],address,bytes)": "1f931c1c",
			"getSelector(string)": "80a003ff"
		}
	},
	"abi": [
		{
			"inputs": [
				{
					"internalType": "bytes4",
					"name": "selector",
					"type": "bytes4"
				},
				{
					"internalType": "address",
					"name": "newAddress",
					"type": "address"
				},
				{
					"internalType": "address",
					"name": "oldAddress",
					"type": "address"
				}
			],
			"name": "AddSelectorAlreadyExist",
			"type": "error"
		},
		{
			"inputs": [
				{
					"internalType": "address",
					"name": "key",
					"type": "address"
				}
			],
			"name": "AddressToFacetMapNonexistentKey",
			"type": "error"
		},
		{
			"inputs": [],
			"name": "FacetAddressZero",
			"type": "error"
		},
		{
			"inputs": [],
			"name": "FacetCutActionIllegal",
			"type": "error"
		},
		{
			"inputs": [],
			"name": "FacetCutArrayEmpty",
			"type": "error"
		},
		{
			"inputs": [],
			"name": "FunctionSelectorsEmpty",
			"type": "error"
		},
		{
			"inputs": [
				{
					"internalType": "bytes4",
					"name": "selector",
					"type": "bytes4"
				},
				{
					"internalType": "address",
					"name": "newAddress",
					"type": "address"
				}
			],
			"name": "ReplaceSelectorNotExist",
			"type": "error"
		},
		{
			"inputs": [
				{
					"internalType": "bytes4",
					"name": "selector",
					"type": "bytes4"
				}
			],
			"name": "SelectorIllegal",
			"type": "error"
		},
		{
			"anonymous": false,
			"inputs": [
				{
					"components": [
						{
							"internalType": "address",
							"name": "facetAddress",
							"type": "address"
						},
						{
							"internalType": "enum IDiamond.FacetCutAction",
							"name": "action",
							"type": "uint8"
						},
						{
							"internalType": "bytes4[]",
							"name": "functionSelectors",
							"type": "bytes4[]"
						}
					],
					"indexed": false,
					"internalType": "struct IDiamond.FacetCut[]",
					"name": "_diamondCut",
					"type": "tuple[]"
				},
				{
					"indexed": false,
					"internalType": "address",
					"name": "_init",
					"type": "address"
				},
				{
					"indexed": false,
					"internalType": "bytes",
					"name": "_calldata",
					"type": "bytes"
				}
			],
			"name": "DiamondCut",
			"type": "event"
		},
		{
			"anonymous": false,
			"inputs": [
				{
					"indexed": true,
					"internalType": "address",
					"name": "_init",
					"type": "address"
				},
				{
					"indexed": false,
					"internalType": "bytes",
					"name": "_calldata",
					"type": "bytes"
				},
				{
					"indexed": false,
					"internalType": "bool",
					"name": "ok",
					"type": "bool"
				},
				{
					"indexed": false,
					"internalType": "bytes",
					"name": "resultData",
					"type": "bytes"
				}
			],
			"name": "InitCalldataExecute",
			"type": "event"
		},
		{
			"inputs": [
				{
					"components": [
						{
							"internalType": "address",
							"name": "facetAddress",
							"type": "address"
						},
						{
							"internalType": "enum IDiamond.FacetCutAction",
							"name": "action",
							"type": "uint8"
						},
						{
							"internalType": "bytes4[]",
							"name": "functionSelectors",
							"type": "bytes4[]"
						}
					],
					"internalType": "struct IDiamond.FacetCut[]",
					"name": "_diamondCut",
					"type": "tuple[]"
				},
				{
					"internalType": "address",
					"name": "_init",
					"type": "address"
				},
				{
					"internalType": "bytes",
					"name": "_calldata",
					"type": "bytes"
				}
			],
			"name": "diamondCut",
			"outputs": [],
			"stateMutability": "nonpayable",
			"type": "function"
		},
		{
			"inputs": [
				{
					"internalType": "string",
					"name": "funcSign",
					"type": "string"
				}
			],
			"name": "getSelector",
			"outputs": [
				{
					"internalType": "bytes4",
					"name": "",
					"type": "bytes4"
				}
			],
			"stateMutability": "pure",
			"type": "function"
		}
	]
}