{
	"data": {
		"bytecode": {
			"linkReferences": {},
			"object": "6080604052348015600e575f80fd5b5061036b8061001c5f395ff3fe608060405234801561000f575f80fd5b506004361061004a575f3560e01c80635cfe34201461004e5780636c65a62f1461007e5780638783cf491461009c578063916d5743146100ba575b5f80fd5b61006860048036038101906100639190610214565b6100d8565b6040516100759190610259565b60405180910390f35b6100866100f1565b6040516100939190610259565b60405180910390f35b6100a4610134565b6040516100b19190610259565b60405180910390f35b6100c261015b565b6040516100cf9190610281565b60405180910390f35b5f816100e261016c565b5f018190555060019050919050565b5f60016100fc61016c565b5f0154111561012d5761010d61016c565b5f015f81548092919061011f906102c7565b919050555060019050610131565b5f90505b90565b5f61013d61016c565b5f015f81548092919061014f906102ee565b91905055506001905090565b5f61016461016c565b5f0154905090565b5f6101b36101ae6040518060400160405280601d81526020017f656970323533352e4c6f6769634f6e6546616365742e636f756e7465720000008152506101b8565b6101d4565b905090565b5f600182516020840120035f5260ff1960205f20169050919050565b5f819050919050565b5f80fd5b5f819050919050565b6101f3816101e1565b81146101fd575f80fd5b50565b5f8135905061020e816101ea565b92915050565b5f60208284031215610229576102286101dd565b5b5f61023684828501610200565b91505092915050565b5f8115159050919050565b6102538161023f565b82525050565b5f60208201905061026c5f83018461024a565b92915050565b61027b816101e1565b82525050565b5f6020820190506102945f830184610272565b92915050565b7f4e487b71000000000000000000000000000000000000000000000000000000005f52601160045260245ffd5b5f6102d1826101e1565b91505f82036102e3576102e261029a565b5b600182039050919050565b5f6102f8826101e1565b91507fffffffffffffffffffffffffffffffffffffffffffffffffffffffffffffffff820361032a5761032961029a565b5b60018201905091905056fea2646970667358221220b3197db42dfddb59be79f0143a2a0f5e13581cbad3530ef1628bae6ac1af1f7b64736f6c634300081a0033",
			"opcodes": "PUSH1 0x80 PUSH1 0x40 MSTORE CALLVALUE DUP1 ISZERO PUSH1 0xE JUMPI PUSH0 DUP1 REVERT JUMPDEST POP PUSH2 0x36B DUP1 PUSH2 0x1C PUSH0 CODECOPY PUSH0 RETURN INVALID PUSH1 0x80 PUSH1 0x40 MSTORE CALLVALUE DUP1 ISZERO PUSH2 0xF JUMPI PUSH0 DUP1 REVERT JUMPDEST POP PUSH1 0x4 CALLDATASIZE LT PUSH2 0x4A JUMPI PUSH0 CALLDATALOAD PUSH1 0xE0 SHR DUP1 PUSH4 0x5CFE3420 EQ PUSH2 0x4E JUMPI DUP1 PUSH4 0x6C65A62F EQ PUSH2 0x7E JUMPI DUP1 PUSH4 0x8783CF49 EQ PUSH2 0x9C JUMPI DUP1 PUSH4 0x916D5743 EQ PUSH2 0xBA JUMPI JUMPDEST PUSH0 DUP1 REVERT JUMPDEST PUSH2 0x68 PUSH1 0x4 DUP1 CALLDATASIZE SUB DUP2 ADD SWAP1 PUSH2 0x63 SWAP2 SWAP1 PUSH2 0x214 JUMP JUMPDEST PUSH2 0xD8 JUMP JUMPDEST PUSH1 0x40 MLOAD PUSH2 0x75 SWAP2 SWAP1 PUSH2 0x259 JUMP JUMPDEST PUSH1 0x40 MLOAD DUP1 SWAP2 SUB SWAP1 RETURN JUMPDEST PUSH2 0x86 PUSH2 0xF1 JUMP JUMPDEST PUSH1 0x40 MLOAD PUSH2 0x93 SWAP2 SWAP1 PUSH2 0x259 JUMP JUMPDEST PUSH1 0x40 MLOAD DUP1 SWAP2 SUB SWAP1 RETURN JUMPDEST PUSH2 0xA4 PUSH2 0x134 JUMP JUMPDEST PUSH1 0x40 MLOAD PUSH2 0xB1 SWAP2 SWAP1 PUSH2 0x259 JUMP JUMPDEST PUSH1 0x40 MLOAD DUP1 SWAP2 SUB SWAP1 RETURN JUMPDEST PUSH2 0xC2 PUSH2 0x15B JUMP JUMPDEST PUSH1 0x40 MLOAD PUSH2 0xCF SWAP2 SWAP1 PUSH2 0x281 JUMP JUMPDEST PUSH1 0x40 MLOAD DUP1 SWAP2 SUB SWAP1 RETURN JUMPDEST PUSH0 DUP2 PUSH2 0xE2 PUSH2 0x16C JUMP JUMPDEST PUSH0 ADD DUP2 SWAP1 SSTORE POP PUSH1 0x1 SWAP1 POP SWAP2 SWAP1 POP JUMP JUMPDEST PUSH0 PUSH1 0x1 PUSH2 0xFC PUSH2 0x16C JUMP JUMPDEST PUSH0 ADD SLOAD GT ISZERO PUSH2 0x12D JUMPI PUSH2 0x10D PUSH2 0x16C JUMP JUMPDEST PUSH0 ADD PUSH0 DUP2 SLOAD DUP1 SWAP3 SWAP2 SWAP1 PUSH2 0x11F SWAP1 PUSH2 0x2C7 JUMP JUMPDEST SWAP2 SWAP1 POP SSTORE POP PUSH1 0x1 SWAP1 POP PUSH2 0x131 JUMP JUMPDEST PUSH0 SWAP1 POP JUMPDEST SWAP1 JUMP JUMPDEST PUSH0 PUSH2 0x13D PUSH2 0x16C JUMP JUMPDEST PUSH0 ADD PUSH0 DUP2 SLOAD DUP1 SWAP3 SWAP2 SWAP1 PUSH2 0x14F SWAP1 PUSH2 0x2EE JUMP JUMPDEST SWAP2 SWAP1 POP SSTORE POP PUSH1 0x1 SWAP1 POP SWAP1 JUMP JUMPDEST PUSH0 PUSH2 0x164 PUSH2 0x16C JUMP JUMPDEST PUSH0 ADD SLOAD SWAP1 POP SWAP1 JUMP JUMPDEST PUSH0 PUSH2 0x1B3 PUSH2 0x1AE PUSH1 0x40 MLOAD DUP1 PUSH1 0x40 ADD PUSH1 0x40 MSTORE DUP1 PUSH1 0x1D DUP2 MSTORE PUSH1 0x20 ADD PUSH32 0x656970323533352E4C6F6769634F6E6546616365742E636F756E746572000000 DUP2 MSTORE POP PUSH2 0x1B8 JUMP JUMPDEST PUSH2 0x1D4 JUMP JUMPDEST SWAP1 POP SWAP1 JUMP JUMPDEST PUSH0 PUSH1 0x1 DUP3 MLOAD PUSH1 0x20 DUP5 ADD KECCAK256 SUB PUSH0 MSTORE PUSH1 0xFF NOT PUSH1 0x20 PUSH0 KECCAK256 AND SWAP1 POP SWAP2 SWAP1 POP JUMP JUMPDEST PUSH0 DUP2 SWAP1 POP SWAP2 SWAP1 POP JUMP JUMPDEST PUSH0 DUP1 REVERT JUMPDEST PUSH0 DUP2 SWAP1 POP SWAP2 SWAP1 POP JUMP JUMPDEST PUSH2 0x1F3 DUP2 PUSH2 0x1E1 JUMP JUMPDEST DUP2 EQ PUSH2 0x1FD JUMPI PUSH0 DUP1 REVERT JUMPDEST POP JUMP JUMPDEST PUSH0 DUP2 CALLDATALOAD SWAP1 POP PUSH2 0x20E DUP2 PUSH2 0x1EA JUMP JUMPDEST SWAP3 SWAP2 POP POP JUMP JUMPDEST PUSH0 PUSH1 0x20 DUP3 DUP5 SUB SLT ISZERO PUSH2 0x229 JUMPI PUSH2 0x228 PUSH2 0x1DD JUMP JUMPDEST JUMPDEST PUSH0 PUSH2 0x236 DUP5 DUP3 DUP6 ADD PUSH2 0x200 JUMP JUMPDEST SWAP2 POP POP SWAP3 SWAP2 POP POP JUMP JUMPDEST PUSH0 DUP2 ISZERO ISZERO SWAP1 POP SWAP2 SWAP1 POP JUMP JUMPDEST PUSH2 0x253 DUP2 PUSH2 0x23F JUMP JUMPDEST DUP3 MSTORE POP POP JUMP JUMPDEST PUSH0 PUSH1 0x20 DUP3 ADD SWAP1 POP PUSH2 0x26C PUSH0 DUP4 ADD DUP5 PUSH2 0x24A JUMP JUMPDEST SWAP3 SWAP2 POP POP JUMP JUMPDEST PUSH2 0x27B DUP2 PUSH2 0x1E1 JUMP JUMPDEST DUP3 MSTORE POP POP JUMP JUMPDEST PUSH0 PUSH1 0x20 DUP3 ADD SWAP1 POP PUSH2 0x294 PUSH0 DUP4 ADD DUP5 PUSH2 0x272 JUMP JUMPDEST SWAP3 SWAP2 POP POP JUMP JUMPDEST PUSH32 0x4E487B7100000000000000000000000000000000000000000000000000000000 PUSH0 MSTORE PUSH1 0x11 PUSH1 0x4 MSTORE PUSH1 0x24 PUSH0 REVERT JUMPDEST PUSH0 PUSH2 0x2D1 DUP3 PUSH2 0x1E1 JUMP JUMPDEST SWAP2 POP PUSH0 DUP3 SUB PUSH2 0x2E3 JUMPI PUSH2 0x2E2 PUSH2 0x29A JUMP JUMPDEST JUMPDEST PUSH1 0x1 DUP3 SUB SWAP1 POP SWAP2 SWAP1 POP JUMP JUMPDEST PUSH0 PUSH2 0x2F8 DUP3 PUSH2 0x1E1 JUMP JUMPDEST SWAP2 POP PUSH32 0xFFFFFFFFFFFFFFFFFFFFFFFFFFFFFFFFFFFFFFFFFFFFFFFFFFFFFFFFFFFFFFFF DUP3 SUB PUSH2 0x32A JUMPI PUSH2 0x329 PUSH2 0x29A JUMP JUMPDEST JUMPDEST PUSH1 0x1 DUP3 ADD SWAP1 POP SWAP2 SWAP1 POP JUMP INVALID LOG2 PUSH5 0x6970667358 0x22 SLT KECCAK256 0xB3 NOT PUSH30 0xB42DFDDB59BE79F0143A2A0F5E13581CBAD3530EF1628BAE6AC1AF1F7B64 PUSH20 0x6F6C634300081A00330000000000000000000000 "
		},
		"gasEstimates": {
			"creation": {
				"codeDepositCost": "175000",
				"executionCost": "218",
				"totalCost": "175218"
			},
			"external": {
				"decreMyCounter()": "infinite",
				"getMyCounter()": "2761",
				"increMyCounter()": "24999",
				"setMyCounter(uint256)": "22976"
			},
			"internal": {
				"_getCounterSlot()": "infinite"
			}
		},
		"methodIdentifiers": {
			"decreMyCounter()": "6c65a62f",
			"getMyCounter()": "916d5743",
			"increMyCounter()": "8783cf49",
			"setMyCounter(uint256)": "5cfe3420"
		}
	},
	"abi": [
		{
			"inputs": [],
			"name": "decreMyCounter",
			"outputs": [
				{
					"internalType": "bool",
					"name": "",
					"type": "bool"
				}
			],
			"stateMutability": "nonpayable",
			"type": "function"
		},
		{
			"inputs": [],
			"name": "getMyCounter",
			"outputs": [
				{
					"internalType": "uint256",
					"name": "",
					"type": "uint256"
				}
			],
			"stateMutability": "view",
			"type": "function"
		},
		{
			"inputs": [],
			"name": "increMyCounter",
			"outputs": [
				{
					"internalType": "bool",
					"name": "",
					"type": "bool"
				}
			],
			"stateMutability": "nonpayable",
			"type": "function"
		},
		{
			"inputs": [
				{
					"internalType": "uint256",
					"name": "_num",
					"type": "uint256"
				}
			],
			"name": "setMyCounter",
			"outputs": [
				{
					"internalType": "bool",
					"name": "",
					"type": "bool"
				}
			],
			"stateMutability": "nonpayable",
			"type": "function"
		}
	]
}