{
	"data": {
		"bytecode": {
			"linkReferences": {},
			"object": "6080604052348015600e575f80fd5b506111568061001c5f395ff3fe608060405234801561000f575f80fd5b5060043610610060575f3560e01c80631402f8cf146100645780631a09a63e1461008057806387aeff1a1461009c578063ae27d366146100a6578063d33bf9a6146100b0578063f76cfc98146100ba575b5f80fd5b61007e60048036038101906100799190610ad8565b6100d6565b005b61009a60048036038101906100959190610ad8565b61017e565b005b6100a461020b565b005b6100ae610268565b005b6100b86102bd565b005b6100d460048036038101906100cf9190610ad8565b61034a565b005b5f6100df6104dc565b90506100ea81610530565b7fcf34ef537ac33ee1ac626ca1587a0a7e8e51561e5514f8cb36afa1c5102b3bab60405161011790610b5d565b60405180910390a181156101325761012d610580565b610171565b6101706040518060400160405280600d81526020017f637573746f6d697a654c6f636b000000000000000000000000000000000000008152506105d5565b5b61017a8161064d565b5050565b6040518060600160405280602181526020016110b7602191395f6101a18261069d565b90506101ac81610530565b7fcf34ef537ac33ee1ac626ca1587a0a7e8e51561e5514f8cb36afa1c5102b3bab6040516101d990610beb565b60405180910390a182156101f4576101ef6106ed565b6101fd565b6101fc61075d565b5b6102068161064d565b505050565b5f6102146104dc565b905061021f81610530565b7fcf34ef537ac33ee1ac626ca1587a0a7e8e51561e5514f8cb36afa1c5102b3bab60405161024c90610c53565b60405180910390a161025c6107ea565b6102658161064d565b50565b5f6102716104dc565b905061027c81610530565b7fcf34ef537ac33ee1ac626ca1587a0a7e8e51561e5514f8cb36afa1c5102b3bab6040516102a990610cbb565b60405180910390a16102ba8161064d565b50565b6040518060400160405280601d81526020017f746573744e6f6e5265656e7472616e74437573746f6d697a654c6f636b0000008152505f6102fd8261069d565b905061030881610530565b7fcf34ef537ac33ee1ac626ca1587a0a7e8e51561e5514f8cb36afa1c5102b3bab60405161033590610cbb565b60405180910390a16103468161064d565b5050565b5f6103896040518060400160405280601481526020017f74657374436f6465426c6f636b5472794c6f636b00000000000000000000000081525061069d565b905061039481610829565b6103d3576040517f08c379a00000000000000000000000000000000000000000000000000000000081526004016103ca90610d23565b60405180910390fd5b7fcf34ef537ac33ee1ac626ca1587a0a7e8e51561e5514f8cb36afa1c5102b3bab60405161040090610d8b565b60405180910390a181156104515761044c6040518060400160405280601481526020017f74657374436f6465426c6f636b5472794c6f636b00000000000000000000000081525061083a565b610490565b61048f6040518060400160405280601181526020017f5f747279436f6465426c6f636b4c6f636b0000000000000000000000000000008152506105d5565b5b6104998161090f565b6104d8576040517f08c379a00000000000000000000000000000000000000000000000000000000081526004016104cf90610df3565b60405180910390fd5b5050565b6104e4610a83565b5f6105066040518060600160405280602681526020016110fb60269139610920565b905061052a6040518060600160405280602681526020016110fb602691398261093c565b91505090565b610539816109b9565b61057d57805f01516040517f0b8b113e0000000000000000000000000000000000000000000000000000000081526004016105749190610e71565b60405180910390fd5b50565b5f6105896104dc565b905061059481610530565b7fcf34ef537ac33ee1ac626ca1587a0a7e8e51561e5514f8cb36afa1c5102b3bab6040516105c190610b5d565b60405180910390a16105d28161064d565b50565b5f6105df8261069d565b90506105ea81610530565b7fcf34ef537ac33ee1ac626ca1587a0a7e8e51561e5514f8cb36afa1c5102b3bab8260405160200161061c9190610ef1565b6040516020818303038152906040526040516106389190610e71565b60405180910390a16106498161064d565b5050565b61065681610a00565b61069a57805f01516040517fd036eb5b0000000000000000000000000000000000000000000000000000000081526004016106919190610e71565b60405180910390fd5b50565b6106a5610a83565b5f6106d9836106cb6040518060600160405280602381526020016110d860239139610920565b610a4590919063ffffffff16565b90506106e5838261093c565b915050919050565b6040518060600160405280602181526020016110b7602191395f6107108261069d565b905061071b81610530565b7fcf34ef537ac33ee1ac626ca1587a0a7e8e51561e5514f8cb36afa1c5102b3bab60405161074890610f60565b60405180910390a16107598161064d565b5050565b6040518060400160405280600d81526020017f646966666572656e744c6f636b000000000000000000000000000000000000008152505f61079d8261069d565b90506107a881610530565b7fcf34ef537ac33ee1ac626ca1587a0a7e8e51561e5514f8cb36afa1c5102b3bab6040516107d590610fc8565b60405180910390a16107e68161064d565b5050565b7fcf34ef537ac33ee1ac626ca1587a0a7e8e51561e5514f8cb36afa1c5102b3bab60405161081790611030565b60405180910390a1610827610268565b565b5f610833826109b9565b9050919050565b5f6108448261069d565b905061084f81610829565b61088e576040517f08c379a000000000000000000000000000000000000000000000000000000000815260040161088590610d23565b60405180910390fd5b7fcf34ef537ac33ee1ac626ca1587a0a7e8e51561e5514f8cb36afa1c5102b3bab6040516108bb90611098565b60405180910390a16108cc8161090f565b61090b576040517f08c379a000000000000000000000000000000000000000000000000000000000815260040161090290610df3565b60405180910390fd5b5050565b5f61091982610a00565b9050919050565b5f600182516020840120035f5260ff1960205f20169050919050565b610944610a83565b5f61094e83610a69565b905061095981610a72565b1561099b57836040517f0f538feb0000000000000000000000000000000000000000000000000000000081526004016109929190610e71565b60405180910390fd5b60405180604001604052808581526020018481525091505092915050565b5f806109c88360200151610a69565b90506109d381610a72565b156109e1575f9150506109fb565b6109f5600182610a7c90919063ffffffff16565b60019150505b919050565b5f80610a0f8360200151610a69565b9050610a1a81610a72565b610a27575f915050610a40565b610a3a5f82610a7c90919063ffffffff16565b60019150505b919050565b5f815160208301818101805186825260208401832094508082525050505092915050565b5f819050919050565b5f815c9050919050565b80825d5050565b6040518060400160405280606081526020015f80191681525090565b5f80fd5b5f8115159050919050565b610ab781610aa3565b8114610ac1575f80fd5b50565b5f81359050610ad281610aae565b92915050565b5f60208284031215610aed57610aec610a9f565b5b5f610afa84828501610ac4565b91505092915050565b5f82825260208201905092915050565b7f74657374436f6465426c6f636b4c6f636b0000000000000000000000000000005f82015250565b5f610b47601183610b03565b9150610b5282610b13565b602082019050919050565b5f6020820190508181035f830152610b7481610b3b565b9050919050565b7f746573744e6f6e5265656e7472616e74437573746f6d697a654c6f636b4661695f8201527f6c00000000000000000000000000000000000000000000000000000000000000602082015250565b5f610bd5602183610b03565b9150610be082610b7b565b604082019050919050565b5f6020820190508181035f830152610c0281610bc9565b9050919050565b7f746573744e6f6e5265656e7472616e744c6f636b4661696c00000000000000005f82015250565b5f610c3d601883610b03565b9150610c4882610c09565b602082019050919050565b5f6020820190508181035f830152610c6a81610c31565b9050919050565b7f746573744e6f6e5265656e7472616e744c6f636b0000000000000000000000005f82015250565b5f610ca5601483610b03565b9150610cb082610c71565b602082019050919050565b5f6020820190508181035f830152610cd281610c99565b9050919050565b7f7472794c6f636b206661696c75726500000000000000000000000000000000005f82015250565b5f610d0d600f83610b03565b9150610d1882610cd9565b602082019050919050565b5f6020820190508181035f830152610d3a81610d01565b9050919050565b7f74657374436f6465426c6f636b5472794c6f636b0000000000000000000000005f82015250565b5f610d75601483610b03565b9150610d8082610d41565b602082019050919050565b5f6020820190508181035f830152610da281610d69565b9050919050565b7f747279556e6c6f636b206661696c7572650000000000000000000000000000005f82015250565b5f610ddd601183610b03565b9150610de882610da9565b602082019050919050565b5f6020820190508181035f830152610e0a81610dd1565b9050919050565b5f81519050919050565b8281835e5f83830152505050565b5f601f19601f8301169050919050565b5f610e4382610e11565b610e4d8185610b03565b9350610e5d818560208601610e1b565b610e6681610e29565b840191505092915050565b5f6020820190508181035f830152610e898184610e39565b905092915050565b7f5f676574437573746f6d697a654c6f636b000000000000000000000000000000815250565b5f81905092915050565b5f610ecb82610e11565b610ed58185610eb7565b9350610ee5818560208601610e1b565b80840191505092915050565b5f610efb82610e91565b601182019150610f0b8284610ec1565b915081905092915050565b7f5f757365437573746f6d697a6553616d654c6f636b00000000000000000000005f82015250565b5f610f4a601583610b03565b9150610f5582610f16565b602082019050919050565b5f6020820190508181035f830152610f7781610f3e565b9050919050565b7f5f757365437573746f6d697a65446966666572656e744c6f636b0000000000005f82015250565b5f610fb2601a83610b03565b9150610fbd82610f7e565b602082019050919050565b5f6020820190508181035f830152610fdf81610fa6565b9050919050565b7f5f75736544656661756c744c6f636b00000000000000000000000000000000005f82015250565b5f61101a600f83610b03565b915061102582610fe6565b602082019050919050565b5f6020820190508181035f8301526110478161100e565b9050919050565b7f5f747279436f6465426c6f636b4c6f636b0000000000000000000000000000005f82015250565b5f611082601183610b03565b915061108d8261104e565b602082019050919050565b5f6020820190508181035f8301526110af81611076565b905091905056fe746573744e6f6e5265656e7472616e74437573746f6d697a654c6f636b4661696c4e6f6e5265656e7472616e744c6f636b5472616e7369656e742e4e616d6573706163654e6f6e5265656e7472616e744c6f636b5472616e7369656e742e64656661756c742e6c6f636ba26469706673582212209b0605c0ad6a4994173641bfd754922ae3b39dd188f81db991d9b6a7c638d04064736f6c634300081a0033",
			"opcodes": "PUSH1 0x80 PUSH1 0x40 MSTORE CALLVALUE DUP1 ISZERO PUSH1 0xE JUMPI PUSH0 DUP1 REVERT JUMPDEST POP PUSH2 0x1156 DUP1 PUSH2 0x1C PUSH0 CODECOPY PUSH0 RETURN INVALID PUSH1 0x80 PUSH1 0x40 MSTORE CALLVALUE DUP1 ISZERO PUSH2 0xF JUMPI PUSH0 DUP1 REVERT JUMPDEST POP PUSH1 0x4 CALLDATASIZE LT PUSH2 0x60 JUMPI PUSH0 CALLDATALOAD PUSH1 0xE0 SHR DUP1 PUSH4 0x1402F8CF EQ PUSH2 0x64 JUMPI DUP1 PUSH4 0x1A09A63E EQ PUSH2 0x80 JUMPI DUP1 PUSH4 0x87AEFF1A EQ PUSH2 0x9C JUMPI DUP1 PUSH4 0xAE27D366 EQ PUSH2 0xA6 JUMPI DUP1 PUSH4 0xD33BF9A6 EQ PUSH2 0xB0 JUMPI DUP1 PUSH4 0xF76CFC98 EQ PUSH2 0xBA JUMPI JUMPDEST PUSH0 DUP1 REVERT JUMPDEST PUSH2 0x7E PUSH1 0x4 DUP1 CALLDATASIZE SUB DUP2 ADD SWAP1 PUSH2 0x79 SWAP2 SWAP1 PUSH2 0xAD8 JUMP JUMPDEST PUSH2 0xD6 JUMP JUMPDEST STOP JUMPDEST PUSH2 0x9A PUSH1 0x4 DUP1 CALLDATASIZE SUB DUP2 ADD SWAP1 PUSH2 0x95 SWAP2 SWAP1 PUSH2 0xAD8 JUMP JUMPDEST PUSH2 0x17E JUMP JUMPDEST STOP JUMPDEST PUSH2 0xA4 PUSH2 0x20B JUMP JUMPDEST STOP JUMPDEST PUSH2 0xAE PUSH2 0x268 JUMP JUMPDEST STOP JUMPDEST PUSH2 0xB8 PUSH2 0x2BD JUMP JUMPDEST STOP JUMPDEST PUSH2 0xD4 PUSH1 0x4 DUP1 CALLDATASIZE SUB DUP2 ADD SWAP1 PUSH2 0xCF SWAP2 SWAP1 PUSH2 0xAD8 JUMP JUMPDEST PUSH2 0x34A JUMP JUMPDEST STOP JUMPDEST PUSH0 PUSH2 0xDF PUSH2 0x4DC JUMP JUMPDEST SWAP1 POP PUSH2 0xEA DUP2 PUSH2 0x530 JUMP JUMPDEST PUSH32 0xCF34EF537AC33EE1AC626CA1587A0A7E8E51561E5514F8CB36AFA1C5102B3BAB PUSH1 0x40 MLOAD PUSH2 0x117 SWAP1 PUSH2 0xB5D JUMP JUMPDEST PUSH1 0x40 MLOAD DUP1 SWAP2 SUB SWAP1 LOG1 DUP2 ISZERO PUSH2 0x132 JUMPI PUSH2 0x12D PUSH2 0x580 JUMP JUMPDEST PUSH2 0x171 JUMP JUMPDEST PUSH2 0x170 PUSH1 0x40 MLOAD DUP1 PUSH1 0x40 ADD PUSH1 0x40 MSTORE DUP1 PUSH1 0xD DUP2 MSTORE PUSH1 0x20 ADD PUSH32 0x637573746F6D697A654C6F636B00000000000000000000000000000000000000 DUP2 MSTORE POP PUSH2 0x5D5 JUMP JUMPDEST JUMPDEST PUSH2 0x17A DUP2 PUSH2 0x64D JUMP JUMPDEST POP POP JUMP JUMPDEST PUSH1 0x40 MLOAD DUP1 PUSH1 0x60 ADD PUSH1 0x40 MSTORE DUP1 PUSH1 0x21 DUP2 MSTORE PUSH1 0x20 ADD PUSH2 0x10B7 PUSH1 0x21 SWAP2 CODECOPY PUSH0 PUSH2 0x1A1 DUP3 PUSH2 0x69D JUMP JUMPDEST SWAP1 POP PUSH2 0x1AC DUP2 PUSH2 0x530 JUMP JUMPDEST PUSH32 0xCF34EF537AC33EE1AC626CA1587A0A7E8E51561E5514F8CB36AFA1C5102B3BAB PUSH1 0x40 MLOAD PUSH2 0x1D9 SWAP1 PUSH2 0xBEB JUMP JUMPDEST PUSH1 0x40 MLOAD DUP1 SWAP2 SUB SWAP1 LOG1 DUP3 ISZERO PUSH2 0x1F4 JUMPI PUSH2 0x1EF PUSH2 0x6ED JUMP JUMPDEST PUSH2 0x1FD JUMP JUMPDEST PUSH2 0x1FC PUSH2 0x75D JUMP JUMPDEST JUMPDEST PUSH2 0x206 DUP2 PUSH2 0x64D JUMP JUMPDEST POP POP POP JUMP JUMPDEST PUSH0 PUSH2 0x214 PUSH2 0x4DC JUMP JUMPDEST SWAP1 POP PUSH2 0x21F DUP2 PUSH2 0x530 JUMP JUMPDEST PUSH32 0xCF34EF537AC33EE1AC626CA1587A0A7E8E51561E5514F8CB36AFA1C5102B3BAB PUSH1 0x40 MLOAD PUSH2 0x24C SWAP1 PUSH2 0xC53 JUMP JUMPDEST PUSH1 0x40 MLOAD DUP1 SWAP2 SUB SWAP1 LOG1 PUSH2 0x25C PUSH2 0x7EA JUMP JUMPDEST PUSH2 0x265 DUP2 PUSH2 0x64D JUMP JUMPDEST POP JUMP JUMPDEST PUSH0 PUSH2 0x271 PUSH2 0x4DC JUMP JUMPDEST SWAP1 POP PUSH2 0x27C DUP2 PUSH2 0x530 JUMP JUMPDEST PUSH32 0xCF34EF537AC33EE1AC626CA1587A0A7E8E51561E5514F8CB36AFA1C5102B3BAB PUSH1 0x40 MLOAD PUSH2 0x2A9 SWAP1 PUSH2 0xCBB JUMP JUMPDEST PUSH1 0x40 MLOAD DUP1 SWAP2 SUB SWAP1 LOG1 PUSH2 0x2BA DUP2 PUSH2 0x64D JUMP JUMPDEST POP JUMP JUMPDEST PUSH1 0x40 MLOAD DUP1 PUSH1 0x40 ADD PUSH1 0x40 MSTORE DUP1 PUSH1 0x1D DUP2 MSTORE PUSH1 0x20 ADD PUSH32 0x746573744E6F6E5265656E7472616E74437573746F6D697A654C6F636B000000 DUP2 MSTORE POP PUSH0 PUSH2 0x2FD DUP3 PUSH2 0x69D JUMP JUMPDEST SWAP1 POP PUSH2 0x308 DUP2 PUSH2 0x530 JUMP JUMPDEST PUSH32 0xCF34EF537AC33EE1AC626CA1587A0A7E8E51561E5514F8CB36AFA1C5102B3BAB PUSH1 0x40 MLOAD PUSH2 0x335 SWAP1 PUSH2 0xCBB JUMP JUMPDEST PUSH1 0x40 MLOAD DUP1 SWAP2 SUB SWAP1 LOG1 PUSH2 0x346 DUP2 PUSH2 0x64D JUMP JUMPDEST POP POP JUMP JUMPDEST PUSH0 PUSH2 0x389 PUSH1 0x40 MLOAD DUP1 PUSH1 0x40 ADD PUSH1 0x40 MSTORE DUP1 PUSH1 0x14 DUP2 MSTORE PUSH1 0x20 ADD PUSH32 0x74657374436F6465426C6F636B5472794C6F636B000000000000000000000000 DUP2 MSTORE POP PUSH2 0x69D JUMP JUMPDEST SWAP1 POP PUSH2 0x394 DUP2 PUSH2 0x829 JUMP JUMPDEST PUSH2 0x3D3 JUMPI PUSH1 0x40 MLOAD PUSH32 0x8C379A000000000000000000000000000000000000000000000000000000000 DUP2 MSTORE PUSH1 0x4 ADD PUSH2 0x3CA SWAP1 PUSH2 0xD23 JUMP JUMPDEST PUSH1 0x40 MLOAD DUP1 SWAP2 SUB SWAP1 REVERT JUMPDEST PUSH32 0xCF34EF537AC33EE1AC626CA1587A0A7E8E51561E5514F8CB36AFA1C5102B3BAB PUSH1 0x40 MLOAD PUSH2 0x400 SWAP1 PUSH2 0xD8B JUMP JUMPDEST PUSH1 0x40 MLOAD DUP1 SWAP2 SUB SWAP1 LOG1 DUP2 ISZERO PUSH2 0x451 JUMPI PUSH2 0x44C PUSH1 0x40 MLOAD DUP1 PUSH1 0x40 ADD PUSH1 0x40 MSTORE DUP1 PUSH1 0x14 DUP2 MSTORE PUSH1 0x20 ADD PUSH32 0x74657374436F6465426C6F636B5472794C6F636B000000000000000000000000 DUP2 MSTORE POP PUSH2 0x83A JUMP JUMPDEST PUSH2 0x490 JUMP JUMPDEST PUSH2 0x48F PUSH1 0x40 MLOAD DUP1 PUSH1 0x40 ADD PUSH1 0x40 MSTORE DUP1 PUSH1 0x11 DUP2 MSTORE PUSH1 0x20 ADD PUSH32 0x5F747279436F6465426C6F636B4C6F636B000000000000000000000000000000 DUP2 MSTORE POP PUSH2 0x5D5 JUMP JUMPDEST JUMPDEST PUSH2 0x499 DUP2 PUSH2 0x90F JUMP JUMPDEST PUSH2 0x4D8 JUMPI PUSH1 0x40 MLOAD PUSH32 0x8C379A000000000000000000000000000000000000000000000000000000000 DUP2 MSTORE PUSH1 0x4 ADD PUSH2 0x4CF SWAP1 PUSH2 0xDF3 JUMP JUMPDEST PUSH1 0x40 MLOAD DUP1 SWAP2 SUB SWAP1 REVERT JUMPDEST POP POP JUMP JUMPDEST PUSH2 0x4E4 PUSH2 0xA83 JUMP JUMPDEST PUSH0 PUSH2 0x506 PUSH1 0x40 MLOAD DUP1 PUSH1 0x60 ADD PUSH1 0x40 MSTORE DUP1 PUSH1 0x26 DUP2 MSTORE PUSH1 0x20 ADD PUSH2 0x10FB PUSH1 0x26 SWAP2 CODECOPY PUSH2 0x920 JUMP JUMPDEST SWAP1 POP PUSH2 0x52A PUSH1 0x40 MLOAD DUP1 PUSH1 0x60 ADD PUSH1 0x40 MSTORE DUP1 PUSH1 0x26 DUP2 MSTORE PUSH1 0x20 ADD PUSH2 0x10FB PUSH1 0x26 SWAP2 CODECOPY DUP3 PUSH2 0x93C JUMP JUMPDEST SWAP2 POP POP SWAP1 JUMP JUMPDEST PUSH2 0x539 DUP2 PUSH2 0x9B9 JUMP JUMPDEST PUSH2 0x57D JUMPI DUP1 PUSH0 ADD MLOAD PUSH1 0x40 MLOAD PUSH32 0xB8B113E00000000000000000000000000000000000000000000000000000000 DUP2 MSTORE PUSH1 0x4 ADD PUSH2 0x574 SWAP2 SWAP1 PUSH2 0xE71 JUMP JUMPDEST PUSH1 0x40 MLOAD DUP1 SWAP2 SUB SWAP1 REVERT JUMPDEST POP JUMP JUMPDEST PUSH0 PUSH2 0x589 PUSH2 0x4DC JUMP JUMPDEST SWAP1 POP PUSH2 0x594 DUP2 PUSH2 0x530 JUMP JUMPDEST PUSH32 0xCF34EF537AC33EE1AC626CA1587A0A7E8E51561E5514F8CB36AFA1C5102B3BAB PUSH1 0x40 MLOAD PUSH2 0x5C1 SWAP1 PUSH2 0xB5D JUMP JUMPDEST PUSH1 0x40 MLOAD DUP1 SWAP2 SUB SWAP1 LOG1 PUSH2 0x5D2 DUP2 PUSH2 0x64D JUMP JUMPDEST POP JUMP JUMPDEST PUSH0 PUSH2 0x5DF DUP3 PUSH2 0x69D JUMP JUMPDEST SWAP1 POP PUSH2 0x5EA DUP2 PUSH2 0x530 JUMP JUMPDEST PUSH32 0xCF34EF537AC33EE1AC626CA1587A0A7E8E51561E5514F8CB36AFA1C5102B3BAB DUP3 PUSH1 0x40 MLOAD PUSH1 0x20 ADD PUSH2 0x61C SWAP2 SWAP1 PUSH2 0xEF1 JUMP JUMPDEST PUSH1 0x40 MLOAD PUSH1 0x20 DUP2 DUP4 SUB SUB DUP2 MSTORE SWAP1 PUSH1 0x40 MSTORE PUSH1 0x40 MLOAD PUSH2 0x638 SWAP2 SWAP1 PUSH2 0xE71 JUMP JUMPDEST PUSH1 0x40 MLOAD DUP1 SWAP2 SUB SWAP1 LOG1 PUSH2 0x649 DUP2 PUSH2 0x64D JUMP JUMPDEST POP POP JUMP JUMPDEST PUSH2 0x656 DUP2 PUSH2 0xA00 JUMP JUMPDEST PUSH2 0x69A JUMPI DUP1 PUSH0 ADD MLOAD PUSH1 0x40 MLOAD PUSH32 0xD036EB5B00000000000000000000000000000000000000000000000000000000 DUP2 MSTORE PUSH1 0x4 ADD PUSH2 0x691 SWAP2 SWAP1 PUSH2 0xE71 JUMP JUMPDEST PUSH1 0x40 MLOAD DUP1 SWAP2 SUB SWAP1 REVERT JUMPDEST POP JUMP JUMPDEST PUSH2 0x6A5 PUSH2 0xA83 JUMP JUMPDEST PUSH0 PUSH2 0x6D9 DUP4 PUSH2 0x6CB PUSH1 0x40 MLOAD DUP1 PUSH1 0x60 ADD PUSH1 0x40 MSTORE DUP1 PUSH1 0x23 DUP2 MSTORE PUSH1 0x20 ADD PUSH2 0x10D8 PUSH1 0x23 SWAP2 CODECOPY PUSH2 0x920 JUMP JUMPDEST PUSH2 0xA45 SWAP1 SWAP2 SWAP1 PUSH4 0xFFFFFFFF AND JUMP JUMPDEST SWAP1 POP PUSH2 0x6E5 DUP4 DUP3 PUSH2 0x93C JUMP JUMPDEST SWAP2 POP POP SWAP2 SWAP1 POP JUMP JUMPDEST PUSH1 0x40 MLOAD DUP1 PUSH1 0x60 ADD PUSH1 0x40 MSTORE DUP1 PUSH1 0x21 DUP2 MSTORE PUSH1 0x20 ADD PUSH2 0x10B7 PUSH1 0x21 SWAP2 CODECOPY PUSH0 PUSH2 0x710 DUP3 PUSH2 0x69D JUMP JUMPDEST SWAP1 POP PUSH2 0x71B DUP2 PUSH2 0x530 JUMP JUMPDEST PUSH32 0xCF34EF537AC33EE1AC626CA1587A0A7E8E51561E5514F8CB36AFA1C5102B3BAB PUSH1 0x40 MLOAD PUSH2 0x748 SWAP1 PUSH2 0xF60 JUMP JUMPDEST PUSH1 0x40 MLOAD DUP1 SWAP2 SUB SWAP1 LOG1 PUSH2 0x759 DUP2 PUSH2 0x64D JUMP JUMPDEST POP POP JUMP JUMPDEST PUSH1 0x40 MLOAD DUP1 PUSH1 0x40 ADD PUSH1 0x40 MSTORE DUP1 PUSH1 0xD DUP2 MSTORE PUSH1 0x20 ADD PUSH32 0x646966666572656E744C6F636B00000000000000000000000000000000000000 DUP2 MSTORE POP PUSH0 PUSH2 0x79D DUP3 PUSH2 0x69D JUMP JUMPDEST SWAP1 POP PUSH2 0x7A8 DUP2 PUSH2 0x530 JUMP JUMPDEST PUSH32 0xCF34EF537AC33EE1AC626CA1587A0A7E8E51561E5514F8CB36AFA1C5102B3BAB PUSH1 0x40 MLOAD PUSH2 0x7D5 SWAP1 PUSH2 0xFC8 JUMP JUMPDEST PUSH1 0x40 MLOAD DUP1 SWAP2 SUB SWAP1 LOG1 PUSH2 0x7E6 DUP2 PUSH2 0x64D JUMP JUMPDEST POP POP JUMP JUMPDEST PUSH32 0xCF34EF537AC33EE1AC626CA1587A0A7E8E51561E5514F8CB36AFA1C5102B3BAB PUSH1 0x40 MLOAD PUSH2 0x817 SWAP1 PUSH2 0x1030 JUMP JUMPDEST PUSH1 0x40 MLOAD DUP1 SWAP2 SUB SWAP1 LOG1 PUSH2 0x827 PUSH2 0x268 JUMP JUMPDEST JUMP JUMPDEST PUSH0 PUSH2 0x833 DUP3 PUSH2 0x9B9 JUMP JUMPDEST SWAP1 POP SWAP2 SWAP1 POP JUMP JUMPDEST PUSH0 PUSH2 0x844 DUP3 PUSH2 0x69D JUMP JUMPDEST SWAP1 POP PUSH2 0x84F DUP2 PUSH2 0x829 JUMP JUMPDEST PUSH2 0x88E JUMPI PUSH1 0x40 MLOAD PUSH32 0x8C379A000000000000000000000000000000000000000000000000000000000 DUP2 MSTORE PUSH1 0x4 ADD PUSH2 0x885 SWAP1 PUSH2 0xD23 JUMP JUMPDEST PUSH1 0x40 MLOAD DUP1 SWAP2 SUB SWAP1 REVERT JUMPDEST PUSH32 0xCF34EF537AC33EE1AC626CA1587A0A7E8E51561E5514F8CB36AFA1C5102B3BAB PUSH1 0x40 MLOAD PUSH2 0x8BB SWAP1 PUSH2 0x1098 JUMP JUMPDEST PUSH1 0x40 MLOAD DUP1 SWAP2 SUB SWAP1 LOG1 PUSH2 0x8CC DUP2 PUSH2 0x90F JUMP JUMPDEST PUSH2 0x90B JUMPI PUSH1 0x40 MLOAD PUSH32 0x8C379A000000000000000000000000000000000000000000000000000000000 DUP2 MSTORE PUSH1 0x4 ADD PUSH2 0x902 SWAP1 PUSH2 0xDF3 JUMP JUMPDEST PUSH1 0x40 MLOAD DUP1 SWAP2 SUB SWAP1 REVERT JUMPDEST POP POP JUMP JUMPDEST PUSH0 PUSH2 0x919 DUP3 PUSH2 0xA00 JUMP JUMPDEST SWAP1 POP SWAP2 SWAP1 POP JUMP JUMPDEST PUSH0 PUSH1 0x1 DUP3 MLOAD PUSH1 0x20 DUP5 ADD KECCAK256 SUB PUSH0 MSTORE PUSH1 0xFF NOT PUSH1 0x20 PUSH0 KECCAK256 AND SWAP1 POP SWAP2 SWAP1 POP JUMP JUMPDEST PUSH2 0x944 PUSH2 0xA83 JUMP JUMPDEST PUSH0 PUSH2 0x94E DUP4 PUSH2 0xA69 JUMP JUMPDEST SWAP1 POP PUSH2 0x959 DUP2 PUSH2 0xA72 JUMP JUMPDEST ISZERO PUSH2 0x99B JUMPI DUP4 PUSH1 0x40 MLOAD PUSH32 0xF538FEB00000000000000000000000000000000000000000000000000000000 DUP2 MSTORE PUSH1 0x4 ADD PUSH2 0x992 SWAP2 SWAP1 PUSH2 0xE71 JUMP JUMPDEST PUSH1 0x40 MLOAD DUP1 SWAP2 SUB SWAP1 REVERT JUMPDEST PUSH1 0x40 MLOAD DUP1 PUSH1 0x40 ADD PUSH1 0x40 MSTORE DUP1 DUP6 DUP2 MSTORE PUSH1 0x20 ADD DUP5 DUP2 MSTORE POP SWAP2 POP POP SWAP3 SWAP2 POP POP JUMP JUMPDEST PUSH0 DUP1 PUSH2 0x9C8 DUP4 PUSH1 0x20 ADD MLOAD PUSH2 0xA69 JUMP JUMPDEST SWAP1 POP PUSH2 0x9D3 DUP2 PUSH2 0xA72 JUMP JUMPDEST ISZERO PUSH2 0x9E1 JUMPI PUSH0 SWAP2 POP POP PUSH2 0x9FB JUMP JUMPDEST PUSH2 0x9F5 PUSH1 0x1 DUP3 PUSH2 0xA7C SWAP1 SWAP2 SWAP1 PUSH4 0xFFFFFFFF AND JUMP JUMPDEST PUSH1 0x1 SWAP2 POP POP JUMPDEST SWAP2 SWAP1 POP JUMP JUMPDEST PUSH0 DUP1 PUSH2 0xA0F DUP4 PUSH1 0x20 ADD MLOAD PUSH2 0xA69 JUMP JUMPDEST SWAP1 POP PUSH2 0xA1A DUP2 PUSH2 0xA72 JUMP JUMPDEST PUSH2 0xA27 JUMPI PUSH0 SWAP2 POP POP PUSH2 0xA40 JUMP JUMPDEST PUSH2 0xA3A PUSH0 DUP3 PUSH2 0xA7C SWAP1 SWAP2 SWAP1 PUSH4 0xFFFFFFFF AND JUMP JUMPDEST PUSH1 0x1 SWAP2 POP POP JUMPDEST SWAP2 SWAP1 POP JUMP JUMPDEST PUSH0 DUP2 MLOAD PUSH1 0x20 DUP4 ADD DUP2 DUP2 ADD DUP1 MLOAD DUP7 DUP3 MSTORE PUSH1 0x20 DUP5 ADD DUP4 KECCAK256 SWAP5 POP DUP1 DUP3 MSTORE POP POP POP POP SWAP3 SWAP2 POP POP JUMP JUMPDEST PUSH0 DUP2 SWAP1 POP SWAP2 SWAP1 POP JUMP JUMPDEST PUSH0 DUP2 TLOAD SWAP1 POP SWAP2 SWAP1 POP JUMP JUMPDEST DUP1 DUP3 TSTORE POP POP JUMP JUMPDEST PUSH1 0x40 MLOAD DUP1 PUSH1 0x40 ADD PUSH1 0x40 MSTORE DUP1 PUSH1 0x60 DUP2 MSTORE PUSH1 0x20 ADD PUSH0 DUP1 NOT AND DUP2 MSTORE POP SWAP1 JUMP JUMPDEST PUSH0 DUP1 REVERT JUMPDEST PUSH0 DUP2 ISZERO ISZERO SWAP1 POP SWAP2 SWAP1 POP JUMP JUMPDEST PUSH2 0xAB7 DUP2 PUSH2 0xAA3 JUMP JUMPDEST DUP2 EQ PUSH2 0xAC1 JUMPI PUSH0 DUP1 REVERT JUMPDEST POP JUMP JUMPDEST PUSH0 DUP2 CALLDATALOAD SWAP1 POP PUSH2 0xAD2 DUP2 PUSH2 0xAAE JUMP JUMPDEST SWAP3 SWAP2 POP POP JUMP JUMPDEST PUSH0 PUSH1 0x20 DUP3 DUP5 SUB SLT ISZERO PUSH2 0xAED JUMPI PUSH2 0xAEC PUSH2 0xA9F JUMP JUMPDEST JUMPDEST PUSH0 PUSH2 0xAFA DUP5 DUP3 DUP6 ADD PUSH2 0xAC4 JUMP JUMPDEST SWAP2 POP POP SWAP3 SWAP2 POP POP JUMP JUMPDEST PUSH0 DUP3 DUP3 MSTORE PUSH1 0x20 DUP3 ADD SWAP1 POP SWAP3 SWAP2 POP POP JUMP JUMPDEST PUSH32 0x74657374436F6465426C6F636B4C6F636B000000000000000000000000000000 PUSH0 DUP3 ADD MSTORE POP JUMP JUMPDEST PUSH0 PUSH2 0xB47 PUSH1 0x11 DUP4 PUSH2 0xB03 JUMP JUMPDEST SWAP2 POP PUSH2 0xB52 DUP3 PUSH2 0xB13 JUMP JUMPDEST PUSH1 0x20 DUP3 ADD SWAP1 POP SWAP2 SWAP1 POP JUMP JUMPDEST PUSH0 PUSH1 0x20 DUP3 ADD SWAP1 POP DUP2 DUP2 SUB PUSH0 DUP4 ADD MSTORE PUSH2 0xB74 DUP2 PUSH2 0xB3B JUMP JUMPDEST SWAP1 POP SWAP2 SWAP1 POP JUMP JUMPDEST PUSH32 0x746573744E6F6E5265656E7472616E74437573746F6D697A654C6F636B466169 PUSH0 DUP3 ADD MSTORE PUSH32 0x6C00000000000000000000000000000000000000000000000000000000000000 PUSH1 0x20 DUP3 ADD MSTORE POP JUMP JUMPDEST PUSH0 PUSH2 0xBD5 PUSH1 0x21 DUP4 PUSH2 0xB03 JUMP JUMPDEST SWAP2 POP PUSH2 0xBE0 DUP3 PUSH2 0xB7B JUMP JUMPDEST PUSH1 0x40 DUP3 ADD SWAP1 POP SWAP2 SWAP1 POP JUMP JUMPDEST PUSH0 PUSH1 0x20 DUP3 ADD SWAP1 POP DUP2 DUP2 SUB PUSH0 DUP4 ADD MSTORE PUSH2 0xC02 DUP2 PUSH2 0xBC9 JUMP JUMPDEST SWAP1 POP SWAP2 SWAP1 POP JUMP JUMPDEST PUSH32 0x746573744E6F6E5265656E7472616E744C6F636B4661696C0000000000000000 PUSH0 DUP3 ADD MSTORE POP JUMP JUMPDEST PUSH0 PUSH2 0xC3D PUSH1 0x18 DUP4 PUSH2 0xB03 JUMP JUMPDEST SWAP2 POP PUSH2 0xC48 DUP3 PUSH2 0xC09 JUMP JUMPDEST PUSH1 0x20 DUP3 ADD SWAP1 POP SWAP2 SWAP1 POP JUMP JUMPDEST PUSH0 PUSH1 0x20 DUP3 ADD SWAP1 POP DUP2 DUP2 SUB PUSH0 DUP4 ADD MSTORE PUSH2 0xC6A DUP2 PUSH2 0xC31 JUMP JUMPDEST SWAP1 POP SWAP2 SWAP1 POP JUMP JUMPDEST PUSH32 0x746573744E6F6E5265656E7472616E744C6F636B000000000000000000000000 PUSH0 DUP3 ADD MSTORE POP JUMP JUMPDEST PUSH0 PUSH2 0xCA5 PUSH1 0x14 DUP4 PUSH2 0xB03 JUMP JUMPDEST SWAP2 POP PUSH2 0xCB0 DUP3 PUSH2 0xC71 JUMP JUMPDEST PUSH1 0x20 DUP3 ADD SWAP1 POP SWAP2 SWAP1 POP JUMP JUMPDEST PUSH0 PUSH1 0x20 DUP3 ADD SWAP1 POP DUP2 DUP2 SUB PUSH0 DUP4 ADD MSTORE PUSH2 0xCD2 DUP2 PUSH2 0xC99 JUMP JUMPDEST SWAP1 POP SWAP2 SWAP1 POP JUMP JUMPDEST PUSH32 0x7472794C6F636B206661696C7572650000000000000000000000000000000000 PUSH0 DUP3 ADD MSTORE POP JUMP JUMPDEST PUSH0 PUSH2 0xD0D PUSH1 0xF DUP4 PUSH2 0xB03 JUMP JUMPDEST SWAP2 POP PUSH2 0xD18 DUP3 PUSH2 0xCD9 JUMP JUMPDEST PUSH1 0x20 DUP3 ADD SWAP1 POP SWAP2 SWAP1 POP JUMP JUMPDEST PUSH0 PUSH1 0x20 DUP3 ADD SWAP1 POP DUP2 DUP2 SUB PUSH0 DUP4 ADD MSTORE PUSH2 0xD3A DUP2 PUSH2 0xD01 JUMP JUMPDEST SWAP1 POP SWAP2 SWAP1 POP JUMP JUMPDEST PUSH32 0x74657374436F6465426C6F636B5472794C6F636B000000000000000000000000 PUSH0 DUP3 ADD MSTORE POP JUMP JUMPDEST PUSH0 PUSH2 0xD75 PUSH1 0x14 DUP4 PUSH2 0xB03 JUMP JUMPDEST SWAP2 POP PUSH2 0xD80 DUP3 PUSH2 0xD41 JUMP JUMPDEST PUSH1 0x20 DUP3 ADD SWAP1 POP SWAP2 SWAP1 POP JUMP JUMPDEST PUSH0 PUSH1 0x20 DUP3 ADD SWAP1 POP DUP2 DUP2 SUB PUSH0 DUP4 ADD MSTORE PUSH2 0xDA2 DUP2 PUSH2 0xD69 JUMP JUMPDEST SWAP1 POP SWAP2 SWAP1 POP JUMP JUMPDEST PUSH32 0x747279556E6C6F636B206661696C757265000000000000000000000000000000 PUSH0 DUP3 ADD MSTORE POP JUMP JUMPDEST PUSH0 PUSH2 0xDDD PUSH1 0x11 DUP4 PUSH2 0xB03 JUMP JUMPDEST SWAP2 POP PUSH2 0xDE8 DUP3 PUSH2 0xDA9 JUMP JUMPDEST PUSH1 0x20 DUP3 ADD SWAP1 POP SWAP2 SWAP1 POP JUMP JUMPDEST PUSH0 PUSH1 0x20 DUP3 ADD SWAP1 POP DUP2 DUP2 SUB PUSH0 DUP4 ADD MSTORE PUSH2 0xE0A DUP2 PUSH2 0xDD1 JUMP JUMPDEST SWAP1 POP SWAP2 SWAP1 POP JUMP JUMPDEST PUSH0 DUP2 MLOAD SWAP1 POP SWAP2 SWAP1 POP JUMP JUMPDEST DUP3 DUP2 DUP4 MCOPY PUSH0 DUP4 DUP4 ADD MSTORE POP POP POP JUMP JUMPDEST PUSH0 PUSH1 0x1F NOT PUSH1 0x1F DUP4 ADD AND SWAP1 POP SWAP2 SWAP1 POP JUMP JUMPDEST PUSH0 PUSH2 0xE43 DUP3 PUSH2 0xE11 JUMP JUMPDEST PUSH2 0xE4D DUP2 DUP6 PUSH2 0xB03 JUMP JUMPDEST SWAP4 POP PUSH2 0xE5D DUP2 DUP6 PUSH1 0x20 DUP7 ADD PUSH2 0xE1B JUMP JUMPDEST PUSH2 0xE66 DUP2 PUSH2 0xE29 JUMP JUMPDEST DUP5 ADD SWAP2 POP POP SWAP3 SWAP2 POP POP JUMP JUMPDEST PUSH0 PUSH1 0x20 DUP3 ADD SWAP1 POP DUP2 DUP2 SUB PUSH0 DUP4 ADD MSTORE PUSH2 0xE89 DUP2 DUP5 PUSH2 0xE39 JUMP JUMPDEST SWAP1 POP SWAP3 SWAP2 POP POP JUMP JUMPDEST PUSH32 0x5F676574437573746F6D697A654C6F636B000000000000000000000000000000 DUP2 MSTORE POP JUMP JUMPDEST PUSH0 DUP2 SWAP1 POP SWAP3 SWAP2 POP POP JUMP JUMPDEST PUSH0 PUSH2 0xECB DUP3 PUSH2 0xE11 JUMP JUMPDEST PUSH2 0xED5 DUP2 DUP6 PUSH2 0xEB7 JUMP JUMPDEST SWAP4 POP PUSH2 0xEE5 DUP2 DUP6 PUSH1 0x20 DUP7 ADD PUSH2 0xE1B JUMP JUMPDEST DUP1 DUP5 ADD SWAP2 POP POP SWAP3 SWAP2 POP POP JUMP JUMPDEST PUSH0 PUSH2 0xEFB DUP3 PUSH2 0xE91 JUMP JUMPDEST PUSH1 0x11 DUP3 ADD SWAP2 POP PUSH2 0xF0B DUP3 DUP5 PUSH2 0xEC1 JUMP JUMPDEST SWAP2 POP DUP2 SWAP1 POP SWAP3 SWAP2 POP POP JUMP JUMPDEST PUSH32 0x5F757365437573746F6D697A6553616D654C6F636B0000000000000000000000 PUSH0 DUP3 ADD MSTORE POP JUMP JUMPDEST PUSH0 PUSH2 0xF4A PUSH1 0x15 DUP4 PUSH2 0xB03 JUMP JUMPDEST SWAP2 POP PUSH2 0xF55 DUP3 PUSH2 0xF16 JUMP JUMPDEST PUSH1 0x20 DUP3 ADD SWAP1 POP SWAP2 SWAP1 POP JUMP JUMPDEST PUSH0 PUSH1 0x20 DUP3 ADD SWAP1 POP DUP2 DUP2 SUB PUSH0 DUP4 ADD MSTORE PUSH2 0xF77 DUP2 PUSH2 0xF3E JUMP JUMPDEST SWAP1 POP SWAP2 SWAP1 POP JUMP JUMPDEST PUSH32 0x5F757365437573746F6D697A65446966666572656E744C6F636B000000000000 PUSH0 DUP3 ADD MSTORE POP JUMP JUMPDEST PUSH0 PUSH2 0xFB2 PUSH1 0x1A DUP4 PUSH2 0xB03 JUMP JUMPDEST SWAP2 POP PUSH2 0xFBD DUP3 PUSH2 0xF7E JUMP JUMPDEST PUSH1 0x20 DUP3 ADD SWAP1 POP SWAP2 SWAP1 POP JUMP JUMPDEST PUSH0 PUSH1 0x20 DUP3 ADD SWAP1 POP DUP2 DUP2 SUB PUSH0 DUP4 ADD MSTORE PUSH2 0xFDF DUP2 PUSH2 0xFA6 JUMP JUMPDEST SWAP1 POP SWAP2 SWAP1 POP JUMP JUMPDEST PUSH32 0x5F75736544656661756C744C6F636B0000000000000000000000000000000000 PUSH0 DUP3 ADD MSTORE POP JUMP JUMPDEST PUSH0 PUSH2 0x101A PUSH1 0xF DUP4 PUSH2 0xB03 JUMP JUMPDEST SWAP2 POP PUSH2 0x1025 DUP3 PUSH2 0xFE6 JUMP JUMPDEST PUSH1 0x20 DUP3 ADD SWAP1 POP SWAP2 SWAP1 POP JUMP JUMPDEST PUSH0 PUSH1 0x20 DUP3 ADD SWAP1 POP DUP2 DUP2 SUB PUSH0 DUP4 ADD MSTORE PUSH2 0x1047 DUP2 PUSH2 0x100E JUMP JUMPDEST SWAP1 POP SWAP2 SWAP1 POP JUMP JUMPDEST PUSH32 0x5F747279436F6465426C6F636B4C6F636B000000000000000000000000000000 PUSH0 DUP3 ADD MSTORE POP JUMP JUMPDEST PUSH0 PUSH2 0x1082 PUSH1 0x11 DUP4 PUSH2 0xB03 JUMP JUMPDEST SWAP2 POP PUSH2 0x108D DUP3 PUSH2 0x104E JUMP JUMPDEST PUSH1 0x20 DUP3 ADD SWAP1 POP SWAP2 SWAP1 POP JUMP JUMPDEST PUSH0 PUSH1 0x20 DUP3 ADD SWAP1 POP DUP2 DUP2 SUB PUSH0 DUP4 ADD MSTORE PUSH2 0x10AF DUP2 PUSH2 0x1076 JUMP JUMPDEST SWAP1 POP SWAP2 SWAP1 POP JUMP INVALID PUSH21 0x6573744E6F6E5265656E7472616E74437573746F6D PUSH10 0x7A654C6F636B4661696C 0x4E PUSH16 0x6E5265656E7472616E744C6F636B5472 PUSH2 0x6E73 PUSH10 0x656E742E4E616D657370 PUSH2 0x6365 0x4E PUSH16 0x6E5265656E7472616E744C6F636B5472 PUSH2 0x6E73 PUSH10 0x656E742E64656661756C PUSH21 0x2E6C6F636BA26469706673582212209B0605C0AD6A BLOBHASH SWAP5 OR CALLDATASIZE COINBASE 0xBF 0xD7 SLOAD SWAP3 0x2A 0xE3 0xB3 SWAP14 0xD1 DUP9 0xF8 SAR 0xB9 SWAP2 0xD9 0xB6 0xA7 0xC6 CODESIZE 0xD0 BLOCKHASH PUSH5 0x736F6C6343 STOP ADDMOD BYTE STOP CALLER "
		},
		"gasEstimates": {
			"creation": {
				"codeDepositCost": "887600",
				"executionCost": "920",
				"totalCost": "888520"
			},
			"external": {
				"testCodeBlockLock(bool)": "infinite",
				"testCodeBlockTryLock(bool)": "infinite",
				"testNonReentrantCustomizeLockFail(bool)": "infinite",
				"testNonReentrantCustomizeLockSuccess()": "infinite",
				"testNonReentrantLockFail()": "infinite",
				"testNonReentrantLockSuccess()": "infinite"
			},
			"internal": {
				"_getCustomizeLock(string memory)": "infinite",
				"_getDefaultLock()": "infinite",
				"_tryCodeBlockLock(string memory)": "infinite",
				"_useCustomizeDifferentLock()": "infinite",
				"_useCustomizeSameLock()": "infinite",
				"_useDefaultLock()": "infinite"
			}
		},
		"methodIdentifiers": {
			"testCodeBlockLock(bool)": "1402f8cf",
			"testCodeBlockTryLock(bool)": "f76cfc98",
			"testNonReentrantCustomizeLockFail(bool)": "1a09a63e",
			"testNonReentrantCustomizeLockSuccess()": "d33bf9a6",
			"testNonReentrantLockFail()": "87aeff1a",
			"testNonReentrantLockSuccess()": "ae27d366"
		}
	},
	"abi": [
		{
			"inputs": [
				{
					"internalType": "string",
					"name": "slotSeed",
					"type": "string"
				}
			],
			"name": "AcquireLockFailure",
			"type": "error"
		},
		{
			"inputs": [
				{
					"internalType": "string",
					"name": "slotSeed",
					"type": "string"
				}
			],
			"name": "GetLockFailure",
			"type": "error"
		},
		{
			"inputs": [
				{
					"internalType": "string",
					"name": "slotSeed",
					"type": "string"
				}
			],
			"name": "UnlockFailure",
			"type": "error"
		},
		{
			"anonymous": false,
			"inputs": [
				{
					"indexed": false,
					"internalType": "string",
					"name": "data",
					"type": "string"
				}
			],
			"name": "Log",
			"type": "event"
		},
		{
			"inputs": [
				{
					"internalType": "bool",
					"name": "triggerLockFailure",
					"type": "bool"
				}
			],
			"name": "testCodeBlockLock",
			"outputs": [],
			"stateMutability": "nonpayable",
			"type": "function"
		},
		{
			"inputs": [
				{
					"internalType": "bool",
					"name": "triggerLockFailure",
					"type": "bool"
				}
			],
			"name": "testCodeBlockTryLock",
			"outputs": [],
			"stateMutability": "nonpayable",
			"type": "function"
		},
		{
			"inputs": [
				{
					"internalType": "bool",
					"name": "same",
					"type": "bool"
				}
			],
			"name": "testNonReentrantCustomizeLockFail",
			"outputs": [],
			"stateMutability": "nonpayable",
			"type": "function"
		},
		{
			"inputs": [],
			"name": "testNonReentrantCustomizeLockSuccess",
			"outputs": [],
			"stateMutability": "nonpayable",
			"type": "function"
		},
		{
			"inputs": [],
			"name": "testNonReentrantLockFail",
			"outputs": [],
			"stateMutability": "nonpayable",
			"type": "function"
		},
		{
			"inputs": [],
			"name": "testNonReentrantLockSuccess",
			"outputs": [],
			"stateMutability": "nonpayable",
			"type": "function"
		}
	]
}