{
	"data": {
		"bytecode": {
			"linkReferences": {},
			"object": "60c060405234801561000f575f80fd5b506100546040518060400160405280601781526020017f5265656e7472616e744c6f636b2e4e616d6573706163650000000000000000008152506100ab60201b60201c565b6080818152505061009f6040518060400160405280600c81526020017f64656661756c742e6c6f636b00000000000000000000000000000000000000008152506100ab60201b60201c565b60a081815250506100c7565b5f600182516020840120035f5260ff1960205f20169050919050565b60805160a051610a046101045f395f81816101b0015261026401525f818161010d0152818161034a0152818161047d015261053d0152610a045ff3fe608060405234801561000f575f80fd5b5060043610610055575f3560e01c80631516f08e146100595780631a09a63e1461007757806387aeff1a14610093578063ae27d3661461009d578063d33bf9a6146100a7575b5f80fd5b6100616100b1565b60405161006e9190610693565b60405180910390f35b610091600480360381019061008c91906106ec565b6100ea565b005b61009b6101aa565b005b6100a561025e565b005b6100af61030a565b005b6040518060400160405280601781526020017f5265656e7472616e744c6f636b2e4e616d65737061636500000000000000000081525081565b6040518060600160405280602181526020016109ae602191395f61013f61013a837f00000000000000000000000000000000000000000000000000000000000000006103ca90919063ffffffff16565b6103ee565b905061014b81836103f7565b7fcf34ef537ac33ee1ac626ca1587a0a7e8e51561e5514f8cb36afa1c5102b3bab60405161017890610787565b60405180910390a182156101935761018e61045a565b61019c565b61019b6104fd565b5b6101a5816105bd565b505050565b5f6101d47f00000000000000000000000000000000000000000000000000000000000000006103ee565b9050610215816040518060400160405280600c81526020017f64656661756c742e6c6f636b00000000000000000000000000000000000000008152506103f7565b7fcf34ef537ac33ee1ac626ca1587a0a7e8e51561e5514f8cb36afa1c5102b3bab604051610242906107ef565b60405180910390a16102526105d3565b61025b816105bd565b50565b5f6102887f00000000000000000000000000000000000000000000000000000000000000006103ee565b90506102c9816040518060400160405280600c81526020017f64656661756c742e6c6f636b00000000000000000000000000000000000000008152506103f7565b7fcf34ef537ac33ee1ac626ca1587a0a7e8e51561e5514f8cb36afa1c5102b3bab6040516102f690610857565b60405180910390a1610307816105bd565b50565b6040518060400160405280601d81526020017f746573744e6f6e5265656e7472616e74437573746f6d697a654c6f636b0000008152505f61037c610377837f00000000000000000000000000000000000000000000000000000000000000006103ca90919063ffffffff16565b6103ee565b905061038881836103f7565b7fcf34ef537ac33ee1ac626ca1587a0a7e8e51561e5514f8cb36afa1c5102b3bab6040516103b590610857565b60405180910390a16103c6816105bd565b5050565b5f815160208301818101805186825260208401832094508082525050505092915050565b5f819050919050565b61040082610612565b1561044257806040517f0b8b113e0000000000000000000000000000000000000000000000000000000081526004016104399190610693565b60405180910390fd5b61045660018361061c90919063ffffffff16565b5050565b6040518060600160405280602181526020016109ae602191395f6104af6104aa837f00000000000000000000000000000000000000000000000000000000000000006103ca90919063ffffffff16565b6103ee565b90506104bb81836103f7565b7fcf34ef537ac33ee1ac626ca1587a0a7e8e51561e5514f8cb36afa1c5102b3bab6040516104e8906108bf565b60405180910390a16104f9816105bd565b5050565b6040518060400160405280600d81526020017f646966666572656e744c6f636b000000000000000000000000000000000000008152505f61056f61056a837f00000000000000000000000000000000000000000000000000000000000000006103ca90919063ffffffff16565b6103ee565b905061057b81836103f7565b7fcf34ef537ac33ee1ac626ca1587a0a7e8e51561e5514f8cb36afa1c5102b3bab6040516105a890610927565b60405180910390a16105b9816105bd565b5050565b6105d05f8261061c90919063ffffffff16565b50565b7fcf34ef537ac33ee1ac626ca1587a0a7e8e51561e5514f8cb36afa1c5102b3bab6040516106009061098f565b60405180910390a161061061025e565b565b5f815c9050919050565b80825d5050565b5f81519050919050565b5f82825260208201905092915050565b8281835e5f83830152505050565b5f601f19601f8301169050919050565b5f61066582610623565b61066f818561062d565b935061067f81856020860161063d565b6106888161064b565b840191505092915050565b5f6020820190508181035f8301526106ab818461065b565b905092915050565b5f80fd5b5f8115159050919050565b6106cb816106b7565b81146106d5575f80fd5b50565b5f813590506106e6816106c2565b92915050565b5f60208284031215610701576107006106b3565b5b5f61070e848285016106d8565b91505092915050565b7f746573744e6f6e5265656e7472616e74437573746f6d697a654c6f636b4661695f8201527f6c00000000000000000000000000000000000000000000000000000000000000602082015250565b5f61077160218361062d565b915061077c82610717565b604082019050919050565b5f6020820190508181035f83015261079e81610765565b9050919050565b7f746573744e6f6e5265656e7472616e744c6f636b4661696c00000000000000005f82015250565b5f6107d960188361062d565b91506107e4826107a5565b602082019050919050565b5f6020820190508181035f830152610806816107cd565b9050919050565b7f746573744e6f6e5265656e7472616e744c6f636b0000000000000000000000005f82015250565b5f61084160148361062d565b915061084c8261080d565b602082019050919050565b5f6020820190508181035f83015261086e81610835565b9050919050565b7f5f757365437573746f6d697a6553616d654c6f636b00000000000000000000005f82015250565b5f6108a960158361062d565b91506108b482610875565b602082019050919050565b5f6020820190508181035f8301526108d68161089d565b9050919050565b7f5f757365437573746f6d697a65446966666572656e744c6f636b0000000000005f82015250565b5f610911601a8361062d565b915061091c826108dd565b602082019050919050565b5f6020820190508181035f83015261093e81610905565b9050919050565b7f5f75736544656661756c744c6f636b00000000000000000000000000000000005f82015250565b5f610979600f8361062d565b915061098482610945565b602082019050919050565b5f6020820190508181035f8301526109a68161096d565b905091905056fe746573744e6f6e5265656e7472616e74437573746f6d697a654c6f636b4661696ca2646970667358221220e4b1119cddce3bfeaa3b751585b276ea176381cc306073fe8f101cdfd92eb91e64736f6c634300081a0033",
			"opcodes": "PUSH1 0xC0 PUSH1 0x40 MSTORE CALLVALUE DUP1 ISZERO PUSH2 0xF JUMPI PUSH0 DUP1 REVERT JUMPDEST POP PUSH2 0x54 PUSH1 0x40 MLOAD DUP1 PUSH1 0x40 ADD PUSH1 0x40 MSTORE DUP1 PUSH1 0x17 DUP2 MSTORE PUSH1 0x20 ADD PUSH32 0x5265656E7472616E744C6F636B2E4E616D657370616365000000000000000000 DUP2 MSTORE POP PUSH2 0xAB PUSH1 0x20 SHL PUSH1 0x20 SHR JUMP JUMPDEST PUSH1 0x80 DUP2 DUP2 MSTORE POP POP PUSH2 0x9F PUSH1 0x40 MLOAD DUP1 PUSH1 0x40 ADD PUSH1 0x40 MSTORE DUP1 PUSH1 0xC DUP2 MSTORE PUSH1 0x20 ADD PUSH32 0x64656661756C742E6C6F636B0000000000000000000000000000000000000000 DUP2 MSTORE POP PUSH2 0xAB PUSH1 0x20 SHL PUSH1 0x20 SHR JUMP JUMPDEST PUSH1 0xA0 DUP2 DUP2 MSTORE POP POP PUSH2 0xC7 JUMP JUMPDEST PUSH0 PUSH1 0x1 DUP3 MLOAD PUSH1 0x20 DUP5 ADD KECCAK256 SUB PUSH0 MSTORE PUSH1 0xFF NOT PUSH1 0x20 PUSH0 KECCAK256 AND SWAP1 POP SWAP2 SWAP1 POP JUMP JUMPDEST PUSH1 0x80 MLOAD PUSH1 0xA0 MLOAD PUSH2 0xA04 PUSH2 0x104 PUSH0 CODECOPY PUSH0 DUP2 DUP2 PUSH2 0x1B0 ADD MSTORE PUSH2 0x264 ADD MSTORE PUSH0 DUP2 DUP2 PUSH2 0x10D ADD MSTORE DUP2 DUP2 PUSH2 0x34A ADD MSTORE DUP2 DUP2 PUSH2 0x47D ADD MSTORE PUSH2 0x53D ADD MSTORE PUSH2 0xA04 PUSH0 RETURN INVALID PUSH1 0x80 PUSH1 0x40 MSTORE CALLVALUE DUP1 ISZERO PUSH2 0xF JUMPI PUSH0 DUP1 REVERT JUMPDEST POP PUSH1 0x4 CALLDATASIZE LT PUSH2 0x55 JUMPI PUSH0 CALLDATALOAD PUSH1 0xE0 SHR DUP1 PUSH4 0x1516F08E EQ PUSH2 0x59 JUMPI DUP1 PUSH4 0x1A09A63E EQ PUSH2 0x77 JUMPI DUP1 PUSH4 0x87AEFF1A EQ PUSH2 0x93 JUMPI DUP1 PUSH4 0xAE27D366 EQ PUSH2 0x9D JUMPI DUP1 PUSH4 0xD33BF9A6 EQ PUSH2 0xA7 JUMPI JUMPDEST PUSH0 DUP1 REVERT JUMPDEST PUSH2 0x61 PUSH2 0xB1 JUMP JUMPDEST PUSH1 0x40 MLOAD PUSH2 0x6E SWAP2 SWAP1 PUSH2 0x693 JUMP JUMPDEST PUSH1 0x40 MLOAD DUP1 SWAP2 SUB SWAP1 RETURN JUMPDEST PUSH2 0x91 PUSH1 0x4 DUP1 CALLDATASIZE SUB DUP2 ADD SWAP1 PUSH2 0x8C SWAP2 SWAP1 PUSH2 0x6EC JUMP JUMPDEST PUSH2 0xEA JUMP JUMPDEST STOP JUMPDEST PUSH2 0x9B PUSH2 0x1AA JUMP JUMPDEST STOP JUMPDEST PUSH2 0xA5 PUSH2 0x25E JUMP JUMPDEST STOP JUMPDEST PUSH2 0xAF PUSH2 0x30A JUMP JUMPDEST STOP JUMPDEST PUSH1 0x40 MLOAD DUP1 PUSH1 0x40 ADD PUSH1 0x40 MSTORE DUP1 PUSH1 0x17 DUP2 MSTORE PUSH1 0x20 ADD PUSH32 0x5265656E7472616E744C6F636B2E4E616D657370616365000000000000000000 DUP2 MSTORE POP DUP2 JUMP JUMPDEST PUSH1 0x40 MLOAD DUP1 PUSH1 0x60 ADD PUSH1 0x40 MSTORE DUP1 PUSH1 0x21 DUP2 MSTORE PUSH1 0x20 ADD PUSH2 0x9AE PUSH1 0x21 SWAP2 CODECOPY PUSH0 PUSH2 0x13F PUSH2 0x13A DUP4 PUSH32 0x0 PUSH2 0x3CA SWAP1 SWAP2 SWAP1 PUSH4 0xFFFFFFFF AND JUMP JUMPDEST PUSH2 0x3EE JUMP JUMPDEST SWAP1 POP PUSH2 0x14B DUP2 DUP4 PUSH2 0x3F7 JUMP JUMPDEST PUSH32 0xCF34EF537AC33EE1AC626CA1587A0A7E8E51561E5514F8CB36AFA1C5102B3BAB PUSH1 0x40 MLOAD PUSH2 0x178 SWAP1 PUSH2 0x787 JUMP JUMPDEST PUSH1 0x40 MLOAD DUP1 SWAP2 SUB SWAP1 LOG1 DUP3 ISZERO PUSH2 0x193 JUMPI PUSH2 0x18E PUSH2 0x45A JUMP JUMPDEST PUSH2 0x19C JUMP JUMPDEST PUSH2 0x19B PUSH2 0x4FD JUMP JUMPDEST JUMPDEST PUSH2 0x1A5 DUP2 PUSH2 0x5BD JUMP JUMPDEST POP POP POP JUMP JUMPDEST PUSH0 PUSH2 0x1D4 PUSH32 0x0 PUSH2 0x3EE JUMP JUMPDEST SWAP1 POP PUSH2 0x215 DUP2 PUSH1 0x40 MLOAD DUP1 PUSH1 0x40 ADD PUSH1 0x40 MSTORE DUP1 PUSH1 0xC DUP2 MSTORE PUSH1 0x20 ADD PUSH32 0x64656661756C742E6C6F636B0000000000000000000000000000000000000000 DUP2 MSTORE POP PUSH2 0x3F7 JUMP JUMPDEST PUSH32 0xCF34EF537AC33EE1AC626CA1587A0A7E8E51561E5514F8CB36AFA1C5102B3BAB PUSH1 0x40 MLOAD PUSH2 0x242 SWAP1 PUSH2 0x7EF JUMP JUMPDEST PUSH1 0x40 MLOAD DUP1 SWAP2 SUB SWAP1 LOG1 PUSH2 0x252 PUSH2 0x5D3 JUMP JUMPDEST PUSH2 0x25B DUP2 PUSH2 0x5BD JUMP JUMPDEST POP JUMP JUMPDEST PUSH0 PUSH2 0x288 PUSH32 0x0 PUSH2 0x3EE JUMP JUMPDEST SWAP1 POP PUSH2 0x2C9 DUP2 PUSH1 0x40 MLOAD DUP1 PUSH1 0x40 ADD PUSH1 0x40 MSTORE DUP1 PUSH1 0xC DUP2 MSTORE PUSH1 0x20 ADD PUSH32 0x64656661756C742E6C6F636B0000000000000000000000000000000000000000 DUP2 MSTORE POP PUSH2 0x3F7 JUMP JUMPDEST PUSH32 0xCF34EF537AC33EE1AC626CA1587A0A7E8E51561E5514F8CB36AFA1C5102B3BAB PUSH1 0x40 MLOAD PUSH2 0x2F6 SWAP1 PUSH2 0x857 JUMP JUMPDEST PUSH1 0x40 MLOAD DUP1 SWAP2 SUB SWAP1 LOG1 PUSH2 0x307 DUP2 PUSH2 0x5BD JUMP JUMPDEST POP JUMP JUMPDEST PUSH1 0x40 MLOAD DUP1 PUSH1 0x40 ADD PUSH1 0x40 MSTORE DUP1 PUSH1 0x1D DUP2 MSTORE PUSH1 0x20 ADD PUSH32 0x746573744E6F6E5265656E7472616E74437573746F6D697A654C6F636B000000 DUP2 MSTORE POP PUSH0 PUSH2 0x37C PUSH2 0x377 DUP4 PUSH32 0x0 PUSH2 0x3CA SWAP1 SWAP2 SWAP1 PUSH4 0xFFFFFFFF AND JUMP JUMPDEST PUSH2 0x3EE JUMP JUMPDEST SWAP1 POP PUSH2 0x388 DUP2 DUP4 PUSH2 0x3F7 JUMP JUMPDEST PUSH32 0xCF34EF537AC33EE1AC626CA1587A0A7E8E51561E5514F8CB36AFA1C5102B3BAB PUSH1 0x40 MLOAD PUSH2 0x3B5 SWAP1 PUSH2 0x857 JUMP JUMPDEST PUSH1 0x40 MLOAD DUP1 SWAP2 SUB SWAP1 LOG1 PUSH2 0x3C6 DUP2 PUSH2 0x5BD JUMP JUMPDEST POP POP JUMP JUMPDEST PUSH0 DUP2 MLOAD PUSH1 0x20 DUP4 ADD DUP2 DUP2 ADD DUP1 MLOAD DUP7 DUP3 MSTORE PUSH1 0x20 DUP5 ADD DUP4 KECCAK256 SWAP5 POP DUP1 DUP3 MSTORE POP POP POP POP SWAP3 SWAP2 POP POP JUMP JUMPDEST PUSH0 DUP2 SWAP1 POP SWAP2 SWAP1 POP JUMP JUMPDEST PUSH2 0x400 DUP3 PUSH2 0x612 JUMP JUMPDEST ISZERO PUSH2 0x442 JUMPI DUP1 PUSH1 0x40 MLOAD PUSH32 0xB8B113E00000000000000000000000000000000000000000000000000000000 DUP2 MSTORE PUSH1 0x4 ADD PUSH2 0x439 SWAP2 SWAP1 PUSH2 0x693 JUMP JUMPDEST PUSH1 0x40 MLOAD DUP1 SWAP2 SUB SWAP1 REVERT JUMPDEST PUSH2 0x456 PUSH1 0x1 DUP4 PUSH2 0x61C SWAP1 SWAP2 SWAP1 PUSH4 0xFFFFFFFF AND JUMP JUMPDEST POP POP JUMP JUMPDEST PUSH1 0x40 MLOAD DUP1 PUSH1 0x60 ADD PUSH1 0x40 MSTORE DUP1 PUSH1 0x21 DUP2 MSTORE PUSH1 0x20 ADD PUSH2 0x9AE PUSH1 0x21 SWAP2 CODECOPY PUSH0 PUSH2 0x4AF PUSH2 0x4AA DUP4 PUSH32 0x0 PUSH2 0x3CA SWAP1 SWAP2 SWAP1 PUSH4 0xFFFFFFFF AND JUMP JUMPDEST PUSH2 0x3EE JUMP JUMPDEST SWAP1 POP PUSH2 0x4BB DUP2 DUP4 PUSH2 0x3F7 JUMP JUMPDEST PUSH32 0xCF34EF537AC33EE1AC626CA1587A0A7E8E51561E5514F8CB36AFA1C5102B3BAB PUSH1 0x40 MLOAD PUSH2 0x4E8 SWAP1 PUSH2 0x8BF JUMP JUMPDEST PUSH1 0x40 MLOAD DUP1 SWAP2 SUB SWAP1 LOG1 PUSH2 0x4F9 DUP2 PUSH2 0x5BD JUMP JUMPDEST POP POP JUMP JUMPDEST PUSH1 0x40 MLOAD DUP1 PUSH1 0x40 ADD PUSH1 0x40 MSTORE DUP1 PUSH1 0xD DUP2 MSTORE PUSH1 0x20 ADD PUSH32 0x646966666572656E744C6F636B00000000000000000000000000000000000000 DUP2 MSTORE POP PUSH0 PUSH2 0x56F PUSH2 0x56A DUP4 PUSH32 0x0 PUSH2 0x3CA SWAP1 SWAP2 SWAP1 PUSH4 0xFFFFFFFF AND JUMP JUMPDEST PUSH2 0x3EE JUMP JUMPDEST SWAP1 POP PUSH2 0x57B DUP2 DUP4 PUSH2 0x3F7 JUMP JUMPDEST PUSH32 0xCF34EF537AC33EE1AC626CA1587A0A7E8E51561E5514F8CB36AFA1C5102B3BAB PUSH1 0x40 MLOAD PUSH2 0x5A8 SWAP1 PUSH2 0x927 JUMP JUMPDEST PUSH1 0x40 MLOAD DUP1 SWAP2 SUB SWAP1 LOG1 PUSH2 0x5B9 DUP2 PUSH2 0x5BD JUMP JUMPDEST POP POP JUMP JUMPDEST PUSH2 0x5D0 PUSH0 DUP3 PUSH2 0x61C SWAP1 SWAP2 SWAP1 PUSH4 0xFFFFFFFF AND JUMP JUMPDEST POP JUMP JUMPDEST PUSH32 0xCF34EF537AC33EE1AC626CA1587A0A7E8E51561E5514F8CB36AFA1C5102B3BAB PUSH1 0x40 MLOAD PUSH2 0x600 SWAP1 PUSH2 0x98F JUMP JUMPDEST PUSH1 0x40 MLOAD DUP1 SWAP2 SUB SWAP1 LOG1 PUSH2 0x610 PUSH2 0x25E JUMP JUMPDEST JUMP JUMPDEST PUSH0 DUP2 TLOAD SWAP1 POP SWAP2 SWAP1 POP JUMP JUMPDEST DUP1 DUP3 TSTORE POP POP JUMP JUMPDEST PUSH0 DUP2 MLOAD SWAP1 POP SWAP2 SWAP1 POP JUMP JUMPDEST PUSH0 DUP3 DUP3 MSTORE PUSH1 0x20 DUP3 ADD SWAP1 POP SWAP3 SWAP2 POP POP JUMP JUMPDEST DUP3 DUP2 DUP4 MCOPY PUSH0 DUP4 DUP4 ADD MSTORE POP POP POP JUMP JUMPDEST PUSH0 PUSH1 0x1F NOT PUSH1 0x1F DUP4 ADD AND SWAP1 POP SWAP2 SWAP1 POP JUMP JUMPDEST PUSH0 PUSH2 0x665 DUP3 PUSH2 0x623 JUMP JUMPDEST PUSH2 0x66F DUP2 DUP6 PUSH2 0x62D JUMP JUMPDEST SWAP4 POP PUSH2 0x67F DUP2 DUP6 PUSH1 0x20 DUP7 ADD PUSH2 0x63D JUMP JUMPDEST PUSH2 0x688 DUP2 PUSH2 0x64B JUMP JUMPDEST DUP5 ADD SWAP2 POP POP SWAP3 SWAP2 POP POP JUMP JUMPDEST PUSH0 PUSH1 0x20 DUP3 ADD SWAP1 POP DUP2 DUP2 SUB PUSH0 DUP4 ADD MSTORE PUSH2 0x6AB DUP2 DUP5 PUSH2 0x65B JUMP JUMPDEST SWAP1 POP SWAP3 SWAP2 POP POP JUMP JUMPDEST PUSH0 DUP1 REVERT JUMPDEST PUSH0 DUP2 ISZERO ISZERO SWAP1 POP SWAP2 SWAP1 POP JUMP JUMPDEST PUSH2 0x6CB DUP2 PUSH2 0x6B7 JUMP JUMPDEST DUP2 EQ PUSH2 0x6D5 JUMPI PUSH0 DUP1 REVERT JUMPDEST POP JUMP JUMPDEST PUSH0 DUP2 CALLDATALOAD SWAP1 POP PUSH2 0x6E6 DUP2 PUSH2 0x6C2 JUMP JUMPDEST SWAP3 SWAP2 POP POP JUMP JUMPDEST PUSH0 PUSH1 0x20 DUP3 DUP5 SUB SLT ISZERO PUSH2 0x701 JUMPI PUSH2 0x700 PUSH2 0x6B3 JUMP JUMPDEST JUMPDEST PUSH0 PUSH2 0x70E DUP5 DUP3 DUP6 ADD PUSH2 0x6D8 JUMP JUMPDEST SWAP2 POP POP SWAP3 SWAP2 POP POP JUMP JUMPDEST PUSH32 0x746573744E6F6E5265656E7472616E74437573746F6D697A654C6F636B466169 PUSH0 DUP3 ADD MSTORE PUSH32 0x6C00000000000000000000000000000000000000000000000000000000000000 PUSH1 0x20 DUP3 ADD MSTORE POP JUMP JUMPDEST PUSH0 PUSH2 0x771 PUSH1 0x21 DUP4 PUSH2 0x62D JUMP JUMPDEST SWAP2 POP PUSH2 0x77C DUP3 PUSH2 0x717 JUMP JUMPDEST PUSH1 0x40 DUP3 ADD SWAP1 POP SWAP2 SWAP1 POP JUMP JUMPDEST PUSH0 PUSH1 0x20 DUP3 ADD SWAP1 POP DUP2 DUP2 SUB PUSH0 DUP4 ADD MSTORE PUSH2 0x79E DUP2 PUSH2 0x765 JUMP JUMPDEST SWAP1 POP SWAP2 SWAP1 POP JUMP JUMPDEST PUSH32 0x746573744E6F6E5265656E7472616E744C6F636B4661696C0000000000000000 PUSH0 DUP3 ADD MSTORE POP JUMP JUMPDEST PUSH0 PUSH2 0x7D9 PUSH1 0x18 DUP4 PUSH2 0x62D JUMP JUMPDEST SWAP2 POP PUSH2 0x7E4 DUP3 PUSH2 0x7A5 JUMP JUMPDEST PUSH1 0x20 DUP3 ADD SWAP1 POP SWAP2 SWAP1 POP JUMP JUMPDEST PUSH0 PUSH1 0x20 DUP3 ADD SWAP1 POP DUP2 DUP2 SUB PUSH0 DUP4 ADD MSTORE PUSH2 0x806 DUP2 PUSH2 0x7CD JUMP JUMPDEST SWAP1 POP SWAP2 SWAP1 POP JUMP JUMPDEST PUSH32 0x746573744E6F6E5265656E7472616E744C6F636B000000000000000000000000 PUSH0 DUP3 ADD MSTORE POP JUMP JUMPDEST PUSH0 PUSH2 0x841 PUSH1 0x14 DUP4 PUSH2 0x62D JUMP JUMPDEST SWAP2 POP PUSH2 0x84C DUP3 PUSH2 0x80D JUMP JUMPDEST PUSH1 0x20 DUP3 ADD SWAP1 POP SWAP2 SWAP1 POP JUMP JUMPDEST PUSH0 PUSH1 0x20 DUP3 ADD SWAP1 POP DUP2 DUP2 SUB PUSH0 DUP4 ADD MSTORE PUSH2 0x86E DUP2 PUSH2 0x835 JUMP JUMPDEST SWAP1 POP SWAP2 SWAP1 POP JUMP JUMPDEST PUSH32 0x5F757365437573746F6D697A6553616D654C6F636B0000000000000000000000 PUSH0 DUP3 ADD MSTORE POP JUMP JUMPDEST PUSH0 PUSH2 0x8A9 PUSH1 0x15 DUP4 PUSH2 0x62D JUMP JUMPDEST SWAP2 POP PUSH2 0x8B4 DUP3 PUSH2 0x875 JUMP JUMPDEST PUSH1 0x20 DUP3 ADD SWAP1 POP SWAP2 SWAP1 POP JUMP JUMPDEST PUSH0 PUSH1 0x20 DUP3 ADD SWAP1 POP DUP2 DUP2 SUB PUSH0 DUP4 ADD MSTORE PUSH2 0x8D6 DUP2 PUSH2 0x89D JUMP JUMPDEST SWAP1 POP SWAP2 SWAP1 POP JUMP JUMPDEST PUSH32 0x5F757365437573746F6D697A65446966666572656E744C6F636B000000000000 PUSH0 DUP3 ADD MSTORE POP JUMP JUMPDEST PUSH0 PUSH2 0x911 PUSH1 0x1A DUP4 PUSH2 0x62D JUMP JUMPDEST SWAP2 POP PUSH2 0x91C DUP3 PUSH2 0x8DD JUMP JUMPDEST PUSH1 0x20 DUP3 ADD SWAP1 POP SWAP2 SWAP1 POP JUMP JUMPDEST PUSH0 PUSH1 0x20 DUP3 ADD SWAP1 POP DUP2 DUP2 SUB PUSH0 DUP4 ADD MSTORE PUSH2 0x93E DUP2 PUSH2 0x905 JUMP JUMPDEST SWAP1 POP SWAP2 SWAP1 POP JUMP JUMPDEST PUSH32 0x5F75736544656661756C744C6F636B0000000000000000000000000000000000 PUSH0 DUP3 ADD MSTORE POP JUMP JUMPDEST PUSH0 PUSH2 0x979 PUSH1 0xF DUP4 PUSH2 0x62D JUMP JUMPDEST SWAP2 POP PUSH2 0x984 DUP3 PUSH2 0x945 JUMP JUMPDEST PUSH1 0x20 DUP3 ADD SWAP1 POP SWAP2 SWAP1 POP JUMP JUMPDEST PUSH0 PUSH1 0x20 DUP3 ADD SWAP1 POP DUP2 DUP2 SUB PUSH0 DUP4 ADD MSTORE PUSH2 0x9A6 DUP2 PUSH2 0x96D JUMP JUMPDEST SWAP1 POP SWAP2 SWAP1 POP JUMP INVALID PUSH21 0x6573744E6F6E5265656E7472616E74437573746F6D PUSH10 0x7A654C6F636B4661696C LOG2 PUSH5 0x6970667358 0x22 SLT KECCAK256 0xE4 0xB1 GT SWAP13 0xDD 0xCE EXTCODESIZE INVALID 0xAA EXTCODESIZE PUSH22 0x1585B276EA176381CC306073FE8F101CDFD92EB91E64 PUSH20 0x6F6C634300081A00330000000000000000000000 "
		},
		"gasEstimates": {
			"creation": {
				"codeDepositCost": "512800",
				"executionCost": "infinite",
				"totalCost": "infinite"
			},
			"external": {
				"ERC7201_NAMESPACE()": "infinite",
				"testNonReentrantCustomizeLockFail(bool)": "infinite",
				"testNonReentrantCustomizeLockSuccess()": "infinite",
				"testNonReentrantLockFail()": "infinite",
				"testNonReentrantLockSuccess()": "infinite"
			},
			"internal": {
				"_useCustomizeDifferentLock()": "infinite",
				"_useCustomizeSameLock()": "infinite",
				"_useDefaultLock()": "infinite"
			}
		},
		"methodIdentifiers": {
			"ERC7201_NAMESPACE()": "1516f08e",
			"testNonReentrantCustomizeLockFail(bool)": "1a09a63e",
			"testNonReentrantCustomizeLockSuccess()": "d33bf9a6",
			"testNonReentrantLockFail()": "87aeff1a",
			"testNonReentrantLockSuccess()": "ae27d366"
		}
	},
	"abi": [
		{
			"inputs": [
				{
					"internalType": "string",
					"name": "lock",
					"type": "string"
				}
			],
			"name": "AcquireLockFailure",
			"type": "error"
		},
		{
			"anonymous": false,
			"inputs": [
				{
					"indexed": false,
					"internalType": "string",
					"name": "data",
					"type": "string"
				}
			],
			"name": "Log",
			"type": "event"
		},
		{
			"inputs": [],
			"name": "ERC7201_NAMESPACE",
			"outputs": [
				{
					"internalType": "string",
					"name": "",
					"type": "string"
				}
			],
			"stateMutability": "view",
			"type": "function"
		},
		{
			"inputs": [
				{
					"internalType": "bool",
					"name": "same",
					"type": "bool"
				}
			],
			"name": "testNonReentrantCustomizeLockFail",
			"outputs": [],
			"stateMutability": "nonpayable",
			"type": "function"
		},
		{
			"inputs": [],
			"name": "testNonReentrantCustomizeLockSuccess",
			"outputs": [],
			"stateMutability": "nonpayable",
			"type": "function"
		},
		{
			"inputs": [],
			"name": "testNonReentrantLockFail",
			"outputs": [],
			"stateMutability": "nonpayable",
			"type": "function"
		},
		{
			"inputs": [],
			"name": "testNonReentrantLockSuccess",
			"outputs": [],
			"stateMutability": "nonpayable",
			"type": "function"
		}
	]
}