{
	"contracts/proxy/ERC1967/LogicV2.sol": {
		"LogicV2": {
			"abi": [
				{
					"inputs": [],
					"name": "InitailizerCallRepeat",
					"type": "error"
				},
				{
					"inputs": [],
					"name": "decrea",
					"outputs": [],
					"stateMutability": "nonpayable",
					"type": "function"
				},
				{
					"inputs": [],
					"name": "getCounter",
					"outputs": [
						{
							"internalType": "uint256",
							"name": "",
							"type": "uint256"
						}
					],
					"stateMutability": "view",
					"type": "function"
				},
				{
					"inputs": [],
					"name": "increa",
					"outputs": [],
					"stateMutability": "nonpayable",
					"type": "function"
				},
				{
					"inputs": [
						{
							"internalType": "uint256",
							"name": "num",
							"type": "uint256"
						}
					],
					"name": "increaBy",
					"outputs": [],
					"stateMutability": "nonpayable",
					"type": "function"
				},
				{
					"inputs": [
						{
							"internalType": "uint256",
							"name": "value",
							"type": "uint256"
						}
					],
					"name": "initialize",
					"outputs": [],
					"stateMutability": "nonpayable",
					"type": "function"
				}
			],
			"devdoc": {
				"kind": "dev",
				"methods": {},
				"version": 1
			},
			"evm": {
				"assembly": "    /* \"contracts/proxy/ERC1967/LogicV2.sol\":122:739  contract LogicV2 {... */\n  mstore(0x40, 0x80)\n  callvalue\n  dup1\n  iszero\n  tag_1\n  jumpi\n  0x00\n  dup1\n  revert\ntag_1:\n  pop\n  dataSize(sub_0)\n  dup1\n  dataOffset(sub_0)\n  0x00\n  codecopy\n  0x00\n  return\nstop\n\nsub_0: assembly {\n        /* \"contracts/proxy/ERC1967/LogicV2.sol\":122:739  contract LogicV2 {... */\n      mstore(0x40, 0x80)\n      callvalue\n      dup1\n      iszero\n      tag_1\n      jumpi\n      0x00\n      dup1\n      revert\n    tag_1:\n      pop\n      jumpi(tag_2, lt(calldatasize, 0x04))\n      shr(0xe0, calldataload(0x00))\n      dup1\n      0x30bff947\n      eq\n      tag_3\n      jumpi\n      dup1\n      0x8ada066e\n      eq\n      tag_4\n      jumpi\n      dup1\n      0xd1bbbe8f\n      eq\n      tag_5\n      jumpi\n      dup1\n      0xd6d4acb7\n      eq\n      tag_6\n      jumpi\n      dup1\n      0xfe4b84df\n      eq\n      tag_7\n      jumpi\n    tag_2:\n      0x00\n      dup1\n      revert\n        /* \"contracts/proxy/ERC1967/LogicV2.sol\":241:294  function increa() external {... */\n    tag_3:\n      tag_8\n      tag_9\n      jump\t// in\n    tag_8:\n      stop\n        /* \"contracts/proxy/ERC1967/LogicV2.sol\":433:518  function getCounter() external view returns (uint256) {... */\n    tag_4:\n      tag_10\n      tag_11\n      jump\t// in\n    tag_10:\n      mload(0x40)\n      tag_12\n      swap2\n      swap1\n      tag_13\n      jump\t// in\n    tag_12:\n      mload(0x40)\n      dup1\n      swap2\n      sub\n      swap1\n      return\n        /* \"contracts/proxy/ERC1967/LogicV2.sol\":375:428  function decrea() external {... */\n    tag_5:\n      tag_14\n      tag_15\n      jump\t// in\n    tag_14:\n      stop\n        /* \"contracts/proxy/ERC1967/LogicV2.sol\":299:370  function increaBy(uint256 num) external {... */\n    tag_6:\n      tag_16\n      0x04\n      dup1\n      calldatasize\n      sub\n      dup2\n      add\n      swap1\n      tag_17\n      swap2\n      swap1\n      tag_18\n      jump\t// in\n    tag_17:\n      tag_19\n      jump\t// in\n    tag_16:\n      stop\n        /* \"contracts/proxy/ERC1967/LogicV2.sol\":546:737  function initialize(uint256 value) external {... */\n    tag_7:\n      tag_20\n      0x04\n      dup1\n      calldatasize\n      sub\n      dup2\n      add\n      swap1\n      tag_21\n      swap2\n      swap1\n      tag_18\n      jump\t// in\n    tag_21:\n      tag_22\n      jump\t// in\n    tag_20:\n      stop\n        /* \"contracts/proxy/ERC1967/LogicV2.sol\":241:294  function increa() external {... */\n    tag_9:\n        /* \"contracts/proxy/ERC1967/LogicV2.sol\":278:285  counter */\n      0x00\n      dup1\n        /* \"contracts/proxy/ERC1967/LogicV2.sol\":278:287  counter++ */\n      dup2\n      sload\n      dup1\n      swap3\n      swap2\n      swap1\n      tag_24\n      swap1\n      tag_25\n      jump\t// in\n    tag_24:\n      swap2\n      swap1\n      pop\n      sstore\n      pop\n        /* \"contracts/proxy/ERC1967/LogicV2.sol\":241:294  function increa() external {... */\n      jump\t// out\n        /* \"contracts/proxy/ERC1967/LogicV2.sol\":433:518  function getCounter() external view returns (uint256) {... */\n    tag_11:\n        /* \"contracts/proxy/ERC1967/LogicV2.sol\":478:485  uint256 */\n      0x00\n        /* \"contracts/proxy/ERC1967/LogicV2.sol\":504:511  counter */\n      dup1\n      sload\n        /* \"contracts/proxy/ERC1967/LogicV2.sol\":497:511  return counter */\n      swap1\n      pop\n        /* \"contracts/proxy/ERC1967/LogicV2.sol\":433:518  function getCounter() external view returns (uint256) {... */\n      swap1\n      jump\t// out\n        /* \"contracts/proxy/ERC1967/LogicV2.sol\":375:428  function decrea() external {... */\n    tag_15:\n        /* \"contracts/proxy/ERC1967/LogicV2.sol\":412:419  counter */\n      0x00\n      dup1\n        /* \"contracts/proxy/ERC1967/LogicV2.sol\":412:421  counter-- */\n      dup2\n      sload\n      dup1\n      swap3\n      swap2\n      swap1\n      tag_28\n      swap1\n      tag_29\n      jump\t// in\n    tag_28:\n      swap2\n      swap1\n      pop\n      sstore\n      pop\n        /* \"contracts/proxy/ERC1967/LogicV2.sol\":375:428  function decrea() external {... */\n      jump\t// out\n        /* \"contracts/proxy/ERC1967/LogicV2.sol\":299:370  function increaBy(uint256 num) external {... */\n    tag_19:\n        /* \"contracts/proxy/ERC1967/LogicV2.sol\":360:363  num */\n      dup1\n        /* \"contracts/proxy/ERC1967/LogicV2.sol\":349:356  counter */\n      0x00\n      dup1\n        /* \"contracts/proxy/ERC1967/LogicV2.sol\":349:363  counter += num */\n      dup3\n      dup3\n      sload\n      tag_31\n      swap2\n      swap1\n      tag_32\n      jump\t// in\n    tag_31:\n      swap3\n      pop\n      pop\n      dup2\n      swap1\n      sstore\n      pop\n        /* \"contracts/proxy/ERC1967/LogicV2.sol\":299:370  function increaBy(uint256 num) external {... */\n      pop\n      jump\t// out\n        /* \"contracts/proxy/ERC1967/LogicV2.sol\":546:737  function initialize(uint256 value) external {... */\n    tag_22:\n        /* \"contracts/proxy/ERC1967/LogicV2.sol\":604:617  isInitialized */\n      0x01\n      0x00\n      swap1\n      sload\n      swap1\n      0x0100\n      exp\n      swap1\n      div\n      0xff\n      and\n        /* \"contracts/proxy/ERC1967/LogicV2.sol\":600:674  if (isInitialized) {... */\n      iszero\n      tag_34\n      jumpi\n        /* \"contracts/proxy/ERC1967/LogicV2.sol\":640:663  InitailizerCallRepeat() */\n      mload(0x40)\n      0xd544fcb000000000000000000000000000000000000000000000000000000000\n      dup2\n      mstore\n      0x04\n      add\n      mload(0x40)\n      dup1\n      swap2\n      sub\n      swap1\n      revert\n        /* \"contracts/proxy/ERC1967/LogicV2.sol\":600:674  if (isInitialized) {... */\n    tag_34:\n        /* \"contracts/proxy/ERC1967/LogicV2.sol\":699:700  6 */\n      0x06\n        /* \"contracts/proxy/ERC1967/LogicV2.sol\":693:698  value */\n      dup2\n        /* \"contracts/proxy/ERC1967/LogicV2.sol\":693:700  value+6 */\n      tag_35\n      swap2\n      swap1\n      tag_32\n      jump\t// in\n    tag_35:\n        /* \"contracts/proxy/ERC1967/LogicV2.sol\":683:690  counter */\n      0x00\n        /* \"contracts/proxy/ERC1967/LogicV2.sol\":683:700  counter = value+6 */\n      dup2\n      swap1\n      sstore\n      pop\n        /* \"contracts/proxy/ERC1967/LogicV2.sol\":726:730  true */\n      0x01\n        /* \"contracts/proxy/ERC1967/LogicV2.sol\":710:723  isInitialized */\n      dup1\n      0x00\n        /* \"contracts/proxy/ERC1967/LogicV2.sol\":710:730  isInitialized = true */\n      0x0100\n      exp\n      dup2\n      sload\n      dup2\n      0xff\n      mul\n      not\n      and\n      swap1\n      dup4\n      iszero\n      iszero\n      mul\n      or\n      swap1\n      sstore\n      pop\n        /* \"contracts/proxy/ERC1967/LogicV2.sol\":546:737  function initialize(uint256 value) external {... */\n      pop\n      jump\t// out\n        /* \"#utility.yul\":7:84   */\n    tag_36:\n        /* \"#utility.yul\":44:51   */\n      0x00\n        /* \"#utility.yul\":73:78   */\n      dup2\n        /* \"#utility.yul\":62:78   */\n      swap1\n      pop\n        /* \"#utility.yul\":7:84   */\n      swap2\n      swap1\n      pop\n      jump\t// out\n        /* \"#utility.yul\":90:208   */\n    tag_37:\n        /* \"#utility.yul\":177:201   */\n      tag_47\n        /* \"#utility.yul\":195:200   */\n      dup2\n        /* \"#utility.yul\":177:201   */\n      tag_36\n      jump\t// in\n    tag_47:\n        /* \"#utility.yul\":172:175   */\n      dup3\n        /* \"#utility.yul\":165:202   */\n      mstore\n        /* \"#utility.yul\":90:208   */\n      pop\n      pop\n      jump\t// out\n        /* \"#utility.yul\":214:436   */\n    tag_13:\n        /* \"#utility.yul\":307:311   */\n      0x00\n        /* \"#utility.yul\":345:347   */\n      0x20\n        /* \"#utility.yul\":334:343   */\n      dup3\n        /* \"#utility.yul\":330:348   */\n      add\n        /* \"#utility.yul\":322:348   */\n      swap1\n      pop\n        /* \"#utility.yul\":358:429   */\n      tag_49\n        /* \"#utility.yul\":426:427   */\n      0x00\n        /* \"#utility.yul\":415:424   */\n      dup4\n        /* \"#utility.yul\":411:428   */\n      add\n        /* \"#utility.yul\":402:408   */\n      dup5\n        /* \"#utility.yul\":358:429   */\n      tag_37\n      jump\t// in\n    tag_49:\n        /* \"#utility.yul\":214:436   */\n      swap3\n      swap2\n      pop\n      pop\n      jump\t// out\n        /* \"#utility.yul\":523:640   */\n    tag_39:\n        /* \"#utility.yul\":632:633   */\n      0x00\n        /* \"#utility.yul\":629:630   */\n      dup1\n        /* \"#utility.yul\":622:634   */\n      revert\n        /* \"#utility.yul\":769:891   */\n    tag_41:\n        /* \"#utility.yul\":842:866   */\n      tag_54\n        /* \"#utility.yul\":860:865   */\n      dup2\n        /* \"#utility.yul\":842:866   */\n      tag_36\n      jump\t// in\n    tag_54:\n        /* \"#utility.yul\":835:840   */\n      dup2\n        /* \"#utility.yul\":832:867   */\n      eq\n        /* \"#utility.yul\":822:885   */\n      tag_55\n      jumpi\n        /* \"#utility.yul\":881:882   */\n      0x00\n        /* \"#utility.yul\":878:879   */\n      dup1\n        /* \"#utility.yul\":871:883   */\n      revert\n        /* \"#utility.yul\":822:885   */\n    tag_55:\n        /* \"#utility.yul\":769:891   */\n      pop\n      jump\t// out\n        /* \"#utility.yul\":897:1036   */\n    tag_42:\n        /* \"#utility.yul\":943:948   */\n      0x00\n        /* \"#utility.yul\":981:987   */\n      dup2\n        /* \"#utility.yul\":968:988   */\n      calldataload\n        /* \"#utility.yul\":959:988   */\n      swap1\n      pop\n        /* \"#utility.yul\":997:1030   */\n      tag_57\n        /* \"#utility.yul\":1024:1029   */\n      dup2\n        /* \"#utility.yul\":997:1030   */\n      tag_41\n      jump\t// in\n    tag_57:\n        /* \"#utility.yul\":897:1036   */\n      swap3\n      swap2\n      pop\n      pop\n      jump\t// out\n        /* \"#utility.yul\":1042:1371   */\n    tag_18:\n        /* \"#utility.yul\":1101:1107   */\n      0x00\n        /* \"#utility.yul\":1150:1152   */\n      0x20\n        /* \"#utility.yul\":1138:1147   */\n      dup3\n        /* \"#utility.yul\":1129:1136   */\n      dup5\n        /* \"#utility.yul\":1125:1148   */\n      sub\n        /* \"#utility.yul\":1121:1153   */\n      slt\n        /* \"#utility.yul\":1118:1237   */\n      iszero\n      tag_59\n      jumpi\n        /* \"#utility.yul\":1156:1235   */\n      tag_60\n      tag_39\n      jump\t// in\n    tag_60:\n        /* \"#utility.yul\":1118:1237   */\n    tag_59:\n        /* \"#utility.yul\":1276:1277   */\n      0x00\n        /* \"#utility.yul\":1301:1354   */\n      tag_61\n        /* \"#utility.yul\":1346:1353   */\n      dup5\n        /* \"#utility.yul\":1337:1343   */\n      dup3\n        /* \"#utility.yul\":1326:1335   */\n      dup6\n        /* \"#utility.yul\":1322:1344   */\n      add\n        /* \"#utility.yul\":1301:1354   */\n      tag_42\n      jump\t// in\n    tag_61:\n        /* \"#utility.yul\":1291:1354   */\n      swap2\n      pop\n        /* \"#utility.yul\":1247:1364   */\n      pop\n        /* \"#utility.yul\":1042:1371   */\n      swap3\n      swap2\n      pop\n      pop\n      jump\t// out\n        /* \"#utility.yul\":1377:1557   */\n    tag_43:\n        /* \"#utility.yul\":1425:1502   */\n      0x4e487b7100000000000000000000000000000000000000000000000000000000\n        /* \"#utility.yul\":1422:1423   */\n      0x00\n        /* \"#utility.yul\":1415:1503   */\n      mstore\n        /* \"#utility.yul\":1522:1526   */\n      0x11\n        /* \"#utility.yul\":1519:1520   */\n      0x04\n        /* \"#utility.yul\":1512:1527   */\n      mstore\n        /* \"#utility.yul\":1546:1550   */\n      0x24\n        /* \"#utility.yul\":1543:1544   */\n      0x00\n        /* \"#utility.yul\":1536:1551   */\n      revert\n        /* \"#utility.yul\":1563:1796   */\n    tag_25:\n        /* \"#utility.yul\":1602:1605   */\n      0x00\n        /* \"#utility.yul\":1625:1649   */\n      tag_64\n        /* \"#utility.yul\":1643:1648   */\n      dup3\n        /* \"#utility.yul\":1625:1649   */\n      tag_36\n      jump\t// in\n    tag_64:\n        /* \"#utility.yul\":1616:1649   */\n      swap2\n      pop\n        /* \"#utility.yul\":1671:1737   */\n      0xffffffffffffffffffffffffffffffffffffffffffffffffffffffffffffffff\n        /* \"#utility.yul\":1664:1669   */\n      dup3\n        /* \"#utility.yul\":1661:1738   */\n      sub\n        /* \"#utility.yul\":1658:1761   */\n      tag_65\n      jumpi\n        /* \"#utility.yul\":1741:1759   */\n      tag_66\n      tag_43\n      jump\t// in\n    tag_66:\n        /* \"#utility.yul\":1658:1761   */\n    tag_65:\n        /* \"#utility.yul\":1788:1789   */\n      0x01\n        /* \"#utility.yul\":1781:1786   */\n      dup3\n        /* \"#utility.yul\":1777:1790   */\n      add\n        /* \"#utility.yul\":1770:1790   */\n      swap1\n      pop\n        /* \"#utility.yul\":1563:1796   */\n      swap2\n      swap1\n      pop\n      jump\t// out\n        /* \"#utility.yul\":1802:1973   */\n    tag_29:\n        /* \"#utility.yul\":1841:1844   */\n      0x00\n        /* \"#utility.yul\":1864:1888   */\n      tag_68\n        /* \"#utility.yul\":1882:1887   */\n      dup3\n        /* \"#utility.yul\":1864:1888   */\n      tag_36\n      jump\t// in\n    tag_68:\n        /* \"#utility.yul\":1855:1888   */\n      swap2\n      pop\n        /* \"#utility.yul\":1910:1914   */\n      0x00\n        /* \"#utility.yul\":1903:1908   */\n      dup3\n        /* \"#utility.yul\":1900:1915   */\n      sub\n        /* \"#utility.yul\":1897:1938   */\n      tag_69\n      jumpi\n        /* \"#utility.yul\":1918:1936   */\n      tag_70\n      tag_43\n      jump\t// in\n    tag_70:\n        /* \"#utility.yul\":1897:1938   */\n    tag_69:\n        /* \"#utility.yul\":1965:1966   */\n      0x01\n        /* \"#utility.yul\":1958:1963   */\n      dup3\n        /* \"#utility.yul\":1954:1967   */\n      sub\n        /* \"#utility.yul\":1947:1967   */\n      swap1\n      pop\n        /* \"#utility.yul\":1802:1973   */\n      swap2\n      swap1\n      pop\n      jump\t// out\n        /* \"#utility.yul\":1979:2170   */\n    tag_32:\n        /* \"#utility.yul\":2019:2022   */\n      0x00\n        /* \"#utility.yul\":2038:2058   */\n      tag_72\n        /* \"#utility.yul\":2056:2057   */\n      dup3\n        /* \"#utility.yul\":2038:2058   */\n      tag_36\n      jump\t// in\n    tag_72:\n        /* \"#utility.yul\":2033:2058   */\n      swap2\n      pop\n        /* \"#utility.yul\":2072:2092   */\n      tag_73\n        /* \"#utility.yul\":2090:2091   */\n      dup4\n        /* \"#utility.yul\":2072:2092   */\n      tag_36\n      jump\t// in\n    tag_73:\n        /* \"#utility.yul\":2067:2092   */\n      swap3\n      pop\n        /* \"#utility.yul\":2115:2116   */\n      dup3\n        /* \"#utility.yul\":2112:2113   */\n      dup3\n        /* \"#utility.yul\":2108:2117   */\n      add\n        /* \"#utility.yul\":2101:2117   */\n      swap1\n      pop\n        /* \"#utility.yul\":2136:2139   */\n      dup1\n        /* \"#utility.yul\":2133:2134   */\n      dup3\n        /* \"#utility.yul\":2130:2140   */\n      gt\n        /* \"#utility.yul\":2127:2163   */\n      iszero\n      tag_74\n      jumpi\n        /* \"#utility.yul\":2143:2161   */\n      tag_75\n      tag_43\n      jump\t// in\n    tag_75:\n        /* \"#utility.yul\":2127:2163   */\n    tag_74:\n        /* \"#utility.yul\":1979:2170   */\n      swap3\n      swap2\n      pop\n      pop\n      jump\t// out\n\n    auxdata: 0xa2646970667358221220960b16056f403d60a1870e52d91ef1d4b819309a7c9e8cf2841f9cb603e5a8e664736f6c634300081a0033\n}\n",
				"bytecode": {
					"linkReferences": {},
					"object": "6080604052348015600e575f80fd5b506103178061001c5f395ff3fe608060405234801561000f575f80fd5b5060043610610055575f3560e01c806330bff947146100595780638ada066e14610063578063d1bbbe8f14610081578063d6d4acb71461008b578063fe4b84df146100a7575b5f80fd5b6100616100c3565b005b61006b6100db565b60405161007891906101a1565b60405180910390f35b6100896100e3565b005b6100a560048036038101906100a091906101e8565b6100fb565b005b6100c160048036038101906100bc91906101e8565b610115565b005b5f808154809291906100d490610240565b9190505550565b5f8054905090565b5f808154809291906100f490610287565b9190505550565b805f8082825461010b91906102ae565b9250508190555050565b60015f9054906101000a900460ff161561015b576040517fd544fcb000000000000000000000000000000000000000000000000000000000815260040160405180910390fd5b60068161016891906102ae565b5f819055506001805f6101000a81548160ff02191690831515021790555050565b5f819050919050565b61019b81610189565b82525050565b5f6020820190506101b45f830184610192565b92915050565b5f80fd5b6101c781610189565b81146101d1575f80fd5b50565b5f813590506101e2816101be565b92915050565b5f602082840312156101fd576101fc6101ba565b5b5f61020a848285016101d4565b91505092915050565b7f4e487b71000000000000000000000000000000000000000000000000000000005f52601160045260245ffd5b5f61024a82610189565b91507fffffffffffffffffffffffffffffffffffffffffffffffffffffffffffffffff820361027c5761027b610213565b5b600182019050919050565b5f61029182610189565b91505f82036102a3576102a2610213565b5b600182039050919050565b5f6102b882610189565b91506102c383610189565b92508282019050808211156102db576102da610213565b5b9291505056fea2646970667358221220960b16056f403d60a1870e52d91ef1d4b819309a7c9e8cf2841f9cb603e5a8e664736f6c634300081a0033",
					"opcodes": "PUSH1 0x80 PUSH1 0x40 MSTORE CALLVALUE DUP1 ISZERO PUSH1 0xE JUMPI PUSH0 DUP1 REVERT JUMPDEST POP PUSH2 0x317 DUP1 PUSH2 0x1C PUSH0 CODECOPY PUSH0 RETURN INVALID PUSH1 0x80 PUSH1 0x40 MSTORE CALLVALUE DUP1 ISZERO PUSH2 0xF JUMPI PUSH0 DUP1 REVERT JUMPDEST POP PUSH1 0x4 CALLDATASIZE LT PUSH2 0x55 JUMPI PUSH0 CALLDATALOAD PUSH1 0xE0 SHR DUP1 PUSH4 0x30BFF947 EQ PUSH2 0x59 JUMPI DUP1 PUSH4 0x8ADA066E EQ PUSH2 0x63 JUMPI DUP1 PUSH4 0xD1BBBE8F EQ PUSH2 0x81 JUMPI DUP1 PUSH4 0xD6D4ACB7 EQ PUSH2 0x8B JUMPI DUP1 PUSH4 0xFE4B84DF EQ PUSH2 0xA7 JUMPI JUMPDEST PUSH0 DUP1 REVERT JUMPDEST PUSH2 0x61 PUSH2 0xC3 JUMP JUMPDEST STOP JUMPDEST PUSH2 0x6B PUSH2 0xDB JUMP JUMPDEST PUSH1 0x40 MLOAD PUSH2 0x78 SWAP2 SWAP1 PUSH2 0x1A1 JUMP JUMPDEST PUSH1 0x40 MLOAD DUP1 SWAP2 SUB SWAP1 RETURN JUMPDEST PUSH2 0x89 PUSH2 0xE3 JUMP JUMPDEST STOP JUMPDEST PUSH2 0xA5 PUSH1 0x4 DUP1 CALLDATASIZE SUB DUP2 ADD SWAP1 PUSH2 0xA0 SWAP2 SWAP1 PUSH2 0x1E8 JUMP JUMPDEST PUSH2 0xFB JUMP JUMPDEST STOP JUMPDEST PUSH2 0xC1 PUSH1 0x4 DUP1 CALLDATASIZE SUB DUP2 ADD SWAP1 PUSH2 0xBC SWAP2 SWAP1 PUSH2 0x1E8 JUMP JUMPDEST PUSH2 0x115 JUMP JUMPDEST STOP JUMPDEST PUSH0 DUP1 DUP2 SLOAD DUP1 SWAP3 SWAP2 SWAP1 PUSH2 0xD4 SWAP1 PUSH2 0x240 JUMP JUMPDEST SWAP2 SWAP1 POP SSTORE POP JUMP JUMPDEST PUSH0 DUP1 SLOAD SWAP1 POP SWAP1 JUMP JUMPDEST PUSH0 DUP1 DUP2 SLOAD DUP1 SWAP3 SWAP2 SWAP1 PUSH2 0xF4 SWAP1 PUSH2 0x287 JUMP JUMPDEST SWAP2 SWAP1 POP SSTORE POP JUMP JUMPDEST DUP1 PUSH0 DUP1 DUP3 DUP3 SLOAD PUSH2 0x10B SWAP2 SWAP1 PUSH2 0x2AE JUMP JUMPDEST SWAP3 POP POP DUP2 SWAP1 SSTORE POP POP JUMP JUMPDEST PUSH1 0x1 PUSH0 SWAP1 SLOAD SWAP1 PUSH2 0x100 EXP SWAP1 DIV PUSH1 0xFF AND ISZERO PUSH2 0x15B JUMPI PUSH1 0x40 MLOAD PUSH32 0xD544FCB000000000000000000000000000000000000000000000000000000000 DUP2 MSTORE PUSH1 0x4 ADD PUSH1 0x40 MLOAD DUP1 SWAP2 SUB SWAP1 REVERT JUMPDEST PUSH1 0x6 DUP2 PUSH2 0x168 SWAP2 SWAP1 PUSH2 0x2AE JUMP JUMPDEST PUSH0 DUP2 SWAP1 SSTORE POP PUSH1 0x1 DUP1 PUSH0 PUSH2 0x100 EXP DUP2 SLOAD DUP2 PUSH1 0xFF MUL NOT AND SWAP1 DUP4 ISZERO ISZERO MUL OR SWAP1 SSTORE POP POP JUMP JUMPDEST PUSH0 DUP2 SWAP1 POP SWAP2 SWAP1 POP JUMP JUMPDEST PUSH2 0x19B DUP2 PUSH2 0x189 JUMP JUMPDEST DUP3 MSTORE POP POP JUMP JUMPDEST PUSH0 PUSH1 0x20 DUP3 ADD SWAP1 POP PUSH2 0x1B4 PUSH0 DUP4 ADD DUP5 PUSH2 0x192 JUMP JUMPDEST SWAP3 SWAP2 POP POP JUMP JUMPDEST PUSH0 DUP1 REVERT JUMPDEST PUSH2 0x1C7 DUP2 PUSH2 0x189 JUMP JUMPDEST DUP2 EQ PUSH2 0x1D1 JUMPI PUSH0 DUP1 REVERT JUMPDEST POP JUMP JUMPDEST PUSH0 DUP2 CALLDATALOAD SWAP1 POP PUSH2 0x1E2 DUP2 PUSH2 0x1BE JUMP JUMPDEST SWAP3 SWAP2 POP POP JUMP JUMPDEST PUSH0 PUSH1 0x20 DUP3 DUP5 SUB SLT ISZERO PUSH2 0x1FD JUMPI PUSH2 0x1FC PUSH2 0x1BA JUMP JUMPDEST JUMPDEST PUSH0 PUSH2 0x20A DUP5 DUP3 DUP6 ADD PUSH2 0x1D4 JUMP JUMPDEST SWAP2 POP POP SWAP3 SWAP2 POP POP JUMP JUMPDEST PUSH32 0x4E487B7100000000000000000000000000000000000000000000000000000000 PUSH0 MSTORE PUSH1 0x11 PUSH1 0x4 MSTORE PUSH1 0x24 PUSH0 REVERT JUMPDEST PUSH0 PUSH2 0x24A DUP3 PUSH2 0x189 JUMP JUMPDEST SWAP2 POP PUSH32 0xFFFFFFFFFFFFFFFFFFFFFFFFFFFFFFFFFFFFFFFFFFFFFFFFFFFFFFFFFFFFFFFF DUP3 SUB PUSH2 0x27C JUMPI PUSH2 0x27B PUSH2 0x213 JUMP JUMPDEST JUMPDEST PUSH1 0x1 DUP3 ADD SWAP1 POP SWAP2 SWAP1 POP JUMP JUMPDEST PUSH0 PUSH2 0x291 DUP3 PUSH2 0x189 JUMP JUMPDEST SWAP2 POP PUSH0 DUP3 SUB PUSH2 0x2A3 JUMPI PUSH2 0x2A2 PUSH2 0x213 JUMP JUMPDEST JUMPDEST PUSH1 0x1 DUP3 SUB SWAP1 POP SWAP2 SWAP1 POP JUMP JUMPDEST PUSH0 PUSH2 0x2B8 DUP3 PUSH2 0x189 JUMP JUMPDEST SWAP2 POP PUSH2 0x2C3 DUP4 PUSH2 0x189 JUMP JUMPDEST SWAP3 POP DUP3 DUP3 ADD SWAP1 POP DUP1 DUP3 GT ISZERO PUSH2 0x2DB JUMPI PUSH2 0x2DA PUSH2 0x213 JUMP JUMPDEST JUMPDEST SWAP3 SWAP2 POP POP JUMP INVALID LOG2 PUSH5 0x6970667358 0x22 SLT KECCAK256 SWAP7 SIGNEXTEND AND SDIV PUSH16 0x403D60A1870E52D91EF1D4B819309A7C SWAP15 DUP13 CALLCODE DUP5 0x1F SWAP13 0xB6 SUB 0xE5 0xA8 0xE6 PUSH5 0x736F6C6343 STOP ADDMOD BYTE STOP CALLER "
				},
				"gasEstimates": {
					"creation": {
						"codeDepositCost": "158200",
						"executionCost": "200",
						"totalCost": "158400"
					},
					"external": {
						"decrea()": "24518",
						"getCounter()": "2432",
						"increa()": "24475",
						"increaBy(uint256)": "infinite",
						"initialize(uint256)": "infinite"
					}
				},
				"methodIdentifiers": {
					"decrea()": "d1bbbe8f",
					"getCounter()": "8ada066e",
					"increa()": "30bff947",
					"increaBy(uint256)": "d6d4acb7",
					"initialize(uint256)": "fe4b84df"
				}
			},
			"storageLayout": {
				"storage": [
					{
						"astId": 3,
						"contract": "contracts/proxy/ERC1967/LogicV2.sol:LogicV2",
						"label": "counter",
						"offset": 0,
						"slot": "0",
						"type": "t_uint256"
					},
					{
						"astId": 5,
						"contract": "contracts/proxy/ERC1967/LogicV2.sol:LogicV2",
						"label": "isInitialized",
						"offset": 0,
						"slot": "1",
						"type": "t_bool"
					}
				],
				"types": {
					"t_bool": {
						"encoding": "inplace",
						"label": "bool",
						"numberOfBytes": "1"
					},
					"t_uint256": {
						"encoding": "inplace",
						"label": "uint256",
						"numberOfBytes": "32"
					}
				}
			},
			"userdoc": {
				"kind": "user",
				"methods": {},
				"version": 1
			}
		}
	}
}