{
	"contracts/proxy/ERC1967/TransparentUpgradeableProxy.sol": {
		"TransparentUpgradeableProxy": {
			"abi": [
				{
					"inputs": [
						{
							"internalType": "address",
							"name": "_logicAddress",
							"type": "address"
						},
						{
							"internalType": "bytes",
							"name": "data",
							"type": "bytes"
						}
					],
					"stateMutability": "nonpayable",
					"type": "constructor"
				},
				{
					"inputs": [],
					"name": "AddressEmptyError",
					"type": "error"
				},
				{
					"inputs": [
						{
							"internalType": "string",
							"name": "data",
							"type": "string"
						}
					],
					"name": "NotAdminError",
					"type": "error"
				},
				{
					"anonymous": false,
					"inputs": [
						{
							"indexed": true,
							"internalType": "address",
							"name": "from",
							"type": "address"
						},
						{
							"indexed": true,
							"internalType": "bytes4",
							"name": "msgSig",
							"type": "bytes4"
						},
						{
							"indexed": false,
							"internalType": "bytes",
							"name": "msgData",
							"type": "bytes"
						}
					],
					"name": "FallbackLog",
					"type": "event"
				},
				{
					"anonymous": false,
					"inputs": [
						{
							"indexed": true,
							"internalType": "address",
							"name": "logicAddress",
							"type": "address"
						},
						{
							"indexed": false,
							"internalType": "bytes",
							"name": "data",
							"type": "bytes"
						},
						{
							"indexed": false,
							"internalType": "bool",
							"name": "success",
							"type": "bool"
						},
						{
							"indexed": false,
							"internalType": "bytes",
							"name": "resultData",
							"type": "bytes"
						}
					],
					"name": "UpgradeAndCallLog",
					"type": "event"
				},
				{
					"stateMutability": "payable",
					"type": "fallback"
				},
				{
					"inputs": [
						{
							"internalType": "address",
							"name": "_newAdmin",
							"type": "address"
						}
					],
					"name": "changeAdmin",
					"outputs": [],
					"stateMutability": "nonpayable",
					"type": "function"
				},
				{
					"inputs": [],
					"name": "getAdmin",
					"outputs": [
						{
							"internalType": "address",
							"name": "",
							"type": "address"
						}
					],
					"stateMutability": "view",
					"type": "function"
				},
				{
					"inputs": [
						{
							"internalType": "address",
							"name": "newLogicAddress",
							"type": "address"
						},
						{
							"internalType": "bytes",
							"name": "data",
							"type": "bytes"
						}
					],
					"name": "upgradeLogicAddress",
					"outputs": [],
					"stateMutability": "nonpayable",
					"type": "function"
				},
				{
					"stateMutability": "payable",
					"type": "receive"
				}
			],
			"devdoc": {
				"details": "This contract implements a transparent proxy pattern that forwards calls  to an implementation (logic) contract. It allows for upgrading the logic contract  and changing the admin, while ensuring storage layout consistency through custom  storage slots as per EIP-1967.  Features: 1. Fallback function forwards calls to the logic contract. 2. Assembly-based handling of return data in fallback. 3. Upgradable logic contract and adjustable admin permissions. 4. Consistent storage layout using custom storage slots (ERC1967 standard). 5. Initialization logic executed upon deployment or upgrades.",
				"errors": {
					"AddressEmptyError()": [
						{
							"details": "Error thrown when a zero address is provided."
						}
					],
					"NotAdminError(string)": [
						{
							"details": "Custom error for unauthorized access attempts.",
							"params": {
								"data": "A descriptive error message."
							}
						}
					]
				},
				"events": {
					"FallbackLog(address,bytes4,bytes)": {
						"details": "Emitted when a fallback call is forwarded to the logic contract."
					},
					"UpgradeAndCallLog(address,bytes,bool,bytes)": {
						"details": "Emitted when the logic contract is upgraded and initialization logic is executed."
					}
				},
				"kind": "dev",
				"methods": {
					"changeAdmin(address)": {
						"details": "Allows the admin to change the admin address.",
						"params": {
							"_newAdmin": "The address of the new admin."
						}
					},
					"constructor": {
						"details": "Constructor that sets the initial logic contract and optionally initializes it.",
						"params": {
							"_logicAddress": "The address of the initial logic contract.",
							"data": "Initialization data encoded as bytes (e.g., abi.encodeWithSignature)."
						}
					},
					"getAdmin()": {
						"details": "Retrieves the current admin address.",
						"returns": {
							"_0": "The address of the current admin."
						}
					},
					"upgradeLogicAddress(address,bytes)": {
						"details": "Allows the admin to upgrade the logic contract and optionally initialize it.",
						"params": {
							"data": "Initialization data to be executed on the new logic contract.",
							"newLogicAddress": "The address of the new logic contract."
						}
					}
				},
				"title": "TransparentUpgradeableProxy",
				"version": 1
			},
			"evm": {
				"assembly": "    /* \"contracts/proxy/ERC1967/TransparentUpgradeableProxy.sol\":874:4148  contract TransparentUpgradeableProxy is ProxyAdmin {... */\n  mstore(0x40, 0x80)\n    /* \"contracts/proxy/ERC1967/TransparentUpgradeableProxy.sol\":1680:1810  constructor(address _logicAddress, bytes memory data) ProxyAdmin(msg.sender) {... */\n  callvalue\n  dup1\n  iszero\n  tag_1\n  jumpi\n  0x00\n  dup1\n  revert\ntag_1:\n  pop\n  mload(0x40)\n  sub(codesize, bytecodeSize)\n  dup1\n  bytecodeSize\n  dup4\n  codecopy\n  dup2\n  dup2\n  add\n  0x40\n  mstore\n  dup2\n  add\n  swap1\n  tag_2\n  swap2\n  swap1\n  tag_3\n  jump\t// in\ntag_2:\n    /* \"contracts/proxy/ERC1967/TransparentUpgradeableProxy.sol\":1745:1755  msg.sender */\n  caller\n    /* \"contracts/proxy/ERC1967/ProxyAdmin.sol\":792:835  ERC1967Utils.setAdminAddress(_adminAddress) */\n  tag_7\n    /* \"contracts/proxy/ERC1967/ProxyAdmin.sol\":821:834  _adminAddress */\n  dup2\n    /* \"contracts/proxy/ERC1967/ProxyAdmin.sol\":792:820  ERC1967Utils.setAdminAddress */\n  shl(0x20, tag_8)\n    /* \"contracts/proxy/ERC1967/ProxyAdmin.sol\":792:835  ERC1967Utils.setAdminAddress(_adminAddress) */\n  0x20\n  shr\n  jump\t// in\ntag_7:\n    /* \"contracts/proxy/ERC1967/ProxyAdmin.sol\":747:842  constructor(address _adminAddress) {... */\n  pop\n    /* \"contracts/proxy/ERC1967/TransparentUpgradeableProxy.sol\":1767:1803  _upgradeAndCall(_logicAddress, data) */\n  tag_10\n    /* \"contracts/proxy/ERC1967/TransparentUpgradeableProxy.sol\":1783:1796  _logicAddress */\n  dup3\n    /* \"contracts/proxy/ERC1967/TransparentUpgradeableProxy.sol\":1798:1802  data */\n  dup3\n    /* \"contracts/proxy/ERC1967/TransparentUpgradeableProxy.sol\":1767:1782  _upgradeAndCall */\n  shl(0x20, tag_11)\n    /* \"contracts/proxy/ERC1967/TransparentUpgradeableProxy.sol\":1767:1803  _upgradeAndCall(_logicAddress, data) */\n  0x20\n  shr\n  jump\t// in\ntag_10:\n    /* \"contracts/proxy/ERC1967/TransparentUpgradeableProxy.sol\":1680:1810  constructor(address _logicAddress, bytes memory data) ProxyAdmin(msg.sender) {... */\n  pop\n  pop\n    /* \"contracts/proxy/ERC1967/TransparentUpgradeableProxy.sol\":874:4148  contract TransparentUpgradeableProxy is ProxyAdmin {... */\n  jump(tag_12)\n    /* \"contracts/proxy/ERC1967/ERC1967Utils.sol\":2269:2391  function setAdminAddress(address _adminAddress) internal {... */\ntag_8:\n    /* \"contracts/proxy/ERC1967/ERC1967Utils.sol\":2371:2384  _adminAddress */\n  dup1\n    /* \"contracts/proxy/ERC1967/ERC1967Utils.sol\":2336:2362  getAddressSlot(ADMIN_SLOT) */\n  tag_14\n    /* \"contracts/proxy/ERC1967/ERC1967Utils.sol\":1814:1880  0xb53127684a568b3173ae13b9f8a6016e243e63b6e8ee1178d6a717850b5d6103 */\n  0xb53127684a568b3173ae13b9f8a6016e243e63b6e8ee1178d6a717850b5d6103\n    /* \"contracts/proxy/ERC1967/ERC1967Utils.sol\":2351:2361  ADMIN_SLOT */\n  0x00\n  shl\n    /* \"contracts/proxy/ERC1967/ERC1967Utils.sol\":2336:2350  getAddressSlot */\n  shl(0x20, tag_15)\n    /* \"contracts/proxy/ERC1967/ERC1967Utils.sol\":2336:2362  getAddressSlot(ADMIN_SLOT) */\n  0x20\n  shr\n  jump\t// in\ntag_14:\n    /* \"contracts/proxy/ERC1967/ERC1967Utils.sol\":2336:2368  getAddressSlot(ADMIN_SLOT).value */\n  0x00\n  add\n  0x00\n    /* \"contracts/proxy/ERC1967/ERC1967Utils.sol\":2336:2384  getAddressSlot(ADMIN_SLOT).value = _adminAddress */\n  0x0100\n  exp\n  dup2\n  sload\n  dup2\n  0xffffffffffffffffffffffffffffffffffffffff\n  mul\n  not\n  and\n  swap1\n  dup4\n  0xffffffffffffffffffffffffffffffffffffffff\n  and\n  mul\n  or\n  swap1\n  sstore\n  pop\n    /* \"contracts/proxy/ERC1967/ERC1967Utils.sol\":2269:2391  function setAdminAddress(address _adminAddress) internal {... */\n  pop\n  jump\t// out\n    /* \"contracts/proxy/ERC1967/TransparentUpgradeableProxy.sol\":3152:3681  function _upgradeAndCall(address _address, bytes memory data) private {... */\ntag_11:\n    /* \"contracts/proxy/ERC1967/TransparentUpgradeableProxy.sol\":3256:3257  0 */\n  0x00\n    /* \"contracts/proxy/ERC1967/TransparentUpgradeableProxy.sol\":3236:3258  _address == address(0) */\n  0xffffffffffffffffffffffffffffffffffffffff\n  and\n    /* \"contracts/proxy/ERC1967/TransparentUpgradeableProxy.sol\":3236:3244  _address */\n  dup3\n    /* \"contracts/proxy/ERC1967/TransparentUpgradeableProxy.sol\":3236:3258  _address == address(0) */\n  0xffffffffffffffffffffffffffffffffffffffff\n  and\n  sub\n    /* \"contracts/proxy/ERC1967/TransparentUpgradeableProxy.sol\":3232:3311  if (_address == address(0)) {... */\n  tag_17\n  jumpi\n    /* \"contracts/proxy/ERC1967/TransparentUpgradeableProxy.sol\":3281:3300  AddressEmptyError() */\n  mload(0x40)\n  0xae7c562200000000000000000000000000000000000000000000000000000000\n  dup2\n  mstore\n  0x04\n  add\n  mload(0x40)\n  dup1\n  swap2\n  sub\n  swap1\n  revert\n    /* \"contracts/proxy/ERC1967/TransparentUpgradeableProxy.sol\":3232:3311  if (_address == address(0)) {... */\ntag_17:\n    /* \"contracts/proxy/ERC1967/TransparentUpgradeableProxy.sol\":3377:3424  ERC1967Utils.setImplementationAddress(_address) */\n  tag_18\n    /* \"contracts/proxy/ERC1967/TransparentUpgradeableProxy.sol\":3415:3423  _address */\n  dup3\n    /* \"contracts/proxy/ERC1967/TransparentUpgradeableProxy.sol\":3377:3414  ERC1967Utils.setImplementationAddress */\n  shl(0x20, tag_19)\n    /* \"contracts/proxy/ERC1967/TransparentUpgradeableProxy.sol\":3377:3424  ERC1967Utils.setImplementationAddress(_address) */\n  0x20\n  shr\n  jump\t// in\ntag_18:\n    /* \"contracts/proxy/ERC1967/TransparentUpgradeableProxy.sol\":3505:3506  0 */\n  0x00\n    /* \"contracts/proxy/ERC1967/TransparentUpgradeableProxy.sol\":3491:3495  data */\n  dup2\n    /* \"contracts/proxy/ERC1967/TransparentUpgradeableProxy.sol\":3491:3502  data.length */\n  mload\n    /* \"contracts/proxy/ERC1967/TransparentUpgradeableProxy.sol\":3491:3506  data.length > 0 */\n  gt\n    /* \"contracts/proxy/ERC1967/TransparentUpgradeableProxy.sol\":3487:3675  if (data.length > 0) {... */\n  iszero\n  tag_20\n  jumpi\n    /* \"contracts/proxy/ERC1967/TransparentUpgradeableProxy.sol\":3523:3535  bool success */\n  0x00\n    /* \"contracts/proxy/ERC1967/TransparentUpgradeableProxy.sol\":3537:3560  bytes memory resultData */\n  dup1\n    /* \"contracts/proxy/ERC1967/TransparentUpgradeableProxy.sol\":3564:3572  _address */\n  dup4\n    /* \"contracts/proxy/ERC1967/TransparentUpgradeableProxy.sol\":3564:3585  _address.delegatecall */\n  0xffffffffffffffffffffffffffffffffffffffff\n  and\n    /* \"contracts/proxy/ERC1967/TransparentUpgradeableProxy.sol\":3586:3590  data */\n  dup4\n    /* \"contracts/proxy/ERC1967/TransparentUpgradeableProxy.sol\":3564:3591  _address.delegatecall(data) */\n  mload(0x40)\n  tag_21\n  swap2\n  swap1\n  tag_22\n  jump\t// in\ntag_21:\n  0x00\n  mload(0x40)\n  dup1\n  dup4\n  sub\n  dup2\n  dup6\n  gas\n  delegatecall\n  swap2\n  pop\n  pop\n  returndatasize\n  dup1\n  0x00\n  dup2\n  eq\n  tag_25\n  jumpi\n  mload(0x40)\n  swap2\n  pop\n  and(add(returndatasize, 0x3f), not(0x1f))\n  dup3\n  add\n  0x40\n  mstore\n  returndatasize\n  dup3\n  mstore\n  returndatasize\n  0x00\n  0x20\n  dup5\n  add\n  returndatacopy\n  jump(tag_24)\ntag_25:\n  0x60\n  swap2\n  pop\ntag_24:\n  pop\n    /* \"contracts/proxy/ERC1967/TransparentUpgradeableProxy.sol\":3522:3591  (bool success, bytes memory resultData) = _address.delegatecall(data) */\n  swap2\n  pop\n  swap2\n  pop\n    /* \"contracts/proxy/ERC1967/TransparentUpgradeableProxy.sol\":3628:3636  _address */\n  dup4\n    /* \"contracts/proxy/ERC1967/TransparentUpgradeableProxy.sol\":3610:3664  UpgradeAndCallLog(_address, data, success, resultData) */\n  0xffffffffffffffffffffffffffffffffffffffff\n  and\n  0x20423e22d1f0b31668780a7b6e52a7ad77a44c7dd910f738df5e2d06244fb559\n    /* \"contracts/proxy/ERC1967/TransparentUpgradeableProxy.sol\":3638:3642  data */\n  dup5\n    /* \"contracts/proxy/ERC1967/TransparentUpgradeableProxy.sol\":3644:3651  success */\n  dup5\n    /* \"contracts/proxy/ERC1967/TransparentUpgradeableProxy.sol\":3653:3663  resultData */\n  dup5\n    /* \"contracts/proxy/ERC1967/TransparentUpgradeableProxy.sol\":3610:3664  UpgradeAndCallLog(_address, data, success, resultData) */\n  mload(0x40)\n  tag_26\n  swap4\n  swap3\n  swap2\n  swap1\n  tag_27\n  jump\t// in\ntag_26:\n  mload(0x40)\n  dup1\n  swap2\n  sub\n  swap1\n  log2\n    /* \"contracts/proxy/ERC1967/TransparentUpgradeableProxy.sol\":3508:3675  {... */\n  pop\n  pop\n    /* \"contracts/proxy/ERC1967/TransparentUpgradeableProxy.sol\":3487:3675  if (data.length > 0) {... */\ntag_20:\n    /* \"contracts/proxy/ERC1967/TransparentUpgradeableProxy.sol\":3152:3681  function _upgradeAndCall(address _address, bytes memory data) private {... */\n  pop\n  pop\n  jump\t// out\n    /* \"contracts/proxy/ERC1967/ERC1967Utils.sol\":2727:2890  function getAddressSlot(bytes32 slot) internal pure returns (AddressSlot storage r) {... */\ntag_15:\n    /* \"contracts/proxy/ERC1967/ERC1967Utils.sol\":2788:2809  AddressSlot storage r */\n  0x00\n    /* \"contracts/proxy/ERC1967/ERC1967Utils.sol\":2870:2874  slot */\n  dup2\n    /* \"contracts/proxy/ERC1967/ERC1967Utils.sol\":2860:2874  r.slot := slot */\n  swap1\n  pop\n    /* \"contracts/proxy/ERC1967/ERC1967Utils.sol\":2727:2890  function getAddressSlot(bytes32 slot) internal pure returns (AddressSlot storage r) {... */\n  swap2\n  swap1\n  pop\n  jump\t// out\n    /* \"contracts/proxy/ERC1967/ERC1967Utils.sol\":1378:1536  function setImplementationAddress(address _implementationAddress) internal {... */\ntag_19:\n    /* \"contracts/proxy/ERC1967/ERC1967Utils.sol\":1507:1529  _implementationAddress */\n  dup1\n    /* \"contracts/proxy/ERC1967/ERC1967Utils.sol\":1463:1498  getAddressSlot(IMPLEMENTATION_SLOT) */\n  tag_30\n    /* \"contracts/proxy/ERC1967/ERC1967Utils.sol\":824:890  0x360894a13ba1a3210667c828492db98dca3e2076cc3735a920a3ca505d382bbc */\n  0x360894a13ba1a3210667c828492db98dca3e2076cc3735a920a3ca505d382bbc\n    /* \"contracts/proxy/ERC1967/ERC1967Utils.sol\":1478:1497  IMPLEMENTATION_SLOT */\n  0x00\n  shl\n    /* \"contracts/proxy/ERC1967/ERC1967Utils.sol\":1463:1477  getAddressSlot */\n  shl(0x20, tag_15)\n    /* \"contracts/proxy/ERC1967/ERC1967Utils.sol\":1463:1498  getAddressSlot(IMPLEMENTATION_SLOT) */\n  0x20\n  shr\n  jump\t// in\ntag_30:\n    /* \"contracts/proxy/ERC1967/ERC1967Utils.sol\":1463:1504  getAddressSlot(IMPLEMENTATION_SLOT).value */\n  0x00\n  add\n  0x00\n    /* \"contracts/proxy/ERC1967/ERC1967Utils.sol\":1463:1529  getAddressSlot(IMPLEMENTATION_SLOT).value = _implementationAddress */\n  0x0100\n  exp\n  dup2\n  sload\n  dup2\n  0xffffffffffffffffffffffffffffffffffffffff\n  mul\n  not\n  and\n  swap1\n  dup4\n  0xffffffffffffffffffffffffffffffffffffffff\n  and\n  mul\n  or\n  swap1\n  sstore\n  pop\n    /* \"contracts/proxy/ERC1967/ERC1967Utils.sol\":1378:1536  function setImplementationAddress(address _implementationAddress) internal {... */\n  pop\n  jump\t// out\n    /* \"#utility.yul\":7:82   */\ntag_31:\n    /* \"#utility.yul\":40:46   */\n  0x00\n    /* \"#utility.yul\":73:75   */\n  0x40\n    /* \"#utility.yul\":67:76   */\n  mload\n    /* \"#utility.yul\":57:76   */\n  swap1\n  pop\n    /* \"#utility.yul\":7:82   */\n  swap1\n  jump\t// out\n    /* \"#utility.yul\":88:205   */\ntag_32:\n    /* \"#utility.yul\":197:198   */\n  0x00\n    /* \"#utility.yul\":194:195   */\n  dup1\n    /* \"#utility.yul\":187:199   */\n  revert\n    /* \"#utility.yul\":211:328   */\ntag_33:\n    /* \"#utility.yul\":320:321   */\n  0x00\n    /* \"#utility.yul\":317:318   */\n  dup1\n    /* \"#utility.yul\":310:322   */\n  revert\n    /* \"#utility.yul\":334:460   */\ntag_34:\n    /* \"#utility.yul\":371:378   */\n  0x00\n    /* \"#utility.yul\":411:453   */\n  0xffffffffffffffffffffffffffffffffffffffff\n    /* \"#utility.yul\":404:409   */\n  dup3\n    /* \"#utility.yul\":400:454   */\n  and\n    /* \"#utility.yul\":389:454   */\n  swap1\n  pop\n    /* \"#utility.yul\":334:460   */\n  swap2\n  swap1\n  pop\n  jump\t// out\n    /* \"#utility.yul\":466:562   */\ntag_35:\n    /* \"#utility.yul\":503:510   */\n  0x00\n    /* \"#utility.yul\":532:556   */\n  tag_61\n    /* \"#utility.yul\":550:555   */\n  dup3\n    /* \"#utility.yul\":532:556   */\n  tag_34\n  jump\t// in\ntag_61:\n    /* \"#utility.yul\":521:556   */\n  swap1\n  pop\n    /* \"#utility.yul\":466:562   */\n  swap2\n  swap1\n  pop\n  jump\t// out\n    /* \"#utility.yul\":568:690   */\ntag_36:\n    /* \"#utility.yul\":641:665   */\n  tag_63\n    /* \"#utility.yul\":659:664   */\n  dup2\n    /* \"#utility.yul\":641:665   */\n  tag_35\n  jump\t// in\ntag_63:\n    /* \"#utility.yul\":634:639   */\n  dup2\n    /* \"#utility.yul\":631:666   */\n  eq\n    /* \"#utility.yul\":621:684   */\n  tag_64\n  jumpi\n    /* \"#utility.yul\":680:681   */\n  0x00\n    /* \"#utility.yul\":677:678   */\n  dup1\n    /* \"#utility.yul\":670:682   */\n  revert\n    /* \"#utility.yul\":621:684   */\ntag_64:\n    /* \"#utility.yul\":568:690   */\n  pop\n  jump\t// out\n    /* \"#utility.yul\":696:839   */\ntag_37:\n    /* \"#utility.yul\":753:758   */\n  0x00\n    /* \"#utility.yul\":784:790   */\n  dup2\n    /* \"#utility.yul\":778:791   */\n  mload\n    /* \"#utility.yul\":769:791   */\n  swap1\n  pop\n    /* \"#utility.yul\":800:833   */\n  tag_66\n    /* \"#utility.yul\":827:832   */\n  dup2\n    /* \"#utility.yul\":800:833   */\n  tag_36\n  jump\t// in\ntag_66:\n    /* \"#utility.yul\":696:839   */\n  swap3\n  swap2\n  pop\n  pop\n  jump\t// out\n    /* \"#utility.yul\":845:962   */\ntag_38:\n    /* \"#utility.yul\":954:955   */\n  0x00\n    /* \"#utility.yul\":951:952   */\n  dup1\n    /* \"#utility.yul\":944:956   */\n  revert\n    /* \"#utility.yul\":968:1085   */\ntag_39:\n    /* \"#utility.yul\":1077:1078   */\n  0x00\n    /* \"#utility.yul\":1074:1075   */\n  dup1\n    /* \"#utility.yul\":1067:1079   */\n  revert\n    /* \"#utility.yul\":1091:1193   */\ntag_40:\n    /* \"#utility.yul\":1132:1138   */\n  0x00\n    /* \"#utility.yul\":1183:1185   */\n  0x1f\n    /* \"#utility.yul\":1179:1186   */\n  not\n    /* \"#utility.yul\":1174:1176   */\n  0x1f\n    /* \"#utility.yul\":1167:1172   */\n  dup4\n    /* \"#utility.yul\":1163:1177   */\n  add\n    /* \"#utility.yul\":1159:1187   */\n  and\n    /* \"#utility.yul\":1149:1187   */\n  swap1\n  pop\n    /* \"#utility.yul\":1091:1193   */\n  swap2\n  swap1\n  pop\n  jump\t// out\n    /* \"#utility.yul\":1199:1379   */\ntag_41:\n    /* \"#utility.yul\":1247:1324   */\n  0x4e487b7100000000000000000000000000000000000000000000000000000000\n    /* \"#utility.yul\":1244:1245   */\n  0x00\n    /* \"#utility.yul\":1237:1325   */\n  mstore\n    /* \"#utility.yul\":1344:1348   */\n  0x41\n    /* \"#utility.yul\":1341:1342   */\n  0x04\n    /* \"#utility.yul\":1334:1349   */\n  mstore\n    /* \"#utility.yul\":1368:1372   */\n  0x24\n    /* \"#utility.yul\":1365:1366   */\n  0x00\n    /* \"#utility.yul\":1358:1373   */\n  revert\n    /* \"#utility.yul\":1385:1666   */\ntag_42:\n    /* \"#utility.yul\":1468:1495   */\n  tag_72\n    /* \"#utility.yul\":1490:1494   */\n  dup3\n    /* \"#utility.yul\":1468:1495   */\n  tag_40\n  jump\t// in\ntag_72:\n    /* \"#utility.yul\":1460:1466   */\n  dup2\n    /* \"#utility.yul\":1456:1496   */\n  add\n    /* \"#utility.yul\":1598:1604   */\n  dup2\n    /* \"#utility.yul\":1586:1596   */\n  dup2\n    /* \"#utility.yul\":1583:1605   */\n  lt\n    /* \"#utility.yul\":1562:1580   */\n  0xffffffffffffffff\n    /* \"#utility.yul\":1550:1560   */\n  dup3\n    /* \"#utility.yul\":1547:1581   */\n  gt\n    /* \"#utility.yul\":1544:1606   */\n  or\n    /* \"#utility.yul\":1541:1629   */\n  iszero\n  tag_73\n  jumpi\n    /* \"#utility.yul\":1609:1627   */\n  tag_74\n  tag_41\n  jump\t// in\ntag_74:\n    /* \"#utility.yul\":1541:1629   */\ntag_73:\n    /* \"#utility.yul\":1649:1659   */\n  dup1\n    /* \"#utility.yul\":1645:1647   */\n  0x40\n    /* \"#utility.yul\":1638:1660   */\n  mstore\n    /* \"#utility.yul\":1428:1666   */\n  pop\n    /* \"#utility.yul\":1385:1666   */\n  pop\n  pop\n  jump\t// out\n    /* \"#utility.yul\":1672:1801   */\ntag_43:\n    /* \"#utility.yul\":1706:1712   */\n  0x00\n    /* \"#utility.yul\":1733:1753   */\n  tag_76\n  tag_31\n  jump\t// in\ntag_76:\n    /* \"#utility.yul\":1723:1753   */\n  swap1\n  pop\n    /* \"#utility.yul\":1762:1795   */\n  tag_77\n    /* \"#utility.yul\":1790:1794   */\n  dup3\n    /* \"#utility.yul\":1782:1788   */\n  dup3\n    /* \"#utility.yul\":1762:1795   */\n  tag_42\n  jump\t// in\ntag_77:\n    /* \"#utility.yul\":1672:1801   */\n  swap2\n  swap1\n  pop\n  jump\t// out\n    /* \"#utility.yul\":1807:2114   */\ntag_44:\n    /* \"#utility.yul\":1868:1872   */\n  0x00\n    /* \"#utility.yul\":1958:1976   */\n  0xffffffffffffffff\n    /* \"#utility.yul\":1950:1956   */\n  dup3\n    /* \"#utility.yul\":1947:1977   */\n  gt\n    /* \"#utility.yul\":1944:2000   */\n  iszero\n  tag_79\n  jumpi\n    /* \"#utility.yul\":1980:1998   */\n  tag_80\n  tag_41\n  jump\t// in\ntag_80:\n    /* \"#utility.yul\":1944:2000   */\ntag_79:\n    /* \"#utility.yul\":2018:2047   */\n  tag_81\n    /* \"#utility.yul\":2040:2046   */\n  dup3\n    /* \"#utility.yul\":2018:2047   */\n  tag_40\n  jump\t// in\ntag_81:\n    /* \"#utility.yul\":2010:2047   */\n  swap1\n  pop\n    /* \"#utility.yul\":2102:2106   */\n  0x20\n    /* \"#utility.yul\":2096:2100   */\n  dup2\n    /* \"#utility.yul\":2092:2107   */\n  add\n    /* \"#utility.yul\":2084:2107   */\n  swap1\n  pop\n    /* \"#utility.yul\":1807:2114   */\n  swap2\n  swap1\n  pop\n  jump\t// out\n    /* \"#utility.yul\":2120:2259   */\ntag_45:\n    /* \"#utility.yul\":2209:2215   */\n  dup3\n    /* \"#utility.yul\":2204:2207   */\n  dup2\n    /* \"#utility.yul\":2199:2202   */\n  dup4\n    /* \"#utility.yul\":2193:2216   */\n  mcopy\n    /* \"#utility.yul\":2250:2251   */\n  0x00\n    /* \"#utility.yul\":2241:2247   */\n  dup4\n    /* \"#utility.yul\":2236:2239   */\n  dup4\n    /* \"#utility.yul\":2232:2248   */\n  add\n    /* \"#utility.yul\":2225:2252   */\n  mstore\n    /* \"#utility.yul\":2120:2259   */\n  pop\n  pop\n  pop\n  jump\t// out\n    /* \"#utility.yul\":2265:2697   */\ntag_46:\n    /* \"#utility.yul\":2353:2358   */\n  0x00\n    /* \"#utility.yul\":2378:2443   */\n  tag_84\n    /* \"#utility.yul\":2394:2442   */\n  tag_85\n    /* \"#utility.yul\":2435:2441   */\n  dup5\n    /* \"#utility.yul\":2394:2442   */\n  tag_44\n  jump\t// in\ntag_85:\n    /* \"#utility.yul\":2378:2443   */\n  tag_43\n  jump\t// in\ntag_84:\n    /* \"#utility.yul\":2369:2443   */\n  swap1\n  pop\n    /* \"#utility.yul\":2466:2472   */\n  dup3\n    /* \"#utility.yul\":2459:2464   */\n  dup2\n    /* \"#utility.yul\":2452:2473   */\n  mstore\n    /* \"#utility.yul\":2504:2508   */\n  0x20\n    /* \"#utility.yul\":2497:2502   */\n  dup2\n    /* \"#utility.yul\":2493:2509   */\n  add\n    /* \"#utility.yul\":2542:2545   */\n  dup5\n    /* \"#utility.yul\":2533:2539   */\n  dup5\n    /* \"#utility.yul\":2528:2531   */\n  dup5\n    /* \"#utility.yul\":2524:2540   */\n  add\n    /* \"#utility.yul\":2521:2546   */\n  gt\n    /* \"#utility.yul\":2518:2630   */\n  iszero\n  tag_86\n  jumpi\n    /* \"#utility.yul\":2549:2628   */\n  tag_87\n  tag_39\n  jump\t// in\ntag_87:\n    /* \"#utility.yul\":2518:2630   */\ntag_86:\n    /* \"#utility.yul\":2639:2691   */\n  tag_88\n    /* \"#utility.yul\":2684:2690   */\n  dup5\n    /* \"#utility.yul\":2679:2682   */\n  dup3\n    /* \"#utility.yul\":2674:2677   */\n  dup6\n    /* \"#utility.yul\":2639:2691   */\n  tag_45\n  jump\t// in\ntag_88:\n    /* \"#utility.yul\":2359:2697   */\n  pop\n    /* \"#utility.yul\":2265:2697   */\n  swap4\n  swap3\n  pop\n  pop\n  pop\n  jump\t// out\n    /* \"#utility.yul\":2716:3069   */\ntag_47:\n    /* \"#utility.yul\":2782:2787   */\n  0x00\n    /* \"#utility.yul\":2831:2834   */\n  dup3\n    /* \"#utility.yul\":2824:2828   */\n  0x1f\n    /* \"#utility.yul\":2816:2822   */\n  dup4\n    /* \"#utility.yul\":2812:2829   */\n  add\n    /* \"#utility.yul\":2808:2835   */\n  slt\n    /* \"#utility.yul\":2798:2920   */\n  tag_90\n  jumpi\n    /* \"#utility.yul\":2839:2918   */\n  tag_91\n  tag_38\n  jump\t// in\ntag_91:\n    /* \"#utility.yul\":2798:2920   */\ntag_90:\n    /* \"#utility.yul\":2949:2955   */\n  dup2\n    /* \"#utility.yul\":2943:2956   */\n  mload\n    /* \"#utility.yul\":2974:3063   */\n  tag_92\n    /* \"#utility.yul\":3059:3062   */\n  dup5\n    /* \"#utility.yul\":3051:3057   */\n  dup3\n    /* \"#utility.yul\":3044:3048   */\n  0x20\n    /* \"#utility.yul\":3036:3042   */\n  dup7\n    /* \"#utility.yul\":3032:3049   */\n  add\n    /* \"#utility.yul\":2974:3063   */\n  tag_46\n  jump\t// in\ntag_92:\n    /* \"#utility.yul\":2965:3063   */\n  swap2\n  pop\n    /* \"#utility.yul\":2788:3069   */\n  pop\n    /* \"#utility.yul\":2716:3069   */\n  swap3\n  swap2\n  pop\n  pop\n  jump\t// out\n    /* \"#utility.yul\":3075:3753   */\ntag_3:\n    /* \"#utility.yul\":3163:3169   */\n  0x00\n    /* \"#utility.yul\":3171:3177   */\n  dup1\n    /* \"#utility.yul\":3220:3222   */\n  0x40\n    /* \"#utility.yul\":3208:3217   */\n  dup4\n    /* \"#utility.yul\":3199:3206   */\n  dup6\n    /* \"#utility.yul\":3195:3218   */\n  sub\n    /* \"#utility.yul\":3191:3223   */\n  slt\n    /* \"#utility.yul\":3188:3307   */\n  iszero\n  tag_94\n  jumpi\n    /* \"#utility.yul\":3226:3305   */\n  tag_95\n  tag_32\n  jump\t// in\ntag_95:\n    /* \"#utility.yul\":3188:3307   */\ntag_94:\n    /* \"#utility.yul\":3346:3347   */\n  0x00\n    /* \"#utility.yul\":3371:3435   */\n  tag_96\n    /* \"#utility.yul\":3427:3434   */\n  dup6\n    /* \"#utility.yul\":3418:3424   */\n  dup3\n    /* \"#utility.yul\":3407:3416   */\n  dup7\n    /* \"#utility.yul\":3403:3425   */\n  add\n    /* \"#utility.yul\":3371:3435   */\n  tag_37\n  jump\t// in\ntag_96:\n    /* \"#utility.yul\":3361:3435   */\n  swap3\n  pop\n    /* \"#utility.yul\":3317:3445   */\n  pop\n    /* \"#utility.yul\":3505:3507   */\n  0x20\n    /* \"#utility.yul\":3494:3503   */\n  dup4\n    /* \"#utility.yul\":3490:3508   */\n  add\n    /* \"#utility.yul\":3484:3509   */\n  mload\n    /* \"#utility.yul\":3536:3554   */\n  0xffffffffffffffff\n    /* \"#utility.yul\":3528:3534   */\n  dup2\n    /* \"#utility.yul\":3525:3555   */\n  gt\n    /* \"#utility.yul\":3522:3639   */\n  iszero\n  tag_97\n  jumpi\n    /* \"#utility.yul\":3558:3637   */\n  tag_98\n  tag_33\n  jump\t// in\ntag_98:\n    /* \"#utility.yul\":3522:3639   */\ntag_97:\n    /* \"#utility.yul\":3663:3736   */\n  tag_99\n    /* \"#utility.yul\":3728:3735   */\n  dup6\n    /* \"#utility.yul\":3719:3725   */\n  dup3\n    /* \"#utility.yul\":3708:3717   */\n  dup7\n    /* \"#utility.yul\":3704:3726   */\n  add\n    /* \"#utility.yul\":3663:3736   */\n  tag_47\n  jump\t// in\ntag_99:\n    /* \"#utility.yul\":3653:3736   */\n  swap2\n  pop\n    /* \"#utility.yul\":3455:3746   */\n  pop\n    /* \"#utility.yul\":3075:3753   */\n  swap3\n  pop\n  swap3\n  swap1\n  pop\n  jump\t// out\n    /* \"#utility.yul\":3759:3857   */\ntag_48:\n    /* \"#utility.yul\":3810:3816   */\n  0x00\n    /* \"#utility.yul\":3844:3849   */\n  dup2\n    /* \"#utility.yul\":3838:3850   */\n  mload\n    /* \"#utility.yul\":3828:3850   */\n  swap1\n  pop\n    /* \"#utility.yul\":3759:3857   */\n  swap2\n  swap1\n  pop\n  jump\t// out\n    /* \"#utility.yul\":3863:4010   */\ntag_49:\n    /* \"#utility.yul\":3964:3975   */\n  0x00\n    /* \"#utility.yul\":4001:4004   */\n  dup2\n    /* \"#utility.yul\":3986:4004   */\n  swap1\n  pop\n    /* \"#utility.yul\":3863:4010   */\n  swap3\n  swap2\n  pop\n  pop\n  jump\t// out\n    /* \"#utility.yul\":4016:4402   */\ntag_50:\n    /* \"#utility.yul\":4120:4123   */\n  0x00\n    /* \"#utility.yul\":4148:4186   */\n  tag_103\n    /* \"#utility.yul\":4180:4185   */\n  dup3\n    /* \"#utility.yul\":4148:4186   */\n  tag_48\n  jump\t// in\ntag_103:\n    /* \"#utility.yul\":4202:4290   */\n  tag_104\n    /* \"#utility.yul\":4283:4289   */\n  dup2\n    /* \"#utility.yul\":4278:4281   */\n  dup6\n    /* \"#utility.yul\":4202:4290   */\n  tag_49\n  jump\t// in\ntag_104:\n    /* \"#utility.yul\":4195:4290   */\n  swap4\n  pop\n    /* \"#utility.yul\":4299:4364   */\n  tag_105\n    /* \"#utility.yul\":4357:4363   */\n  dup2\n    /* \"#utility.yul\":4352:4355   */\n  dup6\n    /* \"#utility.yul\":4345:4349   */\n  0x20\n    /* \"#utility.yul\":4338:4343   */\n  dup7\n    /* \"#utility.yul\":4334:4350   */\n  add\n    /* \"#utility.yul\":4299:4364   */\n  tag_45\n  jump\t// in\ntag_105:\n    /* \"#utility.yul\":4389:4395   */\n  dup1\n    /* \"#utility.yul\":4384:4387   */\n  dup5\n    /* \"#utility.yul\":4380:4396   */\n  add\n    /* \"#utility.yul\":4373:4396   */\n  swap2\n  pop\n    /* \"#utility.yul\":4124:4402   */\n  pop\n    /* \"#utility.yul\":4016:4402   */\n  swap3\n  swap2\n  pop\n  pop\n  jump\t// out\n    /* \"#utility.yul\":4408:4679   */\ntag_22:\n    /* \"#utility.yul\":4538:4541   */\n  0x00\n    /* \"#utility.yul\":4560:4653   */\n  tag_107\n    /* \"#utility.yul\":4649:4652   */\n  dup3\n    /* \"#utility.yul\":4640:4646   */\n  dup5\n    /* \"#utility.yul\":4560:4653   */\n  tag_50\n  jump\t// in\ntag_107:\n    /* \"#utility.yul\":4553:4653   */\n  swap2\n  pop\n    /* \"#utility.yul\":4670:4673   */\n  dup2\n    /* \"#utility.yul\":4663:4673   */\n  swap1\n  pop\n    /* \"#utility.yul\":4408:4679   */\n  swap3\n  swap2\n  pop\n  pop\n  jump\t// out\n    /* \"#utility.yul\":4685:4853   */\ntag_51:\n    /* \"#utility.yul\":4768:4779   */\n  0x00\n    /* \"#utility.yul\":4802:4808   */\n  dup3\n    /* \"#utility.yul\":4797:4800   */\n  dup3\n    /* \"#utility.yul\":4790:4809   */\n  mstore\n    /* \"#utility.yul\":4842:4846   */\n  0x20\n    /* \"#utility.yul\":4837:4840   */\n  dup3\n    /* \"#utility.yul\":4833:4847   */\n  add\n    /* \"#utility.yul\":4818:4847   */\n  swap1\n  pop\n    /* \"#utility.yul\":4685:4853   */\n  swap3\n  swap2\n  pop\n  pop\n  jump\t// out\n    /* \"#utility.yul\":4859:5232   */\ntag_52:\n    /* \"#utility.yul\":4945:4948   */\n  0x00\n    /* \"#utility.yul\":4973:5011   */\n  tag_110\n    /* \"#utility.yul\":5005:5010   */\n  dup3\n    /* \"#utility.yul\":4973:5011   */\n  tag_48\n  jump\t// in\ntag_110:\n    /* \"#utility.yul\":5027:5097   */\n  tag_111\n    /* \"#utility.yul\":5090:5096   */\n  dup2\n    /* \"#utility.yul\":5085:5088   */\n  dup6\n    /* \"#utility.yul\":5027:5097   */\n  tag_51\n  jump\t// in\ntag_111:\n    /* \"#utility.yul\":5020:5097   */\n  swap4\n  pop\n    /* \"#utility.yul\":5106:5171   */\n  tag_112\n    /* \"#utility.yul\":5164:5170   */\n  dup2\n    /* \"#utility.yul\":5159:5162   */\n  dup6\n    /* \"#utility.yul\":5152:5156   */\n  0x20\n    /* \"#utility.yul\":5145:5150   */\n  dup7\n    /* \"#utility.yul\":5141:5157   */\n  add\n    /* \"#utility.yul\":5106:5171   */\n  tag_45\n  jump\t// in\ntag_112:\n    /* \"#utility.yul\":5196:5225   */\n  tag_113\n    /* \"#utility.yul\":5218:5224   */\n  dup2\n    /* \"#utility.yul\":5196:5225   */\n  tag_40\n  jump\t// in\ntag_113:\n    /* \"#utility.yul\":5191:5194   */\n  dup5\n    /* \"#utility.yul\":5187:5226   */\n  add\n    /* \"#utility.yul\":5180:5226   */\n  swap2\n  pop\n    /* \"#utility.yul\":4949:5232   */\n  pop\n    /* \"#utility.yul\":4859:5232   */\n  swap3\n  swap2\n  pop\n  pop\n  jump\t// out\n    /* \"#utility.yul\":5238:5328   */\ntag_53:\n    /* \"#utility.yul\":5272:5279   */\n  0x00\n    /* \"#utility.yul\":5315:5320   */\n  dup2\n    /* \"#utility.yul\":5308:5321   */\n  iszero\n    /* \"#utility.yul\":5301:5322   */\n  iszero\n    /* \"#utility.yul\":5290:5322   */\n  swap1\n  pop\n    /* \"#utility.yul\":5238:5328   */\n  swap2\n  swap1\n  pop\n  jump\t// out\n    /* \"#utility.yul\":5334:5443   */\ntag_54:\n    /* \"#utility.yul\":5415:5436   */\n  tag_116\n    /* \"#utility.yul\":5430:5435   */\n  dup2\n    /* \"#utility.yul\":5415:5436   */\n  tag_53\n  jump\t// in\ntag_116:\n    /* \"#utility.yul\":5410:5413   */\n  dup3\n    /* \"#utility.yul\":5403:5437   */\n  mstore\n    /* \"#utility.yul\":5334:5443   */\n  pop\n  pop\n  jump\t// out\n    /* \"#utility.yul\":5449:6053   */\ntag_27:\n    /* \"#utility.yul\":5628:5632   */\n  0x00\n    /* \"#utility.yul\":5666:5668   */\n  0x60\n    /* \"#utility.yul\":5655:5664   */\n  dup3\n    /* \"#utility.yul\":5651:5669   */\n  add\n    /* \"#utility.yul\":5643:5669   */\n  swap1\n  pop\n    /* \"#utility.yul\":5715:5724   */\n  dup2\n    /* \"#utility.yul\":5709:5713   */\n  dup2\n    /* \"#utility.yul\":5705:5725   */\n  sub\n    /* \"#utility.yul\":5701:5702   */\n  0x00\n    /* \"#utility.yul\":5690:5699   */\n  dup4\n    /* \"#utility.yul\":5686:5703   */\n  add\n    /* \"#utility.yul\":5679:5726   */\n  mstore\n    /* \"#utility.yul\":5743:5819   */\n  tag_118\n    /* \"#utility.yul\":5814:5818   */\n  dup2\n    /* \"#utility.yul\":5805:5811   */\n  dup7\n    /* \"#utility.yul\":5743:5819   */\n  tag_52\n  jump\t// in\ntag_118:\n    /* \"#utility.yul\":5735:5819   */\n  swap1\n  pop\n    /* \"#utility.yul\":5829:5895   */\n  tag_119\n    /* \"#utility.yul\":5891:5893   */\n  0x20\n    /* \"#utility.yul\":5880:5889   */\n  dup4\n    /* \"#utility.yul\":5876:5894   */\n  add\n    /* \"#utility.yul\":5867:5873   */\n  dup6\n    /* \"#utility.yul\":5829:5895   */\n  tag_54\n  jump\t// in\ntag_119:\n    /* \"#utility.yul\":5942:5951   */\n  dup2\n    /* \"#utility.yul\":5936:5940   */\n  dup2\n    /* \"#utility.yul\":5932:5952   */\n  sub\n    /* \"#utility.yul\":5927:5929   */\n  0x40\n    /* \"#utility.yul\":5916:5925   */\n  dup4\n    /* \"#utility.yul\":5912:5930   */\n  add\n    /* \"#utility.yul\":5905:5953   */\n  mstore\n    /* \"#utility.yul\":5970:6046   */\n  tag_120\n    /* \"#utility.yul\":6041:6045   */\n  dup2\n    /* \"#utility.yul\":6032:6038   */\n  dup5\n    /* \"#utility.yul\":5970:6046   */\n  tag_52\n  jump\t// in\ntag_120:\n    /* \"#utility.yul\":5962:6046   */\n  swap1\n  pop\n    /* \"#utility.yul\":5449:6053   */\n  swap5\n  swap4\n  pop\n  pop\n  pop\n  pop\n  jump\t// out\n    /* \"contracts/proxy/ERC1967/TransparentUpgradeableProxy.sol\":874:4148  contract TransparentUpgradeableProxy is ProxyAdmin {... */\ntag_12:\n  dataSize(sub_0)\n  dup1\n  dataOffset(sub_0)\n  0x00\n  codecopy\n  0x00\n  return\nstop\n\nsub_0: assembly {\n        /* \"contracts/proxy/ERC1967/TransparentUpgradeableProxy.sol\":874:4148  contract TransparentUpgradeableProxy is ProxyAdmin {... */\n      mstore(0x40, 0x80)\n      jumpi(tag_1, lt(calldatasize, 0x04))\n      shr(0xe0, calldataload(0x00))\n      dup1\n      0x6e9960c3\n      eq\n      tag_3\n      jumpi\n      dup1\n      0x8f283970\n      eq\n      tag_4\n      jumpi\n      dup1\n      0x95fae7ac\n      eq\n      tag_5\n      jumpi\n      jump(tag_2)\n    tag_1:\n      jumpi(tag_2, calldatasize)\n      stop\n    tag_2:\n        /* \"contracts/proxy/ERC1967/TransparentUpgradeableProxy.sol\":2046:2076  ERC1967Utils.getAdminAddress() */\n      tag_10\n        /* \"contracts/proxy/ERC1967/TransparentUpgradeableProxy.sol\":2046:2074  ERC1967Utils.getAdminAddress */\n      tag_11\n        /* \"contracts/proxy/ERC1967/TransparentUpgradeableProxy.sol\":2046:2076  ERC1967Utils.getAdminAddress() */\n      jump\t// in\n    tag_10:\n        /* \"contracts/proxy/ERC1967/TransparentUpgradeableProxy.sol\":2032:2076  msg.sender != ERC1967Utils.getAdminAddress() */\n      0xffffffffffffffffffffffffffffffffffffffff\n      and\n        /* \"contracts/proxy/ERC1967/TransparentUpgradeableProxy.sol\":2032:2042  msg.sender */\n      caller\n        /* \"contracts/proxy/ERC1967/TransparentUpgradeableProxy.sol\":2032:2076  msg.sender != ERC1967Utils.getAdminAddress() */\n      0xffffffffffffffffffffffffffffffffffffffff\n      and\n      sub\n        /* \"contracts/proxy/ERC1967/TransparentUpgradeableProxy.sol\":2024:2111  require(msg.sender != ERC1967Utils.getAdminAddress(), \"fallback: admin can not access\") */\n      tag_12\n      jumpi\n      mload(0x40)\n      0x08c379a000000000000000000000000000000000000000000000000000000000\n      dup2\n      mstore\n      0x04\n      add\n      tag_13\n      swap1\n      tag_14\n      jump\t// in\n    tag_13:\n      mload(0x40)\n      dup1\n      swap2\n      sub\n      swap1\n      revert\n    tag_12:\n        /* \"contracts/proxy/ERC1967/TransparentUpgradeableProxy.sol\":2150:2157  msg.sig */\n      and(0xffffffff00000000000000000000000000000000000000000000000000000000, calldataload(0x00))\n        /* \"contracts/proxy/ERC1967/TransparentUpgradeableProxy.sol\":2126:2168  FallbackLog(msg.sender, msg.sig, msg.data) */\n      not(0xffffffffffffffffffffffffffffffffffffffffffffffffffffffff)\n      and\n        /* \"contracts/proxy/ERC1967/TransparentUpgradeableProxy.sol\":2138:2148  msg.sender */\n      caller\n        /* \"contracts/proxy/ERC1967/TransparentUpgradeableProxy.sol\":2126:2168  FallbackLog(msg.sender, msg.sig, msg.data) */\n      0xffffffffffffffffffffffffffffffffffffffff\n      and\n      0x0a2e94dc85c608109377f1d4e7fd45e8eed5fe3acdaf32e2423ec8e069d40a07\n        /* \"contracts/proxy/ERC1967/TransparentUpgradeableProxy.sol\":2159:2167  msg.data */\n      0x00\n      calldatasize\n        /* \"contracts/proxy/ERC1967/TransparentUpgradeableProxy.sol\":2126:2168  FallbackLog(msg.sender, msg.sig, msg.data) */\n      mload(0x40)\n      tag_15\n      swap3\n      swap2\n      swap1\n      tag_16\n      jump\t// in\n    tag_15:\n      mload(0x40)\n      dup1\n      swap2\n      sub\n      swap1\n      log3\n        /* \"contracts/proxy/ERC1967/TransparentUpgradeableProxy.sol\":2228:2255  ERC1967Utils.delegatecall() */\n      tag_17\n        /* \"contracts/proxy/ERC1967/TransparentUpgradeableProxy.sol\":2228:2253  ERC1967Utils.delegatecall */\n      tag_18\n        /* \"contracts/proxy/ERC1967/TransparentUpgradeableProxy.sol\":2228:2255  ERC1967Utils.delegatecall() */\n      jump\t// in\n    tag_17:\n        /* \"contracts/proxy/ERC1967/TransparentUpgradeableProxy.sol\":874:4148  contract TransparentUpgradeableProxy is ProxyAdmin {... */\n      stop\n        /* \"contracts/proxy/ERC1967/TransparentUpgradeableProxy.sol\":4040:4146  function getAdmin() external view returns (address) {... */\n    tag_3:\n      callvalue\n      dup1\n      iszero\n      tag_19\n      jumpi\n      0x00\n      dup1\n      revert\n    tag_19:\n      pop\n      tag_20\n      tag_21\n      jump\t// in\n    tag_20:\n      mload(0x40)\n      tag_22\n      swap2\n      swap1\n      tag_23\n      jump\t// in\n    tag_22:\n      mload(0x40)\n      dup1\n      swap2\n      sub\n      swap1\n      return\n        /* \"contracts/proxy/ERC1967/TransparentUpgradeableProxy.sol\":3815:3920  function changeAdmin(address _newAdmin) external onlyAdmin {... */\n    tag_4:\n      callvalue\n      dup1\n      iszero\n      tag_24\n      jumpi\n      0x00\n      dup1\n      revert\n    tag_24:\n      pop\n      tag_25\n      0x04\n      dup1\n      calldatasize\n      sub\n      dup2\n      add\n      swap1\n      tag_26\n      swap2\n      swap1\n      tag_27\n      jump\t// in\n    tag_26:\n      tag_28\n      jump\t// in\n    tag_25:\n      stop\n        /* \"contracts/proxy/ERC1967/TransparentUpgradeableProxy.sol\":2652:2904  function upgradeLogicAddress(address newLogicAddress, bytes memory data) external onlyAdmin {... */\n    tag_5:\n      callvalue\n      dup1\n      iszero\n      tag_29\n      jumpi\n      0x00\n      dup1\n      revert\n    tag_29:\n      pop\n      tag_30\n      0x04\n      dup1\n      calldatasize\n      sub\n      dup2\n      add\n      swap1\n      tag_31\n      swap2\n      swap1\n      tag_32\n      jump\t// in\n    tag_31:\n      tag_33\n      jump\t// in\n    tag_30:\n      stop\n        /* \"contracts/proxy/ERC1967/ERC1967Utils.sol\":2026:2140  function getAdminAddress() internal view returns(address) {... */\n    tag_11:\n        /* \"contracts/proxy/ERC1967/ERC1967Utils.sol\":2075:2082  address */\n      0x00\n        /* \"contracts/proxy/ERC1967/ERC1967Utils.sol\":2101:2127  getAddressSlot(ADMIN_SLOT) */\n      tag_35\n        /* \"contracts/proxy/ERC1967/ERC1967Utils.sol\":1814:1880  0xb53127684a568b3173ae13b9f8a6016e243e63b6e8ee1178d6a717850b5d6103 */\n      0xb53127684a568b3173ae13b9f8a6016e243e63b6e8ee1178d6a717850b5d6103\n        /* \"contracts/proxy/ERC1967/ERC1967Utils.sol\":2116:2126  ADMIN_SLOT */\n      0x00\n      shl\n        /* \"contracts/proxy/ERC1967/ERC1967Utils.sol\":2101:2115  getAddressSlot */\n      tag_36\n        /* \"contracts/proxy/ERC1967/ERC1967Utils.sol\":2101:2127  getAddressSlot(ADMIN_SLOT) */\n      jump\t// in\n    tag_35:\n        /* \"contracts/proxy/ERC1967/ERC1967Utils.sol\":2101:2133  getAddressSlot(ADMIN_SLOT).value */\n      0x00\n      add\n      0x00\n      swap1\n      sload\n      swap1\n      0x0100\n      exp\n      swap1\n      div\n      0xffffffffffffffffffffffffffffffffffffffff\n      and\n        /* \"contracts/proxy/ERC1967/ERC1967Utils.sol\":2094:2133  return getAddressSlot(ADMIN_SLOT).value */\n      swap1\n      pop\n        /* \"contracts/proxy/ERC1967/ERC1967Utils.sol\":2026:2140  function getAdminAddress() internal view returns(address) {... */\n      swap1\n      jump\t// out\n        /* \"contracts/proxy/ERC1967/ERC1967Utils.sol\":3012:3099  function delegatecall() internal {... */\n    tag_18:\n        /* \"contracts/proxy/ERC1967/ERC1967Utils.sol\":3055:3092  _delegate(getImplementationAddress()) */\n      tag_38\n        /* \"contracts/proxy/ERC1967/ERC1967Utils.sol\":3065:3091  getImplementationAddress() */\n      tag_39\n        /* \"contracts/proxy/ERC1967/ERC1967Utils.sol\":3065:3089  getImplementationAddress */\n      tag_40\n        /* \"contracts/proxy/ERC1967/ERC1967Utils.sol\":3065:3091  getImplementationAddress() */\n      jump\t// in\n    tag_39:\n        /* \"contracts/proxy/ERC1967/ERC1967Utils.sol\":3055:3064  _delegate */\n      tag_41\n        /* \"contracts/proxy/ERC1967/ERC1967Utils.sol\":3055:3092  _delegate(getImplementationAddress()) */\n      jump\t// in\n    tag_38:\n        /* \"contracts/proxy/ERC1967/ERC1967Utils.sol\":3012:3099  function delegatecall() internal {... */\n      jump\t// out\n        /* \"contracts/proxy/ERC1967/TransparentUpgradeableProxy.sol\":4040:4146  function getAdmin() external view returns (address) {... */\n    tag_21:\n        /* \"contracts/proxy/ERC1967/TransparentUpgradeableProxy.sol\":4083:4090  address */\n      0x00\n        /* \"contracts/proxy/ERC1967/TransparentUpgradeableProxy.sol\":4109:4139  ERC1967Utils.getAdminAddress() */\n      tag_43\n        /* \"contracts/proxy/ERC1967/TransparentUpgradeableProxy.sol\":4109:4137  ERC1967Utils.getAdminAddress */\n      tag_11\n        /* \"contracts/proxy/ERC1967/TransparentUpgradeableProxy.sol\":4109:4139  ERC1967Utils.getAdminAddress() */\n      jump\t// in\n    tag_43:\n        /* \"contracts/proxy/ERC1967/TransparentUpgradeableProxy.sol\":4102:4139  return ERC1967Utils.getAdminAddress() */\n      swap1\n      pop\n        /* \"contracts/proxy/ERC1967/TransparentUpgradeableProxy.sol\":4040:4146  function getAdmin() external view returns (address) {... */\n      swap1\n      jump\t// out\n        /* \"contracts/proxy/ERC1967/TransparentUpgradeableProxy.sol\":3815:3920  function changeAdmin(address _newAdmin) external onlyAdmin {... */\n    tag_28:\n        /* \"contracts/proxy/ERC1967/ProxyAdmin.sol\":1062:1092  ERC1967Utils.getAdminAddress() */\n      tag_45\n        /* \"contracts/proxy/ERC1967/ProxyAdmin.sol\":1062:1090  ERC1967Utils.getAdminAddress */\n      tag_11\n        /* \"contracts/proxy/ERC1967/ProxyAdmin.sol\":1062:1092  ERC1967Utils.getAdminAddress() */\n      jump\t// in\n    tag_45:\n        /* \"contracts/proxy/ERC1967/ProxyAdmin.sol\":1048:1092  msg.sender != ERC1967Utils.getAdminAddress() */\n      0xffffffffffffffffffffffffffffffffffffffff\n      and\n        /* \"contracts/proxy/ERC1967/ProxyAdmin.sol\":1048:1058  msg.sender */\n      caller\n        /* \"contracts/proxy/ERC1967/ProxyAdmin.sol\":1048:1092  msg.sender != ERC1967Utils.getAdminAddress() */\n      0xffffffffffffffffffffffffffffffffffffffff\n      and\n      eq\n        /* \"contracts/proxy/ERC1967/ProxyAdmin.sol\":1044:1176  if (msg.sender != ERC1967Utils.getAdminAddress()) {... */\n      tag_46\n      jumpi\n        /* \"contracts/proxy/ERC1967/ProxyAdmin.sol\":1115:1165  NotAdminError(\"Only admin can call this function\") */\n      mload(0x40)\n      0x21f353dc00000000000000000000000000000000000000000000000000000000\n      dup2\n      mstore\n      0x04\n      add\n      tag_47\n      swap1\n      tag_48\n      jump\t// in\n    tag_47:\n      mload(0x40)\n      dup1\n      swap2\n      sub\n      swap1\n      revert\n        /* \"contracts/proxy/ERC1967/ProxyAdmin.sol\":1044:1176  if (msg.sender != ERC1967Utils.getAdminAddress()) {... */\n    tag_46:\n        /* \"contracts/proxy/ERC1967/TransparentUpgradeableProxy.sol\":3884:3913  super._changeAdmin(_newAdmin) */\n      tag_50\n        /* \"contracts/proxy/ERC1967/TransparentUpgradeableProxy.sol\":3903:3912  _newAdmin */\n      dup2\n        /* \"contracts/proxy/ERC1967/TransparentUpgradeableProxy.sol\":3884:3902  super._changeAdmin */\n      tag_51\n        /* \"contracts/proxy/ERC1967/TransparentUpgradeableProxy.sol\":3884:3913  super._changeAdmin(_newAdmin) */\n      jump\t// in\n    tag_50:\n        /* \"contracts/proxy/ERC1967/TransparentUpgradeableProxy.sol\":3815:3920  function changeAdmin(address _newAdmin) external onlyAdmin {... */\n      pop\n      jump\t// out\n        /* \"contracts/proxy/ERC1967/TransparentUpgradeableProxy.sol\":2652:2904  function upgradeLogicAddress(address newLogicAddress, bytes memory data) external onlyAdmin {... */\n    tag_33:\n        /* \"contracts/proxy/ERC1967/ProxyAdmin.sol\":1062:1092  ERC1967Utils.getAdminAddress() */\n      tag_53\n        /* \"contracts/proxy/ERC1967/ProxyAdmin.sol\":1062:1090  ERC1967Utils.getAdminAddress */\n      tag_11\n        /* \"contracts/proxy/ERC1967/ProxyAdmin.sol\":1062:1092  ERC1967Utils.getAdminAddress() */\n      jump\t// in\n    tag_53:\n        /* \"contracts/proxy/ERC1967/ProxyAdmin.sol\":1048:1092  msg.sender != ERC1967Utils.getAdminAddress() */\n      0xffffffffffffffffffffffffffffffffffffffff\n      and\n        /* \"contracts/proxy/ERC1967/ProxyAdmin.sol\":1048:1058  msg.sender */\n      caller\n        /* \"contracts/proxy/ERC1967/ProxyAdmin.sol\":1048:1092  msg.sender != ERC1967Utils.getAdminAddress() */\n      0xffffffffffffffffffffffffffffffffffffffff\n      and\n      eq\n        /* \"contracts/proxy/ERC1967/ProxyAdmin.sol\":1044:1176  if (msg.sender != ERC1967Utils.getAdminAddress()) {... */\n      tag_54\n      jumpi\n        /* \"contracts/proxy/ERC1967/ProxyAdmin.sol\":1115:1165  NotAdminError(\"Only admin can call this function\") */\n      mload(0x40)\n      0x21f353dc00000000000000000000000000000000000000000000000000000000\n      dup2\n      mstore\n      0x04\n      add\n      tag_55\n      swap1\n      tag_48\n      jump\t// in\n    tag_55:\n      mload(0x40)\n      dup1\n      swap2\n      sub\n      swap1\n      revert\n        /* \"contracts/proxy/ERC1967/ProxyAdmin.sol\":1044:1176  if (msg.sender != ERC1967Utils.getAdminAddress()) {... */\n    tag_54:\n        /* \"contracts/proxy/ERC1967/TransparentUpgradeableProxy.sol\":2776:2806  ERC1967Utils.getAdminAddress() */\n      tag_57\n        /* \"contracts/proxy/ERC1967/TransparentUpgradeableProxy.sol\":2776:2804  ERC1967Utils.getAdminAddress */\n      tag_11\n        /* \"contracts/proxy/ERC1967/TransparentUpgradeableProxy.sol\":2776:2806  ERC1967Utils.getAdminAddress() */\n      jump\t// in\n    tag_57:\n        /* \"contracts/proxy/ERC1967/TransparentUpgradeableProxy.sol\":2762:2806  msg.sender == ERC1967Utils.getAdminAddress() */\n      0xffffffffffffffffffffffffffffffffffffffff\n      and\n        /* \"contracts/proxy/ERC1967/TransparentUpgradeableProxy.sol\":2762:2772  msg.sender */\n      caller\n        /* \"contracts/proxy/ERC1967/TransparentUpgradeableProxy.sol\":2762:2806  msg.sender == ERC1967Utils.getAdminAddress() */\n      0xffffffffffffffffffffffffffffffffffffffff\n      and\n      eq\n        /* \"contracts/proxy/ERC1967/TransparentUpgradeableProxy.sol\":2754:2849  require(msg.sender == ERC1967Utils.getAdminAddress(), \"upgradeLogicAddress: only admin can do\") */\n      tag_58\n      jumpi\n      mload(0x40)\n      0x08c379a000000000000000000000000000000000000000000000000000000000\n      dup2\n      mstore\n      0x04\n      add\n      tag_59\n      swap1\n      tag_60\n      jump\t// in\n    tag_59:\n      mload(0x40)\n      dup1\n      swap2\n      sub\n      swap1\n      revert\n    tag_58:\n        /* \"contracts/proxy/ERC1967/TransparentUpgradeableProxy.sol\":2859:2897  _upgradeAndCall(newLogicAddress, data) */\n      tag_61\n        /* \"contracts/proxy/ERC1967/TransparentUpgradeableProxy.sol\":2875:2890  newLogicAddress */\n      dup3\n        /* \"contracts/proxy/ERC1967/TransparentUpgradeableProxy.sol\":2892:2896  data */\n      dup3\n        /* \"contracts/proxy/ERC1967/TransparentUpgradeableProxy.sol\":2859:2874  _upgradeAndCall */\n      tag_62\n        /* \"contracts/proxy/ERC1967/TransparentUpgradeableProxy.sol\":2859:2897  _upgradeAndCall(newLogicAddress, data) */\n      jump\t// in\n    tag_61:\n        /* \"contracts/proxy/ERC1967/TransparentUpgradeableProxy.sol\":2652:2904  function upgradeLogicAddress(address newLogicAddress, bytes memory data) external onlyAdmin {... */\n      pop\n      pop\n      jump\t// out\n        /* \"contracts/proxy/ERC1967/ERC1967Utils.sol\":2727:2890  function getAddressSlot(bytes32 slot) internal pure returns (AddressSlot storage r) {... */\n    tag_36:\n        /* \"contracts/proxy/ERC1967/ERC1967Utils.sol\":2788:2809  AddressSlot storage r */\n      0x00\n        /* \"contracts/proxy/ERC1967/ERC1967Utils.sol\":2870:2874  slot */\n      dup2\n        /* \"contracts/proxy/ERC1967/ERC1967Utils.sol\":2860:2874  r.slot := slot */\n      swap1\n      pop\n        /* \"contracts/proxy/ERC1967/ERC1967Utils.sol\":2727:2890  function getAddressSlot(bytes32 slot) internal pure returns (AddressSlot storage r) {... */\n      swap2\n      swap1\n      pop\n      jump\t// out\n        /* \"contracts/proxy/ERC1967/ERC1967Utils.sol\":1072:1204  function getImplementationAddress() internal view returns(address) {... */\n    tag_40:\n        /* \"contracts/proxy/ERC1967/ERC1967Utils.sol\":1130:1137  address */\n      0x00\n        /* \"contracts/proxy/ERC1967/ERC1967Utils.sol\":1156:1191  getAddressSlot(IMPLEMENTATION_SLOT) */\n      tag_65\n        /* \"contracts/proxy/ERC1967/ERC1967Utils.sol\":824:890  0x360894a13ba1a3210667c828492db98dca3e2076cc3735a920a3ca505d382bbc */\n      0x360894a13ba1a3210667c828492db98dca3e2076cc3735a920a3ca505d382bbc\n        /* \"contracts/proxy/ERC1967/ERC1967Utils.sol\":1171:1190  IMPLEMENTATION_SLOT */\n      0x00\n      shl\n        /* \"contracts/proxy/ERC1967/ERC1967Utils.sol\":1156:1170  getAddressSlot */\n      tag_36\n        /* \"contracts/proxy/ERC1967/ERC1967Utils.sol\":1156:1191  getAddressSlot(IMPLEMENTATION_SLOT) */\n      jump\t// in\n    tag_65:\n        /* \"contracts/proxy/ERC1967/ERC1967Utils.sol\":1156:1197  getAddressSlot(IMPLEMENTATION_SLOT).value */\n      0x00\n      add\n      0x00\n      swap1\n      sload\n      swap1\n      0x0100\n      exp\n      swap1\n      div\n      0xffffffffffffffffffffffffffffffffffffffff\n      and\n        /* \"contracts/proxy/ERC1967/ERC1967Utils.sol\":1149:1197  return getAddressSlot(IMPLEMENTATION_SLOT).value */\n      swap1\n      pop\n        /* \"contracts/proxy/ERC1967/ERC1967Utils.sol\":1072:1204  function getImplementationAddress() internal view returns(address) {... */\n      swap1\n      jump\t// out\n        /* \"contracts/proxy/ERC1967/ERC1967Utils.sol\":3343:4383  function _delegate(address implementation) private {... */\n    tag_41:\n        /* \"contracts/proxy/ERC1967/ERC1967Utils.sol\":3509:3523  calldatasize() */\n      calldatasize\n        /* \"contracts/proxy/ERC1967/ERC1967Utils.sol\":3506:3507  0 */\n      0x00\n        /* \"contracts/proxy/ERC1967/ERC1967Utils.sol\":3503:3504  0 */\n      dup1\n        /* \"contracts/proxy/ERC1967/ERC1967Utils.sol\":3490:3524  calldatacopy(0, 0, calldatasize()) */\n      calldatacopy\n        /* \"contracts/proxy/ERC1967/ERC1967Utils.sol\":3852:3853  0 */\n      0x00\n        /* \"contracts/proxy/ERC1967/ERC1967Utils.sol\":3849:3850  0 */\n      dup1\n        /* \"contracts/proxy/ERC1967/ERC1967Utils.sol\":3833:3847  calldatasize() */\n      calldatasize\n        /* \"contracts/proxy/ERC1967/ERC1967Utils.sol\":3830:3831  0 */\n      0x00\n        /* \"contracts/proxy/ERC1967/ERC1967Utils.sol\":3814:3828  implementation */\n      dup5\n        /* \"contracts/proxy/ERC1967/ERC1967Utils.sol\":3807:3812  gas() */\n      gas\n        /* \"contracts/proxy/ERC1967/ERC1967Utils.sol\":3794:3854  delegatecall(gas(), implementation, 0, calldatasize(), 0, 0) */\n      delegatecall\n        /* \"contracts/proxy/ERC1967/ERC1967Utils.sol\":3933:3949  returndatasize() */\n      returndatasize\n        /* \"contracts/proxy/ERC1967/ERC1967Utils.sol\":3930:3931  0 */\n      0x00\n        /* \"contracts/proxy/ERC1967/ERC1967Utils.sol\":3927:3928  0 */\n      dup1\n        /* \"contracts/proxy/ERC1967/ERC1967Utils.sol\":3912:3950  returndatacopy(0, 0, returndatasize()) */\n      returndatacopy\n        /* \"contracts/proxy/ERC1967/ERC1967Utils.sol\":4034:4040  result */\n      dup1\n        /* \"contracts/proxy/ERC1967/ERC1967Utils.sol\":4058:4059  0 */\n      0x00\n        /* \"contracts/proxy/ERC1967/ERC1967Utils.sol\":4053:4211  case 0 {... */\n      dup2\n      eq\n      tag_68\n      jumpi\n        /* \"contracts/proxy/ERC1967/ERC1967Utils.sol\":4336:4352  returndatasize() */\n      returndatasize\n        /* \"contracts/proxy/ERC1967/ERC1967Utils.sol\":4333:4334  0 */\n      0x00\n        /* \"contracts/proxy/ERC1967/ERC1967Utils.sol\":4326:4353  return(0, returndatasize()) */\n      return\n        /* \"contracts/proxy/ERC1967/ERC1967Utils.sol\":4053:4211  case 0 {... */\n    tag_68:\n        /* \"contracts/proxy/ERC1967/ERC1967Utils.sol\":4180:4196  returndatasize() */\n      returndatasize\n        /* \"contracts/proxy/ERC1967/ERC1967Utils.sol\":4177:4178  0 */\n      0x00\n        /* \"contracts/proxy/ERC1967/ERC1967Utils.sol\":4170:4197  revert(0, returndatasize()) */\n      revert\n        /* \"contracts/proxy/ERC1967/ProxyAdmin.sol\":1362:1478  function _changeAdmin(address _newAdmin) internal onlyAdmin {... */\n    tag_51:\n        /* \"contracts/proxy/ERC1967/ProxyAdmin.sol\":1062:1092  ERC1967Utils.getAdminAddress() */\n      tag_70\n        /* \"contracts/proxy/ERC1967/ProxyAdmin.sol\":1062:1090  ERC1967Utils.getAdminAddress */\n      tag_11\n        /* \"contracts/proxy/ERC1967/ProxyAdmin.sol\":1062:1092  ERC1967Utils.getAdminAddress() */\n      jump\t// in\n    tag_70:\n        /* \"contracts/proxy/ERC1967/ProxyAdmin.sol\":1048:1092  msg.sender != ERC1967Utils.getAdminAddress() */\n      0xffffffffffffffffffffffffffffffffffffffff\n      and\n        /* \"contracts/proxy/ERC1967/ProxyAdmin.sol\":1048:1058  msg.sender */\n      caller\n        /* \"contracts/proxy/ERC1967/ProxyAdmin.sol\":1048:1092  msg.sender != ERC1967Utils.getAdminAddress() */\n      0xffffffffffffffffffffffffffffffffffffffff\n      and\n      eq\n        /* \"contracts/proxy/ERC1967/ProxyAdmin.sol\":1044:1176  if (msg.sender != ERC1967Utils.getAdminAddress()) {... */\n      tag_71\n      jumpi\n        /* \"contracts/proxy/ERC1967/ProxyAdmin.sol\":1115:1165  NotAdminError(\"Only admin can call this function\") */\n      mload(0x40)\n      0x21f353dc00000000000000000000000000000000000000000000000000000000\n      dup2\n      mstore\n      0x04\n      add\n      tag_72\n      swap1\n      tag_48\n      jump\t// in\n    tag_72:\n      mload(0x40)\n      dup1\n      swap2\n      sub\n      swap1\n      revert\n        /* \"contracts/proxy/ERC1967/ProxyAdmin.sol\":1044:1176  if (msg.sender != ERC1967Utils.getAdminAddress()) {... */\n    tag_71:\n        /* \"contracts/proxy/ERC1967/ProxyAdmin.sol\":1432:1471  ERC1967Utils.setAdminAddress(_newAdmin) */\n      tag_74\n        /* \"contracts/proxy/ERC1967/ProxyAdmin.sol\":1461:1470  _newAdmin */\n      dup2\n        /* \"contracts/proxy/ERC1967/ProxyAdmin.sol\":1432:1460  ERC1967Utils.setAdminAddress */\n      tag_75\n        /* \"contracts/proxy/ERC1967/ProxyAdmin.sol\":1432:1471  ERC1967Utils.setAdminAddress(_newAdmin) */\n      jump\t// in\n    tag_74:\n        /* \"contracts/proxy/ERC1967/ProxyAdmin.sol\":1362:1478  function _changeAdmin(address _newAdmin) internal onlyAdmin {... */\n      pop\n      jump\t// out\n        /* \"contracts/proxy/ERC1967/TransparentUpgradeableProxy.sol\":3152:3681  function _upgradeAndCall(address _address, bytes memory data) private {... */\n    tag_62:\n        /* \"contracts/proxy/ERC1967/TransparentUpgradeableProxy.sol\":3256:3257  0 */\n      0x00\n        /* \"contracts/proxy/ERC1967/TransparentUpgradeableProxy.sol\":3236:3258  _address == address(0) */\n      0xffffffffffffffffffffffffffffffffffffffff\n      and\n        /* \"contracts/proxy/ERC1967/TransparentUpgradeableProxy.sol\":3236:3244  _address */\n      dup3\n        /* \"contracts/proxy/ERC1967/TransparentUpgradeableProxy.sol\":3236:3258  _address == address(0) */\n      0xffffffffffffffffffffffffffffffffffffffff\n      and\n      sub\n        /* \"contracts/proxy/ERC1967/TransparentUpgradeableProxy.sol\":3232:3311  if (_address == address(0)) {... */\n      tag_77\n      jumpi\n        /* \"contracts/proxy/ERC1967/TransparentUpgradeableProxy.sol\":3281:3300  AddressEmptyError() */\n      mload(0x40)\n      0xae7c562200000000000000000000000000000000000000000000000000000000\n      dup2\n      mstore\n      0x04\n      add\n      mload(0x40)\n      dup1\n      swap2\n      sub\n      swap1\n      revert\n        /* \"contracts/proxy/ERC1967/TransparentUpgradeableProxy.sol\":3232:3311  if (_address == address(0)) {... */\n    tag_77:\n        /* \"contracts/proxy/ERC1967/TransparentUpgradeableProxy.sol\":3377:3424  ERC1967Utils.setImplementationAddress(_address) */\n      tag_78\n        /* \"contracts/proxy/ERC1967/TransparentUpgradeableProxy.sol\":3415:3423  _address */\n      dup3\n        /* \"contracts/proxy/ERC1967/TransparentUpgradeableProxy.sol\":3377:3414  ERC1967Utils.setImplementationAddress */\n      tag_79\n        /* \"contracts/proxy/ERC1967/TransparentUpgradeableProxy.sol\":3377:3424  ERC1967Utils.setImplementationAddress(_address) */\n      jump\t// in\n    tag_78:\n        /* \"contracts/proxy/ERC1967/TransparentUpgradeableProxy.sol\":3505:3506  0 */\n      0x00\n        /* \"contracts/proxy/ERC1967/TransparentUpgradeableProxy.sol\":3491:3495  data */\n      dup2\n        /* \"contracts/proxy/ERC1967/TransparentUpgradeableProxy.sol\":3491:3502  data.length */\n      mload\n        /* \"contracts/proxy/ERC1967/TransparentUpgradeableProxy.sol\":3491:3506  data.length > 0 */\n      gt\n        /* \"contracts/proxy/ERC1967/TransparentUpgradeableProxy.sol\":3487:3675  if (data.length > 0) {... */\n      iszero\n      tag_80\n      jumpi\n        /* \"contracts/proxy/ERC1967/TransparentUpgradeableProxy.sol\":3523:3535  bool success */\n      0x00\n        /* \"contracts/proxy/ERC1967/TransparentUpgradeableProxy.sol\":3537:3560  bytes memory resultData */\n      dup1\n        /* \"contracts/proxy/ERC1967/TransparentUpgradeableProxy.sol\":3564:3572  _address */\n      dup4\n        /* \"contracts/proxy/ERC1967/TransparentUpgradeableProxy.sol\":3564:3585  _address.delegatecall */\n      0xffffffffffffffffffffffffffffffffffffffff\n      and\n        /* \"contracts/proxy/ERC1967/TransparentUpgradeableProxy.sol\":3586:3590  data */\n      dup4\n        /* \"contracts/proxy/ERC1967/TransparentUpgradeableProxy.sol\":3564:3591  _address.delegatecall(data) */\n      mload(0x40)\n      tag_81\n      swap2\n      swap1\n      tag_82\n      jump\t// in\n    tag_81:\n      0x00\n      mload(0x40)\n      dup1\n      dup4\n      sub\n      dup2\n      dup6\n      gas\n      delegatecall\n      swap2\n      pop\n      pop\n      returndatasize\n      dup1\n      0x00\n      dup2\n      eq\n      tag_85\n      jumpi\n      mload(0x40)\n      swap2\n      pop\n      and(add(returndatasize, 0x3f), not(0x1f))\n      dup3\n      add\n      0x40\n      mstore\n      returndatasize\n      dup3\n      mstore\n      returndatasize\n      0x00\n      0x20\n      dup5\n      add\n      returndatacopy\n      jump(tag_84)\n    tag_85:\n      0x60\n      swap2\n      pop\n    tag_84:\n      pop\n        /* \"contracts/proxy/ERC1967/TransparentUpgradeableProxy.sol\":3522:3591  (bool success, bytes memory resultData) = _address.delegatecall(data) */\n      swap2\n      pop\n      swap2\n      pop\n        /* \"contracts/proxy/ERC1967/TransparentUpgradeableProxy.sol\":3628:3636  _address */\n      dup4\n        /* \"contracts/proxy/ERC1967/TransparentUpgradeableProxy.sol\":3610:3664  UpgradeAndCallLog(_address, data, success, resultData) */\n      0xffffffffffffffffffffffffffffffffffffffff\n      and\n      0x20423e22d1f0b31668780a7b6e52a7ad77a44c7dd910f738df5e2d06244fb559\n        /* \"contracts/proxy/ERC1967/TransparentUpgradeableProxy.sol\":3638:3642  data */\n      dup5\n        /* \"contracts/proxy/ERC1967/TransparentUpgradeableProxy.sol\":3644:3651  success */\n      dup5\n        /* \"contracts/proxy/ERC1967/TransparentUpgradeableProxy.sol\":3653:3663  resultData */\n      dup5\n        /* \"contracts/proxy/ERC1967/TransparentUpgradeableProxy.sol\":3610:3664  UpgradeAndCallLog(_address, data, success, resultData) */\n      mload(0x40)\n      tag_86\n      swap4\n      swap3\n      swap2\n      swap1\n      tag_87\n      jump\t// in\n    tag_86:\n      mload(0x40)\n      dup1\n      swap2\n      sub\n      swap1\n      log2\n        /* \"contracts/proxy/ERC1967/TransparentUpgradeableProxy.sol\":3508:3675  {... */\n      pop\n      pop\n        /* \"contracts/proxy/ERC1967/TransparentUpgradeableProxy.sol\":3487:3675  if (data.length > 0) {... */\n    tag_80:\n        /* \"contracts/proxy/ERC1967/TransparentUpgradeableProxy.sol\":3152:3681  function _upgradeAndCall(address _address, bytes memory data) private {... */\n      pop\n      pop\n      jump\t// out\n        /* \"contracts/proxy/ERC1967/ERC1967Utils.sol\":2269:2391  function setAdminAddress(address _adminAddress) internal {... */\n    tag_75:\n        /* \"contracts/proxy/ERC1967/ERC1967Utils.sol\":2371:2384  _adminAddress */\n      dup1\n        /* \"contracts/proxy/ERC1967/ERC1967Utils.sol\":2336:2362  getAddressSlot(ADMIN_SLOT) */\n      tag_89\n        /* \"contracts/proxy/ERC1967/ERC1967Utils.sol\":1814:1880  0xb53127684a568b3173ae13b9f8a6016e243e63b6e8ee1178d6a717850b5d6103 */\n      0xb53127684a568b3173ae13b9f8a6016e243e63b6e8ee1178d6a717850b5d6103\n        /* \"contracts/proxy/ERC1967/ERC1967Utils.sol\":2351:2361  ADMIN_SLOT */\n      0x00\n      shl\n        /* \"contracts/proxy/ERC1967/ERC1967Utils.sol\":2336:2350  getAddressSlot */\n      tag_36\n        /* \"contracts/proxy/ERC1967/ERC1967Utils.sol\":2336:2362  getAddressSlot(ADMIN_SLOT) */\n      jump\t// in\n    tag_89:\n        /* \"contracts/proxy/ERC1967/ERC1967Utils.sol\":2336:2368  getAddressSlot(ADMIN_SLOT).value */\n      0x00\n      add\n      0x00\n        /* \"contracts/proxy/ERC1967/ERC1967Utils.sol\":2336:2384  getAddressSlot(ADMIN_SLOT).value = _adminAddress */\n      0x0100\n      exp\n      dup2\n      sload\n      dup2\n      0xffffffffffffffffffffffffffffffffffffffff\n      mul\n      not\n      and\n      swap1\n      dup4\n      0xffffffffffffffffffffffffffffffffffffffff\n      and\n      mul\n      or\n      swap1\n      sstore\n      pop\n        /* \"contracts/proxy/ERC1967/ERC1967Utils.sol\":2269:2391  function setAdminAddress(address _adminAddress) internal {... */\n      pop\n      jump\t// out\n        /* \"contracts/proxy/ERC1967/ERC1967Utils.sol\":1378:1536  function setImplementationAddress(address _implementationAddress) internal {... */\n    tag_79:\n        /* \"contracts/proxy/ERC1967/ERC1967Utils.sol\":1507:1529  _implementationAddress */\n      dup1\n        /* \"contracts/proxy/ERC1967/ERC1967Utils.sol\":1463:1498  getAddressSlot(IMPLEMENTATION_SLOT) */\n      tag_91\n        /* \"contracts/proxy/ERC1967/ERC1967Utils.sol\":824:890  0x360894a13ba1a3210667c828492db98dca3e2076cc3735a920a3ca505d382bbc */\n      0x360894a13ba1a3210667c828492db98dca3e2076cc3735a920a3ca505d382bbc\n        /* \"contracts/proxy/ERC1967/ERC1967Utils.sol\":1478:1497  IMPLEMENTATION_SLOT */\n      0x00\n      shl\n        /* \"contracts/proxy/ERC1967/ERC1967Utils.sol\":1463:1477  getAddressSlot */\n      tag_36\n        /* \"contracts/proxy/ERC1967/ERC1967Utils.sol\":1463:1498  getAddressSlot(IMPLEMENTATION_SLOT) */\n      jump\t// in\n    tag_91:\n        /* \"contracts/proxy/ERC1967/ERC1967Utils.sol\":1463:1504  getAddressSlot(IMPLEMENTATION_SLOT).value */\n      0x00\n      add\n      0x00\n        /* \"contracts/proxy/ERC1967/ERC1967Utils.sol\":1463:1529  getAddressSlot(IMPLEMENTATION_SLOT).value = _implementationAddress */\n      0x0100\n      exp\n      dup2\n      sload\n      dup2\n      0xffffffffffffffffffffffffffffffffffffffff\n      mul\n      not\n      and\n      swap1\n      dup4\n      0xffffffffffffffffffffffffffffffffffffffff\n      and\n      mul\n      or\n      swap1\n      sstore\n      pop\n        /* \"contracts/proxy/ERC1967/ERC1967Utils.sol\":1378:1536  function setImplementationAddress(address _implementationAddress) internal {... */\n      pop\n      jump\t// out\n        /* \"#utility.yul\":7:176   */\n    tag_92:\n        /* \"#utility.yul\":91:102   */\n      0x00\n        /* \"#utility.yul\":125:131   */\n      dup3\n        /* \"#utility.yul\":120:123   */\n      dup3\n        /* \"#utility.yul\":113:132   */\n      mstore\n        /* \"#utility.yul\":165:169   */\n      0x20\n        /* \"#utility.yul\":160:163   */\n      dup3\n        /* \"#utility.yul\":156:170   */\n      add\n        /* \"#utility.yul\":141:170   */\n      swap1\n      pop\n        /* \"#utility.yul\":7:176   */\n      swap3\n      swap2\n      pop\n      pop\n      jump\t// out\n        /* \"#utility.yul\":182:362   */\n    tag_93:\n        /* \"#utility.yul\":322:354   */\n      0x66616c6c6261636b3a2061646d696e2063616e206e6f74206163636573730000\n        /* \"#utility.yul\":318:319   */\n      0x00\n        /* \"#utility.yul\":310:316   */\n      dup3\n        /* \"#utility.yul\":306:320   */\n      add\n        /* \"#utility.yul\":299:355   */\n      mstore\n        /* \"#utility.yul\":182:362   */\n      pop\n      jump\t// out\n        /* \"#utility.yul\":368:734   */\n    tag_94:\n        /* \"#utility.yul\":510:513   */\n      0x00\n        /* \"#utility.yul\":531:598   */\n      tag_130\n        /* \"#utility.yul\":595:597   */\n      0x1e\n        /* \"#utility.yul\":590:593   */\n      dup4\n        /* \"#utility.yul\":531:598   */\n      tag_92\n      jump\t// in\n    tag_130:\n        /* \"#utility.yul\":524:598   */\n      swap2\n      pop\n        /* \"#utility.yul\":607:700   */\n      tag_131\n        /* \"#utility.yul\":696:699   */\n      dup3\n        /* \"#utility.yul\":607:700   */\n      tag_93\n      jump\t// in\n    tag_131:\n        /* \"#utility.yul\":725:727   */\n      0x20\n        /* \"#utility.yul\":720:723   */\n      dup3\n        /* \"#utility.yul\":716:728   */\n      add\n        /* \"#utility.yul\":709:728   */\n      swap1\n      pop\n        /* \"#utility.yul\":368:734   */\n      swap2\n      swap1\n      pop\n      jump\t// out\n        /* \"#utility.yul\":740:1159   */\n    tag_14:\n        /* \"#utility.yul\":906:910   */\n      0x00\n        /* \"#utility.yul\":944:946   */\n      0x20\n        /* \"#utility.yul\":933:942   */\n      dup3\n        /* \"#utility.yul\":929:947   */\n      add\n        /* \"#utility.yul\":921:947   */\n      swap1\n      pop\n        /* \"#utility.yul\":993:1002   */\n      dup2\n        /* \"#utility.yul\":987:991   */\n      dup2\n        /* \"#utility.yul\":983:1003   */\n      sub\n        /* \"#utility.yul\":979:980   */\n      0x00\n        /* \"#utility.yul\":968:977   */\n      dup4\n        /* \"#utility.yul\":964:981   */\n      add\n        /* \"#utility.yul\":957:1004   */\n      mstore\n        /* \"#utility.yul\":1021:1152   */\n      tag_133\n        /* \"#utility.yul\":1147:1151   */\n      dup2\n        /* \"#utility.yul\":1021:1152   */\n      tag_94\n      jump\t// in\n    tag_133:\n        /* \"#utility.yul\":1013:1152   */\n      swap1\n      pop\n        /* \"#utility.yul\":740:1159   */\n      swap2\n      swap1\n      pop\n      jump\t// out\n        /* \"#utility.yul\":1165:1333   */\n    tag_95:\n        /* \"#utility.yul\":1248:1259   */\n      0x00\n        /* \"#utility.yul\":1282:1288   */\n      dup3\n        /* \"#utility.yul\":1277:1280   */\n      dup3\n        /* \"#utility.yul\":1270:1289   */\n      mstore\n        /* \"#utility.yul\":1322:1326   */\n      0x20\n        /* \"#utility.yul\":1317:1320   */\n      dup3\n        /* \"#utility.yul\":1313:1327   */\n      add\n        /* \"#utility.yul\":1298:1327   */\n      swap1\n      pop\n        /* \"#utility.yul\":1165:1333   */\n      swap3\n      swap2\n      pop\n      pop\n      jump\t// out\n        /* \"#utility.yul\":1339:1487   */\n    tag_96:\n        /* \"#utility.yul\":1437:1443   */\n      dup3\n        /* \"#utility.yul\":1432:1435   */\n      dup2\n        /* \"#utility.yul\":1427:1430   */\n      dup4\n        /* \"#utility.yul\":1414:1444   */\n      calldatacopy\n        /* \"#utility.yul\":1478:1479   */\n      0x00\n        /* \"#utility.yul\":1469:1475   */\n      dup4\n        /* \"#utility.yul\":1464:1467   */\n      dup4\n        /* \"#utility.yul\":1460:1476   */\n      add\n        /* \"#utility.yul\":1453:1480   */\n      mstore\n        /* \"#utility.yul\":1339:1487   */\n      pop\n      pop\n      pop\n      jump\t// out\n        /* \"#utility.yul\":1493:1595   */\n    tag_97:\n        /* \"#utility.yul\":1534:1540   */\n      0x00\n        /* \"#utility.yul\":1585:1587   */\n      0x1f\n        /* \"#utility.yul\":1581:1588   */\n      not\n        /* \"#utility.yul\":1576:1578   */\n      0x1f\n        /* \"#utility.yul\":1569:1574   */\n      dup4\n        /* \"#utility.yul\":1565:1579   */\n      add\n        /* \"#utility.yul\":1561:1589   */\n      and\n        /* \"#utility.yul\":1551:1589   */\n      swap1\n      pop\n        /* \"#utility.yul\":1493:1595   */\n      swap2\n      swap1\n      pop\n      jump\t// out\n        /* \"#utility.yul\":1623:1937   */\n    tag_98:\n        /* \"#utility.yul\":1719:1722   */\n      0x00\n        /* \"#utility.yul\":1740:1810   */\n      tag_138\n        /* \"#utility.yul\":1803:1809   */\n      dup4\n        /* \"#utility.yul\":1798:1801   */\n      dup6\n        /* \"#utility.yul\":1740:1810   */\n      tag_95\n      jump\t// in\n    tag_138:\n        /* \"#utility.yul\":1733:1810   */\n      swap4\n      pop\n        /* \"#utility.yul\":1820:1876   */\n      tag_139\n        /* \"#utility.yul\":1869:1875   */\n      dup4\n        /* \"#utility.yul\":1864:1867   */\n      dup6\n        /* \"#utility.yul\":1857:1862   */\n      dup5\n        /* \"#utility.yul\":1820:1876   */\n      tag_96\n      jump\t// in\n    tag_139:\n        /* \"#utility.yul\":1901:1930   */\n      tag_140\n        /* \"#utility.yul\":1923:1929   */\n      dup4\n        /* \"#utility.yul\":1901:1930   */\n      tag_97\n      jump\t// in\n    tag_140:\n        /* \"#utility.yul\":1896:1899   */\n      dup5\n        /* \"#utility.yul\":1892:1931   */\n      add\n        /* \"#utility.yul\":1885:1931   */\n      swap1\n      pop\n        /* \"#utility.yul\":1623:1937   */\n      swap4\n      swap3\n      pop\n      pop\n      pop\n      jump\t// out\n        /* \"#utility.yul\":1943:2272   */\n    tag_16:\n        /* \"#utility.yul\":2064:2068   */\n      0x00\n        /* \"#utility.yul\":2102:2104   */\n      0x20\n        /* \"#utility.yul\":2091:2100   */\n      dup3\n        /* \"#utility.yul\":2087:2105   */\n      add\n        /* \"#utility.yul\":2079:2105   */\n      swap1\n      pop\n        /* \"#utility.yul\":2151:2160   */\n      dup2\n        /* \"#utility.yul\":2145:2149   */\n      dup2\n        /* \"#utility.yul\":2141:2161   */\n      sub\n        /* \"#utility.yul\":2137:2138   */\n      0x00\n        /* \"#utility.yul\":2126:2135   */\n      dup4\n        /* \"#utility.yul\":2122:2139   */\n      add\n        /* \"#utility.yul\":2115:2162   */\n      mstore\n        /* \"#utility.yul\":2179:2265   */\n      tag_142\n        /* \"#utility.yul\":2260:2264   */\n      dup2\n        /* \"#utility.yul\":2251:2257   */\n      dup5\n        /* \"#utility.yul\":2243:2249   */\n      dup7\n        /* \"#utility.yul\":2179:2265   */\n      tag_98\n      jump\t// in\n    tag_142:\n        /* \"#utility.yul\":2171:2265   */\n      swap1\n      pop\n        /* \"#utility.yul\":1943:2272   */\n      swap4\n      swap3\n      pop\n      pop\n      pop\n      jump\t// out\n        /* \"#utility.yul\":2278:2404   */\n    tag_99:\n        /* \"#utility.yul\":2315:2322   */\n      0x00\n        /* \"#utility.yul\":2355:2397   */\n      0xffffffffffffffffffffffffffffffffffffffff\n        /* \"#utility.yul\":2348:2353   */\n      dup3\n        /* \"#utility.yul\":2344:2398   */\n      and\n        /* \"#utility.yul\":2333:2398   */\n      swap1\n      pop\n        /* \"#utility.yul\":2278:2404   */\n      swap2\n      swap1\n      pop\n      jump\t// out\n        /* \"#utility.yul\":2410:2506   */\n    tag_100:\n        /* \"#utility.yul\":2447:2454   */\n      0x00\n        /* \"#utility.yul\":2476:2500   */\n      tag_145\n        /* \"#utility.yul\":2494:2499   */\n      dup3\n        /* \"#utility.yul\":2476:2500   */\n      tag_99\n      jump\t// in\n    tag_145:\n        /* \"#utility.yul\":2465:2500   */\n      swap1\n      pop\n        /* \"#utility.yul\":2410:2506   */\n      swap2\n      swap1\n      pop\n      jump\t// out\n        /* \"#utility.yul\":2512:2630   */\n    tag_101:\n        /* \"#utility.yul\":2599:2623   */\n      tag_147\n        /* \"#utility.yul\":2617:2622   */\n      dup2\n        /* \"#utility.yul\":2599:2623   */\n      tag_100\n      jump\t// in\n    tag_147:\n        /* \"#utility.yul\":2594:2597   */\n      dup3\n        /* \"#utility.yul\":2587:2624   */\n      mstore\n        /* \"#utility.yul\":2512:2630   */\n      pop\n      pop\n      jump\t// out\n        /* \"#utility.yul\":2636:2858   */\n    tag_23:\n        /* \"#utility.yul\":2729:2733   */\n      0x00\n        /* \"#utility.yul\":2767:2769   */\n      0x20\n        /* \"#utility.yul\":2756:2765   */\n      dup3\n        /* \"#utility.yul\":2752:2770   */\n      add\n        /* \"#utility.yul\":2744:2770   */\n      swap1\n      pop\n        /* \"#utility.yul\":2780:2851   */\n      tag_149\n        /* \"#utility.yul\":2848:2849   */\n      0x00\n        /* \"#utility.yul\":2837:2846   */\n      dup4\n        /* \"#utility.yul\":2833:2850   */\n      add\n        /* \"#utility.yul\":2824:2830   */\n      dup5\n        /* \"#utility.yul\":2780:2851   */\n      tag_101\n      jump\t// in\n    tag_149:\n        /* \"#utility.yul\":2636:2858   */\n      swap3\n      swap2\n      pop\n      pop\n      jump\t// out\n        /* \"#utility.yul\":2864:2939   */\n    tag_102:\n        /* \"#utility.yul\":2897:2903   */\n      0x00\n        /* \"#utility.yul\":2930:2932   */\n      0x40\n        /* \"#utility.yul\":2924:2933   */\n      mload\n        /* \"#utility.yul\":2914:2933   */\n      swap1\n      pop\n        /* \"#utility.yul\":2864:2939   */\n      swap1\n      jump\t// out\n        /* \"#utility.yul\":2945:3062   */\n    tag_103:\n        /* \"#utility.yul\":3054:3055   */\n      0x00\n        /* \"#utility.yul\":3051:3052   */\n      dup1\n        /* \"#utility.yul\":3044:3056   */\n      revert\n        /* \"#utility.yul\":3068:3185   */\n    tag_104:\n        /* \"#utility.yul\":3177:3178   */\n      0x00\n        /* \"#utility.yul\":3174:3175   */\n      dup1\n        /* \"#utility.yul\":3167:3179   */\n      revert\n        /* \"#utility.yul\":3191:3313   */\n    tag_105:\n        /* \"#utility.yul\":3264:3288   */\n      tag_154\n        /* \"#utility.yul\":3282:3287   */\n      dup2\n        /* \"#utility.yul\":3264:3288   */\n      tag_100\n      jump\t// in\n    tag_154:\n        /* \"#utility.yul\":3257:3262   */\n      dup2\n        /* \"#utility.yul\":3254:3289   */\n      eq\n        /* \"#utility.yul\":3244:3307   */\n      tag_155\n      jumpi\n        /* \"#utility.yul\":3303:3304   */\n      0x00\n        /* \"#utility.yul\":3300:3301   */\n      dup1\n        /* \"#utility.yul\":3293:3305   */\n      revert\n        /* \"#utility.yul\":3244:3307   */\n    tag_155:\n        /* \"#utility.yul\":3191:3313   */\n      pop\n      jump\t// out\n        /* \"#utility.yul\":3319:3458   */\n    tag_106:\n        /* \"#utility.yul\":3365:3370   */\n      0x00\n        /* \"#utility.yul\":3403:3409   */\n      dup2\n        /* \"#utility.yul\":3390:3410   */\n      calldataload\n        /* \"#utility.yul\":3381:3410   */\n      swap1\n      pop\n        /* \"#utility.yul\":3419:3452   */\n      tag_157\n        /* \"#utility.yul\":3446:3451   */\n      dup2\n        /* \"#utility.yul\":3419:3452   */\n      tag_105\n      jump\t// in\n    tag_157:\n        /* \"#utility.yul\":3319:3458   */\n      swap3\n      swap2\n      pop\n      pop\n      jump\t// out\n        /* \"#utility.yul\":3464:3793   */\n    tag_27:\n        /* \"#utility.yul\":3523:3529   */\n      0x00\n        /* \"#utility.yul\":3572:3574   */\n      0x20\n        /* \"#utility.yul\":3560:3569   */\n      dup3\n        /* \"#utility.yul\":3551:3558   */\n      dup5\n        /* \"#utility.yul\":3547:3570   */\n      sub\n        /* \"#utility.yul\":3543:3575   */\n      slt\n        /* \"#utility.yul\":3540:3659   */\n      iszero\n      tag_159\n      jumpi\n        /* \"#utility.yul\":3578:3657   */\n      tag_160\n      tag_103\n      jump\t// in\n    tag_160:\n        /* \"#utility.yul\":3540:3659   */\n    tag_159:\n        /* \"#utility.yul\":3698:3699   */\n      0x00\n        /* \"#utility.yul\":3723:3776   */\n      tag_161\n        /* \"#utility.yul\":3768:3775   */\n      dup5\n        /* \"#utility.yul\":3759:3765   */\n      dup3\n        /* \"#utility.yul\":3748:3757   */\n      dup6\n        /* \"#utility.yul\":3744:3766   */\n      add\n        /* \"#utility.yul\":3723:3776   */\n      tag_106\n      jump\t// in\n    tag_161:\n        /* \"#utility.yul\":3713:3776   */\n      swap2\n      pop\n        /* \"#utility.yul\":3669:3786   */\n      pop\n        /* \"#utility.yul\":3464:3793   */\n      swap3\n      swap2\n      pop\n      pop\n      jump\t// out\n        /* \"#utility.yul\":3799:3916   */\n    tag_107:\n        /* \"#utility.yul\":3908:3909   */\n      0x00\n        /* \"#utility.yul\":3905:3906   */\n      dup1\n        /* \"#utility.yul\":3898:3910   */\n      revert\n        /* \"#utility.yul\":3922:4039   */\n    tag_108:\n        /* \"#utility.yul\":4031:4032   */\n      0x00\n        /* \"#utility.yul\":4028:4029   */\n      dup1\n        /* \"#utility.yul\":4021:4033   */\n      revert\n        /* \"#utility.yul\":4045:4225   */\n    tag_109:\n        /* \"#utility.yul\":4093:4170   */\n      0x4e487b7100000000000000000000000000000000000000000000000000000000\n        /* \"#utility.yul\":4090:4091   */\n      0x00\n        /* \"#utility.yul\":4083:4171   */\n      mstore\n        /* \"#utility.yul\":4190:4194   */\n      0x41\n        /* \"#utility.yul\":4187:4188   */\n      0x04\n        /* \"#utility.yul\":4180:4195   */\n      mstore\n        /* \"#utility.yul\":4214:4218   */\n      0x24\n        /* \"#utility.yul\":4211:4212   */\n      0x00\n        /* \"#utility.yul\":4204:4219   */\n      revert\n        /* \"#utility.yul\":4231:4512   */\n    tag_110:\n        /* \"#utility.yul\":4314:4341   */\n      tag_166\n        /* \"#utility.yul\":4336:4340   */\n      dup3\n        /* \"#utility.yul\":4314:4341   */\n      tag_97\n      jump\t// in\n    tag_166:\n        /* \"#utility.yul\":4306:4312   */\n      dup2\n        /* \"#utility.yul\":4302:4342   */\n      add\n        /* \"#utility.yul\":4444:4450   */\n      dup2\n        /* \"#utility.yul\":4432:4442   */\n      dup2\n        /* \"#utility.yul\":4429:4451   */\n      lt\n        /* \"#utility.yul\":4408:4426   */\n      0xffffffffffffffff\n        /* \"#utility.yul\":4396:4406   */\n      dup3\n        /* \"#utility.yul\":4393:4427   */\n      gt\n        /* \"#utility.yul\":4390:4452   */\n      or\n        /* \"#utility.yul\":4387:4475   */\n      iszero\n      tag_167\n      jumpi\n        /* \"#utility.yul\":4455:4473   */\n      tag_168\n      tag_109\n      jump\t// in\n    tag_168:\n        /* \"#utility.yul\":4387:4475   */\n    tag_167:\n        /* \"#utility.yul\":4495:4505   */\n      dup1\n        /* \"#utility.yul\":4491:4493   */\n      0x40\n        /* \"#utility.yul\":4484:4506   */\n      mstore\n        /* \"#utility.yul\":4274:4512   */\n      pop\n        /* \"#utility.yul\":4231:4512   */\n      pop\n      pop\n      jump\t// out\n        /* \"#utility.yul\":4518:4647   */\n    tag_111:\n        /* \"#utility.yul\":4552:4558   */\n      0x00\n        /* \"#utility.yul\":4579:4599   */\n      tag_170\n      tag_102\n      jump\t// in\n    tag_170:\n        /* \"#utility.yul\":4569:4599   */\n      swap1\n      pop\n        /* \"#utility.yul\":4608:4641   */\n      tag_171\n        /* \"#utility.yul\":4636:4640   */\n      dup3\n        /* \"#utility.yul\":4628:4634   */\n      dup3\n        /* \"#utility.yul\":4608:4641   */\n      tag_110\n      jump\t// in\n    tag_171:\n        /* \"#utility.yul\":4518:4647   */\n      swap2\n      swap1\n      pop\n      jump\t// out\n        /* \"#utility.yul\":4653:4960   */\n    tag_112:\n        /* \"#utility.yul\":4714:4718   */\n      0x00\n        /* \"#utility.yul\":4804:4822   */\n      0xffffffffffffffff\n        /* \"#utility.yul\":4796:4802   */\n      dup3\n        /* \"#utility.yul\":4793:4823   */\n      gt\n        /* \"#utility.yul\":4790:4846   */\n      iszero\n      tag_173\n      jumpi\n        /* \"#utility.yul\":4826:4844   */\n      tag_174\n      tag_109\n      jump\t// in\n    tag_174:\n        /* \"#utility.yul\":4790:4846   */\n    tag_173:\n        /* \"#utility.yul\":4864:4893   */\n      tag_175\n        /* \"#utility.yul\":4886:4892   */\n      dup3\n        /* \"#utility.yul\":4864:4893   */\n      tag_97\n      jump\t// in\n    tag_175:\n        /* \"#utility.yul\":4856:4893   */\n      swap1\n      pop\n        /* \"#utility.yul\":4948:4952   */\n      0x20\n        /* \"#utility.yul\":4942:4946   */\n      dup2\n        /* \"#utility.yul\":4938:4953   */\n      add\n        /* \"#utility.yul\":4930:4953   */\n      swap1\n      pop\n        /* \"#utility.yul\":4653:4960   */\n      swap2\n      swap1\n      pop\n      jump\t// out\n        /* \"#utility.yul\":4966:5389   */\n    tag_113:\n        /* \"#utility.yul\":5043:5048   */\n      0x00\n        /* \"#utility.yul\":5068:5133   */\n      tag_177\n        /* \"#utility.yul\":5084:5132   */\n      tag_178\n        /* \"#utility.yul\":5125:5131   */\n      dup5\n        /* \"#utility.yul\":5084:5132   */\n      tag_112\n      jump\t// in\n    tag_178:\n        /* \"#utility.yul\":5068:5133   */\n      tag_111\n      jump\t// in\n    tag_177:\n        /* \"#utility.yul\":5059:5133   */\n      swap1\n      pop\n        /* \"#utility.yul\":5156:5162   */\n      dup3\n        /* \"#utility.yul\":5149:5154   */\n      dup2\n        /* \"#utility.yul\":5142:5163   */\n      mstore\n        /* \"#utility.yul\":5194:5198   */\n      0x20\n        /* \"#utility.yul\":5187:5192   */\n      dup2\n        /* \"#utility.yul\":5183:5199   */\n      add\n        /* \"#utility.yul\":5232:5235   */\n      dup5\n        /* \"#utility.yul\":5223:5229   */\n      dup5\n        /* \"#utility.yul\":5218:5221   */\n      dup5\n        /* \"#utility.yul\":5214:5230   */\n      add\n        /* \"#utility.yul\":5211:5236   */\n      gt\n        /* \"#utility.yul\":5208:5320   */\n      iszero\n      tag_179\n      jumpi\n        /* \"#utility.yul\":5239:5318   */\n      tag_180\n      tag_108\n      jump\t// in\n    tag_180:\n        /* \"#utility.yul\":5208:5320   */\n    tag_179:\n        /* \"#utility.yul\":5329:5383   */\n      tag_181\n        /* \"#utility.yul\":5376:5382   */\n      dup5\n        /* \"#utility.yul\":5371:5374   */\n      dup3\n        /* \"#utility.yul\":5366:5369   */\n      dup6\n        /* \"#utility.yul\":5329:5383   */\n      tag_96\n      jump\t// in\n    tag_181:\n        /* \"#utility.yul\":5049:5389   */\n      pop\n        /* \"#utility.yul\":4966:5389   */\n      swap4\n      swap3\n      pop\n      pop\n      pop\n      jump\t// out\n        /* \"#utility.yul\":5408:5746   */\n    tag_114:\n        /* \"#utility.yul\":5463:5468   */\n      0x00\n        /* \"#utility.yul\":5512:5515   */\n      dup3\n        /* \"#utility.yul\":5505:5509   */\n      0x1f\n        /* \"#utility.yul\":5497:5503   */\n      dup4\n        /* \"#utility.yul\":5493:5510   */\n      add\n        /* \"#utility.yul\":5489:5516   */\n      slt\n        /* \"#utility.yul\":5479:5601   */\n      tag_183\n      jumpi\n        /* \"#utility.yul\":5520:5599   */\n      tag_184\n      tag_107\n      jump\t// in\n    tag_184:\n        /* \"#utility.yul\":5479:5601   */\n    tag_183:\n        /* \"#utility.yul\":5637:5643   */\n      dup2\n        /* \"#utility.yul\":5624:5644   */\n      calldataload\n        /* \"#utility.yul\":5662:5740   */\n      tag_185\n        /* \"#utility.yul\":5736:5739   */\n      dup5\n        /* \"#utility.yul\":5728:5734   */\n      dup3\n        /* \"#utility.yul\":5721:5725   */\n      0x20\n        /* \"#utility.yul\":5713:5719   */\n      dup7\n        /* \"#utility.yul\":5709:5726   */\n      add\n        /* \"#utility.yul\":5662:5740   */\n      tag_113\n      jump\t// in\n    tag_185:\n        /* \"#utility.yul\":5653:5740   */\n      swap2\n      pop\n        /* \"#utility.yul\":5469:5746   */\n      pop\n        /* \"#utility.yul\":5408:5746   */\n      swap3\n      swap2\n      pop\n      pop\n      jump\t// out\n        /* \"#utility.yul\":5752:6404   */\n    tag_32:\n        /* \"#utility.yul\":5829:5835   */\n      0x00\n        /* \"#utility.yul\":5837:5843   */\n      dup1\n        /* \"#utility.yul\":5886:5888   */\n      0x40\n        /* \"#utility.yul\":5874:5883   */\n      dup4\n        /* \"#utility.yul\":5865:5872   */\n      dup6\n        /* \"#utility.yul\":5861:5884   */\n      sub\n        /* \"#utility.yul\":5857:5889   */\n      slt\n        /* \"#utility.yul\":5854:5973   */\n      iszero\n      tag_187\n      jumpi\n        /* \"#utility.yul\":5892:5971   */\n      tag_188\n      tag_103\n      jump\t// in\n    tag_188:\n        /* \"#utility.yul\":5854:5973   */\n    tag_187:\n        /* \"#utility.yul\":6012:6013   */\n      0x00\n        /* \"#utility.yul\":6037:6090   */\n      tag_189\n        /* \"#utility.yul\":6082:6089   */\n      dup6\n        /* \"#utility.yul\":6073:6079   */\n      dup3\n        /* \"#utility.yul\":6062:6071   */\n      dup7\n        /* \"#utility.yul\":6058:6080   */\n      add\n        /* \"#utility.yul\":6037:6090   */\n      tag_106\n      jump\t// in\n    tag_189:\n        /* \"#utility.yul\":6027:6090   */\n      swap3\n      pop\n        /* \"#utility.yul\":5983:6100   */\n      pop\n        /* \"#utility.yul\":6167:6169   */\n      0x20\n        /* \"#utility.yul\":6156:6165   */\n      dup4\n        /* \"#utility.yul\":6152:6170   */\n      add\n        /* \"#utility.yul\":6139:6171   */\n      calldataload\n        /* \"#utility.yul\":6198:6216   */\n      0xffffffffffffffff\n        /* \"#utility.yul\":6190:6196   */\n      dup2\n        /* \"#utility.yul\":6187:6217   */\n      gt\n        /* \"#utility.yul\":6184:6301   */\n      iszero\n      tag_190\n      jumpi\n        /* \"#utility.yul\":6220:6299   */\n      tag_191\n      tag_104\n      jump\t// in\n    tag_191:\n        /* \"#utility.yul\":6184:6301   */\n    tag_190:\n        /* \"#utility.yul\":6325:6387   */\n      tag_192\n        /* \"#utility.yul\":6379:6386   */\n      dup6\n        /* \"#utility.yul\":6370:6376   */\n      dup3\n        /* \"#utility.yul\":6359:6368   */\n      dup7\n        /* \"#utility.yul\":6355:6377   */\n      add\n        /* \"#utility.yul\":6325:6387   */\n      tag_114\n      jump\t// in\n    tag_192:\n        /* \"#utility.yul\":6315:6387   */\n      swap2\n      pop\n        /* \"#utility.yul\":6110:6397   */\n      pop\n        /* \"#utility.yul\":5752:6404   */\n      swap3\n      pop\n      swap3\n      swap1\n      pop\n      jump\t// out\n        /* \"#utility.yul\":6410:6630   */\n    tag_115:\n        /* \"#utility.yul\":6550:6584   */\n      0x4f6e6c792061646d696e2063616e2063616c6c20746869732066756e6374696f\n        /* \"#utility.yul\":6546:6547   */\n      0x00\n        /* \"#utility.yul\":6538:6544   */\n      dup3\n        /* \"#utility.yul\":6534:6548   */\n      add\n        /* \"#utility.yul\":6527:6585   */\n      mstore\n        /* \"#utility.yul\":6619:6622   */\n      0x6e00000000000000000000000000000000000000000000000000000000000000\n        /* \"#utility.yul\":6614:6616   */\n      0x20\n        /* \"#utility.yul\":6606:6612   */\n      dup3\n        /* \"#utility.yul\":6602:6617   */\n      add\n        /* \"#utility.yul\":6595:6623   */\n      mstore\n        /* \"#utility.yul\":6410:6630   */\n      pop\n      jump\t// out\n        /* \"#utility.yul\":6636:7002   */\n    tag_116:\n        /* \"#utility.yul\":6778:6781   */\n      0x00\n        /* \"#utility.yul\":6799:6866   */\n      tag_195\n        /* \"#utility.yul\":6863:6865   */\n      0x21\n        /* \"#utility.yul\":6858:6861   */\n      dup4\n        /* \"#utility.yul\":6799:6866   */\n      tag_92\n      jump\t// in\n    tag_195:\n        /* \"#utility.yul\":6792:6866   */\n      swap2\n      pop\n        /* \"#utility.yul\":6875:6968   */\n      tag_196\n        /* \"#utility.yul\":6964:6967   */\n      dup3\n        /* \"#utility.yul\":6875:6968   */\n      tag_115\n      jump\t// in\n    tag_196:\n        /* \"#utility.yul\":6993:6995   */\n      0x40\n        /* \"#utility.yul\":6988:6991   */\n      dup3\n        /* \"#utility.yul\":6984:6996   */\n      add\n        /* \"#utility.yul\":6977:6996   */\n      swap1\n      pop\n        /* \"#utility.yul\":6636:7002   */\n      swap2\n      swap1\n      pop\n      jump\t// out\n        /* \"#utility.yul\":7008:7427   */\n    tag_48:\n        /* \"#utility.yul\":7174:7178   */\n      0x00\n        /* \"#utility.yul\":7212:7214   */\n      0x20\n        /* \"#utility.yul\":7201:7210   */\n      dup3\n        /* \"#utility.yul\":7197:7215   */\n      add\n        /* \"#utility.yul\":7189:7215   */\n      swap1\n      pop\n        /* \"#utility.yul\":7261:7270   */\n      dup2\n        /* \"#utility.yul\":7255:7259   */\n      dup2\n        /* \"#utility.yul\":7251:7271   */\n      sub\n        /* \"#utility.yul\":7247:7248   */\n      0x00\n        /* \"#utility.yul\":7236:7245   */\n      dup4\n        /* \"#utility.yul\":7232:7249   */\n      add\n        /* \"#utility.yul\":7225:7272   */\n      mstore\n        /* \"#utility.yul\":7289:7420   */\n      tag_198\n        /* \"#utility.yul\":7415:7419   */\n      dup2\n        /* \"#utility.yul\":7289:7420   */\n      tag_116\n      jump\t// in\n    tag_198:\n        /* \"#utility.yul\":7281:7420   */\n      swap1\n      pop\n        /* \"#utility.yul\":7008:7427   */\n      swap2\n      swap1\n      pop\n      jump\t// out\n        /* \"#utility.yul\":7433:7658   */\n    tag_117:\n        /* \"#utility.yul\":7573:7607   */\n      0x757067726164654c6f676963416464726573733a206f6e6c792061646d696e20\n        /* \"#utility.yul\":7569:7570   */\n      0x00\n        /* \"#utility.yul\":7561:7567   */\n      dup3\n        /* \"#utility.yul\":7557:7571   */\n      add\n        /* \"#utility.yul\":7550:7608   */\n      mstore\n        /* \"#utility.yul\":7642:7650   */\n      0x63616e20646f0000000000000000000000000000000000000000000000000000\n        /* \"#utility.yul\":7637:7639   */\n      0x20\n        /* \"#utility.yul\":7629:7635   */\n      dup3\n        /* \"#utility.yul\":7625:7640   */\n      add\n        /* \"#utility.yul\":7618:7651   */\n      mstore\n        /* \"#utility.yul\":7433:7658   */\n      pop\n      jump\t// out\n        /* \"#utility.yul\":7664:8030   */\n    tag_118:\n        /* \"#utility.yul\":7806:7809   */\n      0x00\n        /* \"#utility.yul\":7827:7894   */\n      tag_201\n        /* \"#utility.yul\":7891:7893   */\n      0x26\n        /* \"#utility.yul\":7886:7889   */\n      dup4\n        /* \"#utility.yul\":7827:7894   */\n      tag_92\n      jump\t// in\n    tag_201:\n        /* \"#utility.yul\":7820:7894   */\n      swap2\n      pop\n        /* \"#utility.yul\":7903:7996   */\n      tag_202\n        /* \"#utility.yul\":7992:7995   */\n      dup3\n        /* \"#utility.yul\":7903:7996   */\n      tag_117\n      jump\t// in\n    tag_202:\n        /* \"#utility.yul\":8021:8023   */\n      0x40\n        /* \"#utility.yul\":8016:8019   */\n      dup3\n        /* \"#utility.yul\":8012:8024   */\n      add\n        /* \"#utility.yul\":8005:8024   */\n      swap1\n      pop\n        /* \"#utility.yul\":7664:8030   */\n      swap2\n      swap1\n      pop\n      jump\t// out\n        /* \"#utility.yul\":8036:8455   */\n    tag_60:\n        /* \"#utility.yul\":8202:8206   */\n      0x00\n        /* \"#utility.yul\":8240:8242   */\n      0x20\n        /* \"#utility.yul\":8229:8238   */\n      dup3\n        /* \"#utility.yul\":8225:8243   */\n      add\n        /* \"#utility.yul\":8217:8243   */\n      swap1\n      pop\n        /* \"#utility.yul\":8289:8298   */\n      dup2\n        /* \"#utility.yul\":8283:8287   */\n      dup2\n        /* \"#utility.yul\":8279:8299   */\n      sub\n        /* \"#utility.yul\":8275:8276   */\n      0x00\n        /* \"#utility.yul\":8264:8273   */\n      dup4\n        /* \"#utility.yul\":8260:8277   */\n      add\n        /* \"#utility.yul\":8253:8300   */\n      mstore\n        /* \"#utility.yul\":8317:8448   */\n      tag_204\n        /* \"#utility.yul\":8443:8447   */\n      dup2\n        /* \"#utility.yul\":8317:8448   */\n      tag_118\n      jump\t// in\n    tag_204:\n        /* \"#utility.yul\":8309:8448   */\n      swap1\n      pop\n        /* \"#utility.yul\":8036:8455   */\n      swap2\n      swap1\n      pop\n      jump\t// out\n        /* \"#utility.yul\":8461:8559   */\n    tag_119:\n        /* \"#utility.yul\":8512:8518   */\n      0x00\n        /* \"#utility.yul\":8546:8551   */\n      dup2\n        /* \"#utility.yul\":8540:8552   */\n      mload\n        /* \"#utility.yul\":8530:8552   */\n      swap1\n      pop\n        /* \"#utility.yul\":8461:8559   */\n      swap2\n      swap1\n      pop\n      jump\t// out\n        /* \"#utility.yul\":8565:8712   */\n    tag_120:\n        /* \"#utility.yul\":8666:8677   */\n      0x00\n        /* \"#utility.yul\":8703:8706   */\n      dup2\n        /* \"#utility.yul\":8688:8706   */\n      swap1\n      pop\n        /* \"#utility.yul\":8565:8712   */\n      swap3\n      swap2\n      pop\n      pop\n      jump\t// out\n        /* \"#utility.yul\":8718:8857   */\n    tag_121:\n        /* \"#utility.yul\":8807:8813   */\n      dup3\n        /* \"#utility.yul\":8802:8805   */\n      dup2\n        /* \"#utility.yul\":8797:8800   */\n      dup4\n        /* \"#utility.yul\":8791:8814   */\n      mcopy\n        /* \"#utility.yul\":8848:8849   */\n      0x00\n        /* \"#utility.yul\":8839:8845   */\n      dup4\n        /* \"#utility.yul\":8834:8837   */\n      dup4\n        /* \"#utility.yul\":8830:8846   */\n      add\n        /* \"#utility.yul\":8823:8850   */\n      mstore\n        /* \"#utility.yul\":8718:8857   */\n      pop\n      pop\n      pop\n      jump\t// out\n        /* \"#utility.yul\":8863:9249   */\n    tag_122:\n        /* \"#utility.yul\":8967:8970   */\n      0x00\n        /* \"#utility.yul\":8995:9033   */\n      tag_209\n        /* \"#utility.yul\":9027:9032   */\n      dup3\n        /* \"#utility.yul\":8995:9033   */\n      tag_119\n      jump\t// in\n    tag_209:\n        /* \"#utility.yul\":9049:9137   */\n      tag_210\n        /* \"#utility.yul\":9130:9136   */\n      dup2\n        /* \"#utility.yul\":9125:9128   */\n      dup6\n        /* \"#utility.yul\":9049:9137   */\n      tag_120\n      jump\t// in\n    tag_210:\n        /* \"#utility.yul\":9042:9137   */\n      swap4\n      pop\n        /* \"#utility.yul\":9146:9211   */\n      tag_211\n        /* \"#utility.yul\":9204:9210   */\n      dup2\n        /* \"#utility.yul\":9199:9202   */\n      dup6\n        /* \"#utility.yul\":9192:9196   */\n      0x20\n        /* \"#utility.yul\":9185:9190   */\n      dup7\n        /* \"#utility.yul\":9181:9197   */\n      add\n        /* \"#utility.yul\":9146:9211   */\n      tag_121\n      jump\t// in\n    tag_211:\n        /* \"#utility.yul\":9236:9242   */\n      dup1\n        /* \"#utility.yul\":9231:9234   */\n      dup5\n        /* \"#utility.yul\":9227:9243   */\n      add\n        /* \"#utility.yul\":9220:9243   */\n      swap2\n      pop\n        /* \"#utility.yul\":8971:9249   */\n      pop\n        /* \"#utility.yul\":8863:9249   */\n      swap3\n      swap2\n      pop\n      pop\n      jump\t// out\n        /* \"#utility.yul\":9255:9526   */\n    tag_82:\n        /* \"#utility.yul\":9385:9388   */\n      0x00\n        /* \"#utility.yul\":9407:9500   */\n      tag_213\n        /* \"#utility.yul\":9496:9499   */\n      dup3\n        /* \"#utility.yul\":9487:9493   */\n      dup5\n        /* \"#utility.yul\":9407:9500   */\n      tag_122\n      jump\t// in\n    tag_213:\n        /* \"#utility.yul\":9400:9500   */\n      swap2\n      pop\n        /* \"#utility.yul\":9517:9520   */\n      dup2\n        /* \"#utility.yul\":9510:9520   */\n      swap1\n      pop\n        /* \"#utility.yul\":9255:9526   */\n      swap3\n      swap2\n      pop\n      pop\n      jump\t// out\n        /* \"#utility.yul\":9532:9905   */\n    tag_123:\n        /* \"#utility.yul\":9618:9621   */\n      0x00\n        /* \"#utility.yul\":9646:9684   */\n      tag_215\n        /* \"#utility.yul\":9678:9683   */\n      dup3\n        /* \"#utility.yul\":9646:9684   */\n      tag_119\n      jump\t// in\n    tag_215:\n        /* \"#utility.yul\":9700:9770   */\n      tag_216\n        /* \"#utility.yul\":9763:9769   */\n      dup2\n        /* \"#utility.yul\":9758:9761   */\n      dup6\n        /* \"#utility.yul\":9700:9770   */\n      tag_95\n      jump\t// in\n    tag_216:\n        /* \"#utility.yul\":9693:9770   */\n      swap4\n      pop\n        /* \"#utility.yul\":9779:9844   */\n      tag_217\n        /* \"#utility.yul\":9837:9843   */\n      dup2\n        /* \"#utility.yul\":9832:9835   */\n      dup6\n        /* \"#utility.yul\":9825:9829   */\n      0x20\n        /* \"#utility.yul\":9818:9823   */\n      dup7\n        /* \"#utility.yul\":9814:9830   */\n      add\n        /* \"#utility.yul\":9779:9844   */\n      tag_121\n      jump\t// in\n    tag_217:\n        /* \"#utility.yul\":9869:9898   */\n      tag_218\n        /* \"#utility.yul\":9891:9897   */\n      dup2\n        /* \"#utility.yul\":9869:9898   */\n      tag_97\n      jump\t// in\n    tag_218:\n        /* \"#utility.yul\":9864:9867   */\n      dup5\n        /* \"#utility.yul\":9860:9899   */\n      add\n        /* \"#utility.yul\":9853:9899   */\n      swap2\n      pop\n        /* \"#utility.yul\":9622:9905   */\n      pop\n        /* \"#utility.yul\":9532:9905   */\n      swap3\n      swap2\n      pop\n      pop\n      jump\t// out\n        /* \"#utility.yul\":9911:10001   */\n    tag_124:\n        /* \"#utility.yul\":9945:9952   */\n      0x00\n        /* \"#utility.yul\":9988:9993   */\n      dup2\n        /* \"#utility.yul\":9981:9994   */\n      iszero\n        /* \"#utility.yul\":9974:9995   */\n      iszero\n        /* \"#utility.yul\":9963:9995   */\n      swap1\n      pop\n        /* \"#utility.yul\":9911:10001   */\n      swap2\n      swap1\n      pop\n      jump\t// out\n        /* \"#utility.yul\":10007:10116   */\n    tag_125:\n        /* \"#utility.yul\":10088:10109   */\n      tag_221\n        /* \"#utility.yul\":10103:10108   */\n      dup2\n        /* \"#utility.yul\":10088:10109   */\n      tag_124\n      jump\t// in\n    tag_221:\n        /* \"#utility.yul\":10083:10086   */\n      dup3\n        /* \"#utility.yul\":10076:10110   */\n      mstore\n        /* \"#utility.yul\":10007:10116   */\n      pop\n      pop\n      jump\t// out\n        /* \"#utility.yul\":10122:10726   */\n    tag_87:\n        /* \"#utility.yul\":10301:10305   */\n      0x00\n        /* \"#utility.yul\":10339:10341   */\n      0x60\n        /* \"#utility.yul\":10328:10337   */\n      dup3\n        /* \"#utility.yul\":10324:10342   */\n      add\n        /* \"#utility.yul\":10316:10342   */\n      swap1\n      pop\n        /* \"#utility.yul\":10388:10397   */\n      dup2\n        /* \"#utility.yul\":10382:10386   */\n      dup2\n        /* \"#utility.yul\":10378:10398   */\n      sub\n        /* \"#utility.yul\":10374:10375   */\n      0x00\n        /* \"#utility.yul\":10363:10372   */\n      dup4\n        /* \"#utility.yul\":10359:10376   */\n      add\n        /* \"#utility.yul\":10352:10399   */\n      mstore\n        /* \"#utility.yul\":10416:10492   */\n      tag_223\n        /* \"#utility.yul\":10487:10491   */\n      dup2\n        /* \"#utility.yul\":10478:10484   */\n      dup7\n        /* \"#utility.yul\":10416:10492   */\n      tag_123\n      jump\t// in\n    tag_223:\n        /* \"#utility.yul\":10408:10492   */\n      swap1\n      pop\n        /* \"#utility.yul\":10502:10568   */\n      tag_224\n        /* \"#utility.yul\":10564:10566   */\n      0x20\n        /* \"#utility.yul\":10553:10562   */\n      dup4\n        /* \"#utility.yul\":10549:10567   */\n      add\n        /* \"#utility.yul\":10540:10546   */\n      dup6\n        /* \"#utility.yul\":10502:10568   */\n      tag_125\n      jump\t// in\n    tag_224:\n        /* \"#utility.yul\":10615:10624   */\n      dup2\n        /* \"#utility.yul\":10609:10613   */\n      dup2\n        /* \"#utility.yul\":10605:10625   */\n      sub\n        /* \"#utility.yul\":10600:10602   */\n      0x40\n        /* \"#utility.yul\":10589:10598   */\n      dup4\n        /* \"#utility.yul\":10585:10603   */\n      add\n        /* \"#utility.yul\":10578:10626   */\n      mstore\n        /* \"#utility.yul\":10643:10719   */\n      tag_225\n        /* \"#utility.yul\":10714:10718   */\n      dup2\n        /* \"#utility.yul\":10705:10711   */\n      dup5\n        /* \"#utility.yul\":10643:10719   */\n      tag_123\n      jump\t// in\n    tag_225:\n        /* \"#utility.yul\":10635:10719   */\n      swap1\n      pop\n        /* \"#utility.yul\":10122:10726   */\n      swap5\n      swap4\n      pop\n      pop\n      pop\n      pop\n      jump\t// out\n\n    auxdata: 0xa2646970667358221220b873b39aeed74036ca486d267161390c2bffc07dc47eb1c0ef4b43fc7aa5ff8b64736f6c634300081a0033\n}\n",
				"bytecode": {
					"linkReferences": {},
					"object": "608060405234801561000f575f80fd5b506040516111d63803806111d683398181016040528101906100319190610430565b336100418161005960201b60201c565b5061005282826100cd60201b60201c565b5050610589565b8061008b7fb53127684a568b3173ae13b9f8a6016e243e63b6e8ee1178d6a717850b5d61035f1b61020c60201b60201c565b5f015f6101000a81548173ffffffffffffffffffffffffffffffffffffffff021916908373ffffffffffffffffffffffffffffffffffffffff16021790555050565b5f73ffffffffffffffffffffffffffffffffffffffff168273ffffffffffffffffffffffffffffffffffffffff1603610132576040517fae7c562200000000000000000000000000000000000000000000000000000000815260040160405180910390fd5b6101418261021560201b60201c565b5f81511115610208575f808373ffffffffffffffffffffffffffffffffffffffff168360405161017191906104ce565b5f60405180830381855af49150503d805f81146101a9576040519150601f19603f3d011682016040523d82523d5f602084013e6101ae565b606091505b50915091508373ffffffffffffffffffffffffffffffffffffffff167f20423e22d1f0b31668780a7b6e52a7ad77a44c7dd910f738df5e2d06244fb5598484846040516101fd93929190610546565b60405180910390a250505b5050565b5f819050919050565b806102477f360894a13ba1a3210667c828492db98dca3e2076cc3735a920a3ca505d382bbc5f1b61020c60201b60201c565b5f015f6101000a81548173ffffffffffffffffffffffffffffffffffffffff021916908373ffffffffffffffffffffffffffffffffffffffff16021790555050565b5f604051905090565b5f80fd5b5f80fd5b5f73ffffffffffffffffffffffffffffffffffffffff82169050919050565b5f6102c38261029a565b9050919050565b6102d3816102b9565b81146102dd575f80fd5b50565b5f815190506102ee816102ca565b92915050565b5f80fd5b5f80fd5b5f601f19601f8301169050919050565b7f4e487b71000000000000000000000000000000000000000000000000000000005f52604160045260245ffd5b610342826102fc565b810181811067ffffffffffffffff821117156103615761036061030c565b5b80604052505050565b5f610373610289565b905061037f8282610339565b919050565b5f67ffffffffffffffff82111561039e5761039d61030c565b5b6103a7826102fc565b9050602081019050919050565b8281835e5f83830152505050565b5f6103d46103cf84610384565b61036a565b9050828152602081018484840111156103f0576103ef6102f8565b5b6103fb8482856103b4565b509392505050565b5f82601f830112610417576104166102f4565b5b81516104278482602086016103c2565b91505092915050565b5f806040838503121561044657610445610292565b5b5f610453858286016102e0565b925050602083015167ffffffffffffffff81111561047457610473610296565b5b61048085828601610403565b9150509250929050565b5f81519050919050565b5f81905092915050565b5f6104a88261048a565b6104b28185610494565b93506104c28185602086016103b4565b80840191505092915050565b5f6104d9828461049e565b915081905092915050565b5f82825260208201905092915050565b5f6104fe8261048a565b61050881856104e4565b93506105188185602086016103b4565b610521816102fc565b840191505092915050565b5f8115159050919050565b6105408161052c565b82525050565b5f6060820190508181035f83015261055e81866104f4565b905061056d6020830185610537565b818103604083015261057f81846104f4565b9050949350505050565b610c40806105965f395ff3fe608060405260043610610037575f3560e01c80636e9960c3146101505780638f2839701461017a57806395fae7ac146101a25761003e565b3661003e57005b6100466101ca565b73ffffffffffffffffffffffffffffffffffffffff163373ffffffffffffffffffffffffffffffffffffffff16036100b3576040517f08c379a00000000000000000000000000000000000000000000000000000000081526004016100aa90610721565b60405180910390fd5b5f357fffffffff00000000000000000000000000000000000000000000000000000000167bffffffffffffffffffffffffffffffffffffffffffffffffffffffff19163373ffffffffffffffffffffffffffffffffffffffff167f0a2e94dc85c608109377f1d4e7fd45e8eed5fe3acdaf32e2423ec8e069d40a075f3660405161013e929190610799565b60405180910390a361014e61021d565b005b34801561015b575f80fd5b5061016461022f565b60405161017191906107fa565b60405180910390f35b348015610185575f80fd5b506101a0600480360381019061019b919061084e565b61023d565b005b3480156101ad575f80fd5b506101c860048036038101906101c39190610997565b6102be565b005b5f6101f67fb53127684a568b3173ae13b9f8a6016e243e63b6e8ee1178d6a717850b5d61035f1b6103b6565b5f015f9054906101000a900473ffffffffffffffffffffffffffffffffffffffff16905090565b61022d6102286103bf565b610412565b565b5f6102386101ca565b905090565b6102456101ca565b73ffffffffffffffffffffffffffffffffffffffff163373ffffffffffffffffffffffffffffffffffffffff16146102b2576040517f21f353dc0000000000000000000000000000000000000000000000000000000081526004016102a990610a61565b60405180910390fd5b6102bb81610431565b50565b6102c66101ca565b73ffffffffffffffffffffffffffffffffffffffff163373ffffffffffffffffffffffffffffffffffffffff1614610333576040517f21f353dc00000000000000000000000000000000000000000000000000000000815260040161032a90610a61565b60405180910390fd5b61033b6101ca565b73ffffffffffffffffffffffffffffffffffffffff163373ffffffffffffffffffffffffffffffffffffffff16146103a8576040517f08c379a000000000000000000000000000000000000000000000000000000000815260040161039f90610aef565b60405180910390fd5b6103b282826104b2565b5050565b5f819050919050565b5f6103eb7f360894a13ba1a3210667c828492db98dca3e2076cc3735a920a3ca505d382bbc5f1b6103b6565b5f015f9054906101000a900473ffffffffffffffffffffffffffffffffffffffff16905090565b365f80375f80365f845af43d5f803e805f811461042d573d5ff35b3d5ffd5b6104396101ca565b73ffffffffffffffffffffffffffffffffffffffff163373ffffffffffffffffffffffffffffffffffffffff16146104a6576040517f21f353dc00000000000000000000000000000000000000000000000000000000815260040161049d90610a61565b60405180910390fd5b6104af816105eb565b50565b5f73ffffffffffffffffffffffffffffffffffffffff168273ffffffffffffffffffffffffffffffffffffffff1603610517576040517fae7c562200000000000000000000000000000000000000000000000000000000815260040160405180910390fd5b61052082610659565b5f815111156105e7575f808373ffffffffffffffffffffffffffffffffffffffff16836040516105509190610b5f565b5f60405180830381855af49150503d805f8114610588576040519150601f19603f3d011682016040523d82523d5f602084013e61058d565b606091505b50915091508373ffffffffffffffffffffffffffffffffffffffff167f20423e22d1f0b31668780a7b6e52a7ad77a44c7dd910f738df5e2d06244fb5598484846040516105dc93929190610bc7565b60405180910390a250505b5050565b806106177fb53127684a568b3173ae13b9f8a6016e243e63b6e8ee1178d6a717850b5d61035f1b6103b6565b5f015f6101000a81548173ffffffffffffffffffffffffffffffffffffffff021916908373ffffffffffffffffffffffffffffffffffffffff16021790555050565b806106857f360894a13ba1a3210667c828492db98dca3e2076cc3735a920a3ca505d382bbc5f1b6103b6565b5f015f6101000a81548173ffffffffffffffffffffffffffffffffffffffff021916908373ffffffffffffffffffffffffffffffffffffffff16021790555050565b5f82825260208201905092915050565b7f66616c6c6261636b3a2061646d696e2063616e206e6f742061636365737300005f82015250565b5f61070b601e836106c7565b9150610716826106d7565b602082019050919050565b5f6020820190508181035f830152610738816106ff565b9050919050565b5f82825260208201905092915050565b828183375f83830152505050565b5f601f19601f8301169050919050565b5f610778838561073f565b935061078583858461074f565b61078e8361075d565b840190509392505050565b5f6020820190508181035f8301526107b281848661076d565b90509392505050565b5f73ffffffffffffffffffffffffffffffffffffffff82169050919050565b5f6107e4826107bb565b9050919050565b6107f4816107da565b82525050565b5f60208201905061080d5f8301846107eb565b92915050565b5f604051905090565b5f80fd5b5f80fd5b61082d816107da565b8114610837575f80fd5b50565b5f8135905061084881610824565b92915050565b5f602082840312156108635761086261081c565b5b5f6108708482850161083a565b91505092915050565b5f80fd5b5f80fd5b7f4e487b71000000000000000000000000000000000000000000000000000000005f52604160045260245ffd5b6108b78261075d565b810181811067ffffffffffffffff821117156108d6576108d5610881565b5b80604052505050565b5f6108e8610813565b90506108f482826108ae565b919050565b5f67ffffffffffffffff82111561091357610912610881565b5b61091c8261075d565b9050602081019050919050565b5f61093b610936846108f9565b6108df565b9050828152602081018484840111156109575761095661087d565b5b61096284828561074f565b509392505050565b5f82601f83011261097e5761097d610879565b5b813561098e848260208601610929565b91505092915050565b5f80604083850312156109ad576109ac61081c565b5b5f6109ba8582860161083a565b925050602083013567ffffffffffffffff8111156109db576109da610820565b5b6109e78582860161096a565b9150509250929050565b7f4f6e6c792061646d696e2063616e2063616c6c20746869732066756e6374696f5f8201527f6e00000000000000000000000000000000000000000000000000000000000000602082015250565b5f610a4b6021836106c7565b9150610a56826109f1565b604082019050919050565b5f6020820190508181035f830152610a7881610a3f565b9050919050565b7f757067726164654c6f676963416464726573733a206f6e6c792061646d696e205f8201527f63616e20646f0000000000000000000000000000000000000000000000000000602082015250565b5f610ad96026836106c7565b9150610ae482610a7f565b604082019050919050565b5f6020820190508181035f830152610b0681610acd565b9050919050565b5f81519050919050565b5f81905092915050565b8281835e5f83830152505050565b5f610b3982610b0d565b610b438185610b17565b9350610b53818560208601610b21565b80840191505092915050565b5f610b6a8284610b2f565b915081905092915050565b5f610b7f82610b0d565b610b89818561073f565b9350610b99818560208601610b21565b610ba28161075d565b840191505092915050565b5f8115159050919050565b610bc181610bad565b82525050565b5f6060820190508181035f830152610bdf8186610b75565b9050610bee6020830185610bb8565b8181036040830152610c008184610b75565b905094935050505056fea2646970667358221220b873b39aeed74036ca486d267161390c2bffc07dc47eb1c0ef4b43fc7aa5ff8b64736f6c634300081a0033",
					"opcodes": "PUSH1 0x80 PUSH1 0x40 MSTORE CALLVALUE DUP1 ISZERO PUSH2 0xF JUMPI PUSH0 DUP1 REVERT JUMPDEST POP PUSH1 0x40 MLOAD PUSH2 0x11D6 CODESIZE SUB DUP1 PUSH2 0x11D6 DUP4 CODECOPY DUP2 DUP2 ADD PUSH1 0x40 MSTORE DUP2 ADD SWAP1 PUSH2 0x31 SWAP2 SWAP1 PUSH2 0x430 JUMP JUMPDEST CALLER PUSH2 0x41 DUP2 PUSH2 0x59 PUSH1 0x20 SHL PUSH1 0x20 SHR JUMP JUMPDEST POP PUSH2 0x52 DUP3 DUP3 PUSH2 0xCD PUSH1 0x20 SHL PUSH1 0x20 SHR JUMP JUMPDEST POP POP PUSH2 0x589 JUMP JUMPDEST DUP1 PUSH2 0x8B PUSH32 0xB53127684A568B3173AE13B9F8A6016E243E63B6E8EE1178D6A717850B5D6103 PUSH0 SHL PUSH2 0x20C PUSH1 0x20 SHL PUSH1 0x20 SHR JUMP JUMPDEST PUSH0 ADD PUSH0 PUSH2 0x100 EXP DUP2 SLOAD DUP2 PUSH20 0xFFFFFFFFFFFFFFFFFFFFFFFFFFFFFFFFFFFFFFFF MUL NOT AND SWAP1 DUP4 PUSH20 0xFFFFFFFFFFFFFFFFFFFFFFFFFFFFFFFFFFFFFFFF AND MUL OR SWAP1 SSTORE POP POP JUMP JUMPDEST PUSH0 PUSH20 0xFFFFFFFFFFFFFFFFFFFFFFFFFFFFFFFFFFFFFFFF AND DUP3 PUSH20 0xFFFFFFFFFFFFFFFFFFFFFFFFFFFFFFFFFFFFFFFF AND SUB PUSH2 0x132 JUMPI PUSH1 0x40 MLOAD PUSH32 0xAE7C562200000000000000000000000000000000000000000000000000000000 DUP2 MSTORE PUSH1 0x4 ADD PUSH1 0x40 MLOAD DUP1 SWAP2 SUB SWAP1 REVERT JUMPDEST PUSH2 0x141 DUP3 PUSH2 0x215 PUSH1 0x20 SHL PUSH1 0x20 SHR JUMP JUMPDEST PUSH0 DUP2 MLOAD GT ISZERO PUSH2 0x208 JUMPI PUSH0 DUP1 DUP4 PUSH20 0xFFFFFFFFFFFFFFFFFFFFFFFFFFFFFFFFFFFFFFFF AND DUP4 PUSH1 0x40 MLOAD PUSH2 0x171 SWAP2 SWAP1 PUSH2 0x4CE JUMP JUMPDEST PUSH0 PUSH1 0x40 MLOAD DUP1 DUP4 SUB DUP2 DUP6 GAS DELEGATECALL SWAP2 POP POP RETURNDATASIZE DUP1 PUSH0 DUP2 EQ PUSH2 0x1A9 JUMPI PUSH1 0x40 MLOAD SWAP2 POP PUSH1 0x1F NOT PUSH1 0x3F RETURNDATASIZE ADD AND DUP3 ADD PUSH1 0x40 MSTORE RETURNDATASIZE DUP3 MSTORE RETURNDATASIZE PUSH0 PUSH1 0x20 DUP5 ADD RETURNDATACOPY PUSH2 0x1AE JUMP JUMPDEST PUSH1 0x60 SWAP2 POP JUMPDEST POP SWAP2 POP SWAP2 POP DUP4 PUSH20 0xFFFFFFFFFFFFFFFFFFFFFFFFFFFFFFFFFFFFFFFF AND PUSH32 0x20423E22D1F0B31668780A7B6E52A7AD77A44C7DD910F738DF5E2D06244FB559 DUP5 DUP5 DUP5 PUSH1 0x40 MLOAD PUSH2 0x1FD SWAP4 SWAP3 SWAP2 SWAP1 PUSH2 0x546 JUMP JUMPDEST PUSH1 0x40 MLOAD DUP1 SWAP2 SUB SWAP1 LOG2 POP POP JUMPDEST POP POP JUMP JUMPDEST PUSH0 DUP2 SWAP1 POP SWAP2 SWAP1 POP JUMP JUMPDEST DUP1 PUSH2 0x247 PUSH32 0x360894A13BA1A3210667C828492DB98DCA3E2076CC3735A920A3CA505D382BBC PUSH0 SHL PUSH2 0x20C PUSH1 0x20 SHL PUSH1 0x20 SHR JUMP JUMPDEST PUSH0 ADD PUSH0 PUSH2 0x100 EXP DUP2 SLOAD DUP2 PUSH20 0xFFFFFFFFFFFFFFFFFFFFFFFFFFFFFFFFFFFFFFFF MUL NOT AND SWAP1 DUP4 PUSH20 0xFFFFFFFFFFFFFFFFFFFFFFFFFFFFFFFFFFFFFFFF AND MUL OR SWAP1 SSTORE POP POP JUMP JUMPDEST PUSH0 PUSH1 0x40 MLOAD SWAP1 POP SWAP1 JUMP JUMPDEST PUSH0 DUP1 REVERT JUMPDEST PUSH0 DUP1 REVERT JUMPDEST PUSH0 PUSH20 0xFFFFFFFFFFFFFFFFFFFFFFFFFFFFFFFFFFFFFFFF DUP3 AND SWAP1 POP SWAP2 SWAP1 POP JUMP JUMPDEST PUSH0 PUSH2 0x2C3 DUP3 PUSH2 0x29A JUMP JUMPDEST SWAP1 POP SWAP2 SWAP1 POP JUMP JUMPDEST PUSH2 0x2D3 DUP2 PUSH2 0x2B9 JUMP JUMPDEST DUP2 EQ PUSH2 0x2DD JUMPI PUSH0 DUP1 REVERT JUMPDEST POP JUMP JUMPDEST PUSH0 DUP2 MLOAD SWAP1 POP PUSH2 0x2EE DUP2 PUSH2 0x2CA JUMP JUMPDEST SWAP3 SWAP2 POP POP JUMP JUMPDEST PUSH0 DUP1 REVERT JUMPDEST PUSH0 DUP1 REVERT JUMPDEST PUSH0 PUSH1 0x1F NOT PUSH1 0x1F DUP4 ADD AND SWAP1 POP SWAP2 SWAP1 POP JUMP JUMPDEST PUSH32 0x4E487B7100000000000000000000000000000000000000000000000000000000 PUSH0 MSTORE PUSH1 0x41 PUSH1 0x4 MSTORE PUSH1 0x24 PUSH0 REVERT JUMPDEST PUSH2 0x342 DUP3 PUSH2 0x2FC JUMP JUMPDEST DUP2 ADD DUP2 DUP2 LT PUSH8 0xFFFFFFFFFFFFFFFF DUP3 GT OR ISZERO PUSH2 0x361 JUMPI PUSH2 0x360 PUSH2 0x30C JUMP JUMPDEST JUMPDEST DUP1 PUSH1 0x40 MSTORE POP POP POP JUMP JUMPDEST PUSH0 PUSH2 0x373 PUSH2 0x289 JUMP JUMPDEST SWAP1 POP PUSH2 0x37F DUP3 DUP3 PUSH2 0x339 JUMP JUMPDEST SWAP2 SWAP1 POP JUMP JUMPDEST PUSH0 PUSH8 0xFFFFFFFFFFFFFFFF DUP3 GT ISZERO PUSH2 0x39E JUMPI PUSH2 0x39D PUSH2 0x30C JUMP JUMPDEST JUMPDEST PUSH2 0x3A7 DUP3 PUSH2 0x2FC JUMP JUMPDEST SWAP1 POP PUSH1 0x20 DUP2 ADD SWAP1 POP SWAP2 SWAP1 POP JUMP JUMPDEST DUP3 DUP2 DUP4 MCOPY PUSH0 DUP4 DUP4 ADD MSTORE POP POP POP JUMP JUMPDEST PUSH0 PUSH2 0x3D4 PUSH2 0x3CF DUP5 PUSH2 0x384 JUMP JUMPDEST PUSH2 0x36A JUMP JUMPDEST SWAP1 POP DUP3 DUP2 MSTORE PUSH1 0x20 DUP2 ADD DUP5 DUP5 DUP5 ADD GT ISZERO PUSH2 0x3F0 JUMPI PUSH2 0x3EF PUSH2 0x2F8 JUMP JUMPDEST JUMPDEST PUSH2 0x3FB DUP5 DUP3 DUP6 PUSH2 0x3B4 JUMP JUMPDEST POP SWAP4 SWAP3 POP POP POP JUMP JUMPDEST PUSH0 DUP3 PUSH1 0x1F DUP4 ADD SLT PUSH2 0x417 JUMPI PUSH2 0x416 PUSH2 0x2F4 JUMP JUMPDEST JUMPDEST DUP2 MLOAD PUSH2 0x427 DUP5 DUP3 PUSH1 0x20 DUP7 ADD PUSH2 0x3C2 JUMP JUMPDEST SWAP2 POP POP SWAP3 SWAP2 POP POP JUMP JUMPDEST PUSH0 DUP1 PUSH1 0x40 DUP4 DUP6 SUB SLT ISZERO PUSH2 0x446 JUMPI PUSH2 0x445 PUSH2 0x292 JUMP JUMPDEST JUMPDEST PUSH0 PUSH2 0x453 DUP6 DUP3 DUP7 ADD PUSH2 0x2E0 JUMP JUMPDEST SWAP3 POP POP PUSH1 0x20 DUP4 ADD MLOAD PUSH8 0xFFFFFFFFFFFFFFFF DUP2 GT ISZERO PUSH2 0x474 JUMPI PUSH2 0x473 PUSH2 0x296 JUMP JUMPDEST JUMPDEST PUSH2 0x480 DUP6 DUP3 DUP7 ADD PUSH2 0x403 JUMP JUMPDEST SWAP2 POP POP SWAP3 POP SWAP3 SWAP1 POP JUMP JUMPDEST PUSH0 DUP2 MLOAD SWAP1 POP SWAP2 SWAP1 POP JUMP JUMPDEST PUSH0 DUP2 SWAP1 POP SWAP3 SWAP2 POP POP JUMP JUMPDEST PUSH0 PUSH2 0x4A8 DUP3 PUSH2 0x48A JUMP JUMPDEST PUSH2 0x4B2 DUP2 DUP6 PUSH2 0x494 JUMP JUMPDEST SWAP4 POP PUSH2 0x4C2 DUP2 DUP6 PUSH1 0x20 DUP7 ADD PUSH2 0x3B4 JUMP JUMPDEST DUP1 DUP5 ADD SWAP2 POP POP SWAP3 SWAP2 POP POP JUMP JUMPDEST PUSH0 PUSH2 0x4D9 DUP3 DUP5 PUSH2 0x49E JUMP JUMPDEST SWAP2 POP DUP2 SWAP1 POP SWAP3 SWAP2 POP POP JUMP JUMPDEST PUSH0 DUP3 DUP3 MSTORE PUSH1 0x20 DUP3 ADD SWAP1 POP SWAP3 SWAP2 POP POP JUMP JUMPDEST PUSH0 PUSH2 0x4FE DUP3 PUSH2 0x48A JUMP JUMPDEST PUSH2 0x508 DUP2 DUP6 PUSH2 0x4E4 JUMP JUMPDEST SWAP4 POP PUSH2 0x518 DUP2 DUP6 PUSH1 0x20 DUP7 ADD PUSH2 0x3B4 JUMP JUMPDEST PUSH2 0x521 DUP2 PUSH2 0x2FC JUMP JUMPDEST DUP5 ADD SWAP2 POP POP SWAP3 SWAP2 POP POP JUMP JUMPDEST PUSH0 DUP2 ISZERO ISZERO SWAP1 POP SWAP2 SWAP1 POP JUMP JUMPDEST PUSH2 0x540 DUP2 PUSH2 0x52C JUMP JUMPDEST DUP3 MSTORE POP POP JUMP JUMPDEST PUSH0 PUSH1 0x60 DUP3 ADD SWAP1 POP DUP2 DUP2 SUB PUSH0 DUP4 ADD MSTORE PUSH2 0x55E DUP2 DUP7 PUSH2 0x4F4 JUMP JUMPDEST SWAP1 POP PUSH2 0x56D PUSH1 0x20 DUP4 ADD DUP6 PUSH2 0x537 JUMP JUMPDEST DUP2 DUP2 SUB PUSH1 0x40 DUP4 ADD MSTORE PUSH2 0x57F DUP2 DUP5 PUSH2 0x4F4 JUMP JUMPDEST SWAP1 POP SWAP5 SWAP4 POP POP POP POP JUMP JUMPDEST PUSH2 0xC40 DUP1 PUSH2 0x596 PUSH0 CODECOPY PUSH0 RETURN INVALID PUSH1 0x80 PUSH1 0x40 MSTORE PUSH1 0x4 CALLDATASIZE LT PUSH2 0x37 JUMPI PUSH0 CALLDATALOAD PUSH1 0xE0 SHR DUP1 PUSH4 0x6E9960C3 EQ PUSH2 0x150 JUMPI DUP1 PUSH4 0x8F283970 EQ PUSH2 0x17A JUMPI DUP1 PUSH4 0x95FAE7AC EQ PUSH2 0x1A2 JUMPI PUSH2 0x3E JUMP JUMPDEST CALLDATASIZE PUSH2 0x3E JUMPI STOP JUMPDEST PUSH2 0x46 PUSH2 0x1CA JUMP JUMPDEST PUSH20 0xFFFFFFFFFFFFFFFFFFFFFFFFFFFFFFFFFFFFFFFF AND CALLER PUSH20 0xFFFFFFFFFFFFFFFFFFFFFFFFFFFFFFFFFFFFFFFF AND SUB PUSH2 0xB3 JUMPI PUSH1 0x40 MLOAD PUSH32 0x8C379A000000000000000000000000000000000000000000000000000000000 DUP2 MSTORE PUSH1 0x4 ADD PUSH2 0xAA SWAP1 PUSH2 0x721 JUMP JUMPDEST PUSH1 0x40 MLOAD DUP1 SWAP2 SUB SWAP1 REVERT JUMPDEST PUSH0 CALLDATALOAD PUSH32 0xFFFFFFFF00000000000000000000000000000000000000000000000000000000 AND PUSH28 0xFFFFFFFFFFFFFFFFFFFFFFFFFFFFFFFFFFFFFFFFFFFFFFFFFFFFFFFF NOT AND CALLER PUSH20 0xFFFFFFFFFFFFFFFFFFFFFFFFFFFFFFFFFFFFFFFF AND PUSH32 0xA2E94DC85C608109377F1D4E7FD45E8EED5FE3ACDAF32E2423EC8E069D40A07 PUSH0 CALLDATASIZE PUSH1 0x40 MLOAD PUSH2 0x13E SWAP3 SWAP2 SWAP1 PUSH2 0x799 JUMP JUMPDEST PUSH1 0x40 MLOAD DUP1 SWAP2 SUB SWAP1 LOG3 PUSH2 0x14E PUSH2 0x21D JUMP JUMPDEST STOP JUMPDEST CALLVALUE DUP1 ISZERO PUSH2 0x15B JUMPI PUSH0 DUP1 REVERT JUMPDEST POP PUSH2 0x164 PUSH2 0x22F JUMP JUMPDEST PUSH1 0x40 MLOAD PUSH2 0x171 SWAP2 SWAP1 PUSH2 0x7FA JUMP JUMPDEST PUSH1 0x40 MLOAD DUP1 SWAP2 SUB SWAP1 RETURN JUMPDEST CALLVALUE DUP1 ISZERO PUSH2 0x185 JUMPI PUSH0 DUP1 REVERT JUMPDEST POP PUSH2 0x1A0 PUSH1 0x4 DUP1 CALLDATASIZE SUB DUP2 ADD SWAP1 PUSH2 0x19B SWAP2 SWAP1 PUSH2 0x84E JUMP JUMPDEST PUSH2 0x23D JUMP JUMPDEST STOP JUMPDEST CALLVALUE DUP1 ISZERO PUSH2 0x1AD JUMPI PUSH0 DUP1 REVERT JUMPDEST POP PUSH2 0x1C8 PUSH1 0x4 DUP1 CALLDATASIZE SUB DUP2 ADD SWAP1 PUSH2 0x1C3 SWAP2 SWAP1 PUSH2 0x997 JUMP JUMPDEST PUSH2 0x2BE JUMP JUMPDEST STOP JUMPDEST PUSH0 PUSH2 0x1F6 PUSH32 0xB53127684A568B3173AE13B9F8A6016E243E63B6E8EE1178D6A717850B5D6103 PUSH0 SHL PUSH2 0x3B6 JUMP JUMPDEST PUSH0 ADD PUSH0 SWAP1 SLOAD SWAP1 PUSH2 0x100 EXP SWAP1 DIV PUSH20 0xFFFFFFFFFFFFFFFFFFFFFFFFFFFFFFFFFFFFFFFF AND SWAP1 POP SWAP1 JUMP JUMPDEST PUSH2 0x22D PUSH2 0x228 PUSH2 0x3BF JUMP JUMPDEST PUSH2 0x412 JUMP JUMPDEST JUMP JUMPDEST PUSH0 PUSH2 0x238 PUSH2 0x1CA JUMP JUMPDEST SWAP1 POP SWAP1 JUMP JUMPDEST PUSH2 0x245 PUSH2 0x1CA JUMP JUMPDEST PUSH20 0xFFFFFFFFFFFFFFFFFFFFFFFFFFFFFFFFFFFFFFFF AND CALLER PUSH20 0xFFFFFFFFFFFFFFFFFFFFFFFFFFFFFFFFFFFFFFFF AND EQ PUSH2 0x2B2 JUMPI PUSH1 0x40 MLOAD PUSH32 0x21F353DC00000000000000000000000000000000000000000000000000000000 DUP2 MSTORE PUSH1 0x4 ADD PUSH2 0x2A9 SWAP1 PUSH2 0xA61 JUMP JUMPDEST PUSH1 0x40 MLOAD DUP1 SWAP2 SUB SWAP1 REVERT JUMPDEST PUSH2 0x2BB DUP2 PUSH2 0x431 JUMP JUMPDEST POP JUMP JUMPDEST PUSH2 0x2C6 PUSH2 0x1CA JUMP JUMPDEST PUSH20 0xFFFFFFFFFFFFFFFFFFFFFFFFFFFFFFFFFFFFFFFF AND CALLER PUSH20 0xFFFFFFFFFFFFFFFFFFFFFFFFFFFFFFFFFFFFFFFF AND EQ PUSH2 0x333 JUMPI PUSH1 0x40 MLOAD PUSH32 0x21F353DC00000000000000000000000000000000000000000000000000000000 DUP2 MSTORE PUSH1 0x4 ADD PUSH2 0x32A SWAP1 PUSH2 0xA61 JUMP JUMPDEST PUSH1 0x40 MLOAD DUP1 SWAP2 SUB SWAP1 REVERT JUMPDEST PUSH2 0x33B PUSH2 0x1CA JUMP JUMPDEST PUSH20 0xFFFFFFFFFFFFFFFFFFFFFFFFFFFFFFFFFFFFFFFF AND CALLER PUSH20 0xFFFFFFFFFFFFFFFFFFFFFFFFFFFFFFFFFFFFFFFF AND EQ PUSH2 0x3A8 JUMPI PUSH1 0x40 MLOAD PUSH32 0x8C379A000000000000000000000000000000000000000000000000000000000 DUP2 MSTORE PUSH1 0x4 ADD PUSH2 0x39F SWAP1 PUSH2 0xAEF JUMP JUMPDEST PUSH1 0x40 MLOAD DUP1 SWAP2 SUB SWAP1 REVERT JUMPDEST PUSH2 0x3B2 DUP3 DUP3 PUSH2 0x4B2 JUMP JUMPDEST POP POP JUMP JUMPDEST PUSH0 DUP2 SWAP1 POP SWAP2 SWAP1 POP JUMP JUMPDEST PUSH0 PUSH2 0x3EB PUSH32 0x360894A13BA1A3210667C828492DB98DCA3E2076CC3735A920A3CA505D382BBC PUSH0 SHL PUSH2 0x3B6 JUMP JUMPDEST PUSH0 ADD PUSH0 SWAP1 SLOAD SWAP1 PUSH2 0x100 EXP SWAP1 DIV PUSH20 0xFFFFFFFFFFFFFFFFFFFFFFFFFFFFFFFFFFFFFFFF AND SWAP1 POP SWAP1 JUMP JUMPDEST CALLDATASIZE PUSH0 DUP1 CALLDATACOPY PUSH0 DUP1 CALLDATASIZE PUSH0 DUP5 GAS DELEGATECALL RETURNDATASIZE PUSH0 DUP1 RETURNDATACOPY DUP1 PUSH0 DUP2 EQ PUSH2 0x42D JUMPI RETURNDATASIZE PUSH0 RETURN JUMPDEST RETURNDATASIZE PUSH0 REVERT JUMPDEST PUSH2 0x439 PUSH2 0x1CA JUMP JUMPDEST PUSH20 0xFFFFFFFFFFFFFFFFFFFFFFFFFFFFFFFFFFFFFFFF AND CALLER PUSH20 0xFFFFFFFFFFFFFFFFFFFFFFFFFFFFFFFFFFFFFFFF AND EQ PUSH2 0x4A6 JUMPI PUSH1 0x40 MLOAD PUSH32 0x21F353DC00000000000000000000000000000000000000000000000000000000 DUP2 MSTORE PUSH1 0x4 ADD PUSH2 0x49D SWAP1 PUSH2 0xA61 JUMP JUMPDEST PUSH1 0x40 MLOAD DUP1 SWAP2 SUB SWAP1 REVERT JUMPDEST PUSH2 0x4AF DUP2 PUSH2 0x5EB JUMP JUMPDEST POP JUMP JUMPDEST PUSH0 PUSH20 0xFFFFFFFFFFFFFFFFFFFFFFFFFFFFFFFFFFFFFFFF AND DUP3 PUSH20 0xFFFFFFFFFFFFFFFFFFFFFFFFFFFFFFFFFFFFFFFF AND SUB PUSH2 0x517 JUMPI PUSH1 0x40 MLOAD PUSH32 0xAE7C562200000000000000000000000000000000000000000000000000000000 DUP2 MSTORE PUSH1 0x4 ADD PUSH1 0x40 MLOAD DUP1 SWAP2 SUB SWAP1 REVERT JUMPDEST PUSH2 0x520 DUP3 PUSH2 0x659 JUMP JUMPDEST PUSH0 DUP2 MLOAD GT ISZERO PUSH2 0x5E7 JUMPI PUSH0 DUP1 DUP4 PUSH20 0xFFFFFFFFFFFFFFFFFFFFFFFFFFFFFFFFFFFFFFFF AND DUP4 PUSH1 0x40 MLOAD PUSH2 0x550 SWAP2 SWAP1 PUSH2 0xB5F JUMP JUMPDEST PUSH0 PUSH1 0x40 MLOAD DUP1 DUP4 SUB DUP2 DUP6 GAS DELEGATECALL SWAP2 POP POP RETURNDATASIZE DUP1 PUSH0 DUP2 EQ PUSH2 0x588 JUMPI PUSH1 0x40 MLOAD SWAP2 POP PUSH1 0x1F NOT PUSH1 0x3F RETURNDATASIZE ADD AND DUP3 ADD PUSH1 0x40 MSTORE RETURNDATASIZE DUP3 MSTORE RETURNDATASIZE PUSH0 PUSH1 0x20 DUP5 ADD RETURNDATACOPY PUSH2 0x58D JUMP JUMPDEST PUSH1 0x60 SWAP2 POP JUMPDEST POP SWAP2 POP SWAP2 POP DUP4 PUSH20 0xFFFFFFFFFFFFFFFFFFFFFFFFFFFFFFFFFFFFFFFF AND PUSH32 0x20423E22D1F0B31668780A7B6E52A7AD77A44C7DD910F738DF5E2D06244FB559 DUP5 DUP5 DUP5 PUSH1 0x40 MLOAD PUSH2 0x5DC SWAP4 SWAP3 SWAP2 SWAP1 PUSH2 0xBC7 JUMP JUMPDEST PUSH1 0x40 MLOAD DUP1 SWAP2 SUB SWAP1 LOG2 POP POP JUMPDEST POP POP JUMP JUMPDEST DUP1 PUSH2 0x617 PUSH32 0xB53127684A568B3173AE13B9F8A6016E243E63B6E8EE1178D6A717850B5D6103 PUSH0 SHL PUSH2 0x3B6 JUMP JUMPDEST PUSH0 ADD PUSH0 PUSH2 0x100 EXP DUP2 SLOAD DUP2 PUSH20 0xFFFFFFFFFFFFFFFFFFFFFFFFFFFFFFFFFFFFFFFF MUL NOT AND SWAP1 DUP4 PUSH20 0xFFFFFFFFFFFFFFFFFFFFFFFFFFFFFFFFFFFFFFFF AND MUL OR SWAP1 SSTORE POP POP JUMP JUMPDEST DUP1 PUSH2 0x685 PUSH32 0x360894A13BA1A3210667C828492DB98DCA3E2076CC3735A920A3CA505D382BBC PUSH0 SHL PUSH2 0x3B6 JUMP JUMPDEST PUSH0 ADD PUSH0 PUSH2 0x100 EXP DUP2 SLOAD DUP2 PUSH20 0xFFFFFFFFFFFFFFFFFFFFFFFFFFFFFFFFFFFFFFFF MUL NOT AND SWAP1 DUP4 PUSH20 0xFFFFFFFFFFFFFFFFFFFFFFFFFFFFFFFFFFFFFFFF AND MUL OR SWAP1 SSTORE POP POP JUMP JUMPDEST PUSH0 DUP3 DUP3 MSTORE PUSH1 0x20 DUP3 ADD SWAP1 POP SWAP3 SWAP2 POP POP JUMP JUMPDEST PUSH32 0x66616C6C6261636B3A2061646D696E2063616E206E6F74206163636573730000 PUSH0 DUP3 ADD MSTORE POP JUMP JUMPDEST PUSH0 PUSH2 0x70B PUSH1 0x1E DUP4 PUSH2 0x6C7 JUMP JUMPDEST SWAP2 POP PUSH2 0x716 DUP3 PUSH2 0x6D7 JUMP JUMPDEST PUSH1 0x20 DUP3 ADD SWAP1 POP SWAP2 SWAP1 POP JUMP JUMPDEST PUSH0 PUSH1 0x20 DUP3 ADD SWAP1 POP DUP2 DUP2 SUB PUSH0 DUP4 ADD MSTORE PUSH2 0x738 DUP2 PUSH2 0x6FF JUMP JUMPDEST SWAP1 POP SWAP2 SWAP1 POP JUMP JUMPDEST PUSH0 DUP3 DUP3 MSTORE PUSH1 0x20 DUP3 ADD SWAP1 POP SWAP3 SWAP2 POP POP JUMP JUMPDEST DUP3 DUP2 DUP4 CALLDATACOPY PUSH0 DUP4 DUP4 ADD MSTORE POP POP POP JUMP JUMPDEST PUSH0 PUSH1 0x1F NOT PUSH1 0x1F DUP4 ADD AND SWAP1 POP SWAP2 SWAP1 POP JUMP JUMPDEST PUSH0 PUSH2 0x778 DUP4 DUP6 PUSH2 0x73F JUMP JUMPDEST SWAP4 POP PUSH2 0x785 DUP4 DUP6 DUP5 PUSH2 0x74F JUMP JUMPDEST PUSH2 0x78E DUP4 PUSH2 0x75D JUMP JUMPDEST DUP5 ADD SWAP1 POP SWAP4 SWAP3 POP POP POP JUMP JUMPDEST PUSH0 PUSH1 0x20 DUP3 ADD SWAP1 POP DUP2 DUP2 SUB PUSH0 DUP4 ADD MSTORE PUSH2 0x7B2 DUP2 DUP5 DUP7 PUSH2 0x76D JUMP JUMPDEST SWAP1 POP SWAP4 SWAP3 POP POP POP JUMP JUMPDEST PUSH0 PUSH20 0xFFFFFFFFFFFFFFFFFFFFFFFFFFFFFFFFFFFFFFFF DUP3 AND SWAP1 POP SWAP2 SWAP1 POP JUMP JUMPDEST PUSH0 PUSH2 0x7E4 DUP3 PUSH2 0x7BB JUMP JUMPDEST SWAP1 POP SWAP2 SWAP1 POP JUMP JUMPDEST PUSH2 0x7F4 DUP2 PUSH2 0x7DA JUMP JUMPDEST DUP3 MSTORE POP POP JUMP JUMPDEST PUSH0 PUSH1 0x20 DUP3 ADD SWAP1 POP PUSH2 0x80D PUSH0 DUP4 ADD DUP5 PUSH2 0x7EB JUMP JUMPDEST SWAP3 SWAP2 POP POP JUMP JUMPDEST PUSH0 PUSH1 0x40 MLOAD SWAP1 POP SWAP1 JUMP JUMPDEST PUSH0 DUP1 REVERT JUMPDEST PUSH0 DUP1 REVERT JUMPDEST PUSH2 0x82D DUP2 PUSH2 0x7DA JUMP JUMPDEST DUP2 EQ PUSH2 0x837 JUMPI PUSH0 DUP1 REVERT JUMPDEST POP JUMP JUMPDEST PUSH0 DUP2 CALLDATALOAD SWAP1 POP PUSH2 0x848 DUP2 PUSH2 0x824 JUMP JUMPDEST SWAP3 SWAP2 POP POP JUMP JUMPDEST PUSH0 PUSH1 0x20 DUP3 DUP5 SUB SLT ISZERO PUSH2 0x863 JUMPI PUSH2 0x862 PUSH2 0x81C JUMP JUMPDEST JUMPDEST PUSH0 PUSH2 0x870 DUP5 DUP3 DUP6 ADD PUSH2 0x83A JUMP JUMPDEST SWAP2 POP POP SWAP3 SWAP2 POP POP JUMP JUMPDEST PUSH0 DUP1 REVERT JUMPDEST PUSH0 DUP1 REVERT JUMPDEST PUSH32 0x4E487B7100000000000000000000000000000000000000000000000000000000 PUSH0 MSTORE PUSH1 0x41 PUSH1 0x4 MSTORE PUSH1 0x24 PUSH0 REVERT JUMPDEST PUSH2 0x8B7 DUP3 PUSH2 0x75D JUMP JUMPDEST DUP2 ADD DUP2 DUP2 LT PUSH8 0xFFFFFFFFFFFFFFFF DUP3 GT OR ISZERO PUSH2 0x8D6 JUMPI PUSH2 0x8D5 PUSH2 0x881 JUMP JUMPDEST JUMPDEST DUP1 PUSH1 0x40 MSTORE POP POP POP JUMP JUMPDEST PUSH0 PUSH2 0x8E8 PUSH2 0x813 JUMP JUMPDEST SWAP1 POP PUSH2 0x8F4 DUP3 DUP3 PUSH2 0x8AE JUMP JUMPDEST SWAP2 SWAP1 POP JUMP JUMPDEST PUSH0 PUSH8 0xFFFFFFFFFFFFFFFF DUP3 GT ISZERO PUSH2 0x913 JUMPI PUSH2 0x912 PUSH2 0x881 JUMP JUMPDEST JUMPDEST PUSH2 0x91C DUP3 PUSH2 0x75D JUMP JUMPDEST SWAP1 POP PUSH1 0x20 DUP2 ADD SWAP1 POP SWAP2 SWAP1 POP JUMP JUMPDEST PUSH0 PUSH2 0x93B PUSH2 0x936 DUP5 PUSH2 0x8F9 JUMP JUMPDEST PUSH2 0x8DF JUMP JUMPDEST SWAP1 POP DUP3 DUP2 MSTORE PUSH1 0x20 DUP2 ADD DUP5 DUP5 DUP5 ADD GT ISZERO PUSH2 0x957 JUMPI PUSH2 0x956 PUSH2 0x87D JUMP JUMPDEST JUMPDEST PUSH2 0x962 DUP5 DUP3 DUP6 PUSH2 0x74F JUMP JUMPDEST POP SWAP4 SWAP3 POP POP POP JUMP JUMPDEST PUSH0 DUP3 PUSH1 0x1F DUP4 ADD SLT PUSH2 0x97E JUMPI PUSH2 0x97D PUSH2 0x879 JUMP JUMPDEST JUMPDEST DUP2 CALLDATALOAD PUSH2 0x98E DUP5 DUP3 PUSH1 0x20 DUP7 ADD PUSH2 0x929 JUMP JUMPDEST SWAP2 POP POP SWAP3 SWAP2 POP POP JUMP JUMPDEST PUSH0 DUP1 PUSH1 0x40 DUP4 DUP6 SUB SLT ISZERO PUSH2 0x9AD JUMPI PUSH2 0x9AC PUSH2 0x81C JUMP JUMPDEST JUMPDEST PUSH0 PUSH2 0x9BA DUP6 DUP3 DUP7 ADD PUSH2 0x83A JUMP JUMPDEST SWAP3 POP POP PUSH1 0x20 DUP4 ADD CALLDATALOAD PUSH8 0xFFFFFFFFFFFFFFFF DUP2 GT ISZERO PUSH2 0x9DB JUMPI PUSH2 0x9DA PUSH2 0x820 JUMP JUMPDEST JUMPDEST PUSH2 0x9E7 DUP6 DUP3 DUP7 ADD PUSH2 0x96A JUMP JUMPDEST SWAP2 POP POP SWAP3 POP SWAP3 SWAP1 POP JUMP JUMPDEST PUSH32 0x4F6E6C792061646D696E2063616E2063616C6C20746869732066756E6374696F PUSH0 DUP3 ADD MSTORE PUSH32 0x6E00000000000000000000000000000000000000000000000000000000000000 PUSH1 0x20 DUP3 ADD MSTORE POP JUMP JUMPDEST PUSH0 PUSH2 0xA4B PUSH1 0x21 DUP4 PUSH2 0x6C7 JUMP JUMPDEST SWAP2 POP PUSH2 0xA56 DUP3 PUSH2 0x9F1 JUMP JUMPDEST PUSH1 0x40 DUP3 ADD SWAP1 POP SWAP2 SWAP1 POP JUMP JUMPDEST PUSH0 PUSH1 0x20 DUP3 ADD SWAP1 POP DUP2 DUP2 SUB PUSH0 DUP4 ADD MSTORE PUSH2 0xA78 DUP2 PUSH2 0xA3F JUMP JUMPDEST SWAP1 POP SWAP2 SWAP1 POP JUMP JUMPDEST PUSH32 0x757067726164654C6F676963416464726573733A206F6E6C792061646D696E20 PUSH0 DUP3 ADD MSTORE PUSH32 0x63616E20646F0000000000000000000000000000000000000000000000000000 PUSH1 0x20 DUP3 ADD MSTORE POP JUMP JUMPDEST PUSH0 PUSH2 0xAD9 PUSH1 0x26 DUP4 PUSH2 0x6C7 JUMP JUMPDEST SWAP2 POP PUSH2 0xAE4 DUP3 PUSH2 0xA7F JUMP JUMPDEST PUSH1 0x40 DUP3 ADD SWAP1 POP SWAP2 SWAP1 POP JUMP JUMPDEST PUSH0 PUSH1 0x20 DUP3 ADD SWAP1 POP DUP2 DUP2 SUB PUSH0 DUP4 ADD MSTORE PUSH2 0xB06 DUP2 PUSH2 0xACD JUMP JUMPDEST SWAP1 POP SWAP2 SWAP1 POP JUMP JUMPDEST PUSH0 DUP2 MLOAD SWAP1 POP SWAP2 SWAP1 POP JUMP JUMPDEST PUSH0 DUP2 SWAP1 POP SWAP3 SWAP2 POP POP JUMP JUMPDEST DUP3 DUP2 DUP4 MCOPY PUSH0 DUP4 DUP4 ADD MSTORE POP POP POP JUMP JUMPDEST PUSH0 PUSH2 0xB39 DUP3 PUSH2 0xB0D JUMP JUMPDEST PUSH2 0xB43 DUP2 DUP6 PUSH2 0xB17 JUMP JUMPDEST SWAP4 POP PUSH2 0xB53 DUP2 DUP6 PUSH1 0x20 DUP7 ADD PUSH2 0xB21 JUMP JUMPDEST DUP1 DUP5 ADD SWAP2 POP POP SWAP3 SWAP2 POP POP JUMP JUMPDEST PUSH0 PUSH2 0xB6A DUP3 DUP5 PUSH2 0xB2F JUMP JUMPDEST SWAP2 POP DUP2 SWAP1 POP SWAP3 SWAP2 POP POP JUMP JUMPDEST PUSH0 PUSH2 0xB7F DUP3 PUSH2 0xB0D JUMP JUMPDEST PUSH2 0xB89 DUP2 DUP6 PUSH2 0x73F JUMP JUMPDEST SWAP4 POP PUSH2 0xB99 DUP2 DUP6 PUSH1 0x20 DUP7 ADD PUSH2 0xB21 JUMP JUMPDEST PUSH2 0xBA2 DUP2 PUSH2 0x75D JUMP JUMPDEST DUP5 ADD SWAP2 POP POP SWAP3 SWAP2 POP POP JUMP JUMPDEST PUSH0 DUP2 ISZERO ISZERO SWAP1 POP SWAP2 SWAP1 POP JUMP JUMPDEST PUSH2 0xBC1 DUP2 PUSH2 0xBAD JUMP JUMPDEST DUP3 MSTORE POP POP JUMP JUMPDEST PUSH0 PUSH1 0x60 DUP3 ADD SWAP1 POP DUP2 DUP2 SUB PUSH0 DUP4 ADD MSTORE PUSH2 0xBDF DUP2 DUP7 PUSH2 0xB75 JUMP JUMPDEST SWAP1 POP PUSH2 0xBEE PUSH1 0x20 DUP4 ADD DUP6 PUSH2 0xBB8 JUMP JUMPDEST DUP2 DUP2 SUB PUSH1 0x40 DUP4 ADD MSTORE PUSH2 0xC00 DUP2 DUP5 PUSH2 0xB75 JUMP JUMPDEST SWAP1 POP SWAP5 SWAP4 POP POP POP POP JUMP INVALID LOG2 PUSH5 0x6970667358 0x22 SLT KECCAK256 0xB8 PUSH20 0xB39AEED74036CA486D267161390C2BFFC07DC47E 0xB1 0xC0 0xEF 0x4B NUMBER 0xFC PUSH27 0xA5FF8B64736F6C634300081A003300000000000000000000000000 "
				},
				"gasEstimates": {
					"creation": {
						"codeDepositCost": "627200",
						"executionCost": "infinite",
						"totalCost": "infinite"
					},
					"external": {
						"": "infinite",
						"changeAdmin(address)": "infinite",
						"getAdmin()": "2579",
						"upgradeLogicAddress(address,bytes)": "infinite"
					},
					"internal": {
						"_upgradeAndCall(address,bytes memory)": "infinite"
					}
				},
				"methodIdentifiers": {
					"changeAdmin(address)": "8f283970",
					"getAdmin()": "6e9960c3",
					"upgradeLogicAddress(address,bytes)": "95fae7ac"
				}
			},
			"storageLayout": {
				"storage": [],
				"types": null
			},
			"userdoc": {
				"kind": "user",
				"methods": {},
				"version": 1
			}
		}
	}
}