{
	"data": {
		"bytecode": {
			"linkReferences": {},
			"object": "6080604052348015600e575f80fd5b50610abc8061001c5f395ff3fe608060405234801561000f575f80fd5b506004361061009c575f3560e01c806394fb5fa01161006457806394fb5fa014610144578063c50115f914610160578063dd7af8b014610190578063e91e0ef3146101c0578063f5f6f027146101ca5761009c565b80631439c35b146100a05780638146911d146100bc57806382f76880146100da578063919840ad1461010a57806393eeeb4114610128575b5f80fd5b6100ba60048036038101906100b591906108cc565b6101e6565b005b6100c4610200565b6040516100d19190610919565b60405180910390f35b6100f460048036038101906100ef9190610932565b61021a565b6040516101019190610919565b60405180910390f35b610112610236565b60405161011f91906109cd565b60405180910390f35b610142600480360381019061013d91906109ed565b6102db565b005b61015e600480360381019061015991906108cc565b6102f4565b005b61017a60048036038101906101759190610932565b61030e565b6040516101879190610919565b60405180910390f35b6101aa60048036038101906101a59190610932565b61032a565b6040516101b79190610919565b60405180910390f35b6101c8610346565b005b6101e460048036038101906101df91906108cc565b61035b565b005b6101fc828260036103759092919063ffffffff16565b5050565b5f61021533600161038790919063ffffffff16565b905090565b5f61022f8260026103a490919063ffffffff16565b9050919050565b606061024b335f6103b990919063ffffffff16565b61029f576040518060400160405280601981526020017f77656c636f6d652c206e69636520746f206d65657420796f7500000000000000815250905061029a335f6103d690919063ffffffff16565b6102d8565b6040518060400160405280600e81526020017f68692c206d792062726f7468657200000000000000000000000000000000000081525090505b90565b6102f1338260016103ee9092919063ffffffff16565b50565b61030a828260046104089092919063ffffffff16565b5050565b5f61032382600461041a90919063ffffffff16565b9050919050565b5f61033f82600361042f90919063ffffffff16565b9050919050565b610359335f61044490919063ffffffff16565b565b6103718282600261045c9092919063ffffffff16565b5050565b610382835f01838361046e565b505050565b5f61039c835f0161039784610508565b610527565b905092915050565b5f6103b1835f0183610527565b905092915050565b5f6103ce835f016103c984610560565b61057f565b905092915050565b6103ea825f016103e583610560565b6105b1565b5050565b610403835f016103fd84610508565b836105e5565b505050565b610415835f01838361067f565b505050565b5f610427835f0183610719565b905092915050565b5f61043c835f0183610752565b905092915050565b610458825f0161045383610560565b61078b565b5050565b610469835f0183836105e5565b505050565b600f8160ff1611156104b757806040517f82b0e9dc0000000000000000000000000000000000000000000000000000000081526004016104ae9190610919565b60405180910390fd5b5f805f6104c3856107c0565b9250925092508060ff168460ff16901b8219875f015f8681526020019081526020015f20541617865f015f8581526020019081526020015f2081905550505050505050565b5f8173ffffffffffffffffffffffffffffffffffffffff169050919050565b5f805f80610534856107ed565b9250925092508060ff1682875f015f8681526020019081526020015f205416901c935050505092915050565b5f8173ffffffffffffffffffffffffffffffffffffffff169050919050565b5f805f61058b8461081a565b915091505f81865f015f8581526020019081526020015f20541614159250505092915050565b5f806105bc8361081a565b9150915080845f015f8481526020019081526020015f205f828254179250508190555050505050565b60038160ff16111561062e57806040517f9a0c55180000000000000000000000000000000000000000000000000000000081526004016106259190610919565b60405180910390fd5b5f805f61063a856107ed565b9250925092508060ff168460ff16901b8219875f015f8681526020019081526020015f20541617865f015f8581526020019081526020015f2081905550505050505050565b60ff8160ff1611156106c857806040517fae2787310000000000000000000000000000000000000000000000000000000081526004016106bf9190610919565b60405180910390fd5b5f805f6106d485610832565b9250925092508060ff168460ff16901b8219875f015f8681526020019081526020015f20541617865f015f8581526020019081526020015f2081905550505050505050565b5f805f8061072685610832565b9250925092508060ff1682875f015f8681526020019081526020015f205416901c935050505092915050565b5f805f8061075f856107c0565b9250925092508060ff1682875f015f8681526020019081526020015f205416901c935050505092915050565b5f806107968361081a565b915091508019845f015f8481526020019081526020015f205f828254169250508190555050505050565b5f805f600684901c9250603f841660046107da9190610a45565b90508060ff16600f901b91509193909250565b5f805f600784901c9250607f841660026108079190610a45565b90508060ff166003901b91509193909250565b5f80600883901c915060ff83166001901b9050915091565b5f805f600584901c9250601f8416600861084c9190610a45565b90508060ff1660ff901b91509193909250565b5f80fd5b5f819050919050565b61087581610863565b811461087f575f80fd5b50565b5f813590506108908161086c565b92915050565b5f60ff82169050919050565b6108ab81610896565b81146108b5575f80fd5b50565b5f813590506108c6816108a2565b92915050565b5f80604083850312156108e2576108e161085f565b5b5f6108ef85828601610882565b9250506020610900858286016108b8565b9150509250929050565b61091381610896565b82525050565b5f60208201905061092c5f83018461090a565b92915050565b5f602082840312156109475761094661085f565b5b5f61095484828501610882565b91505092915050565b5f81519050919050565b5f82825260208201905092915050565b8281835e5f83830152505050565b5f601f19601f8301169050919050565b5f61099f8261095d565b6109a98185610967565b93506109b9818560208601610977565b6109c281610985565b840191505092915050565b5f6020820190508181035f8301526109e58184610995565b905092915050565b5f60208284031215610a0257610a0161085f565b5b5f610a0f848285016108b8565b91505092915050565b7f4e487b71000000000000000000000000000000000000000000000000000000005f52601160045260245ffd5b5f610a4f82610863565b9150610a5a83610863565b9250828202610a6881610863565b91508282048414831517610a7f57610a7e610a18565b5b509291505056fea2646970667358221220f72ce5aa36ac0ccdf31232fac3c6206c06339baf62fae8e128f51e5d7a2fe22d64736f6c634300081a0033",
			"opcodes": "PUSH1 0x80 PUSH1 0x40 MSTORE CALLVALUE DUP1 ISZERO PUSH1 0xE JUMPI PUSH0 DUP1 REVERT JUMPDEST POP PUSH2 0xABC DUP1 PUSH2 0x1C PUSH0 CODECOPY PUSH0 RETURN INVALID PUSH1 0x80 PUSH1 0x40 MSTORE CALLVALUE DUP1 ISZERO PUSH2 0xF JUMPI PUSH0 DUP1 REVERT JUMPDEST POP PUSH1 0x4 CALLDATASIZE LT PUSH2 0x9C JUMPI PUSH0 CALLDATALOAD PUSH1 0xE0 SHR DUP1 PUSH4 0x94FB5FA0 GT PUSH2 0x64 JUMPI DUP1 PUSH4 0x94FB5FA0 EQ PUSH2 0x144 JUMPI DUP1 PUSH4 0xC50115F9 EQ PUSH2 0x160 JUMPI DUP1 PUSH4 0xDD7AF8B0 EQ PUSH2 0x190 JUMPI DUP1 PUSH4 0xE91E0EF3 EQ PUSH2 0x1C0 JUMPI DUP1 PUSH4 0xF5F6F027 EQ PUSH2 0x1CA JUMPI PUSH2 0x9C JUMP JUMPDEST DUP1 PUSH4 0x1439C35B EQ PUSH2 0xA0 JUMPI DUP1 PUSH4 0x8146911D EQ PUSH2 0xBC JUMPI DUP1 PUSH4 0x82F76880 EQ PUSH2 0xDA JUMPI DUP1 PUSH4 0x919840AD EQ PUSH2 0x10A JUMPI DUP1 PUSH4 0x93EEEB41 EQ PUSH2 0x128 JUMPI JUMPDEST PUSH0 DUP1 REVERT JUMPDEST PUSH2 0xBA PUSH1 0x4 DUP1 CALLDATASIZE SUB DUP2 ADD SWAP1 PUSH2 0xB5 SWAP2 SWAP1 PUSH2 0x8CC JUMP JUMPDEST PUSH2 0x1E6 JUMP JUMPDEST STOP JUMPDEST PUSH2 0xC4 PUSH2 0x200 JUMP JUMPDEST PUSH1 0x40 MLOAD PUSH2 0xD1 SWAP2 SWAP1 PUSH2 0x919 JUMP JUMPDEST PUSH1 0x40 MLOAD DUP1 SWAP2 SUB SWAP1 RETURN JUMPDEST PUSH2 0xF4 PUSH1 0x4 DUP1 CALLDATASIZE SUB DUP2 ADD SWAP1 PUSH2 0xEF SWAP2 SWAP1 PUSH2 0x932 JUMP JUMPDEST PUSH2 0x21A JUMP JUMPDEST PUSH1 0x40 MLOAD PUSH2 0x101 SWAP2 SWAP1 PUSH2 0x919 JUMP JUMPDEST PUSH1 0x40 MLOAD DUP1 SWAP2 SUB SWAP1 RETURN JUMPDEST PUSH2 0x112 PUSH2 0x236 JUMP JUMPDEST PUSH1 0x40 MLOAD PUSH2 0x11F SWAP2 SWAP1 PUSH2 0x9CD JUMP JUMPDEST PUSH1 0x40 MLOAD DUP1 SWAP2 SUB SWAP1 RETURN JUMPDEST PUSH2 0x142 PUSH1 0x4 DUP1 CALLDATASIZE SUB DUP2 ADD SWAP1 PUSH2 0x13D SWAP2 SWAP1 PUSH2 0x9ED JUMP JUMPDEST PUSH2 0x2DB JUMP JUMPDEST STOP JUMPDEST PUSH2 0x15E PUSH1 0x4 DUP1 CALLDATASIZE SUB DUP2 ADD SWAP1 PUSH2 0x159 SWAP2 SWAP1 PUSH2 0x8CC JUMP JUMPDEST PUSH2 0x2F4 JUMP JUMPDEST STOP JUMPDEST PUSH2 0x17A PUSH1 0x4 DUP1 CALLDATASIZE SUB DUP2 ADD SWAP1 PUSH2 0x175 SWAP2 SWAP1 PUSH2 0x932 JUMP JUMPDEST PUSH2 0x30E JUMP JUMPDEST PUSH1 0x40 MLOAD PUSH2 0x187 SWAP2 SWAP1 PUSH2 0x919 JUMP JUMPDEST PUSH1 0x40 MLOAD DUP1 SWAP2 SUB SWAP1 RETURN JUMPDEST PUSH2 0x1AA PUSH1 0x4 DUP1 CALLDATASIZE SUB DUP2 ADD SWAP1 PUSH2 0x1A5 SWAP2 SWAP1 PUSH2 0x932 JUMP JUMPDEST PUSH2 0x32A JUMP JUMPDEST PUSH1 0x40 MLOAD PUSH2 0x1B7 SWAP2 SWAP1 PUSH2 0x919 JUMP JUMPDEST PUSH1 0x40 MLOAD DUP1 SWAP2 SUB SWAP1 RETURN JUMPDEST PUSH2 0x1C8 PUSH2 0x346 JUMP JUMPDEST STOP JUMPDEST PUSH2 0x1E4 PUSH1 0x4 DUP1 CALLDATASIZE SUB DUP2 ADD SWAP1 PUSH2 0x1DF SWAP2 SWAP1 PUSH2 0x8CC JUMP JUMPDEST PUSH2 0x35B JUMP JUMPDEST STOP JUMPDEST PUSH2 0x1FC DUP3 DUP3 PUSH1 0x3 PUSH2 0x375 SWAP1 SWAP3 SWAP2 SWAP1 PUSH4 0xFFFFFFFF AND JUMP JUMPDEST POP POP JUMP JUMPDEST PUSH0 PUSH2 0x215 CALLER PUSH1 0x1 PUSH2 0x387 SWAP1 SWAP2 SWAP1 PUSH4 0xFFFFFFFF AND JUMP JUMPDEST SWAP1 POP SWAP1 JUMP JUMPDEST PUSH0 PUSH2 0x22F DUP3 PUSH1 0x2 PUSH2 0x3A4 SWAP1 SWAP2 SWAP1 PUSH4 0xFFFFFFFF AND JUMP JUMPDEST SWAP1 POP SWAP2 SWAP1 POP JUMP JUMPDEST PUSH1 0x60 PUSH2 0x24B CALLER PUSH0 PUSH2 0x3B9 SWAP1 SWAP2 SWAP1 PUSH4 0xFFFFFFFF AND JUMP JUMPDEST PUSH2 0x29F JUMPI PUSH1 0x40 MLOAD DUP1 PUSH1 0x40 ADD PUSH1 0x40 MSTORE DUP1 PUSH1 0x19 DUP2 MSTORE PUSH1 0x20 ADD PUSH32 0x77656C636F6D652C206E69636520746F206D65657420796F7500000000000000 DUP2 MSTORE POP SWAP1 POP PUSH2 0x29A CALLER PUSH0 PUSH2 0x3D6 SWAP1 SWAP2 SWAP1 PUSH4 0xFFFFFFFF AND JUMP JUMPDEST PUSH2 0x2D8 JUMP JUMPDEST PUSH1 0x40 MLOAD DUP1 PUSH1 0x40 ADD PUSH1 0x40 MSTORE DUP1 PUSH1 0xE DUP2 MSTORE PUSH1 0x20 ADD PUSH32 0x68692C206D792062726F74686572000000000000000000000000000000000000 DUP2 MSTORE POP SWAP1 POP JUMPDEST SWAP1 JUMP JUMPDEST PUSH2 0x2F1 CALLER DUP3 PUSH1 0x1 PUSH2 0x3EE SWAP1 SWAP3 SWAP2 SWAP1 PUSH4 0xFFFFFFFF AND JUMP JUMPDEST POP JUMP JUMPDEST PUSH2 0x30A DUP3 DUP3 PUSH1 0x4 PUSH2 0x408 SWAP1 SWAP3 SWAP2 SWAP1 PUSH4 0xFFFFFFFF AND JUMP JUMPDEST POP POP JUMP JUMPDEST PUSH0 PUSH2 0x323 DUP3 PUSH1 0x4 PUSH2 0x41A SWAP1 SWAP2 SWAP1 PUSH4 0xFFFFFFFF AND JUMP JUMPDEST SWAP1 POP SWAP2 SWAP1 POP JUMP JUMPDEST PUSH0 PUSH2 0x33F DUP3 PUSH1 0x3 PUSH2 0x42F SWAP1 SWAP2 SWAP1 PUSH4 0xFFFFFFFF AND JUMP JUMPDEST SWAP1 POP SWAP2 SWAP1 POP JUMP JUMPDEST PUSH2 0x359 CALLER PUSH0 PUSH2 0x444 SWAP1 SWAP2 SWAP1 PUSH4 0xFFFFFFFF AND JUMP JUMPDEST JUMP JUMPDEST PUSH2 0x371 DUP3 DUP3 PUSH1 0x2 PUSH2 0x45C SWAP1 SWAP3 SWAP2 SWAP1 PUSH4 0xFFFFFFFF AND JUMP JUMPDEST POP POP JUMP JUMPDEST PUSH2 0x382 DUP4 PUSH0 ADD DUP4 DUP4 PUSH2 0x46E JUMP JUMPDEST POP POP POP JUMP JUMPDEST PUSH0 PUSH2 0x39C DUP4 PUSH0 ADD PUSH2 0x397 DUP5 PUSH2 0x508 JUMP JUMPDEST PUSH2 0x527 JUMP JUMPDEST SWAP1 POP SWAP3 SWAP2 POP POP JUMP JUMPDEST PUSH0 PUSH2 0x3B1 DUP4 PUSH0 ADD DUP4 PUSH2 0x527 JUMP JUMPDEST SWAP1 POP SWAP3 SWAP2 POP POP JUMP JUMPDEST PUSH0 PUSH2 0x3CE DUP4 PUSH0 ADD PUSH2 0x3C9 DUP5 PUSH2 0x560 JUMP JUMPDEST PUSH2 0x57F JUMP JUMPDEST SWAP1 POP SWAP3 SWAP2 POP POP JUMP JUMPDEST PUSH2 0x3EA DUP3 PUSH0 ADD PUSH2 0x3E5 DUP4 PUSH2 0x560 JUMP JUMPDEST PUSH2 0x5B1 JUMP JUMPDEST POP POP JUMP JUMPDEST PUSH2 0x403 DUP4 PUSH0 ADD PUSH2 0x3FD DUP5 PUSH2 0x508 JUMP JUMPDEST DUP4 PUSH2 0x5E5 JUMP JUMPDEST POP POP POP JUMP JUMPDEST PUSH2 0x415 DUP4 PUSH0 ADD DUP4 DUP4 PUSH2 0x67F JUMP JUMPDEST POP POP POP JUMP JUMPDEST PUSH0 PUSH2 0x427 DUP4 PUSH0 ADD DUP4 PUSH2 0x719 JUMP JUMPDEST SWAP1 POP SWAP3 SWAP2 POP POP JUMP JUMPDEST PUSH0 PUSH2 0x43C DUP4 PUSH0 ADD DUP4 PUSH2 0x752 JUMP JUMPDEST SWAP1 POP SWAP3 SWAP2 POP POP JUMP JUMPDEST PUSH2 0x458 DUP3 PUSH0 ADD PUSH2 0x453 DUP4 PUSH2 0x560 JUMP JUMPDEST PUSH2 0x78B JUMP JUMPDEST POP POP JUMP JUMPDEST PUSH2 0x469 DUP4 PUSH0 ADD DUP4 DUP4 PUSH2 0x5E5 JUMP JUMPDEST POP POP POP JUMP JUMPDEST PUSH1 0xF DUP2 PUSH1 0xFF AND GT ISZERO PUSH2 0x4B7 JUMPI DUP1 PUSH1 0x40 MLOAD PUSH32 0x82B0E9DC00000000000000000000000000000000000000000000000000000000 DUP2 MSTORE PUSH1 0x4 ADD PUSH2 0x4AE SWAP2 SWAP1 PUSH2 0x919 JUMP JUMPDEST PUSH1 0x40 MLOAD DUP1 SWAP2 SUB SWAP1 REVERT JUMPDEST PUSH0 DUP1 PUSH0 PUSH2 0x4C3 DUP6 PUSH2 0x7C0 JUMP JUMPDEST SWAP3 POP SWAP3 POP SWAP3 POP DUP1 PUSH1 0xFF AND DUP5 PUSH1 0xFF AND SWAP1 SHL DUP3 NOT DUP8 PUSH0 ADD PUSH0 DUP7 DUP2 MSTORE PUSH1 0x20 ADD SWAP1 DUP2 MSTORE PUSH1 0x20 ADD PUSH0 KECCAK256 SLOAD AND OR DUP7 PUSH0 ADD PUSH0 DUP6 DUP2 MSTORE PUSH1 0x20 ADD SWAP1 DUP2 MSTORE PUSH1 0x20 ADD PUSH0 KECCAK256 DUP2 SWAP1 SSTORE POP POP POP POP POP POP POP JUMP JUMPDEST PUSH0 DUP2 PUSH20 0xFFFFFFFFFFFFFFFFFFFFFFFFFFFFFFFFFFFFFFFF AND SWAP1 POP SWAP2 SWAP1 POP JUMP JUMPDEST PUSH0 DUP1 PUSH0 DUP1 PUSH2 0x534 DUP6 PUSH2 0x7ED JUMP JUMPDEST SWAP3 POP SWAP3 POP SWAP3 POP DUP1 PUSH1 0xFF AND DUP3 DUP8 PUSH0 ADD PUSH0 DUP7 DUP2 MSTORE PUSH1 0x20 ADD SWAP1 DUP2 MSTORE PUSH1 0x20 ADD PUSH0 KECCAK256 SLOAD AND SWAP1 SHR SWAP4 POP POP POP POP SWAP3 SWAP2 POP POP JUMP JUMPDEST PUSH0 DUP2 PUSH20 0xFFFFFFFFFFFFFFFFFFFFFFFFFFFFFFFFFFFFFFFF AND SWAP1 POP SWAP2 SWAP1 POP JUMP JUMPDEST PUSH0 DUP1 PUSH0 PUSH2 0x58B DUP5 PUSH2 0x81A JUMP JUMPDEST SWAP2 POP SWAP2 POP PUSH0 DUP2 DUP7 PUSH0 ADD PUSH0 DUP6 DUP2 MSTORE PUSH1 0x20 ADD SWAP1 DUP2 MSTORE PUSH1 0x20 ADD PUSH0 KECCAK256 SLOAD AND EQ ISZERO SWAP3 POP POP POP SWAP3 SWAP2 POP POP JUMP JUMPDEST PUSH0 DUP1 PUSH2 0x5BC DUP4 PUSH2 0x81A JUMP JUMPDEST SWAP2 POP SWAP2 POP DUP1 DUP5 PUSH0 ADD PUSH0 DUP5 DUP2 MSTORE PUSH1 0x20 ADD SWAP1 DUP2 MSTORE PUSH1 0x20 ADD PUSH0 KECCAK256 PUSH0 DUP3 DUP3 SLOAD OR SWAP3 POP POP DUP2 SWAP1 SSTORE POP POP POP POP POP JUMP JUMPDEST PUSH1 0x3 DUP2 PUSH1 0xFF AND GT ISZERO PUSH2 0x62E JUMPI DUP1 PUSH1 0x40 MLOAD PUSH32 0x9A0C551800000000000000000000000000000000000000000000000000000000 DUP2 MSTORE PUSH1 0x4 ADD PUSH2 0x625 SWAP2 SWAP1 PUSH2 0x919 JUMP JUMPDEST PUSH1 0x40 MLOAD DUP1 SWAP2 SUB SWAP1 REVERT JUMPDEST PUSH0 DUP1 PUSH0 PUSH2 0x63A DUP6 PUSH2 0x7ED JUMP JUMPDEST SWAP3 POP SWAP3 POP SWAP3 POP DUP1 PUSH1 0xFF AND DUP5 PUSH1 0xFF AND SWAP1 SHL DUP3 NOT DUP8 PUSH0 ADD PUSH0 DUP7 DUP2 MSTORE PUSH1 0x20 ADD SWAP1 DUP2 MSTORE PUSH1 0x20 ADD PUSH0 KECCAK256 SLOAD AND OR DUP7 PUSH0 ADD PUSH0 DUP6 DUP2 MSTORE PUSH1 0x20 ADD SWAP1 DUP2 MSTORE PUSH1 0x20 ADD PUSH0 KECCAK256 DUP2 SWAP1 SSTORE POP POP POP POP POP POP POP JUMP JUMPDEST PUSH1 0xFF DUP2 PUSH1 0xFF AND GT ISZERO PUSH2 0x6C8 JUMPI DUP1 PUSH1 0x40 MLOAD PUSH32 0xAE27873100000000000000000000000000000000000000000000000000000000 DUP2 MSTORE PUSH1 0x4 ADD PUSH2 0x6BF SWAP2 SWAP1 PUSH2 0x919 JUMP JUMPDEST PUSH1 0x40 MLOAD DUP1 SWAP2 SUB SWAP1 REVERT JUMPDEST PUSH0 DUP1 PUSH0 PUSH2 0x6D4 DUP6 PUSH2 0x832 JUMP JUMPDEST SWAP3 POP SWAP3 POP SWAP3 POP DUP1 PUSH1 0xFF AND DUP5 PUSH1 0xFF AND SWAP1 SHL DUP3 NOT DUP8 PUSH0 ADD PUSH0 DUP7 DUP2 MSTORE PUSH1 0x20 ADD SWAP1 DUP2 MSTORE PUSH1 0x20 ADD PUSH0 KECCAK256 SLOAD AND OR DUP7 PUSH0 ADD PUSH0 DUP6 DUP2 MSTORE PUSH1 0x20 ADD SWAP1 DUP2 MSTORE PUSH1 0x20 ADD PUSH0 KECCAK256 DUP2 SWAP1 SSTORE POP POP POP POP POP POP POP JUMP JUMPDEST PUSH0 DUP1 PUSH0 DUP1 PUSH2 0x726 DUP6 PUSH2 0x832 JUMP JUMPDEST SWAP3 POP SWAP3 POP SWAP3 POP DUP1 PUSH1 0xFF AND DUP3 DUP8 PUSH0 ADD PUSH0 DUP7 DUP2 MSTORE PUSH1 0x20 ADD SWAP1 DUP2 MSTORE PUSH1 0x20 ADD PUSH0 KECCAK256 SLOAD AND SWAP1 SHR SWAP4 POP POP POP POP SWAP3 SWAP2 POP POP JUMP JUMPDEST PUSH0 DUP1 PUSH0 DUP1 PUSH2 0x75F DUP6 PUSH2 0x7C0 JUMP JUMPDEST SWAP3 POP SWAP3 POP SWAP3 POP DUP1 PUSH1 0xFF AND DUP3 DUP8 PUSH0 ADD PUSH0 DUP7 DUP2 MSTORE PUSH1 0x20 ADD SWAP1 DUP2 MSTORE PUSH1 0x20 ADD PUSH0 KECCAK256 SLOAD AND SWAP1 SHR SWAP4 POP POP POP POP SWAP3 SWAP2 POP POP JUMP JUMPDEST PUSH0 DUP1 PUSH2 0x796 DUP4 PUSH2 0x81A JUMP JUMPDEST SWAP2 POP SWAP2 POP DUP1 NOT DUP5 PUSH0 ADD PUSH0 DUP5 DUP2 MSTORE PUSH1 0x20 ADD SWAP1 DUP2 MSTORE PUSH1 0x20 ADD PUSH0 KECCAK256 PUSH0 DUP3 DUP3 SLOAD AND SWAP3 POP POP DUP2 SWAP1 SSTORE POP POP POP POP POP JUMP JUMPDEST PUSH0 DUP1 PUSH0 PUSH1 0x6 DUP5 SWAP1 SHR SWAP3 POP PUSH1 0x3F DUP5 AND PUSH1 0x4 PUSH2 0x7DA SWAP2 SWAP1 PUSH2 0xA45 JUMP JUMPDEST SWAP1 POP DUP1 PUSH1 0xFF AND PUSH1 0xF SWAP1 SHL SWAP2 POP SWAP2 SWAP4 SWAP1 SWAP3 POP JUMP JUMPDEST PUSH0 DUP1 PUSH0 PUSH1 0x7 DUP5 SWAP1 SHR SWAP3 POP PUSH1 0x7F DUP5 AND PUSH1 0x2 PUSH2 0x807 SWAP2 SWAP1 PUSH2 0xA45 JUMP JUMPDEST SWAP1 POP DUP1 PUSH1 0xFF AND PUSH1 0x3 SWAP1 SHL SWAP2 POP SWAP2 SWAP4 SWAP1 SWAP3 POP JUMP JUMPDEST PUSH0 DUP1 PUSH1 0x8 DUP4 SWAP1 SHR SWAP2 POP PUSH1 0xFF DUP4 AND PUSH1 0x1 SWAP1 SHL SWAP1 POP SWAP2 POP SWAP2 JUMP JUMPDEST PUSH0 DUP1 PUSH0 PUSH1 0x5 DUP5 SWAP1 SHR SWAP3 POP PUSH1 0x1F DUP5 AND PUSH1 0x8 PUSH2 0x84C SWAP2 SWAP1 PUSH2 0xA45 JUMP JUMPDEST SWAP1 POP DUP1 PUSH1 0xFF AND PUSH1 0xFF SWAP1 SHL SWAP2 POP SWAP2 SWAP4 SWAP1 SWAP3 POP JUMP JUMPDEST PUSH0 DUP1 REVERT JUMPDEST PUSH0 DUP2 SWAP1 POP SWAP2 SWAP1 POP JUMP JUMPDEST PUSH2 0x875 DUP2 PUSH2 0x863 JUMP JUMPDEST DUP2 EQ PUSH2 0x87F JUMPI PUSH0 DUP1 REVERT JUMPDEST POP JUMP JUMPDEST PUSH0 DUP2 CALLDATALOAD SWAP1 POP PUSH2 0x890 DUP2 PUSH2 0x86C JUMP JUMPDEST SWAP3 SWAP2 POP POP JUMP JUMPDEST PUSH0 PUSH1 0xFF DUP3 AND SWAP1 POP SWAP2 SWAP1 POP JUMP JUMPDEST PUSH2 0x8AB DUP2 PUSH2 0x896 JUMP JUMPDEST DUP2 EQ PUSH2 0x8B5 JUMPI PUSH0 DUP1 REVERT JUMPDEST POP JUMP JUMPDEST PUSH0 DUP2 CALLDATALOAD SWAP1 POP PUSH2 0x8C6 DUP2 PUSH2 0x8A2 JUMP JUMPDEST SWAP3 SWAP2 POP POP JUMP JUMPDEST PUSH0 DUP1 PUSH1 0x40 DUP4 DUP6 SUB SLT ISZERO PUSH2 0x8E2 JUMPI PUSH2 0x8E1 PUSH2 0x85F JUMP JUMPDEST JUMPDEST PUSH0 PUSH2 0x8EF DUP6 DUP3 DUP7 ADD PUSH2 0x882 JUMP JUMPDEST SWAP3 POP POP PUSH1 0x20 PUSH2 0x900 DUP6 DUP3 DUP7 ADD PUSH2 0x8B8 JUMP JUMPDEST SWAP2 POP POP SWAP3 POP SWAP3 SWAP1 POP JUMP JUMPDEST PUSH2 0x913 DUP2 PUSH2 0x896 JUMP JUMPDEST DUP3 MSTORE POP POP JUMP JUMPDEST PUSH0 PUSH1 0x20 DUP3 ADD SWAP1 POP PUSH2 0x92C PUSH0 DUP4 ADD DUP5 PUSH2 0x90A JUMP JUMPDEST SWAP3 SWAP2 POP POP JUMP JUMPDEST PUSH0 PUSH1 0x20 DUP3 DUP5 SUB SLT ISZERO PUSH2 0x947 JUMPI PUSH2 0x946 PUSH2 0x85F JUMP JUMPDEST JUMPDEST PUSH0 PUSH2 0x954 DUP5 DUP3 DUP6 ADD PUSH2 0x882 JUMP JUMPDEST SWAP2 POP POP SWAP3 SWAP2 POP POP JUMP JUMPDEST PUSH0 DUP2 MLOAD SWAP1 POP SWAP2 SWAP1 POP JUMP JUMPDEST PUSH0 DUP3 DUP3 MSTORE PUSH1 0x20 DUP3 ADD SWAP1 POP SWAP3 SWAP2 POP POP JUMP JUMPDEST DUP3 DUP2 DUP4 MCOPY PUSH0 DUP4 DUP4 ADD MSTORE POP POP POP JUMP JUMPDEST PUSH0 PUSH1 0x1F NOT PUSH1 0x1F DUP4 ADD AND SWAP1 POP SWAP2 SWAP1 POP JUMP JUMPDEST PUSH0 PUSH2 0x99F DUP3 PUSH2 0x95D JUMP JUMPDEST PUSH2 0x9A9 DUP2 DUP6 PUSH2 0x967 JUMP JUMPDEST SWAP4 POP PUSH2 0x9B9 DUP2 DUP6 PUSH1 0x20 DUP7 ADD PUSH2 0x977 JUMP JUMPDEST PUSH2 0x9C2 DUP2 PUSH2 0x985 JUMP JUMPDEST DUP5 ADD SWAP2 POP POP SWAP3 SWAP2 POP POP JUMP JUMPDEST PUSH0 PUSH1 0x20 DUP3 ADD SWAP1 POP DUP2 DUP2 SUB PUSH0 DUP4 ADD MSTORE PUSH2 0x9E5 DUP2 DUP5 PUSH2 0x995 JUMP JUMPDEST SWAP1 POP SWAP3 SWAP2 POP POP JUMP JUMPDEST PUSH0 PUSH1 0x20 DUP3 DUP5 SUB SLT ISZERO PUSH2 0xA02 JUMPI PUSH2 0xA01 PUSH2 0x85F JUMP JUMPDEST JUMPDEST PUSH0 PUSH2 0xA0F DUP5 DUP3 DUP6 ADD PUSH2 0x8B8 JUMP JUMPDEST SWAP2 POP POP SWAP3 SWAP2 POP POP JUMP JUMPDEST PUSH32 0x4E487B7100000000000000000000000000000000000000000000000000000000 PUSH0 MSTORE PUSH1 0x11 PUSH1 0x4 MSTORE PUSH1 0x24 PUSH0 REVERT JUMPDEST PUSH0 PUSH2 0xA4F DUP3 PUSH2 0x863 JUMP JUMPDEST SWAP2 POP PUSH2 0xA5A DUP4 PUSH2 0x863 JUMP JUMPDEST SWAP3 POP DUP3 DUP3 MUL PUSH2 0xA68 DUP2 PUSH2 0x863 JUMP JUMPDEST SWAP2 POP DUP3 DUP3 DIV DUP5 EQ DUP4 ISZERO OR PUSH2 0xA7F JUMPI PUSH2 0xA7E PUSH2 0xA18 JUMP JUMPDEST JUMPDEST POP SWAP3 SWAP2 POP POP JUMP INVALID LOG2 PUSH5 0x6970667358 0x22 SLT KECCAK256 0xF7 0x2C 0xE5 0xAA CALLDATASIZE 0xAC 0xC 0xCD RETURN SLT ORIGIN STATICCALL 0xC3 0xC6 KECCAK256 PUSH13 0x6339BAF62FAE8E128F51E5D7A 0x2F 0xE2 0x2D PUSH5 0x736F6C6343 STOP ADDMOD BYTE STOP CALLER "
		},
		"gasEstimates": {
			"creation": {
				"codeDepositCost": "549600",
				"executionCost": "579",
				"totalCost": "550179"
			},
			"external": {
				"addAddressTwoBitsMap(uint8)": "infinite",
				"addUint256ByteMap(uint256,uint8)": "infinite",
				"addUint256FourBitsMap(uint256,uint8)": "infinite",
				"addUint256TwoBitsMap(uint256,uint8)": "infinite",
				"calcelFriend()": "infinite",
				"check()": "infinite",
				"getAddressTwoBitsMap()": "infinite",
				"getUint256ByteMap(uint256)": "infinite",
				"getUint256FourBitsMap(uint256)": "infinite",
				"getUint256TwoBitsMap(uint256)": "infinite"
			}
		},
		"methodIdentifiers": {
			"addAddressTwoBitsMap(uint8)": "93eeeb41",
			"addUint256ByteMap(uint256,uint8)": "94fb5fa0",
			"addUint256FourBitsMap(uint256,uint8)": "1439c35b",
			"addUint256TwoBitsMap(uint256,uint8)": "f5f6f027",
			"calcelFriend()": "e91e0ef3",
			"check()": "919840ad",
			"getAddressTwoBitsMap()": "8146911d",
			"getUint256ByteMap(uint256)": "c50115f9",
			"getUint256FourBitsMap(uint256)": "dd7af8b0",
			"getUint256TwoBitsMap(uint256)": "82f76880"
		}
	},
	"abi": [
		{
			"inputs": [
				{
					"internalType": "uint8",
					"name": "value",
					"type": "uint8"
				}
			],
			"name": "OutOfByteValueRange",
			"type": "error"
		},
		{
			"inputs": [
				{
					"internalType": "uint8",
					"name": "value",
					"type": "uint8"
				}
			],
			"name": "OutOfFourBitValueRange",
			"type": "error"
		},
		{
			"inputs": [
				{
					"internalType": "uint8",
					"name": "value",
					"type": "uint8"
				}
			],
			"name": "OutOfTwoBitValueRange",
			"type": "error"
		},
		{
			"inputs": [
				{
					"internalType": "uint8",
					"name": "value",
					"type": "uint8"
				}
			],
			"name": "addAddressTwoBitsMap",
			"outputs": [],
			"stateMutability": "nonpayable",
			"type": "function"
		},
		{
			"inputs": [
				{
					"internalType": "uint256",
					"name": "data",
					"type": "uint256"
				},
				{
					"internalType": "uint8",
					"name": "value",
					"type": "uint8"
				}
			],
			"name": "addUint256ByteMap",
			"outputs": [],
			"stateMutability": "nonpayable",
			"type": "function"
		},
		{
			"inputs": [
				{
					"internalType": "uint256",
					"name": "data",
					"type": "uint256"
				},
				{
					"internalType": "uint8",
					"name": "value",
					"type": "uint8"
				}
			],
			"name": "addUint256FourBitsMap",
			"outputs": [],
			"stateMutability": "nonpayable",
			"type": "function"
		},
		{
			"inputs": [
				{
					"internalType": "uint256",
					"name": "data",
					"type": "uint256"
				},
				{
					"internalType": "uint8",
					"name": "value",
					"type": "uint8"
				}
			],
			"name": "addUint256TwoBitsMap",
			"outputs": [],
			"stateMutability": "nonpayable",
			"type": "function"
		},
		{
			"inputs": [],
			"name": "calcelFriend",
			"outputs": [],
			"stateMutability": "nonpayable",
			"type": "function"
		},
		{
			"inputs": [],
			"name": "check",
			"outputs": [
				{
					"internalType": "string",
					"name": "result",
					"type": "string"
				}
			],
			"stateMutability": "nonpayable",
			"type": "function"
		},
		{
			"inputs": [],
			"name": "getAddressTwoBitsMap",
			"outputs": [
				{
					"internalType": "uint8",
					"name": "",
					"type": "uint8"
				}
			],
			"stateMutability": "view",
			"type": "function"
		},
		{
			"inputs": [
				{
					"internalType": "uint256",
					"name": "data",
					"type": "uint256"
				}
			],
			"name": "getUint256ByteMap",
			"outputs": [
				{
					"internalType": "uint8",
					"name": "",
					"type": "uint8"
				}
			],
			"stateMutability": "view",
			"type": "function"
		},
		{
			"inputs": [
				{
					"internalType": "uint256",
					"name": "data",
					"type": "uint256"
				}
			],
			"name": "getUint256FourBitsMap",
			"outputs": [
				{
					"internalType": "uint8",
					"name": "",
					"type": "uint8"
				}
			],
			"stateMutability": "view",
			"type": "function"
		},
		{
			"inputs": [
				{
					"internalType": "uint256",
					"name": "data",
					"type": "uint256"
				}
			],
			"name": "getUint256TwoBitsMap",
			"outputs": [
				{
					"internalType": "uint8",
					"name": "",
					"type": "uint8"
				}
			],
			"stateMutability": "view",
			"type": "function"
		}
	]
}