{
	"contracts/DestructContract.sol": {
		"DestructContract": {
			"abi": [
				{
					"inputs": [],
					"stateMutability": "payable",
					"type": "constructor"
				},
				{
					"inputs": [],
					"name": "destruct",
					"outputs": [],
					"stateMutability": "nonpayable",
					"type": "function"
				},
				{
					"inputs": [],
					"name": "getBalance",
					"outputs": [
						{
							"internalType": "uint256",
							"name": "balance",
							"type": "uint256"
						}
					],
					"stateMutability": "view",
					"type": "function"
				},
				{
					"inputs": [],
					"name": "value",
					"outputs": [
						{
							"internalType": "uint256",
							"name": "",
							"type": "uint256"
						}
					],
					"stateMutability": "view",
					"type": "function"
				},
				{
					"stateMutability": "payable",
					"type": "receive"
				}
			],
			"devdoc": {
				"kind": "dev",
				"methods": {},
				"version": 1
			},
			"evm": {
				"assembly": "    /* \"contracts/DestructContract.sol\":57:398  contract DestructContract {... */\n  mstore(0x40, 0x80)\n    /* \"contracts/DestructContract.sol\":109:111  10 */\n  0x0a\n    /* \"contracts/DestructContract.sol\":89:111  uint public value = 10 */\n  0x00\n  sstore\n    /* \"contracts/DestructContract.sol\":57:398  contract DestructContract {... */\n  dataSize(sub_0)\n  dup1\n  dataOffset(sub_0)\n  0x00\n  codecopy\n  0x00\n  return\nstop\n\nsub_0: assembly {\n        /* \"contracts/DestructContract.sol\":57:398  contract DestructContract {... */\n      mstore(0x40, 0x80)\n      jumpi(tag_1, lt(calldatasize, 0x04))\n      shr(0xe0, calldataload(0x00))\n      dup1\n      0x12065fe0\n      eq\n      tag_3\n      jumpi\n      dup1\n      0x2b68b9c6\n      eq\n      tag_4\n      jumpi\n      dup1\n      0x3fa4f245\n      eq\n      tag_5\n      jumpi\n      jump(tag_2)\n    tag_1:\n      jumpi(tag_2, calldatasize)\n      stop\n    tag_2:\n      0x00\n      dup1\n      revert\n        /* \"contracts/DestructContract.sol\":288:395  function getBalance() external view returns (uint balance) {... */\n    tag_3:\n      callvalue\n      dup1\n      iszero\n      tag_8\n      jumpi\n      0x00\n      dup1\n      revert\n    tag_8:\n      pop\n      tag_9\n      tag_10\n      jump\t// in\n    tag_9:\n      mload(0x40)\n      tag_11\n      swap2\n      swap1\n      tag_12\n      jump\t// in\n    tag_11:\n      mload(0x40)\n      dup1\n      swap2\n      sub\n      swap1\n      return\n        /* \"contracts/DestructContract.sol\":183:262  function destruct() external {... */\n    tag_4:\n      callvalue\n      dup1\n      iszero\n      tag_13\n      jumpi\n      0x00\n      dup1\n      revert\n    tag_13:\n      pop\n      tag_14\n      tag_15\n      jump\t// in\n    tag_14:\n      stop\n        /* \"contracts/DestructContract.sol\":89:111  uint public value = 10 */\n    tag_5:\n      callvalue\n      dup1\n      iszero\n      tag_16\n      jumpi\n      0x00\n      dup1\n      revert\n    tag_16:\n      pop\n      tag_17\n      tag_18\n      jump\t// in\n    tag_17:\n      mload(0x40)\n      tag_19\n      swap2\n      swap1\n      tag_12\n      jump\t// in\n    tag_19:\n      mload(0x40)\n      dup1\n      swap2\n      sub\n      swap1\n      return\n        /* \"contracts/DestructContract.sol\":288:395  function getBalance() external view returns (uint balance) {... */\n    tag_10:\n        /* \"contracts/DestructContract.sol\":333:345  uint balance */\n      0x00\n        /* \"contracts/DestructContract.sol\":367:388  address(this).balance */\n      selfbalance\n        /* \"contracts/DestructContract.sol\":357:388  balance = address(this).balance */\n      swap1\n      pop\n        /* \"contracts/DestructContract.sol\":288:395  function getBalance() external view returns (uint balance) {... */\n      swap1\n      jump\t// out\n        /* \"contracts/DestructContract.sol\":183:262  function destruct() external {... */\n    tag_15:\n        /* \"contracts/DestructContract.sol\":243:253  msg.sender */\n      caller\n        /* \"contracts/DestructContract.sol\":222:255  selfdestruct(payable(msg.sender)) */\n      0xffffffffffffffffffffffffffffffffffffffff\n      and\n      selfdestruct\n        /* \"contracts/DestructContract.sol\":89:111  uint public value = 10 */\n    tag_18:\n      sload(0x00)\n      dup2\n      jump\t// out\n        /* \"#utility.yul\":7:84   */\n    tag_22:\n        /* \"#utility.yul\":44:51   */\n      0x00\n        /* \"#utility.yul\":73:78   */\n      dup2\n        /* \"#utility.yul\":62:78   */\n      swap1\n      pop\n        /* \"#utility.yul\":7:84   */\n      swap2\n      swap1\n      pop\n      jump\t// out\n        /* \"#utility.yul\":90:208   */\n    tag_23:\n        /* \"#utility.yul\":177:201   */\n      tag_27\n        /* \"#utility.yul\":195:200   */\n      dup2\n        /* \"#utility.yul\":177:201   */\n      tag_22\n      jump\t// in\n    tag_27:\n        /* \"#utility.yul\":172:175   */\n      dup3\n        /* \"#utility.yul\":165:202   */\n      mstore\n        /* \"#utility.yul\":90:208   */\n      pop\n      pop\n      jump\t// out\n        /* \"#utility.yul\":214:436   */\n    tag_12:\n        /* \"#utility.yul\":307:311   */\n      0x00\n        /* \"#utility.yul\":345:347   */\n      0x20\n        /* \"#utility.yul\":334:343   */\n      dup3\n        /* \"#utility.yul\":330:348   */\n      add\n        /* \"#utility.yul\":322:348   */\n      swap1\n      pop\n        /* \"#utility.yul\":358:429   */\n      tag_29\n        /* \"#utility.yul\":426:427   */\n      0x00\n        /* \"#utility.yul\":415:424   */\n      dup4\n        /* \"#utility.yul\":411:428   */\n      add\n        /* \"#utility.yul\":402:408   */\n      dup5\n        /* \"#utility.yul\":358:429   */\n      tag_23\n      jump\t// in\n    tag_29:\n        /* \"#utility.yul\":214:436   */\n      swap3\n      swap2\n      pop\n      pop\n      jump\t// out\n\n    auxdata: 0xa264697066735822122002891323fe4254f97ac462f9c959a3f8c55feacc95c26bb8fc30e45372cf44ca64736f6c634300081a0033\n}\n",
				"bytecode": {
					"linkReferences": {},
					"object": "6080604052600a5f55610121806100155f395ff3fe6080604052600436106032575f3560e01c806312065fe014603c5780632b68b9c61460615780633fa4f245146074576038565b36603857005b5f80fd5b3480156046575f80fd5b50604d6099565b6040516058919060d4565b60405180910390f35b348015606b575f80fd5b50607260a0565b005b348015607e575f80fd5b50608560b9565b6040516090919060d4565b60405180910390f35b5f47905090565b3373ffffffffffffffffffffffffffffffffffffffff16ff5b5f5481565b5f819050919050565b60ce8160be565b82525050565b5f60208201905060e55f83018460c7565b9291505056fea264697066735822122002891323fe4254f97ac462f9c959a3f8c55feacc95c26bb8fc30e45372cf44ca64736f6c634300081a0033",
					"opcodes": "PUSH1 0x80 PUSH1 0x40 MSTORE PUSH1 0xA PUSH0 SSTORE PUSH2 0x121 DUP1 PUSH2 0x15 PUSH0 CODECOPY PUSH0 RETURN INVALID PUSH1 0x80 PUSH1 0x40 MSTORE PUSH1 0x4 CALLDATASIZE LT PUSH1 0x32 JUMPI PUSH0 CALLDATALOAD PUSH1 0xE0 SHR DUP1 PUSH4 0x12065FE0 EQ PUSH1 0x3C JUMPI DUP1 PUSH4 0x2B68B9C6 EQ PUSH1 0x61 JUMPI DUP1 PUSH4 0x3FA4F245 EQ PUSH1 0x74 JUMPI PUSH1 0x38 JUMP JUMPDEST CALLDATASIZE PUSH1 0x38 JUMPI STOP JUMPDEST PUSH0 DUP1 REVERT JUMPDEST CALLVALUE DUP1 ISZERO PUSH1 0x46 JUMPI PUSH0 DUP1 REVERT JUMPDEST POP PUSH1 0x4D PUSH1 0x99 JUMP JUMPDEST PUSH1 0x40 MLOAD PUSH1 0x58 SWAP2 SWAP1 PUSH1 0xD4 JUMP JUMPDEST PUSH1 0x40 MLOAD DUP1 SWAP2 SUB SWAP1 RETURN JUMPDEST CALLVALUE DUP1 ISZERO PUSH1 0x6B JUMPI PUSH0 DUP1 REVERT JUMPDEST POP PUSH1 0x72 PUSH1 0xA0 JUMP JUMPDEST STOP JUMPDEST CALLVALUE DUP1 ISZERO PUSH1 0x7E JUMPI PUSH0 DUP1 REVERT JUMPDEST POP PUSH1 0x85 PUSH1 0xB9 JUMP JUMPDEST PUSH1 0x40 MLOAD PUSH1 0x90 SWAP2 SWAP1 PUSH1 0xD4 JUMP JUMPDEST PUSH1 0x40 MLOAD DUP1 SWAP2 SUB SWAP1 RETURN JUMPDEST PUSH0 SELFBALANCE SWAP1 POP SWAP1 JUMP JUMPDEST CALLER PUSH20 0xFFFFFFFFFFFFFFFFFFFFFFFFFFFFFFFFFFFFFFFF AND SELFDESTRUCT JUMPDEST PUSH0 SLOAD DUP2 JUMP JUMPDEST PUSH0 DUP2 SWAP1 POP SWAP2 SWAP1 POP JUMP JUMPDEST PUSH1 0xCE DUP2 PUSH1 0xBE JUMP JUMPDEST DUP3 MSTORE POP POP JUMP JUMPDEST PUSH0 PUSH1 0x20 DUP3 ADD SWAP1 POP PUSH1 0xE5 PUSH0 DUP4 ADD DUP5 PUSH1 0xC7 JUMP JUMPDEST SWAP3 SWAP2 POP POP JUMP INVALID LOG2 PUSH5 0x6970667358 0x22 SLT KECCAK256 MUL DUP10 SGT 0x23 INVALID TIMESTAMP SLOAD 0xF9 PUSH27 0xC462F9C959A3F8C55FEACC95C26BB8FC30E45372CF44CA64736F6C PUSH4 0x4300081A STOP CALLER "
				},
				"gasEstimates": {
					"creation": {
						"codeDepositCost": "57800",
						"executionCost": "22190",
						"totalCost": "79990"
					},
					"external": {
						"destruct()": "27742",
						"getBalance()": "312",
						"value()": "2446"
					}
				},
				"methodIdentifiers": {
					"destruct()": "2b68b9c6",
					"getBalance()": "12065fe0",
					"value()": "3fa4f245"
				}
			},
			"storageLayout": {
				"storage": [
					{
						"astId": 4,
						"contract": "contracts/DestructContract.sol:DestructContract",
						"label": "value",
						"offset": 0,
						"slot": "0",
						"type": "t_uint256"
					}
				],
				"types": {
					"t_uint256": {
						"encoding": "inplace",
						"label": "uint256",
						"numberOfBytes": "32"
					}
				}
			},
			"userdoc": {
				"kind": "user",
				"methods": {},
				"version": 1
			}
		}
	}
}