{
	"contracts/MyUpgradeProxy.sol": {
		"TransparentUpgradeableProxy": {
			"abi": [
				{
					"inputs": [
						{
							"internalType": "address",
							"name": "_logicAddress",
							"type": "address"
						}
					],
					"stateMutability": "nonpayable",
					"type": "constructor"
				},
				{
					"stateMutability": "payable",
					"type": "fallback"
				},
				{
					"inputs": [
						{
							"internalType": "address",
							"name": "_newAdmin",
							"type": "address"
						}
					],
					"name": "changeAdmin",
					"outputs": [],
					"stateMutability": "nonpayable",
					"type": "function"
				},
				{
					"inputs": [
						{
							"internalType": "address",
							"name": "newLogicAddress",
							"type": "address"
						}
					],
					"name": "upgradeLogicAddress",
					"outputs": [],
					"stateMutability": "nonpayable",
					"type": "function"
				},
				{
					"stateMutability": "payable",
					"type": "receive"
				}
			],
			"devdoc": {
				"kind": "dev",
				"methods": {},
				"version": 1
			},
			"evm": {
				"assembly": "    /* \"contracts/MyUpgradeProxy.sol\":821:1477  contract TransparentUpgradeableProxy is ProxyAdmin {... */\n  mstore(0x40, 0x80)\n    /* \"contracts/MyUpgradeProxy.sol\":906:1033  constructor(address _logicAddress) ProxyAdmin(msg.sender) {... */\n  callvalue\n  dup1\n  iszero\n  tag_1\n  jumpi\n  0x00\n  dup1\n  revert\ntag_1:\n  pop\n  mload(0x40)\n  sub(codesize, bytecodeSize)\n  dup1\n  bytecodeSize\n  dup4\n  codecopy\n  dup2\n  dup2\n  add\n  0x40\n  mstore\n  dup2\n  add\n  swap1\n  tag_2\n  swap2\n  swap1\n  tag_3\n  jump\t// in\ntag_2:\n    /* \"contracts/MyUpgradeProxy.sol\":952:962  msg.sender */\n  caller\n    /* \"contracts/MyUpgradeProxy.sol\":238:281  ERC1967Utils.setAdminAddress(_adminAddress) */\n  tag_7\n    /* \"contracts/MyUpgradeProxy.sol\":267:280  _adminAddress */\n  dup2\n    /* \"contracts/MyUpgradeProxy.sol\":238:266  ERC1967Utils.setAdminAddress */\n  shl(0x20, tag_8)\n    /* \"contracts/MyUpgradeProxy.sol\":238:281  ERC1967Utils.setAdminAddress(_adminAddress) */\n  0x20\n  shr\n  jump\t// in\ntag_7:\n    /* \"contracts/MyUpgradeProxy.sol\":193:288  constructor(address _adminAddress) {... */\n  pop\n    /* \"contracts/MyUpgradeProxy.sol\":974:1026  ERC1967Utils.setImplementationAddress(_logicAddress) */\n  tag_10\n    /* \"contracts/MyUpgradeProxy.sol\":1012:1025  _logicAddress */\n  dup2\n    /* \"contracts/MyUpgradeProxy.sol\":974:1011  ERC1967Utils.setImplementationAddress */\n  shl(0x20, tag_11)\n    /* \"contracts/MyUpgradeProxy.sol\":974:1026  ERC1967Utils.setImplementationAddress(_logicAddress) */\n  0x20\n  shr\n  jump\t// in\ntag_10:\n    /* \"contracts/MyUpgradeProxy.sol\":906:1033  constructor(address _logicAddress) ProxyAdmin(msg.sender) {... */\n  pop\n    /* \"contracts/MyUpgradeProxy.sol\":821:1477  contract TransparentUpgradeableProxy is ProxyAdmin {... */\n  jump(tag_12)\n    /* \"contracts/ERC1967Utils.sol\":1443:1565  function setAdminAddress(address _adminAddress) internal {... */\ntag_8:\n    /* \"contracts/ERC1967Utils.sol\":1545:1558  _adminAddress */\n  dup1\n    /* \"contracts/ERC1967Utils.sol\":1510:1536  getAddressSlot(ADMIN_SLOT) */\n  tag_14\n    /* \"contracts/ERC1967Utils.sol\":1180:1246  0xb53127684a568b3173ae13b9f8a6016e243e63b6e8ee1178d6a717850b5d6103 */\n  0xb53127684a568b3173ae13b9f8a6016e243e63b6e8ee1178d6a717850b5d6103\n    /* \"contracts/ERC1967Utils.sol\":1525:1535  ADMIN_SLOT */\n  0x00\n  shl\n    /* \"contracts/ERC1967Utils.sol\":1510:1524  getAddressSlot */\n  shl(0x20, tag_15)\n    /* \"contracts/ERC1967Utils.sol\":1510:1536  getAddressSlot(ADMIN_SLOT) */\n  0x20\n  shr\n  jump\t// in\ntag_14:\n    /* \"contracts/ERC1967Utils.sol\":1510:1542  getAddressSlot(ADMIN_SLOT).value */\n  0x00\n  add\n  0x00\n    /* \"contracts/ERC1967Utils.sol\":1510:1558  getAddressSlot(ADMIN_SLOT).value = _adminAddress */\n  0x0100\n  exp\n  dup2\n  sload\n  dup2\n  0xffffffffffffffffffffffffffffffffffffffff\n  mul\n  not\n  and\n  swap1\n  dup4\n  0xffffffffffffffffffffffffffffffffffffffff\n  and\n  mul\n  or\n  swap1\n  sstore\n  pop\n    /* \"contracts/ERC1967Utils.sol\":1443:1565  function setAdminAddress(address _adminAddress) internal {... */\n  pop\n  jump\t// out\n    /* \"contracts/ERC1967Utils.sol\":763:921  function setImplementationAddress(address _implementationAddress) internal {... */\ntag_11:\n    /* \"contracts/ERC1967Utils.sol\":892:914  _implementationAddress */\n  dup1\n    /* \"contracts/ERC1967Utils.sol\":848:883  getAddressSlot(IMPLEMENTATION_SLOT) */\n  tag_17\n    /* \"contracts/ERC1967Utils.sol\":464:530  0x360894a13ba1a3210667c828492db98dca3e2076cc3735a920a3ca505d382bbc */\n  0x360894a13ba1a3210667c828492db98dca3e2076cc3735a920a3ca505d382bbc\n    /* \"contracts/ERC1967Utils.sol\":863:882  IMPLEMENTATION_SLOT */\n  0x00\n  shl\n    /* \"contracts/ERC1967Utils.sol\":848:862  getAddressSlot */\n  shl(0x20, tag_15)\n    /* \"contracts/ERC1967Utils.sol\":848:883  getAddressSlot(IMPLEMENTATION_SLOT) */\n  0x20\n  shr\n  jump\t// in\ntag_17:\n    /* \"contracts/ERC1967Utils.sol\":848:889  getAddressSlot(IMPLEMENTATION_SLOT).value */\n  0x00\n  add\n  0x00\n    /* \"contracts/ERC1967Utils.sol\":848:914  getAddressSlot(IMPLEMENTATION_SLOT).value = _implementationAddress */\n  0x0100\n  exp\n  dup2\n  sload\n  dup2\n  0xffffffffffffffffffffffffffffffffffffffff\n  mul\n  not\n  and\n  swap1\n  dup4\n  0xffffffffffffffffffffffffffffffffffffffff\n  and\n  mul\n  or\n  swap1\n  sstore\n  pop\n    /* \"contracts/ERC1967Utils.sol\":763:921  function setImplementationAddress(address _implementationAddress) internal {... */\n  pop\n  jump\t// out\n    /* \"contracts/ERC1967Utils.sol\":1696:1859  function getAddressSlot(bytes32 slot) internal pure returns (AddressSlot storage r) {... */\ntag_15:\n    /* \"contracts/ERC1967Utils.sol\":1757:1778  AddressSlot storage r */\n  0x00\n    /* \"contracts/ERC1967Utils.sol\":1839:1843  slot */\n  dup2\n    /* \"contracts/ERC1967Utils.sol\":1829:1843  r.slot := slot */\n  swap1\n  pop\n    /* \"contracts/ERC1967Utils.sol\":1696:1859  function getAddressSlot(bytes32 slot) internal pure returns (AddressSlot storage r) {... */\n  swap2\n  swap1\n  pop\n  jump\t// out\n    /* \"#utility.yul\":88:205   */\ntag_20:\n    /* \"#utility.yul\":197:198   */\n  0x00\n    /* \"#utility.yul\":194:195   */\n  dup1\n    /* \"#utility.yul\":187:199   */\n  revert\n    /* \"#utility.yul\":334:460   */\ntag_22:\n    /* \"#utility.yul\":371:378   */\n  0x00\n    /* \"#utility.yul\":411:453   */\n  0xffffffffffffffffffffffffffffffffffffffff\n    /* \"#utility.yul\":404:409   */\n  dup3\n    /* \"#utility.yul\":400:454   */\n  and\n    /* \"#utility.yul\":389:454   */\n  swap1\n  pop\n    /* \"#utility.yul\":334:460   */\n  swap2\n  swap1\n  pop\n  jump\t// out\n    /* \"#utility.yul\":466:562   */\ntag_23:\n    /* \"#utility.yul\":503:510   */\n  0x00\n    /* \"#utility.yul\":532:556   */\n  tag_32\n    /* \"#utility.yul\":550:555   */\n  dup3\n    /* \"#utility.yul\":532:556   */\n  tag_22\n  jump\t// in\ntag_32:\n    /* \"#utility.yul\":521:556   */\n  swap1\n  pop\n    /* \"#utility.yul\":466:562   */\n  swap2\n  swap1\n  pop\n  jump\t// out\n    /* \"#utility.yul\":568:690   */\ntag_24:\n    /* \"#utility.yul\":641:665   */\n  tag_34\n    /* \"#utility.yul\":659:664   */\n  dup2\n    /* \"#utility.yul\":641:665   */\n  tag_23\n  jump\t// in\ntag_34:\n    /* \"#utility.yul\":634:639   */\n  dup2\n    /* \"#utility.yul\":631:666   */\n  eq\n    /* \"#utility.yul\":621:684   */\n  tag_35\n  jumpi\n    /* \"#utility.yul\":680:681   */\n  0x00\n    /* \"#utility.yul\":677:678   */\n  dup1\n    /* \"#utility.yul\":670:682   */\n  revert\n    /* \"#utility.yul\":621:684   */\ntag_35:\n    /* \"#utility.yul\":568:690   */\n  pop\n  jump\t// out\n    /* \"#utility.yul\":696:839   */\ntag_25:\n    /* \"#utility.yul\":753:758   */\n  0x00\n    /* \"#utility.yul\":784:790   */\n  dup2\n    /* \"#utility.yul\":778:791   */\n  mload\n    /* \"#utility.yul\":769:791   */\n  swap1\n  pop\n    /* \"#utility.yul\":800:833   */\n  tag_37\n    /* \"#utility.yul\":827:832   */\n  dup2\n    /* \"#utility.yul\":800:833   */\n  tag_24\n  jump\t// in\ntag_37:\n    /* \"#utility.yul\":696:839   */\n  swap3\n  swap2\n  pop\n  pop\n  jump\t// out\n    /* \"#utility.yul\":845:1196   */\ntag_3:\n    /* \"#utility.yul\":915:921   */\n  0x00\n    /* \"#utility.yul\":964:966   */\n  0x20\n    /* \"#utility.yul\":952:961   */\n  dup3\n    /* \"#utility.yul\":943:950   */\n  dup5\n    /* \"#utility.yul\":939:962   */\n  sub\n    /* \"#utility.yul\":935:967   */\n  slt\n    /* \"#utility.yul\":932:1051   */\n  iszero\n  tag_39\n  jumpi\n    /* \"#utility.yul\":970:1049   */\n  tag_40\n  tag_20\n  jump\t// in\ntag_40:\n    /* \"#utility.yul\":932:1051   */\ntag_39:\n    /* \"#utility.yul\":1090:1091   */\n  0x00\n    /* \"#utility.yul\":1115:1179   */\n  tag_41\n    /* \"#utility.yul\":1171:1178   */\n  dup5\n    /* \"#utility.yul\":1162:1168   */\n  dup3\n    /* \"#utility.yul\":1151:1160   */\n  dup6\n    /* \"#utility.yul\":1147:1169   */\n  add\n    /* \"#utility.yul\":1115:1179   */\n  tag_25\n  jump\t// in\ntag_41:\n    /* \"#utility.yul\":1105:1179   */\n  swap2\n  pop\n    /* \"#utility.yul\":1061:1189   */\n  pop\n    /* \"#utility.yul\":845:1196   */\n  swap3\n  swap2\n  pop\n  pop\n  jump\t// out\n    /* \"contracts/MyUpgradeProxy.sol\":821:1477  contract TransparentUpgradeableProxy is ProxyAdmin {... */\ntag_12:\n  dataSize(sub_0)\n  dup1\n  dataOffset(sub_0)\n  0x00\n  codecopy\n  0x00\n  return\nstop\n\nsub_0: assembly {\n        /* \"contracts/MyUpgradeProxy.sol\":821:1477  contract TransparentUpgradeableProxy is ProxyAdmin {... */\n      mstore(0x40, 0x80)\n      jumpi(tag_1, lt(calldatasize, 0x04))\n      shr(0xe0, calldataload(0x00))\n      dup1\n      0x629d89d2\n      eq\n      tag_3\n      jumpi\n      dup1\n      0x8f283970\n      eq\n      tag_4\n      jumpi\n      jump(tag_2)\n    tag_1:\n      jumpi(tag_2, calldatasize)\n      stop\n    tag_2:\n        /* \"contracts/MyUpgradeProxy.sol\":1109:1136  ERC1967Utils.delegatecall() */\n      tag_9\n        /* \"contracts/MyUpgradeProxy.sol\":1109:1134  ERC1967Utils.delegatecall */\n      tag_10\n        /* \"contracts/MyUpgradeProxy.sol\":1109:1136  ERC1967Utils.delegatecall() */\n      jump\t// in\n    tag_9:\n        /* \"contracts/MyUpgradeProxy.sol\":821:1477  contract TransparentUpgradeableProxy is ProxyAdmin {... */\n      stop\n        /* \"contracts/MyUpgradeProxy.sol\":1202:1346  function upgradeLogicAddress(address newLogicAddress) external onlyAdmin {... */\n    tag_3:\n      callvalue\n      dup1\n      iszero\n      tag_11\n      jumpi\n      0x00\n      dup1\n      revert\n    tag_11:\n      pop\n      tag_12\n      0x04\n      dup1\n      calldatasize\n      sub\n      dup2\n      add\n      swap1\n      tag_13\n      swap2\n      swap1\n      tag_14\n      jump\t// in\n    tag_13:\n      tag_15\n      jump\t// in\n    tag_12:\n      stop\n        /* \"contracts/MyUpgradeProxy.sol\":1370:1475  function changeAdmin(address _newAdmin) external onlyAdmin {... */\n    tag_4:\n      callvalue\n      dup1\n      iszero\n      tag_16\n      jumpi\n      0x00\n      dup1\n      revert\n    tag_16:\n      pop\n      tag_17\n      0x04\n      dup1\n      calldatasize\n      sub\n      dup2\n      add\n      swap1\n      tag_18\n      swap2\n      swap1\n      tag_14\n      jump\t// in\n    tag_18:\n      tag_19\n      jump\t// in\n    tag_17:\n      stop\n        /* \"contracts/ERC1967Utils.sol\":1865:1952  function delegatecall() internal {... */\n    tag_10:\n        /* \"contracts/ERC1967Utils.sol\":1908:1945  _delegate(getImplementationAddress()) */\n      tag_21\n        /* \"contracts/ERC1967Utils.sol\":1918:1944  getImplementationAddress() */\n      tag_22\n        /* \"contracts/ERC1967Utils.sol\":1918:1942  getImplementationAddress */\n      tag_23\n        /* \"contracts/ERC1967Utils.sol\":1918:1944  getImplementationAddress() */\n      jump\t// in\n    tag_22:\n        /* \"contracts/ERC1967Utils.sol\":1908:1917  _delegate */\n      tag_24\n        /* \"contracts/ERC1967Utils.sol\":1908:1945  _delegate(getImplementationAddress()) */\n      jump\t// in\n    tag_21:\n        /* \"contracts/ERC1967Utils.sol\":1865:1952  function delegatecall() internal {... */\n      jump\t// out\n        /* \"contracts/MyUpgradeProxy.sol\":1202:1346  function upgradeLogicAddress(address newLogicAddress) external onlyAdmin {... */\n    tag_15:\n        /* \"contracts/MyUpgradeProxy.sol\":378:408  ERC1967Utils.getAdminAddress() */\n      tag_26\n        /* \"contracts/MyUpgradeProxy.sol\":378:406  ERC1967Utils.getAdminAddress */\n      tag_27\n        /* \"contracts/MyUpgradeProxy.sol\":378:408  ERC1967Utils.getAdminAddress() */\n      jump\t// in\n    tag_26:\n        /* \"contracts/MyUpgradeProxy.sol\":364:408  msg.sender == ERC1967Utils.getAdminAddress() */\n      0xffffffffffffffffffffffffffffffffffffffff\n      and\n        /* \"contracts/MyUpgradeProxy.sol\":364:374  msg.sender */\n      caller\n        /* \"contracts/MyUpgradeProxy.sol\":364:408  msg.sender == ERC1967Utils.getAdminAddress() */\n      0xffffffffffffffffffffffffffffffffffffffff\n      and\n      eq\n        /* \"contracts/MyUpgradeProxy.sol\":356:437  require(msg.sender == ERC1967Utils.getAdminAddress(), \"only admin can call this\") */\n      tag_28\n      jumpi\n      mload(0x40)\n      0x08c379a000000000000000000000000000000000000000000000000000000000\n      dup2\n      mstore\n      0x04\n      add\n      tag_29\n      swap1\n      tag_30\n      jump\t// in\n    tag_29:\n      mload(0x40)\n      dup1\n      swap2\n      sub\n      swap1\n      revert\n    tag_28:\n        /* \"contracts/MyUpgradeProxy.sol\":1285:1339  ERC1967Utils.setImplementationAddress(newLogicAddress) */\n      tag_32\n        /* \"contracts/MyUpgradeProxy.sol\":1323:1338  newLogicAddress */\n      dup2\n        /* \"contracts/MyUpgradeProxy.sol\":1285:1322  ERC1967Utils.setImplementationAddress */\n      tag_33\n        /* \"contracts/MyUpgradeProxy.sol\":1285:1339  ERC1967Utils.setImplementationAddress(newLogicAddress) */\n      jump\t// in\n    tag_32:\n        /* \"contracts/MyUpgradeProxy.sol\":1202:1346  function upgradeLogicAddress(address newLogicAddress) external onlyAdmin {... */\n      pop\n      jump\t// out\n        /* \"contracts/MyUpgradeProxy.sol\":1370:1475  function changeAdmin(address _newAdmin) external onlyAdmin {... */\n    tag_19:\n        /* \"contracts/MyUpgradeProxy.sol\":378:408  ERC1967Utils.getAdminAddress() */\n      tag_35\n        /* \"contracts/MyUpgradeProxy.sol\":378:406  ERC1967Utils.getAdminAddress */\n      tag_27\n        /* \"contracts/MyUpgradeProxy.sol\":378:408  ERC1967Utils.getAdminAddress() */\n      jump\t// in\n    tag_35:\n        /* \"contracts/MyUpgradeProxy.sol\":364:408  msg.sender == ERC1967Utils.getAdminAddress() */\n      0xffffffffffffffffffffffffffffffffffffffff\n      and\n        /* \"contracts/MyUpgradeProxy.sol\":364:374  msg.sender */\n      caller\n        /* \"contracts/MyUpgradeProxy.sol\":364:408  msg.sender == ERC1967Utils.getAdminAddress() */\n      0xffffffffffffffffffffffffffffffffffffffff\n      and\n      eq\n        /* \"contracts/MyUpgradeProxy.sol\":356:437  require(msg.sender == ERC1967Utils.getAdminAddress(), \"only admin can call this\") */\n      tag_36\n      jumpi\n      mload(0x40)\n      0x08c379a000000000000000000000000000000000000000000000000000000000\n      dup2\n      mstore\n      0x04\n      add\n      tag_37\n      swap1\n      tag_30\n      jump\t// in\n    tag_37:\n      mload(0x40)\n      dup1\n      swap2\n      sub\n      swap1\n      revert\n    tag_36:\n        /* \"contracts/MyUpgradeProxy.sol\":1439:1468  super._changeAdmin(_newAdmin) */\n      tag_39\n        /* \"contracts/MyUpgradeProxy.sol\":1458:1467  _newAdmin */\n      dup2\n        /* \"contracts/MyUpgradeProxy.sol\":1439:1457  super._changeAdmin */\n      tag_40\n        /* \"contracts/MyUpgradeProxy.sol\":1439:1468  super._changeAdmin(_newAdmin) */\n      jump\t// in\n    tag_39:\n        /* \"contracts/MyUpgradeProxy.sol\":1370:1475  function changeAdmin(address _newAdmin) external onlyAdmin {... */\n      pop\n      jump\t// out\n        /* \"contracts/ERC1967Utils.sol\":581:713  function getImplementationAddress() internal view returns(address) {... */\n    tag_23:\n        /* \"contracts/ERC1967Utils.sol\":639:646  address */\n      0x00\n        /* \"contracts/ERC1967Utils.sol\":665:700  getAddressSlot(IMPLEMENTATION_SLOT) */\n      tag_42\n        /* \"contracts/ERC1967Utils.sol\":464:530  0x360894a13ba1a3210667c828492db98dca3e2076cc3735a920a3ca505d382bbc */\n      0x360894a13ba1a3210667c828492db98dca3e2076cc3735a920a3ca505d382bbc\n        /* \"contracts/ERC1967Utils.sol\":680:699  IMPLEMENTATION_SLOT */\n      0x00\n      shl\n        /* \"contracts/ERC1967Utils.sol\":665:679  getAddressSlot */\n      tag_43\n        /* \"contracts/ERC1967Utils.sol\":665:700  getAddressSlot(IMPLEMENTATION_SLOT) */\n      jump\t// in\n    tag_42:\n        /* \"contracts/ERC1967Utils.sol\":665:706  getAddressSlot(IMPLEMENTATION_SLOT).value */\n      0x00\n      add\n      0x00\n      swap1\n      sload\n      swap1\n      0x0100\n      exp\n      swap1\n      div\n      0xffffffffffffffffffffffffffffffffffffffff\n      and\n        /* \"contracts/ERC1967Utils.sol\":658:706  return getAddressSlot(IMPLEMENTATION_SLOT).value */\n      swap1\n      pop\n        /* \"contracts/ERC1967Utils.sol\":581:713  function getImplementationAddress() internal view returns(address) {... */\n      swap1\n      jump\t// out\n        /* \"contracts/ERC1967Utils.sol\":1995:2881  function _delegate(address implementation) private {... */\n    tag_24:\n        /* \"contracts/ERC1967Utils.sol\":2324:2338  calldatasize() */\n      calldatasize\n        /* \"contracts/ERC1967Utils.sol\":2321:2322  0 */\n      0x00\n        /* \"contracts/ERC1967Utils.sol\":2318:2319  0 */\n      dup1\n        /* \"contracts/ERC1967Utils.sol\":2305:2339  calldatacopy(0, 0, calldatasize()) */\n      calldatacopy\n        /* \"contracts/ERC1967Utils.sol\":2538:2539  0 */\n      0x00\n        /* \"contracts/ERC1967Utils.sol\":2535:2536  0 */\n      dup1\n        /* \"contracts/ERC1967Utils.sol\":2519:2533  calldatasize() */\n      calldatasize\n        /* \"contracts/ERC1967Utils.sol\":2516:2517  0 */\n      0x00\n        /* \"contracts/ERC1967Utils.sol\":2500:2514  implementation */\n      dup5\n        /* \"contracts/ERC1967Utils.sol\":2493:2498  gas() */\n      gas\n        /* \"contracts/ERC1967Utils.sol\":2480:2540  delegatecall(gas(), implementation, 0, calldatasize(), 0, 0) */\n      delegatecall\n        /* \"contracts/ERC1967Utils.sol\":2614:2630  returndatasize() */\n      returndatasize\n        /* \"contracts/ERC1967Utils.sol\":2611:2612  0 */\n      0x00\n        /* \"contracts/ERC1967Utils.sol\":2608:2609  0 */\n      dup1\n        /* \"contracts/ERC1967Utils.sol\":2593:2631  returndatacopy(0, 0, returndatasize()) */\n      returndatacopy\n        /* \"contracts/ERC1967Utils.sol\":2652:2658  result */\n      dup1\n        /* \"contracts/ERC1967Utils.sol\":2724:2725  0 */\n      0x00\n        /* \"contracts/ERC1967Utils.sol\":2719:2785  case 0 {... */\n      dup2\n      eq\n      tag_46\n      jumpi\n        /* \"contracts/ERC1967Utils.sol\":2834:2850  returndatasize() */\n      returndatasize\n        /* \"contracts/ERC1967Utils.sol\":2831:2832  0 */\n      0x00\n        /* \"contracts/ERC1967Utils.sol\":2824:2851  return(0, returndatasize()) */\n      return\n        /* \"contracts/ERC1967Utils.sol\":2719:2785  case 0 {... */\n    tag_46:\n        /* \"contracts/ERC1967Utils.sol\":2754:2770  returndatasize() */\n      returndatasize\n        /* \"contracts/ERC1967Utils.sol\":2751:2752  0 */\n      0x00\n        /* \"contracts/ERC1967Utils.sol\":2744:2771  revert(0, returndatasize()) */\n      revert\n        /* \"contracts/ERC1967Utils.sol\":1288:1402  function getAdminAddress() internal view returns(address) {... */\n    tag_27:\n        /* \"contracts/ERC1967Utils.sol\":1337:1344  address */\n      0x00\n        /* \"contracts/ERC1967Utils.sol\":1363:1389  getAddressSlot(ADMIN_SLOT) */\n      tag_48\n        /* \"contracts/ERC1967Utils.sol\":1180:1246  0xb53127684a568b3173ae13b9f8a6016e243e63b6e8ee1178d6a717850b5d6103 */\n      0xb53127684a568b3173ae13b9f8a6016e243e63b6e8ee1178d6a717850b5d6103\n        /* \"contracts/ERC1967Utils.sol\":1378:1388  ADMIN_SLOT */\n      0x00\n      shl\n        /* \"contracts/ERC1967Utils.sol\":1363:1377  getAddressSlot */\n      tag_43\n        /* \"contracts/ERC1967Utils.sol\":1363:1389  getAddressSlot(ADMIN_SLOT) */\n      jump\t// in\n    tag_48:\n        /* \"contracts/ERC1967Utils.sol\":1363:1395  getAddressSlot(ADMIN_SLOT).value */\n      0x00\n      add\n      0x00\n      swap1\n      sload\n      swap1\n      0x0100\n      exp\n      swap1\n      div\n      0xffffffffffffffffffffffffffffffffffffffff\n      and\n        /* \"contracts/ERC1967Utils.sol\":1356:1395  return getAddressSlot(ADMIN_SLOT).value */\n      swap1\n      pop\n        /* \"contracts/ERC1967Utils.sol\":1288:1402  function getAdminAddress() internal view returns(address) {... */\n      swap1\n      jump\t// out\n        /* \"contracts/ERC1967Utils.sol\":763:921  function setImplementationAddress(address _implementationAddress) internal {... */\n    tag_33:\n        /* \"contracts/ERC1967Utils.sol\":892:914  _implementationAddress */\n      dup1\n        /* \"contracts/ERC1967Utils.sol\":848:883  getAddressSlot(IMPLEMENTATION_SLOT) */\n      tag_50\n        /* \"contracts/ERC1967Utils.sol\":464:530  0x360894a13ba1a3210667c828492db98dca3e2076cc3735a920a3ca505d382bbc */\n      0x360894a13ba1a3210667c828492db98dca3e2076cc3735a920a3ca505d382bbc\n        /* \"contracts/ERC1967Utils.sol\":863:882  IMPLEMENTATION_SLOT */\n      0x00\n      shl\n        /* \"contracts/ERC1967Utils.sol\":848:862  getAddressSlot */\n      tag_43\n        /* \"contracts/ERC1967Utils.sol\":848:883  getAddressSlot(IMPLEMENTATION_SLOT) */\n      jump\t// in\n    tag_50:\n        /* \"contracts/ERC1967Utils.sol\":848:889  getAddressSlot(IMPLEMENTATION_SLOT).value */\n      0x00\n      add\n      0x00\n        /* \"contracts/ERC1967Utils.sol\":848:914  getAddressSlot(IMPLEMENTATION_SLOT).value = _implementationAddress */\n      0x0100\n      exp\n      dup2\n      sload\n      dup2\n      0xffffffffffffffffffffffffffffffffffffffff\n      mul\n      not\n      and\n      swap1\n      dup4\n      0xffffffffffffffffffffffffffffffffffffffff\n      and\n      mul\n      or\n      swap1\n      sstore\n      pop\n        /* \"contracts/ERC1967Utils.sol\":763:921  function setImplementationAddress(address _implementationAddress) internal {... */\n      pop\n      jump\t// out\n        /* \"contracts/MyUpgradeProxy.sol\":479:595  function _changeAdmin(address _newAdmin) internal onlyAdmin {... */\n    tag_40:\n        /* \"contracts/MyUpgradeProxy.sol\":378:408  ERC1967Utils.getAdminAddress() */\n      tag_52\n        /* \"contracts/MyUpgradeProxy.sol\":378:406  ERC1967Utils.getAdminAddress */\n      tag_27\n        /* \"contracts/MyUpgradeProxy.sol\":378:408  ERC1967Utils.getAdminAddress() */\n      jump\t// in\n    tag_52:\n        /* \"contracts/MyUpgradeProxy.sol\":364:408  msg.sender == ERC1967Utils.getAdminAddress() */\n      0xffffffffffffffffffffffffffffffffffffffff\n      and\n        /* \"contracts/MyUpgradeProxy.sol\":364:374  msg.sender */\n      caller\n        /* \"contracts/MyUpgradeProxy.sol\":364:408  msg.sender == ERC1967Utils.getAdminAddress() */\n      0xffffffffffffffffffffffffffffffffffffffff\n      and\n      eq\n        /* \"contracts/MyUpgradeProxy.sol\":356:437  require(msg.sender == ERC1967Utils.getAdminAddress(), \"only admin can call this\") */\n      tag_53\n      jumpi\n      mload(0x40)\n      0x08c379a000000000000000000000000000000000000000000000000000000000\n      dup2\n      mstore\n      0x04\n      add\n      tag_54\n      swap1\n      tag_30\n      jump\t// in\n    tag_54:\n      mload(0x40)\n      dup1\n      swap2\n      sub\n      swap1\n      revert\n    tag_53:\n        /* \"contracts/MyUpgradeProxy.sol\":549:588  ERC1967Utils.setAdminAddress(_newAdmin) */\n      tag_56\n        /* \"contracts/MyUpgradeProxy.sol\":578:587  _newAdmin */\n      dup2\n        /* \"contracts/MyUpgradeProxy.sol\":549:577  ERC1967Utils.setAdminAddress */\n      tag_57\n        /* \"contracts/MyUpgradeProxy.sol\":549:588  ERC1967Utils.setAdminAddress(_newAdmin) */\n      jump\t// in\n    tag_56:\n        /* \"contracts/MyUpgradeProxy.sol\":479:595  function _changeAdmin(address _newAdmin) internal onlyAdmin {... */\n      pop\n      jump\t// out\n        /* \"contracts/ERC1967Utils.sol\":1696:1859  function getAddressSlot(bytes32 slot) internal pure returns (AddressSlot storage r) {... */\n    tag_43:\n        /* \"contracts/ERC1967Utils.sol\":1757:1778  AddressSlot storage r */\n      0x00\n        /* \"contracts/ERC1967Utils.sol\":1839:1843  slot */\n      dup2\n        /* \"contracts/ERC1967Utils.sol\":1829:1843  r.slot := slot */\n      swap1\n      pop\n        /* \"contracts/ERC1967Utils.sol\":1696:1859  function getAddressSlot(bytes32 slot) internal pure returns (AddressSlot storage r) {... */\n      swap2\n      swap1\n      pop\n      jump\t// out\n        /* \"contracts/ERC1967Utils.sol\":1443:1565  function setAdminAddress(address _adminAddress) internal {... */\n    tag_57:\n        /* \"contracts/ERC1967Utils.sol\":1545:1558  _adminAddress */\n      dup1\n        /* \"contracts/ERC1967Utils.sol\":1510:1536  getAddressSlot(ADMIN_SLOT) */\n      tag_60\n        /* \"contracts/ERC1967Utils.sol\":1180:1246  0xb53127684a568b3173ae13b9f8a6016e243e63b6e8ee1178d6a717850b5d6103 */\n      0xb53127684a568b3173ae13b9f8a6016e243e63b6e8ee1178d6a717850b5d6103\n        /* \"contracts/ERC1967Utils.sol\":1525:1535  ADMIN_SLOT */\n      0x00\n      shl\n        /* \"contracts/ERC1967Utils.sol\":1510:1524  getAddressSlot */\n      tag_43\n        /* \"contracts/ERC1967Utils.sol\":1510:1536  getAddressSlot(ADMIN_SLOT) */\n      jump\t// in\n    tag_60:\n        /* \"contracts/ERC1967Utils.sol\":1510:1542  getAddressSlot(ADMIN_SLOT).value */\n      0x00\n      add\n      0x00\n        /* \"contracts/ERC1967Utils.sol\":1510:1558  getAddressSlot(ADMIN_SLOT).value = _adminAddress */\n      0x0100\n      exp\n      dup2\n      sload\n      dup2\n      0xffffffffffffffffffffffffffffffffffffffff\n      mul\n      not\n      and\n      swap1\n      dup4\n      0xffffffffffffffffffffffffffffffffffffffff\n      and\n      mul\n      or\n      swap1\n      sstore\n      pop\n        /* \"contracts/ERC1967Utils.sol\":1443:1565  function setAdminAddress(address _adminAddress) internal {... */\n      pop\n      jump\t// out\n        /* \"#utility.yul\":88:205   */\n    tag_62:\n        /* \"#utility.yul\":197:198   */\n      0x00\n        /* \"#utility.yul\":194:195   */\n      dup1\n        /* \"#utility.yul\":187:199   */\n      revert\n        /* \"#utility.yul\":334:460   */\n    tag_64:\n        /* \"#utility.yul\":371:378   */\n      0x00\n        /* \"#utility.yul\":411:453   */\n      0xffffffffffffffffffffffffffffffffffffffff\n        /* \"#utility.yul\":404:409   */\n      dup3\n        /* \"#utility.yul\":400:454   */\n      and\n        /* \"#utility.yul\":389:454   */\n      swap1\n      pop\n        /* \"#utility.yul\":334:460   */\n      swap2\n      swap1\n      pop\n      jump\t// out\n        /* \"#utility.yul\":466:562   */\n    tag_65:\n        /* \"#utility.yul\":503:510   */\n      0x00\n        /* \"#utility.yul\":532:556   */\n      tag_77\n        /* \"#utility.yul\":550:555   */\n      dup3\n        /* \"#utility.yul\":532:556   */\n      tag_64\n      jump\t// in\n    tag_77:\n        /* \"#utility.yul\":521:556   */\n      swap1\n      pop\n        /* \"#utility.yul\":466:562   */\n      swap2\n      swap1\n      pop\n      jump\t// out\n        /* \"#utility.yul\":568:690   */\n    tag_66:\n        /* \"#utility.yul\":641:665   */\n      tag_79\n        /* \"#utility.yul\":659:664   */\n      dup2\n        /* \"#utility.yul\":641:665   */\n      tag_65\n      jump\t// in\n    tag_79:\n        /* \"#utility.yul\":634:639   */\n      dup2\n        /* \"#utility.yul\":631:666   */\n      eq\n        /* \"#utility.yul\":621:684   */\n      tag_80\n      jumpi\n        /* \"#utility.yul\":680:681   */\n      0x00\n        /* \"#utility.yul\":677:678   */\n      dup1\n        /* \"#utility.yul\":670:682   */\n      revert\n        /* \"#utility.yul\":621:684   */\n    tag_80:\n        /* \"#utility.yul\":568:690   */\n      pop\n      jump\t// out\n        /* \"#utility.yul\":696:835   */\n    tag_67:\n        /* \"#utility.yul\":742:747   */\n      0x00\n        /* \"#utility.yul\":780:786   */\n      dup2\n        /* \"#utility.yul\":767:787   */\n      calldataload\n        /* \"#utility.yul\":758:787   */\n      swap1\n      pop\n        /* \"#utility.yul\":796:829   */\n      tag_82\n        /* \"#utility.yul\":823:828   */\n      dup2\n        /* \"#utility.yul\":796:829   */\n      tag_66\n      jump\t// in\n    tag_82:\n        /* \"#utility.yul\":696:835   */\n      swap3\n      swap2\n      pop\n      pop\n      jump\t// out\n        /* \"#utility.yul\":841:1170   */\n    tag_14:\n        /* \"#utility.yul\":900:906   */\n      0x00\n        /* \"#utility.yul\":949:951   */\n      0x20\n        /* \"#utility.yul\":937:946   */\n      dup3\n        /* \"#utility.yul\":928:935   */\n      dup5\n        /* \"#utility.yul\":924:947   */\n      sub\n        /* \"#utility.yul\":920:952   */\n      slt\n        /* \"#utility.yul\":917:1036   */\n      iszero\n      tag_84\n      jumpi\n        /* \"#utility.yul\":955:1034   */\n      tag_85\n      tag_62\n      jump\t// in\n    tag_85:\n        /* \"#utility.yul\":917:1036   */\n    tag_84:\n        /* \"#utility.yul\":1075:1076   */\n      0x00\n        /* \"#utility.yul\":1100:1153   */\n      tag_86\n        /* \"#utility.yul\":1145:1152   */\n      dup5\n        /* \"#utility.yul\":1136:1142   */\n      dup3\n        /* \"#utility.yul\":1125:1134   */\n      dup6\n        /* \"#utility.yul\":1121:1143   */\n      add\n        /* \"#utility.yul\":1100:1153   */\n      tag_67\n      jump\t// in\n    tag_86:\n        /* \"#utility.yul\":1090:1153   */\n      swap2\n      pop\n        /* \"#utility.yul\":1046:1163   */\n      pop\n        /* \"#utility.yul\":841:1170   */\n      swap3\n      swap2\n      pop\n      pop\n      jump\t// out\n        /* \"#utility.yul\":1176:1345   */\n    tag_68:\n        /* \"#utility.yul\":1260:1271   */\n      0x00\n        /* \"#utility.yul\":1294:1300   */\n      dup3\n        /* \"#utility.yul\":1289:1292   */\n      dup3\n        /* \"#utility.yul\":1282:1301   */\n      mstore\n        /* \"#utility.yul\":1334:1338   */\n      0x20\n        /* \"#utility.yul\":1329:1332   */\n      dup3\n        /* \"#utility.yul\":1325:1339   */\n      add\n        /* \"#utility.yul\":1310:1339   */\n      swap1\n      pop\n        /* \"#utility.yul\":1176:1345   */\n      swap3\n      swap2\n      pop\n      pop\n      jump\t// out\n        /* \"#utility.yul\":1351:1525   */\n    tag_69:\n        /* \"#utility.yul\":1491:1517   */\n      0x6f6e6c792061646d696e2063616e2063616c6c20746869730000000000000000\n        /* \"#utility.yul\":1487:1488   */\n      0x00\n        /* \"#utility.yul\":1479:1485   */\n      dup3\n        /* \"#utility.yul\":1475:1489   */\n      add\n        /* \"#utility.yul\":1468:1518   */\n      mstore\n        /* \"#utility.yul\":1351:1525   */\n      pop\n      jump\t// out\n        /* \"#utility.yul\":1531:1897   */\n    tag_70:\n        /* \"#utility.yul\":1673:1676   */\n      0x00\n        /* \"#utility.yul\":1694:1761   */\n      tag_90\n        /* \"#utility.yul\":1758:1760   */\n      0x18\n        /* \"#utility.yul\":1753:1756   */\n      dup4\n        /* \"#utility.yul\":1694:1761   */\n      tag_68\n      jump\t// in\n    tag_90:\n        /* \"#utility.yul\":1687:1761   */\n      swap2\n      pop\n        /* \"#utility.yul\":1770:1863   */\n      tag_91\n        /* \"#utility.yul\":1859:1862   */\n      dup3\n        /* \"#utility.yul\":1770:1863   */\n      tag_69\n      jump\t// in\n    tag_91:\n        /* \"#utility.yul\":1888:1890   */\n      0x20\n        /* \"#utility.yul\":1883:1886   */\n      dup3\n        /* \"#utility.yul\":1879:1891   */\n      add\n        /* \"#utility.yul\":1872:1891   */\n      swap1\n      pop\n        /* \"#utility.yul\":1531:1897   */\n      swap2\n      swap1\n      pop\n      jump\t// out\n        /* \"#utility.yul\":1903:2322   */\n    tag_30:\n        /* \"#utility.yul\":2069:2073   */\n      0x00\n        /* \"#utility.yul\":2107:2109   */\n      0x20\n        /* \"#utility.yul\":2096:2105   */\n      dup3\n        /* \"#utility.yul\":2092:2110   */\n      add\n        /* \"#utility.yul\":2084:2110   */\n      swap1\n      pop\n        /* \"#utility.yul\":2156:2165   */\n      dup2\n        /* \"#utility.yul\":2150:2154   */\n      dup2\n        /* \"#utility.yul\":2146:2166   */\n      sub\n        /* \"#utility.yul\":2142:2143   */\n      0x00\n        /* \"#utility.yul\":2131:2140   */\n      dup4\n        /* \"#utility.yul\":2127:2144   */\n      add\n        /* \"#utility.yul\":2120:2167   */\n      mstore\n        /* \"#utility.yul\":2184:2315   */\n      tag_93\n        /* \"#utility.yul\":2310:2314   */\n      dup2\n        /* \"#utility.yul\":2184:2315   */\n      tag_70\n      jump\t// in\n    tag_93:\n        /* \"#utility.yul\":2176:2315   */\n      swap1\n      pop\n        /* \"#utility.yul\":1903:2322   */\n      swap2\n      swap1\n      pop\n      jump\t// out\n\n    auxdata: 0xa2646970667358221220f0b271390798943e7810983271007f8f7e0e88ea08f633b9e14bd9d1ce4ebb3464736f6c634300081a0033\n}\n",
				"bytecode": {
					"linkReferences": {},
					"object": "608060405234801561000f575f80fd5b506040516106e13803806106e1833981810160405281019061003191906101a6565b336100418161005760201b60201c565b50610051816100cb60201b60201c565b506101d1565b806100897fb53127684a568b3173ae13b9f8a6016e243e63b6e8ee1178d6a717850b5d61035f1b61013f60201b60201c565b5f015f6101000a81548173ffffffffffffffffffffffffffffffffffffffff021916908373ffffffffffffffffffffffffffffffffffffffff16021790555050565b806100fd7f360894a13ba1a3210667c828492db98dca3e2076cc3735a920a3ca505d382bbc5f1b61013f60201b60201c565b5f015f6101000a81548173ffffffffffffffffffffffffffffffffffffffff021916908373ffffffffffffffffffffffffffffffffffffffff16021790555050565b5f819050919050565b5f80fd5b5f73ffffffffffffffffffffffffffffffffffffffff82169050919050565b5f6101758261014c565b9050919050565b6101858161016b565b811461018f575f80fd5b50565b5f815190506101a08161017c565b92915050565b5f602082840312156101bb576101ba610148565b5b5f6101c884828501610192565b91505092915050565b610503806101de5f395ff3fe60806040526004361061002c575f3560e01c8063629d89d21461003d5780638f2839701461006557610033565b3661003357005b61003b61008d565b005b348015610048575f80fd5b50610063600480360381019061005e919061042a565b61009f565b005b348015610070575f80fd5b5061008b6004803603810190610086919061042a565b610120565b005b61009d6100986101a1565b6101f4565b565b6100a7610213565b73ffffffffffffffffffffffffffffffffffffffff163373ffffffffffffffffffffffffffffffffffffffff1614610114576040517f08c379a000000000000000000000000000000000000000000000000000000000815260040161010b906104af565b60405180910390fd5b61011d81610266565b50565b610128610213565b73ffffffffffffffffffffffffffffffffffffffff163373ffffffffffffffffffffffffffffffffffffffff1614610195576040517f08c379a000000000000000000000000000000000000000000000000000000000815260040161018c906104af565b60405180910390fd5b61019e816102d4565b50565b5f6101cd7f360894a13ba1a3210667c828492db98dca3e2076cc3735a920a3ca505d382bbc5f1b610355565b5f015f9054906101000a900473ffffffffffffffffffffffffffffffffffffffff16905090565b365f80375f80365f845af43d5f803e805f811461020f573d5ff35b3d5ffd5b5f61023f7fb53127684a568b3173ae13b9f8a6016e243e63b6e8ee1178d6a717850b5d61035f1b610355565b5f015f9054906101000a900473ffffffffffffffffffffffffffffffffffffffff16905090565b806102927f360894a13ba1a3210667c828492db98dca3e2076cc3735a920a3ca505d382bbc5f1b610355565b5f015f6101000a81548173ffffffffffffffffffffffffffffffffffffffff021916908373ffffffffffffffffffffffffffffffffffffffff16021790555050565b6102dc610213565b73ffffffffffffffffffffffffffffffffffffffff163373ffffffffffffffffffffffffffffffffffffffff1614610349576040517f08c379a0000000000000000000000000000000000000000000000000000000008152600401610340906104af565b60405180910390fd5b6103528161035e565b50565b5f819050919050565b8061038a7fb53127684a568b3173ae13b9f8a6016e243e63b6e8ee1178d6a717850b5d61035f1b610355565b5f015f6101000a81548173ffffffffffffffffffffffffffffffffffffffff021916908373ffffffffffffffffffffffffffffffffffffffff16021790555050565b5f80fd5b5f73ffffffffffffffffffffffffffffffffffffffff82169050919050565b5f6103f9826103d0565b9050919050565b610409816103ef565b8114610413575f80fd5b50565b5f8135905061042481610400565b92915050565b5f6020828403121561043f5761043e6103cc565b5b5f61044c84828501610416565b91505092915050565b5f82825260208201905092915050565b7f6f6e6c792061646d696e2063616e2063616c6c207468697300000000000000005f82015250565b5f610499601883610455565b91506104a482610465565b602082019050919050565b5f6020820190508181035f8301526104c68161048d565b905091905056fea2646970667358221220f0b271390798943e7810983271007f8f7e0e88ea08f633b9e14bd9d1ce4ebb3464736f6c634300081a0033",
					"opcodes": "PUSH1 0x80 PUSH1 0x40 MSTORE CALLVALUE DUP1 ISZERO PUSH2 0xF JUMPI PUSH0 DUP1 REVERT JUMPDEST POP PUSH1 0x40 MLOAD PUSH2 0x6E1 CODESIZE SUB DUP1 PUSH2 0x6E1 DUP4 CODECOPY DUP2 DUP2 ADD PUSH1 0x40 MSTORE DUP2 ADD SWAP1 PUSH2 0x31 SWAP2 SWAP1 PUSH2 0x1A6 JUMP JUMPDEST CALLER PUSH2 0x41 DUP2 PUSH2 0x57 PUSH1 0x20 SHL PUSH1 0x20 SHR JUMP JUMPDEST POP PUSH2 0x51 DUP2 PUSH2 0xCB PUSH1 0x20 SHL PUSH1 0x20 SHR JUMP JUMPDEST POP PUSH2 0x1D1 JUMP JUMPDEST DUP1 PUSH2 0x89 PUSH32 0xB53127684A568B3173AE13B9F8A6016E243E63B6E8EE1178D6A717850B5D6103 PUSH0 SHL PUSH2 0x13F PUSH1 0x20 SHL PUSH1 0x20 SHR JUMP JUMPDEST PUSH0 ADD PUSH0 PUSH2 0x100 EXP DUP2 SLOAD DUP2 PUSH20 0xFFFFFFFFFFFFFFFFFFFFFFFFFFFFFFFFFFFFFFFF MUL NOT AND SWAP1 DUP4 PUSH20 0xFFFFFFFFFFFFFFFFFFFFFFFFFFFFFFFFFFFFFFFF AND MUL OR SWAP1 SSTORE POP POP JUMP JUMPDEST DUP1 PUSH2 0xFD PUSH32 0x360894A13BA1A3210667C828492DB98DCA3E2076CC3735A920A3CA505D382BBC PUSH0 SHL PUSH2 0x13F PUSH1 0x20 SHL PUSH1 0x20 SHR JUMP JUMPDEST PUSH0 ADD PUSH0 PUSH2 0x100 EXP DUP2 SLOAD DUP2 PUSH20 0xFFFFFFFFFFFFFFFFFFFFFFFFFFFFFFFFFFFFFFFF MUL NOT AND SWAP1 DUP4 PUSH20 0xFFFFFFFFFFFFFFFFFFFFFFFFFFFFFFFFFFFFFFFF AND MUL OR SWAP1 SSTORE POP POP JUMP JUMPDEST PUSH0 DUP2 SWAP1 POP SWAP2 SWAP1 POP JUMP JUMPDEST PUSH0 DUP1 REVERT JUMPDEST PUSH0 PUSH20 0xFFFFFFFFFFFFFFFFFFFFFFFFFFFFFFFFFFFFFFFF DUP3 AND SWAP1 POP SWAP2 SWAP1 POP JUMP JUMPDEST PUSH0 PUSH2 0x175 DUP3 PUSH2 0x14C JUMP JUMPDEST SWAP1 POP SWAP2 SWAP1 POP JUMP JUMPDEST PUSH2 0x185 DUP2 PUSH2 0x16B JUMP JUMPDEST DUP2 EQ PUSH2 0x18F JUMPI PUSH0 DUP1 REVERT JUMPDEST POP JUMP JUMPDEST PUSH0 DUP2 MLOAD SWAP1 POP PUSH2 0x1A0 DUP2 PUSH2 0x17C JUMP JUMPDEST SWAP3 SWAP2 POP POP JUMP JUMPDEST PUSH0 PUSH1 0x20 DUP3 DUP5 SUB SLT ISZERO PUSH2 0x1BB JUMPI PUSH2 0x1BA PUSH2 0x148 JUMP JUMPDEST JUMPDEST PUSH0 PUSH2 0x1C8 DUP5 DUP3 DUP6 ADD PUSH2 0x192 JUMP JUMPDEST SWAP2 POP POP SWAP3 SWAP2 POP POP JUMP JUMPDEST PUSH2 0x503 DUP1 PUSH2 0x1DE PUSH0 CODECOPY PUSH0 RETURN INVALID PUSH1 0x80 PUSH1 0x40 MSTORE PUSH1 0x4 CALLDATASIZE LT PUSH2 0x2C JUMPI PUSH0 CALLDATALOAD PUSH1 0xE0 SHR DUP1 PUSH4 0x629D89D2 EQ PUSH2 0x3D JUMPI DUP1 PUSH4 0x8F283970 EQ PUSH2 0x65 JUMPI PUSH2 0x33 JUMP JUMPDEST CALLDATASIZE PUSH2 0x33 JUMPI STOP JUMPDEST PUSH2 0x3B PUSH2 0x8D JUMP JUMPDEST STOP JUMPDEST CALLVALUE DUP1 ISZERO PUSH2 0x48 JUMPI PUSH0 DUP1 REVERT JUMPDEST POP PUSH2 0x63 PUSH1 0x4 DUP1 CALLDATASIZE SUB DUP2 ADD SWAP1 PUSH2 0x5E SWAP2 SWAP1 PUSH2 0x42A JUMP JUMPDEST PUSH2 0x9F JUMP JUMPDEST STOP JUMPDEST CALLVALUE DUP1 ISZERO PUSH2 0x70 JUMPI PUSH0 DUP1 REVERT JUMPDEST POP PUSH2 0x8B PUSH1 0x4 DUP1 CALLDATASIZE SUB DUP2 ADD SWAP1 PUSH2 0x86 SWAP2 SWAP1 PUSH2 0x42A JUMP JUMPDEST PUSH2 0x120 JUMP JUMPDEST STOP JUMPDEST PUSH2 0x9D PUSH2 0x98 PUSH2 0x1A1 JUMP JUMPDEST PUSH2 0x1F4 JUMP JUMPDEST JUMP JUMPDEST PUSH2 0xA7 PUSH2 0x213 JUMP JUMPDEST PUSH20 0xFFFFFFFFFFFFFFFFFFFFFFFFFFFFFFFFFFFFFFFF AND CALLER PUSH20 0xFFFFFFFFFFFFFFFFFFFFFFFFFFFFFFFFFFFFFFFF AND EQ PUSH2 0x114 JUMPI PUSH1 0x40 MLOAD PUSH32 0x8C379A000000000000000000000000000000000000000000000000000000000 DUP2 MSTORE PUSH1 0x4 ADD PUSH2 0x10B SWAP1 PUSH2 0x4AF JUMP JUMPDEST PUSH1 0x40 MLOAD DUP1 SWAP2 SUB SWAP1 REVERT JUMPDEST PUSH2 0x11D DUP2 PUSH2 0x266 JUMP JUMPDEST POP JUMP JUMPDEST PUSH2 0x128 PUSH2 0x213 JUMP JUMPDEST PUSH20 0xFFFFFFFFFFFFFFFFFFFFFFFFFFFFFFFFFFFFFFFF AND CALLER PUSH20 0xFFFFFFFFFFFFFFFFFFFFFFFFFFFFFFFFFFFFFFFF AND EQ PUSH2 0x195 JUMPI PUSH1 0x40 MLOAD PUSH32 0x8C379A000000000000000000000000000000000000000000000000000000000 DUP2 MSTORE PUSH1 0x4 ADD PUSH2 0x18C SWAP1 PUSH2 0x4AF JUMP JUMPDEST PUSH1 0x40 MLOAD DUP1 SWAP2 SUB SWAP1 REVERT JUMPDEST PUSH2 0x19E DUP2 PUSH2 0x2D4 JUMP JUMPDEST POP JUMP JUMPDEST PUSH0 PUSH2 0x1CD PUSH32 0x360894A13BA1A3210667C828492DB98DCA3E2076CC3735A920A3CA505D382BBC PUSH0 SHL PUSH2 0x355 JUMP JUMPDEST PUSH0 ADD PUSH0 SWAP1 SLOAD SWAP1 PUSH2 0x100 EXP SWAP1 DIV PUSH20 0xFFFFFFFFFFFFFFFFFFFFFFFFFFFFFFFFFFFFFFFF AND SWAP1 POP SWAP1 JUMP JUMPDEST CALLDATASIZE PUSH0 DUP1 CALLDATACOPY PUSH0 DUP1 CALLDATASIZE PUSH0 DUP5 GAS DELEGATECALL RETURNDATASIZE PUSH0 DUP1 RETURNDATACOPY DUP1 PUSH0 DUP2 EQ PUSH2 0x20F JUMPI RETURNDATASIZE PUSH0 RETURN JUMPDEST RETURNDATASIZE PUSH0 REVERT JUMPDEST PUSH0 PUSH2 0x23F PUSH32 0xB53127684A568B3173AE13B9F8A6016E243E63B6E8EE1178D6A717850B5D6103 PUSH0 SHL PUSH2 0x355 JUMP JUMPDEST PUSH0 ADD PUSH0 SWAP1 SLOAD SWAP1 PUSH2 0x100 EXP SWAP1 DIV PUSH20 0xFFFFFFFFFFFFFFFFFFFFFFFFFFFFFFFFFFFFFFFF AND SWAP1 POP SWAP1 JUMP JUMPDEST DUP1 PUSH2 0x292 PUSH32 0x360894A13BA1A3210667C828492DB98DCA3E2076CC3735A920A3CA505D382BBC PUSH0 SHL PUSH2 0x355 JUMP JUMPDEST PUSH0 ADD PUSH0 PUSH2 0x100 EXP DUP2 SLOAD DUP2 PUSH20 0xFFFFFFFFFFFFFFFFFFFFFFFFFFFFFFFFFFFFFFFF MUL NOT AND SWAP1 DUP4 PUSH20 0xFFFFFFFFFFFFFFFFFFFFFFFFFFFFFFFFFFFFFFFF AND MUL OR SWAP1 SSTORE POP POP JUMP JUMPDEST PUSH2 0x2DC PUSH2 0x213 JUMP JUMPDEST PUSH20 0xFFFFFFFFFFFFFFFFFFFFFFFFFFFFFFFFFFFFFFFF AND CALLER PUSH20 0xFFFFFFFFFFFFFFFFFFFFFFFFFFFFFFFFFFFFFFFF AND EQ PUSH2 0x349 JUMPI PUSH1 0x40 MLOAD PUSH32 0x8C379A000000000000000000000000000000000000000000000000000000000 DUP2 MSTORE PUSH1 0x4 ADD PUSH2 0x340 SWAP1 PUSH2 0x4AF JUMP JUMPDEST PUSH1 0x40 MLOAD DUP1 SWAP2 SUB SWAP1 REVERT JUMPDEST PUSH2 0x352 DUP2 PUSH2 0x35E JUMP JUMPDEST POP JUMP JUMPDEST PUSH0 DUP2 SWAP1 POP SWAP2 SWAP1 POP JUMP JUMPDEST DUP1 PUSH2 0x38A PUSH32 0xB53127684A568B3173AE13B9F8A6016E243E63B6E8EE1178D6A717850B5D6103 PUSH0 SHL PUSH2 0x355 JUMP JUMPDEST PUSH0 ADD PUSH0 PUSH2 0x100 EXP DUP2 SLOAD DUP2 PUSH20 0xFFFFFFFFFFFFFFFFFFFFFFFFFFFFFFFFFFFFFFFF MUL NOT AND SWAP1 DUP4 PUSH20 0xFFFFFFFFFFFFFFFFFFFFFFFFFFFFFFFFFFFFFFFF AND MUL OR SWAP1 SSTORE POP POP JUMP JUMPDEST PUSH0 DUP1 REVERT JUMPDEST PUSH0 PUSH20 0xFFFFFFFFFFFFFFFFFFFFFFFFFFFFFFFFFFFFFFFF DUP3 AND SWAP1 POP SWAP2 SWAP1 POP JUMP JUMPDEST PUSH0 PUSH2 0x3F9 DUP3 PUSH2 0x3D0 JUMP JUMPDEST SWAP1 POP SWAP2 SWAP1 POP JUMP JUMPDEST PUSH2 0x409 DUP2 PUSH2 0x3EF JUMP JUMPDEST DUP2 EQ PUSH2 0x413 JUMPI PUSH0 DUP1 REVERT JUMPDEST POP JUMP JUMPDEST PUSH0 DUP2 CALLDATALOAD SWAP1 POP PUSH2 0x424 DUP2 PUSH2 0x400 JUMP JUMPDEST SWAP3 SWAP2 POP POP JUMP JUMPDEST PUSH0 PUSH1 0x20 DUP3 DUP5 SUB SLT ISZERO PUSH2 0x43F JUMPI PUSH2 0x43E PUSH2 0x3CC JUMP JUMPDEST JUMPDEST PUSH0 PUSH2 0x44C DUP5 DUP3 DUP6 ADD PUSH2 0x416 JUMP JUMPDEST SWAP2 POP POP SWAP3 SWAP2 POP POP JUMP JUMPDEST PUSH0 DUP3 DUP3 MSTORE PUSH1 0x20 DUP3 ADD SWAP1 POP SWAP3 SWAP2 POP POP JUMP JUMPDEST PUSH32 0x6F6E6C792061646D696E2063616E2063616C6C20746869730000000000000000 PUSH0 DUP3 ADD MSTORE POP JUMP JUMPDEST PUSH0 PUSH2 0x499 PUSH1 0x18 DUP4 PUSH2 0x455 JUMP JUMPDEST SWAP2 POP PUSH2 0x4A4 DUP3 PUSH2 0x465 JUMP JUMPDEST PUSH1 0x20 DUP3 ADD SWAP1 POP SWAP2 SWAP1 POP JUMP JUMPDEST PUSH0 PUSH1 0x20 DUP3 ADD SWAP1 POP DUP2 DUP2 SUB PUSH0 DUP4 ADD MSTORE PUSH2 0x4C6 DUP2 PUSH2 0x48D JUMP JUMPDEST SWAP1 POP SWAP2 SWAP1 POP JUMP INVALID LOG2 PUSH5 0x6970667358 0x22 SLT KECCAK256 CREATE 0xB2 PUSH18 0x390798943E7810983271007F8F7E0E88EA08 0xF6 CALLER 0xB9 0xE1 0x4B 0xD9 0xD1 0xCE 0x4E 0xBB CALLVALUE PUSH5 0x736F6C6343 STOP ADDMOD BYTE STOP CALLER "
				},
				"gasEstimates": {
					"creation": {
						"codeDepositCost": "256600",
						"executionCost": "infinite",
						"totalCost": "infinite"
					},
					"external": {
						"": "infinite",
						"changeAdmin(address)": "infinite",
						"upgradeLogicAddress(address)": "infinite"
					}
				},
				"methodIdentifiers": {
					"changeAdmin(address)": "8f283970",
					"upgradeLogicAddress(address)": "629d89d2"
				}
			},
			"storageLayout": {
				"storage": [],
				"types": null
			},
			"userdoc": {
				"kind": "user",
				"methods": {},
				"version": 1
			}
		}
	}
}