{
	"contracts/MyUpgradeProxy.sol": {
		"LogicV2": {
			"abi": [
				{
					"inputs": [],
					"name": "decrea",
					"outputs": [],
					"stateMutability": "nonpayable",
					"type": "function"
				},
				{
					"inputs": [],
					"name": "getCounter",
					"outputs": [
						{
							"internalType": "uint256",
							"name": "",
							"type": "uint256"
						}
					],
					"stateMutability": "view",
					"type": "function"
				},
				{
					"inputs": [],
					"name": "increa",
					"outputs": [],
					"stateMutability": "nonpayable",
					"type": "function"
				},
				{
					"inputs": [
						{
							"internalType": "uint256",
							"name": "num",
							"type": "uint256"
						}
					],
					"name": "increaBy",
					"outputs": [],
					"stateMutability": "nonpayable",
					"type": "function"
				}
			],
			"devdoc": {
				"kind": "dev",
				"methods": {},
				"version": 1
			},
			"evm": {
				"assembly": "    /* \"contracts/MyUpgradeProxy.sol\":1774:2105  contract LogicV2 {... */\n  mstore(0x40, 0x80)\n  callvalue\n  dup1\n  iszero\n  tag_1\n  jumpi\n  0x00\n  dup1\n  revert\ntag_1:\n  pop\n  dataSize(sub_0)\n  dup1\n  dataOffset(sub_0)\n  0x00\n  codecopy\n  0x00\n  return\nstop\n\nsub_0: assembly {\n        /* \"contracts/MyUpgradeProxy.sol\":1774:2105  contract LogicV2 {... */\n      mstore(0x40, 0x80)\n      callvalue\n      dup1\n      iszero\n      tag_1\n      jumpi\n      0x00\n      dup1\n      revert\n    tag_1:\n      pop\n      jumpi(tag_2, lt(calldatasize, 0x04))\n      shr(0xe0, calldataload(0x00))\n      dup1\n      0x30bff947\n      eq\n      tag_3\n      jumpi\n      dup1\n      0x8ada066e\n      eq\n      tag_4\n      jumpi\n      dup1\n      0xd1bbbe8f\n      eq\n      tag_5\n      jumpi\n      dup1\n      0xd6d4acb7\n      eq\n      tag_6\n      jumpi\n    tag_2:\n      0x00\n      dup1\n      revert\n        /* \"contracts/MyUpgradeProxy.sol\":1826:1879  function increa() external {... */\n    tag_3:\n      tag_7\n      tag_8\n      jump\t// in\n    tag_7:\n      stop\n        /* \"contracts/MyUpgradeProxy.sol\":2018:2103  function getCounter() external view returns (uint256) {... */\n    tag_4:\n      tag_9\n      tag_10\n      jump\t// in\n    tag_9:\n      mload(0x40)\n      tag_11\n      swap2\n      swap1\n      tag_12\n      jump\t// in\n    tag_11:\n      mload(0x40)\n      dup1\n      swap2\n      sub\n      swap1\n      return\n        /* \"contracts/MyUpgradeProxy.sol\":1960:2013  function decrea() external {... */\n    tag_5:\n      tag_13\n      tag_14\n      jump\t// in\n    tag_13:\n      stop\n        /* \"contracts/MyUpgradeProxy.sol\":1884:1955  function increaBy(uint256 num) external {... */\n    tag_6:\n      tag_15\n      0x04\n      dup1\n      calldatasize\n      sub\n      dup2\n      add\n      swap1\n      tag_16\n      swap2\n      swap1\n      tag_17\n      jump\t// in\n    tag_16:\n      tag_18\n      jump\t// in\n    tag_15:\n      stop\n        /* \"contracts/MyUpgradeProxy.sol\":1826:1879  function increa() external {... */\n    tag_8:\n        /* \"contracts/MyUpgradeProxy.sol\":1863:1870  counter */\n      0x00\n      dup1\n        /* \"contracts/MyUpgradeProxy.sol\":1863:1872  counter++ */\n      dup2\n      sload\n      dup1\n      swap3\n      swap2\n      swap1\n      tag_20\n      swap1\n      tag_21\n      jump\t// in\n    tag_20:\n      swap2\n      swap1\n      pop\n      sstore\n      pop\n        /* \"contracts/MyUpgradeProxy.sol\":1826:1879  function increa() external {... */\n      jump\t// out\n        /* \"contracts/MyUpgradeProxy.sol\":2018:2103  function getCounter() external view returns (uint256) {... */\n    tag_10:\n        /* \"contracts/MyUpgradeProxy.sol\":2063:2070  uint256 */\n      0x00\n        /* \"contracts/MyUpgradeProxy.sol\":2089:2096  counter */\n      dup1\n      sload\n        /* \"contracts/MyUpgradeProxy.sol\":2082:2096  return counter */\n      swap1\n      pop\n        /* \"contracts/MyUpgradeProxy.sol\":2018:2103  function getCounter() external view returns (uint256) {... */\n      swap1\n      jump\t// out\n        /* \"contracts/MyUpgradeProxy.sol\":1960:2013  function decrea() external {... */\n    tag_14:\n        /* \"contracts/MyUpgradeProxy.sol\":1997:2004  counter */\n      0x00\n      dup1\n        /* \"contracts/MyUpgradeProxy.sol\":1997:2006  counter-- */\n      dup2\n      sload\n      dup1\n      swap3\n      swap2\n      swap1\n      tag_24\n      swap1\n      tag_25\n      jump\t// in\n    tag_24:\n      swap2\n      swap1\n      pop\n      sstore\n      pop\n        /* \"contracts/MyUpgradeProxy.sol\":1960:2013  function decrea() external {... */\n      jump\t// out\n        /* \"contracts/MyUpgradeProxy.sol\":1884:1955  function increaBy(uint256 num) external {... */\n    tag_18:\n        /* \"contracts/MyUpgradeProxy.sol\":1945:1948  num */\n      dup1\n        /* \"contracts/MyUpgradeProxy.sol\":1934:1941  counter */\n      0x00\n      dup1\n        /* \"contracts/MyUpgradeProxy.sol\":1934:1948  counter += num */\n      dup3\n      dup3\n      sload\n      tag_27\n      swap2\n      swap1\n      tag_28\n      jump\t// in\n    tag_27:\n      swap3\n      pop\n      pop\n      dup2\n      swap1\n      sstore\n      pop\n        /* \"contracts/MyUpgradeProxy.sol\":1884:1955  function increaBy(uint256 num) external {... */\n      pop\n      jump\t// out\n        /* \"#utility.yul\":7:84   */\n    tag_29:\n        /* \"#utility.yul\":44:51   */\n      0x00\n        /* \"#utility.yul\":73:78   */\n      dup2\n        /* \"#utility.yul\":62:78   */\n      swap1\n      pop\n        /* \"#utility.yul\":7:84   */\n      swap2\n      swap1\n      pop\n      jump\t// out\n        /* \"#utility.yul\":90:208   */\n    tag_30:\n        /* \"#utility.yul\":177:201   */\n      tag_40\n        /* \"#utility.yul\":195:200   */\n      dup2\n        /* \"#utility.yul\":177:201   */\n      tag_29\n      jump\t// in\n    tag_40:\n        /* \"#utility.yul\":172:175   */\n      dup3\n        /* \"#utility.yul\":165:202   */\n      mstore\n        /* \"#utility.yul\":90:208   */\n      pop\n      pop\n      jump\t// out\n        /* \"#utility.yul\":214:436   */\n    tag_12:\n        /* \"#utility.yul\":307:311   */\n      0x00\n        /* \"#utility.yul\":345:347   */\n      0x20\n        /* \"#utility.yul\":334:343   */\n      dup3\n        /* \"#utility.yul\":330:348   */\n      add\n        /* \"#utility.yul\":322:348   */\n      swap1\n      pop\n        /* \"#utility.yul\":358:429   */\n      tag_42\n        /* \"#utility.yul\":426:427   */\n      0x00\n        /* \"#utility.yul\":415:424   */\n      dup4\n        /* \"#utility.yul\":411:428   */\n      add\n        /* \"#utility.yul\":402:408   */\n      dup5\n        /* \"#utility.yul\":358:429   */\n      tag_30\n      jump\t// in\n    tag_42:\n        /* \"#utility.yul\":214:436   */\n      swap3\n      swap2\n      pop\n      pop\n      jump\t// out\n        /* \"#utility.yul\":523:640   */\n    tag_32:\n        /* \"#utility.yul\":632:633   */\n      0x00\n        /* \"#utility.yul\":629:630   */\n      dup1\n        /* \"#utility.yul\":622:634   */\n      revert\n        /* \"#utility.yul\":769:891   */\n    tag_34:\n        /* \"#utility.yul\":842:866   */\n      tag_47\n        /* \"#utility.yul\":860:865   */\n      dup2\n        /* \"#utility.yul\":842:866   */\n      tag_29\n      jump\t// in\n    tag_47:\n        /* \"#utility.yul\":835:840   */\n      dup2\n        /* \"#utility.yul\":832:867   */\n      eq\n        /* \"#utility.yul\":822:885   */\n      tag_48\n      jumpi\n        /* \"#utility.yul\":881:882   */\n      0x00\n        /* \"#utility.yul\":878:879   */\n      dup1\n        /* \"#utility.yul\":871:883   */\n      revert\n        /* \"#utility.yul\":822:885   */\n    tag_48:\n        /* \"#utility.yul\":769:891   */\n      pop\n      jump\t// out\n        /* \"#utility.yul\":897:1036   */\n    tag_35:\n        /* \"#utility.yul\":943:948   */\n      0x00\n        /* \"#utility.yul\":981:987   */\n      dup2\n        /* \"#utility.yul\":968:988   */\n      calldataload\n        /* \"#utility.yul\":959:988   */\n      swap1\n      pop\n        /* \"#utility.yul\":997:1030   */\n      tag_50\n        /* \"#utility.yul\":1024:1029   */\n      dup2\n        /* \"#utility.yul\":997:1030   */\n      tag_34\n      jump\t// in\n    tag_50:\n        /* \"#utility.yul\":897:1036   */\n      swap3\n      swap2\n      pop\n      pop\n      jump\t// out\n        /* \"#utility.yul\":1042:1371   */\n    tag_17:\n        /* \"#utility.yul\":1101:1107   */\n      0x00\n        /* \"#utility.yul\":1150:1152   */\n      0x20\n        /* \"#utility.yul\":1138:1147   */\n      dup3\n        /* \"#utility.yul\":1129:1136   */\n      dup5\n        /* \"#utility.yul\":1125:1148   */\n      sub\n        /* \"#utility.yul\":1121:1153   */\n      slt\n        /* \"#utility.yul\":1118:1237   */\n      iszero\n      tag_52\n      jumpi\n        /* \"#utility.yul\":1156:1235   */\n      tag_53\n      tag_32\n      jump\t// in\n    tag_53:\n        /* \"#utility.yul\":1118:1237   */\n    tag_52:\n        /* \"#utility.yul\":1276:1277   */\n      0x00\n        /* \"#utility.yul\":1301:1354   */\n      tag_54\n        /* \"#utility.yul\":1346:1353   */\n      dup5\n        /* \"#utility.yul\":1337:1343   */\n      dup3\n        /* \"#utility.yul\":1326:1335   */\n      dup6\n        /* \"#utility.yul\":1322:1344   */\n      add\n        /* \"#utility.yul\":1301:1354   */\n      tag_35\n      jump\t// in\n    tag_54:\n        /* \"#utility.yul\":1291:1354   */\n      swap2\n      pop\n        /* \"#utility.yul\":1247:1364   */\n      pop\n        /* \"#utility.yul\":1042:1371   */\n      swap3\n      swap2\n      pop\n      pop\n      jump\t// out\n        /* \"#utility.yul\":1377:1557   */\n    tag_36:\n        /* \"#utility.yul\":1425:1502   */\n      0x4e487b7100000000000000000000000000000000000000000000000000000000\n        /* \"#utility.yul\":1422:1423   */\n      0x00\n        /* \"#utility.yul\":1415:1503   */\n      mstore\n        /* \"#utility.yul\":1522:1526   */\n      0x11\n        /* \"#utility.yul\":1519:1520   */\n      0x04\n        /* \"#utility.yul\":1512:1527   */\n      mstore\n        /* \"#utility.yul\":1546:1550   */\n      0x24\n        /* \"#utility.yul\":1543:1544   */\n      0x00\n        /* \"#utility.yul\":1536:1551   */\n      revert\n        /* \"#utility.yul\":1563:1796   */\n    tag_21:\n        /* \"#utility.yul\":1602:1605   */\n      0x00\n        /* \"#utility.yul\":1625:1649   */\n      tag_57\n        /* \"#utility.yul\":1643:1648   */\n      dup3\n        /* \"#utility.yul\":1625:1649   */\n      tag_29\n      jump\t// in\n    tag_57:\n        /* \"#utility.yul\":1616:1649   */\n      swap2\n      pop\n        /* \"#utility.yul\":1671:1737   */\n      0xffffffffffffffffffffffffffffffffffffffffffffffffffffffffffffffff\n        /* \"#utility.yul\":1664:1669   */\n      dup3\n        /* \"#utility.yul\":1661:1738   */\n      sub\n        /* \"#utility.yul\":1658:1761   */\n      tag_58\n      jumpi\n        /* \"#utility.yul\":1741:1759   */\n      tag_59\n      tag_36\n      jump\t// in\n    tag_59:\n        /* \"#utility.yul\":1658:1761   */\n    tag_58:\n        /* \"#utility.yul\":1788:1789   */\n      0x01\n        /* \"#utility.yul\":1781:1786   */\n      dup3\n        /* \"#utility.yul\":1777:1790   */\n      add\n        /* \"#utility.yul\":1770:1790   */\n      swap1\n      pop\n        /* \"#utility.yul\":1563:1796   */\n      swap2\n      swap1\n      pop\n      jump\t// out\n        /* \"#utility.yul\":1802:1973   */\n    tag_25:\n        /* \"#utility.yul\":1841:1844   */\n      0x00\n        /* \"#utility.yul\":1864:1888   */\n      tag_61\n        /* \"#utility.yul\":1882:1887   */\n      dup3\n        /* \"#utility.yul\":1864:1888   */\n      tag_29\n      jump\t// in\n    tag_61:\n        /* \"#utility.yul\":1855:1888   */\n      swap2\n      pop\n        /* \"#utility.yul\":1910:1914   */\n      0x00\n        /* \"#utility.yul\":1903:1908   */\n      dup3\n        /* \"#utility.yul\":1900:1915   */\n      sub\n        /* \"#utility.yul\":1897:1938   */\n      tag_62\n      jumpi\n        /* \"#utility.yul\":1918:1936   */\n      tag_63\n      tag_36\n      jump\t// in\n    tag_63:\n        /* \"#utility.yul\":1897:1938   */\n    tag_62:\n        /* \"#utility.yul\":1965:1966   */\n      0x01\n        /* \"#utility.yul\":1958:1963   */\n      dup3\n        /* \"#utility.yul\":1954:1967   */\n      sub\n        /* \"#utility.yul\":1947:1967   */\n      swap1\n      pop\n        /* \"#utility.yul\":1802:1973   */\n      swap2\n      swap1\n      pop\n      jump\t// out\n        /* \"#utility.yul\":1979:2170   */\n    tag_28:\n        /* \"#utility.yul\":2019:2022   */\n      0x00\n        /* \"#utility.yul\":2038:2058   */\n      tag_65\n        /* \"#utility.yul\":2056:2057   */\n      dup3\n        /* \"#utility.yul\":2038:2058   */\n      tag_29\n      jump\t// in\n    tag_65:\n        /* \"#utility.yul\":2033:2058   */\n      swap2\n      pop\n        /* \"#utility.yul\":2072:2092   */\n      tag_66\n        /* \"#utility.yul\":2090:2091   */\n      dup4\n        /* \"#utility.yul\":2072:2092   */\n      tag_29\n      jump\t// in\n    tag_66:\n        /* \"#utility.yul\":2067:2092   */\n      swap3\n      pop\n        /* \"#utility.yul\":2115:2116   */\n      dup3\n        /* \"#utility.yul\":2112:2113   */\n      dup3\n        /* \"#utility.yul\":2108:2117   */\n      add\n        /* \"#utility.yul\":2101:2117   */\n      swap1\n      pop\n        /* \"#utility.yul\":2136:2139   */\n      dup1\n        /* \"#utility.yul\":2133:2134   */\n      dup3\n        /* \"#utility.yul\":2130:2140   */\n      gt\n        /* \"#utility.yul\":2127:2163   */\n      iszero\n      tag_67\n      jumpi\n        /* \"#utility.yul\":2143:2161   */\n      tag_68\n      tag_36\n      jump\t// in\n    tag_68:\n        /* \"#utility.yul\":2127:2163   */\n    tag_67:\n        /* \"#utility.yul\":1979:2170   */\n      swap3\n      swap2\n      pop\n      pop\n      jump\t// out\n\n    auxdata: 0xa2646970667358221220f8bffd3b65bf2b360dd71e7614807c545d32f77434fdff784106ebbc7d11020c64736f6c634300081a0033\n}\n",
				"bytecode": {
					"linkReferences": {},
					"object": "6080604052348015600e575f80fd5b5061027c8061001c5f395ff3fe608060405234801561000f575f80fd5b506004361061004a575f3560e01c806330bff9471461004e5780638ada066e14610058578063d1bbbe8f14610076578063d6d4acb714610080575b5f80fd5b61005661009c565b005b6100606100b4565b60405161006d9190610106565b60405180910390f35b61007e6100bc565b005b61009a6004803603810190610095919061014d565b6100d4565b005b5f808154809291906100ad906101a5565b9190505550565b5f8054905090565b5f808154809291906100cd906101ec565b9190505550565b805f808282546100e49190610213565b9250508190555050565b5f819050919050565b610100816100ee565b82525050565b5f6020820190506101195f8301846100f7565b92915050565b5f80fd5b61012c816100ee565b8114610136575f80fd5b50565b5f8135905061014781610123565b92915050565b5f602082840312156101625761016161011f565b5b5f61016f84828501610139565b91505092915050565b7f4e487b71000000000000000000000000000000000000000000000000000000005f52601160045260245ffd5b5f6101af826100ee565b91507fffffffffffffffffffffffffffffffffffffffffffffffffffffffffffffffff82036101e1576101e0610178565b5b600182019050919050565b5f6101f6826100ee565b91505f820361020857610207610178565b5b600182039050919050565b5f61021d826100ee565b9150610228836100ee565b92508282019050808211156102405761023f610178565b5b9291505056fea2646970667358221220f8bffd3b65bf2b360dd71e7614807c545d32f77434fdff784106ebbc7d11020c64736f6c634300081a0033",
					"opcodes": "PUSH1 0x80 PUSH1 0x40 MSTORE CALLVALUE DUP1 ISZERO PUSH1 0xE JUMPI PUSH0 DUP1 REVERT JUMPDEST POP PUSH2 0x27C DUP1 PUSH2 0x1C PUSH0 CODECOPY PUSH0 RETURN INVALID PUSH1 0x80 PUSH1 0x40 MSTORE CALLVALUE DUP1 ISZERO PUSH2 0xF JUMPI PUSH0 DUP1 REVERT JUMPDEST POP PUSH1 0x4 CALLDATASIZE LT PUSH2 0x4A JUMPI PUSH0 CALLDATALOAD PUSH1 0xE0 SHR DUP1 PUSH4 0x30BFF947 EQ PUSH2 0x4E JUMPI DUP1 PUSH4 0x8ADA066E EQ PUSH2 0x58 JUMPI DUP1 PUSH4 0xD1BBBE8F EQ PUSH2 0x76 JUMPI DUP1 PUSH4 0xD6D4ACB7 EQ PUSH2 0x80 JUMPI JUMPDEST PUSH0 DUP1 REVERT JUMPDEST PUSH2 0x56 PUSH2 0x9C JUMP JUMPDEST STOP JUMPDEST PUSH2 0x60 PUSH2 0xB4 JUMP JUMPDEST PUSH1 0x40 MLOAD PUSH2 0x6D SWAP2 SWAP1 PUSH2 0x106 JUMP JUMPDEST PUSH1 0x40 MLOAD DUP1 SWAP2 SUB SWAP1 RETURN JUMPDEST PUSH2 0x7E PUSH2 0xBC JUMP JUMPDEST STOP JUMPDEST PUSH2 0x9A PUSH1 0x4 DUP1 CALLDATASIZE SUB DUP2 ADD SWAP1 PUSH2 0x95 SWAP2 SWAP1 PUSH2 0x14D JUMP JUMPDEST PUSH2 0xD4 JUMP JUMPDEST STOP JUMPDEST PUSH0 DUP1 DUP2 SLOAD DUP1 SWAP3 SWAP2 SWAP1 PUSH2 0xAD SWAP1 PUSH2 0x1A5 JUMP JUMPDEST SWAP2 SWAP1 POP SSTORE POP JUMP JUMPDEST PUSH0 DUP1 SLOAD SWAP1 POP SWAP1 JUMP JUMPDEST PUSH0 DUP1 DUP2 SLOAD DUP1 SWAP3 SWAP2 SWAP1 PUSH2 0xCD SWAP1 PUSH2 0x1EC JUMP JUMPDEST SWAP2 SWAP1 POP SSTORE POP JUMP JUMPDEST DUP1 PUSH0 DUP1 DUP3 DUP3 SLOAD PUSH2 0xE4 SWAP2 SWAP1 PUSH2 0x213 JUMP JUMPDEST SWAP3 POP POP DUP2 SWAP1 SSTORE POP POP JUMP JUMPDEST PUSH0 DUP2 SWAP1 POP SWAP2 SWAP1 POP JUMP JUMPDEST PUSH2 0x100 DUP2 PUSH2 0xEE JUMP JUMPDEST DUP3 MSTORE POP POP JUMP JUMPDEST PUSH0 PUSH1 0x20 DUP3 ADD SWAP1 POP PUSH2 0x119 PUSH0 DUP4 ADD DUP5 PUSH2 0xF7 JUMP JUMPDEST SWAP3 SWAP2 POP POP JUMP JUMPDEST PUSH0 DUP1 REVERT JUMPDEST PUSH2 0x12C DUP2 PUSH2 0xEE JUMP JUMPDEST DUP2 EQ PUSH2 0x136 JUMPI PUSH0 DUP1 REVERT JUMPDEST POP JUMP JUMPDEST PUSH0 DUP2 CALLDATALOAD SWAP1 POP PUSH2 0x147 DUP2 PUSH2 0x123 JUMP JUMPDEST SWAP3 SWAP2 POP POP JUMP JUMPDEST PUSH0 PUSH1 0x20 DUP3 DUP5 SUB SLT ISZERO PUSH2 0x162 JUMPI PUSH2 0x161 PUSH2 0x11F JUMP JUMPDEST JUMPDEST PUSH0 PUSH2 0x16F DUP5 DUP3 DUP6 ADD PUSH2 0x139 JUMP JUMPDEST SWAP2 POP POP SWAP3 SWAP2 POP POP JUMP JUMPDEST PUSH32 0x4E487B7100000000000000000000000000000000000000000000000000000000 PUSH0 MSTORE PUSH1 0x11 PUSH1 0x4 MSTORE PUSH1 0x24 PUSH0 REVERT JUMPDEST PUSH0 PUSH2 0x1AF DUP3 PUSH2 0xEE JUMP JUMPDEST SWAP2 POP PUSH32 0xFFFFFFFFFFFFFFFFFFFFFFFFFFFFFFFFFFFFFFFFFFFFFFFFFFFFFFFFFFFFFFFF DUP3 SUB PUSH2 0x1E1 JUMPI PUSH2 0x1E0 PUSH2 0x178 JUMP JUMPDEST JUMPDEST PUSH1 0x1 DUP3 ADD SWAP1 POP SWAP2 SWAP1 POP JUMP JUMPDEST PUSH0 PUSH2 0x1F6 DUP3 PUSH2 0xEE JUMP JUMPDEST SWAP2 POP PUSH0 DUP3 SUB PUSH2 0x208 JUMPI PUSH2 0x207 PUSH2 0x178 JUMP JUMPDEST JUMPDEST PUSH1 0x1 DUP3 SUB SWAP1 POP SWAP2 SWAP1 POP JUMP JUMPDEST PUSH0 PUSH2 0x21D DUP3 PUSH2 0xEE JUMP JUMPDEST SWAP2 POP PUSH2 0x228 DUP4 PUSH2 0xEE JUMP JUMPDEST SWAP3 POP DUP3 DUP3 ADD SWAP1 POP DUP1 DUP3 GT ISZERO PUSH2 0x240 JUMPI PUSH2 0x23F PUSH2 0x178 JUMP JUMPDEST JUMPDEST SWAP3 SWAP2 POP POP JUMP INVALID LOG2 PUSH5 0x6970667358 0x22 SLT KECCAK256 0xF8 0xBF REVERT EXTCODESIZE PUSH6 0xBF2B360DD71E PUSH23 0x14807C545D32F77434FDFF784106EBBC7D11020C64736F PUSH13 0x634300081A0033000000000000 "
				},
				"gasEstimates": {
					"creation": {
						"codeDepositCost": "127200",
						"executionCost": "169",
						"totalCost": "127369"
					},
					"external": {
						"decrea()": "24518",
						"getCounter()": "2432",
						"increa()": "24475",
						"increaBy(uint256)": "infinite"
					}
				},
				"methodIdentifiers": {
					"decrea()": "d1bbbe8f",
					"getCounter()": "8ada066e",
					"increa()": "30bff947",
					"increaBy(uint256)": "d6d4acb7"
				}
			},
			"storageLayout": {
				"storage": [
					{
						"astId": 456,
						"contract": "contracts/MyUpgradeProxy.sol:LogicV2",
						"label": "counter",
						"offset": 0,
						"slot": "0",
						"type": "t_uint256"
					}
				],
				"types": {
					"t_uint256": {
						"encoding": "inplace",
						"label": "uint256",
						"numberOfBytes": "32"
					}
				}
			},
			"userdoc": {
				"kind": "user",
				"methods": {},
				"version": 1
			}
		}
	}
}