{
	"contracts/Student.sol": {
		"Person": {
			"abi": [
				{
					"anonymous": false,
					"inputs": [
						{
							"indexed": false,
							"internalType": "string",
							"name": "message",
							"type": "string"
						}
					],
					"name": "Log",
					"type": "event"
				},
				{
					"inputs": [],
					"name": "breath",
					"outputs": [],
					"stateMutability": "nonpayable",
					"type": "function"
				},
				{
					"inputs": [],
					"name": "sounds",
					"outputs": [],
					"stateMutability": "nonpayable",
					"type": "function"
				}
			],
			"devdoc": {
				"kind": "dev",
				"methods": {},
				"version": 1
			},
			"evm": {
				"assembly": "    /* \"contracts/Student.sol\":351:464  contract Person is Animal {... */\n  mstore(0x40, 0x80)\n  callvalue\n  dup1\n  iszero\n  tag_1\n  jumpi\n  0x00\n  dup1\n  revert\ntag_1:\n  pop\n  dataSize(sub_0)\n  dup1\n  dataOffset(sub_0)\n  0x00\n  codecopy\n  0x00\n  return\nstop\n\nsub_0: assembly {\n        /* \"contracts/Student.sol\":351:464  contract Person is Animal {... */\n      mstore(0x40, 0x80)\n      callvalue\n      dup1\n      iszero\n      tag_1\n      jumpi\n      0x00\n      dup1\n      revert\n    tag_1:\n      pop\n      jumpi(tag_2, lt(calldatasize, 0x04))\n      shr(0xe0, calldataload(0x00))\n      dup1\n      0x1b7d5d1d\n      eq\n      tag_3\n      jumpi\n      dup1\n      0x27873657\n      eq\n      tag_4\n      jumpi\n    tag_2:\n      0x00\n      dup1\n      revert\n        /* \"contracts/Student.sol\":145:222  function breath() public {... */\n    tag_3:\n      tag_5\n      tag_6\n      jump\t// in\n    tag_5:\n      stop\n        /* \"contracts/Student.sol\":383:462  function sounds() public virtual override {... */\n    tag_4:\n      tag_7\n      tag_8\n      jump\t// in\n    tag_7:\n      stop\n        /* \"contracts/Student.sol\":145:222  function breath() public {... */\n    tag_6:\n        /* \"contracts/Student.sol\":185:215  Log(\"every animal can breath\") */\n      0xcf34ef537ac33ee1ac626ca1587a0a7e8e51561e5514f8cb36afa1c5102b3bab\n      mload(0x40)\n      tag_10\n      swap1\n      tag_11\n      jump\t// in\n    tag_10:\n      mload(0x40)\n      dup1\n      swap2\n      sub\n      swap1\n      log1\n        /* \"contracts/Student.sol\":145:222  function breath() public {... */\n      jump\t// out\n        /* \"contracts/Student.sol\":383:462  function sounds() public virtual override {... */\n    tag_8:\n        /* \"contracts/Student.sol\":440:455  Log(\"language\") */\n      0xcf34ef537ac33ee1ac626ca1587a0a7e8e51561e5514f8cb36afa1c5102b3bab\n      mload(0x40)\n      tag_13\n      swap1\n      tag_14\n      jump\t// in\n    tag_13:\n      mload(0x40)\n      dup1\n      swap2\n      sub\n      swap1\n      log1\n        /* \"contracts/Student.sol\":383:462  function sounds() public virtual override {... */\n      jump\t// out\n        /* \"#utility.yul\":7:176   */\n    tag_15:\n        /* \"#utility.yul\":91:102   */\n      0x00\n        /* \"#utility.yul\":125:131   */\n      dup3\n        /* \"#utility.yul\":120:123   */\n      dup3\n        /* \"#utility.yul\":113:132   */\n      mstore\n        /* \"#utility.yul\":165:169   */\n      0x20\n        /* \"#utility.yul\":160:163   */\n      dup3\n        /* \"#utility.yul\":156:170   */\n      add\n        /* \"#utility.yul\":141:170   */\n      swap1\n      pop\n        /* \"#utility.yul\":7:176   */\n      swap3\n      swap2\n      pop\n      pop\n      jump\t// out\n        /* \"#utility.yul\":182:355   */\n    tag_16:\n        /* \"#utility.yul\":322:347   */\n      0x657665727920616e696d616c2063616e20627265617468000000000000000000\n        /* \"#utility.yul\":318:319   */\n      0x00\n        /* \"#utility.yul\":310:316   */\n      dup3\n        /* \"#utility.yul\":306:320   */\n      add\n        /* \"#utility.yul\":299:348   */\n      mstore\n        /* \"#utility.yul\":182:355   */\n      pop\n      jump\t// out\n        /* \"#utility.yul\":361:727   */\n    tag_17:\n        /* \"#utility.yul\":503:506   */\n      0x00\n        /* \"#utility.yul\":524:591   */\n      tag_24\n        /* \"#utility.yul\":588:590   */\n      0x17\n        /* \"#utility.yul\":583:586   */\n      dup4\n        /* \"#utility.yul\":524:591   */\n      tag_15\n      jump\t// in\n    tag_24:\n        /* \"#utility.yul\":517:591   */\n      swap2\n      pop\n        /* \"#utility.yul\":600:693   */\n      tag_25\n        /* \"#utility.yul\":689:692   */\n      dup3\n        /* \"#utility.yul\":600:693   */\n      tag_16\n      jump\t// in\n    tag_25:\n        /* \"#utility.yul\":718:720   */\n      0x20\n        /* \"#utility.yul\":713:716   */\n      dup3\n        /* \"#utility.yul\":709:721   */\n      add\n        /* \"#utility.yul\":702:721   */\n      swap1\n      pop\n        /* \"#utility.yul\":361:727   */\n      swap2\n      swap1\n      pop\n      jump\t// out\n        /* \"#utility.yul\":733:1152   */\n    tag_11:\n        /* \"#utility.yul\":899:903   */\n      0x00\n        /* \"#utility.yul\":937:939   */\n      0x20\n        /* \"#utility.yul\":926:935   */\n      dup3\n        /* \"#utility.yul\":922:940   */\n      add\n        /* \"#utility.yul\":914:940   */\n      swap1\n      pop\n        /* \"#utility.yul\":986:995   */\n      dup2\n        /* \"#utility.yul\":980:984   */\n      dup2\n        /* \"#utility.yul\":976:996   */\n      sub\n        /* \"#utility.yul\":972:973   */\n      0x00\n        /* \"#utility.yul\":961:970   */\n      dup4\n        /* \"#utility.yul\":957:974   */\n      add\n        /* \"#utility.yul\":950:997   */\n      mstore\n        /* \"#utility.yul\":1014:1145   */\n      tag_27\n        /* \"#utility.yul\":1140:1144   */\n      dup2\n        /* \"#utility.yul\":1014:1145   */\n      tag_17\n      jump\t// in\n    tag_27:\n        /* \"#utility.yul\":1006:1145   */\n      swap1\n      pop\n        /* \"#utility.yul\":733:1152   */\n      swap2\n      swap1\n      pop\n      jump\t// out\n        /* \"#utility.yul\":1158:1316   */\n    tag_18:\n        /* \"#utility.yul\":1298:1308   */\n      0x6c616e6775616765000000000000000000000000000000000000000000000000\n        /* \"#utility.yul\":1294:1295   */\n      0x00\n        /* \"#utility.yul\":1286:1292   */\n      dup3\n        /* \"#utility.yul\":1282:1296   */\n      add\n        /* \"#utility.yul\":1275:1309   */\n      mstore\n        /* \"#utility.yul\":1158:1316   */\n      pop\n      jump\t// out\n        /* \"#utility.yul\":1322:1687   */\n    tag_19:\n        /* \"#utility.yul\":1464:1467   */\n      0x00\n        /* \"#utility.yul\":1485:1551   */\n      tag_30\n        /* \"#utility.yul\":1549:1550   */\n      0x08\n        /* \"#utility.yul\":1544:1547   */\n      dup4\n        /* \"#utility.yul\":1485:1551   */\n      tag_15\n      jump\t// in\n    tag_30:\n        /* \"#utility.yul\":1478:1551   */\n      swap2\n      pop\n        /* \"#utility.yul\":1560:1653   */\n      tag_31\n        /* \"#utility.yul\":1649:1652   */\n      dup3\n        /* \"#utility.yul\":1560:1653   */\n      tag_18\n      jump\t// in\n    tag_31:\n        /* \"#utility.yul\":1678:1680   */\n      0x20\n        /* \"#utility.yul\":1673:1676   */\n      dup3\n        /* \"#utility.yul\":1669:1681   */\n      add\n        /* \"#utility.yul\":1662:1681   */\n      swap1\n      pop\n        /* \"#utility.yul\":1322:1687   */\n      swap2\n      swap1\n      pop\n      jump\t// out\n        /* \"#utility.yul\":1693:2112   */\n    tag_14:\n        /* \"#utility.yul\":1859:1863   */\n      0x00\n        /* \"#utility.yul\":1897:1899   */\n      0x20\n        /* \"#utility.yul\":1886:1895   */\n      dup3\n        /* \"#utility.yul\":1882:1900   */\n      add\n        /* \"#utility.yul\":1874:1900   */\n      swap1\n      pop\n        /* \"#utility.yul\":1946:1955   */\n      dup2\n        /* \"#utility.yul\":1940:1944   */\n      dup2\n        /* \"#utility.yul\":1936:1956   */\n      sub\n        /* \"#utility.yul\":1932:1933   */\n      0x00\n        /* \"#utility.yul\":1921:1930   */\n      dup4\n        /* \"#utility.yul\":1917:1934   */\n      add\n        /* \"#utility.yul\":1910:1957   */\n      mstore\n        /* \"#utility.yul\":1974:2105   */\n      tag_33\n        /* \"#utility.yul\":2100:2104   */\n      dup2\n        /* \"#utility.yul\":1974:2105   */\n      tag_19\n      jump\t// in\n    tag_33:\n        /* \"#utility.yul\":1966:2105   */\n      swap1\n      pop\n        /* \"#utility.yul\":1693:2112   */\n      swap2\n      swap1\n      pop\n      jump\t// out\n\n    auxdata: 0xa2646970667358221220767ca7a1686d0621198e7d9ad6a2c775207ba9d3388d6c78f54d5e08ee2feb5664736f6c634300081a0033\n}\n",
				"bytecode": {
					"linkReferences": {},
					"object": "6080604052348015600e575f80fd5b506101d08061001c5f395ff3fe608060405234801561000f575f80fd5b5060043610610034575f3560e01c80631b7d5d1d146100385780632787365714610042575b5f80fd5b61004061004c565b005b61004a610083565b005b7fcf34ef537ac33ee1ac626ca1587a0a7e8e51561e5514f8cb36afa1c5102b3bab60405161007990610114565b60405180910390a1565b7fcf34ef537ac33ee1ac626ca1587a0a7e8e51561e5514f8cb36afa1c5102b3bab6040516100b09061017c565b60405180910390a1565b5f82825260208201905092915050565b7f657665727920616e696d616c2063616e206272656174680000000000000000005f82015250565b5f6100fe6017836100ba565b9150610109826100ca565b602082019050919050565b5f6020820190508181035f83015261012b816100f2565b9050919050565b7f6c616e67756167650000000000000000000000000000000000000000000000005f82015250565b5f6101666008836100ba565b915061017182610132565b602082019050919050565b5f6020820190508181035f8301526101938161015a565b905091905056fea2646970667358221220767ca7a1686d0621198e7d9ad6a2c775207ba9d3388d6c78f54d5e08ee2feb5664736f6c634300081a0033",
					"opcodes": "PUSH1 0x80 PUSH1 0x40 MSTORE CALLVALUE DUP1 ISZERO PUSH1 0xE JUMPI PUSH0 DUP1 REVERT JUMPDEST POP PUSH2 0x1D0 DUP1 PUSH2 0x1C PUSH0 CODECOPY PUSH0 RETURN INVALID PUSH1 0x80 PUSH1 0x40 MSTORE CALLVALUE DUP1 ISZERO PUSH2 0xF JUMPI PUSH0 DUP1 REVERT JUMPDEST POP PUSH1 0x4 CALLDATASIZE LT PUSH2 0x34 JUMPI PUSH0 CALLDATALOAD PUSH1 0xE0 SHR DUP1 PUSH4 0x1B7D5D1D EQ PUSH2 0x38 JUMPI DUP1 PUSH4 0x27873657 EQ PUSH2 0x42 JUMPI JUMPDEST PUSH0 DUP1 REVERT JUMPDEST PUSH2 0x40 PUSH2 0x4C JUMP JUMPDEST STOP JUMPDEST PUSH2 0x4A PUSH2 0x83 JUMP JUMPDEST STOP JUMPDEST PUSH32 0xCF34EF537AC33EE1AC626CA1587A0A7E8E51561E5514F8CB36AFA1C5102B3BAB PUSH1 0x40 MLOAD PUSH2 0x79 SWAP1 PUSH2 0x114 JUMP JUMPDEST PUSH1 0x40 MLOAD DUP1 SWAP2 SUB SWAP1 LOG1 JUMP JUMPDEST PUSH32 0xCF34EF537AC33EE1AC626CA1587A0A7E8E51561E5514F8CB36AFA1C5102B3BAB PUSH1 0x40 MLOAD PUSH2 0xB0 SWAP1 PUSH2 0x17C JUMP JUMPDEST PUSH1 0x40 MLOAD DUP1 SWAP2 SUB SWAP1 LOG1 JUMP JUMPDEST PUSH0 DUP3 DUP3 MSTORE PUSH1 0x20 DUP3 ADD SWAP1 POP SWAP3 SWAP2 POP POP JUMP JUMPDEST PUSH32 0x657665727920616E696D616C2063616E20627265617468000000000000000000 PUSH0 DUP3 ADD MSTORE POP JUMP JUMPDEST PUSH0 PUSH2 0xFE PUSH1 0x17 DUP4 PUSH2 0xBA JUMP JUMPDEST SWAP2 POP PUSH2 0x109 DUP3 PUSH2 0xCA JUMP JUMPDEST PUSH1 0x20 DUP3 ADD SWAP1 POP SWAP2 SWAP1 POP JUMP JUMPDEST PUSH0 PUSH1 0x20 DUP3 ADD SWAP1 POP DUP2 DUP2 SUB PUSH0 DUP4 ADD MSTORE PUSH2 0x12B DUP2 PUSH2 0xF2 JUMP JUMPDEST SWAP1 POP SWAP2 SWAP1 POP JUMP JUMPDEST PUSH32 0x6C616E6775616765000000000000000000000000000000000000000000000000 PUSH0 DUP3 ADD MSTORE POP JUMP JUMPDEST PUSH0 PUSH2 0x166 PUSH1 0x8 DUP4 PUSH2 0xBA JUMP JUMPDEST SWAP2 POP PUSH2 0x171 DUP3 PUSH2 0x132 JUMP JUMPDEST PUSH1 0x20 DUP3 ADD SWAP1 POP SWAP2 SWAP1 POP JUMP JUMPDEST PUSH0 PUSH1 0x20 DUP3 ADD SWAP1 POP DUP2 DUP2 SUB PUSH0 DUP4 ADD MSTORE PUSH2 0x193 DUP2 PUSH2 0x15A JUMP JUMPDEST SWAP1 POP SWAP2 SWAP1 POP JUMP INVALID LOG2 PUSH5 0x6970667358 0x22 SLT KECCAK256 PUSH23 0x7CA7A1686D0621198E7D9AD6A2C775207BA9D3388D6C78 CREATE2 0x4D MCOPY ADDMOD 0xEE 0x2F 0xEB JUMP PUSH5 0x736F6C6343 STOP ADDMOD BYTE STOP CALLER "
				},
				"gasEstimates": {
					"creation": {
						"codeDepositCost": "92800",
						"executionCost": "139",
						"totalCost": "92939"
					},
					"external": {
						"breath()": "1918",
						"sounds()": "1940"
					}
				},
				"methodIdentifiers": {
					"breath()": "1b7d5d1d",
					"sounds()": "27873657"
				}
			},
			"storageLayout": {
				"storage": [],
				"types": null
			},
			"userdoc": {
				"kind": "user",
				"methods": {},
				"version": 1
			}
		}
	}
}