{
	"contracts/Student.sol": {
		"Mother": {
			"abi": [
				{
					"inputs": [
						{
							"internalType": "uint256",
							"name": "num",
							"type": "uint256"
						}
					],
					"stateMutability": "nonpayable",
					"type": "constructor"
				},
				{
					"anonymous": false,
					"inputs": [
						{
							"indexed": false,
							"internalType": "string",
							"name": "message",
							"type": "string"
						}
					],
					"name": "Log",
					"type": "event"
				},
				{
					"inputs": [],
					"name": "age",
					"outputs": [
						{
							"internalType": "uint256",
							"name": "",
							"type": "uint256"
						}
					],
					"stateMutability": "view",
					"type": "function"
				},
				{
					"inputs": [],
					"name": "breath",
					"outputs": [],
					"stateMutability": "nonpayable",
					"type": "function"
				},
				{
					"inputs": [],
					"name": "sounds",
					"outputs": [],
					"stateMutability": "nonpayable",
					"type": "function"
				}
			],
			"devdoc": {
				"kind": "dev",
				"methods": {},
				"version": 1
			},
			"evm": {
				"assembly": "    /* \"contracts/Student.sol\":1417:1662  contract Mother is Animal, Person {... */\n  mstore(0x40, 0x80)\n    /* \"contracts/Student.sol\":1509:1557  constructor(uint num) {... */\n  callvalue\n  dup1\n  iszero\n  tag_1\n  jumpi\n  0x00\n  dup1\n  revert\ntag_1:\n  pop\n  mload(0x40)\n  sub(codesize, bytecodeSize)\n  dup1\n  bytecodeSize\n  dup4\n  codecopy\n  dup2\n  dup2\n  add\n  0x40\n  mstore\n  dup2\n  add\n  swap1\n  tag_2\n  swap2\n  swap1\n  tag_3\n  jump\t// in\ntag_2:\n    /* \"contracts/Student.sol\":1547:1550  num */\n  dup1\n    /* \"contracts/Student.sol\":1541:1544  age */\n  0x00\n    /* \"contracts/Student.sol\":1541:1550  age = num */\n  dup2\n  swap1\n  sstore\n  pop\n    /* \"contracts/Student.sol\":1509:1557  constructor(uint num) {... */\n  pop\n    /* \"contracts/Student.sol\":1417:1662  contract Mother is Animal, Person {... */\n  jump(tag_6)\n    /* \"#utility.yul\":88:205   */\ntag_8:\n    /* \"#utility.yul\":197:198   */\n  0x00\n    /* \"#utility.yul\":194:195   */\n  dup1\n    /* \"#utility.yul\":187:199   */\n  revert\n    /* \"#utility.yul\":334:411   */\ntag_10:\n    /* \"#utility.yul\":371:378   */\n  0x00\n    /* \"#utility.yul\":400:405   */\n  dup2\n    /* \"#utility.yul\":389:405   */\n  swap1\n  pop\n    /* \"#utility.yul\":334:411   */\n  swap2\n  swap1\n  pop\n  jump\t// out\n    /* \"#utility.yul\":417:539   */\ntag_11:\n    /* \"#utility.yul\":490:514   */\n  tag_19\n    /* \"#utility.yul\":508:513   */\n  dup2\n    /* \"#utility.yul\":490:514   */\n  tag_10\n  jump\t// in\ntag_19:\n    /* \"#utility.yul\":483:488   */\n  dup2\n    /* \"#utility.yul\":480:515   */\n  eq\n    /* \"#utility.yul\":470:533   */\n  tag_20\n  jumpi\n    /* \"#utility.yul\":529:530   */\n  0x00\n    /* \"#utility.yul\":526:527   */\n  dup1\n    /* \"#utility.yul\":519:531   */\n  revert\n    /* \"#utility.yul\":470:533   */\ntag_20:\n    /* \"#utility.yul\":417:539   */\n  pop\n  jump\t// out\n    /* \"#utility.yul\":545:688   */\ntag_12:\n    /* \"#utility.yul\":602:607   */\n  0x00\n    /* \"#utility.yul\":633:639   */\n  dup2\n    /* \"#utility.yul\":627:640   */\n  mload\n    /* \"#utility.yul\":618:640   */\n  swap1\n  pop\n    /* \"#utility.yul\":649:682   */\n  tag_22\n    /* \"#utility.yul\":676:681   */\n  dup2\n    /* \"#utility.yul\":649:682   */\n  tag_11\n  jump\t// in\ntag_22:\n    /* \"#utility.yul\":545:688   */\n  swap3\n  swap2\n  pop\n  pop\n  jump\t// out\n    /* \"#utility.yul\":694:1045   */\ntag_3:\n    /* \"#utility.yul\":764:770   */\n  0x00\n    /* \"#utility.yul\":813:815   */\n  0x20\n    /* \"#utility.yul\":801:810   */\n  dup3\n    /* \"#utility.yul\":792:799   */\n  dup5\n    /* \"#utility.yul\":788:811   */\n  sub\n    /* \"#utility.yul\":784:816   */\n  slt\n    /* \"#utility.yul\":781:900   */\n  iszero\n  tag_24\n  jumpi\n    /* \"#utility.yul\":819:898   */\n  tag_25\n  tag_8\n  jump\t// in\ntag_25:\n    /* \"#utility.yul\":781:900   */\ntag_24:\n    /* \"#utility.yul\":939:940   */\n  0x00\n    /* \"#utility.yul\":964:1028   */\n  tag_26\n    /* \"#utility.yul\":1020:1027   */\n  dup5\n    /* \"#utility.yul\":1011:1017   */\n  dup3\n    /* \"#utility.yul\":1000:1009   */\n  dup6\n    /* \"#utility.yul\":996:1018   */\n  add\n    /* \"#utility.yul\":964:1028   */\n  tag_12\n  jump\t// in\ntag_26:\n    /* \"#utility.yul\":954:1028   */\n  swap2\n  pop\n    /* \"#utility.yul\":910:1038   */\n  pop\n    /* \"#utility.yul\":694:1045   */\n  swap3\n  swap2\n  pop\n  pop\n  jump\t// out\n    /* \"contracts/Student.sol\":1417:1662  contract Mother is Animal, Person {... */\ntag_6:\n  dataSize(sub_0)\n  dup1\n  dataOffset(sub_0)\n  0x00\n  codecopy\n  0x00\n  return\nstop\n\nsub_0: assembly {\n        /* \"contracts/Student.sol\":1417:1662  contract Mother is Animal, Person {... */\n      mstore(0x40, 0x80)\n      callvalue\n      dup1\n      iszero\n      tag_1\n      jumpi\n      0x00\n      dup1\n      revert\n    tag_1:\n      pop\n      jumpi(tag_2, lt(calldatasize, 0x04))\n      shr(0xe0, calldataload(0x00))\n      dup1\n      0x1b7d5d1d\n      eq\n      tag_3\n      jumpi\n      dup1\n      0x262a9dff\n      eq\n      tag_4\n      jumpi\n      dup1\n      0x27873657\n      eq\n      tag_5\n      jumpi\n    tag_2:\n      0x00\n      dup1\n      revert\n        /* \"contracts/Student.sol\":145:222  function breath() public {... */\n    tag_3:\n      tag_6\n      tag_7\n      jump\t// in\n    tag_6:\n      stop\n        /* \"contracts/Student.sol\":1457:1472  uint public age */\n    tag_4:\n      tag_8\n      tag_9\n      jump\t// in\n    tag_8:\n      mload(0x40)\n      tag_10\n      swap2\n      swap1\n      tag_11\n      jump\t// in\n    tag_10:\n      mload(0x40)\n      dup1\n      swap2\n      sub\n      swap1\n      return\n        /* \"contracts/Student.sol\":1562:1660  function sounds() public virtual override(Animal, Person) {... */\n    tag_5:\n      tag_12\n      tag_13\n      jump\t// in\n    tag_12:\n      stop\n        /* \"contracts/Student.sol\":145:222  function breath() public {... */\n    tag_7:\n        /* \"contracts/Student.sol\":185:215  Log(\"every animal can breath\") */\n      0xcf34ef537ac33ee1ac626ca1587a0a7e8e51561e5514f8cb36afa1c5102b3bab\n      mload(0x40)\n      tag_15\n      swap1\n      tag_16\n      jump\t// in\n    tag_15:\n      mload(0x40)\n      dup1\n      swap2\n      sub\n      swap1\n      log1\n        /* \"contracts/Student.sol\":145:222  function breath() public {... */\n      jump\t// out\n        /* \"contracts/Student.sol\":1457:1472  uint public age */\n    tag_9:\n      sload(0x00)\n      dup2\n      jump\t// out\n        /* \"contracts/Student.sol\":1562:1660  function sounds() public virtual override(Animal, Person) {... */\n    tag_13:\n        /* \"contracts/Student.sol\":1635:1653  Log(\"i am Mother\") */\n      0xcf34ef537ac33ee1ac626ca1587a0a7e8e51561e5514f8cb36afa1c5102b3bab\n      mload(0x40)\n      tag_18\n      swap1\n      tag_19\n      jump\t// in\n    tag_18:\n      mload(0x40)\n      dup1\n      swap2\n      sub\n      swap1\n      log1\n        /* \"contracts/Student.sol\":1562:1660  function sounds() public virtual override(Animal, Person) {... */\n      jump\t// out\n        /* \"#utility.yul\":7:84   */\n    tag_20:\n        /* \"#utility.yul\":44:51   */\n      0x00\n        /* \"#utility.yul\":73:78   */\n      dup2\n        /* \"#utility.yul\":62:78   */\n      swap1\n      pop\n        /* \"#utility.yul\":7:84   */\n      swap2\n      swap1\n      pop\n      jump\t// out\n        /* \"#utility.yul\":90:208   */\n    tag_21:\n        /* \"#utility.yul\":177:201   */\n      tag_30\n        /* \"#utility.yul\":195:200   */\n      dup2\n        /* \"#utility.yul\":177:201   */\n      tag_20\n      jump\t// in\n    tag_30:\n        /* \"#utility.yul\":172:175   */\n      dup3\n        /* \"#utility.yul\":165:202   */\n      mstore\n        /* \"#utility.yul\":90:208   */\n      pop\n      pop\n      jump\t// out\n        /* \"#utility.yul\":214:436   */\n    tag_11:\n        /* \"#utility.yul\":307:311   */\n      0x00\n        /* \"#utility.yul\":345:347   */\n      0x20\n        /* \"#utility.yul\":334:343   */\n      dup3\n        /* \"#utility.yul\":330:348   */\n      add\n        /* \"#utility.yul\":322:348   */\n      swap1\n      pop\n        /* \"#utility.yul\":358:429   */\n      tag_32\n        /* \"#utility.yul\":426:427   */\n      0x00\n        /* \"#utility.yul\":415:424   */\n      dup4\n        /* \"#utility.yul\":411:428   */\n      add\n        /* \"#utility.yul\":402:408   */\n      dup5\n        /* \"#utility.yul\":358:429   */\n      tag_21\n      jump\t// in\n    tag_32:\n        /* \"#utility.yul\":214:436   */\n      swap3\n      swap2\n      pop\n      pop\n      jump\t// out\n        /* \"#utility.yul\":442:611   */\n    tag_22:\n        /* \"#utility.yul\":526:537   */\n      0x00\n        /* \"#utility.yul\":560:566   */\n      dup3\n        /* \"#utility.yul\":555:558   */\n      dup3\n        /* \"#utility.yul\":548:567   */\n      mstore\n        /* \"#utility.yul\":600:604   */\n      0x20\n        /* \"#utility.yul\":595:598   */\n      dup3\n        /* \"#utility.yul\":591:605   */\n      add\n        /* \"#utility.yul\":576:605   */\n      swap1\n      pop\n        /* \"#utility.yul\":442:611   */\n      swap3\n      swap2\n      pop\n      pop\n      jump\t// out\n        /* \"#utility.yul\":617:790   */\n    tag_23:\n        /* \"#utility.yul\":757:782   */\n      0x657665727920616e696d616c2063616e20627265617468000000000000000000\n        /* \"#utility.yul\":753:754   */\n      0x00\n        /* \"#utility.yul\":745:751   */\n      dup3\n        /* \"#utility.yul\":741:755   */\n      add\n        /* \"#utility.yul\":734:783   */\n      mstore\n        /* \"#utility.yul\":617:790   */\n      pop\n      jump\t// out\n        /* \"#utility.yul\":796:1162   */\n    tag_24:\n        /* \"#utility.yul\":938:941   */\n      0x00\n        /* \"#utility.yul\":959:1026   */\n      tag_36\n        /* \"#utility.yul\":1023:1025   */\n      0x17\n        /* \"#utility.yul\":1018:1021   */\n      dup4\n        /* \"#utility.yul\":959:1026   */\n      tag_22\n      jump\t// in\n    tag_36:\n        /* \"#utility.yul\":952:1026   */\n      swap2\n      pop\n        /* \"#utility.yul\":1035:1128   */\n      tag_37\n        /* \"#utility.yul\":1124:1127   */\n      dup3\n        /* \"#utility.yul\":1035:1128   */\n      tag_23\n      jump\t// in\n    tag_37:\n        /* \"#utility.yul\":1153:1155   */\n      0x20\n        /* \"#utility.yul\":1148:1151   */\n      dup3\n        /* \"#utility.yul\":1144:1156   */\n      add\n        /* \"#utility.yul\":1137:1156   */\n      swap1\n      pop\n        /* \"#utility.yul\":796:1162   */\n      swap2\n      swap1\n      pop\n      jump\t// out\n        /* \"#utility.yul\":1168:1587   */\n    tag_16:\n        /* \"#utility.yul\":1334:1338   */\n      0x00\n        /* \"#utility.yul\":1372:1374   */\n      0x20\n        /* \"#utility.yul\":1361:1370   */\n      dup3\n        /* \"#utility.yul\":1357:1375   */\n      add\n        /* \"#utility.yul\":1349:1375   */\n      swap1\n      pop\n        /* \"#utility.yul\":1421:1430   */\n      dup2\n        /* \"#utility.yul\":1415:1419   */\n      dup2\n        /* \"#utility.yul\":1411:1431   */\n      sub\n        /* \"#utility.yul\":1407:1408   */\n      0x00\n        /* \"#utility.yul\":1396:1405   */\n      dup4\n        /* \"#utility.yul\":1392:1409   */\n      add\n        /* \"#utility.yul\":1385:1432   */\n      mstore\n        /* \"#utility.yul\":1449:1580   */\n      tag_39\n        /* \"#utility.yul\":1575:1579   */\n      dup2\n        /* \"#utility.yul\":1449:1580   */\n      tag_24\n      jump\t// in\n    tag_39:\n        /* \"#utility.yul\":1441:1580   */\n      swap1\n      pop\n        /* \"#utility.yul\":1168:1587   */\n      swap2\n      swap1\n      pop\n      jump\t// out\n        /* \"#utility.yul\":1593:1754   */\n    tag_25:\n        /* \"#utility.yul\":1733:1746   */\n      0x6920616d204d6f74686572000000000000000000000000000000000000000000\n        /* \"#utility.yul\":1729:1730   */\n      0x00\n        /* \"#utility.yul\":1721:1727   */\n      dup3\n        /* \"#utility.yul\":1717:1731   */\n      add\n        /* \"#utility.yul\":1710:1747   */\n      mstore\n        /* \"#utility.yul\":1593:1754   */\n      pop\n      jump\t// out\n        /* \"#utility.yul\":1760:2126   */\n    tag_26:\n        /* \"#utility.yul\":1902:1905   */\n      0x00\n        /* \"#utility.yul\":1923:1990   */\n      tag_42\n        /* \"#utility.yul\":1987:1989   */\n      0x0b\n        /* \"#utility.yul\":1982:1985   */\n      dup4\n        /* \"#utility.yul\":1923:1990   */\n      tag_22\n      jump\t// in\n    tag_42:\n        /* \"#utility.yul\":1916:1990   */\n      swap2\n      pop\n        /* \"#utility.yul\":1999:2092   */\n      tag_43\n        /* \"#utility.yul\":2088:2091   */\n      dup3\n        /* \"#utility.yul\":1999:2092   */\n      tag_25\n      jump\t// in\n    tag_43:\n        /* \"#utility.yul\":2117:2119   */\n      0x20\n        /* \"#utility.yul\":2112:2115   */\n      dup3\n        /* \"#utility.yul\":2108:2120   */\n      add\n        /* \"#utility.yul\":2101:2120   */\n      swap1\n      pop\n        /* \"#utility.yul\":1760:2126   */\n      swap2\n      swap1\n      pop\n      jump\t// out\n        /* \"#utility.yul\":2132:2551   */\n    tag_19:\n        /* \"#utility.yul\":2298:2302   */\n      0x00\n        /* \"#utility.yul\":2336:2338   */\n      0x20\n        /* \"#utility.yul\":2325:2334   */\n      dup3\n        /* \"#utility.yul\":2321:2339   */\n      add\n        /* \"#utility.yul\":2313:2339   */\n      swap1\n      pop\n        /* \"#utility.yul\":2385:2394   */\n      dup2\n        /* \"#utility.yul\":2379:2383   */\n      dup2\n        /* \"#utility.yul\":2375:2395   */\n      sub\n        /* \"#utility.yul\":2371:2372   */\n      0x00\n        /* \"#utility.yul\":2360:2369   */\n      dup4\n        /* \"#utility.yul\":2356:2373   */\n      add\n        /* \"#utility.yul\":2349:2396   */\n      mstore\n        /* \"#utility.yul\":2413:2544   */\n      tag_45\n        /* \"#utility.yul\":2539:2543   */\n      dup2\n        /* \"#utility.yul\":2413:2544   */\n      tag_26\n      jump\t// in\n    tag_45:\n        /* \"#utility.yul\":2405:2544   */\n      swap1\n      pop\n        /* \"#utility.yul\":2132:2551   */\n      swap2\n      swap1\n      pop\n      jump\t// out\n\n    auxdata: 0xa2646970667358221220f611e2429fca27f9053100d30ecc4996e28a961fd73202aa3a9c230218a4b4ac64736f6c634300081a0033\n}\n",
				"bytecode": {
					"linkReferences": {},
					"object": "6080604052348015600e575f80fd5b506040516102cd3803806102cd8339818101604052810190602e9190606b565b805f81905550506091565b5f80fd5b5f819050919050565b604d81603d565b81146056575f80fd5b50565b5f815190506065816046565b92915050565b5f60208284031215607d57607c6039565b5b5f6088848285016059565b91505092915050565b61022f8061009e5f395ff3fe608060405234801561000f575f80fd5b506004361061003f575f3560e01c80631b7d5d1d14610043578063262a9dff1461004d578063278736571461006b575b5f80fd5b61004b610075565b005b6100556100ac565b6040516100629190610100565b60405180910390f35b6100736100b1565b005b7fcf34ef537ac33ee1ac626ca1587a0a7e8e51561e5514f8cb36afa1c5102b3bab6040516100a290610173565b60405180910390a1565b5f5481565b7fcf34ef537ac33ee1ac626ca1587a0a7e8e51561e5514f8cb36afa1c5102b3bab6040516100de906101db565b60405180910390a1565b5f819050919050565b6100fa816100e8565b82525050565b5f6020820190506101135f8301846100f1565b92915050565b5f82825260208201905092915050565b7f657665727920616e696d616c2063616e206272656174680000000000000000005f82015250565b5f61015d601783610119565b915061016882610129565b602082019050919050565b5f6020820190508181035f83015261018a81610151565b9050919050565b7f6920616d204d6f746865720000000000000000000000000000000000000000005f82015250565b5f6101c5600b83610119565b91506101d082610191565b602082019050919050565b5f6020820190508181035f8301526101f2816101b9565b905091905056fea2646970667358221220f611e2429fca27f9053100d30ecc4996e28a961fd73202aa3a9c230218a4b4ac64736f6c634300081a0033",
					"opcodes": "PUSH1 0x80 PUSH1 0x40 MSTORE CALLVALUE DUP1 ISZERO PUSH1 0xE JUMPI PUSH0 DUP1 REVERT JUMPDEST POP PUSH1 0x40 MLOAD PUSH2 0x2CD CODESIZE SUB DUP1 PUSH2 0x2CD DUP4 CODECOPY DUP2 DUP2 ADD PUSH1 0x40 MSTORE DUP2 ADD SWAP1 PUSH1 0x2E SWAP2 SWAP1 PUSH1 0x6B JUMP JUMPDEST DUP1 PUSH0 DUP2 SWAP1 SSTORE POP POP PUSH1 0x91 JUMP JUMPDEST PUSH0 DUP1 REVERT JUMPDEST PUSH0 DUP2 SWAP1 POP SWAP2 SWAP1 POP JUMP JUMPDEST PUSH1 0x4D DUP2 PUSH1 0x3D JUMP JUMPDEST DUP2 EQ PUSH1 0x56 JUMPI PUSH0 DUP1 REVERT JUMPDEST POP JUMP JUMPDEST PUSH0 DUP2 MLOAD SWAP1 POP PUSH1 0x65 DUP2 PUSH1 0x46 JUMP JUMPDEST SWAP3 SWAP2 POP POP JUMP JUMPDEST PUSH0 PUSH1 0x20 DUP3 DUP5 SUB SLT ISZERO PUSH1 0x7D JUMPI PUSH1 0x7C PUSH1 0x39 JUMP JUMPDEST JUMPDEST PUSH0 PUSH1 0x88 DUP5 DUP3 DUP6 ADD PUSH1 0x59 JUMP JUMPDEST SWAP2 POP POP SWAP3 SWAP2 POP POP JUMP JUMPDEST PUSH2 0x22F DUP1 PUSH2 0x9E PUSH0 CODECOPY PUSH0 RETURN INVALID PUSH1 0x80 PUSH1 0x40 MSTORE CALLVALUE DUP1 ISZERO PUSH2 0xF JUMPI PUSH0 DUP1 REVERT JUMPDEST POP PUSH1 0x4 CALLDATASIZE LT PUSH2 0x3F JUMPI PUSH0 CALLDATALOAD PUSH1 0xE0 SHR DUP1 PUSH4 0x1B7D5D1D EQ PUSH2 0x43 JUMPI DUP1 PUSH4 0x262A9DFF EQ PUSH2 0x4D JUMPI DUP1 PUSH4 0x27873657 EQ PUSH2 0x6B JUMPI JUMPDEST PUSH0 DUP1 REVERT JUMPDEST PUSH2 0x4B PUSH2 0x75 JUMP JUMPDEST STOP JUMPDEST PUSH2 0x55 PUSH2 0xAC JUMP JUMPDEST PUSH1 0x40 MLOAD PUSH2 0x62 SWAP2 SWAP1 PUSH2 0x100 JUMP JUMPDEST PUSH1 0x40 MLOAD DUP1 SWAP2 SUB SWAP1 RETURN JUMPDEST PUSH2 0x73 PUSH2 0xB1 JUMP JUMPDEST STOP JUMPDEST PUSH32 0xCF34EF537AC33EE1AC626CA1587A0A7E8E51561E5514F8CB36AFA1C5102B3BAB PUSH1 0x40 MLOAD PUSH2 0xA2 SWAP1 PUSH2 0x173 JUMP JUMPDEST PUSH1 0x40 MLOAD DUP1 SWAP2 SUB SWAP1 LOG1 JUMP JUMPDEST PUSH0 SLOAD DUP2 JUMP JUMPDEST PUSH32 0xCF34EF537AC33EE1AC626CA1587A0A7E8E51561E5514F8CB36AFA1C5102B3BAB PUSH1 0x40 MLOAD PUSH2 0xDE SWAP1 PUSH2 0x1DB JUMP JUMPDEST PUSH1 0x40 MLOAD DUP1 SWAP2 SUB SWAP1 LOG1 JUMP JUMPDEST PUSH0 DUP2 SWAP1 POP SWAP2 SWAP1 POP JUMP JUMPDEST PUSH2 0xFA DUP2 PUSH2 0xE8 JUMP JUMPDEST DUP3 MSTORE POP POP JUMP JUMPDEST PUSH0 PUSH1 0x20 DUP3 ADD SWAP1 POP PUSH2 0x113 PUSH0 DUP4 ADD DUP5 PUSH2 0xF1 JUMP JUMPDEST SWAP3 SWAP2 POP POP JUMP JUMPDEST PUSH0 DUP3 DUP3 MSTORE PUSH1 0x20 DUP3 ADD SWAP1 POP SWAP3 SWAP2 POP POP JUMP JUMPDEST PUSH32 0x657665727920616E696D616C2063616E20627265617468000000000000000000 PUSH0 DUP3 ADD MSTORE POP JUMP JUMPDEST PUSH0 PUSH2 0x15D PUSH1 0x17 DUP4 PUSH2 0x119 JUMP JUMPDEST SWAP2 POP PUSH2 0x168 DUP3 PUSH2 0x129 JUMP JUMPDEST PUSH1 0x20 DUP3 ADD SWAP1 POP SWAP2 SWAP1 POP JUMP JUMPDEST PUSH0 PUSH1 0x20 DUP3 ADD SWAP1 POP DUP2 DUP2 SUB PUSH0 DUP4 ADD MSTORE PUSH2 0x18A DUP2 PUSH2 0x151 JUMP JUMPDEST SWAP1 POP SWAP2 SWAP1 POP JUMP JUMPDEST PUSH32 0x6920616D204D6F74686572000000000000000000000000000000000000000000 PUSH0 DUP3 ADD MSTORE POP JUMP JUMPDEST PUSH0 PUSH2 0x1C5 PUSH1 0xB DUP4 PUSH2 0x119 JUMP JUMPDEST SWAP2 POP PUSH2 0x1D0 DUP3 PUSH2 0x191 JUMP JUMPDEST PUSH1 0x20 DUP3 ADD SWAP1 POP SWAP2 SWAP1 POP JUMP JUMPDEST PUSH0 PUSH1 0x20 DUP3 ADD SWAP1 POP DUP2 DUP2 SUB PUSH0 DUP4 ADD MSTORE PUSH2 0x1F2 DUP2 PUSH2 0x1B9 JUMP JUMPDEST SWAP1 POP SWAP2 SWAP1 POP JUMP INVALID LOG2 PUSH5 0x6970667358 0x22 SLT KECCAK256 0xF6 GT 0xE2 TIMESTAMP SWAP16 0xCA 0x27 0xF9 SDIV BALANCE STOP 0xD3 0xE 0xCC BLOBHASH SWAP7 0xE2 DUP11 SWAP7 0x1F 0xD7 ORIGIN MUL 0xAA GASPRICE SWAP13 0x23 MUL XOR LOG4 0xB4 0xAC PUSH5 0x736F6C6343 STOP ADDMOD BYTE STOP CALLER "
				},
				"gasEstimates": {
					"creation": {
						"codeDepositCost": "111800",
						"executionCost": "infinite",
						"totalCost": "infinite"
					},
					"external": {
						"age()": "2424",
						"breath()": "1918",
						"sounds()": "1962"
					}
				},
				"methodIdentifiers": {
					"age()": "262a9dff",
					"breath()": "1b7d5d1d",
					"sounds()": "27873657"
				}
			},
			"storageLayout": {
				"storage": [
					{
						"astId": 84,
						"contract": "contracts/Student.sol:Mother",
						"label": "age",
						"offset": 0,
						"slot": "0",
						"type": "t_uint256"
					}
				],
				"types": {
					"t_uint256": {
						"encoding": "inplace",
						"label": "uint256",
						"numberOfBytes": "32"
					}
				}
			},
			"userdoc": {
				"kind": "user",
				"methods": {},
				"version": 1
			}
		}
	}
}