{
	"contracts/LibERC721.sol": {
		"ERC721BatchTransferFacet": {
			"abi": [
				{
					"anonymous": false,
					"inputs": [
						{
							"indexed": true,
							"internalType": "address",
							"name": "_from",
							"type": "address"
						},
						{
							"indexed": true,
							"internalType": "address",
							"name": "_to",
							"type": "address"
						},
						{
							"indexed": true,
							"internalType": "uint256",
							"name": "_tokenId",
							"type": "uint256"
						}
					],
					"name": "Transfer",
					"type": "event"
				},
				{
					"inputs": [
						{
							"internalType": "address",
							"name": "_from",
							"type": "address"
						},
						{
							"internalType": "address",
							"name": "_to",
							"type": "address"
						},
						{
							"internalType": "uint256[]",
							"name": "_tokenIds",
							"type": "uint256[]"
						}
					],
					"name": "batchTransferFrom",
					"outputs": [],
					"stateMutability": "nonpayable",
					"type": "function"
				}
			],
			"devdoc": {
				"kind": "dev",
				"methods": {},
				"version": 1
			},
			"evm": {
				"assembly": "    /* \"contracts/LibERC721.sol\":3698:3964  contract ERC721BatchTransferFacet {... */\n  mstore(0x40, 0x80)\n  callvalue\n  dup1\n  iszero\n  tag_1\n  jumpi\n  0x00\n  dup1\n  revert\ntag_1:\n  pop\n  dataSize(sub_0)\n  dup1\n  dataOffset(sub_0)\n  0x00\n  codecopy\n  0x00\n  return\nstop\n\nsub_0: assembly {\n        /* \"contracts/LibERC721.sol\":3698:3964  contract ERC721BatchTransferFacet {... */\n      mstore(0x40, 0x80)\n      callvalue\n      dup1\n      iszero\n      tag_1\n      jumpi\n      0x00\n      dup1\n      revert\n    tag_1:\n      pop\n      jumpi(tag_2, lt(calldatasize, 0x04))\n      shr(0xe0, calldataload(0x00))\n      dup1\n      0xf3993d11\n      eq\n      tag_3\n      jumpi\n    tag_2:\n      0x00\n      dup1\n      revert\n        /* \"contracts/LibERC721.sol\":3739:3962  function batchTransferFrom(address _from, address _to, uint256[] calldata _tokenIds) external {... */\n    tag_3:\n      tag_4\n      0x04\n      dup1\n      calldatasize\n      sub\n      dup2\n      add\n      swap1\n      tag_5\n      swap2\n      swap1\n      tag_6\n      jump\t// in\n    tag_5:\n      tag_7\n      jump\t// in\n    tag_4:\n      stop\n    tag_7:\n        /* \"contracts/LibERC721.sol\":3847:3856  uint256 i */\n      0x00\n        /* \"contracts/LibERC721.sol\":3843:3956  for(uint256 i; i < _tokenIds.length; i++) {... */\n    tag_9:\n        /* \"contracts/LibERC721.sol\":3862:3871  _tokenIds */\n      dup3\n      dup3\n        /* \"contracts/LibERC721.sol\":3862:3878  _tokenIds.length */\n      swap1\n      pop\n        /* \"contracts/LibERC721.sol\":3858:3859  i */\n      dup2\n        /* \"contracts/LibERC721.sol\":3858:3878  i < _tokenIds.length */\n      lt\n        /* \"contracts/LibERC721.sol\":3843:3956  for(uint256 i; i < _tokenIds.length; i++) {... */\n      iszero\n      tag_10\n      jumpi\n        /* \"contracts/LibERC721.sol\":3897:3945  LibERC721.transferFrom(_from, _to, _tokenIds[i]) */\n      tag_12\n        /* \"contracts/LibERC721.sol\":3920:3925  _from */\n      dup6\n        /* \"contracts/LibERC721.sol\":3927:3930  _to */\n      dup6\n        /* \"contracts/LibERC721.sol\":3932:3941  _tokenIds */\n      dup6\n      dup6\n        /* \"contracts/LibERC721.sol\":3942:3943  i */\n      dup6\n        /* \"contracts/LibERC721.sol\":3932:3944  _tokenIds[i] */\n      dup2\n      dup2\n      lt\n      tag_13\n      jumpi\n      tag_14\n      tag_15\n      jump\t// in\n    tag_14:\n    tag_13:\n      swap1\n      pop\n      0x20\n      mul\n      add\n      calldataload\n        /* \"contracts/LibERC721.sol\":3897:3919  LibERC721.transferFrom */\n      tag_16\n        /* \"contracts/LibERC721.sol\":3897:3945  LibERC721.transferFrom(_from, _to, _tokenIds[i]) */\n      jump\t// in\n    tag_12:\n        /* \"contracts/LibERC721.sol\":3880:3883  i++ */\n      dup1\n      dup1\n      0x01\n      add\n      swap2\n      pop\n      pop\n        /* \"contracts/LibERC721.sol\":3843:3956  for(uint256 i; i < _tokenIds.length; i++) {... */\n      jump(tag_9)\n    tag_10:\n      pop\n        /* \"contracts/LibERC721.sol\":3739:3962  function batchTransferFrom(address _from, address _to, uint256[] calldata _tokenIds) external {... */\n      pop\n      pop\n      pop\n      pop\n      jump\t// out\n        /* \"contracts/LibERC721.sol\":2254:2716  function transferFrom(address _from, address _to, uint256 _tokenId) internal {... */\n    tag_16:\n        /* \"contracts/LibERC721.sol\":2341:2376  ERC721Storage storage erc721Storage */\n      0x00\n        /* \"contracts/LibERC721.sol\":2379:2401  LibERC721.getStorage() */\n      tag_18\n        /* \"contracts/LibERC721.sol\":2379:2399  LibERC721.getStorage */\n      tag_19\n        /* \"contracts/LibERC721.sol\":2379:2401  LibERC721.getStorage() */\n      jump\t// in\n    tag_18:\n        /* \"contracts/LibERC721.sol\":2341:2401  ERC721Storage storage erc721Storage = LibERC721.getStorage() */\n      swap1\n      pop\n        /* \"contracts/LibERC721.sol\":2411:2429  address tokenOwner */\n      0x00\n        /* \"contracts/LibERC721.sol\":2432:2445  erc721Storage */\n      dup2\n        /* \"contracts/LibERC721.sol\":2432:2460  erc721Storage.tokenIdToOwner */\n      0x00\n      add\n        /* \"contracts/LibERC721.sol\":2432:2470  erc721Storage.tokenIdToOwner[_tokenId] */\n      0x00\n        /* \"contracts/LibERC721.sol\":2461:2469  _tokenId */\n      dup5\n        /* \"contracts/LibERC721.sol\":2432:2470  erc721Storage.tokenIdToOwner[_tokenId] */\n      dup2\n      mstore\n      0x20\n      add\n      swap1\n      dup2\n      mstore\n      0x20\n      add\n      0x00\n      keccak256\n      0x00\n      swap1\n      sload\n      swap1\n      0x0100\n      exp\n      swap1\n      div\n      0xffffffffffffffffffffffffffffffffffffffff\n      and\n        /* \"contracts/LibERC721.sol\":2411:2470  address tokenOwner = erc721Storage.tokenIdToOwner[_tokenId] */\n      swap1\n      pop\n        /* \"contracts/LibERC721.sol\":2502:2507  _from */\n      dup5\n        /* \"contracts/LibERC721.sol\":2488:2507  tokenOwner == _from */\n      0xffffffffffffffffffffffffffffffffffffffff\n      and\n        /* \"contracts/LibERC721.sol\":2488:2498  tokenOwner */\n      dup2\n        /* \"contracts/LibERC721.sol\":2488:2507  tokenOwner == _from */\n      0xffffffffffffffffffffffffffffffffffffffff\n      and\n      eq\n        /* \"contracts/LibERC721.sol\":2480:2508  require(tokenOwner == _from) */\n      tag_20\n      jumpi\n      0x00\n      dup1\n      revert\n    tag_20:\n        /* \"contracts/LibERC721.sol\":2559:2562  _to */\n      dup4\n        /* \"contracts/LibERC721.sol\":2518:2531  erc721Storage */\n      dup3\n        /* \"contracts/LibERC721.sol\":2518:2546  erc721Storage.tokenIdToOwner */\n      0x00\n      add\n        /* \"contracts/LibERC721.sol\":2518:2556  erc721Storage.tokenIdToOwner[_tokenId] */\n      0x00\n        /* \"contracts/LibERC721.sol\":2547:2555  _tokenId */\n      dup6\n        /* \"contracts/LibERC721.sol\":2518:2556  erc721Storage.tokenIdToOwner[_tokenId] */\n      dup2\n      mstore\n      0x20\n      add\n      swap1\n      dup2\n      mstore\n      0x20\n      add\n      0x00\n      keccak256\n      0x00\n        /* \"contracts/LibERC721.sol\":2518:2562  erc721Storage.tokenIdToOwner[_tokenId] = _to */\n      0x0100\n      exp\n      dup2\n      sload\n      dup2\n      0xffffffffffffffffffffffffffffffffffffffff\n      mul\n      not\n      and\n      swap1\n      dup4\n      0xffffffffffffffffffffffffffffffffffffffff\n      and\n      mul\n      or\n      swap1\n      sstore\n      pop\n        /* \"contracts/LibERC721.sol\":2572:2585  erc721Storage */\n      dup2\n        /* \"contracts/LibERC721.sol\":2572:2605  erc721Storage.ownerToNFTokenCount */\n      0x01\n      add\n        /* \"contracts/LibERC721.sol\":2572:2612  erc721Storage.ownerToNFTokenCount[_from] */\n      0x00\n        /* \"contracts/LibERC721.sol\":2606:2611  _from */\n      dup7\n        /* \"contracts/LibERC721.sol\":2572:2612  erc721Storage.ownerToNFTokenCount[_from] */\n      0xffffffffffffffffffffffffffffffffffffffff\n      and\n      0xffffffffffffffffffffffffffffffffffffffff\n      and\n      dup2\n      mstore\n      0x20\n      add\n      swap1\n      dup2\n      mstore\n      0x20\n      add\n      0x00\n      keccak256\n      0x00\n        /* \"contracts/LibERC721.sol\":2572:2614  erc721Storage.ownerToNFTokenCount[_from]-- */\n      dup2\n      sload\n      dup1\n      swap3\n      swap2\n      swap1\n      tag_21\n      swap1\n      tag_22\n      jump\t// in\n    tag_21:\n      swap2\n      swap1\n      pop\n      sstore\n      pop\n        /* \"contracts/LibERC721.sol\":2624:2637  erc721Storage */\n      dup2\n        /* \"contracts/LibERC721.sol\":2624:2657  erc721Storage.ownerToNFTokenCount */\n      0x01\n      add\n        /* \"contracts/LibERC721.sol\":2624:2662  erc721Storage.ownerToNFTokenCount[_to] */\n      0x00\n        /* \"contracts/LibERC721.sol\":2658:2661  _to */\n      dup6\n        /* \"contracts/LibERC721.sol\":2624:2662  erc721Storage.ownerToNFTokenCount[_to] */\n      0xffffffffffffffffffffffffffffffffffffffff\n      and\n      0xffffffffffffffffffffffffffffffffffffffff\n      and\n      dup2\n      mstore\n      0x20\n      add\n      swap1\n      dup2\n      mstore\n      0x20\n      add\n      0x00\n      keccak256\n      0x00\n        /* \"contracts/LibERC721.sol\":2624:2664  erc721Storage.ownerToNFTokenCount[_to]++ */\n      dup2\n      sload\n      dup1\n      swap3\n      swap2\n      swap1\n      tag_23\n      swap1\n      tag_24\n      jump\t// in\n    tag_23:\n      swap2\n      swap1\n      pop\n      sstore\n      pop\n        /* \"contracts/LibERC721.sol\":2700:2708  _tokenId */\n      dup3\n        /* \"contracts/LibERC721.sol\":2695:2698  _to */\n      dup5\n        /* \"contracts/LibERC721.sol\":2679:2709  Transfer(_from, _to, _tokenId) */\n      0xffffffffffffffffffffffffffffffffffffffff\n      and\n        /* \"contracts/LibERC721.sol\":2688:2693  _from */\n      dup7\n        /* \"contracts/LibERC721.sol\":2679:2709  Transfer(_from, _to, _tokenId) */\n      0xffffffffffffffffffffffffffffffffffffffff\n      and\n      0xddf252ad1be2c89b69c2b068fc378daa952ba7f163c4a11628f55a4df523b3ef\n      mload(0x40)\n      mload(0x40)\n      dup1\n      swap2\n      sub\n      swap1\n      log4\n        /* \"contracts/LibERC721.sol\":2331:2716  {... */\n      pop\n      pop\n        /* \"contracts/LibERC721.sol\":2254:2716  function transferFrom(address _from, address _to, uint256 _tokenId) internal {... */\n      pop\n      pop\n      pop\n      jump\t// out\n        /* \"contracts/LibERC721.sol\":1795:2000  function getStorage() internal pure returns (ERC721Storage storage storageStruct) {... */\n    tag_19:\n        /* \"contracts/LibERC721.sol\":1840:1875  ERC721Storage storage storageStruct */\n      0x00\n        /* \"contracts/LibERC721.sol\":1887:1903  bytes32 position */\n      dup1\n        /* \"contracts/LibERC721.sol\":1111:1138  keccak256(\"erc721.storage\") */\n      0x52d8ad91b0e7cfb3886c3394ab0e3d825352290f5f129bc8e3a475db9f93178c\n        /* \"contracts/LibERC721.sol\":1887:1921  bytes32 position = ERC721_POSITION */\n      swap1\n      pop\n        /* \"contracts/LibERC721.sol\":1976:1984  position */\n      dup1\n        /* \"contracts/LibERC721.sol\":1954:1984  storageStruct.slot := position */\n      swap2\n      pop\n        /* \"contracts/LibERC721.sol\":1940:1994  {... */\n      pop\n        /* \"contracts/LibERC721.sol\":1795:2000  function getStorage() internal pure returns (ERC721Storage storage storageStruct) {... */\n      swap1\n      jump\t// out\n        /* \"#utility.yul\":88:205   */\n    tag_27:\n        /* \"#utility.yul\":197:198   */\n      0x00\n        /* \"#utility.yul\":194:195   */\n      dup1\n        /* \"#utility.yul\":187:199   */\n      revert\n        /* \"#utility.yul\":211:328   */\n    tag_28:\n        /* \"#utility.yul\":320:321   */\n      0x00\n        /* \"#utility.yul\":317:318   */\n      dup1\n        /* \"#utility.yul\":310:322   */\n      revert\n        /* \"#utility.yul\":334:460   */\n    tag_29:\n        /* \"#utility.yul\":371:378   */\n      0x00\n        /* \"#utility.yul\":411:453   */\n      0xffffffffffffffffffffffffffffffffffffffff\n        /* \"#utility.yul\":404:409   */\n      dup3\n        /* \"#utility.yul\":400:454   */\n      and\n        /* \"#utility.yul\":389:454   */\n      swap1\n      pop\n        /* \"#utility.yul\":334:460   */\n      swap2\n      swap1\n      pop\n      jump\t// out\n        /* \"#utility.yul\":466:562   */\n    tag_30:\n        /* \"#utility.yul\":503:510   */\n      0x00\n        /* \"#utility.yul\":532:556   */\n      tag_45\n        /* \"#utility.yul\":550:555   */\n      dup3\n        /* \"#utility.yul\":532:556   */\n      tag_29\n      jump\t// in\n    tag_45:\n        /* \"#utility.yul\":521:556   */\n      swap1\n      pop\n        /* \"#utility.yul\":466:562   */\n      swap2\n      swap1\n      pop\n      jump\t// out\n        /* \"#utility.yul\":568:690   */\n    tag_31:\n        /* \"#utility.yul\":641:665   */\n      tag_47\n        /* \"#utility.yul\":659:664   */\n      dup2\n        /* \"#utility.yul\":641:665   */\n      tag_30\n      jump\t// in\n    tag_47:\n        /* \"#utility.yul\":634:639   */\n      dup2\n        /* \"#utility.yul\":631:666   */\n      eq\n        /* \"#utility.yul\":621:684   */\n      tag_48\n      jumpi\n        /* \"#utility.yul\":680:681   */\n      0x00\n        /* \"#utility.yul\":677:678   */\n      dup1\n        /* \"#utility.yul\":670:682   */\n      revert\n        /* \"#utility.yul\":621:684   */\n    tag_48:\n        /* \"#utility.yul\":568:690   */\n      pop\n      jump\t// out\n        /* \"#utility.yul\":696:835   */\n    tag_32:\n        /* \"#utility.yul\":742:747   */\n      0x00\n        /* \"#utility.yul\":780:786   */\n      dup2\n        /* \"#utility.yul\":767:787   */\n      calldataload\n        /* \"#utility.yul\":758:787   */\n      swap1\n      pop\n        /* \"#utility.yul\":796:829   */\n      tag_50\n        /* \"#utility.yul\":823:828   */\n      dup2\n        /* \"#utility.yul\":796:829   */\n      tag_31\n      jump\t// in\n    tag_50:\n        /* \"#utility.yul\":696:835   */\n      swap3\n      swap2\n      pop\n      pop\n      jump\t// out\n        /* \"#utility.yul\":841:958   */\n    tag_33:\n        /* \"#utility.yul\":950:951   */\n      0x00\n        /* \"#utility.yul\":947:948   */\n      dup1\n        /* \"#utility.yul\":940:952   */\n      revert\n        /* \"#utility.yul\":964:1081   */\n    tag_34:\n        /* \"#utility.yul\":1073:1074   */\n      0x00\n        /* \"#utility.yul\":1070:1071   */\n      dup1\n        /* \"#utility.yul\":1063:1075   */\n      revert\n        /* \"#utility.yul\":1087:1204   */\n    tag_35:\n        /* \"#utility.yul\":1196:1197   */\n      0x00\n        /* \"#utility.yul\":1193:1194   */\n      dup1\n        /* \"#utility.yul\":1186:1198   */\n      revert\n        /* \"#utility.yul\":1227:1795   */\n    tag_36:\n        /* \"#utility.yul\":1300:1308   */\n      0x00\n        /* \"#utility.yul\":1310:1316   */\n      dup1\n        /* \"#utility.yul\":1360:1363   */\n      dup4\n        /* \"#utility.yul\":1353:1357   */\n      0x1f\n        /* \"#utility.yul\":1345:1351   */\n      dup5\n        /* \"#utility.yul\":1341:1358   */\n      add\n        /* \"#utility.yul\":1337:1364   */\n      slt\n        /* \"#utility.yul\":1327:1449   */\n      tag_55\n      jumpi\n        /* \"#utility.yul\":1368:1447   */\n      tag_56\n      tag_33\n      jump\t// in\n    tag_56:\n        /* \"#utility.yul\":1327:1449   */\n    tag_55:\n        /* \"#utility.yul\":1481:1487   */\n      dup3\n        /* \"#utility.yul\":1468:1488   */\n      calldataload\n        /* \"#utility.yul\":1458:1488   */\n      swap1\n      pop\n        /* \"#utility.yul\":1511:1529   */\n      0xffffffffffffffff\n        /* \"#utility.yul\":1503:1509   */\n      dup2\n        /* \"#utility.yul\":1500:1530   */\n      gt\n        /* \"#utility.yul\":1497:1614   */\n      iszero\n      tag_57\n      jumpi\n        /* \"#utility.yul\":1533:1612   */\n      tag_58\n      tag_34\n      jump\t// in\n    tag_58:\n        /* \"#utility.yul\":1497:1614   */\n    tag_57:\n        /* \"#utility.yul\":1647:1651   */\n      0x20\n        /* \"#utility.yul\":1639:1645   */\n      dup4\n        /* \"#utility.yul\":1635:1652   */\n      add\n        /* \"#utility.yul\":1623:1652   */\n      swap2\n      pop\n        /* \"#utility.yul\":1701:1704   */\n      dup4\n        /* \"#utility.yul\":1693:1697   */\n      0x20\n        /* \"#utility.yul\":1685:1691   */\n      dup3\n        /* \"#utility.yul\":1681:1698   */\n      mul\n        /* \"#utility.yul\":1671:1679   */\n      dup4\n        /* \"#utility.yul\":1667:1699   */\n      add\n        /* \"#utility.yul\":1664:1705   */\n      gt\n        /* \"#utility.yul\":1661:1789   */\n      iszero\n      tag_59\n      jumpi\n        /* \"#utility.yul\":1708:1787   */\n      tag_60\n      tag_35\n      jump\t// in\n    tag_60:\n        /* \"#utility.yul\":1661:1789   */\n    tag_59:\n        /* \"#utility.yul\":1227:1795   */\n      swap3\n      pop\n      swap3\n      swap1\n      pop\n      jump\t// out\n        /* \"#utility.yul\":1801:2650   */\n    tag_6:\n        /* \"#utility.yul\":1905:1911   */\n      0x00\n        /* \"#utility.yul\":1913:1919   */\n      dup1\n        /* \"#utility.yul\":1921:1927   */\n      0x00\n        /* \"#utility.yul\":1929:1935   */\n      dup1\n        /* \"#utility.yul\":1978:1980   */\n      0x60\n        /* \"#utility.yul\":1966:1975   */\n      dup6\n        /* \"#utility.yul\":1957:1964   */\n      dup8\n        /* \"#utility.yul\":1953:1976   */\n      sub\n        /* \"#utility.yul\":1949:1981   */\n      slt\n        /* \"#utility.yul\":1946:2065   */\n      iszero\n      tag_62\n      jumpi\n        /* \"#utility.yul\":1984:2063   */\n      tag_63\n      tag_27\n      jump\t// in\n    tag_63:\n        /* \"#utility.yul\":1946:2065   */\n    tag_62:\n        /* \"#utility.yul\":2104:2105   */\n      0x00\n        /* \"#utility.yul\":2129:2182   */\n      tag_64\n        /* \"#utility.yul\":2174:2181   */\n      dup8\n        /* \"#utility.yul\":2165:2171   */\n      dup3\n        /* \"#utility.yul\":2154:2163   */\n      dup9\n        /* \"#utility.yul\":2150:2172   */\n      add\n        /* \"#utility.yul\":2129:2182   */\n      tag_32\n      jump\t// in\n    tag_64:\n        /* \"#utility.yul\":2119:2182   */\n      swap5\n      pop\n        /* \"#utility.yul\":2075:2192   */\n      pop\n        /* \"#utility.yul\":2231:2233   */\n      0x20\n        /* \"#utility.yul\":2257:2310   */\n      tag_65\n        /* \"#utility.yul\":2302:2309   */\n      dup8\n        /* \"#utility.yul\":2293:2299   */\n      dup3\n        /* \"#utility.yul\":2282:2291   */\n      dup9\n        /* \"#utility.yul\":2278:2300   */\n      add\n        /* \"#utility.yul\":2257:2310   */\n      tag_32\n      jump\t// in\n    tag_65:\n        /* \"#utility.yul\":2247:2310   */\n      swap4\n      pop\n        /* \"#utility.yul\":2202:2320   */\n      pop\n        /* \"#utility.yul\":2387:2389   */\n      0x40\n        /* \"#utility.yul\":2376:2385   */\n      dup6\n        /* \"#utility.yul\":2372:2390   */\n      add\n        /* \"#utility.yul\":2359:2391   */\n      calldataload\n        /* \"#utility.yul\":2418:2436   */\n      0xffffffffffffffff\n        /* \"#utility.yul\":2410:2416   */\n      dup2\n        /* \"#utility.yul\":2407:2437   */\n      gt\n        /* \"#utility.yul\":2404:2521   */\n      iszero\n      tag_66\n      jumpi\n        /* \"#utility.yul\":2440:2519   */\n      tag_67\n      tag_28\n      jump\t// in\n    tag_67:\n        /* \"#utility.yul\":2404:2521   */\n    tag_66:\n        /* \"#utility.yul\":2553:2633   */\n      tag_68\n        /* \"#utility.yul\":2625:2632   */\n      dup8\n        /* \"#utility.yul\":2616:2622   */\n      dup3\n        /* \"#utility.yul\":2605:2614   */\n      dup9\n        /* \"#utility.yul\":2601:2623   */\n      add\n        /* \"#utility.yul\":2553:2633   */\n      tag_36\n      jump\t// in\n    tag_68:\n        /* \"#utility.yul\":2535:2633   */\n      swap3\n      pop\n      swap3\n      pop\n        /* \"#utility.yul\":2330:2643   */\n      pop\n        /* \"#utility.yul\":1801:2650   */\n      swap3\n      swap6\n      swap2\n      swap5\n      pop\n      swap3\n      pop\n      jump\t// out\n        /* \"#utility.yul\":2656:2836   */\n    tag_15:\n        /* \"#utility.yul\":2704:2781   */\n      0x4e487b7100000000000000000000000000000000000000000000000000000000\n        /* \"#utility.yul\":2701:2702   */\n      0x00\n        /* \"#utility.yul\":2694:2782   */\n      mstore\n        /* \"#utility.yul\":2801:2805   */\n      0x32\n        /* \"#utility.yul\":2798:2799   */\n      0x04\n        /* \"#utility.yul\":2791:2806   */\n      mstore\n        /* \"#utility.yul\":2825:2829   */\n      0x24\n        /* \"#utility.yul\":2822:2823   */\n      0x00\n        /* \"#utility.yul\":2815:2830   */\n      revert\n        /* \"#utility.yul\":2842:3022   */\n    tag_37:\n        /* \"#utility.yul\":2890:2967   */\n      0x4e487b7100000000000000000000000000000000000000000000000000000000\n        /* \"#utility.yul\":2887:2888   */\n      0x00\n        /* \"#utility.yul\":2880:2968   */\n      mstore\n        /* \"#utility.yul\":2987:2991   */\n      0x11\n        /* \"#utility.yul\":2984:2985   */\n      0x04\n        /* \"#utility.yul\":2977:2992   */\n      mstore\n        /* \"#utility.yul\":3011:3015   */\n      0x24\n        /* \"#utility.yul\":3008:3009   */\n      0x00\n        /* \"#utility.yul\":3001:3016   */\n      revert\n        /* \"#utility.yul\":3028:3105   */\n    tag_38:\n        /* \"#utility.yul\":3065:3072   */\n      0x00\n        /* \"#utility.yul\":3094:3099   */\n      dup2\n        /* \"#utility.yul\":3083:3099   */\n      swap1\n      pop\n        /* \"#utility.yul\":3028:3105   */\n      swap2\n      swap1\n      pop\n      jump\t// out\n        /* \"#utility.yul\":3111:3282   */\n    tag_22:\n        /* \"#utility.yul\":3150:3153   */\n      0x00\n        /* \"#utility.yul\":3173:3197   */\n      tag_73\n        /* \"#utility.yul\":3191:3196   */\n      dup3\n        /* \"#utility.yul\":3173:3197   */\n      tag_38\n      jump\t// in\n    tag_73:\n        /* \"#utility.yul\":3164:3197   */\n      swap2\n      pop\n        /* \"#utility.yul\":3219:3223   */\n      0x00\n        /* \"#utility.yul\":3212:3217   */\n      dup3\n        /* \"#utility.yul\":3209:3224   */\n      sub\n        /* \"#utility.yul\":3206:3247   */\n      tag_74\n      jumpi\n        /* \"#utility.yul\":3227:3245   */\n      tag_75\n      tag_37\n      jump\t// in\n    tag_75:\n        /* \"#utility.yul\":3206:3247   */\n    tag_74:\n        /* \"#utility.yul\":3274:3275   */\n      0x01\n        /* \"#utility.yul\":3267:3272   */\n      dup3\n        /* \"#utility.yul\":3263:3276   */\n      sub\n        /* \"#utility.yul\":3256:3276   */\n      swap1\n      pop\n        /* \"#utility.yul\":3111:3282   */\n      swap2\n      swap1\n      pop\n      jump\t// out\n        /* \"#utility.yul\":3288:3521   */\n    tag_24:\n        /* \"#utility.yul\":3327:3330   */\n      0x00\n        /* \"#utility.yul\":3350:3374   */\n      tag_77\n        /* \"#utility.yul\":3368:3373   */\n      dup3\n        /* \"#utility.yul\":3350:3374   */\n      tag_38\n      jump\t// in\n    tag_77:\n        /* \"#utility.yul\":3341:3374   */\n      swap2\n      pop\n        /* \"#utility.yul\":3396:3462   */\n      0xffffffffffffffffffffffffffffffffffffffffffffffffffffffffffffffff\n        /* \"#utility.yul\":3389:3394   */\n      dup3\n        /* \"#utility.yul\":3386:3463   */\n      sub\n        /* \"#utility.yul\":3383:3486   */\n      tag_78\n      jumpi\n        /* \"#utility.yul\":3466:3484   */\n      tag_79\n      tag_37\n      jump\t// in\n    tag_79:\n        /* \"#utility.yul\":3383:3486   */\n    tag_78:\n        /* \"#utility.yul\":3513:3514   */\n      0x01\n        /* \"#utility.yul\":3506:3511   */\n      dup3\n        /* \"#utility.yul\":3502:3515   */\n      add\n        /* \"#utility.yul\":3495:3515   */\n      swap1\n      pop\n        /* \"#utility.yul\":3288:3521   */\n      swap2\n      swap1\n      pop\n      jump\t// out\n\n    auxdata: 0xa26469706673582212203f75dc87e612c3984228696382a236a0f377ec68f12cf94adfc9ed3eacd993a464736f6c634300081a0033\n}\n",
				"bytecode": {
					"linkReferences": {},
					"object": "6080604052348015600e575f80fd5b506104c68061001c5f395ff3fe608060405234801561000f575f80fd5b5060043610610029575f3560e01c8063f3993d111461002d575b5f80fd5b6100476004803603810190610042919061034e565b610049565b005b5f5b828290508110156100875761007a858585858581811061006e5761006d6103bf565b5b9050602002013561008e565b808060010191505061004b565b5050505050565b5f61009761025f565b90505f815f015f8481526020019081526020015f205f9054906101000a900473ffffffffffffffffffffffffffffffffffffffff1690508473ffffffffffffffffffffffffffffffffffffffff168173ffffffffffffffffffffffffffffffffffffffff1614610105575f80fd5b83825f015f8581526020019081526020015f205f6101000a81548173ffffffffffffffffffffffffffffffffffffffff021916908373ffffffffffffffffffffffffffffffffffffffff160217905550816001015f8673ffffffffffffffffffffffffffffffffffffffff1673ffffffffffffffffffffffffffffffffffffffff1681526020019081526020015f205f8154809291906101a490610422565b9190505550816001015f8573ffffffffffffffffffffffffffffffffffffffff1673ffffffffffffffffffffffffffffffffffffffff1681526020019081526020015f205f8154809291906101f890610449565b9190505550828473ffffffffffffffffffffffffffffffffffffffff168673ffffffffffffffffffffffffffffffffffffffff167fddf252ad1be2c89b69c2b068fc378daa952ba7f163c4a11628f55a4df523b3ef60405160405180910390a45050505050565b5f807f52d8ad91b0e7cfb3886c3394ab0e3d825352290f5f129bc8e3a475db9f93178c90508091505090565b5f80fd5b5f80fd5b5f73ffffffffffffffffffffffffffffffffffffffff82169050919050565b5f6102bc82610293565b9050919050565b6102cc816102b2565b81146102d6575f80fd5b50565b5f813590506102e7816102c3565b92915050565b5f80fd5b5f80fd5b5f80fd5b5f8083601f84011261030e5761030d6102ed565b5b8235905067ffffffffffffffff81111561032b5761032a6102f1565b5b602083019150836020820283011115610347576103466102f5565b5b9250929050565b5f805f80606085870312156103665761036561028b565b5b5f610373878288016102d9565b9450506020610384878288016102d9565b935050604085013567ffffffffffffffff8111156103a5576103a461028f565b5b6103b1878288016102f9565b925092505092959194509250565b7f4e487b71000000000000000000000000000000000000000000000000000000005f52603260045260245ffd5b7f4e487b71000000000000000000000000000000000000000000000000000000005f52601160045260245ffd5b5f819050919050565b5f61042c82610419565b91505f820361043e5761043d6103ec565b5b600182039050919050565b5f61045382610419565b91507fffffffffffffffffffffffffffffffffffffffffffffffffffffffffffffffff8203610485576104846103ec565b5b60018201905091905056fea26469706673582212203f75dc87e612c3984228696382a236a0f377ec68f12cf94adfc9ed3eacd993a464736f6c634300081a0033",
					"opcodes": "PUSH1 0x80 PUSH1 0x40 MSTORE CALLVALUE DUP1 ISZERO PUSH1 0xE JUMPI PUSH0 DUP1 REVERT JUMPDEST POP PUSH2 0x4C6 DUP1 PUSH2 0x1C PUSH0 CODECOPY PUSH0 RETURN INVALID PUSH1 0x80 PUSH1 0x40 MSTORE CALLVALUE DUP1 ISZERO PUSH2 0xF JUMPI PUSH0 DUP1 REVERT JUMPDEST POP PUSH1 0x4 CALLDATASIZE LT PUSH2 0x29 JUMPI PUSH0 CALLDATALOAD PUSH1 0xE0 SHR DUP1 PUSH4 0xF3993D11 EQ PUSH2 0x2D JUMPI JUMPDEST PUSH0 DUP1 REVERT JUMPDEST PUSH2 0x47 PUSH1 0x4 DUP1 CALLDATASIZE SUB DUP2 ADD SWAP1 PUSH2 0x42 SWAP2 SWAP1 PUSH2 0x34E JUMP JUMPDEST PUSH2 0x49 JUMP JUMPDEST STOP JUMPDEST PUSH0 JUMPDEST DUP3 DUP3 SWAP1 POP DUP2 LT ISZERO PUSH2 0x87 JUMPI PUSH2 0x7A DUP6 DUP6 DUP6 DUP6 DUP6 DUP2 DUP2 LT PUSH2 0x6E JUMPI PUSH2 0x6D PUSH2 0x3BF JUMP JUMPDEST JUMPDEST SWAP1 POP PUSH1 0x20 MUL ADD CALLDATALOAD PUSH2 0x8E JUMP JUMPDEST DUP1 DUP1 PUSH1 0x1 ADD SWAP2 POP POP PUSH2 0x4B JUMP JUMPDEST POP POP POP POP POP JUMP JUMPDEST PUSH0 PUSH2 0x97 PUSH2 0x25F JUMP JUMPDEST SWAP1 POP PUSH0 DUP2 PUSH0 ADD PUSH0 DUP5 DUP2 MSTORE PUSH1 0x20 ADD SWAP1 DUP2 MSTORE PUSH1 0x20 ADD PUSH0 KECCAK256 PUSH0 SWAP1 SLOAD SWAP1 PUSH2 0x100 EXP SWAP1 DIV PUSH20 0xFFFFFFFFFFFFFFFFFFFFFFFFFFFFFFFFFFFFFFFF AND SWAP1 POP DUP5 PUSH20 0xFFFFFFFFFFFFFFFFFFFFFFFFFFFFFFFFFFFFFFFF AND DUP2 PUSH20 0xFFFFFFFFFFFFFFFFFFFFFFFFFFFFFFFFFFFFFFFF AND EQ PUSH2 0x105 JUMPI PUSH0 DUP1 REVERT JUMPDEST DUP4 DUP3 PUSH0 ADD PUSH0 DUP6 DUP2 MSTORE PUSH1 0x20 ADD SWAP1 DUP2 MSTORE PUSH1 0x20 ADD PUSH0 KECCAK256 PUSH0 PUSH2 0x100 EXP DUP2 SLOAD DUP2 PUSH20 0xFFFFFFFFFFFFFFFFFFFFFFFFFFFFFFFFFFFFFFFF MUL NOT AND SWAP1 DUP4 PUSH20 0xFFFFFFFFFFFFFFFFFFFFFFFFFFFFFFFFFFFFFFFF AND MUL OR SWAP1 SSTORE POP DUP2 PUSH1 0x1 ADD PUSH0 DUP7 PUSH20 0xFFFFFFFFFFFFFFFFFFFFFFFFFFFFFFFFFFFFFFFF AND PUSH20 0xFFFFFFFFFFFFFFFFFFFFFFFFFFFFFFFFFFFFFFFF AND DUP2 MSTORE PUSH1 0x20 ADD SWAP1 DUP2 MSTORE PUSH1 0x20 ADD PUSH0 KECCAK256 PUSH0 DUP2 SLOAD DUP1 SWAP3 SWAP2 SWAP1 PUSH2 0x1A4 SWAP1 PUSH2 0x422 JUMP JUMPDEST SWAP2 SWAP1 POP SSTORE POP DUP2 PUSH1 0x1 ADD PUSH0 DUP6 PUSH20 0xFFFFFFFFFFFFFFFFFFFFFFFFFFFFFFFFFFFFFFFF AND PUSH20 0xFFFFFFFFFFFFFFFFFFFFFFFFFFFFFFFFFFFFFFFF AND DUP2 MSTORE PUSH1 0x20 ADD SWAP1 DUP2 MSTORE PUSH1 0x20 ADD PUSH0 KECCAK256 PUSH0 DUP2 SLOAD DUP1 SWAP3 SWAP2 SWAP1 PUSH2 0x1F8 SWAP1 PUSH2 0x449 JUMP JUMPDEST SWAP2 SWAP1 POP SSTORE POP DUP3 DUP5 PUSH20 0xFFFFFFFFFFFFFFFFFFFFFFFFFFFFFFFFFFFFFFFF AND DUP7 PUSH20 0xFFFFFFFFFFFFFFFFFFFFFFFFFFFFFFFFFFFFFFFF AND PUSH32 0xDDF252AD1BE2C89B69C2B068FC378DAA952BA7F163C4A11628F55A4DF523B3EF PUSH1 0x40 MLOAD PUSH1 0x40 MLOAD DUP1 SWAP2 SUB SWAP1 LOG4 POP POP POP POP POP JUMP JUMPDEST PUSH0 DUP1 PUSH32 0x52D8AD91B0E7CFB3886C3394AB0E3D825352290F5F129BC8E3A475DB9F93178C SWAP1 POP DUP1 SWAP2 POP POP SWAP1 JUMP JUMPDEST PUSH0 DUP1 REVERT JUMPDEST PUSH0 DUP1 REVERT JUMPDEST PUSH0 PUSH20 0xFFFFFFFFFFFFFFFFFFFFFFFFFFFFFFFFFFFFFFFF DUP3 AND SWAP1 POP SWAP2 SWAP1 POP JUMP JUMPDEST PUSH0 PUSH2 0x2BC DUP3 PUSH2 0x293 JUMP JUMPDEST SWAP1 POP SWAP2 SWAP1 POP JUMP JUMPDEST PUSH2 0x2CC DUP2 PUSH2 0x2B2 JUMP JUMPDEST DUP2 EQ PUSH2 0x2D6 JUMPI PUSH0 DUP1 REVERT JUMPDEST POP JUMP JUMPDEST PUSH0 DUP2 CALLDATALOAD SWAP1 POP PUSH2 0x2E7 DUP2 PUSH2 0x2C3 JUMP JUMPDEST SWAP3 SWAP2 POP POP JUMP JUMPDEST PUSH0 DUP1 REVERT JUMPDEST PUSH0 DUP1 REVERT JUMPDEST PUSH0 DUP1 REVERT JUMPDEST PUSH0 DUP1 DUP4 PUSH1 0x1F DUP5 ADD SLT PUSH2 0x30E JUMPI PUSH2 0x30D PUSH2 0x2ED JUMP JUMPDEST JUMPDEST DUP3 CALLDATALOAD SWAP1 POP PUSH8 0xFFFFFFFFFFFFFFFF DUP2 GT ISZERO PUSH2 0x32B JUMPI PUSH2 0x32A PUSH2 0x2F1 JUMP JUMPDEST JUMPDEST PUSH1 0x20 DUP4 ADD SWAP2 POP DUP4 PUSH1 0x20 DUP3 MUL DUP4 ADD GT ISZERO PUSH2 0x347 JUMPI PUSH2 0x346 PUSH2 0x2F5 JUMP JUMPDEST JUMPDEST SWAP3 POP SWAP3 SWAP1 POP JUMP JUMPDEST PUSH0 DUP1 PUSH0 DUP1 PUSH1 0x60 DUP6 DUP8 SUB SLT ISZERO PUSH2 0x366 JUMPI PUSH2 0x365 PUSH2 0x28B JUMP JUMPDEST JUMPDEST PUSH0 PUSH2 0x373 DUP8 DUP3 DUP9 ADD PUSH2 0x2D9 JUMP JUMPDEST SWAP5 POP POP PUSH1 0x20 PUSH2 0x384 DUP8 DUP3 DUP9 ADD PUSH2 0x2D9 JUMP JUMPDEST SWAP4 POP POP PUSH1 0x40 DUP6 ADD CALLDATALOAD PUSH8 0xFFFFFFFFFFFFFFFF DUP2 GT ISZERO PUSH2 0x3A5 JUMPI PUSH2 0x3A4 PUSH2 0x28F JUMP JUMPDEST JUMPDEST PUSH2 0x3B1 DUP8 DUP3 DUP9 ADD PUSH2 0x2F9 JUMP JUMPDEST SWAP3 POP SWAP3 POP POP SWAP3 SWAP6 SWAP2 SWAP5 POP SWAP3 POP JUMP JUMPDEST PUSH32 0x4E487B7100000000000000000000000000000000000000000000000000000000 PUSH0 MSTORE PUSH1 0x32 PUSH1 0x4 MSTORE PUSH1 0x24 PUSH0 REVERT JUMPDEST PUSH32 0x4E487B7100000000000000000000000000000000000000000000000000000000 PUSH0 MSTORE PUSH1 0x11 PUSH1 0x4 MSTORE PUSH1 0x24 PUSH0 REVERT JUMPDEST PUSH0 DUP2 SWAP1 POP SWAP2 SWAP1 POP JUMP JUMPDEST PUSH0 PUSH2 0x42C DUP3 PUSH2 0x419 JUMP JUMPDEST SWAP2 POP PUSH0 DUP3 SUB PUSH2 0x43E JUMPI PUSH2 0x43D PUSH2 0x3EC JUMP JUMPDEST JUMPDEST PUSH1 0x1 DUP3 SUB SWAP1 POP SWAP2 SWAP1 POP JUMP JUMPDEST PUSH0 PUSH2 0x453 DUP3 PUSH2 0x419 JUMP JUMPDEST SWAP2 POP PUSH32 0xFFFFFFFFFFFFFFFFFFFFFFFFFFFFFFFFFFFFFFFFFFFFFFFFFFFFFFFFFFFFFFFF DUP3 SUB PUSH2 0x485 JUMPI PUSH2 0x484 PUSH2 0x3EC JUMP JUMPDEST JUMPDEST PUSH1 0x1 DUP3 ADD SWAP1 POP SWAP2 SWAP1 POP JUMP INVALID LOG2 PUSH5 0x6970667358 0x22 SLT KECCAK256 EXTCODEHASH PUSH22 0xDC87E612C3984228696382A236A0F377EC68F12CF94A 0xDF 0xC9 0xED RETURNDATACOPY 0xAC 0xD9 SWAP4 LOG4 PUSH5 0x736F6C6343 STOP ADDMOD BYTE STOP CALLER "
				},
				"gasEstimates": {
					"creation": {
						"codeDepositCost": "244400",
						"executionCost": "285",
						"totalCost": "244685"
					},
					"external": {
						"batchTransferFrom(address,address,uint256[])": "infinite"
					}
				},
				"methodIdentifiers": {
					"batchTransferFrom(address,address,uint256[])": "f3993d11"
				}
			},
			"storageLayout": {
				"storage": [],
				"types": null
			},
			"userdoc": {
				"kind": "user",
				"methods": {},
				"version": 1
			}
		}
	}
}