{
	"contracts/TransferEvent.sol": {
		"TransferEvent": {
			"abi": [
				{
					"inputs": [],
					"stateMutability": "nonpayable",
					"type": "constructor"
				},
				{
					"anonymous": false,
					"inputs": [
						{
							"indexed": true,
							"internalType": "address",
							"name": "from",
							"type": "address"
						},
						{
							"indexed": true,
							"internalType": "address",
							"name": "to",
							"type": "address"
						},
						{
							"indexed": false,
							"internalType": "uint256",
							"name": "amount",
							"type": "uint256"
						}
					],
					"name": "Transfer",
					"type": "event"
				},
				{
					"inputs": [],
					"name": "getBalance",
					"outputs": [
						{
							"internalType": "uint256",
							"name": "",
							"type": "uint256"
						}
					],
					"stateMutability": "view",
					"type": "function"
				},
				{
					"inputs": [
						{
							"internalType": "address",
							"name": "to",
							"type": "address"
						},
						{
							"internalType": "uint256",
							"name": "amount",
							"type": "uint256"
						}
					],
					"name": "transfer",
					"outputs": [
						{
							"internalType": "uint256",
							"name": "",
							"type": "uint256"
						}
					],
					"stateMutability": "nonpayable",
					"type": "function"
				}
			],
			"devdoc": {
				"kind": "dev",
				"methods": {},
				"version": 1
			},
			"evm": {
				"assembly": "    /* \"contracts/TransferEvent.sol\":57:1219  contract TransferEvent {... */\n  mstore(0x40, 0x80)\n    /* \"contracts/TransferEvent.sol\":183:254  constructor() {... */\n  callvalue\n  dup1\n  iszero\n  tag_1\n  jumpi\n  0x00\n  dup1\n  revert\ntag_1:\n  pop\n    /* \"contracts/TransferEvent.sol\":237:247  1e18 ether */\n  0xc097ce7bc90715b34b9f1000000000\n    /* \"contracts/TransferEvent.sol\":207:222  address2Balance */\n  0x00\n    /* \"contracts/TransferEvent.sol\":207:234  address2Balance[msg.sender] */\n  dup1\n    /* \"contracts/TransferEvent.sol\":223:233  msg.sender */\n  caller\n    /* \"contracts/TransferEvent.sol\":207:234  address2Balance[msg.sender] */\n  0xffffffffffffffffffffffffffffffffffffffff\n  and\n  0xffffffffffffffffffffffffffffffffffffffff\n  and\n  dup2\n  mstore\n  0x20\n  add\n  swap1\n  dup2\n  mstore\n  0x20\n  add\n  0x00\n  keccak256\n    /* \"contracts/TransferEvent.sol\":207:247  address2Balance[msg.sender] = 1e18 ether */\n  dup2\n  swap1\n  sstore\n  pop\n    /* \"contracts/TransferEvent.sol\":57:1219  contract TransferEvent {... */\n  dataSize(sub_0)\n  dup1\n  dataOffset(sub_0)\n  0x00\n  codecopy\n  0x00\n  return\nstop\n\nsub_0: assembly {\n        /* \"contracts/TransferEvent.sol\":57:1219  contract TransferEvent {... */\n      mstore(0x40, 0x80)\n      callvalue\n      dup1\n      iszero\n      tag_1\n      jumpi\n      0x00\n      dup1\n      revert\n    tag_1:\n      pop\n      jumpi(tag_2, lt(calldatasize, 0x04))\n      shr(0xe0, calldataload(0x00))\n      dup1\n      0x12065fe0\n      eq\n      tag_3\n      jumpi\n      dup1\n      0xa9059cbb\n      eq\n      tag_4\n      jumpi\n    tag_2:\n      0x00\n      dup1\n      revert\n        /* \"contracts/TransferEvent.sol\":1112:1217  function getBalance() external view returns (uint256) {... */\n    tag_3:\n      tag_5\n      tag_6\n      jump\t// in\n    tag_5:\n      mload(0x40)\n      tag_7\n      swap2\n      swap1\n      tag_8\n      jump\t// in\n    tag_7:\n      mload(0x40)\n      dup1\n      swap2\n      sub\n      swap1\n      return\n        /* \"contracts/TransferEvent.sol\":497:1087  function transfer(address to, uint256 amount) external havaBalance returns (uint256) {... */\n    tag_4:\n      tag_9\n      0x04\n      dup1\n      calldatasize\n      sub\n      dup2\n      add\n      swap1\n      tag_10\n      swap2\n      swap1\n      tag_11\n      jump\t// in\n    tag_10:\n      tag_12\n      jump\t// in\n    tag_9:\n      mload(0x40)\n      tag_13\n      swap2\n      swap1\n      tag_8\n      jump\t// in\n    tag_13:\n      mload(0x40)\n      dup1\n      swap2\n      sub\n      swap1\n      return\n        /* \"contracts/TransferEvent.sol\":1112:1217  function getBalance() external view returns (uint256) {... */\n    tag_6:\n        /* \"contracts/TransferEvent.sol\":1157:1164  uint256 */\n      0x00\n        /* \"contracts/TransferEvent.sol\":1183:1198  address2Balance */\n      dup1\n        /* \"contracts/TransferEvent.sol\":1183:1210  address2Balance[msg.sender] */\n      0x00\n        /* \"contracts/TransferEvent.sol\":1199:1209  msg.sender */\n      caller\n        /* \"contracts/TransferEvent.sol\":1183:1210  address2Balance[msg.sender] */\n      0xffffffffffffffffffffffffffffffffffffffff\n      and\n      0xffffffffffffffffffffffffffffffffffffffff\n      and\n      dup2\n      mstore\n      0x20\n      add\n      swap1\n      dup2\n      mstore\n      0x20\n      add\n      0x00\n      keccak256\n      sload\n        /* \"contracts/TransferEvent.sol\":1176:1210  return address2Balance[msg.sender] */\n      swap1\n      pop\n        /* \"contracts/TransferEvent.sol\":1112:1217  function getBalance() external view returns (uint256) {... */\n      swap1\n      jump\t// out\n        /* \"contracts/TransferEvent.sol\":497:1087  function transfer(address to, uint256 amount) external havaBalance returns (uint256) {... */\n    tag_12:\n        /* \"contracts/TransferEvent.sol\":573:580  uint256 */\n      0x00\n        /* \"contracts/TransferEvent.sol\":345:346  0 */\n      dup1\n        /* \"contracts/TransferEvent.sol\":317:332  address2Balance */\n      0x00\n        /* \"contracts/TransferEvent.sol\":317:344  address2Balance[msg.sender] */\n      dup1\n        /* \"contracts/TransferEvent.sol\":333:343  msg.sender */\n      caller\n        /* \"contracts/TransferEvent.sol\":317:344  address2Balance[msg.sender] */\n      0xffffffffffffffffffffffffffffffffffffffff\n      and\n      0xffffffffffffffffffffffffffffffffffffffff\n      and\n      dup2\n      mstore\n      0x20\n      add\n      swap1\n      dup2\n      mstore\n      0x20\n      add\n      0x00\n      keccak256\n      sload\n        /* \"contracts/TransferEvent.sol\":317:346  address2Balance[msg.sender]>0 */\n      gt\n        /* \"contracts/TransferEvent.sol\":309:368  require(address2Balance[msg.sender]>0, \"must have halance\") */\n      tag_16\n      jumpi\n      mload(0x40)\n      0x08c379a000000000000000000000000000000000000000000000000000000000\n      dup2\n      mstore\n      0x04\n      add\n      tag_17\n      swap1\n      tag_18\n      jump\t// in\n    tag_17:\n      mload(0x40)\n      dup1\n      swap2\n      sub\n      swap1\n      revert\n    tag_16:\n        /* \"contracts/TransferEvent.sol\":630:631  0 */\n      0x00\n        /* \"contracts/TransferEvent.sol\":618:632  to!=address(0) */\n      0xffffffffffffffffffffffffffffffffffffffff\n      and\n        /* \"contracts/TransferEvent.sol\":618:620  to */\n      dup4\n        /* \"contracts/TransferEvent.sol\":618:632  to!=address(0) */\n      0xffffffffffffffffffffffffffffffffffffffff\n      and\n      sub\n        /* \"contracts/TransferEvent.sol\":610:666  require(to!=address(0), \"target address must not empty\") */\n      tag_20\n      jumpi\n      mload(0x40)\n      0x08c379a000000000000000000000000000000000000000000000000000000000\n      dup2\n      mstore\n      0x04\n      add\n      tag_21\n      swap1\n      tag_22\n      jump\t// in\n    tag_21:\n      mload(0x40)\n      dup1\n      swap2\n      sub\n      swap1\n      revert\n    tag_20:\n        /* \"contracts/TransferEvent.sol\":691:692  0 */\n      0x00\n        /* \"contracts/TransferEvent.sol\":684:690  amount */\n      dup3\n        /* \"contracts/TransferEvent.sol\":684:692  amount>0 */\n      gt\n        /* \"contracts/TransferEvent.sol\":676:720  require(amount>0, \"amount must be positive\") */\n      tag_23\n      jumpi\n      mload(0x40)\n      0x08c379a000000000000000000000000000000000000000000000000000000000\n      dup2\n      mstore\n      0x04\n      add\n      tag_24\n      swap1\n      tag_25\n      jump\t// in\n    tag_24:\n      mload(0x40)\n      dup1\n      swap2\n      sub\n      swap1\n      revert\n    tag_23:\n        /* \"contracts/TransferEvent.sol\":749:767  uint256 oldBalance */\n      0x00\n        /* \"contracts/TransferEvent.sol\":770:785  address2Balance */\n      dup1\n        /* \"contracts/TransferEvent.sol\":770:797  address2Balance[msg.sender] */\n      0x00\n        /* \"contracts/TransferEvent.sol\":786:796  msg.sender */\n      caller\n        /* \"contracts/TransferEvent.sol\":770:797  address2Balance[msg.sender] */\n      0xffffffffffffffffffffffffffffffffffffffff\n      and\n      0xffffffffffffffffffffffffffffffffffffffff\n      and\n      dup2\n      mstore\n      0x20\n      add\n      swap1\n      dup2\n      mstore\n      0x20\n      add\n      0x00\n      keccak256\n      sload\n        /* \"contracts/TransferEvent.sol\":749:797  uint256 oldBalance = address2Balance[msg.sender] */\n      swap1\n      pop\n        /* \"contracts/TransferEvent.sol\":827:833  amount */\n      dup3\n        /* \"contracts/TransferEvent.sol\":815:825  oldBalance */\n      dup2\n        /* \"contracts/TransferEvent.sol\":815:833  oldBalance>=amount */\n      lt\n      iszero\n        /* \"contracts/TransferEvent.sol\":807:862  require(oldBalance>=amount, \"balance less than amount\") */\n      tag_26\n      jumpi\n      mload(0x40)\n      0x08c379a000000000000000000000000000000000000000000000000000000000\n      dup2\n      mstore\n      0x04\n      add\n      tag_27\n      swap1\n      tag_28\n      jump\t// in\n    tag_27:\n      mload(0x40)\n      dup1\n      swap2\n      sub\n      swap1\n      revert\n    tag_26:\n        /* \"contracts/TransferEvent.sol\":903:909  amount */\n      dup3\n        /* \"contracts/TransferEvent.sol\":872:887  address2Balance */\n      0x00\n        /* \"contracts/TransferEvent.sol\":872:899  address2Balance[msg.sender] */\n      dup1\n        /* \"contracts/TransferEvent.sol\":888:898  msg.sender */\n      caller\n        /* \"contracts/TransferEvent.sol\":872:899  address2Balance[msg.sender] */\n      0xffffffffffffffffffffffffffffffffffffffff\n      and\n      0xffffffffffffffffffffffffffffffffffffffff\n      and\n      dup2\n      mstore\n      0x20\n      add\n      swap1\n      dup2\n      mstore\n      0x20\n      add\n      0x00\n      keccak256\n      0x00\n        /* \"contracts/TransferEvent.sol\":872:909  address2Balance[msg.sender] -= amount */\n      dup3\n      dup3\n      sload\n      tag_29\n      swap2\n      swap1\n      tag_30\n      jump\t// in\n    tag_29:\n      swap3\n      pop\n      pop\n      dup2\n      swap1\n      sstore\n      pop\n        /* \"contracts/TransferEvent.sol\":942:948  amount */\n      dup3\n        /* \"contracts/TransferEvent.sol\":919:934  address2Balance */\n      0x00\n        /* \"contracts/TransferEvent.sol\":919:938  address2Balance[to] */\n      dup1\n        /* \"contracts/TransferEvent.sol\":935:937  to */\n      dup7\n        /* \"contracts/TransferEvent.sol\":919:938  address2Balance[to] */\n      0xffffffffffffffffffffffffffffffffffffffff\n      and\n      0xffffffffffffffffffffffffffffffffffffffff\n      and\n      dup2\n      mstore\n      0x20\n      add\n      swap1\n      dup2\n      mstore\n      0x20\n      add\n      0x00\n      keccak256\n      0x00\n        /* \"contracts/TransferEvent.sol\":919:948  address2Balance[to] += amount */\n      dup3\n      dup3\n      sload\n      tag_31\n      swap2\n      swap1\n      tag_32\n      jump\t// in\n    tag_31:\n      swap3\n      pop\n      pop\n      dup2\n      swap1\n      sstore\n      pop\n        /* \"contracts/TransferEvent.sol\":1025:1027  to */\n      dup4\n        /* \"contracts/TransferEvent.sol\":1004:1036  Transfer(msg.sender, to, amount) */\n      0xffffffffffffffffffffffffffffffffffffffff\n      and\n        /* \"contracts/TransferEvent.sol\":1013:1023  msg.sender */\n      caller\n        /* \"contracts/TransferEvent.sol\":1004:1036  Transfer(msg.sender, to, amount) */\n      0xffffffffffffffffffffffffffffffffffffffff\n      and\n      0xddf252ad1be2c89b69c2b068fc378daa952ba7f163c4a11628f55a4df523b3ef\n        /* \"contracts/TransferEvent.sol\":1029:1035  amount */\n      dup6\n        /* \"contracts/TransferEvent.sol\":1004:1036  Transfer(msg.sender, to, amount) */\n      mload(0x40)\n      tag_33\n      swap2\n      swap1\n      tag_8\n      jump\t// in\n    tag_33:\n      mload(0x40)\n      dup1\n      swap2\n      sub\n      swap1\n      log3\n        /* \"contracts/TransferEvent.sol\":1053:1068  address2Balance */\n      0x00\n        /* \"contracts/TransferEvent.sol\":1053:1080  address2Balance[msg.sender] */\n      dup1\n        /* \"contracts/TransferEvent.sol\":1069:1079  msg.sender */\n      caller\n        /* \"contracts/TransferEvent.sol\":1053:1080  address2Balance[msg.sender] */\n      0xffffffffffffffffffffffffffffffffffffffff\n      and\n      0xffffffffffffffffffffffffffffffffffffffff\n      and\n      dup2\n      mstore\n      0x20\n      add\n      swap1\n      dup2\n      mstore\n      0x20\n      add\n      0x00\n      keccak256\n      sload\n        /* \"contracts/TransferEvent.sol\":1046:1080  return address2Balance[msg.sender] */\n      swap2\n      pop\n      pop\n        /* \"contracts/TransferEvent.sol\":497:1087  function transfer(address to, uint256 amount) external havaBalance returns (uint256) {... */\n      swap3\n      swap2\n      pop\n      pop\n      jump\t// out\n        /* \"#utility.yul\":7:84   */\n    tag_34:\n        /* \"#utility.yul\":44:51   */\n      0x00\n        /* \"#utility.yul\":73:78   */\n      dup2\n        /* \"#utility.yul\":62:78   */\n      swap1\n      pop\n        /* \"#utility.yul\":7:84   */\n      swap2\n      swap1\n      pop\n      jump\t// out\n        /* \"#utility.yul\":90:208   */\n    tag_35:\n        /* \"#utility.yul\":177:201   */\n      tag_58\n        /* \"#utility.yul\":195:200   */\n      dup2\n        /* \"#utility.yul\":177:201   */\n      tag_34\n      jump\t// in\n    tag_58:\n        /* \"#utility.yul\":172:175   */\n      dup3\n        /* \"#utility.yul\":165:202   */\n      mstore\n        /* \"#utility.yul\":90:208   */\n      pop\n      pop\n      jump\t// out\n        /* \"#utility.yul\":214:436   */\n    tag_8:\n        /* \"#utility.yul\":307:311   */\n      0x00\n        /* \"#utility.yul\":345:347   */\n      0x20\n        /* \"#utility.yul\":334:343   */\n      dup3\n        /* \"#utility.yul\":330:348   */\n      add\n        /* \"#utility.yul\":322:348   */\n      swap1\n      pop\n        /* \"#utility.yul\":358:429   */\n      tag_60\n        /* \"#utility.yul\":426:427   */\n      0x00\n        /* \"#utility.yul\":415:424   */\n      dup4\n        /* \"#utility.yul\":411:428   */\n      add\n        /* \"#utility.yul\":402:408   */\n      dup5\n        /* \"#utility.yul\":358:429   */\n      tag_35\n      jump\t// in\n    tag_60:\n        /* \"#utility.yul\":214:436   */\n      swap3\n      swap2\n      pop\n      pop\n      jump\t// out\n        /* \"#utility.yul\":523:640   */\n    tag_37:\n        /* \"#utility.yul\":632:633   */\n      0x00\n        /* \"#utility.yul\":629:630   */\n      dup1\n        /* \"#utility.yul\":622:634   */\n      revert\n        /* \"#utility.yul\":769:895   */\n    tag_39:\n        /* \"#utility.yul\":806:813   */\n      0x00\n        /* \"#utility.yul\":846:888   */\n      0xffffffffffffffffffffffffffffffffffffffff\n        /* \"#utility.yul\":839:844   */\n      dup3\n        /* \"#utility.yul\":835:889   */\n      and\n        /* \"#utility.yul\":824:889   */\n      swap1\n      pop\n        /* \"#utility.yul\":769:895   */\n      swap2\n      swap1\n      pop\n      jump\t// out\n        /* \"#utility.yul\":901:997   */\n    tag_40:\n        /* \"#utility.yul\":938:945   */\n      0x00\n        /* \"#utility.yul\":967:991   */\n      tag_66\n        /* \"#utility.yul\":985:990   */\n      dup3\n        /* \"#utility.yul\":967:991   */\n      tag_39\n      jump\t// in\n    tag_66:\n        /* \"#utility.yul\":956:991   */\n      swap1\n      pop\n        /* \"#utility.yul\":901:997   */\n      swap2\n      swap1\n      pop\n      jump\t// out\n        /* \"#utility.yul\":1003:1125   */\n    tag_41:\n        /* \"#utility.yul\":1076:1100   */\n      tag_68\n        /* \"#utility.yul\":1094:1099   */\n      dup2\n        /* \"#utility.yul\":1076:1100   */\n      tag_40\n      jump\t// in\n    tag_68:\n        /* \"#utility.yul\":1069:1074   */\n      dup2\n        /* \"#utility.yul\":1066:1101   */\n      eq\n        /* \"#utility.yul\":1056:1119   */\n      tag_69\n      jumpi\n        /* \"#utility.yul\":1115:1116   */\n      0x00\n        /* \"#utility.yul\":1112:1113   */\n      dup1\n        /* \"#utility.yul\":1105:1117   */\n      revert\n        /* \"#utility.yul\":1056:1119   */\n    tag_69:\n        /* \"#utility.yul\":1003:1125   */\n      pop\n      jump\t// out\n        /* \"#utility.yul\":1131:1270   */\n    tag_42:\n        /* \"#utility.yul\":1177:1182   */\n      0x00\n        /* \"#utility.yul\":1215:1221   */\n      dup2\n        /* \"#utility.yul\":1202:1222   */\n      calldataload\n        /* \"#utility.yul\":1193:1222   */\n      swap1\n      pop\n        /* \"#utility.yul\":1231:1264   */\n      tag_71\n        /* \"#utility.yul\":1258:1263   */\n      dup2\n        /* \"#utility.yul\":1231:1264   */\n      tag_41\n      jump\t// in\n    tag_71:\n        /* \"#utility.yul\":1131:1270   */\n      swap3\n      swap2\n      pop\n      pop\n      jump\t// out\n        /* \"#utility.yul\":1276:1398   */\n    tag_43:\n        /* \"#utility.yul\":1349:1373   */\n      tag_73\n        /* \"#utility.yul\":1367:1372   */\n      dup2\n        /* \"#utility.yul\":1349:1373   */\n      tag_34\n      jump\t// in\n    tag_73:\n        /* \"#utility.yul\":1342:1347   */\n      dup2\n        /* \"#utility.yul\":1339:1374   */\n      eq\n        /* \"#utility.yul\":1329:1392   */\n      tag_74\n      jumpi\n        /* \"#utility.yul\":1388:1389   */\n      0x00\n        /* \"#utility.yul\":1385:1386   */\n      dup1\n        /* \"#utility.yul\":1378:1390   */\n      revert\n        /* \"#utility.yul\":1329:1392   */\n    tag_74:\n        /* \"#utility.yul\":1276:1398   */\n      pop\n      jump\t// out\n        /* \"#utility.yul\":1404:1543   */\n    tag_44:\n        /* \"#utility.yul\":1450:1455   */\n      0x00\n        /* \"#utility.yul\":1488:1494   */\n      dup2\n        /* \"#utility.yul\":1475:1495   */\n      calldataload\n        /* \"#utility.yul\":1466:1495   */\n      swap1\n      pop\n        /* \"#utility.yul\":1504:1537   */\n      tag_76\n        /* \"#utility.yul\":1531:1536   */\n      dup2\n        /* \"#utility.yul\":1504:1537   */\n      tag_43\n      jump\t// in\n    tag_76:\n        /* \"#utility.yul\":1404:1543   */\n      swap3\n      swap2\n      pop\n      pop\n      jump\t// out\n        /* \"#utility.yul\":1549:2023   */\n    tag_11:\n        /* \"#utility.yul\":1617:1623   */\n      0x00\n        /* \"#utility.yul\":1625:1631   */\n      dup1\n        /* \"#utility.yul\":1674:1676   */\n      0x40\n        /* \"#utility.yul\":1662:1671   */\n      dup4\n        /* \"#utility.yul\":1653:1660   */\n      dup6\n        /* \"#utility.yul\":1649:1672   */\n      sub\n        /* \"#utility.yul\":1645:1677   */\n      slt\n        /* \"#utility.yul\":1642:1761   */\n      iszero\n      tag_78\n      jumpi\n        /* \"#utility.yul\":1680:1759   */\n      tag_79\n      tag_37\n      jump\t// in\n    tag_79:\n        /* \"#utility.yul\":1642:1761   */\n    tag_78:\n        /* \"#utility.yul\":1800:1801   */\n      0x00\n        /* \"#utility.yul\":1825:1878   */\n      tag_80\n        /* \"#utility.yul\":1870:1877   */\n      dup6\n        /* \"#utility.yul\":1861:1867   */\n      dup3\n        /* \"#utility.yul\":1850:1859   */\n      dup7\n        /* \"#utility.yul\":1846:1868   */\n      add\n        /* \"#utility.yul\":1825:1878   */\n      tag_42\n      jump\t// in\n    tag_80:\n        /* \"#utility.yul\":1815:1878   */\n      swap3\n      pop\n        /* \"#utility.yul\":1771:1888   */\n      pop\n        /* \"#utility.yul\":1927:1929   */\n      0x20\n        /* \"#utility.yul\":1953:2006   */\n      tag_81\n        /* \"#utility.yul\":1998:2005   */\n      dup6\n        /* \"#utility.yul\":1989:1995   */\n      dup3\n        /* \"#utility.yul\":1978:1987   */\n      dup7\n        /* \"#utility.yul\":1974:1996   */\n      add\n        /* \"#utility.yul\":1953:2006   */\n      tag_44\n      jump\t// in\n    tag_81:\n        /* \"#utility.yul\":1943:2006   */\n      swap2\n      pop\n        /* \"#utility.yul\":1898:2016   */\n      pop\n        /* \"#utility.yul\":1549:2023   */\n      swap3\n      pop\n      swap3\n      swap1\n      pop\n      jump\t// out\n        /* \"#utility.yul\":2029:2198   */\n    tag_45:\n        /* \"#utility.yul\":2113:2124   */\n      0x00\n        /* \"#utility.yul\":2147:2153   */\n      dup3\n        /* \"#utility.yul\":2142:2145   */\n      dup3\n        /* \"#utility.yul\":2135:2154   */\n      mstore\n        /* \"#utility.yul\":2187:2191   */\n      0x20\n        /* \"#utility.yul\":2182:2185   */\n      dup3\n        /* \"#utility.yul\":2178:2192   */\n      add\n        /* \"#utility.yul\":2163:2192   */\n      swap1\n      pop\n        /* \"#utility.yul\":2029:2198   */\n      swap3\n      swap2\n      pop\n      pop\n      jump\t// out\n        /* \"#utility.yul\":2204:2371   */\n    tag_46:\n        /* \"#utility.yul\":2344:2363   */\n      0x6d75737420686176652068616c616e6365000000000000000000000000000000\n        /* \"#utility.yul\":2340:2341   */\n      0x00\n        /* \"#utility.yul\":2332:2338   */\n      dup3\n        /* \"#utility.yul\":2328:2342   */\n      add\n        /* \"#utility.yul\":2321:2364   */\n      mstore\n        /* \"#utility.yul\":2204:2371   */\n      pop\n      jump\t// out\n        /* \"#utility.yul\":2377:2743   */\n    tag_47:\n        /* \"#utility.yul\":2519:2522   */\n      0x00\n        /* \"#utility.yul\":2540:2607   */\n      tag_85\n        /* \"#utility.yul\":2604:2606   */\n      0x11\n        /* \"#utility.yul\":2599:2602   */\n      dup4\n        /* \"#utility.yul\":2540:2607   */\n      tag_45\n      jump\t// in\n    tag_85:\n        /* \"#utility.yul\":2533:2607   */\n      swap2\n      pop\n        /* \"#utility.yul\":2616:2709   */\n      tag_86\n        /* \"#utility.yul\":2705:2708   */\n      dup3\n        /* \"#utility.yul\":2616:2709   */\n      tag_46\n      jump\t// in\n    tag_86:\n        /* \"#utility.yul\":2734:2736   */\n      0x20\n        /* \"#utility.yul\":2729:2732   */\n      dup3\n        /* \"#utility.yul\":2725:2737   */\n      add\n        /* \"#utility.yul\":2718:2737   */\n      swap1\n      pop\n        /* \"#utility.yul\":2377:2743   */\n      swap2\n      swap1\n      pop\n      jump\t// out\n        /* \"#utility.yul\":2749:3168   */\n    tag_18:\n        /* \"#utility.yul\":2915:2919   */\n      0x00\n        /* \"#utility.yul\":2953:2955   */\n      0x20\n        /* \"#utility.yul\":2942:2951   */\n      dup3\n        /* \"#utility.yul\":2938:2956   */\n      add\n        /* \"#utility.yul\":2930:2956   */\n      swap1\n      pop\n        /* \"#utility.yul\":3002:3011   */\n      dup2\n        /* \"#utility.yul\":2996:3000   */\n      dup2\n        /* \"#utility.yul\":2992:3012   */\n      sub\n        /* \"#utility.yul\":2988:2989   */\n      0x00\n        /* \"#utility.yul\":2977:2986   */\n      dup4\n        /* \"#utility.yul\":2973:2990   */\n      add\n        /* \"#utility.yul\":2966:3013   */\n      mstore\n        /* \"#utility.yul\":3030:3161   */\n      tag_88\n        /* \"#utility.yul\":3156:3160   */\n      dup2\n        /* \"#utility.yul\":3030:3161   */\n      tag_47\n      jump\t// in\n    tag_88:\n        /* \"#utility.yul\":3022:3161   */\n      swap1\n      pop\n        /* \"#utility.yul\":2749:3168   */\n      swap2\n      swap1\n      pop\n      jump\t// out\n        /* \"#utility.yul\":3174:3353   */\n    tag_48:\n        /* \"#utility.yul\":3314:3345   */\n      0x7461726765742061646472657373206d757374206e6f7420656d707479000000\n        /* \"#utility.yul\":3310:3311   */\n      0x00\n        /* \"#utility.yul\":3302:3308   */\n      dup3\n        /* \"#utility.yul\":3298:3312   */\n      add\n        /* \"#utility.yul\":3291:3346   */\n      mstore\n        /* \"#utility.yul\":3174:3353   */\n      pop\n      jump\t// out\n        /* \"#utility.yul\":3359:3725   */\n    tag_49:\n        /* \"#utility.yul\":3501:3504   */\n      0x00\n        /* \"#utility.yul\":3522:3589   */\n      tag_91\n        /* \"#utility.yul\":3586:3588   */\n      0x1d\n        /* \"#utility.yul\":3581:3584   */\n      dup4\n        /* \"#utility.yul\":3522:3589   */\n      tag_45\n      jump\t// in\n    tag_91:\n        /* \"#utility.yul\":3515:3589   */\n      swap2\n      pop\n        /* \"#utility.yul\":3598:3691   */\n      tag_92\n        /* \"#utility.yul\":3687:3690   */\n      dup3\n        /* \"#utility.yul\":3598:3691   */\n      tag_48\n      jump\t// in\n    tag_92:\n        /* \"#utility.yul\":3716:3718   */\n      0x20\n        /* \"#utility.yul\":3711:3714   */\n      dup3\n        /* \"#utility.yul\":3707:3719   */\n      add\n        /* \"#utility.yul\":3700:3719   */\n      swap1\n      pop\n        /* \"#utility.yul\":3359:3725   */\n      swap2\n      swap1\n      pop\n      jump\t// out\n        /* \"#utility.yul\":3731:4150   */\n    tag_22:\n        /* \"#utility.yul\":3897:3901   */\n      0x00\n        /* \"#utility.yul\":3935:3937   */\n      0x20\n        /* \"#utility.yul\":3924:3933   */\n      dup3\n        /* \"#utility.yul\":3920:3938   */\n      add\n        /* \"#utility.yul\":3912:3938   */\n      swap1\n      pop\n        /* \"#utility.yul\":3984:3993   */\n      dup2\n        /* \"#utility.yul\":3978:3982   */\n      dup2\n        /* \"#utility.yul\":3974:3994   */\n      sub\n        /* \"#utility.yul\":3970:3971   */\n      0x00\n        /* \"#utility.yul\":3959:3968   */\n      dup4\n        /* \"#utility.yul\":3955:3972   */\n      add\n        /* \"#utility.yul\":3948:3995   */\n      mstore\n        /* \"#utility.yul\":4012:4143   */\n      tag_94\n        /* \"#utility.yul\":4138:4142   */\n      dup2\n        /* \"#utility.yul\":4012:4143   */\n      tag_49\n      jump\t// in\n    tag_94:\n        /* \"#utility.yul\":4004:4143   */\n      swap1\n      pop\n        /* \"#utility.yul\":3731:4150   */\n      swap2\n      swap1\n      pop\n      jump\t// out\n        /* \"#utility.yul\":4156:4329   */\n    tag_50:\n        /* \"#utility.yul\":4296:4321   */\n      0x616d6f756e74206d75737420626520706f736974697665000000000000000000\n        /* \"#utility.yul\":4292:4293   */\n      0x00\n        /* \"#utility.yul\":4284:4290   */\n      dup3\n        /* \"#utility.yul\":4280:4294   */\n      add\n        /* \"#utility.yul\":4273:4322   */\n      mstore\n        /* \"#utility.yul\":4156:4329   */\n      pop\n      jump\t// out\n        /* \"#utility.yul\":4335:4701   */\n    tag_51:\n        /* \"#utility.yul\":4477:4480   */\n      0x00\n        /* \"#utility.yul\":4498:4565   */\n      tag_97\n        /* \"#utility.yul\":4562:4564   */\n      0x17\n        /* \"#utility.yul\":4557:4560   */\n      dup4\n        /* \"#utility.yul\":4498:4565   */\n      tag_45\n      jump\t// in\n    tag_97:\n        /* \"#utility.yul\":4491:4565   */\n      swap2\n      pop\n        /* \"#utility.yul\":4574:4667   */\n      tag_98\n        /* \"#utility.yul\":4663:4666   */\n      dup3\n        /* \"#utility.yul\":4574:4667   */\n      tag_50\n      jump\t// in\n    tag_98:\n        /* \"#utility.yul\":4692:4694   */\n      0x20\n        /* \"#utility.yul\":4687:4690   */\n      dup3\n        /* \"#utility.yul\":4683:4695   */\n      add\n        /* \"#utility.yul\":4676:4695   */\n      swap1\n      pop\n        /* \"#utility.yul\":4335:4701   */\n      swap2\n      swap1\n      pop\n      jump\t// out\n        /* \"#utility.yul\":4707:5126   */\n    tag_25:\n        /* \"#utility.yul\":4873:4877   */\n      0x00\n        /* \"#utility.yul\":4911:4913   */\n      0x20\n        /* \"#utility.yul\":4900:4909   */\n      dup3\n        /* \"#utility.yul\":4896:4914   */\n      add\n        /* \"#utility.yul\":4888:4914   */\n      swap1\n      pop\n        /* \"#utility.yul\":4960:4969   */\n      dup2\n        /* \"#utility.yul\":4954:4958   */\n      dup2\n        /* \"#utility.yul\":4950:4970   */\n      sub\n        /* \"#utility.yul\":4946:4947   */\n      0x00\n        /* \"#utility.yul\":4935:4944   */\n      dup4\n        /* \"#utility.yul\":4931:4948   */\n      add\n        /* \"#utility.yul\":4924:4971   */\n      mstore\n        /* \"#utility.yul\":4988:5119   */\n      tag_100\n        /* \"#utility.yul\":5114:5118   */\n      dup2\n        /* \"#utility.yul\":4988:5119   */\n      tag_51\n      jump\t// in\n    tag_100:\n        /* \"#utility.yul\":4980:5119   */\n      swap1\n      pop\n        /* \"#utility.yul\":4707:5126   */\n      swap2\n      swap1\n      pop\n      jump\t// out\n        /* \"#utility.yul\":5132:5306   */\n    tag_52:\n        /* \"#utility.yul\":5272:5298   */\n      0x62616c616e6365206c657373207468616e20616d6f756e740000000000000000\n        /* \"#utility.yul\":5268:5269   */\n      0x00\n        /* \"#utility.yul\":5260:5266   */\n      dup3\n        /* \"#utility.yul\":5256:5270   */\n      add\n        /* \"#utility.yul\":5249:5299   */\n      mstore\n        /* \"#utility.yul\":5132:5306   */\n      pop\n      jump\t// out\n        /* \"#utility.yul\":5312:5678   */\n    tag_53:\n        /* \"#utility.yul\":5454:5457   */\n      0x00\n        /* \"#utility.yul\":5475:5542   */\n      tag_103\n        /* \"#utility.yul\":5539:5541   */\n      0x18\n        /* \"#utility.yul\":5534:5537   */\n      dup4\n        /* \"#utility.yul\":5475:5542   */\n      tag_45\n      jump\t// in\n    tag_103:\n        /* \"#utility.yul\":5468:5542   */\n      swap2\n      pop\n        /* \"#utility.yul\":5551:5644   */\n      tag_104\n        /* \"#utility.yul\":5640:5643   */\n      dup3\n        /* \"#utility.yul\":5551:5644   */\n      tag_52\n      jump\t// in\n    tag_104:\n        /* \"#utility.yul\":5669:5671   */\n      0x20\n        /* \"#utility.yul\":5664:5667   */\n      dup3\n        /* \"#utility.yul\":5660:5672   */\n      add\n        /* \"#utility.yul\":5653:5672   */\n      swap1\n      pop\n        /* \"#utility.yul\":5312:5678   */\n      swap2\n      swap1\n      pop\n      jump\t// out\n        /* \"#utility.yul\":5684:6103   */\n    tag_28:\n        /* \"#utility.yul\":5850:5854   */\n      0x00\n        /* \"#utility.yul\":5888:5890   */\n      0x20\n        /* \"#utility.yul\":5877:5886   */\n      dup3\n        /* \"#utility.yul\":5873:5891   */\n      add\n        /* \"#utility.yul\":5865:5891   */\n      swap1\n      pop\n        /* \"#utility.yul\":5937:5946   */\n      dup2\n        /* \"#utility.yul\":5931:5935   */\n      dup2\n        /* \"#utility.yul\":5927:5947   */\n      sub\n        /* \"#utility.yul\":5923:5924   */\n      0x00\n        /* \"#utility.yul\":5912:5921   */\n      dup4\n        /* \"#utility.yul\":5908:5925   */\n      add\n        /* \"#utility.yul\":5901:5948   */\n      mstore\n        /* \"#utility.yul\":5965:6096   */\n      tag_106\n        /* \"#utility.yul\":6091:6095   */\n      dup2\n        /* \"#utility.yul\":5965:6096   */\n      tag_53\n      jump\t// in\n    tag_106:\n        /* \"#utility.yul\":5957:6096   */\n      swap1\n      pop\n        /* \"#utility.yul\":5684:6103   */\n      swap2\n      swap1\n      pop\n      jump\t// out\n        /* \"#utility.yul\":6109:6289   */\n    tag_54:\n        /* \"#utility.yul\":6157:6234   */\n      0x4e487b7100000000000000000000000000000000000000000000000000000000\n        /* \"#utility.yul\":6154:6155   */\n      0x00\n        /* \"#utility.yul\":6147:6235   */\n      mstore\n        /* \"#utility.yul\":6254:6258   */\n      0x11\n        /* \"#utility.yul\":6251:6252   */\n      0x04\n        /* \"#utility.yul\":6244:6259   */\n      mstore\n        /* \"#utility.yul\":6278:6282   */\n      0x24\n        /* \"#utility.yul\":6275:6276   */\n      0x00\n        /* \"#utility.yul\":6268:6283   */\n      revert\n        /* \"#utility.yul\":6295:6489   */\n    tag_30:\n        /* \"#utility.yul\":6335:6339   */\n      0x00\n        /* \"#utility.yul\":6355:6375   */\n      tag_109\n        /* \"#utility.yul\":6373:6374   */\n      dup3\n        /* \"#utility.yul\":6355:6375   */\n      tag_34\n      jump\t// in\n    tag_109:\n        /* \"#utility.yul\":6350:6375   */\n      swap2\n      pop\n        /* \"#utility.yul\":6389:6409   */\n      tag_110\n        /* \"#utility.yul\":6407:6408   */\n      dup4\n        /* \"#utility.yul\":6389:6409   */\n      tag_34\n      jump\t// in\n    tag_110:\n        /* \"#utility.yul\":6384:6409   */\n      swap3\n      pop\n        /* \"#utility.yul\":6433:6434   */\n      dup3\n        /* \"#utility.yul\":6430:6431   */\n      dup3\n        /* \"#utility.yul\":6426:6435   */\n      sub\n        /* \"#utility.yul\":6418:6435   */\n      swap1\n      pop\n        /* \"#utility.yul\":6457:6458   */\n      dup2\n        /* \"#utility.yul\":6451:6455   */\n      dup2\n        /* \"#utility.yul\":6448:6459   */\n      gt\n        /* \"#utility.yul\":6445:6482   */\n      iszero\n      tag_111\n      jumpi\n        /* \"#utility.yul\":6462:6480   */\n      tag_112\n      tag_54\n      jump\t// in\n    tag_112:\n        /* \"#utility.yul\":6445:6482   */\n    tag_111:\n        /* \"#utility.yul\":6295:6489   */\n      swap3\n      swap2\n      pop\n      pop\n      jump\t// out\n        /* \"#utility.yul\":6495:6686   */\n    tag_32:\n        /* \"#utility.yul\":6535:6538   */\n      0x00\n        /* \"#utility.yul\":6554:6574   */\n      tag_114\n        /* \"#utility.yul\":6572:6573   */\n      dup3\n        /* \"#utility.yul\":6554:6574   */\n      tag_34\n      jump\t// in\n    tag_114:\n        /* \"#utility.yul\":6549:6574   */\n      swap2\n      pop\n        /* \"#utility.yul\":6588:6608   */\n      tag_115\n        /* \"#utility.yul\":6606:6607   */\n      dup4\n        /* \"#utility.yul\":6588:6608   */\n      tag_34\n      jump\t// in\n    tag_115:\n        /* \"#utility.yul\":6583:6608   */\n      swap3\n      pop\n        /* \"#utility.yul\":6631:6632   */\n      dup3\n        /* \"#utility.yul\":6628:6629   */\n      dup3\n        /* \"#utility.yul\":6624:6633   */\n      add\n        /* \"#utility.yul\":6617:6633   */\n      swap1\n      pop\n        /* \"#utility.yul\":6652:6655   */\n      dup1\n        /* \"#utility.yul\":6649:6650   */\n      dup3\n        /* \"#utility.yul\":6646:6656   */\n      gt\n        /* \"#utility.yul\":6643:6679   */\n      iszero\n      tag_116\n      jumpi\n        /* \"#utility.yul\":6659:6677   */\n      tag_117\n      tag_54\n      jump\t// in\n    tag_117:\n        /* \"#utility.yul\":6643:6679   */\n    tag_116:\n        /* \"#utility.yul\":6495:6686   */\n      swap3\n      swap2\n      pop\n      pop\n      jump\t// out\n\n    auxdata: 0xa26469706673582212205e5b7ff82af48c0e456a44b798cefeafd56ede3dae07aa605efd1b3f0423dcfc64736f6c634300081a0033\n}\n",
				"bytecode": {
					"linkReferences": {},
					"object": "6080604052348015600e575f80fd5b506ec097ce7bc90715b34b9f10000000005f803373ffffffffffffffffffffffffffffffffffffffff1673ffffffffffffffffffffffffffffffffffffffff1681526020019081526020015f208190555061073a8061006c5f395ff3fe608060405234801561000f575f80fd5b5060043610610034575f3560e01c806312065fe014610038578063a9059cbb14610056575b5f80fd5b610040610086565b60405161004d91906103e2565b60405180910390f35b610070600480360381019061006b9190610483565b6100c9565b60405161007d91906103e2565b60405180910390f35b5f805f3373ffffffffffffffffffffffffffffffffffffffff1673ffffffffffffffffffffffffffffffffffffffff1681526020019081526020015f2054905090565b5f805f803373ffffffffffffffffffffffffffffffffffffffff1673ffffffffffffffffffffffffffffffffffffffff1681526020019081526020015f205411610148576040517f08c379a000000000000000000000000000000000000000000000000000000000815260040161013f9061051b565b60405180910390fd5b5f73ffffffffffffffffffffffffffffffffffffffff168373ffffffffffffffffffffffffffffffffffffffff16036101b6576040517f08c379a00000000000000000000000000000000000000000000000000000000081526004016101ad90610583565b60405180910390fd5b5f82116101f8576040517f08c379a00000000000000000000000000000000000000000000000000000000081526004016101ef906105eb565b60405180910390fd5b5f805f3373ffffffffffffffffffffffffffffffffffffffff1673ffffffffffffffffffffffffffffffffffffffff1681526020019081526020015f205490508281101561027b576040517f08c379a000000000000000000000000000000000000000000000000000000000815260040161027290610653565b60405180910390fd5b825f803373ffffffffffffffffffffffffffffffffffffffff1673ffffffffffffffffffffffffffffffffffffffff1681526020019081526020015f205f8282546102c6919061069e565b92505081905550825f808673ffffffffffffffffffffffffffffffffffffffff1673ffffffffffffffffffffffffffffffffffffffff1681526020019081526020015f205f82825461031891906106d1565b925050819055508373ffffffffffffffffffffffffffffffffffffffff163373ffffffffffffffffffffffffffffffffffffffff167fddf252ad1be2c89b69c2b068fc378daa952ba7f163c4a11628f55a4df523b3ef8560405161037c91906103e2565b60405180910390a35f803373ffffffffffffffffffffffffffffffffffffffff1673ffffffffffffffffffffffffffffffffffffffff1681526020019081526020015f205491505092915050565b5f819050919050565b6103dc816103ca565b82525050565b5f6020820190506103f55f8301846103d3565b92915050565b5f80fd5b5f73ffffffffffffffffffffffffffffffffffffffff82169050919050565b5f610428826103ff565b9050919050565b6104388161041e565b8114610442575f80fd5b50565b5f813590506104538161042f565b92915050565b610462816103ca565b811461046c575f80fd5b50565b5f8135905061047d81610459565b92915050565b5f8060408385031215610499576104986103fb565b5b5f6104a685828601610445565b92505060206104b78582860161046f565b9150509250929050565b5f82825260208201905092915050565b7f6d75737420686176652068616c616e63650000000000000000000000000000005f82015250565b5f6105056011836104c1565b9150610510826104d1565b602082019050919050565b5f6020820190508181035f830152610532816104f9565b9050919050565b7f7461726765742061646472657373206d757374206e6f7420656d7074790000005f82015250565b5f61056d601d836104c1565b915061057882610539565b602082019050919050565b5f6020820190508181035f83015261059a81610561565b9050919050565b7f616d6f756e74206d75737420626520706f7369746976650000000000000000005f82015250565b5f6105d56017836104c1565b91506105e0826105a1565b602082019050919050565b5f6020820190508181035f830152610602816105c9565b9050919050565b7f62616c616e6365206c657373207468616e20616d6f756e7400000000000000005f82015250565b5f61063d6018836104c1565b915061064882610609565b602082019050919050565b5f6020820190508181035f83015261066a81610631565b9050919050565b7f4e487b71000000000000000000000000000000000000000000000000000000005f52601160045260245ffd5b5f6106a8826103ca565b91506106b3836103ca565b92508282039050818111156106cb576106ca610671565b5b92915050565b5f6106db826103ca565b91506106e6836103ca565b92508282019050808211156106fe576106fd610671565b5b9291505056fea26469706673582212205e5b7ff82af48c0e456a44b798cefeafd56ede3dae07aa605efd1b3f0423dcfc64736f6c634300081a0033",
					"opcodes": "PUSH1 0x80 PUSH1 0x40 MSTORE CALLVALUE DUP1 ISZERO PUSH1 0xE JUMPI PUSH0 DUP1 REVERT JUMPDEST POP PUSH15 0xC097CE7BC90715B34B9F1000000000 PUSH0 DUP1 CALLER PUSH20 0xFFFFFFFFFFFFFFFFFFFFFFFFFFFFFFFFFFFFFFFF AND PUSH20 0xFFFFFFFFFFFFFFFFFFFFFFFFFFFFFFFFFFFFFFFF AND DUP2 MSTORE PUSH1 0x20 ADD SWAP1 DUP2 MSTORE PUSH1 0x20 ADD PUSH0 KECCAK256 DUP2 SWAP1 SSTORE POP PUSH2 0x73A DUP1 PUSH2 0x6C PUSH0 CODECOPY PUSH0 RETURN INVALID PUSH1 0x80 PUSH1 0x40 MSTORE CALLVALUE DUP1 ISZERO PUSH2 0xF JUMPI PUSH0 DUP1 REVERT JUMPDEST POP PUSH1 0x4 CALLDATASIZE LT PUSH2 0x34 JUMPI PUSH0 CALLDATALOAD PUSH1 0xE0 SHR DUP1 PUSH4 0x12065FE0 EQ PUSH2 0x38 JUMPI DUP1 PUSH4 0xA9059CBB EQ PUSH2 0x56 JUMPI JUMPDEST PUSH0 DUP1 REVERT JUMPDEST PUSH2 0x40 PUSH2 0x86 JUMP JUMPDEST PUSH1 0x40 MLOAD PUSH2 0x4D SWAP2 SWAP1 PUSH2 0x3E2 JUMP JUMPDEST PUSH1 0x40 MLOAD DUP1 SWAP2 SUB SWAP1 RETURN JUMPDEST PUSH2 0x70 PUSH1 0x4 DUP1 CALLDATASIZE SUB DUP2 ADD SWAP1 PUSH2 0x6B SWAP2 SWAP1 PUSH2 0x483 JUMP JUMPDEST PUSH2 0xC9 JUMP JUMPDEST PUSH1 0x40 MLOAD PUSH2 0x7D SWAP2 SWAP1 PUSH2 0x3E2 JUMP JUMPDEST PUSH1 0x40 MLOAD DUP1 SWAP2 SUB SWAP1 RETURN JUMPDEST PUSH0 DUP1 PUSH0 CALLER PUSH20 0xFFFFFFFFFFFFFFFFFFFFFFFFFFFFFFFFFFFFFFFF AND PUSH20 0xFFFFFFFFFFFFFFFFFFFFFFFFFFFFFFFFFFFFFFFF AND DUP2 MSTORE PUSH1 0x20 ADD SWAP1 DUP2 MSTORE PUSH1 0x20 ADD PUSH0 KECCAK256 SLOAD SWAP1 POP SWAP1 JUMP JUMPDEST PUSH0 DUP1 PUSH0 DUP1 CALLER PUSH20 0xFFFFFFFFFFFFFFFFFFFFFFFFFFFFFFFFFFFFFFFF AND PUSH20 0xFFFFFFFFFFFFFFFFFFFFFFFFFFFFFFFFFFFFFFFF AND DUP2 MSTORE PUSH1 0x20 ADD SWAP1 DUP2 MSTORE PUSH1 0x20 ADD PUSH0 KECCAK256 SLOAD GT PUSH2 0x148 JUMPI PUSH1 0x40 MLOAD PUSH32 0x8C379A000000000000000000000000000000000000000000000000000000000 DUP2 MSTORE PUSH1 0x4 ADD PUSH2 0x13F SWAP1 PUSH2 0x51B JUMP JUMPDEST PUSH1 0x40 MLOAD DUP1 SWAP2 SUB SWAP1 REVERT JUMPDEST PUSH0 PUSH20 0xFFFFFFFFFFFFFFFFFFFFFFFFFFFFFFFFFFFFFFFF AND DUP4 PUSH20 0xFFFFFFFFFFFFFFFFFFFFFFFFFFFFFFFFFFFFFFFF AND SUB PUSH2 0x1B6 JUMPI PUSH1 0x40 MLOAD PUSH32 0x8C379A000000000000000000000000000000000000000000000000000000000 DUP2 MSTORE PUSH1 0x4 ADD PUSH2 0x1AD SWAP1 PUSH2 0x583 JUMP JUMPDEST PUSH1 0x40 MLOAD DUP1 SWAP2 SUB SWAP1 REVERT JUMPDEST PUSH0 DUP3 GT PUSH2 0x1F8 JUMPI PUSH1 0x40 MLOAD PUSH32 0x8C379A000000000000000000000000000000000000000000000000000000000 DUP2 MSTORE PUSH1 0x4 ADD PUSH2 0x1EF SWAP1 PUSH2 0x5EB JUMP JUMPDEST PUSH1 0x40 MLOAD DUP1 SWAP2 SUB SWAP1 REVERT JUMPDEST PUSH0 DUP1 PUSH0 CALLER PUSH20 0xFFFFFFFFFFFFFFFFFFFFFFFFFFFFFFFFFFFFFFFF AND PUSH20 0xFFFFFFFFFFFFFFFFFFFFFFFFFFFFFFFFFFFFFFFF AND DUP2 MSTORE PUSH1 0x20 ADD SWAP1 DUP2 MSTORE PUSH1 0x20 ADD PUSH0 KECCAK256 SLOAD SWAP1 POP DUP3 DUP2 LT ISZERO PUSH2 0x27B JUMPI PUSH1 0x40 MLOAD PUSH32 0x8C379A000000000000000000000000000000000000000000000000000000000 DUP2 MSTORE PUSH1 0x4 ADD PUSH2 0x272 SWAP1 PUSH2 0x653 JUMP JUMPDEST PUSH1 0x40 MLOAD DUP1 SWAP2 SUB SWAP1 REVERT JUMPDEST DUP3 PUSH0 DUP1 CALLER PUSH20 0xFFFFFFFFFFFFFFFFFFFFFFFFFFFFFFFFFFFFFFFF AND PUSH20 0xFFFFFFFFFFFFFFFFFFFFFFFFFFFFFFFFFFFFFFFF AND DUP2 MSTORE PUSH1 0x20 ADD SWAP1 DUP2 MSTORE PUSH1 0x20 ADD PUSH0 KECCAK256 PUSH0 DUP3 DUP3 SLOAD PUSH2 0x2C6 SWAP2 SWAP1 PUSH2 0x69E JUMP JUMPDEST SWAP3 POP POP DUP2 SWAP1 SSTORE POP DUP3 PUSH0 DUP1 DUP7 PUSH20 0xFFFFFFFFFFFFFFFFFFFFFFFFFFFFFFFFFFFFFFFF AND PUSH20 0xFFFFFFFFFFFFFFFFFFFFFFFFFFFFFFFFFFFFFFFF AND DUP2 MSTORE PUSH1 0x20 ADD SWAP1 DUP2 MSTORE PUSH1 0x20 ADD PUSH0 KECCAK256 PUSH0 DUP3 DUP3 SLOAD PUSH2 0x318 SWAP2 SWAP1 PUSH2 0x6D1 JUMP JUMPDEST SWAP3 POP POP DUP2 SWAP1 SSTORE POP DUP4 PUSH20 0xFFFFFFFFFFFFFFFFFFFFFFFFFFFFFFFFFFFFFFFF AND CALLER PUSH20 0xFFFFFFFFFFFFFFFFFFFFFFFFFFFFFFFFFFFFFFFF AND PUSH32 0xDDF252AD1BE2C89B69C2B068FC378DAA952BA7F163C4A11628F55A4DF523B3EF DUP6 PUSH1 0x40 MLOAD PUSH2 0x37C SWAP2 SWAP1 PUSH2 0x3E2 JUMP JUMPDEST PUSH1 0x40 MLOAD DUP1 SWAP2 SUB SWAP1 LOG3 PUSH0 DUP1 CALLER PUSH20 0xFFFFFFFFFFFFFFFFFFFFFFFFFFFFFFFFFFFFFFFF AND PUSH20 0xFFFFFFFFFFFFFFFFFFFFFFFFFFFFFFFFFFFFFFFF AND DUP2 MSTORE PUSH1 0x20 ADD SWAP1 DUP2 MSTORE PUSH1 0x20 ADD PUSH0 KECCAK256 SLOAD SWAP2 POP POP SWAP3 SWAP2 POP POP JUMP JUMPDEST PUSH0 DUP2 SWAP1 POP SWAP2 SWAP1 POP JUMP JUMPDEST PUSH2 0x3DC DUP2 PUSH2 0x3CA JUMP JUMPDEST DUP3 MSTORE POP POP JUMP JUMPDEST PUSH0 PUSH1 0x20 DUP3 ADD SWAP1 POP PUSH2 0x3F5 PUSH0 DUP4 ADD DUP5 PUSH2 0x3D3 JUMP JUMPDEST SWAP3 SWAP2 POP POP JUMP JUMPDEST PUSH0 DUP1 REVERT JUMPDEST PUSH0 PUSH20 0xFFFFFFFFFFFFFFFFFFFFFFFFFFFFFFFFFFFFFFFF DUP3 AND SWAP1 POP SWAP2 SWAP1 POP JUMP JUMPDEST PUSH0 PUSH2 0x428 DUP3 PUSH2 0x3FF JUMP JUMPDEST SWAP1 POP SWAP2 SWAP1 POP JUMP JUMPDEST PUSH2 0x438 DUP2 PUSH2 0x41E JUMP JUMPDEST DUP2 EQ PUSH2 0x442 JUMPI PUSH0 DUP1 REVERT JUMPDEST POP JUMP JUMPDEST PUSH0 DUP2 CALLDATALOAD SWAP1 POP PUSH2 0x453 DUP2 PUSH2 0x42F JUMP JUMPDEST SWAP3 SWAP2 POP POP JUMP JUMPDEST PUSH2 0x462 DUP2 PUSH2 0x3CA JUMP JUMPDEST DUP2 EQ PUSH2 0x46C JUMPI PUSH0 DUP1 REVERT JUMPDEST POP JUMP JUMPDEST PUSH0 DUP2 CALLDATALOAD SWAP1 POP PUSH2 0x47D DUP2 PUSH2 0x459 JUMP JUMPDEST SWAP3 SWAP2 POP POP JUMP JUMPDEST PUSH0 DUP1 PUSH1 0x40 DUP4 DUP6 SUB SLT ISZERO PUSH2 0x499 JUMPI PUSH2 0x498 PUSH2 0x3FB JUMP JUMPDEST JUMPDEST PUSH0 PUSH2 0x4A6 DUP6 DUP3 DUP7 ADD PUSH2 0x445 JUMP JUMPDEST SWAP3 POP POP PUSH1 0x20 PUSH2 0x4B7 DUP6 DUP3 DUP7 ADD PUSH2 0x46F JUMP JUMPDEST SWAP2 POP POP SWAP3 POP SWAP3 SWAP1 POP JUMP JUMPDEST PUSH0 DUP3 DUP3 MSTORE PUSH1 0x20 DUP3 ADD SWAP1 POP SWAP3 SWAP2 POP POP JUMP JUMPDEST PUSH32 0x6D75737420686176652068616C616E6365000000000000000000000000000000 PUSH0 DUP3 ADD MSTORE POP JUMP JUMPDEST PUSH0 PUSH2 0x505 PUSH1 0x11 DUP4 PUSH2 0x4C1 JUMP JUMPDEST SWAP2 POP PUSH2 0x510 DUP3 PUSH2 0x4D1 JUMP JUMPDEST PUSH1 0x20 DUP3 ADD SWAP1 POP SWAP2 SWAP1 POP JUMP JUMPDEST PUSH0 PUSH1 0x20 DUP3 ADD SWAP1 POP DUP2 DUP2 SUB PUSH0 DUP4 ADD MSTORE PUSH2 0x532 DUP2 PUSH2 0x4F9 JUMP JUMPDEST SWAP1 POP SWAP2 SWAP1 POP JUMP JUMPDEST PUSH32 0x7461726765742061646472657373206D757374206E6F7420656D707479000000 PUSH0 DUP3 ADD MSTORE POP JUMP JUMPDEST PUSH0 PUSH2 0x56D PUSH1 0x1D DUP4 PUSH2 0x4C1 JUMP JUMPDEST SWAP2 POP PUSH2 0x578 DUP3 PUSH2 0x539 JUMP JUMPDEST PUSH1 0x20 DUP3 ADD SWAP1 POP SWAP2 SWAP1 POP JUMP JUMPDEST PUSH0 PUSH1 0x20 DUP3 ADD SWAP1 POP DUP2 DUP2 SUB PUSH0 DUP4 ADD MSTORE PUSH2 0x59A DUP2 PUSH2 0x561 JUMP JUMPDEST SWAP1 POP SWAP2 SWAP1 POP JUMP JUMPDEST PUSH32 0x616D6F756E74206D75737420626520706F736974697665000000000000000000 PUSH0 DUP3 ADD MSTORE POP JUMP JUMPDEST PUSH0 PUSH2 0x5D5 PUSH1 0x17 DUP4 PUSH2 0x4C1 JUMP JUMPDEST SWAP2 POP PUSH2 0x5E0 DUP3 PUSH2 0x5A1 JUMP JUMPDEST PUSH1 0x20 DUP3 ADD SWAP1 POP SWAP2 SWAP1 POP JUMP JUMPDEST PUSH0 PUSH1 0x20 DUP3 ADD SWAP1 POP DUP2 DUP2 SUB PUSH0 DUP4 ADD MSTORE PUSH2 0x602 DUP2 PUSH2 0x5C9 JUMP JUMPDEST SWAP1 POP SWAP2 SWAP1 POP JUMP JUMPDEST PUSH32 0x62616C616E6365206C657373207468616E20616D6F756E740000000000000000 PUSH0 DUP3 ADD MSTORE POP JUMP JUMPDEST PUSH0 PUSH2 0x63D PUSH1 0x18 DUP4 PUSH2 0x4C1 JUMP JUMPDEST SWAP2 POP PUSH2 0x648 DUP3 PUSH2 0x609 JUMP JUMPDEST PUSH1 0x20 DUP3 ADD SWAP1 POP SWAP2 SWAP1 POP JUMP JUMPDEST PUSH0 PUSH1 0x20 DUP3 ADD SWAP1 POP DUP2 DUP2 SUB PUSH0 DUP4 ADD MSTORE PUSH2 0x66A DUP2 PUSH2 0x631 JUMP JUMPDEST SWAP1 POP SWAP2 SWAP1 POP JUMP JUMPDEST PUSH32 0x4E487B7100000000000000000000000000000000000000000000000000000000 PUSH0 MSTORE PUSH1 0x11 PUSH1 0x4 MSTORE PUSH1 0x24 PUSH0 REVERT JUMPDEST PUSH0 PUSH2 0x6A8 DUP3 PUSH2 0x3CA JUMP JUMPDEST SWAP2 POP PUSH2 0x6B3 DUP4 PUSH2 0x3CA JUMP JUMPDEST SWAP3 POP DUP3 DUP3 SUB SWAP1 POP DUP2 DUP2 GT ISZERO PUSH2 0x6CB JUMPI PUSH2 0x6CA PUSH2 0x671 JUMP JUMPDEST JUMPDEST SWAP3 SWAP2 POP POP JUMP JUMPDEST PUSH0 PUSH2 0x6DB DUP3 PUSH2 0x3CA JUMP JUMPDEST SWAP2 POP PUSH2 0x6E6 DUP4 PUSH2 0x3CA JUMP JUMPDEST SWAP3 POP DUP3 DUP3 ADD SWAP1 POP DUP1 DUP3 GT ISZERO PUSH2 0x6FE JUMPI PUSH2 0x6FD PUSH2 0x671 JUMP JUMPDEST JUMPDEST SWAP3 SWAP2 POP POP JUMP INVALID LOG2 PUSH5 0x6970667358 0x22 SLT KECCAK256 MCOPY JUMPDEST PUSH32 0xF82AF48C0E456A44B798CEFEAFD56EDE3DAE07AA605EFD1B3F0423DCFC64736F PUSH13 0x634300081A0033000000000000 "
				},
				"gasEstimates": {
					"creation": {
						"codeDepositCost": "370000",
						"executionCost": "22604",
						"totalCost": "392604"
					},
					"external": {
						"getBalance()": "2497",
						"transfer(address,uint256)": "infinite"
					}
				},
				"methodIdentifiers": {
					"getBalance()": "12065fe0",
					"transfer(address,uint256)": "a9059cbb"
				}
			},
			"storageLayout": {
				"storage": [
					{
						"astId": 5,
						"contract": "contracts/TransferEvent.sol:TransferEvent",
						"label": "address2Balance",
						"offset": 0,
						"slot": "0",
						"type": "t_mapping(t_address,t_uint256)"
					}
				],
				"types": {
					"t_address": {
						"encoding": "inplace",
						"label": "address",
						"numberOfBytes": "20"
					},
					"t_mapping(t_address,t_uint256)": {
						"encoding": "mapping",
						"key": "t_address",
						"label": "mapping(address => uint256)",
						"numberOfBytes": "32",
						"value": "t_uint256"
					},
					"t_uint256": {
						"encoding": "inplace",
						"label": "uint256",
						"numberOfBytes": "32"
					}
				}
			},
			"userdoc": {
				"kind": "user",
				"methods": {},
				"version": 1
			}
		}
	}
}