{
	"contracts/LibAppStorage.sol": {
		"AFacet": {
			"abi": [
				{
					"inputs": [],
					"name": "getFirsVar",
					"outputs": [
						{
							"internalType": "uint256",
							"name": "",
							"type": "uint256"
						}
					],
					"stateMutability": "view",
					"type": "function"
				},
				{
					"inputs": [
						{
							"internalType": "uint256",
							"name": "_newValue",
							"type": "uint256"
						}
					],
					"name": "setLastVar",
					"outputs": [],
					"stateMutability": "nonpayable",
					"type": "function"
				},
				{
					"inputs": [],
					"name": "sumVariables",
					"outputs": [],
					"stateMutability": "nonpayable",
					"type": "function"
				}
			],
			"devdoc": {
				"kind": "dev",
				"methods": {},
				"version": 1
			},
			"evm": {
				"assembly": "    /* \"contracts/LibAppStorage.sol\":1737:2061  contract AFacet {... */\n  mstore(0x40, 0x80)\n  callvalue\n  dup1\n  iszero\n  tag_1\n  jumpi\n  0x00\n  dup1\n  revert\ntag_1:\n  pop\n  dataSize(sub_0)\n  dup1\n  dataOffset(sub_0)\n  0x00\n  codecopy\n  0x00\n  return\nstop\n\nsub_0: assembly {\n        /* \"contracts/LibAppStorage.sol\":1737:2061  contract AFacet {... */\n      mstore(0x40, 0x80)\n      callvalue\n      dup1\n      iszero\n      tag_1\n      jumpi\n      0x00\n      dup1\n      revert\n    tag_1:\n      pop\n      jumpi(tag_2, lt(calldatasize, 0x04))\n      shr(0xe0, calldataload(0x00))\n      dup1\n      0x09479666\n      eq\n      tag_3\n      jumpi\n      dup1\n      0x0efc8d93\n      eq\n      tag_4\n      jumpi\n      dup1\n      0xbb49670e\n      eq\n      tag_5\n      jumpi\n    tag_2:\n      0x00\n      dup1\n      revert\n        /* \"contracts/LibAppStorage.sol\":1973:2059  function setLastVar(uint256 _newValue) external {... */\n    tag_3:\n      tag_6\n      0x04\n      dup1\n      calldatasize\n      sub\n      dup2\n      add\n      swap1\n      tag_7\n      swap2\n      swap1\n      tag_8\n      jump\t// in\n    tag_7:\n      tag_9\n      jump\t// in\n    tag_6:\n      stop\n        /* \"contracts/LibAppStorage.sol\":1787:1873  function sumVariables() external {... */\n    tag_4:\n      tag_10\n      tag_11\n      jump\t// in\n    tag_10:\n      stop\n        /* \"contracts/LibAppStorage.sol\":1879:1967  function getFirsVar() external view returns (uint256) {... */\n    tag_5:\n      tag_12\n      tag_13\n      jump\t// in\n    tag_12:\n      mload(0x40)\n      tag_14\n      swap2\n      swap1\n      tag_15\n      jump\t// in\n    tag_14:\n      mload(0x40)\n      dup1\n      swap2\n      sub\n      swap1\n      return\n        /* \"contracts/LibAppStorage.sol\":1973:2059  function setLastVar(uint256 _newValue) external {... */\n    tag_9:\n        /* \"contracts/LibAppStorage.sol\":2043:2052  _newValue */\n      dup1\n        /* \"contracts/LibAppStorage.sol\":2031:2032  s */\n      0x00\n        /* \"contracts/LibAppStorage.sol\":2031:2040  s.lastVar */\n      0x02\n      add\n        /* \"contracts/LibAppStorage.sol\":2031:2052  s.lastVar = _newValue */\n      dup2\n      swap1\n      sstore\n      pop\n        /* \"contracts/LibAppStorage.sol\":1973:2059  function setLastVar(uint256 _newValue) external {... */\n      pop\n      jump\t// out\n        /* \"contracts/LibAppStorage.sol\":1787:1873  function sumVariables() external {... */\n    tag_11:\n        /* \"contracts/LibAppStorage.sol\":1855:1856  s */\n      0x00\n        /* \"contracts/LibAppStorage.sol\":1855:1866  s.secondVar */\n      dup1\n      add\n      sload\n        /* \"contracts/LibAppStorage.sol\":1842:1843  s */\n      0x00\n        /* \"contracts/LibAppStorage.sol\":1842:1852  s.firstVar */\n      0x01\n      add\n      sload\n        /* \"contracts/LibAppStorage.sol\":1842:1866  s.firstVar + s.secondVar */\n      tag_18\n      swap2\n      swap1\n      tag_19\n      jump\t// in\n    tag_18:\n        /* \"contracts/LibAppStorage.sol\":1830:1831  s */\n      0x00\n        /* \"contracts/LibAppStorage.sol\":1830:1839  s.lastVar */\n      0x02\n      add\n        /* \"contracts/LibAppStorage.sol\":1830:1866  s.lastVar = s.firstVar + s.secondVar */\n      dup2\n      swap1\n      sstore\n      pop\n        /* \"contracts/LibAppStorage.sol\":1787:1873  function sumVariables() external {... */\n      jump\t// out\n        /* \"contracts/LibAppStorage.sol\":1879:1967  function getFirsVar() external view returns (uint256) {... */\n    tag_13:\n        /* \"contracts/LibAppStorage.sol\":1924:1931  uint256 */\n      0x00\n        /* \"contracts/LibAppStorage.sol\":1950:1951  s */\n      dup1\n        /* \"contracts/LibAppStorage.sol\":1950:1960  s.firstVar */\n      0x01\n      add\n      sload\n        /* \"contracts/LibAppStorage.sol\":1943:1960  return s.firstVar */\n      swap1\n      pop\n        /* \"contracts/LibAppStorage.sol\":1879:1967  function getFirsVar() external view returns (uint256) {... */\n      swap1\n      jump\t// out\n        /* \"#utility.yul\":88:205   */\n    tag_22:\n        /* \"#utility.yul\":197:198   */\n      0x00\n        /* \"#utility.yul\":194:195   */\n      dup1\n        /* \"#utility.yul\":187:199   */\n      revert\n        /* \"#utility.yul\":334:411   */\n    tag_24:\n        /* \"#utility.yul\":371:378   */\n      0x00\n        /* \"#utility.yul\":400:405   */\n      dup2\n        /* \"#utility.yul\":389:405   */\n      swap1\n      pop\n        /* \"#utility.yul\":334:411   */\n      swap2\n      swap1\n      pop\n      jump\t// out\n        /* \"#utility.yul\":417:539   */\n    tag_25:\n        /* \"#utility.yul\":490:514   */\n      tag_35\n        /* \"#utility.yul\":508:513   */\n      dup2\n        /* \"#utility.yul\":490:514   */\n      tag_24\n      jump\t// in\n    tag_35:\n        /* \"#utility.yul\":483:488   */\n      dup2\n        /* \"#utility.yul\":480:515   */\n      eq\n        /* \"#utility.yul\":470:533   */\n      tag_36\n      jumpi\n        /* \"#utility.yul\":529:530   */\n      0x00\n        /* \"#utility.yul\":526:527   */\n      dup1\n        /* \"#utility.yul\":519:531   */\n      revert\n        /* \"#utility.yul\":470:533   */\n    tag_36:\n        /* \"#utility.yul\":417:539   */\n      pop\n      jump\t// out\n        /* \"#utility.yul\":545:684   */\n    tag_26:\n        /* \"#utility.yul\":591:596   */\n      0x00\n        /* \"#utility.yul\":629:635   */\n      dup2\n        /* \"#utility.yul\":616:636   */\n      calldataload\n        /* \"#utility.yul\":607:636   */\n      swap1\n      pop\n        /* \"#utility.yul\":645:678   */\n      tag_38\n        /* \"#utility.yul\":672:677   */\n      dup2\n        /* \"#utility.yul\":645:678   */\n      tag_25\n      jump\t// in\n    tag_38:\n        /* \"#utility.yul\":545:684   */\n      swap3\n      swap2\n      pop\n      pop\n      jump\t// out\n        /* \"#utility.yul\":690:1019   */\n    tag_8:\n        /* \"#utility.yul\":749:755   */\n      0x00\n        /* \"#utility.yul\":798:800   */\n      0x20\n        /* \"#utility.yul\":786:795   */\n      dup3\n        /* \"#utility.yul\":777:784   */\n      dup5\n        /* \"#utility.yul\":773:796   */\n      sub\n        /* \"#utility.yul\":769:801   */\n      slt\n        /* \"#utility.yul\":766:885   */\n      iszero\n      tag_40\n      jumpi\n        /* \"#utility.yul\":804:883   */\n      tag_41\n      tag_22\n      jump\t// in\n    tag_41:\n        /* \"#utility.yul\":766:885   */\n    tag_40:\n        /* \"#utility.yul\":924:925   */\n      0x00\n        /* \"#utility.yul\":949:1002   */\n      tag_42\n        /* \"#utility.yul\":994:1001   */\n      dup5\n        /* \"#utility.yul\":985:991   */\n      dup3\n        /* \"#utility.yul\":974:983   */\n      dup6\n        /* \"#utility.yul\":970:992   */\n      add\n        /* \"#utility.yul\":949:1002   */\n      tag_26\n      jump\t// in\n    tag_42:\n        /* \"#utility.yul\":939:1002   */\n      swap2\n      pop\n        /* \"#utility.yul\":895:1012   */\n      pop\n        /* \"#utility.yul\":690:1019   */\n      swap3\n      swap2\n      pop\n      pop\n      jump\t// out\n        /* \"#utility.yul\":1025:1143   */\n    tag_27:\n        /* \"#utility.yul\":1112:1136   */\n      tag_44\n        /* \"#utility.yul\":1130:1135   */\n      dup2\n        /* \"#utility.yul\":1112:1136   */\n      tag_24\n      jump\t// in\n    tag_44:\n        /* \"#utility.yul\":1107:1110   */\n      dup3\n        /* \"#utility.yul\":1100:1137   */\n      mstore\n        /* \"#utility.yul\":1025:1143   */\n      pop\n      pop\n      jump\t// out\n        /* \"#utility.yul\":1149:1371   */\n    tag_15:\n        /* \"#utility.yul\":1242:1246   */\n      0x00\n        /* \"#utility.yul\":1280:1282   */\n      0x20\n        /* \"#utility.yul\":1269:1278   */\n      dup3\n        /* \"#utility.yul\":1265:1283   */\n      add\n        /* \"#utility.yul\":1257:1283   */\n      swap1\n      pop\n        /* \"#utility.yul\":1293:1364   */\n      tag_46\n        /* \"#utility.yul\":1361:1362   */\n      0x00\n        /* \"#utility.yul\":1350:1359   */\n      dup4\n        /* \"#utility.yul\":1346:1363   */\n      add\n        /* \"#utility.yul\":1337:1343   */\n      dup5\n        /* \"#utility.yul\":1293:1364   */\n      tag_27\n      jump\t// in\n    tag_46:\n        /* \"#utility.yul\":1149:1371   */\n      swap3\n      swap2\n      pop\n      pop\n      jump\t// out\n        /* \"#utility.yul\":1377:1557   */\n    tag_28:\n        /* \"#utility.yul\":1425:1502   */\n      0x4e487b7100000000000000000000000000000000000000000000000000000000\n        /* \"#utility.yul\":1422:1423   */\n      0x00\n        /* \"#utility.yul\":1415:1503   */\n      mstore\n        /* \"#utility.yul\":1522:1526   */\n      0x11\n        /* \"#utility.yul\":1519:1520   */\n      0x04\n        /* \"#utility.yul\":1512:1527   */\n      mstore\n        /* \"#utility.yul\":1546:1550   */\n      0x24\n        /* \"#utility.yul\":1543:1544   */\n      0x00\n        /* \"#utility.yul\":1536:1551   */\n      revert\n        /* \"#utility.yul\":1563:1754   */\n    tag_19:\n        /* \"#utility.yul\":1603:1606   */\n      0x00\n        /* \"#utility.yul\":1622:1642   */\n      tag_49\n        /* \"#utility.yul\":1640:1641   */\n      dup3\n        /* \"#utility.yul\":1622:1642   */\n      tag_24\n      jump\t// in\n    tag_49:\n        /* \"#utility.yul\":1617:1642   */\n      swap2\n      pop\n        /* \"#utility.yul\":1656:1676   */\n      tag_50\n        /* \"#utility.yul\":1674:1675   */\n      dup4\n        /* \"#utility.yul\":1656:1676   */\n      tag_24\n      jump\t// in\n    tag_50:\n        /* \"#utility.yul\":1651:1676   */\n      swap3\n      pop\n        /* \"#utility.yul\":1699:1700   */\n      dup3\n        /* \"#utility.yul\":1696:1697   */\n      dup3\n        /* \"#utility.yul\":1692:1701   */\n      add\n        /* \"#utility.yul\":1685:1701   */\n      swap1\n      pop\n        /* \"#utility.yul\":1720:1723   */\n      dup1\n        /* \"#utility.yul\":1717:1718   */\n      dup3\n        /* \"#utility.yul\":1714:1724   */\n      gt\n        /* \"#utility.yul\":1711:1747   */\n      iszero\n      tag_51\n      jumpi\n        /* \"#utility.yul\":1727:1745   */\n      tag_52\n      tag_28\n      jump\t// in\n    tag_52:\n        /* \"#utility.yul\":1711:1747   */\n    tag_51:\n        /* \"#utility.yul\":1563:1754   */\n      swap3\n      swap2\n      pop\n      pop\n      jump\t// out\n\n    auxdata: 0xa264697066735822122068a729d9735a51179a73da6f5f4536253c8b43e4cdb3fc30021be36b7530680464736f6c634300081a0033\n}\n",
				"bytecode": {
					"linkReferences": {},
					"object": "6080604052348015600e575f80fd5b506101db8061001c5f395ff3fe608060405234801561000f575f80fd5b506004361061003f575f3560e01c806309479666146100435780630efc8d931461005f578063bb49670e14610069575b5f80fd5b61005d600480360381019061005891906100f2565b610087565b005b610067610093565b005b6100716100b0565b60405161007e919061012c565b60405180910390f35b805f6002018190555050565b5f8001545f600101546100a69190610172565b5f60020181905550565b5f8060010154905090565b5f80fd5b5f819050919050565b6100d1816100bf565b81146100db575f80fd5b50565b5f813590506100ec816100c8565b92915050565b5f60208284031215610107576101066100bb565b5b5f610114848285016100de565b91505092915050565b610126816100bf565b82525050565b5f60208201905061013f5f83018461011d565b92915050565b7f4e487b71000000000000000000000000000000000000000000000000000000005f52601160045260245ffd5b5f61017c826100bf565b9150610187836100bf565b925082820190508082111561019f5761019e610145565b5b9291505056fea264697066735822122068a729d9735a51179a73da6f5f4536253c8b43e4cdb3fc30021be36b7530680464736f6c634300081a0033",
					"opcodes": "PUSH1 0x80 PUSH1 0x40 MSTORE CALLVALUE DUP1 ISZERO PUSH1 0xE JUMPI PUSH0 DUP1 REVERT JUMPDEST POP PUSH2 0x1DB DUP1 PUSH2 0x1C PUSH0 CODECOPY PUSH0 RETURN INVALID PUSH1 0x80 PUSH1 0x40 MSTORE CALLVALUE DUP1 ISZERO PUSH2 0xF JUMPI PUSH0 DUP1 REVERT JUMPDEST POP PUSH1 0x4 CALLDATASIZE LT PUSH2 0x3F JUMPI PUSH0 CALLDATALOAD PUSH1 0xE0 SHR DUP1 PUSH4 0x9479666 EQ PUSH2 0x43 JUMPI DUP1 PUSH4 0xEFC8D93 EQ PUSH2 0x5F JUMPI DUP1 PUSH4 0xBB49670E EQ PUSH2 0x69 JUMPI JUMPDEST PUSH0 DUP1 REVERT JUMPDEST PUSH2 0x5D PUSH1 0x4 DUP1 CALLDATASIZE SUB DUP2 ADD SWAP1 PUSH2 0x58 SWAP2 SWAP1 PUSH2 0xF2 JUMP JUMPDEST PUSH2 0x87 JUMP JUMPDEST STOP JUMPDEST PUSH2 0x67 PUSH2 0x93 JUMP JUMPDEST STOP JUMPDEST PUSH2 0x71 PUSH2 0xB0 JUMP JUMPDEST PUSH1 0x40 MLOAD PUSH2 0x7E SWAP2 SWAP1 PUSH2 0x12C JUMP JUMPDEST PUSH1 0x40 MLOAD DUP1 SWAP2 SUB SWAP1 RETURN JUMPDEST DUP1 PUSH0 PUSH1 0x2 ADD DUP2 SWAP1 SSTORE POP POP JUMP JUMPDEST PUSH0 DUP1 ADD SLOAD PUSH0 PUSH1 0x1 ADD SLOAD PUSH2 0xA6 SWAP2 SWAP1 PUSH2 0x172 JUMP JUMPDEST PUSH0 PUSH1 0x2 ADD DUP2 SWAP1 SSTORE POP JUMP JUMPDEST PUSH0 DUP1 PUSH1 0x1 ADD SLOAD SWAP1 POP SWAP1 JUMP JUMPDEST PUSH0 DUP1 REVERT JUMPDEST PUSH0 DUP2 SWAP1 POP SWAP2 SWAP1 POP JUMP JUMPDEST PUSH2 0xD1 DUP2 PUSH2 0xBF JUMP JUMPDEST DUP2 EQ PUSH2 0xDB JUMPI PUSH0 DUP1 REVERT JUMPDEST POP JUMP JUMPDEST PUSH0 DUP2 CALLDATALOAD SWAP1 POP PUSH2 0xEC DUP2 PUSH2 0xC8 JUMP JUMPDEST SWAP3 SWAP2 POP POP JUMP JUMPDEST PUSH0 PUSH1 0x20 DUP3 DUP5 SUB SLT ISZERO PUSH2 0x107 JUMPI PUSH2 0x106 PUSH2 0xBB JUMP JUMPDEST JUMPDEST PUSH0 PUSH2 0x114 DUP5 DUP3 DUP6 ADD PUSH2 0xDE JUMP JUMPDEST SWAP2 POP POP SWAP3 SWAP2 POP POP JUMP JUMPDEST PUSH2 0x126 DUP2 PUSH2 0xBF JUMP JUMPDEST DUP3 MSTORE POP POP JUMP JUMPDEST PUSH0 PUSH1 0x20 DUP3 ADD SWAP1 POP PUSH2 0x13F PUSH0 DUP4 ADD DUP5 PUSH2 0x11D JUMP JUMPDEST SWAP3 SWAP2 POP POP JUMP JUMPDEST PUSH32 0x4E487B7100000000000000000000000000000000000000000000000000000000 PUSH0 MSTORE PUSH1 0x11 PUSH1 0x4 MSTORE PUSH1 0x24 PUSH0 REVERT JUMPDEST PUSH0 PUSH2 0x17C DUP3 PUSH2 0xBF JUMP JUMPDEST SWAP2 POP PUSH2 0x187 DUP4 PUSH2 0xBF JUMP JUMPDEST SWAP3 POP DUP3 DUP3 ADD SWAP1 POP DUP1 DUP3 GT ISZERO PUSH2 0x19F JUMPI PUSH2 0x19E PUSH2 0x145 JUMP JUMPDEST JUMPDEST SWAP3 SWAP2 POP POP JUMP INVALID LOG2 PUSH5 0x6970667358 0x22 SLT KECCAK256 PUSH9 0xA729D9735A51179A73 0xDA PUSH16 0x5F4536253C8B43E4CDB3FC30021BE36B PUSH22 0x30680464736F6C634300081A00330000000000000000 "
				},
				"gasEstimates": {
					"creation": {
						"codeDepositCost": "95000",
						"executionCost": "139",
						"totalCost": "95139"
					},
					"external": {
						"getFirsVar()": "2460",
						"setLastVar(uint256)": "22498",
						"sumVariables()": "infinite"
					}
				},
				"methodIdentifiers": {
					"getFirsVar()": "bb49670e",
					"setLastVar(uint256)": "09479666",
					"sumVariables()": "0efc8d93"
				}
			},
			"storageLayout": {
				"storage": [
					{
						"astId": 11,
						"contract": "contracts/LibAppStorage.sol:AFacet",
						"label": "s",
						"offset": 0,
						"slot": "0",
						"type": "t_struct(AppStorage)8_storage"
					}
				],
				"types": {
					"t_struct(AppStorage)8_storage": {
						"encoding": "inplace",
						"label": "struct AppStorage",
						"members": [
							{
								"astId": 3,
								"contract": "contracts/LibAppStorage.sol:AFacet",
								"label": "secondVar",
								"offset": 0,
								"slot": "0",
								"type": "t_uint256"
							},
							{
								"astId": 5,
								"contract": "contracts/LibAppStorage.sol:AFacet",
								"label": "firstVar",
								"offset": 0,
								"slot": "1",
								"type": "t_uint256"
							},
							{
								"astId": 7,
								"contract": "contracts/LibAppStorage.sol:AFacet",
								"label": "lastVar",
								"offset": 0,
								"slot": "2",
								"type": "t_uint256"
							}
						],
						"numberOfBytes": "96"
					},
					"t_uint256": {
						"encoding": "inplace",
						"label": "uint256",
						"numberOfBytes": "32"
					}
				}
			},
			"userdoc": {
				"kind": "user",
				"methods": {},
				"version": 1
			}
		}
	}
}