{
	"contracts/LibAppStorage.sol": {
		"SomeOtherFacet": {
			"abi": [
				{
					"inputs": [],
					"name": "getLargerVar",
					"outputs": [
						{
							"internalType": "uint256",
							"name": "",
							"type": "uint256"
						}
					],
					"stateMutability": "view",
					"type": "function"
				}
			],
			"devdoc": {
				"kind": "dev",
				"methods": {},
				"version": 1
			},
			"evm": {
				"assembly": "    /* \"contracts/LibAppStorage.sol\":2158:2490  contract SomeOtherFacet {... */\n  mstore(0x40, 0x80)\n  callvalue\n  dup1\n  iszero\n  tag_1\n  jumpi\n  0x00\n  dup1\n  revert\ntag_1:\n  pop\n  dataSize(sub_0)\n  dup1\n  dataOffset(sub_0)\n  0x00\n  codecopy\n  0x00\n  return\nstop\n\nsub_0: assembly {\n        /* \"contracts/LibAppStorage.sol\":2158:2490  contract SomeOtherFacet {... */\n      mstore(0x40, 0x80)\n      callvalue\n      dup1\n      iszero\n      tag_1\n      jumpi\n      0x00\n      dup1\n      revert\n    tag_1:\n      pop\n      jumpi(tag_2, lt(calldatasize, 0x04))\n      shr(0xe0, calldataload(0x00))\n      dup1\n      0xf34b2da5\n      eq\n      tag_3\n      jumpi\n    tag_2:\n      0x00\n      dup1\n      revert\n        /* \"contracts/LibAppStorage.sol\":2216:2488  function getLargerVar() external view returns (uint256) {... */\n    tag_3:\n      tag_4\n      tag_5\n      jump\t// in\n    tag_4:\n      mload(0x40)\n      tag_6\n      swap2\n      swap1\n      tag_7\n      jump\t// in\n    tag_6:\n      mload(0x40)\n      dup1\n      swap2\n      sub\n      swap1\n      return\n    tag_5:\n        /* \"contracts/LibAppStorage.sol\":2263:2270  uint256 */\n      0x00\n        /* \"contracts/LibAppStorage.sol\":2282:2298  uint256 firstVar */\n      dup1\n        /* \"contracts/LibAppStorage.sol\":2301:2302  s */\n      0x00\n        /* \"contracts/LibAppStorage.sol\":2301:2311  s.firstVar */\n      0x01\n      add\n      sload\n        /* \"contracts/LibAppStorage.sol\":2282:2311  uint256 firstVar = s.firstVar */\n      swap1\n      pop\n        /* \"contracts/LibAppStorage.sol\":2321:2338  uint256 secondVar */\n      0x00\n        /* \"contracts/LibAppStorage.sol\":2341:2342  s */\n      dup1\n        /* \"contracts/LibAppStorage.sol\":2341:2352  s.secondVar */\n      0x00\n      add\n      sload\n        /* \"contracts/LibAppStorage.sol\":2321:2352  uint256 secondVar = s.secondVar */\n      swap1\n      pop\n        /* \"contracts/LibAppStorage.sol\":2376:2385  secondVar */\n      dup1\n        /* \"contracts/LibAppStorage.sol\":2365:2373  firstVar */\n      dup3\n        /* \"contracts/LibAppStorage.sol\":2365:2385  firstVar > secondVar */\n      gt\n        /* \"contracts/LibAppStorage.sol\":2362:2482  if(firstVar > secondVar) {... */\n      iszero\n      tag_9\n      jumpi\n        /* \"contracts/LibAppStorage.sol\":2408:2416  firstVar */\n      dup2\n        /* \"contracts/LibAppStorage.sol\":2401:2416  return firstVar */\n      swap3\n      pop\n      pop\n      pop\n      jump(tag_8)\n        /* \"contracts/LibAppStorage.sol\":2362:2482  if(firstVar > secondVar) {... */\n    tag_9:\n        /* \"contracts/LibAppStorage.sol\":2462:2471  secondVar */\n      dup1\n        /* \"contracts/LibAppStorage.sol\":2455:2471  return secondVar */\n      swap3\n      pop\n      pop\n      pop\n        /* \"contracts/LibAppStorage.sol\":2216:2488  function getLargerVar() external view returns (uint256) {... */\n    tag_8:\n      swap1\n      jump\t// out\n        /* \"#utility.yul\":7:84   */\n    tag_11:\n        /* \"#utility.yul\":44:51   */\n      0x00\n        /* \"#utility.yul\":73:78   */\n      dup2\n        /* \"#utility.yul\":62:78   */\n      swap1\n      pop\n        /* \"#utility.yul\":7:84   */\n      swap2\n      swap1\n      pop\n      jump\t// out\n        /* \"#utility.yul\":90:208   */\n    tag_12:\n        /* \"#utility.yul\":177:201   */\n      tag_16\n        /* \"#utility.yul\":195:200   */\n      dup2\n        /* \"#utility.yul\":177:201   */\n      tag_11\n      jump\t// in\n    tag_16:\n        /* \"#utility.yul\":172:175   */\n      dup3\n        /* \"#utility.yul\":165:202   */\n      mstore\n        /* \"#utility.yul\":90:208   */\n      pop\n      pop\n      jump\t// out\n        /* \"#utility.yul\":214:436   */\n    tag_7:\n        /* \"#utility.yul\":307:311   */\n      0x00\n        /* \"#utility.yul\":345:347   */\n      0x20\n        /* \"#utility.yul\":334:343   */\n      dup3\n        /* \"#utility.yul\":330:348   */\n      add\n        /* \"#utility.yul\":322:348   */\n      swap1\n      pop\n        /* \"#utility.yul\":358:429   */\n      tag_18\n        /* \"#utility.yul\":426:427   */\n      0x00\n        /* \"#utility.yul\":415:424   */\n      dup4\n        /* \"#utility.yul\":411:428   */\n      add\n        /* \"#utility.yul\":402:408   */\n      dup5\n        /* \"#utility.yul\":358:429   */\n      tag_12\n      jump\t// in\n    tag_18:\n        /* \"#utility.yul\":214:436   */\n      swap3\n      swap2\n      pop\n      pop\n      jump\t// out\n\n    auxdata: 0xa2646970667358221220e15d25708d4787701ecb37d24462c682baeef75217ee2069b0ddbef478e39c7064736f6c634300081a0033\n}\n",
				"bytecode": {
					"linkReferences": {},
					"object": "6080604052348015600e575f80fd5b5060d080601a5f395ff3fe6080604052348015600e575f80fd5b50600436106026575f3560e01c8063f34b2da514602a575b5f80fd5b60306044565b604051603b91906083565b60405180910390f35b5f805f6001015490505f805f01549050808211156064578192505050606a565b80925050505b90565b5f819050919050565b607d81606d565b82525050565b5f60208201905060945f8301846076565b9291505056fea2646970667358221220e15d25708d4787701ecb37d24462c682baeef75217ee2069b0ddbef478e39c7064736f6c634300081a0033",
					"opcodes": "PUSH1 0x80 PUSH1 0x40 MSTORE CALLVALUE DUP1 ISZERO PUSH1 0xE JUMPI PUSH0 DUP1 REVERT JUMPDEST POP PUSH1 0xD0 DUP1 PUSH1 0x1A PUSH0 CODECOPY PUSH0 RETURN INVALID PUSH1 0x80 PUSH1 0x40 MSTORE CALLVALUE DUP1 ISZERO PUSH1 0xE JUMPI PUSH0 DUP1 REVERT JUMPDEST POP PUSH1 0x4 CALLDATASIZE LT PUSH1 0x26 JUMPI PUSH0 CALLDATALOAD PUSH1 0xE0 SHR DUP1 PUSH4 0xF34B2DA5 EQ PUSH1 0x2A JUMPI JUMPDEST PUSH0 DUP1 REVERT JUMPDEST PUSH1 0x30 PUSH1 0x44 JUMP JUMPDEST PUSH1 0x40 MLOAD PUSH1 0x3B SWAP2 SWAP1 PUSH1 0x83 JUMP JUMPDEST PUSH1 0x40 MLOAD DUP1 SWAP2 SUB SWAP1 RETURN JUMPDEST PUSH0 DUP1 PUSH0 PUSH1 0x1 ADD SLOAD SWAP1 POP PUSH0 DUP1 PUSH0 ADD SLOAD SWAP1 POP DUP1 DUP3 GT ISZERO PUSH1 0x64 JUMPI DUP2 SWAP3 POP POP POP PUSH1 0x6A JUMP JUMPDEST DUP1 SWAP3 POP POP POP JUMPDEST SWAP1 JUMP JUMPDEST PUSH0 DUP2 SWAP1 POP SWAP2 SWAP1 POP JUMP JUMPDEST PUSH1 0x7D DUP2 PUSH1 0x6D JUMP JUMPDEST DUP3 MSTORE POP POP JUMP JUMPDEST PUSH0 PUSH1 0x20 DUP3 ADD SWAP1 POP PUSH1 0x94 PUSH0 DUP4 ADD DUP5 PUSH1 0x76 JUMP JUMPDEST SWAP3 SWAP2 POP POP JUMP INVALID LOG2 PUSH5 0x6970667358 0x22 SLT KECCAK256 0xE1 TSTORE 0x25 PUSH17 0x8D4787701ECB37D24462C682BAEEF75217 0xEE KECCAK256 PUSH10 0xB0DDBEF478E39C706473 PUSH16 0x6C634300081A00330000000000000000 "
				},
				"gasEstimates": {
					"creation": {
						"codeDepositCost": "41600",
						"executionCost": "91",
						"totalCost": "41691"
					},
					"external": {
						"getLargerVar()": "4582"
					}
				},
				"methodIdentifiers": {
					"getLargerVar()": "f34b2da5"
				}
			},
			"storageLayout": {
				"storage": [
					{
						"astId": 50,
						"contract": "contracts/LibAppStorage.sol:SomeOtherFacet",
						"label": "s",
						"offset": 0,
						"slot": "0",
						"type": "t_struct(AppStorage)8_storage"
					}
				],
				"types": {
					"t_struct(AppStorage)8_storage": {
						"encoding": "inplace",
						"label": "struct AppStorage",
						"members": [
							{
								"astId": 3,
								"contract": "contracts/LibAppStorage.sol:SomeOtherFacet",
								"label": "secondVar",
								"offset": 0,
								"slot": "0",
								"type": "t_uint256"
							},
							{
								"astId": 5,
								"contract": "contracts/LibAppStorage.sol:SomeOtherFacet",
								"label": "firstVar",
								"offset": 0,
								"slot": "1",
								"type": "t_uint256"
							},
							{
								"astId": 7,
								"contract": "contracts/LibAppStorage.sol:SomeOtherFacet",
								"label": "lastVar",
								"offset": 0,
								"slot": "2",
								"type": "t_uint256"
							}
						],
						"numberOfBytes": "96"
					},
					"t_uint256": {
						"encoding": "inplace",
						"label": "uint256",
						"numberOfBytes": "32"
					}
				}
			},
			"userdoc": {
				"kind": "user",
				"methods": {},
				"version": 1
			}
		}
	}
}