{
	"contracts/MyUpgradeProxy.sol": {
		"MyUpgradeProxy": {
			"abi": [
				{
					"inputs": [
						{
							"internalType": "address",
							"name": "_logicAddress",
							"type": "address"
						}
					],
					"stateMutability": "nonpayable",
					"type": "constructor"
				},
				{
					"stateMutability": "payable",
					"type": "fallback"
				},
				{
					"inputs": [],
					"name": "adminAddress",
					"outputs": [
						{
							"internalType": "address",
							"name": "",
							"type": "address"
						}
					],
					"stateMutability": "view",
					"type": "function"
				},
				{
					"inputs": [],
					"name": "logicAddress",
					"outputs": [
						{
							"internalType": "address",
							"name": "",
							"type": "address"
						}
					],
					"stateMutability": "view",
					"type": "function"
				},
				{
					"inputs": [
						{
							"internalType": "address",
							"name": "newLogicAddress",
							"type": "address"
						}
					],
					"name": "upgradeLogicAddress",
					"outputs": [],
					"stateMutability": "nonpayable",
					"type": "function"
				},
				{
					"stateMutability": "payable",
					"type": "receive"
				}
			],
			"devdoc": {
				"kind": "dev",
				"methods": {},
				"version": 1
			},
			"evm": {
				"assembly": "    /* \"contracts/MyUpgradeProxy.sol\":315:2091  contract MyUpgradeProxy {... */\n  mstore(0x40, 0x80)\n    /* \"contracts/MyUpgradeProxy.sol\":529:644  constructor(address _logicAddress) {... */\n  callvalue\n  dup1\n  iszero\n  tag_1\n  jumpi\n  0x00\n  dup1\n  revert\ntag_1:\n  pop\n  mload(0x40)\n  sub(codesize, bytecodeSize)\n  dup1\n  bytecodeSize\n  dup4\n  codecopy\n  dup2\n  dup2\n  add\n  0x40\n  mstore\n  dup2\n  add\n  swap1\n  tag_2\n  swap2\n  swap1\n  tag_3\n  jump\t// in\ntag_2:\n    /* \"contracts/MyUpgradeProxy.sol\":589:602  _logicAddress */\n  dup1\n    /* \"contracts/MyUpgradeProxy.sol\":574:586  logicAddress */\n  0x01\n  0x00\n    /* \"contracts/MyUpgradeProxy.sol\":574:602  logicAddress = _logicAddress */\n  0x0100\n  exp\n  dup2\n  sload\n  dup2\n  0xffffffffffffffffffffffffffffffffffffffff\n  mul\n  not\n  and\n  swap1\n  dup4\n  0xffffffffffffffffffffffffffffffffffffffff\n  and\n  mul\n  or\n  swap1\n  sstore\n  pop\n    /* \"contracts/MyUpgradeProxy.sol\":627:637  msg.sender */\n  caller\n    /* \"contracts/MyUpgradeProxy.sol\":612:624  adminAddress */\n  0x02\n  0x00\n    /* \"contracts/MyUpgradeProxy.sol\":612:637  adminAddress = msg.sender */\n  0x0100\n  exp\n  dup2\n  sload\n  dup2\n  0xffffffffffffffffffffffffffffffffffffffff\n  mul\n  not\n  and\n  swap1\n  dup4\n  0xffffffffffffffffffffffffffffffffffffffff\n  and\n  mul\n  or\n  swap1\n  sstore\n  pop\n    /* \"contracts/MyUpgradeProxy.sol\":529:644  constructor(address _logicAddress) {... */\n  pop\n    /* \"contracts/MyUpgradeProxy.sol\":315:2091  contract MyUpgradeProxy {... */\n  jump(tag_6)\n    /* \"#utility.yul\":88:205   */\ntag_8:\n    /* \"#utility.yul\":197:198   */\n  0x00\n    /* \"#utility.yul\":194:195   */\n  dup1\n    /* \"#utility.yul\":187:199   */\n  revert\n    /* \"#utility.yul\":334:460   */\ntag_10:\n    /* \"#utility.yul\":371:378   */\n  0x00\n    /* \"#utility.yul\":411:453   */\n  0xffffffffffffffffffffffffffffffffffffffff\n    /* \"#utility.yul\":404:409   */\n  dup3\n    /* \"#utility.yul\":400:454   */\n  and\n    /* \"#utility.yul\":389:454   */\n  swap1\n  pop\n    /* \"#utility.yul\":334:460   */\n  swap2\n  swap1\n  pop\n  jump\t// out\n    /* \"#utility.yul\":466:562   */\ntag_11:\n    /* \"#utility.yul\":503:510   */\n  0x00\n    /* \"#utility.yul\":532:556   */\n  tag_20\n    /* \"#utility.yul\":550:555   */\n  dup3\n    /* \"#utility.yul\":532:556   */\n  tag_10\n  jump\t// in\ntag_20:\n    /* \"#utility.yul\":521:556   */\n  swap1\n  pop\n    /* \"#utility.yul\":466:562   */\n  swap2\n  swap1\n  pop\n  jump\t// out\n    /* \"#utility.yul\":568:690   */\ntag_12:\n    /* \"#utility.yul\":641:665   */\n  tag_22\n    /* \"#utility.yul\":659:664   */\n  dup2\n    /* \"#utility.yul\":641:665   */\n  tag_11\n  jump\t// in\ntag_22:\n    /* \"#utility.yul\":634:639   */\n  dup2\n    /* \"#utility.yul\":631:666   */\n  eq\n    /* \"#utility.yul\":621:684   */\n  tag_23\n  jumpi\n    /* \"#utility.yul\":680:681   */\n  0x00\n    /* \"#utility.yul\":677:678   */\n  dup1\n    /* \"#utility.yul\":670:682   */\n  revert\n    /* \"#utility.yul\":621:684   */\ntag_23:\n    /* \"#utility.yul\":568:690   */\n  pop\n  jump\t// out\n    /* \"#utility.yul\":696:839   */\ntag_13:\n    /* \"#utility.yul\":753:758   */\n  0x00\n    /* \"#utility.yul\":784:790   */\n  dup2\n    /* \"#utility.yul\":778:791   */\n  mload\n    /* \"#utility.yul\":769:791   */\n  swap1\n  pop\n    /* \"#utility.yul\":800:833   */\n  tag_25\n    /* \"#utility.yul\":827:832   */\n  dup2\n    /* \"#utility.yul\":800:833   */\n  tag_12\n  jump\t// in\ntag_25:\n    /* \"#utility.yul\":696:839   */\n  swap3\n  swap2\n  pop\n  pop\n  jump\t// out\n    /* \"#utility.yul\":845:1196   */\ntag_3:\n    /* \"#utility.yul\":915:921   */\n  0x00\n    /* \"#utility.yul\":964:966   */\n  0x20\n    /* \"#utility.yul\":952:961   */\n  dup3\n    /* \"#utility.yul\":943:950   */\n  dup5\n    /* \"#utility.yul\":939:962   */\n  sub\n    /* \"#utility.yul\":935:967   */\n  slt\n    /* \"#utility.yul\":932:1051   */\n  iszero\n  tag_27\n  jumpi\n    /* \"#utility.yul\":970:1049   */\n  tag_28\n  tag_8\n  jump\t// in\ntag_28:\n    /* \"#utility.yul\":932:1051   */\ntag_27:\n    /* \"#utility.yul\":1090:1091   */\n  0x00\n    /* \"#utility.yul\":1115:1179   */\n  tag_29\n    /* \"#utility.yul\":1171:1178   */\n  dup5\n    /* \"#utility.yul\":1162:1168   */\n  dup3\n    /* \"#utility.yul\":1151:1160   */\n  dup6\n    /* \"#utility.yul\":1147:1169   */\n  add\n    /* \"#utility.yul\":1115:1179   */\n  tag_13\n  jump\t// in\ntag_29:\n    /* \"#utility.yul\":1105:1179   */\n  swap2\n  pop\n    /* \"#utility.yul\":1061:1189   */\n  pop\n    /* \"#utility.yul\":845:1196   */\n  swap3\n  swap2\n  pop\n  pop\n  jump\t// out\n    /* \"contracts/MyUpgradeProxy.sol\":315:2091  contract MyUpgradeProxy {... */\ntag_6:\n  dataSize(sub_0)\n  dup1\n  dataOffset(sub_0)\n  0x00\n  codecopy\n  0x00\n  return\nstop\n\nsub_0: assembly {\n        /* \"contracts/MyUpgradeProxy.sol\":315:2091  contract MyUpgradeProxy {... */\n      mstore(0x40, 0x80)\n      jumpi(tag_1, lt(calldatasize, 0x04))\n      shr(0xe0, calldataload(0x00))\n      dup1\n      0x629d89d2\n      eq\n      tag_3\n      jumpi\n      dup1\n      0x9c1fcc4c\n      eq\n      tag_4\n      jumpi\n      dup1\n      0xfc6f9468\n      eq\n      tag_5\n      jumpi\n      jump(tag_2)\n    tag_1:\n      jumpi(tag_2, calldatasize)\n      stop\n    tag_2:\n        /* \"contracts/MyUpgradeProxy.sol\":927:950  _delegate(logicAddress) */\n      tag_10\n        /* \"contracts/MyUpgradeProxy.sol\":937:949  logicAddress */\n      0x01\n      0x00\n      swap1\n      sload\n      swap1\n      0x0100\n      exp\n      swap1\n      div\n      0xffffffffffffffffffffffffffffffffffffffff\n      and\n        /* \"contracts/MyUpgradeProxy.sol\":927:936  _delegate */\n      tag_11\n        /* \"contracts/MyUpgradeProxy.sol\":927:950  _delegate(logicAddress) */\n      jump\t// in\n    tag_10:\n        /* \"contracts/MyUpgradeProxy.sol\":315:2091  contract MyUpgradeProxy {... */\n      stop\n        /* \"contracts/MyUpgradeProxy.sol\":1908:2089  function upgradeLogicAddress(address newLogicAddress) external {... */\n    tag_3:\n      callvalue\n      dup1\n      iszero\n      tag_12\n      jumpi\n      0x00\n      dup1\n      revert\n    tag_12:\n      pop\n      tag_13\n      0x04\n      dup1\n      calldatasize\n      sub\n      dup2\n      add\n      swap1\n      tag_14\n      swap2\n      swap1\n      tag_15\n      jump\t// in\n    tag_14:\n      tag_16\n      jump\t// in\n    tag_13:\n      stop\n        /* \"contracts/MyUpgradeProxy.sol\":463:490  address public logicAddress */\n    tag_4:\n      callvalue\n      dup1\n      iszero\n      tag_17\n      jumpi\n      0x00\n      dup1\n      revert\n    tag_17:\n      pop\n      tag_18\n      tag_19\n      jump\t// in\n    tag_18:\n      mload(0x40)\n      tag_20\n      swap2\n      swap1\n      tag_21\n      jump\t// in\n    tag_20:\n      mload(0x40)\n      dup1\n      swap2\n      sub\n      swap1\n      return\n        /* \"contracts/MyUpgradeProxy.sol\":496:523  address public adminAddress */\n    tag_5:\n      callvalue\n      dup1\n      iszero\n      tag_22\n      jumpi\n      0x00\n      dup1\n      revert\n    tag_22:\n      pop\n      tag_23\n      tag_24\n      jump\t// in\n    tag_23:\n      mload(0x40)\n      tag_25\n      swap2\n      swap1\n      tag_21\n      jump\t// in\n    tag_25:\n      mload(0x40)\n      dup1\n      swap2\n      sub\n      swap1\n      return\n        /* \"contracts/MyUpgradeProxy.sol\":996:1883  function _delegate(address implementation) internal {... */\n    tag_11:\n        /* \"contracts/MyUpgradeProxy.sol\":1326:1340  calldatasize() */\n      calldatasize\n        /* \"contracts/MyUpgradeProxy.sol\":1323:1324  0 */\n      0x00\n        /* \"contracts/MyUpgradeProxy.sol\":1320:1321  0 */\n      dup1\n        /* \"contracts/MyUpgradeProxy.sol\":1307:1341  calldatacopy(0, 0, calldatasize()) */\n      calldatacopy\n        /* \"contracts/MyUpgradeProxy.sol\":1540:1541  0 */\n      0x00\n        /* \"contracts/MyUpgradeProxy.sol\":1537:1538  0 */\n      dup1\n        /* \"contracts/MyUpgradeProxy.sol\":1521:1535  calldatasize() */\n      calldatasize\n        /* \"contracts/MyUpgradeProxy.sol\":1518:1519  0 */\n      0x00\n        /* \"contracts/MyUpgradeProxy.sol\":1502:1516  implementation */\n      dup5\n        /* \"contracts/MyUpgradeProxy.sol\":1495:1500  gas() */\n      gas\n        /* \"contracts/MyUpgradeProxy.sol\":1482:1542  delegatecall(gas(), implementation, 0, calldatasize(), 0, 0) */\n      delegatecall\n        /* \"contracts/MyUpgradeProxy.sol\":1616:1632  returndatasize() */\n      returndatasize\n        /* \"contracts/MyUpgradeProxy.sol\":1613:1614  0 */\n      0x00\n        /* \"contracts/MyUpgradeProxy.sol\":1610:1611  0 */\n      dup1\n        /* \"contracts/MyUpgradeProxy.sol\":1595:1633  returndatacopy(0, 0, returndatasize()) */\n      returndatacopy\n        /* \"contracts/MyUpgradeProxy.sol\":1654:1660  result */\n      dup1\n        /* \"contracts/MyUpgradeProxy.sol\":1726:1727  0 */\n      0x00\n        /* \"contracts/MyUpgradeProxy.sol\":1721:1787  case 0 {... */\n      dup2\n      eq\n      tag_28\n      jumpi\n        /* \"contracts/MyUpgradeProxy.sol\":1836:1852  returndatasize() */\n      returndatasize\n        /* \"contracts/MyUpgradeProxy.sol\":1833:1834  0 */\n      0x00\n        /* \"contracts/MyUpgradeProxy.sol\":1826:1853  return(0, returndatasize()) */\n      return\n        /* \"contracts/MyUpgradeProxy.sol\":1721:1787  case 0 {... */\n    tag_28:\n        /* \"contracts/MyUpgradeProxy.sol\":1756:1772  returndatasize() */\n      returndatasize\n        /* \"contracts/MyUpgradeProxy.sol\":1753:1754  0 */\n      0x00\n        /* \"contracts/MyUpgradeProxy.sol\":1746:1773  revert(0, returndatasize()) */\n      revert\n        /* \"contracts/MyUpgradeProxy.sol\":1908:2089  function upgradeLogicAddress(address newLogicAddress) external {... */\n    tag_16:\n        /* \"contracts/MyUpgradeProxy.sol\":2003:2015  adminAddress */\n      0x02\n      0x00\n      swap1\n      sload\n      swap1\n      0x0100\n      exp\n      swap1\n      div\n      0xffffffffffffffffffffffffffffffffffffffff\n      and\n        /* \"contracts/MyUpgradeProxy.sol\":1989:2015  msg.sender == adminAddress */\n      0xffffffffffffffffffffffffffffffffffffffff\n      and\n        /* \"contracts/MyUpgradeProxy.sol\":1989:1999  msg.sender */\n      caller\n        /* \"contracts/MyUpgradeProxy.sol\":1989:2015  msg.sender == adminAddress */\n      0xffffffffffffffffffffffffffffffffffffffff\n      and\n      eq\n        /* \"contracts/MyUpgradeProxy.sol\":1981:2042  require(msg.sender == adminAddress, \"only admin can upgrade\") */\n      tag_30\n      jumpi\n      mload(0x40)\n      0x08c379a000000000000000000000000000000000000000000000000000000000\n      dup2\n      mstore\n      0x04\n      add\n      tag_31\n      swap1\n      tag_32\n      jump\t// in\n    tag_31:\n      mload(0x40)\n      dup1\n      swap2\n      sub\n      swap1\n      revert\n    tag_30:\n        /* \"contracts/MyUpgradeProxy.sol\":2067:2082  newLogicAddress */\n      dup1\n        /* \"contracts/MyUpgradeProxy.sol\":2052:2064  logicAddress */\n      0x01\n      0x00\n        /* \"contracts/MyUpgradeProxy.sol\":2052:2082  logicAddress = newLogicAddress */\n      0x0100\n      exp\n      dup2\n      sload\n      dup2\n      0xffffffffffffffffffffffffffffffffffffffff\n      mul\n      not\n      and\n      swap1\n      dup4\n      0xffffffffffffffffffffffffffffffffffffffff\n      and\n      mul\n      or\n      swap1\n      sstore\n      pop\n        /* \"contracts/MyUpgradeProxy.sol\":1908:2089  function upgradeLogicAddress(address newLogicAddress) external {... */\n      pop\n      jump\t// out\n        /* \"contracts/MyUpgradeProxy.sol\":463:490  address public logicAddress */\n    tag_19:\n      0x01\n      0x00\n      swap1\n      sload\n      swap1\n      0x0100\n      exp\n      swap1\n      div\n      0xffffffffffffffffffffffffffffffffffffffff\n      and\n      dup2\n      jump\t// out\n        /* \"contracts/MyUpgradeProxy.sol\":496:523  address public adminAddress */\n    tag_24:\n      0x02\n      0x00\n      swap1\n      sload\n      swap1\n      0x0100\n      exp\n      swap1\n      div\n      0xffffffffffffffffffffffffffffffffffffffff\n      and\n      dup2\n      jump\t// out\n        /* \"#utility.yul\":88:205   */\n    tag_34:\n        /* \"#utility.yul\":197:198   */\n      0x00\n        /* \"#utility.yul\":194:195   */\n      dup1\n        /* \"#utility.yul\":187:199   */\n      revert\n        /* \"#utility.yul\":334:460   */\n    tag_36:\n        /* \"#utility.yul\":371:378   */\n      0x00\n        /* \"#utility.yul\":411:453   */\n      0xffffffffffffffffffffffffffffffffffffffff\n        /* \"#utility.yul\":404:409   */\n      dup3\n        /* \"#utility.yul\":400:454   */\n      and\n        /* \"#utility.yul\":389:454   */\n      swap1\n      pop\n        /* \"#utility.yul\":334:460   */\n      swap2\n      swap1\n      pop\n      jump\t// out\n        /* \"#utility.yul\":466:562   */\n    tag_37:\n        /* \"#utility.yul\":503:510   */\n      0x00\n        /* \"#utility.yul\":532:556   */\n      tag_50\n        /* \"#utility.yul\":550:555   */\n      dup3\n        /* \"#utility.yul\":532:556   */\n      tag_36\n      jump\t// in\n    tag_50:\n        /* \"#utility.yul\":521:556   */\n      swap1\n      pop\n        /* \"#utility.yul\":466:562   */\n      swap2\n      swap1\n      pop\n      jump\t// out\n        /* \"#utility.yul\":568:690   */\n    tag_38:\n        /* \"#utility.yul\":641:665   */\n      tag_52\n        /* \"#utility.yul\":659:664   */\n      dup2\n        /* \"#utility.yul\":641:665   */\n      tag_37\n      jump\t// in\n    tag_52:\n        /* \"#utility.yul\":634:639   */\n      dup2\n        /* \"#utility.yul\":631:666   */\n      eq\n        /* \"#utility.yul\":621:684   */\n      tag_53\n      jumpi\n        /* \"#utility.yul\":680:681   */\n      0x00\n        /* \"#utility.yul\":677:678   */\n      dup1\n        /* \"#utility.yul\":670:682   */\n      revert\n        /* \"#utility.yul\":621:684   */\n    tag_53:\n        /* \"#utility.yul\":568:690   */\n      pop\n      jump\t// out\n        /* \"#utility.yul\":696:835   */\n    tag_39:\n        /* \"#utility.yul\":742:747   */\n      0x00\n        /* \"#utility.yul\":780:786   */\n      dup2\n        /* \"#utility.yul\":767:787   */\n      calldataload\n        /* \"#utility.yul\":758:787   */\n      swap1\n      pop\n        /* \"#utility.yul\":796:829   */\n      tag_55\n        /* \"#utility.yul\":823:828   */\n      dup2\n        /* \"#utility.yul\":796:829   */\n      tag_38\n      jump\t// in\n    tag_55:\n        /* \"#utility.yul\":696:835   */\n      swap3\n      swap2\n      pop\n      pop\n      jump\t// out\n        /* \"#utility.yul\":841:1170   */\n    tag_15:\n        /* \"#utility.yul\":900:906   */\n      0x00\n        /* \"#utility.yul\":949:951   */\n      0x20\n        /* \"#utility.yul\":937:946   */\n      dup3\n        /* \"#utility.yul\":928:935   */\n      dup5\n        /* \"#utility.yul\":924:947   */\n      sub\n        /* \"#utility.yul\":920:952   */\n      slt\n        /* \"#utility.yul\":917:1036   */\n      iszero\n      tag_57\n      jumpi\n        /* \"#utility.yul\":955:1034   */\n      tag_58\n      tag_34\n      jump\t// in\n    tag_58:\n        /* \"#utility.yul\":917:1036   */\n    tag_57:\n        /* \"#utility.yul\":1075:1076   */\n      0x00\n        /* \"#utility.yul\":1100:1153   */\n      tag_59\n        /* \"#utility.yul\":1145:1152   */\n      dup5\n        /* \"#utility.yul\":1136:1142   */\n      dup3\n        /* \"#utility.yul\":1125:1134   */\n      dup6\n        /* \"#utility.yul\":1121:1143   */\n      add\n        /* \"#utility.yul\":1100:1153   */\n      tag_39\n      jump\t// in\n    tag_59:\n        /* \"#utility.yul\":1090:1153   */\n      swap2\n      pop\n        /* \"#utility.yul\":1046:1163   */\n      pop\n        /* \"#utility.yul\":841:1170   */\n      swap3\n      swap2\n      pop\n      pop\n      jump\t// out\n        /* \"#utility.yul\":1176:1294   */\n    tag_40:\n        /* \"#utility.yul\":1263:1287   */\n      tag_61\n        /* \"#utility.yul\":1281:1286   */\n      dup2\n        /* \"#utility.yul\":1263:1287   */\n      tag_37\n      jump\t// in\n    tag_61:\n        /* \"#utility.yul\":1258:1261   */\n      dup3\n        /* \"#utility.yul\":1251:1288   */\n      mstore\n        /* \"#utility.yul\":1176:1294   */\n      pop\n      pop\n      jump\t// out\n        /* \"#utility.yul\":1300:1522   */\n    tag_21:\n        /* \"#utility.yul\":1393:1397   */\n      0x00\n        /* \"#utility.yul\":1431:1433   */\n      0x20\n        /* \"#utility.yul\":1420:1429   */\n      dup3\n        /* \"#utility.yul\":1416:1434   */\n      add\n        /* \"#utility.yul\":1408:1434   */\n      swap1\n      pop\n        /* \"#utility.yul\":1444:1515   */\n      tag_63\n        /* \"#utility.yul\":1512:1513   */\n      0x00\n        /* \"#utility.yul\":1501:1510   */\n      dup4\n        /* \"#utility.yul\":1497:1514   */\n      add\n        /* \"#utility.yul\":1488:1494   */\n      dup5\n        /* \"#utility.yul\":1444:1515   */\n      tag_40\n      jump\t// in\n    tag_63:\n        /* \"#utility.yul\":1300:1522   */\n      swap3\n      swap2\n      pop\n      pop\n      jump\t// out\n        /* \"#utility.yul\":1528:1697   */\n    tag_41:\n        /* \"#utility.yul\":1612:1623   */\n      0x00\n        /* \"#utility.yul\":1646:1652   */\n      dup3\n        /* \"#utility.yul\":1641:1644   */\n      dup3\n        /* \"#utility.yul\":1634:1653   */\n      mstore\n        /* \"#utility.yul\":1686:1690   */\n      0x20\n        /* \"#utility.yul\":1681:1684   */\n      dup3\n        /* \"#utility.yul\":1677:1691   */\n      add\n        /* \"#utility.yul\":1662:1691   */\n      swap1\n      pop\n        /* \"#utility.yul\":1528:1697   */\n      swap3\n      swap2\n      pop\n      pop\n      jump\t// out\n        /* \"#utility.yul\":1703:1875   */\n    tag_42:\n        /* \"#utility.yul\":1843:1867   */\n      0x6f6e6c792061646d696e2063616e207570677261646500000000000000000000\n        /* \"#utility.yul\":1839:1840   */\n      0x00\n        /* \"#utility.yul\":1831:1837   */\n      dup3\n        /* \"#utility.yul\":1827:1841   */\n      add\n        /* \"#utility.yul\":1820:1868   */\n      mstore\n        /* \"#utility.yul\":1703:1875   */\n      pop\n      jump\t// out\n        /* \"#utility.yul\":1881:2247   */\n    tag_43:\n        /* \"#utility.yul\":2023:2026   */\n      0x00\n        /* \"#utility.yul\":2044:2111   */\n      tag_67\n        /* \"#utility.yul\":2108:2110   */\n      0x16\n        /* \"#utility.yul\":2103:2106   */\n      dup4\n        /* \"#utility.yul\":2044:2111   */\n      tag_41\n      jump\t// in\n    tag_67:\n        /* \"#utility.yul\":2037:2111   */\n      swap2\n      pop\n        /* \"#utility.yul\":2120:2213   */\n      tag_68\n        /* \"#utility.yul\":2209:2212   */\n      dup3\n        /* \"#utility.yul\":2120:2213   */\n      tag_42\n      jump\t// in\n    tag_68:\n        /* \"#utility.yul\":2238:2240   */\n      0x20\n        /* \"#utility.yul\":2233:2236   */\n      dup3\n        /* \"#utility.yul\":2229:2241   */\n      add\n        /* \"#utility.yul\":2222:2241   */\n      swap1\n      pop\n        /* \"#utility.yul\":1881:2247   */\n      swap2\n      swap1\n      pop\n      jump\t// out\n        /* \"#utility.yul\":2253:2672   */\n    tag_32:\n        /* \"#utility.yul\":2419:2423   */\n      0x00\n        /* \"#utility.yul\":2457:2459   */\n      0x20\n        /* \"#utility.yul\":2446:2455   */\n      dup3\n        /* \"#utility.yul\":2442:2460   */\n      add\n        /* \"#utility.yul\":2434:2460   */\n      swap1\n      pop\n        /* \"#utility.yul\":2506:2515   */\n      dup2\n        /* \"#utility.yul\":2500:2504   */\n      dup2\n        /* \"#utility.yul\":2496:2516   */\n      sub\n        /* \"#utility.yul\":2492:2493   */\n      0x00\n        /* \"#utility.yul\":2481:2490   */\n      dup4\n        /* \"#utility.yul\":2477:2494   */\n      add\n        /* \"#utility.yul\":2470:2517   */\n      mstore\n        /* \"#utility.yul\":2534:2665   */\n      tag_70\n        /* \"#utility.yul\":2660:2664   */\n      dup2\n        /* \"#utility.yul\":2534:2665   */\n      tag_43\n      jump\t// in\n    tag_70:\n        /* \"#utility.yul\":2526:2665   */\n      swap1\n      pop\n        /* \"#utility.yul\":2253:2672   */\n      swap2\n      swap1\n      pop\n      jump\t// out\n\n    auxdata: 0xa2646970667358221220688a1220e95dee6591bb4958d08e1a4b0ed53a34cb2529543416821ff14935d764736f6c634300081a0033\n}\n",
				"bytecode": {
					"linkReferences": {},
					"object": "608060405234801561000f575f80fd5b506040516104cd3803806104cd83398181016040528101906100319190610115565b8060015f6101000a81548173ffffffffffffffffffffffffffffffffffffffff021916908373ffffffffffffffffffffffffffffffffffffffff1602179055503360025f6101000a81548173ffffffffffffffffffffffffffffffffffffffff021916908373ffffffffffffffffffffffffffffffffffffffff16021790555050610140565b5f80fd5b5f73ffffffffffffffffffffffffffffffffffffffff82169050919050565b5f6100e4826100bb565b9050919050565b6100f4816100da565b81146100fe575f80fd5b50565b5f8151905061010f816100eb565b92915050565b5f6020828403121561012a576101296100b7565b5b5f61013784828501610101565b91505092915050565b6103808061014d5f395ff3fe608060405260043610610037575f3560e01c8063629d89d21461006a5780639c1fcc4c14610092578063fc6f9468146100bc5761003e565b3661003e57005b61006860015f9054906101000a900473ffffffffffffffffffffffffffffffffffffffff166100e6565b005b348015610075575f80fd5b50610090600480360381019061008b919061027f565b610105565b005b34801561009d575f80fd5b506100a66101d7565b6040516100b391906102b9565b60405180910390f35b3480156100c7575f80fd5b506100d06101fc565b6040516100dd91906102b9565b60405180910390f35b365f80375f80365f845af43d5f803e805f8114610101573d5ff35b3d5ffd5b60025f9054906101000a900473ffffffffffffffffffffffffffffffffffffffff1673ffffffffffffffffffffffffffffffffffffffff163373ffffffffffffffffffffffffffffffffffffffff1614610194576040517f08c379a000000000000000000000000000000000000000000000000000000000815260040161018b9061032c565b60405180910390fd5b8060015f6101000a81548173ffffffffffffffffffffffffffffffffffffffff021916908373ffffffffffffffffffffffffffffffffffffffff16021790555050565b60015f9054906101000a900473ffffffffffffffffffffffffffffffffffffffff1681565b60025f9054906101000a900473ffffffffffffffffffffffffffffffffffffffff1681565b5f80fd5b5f73ffffffffffffffffffffffffffffffffffffffff82169050919050565b5f61024e82610225565b9050919050565b61025e81610244565b8114610268575f80fd5b50565b5f8135905061027981610255565b92915050565b5f6020828403121561029457610293610221565b5b5f6102a18482850161026b565b91505092915050565b6102b381610244565b82525050565b5f6020820190506102cc5f8301846102aa565b92915050565b5f82825260208201905092915050565b7f6f6e6c792061646d696e2063616e2075706772616465000000000000000000005f82015250565b5f6103166016836102d2565b9150610321826102e2565b602082019050919050565b5f6020820190508181035f8301526103438161030a565b905091905056fea2646970667358221220688a1220e95dee6591bb4958d08e1a4b0ed53a34cb2529543416821ff14935d764736f6c634300081a0033",
					"opcodes": "PUSH1 0x80 PUSH1 0x40 MSTORE CALLVALUE DUP1 ISZERO PUSH2 0xF JUMPI PUSH0 DUP1 REVERT JUMPDEST POP PUSH1 0x40 MLOAD PUSH2 0x4CD CODESIZE SUB DUP1 PUSH2 0x4CD DUP4 CODECOPY DUP2 DUP2 ADD PUSH1 0x40 MSTORE DUP2 ADD SWAP1 PUSH2 0x31 SWAP2 SWAP1 PUSH2 0x115 JUMP JUMPDEST DUP1 PUSH1 0x1 PUSH0 PUSH2 0x100 EXP DUP2 SLOAD DUP2 PUSH20 0xFFFFFFFFFFFFFFFFFFFFFFFFFFFFFFFFFFFFFFFF MUL NOT AND SWAP1 DUP4 PUSH20 0xFFFFFFFFFFFFFFFFFFFFFFFFFFFFFFFFFFFFFFFF AND MUL OR SWAP1 SSTORE POP CALLER PUSH1 0x2 PUSH0 PUSH2 0x100 EXP DUP2 SLOAD DUP2 PUSH20 0xFFFFFFFFFFFFFFFFFFFFFFFFFFFFFFFFFFFFFFFF MUL NOT AND SWAP1 DUP4 PUSH20 0xFFFFFFFFFFFFFFFFFFFFFFFFFFFFFFFFFFFFFFFF AND MUL OR SWAP1 SSTORE POP POP PUSH2 0x140 JUMP JUMPDEST PUSH0 DUP1 REVERT JUMPDEST PUSH0 PUSH20 0xFFFFFFFFFFFFFFFFFFFFFFFFFFFFFFFFFFFFFFFF DUP3 AND SWAP1 POP SWAP2 SWAP1 POP JUMP JUMPDEST PUSH0 PUSH2 0xE4 DUP3 PUSH2 0xBB JUMP JUMPDEST SWAP1 POP SWAP2 SWAP1 POP JUMP JUMPDEST PUSH2 0xF4 DUP2 PUSH2 0xDA JUMP JUMPDEST DUP2 EQ PUSH2 0xFE JUMPI PUSH0 DUP1 REVERT JUMPDEST POP JUMP JUMPDEST PUSH0 DUP2 MLOAD SWAP1 POP PUSH2 0x10F DUP2 PUSH2 0xEB JUMP JUMPDEST SWAP3 SWAP2 POP POP JUMP JUMPDEST PUSH0 PUSH1 0x20 DUP3 DUP5 SUB SLT ISZERO PUSH2 0x12A JUMPI PUSH2 0x129 PUSH2 0xB7 JUMP JUMPDEST JUMPDEST PUSH0 PUSH2 0x137 DUP5 DUP3 DUP6 ADD PUSH2 0x101 JUMP JUMPDEST SWAP2 POP POP SWAP3 SWAP2 POP POP JUMP JUMPDEST PUSH2 0x380 DUP1 PUSH2 0x14D PUSH0 CODECOPY PUSH0 RETURN INVALID PUSH1 0x80 PUSH1 0x40 MSTORE PUSH1 0x4 CALLDATASIZE LT PUSH2 0x37 JUMPI PUSH0 CALLDATALOAD PUSH1 0xE0 SHR DUP1 PUSH4 0x629D89D2 EQ PUSH2 0x6A JUMPI DUP1 PUSH4 0x9C1FCC4C EQ PUSH2 0x92 JUMPI DUP1 PUSH4 0xFC6F9468 EQ PUSH2 0xBC JUMPI PUSH2 0x3E JUMP JUMPDEST CALLDATASIZE PUSH2 0x3E JUMPI STOP JUMPDEST PUSH2 0x68 PUSH1 0x1 PUSH0 SWAP1 SLOAD SWAP1 PUSH2 0x100 EXP SWAP1 DIV PUSH20 0xFFFFFFFFFFFFFFFFFFFFFFFFFFFFFFFFFFFFFFFF AND PUSH2 0xE6 JUMP JUMPDEST STOP JUMPDEST CALLVALUE DUP1 ISZERO PUSH2 0x75 JUMPI PUSH0 DUP1 REVERT JUMPDEST POP PUSH2 0x90 PUSH1 0x4 DUP1 CALLDATASIZE SUB DUP2 ADD SWAP1 PUSH2 0x8B SWAP2 SWAP1 PUSH2 0x27F JUMP JUMPDEST PUSH2 0x105 JUMP JUMPDEST STOP JUMPDEST CALLVALUE DUP1 ISZERO PUSH2 0x9D JUMPI PUSH0 DUP1 REVERT JUMPDEST POP PUSH2 0xA6 PUSH2 0x1D7 JUMP JUMPDEST PUSH1 0x40 MLOAD PUSH2 0xB3 SWAP2 SWAP1 PUSH2 0x2B9 JUMP JUMPDEST PUSH1 0x40 MLOAD DUP1 SWAP2 SUB SWAP1 RETURN JUMPDEST CALLVALUE DUP1 ISZERO PUSH2 0xC7 JUMPI PUSH0 DUP1 REVERT JUMPDEST POP PUSH2 0xD0 PUSH2 0x1FC JUMP JUMPDEST PUSH1 0x40 MLOAD PUSH2 0xDD SWAP2 SWAP1 PUSH2 0x2B9 JUMP JUMPDEST PUSH1 0x40 MLOAD DUP1 SWAP2 SUB SWAP1 RETURN JUMPDEST CALLDATASIZE PUSH0 DUP1 CALLDATACOPY PUSH0 DUP1 CALLDATASIZE PUSH0 DUP5 GAS DELEGATECALL RETURNDATASIZE PUSH0 DUP1 RETURNDATACOPY DUP1 PUSH0 DUP2 EQ PUSH2 0x101 JUMPI RETURNDATASIZE PUSH0 RETURN JUMPDEST RETURNDATASIZE PUSH0 REVERT JUMPDEST PUSH1 0x2 PUSH0 SWAP1 SLOAD SWAP1 PUSH2 0x100 EXP SWAP1 DIV PUSH20 0xFFFFFFFFFFFFFFFFFFFFFFFFFFFFFFFFFFFFFFFF AND PUSH20 0xFFFFFFFFFFFFFFFFFFFFFFFFFFFFFFFFFFFFFFFF AND CALLER PUSH20 0xFFFFFFFFFFFFFFFFFFFFFFFFFFFFFFFFFFFFFFFF AND EQ PUSH2 0x194 JUMPI PUSH1 0x40 MLOAD PUSH32 0x8C379A000000000000000000000000000000000000000000000000000000000 DUP2 MSTORE PUSH1 0x4 ADD PUSH2 0x18B SWAP1 PUSH2 0x32C JUMP JUMPDEST PUSH1 0x40 MLOAD DUP1 SWAP2 SUB SWAP1 REVERT JUMPDEST DUP1 PUSH1 0x1 PUSH0 PUSH2 0x100 EXP DUP2 SLOAD DUP2 PUSH20 0xFFFFFFFFFFFFFFFFFFFFFFFFFFFFFFFFFFFFFFFF MUL NOT AND SWAP1 DUP4 PUSH20 0xFFFFFFFFFFFFFFFFFFFFFFFFFFFFFFFFFFFFFFFF AND MUL OR SWAP1 SSTORE POP POP JUMP JUMPDEST PUSH1 0x1 PUSH0 SWAP1 SLOAD SWAP1 PUSH2 0x100 EXP SWAP1 DIV PUSH20 0xFFFFFFFFFFFFFFFFFFFFFFFFFFFFFFFFFFFFFFFF AND DUP2 JUMP JUMPDEST PUSH1 0x2 PUSH0 SWAP1 SLOAD SWAP1 PUSH2 0x100 EXP SWAP1 DIV PUSH20 0xFFFFFFFFFFFFFFFFFFFFFFFFFFFFFFFFFFFFFFFF AND DUP2 JUMP JUMPDEST PUSH0 DUP1 REVERT JUMPDEST PUSH0 PUSH20 0xFFFFFFFFFFFFFFFFFFFFFFFFFFFFFFFFFFFFFFFF DUP3 AND SWAP1 POP SWAP2 SWAP1 POP JUMP JUMPDEST PUSH0 PUSH2 0x24E DUP3 PUSH2 0x225 JUMP JUMPDEST SWAP1 POP SWAP2 SWAP1 POP JUMP JUMPDEST PUSH2 0x25E DUP2 PUSH2 0x244 JUMP JUMPDEST DUP2 EQ PUSH2 0x268 JUMPI PUSH0 DUP1 REVERT JUMPDEST POP JUMP JUMPDEST PUSH0 DUP2 CALLDATALOAD SWAP1 POP PUSH2 0x279 DUP2 PUSH2 0x255 JUMP JUMPDEST SWAP3 SWAP2 POP POP JUMP JUMPDEST PUSH0 PUSH1 0x20 DUP3 DUP5 SUB SLT ISZERO PUSH2 0x294 JUMPI PUSH2 0x293 PUSH2 0x221 JUMP JUMPDEST JUMPDEST PUSH0 PUSH2 0x2A1 DUP5 DUP3 DUP6 ADD PUSH2 0x26B JUMP JUMPDEST SWAP2 POP POP SWAP3 SWAP2 POP POP JUMP JUMPDEST PUSH2 0x2B3 DUP2 PUSH2 0x244 JUMP JUMPDEST DUP3 MSTORE POP POP JUMP JUMPDEST PUSH0 PUSH1 0x20 DUP3 ADD SWAP1 POP PUSH2 0x2CC PUSH0 DUP4 ADD DUP5 PUSH2 0x2AA JUMP JUMPDEST SWAP3 SWAP2 POP POP JUMP JUMPDEST PUSH0 DUP3 DUP3 MSTORE PUSH1 0x20 DUP3 ADD SWAP1 POP SWAP3 SWAP2 POP POP JUMP JUMPDEST PUSH32 0x6F6E6C792061646D696E2063616E207570677261646500000000000000000000 PUSH0 DUP3 ADD MSTORE POP JUMP JUMPDEST PUSH0 PUSH2 0x316 PUSH1 0x16 DUP4 PUSH2 0x2D2 JUMP JUMPDEST SWAP2 POP PUSH2 0x321 DUP3 PUSH2 0x2E2 JUMP JUMPDEST PUSH1 0x20 DUP3 ADD SWAP1 POP SWAP2 SWAP1 POP JUMP JUMPDEST PUSH0 PUSH1 0x20 DUP3 ADD SWAP1 POP DUP2 DUP2 SUB PUSH0 DUP4 ADD MSTORE PUSH2 0x343 DUP2 PUSH2 0x30A JUMP JUMPDEST SWAP1 POP SWAP2 SWAP1 POP JUMP INVALID LOG2 PUSH5 0x6970667358 0x22 SLT KECCAK256 PUSH9 0x8A1220E95DEE6591BB BLOBHASH PC 0xD0 DUP15 BYTE 0x4B 0xE 0xD5 GASPRICE CALLVALUE 0xCB 0x25 0x29 SLOAD CALLVALUE AND DUP3 0x1F CALL BLOBHASH CALLDATALOAD 0xD7 PUSH5 0x736F6C6343 STOP ADDMOD BYTE STOP CALLER "
				},
				"gasEstimates": {
					"creation": {
						"codeDepositCost": "179200",
						"executionCost": "infinite",
						"totalCost": "infinite"
					},
					"external": {
						"": "infinite",
						"adminAddress()": "2530",
						"logicAddress()": "2508",
						"upgradeLogicAddress(address)": "26862"
					},
					"internal": {
						"_delegate(address)": "infinite"
					}
				},
				"methodIdentifiers": {
					"adminAddress()": "fc6f9468",
					"logicAddress()": "9c1fcc4c",
					"upgradeLogicAddress(address)": "629d89d2"
				}
			},
			"storageLayout": {
				"storage": [
					{
						"astId": 224,
						"contract": "contracts/MyUpgradeProxy.sol:MyUpgradeProxy",
						"label": "counter",
						"offset": 0,
						"slot": "0",
						"type": "t_uint256"
					},
					{
						"astId": 226,
						"contract": "contracts/MyUpgradeProxy.sol:MyUpgradeProxy",
						"label": "logicAddress",
						"offset": 0,
						"slot": "1",
						"type": "t_address"
					},
					{
						"astId": 228,
						"contract": "contracts/MyUpgradeProxy.sol:MyUpgradeProxy",
						"label": "adminAddress",
						"offset": 0,
						"slot": "2",
						"type": "t_address"
					}
				],
				"types": {
					"t_address": {
						"encoding": "inplace",
						"label": "address",
						"numberOfBytes": "20"
					},
					"t_uint256": {
						"encoding": "inplace",
						"label": "uint256",
						"numberOfBytes": "32"
					}
				}
			},
			"userdoc": {
				"kind": "user",
				"methods": {},
				"version": 1
			}
		}
	}
}