{
	"contracts/ERC1967Utils.sol": {
		"ERC1967Utils": {
			"abi": [
				{
					"inputs": [
						{
							"internalType": "string",
							"name": "data",
							"type": "string"
						}
					],
					"name": "generateStorageSlot",
					"outputs": [
						{
							"internalType": "bytes32",
							"name": "",
							"type": "bytes32"
						}
					],
					"stateMutability": "pure",
					"type": "function"
				}
			],
			"devdoc": {
				"kind": "dev",
				"methods": {},
				"stateVariables": {
					"ADMIN_SLOT": {
						"details": "Storage slot with the admin of the contract. This is the keccak-256 hash of \"eip1967.proxy.admin\" subtracted by 1."
					},
					"IMPLEMENTATION_SLOT": {
						"details": "Storage slot with the address of the current implementation. This is the keccak-256 hash of \"eip1967.proxy.implementation\" subtracted by 1."
					}
				},
				"version": 1
			},
			"evm": {
				"assembly": "    /* \"contracts/ERC1967Utils.sol\":167:3173  library ERC1967Utils {... */\n  dataSize(sub_0)\n  dataOffset(sub_0)\n  0x0b\n  dup3\n  dup3\n  dup3\n  codecopy\n  dup1\n  mload\n  0x00\n  byte\n  0x73\n  eq\n  tag_1\n  jumpi\n  mstore(0x00, 0x4e487b7100000000000000000000000000000000000000000000000000000000)\n  mstore(0x04, 0x00)\n  revert(0x00, 0x24)\ntag_1:\n  mstore(0x00, address)\n  0x73\n  dup2\n  mstore8\n  dup3\n  dup2\n  return\nstop\n\nsub_0: assembly {\n        /* \"contracts/ERC1967Utils.sol\":167:3173  library ERC1967Utils {... */\n      eq(address, deployTimeAddress())\n      mstore(0x40, 0x80)\n      jumpi(tag_1, lt(calldatasize, 0x04))\n      shr(0xe0, calldataload(0x00))\n      dup1\n      0x5c33b182\n      eq\n      tag_2\n      jumpi\n    tag_1:\n      0x00\n      dup1\n      revert\n        /* \"contracts/ERC1967Utils.sol\":3025:3170  function generateStorageSlot(string memory data) public pure returns (bytes32) {... */\n    tag_2:\n      tag_3\n      0x04\n      dup1\n      calldatasize\n      sub\n      dup2\n      add\n      swap1\n      tag_4\n      swap2\n      swap1\n      tag_5\n      jump\t// in\n    tag_4:\n      tag_6\n      jump\t// in\n    tag_3:\n      mload(0x40)\n      tag_7\n      swap2\n      swap1\n      tag_8\n      jump\t// in\n    tag_7:\n      mload(0x40)\n      dup1\n      swap2\n      sub\n      swap1\n      return\n    tag_6:\n        /* \"contracts/ERC1967Utils.sol\":3095:3102  bytes32 */\n      0x00\n        /* \"contracts/ERC1967Utils.sol\":3161:3162  1 */\n      0x01\n        /* \"contracts/ERC1967Utils.sol\":3153:3157  data */\n      dup3\n        /* \"contracts/ERC1967Utils.sol\":3137:3159  keccak256(bytes(data)) */\n      dup1\n      mload\n      swap1\n      0x20\n      add\n      keccak256\n        /* \"contracts/ERC1967Utils.sol\":3129:3160  uint256(keccak256(bytes(data))) */\n      0x00\n      shr\n        /* \"contracts/ERC1967Utils.sol\":3129:3162  uint256(keccak256(bytes(data)))-1 */\n      tag_10\n      swap2\n      swap1\n      tag_11\n      jump\t// in\n    tag_10:\n        /* \"contracts/ERC1967Utils.sol\":3121:3163  bytes32(uint256(keccak256(bytes(data)))-1) */\n      0x00\n      shl\n        /* \"contracts/ERC1967Utils.sol\":3114:3163  return bytes32(uint256(keccak256(bytes(data)))-1) */\n      swap1\n      pop\n        /* \"contracts/ERC1967Utils.sol\":3025:3170  function generateStorageSlot(string memory data) public pure returns (bytes32) {... */\n      swap2\n      swap1\n      pop\n      jump\t// out\n        /* \"#utility.yul\":7:82   */\n    tag_12:\n        /* \"#utility.yul\":40:46   */\n      0x00\n        /* \"#utility.yul\":73:75   */\n      0x40\n        /* \"#utility.yul\":67:76   */\n      mload\n        /* \"#utility.yul\":57:76   */\n      swap1\n      pop\n        /* \"#utility.yul\":7:82   */\n      swap1\n      jump\t// out\n        /* \"#utility.yul\":88:205   */\n    tag_13:\n        /* \"#utility.yul\":197:198   */\n      0x00\n        /* \"#utility.yul\":194:195   */\n      dup1\n        /* \"#utility.yul\":187:199   */\n      revert\n        /* \"#utility.yul\":211:328   */\n    tag_14:\n        /* \"#utility.yul\":320:321   */\n      0x00\n        /* \"#utility.yul\":317:318   */\n      dup1\n        /* \"#utility.yul\":310:322   */\n      revert\n        /* \"#utility.yul\":334:451   */\n    tag_15:\n        /* \"#utility.yul\":443:444   */\n      0x00\n        /* \"#utility.yul\":440:441   */\n      dup1\n        /* \"#utility.yul\":433:445   */\n      revert\n        /* \"#utility.yul\":457:574   */\n    tag_16:\n        /* \"#utility.yul\":566:567   */\n      0x00\n        /* \"#utility.yul\":563:564   */\n      dup1\n        /* \"#utility.yul\":556:568   */\n      revert\n        /* \"#utility.yul\":580:682   */\n    tag_17:\n        /* \"#utility.yul\":621:627   */\n      0x00\n        /* \"#utility.yul\":672:674   */\n      0x1f\n        /* \"#utility.yul\":668:675   */\n      not\n        /* \"#utility.yul\":663:665   */\n      0x1f\n        /* \"#utility.yul\":656:661   */\n      dup4\n        /* \"#utility.yul\":652:666   */\n      add\n        /* \"#utility.yul\":648:676   */\n      and\n        /* \"#utility.yul\":638:676   */\n      swap1\n      pop\n        /* \"#utility.yul\":580:682   */\n      swap2\n      swap1\n      pop\n      jump\t// out\n        /* \"#utility.yul\":688:868   */\n    tag_18:\n        /* \"#utility.yul\":736:813   */\n      0x4e487b7100000000000000000000000000000000000000000000000000000000\n        /* \"#utility.yul\":733:734   */\n      0x00\n        /* \"#utility.yul\":726:814   */\n      mstore\n        /* \"#utility.yul\":833:837   */\n      0x41\n        /* \"#utility.yul\":830:831   */\n      0x04\n        /* \"#utility.yul\":823:838   */\n      mstore\n        /* \"#utility.yul\":857:861   */\n      0x24\n        /* \"#utility.yul\":854:855   */\n      0x00\n        /* \"#utility.yul\":847:862   */\n      revert\n        /* \"#utility.yul\":874:1155   */\n    tag_19:\n        /* \"#utility.yul\":957:984   */\n      tag_38\n        /* \"#utility.yul\":979:983   */\n      dup3\n        /* \"#utility.yul\":957:984   */\n      tag_17\n      jump\t// in\n    tag_38:\n        /* \"#utility.yul\":949:955   */\n      dup2\n        /* \"#utility.yul\":945:985   */\n      add\n        /* \"#utility.yul\":1087:1093   */\n      dup2\n        /* \"#utility.yul\":1075:1085   */\n      dup2\n        /* \"#utility.yul\":1072:1094   */\n      lt\n        /* \"#utility.yul\":1051:1069   */\n      0xffffffffffffffff\n        /* \"#utility.yul\":1039:1049   */\n      dup3\n        /* \"#utility.yul\":1036:1070   */\n      gt\n        /* \"#utility.yul\":1033:1095   */\n      or\n        /* \"#utility.yul\":1030:1118   */\n      iszero\n      tag_39\n      jumpi\n        /* \"#utility.yul\":1098:1116   */\n      tag_40\n      tag_18\n      jump\t// in\n    tag_40:\n        /* \"#utility.yul\":1030:1118   */\n    tag_39:\n        /* \"#utility.yul\":1138:1148   */\n      dup1\n        /* \"#utility.yul\":1134:1136   */\n      0x40\n        /* \"#utility.yul\":1127:1149   */\n      mstore\n        /* \"#utility.yul\":917:1155   */\n      pop\n        /* \"#utility.yul\":874:1155   */\n      pop\n      pop\n      jump\t// out\n        /* \"#utility.yul\":1161:1290   */\n    tag_20:\n        /* \"#utility.yul\":1195:1201   */\n      0x00\n        /* \"#utility.yul\":1222:1242   */\n      tag_42\n      tag_12\n      jump\t// in\n    tag_42:\n        /* \"#utility.yul\":1212:1242   */\n      swap1\n      pop\n        /* \"#utility.yul\":1251:1284   */\n      tag_43\n        /* \"#utility.yul\":1279:1283   */\n      dup3\n        /* \"#utility.yul\":1271:1277   */\n      dup3\n        /* \"#utility.yul\":1251:1284   */\n      tag_19\n      jump\t// in\n    tag_43:\n        /* \"#utility.yul\":1161:1290   */\n      swap2\n      swap1\n      pop\n      jump\t// out\n        /* \"#utility.yul\":1296:1604   */\n    tag_21:\n        /* \"#utility.yul\":1358:1362   */\n      0x00\n        /* \"#utility.yul\":1448:1466   */\n      0xffffffffffffffff\n        /* \"#utility.yul\":1440:1446   */\n      dup3\n        /* \"#utility.yul\":1437:1467   */\n      gt\n        /* \"#utility.yul\":1434:1490   */\n      iszero\n      tag_45\n      jumpi\n        /* \"#utility.yul\":1470:1488   */\n      tag_46\n      tag_18\n      jump\t// in\n    tag_46:\n        /* \"#utility.yul\":1434:1490   */\n    tag_45:\n        /* \"#utility.yul\":1508:1537   */\n      tag_47\n        /* \"#utility.yul\":1530:1536   */\n      dup3\n        /* \"#utility.yul\":1508:1537   */\n      tag_17\n      jump\t// in\n    tag_47:\n        /* \"#utility.yul\":1500:1537   */\n      swap1\n      pop\n        /* \"#utility.yul\":1592:1596   */\n      0x20\n        /* \"#utility.yul\":1586:1590   */\n      dup2\n        /* \"#utility.yul\":1582:1597   */\n      add\n        /* \"#utility.yul\":1574:1597   */\n      swap1\n      pop\n        /* \"#utility.yul\":1296:1604   */\n      swap2\n      swap1\n      pop\n      jump\t// out\n        /* \"#utility.yul\":1610:1758   */\n    tag_22:\n        /* \"#utility.yul\":1708:1714   */\n      dup3\n        /* \"#utility.yul\":1703:1706   */\n      dup2\n        /* \"#utility.yul\":1698:1701   */\n      dup4\n        /* \"#utility.yul\":1685:1715   */\n      calldatacopy\n        /* \"#utility.yul\":1749:1750   */\n      0x00\n        /* \"#utility.yul\":1740:1746   */\n      dup4\n        /* \"#utility.yul\":1735:1738   */\n      dup4\n        /* \"#utility.yul\":1731:1747   */\n      add\n        /* \"#utility.yul\":1724:1751   */\n      mstore\n        /* \"#utility.yul\":1610:1758   */\n      pop\n      pop\n      pop\n      jump\t// out\n        /* \"#utility.yul\":1764:2189   */\n    tag_23:\n        /* \"#utility.yul\":1842:1847   */\n      0x00\n        /* \"#utility.yul\":1867:1933   */\n      tag_50\n        /* \"#utility.yul\":1883:1932   */\n      tag_51\n        /* \"#utility.yul\":1925:1931   */\n      dup5\n        /* \"#utility.yul\":1883:1932   */\n      tag_21\n      jump\t// in\n    tag_51:\n        /* \"#utility.yul\":1867:1933   */\n      tag_20\n      jump\t// in\n    tag_50:\n        /* \"#utility.yul\":1858:1933   */\n      swap1\n      pop\n        /* \"#utility.yul\":1956:1962   */\n      dup3\n        /* \"#utility.yul\":1949:1954   */\n      dup2\n        /* \"#utility.yul\":1942:1963   */\n      mstore\n        /* \"#utility.yul\":1994:1998   */\n      0x20\n        /* \"#utility.yul\":1987:1992   */\n      dup2\n        /* \"#utility.yul\":1983:1999   */\n      add\n        /* \"#utility.yul\":2032:2035   */\n      dup5\n        /* \"#utility.yul\":2023:2029   */\n      dup5\n        /* \"#utility.yul\":2018:2021   */\n      dup5\n        /* \"#utility.yul\":2014:2030   */\n      add\n        /* \"#utility.yul\":2011:2036   */\n      gt\n        /* \"#utility.yul\":2008:2120   */\n      iszero\n      tag_52\n      jumpi\n        /* \"#utility.yul\":2039:2118   */\n      tag_53\n      tag_16\n      jump\t// in\n    tag_53:\n        /* \"#utility.yul\":2008:2120   */\n    tag_52:\n        /* \"#utility.yul\":2129:2183   */\n      tag_54\n        /* \"#utility.yul\":2176:2182   */\n      dup5\n        /* \"#utility.yul\":2171:2174   */\n      dup3\n        /* \"#utility.yul\":2166:2169   */\n      dup6\n        /* \"#utility.yul\":2129:2183   */\n      tag_22\n      jump\t// in\n    tag_54:\n        /* \"#utility.yul\":1848:2189   */\n      pop\n        /* \"#utility.yul\":1764:2189   */\n      swap4\n      swap3\n      pop\n      pop\n      pop\n      jump\t// out\n        /* \"#utility.yul\":2209:2549   */\n    tag_24:\n        /* \"#utility.yul\":2265:2270   */\n      0x00\n        /* \"#utility.yul\":2314:2317   */\n      dup3\n        /* \"#utility.yul\":2307:2311   */\n      0x1f\n        /* \"#utility.yul\":2299:2305   */\n      dup4\n        /* \"#utility.yul\":2295:2312   */\n      add\n        /* \"#utility.yul\":2291:2318   */\n      slt\n        /* \"#utility.yul\":2281:2403   */\n      tag_56\n      jumpi\n        /* \"#utility.yul\":2322:2401   */\n      tag_57\n      tag_15\n      jump\t// in\n    tag_57:\n        /* \"#utility.yul\":2281:2403   */\n    tag_56:\n        /* \"#utility.yul\":2439:2445   */\n      dup2\n        /* \"#utility.yul\":2426:2446   */\n      calldataload\n        /* \"#utility.yul\":2464:2543   */\n      tag_58\n        /* \"#utility.yul\":2539:2542   */\n      dup5\n        /* \"#utility.yul\":2531:2537   */\n      dup3\n        /* \"#utility.yul\":2524:2528   */\n      0x20\n        /* \"#utility.yul\":2516:2522   */\n      dup7\n        /* \"#utility.yul\":2512:2529   */\n      add\n        /* \"#utility.yul\":2464:2543   */\n      tag_23\n      jump\t// in\n    tag_58:\n        /* \"#utility.yul\":2455:2543   */\n      swap2\n      pop\n        /* \"#utility.yul\":2271:2549   */\n      pop\n        /* \"#utility.yul\":2209:2549   */\n      swap3\n      swap2\n      pop\n      pop\n      jump\t// out\n        /* \"#utility.yul\":2555:3064   */\n    tag_5:\n        /* \"#utility.yul\":2624:2630   */\n      0x00\n        /* \"#utility.yul\":2673:2675   */\n      0x20\n        /* \"#utility.yul\":2661:2670   */\n      dup3\n        /* \"#utility.yul\":2652:2659   */\n      dup5\n        /* \"#utility.yul\":2648:2671   */\n      sub\n        /* \"#utility.yul\":2644:2676   */\n      slt\n        /* \"#utility.yul\":2641:2760   */\n      iszero\n      tag_60\n      jumpi\n        /* \"#utility.yul\":2679:2758   */\n      tag_61\n      tag_13\n      jump\t// in\n    tag_61:\n        /* \"#utility.yul\":2641:2760   */\n    tag_60:\n        /* \"#utility.yul\":2827:2828   */\n      0x00\n        /* \"#utility.yul\":2816:2825   */\n      dup3\n        /* \"#utility.yul\":2812:2829   */\n      add\n        /* \"#utility.yul\":2799:2830   */\n      calldataload\n        /* \"#utility.yul\":2857:2875   */\n      0xffffffffffffffff\n        /* \"#utility.yul\":2849:2855   */\n      dup2\n        /* \"#utility.yul\":2846:2876   */\n      gt\n        /* \"#utility.yul\":2843:2960   */\n      iszero\n      tag_62\n      jumpi\n        /* \"#utility.yul\":2879:2958   */\n      tag_63\n      tag_14\n      jump\t// in\n    tag_63:\n        /* \"#utility.yul\":2843:2960   */\n    tag_62:\n        /* \"#utility.yul\":2984:3047   */\n      tag_64\n        /* \"#utility.yul\":3039:3046   */\n      dup5\n        /* \"#utility.yul\":3030:3036   */\n      dup3\n        /* \"#utility.yul\":3019:3028   */\n      dup6\n        /* \"#utility.yul\":3015:3037   */\n      add\n        /* \"#utility.yul\":2984:3047   */\n      tag_24\n      jump\t// in\n    tag_64:\n        /* \"#utility.yul\":2974:3047   */\n      swap2\n      pop\n        /* \"#utility.yul\":2770:3057   */\n      pop\n        /* \"#utility.yul\":2555:3064   */\n      swap3\n      swap2\n      pop\n      pop\n      jump\t// out\n        /* \"#utility.yul\":3070:3147   */\n    tag_25:\n        /* \"#utility.yul\":3107:3114   */\n      0x00\n        /* \"#utility.yul\":3136:3141   */\n      dup2\n        /* \"#utility.yul\":3125:3141   */\n      swap1\n      pop\n        /* \"#utility.yul\":3070:3147   */\n      swap2\n      swap1\n      pop\n      jump\t// out\n        /* \"#utility.yul\":3153:3279   */\n    tag_26:\n        /* \"#utility.yul\":3248:3272   */\n      tag_67\n        /* \"#utility.yul\":3266:3271   */\n      dup2\n        /* \"#utility.yul\":3248:3272   */\n      tag_25\n      jump\t// in\n    tag_67:\n        /* \"#utility.yul\":3243:3246   */\n      dup3\n        /* \"#utility.yul\":3236:3273   */\n      mstore\n        /* \"#utility.yul\":3153:3279   */\n      pop\n      pop\n      jump\t// out\n        /* \"#utility.yul\":3285:3523   */\n    tag_8:\n        /* \"#utility.yul\":3386:3390   */\n      0x00\n        /* \"#utility.yul\":3424:3426   */\n      0x20\n        /* \"#utility.yul\":3413:3422   */\n      dup3\n        /* \"#utility.yul\":3409:3427   */\n      add\n        /* \"#utility.yul\":3401:3427   */\n      swap1\n      pop\n        /* \"#utility.yul\":3437:3516   */\n      tag_69\n        /* \"#utility.yul\":3513:3514   */\n      0x00\n        /* \"#utility.yul\":3502:3511   */\n      dup4\n        /* \"#utility.yul\":3498:3515   */\n      add\n        /* \"#utility.yul\":3489:3495   */\n      dup5\n        /* \"#utility.yul\":3437:3516   */\n      tag_26\n      jump\t// in\n    tag_69:\n        /* \"#utility.yul\":3285:3523   */\n      swap3\n      swap2\n      pop\n      pop\n      jump\t// out\n        /* \"#utility.yul\":3529:3606   */\n    tag_27:\n        /* \"#utility.yul\":3566:3573   */\n      0x00\n        /* \"#utility.yul\":3595:3600   */\n      dup2\n        /* \"#utility.yul\":3584:3600   */\n      swap1\n      pop\n        /* \"#utility.yul\":3529:3606   */\n      swap2\n      swap1\n      pop\n      jump\t// out\n        /* \"#utility.yul\":3612:3792   */\n    tag_28:\n        /* \"#utility.yul\":3660:3737   */\n      0x4e487b7100000000000000000000000000000000000000000000000000000000\n        /* \"#utility.yul\":3657:3658   */\n      0x00\n        /* \"#utility.yul\":3650:3738   */\n      mstore\n        /* \"#utility.yul\":3757:3761   */\n      0x11\n        /* \"#utility.yul\":3754:3755   */\n      0x04\n        /* \"#utility.yul\":3747:3762   */\n      mstore\n        /* \"#utility.yul\":3781:3785   */\n      0x24\n        /* \"#utility.yul\":3778:3779   */\n      0x00\n        /* \"#utility.yul\":3771:3786   */\n      revert\n        /* \"#utility.yul\":3798:3992   */\n    tag_11:\n        /* \"#utility.yul\":3838:3842   */\n      0x00\n        /* \"#utility.yul\":3858:3878   */\n      tag_73\n        /* \"#utility.yul\":3876:3877   */\n      dup3\n        /* \"#utility.yul\":3858:3878   */\n      tag_27\n      jump\t// in\n    tag_73:\n        /* \"#utility.yul\":3853:3878   */\n      swap2\n      pop\n        /* \"#utility.yul\":3892:3912   */\n      tag_74\n        /* \"#utility.yul\":3910:3911   */\n      dup4\n        /* \"#utility.yul\":3892:3912   */\n      tag_27\n      jump\t// in\n    tag_74:\n        /* \"#utility.yul\":3887:3912   */\n      swap3\n      pop\n        /* \"#utility.yul\":3936:3937   */\n      dup3\n        /* \"#utility.yul\":3933:3934   */\n      dup3\n        /* \"#utility.yul\":3929:3938   */\n      sub\n        /* \"#utility.yul\":3921:3938   */\n      swap1\n      pop\n        /* \"#utility.yul\":3960:3961   */\n      dup2\n        /* \"#utility.yul\":3954:3958   */\n      dup2\n        /* \"#utility.yul\":3951:3962   */\n      gt\n        /* \"#utility.yul\":3948:3985   */\n      iszero\n      tag_75\n      jumpi\n        /* \"#utility.yul\":3965:3983   */\n      tag_76\n      tag_28\n      jump\t// in\n    tag_76:\n        /* \"#utility.yul\":3948:3985   */\n    tag_75:\n        /* \"#utility.yul\":3798:3992   */\n      swap3\n      swap2\n      pop\n      pop\n      jump\t// out\n\n    auxdata: 0xa2646970667358221220e87e8cf7c1e4d592ce406569e4100f59ae28fcc5d587ef5fa5170149b9b4f50164736f6c634300081a0033\n}\n",
				"bytecode": {
					"linkReferences": {},
					"object": "6102ec61004d600b8282823980515f1a6073146041577f4e487b71000000000000000000000000000000000000000000000000000000005f525f60045260245ffd5b305f52607381538281f3fe7300000000000000000000000000000000000000003014608060405260043610610034575f3560e01c80635c33b18214610038575b5f80fd5b610052600480360381019061004d91906101d5565b610068565b60405161005f9190610234565b60405180910390f35b5f600182805190602001205f1c61007f9190610283565b5f1b9050919050565b5f604051905090565b5f80fd5b5f80fd5b5f80fd5b5f80fd5b5f601f19601f8301169050919050565b7f4e487b71000000000000000000000000000000000000000000000000000000005f52604160045260245ffd5b6100e7826100a1565b810181811067ffffffffffffffff82111715610106576101056100b1565b5b80604052505050565b5f610118610088565b905061012482826100de565b919050565b5f67ffffffffffffffff821115610143576101426100b1565b5b61014c826100a1565b9050602081019050919050565b828183375f83830152505050565b5f61017961017484610129565b61010f565b9050828152602081018484840111156101955761019461009d565b5b6101a0848285610159565b509392505050565b5f82601f8301126101bc576101bb610099565b5b81356101cc848260208601610167565b91505092915050565b5f602082840312156101ea576101e9610091565b5b5f82013567ffffffffffffffff81111561020757610206610095565b5b610213848285016101a8565b91505092915050565b5f819050919050565b61022e8161021c565b82525050565b5f6020820190506102475f830184610225565b92915050565b5f819050919050565b7f4e487b71000000000000000000000000000000000000000000000000000000005f52601160045260245ffd5b5f61028d8261024d565b91506102988361024d565b92508282039050818111156102b0576102af610256565b5b9291505056fea2646970667358221220e87e8cf7c1e4d592ce406569e4100f59ae28fcc5d587ef5fa5170149b9b4f50164736f6c634300081a0033",
					"opcodes": "PUSH2 0x2EC PUSH2 0x4D PUSH1 0xB DUP3 DUP3 DUP3 CODECOPY DUP1 MLOAD PUSH0 BYTE PUSH1 0x73 EQ PUSH1 0x41 JUMPI PUSH32 0x4E487B7100000000000000000000000000000000000000000000000000000000 PUSH0 MSTORE PUSH0 PUSH1 0x4 MSTORE PUSH1 0x24 PUSH0 REVERT JUMPDEST ADDRESS PUSH0 MSTORE PUSH1 0x73 DUP2 MSTORE8 DUP3 DUP2 RETURN INVALID PUSH20 0x0 ADDRESS EQ PUSH1 0x80 PUSH1 0x40 MSTORE PUSH1 0x4 CALLDATASIZE LT PUSH2 0x34 JUMPI PUSH0 CALLDATALOAD PUSH1 0xE0 SHR DUP1 PUSH4 0x5C33B182 EQ PUSH2 0x38 JUMPI JUMPDEST PUSH0 DUP1 REVERT JUMPDEST PUSH2 0x52 PUSH1 0x4 DUP1 CALLDATASIZE SUB DUP2 ADD SWAP1 PUSH2 0x4D SWAP2 SWAP1 PUSH2 0x1D5 JUMP JUMPDEST PUSH2 0x68 JUMP JUMPDEST PUSH1 0x40 MLOAD PUSH2 0x5F SWAP2 SWAP1 PUSH2 0x234 JUMP JUMPDEST PUSH1 0x40 MLOAD DUP1 SWAP2 SUB SWAP1 RETURN JUMPDEST PUSH0 PUSH1 0x1 DUP3 DUP1 MLOAD SWAP1 PUSH1 0x20 ADD KECCAK256 PUSH0 SHR PUSH2 0x7F SWAP2 SWAP1 PUSH2 0x283 JUMP JUMPDEST PUSH0 SHL SWAP1 POP SWAP2 SWAP1 POP JUMP JUMPDEST PUSH0 PUSH1 0x40 MLOAD SWAP1 POP SWAP1 JUMP JUMPDEST PUSH0 DUP1 REVERT JUMPDEST PUSH0 DUP1 REVERT JUMPDEST PUSH0 DUP1 REVERT JUMPDEST PUSH0 DUP1 REVERT JUMPDEST PUSH0 PUSH1 0x1F NOT PUSH1 0x1F DUP4 ADD AND SWAP1 POP SWAP2 SWAP1 POP JUMP JUMPDEST PUSH32 0x4E487B7100000000000000000000000000000000000000000000000000000000 PUSH0 MSTORE PUSH1 0x41 PUSH1 0x4 MSTORE PUSH1 0x24 PUSH0 REVERT JUMPDEST PUSH2 0xE7 DUP3 PUSH2 0xA1 JUMP JUMPDEST DUP2 ADD DUP2 DUP2 LT PUSH8 0xFFFFFFFFFFFFFFFF DUP3 GT OR ISZERO PUSH2 0x106 JUMPI PUSH2 0x105 PUSH2 0xB1 JUMP JUMPDEST JUMPDEST DUP1 PUSH1 0x40 MSTORE POP POP POP JUMP JUMPDEST PUSH0 PUSH2 0x118 PUSH2 0x88 JUMP JUMPDEST SWAP1 POP PUSH2 0x124 DUP3 DUP3 PUSH2 0xDE JUMP JUMPDEST SWAP2 SWAP1 POP JUMP JUMPDEST PUSH0 PUSH8 0xFFFFFFFFFFFFFFFF DUP3 GT ISZERO PUSH2 0x143 JUMPI PUSH2 0x142 PUSH2 0xB1 JUMP JUMPDEST JUMPDEST PUSH2 0x14C DUP3 PUSH2 0xA1 JUMP JUMPDEST SWAP1 POP PUSH1 0x20 DUP2 ADD SWAP1 POP SWAP2 SWAP1 POP JUMP JUMPDEST DUP3 DUP2 DUP4 CALLDATACOPY PUSH0 DUP4 DUP4 ADD MSTORE POP POP POP JUMP JUMPDEST PUSH0 PUSH2 0x179 PUSH2 0x174 DUP5 PUSH2 0x129 JUMP JUMPDEST PUSH2 0x10F JUMP JUMPDEST SWAP1 POP DUP3 DUP2 MSTORE PUSH1 0x20 DUP2 ADD DUP5 DUP5 DUP5 ADD GT ISZERO PUSH2 0x195 JUMPI PUSH2 0x194 PUSH2 0x9D JUMP JUMPDEST JUMPDEST PUSH2 0x1A0 DUP5 DUP3 DUP6 PUSH2 0x159 JUMP JUMPDEST POP SWAP4 SWAP3 POP POP POP JUMP JUMPDEST PUSH0 DUP3 PUSH1 0x1F DUP4 ADD SLT PUSH2 0x1BC JUMPI PUSH2 0x1BB PUSH2 0x99 JUMP JUMPDEST JUMPDEST DUP2 CALLDATALOAD PUSH2 0x1CC DUP5 DUP3 PUSH1 0x20 DUP7 ADD PUSH2 0x167 JUMP JUMPDEST SWAP2 POP POP SWAP3 SWAP2 POP POP JUMP JUMPDEST PUSH0 PUSH1 0x20 DUP3 DUP5 SUB SLT ISZERO PUSH2 0x1EA JUMPI PUSH2 0x1E9 PUSH2 0x91 JUMP JUMPDEST JUMPDEST PUSH0 DUP3 ADD CALLDATALOAD PUSH8 0xFFFFFFFFFFFFFFFF DUP2 GT ISZERO PUSH2 0x207 JUMPI PUSH2 0x206 PUSH2 0x95 JUMP JUMPDEST JUMPDEST PUSH2 0x213 DUP5 DUP3 DUP6 ADD PUSH2 0x1A8 JUMP JUMPDEST SWAP2 POP POP SWAP3 SWAP2 POP POP JUMP JUMPDEST PUSH0 DUP2 SWAP1 POP SWAP2 SWAP1 POP JUMP JUMPDEST PUSH2 0x22E DUP2 PUSH2 0x21C JUMP JUMPDEST DUP3 MSTORE POP POP JUMP JUMPDEST PUSH0 PUSH1 0x20 DUP3 ADD SWAP1 POP PUSH2 0x247 PUSH0 DUP4 ADD DUP5 PUSH2 0x225 JUMP JUMPDEST SWAP3 SWAP2 POP POP JUMP JUMPDEST PUSH0 DUP2 SWAP1 POP SWAP2 SWAP1 POP JUMP JUMPDEST PUSH32 0x4E487B7100000000000000000000000000000000000000000000000000000000 PUSH0 MSTORE PUSH1 0x11 PUSH1 0x4 MSTORE PUSH1 0x24 PUSH0 REVERT JUMPDEST PUSH0 PUSH2 0x28D DUP3 PUSH2 0x24D JUMP JUMPDEST SWAP2 POP PUSH2 0x298 DUP4 PUSH2 0x24D JUMP JUMPDEST SWAP3 POP DUP3 DUP3 SUB SWAP1 POP DUP2 DUP2 GT ISZERO PUSH2 0x2B0 JUMPI PUSH2 0x2AF PUSH2 0x256 JUMP JUMPDEST JUMPDEST SWAP3 SWAP2 POP POP JUMP INVALID LOG2 PUSH5 0x6970667358 0x22 SLT KECCAK256 0xE8 PUSH31 0x8CF7C1E4D592CE406569E4100F59AE28FCC5D587EF5FA5170149B9B4F50164 PUSH20 0x6F6C634300081A00330000000000000000000000 "
				},
				"gasEstimates": {
					"creation": {
						"codeDepositCost": "149600",
						"executionCost": "219",
						"totalCost": "149819"
					},
					"external": {
						"generateStorageSlot(string)": "infinite"
					},
					"internal": {
						"_delegate(address)": "infinite",
						"delegatecall()": "infinite",
						"getAddressSlot(bytes32)": "infinite",
						"getAdminAddress()": "infinite",
						"getImplementationAddress()": "infinite",
						"setAdminAddress(address)": "infinite",
						"setImplementationAddress(address)": "infinite"
					}
				},
				"methodIdentifiers": {
					"generateStorageSlot(string)": "5c33b182"
				}
			},
			"storageLayout": {
				"storage": [],
				"types": null
			},
			"userdoc": {
				"kind": "user",
				"methods": {},
				"version": 1
			}
		}
	}
}