{
	"contracts/TransparentUpgradeableProxy.sol": {
		"TransparentUpgradeableProxy": {
			"abi": [
				{
					"inputs": [
						{
							"internalType": "address",
							"name": "_logicAddress",
							"type": "address"
						},
						{
							"internalType": "bytes",
							"name": "data",
							"type": "bytes"
						}
					],
					"stateMutability": "nonpayable",
					"type": "constructor"
				},
				{
					"inputs": [],
					"name": "AddressEmptyError",
					"type": "error"
				},
				{
					"inputs": [
						{
							"internalType": "string",
							"name": "data",
							"type": "string"
						}
					],
					"name": "NotAdminError",
					"type": "error"
				},
				{
					"anonymous": false,
					"inputs": [
						{
							"indexed": true,
							"internalType": "address",
							"name": "from",
							"type": "address"
						},
						{
							"indexed": true,
							"internalType": "bytes4",
							"name": "msgSig",
							"type": "bytes4"
						},
						{
							"indexed": false,
							"internalType": "bytes",
							"name": "msgData",
							"type": "bytes"
						}
					],
					"name": "FallbackLog",
					"type": "event"
				},
				{
					"anonymous": false,
					"inputs": [
						{
							"indexed": true,
							"internalType": "address",
							"name": "logicAddress",
							"type": "address"
						},
						{
							"indexed": false,
							"internalType": "bytes",
							"name": "data",
							"type": "bytes"
						},
						{
							"indexed": false,
							"internalType": "bool",
							"name": "success",
							"type": "bool"
						},
						{
							"indexed": false,
							"internalType": "bytes",
							"name": "resultData",
							"type": "bytes"
						}
					],
					"name": "UpgradeAndCallLog",
					"type": "event"
				},
				{
					"stateMutability": "payable",
					"type": "fallback"
				},
				{
					"inputs": [
						{
							"internalType": "address",
							"name": "_newAdmin",
							"type": "address"
						}
					],
					"name": "changeAdmin",
					"outputs": [],
					"stateMutability": "nonpayable",
					"type": "function"
				},
				{
					"inputs": [
						{
							"internalType": "address",
							"name": "newLogicAddress",
							"type": "address"
						},
						{
							"internalType": "bytes",
							"name": "data",
							"type": "bytes"
						}
					],
					"name": "upgradeLogicAddress",
					"outputs": [],
					"stateMutability": "nonpayable",
					"type": "function"
				},
				{
					"stateMutability": "payable",
					"type": "receive"
				}
			],
			"devdoc": {
				"kind": "dev",
				"methods": {},
				"version": 1
			},
			"evm": {
				"assembly": "    /* \"contracts/TransparentUpgradeableProxy.sol\":927:2351  contract TransparentUpgradeableProxy is ProxyAdmin {... */\n  mstore(0x40, 0x80)\n    /* \"contracts/TransparentUpgradeableProxy.sol\":1229:1359  constructor(address _logicAddress, bytes memory data) ProxyAdmin(msg.sender) {... */\n  callvalue\n  dup1\n  iszero\n  tag_1\n  jumpi\n  0x00\n  dup1\n  revert\ntag_1:\n  pop\n  mload(0x40)\n  sub(codesize, bytecodeSize)\n  dup1\n  bytecodeSize\n  dup4\n  codecopy\n  dup2\n  dup2\n  add\n  0x40\n  mstore\n  dup2\n  add\n  swap1\n  tag_2\n  swap2\n  swap1\n  tag_3\n  jump\t// in\ntag_2:\n    /* \"contracts/TransparentUpgradeableProxy.sol\":1294:1304  msg.sender */\n  caller\n    /* \"contracts/TransparentUpgradeableProxy.sol\":276:319  ERC1967Utils.setAdminAddress(_adminAddress) */\n  tag_7\n    /* \"contracts/TransparentUpgradeableProxy.sol\":305:318  _adminAddress */\n  dup2\n    /* \"contracts/TransparentUpgradeableProxy.sol\":276:304  ERC1967Utils.setAdminAddress */\n  shl(0x20, tag_8)\n    /* \"contracts/TransparentUpgradeableProxy.sol\":276:319  ERC1967Utils.setAdminAddress(_adminAddress) */\n  0x20\n  shr\n  jump\t// in\ntag_7:\n    /* \"contracts/TransparentUpgradeableProxy.sol\":231:326  constructor(address _adminAddress) {... */\n  pop\n    /* \"contracts/TransparentUpgradeableProxy.sol\":1316:1352  _upgradeAndCall(_logicAddress, data) */\n  tag_10\n    /* \"contracts/TransparentUpgradeableProxy.sol\":1332:1345  _logicAddress */\n  dup3\n    /* \"contracts/TransparentUpgradeableProxy.sol\":1347:1351  data */\n  dup3\n    /* \"contracts/TransparentUpgradeableProxy.sol\":1316:1331  _upgradeAndCall */\n  shl(0x20, tag_11)\n    /* \"contracts/TransparentUpgradeableProxy.sol\":1316:1352  _upgradeAndCall(_logicAddress, data) */\n  0x20\n  shr\n  jump\t// in\ntag_10:\n    /* \"contracts/TransparentUpgradeableProxy.sol\":1229:1359  constructor(address _logicAddress, bytes memory data) ProxyAdmin(msg.sender) {... */\n  pop\n  pop\n    /* \"contracts/TransparentUpgradeableProxy.sol\":927:2351  contract TransparentUpgradeableProxy is ProxyAdmin {... */\n  jump(tag_12)\n    /* \"contracts/ERC1967Utils.sol\":1553:1675  function setAdminAddress(address _adminAddress) internal {... */\ntag_8:\n    /* \"contracts/ERC1967Utils.sol\":1655:1668  _adminAddress */\n  dup1\n    /* \"contracts/ERC1967Utils.sol\":1620:1646  getAddressSlot(ADMIN_SLOT) */\n  tag_14\n    /* \"contracts/ERC1967Utils.sol\":1290:1356  0xb53127684a568b3173ae13b9f8a6016e243e63b6e8ee1178d6a717850b5d6103 */\n  0xb53127684a568b3173ae13b9f8a6016e243e63b6e8ee1178d6a717850b5d6103\n    /* \"contracts/ERC1967Utils.sol\":1635:1645  ADMIN_SLOT */\n  0x00\n  shl\n    /* \"contracts/ERC1967Utils.sol\":1620:1634  getAddressSlot */\n  shl(0x20, tag_15)\n    /* \"contracts/ERC1967Utils.sol\":1620:1646  getAddressSlot(ADMIN_SLOT) */\n  0x20\n  shr\n  jump\t// in\ntag_14:\n    /* \"contracts/ERC1967Utils.sol\":1620:1652  getAddressSlot(ADMIN_SLOT).value */\n  0x00\n  add\n  0x00\n    /* \"contracts/ERC1967Utils.sol\":1620:1668  getAddressSlot(ADMIN_SLOT).value = _adminAddress */\n  0x0100\n  exp\n  dup2\n  sload\n  dup2\n  0xffffffffffffffffffffffffffffffffffffffff\n  mul\n  not\n  and\n  swap1\n  dup4\n  0xffffffffffffffffffffffffffffffffffffffff\n  and\n  mul\n  or\n  swap1\n  sstore\n  pop\n    /* \"contracts/ERC1967Utils.sol\":1553:1675  function setAdminAddress(address _adminAddress) internal {... */\n  pop\n  jump\t// out\n    /* \"contracts/TransparentUpgradeableProxy.sol\":1737:2220  function _upgradeAndCall(address _address, bytes memory data) private {... */\ntag_11:\n    /* \"contracts/TransparentUpgradeableProxy.sol\":1839:1840  0 */\n  0x00\n    /* \"contracts/TransparentUpgradeableProxy.sol\":1821:1841  _address==address(0) */\n  0xffffffffffffffffffffffffffffffffffffffff\n  and\n    /* \"contracts/TransparentUpgradeableProxy.sol\":1821:1829  _address */\n  dup3\n    /* \"contracts/TransparentUpgradeableProxy.sol\":1821:1841  _address==address(0) */\n  0xffffffffffffffffffffffffffffffffffffffff\n  and\n  sub\n    /* \"contracts/TransparentUpgradeableProxy.sol\":1817:1894  if (_address==address(0)) {... */\n  tag_17\n  jumpi\n    /* \"contracts/TransparentUpgradeableProxy.sol\":1864:1883  AddressEmptyError() */\n  mload(0x40)\n  0xae7c562200000000000000000000000000000000000000000000000000000000\n  dup2\n  mstore\n  0x04\n  add\n  mload(0x40)\n  dup1\n  swap2\n  sub\n  swap1\n  revert\n    /* \"contracts/TransparentUpgradeableProxy.sol\":1817:1894  if (_address==address(0)) {... */\ntag_17:\n    /* \"contracts/TransparentUpgradeableProxy.sol\":1939:1986  ERC1967Utils.setImplementationAddress(_address) */\n  tag_18\n    /* \"contracts/TransparentUpgradeableProxy.sol\":1977:1985  _address */\n  dup3\n    /* \"contracts/TransparentUpgradeableProxy.sol\":1939:1976  ERC1967Utils.setImplementationAddress */\n  shl(0x20, tag_19)\n    /* \"contracts/TransparentUpgradeableProxy.sol\":1939:1986  ERC1967Utils.setImplementationAddress(_address) */\n  0x20\n  shr\n  jump\t// in\ntag_18:\n    /* \"contracts/TransparentUpgradeableProxy.sol\":2045:2046  0 */\n  0x00\n    /* \"contracts/TransparentUpgradeableProxy.sol\":2033:2037  data */\n  dup2\n    /* \"contracts/TransparentUpgradeableProxy.sol\":2033:2044  data.length */\n  mload\n    /* \"contracts/TransparentUpgradeableProxy.sol\":2033:2046  data.length>0 */\n  gt\n    /* \"contracts/TransparentUpgradeableProxy.sol\":2029:2214  if (data.length>0) {... */\n  iszero\n  tag_20\n  jumpi\n    /* \"contracts/TransparentUpgradeableProxy.sol\":2063:2075  bool success */\n  0x00\n    /* \"contracts/TransparentUpgradeableProxy.sol\":2076:2099  bytes memory resultData */\n  dup1\n    /* \"contracts/TransparentUpgradeableProxy.sol\":2103:2111  _address */\n  dup4\n    /* \"contracts/TransparentUpgradeableProxy.sol\":2103:2124  _address.delegatecall */\n  0xffffffffffffffffffffffffffffffffffffffff\n  and\n    /* \"contracts/TransparentUpgradeableProxy.sol\":2125:2129  data */\n  dup4\n    /* \"contracts/TransparentUpgradeableProxy.sol\":2103:2130  _address.delegatecall(data) */\n  mload(0x40)\n  tag_21\n  swap2\n  swap1\n  tag_22\n  jump\t// in\ntag_21:\n  0x00\n  mload(0x40)\n  dup1\n  dup4\n  sub\n  dup2\n  dup6\n  gas\n  delegatecall\n  swap2\n  pop\n  pop\n  returndatasize\n  dup1\n  0x00\n  dup2\n  eq\n  tag_25\n  jumpi\n  mload(0x40)\n  swap2\n  pop\n  and(add(returndatasize, 0x3f), not(0x1f))\n  dup3\n  add\n  0x40\n  mstore\n  returndatasize\n  dup3\n  mstore\n  returndatasize\n  0x00\n  0x20\n  dup5\n  add\n  returndatacopy\n  jump(tag_24)\ntag_25:\n  0x60\n  swap2\n  pop\ntag_24:\n  pop\n    /* \"contracts/TransparentUpgradeableProxy.sol\":2062:2130  (bool success,bytes memory resultData) = _address.delegatecall(data) */\n  swap2\n  pop\n  swap2\n  pop\n    /* \"contracts/TransparentUpgradeableProxy.sol\":2167:2175  _address */\n  dup4\n    /* \"contracts/TransparentUpgradeableProxy.sol\":2149:2203  UpgradeAndCallLog(_address, data, success, resultData) */\n  0xffffffffffffffffffffffffffffffffffffffff\n  and\n  0x20423e22d1f0b31668780a7b6e52a7ad77a44c7dd910f738df5e2d06244fb559\n    /* \"contracts/TransparentUpgradeableProxy.sol\":2177:2181  data */\n  dup5\n    /* \"contracts/TransparentUpgradeableProxy.sol\":2183:2190  success */\n  dup5\n    /* \"contracts/TransparentUpgradeableProxy.sol\":2192:2202  resultData */\n  dup5\n    /* \"contracts/TransparentUpgradeableProxy.sol\":2149:2203  UpgradeAndCallLog(_address, data, success, resultData) */\n  mload(0x40)\n  tag_26\n  swap4\n  swap3\n  swap2\n  swap1\n  tag_27\n  jump\t// in\ntag_26:\n  mload(0x40)\n  dup1\n  swap2\n  sub\n  swap1\n  log2\n    /* \"contracts/TransparentUpgradeableProxy.sol\":2048:2214  {... */\n  pop\n  pop\n    /* \"contracts/TransparentUpgradeableProxy.sol\":2029:2214  if (data.length>0) {... */\ntag_20:\n    /* \"contracts/TransparentUpgradeableProxy.sol\":1737:2220  function _upgradeAndCall(address _address, bytes memory data) private {... */\n  pop\n  pop\n  jump\t// out\n    /* \"contracts/ERC1967Utils.sol\":1806:1969  function getAddressSlot(bytes32 slot) internal pure returns (AddressSlot storage r) {... */\ntag_15:\n    /* \"contracts/ERC1967Utils.sol\":1867:1888  AddressSlot storage r */\n  0x00\n    /* \"contracts/ERC1967Utils.sol\":1949:1953  slot */\n  dup2\n    /* \"contracts/ERC1967Utils.sol\":1939:1953  r.slot := slot */\n  swap1\n  pop\n    /* \"contracts/ERC1967Utils.sol\":1806:1969  function getAddressSlot(bytes32 slot) internal pure returns (AddressSlot storage r) {... */\n  swap2\n  swap1\n  pop\n  jump\t// out\n    /* \"contracts/ERC1967Utils.sol\":873:1031  function setImplementationAddress(address _implementationAddress) internal {... */\ntag_19:\n    /* \"contracts/ERC1967Utils.sol\":1002:1024  _implementationAddress */\n  dup1\n    /* \"contracts/ERC1967Utils.sol\":958:993  getAddressSlot(IMPLEMENTATION_SLOT) */\n  tag_30\n    /* \"contracts/ERC1967Utils.sol\":574:640  0x360894a13ba1a3210667c828492db98dca3e2076cc3735a920a3ca505d382bbc */\n  0x360894a13ba1a3210667c828492db98dca3e2076cc3735a920a3ca505d382bbc\n    /* \"contracts/ERC1967Utils.sol\":973:992  IMPLEMENTATION_SLOT */\n  0x00\n  shl\n    /* \"contracts/ERC1967Utils.sol\":958:972  getAddressSlot */\n  shl(0x20, tag_15)\n    /* \"contracts/ERC1967Utils.sol\":958:993  getAddressSlot(IMPLEMENTATION_SLOT) */\n  0x20\n  shr\n  jump\t// in\ntag_30:\n    /* \"contracts/ERC1967Utils.sol\":958:999  getAddressSlot(IMPLEMENTATION_SLOT).value */\n  0x00\n  add\n  0x00\n    /* \"contracts/ERC1967Utils.sol\":958:1024  getAddressSlot(IMPLEMENTATION_SLOT).value = _implementationAddress */\n  0x0100\n  exp\n  dup2\n  sload\n  dup2\n  0xffffffffffffffffffffffffffffffffffffffff\n  mul\n  not\n  and\n  swap1\n  dup4\n  0xffffffffffffffffffffffffffffffffffffffff\n  and\n  mul\n  or\n  swap1\n  sstore\n  pop\n    /* \"contracts/ERC1967Utils.sol\":873:1031  function setImplementationAddress(address _implementationAddress) internal {... */\n  pop\n  jump\t// out\n    /* \"#utility.yul\":7:82   */\ntag_31:\n    /* \"#utility.yul\":40:46   */\n  0x00\n    /* \"#utility.yul\":73:75   */\n  0x40\n    /* \"#utility.yul\":67:76   */\n  mload\n    /* \"#utility.yul\":57:76   */\n  swap1\n  pop\n    /* \"#utility.yul\":7:82   */\n  swap1\n  jump\t// out\n    /* \"#utility.yul\":88:205   */\ntag_32:\n    /* \"#utility.yul\":197:198   */\n  0x00\n    /* \"#utility.yul\":194:195   */\n  dup1\n    /* \"#utility.yul\":187:199   */\n  revert\n    /* \"#utility.yul\":211:328   */\ntag_33:\n    /* \"#utility.yul\":320:321   */\n  0x00\n    /* \"#utility.yul\":317:318   */\n  dup1\n    /* \"#utility.yul\":310:322   */\n  revert\n    /* \"#utility.yul\":334:460   */\ntag_34:\n    /* \"#utility.yul\":371:378   */\n  0x00\n    /* \"#utility.yul\":411:453   */\n  0xffffffffffffffffffffffffffffffffffffffff\n    /* \"#utility.yul\":404:409   */\n  dup3\n    /* \"#utility.yul\":400:454   */\n  and\n    /* \"#utility.yul\":389:454   */\n  swap1\n  pop\n    /* \"#utility.yul\":334:460   */\n  swap2\n  swap1\n  pop\n  jump\t// out\n    /* \"#utility.yul\":466:562   */\ntag_35:\n    /* \"#utility.yul\":503:510   */\n  0x00\n    /* \"#utility.yul\":532:556   */\n  tag_61\n    /* \"#utility.yul\":550:555   */\n  dup3\n    /* \"#utility.yul\":532:556   */\n  tag_34\n  jump\t// in\ntag_61:\n    /* \"#utility.yul\":521:556   */\n  swap1\n  pop\n    /* \"#utility.yul\":466:562   */\n  swap2\n  swap1\n  pop\n  jump\t// out\n    /* \"#utility.yul\":568:690   */\ntag_36:\n    /* \"#utility.yul\":641:665   */\n  tag_63\n    /* \"#utility.yul\":659:664   */\n  dup2\n    /* \"#utility.yul\":641:665   */\n  tag_35\n  jump\t// in\ntag_63:\n    /* \"#utility.yul\":634:639   */\n  dup2\n    /* \"#utility.yul\":631:666   */\n  eq\n    /* \"#utility.yul\":621:684   */\n  tag_64\n  jumpi\n    /* \"#utility.yul\":680:681   */\n  0x00\n    /* \"#utility.yul\":677:678   */\n  dup1\n    /* \"#utility.yul\":670:682   */\n  revert\n    /* \"#utility.yul\":621:684   */\ntag_64:\n    /* \"#utility.yul\":568:690   */\n  pop\n  jump\t// out\n    /* \"#utility.yul\":696:839   */\ntag_37:\n    /* \"#utility.yul\":753:758   */\n  0x00\n    /* \"#utility.yul\":784:790   */\n  dup2\n    /* \"#utility.yul\":778:791   */\n  mload\n    /* \"#utility.yul\":769:791   */\n  swap1\n  pop\n    /* \"#utility.yul\":800:833   */\n  tag_66\n    /* \"#utility.yul\":827:832   */\n  dup2\n    /* \"#utility.yul\":800:833   */\n  tag_36\n  jump\t// in\ntag_66:\n    /* \"#utility.yul\":696:839   */\n  swap3\n  swap2\n  pop\n  pop\n  jump\t// out\n    /* \"#utility.yul\":845:962   */\ntag_38:\n    /* \"#utility.yul\":954:955   */\n  0x00\n    /* \"#utility.yul\":951:952   */\n  dup1\n    /* \"#utility.yul\":944:956   */\n  revert\n    /* \"#utility.yul\":968:1085   */\ntag_39:\n    /* \"#utility.yul\":1077:1078   */\n  0x00\n    /* \"#utility.yul\":1074:1075   */\n  dup1\n    /* \"#utility.yul\":1067:1079   */\n  revert\n    /* \"#utility.yul\":1091:1193   */\ntag_40:\n    /* \"#utility.yul\":1132:1138   */\n  0x00\n    /* \"#utility.yul\":1183:1185   */\n  0x1f\n    /* \"#utility.yul\":1179:1186   */\n  not\n    /* \"#utility.yul\":1174:1176   */\n  0x1f\n    /* \"#utility.yul\":1167:1172   */\n  dup4\n    /* \"#utility.yul\":1163:1177   */\n  add\n    /* \"#utility.yul\":1159:1187   */\n  and\n    /* \"#utility.yul\":1149:1187   */\n  swap1\n  pop\n    /* \"#utility.yul\":1091:1193   */\n  swap2\n  swap1\n  pop\n  jump\t// out\n    /* \"#utility.yul\":1199:1379   */\ntag_41:\n    /* \"#utility.yul\":1247:1324   */\n  0x4e487b7100000000000000000000000000000000000000000000000000000000\n    /* \"#utility.yul\":1244:1245   */\n  0x00\n    /* \"#utility.yul\":1237:1325   */\n  mstore\n    /* \"#utility.yul\":1344:1348   */\n  0x41\n    /* \"#utility.yul\":1341:1342   */\n  0x04\n    /* \"#utility.yul\":1334:1349   */\n  mstore\n    /* \"#utility.yul\":1368:1372   */\n  0x24\n    /* \"#utility.yul\":1365:1366   */\n  0x00\n    /* \"#utility.yul\":1358:1373   */\n  revert\n    /* \"#utility.yul\":1385:1666   */\ntag_42:\n    /* \"#utility.yul\":1468:1495   */\n  tag_72\n    /* \"#utility.yul\":1490:1494   */\n  dup3\n    /* \"#utility.yul\":1468:1495   */\n  tag_40\n  jump\t// in\ntag_72:\n    /* \"#utility.yul\":1460:1466   */\n  dup2\n    /* \"#utility.yul\":1456:1496   */\n  add\n    /* \"#utility.yul\":1598:1604   */\n  dup2\n    /* \"#utility.yul\":1586:1596   */\n  dup2\n    /* \"#utility.yul\":1583:1605   */\n  lt\n    /* \"#utility.yul\":1562:1580   */\n  0xffffffffffffffff\n    /* \"#utility.yul\":1550:1560   */\n  dup3\n    /* \"#utility.yul\":1547:1581   */\n  gt\n    /* \"#utility.yul\":1544:1606   */\n  or\n    /* \"#utility.yul\":1541:1629   */\n  iszero\n  tag_73\n  jumpi\n    /* \"#utility.yul\":1609:1627   */\n  tag_74\n  tag_41\n  jump\t// in\ntag_74:\n    /* \"#utility.yul\":1541:1629   */\ntag_73:\n    /* \"#utility.yul\":1649:1659   */\n  dup1\n    /* \"#utility.yul\":1645:1647   */\n  0x40\n    /* \"#utility.yul\":1638:1660   */\n  mstore\n    /* \"#utility.yul\":1428:1666   */\n  pop\n    /* \"#utility.yul\":1385:1666   */\n  pop\n  pop\n  jump\t// out\n    /* \"#utility.yul\":1672:1801   */\ntag_43:\n    /* \"#utility.yul\":1706:1712   */\n  0x00\n    /* \"#utility.yul\":1733:1753   */\n  tag_76\n  tag_31\n  jump\t// in\ntag_76:\n    /* \"#utility.yul\":1723:1753   */\n  swap1\n  pop\n    /* \"#utility.yul\":1762:1795   */\n  tag_77\n    /* \"#utility.yul\":1790:1794   */\n  dup3\n    /* \"#utility.yul\":1782:1788   */\n  dup3\n    /* \"#utility.yul\":1762:1795   */\n  tag_42\n  jump\t// in\ntag_77:\n    /* \"#utility.yul\":1672:1801   */\n  swap2\n  swap1\n  pop\n  jump\t// out\n    /* \"#utility.yul\":1807:2114   */\ntag_44:\n    /* \"#utility.yul\":1868:1872   */\n  0x00\n    /* \"#utility.yul\":1958:1976   */\n  0xffffffffffffffff\n    /* \"#utility.yul\":1950:1956   */\n  dup3\n    /* \"#utility.yul\":1947:1977   */\n  gt\n    /* \"#utility.yul\":1944:2000   */\n  iszero\n  tag_79\n  jumpi\n    /* \"#utility.yul\":1980:1998   */\n  tag_80\n  tag_41\n  jump\t// in\ntag_80:\n    /* \"#utility.yul\":1944:2000   */\ntag_79:\n    /* \"#utility.yul\":2018:2047   */\n  tag_81\n    /* \"#utility.yul\":2040:2046   */\n  dup3\n    /* \"#utility.yul\":2018:2047   */\n  tag_40\n  jump\t// in\ntag_81:\n    /* \"#utility.yul\":2010:2047   */\n  swap1\n  pop\n    /* \"#utility.yul\":2102:2106   */\n  0x20\n    /* \"#utility.yul\":2096:2100   */\n  dup2\n    /* \"#utility.yul\":2092:2107   */\n  add\n    /* \"#utility.yul\":2084:2107   */\n  swap1\n  pop\n    /* \"#utility.yul\":1807:2114   */\n  swap2\n  swap1\n  pop\n  jump\t// out\n    /* \"#utility.yul\":2120:2259   */\ntag_45:\n    /* \"#utility.yul\":2209:2215   */\n  dup3\n    /* \"#utility.yul\":2204:2207   */\n  dup2\n    /* \"#utility.yul\":2199:2202   */\n  dup4\n    /* \"#utility.yul\":2193:2216   */\n  mcopy\n    /* \"#utility.yul\":2250:2251   */\n  0x00\n    /* \"#utility.yul\":2241:2247   */\n  dup4\n    /* \"#utility.yul\":2236:2239   */\n  dup4\n    /* \"#utility.yul\":2232:2248   */\n  add\n    /* \"#utility.yul\":2225:2252   */\n  mstore\n    /* \"#utility.yul\":2120:2259   */\n  pop\n  pop\n  pop\n  jump\t// out\n    /* \"#utility.yul\":2265:2697   */\ntag_46:\n    /* \"#utility.yul\":2353:2358   */\n  0x00\n    /* \"#utility.yul\":2378:2443   */\n  tag_84\n    /* \"#utility.yul\":2394:2442   */\n  tag_85\n    /* \"#utility.yul\":2435:2441   */\n  dup5\n    /* \"#utility.yul\":2394:2442   */\n  tag_44\n  jump\t// in\ntag_85:\n    /* \"#utility.yul\":2378:2443   */\n  tag_43\n  jump\t// in\ntag_84:\n    /* \"#utility.yul\":2369:2443   */\n  swap1\n  pop\n    /* \"#utility.yul\":2466:2472   */\n  dup3\n    /* \"#utility.yul\":2459:2464   */\n  dup2\n    /* \"#utility.yul\":2452:2473   */\n  mstore\n    /* \"#utility.yul\":2504:2508   */\n  0x20\n    /* \"#utility.yul\":2497:2502   */\n  dup2\n    /* \"#utility.yul\":2493:2509   */\n  add\n    /* \"#utility.yul\":2542:2545   */\n  dup5\n    /* \"#utility.yul\":2533:2539   */\n  dup5\n    /* \"#utility.yul\":2528:2531   */\n  dup5\n    /* \"#utility.yul\":2524:2540   */\n  add\n    /* \"#utility.yul\":2521:2546   */\n  gt\n    /* \"#utility.yul\":2518:2630   */\n  iszero\n  tag_86\n  jumpi\n    /* \"#utility.yul\":2549:2628   */\n  tag_87\n  tag_39\n  jump\t// in\ntag_87:\n    /* \"#utility.yul\":2518:2630   */\ntag_86:\n    /* \"#utility.yul\":2639:2691   */\n  tag_88\n    /* \"#utility.yul\":2684:2690   */\n  dup5\n    /* \"#utility.yul\":2679:2682   */\n  dup3\n    /* \"#utility.yul\":2674:2677   */\n  dup6\n    /* \"#utility.yul\":2639:2691   */\n  tag_45\n  jump\t// in\ntag_88:\n    /* \"#utility.yul\":2359:2697   */\n  pop\n    /* \"#utility.yul\":2265:2697   */\n  swap4\n  swap3\n  pop\n  pop\n  pop\n  jump\t// out\n    /* \"#utility.yul\":2716:3069   */\ntag_47:\n    /* \"#utility.yul\":2782:2787   */\n  0x00\n    /* \"#utility.yul\":2831:2834   */\n  dup3\n    /* \"#utility.yul\":2824:2828   */\n  0x1f\n    /* \"#utility.yul\":2816:2822   */\n  dup4\n    /* \"#utility.yul\":2812:2829   */\n  add\n    /* \"#utility.yul\":2808:2835   */\n  slt\n    /* \"#utility.yul\":2798:2920   */\n  tag_90\n  jumpi\n    /* \"#utility.yul\":2839:2918   */\n  tag_91\n  tag_38\n  jump\t// in\ntag_91:\n    /* \"#utility.yul\":2798:2920   */\ntag_90:\n    /* \"#utility.yul\":2949:2955   */\n  dup2\n    /* \"#utility.yul\":2943:2956   */\n  mload\n    /* \"#utility.yul\":2974:3063   */\n  tag_92\n    /* \"#utility.yul\":3059:3062   */\n  dup5\n    /* \"#utility.yul\":3051:3057   */\n  dup3\n    /* \"#utility.yul\":3044:3048   */\n  0x20\n    /* \"#utility.yul\":3036:3042   */\n  dup7\n    /* \"#utility.yul\":3032:3049   */\n  add\n    /* \"#utility.yul\":2974:3063   */\n  tag_46\n  jump\t// in\ntag_92:\n    /* \"#utility.yul\":2965:3063   */\n  swap2\n  pop\n    /* \"#utility.yul\":2788:3069   */\n  pop\n    /* \"#utility.yul\":2716:3069   */\n  swap3\n  swap2\n  pop\n  pop\n  jump\t// out\n    /* \"#utility.yul\":3075:3753   */\ntag_3:\n    /* \"#utility.yul\":3163:3169   */\n  0x00\n    /* \"#utility.yul\":3171:3177   */\n  dup1\n    /* \"#utility.yul\":3220:3222   */\n  0x40\n    /* \"#utility.yul\":3208:3217   */\n  dup4\n    /* \"#utility.yul\":3199:3206   */\n  dup6\n    /* \"#utility.yul\":3195:3218   */\n  sub\n    /* \"#utility.yul\":3191:3223   */\n  slt\n    /* \"#utility.yul\":3188:3307   */\n  iszero\n  tag_94\n  jumpi\n    /* \"#utility.yul\":3226:3305   */\n  tag_95\n  tag_32\n  jump\t// in\ntag_95:\n    /* \"#utility.yul\":3188:3307   */\ntag_94:\n    /* \"#utility.yul\":3346:3347   */\n  0x00\n    /* \"#utility.yul\":3371:3435   */\n  tag_96\n    /* \"#utility.yul\":3427:3434   */\n  dup6\n    /* \"#utility.yul\":3418:3424   */\n  dup3\n    /* \"#utility.yul\":3407:3416   */\n  dup7\n    /* \"#utility.yul\":3403:3425   */\n  add\n    /* \"#utility.yul\":3371:3435   */\n  tag_37\n  jump\t// in\ntag_96:\n    /* \"#utility.yul\":3361:3435   */\n  swap3\n  pop\n    /* \"#utility.yul\":3317:3445   */\n  pop\n    /* \"#utility.yul\":3505:3507   */\n  0x20\n    /* \"#utility.yul\":3494:3503   */\n  dup4\n    /* \"#utility.yul\":3490:3508   */\n  add\n    /* \"#utility.yul\":3484:3509   */\n  mload\n    /* \"#utility.yul\":3536:3554   */\n  0xffffffffffffffff\n    /* \"#utility.yul\":3528:3534   */\n  dup2\n    /* \"#utility.yul\":3525:3555   */\n  gt\n    /* \"#utility.yul\":3522:3639   */\n  iszero\n  tag_97\n  jumpi\n    /* \"#utility.yul\":3558:3637   */\n  tag_98\n  tag_33\n  jump\t// in\ntag_98:\n    /* \"#utility.yul\":3522:3639   */\ntag_97:\n    /* \"#utility.yul\":3663:3736   */\n  tag_99\n    /* \"#utility.yul\":3728:3735   */\n  dup6\n    /* \"#utility.yul\":3719:3725   */\n  dup3\n    /* \"#utility.yul\":3708:3717   */\n  dup7\n    /* \"#utility.yul\":3704:3726   */\n  add\n    /* \"#utility.yul\":3663:3736   */\n  tag_47\n  jump\t// in\ntag_99:\n    /* \"#utility.yul\":3653:3736   */\n  swap2\n  pop\n    /* \"#utility.yul\":3455:3746   */\n  pop\n    /* \"#utility.yul\":3075:3753   */\n  swap3\n  pop\n  swap3\n  swap1\n  pop\n  jump\t// out\n    /* \"#utility.yul\":3759:3857   */\ntag_48:\n    /* \"#utility.yul\":3810:3816   */\n  0x00\n    /* \"#utility.yul\":3844:3849   */\n  dup2\n    /* \"#utility.yul\":3838:3850   */\n  mload\n    /* \"#utility.yul\":3828:3850   */\n  swap1\n  pop\n    /* \"#utility.yul\":3759:3857   */\n  swap2\n  swap1\n  pop\n  jump\t// out\n    /* \"#utility.yul\":3863:4010   */\ntag_49:\n    /* \"#utility.yul\":3964:3975   */\n  0x00\n    /* \"#utility.yul\":4001:4004   */\n  dup2\n    /* \"#utility.yul\":3986:4004   */\n  swap1\n  pop\n    /* \"#utility.yul\":3863:4010   */\n  swap3\n  swap2\n  pop\n  pop\n  jump\t// out\n    /* \"#utility.yul\":4016:4402   */\ntag_50:\n    /* \"#utility.yul\":4120:4123   */\n  0x00\n    /* \"#utility.yul\":4148:4186   */\n  tag_103\n    /* \"#utility.yul\":4180:4185   */\n  dup3\n    /* \"#utility.yul\":4148:4186   */\n  tag_48\n  jump\t// in\ntag_103:\n    /* \"#utility.yul\":4202:4290   */\n  tag_104\n    /* \"#utility.yul\":4283:4289   */\n  dup2\n    /* \"#utility.yul\":4278:4281   */\n  dup6\n    /* \"#utility.yul\":4202:4290   */\n  tag_49\n  jump\t// in\ntag_104:\n    /* \"#utility.yul\":4195:4290   */\n  swap4\n  pop\n    /* \"#utility.yul\":4299:4364   */\n  tag_105\n    /* \"#utility.yul\":4357:4363   */\n  dup2\n    /* \"#utility.yul\":4352:4355   */\n  dup6\n    /* \"#utility.yul\":4345:4349   */\n  0x20\n    /* \"#utility.yul\":4338:4343   */\n  dup7\n    /* \"#utility.yul\":4334:4350   */\n  add\n    /* \"#utility.yul\":4299:4364   */\n  tag_45\n  jump\t// in\ntag_105:\n    /* \"#utility.yul\":4389:4395   */\n  dup1\n    /* \"#utility.yul\":4384:4387   */\n  dup5\n    /* \"#utility.yul\":4380:4396   */\n  add\n    /* \"#utility.yul\":4373:4396   */\n  swap2\n  pop\n    /* \"#utility.yul\":4124:4402   */\n  pop\n    /* \"#utility.yul\":4016:4402   */\n  swap3\n  swap2\n  pop\n  pop\n  jump\t// out\n    /* \"#utility.yul\":4408:4679   */\ntag_22:\n    /* \"#utility.yul\":4538:4541   */\n  0x00\n    /* \"#utility.yul\":4560:4653   */\n  tag_107\n    /* \"#utility.yul\":4649:4652   */\n  dup3\n    /* \"#utility.yul\":4640:4646   */\n  dup5\n    /* \"#utility.yul\":4560:4653   */\n  tag_50\n  jump\t// in\ntag_107:\n    /* \"#utility.yul\":4553:4653   */\n  swap2\n  pop\n    /* \"#utility.yul\":4670:4673   */\n  dup2\n    /* \"#utility.yul\":4663:4673   */\n  swap1\n  pop\n    /* \"#utility.yul\":4408:4679   */\n  swap3\n  swap2\n  pop\n  pop\n  jump\t// out\n    /* \"#utility.yul\":4685:4853   */\ntag_51:\n    /* \"#utility.yul\":4768:4779   */\n  0x00\n    /* \"#utility.yul\":4802:4808   */\n  dup3\n    /* \"#utility.yul\":4797:4800   */\n  dup3\n    /* \"#utility.yul\":4790:4809   */\n  mstore\n    /* \"#utility.yul\":4842:4846   */\n  0x20\n    /* \"#utility.yul\":4837:4840   */\n  dup3\n    /* \"#utility.yul\":4833:4847   */\n  add\n    /* \"#utility.yul\":4818:4847   */\n  swap1\n  pop\n    /* \"#utility.yul\":4685:4853   */\n  swap3\n  swap2\n  pop\n  pop\n  jump\t// out\n    /* \"#utility.yul\":4859:5232   */\ntag_52:\n    /* \"#utility.yul\":4945:4948   */\n  0x00\n    /* \"#utility.yul\":4973:5011   */\n  tag_110\n    /* \"#utility.yul\":5005:5010   */\n  dup3\n    /* \"#utility.yul\":4973:5011   */\n  tag_48\n  jump\t// in\ntag_110:\n    /* \"#utility.yul\":5027:5097   */\n  tag_111\n    /* \"#utility.yul\":5090:5096   */\n  dup2\n    /* \"#utility.yul\":5085:5088   */\n  dup6\n    /* \"#utility.yul\":5027:5097   */\n  tag_51\n  jump\t// in\ntag_111:\n    /* \"#utility.yul\":5020:5097   */\n  swap4\n  pop\n    /* \"#utility.yul\":5106:5171   */\n  tag_112\n    /* \"#utility.yul\":5164:5170   */\n  dup2\n    /* \"#utility.yul\":5159:5162   */\n  dup6\n    /* \"#utility.yul\":5152:5156   */\n  0x20\n    /* \"#utility.yul\":5145:5150   */\n  dup7\n    /* \"#utility.yul\":5141:5157   */\n  add\n    /* \"#utility.yul\":5106:5171   */\n  tag_45\n  jump\t// in\ntag_112:\n    /* \"#utility.yul\":5196:5225   */\n  tag_113\n    /* \"#utility.yul\":5218:5224   */\n  dup2\n    /* \"#utility.yul\":5196:5225   */\n  tag_40\n  jump\t// in\ntag_113:\n    /* \"#utility.yul\":5191:5194   */\n  dup5\n    /* \"#utility.yul\":5187:5226   */\n  add\n    /* \"#utility.yul\":5180:5226   */\n  swap2\n  pop\n    /* \"#utility.yul\":4949:5232   */\n  pop\n    /* \"#utility.yul\":4859:5232   */\n  swap3\n  swap2\n  pop\n  pop\n  jump\t// out\n    /* \"#utility.yul\":5238:5328   */\ntag_53:\n    /* \"#utility.yul\":5272:5279   */\n  0x00\n    /* \"#utility.yul\":5315:5320   */\n  dup2\n    /* \"#utility.yul\":5308:5321   */\n  iszero\n    /* \"#utility.yul\":5301:5322   */\n  iszero\n    /* \"#utility.yul\":5290:5322   */\n  swap1\n  pop\n    /* \"#utility.yul\":5238:5328   */\n  swap2\n  swap1\n  pop\n  jump\t// out\n    /* \"#utility.yul\":5334:5443   */\ntag_54:\n    /* \"#utility.yul\":5415:5436   */\n  tag_116\n    /* \"#utility.yul\":5430:5435   */\n  dup2\n    /* \"#utility.yul\":5415:5436   */\n  tag_53\n  jump\t// in\ntag_116:\n    /* \"#utility.yul\":5410:5413   */\n  dup3\n    /* \"#utility.yul\":5403:5437   */\n  mstore\n    /* \"#utility.yul\":5334:5443   */\n  pop\n  pop\n  jump\t// out\n    /* \"#utility.yul\":5449:6053   */\ntag_27:\n    /* \"#utility.yul\":5628:5632   */\n  0x00\n    /* \"#utility.yul\":5666:5668   */\n  0x60\n    /* \"#utility.yul\":5655:5664   */\n  dup3\n    /* \"#utility.yul\":5651:5669   */\n  add\n    /* \"#utility.yul\":5643:5669   */\n  swap1\n  pop\n    /* \"#utility.yul\":5715:5724   */\n  dup2\n    /* \"#utility.yul\":5709:5713   */\n  dup2\n    /* \"#utility.yul\":5705:5725   */\n  sub\n    /* \"#utility.yul\":5701:5702   */\n  0x00\n    /* \"#utility.yul\":5690:5699   */\n  dup4\n    /* \"#utility.yul\":5686:5703   */\n  add\n    /* \"#utility.yul\":5679:5726   */\n  mstore\n    /* \"#utility.yul\":5743:5819   */\n  tag_118\n    /* \"#utility.yul\":5814:5818   */\n  dup2\n    /* \"#utility.yul\":5805:5811   */\n  dup7\n    /* \"#utility.yul\":5743:5819   */\n  tag_52\n  jump\t// in\ntag_118:\n    /* \"#utility.yul\":5735:5819   */\n  swap1\n  pop\n    /* \"#utility.yul\":5829:5895   */\n  tag_119\n    /* \"#utility.yul\":5891:5893   */\n  0x20\n    /* \"#utility.yul\":5880:5889   */\n  dup4\n    /* \"#utility.yul\":5876:5894   */\n  add\n    /* \"#utility.yul\":5867:5873   */\n  dup6\n    /* \"#utility.yul\":5829:5895   */\n  tag_54\n  jump\t// in\ntag_119:\n    /* \"#utility.yul\":5942:5951   */\n  dup2\n    /* \"#utility.yul\":5936:5940   */\n  dup2\n    /* \"#utility.yul\":5932:5952   */\n  sub\n    /* \"#utility.yul\":5927:5929   */\n  0x40\n    /* \"#utility.yul\":5916:5925   */\n  dup4\n    /* \"#utility.yul\":5912:5930   */\n  add\n    /* \"#utility.yul\":5905:5953   */\n  mstore\n    /* \"#utility.yul\":5970:6046   */\n  tag_120\n    /* \"#utility.yul\":6041:6045   */\n  dup2\n    /* \"#utility.yul\":6032:6038   */\n  dup5\n    /* \"#utility.yul\":5970:6046   */\n  tag_52\n  jump\t// in\ntag_120:\n    /* \"#utility.yul\":5962:6046   */\n  swap1\n  pop\n    /* \"#utility.yul\":5449:6053   */\n  swap5\n  swap4\n  pop\n  pop\n  pop\n  pop\n  jump\t// out\n    /* \"contracts/TransparentUpgradeableProxy.sol\":927:2351  contract TransparentUpgradeableProxy is ProxyAdmin {... */\ntag_12:\n  dataSize(sub_0)\n  dup1\n  dataOffset(sub_0)\n  0x00\n  codecopy\n  0x00\n  return\nstop\n\nsub_0: assembly {\n        /* \"contracts/TransparentUpgradeableProxy.sol\":927:2351  contract TransparentUpgradeableProxy is ProxyAdmin {... */\n      mstore(0x40, 0x80)\n      jumpi(tag_1, lt(calldatasize, 0x04))\n      shr(0xe0, calldataload(0x00))\n      dup1\n      0x8f283970\n      eq\n      tag_3\n      jumpi\n      dup1\n      0x95fae7ac\n      eq\n      tag_4\n      jumpi\n      jump(tag_2)\n    tag_1:\n      jumpi(tag_2, calldatasize)\n      stop\n    tag_2:\n        /* \"contracts/TransparentUpgradeableProxy.sol\":1431:1438  msg.sig */\n      and(0xffffffff00000000000000000000000000000000000000000000000000000000, calldataload(0x00))\n        /* \"contracts/TransparentUpgradeableProxy.sol\":1407:1449  FallbackLog(msg.sender, msg.sig, msg.data) */\n      not(0xffffffffffffffffffffffffffffffffffffffffffffffffffffffff)\n      and\n        /* \"contracts/TransparentUpgradeableProxy.sol\":1419:1429  msg.sender */\n      caller\n        /* \"contracts/TransparentUpgradeableProxy.sol\":1407:1449  FallbackLog(msg.sender, msg.sig, msg.data) */\n      0xffffffffffffffffffffffffffffffffffffffff\n      and\n      0x0a2e94dc85c608109377f1d4e7fd45e8eed5fe3acdaf32e2423ec8e069d40a07\n        /* \"contracts/TransparentUpgradeableProxy.sol\":1440:1448  msg.data */\n      0x00\n      calldatasize\n        /* \"contracts/TransparentUpgradeableProxy.sol\":1407:1449  FallbackLog(msg.sender, msg.sig, msg.data) */\n      mload(0x40)\n      tag_9\n      swap3\n      swap2\n      swap1\n      tag_10\n      jump\t// in\n    tag_9:\n      mload(0x40)\n      dup1\n      swap2\n      sub\n      swap1\n      log3\n        /* \"contracts/TransparentUpgradeableProxy.sol\":1492:1519  ERC1967Utils.delegatecall() */\n      tag_11\n        /* \"contracts/TransparentUpgradeableProxy.sol\":1492:1517  ERC1967Utils.delegatecall */\n      tag_12\n        /* \"contracts/TransparentUpgradeableProxy.sol\":1492:1519  ERC1967Utils.delegatecall() */\n      jump\t// in\n    tag_11:\n        /* \"contracts/TransparentUpgradeableProxy.sol\":927:2351  contract TransparentUpgradeableProxy is ProxyAdmin {... */\n      stop\n        /* \"contracts/TransparentUpgradeableProxy.sol\":2244:2349  function changeAdmin(address _newAdmin) external onlyAdmin {... */\n    tag_3:\n      callvalue\n      dup1\n      iszero\n      tag_13\n      jumpi\n      0x00\n      dup1\n      revert\n    tag_13:\n      pop\n      tag_14\n      0x04\n      dup1\n      calldatasize\n      sub\n      dup2\n      add\n      swap1\n      tag_15\n      swap2\n      swap1\n      tag_16\n      jump\t// in\n    tag_15:\n      tag_17\n      jump\t// in\n    tag_14:\n      stop\n        /* \"contracts/TransparentUpgradeableProxy.sol\":1585:1732  function upgradeLogicAddress(address newLogicAddress, bytes memory data) external onlyAdmin {... */\n    tag_4:\n      callvalue\n      dup1\n      iszero\n      tag_18\n      jumpi\n      0x00\n      dup1\n      revert\n    tag_18:\n      pop\n      tag_19\n      0x04\n      dup1\n      calldatasize\n      sub\n      dup2\n      add\n      swap1\n      tag_20\n      swap2\n      swap1\n      tag_21\n      jump\t// in\n    tag_20:\n      tag_22\n      jump\t// in\n    tag_19:\n      stop\n        /* \"contracts/ERC1967Utils.sol\":1975:2062  function delegatecall() internal {... */\n    tag_12:\n        /* \"contracts/ERC1967Utils.sol\":2018:2055  _delegate(getImplementationAddress()) */\n      tag_24\n        /* \"contracts/ERC1967Utils.sol\":2028:2054  getImplementationAddress() */\n      tag_25\n        /* \"contracts/ERC1967Utils.sol\":2028:2052  getImplementationAddress */\n      tag_26\n        /* \"contracts/ERC1967Utils.sol\":2028:2054  getImplementationAddress() */\n      jump\t// in\n    tag_25:\n        /* \"contracts/ERC1967Utils.sol\":2018:2027  _delegate */\n      tag_27\n        /* \"contracts/ERC1967Utils.sol\":2018:2055  _delegate(getImplementationAddress()) */\n      jump\t// in\n    tag_24:\n        /* \"contracts/ERC1967Utils.sol\":1975:2062  function delegatecall() internal {... */\n      jump\t// out\n        /* \"contracts/TransparentUpgradeableProxy.sol\":2244:2349  function changeAdmin(address _newAdmin) external onlyAdmin {... */\n    tag_17:\n        /* \"contracts/TransparentUpgradeableProxy.sol\":412:442  ERC1967Utils.getAdminAddress() */\n      tag_29\n        /* \"contracts/TransparentUpgradeableProxy.sol\":412:440  ERC1967Utils.getAdminAddress */\n      tag_30\n        /* \"contracts/TransparentUpgradeableProxy.sol\":412:442  ERC1967Utils.getAdminAddress() */\n      jump\t// in\n    tag_29:\n        /* \"contracts/TransparentUpgradeableProxy.sol\":398:442  msg.sender != ERC1967Utils.getAdminAddress() */\n      0xffffffffffffffffffffffffffffffffffffffff\n      and\n        /* \"contracts/TransparentUpgradeableProxy.sol\":398:408  msg.sender */\n      caller\n        /* \"contracts/TransparentUpgradeableProxy.sol\":398:442  msg.sender != ERC1967Utils.getAdminAddress() */\n      0xffffffffffffffffffffffffffffffffffffffff\n      and\n      eq\n        /* \"contracts/TransparentUpgradeableProxy.sol\":394:517  if (msg.sender != ERC1967Utils.getAdminAddress()) {... */\n      tag_31\n      jumpi\n        /* \"contracts/TransparentUpgradeableProxy.sol\":465:506  NotAdminError(\"only admin can call this\") */\n      mload(0x40)\n      0x21f353dc00000000000000000000000000000000000000000000000000000000\n      dup2\n      mstore\n      0x04\n      add\n      tag_32\n      swap1\n      tag_33\n      jump\t// in\n    tag_32:\n      mload(0x40)\n      dup1\n      swap2\n      sub\n      swap1\n      revert\n        /* \"contracts/TransparentUpgradeableProxy.sol\":394:517  if (msg.sender != ERC1967Utils.getAdminAddress()) {... */\n    tag_31:\n        /* \"contracts/TransparentUpgradeableProxy.sol\":2313:2342  super._changeAdmin(_newAdmin) */\n      tag_35\n        /* \"contracts/TransparentUpgradeableProxy.sol\":2332:2341  _newAdmin */\n      dup2\n        /* \"contracts/TransparentUpgradeableProxy.sol\":2313:2331  super._changeAdmin */\n      tag_36\n        /* \"contracts/TransparentUpgradeableProxy.sol\":2313:2342  super._changeAdmin(_newAdmin) */\n      jump\t// in\n    tag_35:\n        /* \"contracts/TransparentUpgradeableProxy.sol\":2244:2349  function changeAdmin(address _newAdmin) external onlyAdmin {... */\n      pop\n      jump\t// out\n        /* \"contracts/TransparentUpgradeableProxy.sol\":1585:1732  function upgradeLogicAddress(address newLogicAddress, bytes memory data) external onlyAdmin {... */\n    tag_22:\n        /* \"contracts/TransparentUpgradeableProxy.sol\":412:442  ERC1967Utils.getAdminAddress() */\n      tag_38\n        /* \"contracts/TransparentUpgradeableProxy.sol\":412:440  ERC1967Utils.getAdminAddress */\n      tag_30\n        /* \"contracts/TransparentUpgradeableProxy.sol\":412:442  ERC1967Utils.getAdminAddress() */\n      jump\t// in\n    tag_38:\n        /* \"contracts/TransparentUpgradeableProxy.sol\":398:442  msg.sender != ERC1967Utils.getAdminAddress() */\n      0xffffffffffffffffffffffffffffffffffffffff\n      and\n        /* \"contracts/TransparentUpgradeableProxy.sol\":398:408  msg.sender */\n      caller\n        /* \"contracts/TransparentUpgradeableProxy.sol\":398:442  msg.sender != ERC1967Utils.getAdminAddress() */\n      0xffffffffffffffffffffffffffffffffffffffff\n      and\n      eq\n        /* \"contracts/TransparentUpgradeableProxy.sol\":394:517  if (msg.sender != ERC1967Utils.getAdminAddress()) {... */\n      tag_39\n      jumpi\n        /* \"contracts/TransparentUpgradeableProxy.sol\":465:506  NotAdminError(\"only admin can call this\") */\n      mload(0x40)\n      0x21f353dc00000000000000000000000000000000000000000000000000000000\n      dup2\n      mstore\n      0x04\n      add\n      tag_40\n      swap1\n      tag_33\n      jump\t// in\n    tag_40:\n      mload(0x40)\n      dup1\n      swap2\n      sub\n      swap1\n      revert\n        /* \"contracts/TransparentUpgradeableProxy.sol\":394:517  if (msg.sender != ERC1967Utils.getAdminAddress()) {... */\n    tag_39:\n        /* \"contracts/TransparentUpgradeableProxy.sol\":1687:1725  _upgradeAndCall(newLogicAddress, data) */\n      tag_42\n        /* \"contracts/TransparentUpgradeableProxy.sol\":1703:1718  newLogicAddress */\n      dup3\n        /* \"contracts/TransparentUpgradeableProxy.sol\":1720:1724  data */\n      dup3\n        /* \"contracts/TransparentUpgradeableProxy.sol\":1687:1702  _upgradeAndCall */\n      tag_43\n        /* \"contracts/TransparentUpgradeableProxy.sol\":1687:1725  _upgradeAndCall(newLogicAddress, data) */\n      jump\t// in\n    tag_42:\n        /* \"contracts/TransparentUpgradeableProxy.sol\":1585:1732  function upgradeLogicAddress(address newLogicAddress, bytes memory data) external onlyAdmin {... */\n      pop\n      pop\n      jump\t// out\n        /* \"contracts/ERC1967Utils.sol\":691:823  function getImplementationAddress() internal view returns(address) {... */\n    tag_26:\n        /* \"contracts/ERC1967Utils.sol\":749:756  address */\n      0x00\n        /* \"contracts/ERC1967Utils.sol\":775:810  getAddressSlot(IMPLEMENTATION_SLOT) */\n      tag_45\n        /* \"contracts/ERC1967Utils.sol\":574:640  0x360894a13ba1a3210667c828492db98dca3e2076cc3735a920a3ca505d382bbc */\n      0x360894a13ba1a3210667c828492db98dca3e2076cc3735a920a3ca505d382bbc\n        /* \"contracts/ERC1967Utils.sol\":790:809  IMPLEMENTATION_SLOT */\n      0x00\n      shl\n        /* \"contracts/ERC1967Utils.sol\":775:789  getAddressSlot */\n      tag_46\n        /* \"contracts/ERC1967Utils.sol\":775:810  getAddressSlot(IMPLEMENTATION_SLOT) */\n      jump\t// in\n    tag_45:\n        /* \"contracts/ERC1967Utils.sol\":775:816  getAddressSlot(IMPLEMENTATION_SLOT).value */\n      0x00\n      add\n      0x00\n      swap1\n      sload\n      swap1\n      0x0100\n      exp\n      swap1\n      div\n      0xffffffffffffffffffffffffffffffffffffffff\n      and\n        /* \"contracts/ERC1967Utils.sol\":768:816  return getAddressSlot(IMPLEMENTATION_SLOT).value */\n      swap1\n      pop\n        /* \"contracts/ERC1967Utils.sol\":691:823  function getImplementationAddress() internal view returns(address) {... */\n      swap1\n      jump\t// out\n        /* \"contracts/ERC1967Utils.sol\":2105:2991  function _delegate(address implementation) private {... */\n    tag_27:\n        /* \"contracts/ERC1967Utils.sol\":2434:2448  calldatasize() */\n      calldatasize\n        /* \"contracts/ERC1967Utils.sol\":2431:2432  0 */\n      0x00\n        /* \"contracts/ERC1967Utils.sol\":2428:2429  0 */\n      dup1\n        /* \"contracts/ERC1967Utils.sol\":2415:2449  calldatacopy(0, 0, calldatasize()) */\n      calldatacopy\n        /* \"contracts/ERC1967Utils.sol\":2648:2649  0 */\n      0x00\n        /* \"contracts/ERC1967Utils.sol\":2645:2646  0 */\n      dup1\n        /* \"contracts/ERC1967Utils.sol\":2629:2643  calldatasize() */\n      calldatasize\n        /* \"contracts/ERC1967Utils.sol\":2626:2627  0 */\n      0x00\n        /* \"contracts/ERC1967Utils.sol\":2610:2624  implementation */\n      dup5\n        /* \"contracts/ERC1967Utils.sol\":2603:2608  gas() */\n      gas\n        /* \"contracts/ERC1967Utils.sol\":2590:2650  delegatecall(gas(), implementation, 0, calldatasize(), 0, 0) */\n      delegatecall\n        /* \"contracts/ERC1967Utils.sol\":2724:2740  returndatasize() */\n      returndatasize\n        /* \"contracts/ERC1967Utils.sol\":2721:2722  0 */\n      0x00\n        /* \"contracts/ERC1967Utils.sol\":2718:2719  0 */\n      dup1\n        /* \"contracts/ERC1967Utils.sol\":2703:2741  returndatacopy(0, 0, returndatasize()) */\n      returndatacopy\n        /* \"contracts/ERC1967Utils.sol\":2762:2768  result */\n      dup1\n        /* \"contracts/ERC1967Utils.sol\":2834:2835  0 */\n      0x00\n        /* \"contracts/ERC1967Utils.sol\":2829:2895  case 0 {... */\n      dup2\n      eq\n      tag_49\n      jumpi\n        /* \"contracts/ERC1967Utils.sol\":2944:2960  returndatasize() */\n      returndatasize\n        /* \"contracts/ERC1967Utils.sol\":2941:2942  0 */\n      0x00\n        /* \"contracts/ERC1967Utils.sol\":2934:2961  return(0, returndatasize()) */\n      return\n        /* \"contracts/ERC1967Utils.sol\":2829:2895  case 0 {... */\n    tag_49:\n        /* \"contracts/ERC1967Utils.sol\":2864:2880  returndatasize() */\n      returndatasize\n        /* \"contracts/ERC1967Utils.sol\":2861:2862  0 */\n      0x00\n        /* \"contracts/ERC1967Utils.sol\":2854:2881  revert(0, returndatasize()) */\n      revert\n        /* \"contracts/ERC1967Utils.sol\":1398:1512  function getAdminAddress() internal view returns(address) {... */\n    tag_30:\n        /* \"contracts/ERC1967Utils.sol\":1447:1454  address */\n      0x00\n        /* \"contracts/ERC1967Utils.sol\":1473:1499  getAddressSlot(ADMIN_SLOT) */\n      tag_51\n        /* \"contracts/ERC1967Utils.sol\":1290:1356  0xb53127684a568b3173ae13b9f8a6016e243e63b6e8ee1178d6a717850b5d6103 */\n      0xb53127684a568b3173ae13b9f8a6016e243e63b6e8ee1178d6a717850b5d6103\n        /* \"contracts/ERC1967Utils.sol\":1488:1498  ADMIN_SLOT */\n      0x00\n      shl\n        /* \"contracts/ERC1967Utils.sol\":1473:1487  getAddressSlot */\n      tag_46\n        /* \"contracts/ERC1967Utils.sol\":1473:1499  getAddressSlot(ADMIN_SLOT) */\n      jump\t// in\n    tag_51:\n        /* \"contracts/ERC1967Utils.sol\":1473:1505  getAddressSlot(ADMIN_SLOT).value */\n      0x00\n      add\n      0x00\n      swap1\n      sload\n      swap1\n      0x0100\n      exp\n      swap1\n      div\n      0xffffffffffffffffffffffffffffffffffffffff\n      and\n        /* \"contracts/ERC1967Utils.sol\":1466:1505  return getAddressSlot(ADMIN_SLOT).value */\n      swap1\n      pop\n        /* \"contracts/ERC1967Utils.sol\":1398:1512  function getAdminAddress() internal view returns(address) {... */\n      swap1\n      jump\t// out\n        /* \"contracts/TransparentUpgradeableProxy.sol\":558:674  function _changeAdmin(address _newAdmin) internal onlyAdmin {... */\n    tag_36:\n        /* \"contracts/TransparentUpgradeableProxy.sol\":412:442  ERC1967Utils.getAdminAddress() */\n      tag_53\n        /* \"contracts/TransparentUpgradeableProxy.sol\":412:440  ERC1967Utils.getAdminAddress */\n      tag_30\n        /* \"contracts/TransparentUpgradeableProxy.sol\":412:442  ERC1967Utils.getAdminAddress() */\n      jump\t// in\n    tag_53:\n        /* \"contracts/TransparentUpgradeableProxy.sol\":398:442  msg.sender != ERC1967Utils.getAdminAddress() */\n      0xffffffffffffffffffffffffffffffffffffffff\n      and\n        /* \"contracts/TransparentUpgradeableProxy.sol\":398:408  msg.sender */\n      caller\n        /* \"contracts/TransparentUpgradeableProxy.sol\":398:442  msg.sender != ERC1967Utils.getAdminAddress() */\n      0xffffffffffffffffffffffffffffffffffffffff\n      and\n      eq\n        /* \"contracts/TransparentUpgradeableProxy.sol\":394:517  if (msg.sender != ERC1967Utils.getAdminAddress()) {... */\n      tag_54\n      jumpi\n        /* \"contracts/TransparentUpgradeableProxy.sol\":465:506  NotAdminError(\"only admin can call this\") */\n      mload(0x40)\n      0x21f353dc00000000000000000000000000000000000000000000000000000000\n      dup2\n      mstore\n      0x04\n      add\n      tag_55\n      swap1\n      tag_33\n      jump\t// in\n    tag_55:\n      mload(0x40)\n      dup1\n      swap2\n      sub\n      swap1\n      revert\n        /* \"contracts/TransparentUpgradeableProxy.sol\":394:517  if (msg.sender != ERC1967Utils.getAdminAddress()) {... */\n    tag_54:\n        /* \"contracts/TransparentUpgradeableProxy.sol\":628:667  ERC1967Utils.setAdminAddress(_newAdmin) */\n      tag_57\n        /* \"contracts/TransparentUpgradeableProxy.sol\":657:666  _newAdmin */\n      dup2\n        /* \"contracts/TransparentUpgradeableProxy.sol\":628:656  ERC1967Utils.setAdminAddress */\n      tag_58\n        /* \"contracts/TransparentUpgradeableProxy.sol\":628:667  ERC1967Utils.setAdminAddress(_newAdmin) */\n      jump\t// in\n    tag_57:\n        /* \"contracts/TransparentUpgradeableProxy.sol\":558:674  function _changeAdmin(address _newAdmin) internal onlyAdmin {... */\n      pop\n      jump\t// out\n        /* \"contracts/TransparentUpgradeableProxy.sol\":1737:2220  function _upgradeAndCall(address _address, bytes memory data) private {... */\n    tag_43:\n        /* \"contracts/TransparentUpgradeableProxy.sol\":1839:1840  0 */\n      0x00\n        /* \"contracts/TransparentUpgradeableProxy.sol\":1821:1841  _address==address(0) */\n      0xffffffffffffffffffffffffffffffffffffffff\n      and\n        /* \"contracts/TransparentUpgradeableProxy.sol\":1821:1829  _address */\n      dup3\n        /* \"contracts/TransparentUpgradeableProxy.sol\":1821:1841  _address==address(0) */\n      0xffffffffffffffffffffffffffffffffffffffff\n      and\n      sub\n        /* \"contracts/TransparentUpgradeableProxy.sol\":1817:1894  if (_address==address(0)) {... */\n      tag_60\n      jumpi\n        /* \"contracts/TransparentUpgradeableProxy.sol\":1864:1883  AddressEmptyError() */\n      mload(0x40)\n      0xae7c562200000000000000000000000000000000000000000000000000000000\n      dup2\n      mstore\n      0x04\n      add\n      mload(0x40)\n      dup1\n      swap2\n      sub\n      swap1\n      revert\n        /* \"contracts/TransparentUpgradeableProxy.sol\":1817:1894  if (_address==address(0)) {... */\n    tag_60:\n        /* \"contracts/TransparentUpgradeableProxy.sol\":1939:1986  ERC1967Utils.setImplementationAddress(_address) */\n      tag_61\n        /* \"contracts/TransparentUpgradeableProxy.sol\":1977:1985  _address */\n      dup3\n        /* \"contracts/TransparentUpgradeableProxy.sol\":1939:1976  ERC1967Utils.setImplementationAddress */\n      tag_62\n        /* \"contracts/TransparentUpgradeableProxy.sol\":1939:1986  ERC1967Utils.setImplementationAddress(_address) */\n      jump\t// in\n    tag_61:\n        /* \"contracts/TransparentUpgradeableProxy.sol\":2045:2046  0 */\n      0x00\n        /* \"contracts/TransparentUpgradeableProxy.sol\":2033:2037  data */\n      dup2\n        /* \"contracts/TransparentUpgradeableProxy.sol\":2033:2044  data.length */\n      mload\n        /* \"contracts/TransparentUpgradeableProxy.sol\":2033:2046  data.length>0 */\n      gt\n        /* \"contracts/TransparentUpgradeableProxy.sol\":2029:2214  if (data.length>0) {... */\n      iszero\n      tag_63\n      jumpi\n        /* \"contracts/TransparentUpgradeableProxy.sol\":2063:2075  bool success */\n      0x00\n        /* \"contracts/TransparentUpgradeableProxy.sol\":2076:2099  bytes memory resultData */\n      dup1\n        /* \"contracts/TransparentUpgradeableProxy.sol\":2103:2111  _address */\n      dup4\n        /* \"contracts/TransparentUpgradeableProxy.sol\":2103:2124  _address.delegatecall */\n      0xffffffffffffffffffffffffffffffffffffffff\n      and\n        /* \"contracts/TransparentUpgradeableProxy.sol\":2125:2129  data */\n      dup4\n        /* \"contracts/TransparentUpgradeableProxy.sol\":2103:2130  _address.delegatecall(data) */\n      mload(0x40)\n      tag_64\n      swap2\n      swap1\n      tag_65\n      jump\t// in\n    tag_64:\n      0x00\n      mload(0x40)\n      dup1\n      dup4\n      sub\n      dup2\n      dup6\n      gas\n      delegatecall\n      swap2\n      pop\n      pop\n      returndatasize\n      dup1\n      0x00\n      dup2\n      eq\n      tag_68\n      jumpi\n      mload(0x40)\n      swap2\n      pop\n      and(add(returndatasize, 0x3f), not(0x1f))\n      dup3\n      add\n      0x40\n      mstore\n      returndatasize\n      dup3\n      mstore\n      returndatasize\n      0x00\n      0x20\n      dup5\n      add\n      returndatacopy\n      jump(tag_67)\n    tag_68:\n      0x60\n      swap2\n      pop\n    tag_67:\n      pop\n        /* \"contracts/TransparentUpgradeableProxy.sol\":2062:2130  (bool success,bytes memory resultData) = _address.delegatecall(data) */\n      swap2\n      pop\n      swap2\n      pop\n        /* \"contracts/TransparentUpgradeableProxy.sol\":2167:2175  _address */\n      dup4\n        /* \"contracts/TransparentUpgradeableProxy.sol\":2149:2203  UpgradeAndCallLog(_address, data, success, resultData) */\n      0xffffffffffffffffffffffffffffffffffffffff\n      and\n      0x20423e22d1f0b31668780a7b6e52a7ad77a44c7dd910f738df5e2d06244fb559\n        /* \"contracts/TransparentUpgradeableProxy.sol\":2177:2181  data */\n      dup5\n        /* \"contracts/TransparentUpgradeableProxy.sol\":2183:2190  success */\n      dup5\n        /* \"contracts/TransparentUpgradeableProxy.sol\":2192:2202  resultData */\n      dup5\n        /* \"contracts/TransparentUpgradeableProxy.sol\":2149:2203  UpgradeAndCallLog(_address, data, success, resultData) */\n      mload(0x40)\n      tag_69\n      swap4\n      swap3\n      swap2\n      swap1\n      tag_70\n      jump\t// in\n    tag_69:\n      mload(0x40)\n      dup1\n      swap2\n      sub\n      swap1\n      log2\n        /* \"contracts/TransparentUpgradeableProxy.sol\":2048:2214  {... */\n      pop\n      pop\n        /* \"contracts/TransparentUpgradeableProxy.sol\":2029:2214  if (data.length>0) {... */\n    tag_63:\n        /* \"contracts/TransparentUpgradeableProxy.sol\":1737:2220  function _upgradeAndCall(address _address, bytes memory data) private {... */\n      pop\n      pop\n      jump\t// out\n        /* \"contracts/ERC1967Utils.sol\":1806:1969  function getAddressSlot(bytes32 slot) internal pure returns (AddressSlot storage r) {... */\n    tag_46:\n        /* \"contracts/ERC1967Utils.sol\":1867:1888  AddressSlot storage r */\n      0x00\n        /* \"contracts/ERC1967Utils.sol\":1949:1953  slot */\n      dup2\n        /* \"contracts/ERC1967Utils.sol\":1939:1953  r.slot := slot */\n      swap1\n      pop\n        /* \"contracts/ERC1967Utils.sol\":1806:1969  function getAddressSlot(bytes32 slot) internal pure returns (AddressSlot storage r) {... */\n      swap2\n      swap1\n      pop\n      jump\t// out\n        /* \"contracts/ERC1967Utils.sol\":1553:1675  function setAdminAddress(address _adminAddress) internal {... */\n    tag_58:\n        /* \"contracts/ERC1967Utils.sol\":1655:1668  _adminAddress */\n      dup1\n        /* \"contracts/ERC1967Utils.sol\":1620:1646  getAddressSlot(ADMIN_SLOT) */\n      tag_73\n        /* \"contracts/ERC1967Utils.sol\":1290:1356  0xb53127684a568b3173ae13b9f8a6016e243e63b6e8ee1178d6a717850b5d6103 */\n      0xb53127684a568b3173ae13b9f8a6016e243e63b6e8ee1178d6a717850b5d6103\n        /* \"contracts/ERC1967Utils.sol\":1635:1645  ADMIN_SLOT */\n      0x00\n      shl\n        /* \"contracts/ERC1967Utils.sol\":1620:1634  getAddressSlot */\n      tag_46\n        /* \"contracts/ERC1967Utils.sol\":1620:1646  getAddressSlot(ADMIN_SLOT) */\n      jump\t// in\n    tag_73:\n        /* \"contracts/ERC1967Utils.sol\":1620:1652  getAddressSlot(ADMIN_SLOT).value */\n      0x00\n      add\n      0x00\n        /* \"contracts/ERC1967Utils.sol\":1620:1668  getAddressSlot(ADMIN_SLOT).value = _adminAddress */\n      0x0100\n      exp\n      dup2\n      sload\n      dup2\n      0xffffffffffffffffffffffffffffffffffffffff\n      mul\n      not\n      and\n      swap1\n      dup4\n      0xffffffffffffffffffffffffffffffffffffffff\n      and\n      mul\n      or\n      swap1\n      sstore\n      pop\n        /* \"contracts/ERC1967Utils.sol\":1553:1675  function setAdminAddress(address _adminAddress) internal {... */\n      pop\n      jump\t// out\n        /* \"contracts/ERC1967Utils.sol\":873:1031  function setImplementationAddress(address _implementationAddress) internal {... */\n    tag_62:\n        /* \"contracts/ERC1967Utils.sol\":1002:1024  _implementationAddress */\n      dup1\n        /* \"contracts/ERC1967Utils.sol\":958:993  getAddressSlot(IMPLEMENTATION_SLOT) */\n      tag_75\n        /* \"contracts/ERC1967Utils.sol\":574:640  0x360894a13ba1a3210667c828492db98dca3e2076cc3735a920a3ca505d382bbc */\n      0x360894a13ba1a3210667c828492db98dca3e2076cc3735a920a3ca505d382bbc\n        /* \"contracts/ERC1967Utils.sol\":973:992  IMPLEMENTATION_SLOT */\n      0x00\n      shl\n        /* \"contracts/ERC1967Utils.sol\":958:972  getAddressSlot */\n      tag_46\n        /* \"contracts/ERC1967Utils.sol\":958:993  getAddressSlot(IMPLEMENTATION_SLOT) */\n      jump\t// in\n    tag_75:\n        /* \"contracts/ERC1967Utils.sol\":958:999  getAddressSlot(IMPLEMENTATION_SLOT).value */\n      0x00\n      add\n      0x00\n        /* \"contracts/ERC1967Utils.sol\":958:1024  getAddressSlot(IMPLEMENTATION_SLOT).value = _implementationAddress */\n      0x0100\n      exp\n      dup2\n      sload\n      dup2\n      0xffffffffffffffffffffffffffffffffffffffff\n      mul\n      not\n      and\n      swap1\n      dup4\n      0xffffffffffffffffffffffffffffffffffffffff\n      and\n      mul\n      or\n      swap1\n      sstore\n      pop\n        /* \"contracts/ERC1967Utils.sol\":873:1031  function setImplementationAddress(address _implementationAddress) internal {... */\n      pop\n      jump\t// out\n        /* \"#utility.yul\":7:175   */\n    tag_76:\n        /* \"#utility.yul\":90:101   */\n      0x00\n        /* \"#utility.yul\":124:130   */\n      dup3\n        /* \"#utility.yul\":119:122   */\n      dup3\n        /* \"#utility.yul\":112:131   */\n      mstore\n        /* \"#utility.yul\":164:168   */\n      0x20\n        /* \"#utility.yul\":159:162   */\n      dup3\n        /* \"#utility.yul\":155:169   */\n      add\n        /* \"#utility.yul\":140:169   */\n      swap1\n      pop\n        /* \"#utility.yul\":7:175   */\n      swap3\n      swap2\n      pop\n      pop\n      jump\t// out\n        /* \"#utility.yul\":181:329   */\n    tag_77:\n        /* \"#utility.yul\":279:285   */\n      dup3\n        /* \"#utility.yul\":274:277   */\n      dup2\n        /* \"#utility.yul\":269:272   */\n      dup4\n        /* \"#utility.yul\":256:286   */\n      calldatacopy\n        /* \"#utility.yul\":320:321   */\n      0x00\n        /* \"#utility.yul\":311:317   */\n      dup4\n        /* \"#utility.yul\":306:309   */\n      dup4\n        /* \"#utility.yul\":302:318   */\n      add\n        /* \"#utility.yul\":295:322   */\n      mstore\n        /* \"#utility.yul\":181:329   */\n      pop\n      pop\n      pop\n      jump\t// out\n        /* \"#utility.yul\":335:437   */\n    tag_78:\n        /* \"#utility.yul\":376:382   */\n      0x00\n        /* \"#utility.yul\":427:429   */\n      0x1f\n        /* \"#utility.yul\":423:430   */\n      not\n        /* \"#utility.yul\":418:420   */\n      0x1f\n        /* \"#utility.yul\":411:416   */\n      dup4\n        /* \"#utility.yul\":407:421   */\n      add\n        /* \"#utility.yul\":403:431   */\n      and\n        /* \"#utility.yul\":393:431   */\n      swap1\n      pop\n        /* \"#utility.yul\":335:437   */\n      swap2\n      swap1\n      pop\n      jump\t// out\n        /* \"#utility.yul\":465:779   */\n    tag_79:\n        /* \"#utility.yul\":561:564   */\n      0x00\n        /* \"#utility.yul\":582:652   */\n      tag_110\n        /* \"#utility.yul\":645:651   */\n      dup4\n        /* \"#utility.yul\":640:643   */\n      dup6\n        /* \"#utility.yul\":582:652   */\n      tag_76\n      jump\t// in\n    tag_110:\n        /* \"#utility.yul\":575:652   */\n      swap4\n      pop\n        /* \"#utility.yul\":662:718   */\n      tag_111\n        /* \"#utility.yul\":711:717   */\n      dup4\n        /* \"#utility.yul\":706:709   */\n      dup6\n        /* \"#utility.yul\":699:704   */\n      dup5\n        /* \"#utility.yul\":662:718   */\n      tag_77\n      jump\t// in\n    tag_111:\n        /* \"#utility.yul\":743:772   */\n      tag_112\n        /* \"#utility.yul\":765:771   */\n      dup4\n        /* \"#utility.yul\":743:772   */\n      tag_78\n      jump\t// in\n    tag_112:\n        /* \"#utility.yul\":738:741   */\n      dup5\n        /* \"#utility.yul\":734:773   */\n      add\n        /* \"#utility.yul\":727:773   */\n      swap1\n      pop\n        /* \"#utility.yul\":465:779   */\n      swap4\n      swap3\n      pop\n      pop\n      pop\n      jump\t// out\n        /* \"#utility.yul\":785:1114   */\n    tag_10:\n        /* \"#utility.yul\":906:910   */\n      0x00\n        /* \"#utility.yul\":944:946   */\n      0x20\n        /* \"#utility.yul\":933:942   */\n      dup3\n        /* \"#utility.yul\":929:947   */\n      add\n        /* \"#utility.yul\":921:947   */\n      swap1\n      pop\n        /* \"#utility.yul\":993:1002   */\n      dup2\n        /* \"#utility.yul\":987:991   */\n      dup2\n        /* \"#utility.yul\":983:1003   */\n      sub\n        /* \"#utility.yul\":979:980   */\n      0x00\n        /* \"#utility.yul\":968:977   */\n      dup4\n        /* \"#utility.yul\":964:981   */\n      add\n        /* \"#utility.yul\":957:1004   */\n      mstore\n        /* \"#utility.yul\":1021:1107   */\n      tag_114\n        /* \"#utility.yul\":1102:1106   */\n      dup2\n        /* \"#utility.yul\":1093:1099   */\n      dup5\n        /* \"#utility.yul\":1085:1091   */\n      dup7\n        /* \"#utility.yul\":1021:1107   */\n      tag_79\n      jump\t// in\n    tag_114:\n        /* \"#utility.yul\":1013:1107   */\n      swap1\n      pop\n        /* \"#utility.yul\":785:1114   */\n      swap4\n      swap3\n      pop\n      pop\n      pop\n      jump\t// out\n        /* \"#utility.yul\":1120:1195   */\n    tag_80:\n        /* \"#utility.yul\":1153:1159   */\n      0x00\n        /* \"#utility.yul\":1186:1188   */\n      0x40\n        /* \"#utility.yul\":1180:1189   */\n      mload\n        /* \"#utility.yul\":1170:1189   */\n      swap1\n      pop\n        /* \"#utility.yul\":1120:1195   */\n      swap1\n      jump\t// out\n        /* \"#utility.yul\":1201:1318   */\n    tag_81:\n        /* \"#utility.yul\":1310:1311   */\n      0x00\n        /* \"#utility.yul\":1307:1308   */\n      dup1\n        /* \"#utility.yul\":1300:1312   */\n      revert\n        /* \"#utility.yul\":1324:1441   */\n    tag_82:\n        /* \"#utility.yul\":1433:1434   */\n      0x00\n        /* \"#utility.yul\":1430:1431   */\n      dup1\n        /* \"#utility.yul\":1423:1435   */\n      revert\n        /* \"#utility.yul\":1447:1573   */\n    tag_83:\n        /* \"#utility.yul\":1484:1491   */\n      0x00\n        /* \"#utility.yul\":1524:1566   */\n      0xffffffffffffffffffffffffffffffffffffffff\n        /* \"#utility.yul\":1517:1522   */\n      dup3\n        /* \"#utility.yul\":1513:1567   */\n      and\n        /* \"#utility.yul\":1502:1567   */\n      swap1\n      pop\n        /* \"#utility.yul\":1447:1573   */\n      swap2\n      swap1\n      pop\n      jump\t// out\n        /* \"#utility.yul\":1579:1675   */\n    tag_84:\n        /* \"#utility.yul\":1616:1623   */\n      0x00\n        /* \"#utility.yul\":1645:1669   */\n      tag_120\n        /* \"#utility.yul\":1663:1668   */\n      dup3\n        /* \"#utility.yul\":1645:1669   */\n      tag_83\n      jump\t// in\n    tag_120:\n        /* \"#utility.yul\":1634:1669   */\n      swap1\n      pop\n        /* \"#utility.yul\":1579:1675   */\n      swap2\n      swap1\n      pop\n      jump\t// out\n        /* \"#utility.yul\":1681:1803   */\n    tag_85:\n        /* \"#utility.yul\":1754:1778   */\n      tag_122\n        /* \"#utility.yul\":1772:1777   */\n      dup2\n        /* \"#utility.yul\":1754:1778   */\n      tag_84\n      jump\t// in\n    tag_122:\n        /* \"#utility.yul\":1747:1752   */\n      dup2\n        /* \"#utility.yul\":1744:1779   */\n      eq\n        /* \"#utility.yul\":1734:1797   */\n      tag_123\n      jumpi\n        /* \"#utility.yul\":1793:1794   */\n      0x00\n        /* \"#utility.yul\":1790:1791   */\n      dup1\n        /* \"#utility.yul\":1783:1795   */\n      revert\n        /* \"#utility.yul\":1734:1797   */\n    tag_123:\n        /* \"#utility.yul\":1681:1803   */\n      pop\n      jump\t// out\n        /* \"#utility.yul\":1809:1948   */\n    tag_86:\n        /* \"#utility.yul\":1855:1860   */\n      0x00\n        /* \"#utility.yul\":1893:1899   */\n      dup2\n        /* \"#utility.yul\":1880:1900   */\n      calldataload\n        /* \"#utility.yul\":1871:1900   */\n      swap1\n      pop\n        /* \"#utility.yul\":1909:1942   */\n      tag_125\n        /* \"#utility.yul\":1936:1941   */\n      dup2\n        /* \"#utility.yul\":1909:1942   */\n      tag_85\n      jump\t// in\n    tag_125:\n        /* \"#utility.yul\":1809:1948   */\n      swap3\n      swap2\n      pop\n      pop\n      jump\t// out\n        /* \"#utility.yul\":1954:2283   */\n    tag_16:\n        /* \"#utility.yul\":2013:2019   */\n      0x00\n        /* \"#utility.yul\":2062:2064   */\n      0x20\n        /* \"#utility.yul\":2050:2059   */\n      dup3\n        /* \"#utility.yul\":2041:2048   */\n      dup5\n        /* \"#utility.yul\":2037:2060   */\n      sub\n        /* \"#utility.yul\":2033:2065   */\n      slt\n        /* \"#utility.yul\":2030:2149   */\n      iszero\n      tag_127\n      jumpi\n        /* \"#utility.yul\":2068:2147   */\n      tag_128\n      tag_81\n      jump\t// in\n    tag_128:\n        /* \"#utility.yul\":2030:2149   */\n    tag_127:\n        /* \"#utility.yul\":2188:2189   */\n      0x00\n        /* \"#utility.yul\":2213:2266   */\n      tag_129\n        /* \"#utility.yul\":2258:2265   */\n      dup5\n        /* \"#utility.yul\":2249:2255   */\n      dup3\n        /* \"#utility.yul\":2238:2247   */\n      dup6\n        /* \"#utility.yul\":2234:2256   */\n      add\n        /* \"#utility.yul\":2213:2266   */\n      tag_86\n      jump\t// in\n    tag_129:\n        /* \"#utility.yul\":2203:2266   */\n      swap2\n      pop\n        /* \"#utility.yul\":2159:2276   */\n      pop\n        /* \"#utility.yul\":1954:2283   */\n      swap3\n      swap2\n      pop\n      pop\n      jump\t// out\n        /* \"#utility.yul\":2289:2406   */\n    tag_87:\n        /* \"#utility.yul\":2398:2399   */\n      0x00\n        /* \"#utility.yul\":2395:2396   */\n      dup1\n        /* \"#utility.yul\":2388:2400   */\n      revert\n        /* \"#utility.yul\":2412:2529   */\n    tag_88:\n        /* \"#utility.yul\":2521:2522   */\n      0x00\n        /* \"#utility.yul\":2518:2519   */\n      dup1\n        /* \"#utility.yul\":2511:2523   */\n      revert\n        /* \"#utility.yul\":2535:2715   */\n    tag_89:\n        /* \"#utility.yul\":2583:2660   */\n      0x4e487b7100000000000000000000000000000000000000000000000000000000\n        /* \"#utility.yul\":2580:2581   */\n      0x00\n        /* \"#utility.yul\":2573:2661   */\n      mstore\n        /* \"#utility.yul\":2680:2684   */\n      0x41\n        /* \"#utility.yul\":2677:2678   */\n      0x04\n        /* \"#utility.yul\":2670:2685   */\n      mstore\n        /* \"#utility.yul\":2704:2708   */\n      0x24\n        /* \"#utility.yul\":2701:2702   */\n      0x00\n        /* \"#utility.yul\":2694:2709   */\n      revert\n        /* \"#utility.yul\":2721:3002   */\n    tag_90:\n        /* \"#utility.yul\":2804:2831   */\n      tag_134\n        /* \"#utility.yul\":2826:2830   */\n      dup3\n        /* \"#utility.yul\":2804:2831   */\n      tag_78\n      jump\t// in\n    tag_134:\n        /* \"#utility.yul\":2796:2802   */\n      dup2\n        /* \"#utility.yul\":2792:2832   */\n      add\n        /* \"#utility.yul\":2934:2940   */\n      dup2\n        /* \"#utility.yul\":2922:2932   */\n      dup2\n        /* \"#utility.yul\":2919:2941   */\n      lt\n        /* \"#utility.yul\":2898:2916   */\n      0xffffffffffffffff\n        /* \"#utility.yul\":2886:2896   */\n      dup3\n        /* \"#utility.yul\":2883:2917   */\n      gt\n        /* \"#utility.yul\":2880:2942   */\n      or\n        /* \"#utility.yul\":2877:2965   */\n      iszero\n      tag_135\n      jumpi\n        /* \"#utility.yul\":2945:2963   */\n      tag_136\n      tag_89\n      jump\t// in\n    tag_136:\n        /* \"#utility.yul\":2877:2965   */\n    tag_135:\n        /* \"#utility.yul\":2985:2995   */\n      dup1\n        /* \"#utility.yul\":2981:2983   */\n      0x40\n        /* \"#utility.yul\":2974:2996   */\n      mstore\n        /* \"#utility.yul\":2764:3002   */\n      pop\n        /* \"#utility.yul\":2721:3002   */\n      pop\n      pop\n      jump\t// out\n        /* \"#utility.yul\":3008:3137   */\n    tag_91:\n        /* \"#utility.yul\":3042:3048   */\n      0x00\n        /* \"#utility.yul\":3069:3089   */\n      tag_138\n      tag_80\n      jump\t// in\n    tag_138:\n        /* \"#utility.yul\":3059:3089   */\n      swap1\n      pop\n        /* \"#utility.yul\":3098:3131   */\n      tag_139\n        /* \"#utility.yul\":3126:3130   */\n      dup3\n        /* \"#utility.yul\":3118:3124   */\n      dup3\n        /* \"#utility.yul\":3098:3131   */\n      tag_90\n      jump\t// in\n    tag_139:\n        /* \"#utility.yul\":3008:3137   */\n      swap2\n      swap1\n      pop\n      jump\t// out\n        /* \"#utility.yul\":3143:3450   */\n    tag_92:\n        /* \"#utility.yul\":3204:3208   */\n      0x00\n        /* \"#utility.yul\":3294:3312   */\n      0xffffffffffffffff\n        /* \"#utility.yul\":3286:3292   */\n      dup3\n        /* \"#utility.yul\":3283:3313   */\n      gt\n        /* \"#utility.yul\":3280:3336   */\n      iszero\n      tag_141\n      jumpi\n        /* \"#utility.yul\":3316:3334   */\n      tag_142\n      tag_89\n      jump\t// in\n    tag_142:\n        /* \"#utility.yul\":3280:3336   */\n    tag_141:\n        /* \"#utility.yul\":3354:3383   */\n      tag_143\n        /* \"#utility.yul\":3376:3382   */\n      dup3\n        /* \"#utility.yul\":3354:3383   */\n      tag_78\n      jump\t// in\n    tag_143:\n        /* \"#utility.yul\":3346:3383   */\n      swap1\n      pop\n        /* \"#utility.yul\":3438:3442   */\n      0x20\n        /* \"#utility.yul\":3432:3436   */\n      dup2\n        /* \"#utility.yul\":3428:3443   */\n      add\n        /* \"#utility.yul\":3420:3443   */\n      swap1\n      pop\n        /* \"#utility.yul\":3143:3450   */\n      swap2\n      swap1\n      pop\n      jump\t// out\n        /* \"#utility.yul\":3456:3879   */\n    tag_93:\n        /* \"#utility.yul\":3533:3538   */\n      0x00\n        /* \"#utility.yul\":3558:3623   */\n      tag_145\n        /* \"#utility.yul\":3574:3622   */\n      tag_146\n        /* \"#utility.yul\":3615:3621   */\n      dup5\n        /* \"#utility.yul\":3574:3622   */\n      tag_92\n      jump\t// in\n    tag_146:\n        /* \"#utility.yul\":3558:3623   */\n      tag_91\n      jump\t// in\n    tag_145:\n        /* \"#utility.yul\":3549:3623   */\n      swap1\n      pop\n        /* \"#utility.yul\":3646:3652   */\n      dup3\n        /* \"#utility.yul\":3639:3644   */\n      dup2\n        /* \"#utility.yul\":3632:3653   */\n      mstore\n        /* \"#utility.yul\":3684:3688   */\n      0x20\n        /* \"#utility.yul\":3677:3682   */\n      dup2\n        /* \"#utility.yul\":3673:3689   */\n      add\n        /* \"#utility.yul\":3722:3725   */\n      dup5\n        /* \"#utility.yul\":3713:3719   */\n      dup5\n        /* \"#utility.yul\":3708:3711   */\n      dup5\n        /* \"#utility.yul\":3704:3720   */\n      add\n        /* \"#utility.yul\":3701:3726   */\n      gt\n        /* \"#utility.yul\":3698:3810   */\n      iszero\n      tag_147\n      jumpi\n        /* \"#utility.yul\":3729:3808   */\n      tag_148\n      tag_88\n      jump\t// in\n    tag_148:\n        /* \"#utility.yul\":3698:3810   */\n    tag_147:\n        /* \"#utility.yul\":3819:3873   */\n      tag_149\n        /* \"#utility.yul\":3866:3872   */\n      dup5\n        /* \"#utility.yul\":3861:3864   */\n      dup3\n        /* \"#utility.yul\":3856:3859   */\n      dup6\n        /* \"#utility.yul\":3819:3873   */\n      tag_77\n      jump\t// in\n    tag_149:\n        /* \"#utility.yul\":3539:3879   */\n      pop\n        /* \"#utility.yul\":3456:3879   */\n      swap4\n      swap3\n      pop\n      pop\n      pop\n      jump\t// out\n        /* \"#utility.yul\":3898:4236   */\n    tag_94:\n        /* \"#utility.yul\":3953:3958   */\n      0x00\n        /* \"#utility.yul\":4002:4005   */\n      dup3\n        /* \"#utility.yul\":3995:3999   */\n      0x1f\n        /* \"#utility.yul\":3987:3993   */\n      dup4\n        /* \"#utility.yul\":3983:4000   */\n      add\n        /* \"#utility.yul\":3979:4006   */\n      slt\n        /* \"#utility.yul\":3969:4091   */\n      tag_151\n      jumpi\n        /* \"#utility.yul\":4010:4089   */\n      tag_152\n      tag_87\n      jump\t// in\n    tag_152:\n        /* \"#utility.yul\":3969:4091   */\n    tag_151:\n        /* \"#utility.yul\":4127:4133   */\n      dup2\n        /* \"#utility.yul\":4114:4134   */\n      calldataload\n        /* \"#utility.yul\":4152:4230   */\n      tag_153\n        /* \"#utility.yul\":4226:4229   */\n      dup5\n        /* \"#utility.yul\":4218:4224   */\n      dup3\n        /* \"#utility.yul\":4211:4215   */\n      0x20\n        /* \"#utility.yul\":4203:4209   */\n      dup7\n        /* \"#utility.yul\":4199:4216   */\n      add\n        /* \"#utility.yul\":4152:4230   */\n      tag_93\n      jump\t// in\n    tag_153:\n        /* \"#utility.yul\":4143:4230   */\n      swap2\n      pop\n        /* \"#utility.yul\":3959:4236   */\n      pop\n        /* \"#utility.yul\":3898:4236   */\n      swap3\n      swap2\n      pop\n      pop\n      jump\t// out\n        /* \"#utility.yul\":4242:4894   */\n    tag_21:\n        /* \"#utility.yul\":4319:4325   */\n      0x00\n        /* \"#utility.yul\":4327:4333   */\n      dup1\n        /* \"#utility.yul\":4376:4378   */\n      0x40\n        /* \"#utility.yul\":4364:4373   */\n      dup4\n        /* \"#utility.yul\":4355:4362   */\n      dup6\n        /* \"#utility.yul\":4351:4374   */\n      sub\n        /* \"#utility.yul\":4347:4379   */\n      slt\n        /* \"#utility.yul\":4344:4463   */\n      iszero\n      tag_155\n      jumpi\n        /* \"#utility.yul\":4382:4461   */\n      tag_156\n      tag_81\n      jump\t// in\n    tag_156:\n        /* \"#utility.yul\":4344:4463   */\n    tag_155:\n        /* \"#utility.yul\":4502:4503   */\n      0x00\n        /* \"#utility.yul\":4527:4580   */\n      tag_157\n        /* \"#utility.yul\":4572:4579   */\n      dup6\n        /* \"#utility.yul\":4563:4569   */\n      dup3\n        /* \"#utility.yul\":4552:4561   */\n      dup7\n        /* \"#utility.yul\":4548:4570   */\n      add\n        /* \"#utility.yul\":4527:4580   */\n      tag_86\n      jump\t// in\n    tag_157:\n        /* \"#utility.yul\":4517:4580   */\n      swap3\n      pop\n        /* \"#utility.yul\":4473:4590   */\n      pop\n        /* \"#utility.yul\":4657:4659   */\n      0x20\n        /* \"#utility.yul\":4646:4655   */\n      dup4\n        /* \"#utility.yul\":4642:4660   */\n      add\n        /* \"#utility.yul\":4629:4661   */\n      calldataload\n        /* \"#utility.yul\":4688:4706   */\n      0xffffffffffffffff\n        /* \"#utility.yul\":4680:4686   */\n      dup2\n        /* \"#utility.yul\":4677:4707   */\n      gt\n        /* \"#utility.yul\":4674:4791   */\n      iszero\n      tag_158\n      jumpi\n        /* \"#utility.yul\":4710:4789   */\n      tag_159\n      tag_82\n      jump\t// in\n    tag_159:\n        /* \"#utility.yul\":4674:4791   */\n    tag_158:\n        /* \"#utility.yul\":4815:4877   */\n      tag_160\n        /* \"#utility.yul\":4869:4876   */\n      dup6\n        /* \"#utility.yul\":4860:4866   */\n      dup3\n        /* \"#utility.yul\":4849:4858   */\n      dup7\n        /* \"#utility.yul\":4845:4867   */\n      add\n        /* \"#utility.yul\":4815:4877   */\n      tag_94\n      jump\t// in\n    tag_160:\n        /* \"#utility.yul\":4805:4877   */\n      swap2\n      pop\n        /* \"#utility.yul\":4600:4887   */\n      pop\n        /* \"#utility.yul\":4242:4894   */\n      swap3\n      pop\n      swap3\n      swap1\n      pop\n      jump\t// out\n        /* \"#utility.yul\":4900:5069   */\n    tag_95:\n        /* \"#utility.yul\":4984:4995   */\n      0x00\n        /* \"#utility.yul\":5018:5024   */\n      dup3\n        /* \"#utility.yul\":5013:5016   */\n      dup3\n        /* \"#utility.yul\":5006:5025   */\n      mstore\n        /* \"#utility.yul\":5058:5062   */\n      0x20\n        /* \"#utility.yul\":5053:5056   */\n      dup3\n        /* \"#utility.yul\":5049:5063   */\n      add\n        /* \"#utility.yul\":5034:5063   */\n      swap1\n      pop\n        /* \"#utility.yul\":4900:5069   */\n      swap3\n      swap2\n      pop\n      pop\n      jump\t// out\n        /* \"#utility.yul\":5075:5249   */\n    tag_96:\n        /* \"#utility.yul\":5215:5241   */\n      0x6f6e6c792061646d696e2063616e2063616c6c20746869730000000000000000\n        /* \"#utility.yul\":5211:5212   */\n      0x00\n        /* \"#utility.yul\":5203:5209   */\n      dup3\n        /* \"#utility.yul\":5199:5213   */\n      add\n        /* \"#utility.yul\":5192:5242   */\n      mstore\n        /* \"#utility.yul\":5075:5249   */\n      pop\n      jump\t// out\n        /* \"#utility.yul\":5255:5621   */\n    tag_97:\n        /* \"#utility.yul\":5397:5400   */\n      0x00\n        /* \"#utility.yul\":5418:5485   */\n      tag_164\n        /* \"#utility.yul\":5482:5484   */\n      0x18\n        /* \"#utility.yul\":5477:5480   */\n      dup4\n        /* \"#utility.yul\":5418:5485   */\n      tag_95\n      jump\t// in\n    tag_164:\n        /* \"#utility.yul\":5411:5485   */\n      swap2\n      pop\n        /* \"#utility.yul\":5494:5587   */\n      tag_165\n        /* \"#utility.yul\":5583:5586   */\n      dup3\n        /* \"#utility.yul\":5494:5587   */\n      tag_96\n      jump\t// in\n    tag_165:\n        /* \"#utility.yul\":5612:5614   */\n      0x20\n        /* \"#utility.yul\":5607:5610   */\n      dup3\n        /* \"#utility.yul\":5603:5615   */\n      add\n        /* \"#utility.yul\":5596:5615   */\n      swap1\n      pop\n        /* \"#utility.yul\":5255:5621   */\n      swap2\n      swap1\n      pop\n      jump\t// out\n        /* \"#utility.yul\":5627:6046   */\n    tag_33:\n        /* \"#utility.yul\":5793:5797   */\n      0x00\n        /* \"#utility.yul\":5831:5833   */\n      0x20\n        /* \"#utility.yul\":5820:5829   */\n      dup3\n        /* \"#utility.yul\":5816:5834   */\n      add\n        /* \"#utility.yul\":5808:5834   */\n      swap1\n      pop\n        /* \"#utility.yul\":5880:5889   */\n      dup2\n        /* \"#utility.yul\":5874:5878   */\n      dup2\n        /* \"#utility.yul\":5870:5890   */\n      sub\n        /* \"#utility.yul\":5866:5867   */\n      0x00\n        /* \"#utility.yul\":5855:5864   */\n      dup4\n        /* \"#utility.yul\":5851:5868   */\n      add\n        /* \"#utility.yul\":5844:5891   */\n      mstore\n        /* \"#utility.yul\":5908:6039   */\n      tag_167\n        /* \"#utility.yul\":6034:6038   */\n      dup2\n        /* \"#utility.yul\":5908:6039   */\n      tag_97\n      jump\t// in\n    tag_167:\n        /* \"#utility.yul\":5900:6039   */\n      swap1\n      pop\n        /* \"#utility.yul\":5627:6046   */\n      swap2\n      swap1\n      pop\n      jump\t// out\n        /* \"#utility.yul\":6052:6150   */\n    tag_98:\n        /* \"#utility.yul\":6103:6109   */\n      0x00\n        /* \"#utility.yul\":6137:6142   */\n      dup2\n        /* \"#utility.yul\":6131:6143   */\n      mload\n        /* \"#utility.yul\":6121:6143   */\n      swap1\n      pop\n        /* \"#utility.yul\":6052:6150   */\n      swap2\n      swap1\n      pop\n      jump\t// out\n        /* \"#utility.yul\":6156:6303   */\n    tag_99:\n        /* \"#utility.yul\":6257:6268   */\n      0x00\n        /* \"#utility.yul\":6294:6297   */\n      dup2\n        /* \"#utility.yul\":6279:6297   */\n      swap1\n      pop\n        /* \"#utility.yul\":6156:6303   */\n      swap3\n      swap2\n      pop\n      pop\n      jump\t// out\n        /* \"#utility.yul\":6309:6448   */\n    tag_100:\n        /* \"#utility.yul\":6398:6404   */\n      dup3\n        /* \"#utility.yul\":6393:6396   */\n      dup2\n        /* \"#utility.yul\":6388:6391   */\n      dup4\n        /* \"#utility.yul\":6382:6405   */\n      mcopy\n        /* \"#utility.yul\":6439:6440   */\n      0x00\n        /* \"#utility.yul\":6430:6436   */\n      dup4\n        /* \"#utility.yul\":6425:6428   */\n      dup4\n        /* \"#utility.yul\":6421:6437   */\n      add\n        /* \"#utility.yul\":6414:6441   */\n      mstore\n        /* \"#utility.yul\":6309:6448   */\n      pop\n      pop\n      pop\n      jump\t// out\n        /* \"#utility.yul\":6454:6840   */\n    tag_101:\n        /* \"#utility.yul\":6558:6561   */\n      0x00\n        /* \"#utility.yul\":6586:6624   */\n      tag_172\n        /* \"#utility.yul\":6618:6623   */\n      dup3\n        /* \"#utility.yul\":6586:6624   */\n      tag_98\n      jump\t// in\n    tag_172:\n        /* \"#utility.yul\":6640:6728   */\n      tag_173\n        /* \"#utility.yul\":6721:6727   */\n      dup2\n        /* \"#utility.yul\":6716:6719   */\n      dup6\n        /* \"#utility.yul\":6640:6728   */\n      tag_99\n      jump\t// in\n    tag_173:\n        /* \"#utility.yul\":6633:6728   */\n      swap4\n      pop\n        /* \"#utility.yul\":6737:6802   */\n      tag_174\n        /* \"#utility.yul\":6795:6801   */\n      dup2\n        /* \"#utility.yul\":6790:6793   */\n      dup6\n        /* \"#utility.yul\":6783:6787   */\n      0x20\n        /* \"#utility.yul\":6776:6781   */\n      dup7\n        /* \"#utility.yul\":6772:6788   */\n      add\n        /* \"#utility.yul\":6737:6802   */\n      tag_100\n      jump\t// in\n    tag_174:\n        /* \"#utility.yul\":6827:6833   */\n      dup1\n        /* \"#utility.yul\":6822:6825   */\n      dup5\n        /* \"#utility.yul\":6818:6834   */\n      add\n        /* \"#utility.yul\":6811:6834   */\n      swap2\n      pop\n        /* \"#utility.yul\":6562:6840   */\n      pop\n        /* \"#utility.yul\":6454:6840   */\n      swap3\n      swap2\n      pop\n      pop\n      jump\t// out\n        /* \"#utility.yul\":6846:7117   */\n    tag_65:\n        /* \"#utility.yul\":6976:6979   */\n      0x00\n        /* \"#utility.yul\":6998:7091   */\n      tag_176\n        /* \"#utility.yul\":7087:7090   */\n      dup3\n        /* \"#utility.yul\":7078:7084   */\n      dup5\n        /* \"#utility.yul\":6998:7091   */\n      tag_101\n      jump\t// in\n    tag_176:\n        /* \"#utility.yul\":6991:7091   */\n      swap2\n      pop\n        /* \"#utility.yul\":7108:7111   */\n      dup2\n        /* \"#utility.yul\":7101:7111   */\n      swap1\n      pop\n        /* \"#utility.yul\":6846:7117   */\n      swap3\n      swap2\n      pop\n      pop\n      jump\t// out\n        /* \"#utility.yul\":7123:7496   */\n    tag_102:\n        /* \"#utility.yul\":7209:7212   */\n      0x00\n        /* \"#utility.yul\":7237:7275   */\n      tag_178\n        /* \"#utility.yul\":7269:7274   */\n      dup3\n        /* \"#utility.yul\":7237:7275   */\n      tag_98\n      jump\t// in\n    tag_178:\n        /* \"#utility.yul\":7291:7361   */\n      tag_179\n        /* \"#utility.yul\":7354:7360   */\n      dup2\n        /* \"#utility.yul\":7349:7352   */\n      dup6\n        /* \"#utility.yul\":7291:7361   */\n      tag_76\n      jump\t// in\n    tag_179:\n        /* \"#utility.yul\":7284:7361   */\n      swap4\n      pop\n        /* \"#utility.yul\":7370:7435   */\n      tag_180\n        /* \"#utility.yul\":7428:7434   */\n      dup2\n        /* \"#utility.yul\":7423:7426   */\n      dup6\n        /* \"#utility.yul\":7416:7420   */\n      0x20\n        /* \"#utility.yul\":7409:7414   */\n      dup7\n        /* \"#utility.yul\":7405:7421   */\n      add\n        /* \"#utility.yul\":7370:7435   */\n      tag_100\n      jump\t// in\n    tag_180:\n        /* \"#utility.yul\":7460:7489   */\n      tag_181\n        /* \"#utility.yul\":7482:7488   */\n      dup2\n        /* \"#utility.yul\":7460:7489   */\n      tag_78\n      jump\t// in\n    tag_181:\n        /* \"#utility.yul\":7455:7458   */\n      dup5\n        /* \"#utility.yul\":7451:7490   */\n      add\n        /* \"#utility.yul\":7444:7490   */\n      swap2\n      pop\n        /* \"#utility.yul\":7213:7496   */\n      pop\n        /* \"#utility.yul\":7123:7496   */\n      swap3\n      swap2\n      pop\n      pop\n      jump\t// out\n        /* \"#utility.yul\":7502:7592   */\n    tag_103:\n        /* \"#utility.yul\":7536:7543   */\n      0x00\n        /* \"#utility.yul\":7579:7584   */\n      dup2\n        /* \"#utility.yul\":7572:7585   */\n      iszero\n        /* \"#utility.yul\":7565:7586   */\n      iszero\n        /* \"#utility.yul\":7554:7586   */\n      swap1\n      pop\n        /* \"#utility.yul\":7502:7592   */\n      swap2\n      swap1\n      pop\n      jump\t// out\n        /* \"#utility.yul\":7598:7707   */\n    tag_104:\n        /* \"#utility.yul\":7679:7700   */\n      tag_184\n        /* \"#utility.yul\":7694:7699   */\n      dup2\n        /* \"#utility.yul\":7679:7700   */\n      tag_103\n      jump\t// in\n    tag_184:\n        /* \"#utility.yul\":7674:7677   */\n      dup3\n        /* \"#utility.yul\":7667:7701   */\n      mstore\n        /* \"#utility.yul\":7598:7707   */\n      pop\n      pop\n      jump\t// out\n        /* \"#utility.yul\":7713:8317   */\n    tag_70:\n        /* \"#utility.yul\":7892:7896   */\n      0x00\n        /* \"#utility.yul\":7930:7932   */\n      0x60\n        /* \"#utility.yul\":7919:7928   */\n      dup3\n        /* \"#utility.yul\":7915:7933   */\n      add\n        /* \"#utility.yul\":7907:7933   */\n      swap1\n      pop\n        /* \"#utility.yul\":7979:7988   */\n      dup2\n        /* \"#utility.yul\":7973:7977   */\n      dup2\n        /* \"#utility.yul\":7969:7989   */\n      sub\n        /* \"#utility.yul\":7965:7966   */\n      0x00\n        /* \"#utility.yul\":7954:7963   */\n      dup4\n        /* \"#utility.yul\":7950:7967   */\n      add\n        /* \"#utility.yul\":7943:7990   */\n      mstore\n        /* \"#utility.yul\":8007:8083   */\n      tag_186\n        /* \"#utility.yul\":8078:8082   */\n      dup2\n        /* \"#utility.yul\":8069:8075   */\n      dup7\n        /* \"#utility.yul\":8007:8083   */\n      tag_102\n      jump\t// in\n    tag_186:\n        /* \"#utility.yul\":7999:8083   */\n      swap1\n      pop\n        /* \"#utility.yul\":8093:8159   */\n      tag_187\n        /* \"#utility.yul\":8155:8157   */\n      0x20\n        /* \"#utility.yul\":8144:8153   */\n      dup4\n        /* \"#utility.yul\":8140:8158   */\n      add\n        /* \"#utility.yul\":8131:8137   */\n      dup6\n        /* \"#utility.yul\":8093:8159   */\n      tag_104\n      jump\t// in\n    tag_187:\n        /* \"#utility.yul\":8206:8215   */\n      dup2\n        /* \"#utility.yul\":8200:8204   */\n      dup2\n        /* \"#utility.yul\":8196:8216   */\n      sub\n        /* \"#utility.yul\":8191:8193   */\n      0x40\n        /* \"#utility.yul\":8180:8189   */\n      dup4\n        /* \"#utility.yul\":8176:8194   */\n      add\n        /* \"#utility.yul\":8169:8217   */\n      mstore\n        /* \"#utility.yul\":8234:8310   */\n      tag_188\n        /* \"#utility.yul\":8305:8309   */\n      dup2\n        /* \"#utility.yul\":8296:8302   */\n      dup5\n        /* \"#utility.yul\":8234:8310   */\n      tag_102\n      jump\t// in\n    tag_188:\n        /* \"#utility.yul\":8226:8310   */\n      swap1\n      pop\n        /* \"#utility.yul\":7713:8317   */\n      swap5\n      swap4\n      pop\n      pop\n      pop\n      pop\n      jump\t// out\n\n    auxdata: 0xa26469706673582212207a60e5d4a8602c5370d8b1f12bbb2bfe66137c7923658ef29a65ff56773d745564736f6c634300081a0033\n}\n",
				"bytecode": {
					"linkReferences": {},
					"object": "608060405234801561000f575f80fd5b50604051610f65380380610f6583398181016040528101906100319190610430565b336100418161005960201b60201c565b5061005282826100cd60201b60201c565b5050610589565b8061008b7fb53127684a568b3173ae13b9f8a6016e243e63b6e8ee1178d6a717850b5d61035f1b61020c60201b60201c565b5f015f6101000a81548173ffffffffffffffffffffffffffffffffffffffff021916908373ffffffffffffffffffffffffffffffffffffffff16021790555050565b5f73ffffffffffffffffffffffffffffffffffffffff168273ffffffffffffffffffffffffffffffffffffffff1603610132576040517fae7c562200000000000000000000000000000000000000000000000000000000815260040160405180910390fd5b6101418261021560201b60201c565b5f81511115610208575f808373ffffffffffffffffffffffffffffffffffffffff168360405161017191906104ce565b5f60405180830381855af49150503d805f81146101a9576040519150601f19603f3d011682016040523d82523d5f602084013e6101ae565b606091505b50915091508373ffffffffffffffffffffffffffffffffffffffff167f20423e22d1f0b31668780a7b6e52a7ad77a44c7dd910f738df5e2d06244fb5598484846040516101fd93929190610546565b60405180910390a250505b5050565b5f819050919050565b806102477f360894a13ba1a3210667c828492db98dca3e2076cc3735a920a3ca505d382bbc5f1b61020c60201b60201c565b5f015f6101000a81548173ffffffffffffffffffffffffffffffffffffffff021916908373ffffffffffffffffffffffffffffffffffffffff16021790555050565b5f604051905090565b5f80fd5b5f80fd5b5f73ffffffffffffffffffffffffffffffffffffffff82169050919050565b5f6102c38261029a565b9050919050565b6102d3816102b9565b81146102dd575f80fd5b50565b5f815190506102ee816102ca565b92915050565b5f80fd5b5f80fd5b5f601f19601f8301169050919050565b7f4e487b71000000000000000000000000000000000000000000000000000000005f52604160045260245ffd5b610342826102fc565b810181811067ffffffffffffffff821117156103615761036061030c565b5b80604052505050565b5f610373610289565b905061037f8282610339565b919050565b5f67ffffffffffffffff82111561039e5761039d61030c565b5b6103a7826102fc565b9050602081019050919050565b8281835e5f83830152505050565b5f6103d46103cf84610384565b61036a565b9050828152602081018484840111156103f0576103ef6102f8565b5b6103fb8482856103b4565b509392505050565b5f82601f830112610417576104166102f4565b5b81516104278482602086016103c2565b91505092915050565b5f806040838503121561044657610445610292565b5b5f610453858286016102e0565b925050602083015167ffffffffffffffff81111561047457610473610296565b5b61048085828601610403565b9150509250929050565b5f81519050919050565b5f81905092915050565b5f6104a88261048a565b6104b28185610494565b93506104c28185602086016103b4565b80840191505092915050565b5f6104d9828461049e565b915081905092915050565b5f82825260208201905092915050565b5f6104fe8261048a565b61050881856104e4565b93506105188185602086016103b4565b610521816102fc565b840191505092915050565b5f8115159050919050565b6105408161052c565b82525050565b5f6060820190508181035f83015261055e81866104f4565b905061056d6020830185610537565b818103604083015261057f81846104f4565b9050949350505050565b6109cf806105965f395ff3fe60806040526004361061002c575f3560e01c80638f283970146100d057806395fae7ac146100f857610033565b3661003357005b5f357fffffffff00000000000000000000000000000000000000000000000000000000167bffffffffffffffffffffffffffffffffffffffffffffffffffffffff19163373ffffffffffffffffffffffffffffffffffffffff167f0a2e94dc85c608109377f1d4e7fd45e8eed5fe3acdaf32e2423ec8e069d40a075f366040516100be9291906105f4565b60405180910390a36100ce610120565b005b3480156100db575f80fd5b506100f660048036038101906100f19190610681565b610132565b005b348015610103575f80fd5b5061011e600480360381019061011991906107ca565b6101b3565b005b61013061012b610236565b610289565b565b61013a6102a8565b73ffffffffffffffffffffffffffffffffffffffff163373ffffffffffffffffffffffffffffffffffffffff16146101a7576040517f21f353dc00000000000000000000000000000000000000000000000000000000815260040161019e9061087e565b60405180910390fd5b6101b0816102fb565b50565b6101bb6102a8565b73ffffffffffffffffffffffffffffffffffffffff163373ffffffffffffffffffffffffffffffffffffffff1614610228576040517f21f353dc00000000000000000000000000000000000000000000000000000000815260040161021f9061087e565b60405180910390fd5b610232828261037c565b5050565b5f6102627f360894a13ba1a3210667c828492db98dca3e2076cc3735a920a3ca505d382bbc5f1b6104b5565b5f015f9054906101000a900473ffffffffffffffffffffffffffffffffffffffff16905090565b365f80375f80365f845af43d5f803e805f81146102a4573d5ff35b3d5ffd5b5f6102d47fb53127684a568b3173ae13b9f8a6016e243e63b6e8ee1178d6a717850b5d61035f1b6104b5565b5f015f9054906101000a900473ffffffffffffffffffffffffffffffffffffffff16905090565b6103036102a8565b73ffffffffffffffffffffffffffffffffffffffff163373ffffffffffffffffffffffffffffffffffffffff1614610370576040517f21f353dc0000000000000000000000000000000000000000000000000000000081526004016103679061087e565b60405180910390fd5b610379816104be565b50565b5f73ffffffffffffffffffffffffffffffffffffffff168273ffffffffffffffffffffffffffffffffffffffff16036103e1576040517fae7c562200000000000000000000000000000000000000000000000000000000815260040160405180910390fd5b6103ea8261052c565b5f815111156104b1575f808373ffffffffffffffffffffffffffffffffffffffff168360405161041a91906108ee565b5f60405180830381855af49150503d805f8114610452576040519150601f19603f3d011682016040523d82523d5f602084013e610457565b606091505b50915091508373ffffffffffffffffffffffffffffffffffffffff167f20423e22d1f0b31668780a7b6e52a7ad77a44c7dd910f738df5e2d06244fb5598484846040516104a693929190610956565b60405180910390a250505b5050565b5f819050919050565b806104ea7fb53127684a568b3173ae13b9f8a6016e243e63b6e8ee1178d6a717850b5d61035f1b6104b5565b5f015f6101000a81548173ffffffffffffffffffffffffffffffffffffffff021916908373ffffffffffffffffffffffffffffffffffffffff16021790555050565b806105587f360894a13ba1a3210667c828492db98dca3e2076cc3735a920a3ca505d382bbc5f1b6104b5565b5f015f6101000a81548173ffffffffffffffffffffffffffffffffffffffff021916908373ffffffffffffffffffffffffffffffffffffffff16021790555050565b5f82825260208201905092915050565b828183375f83830152505050565b5f601f19601f8301169050919050565b5f6105d3838561059a565b93506105e08385846105aa565b6105e9836105b8565b840190509392505050565b5f6020820190508181035f83015261060d8184866105c8565b90509392505050565b5f604051905090565b5f80fd5b5f80fd5b5f73ffffffffffffffffffffffffffffffffffffffff82169050919050565b5f61065082610627565b9050919050565b61066081610646565b811461066a575f80fd5b50565b5f8135905061067b81610657565b92915050565b5f602082840312156106965761069561061f565b5b5f6106a38482850161066d565b91505092915050565b5f80fd5b5f80fd5b7f4e487b71000000000000000000000000000000000000000000000000000000005f52604160045260245ffd5b6106ea826105b8565b810181811067ffffffffffffffff82111715610709576107086106b4565b5b80604052505050565b5f61071b610616565b905061072782826106e1565b919050565b5f67ffffffffffffffff821115610746576107456106b4565b5b61074f826105b8565b9050602081019050919050565b5f61076e6107698461072c565b610712565b90508281526020810184848401111561078a576107896106b0565b5b6107958482856105aa565b509392505050565b5f82601f8301126107b1576107b06106ac565b5b81356107c184826020860161075c565b91505092915050565b5f80604083850312156107e0576107df61061f565b5b5f6107ed8582860161066d565b925050602083013567ffffffffffffffff81111561080e5761080d610623565b5b61081a8582860161079d565b9150509250929050565b5f82825260208201905092915050565b7f6f6e6c792061646d696e2063616e2063616c6c207468697300000000000000005f82015250565b5f610868601883610824565b915061087382610834565b602082019050919050565b5f6020820190508181035f8301526108958161085c565b9050919050565b5f81519050919050565b5f81905092915050565b8281835e5f83830152505050565b5f6108c88261089c565b6108d281856108a6565b93506108e28185602086016108b0565b80840191505092915050565b5f6108f982846108be565b915081905092915050565b5f61090e8261089c565b610918818561059a565b93506109288185602086016108b0565b610931816105b8565b840191505092915050565b5f8115159050919050565b6109508161093c565b82525050565b5f6060820190508181035f83015261096e8186610904565b905061097d6020830185610947565b818103604083015261098f8184610904565b905094935050505056fea26469706673582212207a60e5d4a8602c5370d8b1f12bbb2bfe66137c7923658ef29a65ff56773d745564736f6c634300081a0033",
					"opcodes": "PUSH1 0x80 PUSH1 0x40 MSTORE CALLVALUE DUP1 ISZERO PUSH2 0xF JUMPI PUSH0 DUP1 REVERT JUMPDEST POP PUSH1 0x40 MLOAD PUSH2 0xF65 CODESIZE SUB DUP1 PUSH2 0xF65 DUP4 CODECOPY DUP2 DUP2 ADD PUSH1 0x40 MSTORE DUP2 ADD SWAP1 PUSH2 0x31 SWAP2 SWAP1 PUSH2 0x430 JUMP JUMPDEST CALLER PUSH2 0x41 DUP2 PUSH2 0x59 PUSH1 0x20 SHL PUSH1 0x20 SHR JUMP JUMPDEST POP PUSH2 0x52 DUP3 DUP3 PUSH2 0xCD PUSH1 0x20 SHL PUSH1 0x20 SHR JUMP JUMPDEST POP POP PUSH2 0x589 JUMP JUMPDEST DUP1 PUSH2 0x8B PUSH32 0xB53127684A568B3173AE13B9F8A6016E243E63B6E8EE1178D6A717850B5D6103 PUSH0 SHL PUSH2 0x20C PUSH1 0x20 SHL PUSH1 0x20 SHR JUMP JUMPDEST PUSH0 ADD PUSH0 PUSH2 0x100 EXP DUP2 SLOAD DUP2 PUSH20 0xFFFFFFFFFFFFFFFFFFFFFFFFFFFFFFFFFFFFFFFF MUL NOT AND SWAP1 DUP4 PUSH20 0xFFFFFFFFFFFFFFFFFFFFFFFFFFFFFFFFFFFFFFFF AND MUL OR SWAP1 SSTORE POP POP JUMP JUMPDEST PUSH0 PUSH20 0xFFFFFFFFFFFFFFFFFFFFFFFFFFFFFFFFFFFFFFFF AND DUP3 PUSH20 0xFFFFFFFFFFFFFFFFFFFFFFFFFFFFFFFFFFFFFFFF AND SUB PUSH2 0x132 JUMPI PUSH1 0x40 MLOAD PUSH32 0xAE7C562200000000000000000000000000000000000000000000000000000000 DUP2 MSTORE PUSH1 0x4 ADD PUSH1 0x40 MLOAD DUP1 SWAP2 SUB SWAP1 REVERT JUMPDEST PUSH2 0x141 DUP3 PUSH2 0x215 PUSH1 0x20 SHL PUSH1 0x20 SHR JUMP JUMPDEST PUSH0 DUP2 MLOAD GT ISZERO PUSH2 0x208 JUMPI PUSH0 DUP1 DUP4 PUSH20 0xFFFFFFFFFFFFFFFFFFFFFFFFFFFFFFFFFFFFFFFF AND DUP4 PUSH1 0x40 MLOAD PUSH2 0x171 SWAP2 SWAP1 PUSH2 0x4CE JUMP JUMPDEST PUSH0 PUSH1 0x40 MLOAD DUP1 DUP4 SUB DUP2 DUP6 GAS DELEGATECALL SWAP2 POP POP RETURNDATASIZE DUP1 PUSH0 DUP2 EQ PUSH2 0x1A9 JUMPI PUSH1 0x40 MLOAD SWAP2 POP PUSH1 0x1F NOT PUSH1 0x3F RETURNDATASIZE ADD AND DUP3 ADD PUSH1 0x40 MSTORE RETURNDATASIZE DUP3 MSTORE RETURNDATASIZE PUSH0 PUSH1 0x20 DUP5 ADD RETURNDATACOPY PUSH2 0x1AE JUMP JUMPDEST PUSH1 0x60 SWAP2 POP JUMPDEST POP SWAP2 POP SWAP2 POP DUP4 PUSH20 0xFFFFFFFFFFFFFFFFFFFFFFFFFFFFFFFFFFFFFFFF AND PUSH32 0x20423E22D1F0B31668780A7B6E52A7AD77A44C7DD910F738DF5E2D06244FB559 DUP5 DUP5 DUP5 PUSH1 0x40 MLOAD PUSH2 0x1FD SWAP4 SWAP3 SWAP2 SWAP1 PUSH2 0x546 JUMP JUMPDEST PUSH1 0x40 MLOAD DUP1 SWAP2 SUB SWAP1 LOG2 POP POP JUMPDEST POP POP JUMP JUMPDEST PUSH0 DUP2 SWAP1 POP SWAP2 SWAP1 POP JUMP JUMPDEST DUP1 PUSH2 0x247 PUSH32 0x360894A13BA1A3210667C828492DB98DCA3E2076CC3735A920A3CA505D382BBC PUSH0 SHL PUSH2 0x20C PUSH1 0x20 SHL PUSH1 0x20 SHR JUMP JUMPDEST PUSH0 ADD PUSH0 PUSH2 0x100 EXP DUP2 SLOAD DUP2 PUSH20 0xFFFFFFFFFFFFFFFFFFFFFFFFFFFFFFFFFFFFFFFF MUL NOT AND SWAP1 DUP4 PUSH20 0xFFFFFFFFFFFFFFFFFFFFFFFFFFFFFFFFFFFFFFFF AND MUL OR SWAP1 SSTORE POP POP JUMP JUMPDEST PUSH0 PUSH1 0x40 MLOAD SWAP1 POP SWAP1 JUMP JUMPDEST PUSH0 DUP1 REVERT JUMPDEST PUSH0 DUP1 REVERT JUMPDEST PUSH0 PUSH20 0xFFFFFFFFFFFFFFFFFFFFFFFFFFFFFFFFFFFFFFFF DUP3 AND SWAP1 POP SWAP2 SWAP1 POP JUMP JUMPDEST PUSH0 PUSH2 0x2C3 DUP3 PUSH2 0x29A JUMP JUMPDEST SWAP1 POP SWAP2 SWAP1 POP JUMP JUMPDEST PUSH2 0x2D3 DUP2 PUSH2 0x2B9 JUMP JUMPDEST DUP2 EQ PUSH2 0x2DD JUMPI PUSH0 DUP1 REVERT JUMPDEST POP JUMP JUMPDEST PUSH0 DUP2 MLOAD SWAP1 POP PUSH2 0x2EE DUP2 PUSH2 0x2CA JUMP JUMPDEST SWAP3 SWAP2 POP POP JUMP JUMPDEST PUSH0 DUP1 REVERT JUMPDEST PUSH0 DUP1 REVERT JUMPDEST PUSH0 PUSH1 0x1F NOT PUSH1 0x1F DUP4 ADD AND SWAP1 POP SWAP2 SWAP1 POP JUMP JUMPDEST PUSH32 0x4E487B7100000000000000000000000000000000000000000000000000000000 PUSH0 MSTORE PUSH1 0x41 PUSH1 0x4 MSTORE PUSH1 0x24 PUSH0 REVERT JUMPDEST PUSH2 0x342 DUP3 PUSH2 0x2FC JUMP JUMPDEST DUP2 ADD DUP2 DUP2 LT PUSH8 0xFFFFFFFFFFFFFFFF DUP3 GT OR ISZERO PUSH2 0x361 JUMPI PUSH2 0x360 PUSH2 0x30C JUMP JUMPDEST JUMPDEST DUP1 PUSH1 0x40 MSTORE POP POP POP JUMP JUMPDEST PUSH0 PUSH2 0x373 PUSH2 0x289 JUMP JUMPDEST SWAP1 POP PUSH2 0x37F DUP3 DUP3 PUSH2 0x339 JUMP JUMPDEST SWAP2 SWAP1 POP JUMP JUMPDEST PUSH0 PUSH8 0xFFFFFFFFFFFFFFFF DUP3 GT ISZERO PUSH2 0x39E JUMPI PUSH2 0x39D PUSH2 0x30C JUMP JUMPDEST JUMPDEST PUSH2 0x3A7 DUP3 PUSH2 0x2FC JUMP JUMPDEST SWAP1 POP PUSH1 0x20 DUP2 ADD SWAP1 POP SWAP2 SWAP1 POP JUMP JUMPDEST DUP3 DUP2 DUP4 MCOPY PUSH0 DUP4 DUP4 ADD MSTORE POP POP POP JUMP JUMPDEST PUSH0 PUSH2 0x3D4 PUSH2 0x3CF DUP5 PUSH2 0x384 JUMP JUMPDEST PUSH2 0x36A JUMP JUMPDEST SWAP1 POP DUP3 DUP2 MSTORE PUSH1 0x20 DUP2 ADD DUP5 DUP5 DUP5 ADD GT ISZERO PUSH2 0x3F0 JUMPI PUSH2 0x3EF PUSH2 0x2F8 JUMP JUMPDEST JUMPDEST PUSH2 0x3FB DUP5 DUP3 DUP6 PUSH2 0x3B4 JUMP JUMPDEST POP SWAP4 SWAP3 POP POP POP JUMP JUMPDEST PUSH0 DUP3 PUSH1 0x1F DUP4 ADD SLT PUSH2 0x417 JUMPI PUSH2 0x416 PUSH2 0x2F4 JUMP JUMPDEST JUMPDEST DUP2 MLOAD PUSH2 0x427 DUP5 DUP3 PUSH1 0x20 DUP7 ADD PUSH2 0x3C2 JUMP JUMPDEST SWAP2 POP POP SWAP3 SWAP2 POP POP JUMP JUMPDEST PUSH0 DUP1 PUSH1 0x40 DUP4 DUP6 SUB SLT ISZERO PUSH2 0x446 JUMPI PUSH2 0x445 PUSH2 0x292 JUMP JUMPDEST JUMPDEST PUSH0 PUSH2 0x453 DUP6 DUP3 DUP7 ADD PUSH2 0x2E0 JUMP JUMPDEST SWAP3 POP POP PUSH1 0x20 DUP4 ADD MLOAD PUSH8 0xFFFFFFFFFFFFFFFF DUP2 GT ISZERO PUSH2 0x474 JUMPI PUSH2 0x473 PUSH2 0x296 JUMP JUMPDEST JUMPDEST PUSH2 0x480 DUP6 DUP3 DUP7 ADD PUSH2 0x403 JUMP JUMPDEST SWAP2 POP POP SWAP3 POP SWAP3 SWAP1 POP JUMP JUMPDEST PUSH0 DUP2 MLOAD SWAP1 POP SWAP2 SWAP1 POP JUMP JUMPDEST PUSH0 DUP2 SWAP1 POP SWAP3 SWAP2 POP POP JUMP JUMPDEST PUSH0 PUSH2 0x4A8 DUP3 PUSH2 0x48A JUMP JUMPDEST PUSH2 0x4B2 DUP2 DUP6 PUSH2 0x494 JUMP JUMPDEST SWAP4 POP PUSH2 0x4C2 DUP2 DUP6 PUSH1 0x20 DUP7 ADD PUSH2 0x3B4 JUMP JUMPDEST DUP1 DUP5 ADD SWAP2 POP POP SWAP3 SWAP2 POP POP JUMP JUMPDEST PUSH0 PUSH2 0x4D9 DUP3 DUP5 PUSH2 0x49E JUMP JUMPDEST SWAP2 POP DUP2 SWAP1 POP SWAP3 SWAP2 POP POP JUMP JUMPDEST PUSH0 DUP3 DUP3 MSTORE PUSH1 0x20 DUP3 ADD SWAP1 POP SWAP3 SWAP2 POP POP JUMP JUMPDEST PUSH0 PUSH2 0x4FE DUP3 PUSH2 0x48A JUMP JUMPDEST PUSH2 0x508 DUP2 DUP6 PUSH2 0x4E4 JUMP JUMPDEST SWAP4 POP PUSH2 0x518 DUP2 DUP6 PUSH1 0x20 DUP7 ADD PUSH2 0x3B4 JUMP JUMPDEST PUSH2 0x521 DUP2 PUSH2 0x2FC JUMP JUMPDEST DUP5 ADD SWAP2 POP POP SWAP3 SWAP2 POP POP JUMP JUMPDEST PUSH0 DUP2 ISZERO ISZERO SWAP1 POP SWAP2 SWAP1 POP JUMP JUMPDEST PUSH2 0x540 DUP2 PUSH2 0x52C JUMP JUMPDEST DUP3 MSTORE POP POP JUMP JUMPDEST PUSH0 PUSH1 0x60 DUP3 ADD SWAP1 POP DUP2 DUP2 SUB PUSH0 DUP4 ADD MSTORE PUSH2 0x55E DUP2 DUP7 PUSH2 0x4F4 JUMP JUMPDEST SWAP1 POP PUSH2 0x56D PUSH1 0x20 DUP4 ADD DUP6 PUSH2 0x537 JUMP JUMPDEST DUP2 DUP2 SUB PUSH1 0x40 DUP4 ADD MSTORE PUSH2 0x57F DUP2 DUP5 PUSH2 0x4F4 JUMP JUMPDEST SWAP1 POP SWAP5 SWAP4 POP POP POP POP JUMP JUMPDEST PUSH2 0x9CF DUP1 PUSH2 0x596 PUSH0 CODECOPY PUSH0 RETURN INVALID PUSH1 0x80 PUSH1 0x40 MSTORE PUSH1 0x4 CALLDATASIZE LT PUSH2 0x2C JUMPI PUSH0 CALLDATALOAD PUSH1 0xE0 SHR DUP1 PUSH4 0x8F283970 EQ PUSH2 0xD0 JUMPI DUP1 PUSH4 0x95FAE7AC EQ PUSH2 0xF8 JUMPI PUSH2 0x33 JUMP JUMPDEST CALLDATASIZE PUSH2 0x33 JUMPI STOP JUMPDEST PUSH0 CALLDATALOAD PUSH32 0xFFFFFFFF00000000000000000000000000000000000000000000000000000000 AND PUSH28 0xFFFFFFFFFFFFFFFFFFFFFFFFFFFFFFFFFFFFFFFFFFFFFFFFFFFFFFFF NOT AND CALLER PUSH20 0xFFFFFFFFFFFFFFFFFFFFFFFFFFFFFFFFFFFFFFFF AND PUSH32 0xA2E94DC85C608109377F1D4E7FD45E8EED5FE3ACDAF32E2423EC8E069D40A07 PUSH0 CALLDATASIZE PUSH1 0x40 MLOAD PUSH2 0xBE SWAP3 SWAP2 SWAP1 PUSH2 0x5F4 JUMP JUMPDEST PUSH1 0x40 MLOAD DUP1 SWAP2 SUB SWAP1 LOG3 PUSH2 0xCE PUSH2 0x120 JUMP JUMPDEST STOP JUMPDEST CALLVALUE DUP1 ISZERO PUSH2 0xDB JUMPI PUSH0 DUP1 REVERT JUMPDEST POP PUSH2 0xF6 PUSH1 0x4 DUP1 CALLDATASIZE SUB DUP2 ADD SWAP1 PUSH2 0xF1 SWAP2 SWAP1 PUSH2 0x681 JUMP JUMPDEST PUSH2 0x132 JUMP JUMPDEST STOP JUMPDEST CALLVALUE DUP1 ISZERO PUSH2 0x103 JUMPI PUSH0 DUP1 REVERT JUMPDEST POP PUSH2 0x11E PUSH1 0x4 DUP1 CALLDATASIZE SUB DUP2 ADD SWAP1 PUSH2 0x119 SWAP2 SWAP1 PUSH2 0x7CA JUMP JUMPDEST PUSH2 0x1B3 JUMP JUMPDEST STOP JUMPDEST PUSH2 0x130 PUSH2 0x12B PUSH2 0x236 JUMP JUMPDEST PUSH2 0x289 JUMP JUMPDEST JUMP JUMPDEST PUSH2 0x13A PUSH2 0x2A8 JUMP JUMPDEST PUSH20 0xFFFFFFFFFFFFFFFFFFFFFFFFFFFFFFFFFFFFFFFF AND CALLER PUSH20 0xFFFFFFFFFFFFFFFFFFFFFFFFFFFFFFFFFFFFFFFF AND EQ PUSH2 0x1A7 JUMPI PUSH1 0x40 MLOAD PUSH32 0x21F353DC00000000000000000000000000000000000000000000000000000000 DUP2 MSTORE PUSH1 0x4 ADD PUSH2 0x19E SWAP1 PUSH2 0x87E JUMP JUMPDEST PUSH1 0x40 MLOAD DUP1 SWAP2 SUB SWAP1 REVERT JUMPDEST PUSH2 0x1B0 DUP2 PUSH2 0x2FB JUMP JUMPDEST POP JUMP JUMPDEST PUSH2 0x1BB PUSH2 0x2A8 JUMP JUMPDEST PUSH20 0xFFFFFFFFFFFFFFFFFFFFFFFFFFFFFFFFFFFFFFFF AND CALLER PUSH20 0xFFFFFFFFFFFFFFFFFFFFFFFFFFFFFFFFFFFFFFFF AND EQ PUSH2 0x228 JUMPI PUSH1 0x40 MLOAD PUSH32 0x21F353DC00000000000000000000000000000000000000000000000000000000 DUP2 MSTORE PUSH1 0x4 ADD PUSH2 0x21F SWAP1 PUSH2 0x87E JUMP JUMPDEST PUSH1 0x40 MLOAD DUP1 SWAP2 SUB SWAP1 REVERT JUMPDEST PUSH2 0x232 DUP3 DUP3 PUSH2 0x37C JUMP JUMPDEST POP POP JUMP JUMPDEST PUSH0 PUSH2 0x262 PUSH32 0x360894A13BA1A3210667C828492DB98DCA3E2076CC3735A920A3CA505D382BBC PUSH0 SHL PUSH2 0x4B5 JUMP JUMPDEST PUSH0 ADD PUSH0 SWAP1 SLOAD SWAP1 PUSH2 0x100 EXP SWAP1 DIV PUSH20 0xFFFFFFFFFFFFFFFFFFFFFFFFFFFFFFFFFFFFFFFF AND SWAP1 POP SWAP1 JUMP JUMPDEST CALLDATASIZE PUSH0 DUP1 CALLDATACOPY PUSH0 DUP1 CALLDATASIZE PUSH0 DUP5 GAS DELEGATECALL RETURNDATASIZE PUSH0 DUP1 RETURNDATACOPY DUP1 PUSH0 DUP2 EQ PUSH2 0x2A4 JUMPI RETURNDATASIZE PUSH0 RETURN JUMPDEST RETURNDATASIZE PUSH0 REVERT JUMPDEST PUSH0 PUSH2 0x2D4 PUSH32 0xB53127684A568B3173AE13B9F8A6016E243E63B6E8EE1178D6A717850B5D6103 PUSH0 SHL PUSH2 0x4B5 JUMP JUMPDEST PUSH0 ADD PUSH0 SWAP1 SLOAD SWAP1 PUSH2 0x100 EXP SWAP1 DIV PUSH20 0xFFFFFFFFFFFFFFFFFFFFFFFFFFFFFFFFFFFFFFFF AND SWAP1 POP SWAP1 JUMP JUMPDEST PUSH2 0x303 PUSH2 0x2A8 JUMP JUMPDEST PUSH20 0xFFFFFFFFFFFFFFFFFFFFFFFFFFFFFFFFFFFFFFFF AND CALLER PUSH20 0xFFFFFFFFFFFFFFFFFFFFFFFFFFFFFFFFFFFFFFFF AND EQ PUSH2 0x370 JUMPI PUSH1 0x40 MLOAD PUSH32 0x21F353DC00000000000000000000000000000000000000000000000000000000 DUP2 MSTORE PUSH1 0x4 ADD PUSH2 0x367 SWAP1 PUSH2 0x87E JUMP JUMPDEST PUSH1 0x40 MLOAD DUP1 SWAP2 SUB SWAP1 REVERT JUMPDEST PUSH2 0x379 DUP2 PUSH2 0x4BE JUMP JUMPDEST POP JUMP JUMPDEST PUSH0 PUSH20 0xFFFFFFFFFFFFFFFFFFFFFFFFFFFFFFFFFFFFFFFF AND DUP3 PUSH20 0xFFFFFFFFFFFFFFFFFFFFFFFFFFFFFFFFFFFFFFFF AND SUB PUSH2 0x3E1 JUMPI PUSH1 0x40 MLOAD PUSH32 0xAE7C562200000000000000000000000000000000000000000000000000000000 DUP2 MSTORE PUSH1 0x4 ADD PUSH1 0x40 MLOAD DUP1 SWAP2 SUB SWAP1 REVERT JUMPDEST PUSH2 0x3EA DUP3 PUSH2 0x52C JUMP JUMPDEST PUSH0 DUP2 MLOAD GT ISZERO PUSH2 0x4B1 JUMPI PUSH0 DUP1 DUP4 PUSH20 0xFFFFFFFFFFFFFFFFFFFFFFFFFFFFFFFFFFFFFFFF AND DUP4 PUSH1 0x40 MLOAD PUSH2 0x41A SWAP2 SWAP1 PUSH2 0x8EE JUMP JUMPDEST PUSH0 PUSH1 0x40 MLOAD DUP1 DUP4 SUB DUP2 DUP6 GAS DELEGATECALL SWAP2 POP POP RETURNDATASIZE DUP1 PUSH0 DUP2 EQ PUSH2 0x452 JUMPI PUSH1 0x40 MLOAD SWAP2 POP PUSH1 0x1F NOT PUSH1 0x3F RETURNDATASIZE ADD AND DUP3 ADD PUSH1 0x40 MSTORE RETURNDATASIZE DUP3 MSTORE RETURNDATASIZE PUSH0 PUSH1 0x20 DUP5 ADD RETURNDATACOPY PUSH2 0x457 JUMP JUMPDEST PUSH1 0x60 SWAP2 POP JUMPDEST POP SWAP2 POP SWAP2 POP DUP4 PUSH20 0xFFFFFFFFFFFFFFFFFFFFFFFFFFFFFFFFFFFFFFFF AND PUSH32 0x20423E22D1F0B31668780A7B6E52A7AD77A44C7DD910F738DF5E2D06244FB559 DUP5 DUP5 DUP5 PUSH1 0x40 MLOAD PUSH2 0x4A6 SWAP4 SWAP3 SWAP2 SWAP1 PUSH2 0x956 JUMP JUMPDEST PUSH1 0x40 MLOAD DUP1 SWAP2 SUB SWAP1 LOG2 POP POP JUMPDEST POP POP JUMP JUMPDEST PUSH0 DUP2 SWAP1 POP SWAP2 SWAP1 POP JUMP JUMPDEST DUP1 PUSH2 0x4EA PUSH32 0xB53127684A568B3173AE13B9F8A6016E243E63B6E8EE1178D6A717850B5D6103 PUSH0 SHL PUSH2 0x4B5 JUMP JUMPDEST PUSH0 ADD PUSH0 PUSH2 0x100 EXP DUP2 SLOAD DUP2 PUSH20 0xFFFFFFFFFFFFFFFFFFFFFFFFFFFFFFFFFFFFFFFF MUL NOT AND SWAP1 DUP4 PUSH20 0xFFFFFFFFFFFFFFFFFFFFFFFFFFFFFFFFFFFFFFFF AND MUL OR SWAP1 SSTORE POP POP JUMP JUMPDEST DUP1 PUSH2 0x558 PUSH32 0x360894A13BA1A3210667C828492DB98DCA3E2076CC3735A920A3CA505D382BBC PUSH0 SHL PUSH2 0x4B5 JUMP JUMPDEST PUSH0 ADD PUSH0 PUSH2 0x100 EXP DUP2 SLOAD DUP2 PUSH20 0xFFFFFFFFFFFFFFFFFFFFFFFFFFFFFFFFFFFFFFFF MUL NOT AND SWAP1 DUP4 PUSH20 0xFFFFFFFFFFFFFFFFFFFFFFFFFFFFFFFFFFFFFFFF AND MUL OR SWAP1 SSTORE POP POP JUMP JUMPDEST PUSH0 DUP3 DUP3 MSTORE PUSH1 0x20 DUP3 ADD SWAP1 POP SWAP3 SWAP2 POP POP JUMP JUMPDEST DUP3 DUP2 DUP4 CALLDATACOPY PUSH0 DUP4 DUP4 ADD MSTORE POP POP POP JUMP JUMPDEST PUSH0 PUSH1 0x1F NOT PUSH1 0x1F DUP4 ADD AND SWAP1 POP SWAP2 SWAP1 POP JUMP JUMPDEST PUSH0 PUSH2 0x5D3 DUP4 DUP6 PUSH2 0x59A JUMP JUMPDEST SWAP4 POP PUSH2 0x5E0 DUP4 DUP6 DUP5 PUSH2 0x5AA JUMP JUMPDEST PUSH2 0x5E9 DUP4 PUSH2 0x5B8 JUMP JUMPDEST DUP5 ADD SWAP1 POP SWAP4 SWAP3 POP POP POP JUMP JUMPDEST PUSH0 PUSH1 0x20 DUP3 ADD SWAP1 POP DUP2 DUP2 SUB PUSH0 DUP4 ADD MSTORE PUSH2 0x60D DUP2 DUP5 DUP7 PUSH2 0x5C8 JUMP JUMPDEST SWAP1 POP SWAP4 SWAP3 POP POP POP JUMP JUMPDEST PUSH0 PUSH1 0x40 MLOAD SWAP1 POP SWAP1 JUMP JUMPDEST PUSH0 DUP1 REVERT JUMPDEST PUSH0 DUP1 REVERT JUMPDEST PUSH0 PUSH20 0xFFFFFFFFFFFFFFFFFFFFFFFFFFFFFFFFFFFFFFFF DUP3 AND SWAP1 POP SWAP2 SWAP1 POP JUMP JUMPDEST PUSH0 PUSH2 0x650 DUP3 PUSH2 0x627 JUMP JUMPDEST SWAP1 POP SWAP2 SWAP1 POP JUMP JUMPDEST PUSH2 0x660 DUP2 PUSH2 0x646 JUMP JUMPDEST DUP2 EQ PUSH2 0x66A JUMPI PUSH0 DUP1 REVERT JUMPDEST POP JUMP JUMPDEST PUSH0 DUP2 CALLDATALOAD SWAP1 POP PUSH2 0x67B DUP2 PUSH2 0x657 JUMP JUMPDEST SWAP3 SWAP2 POP POP JUMP JUMPDEST PUSH0 PUSH1 0x20 DUP3 DUP5 SUB SLT ISZERO PUSH2 0x696 JUMPI PUSH2 0x695 PUSH2 0x61F JUMP JUMPDEST JUMPDEST PUSH0 PUSH2 0x6A3 DUP5 DUP3 DUP6 ADD PUSH2 0x66D JUMP JUMPDEST SWAP2 POP POP SWAP3 SWAP2 POP POP JUMP JUMPDEST PUSH0 DUP1 REVERT JUMPDEST PUSH0 DUP1 REVERT JUMPDEST PUSH32 0x4E487B7100000000000000000000000000000000000000000000000000000000 PUSH0 MSTORE PUSH1 0x41 PUSH1 0x4 MSTORE PUSH1 0x24 PUSH0 REVERT JUMPDEST PUSH2 0x6EA DUP3 PUSH2 0x5B8 JUMP JUMPDEST DUP2 ADD DUP2 DUP2 LT PUSH8 0xFFFFFFFFFFFFFFFF DUP3 GT OR ISZERO PUSH2 0x709 JUMPI PUSH2 0x708 PUSH2 0x6B4 JUMP JUMPDEST JUMPDEST DUP1 PUSH1 0x40 MSTORE POP POP POP JUMP JUMPDEST PUSH0 PUSH2 0x71B PUSH2 0x616 JUMP JUMPDEST SWAP1 POP PUSH2 0x727 DUP3 DUP3 PUSH2 0x6E1 JUMP JUMPDEST SWAP2 SWAP1 POP JUMP JUMPDEST PUSH0 PUSH8 0xFFFFFFFFFFFFFFFF DUP3 GT ISZERO PUSH2 0x746 JUMPI PUSH2 0x745 PUSH2 0x6B4 JUMP JUMPDEST JUMPDEST PUSH2 0x74F DUP3 PUSH2 0x5B8 JUMP JUMPDEST SWAP1 POP PUSH1 0x20 DUP2 ADD SWAP1 POP SWAP2 SWAP1 POP JUMP JUMPDEST PUSH0 PUSH2 0x76E PUSH2 0x769 DUP5 PUSH2 0x72C JUMP JUMPDEST PUSH2 0x712 JUMP JUMPDEST SWAP1 POP DUP3 DUP2 MSTORE PUSH1 0x20 DUP2 ADD DUP5 DUP5 DUP5 ADD GT ISZERO PUSH2 0x78A JUMPI PUSH2 0x789 PUSH2 0x6B0 JUMP JUMPDEST JUMPDEST PUSH2 0x795 DUP5 DUP3 DUP6 PUSH2 0x5AA JUMP JUMPDEST POP SWAP4 SWAP3 POP POP POP JUMP JUMPDEST PUSH0 DUP3 PUSH1 0x1F DUP4 ADD SLT PUSH2 0x7B1 JUMPI PUSH2 0x7B0 PUSH2 0x6AC JUMP JUMPDEST JUMPDEST DUP2 CALLDATALOAD PUSH2 0x7C1 DUP5 DUP3 PUSH1 0x20 DUP7 ADD PUSH2 0x75C JUMP JUMPDEST SWAP2 POP POP SWAP3 SWAP2 POP POP JUMP JUMPDEST PUSH0 DUP1 PUSH1 0x40 DUP4 DUP6 SUB SLT ISZERO PUSH2 0x7E0 JUMPI PUSH2 0x7DF PUSH2 0x61F JUMP JUMPDEST JUMPDEST PUSH0 PUSH2 0x7ED DUP6 DUP3 DUP7 ADD PUSH2 0x66D JUMP JUMPDEST SWAP3 POP POP PUSH1 0x20 DUP4 ADD CALLDATALOAD PUSH8 0xFFFFFFFFFFFFFFFF DUP2 GT ISZERO PUSH2 0x80E JUMPI PUSH2 0x80D PUSH2 0x623 JUMP JUMPDEST JUMPDEST PUSH2 0x81A DUP6 DUP3 DUP7 ADD PUSH2 0x79D JUMP JUMPDEST SWAP2 POP POP SWAP3 POP SWAP3 SWAP1 POP JUMP JUMPDEST PUSH0 DUP3 DUP3 MSTORE PUSH1 0x20 DUP3 ADD SWAP1 POP SWAP3 SWAP2 POP POP JUMP JUMPDEST PUSH32 0x6F6E6C792061646D696E2063616E2063616C6C20746869730000000000000000 PUSH0 DUP3 ADD MSTORE POP JUMP JUMPDEST PUSH0 PUSH2 0x868 PUSH1 0x18 DUP4 PUSH2 0x824 JUMP JUMPDEST SWAP2 POP PUSH2 0x873 DUP3 PUSH2 0x834 JUMP JUMPDEST PUSH1 0x20 DUP3 ADD SWAP1 POP SWAP2 SWAP1 POP JUMP JUMPDEST PUSH0 PUSH1 0x20 DUP3 ADD SWAP1 POP DUP2 DUP2 SUB PUSH0 DUP4 ADD MSTORE PUSH2 0x895 DUP2 PUSH2 0x85C JUMP JUMPDEST SWAP1 POP SWAP2 SWAP1 POP JUMP JUMPDEST PUSH0 DUP2 MLOAD SWAP1 POP SWAP2 SWAP1 POP JUMP JUMPDEST PUSH0 DUP2 SWAP1 POP SWAP3 SWAP2 POP POP JUMP JUMPDEST DUP3 DUP2 DUP4 MCOPY PUSH0 DUP4 DUP4 ADD MSTORE POP POP POP JUMP JUMPDEST PUSH0 PUSH2 0x8C8 DUP3 PUSH2 0x89C JUMP JUMPDEST PUSH2 0x8D2 DUP2 DUP6 PUSH2 0x8A6 JUMP JUMPDEST SWAP4 POP PUSH2 0x8E2 DUP2 DUP6 PUSH1 0x20 DUP7 ADD PUSH2 0x8B0 JUMP JUMPDEST DUP1 DUP5 ADD SWAP2 POP POP SWAP3 SWAP2 POP POP JUMP JUMPDEST PUSH0 PUSH2 0x8F9 DUP3 DUP5 PUSH2 0x8BE JUMP JUMPDEST SWAP2 POP DUP2 SWAP1 POP SWAP3 SWAP2 POP POP JUMP JUMPDEST PUSH0 PUSH2 0x90E DUP3 PUSH2 0x89C JUMP JUMPDEST PUSH2 0x918 DUP2 DUP6 PUSH2 0x59A JUMP JUMPDEST SWAP4 POP PUSH2 0x928 DUP2 DUP6 PUSH1 0x20 DUP7 ADD PUSH2 0x8B0 JUMP JUMPDEST PUSH2 0x931 DUP2 PUSH2 0x5B8 JUMP JUMPDEST DUP5 ADD SWAP2 POP POP SWAP3 SWAP2 POP POP JUMP JUMPDEST PUSH0 DUP2 ISZERO ISZERO SWAP1 POP SWAP2 SWAP1 POP JUMP JUMPDEST PUSH2 0x950 DUP2 PUSH2 0x93C JUMP JUMPDEST DUP3 MSTORE POP POP JUMP JUMPDEST PUSH0 PUSH1 0x60 DUP3 ADD SWAP1 POP DUP2 DUP2 SUB PUSH0 DUP4 ADD MSTORE PUSH2 0x96E DUP2 DUP7 PUSH2 0x904 JUMP JUMPDEST SWAP1 POP PUSH2 0x97D PUSH1 0x20 DUP4 ADD DUP6 PUSH2 0x947 JUMP JUMPDEST DUP2 DUP2 SUB PUSH1 0x40 DUP4 ADD MSTORE PUSH2 0x98F DUP2 DUP5 PUSH2 0x904 JUMP JUMPDEST SWAP1 POP SWAP5 SWAP4 POP POP POP POP JUMP INVALID LOG2 PUSH5 0x6970667358 0x22 SLT KECCAK256 PUSH27 0x60E5D4A8602C5370D8B1F12BBB2BFE66137C7923658EF29A65FF56 PUSH24 0x3D745564736F6C634300081A003300000000000000000000 "
				},
				"gasEstimates": {
					"creation": {
						"codeDepositCost": "502200",
						"executionCost": "infinite",
						"totalCost": "infinite"
					},
					"external": {
						"": "infinite",
						"changeAdmin(address)": "infinite",
						"upgradeLogicAddress(address,bytes)": "infinite"
					},
					"internal": {
						"_upgradeAndCall(address,bytes memory)": "infinite"
					}
				},
				"methodIdentifiers": {
					"changeAdmin(address)": "8f283970",
					"upgradeLogicAddress(address,bytes)": "95fae7ac"
				}
			},
			"storageLayout": {
				"storage": [],
				"types": null
			},
			"userdoc": {
				"kind": "user",
				"methods": {},
				"version": 1
			}
		}
	}
}