{
	"data": {
		"bytecode": {
			"linkReferences": {},
			"object": "610160604052348015610010575f80fd5b506040518060400160405280600a81526020017f4e455a48415f564f5445000000000000000000000000000000000000000000008152506040518060400160405280600181526020017f31000000000000000000000000000000000000000000000000000000000000008152506040518060400160405280600a81526020017f4e455a48415f564f5445000000000000000000000000000000000000000000008152506040518060400160405280600481526020017f4e5a5f560000000000000000000000000000000000000000000000000000000081525081600390816100f8919061125f565b508060049081610108919061125f565b50505061011f6005836101e560201b90919060201c565b610120818152505061013b6006826101e560201b90919060201c565b6101408181525050818051906020012060e08181525050808051906020012061010081815250504660a0818152505061017861023260201b60201c565b608081815250503073ffffffffffffffffffffffffffffffffffffffff1660c08173ffffffffffffffffffffffffffffffffffffffff168152505050506101c43361028c60201b60201c565b6101e0336b204fce5e3e2502611000000061032160201b60201c565b6117aa565b5f602083511015610206576101ff836103a660201b60201c565b905061022c565b826102168361040b60201b60201c565b5f019081610224919061125f565b5060ff5f1b90505b92915050565b5f7f8b73c3c69bb8fe3d512ecc4cf759cc79239f7b179b0ffacaa9a75d522b39400f60e051610100514630604051602001610271959493929190611394565b60405160208183030381529060405280519060200120905090565b806102df6102d46040518060400160405280601c81526020017f4772616e7450726976696c656765732e61646d696e416464726573730000000081525061041460201b60201c565b61043060201b60201c565b5f015f6101000a81548173ffffffffffffffffffffffffffffffffffffffff021916908373ffffffffffffffffffffffffffffffffffffffff16021790555050565b5f73ffffffffffffffffffffffffffffffffffffffff168273ffffffffffffffffffffffffffffffffffffffff1603610391575f6040517fec442f0500000000000000000000000000000000000000000000000000000000815260040161038891906113e5565b60405180910390fd5b6103a25f838361043960201b60201c565b5050565b5f80829050601f815111156103f257826040517f305a27a90000000000000000000000000000000000000000000000000000000081526004016103e99190611464565b60405180910390fd5b8051816103fe906114b1565b5f1c175f1b915050919050565b5f819050919050565b5f600182516020840120035f5260ff1960205f20169050919050565b5f819050919050565b61044a8383836104ff60201b60201c565b5f73ffffffffffffffffffffffffffffffffffffffff168373ffffffffffffffffffffffffffffffffffffffff16036104e9575f61048c61071860201b60201c565b90505f61049d61072160201b60201c565b9050808211156104e65781816040517f1cb15d260000000000000000000000000000000000000000000000000000000081526004016104dd929190611517565b60405180910390fd5b50505b6104fa83838361074460201b60201c565b505050565b5f73ffffffffffffffffffffffffffffffffffffffff168373ffffffffffffffffffffffffffffffffffffffff160361054f578060025f828254610543919061156b565b9250508190555061061d565b5f805f8573ffffffffffffffffffffffffffffffffffffffff1673ffffffffffffffffffffffffffffffffffffffff1681526020019081526020015f20549050818110156105d8578381836040517fe450d38c0000000000000000000000000000000000000000000000000000000081526004016105cf9392919061159e565b60405180910390fd5b8181035f808673ffffffffffffffffffffffffffffffffffffffff1673ffffffffffffffffffffffffffffffffffffffff1681526020019081526020015f2081905550505b5f73ffffffffffffffffffffffffffffffffffffffff168273ffffffffffffffffffffffffffffffffffffffff1603610664578060025f82825403925050819055506106ae565b805f808473ffffffffffffffffffffffffffffffffffffffff1673ffffffffffffffffffffffffffffffffffffffff1681526020019081526020015f205f82825401925050819055505b8173ffffffffffffffffffffffffffffffffffffffff168373ffffffffffffffffffffffffffffffffffffffff167fddf252ad1be2c89b69c2b068fc378daa952ba7f163c4a11628f55a4df523b3ef8360405161070b91906115d3565b60405180910390a3505050565b5f600254905090565b5f79ffffffffffffffffffffffffffffffffffffffffffffffffffff8016905090565b5f73ffffffffffffffffffffffffffffffffffffffff168373ffffffffffffffffffffffffffffffffffffffff16036107a3576107a0600a61083460201b61173c176107958461084960201b60201c565b6108b660201b60201c565b50505b5f73ffffffffffffffffffffffffffffffffffffffff168273ffffffffffffffffffffffffffffffffffffffff1603610802576107ff600a6108fe60201b611751176107f48461084960201b60201c565b6108b660201b60201c565b50505b61082f6108148461091360201b60201c565b6108238461091360201b60201c565b8361097860201b60201c565b505050565b5f81836108419190611611565b905092915050565b5f79ffffffffffffffffffffffffffffffffffffffffffffffffffff80168211156108ae5760d0826040517f6dfcc6500000000000000000000000000000000000000000000000000000000081526004016108a59291906116a3565b60405180910390fd5b819050919050565b5f806108f26108c9610c0e60201b60201c565b6108e26108db88610c2260201b60201c565b868860201c565b87610c8a60201b9092919060201c565b91509150935093915050565b5f818361090b91906116ca565b905092915050565b5f60085f8373ffffffffffffffffffffffffffffffffffffffff1673ffffffffffffffffffffffffffffffffffffffff1681526020019081526020015f205f9054906101000a900473ffffffffffffffffffffffffffffffffffffffff169050919050565b8173ffffffffffffffffffffffffffffffffffffffff168373ffffffffffffffffffffffffffffffffffffffff16141580156109b357505f81115b15610c09575f73ffffffffffffffffffffffffffffffffffffffff168373ffffffffffffffffffffffffffffffffffffffff1614610ae0575f80610a5160095f8773ffffffffffffffffffffffffffffffffffffffff1673ffffffffffffffffffffffffffffffffffffffff1681526020019081526020015f206108fe60201b61175117610a468661084960201b60201c565b6108b660201b60201c565b79ffffffffffffffffffffffffffffffffffffffffffffffffffff16915079ffffffffffffffffffffffffffffffffffffffffffffffffffff1691508473ffffffffffffffffffffffffffffffffffffffff167fdec2bacdd2f05b59de34da9b523dff8be42e5e38e818c82fdb0bae774387a7248383604051610ad5929190611517565b60405180910390a250505b5f73ffffffffffffffffffffffffffffffffffffffff168273ffffffffffffffffffffffffffffffffffffffff1614610c08575f80610b7960095f8673ffffffffffffffffffffffffffffffffffffffff1673ffffffffffffffffffffffffffffffffffffffff1681526020019081526020015f2061083460201b61173c17610b6e8661084960201b60201c565b6108b660201b60201c565b79ffffffffffffffffffffffffffffffffffffffffffffffffffff16915079ffffffffffffffffffffffffffffffffffffffffffffffffffff1691508373ffffffffffffffffffffffffffffffffffffffff167fdec2bacdd2f05b59de34da9b523dff8be42e5e38e818c82fdb0bae774387a7248383604051610bfd929190611517565b60405180910390a250505b5b505050565b5f610c1d610cab60201b60201c565b905090565b5f80825f018054905090505f8114610c8057610c52835f01600183610c479190611717565b610cc060201b60201c565b5f0160069054906101000a900479ffffffffffffffffffffffffffffffffffffffffffffffffffff16610c82565b5f5b915050919050565b5f80610c9f855f018585610cd260201b60201c565b91509150935093915050565b5f610cbb43610fcc60201b60201c565b905090565b5f825f528160205f2001905092915050565b5f805f858054905090505f811115610ee4575f610d0187600184610cf69190611717565b610cc060201b60201c565b90505f815f015f9054906101000a900465ffffffffffff1690505f825f0160069054906101000a900479ffffffffffffffffffffffffffffffffffffffffffffffffffff1690508765ffffffffffff168265ffffffffffff161115610d92576040517f2520601d00000000000000000000000000000000000000000000000000000000815260040160405180910390fd5b8765ffffffffffff168265ffffffffffff1603610dfc5786835f0160066101000a81548179ffffffffffffffffffffffffffffffffffffffffffffffffffff021916908379ffffffffffffffffffffffffffffffffffffffffffffffffffff160217905550610ed5565b8860405180604001604052808a65ffffffffffff1681526020018979ffffffffffffffffffffffffffffffffffffffffffffffffffff16815250908060018154018082558091505060019003905f5260205f20015f909190919091505f820151815f015f6101000a81548165ffffffffffff021916908365ffffffffffff1602179055506020820151815f0160066101000a81548179ffffffffffffffffffffffffffffffffffffffffffffffffffff021916908379ffffffffffffffffffffffffffffffffffffffffffffffffffff16021790555050505b80879550955050505050610fc4565b8560405180604001604052808765ffffffffffff1681526020018679ffffffffffffffffffffffffffffffffffffffffffffffffffff16815250908060018154018082558091505060019003905f5260205f20015f909190919091505f820151815f015f6101000a81548165ffffffffffff021916908365ffffffffffff1602179055506020820151815f0160066101000a81548179ffffffffffffffffffffffffffffffffffffffffffffffffffff021916908379ffffffffffffffffffffffffffffffffffffffffffffffffffff16021790555050505f8492509250505b935093915050565b5f65ffffffffffff801682111561101d576030826040517f6dfcc650000000000000000000000000000000000000000000000000000000008152600401611014929190611783565b60405180910390fd5b819050919050565b5f81519050919050565b7f4e487b71000000000000000000000000000000000000000000000000000000005f52604160045260245ffd5b7f4e487b71000000000000000000000000000000000000000000000000000000005f52602260045260245ffd5b5f60028204905060018216806110a057607f821691505b6020821081036110b3576110b261105c565b5b50919050565b5f819050815f5260205f209050919050565b5f6020601f8301049050919050565b5f82821b905092915050565b5f600883026111157fffffffffffffffffffffffffffffffffffffffffffffffffffffffffffffffff826110da565b61111f86836110da565b95508019841693508086168417925050509392505050565b5f819050919050565b5f819050919050565b5f61116361115e61115984611137565b611140565b611137565b9050919050565b5f819050919050565b61117c83611149565b6111906111888261116a565b8484546110e6565b825550505050565b5f90565b6111a4611198565b6111af818484611173565b505050565b5b818110156111d2576111c75f8261119c565b6001810190506111b5565b5050565b601f821115611217576111e8816110b9565b6111f1846110cb565b81016020851015611200578190505b61121461120c856110cb565b8301826111b4565b50505b505050565b5f82821c905092915050565b5f6112375f198460080261121c565b1980831691505092915050565b5f61124f8383611228565b9150826002028217905092915050565b61126882611025565b67ffffffffffffffff8111156112815761128061102f565b5b61128b8254611089565b6112968282856111d6565b5f60209050601f8311600181146112c7575f84156112b5578287015190505b6112bf8582611244565b865550611326565b601f1984166112d5866110b9565b5f5b828110156112fc578489015182556001820191506020850194506020810190506112d7565b868310156113195784890151611315601f891682611228565b8355505b6001600288020188555050505b505050505050565b5f819050919050565b6113408161132e565b82525050565b61134f81611137565b82525050565b5f73ffffffffffffffffffffffffffffffffffffffff82169050919050565b5f61137e82611355565b9050919050565b61138e81611374565b82525050565b5f60a0820190506113a75f830188611337565b6113b46020830187611337565b6113c16040830186611337565b6113ce6060830185611346565b6113db6080830184611385565b9695505050505050565b5f6020820190506113f85f830184611385565b92915050565b5f82825260208201905092915050565b8281835e5f83830152505050565b5f601f19601f8301169050919050565b5f61143682611025565b61144081856113fe565b935061145081856020860161140e565b6114598161141c565b840191505092915050565b5f6020820190508181035f83015261147c818461142c565b905092915050565b5f81519050919050565b5f819050602082019050919050565b5f6114a8825161132e565b80915050919050565b5f6114bb82611484565b826114c58461148e565b90506114d08161149d565b925060208210156115105761150b7fffffffffffffffffffffffffffffffffffffffffffffffffffffffffffffffff836020036008026110da565b831692505b5050919050565b5f60408201905061152a5f830185611346565b6115376020830184611346565b9392505050565b7f4e487b71000000000000000000000000000000000000000000000000000000005f52601160045260245ffd5b5f61157582611137565b915061158083611137565b92508282019050808211156115985761159761153e565b5b92915050565b5f6060820190506115b15f830186611385565b6115be6020830185611346565b6115cb6040830184611346565b949350505050565b5f6020820190506115e65f830184611346565b92915050565b5f79ffffffffffffffffffffffffffffffffffffffffffffffffffff82169050919050565b5f61161b826115ec565b9150611626836115ec565b9250828201905079ffffffffffffffffffffffffffffffffffffffffffffffffffff8111156116585761165761153e565b5b92915050565b5f819050919050565b5f60ff82169050919050565b5f61168d6116886116838461165e565b611140565b611667565b9050919050565b61169d81611673565b82525050565b5f6040820190506116b65f830185611694565b6116c36020830184611346565b9392505050565b5f6116d4826115ec565b91506116df836115ec565b9250828203905079ffffffffffffffffffffffffffffffffffffffffffffffffffff8111156117115761171061153e565b5b92915050565b5f61172182611137565b915061172c83611137565b92508282039050818111156117445761174361153e565b5b92915050565b5f819050919050565b5f61176d6117686117638461174a565b611140565b611667565b9050919050565b61177d81611753565b82525050565b5f6040820190506117965f830185611774565b6117a36020830184611346565b9392505050565b60805160a05160c05160e051610100516101205161014051614b0d6117fb5f395f611f7801525f611f3d01525f61345e01525f61343d01525f612b7901525f612bcf01525f612bf80152614b0d5ff3fe608060405234801561000f575f80fd5b5060043610610230575f3560e01c80635c19a95c1161012e57806395cfbf6d116100b6578063b384abef1161007a578063b384abef146106cf578063c3cda520146106eb578063dd62ed3e14610707578063efb98bcf14610737578063f1127ed81461075557610230565b806395cfbf6d1461061557806395d89b41146106335780639ab24eb014610651578063a9059cbb14610681578063b2e6b912146106b157610230565b80637ecebe00116100fd5780637ecebe001461055757806384b0196e146105875780638e539e8c146105ab5780638f283970146105db57806391ddadf4146105f757610230565b80635c19a95c146104bf5780636fcfff45146104db57806370a082311461050b57806379cc67901461053b57610230565b806331288f40116101bc57806342966c681161018057806342966c681461041b57806349c2a1a6146104375780634bf5d7e9146104535780634e3e26ae14610471578063587cde1e1461048f57610230565b806331288f4014610379578063313ce567146103955780633a46b1a8146103b35780633cc38f5c146103e357806340c10f19146103ff57610230565b80630c0512e9116102035780630c0512e9146102d157806318160ddd146102ef578063188214001461030d57806323b872dd1461032b5780632a9053181461035b57610230565b8063013cf08b146102345780630386a0161461026757806306fdde0314610283578063095ea7b3146102a1575b5f80fd5b61024e6004803603810190610249919061388b565b610785565b60405161025e949392919061394f565b60405180910390f35b610281600480360381019061027c919061388b565b610843565b005b61028b610948565b6040516102989190613999565b60405180910390f35b6102bb60048036038101906102b69190613a13565b6109d8565b6040516102c89190613a51565b60405180910390f35b6102d96109fa565b6040516102e69190613a6a565b60405180910390f35b6102f7610a00565b6040516103049190613a6a565b60405180910390f35b610315610a09565b6040516103229190613999565b60405180910390f35b61034560048036038101906103409190613a83565b610a42565b6040516103529190613a51565b60405180910390f35b610363610a70565b6040516103709190613999565b60405180910390f35b610393600480360381019061038e919061388b565b610aa9565b005b61039d610ba4565b6040516103aa9190613aee565b60405180910390f35b6103cd60048036038101906103c89190613a13565b610bac565b6040516103da9190613a6a565b60405180910390f35b6103fd60048036038101906103f89190613a13565b610c28565b005b61041960048036038101906104149190613a13565b610d5d565b005b6104356004803603810190610430919061388b565b610de0565b005b610451600480360381019061044c9190613c33565b610df4565b005b61045b610ec3565b6040516104689190613999565b60405180910390f35b610479610f57565b6040516104869190613a6a565b60405180910390f35b6104a960048036038101906104a49190613c7a565b610f66565b6040516104b69190613cb4565b60405180910390f35b6104d960048036038101906104d49190613c7a565b610fcb565b005b6104f560048036038101906104f09190613c7a565b610fe4565b6040516105029190613ceb565b60405180910390f35b61052560048036038101906105209190613c7a565b610ff5565b6040516105329190613a6a565b60405180910390f35b61055560048036038101906105509190613a13565b61103a565b005b610571600480360381019061056c9190613c7a565b61105a565b60405161057e9190613a6a565b60405180910390f35b61058f6110a0565b6040516105a29796959493929190613e0d565b60405180910390f35b6105c560048036038101906105c0919061388b565b611145565b6040516105d29190613a6a565b60405180910390f35b6105f560048036038101906105f09190613c7a565b611185565b005b6105ff61126b565b60405161060c9190613eaf565b60405180910390f35b61061d611279565b60405161062a9190613999565b60405180910390f35b61063b6112b2565b6040516106489190613999565b60405180910390f35b61066b60048036038101906106669190613c7a565b611342565b6040516106789190613a6a565b60405180910390f35b61069b60048036038101906106969190613a13565b6113ab565b6040516106a89190613a51565b60405180910390f35b6106b96113cd565b6040516106c69190613cb4565b60405180910390f35b6106e960048036038101906106e49190613ec8565b6113db565b005b61070560048036038101906107009190613f5a565b6114db565b005b610721600480360381019061071c9190613fe3565b6115a0565b60405161072e9190613a6a565b60405180910390f35b61073f611622565b60405161074c9190613a6a565b60405180910390f35b61076f600480360381019061076a919061404b565b611722565b60405161077c91906140f9565b60405180910390f35b600b602052805f5260405f205f91509050805f0154908060010180546107aa9061413f565b80601f01602080910402602001604051908101604052809291908181526020018280546107d69061413f565b80156108215780601f106107f857610100808354040283529160200191610821565b820191905f5260205f20905b81548152906001019060200180831161080457829003601f168201915b505050505090806002015490806003015f9054906101000a900460ff16905084565b61084b611766565b73ffffffffffffffffffffffffffffffffffffffff163373ffffffffffffffffffffffffffffffffffffffff16146108b8576040517f0a2a9e3e0000000000000000000000000000000000000000000000000000000081526004016108af906141b9565b60405180910390fd5b80600b5f8281526020019081526020015f206003015f9054906101000a900460ff16610919576040517f08c379a000000000000000000000000000000000000000000000000000000000815260040161091090614221565b60405180910390fd5b5f600b5f8481526020019081526020015f206003015f6101000a81548160ff0219169083151502179055505050565b6060600380546109579061413f565b80601f01602080910402602001604051908101604052809291908181526020018280546109839061413f565b80156109ce5780601f106109a5576101008083540402835291602001916109ce565b820191905f5260205f20905b8154815290600101906020018083116109b157829003601f168201915b5050505050905090565b5f806109e26117d4565b90506109ef8185856117db565b600191505092915050565b600c5481565b5f600254905090565b6040518060400160405280600a81526020017f4e455a48415f564f54450000000000000000000000000000000000000000000081525081565b5f80610a4c6117d4565b9050610a598582856117ed565b610a64858585611880565b60019150509392505050565b6040518060400160405280600481526020017f4e5a5f560000000000000000000000000000000000000000000000000000000081525081565b610ab1611766565b73ffffffffffffffffffffffffffffffffffffffff163373ffffffffffffffffffffffffffffffffffffffff1614610b1e576040517f0a2a9e3e000000000000000000000000000000000000000000000000000000008152600401610b15906141b9565b60405180910390fd5b805f600b5f8381526020019081526020015f205f015403610b74576040517f08c379a0000000000000000000000000000000000000000000000000000000008152600401610b6b90614289565b60405180910390fd5b6001600b5f8481526020019081526020015f206003015f6101000a81548160ff0219169083151502179055505050565b5f6012905090565b5f610c04610bb983611970565b60095f8673ffffffffffffffffffffffffffffffffffffffff1673ffffffffffffffffffffffffffffffffffffffff1681526020019081526020015f206119db90919063ffffffff16565b79ffffffffffffffffffffffffffffffffffffffffffffffffffff16905092915050565b610c30611766565b73ffffffffffffffffffffffffffffffffffffffff163373ffffffffffffffffffffffffffffffffffffffff1614610c9d576040517f0a2a9e3e000000000000000000000000000000000000000000000000000000008152600401610c94906141b9565b60405180910390fd5b5f73ffffffffffffffffffffffffffffffffffffffff168273ffffffffffffffffffffffffffffffffffffffff1603610d02576040517f5bb7a72300000000000000000000000000000000000000000000000000000000815260040160405180910390fd5b5f8103610d3b576040517fe16a8aa400000000000000000000000000000000000000000000000000000000815260040160405180910390fd5b5f610d4583611ac8565b905042815f0181905550818160010181905550505050565b610d65611766565b73ffffffffffffffffffffffffffffffffffffffff163373ffffffffffffffffffffffffffffffffffffffff1614610dd2576040517f0a2a9e3e000000000000000000000000000000000000000000000000000000008152600401610dc9906141b9565b60405180910390fd5b610ddc8282611b2d565b5050565b610df1610deb6117d4565b82611bac565b50565b610dfc611766565b73ffffffffffffffffffffffffffffffffffffffff163373ffffffffffffffffffffffffffffffffffffffff1614610e69576040517f0a2a9e3e000000000000000000000000000000000000000000000000000000008152600401610e60906141b9565b60405180910390fd5b600c5f815480929190610e7b906142d4565b9190505550600c54600b5f600c5481526020019081526020015f205f018190555080600b5f600c5481526020019081526020015f206001019081610ebf91906144b8565b5050565b6060610ecd611c2b565b65ffffffffffff16610edd61126b565b65ffffffffffff1614610f1c576040517f6ff0714000000000000000000000000000000000000000000000000000000000815260040160405180910390fd5b6040518060400160405280601d81526020017f6d6f64653d626c6f636b6e756d6265722666726f6d3d64656661756c74000000815250905090565b5f610f6133611c3a565b905090565b5f60085f8373ffffffffffffffffffffffffffffffffffffffff1673ffffffffffffffffffffffffffffffffffffffff1681526020019081526020015f205f9054906101000a900473ffffffffffffffffffffffffffffffffffffffff169050919050565b5f610fd46117d4565b9050610fe08183611dcf565b5050565b5f610fee82611edf565b9050919050565b5f805f8373ffffffffffffffffffffffffffffffffffffffff1673ffffffffffffffffffffffffffffffffffffffff1681526020019081526020015f20549050919050565b61104c826110466117d4565b836117ed565b6110568282611bac565b5050565b5f60075f8373ffffffffffffffffffffffffffffffffffffffff1673ffffffffffffffffffffffffffffffffffffffff1681526020019081526020015f20549050919050565b5f6060805f805f60606110b1611f34565b6110b9611f6f565b46305f801b5f67ffffffffffffffff8111156110d8576110d7613b0f565b5b6040519080825280602002602001820160405280156111065781602001602082028036833780820191505090505b507f0f00000000000000000000000000000000000000000000000000000000000000959493929190965096509650965096509650965090919293949596565b5f61116261115283611970565b600a6119db90919063ffffffff16565b79ffffffffffffffffffffffffffffffffffffffffffffffffffff169050919050565b61118d611766565b73ffffffffffffffffffffffffffffffffffffffff163373ffffffffffffffffffffffffffffffffffffffff16146111fa576040517f0a2a9e3e0000000000000000000000000000000000000000000000000000000081526004016111f1906141b9565b60405180910390fd5b5f73ffffffffffffffffffffffffffffffffffffffff168173ffffffffffffffffffffffffffffffffffffffff160361125f576040517f5bb7a72300000000000000000000000000000000000000000000000000000000815260040160405180910390fd5b61126881611faa565b50565b5f611274611c2b565b905090565b6040518060400160405280601981526020017f4772616e7450726976696c656765732e4e616d6573706163650000000000000081525081565b6060600480546112c19061413f565b80601f01602080910402602001604051908101604052809291908181526020018280546112ed9061413f565b80156113385780601f1061130f57610100808354040283529160200191611338565b820191905f5260205f20905b81548152906001019060200180831161131b57829003601f168201915b5050505050905090565b5f61138860095f8473ffffffffffffffffffffffffffffffffffffffff1673ffffffffffffffffffffffffffffffffffffffff1681526020019081526020015f20612033565b79ffffffffffffffffffffffffffffffffffffffffffffffffffff169050919050565b5f806113b56117d4565b90506113c2818585611880565b600191505092915050565b5f6113d6611766565b905090565b81600b5f8281526020019081526020015f206003015f9054906101000a900460ff1661143c576040517f08c379a000000000000000000000000000000000000000000000000000000000815260040161143390614221565b60405180910390fd5b611447338484612095565b81600b5f8581526020019081526020015f206002015f82825461146a9190614587565b9250508190555081600b5f8581526020019081526020015f206004015f3373ffffffffffffffffffffffffffffffffffffffff1673ffffffffffffffffffffffffffffffffffffffff1681526020019081526020015f205f8282546114cf9190614587565b92505081905550505050565b8342111561152057836040517f4683af0e0000000000000000000000000000000000000000000000000000000081526004016115179190613a6a565b60405180910390fd5b5f6115816115797fe48329057bfd03d55e49b547132e39cffd9c1820ad7b9d4c5307691425d15adf89898960405160200161155e94939291906145ba565b60405160208183030381529060405280519060200120612153565b85858561216c565b905061158d818761219a565b6115978188611dcf565b50505050505050565b5f60015f8473ffffffffffffffffffffffffffffffffffffffff1673ffffffffffffffffffffffffffffffffffffffff1681526020019081526020015f205f8373ffffffffffffffffffffffffffffffffffffffff1673ffffffffffffffffffffffffffffffffffffffff1681526020019081526020015f2054905092915050565b5f61162b611766565b73ffffffffffffffffffffffffffffffffffffffff163373ffffffffffffffffffffffffffffffffffffffff161415801561166c575061166a336121f1565b155b156116ac576040517f5e9b54e10000000000000000000000000000000000000000000000000000000081526004016116a39061466d565b60405180910390fd5b5f6116b633611ac8565b90505f815f015490505f826001015490505f8214806116d457505f81145b156116e4575f935050505061171f565b4281836116f19190614587565b1015611702575f935050505061171f565b42818361170f9190614587565b611719919061468b565b93505050505b90565b61172a61380b565b6117348383612255565b905092915050565b5f818361174991906146be565b905092915050565b5f818361175e919061470b565b905092915050565b5f6117ad6117a86040518060400160405280601c81526020017f4772616e7450726976696c656765732e61646d696e41646472657373000000008152506122b4565b6122d0565b5f015f9054906101000a900473ffffffffffffffffffffffffffffffffffffffff16905090565b5f33905090565b6117e883838360016122d9565b505050565b5f6117f884846115a0565b90507fffffffffffffffffffffffffffffffffffffffffffffffffffffffffffffffff81101561187a578181101561186b578281836040517ffb8f41b200000000000000000000000000000000000000000000000000000000815260040161186293929190614758565b60405180910390fd5b61187984848484035f6122d9565b5b50505050565b5f73ffffffffffffffffffffffffffffffffffffffff168373ffffffffffffffffffffffffffffffffffffffff16036118f0575f6040517f96c6fd1e0000000000000000000000000000000000000000000000000000000081526004016118e79190613cb4565b60405180910390fd5b5f73ffffffffffffffffffffffffffffffffffffffff168273ffffffffffffffffffffffffffffffffffffffff1603611960575f6040517fec442f050000000000000000000000000000000000000000000000000000000081526004016119579190613cb4565b60405180910390fd5b61196b8383836124a8565b505050565b5f8061197a61126b565b90508065ffffffffffff1683106119ca5782816040517fecd3f81e0000000000000000000000000000000000000000000000000000000081526004016119c192919061478d565b60405180910390fd5b6119d383612556565b915050919050565b5f80835f018054905090505f808290506005831115611a5c575f6119fe846125af565b84611a09919061468b565b9050611a17875f0182612749565b5f015f9054906101000a900465ffffffffffff1665ffffffffffff168665ffffffffffff161015611a4a57809150611a5a565b600181611a579190614587565b92505b505b5f611a6b875f0187858561275b565b90505f8114611aba57611a8c875f01600183611a87919061468b565b612749565b5f0160069054906101000a900479ffffffffffffffffffffffffffffffffffffffffffffffffffff16611abc565b5f5b94505050505092915050565b5f80611b1a83611b0c6040518060400160405280601981526020017f4772616e7450726976696c656765732e4e616d657370616365000000000000008152506122b4565b6127d090919063ffffffff16565b9050611b25816127ea565b915050919050565b5f73ffffffffffffffffffffffffffffffffffffffff168273ffffffffffffffffffffffffffffffffffffffff1603611b9d575f6040517fec442f05000000000000000000000000000000000000000000000000000000008152600401611b949190613cb4565b60405180910390fd5b611ba85f83836124a8565b5050565b5f73ffffffffffffffffffffffffffffffffffffffff168273ffffffffffffffffffffffffffffffffffffffff1603611c1c575f6040517f96c6fd1e000000000000000000000000000000000000000000000000000000008152600401611c139190613cb4565b60405180910390fd5b611c27825f836124a8565b5050565b5f611c3543612556565b905090565b5f8073ffffffffffffffffffffffffffffffffffffffff16611c5b83610f66565b73ffffffffffffffffffffffffffffffffffffffff16148015611c8557505f611c8383611342565b145b15611c9a57611c9382610ff5565b9050611dca565b5f73ffffffffffffffffffffffffffffffffffffffff16611cba83610f66565b73ffffffffffffffffffffffffffffffffffffffff1614158015611ce557505f611ce383611342565b145b15611cf2575f9050611dca565b5f73ffffffffffffffffffffffffffffffffffffffff16611d1283610f66565b73ffffffffffffffffffffffffffffffffffffffff16148015611d3d57505f611d3a83611342565b14155b15611d6557611d4b82611342565b611d5483610ff5565b611d5e9190614587565b9050611dca565b5f73ffffffffffffffffffffffffffffffffffffffff16611d8583610f66565b73ffffffffffffffffffffffffffffffffffffffff1614158015611db157505f611dae83611342565b14155b15611dc657611dbf82611342565b9050611dca565b5f90505b919050565b5f611dd983610f66565b90508160085f8573ffffffffffffffffffffffffffffffffffffffff1673ffffffffffffffffffffffffffffffffffffffff1681526020019081526020015f205f6101000a81548173ffffffffffffffffffffffffffffffffffffffff021916908373ffffffffffffffffffffffffffffffffffffffff1602179055508173ffffffffffffffffffffffffffffffffffffffff168173ffffffffffffffffffffffffffffffffffffffff168473ffffffffffffffffffffffffffffffffffffffff167f3134e8a2e6d97e929a7e54011ea5485d7d196dd5f0ba4d4ef95803e8e3fc257f60405160405180910390a4611eda8183611ed586611c3a565b6127f3565b505050565b5f611f2d611f2860095f8573ffffffffffffffffffffffffffffffffffffffff1673ffffffffffffffffffffffffffffffffffffffff1681526020019081526020015f20612a63565b612a72565b9050919050565b6060611f6a60057f0000000000000000000000000000000000000000000000000000000000000000612ac990919063ffffffff16565b905090565b6060611fa560067f0000000000000000000000000000000000000000000000000000000000000000612ac990919063ffffffff16565b905090565b80611ff1611fec6040518060400160405280601c81526020017f4772616e7450726976696c656765732e61646d696e41646472657373000000008152506122b4565b6122d0565b5f015f6101000a81548173ffffffffffffffffffffffffffffffffffffffff021916908373ffffffffffffffffffffffffffffffffffffffff16021790555050565b5f80825f018054905090505f811461208b5761205d835f01600183612058919061468b565b612749565b5f0160069054906101000a900479ffffffffffffffffffffffffffffffffffffffffffffffffffff1661208d565b5f5b915050919050565b5f61209f84611c3a565b90505f600b5f8581526020019081526020015f206004015f8673ffffffffffffffffffffffffffffffffffffffff1673ffffffffffffffffffffffffffffffffffffffff1681526020019081526020015f2054905082816121009190614587565b82101561214c5784848383866040517faf68ae6d0000000000000000000000000000000000000000000000000000000081526004016121439594939291906147b4565b60405180910390fd5b5050505050565b5f61216561215f612b76565b83612c2c565b9050919050565b5f805f8061217c88888888612c6c565b92509250925061218c8282612d53565b829350505050949350505050565b5f6121a483612eb5565b90508082146121ec5782816040517f752d88c00000000000000000000000000000000000000000000000000000000081526004016121e3929190614805565b60405180910390fd5b505050565b5f806121fc83611ac8565b90505f815f015490505f826001015490505f82148061221a57505f81145b1561222a575f9350505050612250565b80826122369190614587565b421115612248575f9350505050612250565b600193505050505b919050565b61225d61380b565b6122ac8260095f8673ffffffffffffffffffffffffffffffffffffffff1673ffffffffffffffffffffffffffffffffffffffff1681526020019081526020015f20612f0890919063ffffffff16565b905092915050565b5f600182516020840120035f5260ff1960205f20169050919050565b5f819050919050565b5f73ffffffffffffffffffffffffffffffffffffffff168473ffffffffffffffffffffffffffffffffffffffff1603612349575f6040517fe602df050000000000000000000000000000000000000000000000000000000081526004016123409190613cb4565b60405180910390fd5b5f73ffffffffffffffffffffffffffffffffffffffff168373ffffffffffffffffffffffffffffffffffffffff16036123b9575f6040517f94280d620000000000000000000000000000000000000000000000000000000081526004016123b09190613cb4565b60405180910390fd5b8160015f8673ffffffffffffffffffffffffffffffffffffffff1673ffffffffffffffffffffffffffffffffffffffff1681526020019081526020015f205f8573ffffffffffffffffffffffffffffffffffffffff1673ffffffffffffffffffffffffffffffffffffffff1681526020019081526020015f208190555080156124a2578273ffffffffffffffffffffffffffffffffffffffff168473ffffffffffffffffffffffffffffffffffffffff167f8c5be1e5ebec7d5bd14f71427d1e84f3dd0314c0f7b2291e5b200ac8c7c3b925846040516124999190613a6a565b60405180910390a35b50505050565b6124b3838383612fd7565b5f73ffffffffffffffffffffffffffffffffffffffff168373ffffffffffffffffffffffffffffffffffffffff1603612546575f6124ef610a00565b90505f6124fa6131f0565b9050808211156125435781816040517f1cb15d2600000000000000000000000000000000000000000000000000000000815260040161253a92919061482c565b60405180910390fd5b50505b612551838383613213565b505050565b5f65ffffffffffff80168211156125a7576030826040517f6dfcc65000000000000000000000000000000000000000000000000000000000815260040161259e92919061488c565b60405180910390fd5b819050919050565b5f600182116125c057819050612744565b5f8290505f6001905070010000000000000000000000000000000082106125f057608082901c9150604081901b90505b68010000000000000000821061260f57604082901c9150602081901b90505b640100000000821061262a57602082901c9150601081901b90505b62010000821061264357601082901c9150600881901b90505b610100821061265b57600882901c9150600481901b90505b6010821061267257600482901c9150600281901b90505b6004821061268257600181901b90505b600181600302901c9050600181858161269e5761269d6148b3565b5b048201901c905060018185816126b7576126b66148b3565b5b048201901c905060018185816126d0576126cf6148b3565b5b048201901c905060018185816126e9576126e86148b3565b5b048201901c90506001818581612702576127016148b3565b5b048201901c9050600181858161271b5761271a6148b3565b5b048201901c905061273d818581612735576127346148b3565b5b0482116132cb565b8103925050505b919050565b5f825f528160205f2001905092915050565b5f5b818310156127c5575f61277084846132d6565b90508465ffffffffffff166127858783612749565b5f015f9054906101000a900465ffffffffffff1665ffffffffffff1611156127af578092506127bf565b6001816127bc9190614587565b93505b5061275d565b819050949350505050565b5f801960601c82165f528260205260405f20905092915050565b5f819050919050565b8173ffffffffffffffffffffffffffffffffffffffff168373ffffffffffffffffffffffffffffffffffffffff161415801561282e57505f81115b15612a5e575f73ffffffffffffffffffffffffffffffffffffffff168373ffffffffffffffffffffffffffffffffffffffff1614612948575f806128b960095f8773ffffffffffffffffffffffffffffffffffffffff1673ffffffffffffffffffffffffffffffffffffffff1681526020019081526020015f206117516128b4866132fb565b613368565b79ffffffffffffffffffffffffffffffffffffffffffffffffffff16915079ffffffffffffffffffffffffffffffffffffffffffffffffffff1691508473ffffffffffffffffffffffffffffffffffffffff167fdec2bacdd2f05b59de34da9b523dff8be42e5e38e818c82fdb0bae774387a724838360405161293d92919061482c565b60405180910390a250505b5f73ffffffffffffffffffffffffffffffffffffffff168273ffffffffffffffffffffffffffffffffffffffff1614612a5d575f806129ce60095f8673ffffffffffffffffffffffffffffffffffffffff1673ffffffffffffffffffffffffffffffffffffffff1681526020019081526020015f2061173c6129c9866132fb565b613368565b79ffffffffffffffffffffffffffffffffffffffffffffffffffff16915079ffffffffffffffffffffffffffffffffffffffffffffffffffff1691508373ffffffffffffffffffffffffffffffffffffffff167fdec2bacdd2f05b59de34da9b523dff8be42e5e38e818c82fdb0bae774387a7248383604051612a5292919061482c565b60405180910390a250505b5b505050565b5f815f01805490509050919050565b5f63ffffffff8016821115612ac1576020826040517f6dfcc650000000000000000000000000000000000000000000000000000000008152600401612ab8929190614919565b60405180910390fd5b819050919050565b606060ff5f1b8314612ae557612ade836133a7565b9050612b70565b818054612af19061413f565b80601f0160208091040260200160405190810160405280929190818152602001828054612b1d9061413f565b8015612b685780601f10612b3f57610100808354040283529160200191612b68565b820191905f5260205f20905b815481529060010190602001808311612b4b57829003601f168201915b505050505090505b92915050565b5f7f000000000000000000000000000000000000000000000000000000000000000073ffffffffffffffffffffffffffffffffffffffff163073ffffffffffffffffffffffffffffffffffffffff16148015612bf157507f000000000000000000000000000000000000000000000000000000000000000046145b15612c1e577f00000000000000000000000000000000000000000000000000000000000000009050612c29565b612c26613419565b90505b90565b5f6040517f190100000000000000000000000000000000000000000000000000000000000081528360028201528260228201526042812091505092915050565b5f805f7f7fffffffffffffffffffffffffffffff5d576e7357a4501ddfe92f46681b20a0845f1c1115612ca8575f600385925092509250612d49565b5f6001888888886040515f8152602001604052604051612ccb9493929190614940565b6020604051602081039080840390855afa158015612ceb573d5f803e3d5ffd5b5050506020604051035190505f73ffffffffffffffffffffffffffffffffffffffff168173ffffffffffffffffffffffffffffffffffffffff1603612d3c575f60015f801b93509350935050612d49565b805f805f1b935093509350505b9450945094915050565b5f6003811115612d6657612d65614983565b5b826003811115612d7957612d78614983565b5b0315612eb15760016003811115612d9357612d92614983565b5b826003811115612da657612da5614983565b5b03612ddd576040517ff645eedf00000000000000000000000000000000000000000000000000000000815260040160405180910390fd5b60026003811115612df157612df0614983565b5b826003811115612e0457612e03614983565b5b03612e4857805f1c6040517ffce698f7000000000000000000000000000000000000000000000000000000008152600401612e3f9190613a6a565b60405180910390fd5b600380811115612e5b57612e5a614983565b5b826003811115612e6e57612e6d614983565b5b03612eb057806040517fd78bce0c000000000000000000000000000000000000000000000000000000008152600401612ea791906149b0565b60405180910390fd5b5b5050565b5f60075f8373ffffffffffffffffffffffffffffffffffffffff1673ffffffffffffffffffffffffffffffffffffffff1681526020019081526020015f205f815480929190600101919050559050919050565b612f1061380b565b825f018263ffffffff1681548110612f2b57612f2a6149c9565b5b905f5260205f20016040518060400160405290815f82015f9054906101000a900465ffffffffffff1665ffffffffffff1665ffffffffffff1681526020015f820160069054906101000a900479ffffffffffffffffffffffffffffffffffffffffffffffffffff1679ffffffffffffffffffffffffffffffffffffffffffffffffffff1679ffffffffffffffffffffffffffffffffffffffffffffffffffff1681525050905092915050565b5f73ffffffffffffffffffffffffffffffffffffffff168373ffffffffffffffffffffffffffffffffffffffff1603613027578060025f82825461301b9190614587565b925050819055506130f5565b5f805f8573ffffffffffffffffffffffffffffffffffffffff1673ffffffffffffffffffffffffffffffffffffffff1681526020019081526020015f20549050818110156130b0578381836040517fe450d38c0000000000000000000000000000000000000000000000000000000081526004016130a793929190614758565b60405180910390fd5b8181035f808673ffffffffffffffffffffffffffffffffffffffff1673ffffffffffffffffffffffffffffffffffffffff1681526020019081526020015f2081905550505b5f73ffffffffffffffffffffffffffffffffffffffff168273ffffffffffffffffffffffffffffffffffffffff160361313c578060025f8282540392505081905550613186565b805f808473ffffffffffffffffffffffffffffffffffffffff1673ffffffffffffffffffffffffffffffffffffffff1681526020019081526020015f205f82825401925050819055505b8173ffffffffffffffffffffffffffffffffffffffff168373ffffffffffffffffffffffffffffffffffffffff167fddf252ad1be2c89b69c2b068fc378daa952ba7f163c4a11628f55a4df523b3ef836040516131e39190613a6a565b60405180910390a3505050565b5f79ffffffffffffffffffffffffffffffffffffffffffffffffffff8016905090565b5f73ffffffffffffffffffffffffffffffffffffffff168373ffffffffffffffffffffffffffffffffffffffff160361325f5761325c600a61173c613257846132fb565b613368565b50505b5f73ffffffffffffffffffffffffffffffffffffffff168273ffffffffffffffffffffffffffffffffffffffff16036132ab576132a8600a6117516132a3846132fb565b613368565b50505b6132c66132b784610f66565b6132c084610f66565b836127f3565b505050565b5f8115159050919050565b5f60028284186132e691906149f6565b8284166132f39190614587565b905092915050565b5f79ffffffffffffffffffffffffffffffffffffffffffffffffffff80168211156133605760d0826040517f6dfcc650000000000000000000000000000000000000000000000000000000008152600401613357929190614a5f565b60405180910390fd5b819050919050565b5f8061339b61337561126b565b61338b61338188612033565b868863ffffffff16565b876134ae9092919063ffffffff16565b91509150935093915050565b60605f6133b3836134c9565b90505f602067ffffffffffffffff8111156133d1576133d0613b0f565b5b6040519080825280601f01601f1916602001820160405280156134035781602001600182028036833780820191505090505b5090508181528360208201528092505050919050565b5f7f8b73c3c69bb8fe3d512ecc4cf759cc79239f7b179b0ffacaa9a75d522b39400f7f00000000000000000000000000000000000000000000000000000000000000007f00000000000000000000000000000000000000000000000000000000000000004630604051602001613493959493929190614a86565b60405160208183030381529060405280519060200120905090565b5f806134bd855f018585613517565b91509150935093915050565b5f8060ff835f1c169050601f81111561350e576040517fb3512b0c00000000000000000000000000000000000000000000000000000000815260040160405180910390fd5b80915050919050565b5f805f858054905090505f811115613723575f6135408760018461353b919061468b565b612749565b90505f815f015f9054906101000a900465ffffffffffff1690505f825f0160069054906101000a900479ffffffffffffffffffffffffffffffffffffffffffffffffffff1690508765ffffffffffff168265ffffffffffff1611156135d1576040517f2520601d00000000000000000000000000000000000000000000000000000000815260040160405180910390fd5b8765ffffffffffff168265ffffffffffff160361363b5786835f0160066101000a81548179ffffffffffffffffffffffffffffffffffffffffffffffffffff021916908379ffffffffffffffffffffffffffffffffffffffffffffffffffff160217905550613714565b8860405180604001604052808a65ffffffffffff1681526020018979ffffffffffffffffffffffffffffffffffffffffffffffffffff16815250908060018154018082558091505060019003905f5260205f20015f909190919091505f820151815f015f6101000a81548165ffffffffffff021916908365ffffffffffff1602179055506020820151815f0160066101000a81548179ffffffffffffffffffffffffffffffffffffffffffffffffffff021916908379ffffffffffffffffffffffffffffffffffffffffffffffffffff16021790555050505b80879550955050505050613803565b8560405180604001604052808765ffffffffffff1681526020018679ffffffffffffffffffffffffffffffffffffffffffffffffffff16815250908060018154018082558091505060019003905f5260205f20015f909190919091505f820151815f015f6101000a81548165ffffffffffff021916908365ffffffffffff1602179055506020820151815f0160066101000a81548179ffffffffffffffffffffffffffffffffffffffffffffffffffff021916908379ffffffffffffffffffffffffffffffffffffffffffffffffffff16021790555050505f8492509250505b935093915050565b60405180604001604052805f65ffffffffffff1681526020015f79ffffffffffffffffffffffffffffffffffffffffffffffffffff1681525090565b5f604051905090565b5f80fd5b5f80fd5b5f819050919050565b61386a81613858565b8114613874575f80fd5b50565b5f8135905061388581613861565b92915050565b5f602082840312156138a05761389f613850565b5b5f6138ad84828501613877565b91505092915050565b6138bf81613858565b82525050565b5f81519050919050565b5f82825260208201905092915050565b8281835e5f83830152505050565b5f601f19601f8301169050919050565b5f613907826138c5565b61391181856138cf565b93506139218185602086016138df565b61392a816138ed565b840191505092915050565b5f8115159050919050565b61394981613935565b82525050565b5f6080820190506139625f8301876138b6565b818103602083015261397481866138fd565b905061398360408301856138b6565b6139906060830184613940565b95945050505050565b5f6020820190508181035f8301526139b181846138fd565b905092915050565b5f73ffffffffffffffffffffffffffffffffffffffff82169050919050565b5f6139e2826139b9565b9050919050565b6139f2816139d8565b81146139fc575f80fd5b50565b5f81359050613a0d816139e9565b92915050565b5f8060408385031215613a2957613a28613850565b5b5f613a36858286016139ff565b9250506020613a4785828601613877565b9150509250929050565b5f602082019050613a645f830184613940565b92915050565b5f602082019050613a7d5f8301846138b6565b92915050565b5f805f60608486031215613a9a57613a99613850565b5b5f613aa7868287016139ff565b9350506020613ab8868287016139ff565b9250506040613ac986828701613877565b9150509250925092565b5f60ff82169050919050565b613ae881613ad3565b82525050565b5f602082019050613b015f830184613adf565b92915050565b5f80fd5b5f80fd5b7f4e487b71000000000000000000000000000000000000000000000000000000005f52604160045260245ffd5b613b45826138ed565b810181811067ffffffffffffffff82111715613b6457613b63613b0f565b5b80604052505050565b5f613b76613847565b9050613b828282613b3c565b919050565b5f67ffffffffffffffff821115613ba157613ba0613b0f565b5b613baa826138ed565b9050602081019050919050565b828183375f83830152505050565b5f613bd7613bd284613b87565b613b6d565b905082815260208101848484011115613bf357613bf2613b0b565b5b613bfe848285613bb7565b509392505050565b5f82601f830112613c1a57613c19613b07565b5b8135613c2a848260208601613bc5565b91505092915050565b5f60208284031215613c4857613c47613850565b5b5f82013567ffffffffffffffff811115613c6557613c64613854565b5b613c7184828501613c06565b91505092915050565b5f60208284031215613c8f57613c8e613850565b5b5f613c9c848285016139ff565b91505092915050565b613cae816139d8565b82525050565b5f602082019050613cc75f830184613ca5565b92915050565b5f63ffffffff82169050919050565b613ce581613ccd565b82525050565b5f602082019050613cfe5f830184613cdc565b92915050565b5f7fff0000000000000000000000000000000000000000000000000000000000000082169050919050565b613d3881613d04565b82525050565b5f819050919050565b613d5081613d3e565b82525050565b5f81519050919050565b5f82825260208201905092915050565b5f819050602082019050919050565b613d8881613858565b82525050565b5f613d998383613d7f565b60208301905092915050565b5f602082019050919050565b5f613dbb82613d56565b613dc58185613d60565b9350613dd083613d70565b805f5b83811015613e00578151613de78882613d8e565b9750613df283613da5565b925050600181019050613dd3565b5085935050505092915050565b5f60e082019050613e205f83018a613d2f565b8181036020830152613e3281896138fd565b90508181036040830152613e4681886138fd565b9050613e5560608301876138b6565b613e626080830186613ca5565b613e6f60a0830185613d47565b81810360c0830152613e818184613db1565b905098975050505050505050565b5f65ffffffffffff82169050919050565b613ea981613e8f565b82525050565b5f602082019050613ec25f830184613ea0565b92915050565b5f8060408385031215613ede57613edd613850565b5b5f613eeb85828601613877565b9250506020613efc85828601613877565b9150509250929050565b613f0f81613ad3565b8114613f19575f80fd5b50565b5f81359050613f2a81613f06565b92915050565b613f3981613d3e565b8114613f43575f80fd5b50565b5f81359050613f5481613f30565b92915050565b5f805f805f8060c08789031215613f7457613f73613850565b5b5f613f8189828a016139ff565b9650506020613f9289828a01613877565b9550506040613fa389828a01613877565b9450506060613fb489828a01613f1c565b9350506080613fc589828a01613f46565b92505060a0613fd689828a01613f46565b9150509295509295509295565b5f8060408385031215613ff957613ff8613850565b5b5f614006858286016139ff565b9250506020614017858286016139ff565b9150509250929050565b61402a81613ccd565b8114614034575f80fd5b50565b5f8135905061404581614021565b92915050565b5f806040838503121561406157614060613850565b5b5f61406e858286016139ff565b925050602061407f85828601614037565b9150509250929050565b61409281613e8f565b82525050565b5f79ffffffffffffffffffffffffffffffffffffffffffffffffffff82169050919050565b6140c681614098565b82525050565b604082015f8201516140e05f850182614089565b5060208201516140f360208501826140bd565b50505050565b5f60408201905061410c5f8301846140cc565b92915050565b7f4e487b71000000000000000000000000000000000000000000000000000000005f52602260045260245ffd5b5f600282049050600182168061415657607f821691505b60208210810361416957614168614112565b5b50919050565b7f6f6e6c792061646d696e20616464726573732063616e206163636573730000005f82015250565b5f6141a3601d836138cf565b91506141ae8261416f565b602082019050919050565b5f6020820190508181035f8301526141d081614197565b9050919050565b7f70726f706f73616c206e6f7420616374697665000000000000000000000000005f82015250565b5f61420b6013836138cf565b9150614216826141d7565b602082019050919050565b5f6020820190508181035f830152614238816141ff565b9050919050565b7f70726f706f73616c206e6f7420657869737400000000000000000000000000005f82015250565b5f6142736012836138cf565b915061427e8261423f565b602082019050919050565b5f6020820190508181035f8301526142a081614267565b9050919050565b7f4e487b71000000000000000000000000000000000000000000000000000000005f52601160045260245ffd5b5f6142de82613858565b91507fffffffffffffffffffffffffffffffffffffffffffffffffffffffffffffffff82036143105761430f6142a7565b5b600182019050919050565b5f819050815f5260205f209050919050565b5f6020601f8301049050919050565b5f82821b905092915050565b5f600883026143777fffffffffffffffffffffffffffffffffffffffffffffffffffffffffffffffff8261433c565b614381868361433c565b95508019841693508086168417925050509392505050565b5f819050919050565b5f6143bc6143b76143b284613858565b614399565b613858565b9050919050565b5f819050919050565b6143d5836143a2565b6143e96143e1826143c3565b848454614348565b825550505050565b5f90565b6143fd6143f1565b6144088184846143cc565b505050565b5b8181101561442b576144205f826143f5565b60018101905061440e565b5050565b601f821115614470576144418161431b565b61444a8461432d565b81016020851015614459578190505b61446d6144658561432d565b83018261440d565b50505b505050565b5f82821c905092915050565b5f6144905f1984600802614475565b1980831691505092915050565b5f6144a88383614481565b9150826002028217905092915050565b6144c1826138c5565b67ffffffffffffffff8111156144da576144d9613b0f565b5b6144e4825461413f565b6144ef82828561442f565b5f60209050601f831160018114614520575f841561450e578287015190505b614518858261449d565b86555061457f565b601f19841661452e8661431b565b5f5b8281101561455557848901518255600182019150602085019450602081019050614530565b86831015614572578489015161456e601f891682614481565b8355505b6001600288020188555050505b505050505050565b5f61459182613858565b915061459c83613858565b92508282019050808211156145b4576145b36142a7565b5b92915050565b5f6080820190506145cd5f830187613d47565b6145da6020830186613ca5565b6145e760408301856138b6565b6145f460608301846138b6565b95945050505050565b7f6f6e6c79206c6567616c206f776e657220616464726573732063616e206163635f8201527f6573730000000000000000000000000000000000000000000000000000000000602082015250565b5f6146576023836138cf565b9150614662826145fd565b604082019050919050565b5f6020820190508181035f8301526146848161464b565b9050919050565b5f61469582613858565b91506146a083613858565b92508282039050818111156146b8576146b76142a7565b5b92915050565b5f6146c882614098565b91506146d383614098565b9250828201905079ffffffffffffffffffffffffffffffffffffffffffffffffffff811115614705576147046142a7565b5b92915050565b5f61471582614098565b915061472083614098565b9250828203905079ffffffffffffffffffffffffffffffffffffffffffffffffffff811115614752576147516142a7565b5b92915050565b5f60608201905061476b5f830186613ca5565b61477860208301856138b6565b61478560408301846138b6565b949350505050565b5f6040820190506147a05f8301856138b6565b6147ad6020830184613ea0565b9392505050565b5f60a0820190506147c75f830188613ca5565b6147d460208301876138b6565b6147e160408301866138b6565b6147ee60608301856138b6565b6147fb60808301846138b6565b9695505050505050565b5f6040820190506148185f830185613ca5565b61482560208301846138b6565b9392505050565b5f60408201905061483f5f8301856138b6565b61484c60208301846138b6565b9392505050565b5f819050919050565b5f61487661487161486c84614853565b614399565b613ad3565b9050919050565b6148868161485c565b82525050565b5f60408201905061489f5f83018561487d565b6148ac60208301846138b6565b9392505050565b7f4e487b71000000000000000000000000000000000000000000000000000000005f52601260045260245ffd5b5f819050919050565b5f6149036148fe6148f9846148e0565b614399565b613ad3565b9050919050565b614913816148e9565b82525050565b5f60408201905061492c5f83018561490a565b61493960208301846138b6565b9392505050565b5f6080820190506149535f830187613d47565b6149606020830186613adf565b61496d6040830185613d47565b61497a6060830184613d47565b95945050505050565b7f4e487b71000000000000000000000000000000000000000000000000000000005f52602160045260245ffd5b5f6020820190506149c35f830184613d47565b92915050565b7f4e487b71000000000000000000000000000000000000000000000000000000005f52603260045260245ffd5b5f614a0082613858565b9150614a0b83613858565b925082614a1b57614a1a6148b3565b5b828204905092915050565b5f819050919050565b5f614a49614a44614a3f84614a26565b614399565b613ad3565b9050919050565b614a5981614a2f565b82525050565b5f604082019050614a725f830185614a50565b614a7f60208301846138b6565b9392505050565b5f60a082019050614a995f830188613d47565b614aa66020830187613d47565b614ab36040830186613d47565b614ac060608301856138b6565b614acd6080830184613ca5565b969550505050505056fea264697066735822122042aca28e08a3e6db63322a70f862eba8083dcf0e6af158a59a8dcb138166e4bf64736f6c634300081a0033",
			"opcodes": "PUSH2 0x160 PUSH1 0x40 MSTORE CALLVALUE DUP1 ISZERO PUSH2 0x10 JUMPI PUSH0 DUP1 REVERT JUMPDEST POP PUSH1 0x40 MLOAD DUP1 PUSH1 0x40 ADD PUSH1 0x40 MSTORE DUP1 PUSH1 0xA DUP2 MSTORE PUSH1 0x20 ADD PUSH32 0x4E455A48415F564F544500000000000000000000000000000000000000000000 DUP2 MSTORE POP PUSH1 0x40 MLOAD DUP1 PUSH1 0x40 ADD PUSH1 0x40 MSTORE DUP1 PUSH1 0x1 DUP2 MSTORE PUSH1 0x20 ADD PUSH32 0x3100000000000000000000000000000000000000000000000000000000000000 DUP2 MSTORE POP PUSH1 0x40 MLOAD DUP1 PUSH1 0x40 ADD PUSH1 0x40 MSTORE DUP1 PUSH1 0xA DUP2 MSTORE PUSH1 0x20 ADD PUSH32 0x4E455A48415F564F544500000000000000000000000000000000000000000000 DUP2 MSTORE POP PUSH1 0x40 MLOAD DUP1 PUSH1 0x40 ADD PUSH1 0x40 MSTORE DUP1 PUSH1 0x4 DUP2 MSTORE PUSH1 0x20 ADD PUSH32 0x4E5A5F5600000000000000000000000000000000000000000000000000000000 DUP2 MSTORE POP DUP2 PUSH1 0x3 SWAP1 DUP2 PUSH2 0xF8 SWAP2 SWAP1 PUSH2 0x125F JUMP JUMPDEST POP DUP1 PUSH1 0x4 SWAP1 DUP2 PUSH2 0x108 SWAP2 SWAP1 PUSH2 0x125F JUMP JUMPDEST POP POP POP PUSH2 0x11F PUSH1 0x5 DUP4 PUSH2 0x1E5 PUSH1 0x20 SHL SWAP1 SWAP2 SWAP1 PUSH1 0x20 SHR JUMP JUMPDEST PUSH2 0x120 DUP2 DUP2 MSTORE POP POP PUSH2 0x13B PUSH1 0x6 DUP3 PUSH2 0x1E5 PUSH1 0x20 SHL SWAP1 SWAP2 SWAP1 PUSH1 0x20 SHR JUMP JUMPDEST PUSH2 0x140 DUP2 DUP2 MSTORE POP POP DUP2 DUP1 MLOAD SWAP1 PUSH1 0x20 ADD KECCAK256 PUSH1 0xE0 DUP2 DUP2 MSTORE POP POP DUP1 DUP1 MLOAD SWAP1 PUSH1 0x20 ADD KECCAK256 PUSH2 0x100 DUP2 DUP2 MSTORE POP POP CHAINID PUSH1 0xA0 DUP2 DUP2 MSTORE POP POP PUSH2 0x178 PUSH2 0x232 PUSH1 0x20 SHL PUSH1 0x20 SHR JUMP JUMPDEST PUSH1 0x80 DUP2 DUP2 MSTORE POP POP ADDRESS PUSH20 0xFFFFFFFFFFFFFFFFFFFFFFFFFFFFFFFFFFFFFFFF AND PUSH1 0xC0 DUP2 PUSH20 0xFFFFFFFFFFFFFFFFFFFFFFFFFFFFFFFFFFFFFFFF AND DUP2 MSTORE POP POP POP POP PUSH2 0x1C4 CALLER PUSH2 0x28C PUSH1 0x20 SHL PUSH1 0x20 SHR JUMP JUMPDEST PUSH2 0x1E0 CALLER PUSH12 0x204FCE5E3E25026110000000 PUSH2 0x321 PUSH1 0x20 SHL PUSH1 0x20 SHR JUMP JUMPDEST PUSH2 0x17AA JUMP JUMPDEST PUSH0 PUSH1 0x20 DUP4 MLOAD LT ISZERO PUSH2 0x206 JUMPI PUSH2 0x1FF DUP4 PUSH2 0x3A6 PUSH1 0x20 SHL PUSH1 0x20 SHR JUMP JUMPDEST SWAP1 POP PUSH2 0x22C JUMP JUMPDEST DUP3 PUSH2 0x216 DUP4 PUSH2 0x40B PUSH1 0x20 SHL PUSH1 0x20 SHR JUMP JUMPDEST PUSH0 ADD SWAP1 DUP2 PUSH2 0x224 SWAP2 SWAP1 PUSH2 0x125F JUMP JUMPDEST POP PUSH1 0xFF PUSH0 SHL SWAP1 POP JUMPDEST SWAP3 SWAP2 POP POP JUMP JUMPDEST PUSH0 PUSH32 0x8B73C3C69BB8FE3D512ECC4CF759CC79239F7B179B0FFACAA9A75D522B39400F PUSH1 0xE0 MLOAD PUSH2 0x100 MLOAD CHAINID ADDRESS PUSH1 0x40 MLOAD PUSH1 0x20 ADD PUSH2 0x271 SWAP6 SWAP5 SWAP4 SWAP3 SWAP2 SWAP1 PUSH2 0x1394 JUMP JUMPDEST PUSH1 0x40 MLOAD PUSH1 0x20 DUP2 DUP4 SUB SUB DUP2 MSTORE SWAP1 PUSH1 0x40 MSTORE DUP1 MLOAD SWAP1 PUSH1 0x20 ADD KECCAK256 SWAP1 POP SWAP1 JUMP JUMPDEST DUP1 PUSH2 0x2DF PUSH2 0x2D4 PUSH1 0x40 MLOAD DUP1 PUSH1 0x40 ADD PUSH1 0x40 MSTORE DUP1 PUSH1 0x1C DUP2 MSTORE PUSH1 0x20 ADD PUSH32 0x4772616E7450726976696C656765732E61646D696E4164647265737300000000 DUP2 MSTORE POP PUSH2 0x414 PUSH1 0x20 SHL PUSH1 0x20 SHR JUMP JUMPDEST PUSH2 0x430 PUSH1 0x20 SHL PUSH1 0x20 SHR JUMP JUMPDEST PUSH0 ADD PUSH0 PUSH2 0x100 EXP DUP2 SLOAD DUP2 PUSH20 0xFFFFFFFFFFFFFFFFFFFFFFFFFFFFFFFFFFFFFFFF MUL NOT AND SWAP1 DUP4 PUSH20 0xFFFFFFFFFFFFFFFFFFFFFFFFFFFFFFFFFFFFFFFF AND MUL OR SWAP1 SSTORE POP POP JUMP JUMPDEST PUSH0 PUSH20 0xFFFFFFFFFFFFFFFFFFFFFFFFFFFFFFFFFFFFFFFF AND DUP3 PUSH20 0xFFFFFFFFFFFFFFFFFFFFFFFFFFFFFFFFFFFFFFFF AND SUB PUSH2 0x391 JUMPI PUSH0 PUSH1 0x40 MLOAD PUSH32 0xEC442F0500000000000000000000000000000000000000000000000000000000 DUP2 MSTORE PUSH1 0x4 ADD PUSH2 0x388 SWAP2 SWAP1 PUSH2 0x13E5 JUMP JUMPDEST PUSH1 0x40 MLOAD DUP1 SWAP2 SUB SWAP1 REVERT JUMPDEST PUSH2 0x3A2 PUSH0 DUP4 DUP4 PUSH2 0x439 PUSH1 0x20 SHL PUSH1 0x20 SHR JUMP JUMPDEST POP POP JUMP JUMPDEST PUSH0 DUP1 DUP3 SWAP1 POP PUSH1 0x1F DUP2 MLOAD GT ISZERO PUSH2 0x3F2 JUMPI DUP3 PUSH1 0x40 MLOAD PUSH32 0x305A27A900000000000000000000000000000000000000000000000000000000 DUP2 MSTORE PUSH1 0x4 ADD PUSH2 0x3E9 SWAP2 SWAP1 PUSH2 0x1464 JUMP JUMPDEST PUSH1 0x40 MLOAD DUP1 SWAP2 SUB SWAP1 REVERT JUMPDEST DUP1 MLOAD DUP2 PUSH2 0x3FE SWAP1 PUSH2 0x14B1 JUMP JUMPDEST PUSH0 SHR OR PUSH0 SHL SWAP2 POP POP SWAP2 SWAP1 POP JUMP JUMPDEST PUSH0 DUP2 SWAP1 POP SWAP2 SWAP1 POP JUMP JUMPDEST PUSH0 PUSH1 0x1 DUP3 MLOAD PUSH1 0x20 DUP5 ADD KECCAK256 SUB PUSH0 MSTORE PUSH1 0xFF NOT PUSH1 0x20 PUSH0 KECCAK256 AND SWAP1 POP SWAP2 SWAP1 POP JUMP JUMPDEST PUSH0 DUP2 SWAP1 POP SWAP2 SWAP1 POP JUMP JUMPDEST PUSH2 0x44A DUP4 DUP4 DUP4 PUSH2 0x4FF PUSH1 0x20 SHL PUSH1 0x20 SHR JUMP JUMPDEST PUSH0 PUSH20 0xFFFFFFFFFFFFFFFFFFFFFFFFFFFFFFFFFFFFFFFF AND DUP4 PUSH20 0xFFFFFFFFFFFFFFFFFFFFFFFFFFFFFFFFFFFFFFFF AND SUB PUSH2 0x4E9 JUMPI PUSH0 PUSH2 0x48C PUSH2 0x718 PUSH1 0x20 SHL PUSH1 0x20 SHR JUMP JUMPDEST SWAP1 POP PUSH0 PUSH2 0x49D PUSH2 0x721 PUSH1 0x20 SHL PUSH1 0x20 SHR JUMP JUMPDEST SWAP1 POP DUP1 DUP3 GT ISZERO PUSH2 0x4E6 JUMPI DUP2 DUP2 PUSH1 0x40 MLOAD PUSH32 0x1CB15D2600000000000000000000000000000000000000000000000000000000 DUP2 MSTORE PUSH1 0x4 ADD PUSH2 0x4DD SWAP3 SWAP2 SWAP1 PUSH2 0x1517 JUMP JUMPDEST PUSH1 0x40 MLOAD DUP1 SWAP2 SUB SWAP1 REVERT JUMPDEST POP POP JUMPDEST PUSH2 0x4FA DUP4 DUP4 DUP4 PUSH2 0x744 PUSH1 0x20 SHL PUSH1 0x20 SHR JUMP JUMPDEST POP POP POP JUMP JUMPDEST PUSH0 PUSH20 0xFFFFFFFFFFFFFFFFFFFFFFFFFFFFFFFFFFFFFFFF AND DUP4 PUSH20 0xFFFFFFFFFFFFFFFFFFFFFFFFFFFFFFFFFFFFFFFF AND SUB PUSH2 0x54F JUMPI DUP1 PUSH1 0x2 PUSH0 DUP3 DUP3 SLOAD PUSH2 0x543 SWAP2 SWAP1 PUSH2 0x156B JUMP JUMPDEST SWAP3 POP POP DUP2 SWAP1 SSTORE POP PUSH2 0x61D JUMP JUMPDEST PUSH0 DUP1 PUSH0 DUP6 PUSH20 0xFFFFFFFFFFFFFFFFFFFFFFFFFFFFFFFFFFFFFFFF AND PUSH20 0xFFFFFFFFFFFFFFFFFFFFFFFFFFFFFFFFFFFFFFFF AND DUP2 MSTORE PUSH1 0x20 ADD SWAP1 DUP2 MSTORE PUSH1 0x20 ADD PUSH0 KECCAK256 SLOAD SWAP1 POP DUP2 DUP2 LT ISZERO PUSH2 0x5D8 JUMPI DUP4 DUP2 DUP4 PUSH1 0x40 MLOAD PUSH32 0xE450D38C00000000000000000000000000000000000000000000000000000000 DUP2 MSTORE PUSH1 0x4 ADD PUSH2 0x5CF SWAP4 SWAP3 SWAP2 SWAP1 PUSH2 0x159E JUMP JUMPDEST PUSH1 0x40 MLOAD DUP1 SWAP2 SUB SWAP1 REVERT JUMPDEST DUP2 DUP2 SUB PUSH0 DUP1 DUP7 PUSH20 0xFFFFFFFFFFFFFFFFFFFFFFFFFFFFFFFFFFFFFFFF AND PUSH20 0xFFFFFFFFFFFFFFFFFFFFFFFFFFFFFFFFFFFFFFFF AND DUP2 MSTORE PUSH1 0x20 ADD SWAP1 DUP2 MSTORE PUSH1 0x20 ADD PUSH0 KECCAK256 DUP2 SWAP1 SSTORE POP POP JUMPDEST PUSH0 PUSH20 0xFFFFFFFFFFFFFFFFFFFFFFFFFFFFFFFFFFFFFFFF AND DUP3 PUSH20 0xFFFFFFFFFFFFFFFFFFFFFFFFFFFFFFFFFFFFFFFF AND SUB PUSH2 0x664 JUMPI DUP1 PUSH1 0x2 PUSH0 DUP3 DUP3 SLOAD SUB SWAP3 POP POP DUP2 SWAP1 SSTORE POP PUSH2 0x6AE JUMP JUMPDEST DUP1 PUSH0 DUP1 DUP5 PUSH20 0xFFFFFFFFFFFFFFFFFFFFFFFFFFFFFFFFFFFFFFFF AND PUSH20 0xFFFFFFFFFFFFFFFFFFFFFFFFFFFFFFFFFFFFFFFF AND DUP2 MSTORE PUSH1 0x20 ADD SWAP1 DUP2 MSTORE PUSH1 0x20 ADD PUSH0 KECCAK256 PUSH0 DUP3 DUP3 SLOAD ADD SWAP3 POP POP DUP2 SWAP1 SSTORE POP JUMPDEST DUP2 PUSH20 0xFFFFFFFFFFFFFFFFFFFFFFFFFFFFFFFFFFFFFFFF AND DUP4 PUSH20 0xFFFFFFFFFFFFFFFFFFFFFFFFFFFFFFFFFFFFFFFF AND PUSH32 0xDDF252AD1BE2C89B69C2B068FC378DAA952BA7F163C4A11628F55A4DF523B3EF DUP4 PUSH1 0x40 MLOAD PUSH2 0x70B SWAP2 SWAP1 PUSH2 0x15D3 JUMP JUMPDEST PUSH1 0x40 MLOAD DUP1 SWAP2 SUB SWAP1 LOG3 POP POP POP JUMP JUMPDEST PUSH0 PUSH1 0x2 SLOAD SWAP1 POP SWAP1 JUMP JUMPDEST PUSH0 PUSH26 0xFFFFFFFFFFFFFFFFFFFFFFFFFFFFFFFFFFFFFFFFFFFFFFFFFFFF DUP1 AND SWAP1 POP SWAP1 JUMP JUMPDEST PUSH0 PUSH20 0xFFFFFFFFFFFFFFFFFFFFFFFFFFFFFFFFFFFFFFFF AND DUP4 PUSH20 0xFFFFFFFFFFFFFFFFFFFFFFFFFFFFFFFFFFFFFFFF AND SUB PUSH2 0x7A3 JUMPI PUSH2 0x7A0 PUSH1 0xA PUSH2 0x834 PUSH1 0x20 SHL PUSH2 0x173C OR PUSH2 0x795 DUP5 PUSH2 0x849 PUSH1 0x20 SHL PUSH1 0x20 SHR JUMP JUMPDEST PUSH2 0x8B6 PUSH1 0x20 SHL PUSH1 0x20 SHR JUMP JUMPDEST POP POP JUMPDEST PUSH0 PUSH20 0xFFFFFFFFFFFFFFFFFFFFFFFFFFFFFFFFFFFFFFFF AND DUP3 PUSH20 0xFFFFFFFFFFFFFFFFFFFFFFFFFFFFFFFFFFFFFFFF AND SUB PUSH2 0x802 JUMPI PUSH2 0x7FF PUSH1 0xA PUSH2 0x8FE PUSH1 0x20 SHL PUSH2 0x1751 OR PUSH2 0x7F4 DUP5 PUSH2 0x849 PUSH1 0x20 SHL PUSH1 0x20 SHR JUMP JUMPDEST PUSH2 0x8B6 PUSH1 0x20 SHL PUSH1 0x20 SHR JUMP JUMPDEST POP POP JUMPDEST PUSH2 0x82F PUSH2 0x814 DUP5 PUSH2 0x913 PUSH1 0x20 SHL PUSH1 0x20 SHR JUMP JUMPDEST PUSH2 0x823 DUP5 PUSH2 0x913 PUSH1 0x20 SHL PUSH1 0x20 SHR JUMP JUMPDEST DUP4 PUSH2 0x978 PUSH1 0x20 SHL PUSH1 0x20 SHR JUMP JUMPDEST POP POP POP JUMP JUMPDEST PUSH0 DUP2 DUP4 PUSH2 0x841 SWAP2 SWAP1 PUSH2 0x1611 JUMP JUMPDEST SWAP1 POP SWAP3 SWAP2 POP POP JUMP JUMPDEST PUSH0 PUSH26 0xFFFFFFFFFFFFFFFFFFFFFFFFFFFFFFFFFFFFFFFFFFFFFFFFFFFF DUP1 AND DUP3 GT ISZERO PUSH2 0x8AE JUMPI PUSH1 0xD0 DUP3 PUSH1 0x40 MLOAD PUSH32 0x6DFCC65000000000000000000000000000000000000000000000000000000000 DUP2 MSTORE PUSH1 0x4 ADD PUSH2 0x8A5 SWAP3 SWAP2 SWAP1 PUSH2 0x16A3 JUMP JUMPDEST PUSH1 0x40 MLOAD DUP1 SWAP2 SUB SWAP1 REVERT JUMPDEST DUP2 SWAP1 POP SWAP2 SWAP1 POP JUMP JUMPDEST PUSH0 DUP1 PUSH2 0x8F2 PUSH2 0x8C9 PUSH2 0xC0E PUSH1 0x20 SHL PUSH1 0x20 SHR JUMP JUMPDEST PUSH2 0x8E2 PUSH2 0x8DB DUP9 PUSH2 0xC22 PUSH1 0x20 SHL PUSH1 0x20 SHR JUMP JUMPDEST DUP7 DUP9 PUSH1 0x20 SHR JUMP JUMPDEST DUP8 PUSH2 0xC8A PUSH1 0x20 SHL SWAP1 SWAP3 SWAP2 SWAP1 PUSH1 0x20 SHR JUMP JUMPDEST SWAP2 POP SWAP2 POP SWAP4 POP SWAP4 SWAP2 POP POP JUMP JUMPDEST PUSH0 DUP2 DUP4 PUSH2 0x90B SWAP2 SWAP1 PUSH2 0x16CA JUMP JUMPDEST SWAP1 POP SWAP3 SWAP2 POP POP JUMP JUMPDEST PUSH0 PUSH1 0x8 PUSH0 DUP4 PUSH20 0xFFFFFFFFFFFFFFFFFFFFFFFFFFFFFFFFFFFFFFFF AND PUSH20 0xFFFFFFFFFFFFFFFFFFFFFFFFFFFFFFFFFFFFFFFF AND DUP2 MSTORE PUSH1 0x20 ADD SWAP1 DUP2 MSTORE PUSH1 0x20 ADD PUSH0 KECCAK256 PUSH0 SWAP1 SLOAD SWAP1 PUSH2 0x100 EXP SWAP1 DIV PUSH20 0xFFFFFFFFFFFFFFFFFFFFFFFFFFFFFFFFFFFFFFFF AND SWAP1 POP SWAP2 SWAP1 POP JUMP JUMPDEST DUP2 PUSH20 0xFFFFFFFFFFFFFFFFFFFFFFFFFFFFFFFFFFFFFFFF AND DUP4 PUSH20 0xFFFFFFFFFFFFFFFFFFFFFFFFFFFFFFFFFFFFFFFF AND EQ ISZERO DUP1 ISZERO PUSH2 0x9B3 JUMPI POP PUSH0 DUP2 GT JUMPDEST ISZERO PUSH2 0xC09 JUMPI PUSH0 PUSH20 0xFFFFFFFFFFFFFFFFFFFFFFFFFFFFFFFFFFFFFFFF AND DUP4 PUSH20 0xFFFFFFFFFFFFFFFFFFFFFFFFFFFFFFFFFFFFFFFF AND EQ PUSH2 0xAE0 JUMPI PUSH0 DUP1 PUSH2 0xA51 PUSH1 0x9 PUSH0 DUP8 PUSH20 0xFFFFFFFFFFFFFFFFFFFFFFFFFFFFFFFFFFFFFFFF AND PUSH20 0xFFFFFFFFFFFFFFFFFFFFFFFFFFFFFFFFFFFFFFFF AND DUP2 MSTORE PUSH1 0x20 ADD SWAP1 DUP2 MSTORE PUSH1 0x20 ADD PUSH0 KECCAK256 PUSH2 0x8FE PUSH1 0x20 SHL PUSH2 0x1751 OR PUSH2 0xA46 DUP7 PUSH2 0x849 PUSH1 0x20 SHL PUSH1 0x20 SHR JUMP JUMPDEST PUSH2 0x8B6 PUSH1 0x20 SHL PUSH1 0x20 SHR JUMP JUMPDEST PUSH26 0xFFFFFFFFFFFFFFFFFFFFFFFFFFFFFFFFFFFFFFFFFFFFFFFFFFFF AND SWAP2 POP PUSH26 0xFFFFFFFFFFFFFFFFFFFFFFFFFFFFFFFFFFFFFFFFFFFFFFFFFFFF AND SWAP2 POP DUP5 PUSH20 0xFFFFFFFFFFFFFFFFFFFFFFFFFFFFFFFFFFFFFFFF AND PUSH32 0xDEC2BACDD2F05B59DE34DA9B523DFF8BE42E5E38E818C82FDB0BAE774387A724 DUP4 DUP4 PUSH1 0x40 MLOAD PUSH2 0xAD5 SWAP3 SWAP2 SWAP1 PUSH2 0x1517 JUMP JUMPDEST PUSH1 0x40 MLOAD DUP1 SWAP2 SUB SWAP1 LOG2 POP POP JUMPDEST PUSH0 PUSH20 0xFFFFFFFFFFFFFFFFFFFFFFFFFFFFFFFFFFFFFFFF AND DUP3 PUSH20 0xFFFFFFFFFFFFFFFFFFFFFFFFFFFFFFFFFFFFFFFF AND EQ PUSH2 0xC08 JUMPI PUSH0 DUP1 PUSH2 0xB79 PUSH1 0x9 PUSH0 DUP7 PUSH20 0xFFFFFFFFFFFFFFFFFFFFFFFFFFFFFFFFFFFFFFFF AND PUSH20 0xFFFFFFFFFFFFFFFFFFFFFFFFFFFFFFFFFFFFFFFF AND DUP2 MSTORE PUSH1 0x20 ADD SWAP1 DUP2 MSTORE PUSH1 0x20 ADD PUSH0 KECCAK256 PUSH2 0x834 PUSH1 0x20 SHL PUSH2 0x173C OR PUSH2 0xB6E DUP7 PUSH2 0x849 PUSH1 0x20 SHL PUSH1 0x20 SHR JUMP JUMPDEST PUSH2 0x8B6 PUSH1 0x20 SHL PUSH1 0x20 SHR JUMP JUMPDEST PUSH26 0xFFFFFFFFFFFFFFFFFFFFFFFFFFFFFFFFFFFFFFFFFFFFFFFFFFFF AND SWAP2 POP PUSH26 0xFFFFFFFFFFFFFFFFFFFFFFFFFFFFFFFFFFFFFFFFFFFFFFFFFFFF AND SWAP2 POP DUP4 PUSH20 0xFFFFFFFFFFFFFFFFFFFFFFFFFFFFFFFFFFFFFFFF AND PUSH32 0xDEC2BACDD2F05B59DE34DA9B523DFF8BE42E5E38E818C82FDB0BAE774387A724 DUP4 DUP4 PUSH1 0x40 MLOAD PUSH2 0xBFD SWAP3 SWAP2 SWAP1 PUSH2 0x1517 JUMP JUMPDEST PUSH1 0x40 MLOAD DUP1 SWAP2 SUB SWAP1 LOG2 POP POP JUMPDEST JUMPDEST POP POP POP JUMP JUMPDEST PUSH0 PUSH2 0xC1D PUSH2 0xCAB PUSH1 0x20 SHL PUSH1 0x20 SHR JUMP JUMPDEST SWAP1 POP SWAP1 JUMP JUMPDEST PUSH0 DUP1 DUP3 PUSH0 ADD DUP1 SLOAD SWAP1 POP SWAP1 POP PUSH0 DUP2 EQ PUSH2 0xC80 JUMPI PUSH2 0xC52 DUP4 PUSH0 ADD PUSH1 0x1 DUP4 PUSH2 0xC47 SWAP2 SWAP1 PUSH2 0x1717 JUMP JUMPDEST PUSH2 0xCC0 PUSH1 0x20 SHL PUSH1 0x20 SHR JUMP JUMPDEST PUSH0 ADD PUSH1 0x6 SWAP1 SLOAD SWAP1 PUSH2 0x100 EXP SWAP1 DIV PUSH26 0xFFFFFFFFFFFFFFFFFFFFFFFFFFFFFFFFFFFFFFFFFFFFFFFFFFFF AND PUSH2 0xC82 JUMP JUMPDEST PUSH0 JUMPDEST SWAP2 POP POP SWAP2 SWAP1 POP JUMP JUMPDEST PUSH0 DUP1 PUSH2 0xC9F DUP6 PUSH0 ADD DUP6 DUP6 PUSH2 0xCD2 PUSH1 0x20 SHL PUSH1 0x20 SHR JUMP JUMPDEST SWAP2 POP SWAP2 POP SWAP4 POP SWAP4 SWAP2 POP POP JUMP JUMPDEST PUSH0 PUSH2 0xCBB NUMBER PUSH2 0xFCC PUSH1 0x20 SHL PUSH1 0x20 SHR JUMP JUMPDEST SWAP1 POP SWAP1 JUMP JUMPDEST PUSH0 DUP3 PUSH0 MSTORE DUP2 PUSH1 0x20 PUSH0 KECCAK256 ADD SWAP1 POP SWAP3 SWAP2 POP POP JUMP JUMPDEST PUSH0 DUP1 PUSH0 DUP6 DUP1 SLOAD SWAP1 POP SWAP1 POP PUSH0 DUP2 GT ISZERO PUSH2 0xEE4 JUMPI PUSH0 PUSH2 0xD01 DUP8 PUSH1 0x1 DUP5 PUSH2 0xCF6 SWAP2 SWAP1 PUSH2 0x1717 JUMP JUMPDEST PUSH2 0xCC0 PUSH1 0x20 SHL PUSH1 0x20 SHR JUMP JUMPDEST SWAP1 POP PUSH0 DUP2 PUSH0 ADD PUSH0 SWAP1 SLOAD SWAP1 PUSH2 0x100 EXP SWAP1 DIV PUSH6 0xFFFFFFFFFFFF AND SWAP1 POP PUSH0 DUP3 PUSH0 ADD PUSH1 0x6 SWAP1 SLOAD SWAP1 PUSH2 0x100 EXP SWAP1 DIV PUSH26 0xFFFFFFFFFFFFFFFFFFFFFFFFFFFFFFFFFFFFFFFFFFFFFFFFFFFF AND SWAP1 POP DUP8 PUSH6 0xFFFFFFFFFFFF AND DUP3 PUSH6 0xFFFFFFFFFFFF AND GT ISZERO PUSH2 0xD92 JUMPI PUSH1 0x40 MLOAD PUSH32 0x2520601D00000000000000000000000000000000000000000000000000000000 DUP2 MSTORE PUSH1 0x4 ADD PUSH1 0x40 MLOAD DUP1 SWAP2 SUB SWAP1 REVERT JUMPDEST DUP8 PUSH6 0xFFFFFFFFFFFF AND DUP3 PUSH6 0xFFFFFFFFFFFF AND SUB PUSH2 0xDFC JUMPI DUP7 DUP4 PUSH0 ADD PUSH1 0x6 PUSH2 0x100 EXP DUP2 SLOAD DUP2 PUSH26 0xFFFFFFFFFFFFFFFFFFFFFFFFFFFFFFFFFFFFFFFFFFFFFFFFFFFF MUL NOT AND SWAP1 DUP4 PUSH26 0xFFFFFFFFFFFFFFFFFFFFFFFFFFFFFFFFFFFFFFFFFFFFFFFFFFFF AND MUL OR SWAP1 SSTORE POP PUSH2 0xED5 JUMP JUMPDEST DUP9 PUSH1 0x40 MLOAD DUP1 PUSH1 0x40 ADD PUSH1 0x40 MSTORE DUP1 DUP11 PUSH6 0xFFFFFFFFFFFF AND DUP2 MSTORE PUSH1 0x20 ADD DUP10 PUSH26 0xFFFFFFFFFFFFFFFFFFFFFFFFFFFFFFFFFFFFFFFFFFFFFFFFFFFF AND DUP2 MSTORE POP SWAP1 DUP1 PUSH1 0x1 DUP2 SLOAD ADD DUP1 DUP3 SSTORE DUP1 SWAP2 POP POP PUSH1 0x1 SWAP1 SUB SWAP1 PUSH0 MSTORE PUSH1 0x20 PUSH0 KECCAK256 ADD PUSH0 SWAP1 SWAP2 SWAP1 SWAP2 SWAP1 SWAP2 POP PUSH0 DUP3 ADD MLOAD DUP2 PUSH0 ADD PUSH0 PUSH2 0x100 EXP DUP2 SLOAD DUP2 PUSH6 0xFFFFFFFFFFFF MUL NOT AND SWAP1 DUP4 PUSH6 0xFFFFFFFFFFFF AND MUL OR SWAP1 SSTORE POP PUSH1 0x20 DUP3 ADD MLOAD DUP2 PUSH0 ADD PUSH1 0x6 PUSH2 0x100 EXP DUP2 SLOAD DUP2 PUSH26 0xFFFFFFFFFFFFFFFFFFFFFFFFFFFFFFFFFFFFFFFFFFFFFFFFFFFF MUL NOT AND SWAP1 DUP4 PUSH26 0xFFFFFFFFFFFFFFFFFFFFFFFFFFFFFFFFFFFFFFFFFFFFFFFFFFFF AND MUL OR SWAP1 SSTORE POP POP POP JUMPDEST DUP1 DUP8 SWAP6 POP SWAP6 POP POP POP POP POP PUSH2 0xFC4 JUMP JUMPDEST DUP6 PUSH1 0x40 MLOAD DUP1 PUSH1 0x40 ADD PUSH1 0x40 MSTORE DUP1 DUP8 PUSH6 0xFFFFFFFFFFFF AND DUP2 MSTORE PUSH1 0x20 ADD DUP7 PUSH26 0xFFFFFFFFFFFFFFFFFFFFFFFFFFFFFFFFFFFFFFFFFFFFFFFFFFFF AND DUP2 MSTORE POP SWAP1 DUP1 PUSH1 0x1 DUP2 SLOAD ADD DUP1 DUP3 SSTORE DUP1 SWAP2 POP POP PUSH1 0x1 SWAP1 SUB SWAP1 PUSH0 MSTORE PUSH1 0x20 PUSH0 KECCAK256 ADD PUSH0 SWAP1 SWAP2 SWAP1 SWAP2 SWAP1 SWAP2 POP PUSH0 DUP3 ADD MLOAD DUP2 PUSH0 ADD PUSH0 PUSH2 0x100 EXP DUP2 SLOAD DUP2 PUSH6 0xFFFFFFFFFFFF MUL NOT AND SWAP1 DUP4 PUSH6 0xFFFFFFFFFFFF AND MUL OR SWAP1 SSTORE POP PUSH1 0x20 DUP3 ADD MLOAD DUP2 PUSH0 ADD PUSH1 0x6 PUSH2 0x100 EXP DUP2 SLOAD DUP2 PUSH26 0xFFFFFFFFFFFFFFFFFFFFFFFFFFFFFFFFFFFFFFFFFFFFFFFFFFFF MUL NOT AND SWAP1 DUP4 PUSH26 0xFFFFFFFFFFFFFFFFFFFFFFFFFFFFFFFFFFFFFFFFFFFFFFFFFFFF AND MUL OR SWAP1 SSTORE POP POP POP PUSH0 DUP5 SWAP3 POP SWAP3 POP POP JUMPDEST SWAP4 POP SWAP4 SWAP2 POP POP JUMP JUMPDEST PUSH0 PUSH6 0xFFFFFFFFFFFF DUP1 AND DUP3 GT ISZERO PUSH2 0x101D JUMPI PUSH1 0x30 DUP3 PUSH1 0x40 MLOAD PUSH32 0x6DFCC65000000000000000000000000000000000000000000000000000000000 DUP2 MSTORE PUSH1 0x4 ADD PUSH2 0x1014 SWAP3 SWAP2 SWAP1 PUSH2 0x1783 JUMP JUMPDEST PUSH1 0x40 MLOAD DUP1 SWAP2 SUB SWAP1 REVERT JUMPDEST DUP2 SWAP1 POP SWAP2 SWAP1 POP JUMP JUMPDEST PUSH0 DUP2 MLOAD SWAP1 POP SWAP2 SWAP1 POP JUMP JUMPDEST PUSH32 0x4E487B7100000000000000000000000000000000000000000000000000000000 PUSH0 MSTORE PUSH1 0x41 PUSH1 0x4 MSTORE PUSH1 0x24 PUSH0 REVERT JUMPDEST PUSH32 0x4E487B7100000000000000000000000000000000000000000000000000000000 PUSH0 MSTORE PUSH1 0x22 PUSH1 0x4 MSTORE PUSH1 0x24 PUSH0 REVERT JUMPDEST PUSH0 PUSH1 0x2 DUP3 DIV SWAP1 POP PUSH1 0x1 DUP3 AND DUP1 PUSH2 0x10A0 JUMPI PUSH1 0x7F DUP3 AND SWAP2 POP JUMPDEST PUSH1 0x20 DUP3 LT DUP2 SUB PUSH2 0x10B3 JUMPI PUSH2 0x10B2 PUSH2 0x105C JUMP JUMPDEST JUMPDEST POP SWAP2 SWAP1 POP JUMP JUMPDEST PUSH0 DUP2 SWAP1 POP DUP2 PUSH0 MSTORE PUSH1 0x20 PUSH0 KECCAK256 SWAP1 POP SWAP2 SWAP1 POP JUMP JUMPDEST PUSH0 PUSH1 0x20 PUSH1 0x1F DUP4 ADD DIV SWAP1 POP SWAP2 SWAP1 POP JUMP JUMPDEST PUSH0 DUP3 DUP3 SHL SWAP1 POP SWAP3 SWAP2 POP POP JUMP JUMPDEST PUSH0 PUSH1 0x8 DUP4 MUL PUSH2 0x1115 PUSH32 0xFFFFFFFFFFFFFFFFFFFFFFFFFFFFFFFFFFFFFFFFFFFFFFFFFFFFFFFFFFFFFFFF DUP3 PUSH2 0x10DA JUMP JUMPDEST PUSH2 0x111F DUP7 DUP4 PUSH2 0x10DA JUMP JUMPDEST SWAP6 POP DUP1 NOT DUP5 AND SWAP4 POP DUP1 DUP7 AND DUP5 OR SWAP3 POP POP POP SWAP4 SWAP3 POP POP POP JUMP JUMPDEST PUSH0 DUP2 SWAP1 POP SWAP2 SWAP1 POP JUMP JUMPDEST PUSH0 DUP2 SWAP1 POP SWAP2 SWAP1 POP JUMP JUMPDEST PUSH0 PUSH2 0x1163 PUSH2 0x115E PUSH2 0x1159 DUP5 PUSH2 0x1137 JUMP JUMPDEST PUSH2 0x1140 JUMP JUMPDEST PUSH2 0x1137 JUMP JUMPDEST SWAP1 POP SWAP2 SWAP1 POP JUMP JUMPDEST PUSH0 DUP2 SWAP1 POP SWAP2 SWAP1 POP JUMP JUMPDEST PUSH2 0x117C DUP4 PUSH2 0x1149 JUMP JUMPDEST PUSH2 0x1190 PUSH2 0x1188 DUP3 PUSH2 0x116A JUMP JUMPDEST DUP5 DUP5 SLOAD PUSH2 0x10E6 JUMP JUMPDEST DUP3 SSTORE POP POP POP POP JUMP JUMPDEST PUSH0 SWAP1 JUMP JUMPDEST PUSH2 0x11A4 PUSH2 0x1198 JUMP JUMPDEST PUSH2 0x11AF DUP2 DUP5 DUP5 PUSH2 0x1173 JUMP JUMPDEST POP POP POP JUMP JUMPDEST JUMPDEST DUP2 DUP2 LT ISZERO PUSH2 0x11D2 JUMPI PUSH2 0x11C7 PUSH0 DUP3 PUSH2 0x119C JUMP JUMPDEST PUSH1 0x1 DUP2 ADD SWAP1 POP PUSH2 0x11B5 JUMP JUMPDEST POP POP JUMP JUMPDEST PUSH1 0x1F DUP3 GT ISZERO PUSH2 0x1217 JUMPI PUSH2 0x11E8 DUP2 PUSH2 0x10B9 JUMP JUMPDEST PUSH2 0x11F1 DUP5 PUSH2 0x10CB JUMP JUMPDEST DUP2 ADD PUSH1 0x20 DUP6 LT ISZERO PUSH2 0x1200 JUMPI DUP2 SWAP1 POP JUMPDEST PUSH2 0x1214 PUSH2 0x120C DUP6 PUSH2 0x10CB JUMP JUMPDEST DUP4 ADD DUP3 PUSH2 0x11B4 JUMP JUMPDEST POP POP JUMPDEST POP POP POP JUMP JUMPDEST PUSH0 DUP3 DUP3 SHR SWAP1 POP SWAP3 SWAP2 POP POP JUMP JUMPDEST PUSH0 PUSH2 0x1237 PUSH0 NOT DUP5 PUSH1 0x8 MUL PUSH2 0x121C JUMP JUMPDEST NOT DUP1 DUP4 AND SWAP2 POP POP SWAP3 SWAP2 POP POP JUMP JUMPDEST PUSH0 PUSH2 0x124F DUP4 DUP4 PUSH2 0x1228 JUMP JUMPDEST SWAP2 POP DUP3 PUSH1 0x2 MUL DUP3 OR SWAP1 POP SWAP3 SWAP2 POP POP JUMP JUMPDEST PUSH2 0x1268 DUP3 PUSH2 0x1025 JUMP JUMPDEST PUSH8 0xFFFFFFFFFFFFFFFF DUP2 GT ISZERO PUSH2 0x1281 JUMPI PUSH2 0x1280 PUSH2 0x102F JUMP JUMPDEST JUMPDEST PUSH2 0x128B DUP3 SLOAD PUSH2 0x1089 JUMP JUMPDEST PUSH2 0x1296 DUP3 DUP3 DUP6 PUSH2 0x11D6 JUMP JUMPDEST PUSH0 PUSH1 0x20 SWAP1 POP PUSH1 0x1F DUP4 GT PUSH1 0x1 DUP2 EQ PUSH2 0x12C7 JUMPI PUSH0 DUP5 ISZERO PUSH2 0x12B5 JUMPI DUP3 DUP8 ADD MLOAD SWAP1 POP JUMPDEST PUSH2 0x12BF DUP6 DUP3 PUSH2 0x1244 JUMP JUMPDEST DUP7 SSTORE POP PUSH2 0x1326 JUMP JUMPDEST PUSH1 0x1F NOT DUP5 AND PUSH2 0x12D5 DUP7 PUSH2 0x10B9 JUMP JUMPDEST PUSH0 JUMPDEST DUP3 DUP2 LT ISZERO PUSH2 0x12FC JUMPI DUP5 DUP10 ADD MLOAD DUP3 SSTORE PUSH1 0x1 DUP3 ADD SWAP2 POP PUSH1 0x20 DUP6 ADD SWAP5 POP PUSH1 0x20 DUP2 ADD SWAP1 POP PUSH2 0x12D7 JUMP JUMPDEST DUP7 DUP4 LT ISZERO PUSH2 0x1319 JUMPI DUP5 DUP10 ADD MLOAD PUSH2 0x1315 PUSH1 0x1F DUP10 AND DUP3 PUSH2 0x1228 JUMP JUMPDEST DUP4 SSTORE POP JUMPDEST PUSH1 0x1 PUSH1 0x2 DUP9 MUL ADD DUP9 SSTORE POP POP POP JUMPDEST POP POP POP POP POP POP JUMP JUMPDEST PUSH0 DUP2 SWAP1 POP SWAP2 SWAP1 POP JUMP JUMPDEST PUSH2 0x1340 DUP2 PUSH2 0x132E JUMP JUMPDEST DUP3 MSTORE POP POP JUMP JUMPDEST PUSH2 0x134F DUP2 PUSH2 0x1137 JUMP JUMPDEST DUP3 MSTORE POP POP JUMP JUMPDEST PUSH0 PUSH20 0xFFFFFFFFFFFFFFFFFFFFFFFFFFFFFFFFFFFFFFFF DUP3 AND SWAP1 POP SWAP2 SWAP1 POP JUMP JUMPDEST PUSH0 PUSH2 0x137E DUP3 PUSH2 0x1355 JUMP JUMPDEST SWAP1 POP SWAP2 SWAP1 POP JUMP JUMPDEST PUSH2 0x138E DUP2 PUSH2 0x1374 JUMP JUMPDEST DUP3 MSTORE POP POP JUMP JUMPDEST PUSH0 PUSH1 0xA0 DUP3 ADD SWAP1 POP PUSH2 0x13A7 PUSH0 DUP4 ADD DUP9 PUSH2 0x1337 JUMP JUMPDEST PUSH2 0x13B4 PUSH1 0x20 DUP4 ADD DUP8 PUSH2 0x1337 JUMP JUMPDEST PUSH2 0x13C1 PUSH1 0x40 DUP4 ADD DUP7 PUSH2 0x1337 JUMP JUMPDEST PUSH2 0x13CE PUSH1 0x60 DUP4 ADD DUP6 PUSH2 0x1346 JUMP JUMPDEST PUSH2 0x13DB PUSH1 0x80 DUP4 ADD DUP5 PUSH2 0x1385 JUMP JUMPDEST SWAP7 SWAP6 POP POP POP POP POP POP JUMP JUMPDEST PUSH0 PUSH1 0x20 DUP3 ADD SWAP1 POP PUSH2 0x13F8 PUSH0 DUP4 ADD DUP5 PUSH2 0x1385 JUMP JUMPDEST SWAP3 SWAP2 POP POP JUMP JUMPDEST PUSH0 DUP3 DUP3 MSTORE PUSH1 0x20 DUP3 ADD SWAP1 POP SWAP3 SWAP2 POP POP JUMP JUMPDEST DUP3 DUP2 DUP4 MCOPY PUSH0 DUP4 DUP4 ADD MSTORE POP POP POP JUMP JUMPDEST PUSH0 PUSH1 0x1F NOT PUSH1 0x1F DUP4 ADD AND SWAP1 POP SWAP2 SWAP1 POP JUMP JUMPDEST PUSH0 PUSH2 0x1436 DUP3 PUSH2 0x1025 JUMP JUMPDEST PUSH2 0x1440 DUP2 DUP6 PUSH2 0x13FE JUMP JUMPDEST SWAP4 POP PUSH2 0x1450 DUP2 DUP6 PUSH1 0x20 DUP7 ADD PUSH2 0x140E JUMP JUMPDEST PUSH2 0x1459 DUP2 PUSH2 0x141C JUMP JUMPDEST DUP5 ADD SWAP2 POP POP SWAP3 SWAP2 POP POP JUMP JUMPDEST PUSH0 PUSH1 0x20 DUP3 ADD SWAP1 POP DUP2 DUP2 SUB PUSH0 DUP4 ADD MSTORE PUSH2 0x147C DUP2 DUP5 PUSH2 0x142C JUMP JUMPDEST SWAP1 POP SWAP3 SWAP2 POP POP JUMP JUMPDEST PUSH0 DUP2 MLOAD SWAP1 POP SWAP2 SWAP1 POP JUMP JUMPDEST PUSH0 DUP2 SWAP1 POP PUSH1 0x20 DUP3 ADD SWAP1 POP SWAP2 SWAP1 POP JUMP JUMPDEST PUSH0 PUSH2 0x14A8 DUP3 MLOAD PUSH2 0x132E JUMP JUMPDEST DUP1 SWAP2 POP POP SWAP2 SWAP1 POP JUMP JUMPDEST PUSH0 PUSH2 0x14BB DUP3 PUSH2 0x1484 JUMP JUMPDEST DUP3 PUSH2 0x14C5 DUP5 PUSH2 0x148E JUMP JUMPDEST SWAP1 POP PUSH2 0x14D0 DUP2 PUSH2 0x149D JUMP JUMPDEST SWAP3 POP PUSH1 0x20 DUP3 LT ISZERO PUSH2 0x1510 JUMPI PUSH2 0x150B PUSH32 0xFFFFFFFFFFFFFFFFFFFFFFFFFFFFFFFFFFFFFFFFFFFFFFFFFFFFFFFFFFFFFFFF DUP4 PUSH1 0x20 SUB PUSH1 0x8 MUL PUSH2 0x10DA JUMP JUMPDEST DUP4 AND SWAP3 POP JUMPDEST POP POP SWAP2 SWAP1 POP JUMP JUMPDEST PUSH0 PUSH1 0x40 DUP3 ADD SWAP1 POP PUSH2 0x152A PUSH0 DUP4 ADD DUP6 PUSH2 0x1346 JUMP JUMPDEST PUSH2 0x1537 PUSH1 0x20 DUP4 ADD DUP5 PUSH2 0x1346 JUMP JUMPDEST SWAP4 SWAP3 POP POP POP JUMP JUMPDEST PUSH32 0x4E487B7100000000000000000000000000000000000000000000000000000000 PUSH0 MSTORE PUSH1 0x11 PUSH1 0x4 MSTORE PUSH1 0x24 PUSH0 REVERT JUMPDEST PUSH0 PUSH2 0x1575 DUP3 PUSH2 0x1137 JUMP JUMPDEST SWAP2 POP PUSH2 0x1580 DUP4 PUSH2 0x1137 JUMP JUMPDEST SWAP3 POP DUP3 DUP3 ADD SWAP1 POP DUP1 DUP3 GT ISZERO PUSH2 0x1598 JUMPI PUSH2 0x1597 PUSH2 0x153E JUMP JUMPDEST JUMPDEST SWAP3 SWAP2 POP POP JUMP JUMPDEST PUSH0 PUSH1 0x60 DUP3 ADD SWAP1 POP PUSH2 0x15B1 PUSH0 DUP4 ADD DUP7 PUSH2 0x1385 JUMP JUMPDEST PUSH2 0x15BE PUSH1 0x20 DUP4 ADD DUP6 PUSH2 0x1346 JUMP JUMPDEST PUSH2 0x15CB PUSH1 0x40 DUP4 ADD DUP5 PUSH2 0x1346 JUMP JUMPDEST SWAP5 SWAP4 POP POP POP POP JUMP JUMPDEST PUSH0 PUSH1 0x20 DUP3 ADD SWAP1 POP PUSH2 0x15E6 PUSH0 DUP4 ADD DUP5 PUSH2 0x1346 JUMP JUMPDEST SWAP3 SWAP2 POP POP JUMP JUMPDEST PUSH0 PUSH26 0xFFFFFFFFFFFFFFFFFFFFFFFFFFFFFFFFFFFFFFFFFFFFFFFFFFFF DUP3 AND SWAP1 POP SWAP2 SWAP1 POP JUMP JUMPDEST PUSH0 PUSH2 0x161B DUP3 PUSH2 0x15EC JUMP JUMPDEST SWAP2 POP PUSH2 0x1626 DUP4 PUSH2 0x15EC JUMP JUMPDEST SWAP3 POP DUP3 DUP3 ADD SWAP1 POP PUSH26 0xFFFFFFFFFFFFFFFFFFFFFFFFFFFFFFFFFFFFFFFFFFFFFFFFFFFF DUP2 GT ISZERO PUSH2 0x1658 JUMPI PUSH2 0x1657 PUSH2 0x153E JUMP JUMPDEST JUMPDEST SWAP3 SWAP2 POP POP JUMP JUMPDEST PUSH0 DUP2 SWAP1 POP SWAP2 SWAP1 POP JUMP JUMPDEST PUSH0 PUSH1 0xFF DUP3 AND SWAP1 POP SWAP2 SWAP1 POP JUMP JUMPDEST PUSH0 PUSH2 0x168D PUSH2 0x1688 PUSH2 0x1683 DUP5 PUSH2 0x165E JUMP JUMPDEST PUSH2 0x1140 JUMP JUMPDEST PUSH2 0x1667 JUMP JUMPDEST SWAP1 POP SWAP2 SWAP1 POP JUMP JUMPDEST PUSH2 0x169D DUP2 PUSH2 0x1673 JUMP JUMPDEST DUP3 MSTORE POP POP JUMP JUMPDEST PUSH0 PUSH1 0x40 DUP3 ADD SWAP1 POP PUSH2 0x16B6 PUSH0 DUP4 ADD DUP6 PUSH2 0x1694 JUMP JUMPDEST PUSH2 0x16C3 PUSH1 0x20 DUP4 ADD DUP5 PUSH2 0x1346 JUMP JUMPDEST SWAP4 SWAP3 POP POP POP JUMP JUMPDEST PUSH0 PUSH2 0x16D4 DUP3 PUSH2 0x15EC JUMP JUMPDEST SWAP2 POP PUSH2 0x16DF DUP4 PUSH2 0x15EC JUMP JUMPDEST SWAP3 POP DUP3 DUP3 SUB SWAP1 POP PUSH26 0xFFFFFFFFFFFFFFFFFFFFFFFFFFFFFFFFFFFFFFFFFFFFFFFFFFFF DUP2 GT ISZERO PUSH2 0x1711 JUMPI PUSH2 0x1710 PUSH2 0x153E JUMP JUMPDEST JUMPDEST SWAP3 SWAP2 POP POP JUMP JUMPDEST PUSH0 PUSH2 0x1721 DUP3 PUSH2 0x1137 JUMP JUMPDEST SWAP2 POP PUSH2 0x172C DUP4 PUSH2 0x1137 JUMP JUMPDEST SWAP3 POP DUP3 DUP3 SUB SWAP1 POP DUP2 DUP2 GT ISZERO PUSH2 0x1744 JUMPI PUSH2 0x1743 PUSH2 0x153E JUMP JUMPDEST JUMPDEST SWAP3 SWAP2 POP POP JUMP JUMPDEST PUSH0 DUP2 SWAP1 POP SWAP2 SWAP1 POP JUMP JUMPDEST PUSH0 PUSH2 0x176D PUSH2 0x1768 PUSH2 0x1763 DUP5 PUSH2 0x174A JUMP JUMPDEST PUSH2 0x1140 JUMP JUMPDEST PUSH2 0x1667 JUMP JUMPDEST SWAP1 POP SWAP2 SWAP1 POP JUMP JUMPDEST PUSH2 0x177D DUP2 PUSH2 0x1753 JUMP JUMPDEST DUP3 MSTORE POP POP JUMP JUMPDEST PUSH0 PUSH1 0x40 DUP3 ADD SWAP1 POP PUSH2 0x1796 PUSH0 DUP4 ADD DUP6 PUSH2 0x1774 JUMP JUMPDEST PUSH2 0x17A3 PUSH1 0x20 DUP4 ADD DUP5 PUSH2 0x1346 JUMP JUMPDEST SWAP4 SWAP3 POP POP POP JUMP JUMPDEST PUSH1 0x80 MLOAD PUSH1 0xA0 MLOAD PUSH1 0xC0 MLOAD PUSH1 0xE0 MLOAD PUSH2 0x100 MLOAD PUSH2 0x120 MLOAD PUSH2 0x140 MLOAD PUSH2 0x4B0D PUSH2 0x17FB PUSH0 CODECOPY PUSH0 PUSH2 0x1F78 ADD MSTORE PUSH0 PUSH2 0x1F3D ADD MSTORE PUSH0 PUSH2 0x345E ADD MSTORE PUSH0 PUSH2 0x343D ADD MSTORE PUSH0 PUSH2 0x2B79 ADD MSTORE PUSH0 PUSH2 0x2BCF ADD MSTORE PUSH0 PUSH2 0x2BF8 ADD MSTORE PUSH2 0x4B0D PUSH0 RETURN INVALID PUSH1 0x80 PUSH1 0x40 MSTORE CALLVALUE DUP1 ISZERO PUSH2 0xF JUMPI PUSH0 DUP1 REVERT JUMPDEST POP PUSH1 0x4 CALLDATASIZE LT PUSH2 0x230 JUMPI PUSH0 CALLDATALOAD PUSH1 0xE0 SHR DUP1 PUSH4 0x5C19A95C GT PUSH2 0x12E JUMPI DUP1 PUSH4 0x95CFBF6D GT PUSH2 0xB6 JUMPI DUP1 PUSH4 0xB384ABEF GT PUSH2 0x7A JUMPI DUP1 PUSH4 0xB384ABEF EQ PUSH2 0x6CF JUMPI DUP1 PUSH4 0xC3CDA520 EQ PUSH2 0x6EB JUMPI DUP1 PUSH4 0xDD62ED3E EQ PUSH2 0x707 JUMPI DUP1 PUSH4 0xEFB98BCF EQ PUSH2 0x737 JUMPI DUP1 PUSH4 0xF1127ED8 EQ PUSH2 0x755 JUMPI PUSH2 0x230 JUMP JUMPDEST DUP1 PUSH4 0x95CFBF6D EQ PUSH2 0x615 JUMPI DUP1 PUSH4 0x95D89B41 EQ PUSH2 0x633 JUMPI DUP1 PUSH4 0x9AB24EB0 EQ PUSH2 0x651 JUMPI DUP1 PUSH4 0xA9059CBB EQ PUSH2 0x681 JUMPI DUP1 PUSH4 0xB2E6B912 EQ PUSH2 0x6B1 JUMPI PUSH2 0x230 JUMP JUMPDEST DUP1 PUSH4 0x7ECEBE00 GT PUSH2 0xFD JUMPI DUP1 PUSH4 0x7ECEBE00 EQ PUSH2 0x557 JUMPI DUP1 PUSH4 0x84B0196E EQ PUSH2 0x587 JUMPI DUP1 PUSH4 0x8E539E8C EQ PUSH2 0x5AB JUMPI DUP1 PUSH4 0x8F283970 EQ PUSH2 0x5DB JUMPI DUP1 PUSH4 0x91DDADF4 EQ PUSH2 0x5F7 JUMPI PUSH2 0x230 JUMP JUMPDEST DUP1 PUSH4 0x5C19A95C EQ PUSH2 0x4BF JUMPI DUP1 PUSH4 0x6FCFFF45 EQ PUSH2 0x4DB JUMPI DUP1 PUSH4 0x70A08231 EQ PUSH2 0x50B JUMPI DUP1 PUSH4 0x79CC6790 EQ PUSH2 0x53B JUMPI PUSH2 0x230 JUMP JUMPDEST DUP1 PUSH4 0x31288F40 GT PUSH2 0x1BC JUMPI DUP1 PUSH4 0x42966C68 GT PUSH2 0x180 JUMPI DUP1 PUSH4 0x42966C68 EQ PUSH2 0x41B JUMPI DUP1 PUSH4 0x49C2A1A6 EQ PUSH2 0x437 JUMPI DUP1 PUSH4 0x4BF5D7E9 EQ PUSH2 0x453 JUMPI DUP1 PUSH4 0x4E3E26AE EQ PUSH2 0x471 JUMPI DUP1 PUSH4 0x587CDE1E EQ PUSH2 0x48F JUMPI PUSH2 0x230 JUMP JUMPDEST DUP1 PUSH4 0x31288F40 EQ PUSH2 0x379 JUMPI DUP1 PUSH4 0x313CE567 EQ PUSH2 0x395 JUMPI DUP1 PUSH4 0x3A46B1A8 EQ PUSH2 0x3B3 JUMPI DUP1 PUSH4 0x3CC38F5C EQ PUSH2 0x3E3 JUMPI DUP1 PUSH4 0x40C10F19 EQ PUSH2 0x3FF JUMPI PUSH2 0x230 JUMP JUMPDEST DUP1 PUSH4 0xC0512E9 GT PUSH2 0x203 JUMPI DUP1 PUSH4 0xC0512E9 EQ PUSH2 0x2D1 JUMPI DUP1 PUSH4 0x18160DDD EQ PUSH2 0x2EF JUMPI DUP1 PUSH4 0x18821400 EQ PUSH2 0x30D JUMPI DUP1 PUSH4 0x23B872DD EQ PUSH2 0x32B JUMPI DUP1 PUSH4 0x2A905318 EQ PUSH2 0x35B JUMPI PUSH2 0x230 JUMP JUMPDEST DUP1 PUSH4 0x13CF08B EQ PUSH2 0x234 JUMPI DUP1 PUSH4 0x386A016 EQ PUSH2 0x267 JUMPI DUP1 PUSH4 0x6FDDE03 EQ PUSH2 0x283 JUMPI DUP1 PUSH4 0x95EA7B3 EQ PUSH2 0x2A1 JUMPI JUMPDEST PUSH0 DUP1 REVERT JUMPDEST PUSH2 0x24E PUSH1 0x4 DUP1 CALLDATASIZE SUB DUP2 ADD SWAP1 PUSH2 0x249 SWAP2 SWAP1 PUSH2 0x388B JUMP JUMPDEST PUSH2 0x785 JUMP JUMPDEST PUSH1 0x40 MLOAD PUSH2 0x25E SWAP5 SWAP4 SWAP3 SWAP2 SWAP1 PUSH2 0x394F JUMP JUMPDEST PUSH1 0x40 MLOAD DUP1 SWAP2 SUB SWAP1 RETURN JUMPDEST PUSH2 0x281 PUSH1 0x4 DUP1 CALLDATASIZE SUB DUP2 ADD SWAP1 PUSH2 0x27C SWAP2 SWAP1 PUSH2 0x388B JUMP JUMPDEST PUSH2 0x843 JUMP JUMPDEST STOP JUMPDEST PUSH2 0x28B PUSH2 0x948 JUMP JUMPDEST PUSH1 0x40 MLOAD PUSH2 0x298 SWAP2 SWAP1 PUSH2 0x3999 JUMP JUMPDEST PUSH1 0x40 MLOAD DUP1 SWAP2 SUB SWAP1 RETURN JUMPDEST PUSH2 0x2BB PUSH1 0x4 DUP1 CALLDATASIZE SUB DUP2 ADD SWAP1 PUSH2 0x2B6 SWAP2 SWAP1 PUSH2 0x3A13 JUMP JUMPDEST PUSH2 0x9D8 JUMP JUMPDEST PUSH1 0x40 MLOAD PUSH2 0x2C8 SWAP2 SWAP1 PUSH2 0x3A51 JUMP JUMPDEST PUSH1 0x40 MLOAD DUP1 SWAP2 SUB SWAP1 RETURN JUMPDEST PUSH2 0x2D9 PUSH2 0x9FA JUMP JUMPDEST PUSH1 0x40 MLOAD PUSH2 0x2E6 SWAP2 SWAP1 PUSH2 0x3A6A JUMP JUMPDEST PUSH1 0x40 MLOAD DUP1 SWAP2 SUB SWAP1 RETURN JUMPDEST PUSH2 0x2F7 PUSH2 0xA00 JUMP JUMPDEST PUSH1 0x40 MLOAD PUSH2 0x304 SWAP2 SWAP1 PUSH2 0x3A6A JUMP JUMPDEST PUSH1 0x40 MLOAD DUP1 SWAP2 SUB SWAP1 RETURN JUMPDEST PUSH2 0x315 PUSH2 0xA09 JUMP JUMPDEST PUSH1 0x40 MLOAD PUSH2 0x322 SWAP2 SWAP1 PUSH2 0x3999 JUMP JUMPDEST PUSH1 0x40 MLOAD DUP1 SWAP2 SUB SWAP1 RETURN JUMPDEST PUSH2 0x345 PUSH1 0x4 DUP1 CALLDATASIZE SUB DUP2 ADD SWAP1 PUSH2 0x340 SWAP2 SWAP1 PUSH2 0x3A83 JUMP JUMPDEST PUSH2 0xA42 JUMP JUMPDEST PUSH1 0x40 MLOAD PUSH2 0x352 SWAP2 SWAP1 PUSH2 0x3A51 JUMP JUMPDEST PUSH1 0x40 MLOAD DUP1 SWAP2 SUB SWAP1 RETURN JUMPDEST PUSH2 0x363 PUSH2 0xA70 JUMP JUMPDEST PUSH1 0x40 MLOAD PUSH2 0x370 SWAP2 SWAP1 PUSH2 0x3999 JUMP JUMPDEST PUSH1 0x40 MLOAD DUP1 SWAP2 SUB SWAP1 RETURN JUMPDEST PUSH2 0x393 PUSH1 0x4 DUP1 CALLDATASIZE SUB DUP2 ADD SWAP1 PUSH2 0x38E SWAP2 SWAP1 PUSH2 0x388B JUMP JUMPDEST PUSH2 0xAA9 JUMP JUMPDEST STOP JUMPDEST PUSH2 0x39D PUSH2 0xBA4 JUMP JUMPDEST PUSH1 0x40 MLOAD PUSH2 0x3AA SWAP2 SWAP1 PUSH2 0x3AEE JUMP JUMPDEST PUSH1 0x40 MLOAD DUP1 SWAP2 SUB SWAP1 RETURN JUMPDEST PUSH2 0x3CD PUSH1 0x4 DUP1 CALLDATASIZE SUB DUP2 ADD SWAP1 PUSH2 0x3C8 SWAP2 SWAP1 PUSH2 0x3A13 JUMP JUMPDEST PUSH2 0xBAC JUMP JUMPDEST PUSH1 0x40 MLOAD PUSH2 0x3DA SWAP2 SWAP1 PUSH2 0x3A6A JUMP JUMPDEST PUSH1 0x40 MLOAD DUP1 SWAP2 SUB SWAP1 RETURN JUMPDEST PUSH2 0x3FD PUSH1 0x4 DUP1 CALLDATASIZE SUB DUP2 ADD SWAP1 PUSH2 0x3F8 SWAP2 SWAP1 PUSH2 0x3A13 JUMP JUMPDEST PUSH2 0xC28 JUMP JUMPDEST STOP JUMPDEST PUSH2 0x419 PUSH1 0x4 DUP1 CALLDATASIZE SUB DUP2 ADD SWAP1 PUSH2 0x414 SWAP2 SWAP1 PUSH2 0x3A13 JUMP JUMPDEST PUSH2 0xD5D JUMP JUMPDEST STOP JUMPDEST PUSH2 0x435 PUSH1 0x4 DUP1 CALLDATASIZE SUB DUP2 ADD SWAP1 PUSH2 0x430 SWAP2 SWAP1 PUSH2 0x388B JUMP JUMPDEST PUSH2 0xDE0 JUMP JUMPDEST STOP JUMPDEST PUSH2 0x451 PUSH1 0x4 DUP1 CALLDATASIZE SUB DUP2 ADD SWAP1 PUSH2 0x44C SWAP2 SWAP1 PUSH2 0x3C33 JUMP JUMPDEST PUSH2 0xDF4 JUMP JUMPDEST STOP JUMPDEST PUSH2 0x45B PUSH2 0xEC3 JUMP JUMPDEST PUSH1 0x40 MLOAD PUSH2 0x468 SWAP2 SWAP1 PUSH2 0x3999 JUMP JUMPDEST PUSH1 0x40 MLOAD DUP1 SWAP2 SUB SWAP1 RETURN JUMPDEST PUSH2 0x479 PUSH2 0xF57 JUMP JUMPDEST PUSH1 0x40 MLOAD PUSH2 0x486 SWAP2 SWAP1 PUSH2 0x3A6A JUMP JUMPDEST PUSH1 0x40 MLOAD DUP1 SWAP2 SUB SWAP1 RETURN JUMPDEST PUSH2 0x4A9 PUSH1 0x4 DUP1 CALLDATASIZE SUB DUP2 ADD SWAP1 PUSH2 0x4A4 SWAP2 SWAP1 PUSH2 0x3C7A JUMP JUMPDEST PUSH2 0xF66 JUMP JUMPDEST PUSH1 0x40 MLOAD PUSH2 0x4B6 SWAP2 SWAP1 PUSH2 0x3CB4 JUMP JUMPDEST PUSH1 0x40 MLOAD DUP1 SWAP2 SUB SWAP1 RETURN JUMPDEST PUSH2 0x4D9 PUSH1 0x4 DUP1 CALLDATASIZE SUB DUP2 ADD SWAP1 PUSH2 0x4D4 SWAP2 SWAP1 PUSH2 0x3C7A JUMP JUMPDEST PUSH2 0xFCB JUMP JUMPDEST STOP JUMPDEST PUSH2 0x4F5 PUSH1 0x4 DUP1 CALLDATASIZE SUB DUP2 ADD SWAP1 PUSH2 0x4F0 SWAP2 SWAP1 PUSH2 0x3C7A JUMP JUMPDEST PUSH2 0xFE4 JUMP JUMPDEST PUSH1 0x40 MLOAD PUSH2 0x502 SWAP2 SWAP1 PUSH2 0x3CEB JUMP JUMPDEST PUSH1 0x40 MLOAD DUP1 SWAP2 SUB SWAP1 RETURN JUMPDEST PUSH2 0x525 PUSH1 0x4 DUP1 CALLDATASIZE SUB DUP2 ADD SWAP1 PUSH2 0x520 SWAP2 SWAP1 PUSH2 0x3C7A JUMP JUMPDEST PUSH2 0xFF5 JUMP JUMPDEST PUSH1 0x40 MLOAD PUSH2 0x532 SWAP2 SWAP1 PUSH2 0x3A6A JUMP JUMPDEST PUSH1 0x40 MLOAD DUP1 SWAP2 SUB SWAP1 RETURN JUMPDEST PUSH2 0x555 PUSH1 0x4 DUP1 CALLDATASIZE SUB DUP2 ADD SWAP1 PUSH2 0x550 SWAP2 SWAP1 PUSH2 0x3A13 JUMP JUMPDEST PUSH2 0x103A JUMP JUMPDEST STOP JUMPDEST PUSH2 0x571 PUSH1 0x4 DUP1 CALLDATASIZE SUB DUP2 ADD SWAP1 PUSH2 0x56C SWAP2 SWAP1 PUSH2 0x3C7A JUMP JUMPDEST PUSH2 0x105A JUMP JUMPDEST PUSH1 0x40 MLOAD PUSH2 0x57E SWAP2 SWAP1 PUSH2 0x3A6A JUMP JUMPDEST PUSH1 0x40 MLOAD DUP1 SWAP2 SUB SWAP1 RETURN JUMPDEST PUSH2 0x58F PUSH2 0x10A0 JUMP JUMPDEST PUSH1 0x40 MLOAD PUSH2 0x5A2 SWAP8 SWAP7 SWAP6 SWAP5 SWAP4 SWAP3 SWAP2 SWAP1 PUSH2 0x3E0D JUMP JUMPDEST PUSH1 0x40 MLOAD DUP1 SWAP2 SUB SWAP1 RETURN JUMPDEST PUSH2 0x5C5 PUSH1 0x4 DUP1 CALLDATASIZE SUB DUP2 ADD SWAP1 PUSH2 0x5C0 SWAP2 SWAP1 PUSH2 0x388B JUMP JUMPDEST PUSH2 0x1145 JUMP JUMPDEST PUSH1 0x40 MLOAD PUSH2 0x5D2 SWAP2 SWAP1 PUSH2 0x3A6A JUMP JUMPDEST PUSH1 0x40 MLOAD DUP1 SWAP2 SUB SWAP1 RETURN JUMPDEST PUSH2 0x5F5 PUSH1 0x4 DUP1 CALLDATASIZE SUB DUP2 ADD SWAP1 PUSH2 0x5F0 SWAP2 SWAP1 PUSH2 0x3C7A JUMP JUMPDEST PUSH2 0x1185 JUMP JUMPDEST STOP JUMPDEST PUSH2 0x5FF PUSH2 0x126B JUMP JUMPDEST PUSH1 0x40 MLOAD PUSH2 0x60C SWAP2 SWAP1 PUSH2 0x3EAF JUMP JUMPDEST PUSH1 0x40 MLOAD DUP1 SWAP2 SUB SWAP1 RETURN JUMPDEST PUSH2 0x61D PUSH2 0x1279 JUMP JUMPDEST PUSH1 0x40 MLOAD PUSH2 0x62A SWAP2 SWAP1 PUSH2 0x3999 JUMP JUMPDEST PUSH1 0x40 MLOAD DUP1 SWAP2 SUB SWAP1 RETURN JUMPDEST PUSH2 0x63B PUSH2 0x12B2 JUMP JUMPDEST PUSH1 0x40 MLOAD PUSH2 0x648 SWAP2 SWAP1 PUSH2 0x3999 JUMP JUMPDEST PUSH1 0x40 MLOAD DUP1 SWAP2 SUB SWAP1 RETURN JUMPDEST PUSH2 0x66B PUSH1 0x4 DUP1 CALLDATASIZE SUB DUP2 ADD SWAP1 PUSH2 0x666 SWAP2 SWAP1 PUSH2 0x3C7A JUMP JUMPDEST PUSH2 0x1342 JUMP JUMPDEST PUSH1 0x40 MLOAD PUSH2 0x678 SWAP2 SWAP1 PUSH2 0x3A6A JUMP JUMPDEST PUSH1 0x40 MLOAD DUP1 SWAP2 SUB SWAP1 RETURN JUMPDEST PUSH2 0x69B PUSH1 0x4 DUP1 CALLDATASIZE SUB DUP2 ADD SWAP1 PUSH2 0x696 SWAP2 SWAP1 PUSH2 0x3A13 JUMP JUMPDEST PUSH2 0x13AB JUMP JUMPDEST PUSH1 0x40 MLOAD PUSH2 0x6A8 SWAP2 SWAP1 PUSH2 0x3A51 JUMP JUMPDEST PUSH1 0x40 MLOAD DUP1 SWAP2 SUB SWAP1 RETURN JUMPDEST PUSH2 0x6B9 PUSH2 0x13CD JUMP JUMPDEST PUSH1 0x40 MLOAD PUSH2 0x6C6 SWAP2 SWAP1 PUSH2 0x3CB4 JUMP JUMPDEST PUSH1 0x40 MLOAD DUP1 SWAP2 SUB SWAP1 RETURN JUMPDEST PUSH2 0x6E9 PUSH1 0x4 DUP1 CALLDATASIZE SUB DUP2 ADD SWAP1 PUSH2 0x6E4 SWAP2 SWAP1 PUSH2 0x3EC8 JUMP JUMPDEST PUSH2 0x13DB JUMP JUMPDEST STOP JUMPDEST PUSH2 0x705 PUSH1 0x4 DUP1 CALLDATASIZE SUB DUP2 ADD SWAP1 PUSH2 0x700 SWAP2 SWAP1 PUSH2 0x3F5A JUMP JUMPDEST PUSH2 0x14DB JUMP JUMPDEST STOP JUMPDEST PUSH2 0x721 PUSH1 0x4 DUP1 CALLDATASIZE SUB DUP2 ADD SWAP1 PUSH2 0x71C SWAP2 SWAP1 PUSH2 0x3FE3 JUMP JUMPDEST PUSH2 0x15A0 JUMP JUMPDEST PUSH1 0x40 MLOAD PUSH2 0x72E SWAP2 SWAP1 PUSH2 0x3A6A JUMP JUMPDEST PUSH1 0x40 MLOAD DUP1 SWAP2 SUB SWAP1 RETURN JUMPDEST PUSH2 0x73F PUSH2 0x1622 JUMP JUMPDEST PUSH1 0x40 MLOAD PUSH2 0x74C SWAP2 SWAP1 PUSH2 0x3A6A JUMP JUMPDEST PUSH1 0x40 MLOAD DUP1 SWAP2 SUB SWAP1 RETURN JUMPDEST PUSH2 0x76F PUSH1 0x4 DUP1 CALLDATASIZE SUB DUP2 ADD SWAP1 PUSH2 0x76A SWAP2 SWAP1 PUSH2 0x404B JUMP JUMPDEST PUSH2 0x1722 JUMP JUMPDEST PUSH1 0x40 MLOAD PUSH2 0x77C SWAP2 SWAP1 PUSH2 0x40F9 JUMP JUMPDEST PUSH1 0x40 MLOAD DUP1 SWAP2 SUB SWAP1 RETURN JUMPDEST PUSH1 0xB PUSH1 0x20 MSTORE DUP1 PUSH0 MSTORE PUSH1 0x40 PUSH0 KECCAK256 PUSH0 SWAP2 POP SWAP1 POP DUP1 PUSH0 ADD SLOAD SWAP1 DUP1 PUSH1 0x1 ADD DUP1 SLOAD PUSH2 0x7AA SWAP1 PUSH2 0x413F JUMP JUMPDEST DUP1 PUSH1 0x1F ADD PUSH1 0x20 DUP1 SWAP2 DIV MUL PUSH1 0x20 ADD PUSH1 0x40 MLOAD SWAP1 DUP2 ADD PUSH1 0x40 MSTORE DUP1 SWAP3 SWAP2 SWAP1 DUP2 DUP2 MSTORE PUSH1 0x20 ADD DUP3 DUP1 SLOAD PUSH2 0x7D6 SWAP1 PUSH2 0x413F JUMP JUMPDEST DUP1 ISZERO PUSH2 0x821 JUMPI DUP1 PUSH1 0x1F LT PUSH2 0x7F8 JUMPI PUSH2 0x100 DUP1 DUP4 SLOAD DIV MUL DUP4 MSTORE SWAP2 PUSH1 0x20 ADD SWAP2 PUSH2 0x821 JUMP JUMPDEST DUP3 ADD SWAP2 SWAP1 PUSH0 MSTORE PUSH1 0x20 PUSH0 KECCAK256 SWAP1 JUMPDEST DUP2 SLOAD DUP2 MSTORE SWAP1 PUSH1 0x1 ADD SWAP1 PUSH1 0x20 ADD DUP1 DUP4 GT PUSH2 0x804 JUMPI DUP3 SWAP1 SUB PUSH1 0x1F AND DUP3 ADD SWAP2 JUMPDEST POP POP POP POP POP SWAP1 DUP1 PUSH1 0x2 ADD SLOAD SWAP1 DUP1 PUSH1 0x3 ADD PUSH0 SWAP1 SLOAD SWAP1 PUSH2 0x100 EXP SWAP1 DIV PUSH1 0xFF AND SWAP1 POP DUP5 JUMP JUMPDEST PUSH2 0x84B PUSH2 0x1766 JUMP JUMPDEST PUSH20 0xFFFFFFFFFFFFFFFFFFFFFFFFFFFFFFFFFFFFFFFF AND CALLER PUSH20 0xFFFFFFFFFFFFFFFFFFFFFFFFFFFFFFFFFFFFFFFF AND EQ PUSH2 0x8B8 JUMPI PUSH1 0x40 MLOAD PUSH32 0xA2A9E3E00000000000000000000000000000000000000000000000000000000 DUP2 MSTORE PUSH1 0x4 ADD PUSH2 0x8AF SWAP1 PUSH2 0x41B9 JUMP JUMPDEST PUSH1 0x40 MLOAD DUP1 SWAP2 SUB SWAP1 REVERT JUMPDEST DUP1 PUSH1 0xB PUSH0 DUP3 DUP2 MSTORE PUSH1 0x20 ADD SWAP1 DUP2 MSTORE PUSH1 0x20 ADD PUSH0 KECCAK256 PUSH1 0x3 ADD PUSH0 SWAP1 SLOAD SWAP1 PUSH2 0x100 EXP SWAP1 DIV PUSH1 0xFF AND PUSH2 0x919 JUMPI PUSH1 0x40 MLOAD PUSH32 0x8C379A000000000000000000000000000000000000000000000000000000000 DUP2 MSTORE PUSH1 0x4 ADD PUSH2 0x910 SWAP1 PUSH2 0x4221 JUMP JUMPDEST PUSH1 0x40 MLOAD DUP1 SWAP2 SUB SWAP1 REVERT JUMPDEST PUSH0 PUSH1 0xB PUSH0 DUP5 DUP2 MSTORE PUSH1 0x20 ADD SWAP1 DUP2 MSTORE PUSH1 0x20 ADD PUSH0 KECCAK256 PUSH1 0x3 ADD PUSH0 PUSH2 0x100 EXP DUP2 SLOAD DUP2 PUSH1 0xFF MUL NOT AND SWAP1 DUP4 ISZERO ISZERO MUL OR SWAP1 SSTORE POP POP POP JUMP JUMPDEST PUSH1 0x60 PUSH1 0x3 DUP1 SLOAD PUSH2 0x957 SWAP1 PUSH2 0x413F JUMP JUMPDEST DUP1 PUSH1 0x1F ADD PUSH1 0x20 DUP1 SWAP2 DIV MUL PUSH1 0x20 ADD PUSH1 0x40 MLOAD SWAP1 DUP2 ADD PUSH1 0x40 MSTORE DUP1 SWAP3 SWAP2 SWAP1 DUP2 DUP2 MSTORE PUSH1 0x20 ADD DUP3 DUP1 SLOAD PUSH2 0x983 SWAP1 PUSH2 0x413F JUMP JUMPDEST DUP1 ISZERO PUSH2 0x9CE JUMPI DUP1 PUSH1 0x1F LT PUSH2 0x9A5 JUMPI PUSH2 0x100 DUP1 DUP4 SLOAD DIV MUL DUP4 MSTORE SWAP2 PUSH1 0x20 ADD SWAP2 PUSH2 0x9CE JUMP JUMPDEST DUP3 ADD SWAP2 SWAP1 PUSH0 MSTORE PUSH1 0x20 PUSH0 KECCAK256 SWAP1 JUMPDEST DUP2 SLOAD DUP2 MSTORE SWAP1 PUSH1 0x1 ADD SWAP1 PUSH1 0x20 ADD DUP1 DUP4 GT PUSH2 0x9B1 JUMPI DUP3 SWAP1 SUB PUSH1 0x1F AND DUP3 ADD SWAP2 JUMPDEST POP POP POP POP POP SWAP1 POP SWAP1 JUMP JUMPDEST PUSH0 DUP1 PUSH2 0x9E2 PUSH2 0x17D4 JUMP JUMPDEST SWAP1 POP PUSH2 0x9EF DUP2 DUP6 DUP6 PUSH2 0x17DB JUMP JUMPDEST PUSH1 0x1 SWAP2 POP POP SWAP3 SWAP2 POP POP JUMP JUMPDEST PUSH1 0xC SLOAD DUP2 JUMP JUMPDEST PUSH0 PUSH1 0x2 SLOAD SWAP1 POP SWAP1 JUMP JUMPDEST PUSH1 0x40 MLOAD DUP1 PUSH1 0x40 ADD PUSH1 0x40 MSTORE DUP1 PUSH1 0xA DUP2 MSTORE PUSH1 0x20 ADD PUSH32 0x4E455A48415F564F544500000000000000000000000000000000000000000000 DUP2 MSTORE POP DUP2 JUMP JUMPDEST PUSH0 DUP1 PUSH2 0xA4C PUSH2 0x17D4 JUMP JUMPDEST SWAP1 POP PUSH2 0xA59 DUP6 DUP3 DUP6 PUSH2 0x17ED JUMP JUMPDEST PUSH2 0xA64 DUP6 DUP6 DUP6 PUSH2 0x1880 JUMP JUMPDEST PUSH1 0x1 SWAP2 POP POP SWAP4 SWAP3 POP POP POP JUMP JUMPDEST PUSH1 0x40 MLOAD DUP1 PUSH1 0x40 ADD PUSH1 0x40 MSTORE DUP1 PUSH1 0x4 DUP2 MSTORE PUSH1 0x20 ADD PUSH32 0x4E5A5F5600000000000000000000000000000000000000000000000000000000 DUP2 MSTORE POP DUP2 JUMP JUMPDEST PUSH2 0xAB1 PUSH2 0x1766 JUMP JUMPDEST PUSH20 0xFFFFFFFFFFFFFFFFFFFFFFFFFFFFFFFFFFFFFFFF AND CALLER PUSH20 0xFFFFFFFFFFFFFFFFFFFFFFFFFFFFFFFFFFFFFFFF AND EQ PUSH2 0xB1E JUMPI PUSH1 0x40 MLOAD PUSH32 0xA2A9E3E00000000000000000000000000000000000000000000000000000000 DUP2 MSTORE PUSH1 0x4 ADD PUSH2 0xB15 SWAP1 PUSH2 0x41B9 JUMP JUMPDEST PUSH1 0x40 MLOAD DUP1 SWAP2 SUB SWAP1 REVERT JUMPDEST DUP1 PUSH0 PUSH1 0xB PUSH0 DUP4 DUP2 MSTORE PUSH1 0x20 ADD SWAP1 DUP2 MSTORE PUSH1 0x20 ADD PUSH0 KECCAK256 PUSH0 ADD SLOAD SUB PUSH2 0xB74 JUMPI PUSH1 0x40 MLOAD PUSH32 0x8C379A000000000000000000000000000000000000000000000000000000000 DUP2 MSTORE PUSH1 0x4 ADD PUSH2 0xB6B SWAP1 PUSH2 0x4289 JUMP JUMPDEST PUSH1 0x40 MLOAD DUP1 SWAP2 SUB SWAP1 REVERT JUMPDEST PUSH1 0x1 PUSH1 0xB PUSH0 DUP5 DUP2 MSTORE PUSH1 0x20 ADD SWAP1 DUP2 MSTORE PUSH1 0x20 ADD PUSH0 KECCAK256 PUSH1 0x3 ADD PUSH0 PUSH2 0x100 EXP DUP2 SLOAD DUP2 PUSH1 0xFF MUL NOT AND SWAP1 DUP4 ISZERO ISZERO MUL OR SWAP1 SSTORE POP POP POP JUMP JUMPDEST PUSH0 PUSH1 0x12 SWAP1 POP SWAP1 JUMP JUMPDEST PUSH0 PUSH2 0xC04 PUSH2 0xBB9 DUP4 PUSH2 0x1970 JUMP JUMPDEST PUSH1 0x9 PUSH0 DUP7 PUSH20 0xFFFFFFFFFFFFFFFFFFFFFFFFFFFFFFFFFFFFFFFF AND PUSH20 0xFFFFFFFFFFFFFFFFFFFFFFFFFFFFFFFFFFFFFFFF AND DUP2 MSTORE PUSH1 0x20 ADD SWAP1 DUP2 MSTORE PUSH1 0x20 ADD PUSH0 KECCAK256 PUSH2 0x19DB SWAP1 SWAP2 SWAP1 PUSH4 0xFFFFFFFF AND JUMP JUMPDEST PUSH26 0xFFFFFFFFFFFFFFFFFFFFFFFFFFFFFFFFFFFFFFFFFFFFFFFFFFFF AND SWAP1 POP SWAP3 SWAP2 POP POP JUMP JUMPDEST PUSH2 0xC30 PUSH2 0x1766 JUMP JUMPDEST PUSH20 0xFFFFFFFFFFFFFFFFFFFFFFFFFFFFFFFFFFFFFFFF AND CALLER PUSH20 0xFFFFFFFFFFFFFFFFFFFFFFFFFFFFFFFFFFFFFFFF AND EQ PUSH2 0xC9D JUMPI PUSH1 0x40 MLOAD PUSH32 0xA2A9E3E00000000000000000000000000000000000000000000000000000000 DUP2 MSTORE PUSH1 0x4 ADD PUSH2 0xC94 SWAP1 PUSH2 0x41B9 JUMP JUMPDEST PUSH1 0x40 MLOAD DUP1 SWAP2 SUB SWAP1 REVERT JUMPDEST PUSH0 PUSH20 0xFFFFFFFFFFFFFFFFFFFFFFFFFFFFFFFFFFFFFFFF AND DUP3 PUSH20 0xFFFFFFFFFFFFFFFFFFFFFFFFFFFFFFFFFFFFFFFF AND SUB PUSH2 0xD02 JUMPI PUSH1 0x40 MLOAD PUSH32 0x5BB7A72300000000000000000000000000000000000000000000000000000000 DUP2 MSTORE PUSH1 0x4 ADD PUSH1 0x40 MLOAD DUP1 SWAP2 SUB SWAP1 REVERT JUMPDEST PUSH0 DUP2 SUB PUSH2 0xD3B JUMPI PUSH1 0x40 MLOAD PUSH32 0xE16A8AA400000000000000000000000000000000000000000000000000000000 DUP2 MSTORE PUSH1 0x4 ADD PUSH1 0x40 MLOAD DUP1 SWAP2 SUB SWAP1 REVERT JUMPDEST PUSH0 PUSH2 0xD45 DUP4 PUSH2 0x1AC8 JUMP JUMPDEST SWAP1 POP TIMESTAMP DUP2 PUSH0 ADD DUP2 SWAP1 SSTORE POP DUP2 DUP2 PUSH1 0x1 ADD DUP2 SWAP1 SSTORE POP POP POP POP JUMP JUMPDEST PUSH2 0xD65 PUSH2 0x1766 JUMP JUMPDEST PUSH20 0xFFFFFFFFFFFFFFFFFFFFFFFFFFFFFFFFFFFFFFFF AND CALLER PUSH20 0xFFFFFFFFFFFFFFFFFFFFFFFFFFFFFFFFFFFFFFFF AND EQ PUSH2 0xDD2 JUMPI PUSH1 0x40 MLOAD PUSH32 0xA2A9E3E00000000000000000000000000000000000000000000000000000000 DUP2 MSTORE PUSH1 0x4 ADD PUSH2 0xDC9 SWAP1 PUSH2 0x41B9 JUMP JUMPDEST PUSH1 0x40 MLOAD DUP1 SWAP2 SUB SWAP1 REVERT JUMPDEST PUSH2 0xDDC DUP3 DUP3 PUSH2 0x1B2D JUMP JUMPDEST POP POP JUMP JUMPDEST PUSH2 0xDF1 PUSH2 0xDEB PUSH2 0x17D4 JUMP JUMPDEST DUP3 PUSH2 0x1BAC JUMP JUMPDEST POP JUMP JUMPDEST PUSH2 0xDFC PUSH2 0x1766 JUMP JUMPDEST PUSH20 0xFFFFFFFFFFFFFFFFFFFFFFFFFFFFFFFFFFFFFFFF AND CALLER PUSH20 0xFFFFFFFFFFFFFFFFFFFFFFFFFFFFFFFFFFFFFFFF AND EQ PUSH2 0xE69 JUMPI PUSH1 0x40 MLOAD PUSH32 0xA2A9E3E00000000000000000000000000000000000000000000000000000000 DUP2 MSTORE PUSH1 0x4 ADD PUSH2 0xE60 SWAP1 PUSH2 0x41B9 JUMP JUMPDEST PUSH1 0x40 MLOAD DUP1 SWAP2 SUB SWAP1 REVERT JUMPDEST PUSH1 0xC PUSH0 DUP2 SLOAD DUP1 SWAP3 SWAP2 SWAP1 PUSH2 0xE7B SWAP1 PUSH2 0x42D4 JUMP JUMPDEST SWAP2 SWAP1 POP SSTORE POP PUSH1 0xC SLOAD PUSH1 0xB PUSH0 PUSH1 0xC SLOAD DUP2 MSTORE PUSH1 0x20 ADD SWAP1 DUP2 MSTORE PUSH1 0x20 ADD PUSH0 KECCAK256 PUSH0 ADD DUP2 SWAP1 SSTORE POP DUP1 PUSH1 0xB PUSH0 PUSH1 0xC SLOAD DUP2 MSTORE PUSH1 0x20 ADD SWAP1 DUP2 MSTORE PUSH1 0x20 ADD PUSH0 KECCAK256 PUSH1 0x1 ADD SWAP1 DUP2 PUSH2 0xEBF SWAP2 SWAP1 PUSH2 0x44B8 JUMP JUMPDEST POP POP JUMP JUMPDEST PUSH1 0x60 PUSH2 0xECD PUSH2 0x1C2B JUMP JUMPDEST PUSH6 0xFFFFFFFFFFFF AND PUSH2 0xEDD PUSH2 0x126B JUMP JUMPDEST PUSH6 0xFFFFFFFFFFFF AND EQ PUSH2 0xF1C JUMPI PUSH1 0x40 MLOAD PUSH32 0x6FF0714000000000000000000000000000000000000000000000000000000000 DUP2 MSTORE PUSH1 0x4 ADD PUSH1 0x40 MLOAD DUP1 SWAP2 SUB SWAP1 REVERT JUMPDEST PUSH1 0x40 MLOAD DUP1 PUSH1 0x40 ADD PUSH1 0x40 MSTORE DUP1 PUSH1 0x1D DUP2 MSTORE PUSH1 0x20 ADD PUSH32 0x6D6F64653D626C6F636B6E756D6265722666726F6D3D64656661756C74000000 DUP2 MSTORE POP SWAP1 POP SWAP1 JUMP JUMPDEST PUSH0 PUSH2 0xF61 CALLER PUSH2 0x1C3A JUMP JUMPDEST SWAP1 POP SWAP1 JUMP JUMPDEST PUSH0 PUSH1 0x8 PUSH0 DUP4 PUSH20 0xFFFFFFFFFFFFFFFFFFFFFFFFFFFFFFFFFFFFFFFF AND PUSH20 0xFFFFFFFFFFFFFFFFFFFFFFFFFFFFFFFFFFFFFFFF AND DUP2 MSTORE PUSH1 0x20 ADD SWAP1 DUP2 MSTORE PUSH1 0x20 ADD PUSH0 KECCAK256 PUSH0 SWAP1 SLOAD SWAP1 PUSH2 0x100 EXP SWAP1 DIV PUSH20 0xFFFFFFFFFFFFFFFFFFFFFFFFFFFFFFFFFFFFFFFF AND SWAP1 POP SWAP2 SWAP1 POP JUMP JUMPDEST PUSH0 PUSH2 0xFD4 PUSH2 0x17D4 JUMP JUMPDEST SWAP1 POP PUSH2 0xFE0 DUP2 DUP4 PUSH2 0x1DCF JUMP JUMPDEST POP POP JUMP JUMPDEST PUSH0 PUSH2 0xFEE DUP3 PUSH2 0x1EDF JUMP JUMPDEST SWAP1 POP SWAP2 SWAP1 POP JUMP JUMPDEST PUSH0 DUP1 PUSH0 DUP4 PUSH20 0xFFFFFFFFFFFFFFFFFFFFFFFFFFFFFFFFFFFFFFFF AND PUSH20 0xFFFFFFFFFFFFFFFFFFFFFFFFFFFFFFFFFFFFFFFF AND DUP2 MSTORE PUSH1 0x20 ADD SWAP1 DUP2 MSTORE PUSH1 0x20 ADD PUSH0 KECCAK256 SLOAD SWAP1 POP SWAP2 SWAP1 POP JUMP JUMPDEST PUSH2 0x104C DUP3 PUSH2 0x1046 PUSH2 0x17D4 JUMP JUMPDEST DUP4 PUSH2 0x17ED JUMP JUMPDEST PUSH2 0x1056 DUP3 DUP3 PUSH2 0x1BAC JUMP JUMPDEST POP POP JUMP JUMPDEST PUSH0 PUSH1 0x7 PUSH0 DUP4 PUSH20 0xFFFFFFFFFFFFFFFFFFFFFFFFFFFFFFFFFFFFFFFF AND PUSH20 0xFFFFFFFFFFFFFFFFFFFFFFFFFFFFFFFFFFFFFFFF AND DUP2 MSTORE PUSH1 0x20 ADD SWAP1 DUP2 MSTORE PUSH1 0x20 ADD PUSH0 KECCAK256 SLOAD SWAP1 POP SWAP2 SWAP1 POP JUMP JUMPDEST PUSH0 PUSH1 0x60 DUP1 PUSH0 DUP1 PUSH0 PUSH1 0x60 PUSH2 0x10B1 PUSH2 0x1F34 JUMP JUMPDEST PUSH2 0x10B9 PUSH2 0x1F6F JUMP JUMPDEST CHAINID ADDRESS PUSH0 DUP1 SHL PUSH0 PUSH8 0xFFFFFFFFFFFFFFFF DUP2 GT ISZERO PUSH2 0x10D8 JUMPI PUSH2 0x10D7 PUSH2 0x3B0F JUMP JUMPDEST JUMPDEST PUSH1 0x40 MLOAD SWAP1 DUP1 DUP3 MSTORE DUP1 PUSH1 0x20 MUL PUSH1 0x20 ADD DUP3 ADD PUSH1 0x40 MSTORE DUP1 ISZERO PUSH2 0x1106 JUMPI DUP2 PUSH1 0x20 ADD PUSH1 0x20 DUP3 MUL DUP1 CALLDATASIZE DUP4 CALLDATACOPY DUP1 DUP3 ADD SWAP2 POP POP SWAP1 POP JUMPDEST POP PUSH32 0xF00000000000000000000000000000000000000000000000000000000000000 SWAP6 SWAP5 SWAP4 SWAP3 SWAP2 SWAP1 SWAP7 POP SWAP7 POP SWAP7 POP SWAP7 POP SWAP7 POP SWAP7 POP SWAP7 POP SWAP1 SWAP2 SWAP3 SWAP4 SWAP5 SWAP6 SWAP7 JUMP JUMPDEST PUSH0 PUSH2 0x1162 PUSH2 0x1152 DUP4 PUSH2 0x1970 JUMP JUMPDEST PUSH1 0xA PUSH2 0x19DB SWAP1 SWAP2 SWAP1 PUSH4 0xFFFFFFFF AND JUMP JUMPDEST PUSH26 0xFFFFFFFFFFFFFFFFFFFFFFFFFFFFFFFFFFFFFFFFFFFFFFFFFFFF AND SWAP1 POP SWAP2 SWAP1 POP JUMP JUMPDEST PUSH2 0x118D PUSH2 0x1766 JUMP JUMPDEST PUSH20 0xFFFFFFFFFFFFFFFFFFFFFFFFFFFFFFFFFFFFFFFF AND CALLER PUSH20 0xFFFFFFFFFFFFFFFFFFFFFFFFFFFFFFFFFFFFFFFF AND EQ PUSH2 0x11FA JUMPI PUSH1 0x40 MLOAD PUSH32 0xA2A9E3E00000000000000000000000000000000000000000000000000000000 DUP2 MSTORE PUSH1 0x4 ADD PUSH2 0x11F1 SWAP1 PUSH2 0x41B9 JUMP JUMPDEST PUSH1 0x40 MLOAD DUP1 SWAP2 SUB SWAP1 REVERT JUMPDEST PUSH0 PUSH20 0xFFFFFFFFFFFFFFFFFFFFFFFFFFFFFFFFFFFFFFFF AND DUP2 PUSH20 0xFFFFFFFFFFFFFFFFFFFFFFFFFFFFFFFFFFFFFFFF AND SUB PUSH2 0x125F JUMPI PUSH1 0x40 MLOAD PUSH32 0x5BB7A72300000000000000000000000000000000000000000000000000000000 DUP2 MSTORE PUSH1 0x4 ADD PUSH1 0x40 MLOAD DUP1 SWAP2 SUB SWAP1 REVERT JUMPDEST PUSH2 0x1268 DUP2 PUSH2 0x1FAA JUMP JUMPDEST POP JUMP JUMPDEST PUSH0 PUSH2 0x1274 PUSH2 0x1C2B JUMP JUMPDEST SWAP1 POP SWAP1 JUMP JUMPDEST PUSH1 0x40 MLOAD DUP1 PUSH1 0x40 ADD PUSH1 0x40 MSTORE DUP1 PUSH1 0x19 DUP2 MSTORE PUSH1 0x20 ADD PUSH32 0x4772616E7450726976696C656765732E4E616D65737061636500000000000000 DUP2 MSTORE POP DUP2 JUMP JUMPDEST PUSH1 0x60 PUSH1 0x4 DUP1 SLOAD PUSH2 0x12C1 SWAP1 PUSH2 0x413F JUMP JUMPDEST DUP1 PUSH1 0x1F ADD PUSH1 0x20 DUP1 SWAP2 DIV MUL PUSH1 0x20 ADD PUSH1 0x40 MLOAD SWAP1 DUP2 ADD PUSH1 0x40 MSTORE DUP1 SWAP3 SWAP2 SWAP1 DUP2 DUP2 MSTORE PUSH1 0x20 ADD DUP3 DUP1 SLOAD PUSH2 0x12ED SWAP1 PUSH2 0x413F JUMP JUMPDEST DUP1 ISZERO PUSH2 0x1338 JUMPI DUP1 PUSH1 0x1F LT PUSH2 0x130F JUMPI PUSH2 0x100 DUP1 DUP4 SLOAD DIV MUL DUP4 MSTORE SWAP2 PUSH1 0x20 ADD SWAP2 PUSH2 0x1338 JUMP JUMPDEST DUP3 ADD SWAP2 SWAP1 PUSH0 MSTORE PUSH1 0x20 PUSH0 KECCAK256 SWAP1 JUMPDEST DUP2 SLOAD DUP2 MSTORE SWAP1 PUSH1 0x1 ADD SWAP1 PUSH1 0x20 ADD DUP1 DUP4 GT PUSH2 0x131B JUMPI DUP3 SWAP1 SUB PUSH1 0x1F AND DUP3 ADD SWAP2 JUMPDEST POP POP POP POP POP SWAP1 POP SWAP1 JUMP JUMPDEST PUSH0 PUSH2 0x1388 PUSH1 0x9 PUSH0 DUP5 PUSH20 0xFFFFFFFFFFFFFFFFFFFFFFFFFFFFFFFFFFFFFFFF AND PUSH20 0xFFFFFFFFFFFFFFFFFFFFFFFFFFFFFFFFFFFFFFFF AND DUP2 MSTORE PUSH1 0x20 ADD SWAP1 DUP2 MSTORE PUSH1 0x20 ADD PUSH0 KECCAK256 PUSH2 0x2033 JUMP JUMPDEST PUSH26 0xFFFFFFFFFFFFFFFFFFFFFFFFFFFFFFFFFFFFFFFFFFFFFFFFFFFF AND SWAP1 POP SWAP2 SWAP1 POP JUMP JUMPDEST PUSH0 DUP1 PUSH2 0x13B5 PUSH2 0x17D4 JUMP JUMPDEST SWAP1 POP PUSH2 0x13C2 DUP2 DUP6 DUP6 PUSH2 0x1880 JUMP JUMPDEST PUSH1 0x1 SWAP2 POP POP SWAP3 SWAP2 POP POP JUMP JUMPDEST PUSH0 PUSH2 0x13D6 PUSH2 0x1766 JUMP JUMPDEST SWAP1 POP SWAP1 JUMP JUMPDEST DUP2 PUSH1 0xB PUSH0 DUP3 DUP2 MSTORE PUSH1 0x20 ADD SWAP1 DUP2 MSTORE PUSH1 0x20 ADD PUSH0 KECCAK256 PUSH1 0x3 ADD PUSH0 SWAP1 SLOAD SWAP1 PUSH2 0x100 EXP SWAP1 DIV PUSH1 0xFF AND PUSH2 0x143C JUMPI PUSH1 0x40 MLOAD PUSH32 0x8C379A000000000000000000000000000000000000000000000000000000000 DUP2 MSTORE PUSH1 0x4 ADD PUSH2 0x1433 SWAP1 PUSH2 0x4221 JUMP JUMPDEST PUSH1 0x40 MLOAD DUP1 SWAP2 SUB SWAP1 REVERT JUMPDEST PUSH2 0x1447 CALLER DUP5 DUP5 PUSH2 0x2095 JUMP JUMPDEST DUP2 PUSH1 0xB PUSH0 DUP6 DUP2 MSTORE PUSH1 0x20 ADD SWAP1 DUP2 MSTORE PUSH1 0x20 ADD PUSH0 KECCAK256 PUSH1 0x2 ADD PUSH0 DUP3 DUP3 SLOAD PUSH2 0x146A SWAP2 SWAP1 PUSH2 0x4587 JUMP JUMPDEST SWAP3 POP POP DUP2 SWAP1 SSTORE POP DUP2 PUSH1 0xB PUSH0 DUP6 DUP2 MSTORE PUSH1 0x20 ADD SWAP1 DUP2 MSTORE PUSH1 0x20 ADD PUSH0 KECCAK256 PUSH1 0x4 ADD PUSH0 CALLER PUSH20 0xFFFFFFFFFFFFFFFFFFFFFFFFFFFFFFFFFFFFFFFF AND PUSH20 0xFFFFFFFFFFFFFFFFFFFFFFFFFFFFFFFFFFFFFFFF AND DUP2 MSTORE PUSH1 0x20 ADD SWAP1 DUP2 MSTORE PUSH1 0x20 ADD PUSH0 KECCAK256 PUSH0 DUP3 DUP3 SLOAD PUSH2 0x14CF SWAP2 SWAP1 PUSH2 0x4587 JUMP JUMPDEST SWAP3 POP POP DUP2 SWAP1 SSTORE POP POP POP POP JUMP JUMPDEST DUP4 TIMESTAMP GT ISZERO PUSH2 0x1520 JUMPI DUP4 PUSH1 0x40 MLOAD PUSH32 0x4683AF0E00000000000000000000000000000000000000000000000000000000 DUP2 MSTORE PUSH1 0x4 ADD PUSH2 0x1517 SWAP2 SWAP1 PUSH2 0x3A6A JUMP JUMPDEST PUSH1 0x40 MLOAD DUP1 SWAP2 SUB SWAP1 REVERT JUMPDEST PUSH0 PUSH2 0x1581 PUSH2 0x1579 PUSH32 0xE48329057BFD03D55E49B547132E39CFFD9C1820AD7B9D4C5307691425D15ADF DUP10 DUP10 DUP10 PUSH1 0x40 MLOAD PUSH1 0x20 ADD PUSH2 0x155E SWAP5 SWAP4 SWAP3 SWAP2 SWAP1 PUSH2 0x45BA JUMP JUMPDEST PUSH1 0x40 MLOAD PUSH1 0x20 DUP2 DUP4 SUB SUB DUP2 MSTORE SWAP1 PUSH1 0x40 MSTORE DUP1 MLOAD SWAP1 PUSH1 0x20 ADD KECCAK256 PUSH2 0x2153 JUMP JUMPDEST DUP6 DUP6 DUP6 PUSH2 0x216C JUMP JUMPDEST SWAP1 POP PUSH2 0x158D DUP2 DUP8 PUSH2 0x219A JUMP JUMPDEST PUSH2 0x1597 DUP2 DUP9 PUSH2 0x1DCF JUMP JUMPDEST POP POP POP POP POP POP POP JUMP JUMPDEST PUSH0 PUSH1 0x1 PUSH0 DUP5 PUSH20 0xFFFFFFFFFFFFFFFFFFFFFFFFFFFFFFFFFFFFFFFF AND PUSH20 0xFFFFFFFFFFFFFFFFFFFFFFFFFFFFFFFFFFFFFFFF AND DUP2 MSTORE PUSH1 0x20 ADD SWAP1 DUP2 MSTORE PUSH1 0x20 ADD PUSH0 KECCAK256 PUSH0 DUP4 PUSH20 0xFFFFFFFFFFFFFFFFFFFFFFFFFFFFFFFFFFFFFFFF AND PUSH20 0xFFFFFFFFFFFFFFFFFFFFFFFFFFFFFFFFFFFFFFFF AND DUP2 MSTORE PUSH1 0x20 ADD SWAP1 DUP2 MSTORE PUSH1 0x20 ADD PUSH0 KECCAK256 SLOAD SWAP1 POP SWAP3 SWAP2 POP POP JUMP JUMPDEST PUSH0 PUSH2 0x162B PUSH2 0x1766 JUMP JUMPDEST PUSH20 0xFFFFFFFFFFFFFFFFFFFFFFFFFFFFFFFFFFFFFFFF AND CALLER PUSH20 0xFFFFFFFFFFFFFFFFFFFFFFFFFFFFFFFFFFFFFFFF AND EQ ISZERO DUP1 ISZERO PUSH2 0x166C JUMPI POP PUSH2 0x166A CALLER PUSH2 0x21F1 JUMP JUMPDEST ISZERO JUMPDEST ISZERO PUSH2 0x16AC JUMPI PUSH1 0x40 MLOAD PUSH32 0x5E9B54E100000000000000000000000000000000000000000000000000000000 DUP2 MSTORE PUSH1 0x4 ADD PUSH2 0x16A3 SWAP1 PUSH2 0x466D JUMP JUMPDEST PUSH1 0x40 MLOAD DUP1 SWAP2 SUB SWAP1 REVERT JUMPDEST PUSH0 PUSH2 0x16B6 CALLER PUSH2 0x1AC8 JUMP JUMPDEST SWAP1 POP PUSH0 DUP2 PUSH0 ADD SLOAD SWAP1 POP PUSH0 DUP3 PUSH1 0x1 ADD SLOAD SWAP1 POP PUSH0 DUP3 EQ DUP1 PUSH2 0x16D4 JUMPI POP PUSH0 DUP2 EQ JUMPDEST ISZERO PUSH2 0x16E4 JUMPI PUSH0 SWAP4 POP POP POP POP PUSH2 0x171F JUMP JUMPDEST TIMESTAMP DUP2 DUP4 PUSH2 0x16F1 SWAP2 SWAP1 PUSH2 0x4587 JUMP JUMPDEST LT ISZERO PUSH2 0x1702 JUMPI PUSH0 SWAP4 POP POP POP POP PUSH2 0x171F JUMP JUMPDEST TIMESTAMP DUP2 DUP4 PUSH2 0x170F SWAP2 SWAP1 PUSH2 0x4587 JUMP JUMPDEST PUSH2 0x1719 SWAP2 SWAP1 PUSH2 0x468B JUMP JUMPDEST SWAP4 POP POP POP POP JUMPDEST SWAP1 JUMP JUMPDEST PUSH2 0x172A PUSH2 0x380B JUMP JUMPDEST PUSH2 0x1734 DUP4 DUP4 PUSH2 0x2255 JUMP JUMPDEST SWAP1 POP SWAP3 SWAP2 POP POP JUMP JUMPDEST PUSH0 DUP2 DUP4 PUSH2 0x1749 SWAP2 SWAP1 PUSH2 0x46BE JUMP JUMPDEST SWAP1 POP SWAP3 SWAP2 POP POP JUMP JUMPDEST PUSH0 DUP2 DUP4 PUSH2 0x175E SWAP2 SWAP1 PUSH2 0x470B JUMP JUMPDEST SWAP1 POP SWAP3 SWAP2 POP POP JUMP JUMPDEST PUSH0 PUSH2 0x17AD PUSH2 0x17A8 PUSH1 0x40 MLOAD DUP1 PUSH1 0x40 ADD PUSH1 0x40 MSTORE DUP1 PUSH1 0x1C DUP2 MSTORE PUSH1 0x20 ADD PUSH32 0x4772616E7450726976696C656765732E61646D696E4164647265737300000000 DUP2 MSTORE POP PUSH2 0x22B4 JUMP JUMPDEST PUSH2 0x22D0 JUMP JUMPDEST PUSH0 ADD PUSH0 SWAP1 SLOAD SWAP1 PUSH2 0x100 EXP SWAP1 DIV PUSH20 0xFFFFFFFFFFFFFFFFFFFFFFFFFFFFFFFFFFFFFFFF AND SWAP1 POP SWAP1 JUMP JUMPDEST PUSH0 CALLER SWAP1 POP SWAP1 JUMP JUMPDEST PUSH2 0x17E8 DUP4 DUP4 DUP4 PUSH1 0x1 PUSH2 0x22D9 JUMP JUMPDEST POP POP POP JUMP JUMPDEST PUSH0 PUSH2 0x17F8 DUP5 DUP5 PUSH2 0x15A0 JUMP JUMPDEST SWAP1 POP PUSH32 0xFFFFFFFFFFFFFFFFFFFFFFFFFFFFFFFFFFFFFFFFFFFFFFFFFFFFFFFFFFFFFFFF DUP2 LT ISZERO PUSH2 0x187A JUMPI DUP2 DUP2 LT ISZERO PUSH2 0x186B JUMPI DUP3 DUP2 DUP4 PUSH1 0x40 MLOAD PUSH32 0xFB8F41B200000000000000000000000000000000000000000000000000000000 DUP2 MSTORE PUSH1 0x4 ADD PUSH2 0x1862 SWAP4 SWAP3 SWAP2 SWAP1 PUSH2 0x4758 JUMP JUMPDEST PUSH1 0x40 MLOAD DUP1 SWAP2 SUB SWAP1 REVERT JUMPDEST PUSH2 0x1879 DUP5 DUP5 DUP5 DUP5 SUB PUSH0 PUSH2 0x22D9 JUMP JUMPDEST JUMPDEST POP POP POP POP JUMP JUMPDEST PUSH0 PUSH20 0xFFFFFFFFFFFFFFFFFFFFFFFFFFFFFFFFFFFFFFFF AND DUP4 PUSH20 0xFFFFFFFFFFFFFFFFFFFFFFFFFFFFFFFFFFFFFFFF AND SUB PUSH2 0x18F0 JUMPI PUSH0 PUSH1 0x40 MLOAD PUSH32 0x96C6FD1E00000000000000000000000000000000000000000000000000000000 DUP2 MSTORE PUSH1 0x4 ADD PUSH2 0x18E7 SWAP2 SWAP1 PUSH2 0x3CB4 JUMP JUMPDEST PUSH1 0x40 MLOAD DUP1 SWAP2 SUB SWAP1 REVERT JUMPDEST PUSH0 PUSH20 0xFFFFFFFFFFFFFFFFFFFFFFFFFFFFFFFFFFFFFFFF AND DUP3 PUSH20 0xFFFFFFFFFFFFFFFFFFFFFFFFFFFFFFFFFFFFFFFF AND SUB PUSH2 0x1960 JUMPI PUSH0 PUSH1 0x40 MLOAD PUSH32 0xEC442F0500000000000000000000000000000000000000000000000000000000 DUP2 MSTORE PUSH1 0x4 ADD PUSH2 0x1957 SWAP2 SWAP1 PUSH2 0x3CB4 JUMP JUMPDEST PUSH1 0x40 MLOAD DUP1 SWAP2 SUB SWAP1 REVERT JUMPDEST PUSH2 0x196B DUP4 DUP4 DUP4 PUSH2 0x24A8 JUMP JUMPDEST POP POP POP JUMP JUMPDEST PUSH0 DUP1 PUSH2 0x197A PUSH2 0x126B JUMP JUMPDEST SWAP1 POP DUP1 PUSH6 0xFFFFFFFFFFFF AND DUP4 LT PUSH2 0x19CA JUMPI DUP3 DUP2 PUSH1 0x40 MLOAD PUSH32 0xECD3F81E00000000000000000000000000000000000000000000000000000000 DUP2 MSTORE PUSH1 0x4 ADD PUSH2 0x19C1 SWAP3 SWAP2 SWAP1 PUSH2 0x478D JUMP JUMPDEST PUSH1 0x40 MLOAD DUP1 SWAP2 SUB SWAP1 REVERT JUMPDEST PUSH2 0x19D3 DUP4 PUSH2 0x2556 JUMP JUMPDEST SWAP2 POP POP SWAP2 SWAP1 POP JUMP JUMPDEST PUSH0 DUP1 DUP4 PUSH0 ADD DUP1 SLOAD SWAP1 POP SWAP1 POP PUSH0 DUP1 DUP3 SWAP1 POP PUSH1 0x5 DUP4 GT ISZERO PUSH2 0x1A5C JUMPI PUSH0 PUSH2 0x19FE DUP5 PUSH2 0x25AF JUMP JUMPDEST DUP5 PUSH2 0x1A09 SWAP2 SWAP1 PUSH2 0x468B JUMP JUMPDEST SWAP1 POP PUSH2 0x1A17 DUP8 PUSH0 ADD DUP3 PUSH2 0x2749 JUMP JUMPDEST PUSH0 ADD PUSH0 SWAP1 SLOAD SWAP1 PUSH2 0x100 EXP SWAP1 DIV PUSH6 0xFFFFFFFFFFFF AND PUSH6 0xFFFFFFFFFFFF AND DUP7 PUSH6 0xFFFFFFFFFFFF AND LT ISZERO PUSH2 0x1A4A JUMPI DUP1 SWAP2 POP PUSH2 0x1A5A JUMP JUMPDEST PUSH1 0x1 DUP2 PUSH2 0x1A57 SWAP2 SWAP1 PUSH2 0x4587 JUMP JUMPDEST SWAP3 POP JUMPDEST POP JUMPDEST PUSH0 PUSH2 0x1A6B DUP8 PUSH0 ADD DUP8 DUP6 DUP6 PUSH2 0x275B JUMP JUMPDEST SWAP1 POP PUSH0 DUP2 EQ PUSH2 0x1ABA JUMPI PUSH2 0x1A8C DUP8 PUSH0 ADD PUSH1 0x1 DUP4 PUSH2 0x1A87 SWAP2 SWAP1 PUSH2 0x468B JUMP JUMPDEST PUSH2 0x2749 JUMP JUMPDEST PUSH0 ADD PUSH1 0x6 SWAP1 SLOAD SWAP1 PUSH2 0x100 EXP SWAP1 DIV PUSH26 0xFFFFFFFFFFFFFFFFFFFFFFFFFFFFFFFFFFFFFFFFFFFFFFFFFFFF AND PUSH2 0x1ABC JUMP JUMPDEST PUSH0 JUMPDEST SWAP5 POP POP POP POP POP SWAP3 SWAP2 POP POP JUMP JUMPDEST PUSH0 DUP1 PUSH2 0x1B1A DUP4 PUSH2 0x1B0C PUSH1 0x40 MLOAD DUP1 PUSH1 0x40 ADD PUSH1 0x40 MSTORE DUP1 PUSH1 0x19 DUP2 MSTORE PUSH1 0x20 ADD PUSH32 0x4772616E7450726976696C656765732E4E616D65737061636500000000000000 DUP2 MSTORE POP PUSH2 0x22B4 JUMP JUMPDEST PUSH2 0x27D0 SWAP1 SWAP2 SWAP1 PUSH4 0xFFFFFFFF AND JUMP JUMPDEST SWAP1 POP PUSH2 0x1B25 DUP2 PUSH2 0x27EA JUMP JUMPDEST SWAP2 POP POP SWAP2 SWAP1 POP JUMP JUMPDEST PUSH0 PUSH20 0xFFFFFFFFFFFFFFFFFFFFFFFFFFFFFFFFFFFFFFFF AND DUP3 PUSH20 0xFFFFFFFFFFFFFFFFFFFFFFFFFFFFFFFFFFFFFFFF AND SUB PUSH2 0x1B9D JUMPI PUSH0 PUSH1 0x40 MLOAD PUSH32 0xEC442F0500000000000000000000000000000000000000000000000000000000 DUP2 MSTORE PUSH1 0x4 ADD PUSH2 0x1B94 SWAP2 SWAP1 PUSH2 0x3CB4 JUMP JUMPDEST PUSH1 0x40 MLOAD DUP1 SWAP2 SUB SWAP1 REVERT JUMPDEST PUSH2 0x1BA8 PUSH0 DUP4 DUP4 PUSH2 0x24A8 JUMP JUMPDEST POP POP JUMP JUMPDEST PUSH0 PUSH20 0xFFFFFFFFFFFFFFFFFFFFFFFFFFFFFFFFFFFFFFFF AND DUP3 PUSH20 0xFFFFFFFFFFFFFFFFFFFFFFFFFFFFFFFFFFFFFFFF AND SUB PUSH2 0x1C1C JUMPI PUSH0 PUSH1 0x40 MLOAD PUSH32 0x96C6FD1E00000000000000000000000000000000000000000000000000000000 DUP2 MSTORE PUSH1 0x4 ADD PUSH2 0x1C13 SWAP2 SWAP1 PUSH2 0x3CB4 JUMP JUMPDEST PUSH1 0x40 MLOAD DUP1 SWAP2 SUB SWAP1 REVERT JUMPDEST PUSH2 0x1C27 DUP3 PUSH0 DUP4 PUSH2 0x24A8 JUMP JUMPDEST POP POP JUMP JUMPDEST PUSH0 PUSH2 0x1C35 NUMBER PUSH2 0x2556 JUMP JUMPDEST SWAP1 POP SWAP1 JUMP JUMPDEST PUSH0 DUP1 PUSH20 0xFFFFFFFFFFFFFFFFFFFFFFFFFFFFFFFFFFFFFFFF AND PUSH2 0x1C5B DUP4 PUSH2 0xF66 JUMP JUMPDEST PUSH20 0xFFFFFFFFFFFFFFFFFFFFFFFFFFFFFFFFFFFFFFFF AND EQ DUP1 ISZERO PUSH2 0x1C85 JUMPI POP PUSH0 PUSH2 0x1C83 DUP4 PUSH2 0x1342 JUMP JUMPDEST EQ JUMPDEST ISZERO PUSH2 0x1C9A JUMPI PUSH2 0x1C93 DUP3 PUSH2 0xFF5 JUMP JUMPDEST SWAP1 POP PUSH2 0x1DCA JUMP JUMPDEST PUSH0 PUSH20 0xFFFFFFFFFFFFFFFFFFFFFFFFFFFFFFFFFFFFFFFF AND PUSH2 0x1CBA DUP4 PUSH2 0xF66 JUMP JUMPDEST PUSH20 0xFFFFFFFFFFFFFFFFFFFFFFFFFFFFFFFFFFFFFFFF AND EQ ISZERO DUP1 ISZERO PUSH2 0x1CE5 JUMPI POP PUSH0 PUSH2 0x1CE3 DUP4 PUSH2 0x1342 JUMP JUMPDEST EQ JUMPDEST ISZERO PUSH2 0x1CF2 JUMPI PUSH0 SWAP1 POP PUSH2 0x1DCA JUMP JUMPDEST PUSH0 PUSH20 0xFFFFFFFFFFFFFFFFFFFFFFFFFFFFFFFFFFFFFFFF AND PUSH2 0x1D12 DUP4 PUSH2 0xF66 JUMP JUMPDEST PUSH20 0xFFFFFFFFFFFFFFFFFFFFFFFFFFFFFFFFFFFFFFFF AND EQ DUP1 ISZERO PUSH2 0x1D3D JUMPI POP PUSH0 PUSH2 0x1D3A DUP4 PUSH2 0x1342 JUMP JUMPDEST EQ ISZERO JUMPDEST ISZERO PUSH2 0x1D65 JUMPI PUSH2 0x1D4B DUP3 PUSH2 0x1342 JUMP JUMPDEST PUSH2 0x1D54 DUP4 PUSH2 0xFF5 JUMP JUMPDEST PUSH2 0x1D5E SWAP2 SWAP1 PUSH2 0x4587 JUMP JUMPDEST SWAP1 POP PUSH2 0x1DCA JUMP JUMPDEST PUSH0 PUSH20 0xFFFFFFFFFFFFFFFFFFFFFFFFFFFFFFFFFFFFFFFF AND PUSH2 0x1D85 DUP4 PUSH2 0xF66 JUMP JUMPDEST PUSH20 0xFFFFFFFFFFFFFFFFFFFFFFFFFFFFFFFFFFFFFFFF AND EQ ISZERO DUP1 ISZERO PUSH2 0x1DB1 JUMPI POP PUSH0 PUSH2 0x1DAE DUP4 PUSH2 0x1342 JUMP JUMPDEST EQ ISZERO JUMPDEST ISZERO PUSH2 0x1DC6 JUMPI PUSH2 0x1DBF DUP3 PUSH2 0x1342 JUMP JUMPDEST SWAP1 POP PUSH2 0x1DCA JUMP JUMPDEST PUSH0 SWAP1 POP JUMPDEST SWAP2 SWAP1 POP JUMP JUMPDEST PUSH0 PUSH2 0x1DD9 DUP4 PUSH2 0xF66 JUMP JUMPDEST SWAP1 POP DUP2 PUSH1 0x8 PUSH0 DUP6 PUSH20 0xFFFFFFFFFFFFFFFFFFFFFFFFFFFFFFFFFFFFFFFF AND PUSH20 0xFFFFFFFFFFFFFFFFFFFFFFFFFFFFFFFFFFFFFFFF AND DUP2 MSTORE PUSH1 0x20 ADD SWAP1 DUP2 MSTORE PUSH1 0x20 ADD PUSH0 KECCAK256 PUSH0 PUSH2 0x100 EXP DUP2 SLOAD DUP2 PUSH20 0xFFFFFFFFFFFFFFFFFFFFFFFFFFFFFFFFFFFFFFFF MUL NOT AND SWAP1 DUP4 PUSH20 0xFFFFFFFFFFFFFFFFFFFFFFFFFFFFFFFFFFFFFFFF AND MUL OR SWAP1 SSTORE POP DUP2 PUSH20 0xFFFFFFFFFFFFFFFFFFFFFFFFFFFFFFFFFFFFFFFF AND DUP2 PUSH20 0xFFFFFFFFFFFFFFFFFFFFFFFFFFFFFFFFFFFFFFFF AND DUP5 PUSH20 0xFFFFFFFFFFFFFFFFFFFFFFFFFFFFFFFFFFFFFFFF AND PUSH32 0x3134E8A2E6D97E929A7E54011EA5485D7D196DD5F0BA4D4EF95803E8E3FC257F PUSH1 0x40 MLOAD PUSH1 0x40 MLOAD DUP1 SWAP2 SUB SWAP1 LOG4 PUSH2 0x1EDA DUP2 DUP4 PUSH2 0x1ED5 DUP7 PUSH2 0x1C3A JUMP JUMPDEST PUSH2 0x27F3 JUMP JUMPDEST POP POP POP JUMP JUMPDEST PUSH0 PUSH2 0x1F2D PUSH2 0x1F28 PUSH1 0x9 PUSH0 DUP6 PUSH20 0xFFFFFFFFFFFFFFFFFFFFFFFFFFFFFFFFFFFFFFFF AND PUSH20 0xFFFFFFFFFFFFFFFFFFFFFFFFFFFFFFFFFFFFFFFF AND DUP2 MSTORE PUSH1 0x20 ADD SWAP1 DUP2 MSTORE PUSH1 0x20 ADD PUSH0 KECCAK256 PUSH2 0x2A63 JUMP JUMPDEST PUSH2 0x2A72 JUMP JUMPDEST SWAP1 POP SWAP2 SWAP1 POP JUMP JUMPDEST PUSH1 0x60 PUSH2 0x1F6A PUSH1 0x5 PUSH32 0x0 PUSH2 0x2AC9 SWAP1 SWAP2 SWAP1 PUSH4 0xFFFFFFFF AND JUMP JUMPDEST SWAP1 POP SWAP1 JUMP JUMPDEST PUSH1 0x60 PUSH2 0x1FA5 PUSH1 0x6 PUSH32 0x0 PUSH2 0x2AC9 SWAP1 SWAP2 SWAP1 PUSH4 0xFFFFFFFF AND JUMP JUMPDEST SWAP1 POP SWAP1 JUMP JUMPDEST DUP1 PUSH2 0x1FF1 PUSH2 0x1FEC PUSH1 0x40 MLOAD DUP1 PUSH1 0x40 ADD PUSH1 0x40 MSTORE DUP1 PUSH1 0x1C DUP2 MSTORE PUSH1 0x20 ADD PUSH32 0x4772616E7450726976696C656765732E61646D696E4164647265737300000000 DUP2 MSTORE POP PUSH2 0x22B4 JUMP JUMPDEST PUSH2 0x22D0 JUMP JUMPDEST PUSH0 ADD PUSH0 PUSH2 0x100 EXP DUP2 SLOAD DUP2 PUSH20 0xFFFFFFFFFFFFFFFFFFFFFFFFFFFFFFFFFFFFFFFF MUL NOT AND SWAP1 DUP4 PUSH20 0xFFFFFFFFFFFFFFFFFFFFFFFFFFFFFFFFFFFFFFFF AND MUL OR SWAP1 SSTORE POP POP JUMP JUMPDEST PUSH0 DUP1 DUP3 PUSH0 ADD DUP1 SLOAD SWAP1 POP SWAP1 POP PUSH0 DUP2 EQ PUSH2 0x208B JUMPI PUSH2 0x205D DUP4 PUSH0 ADD PUSH1 0x1 DUP4 PUSH2 0x2058 SWAP2 SWAP1 PUSH2 0x468B JUMP JUMPDEST PUSH2 0x2749 JUMP JUMPDEST PUSH0 ADD PUSH1 0x6 SWAP1 SLOAD SWAP1 PUSH2 0x100 EXP SWAP1 DIV PUSH26 0xFFFFFFFFFFFFFFFFFFFFFFFFFFFFFFFFFFFFFFFFFFFFFFFFFFFF AND PUSH2 0x208D JUMP JUMPDEST PUSH0 JUMPDEST SWAP2 POP POP SWAP2 SWAP1 POP JUMP JUMPDEST PUSH0 PUSH2 0x209F DUP5 PUSH2 0x1C3A JUMP JUMPDEST SWAP1 POP PUSH0 PUSH1 0xB PUSH0 DUP6 DUP2 MSTORE PUSH1 0x20 ADD SWAP1 DUP2 MSTORE PUSH1 0x20 ADD PUSH0 KECCAK256 PUSH1 0x4 ADD PUSH0 DUP7 PUSH20 0xFFFFFFFFFFFFFFFFFFFFFFFFFFFFFFFFFFFFFFFF AND PUSH20 0xFFFFFFFFFFFFFFFFFFFFFFFFFFFFFFFFFFFFFFFF AND DUP2 MSTORE PUSH1 0x20 ADD SWAP1 DUP2 MSTORE PUSH1 0x20 ADD PUSH0 KECCAK256 SLOAD SWAP1 POP DUP3 DUP2 PUSH2 0x2100 SWAP2 SWAP1 PUSH2 0x4587 JUMP JUMPDEST DUP3 LT ISZERO PUSH2 0x214C JUMPI DUP5 DUP5 DUP4 DUP4 DUP7 PUSH1 0x40 MLOAD PUSH32 0xAF68AE6D00000000000000000000000000000000000000000000000000000000 DUP2 MSTORE PUSH1 0x4 ADD PUSH2 0x2143 SWAP6 SWAP5 SWAP4 SWAP3 SWAP2 SWAP1 PUSH2 0x47B4 JUMP JUMPDEST PUSH1 0x40 MLOAD DUP1 SWAP2 SUB SWAP1 REVERT JUMPDEST POP POP POP POP POP JUMP JUMPDEST PUSH0 PUSH2 0x2165 PUSH2 0x215F PUSH2 0x2B76 JUMP JUMPDEST DUP4 PUSH2 0x2C2C JUMP JUMPDEST SWAP1 POP SWAP2 SWAP1 POP JUMP JUMPDEST PUSH0 DUP1 PUSH0 DUP1 PUSH2 0x217C DUP9 DUP9 DUP9 DUP9 PUSH2 0x2C6C JUMP JUMPDEST SWAP3 POP SWAP3 POP SWAP3 POP PUSH2 0x218C DUP3 DUP3 PUSH2 0x2D53 JUMP JUMPDEST DUP3 SWAP4 POP POP POP POP SWAP5 SWAP4 POP POP POP POP JUMP JUMPDEST PUSH0 PUSH2 0x21A4 DUP4 PUSH2 0x2EB5 JUMP JUMPDEST SWAP1 POP DUP1 DUP3 EQ PUSH2 0x21EC JUMPI DUP3 DUP2 PUSH1 0x40 MLOAD PUSH32 0x752D88C000000000000000000000000000000000000000000000000000000000 DUP2 MSTORE PUSH1 0x4 ADD PUSH2 0x21E3 SWAP3 SWAP2 SWAP1 PUSH2 0x4805 JUMP JUMPDEST PUSH1 0x40 MLOAD DUP1 SWAP2 SUB SWAP1 REVERT JUMPDEST POP POP POP JUMP JUMPDEST PUSH0 DUP1 PUSH2 0x21FC DUP4 PUSH2 0x1AC8 JUMP JUMPDEST SWAP1 POP PUSH0 DUP2 PUSH0 ADD SLOAD SWAP1 POP PUSH0 DUP3 PUSH1 0x1 ADD SLOAD SWAP1 POP PUSH0 DUP3 EQ DUP1 PUSH2 0x221A JUMPI POP PUSH0 DUP2 EQ JUMPDEST ISZERO PUSH2 0x222A JUMPI PUSH0 SWAP4 POP POP POP POP PUSH2 0x2250 JUMP JUMPDEST DUP1 DUP3 PUSH2 0x2236 SWAP2 SWAP1 PUSH2 0x4587 JUMP JUMPDEST TIMESTAMP GT ISZERO PUSH2 0x2248 JUMPI PUSH0 SWAP4 POP POP POP POP PUSH2 0x2250 JUMP JUMPDEST PUSH1 0x1 SWAP4 POP POP POP POP JUMPDEST SWAP2 SWAP1 POP JUMP JUMPDEST PUSH2 0x225D PUSH2 0x380B JUMP JUMPDEST PUSH2 0x22AC DUP3 PUSH1 0x9 PUSH0 DUP7 PUSH20 0xFFFFFFFFFFFFFFFFFFFFFFFFFFFFFFFFFFFFFFFF AND PUSH20 0xFFFFFFFFFFFFFFFFFFFFFFFFFFFFFFFFFFFFFFFF AND DUP2 MSTORE PUSH1 0x20 ADD SWAP1 DUP2 MSTORE PUSH1 0x20 ADD PUSH0 KECCAK256 PUSH2 0x2F08 SWAP1 SWAP2 SWAP1 PUSH4 0xFFFFFFFF AND JUMP JUMPDEST SWAP1 POP SWAP3 SWAP2 POP POP JUMP JUMPDEST PUSH0 PUSH1 0x1 DUP3 MLOAD PUSH1 0x20 DUP5 ADD KECCAK256 SUB PUSH0 MSTORE PUSH1 0xFF NOT PUSH1 0x20 PUSH0 KECCAK256 AND SWAP1 POP SWAP2 SWAP1 POP JUMP JUMPDEST PUSH0 DUP2 SWAP1 POP SWAP2 SWAP1 POP JUMP JUMPDEST PUSH0 PUSH20 0xFFFFFFFFFFFFFFFFFFFFFFFFFFFFFFFFFFFFFFFF AND DUP5 PUSH20 0xFFFFFFFFFFFFFFFFFFFFFFFFFFFFFFFFFFFFFFFF AND SUB PUSH2 0x2349 JUMPI PUSH0 PUSH1 0x40 MLOAD PUSH32 0xE602DF0500000000000000000000000000000000000000000000000000000000 DUP2 MSTORE PUSH1 0x4 ADD PUSH2 0x2340 SWAP2 SWAP1 PUSH2 0x3CB4 JUMP JUMPDEST PUSH1 0x40 MLOAD DUP1 SWAP2 SUB SWAP1 REVERT JUMPDEST PUSH0 PUSH20 0xFFFFFFFFFFFFFFFFFFFFFFFFFFFFFFFFFFFFFFFF AND DUP4 PUSH20 0xFFFFFFFFFFFFFFFFFFFFFFFFFFFFFFFFFFFFFFFF AND SUB PUSH2 0x23B9 JUMPI PUSH0 PUSH1 0x40 MLOAD PUSH32 0x94280D6200000000000000000000000000000000000000000000000000000000 DUP2 MSTORE PUSH1 0x4 ADD PUSH2 0x23B0 SWAP2 SWAP1 PUSH2 0x3CB4 JUMP JUMPDEST PUSH1 0x40 MLOAD DUP1 SWAP2 SUB SWAP1 REVERT JUMPDEST DUP2 PUSH1 0x1 PUSH0 DUP7 PUSH20 0xFFFFFFFFFFFFFFFFFFFFFFFFFFFFFFFFFFFFFFFF AND PUSH20 0xFFFFFFFFFFFFFFFFFFFFFFFFFFFFFFFFFFFFFFFF AND DUP2 MSTORE PUSH1 0x20 ADD SWAP1 DUP2 MSTORE PUSH1 0x20 ADD PUSH0 KECCAK256 PUSH0 DUP6 PUSH20 0xFFFFFFFFFFFFFFFFFFFFFFFFFFFFFFFFFFFFFFFF AND PUSH20 0xFFFFFFFFFFFFFFFFFFFFFFFFFFFFFFFFFFFFFFFF AND DUP2 MSTORE PUSH1 0x20 ADD SWAP1 DUP2 MSTORE PUSH1 0x20 ADD PUSH0 KECCAK256 DUP2 SWAP1 SSTORE POP DUP1 ISZERO PUSH2 0x24A2 JUMPI DUP3 PUSH20 0xFFFFFFFFFFFFFFFFFFFFFFFFFFFFFFFFFFFFFFFF AND DUP5 PUSH20 0xFFFFFFFFFFFFFFFFFFFFFFFFFFFFFFFFFFFFFFFF AND PUSH32 0x8C5BE1E5EBEC7D5BD14F71427D1E84F3DD0314C0F7B2291E5B200AC8C7C3B925 DUP5 PUSH1 0x40 MLOAD PUSH2 0x2499 SWAP2 SWAP1 PUSH2 0x3A6A JUMP JUMPDEST PUSH1 0x40 MLOAD DUP1 SWAP2 SUB SWAP1 LOG3 JUMPDEST POP POP POP POP JUMP JUMPDEST PUSH2 0x24B3 DUP4 DUP4 DUP4 PUSH2 0x2FD7 JUMP JUMPDEST PUSH0 PUSH20 0xFFFFFFFFFFFFFFFFFFFFFFFFFFFFFFFFFFFFFFFF AND DUP4 PUSH20 0xFFFFFFFFFFFFFFFFFFFFFFFFFFFFFFFFFFFFFFFF AND SUB PUSH2 0x2546 JUMPI PUSH0 PUSH2 0x24EF PUSH2 0xA00 JUMP JUMPDEST SWAP1 POP PUSH0 PUSH2 0x24FA PUSH2 0x31F0 JUMP JUMPDEST SWAP1 POP DUP1 DUP3 GT ISZERO PUSH2 0x2543 JUMPI DUP2 DUP2 PUSH1 0x40 MLOAD PUSH32 0x1CB15D2600000000000000000000000000000000000000000000000000000000 DUP2 MSTORE PUSH1 0x4 ADD PUSH2 0x253A SWAP3 SWAP2 SWAP1 PUSH2 0x482C JUMP JUMPDEST PUSH1 0x40 MLOAD DUP1 SWAP2 SUB SWAP1 REVERT JUMPDEST POP POP JUMPDEST PUSH2 0x2551 DUP4 DUP4 DUP4 PUSH2 0x3213 JUMP JUMPDEST POP POP POP JUMP JUMPDEST PUSH0 PUSH6 0xFFFFFFFFFFFF DUP1 AND DUP3 GT ISZERO PUSH2 0x25A7 JUMPI PUSH1 0x30 DUP3 PUSH1 0x40 MLOAD PUSH32 0x6DFCC65000000000000000000000000000000000000000000000000000000000 DUP2 MSTORE PUSH1 0x4 ADD PUSH2 0x259E SWAP3 SWAP2 SWAP1 PUSH2 0x488C JUMP JUMPDEST PUSH1 0x40 MLOAD DUP1 SWAP2 SUB SWAP1 REVERT JUMPDEST DUP2 SWAP1 POP SWAP2 SWAP1 POP JUMP JUMPDEST PUSH0 PUSH1 0x1 DUP3 GT PUSH2 0x25C0 JUMPI DUP2 SWAP1 POP PUSH2 0x2744 JUMP JUMPDEST PUSH0 DUP3 SWAP1 POP PUSH0 PUSH1 0x1 SWAP1 POP PUSH17 0x100000000000000000000000000000000 DUP3 LT PUSH2 0x25F0 JUMPI PUSH1 0x80 DUP3 SWAP1 SHR SWAP2 POP PUSH1 0x40 DUP2 SWAP1 SHL SWAP1 POP JUMPDEST PUSH9 0x10000000000000000 DUP3 LT PUSH2 0x260F JUMPI PUSH1 0x40 DUP3 SWAP1 SHR SWAP2 POP PUSH1 0x20 DUP2 SWAP1 SHL SWAP1 POP JUMPDEST PUSH5 0x100000000 DUP3 LT PUSH2 0x262A JUMPI PUSH1 0x20 DUP3 SWAP1 SHR SWAP2 POP PUSH1 0x10 DUP2 SWAP1 SHL SWAP1 POP JUMPDEST PUSH3 0x10000 DUP3 LT PUSH2 0x2643 JUMPI PUSH1 0x10 DUP3 SWAP1 SHR SWAP2 POP PUSH1 0x8 DUP2 SWAP1 SHL SWAP1 POP JUMPDEST PUSH2 0x100 DUP3 LT PUSH2 0x265B JUMPI PUSH1 0x8 DUP3 SWAP1 SHR SWAP2 POP PUSH1 0x4 DUP2 SWAP1 SHL SWAP1 POP JUMPDEST PUSH1 0x10 DUP3 LT PUSH2 0x2672 JUMPI PUSH1 0x4 DUP3 SWAP1 SHR SWAP2 POP PUSH1 0x2 DUP2 SWAP1 SHL SWAP1 POP JUMPDEST PUSH1 0x4 DUP3 LT PUSH2 0x2682 JUMPI PUSH1 0x1 DUP2 SWAP1 SHL SWAP1 POP JUMPDEST PUSH1 0x1 DUP2 PUSH1 0x3 MUL SWAP1 SHR SWAP1 POP PUSH1 0x1 DUP2 DUP6 DUP2 PUSH2 0x269E JUMPI PUSH2 0x269D PUSH2 0x48B3 JUMP JUMPDEST JUMPDEST DIV DUP3 ADD SWAP1 SHR SWAP1 POP PUSH1 0x1 DUP2 DUP6 DUP2 PUSH2 0x26B7 JUMPI PUSH2 0x26B6 PUSH2 0x48B3 JUMP JUMPDEST JUMPDEST DIV DUP3 ADD SWAP1 SHR SWAP1 POP PUSH1 0x1 DUP2 DUP6 DUP2 PUSH2 0x26D0 JUMPI PUSH2 0x26CF PUSH2 0x48B3 JUMP JUMPDEST JUMPDEST DIV DUP3 ADD SWAP1 SHR SWAP1 POP PUSH1 0x1 DUP2 DUP6 DUP2 PUSH2 0x26E9 JUMPI PUSH2 0x26E8 PUSH2 0x48B3 JUMP JUMPDEST JUMPDEST DIV DUP3 ADD SWAP1 SHR SWAP1 POP PUSH1 0x1 DUP2 DUP6 DUP2 PUSH2 0x2702 JUMPI PUSH2 0x2701 PUSH2 0x48B3 JUMP JUMPDEST JUMPDEST DIV DUP3 ADD SWAP1 SHR SWAP1 POP PUSH1 0x1 DUP2 DUP6 DUP2 PUSH2 0x271B JUMPI PUSH2 0x271A PUSH2 0x48B3 JUMP JUMPDEST JUMPDEST DIV DUP3 ADD SWAP1 SHR SWAP1 POP PUSH2 0x273D DUP2 DUP6 DUP2 PUSH2 0x2735 JUMPI PUSH2 0x2734 PUSH2 0x48B3 JUMP JUMPDEST JUMPDEST DIV DUP3 GT PUSH2 0x32CB JUMP JUMPDEST DUP2 SUB SWAP3 POP POP POP JUMPDEST SWAP2 SWAP1 POP JUMP JUMPDEST PUSH0 DUP3 PUSH0 MSTORE DUP2 PUSH1 0x20 PUSH0 KECCAK256 ADD SWAP1 POP SWAP3 SWAP2 POP POP JUMP JUMPDEST PUSH0 JUMPDEST DUP2 DUP4 LT ISZERO PUSH2 0x27C5 JUMPI PUSH0 PUSH2 0x2770 DUP5 DUP5 PUSH2 0x32D6 JUMP JUMPDEST SWAP1 POP DUP5 PUSH6 0xFFFFFFFFFFFF AND PUSH2 0x2785 DUP8 DUP4 PUSH2 0x2749 JUMP JUMPDEST PUSH0 ADD PUSH0 SWAP1 SLOAD SWAP1 PUSH2 0x100 EXP SWAP1 DIV PUSH6 0xFFFFFFFFFFFF AND PUSH6 0xFFFFFFFFFFFF AND GT ISZERO PUSH2 0x27AF JUMPI DUP1 SWAP3 POP PUSH2 0x27BF JUMP JUMPDEST PUSH1 0x1 DUP2 PUSH2 0x27BC SWAP2 SWAP1 PUSH2 0x4587 JUMP JUMPDEST SWAP4 POP JUMPDEST POP PUSH2 0x275D JUMP JUMPDEST DUP2 SWAP1 POP SWAP5 SWAP4 POP POP POP POP JUMP JUMPDEST PUSH0 DUP1 NOT PUSH1 0x60 SHR DUP3 AND PUSH0 MSTORE DUP3 PUSH1 0x20 MSTORE PUSH1 0x40 PUSH0 KECCAK256 SWAP1 POP SWAP3 SWAP2 POP POP JUMP JUMPDEST PUSH0 DUP2 SWAP1 POP SWAP2 SWAP1 POP JUMP JUMPDEST DUP2 PUSH20 0xFFFFFFFFFFFFFFFFFFFFFFFFFFFFFFFFFFFFFFFF AND DUP4 PUSH20 0xFFFFFFFFFFFFFFFFFFFFFFFFFFFFFFFFFFFFFFFF AND EQ ISZERO DUP1 ISZERO PUSH2 0x282E JUMPI POP PUSH0 DUP2 GT JUMPDEST ISZERO PUSH2 0x2A5E JUMPI PUSH0 PUSH20 0xFFFFFFFFFFFFFFFFFFFFFFFFFFFFFFFFFFFFFFFF AND DUP4 PUSH20 0xFFFFFFFFFFFFFFFFFFFFFFFFFFFFFFFFFFFFFFFF AND EQ PUSH2 0x2948 JUMPI PUSH0 DUP1 PUSH2 0x28B9 PUSH1 0x9 PUSH0 DUP8 PUSH20 0xFFFFFFFFFFFFFFFFFFFFFFFFFFFFFFFFFFFFFFFF AND PUSH20 0xFFFFFFFFFFFFFFFFFFFFFFFFFFFFFFFFFFFFFFFF AND DUP2 MSTORE PUSH1 0x20 ADD SWAP1 DUP2 MSTORE PUSH1 0x20 ADD PUSH0 KECCAK256 PUSH2 0x1751 PUSH2 0x28B4 DUP7 PUSH2 0x32FB JUMP JUMPDEST PUSH2 0x3368 JUMP JUMPDEST PUSH26 0xFFFFFFFFFFFFFFFFFFFFFFFFFFFFFFFFFFFFFFFFFFFFFFFFFFFF AND SWAP2 POP PUSH26 0xFFFFFFFFFFFFFFFFFFFFFFFFFFFFFFFFFFFFFFFFFFFFFFFFFFFF AND SWAP2 POP DUP5 PUSH20 0xFFFFFFFFFFFFFFFFFFFFFFFFFFFFFFFFFFFFFFFF AND PUSH32 0xDEC2BACDD2F05B59DE34DA9B523DFF8BE42E5E38E818C82FDB0BAE774387A724 DUP4 DUP4 PUSH1 0x40 MLOAD PUSH2 0x293D SWAP3 SWAP2 SWAP1 PUSH2 0x482C JUMP JUMPDEST PUSH1 0x40 MLOAD DUP1 SWAP2 SUB SWAP1 LOG2 POP POP JUMPDEST PUSH0 PUSH20 0xFFFFFFFFFFFFFFFFFFFFFFFFFFFFFFFFFFFFFFFF AND DUP3 PUSH20 0xFFFFFFFFFFFFFFFFFFFFFFFFFFFFFFFFFFFFFFFF AND EQ PUSH2 0x2A5D JUMPI PUSH0 DUP1 PUSH2 0x29CE PUSH1 0x9 PUSH0 DUP7 PUSH20 0xFFFFFFFFFFFFFFFFFFFFFFFFFFFFFFFFFFFFFFFF AND PUSH20 0xFFFFFFFFFFFFFFFFFFFFFFFFFFFFFFFFFFFFFFFF AND DUP2 MSTORE PUSH1 0x20 ADD SWAP1 DUP2 MSTORE PUSH1 0x20 ADD PUSH0 KECCAK256 PUSH2 0x173C PUSH2 0x29C9 DUP7 PUSH2 0x32FB JUMP JUMPDEST PUSH2 0x3368 JUMP JUMPDEST PUSH26 0xFFFFFFFFFFFFFFFFFFFFFFFFFFFFFFFFFFFFFFFFFFFFFFFFFFFF AND SWAP2 POP PUSH26 0xFFFFFFFFFFFFFFFFFFFFFFFFFFFFFFFFFFFFFFFFFFFFFFFFFFFF AND SWAP2 POP DUP4 PUSH20 0xFFFFFFFFFFFFFFFFFFFFFFFFFFFFFFFFFFFFFFFF AND PUSH32 0xDEC2BACDD2F05B59DE34DA9B523DFF8BE42E5E38E818C82FDB0BAE774387A724 DUP4 DUP4 PUSH1 0x40 MLOAD PUSH2 0x2A52 SWAP3 SWAP2 SWAP1 PUSH2 0x482C JUMP JUMPDEST PUSH1 0x40 MLOAD DUP1 SWAP2 SUB SWAP1 LOG2 POP POP JUMPDEST JUMPDEST POP POP POP JUMP JUMPDEST PUSH0 DUP2 PUSH0 ADD DUP1 SLOAD SWAP1 POP SWAP1 POP SWAP2 SWAP1 POP JUMP JUMPDEST PUSH0 PUSH4 0xFFFFFFFF DUP1 AND DUP3 GT ISZERO PUSH2 0x2AC1 JUMPI PUSH1 0x20 DUP3 PUSH1 0x40 MLOAD PUSH32 0x6DFCC65000000000000000000000000000000000000000000000000000000000 DUP2 MSTORE PUSH1 0x4 ADD PUSH2 0x2AB8 SWAP3 SWAP2 SWAP1 PUSH2 0x4919 JUMP JUMPDEST PUSH1 0x40 MLOAD DUP1 SWAP2 SUB SWAP1 REVERT JUMPDEST DUP2 SWAP1 POP SWAP2 SWAP1 POP JUMP JUMPDEST PUSH1 0x60 PUSH1 0xFF PUSH0 SHL DUP4 EQ PUSH2 0x2AE5 JUMPI PUSH2 0x2ADE DUP4 PUSH2 0x33A7 JUMP JUMPDEST SWAP1 POP PUSH2 0x2B70 JUMP JUMPDEST DUP2 DUP1 SLOAD PUSH2 0x2AF1 SWAP1 PUSH2 0x413F JUMP JUMPDEST DUP1 PUSH1 0x1F ADD PUSH1 0x20 DUP1 SWAP2 DIV MUL PUSH1 0x20 ADD PUSH1 0x40 MLOAD SWAP1 DUP2 ADD PUSH1 0x40 MSTORE DUP1 SWAP3 SWAP2 SWAP1 DUP2 DUP2 MSTORE PUSH1 0x20 ADD DUP3 DUP1 SLOAD PUSH2 0x2B1D SWAP1 PUSH2 0x413F JUMP JUMPDEST DUP1 ISZERO PUSH2 0x2B68 JUMPI DUP1 PUSH1 0x1F LT PUSH2 0x2B3F JUMPI PUSH2 0x100 DUP1 DUP4 SLOAD DIV MUL DUP4 MSTORE SWAP2 PUSH1 0x20 ADD SWAP2 PUSH2 0x2B68 JUMP JUMPDEST DUP3 ADD SWAP2 SWAP1 PUSH0 MSTORE PUSH1 0x20 PUSH0 KECCAK256 SWAP1 JUMPDEST DUP2 SLOAD DUP2 MSTORE SWAP1 PUSH1 0x1 ADD SWAP1 PUSH1 0x20 ADD DUP1 DUP4 GT PUSH2 0x2B4B JUMPI DUP3 SWAP1 SUB PUSH1 0x1F AND DUP3 ADD SWAP2 JUMPDEST POP POP POP POP POP SWAP1 POP JUMPDEST SWAP3 SWAP2 POP POP JUMP JUMPDEST PUSH0 PUSH32 0x0 PUSH20 0xFFFFFFFFFFFFFFFFFFFFFFFFFFFFFFFFFFFFFFFF AND ADDRESS PUSH20 0xFFFFFFFFFFFFFFFFFFFFFFFFFFFFFFFFFFFFFFFF AND EQ DUP1 ISZERO PUSH2 0x2BF1 JUMPI POP PUSH32 0x0 CHAINID EQ JUMPDEST ISZERO PUSH2 0x2C1E JUMPI PUSH32 0x0 SWAP1 POP PUSH2 0x2C29 JUMP JUMPDEST PUSH2 0x2C26 PUSH2 0x3419 JUMP JUMPDEST SWAP1 POP JUMPDEST SWAP1 JUMP JUMPDEST PUSH0 PUSH1 0x40 MLOAD PUSH32 0x1901000000000000000000000000000000000000000000000000000000000000 DUP2 MSTORE DUP4 PUSH1 0x2 DUP3 ADD MSTORE DUP3 PUSH1 0x22 DUP3 ADD MSTORE PUSH1 0x42 DUP2 KECCAK256 SWAP2 POP POP SWAP3 SWAP2 POP POP JUMP JUMPDEST PUSH0 DUP1 PUSH0 PUSH32 0x7FFFFFFFFFFFFFFFFFFFFFFFFFFFFFFF5D576E7357A4501DDFE92F46681B20A0 DUP5 PUSH0 SHR GT ISZERO PUSH2 0x2CA8 JUMPI PUSH0 PUSH1 0x3 DUP6 SWAP3 POP SWAP3 POP SWAP3 POP PUSH2 0x2D49 JUMP JUMPDEST PUSH0 PUSH1 0x1 DUP9 DUP9 DUP9 DUP9 PUSH1 0x40 MLOAD PUSH0 DUP2 MSTORE PUSH1 0x20 ADD PUSH1 0x40 MSTORE PUSH1 0x40 MLOAD PUSH2 0x2CCB SWAP5 SWAP4 SWAP3 SWAP2 SWAP1 PUSH2 0x4940 JUMP JUMPDEST PUSH1 0x20 PUSH1 0x40 MLOAD PUSH1 0x20 DUP2 SUB SWAP1 DUP1 DUP5 SUB SWAP1 DUP6 GAS STATICCALL ISZERO DUP1 ISZERO PUSH2 0x2CEB JUMPI RETURNDATASIZE PUSH0 DUP1 RETURNDATACOPY RETURNDATASIZE PUSH0 REVERT JUMPDEST POP POP POP PUSH1 0x20 PUSH1 0x40 MLOAD SUB MLOAD SWAP1 POP PUSH0 PUSH20 0xFFFFFFFFFFFFFFFFFFFFFFFFFFFFFFFFFFFFFFFF AND DUP2 PUSH20 0xFFFFFFFFFFFFFFFFFFFFFFFFFFFFFFFFFFFFFFFF AND SUB PUSH2 0x2D3C JUMPI PUSH0 PUSH1 0x1 PUSH0 DUP1 SHL SWAP4 POP SWAP4 POP SWAP4 POP POP PUSH2 0x2D49 JUMP JUMPDEST DUP1 PUSH0 DUP1 PUSH0 SHL SWAP4 POP SWAP4 POP SWAP4 POP POP JUMPDEST SWAP5 POP SWAP5 POP SWAP5 SWAP2 POP POP JUMP JUMPDEST PUSH0 PUSH1 0x3 DUP2 GT ISZERO PUSH2 0x2D66 JUMPI PUSH2 0x2D65 PUSH2 0x4983 JUMP JUMPDEST JUMPDEST DUP3 PUSH1 0x3 DUP2 GT ISZERO PUSH2 0x2D79 JUMPI PUSH2 0x2D78 PUSH2 0x4983 JUMP JUMPDEST JUMPDEST SUB ISZERO PUSH2 0x2EB1 JUMPI PUSH1 0x1 PUSH1 0x3 DUP2 GT ISZERO PUSH2 0x2D93 JUMPI PUSH2 0x2D92 PUSH2 0x4983 JUMP JUMPDEST JUMPDEST DUP3 PUSH1 0x3 DUP2 GT ISZERO PUSH2 0x2DA6 JUMPI PUSH2 0x2DA5 PUSH2 0x4983 JUMP JUMPDEST JUMPDEST SUB PUSH2 0x2DDD JUMPI PUSH1 0x40 MLOAD PUSH32 0xF645EEDF00000000000000000000000000000000000000000000000000000000 DUP2 MSTORE PUSH1 0x4 ADD PUSH1 0x40 MLOAD DUP1 SWAP2 SUB SWAP1 REVERT JUMPDEST PUSH1 0x2 PUSH1 0x3 DUP2 GT ISZERO PUSH2 0x2DF1 JUMPI PUSH2 0x2DF0 PUSH2 0x4983 JUMP JUMPDEST JUMPDEST DUP3 PUSH1 0x3 DUP2 GT ISZERO PUSH2 0x2E04 JUMPI PUSH2 0x2E03 PUSH2 0x4983 JUMP JUMPDEST JUMPDEST SUB PUSH2 0x2E48 JUMPI DUP1 PUSH0 SHR PUSH1 0x40 MLOAD PUSH32 0xFCE698F700000000000000000000000000000000000000000000000000000000 DUP2 MSTORE PUSH1 0x4 ADD PUSH2 0x2E3F SWAP2 SWAP1 PUSH2 0x3A6A JUMP JUMPDEST PUSH1 0x40 MLOAD DUP1 SWAP2 SUB SWAP1 REVERT JUMPDEST PUSH1 0x3 DUP1 DUP2 GT ISZERO PUSH2 0x2E5B JUMPI PUSH2 0x2E5A PUSH2 0x4983 JUMP JUMPDEST JUMPDEST DUP3 PUSH1 0x3 DUP2 GT ISZERO PUSH2 0x2E6E JUMPI PUSH2 0x2E6D PUSH2 0x4983 JUMP JUMPDEST JUMPDEST SUB PUSH2 0x2EB0 JUMPI DUP1 PUSH1 0x40 MLOAD PUSH32 0xD78BCE0C00000000000000000000000000000000000000000000000000000000 DUP2 MSTORE PUSH1 0x4 ADD PUSH2 0x2EA7 SWAP2 SWAP1 PUSH2 0x49B0 JUMP JUMPDEST PUSH1 0x40 MLOAD DUP1 SWAP2 SUB SWAP1 REVERT JUMPDEST JUMPDEST POP POP JUMP JUMPDEST PUSH0 PUSH1 0x7 PUSH0 DUP4 PUSH20 0xFFFFFFFFFFFFFFFFFFFFFFFFFFFFFFFFFFFFFFFF AND PUSH20 0xFFFFFFFFFFFFFFFFFFFFFFFFFFFFFFFFFFFFFFFF AND DUP2 MSTORE PUSH1 0x20 ADD SWAP1 DUP2 MSTORE PUSH1 0x20 ADD PUSH0 KECCAK256 PUSH0 DUP2 SLOAD DUP1 SWAP3 SWAP2 SWAP1 PUSH1 0x1 ADD SWAP2 SWAP1 POP SSTORE SWAP1 POP SWAP2 SWAP1 POP JUMP JUMPDEST PUSH2 0x2F10 PUSH2 0x380B JUMP JUMPDEST DUP3 PUSH0 ADD DUP3 PUSH4 0xFFFFFFFF AND DUP2 SLOAD DUP2 LT PUSH2 0x2F2B JUMPI PUSH2 0x2F2A PUSH2 0x49C9 JUMP JUMPDEST JUMPDEST SWAP1 PUSH0 MSTORE PUSH1 0x20 PUSH0 KECCAK256 ADD PUSH1 0x40 MLOAD DUP1 PUSH1 0x40 ADD PUSH1 0x40 MSTORE SWAP1 DUP2 PUSH0 DUP3 ADD PUSH0 SWAP1 SLOAD SWAP1 PUSH2 0x100 EXP SWAP1 DIV PUSH6 0xFFFFFFFFFFFF AND PUSH6 0xFFFFFFFFFFFF AND PUSH6 0xFFFFFFFFFFFF AND DUP2 MSTORE PUSH1 0x20 ADD PUSH0 DUP3 ADD PUSH1 0x6 SWAP1 SLOAD SWAP1 PUSH2 0x100 EXP SWAP1 DIV PUSH26 0xFFFFFFFFFFFFFFFFFFFFFFFFFFFFFFFFFFFFFFFFFFFFFFFFFFFF AND PUSH26 0xFFFFFFFFFFFFFFFFFFFFFFFFFFFFFFFFFFFFFFFFFFFFFFFFFFFF AND PUSH26 0xFFFFFFFFFFFFFFFFFFFFFFFFFFFFFFFFFFFFFFFFFFFFFFFFFFFF AND DUP2 MSTORE POP POP SWAP1 POP SWAP3 SWAP2 POP POP JUMP JUMPDEST PUSH0 PUSH20 0xFFFFFFFFFFFFFFFFFFFFFFFFFFFFFFFFFFFFFFFF AND DUP4 PUSH20 0xFFFFFFFFFFFFFFFFFFFFFFFFFFFFFFFFFFFFFFFF AND SUB PUSH2 0x3027 JUMPI DUP1 PUSH1 0x2 PUSH0 DUP3 DUP3 SLOAD PUSH2 0x301B SWAP2 SWAP1 PUSH2 0x4587 JUMP JUMPDEST SWAP3 POP POP DUP2 SWAP1 SSTORE POP PUSH2 0x30F5 JUMP JUMPDEST PUSH0 DUP1 PUSH0 DUP6 PUSH20 0xFFFFFFFFFFFFFFFFFFFFFFFFFFFFFFFFFFFFFFFF AND PUSH20 0xFFFFFFFFFFFFFFFFFFFFFFFFFFFFFFFFFFFFFFFF AND DUP2 MSTORE PUSH1 0x20 ADD SWAP1 DUP2 MSTORE PUSH1 0x20 ADD PUSH0 KECCAK256 SLOAD SWAP1 POP DUP2 DUP2 LT ISZERO PUSH2 0x30B0 JUMPI DUP4 DUP2 DUP4 PUSH1 0x40 MLOAD PUSH32 0xE450D38C00000000000000000000000000000000000000000000000000000000 DUP2 MSTORE PUSH1 0x4 ADD PUSH2 0x30A7 SWAP4 SWAP3 SWAP2 SWAP1 PUSH2 0x4758 JUMP JUMPDEST PUSH1 0x40 MLOAD DUP1 SWAP2 SUB SWAP1 REVERT JUMPDEST DUP2 DUP2 SUB PUSH0 DUP1 DUP7 PUSH20 0xFFFFFFFFFFFFFFFFFFFFFFFFFFFFFFFFFFFFFFFF AND PUSH20 0xFFFFFFFFFFFFFFFFFFFFFFFFFFFFFFFFFFFFFFFF AND DUP2 MSTORE PUSH1 0x20 ADD SWAP1 DUP2 MSTORE PUSH1 0x20 ADD PUSH0 KECCAK256 DUP2 SWAP1 SSTORE POP POP JUMPDEST PUSH0 PUSH20 0xFFFFFFFFFFFFFFFFFFFFFFFFFFFFFFFFFFFFFFFF AND DUP3 PUSH20 0xFFFFFFFFFFFFFFFFFFFFFFFFFFFFFFFFFFFFFFFF AND SUB PUSH2 0x313C JUMPI DUP1 PUSH1 0x2 PUSH0 DUP3 DUP3 SLOAD SUB SWAP3 POP POP DUP2 SWAP1 SSTORE POP PUSH2 0x3186 JUMP JUMPDEST DUP1 PUSH0 DUP1 DUP5 PUSH20 0xFFFFFFFFFFFFFFFFFFFFFFFFFFFFFFFFFFFFFFFF AND PUSH20 0xFFFFFFFFFFFFFFFFFFFFFFFFFFFFFFFFFFFFFFFF AND DUP2 MSTORE PUSH1 0x20 ADD SWAP1 DUP2 MSTORE PUSH1 0x20 ADD PUSH0 KECCAK256 PUSH0 DUP3 DUP3 SLOAD ADD SWAP3 POP POP DUP2 SWAP1 SSTORE POP JUMPDEST DUP2 PUSH20 0xFFFFFFFFFFFFFFFFFFFFFFFFFFFFFFFFFFFFFFFF AND DUP4 PUSH20 0xFFFFFFFFFFFFFFFFFFFFFFFFFFFFFFFFFFFFFFFF AND PUSH32 0xDDF252AD1BE2C89B69C2B068FC378DAA952BA7F163C4A11628F55A4DF523B3EF DUP4 PUSH1 0x40 MLOAD PUSH2 0x31E3 SWAP2 SWAP1 PUSH2 0x3A6A JUMP JUMPDEST PUSH1 0x40 MLOAD DUP1 SWAP2 SUB SWAP1 LOG3 POP POP POP JUMP JUMPDEST PUSH0 PUSH26 0xFFFFFFFFFFFFFFFFFFFFFFFFFFFFFFFFFFFFFFFFFFFFFFFFFFFF DUP1 AND SWAP1 POP SWAP1 JUMP JUMPDEST PUSH0 PUSH20 0xFFFFFFFFFFFFFFFFFFFFFFFFFFFFFFFFFFFFFFFF AND DUP4 PUSH20 0xFFFFFFFFFFFFFFFFFFFFFFFFFFFFFFFFFFFFFFFF AND SUB PUSH2 0x325F JUMPI PUSH2 0x325C PUSH1 0xA PUSH2 0x173C PUSH2 0x3257 DUP5 PUSH2 0x32FB JUMP JUMPDEST PUSH2 0x3368 JUMP JUMPDEST POP POP JUMPDEST PUSH0 PUSH20 0xFFFFFFFFFFFFFFFFFFFFFFFFFFFFFFFFFFFFFFFF AND DUP3 PUSH20 0xFFFFFFFFFFFFFFFFFFFFFFFFFFFFFFFFFFFFFFFF AND SUB PUSH2 0x32AB JUMPI PUSH2 0x32A8 PUSH1 0xA PUSH2 0x1751 PUSH2 0x32A3 DUP5 PUSH2 0x32FB JUMP JUMPDEST PUSH2 0x3368 JUMP JUMPDEST POP POP JUMPDEST PUSH2 0x32C6 PUSH2 0x32B7 DUP5 PUSH2 0xF66 JUMP JUMPDEST PUSH2 0x32C0 DUP5 PUSH2 0xF66 JUMP JUMPDEST DUP4 PUSH2 0x27F3 JUMP JUMPDEST POP POP POP JUMP JUMPDEST PUSH0 DUP2 ISZERO ISZERO SWAP1 POP SWAP2 SWAP1 POP JUMP JUMPDEST PUSH0 PUSH1 0x2 DUP3 DUP5 XOR PUSH2 0x32E6 SWAP2 SWAP1 PUSH2 0x49F6 JUMP JUMPDEST DUP3 DUP5 AND PUSH2 0x32F3 SWAP2 SWAP1 PUSH2 0x4587 JUMP JUMPDEST SWAP1 POP SWAP3 SWAP2 POP POP JUMP JUMPDEST PUSH0 PUSH26 0xFFFFFFFFFFFFFFFFFFFFFFFFFFFFFFFFFFFFFFFFFFFFFFFFFFFF DUP1 AND DUP3 GT ISZERO PUSH2 0x3360 JUMPI PUSH1 0xD0 DUP3 PUSH1 0x40 MLOAD PUSH32 0x6DFCC65000000000000000000000000000000000000000000000000000000000 DUP2 MSTORE PUSH1 0x4 ADD PUSH2 0x3357 SWAP3 SWAP2 SWAP1 PUSH2 0x4A5F JUMP JUMPDEST PUSH1 0x40 MLOAD DUP1 SWAP2 SUB SWAP1 REVERT JUMPDEST DUP2 SWAP1 POP SWAP2 SWAP1 POP JUMP JUMPDEST PUSH0 DUP1 PUSH2 0x339B PUSH2 0x3375 PUSH2 0x126B JUMP JUMPDEST PUSH2 0x338B PUSH2 0x3381 DUP9 PUSH2 0x2033 JUMP JUMPDEST DUP7 DUP9 PUSH4 0xFFFFFFFF AND JUMP JUMPDEST DUP8 PUSH2 0x34AE SWAP1 SWAP3 SWAP2 SWAP1 PUSH4 0xFFFFFFFF AND JUMP JUMPDEST SWAP2 POP SWAP2 POP SWAP4 POP SWAP4 SWAP2 POP POP JUMP JUMPDEST PUSH1 0x60 PUSH0 PUSH2 0x33B3 DUP4 PUSH2 0x34C9 JUMP JUMPDEST SWAP1 POP PUSH0 PUSH1 0x20 PUSH8 0xFFFFFFFFFFFFFFFF DUP2 GT ISZERO PUSH2 0x33D1 JUMPI PUSH2 0x33D0 PUSH2 0x3B0F JUMP JUMPDEST JUMPDEST PUSH1 0x40 MLOAD SWAP1 DUP1 DUP3 MSTORE DUP1 PUSH1 0x1F ADD PUSH1 0x1F NOT AND PUSH1 0x20 ADD DUP3 ADD PUSH1 0x40 MSTORE DUP1 ISZERO PUSH2 0x3403 JUMPI DUP2 PUSH1 0x20 ADD PUSH1 0x1 DUP3 MUL DUP1 CALLDATASIZE DUP4 CALLDATACOPY DUP1 DUP3 ADD SWAP2 POP POP SWAP1 POP JUMPDEST POP SWAP1 POP DUP2 DUP2 MSTORE DUP4 PUSH1 0x20 DUP3 ADD MSTORE DUP1 SWAP3 POP POP POP SWAP2 SWAP1 POP JUMP JUMPDEST PUSH0 PUSH32 0x8B73C3C69BB8FE3D512ECC4CF759CC79239F7B179B0FFACAA9A75D522B39400F PUSH32 0x0 PUSH32 0x0 CHAINID ADDRESS PUSH1 0x40 MLOAD PUSH1 0x20 ADD PUSH2 0x3493 SWAP6 SWAP5 SWAP4 SWAP3 SWAP2 SWAP1 PUSH2 0x4A86 JUMP JUMPDEST PUSH1 0x40 MLOAD PUSH1 0x20 DUP2 DUP4 SUB SUB DUP2 MSTORE SWAP1 PUSH1 0x40 MSTORE DUP1 MLOAD SWAP1 PUSH1 0x20 ADD KECCAK256 SWAP1 POP SWAP1 JUMP JUMPDEST PUSH0 DUP1 PUSH2 0x34BD DUP6 PUSH0 ADD DUP6 DUP6 PUSH2 0x3517 JUMP JUMPDEST SWAP2 POP SWAP2 POP SWAP4 POP SWAP4 SWAP2 POP POP JUMP JUMPDEST PUSH0 DUP1 PUSH1 0xFF DUP4 PUSH0 SHR AND SWAP1 POP PUSH1 0x1F DUP2 GT ISZERO PUSH2 0x350E JUMPI PUSH1 0x40 MLOAD PUSH32 0xB3512B0C00000000000000000000000000000000000000000000000000000000 DUP2 MSTORE PUSH1 0x4 ADD PUSH1 0x40 MLOAD DUP1 SWAP2 SUB SWAP1 REVERT JUMPDEST DUP1 SWAP2 POP POP SWAP2 SWAP1 POP JUMP JUMPDEST PUSH0 DUP1 PUSH0 DUP6 DUP1 SLOAD SWAP1 POP SWAP1 POP PUSH0 DUP2 GT ISZERO PUSH2 0x3723 JUMPI PUSH0 PUSH2 0x3540 DUP8 PUSH1 0x1 DUP5 PUSH2 0x353B SWAP2 SWAP1 PUSH2 0x468B JUMP JUMPDEST PUSH2 0x2749 JUMP JUMPDEST SWAP1 POP PUSH0 DUP2 PUSH0 ADD PUSH0 SWAP1 SLOAD SWAP1 PUSH2 0x100 EXP SWAP1 DIV PUSH6 0xFFFFFFFFFFFF AND SWAP1 POP PUSH0 DUP3 PUSH0 ADD PUSH1 0x6 SWAP1 SLOAD SWAP1 PUSH2 0x100 EXP SWAP1 DIV PUSH26 0xFFFFFFFFFFFFFFFFFFFFFFFFFFFFFFFFFFFFFFFFFFFFFFFFFFFF AND SWAP1 POP DUP8 PUSH6 0xFFFFFFFFFFFF AND DUP3 PUSH6 0xFFFFFFFFFFFF AND GT ISZERO PUSH2 0x35D1 JUMPI PUSH1 0x40 MLOAD PUSH32 0x2520601D00000000000000000000000000000000000000000000000000000000 DUP2 MSTORE PUSH1 0x4 ADD PUSH1 0x40 MLOAD DUP1 SWAP2 SUB SWAP1 REVERT JUMPDEST DUP8 PUSH6 0xFFFFFFFFFFFF AND DUP3 PUSH6 0xFFFFFFFFFFFF AND SUB PUSH2 0x363B JUMPI DUP7 DUP4 PUSH0 ADD PUSH1 0x6 PUSH2 0x100 EXP DUP2 SLOAD DUP2 PUSH26 0xFFFFFFFFFFFFFFFFFFFFFFFFFFFFFFFFFFFFFFFFFFFFFFFFFFFF MUL NOT AND SWAP1 DUP4 PUSH26 0xFFFFFFFFFFFFFFFFFFFFFFFFFFFFFFFFFFFFFFFFFFFFFFFFFFFF AND MUL OR SWAP1 SSTORE POP PUSH2 0x3714 JUMP JUMPDEST DUP9 PUSH1 0x40 MLOAD DUP1 PUSH1 0x40 ADD PUSH1 0x40 MSTORE DUP1 DUP11 PUSH6 0xFFFFFFFFFFFF AND DUP2 MSTORE PUSH1 0x20 ADD DUP10 PUSH26 0xFFFFFFFFFFFFFFFFFFFFFFFFFFFFFFFFFFFFFFFFFFFFFFFFFFFF AND DUP2 MSTORE POP SWAP1 DUP1 PUSH1 0x1 DUP2 SLOAD ADD DUP1 DUP3 SSTORE DUP1 SWAP2 POP POP PUSH1 0x1 SWAP1 SUB SWAP1 PUSH0 MSTORE PUSH1 0x20 PUSH0 KECCAK256 ADD PUSH0 SWAP1 SWAP2 SWAP1 SWAP2 SWAP1 SWAP2 POP PUSH0 DUP3 ADD MLOAD DUP2 PUSH0 ADD PUSH0 PUSH2 0x100 EXP DUP2 SLOAD DUP2 PUSH6 0xFFFFFFFFFFFF MUL NOT AND SWAP1 DUP4 PUSH6 0xFFFFFFFFFFFF AND MUL OR SWAP1 SSTORE POP PUSH1 0x20 DUP3 ADD MLOAD DUP2 PUSH0 ADD PUSH1 0x6 PUSH2 0x100 EXP DUP2 SLOAD DUP2 PUSH26 0xFFFFFFFFFFFFFFFFFFFFFFFFFFFFFFFFFFFFFFFFFFFFFFFFFFFF MUL NOT AND SWAP1 DUP4 PUSH26 0xFFFFFFFFFFFFFFFFFFFFFFFFFFFFFFFFFFFFFFFFFFFFFFFFFFFF AND MUL OR SWAP1 SSTORE POP POP POP JUMPDEST DUP1 DUP8 SWAP6 POP SWAP6 POP POP POP POP POP PUSH2 0x3803 JUMP JUMPDEST DUP6 PUSH1 0x40 MLOAD DUP1 PUSH1 0x40 ADD PUSH1 0x40 MSTORE DUP1 DUP8 PUSH6 0xFFFFFFFFFFFF AND DUP2 MSTORE PUSH1 0x20 ADD DUP7 PUSH26 0xFFFFFFFFFFFFFFFFFFFFFFFFFFFFFFFFFFFFFFFFFFFFFFFFFFFF AND DUP2 MSTORE POP SWAP1 DUP1 PUSH1 0x1 DUP2 SLOAD ADD DUP1 DUP3 SSTORE DUP1 SWAP2 POP POP PUSH1 0x1 SWAP1 SUB SWAP1 PUSH0 MSTORE PUSH1 0x20 PUSH0 KECCAK256 ADD PUSH0 SWAP1 SWAP2 SWAP1 SWAP2 SWAP1 SWAP2 POP PUSH0 DUP3 ADD MLOAD DUP2 PUSH0 ADD PUSH0 PUSH2 0x100 EXP DUP2 SLOAD DUP2 PUSH6 0xFFFFFFFFFFFF MUL NOT AND SWAP1 DUP4 PUSH6 0xFFFFFFFFFFFF AND MUL OR SWAP1 SSTORE POP PUSH1 0x20 DUP3 ADD MLOAD DUP2 PUSH0 ADD PUSH1 0x6 PUSH2 0x100 EXP DUP2 SLOAD DUP2 PUSH26 0xFFFFFFFFFFFFFFFFFFFFFFFFFFFFFFFFFFFFFFFFFFFFFFFFFFFF MUL NOT AND SWAP1 DUP4 PUSH26 0xFFFFFFFFFFFFFFFFFFFFFFFFFFFFFFFFFFFFFFFFFFFFFFFFFFFF AND MUL OR SWAP1 SSTORE POP POP POP PUSH0 DUP5 SWAP3 POP SWAP3 POP POP JUMPDEST SWAP4 POP SWAP4 SWAP2 POP POP JUMP JUMPDEST PUSH1 0x40 MLOAD DUP1 PUSH1 0x40 ADD PUSH1 0x40 MSTORE DUP1 PUSH0 PUSH6 0xFFFFFFFFFFFF AND DUP2 MSTORE PUSH1 0x20 ADD PUSH0 PUSH26 0xFFFFFFFFFFFFFFFFFFFFFFFFFFFFFFFFFFFFFFFFFFFFFFFFFFFF AND DUP2 MSTORE POP SWAP1 JUMP JUMPDEST PUSH0 PUSH1 0x40 MLOAD SWAP1 POP SWAP1 JUMP JUMPDEST PUSH0 DUP1 REVERT JUMPDEST PUSH0 DUP1 REVERT JUMPDEST PUSH0 DUP2 SWAP1 POP SWAP2 SWAP1 POP JUMP JUMPDEST PUSH2 0x386A DUP2 PUSH2 0x3858 JUMP JUMPDEST DUP2 EQ PUSH2 0x3874 JUMPI PUSH0 DUP1 REVERT JUMPDEST POP JUMP JUMPDEST PUSH0 DUP2 CALLDATALOAD SWAP1 POP PUSH2 0x3885 DUP2 PUSH2 0x3861 JUMP JUMPDEST SWAP3 SWAP2 POP POP JUMP JUMPDEST PUSH0 PUSH1 0x20 DUP3 DUP5 SUB SLT ISZERO PUSH2 0x38A0 JUMPI PUSH2 0x389F PUSH2 0x3850 JUMP JUMPDEST JUMPDEST PUSH0 PUSH2 0x38AD DUP5 DUP3 DUP6 ADD PUSH2 0x3877 JUMP JUMPDEST SWAP2 POP POP SWAP3 SWAP2 POP POP JUMP JUMPDEST PUSH2 0x38BF DUP2 PUSH2 0x3858 JUMP JUMPDEST DUP3 MSTORE POP POP JUMP JUMPDEST PUSH0 DUP2 MLOAD SWAP1 POP SWAP2 SWAP1 POP JUMP JUMPDEST PUSH0 DUP3 DUP3 MSTORE PUSH1 0x20 DUP3 ADD SWAP1 POP SWAP3 SWAP2 POP POP JUMP JUMPDEST DUP3 DUP2 DUP4 MCOPY PUSH0 DUP4 DUP4 ADD MSTORE POP POP POP JUMP JUMPDEST PUSH0 PUSH1 0x1F NOT PUSH1 0x1F DUP4 ADD AND SWAP1 POP SWAP2 SWAP1 POP JUMP JUMPDEST PUSH0 PUSH2 0x3907 DUP3 PUSH2 0x38C5 JUMP JUMPDEST PUSH2 0x3911 DUP2 DUP6 PUSH2 0x38CF JUMP JUMPDEST SWAP4 POP PUSH2 0x3921 DUP2 DUP6 PUSH1 0x20 DUP7 ADD PUSH2 0x38DF JUMP JUMPDEST PUSH2 0x392A DUP2 PUSH2 0x38ED JUMP JUMPDEST DUP5 ADD SWAP2 POP POP SWAP3 SWAP2 POP POP JUMP JUMPDEST PUSH0 DUP2 ISZERO ISZERO SWAP1 POP SWAP2 SWAP1 POP JUMP JUMPDEST PUSH2 0x3949 DUP2 PUSH2 0x3935 JUMP JUMPDEST DUP3 MSTORE POP POP JUMP JUMPDEST PUSH0 PUSH1 0x80 DUP3 ADD SWAP1 POP PUSH2 0x3962 PUSH0 DUP4 ADD DUP8 PUSH2 0x38B6 JUMP JUMPDEST DUP2 DUP2 SUB PUSH1 0x20 DUP4 ADD MSTORE PUSH2 0x3974 DUP2 DUP7 PUSH2 0x38FD JUMP JUMPDEST SWAP1 POP PUSH2 0x3983 PUSH1 0x40 DUP4 ADD DUP6 PUSH2 0x38B6 JUMP JUMPDEST PUSH2 0x3990 PUSH1 0x60 DUP4 ADD DUP5 PUSH2 0x3940 JUMP JUMPDEST SWAP6 SWAP5 POP POP POP POP POP JUMP JUMPDEST PUSH0 PUSH1 0x20 DUP3 ADD SWAP1 POP DUP2 DUP2 SUB PUSH0 DUP4 ADD MSTORE PUSH2 0x39B1 DUP2 DUP5 PUSH2 0x38FD JUMP JUMPDEST SWAP1 POP SWAP3 SWAP2 POP POP JUMP JUMPDEST PUSH0 PUSH20 0xFFFFFFFFFFFFFFFFFFFFFFFFFFFFFFFFFFFFFFFF DUP3 AND SWAP1 POP SWAP2 SWAP1 POP JUMP JUMPDEST PUSH0 PUSH2 0x39E2 DUP3 PUSH2 0x39B9 JUMP JUMPDEST SWAP1 POP SWAP2 SWAP1 POP JUMP JUMPDEST PUSH2 0x39F2 DUP2 PUSH2 0x39D8 JUMP JUMPDEST DUP2 EQ PUSH2 0x39FC JUMPI PUSH0 DUP1 REVERT JUMPDEST POP JUMP JUMPDEST PUSH0 DUP2 CALLDATALOAD SWAP1 POP PUSH2 0x3A0D DUP2 PUSH2 0x39E9 JUMP JUMPDEST SWAP3 SWAP2 POP POP JUMP JUMPDEST PUSH0 DUP1 PUSH1 0x40 DUP4 DUP6 SUB SLT ISZERO PUSH2 0x3A29 JUMPI PUSH2 0x3A28 PUSH2 0x3850 JUMP JUMPDEST JUMPDEST PUSH0 PUSH2 0x3A36 DUP6 DUP3 DUP7 ADD PUSH2 0x39FF JUMP JUMPDEST SWAP3 POP POP PUSH1 0x20 PUSH2 0x3A47 DUP6 DUP3 DUP7 ADD PUSH2 0x3877 JUMP JUMPDEST SWAP2 POP POP SWAP3 POP SWAP3 SWAP1 POP JUMP JUMPDEST PUSH0 PUSH1 0x20 DUP3 ADD SWAP1 POP PUSH2 0x3A64 PUSH0 DUP4 ADD DUP5 PUSH2 0x3940 JUMP JUMPDEST SWAP3 SWAP2 POP POP JUMP JUMPDEST PUSH0 PUSH1 0x20 DUP3 ADD SWAP1 POP PUSH2 0x3A7D PUSH0 DUP4 ADD DUP5 PUSH2 0x38B6 JUMP JUMPDEST SWAP3 SWAP2 POP POP JUMP JUMPDEST PUSH0 DUP1 PUSH0 PUSH1 0x60 DUP5 DUP7 SUB SLT ISZERO PUSH2 0x3A9A JUMPI PUSH2 0x3A99 PUSH2 0x3850 JUMP JUMPDEST JUMPDEST PUSH0 PUSH2 0x3AA7 DUP7 DUP3 DUP8 ADD PUSH2 0x39FF JUMP JUMPDEST SWAP4 POP POP PUSH1 0x20 PUSH2 0x3AB8 DUP7 DUP3 DUP8 ADD PUSH2 0x39FF JUMP JUMPDEST SWAP3 POP POP PUSH1 0x40 PUSH2 0x3AC9 DUP7 DUP3 DUP8 ADD PUSH2 0x3877 JUMP JUMPDEST SWAP2 POP POP SWAP3 POP SWAP3 POP SWAP3 JUMP JUMPDEST PUSH0 PUSH1 0xFF DUP3 AND SWAP1 POP SWAP2 SWAP1 POP JUMP JUMPDEST PUSH2 0x3AE8 DUP2 PUSH2 0x3AD3 JUMP JUMPDEST DUP3 MSTORE POP POP JUMP JUMPDEST PUSH0 PUSH1 0x20 DUP3 ADD SWAP1 POP PUSH2 0x3B01 PUSH0 DUP4 ADD DUP5 PUSH2 0x3ADF JUMP JUMPDEST SWAP3 SWAP2 POP POP JUMP JUMPDEST PUSH0 DUP1 REVERT JUMPDEST PUSH0 DUP1 REVERT JUMPDEST PUSH32 0x4E487B7100000000000000000000000000000000000000000000000000000000 PUSH0 MSTORE PUSH1 0x41 PUSH1 0x4 MSTORE PUSH1 0x24 PUSH0 REVERT JUMPDEST PUSH2 0x3B45 DUP3 PUSH2 0x38ED JUMP JUMPDEST DUP2 ADD DUP2 DUP2 LT PUSH8 0xFFFFFFFFFFFFFFFF DUP3 GT OR ISZERO PUSH2 0x3B64 JUMPI PUSH2 0x3B63 PUSH2 0x3B0F JUMP JUMPDEST JUMPDEST DUP1 PUSH1 0x40 MSTORE POP POP POP JUMP JUMPDEST PUSH0 PUSH2 0x3B76 PUSH2 0x3847 JUMP JUMPDEST SWAP1 POP PUSH2 0x3B82 DUP3 DUP3 PUSH2 0x3B3C JUMP JUMPDEST SWAP2 SWAP1 POP JUMP JUMPDEST PUSH0 PUSH8 0xFFFFFFFFFFFFFFFF DUP3 GT ISZERO PUSH2 0x3BA1 JUMPI PUSH2 0x3BA0 PUSH2 0x3B0F JUMP JUMPDEST JUMPDEST PUSH2 0x3BAA DUP3 PUSH2 0x38ED JUMP JUMPDEST SWAP1 POP PUSH1 0x20 DUP2 ADD SWAP1 POP SWAP2 SWAP1 POP JUMP JUMPDEST DUP3 DUP2 DUP4 CALLDATACOPY PUSH0 DUP4 DUP4 ADD MSTORE POP POP POP JUMP JUMPDEST PUSH0 PUSH2 0x3BD7 PUSH2 0x3BD2 DUP5 PUSH2 0x3B87 JUMP JUMPDEST PUSH2 0x3B6D JUMP JUMPDEST SWAP1 POP DUP3 DUP2 MSTORE PUSH1 0x20 DUP2 ADD DUP5 DUP5 DUP5 ADD GT ISZERO PUSH2 0x3BF3 JUMPI PUSH2 0x3BF2 PUSH2 0x3B0B JUMP JUMPDEST JUMPDEST PUSH2 0x3BFE DUP5 DUP3 DUP6 PUSH2 0x3BB7 JUMP JUMPDEST POP SWAP4 SWAP3 POP POP POP JUMP JUMPDEST PUSH0 DUP3 PUSH1 0x1F DUP4 ADD SLT PUSH2 0x3C1A JUMPI PUSH2 0x3C19 PUSH2 0x3B07 JUMP JUMPDEST JUMPDEST DUP2 CALLDATALOAD PUSH2 0x3C2A DUP5 DUP3 PUSH1 0x20 DUP7 ADD PUSH2 0x3BC5 JUMP JUMPDEST SWAP2 POP POP SWAP3 SWAP2 POP POP JUMP JUMPDEST PUSH0 PUSH1 0x20 DUP3 DUP5 SUB SLT ISZERO PUSH2 0x3C48 JUMPI PUSH2 0x3C47 PUSH2 0x3850 JUMP JUMPDEST JUMPDEST PUSH0 DUP3 ADD CALLDATALOAD PUSH8 0xFFFFFFFFFFFFFFFF DUP2 GT ISZERO PUSH2 0x3C65 JUMPI PUSH2 0x3C64 PUSH2 0x3854 JUMP JUMPDEST JUMPDEST PUSH2 0x3C71 DUP5 DUP3 DUP6 ADD PUSH2 0x3C06 JUMP JUMPDEST SWAP2 POP POP SWAP3 SWAP2 POP POP JUMP JUMPDEST PUSH0 PUSH1 0x20 DUP3 DUP5 SUB SLT ISZERO PUSH2 0x3C8F JUMPI PUSH2 0x3C8E PUSH2 0x3850 JUMP JUMPDEST JUMPDEST PUSH0 PUSH2 0x3C9C DUP5 DUP3 DUP6 ADD PUSH2 0x39FF JUMP JUMPDEST SWAP2 POP POP SWAP3 SWAP2 POP POP JUMP JUMPDEST PUSH2 0x3CAE DUP2 PUSH2 0x39D8 JUMP JUMPDEST DUP3 MSTORE POP POP JUMP JUMPDEST PUSH0 PUSH1 0x20 DUP3 ADD SWAP1 POP PUSH2 0x3CC7 PUSH0 DUP4 ADD DUP5 PUSH2 0x3CA5 JUMP JUMPDEST SWAP3 SWAP2 POP POP JUMP JUMPDEST PUSH0 PUSH4 0xFFFFFFFF DUP3 AND SWAP1 POP SWAP2 SWAP1 POP JUMP JUMPDEST PUSH2 0x3CE5 DUP2 PUSH2 0x3CCD JUMP JUMPDEST DUP3 MSTORE POP POP JUMP JUMPDEST PUSH0 PUSH1 0x20 DUP3 ADD SWAP1 POP PUSH2 0x3CFE PUSH0 DUP4 ADD DUP5 PUSH2 0x3CDC JUMP JUMPDEST SWAP3 SWAP2 POP POP JUMP JUMPDEST PUSH0 PUSH32 0xFF00000000000000000000000000000000000000000000000000000000000000 DUP3 AND SWAP1 POP SWAP2 SWAP1 POP JUMP JUMPDEST PUSH2 0x3D38 DUP2 PUSH2 0x3D04 JUMP JUMPDEST DUP3 MSTORE POP POP JUMP JUMPDEST PUSH0 DUP2 SWAP1 POP SWAP2 SWAP1 POP JUMP JUMPDEST PUSH2 0x3D50 DUP2 PUSH2 0x3D3E JUMP JUMPDEST DUP3 MSTORE POP POP JUMP JUMPDEST PUSH0 DUP2 MLOAD SWAP1 POP SWAP2 SWAP1 POP JUMP JUMPDEST PUSH0 DUP3 DUP3 MSTORE PUSH1 0x20 DUP3 ADD SWAP1 POP SWAP3 SWAP2 POP POP JUMP JUMPDEST PUSH0 DUP2 SWAP1 POP PUSH1 0x20 DUP3 ADD SWAP1 POP SWAP2 SWAP1 POP JUMP JUMPDEST PUSH2 0x3D88 DUP2 PUSH2 0x3858 JUMP JUMPDEST DUP3 MSTORE POP POP JUMP JUMPDEST PUSH0 PUSH2 0x3D99 DUP4 DUP4 PUSH2 0x3D7F JUMP JUMPDEST PUSH1 0x20 DUP4 ADD SWAP1 POP SWAP3 SWAP2 POP POP JUMP JUMPDEST PUSH0 PUSH1 0x20 DUP3 ADD SWAP1 POP SWAP2 SWAP1 POP JUMP JUMPDEST PUSH0 PUSH2 0x3DBB DUP3 PUSH2 0x3D56 JUMP JUMPDEST PUSH2 0x3DC5 DUP2 DUP6 PUSH2 0x3D60 JUMP JUMPDEST SWAP4 POP PUSH2 0x3DD0 DUP4 PUSH2 0x3D70 JUMP JUMPDEST DUP1 PUSH0 JUMPDEST DUP4 DUP2 LT ISZERO PUSH2 0x3E00 JUMPI DUP2 MLOAD PUSH2 0x3DE7 DUP9 DUP3 PUSH2 0x3D8E JUMP JUMPDEST SWAP8 POP PUSH2 0x3DF2 DUP4 PUSH2 0x3DA5 JUMP JUMPDEST SWAP3 POP POP PUSH1 0x1 DUP2 ADD SWAP1 POP PUSH2 0x3DD3 JUMP JUMPDEST POP DUP6 SWAP4 POP POP POP POP SWAP3 SWAP2 POP POP JUMP JUMPDEST PUSH0 PUSH1 0xE0 DUP3 ADD SWAP1 POP PUSH2 0x3E20 PUSH0 DUP4 ADD DUP11 PUSH2 0x3D2F JUMP JUMPDEST DUP2 DUP2 SUB PUSH1 0x20 DUP4 ADD MSTORE PUSH2 0x3E32 DUP2 DUP10 PUSH2 0x38FD JUMP JUMPDEST SWAP1 POP DUP2 DUP2 SUB PUSH1 0x40 DUP4 ADD MSTORE PUSH2 0x3E46 DUP2 DUP9 PUSH2 0x38FD JUMP JUMPDEST SWAP1 POP PUSH2 0x3E55 PUSH1 0x60 DUP4 ADD DUP8 PUSH2 0x38B6 JUMP JUMPDEST PUSH2 0x3E62 PUSH1 0x80 DUP4 ADD DUP7 PUSH2 0x3CA5 JUMP JUMPDEST PUSH2 0x3E6F PUSH1 0xA0 DUP4 ADD DUP6 PUSH2 0x3D47 JUMP JUMPDEST DUP2 DUP2 SUB PUSH1 0xC0 DUP4 ADD MSTORE PUSH2 0x3E81 DUP2 DUP5 PUSH2 0x3DB1 JUMP JUMPDEST SWAP1 POP SWAP9 SWAP8 POP POP POP POP POP POP POP POP JUMP JUMPDEST PUSH0 PUSH6 0xFFFFFFFFFFFF DUP3 AND SWAP1 POP SWAP2 SWAP1 POP JUMP JUMPDEST PUSH2 0x3EA9 DUP2 PUSH2 0x3E8F JUMP JUMPDEST DUP3 MSTORE POP POP JUMP JUMPDEST PUSH0 PUSH1 0x20 DUP3 ADD SWAP1 POP PUSH2 0x3EC2 PUSH0 DUP4 ADD DUP5 PUSH2 0x3EA0 JUMP JUMPDEST SWAP3 SWAP2 POP POP JUMP JUMPDEST PUSH0 DUP1 PUSH1 0x40 DUP4 DUP6 SUB SLT ISZERO PUSH2 0x3EDE JUMPI PUSH2 0x3EDD PUSH2 0x3850 JUMP JUMPDEST JUMPDEST PUSH0 PUSH2 0x3EEB DUP6 DUP3 DUP7 ADD PUSH2 0x3877 JUMP JUMPDEST SWAP3 POP POP PUSH1 0x20 PUSH2 0x3EFC DUP6 DUP3 DUP7 ADD PUSH2 0x3877 JUMP JUMPDEST SWAP2 POP POP SWAP3 POP SWAP3 SWAP1 POP JUMP JUMPDEST PUSH2 0x3F0F DUP2 PUSH2 0x3AD3 JUMP JUMPDEST DUP2 EQ PUSH2 0x3F19 JUMPI PUSH0 DUP1 REVERT JUMPDEST POP JUMP JUMPDEST PUSH0 DUP2 CALLDATALOAD SWAP1 POP PUSH2 0x3F2A DUP2 PUSH2 0x3F06 JUMP JUMPDEST SWAP3 SWAP2 POP POP JUMP JUMPDEST PUSH2 0x3F39 DUP2 PUSH2 0x3D3E JUMP JUMPDEST DUP2 EQ PUSH2 0x3F43 JUMPI PUSH0 DUP1 REVERT JUMPDEST POP JUMP JUMPDEST PUSH0 DUP2 CALLDATALOAD SWAP1 POP PUSH2 0x3F54 DUP2 PUSH2 0x3F30 JUMP JUMPDEST SWAP3 SWAP2 POP POP JUMP JUMPDEST PUSH0 DUP1 PUSH0 DUP1 PUSH0 DUP1 PUSH1 0xC0 DUP8 DUP10 SUB SLT ISZERO PUSH2 0x3F74 JUMPI PUSH2 0x3F73 PUSH2 0x3850 JUMP JUMPDEST JUMPDEST PUSH0 PUSH2 0x3F81 DUP10 DUP3 DUP11 ADD PUSH2 0x39FF JUMP JUMPDEST SWAP7 POP POP PUSH1 0x20 PUSH2 0x3F92 DUP10 DUP3 DUP11 ADD PUSH2 0x3877 JUMP JUMPDEST SWAP6 POP POP PUSH1 0x40 PUSH2 0x3FA3 DUP10 DUP3 DUP11 ADD PUSH2 0x3877 JUMP JUMPDEST SWAP5 POP POP PUSH1 0x60 PUSH2 0x3FB4 DUP10 DUP3 DUP11 ADD PUSH2 0x3F1C JUMP JUMPDEST SWAP4 POP POP PUSH1 0x80 PUSH2 0x3FC5 DUP10 DUP3 DUP11 ADD PUSH2 0x3F46 JUMP JUMPDEST SWAP3 POP POP PUSH1 0xA0 PUSH2 0x3FD6 DUP10 DUP3 DUP11 ADD PUSH2 0x3F46 JUMP JUMPDEST SWAP2 POP POP SWAP3 SWAP6 POP SWAP3 SWAP6 POP SWAP3 SWAP6 JUMP JUMPDEST PUSH0 DUP1 PUSH1 0x40 DUP4 DUP6 SUB SLT ISZERO PUSH2 0x3FF9 JUMPI PUSH2 0x3FF8 PUSH2 0x3850 JUMP JUMPDEST JUMPDEST PUSH0 PUSH2 0x4006 DUP6 DUP3 DUP7 ADD PUSH2 0x39FF JUMP JUMPDEST SWAP3 POP POP PUSH1 0x20 PUSH2 0x4017 DUP6 DUP3 DUP7 ADD PUSH2 0x39FF JUMP JUMPDEST SWAP2 POP POP SWAP3 POP SWAP3 SWAP1 POP JUMP JUMPDEST PUSH2 0x402A DUP2 PUSH2 0x3CCD JUMP JUMPDEST DUP2 EQ PUSH2 0x4034 JUMPI PUSH0 DUP1 REVERT JUMPDEST POP JUMP JUMPDEST PUSH0 DUP2 CALLDATALOAD SWAP1 POP PUSH2 0x4045 DUP2 PUSH2 0x4021 JUMP JUMPDEST SWAP3 SWAP2 POP POP JUMP JUMPDEST PUSH0 DUP1 PUSH1 0x40 DUP4 DUP6 SUB SLT ISZERO PUSH2 0x4061 JUMPI PUSH2 0x4060 PUSH2 0x3850 JUMP JUMPDEST JUMPDEST PUSH0 PUSH2 0x406E DUP6 DUP3 DUP7 ADD PUSH2 0x39FF JUMP JUMPDEST SWAP3 POP POP PUSH1 0x20 PUSH2 0x407F DUP6 DUP3 DUP7 ADD PUSH2 0x4037 JUMP JUMPDEST SWAP2 POP POP SWAP3 POP SWAP3 SWAP1 POP JUMP JUMPDEST PUSH2 0x4092 DUP2 PUSH2 0x3E8F JUMP JUMPDEST DUP3 MSTORE POP POP JUMP JUMPDEST PUSH0 PUSH26 0xFFFFFFFFFFFFFFFFFFFFFFFFFFFFFFFFFFFFFFFFFFFFFFFFFFFF DUP3 AND SWAP1 POP SWAP2 SWAP1 POP JUMP JUMPDEST PUSH2 0x40C6 DUP2 PUSH2 0x4098 JUMP JUMPDEST DUP3 MSTORE POP POP JUMP JUMPDEST PUSH1 0x40 DUP3 ADD PUSH0 DUP3 ADD MLOAD PUSH2 0x40E0 PUSH0 DUP6 ADD DUP3 PUSH2 0x4089 JUMP JUMPDEST POP PUSH1 0x20 DUP3 ADD MLOAD PUSH2 0x40F3 PUSH1 0x20 DUP6 ADD DUP3 PUSH2 0x40BD JUMP JUMPDEST POP POP POP POP JUMP JUMPDEST PUSH0 PUSH1 0x40 DUP3 ADD SWAP1 POP PUSH2 0x410C PUSH0 DUP4 ADD DUP5 PUSH2 0x40CC JUMP JUMPDEST SWAP3 SWAP2 POP POP JUMP JUMPDEST PUSH32 0x4E487B7100000000000000000000000000000000000000000000000000000000 PUSH0 MSTORE PUSH1 0x22 PUSH1 0x4 MSTORE PUSH1 0x24 PUSH0 REVERT JUMPDEST PUSH0 PUSH1 0x2 DUP3 DIV SWAP1 POP PUSH1 0x1 DUP3 AND DUP1 PUSH2 0x4156 JUMPI PUSH1 0x7F DUP3 AND SWAP2 POP JUMPDEST PUSH1 0x20 DUP3 LT DUP2 SUB PUSH2 0x4169 JUMPI PUSH2 0x4168 PUSH2 0x4112 JUMP JUMPDEST JUMPDEST POP SWAP2 SWAP1 POP JUMP JUMPDEST PUSH32 0x6F6E6C792061646D696E20616464726573732063616E20616363657373000000 PUSH0 DUP3 ADD MSTORE POP JUMP JUMPDEST PUSH0 PUSH2 0x41A3 PUSH1 0x1D DUP4 PUSH2 0x38CF JUMP JUMPDEST SWAP2 POP PUSH2 0x41AE DUP3 PUSH2 0x416F JUMP JUMPDEST PUSH1 0x20 DUP3 ADD SWAP1 POP SWAP2 SWAP1 POP JUMP JUMPDEST PUSH0 PUSH1 0x20 DUP3 ADD SWAP1 POP DUP2 DUP2 SUB PUSH0 DUP4 ADD MSTORE PUSH2 0x41D0 DUP2 PUSH2 0x4197 JUMP JUMPDEST SWAP1 POP SWAP2 SWAP1 POP JUMP JUMPDEST PUSH32 0x70726F706F73616C206E6F742061637469766500000000000000000000000000 PUSH0 DUP3 ADD MSTORE POP JUMP JUMPDEST PUSH0 PUSH2 0x420B PUSH1 0x13 DUP4 PUSH2 0x38CF JUMP JUMPDEST SWAP2 POP PUSH2 0x4216 DUP3 PUSH2 0x41D7 JUMP JUMPDEST PUSH1 0x20 DUP3 ADD SWAP1 POP SWAP2 SWAP1 POP JUMP JUMPDEST PUSH0 PUSH1 0x20 DUP3 ADD SWAP1 POP DUP2 DUP2 SUB PUSH0 DUP4 ADD MSTORE PUSH2 0x4238 DUP2 PUSH2 0x41FF JUMP JUMPDEST SWAP1 POP SWAP2 SWAP1 POP JUMP JUMPDEST PUSH32 0x70726F706F73616C206E6F742065786973740000000000000000000000000000 PUSH0 DUP3 ADD MSTORE POP JUMP JUMPDEST PUSH0 PUSH2 0x4273 PUSH1 0x12 DUP4 PUSH2 0x38CF JUMP JUMPDEST SWAP2 POP PUSH2 0x427E DUP3 PUSH2 0x423F JUMP JUMPDEST PUSH1 0x20 DUP3 ADD SWAP1 POP SWAP2 SWAP1 POP JUMP JUMPDEST PUSH0 PUSH1 0x20 DUP3 ADD SWAP1 POP DUP2 DUP2 SUB PUSH0 DUP4 ADD MSTORE PUSH2 0x42A0 DUP2 PUSH2 0x4267 JUMP JUMPDEST SWAP1 POP SWAP2 SWAP1 POP JUMP JUMPDEST PUSH32 0x4E487B7100000000000000000000000000000000000000000000000000000000 PUSH0 MSTORE PUSH1 0x11 PUSH1 0x4 MSTORE PUSH1 0x24 PUSH0 REVERT JUMPDEST PUSH0 PUSH2 0x42DE DUP3 PUSH2 0x3858 JUMP JUMPDEST SWAP2 POP PUSH32 0xFFFFFFFFFFFFFFFFFFFFFFFFFFFFFFFFFFFFFFFFFFFFFFFFFFFFFFFFFFFFFFFF DUP3 SUB PUSH2 0x4310 JUMPI PUSH2 0x430F PUSH2 0x42A7 JUMP JUMPDEST JUMPDEST PUSH1 0x1 DUP3 ADD SWAP1 POP SWAP2 SWAP1 POP JUMP JUMPDEST PUSH0 DUP2 SWAP1 POP DUP2 PUSH0 MSTORE PUSH1 0x20 PUSH0 KECCAK256 SWAP1 POP SWAP2 SWAP1 POP JUMP JUMPDEST PUSH0 PUSH1 0x20 PUSH1 0x1F DUP4 ADD DIV SWAP1 POP SWAP2 SWAP1 POP JUMP JUMPDEST PUSH0 DUP3 DUP3 SHL SWAP1 POP SWAP3 SWAP2 POP POP JUMP JUMPDEST PUSH0 PUSH1 0x8 DUP4 MUL PUSH2 0x4377 PUSH32 0xFFFFFFFFFFFFFFFFFFFFFFFFFFFFFFFFFFFFFFFFFFFFFFFFFFFFFFFFFFFFFFFF DUP3 PUSH2 0x433C JUMP JUMPDEST PUSH2 0x4381 DUP7 DUP4 PUSH2 0x433C JUMP JUMPDEST SWAP6 POP DUP1 NOT DUP5 AND SWAP4 POP DUP1 DUP7 AND DUP5 OR SWAP3 POP POP POP SWAP4 SWAP3 POP POP POP JUMP JUMPDEST PUSH0 DUP2 SWAP1 POP SWAP2 SWAP1 POP JUMP JUMPDEST PUSH0 PUSH2 0x43BC PUSH2 0x43B7 PUSH2 0x43B2 DUP5 PUSH2 0x3858 JUMP JUMPDEST PUSH2 0x4399 JUMP JUMPDEST PUSH2 0x3858 JUMP JUMPDEST SWAP1 POP SWAP2 SWAP1 POP JUMP JUMPDEST PUSH0 DUP2 SWAP1 POP SWAP2 SWAP1 POP JUMP JUMPDEST PUSH2 0x43D5 DUP4 PUSH2 0x43A2 JUMP JUMPDEST PUSH2 0x43E9 PUSH2 0x43E1 DUP3 PUSH2 0x43C3 JUMP JUMPDEST DUP5 DUP5 SLOAD PUSH2 0x4348 JUMP JUMPDEST DUP3 SSTORE POP POP POP POP JUMP JUMPDEST PUSH0 SWAP1 JUMP JUMPDEST PUSH2 0x43FD PUSH2 0x43F1 JUMP JUMPDEST PUSH2 0x4408 DUP2 DUP5 DUP5 PUSH2 0x43CC JUMP JUMPDEST POP POP POP JUMP JUMPDEST JUMPDEST DUP2 DUP2 LT ISZERO PUSH2 0x442B JUMPI PUSH2 0x4420 PUSH0 DUP3 PUSH2 0x43F5 JUMP JUMPDEST PUSH1 0x1 DUP2 ADD SWAP1 POP PUSH2 0x440E JUMP JUMPDEST POP POP JUMP JUMPDEST PUSH1 0x1F DUP3 GT ISZERO PUSH2 0x4470 JUMPI PUSH2 0x4441 DUP2 PUSH2 0x431B JUMP JUMPDEST PUSH2 0x444A DUP5 PUSH2 0x432D JUMP JUMPDEST DUP2 ADD PUSH1 0x20 DUP6 LT ISZERO PUSH2 0x4459 JUMPI DUP2 SWAP1 POP JUMPDEST PUSH2 0x446D PUSH2 0x4465 DUP6 PUSH2 0x432D JUMP JUMPDEST DUP4 ADD DUP3 PUSH2 0x440D JUMP JUMPDEST POP POP JUMPDEST POP POP POP JUMP JUMPDEST PUSH0 DUP3 DUP3 SHR SWAP1 POP SWAP3 SWAP2 POP POP JUMP JUMPDEST PUSH0 PUSH2 0x4490 PUSH0 NOT DUP5 PUSH1 0x8 MUL PUSH2 0x4475 JUMP JUMPDEST NOT DUP1 DUP4 AND SWAP2 POP POP SWAP3 SWAP2 POP POP JUMP JUMPDEST PUSH0 PUSH2 0x44A8 DUP4 DUP4 PUSH2 0x4481 JUMP JUMPDEST SWAP2 POP DUP3 PUSH1 0x2 MUL DUP3 OR SWAP1 POP SWAP3 SWAP2 POP POP JUMP JUMPDEST PUSH2 0x44C1 DUP3 PUSH2 0x38C5 JUMP JUMPDEST PUSH8 0xFFFFFFFFFFFFFFFF DUP2 GT ISZERO PUSH2 0x44DA JUMPI PUSH2 0x44D9 PUSH2 0x3B0F JUMP JUMPDEST JUMPDEST PUSH2 0x44E4 DUP3 SLOAD PUSH2 0x413F JUMP JUMPDEST PUSH2 0x44EF DUP3 DUP3 DUP6 PUSH2 0x442F JUMP JUMPDEST PUSH0 PUSH1 0x20 SWAP1 POP PUSH1 0x1F DUP4 GT PUSH1 0x1 DUP2 EQ PUSH2 0x4520 JUMPI PUSH0 DUP5 ISZERO PUSH2 0x450E JUMPI DUP3 DUP8 ADD MLOAD SWAP1 POP JUMPDEST PUSH2 0x4518 DUP6 DUP3 PUSH2 0x449D JUMP JUMPDEST DUP7 SSTORE POP PUSH2 0x457F JUMP JUMPDEST PUSH1 0x1F NOT DUP5 AND PUSH2 0x452E DUP7 PUSH2 0x431B JUMP JUMPDEST PUSH0 JUMPDEST DUP3 DUP2 LT ISZERO PUSH2 0x4555 JUMPI DUP5 DUP10 ADD MLOAD DUP3 SSTORE PUSH1 0x1 DUP3 ADD SWAP2 POP PUSH1 0x20 DUP6 ADD SWAP5 POP PUSH1 0x20 DUP2 ADD SWAP1 POP PUSH2 0x4530 JUMP JUMPDEST DUP7 DUP4 LT ISZERO PUSH2 0x4572 JUMPI DUP5 DUP10 ADD MLOAD PUSH2 0x456E PUSH1 0x1F DUP10 AND DUP3 PUSH2 0x4481 JUMP JUMPDEST DUP4 SSTORE POP JUMPDEST PUSH1 0x1 PUSH1 0x2 DUP9 MUL ADD DUP9 SSTORE POP POP POP JUMPDEST POP POP POP POP POP POP JUMP JUMPDEST PUSH0 PUSH2 0x4591 DUP3 PUSH2 0x3858 JUMP JUMPDEST SWAP2 POP PUSH2 0x459C DUP4 PUSH2 0x3858 JUMP JUMPDEST SWAP3 POP DUP3 DUP3 ADD SWAP1 POP DUP1 DUP3 GT ISZERO PUSH2 0x45B4 JUMPI PUSH2 0x45B3 PUSH2 0x42A7 JUMP JUMPDEST JUMPDEST SWAP3 SWAP2 POP POP JUMP JUMPDEST PUSH0 PUSH1 0x80 DUP3 ADD SWAP1 POP PUSH2 0x45CD PUSH0 DUP4 ADD DUP8 PUSH2 0x3D47 JUMP JUMPDEST PUSH2 0x45DA PUSH1 0x20 DUP4 ADD DUP7 PUSH2 0x3CA5 JUMP JUMPDEST PUSH2 0x45E7 PUSH1 0x40 DUP4 ADD DUP6 PUSH2 0x38B6 JUMP JUMPDEST PUSH2 0x45F4 PUSH1 0x60 DUP4 ADD DUP5 PUSH2 0x38B6 JUMP JUMPDEST SWAP6 SWAP5 POP POP POP POP POP JUMP JUMPDEST PUSH32 0x6F6E6C79206C6567616C206F776E657220616464726573732063616E20616363 PUSH0 DUP3 ADD MSTORE PUSH32 0x6573730000000000000000000000000000000000000000000000000000000000 PUSH1 0x20 DUP3 ADD MSTORE POP JUMP JUMPDEST PUSH0 PUSH2 0x4657 PUSH1 0x23 DUP4 PUSH2 0x38CF JUMP JUMPDEST SWAP2 POP PUSH2 0x4662 DUP3 PUSH2 0x45FD JUMP JUMPDEST PUSH1 0x40 DUP3 ADD SWAP1 POP SWAP2 SWAP1 POP JUMP JUMPDEST PUSH0 PUSH1 0x20 DUP3 ADD SWAP1 POP DUP2 DUP2 SUB PUSH0 DUP4 ADD MSTORE PUSH2 0x4684 DUP2 PUSH2 0x464B JUMP JUMPDEST SWAP1 POP SWAP2 SWAP1 POP JUMP JUMPDEST PUSH0 PUSH2 0x4695 DUP3 PUSH2 0x3858 JUMP JUMPDEST SWAP2 POP PUSH2 0x46A0 DUP4 PUSH2 0x3858 JUMP JUMPDEST SWAP3 POP DUP3 DUP3 SUB SWAP1 POP DUP2 DUP2 GT ISZERO PUSH2 0x46B8 JUMPI PUSH2 0x46B7 PUSH2 0x42A7 JUMP JUMPDEST JUMPDEST SWAP3 SWAP2 POP POP JUMP JUMPDEST PUSH0 PUSH2 0x46C8 DUP3 PUSH2 0x4098 JUMP JUMPDEST SWAP2 POP PUSH2 0x46D3 DUP4 PUSH2 0x4098 JUMP JUMPDEST SWAP3 POP DUP3 DUP3 ADD SWAP1 POP PUSH26 0xFFFFFFFFFFFFFFFFFFFFFFFFFFFFFFFFFFFFFFFFFFFFFFFFFFFF DUP2 GT ISZERO PUSH2 0x4705 JUMPI PUSH2 0x4704 PUSH2 0x42A7 JUMP JUMPDEST JUMPDEST SWAP3 SWAP2 POP POP JUMP JUMPDEST PUSH0 PUSH2 0x4715 DUP3 PUSH2 0x4098 JUMP JUMPDEST SWAP2 POP PUSH2 0x4720 DUP4 PUSH2 0x4098 JUMP JUMPDEST SWAP3 POP DUP3 DUP3 SUB SWAP1 POP PUSH26 0xFFFFFFFFFFFFFFFFFFFFFFFFFFFFFFFFFFFFFFFFFFFFFFFFFFFF DUP2 GT ISZERO PUSH2 0x4752 JUMPI PUSH2 0x4751 PUSH2 0x42A7 JUMP JUMPDEST JUMPDEST SWAP3 SWAP2 POP POP JUMP JUMPDEST PUSH0 PUSH1 0x60 DUP3 ADD SWAP1 POP PUSH2 0x476B PUSH0 DUP4 ADD DUP7 PUSH2 0x3CA5 JUMP JUMPDEST PUSH2 0x4778 PUSH1 0x20 DUP4 ADD DUP6 PUSH2 0x38B6 JUMP JUMPDEST PUSH2 0x4785 PUSH1 0x40 DUP4 ADD DUP5 PUSH2 0x38B6 JUMP JUMPDEST SWAP5 SWAP4 POP POP POP POP JUMP JUMPDEST PUSH0 PUSH1 0x40 DUP3 ADD SWAP1 POP PUSH2 0x47A0 PUSH0 DUP4 ADD DUP6 PUSH2 0x38B6 JUMP JUMPDEST PUSH2 0x47AD PUSH1 0x20 DUP4 ADD DUP5 PUSH2 0x3EA0 JUMP JUMPDEST SWAP4 SWAP3 POP POP POP JUMP JUMPDEST PUSH0 PUSH1 0xA0 DUP3 ADD SWAP1 POP PUSH2 0x47C7 PUSH0 DUP4 ADD DUP9 PUSH2 0x3CA5 JUMP JUMPDEST PUSH2 0x47D4 PUSH1 0x20 DUP4 ADD DUP8 PUSH2 0x38B6 JUMP JUMPDEST PUSH2 0x47E1 PUSH1 0x40 DUP4 ADD DUP7 PUSH2 0x38B6 JUMP JUMPDEST PUSH2 0x47EE PUSH1 0x60 DUP4 ADD DUP6 PUSH2 0x38B6 JUMP JUMPDEST PUSH2 0x47FB PUSH1 0x80 DUP4 ADD DUP5 PUSH2 0x38B6 JUMP JUMPDEST SWAP7 SWAP6 POP POP POP POP POP POP JUMP JUMPDEST PUSH0 PUSH1 0x40 DUP3 ADD SWAP1 POP PUSH2 0x4818 PUSH0 DUP4 ADD DUP6 PUSH2 0x3CA5 JUMP JUMPDEST PUSH2 0x4825 PUSH1 0x20 DUP4 ADD DUP5 PUSH2 0x38B6 JUMP JUMPDEST SWAP4 SWAP3 POP POP POP JUMP JUMPDEST PUSH0 PUSH1 0x40 DUP3 ADD SWAP1 POP PUSH2 0x483F PUSH0 DUP4 ADD DUP6 PUSH2 0x38B6 JUMP JUMPDEST PUSH2 0x484C PUSH1 0x20 DUP4 ADD DUP5 PUSH2 0x38B6 JUMP JUMPDEST SWAP4 SWAP3 POP POP POP JUMP JUMPDEST PUSH0 DUP2 SWAP1 POP SWAP2 SWAP1 POP JUMP JUMPDEST PUSH0 PUSH2 0x4876 PUSH2 0x4871 PUSH2 0x486C DUP5 PUSH2 0x4853 JUMP JUMPDEST PUSH2 0x4399 JUMP JUMPDEST PUSH2 0x3AD3 JUMP JUMPDEST SWAP1 POP SWAP2 SWAP1 POP JUMP JUMPDEST PUSH2 0x4886 DUP2 PUSH2 0x485C JUMP JUMPDEST DUP3 MSTORE POP POP JUMP JUMPDEST PUSH0 PUSH1 0x40 DUP3 ADD SWAP1 POP PUSH2 0x489F PUSH0 DUP4 ADD DUP6 PUSH2 0x487D JUMP JUMPDEST PUSH2 0x48AC PUSH1 0x20 DUP4 ADD DUP5 PUSH2 0x38B6 JUMP JUMPDEST SWAP4 SWAP3 POP POP POP JUMP JUMPDEST PUSH32 0x4E487B7100000000000000000000000000000000000000000000000000000000 PUSH0 MSTORE PUSH1 0x12 PUSH1 0x4 MSTORE PUSH1 0x24 PUSH0 REVERT JUMPDEST PUSH0 DUP2 SWAP1 POP SWAP2 SWAP1 POP JUMP JUMPDEST PUSH0 PUSH2 0x4903 PUSH2 0x48FE PUSH2 0x48F9 DUP5 PUSH2 0x48E0 JUMP JUMPDEST PUSH2 0x4399 JUMP JUMPDEST PUSH2 0x3AD3 JUMP JUMPDEST SWAP1 POP SWAP2 SWAP1 POP JUMP JUMPDEST PUSH2 0x4913 DUP2 PUSH2 0x48E9 JUMP JUMPDEST DUP3 MSTORE POP POP JUMP JUMPDEST PUSH0 PUSH1 0x40 DUP3 ADD SWAP1 POP PUSH2 0x492C PUSH0 DUP4 ADD DUP6 PUSH2 0x490A JUMP JUMPDEST PUSH2 0x4939 PUSH1 0x20 DUP4 ADD DUP5 PUSH2 0x38B6 JUMP JUMPDEST SWAP4 SWAP3 POP POP POP JUMP JUMPDEST PUSH0 PUSH1 0x80 DUP3 ADD SWAP1 POP PUSH2 0x4953 PUSH0 DUP4 ADD DUP8 PUSH2 0x3D47 JUMP JUMPDEST PUSH2 0x4960 PUSH1 0x20 DUP4 ADD DUP7 PUSH2 0x3ADF JUMP JUMPDEST PUSH2 0x496D PUSH1 0x40 DUP4 ADD DUP6 PUSH2 0x3D47 JUMP JUMPDEST PUSH2 0x497A PUSH1 0x60 DUP4 ADD DUP5 PUSH2 0x3D47 JUMP JUMPDEST SWAP6 SWAP5 POP POP POP POP POP JUMP JUMPDEST PUSH32 0x4E487B7100000000000000000000000000000000000000000000000000000000 PUSH0 MSTORE PUSH1 0x21 PUSH1 0x4 MSTORE PUSH1 0x24 PUSH0 REVERT JUMPDEST PUSH0 PUSH1 0x20 DUP3 ADD SWAP1 POP PUSH2 0x49C3 PUSH0 DUP4 ADD DUP5 PUSH2 0x3D47 JUMP JUMPDEST SWAP3 SWAP2 POP POP JUMP JUMPDEST PUSH32 0x4E487B7100000000000000000000000000000000000000000000000000000000 PUSH0 MSTORE PUSH1 0x32 PUSH1 0x4 MSTORE PUSH1 0x24 PUSH0 REVERT JUMPDEST PUSH0 PUSH2 0x4A00 DUP3 PUSH2 0x3858 JUMP JUMPDEST SWAP2 POP PUSH2 0x4A0B DUP4 PUSH2 0x3858 JUMP JUMPDEST SWAP3 POP DUP3 PUSH2 0x4A1B JUMPI PUSH2 0x4A1A PUSH2 0x48B3 JUMP JUMPDEST JUMPDEST DUP3 DUP3 DIV SWAP1 POP SWAP3 SWAP2 POP POP JUMP JUMPDEST PUSH0 DUP2 SWAP1 POP SWAP2 SWAP1 POP JUMP JUMPDEST PUSH0 PUSH2 0x4A49 PUSH2 0x4A44 PUSH2 0x4A3F DUP5 PUSH2 0x4A26 JUMP JUMPDEST PUSH2 0x4399 JUMP JUMPDEST PUSH2 0x3AD3 JUMP JUMPDEST SWAP1 POP SWAP2 SWAP1 POP JUMP JUMPDEST PUSH2 0x4A59 DUP2 PUSH2 0x4A2F JUMP JUMPDEST DUP3 MSTORE POP POP JUMP JUMPDEST PUSH0 PUSH1 0x40 DUP3 ADD SWAP1 POP PUSH2 0x4A72 PUSH0 DUP4 ADD DUP6 PUSH2 0x4A50 JUMP JUMPDEST PUSH2 0x4A7F PUSH1 0x20 DUP4 ADD DUP5 PUSH2 0x38B6 JUMP JUMPDEST SWAP4 SWAP3 POP POP POP JUMP JUMPDEST PUSH0 PUSH1 0xA0 DUP3 ADD SWAP1 POP PUSH2 0x4A99 PUSH0 DUP4 ADD DUP9 PUSH2 0x3D47 JUMP JUMPDEST PUSH2 0x4AA6 PUSH1 0x20 DUP4 ADD DUP8 PUSH2 0x3D47 JUMP JUMPDEST PUSH2 0x4AB3 PUSH1 0x40 DUP4 ADD DUP7 PUSH2 0x3D47 JUMP JUMPDEST PUSH2 0x4AC0 PUSH1 0x60 DUP4 ADD DUP6 PUSH2 0x38B6 JUMP JUMPDEST PUSH2 0x4ACD PUSH1 0x80 DUP4 ADD DUP5 PUSH2 0x3CA5 JUMP JUMPDEST SWAP7 SWAP6 POP POP POP POP POP POP JUMP INVALID LOG2 PUSH5 0x6970667358 0x22 SLT KECCAK256 TIMESTAMP 0xAC LOG2 DUP15 ADDMOD LOG3 0xE6 0xDB PUSH4 0x322A70F8 PUSH3 0xEBA808 RETURNDATASIZE 0xCF 0xE PUSH11 0xF158A59A8DCB138166E4BF PUSH5 0x736F6C6343 STOP ADDMOD BYTE STOP CALLER "
		},
		"gasEstimates": {
			"creation": {
				"codeDepositCost": "3842600",
				"executionCost": "infinite",
				"totalCost": "infinite"
			},
			"external": {
				"CLOCK_MODE()": "infinite",
				"GRANTPRIVILEGES_NAMESPACE()": "infinite",
				"TOKEN_NAME()": "infinite",
				"TOKEN_SYMBOL()": "infinite",
				"addOwner(address,uint256)": "infinite",
				"allowance(address,address)": "infinite",
				"approve(address,uint256)": "infinite",
				"balanceOf(address)": "2919",
				"burn(uint256)": "infinite",
				"burnFrom(address,uint256)": "infinite",
				"changeAdmin(address)": "infinite",
				"checkpoints(address,uint32)": "infinite",
				"clock()": "767",
				"closeProposal(uint256)": "29513",
				"createProposal(string)": "infinite",
				"decimals()": "406",
				"delegate(address)": "infinite",
				"delegateBySig(address,uint256,uint256,uint8,bytes32,bytes32)": "infinite",
				"delegates(address)": "infinite",
				"eip712Domain()": "infinite",
				"getAdminAddress()": "2933",
				"getPastTotalSupply(uint256)": "infinite",
				"getPastVotes(address,uint256)": "infinite",
				"getRemainingTime()": "infinite",
				"getVotes(address)": "infinite",
				"getVotingUnits()": "infinite",
				"mint(address,uint256)": "infinite",
				"name()": "infinite",
				"nonces(address)": "2874",
				"numCheckpoints(address)": "3253",
				"openProposal(uint256)": "29460",
				"proposalCounter()": "2471",
				"proposals(uint256)": "infinite",
				"symbol()": "infinite",
				"totalSupply()": "2500",
				"transfer(address,uint256)": "infinite",
				"transferFrom(address,address,uint256)": "infinite",
				"vote(uint256,uint256)": "infinite"
			},
			"internal": {
				"_getVotingUnits(address)": "infinite",
				"_validVoteAmount(address,uint256,uint256)": "infinite"
			}
		},
		"methodIdentifiers": {
			"CLOCK_MODE()": "4bf5d7e9",
			"GRANTPRIVILEGES_NAMESPACE()": "95cfbf6d",
			"TOKEN_NAME()": "18821400",
			"TOKEN_SYMBOL()": "2a905318",
			"addOwner(address,uint256)": "3cc38f5c",
			"allowance(address,address)": "dd62ed3e",
			"approve(address,uint256)": "095ea7b3",
			"balanceOf(address)": "70a08231",
			"burn(uint256)": "42966c68",
			"burnFrom(address,uint256)": "79cc6790",
			"changeAdmin(address)": "8f283970",
			"checkpoints(address,uint32)": "f1127ed8",
			"clock()": "91ddadf4",
			"closeProposal(uint256)": "0386a016",
			"createProposal(string)": "49c2a1a6",
			"decimals()": "313ce567",
			"delegate(address)": "5c19a95c",
			"delegateBySig(address,uint256,uint256,uint8,bytes32,bytes32)": "c3cda520",
			"delegates(address)": "587cde1e",
			"eip712Domain()": "84b0196e",
			"getAdminAddress()": "b2e6b912",
			"getPastTotalSupply(uint256)": "8e539e8c",
			"getPastVotes(address,uint256)": "3a46b1a8",
			"getRemainingTime()": "efb98bcf",
			"getVotes(address)": "9ab24eb0",
			"getVotingUnits()": "4e3e26ae",
			"mint(address,uint256)": "40c10f19",
			"name()": "06fdde03",
			"nonces(address)": "7ecebe00",
			"numCheckpoints(address)": "6fcfff45",
			"openProposal(uint256)": "31288f40",
			"proposalCounter()": "0c0512e9",
			"proposals(uint256)": "013cf08b",
			"symbol()": "95d89b41",
			"totalSupply()": "18160ddd",
			"transfer(address,uint256)": "a9059cbb",
			"transferFrom(address,address,uint256)": "23b872dd",
			"vote(uint256,uint256)": "b384abef"
		}
	},
	"abi": [
		{
			"inputs": [],
			"stateMutability": "nonpayable",
			"type": "constructor"
		},
		{
			"inputs": [],
			"name": "AddressEmpty",
			"type": "error"
		},
		{
			"inputs": [
				{
					"internalType": "address",
					"name": "account",
					"type": "address"
				},
				{
					"internalType": "uint256",
					"name": "proposalId",
					"type": "uint256"
				},
				{
					"internalType": "uint256",
					"name": "allVotes",
					"type": "uint256"
				},
				{
					"internalType": "uint256",
					"name": "usedVoteAmount",
					"type": "uint256"
				},
				{
					"internalType": "uint256",
					"name": "voteAmount",
					"type": "uint256"
				}
			],
			"name": "AvailableVotesNotEnough",
			"type": "error"
		},
		{
			"inputs": [],
			"name": "CheckpointUnorderedInsertion",
			"type": "error"
		},
		{
			"inputs": [],
			"name": "ECDSAInvalidSignature",
			"type": "error"
		},
		{
			"inputs": [
				{
					"internalType": "uint256",
					"name": "length",
					"type": "uint256"
				}
			],
			"name": "ECDSAInvalidSignatureLength",
			"type": "error"
		},
		{
			"inputs": [
				{
					"internalType": "bytes32",
					"name": "s",
					"type": "bytes32"
				}
			],
			"name": "ECDSAInvalidSignatureS",
			"type": "error"
		},
		{
			"inputs": [
				{
					"internalType": "uint256",
					"name": "increasedSupply",
					"type": "uint256"
				},
				{
					"internalType": "uint256",
					"name": "cap",
					"type": "uint256"
				}
			],
			"name": "ERC20ExceededSafeSupply",
			"type": "error"
		},
		{
			"inputs": [
				{
					"internalType": "address",
					"name": "spender",
					"type": "address"
				},
				{
					"internalType": "uint256",
					"name": "allowance",
					"type": "uint256"
				},
				{
					"internalType": "uint256",
					"name": "needed",
					"type": "uint256"
				}
			],
			"name": "ERC20InsufficientAllowance",
			"type": "error"
		},
		{
			"inputs": [
				{
					"internalType": "address",
					"name": "sender",
					"type": "address"
				},
				{
					"internalType": "uint256",
					"name": "balance",
					"type": "uint256"
				},
				{
					"internalType": "uint256",
					"name": "needed",
					"type": "uint256"
				}
			],
			"name": "ERC20InsufficientBalance",
			"type": "error"
		},
		{
			"inputs": [
				{
					"internalType": "address",
					"name": "approver",
					"type": "address"
				}
			],
			"name": "ERC20InvalidApprover",
			"type": "error"
		},
		{
			"inputs": [
				{
					"internalType": "address",
					"name": "receiver",
					"type": "address"
				}
			],
			"name": "ERC20InvalidReceiver",
			"type": "error"
		},
		{
			"inputs": [
				{
					"internalType": "address",
					"name": "sender",
					"type": "address"
				}
			],
			"name": "ERC20InvalidSender",
			"type": "error"
		},
		{
			"inputs": [
				{
					"internalType": "address",
					"name": "spender",
					"type": "address"
				}
			],
			"name": "ERC20InvalidSpender",
			"type": "error"
		},
		{
			"inputs": [
				{
					"internalType": "uint256",
					"name": "timepoint",
					"type": "uint256"
				},
				{
					"internalType": "uint48",
					"name": "clock",
					"type": "uint48"
				}
			],
			"name": "ERC5805FutureLookup",
			"type": "error"
		},
		{
			"inputs": [],
			"name": "ERC6372InconsistentClock",
			"type": "error"
		},
		{
			"inputs": [
				{
					"internalType": "address",
					"name": "account",
					"type": "address"
				},
				{
					"internalType": "uint256",
					"name": "currentNonce",
					"type": "uint256"
				}
			],
			"name": "InvalidAccountNonce",
			"type": "error"
		},
		{
			"inputs": [],
			"name": "InvalidShortString",
			"type": "error"
		},
		{
			"inputs": [
				{
					"internalType": "string",
					"name": "info",
					"type": "string"
				}
			],
			"name": "OnlyAdmin",
			"type": "error"
		},
		{
			"inputs": [
				{
					"internalType": "string",
					"name": "info",
					"type": "string"
				}
			],
			"name": "OnlyLegalOwner",
			"type": "error"
		},
		{
			"inputs": [
				{
					"internalType": "uint8",
					"name": "bits",
					"type": "uint8"
				},
				{
					"internalType": "uint256",
					"name": "value",
					"type": "uint256"
				}
			],
			"name": "SafeCastOverflowedUintDowncast",
			"type": "error"
		},
		{
			"inputs": [
				{
					"internalType": "string",
					"name": "str",
					"type": "string"
				}
			],
			"name": "StringTooLong",
			"type": "error"
		},
		{
			"inputs": [],
			"name": "TimeLimitZero",
			"type": "error"
		},
		{
			"inputs": [
				{
					"internalType": "uint256",
					"name": "expiry",
					"type": "uint256"
				}
			],
			"name": "VotesExpiredSignature",
			"type": "error"
		},
		{
			"anonymous": false,
			"inputs": [
				{
					"indexed": true,
					"internalType": "address",
					"name": "owner",
					"type": "address"
				},
				{
					"indexed": true,
					"internalType": "address",
					"name": "spender",
					"type": "address"
				},
				{
					"indexed": false,
					"internalType": "uint256",
					"name": "value",
					"type": "uint256"
				}
			],
			"name": "Approval",
			"type": "event"
		},
		{
			"anonymous": false,
			"inputs": [
				{
					"indexed": true,
					"internalType": "address",
					"name": "delegator",
					"type": "address"
				},
				{
					"indexed": true,
					"internalType": "address",
					"name": "fromDelegate",
					"type": "address"
				},
				{
					"indexed": true,
					"internalType": "address",
					"name": "toDelegate",
					"type": "address"
				}
			],
			"name": "DelegateChanged",
			"type": "event"
		},
		{
			"anonymous": false,
			"inputs": [
				{
					"indexed": true,
					"internalType": "address",
					"name": "delegate",
					"type": "address"
				},
				{
					"indexed": false,
					"internalType": "uint256",
					"name": "previousVotes",
					"type": "uint256"
				},
				{
					"indexed": false,
					"internalType": "uint256",
					"name": "newVotes",
					"type": "uint256"
				}
			],
			"name": "DelegateVotesChanged",
			"type": "event"
		},
		{
			"anonymous": false,
			"inputs": [],
			"name": "EIP712DomainChanged",
			"type": "event"
		},
		{
			"anonymous": false,
			"inputs": [
				{
					"indexed": true,
					"internalType": "address",
					"name": "from",
					"type": "address"
				},
				{
					"indexed": true,
					"internalType": "address",
					"name": "to",
					"type": "address"
				},
				{
					"indexed": false,
					"internalType": "uint256",
					"name": "value",
					"type": "uint256"
				}
			],
			"name": "Transfer",
			"type": "event"
		},
		{
			"inputs": [],
			"name": "CLOCK_MODE",
			"outputs": [
				{
					"internalType": "string",
					"name": "",
					"type": "string"
				}
			],
			"stateMutability": "view",
			"type": "function"
		},
		{
			"inputs": [],
			"name": "GRANTPRIVILEGES_NAMESPACE",
			"outputs": [
				{
					"internalType": "string",
					"name": "",
					"type": "string"
				}
			],
			"stateMutability": "view",
			"type": "function"
		},
		{
			"inputs": [],
			"name": "TOKEN_NAME",
			"outputs": [
				{
					"internalType": "string",
					"name": "",
					"type": "string"
				}
			],
			"stateMutability": "view",
			"type": "function"
		},
		{
			"inputs": [],
			"name": "TOKEN_SYMBOL",
			"outputs": [
				{
					"internalType": "string",
					"name": "",
					"type": "string"
				}
			],
			"stateMutability": "view",
			"type": "function"
		},
		{
			"inputs": [
				{
					"internalType": "address",
					"name": "newOwner",
					"type": "address"
				},
				{
					"internalType": "uint256",
					"name": "_timeLimit",
					"type": "uint256"
				}
			],
			"name": "addOwner",
			"outputs": [],
			"stateMutability": "nonpayable",
			"type": "function"
		},
		{
			"inputs": [
				{
					"internalType": "address",
					"name": "owner",
					"type": "address"
				},
				{
					"internalType": "address",
					"name": "spender",
					"type": "address"
				}
			],
			"name": "allowance",
			"outputs": [
				{
					"internalType": "uint256",
					"name": "",
					"type": "uint256"
				}
			],
			"stateMutability": "view",
			"type": "function"
		},
		{
			"inputs": [
				{
					"internalType": "address",
					"name": "spender",
					"type": "address"
				},
				{
					"internalType": "uint256",
					"name": "value",
					"type": "uint256"
				}
			],
			"name": "approve",
			"outputs": [
				{
					"internalType": "bool",
					"name": "",
					"type": "bool"
				}
			],
			"stateMutability": "nonpayable",
			"type": "function"
		},
		{
			"inputs": [
				{
					"internalType": "address",
					"name": "account",
					"type": "address"
				}
			],
			"name": "balanceOf",
			"outputs": [
				{
					"internalType": "uint256",
					"name": "",
					"type": "uint256"
				}
			],
			"stateMutability": "view",
			"type": "function"
		},
		{
			"inputs": [
				{
					"internalType": "uint256",
					"name": "value",
					"type": "uint256"
				}
			],
			"name": "burn",
			"outputs": [],
			"stateMutability": "nonpayable",
			"type": "function"
		},
		{
			"inputs": [
				{
					"internalType": "address",
					"name": "account",
					"type": "address"
				},
				{
					"internalType": "uint256",
					"name": "value",
					"type": "uint256"
				}
			],
			"name": "burnFrom",
			"outputs": [],
			"stateMutability": "nonpayable",
			"type": "function"
		},
		{
			"inputs": [
				{
					"internalType": "address",
					"name": "newAdmin",
					"type": "address"
				}
			],
			"name": "changeAdmin",
			"outputs": [],
			"stateMutability": "nonpayable",
			"type": "function"
		},
		{
			"inputs": [
				{
					"internalType": "address",
					"name": "account",
					"type": "address"
				},
				{
					"internalType": "uint32",
					"name": "pos",
					"type": "uint32"
				}
			],
			"name": "checkpoints",
			"outputs": [
				{
					"components": [
						{
							"internalType": "uint48",
							"name": "_key",
							"type": "uint48"
						},
						{
							"internalType": "uint208",
							"name": "_value",
							"type": "uint208"
						}
					],
					"internalType": "struct Checkpoints.Checkpoint208",
					"name": "",
					"type": "tuple"
				}
			],
			"stateMutability": "view",
			"type": "function"
		},
		{
			"inputs": [],
			"name": "clock",
			"outputs": [
				{
					"internalType": "uint48",
					"name": "",
					"type": "uint48"
				}
			],
			"stateMutability": "view",
			"type": "function"
		},
		{
			"inputs": [
				{
					"internalType": "uint256",
					"name": "proposalId",
					"type": "uint256"
				}
			],
			"name": "closeProposal",
			"outputs": [],
			"stateMutability": "nonpayable",
			"type": "function"
		},
		{
			"inputs": [
				{
					"internalType": "string",
					"name": "_description",
					"type": "string"
				}
			],
			"name": "createProposal",
			"outputs": [],
			"stateMutability": "nonpayable",
			"type": "function"
		},
		{
			"inputs": [],
			"name": "decimals",
			"outputs": [
				{
					"internalType": "uint8",
					"name": "",
					"type": "uint8"
				}
			],
			"stateMutability": "view",
			"type": "function"
		},
		{
			"inputs": [
				{
					"internalType": "address",
					"name": "delegatee",
					"type": "address"
				}
			],
			"name": "delegate",
			"outputs": [],
			"stateMutability": "nonpayable",
			"type": "function"
		},
		{
			"inputs": [
				{
					"internalType": "address",
					"name": "delegatee",
					"type": "address"
				},
				{
					"internalType": "uint256",
					"name": "nonce",
					"type": "uint256"
				},
				{
					"internalType": "uint256",
					"name": "expiry",
					"type": "uint256"
				},
				{
					"internalType": "uint8",
					"name": "v",
					"type": "uint8"
				},
				{
					"internalType": "bytes32",
					"name": "r",
					"type": "bytes32"
				},
				{
					"internalType": "bytes32",
					"name": "s",
					"type": "bytes32"
				}
			],
			"name": "delegateBySig",
			"outputs": [],
			"stateMutability": "nonpayable",
			"type": "function"
		},
		{
			"inputs": [
				{
					"internalType": "address",
					"name": "account",
					"type": "address"
				}
			],
			"name": "delegates",
			"outputs": [
				{
					"internalType": "address",
					"name": "",
					"type": "address"
				}
			],
			"stateMutability": "view",
			"type": "function"
		},
		{
			"inputs": [],
			"name": "eip712Domain",
			"outputs": [
				{
					"internalType": "bytes1",
					"name": "fields",
					"type": "bytes1"
				},
				{
					"internalType": "string",
					"name": "name",
					"type": "string"
				},
				{
					"internalType": "string",
					"name": "version",
					"type": "string"
				},
				{
					"internalType": "uint256",
					"name": "chainId",
					"type": "uint256"
				},
				{
					"internalType": "address",
					"name": "verifyingContract",
					"type": "address"
				},
				{
					"internalType": "bytes32",
					"name": "salt",
					"type": "bytes32"
				},
				{
					"internalType": "uint256[]",
					"name": "extensions",
					"type": "uint256[]"
				}
			],
			"stateMutability": "view",
			"type": "function"
		},
		{
			"inputs": [],
			"name": "getAdminAddress",
			"outputs": [
				{
					"internalType": "address",
					"name": "",
					"type": "address"
				}
			],
			"stateMutability": "view",
			"type": "function"
		},
		{
			"inputs": [
				{
					"internalType": "uint256",
					"name": "timepoint",
					"type": "uint256"
				}
			],
			"name": "getPastTotalSupply",
			"outputs": [
				{
					"internalType": "uint256",
					"name": "",
					"type": "uint256"
				}
			],
			"stateMutability": "view",
			"type": "function"
		},
		{
			"inputs": [
				{
					"internalType": "address",
					"name": "account",
					"type": "address"
				},
				{
					"internalType": "uint256",
					"name": "timepoint",
					"type": "uint256"
				}
			],
			"name": "getPastVotes",
			"outputs": [
				{
					"internalType": "uint256",
					"name": "",
					"type": "uint256"
				}
			],
			"stateMutability": "view",
			"type": "function"
		},
		{
			"inputs": [],
			"name": "getRemainingTime",
			"outputs": [
				{
					"internalType": "uint256",
					"name": "",
					"type": "uint256"
				}
			],
			"stateMutability": "view",
			"type": "function"
		},
		{
			"inputs": [
				{
					"internalType": "address",
					"name": "account",
					"type": "address"
				}
			],
			"name": "getVotes",
			"outputs": [
				{
					"internalType": "uint256",
					"name": "",
					"type": "uint256"
				}
			],
			"stateMutability": "view",
			"type": "function"
		},
		{
			"inputs": [],
			"name": "getVotingUnits",
			"outputs": [
				{
					"internalType": "uint256",
					"name": "",
					"type": "uint256"
				}
			],
			"stateMutability": "view",
			"type": "function"
		},
		{
			"inputs": [
				{
					"internalType": "address",
					"name": "account",
					"type": "address"
				},
				{
					"internalType": "uint256",
					"name": "value",
					"type": "uint256"
				}
			],
			"name": "mint",
			"outputs": [],
			"stateMutability": "nonpayable",
			"type": "function"
		},
		{
			"inputs": [],
			"name": "name",
			"outputs": [
				{
					"internalType": "string",
					"name": "",
					"type": "string"
				}
			],
			"stateMutability": "view",
			"type": "function"
		},
		{
			"inputs": [
				{
					"internalType": "address",
					"name": "owner",
					"type": "address"
				}
			],
			"name": "nonces",
			"outputs": [
				{
					"internalType": "uint256",
					"name": "",
					"type": "uint256"
				}
			],
			"stateMutability": "view",
			"type": "function"
		},
		{
			"inputs": [
				{
					"internalType": "address",
					"name": "account",
					"type": "address"
				}
			],
			"name": "numCheckpoints",
			"outputs": [
				{
					"internalType": "uint32",
					"name": "",
					"type": "uint32"
				}
			],
			"stateMutability": "view",
			"type": "function"
		},
		{
			"inputs": [
				{
					"internalType": "uint256",
					"name": "proposalId",
					"type": "uint256"
				}
			],
			"name": "openProposal",
			"outputs": [],
			"stateMutability": "nonpayable",
			"type": "function"
		},
		{
			"inputs": [],
			"name": "proposalCounter",
			"outputs": [
				{
					"internalType": "uint256",
					"name": "",
					"type": "uint256"
				}
			],
			"stateMutability": "view",
			"type": "function"
		},
		{
			"inputs": [
				{
					"internalType": "uint256",
					"name": "",
					"type": "uint256"
				}
			],
			"name": "proposals",
			"outputs": [
				{
					"internalType": "uint256",
					"name": "id",
					"type": "uint256"
				},
				{
					"internalType": "string",
					"name": "description",
					"type": "string"
				},
				{
					"internalType": "uint256",
					"name": "voteCount",
					"type": "uint256"
				},
				{
					"internalType": "bool",
					"name": "active",
					"type": "bool"
				}
			],
			"stateMutability": "view",
			"type": "function"
		},
		{
			"inputs": [],
			"name": "symbol",
			"outputs": [
				{
					"internalType": "string",
					"name": "",
					"type": "string"
				}
			],
			"stateMutability": "view",
			"type": "function"
		},
		{
			"inputs": [],
			"name": "totalSupply",
			"outputs": [
				{
					"internalType": "uint256",
					"name": "",
					"type": "uint256"
				}
			],
			"stateMutability": "view",
			"type": "function"
		},
		{
			"inputs": [
				{
					"internalType": "address",
					"name": "to",
					"type": "address"
				},
				{
					"internalType": "uint256",
					"name": "value",
					"type": "uint256"
				}
			],
			"name": "transfer",
			"outputs": [
				{
					"internalType": "bool",
					"name": "",
					"type": "bool"
				}
			],
			"stateMutability": "nonpayable",
			"type": "function"
		},
		{
			"inputs": [
				{
					"internalType": "address",
					"name": "from",
					"type": "address"
				},
				{
					"internalType": "address",
					"name": "to",
					"type": "address"
				},
				{
					"internalType": "uint256",
					"name": "value",
					"type": "uint256"
				}
			],
			"name": "transferFrom",
			"outputs": [
				{
					"internalType": "bool",
					"name": "",
					"type": "bool"
				}
			],
			"stateMutability": "nonpayable",
			"type": "function"
		},
		{
			"inputs": [
				{
					"internalType": "uint256",
					"name": "proposalId",
					"type": "uint256"
				},
				{
					"internalType": "uint256",
					"name": "voteAmount",
					"type": "uint256"
				}
			],
			"name": "vote",
			"outputs": [],
			"stateMutability": "nonpayable",
			"type": "function"
		}
	]
}