{
	"data": {
		"bytecode": {
			"linkReferences": {},
			"object": "60806040526040518060400160405280600660ff168152602001600860ff168152505f906002602e929190603e565b503480156039575f80fd5b506097565b8260028101928215606f579160200282015b82811115606e578251829060ff169055916020019190600101906050565b5b509050607a9190607e565b5090565b5b808211156093575f815f905550600101607f565b5090565b610fa9806100a45f395ff3fe608060405234801561000f575f80fd5b506004361061007b575f3560e01c806380a003ff1161005957806380a003ff1461010f5780639ccd14041461013f578063bc05bc5e1461016f578063d66ebcc3146101a35761007b565b80635630581f1461007f5780636d792a52146100af57806371e5ee5f146100df575b5f80fd5b610099600480360381019061009491906105be565b6101d3565b6040516100a6919061068a565b60405180910390f35b6100c960048036038101906100c491906105be565b61025a565b6040516100d6919061068a565b60405180910390f35b6100f960048036038101906100f491906106aa565b61028b565b60405161010691906106e4565b60405180910390f35b610129600480360381019061012491906106fd565b6102a3565b604051610136919061077e565b60405180910390f35b610159600480360381019061015491906105be565b6102b3565b604051610166919061068a565b60405180910390f35b61018960048036038101906101849190610835565b6102e4565b60405161019a959493929190610982565b60405180910390f35b6101bd60048036038101906101b891906105be565b610323565b6040516101ca919061068a565b60405180910390f35b6060636d792a5260e01b8484845f6040516024016101f49493929190610a9c565b604051602081830303815290604052907bffffffffffffffffffffffffffffffffffffffffffffffffffffffff19166020820180517bffffffffffffffffffffffffffffffffffffffffffffffffffffffff838183161783525050505090509392505050565b60608383835f6040516020016102739493929190610b56565b60405160208183030381529060405290509392505050565b5f8160028110610299575f80fd5b015f915090505481565b5f81805190602001209050919050565b60608383835f6040516020016102cc9493929190610d01565b60405160208183030381529060405290509392505050565b60605f8060606102f26103c2565b858060200190518101906103069190610ec4565b809550819650829750839850849950505050505091939590929450565b60608383835f60405160240161033c9493929190610a9c565b6040516020818303038152906040527f570fb545000000000000000000000000000000000000000000000000000000007bffffffffffffffffffffffffffffffffffffffffffffffffffffffff19166020820180517bffffffffffffffffffffffffffffffffffffffffffffffffffffffff838183161783525050505090509392505050565b6040518060400160405280600290602082028036833780820191505090505090565b5f604051905090565b5f80fd5b5f80fd5b5f819050919050565b610407816103f5565b8114610411575f80fd5b50565b5f81359050610422816103fe565b92915050565b5f73ffffffffffffffffffffffffffffffffffffffff82169050919050565b5f61045182610428565b9050919050565b61046181610447565b811461046b575f80fd5b50565b5f8135905061047c81610458565b92915050565b5f80fd5b5f80fd5b5f601f19601f8301169050919050565b7f4e487b71000000000000000000000000000000000000000000000000000000005f52604160045260245ffd5b6104d08261048a565b810181811067ffffffffffffffff821117156104ef576104ee61049a565b5b80604052505050565b5f6105016103e4565b905061050d82826104c7565b919050565b5f67ffffffffffffffff82111561052c5761052b61049a565b5b6105358261048a565b9050602081019050919050565b828183375f83830152505050565b5f61056261055d84610512565b6104f8565b90508281526020810184848401111561057e5761057d610486565b5b610589848285610542565b509392505050565b5f82601f8301126105a5576105a4610482565b5b81356105b5848260208601610550565b91505092915050565b5f805f606084860312156105d5576105d46103ed565b5b5f6105e286828701610414565b93505060206105f38682870161046e565b925050604084013567ffffffffffffffff811115610614576106136103f1565b5b61062086828701610591565b9150509250925092565b5f81519050919050565b5f82825260208201905092915050565b8281835e5f83830152505050565b5f61065c8261062a565b6106668185610634565b9350610676818560208601610644565b61067f8161048a565b840191505092915050565b5f6020820190508181035f8301526106a28184610652565b905092915050565b5f602082840312156106bf576106be6103ed565b5b5f6106cc84828501610414565b91505092915050565b6106de816103f5565b82525050565b5f6020820190506106f75f8301846106d5565b92915050565b5f60208284031215610712576107116103ed565b5b5f82013567ffffffffffffffff81111561072f5761072e6103f1565b5b61073b84828501610591565b91505092915050565b5f7fffffffff0000000000000000000000000000000000000000000000000000000082169050919050565b61077881610744565b82525050565b5f6020820190506107915f83018461076f565b92915050565b5f67ffffffffffffffff8211156107b1576107b061049a565b5b6107ba8261048a565b9050602081019050919050565b5f6107d96107d484610797565b6104f8565b9050828152602081018484840111156107f5576107f4610486565b5b610800848285610542565b509392505050565b5f82601f83011261081c5761081b610482565b5b813561082c8482602086016107c7565b91505092915050565b5f6020828403121561084a576108496103ed565b5b5f82013567ffffffffffffffff811115610867576108666103f1565b5b61087384828501610808565b91505092915050565b5f81519050919050565b5f82825260208201905092915050565b5f6108a08261087c565b6108aa8185610886565b93506108ba818560208601610644565b6108c38161048a565b840191505092915050565b6108d781610447565b82525050565b5f60029050919050565b5f81905092915050565b5f819050919050565b610903816103f5565b82525050565b5f61091483836108fa565b60208301905092915050565b5f602082019050919050565b610935816108dd565b61093f81846108e7565b925061094a826108f1565b805f5b8381101561097a5781516109618782610909565b965061096c83610920565b92505060018101905061094d565b505050505050565b5f60c0820190508181035f83015261099a8188610896565b90506109a960208301876106d5565b6109b660408301866108ce565b81810360608301526109c88185610896565b90506109d7608083018461092c565b9695505050505050565b5f60029050919050565b5f819050919050565b5f815f1c9050919050565b5f819050919050565b5f610a1a610a15836109f4565b6109ff565b9050919050565b5f610a2c8254610a08565b9050919050565b5f600182019050919050565b610a48816109e1565b610a5281846108e7565b9250610a5d826109eb565b805f5b83811015610a9457610a7182610a21565b610a7b8782610909565b9650610a8683610a33565b925050600181019050610a60565b505050505050565b5f60a082019050610aaf5f8301876106d5565b610abc60208301866108ce565b8181036040830152610ace8185610896565b9050610add6060830184610a3f565b95945050505050565b7f656e636f6465546573742875696e742c6464726573732c737472696e67206d655f8201527f6d6f727929000000000000000000000000000000000000000000000000000000602082015250565b5f610b40602583610886565b9150610b4b82610ae6565b604082019050919050565b5f60c0820190508181035f830152610b6d81610b34565b9050610b7c60208301876106d5565b610b8960408301866108ce565b8181036060830152610b9b8185610896565b9050610baa6080830184610a3f565b95945050505050565b5f81905092915050565b5f610bc9602583610bb3565b9150610bd482610ae6565b602582019050919050565b5f819050919050565b610bf9610bf4826103f5565b610bdf565b82525050565b5f8160601b9050919050565b5f610c1582610bff565b9050919050565b5f610c2682610c0b565b9050919050565b610c3e610c3982610447565b610c1c565b82525050565b5f610c4e8261087c565b610c588185610bb3565b9350610c68818560208601610644565b80840191505092915050565b5f81905092915050565b610c87816103f5565b82525050565b5f610c988383610c7e565b60208301905092915050565b610cad816109e1565b610cb78184610c74565b9250610cc2826109eb565b805f5b83811015610cf957610cd682610a21565b610ce08782610c8d565b9650610ceb83610a33565b925050600181019050610cc5565b505050505050565b5f610d0b82610bbd565b9150610d178287610be8565b602082019150610d278286610c2d565b601482019150610d378285610c44565b9150610d438284610ca4565b60408201915081905095945050505050565b5f610d67610d6284610512565b6104f8565b905082815260208101848484011115610d8357610d82610486565b5b610d8e848285610644565b509392505050565b5f82601f830112610daa57610da9610482565b5b8151610dba848260208601610d55565b91505092915050565b5f81519050610dd1816103fe565b92915050565b5f610de182610428565b9050919050565b610df181610dd7565b8114610dfb575f80fd5b50565b5f81519050610e0c81610de8565b92915050565b5f67ffffffffffffffff821115610e2c57610e2b61049a565b5b602082029050919050565b5f80fd5b5f610e4d610e4884610e12565b6104f8565b90508060208402830185811115610e6757610e66610e37565b5b835b81811015610e905780610e7c8882610dc3565b845260208401935050602081019050610e69565b5050509392505050565b5f82601f830112610eae57610ead610482565b5b6002610ebb848285610e3b565b91505092915050565b5f805f805f60c08688031215610edd57610edc6103ed565b5b5f86015167ffffffffffffffff811115610efa57610ef96103f1565b5b610f0688828901610d96565b9550506020610f1788828901610dc3565b9450506040610f2888828901610dfe565b935050606086015167ffffffffffffffff811115610f4957610f486103f1565b5b610f5588828901610d96565b9250506080610f6688828901610e9a565b915050929550929590935056fea2646970667358221220ee5b8acb81e420d9e052c28d5f1e359f2c08dcb3a8adfc39e8ffc3a2dda05ef864736f6c634300081a0033",
			"opcodes": "PUSH1 0x80 PUSH1 0x40 MSTORE PUSH1 0x40 MLOAD DUP1 PUSH1 0x40 ADD PUSH1 0x40 MSTORE DUP1 PUSH1 0x6 PUSH1 0xFF AND DUP2 MSTORE PUSH1 0x20 ADD PUSH1 0x8 PUSH1 0xFF AND DUP2 MSTORE POP PUSH0 SWAP1 PUSH1 0x2 PUSH1 0x2E SWAP3 SWAP2 SWAP1 PUSH1 0x3E JUMP JUMPDEST POP CALLVALUE DUP1 ISZERO PUSH1 0x39 JUMPI PUSH0 DUP1 REVERT JUMPDEST POP PUSH1 0x97 JUMP JUMPDEST DUP3 PUSH1 0x2 DUP2 ADD SWAP3 DUP3 ISZERO PUSH1 0x6F JUMPI SWAP2 PUSH1 0x20 MUL DUP3 ADD JUMPDEST DUP3 DUP2 GT ISZERO PUSH1 0x6E JUMPI DUP3 MLOAD DUP3 SWAP1 PUSH1 0xFF AND SWAP1 SSTORE SWAP2 PUSH1 0x20 ADD SWAP2 SWAP1 PUSH1 0x1 ADD SWAP1 PUSH1 0x50 JUMP JUMPDEST JUMPDEST POP SWAP1 POP PUSH1 0x7A SWAP2 SWAP1 PUSH1 0x7E JUMP JUMPDEST POP SWAP1 JUMP JUMPDEST JUMPDEST DUP1 DUP3 GT ISZERO PUSH1 0x93 JUMPI PUSH0 DUP2 PUSH0 SWAP1 SSTORE POP PUSH1 0x1 ADD PUSH1 0x7F JUMP JUMPDEST POP SWAP1 JUMP JUMPDEST PUSH2 0xFA9 DUP1 PUSH2 0xA4 PUSH0 CODECOPY PUSH0 RETURN INVALID PUSH1 0x80 PUSH1 0x40 MSTORE CALLVALUE DUP1 ISZERO PUSH2 0xF JUMPI PUSH0 DUP1 REVERT JUMPDEST POP PUSH1 0x4 CALLDATASIZE LT PUSH2 0x7B JUMPI PUSH0 CALLDATALOAD PUSH1 0xE0 SHR DUP1 PUSH4 0x80A003FF GT PUSH2 0x59 JUMPI DUP1 PUSH4 0x80A003FF EQ PUSH2 0x10F JUMPI DUP1 PUSH4 0x9CCD1404 EQ PUSH2 0x13F JUMPI DUP1 PUSH4 0xBC05BC5E EQ PUSH2 0x16F JUMPI DUP1 PUSH4 0xD66EBCC3 EQ PUSH2 0x1A3 JUMPI PUSH2 0x7B JUMP JUMPDEST DUP1 PUSH4 0x5630581F EQ PUSH2 0x7F JUMPI DUP1 PUSH4 0x6D792A52 EQ PUSH2 0xAF JUMPI DUP1 PUSH4 0x71E5EE5F EQ PUSH2 0xDF JUMPI JUMPDEST PUSH0 DUP1 REVERT JUMPDEST PUSH2 0x99 PUSH1 0x4 DUP1 CALLDATASIZE SUB DUP2 ADD SWAP1 PUSH2 0x94 SWAP2 SWAP1 PUSH2 0x5BE JUMP JUMPDEST PUSH2 0x1D3 JUMP JUMPDEST PUSH1 0x40 MLOAD PUSH2 0xA6 SWAP2 SWAP1 PUSH2 0x68A JUMP JUMPDEST PUSH1 0x40 MLOAD DUP1 SWAP2 SUB SWAP1 RETURN JUMPDEST PUSH2 0xC9 PUSH1 0x4 DUP1 CALLDATASIZE SUB DUP2 ADD SWAP1 PUSH2 0xC4 SWAP2 SWAP1 PUSH2 0x5BE JUMP JUMPDEST PUSH2 0x25A JUMP JUMPDEST PUSH1 0x40 MLOAD PUSH2 0xD6 SWAP2 SWAP1 PUSH2 0x68A JUMP JUMPDEST PUSH1 0x40 MLOAD DUP1 SWAP2 SUB SWAP1 RETURN JUMPDEST PUSH2 0xF9 PUSH1 0x4 DUP1 CALLDATASIZE SUB DUP2 ADD SWAP1 PUSH2 0xF4 SWAP2 SWAP1 PUSH2 0x6AA JUMP JUMPDEST PUSH2 0x28B JUMP JUMPDEST PUSH1 0x40 MLOAD PUSH2 0x106 SWAP2 SWAP1 PUSH2 0x6E4 JUMP JUMPDEST PUSH1 0x40 MLOAD DUP1 SWAP2 SUB SWAP1 RETURN JUMPDEST PUSH2 0x129 PUSH1 0x4 DUP1 CALLDATASIZE SUB DUP2 ADD SWAP1 PUSH2 0x124 SWAP2 SWAP1 PUSH2 0x6FD JUMP JUMPDEST PUSH2 0x2A3 JUMP JUMPDEST PUSH1 0x40 MLOAD PUSH2 0x136 SWAP2 SWAP1 PUSH2 0x77E JUMP JUMPDEST PUSH1 0x40 MLOAD DUP1 SWAP2 SUB SWAP1 RETURN JUMPDEST PUSH2 0x159 PUSH1 0x4 DUP1 CALLDATASIZE SUB DUP2 ADD SWAP1 PUSH2 0x154 SWAP2 SWAP1 PUSH2 0x5BE JUMP JUMPDEST PUSH2 0x2B3 JUMP JUMPDEST PUSH1 0x40 MLOAD PUSH2 0x166 SWAP2 SWAP1 PUSH2 0x68A JUMP JUMPDEST PUSH1 0x40 MLOAD DUP1 SWAP2 SUB SWAP1 RETURN JUMPDEST PUSH2 0x189 PUSH1 0x4 DUP1 CALLDATASIZE SUB DUP2 ADD SWAP1 PUSH2 0x184 SWAP2 SWAP1 PUSH2 0x835 JUMP JUMPDEST PUSH2 0x2E4 JUMP JUMPDEST PUSH1 0x40 MLOAD PUSH2 0x19A SWAP6 SWAP5 SWAP4 SWAP3 SWAP2 SWAP1 PUSH2 0x982 JUMP JUMPDEST PUSH1 0x40 MLOAD DUP1 SWAP2 SUB SWAP1 RETURN JUMPDEST PUSH2 0x1BD PUSH1 0x4 DUP1 CALLDATASIZE SUB DUP2 ADD SWAP1 PUSH2 0x1B8 SWAP2 SWAP1 PUSH2 0x5BE JUMP JUMPDEST PUSH2 0x323 JUMP JUMPDEST PUSH1 0x40 MLOAD PUSH2 0x1CA SWAP2 SWAP1 PUSH2 0x68A JUMP JUMPDEST PUSH1 0x40 MLOAD DUP1 SWAP2 SUB SWAP1 RETURN JUMPDEST PUSH1 0x60 PUSH4 0x6D792A52 PUSH1 0xE0 SHL DUP5 DUP5 DUP5 PUSH0 PUSH1 0x40 MLOAD PUSH1 0x24 ADD PUSH2 0x1F4 SWAP5 SWAP4 SWAP3 SWAP2 SWAP1 PUSH2 0xA9C JUMP JUMPDEST PUSH1 0x40 MLOAD PUSH1 0x20 DUP2 DUP4 SUB SUB DUP2 MSTORE SWAP1 PUSH1 0x40 MSTORE SWAP1 PUSH28 0xFFFFFFFFFFFFFFFFFFFFFFFFFFFFFFFFFFFFFFFFFFFFFFFFFFFFFFFF NOT AND PUSH1 0x20 DUP3 ADD DUP1 MLOAD PUSH28 0xFFFFFFFFFFFFFFFFFFFFFFFFFFFFFFFFFFFFFFFFFFFFFFFFFFFFFFFF DUP4 DUP2 DUP4 AND OR DUP4 MSTORE POP POP POP POP SWAP1 POP SWAP4 SWAP3 POP POP POP JUMP JUMPDEST PUSH1 0x60 DUP4 DUP4 DUP4 PUSH0 PUSH1 0x40 MLOAD PUSH1 0x20 ADD PUSH2 0x273 SWAP5 SWAP4 SWAP3 SWAP2 SWAP1 PUSH2 0xB56 JUMP JUMPDEST PUSH1 0x40 MLOAD PUSH1 0x20 DUP2 DUP4 SUB SUB DUP2 MSTORE SWAP1 PUSH1 0x40 MSTORE SWAP1 POP SWAP4 SWAP3 POP POP POP JUMP JUMPDEST PUSH0 DUP2 PUSH1 0x2 DUP2 LT PUSH2 0x299 JUMPI PUSH0 DUP1 REVERT JUMPDEST ADD PUSH0 SWAP2 POP SWAP1 POP SLOAD DUP2 JUMP JUMPDEST PUSH0 DUP2 DUP1 MLOAD SWAP1 PUSH1 0x20 ADD KECCAK256 SWAP1 POP SWAP2 SWAP1 POP JUMP JUMPDEST PUSH1 0x60 DUP4 DUP4 DUP4 PUSH0 PUSH1 0x40 MLOAD PUSH1 0x20 ADD PUSH2 0x2CC SWAP5 SWAP4 SWAP3 SWAP2 SWAP1 PUSH2 0xD01 JUMP JUMPDEST PUSH1 0x40 MLOAD PUSH1 0x20 DUP2 DUP4 SUB SUB DUP2 MSTORE SWAP1 PUSH1 0x40 MSTORE SWAP1 POP SWAP4 SWAP3 POP POP POP JUMP JUMPDEST PUSH1 0x60 PUSH0 DUP1 PUSH1 0x60 PUSH2 0x2F2 PUSH2 0x3C2 JUMP JUMPDEST DUP6 DUP1 PUSH1 0x20 ADD SWAP1 MLOAD DUP2 ADD SWAP1 PUSH2 0x306 SWAP2 SWAP1 PUSH2 0xEC4 JUMP JUMPDEST DUP1 SWAP6 POP DUP2 SWAP7 POP DUP3 SWAP8 POP DUP4 SWAP9 POP DUP5 SWAP10 POP POP POP POP POP POP SWAP2 SWAP4 SWAP6 SWAP1 SWAP3 SWAP5 POP JUMP JUMPDEST PUSH1 0x60 DUP4 DUP4 DUP4 PUSH0 PUSH1 0x40 MLOAD PUSH1 0x24 ADD PUSH2 0x33C SWAP5 SWAP4 SWAP3 SWAP2 SWAP1 PUSH2 0xA9C JUMP JUMPDEST PUSH1 0x40 MLOAD PUSH1 0x20 DUP2 DUP4 SUB SUB DUP2 MSTORE SWAP1 PUSH1 0x40 MSTORE PUSH32 0x570FB54500000000000000000000000000000000000000000000000000000000 PUSH28 0xFFFFFFFFFFFFFFFFFFFFFFFFFFFFFFFFFFFFFFFFFFFFFFFFFFFFFFFF NOT AND PUSH1 0x20 DUP3 ADD DUP1 MLOAD PUSH28 0xFFFFFFFFFFFFFFFFFFFFFFFFFFFFFFFFFFFFFFFFFFFFFFFFFFFFFFFF DUP4 DUP2 DUP4 AND OR DUP4 MSTORE POP POP POP POP SWAP1 POP SWAP4 SWAP3 POP POP POP JUMP JUMPDEST PUSH1 0x40 MLOAD DUP1 PUSH1 0x40 ADD PUSH1 0x40 MSTORE DUP1 PUSH1 0x2 SWAP1 PUSH1 0x20 DUP3 MUL DUP1 CALLDATASIZE DUP4 CALLDATACOPY DUP1 DUP3 ADD SWAP2 POP POP SWAP1 POP POP SWAP1 JUMP JUMPDEST PUSH0 PUSH1 0x40 MLOAD SWAP1 POP SWAP1 JUMP JUMPDEST PUSH0 DUP1 REVERT JUMPDEST PUSH0 DUP1 REVERT JUMPDEST PUSH0 DUP2 SWAP1 POP SWAP2 SWAP1 POP JUMP JUMPDEST PUSH2 0x407 DUP2 PUSH2 0x3F5 JUMP JUMPDEST DUP2 EQ PUSH2 0x411 JUMPI PUSH0 DUP1 REVERT JUMPDEST POP JUMP JUMPDEST PUSH0 DUP2 CALLDATALOAD SWAP1 POP PUSH2 0x422 DUP2 PUSH2 0x3FE JUMP JUMPDEST SWAP3 SWAP2 POP POP JUMP JUMPDEST PUSH0 PUSH20 0xFFFFFFFFFFFFFFFFFFFFFFFFFFFFFFFFFFFFFFFF DUP3 AND SWAP1 POP SWAP2 SWAP1 POP JUMP JUMPDEST PUSH0 PUSH2 0x451 DUP3 PUSH2 0x428 JUMP JUMPDEST SWAP1 POP SWAP2 SWAP1 POP JUMP JUMPDEST PUSH2 0x461 DUP2 PUSH2 0x447 JUMP JUMPDEST DUP2 EQ PUSH2 0x46B JUMPI PUSH0 DUP1 REVERT JUMPDEST POP JUMP JUMPDEST PUSH0 DUP2 CALLDATALOAD SWAP1 POP PUSH2 0x47C DUP2 PUSH2 0x458 JUMP JUMPDEST SWAP3 SWAP2 POP POP JUMP JUMPDEST PUSH0 DUP1 REVERT JUMPDEST PUSH0 DUP1 REVERT JUMPDEST PUSH0 PUSH1 0x1F NOT PUSH1 0x1F DUP4 ADD AND SWAP1 POP SWAP2 SWAP1 POP JUMP JUMPDEST PUSH32 0x4E487B7100000000000000000000000000000000000000000000000000000000 PUSH0 MSTORE PUSH1 0x41 PUSH1 0x4 MSTORE PUSH1 0x24 PUSH0 REVERT JUMPDEST PUSH2 0x4D0 DUP3 PUSH2 0x48A JUMP JUMPDEST DUP2 ADD DUP2 DUP2 LT PUSH8 0xFFFFFFFFFFFFFFFF DUP3 GT OR ISZERO PUSH2 0x4EF JUMPI PUSH2 0x4EE PUSH2 0x49A JUMP JUMPDEST JUMPDEST DUP1 PUSH1 0x40 MSTORE POP POP POP JUMP JUMPDEST PUSH0 PUSH2 0x501 PUSH2 0x3E4 JUMP JUMPDEST SWAP1 POP PUSH2 0x50D DUP3 DUP3 PUSH2 0x4C7 JUMP JUMPDEST SWAP2 SWAP1 POP JUMP JUMPDEST PUSH0 PUSH8 0xFFFFFFFFFFFFFFFF DUP3 GT ISZERO PUSH2 0x52C JUMPI PUSH2 0x52B PUSH2 0x49A JUMP JUMPDEST JUMPDEST PUSH2 0x535 DUP3 PUSH2 0x48A JUMP JUMPDEST SWAP1 POP PUSH1 0x20 DUP2 ADD SWAP1 POP SWAP2 SWAP1 POP JUMP JUMPDEST DUP3 DUP2 DUP4 CALLDATACOPY PUSH0 DUP4 DUP4 ADD MSTORE POP POP POP JUMP JUMPDEST PUSH0 PUSH2 0x562 PUSH2 0x55D DUP5 PUSH2 0x512 JUMP JUMPDEST PUSH2 0x4F8 JUMP JUMPDEST SWAP1 POP DUP3 DUP2 MSTORE PUSH1 0x20 DUP2 ADD DUP5 DUP5 DUP5 ADD GT ISZERO PUSH2 0x57E JUMPI PUSH2 0x57D PUSH2 0x486 JUMP JUMPDEST JUMPDEST PUSH2 0x589 DUP5 DUP3 DUP6 PUSH2 0x542 JUMP JUMPDEST POP SWAP4 SWAP3 POP POP POP JUMP JUMPDEST PUSH0 DUP3 PUSH1 0x1F DUP4 ADD SLT PUSH2 0x5A5 JUMPI PUSH2 0x5A4 PUSH2 0x482 JUMP JUMPDEST JUMPDEST DUP2 CALLDATALOAD PUSH2 0x5B5 DUP5 DUP3 PUSH1 0x20 DUP7 ADD PUSH2 0x550 JUMP JUMPDEST SWAP2 POP POP SWAP3 SWAP2 POP POP JUMP JUMPDEST PUSH0 DUP1 PUSH0 PUSH1 0x60 DUP5 DUP7 SUB SLT ISZERO PUSH2 0x5D5 JUMPI PUSH2 0x5D4 PUSH2 0x3ED JUMP JUMPDEST JUMPDEST PUSH0 PUSH2 0x5E2 DUP7 DUP3 DUP8 ADD PUSH2 0x414 JUMP JUMPDEST SWAP4 POP POP PUSH1 0x20 PUSH2 0x5F3 DUP7 DUP3 DUP8 ADD PUSH2 0x46E JUMP JUMPDEST SWAP3 POP POP PUSH1 0x40 DUP5 ADD CALLDATALOAD PUSH8 0xFFFFFFFFFFFFFFFF DUP2 GT ISZERO PUSH2 0x614 JUMPI PUSH2 0x613 PUSH2 0x3F1 JUMP JUMPDEST JUMPDEST PUSH2 0x620 DUP7 DUP3 DUP8 ADD PUSH2 0x591 JUMP JUMPDEST SWAP2 POP POP SWAP3 POP SWAP3 POP SWAP3 JUMP JUMPDEST PUSH0 DUP2 MLOAD SWAP1 POP SWAP2 SWAP1 POP JUMP JUMPDEST PUSH0 DUP3 DUP3 MSTORE PUSH1 0x20 DUP3 ADD SWAP1 POP SWAP3 SWAP2 POP POP JUMP JUMPDEST DUP3 DUP2 DUP4 MCOPY PUSH0 DUP4 DUP4 ADD MSTORE POP POP POP JUMP JUMPDEST PUSH0 PUSH2 0x65C DUP3 PUSH2 0x62A JUMP JUMPDEST PUSH2 0x666 DUP2 DUP6 PUSH2 0x634 JUMP JUMPDEST SWAP4 POP PUSH2 0x676 DUP2 DUP6 PUSH1 0x20 DUP7 ADD PUSH2 0x644 JUMP JUMPDEST PUSH2 0x67F DUP2 PUSH2 0x48A JUMP JUMPDEST DUP5 ADD SWAP2 POP POP SWAP3 SWAP2 POP POP JUMP JUMPDEST PUSH0 PUSH1 0x20 DUP3 ADD SWAP1 POP DUP2 DUP2 SUB PUSH0 DUP4 ADD MSTORE PUSH2 0x6A2 DUP2 DUP5 PUSH2 0x652 JUMP JUMPDEST SWAP1 POP SWAP3 SWAP2 POP POP JUMP JUMPDEST PUSH0 PUSH1 0x20 DUP3 DUP5 SUB SLT ISZERO PUSH2 0x6BF JUMPI PUSH2 0x6BE PUSH2 0x3ED JUMP JUMPDEST JUMPDEST PUSH0 PUSH2 0x6CC DUP5 DUP3 DUP6 ADD PUSH2 0x414 JUMP JUMPDEST SWAP2 POP POP SWAP3 SWAP2 POP POP JUMP JUMPDEST PUSH2 0x6DE DUP2 PUSH2 0x3F5 JUMP JUMPDEST DUP3 MSTORE POP POP JUMP JUMPDEST PUSH0 PUSH1 0x20 DUP3 ADD SWAP1 POP PUSH2 0x6F7 PUSH0 DUP4 ADD DUP5 PUSH2 0x6D5 JUMP JUMPDEST SWAP3 SWAP2 POP POP JUMP JUMPDEST PUSH0 PUSH1 0x20 DUP3 DUP5 SUB SLT ISZERO PUSH2 0x712 JUMPI PUSH2 0x711 PUSH2 0x3ED JUMP JUMPDEST JUMPDEST PUSH0 DUP3 ADD CALLDATALOAD PUSH8 0xFFFFFFFFFFFFFFFF DUP2 GT ISZERO PUSH2 0x72F JUMPI PUSH2 0x72E PUSH2 0x3F1 JUMP JUMPDEST JUMPDEST PUSH2 0x73B DUP5 DUP3 DUP6 ADD PUSH2 0x591 JUMP JUMPDEST SWAP2 POP POP SWAP3 SWAP2 POP POP JUMP JUMPDEST PUSH0 PUSH32 0xFFFFFFFF00000000000000000000000000000000000000000000000000000000 DUP3 AND SWAP1 POP SWAP2 SWAP1 POP JUMP JUMPDEST PUSH2 0x778 DUP2 PUSH2 0x744 JUMP JUMPDEST DUP3 MSTORE POP POP JUMP JUMPDEST PUSH0 PUSH1 0x20 DUP3 ADD SWAP1 POP PUSH2 0x791 PUSH0 DUP4 ADD DUP5 PUSH2 0x76F JUMP JUMPDEST SWAP3 SWAP2 POP POP JUMP JUMPDEST PUSH0 PUSH8 0xFFFFFFFFFFFFFFFF DUP3 GT ISZERO PUSH2 0x7B1 JUMPI PUSH2 0x7B0 PUSH2 0x49A JUMP JUMPDEST JUMPDEST PUSH2 0x7BA DUP3 PUSH2 0x48A JUMP JUMPDEST SWAP1 POP PUSH1 0x20 DUP2 ADD SWAP1 POP SWAP2 SWAP1 POP JUMP JUMPDEST PUSH0 PUSH2 0x7D9 PUSH2 0x7D4 DUP5 PUSH2 0x797 JUMP JUMPDEST PUSH2 0x4F8 JUMP JUMPDEST SWAP1 POP DUP3 DUP2 MSTORE PUSH1 0x20 DUP2 ADD DUP5 DUP5 DUP5 ADD GT ISZERO PUSH2 0x7F5 JUMPI PUSH2 0x7F4 PUSH2 0x486 JUMP JUMPDEST JUMPDEST PUSH2 0x800 DUP5 DUP3 DUP6 PUSH2 0x542 JUMP JUMPDEST POP SWAP4 SWAP3 POP POP POP JUMP JUMPDEST PUSH0 DUP3 PUSH1 0x1F DUP4 ADD SLT PUSH2 0x81C JUMPI PUSH2 0x81B PUSH2 0x482 JUMP JUMPDEST JUMPDEST DUP2 CALLDATALOAD PUSH2 0x82C DUP5 DUP3 PUSH1 0x20 DUP7 ADD PUSH2 0x7C7 JUMP JUMPDEST SWAP2 POP POP SWAP3 SWAP2 POP POP JUMP JUMPDEST PUSH0 PUSH1 0x20 DUP3 DUP5 SUB SLT ISZERO PUSH2 0x84A JUMPI PUSH2 0x849 PUSH2 0x3ED JUMP JUMPDEST JUMPDEST PUSH0 DUP3 ADD CALLDATALOAD PUSH8 0xFFFFFFFFFFFFFFFF DUP2 GT ISZERO PUSH2 0x867 JUMPI PUSH2 0x866 PUSH2 0x3F1 JUMP JUMPDEST JUMPDEST PUSH2 0x873 DUP5 DUP3 DUP6 ADD PUSH2 0x808 JUMP JUMPDEST SWAP2 POP POP SWAP3 SWAP2 POP POP JUMP JUMPDEST PUSH0 DUP2 MLOAD SWAP1 POP SWAP2 SWAP1 POP JUMP JUMPDEST PUSH0 DUP3 DUP3 MSTORE PUSH1 0x20 DUP3 ADD SWAP1 POP SWAP3 SWAP2 POP POP JUMP JUMPDEST PUSH0 PUSH2 0x8A0 DUP3 PUSH2 0x87C JUMP JUMPDEST PUSH2 0x8AA DUP2 DUP6 PUSH2 0x886 JUMP JUMPDEST SWAP4 POP PUSH2 0x8BA DUP2 DUP6 PUSH1 0x20 DUP7 ADD PUSH2 0x644 JUMP JUMPDEST PUSH2 0x8C3 DUP2 PUSH2 0x48A JUMP JUMPDEST DUP5 ADD SWAP2 POP POP SWAP3 SWAP2 POP POP JUMP JUMPDEST PUSH2 0x8D7 DUP2 PUSH2 0x447 JUMP JUMPDEST DUP3 MSTORE POP POP JUMP JUMPDEST PUSH0 PUSH1 0x2 SWAP1 POP SWAP2 SWAP1 POP JUMP JUMPDEST PUSH0 DUP2 SWAP1 POP SWAP3 SWAP2 POP POP JUMP JUMPDEST PUSH0 DUP2 SWAP1 POP SWAP2 SWAP1 POP JUMP JUMPDEST PUSH2 0x903 DUP2 PUSH2 0x3F5 JUMP JUMPDEST DUP3 MSTORE POP POP JUMP JUMPDEST PUSH0 PUSH2 0x914 DUP4 DUP4 PUSH2 0x8FA JUMP JUMPDEST PUSH1 0x20 DUP4 ADD SWAP1 POP SWAP3 SWAP2 POP POP JUMP JUMPDEST PUSH0 PUSH1 0x20 DUP3 ADD SWAP1 POP SWAP2 SWAP1 POP JUMP JUMPDEST PUSH2 0x935 DUP2 PUSH2 0x8DD JUMP JUMPDEST PUSH2 0x93F DUP2 DUP5 PUSH2 0x8E7 JUMP JUMPDEST SWAP3 POP PUSH2 0x94A DUP3 PUSH2 0x8F1 JUMP JUMPDEST DUP1 PUSH0 JUMPDEST DUP4 DUP2 LT ISZERO PUSH2 0x97A JUMPI DUP2 MLOAD PUSH2 0x961 DUP8 DUP3 PUSH2 0x909 JUMP JUMPDEST SWAP7 POP PUSH2 0x96C DUP4 PUSH2 0x920 JUMP JUMPDEST SWAP3 POP POP PUSH1 0x1 DUP2 ADD SWAP1 POP PUSH2 0x94D JUMP JUMPDEST POP POP POP POP POP POP JUMP JUMPDEST PUSH0 PUSH1 0xC0 DUP3 ADD SWAP1 POP DUP2 DUP2 SUB PUSH0 DUP4 ADD MSTORE PUSH2 0x99A DUP2 DUP9 PUSH2 0x896 JUMP JUMPDEST SWAP1 POP PUSH2 0x9A9 PUSH1 0x20 DUP4 ADD DUP8 PUSH2 0x6D5 JUMP JUMPDEST PUSH2 0x9B6 PUSH1 0x40 DUP4 ADD DUP7 PUSH2 0x8CE JUMP JUMPDEST DUP2 DUP2 SUB PUSH1 0x60 DUP4 ADD MSTORE PUSH2 0x9C8 DUP2 DUP6 PUSH2 0x896 JUMP JUMPDEST SWAP1 POP PUSH2 0x9D7 PUSH1 0x80 DUP4 ADD DUP5 PUSH2 0x92C JUMP JUMPDEST SWAP7 SWAP6 POP POP POP POP POP POP JUMP JUMPDEST PUSH0 PUSH1 0x2 SWAP1 POP SWAP2 SWAP1 POP JUMP JUMPDEST PUSH0 DUP2 SWAP1 POP SWAP2 SWAP1 POP JUMP JUMPDEST PUSH0 DUP2 PUSH0 SHR SWAP1 POP SWAP2 SWAP1 POP JUMP JUMPDEST PUSH0 DUP2 SWAP1 POP SWAP2 SWAP1 POP JUMP JUMPDEST PUSH0 PUSH2 0xA1A PUSH2 0xA15 DUP4 PUSH2 0x9F4 JUMP JUMPDEST PUSH2 0x9FF JUMP JUMPDEST SWAP1 POP SWAP2 SWAP1 POP JUMP JUMPDEST PUSH0 PUSH2 0xA2C DUP3 SLOAD PUSH2 0xA08 JUMP JUMPDEST SWAP1 POP SWAP2 SWAP1 POP JUMP JUMPDEST PUSH0 PUSH1 0x1 DUP3 ADD SWAP1 POP SWAP2 SWAP1 POP JUMP JUMPDEST PUSH2 0xA48 DUP2 PUSH2 0x9E1 JUMP JUMPDEST PUSH2 0xA52 DUP2 DUP5 PUSH2 0x8E7 JUMP JUMPDEST SWAP3 POP PUSH2 0xA5D DUP3 PUSH2 0x9EB JUMP JUMPDEST DUP1 PUSH0 JUMPDEST DUP4 DUP2 LT ISZERO PUSH2 0xA94 JUMPI PUSH2 0xA71 DUP3 PUSH2 0xA21 JUMP JUMPDEST PUSH2 0xA7B DUP8 DUP3 PUSH2 0x909 JUMP JUMPDEST SWAP7 POP PUSH2 0xA86 DUP4 PUSH2 0xA33 JUMP JUMPDEST SWAP3 POP POP PUSH1 0x1 DUP2 ADD SWAP1 POP PUSH2 0xA60 JUMP JUMPDEST POP POP POP POP POP POP JUMP JUMPDEST PUSH0 PUSH1 0xA0 DUP3 ADD SWAP1 POP PUSH2 0xAAF PUSH0 DUP4 ADD DUP8 PUSH2 0x6D5 JUMP JUMPDEST PUSH2 0xABC PUSH1 0x20 DUP4 ADD DUP7 PUSH2 0x8CE JUMP JUMPDEST DUP2 DUP2 SUB PUSH1 0x40 DUP4 ADD MSTORE PUSH2 0xACE DUP2 DUP6 PUSH2 0x896 JUMP JUMPDEST SWAP1 POP PUSH2 0xADD PUSH1 0x60 DUP4 ADD DUP5 PUSH2 0xA3F JUMP JUMPDEST SWAP6 SWAP5 POP POP POP POP POP JUMP JUMPDEST PUSH32 0x656E636F6465546573742875696E742C6464726573732C737472696E67206D65 PUSH0 DUP3 ADD MSTORE PUSH32 0x6D6F727929000000000000000000000000000000000000000000000000000000 PUSH1 0x20 DUP3 ADD MSTORE POP JUMP JUMPDEST PUSH0 PUSH2 0xB40 PUSH1 0x25 DUP4 PUSH2 0x886 JUMP JUMPDEST SWAP2 POP PUSH2 0xB4B DUP3 PUSH2 0xAE6 JUMP JUMPDEST PUSH1 0x40 DUP3 ADD SWAP1 POP SWAP2 SWAP1 POP JUMP JUMPDEST PUSH0 PUSH1 0xC0 DUP3 ADD SWAP1 POP DUP2 DUP2 SUB PUSH0 DUP4 ADD MSTORE PUSH2 0xB6D DUP2 PUSH2 0xB34 JUMP JUMPDEST SWAP1 POP PUSH2 0xB7C PUSH1 0x20 DUP4 ADD DUP8 PUSH2 0x6D5 JUMP JUMPDEST PUSH2 0xB89 PUSH1 0x40 DUP4 ADD DUP7 PUSH2 0x8CE JUMP JUMPDEST DUP2 DUP2 SUB PUSH1 0x60 DUP4 ADD MSTORE PUSH2 0xB9B DUP2 DUP6 PUSH2 0x896 JUMP JUMPDEST SWAP1 POP PUSH2 0xBAA PUSH1 0x80 DUP4 ADD DUP5 PUSH2 0xA3F JUMP JUMPDEST SWAP6 SWAP5 POP POP POP POP POP JUMP JUMPDEST PUSH0 DUP2 SWAP1 POP SWAP3 SWAP2 POP POP JUMP JUMPDEST PUSH0 PUSH2 0xBC9 PUSH1 0x25 DUP4 PUSH2 0xBB3 JUMP JUMPDEST SWAP2 POP PUSH2 0xBD4 DUP3 PUSH2 0xAE6 JUMP JUMPDEST PUSH1 0x25 DUP3 ADD SWAP1 POP SWAP2 SWAP1 POP JUMP JUMPDEST PUSH0 DUP2 SWAP1 POP SWAP2 SWAP1 POP JUMP JUMPDEST PUSH2 0xBF9 PUSH2 0xBF4 DUP3 PUSH2 0x3F5 JUMP JUMPDEST PUSH2 0xBDF JUMP JUMPDEST DUP3 MSTORE POP POP JUMP JUMPDEST PUSH0 DUP2 PUSH1 0x60 SHL SWAP1 POP SWAP2 SWAP1 POP JUMP JUMPDEST PUSH0 PUSH2 0xC15 DUP3 PUSH2 0xBFF JUMP JUMPDEST SWAP1 POP SWAP2 SWAP1 POP JUMP JUMPDEST PUSH0 PUSH2 0xC26 DUP3 PUSH2 0xC0B JUMP JUMPDEST SWAP1 POP SWAP2 SWAP1 POP JUMP JUMPDEST PUSH2 0xC3E PUSH2 0xC39 DUP3 PUSH2 0x447 JUMP JUMPDEST PUSH2 0xC1C JUMP JUMPDEST DUP3 MSTORE POP POP JUMP JUMPDEST PUSH0 PUSH2 0xC4E DUP3 PUSH2 0x87C JUMP JUMPDEST PUSH2 0xC58 DUP2 DUP6 PUSH2 0xBB3 JUMP JUMPDEST SWAP4 POP PUSH2 0xC68 DUP2 DUP6 PUSH1 0x20 DUP7 ADD PUSH2 0x644 JUMP JUMPDEST DUP1 DUP5 ADD SWAP2 POP POP SWAP3 SWAP2 POP POP JUMP JUMPDEST PUSH0 DUP2 SWAP1 POP SWAP3 SWAP2 POP POP JUMP JUMPDEST PUSH2 0xC87 DUP2 PUSH2 0x3F5 JUMP JUMPDEST DUP3 MSTORE POP POP JUMP JUMPDEST PUSH0 PUSH2 0xC98 DUP4 DUP4 PUSH2 0xC7E JUMP JUMPDEST PUSH1 0x20 DUP4 ADD SWAP1 POP SWAP3 SWAP2 POP POP JUMP JUMPDEST PUSH2 0xCAD DUP2 PUSH2 0x9E1 JUMP JUMPDEST PUSH2 0xCB7 DUP2 DUP5 PUSH2 0xC74 JUMP JUMPDEST SWAP3 POP PUSH2 0xCC2 DUP3 PUSH2 0x9EB JUMP JUMPDEST DUP1 PUSH0 JUMPDEST DUP4 DUP2 LT ISZERO PUSH2 0xCF9 JUMPI PUSH2 0xCD6 DUP3 PUSH2 0xA21 JUMP JUMPDEST PUSH2 0xCE0 DUP8 DUP3 PUSH2 0xC8D JUMP JUMPDEST SWAP7 POP PUSH2 0xCEB DUP4 PUSH2 0xA33 JUMP JUMPDEST SWAP3 POP POP PUSH1 0x1 DUP2 ADD SWAP1 POP PUSH2 0xCC5 JUMP JUMPDEST POP POP POP POP POP POP JUMP JUMPDEST PUSH0 PUSH2 0xD0B DUP3 PUSH2 0xBBD JUMP JUMPDEST SWAP2 POP PUSH2 0xD17 DUP3 DUP8 PUSH2 0xBE8 JUMP JUMPDEST PUSH1 0x20 DUP3 ADD SWAP2 POP PUSH2 0xD27 DUP3 DUP7 PUSH2 0xC2D JUMP JUMPDEST PUSH1 0x14 DUP3 ADD SWAP2 POP PUSH2 0xD37 DUP3 DUP6 PUSH2 0xC44 JUMP JUMPDEST SWAP2 POP PUSH2 0xD43 DUP3 DUP5 PUSH2 0xCA4 JUMP JUMPDEST PUSH1 0x40 DUP3 ADD SWAP2 POP DUP2 SWAP1 POP SWAP6 SWAP5 POP POP POP POP POP JUMP JUMPDEST PUSH0 PUSH2 0xD67 PUSH2 0xD62 DUP5 PUSH2 0x512 JUMP JUMPDEST PUSH2 0x4F8 JUMP JUMPDEST SWAP1 POP DUP3 DUP2 MSTORE PUSH1 0x20 DUP2 ADD DUP5 DUP5 DUP5 ADD GT ISZERO PUSH2 0xD83 JUMPI PUSH2 0xD82 PUSH2 0x486 JUMP JUMPDEST JUMPDEST PUSH2 0xD8E DUP5 DUP3 DUP6 PUSH2 0x644 JUMP JUMPDEST POP SWAP4 SWAP3 POP POP POP JUMP JUMPDEST PUSH0 DUP3 PUSH1 0x1F DUP4 ADD SLT PUSH2 0xDAA JUMPI PUSH2 0xDA9 PUSH2 0x482 JUMP JUMPDEST JUMPDEST DUP2 MLOAD PUSH2 0xDBA DUP5 DUP3 PUSH1 0x20 DUP7 ADD PUSH2 0xD55 JUMP JUMPDEST SWAP2 POP POP SWAP3 SWAP2 POP POP JUMP JUMPDEST PUSH0 DUP2 MLOAD SWAP1 POP PUSH2 0xDD1 DUP2 PUSH2 0x3FE JUMP JUMPDEST SWAP3 SWAP2 POP POP JUMP JUMPDEST PUSH0 PUSH2 0xDE1 DUP3 PUSH2 0x428 JUMP JUMPDEST SWAP1 POP SWAP2 SWAP1 POP JUMP JUMPDEST PUSH2 0xDF1 DUP2 PUSH2 0xDD7 JUMP JUMPDEST DUP2 EQ PUSH2 0xDFB JUMPI PUSH0 DUP1 REVERT JUMPDEST POP JUMP JUMPDEST PUSH0 DUP2 MLOAD SWAP1 POP PUSH2 0xE0C DUP2 PUSH2 0xDE8 JUMP JUMPDEST SWAP3 SWAP2 POP POP JUMP JUMPDEST PUSH0 PUSH8 0xFFFFFFFFFFFFFFFF DUP3 GT ISZERO PUSH2 0xE2C JUMPI PUSH2 0xE2B PUSH2 0x49A JUMP JUMPDEST JUMPDEST PUSH1 0x20 DUP3 MUL SWAP1 POP SWAP2 SWAP1 POP JUMP JUMPDEST PUSH0 DUP1 REVERT JUMPDEST PUSH0 PUSH2 0xE4D PUSH2 0xE48 DUP5 PUSH2 0xE12 JUMP JUMPDEST PUSH2 0x4F8 JUMP JUMPDEST SWAP1 POP DUP1 PUSH1 0x20 DUP5 MUL DUP4 ADD DUP6 DUP2 GT ISZERO PUSH2 0xE67 JUMPI PUSH2 0xE66 PUSH2 0xE37 JUMP JUMPDEST JUMPDEST DUP4 JUMPDEST DUP2 DUP2 LT ISZERO PUSH2 0xE90 JUMPI DUP1 PUSH2 0xE7C DUP9 DUP3 PUSH2 0xDC3 JUMP JUMPDEST DUP5 MSTORE PUSH1 0x20 DUP5 ADD SWAP4 POP POP PUSH1 0x20 DUP2 ADD SWAP1 POP PUSH2 0xE69 JUMP JUMPDEST POP POP POP SWAP4 SWAP3 POP POP POP JUMP JUMPDEST PUSH0 DUP3 PUSH1 0x1F DUP4 ADD SLT PUSH2 0xEAE JUMPI PUSH2 0xEAD PUSH2 0x482 JUMP JUMPDEST JUMPDEST PUSH1 0x2 PUSH2 0xEBB DUP5 DUP3 DUP6 PUSH2 0xE3B JUMP JUMPDEST SWAP2 POP POP SWAP3 SWAP2 POP POP JUMP JUMPDEST PUSH0 DUP1 PUSH0 DUP1 PUSH0 PUSH1 0xC0 DUP7 DUP9 SUB SLT ISZERO PUSH2 0xEDD JUMPI PUSH2 0xEDC PUSH2 0x3ED JUMP JUMPDEST JUMPDEST PUSH0 DUP7 ADD MLOAD PUSH8 0xFFFFFFFFFFFFFFFF DUP2 GT ISZERO PUSH2 0xEFA JUMPI PUSH2 0xEF9 PUSH2 0x3F1 JUMP JUMPDEST JUMPDEST PUSH2 0xF06 DUP9 DUP3 DUP10 ADD PUSH2 0xD96 JUMP JUMPDEST SWAP6 POP POP PUSH1 0x20 PUSH2 0xF17 DUP9 DUP3 DUP10 ADD PUSH2 0xDC3 JUMP JUMPDEST SWAP5 POP POP PUSH1 0x40 PUSH2 0xF28 DUP9 DUP3 DUP10 ADD PUSH2 0xDFE JUMP JUMPDEST SWAP4 POP POP PUSH1 0x60 DUP7 ADD MLOAD PUSH8 0xFFFFFFFFFFFFFFFF DUP2 GT ISZERO PUSH2 0xF49 JUMPI PUSH2 0xF48 PUSH2 0x3F1 JUMP JUMPDEST JUMPDEST PUSH2 0xF55 DUP9 DUP3 DUP10 ADD PUSH2 0xD96 JUMP JUMPDEST SWAP3 POP POP PUSH1 0x80 PUSH2 0xF66 DUP9 DUP3 DUP10 ADD PUSH2 0xE9A JUMP JUMPDEST SWAP2 POP POP SWAP3 SWAP6 POP SWAP3 SWAP6 SWAP1 SWAP4 POP JUMP INVALID LOG2 PUSH5 0x6970667358 0x22 SLT KECCAK256 0xEE JUMPDEST DUP11 0xCB DUP2 0xE4 KECCAK256 0xD9 0xE0 MSTORE 0xC2 DUP14 PUSH0 0x1E CALLDATALOAD SWAP16 0x2C ADDMOD 0xDC 0xB3 0xA8 0xAD 0xFC CODECOPY 0xE8 SELFDESTRUCT 0xC3 LOG2 0xDD LOG0 MCOPY 0xF8 PUSH5 0x736F6C6343 STOP ADDMOD BYTE STOP CALLER "
		},
		"gasEstimates": {
			"creation": {
				"codeDepositCost": "801800",
				"executionCost": "infinite",
				"totalCost": "infinite"
			},
			"external": {
				"arr(uint256)": "infinite",
				"decodeTest(bytes)": "infinite",
				"encodePackedTest(uint256,address,string)": "infinite",
				"encodeTest(uint256,address,string)": "infinite",
				"encodeWithSelectorTest(uint256,address,string)": "infinite",
				"encodeWithSignatureTest(uint256,address,string)": "infinite",
				"getSelector(string)": "infinite"
			}
		},
		"methodIdentifiers": {
			"arr(uint256)": "71e5ee5f",
			"decodeTest(bytes)": "bc05bc5e",
			"encodePackedTest(uint256,address,string)": "9ccd1404",
			"encodeTest(uint256,address,string)": "6d792a52",
			"encodeWithSelectorTest(uint256,address,string)": "5630581f",
			"encodeWithSignatureTest(uint256,address,string)": "d66ebcc3",
			"getSelector(string)": "80a003ff"
		}
	},
	"abi": [
		{
			"inputs": [
				{
					"internalType": "uint256",
					"name": "",
					"type": "uint256"
				}
			],
			"name": "arr",
			"outputs": [
				{
					"internalType": "uint256",
					"name": "",
					"type": "uint256"
				}
			],
			"stateMutability": "view",
			"type": "function"
		},
		{
			"inputs": [
				{
					"internalType": "bytes",
					"name": "data",
					"type": "bytes"
				}
			],
			"name": "decodeTest",
			"outputs": [
				{
					"internalType": "string",
					"name": "selector",
					"type": "string"
				},
				{
					"internalType": "uint256",
					"name": "a",
					"type": "uint256"
				},
				{
					"internalType": "address",
					"name": "b",
					"type": "address"
				},
				{
					"internalType": "string",
					"name": "c",
					"type": "string"
				},
				{
					"internalType": "uint256[2]",
					"name": "_arr",
					"type": "uint256[2]"
				}
			],
			"stateMutability": "pure",
			"type": "function"
		},
		{
			"inputs": [
				{
					"internalType": "uint256",
					"name": "a",
					"type": "uint256"
				},
				{
					"internalType": "address",
					"name": "b",
					"type": "address"
				},
				{
					"internalType": "string",
					"name": "c",
					"type": "string"
				}
			],
			"name": "encodePackedTest",
			"outputs": [
				{
					"internalType": "bytes",
					"name": "result",
					"type": "bytes"
				}
			],
			"stateMutability": "view",
			"type": "function"
		},
		{
			"inputs": [
				{
					"internalType": "uint256",
					"name": "a",
					"type": "uint256"
				},
				{
					"internalType": "address",
					"name": "b",
					"type": "address"
				},
				{
					"internalType": "string",
					"name": "c",
					"type": "string"
				}
			],
			"name": "encodeTest",
			"outputs": [
				{
					"internalType": "bytes",
					"name": "result",
					"type": "bytes"
				}
			],
			"stateMutability": "view",
			"type": "function"
		},
		{
			"inputs": [
				{
					"internalType": "uint256",
					"name": "a",
					"type": "uint256"
				},
				{
					"internalType": "address",
					"name": "b",
					"type": "address"
				},
				{
					"internalType": "string",
					"name": "c",
					"type": "string"
				}
			],
			"name": "encodeWithSelectorTest",
			"outputs": [
				{
					"internalType": "bytes",
					"name": "result",
					"type": "bytes"
				}
			],
			"stateMutability": "view",
			"type": "function"
		},
		{
			"inputs": [
				{
					"internalType": "uint256",
					"name": "a",
					"type": "uint256"
				},
				{
					"internalType": "address",
					"name": "b",
					"type": "address"
				},
				{
					"internalType": "string",
					"name": "c",
					"type": "string"
				}
			],
			"name": "encodeWithSignatureTest",
			"outputs": [
				{
					"internalType": "bytes",
					"name": "result",
					"type": "bytes"
				}
			],
			"stateMutability": "view",
			"type": "function"
		},
		{
			"inputs": [
				{
					"internalType": "string",
					"name": "methodSign",
					"type": "string"
				}
			],
			"name": "getSelector",
			"outputs": [
				{
					"internalType": "bytes4",
					"name": "selector",
					"type": "bytes4"
				}
			],
			"stateMutability": "pure",
			"type": "function"
		}
	]
}