{
	"data": {
		"bytecode": {
			"linkReferences": {},
			"object": "6080604052348015600e575f80fd5b506107218061001c5f395ff3fe608060405234801561000f575f80fd5b5060043610610055575f3560e01c80637ef4152d14610059578063890d465114610089578063974deba1146100a7578063eabf0507146100d7578063f7f2e22214610107575b5f80fd5b610073600480360381019061006e9190610477565b610137565b6040516100809190610512565b60405180910390f35b6100916101d3565b60405161009e9190610512565b60405180910390f35b6100c160048036038101906100bc9190610477565b610262565b6040516100ce9190610512565b60405180910390f35b6100f160048036038101906100ec9190610477565b6102fe565b6040516100fe9190610512565b60405180910390f35b610121600480360381019061011c91906105ed565b61039a565b60405161012e9190610512565b60405180910390f35b60605f8260405160240161014b9190610659565b6040516020818303038152906040527fb7b0422d000000000000000000000000000000000000000000000000000000007bffffffffffffffffffffffffffffffffffffffffffffffffffffffff19166020820180517bffffffffffffffffffffffffffffffffffffffffffffffffffffffff8381831617835250505050905080915050919050565b60605f6040516024016040516020818303038152906040527f67e0badb000000000000000000000000000000000000000000000000000000007bffffffffffffffffffffffffffffffffffffffffffffffffffffffff19166020820180517bffffffffffffffffffffffffffffffffffffffffffffffffffffffff838183161783525050505090508091505090565b60605f826040516024016102769190610659565b6040516020818303038152906040527f93cae472000000000000000000000000000000000000000000000000000000007bffffffffffffffffffffffffffffffffffffffffffffffffffffffff19166020820180517bffffffffffffffffffffffffffffffffffffffffffffffffffffffff8381831617835250505050905080915050919050565b60605f826040516024016103129190610659565b6040516020818303038152906040527fcd16ecbf000000000000000000000000000000000000000000000000000000007bffffffffffffffffffffffffffffffffffffffffffffffffffffffff19166020820180517bffffffffffffffffffffffffffffffffffffffffffffffffffffffff8381831617835250505050905080915050919050565b60605f8484846040516024016103b2939291906106bb565b6040516020818303038152906040527f4f1ef286000000000000000000000000000000000000000000000000000000007bffffffffffffffffffffffffffffffffffffffffffffffffffffffff19166020820180517bffffffffffffffffffffffffffffffffffffffffffffffffffffffff83818316178352505050509050809150509392505050565b5f80fd5b5f80fd5b5f819050919050565b61045681610444565b8114610460575f80fd5b50565b5f813590506104718161044d565b92915050565b5f6020828403121561048c5761048b61043c565b5b5f61049984828501610463565b91505092915050565b5f81519050919050565b5f82825260208201905092915050565b8281835e5f83830152505050565b5f601f19601f8301169050919050565b5f6104e4826104a2565b6104ee81856104ac565b93506104fe8185602086016104bc565b610507816104ca565b840191505092915050565b5f6020820190508181035f83015261052a81846104da565b905092915050565b5f73ffffffffffffffffffffffffffffffffffffffff82169050919050565b5f61055b82610532565b9050919050565b61056b81610551565b8114610575575f80fd5b50565b5f8135905061058681610562565b92915050565b5f80fd5b5f80fd5b5f80fd5b5f8083601f8401126105ad576105ac61058c565b5b8235905067ffffffffffffffff8111156105ca576105c9610590565b5b6020830191508360018202830111156105e6576105e5610594565b5b9250929050565b5f805f604084860312156106045761060361043c565b5b5f61061186828701610578565b935050602084013567ffffffffffffffff81111561063257610631610440565b5b61063e86828701610598565b92509250509250925092565b61065381610444565b82525050565b5f60208201905061066c5f83018461064a565b92915050565b61067b81610551565b82525050565b828183375f83830152505050565b5f61069a83856104ac565b93506106a7838584610681565b6106b0836104ca565b840190509392505050565b5f6040820190506106ce5f830186610672565b81810360208301526106e181848661068f565b905094935050505056fea2646970667358221220f8610cd974592aef3699a93fcc1ade3b18bfd92517efd5bf1103c857c803698464736f6c634300081a0033",
			"opcodes": "PUSH1 0x80 PUSH1 0x40 MSTORE CALLVALUE DUP1 ISZERO PUSH1 0xE JUMPI PUSH0 DUP1 REVERT JUMPDEST POP PUSH2 0x721 DUP1 PUSH2 0x1C PUSH0 CODECOPY PUSH0 RETURN INVALID PUSH1 0x80 PUSH1 0x40 MSTORE CALLVALUE DUP1 ISZERO PUSH2 0xF JUMPI PUSH0 DUP1 REVERT JUMPDEST POP PUSH1 0x4 CALLDATASIZE LT PUSH2 0x55 JUMPI PUSH0 CALLDATALOAD PUSH1 0xE0 SHR DUP1 PUSH4 0x7EF4152D EQ PUSH2 0x59 JUMPI DUP1 PUSH4 0x890D4651 EQ PUSH2 0x89 JUMPI DUP1 PUSH4 0x974DEBA1 EQ PUSH2 0xA7 JUMPI DUP1 PUSH4 0xEABF0507 EQ PUSH2 0xD7 JUMPI DUP1 PUSH4 0xF7F2E222 EQ PUSH2 0x107 JUMPI JUMPDEST PUSH0 DUP1 REVERT JUMPDEST PUSH2 0x73 PUSH1 0x4 DUP1 CALLDATASIZE SUB DUP2 ADD SWAP1 PUSH2 0x6E SWAP2 SWAP1 PUSH2 0x477 JUMP JUMPDEST PUSH2 0x137 JUMP JUMPDEST PUSH1 0x40 MLOAD PUSH2 0x80 SWAP2 SWAP1 PUSH2 0x512 JUMP JUMPDEST PUSH1 0x40 MLOAD DUP1 SWAP2 SUB SWAP1 RETURN JUMPDEST PUSH2 0x91 PUSH2 0x1D3 JUMP JUMPDEST PUSH1 0x40 MLOAD PUSH2 0x9E SWAP2 SWAP1 PUSH2 0x512 JUMP JUMPDEST PUSH1 0x40 MLOAD DUP1 SWAP2 SUB SWAP1 RETURN JUMPDEST PUSH2 0xC1 PUSH1 0x4 DUP1 CALLDATASIZE SUB DUP2 ADD SWAP1 PUSH2 0xBC SWAP2 SWAP1 PUSH2 0x477 JUMP JUMPDEST PUSH2 0x262 JUMP JUMPDEST PUSH1 0x40 MLOAD PUSH2 0xCE SWAP2 SWAP1 PUSH2 0x512 JUMP JUMPDEST PUSH1 0x40 MLOAD DUP1 SWAP2 SUB SWAP1 RETURN JUMPDEST PUSH2 0xF1 PUSH1 0x4 DUP1 CALLDATASIZE SUB DUP2 ADD SWAP1 PUSH2 0xEC SWAP2 SWAP1 PUSH2 0x477 JUMP JUMPDEST PUSH2 0x2FE JUMP JUMPDEST PUSH1 0x40 MLOAD PUSH2 0xFE SWAP2 SWAP1 PUSH2 0x512 JUMP JUMPDEST PUSH1 0x40 MLOAD DUP1 SWAP2 SUB SWAP1 RETURN JUMPDEST PUSH2 0x121 PUSH1 0x4 DUP1 CALLDATASIZE SUB DUP2 ADD SWAP1 PUSH2 0x11C SWAP2 SWAP1 PUSH2 0x5ED JUMP JUMPDEST PUSH2 0x39A JUMP JUMPDEST PUSH1 0x40 MLOAD PUSH2 0x12E SWAP2 SWAP1 PUSH2 0x512 JUMP JUMPDEST PUSH1 0x40 MLOAD DUP1 SWAP2 SUB SWAP1 RETURN JUMPDEST PUSH1 0x60 PUSH0 DUP3 PUSH1 0x40 MLOAD PUSH1 0x24 ADD PUSH2 0x14B SWAP2 SWAP1 PUSH2 0x659 JUMP JUMPDEST PUSH1 0x40 MLOAD PUSH1 0x20 DUP2 DUP4 SUB SUB DUP2 MSTORE SWAP1 PUSH1 0x40 MSTORE PUSH32 0xB7B0422D00000000000000000000000000000000000000000000000000000000 PUSH28 0xFFFFFFFFFFFFFFFFFFFFFFFFFFFFFFFFFFFFFFFFFFFFFFFFFFFFFFFF NOT AND PUSH1 0x20 DUP3 ADD DUP1 MLOAD PUSH28 0xFFFFFFFFFFFFFFFFFFFFFFFFFFFFFFFFFFFFFFFFFFFFFFFFFFFFFFFF DUP4 DUP2 DUP4 AND OR DUP4 MSTORE POP POP POP POP SWAP1 POP DUP1 SWAP2 POP POP SWAP2 SWAP1 POP JUMP JUMPDEST PUSH1 0x60 PUSH0 PUSH1 0x40 MLOAD PUSH1 0x24 ADD PUSH1 0x40 MLOAD PUSH1 0x20 DUP2 DUP4 SUB SUB DUP2 MSTORE SWAP1 PUSH1 0x40 MSTORE PUSH32 0x67E0BADB00000000000000000000000000000000000000000000000000000000 PUSH28 0xFFFFFFFFFFFFFFFFFFFFFFFFFFFFFFFFFFFFFFFFFFFFFFFFFFFFFFFF NOT AND PUSH1 0x20 DUP3 ADD DUP1 MLOAD PUSH28 0xFFFFFFFFFFFFFFFFFFFFFFFFFFFFFFFFFFFFFFFFFFFFFFFFFFFFFFFF DUP4 DUP2 DUP4 AND OR DUP4 MSTORE POP POP POP POP SWAP1 POP DUP1 SWAP2 POP POP SWAP1 JUMP JUMPDEST PUSH1 0x60 PUSH0 DUP3 PUSH1 0x40 MLOAD PUSH1 0x24 ADD PUSH2 0x276 SWAP2 SWAP1 PUSH2 0x659 JUMP JUMPDEST PUSH1 0x40 MLOAD PUSH1 0x20 DUP2 DUP4 SUB SUB DUP2 MSTORE SWAP1 PUSH1 0x40 MSTORE PUSH32 0x93CAE47200000000000000000000000000000000000000000000000000000000 PUSH28 0xFFFFFFFFFFFFFFFFFFFFFFFFFFFFFFFFFFFFFFFFFFFFFFFFFFFFFFFF NOT AND PUSH1 0x20 DUP3 ADD DUP1 MLOAD PUSH28 0xFFFFFFFFFFFFFFFFFFFFFFFFFFFFFFFFFFFFFFFFFFFFFFFFFFFFFFFF DUP4 DUP2 DUP4 AND OR DUP4 MSTORE POP POP POP POP SWAP1 POP DUP1 SWAP2 POP POP SWAP2 SWAP1 POP JUMP JUMPDEST PUSH1 0x60 PUSH0 DUP3 PUSH1 0x40 MLOAD PUSH1 0x24 ADD PUSH2 0x312 SWAP2 SWAP1 PUSH2 0x659 JUMP JUMPDEST PUSH1 0x40 MLOAD PUSH1 0x20 DUP2 DUP4 SUB SUB DUP2 MSTORE SWAP1 PUSH1 0x40 MSTORE PUSH32 0xCD16ECBF00000000000000000000000000000000000000000000000000000000 PUSH28 0xFFFFFFFFFFFFFFFFFFFFFFFFFFFFFFFFFFFFFFFFFFFFFFFFFFFFFFFF NOT AND PUSH1 0x20 DUP3 ADD DUP1 MLOAD PUSH28 0xFFFFFFFFFFFFFFFFFFFFFFFFFFFFFFFFFFFFFFFFFFFFFFFFFFFFFFFF DUP4 DUP2 DUP4 AND OR DUP4 MSTORE POP POP POP POP SWAP1 POP DUP1 SWAP2 POP POP SWAP2 SWAP1 POP JUMP JUMPDEST PUSH1 0x60 PUSH0 DUP5 DUP5 DUP5 PUSH1 0x40 MLOAD PUSH1 0x24 ADD PUSH2 0x3B2 SWAP4 SWAP3 SWAP2 SWAP1 PUSH2 0x6BB JUMP JUMPDEST PUSH1 0x40 MLOAD PUSH1 0x20 DUP2 DUP4 SUB SUB DUP2 MSTORE SWAP1 PUSH1 0x40 MSTORE PUSH32 0x4F1EF28600000000000000000000000000000000000000000000000000000000 PUSH28 0xFFFFFFFFFFFFFFFFFFFFFFFFFFFFFFFFFFFFFFFFFFFFFFFFFFFFFFFF NOT AND PUSH1 0x20 DUP3 ADD DUP1 MLOAD PUSH28 0xFFFFFFFFFFFFFFFFFFFFFFFFFFFFFFFFFFFFFFFFFFFFFFFFFFFFFFFF DUP4 DUP2 DUP4 AND OR DUP4 MSTORE POP POP POP POP SWAP1 POP DUP1 SWAP2 POP POP SWAP4 SWAP3 POP POP POP JUMP JUMPDEST PUSH0 DUP1 REVERT JUMPDEST PUSH0 DUP1 REVERT JUMPDEST PUSH0 DUP2 SWAP1 POP SWAP2 SWAP1 POP JUMP JUMPDEST PUSH2 0x456 DUP2 PUSH2 0x444 JUMP JUMPDEST DUP2 EQ PUSH2 0x460 JUMPI PUSH0 DUP1 REVERT JUMPDEST POP JUMP JUMPDEST PUSH0 DUP2 CALLDATALOAD SWAP1 POP PUSH2 0x471 DUP2 PUSH2 0x44D JUMP JUMPDEST SWAP3 SWAP2 POP POP JUMP JUMPDEST PUSH0 PUSH1 0x20 DUP3 DUP5 SUB SLT ISZERO PUSH2 0x48C JUMPI PUSH2 0x48B PUSH2 0x43C JUMP JUMPDEST JUMPDEST PUSH0 PUSH2 0x499 DUP5 DUP3 DUP6 ADD PUSH2 0x463 JUMP JUMPDEST SWAP2 POP POP SWAP3 SWAP2 POP POP JUMP JUMPDEST PUSH0 DUP2 MLOAD SWAP1 POP SWAP2 SWAP1 POP JUMP JUMPDEST PUSH0 DUP3 DUP3 MSTORE PUSH1 0x20 DUP3 ADD SWAP1 POP SWAP3 SWAP2 POP POP JUMP JUMPDEST DUP3 DUP2 DUP4 MCOPY PUSH0 DUP4 DUP4 ADD MSTORE POP POP POP JUMP JUMPDEST PUSH0 PUSH1 0x1F NOT PUSH1 0x1F DUP4 ADD AND SWAP1 POP SWAP2 SWAP1 POP JUMP JUMPDEST PUSH0 PUSH2 0x4E4 DUP3 PUSH2 0x4A2 JUMP JUMPDEST PUSH2 0x4EE DUP2 DUP6 PUSH2 0x4AC JUMP JUMPDEST SWAP4 POP PUSH2 0x4FE DUP2 DUP6 PUSH1 0x20 DUP7 ADD PUSH2 0x4BC JUMP JUMPDEST PUSH2 0x507 DUP2 PUSH2 0x4CA JUMP JUMPDEST DUP5 ADD SWAP2 POP POP SWAP3 SWAP2 POP POP JUMP JUMPDEST PUSH0 PUSH1 0x20 DUP3 ADD SWAP1 POP DUP2 DUP2 SUB PUSH0 DUP4 ADD MSTORE PUSH2 0x52A DUP2 DUP5 PUSH2 0x4DA JUMP JUMPDEST SWAP1 POP SWAP3 SWAP2 POP POP JUMP JUMPDEST PUSH0 PUSH20 0xFFFFFFFFFFFFFFFFFFFFFFFFFFFFFFFFFFFFFFFF DUP3 AND SWAP1 POP SWAP2 SWAP1 POP JUMP JUMPDEST PUSH0 PUSH2 0x55B DUP3 PUSH2 0x532 JUMP JUMPDEST SWAP1 POP SWAP2 SWAP1 POP JUMP JUMPDEST PUSH2 0x56B DUP2 PUSH2 0x551 JUMP JUMPDEST DUP2 EQ PUSH2 0x575 JUMPI PUSH0 DUP1 REVERT JUMPDEST POP JUMP JUMPDEST PUSH0 DUP2 CALLDATALOAD SWAP1 POP PUSH2 0x586 DUP2 PUSH2 0x562 JUMP JUMPDEST SWAP3 SWAP2 POP POP JUMP JUMPDEST PUSH0 DUP1 REVERT JUMPDEST PUSH0 DUP1 REVERT JUMPDEST PUSH0 DUP1 REVERT JUMPDEST PUSH0 DUP1 DUP4 PUSH1 0x1F DUP5 ADD SLT PUSH2 0x5AD JUMPI PUSH2 0x5AC PUSH2 0x58C JUMP JUMPDEST JUMPDEST DUP3 CALLDATALOAD SWAP1 POP PUSH8 0xFFFFFFFFFFFFFFFF DUP2 GT ISZERO PUSH2 0x5CA JUMPI PUSH2 0x5C9 PUSH2 0x590 JUMP JUMPDEST JUMPDEST PUSH1 0x20 DUP4 ADD SWAP2 POP DUP4 PUSH1 0x1 DUP3 MUL DUP4 ADD GT ISZERO PUSH2 0x5E6 JUMPI PUSH2 0x5E5 PUSH2 0x594 JUMP JUMPDEST JUMPDEST SWAP3 POP SWAP3 SWAP1 POP JUMP JUMPDEST PUSH0 DUP1 PUSH0 PUSH1 0x40 DUP5 DUP7 SUB SLT ISZERO PUSH2 0x604 JUMPI PUSH2 0x603 PUSH2 0x43C JUMP JUMPDEST JUMPDEST PUSH0 PUSH2 0x611 DUP7 DUP3 DUP8 ADD PUSH2 0x578 JUMP JUMPDEST SWAP4 POP POP PUSH1 0x20 DUP5 ADD CALLDATALOAD PUSH8 0xFFFFFFFFFFFFFFFF DUP2 GT ISZERO PUSH2 0x632 JUMPI PUSH2 0x631 PUSH2 0x440 JUMP JUMPDEST JUMPDEST PUSH2 0x63E DUP7 DUP3 DUP8 ADD PUSH2 0x598 JUMP JUMPDEST SWAP3 POP SWAP3 POP POP SWAP3 POP SWAP3 POP SWAP3 JUMP JUMPDEST PUSH2 0x653 DUP2 PUSH2 0x444 JUMP JUMPDEST DUP3 MSTORE POP POP JUMP JUMPDEST PUSH0 PUSH1 0x20 DUP3 ADD SWAP1 POP PUSH2 0x66C PUSH0 DUP4 ADD DUP5 PUSH2 0x64A JUMP JUMPDEST SWAP3 SWAP2 POP POP JUMP JUMPDEST PUSH2 0x67B DUP2 PUSH2 0x551 JUMP JUMPDEST DUP3 MSTORE POP POP JUMP JUMPDEST DUP3 DUP2 DUP4 CALLDATACOPY PUSH0 DUP4 DUP4 ADD MSTORE POP POP POP JUMP JUMPDEST PUSH0 PUSH2 0x69A DUP4 DUP6 PUSH2 0x4AC JUMP JUMPDEST SWAP4 POP PUSH2 0x6A7 DUP4 DUP6 DUP5 PUSH2 0x681 JUMP JUMPDEST PUSH2 0x6B0 DUP4 PUSH2 0x4CA JUMP JUMPDEST DUP5 ADD SWAP1 POP SWAP4 SWAP3 POP POP POP JUMP JUMPDEST PUSH0 PUSH1 0x40 DUP3 ADD SWAP1 POP PUSH2 0x6CE PUSH0 DUP4 ADD DUP7 PUSH2 0x672 JUMP JUMPDEST DUP2 DUP2 SUB PUSH1 0x20 DUP4 ADD MSTORE PUSH2 0x6E1 DUP2 DUP5 DUP7 PUSH2 0x68F JUMP JUMPDEST SWAP1 POP SWAP5 SWAP4 POP POP POP POP JUMP INVALID LOG2 PUSH5 0x6970667358 0x22 SLT KECCAK256 0xF8 PUSH2 0xCD9 PUSH21 0x592AEF3699A93FCC1ADE3B18BFD92517EFD5BF1103 0xC8 JUMPI 0xC8 SUB PUSH10 0x8464736F6C634300081A STOP CALLER "
		},
		"gasEstimates": {
			"creation": {
				"codeDepositCost": "365000",
				"executionCost": "403",
				"totalCost": "365403"
			},
			"external": {
				"generateGetNum()": "infinite",
				"generateInit(uint256)": "infinite",
				"generateInitTwo(uint256)": "infinite",
				"generateSetNum(uint256)": "infinite",
				"generateUpgradeToAndCall(address,bytes)": "infinite"
			}
		},
		"methodIdentifiers": {
			"generateGetNum()": "890d4651",
			"generateInit(uint256)": "7ef4152d",
			"generateInitTwo(uint256)": "974deba1",
			"generateSetNum(uint256)": "eabf0507",
			"generateUpgradeToAndCall(address,bytes)": "f7f2e222"
		}
	},
	"abi": [
		{
			"inputs": [],
			"name": "generateGetNum",
			"outputs": [
				{
					"internalType": "bytes",
					"name": "",
					"type": "bytes"
				}
			],
			"stateMutability": "pure",
			"type": "function"
		},
		{
			"inputs": [
				{
					"internalType": "uint256",
					"name": "_num",
					"type": "uint256"
				}
			],
			"name": "generateInit",
			"outputs": [
				{
					"internalType": "bytes",
					"name": "",
					"type": "bytes"
				}
			],
			"stateMutability": "pure",
			"type": "function"
		},
		{
			"inputs": [
				{
					"internalType": "uint256",
					"name": "_num",
					"type": "uint256"
				}
			],
			"name": "generateInitTwo",
			"outputs": [
				{
					"internalType": "bytes",
					"name": "",
					"type": "bytes"
				}
			],
			"stateMutability": "pure",
			"type": "function"
		},
		{
			"inputs": [
				{
					"internalType": "uint256",
					"name": "_num",
					"type": "uint256"
				}
			],
			"name": "generateSetNum",
			"outputs": [
				{
					"internalType": "bytes",
					"name": "",
					"type": "bytes"
				}
			],
			"stateMutability": "pure",
			"type": "function"
		},
		{
			"inputs": [
				{
					"internalType": "address",
					"name": "newImplementation",
					"type": "address"
				},
				{
					"internalType": "bytes",
					"name": "data",
					"type": "bytes"
				}
			],
			"name": "generateUpgradeToAndCall",
			"outputs": [
				{
					"internalType": "bytes",
					"name": "",
					"type": "bytes"
				}
			],
			"stateMutability": "pure",
			"type": "function"
		}
	]
}