{
	"data": {
		"bytecode": {
			"linkReferences": {},
			"object": "6080604052610303806100115f395ff3fe608060405260043610610028575f3560e01c8063645a8a561461002c578063edca914c14610068575b5f80fd5b348015610037575f80fd5b50610052600480360381019061004d9190610199565b610086565b60405161005f91906101dc565b60405180910390f35b61007061009a565b60405161007d91906101dc565b60405180910390f35b5f602052805f5260405f205f915090505481565b5f8034116100dd576040517f08c379a00000000000000000000000000000000000000000000000000000000081526004016100d49061024f565b60405180910390fd5b5f633b9aca00346100ee919061029a565b90503373ffffffffffffffffffffffffffffffffffffffff166108fc8290811502906040515f60405180830381858888f19350505050158015610133573d5f803e3d5ffd5b508091505090565b5f80fd5b5f73ffffffffffffffffffffffffffffffffffffffff82169050919050565b5f6101688261013f565b9050919050565b6101788161015e565b8114610182575f80fd5b50565b5f813590506101938161016f565b92915050565b5f602082840312156101ae576101ad61013b565b5b5f6101bb84828501610185565b91505092915050565b5f819050919050565b6101d6816101c4565b82525050565b5f6020820190506101ef5f8301846101cd565b92915050565b5f82825260208201905092915050565b7f796f752063616e206e6f742067697665206e6f7468696e6700000000000000005f82015250565b5f6102396018836101f5565b915061024482610205565b602082019050919050565b5f6020820190508181035f8301526102668161022d565b9050919050565b7f4e487b71000000000000000000000000000000000000000000000000000000005f52601160045260245ffd5b5f6102a4826101c4565b91506102af836101c4565b92508282019050808211156102c7576102c661026d565b5b9291505056fea2646970667358221220f61ac3d175b14c67e0b484628074fe1daaf20ce913d759bacba909c48b91348e64736f6c634300081a0033",
			"opcodes": "PUSH1 0x80 PUSH1 0x40 MSTORE PUSH2 0x303 DUP1 PUSH2 0x11 PUSH0 CODECOPY PUSH0 RETURN INVALID PUSH1 0x80 PUSH1 0x40 MSTORE PUSH1 0x4 CALLDATASIZE LT PUSH2 0x28 JUMPI PUSH0 CALLDATALOAD PUSH1 0xE0 SHR DUP1 PUSH4 0x645A8A56 EQ PUSH2 0x2C JUMPI DUP1 PUSH4 0xEDCA914C EQ PUSH2 0x68 JUMPI JUMPDEST PUSH0 DUP1 REVERT JUMPDEST CALLVALUE DUP1 ISZERO PUSH2 0x37 JUMPI PUSH0 DUP1 REVERT JUMPDEST POP PUSH2 0x52 PUSH1 0x4 DUP1 CALLDATASIZE SUB DUP2 ADD SWAP1 PUSH2 0x4D SWAP2 SWAP1 PUSH2 0x199 JUMP JUMPDEST PUSH2 0x86 JUMP JUMPDEST PUSH1 0x40 MLOAD PUSH2 0x5F SWAP2 SWAP1 PUSH2 0x1DC JUMP JUMPDEST PUSH1 0x40 MLOAD DUP1 SWAP2 SUB SWAP1 RETURN JUMPDEST PUSH2 0x70 PUSH2 0x9A JUMP JUMPDEST PUSH1 0x40 MLOAD PUSH2 0x7D SWAP2 SWAP1 PUSH2 0x1DC JUMP JUMPDEST PUSH1 0x40 MLOAD DUP1 SWAP2 SUB SWAP1 RETURN JUMPDEST PUSH0 PUSH1 0x20 MSTORE DUP1 PUSH0 MSTORE PUSH1 0x40 PUSH0 KECCAK256 PUSH0 SWAP2 POP SWAP1 POP SLOAD DUP2 JUMP JUMPDEST PUSH0 DUP1 CALLVALUE GT PUSH2 0xDD JUMPI PUSH1 0x40 MLOAD PUSH32 0x8C379A000000000000000000000000000000000000000000000000000000000 DUP2 MSTORE PUSH1 0x4 ADD PUSH2 0xD4 SWAP1 PUSH2 0x24F JUMP JUMPDEST PUSH1 0x40 MLOAD DUP1 SWAP2 SUB SWAP1 REVERT JUMPDEST PUSH0 PUSH4 0x3B9ACA00 CALLVALUE PUSH2 0xEE SWAP2 SWAP1 PUSH2 0x29A JUMP JUMPDEST SWAP1 POP CALLER PUSH20 0xFFFFFFFFFFFFFFFFFFFFFFFFFFFFFFFFFFFFFFFF AND PUSH2 0x8FC DUP3 SWAP1 DUP2 ISZERO MUL SWAP1 PUSH1 0x40 MLOAD PUSH0 PUSH1 0x40 MLOAD DUP1 DUP4 SUB DUP2 DUP6 DUP9 DUP9 CALL SWAP4 POP POP POP POP ISZERO DUP1 ISZERO PUSH2 0x133 JUMPI RETURNDATASIZE PUSH0 DUP1 RETURNDATACOPY RETURNDATASIZE PUSH0 REVERT JUMPDEST POP DUP1 SWAP2 POP POP SWAP1 JUMP JUMPDEST PUSH0 DUP1 REVERT JUMPDEST PUSH0 PUSH20 0xFFFFFFFFFFFFFFFFFFFFFFFFFFFFFFFFFFFFFFFF DUP3 AND SWAP1 POP SWAP2 SWAP1 POP JUMP JUMPDEST PUSH0 PUSH2 0x168 DUP3 PUSH2 0x13F JUMP JUMPDEST SWAP1 POP SWAP2 SWAP1 POP JUMP JUMPDEST PUSH2 0x178 DUP2 PUSH2 0x15E JUMP JUMPDEST DUP2 EQ PUSH2 0x182 JUMPI PUSH0 DUP1 REVERT JUMPDEST POP JUMP JUMPDEST PUSH0 DUP2 CALLDATALOAD SWAP1 POP PUSH2 0x193 DUP2 PUSH2 0x16F JUMP JUMPDEST SWAP3 SWAP2 POP POP JUMP JUMPDEST PUSH0 PUSH1 0x20 DUP3 DUP5 SUB SLT ISZERO PUSH2 0x1AE JUMPI PUSH2 0x1AD PUSH2 0x13B JUMP JUMPDEST JUMPDEST PUSH0 PUSH2 0x1BB DUP5 DUP3 DUP6 ADD PUSH2 0x185 JUMP JUMPDEST SWAP2 POP POP SWAP3 SWAP2 POP POP JUMP JUMPDEST PUSH0 DUP2 SWAP1 POP SWAP2 SWAP1 POP JUMP JUMPDEST PUSH2 0x1D6 DUP2 PUSH2 0x1C4 JUMP JUMPDEST DUP3 MSTORE POP POP JUMP JUMPDEST PUSH0 PUSH1 0x20 DUP3 ADD SWAP1 POP PUSH2 0x1EF PUSH0 DUP4 ADD DUP5 PUSH2 0x1CD JUMP JUMPDEST SWAP3 SWAP2 POP POP JUMP JUMPDEST PUSH0 DUP3 DUP3 MSTORE PUSH1 0x20 DUP3 ADD SWAP1 POP SWAP3 SWAP2 POP POP JUMP JUMPDEST PUSH32 0x796F752063616E206E6F742067697665206E6F7468696E670000000000000000 PUSH0 DUP3 ADD MSTORE POP JUMP JUMPDEST PUSH0 PUSH2 0x239 PUSH1 0x18 DUP4 PUSH2 0x1F5 JUMP JUMPDEST SWAP2 POP PUSH2 0x244 DUP3 PUSH2 0x205 JUMP JUMPDEST PUSH1 0x20 DUP3 ADD SWAP1 POP SWAP2 SWAP1 POP JUMP JUMPDEST PUSH0 PUSH1 0x20 DUP3 ADD SWAP1 POP DUP2 DUP2 SUB PUSH0 DUP4 ADD MSTORE PUSH2 0x266 DUP2 PUSH2 0x22D JUMP JUMPDEST SWAP1 POP SWAP2 SWAP1 POP JUMP JUMPDEST PUSH32 0x4E487B7100000000000000000000000000000000000000000000000000000000 PUSH0 MSTORE PUSH1 0x11 PUSH1 0x4 MSTORE PUSH1 0x24 PUSH0 REVERT JUMPDEST PUSH0 PUSH2 0x2A4 DUP3 PUSH2 0x1C4 JUMP JUMPDEST SWAP2 POP PUSH2 0x2AF DUP4 PUSH2 0x1C4 JUMP JUMPDEST SWAP3 POP DUP3 DUP3 ADD SWAP1 POP DUP1 DUP3 GT ISZERO PUSH2 0x2C7 JUMPI PUSH2 0x2C6 PUSH2 0x26D JUMP JUMPDEST JUMPDEST SWAP3 SWAP2 POP POP JUMP INVALID LOG2 PUSH5 0x6970667358 0x22 SLT KECCAK256 0xF6 BYTE 0xC3 0xD1 PUSH22 0xB14C67E0B484628074FE1DAAF20CE913D759BACBA909 0xC4 DUP12 SWAP2 CALLVALUE DUP15 PUSH5 0x736F6C6343 STOP ADDMOD BYTE STOP CALLER "
		},
		"gasEstimates": {
			"creation": {
				"codeDepositCost": "154200",
				"executionCost": "176",
				"totalCost": "154376"
			},
			"external": {
				"buyTicket()": "infinite",
				"rewardAmount(address)": "2779"
			}
		},
		"methodIdentifiers": {
			"buyTicket()": "edca914c",
			"rewardAmount(address)": "645a8a56"
		}
	},
	"abi": [
		{
			"inputs": [],
			"stateMutability": "payable",
			"type": "constructor"
		},
		{
			"inputs": [],
			"name": "buyTicket",
			"outputs": [
				{
					"internalType": "uint256",
					"name": "",
					"type": "uint256"
				}
			],
			"stateMutability": "payable",
			"type": "function"
		},
		{
			"inputs": [
				{
					"internalType": "address",
					"name": "",
					"type": "address"
				}
			],
			"name": "rewardAmount",
			"outputs": [
				{
					"internalType": "uint256",
					"name": "",
					"type": "uint256"
				}
			],
			"stateMutability": "view",
			"type": "function"
		}
	]
}