{
	"data": {
		"bytecode": {
			"linkReferences": {},
			"object": "6080604052610536806100115f395ff3fe608060405260043610610033575f3560e01c806312065fe0146100375780632b68b9c614610061578063f4c61bab14610077575b5f80fd5b348015610042575f80fd5b5061004b610095565b60405161005891906102b1565b60405180910390f35b34801561006c575f80fd5b5061007561009c565b005b61007f6100b5565b60405161008c9190610358565b60405180910390f35b5f47905090565b3373ffffffffffffffffffffffffffffffffffffffff16ff5b6100bd610258565b5f346040516100cb9061028c565b6040518091039082f09050801580156100e6573d5f803e3d5ffd5b5090505f60405180606001604052808373ffffffffffffffffffffffffffffffffffffffff1681526020018373ffffffffffffffffffffffffffffffffffffffff166312065fe06040518163ffffffff1660e01b8152600401602060405180830381865afa15801561015a573d5f803e3d5ffd5b505050506040513d601f19601f8201168201806040525081019061017e919061039f565b81526020018373ffffffffffffffffffffffffffffffffffffffff16633fa4f2456040518163ffffffff1660e01b8152600401602060405180830381865afa1580156101cc573d5f803e3d5ffd5b505050506040513d601f19601f820116820180604052508101906101f0919061039f565b81525090508173ffffffffffffffffffffffffffffffffffffffff16632b68b9c66040518163ffffffff1660e01b81526004015f604051808303815f87803b15801561023a575f80fd5b505af115801561024c573d5f803e3d5ffd5b50505050809250505090565b60405180606001604052805f73ffffffffffffffffffffffffffffffffffffffff1681526020015f81526020015f81525090565b610136806103cb83390190565b5f819050919050565b6102ab81610299565b82525050565b5f6020820190506102c45f8301846102a2565b92915050565b5f73ffffffffffffffffffffffffffffffffffffffff82169050919050565b5f6102f3826102ca565b9050919050565b610303816102e9565b82525050565b61031281610299565b82525050565b606082015f82015161032c5f8501826102fa565b50602082015161033f6020850182610309565b5060408201516103526040850182610309565b50505050565b5f60608201905061036b5f830184610318565b92915050565b5f80fd5b61037e81610299565b8114610388575f80fd5b50565b5f8151905061039981610375565b92915050565b5f602082840312156103b4576103b3610371565b5b5f6103c18482850161038b565b9150509291505056fe6080604052600a5f55610121806100155f395ff3fe6080604052600436106032575f3560e01c806312065fe014603c5780632b68b9c61460615780633fa4f245146074576038565b36603857005b5f80fd5b3480156046575f80fd5b50604d6099565b6040516058919060d4565b60405180910390f35b348015606b575f80fd5b50607260a0565b005b348015607e575f80fd5b50608560b9565b6040516090919060d4565b60405180910390f35b5f47905090565b3373ffffffffffffffffffffffffffffffffffffffff16ff5b5f5481565b5f819050919050565b60ce8160be565b82525050565b5f60208201905060e55f83018460c7565b9291505056fea264697066735822122002891323fe4254f97ac462f9c959a3f8c55feacc95c26bb8fc30e45372cf44ca64736f6c634300081a0033a264697066735822122074364dc76e94c1c79256d3e56c0cc16b64b206bd404be62f98b2dfec5682f23464736f6c634300081a0033",
			"opcodes": "PUSH1 0x80 PUSH1 0x40 MSTORE PUSH2 0x536 DUP1 PUSH2 0x11 PUSH0 CODECOPY PUSH0 RETURN INVALID PUSH1 0x80 PUSH1 0x40 MSTORE PUSH1 0x4 CALLDATASIZE LT PUSH2 0x33 JUMPI PUSH0 CALLDATALOAD PUSH1 0xE0 SHR DUP1 PUSH4 0x12065FE0 EQ PUSH2 0x37 JUMPI DUP1 PUSH4 0x2B68B9C6 EQ PUSH2 0x61 JUMPI DUP1 PUSH4 0xF4C61BAB EQ PUSH2 0x77 JUMPI JUMPDEST PUSH0 DUP1 REVERT JUMPDEST CALLVALUE DUP1 ISZERO PUSH2 0x42 JUMPI PUSH0 DUP1 REVERT JUMPDEST POP PUSH2 0x4B PUSH2 0x95 JUMP JUMPDEST PUSH1 0x40 MLOAD PUSH2 0x58 SWAP2 SWAP1 PUSH2 0x2B1 JUMP JUMPDEST PUSH1 0x40 MLOAD DUP1 SWAP2 SUB SWAP1 RETURN JUMPDEST CALLVALUE DUP1 ISZERO PUSH2 0x6C JUMPI PUSH0 DUP1 REVERT JUMPDEST POP PUSH2 0x75 PUSH2 0x9C JUMP JUMPDEST STOP JUMPDEST PUSH2 0x7F PUSH2 0xB5 JUMP JUMPDEST PUSH1 0x40 MLOAD PUSH2 0x8C SWAP2 SWAP1 PUSH2 0x358 JUMP JUMPDEST PUSH1 0x40 MLOAD DUP1 SWAP2 SUB SWAP1 RETURN JUMPDEST PUSH0 SELFBALANCE SWAP1 POP SWAP1 JUMP JUMPDEST CALLER PUSH20 0xFFFFFFFFFFFFFFFFFFFFFFFFFFFFFFFFFFFFFFFF AND SELFDESTRUCT JUMPDEST PUSH2 0xBD PUSH2 0x258 JUMP JUMPDEST PUSH0 CALLVALUE PUSH1 0x40 MLOAD PUSH2 0xCB SWAP1 PUSH2 0x28C JUMP JUMPDEST PUSH1 0x40 MLOAD DUP1 SWAP2 SUB SWAP1 DUP3 CREATE SWAP1 POP DUP1 ISZERO DUP1 ISZERO PUSH2 0xE6 JUMPI RETURNDATASIZE PUSH0 DUP1 RETURNDATACOPY RETURNDATASIZE PUSH0 REVERT JUMPDEST POP SWAP1 POP PUSH0 PUSH1 0x40 MLOAD DUP1 PUSH1 0x60 ADD PUSH1 0x40 MSTORE DUP1 DUP4 PUSH20 0xFFFFFFFFFFFFFFFFFFFFFFFFFFFFFFFFFFFFFFFF AND DUP2 MSTORE PUSH1 0x20 ADD DUP4 PUSH20 0xFFFFFFFFFFFFFFFFFFFFFFFFFFFFFFFFFFFFFFFF AND PUSH4 0x12065FE0 PUSH1 0x40 MLOAD DUP2 PUSH4 0xFFFFFFFF AND PUSH1 0xE0 SHL DUP2 MSTORE PUSH1 0x4 ADD PUSH1 0x20 PUSH1 0x40 MLOAD DUP1 DUP4 SUB DUP2 DUP7 GAS STATICCALL ISZERO DUP1 ISZERO PUSH2 0x15A JUMPI RETURNDATASIZE PUSH0 DUP1 RETURNDATACOPY RETURNDATASIZE PUSH0 REVERT JUMPDEST POP POP POP POP PUSH1 0x40 MLOAD RETURNDATASIZE PUSH1 0x1F NOT PUSH1 0x1F DUP3 ADD AND DUP3 ADD DUP1 PUSH1 0x40 MSTORE POP DUP2 ADD SWAP1 PUSH2 0x17E SWAP2 SWAP1 PUSH2 0x39F JUMP JUMPDEST DUP2 MSTORE PUSH1 0x20 ADD DUP4 PUSH20 0xFFFFFFFFFFFFFFFFFFFFFFFFFFFFFFFFFFFFFFFF AND PUSH4 0x3FA4F245 PUSH1 0x40 MLOAD DUP2 PUSH4 0xFFFFFFFF AND PUSH1 0xE0 SHL DUP2 MSTORE PUSH1 0x4 ADD PUSH1 0x20 PUSH1 0x40 MLOAD DUP1 DUP4 SUB DUP2 DUP7 GAS STATICCALL ISZERO DUP1 ISZERO PUSH2 0x1CC JUMPI RETURNDATASIZE PUSH0 DUP1 RETURNDATACOPY RETURNDATASIZE PUSH0 REVERT JUMPDEST POP POP POP POP PUSH1 0x40 MLOAD RETURNDATASIZE PUSH1 0x1F NOT PUSH1 0x1F DUP3 ADD AND DUP3 ADD DUP1 PUSH1 0x40 MSTORE POP DUP2 ADD SWAP1 PUSH2 0x1F0 SWAP2 SWAP1 PUSH2 0x39F JUMP JUMPDEST DUP2 MSTORE POP SWAP1 POP DUP2 PUSH20 0xFFFFFFFFFFFFFFFFFFFFFFFFFFFFFFFFFFFFFFFF AND PUSH4 0x2B68B9C6 PUSH1 0x40 MLOAD DUP2 PUSH4 0xFFFFFFFF AND PUSH1 0xE0 SHL DUP2 MSTORE PUSH1 0x4 ADD PUSH0 PUSH1 0x40 MLOAD DUP1 DUP4 SUB DUP2 PUSH0 DUP8 DUP1 EXTCODESIZE ISZERO DUP1 ISZERO PUSH2 0x23A JUMPI PUSH0 DUP1 REVERT JUMPDEST POP GAS CALL ISZERO DUP1 ISZERO PUSH2 0x24C JUMPI RETURNDATASIZE PUSH0 DUP1 RETURNDATACOPY RETURNDATASIZE PUSH0 REVERT JUMPDEST POP POP POP POP DUP1 SWAP3 POP POP POP SWAP1 JUMP JUMPDEST PUSH1 0x40 MLOAD DUP1 PUSH1 0x60 ADD PUSH1 0x40 MSTORE DUP1 PUSH0 PUSH20 0xFFFFFFFFFFFFFFFFFFFFFFFFFFFFFFFFFFFFFFFF AND DUP2 MSTORE PUSH1 0x20 ADD PUSH0 DUP2 MSTORE PUSH1 0x20 ADD PUSH0 DUP2 MSTORE POP SWAP1 JUMP JUMPDEST PUSH2 0x136 DUP1 PUSH2 0x3CB DUP4 CODECOPY ADD SWAP1 JUMP JUMPDEST PUSH0 DUP2 SWAP1 POP SWAP2 SWAP1 POP JUMP JUMPDEST PUSH2 0x2AB DUP2 PUSH2 0x299 JUMP JUMPDEST DUP3 MSTORE POP POP JUMP JUMPDEST PUSH0 PUSH1 0x20 DUP3 ADD SWAP1 POP PUSH2 0x2C4 PUSH0 DUP4 ADD DUP5 PUSH2 0x2A2 JUMP JUMPDEST SWAP3 SWAP2 POP POP JUMP JUMPDEST PUSH0 PUSH20 0xFFFFFFFFFFFFFFFFFFFFFFFFFFFFFFFFFFFFFFFF DUP3 AND SWAP1 POP SWAP2 SWAP1 POP JUMP JUMPDEST PUSH0 PUSH2 0x2F3 DUP3 PUSH2 0x2CA JUMP JUMPDEST SWAP1 POP SWAP2 SWAP1 POP JUMP JUMPDEST PUSH2 0x303 DUP2 PUSH2 0x2E9 JUMP JUMPDEST DUP3 MSTORE POP POP JUMP JUMPDEST PUSH2 0x312 DUP2 PUSH2 0x299 JUMP JUMPDEST DUP3 MSTORE POP POP JUMP JUMPDEST PUSH1 0x60 DUP3 ADD PUSH0 DUP3 ADD MLOAD PUSH2 0x32C PUSH0 DUP6 ADD DUP3 PUSH2 0x2FA JUMP JUMPDEST POP PUSH1 0x20 DUP3 ADD MLOAD PUSH2 0x33F PUSH1 0x20 DUP6 ADD DUP3 PUSH2 0x309 JUMP JUMPDEST POP PUSH1 0x40 DUP3 ADD MLOAD PUSH2 0x352 PUSH1 0x40 DUP6 ADD DUP3 PUSH2 0x309 JUMP JUMPDEST POP POP POP POP JUMP JUMPDEST PUSH0 PUSH1 0x60 DUP3 ADD SWAP1 POP PUSH2 0x36B PUSH0 DUP4 ADD DUP5 PUSH2 0x318 JUMP JUMPDEST SWAP3 SWAP2 POP POP JUMP JUMPDEST PUSH0 DUP1 REVERT JUMPDEST PUSH2 0x37E DUP2 PUSH2 0x299 JUMP JUMPDEST DUP2 EQ PUSH2 0x388 JUMPI PUSH0 DUP1 REVERT JUMPDEST POP JUMP JUMPDEST PUSH0 DUP2 MLOAD SWAP1 POP PUSH2 0x399 DUP2 PUSH2 0x375 JUMP JUMPDEST SWAP3 SWAP2 POP POP JUMP JUMPDEST PUSH0 PUSH1 0x20 DUP3 DUP5 SUB SLT ISZERO PUSH2 0x3B4 JUMPI PUSH2 0x3B3 PUSH2 0x371 JUMP JUMPDEST JUMPDEST PUSH0 PUSH2 0x3C1 DUP5 DUP3 DUP6 ADD PUSH2 0x38B JUMP JUMPDEST SWAP2 POP POP SWAP3 SWAP2 POP POP JUMP INVALID PUSH1 0x80 PUSH1 0x40 MSTORE PUSH1 0xA PUSH0 SSTORE PUSH2 0x121 DUP1 PUSH2 0x15 PUSH0 CODECOPY PUSH0 RETURN INVALID PUSH1 0x80 PUSH1 0x40 MSTORE PUSH1 0x4 CALLDATASIZE LT PUSH1 0x32 JUMPI PUSH0 CALLDATALOAD PUSH1 0xE0 SHR DUP1 PUSH4 0x12065FE0 EQ PUSH1 0x3C JUMPI DUP1 PUSH4 0x2B68B9C6 EQ PUSH1 0x61 JUMPI DUP1 PUSH4 0x3FA4F245 EQ PUSH1 0x74 JUMPI PUSH1 0x38 JUMP JUMPDEST CALLDATASIZE PUSH1 0x38 JUMPI STOP JUMPDEST PUSH0 DUP1 REVERT JUMPDEST CALLVALUE DUP1 ISZERO PUSH1 0x46 JUMPI PUSH0 DUP1 REVERT JUMPDEST POP PUSH1 0x4D PUSH1 0x99 JUMP JUMPDEST PUSH1 0x40 MLOAD PUSH1 0x58 SWAP2 SWAP1 PUSH1 0xD4 JUMP JUMPDEST PUSH1 0x40 MLOAD DUP1 SWAP2 SUB SWAP1 RETURN JUMPDEST CALLVALUE DUP1 ISZERO PUSH1 0x6B JUMPI PUSH0 DUP1 REVERT JUMPDEST POP PUSH1 0x72 PUSH1 0xA0 JUMP JUMPDEST STOP JUMPDEST CALLVALUE DUP1 ISZERO PUSH1 0x7E JUMPI PUSH0 DUP1 REVERT JUMPDEST POP PUSH1 0x85 PUSH1 0xB9 JUMP JUMPDEST PUSH1 0x40 MLOAD PUSH1 0x90 SWAP2 SWAP1 PUSH1 0xD4 JUMP JUMPDEST PUSH1 0x40 MLOAD DUP1 SWAP2 SUB SWAP1 RETURN JUMPDEST PUSH0 SELFBALANCE SWAP1 POP SWAP1 JUMP JUMPDEST CALLER PUSH20 0xFFFFFFFFFFFFFFFFFFFFFFFFFFFFFFFFFFFFFFFF AND SELFDESTRUCT JUMPDEST PUSH0 SLOAD DUP2 JUMP JUMPDEST PUSH0 DUP2 SWAP1 POP SWAP2 SWAP1 POP JUMP JUMPDEST PUSH1 0xCE DUP2 PUSH1 0xBE JUMP JUMPDEST DUP3 MSTORE POP POP JUMP JUMPDEST PUSH0 PUSH1 0x20 DUP3 ADD SWAP1 POP PUSH1 0xE5 PUSH0 DUP4 ADD DUP5 PUSH1 0xC7 JUMP JUMPDEST SWAP3 SWAP2 POP POP JUMP INVALID LOG2 PUSH5 0x6970667358 0x22 SLT KECCAK256 MUL DUP10 SGT 0x23 INVALID TIMESTAMP SLOAD 0xF9 PUSH27 0xC462F9C959A3F8C55FEACC95C26BB8FC30E45372CF44CA64736F6C PUSH4 0x4300081A STOP CALLER LOG2 PUSH5 0x6970667358 0x22 SLT KECCAK256 PUSH21 0x364DC76E94C1C79256D3E56C0CC16B64B206BD404B 0xE6 0x2F SWAP9 0xB2 0xDF 0xEC JUMP DUP3 CALLCODE CALLVALUE PUSH5 0x736F6C6343 STOP ADDMOD BYTE STOP CALLER "
		},
		"gasEstimates": {
			"creation": {
				"codeDepositCost": "266800",
				"executionCost": "280",
				"totalCost": "267080"
			},
			"external": {
				"deployDestructContract()": "infinite",
				"destruct()": "27742",
				"getBalance()": "312"
			}
		},
		"methodIdentifiers": {
			"deployDestructContract()": "f4c61bab",
			"destruct()": "2b68b9c6",
			"getBalance()": "12065fe0"
		}
	},
	"abi": [
		{
			"inputs": [],
			"stateMutability": "payable",
			"type": "constructor"
		},
		{
			"inputs": [],
			"name": "deployDestructContract",
			"outputs": [
				{
					"components": [
						{
							"internalType": "address",
							"name": "addr",
							"type": "address"
						},
						{
							"internalType": "uint256",
							"name": "balance",
							"type": "uint256"
						},
						{
							"internalType": "uint256",
							"name": "value",
							"type": "uint256"
						}
					],
					"internalType": "struct DeployDestructContract.DestructContractInfo",
					"name": "",
					"type": "tuple"
				}
			],
			"stateMutability": "payable",
			"type": "function"
		},
		{
			"inputs": [],
			"name": "destruct",
			"outputs": [],
			"stateMutability": "nonpayable",
			"type": "function"
		},
		{
			"inputs": [],
			"name": "getBalance",
			"outputs": [
				{
					"internalType": "uint256",
					"name": "balance",
					"type": "uint256"
				}
			],
			"stateMutability": "view",
			"type": "function"
		}
	]
}