{
	"data": {
		"bytecode": {
			"linkReferences": {},
			"object": "6080604052348015600e575f80fd5b50335f806101000a81548173ffffffffffffffffffffffffffffffffffffffff021916908373ffffffffffffffffffffffffffffffffffffffff160217905550610a4f8061005b5f395ff3fe608060405234801561000f575f80fd5b5060043610610055575f3560e01c80633cc38f5c14610059578063745c5d7a146100755780638f283970146100a5578063b2e6b912146100c1578063e9f21eb7146100df575b5f80fd5b610073600480360381019061006e91906106c9565b610110565b005b61008f600480360381019061008a9190610768565b6102a6565b60405161009c91906107cb565b60405180910390f35b6100bf60048036038101906100ba91906107e4565b610376565b005b6100c96104aa565b6040516100d6919061081e565b60405180910390f35b6100f960048036038101906100f491906107e4565b61055e565b604051610107929190610846565b60405180910390f35b5f8054906101000a900473ffffffffffffffffffffffffffffffffffffffff1673ffffffffffffffffffffffffffffffffffffffff163373ffffffffffffffffffffffffffffffffffffffff161461019d576040517f08c379a0000000000000000000000000000000000000000000000000000000008152600401610194906108c7565b60405180910390fd5b5f73ffffffffffffffffffffffffffffffffffffffff168273ffffffffffffffffffffffffffffffffffffffff1603610202576040517f5bb7a72300000000000000000000000000000000000000000000000000000000815260040160405180910390fd5b5f810361023b576040517fe16a8aa400000000000000000000000000000000000000000000000000000000815260040160405180910390fd5b60405180604001604052804281526020018281525060015f8473ffffffffffffffffffffffffffffffffffffffff1673ffffffffffffffffffffffffffffffffffffffff1681526020019081526020015f205f820151815f0155602082015181600101559050505050565b5f805f9054906101000a900473ffffffffffffffffffffffffffffffffffffffff1673ffffffffffffffffffffffffffffffffffffffff163373ffffffffffffffffffffffffffffffffffffffff16148061030657506103053361057e565b5b610345576040517f08c379a000000000000000000000000000000000000000000000000000000000815260040161033c9061092f565b60405180910390fd5b8282604051602001610358929190610997565b60405160208183030381529060405280519060200120905092915050565b5f8054906101000a900473ffffffffffffffffffffffffffffffffffffffff1673ffffffffffffffffffffffffffffffffffffffff163373ffffffffffffffffffffffffffffffffffffffff1614610403576040517f08c379a00000000000000000000000000000000000000000000000000000000081526004016103fa906108c7565b60405180910390fd5b5f73ffffffffffffffffffffffffffffffffffffffff168173ffffffffffffffffffffffffffffffffffffffff1603610468576040517f5bb7a72300000000000000000000000000000000000000000000000000000000815260040160405180910390fd5b805f806101000a81548173ffffffffffffffffffffffffffffffffffffffff021916908373ffffffffffffffffffffffffffffffffffffffff16021790555050565b5f805f9054906101000a900473ffffffffffffffffffffffffffffffffffffffff1673ffffffffffffffffffffffffffffffffffffffff163373ffffffffffffffffffffffffffffffffffffffff1614610539576040517f08c379a0000000000000000000000000000000000000000000000000000000008152600401610530906108c7565b60405180910390fd5b5f8054906101000a900473ffffffffffffffffffffffffffffffffffffffff16905090565b6001602052805f5260405f205f91509050805f0154908060010154905082565b5f8060015f8473ffffffffffffffffffffffffffffffffffffffff1673ffffffffffffffffffffffffffffffffffffffff1681526020019081526020015f206040518060400160405290815f820154815260200160018201548152505090505f815f015190505f826020015190505f8214806105f957505f81145b15610609575f935050505061062f565b808261061591906109e6565b421115610627575f935050505061062f565b600193505050505b919050565b5f80fd5b5f80fd5b5f73ffffffffffffffffffffffffffffffffffffffff82169050919050565b5f6106658261063c565b9050919050565b6106758161065b565b811461067f575f80fd5b50565b5f813590506106908161066c565b92915050565b5f819050919050565b6106a881610696565b81146106b2575f80fd5b50565b5f813590506106c38161069f565b92915050565b5f80604083850312156106df576106de610634565b5b5f6106ec85828601610682565b92505060206106fd858286016106b5565b9150509250929050565b5f80fd5b5f80fd5b5f80fd5b5f8083601f84011261072857610727610707565b5b8235905067ffffffffffffffff8111156107455761074461070b565b5b6020830191508360018202830111156107615761076061070f565b5b9250929050565b5f806020838503121561077e5761077d610634565b5b5f83013567ffffffffffffffff81111561079b5761079a610638565b5b6107a785828601610713565b92509250509250929050565b5f819050919050565b6107c5816107b3565b82525050565b5f6020820190506107de5f8301846107bc565b92915050565b5f602082840312156107f9576107f8610634565b5b5f61080684828501610682565b91505092915050565b6108188161065b565b82525050565b5f6020820190506108315f83018461080f565b92915050565b61084081610696565b82525050565b5f6040820190506108595f830185610837565b6108666020830184610837565b9392505050565b5f82825260208201905092915050565b7f6f6e6c792061646d696e20616464726573732063616e206163636573730000005f82015250565b5f6108b1601d8361086d565b91506108bc8261087d565b602082019050919050565b5f6020820190508181035f8301526108de816108a5565b9050919050565b7f6f6e6c79206f776e657220616464726573732063616e206163636573730000005f82015250565b5f610919601d8361086d565b9150610924826108e5565b602082019050919050565b5f6020820190508181035f8301526109468161090d565b9050919050565b828183375f83830152505050565b5f601f19601f8301169050919050565b5f610976838561086d565b935061098383858461094d565b61098c8361095b565b840190509392505050565b5f6020820190508181035f8301526109b081848661096b565b90509392505050565b7f4e487b71000000000000000000000000000000000000000000000000000000005f52601160045260245ffd5b5f6109f082610696565b91506109fb83610696565b9250828201905080821115610a1357610a126109b9565b5b9291505056fea264697066735822122045c1cbaa45d762c37623d7b613b2f4a46e58f5370e8c265a3283a96596de937764736f6c634300081a0033",
			"opcodes": "PUSH1 0x80 PUSH1 0x40 MSTORE CALLVALUE DUP1 ISZERO PUSH1 0xE JUMPI PUSH0 DUP1 REVERT JUMPDEST POP CALLER PUSH0 DUP1 PUSH2 0x100 EXP DUP2 SLOAD DUP2 PUSH20 0xFFFFFFFFFFFFFFFFFFFFFFFFFFFFFFFFFFFFFFFF MUL NOT AND SWAP1 DUP4 PUSH20 0xFFFFFFFFFFFFFFFFFFFFFFFFFFFFFFFFFFFFFFFF AND MUL OR SWAP1 SSTORE POP PUSH2 0xA4F DUP1 PUSH2 0x5B PUSH0 CODECOPY PUSH0 RETURN INVALID PUSH1 0x80 PUSH1 0x40 MSTORE CALLVALUE DUP1 ISZERO PUSH2 0xF JUMPI PUSH0 DUP1 REVERT JUMPDEST POP PUSH1 0x4 CALLDATASIZE LT PUSH2 0x55 JUMPI PUSH0 CALLDATALOAD PUSH1 0xE0 SHR DUP1 PUSH4 0x3CC38F5C EQ PUSH2 0x59 JUMPI DUP1 PUSH4 0x745C5D7A EQ PUSH2 0x75 JUMPI DUP1 PUSH4 0x8F283970 EQ PUSH2 0xA5 JUMPI DUP1 PUSH4 0xB2E6B912 EQ PUSH2 0xC1 JUMPI DUP1 PUSH4 0xE9F21EB7 EQ PUSH2 0xDF JUMPI JUMPDEST PUSH0 DUP1 REVERT JUMPDEST PUSH2 0x73 PUSH1 0x4 DUP1 CALLDATASIZE SUB DUP2 ADD SWAP1 PUSH2 0x6E SWAP2 SWAP1 PUSH2 0x6C9 JUMP JUMPDEST PUSH2 0x110 JUMP JUMPDEST STOP JUMPDEST PUSH2 0x8F PUSH1 0x4 DUP1 CALLDATASIZE SUB DUP2 ADD SWAP1 PUSH2 0x8A SWAP2 SWAP1 PUSH2 0x768 JUMP JUMPDEST PUSH2 0x2A6 JUMP JUMPDEST PUSH1 0x40 MLOAD PUSH2 0x9C SWAP2 SWAP1 PUSH2 0x7CB JUMP JUMPDEST PUSH1 0x40 MLOAD DUP1 SWAP2 SUB SWAP1 RETURN JUMPDEST PUSH2 0xBF PUSH1 0x4 DUP1 CALLDATASIZE SUB DUP2 ADD SWAP1 PUSH2 0xBA SWAP2 SWAP1 PUSH2 0x7E4 JUMP JUMPDEST PUSH2 0x376 JUMP JUMPDEST STOP JUMPDEST PUSH2 0xC9 PUSH2 0x4AA JUMP JUMPDEST PUSH1 0x40 MLOAD PUSH2 0xD6 SWAP2 SWAP1 PUSH2 0x81E JUMP JUMPDEST PUSH1 0x40 MLOAD DUP1 SWAP2 SUB SWAP1 RETURN JUMPDEST PUSH2 0xF9 PUSH1 0x4 DUP1 CALLDATASIZE SUB DUP2 ADD SWAP1 PUSH2 0xF4 SWAP2 SWAP1 PUSH2 0x7E4 JUMP JUMPDEST PUSH2 0x55E JUMP JUMPDEST PUSH1 0x40 MLOAD PUSH2 0x107 SWAP3 SWAP2 SWAP1 PUSH2 0x846 JUMP JUMPDEST PUSH1 0x40 MLOAD DUP1 SWAP2 SUB SWAP1 RETURN JUMPDEST PUSH0 DUP1 SLOAD SWAP1 PUSH2 0x100 EXP SWAP1 DIV PUSH20 0xFFFFFFFFFFFFFFFFFFFFFFFFFFFFFFFFFFFFFFFF AND PUSH20 0xFFFFFFFFFFFFFFFFFFFFFFFFFFFFFFFFFFFFFFFF AND CALLER PUSH20 0xFFFFFFFFFFFFFFFFFFFFFFFFFFFFFFFFFFFFFFFF AND EQ PUSH2 0x19D JUMPI PUSH1 0x40 MLOAD PUSH32 0x8C379A000000000000000000000000000000000000000000000000000000000 DUP2 MSTORE PUSH1 0x4 ADD PUSH2 0x194 SWAP1 PUSH2 0x8C7 JUMP JUMPDEST PUSH1 0x40 MLOAD DUP1 SWAP2 SUB SWAP1 REVERT JUMPDEST PUSH0 PUSH20 0xFFFFFFFFFFFFFFFFFFFFFFFFFFFFFFFFFFFFFFFF AND DUP3 PUSH20 0xFFFFFFFFFFFFFFFFFFFFFFFFFFFFFFFFFFFFFFFF AND SUB PUSH2 0x202 JUMPI PUSH1 0x40 MLOAD PUSH32 0x5BB7A72300000000000000000000000000000000000000000000000000000000 DUP2 MSTORE PUSH1 0x4 ADD PUSH1 0x40 MLOAD DUP1 SWAP2 SUB SWAP1 REVERT JUMPDEST PUSH0 DUP2 SUB PUSH2 0x23B JUMPI PUSH1 0x40 MLOAD PUSH32 0xE16A8AA400000000000000000000000000000000000000000000000000000000 DUP2 MSTORE PUSH1 0x4 ADD PUSH1 0x40 MLOAD DUP1 SWAP2 SUB SWAP1 REVERT JUMPDEST PUSH1 0x40 MLOAD DUP1 PUSH1 0x40 ADD PUSH1 0x40 MSTORE DUP1 TIMESTAMP DUP2 MSTORE PUSH1 0x20 ADD DUP3 DUP2 MSTORE POP PUSH1 0x1 PUSH0 DUP5 PUSH20 0xFFFFFFFFFFFFFFFFFFFFFFFFFFFFFFFFFFFFFFFF AND PUSH20 0xFFFFFFFFFFFFFFFFFFFFFFFFFFFFFFFFFFFFFFFF AND DUP2 MSTORE PUSH1 0x20 ADD SWAP1 DUP2 MSTORE PUSH1 0x20 ADD PUSH0 KECCAK256 PUSH0 DUP3 ADD MLOAD DUP2 PUSH0 ADD SSTORE PUSH1 0x20 DUP3 ADD MLOAD DUP2 PUSH1 0x1 ADD SSTORE SWAP1 POP POP POP POP JUMP JUMPDEST PUSH0 DUP1 PUSH0 SWAP1 SLOAD SWAP1 PUSH2 0x100 EXP SWAP1 DIV PUSH20 0xFFFFFFFFFFFFFFFFFFFFFFFFFFFFFFFFFFFFFFFF AND PUSH20 0xFFFFFFFFFFFFFFFFFFFFFFFFFFFFFFFFFFFFFFFF AND CALLER PUSH20 0xFFFFFFFFFFFFFFFFFFFFFFFFFFFFFFFFFFFFFFFF AND EQ DUP1 PUSH2 0x306 JUMPI POP PUSH2 0x305 CALLER PUSH2 0x57E JUMP JUMPDEST JUMPDEST PUSH2 0x345 JUMPI PUSH1 0x40 MLOAD PUSH32 0x8C379A000000000000000000000000000000000000000000000000000000000 DUP2 MSTORE PUSH1 0x4 ADD PUSH2 0x33C SWAP1 PUSH2 0x92F JUMP JUMPDEST PUSH1 0x40 MLOAD DUP1 SWAP2 SUB SWAP1 REVERT JUMPDEST DUP3 DUP3 PUSH1 0x40 MLOAD PUSH1 0x20 ADD PUSH2 0x358 SWAP3 SWAP2 SWAP1 PUSH2 0x997 JUMP JUMPDEST PUSH1 0x40 MLOAD PUSH1 0x20 DUP2 DUP4 SUB SUB DUP2 MSTORE SWAP1 PUSH1 0x40 MSTORE DUP1 MLOAD SWAP1 PUSH1 0x20 ADD KECCAK256 SWAP1 POP SWAP3 SWAP2 POP POP JUMP JUMPDEST PUSH0 DUP1 SLOAD SWAP1 PUSH2 0x100 EXP SWAP1 DIV PUSH20 0xFFFFFFFFFFFFFFFFFFFFFFFFFFFFFFFFFFFFFFFF AND PUSH20 0xFFFFFFFFFFFFFFFFFFFFFFFFFFFFFFFFFFFFFFFF AND CALLER PUSH20 0xFFFFFFFFFFFFFFFFFFFFFFFFFFFFFFFFFFFFFFFF AND EQ PUSH2 0x403 JUMPI PUSH1 0x40 MLOAD PUSH32 0x8C379A000000000000000000000000000000000000000000000000000000000 DUP2 MSTORE PUSH1 0x4 ADD PUSH2 0x3FA SWAP1 PUSH2 0x8C7 JUMP JUMPDEST PUSH1 0x40 MLOAD DUP1 SWAP2 SUB SWAP1 REVERT JUMPDEST PUSH0 PUSH20 0xFFFFFFFFFFFFFFFFFFFFFFFFFFFFFFFFFFFFFFFF AND DUP2 PUSH20 0xFFFFFFFFFFFFFFFFFFFFFFFFFFFFFFFFFFFFFFFF AND SUB PUSH2 0x468 JUMPI PUSH1 0x40 MLOAD PUSH32 0x5BB7A72300000000000000000000000000000000000000000000000000000000 DUP2 MSTORE PUSH1 0x4 ADD PUSH1 0x40 MLOAD DUP1 SWAP2 SUB SWAP1 REVERT JUMPDEST DUP1 PUSH0 DUP1 PUSH2 0x100 EXP DUP2 SLOAD DUP2 PUSH20 0xFFFFFFFFFFFFFFFFFFFFFFFFFFFFFFFFFFFFFFFF MUL NOT AND SWAP1 DUP4 PUSH20 0xFFFFFFFFFFFFFFFFFFFFFFFFFFFFFFFFFFFFFFFF AND MUL OR SWAP1 SSTORE POP POP JUMP JUMPDEST PUSH0 DUP1 PUSH0 SWAP1 SLOAD SWAP1 PUSH2 0x100 EXP SWAP1 DIV PUSH20 0xFFFFFFFFFFFFFFFFFFFFFFFFFFFFFFFFFFFFFFFF AND PUSH20 0xFFFFFFFFFFFFFFFFFFFFFFFFFFFFFFFFFFFFFFFF AND CALLER PUSH20 0xFFFFFFFFFFFFFFFFFFFFFFFFFFFFFFFFFFFFFFFF AND EQ PUSH2 0x539 JUMPI PUSH1 0x40 MLOAD PUSH32 0x8C379A000000000000000000000000000000000000000000000000000000000 DUP2 MSTORE PUSH1 0x4 ADD PUSH2 0x530 SWAP1 PUSH2 0x8C7 JUMP JUMPDEST PUSH1 0x40 MLOAD DUP1 SWAP2 SUB SWAP1 REVERT JUMPDEST PUSH0 DUP1 SLOAD SWAP1 PUSH2 0x100 EXP SWAP1 DIV PUSH20 0xFFFFFFFFFFFFFFFFFFFFFFFFFFFFFFFFFFFFFFFF AND SWAP1 POP SWAP1 JUMP JUMPDEST PUSH1 0x1 PUSH1 0x20 MSTORE DUP1 PUSH0 MSTORE PUSH1 0x40 PUSH0 KECCAK256 PUSH0 SWAP2 POP SWAP1 POP DUP1 PUSH0 ADD SLOAD SWAP1 DUP1 PUSH1 0x1 ADD SLOAD SWAP1 POP DUP3 JUMP JUMPDEST PUSH0 DUP1 PUSH1 0x1 PUSH0 DUP5 PUSH20 0xFFFFFFFFFFFFFFFFFFFFFFFFFFFFFFFFFFFFFFFF AND PUSH20 0xFFFFFFFFFFFFFFFFFFFFFFFFFFFFFFFFFFFFFFFF AND DUP2 MSTORE PUSH1 0x20 ADD SWAP1 DUP2 MSTORE PUSH1 0x20 ADD PUSH0 KECCAK256 PUSH1 0x40 MLOAD DUP1 PUSH1 0x40 ADD PUSH1 0x40 MSTORE SWAP1 DUP2 PUSH0 DUP3 ADD SLOAD DUP2 MSTORE PUSH1 0x20 ADD PUSH1 0x1 DUP3 ADD SLOAD DUP2 MSTORE POP POP SWAP1 POP PUSH0 DUP2 PUSH0 ADD MLOAD SWAP1 POP PUSH0 DUP3 PUSH1 0x20 ADD MLOAD SWAP1 POP PUSH0 DUP3 EQ DUP1 PUSH2 0x5F9 JUMPI POP PUSH0 DUP2 EQ JUMPDEST ISZERO PUSH2 0x609 JUMPI PUSH0 SWAP4 POP POP POP POP PUSH2 0x62F JUMP JUMPDEST DUP1 DUP3 PUSH2 0x615 SWAP2 SWAP1 PUSH2 0x9E6 JUMP JUMPDEST TIMESTAMP GT ISZERO PUSH2 0x627 JUMPI PUSH0 SWAP4 POP POP POP POP PUSH2 0x62F JUMP JUMPDEST PUSH1 0x1 SWAP4 POP POP POP POP JUMPDEST SWAP2 SWAP1 POP JUMP JUMPDEST PUSH0 DUP1 REVERT JUMPDEST PUSH0 DUP1 REVERT JUMPDEST PUSH0 PUSH20 0xFFFFFFFFFFFFFFFFFFFFFFFFFFFFFFFFFFFFFFFF DUP3 AND SWAP1 POP SWAP2 SWAP1 POP JUMP JUMPDEST PUSH0 PUSH2 0x665 DUP3 PUSH2 0x63C JUMP JUMPDEST SWAP1 POP SWAP2 SWAP1 POP JUMP JUMPDEST PUSH2 0x675 DUP2 PUSH2 0x65B JUMP JUMPDEST DUP2 EQ PUSH2 0x67F JUMPI PUSH0 DUP1 REVERT JUMPDEST POP JUMP JUMPDEST PUSH0 DUP2 CALLDATALOAD SWAP1 POP PUSH2 0x690 DUP2 PUSH2 0x66C JUMP JUMPDEST SWAP3 SWAP2 POP POP JUMP JUMPDEST PUSH0 DUP2 SWAP1 POP SWAP2 SWAP1 POP JUMP JUMPDEST PUSH2 0x6A8 DUP2 PUSH2 0x696 JUMP JUMPDEST DUP2 EQ PUSH2 0x6B2 JUMPI PUSH0 DUP1 REVERT JUMPDEST POP JUMP JUMPDEST PUSH0 DUP2 CALLDATALOAD SWAP1 POP PUSH2 0x6C3 DUP2 PUSH2 0x69F JUMP JUMPDEST SWAP3 SWAP2 POP POP JUMP JUMPDEST PUSH0 DUP1 PUSH1 0x40 DUP4 DUP6 SUB SLT ISZERO PUSH2 0x6DF JUMPI PUSH2 0x6DE PUSH2 0x634 JUMP JUMPDEST JUMPDEST PUSH0 PUSH2 0x6EC DUP6 DUP3 DUP7 ADD PUSH2 0x682 JUMP JUMPDEST SWAP3 POP POP PUSH1 0x20 PUSH2 0x6FD DUP6 DUP3 DUP7 ADD PUSH2 0x6B5 JUMP JUMPDEST SWAP2 POP POP SWAP3 POP SWAP3 SWAP1 POP JUMP JUMPDEST PUSH0 DUP1 REVERT JUMPDEST PUSH0 DUP1 REVERT JUMPDEST PUSH0 DUP1 REVERT JUMPDEST PUSH0 DUP1 DUP4 PUSH1 0x1F DUP5 ADD SLT PUSH2 0x728 JUMPI PUSH2 0x727 PUSH2 0x707 JUMP JUMPDEST JUMPDEST DUP3 CALLDATALOAD SWAP1 POP PUSH8 0xFFFFFFFFFFFFFFFF DUP2 GT ISZERO PUSH2 0x745 JUMPI PUSH2 0x744 PUSH2 0x70B JUMP JUMPDEST JUMPDEST PUSH1 0x20 DUP4 ADD SWAP2 POP DUP4 PUSH1 0x1 DUP3 MUL DUP4 ADD GT ISZERO PUSH2 0x761 JUMPI PUSH2 0x760 PUSH2 0x70F JUMP JUMPDEST JUMPDEST SWAP3 POP SWAP3 SWAP1 POP JUMP JUMPDEST PUSH0 DUP1 PUSH1 0x20 DUP4 DUP6 SUB SLT ISZERO PUSH2 0x77E JUMPI PUSH2 0x77D PUSH2 0x634 JUMP JUMPDEST JUMPDEST PUSH0 DUP4 ADD CALLDATALOAD PUSH8 0xFFFFFFFFFFFFFFFF DUP2 GT ISZERO PUSH2 0x79B JUMPI PUSH2 0x79A PUSH2 0x638 JUMP JUMPDEST JUMPDEST PUSH2 0x7A7 DUP6 DUP3 DUP7 ADD PUSH2 0x713 JUMP JUMPDEST SWAP3 POP SWAP3 POP POP SWAP3 POP SWAP3 SWAP1 POP JUMP JUMPDEST PUSH0 DUP2 SWAP1 POP SWAP2 SWAP1 POP JUMP JUMPDEST PUSH2 0x7C5 DUP2 PUSH2 0x7B3 JUMP JUMPDEST DUP3 MSTORE POP POP JUMP JUMPDEST PUSH0 PUSH1 0x20 DUP3 ADD SWAP1 POP PUSH2 0x7DE PUSH0 DUP4 ADD DUP5 PUSH2 0x7BC JUMP JUMPDEST SWAP3 SWAP2 POP POP JUMP JUMPDEST PUSH0 PUSH1 0x20 DUP3 DUP5 SUB SLT ISZERO PUSH2 0x7F9 JUMPI PUSH2 0x7F8 PUSH2 0x634 JUMP JUMPDEST JUMPDEST PUSH0 PUSH2 0x806 DUP5 DUP3 DUP6 ADD PUSH2 0x682 JUMP JUMPDEST SWAP2 POP POP SWAP3 SWAP2 POP POP JUMP JUMPDEST PUSH2 0x818 DUP2 PUSH2 0x65B JUMP JUMPDEST DUP3 MSTORE POP POP JUMP JUMPDEST PUSH0 PUSH1 0x20 DUP3 ADD SWAP1 POP PUSH2 0x831 PUSH0 DUP4 ADD DUP5 PUSH2 0x80F JUMP JUMPDEST SWAP3 SWAP2 POP POP JUMP JUMPDEST PUSH2 0x840 DUP2 PUSH2 0x696 JUMP JUMPDEST DUP3 MSTORE POP POP JUMP JUMPDEST PUSH0 PUSH1 0x40 DUP3 ADD SWAP1 POP PUSH2 0x859 PUSH0 DUP4 ADD DUP6 PUSH2 0x837 JUMP JUMPDEST PUSH2 0x866 PUSH1 0x20 DUP4 ADD DUP5 PUSH2 0x837 JUMP JUMPDEST SWAP4 SWAP3 POP POP POP JUMP JUMPDEST PUSH0 DUP3 DUP3 MSTORE PUSH1 0x20 DUP3 ADD SWAP1 POP SWAP3 SWAP2 POP POP JUMP JUMPDEST PUSH32 0x6F6E6C792061646D696E20616464726573732063616E20616363657373000000 PUSH0 DUP3 ADD MSTORE POP JUMP JUMPDEST PUSH0 PUSH2 0x8B1 PUSH1 0x1D DUP4 PUSH2 0x86D JUMP JUMPDEST SWAP2 POP PUSH2 0x8BC DUP3 PUSH2 0x87D JUMP JUMPDEST PUSH1 0x20 DUP3 ADD SWAP1 POP SWAP2 SWAP1 POP JUMP JUMPDEST PUSH0 PUSH1 0x20 DUP3 ADD SWAP1 POP DUP2 DUP2 SUB PUSH0 DUP4 ADD MSTORE PUSH2 0x8DE DUP2 PUSH2 0x8A5 JUMP JUMPDEST SWAP1 POP SWAP2 SWAP1 POP JUMP JUMPDEST PUSH32 0x6F6E6C79206F776E657220616464726573732063616E20616363657373000000 PUSH0 DUP3 ADD MSTORE POP JUMP JUMPDEST PUSH0 PUSH2 0x919 PUSH1 0x1D DUP4 PUSH2 0x86D JUMP JUMPDEST SWAP2 POP PUSH2 0x924 DUP3 PUSH2 0x8E5 JUMP JUMPDEST PUSH1 0x20 DUP3 ADD SWAP1 POP SWAP2 SWAP1 POP JUMP JUMPDEST PUSH0 PUSH1 0x20 DUP3 ADD SWAP1 POP DUP2 DUP2 SUB PUSH0 DUP4 ADD MSTORE PUSH2 0x946 DUP2 PUSH2 0x90D JUMP JUMPDEST SWAP1 POP SWAP2 SWAP1 POP JUMP JUMPDEST DUP3 DUP2 DUP4 CALLDATACOPY PUSH0 DUP4 DUP4 ADD MSTORE POP POP POP JUMP JUMPDEST PUSH0 PUSH1 0x1F NOT PUSH1 0x1F DUP4 ADD AND SWAP1 POP SWAP2 SWAP1 POP JUMP JUMPDEST PUSH0 PUSH2 0x976 DUP4 DUP6 PUSH2 0x86D JUMP JUMPDEST SWAP4 POP PUSH2 0x983 DUP4 DUP6 DUP5 PUSH2 0x94D JUMP JUMPDEST PUSH2 0x98C DUP4 PUSH2 0x95B JUMP JUMPDEST DUP5 ADD SWAP1 POP SWAP4 SWAP3 POP POP POP JUMP JUMPDEST PUSH0 PUSH1 0x20 DUP3 ADD SWAP1 POP DUP2 DUP2 SUB PUSH0 DUP4 ADD MSTORE PUSH2 0x9B0 DUP2 DUP5 DUP7 PUSH2 0x96B JUMP JUMPDEST SWAP1 POP SWAP4 SWAP3 POP POP POP JUMP JUMPDEST PUSH32 0x4E487B7100000000000000000000000000000000000000000000000000000000 PUSH0 MSTORE PUSH1 0x11 PUSH1 0x4 MSTORE PUSH1 0x24 PUSH0 REVERT JUMPDEST PUSH0 PUSH2 0x9F0 DUP3 PUSH2 0x696 JUMP JUMPDEST SWAP2 POP PUSH2 0x9FB DUP4 PUSH2 0x696 JUMP JUMPDEST SWAP3 POP DUP3 DUP3 ADD SWAP1 POP DUP1 DUP3 GT ISZERO PUSH2 0xA13 JUMPI PUSH2 0xA12 PUSH2 0x9B9 JUMP JUMPDEST JUMPDEST SWAP3 SWAP2 POP POP JUMP INVALID LOG2 PUSH5 0x6970667358 0x22 SLT KECCAK256 GASLIMIT 0xC1 0xCB 0xAA GASLIMIT 0xD7 PUSH3 0xC37623 0xD7 0xB6 SGT 0xB2 DELEGATECALL LOG4 PUSH15 0x58F5370E8C265A3283A96596DE9377 PUSH5 0x736F6C6343 STOP ADDMOD BYTE STOP CALLER "
		},
		"gasEstimates": {
			"creation": {
				"codeDepositCost": "527800",
				"executionCost": "24825",
				"totalCost": "552625"
			},
			"external": {
				"addOwner(address,uint256)": "47216",
				"changeAdmin(address)": "26937",
				"eatFood(string)": "infinite",
				"getAdminAddress()": "4725",
				"ownerInfoMapping(address)": "infinite"
			}
		},
		"methodIdentifiers": {
			"addOwner(address,uint256)": "3cc38f5c",
			"changeAdmin(address)": "8f283970",
			"eatFood(string)": "745c5d7a",
			"getAdminAddress()": "b2e6b912",
			"ownerInfoMapping(address)": "e9f21eb7"
		}
	},
	"abi": [
		{
			"inputs": [],
			"name": "AddressEmpty",
			"type": "error"
		},
		{
			"inputs": [],
			"name": "TimeLimitZero",
			"type": "error"
		},
		{
			"inputs": [
				{
					"internalType": "address",
					"name": "newOwner",
					"type": "address"
				},
				{
					"internalType": "uint256",
					"name": "timeLimit",
					"type": "uint256"
				}
			],
			"name": "addOwner",
			"outputs": [],
			"stateMutability": "nonpayable",
			"type": "function"
		},
		{
			"inputs": [
				{
					"internalType": "address",
					"name": "newAdmin",
					"type": "address"
				}
			],
			"name": "changeAdmin",
			"outputs": [],
			"stateMutability": "nonpayable",
			"type": "function"
		},
		{
			"inputs": [
				{
					"internalType": "string",
					"name": "str",
					"type": "string"
				}
			],
			"name": "eatFood",
			"outputs": [
				{
					"internalType": "bytes32",
					"name": "",
					"type": "bytes32"
				}
			],
			"stateMutability": "view",
			"type": "function"
		},
		{
			"inputs": [],
			"name": "getAdminAddress",
			"outputs": [
				{
					"internalType": "address",
					"name": "",
					"type": "address"
				}
			],
			"stateMutability": "view",
			"type": "function"
		},
		{
			"inputs": [
				{
					"internalType": "address",
					"name": "",
					"type": "address"
				}
			],
			"name": "ownerInfoMapping",
			"outputs": [
				{
					"internalType": "uint256",
					"name": "timestamp",
					"type": "uint256"
				},
				{
					"internalType": "uint256",
					"name": "timeLimit",
					"type": "uint256"
				}
			],
			"stateMutability": "view",
			"type": "function"
		}
	]
}