{
	"data": {
		"bytecode": {
			"linkReferences": {},
			"object": "608060405234801561000f575f80fd5b5060405161089a38038061089a833981810160405281019061003191906100d6565b80805f806101000a81548173ffffffffffffffffffffffffffffffffffffffff021916908373ffffffffffffffffffffffffffffffffffffffff1602179055505050610101565b5f80fd5b5f73ffffffffffffffffffffffffffffffffffffffff82169050919050565b5f6100a58261007c565b9050919050565b6100b58161009b565b81146100bf575f80fd5b50565b5f815190506100d0816100ac565b92915050565b5f602082840312156100eb576100ea610078565b5b5f6100f8848285016100c2565b91505092915050565b61078c8061010e5f395ff3fe608060405234801561000f575f80fd5b506004361061004a575f3560e01c8063150b7a021461004e57806347ccca021461007e578063a9059cbb1461009c578063d7791e26146100b8575b5f80fd5b61006860048036038101906100639190610428565b6100e8565b60405161007591906104e6565b60405180910390f35b61008661018d565b604051610093919061055a565b60405180910390f35b6100b660048036038101906100b19190610573565b6101b0565b005b6100d260048036038101906100cd91906105b1565b610315565b6040516100df91906105f6565b60405180910390f35b5f838573ffffffffffffffffffffffffffffffffffffffff168773ffffffffffffffffffffffffffffffffffffffff167f9b37ff0ebda9a6ff75a06d22b6e243b8bcaad809028b4574bd835cec1c5dbb818686604051610149929190610669565b60405180910390a4600160025f8681526020019081526020015f205f6101000a81548160ff02191690831515021790555063150b7a0260e01b905095945050505050565b5f8054906101000a900473ffffffffffffffffffffffffffffffffffffffff1681565b808273ffffffffffffffffffffffffffffffffffffffff163373ffffffffffffffffffffffffffffffffffffffff167f380bee30069c3d4a0a3e3d23e71e7aebb6d463faaf03123547051c60b43277fc60405160405180910390a460025f8281526020019081526020015f205f9054906101000a900460ff16610268576040517f08c379a000000000000000000000000000000000000000000000000000000000815260040161025f906106e5565b60405180910390fd5b60025f8281526020019081526020015f205f6101000a81549060ff02191690555f8054906101000a900473ffffffffffffffffffffffffffffffffffffffff1673ffffffffffffffffffffffffffffffffffffffff166342842e0e3084846040518463ffffffff1660e01b81526004016102e493929190610721565b5f604051808303815f87803b1580156102fb575f80fd5b505af115801561030d573d5f803e3d5ffd5b505050505050565b6002602052805f5260405f205f915054906101000a900460ff1681565b5f80fd5b5f80fd5b5f73ffffffffffffffffffffffffffffffffffffffff82169050919050565b5f6103638261033a565b9050919050565b61037381610359565b811461037d575f80fd5b50565b5f8135905061038e8161036a565b92915050565b5f819050919050565b6103a681610394565b81146103b0575f80fd5b50565b5f813590506103c18161039d565b92915050565b5f80fd5b5f80fd5b5f80fd5b5f8083601f8401126103e8576103e76103c7565b5b8235905067ffffffffffffffff811115610405576104046103cb565b5b602083019150836001820283011115610421576104206103cf565b5b9250929050565b5f805f805f6080868803121561044157610440610332565b5b5f61044e88828901610380565b955050602061045f88828901610380565b9450506040610470888289016103b3565b935050606086013567ffffffffffffffff81111561049157610490610336565b5b61049d888289016103d3565b92509250509295509295909350565b5f7fffffffff0000000000000000000000000000000000000000000000000000000082169050919050565b6104e0816104ac565b82525050565b5f6020820190506104f95f8301846104d7565b92915050565b5f819050919050565b5f61052261051d6105188461033a565b6104ff565b61033a565b9050919050565b5f61053382610508565b9050919050565b5f61054482610529565b9050919050565b6105548161053a565b82525050565b5f60208201905061056d5f83018461054b565b92915050565b5f806040838503121561058957610588610332565b5b5f61059685828601610380565b92505060206105a7858286016103b3565b9150509250929050565b5f602082840312156105c6576105c5610332565b5b5f6105d3848285016103b3565b91505092915050565b5f8115159050919050565b6105f0816105dc565b82525050565b5f6020820190506106095f8301846105e7565b92915050565b5f82825260208201905092915050565b828183375f83830152505050565b5f601f19601f8301169050919050565b5f610648838561060f565b935061065583858461061f565b61065e8361062d565b840190509392505050565b5f6020820190508181035f83015261068281848661063d565b90509392505050565b5f82825260208201905092915050565b7f6e6f742068617665207468697320746f6b656e496400000000000000000000005f82015250565b5f6106cf60158361068b565b91506106da8261069b565b602082019050919050565b5f6020820190508181035f8301526106fc816106c3565b9050919050565b61070c81610359565b82525050565b61071b81610394565b82525050565b5f6060820190506107345f830186610703565b6107416020830185610703565b61074e6040830184610712565b94935050505056fea2646970667358221220919941afdbe6e714d00b2435cbdc27091f7b77c3e547363943440893384cdd4264736f6c634300081a0033",
			"opcodes": "PUSH1 0x80 PUSH1 0x40 MSTORE CALLVALUE DUP1 ISZERO PUSH2 0xF JUMPI PUSH0 DUP1 REVERT JUMPDEST POP PUSH1 0x40 MLOAD PUSH2 0x89A CODESIZE SUB DUP1 PUSH2 0x89A DUP4 CODECOPY DUP2 DUP2 ADD PUSH1 0x40 MSTORE DUP2 ADD SWAP1 PUSH2 0x31 SWAP2 SWAP1 PUSH2 0xD6 JUMP JUMPDEST DUP1 DUP1 PUSH0 DUP1 PUSH2 0x100 EXP DUP2 SLOAD DUP2 PUSH20 0xFFFFFFFFFFFFFFFFFFFFFFFFFFFFFFFFFFFFFFFF MUL NOT AND SWAP1 DUP4 PUSH20 0xFFFFFFFFFFFFFFFFFFFFFFFFFFFFFFFFFFFFFFFF AND MUL OR SWAP1 SSTORE POP POP POP PUSH2 0x101 JUMP JUMPDEST PUSH0 DUP1 REVERT JUMPDEST PUSH0 PUSH20 0xFFFFFFFFFFFFFFFFFFFFFFFFFFFFFFFFFFFFFFFF DUP3 AND SWAP1 POP SWAP2 SWAP1 POP JUMP JUMPDEST PUSH0 PUSH2 0xA5 DUP3 PUSH2 0x7C JUMP JUMPDEST SWAP1 POP SWAP2 SWAP1 POP JUMP JUMPDEST PUSH2 0xB5 DUP2 PUSH2 0x9B JUMP JUMPDEST DUP2 EQ PUSH2 0xBF JUMPI PUSH0 DUP1 REVERT JUMPDEST POP JUMP JUMPDEST PUSH0 DUP2 MLOAD SWAP1 POP PUSH2 0xD0 DUP2 PUSH2 0xAC JUMP JUMPDEST SWAP3 SWAP2 POP POP JUMP JUMPDEST PUSH0 PUSH1 0x20 DUP3 DUP5 SUB SLT ISZERO PUSH2 0xEB JUMPI PUSH2 0xEA PUSH2 0x78 JUMP JUMPDEST JUMPDEST PUSH0 PUSH2 0xF8 DUP5 DUP3 DUP6 ADD PUSH2 0xC2 JUMP JUMPDEST SWAP2 POP POP SWAP3 SWAP2 POP POP JUMP JUMPDEST PUSH2 0x78C DUP1 PUSH2 0x10E PUSH0 CODECOPY PUSH0 RETURN INVALID PUSH1 0x80 PUSH1 0x40 MSTORE CALLVALUE DUP1 ISZERO PUSH2 0xF JUMPI PUSH0 DUP1 REVERT JUMPDEST POP PUSH1 0x4 CALLDATASIZE LT PUSH2 0x4A JUMPI PUSH0 CALLDATALOAD PUSH1 0xE0 SHR DUP1 PUSH4 0x150B7A02 EQ PUSH2 0x4E JUMPI DUP1 PUSH4 0x47CCCA02 EQ PUSH2 0x7E JUMPI DUP1 PUSH4 0xA9059CBB EQ PUSH2 0x9C JUMPI DUP1 PUSH4 0xD7791E26 EQ PUSH2 0xB8 JUMPI JUMPDEST PUSH0 DUP1 REVERT JUMPDEST PUSH2 0x68 PUSH1 0x4 DUP1 CALLDATASIZE SUB DUP2 ADD SWAP1 PUSH2 0x63 SWAP2 SWAP1 PUSH2 0x428 JUMP JUMPDEST PUSH2 0xE8 JUMP JUMPDEST PUSH1 0x40 MLOAD PUSH2 0x75 SWAP2 SWAP1 PUSH2 0x4E6 JUMP JUMPDEST PUSH1 0x40 MLOAD DUP1 SWAP2 SUB SWAP1 RETURN JUMPDEST PUSH2 0x86 PUSH2 0x18D JUMP JUMPDEST PUSH1 0x40 MLOAD PUSH2 0x93 SWAP2 SWAP1 PUSH2 0x55A JUMP JUMPDEST PUSH1 0x40 MLOAD DUP1 SWAP2 SUB SWAP1 RETURN JUMPDEST PUSH2 0xB6 PUSH1 0x4 DUP1 CALLDATASIZE SUB DUP2 ADD SWAP1 PUSH2 0xB1 SWAP2 SWAP1 PUSH2 0x573 JUMP JUMPDEST PUSH2 0x1B0 JUMP JUMPDEST STOP JUMPDEST PUSH2 0xD2 PUSH1 0x4 DUP1 CALLDATASIZE SUB DUP2 ADD SWAP1 PUSH2 0xCD SWAP2 SWAP1 PUSH2 0x5B1 JUMP JUMPDEST PUSH2 0x315 JUMP JUMPDEST PUSH1 0x40 MLOAD PUSH2 0xDF SWAP2 SWAP1 PUSH2 0x5F6 JUMP JUMPDEST PUSH1 0x40 MLOAD DUP1 SWAP2 SUB SWAP1 RETURN JUMPDEST PUSH0 DUP4 DUP6 PUSH20 0xFFFFFFFFFFFFFFFFFFFFFFFFFFFFFFFFFFFFFFFF AND DUP8 PUSH20 0xFFFFFFFFFFFFFFFFFFFFFFFFFFFFFFFFFFFFFFFF AND PUSH32 0x9B37FF0EBDA9A6FF75A06D22B6E243B8BCAAD809028B4574BD835CEC1C5DBB81 DUP7 DUP7 PUSH1 0x40 MLOAD PUSH2 0x149 SWAP3 SWAP2 SWAP1 PUSH2 0x669 JUMP JUMPDEST PUSH1 0x40 MLOAD DUP1 SWAP2 SUB SWAP1 LOG4 PUSH1 0x1 PUSH1 0x2 PUSH0 DUP7 DUP2 MSTORE PUSH1 0x20 ADD SWAP1 DUP2 MSTORE PUSH1 0x20 ADD PUSH0 KECCAK256 PUSH0 PUSH2 0x100 EXP DUP2 SLOAD DUP2 PUSH1 0xFF MUL NOT AND SWAP1 DUP4 ISZERO ISZERO MUL OR SWAP1 SSTORE POP PUSH4 0x150B7A02 PUSH1 0xE0 SHL SWAP1 POP SWAP6 SWAP5 POP POP POP POP POP JUMP JUMPDEST PUSH0 DUP1 SLOAD SWAP1 PUSH2 0x100 EXP SWAP1 DIV PUSH20 0xFFFFFFFFFFFFFFFFFFFFFFFFFFFFFFFFFFFFFFFF AND DUP2 JUMP JUMPDEST DUP1 DUP3 PUSH20 0xFFFFFFFFFFFFFFFFFFFFFFFFFFFFFFFFFFFFFFFF AND CALLER PUSH20 0xFFFFFFFFFFFFFFFFFFFFFFFFFFFFFFFFFFFFFFFF AND PUSH32 0x380BEE30069C3D4A0A3E3D23E71E7AEBB6D463FAAF03123547051C60B43277FC PUSH1 0x40 MLOAD PUSH1 0x40 MLOAD DUP1 SWAP2 SUB SWAP1 LOG4 PUSH1 0x2 PUSH0 DUP3 DUP2 MSTORE PUSH1 0x20 ADD SWAP1 DUP2 MSTORE PUSH1 0x20 ADD PUSH0 KECCAK256 PUSH0 SWAP1 SLOAD SWAP1 PUSH2 0x100 EXP SWAP1 DIV PUSH1 0xFF AND PUSH2 0x268 JUMPI PUSH1 0x40 MLOAD PUSH32 0x8C379A000000000000000000000000000000000000000000000000000000000 DUP2 MSTORE PUSH1 0x4 ADD PUSH2 0x25F SWAP1 PUSH2 0x6E5 JUMP JUMPDEST PUSH1 0x40 MLOAD DUP1 SWAP2 SUB SWAP1 REVERT JUMPDEST PUSH1 0x2 PUSH0 DUP3 DUP2 MSTORE PUSH1 0x20 ADD SWAP1 DUP2 MSTORE PUSH1 0x20 ADD PUSH0 KECCAK256 PUSH0 PUSH2 0x100 EXP DUP2 SLOAD SWAP1 PUSH1 0xFF MUL NOT AND SWAP1 SSTORE PUSH0 DUP1 SLOAD SWAP1 PUSH2 0x100 EXP SWAP1 DIV PUSH20 0xFFFFFFFFFFFFFFFFFFFFFFFFFFFFFFFFFFFFFFFF AND PUSH20 0xFFFFFFFFFFFFFFFFFFFFFFFFFFFFFFFFFFFFFFFF AND PUSH4 0x42842E0E ADDRESS DUP5 DUP5 PUSH1 0x40 MLOAD DUP5 PUSH4 0xFFFFFFFF AND PUSH1 0xE0 SHL DUP2 MSTORE PUSH1 0x4 ADD PUSH2 0x2E4 SWAP4 SWAP3 SWAP2 SWAP1 PUSH2 0x721 JUMP JUMPDEST PUSH0 PUSH1 0x40 MLOAD DUP1 DUP4 SUB DUP2 PUSH0 DUP8 DUP1 EXTCODESIZE ISZERO DUP1 ISZERO PUSH2 0x2FB JUMPI PUSH0 DUP1 REVERT JUMPDEST POP GAS CALL ISZERO DUP1 ISZERO PUSH2 0x30D JUMPI RETURNDATASIZE PUSH0 DUP1 RETURNDATACOPY RETURNDATASIZE PUSH0 REVERT JUMPDEST POP POP POP POP POP POP JUMP JUMPDEST PUSH1 0x2 PUSH1 0x20 MSTORE DUP1 PUSH0 MSTORE PUSH1 0x40 PUSH0 KECCAK256 PUSH0 SWAP2 POP SLOAD SWAP1 PUSH2 0x100 EXP SWAP1 DIV PUSH1 0xFF AND DUP2 JUMP JUMPDEST PUSH0 DUP1 REVERT JUMPDEST PUSH0 DUP1 REVERT JUMPDEST PUSH0 PUSH20 0xFFFFFFFFFFFFFFFFFFFFFFFFFFFFFFFFFFFFFFFF DUP3 AND SWAP1 POP SWAP2 SWAP1 POP JUMP JUMPDEST PUSH0 PUSH2 0x363 DUP3 PUSH2 0x33A JUMP JUMPDEST SWAP1 POP SWAP2 SWAP1 POP JUMP JUMPDEST PUSH2 0x373 DUP2 PUSH2 0x359 JUMP JUMPDEST DUP2 EQ PUSH2 0x37D JUMPI PUSH0 DUP1 REVERT JUMPDEST POP JUMP JUMPDEST PUSH0 DUP2 CALLDATALOAD SWAP1 POP PUSH2 0x38E DUP2 PUSH2 0x36A JUMP JUMPDEST SWAP3 SWAP2 POP POP JUMP JUMPDEST PUSH0 DUP2 SWAP1 POP SWAP2 SWAP1 POP JUMP JUMPDEST PUSH2 0x3A6 DUP2 PUSH2 0x394 JUMP JUMPDEST DUP2 EQ PUSH2 0x3B0 JUMPI PUSH0 DUP1 REVERT JUMPDEST POP JUMP JUMPDEST PUSH0 DUP2 CALLDATALOAD SWAP1 POP PUSH2 0x3C1 DUP2 PUSH2 0x39D JUMP JUMPDEST SWAP3 SWAP2 POP POP JUMP JUMPDEST PUSH0 DUP1 REVERT JUMPDEST PUSH0 DUP1 REVERT JUMPDEST PUSH0 DUP1 REVERT JUMPDEST PUSH0 DUP1 DUP4 PUSH1 0x1F DUP5 ADD SLT PUSH2 0x3E8 JUMPI PUSH2 0x3E7 PUSH2 0x3C7 JUMP JUMPDEST JUMPDEST DUP3 CALLDATALOAD SWAP1 POP PUSH8 0xFFFFFFFFFFFFFFFF DUP2 GT ISZERO PUSH2 0x405 JUMPI PUSH2 0x404 PUSH2 0x3CB JUMP JUMPDEST JUMPDEST PUSH1 0x20 DUP4 ADD SWAP2 POP DUP4 PUSH1 0x1 DUP3 MUL DUP4 ADD GT ISZERO PUSH2 0x421 JUMPI PUSH2 0x420 PUSH2 0x3CF JUMP JUMPDEST JUMPDEST SWAP3 POP SWAP3 SWAP1 POP JUMP JUMPDEST PUSH0 DUP1 PUSH0 DUP1 PUSH0 PUSH1 0x80 DUP7 DUP9 SUB SLT ISZERO PUSH2 0x441 JUMPI PUSH2 0x440 PUSH2 0x332 JUMP JUMPDEST JUMPDEST PUSH0 PUSH2 0x44E DUP9 DUP3 DUP10 ADD PUSH2 0x380 JUMP JUMPDEST SWAP6 POP POP PUSH1 0x20 PUSH2 0x45F DUP9 DUP3 DUP10 ADD PUSH2 0x380 JUMP JUMPDEST SWAP5 POP POP PUSH1 0x40 PUSH2 0x470 DUP9 DUP3 DUP10 ADD PUSH2 0x3B3 JUMP JUMPDEST SWAP4 POP POP PUSH1 0x60 DUP7 ADD CALLDATALOAD PUSH8 0xFFFFFFFFFFFFFFFF DUP2 GT ISZERO PUSH2 0x491 JUMPI PUSH2 0x490 PUSH2 0x336 JUMP JUMPDEST JUMPDEST PUSH2 0x49D DUP9 DUP3 DUP10 ADD PUSH2 0x3D3 JUMP JUMPDEST SWAP3 POP SWAP3 POP POP SWAP3 SWAP6 POP SWAP3 SWAP6 SWAP1 SWAP4 POP JUMP JUMPDEST PUSH0 PUSH32 0xFFFFFFFF00000000000000000000000000000000000000000000000000000000 DUP3 AND SWAP1 POP SWAP2 SWAP1 POP JUMP JUMPDEST PUSH2 0x4E0 DUP2 PUSH2 0x4AC JUMP JUMPDEST DUP3 MSTORE POP POP JUMP JUMPDEST PUSH0 PUSH1 0x20 DUP3 ADD SWAP1 POP PUSH2 0x4F9 PUSH0 DUP4 ADD DUP5 PUSH2 0x4D7 JUMP JUMPDEST SWAP3 SWAP2 POP POP JUMP JUMPDEST PUSH0 DUP2 SWAP1 POP SWAP2 SWAP1 POP JUMP JUMPDEST PUSH0 PUSH2 0x522 PUSH2 0x51D PUSH2 0x518 DUP5 PUSH2 0x33A JUMP JUMPDEST PUSH2 0x4FF JUMP JUMPDEST PUSH2 0x33A JUMP JUMPDEST SWAP1 POP SWAP2 SWAP1 POP JUMP JUMPDEST PUSH0 PUSH2 0x533 DUP3 PUSH2 0x508 JUMP JUMPDEST SWAP1 POP SWAP2 SWAP1 POP JUMP JUMPDEST PUSH0 PUSH2 0x544 DUP3 PUSH2 0x529 JUMP JUMPDEST SWAP1 POP SWAP2 SWAP1 POP JUMP JUMPDEST PUSH2 0x554 DUP2 PUSH2 0x53A JUMP JUMPDEST DUP3 MSTORE POP POP JUMP JUMPDEST PUSH0 PUSH1 0x20 DUP3 ADD SWAP1 POP PUSH2 0x56D PUSH0 DUP4 ADD DUP5 PUSH2 0x54B JUMP JUMPDEST SWAP3 SWAP2 POP POP JUMP JUMPDEST PUSH0 DUP1 PUSH1 0x40 DUP4 DUP6 SUB SLT ISZERO PUSH2 0x589 JUMPI PUSH2 0x588 PUSH2 0x332 JUMP JUMPDEST JUMPDEST PUSH0 PUSH2 0x596 DUP6 DUP3 DUP7 ADD PUSH2 0x380 JUMP JUMPDEST SWAP3 POP POP PUSH1 0x20 PUSH2 0x5A7 DUP6 DUP3 DUP7 ADD PUSH2 0x3B3 JUMP JUMPDEST SWAP2 POP POP SWAP3 POP SWAP3 SWAP1 POP JUMP JUMPDEST PUSH0 PUSH1 0x20 DUP3 DUP5 SUB SLT ISZERO PUSH2 0x5C6 JUMPI PUSH2 0x5C5 PUSH2 0x332 JUMP JUMPDEST JUMPDEST PUSH0 PUSH2 0x5D3 DUP5 DUP3 DUP6 ADD PUSH2 0x3B3 JUMP JUMPDEST SWAP2 POP POP SWAP3 SWAP2 POP POP JUMP JUMPDEST PUSH0 DUP2 ISZERO ISZERO SWAP1 POP SWAP2 SWAP1 POP JUMP JUMPDEST PUSH2 0x5F0 DUP2 PUSH2 0x5DC JUMP JUMPDEST DUP3 MSTORE POP POP JUMP JUMPDEST PUSH0 PUSH1 0x20 DUP3 ADD SWAP1 POP PUSH2 0x609 PUSH0 DUP4 ADD DUP5 PUSH2 0x5E7 JUMP JUMPDEST SWAP3 SWAP2 POP POP JUMP JUMPDEST PUSH0 DUP3 DUP3 MSTORE PUSH1 0x20 DUP3 ADD SWAP1 POP SWAP3 SWAP2 POP POP JUMP JUMPDEST DUP3 DUP2 DUP4 CALLDATACOPY PUSH0 DUP4 DUP4 ADD MSTORE POP POP POP JUMP JUMPDEST PUSH0 PUSH1 0x1F NOT PUSH1 0x1F DUP4 ADD AND SWAP1 POP SWAP2 SWAP1 POP JUMP JUMPDEST PUSH0 PUSH2 0x648 DUP4 DUP6 PUSH2 0x60F JUMP JUMPDEST SWAP4 POP PUSH2 0x655 DUP4 DUP6 DUP5 PUSH2 0x61F JUMP JUMPDEST PUSH2 0x65E DUP4 PUSH2 0x62D JUMP JUMPDEST DUP5 ADD SWAP1 POP SWAP4 SWAP3 POP POP POP JUMP JUMPDEST PUSH0 PUSH1 0x20 DUP3 ADD SWAP1 POP DUP2 DUP2 SUB PUSH0 DUP4 ADD MSTORE PUSH2 0x682 DUP2 DUP5 DUP7 PUSH2 0x63D JUMP JUMPDEST SWAP1 POP SWAP4 SWAP3 POP POP POP JUMP JUMPDEST PUSH0 DUP3 DUP3 MSTORE PUSH1 0x20 DUP3 ADD SWAP1 POP SWAP3 SWAP2 POP POP JUMP JUMPDEST PUSH32 0x6E6F742068617665207468697320746F6B656E49640000000000000000000000 PUSH0 DUP3 ADD MSTORE POP JUMP JUMPDEST PUSH0 PUSH2 0x6CF PUSH1 0x15 DUP4 PUSH2 0x68B JUMP JUMPDEST SWAP2 POP PUSH2 0x6DA DUP3 PUSH2 0x69B JUMP JUMPDEST PUSH1 0x20 DUP3 ADD SWAP1 POP SWAP2 SWAP1 POP JUMP JUMPDEST PUSH0 PUSH1 0x20 DUP3 ADD SWAP1 POP DUP2 DUP2 SUB PUSH0 DUP4 ADD MSTORE PUSH2 0x6FC DUP2 PUSH2 0x6C3 JUMP JUMPDEST SWAP1 POP SWAP2 SWAP1 POP JUMP JUMPDEST PUSH2 0x70C DUP2 PUSH2 0x359 JUMP JUMPDEST DUP3 MSTORE POP POP JUMP JUMPDEST PUSH2 0x71B DUP2 PUSH2 0x394 JUMP JUMPDEST DUP3 MSTORE POP POP JUMP JUMPDEST PUSH0 PUSH1 0x60 DUP3 ADD SWAP1 POP PUSH2 0x734 PUSH0 DUP4 ADD DUP7 PUSH2 0x703 JUMP JUMPDEST PUSH2 0x741 PUSH1 0x20 DUP4 ADD DUP6 PUSH2 0x703 JUMP JUMPDEST PUSH2 0x74E PUSH1 0x40 DUP4 ADD DUP5 PUSH2 0x712 JUMP JUMPDEST SWAP5 SWAP4 POP POP POP POP JUMP INVALID LOG2 PUSH5 0x6970667358 0x22 SLT KECCAK256 SWAP2 SWAP10 COINBASE 0xAF 0xDB 0xE6 0xE7 EQ 0xD0 SIGNEXTEND 0x24 CALLDATALOAD 0xCB 0xDC 0x27 MULMOD 0x1F PUSH28 0x77C3E547363943440893384CDD4264736F6C634300081A0033000000 "
		},
		"gasEstimates": {
			"creation": {
				"codeDepositCost": "386400",
				"executionCost": "infinite",
				"totalCost": "infinite"
			},
			"external": {
				"nft()": "infinite",
				"onERC721Received(address,address,uint256,bytes)": "infinite",
				"receivedTokens(uint256)": "2829",
				"transfer(address,uint256)": "infinite"
			}
		},
		"methodIdentifiers": {
			"nft()": "47ccca02",
			"onERC721Received(address,address,uint256,bytes)": "150b7a02",
			"receivedTokens(uint256)": "d7791e26",
			"transfer(address,uint256)": "a9059cbb"
		}
	},
	"abi": [
		{
			"inputs": [
				{
					"internalType": "address",
					"name": "nftAddress",
					"type": "address"
				}
			],
			"stateMutability": "nonpayable",
			"type": "constructor"
		},
		{
			"anonymous": false,
			"inputs": [
				{
					"indexed": true,
					"internalType": "address",
					"name": "from",
					"type": "address"
				},
				{
					"indexed": true,
					"internalType": "address",
					"name": "to",
					"type": "address"
				},
				{
					"indexed": true,
					"internalType": "uint256",
					"name": "tokenId",
					"type": "uint256"
				}
			],
			"name": "MESTransfer",
			"type": "event"
		},
		{
			"anonymous": false,
			"inputs": [
				{
					"indexed": true,
					"internalType": "address",
					"name": "operator",
					"type": "address"
				},
				{
					"indexed": true,
					"internalType": "address",
					"name": "from",
					"type": "address"
				},
				{
					"indexed": true,
					"internalType": "uint256",
					"name": "tokenId",
					"type": "uint256"
				},
				{
					"indexed": false,
					"internalType": "bytes",
					"name": "data",
					"type": "bytes"
				}
			],
			"name": "NFTReceved",
			"type": "event"
		},
		{
			"anonymous": false,
			"inputs": [
				{
					"indexed": true,
					"internalType": "address",
					"name": "to",
					"type": "address"
				},
				{
					"indexed": true,
					"internalType": "uint256",
					"name": "tokenId",
					"type": "uint256"
				}
			],
			"name": "NFTTransfer",
			"type": "event"
		},
		{
			"inputs": [],
			"name": "nft",
			"outputs": [
				{
					"internalType": "contract IERC721",
					"name": "",
					"type": "address"
				}
			],
			"stateMutability": "view",
			"type": "function"
		},
		{
			"inputs": [
				{
					"internalType": "address",
					"name": "operator",
					"type": "address"
				},
				{
					"internalType": "address",
					"name": "from",
					"type": "address"
				},
				{
					"internalType": "uint256",
					"name": "tokenId",
					"type": "uint256"
				},
				{
					"internalType": "bytes",
					"name": "data",
					"type": "bytes"
				}
			],
			"name": "onERC721Received",
			"outputs": [
				{
					"internalType": "bytes4",
					"name": "",
					"type": "bytes4"
				}
			],
			"stateMutability": "nonpayable",
			"type": "function"
		},
		{
			"inputs": [
				{
					"internalType": "uint256",
					"name": "",
					"type": "uint256"
				}
			],
			"name": "receivedTokens",
			"outputs": [
				{
					"internalType": "bool",
					"name": "",
					"type": "bool"
				}
			],
			"stateMutability": "view",
			"type": "function"
		},
		{
			"inputs": [
				{
					"internalType": "address",
					"name": "to",
					"type": "address"
				},
				{
					"internalType": "uint256",
					"name": "tokenId",
					"type": "uint256"
				}
			],
			"name": "transfer",
			"outputs": [],
			"stateMutability": "nonpayable",
			"type": "function"
		}
	]
}