{
	"data": {
		"bytecode": {
			"linkReferences": {},
			"object": "608060405234801561000f575f80fd5b50604051610457380380610457833981810160405281019061003191906100d6565b80805f806101000a81548173ffffffffffffffffffffffffffffffffffffffff021916908373ffffffffffffffffffffffffffffffffffffffff1602179055505050610101565b5f80fd5b5f73ffffffffffffffffffffffffffffffffffffffff82169050919050565b5f6100a58261007c565b9050919050565b6100b58161009b565b81146100bf575f80fd5b50565b5f815190506100d0816100ac565b92915050565b5f602082840312156100eb576100ea610078565b5b5f6100f8848285016100c2565b91505092915050565b6103498061010e5f395ff3fe608060405234801561000f575f80fd5b5060043610610034575f3560e01c806347ccca0214610038578063a9059cbb14610056575b5f80fd5b610040610072565b60405161004d91906101f7565b60405180910390f35b610070600480360381019061006b9190610282565b610095565b005b5f8054906101000a900473ffffffffffffffffffffffffffffffffffffffff1681565b808273ffffffffffffffffffffffffffffffffffffffff163373ffffffffffffffffffffffffffffffffffffffff167f380bee30069c3d4a0a3e3d23e71e7aebb6d463faaf03123547051c60b43277fc60405160405180910390a45f8054906101000a900473ffffffffffffffffffffffffffffffffffffffff1673ffffffffffffffffffffffffffffffffffffffff166342842e0e3384846040518463ffffffff1660e01b815260040161014c939291906102de565b5f604051808303815f87803b158015610163575f80fd5b505af1158015610175573d5f803e3d5ffd5b505050505050565b5f73ffffffffffffffffffffffffffffffffffffffff82169050919050565b5f819050919050565b5f6101bf6101ba6101b58461017d565b61019c565b61017d565b9050919050565b5f6101d0826101a5565b9050919050565b5f6101e1826101c6565b9050919050565b6101f1816101d7565b82525050565b5f60208201905061020a5f8301846101e8565b92915050565b5f80fd5b5f61021e8261017d565b9050919050565b61022e81610214565b8114610238575f80fd5b50565b5f8135905061024981610225565b92915050565b5f819050919050565b6102618161024f565b811461026b575f80fd5b50565b5f8135905061027c81610258565b92915050565b5f806040838503121561029857610297610210565b5b5f6102a58582860161023b565b92505060206102b68582860161026e565b9150509250929050565b6102c981610214565b82525050565b6102d88161024f565b82525050565b5f6060820190506102f15f8301866102c0565b6102fe60208301856102c0565b61030b60408301846102cf565b94935050505056fea2646970667358221220a704b76f07c450803a7e4671117618b06ca694d520c7f517b11fdae0d804b46764736f6c634300081a0033",
			"opcodes": "PUSH1 0x80 PUSH1 0x40 MSTORE CALLVALUE DUP1 ISZERO PUSH2 0xF JUMPI PUSH0 DUP1 REVERT JUMPDEST POP PUSH1 0x40 MLOAD PUSH2 0x457 CODESIZE SUB DUP1 PUSH2 0x457 DUP4 CODECOPY DUP2 DUP2 ADD PUSH1 0x40 MSTORE DUP2 ADD SWAP1 PUSH2 0x31 SWAP2 SWAP1 PUSH2 0xD6 JUMP JUMPDEST DUP1 DUP1 PUSH0 DUP1 PUSH2 0x100 EXP DUP2 SLOAD DUP2 PUSH20 0xFFFFFFFFFFFFFFFFFFFFFFFFFFFFFFFFFFFFFFFF MUL NOT AND SWAP1 DUP4 PUSH20 0xFFFFFFFFFFFFFFFFFFFFFFFFFFFFFFFFFFFFFFFF AND MUL OR SWAP1 SSTORE POP POP POP PUSH2 0x101 JUMP JUMPDEST PUSH0 DUP1 REVERT JUMPDEST PUSH0 PUSH20 0xFFFFFFFFFFFFFFFFFFFFFFFFFFFFFFFFFFFFFFFF DUP3 AND SWAP1 POP SWAP2 SWAP1 POP JUMP JUMPDEST PUSH0 PUSH2 0xA5 DUP3 PUSH2 0x7C JUMP JUMPDEST SWAP1 POP SWAP2 SWAP1 POP JUMP JUMPDEST PUSH2 0xB5 DUP2 PUSH2 0x9B JUMP JUMPDEST DUP2 EQ PUSH2 0xBF JUMPI PUSH0 DUP1 REVERT JUMPDEST POP JUMP JUMPDEST PUSH0 DUP2 MLOAD SWAP1 POP PUSH2 0xD0 DUP2 PUSH2 0xAC JUMP JUMPDEST SWAP3 SWAP2 POP POP JUMP JUMPDEST PUSH0 PUSH1 0x20 DUP3 DUP5 SUB SLT ISZERO PUSH2 0xEB JUMPI PUSH2 0xEA PUSH2 0x78 JUMP JUMPDEST JUMPDEST PUSH0 PUSH2 0xF8 DUP5 DUP3 DUP6 ADD PUSH2 0xC2 JUMP JUMPDEST SWAP2 POP POP SWAP3 SWAP2 POP POP JUMP JUMPDEST PUSH2 0x349 DUP1 PUSH2 0x10E PUSH0 CODECOPY PUSH0 RETURN INVALID PUSH1 0x80 PUSH1 0x40 MSTORE CALLVALUE DUP1 ISZERO PUSH2 0xF JUMPI PUSH0 DUP1 REVERT JUMPDEST POP PUSH1 0x4 CALLDATASIZE LT PUSH2 0x34 JUMPI PUSH0 CALLDATALOAD PUSH1 0xE0 SHR DUP1 PUSH4 0x47CCCA02 EQ PUSH2 0x38 JUMPI DUP1 PUSH4 0xA9059CBB EQ PUSH2 0x56 JUMPI JUMPDEST PUSH0 DUP1 REVERT JUMPDEST PUSH2 0x40 PUSH2 0x72 JUMP JUMPDEST PUSH1 0x40 MLOAD PUSH2 0x4D SWAP2 SWAP1 PUSH2 0x1F7 JUMP JUMPDEST PUSH1 0x40 MLOAD DUP1 SWAP2 SUB SWAP1 RETURN JUMPDEST PUSH2 0x70 PUSH1 0x4 DUP1 CALLDATASIZE SUB DUP2 ADD SWAP1 PUSH2 0x6B SWAP2 SWAP1 PUSH2 0x282 JUMP JUMPDEST PUSH2 0x95 JUMP JUMPDEST STOP JUMPDEST PUSH0 DUP1 SLOAD SWAP1 PUSH2 0x100 EXP SWAP1 DIV PUSH20 0xFFFFFFFFFFFFFFFFFFFFFFFFFFFFFFFFFFFFFFFF AND DUP2 JUMP JUMPDEST DUP1 DUP3 PUSH20 0xFFFFFFFFFFFFFFFFFFFFFFFFFFFFFFFFFFFFFFFF AND CALLER PUSH20 0xFFFFFFFFFFFFFFFFFFFFFFFFFFFFFFFFFFFFFFFF AND PUSH32 0x380BEE30069C3D4A0A3E3D23E71E7AEBB6D463FAAF03123547051C60B43277FC PUSH1 0x40 MLOAD PUSH1 0x40 MLOAD DUP1 SWAP2 SUB SWAP1 LOG4 PUSH0 DUP1 SLOAD SWAP1 PUSH2 0x100 EXP SWAP1 DIV PUSH20 0xFFFFFFFFFFFFFFFFFFFFFFFFFFFFFFFFFFFFFFFF AND PUSH20 0xFFFFFFFFFFFFFFFFFFFFFFFFFFFFFFFFFFFFFFFF AND PUSH4 0x42842E0E CALLER DUP5 DUP5 PUSH1 0x40 MLOAD DUP5 PUSH4 0xFFFFFFFF AND PUSH1 0xE0 SHL DUP2 MSTORE PUSH1 0x4 ADD PUSH2 0x14C SWAP4 SWAP3 SWAP2 SWAP1 PUSH2 0x2DE JUMP JUMPDEST PUSH0 PUSH1 0x40 MLOAD DUP1 DUP4 SUB DUP2 PUSH0 DUP8 DUP1 EXTCODESIZE ISZERO DUP1 ISZERO PUSH2 0x163 JUMPI PUSH0 DUP1 REVERT JUMPDEST POP GAS CALL ISZERO DUP1 ISZERO PUSH2 0x175 JUMPI RETURNDATASIZE PUSH0 DUP1 RETURNDATACOPY RETURNDATASIZE PUSH0 REVERT JUMPDEST POP POP POP POP POP POP JUMP JUMPDEST PUSH0 PUSH20 0xFFFFFFFFFFFFFFFFFFFFFFFFFFFFFFFFFFFFFFFF DUP3 AND SWAP1 POP SWAP2 SWAP1 POP JUMP JUMPDEST PUSH0 DUP2 SWAP1 POP SWAP2 SWAP1 POP JUMP JUMPDEST PUSH0 PUSH2 0x1BF PUSH2 0x1BA PUSH2 0x1B5 DUP5 PUSH2 0x17D JUMP JUMPDEST PUSH2 0x19C JUMP JUMPDEST PUSH2 0x17D JUMP JUMPDEST SWAP1 POP SWAP2 SWAP1 POP JUMP JUMPDEST PUSH0 PUSH2 0x1D0 DUP3 PUSH2 0x1A5 JUMP JUMPDEST SWAP1 POP SWAP2 SWAP1 POP JUMP JUMPDEST PUSH0 PUSH2 0x1E1 DUP3 PUSH2 0x1C6 JUMP JUMPDEST SWAP1 POP SWAP2 SWAP1 POP JUMP JUMPDEST PUSH2 0x1F1 DUP2 PUSH2 0x1D7 JUMP JUMPDEST DUP3 MSTORE POP POP JUMP JUMPDEST PUSH0 PUSH1 0x20 DUP3 ADD SWAP1 POP PUSH2 0x20A PUSH0 DUP4 ADD DUP5 PUSH2 0x1E8 JUMP JUMPDEST SWAP3 SWAP2 POP POP JUMP JUMPDEST PUSH0 DUP1 REVERT JUMPDEST PUSH0 PUSH2 0x21E DUP3 PUSH2 0x17D JUMP JUMPDEST SWAP1 POP SWAP2 SWAP1 POP JUMP JUMPDEST PUSH2 0x22E DUP2 PUSH2 0x214 JUMP JUMPDEST DUP2 EQ PUSH2 0x238 JUMPI PUSH0 DUP1 REVERT JUMPDEST POP JUMP JUMPDEST PUSH0 DUP2 CALLDATALOAD SWAP1 POP PUSH2 0x249 DUP2 PUSH2 0x225 JUMP JUMPDEST SWAP3 SWAP2 POP POP JUMP JUMPDEST PUSH0 DUP2 SWAP1 POP SWAP2 SWAP1 POP JUMP JUMPDEST PUSH2 0x261 DUP2 PUSH2 0x24F JUMP JUMPDEST DUP2 EQ PUSH2 0x26B JUMPI PUSH0 DUP1 REVERT JUMPDEST POP JUMP JUMPDEST PUSH0 DUP2 CALLDATALOAD SWAP1 POP PUSH2 0x27C DUP2 PUSH2 0x258 JUMP JUMPDEST SWAP3 SWAP2 POP POP JUMP JUMPDEST PUSH0 DUP1 PUSH1 0x40 DUP4 DUP6 SUB SLT ISZERO PUSH2 0x298 JUMPI PUSH2 0x297 PUSH2 0x210 JUMP JUMPDEST JUMPDEST PUSH0 PUSH2 0x2A5 DUP6 DUP3 DUP7 ADD PUSH2 0x23B JUMP JUMPDEST SWAP3 POP POP PUSH1 0x20 PUSH2 0x2B6 DUP6 DUP3 DUP7 ADD PUSH2 0x26E JUMP JUMPDEST SWAP2 POP POP SWAP3 POP SWAP3 SWAP1 POP JUMP JUMPDEST PUSH2 0x2C9 DUP2 PUSH2 0x214 JUMP JUMPDEST DUP3 MSTORE POP POP JUMP JUMPDEST PUSH2 0x2D8 DUP2 PUSH2 0x24F JUMP JUMPDEST DUP3 MSTORE POP POP JUMP JUMPDEST PUSH0 PUSH1 0x60 DUP3 ADD SWAP1 POP PUSH2 0x2F1 PUSH0 DUP4 ADD DUP7 PUSH2 0x2C0 JUMP JUMPDEST PUSH2 0x2FE PUSH1 0x20 DUP4 ADD DUP6 PUSH2 0x2C0 JUMP JUMPDEST PUSH2 0x30B PUSH1 0x40 DUP4 ADD DUP5 PUSH2 0x2CF JUMP JUMPDEST SWAP5 SWAP4 POP POP POP POP JUMP INVALID LOG2 PUSH5 0x6970667358 0x22 SLT KECCAK256 0xA7 DIV 0xB7 PUSH16 0x7C450803A7E4671117618B06CA694D5 KECCAK256 0xC7 CREATE2 OR 0xB1 0x1F 0xDA 0xE0 0xD8 DIV 0xB4 PUSH8 0x64736F6C63430008 BYTE STOP CALLER "
		},
		"gasEstimates": {
			"creation": {
				"codeDepositCost": "168200",
				"executionCost": "infinite",
				"totalCost": "infinite"
			},
			"external": {
				"nft()": "infinite",
				"transfer(address,uint256)": "infinite"
			}
		},
		"methodIdentifiers": {
			"nft()": "47ccca02",
			"transfer(address,uint256)": "a9059cbb"
		}
	},
	"abi": [
		{
			"inputs": [
				{
					"internalType": "address",
					"name": "nftAddress",
					"type": "address"
				}
			],
			"stateMutability": "nonpayable",
			"type": "constructor"
		},
		{
			"anonymous": false,
			"inputs": [
				{
					"indexed": true,
					"internalType": "address",
					"name": "from",
					"type": "address"
				},
				{
					"indexed": true,
					"internalType": "address",
					"name": "to",
					"type": "address"
				},
				{
					"indexed": true,
					"internalType": "uint256",
					"name": "tokenId",
					"type": "uint256"
				}
			],
			"name": "MESTransfer",
			"type": "event"
		},
		{
			"inputs": [],
			"name": "nft",
			"outputs": [
				{
					"internalType": "contract IERC721",
					"name": "",
					"type": "address"
				}
			],
			"stateMutability": "view",
			"type": "function"
		},
		{
			"inputs": [
				{
					"internalType": "address",
					"name": "to",
					"type": "address"
				},
				{
					"internalType": "uint256",
					"name": "tokenId",
					"type": "uint256"
				}
			],
			"name": "transfer",
			"outputs": [],
			"stateMutability": "nonpayable",
			"type": "function"
		}
	]
}