{
	"data": {
		"bytecode": {
			"linkReferences": {},
			"object": "608060405234801561000f575f80fd5b506040516105ad3803806105ad83398181016040528101906100319190610122565b5f8103610073576040517f08c379a000000000000000000000000000000000000000000000000000000000815260040161006a906101a7565b60405180910390fd5b60018103610084576100836101c5565b5b60038103610090575f80fd5b600481036100a2575f6100a1575f80fd5b5b600581036100e5576040517f1d2373b40000000000000000000000000000000000000000000000000000000081526004016100dc9061023c565b60405180910390fd5b5061025a565b5f80fd5b5f819050919050565b610101816100ef565b811461010b575f80fd5b50565b5f8151905061011c816100f8565b92915050565b5f60208284031215610137576101366100eb565b5b5f6101448482850161010e565b91505092915050565b5f82825260208201905092915050565b7f6e756d2063616e206e6f74206265207a65726f000000000000000000000000005f82015250565b5f61019160138361014d565b915061019c8261015d565b602082019050919050565b5f6020820190508181035f8301526101be81610185565b9050919050565b7f4e487b71000000000000000000000000000000000000000000000000000000005f52600160045260245ffd5b7f6e756d2063616e206e6f742062652074687265650000000000000000000000005f82015250565b5f61022660148361014d565b9150610231826101f2565b602082019050919050565b5f6020820190508181035f8301526102538161021a565b9050919050565b610346806102675f395ff3fe608060405234801561000f575f80fd5b5060043610610029575f3560e01c8063e4968db91461002d575b5f80fd5b61004760048036038101906100429190610134565b61005d565b604051610054919061016e565b60405180910390f35b5f600182036100a1576040517f08c379a000000000000000000000000000000000000000000000000000000000815260040161009890610207565b60405180910390fd5b5f82600a6100af9190610252565b9050600383036100f4576040517f8f0bd2e60000000000000000000000000000000000000000000000000000000081526004016100eb906102f2565b60405180910390fd5b80915050919050565b5f80fd5b5f819050919050565b61011381610101565b811461011d575f80fd5b50565b5f8135905061012e8161010a565b92915050565b5f60208284031215610149576101486100fd565b5b5f61015684828501610120565b91505092915050565b61016881610101565b82525050565b5f6020820190506101815f83018461015f565b92915050565b5f82825260208201905092915050565b7f746865206e756d2063616e206e6f7420657175616c73207a65726f20696e206d5f8201527f696768744661696c2066756e6374696f6e000000000000000000000000000000602082015250565b5f6101f1603183610187565b91506101fc82610197565b604082019050919050565b5f6020820190508181035f83015261021e816101e5565b9050919050565b7f4e487b71000000000000000000000000000000000000000000000000000000005f52601260045260245ffd5b5f61025c82610101565b915061026783610101565b92508261027757610276610225565b5b828204905092915050565b7f6d696768744661696c20706172616d2063616e206e6f7420657175616c7320745f8201527f6872656500000000000000000000000000000000000000000000000000000000602082015250565b5f6102dc602483610187565b91506102e782610282565b604082019050919050565b5f6020820190508181035f830152610309816102d0565b905091905056fea2646970667358221220262df4aebe692a7d8031e5393ad7d812e22ebbecd2cd001d2f726e514356bda464736f6c634300081a0033",
			"opcodes": "PUSH1 0x80 PUSH1 0x40 MSTORE CALLVALUE DUP1 ISZERO PUSH2 0xF JUMPI PUSH0 DUP1 REVERT JUMPDEST POP PUSH1 0x40 MLOAD PUSH2 0x5AD CODESIZE SUB DUP1 PUSH2 0x5AD DUP4 CODECOPY DUP2 DUP2 ADD PUSH1 0x40 MSTORE DUP2 ADD SWAP1 PUSH2 0x31 SWAP2 SWAP1 PUSH2 0x122 JUMP JUMPDEST PUSH0 DUP2 SUB PUSH2 0x73 JUMPI PUSH1 0x40 MLOAD PUSH32 0x8C379A000000000000000000000000000000000000000000000000000000000 DUP2 MSTORE PUSH1 0x4 ADD PUSH2 0x6A SWAP1 PUSH2 0x1A7 JUMP JUMPDEST PUSH1 0x40 MLOAD DUP1 SWAP2 SUB SWAP1 REVERT JUMPDEST PUSH1 0x1 DUP2 SUB PUSH2 0x84 JUMPI PUSH2 0x83 PUSH2 0x1C5 JUMP JUMPDEST JUMPDEST PUSH1 0x3 DUP2 SUB PUSH2 0x90 JUMPI PUSH0 DUP1 REVERT JUMPDEST PUSH1 0x4 DUP2 SUB PUSH2 0xA2 JUMPI PUSH0 PUSH2 0xA1 JUMPI PUSH0 DUP1 REVERT JUMPDEST JUMPDEST PUSH1 0x5 DUP2 SUB PUSH2 0xE5 JUMPI PUSH1 0x40 MLOAD PUSH32 0x1D2373B400000000000000000000000000000000000000000000000000000000 DUP2 MSTORE PUSH1 0x4 ADD PUSH2 0xDC SWAP1 PUSH2 0x23C JUMP JUMPDEST PUSH1 0x40 MLOAD DUP1 SWAP2 SUB SWAP1 REVERT JUMPDEST POP PUSH2 0x25A JUMP JUMPDEST PUSH0 DUP1 REVERT JUMPDEST PUSH0 DUP2 SWAP1 POP SWAP2 SWAP1 POP JUMP JUMPDEST PUSH2 0x101 DUP2 PUSH2 0xEF JUMP JUMPDEST DUP2 EQ PUSH2 0x10B JUMPI PUSH0 DUP1 REVERT JUMPDEST POP JUMP JUMPDEST PUSH0 DUP2 MLOAD SWAP1 POP PUSH2 0x11C DUP2 PUSH2 0xF8 JUMP JUMPDEST SWAP3 SWAP2 POP POP JUMP JUMPDEST PUSH0 PUSH1 0x20 DUP3 DUP5 SUB SLT ISZERO PUSH2 0x137 JUMPI PUSH2 0x136 PUSH2 0xEB JUMP JUMPDEST JUMPDEST PUSH0 PUSH2 0x144 DUP5 DUP3 DUP6 ADD PUSH2 0x10E JUMP JUMPDEST SWAP2 POP POP SWAP3 SWAP2 POP POP JUMP JUMPDEST PUSH0 DUP3 DUP3 MSTORE PUSH1 0x20 DUP3 ADD SWAP1 POP SWAP3 SWAP2 POP POP JUMP JUMPDEST PUSH32 0x6E756D2063616E206E6F74206265207A65726F00000000000000000000000000 PUSH0 DUP3 ADD MSTORE POP JUMP JUMPDEST PUSH0 PUSH2 0x191 PUSH1 0x13 DUP4 PUSH2 0x14D JUMP JUMPDEST SWAP2 POP PUSH2 0x19C DUP3 PUSH2 0x15D JUMP JUMPDEST PUSH1 0x20 DUP3 ADD SWAP1 POP SWAP2 SWAP1 POP JUMP JUMPDEST PUSH0 PUSH1 0x20 DUP3 ADD SWAP1 POP DUP2 DUP2 SUB PUSH0 DUP4 ADD MSTORE PUSH2 0x1BE DUP2 PUSH2 0x185 JUMP JUMPDEST SWAP1 POP SWAP2 SWAP1 POP JUMP JUMPDEST PUSH32 0x4E487B7100000000000000000000000000000000000000000000000000000000 PUSH0 MSTORE PUSH1 0x1 PUSH1 0x4 MSTORE PUSH1 0x24 PUSH0 REVERT JUMPDEST PUSH32 0x6E756D2063616E206E6F74206265207468726565000000000000000000000000 PUSH0 DUP3 ADD MSTORE POP JUMP JUMPDEST PUSH0 PUSH2 0x226 PUSH1 0x14 DUP4 PUSH2 0x14D JUMP JUMPDEST SWAP2 POP PUSH2 0x231 DUP3 PUSH2 0x1F2 JUMP JUMPDEST PUSH1 0x20 DUP3 ADD SWAP1 POP SWAP2 SWAP1 POP JUMP JUMPDEST PUSH0 PUSH1 0x20 DUP3 ADD SWAP1 POP DUP2 DUP2 SUB PUSH0 DUP4 ADD MSTORE PUSH2 0x253 DUP2 PUSH2 0x21A JUMP JUMPDEST SWAP1 POP SWAP2 SWAP1 POP JUMP JUMPDEST PUSH2 0x346 DUP1 PUSH2 0x267 PUSH0 CODECOPY PUSH0 RETURN INVALID PUSH1 0x80 PUSH1 0x40 MSTORE CALLVALUE DUP1 ISZERO PUSH2 0xF JUMPI PUSH0 DUP1 REVERT JUMPDEST POP PUSH1 0x4 CALLDATASIZE LT PUSH2 0x29 JUMPI PUSH0 CALLDATALOAD PUSH1 0xE0 SHR DUP1 PUSH4 0xE4968DB9 EQ PUSH2 0x2D JUMPI JUMPDEST PUSH0 DUP1 REVERT JUMPDEST PUSH2 0x47 PUSH1 0x4 DUP1 CALLDATASIZE SUB DUP2 ADD SWAP1 PUSH2 0x42 SWAP2 SWAP1 PUSH2 0x134 JUMP JUMPDEST PUSH2 0x5D JUMP JUMPDEST PUSH1 0x40 MLOAD PUSH2 0x54 SWAP2 SWAP1 PUSH2 0x16E JUMP JUMPDEST PUSH1 0x40 MLOAD DUP1 SWAP2 SUB SWAP1 RETURN JUMPDEST PUSH0 PUSH1 0x1 DUP3 SUB PUSH2 0xA1 JUMPI PUSH1 0x40 MLOAD PUSH32 0x8C379A000000000000000000000000000000000000000000000000000000000 DUP2 MSTORE PUSH1 0x4 ADD PUSH2 0x98 SWAP1 PUSH2 0x207 JUMP JUMPDEST PUSH1 0x40 MLOAD DUP1 SWAP2 SUB SWAP1 REVERT JUMPDEST PUSH0 DUP3 PUSH1 0xA PUSH2 0xAF SWAP2 SWAP1 PUSH2 0x252 JUMP JUMPDEST SWAP1 POP PUSH1 0x3 DUP4 SUB PUSH2 0xF4 JUMPI PUSH1 0x40 MLOAD PUSH32 0x8F0BD2E600000000000000000000000000000000000000000000000000000000 DUP2 MSTORE PUSH1 0x4 ADD PUSH2 0xEB SWAP1 PUSH2 0x2F2 JUMP JUMPDEST PUSH1 0x40 MLOAD DUP1 SWAP2 SUB SWAP1 REVERT JUMPDEST DUP1 SWAP2 POP POP SWAP2 SWAP1 POP JUMP JUMPDEST PUSH0 DUP1 REVERT JUMPDEST PUSH0 DUP2 SWAP1 POP SWAP2 SWAP1 POP JUMP JUMPDEST PUSH2 0x113 DUP2 PUSH2 0x101 JUMP JUMPDEST DUP2 EQ PUSH2 0x11D JUMPI PUSH0 DUP1 REVERT JUMPDEST POP JUMP JUMPDEST PUSH0 DUP2 CALLDATALOAD SWAP1 POP PUSH2 0x12E DUP2 PUSH2 0x10A JUMP JUMPDEST SWAP3 SWAP2 POP POP JUMP JUMPDEST PUSH0 PUSH1 0x20 DUP3 DUP5 SUB SLT ISZERO PUSH2 0x149 JUMPI PUSH2 0x148 PUSH2 0xFD JUMP JUMPDEST JUMPDEST PUSH0 PUSH2 0x156 DUP5 DUP3 DUP6 ADD PUSH2 0x120 JUMP JUMPDEST SWAP2 POP POP SWAP3 SWAP2 POP POP JUMP JUMPDEST PUSH2 0x168 DUP2 PUSH2 0x101 JUMP JUMPDEST DUP3 MSTORE POP POP JUMP JUMPDEST PUSH0 PUSH1 0x20 DUP3 ADD SWAP1 POP PUSH2 0x181 PUSH0 DUP4 ADD DUP5 PUSH2 0x15F JUMP JUMPDEST SWAP3 SWAP2 POP POP JUMP JUMPDEST PUSH0 DUP3 DUP3 MSTORE PUSH1 0x20 DUP3 ADD SWAP1 POP SWAP3 SWAP2 POP POP JUMP JUMPDEST PUSH32 0x746865206E756D2063616E206E6F7420657175616C73207A65726F20696E206D PUSH0 DUP3 ADD MSTORE PUSH32 0x696768744661696C2066756E6374696F6E000000000000000000000000000000 PUSH1 0x20 DUP3 ADD MSTORE POP JUMP JUMPDEST PUSH0 PUSH2 0x1F1 PUSH1 0x31 DUP4 PUSH2 0x187 JUMP JUMPDEST SWAP2 POP PUSH2 0x1FC DUP3 PUSH2 0x197 JUMP JUMPDEST PUSH1 0x40 DUP3 ADD SWAP1 POP SWAP2 SWAP1 POP JUMP JUMPDEST PUSH0 PUSH1 0x20 DUP3 ADD SWAP1 POP DUP2 DUP2 SUB PUSH0 DUP4 ADD MSTORE PUSH2 0x21E DUP2 PUSH2 0x1E5 JUMP JUMPDEST SWAP1 POP SWAP2 SWAP1 POP JUMP JUMPDEST PUSH32 0x4E487B7100000000000000000000000000000000000000000000000000000000 PUSH0 MSTORE PUSH1 0x12 PUSH1 0x4 MSTORE PUSH1 0x24 PUSH0 REVERT JUMPDEST PUSH0 PUSH2 0x25C DUP3 PUSH2 0x101 JUMP JUMPDEST SWAP2 POP PUSH2 0x267 DUP4 PUSH2 0x101 JUMP JUMPDEST SWAP3 POP DUP3 PUSH2 0x277 JUMPI PUSH2 0x276 PUSH2 0x225 JUMP JUMPDEST JUMPDEST DUP3 DUP3 DIV SWAP1 POP SWAP3 SWAP2 POP POP JUMP JUMPDEST PUSH32 0x6D696768744661696C20706172616D2063616E206E6F7420657175616C732074 PUSH0 DUP3 ADD MSTORE PUSH32 0x6872656500000000000000000000000000000000000000000000000000000000 PUSH1 0x20 DUP3 ADD MSTORE POP JUMP JUMPDEST PUSH0 PUSH2 0x2DC PUSH1 0x24 DUP4 PUSH2 0x187 JUMP JUMPDEST SWAP2 POP PUSH2 0x2E7 DUP3 PUSH2 0x282 JUMP JUMPDEST PUSH1 0x40 DUP3 ADD SWAP1 POP SWAP2 SWAP1 POP JUMP JUMPDEST PUSH0 PUSH1 0x20 DUP3 ADD SWAP1 POP DUP2 DUP2 SUB PUSH0 DUP4 ADD MSTORE PUSH2 0x309 DUP2 PUSH2 0x2D0 JUMP JUMPDEST SWAP1 POP SWAP2 SWAP1 POP JUMP INVALID LOG2 PUSH5 0x6970667358 0x22 SLT KECCAK256 0x26 0x2D DELEGATECALL 0xAE 0xBE PUSH10 0x2A7D8031E5393AD7D812 0xE2 0x2E 0xBB 0xEC 0xD2 0xCD STOP SAR 0x2F PUSH19 0x6E514356BDA464736F6C634300081A00330000 "
		},
		"gasEstimates": {
			"creation": {
				"codeDepositCost": "167600",
				"executionCost": "infinite",
				"totalCost": "infinite"
			},
			"external": {
				"mightFail(uint256)": "infinite"
			}
		},
		"methodIdentifiers": {
			"mightFail(uint256)": "e4968db9"
		}
	},
	"abi": [
		{
			"inputs": [
				{
					"internalType": "uint256",
					"name": "num",
					"type": "uint256"
				}
			],
			"stateMutability": "nonpayable",
			"type": "constructor"
		},
		{
			"inputs": [
				{
					"internalType": "string",
					"name": "reason",
					"type": "string"
				}
			],
			"name": "ConstructFail",
			"type": "error"
		},
		{
			"inputs": [
				{
					"internalType": "string",
					"name": "reason",
					"type": "string"
				}
			],
			"name": "FunctionFail",
			"type": "error"
		},
		{
			"inputs": [
				{
					"internalType": "uint256",
					"name": "num",
					"type": "uint256"
				}
			],
			"name": "mightFail",
			"outputs": [
				{
					"internalType": "uint256",
					"name": "",
					"type": "uint256"
				}
			],
			"stateMutability": "pure",
			"type": "function"
		}
	]
}