{
	"data": {
		"bytecode": {
			"linkReferences": {},
			"object": "60806040525f80556040518060600160405280600160ff168152602001600260ff168152602001600360ff168152506001906003603c929190604c565b503480156047575f80fd5b5060b0565b828054828255905f5260205f209081019282156088579160200282015b828111156087578251829060ff169055916020019190600101906069565b5b509050609391906097565b5090565b5b8082111560ac575f815f9055506001016098565b5090565b611421806100bd5f395ff3fe6080604052600436106100fd575f3560e01c80637aa1469f116100945780638bb5d9c3116100635780638bb5d9c314610325578063934cbd6814610361578063c79323041461038b578063ec2b45ae14610395578063fbd61553146103d1576100fd565b80637aa1469f1461027757806381b2d07b14610295578063824d5424146102bf5780638ada066e146102fb576100fd565b80632a2acd45116100d05780632a2acd45146101bf5780633761b8f0146101fb578063454ea32a146102255780634b5bb5c01461023b576100fd565b806303ba839814610101578063115a2ed01461013d5780631cdc1ab714610179578063280bd55a146101b5575b5f80fd5b34801561010c575f80fd5b5061012760048036038101906101229190610b1d565b6103fb565b6040516101349190610b6a565b60405180910390f35b348015610148575f80fd5b50610163600480360381019061015e9190610be4565b610493565b6040516101709190610c9f565b60405180910390f35b348015610184575f80fd5b5061019f600480360381019061019a9190610e2a565b6104bf565b6040516101ac9190610f28565b60405180910390f35b6101bd6105c2565b005b3480156101ca575f80fd5b506101e560048036038101906101e09190610e2a565b610619565b6040516101f29190610f28565b60405180910390f35b348015610206575f80fd5b5061020f61076b565b60405161021c9190610b6a565b60405180910390f35b348015610230575f80fd5b5061023961077b565b005b348015610246575f80fd5b50610261600480360381019061025c9190610ff8565b6107d7565b60405161026e9190610c9f565b60405180910390f35b61027f610806565b60405161028c9190610b6a565b60405180910390f35b3480156102a0575f80fd5b506102a9610854565b6040516102b69190610b6a565b60405180910390f35b3480156102ca575f80fd5b506102e560048036038101906102e09190610b1d565b61085b565b6040516102f29190610b6a565b60405180910390f35b348015610306575f80fd5b5061030f610940565b60405161031c9190610b6a565b60405180910390f35b348015610330575f80fd5b5061034b60048036038101906103469190611071565b610948565b60405161035891906110b6565b60405180910390f35b34801561036c575f80fd5b5061037561099a565b6040516103829190610b6a565b60405180910390f35b6103936109aa565b005b3480156103a0575f80fd5b506103bb60048036038101906103b69190611071565b6109c8565b6040516103c89190610b6a565b60405180910390f35b3480156103dc575f80fd5b506103e5610a39565b6040516103f29190610c9f565b60405180910390f35b5f806001805490509050808310610447576040517f08c379a000000000000000000000000000000000000000000000000000000000815260040161043e90611119565b60405180910390fd5b5f60019050848185815481106104605761045f611137565b5b905f5260205f200181905550600184815481106104805761047f611137565b5b905f5260205f2001549250505092915050565b606082826040516020016104a89291906111b8565b604051602081830303815290604052905092915050565b60605f825190505f600190505b818110156105b8575f8482815181106104e8576104e7611137565b5b602002602001015190505f8290505b6001811015801561052d57508186600183610512919061120c565b8151811061052357610522611137565b5b6020026020010151135b1561058b5785600182610540919061120c565b8151811061055157610550611137565b5b602002602001015186828151811061056c5761056b611137565b5b60200260200101818152505080806105839061123f565b9150506104f7565b8186828151811061059f5761059e611137565b5b60200260200101818152505050508060010190506104cc565b5082915050919050565b600180146105d3576105d2611266565b5b633b9aca0080146105e7576105e6611266565b5b670de0b6b3a764000080146105ff576105fe611266565b5b670de0b6b3a7640000801461061757610616611266565b5b565b60605f825190505f600190505b81811015610761575f8085838151811061064357610642611137565b5b602002602001015190505f60018461065b919061120c565b90505b5f811015801561068757508187828151811061067d5761067c611137565b5b6020026020010151135b156106fb5786818151811061069f5761069e611137565b5b6020026020010151876001836106b59190611293565b815181106106c6576106c5611137565b5b6020026020010181815250505f8111156106ed5780806106e59061123f565b9150506106f6565b600192506106fb565b61065e565b82156107265781875f8151811061071557610714611137565b5b602002602001018181525050610753565b81876001836107359190611293565b8151811061074657610745611137565b5b6020026020010181815250505b505050806001019050610626565b5082915050919050565b5f6107766002610a76565b905090565b6001801461078c5761078b611266565b5b603c801461079d5761079c611266565b5b610e1080146107af576107ae611266565b5b6201518080146107c2576107c1611266565b5b62093a8080146107d5576107d4611266565b5b565b60608383836040516020016107ee939291906112f6565b60405160208183030381529060405290509392505050565b5f803490505f811161084d576040517f08c379a000000000000000000000000000000000000000000000000000000000815260040161084490611365565b60405180910390fd5b8091505090565b5f47905090565b5f8060018054905090508083106108a7576040517f08c379a000000000000000000000000000000000000000000000000000000000815260040161089e90611119565b60405180910390fd5b5f60018054806020026020016040519081016040528092919081815260200182805480156108f257602002820191905f5260205f20905b8154815260200190600101908083116108de575b505050505090508481858151811061090d5761090c611137565b5b6020026020010181815250506001848154811061092d5761092c611137565b5b905f5260205f2001549250505092915050565b5f8054905090565b5f80821161098b576040517f08c379a0000000000000000000000000000000000000000000000000000000008152600401610982906113cd565b60405180910390fd5b815f8190555060019050919050565b5f6109a56001610a76565b905090565b633b9aca00670de0b6b3a7640000146109c6576109c5611266565b5b565b5f806001805490509050808310610a14576040517f08c379a0000000000000000000000000000000000000000000000000000000008152600401610a0b90611119565b60405180910390fd5b60018381548110610a2857610a27611137565b5b905f5260205f200154915050919050565b60606040518060400160405280600781526020017f6e6f7468696e6700000000000000000000000000000000000000000000000000815250905090565b5f808211610ab9576040517f08c379a0000000000000000000000000000000000000000000000000000000008152600401610ab0906113cd565b60405180910390fd5b815f80828254610ac99190611293565b925050819055505f549050919050565b5f604051905090565b5f80fd5b5f80fd5b5f819050919050565b610afc81610aea565b8114610b06575f80fd5b50565b5f81359050610b1781610af3565b92915050565b5f8060408385031215610b3357610b32610ae2565b5b5f610b4085828601610b09565b9250506020610b5185828601610b09565b9150509250929050565b610b6481610aea565b82525050565b5f602082019050610b7d5f830184610b5b565b92915050565b5f80fd5b5f80fd5b5f80fd5b5f8083601f840112610ba457610ba3610b83565b5b8235905067ffffffffffffffff811115610bc157610bc0610b87565b5b602083019150836001820283011115610bdd57610bdc610b8b565b5b9250929050565b5f8060208385031215610bfa57610bf9610ae2565b5b5f83013567ffffffffffffffff811115610c1757610c16610ae6565b5b610c2385828601610b8f565b92509250509250929050565b5f81519050919050565b5f82825260208201905092915050565b8281835e5f83830152505050565b5f601f19601f8301169050919050565b5f610c7182610c2f565b610c7b8185610c39565b9350610c8b818560208601610c49565b610c9481610c57565b840191505092915050565b5f6020820190508181035f830152610cb78184610c67565b905092915050565b7f4e487b71000000000000000000000000000000000000000000000000000000005f52604160045260245ffd5b610cf582610c57565b810181811067ffffffffffffffff82111715610d1457610d13610cbf565b5b80604052505050565b5f610d26610ad9565b9050610d328282610cec565b919050565b5f67ffffffffffffffff821115610d5157610d50610cbf565b5b602082029050602081019050919050565b5f819050919050565b610d7481610d62565b8114610d7e575f80fd5b50565b5f81359050610d8f81610d6b565b92915050565b5f610da7610da284610d37565b610d1d565b90508083825260208201905060208402830185811115610dca57610dc9610b8b565b5b835b81811015610df35780610ddf8882610d81565b845260208401935050602081019050610dcc565b5050509392505050565b5f82601f830112610e1157610e10610b83565b5b8135610e21848260208601610d95565b91505092915050565b5f60208284031215610e3f57610e3e610ae2565b5b5f82013567ffffffffffffffff811115610e5c57610e5b610ae6565b5b610e6884828501610dfd565b91505092915050565b5f81519050919050565b5f82825260208201905092915050565b5f819050602082019050919050565b610ea381610d62565b82525050565b5f610eb48383610e9a565b60208301905092915050565b5f602082019050919050565b5f610ed682610e71565b610ee08185610e7b565b9350610eeb83610e8b565b805f5b83811015610f1b578151610f028882610ea9565b9750610f0d83610ec0565b925050600181019050610eee565b5085935050505092915050565b5f6020820190508181035f830152610f408184610ecc565b905092915050565b5f80fd5b5f67ffffffffffffffff821115610f6657610f65610cbf565b5b610f6f82610c57565b9050602081019050919050565b828183375f83830152505050565b5f610f9c610f9784610f4c565b610d1d565b905082815260208101848484011115610fb857610fb7610f48565b5b610fc3848285610f7c565b509392505050565b5f82601f830112610fdf57610fde610b83565b5b8135610fef848260208601610f8a565b91505092915050565b5f805f6040848603121561100f5761100e610ae2565b5b5f84013567ffffffffffffffff81111561102c5761102b610ae6565b5b61103886828701610b8f565b9350935050602084013567ffffffffffffffff81111561105b5761105a610ae6565b5b61106786828701610fcb565b9150509250925092565b5f6020828403121561108657611085610ae2565b5b5f61109384828501610b09565b91505092915050565b5f8115159050919050565b6110b08161109c565b82525050565b5f6020820190506110c95f8301846110a7565b92915050565b7f6f7574206f6620696e64657800000000000000000000000000000000000000005f82015250565b5f611103600c83610c39565b915061110e826110cf565b602082019050919050565b5f6020820190508181035f830152611130816110f7565b9050919050565b7f4e487b71000000000000000000000000000000000000000000000000000000005f52603260045260245ffd5b7f68656c6c6f200000000000000000000000000000000000000000000000000000815250565b5f81905092915050565b5f61119f838561118a565b93506111ac838584610f7c565b82840190509392505050565b5f6111c282611164565b6006820191506111d3828486611194565b91508190509392505050565b7f4e487b71000000000000000000000000000000000000000000000000000000005f52601160045260245ffd5b5f61121682610aea565b915061122183610aea565b9250828203905081811115611239576112386111df565b5b92915050565b5f61124982610aea565b91505f820361125b5761125a6111df565b5b600182039050919050565b7f4e487b71000000000000000000000000000000000000000000000000000000005f52600160045260245ffd5b5f61129d82610aea565b91506112a883610aea565b92508282019050808211156112c0576112bf6111df565b5b92915050565b5f6112d082610c2f565b6112da818561118a565b93506112ea818560208601610c49565b80840191505092915050565b5f611302828587611194565b915061130e82846112c6565b9150819050949350505050565b7f63616e206e6f742067697665206d65206e6f7468696e670000000000000000005f82015250565b5f61134f601783610c39565b915061135a8261131b565b602082019050919050565b5f6020820190508181035f83015261137c81611343565b9050919050565b7f6e756d206d75737420626520706f736974697665206e756d62657200000000005f82015250565b5f6113b7601b83610c39565b91506113c282611383565b602082019050919050565b5f6020820190508181035f8301526113e4816113ab565b905091905056fea2646970667358221220e0d75b526c22cacdf5a750aeaa8e4d98518b79e8a8d7c24895be8de76c20c9ed64736f6c634300081a0033",
			"opcodes": "PUSH1 0x80 PUSH1 0x40 MSTORE PUSH0 DUP1 SSTORE PUSH1 0x40 MLOAD DUP1 PUSH1 0x60 ADD PUSH1 0x40 MSTORE DUP1 PUSH1 0x1 PUSH1 0xFF AND DUP2 MSTORE PUSH1 0x20 ADD PUSH1 0x2 PUSH1 0xFF AND DUP2 MSTORE PUSH1 0x20 ADD PUSH1 0x3 PUSH1 0xFF AND DUP2 MSTORE POP PUSH1 0x1 SWAP1 PUSH1 0x3 PUSH1 0x3C SWAP3 SWAP2 SWAP1 PUSH1 0x4C JUMP JUMPDEST POP CALLVALUE DUP1 ISZERO PUSH1 0x47 JUMPI PUSH0 DUP1 REVERT JUMPDEST POP PUSH1 0xB0 JUMP JUMPDEST DUP3 DUP1 SLOAD DUP3 DUP3 SSTORE SWAP1 PUSH0 MSTORE PUSH1 0x20 PUSH0 KECCAK256 SWAP1 DUP2 ADD SWAP3 DUP3 ISZERO PUSH1 0x88 JUMPI SWAP2 PUSH1 0x20 MUL DUP3 ADD JUMPDEST DUP3 DUP2 GT ISZERO PUSH1 0x87 JUMPI DUP3 MLOAD DUP3 SWAP1 PUSH1 0xFF AND SWAP1 SSTORE SWAP2 PUSH1 0x20 ADD SWAP2 SWAP1 PUSH1 0x1 ADD SWAP1 PUSH1 0x69 JUMP JUMPDEST JUMPDEST POP SWAP1 POP PUSH1 0x93 SWAP2 SWAP1 PUSH1 0x97 JUMP JUMPDEST POP SWAP1 JUMP JUMPDEST JUMPDEST DUP1 DUP3 GT ISZERO PUSH1 0xAC JUMPI PUSH0 DUP2 PUSH0 SWAP1 SSTORE POP PUSH1 0x1 ADD PUSH1 0x98 JUMP JUMPDEST POP SWAP1 JUMP JUMPDEST PUSH2 0x1421 DUP1 PUSH2 0xBD PUSH0 CODECOPY PUSH0 RETURN INVALID PUSH1 0x80 PUSH1 0x40 MSTORE PUSH1 0x4 CALLDATASIZE LT PUSH2 0xFD JUMPI PUSH0 CALLDATALOAD PUSH1 0xE0 SHR DUP1 PUSH4 0x7AA1469F GT PUSH2 0x94 JUMPI DUP1 PUSH4 0x8BB5D9C3 GT PUSH2 0x63 JUMPI DUP1 PUSH4 0x8BB5D9C3 EQ PUSH2 0x325 JUMPI DUP1 PUSH4 0x934CBD68 EQ PUSH2 0x361 JUMPI DUP1 PUSH4 0xC7932304 EQ PUSH2 0x38B JUMPI DUP1 PUSH4 0xEC2B45AE EQ PUSH2 0x395 JUMPI DUP1 PUSH4 0xFBD61553 EQ PUSH2 0x3D1 JUMPI PUSH2 0xFD JUMP JUMPDEST DUP1 PUSH4 0x7AA1469F EQ PUSH2 0x277 JUMPI DUP1 PUSH4 0x81B2D07B EQ PUSH2 0x295 JUMPI DUP1 PUSH4 0x824D5424 EQ PUSH2 0x2BF JUMPI DUP1 PUSH4 0x8ADA066E EQ PUSH2 0x2FB JUMPI PUSH2 0xFD JUMP JUMPDEST DUP1 PUSH4 0x2A2ACD45 GT PUSH2 0xD0 JUMPI DUP1 PUSH4 0x2A2ACD45 EQ PUSH2 0x1BF JUMPI DUP1 PUSH4 0x3761B8F0 EQ PUSH2 0x1FB JUMPI DUP1 PUSH4 0x454EA32A EQ PUSH2 0x225 JUMPI DUP1 PUSH4 0x4B5BB5C0 EQ PUSH2 0x23B JUMPI PUSH2 0xFD JUMP JUMPDEST DUP1 PUSH4 0x3BA8398 EQ PUSH2 0x101 JUMPI DUP1 PUSH4 0x115A2ED0 EQ PUSH2 0x13D JUMPI DUP1 PUSH4 0x1CDC1AB7 EQ PUSH2 0x179 JUMPI DUP1 PUSH4 0x280BD55A EQ PUSH2 0x1B5 JUMPI JUMPDEST PUSH0 DUP1 REVERT JUMPDEST CALLVALUE DUP1 ISZERO PUSH2 0x10C JUMPI PUSH0 DUP1 REVERT JUMPDEST POP PUSH2 0x127 PUSH1 0x4 DUP1 CALLDATASIZE SUB DUP2 ADD SWAP1 PUSH2 0x122 SWAP2 SWAP1 PUSH2 0xB1D JUMP JUMPDEST PUSH2 0x3FB JUMP JUMPDEST PUSH1 0x40 MLOAD PUSH2 0x134 SWAP2 SWAP1 PUSH2 0xB6A JUMP JUMPDEST PUSH1 0x40 MLOAD DUP1 SWAP2 SUB SWAP1 RETURN JUMPDEST CALLVALUE DUP1 ISZERO PUSH2 0x148 JUMPI PUSH0 DUP1 REVERT JUMPDEST POP PUSH2 0x163 PUSH1 0x4 DUP1 CALLDATASIZE SUB DUP2 ADD SWAP1 PUSH2 0x15E SWAP2 SWAP1 PUSH2 0xBE4 JUMP JUMPDEST PUSH2 0x493 JUMP JUMPDEST PUSH1 0x40 MLOAD PUSH2 0x170 SWAP2 SWAP1 PUSH2 0xC9F JUMP JUMPDEST PUSH1 0x40 MLOAD DUP1 SWAP2 SUB SWAP1 RETURN JUMPDEST CALLVALUE DUP1 ISZERO PUSH2 0x184 JUMPI PUSH0 DUP1 REVERT JUMPDEST POP PUSH2 0x19F PUSH1 0x4 DUP1 CALLDATASIZE SUB DUP2 ADD SWAP1 PUSH2 0x19A SWAP2 SWAP1 PUSH2 0xE2A JUMP JUMPDEST PUSH2 0x4BF JUMP JUMPDEST PUSH1 0x40 MLOAD PUSH2 0x1AC SWAP2 SWAP1 PUSH2 0xF28 JUMP JUMPDEST PUSH1 0x40 MLOAD DUP1 SWAP2 SUB SWAP1 RETURN JUMPDEST PUSH2 0x1BD PUSH2 0x5C2 JUMP JUMPDEST STOP JUMPDEST CALLVALUE DUP1 ISZERO PUSH2 0x1CA JUMPI PUSH0 DUP1 REVERT JUMPDEST POP PUSH2 0x1E5 PUSH1 0x4 DUP1 CALLDATASIZE SUB DUP2 ADD SWAP1 PUSH2 0x1E0 SWAP2 SWAP1 PUSH2 0xE2A JUMP JUMPDEST PUSH2 0x619 JUMP JUMPDEST PUSH1 0x40 MLOAD PUSH2 0x1F2 SWAP2 SWAP1 PUSH2 0xF28 JUMP JUMPDEST PUSH1 0x40 MLOAD DUP1 SWAP2 SUB SWAP1 RETURN JUMPDEST CALLVALUE DUP1 ISZERO PUSH2 0x206 JUMPI PUSH0 DUP1 REVERT JUMPDEST POP PUSH2 0x20F PUSH2 0x76B JUMP JUMPDEST PUSH1 0x40 MLOAD PUSH2 0x21C SWAP2 SWAP1 PUSH2 0xB6A JUMP JUMPDEST PUSH1 0x40 MLOAD DUP1 SWAP2 SUB SWAP1 RETURN JUMPDEST CALLVALUE DUP1 ISZERO PUSH2 0x230 JUMPI PUSH0 DUP1 REVERT JUMPDEST POP PUSH2 0x239 PUSH2 0x77B JUMP JUMPDEST STOP JUMPDEST CALLVALUE DUP1 ISZERO PUSH2 0x246 JUMPI PUSH0 DUP1 REVERT JUMPDEST POP PUSH2 0x261 PUSH1 0x4 DUP1 CALLDATASIZE SUB DUP2 ADD SWAP1 PUSH2 0x25C SWAP2 SWAP1 PUSH2 0xFF8 JUMP JUMPDEST PUSH2 0x7D7 JUMP JUMPDEST PUSH1 0x40 MLOAD PUSH2 0x26E SWAP2 SWAP1 PUSH2 0xC9F JUMP JUMPDEST PUSH1 0x40 MLOAD DUP1 SWAP2 SUB SWAP1 RETURN JUMPDEST PUSH2 0x27F PUSH2 0x806 JUMP JUMPDEST PUSH1 0x40 MLOAD PUSH2 0x28C SWAP2 SWAP1 PUSH2 0xB6A JUMP JUMPDEST PUSH1 0x40 MLOAD DUP1 SWAP2 SUB SWAP1 RETURN JUMPDEST CALLVALUE DUP1 ISZERO PUSH2 0x2A0 JUMPI PUSH0 DUP1 REVERT JUMPDEST POP PUSH2 0x2A9 PUSH2 0x854 JUMP JUMPDEST PUSH1 0x40 MLOAD PUSH2 0x2B6 SWAP2 SWAP1 PUSH2 0xB6A JUMP JUMPDEST PUSH1 0x40 MLOAD DUP1 SWAP2 SUB SWAP1 RETURN JUMPDEST CALLVALUE DUP1 ISZERO PUSH2 0x2CA JUMPI PUSH0 DUP1 REVERT JUMPDEST POP PUSH2 0x2E5 PUSH1 0x4 DUP1 CALLDATASIZE SUB DUP2 ADD SWAP1 PUSH2 0x2E0 SWAP2 SWAP1 PUSH2 0xB1D JUMP JUMPDEST PUSH2 0x85B JUMP JUMPDEST PUSH1 0x40 MLOAD PUSH2 0x2F2 SWAP2 SWAP1 PUSH2 0xB6A JUMP JUMPDEST PUSH1 0x40 MLOAD DUP1 SWAP2 SUB SWAP1 RETURN JUMPDEST CALLVALUE DUP1 ISZERO PUSH2 0x306 JUMPI PUSH0 DUP1 REVERT JUMPDEST POP PUSH2 0x30F PUSH2 0x940 JUMP JUMPDEST PUSH1 0x40 MLOAD PUSH2 0x31C SWAP2 SWAP1 PUSH2 0xB6A JUMP JUMPDEST PUSH1 0x40 MLOAD DUP1 SWAP2 SUB SWAP1 RETURN JUMPDEST CALLVALUE DUP1 ISZERO PUSH2 0x330 JUMPI PUSH0 DUP1 REVERT JUMPDEST POP PUSH2 0x34B PUSH1 0x4 DUP1 CALLDATASIZE SUB DUP2 ADD SWAP1 PUSH2 0x346 SWAP2 SWAP1 PUSH2 0x1071 JUMP JUMPDEST PUSH2 0x948 JUMP JUMPDEST PUSH1 0x40 MLOAD PUSH2 0x358 SWAP2 SWAP1 PUSH2 0x10B6 JUMP JUMPDEST PUSH1 0x40 MLOAD DUP1 SWAP2 SUB SWAP1 RETURN JUMPDEST CALLVALUE DUP1 ISZERO PUSH2 0x36C JUMPI PUSH0 DUP1 REVERT JUMPDEST POP PUSH2 0x375 PUSH2 0x99A JUMP JUMPDEST PUSH1 0x40 MLOAD PUSH2 0x382 SWAP2 SWAP1 PUSH2 0xB6A JUMP JUMPDEST PUSH1 0x40 MLOAD DUP1 SWAP2 SUB SWAP1 RETURN JUMPDEST PUSH2 0x393 PUSH2 0x9AA JUMP JUMPDEST STOP JUMPDEST CALLVALUE DUP1 ISZERO PUSH2 0x3A0 JUMPI PUSH0 DUP1 REVERT JUMPDEST POP PUSH2 0x3BB PUSH1 0x4 DUP1 CALLDATASIZE SUB DUP2 ADD SWAP1 PUSH2 0x3B6 SWAP2 SWAP1 PUSH2 0x1071 JUMP JUMPDEST PUSH2 0x9C8 JUMP JUMPDEST PUSH1 0x40 MLOAD PUSH2 0x3C8 SWAP2 SWAP1 PUSH2 0xB6A JUMP JUMPDEST PUSH1 0x40 MLOAD DUP1 SWAP2 SUB SWAP1 RETURN JUMPDEST CALLVALUE DUP1 ISZERO PUSH2 0x3DC JUMPI PUSH0 DUP1 REVERT JUMPDEST POP PUSH2 0x3E5 PUSH2 0xA39 JUMP JUMPDEST PUSH1 0x40 MLOAD PUSH2 0x3F2 SWAP2 SWAP1 PUSH2 0xC9F JUMP JUMPDEST PUSH1 0x40 MLOAD DUP1 SWAP2 SUB SWAP1 RETURN JUMPDEST PUSH0 DUP1 PUSH1 0x1 DUP1 SLOAD SWAP1 POP SWAP1 POP DUP1 DUP4 LT PUSH2 0x447 JUMPI PUSH1 0x40 MLOAD PUSH32 0x8C379A000000000000000000000000000000000000000000000000000000000 DUP2 MSTORE PUSH1 0x4 ADD PUSH2 0x43E SWAP1 PUSH2 0x1119 JUMP JUMPDEST PUSH1 0x40 MLOAD DUP1 SWAP2 SUB SWAP1 REVERT JUMPDEST PUSH0 PUSH1 0x1 SWAP1 POP DUP5 DUP2 DUP6 DUP2 SLOAD DUP2 LT PUSH2 0x460 JUMPI PUSH2 0x45F PUSH2 0x1137 JUMP JUMPDEST JUMPDEST SWAP1 PUSH0 MSTORE PUSH1 0x20 PUSH0 KECCAK256 ADD DUP2 SWAP1 SSTORE POP PUSH1 0x1 DUP5 DUP2 SLOAD DUP2 LT PUSH2 0x480 JUMPI PUSH2 0x47F PUSH2 0x1137 JUMP JUMPDEST JUMPDEST SWAP1 PUSH0 MSTORE PUSH1 0x20 PUSH0 KECCAK256 ADD SLOAD SWAP3 POP POP POP SWAP3 SWAP2 POP POP JUMP JUMPDEST PUSH1 0x60 DUP3 DUP3 PUSH1 0x40 MLOAD PUSH1 0x20 ADD PUSH2 0x4A8 SWAP3 SWAP2 SWAP1 PUSH2 0x11B8 JUMP JUMPDEST PUSH1 0x40 MLOAD PUSH1 0x20 DUP2 DUP4 SUB SUB DUP2 MSTORE SWAP1 PUSH1 0x40 MSTORE SWAP1 POP SWAP3 SWAP2 POP POP JUMP JUMPDEST PUSH1 0x60 PUSH0 DUP3 MLOAD SWAP1 POP PUSH0 PUSH1 0x1 SWAP1 POP JUMPDEST DUP2 DUP2 LT ISZERO PUSH2 0x5B8 JUMPI PUSH0 DUP5 DUP3 DUP2 MLOAD DUP2 LT PUSH2 0x4E8 JUMPI PUSH2 0x4E7 PUSH2 0x1137 JUMP JUMPDEST JUMPDEST PUSH1 0x20 MUL PUSH1 0x20 ADD ADD MLOAD SWAP1 POP PUSH0 DUP3 SWAP1 POP JUMPDEST PUSH1 0x1 DUP2 LT ISZERO DUP1 ISZERO PUSH2 0x52D JUMPI POP DUP2 DUP7 PUSH1 0x1 DUP4 PUSH2 0x512 SWAP2 SWAP1 PUSH2 0x120C JUMP JUMPDEST DUP2 MLOAD DUP2 LT PUSH2 0x523 JUMPI PUSH2 0x522 PUSH2 0x1137 JUMP JUMPDEST JUMPDEST PUSH1 0x20 MUL PUSH1 0x20 ADD ADD MLOAD SGT JUMPDEST ISZERO PUSH2 0x58B JUMPI DUP6 PUSH1 0x1 DUP3 PUSH2 0x540 SWAP2 SWAP1 PUSH2 0x120C JUMP JUMPDEST DUP2 MLOAD DUP2 LT PUSH2 0x551 JUMPI PUSH2 0x550 PUSH2 0x1137 JUMP JUMPDEST JUMPDEST PUSH1 0x20 MUL PUSH1 0x20 ADD ADD MLOAD DUP7 DUP3 DUP2 MLOAD DUP2 LT PUSH2 0x56C JUMPI PUSH2 0x56B PUSH2 0x1137 JUMP JUMPDEST JUMPDEST PUSH1 0x20 MUL PUSH1 0x20 ADD ADD DUP2 DUP2 MSTORE POP POP DUP1 DUP1 PUSH2 0x583 SWAP1 PUSH2 0x123F JUMP JUMPDEST SWAP2 POP POP PUSH2 0x4F7 JUMP JUMPDEST DUP2 DUP7 DUP3 DUP2 MLOAD DUP2 LT PUSH2 0x59F JUMPI PUSH2 0x59E PUSH2 0x1137 JUMP JUMPDEST JUMPDEST PUSH1 0x20 MUL PUSH1 0x20 ADD ADD DUP2 DUP2 MSTORE POP POP POP POP DUP1 PUSH1 0x1 ADD SWAP1 POP PUSH2 0x4CC JUMP JUMPDEST POP DUP3 SWAP2 POP POP SWAP2 SWAP1 POP JUMP JUMPDEST PUSH1 0x1 DUP1 EQ PUSH2 0x5D3 JUMPI PUSH2 0x5D2 PUSH2 0x1266 JUMP JUMPDEST JUMPDEST PUSH4 0x3B9ACA00 DUP1 EQ PUSH2 0x5E7 JUMPI PUSH2 0x5E6 PUSH2 0x1266 JUMP JUMPDEST JUMPDEST PUSH8 0xDE0B6B3A7640000 DUP1 EQ PUSH2 0x5FF JUMPI PUSH2 0x5FE PUSH2 0x1266 JUMP JUMPDEST JUMPDEST PUSH8 0xDE0B6B3A7640000 DUP1 EQ PUSH2 0x617 JUMPI PUSH2 0x616 PUSH2 0x1266 JUMP JUMPDEST JUMPDEST JUMP JUMPDEST PUSH1 0x60 PUSH0 DUP3 MLOAD SWAP1 POP PUSH0 PUSH1 0x1 SWAP1 POP JUMPDEST DUP2 DUP2 LT ISZERO PUSH2 0x761 JUMPI PUSH0 DUP1 DUP6 DUP4 DUP2 MLOAD DUP2 LT PUSH2 0x643 JUMPI PUSH2 0x642 PUSH2 0x1137 JUMP JUMPDEST JUMPDEST PUSH1 0x20 MUL PUSH1 0x20 ADD ADD MLOAD SWAP1 POP PUSH0 PUSH1 0x1 DUP5 PUSH2 0x65B SWAP2 SWAP1 PUSH2 0x120C JUMP JUMPDEST SWAP1 POP JUMPDEST PUSH0 DUP2 LT ISZERO DUP1 ISZERO PUSH2 0x687 JUMPI POP DUP2 DUP8 DUP3 DUP2 MLOAD DUP2 LT PUSH2 0x67D JUMPI PUSH2 0x67C PUSH2 0x1137 JUMP JUMPDEST JUMPDEST PUSH1 0x20 MUL PUSH1 0x20 ADD ADD MLOAD SGT JUMPDEST ISZERO PUSH2 0x6FB JUMPI DUP7 DUP2 DUP2 MLOAD DUP2 LT PUSH2 0x69F JUMPI PUSH2 0x69E PUSH2 0x1137 JUMP JUMPDEST JUMPDEST PUSH1 0x20 MUL PUSH1 0x20 ADD ADD MLOAD DUP8 PUSH1 0x1 DUP4 PUSH2 0x6B5 SWAP2 SWAP1 PUSH2 0x1293 JUMP JUMPDEST DUP2 MLOAD DUP2 LT PUSH2 0x6C6 JUMPI PUSH2 0x6C5 PUSH2 0x1137 JUMP JUMPDEST JUMPDEST PUSH1 0x20 MUL PUSH1 0x20 ADD ADD DUP2 DUP2 MSTORE POP POP PUSH0 DUP2 GT ISZERO PUSH2 0x6ED JUMPI DUP1 DUP1 PUSH2 0x6E5 SWAP1 PUSH2 0x123F JUMP JUMPDEST SWAP2 POP POP PUSH2 0x6F6 JUMP JUMPDEST PUSH1 0x1 SWAP3 POP PUSH2 0x6FB JUMP JUMPDEST PUSH2 0x65E JUMP JUMPDEST DUP3 ISZERO PUSH2 0x726 JUMPI DUP2 DUP8 PUSH0 DUP2 MLOAD DUP2 LT PUSH2 0x715 JUMPI PUSH2 0x714 PUSH2 0x1137 JUMP JUMPDEST JUMPDEST PUSH1 0x20 MUL PUSH1 0x20 ADD ADD DUP2 DUP2 MSTORE POP POP PUSH2 0x753 JUMP JUMPDEST DUP2 DUP8 PUSH1 0x1 DUP4 PUSH2 0x735 SWAP2 SWAP1 PUSH2 0x1293 JUMP JUMPDEST DUP2 MLOAD DUP2 LT PUSH2 0x746 JUMPI PUSH2 0x745 PUSH2 0x1137 JUMP JUMPDEST JUMPDEST PUSH1 0x20 MUL PUSH1 0x20 ADD ADD DUP2 DUP2 MSTORE POP POP JUMPDEST POP POP POP DUP1 PUSH1 0x1 ADD SWAP1 POP PUSH2 0x626 JUMP JUMPDEST POP DUP3 SWAP2 POP POP SWAP2 SWAP1 POP JUMP JUMPDEST PUSH0 PUSH2 0x776 PUSH1 0x2 PUSH2 0xA76 JUMP JUMPDEST SWAP1 POP SWAP1 JUMP JUMPDEST PUSH1 0x1 DUP1 EQ PUSH2 0x78C JUMPI PUSH2 0x78B PUSH2 0x1266 JUMP JUMPDEST JUMPDEST PUSH1 0x3C DUP1 EQ PUSH2 0x79D JUMPI PUSH2 0x79C PUSH2 0x1266 JUMP JUMPDEST JUMPDEST PUSH2 0xE10 DUP1 EQ PUSH2 0x7AF JUMPI PUSH2 0x7AE PUSH2 0x1266 JUMP JUMPDEST JUMPDEST PUSH3 0x15180 DUP1 EQ PUSH2 0x7C2 JUMPI PUSH2 0x7C1 PUSH2 0x1266 JUMP JUMPDEST JUMPDEST PUSH3 0x93A80 DUP1 EQ PUSH2 0x7D5 JUMPI PUSH2 0x7D4 PUSH2 0x1266 JUMP JUMPDEST JUMPDEST JUMP JUMPDEST PUSH1 0x60 DUP4 DUP4 DUP4 PUSH1 0x40 MLOAD PUSH1 0x20 ADD PUSH2 0x7EE SWAP4 SWAP3 SWAP2 SWAP1 PUSH2 0x12F6 JUMP JUMPDEST PUSH1 0x40 MLOAD PUSH1 0x20 DUP2 DUP4 SUB SUB DUP2 MSTORE SWAP1 PUSH1 0x40 MSTORE SWAP1 POP SWAP4 SWAP3 POP POP POP JUMP JUMPDEST PUSH0 DUP1 CALLVALUE SWAP1 POP PUSH0 DUP2 GT PUSH2 0x84D JUMPI PUSH1 0x40 MLOAD PUSH32 0x8C379A000000000000000000000000000000000000000000000000000000000 DUP2 MSTORE PUSH1 0x4 ADD PUSH2 0x844 SWAP1 PUSH2 0x1365 JUMP JUMPDEST PUSH1 0x40 MLOAD DUP1 SWAP2 SUB SWAP1 REVERT JUMPDEST DUP1 SWAP2 POP POP SWAP1 JUMP JUMPDEST PUSH0 SELFBALANCE SWAP1 POP SWAP1 JUMP JUMPDEST PUSH0 DUP1 PUSH1 0x1 DUP1 SLOAD SWAP1 POP SWAP1 POP DUP1 DUP4 LT PUSH2 0x8A7 JUMPI PUSH1 0x40 MLOAD PUSH32 0x8C379A000000000000000000000000000000000000000000000000000000000 DUP2 MSTORE PUSH1 0x4 ADD PUSH2 0x89E SWAP1 PUSH2 0x1119 JUMP JUMPDEST PUSH1 0x40 MLOAD DUP1 SWAP2 SUB SWAP1 REVERT JUMPDEST PUSH0 PUSH1 0x1 DUP1 SLOAD DUP1 PUSH1 0x20 MUL PUSH1 0x20 ADD PUSH1 0x40 MLOAD SWAP1 DUP2 ADD PUSH1 0x40 MSTORE DUP1 SWAP3 SWAP2 SWAP1 DUP2 DUP2 MSTORE PUSH1 0x20 ADD DUP3 DUP1 SLOAD DUP1 ISZERO PUSH2 0x8F2 JUMPI PUSH1 0x20 MUL DUP3 ADD SWAP2 SWAP1 PUSH0 MSTORE PUSH1 0x20 PUSH0 KECCAK256 SWAP1 JUMPDEST DUP2 SLOAD DUP2 MSTORE PUSH1 0x20 ADD SWAP1 PUSH1 0x1 ADD SWAP1 DUP1 DUP4 GT PUSH2 0x8DE JUMPI JUMPDEST POP POP POP POP POP SWAP1 POP DUP5 DUP2 DUP6 DUP2 MLOAD DUP2 LT PUSH2 0x90D JUMPI PUSH2 0x90C PUSH2 0x1137 JUMP JUMPDEST JUMPDEST PUSH1 0x20 MUL PUSH1 0x20 ADD ADD DUP2 DUP2 MSTORE POP POP PUSH1 0x1 DUP5 DUP2 SLOAD DUP2 LT PUSH2 0x92D JUMPI PUSH2 0x92C PUSH2 0x1137 JUMP JUMPDEST JUMPDEST SWAP1 PUSH0 MSTORE PUSH1 0x20 PUSH0 KECCAK256 ADD SLOAD SWAP3 POP POP POP SWAP3 SWAP2 POP POP JUMP JUMPDEST PUSH0 DUP1 SLOAD SWAP1 POP SWAP1 JUMP JUMPDEST PUSH0 DUP1 DUP3 GT PUSH2 0x98B JUMPI PUSH1 0x40 MLOAD PUSH32 0x8C379A000000000000000000000000000000000000000000000000000000000 DUP2 MSTORE PUSH1 0x4 ADD PUSH2 0x982 SWAP1 PUSH2 0x13CD JUMP JUMPDEST PUSH1 0x40 MLOAD DUP1 SWAP2 SUB SWAP1 REVERT JUMPDEST DUP2 PUSH0 DUP2 SWAP1 SSTORE POP PUSH1 0x1 SWAP1 POP SWAP2 SWAP1 POP JUMP JUMPDEST PUSH0 PUSH2 0x9A5 PUSH1 0x1 PUSH2 0xA76 JUMP JUMPDEST SWAP1 POP SWAP1 JUMP JUMPDEST PUSH4 0x3B9ACA00 PUSH8 0xDE0B6B3A7640000 EQ PUSH2 0x9C6 JUMPI PUSH2 0x9C5 PUSH2 0x1266 JUMP JUMPDEST JUMPDEST JUMP JUMPDEST PUSH0 DUP1 PUSH1 0x1 DUP1 SLOAD SWAP1 POP SWAP1 POP DUP1 DUP4 LT PUSH2 0xA14 JUMPI PUSH1 0x40 MLOAD PUSH32 0x8C379A000000000000000000000000000000000000000000000000000000000 DUP2 MSTORE PUSH1 0x4 ADD PUSH2 0xA0B SWAP1 PUSH2 0x1119 JUMP JUMPDEST PUSH1 0x40 MLOAD DUP1 SWAP2 SUB SWAP1 REVERT JUMPDEST PUSH1 0x1 DUP4 DUP2 SLOAD DUP2 LT PUSH2 0xA28 JUMPI PUSH2 0xA27 PUSH2 0x1137 JUMP JUMPDEST JUMPDEST SWAP1 PUSH0 MSTORE PUSH1 0x20 PUSH0 KECCAK256 ADD SLOAD SWAP2 POP POP SWAP2 SWAP1 POP JUMP JUMPDEST PUSH1 0x60 PUSH1 0x40 MLOAD DUP1 PUSH1 0x40 ADD PUSH1 0x40 MSTORE DUP1 PUSH1 0x7 DUP2 MSTORE PUSH1 0x20 ADD PUSH32 0x6E6F7468696E6700000000000000000000000000000000000000000000000000 DUP2 MSTORE POP SWAP1 POP SWAP1 JUMP JUMPDEST PUSH0 DUP1 DUP3 GT PUSH2 0xAB9 JUMPI PUSH1 0x40 MLOAD PUSH32 0x8C379A000000000000000000000000000000000000000000000000000000000 DUP2 MSTORE PUSH1 0x4 ADD PUSH2 0xAB0 SWAP1 PUSH2 0x13CD JUMP JUMPDEST PUSH1 0x40 MLOAD DUP1 SWAP2 SUB SWAP1 REVERT JUMPDEST DUP2 PUSH0 DUP1 DUP3 DUP3 SLOAD PUSH2 0xAC9 SWAP2 SWAP1 PUSH2 0x1293 JUMP JUMPDEST SWAP3 POP POP DUP2 SWAP1 SSTORE POP PUSH0 SLOAD SWAP1 POP SWAP2 SWAP1 POP JUMP JUMPDEST PUSH0 PUSH1 0x40 MLOAD SWAP1 POP SWAP1 JUMP JUMPDEST PUSH0 DUP1 REVERT JUMPDEST PUSH0 DUP1 REVERT JUMPDEST PUSH0 DUP2 SWAP1 POP SWAP2 SWAP1 POP JUMP JUMPDEST PUSH2 0xAFC DUP2 PUSH2 0xAEA JUMP JUMPDEST DUP2 EQ PUSH2 0xB06 JUMPI PUSH0 DUP1 REVERT JUMPDEST POP JUMP JUMPDEST PUSH0 DUP2 CALLDATALOAD SWAP1 POP PUSH2 0xB17 DUP2 PUSH2 0xAF3 JUMP JUMPDEST SWAP3 SWAP2 POP POP JUMP JUMPDEST PUSH0 DUP1 PUSH1 0x40 DUP4 DUP6 SUB SLT ISZERO PUSH2 0xB33 JUMPI PUSH2 0xB32 PUSH2 0xAE2 JUMP JUMPDEST JUMPDEST PUSH0 PUSH2 0xB40 DUP6 DUP3 DUP7 ADD PUSH2 0xB09 JUMP JUMPDEST SWAP3 POP POP PUSH1 0x20 PUSH2 0xB51 DUP6 DUP3 DUP7 ADD PUSH2 0xB09 JUMP JUMPDEST SWAP2 POP POP SWAP3 POP SWAP3 SWAP1 POP JUMP JUMPDEST PUSH2 0xB64 DUP2 PUSH2 0xAEA JUMP JUMPDEST DUP3 MSTORE POP POP JUMP JUMPDEST PUSH0 PUSH1 0x20 DUP3 ADD SWAP1 POP PUSH2 0xB7D PUSH0 DUP4 ADD DUP5 PUSH2 0xB5B JUMP JUMPDEST SWAP3 SWAP2 POP POP JUMP JUMPDEST PUSH0 DUP1 REVERT JUMPDEST PUSH0 DUP1 REVERT JUMPDEST PUSH0 DUP1 REVERT JUMPDEST PUSH0 DUP1 DUP4 PUSH1 0x1F DUP5 ADD SLT PUSH2 0xBA4 JUMPI PUSH2 0xBA3 PUSH2 0xB83 JUMP JUMPDEST JUMPDEST DUP3 CALLDATALOAD SWAP1 POP PUSH8 0xFFFFFFFFFFFFFFFF DUP2 GT ISZERO PUSH2 0xBC1 JUMPI PUSH2 0xBC0 PUSH2 0xB87 JUMP JUMPDEST JUMPDEST PUSH1 0x20 DUP4 ADD SWAP2 POP DUP4 PUSH1 0x1 DUP3 MUL DUP4 ADD GT ISZERO PUSH2 0xBDD JUMPI PUSH2 0xBDC PUSH2 0xB8B JUMP JUMPDEST JUMPDEST SWAP3 POP SWAP3 SWAP1 POP JUMP JUMPDEST PUSH0 DUP1 PUSH1 0x20 DUP4 DUP6 SUB SLT ISZERO PUSH2 0xBFA JUMPI PUSH2 0xBF9 PUSH2 0xAE2 JUMP JUMPDEST JUMPDEST PUSH0 DUP4 ADD CALLDATALOAD PUSH8 0xFFFFFFFFFFFFFFFF DUP2 GT ISZERO PUSH2 0xC17 JUMPI PUSH2 0xC16 PUSH2 0xAE6 JUMP JUMPDEST JUMPDEST PUSH2 0xC23 DUP6 DUP3 DUP7 ADD PUSH2 0xB8F JUMP JUMPDEST SWAP3 POP SWAP3 POP POP SWAP3 POP SWAP3 SWAP1 POP JUMP JUMPDEST PUSH0 DUP2 MLOAD SWAP1 POP SWAP2 SWAP1 POP JUMP JUMPDEST PUSH0 DUP3 DUP3 MSTORE PUSH1 0x20 DUP3 ADD SWAP1 POP SWAP3 SWAP2 POP POP JUMP JUMPDEST DUP3 DUP2 DUP4 MCOPY PUSH0 DUP4 DUP4 ADD MSTORE POP POP POP JUMP JUMPDEST PUSH0 PUSH1 0x1F NOT PUSH1 0x1F DUP4 ADD AND SWAP1 POP SWAP2 SWAP1 POP JUMP JUMPDEST PUSH0 PUSH2 0xC71 DUP3 PUSH2 0xC2F JUMP JUMPDEST PUSH2 0xC7B DUP2 DUP6 PUSH2 0xC39 JUMP JUMPDEST SWAP4 POP PUSH2 0xC8B DUP2 DUP6 PUSH1 0x20 DUP7 ADD PUSH2 0xC49 JUMP JUMPDEST PUSH2 0xC94 DUP2 PUSH2 0xC57 JUMP JUMPDEST DUP5 ADD SWAP2 POP POP SWAP3 SWAP2 POP POP JUMP JUMPDEST PUSH0 PUSH1 0x20 DUP3 ADD SWAP1 POP DUP2 DUP2 SUB PUSH0 DUP4 ADD MSTORE PUSH2 0xCB7 DUP2 DUP5 PUSH2 0xC67 JUMP JUMPDEST SWAP1 POP SWAP3 SWAP2 POP POP JUMP JUMPDEST PUSH32 0x4E487B7100000000000000000000000000000000000000000000000000000000 PUSH0 MSTORE PUSH1 0x41 PUSH1 0x4 MSTORE PUSH1 0x24 PUSH0 REVERT JUMPDEST PUSH2 0xCF5 DUP3 PUSH2 0xC57 JUMP JUMPDEST DUP2 ADD DUP2 DUP2 LT PUSH8 0xFFFFFFFFFFFFFFFF DUP3 GT OR ISZERO PUSH2 0xD14 JUMPI PUSH2 0xD13 PUSH2 0xCBF JUMP JUMPDEST JUMPDEST DUP1 PUSH1 0x40 MSTORE POP POP POP JUMP JUMPDEST PUSH0 PUSH2 0xD26 PUSH2 0xAD9 JUMP JUMPDEST SWAP1 POP PUSH2 0xD32 DUP3 DUP3 PUSH2 0xCEC JUMP JUMPDEST SWAP2 SWAP1 POP JUMP JUMPDEST PUSH0 PUSH8 0xFFFFFFFFFFFFFFFF DUP3 GT ISZERO PUSH2 0xD51 JUMPI PUSH2 0xD50 PUSH2 0xCBF JUMP JUMPDEST JUMPDEST PUSH1 0x20 DUP3 MUL SWAP1 POP PUSH1 0x20 DUP2 ADD SWAP1 POP SWAP2 SWAP1 POP JUMP JUMPDEST PUSH0 DUP2 SWAP1 POP SWAP2 SWAP1 POP JUMP JUMPDEST PUSH2 0xD74 DUP2 PUSH2 0xD62 JUMP JUMPDEST DUP2 EQ PUSH2 0xD7E JUMPI PUSH0 DUP1 REVERT JUMPDEST POP JUMP JUMPDEST PUSH0 DUP2 CALLDATALOAD SWAP1 POP PUSH2 0xD8F DUP2 PUSH2 0xD6B JUMP JUMPDEST SWAP3 SWAP2 POP POP JUMP JUMPDEST PUSH0 PUSH2 0xDA7 PUSH2 0xDA2 DUP5 PUSH2 0xD37 JUMP JUMPDEST PUSH2 0xD1D JUMP JUMPDEST SWAP1 POP DUP1 DUP4 DUP3 MSTORE PUSH1 0x20 DUP3 ADD SWAP1 POP PUSH1 0x20 DUP5 MUL DUP4 ADD DUP6 DUP2 GT ISZERO PUSH2 0xDCA JUMPI PUSH2 0xDC9 PUSH2 0xB8B JUMP JUMPDEST JUMPDEST DUP4 JUMPDEST DUP2 DUP2 LT ISZERO PUSH2 0xDF3 JUMPI DUP1 PUSH2 0xDDF DUP9 DUP3 PUSH2 0xD81 JUMP JUMPDEST DUP5 MSTORE PUSH1 0x20 DUP5 ADD SWAP4 POP POP PUSH1 0x20 DUP2 ADD SWAP1 POP PUSH2 0xDCC JUMP JUMPDEST POP POP POP SWAP4 SWAP3 POP POP POP JUMP JUMPDEST PUSH0 DUP3 PUSH1 0x1F DUP4 ADD SLT PUSH2 0xE11 JUMPI PUSH2 0xE10 PUSH2 0xB83 JUMP JUMPDEST JUMPDEST DUP2 CALLDATALOAD PUSH2 0xE21 DUP5 DUP3 PUSH1 0x20 DUP7 ADD PUSH2 0xD95 JUMP JUMPDEST SWAP2 POP POP SWAP3 SWAP2 POP POP JUMP JUMPDEST PUSH0 PUSH1 0x20 DUP3 DUP5 SUB SLT ISZERO PUSH2 0xE3F JUMPI PUSH2 0xE3E PUSH2 0xAE2 JUMP JUMPDEST JUMPDEST PUSH0 DUP3 ADD CALLDATALOAD PUSH8 0xFFFFFFFFFFFFFFFF DUP2 GT ISZERO PUSH2 0xE5C JUMPI PUSH2 0xE5B PUSH2 0xAE6 JUMP JUMPDEST JUMPDEST PUSH2 0xE68 DUP5 DUP3 DUP6 ADD PUSH2 0xDFD JUMP JUMPDEST SWAP2 POP POP SWAP3 SWAP2 POP POP JUMP JUMPDEST PUSH0 DUP2 MLOAD SWAP1 POP SWAP2 SWAP1 POP JUMP JUMPDEST PUSH0 DUP3 DUP3 MSTORE PUSH1 0x20 DUP3 ADD SWAP1 POP SWAP3 SWAP2 POP POP JUMP JUMPDEST PUSH0 DUP2 SWAP1 POP PUSH1 0x20 DUP3 ADD SWAP1 POP SWAP2 SWAP1 POP JUMP JUMPDEST PUSH2 0xEA3 DUP2 PUSH2 0xD62 JUMP JUMPDEST DUP3 MSTORE POP POP JUMP JUMPDEST PUSH0 PUSH2 0xEB4 DUP4 DUP4 PUSH2 0xE9A JUMP JUMPDEST PUSH1 0x20 DUP4 ADD SWAP1 POP SWAP3 SWAP2 POP POP JUMP JUMPDEST PUSH0 PUSH1 0x20 DUP3 ADD SWAP1 POP SWAP2 SWAP1 POP JUMP JUMPDEST PUSH0 PUSH2 0xED6 DUP3 PUSH2 0xE71 JUMP JUMPDEST PUSH2 0xEE0 DUP2 DUP6 PUSH2 0xE7B JUMP JUMPDEST SWAP4 POP PUSH2 0xEEB DUP4 PUSH2 0xE8B JUMP JUMPDEST DUP1 PUSH0 JUMPDEST DUP4 DUP2 LT ISZERO PUSH2 0xF1B JUMPI DUP2 MLOAD PUSH2 0xF02 DUP9 DUP3 PUSH2 0xEA9 JUMP JUMPDEST SWAP8 POP PUSH2 0xF0D DUP4 PUSH2 0xEC0 JUMP JUMPDEST SWAP3 POP POP PUSH1 0x1 DUP2 ADD SWAP1 POP PUSH2 0xEEE JUMP JUMPDEST POP DUP6 SWAP4 POP POP POP POP SWAP3 SWAP2 POP POP JUMP JUMPDEST PUSH0 PUSH1 0x20 DUP3 ADD SWAP1 POP DUP2 DUP2 SUB PUSH0 DUP4 ADD MSTORE PUSH2 0xF40 DUP2 DUP5 PUSH2 0xECC JUMP JUMPDEST SWAP1 POP SWAP3 SWAP2 POP POP JUMP JUMPDEST PUSH0 DUP1 REVERT JUMPDEST PUSH0 PUSH8 0xFFFFFFFFFFFFFFFF DUP3 GT ISZERO PUSH2 0xF66 JUMPI PUSH2 0xF65 PUSH2 0xCBF JUMP JUMPDEST JUMPDEST PUSH2 0xF6F DUP3 PUSH2 0xC57 JUMP JUMPDEST SWAP1 POP PUSH1 0x20 DUP2 ADD SWAP1 POP SWAP2 SWAP1 POP JUMP JUMPDEST DUP3 DUP2 DUP4 CALLDATACOPY PUSH0 DUP4 DUP4 ADD MSTORE POP POP POP JUMP JUMPDEST PUSH0 PUSH2 0xF9C PUSH2 0xF97 DUP5 PUSH2 0xF4C JUMP JUMPDEST PUSH2 0xD1D JUMP JUMPDEST SWAP1 POP DUP3 DUP2 MSTORE PUSH1 0x20 DUP2 ADD DUP5 DUP5 DUP5 ADD GT ISZERO PUSH2 0xFB8 JUMPI PUSH2 0xFB7 PUSH2 0xF48 JUMP JUMPDEST JUMPDEST PUSH2 0xFC3 DUP5 DUP3 DUP6 PUSH2 0xF7C JUMP JUMPDEST POP SWAP4 SWAP3 POP POP POP JUMP JUMPDEST PUSH0 DUP3 PUSH1 0x1F DUP4 ADD SLT PUSH2 0xFDF JUMPI PUSH2 0xFDE PUSH2 0xB83 JUMP JUMPDEST JUMPDEST DUP2 CALLDATALOAD PUSH2 0xFEF DUP5 DUP3 PUSH1 0x20 DUP7 ADD PUSH2 0xF8A JUMP JUMPDEST SWAP2 POP POP SWAP3 SWAP2 POP POP JUMP JUMPDEST PUSH0 DUP1 PUSH0 PUSH1 0x40 DUP5 DUP7 SUB SLT ISZERO PUSH2 0x100F JUMPI PUSH2 0x100E PUSH2 0xAE2 JUMP JUMPDEST JUMPDEST PUSH0 DUP5 ADD CALLDATALOAD PUSH8 0xFFFFFFFFFFFFFFFF DUP2 GT ISZERO PUSH2 0x102C JUMPI PUSH2 0x102B PUSH2 0xAE6 JUMP JUMPDEST JUMPDEST PUSH2 0x1038 DUP7 DUP3 DUP8 ADD PUSH2 0xB8F JUMP JUMPDEST SWAP4 POP SWAP4 POP POP PUSH1 0x20 DUP5 ADD CALLDATALOAD PUSH8 0xFFFFFFFFFFFFFFFF DUP2 GT ISZERO PUSH2 0x105B JUMPI PUSH2 0x105A PUSH2 0xAE6 JUMP JUMPDEST JUMPDEST PUSH2 0x1067 DUP7 DUP3 DUP8 ADD PUSH2 0xFCB JUMP JUMPDEST SWAP2 POP POP SWAP3 POP SWAP3 POP SWAP3 JUMP JUMPDEST PUSH0 PUSH1 0x20 DUP3 DUP5 SUB SLT ISZERO PUSH2 0x1086 JUMPI PUSH2 0x1085 PUSH2 0xAE2 JUMP JUMPDEST JUMPDEST PUSH0 PUSH2 0x1093 DUP5 DUP3 DUP6 ADD PUSH2 0xB09 JUMP JUMPDEST SWAP2 POP POP SWAP3 SWAP2 POP POP JUMP JUMPDEST PUSH0 DUP2 ISZERO ISZERO SWAP1 POP SWAP2 SWAP1 POP JUMP JUMPDEST PUSH2 0x10B0 DUP2 PUSH2 0x109C JUMP JUMPDEST DUP3 MSTORE POP POP JUMP JUMPDEST PUSH0 PUSH1 0x20 DUP3 ADD SWAP1 POP PUSH2 0x10C9 PUSH0 DUP4 ADD DUP5 PUSH2 0x10A7 JUMP JUMPDEST SWAP3 SWAP2 POP POP JUMP JUMPDEST PUSH32 0x6F7574206F6620696E6465780000000000000000000000000000000000000000 PUSH0 DUP3 ADD MSTORE POP JUMP JUMPDEST PUSH0 PUSH2 0x1103 PUSH1 0xC DUP4 PUSH2 0xC39 JUMP JUMPDEST SWAP2 POP PUSH2 0x110E DUP3 PUSH2 0x10CF JUMP JUMPDEST PUSH1 0x20 DUP3 ADD SWAP1 POP SWAP2 SWAP1 POP JUMP JUMPDEST PUSH0 PUSH1 0x20 DUP3 ADD SWAP1 POP DUP2 DUP2 SUB PUSH0 DUP4 ADD MSTORE PUSH2 0x1130 DUP2 PUSH2 0x10F7 JUMP JUMPDEST SWAP1 POP SWAP2 SWAP1 POP JUMP JUMPDEST PUSH32 0x4E487B7100000000000000000000000000000000000000000000000000000000 PUSH0 MSTORE PUSH1 0x32 PUSH1 0x4 MSTORE PUSH1 0x24 PUSH0 REVERT JUMPDEST PUSH32 0x68656C6C6F200000000000000000000000000000000000000000000000000000 DUP2 MSTORE POP JUMP JUMPDEST PUSH0 DUP2 SWAP1 POP SWAP3 SWAP2 POP POP JUMP JUMPDEST PUSH0 PUSH2 0x119F DUP4 DUP6 PUSH2 0x118A JUMP JUMPDEST SWAP4 POP PUSH2 0x11AC DUP4 DUP6 DUP5 PUSH2 0xF7C JUMP JUMPDEST DUP3 DUP5 ADD SWAP1 POP SWAP4 SWAP3 POP POP POP JUMP JUMPDEST PUSH0 PUSH2 0x11C2 DUP3 PUSH2 0x1164 JUMP JUMPDEST PUSH1 0x6 DUP3 ADD SWAP2 POP PUSH2 0x11D3 DUP3 DUP5 DUP7 PUSH2 0x1194 JUMP JUMPDEST SWAP2 POP DUP2 SWAP1 POP SWAP4 SWAP3 POP POP POP JUMP JUMPDEST PUSH32 0x4E487B7100000000000000000000000000000000000000000000000000000000 PUSH0 MSTORE PUSH1 0x11 PUSH1 0x4 MSTORE PUSH1 0x24 PUSH0 REVERT JUMPDEST PUSH0 PUSH2 0x1216 DUP3 PUSH2 0xAEA JUMP JUMPDEST SWAP2 POP PUSH2 0x1221 DUP4 PUSH2 0xAEA JUMP JUMPDEST SWAP3 POP DUP3 DUP3 SUB SWAP1 POP DUP2 DUP2 GT ISZERO PUSH2 0x1239 JUMPI PUSH2 0x1238 PUSH2 0x11DF JUMP JUMPDEST JUMPDEST SWAP3 SWAP2 POP POP JUMP JUMPDEST PUSH0 PUSH2 0x1249 DUP3 PUSH2 0xAEA JUMP JUMPDEST SWAP2 POP PUSH0 DUP3 SUB PUSH2 0x125B JUMPI PUSH2 0x125A PUSH2 0x11DF JUMP JUMPDEST JUMPDEST PUSH1 0x1 DUP3 SUB SWAP1 POP SWAP2 SWAP1 POP JUMP JUMPDEST PUSH32 0x4E487B7100000000000000000000000000000000000000000000000000000000 PUSH0 MSTORE PUSH1 0x1 PUSH1 0x4 MSTORE PUSH1 0x24 PUSH0 REVERT JUMPDEST PUSH0 PUSH2 0x129D DUP3 PUSH2 0xAEA JUMP JUMPDEST SWAP2 POP PUSH2 0x12A8 DUP4 PUSH2 0xAEA JUMP JUMPDEST SWAP3 POP DUP3 DUP3 ADD SWAP1 POP DUP1 DUP3 GT ISZERO PUSH2 0x12C0 JUMPI PUSH2 0x12BF PUSH2 0x11DF JUMP JUMPDEST JUMPDEST SWAP3 SWAP2 POP POP JUMP JUMPDEST PUSH0 PUSH2 0x12D0 DUP3 PUSH2 0xC2F JUMP JUMPDEST PUSH2 0x12DA DUP2 DUP6 PUSH2 0x118A JUMP JUMPDEST SWAP4 POP PUSH2 0x12EA DUP2 DUP6 PUSH1 0x20 DUP7 ADD PUSH2 0xC49 JUMP JUMPDEST DUP1 DUP5 ADD SWAP2 POP POP SWAP3 SWAP2 POP POP JUMP JUMPDEST PUSH0 PUSH2 0x1302 DUP3 DUP6 DUP8 PUSH2 0x1194 JUMP JUMPDEST SWAP2 POP PUSH2 0x130E DUP3 DUP5 PUSH2 0x12C6 JUMP JUMPDEST SWAP2 POP DUP2 SWAP1 POP SWAP5 SWAP4 POP POP POP POP JUMP JUMPDEST PUSH32 0x63616E206E6F742067697665206D65206E6F7468696E67000000000000000000 PUSH0 DUP3 ADD MSTORE POP JUMP JUMPDEST PUSH0 PUSH2 0x134F PUSH1 0x17 DUP4 PUSH2 0xC39 JUMP JUMPDEST SWAP2 POP PUSH2 0x135A DUP3 PUSH2 0x131B JUMP JUMPDEST PUSH1 0x20 DUP3 ADD SWAP1 POP SWAP2 SWAP1 POP JUMP JUMPDEST PUSH0 PUSH1 0x20 DUP3 ADD SWAP1 POP DUP2 DUP2 SUB PUSH0 DUP4 ADD MSTORE PUSH2 0x137C DUP2 PUSH2 0x1343 JUMP JUMPDEST SWAP1 POP SWAP2 SWAP1 POP JUMP JUMPDEST PUSH32 0x6E756D206D75737420626520706F736974697665206E756D6265720000000000 PUSH0 DUP3 ADD MSTORE POP JUMP JUMPDEST PUSH0 PUSH2 0x13B7 PUSH1 0x1B DUP4 PUSH2 0xC39 JUMP JUMPDEST SWAP2 POP PUSH2 0x13C2 DUP3 PUSH2 0x1383 JUMP JUMPDEST PUSH1 0x20 DUP3 ADD SWAP1 POP SWAP2 SWAP1 POP JUMP JUMPDEST PUSH0 PUSH1 0x20 DUP3 ADD SWAP1 POP DUP2 DUP2 SUB PUSH0 DUP4 ADD MSTORE PUSH2 0x13E4 DUP2 PUSH2 0x13AB JUMP JUMPDEST SWAP1 POP SWAP2 SWAP1 POP JUMP INVALID LOG2 PUSH5 0x6970667358 0x22 SLT KECCAK256 0xE0 0xD7 JUMPDEST MSTORE PUSH13 0x22CACDF5A750AEAA8E4D98518B PUSH26 0xE8A8D7C24895BE8DE76C20C9ED64736F6C634300081A00330000 "
		},
		"gasEstimates": {
			"creation": {
				"codeDepositCost": "1030600",
				"executionCost": "infinite",
				"totalCost": "infinite"
			},
			"external": {
				"concatStr(string,string)": "infinite",
				"counterIncrease()": "infinite",
				"counterIncreaseTwo()": "infinite",
				"ethUnitErrorTest()": "235",
				"ethUnitTest()": "301",
				"getCounter()": "2521",
				"getNumByIndex(uint256)": "infinite",
				"giveMeMoney()": "460",
				"insertSort(int256[])": "infinite",
				"insertSort1(int256[])": "infinite",
				"saySomething()": "infinite",
				"saySomrthing(string)": "infinite",
				"setCounter(uint256)": "22757",
				"setNumByIndex(uint256,uint256)": "infinite",
				"setNumByIndexDeep(uint256,uint256)": "infinite",
				"showBalance()": "379",
				"timeUintTest()": "325"
			},
			"internal": {
				"addNum(uint256,uint256)": "infinite",
				"counterIncreaseBy(uint256)": "infinite"
			}
		},
		"methodIdentifiers": {
			"concatStr(string,string)": "4b5bb5c0",
			"counterIncrease()": "934cbd68",
			"counterIncreaseTwo()": "3761b8f0",
			"ethUnitErrorTest()": "c7932304",
			"ethUnitTest()": "280bd55a",
			"getCounter()": "8ada066e",
			"getNumByIndex(uint256)": "ec2b45ae",
			"giveMeMoney()": "7aa1469f",
			"insertSort(int256[])": "2a2acd45",
			"insertSort1(int256[])": "1cdc1ab7",
			"saySomething()": "fbd61553",
			"saySomrthing(string)": "115a2ed0",
			"setCounter(uint256)": "8bb5d9c3",
			"setNumByIndex(uint256,uint256)": "824d5424",
			"setNumByIndexDeep(uint256,uint256)": "03ba8398",
			"showBalance()": "81b2d07b",
			"timeUintTest()": "454ea32a"
		}
	},
	"abi": [
		{
			"inputs": [
				{
					"internalType": "string",
					"name": "firstStr",
					"type": "string"
				},
				{
					"internalType": "string",
					"name": "secondStr",
					"type": "string"
				}
			],
			"name": "concatStr",
			"outputs": [
				{
					"internalType": "string",
					"name": "",
					"type": "string"
				}
			],
			"stateMutability": "pure",
			"type": "function"
		},
		{
			"inputs": [],
			"name": "counterIncrease",
			"outputs": [
				{
					"internalType": "uint256",
					"name": "",
					"type": "uint256"
				}
			],
			"stateMutability": "nonpayable",
			"type": "function"
		},
		{
			"inputs": [],
			"name": "counterIncreaseTwo",
			"outputs": [
				{
					"internalType": "uint256",
					"name": "",
					"type": "uint256"
				}
			],
			"stateMutability": "nonpayable",
			"type": "function"
		},
		{
			"inputs": [],
			"name": "ethUnitErrorTest",
			"outputs": [],
			"stateMutability": "payable",
			"type": "function"
		},
		{
			"inputs": [],
			"name": "ethUnitTest",
			"outputs": [],
			"stateMutability": "payable",
			"type": "function"
		},
		{
			"inputs": [],
			"name": "getCounter",
			"outputs": [
				{
					"internalType": "uint256",
					"name": "",
					"type": "uint256"
				}
			],
			"stateMutability": "view",
			"type": "function"
		},
		{
			"inputs": [
				{
					"internalType": "uint256",
					"name": "pos",
					"type": "uint256"
				}
			],
			"name": "getNumByIndex",
			"outputs": [
				{
					"internalType": "uint256",
					"name": "",
					"type": "uint256"
				}
			],
			"stateMutability": "view",
			"type": "function"
		},
		{
			"inputs": [],
			"name": "giveMeMoney",
			"outputs": [
				{
					"internalType": "uint256",
					"name": "",
					"type": "uint256"
				}
			],
			"stateMutability": "payable",
			"type": "function"
		},
		{
			"inputs": [
				{
					"internalType": "int256[]",
					"name": "numArr",
					"type": "int256[]"
				}
			],
			"name": "insertSort",
			"outputs": [
				{
					"internalType": "int256[]",
					"name": "",
					"type": "int256[]"
				}
			],
			"stateMutability": "pure",
			"type": "function"
		},
		{
			"inputs": [
				{
					"internalType": "int256[]",
					"name": "numArr",
					"type": "int256[]"
				}
			],
			"name": "insertSort1",
			"outputs": [
				{
					"internalType": "int256[]",
					"name": "",
					"type": "int256[]"
				}
			],
			"stateMutability": "pure",
			"type": "function"
		},
		{
			"inputs": [],
			"name": "saySomething",
			"outputs": [
				{
					"internalType": "string",
					"name": "",
					"type": "string"
				}
			],
			"stateMutability": "pure",
			"type": "function"
		},
		{
			"inputs": [
				{
					"internalType": "string",
					"name": "str",
					"type": "string"
				}
			],
			"name": "saySomrthing",
			"outputs": [
				{
					"internalType": "string",
					"name": "",
					"type": "string"
				}
			],
			"stateMutability": "pure",
			"type": "function"
		},
		{
			"inputs": [
				{
					"internalType": "uint256",
					"name": "num",
					"type": "uint256"
				}
			],
			"name": "setCounter",
			"outputs": [
				{
					"internalType": "bool",
					"name": "",
					"type": "bool"
				}
			],
			"stateMutability": "nonpayable",
			"type": "function"
		},
		{
			"inputs": [
				{
					"internalType": "uint256",
					"name": "num",
					"type": "uint256"
				},
				{
					"internalType": "uint256",
					"name": "pos",
					"type": "uint256"
				}
			],
			"name": "setNumByIndex",
			"outputs": [
				{
					"internalType": "uint256",
					"name": "",
					"type": "uint256"
				}
			],
			"stateMutability": "view",
			"type": "function"
		},
		{
			"inputs": [
				{
					"internalType": "uint256",
					"name": "num",
					"type": "uint256"
				},
				{
					"internalType": "uint256",
					"name": "pos",
					"type": "uint256"
				}
			],
			"name": "setNumByIndexDeep",
			"outputs": [
				{
					"internalType": "uint256",
					"name": "",
					"type": "uint256"
				}
			],
			"stateMutability": "nonpayable",
			"type": "function"
		},
		{
			"inputs": [],
			"name": "showBalance",
			"outputs": [
				{
					"internalType": "uint256",
					"name": "",
					"type": "uint256"
				}
			],
			"stateMutability": "view",
			"type": "function"
		},
		{
			"inputs": [],
			"name": "timeUintTest",
			"outputs": [],
			"stateMutability": "pure",
			"type": "function"
		}
	]
}