{
	"data": {
		"bytecode": {
			"linkReferences": {},
			"object": "6080604052348015600e575f80fd5b506106d68061001c5f395ff3fe608060405234801561000f575f80fd5b5060043610610034575f3560e01c8063131a068014610038578063b0da519514610054575b5f80fd5b610052600480360381019061004d919061029f565b610072565b005b61005c6100c7565b6040516100699190610346565b60405180910390f35b5f8151116100b5576040517f08c379a00000000000000000000000000000000000000000000000000000000081526004016100ac906103b0565b60405180910390fd5b805f90816100c391906105d1565b5050565b5f80546100d3906103fb565b80601f01602080910402602001604051908101604052809291908181526020018280546100ff906103fb565b801561014a5780601f106101215761010080835404028352916020019161014a565b820191905f5260205f20905b81548152906001019060200180831161012d57829003601f168201915b505050505081565b5f604051905090565b5f80fd5b5f80fd5b5f80fd5b5f80fd5b5f601f19601f8301169050919050565b7f4e487b71000000000000000000000000000000000000000000000000000000005f52604160045260245ffd5b6101b18261016b565b810181811067ffffffffffffffff821117156101d0576101cf61017b565b5b80604052505050565b5f6101e2610152565b90506101ee82826101a8565b919050565b5f67ffffffffffffffff82111561020d5761020c61017b565b5b6102168261016b565b9050602081019050919050565b828183375f83830152505050565b5f61024361023e846101f3565b6101d9565b90508281526020810184848401111561025f5761025e610167565b5b61026a848285610223565b509392505050565b5f82601f83011261028657610285610163565b5b8135610296848260208601610231565b91505092915050565b5f602082840312156102b4576102b361015b565b5b5f82013567ffffffffffffffff8111156102d1576102d061015f565b5b6102dd84828501610272565b91505092915050565b5f81519050919050565b5f82825260208201905092915050565b8281835e5f83830152505050565b5f610318826102e6565b61032281856102f0565b9350610332818560208601610300565b61033b8161016b565b840191505092915050565b5f6020820190508181035f83015261035e818461030e565b905092915050565b7f596f75206d7573742070726f7669646520612076616c696420696e70757400005f82015250565b5f61039a601e836102f0565b91506103a582610366565b602082019050919050565b5f6020820190508181035f8301526103c78161038e565b9050919050565b7f4e487b71000000000000000000000000000000000000000000000000000000005f52602260045260245ffd5b5f600282049050600182168061041257607f821691505b602082108103610425576104246103ce565b5b50919050565b5f819050815f5260205f209050919050565b5f6020601f8301049050919050565b5f82821b905092915050565b5f600883026104877fffffffffffffffffffffffffffffffffffffffffffffffffffffffffffffffff8261044c565b610491868361044c565b95508019841693508086168417925050509392505050565b5f819050919050565b5f819050919050565b5f6104d56104d06104cb846104a9565b6104b2565b6104a9565b9050919050565b5f819050919050565b6104ee836104bb565b6105026104fa826104dc565b848454610458565b825550505050565b5f90565b61051661050a565b6105218184846104e5565b505050565b5b81811015610544576105395f8261050e565b600181019050610527565b5050565b601f8211156105895761055a8161042b565b6105638461043d565b81016020851015610572578190505b61058661057e8561043d565b830182610526565b50505b505050565b5f82821c905092915050565b5f6105a95f198460080261058e565b1980831691505092915050565b5f6105c1838361059a565b9150826002028217905092915050565b6105da826102e6565b67ffffffffffffffff8111156105f3576105f261017b565b5b6105fd82546103fb565b610608828285610548565b5f60209050601f831160018114610639575f8415610627578287015190505b61063185826105b6565b865550610698565b601f1984166106478661042b565b5f5b8281101561066e57848901518255600182019150602085019450602081019050610649565b8683101561068b5784890151610687601f89168261059a565b8355505b6001600288020188555050505b50505050505056fea264697066735822122025fd00f89d3b933bf24ddfbeb31a9d7d1d00dbde00781ec49fd718db3fe4d08b64736f6c634300081a0033",
			"opcodes": "PUSH1 0x80 PUSH1 0x40 MSTORE CALLVALUE DUP1 ISZERO PUSH1 0xE JUMPI PUSH0 DUP1 REVERT JUMPDEST POP PUSH2 0x6D6 DUP1 PUSH2 0x1C PUSH0 CODECOPY PUSH0 RETURN INVALID PUSH1 0x80 PUSH1 0x40 MSTORE CALLVALUE DUP1 ISZERO PUSH2 0xF JUMPI PUSH0 DUP1 REVERT JUMPDEST POP PUSH1 0x4 CALLDATASIZE LT PUSH2 0x34 JUMPI PUSH0 CALLDATALOAD PUSH1 0xE0 SHR DUP1 PUSH4 0x131A0680 EQ PUSH2 0x38 JUMPI DUP1 PUSH4 0xB0DA5195 EQ PUSH2 0x54 JUMPI JUMPDEST PUSH0 DUP1 REVERT JUMPDEST PUSH2 0x52 PUSH1 0x4 DUP1 CALLDATASIZE SUB DUP2 ADD SWAP1 PUSH2 0x4D SWAP2 SWAP1 PUSH2 0x29F JUMP JUMPDEST PUSH2 0x72 JUMP JUMPDEST STOP JUMPDEST PUSH2 0x5C PUSH2 0xC7 JUMP JUMPDEST PUSH1 0x40 MLOAD PUSH2 0x69 SWAP2 SWAP1 PUSH2 0x346 JUMP JUMPDEST PUSH1 0x40 MLOAD DUP1 SWAP2 SUB SWAP1 RETURN JUMPDEST PUSH0 DUP2 MLOAD GT PUSH2 0xB5 JUMPI PUSH1 0x40 MLOAD PUSH32 0x8C379A000000000000000000000000000000000000000000000000000000000 DUP2 MSTORE PUSH1 0x4 ADD PUSH2 0xAC SWAP1 PUSH2 0x3B0 JUMP JUMPDEST PUSH1 0x40 MLOAD DUP1 SWAP2 SUB SWAP1 REVERT JUMPDEST DUP1 PUSH0 SWAP1 DUP2 PUSH2 0xC3 SWAP2 SWAP1 PUSH2 0x5D1 JUMP JUMPDEST POP POP JUMP JUMPDEST PUSH0 DUP1 SLOAD PUSH2 0xD3 SWAP1 PUSH2 0x3FB JUMP JUMPDEST DUP1 PUSH1 0x1F ADD PUSH1 0x20 DUP1 SWAP2 DIV MUL PUSH1 0x20 ADD PUSH1 0x40 MLOAD SWAP1 DUP2 ADD PUSH1 0x40 MSTORE DUP1 SWAP3 SWAP2 SWAP1 DUP2 DUP2 MSTORE PUSH1 0x20 ADD DUP3 DUP1 SLOAD PUSH2 0xFF SWAP1 PUSH2 0x3FB JUMP JUMPDEST DUP1 ISZERO PUSH2 0x14A JUMPI DUP1 PUSH1 0x1F LT PUSH2 0x121 JUMPI PUSH2 0x100 DUP1 DUP4 SLOAD DIV MUL DUP4 MSTORE SWAP2 PUSH1 0x20 ADD SWAP2 PUSH2 0x14A JUMP JUMPDEST DUP3 ADD SWAP2 SWAP1 PUSH0 MSTORE PUSH1 0x20 PUSH0 KECCAK256 SWAP1 JUMPDEST DUP2 SLOAD DUP2 MSTORE SWAP1 PUSH1 0x1 ADD SWAP1 PUSH1 0x20 ADD DUP1 DUP4 GT PUSH2 0x12D JUMPI DUP3 SWAP1 SUB PUSH1 0x1F AND DUP3 ADD SWAP2 JUMPDEST POP POP POP POP POP DUP2 JUMP JUMPDEST PUSH0 PUSH1 0x40 MLOAD SWAP1 POP SWAP1 JUMP JUMPDEST PUSH0 DUP1 REVERT JUMPDEST PUSH0 DUP1 REVERT JUMPDEST PUSH0 DUP1 REVERT JUMPDEST PUSH0 DUP1 REVERT JUMPDEST PUSH0 PUSH1 0x1F NOT PUSH1 0x1F DUP4 ADD AND SWAP1 POP SWAP2 SWAP1 POP JUMP JUMPDEST PUSH32 0x4E487B7100000000000000000000000000000000000000000000000000000000 PUSH0 MSTORE PUSH1 0x41 PUSH1 0x4 MSTORE PUSH1 0x24 PUSH0 REVERT JUMPDEST PUSH2 0x1B1 DUP3 PUSH2 0x16B JUMP JUMPDEST DUP2 ADD DUP2 DUP2 LT PUSH8 0xFFFFFFFFFFFFFFFF DUP3 GT OR ISZERO PUSH2 0x1D0 JUMPI PUSH2 0x1CF PUSH2 0x17B JUMP JUMPDEST JUMPDEST DUP1 PUSH1 0x40 MSTORE POP POP POP JUMP JUMPDEST PUSH0 PUSH2 0x1E2 PUSH2 0x152 JUMP JUMPDEST SWAP1 POP PUSH2 0x1EE DUP3 DUP3 PUSH2 0x1A8 JUMP JUMPDEST SWAP2 SWAP1 POP JUMP JUMPDEST PUSH0 PUSH8 0xFFFFFFFFFFFFFFFF DUP3 GT ISZERO PUSH2 0x20D JUMPI PUSH2 0x20C PUSH2 0x17B JUMP JUMPDEST JUMPDEST PUSH2 0x216 DUP3 PUSH2 0x16B JUMP JUMPDEST SWAP1 POP PUSH1 0x20 DUP2 ADD SWAP1 POP SWAP2 SWAP1 POP JUMP JUMPDEST DUP3 DUP2 DUP4 CALLDATACOPY PUSH0 DUP4 DUP4 ADD MSTORE POP POP POP JUMP JUMPDEST PUSH0 PUSH2 0x243 PUSH2 0x23E DUP5 PUSH2 0x1F3 JUMP JUMPDEST PUSH2 0x1D9 JUMP JUMPDEST SWAP1 POP DUP3 DUP2 MSTORE PUSH1 0x20 DUP2 ADD DUP5 DUP5 DUP5 ADD GT ISZERO PUSH2 0x25F JUMPI PUSH2 0x25E PUSH2 0x167 JUMP JUMPDEST JUMPDEST PUSH2 0x26A DUP5 DUP3 DUP6 PUSH2 0x223 JUMP JUMPDEST POP SWAP4 SWAP3 POP POP POP JUMP JUMPDEST PUSH0 DUP3 PUSH1 0x1F DUP4 ADD SLT PUSH2 0x286 JUMPI PUSH2 0x285 PUSH2 0x163 JUMP JUMPDEST JUMPDEST DUP2 CALLDATALOAD PUSH2 0x296 DUP5 DUP3 PUSH1 0x20 DUP7 ADD PUSH2 0x231 JUMP JUMPDEST SWAP2 POP POP SWAP3 SWAP2 POP POP JUMP JUMPDEST PUSH0 PUSH1 0x20 DUP3 DUP5 SUB SLT ISZERO PUSH2 0x2B4 JUMPI PUSH2 0x2B3 PUSH2 0x15B JUMP JUMPDEST JUMPDEST PUSH0 DUP3 ADD CALLDATALOAD PUSH8 0xFFFFFFFFFFFFFFFF DUP2 GT ISZERO PUSH2 0x2D1 JUMPI PUSH2 0x2D0 PUSH2 0x15F JUMP JUMPDEST JUMPDEST PUSH2 0x2DD DUP5 DUP3 DUP6 ADD PUSH2 0x272 JUMP JUMPDEST SWAP2 POP POP SWAP3 SWAP2 POP POP JUMP JUMPDEST PUSH0 DUP2 MLOAD SWAP1 POP SWAP2 SWAP1 POP JUMP JUMPDEST PUSH0 DUP3 DUP3 MSTORE PUSH1 0x20 DUP3 ADD SWAP1 POP SWAP3 SWAP2 POP POP JUMP JUMPDEST DUP3 DUP2 DUP4 MCOPY PUSH0 DUP4 DUP4 ADD MSTORE POP POP POP JUMP JUMPDEST PUSH0 PUSH2 0x318 DUP3 PUSH2 0x2E6 JUMP JUMPDEST PUSH2 0x322 DUP2 DUP6 PUSH2 0x2F0 JUMP JUMPDEST SWAP4 POP PUSH2 0x332 DUP2 DUP6 PUSH1 0x20 DUP7 ADD PUSH2 0x300 JUMP JUMPDEST PUSH2 0x33B DUP2 PUSH2 0x16B JUMP JUMPDEST DUP5 ADD SWAP2 POP POP SWAP3 SWAP2 POP POP JUMP JUMPDEST PUSH0 PUSH1 0x20 DUP3 ADD SWAP1 POP DUP2 DUP2 SUB PUSH0 DUP4 ADD MSTORE PUSH2 0x35E DUP2 DUP5 PUSH2 0x30E JUMP JUMPDEST SWAP1 POP SWAP3 SWAP2 POP POP JUMP JUMPDEST PUSH32 0x596F75206D7573742070726F7669646520612076616C696420696E7075740000 PUSH0 DUP3 ADD MSTORE POP JUMP JUMPDEST PUSH0 PUSH2 0x39A PUSH1 0x1E DUP4 PUSH2 0x2F0 JUMP JUMPDEST SWAP2 POP PUSH2 0x3A5 DUP3 PUSH2 0x366 JUMP JUMPDEST PUSH1 0x20 DUP3 ADD SWAP1 POP SWAP2 SWAP1 POP JUMP JUMPDEST PUSH0 PUSH1 0x20 DUP3 ADD SWAP1 POP DUP2 DUP2 SUB PUSH0 DUP4 ADD MSTORE PUSH2 0x3C7 DUP2 PUSH2 0x38E JUMP JUMPDEST SWAP1 POP SWAP2 SWAP1 POP JUMP JUMPDEST PUSH32 0x4E487B7100000000000000000000000000000000000000000000000000000000 PUSH0 MSTORE PUSH1 0x22 PUSH1 0x4 MSTORE PUSH1 0x24 PUSH0 REVERT JUMPDEST PUSH0 PUSH1 0x2 DUP3 DIV SWAP1 POP PUSH1 0x1 DUP3 AND DUP1 PUSH2 0x412 JUMPI PUSH1 0x7F DUP3 AND SWAP2 POP JUMPDEST PUSH1 0x20 DUP3 LT DUP2 SUB PUSH2 0x425 JUMPI PUSH2 0x424 PUSH2 0x3CE JUMP JUMPDEST JUMPDEST POP SWAP2 SWAP1 POP JUMP JUMPDEST PUSH0 DUP2 SWAP1 POP DUP2 PUSH0 MSTORE PUSH1 0x20 PUSH0 KECCAK256 SWAP1 POP SWAP2 SWAP1 POP JUMP JUMPDEST PUSH0 PUSH1 0x20 PUSH1 0x1F DUP4 ADD DIV SWAP1 POP SWAP2 SWAP1 POP JUMP JUMPDEST PUSH0 DUP3 DUP3 SHL SWAP1 POP SWAP3 SWAP2 POP POP JUMP JUMPDEST PUSH0 PUSH1 0x8 DUP4 MUL PUSH2 0x487 PUSH32 0xFFFFFFFFFFFFFFFFFFFFFFFFFFFFFFFFFFFFFFFFFFFFFFFFFFFFFFFFFFFFFFFF DUP3 PUSH2 0x44C JUMP JUMPDEST PUSH2 0x491 DUP7 DUP4 PUSH2 0x44C JUMP JUMPDEST SWAP6 POP DUP1 NOT DUP5 AND SWAP4 POP DUP1 DUP7 AND DUP5 OR SWAP3 POP POP POP SWAP4 SWAP3 POP POP POP JUMP JUMPDEST PUSH0 DUP2 SWAP1 POP SWAP2 SWAP1 POP JUMP JUMPDEST PUSH0 DUP2 SWAP1 POP SWAP2 SWAP1 POP JUMP JUMPDEST PUSH0 PUSH2 0x4D5 PUSH2 0x4D0 PUSH2 0x4CB DUP5 PUSH2 0x4A9 JUMP JUMPDEST PUSH2 0x4B2 JUMP JUMPDEST PUSH2 0x4A9 JUMP JUMPDEST SWAP1 POP SWAP2 SWAP1 POP JUMP JUMPDEST PUSH0 DUP2 SWAP1 POP SWAP2 SWAP1 POP JUMP JUMPDEST PUSH2 0x4EE DUP4 PUSH2 0x4BB JUMP JUMPDEST PUSH2 0x502 PUSH2 0x4FA DUP3 PUSH2 0x4DC JUMP JUMPDEST DUP5 DUP5 SLOAD PUSH2 0x458 JUMP JUMPDEST DUP3 SSTORE POP POP POP POP JUMP JUMPDEST PUSH0 SWAP1 JUMP JUMPDEST PUSH2 0x516 PUSH2 0x50A JUMP JUMPDEST PUSH2 0x521 DUP2 DUP5 DUP5 PUSH2 0x4E5 JUMP JUMPDEST POP POP POP JUMP JUMPDEST JUMPDEST DUP2 DUP2 LT ISZERO PUSH2 0x544 JUMPI PUSH2 0x539 PUSH0 DUP3 PUSH2 0x50E JUMP JUMPDEST PUSH1 0x1 DUP2 ADD SWAP1 POP PUSH2 0x527 JUMP JUMPDEST POP POP JUMP JUMPDEST PUSH1 0x1F DUP3 GT ISZERO PUSH2 0x589 JUMPI PUSH2 0x55A DUP2 PUSH2 0x42B JUMP JUMPDEST PUSH2 0x563 DUP5 PUSH2 0x43D JUMP JUMPDEST DUP2 ADD PUSH1 0x20 DUP6 LT ISZERO PUSH2 0x572 JUMPI DUP2 SWAP1 POP JUMPDEST PUSH2 0x586 PUSH2 0x57E DUP6 PUSH2 0x43D JUMP JUMPDEST DUP4 ADD DUP3 PUSH2 0x526 JUMP JUMPDEST POP POP JUMPDEST POP POP POP JUMP JUMPDEST PUSH0 DUP3 DUP3 SHR SWAP1 POP SWAP3 SWAP2 POP POP JUMP JUMPDEST PUSH0 PUSH2 0x5A9 PUSH0 NOT DUP5 PUSH1 0x8 MUL PUSH2 0x58E JUMP JUMPDEST NOT DUP1 DUP4 AND SWAP2 POP POP SWAP3 SWAP2 POP POP JUMP JUMPDEST PUSH0 PUSH2 0x5C1 DUP4 DUP4 PUSH2 0x59A JUMP JUMPDEST SWAP2 POP DUP3 PUSH1 0x2 MUL DUP3 OR SWAP1 POP SWAP3 SWAP2 POP POP JUMP JUMPDEST PUSH2 0x5DA DUP3 PUSH2 0x2E6 JUMP JUMPDEST PUSH8 0xFFFFFFFFFFFFFFFF DUP2 GT ISZERO PUSH2 0x5F3 JUMPI PUSH2 0x5F2 PUSH2 0x17B JUMP JUMPDEST JUMPDEST PUSH2 0x5FD DUP3 SLOAD PUSH2 0x3FB JUMP JUMPDEST PUSH2 0x608 DUP3 DUP3 DUP6 PUSH2 0x548 JUMP JUMPDEST PUSH0 PUSH1 0x20 SWAP1 POP PUSH1 0x1F DUP4 GT PUSH1 0x1 DUP2 EQ PUSH2 0x639 JUMPI PUSH0 DUP5 ISZERO PUSH2 0x627 JUMPI DUP3 DUP8 ADD MLOAD SWAP1 POP JUMPDEST PUSH2 0x631 DUP6 DUP3 PUSH2 0x5B6 JUMP JUMPDEST DUP7 SSTORE POP PUSH2 0x698 JUMP JUMPDEST PUSH1 0x1F NOT DUP5 AND PUSH2 0x647 DUP7 PUSH2 0x42B JUMP JUMPDEST PUSH0 JUMPDEST DUP3 DUP2 LT ISZERO PUSH2 0x66E JUMPI DUP5 DUP10 ADD MLOAD DUP3 SSTORE PUSH1 0x1 DUP3 ADD SWAP2 POP PUSH1 0x20 DUP6 ADD SWAP5 POP PUSH1 0x20 DUP2 ADD SWAP1 POP PUSH2 0x649 JUMP JUMPDEST DUP7 DUP4 LT ISZERO PUSH2 0x68B JUMPI DUP5 DUP10 ADD MLOAD PUSH2 0x687 PUSH1 0x1F DUP10 AND DUP3 PUSH2 0x59A JUMP JUMPDEST DUP4 SSTORE POP JUMPDEST PUSH1 0x1 PUSH1 0x2 DUP9 MUL ADD DUP9 SSTORE POP POP POP JUMPDEST POP POP POP POP POP POP JUMP INVALID LOG2 PUSH5 0x6970667358 0x22 SLT KECCAK256 0x25 REVERT STOP 0xF8 SWAP14 EXTCODESIZE SWAP4 EXTCODESIZE CALLCODE 0x4D 0xDF 0xBE 0xB3 BYTE SWAP14 PUSH30 0x1D00DBDE00781EC49FD718DB3FE4D08B64736F6C634300081A0033000000 "
		},
		"gasEstimates": {
			"creation": {
				"codeDepositCost": "350000",
				"executionCost": "384",
				"totalCost": "350384"
			},
			"external": {
				"store(string)": "infinite",
				"storedHash()": "infinite"
			}
		},
		"methodIdentifiers": {
			"store(string)": "131a0680",
			"storedHash()": "b0da5195"
		}
	},
	"abi": [
		{
			"inputs": [
				{
					"internalType": "string",
					"name": "_hash",
					"type": "string"
				}
			],
			"name": "store",
			"outputs": [],
			"stateMutability": "nonpayable",
			"type": "function"
		},
		{
			"inputs": [],
			"name": "storedHash",
			"outputs": [
				{
					"internalType": "string",
					"name": "",
					"type": "string"
				}
			],
			"stateMutability": "view",
			"type": "function"
		}
	]
}