{
	"data": {
		"bytecode": {
			"linkReferences": {},
			"object": "6080604052348015600e575f80fd5b50614ea28061001c5f395ff3fe608060405234801561000f575f80fd5b506004361061009c575f3560e01c806387bd13161161006457806387bd13161461013257806397a1d90b1461013c5780639ec8b02614610146578063b7c763b514610176578063fad33df2146101a65761009c565b8063294327da146100a05780632b67be6e146100d057806356b35be2146100ee5780637430fbfb146100f85780638425e23d14610128575b5f80fd5b6100ba60048036038101906100b591906141a4565b6101b0565b6040516100c7919061420e565b60405180910390f35b6100d86102a9565b6040516100e59190614241565b60405180910390f35b6100f6610367565b005b610112600480360381019061010d91906141a4565b6109ca565b60405161011f9190614269565b60405180910390f35b6101306109e6565b005b61013a610bf7565b005b610144610e41565b005b610160600480360381019061015b91906143d2565b61115c565b60405161016d91906144d0565b60405180910390f35b610190600480360381019061018b91906141a4565b61116e565b60405161019d9190614550565b60405180910390f35b6101ae611180565b005b5f8073176d1ab02adf27c0c1478ca731c68252d2b6a76290505f836040516024016101db9190614269565b6040516020818303038152906040527f6352211e000000000000000000000000000000000000000000000000000000007bffffffffffffffffffffffffffffffffffffffffffffffffffffffff19166020820180517bffffffffffffffffffffffffffffffffffffffffffffffffffffffff838183161783525050505090505f610284828473ffffffffffffffffffffffffffffffffffffffff16611de890919063ffffffff16565b90505f8180602001905181019061029b91906145ab565b905080945050505050919050565b5f6102d2735b38da6a701c568545dcfcb03fcb875f56beddc46013611e6890919063ffffffff16565b506102fb73ab8483f64d9c6d1ecf9b849ae677dd3315835cb26013611e6890919063ffffffff16565b50610324735b38da6a701c568545dcfcb03fcb875f56beddc46013611e6890919063ffffffff16565b5061034d734b20993bc481177ec7e8f571cecae8a9e22c02db6013611e6890919063ffffffff16565b50610362336013611e8590919063ffffffff16565b905090565b5f602167ffffffffffffffff81111561038357610382614296565b5b6040519080825280601f01601f1916602001820160405280156103b55781602001600182028036833780820191505090505b509050606160f81b816020815181106103d1576103d06145d6565b5b60200101907effffffffffffffffffffffffffffffffffffffffffffffffffffffffffffff191690815f1a9053505f600167ffffffffffffffff81111561041b5761041a614296565b5b6040519080825280601f01601f19166020018201604052801561044d5781602001600182028036833780820191505090505b509050600160f81b815f81518110610468576104676145d6565b5b60200101907effffffffffffffffffffffffffffffffffffffffffffffffffffffffffffff191690815f1a9053505f6104aa8284611ea290919063ffffffff16565b90506104f4816040518060400160405280600d81526020017f636f6e63617442797465733a2000000000000000000000000000000000000000815250611f2c90919063ffffffff16565b61053d81516040518060400160405280601681526020017f636f6e63617442797465732e6c656e67746828293a2000000000000000000000815250611f6990919063ffffffff16565b5f6105556020600184611fa69092919063ffffffff16565b905061059f816040518060400160405280600c81526020017f736c69636542797465733a200000000000000000000000000000000000000000815250611f2c90919063ffffffff16565b5f6105b4600e846120c290919063ffffffff16565b90506105fe816040518060400160405280600b81526020017f746f416464726573733a2000000000000000000000000000000000000000000081525061213690919063ffffffff16565b5f61061360018761217390919063ffffffff16565b905061065d816040518060400160405280600b81526020017f746f55696e743235363a20000000000000000000000000000000000000000000815250611f6990919063ffffffff16565b5f6106726001886121d890919063ffffffff16565b90506106bc816040518060400160405280600981526020017f746f42797465733332000000000000000000000000000000000000000000000081525061223d90919063ffffffff16565b5f602267ffffffffffffffff8111156106d8576106d7614296565b5b6040519080825280601f01601f19166020018201604052801561070a5781602001600182028036833780820191505090505b5090505f5b602281101561076a575f60f81b82828151811061072f5761072e6145d6565b5b60200101907effffffffffffffffffffffffffffffffffffffffffffffffffffffffffffff191690815f1a905350808060010191505061070f565b50606160f81b81602081518110610784576107836145d6565b5b60200101907effffffffffffffffffffffffffffffffffffffffffffffffffffffffffffff191690815f1a905350600160f81b816021815181106107cb576107ca6145d6565b5b60200101907effffffffffffffffffffffffffffffffffffffffffffffffffffffffffffff191690815f1a905350610841816040518060400160405280600e81526020017f636f6d7061726542797465733a20000000000000000000000000000000000000815250611f2c90919063ffffffff16565b610889866040518060400160405280600d81526020017f636f6e63617442797465733a2000000000000000000000000000000000000000815250611f2c90919063ffffffff16565b6108c661089f828861227a90919063ffffffff16565b604051806060016040528060218152602001614ddd602191396122e290919063ffffffff16565b6109036108dc828861231f90919063ffffffff16565b6040518060600160405280602c8152602001614d8f602c91396122e290919063ffffffff16565b5f601e67ffffffffffffffff81111561091f5761091e614296565b5b6040519080825280601f01601f1916602001820160405280156109515781602001600182028036833780820191505090505b5090505f6109688289611ea290919063ffffffff16565b90505f61097e838a611ea290919063ffffffff16565b90506109bd610996828461227a90919063ffffffff16565b604051806060016040528060298152602001614e44602991396122e290919063ffffffff16565b5050505050505050505050565b5f6109df8260026123c790919063ffffffff16565b9050919050565b6109fa60015f6123e090919063ffffffff16565b50610a0f60035f6123e090919063ffffffff16565b50610a2460025f6123e090919063ffffffff16565b50610a3960045f6123e090919063ffffffff16565b50610a8a610a465f6123f7565b6040518060400160405280600c81526020017f61646428312c332c322c3429000000000000000000000000000000000000000081525061241690919063ffffffff16565b610a9e60015f61245390919063ffffffff16565b50610aef610aab5f6123f7565b6040518060400160405280600981526020017f72656d6f7665283129000000000000000000000000000000000000000000000081525061241690919063ffffffff16565b610b4a610b0660035f61246a90919063ffffffff16565b6040518060400160405280600d81526020017f636f6e7461696e732833293a20000000000000000000000000000000000000008152506122e290919063ffffffff16565b610b9a610b565f612481565b6040518060400160405280600a81526020017f6c656e67746828293a2000000000000000000000000000000000000000000000815250611f6990919063ffffffff16565b610bf5610bb160025f61249490919063ffffffff16565b6040518060400160405280600781526020017f61742832293a2000000000000000000000000000000000000000000000000000815250611f6990919063ffffffff16565b565b610c0c6001600c6124ab90919063ffffffff16565b50610c226002600c6124ab90919063ffffffff16565b50610c386001600c6124ab90919063ffffffff16565b50610c4e6003600c6124ab90919063ffffffff16565b50610ca0610c5c600c6124c2565b6040518060400160405280601181526020017f75696e744c6973742e76616c756573282900000000000000000000000000000081525061241690919063ffffffff16565b610cf1610cad600c6124e1565b6040518060400160405280601081526020017f75696e744c6973742e73697a6528293a00000000000000000000000000000000815250611f6990919063ffffffff16565b610d42610cfe600c6124f4565b6040518060400160405280601781526020017f75696e744c6973742e72656d6f7665466972737428293a000000000000000000815250611f6990919063ffffffff16565b610d93610d4f600c612509565b6040518060400160405280601681526020017f75696e744c6973742e72656d6f76654c61737428293a00000000000000000000815250611f6990919063ffffffff16565b610de4610da0600c6124c2565b6040518060400160405280601181526020017f75696e744c6973742e76616c756573282900000000000000000000000000000081525061241690919063ffffffff16565b610dee600c61251e565b610e3f610dfb600c6124c2565b6040518060400160405280601181526020017f75696e744c6973742e76616c756573282900000000000000000000000000000081525061241690919063ffffffff16565b565b610e5960016065600261252c9092919063ffffffff16565b50610e7260026066600261252c9092919063ffffffff16565b50610e8b60036067600261252c9092919063ffffffff16565b50610ea460046068600261252c9092919063ffffffff16565b50610ed9610eb26002612547565b604051806060016040528060228152602001614dbb6022913961241690919063ffffffff16565b610eed60028061256690919063ffffffff16565b50610f3f610efb6002612547565b6040518060400160405280600f81526020017f72656d6f76652832292c6b6579733a000000000000000000000000000000000081525061241690919063ffffffff16565b610f9b610f576001600261257d90919063ffffffff16565b6040518060400160405280600b81526020017f636f6e7461696e732831290000000000000000000000000000000000000000008152506122e290919063ffffffff16565b610ff6610fb260028061257d90919063ffffffff16565b6040518060400160405280600b81526020017f636f6e7461696e732832290000000000000000000000000000000000000000008152506122e290919063ffffffff16565b6110476110036002612594565b6040518060400160405280600a81526020017f6c656e67746828293a2000000000000000000000000000000000000000000000815250611f6990919063ffffffff16565b5f8061105e600160026125a790919063ffffffff16565b915091506110ac82826040518060400160405280600581526020017f61742831290000000000000000000000000000000000000000000000000000008152506125ce9092919063ffffffff16565b5f806110c260028061260e90919063ffffffff16565b9150915061110e826040518060400160405280601281526020017f7472794765742832292c206578697374733a00000000000000000000000000008152506122e290919063ffffffff16565b611156816040518060400160405280601781526020017f7472794765742832292c2074727947657456616c75653a000000000000000000815250611f6990919063ffffffff16565b50505050565b606061116782612635565b9050919050565b60606111798261264c565b9050919050565b6111b47f3100000000000000000000000000000000000000000000000000000000000000600561271690919063ffffffff16565b506111e97f3200000000000000000000000000000000000000000000000000000000000000600561271690919063ffffffff16565b5061121e7f3300000000000000000000000000000000000000000000000000000000000000600561271690919063ffffffff16565b5061125361122c600561272b565b604051806060016040528060228152602001614e2260229139611f6990919063ffffffff16565b6112a4611260600561273e565b6040518060400160405280601781526020017f627974657333324c6973742e676574466972737428293a00000000000000000081525061223d90919063ffffffff16565b6112f56112b16005612751565b6040518060400160405280601681526020017f627974657333324c6973742e6765744c61737428293a0000000000000000000081525061223d90919063ffffffff16565b6113296113026005612764565b604051806060016040528060248152602001614dfe6024913961277890919063ffffffff16565b61137a61133660056127b5565b6040518060400160405280601a81526020017f627974657333324c6973742e72656d6f7665466972737428293a00000000000081525061223d90919063ffffffff16565b6113ae6113876005612764565b604051806060016040528060248152602001614dfe6024913961277890919063ffffffff16565b6114296113e57f340000000000000000000000000000000000000000000000000000000000000060056127c890919063ffffffff16565b6040518060400160405280601481526020017f6164644c6173742862797465733332283429293a0000000000000000000000008152506122e290919063ffffffff16565b6114a46114607f350000000000000000000000000000000000000000000000000000000000000060056127c890919063ffffffff16565b6040518060400160405280601481526020017f6164644c6173742862797465733332283529293a0000000000000000000000008152506122e290919063ffffffff16565b6114f56114b160056127dd565b6040518060400160405280601981526020017f627974657333324c6973742e72656d6f76654c61737428293a0000000000000081525061223d90919063ffffffff16565b61157061152c7f330000000000000000000000000000000000000000000000000000000000000060056127f090919063ffffffff16565b6040518060400160405280601581526020017f636f6e7461696e732862797465733332283329293a00000000000000000000008152506122e290919063ffffffff16565b6115c161157d6005612764565b6040518060400160405280601581526020017f627974657333324c6973742e76616c75657328293a000000000000000000000081525061277890919063ffffffff16565b6116126115ce6005612805565b6040518060400160405280600a81526020017f6973456d70747928293a000000000000000000000000000000000000000000008152506122e290919063ffffffff16565b61167261162a6001600561281890919063ffffffff16565b600301546040518060400160405280601281526020017f627974657333324c6973742e61742831293a000000000000000000000000000081525061223d90919063ffffffff16565b6116f06116ac60017f3600000000000000000000000000000000000000000000000000000000000000600561282d9092919063ffffffff16565b6040518060400160405280601681526020017f627974657333324c6973742e61646428312c2036293a000000000000000000008152506122e290919063ffffffff16565b6117416116fd6005612764565b6040518060400160405280601581526020017f627974657333324c6973742e76616c75657328293a000000000000000000000081525061277890919063ffffffff16565b61179d6117596002600561284490919063ffffffff16565b6040518060400160405280601281526020017f627974657333324c6973742e61742831293a000000000000000000000000000081525061223d90919063ffffffff16565b61181a6117d65f7f370000000000000000000000000000000000000000000000000000000000000060056128599092919063ffffffff16565b6040518060400160405280601681526020017f627974657333324c6973742e73657428302c2037293a000000000000000000008152506122e290919063ffffffff16565b61186b6118276005612764565b6040518060400160405280601581526020017f627974657333324c6973742e76616c75657328293a000000000000000000000081525061277890919063ffffffff16565b6118c76118836001600561287090919063ffffffff16565b6040518060400160405280601381526020017f627974657333324c6973742e6765742831293a0000000000000000000000000081525061223d90919063ffffffff16565b6119186118d4600561272b565b6040518060400160405280601f81526020017f6265666f7265436c65617220627974657333324c6973742e73697a6528293a00815250611f6990919063ffffffff16565b6119226005612885565b61197361192f6005612764565b6040518060400160405280602081526020017f6166746572436c65617220627974657333324c6973742e76616c75657328293a81525061277890919063ffffffff16565b6119a77f310000000000000000000000000000000000000000000000000000000000000060056127c890919063ffffffff16565b506119dc7f320000000000000000000000000000000000000000000000000000000000000060056127c890919063ffffffff16565b50611a117f330000000000000000000000000000000000000000000000000000000000000060056127c890919063ffffffff16565b50611a467f3400000000000000000000000000000000000000000000000000000000000000600561271690919063ffffffff16565b50611a7b7f3500000000000000000000000000000000000000000000000000000000000000600561271690919063ffffffff16565b50611ab07f3600000000000000000000000000000000000000000000000000000000000000600561271690919063ffffffff16565b50611b02611abe6005612764565b6040518060400160405280601581526020017f627974657333324c6973742e76616c75657328293a000000000000000000000081525061277890919063ffffffff16565b611b53611b0f60056127b5565b6040518060400160405280601a81526020017f627974657333324c6973742e72656d6f7665466972737428293a00000000000081525061223d90919063ffffffff16565b611ba4611b6060056127dd565b6040518060400160405280601981526020017f627974657333324c6973742e72656d6f76654c61737428293a0000000000000081525061223d90919063ffffffff16565b611c00611bbc6002600561284490919063ffffffff16565b6040518060400160405280601a81526020017f627974657333324c6973742e72656d6f7665466972737428293a00000000000081525061223d90919063ffffffff16565b611c51611c0d6005612764565b6040518060400160405280601581526020017f627974657333324c6973742e76616c75657328293a000000000000000000000081525061277890919063ffffffff16565b611ca2611c5e60056127dd565b6040518060400160405280601981526020017f627974657333324c6973742e72656d6f76654c61737428293a0000000000000081525061223d90919063ffffffff16565b611cf3611caf60056127dd565b6040518060400160405280601981526020017f627974657333324c6973742e72656d6f76654c61737428293a0000000000000081525061223d90919063ffffffff16565b611d44611d0060056127dd565b6040518060400160405280601981526020017f627974657333324c6973742e72656d6f76654c61737428293a0000000000000081525061223d90919063ffffffff16565b611d95611d51600561272b565b6040518060400160405280601b81526020017f66696e616c6c7920627974657333324c6973742e73697a6528293a0000000000815250611f6990919063ffffffff16565b611de6611da260056127dd565b6040518060400160405280601981526020017f627974657333324c6973742e72656d6f76654c61737428293a0000000000000081525061223d90919063ffffffff16565b565b60605f808473ffffffffffffffffffffffffffffffffffffffff1684604051611e119190614647565b5f60405180830381855afa9150503d805f8114611e49576040519150601f19603f3d011682016040523d82523d5f602084013e611e4e565b606091505b5091509150611e5e858383612893565b9250505092915050565b5f611e7d835f01611e7884612920565b612941565b905092915050565b5f611e9a835f01611e9584612920565b612b73565b905092915050565b6060806040519050835180825260208201818101602087015b81831015611ed85780518352602083019250602081019050611ebb565b50855192508351830184528091508282019050602086015b81831015611f0d5780518352602083019250602081019050611ef0565b50601f19601f8851850115830101166040525050508091505092915050565b7f38510722cca54c7525003469aff2983da6aa6aaa7dec66f217775d1de381a51a8282604051611f5d92919061465d565b60405180910390a15050565b7fe065c143ab819e9eeee7bb1926a4c1354ec7fe3492ded34510cfff0e78e7b8be8282604051611f9a929190614692565b60405180910390a15050565b606081601f83611fb691906146ed565b1015611ff7576040517f08c379a0000000000000000000000000000000000000000000000000000000008152600401611fee9061476a565b60405180910390fd5b818361200391906146ed565b84511015612046576040517f08c379a000000000000000000000000000000000000000000000000000000000815260040161203d906147d2565b60405180910390fd5b606082155f81146120655760405191505f8252602082016040526120b6565b6040519150601f8416801560200281840101858101878315602002848b0101015b818310156120a35780518352602083019250602081019050612086565b50868552601f19601f8301166040525050505b50809150509392505050565b5f6014826120d091906146ed565b83511015612113576040517f08c379a000000000000000000000000000000000000000000000000000000000815260040161210a9061483a565b60405180910390fd5b5f6c01000000000000000000000000836020860101510490508091505092915050565b7f7700ee2a2783c555d55a6d24309c75ed5612bd3dedc5272d3219b930694eba448282604051612167929190614858565b60405180910390a15050565b5f60208261218191906146ed565b835110156121c4576040517f08c379a00000000000000000000000000000000000000000000000000000000081526004016121bb906148d0565b60405180910390fd5b5f8260208501015190508091505092915050565b5f6020826121e691906146ed565b83511015612229576040517f08c379a000000000000000000000000000000000000000000000000000000000815260040161222090614938565b60405180910390fd5b5f8260208501015190508091505092915050565b7fdc20d382767d84d94848af5b87ed127c1619173e3e150bf058579fa909cb5d9e828260405161226e92919061496e565b60405180910390a15050565b5f806001905083518351811460018114612296575f92506122d6565b600160208701838101602088015b60028483851001036122d15780518351146122c0575f96505f93505b6020830192506020810190506122a4565b505050505b50508091505092915050565b7f554b0a22792e0cc5201e915b6e42d3cf18a8d15c3d1984da155e6c591b12bb6d828260405161231392919061499c565b60405180910390a15050565b5f80600190508351835181146001811461233b575f92506123bb565b600182870160208801602088015b6002848484100103612376578051825114612365575f96505f93505b602082019150602081019050612349565b5f8711156123b657601f8616825182515f5b60028885831001036123b15781811a83821a146123a6575f9a505f97505b600181019050612388565b505050505b505050505b50508091505092915050565b5f6123d6835f01835f1b612bab565b5f1c905092915050565b5f6123ef835f01835f1b612c27565b905092915050565b60605f612405835f01612c8e565b905060608190508092505050919050565b7f801b2707b7dc1608df3af195d9eef5618a51394fa186e94b16d7700e31d3c43182826040516124479291906149ca565b60405180910390a15050565b5f612462835f01835f1b612ce7565b905092915050565b5f612479835f01835f1b612de3565b905092915050565b5f61248d825f01612e03565b9050919050565b5f6124a1835f0183612e12565b5f1c905092915050565b5f6124ba835f01835f1b612941565b905092915050565b60605f6124d0835f01612e39565b905060608190508092505050919050565b5f6124ed825f01612f5b565b9050919050565b5f612500825f01612f7a565b5f1c9050919050565b5f612515825f016131a6565b5f1c9050919050565b612529815f016133d3565b50565b5f61253e845f01845f1b845f1b6133ee565b90509392505050565b60605f612555835f01613425565b905060608190508092505050919050565b5f612575835f01835f1b613439565b905092915050565b5f61258c835f01835f1b61346d565b905092915050565b5f6125a0825f0161348b565b9050919050565b5f805f806125b7865f018661349e565b91509150815f1c815f1c9350935050509250929050565b7fc953aeb2b9667f5d999e4c121c61464bf7554115bdd0281363b6c07cdc21cdf4838383604051612601939291906149ff565b60405180910390a1505050565b5f805f80612620865f01865f1b6134d9565b9150915081815f1c9350935050509250929050565b60606126438261352261352e565b50819050919050565b60605f600161265a84613554565b0190505f8167ffffffffffffffff81111561267857612677614296565b5b6040519080825280601f01601f1916602001820160405280156126aa5781602001600182028036833780820191505090505b5090505f82602001820190505b60011561270b578080600190039150507f3031323334353637383961626364656600000000000000000000000000000000600a86061a8153600a8581612700576126ff614a3b565b5b0494505f85036126b7575b819350505050919050565b5f612723835f01836136a5565b905092915050565b5f612737825f01612f5b565b9050919050565b5f61274a825f01613884565b9050919050565b5f61275d825f016138ba565b9050919050565b6060612771825f01612e39565b9050919050565b7f8b7a532ff68c965c8899b2ac3c0a5e0e45fee4c84a9e935ab0016eb71f0d138c82826040516127a9929190614b1f565b60405180910390a15050565b5f6127c1825f01612f7a565b9050919050565b5f6127d5835f0183612941565b905092915050565b5f6127e9825f016131a6565b9050919050565b5f6127fd835f0183612b73565b905092915050565b5f612811825f016138f0565b9050919050565b5f612825835f0183613917565b905092915050565b5f61283b845f018484613a0a565b90509392505050565b5f612851835f0183613bb4565b905092915050565b5f612867845f018484613d57565b90509392505050565b5f61287d835f0183613e01565b905092915050565b612890815f016133d3565b50565b6060826128a8576128a382613e27565b612918565b5f82511480156128ce57505f8473ffffffffffffffffffffffffffffffffffffffff163b145b1561291057836040517f9996b315000000000000000000000000000000000000000000000000000000008152600401612907919061420e565b60405180910390fd5b819050612919565b5b9392505050565b5f8173ffffffffffffffffffffffffffffffffffffffff165f1b9050919050565b5f80836002015f855f015481526020019081526020015f205f815461296590614b54565b91905081905590505f846003015f865f015481526020019081526020015f205f8381526020019081526020015f20905081815f01819055508381600301819055506129c5856001015f875f015481526020019081526020015f2054613e6b565b15612a0b57805f0154856005015f875f015481526020019081526020015f2081905550805f0154856006015f875f015481526020019081526020015f2081905550612a6b565b5f856006015f875f015481526020019081526020015f205490505f612a308783613e76565b9050825f01548160020181905550805f01548360010181905550825f0154876006015f895f015481526020019081526020015f208190555050505b80856003015f875f015481526020019081526020015f205f835f015481526020019081526020015f205f820154815f0155600182015481600101556002820154816002015560038201548160030155905050846004015f865f015481526020019081526020015f205f8581526020019081526020015f205f815480929190612af290614b54565b9190505550846001015f865f015481526020019081526020015f205f815480929190612b1d90614b54565b91905055508060030154815f0154865f01547fed332a4769048049e081d4fe892928cff9253e0e1c8fc2a9b48c9ba087eba2706001604051612b5f9190614c0e565b60405180910390a460019250505092915050565b5f612ba2836004015f855f015481526020019081526020015f205f8481526020019081526020015f2054613e6b565b15905092915050565b5f80836002015f8481526020019081526020015f205490505f801b81148015612bdb5750612bd9848461346d565b155b15612c1d57826040517f02b56686000000000000000000000000000000000000000000000000000000008152600401612c149190614c27565b60405180910390fd5b8091505092915050565b5f612c328383612de3565b612c8457825f0182908060018154018082558091505060019003905f5260205f20015f9091909190915055825f0180549050836001015f8481526020019081526020015f208190555060019050612c88565b5f90505b92915050565b6060815f01805480602002602001604051908101604052809291908181526020018280548015612cdb57602002820191905f5260205f20905b815481526020019060010190808311612cc7575b50505050509050919050565b5f80836001015f8481526020019081526020015f205490505f8114612dd8575f600182612d149190614c40565b90505f6001865f0180549050612d2a9190614c40565b9050808214612d90575f865f018281548110612d4957612d486145d6565b5b905f5260205f200154905080875f018481548110612d6a57612d696145d6565b5b905f5260205f20018190555083876001015f8381526020019081526020015f2081905550505b855f01805480612da357612da2614c73565b5b600190038181905f5260205f20015f90559055856001015f8681526020019081526020015f205f905560019350505050612ddd565b5f9150505b92915050565b5f80836001015f8481526020019081526020015f20541415905092915050565b5f815f01805490509050919050565b5f825f018281548110612e2857612e276145d6565b5b905f5260205f200154905092915050565b60605f612e4583612f5b565b67ffffffffffffffff811115612e5e57612e5d614296565b5b604051908082528060200260200182016040528015612e8c5781602001602082028036833780820191505090505b509050612e98836138f0565b15612ea65780915050612f56565b5f80846005015f865f015481526020019081526020015f205490505f612ecc8683613e76565b90508060030154848480612edf90614b54565b955081518110612ef257612ef16145d6565b5b6020026020010181815250505b612f0881613ea4565b15612f4e57612f178187613efd565b90508060030154848480612f2a90614b54565b955081518110612f3d57612f3c6145d6565b5b602002602001018181525050612eff565b839450505050505b919050565b5f816001015f835f015481526020019081526020015f20549050919050565b5f612f84826138f0565b15612fc4576040517f08c379a0000000000000000000000000000000000000000000000000000000008152600401612fbb90614cea565b60405180910390fd5b5f826005015f845f015481526020019081526020015f205490505f612fe98483613e76565b90505f815f015490505f826003015490506001866001015f885f015481526020019081526020015f20540361304f57856005015f875f015481526020019081526020015f205f9055856006015f875f015481526020019081526020015f205f9055613087565b5f61305e878560020154613e76565b9050806001015f9055805f0154876005015f895f015481526020019081526020015f2081905550505b856003015f875f015481526020019081526020015f205f8581526020019081526020015f205f8082015f9055600182015f9055600282015f9055600382015f905550505f866004015f885f015481526020019081526020015f205f8381526020019081526020015f2054111561313257856004015f875f015481526020019081526020015f205f8281526020019081526020015f205f81548092919061312c90614d08565b91905055505b856001015f875f015481526020019081526020015f205f81548092919061315890614d08565b91905055508082875f01547f388361907de59efb1e62e9df3d61e073ef9ca1059d75ee11b572cb0e058408505f6040516131929190614d75565b60405180910390a480945050505050919050565b5f6131b0826138f0565b156131f0576040517f08c379a00000000000000000000000000000000000000000000000000000000081526004016131e790614cea565b60405180910390fd5b5f826006015f845f015481526020019081526020015f205490505f6132158483613e76565b90505f815f015490505f826003015490506001866001015f885f015481526020019081526020015f20540361327b57856005015f875f015481526020019081526020015f205f9055856006015f875f015481526020019081526020015f205f90556132b3565b5f61328a878560010154613e76565b9050806002015f9055805f0154876006015f895f015481526020019081526020015f2081905550505b856003015f875f015481526020019081526020015f205f8581526020019081526020015f205f8082015f9055600182015f9055600282015f9055600382015f905550505f866004015f885f015481526020019081526020015f205f8381526020019081526020015f2054111561335e57856004015f875f015481526020019081526020015f205f8281526020019081526020015f205f81548092919061335890614d08565b91905055505b856001015f875f015481526020019081526020015f205f81548092919061338490614d08565b91905055508082875f01547f388361907de59efb1e62e9df3d61e073ef9ca1059d75ee11b572cb0e0584085060016040516133bf9190614d75565b60405180910390a480945050505050919050565b805f015f8154809291906133e690614b54565b919050555050565b5f81846002015f8581526020019081526020015f208190555061341c83855f01613f5390919063ffffffff16565b90509392505050565b6060613432825f01613f68565b9050919050565b5f826002015f8381526020019081526020015f205f905561346582845f01613f8790919063ffffffff16565b905092915050565b5f61348382845f01613f9c90919063ffffffff16565b905092915050565b5f613497825f01613fb1565b9050919050565b5f805f6134b684865f01613fc490919063ffffffff16565b905080856002015f8381526020019081526020015f205492509250509250929050565b5f805f846002015f8581526020019081526020015f205490505f801b810361351257613505858561346d565b5f801b925092505061351b565b60018192509250505b9250929050565b5f818310905092915050565b606061354b61353c84613fd9565b61354585613fe5565b84613ffc565b82905092915050565b5f805f90507a184f03e93ff9f4daa797ed6e38ed64bf6a1f01000000000000000083106135b0577a184f03e93ff9f4daa797ed6e38ed64bf6a1f01000000000000000083816135a6576135a5614a3b565b5b0492506040810190505b6d04ee2d6d415b85acef810000000083106135ed576d04ee2d6d415b85acef810000000083816135e3576135e2614a3b565b5b0492506020810190505b662386f26fc10000831061361c57662386f26fc10000838161361257613611614a3b565b5b0492506010810190505b6305f5e1008310613645576305f5e100838161363b5761363a614a3b565b5b0492506008810190505b612710831061366a5761271083816136605761365f614a3b565b5b0492506004810190505b6064831061368d576064838161368357613682614a3b565b5b0492506002810190505b600a831061369c576001810190505b80915050919050565b5f80836002015f855f015481526020019081526020015f205f81546136c990614b54565b91905081905590505f846003015f865f015481526020019081526020015f205f8381526020019081526020015f20905081815f0181905550838160030181905550613729856001015f875f015481526020019081526020015f2054613e6b565b1561376f57805f0154856005015f875f015481526020019081526020015f2081905550805f0154856006015f875f015481526020019081526020015f20819055506137cf565b5f856005015f875f015481526020019081526020015f205490505f6137948783613e76565b9050805f01548360020181905550825f01548160010181905550825f0154876005015f895f015481526020019081526020015f208190555050505b846004015f865f015481526020019081526020015f205f8581526020019081526020015f205f81548092919061380490614b54565b9190505550846001015f865f015481526020019081526020015f205f81548092919061382f90614b54565b91905055508060030154815f0154865f01547fed332a4769048049e081d4fe892928cff9253e0e1c8fc2a9b48c9ba087eba2705f6040516138709190614c0e565b60405180910390a460019250505092915050565b5f80826005015f845f015481526020019081526020015f205490505f6138aa8483613e76565b9050806003015492505050919050565b5f80826006015f845f015481526020019081526020015f205490505f6138e08483613e76565b9050806003015492505050919050565b5f613910826001015f845f015481526020019081526020015f2054613e6b565b9050919050565b5f806001846001015f865f015481526020019081526020015f2054901c83101561398a5761395b84856005015f875f015481526020019081526020015f2054613e76565b90505f5b8381101561398457613975858360020154613e76565b9150808060010191505061395f565b50613a00565b6139aa84856006015f875f015481526020019081526020015f2054613e76565b90505f6001856001015f875f015481526020019081526020015f20546139d09190614c40565b90505b838111156139fe576139e9858360010154613e76565b915080806139f690614d08565b9150506139d3565b505b8091505092915050565b5f613a158484614089565b613a1e83613e6b565b15613a3357613a2d84836136a5565b50613ba9565b836001015f855f015481526020019081526020015f20548303613a6057613a5a8483612941565b50613ba8565b5f613a6b8585613917565b90505f856002015f875f015481526020019081526020015f205f8154613a9090614b54565b91905081905590505f604051806080016040528083815260200184600101548152602001845f015481526020018681525090505f613ad2888560010154613e76565b9050815f01518460010181905550815f0151816002018190555081886003015f8a5f015481526020019081526020015f205f845f015181526020019081526020015f205f820151815f0155602082015181600101556040820151816002015560608201518160030155905050876004015f895f015481526020019081526020015f205f8781526020019081526020015f205f815480929190613b7390614b54565b9190505550876001015f895f015481526020019081526020015f205f815480929190613b9e90614b54565b9190505550505050505b5b600190509392505050565b5f613bbf83836140e7565b5f613bc983613e6b565b15613bde57613bd784612f7a565b9050613d4d565b6001846001015f865f015481526020019081526020015f2054613c019190614c40565b8303613c1757613c10846131a6565b9050613d4c565b5f613c228585613917565b90505f815f015490505f826003015490505f613c42888560010154613e76565b90505f613c53898660020154613e76565b9050805f01548260020181905550815f01548160010181905550886003015f8a5f015481526020019081526020015f205f8581526020019081526020015f205f8082015f9055600182015f9055600282015f9055600382015f905550505f896004015f8b5f015481526020019081526020015f205f8581526020019081526020015f20541115613d1857886004015f8a5f015481526020019081526020015f205f8481526020019081526020015f205f815480929190613d1290614d08565b91905055505b886001015f8a5f015481526020019081526020015f205f815480929190613d3e90614d08565b919050555082955050505050505b5b8091505092915050565b5f613d6284846140e7565b5f613d6d8585613917565b90505f81600301549050856004015f875f015481526020019081526020015f205f8281526020019081526020015f205f815480929190613dac90614d08565b9190505550838260030181905550856004015f875f015481526020019081526020015f205f8581526020019081526020015f205f815480929190613def90614b54565b91905055506001925050509392505050565b5f613e0c83836140e7565b5f613e178484613917565b9050806003015491505092915050565b5f81511115613e395780518082602001fd5b6040517fd6bda27500000000000000000000000000000000000000000000000000000000815260040160405180910390fd5b5f8082149050919050565b5f826003015f845f015481526020019081526020015f205f8381526020019081526020015f20905092915050565b5f613eb1825f0154613e6b565b15613ee8576040517fc4746b3200000000000000000000000000000000000000000000000000000000815260040160405180910390fd5b613ef58260020154613e6b565b159050919050565b5f613f0783613ea4565b613f3d576040517fc4746b3200000000000000000000000000000000000000000000000000000000815260040160405180910390fd5b613f4b828460020154613e76565b905092915050565b5f613f60835f0183612c27565b905092915050565b60605f613f76835f01612c8e565b905060608190508092505050919050565b5f613f94835f0183612ce7565b905092915050565b5f613fa9835f0183612de3565b905092915050565b5f613fbd825f01612e03565b9050919050565b5f613fd1835f0183612e12565b905092915050565b5f602082019050919050565b5f6020825102613ff483613fd9565b019050919050565b604083830310614084575f61401084614146565b90505f8490505f6020860190505b8481101561405d5761403c61403282614146565b848663ffffffff16565b15614052576020820191506140518282614150565b5b60208101905061401e565b506140688582614150565b614073858285613ffc565b614081602082018585613ffc565b50505b505050565b5f8110806140ac5750816001015f835f015481526020019081526020015f205481115b156140e3576040517f4e23d03500000000000000000000000000000000000000000000000000000000815260040160405180910390fd5b5050565b5f81108061410b5750816001015f835f015481526020019081526020015f20548110155b15614142576040517f4e23d03500000000000000000000000000000000000000000000000000000000815260040160405180910390fd5b5050565b5f81519050919050565b8151815180845281835250505050565b5f604051905090565b5f80fd5b5f80fd5b5f819050919050565b61418381614171565b811461418d575f80fd5b50565b5f8135905061419e8161417a565b92915050565b5f602082840312156141b9576141b8614169565b5b5f6141c684828501614190565b91505092915050565b5f73ffffffffffffffffffffffffffffffffffffffff82169050919050565b5f6141f8826141cf565b9050919050565b614208816141ee565b82525050565b5f6020820190506142215f8301846141ff565b92915050565b5f8115159050919050565b61423b81614227565b82525050565b5f6020820190506142545f830184614232565b92915050565b61426381614171565b82525050565b5f60208201905061427c5f83018461425a565b92915050565b5f80fd5b5f601f19601f8301169050919050565b7f4e487b71000000000000000000000000000000000000000000000000000000005f52604160045260245ffd5b6142cc82614286565b810181811067ffffffffffffffff821117156142eb576142ea614296565b5b80604052505050565b5f6142fd614160565b905061430982826142c3565b919050565b5f67ffffffffffffffff82111561432857614327614296565b5b602082029050602081019050919050565b5f80fd5b5f61434f61434a8461430e565b6142f4565b9050808382526020820190506020840283018581111561437257614371614339565b5b835b8181101561439b57806143878882614190565b845260208401935050602081019050614374565b5050509392505050565b5f82601f8301126143b9576143b8614282565b5b81356143c984826020860161433d565b91505092915050565b5f602082840312156143e7576143e6614169565b5b5f82013567ffffffffffffffff8111156144045761440361416d565b5b614410848285016143a5565b91505092915050565b5f81519050919050565b5f82825260208201905092915050565b5f819050602082019050919050565b61444b81614171565b82525050565b5f61445c8383614442565b60208301905092915050565b5f602082019050919050565b5f61447e82614419565b6144888185614423565b935061449383614433565b805f5b838110156144c35781516144aa8882614451565b97506144b583614468565b925050600181019050614496565b5085935050505092915050565b5f6020820190508181035f8301526144e88184614474565b905092915050565b5f81519050919050565b5f82825260208201905092915050565b8281835e5f83830152505050565b5f614522826144f0565b61452c81856144fa565b935061453c81856020860161450a565b61454581614286565b840191505092915050565b5f6020820190508181035f8301526145688184614518565b905092915050565b5f61457a826141cf565b9050919050565b61458a81614570565b8114614594575f80fd5b50565b5f815190506145a581614581565b92915050565b5f602082840312156145c0576145bf614169565b5b5f6145cd84828501614597565b91505092915050565b7f4e487b71000000000000000000000000000000000000000000000000000000005f52603260045260245ffd5b5f81519050919050565b5f81905092915050565b5f61462182614603565b61462b818561460d565b935061463b81856020860161450a565b80840191505092915050565b5f6146528284614617565b915081905092915050565b5f6040820190508181035f8301526146758185614518565b905081810360208301526146898184614518565b90509392505050565b5f6040820190508181035f8301526146aa8185614518565b90506146b9602083018461425a565b9392505050565b7f4e487b71000000000000000000000000000000000000000000000000000000005f52601160045260245ffd5b5f6146f782614171565b915061470283614171565b925082820190508082111561471a576147196146c0565b5b92915050565b7f736c6963655f6f766572666c6f770000000000000000000000000000000000005f82015250565b5f614754600e836144fa565b915061475f82614720565b602082019050919050565b5f6020820190508181035f83015261478181614748565b9050919050565b7f736c6963655f6f75744f66426f756e64730000000000000000000000000000005f82015250565b5f6147bc6011836144fa565b91506147c782614788565b602082019050919050565b5f6020820190508181035f8301526147e9816147b0565b9050919050565b7f746f416464726573735f6f75744f66426f756e647300000000000000000000005f82015250565b5f6148246015836144fa565b915061482f826147f0565b602082019050919050565b5f6020820190508181035f83015261485181614818565b9050919050565b5f6040820190508181035f8301526148708185614518565b905061487f60208301846141ff565b9392505050565b7f746f55696e743235365f6f75744f66426f756e647300000000000000000000005f82015250565b5f6148ba6015836144fa565b91506148c582614886565b602082019050919050565b5f6020820190508181035f8301526148e7816148ae565b9050919050565b7f746f427974657333325f6f75744f66426f756e647300000000000000000000005f82015250565b5f6149226015836144fa565b915061492d826148ee565b602082019050919050565b5f6020820190508181035f83015261494f81614916565b9050919050565b5f819050919050565b61496881614956565b82525050565b5f6040820190508181035f8301526149868185614518565b9050614995602083018461495f565b9392505050565b5f6040820190508181035f8301526149b48185614518565b90506149c36020830184614232565b9392505050565b5f6040820190508181035f8301526149e28185614518565b905081810360208301526149f68184614474565b90509392505050565b5f6060820190508181035f830152614a178186614518565b9050614a26602083018561425a565b614a33604083018461425a565b949350505050565b7f4e487b71000000000000000000000000000000000000000000000000000000005f52601260045260245ffd5b5f81519050919050565b5f82825260208201905092915050565b5f819050602082019050919050565b614a9a81614956565b82525050565b5f614aab8383614a91565b60208301905092915050565b5f602082019050919050565b5f614acd82614a68565b614ad78185614a72565b9350614ae283614a82565b805f5b83811015614b12578151614af98882614aa0565b9750614b0483614ab7565b925050600181019050614ae5565b5085935050505092915050565b5f6040820190508181035f830152614b378185614518565b90508181036020830152614b4b8184614ac3565b90509392505050565b5f614b5e82614171565b91507fffffffffffffffffffffffffffffffffffffffffffffffffffffffffffffffff8203614b9057614b8f6146c0565b5b600182019050919050565b7f4e487b71000000000000000000000000000000000000000000000000000000005f52602160045260245ffd5b60048110614bd957614bd8614b9b565b5b50565b5f819050614be982614bc8565b919050565b5f614bf882614bdc565b9050919050565b614c0881614bee565b82525050565b5f602082019050614c215f830184614bff565b92915050565b5f602082019050614c3a5f83018461495f565b92915050565b5f614c4a82614171565b9150614c5583614171565b9250828203905081811115614c6d57614c6c6146c0565b5b92915050565b7f4e487b71000000000000000000000000000000000000000000000000000000005f52603160045260245ffd5b7f4c696e6b65644c6973743a204c69737420697320656d707479000000000000005f82015250565b5f614cd46019836144fa565b9150614cdf82614ca0565b602082019050919050565b5f6020820190508181035f830152614d0181614cc8565b9050919050565b5f614d1282614171565b91505f8203614d2457614d236146c0565b5b600182039050919050565b60048110614d4057614d3f614b9b565b5b50565b5f819050614d5082614d2f565b919050565b5f614d5f82614d43565b9050919050565b614d6f81614d55565b82525050565b5f602082019050614d885f830184614d66565b9291505056fe636f6e63617442797465732e657175616c5f6e6f6e416c69676e656428636f6d706172654279746573293a2073657428313a3130312c323a3130322c333a3130332c343a313033292c6b6579733a636f6e63617442797465732e657175616c28636f6d706172654279746573293a2061667465724164644c617374282920627974657333324c6973742e76616c75657328293a61667465724164644c617374282920627974657333324c6973742e73697a6528293a636f6e63617446696c6c42797465732e657175616c28636f6d7061726546696c6c4279746573293a20a2646970667358221220ea9ba3f2b597fb09d8326161513714086ac379acb5a6381f3800be4d213395aa64736f6c634300081a0033",
			"opcodes": "PUSH1 0x80 PUSH1 0x40 MSTORE CALLVALUE DUP1 ISZERO PUSH1 0xE JUMPI PUSH0 DUP1 REVERT JUMPDEST POP PUSH2 0x4EA2 DUP1 PUSH2 0x1C PUSH0 CODECOPY PUSH0 RETURN INVALID PUSH1 0x80 PUSH1 0x40 MSTORE CALLVALUE DUP1 ISZERO PUSH2 0xF JUMPI PUSH0 DUP1 REVERT JUMPDEST POP PUSH1 0x4 CALLDATASIZE LT PUSH2 0x9C JUMPI PUSH0 CALLDATALOAD PUSH1 0xE0 SHR DUP1 PUSH4 0x87BD1316 GT PUSH2 0x64 JUMPI DUP1 PUSH4 0x87BD1316 EQ PUSH2 0x132 JUMPI DUP1 PUSH4 0x97A1D90B EQ PUSH2 0x13C JUMPI DUP1 PUSH4 0x9EC8B026 EQ PUSH2 0x146 JUMPI DUP1 PUSH4 0xB7C763B5 EQ PUSH2 0x176 JUMPI DUP1 PUSH4 0xFAD33DF2 EQ PUSH2 0x1A6 JUMPI PUSH2 0x9C JUMP JUMPDEST DUP1 PUSH4 0x294327DA EQ PUSH2 0xA0 JUMPI DUP1 PUSH4 0x2B67BE6E EQ PUSH2 0xD0 JUMPI DUP1 PUSH4 0x56B35BE2 EQ PUSH2 0xEE JUMPI DUP1 PUSH4 0x7430FBFB EQ PUSH2 0xF8 JUMPI DUP1 PUSH4 0x8425E23D EQ PUSH2 0x128 JUMPI JUMPDEST PUSH0 DUP1 REVERT JUMPDEST PUSH2 0xBA PUSH1 0x4 DUP1 CALLDATASIZE SUB DUP2 ADD SWAP1 PUSH2 0xB5 SWAP2 SWAP1 PUSH2 0x41A4 JUMP JUMPDEST PUSH2 0x1B0 JUMP JUMPDEST PUSH1 0x40 MLOAD PUSH2 0xC7 SWAP2 SWAP1 PUSH2 0x420E JUMP JUMPDEST PUSH1 0x40 MLOAD DUP1 SWAP2 SUB SWAP1 RETURN JUMPDEST PUSH2 0xD8 PUSH2 0x2A9 JUMP JUMPDEST PUSH1 0x40 MLOAD PUSH2 0xE5 SWAP2 SWAP1 PUSH2 0x4241 JUMP JUMPDEST PUSH1 0x40 MLOAD DUP1 SWAP2 SUB SWAP1 RETURN JUMPDEST PUSH2 0xF6 PUSH2 0x367 JUMP JUMPDEST STOP JUMPDEST PUSH2 0x112 PUSH1 0x4 DUP1 CALLDATASIZE SUB DUP2 ADD SWAP1 PUSH2 0x10D SWAP2 SWAP1 PUSH2 0x41A4 JUMP JUMPDEST PUSH2 0x9CA JUMP JUMPDEST PUSH1 0x40 MLOAD PUSH2 0x11F SWAP2 SWAP1 PUSH2 0x4269 JUMP JUMPDEST PUSH1 0x40 MLOAD DUP1 SWAP2 SUB SWAP1 RETURN JUMPDEST PUSH2 0x130 PUSH2 0x9E6 JUMP JUMPDEST STOP JUMPDEST PUSH2 0x13A PUSH2 0xBF7 JUMP JUMPDEST STOP JUMPDEST PUSH2 0x144 PUSH2 0xE41 JUMP JUMPDEST STOP JUMPDEST PUSH2 0x160 PUSH1 0x4 DUP1 CALLDATASIZE SUB DUP2 ADD SWAP1 PUSH2 0x15B SWAP2 SWAP1 PUSH2 0x43D2 JUMP JUMPDEST PUSH2 0x115C JUMP JUMPDEST PUSH1 0x40 MLOAD PUSH2 0x16D SWAP2 SWAP1 PUSH2 0x44D0 JUMP JUMPDEST PUSH1 0x40 MLOAD DUP1 SWAP2 SUB SWAP1 RETURN JUMPDEST PUSH2 0x190 PUSH1 0x4 DUP1 CALLDATASIZE SUB DUP2 ADD SWAP1 PUSH2 0x18B SWAP2 SWAP1 PUSH2 0x41A4 JUMP JUMPDEST PUSH2 0x116E JUMP JUMPDEST PUSH1 0x40 MLOAD PUSH2 0x19D SWAP2 SWAP1 PUSH2 0x4550 JUMP JUMPDEST PUSH1 0x40 MLOAD DUP1 SWAP2 SUB SWAP1 RETURN JUMPDEST PUSH2 0x1AE PUSH2 0x1180 JUMP JUMPDEST STOP JUMPDEST PUSH0 DUP1 PUSH20 0x176D1AB02ADF27C0C1478CA731C68252D2B6A762 SWAP1 POP PUSH0 DUP4 PUSH1 0x40 MLOAD PUSH1 0x24 ADD PUSH2 0x1DB SWAP2 SWAP1 PUSH2 0x4269 JUMP JUMPDEST PUSH1 0x40 MLOAD PUSH1 0x20 DUP2 DUP4 SUB SUB DUP2 MSTORE SWAP1 PUSH1 0x40 MSTORE PUSH32 0x6352211E00000000000000000000000000000000000000000000000000000000 PUSH28 0xFFFFFFFFFFFFFFFFFFFFFFFFFFFFFFFFFFFFFFFFFFFFFFFFFFFFFFFF NOT AND PUSH1 0x20 DUP3 ADD DUP1 MLOAD PUSH28 0xFFFFFFFFFFFFFFFFFFFFFFFFFFFFFFFFFFFFFFFFFFFFFFFFFFFFFFFF DUP4 DUP2 DUP4 AND OR DUP4 MSTORE POP POP POP POP SWAP1 POP PUSH0 PUSH2 0x284 DUP3 DUP5 PUSH20 0xFFFFFFFFFFFFFFFFFFFFFFFFFFFFFFFFFFFFFFFF AND PUSH2 0x1DE8 SWAP1 SWAP2 SWAP1 PUSH4 0xFFFFFFFF AND JUMP JUMPDEST SWAP1 POP PUSH0 DUP2 DUP1 PUSH1 0x20 ADD SWAP1 MLOAD DUP2 ADD SWAP1 PUSH2 0x29B SWAP2 SWAP1 PUSH2 0x45AB JUMP JUMPDEST SWAP1 POP DUP1 SWAP5 POP POP POP POP POP SWAP2 SWAP1 POP JUMP JUMPDEST PUSH0 PUSH2 0x2D2 PUSH20 0x5B38DA6A701C568545DCFCB03FCB875F56BEDDC4 PUSH1 0x13 PUSH2 0x1E68 SWAP1 SWAP2 SWAP1 PUSH4 0xFFFFFFFF AND JUMP JUMPDEST POP PUSH2 0x2FB PUSH20 0xAB8483F64D9C6D1ECF9B849AE677DD3315835CB2 PUSH1 0x13 PUSH2 0x1E68 SWAP1 SWAP2 SWAP1 PUSH4 0xFFFFFFFF AND JUMP JUMPDEST POP PUSH2 0x324 PUSH20 0x5B38DA6A701C568545DCFCB03FCB875F56BEDDC4 PUSH1 0x13 PUSH2 0x1E68 SWAP1 SWAP2 SWAP1 PUSH4 0xFFFFFFFF AND JUMP JUMPDEST POP PUSH2 0x34D PUSH20 0x4B20993BC481177EC7E8F571CECAE8A9E22C02DB PUSH1 0x13 PUSH2 0x1E68 SWAP1 SWAP2 SWAP1 PUSH4 0xFFFFFFFF AND JUMP JUMPDEST POP PUSH2 0x362 CALLER PUSH1 0x13 PUSH2 0x1E85 SWAP1 SWAP2 SWAP1 PUSH4 0xFFFFFFFF AND JUMP JUMPDEST SWAP1 POP SWAP1 JUMP JUMPDEST PUSH0 PUSH1 0x21 PUSH8 0xFFFFFFFFFFFFFFFF DUP2 GT ISZERO PUSH2 0x383 JUMPI PUSH2 0x382 PUSH2 0x4296 JUMP JUMPDEST JUMPDEST PUSH1 0x40 MLOAD SWAP1 DUP1 DUP3 MSTORE DUP1 PUSH1 0x1F ADD PUSH1 0x1F NOT AND PUSH1 0x20 ADD DUP3 ADD PUSH1 0x40 MSTORE DUP1 ISZERO PUSH2 0x3B5 JUMPI DUP2 PUSH1 0x20 ADD PUSH1 0x1 DUP3 MUL DUP1 CALLDATASIZE DUP4 CALLDATACOPY DUP1 DUP3 ADD SWAP2 POP POP SWAP1 POP JUMPDEST POP SWAP1 POP PUSH1 0x61 PUSH1 0xF8 SHL DUP2 PUSH1 0x20 DUP2 MLOAD DUP2 LT PUSH2 0x3D1 JUMPI PUSH2 0x3D0 PUSH2 0x45D6 JUMP JUMPDEST JUMPDEST PUSH1 0x20 ADD ADD SWAP1 PUSH31 0xFFFFFFFFFFFFFFFFFFFFFFFFFFFFFFFFFFFFFFFFFFFFFFFFFFFFFFFFFFFFFF NOT AND SWAP1 DUP2 PUSH0 BYTE SWAP1 MSTORE8 POP PUSH0 PUSH1 0x1 PUSH8 0xFFFFFFFFFFFFFFFF DUP2 GT ISZERO PUSH2 0x41B JUMPI PUSH2 0x41A PUSH2 0x4296 JUMP JUMPDEST JUMPDEST PUSH1 0x40 MLOAD SWAP1 DUP1 DUP3 MSTORE DUP1 PUSH1 0x1F ADD PUSH1 0x1F NOT AND PUSH1 0x20 ADD DUP3 ADD PUSH1 0x40 MSTORE DUP1 ISZERO PUSH2 0x44D JUMPI DUP2 PUSH1 0x20 ADD PUSH1 0x1 DUP3 MUL DUP1 CALLDATASIZE DUP4 CALLDATACOPY DUP1 DUP3 ADD SWAP2 POP POP SWAP1 POP JUMPDEST POP SWAP1 POP PUSH1 0x1 PUSH1 0xF8 SHL DUP2 PUSH0 DUP2 MLOAD DUP2 LT PUSH2 0x468 JUMPI PUSH2 0x467 PUSH2 0x45D6 JUMP JUMPDEST JUMPDEST PUSH1 0x20 ADD ADD SWAP1 PUSH31 0xFFFFFFFFFFFFFFFFFFFFFFFFFFFFFFFFFFFFFFFFFFFFFFFFFFFFFFFFFFFFFF NOT AND SWAP1 DUP2 PUSH0 BYTE SWAP1 MSTORE8 POP PUSH0 PUSH2 0x4AA DUP3 DUP5 PUSH2 0x1EA2 SWAP1 SWAP2 SWAP1 PUSH4 0xFFFFFFFF AND JUMP JUMPDEST SWAP1 POP PUSH2 0x4F4 DUP2 PUSH1 0x40 MLOAD DUP1 PUSH1 0x40 ADD PUSH1 0x40 MSTORE DUP1 PUSH1 0xD DUP2 MSTORE PUSH1 0x20 ADD PUSH32 0x636F6E63617442797465733A2000000000000000000000000000000000000000 DUP2 MSTORE POP PUSH2 0x1F2C SWAP1 SWAP2 SWAP1 PUSH4 0xFFFFFFFF AND JUMP JUMPDEST PUSH2 0x53D DUP2 MLOAD PUSH1 0x40 MLOAD DUP1 PUSH1 0x40 ADD PUSH1 0x40 MSTORE DUP1 PUSH1 0x16 DUP2 MSTORE PUSH1 0x20 ADD PUSH32 0x636F6E63617442797465732E6C656E67746828293A2000000000000000000000 DUP2 MSTORE POP PUSH2 0x1F69 SWAP1 SWAP2 SWAP1 PUSH4 0xFFFFFFFF AND JUMP JUMPDEST PUSH0 PUSH2 0x555 PUSH1 0x20 PUSH1 0x1 DUP5 PUSH2 0x1FA6 SWAP1 SWAP3 SWAP2 SWAP1 PUSH4 0xFFFFFFFF AND JUMP JUMPDEST SWAP1 POP PUSH2 0x59F DUP2 PUSH1 0x40 MLOAD DUP1 PUSH1 0x40 ADD PUSH1 0x40 MSTORE DUP1 PUSH1 0xC DUP2 MSTORE PUSH1 0x20 ADD PUSH32 0x736C69636542797465733A200000000000000000000000000000000000000000 DUP2 MSTORE POP PUSH2 0x1F2C SWAP1 SWAP2 SWAP1 PUSH4 0xFFFFFFFF AND JUMP JUMPDEST PUSH0 PUSH2 0x5B4 PUSH1 0xE DUP5 PUSH2 0x20C2 SWAP1 SWAP2 SWAP1 PUSH4 0xFFFFFFFF AND JUMP JUMPDEST SWAP1 POP PUSH2 0x5FE DUP2 PUSH1 0x40 MLOAD DUP1 PUSH1 0x40 ADD PUSH1 0x40 MSTORE DUP1 PUSH1 0xB DUP2 MSTORE PUSH1 0x20 ADD PUSH32 0x746F416464726573733A20000000000000000000000000000000000000000000 DUP2 MSTORE POP PUSH2 0x2136 SWAP1 SWAP2 SWAP1 PUSH4 0xFFFFFFFF AND JUMP JUMPDEST PUSH0 PUSH2 0x613 PUSH1 0x1 DUP8 PUSH2 0x2173 SWAP1 SWAP2 SWAP1 PUSH4 0xFFFFFFFF AND JUMP JUMPDEST SWAP1 POP PUSH2 0x65D DUP2 PUSH1 0x40 MLOAD DUP1 PUSH1 0x40 ADD PUSH1 0x40 MSTORE DUP1 PUSH1 0xB DUP2 MSTORE PUSH1 0x20 ADD PUSH32 0x746F55696E743235363A20000000000000000000000000000000000000000000 DUP2 MSTORE POP PUSH2 0x1F69 SWAP1 SWAP2 SWAP1 PUSH4 0xFFFFFFFF AND JUMP JUMPDEST PUSH0 PUSH2 0x672 PUSH1 0x1 DUP9 PUSH2 0x21D8 SWAP1 SWAP2 SWAP1 PUSH4 0xFFFFFFFF AND JUMP JUMPDEST SWAP1 POP PUSH2 0x6BC DUP2 PUSH1 0x40 MLOAD DUP1 PUSH1 0x40 ADD PUSH1 0x40 MSTORE DUP1 PUSH1 0x9 DUP2 MSTORE PUSH1 0x20 ADD PUSH32 0x746F427974657333320000000000000000000000000000000000000000000000 DUP2 MSTORE POP PUSH2 0x223D SWAP1 SWAP2 SWAP1 PUSH4 0xFFFFFFFF AND JUMP JUMPDEST PUSH0 PUSH1 0x22 PUSH8 0xFFFFFFFFFFFFFFFF DUP2 GT ISZERO PUSH2 0x6D8 JUMPI PUSH2 0x6D7 PUSH2 0x4296 JUMP JUMPDEST JUMPDEST PUSH1 0x40 MLOAD SWAP1 DUP1 DUP3 MSTORE DUP1 PUSH1 0x1F ADD PUSH1 0x1F NOT AND PUSH1 0x20 ADD DUP3 ADD PUSH1 0x40 MSTORE DUP1 ISZERO PUSH2 0x70A JUMPI DUP2 PUSH1 0x20 ADD PUSH1 0x1 DUP3 MUL DUP1 CALLDATASIZE DUP4 CALLDATACOPY DUP1 DUP3 ADD SWAP2 POP POP SWAP1 POP JUMPDEST POP SWAP1 POP PUSH0 JUMPDEST PUSH1 0x22 DUP2 LT ISZERO PUSH2 0x76A JUMPI PUSH0 PUSH1 0xF8 SHL DUP3 DUP3 DUP2 MLOAD DUP2 LT PUSH2 0x72F JUMPI PUSH2 0x72E PUSH2 0x45D6 JUMP JUMPDEST JUMPDEST PUSH1 0x20 ADD ADD SWAP1 PUSH31 0xFFFFFFFFFFFFFFFFFFFFFFFFFFFFFFFFFFFFFFFFFFFFFFFFFFFFFFFFFFFFFF NOT AND SWAP1 DUP2 PUSH0 BYTE SWAP1 MSTORE8 POP DUP1 DUP1 PUSH1 0x1 ADD SWAP2 POP POP PUSH2 0x70F JUMP JUMPDEST POP PUSH1 0x61 PUSH1 0xF8 SHL DUP2 PUSH1 0x20 DUP2 MLOAD DUP2 LT PUSH2 0x784 JUMPI PUSH2 0x783 PUSH2 0x45D6 JUMP JUMPDEST JUMPDEST PUSH1 0x20 ADD ADD SWAP1 PUSH31 0xFFFFFFFFFFFFFFFFFFFFFFFFFFFFFFFFFFFFFFFFFFFFFFFFFFFFFFFFFFFFFF NOT AND SWAP1 DUP2 PUSH0 BYTE SWAP1 MSTORE8 POP PUSH1 0x1 PUSH1 0xF8 SHL DUP2 PUSH1 0x21 DUP2 MLOAD DUP2 LT PUSH2 0x7CB JUMPI PUSH2 0x7CA PUSH2 0x45D6 JUMP JUMPDEST JUMPDEST PUSH1 0x20 ADD ADD SWAP1 PUSH31 0xFFFFFFFFFFFFFFFFFFFFFFFFFFFFFFFFFFFFFFFFFFFFFFFFFFFFFFFFFFFFFF NOT AND SWAP1 DUP2 PUSH0 BYTE SWAP1 MSTORE8 POP PUSH2 0x841 DUP2 PUSH1 0x40 MLOAD DUP1 PUSH1 0x40 ADD PUSH1 0x40 MSTORE DUP1 PUSH1 0xE DUP2 MSTORE PUSH1 0x20 ADD PUSH32 0x636F6D7061726542797465733A20000000000000000000000000000000000000 DUP2 MSTORE POP PUSH2 0x1F2C SWAP1 SWAP2 SWAP1 PUSH4 0xFFFFFFFF AND JUMP JUMPDEST PUSH2 0x889 DUP7 PUSH1 0x40 MLOAD DUP1 PUSH1 0x40 ADD PUSH1 0x40 MSTORE DUP1 PUSH1 0xD DUP2 MSTORE PUSH1 0x20 ADD PUSH32 0x636F6E63617442797465733A2000000000000000000000000000000000000000 DUP2 MSTORE POP PUSH2 0x1F2C SWAP1 SWAP2 SWAP1 PUSH4 0xFFFFFFFF AND JUMP JUMPDEST PUSH2 0x8C6 PUSH2 0x89F DUP3 DUP9 PUSH2 0x227A SWAP1 SWAP2 SWAP1 PUSH4 0xFFFFFFFF AND JUMP JUMPDEST PUSH1 0x40 MLOAD DUP1 PUSH1 0x60 ADD PUSH1 0x40 MSTORE DUP1 PUSH1 0x21 DUP2 MSTORE PUSH1 0x20 ADD PUSH2 0x4DDD PUSH1 0x21 SWAP2 CODECOPY PUSH2 0x22E2 SWAP1 SWAP2 SWAP1 PUSH4 0xFFFFFFFF AND JUMP JUMPDEST PUSH2 0x903 PUSH2 0x8DC DUP3 DUP9 PUSH2 0x231F SWAP1 SWAP2 SWAP1 PUSH4 0xFFFFFFFF AND JUMP JUMPDEST PUSH1 0x40 MLOAD DUP1 PUSH1 0x60 ADD PUSH1 0x40 MSTORE DUP1 PUSH1 0x2C DUP2 MSTORE PUSH1 0x20 ADD PUSH2 0x4D8F PUSH1 0x2C SWAP2 CODECOPY PUSH2 0x22E2 SWAP1 SWAP2 SWAP1 PUSH4 0xFFFFFFFF AND JUMP JUMPDEST PUSH0 PUSH1 0x1E PUSH8 0xFFFFFFFFFFFFFFFF DUP2 GT ISZERO PUSH2 0x91F JUMPI PUSH2 0x91E PUSH2 0x4296 JUMP JUMPDEST JUMPDEST PUSH1 0x40 MLOAD SWAP1 DUP1 DUP3 MSTORE DUP1 PUSH1 0x1F ADD PUSH1 0x1F NOT AND PUSH1 0x20 ADD DUP3 ADD PUSH1 0x40 MSTORE DUP1 ISZERO PUSH2 0x951 JUMPI DUP2 PUSH1 0x20 ADD PUSH1 0x1 DUP3 MUL DUP1 CALLDATASIZE DUP4 CALLDATACOPY DUP1 DUP3 ADD SWAP2 POP POP SWAP1 POP JUMPDEST POP SWAP1 POP PUSH0 PUSH2 0x968 DUP3 DUP10 PUSH2 0x1EA2 SWAP1 SWAP2 SWAP1 PUSH4 0xFFFFFFFF AND JUMP JUMPDEST SWAP1 POP PUSH0 PUSH2 0x97E DUP4 DUP11 PUSH2 0x1EA2 SWAP1 SWAP2 SWAP1 PUSH4 0xFFFFFFFF AND JUMP JUMPDEST SWAP1 POP PUSH2 0x9BD PUSH2 0x996 DUP3 DUP5 PUSH2 0x227A SWAP1 SWAP2 SWAP1 PUSH4 0xFFFFFFFF AND JUMP JUMPDEST PUSH1 0x40 MLOAD DUP1 PUSH1 0x60 ADD PUSH1 0x40 MSTORE DUP1 PUSH1 0x29 DUP2 MSTORE PUSH1 0x20 ADD PUSH2 0x4E44 PUSH1 0x29 SWAP2 CODECOPY PUSH2 0x22E2 SWAP1 SWAP2 SWAP1 PUSH4 0xFFFFFFFF AND JUMP JUMPDEST POP POP POP POP POP POP POP POP POP POP POP JUMP JUMPDEST PUSH0 PUSH2 0x9DF DUP3 PUSH1 0x2 PUSH2 0x23C7 SWAP1 SWAP2 SWAP1 PUSH4 0xFFFFFFFF AND JUMP JUMPDEST SWAP1 POP SWAP2 SWAP1 POP JUMP JUMPDEST PUSH2 0x9FA PUSH1 0x1 PUSH0 PUSH2 0x23E0 SWAP1 SWAP2 SWAP1 PUSH4 0xFFFFFFFF AND JUMP JUMPDEST POP PUSH2 0xA0F PUSH1 0x3 PUSH0 PUSH2 0x23E0 SWAP1 SWAP2 SWAP1 PUSH4 0xFFFFFFFF AND JUMP JUMPDEST POP PUSH2 0xA24 PUSH1 0x2 PUSH0 PUSH2 0x23E0 SWAP1 SWAP2 SWAP1 PUSH4 0xFFFFFFFF AND JUMP JUMPDEST POP PUSH2 0xA39 PUSH1 0x4 PUSH0 PUSH2 0x23E0 SWAP1 SWAP2 SWAP1 PUSH4 0xFFFFFFFF AND JUMP JUMPDEST POP PUSH2 0xA8A PUSH2 0xA46 PUSH0 PUSH2 0x23F7 JUMP JUMPDEST PUSH1 0x40 MLOAD DUP1 PUSH1 0x40 ADD PUSH1 0x40 MSTORE DUP1 PUSH1 0xC DUP2 MSTORE PUSH1 0x20 ADD PUSH32 0x61646428312C332C322C34290000000000000000000000000000000000000000 DUP2 MSTORE POP PUSH2 0x2416 SWAP1 SWAP2 SWAP1 PUSH4 0xFFFFFFFF AND JUMP JUMPDEST PUSH2 0xA9E PUSH1 0x1 PUSH0 PUSH2 0x2453 SWAP1 SWAP2 SWAP1 PUSH4 0xFFFFFFFF AND JUMP JUMPDEST POP PUSH2 0xAEF PUSH2 0xAAB PUSH0 PUSH2 0x23F7 JUMP JUMPDEST PUSH1 0x40 MLOAD DUP1 PUSH1 0x40 ADD PUSH1 0x40 MSTORE DUP1 PUSH1 0x9 DUP2 MSTORE PUSH1 0x20 ADD PUSH32 0x72656D6F76652831290000000000000000000000000000000000000000000000 DUP2 MSTORE POP PUSH2 0x2416 SWAP1 SWAP2 SWAP1 PUSH4 0xFFFFFFFF AND JUMP JUMPDEST PUSH2 0xB4A PUSH2 0xB06 PUSH1 0x3 PUSH0 PUSH2 0x246A SWAP1 SWAP2 SWAP1 PUSH4 0xFFFFFFFF AND JUMP JUMPDEST PUSH1 0x40 MLOAD DUP1 PUSH1 0x40 ADD PUSH1 0x40 MSTORE DUP1 PUSH1 0xD DUP2 MSTORE PUSH1 0x20 ADD PUSH32 0x636F6E7461696E732833293A2000000000000000000000000000000000000000 DUP2 MSTORE POP PUSH2 0x22E2 SWAP1 SWAP2 SWAP1 PUSH4 0xFFFFFFFF AND JUMP JUMPDEST PUSH2 0xB9A PUSH2 0xB56 PUSH0 PUSH2 0x2481 JUMP JUMPDEST PUSH1 0x40 MLOAD DUP1 PUSH1 0x40 ADD PUSH1 0x40 MSTORE DUP1 PUSH1 0xA DUP2 MSTORE PUSH1 0x20 ADD PUSH32 0x6C656E67746828293A2000000000000000000000000000000000000000000000 DUP2 MSTORE POP PUSH2 0x1F69 SWAP1 SWAP2 SWAP1 PUSH4 0xFFFFFFFF AND JUMP JUMPDEST PUSH2 0xBF5 PUSH2 0xBB1 PUSH1 0x2 PUSH0 PUSH2 0x2494 SWAP1 SWAP2 SWAP1 PUSH4 0xFFFFFFFF AND JUMP JUMPDEST PUSH1 0x40 MLOAD DUP1 PUSH1 0x40 ADD PUSH1 0x40 MSTORE DUP1 PUSH1 0x7 DUP2 MSTORE PUSH1 0x20 ADD PUSH32 0x61742832293A2000000000000000000000000000000000000000000000000000 DUP2 MSTORE POP PUSH2 0x1F69 SWAP1 SWAP2 SWAP1 PUSH4 0xFFFFFFFF AND JUMP JUMPDEST JUMP JUMPDEST PUSH2 0xC0C PUSH1 0x1 PUSH1 0xC PUSH2 0x24AB SWAP1 SWAP2 SWAP1 PUSH4 0xFFFFFFFF AND JUMP JUMPDEST POP PUSH2 0xC22 PUSH1 0x2 PUSH1 0xC PUSH2 0x24AB SWAP1 SWAP2 SWAP1 PUSH4 0xFFFFFFFF AND JUMP JUMPDEST POP PUSH2 0xC38 PUSH1 0x1 PUSH1 0xC PUSH2 0x24AB SWAP1 SWAP2 SWAP1 PUSH4 0xFFFFFFFF AND JUMP JUMPDEST POP PUSH2 0xC4E PUSH1 0x3 PUSH1 0xC PUSH2 0x24AB SWAP1 SWAP2 SWAP1 PUSH4 0xFFFFFFFF AND JUMP JUMPDEST POP PUSH2 0xCA0 PUSH2 0xC5C PUSH1 0xC PUSH2 0x24C2 JUMP JUMPDEST PUSH1 0x40 MLOAD DUP1 PUSH1 0x40 ADD PUSH1 0x40 MSTORE DUP1 PUSH1 0x11 DUP2 MSTORE PUSH1 0x20 ADD PUSH32 0x75696E744C6973742E76616C7565732829000000000000000000000000000000 DUP2 MSTORE POP PUSH2 0x2416 SWAP1 SWAP2 SWAP1 PUSH4 0xFFFFFFFF AND JUMP JUMPDEST PUSH2 0xCF1 PUSH2 0xCAD PUSH1 0xC PUSH2 0x24E1 JUMP JUMPDEST PUSH1 0x40 MLOAD DUP1 PUSH1 0x40 ADD PUSH1 0x40 MSTORE DUP1 PUSH1 0x10 DUP2 MSTORE PUSH1 0x20 ADD PUSH32 0x75696E744C6973742E73697A6528293A00000000000000000000000000000000 DUP2 MSTORE POP PUSH2 0x1F69 SWAP1 SWAP2 SWAP1 PUSH4 0xFFFFFFFF AND JUMP JUMPDEST PUSH2 0xD42 PUSH2 0xCFE PUSH1 0xC PUSH2 0x24F4 JUMP JUMPDEST PUSH1 0x40 MLOAD DUP1 PUSH1 0x40 ADD PUSH1 0x40 MSTORE DUP1 PUSH1 0x17 DUP2 MSTORE PUSH1 0x20 ADD PUSH32 0x75696E744C6973742E72656D6F7665466972737428293A000000000000000000 DUP2 MSTORE POP PUSH2 0x1F69 SWAP1 SWAP2 SWAP1 PUSH4 0xFFFFFFFF AND JUMP JUMPDEST PUSH2 0xD93 PUSH2 0xD4F PUSH1 0xC PUSH2 0x2509 JUMP JUMPDEST PUSH1 0x40 MLOAD DUP1 PUSH1 0x40 ADD PUSH1 0x40 MSTORE DUP1 PUSH1 0x16 DUP2 MSTORE PUSH1 0x20 ADD PUSH32 0x75696E744C6973742E72656D6F76654C61737428293A00000000000000000000 DUP2 MSTORE POP PUSH2 0x1F69 SWAP1 SWAP2 SWAP1 PUSH4 0xFFFFFFFF AND JUMP JUMPDEST PUSH2 0xDE4 PUSH2 0xDA0 PUSH1 0xC PUSH2 0x24C2 JUMP JUMPDEST PUSH1 0x40 MLOAD DUP1 PUSH1 0x40 ADD PUSH1 0x40 MSTORE DUP1 PUSH1 0x11 DUP2 MSTORE PUSH1 0x20 ADD PUSH32 0x75696E744C6973742E76616C7565732829000000000000000000000000000000 DUP2 MSTORE POP PUSH2 0x2416 SWAP1 SWAP2 SWAP1 PUSH4 0xFFFFFFFF AND JUMP JUMPDEST PUSH2 0xDEE PUSH1 0xC PUSH2 0x251E JUMP JUMPDEST PUSH2 0xE3F PUSH2 0xDFB PUSH1 0xC PUSH2 0x24C2 JUMP JUMPDEST PUSH1 0x40 MLOAD DUP1 PUSH1 0x40 ADD PUSH1 0x40 MSTORE DUP1 PUSH1 0x11 DUP2 MSTORE PUSH1 0x20 ADD PUSH32 0x75696E744C6973742E76616C7565732829000000000000000000000000000000 DUP2 MSTORE POP PUSH2 0x2416 SWAP1 SWAP2 SWAP1 PUSH4 0xFFFFFFFF AND JUMP JUMPDEST JUMP JUMPDEST PUSH2 0xE59 PUSH1 0x1 PUSH1 0x65 PUSH1 0x2 PUSH2 0x252C SWAP1 SWAP3 SWAP2 SWAP1 PUSH4 0xFFFFFFFF AND JUMP JUMPDEST POP PUSH2 0xE72 PUSH1 0x2 PUSH1 0x66 PUSH1 0x2 PUSH2 0x252C SWAP1 SWAP3 SWAP2 SWAP1 PUSH4 0xFFFFFFFF AND JUMP JUMPDEST POP PUSH2 0xE8B PUSH1 0x3 PUSH1 0x67 PUSH1 0x2 PUSH2 0x252C SWAP1 SWAP3 SWAP2 SWAP1 PUSH4 0xFFFFFFFF AND JUMP JUMPDEST POP PUSH2 0xEA4 PUSH1 0x4 PUSH1 0x68 PUSH1 0x2 PUSH2 0x252C SWAP1 SWAP3 SWAP2 SWAP1 PUSH4 0xFFFFFFFF AND JUMP JUMPDEST POP PUSH2 0xED9 PUSH2 0xEB2 PUSH1 0x2 PUSH2 0x2547 JUMP JUMPDEST PUSH1 0x40 MLOAD DUP1 PUSH1 0x60 ADD PUSH1 0x40 MSTORE DUP1 PUSH1 0x22 DUP2 MSTORE PUSH1 0x20 ADD PUSH2 0x4DBB PUSH1 0x22 SWAP2 CODECOPY PUSH2 0x2416 SWAP1 SWAP2 SWAP1 PUSH4 0xFFFFFFFF AND JUMP JUMPDEST PUSH2 0xEED PUSH1 0x2 DUP1 PUSH2 0x2566 SWAP1 SWAP2 SWAP1 PUSH4 0xFFFFFFFF AND JUMP JUMPDEST POP PUSH2 0xF3F PUSH2 0xEFB PUSH1 0x2 PUSH2 0x2547 JUMP JUMPDEST PUSH1 0x40 MLOAD DUP1 PUSH1 0x40 ADD PUSH1 0x40 MSTORE DUP1 PUSH1 0xF DUP2 MSTORE PUSH1 0x20 ADD PUSH32 0x72656D6F76652832292C6B6579733A0000000000000000000000000000000000 DUP2 MSTORE POP PUSH2 0x2416 SWAP1 SWAP2 SWAP1 PUSH4 0xFFFFFFFF AND JUMP JUMPDEST PUSH2 0xF9B PUSH2 0xF57 PUSH1 0x1 PUSH1 0x2 PUSH2 0x257D SWAP1 SWAP2 SWAP1 PUSH4 0xFFFFFFFF AND JUMP JUMPDEST PUSH1 0x40 MLOAD DUP1 PUSH1 0x40 ADD PUSH1 0x40 MSTORE DUP1 PUSH1 0xB DUP2 MSTORE PUSH1 0x20 ADD PUSH32 0x636F6E7461696E73283129000000000000000000000000000000000000000000 DUP2 MSTORE POP PUSH2 0x22E2 SWAP1 SWAP2 SWAP1 PUSH4 0xFFFFFFFF AND JUMP JUMPDEST PUSH2 0xFF6 PUSH2 0xFB2 PUSH1 0x2 DUP1 PUSH2 0x257D SWAP1 SWAP2 SWAP1 PUSH4 0xFFFFFFFF AND JUMP JUMPDEST PUSH1 0x40 MLOAD DUP1 PUSH1 0x40 ADD PUSH1 0x40 MSTORE DUP1 PUSH1 0xB DUP2 MSTORE PUSH1 0x20 ADD PUSH32 0x636F6E7461696E73283229000000000000000000000000000000000000000000 DUP2 MSTORE POP PUSH2 0x22E2 SWAP1 SWAP2 SWAP1 PUSH4 0xFFFFFFFF AND JUMP JUMPDEST PUSH2 0x1047 PUSH2 0x1003 PUSH1 0x2 PUSH2 0x2594 JUMP JUMPDEST PUSH1 0x40 MLOAD DUP1 PUSH1 0x40 ADD PUSH1 0x40 MSTORE DUP1 PUSH1 0xA DUP2 MSTORE PUSH1 0x20 ADD PUSH32 0x6C656E67746828293A2000000000000000000000000000000000000000000000 DUP2 MSTORE POP PUSH2 0x1F69 SWAP1 SWAP2 SWAP1 PUSH4 0xFFFFFFFF AND JUMP JUMPDEST PUSH0 DUP1 PUSH2 0x105E PUSH1 0x1 PUSH1 0x2 PUSH2 0x25A7 SWAP1 SWAP2 SWAP1 PUSH4 0xFFFFFFFF AND JUMP JUMPDEST SWAP2 POP SWAP2 POP PUSH2 0x10AC DUP3 DUP3 PUSH1 0x40 MLOAD DUP1 PUSH1 0x40 ADD PUSH1 0x40 MSTORE DUP1 PUSH1 0x5 DUP2 MSTORE PUSH1 0x20 ADD PUSH32 0x6174283129000000000000000000000000000000000000000000000000000000 DUP2 MSTORE POP PUSH2 0x25CE SWAP1 SWAP3 SWAP2 SWAP1 PUSH4 0xFFFFFFFF AND JUMP JUMPDEST PUSH0 DUP1 PUSH2 0x10C2 PUSH1 0x2 DUP1 PUSH2 0x260E SWAP1 SWAP2 SWAP1 PUSH4 0xFFFFFFFF AND JUMP JUMPDEST SWAP2 POP SWAP2 POP PUSH2 0x110E DUP3 PUSH1 0x40 MLOAD DUP1 PUSH1 0x40 ADD PUSH1 0x40 MSTORE DUP1 PUSH1 0x12 DUP2 MSTORE PUSH1 0x20 ADD PUSH32 0x7472794765742832292C206578697374733A0000000000000000000000000000 DUP2 MSTORE POP PUSH2 0x22E2 SWAP1 SWAP2 SWAP1 PUSH4 0xFFFFFFFF AND JUMP JUMPDEST PUSH2 0x1156 DUP2 PUSH1 0x40 MLOAD DUP1 PUSH1 0x40 ADD PUSH1 0x40 MSTORE DUP1 PUSH1 0x17 DUP2 MSTORE PUSH1 0x20 ADD PUSH32 0x7472794765742832292C2074727947657456616C75653A000000000000000000 DUP2 MSTORE POP PUSH2 0x1F69 SWAP1 SWAP2 SWAP1 PUSH4 0xFFFFFFFF AND JUMP JUMPDEST POP POP POP POP JUMP JUMPDEST PUSH1 0x60 PUSH2 0x1167 DUP3 PUSH2 0x2635 JUMP JUMPDEST SWAP1 POP SWAP2 SWAP1 POP JUMP JUMPDEST PUSH1 0x60 PUSH2 0x1179 DUP3 PUSH2 0x264C JUMP JUMPDEST SWAP1 POP SWAP2 SWAP1 POP JUMP JUMPDEST PUSH2 0x11B4 PUSH32 0x3100000000000000000000000000000000000000000000000000000000000000 PUSH1 0x5 PUSH2 0x2716 SWAP1 SWAP2 SWAP1 PUSH4 0xFFFFFFFF AND JUMP JUMPDEST POP PUSH2 0x11E9 PUSH32 0x3200000000000000000000000000000000000000000000000000000000000000 PUSH1 0x5 PUSH2 0x2716 SWAP1 SWAP2 SWAP1 PUSH4 0xFFFFFFFF AND JUMP JUMPDEST POP PUSH2 0x121E PUSH32 0x3300000000000000000000000000000000000000000000000000000000000000 PUSH1 0x5 PUSH2 0x2716 SWAP1 SWAP2 SWAP1 PUSH4 0xFFFFFFFF AND JUMP JUMPDEST POP PUSH2 0x1253 PUSH2 0x122C PUSH1 0x5 PUSH2 0x272B JUMP JUMPDEST PUSH1 0x40 MLOAD DUP1 PUSH1 0x60 ADD PUSH1 0x40 MSTORE DUP1 PUSH1 0x22 DUP2 MSTORE PUSH1 0x20 ADD PUSH2 0x4E22 PUSH1 0x22 SWAP2 CODECOPY PUSH2 0x1F69 SWAP1 SWAP2 SWAP1 PUSH4 0xFFFFFFFF AND JUMP JUMPDEST PUSH2 0x12A4 PUSH2 0x1260 PUSH1 0x5 PUSH2 0x273E JUMP JUMPDEST PUSH1 0x40 MLOAD DUP1 PUSH1 0x40 ADD PUSH1 0x40 MSTORE DUP1 PUSH1 0x17 DUP2 MSTORE PUSH1 0x20 ADD PUSH32 0x627974657333324C6973742E676574466972737428293A000000000000000000 DUP2 MSTORE POP PUSH2 0x223D SWAP1 SWAP2 SWAP1 PUSH4 0xFFFFFFFF AND JUMP JUMPDEST PUSH2 0x12F5 PUSH2 0x12B1 PUSH1 0x5 PUSH2 0x2751 JUMP JUMPDEST PUSH1 0x40 MLOAD DUP1 PUSH1 0x40 ADD PUSH1 0x40 MSTORE DUP1 PUSH1 0x16 DUP2 MSTORE PUSH1 0x20 ADD PUSH32 0x627974657333324C6973742E6765744C61737428293A00000000000000000000 DUP2 MSTORE POP PUSH2 0x223D SWAP1 SWAP2 SWAP1 PUSH4 0xFFFFFFFF AND JUMP JUMPDEST PUSH2 0x1329 PUSH2 0x1302 PUSH1 0x5 PUSH2 0x2764 JUMP JUMPDEST PUSH1 0x40 MLOAD DUP1 PUSH1 0x60 ADD PUSH1 0x40 MSTORE DUP1 PUSH1 0x24 DUP2 MSTORE PUSH1 0x20 ADD PUSH2 0x4DFE PUSH1 0x24 SWAP2 CODECOPY PUSH2 0x2778 SWAP1 SWAP2 SWAP1 PUSH4 0xFFFFFFFF AND JUMP JUMPDEST PUSH2 0x137A PUSH2 0x1336 PUSH1 0x5 PUSH2 0x27B5 JUMP JUMPDEST PUSH1 0x40 MLOAD DUP1 PUSH1 0x40 ADD PUSH1 0x40 MSTORE DUP1 PUSH1 0x1A DUP2 MSTORE PUSH1 0x20 ADD PUSH32 0x627974657333324C6973742E72656D6F7665466972737428293A000000000000 DUP2 MSTORE POP PUSH2 0x223D SWAP1 SWAP2 SWAP1 PUSH4 0xFFFFFFFF AND JUMP JUMPDEST PUSH2 0x13AE PUSH2 0x1387 PUSH1 0x5 PUSH2 0x2764 JUMP JUMPDEST PUSH1 0x40 MLOAD DUP1 PUSH1 0x60 ADD PUSH1 0x40 MSTORE DUP1 PUSH1 0x24 DUP2 MSTORE PUSH1 0x20 ADD PUSH2 0x4DFE PUSH1 0x24 SWAP2 CODECOPY PUSH2 0x2778 SWAP1 SWAP2 SWAP1 PUSH4 0xFFFFFFFF AND JUMP JUMPDEST PUSH2 0x1429 PUSH2 0x13E5 PUSH32 0x3400000000000000000000000000000000000000000000000000000000000000 PUSH1 0x5 PUSH2 0x27C8 SWAP1 SWAP2 SWAP1 PUSH4 0xFFFFFFFF AND JUMP JUMPDEST PUSH1 0x40 MLOAD DUP1 PUSH1 0x40 ADD PUSH1 0x40 MSTORE DUP1 PUSH1 0x14 DUP2 MSTORE PUSH1 0x20 ADD PUSH32 0x6164644C6173742862797465733332283429293A000000000000000000000000 DUP2 MSTORE POP PUSH2 0x22E2 SWAP1 SWAP2 SWAP1 PUSH4 0xFFFFFFFF AND JUMP JUMPDEST PUSH2 0x14A4 PUSH2 0x1460 PUSH32 0x3500000000000000000000000000000000000000000000000000000000000000 PUSH1 0x5 PUSH2 0x27C8 SWAP1 SWAP2 SWAP1 PUSH4 0xFFFFFFFF AND JUMP JUMPDEST PUSH1 0x40 MLOAD DUP1 PUSH1 0x40 ADD PUSH1 0x40 MSTORE DUP1 PUSH1 0x14 DUP2 MSTORE PUSH1 0x20 ADD PUSH32 0x6164644C6173742862797465733332283529293A000000000000000000000000 DUP2 MSTORE POP PUSH2 0x22E2 SWAP1 SWAP2 SWAP1 PUSH4 0xFFFFFFFF AND JUMP JUMPDEST PUSH2 0x14F5 PUSH2 0x14B1 PUSH1 0x5 PUSH2 0x27DD JUMP JUMPDEST PUSH1 0x40 MLOAD DUP1 PUSH1 0x40 ADD PUSH1 0x40 MSTORE DUP1 PUSH1 0x19 DUP2 MSTORE PUSH1 0x20 ADD PUSH32 0x627974657333324C6973742E72656D6F76654C61737428293A00000000000000 DUP2 MSTORE POP PUSH2 0x223D SWAP1 SWAP2 SWAP1 PUSH4 0xFFFFFFFF AND JUMP JUMPDEST PUSH2 0x1570 PUSH2 0x152C PUSH32 0x3300000000000000000000000000000000000000000000000000000000000000 PUSH1 0x5 PUSH2 0x27F0 SWAP1 SWAP2 SWAP1 PUSH4 0xFFFFFFFF AND JUMP JUMPDEST PUSH1 0x40 MLOAD DUP1 PUSH1 0x40 ADD PUSH1 0x40 MSTORE DUP1 PUSH1 0x15 DUP2 MSTORE PUSH1 0x20 ADD PUSH32 0x636F6E7461696E732862797465733332283329293A0000000000000000000000 DUP2 MSTORE POP PUSH2 0x22E2 SWAP1 SWAP2 SWAP1 PUSH4 0xFFFFFFFF AND JUMP JUMPDEST PUSH2 0x15C1 PUSH2 0x157D PUSH1 0x5 PUSH2 0x2764 JUMP JUMPDEST PUSH1 0x40 MLOAD DUP1 PUSH1 0x40 ADD PUSH1 0x40 MSTORE DUP1 PUSH1 0x15 DUP2 MSTORE PUSH1 0x20 ADD PUSH32 0x627974657333324C6973742E76616C75657328293A0000000000000000000000 DUP2 MSTORE POP PUSH2 0x2778 SWAP1 SWAP2 SWAP1 PUSH4 0xFFFFFFFF AND JUMP JUMPDEST PUSH2 0x1612 PUSH2 0x15CE PUSH1 0x5 PUSH2 0x2805 JUMP JUMPDEST PUSH1 0x40 MLOAD DUP1 PUSH1 0x40 ADD PUSH1 0x40 MSTORE DUP1 PUSH1 0xA DUP2 MSTORE PUSH1 0x20 ADD PUSH32 0x6973456D70747928293A00000000000000000000000000000000000000000000 DUP2 MSTORE POP PUSH2 0x22E2 SWAP1 SWAP2 SWAP1 PUSH4 0xFFFFFFFF AND JUMP JUMPDEST PUSH2 0x1672 PUSH2 0x162A PUSH1 0x1 PUSH1 0x5 PUSH2 0x2818 SWAP1 SWAP2 SWAP1 PUSH4 0xFFFFFFFF AND JUMP JUMPDEST PUSH1 0x3 ADD SLOAD PUSH1 0x40 MLOAD DUP1 PUSH1 0x40 ADD PUSH1 0x40 MSTORE DUP1 PUSH1 0x12 DUP2 MSTORE PUSH1 0x20 ADD PUSH32 0x627974657333324C6973742E61742831293A0000000000000000000000000000 DUP2 MSTORE POP PUSH2 0x223D SWAP1 SWAP2 SWAP1 PUSH4 0xFFFFFFFF AND JUMP JUMPDEST PUSH2 0x16F0 PUSH2 0x16AC PUSH1 0x1 PUSH32 0x3600000000000000000000000000000000000000000000000000000000000000 PUSH1 0x5 PUSH2 0x282D SWAP1 SWAP3 SWAP2 SWAP1 PUSH4 0xFFFFFFFF AND JUMP JUMPDEST PUSH1 0x40 MLOAD DUP1 PUSH1 0x40 ADD PUSH1 0x40 MSTORE DUP1 PUSH1 0x16 DUP2 MSTORE PUSH1 0x20 ADD PUSH32 0x627974657333324C6973742E61646428312C2036293A00000000000000000000 DUP2 MSTORE POP PUSH2 0x22E2 SWAP1 SWAP2 SWAP1 PUSH4 0xFFFFFFFF AND JUMP JUMPDEST PUSH2 0x1741 PUSH2 0x16FD PUSH1 0x5 PUSH2 0x2764 JUMP JUMPDEST PUSH1 0x40 MLOAD DUP1 PUSH1 0x40 ADD PUSH1 0x40 MSTORE DUP1 PUSH1 0x15 DUP2 MSTORE PUSH1 0x20 ADD PUSH32 0x627974657333324C6973742E76616C75657328293A0000000000000000000000 DUP2 MSTORE POP PUSH2 0x2778 SWAP1 SWAP2 SWAP1 PUSH4 0xFFFFFFFF AND JUMP JUMPDEST PUSH2 0x179D PUSH2 0x1759 PUSH1 0x2 PUSH1 0x5 PUSH2 0x2844 SWAP1 SWAP2 SWAP1 PUSH4 0xFFFFFFFF AND JUMP JUMPDEST PUSH1 0x40 MLOAD DUP1 PUSH1 0x40 ADD PUSH1 0x40 MSTORE DUP1 PUSH1 0x12 DUP2 MSTORE PUSH1 0x20 ADD PUSH32 0x627974657333324C6973742E61742831293A0000000000000000000000000000 DUP2 MSTORE POP PUSH2 0x223D SWAP1 SWAP2 SWAP1 PUSH4 0xFFFFFFFF AND JUMP JUMPDEST PUSH2 0x181A PUSH2 0x17D6 PUSH0 PUSH32 0x3700000000000000000000000000000000000000000000000000000000000000 PUSH1 0x5 PUSH2 0x2859 SWAP1 SWAP3 SWAP2 SWAP1 PUSH4 0xFFFFFFFF AND JUMP JUMPDEST PUSH1 0x40 MLOAD DUP1 PUSH1 0x40 ADD PUSH1 0x40 MSTORE DUP1 PUSH1 0x16 DUP2 MSTORE PUSH1 0x20 ADD PUSH32 0x627974657333324C6973742E73657428302C2037293A00000000000000000000 DUP2 MSTORE POP PUSH2 0x22E2 SWAP1 SWAP2 SWAP1 PUSH4 0xFFFFFFFF AND JUMP JUMPDEST PUSH2 0x186B PUSH2 0x1827 PUSH1 0x5 PUSH2 0x2764 JUMP JUMPDEST PUSH1 0x40 MLOAD DUP1 PUSH1 0x40 ADD PUSH1 0x40 MSTORE DUP1 PUSH1 0x15 DUP2 MSTORE PUSH1 0x20 ADD PUSH32 0x627974657333324C6973742E76616C75657328293A0000000000000000000000 DUP2 MSTORE POP PUSH2 0x2778 SWAP1 SWAP2 SWAP1 PUSH4 0xFFFFFFFF AND JUMP JUMPDEST PUSH2 0x18C7 PUSH2 0x1883 PUSH1 0x1 PUSH1 0x5 PUSH2 0x2870 SWAP1 SWAP2 SWAP1 PUSH4 0xFFFFFFFF AND JUMP JUMPDEST PUSH1 0x40 MLOAD DUP1 PUSH1 0x40 ADD PUSH1 0x40 MSTORE DUP1 PUSH1 0x13 DUP2 MSTORE PUSH1 0x20 ADD PUSH32 0x627974657333324C6973742E6765742831293A00000000000000000000000000 DUP2 MSTORE POP PUSH2 0x223D SWAP1 SWAP2 SWAP1 PUSH4 0xFFFFFFFF AND JUMP JUMPDEST PUSH2 0x1918 PUSH2 0x18D4 PUSH1 0x5 PUSH2 0x272B JUMP JUMPDEST PUSH1 0x40 MLOAD DUP1 PUSH1 0x40 ADD PUSH1 0x40 MSTORE DUP1 PUSH1 0x1F DUP2 MSTORE PUSH1 0x20 ADD PUSH32 0x6265666F7265436C65617220627974657333324C6973742E73697A6528293A00 DUP2 MSTORE POP PUSH2 0x1F69 SWAP1 SWAP2 SWAP1 PUSH4 0xFFFFFFFF AND JUMP JUMPDEST PUSH2 0x1922 PUSH1 0x5 PUSH2 0x2885 JUMP JUMPDEST PUSH2 0x1973 PUSH2 0x192F PUSH1 0x5 PUSH2 0x2764 JUMP JUMPDEST PUSH1 0x40 MLOAD DUP1 PUSH1 0x40 ADD PUSH1 0x40 MSTORE DUP1 PUSH1 0x20 DUP2 MSTORE PUSH1 0x20 ADD PUSH32 0x6166746572436C65617220627974657333324C6973742E76616C75657328293A DUP2 MSTORE POP PUSH2 0x2778 SWAP1 SWAP2 SWAP1 PUSH4 0xFFFFFFFF AND JUMP JUMPDEST PUSH2 0x19A7 PUSH32 0x3100000000000000000000000000000000000000000000000000000000000000 PUSH1 0x5 PUSH2 0x27C8 SWAP1 SWAP2 SWAP1 PUSH4 0xFFFFFFFF AND JUMP JUMPDEST POP PUSH2 0x19DC PUSH32 0x3200000000000000000000000000000000000000000000000000000000000000 PUSH1 0x5 PUSH2 0x27C8 SWAP1 SWAP2 SWAP1 PUSH4 0xFFFFFFFF AND JUMP JUMPDEST POP PUSH2 0x1A11 PUSH32 0x3300000000000000000000000000000000000000000000000000000000000000 PUSH1 0x5 PUSH2 0x27C8 SWAP1 SWAP2 SWAP1 PUSH4 0xFFFFFFFF AND JUMP JUMPDEST POP PUSH2 0x1A46 PUSH32 0x3400000000000000000000000000000000000000000000000000000000000000 PUSH1 0x5 PUSH2 0x2716 SWAP1 SWAP2 SWAP1 PUSH4 0xFFFFFFFF AND JUMP JUMPDEST POP PUSH2 0x1A7B PUSH32 0x3500000000000000000000000000000000000000000000000000000000000000 PUSH1 0x5 PUSH2 0x2716 SWAP1 SWAP2 SWAP1 PUSH4 0xFFFFFFFF AND JUMP JUMPDEST POP PUSH2 0x1AB0 PUSH32 0x3600000000000000000000000000000000000000000000000000000000000000 PUSH1 0x5 PUSH2 0x2716 SWAP1 SWAP2 SWAP1 PUSH4 0xFFFFFFFF AND JUMP JUMPDEST POP PUSH2 0x1B02 PUSH2 0x1ABE PUSH1 0x5 PUSH2 0x2764 JUMP JUMPDEST PUSH1 0x40 MLOAD DUP1 PUSH1 0x40 ADD PUSH1 0x40 MSTORE DUP1 PUSH1 0x15 DUP2 MSTORE PUSH1 0x20 ADD PUSH32 0x627974657333324C6973742E76616C75657328293A0000000000000000000000 DUP2 MSTORE POP PUSH2 0x2778 SWAP1 SWAP2 SWAP1 PUSH4 0xFFFFFFFF AND JUMP JUMPDEST PUSH2 0x1B53 PUSH2 0x1B0F PUSH1 0x5 PUSH2 0x27B5 JUMP JUMPDEST PUSH1 0x40 MLOAD DUP1 PUSH1 0x40 ADD PUSH1 0x40 MSTORE DUP1 PUSH1 0x1A DUP2 MSTORE PUSH1 0x20 ADD PUSH32 0x627974657333324C6973742E72656D6F7665466972737428293A000000000000 DUP2 MSTORE POP PUSH2 0x223D SWAP1 SWAP2 SWAP1 PUSH4 0xFFFFFFFF AND JUMP JUMPDEST PUSH2 0x1BA4 PUSH2 0x1B60 PUSH1 0x5 PUSH2 0x27DD JUMP JUMPDEST PUSH1 0x40 MLOAD DUP1 PUSH1 0x40 ADD PUSH1 0x40 MSTORE DUP1 PUSH1 0x19 DUP2 MSTORE PUSH1 0x20 ADD PUSH32 0x627974657333324C6973742E72656D6F76654C61737428293A00000000000000 DUP2 MSTORE POP PUSH2 0x223D SWAP1 SWAP2 SWAP1 PUSH4 0xFFFFFFFF AND JUMP JUMPDEST PUSH2 0x1C00 PUSH2 0x1BBC PUSH1 0x2 PUSH1 0x5 PUSH2 0x2844 SWAP1 SWAP2 SWAP1 PUSH4 0xFFFFFFFF AND JUMP JUMPDEST PUSH1 0x40 MLOAD DUP1 PUSH1 0x40 ADD PUSH1 0x40 MSTORE DUP1 PUSH1 0x1A DUP2 MSTORE PUSH1 0x20 ADD PUSH32 0x627974657333324C6973742E72656D6F7665466972737428293A000000000000 DUP2 MSTORE POP PUSH2 0x223D SWAP1 SWAP2 SWAP1 PUSH4 0xFFFFFFFF AND JUMP JUMPDEST PUSH2 0x1C51 PUSH2 0x1C0D PUSH1 0x5 PUSH2 0x2764 JUMP JUMPDEST PUSH1 0x40 MLOAD DUP1 PUSH1 0x40 ADD PUSH1 0x40 MSTORE DUP1 PUSH1 0x15 DUP2 MSTORE PUSH1 0x20 ADD PUSH32 0x627974657333324C6973742E76616C75657328293A0000000000000000000000 DUP2 MSTORE POP PUSH2 0x2778 SWAP1 SWAP2 SWAP1 PUSH4 0xFFFFFFFF AND JUMP JUMPDEST PUSH2 0x1CA2 PUSH2 0x1C5E PUSH1 0x5 PUSH2 0x27DD JUMP JUMPDEST PUSH1 0x40 MLOAD DUP1 PUSH1 0x40 ADD PUSH1 0x40 MSTORE DUP1 PUSH1 0x19 DUP2 MSTORE PUSH1 0x20 ADD PUSH32 0x627974657333324C6973742E72656D6F76654C61737428293A00000000000000 DUP2 MSTORE POP PUSH2 0x223D SWAP1 SWAP2 SWAP1 PUSH4 0xFFFFFFFF AND JUMP JUMPDEST PUSH2 0x1CF3 PUSH2 0x1CAF PUSH1 0x5 PUSH2 0x27DD JUMP JUMPDEST PUSH1 0x40 MLOAD DUP1 PUSH1 0x40 ADD PUSH1 0x40 MSTORE DUP1 PUSH1 0x19 DUP2 MSTORE PUSH1 0x20 ADD PUSH32 0x627974657333324C6973742E72656D6F76654C61737428293A00000000000000 DUP2 MSTORE POP PUSH2 0x223D SWAP1 SWAP2 SWAP1 PUSH4 0xFFFFFFFF AND JUMP JUMPDEST PUSH2 0x1D44 PUSH2 0x1D00 PUSH1 0x5 PUSH2 0x27DD JUMP JUMPDEST PUSH1 0x40 MLOAD DUP1 PUSH1 0x40 ADD PUSH1 0x40 MSTORE DUP1 PUSH1 0x19 DUP2 MSTORE PUSH1 0x20 ADD PUSH32 0x627974657333324C6973742E72656D6F76654C61737428293A00000000000000 DUP2 MSTORE POP PUSH2 0x223D SWAP1 SWAP2 SWAP1 PUSH4 0xFFFFFFFF AND JUMP JUMPDEST PUSH2 0x1D95 PUSH2 0x1D51 PUSH1 0x5 PUSH2 0x272B JUMP JUMPDEST PUSH1 0x40 MLOAD DUP1 PUSH1 0x40 ADD PUSH1 0x40 MSTORE DUP1 PUSH1 0x1B DUP2 MSTORE PUSH1 0x20 ADD PUSH32 0x66696E616C6C7920627974657333324C6973742E73697A6528293A0000000000 DUP2 MSTORE POP PUSH2 0x1F69 SWAP1 SWAP2 SWAP1 PUSH4 0xFFFFFFFF AND JUMP JUMPDEST PUSH2 0x1DE6 PUSH2 0x1DA2 PUSH1 0x5 PUSH2 0x27DD JUMP JUMPDEST PUSH1 0x40 MLOAD DUP1 PUSH1 0x40 ADD PUSH1 0x40 MSTORE DUP1 PUSH1 0x19 DUP2 MSTORE PUSH1 0x20 ADD PUSH32 0x627974657333324C6973742E72656D6F76654C61737428293A00000000000000 DUP2 MSTORE POP PUSH2 0x223D SWAP1 SWAP2 SWAP1 PUSH4 0xFFFFFFFF AND JUMP JUMPDEST JUMP JUMPDEST PUSH1 0x60 PUSH0 DUP1 DUP5 PUSH20 0xFFFFFFFFFFFFFFFFFFFFFFFFFFFFFFFFFFFFFFFF AND DUP5 PUSH1 0x40 MLOAD PUSH2 0x1E11 SWAP2 SWAP1 PUSH2 0x4647 JUMP JUMPDEST PUSH0 PUSH1 0x40 MLOAD DUP1 DUP4 SUB DUP2 DUP6 GAS STATICCALL SWAP2 POP POP RETURNDATASIZE DUP1 PUSH0 DUP2 EQ PUSH2 0x1E49 JUMPI PUSH1 0x40 MLOAD SWAP2 POP PUSH1 0x1F NOT PUSH1 0x3F RETURNDATASIZE ADD AND DUP3 ADD PUSH1 0x40 MSTORE RETURNDATASIZE DUP3 MSTORE RETURNDATASIZE PUSH0 PUSH1 0x20 DUP5 ADD RETURNDATACOPY PUSH2 0x1E4E JUMP JUMPDEST PUSH1 0x60 SWAP2 POP JUMPDEST POP SWAP2 POP SWAP2 POP PUSH2 0x1E5E DUP6 DUP4 DUP4 PUSH2 0x2893 JUMP JUMPDEST SWAP3 POP POP POP SWAP3 SWAP2 POP POP JUMP JUMPDEST PUSH0 PUSH2 0x1E7D DUP4 PUSH0 ADD PUSH2 0x1E78 DUP5 PUSH2 0x2920 JUMP JUMPDEST PUSH2 0x2941 JUMP JUMPDEST SWAP1 POP SWAP3 SWAP2 POP POP JUMP JUMPDEST PUSH0 PUSH2 0x1E9A DUP4 PUSH0 ADD PUSH2 0x1E95 DUP5 PUSH2 0x2920 JUMP JUMPDEST PUSH2 0x2B73 JUMP JUMPDEST SWAP1 POP SWAP3 SWAP2 POP POP JUMP JUMPDEST PUSH1 0x60 DUP1 PUSH1 0x40 MLOAD SWAP1 POP DUP4 MLOAD DUP1 DUP3 MSTORE PUSH1 0x20 DUP3 ADD DUP2 DUP2 ADD PUSH1 0x20 DUP8 ADD JUMPDEST DUP2 DUP4 LT ISZERO PUSH2 0x1ED8 JUMPI DUP1 MLOAD DUP4 MSTORE PUSH1 0x20 DUP4 ADD SWAP3 POP PUSH1 0x20 DUP2 ADD SWAP1 POP PUSH2 0x1EBB JUMP JUMPDEST POP DUP6 MLOAD SWAP3 POP DUP4 MLOAD DUP4 ADD DUP5 MSTORE DUP1 SWAP2 POP DUP3 DUP3 ADD SWAP1 POP PUSH1 0x20 DUP7 ADD JUMPDEST DUP2 DUP4 LT ISZERO PUSH2 0x1F0D JUMPI DUP1 MLOAD DUP4 MSTORE PUSH1 0x20 DUP4 ADD SWAP3 POP PUSH1 0x20 DUP2 ADD SWAP1 POP PUSH2 0x1EF0 JUMP JUMPDEST POP PUSH1 0x1F NOT PUSH1 0x1F DUP9 MLOAD DUP6 ADD ISZERO DUP4 ADD ADD AND PUSH1 0x40 MSTORE POP POP POP DUP1 SWAP2 POP POP SWAP3 SWAP2 POP POP JUMP JUMPDEST PUSH32 0x38510722CCA54C7525003469AFF2983DA6AA6AAA7DEC66F217775D1DE381A51A DUP3 DUP3 PUSH1 0x40 MLOAD PUSH2 0x1F5D SWAP3 SWAP2 SWAP1 PUSH2 0x465D JUMP JUMPDEST PUSH1 0x40 MLOAD DUP1 SWAP2 SUB SWAP1 LOG1 POP POP JUMP JUMPDEST PUSH32 0xE065C143AB819E9EEEE7BB1926A4C1354EC7FE3492DED34510CFFF0E78E7B8BE DUP3 DUP3 PUSH1 0x40 MLOAD PUSH2 0x1F9A SWAP3 SWAP2 SWAP1 PUSH2 0x4692 JUMP JUMPDEST PUSH1 0x40 MLOAD DUP1 SWAP2 SUB SWAP1 LOG1 POP POP JUMP JUMPDEST PUSH1 0x60 DUP2 PUSH1 0x1F DUP4 PUSH2 0x1FB6 SWAP2 SWAP1 PUSH2 0x46ED JUMP JUMPDEST LT ISZERO PUSH2 0x1FF7 JUMPI PUSH1 0x40 MLOAD PUSH32 0x8C379A000000000000000000000000000000000000000000000000000000000 DUP2 MSTORE PUSH1 0x4 ADD PUSH2 0x1FEE SWAP1 PUSH2 0x476A JUMP JUMPDEST PUSH1 0x40 MLOAD DUP1 SWAP2 SUB SWAP1 REVERT JUMPDEST DUP2 DUP4 PUSH2 0x2003 SWAP2 SWAP1 PUSH2 0x46ED JUMP JUMPDEST DUP5 MLOAD LT ISZERO PUSH2 0x2046 JUMPI PUSH1 0x40 MLOAD PUSH32 0x8C379A000000000000000000000000000000000000000000000000000000000 DUP2 MSTORE PUSH1 0x4 ADD PUSH2 0x203D SWAP1 PUSH2 0x47D2 JUMP JUMPDEST PUSH1 0x40 MLOAD DUP1 SWAP2 SUB SWAP1 REVERT JUMPDEST PUSH1 0x60 DUP3 ISZERO PUSH0 DUP2 EQ PUSH2 0x2065 JUMPI PUSH1 0x40 MLOAD SWAP2 POP PUSH0 DUP3 MSTORE PUSH1 0x20 DUP3 ADD PUSH1 0x40 MSTORE PUSH2 0x20B6 JUMP JUMPDEST PUSH1 0x40 MLOAD SWAP2 POP PUSH1 0x1F DUP5 AND DUP1 ISZERO PUSH1 0x20 MUL DUP2 DUP5 ADD ADD DUP6 DUP2 ADD DUP8 DUP4 ISZERO PUSH1 0x20 MUL DUP5 DUP12 ADD ADD ADD JUMPDEST DUP2 DUP4 LT ISZERO PUSH2 0x20A3 JUMPI DUP1 MLOAD DUP4 MSTORE PUSH1 0x20 DUP4 ADD SWAP3 POP PUSH1 0x20 DUP2 ADD SWAP1 POP PUSH2 0x2086 JUMP JUMPDEST POP DUP7 DUP6 MSTORE PUSH1 0x1F NOT PUSH1 0x1F DUP4 ADD AND PUSH1 0x40 MSTORE POP POP POP JUMPDEST POP DUP1 SWAP2 POP POP SWAP4 SWAP3 POP POP POP JUMP JUMPDEST PUSH0 PUSH1 0x14 DUP3 PUSH2 0x20D0 SWAP2 SWAP1 PUSH2 0x46ED JUMP JUMPDEST DUP4 MLOAD LT ISZERO PUSH2 0x2113 JUMPI PUSH1 0x40 MLOAD PUSH32 0x8C379A000000000000000000000000000000000000000000000000000000000 DUP2 MSTORE PUSH1 0x4 ADD PUSH2 0x210A SWAP1 PUSH2 0x483A JUMP JUMPDEST PUSH1 0x40 MLOAD DUP1 SWAP2 SUB SWAP1 REVERT JUMPDEST PUSH0 PUSH13 0x1000000000000000000000000 DUP4 PUSH1 0x20 DUP7 ADD ADD MLOAD DIV SWAP1 POP DUP1 SWAP2 POP POP SWAP3 SWAP2 POP POP JUMP JUMPDEST PUSH32 0x7700EE2A2783C555D55A6D24309C75ED5612BD3DEDC5272D3219B930694EBA44 DUP3 DUP3 PUSH1 0x40 MLOAD PUSH2 0x2167 SWAP3 SWAP2 SWAP1 PUSH2 0x4858 JUMP JUMPDEST PUSH1 0x40 MLOAD DUP1 SWAP2 SUB SWAP1 LOG1 POP POP JUMP JUMPDEST PUSH0 PUSH1 0x20 DUP3 PUSH2 0x2181 SWAP2 SWAP1 PUSH2 0x46ED JUMP JUMPDEST DUP4 MLOAD LT ISZERO PUSH2 0x21C4 JUMPI PUSH1 0x40 MLOAD PUSH32 0x8C379A000000000000000000000000000000000000000000000000000000000 DUP2 MSTORE PUSH1 0x4 ADD PUSH2 0x21BB SWAP1 PUSH2 0x48D0 JUMP JUMPDEST PUSH1 0x40 MLOAD DUP1 SWAP2 SUB SWAP1 REVERT JUMPDEST PUSH0 DUP3 PUSH1 0x20 DUP6 ADD ADD MLOAD SWAP1 POP DUP1 SWAP2 POP POP SWAP3 SWAP2 POP POP JUMP JUMPDEST PUSH0 PUSH1 0x20 DUP3 PUSH2 0x21E6 SWAP2 SWAP1 PUSH2 0x46ED JUMP JUMPDEST DUP4 MLOAD LT ISZERO PUSH2 0x2229 JUMPI PUSH1 0x40 MLOAD PUSH32 0x8C379A000000000000000000000000000000000000000000000000000000000 DUP2 MSTORE PUSH1 0x4 ADD PUSH2 0x2220 SWAP1 PUSH2 0x4938 JUMP JUMPDEST PUSH1 0x40 MLOAD DUP1 SWAP2 SUB SWAP1 REVERT JUMPDEST PUSH0 DUP3 PUSH1 0x20 DUP6 ADD ADD MLOAD SWAP1 POP DUP1 SWAP2 POP POP SWAP3 SWAP2 POP POP JUMP JUMPDEST PUSH32 0xDC20D382767D84D94848AF5B87ED127C1619173E3E150BF058579FA909CB5D9E DUP3 DUP3 PUSH1 0x40 MLOAD PUSH2 0x226E SWAP3 SWAP2 SWAP1 PUSH2 0x496E JUMP JUMPDEST PUSH1 0x40 MLOAD DUP1 SWAP2 SUB SWAP1 LOG1 POP POP JUMP JUMPDEST PUSH0 DUP1 PUSH1 0x1 SWAP1 POP DUP4 MLOAD DUP4 MLOAD DUP2 EQ PUSH1 0x1 DUP2 EQ PUSH2 0x2296 JUMPI PUSH0 SWAP3 POP PUSH2 0x22D6 JUMP JUMPDEST PUSH1 0x1 PUSH1 0x20 DUP8 ADD DUP4 DUP2 ADD PUSH1 0x20 DUP9 ADD JUMPDEST PUSH1 0x2 DUP5 DUP4 DUP6 LT ADD SUB PUSH2 0x22D1 JUMPI DUP1 MLOAD DUP4 MLOAD EQ PUSH2 0x22C0 JUMPI PUSH0 SWAP7 POP PUSH0 SWAP4 POP JUMPDEST PUSH1 0x20 DUP4 ADD SWAP3 POP PUSH1 0x20 DUP2 ADD SWAP1 POP PUSH2 0x22A4 JUMP JUMPDEST POP POP POP POP JUMPDEST POP POP DUP1 SWAP2 POP POP SWAP3 SWAP2 POP POP JUMP JUMPDEST PUSH32 0x554B0A22792E0CC5201E915B6E42D3CF18A8D15C3D1984DA155E6C591B12BB6D DUP3 DUP3 PUSH1 0x40 MLOAD PUSH2 0x2313 SWAP3 SWAP2 SWAP1 PUSH2 0x499C JUMP JUMPDEST PUSH1 0x40 MLOAD DUP1 SWAP2 SUB SWAP1 LOG1 POP POP JUMP JUMPDEST PUSH0 DUP1 PUSH1 0x1 SWAP1 POP DUP4 MLOAD DUP4 MLOAD DUP2 EQ PUSH1 0x1 DUP2 EQ PUSH2 0x233B JUMPI PUSH0 SWAP3 POP PUSH2 0x23BB JUMP JUMPDEST PUSH1 0x1 DUP3 DUP8 ADD PUSH1 0x20 DUP9 ADD PUSH1 0x20 DUP9 ADD JUMPDEST PUSH1 0x2 DUP5 DUP5 DUP5 LT ADD SUB PUSH2 0x2376 JUMPI DUP1 MLOAD DUP3 MLOAD EQ PUSH2 0x2365 JUMPI PUSH0 SWAP7 POP PUSH0 SWAP4 POP JUMPDEST PUSH1 0x20 DUP3 ADD SWAP2 POP PUSH1 0x20 DUP2 ADD SWAP1 POP PUSH2 0x2349 JUMP JUMPDEST PUSH0 DUP8 GT ISZERO PUSH2 0x23B6 JUMPI PUSH1 0x1F DUP7 AND DUP3 MLOAD DUP3 MLOAD PUSH0 JUMPDEST PUSH1 0x2 DUP9 DUP6 DUP4 LT ADD SUB PUSH2 0x23B1 JUMPI DUP2 DUP2 BYTE DUP4 DUP3 BYTE EQ PUSH2 0x23A6 JUMPI PUSH0 SWAP11 POP PUSH0 SWAP8 POP JUMPDEST PUSH1 0x1 DUP2 ADD SWAP1 POP PUSH2 0x2388 JUMP JUMPDEST POP POP POP POP JUMPDEST POP POP POP POP JUMPDEST POP POP DUP1 SWAP2 POP POP SWAP3 SWAP2 POP POP JUMP JUMPDEST PUSH0 PUSH2 0x23D6 DUP4 PUSH0 ADD DUP4 PUSH0 SHL PUSH2 0x2BAB JUMP JUMPDEST PUSH0 SHR SWAP1 POP SWAP3 SWAP2 POP POP JUMP JUMPDEST PUSH0 PUSH2 0x23EF DUP4 PUSH0 ADD DUP4 PUSH0 SHL PUSH2 0x2C27 JUMP JUMPDEST SWAP1 POP SWAP3 SWAP2 POP POP JUMP JUMPDEST PUSH1 0x60 PUSH0 PUSH2 0x2405 DUP4 PUSH0 ADD PUSH2 0x2C8E JUMP JUMPDEST SWAP1 POP PUSH1 0x60 DUP2 SWAP1 POP DUP1 SWAP3 POP POP POP SWAP2 SWAP1 POP JUMP JUMPDEST PUSH32 0x801B2707B7DC1608DF3AF195D9EEF5618A51394FA186E94B16D7700E31D3C431 DUP3 DUP3 PUSH1 0x40 MLOAD PUSH2 0x2447 SWAP3 SWAP2 SWAP1 PUSH2 0x49CA JUMP JUMPDEST PUSH1 0x40 MLOAD DUP1 SWAP2 SUB SWAP1 LOG1 POP POP JUMP JUMPDEST PUSH0 PUSH2 0x2462 DUP4 PUSH0 ADD DUP4 PUSH0 SHL PUSH2 0x2CE7 JUMP JUMPDEST SWAP1 POP SWAP3 SWAP2 POP POP JUMP JUMPDEST PUSH0 PUSH2 0x2479 DUP4 PUSH0 ADD DUP4 PUSH0 SHL PUSH2 0x2DE3 JUMP JUMPDEST SWAP1 POP SWAP3 SWAP2 POP POP JUMP JUMPDEST PUSH0 PUSH2 0x248D DUP3 PUSH0 ADD PUSH2 0x2E03 JUMP JUMPDEST SWAP1 POP SWAP2 SWAP1 POP JUMP JUMPDEST PUSH0 PUSH2 0x24A1 DUP4 PUSH0 ADD DUP4 PUSH2 0x2E12 JUMP JUMPDEST PUSH0 SHR SWAP1 POP SWAP3 SWAP2 POP POP JUMP JUMPDEST PUSH0 PUSH2 0x24BA DUP4 PUSH0 ADD DUP4 PUSH0 SHL PUSH2 0x2941 JUMP JUMPDEST SWAP1 POP SWAP3 SWAP2 POP POP JUMP JUMPDEST PUSH1 0x60 PUSH0 PUSH2 0x24D0 DUP4 PUSH0 ADD PUSH2 0x2E39 JUMP JUMPDEST SWAP1 POP PUSH1 0x60 DUP2 SWAP1 POP DUP1 SWAP3 POP POP POP SWAP2 SWAP1 POP JUMP JUMPDEST PUSH0 PUSH2 0x24ED DUP3 PUSH0 ADD PUSH2 0x2F5B JUMP JUMPDEST SWAP1 POP SWAP2 SWAP1 POP JUMP JUMPDEST PUSH0 PUSH2 0x2500 DUP3 PUSH0 ADD PUSH2 0x2F7A JUMP JUMPDEST PUSH0 SHR SWAP1 POP SWAP2 SWAP1 POP JUMP JUMPDEST PUSH0 PUSH2 0x2515 DUP3 PUSH0 ADD PUSH2 0x31A6 JUMP JUMPDEST PUSH0 SHR SWAP1 POP SWAP2 SWAP1 POP JUMP JUMPDEST PUSH2 0x2529 DUP2 PUSH0 ADD PUSH2 0x33D3 JUMP JUMPDEST POP JUMP JUMPDEST PUSH0 PUSH2 0x253E DUP5 PUSH0 ADD DUP5 PUSH0 SHL DUP5 PUSH0 SHL PUSH2 0x33EE JUMP JUMPDEST SWAP1 POP SWAP4 SWAP3 POP POP POP JUMP JUMPDEST PUSH1 0x60 PUSH0 PUSH2 0x2555 DUP4 PUSH0 ADD PUSH2 0x3425 JUMP JUMPDEST SWAP1 POP PUSH1 0x60 DUP2 SWAP1 POP DUP1 SWAP3 POP POP POP SWAP2 SWAP1 POP JUMP JUMPDEST PUSH0 PUSH2 0x2575 DUP4 PUSH0 ADD DUP4 PUSH0 SHL PUSH2 0x3439 JUMP JUMPDEST SWAP1 POP SWAP3 SWAP2 POP POP JUMP JUMPDEST PUSH0 PUSH2 0x258C DUP4 PUSH0 ADD DUP4 PUSH0 SHL PUSH2 0x346D JUMP JUMPDEST SWAP1 POP SWAP3 SWAP2 POP POP JUMP JUMPDEST PUSH0 PUSH2 0x25A0 DUP3 PUSH0 ADD PUSH2 0x348B JUMP JUMPDEST SWAP1 POP SWAP2 SWAP1 POP JUMP JUMPDEST PUSH0 DUP1 PUSH0 DUP1 PUSH2 0x25B7 DUP7 PUSH0 ADD DUP7 PUSH2 0x349E JUMP JUMPDEST SWAP2 POP SWAP2 POP DUP2 PUSH0 SHR DUP2 PUSH0 SHR SWAP4 POP SWAP4 POP POP POP SWAP3 POP SWAP3 SWAP1 POP JUMP JUMPDEST PUSH32 0xC953AEB2B9667F5D999E4C121C61464BF7554115BDD0281363B6C07CDC21CDF4 DUP4 DUP4 DUP4 PUSH1 0x40 MLOAD PUSH2 0x2601 SWAP4 SWAP3 SWAP2 SWAP1 PUSH2 0x49FF JUMP JUMPDEST PUSH1 0x40 MLOAD DUP1 SWAP2 SUB SWAP1 LOG1 POP POP POP JUMP JUMPDEST PUSH0 DUP1 PUSH0 DUP1 PUSH2 0x2620 DUP7 PUSH0 ADD DUP7 PUSH0 SHL PUSH2 0x34D9 JUMP JUMPDEST SWAP2 POP SWAP2 POP DUP2 DUP2 PUSH0 SHR SWAP4 POP SWAP4 POP POP POP SWAP3 POP SWAP3 SWAP1 POP JUMP JUMPDEST PUSH1 0x60 PUSH2 0x2643 DUP3 PUSH2 0x3522 PUSH2 0x352E JUMP JUMPDEST POP DUP2 SWAP1 POP SWAP2 SWAP1 POP JUMP JUMPDEST PUSH1 0x60 PUSH0 PUSH1 0x1 PUSH2 0x265A DUP5 PUSH2 0x3554 JUMP JUMPDEST ADD SWAP1 POP PUSH0 DUP2 PUSH8 0xFFFFFFFFFFFFFFFF DUP2 GT ISZERO PUSH2 0x2678 JUMPI PUSH2 0x2677 PUSH2 0x4296 JUMP JUMPDEST JUMPDEST PUSH1 0x40 MLOAD SWAP1 DUP1 DUP3 MSTORE DUP1 PUSH1 0x1F ADD PUSH1 0x1F NOT AND PUSH1 0x20 ADD DUP3 ADD PUSH1 0x40 MSTORE DUP1 ISZERO PUSH2 0x26AA JUMPI DUP2 PUSH1 0x20 ADD PUSH1 0x1 DUP3 MUL DUP1 CALLDATASIZE DUP4 CALLDATACOPY DUP1 DUP3 ADD SWAP2 POP POP SWAP1 POP JUMPDEST POP SWAP1 POP PUSH0 DUP3 PUSH1 0x20 ADD DUP3 ADD SWAP1 POP JUMPDEST PUSH1 0x1 ISZERO PUSH2 0x270B JUMPI DUP1 DUP1 PUSH1 0x1 SWAP1 SUB SWAP2 POP POP PUSH32 0x3031323334353637383961626364656600000000000000000000000000000000 PUSH1 0xA DUP7 MOD BYTE DUP2 MSTORE8 PUSH1 0xA DUP6 DUP2 PUSH2 0x2700 JUMPI PUSH2 0x26FF PUSH2 0x4A3B JUMP JUMPDEST JUMPDEST DIV SWAP5 POP PUSH0 DUP6 SUB PUSH2 0x26B7 JUMPI JUMPDEST DUP2 SWAP4 POP POP POP POP SWAP2 SWAP1 POP JUMP JUMPDEST PUSH0 PUSH2 0x2723 DUP4 PUSH0 ADD DUP4 PUSH2 0x36A5 JUMP JUMPDEST SWAP1 POP SWAP3 SWAP2 POP POP JUMP JUMPDEST PUSH0 PUSH2 0x2737 DUP3 PUSH0 ADD PUSH2 0x2F5B JUMP JUMPDEST SWAP1 POP SWAP2 SWAP1 POP JUMP JUMPDEST PUSH0 PUSH2 0x274A DUP3 PUSH0 ADD PUSH2 0x3884 JUMP JUMPDEST SWAP1 POP SWAP2 SWAP1 POP JUMP JUMPDEST PUSH0 PUSH2 0x275D DUP3 PUSH0 ADD PUSH2 0x38BA JUMP JUMPDEST SWAP1 POP SWAP2 SWAP1 POP JUMP JUMPDEST PUSH1 0x60 PUSH2 0x2771 DUP3 PUSH0 ADD PUSH2 0x2E39 JUMP JUMPDEST SWAP1 POP SWAP2 SWAP1 POP JUMP JUMPDEST PUSH32 0x8B7A532FF68C965C8899B2AC3C0A5E0E45FEE4C84A9E935AB0016EB71F0D138C DUP3 DUP3 PUSH1 0x40 MLOAD PUSH2 0x27A9 SWAP3 SWAP2 SWAP1 PUSH2 0x4B1F JUMP JUMPDEST PUSH1 0x40 MLOAD DUP1 SWAP2 SUB SWAP1 LOG1 POP POP JUMP JUMPDEST PUSH0 PUSH2 0x27C1 DUP3 PUSH0 ADD PUSH2 0x2F7A JUMP JUMPDEST SWAP1 POP SWAP2 SWAP1 POP JUMP JUMPDEST PUSH0 PUSH2 0x27D5 DUP4 PUSH0 ADD DUP4 PUSH2 0x2941 JUMP JUMPDEST SWAP1 POP SWAP3 SWAP2 POP POP JUMP JUMPDEST PUSH0 PUSH2 0x27E9 DUP3 PUSH0 ADD PUSH2 0x31A6 JUMP JUMPDEST SWAP1 POP SWAP2 SWAP1 POP JUMP JUMPDEST PUSH0 PUSH2 0x27FD DUP4 PUSH0 ADD DUP4 PUSH2 0x2B73 JUMP JUMPDEST SWAP1 POP SWAP3 SWAP2 POP POP JUMP JUMPDEST PUSH0 PUSH2 0x2811 DUP3 PUSH0 ADD PUSH2 0x38F0 JUMP JUMPDEST SWAP1 POP SWAP2 SWAP1 POP JUMP JUMPDEST PUSH0 PUSH2 0x2825 DUP4 PUSH0 ADD DUP4 PUSH2 0x3917 JUMP JUMPDEST SWAP1 POP SWAP3 SWAP2 POP POP JUMP JUMPDEST PUSH0 PUSH2 0x283B DUP5 PUSH0 ADD DUP5 DUP5 PUSH2 0x3A0A JUMP JUMPDEST SWAP1 POP SWAP4 SWAP3 POP POP POP JUMP JUMPDEST PUSH0 PUSH2 0x2851 DUP4 PUSH0 ADD DUP4 PUSH2 0x3BB4 JUMP JUMPDEST SWAP1 POP SWAP3 SWAP2 POP POP JUMP JUMPDEST PUSH0 PUSH2 0x2867 DUP5 PUSH0 ADD DUP5 DUP5 PUSH2 0x3D57 JUMP JUMPDEST SWAP1 POP SWAP4 SWAP3 POP POP POP JUMP JUMPDEST PUSH0 PUSH2 0x287D DUP4 PUSH0 ADD DUP4 PUSH2 0x3E01 JUMP JUMPDEST SWAP1 POP SWAP3 SWAP2 POP POP JUMP JUMPDEST PUSH2 0x2890 DUP2 PUSH0 ADD PUSH2 0x33D3 JUMP JUMPDEST POP JUMP JUMPDEST PUSH1 0x60 DUP3 PUSH2 0x28A8 JUMPI PUSH2 0x28A3 DUP3 PUSH2 0x3E27 JUMP JUMPDEST PUSH2 0x2918 JUMP JUMPDEST PUSH0 DUP3 MLOAD EQ DUP1 ISZERO PUSH2 0x28CE JUMPI POP PUSH0 DUP5 PUSH20 0xFFFFFFFFFFFFFFFFFFFFFFFFFFFFFFFFFFFFFFFF AND EXTCODESIZE EQ JUMPDEST ISZERO PUSH2 0x2910 JUMPI DUP4 PUSH1 0x40 MLOAD PUSH32 0x9996B31500000000000000000000000000000000000000000000000000000000 DUP2 MSTORE PUSH1 0x4 ADD PUSH2 0x2907 SWAP2 SWAP1 PUSH2 0x420E JUMP JUMPDEST PUSH1 0x40 MLOAD DUP1 SWAP2 SUB SWAP1 REVERT JUMPDEST DUP2 SWAP1 POP PUSH2 0x2919 JUMP JUMPDEST JUMPDEST SWAP4 SWAP3 POP POP POP JUMP JUMPDEST PUSH0 DUP2 PUSH20 0xFFFFFFFFFFFFFFFFFFFFFFFFFFFFFFFFFFFFFFFF AND PUSH0 SHL SWAP1 POP SWAP2 SWAP1 POP JUMP JUMPDEST PUSH0 DUP1 DUP4 PUSH1 0x2 ADD PUSH0 DUP6 PUSH0 ADD SLOAD DUP2 MSTORE PUSH1 0x20 ADD SWAP1 DUP2 MSTORE PUSH1 0x20 ADD PUSH0 KECCAK256 PUSH0 DUP2 SLOAD PUSH2 0x2965 SWAP1 PUSH2 0x4B54 JUMP JUMPDEST SWAP2 SWAP1 POP DUP2 SWAP1 SSTORE SWAP1 POP PUSH0 DUP5 PUSH1 0x3 ADD PUSH0 DUP7 PUSH0 ADD SLOAD DUP2 MSTORE PUSH1 0x20 ADD SWAP1 DUP2 MSTORE PUSH1 0x20 ADD PUSH0 KECCAK256 PUSH0 DUP4 DUP2 MSTORE PUSH1 0x20 ADD SWAP1 DUP2 MSTORE PUSH1 0x20 ADD PUSH0 KECCAK256 SWAP1 POP DUP2 DUP2 PUSH0 ADD DUP2 SWAP1 SSTORE POP DUP4 DUP2 PUSH1 0x3 ADD DUP2 SWAP1 SSTORE POP PUSH2 0x29C5 DUP6 PUSH1 0x1 ADD PUSH0 DUP8 PUSH0 ADD SLOAD DUP2 MSTORE PUSH1 0x20 ADD SWAP1 DUP2 MSTORE PUSH1 0x20 ADD PUSH0 KECCAK256 SLOAD PUSH2 0x3E6B JUMP JUMPDEST ISZERO PUSH2 0x2A0B JUMPI DUP1 PUSH0 ADD SLOAD DUP6 PUSH1 0x5 ADD PUSH0 DUP8 PUSH0 ADD SLOAD DUP2 MSTORE PUSH1 0x20 ADD SWAP1 DUP2 MSTORE PUSH1 0x20 ADD PUSH0 KECCAK256 DUP2 SWAP1 SSTORE POP DUP1 PUSH0 ADD SLOAD DUP6 PUSH1 0x6 ADD PUSH0 DUP8 PUSH0 ADD SLOAD DUP2 MSTORE PUSH1 0x20 ADD SWAP1 DUP2 MSTORE PUSH1 0x20 ADD PUSH0 KECCAK256 DUP2 SWAP1 SSTORE POP PUSH2 0x2A6B JUMP JUMPDEST PUSH0 DUP6 PUSH1 0x6 ADD PUSH0 DUP8 PUSH0 ADD SLOAD DUP2 MSTORE PUSH1 0x20 ADD SWAP1 DUP2 MSTORE PUSH1 0x20 ADD PUSH0 KECCAK256 SLOAD SWAP1 POP PUSH0 PUSH2 0x2A30 DUP8 DUP4 PUSH2 0x3E76 JUMP JUMPDEST SWAP1 POP DUP3 PUSH0 ADD SLOAD DUP2 PUSH1 0x2 ADD DUP2 SWAP1 SSTORE POP DUP1 PUSH0 ADD SLOAD DUP4 PUSH1 0x1 ADD DUP2 SWAP1 SSTORE POP DUP3 PUSH0 ADD SLOAD DUP8 PUSH1 0x6 ADD PUSH0 DUP10 PUSH0 ADD SLOAD DUP2 MSTORE PUSH1 0x20 ADD SWAP1 DUP2 MSTORE PUSH1 0x20 ADD PUSH0 KECCAK256 DUP2 SWAP1 SSTORE POP POP POP JUMPDEST DUP1 DUP6 PUSH1 0x3 ADD PUSH0 DUP8 PUSH0 ADD SLOAD DUP2 MSTORE PUSH1 0x20 ADD SWAP1 DUP2 MSTORE PUSH1 0x20 ADD PUSH0 KECCAK256 PUSH0 DUP4 PUSH0 ADD SLOAD DUP2 MSTORE PUSH1 0x20 ADD SWAP1 DUP2 MSTORE PUSH1 0x20 ADD PUSH0 KECCAK256 PUSH0 DUP3 ADD SLOAD DUP2 PUSH0 ADD SSTORE PUSH1 0x1 DUP3 ADD SLOAD DUP2 PUSH1 0x1 ADD SSTORE PUSH1 0x2 DUP3 ADD SLOAD DUP2 PUSH1 0x2 ADD SSTORE PUSH1 0x3 DUP3 ADD SLOAD DUP2 PUSH1 0x3 ADD SSTORE SWAP1 POP POP DUP5 PUSH1 0x4 ADD PUSH0 DUP7 PUSH0 ADD SLOAD DUP2 MSTORE PUSH1 0x20 ADD SWAP1 DUP2 MSTORE PUSH1 0x20 ADD PUSH0 KECCAK256 PUSH0 DUP6 DUP2 MSTORE PUSH1 0x20 ADD SWAP1 DUP2 MSTORE PUSH1 0x20 ADD PUSH0 KECCAK256 PUSH0 DUP2 SLOAD DUP1 SWAP3 SWAP2 SWAP1 PUSH2 0x2AF2 SWAP1 PUSH2 0x4B54 JUMP JUMPDEST SWAP2 SWAP1 POP SSTORE POP DUP5 PUSH1 0x1 ADD PUSH0 DUP7 PUSH0 ADD SLOAD DUP2 MSTORE PUSH1 0x20 ADD SWAP1 DUP2 MSTORE PUSH1 0x20 ADD PUSH0 KECCAK256 PUSH0 DUP2 SLOAD DUP1 SWAP3 SWAP2 SWAP1 PUSH2 0x2B1D SWAP1 PUSH2 0x4B54 JUMP JUMPDEST SWAP2 SWAP1 POP SSTORE POP DUP1 PUSH1 0x3 ADD SLOAD DUP2 PUSH0 ADD SLOAD DUP7 PUSH0 ADD SLOAD PUSH32 0xED332A4769048049E081D4FE892928CFF9253E0E1C8FC2A9B48C9BA087EBA270 PUSH1 0x1 PUSH1 0x40 MLOAD PUSH2 0x2B5F SWAP2 SWAP1 PUSH2 0x4C0E JUMP JUMPDEST PUSH1 0x40 MLOAD DUP1 SWAP2 SUB SWAP1 LOG4 PUSH1 0x1 SWAP3 POP POP POP SWAP3 SWAP2 POP POP JUMP JUMPDEST PUSH0 PUSH2 0x2BA2 DUP4 PUSH1 0x4 ADD PUSH0 DUP6 PUSH0 ADD SLOAD DUP2 MSTORE PUSH1 0x20 ADD SWAP1 DUP2 MSTORE PUSH1 0x20 ADD PUSH0 KECCAK256 PUSH0 DUP5 DUP2 MSTORE PUSH1 0x20 ADD SWAP1 DUP2 MSTORE PUSH1 0x20 ADD PUSH0 KECCAK256 SLOAD PUSH2 0x3E6B JUMP JUMPDEST ISZERO SWAP1 POP SWAP3 SWAP2 POP POP JUMP JUMPDEST PUSH0 DUP1 DUP4 PUSH1 0x2 ADD PUSH0 DUP5 DUP2 MSTORE PUSH1 0x20 ADD SWAP1 DUP2 MSTORE PUSH1 0x20 ADD PUSH0 KECCAK256 SLOAD SWAP1 POP PUSH0 DUP1 SHL DUP2 EQ DUP1 ISZERO PUSH2 0x2BDB JUMPI POP PUSH2 0x2BD9 DUP5 DUP5 PUSH2 0x346D JUMP JUMPDEST ISZERO JUMPDEST ISZERO PUSH2 0x2C1D JUMPI DUP3 PUSH1 0x40 MLOAD PUSH32 0x2B5668600000000000000000000000000000000000000000000000000000000 DUP2 MSTORE PUSH1 0x4 ADD PUSH2 0x2C14 SWAP2 SWAP1 PUSH2 0x4C27 JUMP JUMPDEST PUSH1 0x40 MLOAD DUP1 SWAP2 SUB SWAP1 REVERT JUMPDEST DUP1 SWAP2 POP POP SWAP3 SWAP2 POP POP JUMP JUMPDEST PUSH0 PUSH2 0x2C32 DUP4 DUP4 PUSH2 0x2DE3 JUMP JUMPDEST PUSH2 0x2C84 JUMPI DUP3 PUSH0 ADD DUP3 SWAP1 DUP1 PUSH1 0x1 DUP2 SLOAD ADD DUP1 DUP3 SSTORE DUP1 SWAP2 POP POP PUSH1 0x1 SWAP1 SUB SWAP1 PUSH0 MSTORE PUSH1 0x20 PUSH0 KECCAK256 ADD PUSH0 SWAP1 SWAP2 SWAP1 SWAP2 SWAP1 SWAP2 POP SSTORE DUP3 PUSH0 ADD DUP1 SLOAD SWAP1 POP DUP4 PUSH1 0x1 ADD PUSH0 DUP5 DUP2 MSTORE PUSH1 0x20 ADD SWAP1 DUP2 MSTORE PUSH1 0x20 ADD PUSH0 KECCAK256 DUP2 SWAP1 SSTORE POP PUSH1 0x1 SWAP1 POP PUSH2 0x2C88 JUMP JUMPDEST PUSH0 SWAP1 POP JUMPDEST SWAP3 SWAP2 POP POP JUMP JUMPDEST PUSH1 0x60 DUP2 PUSH0 ADD DUP1 SLOAD DUP1 PUSH1 0x20 MUL PUSH1 0x20 ADD PUSH1 0x40 MLOAD SWAP1 DUP2 ADD PUSH1 0x40 MSTORE DUP1 SWAP3 SWAP2 SWAP1 DUP2 DUP2 MSTORE PUSH1 0x20 ADD DUP3 DUP1 SLOAD DUP1 ISZERO PUSH2 0x2CDB JUMPI PUSH1 0x20 MUL DUP3 ADD SWAP2 SWAP1 PUSH0 MSTORE PUSH1 0x20 PUSH0 KECCAK256 SWAP1 JUMPDEST DUP2 SLOAD DUP2 MSTORE PUSH1 0x20 ADD SWAP1 PUSH1 0x1 ADD SWAP1 DUP1 DUP4 GT PUSH2 0x2CC7 JUMPI JUMPDEST POP POP POP POP POP SWAP1 POP SWAP2 SWAP1 POP JUMP JUMPDEST PUSH0 DUP1 DUP4 PUSH1 0x1 ADD PUSH0 DUP5 DUP2 MSTORE PUSH1 0x20 ADD SWAP1 DUP2 MSTORE PUSH1 0x20 ADD PUSH0 KECCAK256 SLOAD SWAP1 POP PUSH0 DUP2 EQ PUSH2 0x2DD8 JUMPI PUSH0 PUSH1 0x1 DUP3 PUSH2 0x2D14 SWAP2 SWAP1 PUSH2 0x4C40 JUMP JUMPDEST SWAP1 POP PUSH0 PUSH1 0x1 DUP7 PUSH0 ADD DUP1 SLOAD SWAP1 POP PUSH2 0x2D2A SWAP2 SWAP1 PUSH2 0x4C40 JUMP JUMPDEST SWAP1 POP DUP1 DUP3 EQ PUSH2 0x2D90 JUMPI PUSH0 DUP7 PUSH0 ADD DUP3 DUP2 SLOAD DUP2 LT PUSH2 0x2D49 JUMPI PUSH2 0x2D48 PUSH2 0x45D6 JUMP JUMPDEST JUMPDEST SWAP1 PUSH0 MSTORE PUSH1 0x20 PUSH0 KECCAK256 ADD SLOAD SWAP1 POP DUP1 DUP8 PUSH0 ADD DUP5 DUP2 SLOAD DUP2 LT PUSH2 0x2D6A JUMPI PUSH2 0x2D69 PUSH2 0x45D6 JUMP JUMPDEST JUMPDEST SWAP1 PUSH0 MSTORE PUSH1 0x20 PUSH0 KECCAK256 ADD DUP2 SWAP1 SSTORE POP DUP4 DUP8 PUSH1 0x1 ADD PUSH0 DUP4 DUP2 MSTORE PUSH1 0x20 ADD SWAP1 DUP2 MSTORE PUSH1 0x20 ADD PUSH0 KECCAK256 DUP2 SWAP1 SSTORE POP POP JUMPDEST DUP6 PUSH0 ADD DUP1 SLOAD DUP1 PUSH2 0x2DA3 JUMPI PUSH2 0x2DA2 PUSH2 0x4C73 JUMP JUMPDEST JUMPDEST PUSH1 0x1 SWAP1 SUB DUP2 DUP2 SWAP1 PUSH0 MSTORE PUSH1 0x20 PUSH0 KECCAK256 ADD PUSH0 SWAP1 SSTORE SWAP1 SSTORE DUP6 PUSH1 0x1 ADD PUSH0 DUP7 DUP2 MSTORE PUSH1 0x20 ADD SWAP1 DUP2 MSTORE PUSH1 0x20 ADD PUSH0 KECCAK256 PUSH0 SWAP1 SSTORE PUSH1 0x1 SWAP4 POP POP POP POP PUSH2 0x2DDD JUMP JUMPDEST PUSH0 SWAP2 POP POP JUMPDEST SWAP3 SWAP2 POP POP JUMP JUMPDEST PUSH0 DUP1 DUP4 PUSH1 0x1 ADD PUSH0 DUP5 DUP2 MSTORE PUSH1 0x20 ADD SWAP1 DUP2 MSTORE PUSH1 0x20 ADD PUSH0 KECCAK256 SLOAD EQ ISZERO SWAP1 POP SWAP3 SWAP2 POP POP JUMP JUMPDEST PUSH0 DUP2 PUSH0 ADD DUP1 SLOAD SWAP1 POP SWAP1 POP SWAP2 SWAP1 POP JUMP JUMPDEST PUSH0 DUP3 PUSH0 ADD DUP3 DUP2 SLOAD DUP2 LT PUSH2 0x2E28 JUMPI PUSH2 0x2E27 PUSH2 0x45D6 JUMP JUMPDEST JUMPDEST SWAP1 PUSH0 MSTORE PUSH1 0x20 PUSH0 KECCAK256 ADD SLOAD SWAP1 POP SWAP3 SWAP2 POP POP JUMP JUMPDEST PUSH1 0x60 PUSH0 PUSH2 0x2E45 DUP4 PUSH2 0x2F5B JUMP JUMPDEST PUSH8 0xFFFFFFFFFFFFFFFF DUP2 GT ISZERO PUSH2 0x2E5E JUMPI PUSH2 0x2E5D PUSH2 0x4296 JUMP JUMPDEST JUMPDEST PUSH1 0x40 MLOAD SWAP1 DUP1 DUP3 MSTORE DUP1 PUSH1 0x20 MUL PUSH1 0x20 ADD DUP3 ADD PUSH1 0x40 MSTORE DUP1 ISZERO PUSH2 0x2E8C JUMPI DUP2 PUSH1 0x20 ADD PUSH1 0x20 DUP3 MUL DUP1 CALLDATASIZE DUP4 CALLDATACOPY DUP1 DUP3 ADD SWAP2 POP POP SWAP1 POP JUMPDEST POP SWAP1 POP PUSH2 0x2E98 DUP4 PUSH2 0x38F0 JUMP JUMPDEST ISZERO PUSH2 0x2EA6 JUMPI DUP1 SWAP2 POP POP PUSH2 0x2F56 JUMP JUMPDEST PUSH0 DUP1 DUP5 PUSH1 0x5 ADD PUSH0 DUP7 PUSH0 ADD SLOAD DUP2 MSTORE PUSH1 0x20 ADD SWAP1 DUP2 MSTORE PUSH1 0x20 ADD PUSH0 KECCAK256 SLOAD SWAP1 POP PUSH0 PUSH2 0x2ECC DUP7 DUP4 PUSH2 0x3E76 JUMP JUMPDEST SWAP1 POP DUP1 PUSH1 0x3 ADD SLOAD DUP5 DUP5 DUP1 PUSH2 0x2EDF SWAP1 PUSH2 0x4B54 JUMP JUMPDEST SWAP6 POP DUP2 MLOAD DUP2 LT PUSH2 0x2EF2 JUMPI PUSH2 0x2EF1 PUSH2 0x45D6 JUMP JUMPDEST JUMPDEST PUSH1 0x20 MUL PUSH1 0x20 ADD ADD DUP2 DUP2 MSTORE POP POP JUMPDEST PUSH2 0x2F08 DUP2 PUSH2 0x3EA4 JUMP JUMPDEST ISZERO PUSH2 0x2F4E JUMPI PUSH2 0x2F17 DUP2 DUP8 PUSH2 0x3EFD JUMP JUMPDEST SWAP1 POP DUP1 PUSH1 0x3 ADD SLOAD DUP5 DUP5 DUP1 PUSH2 0x2F2A SWAP1 PUSH2 0x4B54 JUMP JUMPDEST SWAP6 POP DUP2 MLOAD DUP2 LT PUSH2 0x2F3D JUMPI PUSH2 0x2F3C PUSH2 0x45D6 JUMP JUMPDEST JUMPDEST PUSH1 0x20 MUL PUSH1 0x20 ADD ADD DUP2 DUP2 MSTORE POP POP PUSH2 0x2EFF JUMP JUMPDEST DUP4 SWAP5 POP POP POP POP POP JUMPDEST SWAP2 SWAP1 POP JUMP JUMPDEST PUSH0 DUP2 PUSH1 0x1 ADD PUSH0 DUP4 PUSH0 ADD SLOAD DUP2 MSTORE PUSH1 0x20 ADD SWAP1 DUP2 MSTORE PUSH1 0x20 ADD PUSH0 KECCAK256 SLOAD SWAP1 POP SWAP2 SWAP1 POP JUMP JUMPDEST PUSH0 PUSH2 0x2F84 DUP3 PUSH2 0x38F0 JUMP JUMPDEST ISZERO PUSH2 0x2FC4 JUMPI PUSH1 0x40 MLOAD PUSH32 0x8C379A000000000000000000000000000000000000000000000000000000000 DUP2 MSTORE PUSH1 0x4 ADD PUSH2 0x2FBB SWAP1 PUSH2 0x4CEA JUMP JUMPDEST PUSH1 0x40 MLOAD DUP1 SWAP2 SUB SWAP1 REVERT JUMPDEST PUSH0 DUP3 PUSH1 0x5 ADD PUSH0 DUP5 PUSH0 ADD SLOAD DUP2 MSTORE PUSH1 0x20 ADD SWAP1 DUP2 MSTORE PUSH1 0x20 ADD PUSH0 KECCAK256 SLOAD SWAP1 POP PUSH0 PUSH2 0x2FE9 DUP5 DUP4 PUSH2 0x3E76 JUMP JUMPDEST SWAP1 POP PUSH0 DUP2 PUSH0 ADD SLOAD SWAP1 POP PUSH0 DUP3 PUSH1 0x3 ADD SLOAD SWAP1 POP PUSH1 0x1 DUP7 PUSH1 0x1 ADD PUSH0 DUP9 PUSH0 ADD SLOAD DUP2 MSTORE PUSH1 0x20 ADD SWAP1 DUP2 MSTORE PUSH1 0x20 ADD PUSH0 KECCAK256 SLOAD SUB PUSH2 0x304F JUMPI DUP6 PUSH1 0x5 ADD PUSH0 DUP8 PUSH0 ADD SLOAD DUP2 MSTORE PUSH1 0x20 ADD SWAP1 DUP2 MSTORE PUSH1 0x20 ADD PUSH0 KECCAK256 PUSH0 SWAP1 SSTORE DUP6 PUSH1 0x6 ADD PUSH0 DUP8 PUSH0 ADD SLOAD DUP2 MSTORE PUSH1 0x20 ADD SWAP1 DUP2 MSTORE PUSH1 0x20 ADD PUSH0 KECCAK256 PUSH0 SWAP1 SSTORE PUSH2 0x3087 JUMP JUMPDEST PUSH0 PUSH2 0x305E DUP8 DUP6 PUSH1 0x2 ADD SLOAD PUSH2 0x3E76 JUMP JUMPDEST SWAP1 POP DUP1 PUSH1 0x1 ADD PUSH0 SWAP1 SSTORE DUP1 PUSH0 ADD SLOAD DUP8 PUSH1 0x5 ADD PUSH0 DUP10 PUSH0 ADD SLOAD DUP2 MSTORE PUSH1 0x20 ADD SWAP1 DUP2 MSTORE PUSH1 0x20 ADD PUSH0 KECCAK256 DUP2 SWAP1 SSTORE POP POP JUMPDEST DUP6 PUSH1 0x3 ADD PUSH0 DUP8 PUSH0 ADD SLOAD DUP2 MSTORE PUSH1 0x20 ADD SWAP1 DUP2 MSTORE PUSH1 0x20 ADD PUSH0 KECCAK256 PUSH0 DUP6 DUP2 MSTORE PUSH1 0x20 ADD SWAP1 DUP2 MSTORE PUSH1 0x20 ADD PUSH0 KECCAK256 PUSH0 DUP1 DUP3 ADD PUSH0 SWAP1 SSTORE PUSH1 0x1 DUP3 ADD PUSH0 SWAP1 SSTORE PUSH1 0x2 DUP3 ADD PUSH0 SWAP1 SSTORE PUSH1 0x3 DUP3 ADD PUSH0 SWAP1 SSTORE POP POP PUSH0 DUP7 PUSH1 0x4 ADD PUSH0 DUP9 PUSH0 ADD SLOAD DUP2 MSTORE PUSH1 0x20 ADD SWAP1 DUP2 MSTORE PUSH1 0x20 ADD PUSH0 KECCAK256 PUSH0 DUP4 DUP2 MSTORE PUSH1 0x20 ADD SWAP1 DUP2 MSTORE PUSH1 0x20 ADD PUSH0 KECCAK256 SLOAD GT ISZERO PUSH2 0x3132 JUMPI DUP6 PUSH1 0x4 ADD PUSH0 DUP8 PUSH0 ADD SLOAD DUP2 MSTORE PUSH1 0x20 ADD SWAP1 DUP2 MSTORE PUSH1 0x20 ADD PUSH0 KECCAK256 PUSH0 DUP3 DUP2 MSTORE PUSH1 0x20 ADD SWAP1 DUP2 MSTORE PUSH1 0x20 ADD PUSH0 KECCAK256 PUSH0 DUP2 SLOAD DUP1 SWAP3 SWAP2 SWAP1 PUSH2 0x312C SWAP1 PUSH2 0x4D08 JUMP JUMPDEST SWAP2 SWAP1 POP SSTORE POP JUMPDEST DUP6 PUSH1 0x1 ADD PUSH0 DUP8 PUSH0 ADD SLOAD DUP2 MSTORE PUSH1 0x20 ADD SWAP1 DUP2 MSTORE PUSH1 0x20 ADD PUSH0 KECCAK256 PUSH0 DUP2 SLOAD DUP1 SWAP3 SWAP2 SWAP1 PUSH2 0x3158 SWAP1 PUSH2 0x4D08 JUMP JUMPDEST SWAP2 SWAP1 POP SSTORE POP DUP1 DUP3 DUP8 PUSH0 ADD SLOAD PUSH32 0x388361907DE59EFB1E62E9DF3D61E073EF9CA1059D75EE11B572CB0E05840850 PUSH0 PUSH1 0x40 MLOAD PUSH2 0x3192 SWAP2 SWAP1 PUSH2 0x4D75 JUMP JUMPDEST PUSH1 0x40 MLOAD DUP1 SWAP2 SUB SWAP1 LOG4 DUP1 SWAP5 POP POP POP POP POP SWAP2 SWAP1 POP JUMP JUMPDEST PUSH0 PUSH2 0x31B0 DUP3 PUSH2 0x38F0 JUMP JUMPDEST ISZERO PUSH2 0x31F0 JUMPI PUSH1 0x40 MLOAD PUSH32 0x8C379A000000000000000000000000000000000000000000000000000000000 DUP2 MSTORE PUSH1 0x4 ADD PUSH2 0x31E7 SWAP1 PUSH2 0x4CEA JUMP JUMPDEST PUSH1 0x40 MLOAD DUP1 SWAP2 SUB SWAP1 REVERT JUMPDEST PUSH0 DUP3 PUSH1 0x6 ADD PUSH0 DUP5 PUSH0 ADD SLOAD DUP2 MSTORE PUSH1 0x20 ADD SWAP1 DUP2 MSTORE PUSH1 0x20 ADD PUSH0 KECCAK256 SLOAD SWAP1 POP PUSH0 PUSH2 0x3215 DUP5 DUP4 PUSH2 0x3E76 JUMP JUMPDEST SWAP1 POP PUSH0 DUP2 PUSH0 ADD SLOAD SWAP1 POP PUSH0 DUP3 PUSH1 0x3 ADD SLOAD SWAP1 POP PUSH1 0x1 DUP7 PUSH1 0x1 ADD PUSH0 DUP9 PUSH0 ADD SLOAD DUP2 MSTORE PUSH1 0x20 ADD SWAP1 DUP2 MSTORE PUSH1 0x20 ADD PUSH0 KECCAK256 SLOAD SUB PUSH2 0x327B JUMPI DUP6 PUSH1 0x5 ADD PUSH0 DUP8 PUSH0 ADD SLOAD DUP2 MSTORE PUSH1 0x20 ADD SWAP1 DUP2 MSTORE PUSH1 0x20 ADD PUSH0 KECCAK256 PUSH0 SWAP1 SSTORE DUP6 PUSH1 0x6 ADD PUSH0 DUP8 PUSH0 ADD SLOAD DUP2 MSTORE PUSH1 0x20 ADD SWAP1 DUP2 MSTORE PUSH1 0x20 ADD PUSH0 KECCAK256 PUSH0 SWAP1 SSTORE PUSH2 0x32B3 JUMP JUMPDEST PUSH0 PUSH2 0x328A DUP8 DUP6 PUSH1 0x1 ADD SLOAD PUSH2 0x3E76 JUMP JUMPDEST SWAP1 POP DUP1 PUSH1 0x2 ADD PUSH0 SWAP1 SSTORE DUP1 PUSH0 ADD SLOAD DUP8 PUSH1 0x6 ADD PUSH0 DUP10 PUSH0 ADD SLOAD DUP2 MSTORE PUSH1 0x20 ADD SWAP1 DUP2 MSTORE PUSH1 0x20 ADD PUSH0 KECCAK256 DUP2 SWAP1 SSTORE POP POP JUMPDEST DUP6 PUSH1 0x3 ADD PUSH0 DUP8 PUSH0 ADD SLOAD DUP2 MSTORE PUSH1 0x20 ADD SWAP1 DUP2 MSTORE PUSH1 0x20 ADD PUSH0 KECCAK256 PUSH0 DUP6 DUP2 MSTORE PUSH1 0x20 ADD SWAP1 DUP2 MSTORE PUSH1 0x20 ADD PUSH0 KECCAK256 PUSH0 DUP1 DUP3 ADD PUSH0 SWAP1 SSTORE PUSH1 0x1 DUP3 ADD PUSH0 SWAP1 SSTORE PUSH1 0x2 DUP3 ADD PUSH0 SWAP1 SSTORE PUSH1 0x3 DUP3 ADD PUSH0 SWAP1 SSTORE POP POP PUSH0 DUP7 PUSH1 0x4 ADD PUSH0 DUP9 PUSH0 ADD SLOAD DUP2 MSTORE PUSH1 0x20 ADD SWAP1 DUP2 MSTORE PUSH1 0x20 ADD PUSH0 KECCAK256 PUSH0 DUP4 DUP2 MSTORE PUSH1 0x20 ADD SWAP1 DUP2 MSTORE PUSH1 0x20 ADD PUSH0 KECCAK256 SLOAD GT ISZERO PUSH2 0x335E JUMPI DUP6 PUSH1 0x4 ADD PUSH0 DUP8 PUSH0 ADD SLOAD DUP2 MSTORE PUSH1 0x20 ADD SWAP1 DUP2 MSTORE PUSH1 0x20 ADD PUSH0 KECCAK256 PUSH0 DUP3 DUP2 MSTORE PUSH1 0x20 ADD SWAP1 DUP2 MSTORE PUSH1 0x20 ADD PUSH0 KECCAK256 PUSH0 DUP2 SLOAD DUP1 SWAP3 SWAP2 SWAP1 PUSH2 0x3358 SWAP1 PUSH2 0x4D08 JUMP JUMPDEST SWAP2 SWAP1 POP SSTORE POP JUMPDEST DUP6 PUSH1 0x1 ADD PUSH0 DUP8 PUSH0 ADD SLOAD DUP2 MSTORE PUSH1 0x20 ADD SWAP1 DUP2 MSTORE PUSH1 0x20 ADD PUSH0 KECCAK256 PUSH0 DUP2 SLOAD DUP1 SWAP3 SWAP2 SWAP1 PUSH2 0x3384 SWAP1 PUSH2 0x4D08 JUMP JUMPDEST SWAP2 SWAP1 POP SSTORE POP DUP1 DUP3 DUP8 PUSH0 ADD SLOAD PUSH32 0x388361907DE59EFB1E62E9DF3D61E073EF9CA1059D75EE11B572CB0E05840850 PUSH1 0x1 PUSH1 0x40 MLOAD PUSH2 0x33BF SWAP2 SWAP1 PUSH2 0x4D75 JUMP JUMPDEST PUSH1 0x40 MLOAD DUP1 SWAP2 SUB SWAP1 LOG4 DUP1 SWAP5 POP POP POP POP POP SWAP2 SWAP1 POP JUMP JUMPDEST DUP1 PUSH0 ADD PUSH0 DUP2 SLOAD DUP1 SWAP3 SWAP2 SWAP1 PUSH2 0x33E6 SWAP1 PUSH2 0x4B54 JUMP JUMPDEST SWAP2 SWAP1 POP SSTORE POP POP JUMP JUMPDEST PUSH0 DUP2 DUP5 PUSH1 0x2 ADD PUSH0 DUP6 DUP2 MSTORE PUSH1 0x20 ADD SWAP1 DUP2 MSTORE PUSH1 0x20 ADD PUSH0 KECCAK256 DUP2 SWAP1 SSTORE POP PUSH2 0x341C DUP4 DUP6 PUSH0 ADD PUSH2 0x3F53 SWAP1 SWAP2 SWAP1 PUSH4 0xFFFFFFFF AND JUMP JUMPDEST SWAP1 POP SWAP4 SWAP3 POP POP POP JUMP JUMPDEST PUSH1 0x60 PUSH2 0x3432 DUP3 PUSH0 ADD PUSH2 0x3F68 JUMP JUMPDEST SWAP1 POP SWAP2 SWAP1 POP JUMP JUMPDEST PUSH0 DUP3 PUSH1 0x2 ADD PUSH0 DUP4 DUP2 MSTORE PUSH1 0x20 ADD SWAP1 DUP2 MSTORE PUSH1 0x20 ADD PUSH0 KECCAK256 PUSH0 SWAP1 SSTORE PUSH2 0x3465 DUP3 DUP5 PUSH0 ADD PUSH2 0x3F87 SWAP1 SWAP2 SWAP1 PUSH4 0xFFFFFFFF AND JUMP JUMPDEST SWAP1 POP SWAP3 SWAP2 POP POP JUMP JUMPDEST PUSH0 PUSH2 0x3483 DUP3 DUP5 PUSH0 ADD PUSH2 0x3F9C SWAP1 SWAP2 SWAP1 PUSH4 0xFFFFFFFF AND JUMP JUMPDEST SWAP1 POP SWAP3 SWAP2 POP POP JUMP JUMPDEST PUSH0 PUSH2 0x3497 DUP3 PUSH0 ADD PUSH2 0x3FB1 JUMP JUMPDEST SWAP1 POP SWAP2 SWAP1 POP JUMP JUMPDEST PUSH0 DUP1 PUSH0 PUSH2 0x34B6 DUP5 DUP7 PUSH0 ADD PUSH2 0x3FC4 SWAP1 SWAP2 SWAP1 PUSH4 0xFFFFFFFF AND JUMP JUMPDEST SWAP1 POP DUP1 DUP6 PUSH1 0x2 ADD PUSH0 DUP4 DUP2 MSTORE PUSH1 0x20 ADD SWAP1 DUP2 MSTORE PUSH1 0x20 ADD PUSH0 KECCAK256 SLOAD SWAP3 POP SWAP3 POP POP SWAP3 POP SWAP3 SWAP1 POP JUMP JUMPDEST PUSH0 DUP1 PUSH0 DUP5 PUSH1 0x2 ADD PUSH0 DUP6 DUP2 MSTORE PUSH1 0x20 ADD SWAP1 DUP2 MSTORE PUSH1 0x20 ADD PUSH0 KECCAK256 SLOAD SWAP1 POP PUSH0 DUP1 SHL DUP2 SUB PUSH2 0x3512 JUMPI PUSH2 0x3505 DUP6 DUP6 PUSH2 0x346D JUMP JUMPDEST PUSH0 DUP1 SHL SWAP3 POP SWAP3 POP POP PUSH2 0x351B JUMP JUMPDEST PUSH1 0x1 DUP2 SWAP3 POP SWAP3 POP POP JUMPDEST SWAP3 POP SWAP3 SWAP1 POP JUMP JUMPDEST PUSH0 DUP2 DUP4 LT SWAP1 POP SWAP3 SWAP2 POP POP JUMP JUMPDEST PUSH1 0x60 PUSH2 0x354B PUSH2 0x353C DUP5 PUSH2 0x3FD9 JUMP JUMPDEST PUSH2 0x3545 DUP6 PUSH2 0x3FE5 JUMP JUMPDEST DUP5 PUSH2 0x3FFC JUMP JUMPDEST DUP3 SWAP1 POP SWAP3 SWAP2 POP POP JUMP JUMPDEST PUSH0 DUP1 PUSH0 SWAP1 POP PUSH27 0x184F03E93FF9F4DAA797ED6E38ED64BF6A1F010000000000000000 DUP4 LT PUSH2 0x35B0 JUMPI PUSH27 0x184F03E93FF9F4DAA797ED6E38ED64BF6A1F010000000000000000 DUP4 DUP2 PUSH2 0x35A6 JUMPI PUSH2 0x35A5 PUSH2 0x4A3B JUMP JUMPDEST JUMPDEST DIV SWAP3 POP PUSH1 0x40 DUP2 ADD SWAP1 POP JUMPDEST PUSH14 0x4EE2D6D415B85ACEF8100000000 DUP4 LT PUSH2 0x35ED JUMPI PUSH14 0x4EE2D6D415B85ACEF8100000000 DUP4 DUP2 PUSH2 0x35E3 JUMPI PUSH2 0x35E2 PUSH2 0x4A3B JUMP JUMPDEST JUMPDEST DIV SWAP3 POP PUSH1 0x20 DUP2 ADD SWAP1 POP JUMPDEST PUSH7 0x2386F26FC10000 DUP4 LT PUSH2 0x361C JUMPI PUSH7 0x2386F26FC10000 DUP4 DUP2 PUSH2 0x3612 JUMPI PUSH2 0x3611 PUSH2 0x4A3B JUMP JUMPDEST JUMPDEST DIV SWAP3 POP PUSH1 0x10 DUP2 ADD SWAP1 POP JUMPDEST PUSH4 0x5F5E100 DUP4 LT PUSH2 0x3645 JUMPI PUSH4 0x5F5E100 DUP4 DUP2 PUSH2 0x363B JUMPI PUSH2 0x363A PUSH2 0x4A3B JUMP JUMPDEST JUMPDEST DIV SWAP3 POP PUSH1 0x8 DUP2 ADD SWAP1 POP JUMPDEST PUSH2 0x2710 DUP4 LT PUSH2 0x366A JUMPI PUSH2 0x2710 DUP4 DUP2 PUSH2 0x3660 JUMPI PUSH2 0x365F PUSH2 0x4A3B JUMP JUMPDEST JUMPDEST DIV SWAP3 POP PUSH1 0x4 DUP2 ADD SWAP1 POP JUMPDEST PUSH1 0x64 DUP4 LT PUSH2 0x368D JUMPI PUSH1 0x64 DUP4 DUP2 PUSH2 0x3683 JUMPI PUSH2 0x3682 PUSH2 0x4A3B JUMP JUMPDEST JUMPDEST DIV SWAP3 POP PUSH1 0x2 DUP2 ADD SWAP1 POP JUMPDEST PUSH1 0xA DUP4 LT PUSH2 0x369C JUMPI PUSH1 0x1 DUP2 ADD SWAP1 POP JUMPDEST DUP1 SWAP2 POP POP SWAP2 SWAP1 POP JUMP JUMPDEST PUSH0 DUP1 DUP4 PUSH1 0x2 ADD PUSH0 DUP6 PUSH0 ADD SLOAD DUP2 MSTORE PUSH1 0x20 ADD SWAP1 DUP2 MSTORE PUSH1 0x20 ADD PUSH0 KECCAK256 PUSH0 DUP2 SLOAD PUSH2 0x36C9 SWAP1 PUSH2 0x4B54 JUMP JUMPDEST SWAP2 SWAP1 POP DUP2 SWAP1 SSTORE SWAP1 POP PUSH0 DUP5 PUSH1 0x3 ADD PUSH0 DUP7 PUSH0 ADD SLOAD DUP2 MSTORE PUSH1 0x20 ADD SWAP1 DUP2 MSTORE PUSH1 0x20 ADD PUSH0 KECCAK256 PUSH0 DUP4 DUP2 MSTORE PUSH1 0x20 ADD SWAP1 DUP2 MSTORE PUSH1 0x20 ADD PUSH0 KECCAK256 SWAP1 POP DUP2 DUP2 PUSH0 ADD DUP2 SWAP1 SSTORE POP DUP4 DUP2 PUSH1 0x3 ADD DUP2 SWAP1 SSTORE POP PUSH2 0x3729 DUP6 PUSH1 0x1 ADD PUSH0 DUP8 PUSH0 ADD SLOAD DUP2 MSTORE PUSH1 0x20 ADD SWAP1 DUP2 MSTORE PUSH1 0x20 ADD PUSH0 KECCAK256 SLOAD PUSH2 0x3E6B JUMP JUMPDEST ISZERO PUSH2 0x376F JUMPI DUP1 PUSH0 ADD SLOAD DUP6 PUSH1 0x5 ADD PUSH0 DUP8 PUSH0 ADD SLOAD DUP2 MSTORE PUSH1 0x20 ADD SWAP1 DUP2 MSTORE PUSH1 0x20 ADD PUSH0 KECCAK256 DUP2 SWAP1 SSTORE POP DUP1 PUSH0 ADD SLOAD DUP6 PUSH1 0x6 ADD PUSH0 DUP8 PUSH0 ADD SLOAD DUP2 MSTORE PUSH1 0x20 ADD SWAP1 DUP2 MSTORE PUSH1 0x20 ADD PUSH0 KECCAK256 DUP2 SWAP1 SSTORE POP PUSH2 0x37CF JUMP JUMPDEST PUSH0 DUP6 PUSH1 0x5 ADD PUSH0 DUP8 PUSH0 ADD SLOAD DUP2 MSTORE PUSH1 0x20 ADD SWAP1 DUP2 MSTORE PUSH1 0x20 ADD PUSH0 KECCAK256 SLOAD SWAP1 POP PUSH0 PUSH2 0x3794 DUP8 DUP4 PUSH2 0x3E76 JUMP JUMPDEST SWAP1 POP DUP1 PUSH0 ADD SLOAD DUP4 PUSH1 0x2 ADD DUP2 SWAP1 SSTORE POP DUP3 PUSH0 ADD SLOAD DUP2 PUSH1 0x1 ADD DUP2 SWAP1 SSTORE POP DUP3 PUSH0 ADD SLOAD DUP8 PUSH1 0x5 ADD PUSH0 DUP10 PUSH0 ADD SLOAD DUP2 MSTORE PUSH1 0x20 ADD SWAP1 DUP2 MSTORE PUSH1 0x20 ADD PUSH0 KECCAK256 DUP2 SWAP1 SSTORE POP POP POP JUMPDEST DUP5 PUSH1 0x4 ADD PUSH0 DUP7 PUSH0 ADD SLOAD DUP2 MSTORE PUSH1 0x20 ADD SWAP1 DUP2 MSTORE PUSH1 0x20 ADD PUSH0 KECCAK256 PUSH0 DUP6 DUP2 MSTORE PUSH1 0x20 ADD SWAP1 DUP2 MSTORE PUSH1 0x20 ADD PUSH0 KECCAK256 PUSH0 DUP2 SLOAD DUP1 SWAP3 SWAP2 SWAP1 PUSH2 0x3804 SWAP1 PUSH2 0x4B54 JUMP JUMPDEST SWAP2 SWAP1 POP SSTORE POP DUP5 PUSH1 0x1 ADD PUSH0 DUP7 PUSH0 ADD SLOAD DUP2 MSTORE PUSH1 0x20 ADD SWAP1 DUP2 MSTORE PUSH1 0x20 ADD PUSH0 KECCAK256 PUSH0 DUP2 SLOAD DUP1 SWAP3 SWAP2 SWAP1 PUSH2 0x382F SWAP1 PUSH2 0x4B54 JUMP JUMPDEST SWAP2 SWAP1 POP SSTORE POP DUP1 PUSH1 0x3 ADD SLOAD DUP2 PUSH0 ADD SLOAD DUP7 PUSH0 ADD SLOAD PUSH32 0xED332A4769048049E081D4FE892928CFF9253E0E1C8FC2A9B48C9BA087EBA270 PUSH0 PUSH1 0x40 MLOAD PUSH2 0x3870 SWAP2 SWAP1 PUSH2 0x4C0E JUMP JUMPDEST PUSH1 0x40 MLOAD DUP1 SWAP2 SUB SWAP1 LOG4 PUSH1 0x1 SWAP3 POP POP POP SWAP3 SWAP2 POP POP JUMP JUMPDEST PUSH0 DUP1 DUP3 PUSH1 0x5 ADD PUSH0 DUP5 PUSH0 ADD SLOAD DUP2 MSTORE PUSH1 0x20 ADD SWAP1 DUP2 MSTORE PUSH1 0x20 ADD PUSH0 KECCAK256 SLOAD SWAP1 POP PUSH0 PUSH2 0x38AA DUP5 DUP4 PUSH2 0x3E76 JUMP JUMPDEST SWAP1 POP DUP1 PUSH1 0x3 ADD SLOAD SWAP3 POP POP POP SWAP2 SWAP1 POP JUMP JUMPDEST PUSH0 DUP1 DUP3 PUSH1 0x6 ADD PUSH0 DUP5 PUSH0 ADD SLOAD DUP2 MSTORE PUSH1 0x20 ADD SWAP1 DUP2 MSTORE PUSH1 0x20 ADD PUSH0 KECCAK256 SLOAD SWAP1 POP PUSH0 PUSH2 0x38E0 DUP5 DUP4 PUSH2 0x3E76 JUMP JUMPDEST SWAP1 POP DUP1 PUSH1 0x3 ADD SLOAD SWAP3 POP POP POP SWAP2 SWAP1 POP JUMP JUMPDEST PUSH0 PUSH2 0x3910 DUP3 PUSH1 0x1 ADD PUSH0 DUP5 PUSH0 ADD SLOAD DUP2 MSTORE PUSH1 0x20 ADD SWAP1 DUP2 MSTORE PUSH1 0x20 ADD PUSH0 KECCAK256 SLOAD PUSH2 0x3E6B JUMP JUMPDEST SWAP1 POP SWAP2 SWAP1 POP JUMP JUMPDEST PUSH0 DUP1 PUSH1 0x1 DUP5 PUSH1 0x1 ADD PUSH0 DUP7 PUSH0 ADD SLOAD DUP2 MSTORE PUSH1 0x20 ADD SWAP1 DUP2 MSTORE PUSH1 0x20 ADD PUSH0 KECCAK256 SLOAD SWAP1 SHR DUP4 LT ISZERO PUSH2 0x398A JUMPI PUSH2 0x395B DUP5 DUP6 PUSH1 0x5 ADD PUSH0 DUP8 PUSH0 ADD SLOAD DUP2 MSTORE PUSH1 0x20 ADD SWAP1 DUP2 MSTORE PUSH1 0x20 ADD PUSH0 KECCAK256 SLOAD PUSH2 0x3E76 JUMP JUMPDEST SWAP1 POP PUSH0 JUMPDEST DUP4 DUP2 LT ISZERO PUSH2 0x3984 JUMPI PUSH2 0x3975 DUP6 DUP4 PUSH1 0x2 ADD SLOAD PUSH2 0x3E76 JUMP JUMPDEST SWAP2 POP DUP1 DUP1 PUSH1 0x1 ADD SWAP2 POP POP PUSH2 0x395F JUMP JUMPDEST POP PUSH2 0x3A00 JUMP JUMPDEST PUSH2 0x39AA DUP5 DUP6 PUSH1 0x6 ADD PUSH0 DUP8 PUSH0 ADD SLOAD DUP2 MSTORE PUSH1 0x20 ADD SWAP1 DUP2 MSTORE PUSH1 0x20 ADD PUSH0 KECCAK256 SLOAD PUSH2 0x3E76 JUMP JUMPDEST SWAP1 POP PUSH0 PUSH1 0x1 DUP6 PUSH1 0x1 ADD PUSH0 DUP8 PUSH0 ADD SLOAD DUP2 MSTORE PUSH1 0x20 ADD SWAP1 DUP2 MSTORE PUSH1 0x20 ADD PUSH0 KECCAK256 SLOAD PUSH2 0x39D0 SWAP2 SWAP1 PUSH2 0x4C40 JUMP JUMPDEST SWAP1 POP JUMPDEST DUP4 DUP2 GT ISZERO PUSH2 0x39FE JUMPI PUSH2 0x39E9 DUP6 DUP4 PUSH1 0x1 ADD SLOAD PUSH2 0x3E76 JUMP JUMPDEST SWAP2 POP DUP1 DUP1 PUSH2 0x39F6 SWAP1 PUSH2 0x4D08 JUMP JUMPDEST SWAP2 POP POP PUSH2 0x39D3 JUMP JUMPDEST POP JUMPDEST DUP1 SWAP2 POP POP SWAP3 SWAP2 POP POP JUMP JUMPDEST PUSH0 PUSH2 0x3A15 DUP5 DUP5 PUSH2 0x4089 JUMP JUMPDEST PUSH2 0x3A1E DUP4 PUSH2 0x3E6B JUMP JUMPDEST ISZERO PUSH2 0x3A33 JUMPI PUSH2 0x3A2D DUP5 DUP4 PUSH2 0x36A5 JUMP JUMPDEST POP PUSH2 0x3BA9 JUMP JUMPDEST DUP4 PUSH1 0x1 ADD PUSH0 DUP6 PUSH0 ADD SLOAD DUP2 MSTORE PUSH1 0x20 ADD SWAP1 DUP2 MSTORE PUSH1 0x20 ADD PUSH0 KECCAK256 SLOAD DUP4 SUB PUSH2 0x3A60 JUMPI PUSH2 0x3A5A DUP5 DUP4 PUSH2 0x2941 JUMP JUMPDEST POP PUSH2 0x3BA8 JUMP JUMPDEST PUSH0 PUSH2 0x3A6B DUP6 DUP6 PUSH2 0x3917 JUMP JUMPDEST SWAP1 POP PUSH0 DUP6 PUSH1 0x2 ADD PUSH0 DUP8 PUSH0 ADD SLOAD DUP2 MSTORE PUSH1 0x20 ADD SWAP1 DUP2 MSTORE PUSH1 0x20 ADD PUSH0 KECCAK256 PUSH0 DUP2 SLOAD PUSH2 0x3A90 SWAP1 PUSH2 0x4B54 JUMP JUMPDEST SWAP2 SWAP1 POP DUP2 SWAP1 SSTORE SWAP1 POP PUSH0 PUSH1 0x40 MLOAD DUP1 PUSH1 0x80 ADD PUSH1 0x40 MSTORE DUP1 DUP4 DUP2 MSTORE PUSH1 0x20 ADD DUP5 PUSH1 0x1 ADD SLOAD DUP2 MSTORE PUSH1 0x20 ADD DUP5 PUSH0 ADD SLOAD DUP2 MSTORE PUSH1 0x20 ADD DUP7 DUP2 MSTORE POP SWAP1 POP PUSH0 PUSH2 0x3AD2 DUP9 DUP6 PUSH1 0x1 ADD SLOAD PUSH2 0x3E76 JUMP JUMPDEST SWAP1 POP DUP2 PUSH0 ADD MLOAD DUP5 PUSH1 0x1 ADD DUP2 SWAP1 SSTORE POP DUP2 PUSH0 ADD MLOAD DUP2 PUSH1 0x2 ADD DUP2 SWAP1 SSTORE POP DUP2 DUP9 PUSH1 0x3 ADD PUSH0 DUP11 PUSH0 ADD SLOAD DUP2 MSTORE PUSH1 0x20 ADD SWAP1 DUP2 MSTORE PUSH1 0x20 ADD PUSH0 KECCAK256 PUSH0 DUP5 PUSH0 ADD MLOAD DUP2 MSTORE PUSH1 0x20 ADD SWAP1 DUP2 MSTORE PUSH1 0x20 ADD PUSH0 KECCAK256 PUSH0 DUP3 ADD MLOAD DUP2 PUSH0 ADD SSTORE PUSH1 0x20 DUP3 ADD MLOAD DUP2 PUSH1 0x1 ADD SSTORE PUSH1 0x40 DUP3 ADD MLOAD DUP2 PUSH1 0x2 ADD SSTORE PUSH1 0x60 DUP3 ADD MLOAD DUP2 PUSH1 0x3 ADD SSTORE SWAP1 POP POP DUP8 PUSH1 0x4 ADD PUSH0 DUP10 PUSH0 ADD SLOAD DUP2 MSTORE PUSH1 0x20 ADD SWAP1 DUP2 MSTORE PUSH1 0x20 ADD PUSH0 KECCAK256 PUSH0 DUP8 DUP2 MSTORE PUSH1 0x20 ADD SWAP1 DUP2 MSTORE PUSH1 0x20 ADD PUSH0 KECCAK256 PUSH0 DUP2 SLOAD DUP1 SWAP3 SWAP2 SWAP1 PUSH2 0x3B73 SWAP1 PUSH2 0x4B54 JUMP JUMPDEST SWAP2 SWAP1 POP SSTORE POP DUP8 PUSH1 0x1 ADD PUSH0 DUP10 PUSH0 ADD SLOAD DUP2 MSTORE PUSH1 0x20 ADD SWAP1 DUP2 MSTORE PUSH1 0x20 ADD PUSH0 KECCAK256 PUSH0 DUP2 SLOAD DUP1 SWAP3 SWAP2 SWAP1 PUSH2 0x3B9E SWAP1 PUSH2 0x4B54 JUMP JUMPDEST SWAP2 SWAP1 POP SSTORE POP POP POP POP POP JUMPDEST JUMPDEST PUSH1 0x1 SWAP1 POP SWAP4 SWAP3 POP POP POP JUMP JUMPDEST PUSH0 PUSH2 0x3BBF DUP4 DUP4 PUSH2 0x40E7 JUMP JUMPDEST PUSH0 PUSH2 0x3BC9 DUP4 PUSH2 0x3E6B JUMP JUMPDEST ISZERO PUSH2 0x3BDE JUMPI PUSH2 0x3BD7 DUP5 PUSH2 0x2F7A JUMP JUMPDEST SWAP1 POP PUSH2 0x3D4D JUMP JUMPDEST PUSH1 0x1 DUP5 PUSH1 0x1 ADD PUSH0 DUP7 PUSH0 ADD SLOAD DUP2 MSTORE PUSH1 0x20 ADD SWAP1 DUP2 MSTORE PUSH1 0x20 ADD PUSH0 KECCAK256 SLOAD PUSH2 0x3C01 SWAP2 SWAP1 PUSH2 0x4C40 JUMP JUMPDEST DUP4 SUB PUSH2 0x3C17 JUMPI PUSH2 0x3C10 DUP5 PUSH2 0x31A6 JUMP JUMPDEST SWAP1 POP PUSH2 0x3D4C JUMP JUMPDEST PUSH0 PUSH2 0x3C22 DUP6 DUP6 PUSH2 0x3917 JUMP JUMPDEST SWAP1 POP PUSH0 DUP2 PUSH0 ADD SLOAD SWAP1 POP PUSH0 DUP3 PUSH1 0x3 ADD SLOAD SWAP1 POP PUSH0 PUSH2 0x3C42 DUP9 DUP6 PUSH1 0x1 ADD SLOAD PUSH2 0x3E76 JUMP JUMPDEST SWAP1 POP PUSH0 PUSH2 0x3C53 DUP10 DUP7 PUSH1 0x2 ADD SLOAD PUSH2 0x3E76 JUMP JUMPDEST SWAP1 POP DUP1 PUSH0 ADD SLOAD DUP3 PUSH1 0x2 ADD DUP2 SWAP1 SSTORE POP DUP2 PUSH0 ADD SLOAD DUP2 PUSH1 0x1 ADD DUP2 SWAP1 SSTORE POP DUP9 PUSH1 0x3 ADD PUSH0 DUP11 PUSH0 ADD SLOAD DUP2 MSTORE PUSH1 0x20 ADD SWAP1 DUP2 MSTORE PUSH1 0x20 ADD PUSH0 KECCAK256 PUSH0 DUP6 DUP2 MSTORE PUSH1 0x20 ADD SWAP1 DUP2 MSTORE PUSH1 0x20 ADD PUSH0 KECCAK256 PUSH0 DUP1 DUP3 ADD PUSH0 SWAP1 SSTORE PUSH1 0x1 DUP3 ADD PUSH0 SWAP1 SSTORE PUSH1 0x2 DUP3 ADD PUSH0 SWAP1 SSTORE PUSH1 0x3 DUP3 ADD PUSH0 SWAP1 SSTORE POP POP PUSH0 DUP10 PUSH1 0x4 ADD PUSH0 DUP12 PUSH0 ADD SLOAD DUP2 MSTORE PUSH1 0x20 ADD SWAP1 DUP2 MSTORE PUSH1 0x20 ADD PUSH0 KECCAK256 PUSH0 DUP6 DUP2 MSTORE PUSH1 0x20 ADD SWAP1 DUP2 MSTORE PUSH1 0x20 ADD PUSH0 KECCAK256 SLOAD GT ISZERO PUSH2 0x3D18 JUMPI DUP9 PUSH1 0x4 ADD PUSH0 DUP11 PUSH0 ADD SLOAD DUP2 MSTORE PUSH1 0x20 ADD SWAP1 DUP2 MSTORE PUSH1 0x20 ADD PUSH0 KECCAK256 PUSH0 DUP5 DUP2 MSTORE PUSH1 0x20 ADD SWAP1 DUP2 MSTORE PUSH1 0x20 ADD PUSH0 KECCAK256 PUSH0 DUP2 SLOAD DUP1 SWAP3 SWAP2 SWAP1 PUSH2 0x3D12 SWAP1 PUSH2 0x4D08 JUMP JUMPDEST SWAP2 SWAP1 POP SSTORE POP JUMPDEST DUP9 PUSH1 0x1 ADD PUSH0 DUP11 PUSH0 ADD SLOAD DUP2 MSTORE PUSH1 0x20 ADD SWAP1 DUP2 MSTORE PUSH1 0x20 ADD PUSH0 KECCAK256 PUSH0 DUP2 SLOAD DUP1 SWAP3 SWAP2 SWAP1 PUSH2 0x3D3E SWAP1 PUSH2 0x4D08 JUMP JUMPDEST SWAP2 SWAP1 POP SSTORE POP DUP3 SWAP6 POP POP POP POP POP POP JUMPDEST JUMPDEST DUP1 SWAP2 POP POP SWAP3 SWAP2 POP POP JUMP JUMPDEST PUSH0 PUSH2 0x3D62 DUP5 DUP5 PUSH2 0x40E7 JUMP JUMPDEST PUSH0 PUSH2 0x3D6D DUP6 DUP6 PUSH2 0x3917 JUMP JUMPDEST SWAP1 POP PUSH0 DUP2 PUSH1 0x3 ADD SLOAD SWAP1 POP DUP6 PUSH1 0x4 ADD PUSH0 DUP8 PUSH0 ADD SLOAD DUP2 MSTORE PUSH1 0x20 ADD SWAP1 DUP2 MSTORE PUSH1 0x20 ADD PUSH0 KECCAK256 PUSH0 DUP3 DUP2 MSTORE PUSH1 0x20 ADD SWAP1 DUP2 MSTORE PUSH1 0x20 ADD PUSH0 KECCAK256 PUSH0 DUP2 SLOAD DUP1 SWAP3 SWAP2 SWAP1 PUSH2 0x3DAC SWAP1 PUSH2 0x4D08 JUMP JUMPDEST SWAP2 SWAP1 POP SSTORE POP DUP4 DUP3 PUSH1 0x3 ADD DUP2 SWAP1 SSTORE POP DUP6 PUSH1 0x4 ADD PUSH0 DUP8 PUSH0 ADD SLOAD DUP2 MSTORE PUSH1 0x20 ADD SWAP1 DUP2 MSTORE PUSH1 0x20 ADD PUSH0 KECCAK256 PUSH0 DUP6 DUP2 MSTORE PUSH1 0x20 ADD SWAP1 DUP2 MSTORE PUSH1 0x20 ADD PUSH0 KECCAK256 PUSH0 DUP2 SLOAD DUP1 SWAP3 SWAP2 SWAP1 PUSH2 0x3DEF SWAP1 PUSH2 0x4B54 JUMP JUMPDEST SWAP2 SWAP1 POP SSTORE POP PUSH1 0x1 SWAP3 POP POP POP SWAP4 SWAP3 POP POP POP JUMP JUMPDEST PUSH0 PUSH2 0x3E0C DUP4 DUP4 PUSH2 0x40E7 JUMP JUMPDEST PUSH0 PUSH2 0x3E17 DUP5 DUP5 PUSH2 0x3917 JUMP JUMPDEST SWAP1 POP DUP1 PUSH1 0x3 ADD SLOAD SWAP2 POP POP SWAP3 SWAP2 POP POP JUMP JUMPDEST PUSH0 DUP2 MLOAD GT ISZERO PUSH2 0x3E39 JUMPI DUP1 MLOAD DUP1 DUP3 PUSH1 0x20 ADD REVERT JUMPDEST PUSH1 0x40 MLOAD PUSH32 0xD6BDA27500000000000000000000000000000000000000000000000000000000 DUP2 MSTORE PUSH1 0x4 ADD PUSH1 0x40 MLOAD DUP1 SWAP2 SUB SWAP1 REVERT JUMPDEST PUSH0 DUP1 DUP3 EQ SWAP1 POP SWAP2 SWAP1 POP JUMP JUMPDEST PUSH0 DUP3 PUSH1 0x3 ADD PUSH0 DUP5 PUSH0 ADD SLOAD DUP2 MSTORE PUSH1 0x20 ADD SWAP1 DUP2 MSTORE PUSH1 0x20 ADD PUSH0 KECCAK256 PUSH0 DUP4 DUP2 MSTORE PUSH1 0x20 ADD SWAP1 DUP2 MSTORE PUSH1 0x20 ADD PUSH0 KECCAK256 SWAP1 POP SWAP3 SWAP2 POP POP JUMP JUMPDEST PUSH0 PUSH2 0x3EB1 DUP3 PUSH0 ADD SLOAD PUSH2 0x3E6B JUMP JUMPDEST ISZERO PUSH2 0x3EE8 JUMPI PUSH1 0x40 MLOAD PUSH32 0xC4746B3200000000000000000000000000000000000000000000000000000000 DUP2 MSTORE PUSH1 0x4 ADD PUSH1 0x40 MLOAD DUP1 SWAP2 SUB SWAP1 REVERT JUMPDEST PUSH2 0x3EF5 DUP3 PUSH1 0x2 ADD SLOAD PUSH2 0x3E6B JUMP JUMPDEST ISZERO SWAP1 POP SWAP2 SWAP1 POP JUMP JUMPDEST PUSH0 PUSH2 0x3F07 DUP4 PUSH2 0x3EA4 JUMP JUMPDEST PUSH2 0x3F3D JUMPI PUSH1 0x40 MLOAD PUSH32 0xC4746B3200000000000000000000000000000000000000000000000000000000 DUP2 MSTORE PUSH1 0x4 ADD PUSH1 0x40 MLOAD DUP1 SWAP2 SUB SWAP1 REVERT JUMPDEST PUSH2 0x3F4B DUP3 DUP5 PUSH1 0x2 ADD SLOAD PUSH2 0x3E76 JUMP JUMPDEST SWAP1 POP SWAP3 SWAP2 POP POP JUMP JUMPDEST PUSH0 PUSH2 0x3F60 DUP4 PUSH0 ADD DUP4 PUSH2 0x2C27 JUMP JUMPDEST SWAP1 POP SWAP3 SWAP2 POP POP JUMP JUMPDEST PUSH1 0x60 PUSH0 PUSH2 0x3F76 DUP4 PUSH0 ADD PUSH2 0x2C8E JUMP JUMPDEST SWAP1 POP PUSH1 0x60 DUP2 SWAP1 POP DUP1 SWAP3 POP POP POP SWAP2 SWAP1 POP JUMP JUMPDEST PUSH0 PUSH2 0x3F94 DUP4 PUSH0 ADD DUP4 PUSH2 0x2CE7 JUMP JUMPDEST SWAP1 POP SWAP3 SWAP2 POP POP JUMP JUMPDEST PUSH0 PUSH2 0x3FA9 DUP4 PUSH0 ADD DUP4 PUSH2 0x2DE3 JUMP JUMPDEST SWAP1 POP SWAP3 SWAP2 POP POP JUMP JUMPDEST PUSH0 PUSH2 0x3FBD DUP3 PUSH0 ADD PUSH2 0x2E03 JUMP JUMPDEST SWAP1 POP SWAP2 SWAP1 POP JUMP JUMPDEST PUSH0 PUSH2 0x3FD1 DUP4 PUSH0 ADD DUP4 PUSH2 0x2E12 JUMP JUMPDEST SWAP1 POP SWAP3 SWAP2 POP POP JUMP JUMPDEST PUSH0 PUSH1 0x20 DUP3 ADD SWAP1 POP SWAP2 SWAP1 POP JUMP JUMPDEST PUSH0 PUSH1 0x20 DUP3 MLOAD MUL PUSH2 0x3FF4 DUP4 PUSH2 0x3FD9 JUMP JUMPDEST ADD SWAP1 POP SWAP2 SWAP1 POP JUMP JUMPDEST PUSH1 0x40 DUP4 DUP4 SUB LT PUSH2 0x4084 JUMPI PUSH0 PUSH2 0x4010 DUP5 PUSH2 0x4146 JUMP JUMPDEST SWAP1 POP PUSH0 DUP5 SWAP1 POP PUSH0 PUSH1 0x20 DUP7 ADD SWAP1 POP JUMPDEST DUP5 DUP2 LT ISZERO PUSH2 0x405D JUMPI PUSH2 0x403C PUSH2 0x4032 DUP3 PUSH2 0x4146 JUMP JUMPDEST DUP5 DUP7 PUSH4 0xFFFFFFFF AND JUMP JUMPDEST ISZERO PUSH2 0x4052 JUMPI PUSH1 0x20 DUP3 ADD SWAP2 POP PUSH2 0x4051 DUP3 DUP3 PUSH2 0x4150 JUMP JUMPDEST JUMPDEST PUSH1 0x20 DUP2 ADD SWAP1 POP PUSH2 0x401E JUMP JUMPDEST POP PUSH2 0x4068 DUP6 DUP3 PUSH2 0x4150 JUMP JUMPDEST PUSH2 0x4073 DUP6 DUP3 DUP6 PUSH2 0x3FFC JUMP JUMPDEST PUSH2 0x4081 PUSH1 0x20 DUP3 ADD DUP6 DUP6 PUSH2 0x3FFC JUMP JUMPDEST POP POP JUMPDEST POP POP POP JUMP JUMPDEST PUSH0 DUP2 LT DUP1 PUSH2 0x40AC JUMPI POP DUP2 PUSH1 0x1 ADD PUSH0 DUP4 PUSH0 ADD SLOAD DUP2 MSTORE PUSH1 0x20 ADD SWAP1 DUP2 MSTORE PUSH1 0x20 ADD PUSH0 KECCAK256 SLOAD DUP2 GT JUMPDEST ISZERO PUSH2 0x40E3 JUMPI PUSH1 0x40 MLOAD PUSH32 0x4E23D03500000000000000000000000000000000000000000000000000000000 DUP2 MSTORE PUSH1 0x4 ADD PUSH1 0x40 MLOAD DUP1 SWAP2 SUB SWAP1 REVERT JUMPDEST POP POP JUMP JUMPDEST PUSH0 DUP2 LT DUP1 PUSH2 0x410B JUMPI POP DUP2 PUSH1 0x1 ADD PUSH0 DUP4 PUSH0 ADD SLOAD DUP2 MSTORE PUSH1 0x20 ADD SWAP1 DUP2 MSTORE PUSH1 0x20 ADD PUSH0 KECCAK256 SLOAD DUP2 LT ISZERO JUMPDEST ISZERO PUSH2 0x4142 JUMPI PUSH1 0x40 MLOAD PUSH32 0x4E23D03500000000000000000000000000000000000000000000000000000000 DUP2 MSTORE PUSH1 0x4 ADD PUSH1 0x40 MLOAD DUP1 SWAP2 SUB SWAP1 REVERT JUMPDEST POP POP JUMP JUMPDEST PUSH0 DUP2 MLOAD SWAP1 POP SWAP2 SWAP1 POP JUMP JUMPDEST DUP2 MLOAD DUP2 MLOAD DUP1 DUP5 MSTORE DUP2 DUP4 MSTORE POP POP POP POP JUMP JUMPDEST PUSH0 PUSH1 0x40 MLOAD SWAP1 POP SWAP1 JUMP JUMPDEST PUSH0 DUP1 REVERT JUMPDEST PUSH0 DUP1 REVERT JUMPDEST PUSH0 DUP2 SWAP1 POP SWAP2 SWAP1 POP JUMP JUMPDEST PUSH2 0x4183 DUP2 PUSH2 0x4171 JUMP JUMPDEST DUP2 EQ PUSH2 0x418D JUMPI PUSH0 DUP1 REVERT JUMPDEST POP JUMP JUMPDEST PUSH0 DUP2 CALLDATALOAD SWAP1 POP PUSH2 0x419E DUP2 PUSH2 0x417A JUMP JUMPDEST SWAP3 SWAP2 POP POP JUMP JUMPDEST PUSH0 PUSH1 0x20 DUP3 DUP5 SUB SLT ISZERO PUSH2 0x41B9 JUMPI PUSH2 0x41B8 PUSH2 0x4169 JUMP JUMPDEST JUMPDEST PUSH0 PUSH2 0x41C6 DUP5 DUP3 DUP6 ADD PUSH2 0x4190 JUMP JUMPDEST SWAP2 POP POP SWAP3 SWAP2 POP POP JUMP JUMPDEST PUSH0 PUSH20 0xFFFFFFFFFFFFFFFFFFFFFFFFFFFFFFFFFFFFFFFF DUP3 AND SWAP1 POP SWAP2 SWAP1 POP JUMP JUMPDEST PUSH0 PUSH2 0x41F8 DUP3 PUSH2 0x41CF JUMP JUMPDEST SWAP1 POP SWAP2 SWAP1 POP JUMP JUMPDEST PUSH2 0x4208 DUP2 PUSH2 0x41EE JUMP JUMPDEST DUP3 MSTORE POP POP JUMP JUMPDEST PUSH0 PUSH1 0x20 DUP3 ADD SWAP1 POP PUSH2 0x4221 PUSH0 DUP4 ADD DUP5 PUSH2 0x41FF JUMP JUMPDEST SWAP3 SWAP2 POP POP JUMP JUMPDEST PUSH0 DUP2 ISZERO ISZERO SWAP1 POP SWAP2 SWAP1 POP JUMP JUMPDEST PUSH2 0x423B DUP2 PUSH2 0x4227 JUMP JUMPDEST DUP3 MSTORE POP POP JUMP JUMPDEST PUSH0 PUSH1 0x20 DUP3 ADD SWAP1 POP PUSH2 0x4254 PUSH0 DUP4 ADD DUP5 PUSH2 0x4232 JUMP JUMPDEST SWAP3 SWAP2 POP POP JUMP JUMPDEST PUSH2 0x4263 DUP2 PUSH2 0x4171 JUMP JUMPDEST DUP3 MSTORE POP POP JUMP JUMPDEST PUSH0 PUSH1 0x20 DUP3 ADD SWAP1 POP PUSH2 0x427C PUSH0 DUP4 ADD DUP5 PUSH2 0x425A JUMP JUMPDEST SWAP3 SWAP2 POP POP JUMP JUMPDEST PUSH0 DUP1 REVERT JUMPDEST PUSH0 PUSH1 0x1F NOT PUSH1 0x1F DUP4 ADD AND SWAP1 POP SWAP2 SWAP1 POP JUMP JUMPDEST PUSH32 0x4E487B7100000000000000000000000000000000000000000000000000000000 PUSH0 MSTORE PUSH1 0x41 PUSH1 0x4 MSTORE PUSH1 0x24 PUSH0 REVERT JUMPDEST PUSH2 0x42CC DUP3 PUSH2 0x4286 JUMP JUMPDEST DUP2 ADD DUP2 DUP2 LT PUSH8 0xFFFFFFFFFFFFFFFF DUP3 GT OR ISZERO PUSH2 0x42EB JUMPI PUSH2 0x42EA PUSH2 0x4296 JUMP JUMPDEST JUMPDEST DUP1 PUSH1 0x40 MSTORE POP POP POP JUMP JUMPDEST PUSH0 PUSH2 0x42FD PUSH2 0x4160 JUMP JUMPDEST SWAP1 POP PUSH2 0x4309 DUP3 DUP3 PUSH2 0x42C3 JUMP JUMPDEST SWAP2 SWAP1 POP JUMP JUMPDEST PUSH0 PUSH8 0xFFFFFFFFFFFFFFFF DUP3 GT ISZERO PUSH2 0x4328 JUMPI PUSH2 0x4327 PUSH2 0x4296 JUMP JUMPDEST JUMPDEST PUSH1 0x20 DUP3 MUL SWAP1 POP PUSH1 0x20 DUP2 ADD SWAP1 POP SWAP2 SWAP1 POP JUMP JUMPDEST PUSH0 DUP1 REVERT JUMPDEST PUSH0 PUSH2 0x434F PUSH2 0x434A DUP5 PUSH2 0x430E JUMP JUMPDEST PUSH2 0x42F4 JUMP JUMPDEST SWAP1 POP DUP1 DUP4 DUP3 MSTORE PUSH1 0x20 DUP3 ADD SWAP1 POP PUSH1 0x20 DUP5 MUL DUP4 ADD DUP6 DUP2 GT ISZERO PUSH2 0x4372 JUMPI PUSH2 0x4371 PUSH2 0x4339 JUMP JUMPDEST JUMPDEST DUP4 JUMPDEST DUP2 DUP2 LT ISZERO PUSH2 0x439B JUMPI DUP1 PUSH2 0x4387 DUP9 DUP3 PUSH2 0x4190 JUMP JUMPDEST DUP5 MSTORE PUSH1 0x20 DUP5 ADD SWAP4 POP POP PUSH1 0x20 DUP2 ADD SWAP1 POP PUSH2 0x4374 JUMP JUMPDEST POP POP POP SWAP4 SWAP3 POP POP POP JUMP JUMPDEST PUSH0 DUP3 PUSH1 0x1F DUP4 ADD SLT PUSH2 0x43B9 JUMPI PUSH2 0x43B8 PUSH2 0x4282 JUMP JUMPDEST JUMPDEST DUP2 CALLDATALOAD PUSH2 0x43C9 DUP5 DUP3 PUSH1 0x20 DUP7 ADD PUSH2 0x433D JUMP JUMPDEST SWAP2 POP POP SWAP3 SWAP2 POP POP JUMP JUMPDEST PUSH0 PUSH1 0x20 DUP3 DUP5 SUB SLT ISZERO PUSH2 0x43E7 JUMPI PUSH2 0x43E6 PUSH2 0x4169 JUMP JUMPDEST JUMPDEST PUSH0 DUP3 ADD CALLDATALOAD PUSH8 0xFFFFFFFFFFFFFFFF DUP2 GT ISZERO PUSH2 0x4404 JUMPI PUSH2 0x4403 PUSH2 0x416D JUMP JUMPDEST JUMPDEST PUSH2 0x4410 DUP5 DUP3 DUP6 ADD PUSH2 0x43A5 JUMP JUMPDEST SWAP2 POP POP SWAP3 SWAP2 POP POP JUMP JUMPDEST PUSH0 DUP2 MLOAD SWAP1 POP SWAP2 SWAP1 POP JUMP JUMPDEST PUSH0 DUP3 DUP3 MSTORE PUSH1 0x20 DUP3 ADD SWAP1 POP SWAP3 SWAP2 POP POP JUMP JUMPDEST PUSH0 DUP2 SWAP1 POP PUSH1 0x20 DUP3 ADD SWAP1 POP SWAP2 SWAP1 POP JUMP JUMPDEST PUSH2 0x444B DUP2 PUSH2 0x4171 JUMP JUMPDEST DUP3 MSTORE POP POP JUMP JUMPDEST PUSH0 PUSH2 0x445C DUP4 DUP4 PUSH2 0x4442 JUMP JUMPDEST PUSH1 0x20 DUP4 ADD SWAP1 POP SWAP3 SWAP2 POP POP JUMP JUMPDEST PUSH0 PUSH1 0x20 DUP3 ADD SWAP1 POP SWAP2 SWAP1 POP JUMP JUMPDEST PUSH0 PUSH2 0x447E DUP3 PUSH2 0x4419 JUMP JUMPDEST PUSH2 0x4488 DUP2 DUP6 PUSH2 0x4423 JUMP JUMPDEST SWAP4 POP PUSH2 0x4493 DUP4 PUSH2 0x4433 JUMP JUMPDEST DUP1 PUSH0 JUMPDEST DUP4 DUP2 LT ISZERO PUSH2 0x44C3 JUMPI DUP2 MLOAD PUSH2 0x44AA DUP9 DUP3 PUSH2 0x4451 JUMP JUMPDEST SWAP8 POP PUSH2 0x44B5 DUP4 PUSH2 0x4468 JUMP JUMPDEST SWAP3 POP POP PUSH1 0x1 DUP2 ADD SWAP1 POP PUSH2 0x4496 JUMP JUMPDEST POP DUP6 SWAP4 POP POP POP POP SWAP3 SWAP2 POP POP JUMP JUMPDEST PUSH0 PUSH1 0x20 DUP3 ADD SWAP1 POP DUP2 DUP2 SUB PUSH0 DUP4 ADD MSTORE PUSH2 0x44E8 DUP2 DUP5 PUSH2 0x4474 JUMP JUMPDEST SWAP1 POP SWAP3 SWAP2 POP POP JUMP JUMPDEST PUSH0 DUP2 MLOAD SWAP1 POP SWAP2 SWAP1 POP JUMP JUMPDEST PUSH0 DUP3 DUP3 MSTORE PUSH1 0x20 DUP3 ADD SWAP1 POP SWAP3 SWAP2 POP POP JUMP JUMPDEST DUP3 DUP2 DUP4 MCOPY PUSH0 DUP4 DUP4 ADD MSTORE POP POP POP JUMP JUMPDEST PUSH0 PUSH2 0x4522 DUP3 PUSH2 0x44F0 JUMP JUMPDEST PUSH2 0x452C DUP2 DUP6 PUSH2 0x44FA JUMP JUMPDEST SWAP4 POP PUSH2 0x453C DUP2 DUP6 PUSH1 0x20 DUP7 ADD PUSH2 0x450A JUMP JUMPDEST PUSH2 0x4545 DUP2 PUSH2 0x4286 JUMP JUMPDEST DUP5 ADD SWAP2 POP POP SWAP3 SWAP2 POP POP JUMP JUMPDEST PUSH0 PUSH1 0x20 DUP3 ADD SWAP1 POP DUP2 DUP2 SUB PUSH0 DUP4 ADD MSTORE PUSH2 0x4568 DUP2 DUP5 PUSH2 0x4518 JUMP JUMPDEST SWAP1 POP SWAP3 SWAP2 POP POP JUMP JUMPDEST PUSH0 PUSH2 0x457A DUP3 PUSH2 0x41CF JUMP JUMPDEST SWAP1 POP SWAP2 SWAP1 POP JUMP JUMPDEST PUSH2 0x458A DUP2 PUSH2 0x4570 JUMP JUMPDEST DUP2 EQ PUSH2 0x4594 JUMPI PUSH0 DUP1 REVERT JUMPDEST POP JUMP JUMPDEST PUSH0 DUP2 MLOAD SWAP1 POP PUSH2 0x45A5 DUP2 PUSH2 0x4581 JUMP JUMPDEST SWAP3 SWAP2 POP POP JUMP JUMPDEST PUSH0 PUSH1 0x20 DUP3 DUP5 SUB SLT ISZERO PUSH2 0x45C0 JUMPI PUSH2 0x45BF PUSH2 0x4169 JUMP JUMPDEST JUMPDEST PUSH0 PUSH2 0x45CD DUP5 DUP3 DUP6 ADD PUSH2 0x4597 JUMP JUMPDEST SWAP2 POP POP SWAP3 SWAP2 POP POP JUMP JUMPDEST PUSH32 0x4E487B7100000000000000000000000000000000000000000000000000000000 PUSH0 MSTORE PUSH1 0x32 PUSH1 0x4 MSTORE PUSH1 0x24 PUSH0 REVERT JUMPDEST PUSH0 DUP2 MLOAD SWAP1 POP SWAP2 SWAP1 POP JUMP JUMPDEST PUSH0 DUP2 SWAP1 POP SWAP3 SWAP2 POP POP JUMP JUMPDEST PUSH0 PUSH2 0x4621 DUP3 PUSH2 0x4603 JUMP JUMPDEST PUSH2 0x462B DUP2 DUP6 PUSH2 0x460D JUMP JUMPDEST SWAP4 POP PUSH2 0x463B DUP2 DUP6 PUSH1 0x20 DUP7 ADD PUSH2 0x450A JUMP JUMPDEST DUP1 DUP5 ADD SWAP2 POP POP SWAP3 SWAP2 POP POP JUMP JUMPDEST PUSH0 PUSH2 0x4652 DUP3 DUP5 PUSH2 0x4617 JUMP JUMPDEST SWAP2 POP DUP2 SWAP1 POP SWAP3 SWAP2 POP POP JUMP JUMPDEST PUSH0 PUSH1 0x40 DUP3 ADD SWAP1 POP DUP2 DUP2 SUB PUSH0 DUP4 ADD MSTORE PUSH2 0x4675 DUP2 DUP6 PUSH2 0x4518 JUMP JUMPDEST SWAP1 POP DUP2 DUP2 SUB PUSH1 0x20 DUP4 ADD MSTORE PUSH2 0x4689 DUP2 DUP5 PUSH2 0x4518 JUMP JUMPDEST SWAP1 POP SWAP4 SWAP3 POP POP POP JUMP JUMPDEST PUSH0 PUSH1 0x40 DUP3 ADD SWAP1 POP DUP2 DUP2 SUB PUSH0 DUP4 ADD MSTORE PUSH2 0x46AA DUP2 DUP6 PUSH2 0x4518 JUMP JUMPDEST SWAP1 POP PUSH2 0x46B9 PUSH1 0x20 DUP4 ADD DUP5 PUSH2 0x425A JUMP JUMPDEST SWAP4 SWAP3 POP POP POP JUMP JUMPDEST PUSH32 0x4E487B7100000000000000000000000000000000000000000000000000000000 PUSH0 MSTORE PUSH1 0x11 PUSH1 0x4 MSTORE PUSH1 0x24 PUSH0 REVERT JUMPDEST PUSH0 PUSH2 0x46F7 DUP3 PUSH2 0x4171 JUMP JUMPDEST SWAP2 POP PUSH2 0x4702 DUP4 PUSH2 0x4171 JUMP JUMPDEST SWAP3 POP DUP3 DUP3 ADD SWAP1 POP DUP1 DUP3 GT ISZERO PUSH2 0x471A JUMPI PUSH2 0x4719 PUSH2 0x46C0 JUMP JUMPDEST JUMPDEST SWAP3 SWAP2 POP POP JUMP JUMPDEST PUSH32 0x736C6963655F6F766572666C6F77000000000000000000000000000000000000 PUSH0 DUP3 ADD MSTORE POP JUMP JUMPDEST PUSH0 PUSH2 0x4754 PUSH1 0xE DUP4 PUSH2 0x44FA JUMP JUMPDEST SWAP2 POP PUSH2 0x475F DUP3 PUSH2 0x4720 JUMP JUMPDEST PUSH1 0x20 DUP3 ADD SWAP1 POP SWAP2 SWAP1 POP JUMP JUMPDEST PUSH0 PUSH1 0x20 DUP3 ADD SWAP1 POP DUP2 DUP2 SUB PUSH0 DUP4 ADD MSTORE PUSH2 0x4781 DUP2 PUSH2 0x4748 JUMP JUMPDEST SWAP1 POP SWAP2 SWAP1 POP JUMP JUMPDEST PUSH32 0x736C6963655F6F75744F66426F756E6473000000000000000000000000000000 PUSH0 DUP3 ADD MSTORE POP JUMP JUMPDEST PUSH0 PUSH2 0x47BC PUSH1 0x11 DUP4 PUSH2 0x44FA JUMP JUMPDEST SWAP2 POP PUSH2 0x47C7 DUP3 PUSH2 0x4788 JUMP JUMPDEST PUSH1 0x20 DUP3 ADD SWAP1 POP SWAP2 SWAP1 POP JUMP JUMPDEST PUSH0 PUSH1 0x20 DUP3 ADD SWAP1 POP DUP2 DUP2 SUB PUSH0 DUP4 ADD MSTORE PUSH2 0x47E9 DUP2 PUSH2 0x47B0 JUMP JUMPDEST SWAP1 POP SWAP2 SWAP1 POP JUMP JUMPDEST PUSH32 0x746F416464726573735F6F75744F66426F756E64730000000000000000000000 PUSH0 DUP3 ADD MSTORE POP JUMP JUMPDEST PUSH0 PUSH2 0x4824 PUSH1 0x15 DUP4 PUSH2 0x44FA JUMP JUMPDEST SWAP2 POP PUSH2 0x482F DUP3 PUSH2 0x47F0 JUMP JUMPDEST PUSH1 0x20 DUP3 ADD SWAP1 POP SWAP2 SWAP1 POP JUMP JUMPDEST PUSH0 PUSH1 0x20 DUP3 ADD SWAP1 POP DUP2 DUP2 SUB PUSH0 DUP4 ADD MSTORE PUSH2 0x4851 DUP2 PUSH2 0x4818 JUMP JUMPDEST SWAP1 POP SWAP2 SWAP1 POP JUMP JUMPDEST PUSH0 PUSH1 0x40 DUP3 ADD SWAP1 POP DUP2 DUP2 SUB PUSH0 DUP4 ADD MSTORE PUSH2 0x4870 DUP2 DUP6 PUSH2 0x4518 JUMP JUMPDEST SWAP1 POP PUSH2 0x487F PUSH1 0x20 DUP4 ADD DUP5 PUSH2 0x41FF JUMP JUMPDEST SWAP4 SWAP3 POP POP POP JUMP JUMPDEST PUSH32 0x746F55696E743235365F6F75744F66426F756E64730000000000000000000000 PUSH0 DUP3 ADD MSTORE POP JUMP JUMPDEST PUSH0 PUSH2 0x48BA PUSH1 0x15 DUP4 PUSH2 0x44FA JUMP JUMPDEST SWAP2 POP PUSH2 0x48C5 DUP3 PUSH2 0x4886 JUMP JUMPDEST PUSH1 0x20 DUP3 ADD SWAP1 POP SWAP2 SWAP1 POP JUMP JUMPDEST PUSH0 PUSH1 0x20 DUP3 ADD SWAP1 POP DUP2 DUP2 SUB PUSH0 DUP4 ADD MSTORE PUSH2 0x48E7 DUP2 PUSH2 0x48AE JUMP JUMPDEST SWAP1 POP SWAP2 SWAP1 POP JUMP JUMPDEST PUSH32 0x746F427974657333325F6F75744F66426F756E64730000000000000000000000 PUSH0 DUP3 ADD MSTORE POP JUMP JUMPDEST PUSH0 PUSH2 0x4922 PUSH1 0x15 DUP4 PUSH2 0x44FA JUMP JUMPDEST SWAP2 POP PUSH2 0x492D DUP3 PUSH2 0x48EE JUMP JUMPDEST PUSH1 0x20 DUP3 ADD SWAP1 POP SWAP2 SWAP1 POP JUMP JUMPDEST PUSH0 PUSH1 0x20 DUP3 ADD SWAP1 POP DUP2 DUP2 SUB PUSH0 DUP4 ADD MSTORE PUSH2 0x494F DUP2 PUSH2 0x4916 JUMP JUMPDEST SWAP1 POP SWAP2 SWAP1 POP JUMP JUMPDEST PUSH0 DUP2 SWAP1 POP SWAP2 SWAP1 POP JUMP JUMPDEST PUSH2 0x4968 DUP2 PUSH2 0x4956 JUMP JUMPDEST DUP3 MSTORE POP POP JUMP JUMPDEST PUSH0 PUSH1 0x40 DUP3 ADD SWAP1 POP DUP2 DUP2 SUB PUSH0 DUP4 ADD MSTORE PUSH2 0x4986 DUP2 DUP6 PUSH2 0x4518 JUMP JUMPDEST SWAP1 POP PUSH2 0x4995 PUSH1 0x20 DUP4 ADD DUP5 PUSH2 0x495F JUMP JUMPDEST SWAP4 SWAP3 POP POP POP JUMP JUMPDEST PUSH0 PUSH1 0x40 DUP3 ADD SWAP1 POP DUP2 DUP2 SUB PUSH0 DUP4 ADD MSTORE PUSH2 0x49B4 DUP2 DUP6 PUSH2 0x4518 JUMP JUMPDEST SWAP1 POP PUSH2 0x49C3 PUSH1 0x20 DUP4 ADD DUP5 PUSH2 0x4232 JUMP JUMPDEST SWAP4 SWAP3 POP POP POP JUMP JUMPDEST PUSH0 PUSH1 0x40 DUP3 ADD SWAP1 POP DUP2 DUP2 SUB PUSH0 DUP4 ADD MSTORE PUSH2 0x49E2 DUP2 DUP6 PUSH2 0x4518 JUMP JUMPDEST SWAP1 POP DUP2 DUP2 SUB PUSH1 0x20 DUP4 ADD MSTORE PUSH2 0x49F6 DUP2 DUP5 PUSH2 0x4474 JUMP JUMPDEST SWAP1 POP SWAP4 SWAP3 POP POP POP JUMP JUMPDEST PUSH0 PUSH1 0x60 DUP3 ADD SWAP1 POP DUP2 DUP2 SUB PUSH0 DUP4 ADD MSTORE PUSH2 0x4A17 DUP2 DUP7 PUSH2 0x4518 JUMP JUMPDEST SWAP1 POP PUSH2 0x4A26 PUSH1 0x20 DUP4 ADD DUP6 PUSH2 0x425A JUMP JUMPDEST PUSH2 0x4A33 PUSH1 0x40 DUP4 ADD DUP5 PUSH2 0x425A JUMP JUMPDEST SWAP5 SWAP4 POP POP POP POP JUMP JUMPDEST PUSH32 0x4E487B7100000000000000000000000000000000000000000000000000000000 PUSH0 MSTORE PUSH1 0x12 PUSH1 0x4 MSTORE PUSH1 0x24 PUSH0 REVERT JUMPDEST PUSH0 DUP2 MLOAD SWAP1 POP SWAP2 SWAP1 POP JUMP JUMPDEST PUSH0 DUP3 DUP3 MSTORE PUSH1 0x20 DUP3 ADD SWAP1 POP SWAP3 SWAP2 POP POP JUMP JUMPDEST PUSH0 DUP2 SWAP1 POP PUSH1 0x20 DUP3 ADD SWAP1 POP SWAP2 SWAP1 POP JUMP JUMPDEST PUSH2 0x4A9A DUP2 PUSH2 0x4956 JUMP JUMPDEST DUP3 MSTORE POP POP JUMP JUMPDEST PUSH0 PUSH2 0x4AAB DUP4 DUP4 PUSH2 0x4A91 JUMP JUMPDEST PUSH1 0x20 DUP4 ADD SWAP1 POP SWAP3 SWAP2 POP POP JUMP JUMPDEST PUSH0 PUSH1 0x20 DUP3 ADD SWAP1 POP SWAP2 SWAP1 POP JUMP JUMPDEST PUSH0 PUSH2 0x4ACD DUP3 PUSH2 0x4A68 JUMP JUMPDEST PUSH2 0x4AD7 DUP2 DUP6 PUSH2 0x4A72 JUMP JUMPDEST SWAP4 POP PUSH2 0x4AE2 DUP4 PUSH2 0x4A82 JUMP JUMPDEST DUP1 PUSH0 JUMPDEST DUP4 DUP2 LT ISZERO PUSH2 0x4B12 JUMPI DUP2 MLOAD PUSH2 0x4AF9 DUP9 DUP3 PUSH2 0x4AA0 JUMP JUMPDEST SWAP8 POP PUSH2 0x4B04 DUP4 PUSH2 0x4AB7 JUMP JUMPDEST SWAP3 POP POP PUSH1 0x1 DUP2 ADD SWAP1 POP PUSH2 0x4AE5 JUMP JUMPDEST POP DUP6 SWAP4 POP POP POP POP SWAP3 SWAP2 POP POP JUMP JUMPDEST PUSH0 PUSH1 0x40 DUP3 ADD SWAP1 POP DUP2 DUP2 SUB PUSH0 DUP4 ADD MSTORE PUSH2 0x4B37 DUP2 DUP6 PUSH2 0x4518 JUMP JUMPDEST SWAP1 POP DUP2 DUP2 SUB PUSH1 0x20 DUP4 ADD MSTORE PUSH2 0x4B4B DUP2 DUP5 PUSH2 0x4AC3 JUMP JUMPDEST SWAP1 POP SWAP4 SWAP3 POP POP POP JUMP JUMPDEST PUSH0 PUSH2 0x4B5E DUP3 PUSH2 0x4171 JUMP JUMPDEST SWAP2 POP PUSH32 0xFFFFFFFFFFFFFFFFFFFFFFFFFFFFFFFFFFFFFFFFFFFFFFFFFFFFFFFFFFFFFFFF DUP3 SUB PUSH2 0x4B90 JUMPI PUSH2 0x4B8F PUSH2 0x46C0 JUMP JUMPDEST JUMPDEST PUSH1 0x1 DUP3 ADD SWAP1 POP SWAP2 SWAP1 POP JUMP JUMPDEST PUSH32 0x4E487B7100000000000000000000000000000000000000000000000000000000 PUSH0 MSTORE PUSH1 0x21 PUSH1 0x4 MSTORE PUSH1 0x24 PUSH0 REVERT JUMPDEST PUSH1 0x4 DUP2 LT PUSH2 0x4BD9 JUMPI PUSH2 0x4BD8 PUSH2 0x4B9B JUMP JUMPDEST JUMPDEST POP JUMP JUMPDEST PUSH0 DUP2 SWAP1 POP PUSH2 0x4BE9 DUP3 PUSH2 0x4BC8 JUMP JUMPDEST SWAP2 SWAP1 POP JUMP JUMPDEST PUSH0 PUSH2 0x4BF8 DUP3 PUSH2 0x4BDC JUMP JUMPDEST SWAP1 POP SWAP2 SWAP1 POP JUMP JUMPDEST PUSH2 0x4C08 DUP2 PUSH2 0x4BEE JUMP JUMPDEST DUP3 MSTORE POP POP JUMP JUMPDEST PUSH0 PUSH1 0x20 DUP3 ADD SWAP1 POP PUSH2 0x4C21 PUSH0 DUP4 ADD DUP5 PUSH2 0x4BFF JUMP JUMPDEST SWAP3 SWAP2 POP POP JUMP JUMPDEST PUSH0 PUSH1 0x20 DUP3 ADD SWAP1 POP PUSH2 0x4C3A PUSH0 DUP4 ADD DUP5 PUSH2 0x495F JUMP JUMPDEST SWAP3 SWAP2 POP POP JUMP JUMPDEST PUSH0 PUSH2 0x4C4A DUP3 PUSH2 0x4171 JUMP JUMPDEST SWAP2 POP PUSH2 0x4C55 DUP4 PUSH2 0x4171 JUMP JUMPDEST SWAP3 POP DUP3 DUP3 SUB SWAP1 POP DUP2 DUP2 GT ISZERO PUSH2 0x4C6D JUMPI PUSH2 0x4C6C PUSH2 0x46C0 JUMP JUMPDEST JUMPDEST SWAP3 SWAP2 POP POP JUMP JUMPDEST PUSH32 0x4E487B7100000000000000000000000000000000000000000000000000000000 PUSH0 MSTORE PUSH1 0x31 PUSH1 0x4 MSTORE PUSH1 0x24 PUSH0 REVERT JUMPDEST PUSH32 0x4C696E6B65644C6973743A204C69737420697320656D70747900000000000000 PUSH0 DUP3 ADD MSTORE POP JUMP JUMPDEST PUSH0 PUSH2 0x4CD4 PUSH1 0x19 DUP4 PUSH2 0x44FA JUMP JUMPDEST SWAP2 POP PUSH2 0x4CDF DUP3 PUSH2 0x4CA0 JUMP JUMPDEST PUSH1 0x20 DUP3 ADD SWAP1 POP SWAP2 SWAP1 POP JUMP JUMPDEST PUSH0 PUSH1 0x20 DUP3 ADD SWAP1 POP DUP2 DUP2 SUB PUSH0 DUP4 ADD MSTORE PUSH2 0x4D01 DUP2 PUSH2 0x4CC8 JUMP JUMPDEST SWAP1 POP SWAP2 SWAP1 POP JUMP JUMPDEST PUSH0 PUSH2 0x4D12 DUP3 PUSH2 0x4171 JUMP JUMPDEST SWAP2 POP PUSH0 DUP3 SUB PUSH2 0x4D24 JUMPI PUSH2 0x4D23 PUSH2 0x46C0 JUMP JUMPDEST JUMPDEST PUSH1 0x1 DUP3 SUB SWAP1 POP SWAP2 SWAP1 POP JUMP JUMPDEST PUSH1 0x4 DUP2 LT PUSH2 0x4D40 JUMPI PUSH2 0x4D3F PUSH2 0x4B9B JUMP JUMPDEST JUMPDEST POP JUMP JUMPDEST PUSH0 DUP2 SWAP1 POP PUSH2 0x4D50 DUP3 PUSH2 0x4D2F JUMP JUMPDEST SWAP2 SWAP1 POP JUMP JUMPDEST PUSH0 PUSH2 0x4D5F DUP3 PUSH2 0x4D43 JUMP JUMPDEST SWAP1 POP SWAP2 SWAP1 POP JUMP JUMPDEST PUSH2 0x4D6F DUP2 PUSH2 0x4D55 JUMP JUMPDEST DUP3 MSTORE POP POP JUMP JUMPDEST PUSH0 PUSH1 0x20 DUP3 ADD SWAP1 POP PUSH2 0x4D88 PUSH0 DUP4 ADD DUP5 PUSH2 0x4D66 JUMP JUMPDEST SWAP3 SWAP2 POP POP JUMP INVALID PUSH4 0x6F6E6361 PUSH21 0x42797465732E657175616C5F6E6F6E416C69676E65 PUSH5 0x28636F6D70 PUSH2 0x7265 TIMESTAMP PUSH26 0x746573293A2073657428313A3130312C323A3130322C333A3130 CALLER 0x2C CALLVALUE GASPRICE BALANCE ADDRESS CALLER 0x29 0x2C PUSH12 0x6579733A636F6E6361744279 PUSH21 0x65732E657175616C28636F6D706172654279746573 0x29 GASPRICE KECCAK256 PUSH2 0x6674 PUSH6 0x724164644C61 PUSH20 0x74282920627974657333324C6973742E76616C75 PUSH6 0x7328293A6166 PUSH21 0x65724164644C617374282920627974657333324C69 PUSH20 0x742E73697A6528293A636F6E63617446696C6C42 PUSH26 0x7465732E657175616C28636F6D7061726546696C6C4279746573 0x29 GASPRICE KECCAK256 LOG2 PUSH5 0x6970667358 0x22 SLT KECCAK256 0xEA SWAP12 LOG3 CALLCODE 0xB5 SWAP8 0xFB MULMOD 0xD8 ORIGIN PUSH2 0x6151 CALLDATACOPY EQ ADDMOD PUSH11 0xC379ACB5A6381F3800BE4D 0x21 CALLER SWAP6 0xAA PUSH5 0x736F6C6343 STOP ADDMOD BYTE STOP CALLER "
		},
		"gasEstimates": {
			"creation": {
				"codeDepositCost": "4026000",
				"executionCost": "4604",
				"totalCost": "4030604"
			},
			"external": {
				"addressListTest()": "infinite",
				"bytesLibTest()": "infinite",
				"enumerableMapTest()": "infinite",
				"enumerableSetTest()": "infinite",
				"getEnumerableMapValue(uint256)": "infinite",
				"getString(uint256)": "infinite",
				"linkedListTest()": "infinite",
				"sort(uint256[])": "infinite",
				"staticcall(uint256)": "infinite",
				"uintListTest()": "infinite"
			}
		},
		"methodIdentifiers": {
			"addressListTest()": "2b67be6e",
			"bytesLibTest()": "56b35be2",
			"enumerableMapTest()": "97a1d90b",
			"enumerableSetTest()": "8425e23d",
			"getEnumerableMapValue(uint256)": "7430fbfb",
			"getString(uint256)": "b7c763b5",
			"linkedListTest()": "fad33df2",
			"sort(uint256[])": "9ec8b026",
			"staticcall(uint256)": "294327da",
			"uintListTest()": "87bd1316"
		}
	},
	"abi": [
		{
			"inputs": [
				{
					"internalType": "address",
					"name": "target",
					"type": "address"
				}
			],
			"name": "AddressEmptyCode",
			"type": "error"
		},
		{
			"inputs": [
				{
					"internalType": "bytes32",
					"name": "key",
					"type": "bytes32"
				}
			],
			"name": "EnumerableMapNonexistentKey",
			"type": "error"
		},
		{
			"inputs": [],
			"name": "FailedCall",
			"type": "error"
		},
		{
			"inputs": [],
			"name": "IndexOutOfBounds",
			"type": "error"
		},
		{
			"inputs": [],
			"name": "LinkedListNonexistentElement",
			"type": "error"
		},
		{
			"anonymous": false,
			"inputs": [
				{
					"indexed": true,
					"internalType": "uint256",
					"name": "version",
					"type": "uint256"
				},
				{
					"indexed": true,
					"internalType": "uint256",
					"name": "nodeId",
					"type": "uint256"
				},
				{
					"indexed": true,
					"internalType": "bytes32",
					"name": "value",
					"type": "bytes32"
				},
				{
					"indexed": false,
					"internalType": "enum LinkedList.LinkedType",
					"name": "linkedType",
					"type": "uint8"
				}
			],
			"name": "LinkedNode",
			"type": "event"
		},
		{
			"anonymous": false,
			"inputs": [
				{
					"indexed": false,
					"internalType": "string",
					"name": "desc",
					"type": "string"
				},
				{
					"indexed": false,
					"internalType": "address",
					"name": "value",
					"type": "address"
				}
			],
			"name": "PrintAddressLog",
			"type": "event"
		},
		{
			"anonymous": false,
			"inputs": [
				{
					"indexed": false,
					"internalType": "string",
					"name": "desc",
					"type": "string"
				},
				{
					"indexed": false,
					"internalType": "bool",
					"name": "data",
					"type": "bool"
				}
			],
			"name": "PrintBoolLog",
			"type": "event"
		},
		{
			"anonymous": false,
			"inputs": [
				{
					"indexed": false,
					"internalType": "string",
					"name": "desc",
					"type": "string"
				},
				{
					"indexed": false,
					"internalType": "bytes32[]",
					"name": "data",
					"type": "bytes32[]"
				}
			],
			"name": "PrintBytes32ArrayLog",
			"type": "event"
		},
		{
			"anonymous": false,
			"inputs": [
				{
					"indexed": false,
					"internalType": "string",
					"name": "desc",
					"type": "string"
				},
				{
					"indexed": false,
					"internalType": "bytes32",
					"name": "data",
					"type": "bytes32"
				}
			],
			"name": "PrintBytes32Log",
			"type": "event"
		},
		{
			"anonymous": false,
			"inputs": [
				{
					"indexed": false,
					"internalType": "string",
					"name": "desc",
					"type": "string"
				},
				{
					"indexed": false,
					"internalType": "string",
					"name": "value",
					"type": "string"
				}
			],
			"name": "PrintStringLog",
			"type": "event"
		},
		{
			"anonymous": false,
			"inputs": [
				{
					"indexed": false,
					"internalType": "string",
					"name": "desc",
					"type": "string"
				},
				{
					"indexed": false,
					"internalType": "uint256[]",
					"name": "data",
					"type": "uint256[]"
				}
			],
			"name": "PrintUint256ArrayLog",
			"type": "event"
		},
		{
			"anonymous": false,
			"inputs": [
				{
					"indexed": false,
					"internalType": "string",
					"name": "desc",
					"type": "string"
				},
				{
					"indexed": false,
					"internalType": "uint256",
					"name": "key",
					"type": "uint256"
				},
				{
					"indexed": false,
					"internalType": "uint256",
					"name": "value",
					"type": "uint256"
				}
			],
			"name": "PrintUint256KeyValueLog",
			"type": "event"
		},
		{
			"anonymous": false,
			"inputs": [
				{
					"indexed": false,
					"internalType": "string",
					"name": "desc",
					"type": "string"
				},
				{
					"indexed": false,
					"internalType": "uint256",
					"name": "data",
					"type": "uint256"
				}
			],
			"name": "PrintUint256Log",
			"type": "event"
		},
		{
			"anonymous": false,
			"inputs": [
				{
					"indexed": true,
					"internalType": "uint256",
					"name": "version",
					"type": "uint256"
				},
				{
					"indexed": true,
					"internalType": "uint256",
					"name": "nodeId",
					"type": "uint256"
				},
				{
					"indexed": true,
					"internalType": "bytes32",
					"name": "value",
					"type": "bytes32"
				},
				{
					"indexed": false,
					"internalType": "enum LinkedList.UnlinkedType",
					"name": "unlinkedType",
					"type": "uint8"
				}
			],
			"name": "UnlinkedNode",
			"type": "event"
		},
		{
			"inputs": [],
			"name": "addressListTest",
			"outputs": [
				{
					"internalType": "bool",
					"name": "",
					"type": "bool"
				}
			],
			"stateMutability": "nonpayable",
			"type": "function"
		},
		{
			"inputs": [],
			"name": "bytesLibTest",
			"outputs": [],
			"stateMutability": "nonpayable",
			"type": "function"
		},
		{
			"inputs": [],
			"name": "enumerableMapTest",
			"outputs": [],
			"stateMutability": "nonpayable",
			"type": "function"
		},
		{
			"inputs": [],
			"name": "enumerableSetTest",
			"outputs": [],
			"stateMutability": "nonpayable",
			"type": "function"
		},
		{
			"inputs": [
				{
					"internalType": "uint256",
					"name": "key",
					"type": "uint256"
				}
			],
			"name": "getEnumerableMapValue",
			"outputs": [
				{
					"internalType": "uint256",
					"name": "",
					"type": "uint256"
				}
			],
			"stateMutability": "view",
			"type": "function"
		},
		{
			"inputs": [
				{
					"internalType": "uint256",
					"name": "value",
					"type": "uint256"
				}
			],
			"name": "getString",
			"outputs": [
				{
					"internalType": "string",
					"name": "",
					"type": "string"
				}
			],
			"stateMutability": "pure",
			"type": "function"
		},
		{
			"inputs": [],
			"name": "linkedListTest",
			"outputs": [],
			"stateMutability": "nonpayable",
			"type": "function"
		},
		{
			"inputs": [
				{
					"internalType": "uint256[]",
					"name": "nums",
					"type": "uint256[]"
				}
			],
			"name": "sort",
			"outputs": [
				{
					"internalType": "uint256[]",
					"name": "",
					"type": "uint256[]"
				}
			],
			"stateMutability": "pure",
			"type": "function"
		},
		{
			"inputs": [
				{
					"internalType": "uint256",
					"name": "tokenId",
					"type": "uint256"
				}
			],
			"name": "staticcall",
			"outputs": [
				{
					"internalType": "address",
					"name": "",
					"type": "address"
				}
			],
			"stateMutability": "view",
			"type": "function"
		},
		{
			"inputs": [],
			"name": "uintListTest",
			"outputs": [],
			"stateMutability": "nonpayable",
			"type": "function"
		}
	]
}