{
	"data": {
		"bytecode": {
			"linkReferences": {},
			"object": "6080604052348015600e575f80fd5b506102438061001c5f395ff3fe608060405234801561000f575f80fd5b506004361061003f575f3560e01c806330bff947146100435780638ada066e1461004d578063fe4b84df1461006b575b5f80fd5b61004b610087565b005b61005561009f565b6040516100629190610127565b60405180910390f35b6100856004803603810190610080919061016e565b6100a7565b005b5f80815480929190610098906101c6565b9190505550565b5f8054905090565b60015f9054906101000a900460ff16156100ed576040517fd544fcb000000000000000000000000000000000000000000000000000000000815260040160405180910390fd5b805f819055506001805f6101000a81548160ff02191690831515021790555050565b5f819050919050565b6101218161010f565b82525050565b5f60208201905061013a5f830184610118565b92915050565b5f80fd5b61014d8161010f565b8114610157575f80fd5b50565b5f8135905061016881610144565b92915050565b5f6020828403121561018357610182610140565b5b5f6101908482850161015a565b91505092915050565b7f4e487b71000000000000000000000000000000000000000000000000000000005f52601160045260245ffd5b5f6101d08261010f565b91507fffffffffffffffffffffffffffffffffffffffffffffffffffffffffffffffff820361020257610201610199565b5b60018201905091905056fea264697066735822122045cf250938ada846e1c07c900a7cf8605ebbebe2bfdd03bf037eae33c87f596864736f6c634300081a0033",
			"opcodes": "PUSH1 0x80 PUSH1 0x40 MSTORE CALLVALUE DUP1 ISZERO PUSH1 0xE JUMPI PUSH0 DUP1 REVERT JUMPDEST POP PUSH2 0x243 DUP1 PUSH2 0x1C PUSH0 CODECOPY PUSH0 RETURN INVALID PUSH1 0x80 PUSH1 0x40 MSTORE CALLVALUE DUP1 ISZERO PUSH2 0xF JUMPI PUSH0 DUP1 REVERT JUMPDEST POP PUSH1 0x4 CALLDATASIZE LT PUSH2 0x3F JUMPI PUSH0 CALLDATALOAD PUSH1 0xE0 SHR DUP1 PUSH4 0x30BFF947 EQ PUSH2 0x43 JUMPI DUP1 PUSH4 0x8ADA066E EQ PUSH2 0x4D JUMPI DUP1 PUSH4 0xFE4B84DF EQ PUSH2 0x6B JUMPI JUMPDEST PUSH0 DUP1 REVERT JUMPDEST PUSH2 0x4B PUSH2 0x87 JUMP JUMPDEST STOP JUMPDEST PUSH2 0x55 PUSH2 0x9F JUMP JUMPDEST PUSH1 0x40 MLOAD PUSH2 0x62 SWAP2 SWAP1 PUSH2 0x127 JUMP JUMPDEST PUSH1 0x40 MLOAD DUP1 SWAP2 SUB SWAP1 RETURN JUMPDEST PUSH2 0x85 PUSH1 0x4 DUP1 CALLDATASIZE SUB DUP2 ADD SWAP1 PUSH2 0x80 SWAP2 SWAP1 PUSH2 0x16E JUMP JUMPDEST PUSH2 0xA7 JUMP JUMPDEST STOP JUMPDEST PUSH0 DUP1 DUP2 SLOAD DUP1 SWAP3 SWAP2 SWAP1 PUSH2 0x98 SWAP1 PUSH2 0x1C6 JUMP JUMPDEST SWAP2 SWAP1 POP SSTORE POP JUMP JUMPDEST PUSH0 DUP1 SLOAD SWAP1 POP SWAP1 JUMP JUMPDEST PUSH1 0x1 PUSH0 SWAP1 SLOAD SWAP1 PUSH2 0x100 EXP SWAP1 DIV PUSH1 0xFF AND ISZERO PUSH2 0xED JUMPI PUSH1 0x40 MLOAD PUSH32 0xD544FCB000000000000000000000000000000000000000000000000000000000 DUP2 MSTORE PUSH1 0x4 ADD PUSH1 0x40 MLOAD DUP1 SWAP2 SUB SWAP1 REVERT JUMPDEST DUP1 PUSH0 DUP2 SWAP1 SSTORE POP PUSH1 0x1 DUP1 PUSH0 PUSH2 0x100 EXP DUP2 SLOAD DUP2 PUSH1 0xFF MUL NOT AND SWAP1 DUP4 ISZERO ISZERO MUL OR SWAP1 SSTORE POP POP JUMP JUMPDEST PUSH0 DUP2 SWAP1 POP SWAP2 SWAP1 POP JUMP JUMPDEST PUSH2 0x121 DUP2 PUSH2 0x10F JUMP JUMPDEST DUP3 MSTORE POP POP JUMP JUMPDEST PUSH0 PUSH1 0x20 DUP3 ADD SWAP1 POP PUSH2 0x13A PUSH0 DUP4 ADD DUP5 PUSH2 0x118 JUMP JUMPDEST SWAP3 SWAP2 POP POP JUMP JUMPDEST PUSH0 DUP1 REVERT JUMPDEST PUSH2 0x14D DUP2 PUSH2 0x10F JUMP JUMPDEST DUP2 EQ PUSH2 0x157 JUMPI PUSH0 DUP1 REVERT JUMPDEST POP JUMP JUMPDEST PUSH0 DUP2 CALLDATALOAD SWAP1 POP PUSH2 0x168 DUP2 PUSH2 0x144 JUMP JUMPDEST SWAP3 SWAP2 POP POP JUMP JUMPDEST PUSH0 PUSH1 0x20 DUP3 DUP5 SUB SLT ISZERO PUSH2 0x183 JUMPI PUSH2 0x182 PUSH2 0x140 JUMP JUMPDEST JUMPDEST PUSH0 PUSH2 0x190 DUP5 DUP3 DUP6 ADD PUSH2 0x15A JUMP JUMPDEST SWAP2 POP POP SWAP3 SWAP2 POP POP JUMP JUMPDEST PUSH32 0x4E487B7100000000000000000000000000000000000000000000000000000000 PUSH0 MSTORE PUSH1 0x11 PUSH1 0x4 MSTORE PUSH1 0x24 PUSH0 REVERT JUMPDEST PUSH0 PUSH2 0x1D0 DUP3 PUSH2 0x10F JUMP JUMPDEST SWAP2 POP PUSH32 0xFFFFFFFFFFFFFFFFFFFFFFFFFFFFFFFFFFFFFFFFFFFFFFFFFFFFFFFFFFFFFFFF DUP3 SUB PUSH2 0x202 JUMPI PUSH2 0x201 PUSH2 0x199 JUMP JUMPDEST JUMPDEST PUSH1 0x1 DUP3 ADD SWAP1 POP SWAP2 SWAP1 POP JUMP INVALID LOG2 PUSH5 0x6970667358 0x22 SLT KECCAK256 GASLIMIT 0xCF 0x25 MULMOD CODESIZE 0xAD 0xA8 CHAINID 0xE1 0xC0 PUSH29 0x900A7CF8605EBBEBE2BFDD03BF037EAE33C87F596864736F6C63430008 BYTE STOP CALLER "
		},
		"gasEstimates": {
			"creation": {
				"codeDepositCost": "115800",
				"executionCost": "163",
				"totalCost": "115963"
			},
			"external": {
				"getCounter()": "2432",
				"increa()": "24475",
				"initialize(uint256)": "48957"
			}
		},
		"methodIdentifiers": {
			"getCounter()": "8ada066e",
			"increa()": "30bff947",
			"initialize(uint256)": "fe4b84df"
		}
	},
	"abi": [
		{
			"inputs": [],
			"name": "InitailizerCallRepeat",
			"type": "error"
		},
		{
			"inputs": [],
			"name": "getCounter",
			"outputs": [
				{
					"internalType": "uint256",
					"name": "",
					"type": "uint256"
				}
			],
			"stateMutability": "view",
			"type": "function"
		},
		{
			"inputs": [],
			"name": "increa",
			"outputs": [],
			"stateMutability": "nonpayable",
			"type": "function"
		},
		{
			"inputs": [
				{
					"internalType": "uint256",
					"name": "value",
					"type": "uint256"
				}
			],
			"name": "initialize",
			"outputs": [],
			"stateMutability": "nonpayable",
			"type": "function"
		}
	]
}