{
	"data": {
		"bytecode": {
			"linkReferences": {},
			"object": "6080604052348015600e575f80fd5b506110b88061001c5f395ff3fe608060405234801561000f575f80fd5b5060043610610086575f3560e01c80637c8769cb116100595780637c8769cb146101105780637e72d7981461012c57806390c278c51461014a578063ec29a2841461017a57610086565b8063198bfd3e1461008a5780635fae9c99146100a8578063617dc8ac146100d85780637c52e325146100f4575b5f80fd5b610092610198565b60405161009f9190610bdd565b60405180910390f35b6100c260048036038101906100bd9190610c5b565b610227565b6040516100cf9190610bdd565b60405180910390f35b6100f260048036038101906100ed9190610c99565b6104b9565b005b61010e60048036038101906101099190610c99565b610651565b005b61012a60048036038101906101259190610c99565b6107ea565b005b6101346108a7565b6040516101419190610bdd565b60405180910390f35b610164600480360381019061015f9190610cf7565b610942565b6040516101719190610bdd565b60405180910390f35b6101826109de565b60405161018f9190610bdd565b60405180910390f35b60605f6040516024016040516020818303038152906040527f20965255000000000000000000000000000000000000000000000000000000007bffffffffffffffffffffffffffffffffffffffffffffffffffffffff19166020820180517bffffffffffffffffffffffffffffffffffffffffffffffffffffffff838183161783525050505090508091505090565b6060610254336040518060600160405280602e8152602001611034602e9139610a7990919063ffffffff16565b5f634f1ef28660e01b90506102a9816040516020016102739190610d6d565b60405160208183030381529060405260405180606001604052806026815260200161100e60269139610ab690919063ffffffff16565b5f600f6040516024016102bc9190610d96565b6040516020818303038152906040527ffe4b84df000000000000000000000000000000000000000000000000000000007bffffffffffffffffffffffffffffffffffffffffffffffffffffffff19166020820180517bffffffffffffffffffffffffffffffffffffffffffffffffffffffff838183161783525050505090505f848260405160240161034f929190610dbe565b6040516020818303038152906040527f6af81271000000000000000000000000000000000000000000000000000000007bffffffffffffffffffffffffffffffffffffffffffffffffffffffff19166020820180517bffffffffffffffffffffffffffffffffffffffffffffffffffffffff838183161783525050505090505f808773ffffffffffffffffffffffffffffffffffffffff16836040516103f59190610e26565b5f604051808303815f865af19150503d805f811461042e576040519150601f19603f3d011682016040523d82523d5f602084013e610433565b606091505b5091509150610480826040518060400160405280601e81526020017f747267657255706772616465546f416e6443616c6c20737563636573733a0000815250610af390919063ffffffff16565b6104ab8160405180606001604052806021815260200161106260219139610ab690919063ffffffff16565b829550505050505092915050565b5f6040516024016040516020818303038152906040527f20965255000000000000000000000000000000000000000000000000000000007bffffffffffffffffffffffffffffffffffffffffffffffffffffffff19166020820180517bffffffffffffffffffffffffffffffffffffffffffffffffffffffff838183161783525050505090505f808373ffffffffffffffffffffffffffffffffffffffff16836040516105669190610e26565b5f60405180830381855af49150503d805f811461059e576040519150601f19603f3d011682016040523d82523d5f602084013e6105a3565b606091505b50915091506105f0826040518060400160405280601281526020017f63616c6c50726f787920737563636573733a0000000000000000000000000000815250610af390919063ffffffff16565b61064b818060200190518101906106079190610e50565b6040518060400160405280601581526020017f63616c6c50726f787920726573756c74446174613a0000000000000000000000815250610b3090919063ffffffff16565b50505050565b5f6040516024016040516020818303038152906040527f20965255000000000000000000000000000000000000000000000000000000007bffffffffffffffffffffffffffffffffffffffffffffffffffffffff19166020820180517bffffffffffffffffffffffffffffffffffffffffffffffffffffffff838183161783525050505090505f808373ffffffffffffffffffffffffffffffffffffffff16836040516106fe9190610e26565b5f604051808303815f865af19150503d805f8114610737576040519150601f19603f3d011682016040523d82523d5f602084013e61073c565b606091505b5091509150610789826040518060400160405280601281526020017f63616c6c50726f787920737563636573733a0000000000000000000000000000815250610af390919063ffffffff16565b6107e4818060200190518101906107a09190610e50565b6040518060400160405280601581526020017f63616c6c50726f787920726573756c74446174613a0000000000000000000000815250610b3090919063ffffffff16565b50505050565b5f8173ffffffffffffffffffffffffffffffffffffffff1663209652556040518163ffffffff1660e01b81526004016020604051808303815f875af1158015610835573d5f803e3d5ffd5b505050506040513d601f19601f820116820180604052508101906108599190610e50565b90506108a3816040518060400160405280601581526020017f63616c6c50726f787920726573756c74446174613a0000000000000000000000815250610b3090919063ffffffff16565b5050565b60605f60086040516024016108bc9190610ec9565b6040516020818303038152906040527f55241077000000000000000000000000000000000000000000000000000000007bffffffffffffffffffffffffffffffffffffffffffffffffffffffff19166020820180517bffffffffffffffffffffffffffffffffffffffffffffffffffffffff838183161783525050505090508091505090565b60605f826040516024016109569190610d96565b6040516020818303038152906040527ffe4b84df000000000000000000000000000000000000000000000000000000007bffffffffffffffffffffffffffffffffffffffffffffffffffffffff19166020820180517bffffffffffffffffffffffffffffffffffffffffffffffffffffffff8381831617835250505050905080915050919050565b60605f60086040516024016109f39190610ec9565b6040516020818303038152906040527ffe4b84df000000000000000000000000000000000000000000000000000000007bffffffffffffffffffffffffffffffffffffffffffffffffffffffff19166020820180517bffffffffffffffffffffffffffffffffffffffffffffffffffffffff838183161783525050505090508091505090565b7f7700ee2a2783c555d55a6d24309c75ed5612bd3dedc5272d3219b930694eba448282604051610aaa929190610f34565b60405180910390a15050565b7f38510722cca54c7525003469aff2983da6aa6aaa7dec66f217775d1de381a51a8282604051610ae7929190610f62565b60405180910390a15050565b7f554b0a22792e0cc5201e915b6e42d3cf18a8d15c3d1984da155e6c591b12bb6d8282604051610b24929190610fb1565b60405180910390a15050565b7fe065c143ab819e9eeee7bb1926a4c1354ec7fe3492ded34510cfff0e78e7b8be8282604051610b61929190610fdf565b60405180910390a15050565b5f81519050919050565b5f82825260208201905092915050565b8281835e5f83830152505050565b5f601f19601f8301169050919050565b5f610baf82610b6d565b610bb98185610b77565b9350610bc9818560208601610b87565b610bd281610b95565b840191505092915050565b5f6020820190508181035f830152610bf58184610ba5565b905092915050565b5f80fd5b5f73ffffffffffffffffffffffffffffffffffffffff82169050919050565b5f610c2a82610c01565b9050919050565b610c3a81610c20565b8114610c44575f80fd5b50565b5f81359050610c5581610c31565b92915050565b5f8060408385031215610c7157610c70610bfd565b5b5f610c7e85828601610c47565b9250506020610c8f85828601610c47565b9150509250929050565b5f60208284031215610cae57610cad610bfd565b5b5f610cbb84828501610c47565b91505092915050565b5f819050919050565b610cd681610cc4565b8114610ce0575f80fd5b50565b5f81359050610cf181610ccd565b92915050565b5f60208284031215610d0c57610d0b610bfd565b5b5f610d1984828501610ce3565b91505092915050565b5f7fffffffff0000000000000000000000000000000000000000000000000000000082169050919050565b5f819050919050565b610d67610d6282610d22565b610d4d565b82525050565b5f610d788284610d56565b60048201915081905092915050565b610d9081610cc4565b82525050565b5f602082019050610da95f830184610d87565b92915050565b610db881610c20565b82525050565b5f604082019050610dd15f830185610daf565b8181036020830152610de38184610ba5565b90509392505050565b5f81905092915050565b5f610e0082610b6d565b610e0a8185610dec565b9350610e1a818560208601610b87565b80840191505092915050565b5f610e318284610df6565b915081905092915050565b5f81519050610e4a81610ccd565b92915050565b5f60208284031215610e6557610e64610bfd565b5b5f610e7284828501610e3c565b91505092915050565b5f819050919050565b5f60ff82169050919050565b5f819050919050565b5f610eb3610eae610ea984610e7b565b610e90565b610e84565b9050919050565b610ec381610e99565b82525050565b5f602082019050610edc5f830184610eba565b92915050565b5f81519050919050565b5f82825260208201905092915050565b5f610f0682610ee2565b610f108185610eec565b9350610f20818560208601610b87565b610f2981610b95565b840191505092915050565b5f6040820190508181035f830152610f4c8185610efc565b9050610f5b6020830184610daf565b9392505050565b5f6040820190508181035f830152610f7a8185610efc565b90508181036020830152610f8e8184610efc565b90509392505050565b5f8115159050919050565b610fab81610f97565b82525050565b5f6040820190508181035f830152610fc98185610efc565b9050610fd86020830184610fa2565b9392505050565b5f6040820190508181035f830152610ff78185610efc565b90506110066020830184610d87565b939250505056fe747267657255706772616465546f416e6443616c6c207570677261646553656c6563746f723a4d6574686f645369676e20747267657255706772616465546f416e6443616c6c28292c6d73672e73656e6465723a747267657255706772616465546f416e6443616c6c20726573756c74446174613aa2646970667358221220b759620532c588ba1a5973cacb5721ea2f0bcd363d3b25718959821347f4e9de64736f6c634300081a0033",
			"opcodes": "PUSH1 0x80 PUSH1 0x40 MSTORE CALLVALUE DUP1 ISZERO PUSH1 0xE JUMPI PUSH0 DUP1 REVERT JUMPDEST POP PUSH2 0x10B8 DUP1 PUSH2 0x1C PUSH0 CODECOPY PUSH0 RETURN INVALID PUSH1 0x80 PUSH1 0x40 MSTORE CALLVALUE DUP1 ISZERO PUSH2 0xF JUMPI PUSH0 DUP1 REVERT JUMPDEST POP PUSH1 0x4 CALLDATASIZE LT PUSH2 0x86 JUMPI PUSH0 CALLDATALOAD PUSH1 0xE0 SHR DUP1 PUSH4 0x7C8769CB GT PUSH2 0x59 JUMPI DUP1 PUSH4 0x7C8769CB EQ PUSH2 0x110 JUMPI DUP1 PUSH4 0x7E72D798 EQ PUSH2 0x12C JUMPI DUP1 PUSH4 0x90C278C5 EQ PUSH2 0x14A JUMPI DUP1 PUSH4 0xEC29A284 EQ PUSH2 0x17A JUMPI PUSH2 0x86 JUMP JUMPDEST DUP1 PUSH4 0x198BFD3E EQ PUSH2 0x8A JUMPI DUP1 PUSH4 0x5FAE9C99 EQ PUSH2 0xA8 JUMPI DUP1 PUSH4 0x617DC8AC EQ PUSH2 0xD8 JUMPI DUP1 PUSH4 0x7C52E325 EQ PUSH2 0xF4 JUMPI JUMPDEST PUSH0 DUP1 REVERT JUMPDEST PUSH2 0x92 PUSH2 0x198 JUMP JUMPDEST PUSH1 0x40 MLOAD PUSH2 0x9F SWAP2 SWAP1 PUSH2 0xBDD JUMP JUMPDEST PUSH1 0x40 MLOAD DUP1 SWAP2 SUB SWAP1 RETURN JUMPDEST PUSH2 0xC2 PUSH1 0x4 DUP1 CALLDATASIZE SUB DUP2 ADD SWAP1 PUSH2 0xBD SWAP2 SWAP1 PUSH2 0xC5B JUMP JUMPDEST PUSH2 0x227 JUMP JUMPDEST PUSH1 0x40 MLOAD PUSH2 0xCF SWAP2 SWAP1 PUSH2 0xBDD JUMP JUMPDEST PUSH1 0x40 MLOAD DUP1 SWAP2 SUB SWAP1 RETURN JUMPDEST PUSH2 0xF2 PUSH1 0x4 DUP1 CALLDATASIZE SUB DUP2 ADD SWAP1 PUSH2 0xED SWAP2 SWAP1 PUSH2 0xC99 JUMP JUMPDEST PUSH2 0x4B9 JUMP JUMPDEST STOP JUMPDEST PUSH2 0x10E PUSH1 0x4 DUP1 CALLDATASIZE SUB DUP2 ADD SWAP1 PUSH2 0x109 SWAP2 SWAP1 PUSH2 0xC99 JUMP JUMPDEST PUSH2 0x651 JUMP JUMPDEST STOP JUMPDEST PUSH2 0x12A PUSH1 0x4 DUP1 CALLDATASIZE SUB DUP2 ADD SWAP1 PUSH2 0x125 SWAP2 SWAP1 PUSH2 0xC99 JUMP JUMPDEST PUSH2 0x7EA JUMP JUMPDEST STOP JUMPDEST PUSH2 0x134 PUSH2 0x8A7 JUMP JUMPDEST PUSH1 0x40 MLOAD PUSH2 0x141 SWAP2 SWAP1 PUSH2 0xBDD JUMP JUMPDEST PUSH1 0x40 MLOAD DUP1 SWAP2 SUB SWAP1 RETURN JUMPDEST PUSH2 0x164 PUSH1 0x4 DUP1 CALLDATASIZE SUB DUP2 ADD SWAP1 PUSH2 0x15F SWAP2 SWAP1 PUSH2 0xCF7 JUMP JUMPDEST PUSH2 0x942 JUMP JUMPDEST PUSH1 0x40 MLOAD PUSH2 0x171 SWAP2 SWAP1 PUSH2 0xBDD JUMP JUMPDEST PUSH1 0x40 MLOAD DUP1 SWAP2 SUB SWAP1 RETURN JUMPDEST PUSH2 0x182 PUSH2 0x9DE JUMP JUMPDEST PUSH1 0x40 MLOAD PUSH2 0x18F SWAP2 SWAP1 PUSH2 0xBDD JUMP JUMPDEST PUSH1 0x40 MLOAD DUP1 SWAP2 SUB SWAP1 RETURN JUMPDEST PUSH1 0x60 PUSH0 PUSH1 0x40 MLOAD PUSH1 0x24 ADD PUSH1 0x40 MLOAD PUSH1 0x20 DUP2 DUP4 SUB SUB DUP2 MSTORE SWAP1 PUSH1 0x40 MSTORE PUSH32 0x2096525500000000000000000000000000000000000000000000000000000000 PUSH28 0xFFFFFFFFFFFFFFFFFFFFFFFFFFFFFFFFFFFFFFFFFFFFFFFFFFFFFFFF NOT AND PUSH1 0x20 DUP3 ADD DUP1 MLOAD PUSH28 0xFFFFFFFFFFFFFFFFFFFFFFFFFFFFFFFFFFFFFFFFFFFFFFFFFFFFFFFF DUP4 DUP2 DUP4 AND OR DUP4 MSTORE POP POP POP POP SWAP1 POP DUP1 SWAP2 POP POP SWAP1 JUMP JUMPDEST PUSH1 0x60 PUSH2 0x254 CALLER PUSH1 0x40 MLOAD DUP1 PUSH1 0x60 ADD PUSH1 0x40 MSTORE DUP1 PUSH1 0x2E DUP2 MSTORE PUSH1 0x20 ADD PUSH2 0x1034 PUSH1 0x2E SWAP2 CODECOPY PUSH2 0xA79 SWAP1 SWAP2 SWAP1 PUSH4 0xFFFFFFFF AND JUMP JUMPDEST PUSH0 PUSH4 0x4F1EF286 PUSH1 0xE0 SHL SWAP1 POP PUSH2 0x2A9 DUP2 PUSH1 0x40 MLOAD PUSH1 0x20 ADD PUSH2 0x273 SWAP2 SWAP1 PUSH2 0xD6D JUMP JUMPDEST PUSH1 0x40 MLOAD PUSH1 0x20 DUP2 DUP4 SUB SUB DUP2 MSTORE SWAP1 PUSH1 0x40 MSTORE PUSH1 0x40 MLOAD DUP1 PUSH1 0x60 ADD PUSH1 0x40 MSTORE DUP1 PUSH1 0x26 DUP2 MSTORE PUSH1 0x20 ADD PUSH2 0x100E PUSH1 0x26 SWAP2 CODECOPY PUSH2 0xAB6 SWAP1 SWAP2 SWAP1 PUSH4 0xFFFFFFFF AND JUMP JUMPDEST PUSH0 PUSH1 0xF PUSH1 0x40 MLOAD PUSH1 0x24 ADD PUSH2 0x2BC SWAP2 SWAP1 PUSH2 0xD96 JUMP JUMPDEST PUSH1 0x40 MLOAD PUSH1 0x20 DUP2 DUP4 SUB SUB DUP2 MSTORE SWAP1 PUSH1 0x40 MSTORE PUSH32 0xFE4B84DF00000000000000000000000000000000000000000000000000000000 PUSH28 0xFFFFFFFFFFFFFFFFFFFFFFFFFFFFFFFFFFFFFFFFFFFFFFFFFFFFFFFF NOT AND PUSH1 0x20 DUP3 ADD DUP1 MLOAD PUSH28 0xFFFFFFFFFFFFFFFFFFFFFFFFFFFFFFFFFFFFFFFFFFFFFFFFFFFFFFFF DUP4 DUP2 DUP4 AND OR DUP4 MSTORE POP POP POP POP SWAP1 POP PUSH0 DUP5 DUP3 PUSH1 0x40 MLOAD PUSH1 0x24 ADD PUSH2 0x34F SWAP3 SWAP2 SWAP1 PUSH2 0xDBE JUMP JUMPDEST PUSH1 0x40 MLOAD PUSH1 0x20 DUP2 DUP4 SUB SUB DUP2 MSTORE SWAP1 PUSH1 0x40 MSTORE PUSH32 0x6AF8127100000000000000000000000000000000000000000000000000000000 PUSH28 0xFFFFFFFFFFFFFFFFFFFFFFFFFFFFFFFFFFFFFFFFFFFFFFFFFFFFFFFF NOT AND PUSH1 0x20 DUP3 ADD DUP1 MLOAD PUSH28 0xFFFFFFFFFFFFFFFFFFFFFFFFFFFFFFFFFFFFFFFFFFFFFFFFFFFFFFFF DUP4 DUP2 DUP4 AND OR DUP4 MSTORE POP POP POP POP SWAP1 POP PUSH0 DUP1 DUP8 PUSH20 0xFFFFFFFFFFFFFFFFFFFFFFFFFFFFFFFFFFFFFFFF AND DUP4 PUSH1 0x40 MLOAD PUSH2 0x3F5 SWAP2 SWAP1 PUSH2 0xE26 JUMP JUMPDEST PUSH0 PUSH1 0x40 MLOAD DUP1 DUP4 SUB DUP2 PUSH0 DUP7 GAS CALL SWAP2 POP POP RETURNDATASIZE DUP1 PUSH0 DUP2 EQ PUSH2 0x42E JUMPI PUSH1 0x40 MLOAD SWAP2 POP PUSH1 0x1F NOT PUSH1 0x3F RETURNDATASIZE ADD AND DUP3 ADD PUSH1 0x40 MSTORE RETURNDATASIZE DUP3 MSTORE RETURNDATASIZE PUSH0 PUSH1 0x20 DUP5 ADD RETURNDATACOPY PUSH2 0x433 JUMP JUMPDEST PUSH1 0x60 SWAP2 POP JUMPDEST POP SWAP2 POP SWAP2 POP PUSH2 0x480 DUP3 PUSH1 0x40 MLOAD DUP1 PUSH1 0x40 ADD PUSH1 0x40 MSTORE DUP1 PUSH1 0x1E DUP2 MSTORE PUSH1 0x20 ADD PUSH32 0x747267657255706772616465546F416E6443616C6C20737563636573733A0000 DUP2 MSTORE POP PUSH2 0xAF3 SWAP1 SWAP2 SWAP1 PUSH4 0xFFFFFFFF AND JUMP JUMPDEST PUSH2 0x4AB DUP2 PUSH1 0x40 MLOAD DUP1 PUSH1 0x60 ADD PUSH1 0x40 MSTORE DUP1 PUSH1 0x21 DUP2 MSTORE PUSH1 0x20 ADD PUSH2 0x1062 PUSH1 0x21 SWAP2 CODECOPY PUSH2 0xAB6 SWAP1 SWAP2 SWAP1 PUSH4 0xFFFFFFFF AND JUMP JUMPDEST DUP3 SWAP6 POP POP POP POP POP POP SWAP3 SWAP2 POP POP JUMP JUMPDEST PUSH0 PUSH1 0x40 MLOAD PUSH1 0x24 ADD PUSH1 0x40 MLOAD PUSH1 0x20 DUP2 DUP4 SUB SUB DUP2 MSTORE SWAP1 PUSH1 0x40 MSTORE PUSH32 0x2096525500000000000000000000000000000000000000000000000000000000 PUSH28 0xFFFFFFFFFFFFFFFFFFFFFFFFFFFFFFFFFFFFFFFFFFFFFFFFFFFFFFFF NOT AND PUSH1 0x20 DUP3 ADD DUP1 MLOAD PUSH28 0xFFFFFFFFFFFFFFFFFFFFFFFFFFFFFFFFFFFFFFFFFFFFFFFFFFFFFFFF DUP4 DUP2 DUP4 AND OR DUP4 MSTORE POP POP POP POP SWAP1 POP PUSH0 DUP1 DUP4 PUSH20 0xFFFFFFFFFFFFFFFFFFFFFFFFFFFFFFFFFFFFFFFF AND DUP4 PUSH1 0x40 MLOAD PUSH2 0x566 SWAP2 SWAP1 PUSH2 0xE26 JUMP JUMPDEST PUSH0 PUSH1 0x40 MLOAD DUP1 DUP4 SUB DUP2 DUP6 GAS DELEGATECALL SWAP2 POP POP RETURNDATASIZE DUP1 PUSH0 DUP2 EQ PUSH2 0x59E JUMPI PUSH1 0x40 MLOAD SWAP2 POP PUSH1 0x1F NOT PUSH1 0x3F RETURNDATASIZE ADD AND DUP3 ADD PUSH1 0x40 MSTORE RETURNDATASIZE DUP3 MSTORE RETURNDATASIZE PUSH0 PUSH1 0x20 DUP5 ADD RETURNDATACOPY PUSH2 0x5A3 JUMP JUMPDEST PUSH1 0x60 SWAP2 POP JUMPDEST POP SWAP2 POP SWAP2 POP PUSH2 0x5F0 DUP3 PUSH1 0x40 MLOAD DUP1 PUSH1 0x40 ADD PUSH1 0x40 MSTORE DUP1 PUSH1 0x12 DUP2 MSTORE PUSH1 0x20 ADD PUSH32 0x63616C6C50726F787920737563636573733A0000000000000000000000000000 DUP2 MSTORE POP PUSH2 0xAF3 SWAP1 SWAP2 SWAP1 PUSH4 0xFFFFFFFF AND JUMP JUMPDEST PUSH2 0x64B DUP2 DUP1 PUSH1 0x20 ADD SWAP1 MLOAD DUP2 ADD SWAP1 PUSH2 0x607 SWAP2 SWAP1 PUSH2 0xE50 JUMP JUMPDEST PUSH1 0x40 MLOAD DUP1 PUSH1 0x40 ADD PUSH1 0x40 MSTORE DUP1 PUSH1 0x15 DUP2 MSTORE PUSH1 0x20 ADD PUSH32 0x63616C6C50726F787920726573756C74446174613A0000000000000000000000 DUP2 MSTORE POP PUSH2 0xB30 SWAP1 SWAP2 SWAP1 PUSH4 0xFFFFFFFF AND JUMP JUMPDEST POP POP POP POP JUMP JUMPDEST PUSH0 PUSH1 0x40 MLOAD PUSH1 0x24 ADD PUSH1 0x40 MLOAD PUSH1 0x20 DUP2 DUP4 SUB SUB DUP2 MSTORE SWAP1 PUSH1 0x40 MSTORE PUSH32 0x2096525500000000000000000000000000000000000000000000000000000000 PUSH28 0xFFFFFFFFFFFFFFFFFFFFFFFFFFFFFFFFFFFFFFFFFFFFFFFFFFFFFFFF NOT AND PUSH1 0x20 DUP3 ADD DUP1 MLOAD PUSH28 0xFFFFFFFFFFFFFFFFFFFFFFFFFFFFFFFFFFFFFFFFFFFFFFFFFFFFFFFF DUP4 DUP2 DUP4 AND OR DUP4 MSTORE POP POP POP POP SWAP1 POP PUSH0 DUP1 DUP4 PUSH20 0xFFFFFFFFFFFFFFFFFFFFFFFFFFFFFFFFFFFFFFFF AND DUP4 PUSH1 0x40 MLOAD PUSH2 0x6FE SWAP2 SWAP1 PUSH2 0xE26 JUMP JUMPDEST PUSH0 PUSH1 0x40 MLOAD DUP1 DUP4 SUB DUP2 PUSH0 DUP7 GAS CALL SWAP2 POP POP RETURNDATASIZE DUP1 PUSH0 DUP2 EQ PUSH2 0x737 JUMPI PUSH1 0x40 MLOAD SWAP2 POP PUSH1 0x1F NOT PUSH1 0x3F RETURNDATASIZE ADD AND DUP3 ADD PUSH1 0x40 MSTORE RETURNDATASIZE DUP3 MSTORE RETURNDATASIZE PUSH0 PUSH1 0x20 DUP5 ADD RETURNDATACOPY PUSH2 0x73C JUMP JUMPDEST PUSH1 0x60 SWAP2 POP JUMPDEST POP SWAP2 POP SWAP2 POP PUSH2 0x789 DUP3 PUSH1 0x40 MLOAD DUP1 PUSH1 0x40 ADD PUSH1 0x40 MSTORE DUP1 PUSH1 0x12 DUP2 MSTORE PUSH1 0x20 ADD PUSH32 0x63616C6C50726F787920737563636573733A0000000000000000000000000000 DUP2 MSTORE POP PUSH2 0xAF3 SWAP1 SWAP2 SWAP1 PUSH4 0xFFFFFFFF AND JUMP JUMPDEST PUSH2 0x7E4 DUP2 DUP1 PUSH1 0x20 ADD SWAP1 MLOAD DUP2 ADD SWAP1 PUSH2 0x7A0 SWAP2 SWAP1 PUSH2 0xE50 JUMP JUMPDEST PUSH1 0x40 MLOAD DUP1 PUSH1 0x40 ADD PUSH1 0x40 MSTORE DUP1 PUSH1 0x15 DUP2 MSTORE PUSH1 0x20 ADD PUSH32 0x63616C6C50726F787920726573756C74446174613A0000000000000000000000 DUP2 MSTORE POP PUSH2 0xB30 SWAP1 SWAP2 SWAP1 PUSH4 0xFFFFFFFF AND JUMP JUMPDEST POP POP POP POP JUMP JUMPDEST PUSH0 DUP2 PUSH20 0xFFFFFFFFFFFFFFFFFFFFFFFFFFFFFFFFFFFFFFFF AND PUSH4 0x20965255 PUSH1 0x40 MLOAD DUP2 PUSH4 0xFFFFFFFF AND PUSH1 0xE0 SHL DUP2 MSTORE PUSH1 0x4 ADD PUSH1 0x20 PUSH1 0x40 MLOAD DUP1 DUP4 SUB DUP2 PUSH0 DUP8 GAS CALL ISZERO DUP1 ISZERO PUSH2 0x835 JUMPI RETURNDATASIZE PUSH0 DUP1 RETURNDATACOPY RETURNDATASIZE PUSH0 REVERT JUMPDEST POP POP POP POP PUSH1 0x40 MLOAD RETURNDATASIZE PUSH1 0x1F NOT PUSH1 0x1F DUP3 ADD AND DUP3 ADD DUP1 PUSH1 0x40 MSTORE POP DUP2 ADD SWAP1 PUSH2 0x859 SWAP2 SWAP1 PUSH2 0xE50 JUMP JUMPDEST SWAP1 POP PUSH2 0x8A3 DUP2 PUSH1 0x40 MLOAD DUP1 PUSH1 0x40 ADD PUSH1 0x40 MSTORE DUP1 PUSH1 0x15 DUP2 MSTORE PUSH1 0x20 ADD PUSH32 0x63616C6C50726F787920726573756C74446174613A0000000000000000000000 DUP2 MSTORE POP PUSH2 0xB30 SWAP1 SWAP2 SWAP1 PUSH4 0xFFFFFFFF AND JUMP JUMPDEST POP POP JUMP JUMPDEST PUSH1 0x60 PUSH0 PUSH1 0x8 PUSH1 0x40 MLOAD PUSH1 0x24 ADD PUSH2 0x8BC SWAP2 SWAP1 PUSH2 0xEC9 JUMP JUMPDEST PUSH1 0x40 MLOAD PUSH1 0x20 DUP2 DUP4 SUB SUB DUP2 MSTORE SWAP1 PUSH1 0x40 MSTORE PUSH32 0x5524107700000000000000000000000000000000000000000000000000000000 PUSH28 0xFFFFFFFFFFFFFFFFFFFFFFFFFFFFFFFFFFFFFFFFFFFFFFFFFFFFFFFF NOT AND PUSH1 0x20 DUP3 ADD DUP1 MLOAD PUSH28 0xFFFFFFFFFFFFFFFFFFFFFFFFFFFFFFFFFFFFFFFFFFFFFFFFFFFFFFFF DUP4 DUP2 DUP4 AND OR DUP4 MSTORE POP POP POP POP SWAP1 POP DUP1 SWAP2 POP POP SWAP1 JUMP JUMPDEST PUSH1 0x60 PUSH0 DUP3 PUSH1 0x40 MLOAD PUSH1 0x24 ADD PUSH2 0x956 SWAP2 SWAP1 PUSH2 0xD96 JUMP JUMPDEST PUSH1 0x40 MLOAD PUSH1 0x20 DUP2 DUP4 SUB SUB DUP2 MSTORE SWAP1 PUSH1 0x40 MSTORE PUSH32 0xFE4B84DF00000000000000000000000000000000000000000000000000000000 PUSH28 0xFFFFFFFFFFFFFFFFFFFFFFFFFFFFFFFFFFFFFFFFFFFFFFFFFFFFFFFF NOT AND PUSH1 0x20 DUP3 ADD DUP1 MLOAD PUSH28 0xFFFFFFFFFFFFFFFFFFFFFFFFFFFFFFFFFFFFFFFFFFFFFFFFFFFFFFFF DUP4 DUP2 DUP4 AND OR DUP4 MSTORE POP POP POP POP SWAP1 POP DUP1 SWAP2 POP POP SWAP2 SWAP1 POP JUMP JUMPDEST PUSH1 0x60 PUSH0 PUSH1 0x8 PUSH1 0x40 MLOAD PUSH1 0x24 ADD PUSH2 0x9F3 SWAP2 SWAP1 PUSH2 0xEC9 JUMP JUMPDEST PUSH1 0x40 MLOAD PUSH1 0x20 DUP2 DUP4 SUB SUB DUP2 MSTORE SWAP1 PUSH1 0x40 MSTORE PUSH32 0xFE4B84DF00000000000000000000000000000000000000000000000000000000 PUSH28 0xFFFFFFFFFFFFFFFFFFFFFFFFFFFFFFFFFFFFFFFFFFFFFFFFFFFFFFFF NOT AND PUSH1 0x20 DUP3 ADD DUP1 MLOAD PUSH28 0xFFFFFFFFFFFFFFFFFFFFFFFFFFFFFFFFFFFFFFFFFFFFFFFFFFFFFFFF DUP4 DUP2 DUP4 AND OR DUP4 MSTORE POP POP POP POP SWAP1 POP DUP1 SWAP2 POP POP SWAP1 JUMP JUMPDEST PUSH32 0x7700EE2A2783C555D55A6D24309C75ED5612BD3DEDC5272D3219B930694EBA44 DUP3 DUP3 PUSH1 0x40 MLOAD PUSH2 0xAAA SWAP3 SWAP2 SWAP1 PUSH2 0xF34 JUMP JUMPDEST PUSH1 0x40 MLOAD DUP1 SWAP2 SUB SWAP1 LOG1 POP POP JUMP JUMPDEST PUSH32 0x38510722CCA54C7525003469AFF2983DA6AA6AAA7DEC66F217775D1DE381A51A DUP3 DUP3 PUSH1 0x40 MLOAD PUSH2 0xAE7 SWAP3 SWAP2 SWAP1 PUSH2 0xF62 JUMP JUMPDEST PUSH1 0x40 MLOAD DUP1 SWAP2 SUB SWAP1 LOG1 POP POP JUMP JUMPDEST PUSH32 0x554B0A22792E0CC5201E915B6E42D3CF18A8D15C3D1984DA155E6C591B12BB6D DUP3 DUP3 PUSH1 0x40 MLOAD PUSH2 0xB24 SWAP3 SWAP2 SWAP1 PUSH2 0xFB1 JUMP JUMPDEST PUSH1 0x40 MLOAD DUP1 SWAP2 SUB SWAP1 LOG1 POP POP JUMP JUMPDEST PUSH32 0xE065C143AB819E9EEEE7BB1926A4C1354EC7FE3492DED34510CFFF0E78E7B8BE DUP3 DUP3 PUSH1 0x40 MLOAD PUSH2 0xB61 SWAP3 SWAP2 SWAP1 PUSH2 0xFDF JUMP JUMPDEST PUSH1 0x40 MLOAD DUP1 SWAP2 SUB SWAP1 LOG1 POP POP JUMP JUMPDEST PUSH0 DUP2 MLOAD SWAP1 POP SWAP2 SWAP1 POP JUMP JUMPDEST PUSH0 DUP3 DUP3 MSTORE PUSH1 0x20 DUP3 ADD SWAP1 POP SWAP3 SWAP2 POP POP JUMP JUMPDEST DUP3 DUP2 DUP4 MCOPY PUSH0 DUP4 DUP4 ADD MSTORE POP POP POP JUMP JUMPDEST PUSH0 PUSH1 0x1F NOT PUSH1 0x1F DUP4 ADD AND SWAP1 POP SWAP2 SWAP1 POP JUMP JUMPDEST PUSH0 PUSH2 0xBAF DUP3 PUSH2 0xB6D JUMP JUMPDEST PUSH2 0xBB9 DUP2 DUP6 PUSH2 0xB77 JUMP JUMPDEST SWAP4 POP PUSH2 0xBC9 DUP2 DUP6 PUSH1 0x20 DUP7 ADD PUSH2 0xB87 JUMP JUMPDEST PUSH2 0xBD2 DUP2 PUSH2 0xB95 JUMP JUMPDEST DUP5 ADD SWAP2 POP POP SWAP3 SWAP2 POP POP JUMP JUMPDEST PUSH0 PUSH1 0x20 DUP3 ADD SWAP1 POP DUP2 DUP2 SUB PUSH0 DUP4 ADD MSTORE PUSH2 0xBF5 DUP2 DUP5 PUSH2 0xBA5 JUMP JUMPDEST SWAP1 POP SWAP3 SWAP2 POP POP JUMP JUMPDEST PUSH0 DUP1 REVERT JUMPDEST PUSH0 PUSH20 0xFFFFFFFFFFFFFFFFFFFFFFFFFFFFFFFFFFFFFFFF DUP3 AND SWAP1 POP SWAP2 SWAP1 POP JUMP JUMPDEST PUSH0 PUSH2 0xC2A DUP3 PUSH2 0xC01 JUMP JUMPDEST SWAP1 POP SWAP2 SWAP1 POP JUMP JUMPDEST PUSH2 0xC3A DUP2 PUSH2 0xC20 JUMP JUMPDEST DUP2 EQ PUSH2 0xC44 JUMPI PUSH0 DUP1 REVERT JUMPDEST POP JUMP JUMPDEST PUSH0 DUP2 CALLDATALOAD SWAP1 POP PUSH2 0xC55 DUP2 PUSH2 0xC31 JUMP JUMPDEST SWAP3 SWAP2 POP POP JUMP JUMPDEST PUSH0 DUP1 PUSH1 0x40 DUP4 DUP6 SUB SLT ISZERO PUSH2 0xC71 JUMPI PUSH2 0xC70 PUSH2 0xBFD JUMP JUMPDEST JUMPDEST PUSH0 PUSH2 0xC7E DUP6 DUP3 DUP7 ADD PUSH2 0xC47 JUMP JUMPDEST SWAP3 POP POP PUSH1 0x20 PUSH2 0xC8F DUP6 DUP3 DUP7 ADD PUSH2 0xC47 JUMP JUMPDEST SWAP2 POP POP SWAP3 POP SWAP3 SWAP1 POP JUMP JUMPDEST PUSH0 PUSH1 0x20 DUP3 DUP5 SUB SLT ISZERO PUSH2 0xCAE JUMPI PUSH2 0xCAD PUSH2 0xBFD JUMP JUMPDEST JUMPDEST PUSH0 PUSH2 0xCBB DUP5 DUP3 DUP6 ADD PUSH2 0xC47 JUMP JUMPDEST SWAP2 POP POP SWAP3 SWAP2 POP POP JUMP JUMPDEST PUSH0 DUP2 SWAP1 POP SWAP2 SWAP1 POP JUMP JUMPDEST PUSH2 0xCD6 DUP2 PUSH2 0xCC4 JUMP JUMPDEST DUP2 EQ PUSH2 0xCE0 JUMPI PUSH0 DUP1 REVERT JUMPDEST POP JUMP JUMPDEST PUSH0 DUP2 CALLDATALOAD SWAP1 POP PUSH2 0xCF1 DUP2 PUSH2 0xCCD JUMP JUMPDEST SWAP3 SWAP2 POP POP JUMP JUMPDEST PUSH0 PUSH1 0x20 DUP3 DUP5 SUB SLT ISZERO PUSH2 0xD0C JUMPI PUSH2 0xD0B PUSH2 0xBFD JUMP JUMPDEST JUMPDEST PUSH0 PUSH2 0xD19 DUP5 DUP3 DUP6 ADD PUSH2 0xCE3 JUMP JUMPDEST SWAP2 POP POP SWAP3 SWAP2 POP POP JUMP JUMPDEST PUSH0 PUSH32 0xFFFFFFFF00000000000000000000000000000000000000000000000000000000 DUP3 AND SWAP1 POP SWAP2 SWAP1 POP JUMP JUMPDEST PUSH0 DUP2 SWAP1 POP SWAP2 SWAP1 POP JUMP JUMPDEST PUSH2 0xD67 PUSH2 0xD62 DUP3 PUSH2 0xD22 JUMP JUMPDEST PUSH2 0xD4D JUMP JUMPDEST DUP3 MSTORE POP POP JUMP JUMPDEST PUSH0 PUSH2 0xD78 DUP3 DUP5 PUSH2 0xD56 JUMP JUMPDEST PUSH1 0x4 DUP3 ADD SWAP2 POP DUP2 SWAP1 POP SWAP3 SWAP2 POP POP JUMP JUMPDEST PUSH2 0xD90 DUP2 PUSH2 0xCC4 JUMP JUMPDEST DUP3 MSTORE POP POP JUMP JUMPDEST PUSH0 PUSH1 0x20 DUP3 ADD SWAP1 POP PUSH2 0xDA9 PUSH0 DUP4 ADD DUP5 PUSH2 0xD87 JUMP JUMPDEST SWAP3 SWAP2 POP POP JUMP JUMPDEST PUSH2 0xDB8 DUP2 PUSH2 0xC20 JUMP JUMPDEST DUP3 MSTORE POP POP JUMP JUMPDEST PUSH0 PUSH1 0x40 DUP3 ADD SWAP1 POP PUSH2 0xDD1 PUSH0 DUP4 ADD DUP6 PUSH2 0xDAF JUMP JUMPDEST DUP2 DUP2 SUB PUSH1 0x20 DUP4 ADD MSTORE PUSH2 0xDE3 DUP2 DUP5 PUSH2 0xBA5 JUMP JUMPDEST SWAP1 POP SWAP4 SWAP3 POP POP POP JUMP JUMPDEST PUSH0 DUP2 SWAP1 POP SWAP3 SWAP2 POP POP JUMP JUMPDEST PUSH0 PUSH2 0xE00 DUP3 PUSH2 0xB6D JUMP JUMPDEST PUSH2 0xE0A DUP2 DUP6 PUSH2 0xDEC JUMP JUMPDEST SWAP4 POP PUSH2 0xE1A DUP2 DUP6 PUSH1 0x20 DUP7 ADD PUSH2 0xB87 JUMP JUMPDEST DUP1 DUP5 ADD SWAP2 POP POP SWAP3 SWAP2 POP POP JUMP JUMPDEST PUSH0 PUSH2 0xE31 DUP3 DUP5 PUSH2 0xDF6 JUMP JUMPDEST SWAP2 POP DUP2 SWAP1 POP SWAP3 SWAP2 POP POP JUMP JUMPDEST PUSH0 DUP2 MLOAD SWAP1 POP PUSH2 0xE4A DUP2 PUSH2 0xCCD JUMP JUMPDEST SWAP3 SWAP2 POP POP JUMP JUMPDEST PUSH0 PUSH1 0x20 DUP3 DUP5 SUB SLT ISZERO PUSH2 0xE65 JUMPI PUSH2 0xE64 PUSH2 0xBFD JUMP JUMPDEST JUMPDEST PUSH0 PUSH2 0xE72 DUP5 DUP3 DUP6 ADD PUSH2 0xE3C JUMP JUMPDEST SWAP2 POP POP SWAP3 SWAP2 POP POP JUMP JUMPDEST PUSH0 DUP2 SWAP1 POP SWAP2 SWAP1 POP JUMP JUMPDEST PUSH0 PUSH1 0xFF DUP3 AND SWAP1 POP SWAP2 SWAP1 POP JUMP JUMPDEST PUSH0 DUP2 SWAP1 POP SWAP2 SWAP1 POP JUMP JUMPDEST PUSH0 PUSH2 0xEB3 PUSH2 0xEAE PUSH2 0xEA9 DUP5 PUSH2 0xE7B JUMP JUMPDEST PUSH2 0xE90 JUMP JUMPDEST PUSH2 0xE84 JUMP JUMPDEST SWAP1 POP SWAP2 SWAP1 POP JUMP JUMPDEST PUSH2 0xEC3 DUP2 PUSH2 0xE99 JUMP JUMPDEST DUP3 MSTORE POP POP JUMP JUMPDEST PUSH0 PUSH1 0x20 DUP3 ADD SWAP1 POP PUSH2 0xEDC PUSH0 DUP4 ADD DUP5 PUSH2 0xEBA JUMP JUMPDEST SWAP3 SWAP2 POP POP JUMP JUMPDEST PUSH0 DUP2 MLOAD SWAP1 POP SWAP2 SWAP1 POP JUMP JUMPDEST PUSH0 DUP3 DUP3 MSTORE PUSH1 0x20 DUP3 ADD SWAP1 POP SWAP3 SWAP2 POP POP JUMP JUMPDEST PUSH0 PUSH2 0xF06 DUP3 PUSH2 0xEE2 JUMP JUMPDEST PUSH2 0xF10 DUP2 DUP6 PUSH2 0xEEC JUMP JUMPDEST SWAP4 POP PUSH2 0xF20 DUP2 DUP6 PUSH1 0x20 DUP7 ADD PUSH2 0xB87 JUMP JUMPDEST PUSH2 0xF29 DUP2 PUSH2 0xB95 JUMP JUMPDEST DUP5 ADD SWAP2 POP POP SWAP3 SWAP2 POP POP JUMP JUMPDEST PUSH0 PUSH1 0x40 DUP3 ADD SWAP1 POP DUP2 DUP2 SUB PUSH0 DUP4 ADD MSTORE PUSH2 0xF4C DUP2 DUP6 PUSH2 0xEFC JUMP JUMPDEST SWAP1 POP PUSH2 0xF5B PUSH1 0x20 DUP4 ADD DUP5 PUSH2 0xDAF JUMP JUMPDEST SWAP4 SWAP3 POP POP POP JUMP JUMPDEST PUSH0 PUSH1 0x40 DUP3 ADD SWAP1 POP DUP2 DUP2 SUB PUSH0 DUP4 ADD MSTORE PUSH2 0xF7A DUP2 DUP6 PUSH2 0xEFC JUMP JUMPDEST SWAP1 POP DUP2 DUP2 SUB PUSH1 0x20 DUP4 ADD MSTORE PUSH2 0xF8E DUP2 DUP5 PUSH2 0xEFC JUMP JUMPDEST SWAP1 POP SWAP4 SWAP3 POP POP POP JUMP JUMPDEST PUSH0 DUP2 ISZERO ISZERO SWAP1 POP SWAP2 SWAP1 POP JUMP JUMPDEST PUSH2 0xFAB DUP2 PUSH2 0xF97 JUMP JUMPDEST DUP3 MSTORE POP POP JUMP JUMPDEST PUSH0 PUSH1 0x40 DUP3 ADD SWAP1 POP DUP2 DUP2 SUB PUSH0 DUP4 ADD MSTORE PUSH2 0xFC9 DUP2 DUP6 PUSH2 0xEFC JUMP JUMPDEST SWAP1 POP PUSH2 0xFD8 PUSH1 0x20 DUP4 ADD DUP5 PUSH2 0xFA2 JUMP JUMPDEST SWAP4 SWAP3 POP POP POP JUMP JUMPDEST PUSH0 PUSH1 0x40 DUP3 ADD SWAP1 POP DUP2 DUP2 SUB PUSH0 DUP4 ADD MSTORE PUSH2 0xFF7 DUP2 DUP6 PUSH2 0xEFC JUMP JUMPDEST SWAP1 POP PUSH2 0x1006 PUSH1 0x20 DUP4 ADD DUP5 PUSH2 0xD87 JUMP JUMPDEST SWAP4 SWAP3 POP POP POP JUMP INVALID PUSH21 0x7267657255706772616465546F416E6443616C6C20 PUSH22 0x70677261646553656C6563746F723A4D6574686F6453 PUSH10 0x676E2074726765725570 PUSH8 0x72616465546F416E PUSH5 0x43616C6C28 0x29 0x2C PUSH14 0x73672E73656E6465723A74726765 PUSH19 0x55706772616465546F416E6443616C6C207265 PUSH20 0x756C74446174613AA2646970667358221220B759 PUSH3 0x532C5 DUP9 0xBA BYTE MSIZE PUSH20 0xCACB5721EA2F0BCD363D3B25718959821347F4E9 0xDE PUSH5 0x736F6C6343 STOP ADDMOD BYTE STOP CALLER "
		},
		"gasEstimates": {
			"creation": {
				"codeDepositCost": "856000",
				"executionCost": "888",
				"totalCost": "856888"
			},
			"external": {
				"callProxy(address)": "infinite",
				"contractProxy(address)": "infinite",
				"delegateCallProxy(address)": "infinite",
				"getGetValueMethodSign()": "infinite",
				"getInitializeMethodSign()": "infinite",
				"getInitializeMethodSign(uint256)": "infinite",
				"getSetValueMethodSign()": "infinite",
				"trgerUpgradeToAndCall(address,address)": "infinite"
			}
		},
		"methodIdentifiers": {
			"callProxy(address)": "7c52e325",
			"contractProxy(address)": "7c8769cb",
			"delegateCallProxy(address)": "617dc8ac",
			"getGetValueMethodSign()": "198bfd3e",
			"getInitializeMethodSign()": "ec29a284",
			"getInitializeMethodSign(uint256)": "90c278c5",
			"getSetValueMethodSign()": "7e72d798",
			"trgerUpgradeToAndCall(address,address)": "5fae9c99"
		}
	},
	"abi": [
		{
			"anonymous": false,
			"inputs": [
				{
					"indexed": false,
					"internalType": "string",
					"name": "desc",
					"type": "string"
				},
				{
					"indexed": false,
					"internalType": "address",
					"name": "value",
					"type": "address"
				}
			],
			"name": "PrintAddressLog",
			"type": "event"
		},
		{
			"anonymous": false,
			"inputs": [
				{
					"indexed": false,
					"internalType": "string",
					"name": "desc",
					"type": "string"
				},
				{
					"indexed": false,
					"internalType": "bool",
					"name": "data",
					"type": "bool"
				}
			],
			"name": "PrintBoolLog",
			"type": "event"
		},
		{
			"anonymous": false,
			"inputs": [
				{
					"indexed": false,
					"internalType": "string",
					"name": "desc",
					"type": "string"
				},
				{
					"indexed": false,
					"internalType": "string",
					"name": "value",
					"type": "string"
				}
			],
			"name": "PrintStringLog",
			"type": "event"
		},
		{
			"anonymous": false,
			"inputs": [
				{
					"indexed": false,
					"internalType": "string",
					"name": "desc",
					"type": "string"
				},
				{
					"indexed": false,
					"internalType": "uint256",
					"name": "data",
					"type": "uint256"
				}
			],
			"name": "PrintUint256Log",
			"type": "event"
		},
		{
			"inputs": [
				{
					"internalType": "address",
					"name": "contractAddress",
					"type": "address"
				}
			],
			"name": "callProxy",
			"outputs": [],
			"stateMutability": "nonpayable",
			"type": "function"
		},
		{
			"inputs": [
				{
					"internalType": "address",
					"name": "contractAddress",
					"type": "address"
				}
			],
			"name": "contractProxy",
			"outputs": [],
			"stateMutability": "nonpayable",
			"type": "function"
		},
		{
			"inputs": [
				{
					"internalType": "address",
					"name": "contractAddress",
					"type": "address"
				}
			],
			"name": "delegateCallProxy",
			"outputs": [],
			"stateMutability": "nonpayable",
			"type": "function"
		},
		{
			"inputs": [],
			"name": "getGetValueMethodSign",
			"outputs": [
				{
					"internalType": "bytes",
					"name": "",
					"type": "bytes"
				}
			],
			"stateMutability": "pure",
			"type": "function"
		},
		{
			"inputs": [
				{
					"internalType": "uint256",
					"name": "_value",
					"type": "uint256"
				}
			],
			"name": "getInitializeMethodSign",
			"outputs": [
				{
					"internalType": "bytes",
					"name": "",
					"type": "bytes"
				}
			],
			"stateMutability": "pure",
			"type": "function"
		},
		{
			"inputs": [],
			"name": "getInitializeMethodSign",
			"outputs": [
				{
					"internalType": "bytes",
					"name": "",
					"type": "bytes"
				}
			],
			"stateMutability": "pure",
			"type": "function"
		},
		{
			"inputs": [],
			"name": "getSetValueMethodSign",
			"outputs": [
				{
					"internalType": "bytes",
					"name": "",
					"type": "bytes"
				}
			],
			"stateMutability": "pure",
			"type": "function"
		},
		{
			"inputs": [
				{
					"internalType": "address",
					"name": "proxyAddress",
					"type": "address"
				},
				{
					"internalType": "address",
					"name": "upgradeAddress",
					"type": "address"
				}
			],
			"name": "trgerUpgradeToAndCall",
			"outputs": [
				{
					"internalType": "bytes",
					"name": "",
					"type": "bytes"
				}
			],
			"stateMutability": "nonpayable",
			"type": "function"
		}
	]
}