{
	"data": {
		"bytecode": {
			"linkReferences": {},
			"object": "6080604052348015600e575f80fd5b506103bc8061001c5f395ff3fe608060405234801561000f575f80fd5b506004361061004a575f3560e01c80634e70b1dc1461004e57806367e0badb1461006c57806393cae4721461008a578063cd16ecbf146100a6575b5f80fd5b6100566100c2565b60405161006391906101a2565b60405180910390f35b6100746100c7565b60405161008191906101a2565b60405180910390f35b6100a4600480360381019061009f91906101e9565b6100db565b005b6100c060048036038101906100bb91906101e9565b610138565b005b5f5481565b5f60015f546100d69190610241565b905090565b6002816100e89190610274565b5f81905550610135816040518060400160405280601981526020017f4d794552433139363754617267657454776f20696e697428290000000000000081525061014d90919063ffffffff16565b50565b60018161014591906102b5565b5f8190555050565b7fe065c143ab819e9eeee7bb1926a4c1354ec7fe3492ded34510cfff0e78e7b8be828260405161017e929190610358565b60405180910390a15050565b5f819050919050565b61019c8161018a565b82525050565b5f6020820190506101b55f830184610193565b92915050565b5f80fd5b6101c88161018a565b81146101d2575f80fd5b50565b5f813590506101e3816101bf565b92915050565b5f602082840312156101fe576101fd6101bb565b5b5f61020b848285016101d5565b91505092915050565b7f4e487b71000000000000000000000000000000000000000000000000000000005f52601160045260245ffd5b5f61024b8261018a565b91506102568361018a565b925082820390508181111561026e5761026d610214565b5b92915050565b5f61027e8261018a565b91506102898361018a565b92508282026102978161018a565b915082820484148315176102ae576102ad610214565b5b5092915050565b5f6102bf8261018a565b91506102ca8361018a565b92508282019050808211156102e2576102e1610214565b5b92915050565b5f81519050919050565b5f82825260208201905092915050565b8281835e5f83830152505050565b5f601f19601f8301169050919050565b5f61032a826102e8565b61033481856102f2565b9350610344818560208601610302565b61034d81610310565b840191505092915050565b5f6040820190508181035f8301526103708185610320565b905061037f6020830184610193565b939250505056fea26469706673582212205ec036fbade218acf126b02449f25d998c59518298ba8c43f88429787a90886264736f6c634300081a0033",
			"opcodes": "PUSH1 0x80 PUSH1 0x40 MSTORE CALLVALUE DUP1 ISZERO PUSH1 0xE JUMPI PUSH0 DUP1 REVERT JUMPDEST POP PUSH2 0x3BC DUP1 PUSH2 0x1C PUSH0 CODECOPY PUSH0 RETURN INVALID PUSH1 0x80 PUSH1 0x40 MSTORE CALLVALUE DUP1 ISZERO PUSH2 0xF JUMPI PUSH0 DUP1 REVERT JUMPDEST POP PUSH1 0x4 CALLDATASIZE LT PUSH2 0x4A JUMPI PUSH0 CALLDATALOAD PUSH1 0xE0 SHR DUP1 PUSH4 0x4E70B1DC EQ PUSH2 0x4E JUMPI DUP1 PUSH4 0x67E0BADB EQ PUSH2 0x6C JUMPI DUP1 PUSH4 0x93CAE472 EQ PUSH2 0x8A JUMPI DUP1 PUSH4 0xCD16ECBF EQ PUSH2 0xA6 JUMPI JUMPDEST PUSH0 DUP1 REVERT JUMPDEST PUSH2 0x56 PUSH2 0xC2 JUMP JUMPDEST PUSH1 0x40 MLOAD PUSH2 0x63 SWAP2 SWAP1 PUSH2 0x1A2 JUMP JUMPDEST PUSH1 0x40 MLOAD DUP1 SWAP2 SUB SWAP1 RETURN JUMPDEST PUSH2 0x74 PUSH2 0xC7 JUMP JUMPDEST PUSH1 0x40 MLOAD PUSH2 0x81 SWAP2 SWAP1 PUSH2 0x1A2 JUMP JUMPDEST PUSH1 0x40 MLOAD DUP1 SWAP2 SUB SWAP1 RETURN JUMPDEST PUSH2 0xA4 PUSH1 0x4 DUP1 CALLDATASIZE SUB DUP2 ADD SWAP1 PUSH2 0x9F SWAP2 SWAP1 PUSH2 0x1E9 JUMP JUMPDEST PUSH2 0xDB JUMP JUMPDEST STOP JUMPDEST PUSH2 0xC0 PUSH1 0x4 DUP1 CALLDATASIZE SUB DUP2 ADD SWAP1 PUSH2 0xBB SWAP2 SWAP1 PUSH2 0x1E9 JUMP JUMPDEST PUSH2 0x138 JUMP JUMPDEST STOP JUMPDEST PUSH0 SLOAD DUP2 JUMP JUMPDEST PUSH0 PUSH1 0x1 PUSH0 SLOAD PUSH2 0xD6 SWAP2 SWAP1 PUSH2 0x241 JUMP JUMPDEST SWAP1 POP SWAP1 JUMP JUMPDEST PUSH1 0x2 DUP2 PUSH2 0xE8 SWAP2 SWAP1 PUSH2 0x274 JUMP JUMPDEST PUSH0 DUP2 SWAP1 SSTORE POP PUSH2 0x135 DUP2 PUSH1 0x40 MLOAD DUP1 PUSH1 0x40 ADD PUSH1 0x40 MSTORE DUP1 PUSH1 0x19 DUP2 MSTORE PUSH1 0x20 ADD PUSH32 0x4D794552433139363754617267657454776F20696E6974282900000000000000 DUP2 MSTORE POP PUSH2 0x14D SWAP1 SWAP2 SWAP1 PUSH4 0xFFFFFFFF AND JUMP JUMPDEST POP JUMP JUMPDEST PUSH1 0x1 DUP2 PUSH2 0x145 SWAP2 SWAP1 PUSH2 0x2B5 JUMP JUMPDEST PUSH0 DUP2 SWAP1 SSTORE POP POP JUMP JUMPDEST PUSH32 0xE065C143AB819E9EEEE7BB1926A4C1354EC7FE3492DED34510CFFF0E78E7B8BE DUP3 DUP3 PUSH1 0x40 MLOAD PUSH2 0x17E SWAP3 SWAP2 SWAP1 PUSH2 0x358 JUMP JUMPDEST PUSH1 0x40 MLOAD DUP1 SWAP2 SUB SWAP1 LOG1 POP POP JUMP JUMPDEST PUSH0 DUP2 SWAP1 POP SWAP2 SWAP1 POP JUMP JUMPDEST PUSH2 0x19C DUP2 PUSH2 0x18A JUMP JUMPDEST DUP3 MSTORE POP POP JUMP JUMPDEST PUSH0 PUSH1 0x20 DUP3 ADD SWAP1 POP PUSH2 0x1B5 PUSH0 DUP4 ADD DUP5 PUSH2 0x193 JUMP JUMPDEST SWAP3 SWAP2 POP POP JUMP JUMPDEST PUSH0 DUP1 REVERT JUMPDEST PUSH2 0x1C8 DUP2 PUSH2 0x18A JUMP JUMPDEST DUP2 EQ PUSH2 0x1D2 JUMPI PUSH0 DUP1 REVERT JUMPDEST POP JUMP JUMPDEST PUSH0 DUP2 CALLDATALOAD SWAP1 POP PUSH2 0x1E3 DUP2 PUSH2 0x1BF JUMP JUMPDEST SWAP3 SWAP2 POP POP JUMP JUMPDEST PUSH0 PUSH1 0x20 DUP3 DUP5 SUB SLT ISZERO PUSH2 0x1FE JUMPI PUSH2 0x1FD PUSH2 0x1BB JUMP JUMPDEST JUMPDEST PUSH0 PUSH2 0x20B DUP5 DUP3 DUP6 ADD PUSH2 0x1D5 JUMP JUMPDEST SWAP2 POP POP SWAP3 SWAP2 POP POP JUMP JUMPDEST PUSH32 0x4E487B7100000000000000000000000000000000000000000000000000000000 PUSH0 MSTORE PUSH1 0x11 PUSH1 0x4 MSTORE PUSH1 0x24 PUSH0 REVERT JUMPDEST PUSH0 PUSH2 0x24B DUP3 PUSH2 0x18A JUMP JUMPDEST SWAP2 POP PUSH2 0x256 DUP4 PUSH2 0x18A JUMP JUMPDEST SWAP3 POP DUP3 DUP3 SUB SWAP1 POP DUP2 DUP2 GT ISZERO PUSH2 0x26E JUMPI PUSH2 0x26D PUSH2 0x214 JUMP JUMPDEST JUMPDEST SWAP3 SWAP2 POP POP JUMP JUMPDEST PUSH0 PUSH2 0x27E DUP3 PUSH2 0x18A JUMP JUMPDEST SWAP2 POP PUSH2 0x289 DUP4 PUSH2 0x18A JUMP JUMPDEST SWAP3 POP DUP3 DUP3 MUL PUSH2 0x297 DUP2 PUSH2 0x18A JUMP JUMPDEST SWAP2 POP DUP3 DUP3 DIV DUP5 EQ DUP4 ISZERO OR PUSH2 0x2AE JUMPI PUSH2 0x2AD PUSH2 0x214 JUMP JUMPDEST JUMPDEST POP SWAP3 SWAP2 POP POP JUMP JUMPDEST PUSH0 PUSH2 0x2BF DUP3 PUSH2 0x18A JUMP JUMPDEST SWAP2 POP PUSH2 0x2CA DUP4 PUSH2 0x18A JUMP JUMPDEST SWAP3 POP DUP3 DUP3 ADD SWAP1 POP DUP1 DUP3 GT ISZERO PUSH2 0x2E2 JUMPI PUSH2 0x2E1 PUSH2 0x214 JUMP JUMPDEST JUMPDEST SWAP3 SWAP2 POP POP JUMP JUMPDEST PUSH0 DUP2 MLOAD SWAP1 POP SWAP2 SWAP1 POP JUMP JUMPDEST PUSH0 DUP3 DUP3 MSTORE PUSH1 0x20 DUP3 ADD SWAP1 POP SWAP3 SWAP2 POP POP JUMP JUMPDEST DUP3 DUP2 DUP4 MCOPY PUSH0 DUP4 DUP4 ADD MSTORE POP POP POP JUMP JUMPDEST PUSH0 PUSH1 0x1F NOT PUSH1 0x1F DUP4 ADD AND SWAP1 POP SWAP2 SWAP1 POP JUMP JUMPDEST PUSH0 PUSH2 0x32A DUP3 PUSH2 0x2E8 JUMP JUMPDEST PUSH2 0x334 DUP2 DUP6 PUSH2 0x2F2 JUMP JUMPDEST SWAP4 POP PUSH2 0x344 DUP2 DUP6 PUSH1 0x20 DUP7 ADD PUSH2 0x302 JUMP JUMPDEST PUSH2 0x34D DUP2 PUSH2 0x310 JUMP JUMPDEST DUP5 ADD SWAP2 POP POP SWAP3 SWAP2 POP POP JUMP JUMPDEST PUSH0 PUSH1 0x40 DUP3 ADD SWAP1 POP DUP2 DUP2 SUB PUSH0 DUP4 ADD MSTORE PUSH2 0x370 DUP2 DUP6 PUSH2 0x320 JUMP JUMPDEST SWAP1 POP PUSH2 0x37F PUSH1 0x20 DUP4 ADD DUP5 PUSH2 0x193 JUMP JUMPDEST SWAP4 SWAP3 POP POP POP JUMP INVALID LOG2 PUSH5 0x6970667358 0x22 SLT KECCAK256 MCOPY 0xC0 CALLDATASIZE 0xFB 0xAD 0xE2 XOR 0xAC CALL 0x26 0xB0 0x24 BLOBHASH CALLCODE TSTORE SWAP10 DUP13 MSIZE MLOAD DUP3 SWAP9 0xBA DUP13 NUMBER 0xF8 DUP5 0x29 PUSH25 0x7A90886264736F6C634300081A003300000000000000000000 "
		},
		"gasEstimates": {
			"creation": {
				"codeDepositCost": "191200",
				"executionCost": "230",
				"totalCost": "191430"
			},
			"external": {
				"getNum()": "infinite",
				"initTwo(uint256)": "infinite",
				"num()": "2402",
				"setNum(uint256)": "infinite"
			}
		},
		"methodIdentifiers": {
			"getNum()": "67e0badb",
			"initTwo(uint256)": "93cae472",
			"num()": "4e70b1dc",
			"setNum(uint256)": "cd16ecbf"
		}
	},
	"abi": [
		{
			"anonymous": false,
			"inputs": [
				{
					"indexed": false,
					"internalType": "string",
					"name": "desc",
					"type": "string"
				},
				{
					"indexed": false,
					"internalType": "uint256",
					"name": "data",
					"type": "uint256"
				}
			],
			"name": "PrintUint256Log",
			"type": "event"
		},
		{
			"inputs": [],
			"name": "getNum",
			"outputs": [
				{
					"internalType": "uint256",
					"name": "",
					"type": "uint256"
				}
			],
			"stateMutability": "view",
			"type": "function"
		},
		{
			"inputs": [
				{
					"internalType": "uint256",
					"name": "_num",
					"type": "uint256"
				}
			],
			"name": "initTwo",
			"outputs": [],
			"stateMutability": "nonpayable",
			"type": "function"
		},
		{
			"inputs": [],
			"name": "num",
			"outputs": [
				{
					"internalType": "uint256",
					"name": "",
					"type": "uint256"
				}
			],
			"stateMutability": "view",
			"type": "function"
		},
		{
			"inputs": [
				{
					"internalType": "uint256",
					"name": "_num",
					"type": "uint256"
				}
			],
			"name": "setNum",
			"outputs": [],
			"stateMutability": "nonpayable",
			"type": "function"
		}
	]
}