{
	"data": {
		"bytecode": {
			"linkReferences": {},
			"object": "60c0604052426080908152503480156015575f80fd5b504173ffffffffffffffffffffffffffffffffffffffff1660a08173ffffffffffffffffffffffffffffffffffffffff168152505060805160a051611b4261006b5f395f610ead01525f610ed10152611b425ff3fe608060405234801561000f575f80fd5b506004361061014b575f3560e01c8063968c4209116100c1578063baba1a771161007a578063baba1a77146103b5578063c6a15cbc146103e5578063d0e0ba9514610401578063d5f394881461041d578063d7d6f1831461043b578063ff0e8c1c146104595761014b565b8063968c4209146102df57806396db9468146102fd578063a38689ff1461032d578063ad45719914610349578063b439548d14610379578063b6f61649146103975761014b565b806337a8e4ae1161011357806337a8e4ae1461021b5780633ad3b3e4146102395780633dec1e6f14610257578063422beeba146102755780637c335b411461029157806384c01d8d146102c15761014b565b8063155d69e91461014f578063176b052b1461016d5780631adad0201461019d5780632927922e146101bb5780632f5e9eb3146101eb575b5f80fd5b610157610489565b6040516101649190611076565b60405180910390f35b610187600480360381019061018291906110c1565b61052e565b604051610194919061115c565b60405180910390f35b6101a56105c9565b6040516101b29190611076565b60405180910390f35b6101d560048036038101906101d091906111dd565b6105ce565b6040516101e2919061115c565b60405180910390f35b610205600480360381019061020091906110c1565b6106db565b604051610212919061115c565b60405180910390f35b610223610805565b60405161023091906112f1565b60405180910390f35b61024161085b565b60405161024e9190611076565b60405180910390f35b61025f610867565b60405161026c919061115c565b60405180910390f35b61028f600480360381019061028a91906110c1565b6108b1565b005b6102ab60048036038101906102a691906110c1565b6108be565b6040516102b89190611076565b60405180910390f35b6102c96108f2565b6040516102d6919061144e565b60405180910390f35b6102e7610c24565b6040516102f4919061115c565b60405180910390f35b6103176004803603810190610312919061146e565b610c5d565b6040516103249190611076565b60405180910390f35b6103476004803603810190610342919061146e565b610cdc565b005b610363600480360381019061035e919061146e565b610d0c565b6040516103709190611076565b60405180910390f35b610381610d9f565b60405161038e91906114d9565b60405180910390f35b61039f610dcc565b6040516103ac9190611544565b60405180910390f35b6103cf60048036038101906103ca91906110c1565b610e0f565b6040516103dc9190611076565b60405180910390f35b6103ff60048036038101906103fa919061146e565b610e6f565b005b61041b600480360381019061041691906110c1565b610e9f565b005b610425610eab565b60405161043291906115a3565b60405180910390f35b610443610ecf565b6040516104509190611076565b60405180910390f35b610473600480360381019061046e91906110c1565b610ef3565b6040516104809190611076565b60405180910390f35b5f80606480549050116104d1576040517f08c379a00000000000000000000000000000000000000000000000000000000081526004016104c890611606565b60405180910390fd5b5f606460016064805490506104e69190611651565b815481106104f7576104f6611684565b5b905f5260205f20015490506064805480610514576105136116b1565b5b600190038181905f5260205f20015f905590558091505090565b6067602052805f5260405f205f91509050805461054a9061170b565b80601f01602080910402602001604051908101604052809291908181526020018280546105769061170b565b80156105c15780601f10610598576101008083540402835291602001916105c1565b820191905f5260205f20905b8154815290600101906020018083116105a457829003601f168201915b505050505081565b606481565b60605f60675f8681526020019081526020015f2080546105ed9061170b565b80601f01602080910402602001604051908101604052809291908181526020018280546106199061170b565b80156106645780601f1061063b57610100808354040283529160200191610664565b820191905f5260205f20905b81548152906001019060200180831161064757829003601f168201915b50505050509050838360675f8881526020019081526020015f20918261068b92919061190f565b506106a48160405180602001604052805f815250610f5f565b156106d057606885908060018154018082558091505060019003905f5260205f20015f90919091909150555b809150509392505050565b60605f805f90505b606880549050811015610724576068818154811061070457610703611684565b5b905f5260205f2001548403610717578091505b80806001019150506106e3565b505f60675f8581526020019081526020015f2080546107429061170b565b80601f016020809104026020016040519081016040528092919081815260200182805461076e9061170b565b80156107b95780601f10610790576101008083540402835291602001916107b9565b820191905f5260205f20905b81548152906001019060200180831161079c57829003601f168201915b50505050509050606882815481106107d4576107d3611684565b5b905f5260205f20015f905560675f8581526020019081526020015f205f6107fb9190610fb7565b8092505050919050565b6060606480548060200260200160405190810160405280929190818152602001828054801561085157602002820191905f5260205f20905b81548152602001906001019080831161083d575b5050505050905090565b5f606480549050905090565b606060645f6108769190610ff4565b6040518060400160405280600781526020017f7375636365737300000000000000000000000000000000000000000000000000815250905090565b8060656001018190555050565b5f606482908060018154018082558091505060019003905f5260205f20015f90919091909150556064805490509050919050565b60605f60688054905090505f8167ffffffffffffffff81111561091857610917611745565b5b60405190808252806020026020018201604052801561095157816020015b61093e611012565b8152602001906001900390816109365790505b5090505f805f90505b83811015610b3a575f6068828154811061097757610976611684565b5b905f5260205f2001549050604051806040016040528082815260200160675f8481526020019081526020015f2080546109af9061170b565b80601f01602080910402602001604051908101604052809291908181526020018280546109db9061170b565b8015610a265780601f106109fd57610100808354040283529160200191610a26565b820191905f5260205f20905b815481529060010190602001808311610a0957829003601f168201915b5050505050815250848381518110610a4157610a40611684565b5b60200260200101819052505f8114610b2c578280610a5e906119dc565b935050604051806040016040528082815260200160675f8481526020019081526020015f208054610a8e9061170b565b80601f0160208091040260200160405190810160405280929190818152602001828054610aba9061170b565b8015610b055780601f10610adc57610100808354040283529160200191610b05565b820191905f5260205f20905b815481529060010190602001808311610ae857829003601f168201915b5050505050815250848381518110610b2057610b1f611684565b5b60200260200101819052505b50808060010191505061095a565b505f8167ffffffffffffffff811115610b5657610b55611745565b5b604051908082528060200260200182016040528015610b8f57816020015b610b7c611012565b815260200190600190039081610b745790505b5090505f805f90505b8451811015610c18575f858281518110610bb557610bb4611684565b5b60200260200101515f015114610c0b57848181518110610bd857610bd7611684565b5b6020026020010151838380610bec906119dc565b945081518110610bff57610bfe611684565b5b60200260200101819052505b8080600101915050610b98565b50819550505050505090565b6040518060400160405280600581526020017f736875616900000000000000000000000000000000000000000000000000000081525081565b5f60648210610ca1576040517f08c379a0000000000000000000000000000000000000000000000000000000008152600401610c9890611a6d565b60405180910390fd5b5f808360648110610cb557610cb4611684565b5b01549050835f8460648110610ccd57610ccc611684565b5b01819055508091505092915050565b60405180604001604052808381526020018281525060655f820151815f0155602082015181600101559050505050565b5f6064805490508210610d54576040517f08c379a0000000000000000000000000000000000000000000000000000000008152600401610d4b90611a6d565b60405180910390fd5b5f60648381548110610d6957610d68611684565b5b905f5260205f20015490508360648481548110610d8957610d88611684565b5b905f5260205f2001819055508091505092915050565b610da761102b565b60656040518060400160405290815f8201548152602001600182015481525050905090565b7f4e03657aea45a94fc7d47ba826c8d667c0d1e6e33a64a036ec44f58fa12d6c45604051602001610dfd9190611aa3565b60405160208183030381529060405281565b5f60648210610e53576040517f08c379a0000000000000000000000000000000000000000000000000000000008152600401610e4a90611a6d565b60405180910390fd5b5f8260648110610e6657610e65611684565b5b01549050919050565b60405180604001604052808381526020018281525060655f820151815f0155602082015181600101559050505050565b8060655f018190555050565b7f000000000000000000000000000000000000000000000000000000000000000081565b7f000000000000000000000000000000000000000000000000000000000000000081565b5f6064805490508210610f3b576040517f08c379a0000000000000000000000000000000000000000000000000000000008152600401610f3290611a6d565b60405180910390fd5b60648281548110610f4f57610f4e611684565b5b905f5260205f2001549050919050565b5f81604051602001610f719190611af6565b6040516020818303038152906040528051906020012083604051602001610f989190611af6565b6040516020818303038152906040528051906020012014905092915050565b508054610fc39061170b565b5f825580601f10610fd45750610ff1565b601f0160209004905f5260205f2090810190610ff09190611043565b5b50565b5080545f8255905f5260205f209081019061100f9190611043565b50565b60405180604001604052805f8152602001606081525090565b60405180604001604052805f81526020015f81525090565b5b8082111561105a575f815f905550600101611044565b5090565b5f819050919050565b6110708161105e565b82525050565b5f6020820190506110895f830184611067565b92915050565b5f80fd5b5f80fd5b6110a08161105e565b81146110aa575f80fd5b50565b5f813590506110bb81611097565b92915050565b5f602082840312156110d6576110d561108f565b5b5f6110e3848285016110ad565b91505092915050565b5f81519050919050565b5f82825260208201905092915050565b8281835e5f83830152505050565b5f601f19601f8301169050919050565b5f61112e826110ec565b61113881856110f6565b9350611148818560208601611106565b61115181611114565b840191505092915050565b5f6020820190508181035f8301526111748184611124565b905092915050565b5f80fd5b5f80fd5b5f80fd5b5f8083601f84011261119d5761119c61117c565b5b8235905067ffffffffffffffff8111156111ba576111b9611180565b5b6020830191508360018202830111156111d6576111d5611184565b5b9250929050565b5f805f604084860312156111f4576111f361108f565b5b5f611201868287016110ad565b935050602084013567ffffffffffffffff81111561122257611221611093565b5b61122e86828701611188565b92509250509250925092565b5f81519050919050565b5f82825260208201905092915050565b5f819050602082019050919050565b61126c8161105e565b82525050565b5f61127d8383611263565b60208301905092915050565b5f602082019050919050565b5f61129f8261123a565b6112a98185611244565b93506112b483611254565b805f5b838110156112e45781516112cb8882611272565b97506112d683611289565b9250506001810190506112b7565b5085935050505092915050565b5f6020820190508181035f8301526113098184611295565b905092915050565b5f81519050919050565b5f82825260208201905092915050565b5f819050602082019050919050565b5f82825260208201905092915050565b5f611354826110ec565b61135e818561133a565b935061136e818560208601611106565b61137781611114565b840191505092915050565b5f604083015f8301516113975f860182611263565b50602083015184820360208601526113af828261134a565b9150508091505092915050565b5f6113c78383611382565b905092915050565b5f602082019050919050565b5f6113e582611311565b6113ef818561131b565b9350836020820285016114018561132b565b805f5b8581101561143c578484038952815161141d85826113bc565b9450611428836113cf565b925060208a01995050600181019050611404565b50829750879550505050505092915050565b5f6020820190508181035f83015261146681846113db565b905092915050565b5f80604083850312156114845761148361108f565b5b5f611491858286016110ad565b92505060206114a2858286016110ad565b9150509250929050565b604082015f8201516114c05f850182611263565b5060208201516114d36020850182611263565b50505050565b5f6040820190506114ec5f8301846114ac565b92915050565b5f81519050919050565b5f82825260208201905092915050565b5f611516826114f2565b61152081856114fc565b9350611530818560208601611106565b61153981611114565b840191505092915050565b5f6020820190508181035f83015261155c818461150c565b905092915050565b5f73ffffffffffffffffffffffffffffffffffffffff82169050919050565b5f61158d82611564565b9050919050565b61159d81611583565b82525050565b5f6020820190506115b65f830184611594565b92915050565b7f737461636b20697320656d7074790000000000000000000000000000000000005f82015250565b5f6115f0600e836110f6565b91506115fb826115bc565b602082019050919050565b5f6020820190508181035f83015261161d816115e4565b9050919050565b7f4e487b71000000000000000000000000000000000000000000000000000000005f52601160045260245ffd5b5f61165b8261105e565b91506116668361105e565b925082820390508181111561167e5761167d611624565b5b92915050565b7f4e487b71000000000000000000000000000000000000000000000000000000005f52603260045260245ffd5b7f4e487b71000000000000000000000000000000000000000000000000000000005f52603160045260245ffd5b7f4e487b71000000000000000000000000000000000000000000000000000000005f52602260045260245ffd5b5f600282049050600182168061172257607f821691505b602082108103611735576117346116de565b5b50919050565b5f82905092915050565b7f4e487b71000000000000000000000000000000000000000000000000000000005f52604160045260245ffd5b5f819050815f5260205f209050919050565b5f6020601f8301049050919050565b5f82821b905092915050565b5f600883026117ce7fffffffffffffffffffffffffffffffffffffffffffffffffffffffffffffffff82611793565b6117d88683611793565b95508019841693508086168417925050509392505050565b5f819050919050565b5f61181361180e6118098461105e565b6117f0565b61105e565b9050919050565b5f819050919050565b61182c836117f9565b6118406118388261181a565b84845461179f565b825550505050565b5f90565b611854611848565b61185f818484611823565b505050565b5b81811015611882576118775f8261184c565b600181019050611865565b5050565b601f8211156118c75761189881611772565b6118a184611784565b810160208510156118b0578190505b6118c46118bc85611784565b830182611864565b50505b505050565b5f82821c905092915050565b5f6118e75f19846008026118cc565b1980831691505092915050565b5f6118ff83836118d8565b9150826002028217905092915050565b611919838361173b565b67ffffffffffffffff81111561193257611931611745565b5b61193c825461170b565b611947828285611886565b5f601f831160018114611974575f8415611962578287013590505b61196c85826118f4565b8655506119d3565b601f19841661198286611772565b5f5b828110156119a957848901358255600182019150602085019450602081019050611984565b868310156119c657848901356119c2601f8916826118d8565b8355505b6001600288020188555050505b50505050505050565b5f6119e68261105e565b91507fffffffffffffffffffffffffffffffffffffffffffffffffffffffffffffffff8203611a1857611a17611624565b5b600182019050919050565b7f6f7574206f6620696e64657800000000000000000000000000000000000000005f82015250565b5f611a57600c836110f6565b9150611a6282611a23565b602082019050919050565b5f6020820190508181035f830152611a8481611a4b565b9050919050565b5f819050919050565b611a9d81611a8b565b82525050565b5f602082019050611ab65f830184611a94565b92915050565b5f81905092915050565b5f611ad0826110ec565b611ada8185611abc565b9350611aea818560208601611106565b80840191505092915050565b5f611b018284611ac6565b91508190509291505056fea264697066735822122021cf9fa2a0adfb1f80487c9489697fc3d9a85b02270eee133c753792c5cacce464736f6c634300081a0033",
			"opcodes": "PUSH1 0xC0 PUSH1 0x40 MSTORE TIMESTAMP PUSH1 0x80 SWAP1 DUP2 MSTORE POP CALLVALUE DUP1 ISZERO PUSH1 0x15 JUMPI PUSH0 DUP1 REVERT JUMPDEST POP COINBASE PUSH20 0xFFFFFFFFFFFFFFFFFFFFFFFFFFFFFFFFFFFFFFFF AND PUSH1 0xA0 DUP2 PUSH20 0xFFFFFFFFFFFFFFFFFFFFFFFFFFFFFFFFFFFFFFFF AND DUP2 MSTORE POP POP PUSH1 0x80 MLOAD PUSH1 0xA0 MLOAD PUSH2 0x1B42 PUSH2 0x6B PUSH0 CODECOPY PUSH0 PUSH2 0xEAD ADD MSTORE PUSH0 PUSH2 0xED1 ADD MSTORE PUSH2 0x1B42 PUSH0 RETURN INVALID PUSH1 0x80 PUSH1 0x40 MSTORE CALLVALUE DUP1 ISZERO PUSH2 0xF JUMPI PUSH0 DUP1 REVERT JUMPDEST POP PUSH1 0x4 CALLDATASIZE LT PUSH2 0x14B JUMPI PUSH0 CALLDATALOAD PUSH1 0xE0 SHR DUP1 PUSH4 0x968C4209 GT PUSH2 0xC1 JUMPI DUP1 PUSH4 0xBABA1A77 GT PUSH2 0x7A JUMPI DUP1 PUSH4 0xBABA1A77 EQ PUSH2 0x3B5 JUMPI DUP1 PUSH4 0xC6A15CBC EQ PUSH2 0x3E5 JUMPI DUP1 PUSH4 0xD0E0BA95 EQ PUSH2 0x401 JUMPI DUP1 PUSH4 0xD5F39488 EQ PUSH2 0x41D JUMPI DUP1 PUSH4 0xD7D6F183 EQ PUSH2 0x43B JUMPI DUP1 PUSH4 0xFF0E8C1C EQ PUSH2 0x459 JUMPI PUSH2 0x14B JUMP JUMPDEST DUP1 PUSH4 0x968C4209 EQ PUSH2 0x2DF JUMPI DUP1 PUSH4 0x96DB9468 EQ PUSH2 0x2FD JUMPI DUP1 PUSH4 0xA38689FF EQ PUSH2 0x32D JUMPI DUP1 PUSH4 0xAD457199 EQ PUSH2 0x349 JUMPI DUP1 PUSH4 0xB439548D EQ PUSH2 0x379 JUMPI DUP1 PUSH4 0xB6F61649 EQ PUSH2 0x397 JUMPI PUSH2 0x14B JUMP JUMPDEST DUP1 PUSH4 0x37A8E4AE GT PUSH2 0x113 JUMPI DUP1 PUSH4 0x37A8E4AE EQ PUSH2 0x21B JUMPI DUP1 PUSH4 0x3AD3B3E4 EQ PUSH2 0x239 JUMPI DUP1 PUSH4 0x3DEC1E6F EQ PUSH2 0x257 JUMPI DUP1 PUSH4 0x422BEEBA EQ PUSH2 0x275 JUMPI DUP1 PUSH4 0x7C335B41 EQ PUSH2 0x291 JUMPI DUP1 PUSH4 0x84C01D8D EQ PUSH2 0x2C1 JUMPI PUSH2 0x14B JUMP JUMPDEST DUP1 PUSH4 0x155D69E9 EQ PUSH2 0x14F JUMPI DUP1 PUSH4 0x176B052B EQ PUSH2 0x16D JUMPI DUP1 PUSH4 0x1ADAD020 EQ PUSH2 0x19D JUMPI DUP1 PUSH4 0x2927922E EQ PUSH2 0x1BB JUMPI DUP1 PUSH4 0x2F5E9EB3 EQ PUSH2 0x1EB JUMPI JUMPDEST PUSH0 DUP1 REVERT JUMPDEST PUSH2 0x157 PUSH2 0x489 JUMP JUMPDEST PUSH1 0x40 MLOAD PUSH2 0x164 SWAP2 SWAP1 PUSH2 0x1076 JUMP JUMPDEST PUSH1 0x40 MLOAD DUP1 SWAP2 SUB SWAP1 RETURN JUMPDEST PUSH2 0x187 PUSH1 0x4 DUP1 CALLDATASIZE SUB DUP2 ADD SWAP1 PUSH2 0x182 SWAP2 SWAP1 PUSH2 0x10C1 JUMP JUMPDEST PUSH2 0x52E JUMP JUMPDEST PUSH1 0x40 MLOAD PUSH2 0x194 SWAP2 SWAP1 PUSH2 0x115C JUMP JUMPDEST PUSH1 0x40 MLOAD DUP1 SWAP2 SUB SWAP1 RETURN JUMPDEST PUSH2 0x1A5 PUSH2 0x5C9 JUMP JUMPDEST PUSH1 0x40 MLOAD PUSH2 0x1B2 SWAP2 SWAP1 PUSH2 0x1076 JUMP JUMPDEST PUSH1 0x40 MLOAD DUP1 SWAP2 SUB SWAP1 RETURN JUMPDEST PUSH2 0x1D5 PUSH1 0x4 DUP1 CALLDATASIZE SUB DUP2 ADD SWAP1 PUSH2 0x1D0 SWAP2 SWAP1 PUSH2 0x11DD JUMP JUMPDEST PUSH2 0x5CE JUMP JUMPDEST PUSH1 0x40 MLOAD PUSH2 0x1E2 SWAP2 SWAP1 PUSH2 0x115C JUMP JUMPDEST PUSH1 0x40 MLOAD DUP1 SWAP2 SUB SWAP1 RETURN JUMPDEST PUSH2 0x205 PUSH1 0x4 DUP1 CALLDATASIZE SUB DUP2 ADD SWAP1 PUSH2 0x200 SWAP2 SWAP1 PUSH2 0x10C1 JUMP JUMPDEST PUSH2 0x6DB JUMP JUMPDEST PUSH1 0x40 MLOAD PUSH2 0x212 SWAP2 SWAP1 PUSH2 0x115C JUMP JUMPDEST PUSH1 0x40 MLOAD DUP1 SWAP2 SUB SWAP1 RETURN JUMPDEST PUSH2 0x223 PUSH2 0x805 JUMP JUMPDEST PUSH1 0x40 MLOAD PUSH2 0x230 SWAP2 SWAP1 PUSH2 0x12F1 JUMP JUMPDEST PUSH1 0x40 MLOAD DUP1 SWAP2 SUB SWAP1 RETURN JUMPDEST PUSH2 0x241 PUSH2 0x85B JUMP JUMPDEST PUSH1 0x40 MLOAD PUSH2 0x24E SWAP2 SWAP1 PUSH2 0x1076 JUMP JUMPDEST PUSH1 0x40 MLOAD DUP1 SWAP2 SUB SWAP1 RETURN JUMPDEST PUSH2 0x25F PUSH2 0x867 JUMP JUMPDEST PUSH1 0x40 MLOAD PUSH2 0x26C SWAP2 SWAP1 PUSH2 0x115C JUMP JUMPDEST PUSH1 0x40 MLOAD DUP1 SWAP2 SUB SWAP1 RETURN JUMPDEST PUSH2 0x28F PUSH1 0x4 DUP1 CALLDATASIZE SUB DUP2 ADD SWAP1 PUSH2 0x28A SWAP2 SWAP1 PUSH2 0x10C1 JUMP JUMPDEST PUSH2 0x8B1 JUMP JUMPDEST STOP JUMPDEST PUSH2 0x2AB PUSH1 0x4 DUP1 CALLDATASIZE SUB DUP2 ADD SWAP1 PUSH2 0x2A6 SWAP2 SWAP1 PUSH2 0x10C1 JUMP JUMPDEST PUSH2 0x8BE JUMP JUMPDEST PUSH1 0x40 MLOAD PUSH2 0x2B8 SWAP2 SWAP1 PUSH2 0x1076 JUMP JUMPDEST PUSH1 0x40 MLOAD DUP1 SWAP2 SUB SWAP1 RETURN JUMPDEST PUSH2 0x2C9 PUSH2 0x8F2 JUMP JUMPDEST PUSH1 0x40 MLOAD PUSH2 0x2D6 SWAP2 SWAP1 PUSH2 0x144E JUMP JUMPDEST PUSH1 0x40 MLOAD DUP1 SWAP2 SUB SWAP1 RETURN JUMPDEST PUSH2 0x2E7 PUSH2 0xC24 JUMP JUMPDEST PUSH1 0x40 MLOAD PUSH2 0x2F4 SWAP2 SWAP1 PUSH2 0x115C JUMP JUMPDEST PUSH1 0x40 MLOAD DUP1 SWAP2 SUB SWAP1 RETURN JUMPDEST PUSH2 0x317 PUSH1 0x4 DUP1 CALLDATASIZE SUB DUP2 ADD SWAP1 PUSH2 0x312 SWAP2 SWAP1 PUSH2 0x146E JUMP JUMPDEST PUSH2 0xC5D JUMP JUMPDEST PUSH1 0x40 MLOAD PUSH2 0x324 SWAP2 SWAP1 PUSH2 0x1076 JUMP JUMPDEST PUSH1 0x40 MLOAD DUP1 SWAP2 SUB SWAP1 RETURN JUMPDEST PUSH2 0x347 PUSH1 0x4 DUP1 CALLDATASIZE SUB DUP2 ADD SWAP1 PUSH2 0x342 SWAP2 SWAP1 PUSH2 0x146E JUMP JUMPDEST PUSH2 0xCDC JUMP JUMPDEST STOP JUMPDEST PUSH2 0x363 PUSH1 0x4 DUP1 CALLDATASIZE SUB DUP2 ADD SWAP1 PUSH2 0x35E SWAP2 SWAP1 PUSH2 0x146E JUMP JUMPDEST PUSH2 0xD0C JUMP JUMPDEST PUSH1 0x40 MLOAD PUSH2 0x370 SWAP2 SWAP1 PUSH2 0x1076 JUMP JUMPDEST PUSH1 0x40 MLOAD DUP1 SWAP2 SUB SWAP1 RETURN JUMPDEST PUSH2 0x381 PUSH2 0xD9F JUMP JUMPDEST PUSH1 0x40 MLOAD PUSH2 0x38E SWAP2 SWAP1 PUSH2 0x14D9 JUMP JUMPDEST PUSH1 0x40 MLOAD DUP1 SWAP2 SUB SWAP1 RETURN JUMPDEST PUSH2 0x39F PUSH2 0xDCC JUMP JUMPDEST PUSH1 0x40 MLOAD PUSH2 0x3AC SWAP2 SWAP1 PUSH2 0x1544 JUMP JUMPDEST PUSH1 0x40 MLOAD DUP1 SWAP2 SUB SWAP1 RETURN JUMPDEST PUSH2 0x3CF PUSH1 0x4 DUP1 CALLDATASIZE SUB DUP2 ADD SWAP1 PUSH2 0x3CA SWAP2 SWAP1 PUSH2 0x10C1 JUMP JUMPDEST PUSH2 0xE0F JUMP JUMPDEST PUSH1 0x40 MLOAD PUSH2 0x3DC SWAP2 SWAP1 PUSH2 0x1076 JUMP JUMPDEST PUSH1 0x40 MLOAD DUP1 SWAP2 SUB SWAP1 RETURN JUMPDEST PUSH2 0x3FF PUSH1 0x4 DUP1 CALLDATASIZE SUB DUP2 ADD SWAP1 PUSH2 0x3FA SWAP2 SWAP1 PUSH2 0x146E JUMP JUMPDEST PUSH2 0xE6F JUMP JUMPDEST STOP JUMPDEST PUSH2 0x41B PUSH1 0x4 DUP1 CALLDATASIZE SUB DUP2 ADD SWAP1 PUSH2 0x416 SWAP2 SWAP1 PUSH2 0x10C1 JUMP JUMPDEST PUSH2 0xE9F JUMP JUMPDEST STOP JUMPDEST PUSH2 0x425 PUSH2 0xEAB JUMP JUMPDEST PUSH1 0x40 MLOAD PUSH2 0x432 SWAP2 SWAP1 PUSH2 0x15A3 JUMP JUMPDEST PUSH1 0x40 MLOAD DUP1 SWAP2 SUB SWAP1 RETURN JUMPDEST PUSH2 0x443 PUSH2 0xECF JUMP JUMPDEST PUSH1 0x40 MLOAD PUSH2 0x450 SWAP2 SWAP1 PUSH2 0x1076 JUMP JUMPDEST PUSH1 0x40 MLOAD DUP1 SWAP2 SUB SWAP1 RETURN JUMPDEST PUSH2 0x473 PUSH1 0x4 DUP1 CALLDATASIZE SUB DUP2 ADD SWAP1 PUSH2 0x46E SWAP2 SWAP1 PUSH2 0x10C1 JUMP JUMPDEST PUSH2 0xEF3 JUMP JUMPDEST PUSH1 0x40 MLOAD PUSH2 0x480 SWAP2 SWAP1 PUSH2 0x1076 JUMP JUMPDEST PUSH1 0x40 MLOAD DUP1 SWAP2 SUB SWAP1 RETURN JUMPDEST PUSH0 DUP1 PUSH1 0x64 DUP1 SLOAD SWAP1 POP GT PUSH2 0x4D1 JUMPI PUSH1 0x40 MLOAD PUSH32 0x8C379A000000000000000000000000000000000000000000000000000000000 DUP2 MSTORE PUSH1 0x4 ADD PUSH2 0x4C8 SWAP1 PUSH2 0x1606 JUMP JUMPDEST PUSH1 0x40 MLOAD DUP1 SWAP2 SUB SWAP1 REVERT JUMPDEST PUSH0 PUSH1 0x64 PUSH1 0x1 PUSH1 0x64 DUP1 SLOAD SWAP1 POP PUSH2 0x4E6 SWAP2 SWAP1 PUSH2 0x1651 JUMP JUMPDEST DUP2 SLOAD DUP2 LT PUSH2 0x4F7 JUMPI PUSH2 0x4F6 PUSH2 0x1684 JUMP JUMPDEST JUMPDEST SWAP1 PUSH0 MSTORE PUSH1 0x20 PUSH0 KECCAK256 ADD SLOAD SWAP1 POP PUSH1 0x64 DUP1 SLOAD DUP1 PUSH2 0x514 JUMPI PUSH2 0x513 PUSH2 0x16B1 JUMP JUMPDEST JUMPDEST PUSH1 0x1 SWAP1 SUB DUP2 DUP2 SWAP1 PUSH0 MSTORE PUSH1 0x20 PUSH0 KECCAK256 ADD PUSH0 SWAP1 SSTORE SWAP1 SSTORE DUP1 SWAP2 POP POP SWAP1 JUMP JUMPDEST PUSH1 0x67 PUSH1 0x20 MSTORE DUP1 PUSH0 MSTORE PUSH1 0x40 PUSH0 KECCAK256 PUSH0 SWAP2 POP SWAP1 POP DUP1 SLOAD PUSH2 0x54A SWAP1 PUSH2 0x170B JUMP JUMPDEST DUP1 PUSH1 0x1F ADD PUSH1 0x20 DUP1 SWAP2 DIV MUL PUSH1 0x20 ADD PUSH1 0x40 MLOAD SWAP1 DUP2 ADD PUSH1 0x40 MSTORE DUP1 SWAP3 SWAP2 SWAP1 DUP2 DUP2 MSTORE PUSH1 0x20 ADD DUP3 DUP1 SLOAD PUSH2 0x576 SWAP1 PUSH2 0x170B JUMP JUMPDEST DUP1 ISZERO PUSH2 0x5C1 JUMPI DUP1 PUSH1 0x1F LT PUSH2 0x598 JUMPI PUSH2 0x100 DUP1 DUP4 SLOAD DIV MUL DUP4 MSTORE SWAP2 PUSH1 0x20 ADD SWAP2 PUSH2 0x5C1 JUMP JUMPDEST DUP3 ADD SWAP2 SWAP1 PUSH0 MSTORE PUSH1 0x20 PUSH0 KECCAK256 SWAP1 JUMPDEST DUP2 SLOAD DUP2 MSTORE SWAP1 PUSH1 0x1 ADD SWAP1 PUSH1 0x20 ADD DUP1 DUP4 GT PUSH2 0x5A4 JUMPI DUP3 SWAP1 SUB PUSH1 0x1F AND DUP3 ADD SWAP2 JUMPDEST POP POP POP POP POP DUP2 JUMP JUMPDEST PUSH1 0x64 DUP2 JUMP JUMPDEST PUSH1 0x60 PUSH0 PUSH1 0x67 PUSH0 DUP7 DUP2 MSTORE PUSH1 0x20 ADD SWAP1 DUP2 MSTORE PUSH1 0x20 ADD PUSH0 KECCAK256 DUP1 SLOAD PUSH2 0x5ED SWAP1 PUSH2 0x170B JUMP JUMPDEST DUP1 PUSH1 0x1F ADD PUSH1 0x20 DUP1 SWAP2 DIV MUL PUSH1 0x20 ADD PUSH1 0x40 MLOAD SWAP1 DUP2 ADD PUSH1 0x40 MSTORE DUP1 SWAP3 SWAP2 SWAP1 DUP2 DUP2 MSTORE PUSH1 0x20 ADD DUP3 DUP1 SLOAD PUSH2 0x619 SWAP1 PUSH2 0x170B JUMP JUMPDEST DUP1 ISZERO PUSH2 0x664 JUMPI DUP1 PUSH1 0x1F LT PUSH2 0x63B JUMPI PUSH2 0x100 DUP1 DUP4 SLOAD DIV MUL DUP4 MSTORE SWAP2 PUSH1 0x20 ADD SWAP2 PUSH2 0x664 JUMP JUMPDEST DUP3 ADD SWAP2 SWAP1 PUSH0 MSTORE PUSH1 0x20 PUSH0 KECCAK256 SWAP1 JUMPDEST DUP2 SLOAD DUP2 MSTORE SWAP1 PUSH1 0x1 ADD SWAP1 PUSH1 0x20 ADD DUP1 DUP4 GT PUSH2 0x647 JUMPI DUP3 SWAP1 SUB PUSH1 0x1F AND DUP3 ADD SWAP2 JUMPDEST POP POP POP POP POP SWAP1 POP DUP4 DUP4 PUSH1 0x67 PUSH0 DUP9 DUP2 MSTORE PUSH1 0x20 ADD SWAP1 DUP2 MSTORE PUSH1 0x20 ADD PUSH0 KECCAK256 SWAP2 DUP3 PUSH2 0x68B SWAP3 SWAP2 SWAP1 PUSH2 0x190F JUMP JUMPDEST POP PUSH2 0x6A4 DUP2 PUSH1 0x40 MLOAD DUP1 PUSH1 0x20 ADD PUSH1 0x40 MSTORE DUP1 PUSH0 DUP2 MSTORE POP PUSH2 0xF5F JUMP JUMPDEST ISZERO PUSH2 0x6D0 JUMPI PUSH1 0x68 DUP6 SWAP1 DUP1 PUSH1 0x1 DUP2 SLOAD ADD DUP1 DUP3 SSTORE DUP1 SWAP2 POP POP PUSH1 0x1 SWAP1 SUB SWAP1 PUSH0 MSTORE PUSH1 0x20 PUSH0 KECCAK256 ADD PUSH0 SWAP1 SWAP2 SWAP1 SWAP2 SWAP1 SWAP2 POP SSTORE JUMPDEST DUP1 SWAP2 POP POP SWAP4 SWAP3 POP POP POP JUMP JUMPDEST PUSH1 0x60 PUSH0 DUP1 PUSH0 SWAP1 POP JUMPDEST PUSH1 0x68 DUP1 SLOAD SWAP1 POP DUP2 LT ISZERO PUSH2 0x724 JUMPI PUSH1 0x68 DUP2 DUP2 SLOAD DUP2 LT PUSH2 0x704 JUMPI PUSH2 0x703 PUSH2 0x1684 JUMP JUMPDEST JUMPDEST SWAP1 PUSH0 MSTORE PUSH1 0x20 PUSH0 KECCAK256 ADD SLOAD DUP5 SUB PUSH2 0x717 JUMPI DUP1 SWAP2 POP JUMPDEST DUP1 DUP1 PUSH1 0x1 ADD SWAP2 POP POP PUSH2 0x6E3 JUMP JUMPDEST POP PUSH0 PUSH1 0x67 PUSH0 DUP6 DUP2 MSTORE PUSH1 0x20 ADD SWAP1 DUP2 MSTORE PUSH1 0x20 ADD PUSH0 KECCAK256 DUP1 SLOAD PUSH2 0x742 SWAP1 PUSH2 0x170B JUMP JUMPDEST DUP1 PUSH1 0x1F ADD PUSH1 0x20 DUP1 SWAP2 DIV MUL PUSH1 0x20 ADD PUSH1 0x40 MLOAD SWAP1 DUP2 ADD PUSH1 0x40 MSTORE DUP1 SWAP3 SWAP2 SWAP1 DUP2 DUP2 MSTORE PUSH1 0x20 ADD DUP3 DUP1 SLOAD PUSH2 0x76E SWAP1 PUSH2 0x170B JUMP JUMPDEST DUP1 ISZERO PUSH2 0x7B9 JUMPI DUP1 PUSH1 0x1F LT PUSH2 0x790 JUMPI PUSH2 0x100 DUP1 DUP4 SLOAD DIV MUL DUP4 MSTORE SWAP2 PUSH1 0x20 ADD SWAP2 PUSH2 0x7B9 JUMP JUMPDEST DUP3 ADD SWAP2 SWAP1 PUSH0 MSTORE PUSH1 0x20 PUSH0 KECCAK256 SWAP1 JUMPDEST DUP2 SLOAD DUP2 MSTORE SWAP1 PUSH1 0x1 ADD SWAP1 PUSH1 0x20 ADD DUP1 DUP4 GT PUSH2 0x79C JUMPI DUP3 SWAP1 SUB PUSH1 0x1F AND DUP3 ADD SWAP2 JUMPDEST POP POP POP POP POP SWAP1 POP PUSH1 0x68 DUP3 DUP2 SLOAD DUP2 LT PUSH2 0x7D4 JUMPI PUSH2 0x7D3 PUSH2 0x1684 JUMP JUMPDEST JUMPDEST SWAP1 PUSH0 MSTORE PUSH1 0x20 PUSH0 KECCAK256 ADD PUSH0 SWAP1 SSTORE PUSH1 0x67 PUSH0 DUP6 DUP2 MSTORE PUSH1 0x20 ADD SWAP1 DUP2 MSTORE PUSH1 0x20 ADD PUSH0 KECCAK256 PUSH0 PUSH2 0x7FB SWAP2 SWAP1 PUSH2 0xFB7 JUMP JUMPDEST DUP1 SWAP3 POP POP POP SWAP2 SWAP1 POP JUMP JUMPDEST PUSH1 0x60 PUSH1 0x64 DUP1 SLOAD DUP1 PUSH1 0x20 MUL PUSH1 0x20 ADD PUSH1 0x40 MLOAD SWAP1 DUP2 ADD PUSH1 0x40 MSTORE DUP1 SWAP3 SWAP2 SWAP1 DUP2 DUP2 MSTORE PUSH1 0x20 ADD DUP3 DUP1 SLOAD DUP1 ISZERO PUSH2 0x851 JUMPI PUSH1 0x20 MUL DUP3 ADD SWAP2 SWAP1 PUSH0 MSTORE PUSH1 0x20 PUSH0 KECCAK256 SWAP1 JUMPDEST DUP2 SLOAD DUP2 MSTORE PUSH1 0x20 ADD SWAP1 PUSH1 0x1 ADD SWAP1 DUP1 DUP4 GT PUSH2 0x83D JUMPI JUMPDEST POP POP POP POP POP SWAP1 POP SWAP1 JUMP JUMPDEST PUSH0 PUSH1 0x64 DUP1 SLOAD SWAP1 POP SWAP1 POP SWAP1 JUMP JUMPDEST PUSH1 0x60 PUSH1 0x64 PUSH0 PUSH2 0x876 SWAP2 SWAP1 PUSH2 0xFF4 JUMP JUMPDEST PUSH1 0x40 MLOAD DUP1 PUSH1 0x40 ADD PUSH1 0x40 MSTORE DUP1 PUSH1 0x7 DUP2 MSTORE PUSH1 0x20 ADD PUSH32 0x7375636365737300000000000000000000000000000000000000000000000000 DUP2 MSTORE POP SWAP1 POP SWAP1 JUMP JUMPDEST DUP1 PUSH1 0x65 PUSH1 0x1 ADD DUP2 SWAP1 SSTORE POP POP JUMP JUMPDEST PUSH0 PUSH1 0x64 DUP3 SWAP1 DUP1 PUSH1 0x1 DUP2 SLOAD ADD DUP1 DUP3 SSTORE DUP1 SWAP2 POP POP PUSH1 0x1 SWAP1 SUB SWAP1 PUSH0 MSTORE PUSH1 0x20 PUSH0 KECCAK256 ADD PUSH0 SWAP1 SWAP2 SWAP1 SWAP2 SWAP1 SWAP2 POP SSTORE PUSH1 0x64 DUP1 SLOAD SWAP1 POP SWAP1 POP SWAP2 SWAP1 POP JUMP JUMPDEST PUSH1 0x60 PUSH0 PUSH1 0x68 DUP1 SLOAD SWAP1 POP SWAP1 POP PUSH0 DUP2 PUSH8 0xFFFFFFFFFFFFFFFF DUP2 GT ISZERO PUSH2 0x918 JUMPI PUSH2 0x917 PUSH2 0x1745 JUMP JUMPDEST JUMPDEST PUSH1 0x40 MLOAD SWAP1 DUP1 DUP3 MSTORE DUP1 PUSH1 0x20 MUL PUSH1 0x20 ADD DUP3 ADD PUSH1 0x40 MSTORE DUP1 ISZERO PUSH2 0x951 JUMPI DUP2 PUSH1 0x20 ADD JUMPDEST PUSH2 0x93E PUSH2 0x1012 JUMP JUMPDEST DUP2 MSTORE PUSH1 0x20 ADD SWAP1 PUSH1 0x1 SWAP1 SUB SWAP1 DUP2 PUSH2 0x936 JUMPI SWAP1 POP JUMPDEST POP SWAP1 POP PUSH0 DUP1 PUSH0 SWAP1 POP JUMPDEST DUP4 DUP2 LT ISZERO PUSH2 0xB3A JUMPI PUSH0 PUSH1 0x68 DUP3 DUP2 SLOAD DUP2 LT PUSH2 0x977 JUMPI PUSH2 0x976 PUSH2 0x1684 JUMP JUMPDEST JUMPDEST SWAP1 PUSH0 MSTORE PUSH1 0x20 PUSH0 KECCAK256 ADD SLOAD SWAP1 POP PUSH1 0x40 MLOAD DUP1 PUSH1 0x40 ADD PUSH1 0x40 MSTORE DUP1 DUP3 DUP2 MSTORE PUSH1 0x20 ADD PUSH1 0x67 PUSH0 DUP5 DUP2 MSTORE PUSH1 0x20 ADD SWAP1 DUP2 MSTORE PUSH1 0x20 ADD PUSH0 KECCAK256 DUP1 SLOAD PUSH2 0x9AF SWAP1 PUSH2 0x170B JUMP JUMPDEST DUP1 PUSH1 0x1F ADD PUSH1 0x20 DUP1 SWAP2 DIV MUL PUSH1 0x20 ADD PUSH1 0x40 MLOAD SWAP1 DUP2 ADD PUSH1 0x40 MSTORE DUP1 SWAP3 SWAP2 SWAP1 DUP2 DUP2 MSTORE PUSH1 0x20 ADD DUP3 DUP1 SLOAD PUSH2 0x9DB SWAP1 PUSH2 0x170B JUMP JUMPDEST DUP1 ISZERO PUSH2 0xA26 JUMPI DUP1 PUSH1 0x1F LT PUSH2 0x9FD JUMPI PUSH2 0x100 DUP1 DUP4 SLOAD DIV MUL DUP4 MSTORE SWAP2 PUSH1 0x20 ADD SWAP2 PUSH2 0xA26 JUMP JUMPDEST DUP3 ADD SWAP2 SWAP1 PUSH0 MSTORE PUSH1 0x20 PUSH0 KECCAK256 SWAP1 JUMPDEST DUP2 SLOAD DUP2 MSTORE SWAP1 PUSH1 0x1 ADD SWAP1 PUSH1 0x20 ADD DUP1 DUP4 GT PUSH2 0xA09 JUMPI DUP3 SWAP1 SUB PUSH1 0x1F AND DUP3 ADD SWAP2 JUMPDEST POP POP POP POP POP DUP2 MSTORE POP DUP5 DUP4 DUP2 MLOAD DUP2 LT PUSH2 0xA41 JUMPI PUSH2 0xA40 PUSH2 0x1684 JUMP JUMPDEST JUMPDEST PUSH1 0x20 MUL PUSH1 0x20 ADD ADD DUP2 SWAP1 MSTORE POP PUSH0 DUP2 EQ PUSH2 0xB2C JUMPI DUP3 DUP1 PUSH2 0xA5E SWAP1 PUSH2 0x19DC JUMP JUMPDEST SWAP4 POP POP PUSH1 0x40 MLOAD DUP1 PUSH1 0x40 ADD PUSH1 0x40 MSTORE DUP1 DUP3 DUP2 MSTORE PUSH1 0x20 ADD PUSH1 0x67 PUSH0 DUP5 DUP2 MSTORE PUSH1 0x20 ADD SWAP1 DUP2 MSTORE PUSH1 0x20 ADD PUSH0 KECCAK256 DUP1 SLOAD PUSH2 0xA8E SWAP1 PUSH2 0x170B JUMP JUMPDEST DUP1 PUSH1 0x1F ADD PUSH1 0x20 DUP1 SWAP2 DIV MUL PUSH1 0x20 ADD PUSH1 0x40 MLOAD SWAP1 DUP2 ADD PUSH1 0x40 MSTORE DUP1 SWAP3 SWAP2 SWAP1 DUP2 DUP2 MSTORE PUSH1 0x20 ADD DUP3 DUP1 SLOAD PUSH2 0xABA SWAP1 PUSH2 0x170B JUMP JUMPDEST DUP1 ISZERO PUSH2 0xB05 JUMPI DUP1 PUSH1 0x1F LT PUSH2 0xADC JUMPI PUSH2 0x100 DUP1 DUP4 SLOAD DIV MUL DUP4 MSTORE SWAP2 PUSH1 0x20 ADD SWAP2 PUSH2 0xB05 JUMP JUMPDEST DUP3 ADD SWAP2 SWAP1 PUSH0 MSTORE PUSH1 0x20 PUSH0 KECCAK256 SWAP1 JUMPDEST DUP2 SLOAD DUP2 MSTORE SWAP1 PUSH1 0x1 ADD SWAP1 PUSH1 0x20 ADD DUP1 DUP4 GT PUSH2 0xAE8 JUMPI DUP3 SWAP1 SUB PUSH1 0x1F AND DUP3 ADD SWAP2 JUMPDEST POP POP POP POP POP DUP2 MSTORE POP DUP5 DUP4 DUP2 MLOAD DUP2 LT PUSH2 0xB20 JUMPI PUSH2 0xB1F PUSH2 0x1684 JUMP JUMPDEST JUMPDEST PUSH1 0x20 MUL PUSH1 0x20 ADD ADD DUP2 SWAP1 MSTORE POP JUMPDEST POP DUP1 DUP1 PUSH1 0x1 ADD SWAP2 POP POP PUSH2 0x95A JUMP JUMPDEST POP PUSH0 DUP2 PUSH8 0xFFFFFFFFFFFFFFFF DUP2 GT ISZERO PUSH2 0xB56 JUMPI PUSH2 0xB55 PUSH2 0x1745 JUMP JUMPDEST JUMPDEST PUSH1 0x40 MLOAD SWAP1 DUP1 DUP3 MSTORE DUP1 PUSH1 0x20 MUL PUSH1 0x20 ADD DUP3 ADD PUSH1 0x40 MSTORE DUP1 ISZERO PUSH2 0xB8F JUMPI DUP2 PUSH1 0x20 ADD JUMPDEST PUSH2 0xB7C PUSH2 0x1012 JUMP JUMPDEST DUP2 MSTORE PUSH1 0x20 ADD SWAP1 PUSH1 0x1 SWAP1 SUB SWAP1 DUP2 PUSH2 0xB74 JUMPI SWAP1 POP JUMPDEST POP SWAP1 POP PUSH0 DUP1 PUSH0 SWAP1 POP JUMPDEST DUP5 MLOAD DUP2 LT ISZERO PUSH2 0xC18 JUMPI PUSH0 DUP6 DUP3 DUP2 MLOAD DUP2 LT PUSH2 0xBB5 JUMPI PUSH2 0xBB4 PUSH2 0x1684 JUMP JUMPDEST JUMPDEST PUSH1 0x20 MUL PUSH1 0x20 ADD ADD MLOAD PUSH0 ADD MLOAD EQ PUSH2 0xC0B JUMPI DUP5 DUP2 DUP2 MLOAD DUP2 LT PUSH2 0xBD8 JUMPI PUSH2 0xBD7 PUSH2 0x1684 JUMP JUMPDEST JUMPDEST PUSH1 0x20 MUL PUSH1 0x20 ADD ADD MLOAD DUP4 DUP4 DUP1 PUSH2 0xBEC SWAP1 PUSH2 0x19DC JUMP JUMPDEST SWAP5 POP DUP2 MLOAD DUP2 LT PUSH2 0xBFF JUMPI PUSH2 0xBFE PUSH2 0x1684 JUMP JUMPDEST JUMPDEST PUSH1 0x20 MUL PUSH1 0x20 ADD ADD DUP2 SWAP1 MSTORE POP JUMPDEST DUP1 DUP1 PUSH1 0x1 ADD SWAP2 POP POP PUSH2 0xB98 JUMP JUMPDEST POP DUP2 SWAP6 POP POP POP POP POP POP SWAP1 JUMP JUMPDEST PUSH1 0x40 MLOAD DUP1 PUSH1 0x40 ADD PUSH1 0x40 MSTORE DUP1 PUSH1 0x5 DUP2 MSTORE PUSH1 0x20 ADD PUSH32 0x7368756169000000000000000000000000000000000000000000000000000000 DUP2 MSTORE POP DUP2 JUMP JUMPDEST PUSH0 PUSH1 0x64 DUP3 LT PUSH2 0xCA1 JUMPI PUSH1 0x40 MLOAD PUSH32 0x8C379A000000000000000000000000000000000000000000000000000000000 DUP2 MSTORE PUSH1 0x4 ADD PUSH2 0xC98 SWAP1 PUSH2 0x1A6D JUMP JUMPDEST PUSH1 0x40 MLOAD DUP1 SWAP2 SUB SWAP1 REVERT JUMPDEST PUSH0 DUP1 DUP4 PUSH1 0x64 DUP2 LT PUSH2 0xCB5 JUMPI PUSH2 0xCB4 PUSH2 0x1684 JUMP JUMPDEST JUMPDEST ADD SLOAD SWAP1 POP DUP4 PUSH0 DUP5 PUSH1 0x64 DUP2 LT PUSH2 0xCCD JUMPI PUSH2 0xCCC PUSH2 0x1684 JUMP JUMPDEST JUMPDEST ADD DUP2 SWAP1 SSTORE POP DUP1 SWAP2 POP POP SWAP3 SWAP2 POP POP JUMP JUMPDEST PUSH1 0x40 MLOAD DUP1 PUSH1 0x40 ADD PUSH1 0x40 MSTORE DUP1 DUP4 DUP2 MSTORE PUSH1 0x20 ADD DUP3 DUP2 MSTORE POP PUSH1 0x65 PUSH0 DUP3 ADD MLOAD DUP2 PUSH0 ADD SSTORE PUSH1 0x20 DUP3 ADD MLOAD DUP2 PUSH1 0x1 ADD SSTORE SWAP1 POP POP POP POP JUMP JUMPDEST PUSH0 PUSH1 0x64 DUP1 SLOAD SWAP1 POP DUP3 LT PUSH2 0xD54 JUMPI PUSH1 0x40 MLOAD PUSH32 0x8C379A000000000000000000000000000000000000000000000000000000000 DUP2 MSTORE PUSH1 0x4 ADD PUSH2 0xD4B SWAP1 PUSH2 0x1A6D JUMP JUMPDEST PUSH1 0x40 MLOAD DUP1 SWAP2 SUB SWAP1 REVERT JUMPDEST PUSH0 PUSH1 0x64 DUP4 DUP2 SLOAD DUP2 LT PUSH2 0xD69 JUMPI PUSH2 0xD68 PUSH2 0x1684 JUMP JUMPDEST JUMPDEST SWAP1 PUSH0 MSTORE PUSH1 0x20 PUSH0 KECCAK256 ADD SLOAD SWAP1 POP DUP4 PUSH1 0x64 DUP5 DUP2 SLOAD DUP2 LT PUSH2 0xD89 JUMPI PUSH2 0xD88 PUSH2 0x1684 JUMP JUMPDEST JUMPDEST SWAP1 PUSH0 MSTORE PUSH1 0x20 PUSH0 KECCAK256 ADD DUP2 SWAP1 SSTORE POP DUP1 SWAP2 POP POP SWAP3 SWAP2 POP POP JUMP JUMPDEST PUSH2 0xDA7 PUSH2 0x102B JUMP JUMPDEST PUSH1 0x65 PUSH1 0x40 MLOAD DUP1 PUSH1 0x40 ADD PUSH1 0x40 MSTORE SWAP1 DUP2 PUSH0 DUP3 ADD SLOAD DUP2 MSTORE PUSH1 0x20 ADD PUSH1 0x1 DUP3 ADD SLOAD DUP2 MSTORE POP POP SWAP1 POP SWAP1 JUMP JUMPDEST PUSH32 0x4E03657AEA45A94FC7D47BA826C8D667C0D1E6E33A64A036EC44F58FA12D6C45 PUSH1 0x40 MLOAD PUSH1 0x20 ADD PUSH2 0xDFD SWAP2 SWAP1 PUSH2 0x1AA3 JUMP JUMPDEST PUSH1 0x40 MLOAD PUSH1 0x20 DUP2 DUP4 SUB SUB DUP2 MSTORE SWAP1 PUSH1 0x40 MSTORE DUP2 JUMP JUMPDEST PUSH0 PUSH1 0x64 DUP3 LT PUSH2 0xE53 JUMPI PUSH1 0x40 MLOAD PUSH32 0x8C379A000000000000000000000000000000000000000000000000000000000 DUP2 MSTORE PUSH1 0x4 ADD PUSH2 0xE4A SWAP1 PUSH2 0x1A6D JUMP JUMPDEST PUSH1 0x40 MLOAD DUP1 SWAP2 SUB SWAP1 REVERT JUMPDEST PUSH0 DUP3 PUSH1 0x64 DUP2 LT PUSH2 0xE66 JUMPI PUSH2 0xE65 PUSH2 0x1684 JUMP JUMPDEST JUMPDEST ADD SLOAD SWAP1 POP SWAP2 SWAP1 POP JUMP JUMPDEST PUSH1 0x40 MLOAD DUP1 PUSH1 0x40 ADD PUSH1 0x40 MSTORE DUP1 DUP4 DUP2 MSTORE PUSH1 0x20 ADD DUP3 DUP2 MSTORE POP PUSH1 0x65 PUSH0 DUP3 ADD MLOAD DUP2 PUSH0 ADD SSTORE PUSH1 0x20 DUP3 ADD MLOAD DUP2 PUSH1 0x1 ADD SSTORE SWAP1 POP POP POP POP JUMP JUMPDEST DUP1 PUSH1 0x65 PUSH0 ADD DUP2 SWAP1 SSTORE POP POP JUMP JUMPDEST PUSH32 0x0 DUP2 JUMP JUMPDEST PUSH32 0x0 DUP2 JUMP JUMPDEST PUSH0 PUSH1 0x64 DUP1 SLOAD SWAP1 POP DUP3 LT PUSH2 0xF3B JUMPI PUSH1 0x40 MLOAD PUSH32 0x8C379A000000000000000000000000000000000000000000000000000000000 DUP2 MSTORE PUSH1 0x4 ADD PUSH2 0xF32 SWAP1 PUSH2 0x1A6D JUMP JUMPDEST PUSH1 0x40 MLOAD DUP1 SWAP2 SUB SWAP1 REVERT JUMPDEST PUSH1 0x64 DUP3 DUP2 SLOAD DUP2 LT PUSH2 0xF4F JUMPI PUSH2 0xF4E PUSH2 0x1684 JUMP JUMPDEST JUMPDEST SWAP1 PUSH0 MSTORE PUSH1 0x20 PUSH0 KECCAK256 ADD SLOAD SWAP1 POP SWAP2 SWAP1 POP JUMP JUMPDEST PUSH0 DUP2 PUSH1 0x40 MLOAD PUSH1 0x20 ADD PUSH2 0xF71 SWAP2 SWAP1 PUSH2 0x1AF6 JUMP JUMPDEST PUSH1 0x40 MLOAD PUSH1 0x20 DUP2 DUP4 SUB SUB DUP2 MSTORE SWAP1 PUSH1 0x40 MSTORE DUP1 MLOAD SWAP1 PUSH1 0x20 ADD KECCAK256 DUP4 PUSH1 0x40 MLOAD PUSH1 0x20 ADD PUSH2 0xF98 SWAP2 SWAP1 PUSH2 0x1AF6 JUMP JUMPDEST PUSH1 0x40 MLOAD PUSH1 0x20 DUP2 DUP4 SUB SUB DUP2 MSTORE SWAP1 PUSH1 0x40 MSTORE DUP1 MLOAD SWAP1 PUSH1 0x20 ADD KECCAK256 EQ SWAP1 POP SWAP3 SWAP2 POP POP JUMP JUMPDEST POP DUP1 SLOAD PUSH2 0xFC3 SWAP1 PUSH2 0x170B JUMP JUMPDEST PUSH0 DUP3 SSTORE DUP1 PUSH1 0x1F LT PUSH2 0xFD4 JUMPI POP PUSH2 0xFF1 JUMP JUMPDEST PUSH1 0x1F ADD PUSH1 0x20 SWAP1 DIV SWAP1 PUSH0 MSTORE PUSH1 0x20 PUSH0 KECCAK256 SWAP1 DUP2 ADD SWAP1 PUSH2 0xFF0 SWAP2 SWAP1 PUSH2 0x1043 JUMP JUMPDEST JUMPDEST POP JUMP JUMPDEST POP DUP1 SLOAD PUSH0 DUP3 SSTORE SWAP1 PUSH0 MSTORE PUSH1 0x20 PUSH0 KECCAK256 SWAP1 DUP2 ADD SWAP1 PUSH2 0x100F SWAP2 SWAP1 PUSH2 0x1043 JUMP JUMPDEST POP JUMP JUMPDEST PUSH1 0x40 MLOAD DUP1 PUSH1 0x40 ADD PUSH1 0x40 MSTORE DUP1 PUSH0 DUP2 MSTORE PUSH1 0x20 ADD PUSH1 0x60 DUP2 MSTORE POP SWAP1 JUMP JUMPDEST PUSH1 0x40 MLOAD DUP1 PUSH1 0x40 ADD PUSH1 0x40 MSTORE DUP1 PUSH0 DUP2 MSTORE PUSH1 0x20 ADD PUSH0 DUP2 MSTORE POP SWAP1 JUMP JUMPDEST JUMPDEST DUP1 DUP3 GT ISZERO PUSH2 0x105A JUMPI PUSH0 DUP2 PUSH0 SWAP1 SSTORE POP PUSH1 0x1 ADD PUSH2 0x1044 JUMP JUMPDEST POP SWAP1 JUMP JUMPDEST PUSH0 DUP2 SWAP1 POP SWAP2 SWAP1 POP JUMP JUMPDEST PUSH2 0x1070 DUP2 PUSH2 0x105E JUMP JUMPDEST DUP3 MSTORE POP POP JUMP JUMPDEST PUSH0 PUSH1 0x20 DUP3 ADD SWAP1 POP PUSH2 0x1089 PUSH0 DUP4 ADD DUP5 PUSH2 0x1067 JUMP JUMPDEST SWAP3 SWAP2 POP POP JUMP JUMPDEST PUSH0 DUP1 REVERT JUMPDEST PUSH0 DUP1 REVERT JUMPDEST PUSH2 0x10A0 DUP2 PUSH2 0x105E JUMP JUMPDEST DUP2 EQ PUSH2 0x10AA JUMPI PUSH0 DUP1 REVERT JUMPDEST POP JUMP JUMPDEST PUSH0 DUP2 CALLDATALOAD SWAP1 POP PUSH2 0x10BB DUP2 PUSH2 0x1097 JUMP JUMPDEST SWAP3 SWAP2 POP POP JUMP JUMPDEST PUSH0 PUSH1 0x20 DUP3 DUP5 SUB SLT ISZERO PUSH2 0x10D6 JUMPI PUSH2 0x10D5 PUSH2 0x108F JUMP JUMPDEST JUMPDEST PUSH0 PUSH2 0x10E3 DUP5 DUP3 DUP6 ADD PUSH2 0x10AD JUMP JUMPDEST SWAP2 POP POP SWAP3 SWAP2 POP POP JUMP JUMPDEST PUSH0 DUP2 MLOAD SWAP1 POP SWAP2 SWAP1 POP JUMP JUMPDEST PUSH0 DUP3 DUP3 MSTORE PUSH1 0x20 DUP3 ADD SWAP1 POP SWAP3 SWAP2 POP POP JUMP JUMPDEST DUP3 DUP2 DUP4 MCOPY PUSH0 DUP4 DUP4 ADD MSTORE POP POP POP JUMP JUMPDEST PUSH0 PUSH1 0x1F NOT PUSH1 0x1F DUP4 ADD AND SWAP1 POP SWAP2 SWAP1 POP JUMP JUMPDEST PUSH0 PUSH2 0x112E DUP3 PUSH2 0x10EC JUMP JUMPDEST PUSH2 0x1138 DUP2 DUP6 PUSH2 0x10F6 JUMP JUMPDEST SWAP4 POP PUSH2 0x1148 DUP2 DUP6 PUSH1 0x20 DUP7 ADD PUSH2 0x1106 JUMP JUMPDEST PUSH2 0x1151 DUP2 PUSH2 0x1114 JUMP JUMPDEST DUP5 ADD SWAP2 POP POP SWAP3 SWAP2 POP POP JUMP JUMPDEST PUSH0 PUSH1 0x20 DUP3 ADD SWAP1 POP DUP2 DUP2 SUB PUSH0 DUP4 ADD MSTORE PUSH2 0x1174 DUP2 DUP5 PUSH2 0x1124 JUMP JUMPDEST SWAP1 POP SWAP3 SWAP2 POP POP JUMP JUMPDEST PUSH0 DUP1 REVERT JUMPDEST PUSH0 DUP1 REVERT JUMPDEST PUSH0 DUP1 REVERT JUMPDEST PUSH0 DUP1 DUP4 PUSH1 0x1F DUP5 ADD SLT PUSH2 0x119D JUMPI PUSH2 0x119C PUSH2 0x117C JUMP JUMPDEST JUMPDEST DUP3 CALLDATALOAD SWAP1 POP PUSH8 0xFFFFFFFFFFFFFFFF DUP2 GT ISZERO PUSH2 0x11BA JUMPI PUSH2 0x11B9 PUSH2 0x1180 JUMP JUMPDEST JUMPDEST PUSH1 0x20 DUP4 ADD SWAP2 POP DUP4 PUSH1 0x1 DUP3 MUL DUP4 ADD GT ISZERO PUSH2 0x11D6 JUMPI PUSH2 0x11D5 PUSH2 0x1184 JUMP JUMPDEST JUMPDEST SWAP3 POP SWAP3 SWAP1 POP JUMP JUMPDEST PUSH0 DUP1 PUSH0 PUSH1 0x40 DUP5 DUP7 SUB SLT ISZERO PUSH2 0x11F4 JUMPI PUSH2 0x11F3 PUSH2 0x108F JUMP JUMPDEST JUMPDEST PUSH0 PUSH2 0x1201 DUP7 DUP3 DUP8 ADD PUSH2 0x10AD JUMP JUMPDEST SWAP4 POP POP PUSH1 0x20 DUP5 ADD CALLDATALOAD PUSH8 0xFFFFFFFFFFFFFFFF DUP2 GT ISZERO PUSH2 0x1222 JUMPI PUSH2 0x1221 PUSH2 0x1093 JUMP JUMPDEST JUMPDEST PUSH2 0x122E DUP7 DUP3 DUP8 ADD PUSH2 0x1188 JUMP JUMPDEST SWAP3 POP SWAP3 POP POP SWAP3 POP SWAP3 POP SWAP3 JUMP JUMPDEST PUSH0 DUP2 MLOAD SWAP1 POP SWAP2 SWAP1 POP JUMP JUMPDEST PUSH0 DUP3 DUP3 MSTORE PUSH1 0x20 DUP3 ADD SWAP1 POP SWAP3 SWAP2 POP POP JUMP JUMPDEST PUSH0 DUP2 SWAP1 POP PUSH1 0x20 DUP3 ADD SWAP1 POP SWAP2 SWAP1 POP JUMP JUMPDEST PUSH2 0x126C DUP2 PUSH2 0x105E JUMP JUMPDEST DUP3 MSTORE POP POP JUMP JUMPDEST PUSH0 PUSH2 0x127D DUP4 DUP4 PUSH2 0x1263 JUMP JUMPDEST PUSH1 0x20 DUP4 ADD SWAP1 POP SWAP3 SWAP2 POP POP JUMP JUMPDEST PUSH0 PUSH1 0x20 DUP3 ADD SWAP1 POP SWAP2 SWAP1 POP JUMP JUMPDEST PUSH0 PUSH2 0x129F DUP3 PUSH2 0x123A JUMP JUMPDEST PUSH2 0x12A9 DUP2 DUP6 PUSH2 0x1244 JUMP JUMPDEST SWAP4 POP PUSH2 0x12B4 DUP4 PUSH2 0x1254 JUMP JUMPDEST DUP1 PUSH0 JUMPDEST DUP4 DUP2 LT ISZERO PUSH2 0x12E4 JUMPI DUP2 MLOAD PUSH2 0x12CB DUP9 DUP3 PUSH2 0x1272 JUMP JUMPDEST SWAP8 POP PUSH2 0x12D6 DUP4 PUSH2 0x1289 JUMP JUMPDEST SWAP3 POP POP PUSH1 0x1 DUP2 ADD SWAP1 POP PUSH2 0x12B7 JUMP JUMPDEST POP DUP6 SWAP4 POP POP POP POP SWAP3 SWAP2 POP POP JUMP JUMPDEST PUSH0 PUSH1 0x20 DUP3 ADD SWAP1 POP DUP2 DUP2 SUB PUSH0 DUP4 ADD MSTORE PUSH2 0x1309 DUP2 DUP5 PUSH2 0x1295 JUMP JUMPDEST SWAP1 POP SWAP3 SWAP2 POP POP JUMP JUMPDEST PUSH0 DUP2 MLOAD SWAP1 POP SWAP2 SWAP1 POP JUMP JUMPDEST PUSH0 DUP3 DUP3 MSTORE PUSH1 0x20 DUP3 ADD SWAP1 POP SWAP3 SWAP2 POP POP JUMP JUMPDEST PUSH0 DUP2 SWAP1 POP PUSH1 0x20 DUP3 ADD SWAP1 POP SWAP2 SWAP1 POP JUMP JUMPDEST PUSH0 DUP3 DUP3 MSTORE PUSH1 0x20 DUP3 ADD SWAP1 POP SWAP3 SWAP2 POP POP JUMP JUMPDEST PUSH0 PUSH2 0x1354 DUP3 PUSH2 0x10EC JUMP JUMPDEST PUSH2 0x135E DUP2 DUP6 PUSH2 0x133A JUMP JUMPDEST SWAP4 POP PUSH2 0x136E DUP2 DUP6 PUSH1 0x20 DUP7 ADD PUSH2 0x1106 JUMP JUMPDEST PUSH2 0x1377 DUP2 PUSH2 0x1114 JUMP JUMPDEST DUP5 ADD SWAP2 POP POP SWAP3 SWAP2 POP POP JUMP JUMPDEST PUSH0 PUSH1 0x40 DUP4 ADD PUSH0 DUP4 ADD MLOAD PUSH2 0x1397 PUSH0 DUP7 ADD DUP3 PUSH2 0x1263 JUMP JUMPDEST POP PUSH1 0x20 DUP4 ADD MLOAD DUP5 DUP3 SUB PUSH1 0x20 DUP7 ADD MSTORE PUSH2 0x13AF DUP3 DUP3 PUSH2 0x134A JUMP JUMPDEST SWAP2 POP POP DUP1 SWAP2 POP POP SWAP3 SWAP2 POP POP JUMP JUMPDEST PUSH0 PUSH2 0x13C7 DUP4 DUP4 PUSH2 0x1382 JUMP JUMPDEST SWAP1 POP SWAP3 SWAP2 POP POP JUMP JUMPDEST PUSH0 PUSH1 0x20 DUP3 ADD SWAP1 POP SWAP2 SWAP1 POP JUMP JUMPDEST PUSH0 PUSH2 0x13E5 DUP3 PUSH2 0x1311 JUMP JUMPDEST PUSH2 0x13EF DUP2 DUP6 PUSH2 0x131B JUMP JUMPDEST SWAP4 POP DUP4 PUSH1 0x20 DUP3 MUL DUP6 ADD PUSH2 0x1401 DUP6 PUSH2 0x132B JUMP JUMPDEST DUP1 PUSH0 JUMPDEST DUP6 DUP2 LT ISZERO PUSH2 0x143C JUMPI DUP5 DUP5 SUB DUP10 MSTORE DUP2 MLOAD PUSH2 0x141D DUP6 DUP3 PUSH2 0x13BC JUMP JUMPDEST SWAP5 POP PUSH2 0x1428 DUP4 PUSH2 0x13CF JUMP JUMPDEST SWAP3 POP PUSH1 0x20 DUP11 ADD SWAP10 POP POP PUSH1 0x1 DUP2 ADD SWAP1 POP PUSH2 0x1404 JUMP JUMPDEST POP DUP3 SWAP8 POP DUP8 SWAP6 POP POP POP POP POP POP SWAP3 SWAP2 POP POP JUMP JUMPDEST PUSH0 PUSH1 0x20 DUP3 ADD SWAP1 POP DUP2 DUP2 SUB PUSH0 DUP4 ADD MSTORE PUSH2 0x1466 DUP2 DUP5 PUSH2 0x13DB JUMP JUMPDEST SWAP1 POP SWAP3 SWAP2 POP POP JUMP JUMPDEST PUSH0 DUP1 PUSH1 0x40 DUP4 DUP6 SUB SLT ISZERO PUSH2 0x1484 JUMPI PUSH2 0x1483 PUSH2 0x108F JUMP JUMPDEST JUMPDEST PUSH0 PUSH2 0x1491 DUP6 DUP3 DUP7 ADD PUSH2 0x10AD JUMP JUMPDEST SWAP3 POP POP PUSH1 0x20 PUSH2 0x14A2 DUP6 DUP3 DUP7 ADD PUSH2 0x10AD JUMP JUMPDEST SWAP2 POP POP SWAP3 POP SWAP3 SWAP1 POP JUMP JUMPDEST PUSH1 0x40 DUP3 ADD PUSH0 DUP3 ADD MLOAD PUSH2 0x14C0 PUSH0 DUP6 ADD DUP3 PUSH2 0x1263 JUMP JUMPDEST POP PUSH1 0x20 DUP3 ADD MLOAD PUSH2 0x14D3 PUSH1 0x20 DUP6 ADD DUP3 PUSH2 0x1263 JUMP JUMPDEST POP POP POP POP JUMP JUMPDEST PUSH0 PUSH1 0x40 DUP3 ADD SWAP1 POP PUSH2 0x14EC PUSH0 DUP4 ADD DUP5 PUSH2 0x14AC JUMP JUMPDEST SWAP3 SWAP2 POP POP JUMP JUMPDEST PUSH0 DUP2 MLOAD SWAP1 POP SWAP2 SWAP1 POP JUMP JUMPDEST PUSH0 DUP3 DUP3 MSTORE PUSH1 0x20 DUP3 ADD SWAP1 POP SWAP3 SWAP2 POP POP JUMP JUMPDEST PUSH0 PUSH2 0x1516 DUP3 PUSH2 0x14F2 JUMP JUMPDEST PUSH2 0x1520 DUP2 DUP6 PUSH2 0x14FC JUMP JUMPDEST SWAP4 POP PUSH2 0x1530 DUP2 DUP6 PUSH1 0x20 DUP7 ADD PUSH2 0x1106 JUMP JUMPDEST PUSH2 0x1539 DUP2 PUSH2 0x1114 JUMP JUMPDEST DUP5 ADD SWAP2 POP POP SWAP3 SWAP2 POP POP JUMP JUMPDEST PUSH0 PUSH1 0x20 DUP3 ADD SWAP1 POP DUP2 DUP2 SUB PUSH0 DUP4 ADD MSTORE PUSH2 0x155C DUP2 DUP5 PUSH2 0x150C JUMP JUMPDEST SWAP1 POP SWAP3 SWAP2 POP POP JUMP JUMPDEST PUSH0 PUSH20 0xFFFFFFFFFFFFFFFFFFFFFFFFFFFFFFFFFFFFFFFF DUP3 AND SWAP1 POP SWAP2 SWAP1 POP JUMP JUMPDEST PUSH0 PUSH2 0x158D DUP3 PUSH2 0x1564 JUMP JUMPDEST SWAP1 POP SWAP2 SWAP1 POP JUMP JUMPDEST PUSH2 0x159D DUP2 PUSH2 0x1583 JUMP JUMPDEST DUP3 MSTORE POP POP JUMP JUMPDEST PUSH0 PUSH1 0x20 DUP3 ADD SWAP1 POP PUSH2 0x15B6 PUSH0 DUP4 ADD DUP5 PUSH2 0x1594 JUMP JUMPDEST SWAP3 SWAP2 POP POP JUMP JUMPDEST PUSH32 0x737461636B20697320656D707479000000000000000000000000000000000000 PUSH0 DUP3 ADD MSTORE POP JUMP JUMPDEST PUSH0 PUSH2 0x15F0 PUSH1 0xE DUP4 PUSH2 0x10F6 JUMP JUMPDEST SWAP2 POP PUSH2 0x15FB DUP3 PUSH2 0x15BC JUMP JUMPDEST PUSH1 0x20 DUP3 ADD SWAP1 POP SWAP2 SWAP1 POP JUMP JUMPDEST PUSH0 PUSH1 0x20 DUP3 ADD SWAP1 POP DUP2 DUP2 SUB PUSH0 DUP4 ADD MSTORE PUSH2 0x161D DUP2 PUSH2 0x15E4 JUMP JUMPDEST SWAP1 POP SWAP2 SWAP1 POP JUMP JUMPDEST PUSH32 0x4E487B7100000000000000000000000000000000000000000000000000000000 PUSH0 MSTORE PUSH1 0x11 PUSH1 0x4 MSTORE PUSH1 0x24 PUSH0 REVERT JUMPDEST PUSH0 PUSH2 0x165B DUP3 PUSH2 0x105E JUMP JUMPDEST SWAP2 POP PUSH2 0x1666 DUP4 PUSH2 0x105E JUMP JUMPDEST SWAP3 POP DUP3 DUP3 SUB SWAP1 POP DUP2 DUP2 GT ISZERO PUSH2 0x167E JUMPI PUSH2 0x167D PUSH2 0x1624 JUMP JUMPDEST JUMPDEST SWAP3 SWAP2 POP POP JUMP JUMPDEST PUSH32 0x4E487B7100000000000000000000000000000000000000000000000000000000 PUSH0 MSTORE PUSH1 0x32 PUSH1 0x4 MSTORE PUSH1 0x24 PUSH0 REVERT JUMPDEST PUSH32 0x4E487B7100000000000000000000000000000000000000000000000000000000 PUSH0 MSTORE PUSH1 0x31 PUSH1 0x4 MSTORE PUSH1 0x24 PUSH0 REVERT JUMPDEST PUSH32 0x4E487B7100000000000000000000000000000000000000000000000000000000 PUSH0 MSTORE PUSH1 0x22 PUSH1 0x4 MSTORE PUSH1 0x24 PUSH0 REVERT JUMPDEST PUSH0 PUSH1 0x2 DUP3 DIV SWAP1 POP PUSH1 0x1 DUP3 AND DUP1 PUSH2 0x1722 JUMPI PUSH1 0x7F DUP3 AND SWAP2 POP JUMPDEST PUSH1 0x20 DUP3 LT DUP2 SUB PUSH2 0x1735 JUMPI PUSH2 0x1734 PUSH2 0x16DE JUMP JUMPDEST JUMPDEST POP SWAP2 SWAP1 POP JUMP JUMPDEST PUSH0 DUP3 SWAP1 POP SWAP3 SWAP2 POP POP JUMP JUMPDEST PUSH32 0x4E487B7100000000000000000000000000000000000000000000000000000000 PUSH0 MSTORE PUSH1 0x41 PUSH1 0x4 MSTORE PUSH1 0x24 PUSH0 REVERT JUMPDEST PUSH0 DUP2 SWAP1 POP DUP2 PUSH0 MSTORE PUSH1 0x20 PUSH0 KECCAK256 SWAP1 POP SWAP2 SWAP1 POP JUMP JUMPDEST PUSH0 PUSH1 0x20 PUSH1 0x1F DUP4 ADD DIV SWAP1 POP SWAP2 SWAP1 POP JUMP JUMPDEST PUSH0 DUP3 DUP3 SHL SWAP1 POP SWAP3 SWAP2 POP POP JUMP JUMPDEST PUSH0 PUSH1 0x8 DUP4 MUL PUSH2 0x17CE PUSH32 0xFFFFFFFFFFFFFFFFFFFFFFFFFFFFFFFFFFFFFFFFFFFFFFFFFFFFFFFFFFFFFFFF DUP3 PUSH2 0x1793 JUMP JUMPDEST PUSH2 0x17D8 DUP7 DUP4 PUSH2 0x1793 JUMP JUMPDEST SWAP6 POP DUP1 NOT DUP5 AND SWAP4 POP DUP1 DUP7 AND DUP5 OR SWAP3 POP POP POP SWAP4 SWAP3 POP POP POP JUMP JUMPDEST PUSH0 DUP2 SWAP1 POP SWAP2 SWAP1 POP JUMP JUMPDEST PUSH0 PUSH2 0x1813 PUSH2 0x180E PUSH2 0x1809 DUP5 PUSH2 0x105E JUMP JUMPDEST PUSH2 0x17F0 JUMP JUMPDEST PUSH2 0x105E JUMP JUMPDEST SWAP1 POP SWAP2 SWAP1 POP JUMP JUMPDEST PUSH0 DUP2 SWAP1 POP SWAP2 SWAP1 POP JUMP JUMPDEST PUSH2 0x182C DUP4 PUSH2 0x17F9 JUMP JUMPDEST PUSH2 0x1840 PUSH2 0x1838 DUP3 PUSH2 0x181A JUMP JUMPDEST DUP5 DUP5 SLOAD PUSH2 0x179F JUMP JUMPDEST DUP3 SSTORE POP POP POP POP JUMP JUMPDEST PUSH0 SWAP1 JUMP JUMPDEST PUSH2 0x1854 PUSH2 0x1848 JUMP JUMPDEST PUSH2 0x185F DUP2 DUP5 DUP5 PUSH2 0x1823 JUMP JUMPDEST POP POP POP JUMP JUMPDEST JUMPDEST DUP2 DUP2 LT ISZERO PUSH2 0x1882 JUMPI PUSH2 0x1877 PUSH0 DUP3 PUSH2 0x184C JUMP JUMPDEST PUSH1 0x1 DUP2 ADD SWAP1 POP PUSH2 0x1865 JUMP JUMPDEST POP POP JUMP JUMPDEST PUSH1 0x1F DUP3 GT ISZERO PUSH2 0x18C7 JUMPI PUSH2 0x1898 DUP2 PUSH2 0x1772 JUMP JUMPDEST PUSH2 0x18A1 DUP5 PUSH2 0x1784 JUMP JUMPDEST DUP2 ADD PUSH1 0x20 DUP6 LT ISZERO PUSH2 0x18B0 JUMPI DUP2 SWAP1 POP JUMPDEST PUSH2 0x18C4 PUSH2 0x18BC DUP6 PUSH2 0x1784 JUMP JUMPDEST DUP4 ADD DUP3 PUSH2 0x1864 JUMP JUMPDEST POP POP JUMPDEST POP POP POP JUMP JUMPDEST PUSH0 DUP3 DUP3 SHR SWAP1 POP SWAP3 SWAP2 POP POP JUMP JUMPDEST PUSH0 PUSH2 0x18E7 PUSH0 NOT DUP5 PUSH1 0x8 MUL PUSH2 0x18CC JUMP JUMPDEST NOT DUP1 DUP4 AND SWAP2 POP POP SWAP3 SWAP2 POP POP JUMP JUMPDEST PUSH0 PUSH2 0x18FF DUP4 DUP4 PUSH2 0x18D8 JUMP JUMPDEST SWAP2 POP DUP3 PUSH1 0x2 MUL DUP3 OR SWAP1 POP SWAP3 SWAP2 POP POP JUMP JUMPDEST PUSH2 0x1919 DUP4 DUP4 PUSH2 0x173B JUMP JUMPDEST PUSH8 0xFFFFFFFFFFFFFFFF DUP2 GT ISZERO PUSH2 0x1932 JUMPI PUSH2 0x1931 PUSH2 0x1745 JUMP JUMPDEST JUMPDEST PUSH2 0x193C DUP3 SLOAD PUSH2 0x170B JUMP JUMPDEST PUSH2 0x1947 DUP3 DUP3 DUP6 PUSH2 0x1886 JUMP JUMPDEST PUSH0 PUSH1 0x1F DUP4 GT PUSH1 0x1 DUP2 EQ PUSH2 0x1974 JUMPI PUSH0 DUP5 ISZERO PUSH2 0x1962 JUMPI DUP3 DUP8 ADD CALLDATALOAD SWAP1 POP JUMPDEST PUSH2 0x196C DUP6 DUP3 PUSH2 0x18F4 JUMP JUMPDEST DUP7 SSTORE POP PUSH2 0x19D3 JUMP JUMPDEST PUSH1 0x1F NOT DUP5 AND PUSH2 0x1982 DUP7 PUSH2 0x1772 JUMP JUMPDEST PUSH0 JUMPDEST DUP3 DUP2 LT ISZERO PUSH2 0x19A9 JUMPI DUP5 DUP10 ADD CALLDATALOAD DUP3 SSTORE PUSH1 0x1 DUP3 ADD SWAP2 POP PUSH1 0x20 DUP6 ADD SWAP5 POP PUSH1 0x20 DUP2 ADD SWAP1 POP PUSH2 0x1984 JUMP JUMPDEST DUP7 DUP4 LT ISZERO PUSH2 0x19C6 JUMPI DUP5 DUP10 ADD CALLDATALOAD PUSH2 0x19C2 PUSH1 0x1F DUP10 AND DUP3 PUSH2 0x18D8 JUMP JUMPDEST DUP4 SSTORE POP JUMPDEST PUSH1 0x1 PUSH1 0x2 DUP9 MUL ADD DUP9 SSTORE POP POP POP JUMPDEST POP POP POP POP POP POP POP JUMP JUMPDEST PUSH0 PUSH2 0x19E6 DUP3 PUSH2 0x105E JUMP JUMPDEST SWAP2 POP PUSH32 0xFFFFFFFFFFFFFFFFFFFFFFFFFFFFFFFFFFFFFFFFFFFFFFFFFFFFFFFFFFFFFFFF DUP3 SUB PUSH2 0x1A18 JUMPI PUSH2 0x1A17 PUSH2 0x1624 JUMP JUMPDEST JUMPDEST PUSH1 0x1 DUP3 ADD SWAP1 POP SWAP2 SWAP1 POP JUMP JUMPDEST PUSH32 0x6F7574206F6620696E6465780000000000000000000000000000000000000000 PUSH0 DUP3 ADD MSTORE POP JUMP JUMPDEST PUSH0 PUSH2 0x1A57 PUSH1 0xC DUP4 PUSH2 0x10F6 JUMP JUMPDEST SWAP2 POP PUSH2 0x1A62 DUP3 PUSH2 0x1A23 JUMP JUMPDEST PUSH1 0x20 DUP3 ADD SWAP1 POP SWAP2 SWAP1 POP JUMP JUMPDEST PUSH0 PUSH1 0x20 DUP3 ADD SWAP1 POP DUP2 DUP2 SUB PUSH0 DUP4 ADD MSTORE PUSH2 0x1A84 DUP2 PUSH2 0x1A4B JUMP JUMPDEST SWAP1 POP SWAP2 SWAP1 POP JUMP JUMPDEST PUSH0 DUP2 SWAP1 POP SWAP2 SWAP1 POP JUMP JUMPDEST PUSH2 0x1A9D DUP2 PUSH2 0x1A8B JUMP JUMPDEST DUP3 MSTORE POP POP JUMP JUMPDEST PUSH0 PUSH1 0x20 DUP3 ADD SWAP1 POP PUSH2 0x1AB6 PUSH0 DUP4 ADD DUP5 PUSH2 0x1A94 JUMP JUMPDEST SWAP3 SWAP2 POP POP JUMP JUMPDEST PUSH0 DUP2 SWAP1 POP SWAP3 SWAP2 POP POP JUMP JUMPDEST PUSH0 PUSH2 0x1AD0 DUP3 PUSH2 0x10EC JUMP JUMPDEST PUSH2 0x1ADA DUP2 DUP6 PUSH2 0x1ABC JUMP JUMPDEST SWAP4 POP PUSH2 0x1AEA DUP2 DUP6 PUSH1 0x20 DUP7 ADD PUSH2 0x1106 JUMP JUMPDEST DUP1 DUP5 ADD SWAP2 POP POP SWAP3 SWAP2 POP POP JUMP JUMPDEST PUSH0 PUSH2 0x1B01 DUP3 DUP5 PUSH2 0x1AC6 JUMP JUMPDEST SWAP2 POP DUP2 SWAP1 POP SWAP3 SWAP2 POP POP JUMP INVALID LOG2 PUSH5 0x6970667358 0x22 SLT KECCAK256 0x21 0xCF SWAP16 LOG2 LOG0 0xAD 0xFB 0x1F DUP1 BASEFEE PUSH29 0x9489697FC3D9A85B02270EEE133C753792C5CACCE464736F6C63430008 BYTE STOP CALLER "
		},
		"gasEstimates": {
			"creation": {
				"codeDepositCost": "1395600",
				"executionCost": "infinite",
				"totalCost": "infinite"
			},
			"external": {
				"addLast(uint256)": "infinite",
				"clearScoreArr()": "infinite",
				"currencyMaximum()": "393",
				"currencySymbol()": "infinite",
				"deleteKey(uint256)": "infinite",
				"deployer()": "infinite",
				"getAgeByPos(uint256)": "infinite",
				"getId2NameMapping()": "infinite",
				"getScoreArr()": "infinite",
				"getScoreArrLength()": "2485",
				"getScoreByPos(uint256)": "infinite",
				"getStudent()": "infinite",
				"id2NameMapping(uint256)": "infinite",
				"issueData()": "infinite",
				"myHash()": "infinite",
				"putIdNameMapping(uint256,string)": "infinite",
				"removeLastScore()": "infinite",
				"setAgeVal(uint256,uint256)": "infinite",
				"setId(uint256)": "22586",
				"setIdAndScore(uint256,uint256)": "infinite",
				"setScore(uint256)": "22610",
				"setScoreByPos(uint256,uint256)": "infinite",
				"setStudent(uint256,uint256)": "infinite"
			},
			"internal": {
				"strEquals(string memory,string memory)": "infinite"
			}
		},
		"methodIdentifiers": {
			"addLast(uint256)": "7c335b41",
			"clearScoreArr()": "3dec1e6f",
			"currencyMaximum()": "1adad020",
			"currencySymbol()": "968c4209",
			"deleteKey(uint256)": "2f5e9eb3",
			"deployer()": "d5f39488",
			"getAgeByPos(uint256)": "baba1a77",
			"getId2NameMapping()": "84c01d8d",
			"getScoreArr()": "37a8e4ae",
			"getScoreArrLength()": "3ad3b3e4",
			"getScoreByPos(uint256)": "ff0e8c1c",
			"getStudent()": "b439548d",
			"id2NameMapping(uint256)": "176b052b",
			"issueData()": "d7d6f183",
			"myHash()": "b6f61649",
			"putIdNameMapping(uint256,string)": "2927922e",
			"removeLastScore()": "155d69e9",
			"setAgeVal(uint256,uint256)": "96db9468",
			"setId(uint256)": "d0e0ba95",
			"setIdAndScore(uint256,uint256)": "a38689ff",
			"setScore(uint256)": "422beeba",
			"setScoreByPos(uint256,uint256)": "ad457199",
			"setStudent(uint256,uint256)": "c6a15cbc"
		}
	},
	"abi": [
		{
			"inputs": [],
			"stateMutability": "nonpayable",
			"type": "constructor"
		},
		{
			"inputs": [
				{
					"internalType": "uint256",
					"name": "score",
					"type": "uint256"
				}
			],
			"name": "addLast",
			"outputs": [
				{
					"internalType": "uint256",
					"name": "",
					"type": "uint256"
				}
			],
			"stateMutability": "nonpayable",
			"type": "function"
		},
		{
			"inputs": [],
			"name": "clearScoreArr",
			"outputs": [
				{
					"internalType": "string",
					"name": "",
					"type": "string"
				}
			],
			"stateMutability": "nonpayable",
			"type": "function"
		},
		{
			"inputs": [],
			"name": "currencyMaximum",
			"outputs": [
				{
					"internalType": "uint256",
					"name": "",
					"type": "uint256"
				}
			],
			"stateMutability": "view",
			"type": "function"
		},
		{
			"inputs": [],
			"name": "currencySymbol",
			"outputs": [
				{
					"internalType": "string",
					"name": "",
					"type": "string"
				}
			],
			"stateMutability": "view",
			"type": "function"
		},
		{
			"inputs": [
				{
					"internalType": "uint256",
					"name": "id",
					"type": "uint256"
				}
			],
			"name": "deleteKey",
			"outputs": [
				{
					"internalType": "string",
					"name": "",
					"type": "string"
				}
			],
			"stateMutability": "nonpayable",
			"type": "function"
		},
		{
			"inputs": [],
			"name": "deployer",
			"outputs": [
				{
					"internalType": "address",
					"name": "",
					"type": "address"
				}
			],
			"stateMutability": "view",
			"type": "function"
		},
		{
			"inputs": [
				{
					"internalType": "uint256",
					"name": "pos",
					"type": "uint256"
				}
			],
			"name": "getAgeByPos",
			"outputs": [
				{
					"internalType": "uint256",
					"name": "",
					"type": "uint256"
				}
			],
			"stateMutability": "view",
			"type": "function"
		},
		{
			"inputs": [],
			"name": "getId2NameMapping",
			"outputs": [
				{
					"components": [
						{
							"internalType": "uint256",
							"name": "id",
							"type": "uint256"
						},
						{
							"internalType": "string",
							"name": "name",
							"type": "string"
						}
					],
					"internalType": "struct Reference.Person[]",
					"name": "",
					"type": "tuple[]"
				}
			],
			"stateMutability": "view",
			"type": "function"
		},
		{
			"inputs": [],
			"name": "getScoreArr",
			"outputs": [
				{
					"internalType": "uint256[]",
					"name": "",
					"type": "uint256[]"
				}
			],
			"stateMutability": "view",
			"type": "function"
		},
		{
			"inputs": [],
			"name": "getScoreArrLength",
			"outputs": [
				{
					"internalType": "uint256",
					"name": "",
					"type": "uint256"
				}
			],
			"stateMutability": "view",
			"type": "function"
		},
		{
			"inputs": [
				{
					"internalType": "uint256",
					"name": "pos",
					"type": "uint256"
				}
			],
			"name": "getScoreByPos",
			"outputs": [
				{
					"internalType": "uint256",
					"name": "",
					"type": "uint256"
				}
			],
			"stateMutability": "view",
			"type": "function"
		},
		{
			"inputs": [],
			"name": "getStudent",
			"outputs": [
				{
					"components": [
						{
							"internalType": "uint256",
							"name": "id",
							"type": "uint256"
						},
						{
							"internalType": "uint256",
							"name": "score",
							"type": "uint256"
						}
					],
					"internalType": "struct Reference.Student",
					"name": "",
					"type": "tuple"
				}
			],
			"stateMutability": "view",
			"type": "function"
		},
		{
			"inputs": [
				{
					"internalType": "uint256",
					"name": "",
					"type": "uint256"
				}
			],
			"name": "id2NameMapping",
			"outputs": [
				{
					"internalType": "string",
					"name": "",
					"type": "string"
				}
			],
			"stateMutability": "view",
			"type": "function"
		},
		{
			"inputs": [],
			"name": "issueData",
			"outputs": [
				{
					"internalType": "uint256",
					"name": "",
					"type": "uint256"
				}
			],
			"stateMutability": "view",
			"type": "function"
		},
		{
			"inputs": [],
			"name": "myHash",
			"outputs": [
				{
					"internalType": "bytes",
					"name": "",
					"type": "bytes"
				}
			],
			"stateMutability": "view",
			"type": "function"
		},
		{
			"inputs": [
				{
					"internalType": "uint256",
					"name": "id",
					"type": "uint256"
				},
				{
					"internalType": "string",
					"name": "name",
					"type": "string"
				}
			],
			"name": "putIdNameMapping",
			"outputs": [
				{
					"internalType": "string",
					"name": "",
					"type": "string"
				}
			],
			"stateMutability": "nonpayable",
			"type": "function"
		},
		{
			"inputs": [],
			"name": "removeLastScore",
			"outputs": [
				{
					"internalType": "uint256",
					"name": "",
					"type": "uint256"
				}
			],
			"stateMutability": "nonpayable",
			"type": "function"
		},
		{
			"inputs": [
				{
					"internalType": "uint256",
					"name": "age",
					"type": "uint256"
				},
				{
					"internalType": "uint256",
					"name": "pos",
					"type": "uint256"
				}
			],
			"name": "setAgeVal",
			"outputs": [
				{
					"internalType": "uint256",
					"name": "",
					"type": "uint256"
				}
			],
			"stateMutability": "nonpayable",
			"type": "function"
		},
		{
			"inputs": [
				{
					"internalType": "uint256",
					"name": "id",
					"type": "uint256"
				}
			],
			"name": "setId",
			"outputs": [],
			"stateMutability": "nonpayable",
			"type": "function"
		},
		{
			"inputs": [
				{
					"internalType": "uint256",
					"name": "id",
					"type": "uint256"
				},
				{
					"internalType": "uint256",
					"name": "score",
					"type": "uint256"
				}
			],
			"name": "setIdAndScore",
			"outputs": [],
			"stateMutability": "nonpayable",
			"type": "function"
		},
		{
			"inputs": [
				{
					"internalType": "uint256",
					"name": "score",
					"type": "uint256"
				}
			],
			"name": "setScore",
			"outputs": [],
			"stateMutability": "nonpayable",
			"type": "function"
		},
		{
			"inputs": [
				{
					"internalType": "uint256",
					"name": "score",
					"type": "uint256"
				},
				{
					"internalType": "uint256",
					"name": "pos",
					"type": "uint256"
				}
			],
			"name": "setScoreByPos",
			"outputs": [
				{
					"internalType": "uint256",
					"name": "",
					"type": "uint256"
				}
			],
			"stateMutability": "nonpayable",
			"type": "function"
		},
		{
			"inputs": [
				{
					"internalType": "uint256",
					"name": "id",
					"type": "uint256"
				},
				{
					"internalType": "uint256",
					"name": "score",
					"type": "uint256"
				}
			],
			"name": "setStudent",
			"outputs": [],
			"stateMutability": "nonpayable",
			"type": "function"
		}
	]
}