{
	"data": {
		"bytecode": {
			"linkReferences": {},
			"object": "60806040526040518060200160405280600160ff168152505f90600160249291906034565b50348015602f575f80fd5b506098565b828054828255905f5260205f209081019282156070579160200282015b82811115606f578251829060ff169055916020019190600101906051565b5b509050607b9190607f565b5090565b5b808211156094575f815f9055506001016080565b5090565b61075e806100a55f395ff3fe608060405234801561000f575f80fd5b506004361061004a575f3560e01c806371e5ee5f1461004e57806379c018821461007e578063aff81a181461009a578063e504b345146100ca575b5f80fd5b610068600480360381019061006391906103d8565b6100e6565b6040516100759190610412565b60405180910390f35b61009860048036038101906100939190610461565b610105565b005b6100b460048036038101906100af9190610461565b6101b8565b6040516100c19190610412565b60405180910390f35b6100e460048036038101906100df9190610461565b6102b9565b005b5f81815481106100f4575f80fd5b905f5260205f20015f915090505481565b3073ffffffffffffffffffffffffffffffffffffffff1663aff81a18826040518263ffffffff1660e01b815260040161013e919061049b565b602060405180830381865afa92505050801561017857506040513d601f19601f8201168201806040525081019061017591906104c8565b60015b6101b4573d805f81146101a6576040519150601f19603f3d011682016040523d82523d5f602084013e6101ab565b606091505b50805160208201fd5b5050565b5f60018260ff16036101ff576040517f08c379a00000000000000000000000000000000000000000000000000000000081526004016101f69061054d565b60405180910390fd5b60028260ff160361024a5733602a6040517f190a30a90000000000000000000000000000000000000000000000000000000081526004016102419291906105ec565b60405180910390fd5b60038260ff1603610279575f600a8154811061026957610268610613565b5b905f5260205f20015490506102b4565b6040517f08c379a00000000000000000000000000000000000000000000000000000000081526004016102ab9061068a565b60405180910390fd5b919050565b3073ffffffffffffffffffffffffffffffffffffffff1663aff81a18826040518263ffffffff1660e01b81526004016102f2919061049b565b602060405180830381865afa92505050801561032c57506040513d601f19601f8201168201806040525081019061032991906104c8565b60015b61039d573d805f811461035a576040519150601f19603f3d011682016040523d82523d5f602084013e61035f565b606091505b50806040517f08c379a00000000000000000000000000000000000000000000000000000000081526004016103949190610708565b60405180910390fd5b5050565b5f80fd5b5f819050919050565b6103b7816103a5565b81146103c1575f80fd5b50565b5f813590506103d2816103ae565b92915050565b5f602082840312156103ed576103ec6103a1565b5b5f6103fa848285016103c4565b91505092915050565b61040c816103a5565b82525050565b5f6020820190506104255f830184610403565b92915050565b5f60ff82169050919050565b6104408161042b565b811461044a575f80fd5b50565b5f8135905061045b81610437565b92915050565b5f60208284031215610476576104756103a1565b5b5f6104838482850161044d565b91505092915050565b6104958161042b565b82525050565b5f6020820190506104ae5f83018461048c565b92915050565b5f815190506104c2816103ae565b92915050565b5f602082840312156104dd576104dc6103a1565b5b5f6104ea848285016104b4565b91505092915050565b5f82825260208201905092915050565b7f537472696e6720726576657274000000000000000000000000000000000000005f82015250565b5f610537600d836104f3565b915061054282610503565b602082019050919050565b5f6020820190508181035f8301526105648161052b565b9050919050565b5f73ffffffffffffffffffffffffffffffffffffffff82169050919050565b5f6105948261056b565b9050919050565b6105a48161058a565b82525050565b5f819050919050565b5f819050919050565b5f6105d66105d16105cc846105aa565b6105b3565b6103a5565b9050919050565b6105e6816105bc565b82525050565b5f6040820190506105ff5f83018561059b565b61060c60208301846105dd565b9392505050565b7f4e487b71000000000000000000000000000000000000000000000000000000005f52603260045260245ffd5b7f44656661756c74207265766572740000000000000000000000000000000000005f82015250565b5f610674600e836104f3565b915061067f82610640565b602082019050919050565b5f6020820190508181035f8301526106a181610668565b9050919050565b5f81519050919050565b8281835e5f83830152505050565b5f601f19601f8301169050919050565b5f6106da826106a8565b6106e481856104f3565b93506106f48185602086016106b2565b6106fd816106c0565b840191505092915050565b5f6020820190508181035f83015261072081846106d0565b90509291505056fea2646970667358221220932fd631191e56fd0bc138b1e51155f54ac9dc230a0dcd07edb0e7d6807c04b164736f6c634300081a0033",
			"opcodes": "PUSH1 0x80 PUSH1 0x40 MSTORE PUSH1 0x40 MLOAD DUP1 PUSH1 0x20 ADD PUSH1 0x40 MSTORE DUP1 PUSH1 0x1 PUSH1 0xFF AND DUP2 MSTORE POP PUSH0 SWAP1 PUSH1 0x1 PUSH1 0x24 SWAP3 SWAP2 SWAP1 PUSH1 0x34 JUMP JUMPDEST POP CALLVALUE DUP1 ISZERO PUSH1 0x2F JUMPI PUSH0 DUP1 REVERT JUMPDEST POP PUSH1 0x98 JUMP JUMPDEST DUP3 DUP1 SLOAD DUP3 DUP3 SSTORE SWAP1 PUSH0 MSTORE PUSH1 0x20 PUSH0 KECCAK256 SWAP1 DUP2 ADD SWAP3 DUP3 ISZERO PUSH1 0x70 JUMPI SWAP2 PUSH1 0x20 MUL DUP3 ADD JUMPDEST DUP3 DUP2 GT ISZERO PUSH1 0x6F JUMPI DUP3 MLOAD DUP3 SWAP1 PUSH1 0xFF AND SWAP1 SSTORE SWAP2 PUSH1 0x20 ADD SWAP2 SWAP1 PUSH1 0x1 ADD SWAP1 PUSH1 0x51 JUMP JUMPDEST JUMPDEST POP SWAP1 POP PUSH1 0x7B SWAP2 SWAP1 PUSH1 0x7F JUMP JUMPDEST POP SWAP1 JUMP JUMPDEST JUMPDEST DUP1 DUP3 GT ISZERO PUSH1 0x94 JUMPI PUSH0 DUP2 PUSH0 SWAP1 SSTORE POP PUSH1 0x1 ADD PUSH1 0x80 JUMP JUMPDEST POP SWAP1 JUMP JUMPDEST PUSH2 0x75E DUP1 PUSH2 0xA5 PUSH0 CODECOPY PUSH0 RETURN INVALID PUSH1 0x80 PUSH1 0x40 MSTORE CALLVALUE DUP1 ISZERO PUSH2 0xF JUMPI PUSH0 DUP1 REVERT JUMPDEST POP PUSH1 0x4 CALLDATASIZE LT PUSH2 0x4A JUMPI PUSH0 CALLDATALOAD PUSH1 0xE0 SHR DUP1 PUSH4 0x71E5EE5F EQ PUSH2 0x4E JUMPI DUP1 PUSH4 0x79C01882 EQ PUSH2 0x7E JUMPI DUP1 PUSH4 0xAFF81A18 EQ PUSH2 0x9A JUMPI DUP1 PUSH4 0xE504B345 EQ PUSH2 0xCA JUMPI JUMPDEST PUSH0 DUP1 REVERT JUMPDEST PUSH2 0x68 PUSH1 0x4 DUP1 CALLDATASIZE SUB DUP2 ADD SWAP1 PUSH2 0x63 SWAP2 SWAP1 PUSH2 0x3D8 JUMP JUMPDEST PUSH2 0xE6 JUMP JUMPDEST PUSH1 0x40 MLOAD PUSH2 0x75 SWAP2 SWAP1 PUSH2 0x412 JUMP JUMPDEST PUSH1 0x40 MLOAD DUP1 SWAP2 SUB SWAP1 RETURN JUMPDEST PUSH2 0x98 PUSH1 0x4 DUP1 CALLDATASIZE SUB DUP2 ADD SWAP1 PUSH2 0x93 SWAP2 SWAP1 PUSH2 0x461 JUMP JUMPDEST PUSH2 0x105 JUMP JUMPDEST STOP JUMPDEST PUSH2 0xB4 PUSH1 0x4 DUP1 CALLDATASIZE SUB DUP2 ADD SWAP1 PUSH2 0xAF SWAP2 SWAP1 PUSH2 0x461 JUMP JUMPDEST PUSH2 0x1B8 JUMP JUMPDEST PUSH1 0x40 MLOAD PUSH2 0xC1 SWAP2 SWAP1 PUSH2 0x412 JUMP JUMPDEST PUSH1 0x40 MLOAD DUP1 SWAP2 SUB SWAP1 RETURN JUMPDEST PUSH2 0xE4 PUSH1 0x4 DUP1 CALLDATASIZE SUB DUP2 ADD SWAP1 PUSH2 0xDF SWAP2 SWAP1 PUSH2 0x461 JUMP JUMPDEST PUSH2 0x2B9 JUMP JUMPDEST STOP JUMPDEST PUSH0 DUP2 DUP2 SLOAD DUP2 LT PUSH2 0xF4 JUMPI PUSH0 DUP1 REVERT JUMPDEST SWAP1 PUSH0 MSTORE PUSH1 0x20 PUSH0 KECCAK256 ADD PUSH0 SWAP2 POP SWAP1 POP SLOAD DUP2 JUMP JUMPDEST ADDRESS PUSH20 0xFFFFFFFFFFFFFFFFFFFFFFFFFFFFFFFFFFFFFFFF AND PUSH4 0xAFF81A18 DUP3 PUSH1 0x40 MLOAD DUP3 PUSH4 0xFFFFFFFF AND PUSH1 0xE0 SHL DUP2 MSTORE PUSH1 0x4 ADD PUSH2 0x13E SWAP2 SWAP1 PUSH2 0x49B JUMP JUMPDEST PUSH1 0x20 PUSH1 0x40 MLOAD DUP1 DUP4 SUB DUP2 DUP7 GAS STATICCALL SWAP3 POP POP POP DUP1 ISZERO PUSH2 0x178 JUMPI POP PUSH1 0x40 MLOAD RETURNDATASIZE PUSH1 0x1F NOT PUSH1 0x1F DUP3 ADD AND DUP3 ADD DUP1 PUSH1 0x40 MSTORE POP DUP2 ADD SWAP1 PUSH2 0x175 SWAP2 SWAP1 PUSH2 0x4C8 JUMP JUMPDEST PUSH1 0x1 JUMPDEST PUSH2 0x1B4 JUMPI RETURNDATASIZE DUP1 PUSH0 DUP2 EQ PUSH2 0x1A6 JUMPI PUSH1 0x40 MLOAD SWAP2 POP PUSH1 0x1F NOT PUSH1 0x3F RETURNDATASIZE ADD AND DUP3 ADD PUSH1 0x40 MSTORE RETURNDATASIZE DUP3 MSTORE RETURNDATASIZE PUSH0 PUSH1 0x20 DUP5 ADD RETURNDATACOPY PUSH2 0x1AB JUMP JUMPDEST PUSH1 0x60 SWAP2 POP JUMPDEST POP DUP1 MLOAD PUSH1 0x20 DUP3 ADD REVERT JUMPDEST POP POP JUMP JUMPDEST PUSH0 PUSH1 0x1 DUP3 PUSH1 0xFF AND SUB PUSH2 0x1FF JUMPI PUSH1 0x40 MLOAD PUSH32 0x8C379A000000000000000000000000000000000000000000000000000000000 DUP2 MSTORE PUSH1 0x4 ADD PUSH2 0x1F6 SWAP1 PUSH2 0x54D JUMP JUMPDEST PUSH1 0x40 MLOAD DUP1 SWAP2 SUB SWAP1 REVERT JUMPDEST PUSH1 0x2 DUP3 PUSH1 0xFF AND SUB PUSH2 0x24A JUMPI CALLER PUSH1 0x2A PUSH1 0x40 MLOAD PUSH32 0x190A30A900000000000000000000000000000000000000000000000000000000 DUP2 MSTORE PUSH1 0x4 ADD PUSH2 0x241 SWAP3 SWAP2 SWAP1 PUSH2 0x5EC JUMP JUMPDEST PUSH1 0x40 MLOAD DUP1 SWAP2 SUB SWAP1 REVERT JUMPDEST PUSH1 0x3 DUP3 PUSH1 0xFF AND SUB PUSH2 0x279 JUMPI PUSH0 PUSH1 0xA DUP2 SLOAD DUP2 LT PUSH2 0x269 JUMPI PUSH2 0x268 PUSH2 0x613 JUMP JUMPDEST JUMPDEST SWAP1 PUSH0 MSTORE PUSH1 0x20 PUSH0 KECCAK256 ADD SLOAD SWAP1 POP PUSH2 0x2B4 JUMP JUMPDEST PUSH1 0x40 MLOAD PUSH32 0x8C379A000000000000000000000000000000000000000000000000000000000 DUP2 MSTORE PUSH1 0x4 ADD PUSH2 0x2AB SWAP1 PUSH2 0x68A JUMP JUMPDEST PUSH1 0x40 MLOAD DUP1 SWAP2 SUB SWAP1 REVERT JUMPDEST SWAP2 SWAP1 POP JUMP JUMPDEST ADDRESS PUSH20 0xFFFFFFFFFFFFFFFFFFFFFFFFFFFFFFFFFFFFFFFF AND PUSH4 0xAFF81A18 DUP3 PUSH1 0x40 MLOAD DUP3 PUSH4 0xFFFFFFFF AND PUSH1 0xE0 SHL DUP2 MSTORE PUSH1 0x4 ADD PUSH2 0x2F2 SWAP2 SWAP1 PUSH2 0x49B JUMP JUMPDEST PUSH1 0x20 PUSH1 0x40 MLOAD DUP1 DUP4 SUB DUP2 DUP7 GAS STATICCALL SWAP3 POP POP POP DUP1 ISZERO PUSH2 0x32C JUMPI POP PUSH1 0x40 MLOAD RETURNDATASIZE PUSH1 0x1F NOT PUSH1 0x1F DUP3 ADD AND DUP3 ADD DUP1 PUSH1 0x40 MSTORE POP DUP2 ADD SWAP1 PUSH2 0x329 SWAP2 SWAP1 PUSH2 0x4C8 JUMP JUMPDEST PUSH1 0x1 JUMPDEST PUSH2 0x39D JUMPI RETURNDATASIZE DUP1 PUSH0 DUP2 EQ PUSH2 0x35A JUMPI PUSH1 0x40 MLOAD SWAP2 POP PUSH1 0x1F NOT PUSH1 0x3F RETURNDATASIZE ADD AND DUP3 ADD PUSH1 0x40 MSTORE RETURNDATASIZE DUP3 MSTORE RETURNDATASIZE PUSH0 PUSH1 0x20 DUP5 ADD RETURNDATACOPY PUSH2 0x35F JUMP JUMPDEST PUSH1 0x60 SWAP2 POP JUMPDEST POP DUP1 PUSH1 0x40 MLOAD PUSH32 0x8C379A000000000000000000000000000000000000000000000000000000000 DUP2 MSTORE PUSH1 0x4 ADD PUSH2 0x394 SWAP2 SWAP1 PUSH2 0x708 JUMP JUMPDEST PUSH1 0x40 MLOAD DUP1 SWAP2 SUB SWAP1 REVERT JUMPDEST POP POP JUMP JUMPDEST PUSH0 DUP1 REVERT JUMPDEST PUSH0 DUP2 SWAP1 POP SWAP2 SWAP1 POP JUMP JUMPDEST PUSH2 0x3B7 DUP2 PUSH2 0x3A5 JUMP JUMPDEST DUP2 EQ PUSH2 0x3C1 JUMPI PUSH0 DUP1 REVERT JUMPDEST POP JUMP JUMPDEST PUSH0 DUP2 CALLDATALOAD SWAP1 POP PUSH2 0x3D2 DUP2 PUSH2 0x3AE JUMP JUMPDEST SWAP3 SWAP2 POP POP JUMP JUMPDEST PUSH0 PUSH1 0x20 DUP3 DUP5 SUB SLT ISZERO PUSH2 0x3ED JUMPI PUSH2 0x3EC PUSH2 0x3A1 JUMP JUMPDEST JUMPDEST PUSH0 PUSH2 0x3FA DUP5 DUP3 DUP6 ADD PUSH2 0x3C4 JUMP JUMPDEST SWAP2 POP POP SWAP3 SWAP2 POP POP JUMP JUMPDEST PUSH2 0x40C DUP2 PUSH2 0x3A5 JUMP JUMPDEST DUP3 MSTORE POP POP JUMP JUMPDEST PUSH0 PUSH1 0x20 DUP3 ADD SWAP1 POP PUSH2 0x425 PUSH0 DUP4 ADD DUP5 PUSH2 0x403 JUMP JUMPDEST SWAP3 SWAP2 POP POP JUMP JUMPDEST PUSH0 PUSH1 0xFF DUP3 AND SWAP1 POP SWAP2 SWAP1 POP JUMP JUMPDEST PUSH2 0x440 DUP2 PUSH2 0x42B JUMP JUMPDEST DUP2 EQ PUSH2 0x44A JUMPI PUSH0 DUP1 REVERT JUMPDEST POP JUMP JUMPDEST PUSH0 DUP2 CALLDATALOAD SWAP1 POP PUSH2 0x45B DUP2 PUSH2 0x437 JUMP JUMPDEST SWAP3 SWAP2 POP POP JUMP JUMPDEST PUSH0 PUSH1 0x20 DUP3 DUP5 SUB SLT ISZERO PUSH2 0x476 JUMPI PUSH2 0x475 PUSH2 0x3A1 JUMP JUMPDEST JUMPDEST PUSH0 PUSH2 0x483 DUP5 DUP3 DUP6 ADD PUSH2 0x44D JUMP JUMPDEST SWAP2 POP POP SWAP3 SWAP2 POP POP JUMP JUMPDEST PUSH2 0x495 DUP2 PUSH2 0x42B JUMP JUMPDEST DUP3 MSTORE POP POP JUMP JUMPDEST PUSH0 PUSH1 0x20 DUP3 ADD SWAP1 POP PUSH2 0x4AE PUSH0 DUP4 ADD DUP5 PUSH2 0x48C JUMP JUMPDEST SWAP3 SWAP2 POP POP JUMP JUMPDEST PUSH0 DUP2 MLOAD SWAP1 POP PUSH2 0x4C2 DUP2 PUSH2 0x3AE JUMP JUMPDEST SWAP3 SWAP2 POP POP JUMP JUMPDEST PUSH0 PUSH1 0x20 DUP3 DUP5 SUB SLT ISZERO PUSH2 0x4DD JUMPI PUSH2 0x4DC PUSH2 0x3A1 JUMP JUMPDEST JUMPDEST PUSH0 PUSH2 0x4EA DUP5 DUP3 DUP6 ADD PUSH2 0x4B4 JUMP JUMPDEST SWAP2 POP POP SWAP3 SWAP2 POP POP JUMP JUMPDEST PUSH0 DUP3 DUP3 MSTORE PUSH1 0x20 DUP3 ADD SWAP1 POP SWAP3 SWAP2 POP POP JUMP JUMPDEST PUSH32 0x537472696E672072657665727400000000000000000000000000000000000000 PUSH0 DUP3 ADD MSTORE POP JUMP JUMPDEST PUSH0 PUSH2 0x537 PUSH1 0xD DUP4 PUSH2 0x4F3 JUMP JUMPDEST SWAP2 POP PUSH2 0x542 DUP3 PUSH2 0x503 JUMP JUMPDEST PUSH1 0x20 DUP3 ADD SWAP1 POP SWAP2 SWAP1 POP JUMP JUMPDEST PUSH0 PUSH1 0x20 DUP3 ADD SWAP1 POP DUP2 DUP2 SUB PUSH0 DUP4 ADD MSTORE PUSH2 0x564 DUP2 PUSH2 0x52B JUMP JUMPDEST SWAP1 POP SWAP2 SWAP1 POP JUMP JUMPDEST PUSH0 PUSH20 0xFFFFFFFFFFFFFFFFFFFFFFFFFFFFFFFFFFFFFFFF DUP3 AND SWAP1 POP SWAP2 SWAP1 POP JUMP JUMPDEST PUSH0 PUSH2 0x594 DUP3 PUSH2 0x56B JUMP JUMPDEST SWAP1 POP SWAP2 SWAP1 POP JUMP JUMPDEST PUSH2 0x5A4 DUP2 PUSH2 0x58A JUMP JUMPDEST DUP3 MSTORE POP POP JUMP JUMPDEST PUSH0 DUP2 SWAP1 POP SWAP2 SWAP1 POP JUMP JUMPDEST PUSH0 DUP2 SWAP1 POP SWAP2 SWAP1 POP JUMP JUMPDEST PUSH0 PUSH2 0x5D6 PUSH2 0x5D1 PUSH2 0x5CC DUP5 PUSH2 0x5AA JUMP JUMPDEST PUSH2 0x5B3 JUMP JUMPDEST PUSH2 0x3A5 JUMP JUMPDEST SWAP1 POP SWAP2 SWAP1 POP JUMP JUMPDEST PUSH2 0x5E6 DUP2 PUSH2 0x5BC JUMP JUMPDEST DUP3 MSTORE POP POP JUMP JUMPDEST PUSH0 PUSH1 0x40 DUP3 ADD SWAP1 POP PUSH2 0x5FF PUSH0 DUP4 ADD DUP6 PUSH2 0x59B JUMP JUMPDEST PUSH2 0x60C PUSH1 0x20 DUP4 ADD DUP5 PUSH2 0x5DD JUMP JUMPDEST SWAP4 SWAP3 POP POP POP JUMP JUMPDEST PUSH32 0x4E487B7100000000000000000000000000000000000000000000000000000000 PUSH0 MSTORE PUSH1 0x32 PUSH1 0x4 MSTORE PUSH1 0x24 PUSH0 REVERT JUMPDEST PUSH32 0x44656661756C7420726576657274000000000000000000000000000000000000 PUSH0 DUP3 ADD MSTORE POP JUMP JUMPDEST PUSH0 PUSH2 0x674 PUSH1 0xE DUP4 PUSH2 0x4F3 JUMP JUMPDEST SWAP2 POP PUSH2 0x67F DUP3 PUSH2 0x640 JUMP JUMPDEST PUSH1 0x20 DUP3 ADD SWAP1 POP SWAP2 SWAP1 POP JUMP JUMPDEST PUSH0 PUSH1 0x20 DUP3 ADD SWAP1 POP DUP2 DUP2 SUB PUSH0 DUP4 ADD MSTORE PUSH2 0x6A1 DUP2 PUSH2 0x668 JUMP JUMPDEST SWAP1 POP SWAP2 SWAP1 POP JUMP JUMPDEST PUSH0 DUP2 MLOAD SWAP1 POP SWAP2 SWAP1 POP JUMP JUMPDEST DUP3 DUP2 DUP4 MCOPY PUSH0 DUP4 DUP4 ADD MSTORE POP POP POP JUMP JUMPDEST PUSH0 PUSH1 0x1F NOT PUSH1 0x1F DUP4 ADD AND SWAP1 POP SWAP2 SWAP1 POP JUMP JUMPDEST PUSH0 PUSH2 0x6DA DUP3 PUSH2 0x6A8 JUMP JUMPDEST PUSH2 0x6E4 DUP2 DUP6 PUSH2 0x4F3 JUMP JUMPDEST SWAP4 POP PUSH2 0x6F4 DUP2 DUP6 PUSH1 0x20 DUP7 ADD PUSH2 0x6B2 JUMP JUMPDEST PUSH2 0x6FD DUP2 PUSH2 0x6C0 JUMP JUMPDEST DUP5 ADD SWAP2 POP POP SWAP3 SWAP2 POP POP JUMP JUMPDEST PUSH0 PUSH1 0x20 DUP3 ADD SWAP1 POP DUP2 DUP2 SUB PUSH0 DUP4 ADD MSTORE PUSH2 0x720 DUP2 DUP5 PUSH2 0x6D0 JUMP JUMPDEST SWAP1 POP SWAP3 SWAP2 POP POP JUMP INVALID LOG2 PUSH5 0x6970667358 0x22 SLT KECCAK256 SWAP4 0x2F 0xD6 BALANCE NOT 0x1E JUMP REVERT SIGNEXTEND 0xC1 CODESIZE 0xB1 0xE5 GT SSTORE CREATE2 BLOBBASEFEE 0xC9 0xDC 0x23 EXP 0xD 0xCD SMOD 0xED 0xB0 0xE7 0xD6 DUP1 PUSH29 0x4B164736F6C634300081A003300000000000000000000000000000000 "
		},
		"gasEstimates": {
			"creation": {
				"codeDepositCost": "377200",
				"executionCost": "infinite",
				"totalCost": "infinite"
			},
			"external": {
				"arr(uint256)": "infinite",
				"revertAssembly(uint8)": "infinite",
				"revertNormal(uint8)": "infinite",
				"willRevert(uint8)": "4996"
			}
		},
		"methodIdentifiers": {
			"arr(uint256)": "71e5ee5f",
			"revertAssembly(uint8)": "79c01882",
			"revertNormal(uint8)": "e504b345",
			"willRevert(uint8)": "aff81a18"
		}
	},
	"abi": [
		{
			"inputs": [
				{
					"internalType": "address",
					"name": "user",
					"type": "address"
				},
				{
					"internalType": "uint256",
					"name": "value",
					"type": "uint256"
				}
			],
			"name": "CustomError",
			"type": "error"
		},
		{
			"inputs": [
				{
					"internalType": "uint256",
					"name": "",
					"type": "uint256"
				}
			],
			"name": "arr",
			"outputs": [
				{
					"internalType": "uint256",
					"name": "",
					"type": "uint256"
				}
			],
			"stateMutability": "view",
			"type": "function"
		},
		{
			"inputs": [
				{
					"internalType": "uint8",
					"name": "mode",
					"type": "uint8"
				}
			],
			"name": "revertAssembly",
			"outputs": [],
			"stateMutability": "view",
			"type": "function"
		},
		{
			"inputs": [
				{
					"internalType": "uint8",
					"name": "mode",
					"type": "uint8"
				}
			],
			"name": "revertNormal",
			"outputs": [],
			"stateMutability": "view",
			"type": "function"
		},
		{
			"inputs": [
				{
					"internalType": "uint8",
					"name": "mode",
					"type": "uint8"
				}
			],
			"name": "willRevert",
			"outputs": [
				{
					"internalType": "uint256",
					"name": "",
					"type": "uint256"
				}
			],
			"stateMutability": "view",
			"type": "function"
		}
	]
}