{
	"data": {
		"bytecode": {
			"linkReferences": {},
			"object": "6080604052348015600e575f80fd5b506102eb8061001c5f395ff3fe608060405260043610610037575f3560e01c806312065fe0146100e057806367e0badb1461010a578063cd16ecbf146101345761008c565b3661008c573373ffffffffffffffffffffffffffffffffffffffff167fc148c22235708191ba3825270c16a8a6ae9fe1262897af7fba93ce1bd79f6fd53460405161008291906101b9565b60405180910390a2005b3373ffffffffffffffffffffffffffffffffffffffff167f665df835f978203acf7363d1233cf66519b0faa31756cadb82340a5eafbf0774345f366040516100d69392919061022c565b60405180910390a2005b3480156100eb575f80fd5b506100f4610150565b60405161010191906101b9565b60405180910390f35b348015610115575f80fd5b5061011e610157565b60405161012b91906101b9565b60405180910390f35b61014e6004803603810190610149919061028a565b61015f565b005b5f47905090565b5f8054905090565b5f3403610198576040517f632ed41700000000000000000000000000000000000000000000000000000000815260040160405180910390fd5b805f8190555050565b5f819050919050565b6101b3816101a1565b82525050565b5f6020820190506101cc5f8301846101aa565b92915050565b5f82825260208201905092915050565b828183375f83830152505050565b5f601f19601f8301169050919050565b5f61020b83856101d2565b93506102188385846101e2565b610221836101f0565b840190509392505050565b5f60408201905061023f5f8301866101aa565b8181036020830152610252818486610200565b9050949350505050565b5f80fd5b610269816101a1565b8114610273575f80fd5b50565b5f8135905061028481610260565b92915050565b5f6020828403121561029f5761029e61025c565b5b5f6102ac84828501610276565b9150509291505056fea2646970667358221220b4173f51a3c320c44fcefb9d1b31c9615d2217b7c223878a34ecb51285792c0264736f6c634300081a0033",
			"opcodes": "PUSH1 0x80 PUSH1 0x40 MSTORE CALLVALUE DUP1 ISZERO PUSH1 0xE JUMPI PUSH0 DUP1 REVERT JUMPDEST POP PUSH2 0x2EB DUP1 PUSH2 0x1C PUSH0 CODECOPY PUSH0 RETURN INVALID PUSH1 0x80 PUSH1 0x40 MSTORE PUSH1 0x4 CALLDATASIZE LT PUSH2 0x37 JUMPI PUSH0 CALLDATALOAD PUSH1 0xE0 SHR DUP1 PUSH4 0x12065FE0 EQ PUSH2 0xE0 JUMPI DUP1 PUSH4 0x67E0BADB EQ PUSH2 0x10A JUMPI DUP1 PUSH4 0xCD16ECBF EQ PUSH2 0x134 JUMPI PUSH2 0x8C JUMP JUMPDEST CALLDATASIZE PUSH2 0x8C JUMPI CALLER PUSH20 0xFFFFFFFFFFFFFFFFFFFFFFFFFFFFFFFFFFFFFFFF AND PUSH32 0xC148C22235708191BA3825270C16A8A6AE9FE1262897AF7FBA93CE1BD79F6FD5 CALLVALUE PUSH1 0x40 MLOAD PUSH2 0x82 SWAP2 SWAP1 PUSH2 0x1B9 JUMP JUMPDEST PUSH1 0x40 MLOAD DUP1 SWAP2 SUB SWAP1 LOG2 STOP JUMPDEST CALLER PUSH20 0xFFFFFFFFFFFFFFFFFFFFFFFFFFFFFFFFFFFFFFFF AND PUSH32 0x665DF835F978203ACF7363D1233CF66519B0FAA31756CADB82340A5EAFBF0774 CALLVALUE PUSH0 CALLDATASIZE PUSH1 0x40 MLOAD PUSH2 0xD6 SWAP4 SWAP3 SWAP2 SWAP1 PUSH2 0x22C JUMP JUMPDEST PUSH1 0x40 MLOAD DUP1 SWAP2 SUB SWAP1 LOG2 STOP JUMPDEST CALLVALUE DUP1 ISZERO PUSH2 0xEB JUMPI PUSH0 DUP1 REVERT JUMPDEST POP PUSH2 0xF4 PUSH2 0x150 JUMP JUMPDEST PUSH1 0x40 MLOAD PUSH2 0x101 SWAP2 SWAP1 PUSH2 0x1B9 JUMP JUMPDEST PUSH1 0x40 MLOAD DUP1 SWAP2 SUB SWAP1 RETURN JUMPDEST CALLVALUE DUP1 ISZERO PUSH2 0x115 JUMPI PUSH0 DUP1 REVERT JUMPDEST POP PUSH2 0x11E PUSH2 0x157 JUMP JUMPDEST PUSH1 0x40 MLOAD PUSH2 0x12B SWAP2 SWAP1 PUSH2 0x1B9 JUMP JUMPDEST PUSH1 0x40 MLOAD DUP1 SWAP2 SUB SWAP1 RETURN JUMPDEST PUSH2 0x14E PUSH1 0x4 DUP1 CALLDATASIZE SUB DUP2 ADD SWAP1 PUSH2 0x149 SWAP2 SWAP1 PUSH2 0x28A JUMP JUMPDEST PUSH2 0x15F JUMP JUMPDEST STOP JUMPDEST PUSH0 SELFBALANCE SWAP1 POP SWAP1 JUMP JUMPDEST PUSH0 DUP1 SLOAD SWAP1 POP SWAP1 JUMP JUMPDEST PUSH0 CALLVALUE SUB PUSH2 0x198 JUMPI PUSH1 0x40 MLOAD PUSH32 0x632ED41700000000000000000000000000000000000000000000000000000000 DUP2 MSTORE PUSH1 0x4 ADD PUSH1 0x40 MLOAD DUP1 SWAP2 SUB SWAP1 REVERT JUMPDEST DUP1 PUSH0 DUP2 SWAP1 SSTORE POP POP JUMP JUMPDEST PUSH0 DUP2 SWAP1 POP SWAP2 SWAP1 POP JUMP JUMPDEST PUSH2 0x1B3 DUP2 PUSH2 0x1A1 JUMP JUMPDEST DUP3 MSTORE POP POP JUMP JUMPDEST PUSH0 PUSH1 0x20 DUP3 ADD SWAP1 POP PUSH2 0x1CC PUSH0 DUP4 ADD DUP5 PUSH2 0x1AA JUMP JUMPDEST SWAP3 SWAP2 POP POP JUMP JUMPDEST PUSH0 DUP3 DUP3 MSTORE PUSH1 0x20 DUP3 ADD SWAP1 POP SWAP3 SWAP2 POP POP JUMP JUMPDEST DUP3 DUP2 DUP4 CALLDATACOPY PUSH0 DUP4 DUP4 ADD MSTORE POP POP POP JUMP JUMPDEST PUSH0 PUSH1 0x1F NOT PUSH1 0x1F DUP4 ADD AND SWAP1 POP SWAP2 SWAP1 POP JUMP JUMPDEST PUSH0 PUSH2 0x20B DUP4 DUP6 PUSH2 0x1D2 JUMP JUMPDEST SWAP4 POP PUSH2 0x218 DUP4 DUP6 DUP5 PUSH2 0x1E2 JUMP JUMPDEST PUSH2 0x221 DUP4 PUSH2 0x1F0 JUMP JUMPDEST DUP5 ADD SWAP1 POP SWAP4 SWAP3 POP POP POP JUMP JUMPDEST PUSH0 PUSH1 0x40 DUP3 ADD SWAP1 POP PUSH2 0x23F PUSH0 DUP4 ADD DUP7 PUSH2 0x1AA JUMP JUMPDEST DUP2 DUP2 SUB PUSH1 0x20 DUP4 ADD MSTORE PUSH2 0x252 DUP2 DUP5 DUP7 PUSH2 0x200 JUMP JUMPDEST SWAP1 POP SWAP5 SWAP4 POP POP POP POP JUMP JUMPDEST PUSH0 DUP1 REVERT JUMPDEST PUSH2 0x269 DUP2 PUSH2 0x1A1 JUMP JUMPDEST DUP2 EQ PUSH2 0x273 JUMPI PUSH0 DUP1 REVERT JUMPDEST POP JUMP JUMPDEST PUSH0 DUP2 CALLDATALOAD SWAP1 POP PUSH2 0x284 DUP2 PUSH2 0x260 JUMP JUMPDEST SWAP3 SWAP2 POP POP JUMP JUMPDEST PUSH0 PUSH1 0x20 DUP3 DUP5 SUB SLT ISZERO PUSH2 0x29F JUMPI PUSH2 0x29E PUSH2 0x25C JUMP JUMPDEST JUMPDEST PUSH0 PUSH2 0x2AC DUP5 DUP3 DUP6 ADD PUSH2 0x276 JUMP JUMPDEST SWAP2 POP POP SWAP3 SWAP2 POP POP JUMP INVALID LOG2 PUSH5 0x6970667358 0x22 SLT KECCAK256 0xB4 OR EXTCODEHASH MLOAD LOG3 0xC3 KECCAK256 0xC4 0x4F 0xCE 0xFB SWAP14 SHL BALANCE 0xC9 PUSH2 0x5D22 OR 0xB7 0xC2 0x23 DUP8 DUP11 CALLVALUE 0xEC 0xB5 SLT DUP6 PUSH26 0x2C0264736F6C634300081A003300000000000000000000000000 "
		},
		"gasEstimates": {
			"creation": {
				"codeDepositCost": "149400",
				"executionCost": "194",
				"totalCost": "149594"
			},
			"external": {
				"": "infinite",
				"getBalance()": "312",
				"getNum()": "2432",
				"setNum(uint256)": "22533"
			}
		},
		"methodIdentifiers": {
			"getBalance()": "12065fe0",
			"getNum()": "67e0badb",
			"setNum(uint256)": "cd16ecbf"
		}
	},
	"abi": [
		{
			"inputs": [],
			"name": "SetNumWithoutETH",
			"type": "error"
		},
		{
			"anonymous": false,
			"inputs": [
				{
					"indexed": true,
					"internalType": "address",
					"name": "from",
					"type": "address"
				},
				{
					"indexed": false,
					"internalType": "uint256",
					"name": "amount",
					"type": "uint256"
				},
				{
					"indexed": false,
					"internalType": "bytes",
					"name": "data",
					"type": "bytes"
				}
			],
			"name": "CallFallback",
			"type": "event"
		},
		{
			"anonymous": false,
			"inputs": [
				{
					"indexed": true,
					"internalType": "address",
					"name": "from",
					"type": "address"
				},
				{
					"indexed": false,
					"internalType": "uint256",
					"name": "amount",
					"type": "uint256"
				}
			],
			"name": "CallReceive",
			"type": "event"
		},
		{
			"stateMutability": "payable",
			"type": "fallback"
		},
		{
			"inputs": [],
			"name": "getBalance",
			"outputs": [
				{
					"internalType": "uint256",
					"name": "",
					"type": "uint256"
				}
			],
			"stateMutability": "view",
			"type": "function"
		},
		{
			"inputs": [],
			"name": "getNum",
			"outputs": [
				{
					"internalType": "uint256",
					"name": "",
					"type": "uint256"
				}
			],
			"stateMutability": "view",
			"type": "function"
		},
		{
			"inputs": [
				{
					"internalType": "uint256",
					"name": "_num",
					"type": "uint256"
				}
			],
			"name": "setNum",
			"outputs": [],
			"stateMutability": "payable",
			"type": "function"
		},
		{
			"stateMutability": "payable",
			"type": "receive"
		}
	]
}