{
	"data": {
		"bytecode": {
			"linkReferences": {},
			"object": "608060405234801561000f575f80fd5b5060405161077d38038061077d833981810160405281019061003191906100b7565b60028161003e919061010f565b805f81905550507fcf34ef537ac33ee1ac626ca1587a0a7e8e51561e5514f8cb36afa1c5102b3bab604051610072906101aa565b60405180910390a1506101c8565b5f80fd5b5f819050919050565b61009681610084565b81146100a0575f80fd5b50565b5f815190506100b18161008d565b92915050565b5f602082840312156100cc576100cb610080565b5b5f6100d9848285016100a3565b91505092915050565b7f4e487b71000000000000000000000000000000000000000000000000000000005f52601160045260245ffd5b5f61011982610084565b915061012483610084565b925082820261013281610084565b91508282048414831517610149576101486100e2565b5b5092915050565b5f82825260208201905092915050565b7f53747564656e7420636f6e7374727563746f7220696e697400000000000000005f82015250565b5f610194601883610150565b915061019f82610160565b602082019050919050565b5f6020820190508181035f8301526101c181610188565b9050919050565b6105a8806101d55f395ff3fe608060405234801561000f575f80fd5b506004361061004a575f3560e01c80631b7d5d1d1461004e578063262a9dff146100585780632787365714610076578063ffd93b9314610080575b5f80fd5b61005661009c565b005b6100606100d3565b60405161006d9190610223565b60405180910390f35b61007e6100d8565b005b61009a6004803603810190610095919061026a565b61014c565b005b7fcf34ef537ac33ee1ac626ca1587a0a7e8e51561e5514f8cb36afa1c5102b3bab6040516100c9906102ef565b60405180910390a1565b5f5481565b7fcf34ef537ac33ee1ac626ca1587a0a7e8e51561e5514f8cb36afa1c5102b3bab60405161010590610357565b60405180910390a17fcf34ef537ac33ee1ac626ca1587a0a7e8e51561e5514f8cb36afa1c5102b3bab60405161013a906103bf565b60405180910390a161014a6101d4565b565b805f60028261015b919061040a565b1461019b576040517f08c379a000000000000000000000000000000000000000000000000000000000815260040161019290610484565b60405180910390fd5b7fcf34ef537ac33ee1ac626ca1587a0a7e8e51561e5514f8cb36afa1c5102b3bab6040516101c8906104ec565b60405180910390a15050565b7fcf34ef537ac33ee1ac626ca1587a0a7e8e51561e5514f8cb36afa1c5102b3bab60405161020190610554565b60405180910390a1565b5f819050919050565b61021d8161020b565b82525050565b5f6020820190506102365f830184610214565b92915050565b5f80fd5b6102498161020b565b8114610253575f80fd5b50565b5f8135905061026481610240565b92915050565b5f6020828403121561027f5761027e61023c565b5b5f61028c84828501610256565b91505092915050565b5f82825260208201905092915050565b7f657665727920616e696d616c2063616e206272656174680000000000000000005f82015250565b5f6102d9601783610295565b91506102e4826102a5565b602082019050919050565b5f6020820190508181035f830152610306816102cd565b9050919050565b7f6920616d2073747564656e6720616e6420736f6e0000000000000000000000005f82015250565b5f610341601483610295565b915061034c8261030d565b602082019050919050565b5f6020820190508181035f83015261036e81610335565b9050919050565b7f63616c6c2073757065722e736f756e64732829000000000000000000000000005f82015250565b5f6103a9601383610295565b91506103b482610375565b602082019050919050565b5f6020820190508181035f8301526103d68161039d565b9050919050565b7f4e487b71000000000000000000000000000000000000000000000000000000005f52601260045260245ffd5b5f6104148261020b565b915061041f8361020b565b92508261042f5761042e6103dd565b5b828206905092915050565b7f706172616d206d757374206265204d756c7469706c6573206f662032000000005f82015250565b5f61046e601c83610295565b91506104798261043a565b602082019050919050565b5f6020820190508181035f83015261049b81610462565b9050919050565b7f53747564656e672063616c6c2073656e644e756d0000000000000000000000005f82015250565b5f6104d6601483610295565b91506104e1826104a2565b602082019050919050565b5f6020820190508181035f830152610503816104ca565b9050919050565b7f6920616d204d6f746865720000000000000000000000000000000000000000005f82015250565b5f61053e600b83610295565b91506105498261050a565b602082019050919050565b5f6020820190508181035f83015261056b81610532565b905091905056fea264697066735822122020358db15a8a6e3e9a5985df455190d63a2f168208da9d919f6690c4b279266c64736f6c634300081a0033",
			"opcodes": "PUSH1 0x80 PUSH1 0x40 MSTORE CALLVALUE DUP1 ISZERO PUSH2 0xF JUMPI PUSH0 DUP1 REVERT JUMPDEST POP PUSH1 0x40 MLOAD PUSH2 0x77D CODESIZE SUB DUP1 PUSH2 0x77D DUP4 CODECOPY DUP2 DUP2 ADD PUSH1 0x40 MSTORE DUP2 ADD SWAP1 PUSH2 0x31 SWAP2 SWAP1 PUSH2 0xB7 JUMP JUMPDEST PUSH1 0x2 DUP2 PUSH2 0x3E SWAP2 SWAP1 PUSH2 0x10F JUMP JUMPDEST DUP1 PUSH0 DUP2 SWAP1 SSTORE POP POP PUSH32 0xCF34EF537AC33EE1AC626CA1587A0A7E8E51561E5514F8CB36AFA1C5102B3BAB PUSH1 0x40 MLOAD PUSH2 0x72 SWAP1 PUSH2 0x1AA JUMP JUMPDEST PUSH1 0x40 MLOAD DUP1 SWAP2 SUB SWAP1 LOG1 POP PUSH2 0x1C8 JUMP JUMPDEST PUSH0 DUP1 REVERT JUMPDEST PUSH0 DUP2 SWAP1 POP SWAP2 SWAP1 POP JUMP JUMPDEST PUSH2 0x96 DUP2 PUSH2 0x84 JUMP JUMPDEST DUP2 EQ PUSH2 0xA0 JUMPI PUSH0 DUP1 REVERT JUMPDEST POP JUMP JUMPDEST PUSH0 DUP2 MLOAD SWAP1 POP PUSH2 0xB1 DUP2 PUSH2 0x8D JUMP JUMPDEST SWAP3 SWAP2 POP POP JUMP JUMPDEST PUSH0 PUSH1 0x20 DUP3 DUP5 SUB SLT ISZERO PUSH2 0xCC JUMPI PUSH2 0xCB PUSH2 0x80 JUMP JUMPDEST JUMPDEST PUSH0 PUSH2 0xD9 DUP5 DUP3 DUP6 ADD PUSH2 0xA3 JUMP JUMPDEST SWAP2 POP POP SWAP3 SWAP2 POP POP JUMP JUMPDEST PUSH32 0x4E487B7100000000000000000000000000000000000000000000000000000000 PUSH0 MSTORE PUSH1 0x11 PUSH1 0x4 MSTORE PUSH1 0x24 PUSH0 REVERT JUMPDEST PUSH0 PUSH2 0x119 DUP3 PUSH2 0x84 JUMP JUMPDEST SWAP2 POP PUSH2 0x124 DUP4 PUSH2 0x84 JUMP JUMPDEST SWAP3 POP DUP3 DUP3 MUL PUSH2 0x132 DUP2 PUSH2 0x84 JUMP JUMPDEST SWAP2 POP DUP3 DUP3 DIV DUP5 EQ DUP4 ISZERO OR PUSH2 0x149 JUMPI PUSH2 0x148 PUSH2 0xE2 JUMP JUMPDEST JUMPDEST POP SWAP3 SWAP2 POP POP JUMP JUMPDEST PUSH0 DUP3 DUP3 MSTORE PUSH1 0x20 DUP3 ADD SWAP1 POP SWAP3 SWAP2 POP POP JUMP JUMPDEST PUSH32 0x53747564656E7420636F6E7374727563746F7220696E69740000000000000000 PUSH0 DUP3 ADD MSTORE POP JUMP JUMPDEST PUSH0 PUSH2 0x194 PUSH1 0x18 DUP4 PUSH2 0x150 JUMP JUMPDEST SWAP2 POP PUSH2 0x19F DUP3 PUSH2 0x160 JUMP JUMPDEST PUSH1 0x20 DUP3 ADD SWAP1 POP SWAP2 SWAP1 POP JUMP JUMPDEST PUSH0 PUSH1 0x20 DUP3 ADD SWAP1 POP DUP2 DUP2 SUB PUSH0 DUP4 ADD MSTORE PUSH2 0x1C1 DUP2 PUSH2 0x188 JUMP JUMPDEST SWAP1 POP SWAP2 SWAP1 POP JUMP JUMPDEST PUSH2 0x5A8 DUP1 PUSH2 0x1D5 PUSH0 CODECOPY PUSH0 RETURN INVALID PUSH1 0x80 PUSH1 0x40 MSTORE CALLVALUE DUP1 ISZERO PUSH2 0xF JUMPI PUSH0 DUP1 REVERT JUMPDEST POP PUSH1 0x4 CALLDATASIZE LT PUSH2 0x4A JUMPI PUSH0 CALLDATALOAD PUSH1 0xE0 SHR DUP1 PUSH4 0x1B7D5D1D EQ PUSH2 0x4E JUMPI DUP1 PUSH4 0x262A9DFF EQ PUSH2 0x58 JUMPI DUP1 PUSH4 0x27873657 EQ PUSH2 0x76 JUMPI DUP1 PUSH4 0xFFD93B93 EQ PUSH2 0x80 JUMPI JUMPDEST PUSH0 DUP1 REVERT JUMPDEST PUSH2 0x56 PUSH2 0x9C JUMP JUMPDEST STOP JUMPDEST PUSH2 0x60 PUSH2 0xD3 JUMP JUMPDEST PUSH1 0x40 MLOAD PUSH2 0x6D SWAP2 SWAP1 PUSH2 0x223 JUMP JUMPDEST PUSH1 0x40 MLOAD DUP1 SWAP2 SUB SWAP1 RETURN JUMPDEST PUSH2 0x7E PUSH2 0xD8 JUMP JUMPDEST STOP JUMPDEST PUSH2 0x9A PUSH1 0x4 DUP1 CALLDATASIZE SUB DUP2 ADD SWAP1 PUSH2 0x95 SWAP2 SWAP1 PUSH2 0x26A JUMP JUMPDEST PUSH2 0x14C JUMP JUMPDEST STOP JUMPDEST PUSH32 0xCF34EF537AC33EE1AC626CA1587A0A7E8E51561E5514F8CB36AFA1C5102B3BAB PUSH1 0x40 MLOAD PUSH2 0xC9 SWAP1 PUSH2 0x2EF JUMP JUMPDEST PUSH1 0x40 MLOAD DUP1 SWAP2 SUB SWAP1 LOG1 JUMP JUMPDEST PUSH0 SLOAD DUP2 JUMP JUMPDEST PUSH32 0xCF34EF537AC33EE1AC626CA1587A0A7E8E51561E5514F8CB36AFA1C5102B3BAB PUSH1 0x40 MLOAD PUSH2 0x105 SWAP1 PUSH2 0x357 JUMP JUMPDEST PUSH1 0x40 MLOAD DUP1 SWAP2 SUB SWAP1 LOG1 PUSH32 0xCF34EF537AC33EE1AC626CA1587A0A7E8E51561E5514F8CB36AFA1C5102B3BAB PUSH1 0x40 MLOAD PUSH2 0x13A SWAP1 PUSH2 0x3BF JUMP JUMPDEST PUSH1 0x40 MLOAD DUP1 SWAP2 SUB SWAP1 LOG1 PUSH2 0x14A PUSH2 0x1D4 JUMP JUMPDEST JUMP JUMPDEST DUP1 PUSH0 PUSH1 0x2 DUP3 PUSH2 0x15B SWAP2 SWAP1 PUSH2 0x40A JUMP JUMPDEST EQ PUSH2 0x19B JUMPI PUSH1 0x40 MLOAD PUSH32 0x8C379A000000000000000000000000000000000000000000000000000000000 DUP2 MSTORE PUSH1 0x4 ADD PUSH2 0x192 SWAP1 PUSH2 0x484 JUMP JUMPDEST PUSH1 0x40 MLOAD DUP1 SWAP2 SUB SWAP1 REVERT JUMPDEST PUSH32 0xCF34EF537AC33EE1AC626CA1587A0A7E8E51561E5514F8CB36AFA1C5102B3BAB PUSH1 0x40 MLOAD PUSH2 0x1C8 SWAP1 PUSH2 0x4EC JUMP JUMPDEST PUSH1 0x40 MLOAD DUP1 SWAP2 SUB SWAP1 LOG1 POP POP JUMP JUMPDEST PUSH32 0xCF34EF537AC33EE1AC626CA1587A0A7E8E51561E5514F8CB36AFA1C5102B3BAB PUSH1 0x40 MLOAD PUSH2 0x201 SWAP1 PUSH2 0x554 JUMP JUMPDEST PUSH1 0x40 MLOAD DUP1 SWAP2 SUB SWAP1 LOG1 JUMP JUMPDEST PUSH0 DUP2 SWAP1 POP SWAP2 SWAP1 POP JUMP JUMPDEST PUSH2 0x21D DUP2 PUSH2 0x20B JUMP JUMPDEST DUP3 MSTORE POP POP JUMP JUMPDEST PUSH0 PUSH1 0x20 DUP3 ADD SWAP1 POP PUSH2 0x236 PUSH0 DUP4 ADD DUP5 PUSH2 0x214 JUMP JUMPDEST SWAP3 SWAP2 POP POP JUMP JUMPDEST PUSH0 DUP1 REVERT JUMPDEST PUSH2 0x249 DUP2 PUSH2 0x20B JUMP JUMPDEST DUP2 EQ PUSH2 0x253 JUMPI PUSH0 DUP1 REVERT JUMPDEST POP JUMP JUMPDEST PUSH0 DUP2 CALLDATALOAD SWAP1 POP PUSH2 0x264 DUP2 PUSH2 0x240 JUMP JUMPDEST SWAP3 SWAP2 POP POP JUMP JUMPDEST PUSH0 PUSH1 0x20 DUP3 DUP5 SUB SLT ISZERO PUSH2 0x27F JUMPI PUSH2 0x27E PUSH2 0x23C JUMP JUMPDEST JUMPDEST PUSH0 PUSH2 0x28C DUP5 DUP3 DUP6 ADD PUSH2 0x256 JUMP JUMPDEST SWAP2 POP POP SWAP3 SWAP2 POP POP JUMP JUMPDEST PUSH0 DUP3 DUP3 MSTORE PUSH1 0x20 DUP3 ADD SWAP1 POP SWAP3 SWAP2 POP POP JUMP JUMPDEST PUSH32 0x657665727920616E696D616C2063616E20627265617468000000000000000000 PUSH0 DUP3 ADD MSTORE POP JUMP JUMPDEST PUSH0 PUSH2 0x2D9 PUSH1 0x17 DUP4 PUSH2 0x295 JUMP JUMPDEST SWAP2 POP PUSH2 0x2E4 DUP3 PUSH2 0x2A5 JUMP JUMPDEST PUSH1 0x20 DUP3 ADD SWAP1 POP SWAP2 SWAP1 POP JUMP JUMPDEST PUSH0 PUSH1 0x20 DUP3 ADD SWAP1 POP DUP2 DUP2 SUB PUSH0 DUP4 ADD MSTORE PUSH2 0x306 DUP2 PUSH2 0x2CD JUMP JUMPDEST SWAP1 POP SWAP2 SWAP1 POP JUMP JUMPDEST PUSH32 0x6920616D2073747564656E6720616E6420736F6E000000000000000000000000 PUSH0 DUP3 ADD MSTORE POP JUMP JUMPDEST PUSH0 PUSH2 0x341 PUSH1 0x14 DUP4 PUSH2 0x295 JUMP JUMPDEST SWAP2 POP PUSH2 0x34C DUP3 PUSH2 0x30D JUMP JUMPDEST PUSH1 0x20 DUP3 ADD SWAP1 POP SWAP2 SWAP1 POP JUMP JUMPDEST PUSH0 PUSH1 0x20 DUP3 ADD SWAP1 POP DUP2 DUP2 SUB PUSH0 DUP4 ADD MSTORE PUSH2 0x36E DUP2 PUSH2 0x335 JUMP JUMPDEST SWAP1 POP SWAP2 SWAP1 POP JUMP JUMPDEST PUSH32 0x63616C6C2073757065722E736F756E6473282900000000000000000000000000 PUSH0 DUP3 ADD MSTORE POP JUMP JUMPDEST PUSH0 PUSH2 0x3A9 PUSH1 0x13 DUP4 PUSH2 0x295 JUMP JUMPDEST SWAP2 POP PUSH2 0x3B4 DUP3 PUSH2 0x375 JUMP JUMPDEST PUSH1 0x20 DUP3 ADD SWAP1 POP SWAP2 SWAP1 POP JUMP JUMPDEST PUSH0 PUSH1 0x20 DUP3 ADD SWAP1 POP DUP2 DUP2 SUB PUSH0 DUP4 ADD MSTORE PUSH2 0x3D6 DUP2 PUSH2 0x39D JUMP JUMPDEST SWAP1 POP SWAP2 SWAP1 POP JUMP JUMPDEST PUSH32 0x4E487B7100000000000000000000000000000000000000000000000000000000 PUSH0 MSTORE PUSH1 0x12 PUSH1 0x4 MSTORE PUSH1 0x24 PUSH0 REVERT JUMPDEST PUSH0 PUSH2 0x414 DUP3 PUSH2 0x20B JUMP JUMPDEST SWAP2 POP PUSH2 0x41F DUP4 PUSH2 0x20B JUMP JUMPDEST SWAP3 POP DUP3 PUSH2 0x42F JUMPI PUSH2 0x42E PUSH2 0x3DD JUMP JUMPDEST JUMPDEST DUP3 DUP3 MOD SWAP1 POP SWAP3 SWAP2 POP POP JUMP JUMPDEST PUSH32 0x706172616D206D757374206265204D756C7469706C6573206F66203200000000 PUSH0 DUP3 ADD MSTORE POP JUMP JUMPDEST PUSH0 PUSH2 0x46E PUSH1 0x1C DUP4 PUSH2 0x295 JUMP JUMPDEST SWAP2 POP PUSH2 0x479 DUP3 PUSH2 0x43A JUMP JUMPDEST PUSH1 0x20 DUP3 ADD SWAP1 POP SWAP2 SWAP1 POP JUMP JUMPDEST PUSH0 PUSH1 0x20 DUP3 ADD SWAP1 POP DUP2 DUP2 SUB PUSH0 DUP4 ADD MSTORE PUSH2 0x49B DUP2 PUSH2 0x462 JUMP JUMPDEST SWAP1 POP SWAP2 SWAP1 POP JUMP JUMPDEST PUSH32 0x53747564656E672063616C6C2073656E644E756D000000000000000000000000 PUSH0 DUP3 ADD MSTORE POP JUMP JUMPDEST PUSH0 PUSH2 0x4D6 PUSH1 0x14 DUP4 PUSH2 0x295 JUMP JUMPDEST SWAP2 POP PUSH2 0x4E1 DUP3 PUSH2 0x4A2 JUMP JUMPDEST PUSH1 0x20 DUP3 ADD SWAP1 POP SWAP2 SWAP1 POP JUMP JUMPDEST PUSH0 PUSH1 0x20 DUP3 ADD SWAP1 POP DUP2 DUP2 SUB PUSH0 DUP4 ADD MSTORE PUSH2 0x503 DUP2 PUSH2 0x4CA JUMP JUMPDEST SWAP1 POP SWAP2 SWAP1 POP JUMP JUMPDEST PUSH32 0x6920616D204D6F74686572000000000000000000000000000000000000000000 PUSH0 DUP3 ADD MSTORE POP JUMP JUMPDEST PUSH0 PUSH2 0x53E PUSH1 0xB DUP4 PUSH2 0x295 JUMP JUMPDEST SWAP2 POP PUSH2 0x549 DUP3 PUSH2 0x50A JUMP JUMPDEST PUSH1 0x20 DUP3 ADD SWAP1 POP SWAP2 SWAP1 POP JUMP JUMPDEST PUSH0 PUSH1 0x20 DUP3 ADD SWAP1 POP DUP2 DUP2 SUB PUSH0 DUP4 ADD MSTORE PUSH2 0x56B DUP2 PUSH2 0x532 JUMP JUMPDEST SWAP1 POP SWAP2 SWAP1 POP JUMP INVALID LOG2 PUSH5 0x6970667358 0x22 SLT KECCAK256 KECCAK256 CALLDATALOAD DUP14 0xB1 GAS DUP11 PUSH15 0x3E9A5985DF455190D63A2F168208DA SWAP14 SWAP2 SWAP16 PUSH7 0x90C4B279266C64 PUSH20 0x6F6C634300081A00330000000000000000000000 "
		},
		"gasEstimates": {
			"creation": {
				"codeDepositCost": "289600",
				"executionCost": "infinite",
				"totalCost": "infinite"
			},
			"external": {
				"age()": "2424",
				"breath()": "1918",
				"sendNum(uint256)": "infinite",
				"sounds()": "infinite"
			}
		},
		"methodIdentifiers": {
			"age()": "262a9dff",
			"breath()": "1b7d5d1d",
			"sendNum(uint256)": "ffd93b93",
			"sounds()": "27873657"
		}
	},
	"abi": [
		{
			"inputs": [
				{
					"internalType": "uint256",
					"name": "num",
					"type": "uint256"
				}
			],
			"stateMutability": "nonpayable",
			"type": "constructor"
		},
		{
			"anonymous": false,
			"inputs": [
				{
					"indexed": false,
					"internalType": "string",
					"name": "message",
					"type": "string"
				}
			],
			"name": "Log",
			"type": "event"
		},
		{
			"inputs": [],
			"name": "age",
			"outputs": [
				{
					"internalType": "uint256",
					"name": "",
					"type": "uint256"
				}
			],
			"stateMutability": "view",
			"type": "function"
		},
		{
			"inputs": [],
			"name": "breath",
			"outputs": [],
			"stateMutability": "nonpayable",
			"type": "function"
		},
		{
			"inputs": [
				{
					"internalType": "uint256",
					"name": "param",
					"type": "uint256"
				}
			],
			"name": "sendNum",
			"outputs": [],
			"stateMutability": "nonpayable",
			"type": "function"
		},
		{
			"inputs": [],
			"name": "sounds",
			"outputs": [],
			"stateMutability": "nonpayable",
			"type": "function"
		}
	]
}