{
	"data": {
		"bytecode": {
			"linkReferences": {},
			"object": "6080604052348015600e575f80fd5b506105998061001c5f395ff3fe608060405260043610610033575f3560e01c806312065fe01461003757806381fe4c32146100615780639d52bf4514610080575b5f80fd5b348015610042575f80fd5b5061004b6100bc565b6040516100589190610338565b60405180910390f35b6100696100c3565b60405161007792919061036b565b60405180910390f35b34801561008b575f80fd5b506100a660048036038101906100a1919061041a565b6100d9565b6040516100b39190610338565b60405180910390f35b5f47905090565b5f8060016100d133346101d8565b915091509091565b5f803390505f6100e882610244565b90508381101561012d576040517f08c379a0000000000000000000000000000000000000000000000000000000008152600401610124906104b2565b60405180910390fd5b5f6101388386610291565b90508573ffffffffffffffffffffffffffffffffffffffff166108fc8690811502906040515f60405180830381858888f1935050505015801561017d573d5f803e3d5ffd5b508573ffffffffffffffffffffffffffffffffffffffff167f845850991963cc258a0464dadcae66e59e72e9883beb28e5ea89a547df58eaff866040516101c49190610338565b60405180910390a280935050505092915050565b5f8061020f847f1f110348bc21beebf4be96c5a8a1d0e3fb17d4705fa82359e4adaf1ea21a7f515f1b6102fd90919063ffffffff16565b90505f61021b82610317565b905083815f015f82825461022f91906104fd565b92505081905550805f01549250505092915050565b5f8061027b837f1f110348bc21beebf4be96c5a8a1d0e3fb17d4705fa82359e4adaf1ea21a7f515f1b6102fd90919063ffffffff16565b905061028681610317565b5f0154915050919050565b5f806102c8847f1f110348bc21beebf4be96c5a8a1d0e3fb17d4705fa82359e4adaf1ea21a7f515f1b6102fd90919063ffffffff16565b90505f6102d482610317565b905083815f015f8282546102e89190610530565b92505081905550805f01549250505092915050565b5f801960601c82165f528260205260405f20905092915050565b5f819050919050565b5f819050919050565b61033281610320565b82525050565b5f60208201905061034b5f830184610329565b92915050565b5f8115159050919050565b61036581610351565b82525050565b5f60408201905061037e5f83018561035c565b61038b6020830184610329565b9392505050565b5f80fd5b5f73ffffffffffffffffffffffffffffffffffffffff82169050919050565b5f6103bf82610396565b9050919050565b6103cf816103b5565b81146103d9575f80fd5b50565b5f813590506103ea816103c6565b92915050565b6103f981610320565b8114610403575f80fd5b50565b5f81359050610414816103f0565b92915050565b5f80604083850312156104305761042f610392565b5b5f61043d858286016103dc565b925050602061044e85828601610406565b9150509250929050565b5f82825260208201905092915050565b7f62616c616e6365206e6f7420656e6f75676800000000000000000000000000005f82015250565b5f61049c601283610458565b91506104a782610468565b602082019050919050565b5f6020820190508181035f8301526104c981610490565b9050919050565b7f4e487b71000000000000000000000000000000000000000000000000000000005f52601160045260245ffd5b5f61050782610320565b915061051283610320565b925082820190508082111561052a576105296104d0565b5b92915050565b5f61053a82610320565b915061054583610320565b925082820390508181111561055d5761055c6104d0565b5b9291505056fea264697066735822122076288946e94005b62cf013b979d186d1d43545376f75fbc21f886e4964ff667564736f6c634300081a0033",
			"opcodes": "PUSH1 0x80 PUSH1 0x40 MSTORE CALLVALUE DUP1 ISZERO PUSH1 0xE JUMPI PUSH0 DUP1 REVERT JUMPDEST POP PUSH2 0x599 DUP1 PUSH2 0x1C PUSH0 CODECOPY PUSH0 RETURN INVALID PUSH1 0x80 PUSH1 0x40 MSTORE PUSH1 0x4 CALLDATASIZE LT PUSH2 0x33 JUMPI PUSH0 CALLDATALOAD PUSH1 0xE0 SHR DUP1 PUSH4 0x12065FE0 EQ PUSH2 0x37 JUMPI DUP1 PUSH4 0x81FE4C32 EQ PUSH2 0x61 JUMPI DUP1 PUSH4 0x9D52BF45 EQ PUSH2 0x80 JUMPI JUMPDEST PUSH0 DUP1 REVERT JUMPDEST CALLVALUE DUP1 ISZERO PUSH2 0x42 JUMPI PUSH0 DUP1 REVERT JUMPDEST POP PUSH2 0x4B PUSH2 0xBC JUMP JUMPDEST PUSH1 0x40 MLOAD PUSH2 0x58 SWAP2 SWAP1 PUSH2 0x338 JUMP JUMPDEST PUSH1 0x40 MLOAD DUP1 SWAP2 SUB SWAP1 RETURN JUMPDEST PUSH2 0x69 PUSH2 0xC3 JUMP JUMPDEST PUSH1 0x40 MLOAD PUSH2 0x77 SWAP3 SWAP2 SWAP1 PUSH2 0x36B JUMP JUMPDEST PUSH1 0x40 MLOAD DUP1 SWAP2 SUB SWAP1 RETURN JUMPDEST CALLVALUE DUP1 ISZERO PUSH2 0x8B JUMPI PUSH0 DUP1 REVERT JUMPDEST POP PUSH2 0xA6 PUSH1 0x4 DUP1 CALLDATASIZE SUB DUP2 ADD SWAP1 PUSH2 0xA1 SWAP2 SWAP1 PUSH2 0x41A JUMP JUMPDEST PUSH2 0xD9 JUMP JUMPDEST PUSH1 0x40 MLOAD PUSH2 0xB3 SWAP2 SWAP1 PUSH2 0x338 JUMP JUMPDEST PUSH1 0x40 MLOAD DUP1 SWAP2 SUB SWAP1 RETURN JUMPDEST PUSH0 SELFBALANCE SWAP1 POP SWAP1 JUMP JUMPDEST PUSH0 DUP1 PUSH1 0x1 PUSH2 0xD1 CALLER CALLVALUE PUSH2 0x1D8 JUMP JUMPDEST SWAP2 POP SWAP2 POP SWAP1 SWAP2 JUMP JUMPDEST PUSH0 DUP1 CALLER SWAP1 POP PUSH0 PUSH2 0xE8 DUP3 PUSH2 0x244 JUMP JUMPDEST SWAP1 POP DUP4 DUP2 LT ISZERO PUSH2 0x12D JUMPI PUSH1 0x40 MLOAD PUSH32 0x8C379A000000000000000000000000000000000000000000000000000000000 DUP2 MSTORE PUSH1 0x4 ADD PUSH2 0x124 SWAP1 PUSH2 0x4B2 JUMP JUMPDEST PUSH1 0x40 MLOAD DUP1 SWAP2 SUB SWAP1 REVERT JUMPDEST PUSH0 PUSH2 0x138 DUP4 DUP7 PUSH2 0x291 JUMP JUMPDEST SWAP1 POP DUP6 PUSH20 0xFFFFFFFFFFFFFFFFFFFFFFFFFFFFFFFFFFFFFFFF AND PUSH2 0x8FC DUP7 SWAP1 DUP2 ISZERO MUL SWAP1 PUSH1 0x40 MLOAD PUSH0 PUSH1 0x40 MLOAD DUP1 DUP4 SUB DUP2 DUP6 DUP9 DUP9 CALL SWAP4 POP POP POP POP ISZERO DUP1 ISZERO PUSH2 0x17D JUMPI RETURNDATASIZE PUSH0 DUP1 RETURNDATACOPY RETURNDATASIZE PUSH0 REVERT JUMPDEST POP DUP6 PUSH20 0xFFFFFFFFFFFFFFFFFFFFFFFFFFFFFFFFFFFFFFFF AND PUSH32 0x845850991963CC258A0464DADCAE66E59E72E9883BEB28E5EA89A547DF58EAFF DUP7 PUSH1 0x40 MLOAD PUSH2 0x1C4 SWAP2 SWAP1 PUSH2 0x338 JUMP JUMPDEST PUSH1 0x40 MLOAD DUP1 SWAP2 SUB SWAP1 LOG2 DUP1 SWAP4 POP POP POP POP SWAP3 SWAP2 POP POP JUMP JUMPDEST PUSH0 DUP1 PUSH2 0x20F DUP5 PUSH32 0x1F110348BC21BEEBF4BE96C5A8A1D0E3FB17D4705FA82359E4ADAF1EA21A7F51 PUSH0 SHL PUSH2 0x2FD SWAP1 SWAP2 SWAP1 PUSH4 0xFFFFFFFF AND JUMP JUMPDEST SWAP1 POP PUSH0 PUSH2 0x21B DUP3 PUSH2 0x317 JUMP JUMPDEST SWAP1 POP DUP4 DUP2 PUSH0 ADD PUSH0 DUP3 DUP3 SLOAD PUSH2 0x22F SWAP2 SWAP1 PUSH2 0x4FD JUMP JUMPDEST SWAP3 POP POP DUP2 SWAP1 SSTORE POP DUP1 PUSH0 ADD SLOAD SWAP3 POP POP POP SWAP3 SWAP2 POP POP JUMP JUMPDEST PUSH0 DUP1 PUSH2 0x27B DUP4 PUSH32 0x1F110348BC21BEEBF4BE96C5A8A1D0E3FB17D4705FA82359E4ADAF1EA21A7F51 PUSH0 SHL PUSH2 0x2FD SWAP1 SWAP2 SWAP1 PUSH4 0xFFFFFFFF AND JUMP JUMPDEST SWAP1 POP PUSH2 0x286 DUP2 PUSH2 0x317 JUMP JUMPDEST PUSH0 ADD SLOAD SWAP2 POP POP SWAP2 SWAP1 POP JUMP JUMPDEST PUSH0 DUP1 PUSH2 0x2C8 DUP5 PUSH32 0x1F110348BC21BEEBF4BE96C5A8A1D0E3FB17D4705FA82359E4ADAF1EA21A7F51 PUSH0 SHL PUSH2 0x2FD SWAP1 SWAP2 SWAP1 PUSH4 0xFFFFFFFF AND JUMP JUMPDEST SWAP1 POP PUSH0 PUSH2 0x2D4 DUP3 PUSH2 0x317 JUMP JUMPDEST SWAP1 POP DUP4 DUP2 PUSH0 ADD PUSH0 DUP3 DUP3 SLOAD PUSH2 0x2E8 SWAP2 SWAP1 PUSH2 0x530 JUMP JUMPDEST SWAP3 POP POP DUP2 SWAP1 SSTORE POP DUP1 PUSH0 ADD SLOAD SWAP3 POP POP POP SWAP3 SWAP2 POP POP JUMP JUMPDEST PUSH0 DUP1 NOT PUSH1 0x60 SHR DUP3 AND PUSH0 MSTORE DUP3 PUSH1 0x20 MSTORE PUSH1 0x40 PUSH0 KECCAK256 SWAP1 POP SWAP3 SWAP2 POP POP JUMP JUMPDEST PUSH0 DUP2 SWAP1 POP SWAP2 SWAP1 POP JUMP JUMPDEST PUSH0 DUP2 SWAP1 POP SWAP2 SWAP1 POP JUMP JUMPDEST PUSH2 0x332 DUP2 PUSH2 0x320 JUMP JUMPDEST DUP3 MSTORE POP POP JUMP JUMPDEST PUSH0 PUSH1 0x20 DUP3 ADD SWAP1 POP PUSH2 0x34B PUSH0 DUP4 ADD DUP5 PUSH2 0x329 JUMP JUMPDEST SWAP3 SWAP2 POP POP JUMP JUMPDEST PUSH0 DUP2 ISZERO ISZERO SWAP1 POP SWAP2 SWAP1 POP JUMP JUMPDEST PUSH2 0x365 DUP2 PUSH2 0x351 JUMP JUMPDEST DUP3 MSTORE POP POP JUMP JUMPDEST PUSH0 PUSH1 0x40 DUP3 ADD SWAP1 POP PUSH2 0x37E PUSH0 DUP4 ADD DUP6 PUSH2 0x35C JUMP JUMPDEST PUSH2 0x38B PUSH1 0x20 DUP4 ADD DUP5 PUSH2 0x329 JUMP JUMPDEST SWAP4 SWAP3 POP POP POP JUMP JUMPDEST PUSH0 DUP1 REVERT JUMPDEST PUSH0 PUSH20 0xFFFFFFFFFFFFFFFFFFFFFFFFFFFFFFFFFFFFFFFF DUP3 AND SWAP1 POP SWAP2 SWAP1 POP JUMP JUMPDEST PUSH0 PUSH2 0x3BF DUP3 PUSH2 0x396 JUMP JUMPDEST SWAP1 POP SWAP2 SWAP1 POP JUMP JUMPDEST PUSH2 0x3CF DUP2 PUSH2 0x3B5 JUMP JUMPDEST DUP2 EQ PUSH2 0x3D9 JUMPI PUSH0 DUP1 REVERT JUMPDEST POP JUMP JUMPDEST PUSH0 DUP2 CALLDATALOAD SWAP1 POP PUSH2 0x3EA DUP2 PUSH2 0x3C6 JUMP JUMPDEST SWAP3 SWAP2 POP POP JUMP JUMPDEST PUSH2 0x3F9 DUP2 PUSH2 0x320 JUMP JUMPDEST DUP2 EQ PUSH2 0x403 JUMPI PUSH0 DUP1 REVERT JUMPDEST POP JUMP JUMPDEST PUSH0 DUP2 CALLDATALOAD SWAP1 POP PUSH2 0x414 DUP2 PUSH2 0x3F0 JUMP JUMPDEST SWAP3 SWAP2 POP POP JUMP JUMPDEST PUSH0 DUP1 PUSH1 0x40 DUP4 DUP6 SUB SLT ISZERO PUSH2 0x430 JUMPI PUSH2 0x42F PUSH2 0x392 JUMP JUMPDEST JUMPDEST PUSH0 PUSH2 0x43D DUP6 DUP3 DUP7 ADD PUSH2 0x3DC JUMP JUMPDEST SWAP3 POP POP PUSH1 0x20 PUSH2 0x44E DUP6 DUP3 DUP7 ADD PUSH2 0x406 JUMP JUMPDEST SWAP2 POP POP SWAP3 POP SWAP3 SWAP1 POP JUMP JUMPDEST PUSH0 DUP3 DUP3 MSTORE PUSH1 0x20 DUP3 ADD SWAP1 POP SWAP3 SWAP2 POP POP JUMP JUMPDEST PUSH32 0x62616C616E6365206E6F7420656E6F7567680000000000000000000000000000 PUSH0 DUP3 ADD MSTORE POP JUMP JUMPDEST PUSH0 PUSH2 0x49C PUSH1 0x12 DUP4 PUSH2 0x458 JUMP JUMPDEST SWAP2 POP PUSH2 0x4A7 DUP3 PUSH2 0x468 JUMP JUMPDEST PUSH1 0x20 DUP3 ADD SWAP1 POP SWAP2 SWAP1 POP JUMP JUMPDEST PUSH0 PUSH1 0x20 DUP3 ADD SWAP1 POP DUP2 DUP2 SUB PUSH0 DUP4 ADD MSTORE PUSH2 0x4C9 DUP2 PUSH2 0x490 JUMP JUMPDEST SWAP1 POP SWAP2 SWAP1 POP JUMP JUMPDEST PUSH32 0x4E487B7100000000000000000000000000000000000000000000000000000000 PUSH0 MSTORE PUSH1 0x11 PUSH1 0x4 MSTORE PUSH1 0x24 PUSH0 REVERT JUMPDEST PUSH0 PUSH2 0x507 DUP3 PUSH2 0x320 JUMP JUMPDEST SWAP2 POP PUSH2 0x512 DUP4 PUSH2 0x320 JUMP JUMPDEST SWAP3 POP DUP3 DUP3 ADD SWAP1 POP DUP1 DUP3 GT ISZERO PUSH2 0x52A JUMPI PUSH2 0x529 PUSH2 0x4D0 JUMP JUMPDEST JUMPDEST SWAP3 SWAP2 POP POP JUMP JUMPDEST PUSH0 PUSH2 0x53A DUP3 PUSH2 0x320 JUMP JUMPDEST SWAP2 POP PUSH2 0x545 DUP4 PUSH2 0x320 JUMP JUMPDEST SWAP3 POP DUP3 DUP3 SUB SWAP1 POP DUP2 DUP2 GT ISZERO PUSH2 0x55D JUMPI PUSH2 0x55C PUSH2 0x4D0 JUMP JUMPDEST JUMPDEST SWAP3 SWAP2 POP POP JUMP INVALID LOG2 PUSH5 0x6970667358 0x22 SLT KECCAK256 PUSH23 0x288946E94005B62CF013B979D186D1D43545376F75FBC2 0x1F DUP9 PUSH15 0x4964FF667564736F6C634300081A00 CALLER "
		},
		"gasEstimates": {
			"creation": {
				"codeDepositCost": "286600",
				"executionCost": "322",
				"totalCost": "286922"
			},
			"external": {
				"getBalance()": "312",
				"giveYourMoney()": "infinite",
				"transTo(address,uint256)": "infinite"
			},
			"internal": {
				"addOwnerBalance(address,uint256)": "infinite",
				"getBalance(address)": "infinite",
				"minusOwnerBalance(address,uint256)": "infinite"
			}
		},
		"methodIdentifiers": {
			"getBalance()": "12065fe0",
			"giveYourMoney()": "81fe4c32",
			"transTo(address,uint256)": "9d52bf45"
		}
	},
	"abi": [
		{
			"anonymous": false,
			"inputs": [
				{
					"indexed": true,
					"internalType": "address",
					"name": "to",
					"type": "address"
				},
				{
					"indexed": false,
					"internalType": "uint256",
					"name": "amount",
					"type": "uint256"
				}
			],
			"name": "TransferTo",
			"type": "event"
		},
		{
			"inputs": [],
			"name": "getBalance",
			"outputs": [
				{
					"internalType": "uint256",
					"name": "",
					"type": "uint256"
				}
			],
			"stateMutability": "view",
			"type": "function"
		},
		{
			"inputs": [],
			"name": "giveYourMoney",
			"outputs": [
				{
					"internalType": "bool",
					"name": "",
					"type": "bool"
				},
				{
					"internalType": "uint256",
					"name": "",
					"type": "uint256"
				}
			],
			"stateMutability": "payable",
			"type": "function"
		},
		{
			"inputs": [
				{
					"internalType": "address",
					"name": "to",
					"type": "address"
				},
				{
					"internalType": "uint256",
					"name": "amount",
					"type": "uint256"
				}
			],
			"name": "transTo",
			"outputs": [
				{
					"internalType": "uint256",
					"name": "",
					"type": "uint256"
				}
			],
			"stateMutability": "nonpayable",
			"type": "function"
		}
	]
}