{
	"data": {
		"bytecode": {
			"linkReferences": {},
			"object": "6080604052348015600e575f80fd5b50610e438061001c5f395ff3fe608060405234801561000f575f80fd5b5060043610610034575f3560e01c80632915bb50146100385780633155f92f14610068575b5f80fd5b610052600480360381019061004d91906104b0565b610098565b60405161005f91906104ea565b60405180910390f35b610082600480360381019061007d91906104b0565b61026a565b60405161008f9190610542565b60405180910390f35b5f805f9054906101000a900473ffffffffffffffffffffffffffffffffffffffff1673ffffffffffffffffffffffffffffffffffffffff1663e4968db9836040518263ffffffff1660e01b81526004016100f291906104ea565b602060405180830381865afa92505050801561012c57506040513d601f19601f82011682018060405250810190610129919061056f565b60015b610229576101386105a6565b806308c379a003610194575061014c610633565b8061015757506101ee565b7f6222dc10afcca3c8cec10b1b08a9bff096c30eb574a3233be051aa5440fc41bb816040516101869190610722565b60405180910390a150610224565b634e487b71036101ee576101a6610742565b906101b157506101ee565b7f4c33625757c11d167a97c0d41c5e1cbcf1dc9cf4fb45d4efe2598b26321c2d8c816040516101e091906104ea565b60405180910390a150610224565b7f1d807874e643d396abcd9c5e1c95689e1d221c81305fcc8c6e5b6deb6dd58dea60405161021b906107e0565b60405180910390a15b610265565b7ff16018afcea13350a1b7b13652fe6a3bc1eb0f7d67b55c0ceab7fd93178651be8260405161025891906104ea565b60405180910390a1809150505b919050565b5f8160405161027890610463565b61028291906104ea565b604051809103905ff080156102945760015b6103c4576102a06105a6565b806308c379a0036102fc57506102b4610633565b806102bf5750610356565b7f6222dc10afcca3c8cec10b1b08a9bff096c30eb574a3233be051aa5440fc41bb816040516102ee9190610722565b60405180910390a1506103bf565b634e487b71036103565761030e610742565b906103195750610356565b7f4c33625757c11d167a97c0d41c5e1cbcf1dc9cf4fb45d4efe2598b26321c2d8c8160405161034891906104ea565b60405180910390a1506103bf565b3d805f8114610380576040519150601f19603f3d011682016040523d82523d5f602084013e610385565b606091505b507f1d807874e643d396abcd9c5e1c95689e1d221c81305fcc8c6e5b6deb6dd58dea816040516103b59190610840565b60405180910390a1505b61043c565b7fd6b5b0e54975f79d91fa26896124aa2654674f4469aa822f4e44a451d73eb74f816040516103f39190610542565b60405180910390a1805f806101000a81548173ffffffffffffffffffffffffffffffffffffffff021916908373ffffffffffffffffffffffffffffffffffffffff160217905550505b5f8054906101000a900473ffffffffffffffffffffffffffffffffffffffff169050919050565b6105ad8061086183390190565b5f604051905090565b5f80fd5b5f819050919050565b61048f8161047d565b8114610499575f80fd5b50565b5f813590506104aa81610486565b92915050565b5f602082840312156104c5576104c4610479565b5b5f6104d28482850161049c565b91505092915050565b6104e48161047d565b82525050565b5f6020820190506104fd5f8301846104db565b92915050565b5f73ffffffffffffffffffffffffffffffffffffffff82169050919050565b5f61052c82610503565b9050919050565b61053c81610522565b82525050565b5f6020820190506105555f830184610533565b92915050565b5f8151905061056981610486565b92915050565b5f6020828403121561058457610583610479565b5b5f6105918482850161055b565b91505092915050565b5f8160e01c9050919050565b5f60033d11156105c25760045f803e6105bf5f5161059a565b90505b90565b5f601f19601f8301169050919050565b7f4e487b71000000000000000000000000000000000000000000000000000000005f52604160045260245ffd5b61060b826105c5565b810181811067ffffffffffffffff8211171561062a576106296105d5565b5b80604052505050565b5f60443d106106bf57610644610470565b60043d036004823e80513d602482011167ffffffffffffffff8211171561066c5750506106bf565b808201805167ffffffffffffffff81111561068a57505050506106bf565b80602083010160043d0385018111156106a75750505050506106bf565b6106b682602001850186610602565b82955050505050505b90565b5f81519050919050565b5f82825260208201905092915050565b8281835e5f83830152505050565b5f6106f4826106c2565b6106fe81856106cc565b935061070e8185602086016106dc565b610717816105c5565b840191505092915050565b5f6020820190508181035f83015261073a81846106ea565b905092915050565b5f8060233d111561075c57602060045f3e600191505f5190505b9091565b5f82825260208201905092915050565b7f286279746573206d656d6f7279206c6f774c6576656c44617461292c206275745f8201527f206e6f74206e6565642074686520627974657320647461000000000000000000602082015250565b5f6107ca603783610760565b91506107d582610770565b604082019050919050565b5f6020820190508181035f8301526107f7816107be565b9050919050565b5f81519050919050565b5f610812826107fe565b61081c8185610760565b935061082c8185602086016106dc565b610835816105c5565b840191505092915050565b5f6020820190508181035f8301526108588184610808565b90509291505056fe608060405234801561000f575f80fd5b506040516105ad3803806105ad83398181016040528101906100319190610122565b5f8103610073576040517f08c379a000000000000000000000000000000000000000000000000000000000815260040161006a906101a7565b60405180910390fd5b60018103610084576100836101c5565b5b60038103610090575f80fd5b600481036100a2575f6100a1575f80fd5b5b600581036100e5576040517f1d2373b40000000000000000000000000000000000000000000000000000000081526004016100dc9061023c565b60405180910390fd5b5061025a565b5f80fd5b5f819050919050565b610101816100ef565b811461010b575f80fd5b50565b5f8151905061011c816100f8565b92915050565b5f60208284031215610137576101366100eb565b5b5f6101448482850161010e565b91505092915050565b5f82825260208201905092915050565b7f6e756d2063616e206e6f74206265207a65726f000000000000000000000000005f82015250565b5f61019160138361014d565b915061019c8261015d565b602082019050919050565b5f6020820190508181035f8301526101be81610185565b9050919050565b7f4e487b71000000000000000000000000000000000000000000000000000000005f52600160045260245ffd5b7f6e756d2063616e206e6f742062652074687265650000000000000000000000005f82015250565b5f61022660148361014d565b9150610231826101f2565b602082019050919050565b5f6020820190508181035f8301526102538161021a565b9050919050565b610346806102675f395ff3fe608060405234801561000f575f80fd5b5060043610610029575f3560e01c8063e4968db91461002d575b5f80fd5b61004760048036038101906100429190610134565b61005d565b604051610054919061016e565b60405180910390f35b5f600182036100a1576040517f08c379a000000000000000000000000000000000000000000000000000000000815260040161009890610207565b60405180910390fd5b5f82600a6100af9190610252565b9050600383036100f4576040517f8f0bd2e60000000000000000000000000000000000000000000000000000000081526004016100eb906102f2565b60405180910390fd5b80915050919050565b5f80fd5b5f819050919050565b61011381610101565b811461011d575f80fd5b50565b5f8135905061012e8161010a565b92915050565b5f60208284031215610149576101486100fd565b5b5f61015684828501610120565b91505092915050565b61016881610101565b82525050565b5f6020820190506101815f83018461015f565b92915050565b5f82825260208201905092915050565b7f746865206e756d2063616e206e6f7420657175616c73207a65726f20696e206d5f8201527f696768744661696c2066756e6374696f6e000000000000000000000000000000602082015250565b5f6101f1603183610187565b91506101fc82610197565b604082019050919050565b5f6020820190508181035f83015261021e816101e5565b9050919050565b7f4e487b71000000000000000000000000000000000000000000000000000000005f52601260045260245ffd5b5f61025c82610101565b915061026783610101565b92508261027757610276610225565b5b828204905092915050565b7f6d696768744661696c20706172616d2063616e206e6f7420657175616c7320745f8201527f6872656500000000000000000000000000000000000000000000000000000000602082015250565b5f6102dc602483610187565b91506102e782610282565b604082019050919050565b5f6020820190508181035f830152610309816102d0565b905091905056fea2646970667358221220262df4aebe692a7d8031e5393ad7d812e22ebbecd2cd001d2f726e514356bda464736f6c634300081a0033a26469706673582212207899be9f867dd7b32e273ba9bec8e2b1fa8c6cbb081f2e56857fc206425a6a4464736f6c634300081a0033",
			"opcodes": "PUSH1 0x80 PUSH1 0x40 MSTORE CALLVALUE DUP1 ISZERO PUSH1 0xE JUMPI PUSH0 DUP1 REVERT JUMPDEST POP PUSH2 0xE43 DUP1 PUSH2 0x1C PUSH0 CODECOPY PUSH0 RETURN INVALID PUSH1 0x80 PUSH1 0x40 MSTORE CALLVALUE DUP1 ISZERO PUSH2 0xF JUMPI PUSH0 DUP1 REVERT JUMPDEST POP PUSH1 0x4 CALLDATASIZE LT PUSH2 0x34 JUMPI PUSH0 CALLDATALOAD PUSH1 0xE0 SHR DUP1 PUSH4 0x2915BB50 EQ PUSH2 0x38 JUMPI DUP1 PUSH4 0x3155F92F EQ PUSH2 0x68 JUMPI JUMPDEST PUSH0 DUP1 REVERT JUMPDEST PUSH2 0x52 PUSH1 0x4 DUP1 CALLDATASIZE SUB DUP2 ADD SWAP1 PUSH2 0x4D SWAP2 SWAP1 PUSH2 0x4B0 JUMP JUMPDEST PUSH2 0x98 JUMP JUMPDEST PUSH1 0x40 MLOAD PUSH2 0x5F SWAP2 SWAP1 PUSH2 0x4EA JUMP JUMPDEST PUSH1 0x40 MLOAD DUP1 SWAP2 SUB SWAP1 RETURN JUMPDEST PUSH2 0x82 PUSH1 0x4 DUP1 CALLDATASIZE SUB DUP2 ADD SWAP1 PUSH2 0x7D SWAP2 SWAP1 PUSH2 0x4B0 JUMP JUMPDEST PUSH2 0x26A JUMP JUMPDEST PUSH1 0x40 MLOAD PUSH2 0x8F SWAP2 SWAP1 PUSH2 0x542 JUMP JUMPDEST PUSH1 0x40 MLOAD DUP1 SWAP2 SUB SWAP1 RETURN JUMPDEST PUSH0 DUP1 PUSH0 SWAP1 SLOAD SWAP1 PUSH2 0x100 EXP SWAP1 DIV PUSH20 0xFFFFFFFFFFFFFFFFFFFFFFFFFFFFFFFFFFFFFFFF AND PUSH20 0xFFFFFFFFFFFFFFFFFFFFFFFFFFFFFFFFFFFFFFFF AND PUSH4 0xE4968DB9 DUP4 PUSH1 0x40 MLOAD DUP3 PUSH4 0xFFFFFFFF AND PUSH1 0xE0 SHL DUP2 MSTORE PUSH1 0x4 ADD PUSH2 0xF2 SWAP2 SWAP1 PUSH2 0x4EA JUMP JUMPDEST PUSH1 0x20 PUSH1 0x40 MLOAD DUP1 DUP4 SUB DUP2 DUP7 GAS STATICCALL SWAP3 POP POP POP DUP1 ISZERO PUSH2 0x12C JUMPI POP PUSH1 0x40 MLOAD RETURNDATASIZE PUSH1 0x1F NOT PUSH1 0x1F DUP3 ADD AND DUP3 ADD DUP1 PUSH1 0x40 MSTORE POP DUP2 ADD SWAP1 PUSH2 0x129 SWAP2 SWAP1 PUSH2 0x56F JUMP JUMPDEST PUSH1 0x1 JUMPDEST PUSH2 0x229 JUMPI PUSH2 0x138 PUSH2 0x5A6 JUMP JUMPDEST DUP1 PUSH4 0x8C379A0 SUB PUSH2 0x194 JUMPI POP PUSH2 0x14C PUSH2 0x633 JUMP JUMPDEST DUP1 PUSH2 0x157 JUMPI POP PUSH2 0x1EE JUMP JUMPDEST PUSH32 0x6222DC10AFCCA3C8CEC10B1B08A9BFF096C30EB574A3233BE051AA5440FC41BB DUP2 PUSH1 0x40 MLOAD PUSH2 0x186 SWAP2 SWAP1 PUSH2 0x722 JUMP JUMPDEST PUSH1 0x40 MLOAD DUP1 SWAP2 SUB SWAP1 LOG1 POP PUSH2 0x224 JUMP JUMPDEST PUSH4 0x4E487B71 SUB PUSH2 0x1EE JUMPI PUSH2 0x1A6 PUSH2 0x742 JUMP JUMPDEST SWAP1 PUSH2 0x1B1 JUMPI POP PUSH2 0x1EE JUMP JUMPDEST PUSH32 0x4C33625757C11D167A97C0D41C5E1CBCF1DC9CF4FB45D4EFE2598B26321C2D8C DUP2 PUSH1 0x40 MLOAD PUSH2 0x1E0 SWAP2 SWAP1 PUSH2 0x4EA JUMP JUMPDEST PUSH1 0x40 MLOAD DUP1 SWAP2 SUB SWAP1 LOG1 POP PUSH2 0x224 JUMP JUMPDEST PUSH32 0x1D807874E643D396ABCD9C5E1C95689E1D221C81305FCC8C6E5B6DEB6DD58DEA PUSH1 0x40 MLOAD PUSH2 0x21B SWAP1 PUSH2 0x7E0 JUMP JUMPDEST PUSH1 0x40 MLOAD DUP1 SWAP2 SUB SWAP1 LOG1 JUMPDEST PUSH2 0x265 JUMP JUMPDEST PUSH32 0xF16018AFCEA13350A1B7B13652FE6A3BC1EB0F7D67B55C0CEAB7FD93178651BE DUP3 PUSH1 0x40 MLOAD PUSH2 0x258 SWAP2 SWAP1 PUSH2 0x4EA JUMP JUMPDEST PUSH1 0x40 MLOAD DUP1 SWAP2 SUB SWAP1 LOG1 DUP1 SWAP2 POP POP JUMPDEST SWAP2 SWAP1 POP JUMP JUMPDEST PUSH0 DUP2 PUSH1 0x40 MLOAD PUSH2 0x278 SWAP1 PUSH2 0x463 JUMP JUMPDEST PUSH2 0x282 SWAP2 SWAP1 PUSH2 0x4EA JUMP JUMPDEST PUSH1 0x40 MLOAD DUP1 SWAP2 SUB SWAP1 PUSH0 CREATE DUP1 ISZERO PUSH2 0x294 JUMPI PUSH1 0x1 JUMPDEST PUSH2 0x3C4 JUMPI PUSH2 0x2A0 PUSH2 0x5A6 JUMP JUMPDEST DUP1 PUSH4 0x8C379A0 SUB PUSH2 0x2FC JUMPI POP PUSH2 0x2B4 PUSH2 0x633 JUMP JUMPDEST DUP1 PUSH2 0x2BF JUMPI POP PUSH2 0x356 JUMP JUMPDEST PUSH32 0x6222DC10AFCCA3C8CEC10B1B08A9BFF096C30EB574A3233BE051AA5440FC41BB DUP2 PUSH1 0x40 MLOAD PUSH2 0x2EE SWAP2 SWAP1 PUSH2 0x722 JUMP JUMPDEST PUSH1 0x40 MLOAD DUP1 SWAP2 SUB SWAP1 LOG1 POP PUSH2 0x3BF JUMP JUMPDEST PUSH4 0x4E487B71 SUB PUSH2 0x356 JUMPI PUSH2 0x30E PUSH2 0x742 JUMP JUMPDEST SWAP1 PUSH2 0x319 JUMPI POP PUSH2 0x356 JUMP JUMPDEST PUSH32 0x4C33625757C11D167A97C0D41C5E1CBCF1DC9CF4FB45D4EFE2598B26321C2D8C DUP2 PUSH1 0x40 MLOAD PUSH2 0x348 SWAP2 SWAP1 PUSH2 0x4EA JUMP JUMPDEST PUSH1 0x40 MLOAD DUP1 SWAP2 SUB SWAP1 LOG1 POP PUSH2 0x3BF JUMP JUMPDEST RETURNDATASIZE DUP1 PUSH0 DUP2 EQ PUSH2 0x380 JUMPI PUSH1 0x40 MLOAD SWAP2 POP PUSH1 0x1F NOT PUSH1 0x3F RETURNDATASIZE ADD AND DUP3 ADD PUSH1 0x40 MSTORE RETURNDATASIZE DUP3 MSTORE RETURNDATASIZE PUSH0 PUSH1 0x20 DUP5 ADD RETURNDATACOPY PUSH2 0x385 JUMP JUMPDEST PUSH1 0x60 SWAP2 POP JUMPDEST POP PUSH32 0x1D807874E643D396ABCD9C5E1C95689E1D221C81305FCC8C6E5B6DEB6DD58DEA DUP2 PUSH1 0x40 MLOAD PUSH2 0x3B5 SWAP2 SWAP1 PUSH2 0x840 JUMP JUMPDEST PUSH1 0x40 MLOAD DUP1 SWAP2 SUB SWAP1 LOG1 POP JUMPDEST PUSH2 0x43C JUMP JUMPDEST PUSH32 0xD6B5B0E54975F79D91FA26896124AA2654674F4469AA822F4E44A451D73EB74F DUP2 PUSH1 0x40 MLOAD PUSH2 0x3F3 SWAP2 SWAP1 PUSH2 0x542 JUMP JUMPDEST PUSH1 0x40 MLOAD DUP1 SWAP2 SUB SWAP1 LOG1 DUP1 PUSH0 DUP1 PUSH2 0x100 EXP DUP2 SLOAD DUP2 PUSH20 0xFFFFFFFFFFFFFFFFFFFFFFFFFFFFFFFFFFFFFFFF MUL NOT AND SWAP1 DUP4 PUSH20 0xFFFFFFFFFFFFFFFFFFFFFFFFFFFFFFFFFFFFFFFF AND MUL OR SWAP1 SSTORE POP POP JUMPDEST PUSH0 DUP1 SLOAD SWAP1 PUSH2 0x100 EXP SWAP1 DIV PUSH20 0xFFFFFFFFFFFFFFFFFFFFFFFFFFFFFFFFFFFFFFFF AND SWAP1 POP SWAP2 SWAP1 POP JUMP JUMPDEST PUSH2 0x5AD DUP1 PUSH2 0x861 DUP4 CODECOPY ADD SWAP1 JUMP JUMPDEST PUSH0 PUSH1 0x40 MLOAD SWAP1 POP SWAP1 JUMP JUMPDEST PUSH0 DUP1 REVERT JUMPDEST PUSH0 DUP2 SWAP1 POP SWAP2 SWAP1 POP JUMP JUMPDEST PUSH2 0x48F DUP2 PUSH2 0x47D JUMP JUMPDEST DUP2 EQ PUSH2 0x499 JUMPI PUSH0 DUP1 REVERT JUMPDEST POP JUMP JUMPDEST PUSH0 DUP2 CALLDATALOAD SWAP1 POP PUSH2 0x4AA DUP2 PUSH2 0x486 JUMP JUMPDEST SWAP3 SWAP2 POP POP JUMP JUMPDEST PUSH0 PUSH1 0x20 DUP3 DUP5 SUB SLT ISZERO PUSH2 0x4C5 JUMPI PUSH2 0x4C4 PUSH2 0x479 JUMP JUMPDEST JUMPDEST PUSH0 PUSH2 0x4D2 DUP5 DUP3 DUP6 ADD PUSH2 0x49C JUMP JUMPDEST SWAP2 POP POP SWAP3 SWAP2 POP POP JUMP JUMPDEST PUSH2 0x4E4 DUP2 PUSH2 0x47D JUMP JUMPDEST DUP3 MSTORE POP POP JUMP JUMPDEST PUSH0 PUSH1 0x20 DUP3 ADD SWAP1 POP PUSH2 0x4FD PUSH0 DUP4 ADD DUP5 PUSH2 0x4DB JUMP JUMPDEST SWAP3 SWAP2 POP POP JUMP JUMPDEST PUSH0 PUSH20 0xFFFFFFFFFFFFFFFFFFFFFFFFFFFFFFFFFFFFFFFF DUP3 AND SWAP1 POP SWAP2 SWAP1 POP JUMP JUMPDEST PUSH0 PUSH2 0x52C DUP3 PUSH2 0x503 JUMP JUMPDEST SWAP1 POP SWAP2 SWAP1 POP JUMP JUMPDEST PUSH2 0x53C DUP2 PUSH2 0x522 JUMP JUMPDEST DUP3 MSTORE POP POP JUMP JUMPDEST PUSH0 PUSH1 0x20 DUP3 ADD SWAP1 POP PUSH2 0x555 PUSH0 DUP4 ADD DUP5 PUSH2 0x533 JUMP JUMPDEST SWAP3 SWAP2 POP POP JUMP JUMPDEST PUSH0 DUP2 MLOAD SWAP1 POP PUSH2 0x569 DUP2 PUSH2 0x486 JUMP JUMPDEST SWAP3 SWAP2 POP POP JUMP JUMPDEST PUSH0 PUSH1 0x20 DUP3 DUP5 SUB SLT ISZERO PUSH2 0x584 JUMPI PUSH2 0x583 PUSH2 0x479 JUMP JUMPDEST JUMPDEST PUSH0 PUSH2 0x591 DUP5 DUP3 DUP6 ADD PUSH2 0x55B JUMP JUMPDEST SWAP2 POP POP SWAP3 SWAP2 POP POP JUMP JUMPDEST PUSH0 DUP2 PUSH1 0xE0 SHR SWAP1 POP SWAP2 SWAP1 POP JUMP JUMPDEST PUSH0 PUSH1 0x3 RETURNDATASIZE GT ISZERO PUSH2 0x5C2 JUMPI PUSH1 0x4 PUSH0 DUP1 RETURNDATACOPY PUSH2 0x5BF PUSH0 MLOAD PUSH2 0x59A JUMP JUMPDEST SWAP1 POP JUMPDEST SWAP1 JUMP JUMPDEST PUSH0 PUSH1 0x1F NOT PUSH1 0x1F DUP4 ADD AND SWAP1 POP SWAP2 SWAP1 POP JUMP JUMPDEST PUSH32 0x4E487B7100000000000000000000000000000000000000000000000000000000 PUSH0 MSTORE PUSH1 0x41 PUSH1 0x4 MSTORE PUSH1 0x24 PUSH0 REVERT JUMPDEST PUSH2 0x60B DUP3 PUSH2 0x5C5 JUMP JUMPDEST DUP2 ADD DUP2 DUP2 LT PUSH8 0xFFFFFFFFFFFFFFFF DUP3 GT OR ISZERO PUSH2 0x62A JUMPI PUSH2 0x629 PUSH2 0x5D5 JUMP JUMPDEST JUMPDEST DUP1 PUSH1 0x40 MSTORE POP POP POP JUMP JUMPDEST PUSH0 PUSH1 0x44 RETURNDATASIZE LT PUSH2 0x6BF JUMPI PUSH2 0x644 PUSH2 0x470 JUMP JUMPDEST PUSH1 0x4 RETURNDATASIZE SUB PUSH1 0x4 DUP3 RETURNDATACOPY DUP1 MLOAD RETURNDATASIZE PUSH1 0x24 DUP3 ADD GT PUSH8 0xFFFFFFFFFFFFFFFF DUP3 GT OR ISZERO PUSH2 0x66C JUMPI POP POP PUSH2 0x6BF JUMP JUMPDEST DUP1 DUP3 ADD DUP1 MLOAD PUSH8 0xFFFFFFFFFFFFFFFF DUP2 GT ISZERO PUSH2 0x68A JUMPI POP POP POP POP PUSH2 0x6BF JUMP JUMPDEST DUP1 PUSH1 0x20 DUP4 ADD ADD PUSH1 0x4 RETURNDATASIZE SUB DUP6 ADD DUP2 GT ISZERO PUSH2 0x6A7 JUMPI POP POP POP POP POP PUSH2 0x6BF JUMP JUMPDEST PUSH2 0x6B6 DUP3 PUSH1 0x20 ADD DUP6 ADD DUP7 PUSH2 0x602 JUMP JUMPDEST DUP3 SWAP6 POP POP POP POP POP POP JUMPDEST SWAP1 JUMP JUMPDEST PUSH0 DUP2 MLOAD SWAP1 POP SWAP2 SWAP1 POP JUMP JUMPDEST PUSH0 DUP3 DUP3 MSTORE PUSH1 0x20 DUP3 ADD SWAP1 POP SWAP3 SWAP2 POP POP JUMP JUMPDEST DUP3 DUP2 DUP4 MCOPY PUSH0 DUP4 DUP4 ADD MSTORE POP POP POP JUMP JUMPDEST PUSH0 PUSH2 0x6F4 DUP3 PUSH2 0x6C2 JUMP JUMPDEST PUSH2 0x6FE DUP2 DUP6 PUSH2 0x6CC JUMP JUMPDEST SWAP4 POP PUSH2 0x70E DUP2 DUP6 PUSH1 0x20 DUP7 ADD PUSH2 0x6DC JUMP JUMPDEST PUSH2 0x717 DUP2 PUSH2 0x5C5 JUMP JUMPDEST DUP5 ADD SWAP2 POP POP SWAP3 SWAP2 POP POP JUMP JUMPDEST PUSH0 PUSH1 0x20 DUP3 ADD SWAP1 POP DUP2 DUP2 SUB PUSH0 DUP4 ADD MSTORE PUSH2 0x73A DUP2 DUP5 PUSH2 0x6EA JUMP JUMPDEST SWAP1 POP SWAP3 SWAP2 POP POP JUMP JUMPDEST PUSH0 DUP1 PUSH1 0x23 RETURNDATASIZE GT ISZERO PUSH2 0x75C JUMPI PUSH1 0x20 PUSH1 0x4 PUSH0 RETURNDATACOPY PUSH1 0x1 SWAP2 POP PUSH0 MLOAD SWAP1 POP JUMPDEST SWAP1 SWAP2 JUMP JUMPDEST PUSH0 DUP3 DUP3 MSTORE PUSH1 0x20 DUP3 ADD SWAP1 POP SWAP3 SWAP2 POP POP JUMP JUMPDEST PUSH32 0x286279746573206D656D6F7279206C6F774C6576656C44617461292C20627574 PUSH0 DUP3 ADD MSTORE PUSH32 0x206E6F74206E6565642074686520627974657320647461000000000000000000 PUSH1 0x20 DUP3 ADD MSTORE POP JUMP JUMPDEST PUSH0 PUSH2 0x7CA PUSH1 0x37 DUP4 PUSH2 0x760 JUMP JUMPDEST SWAP2 POP PUSH2 0x7D5 DUP3 PUSH2 0x770 JUMP JUMPDEST PUSH1 0x40 DUP3 ADD SWAP1 POP SWAP2 SWAP1 POP JUMP JUMPDEST PUSH0 PUSH1 0x20 DUP3 ADD SWAP1 POP DUP2 DUP2 SUB PUSH0 DUP4 ADD MSTORE PUSH2 0x7F7 DUP2 PUSH2 0x7BE JUMP JUMPDEST SWAP1 POP SWAP2 SWAP1 POP JUMP JUMPDEST PUSH0 DUP2 MLOAD SWAP1 POP SWAP2 SWAP1 POP JUMP JUMPDEST PUSH0 PUSH2 0x812 DUP3 PUSH2 0x7FE JUMP JUMPDEST PUSH2 0x81C DUP2 DUP6 PUSH2 0x760 JUMP JUMPDEST SWAP4 POP PUSH2 0x82C DUP2 DUP6 PUSH1 0x20 DUP7 ADD PUSH2 0x6DC JUMP JUMPDEST PUSH2 0x835 DUP2 PUSH2 0x5C5 JUMP JUMPDEST DUP5 ADD SWAP2 POP POP SWAP3 SWAP2 POP POP JUMP JUMPDEST PUSH0 PUSH1 0x20 DUP3 ADD SWAP1 POP DUP2 DUP2 SUB PUSH0 DUP4 ADD MSTORE PUSH2 0x858 DUP2 DUP5 PUSH2 0x808 JUMP JUMPDEST SWAP1 POP SWAP3 SWAP2 POP POP JUMP INVALID PUSH1 0x80 PUSH1 0x40 MSTORE CALLVALUE DUP1 ISZERO PUSH2 0xF JUMPI PUSH0 DUP1 REVERT JUMPDEST POP PUSH1 0x40 MLOAD PUSH2 0x5AD CODESIZE SUB DUP1 PUSH2 0x5AD DUP4 CODECOPY DUP2 DUP2 ADD PUSH1 0x40 MSTORE DUP2 ADD SWAP1 PUSH2 0x31 SWAP2 SWAP1 PUSH2 0x122 JUMP JUMPDEST PUSH0 DUP2 SUB PUSH2 0x73 JUMPI PUSH1 0x40 MLOAD PUSH32 0x8C379A000000000000000000000000000000000000000000000000000000000 DUP2 MSTORE PUSH1 0x4 ADD PUSH2 0x6A SWAP1 PUSH2 0x1A7 JUMP JUMPDEST PUSH1 0x40 MLOAD DUP1 SWAP2 SUB SWAP1 REVERT JUMPDEST PUSH1 0x1 DUP2 SUB PUSH2 0x84 JUMPI PUSH2 0x83 PUSH2 0x1C5 JUMP JUMPDEST JUMPDEST PUSH1 0x3 DUP2 SUB PUSH2 0x90 JUMPI PUSH0 DUP1 REVERT JUMPDEST PUSH1 0x4 DUP2 SUB PUSH2 0xA2 JUMPI PUSH0 PUSH2 0xA1 JUMPI PUSH0 DUP1 REVERT JUMPDEST JUMPDEST PUSH1 0x5 DUP2 SUB PUSH2 0xE5 JUMPI PUSH1 0x40 MLOAD PUSH32 0x1D2373B400000000000000000000000000000000000000000000000000000000 DUP2 MSTORE PUSH1 0x4 ADD PUSH2 0xDC SWAP1 PUSH2 0x23C JUMP JUMPDEST PUSH1 0x40 MLOAD DUP1 SWAP2 SUB SWAP1 REVERT JUMPDEST POP PUSH2 0x25A JUMP JUMPDEST PUSH0 DUP1 REVERT JUMPDEST PUSH0 DUP2 SWAP1 POP SWAP2 SWAP1 POP JUMP JUMPDEST PUSH2 0x101 DUP2 PUSH2 0xEF JUMP JUMPDEST DUP2 EQ PUSH2 0x10B JUMPI PUSH0 DUP1 REVERT JUMPDEST POP JUMP JUMPDEST PUSH0 DUP2 MLOAD SWAP1 POP PUSH2 0x11C DUP2 PUSH2 0xF8 JUMP JUMPDEST SWAP3 SWAP2 POP POP JUMP JUMPDEST PUSH0 PUSH1 0x20 DUP3 DUP5 SUB SLT ISZERO PUSH2 0x137 JUMPI PUSH2 0x136 PUSH2 0xEB JUMP JUMPDEST JUMPDEST PUSH0 PUSH2 0x144 DUP5 DUP3 DUP6 ADD PUSH2 0x10E JUMP JUMPDEST SWAP2 POP POP SWAP3 SWAP2 POP POP JUMP JUMPDEST PUSH0 DUP3 DUP3 MSTORE PUSH1 0x20 DUP3 ADD SWAP1 POP SWAP3 SWAP2 POP POP JUMP JUMPDEST PUSH32 0x6E756D2063616E206E6F74206265207A65726F00000000000000000000000000 PUSH0 DUP3 ADD MSTORE POP JUMP JUMPDEST PUSH0 PUSH2 0x191 PUSH1 0x13 DUP4 PUSH2 0x14D JUMP JUMPDEST SWAP2 POP PUSH2 0x19C DUP3 PUSH2 0x15D JUMP JUMPDEST PUSH1 0x20 DUP3 ADD SWAP1 POP SWAP2 SWAP1 POP JUMP JUMPDEST PUSH0 PUSH1 0x20 DUP3 ADD SWAP1 POP DUP2 DUP2 SUB PUSH0 DUP4 ADD MSTORE PUSH2 0x1BE DUP2 PUSH2 0x185 JUMP JUMPDEST SWAP1 POP SWAP2 SWAP1 POP JUMP JUMPDEST PUSH32 0x4E487B7100000000000000000000000000000000000000000000000000000000 PUSH0 MSTORE PUSH1 0x1 PUSH1 0x4 MSTORE PUSH1 0x24 PUSH0 REVERT JUMPDEST PUSH32 0x6E756D2063616E206E6F74206265207468726565000000000000000000000000 PUSH0 DUP3 ADD MSTORE POP JUMP JUMPDEST PUSH0 PUSH2 0x226 PUSH1 0x14 DUP4 PUSH2 0x14D JUMP JUMPDEST SWAP2 POP PUSH2 0x231 DUP3 PUSH2 0x1F2 JUMP JUMPDEST PUSH1 0x20 DUP3 ADD SWAP1 POP SWAP2 SWAP1 POP JUMP JUMPDEST PUSH0 PUSH1 0x20 DUP3 ADD SWAP1 POP DUP2 DUP2 SUB PUSH0 DUP4 ADD MSTORE PUSH2 0x253 DUP2 PUSH2 0x21A JUMP JUMPDEST SWAP1 POP SWAP2 SWAP1 POP JUMP JUMPDEST PUSH2 0x346 DUP1 PUSH2 0x267 PUSH0 CODECOPY PUSH0 RETURN INVALID PUSH1 0x80 PUSH1 0x40 MSTORE CALLVALUE DUP1 ISZERO PUSH2 0xF JUMPI PUSH0 DUP1 REVERT JUMPDEST POP PUSH1 0x4 CALLDATASIZE LT PUSH2 0x29 JUMPI PUSH0 CALLDATALOAD PUSH1 0xE0 SHR DUP1 PUSH4 0xE4968DB9 EQ PUSH2 0x2D JUMPI JUMPDEST PUSH0 DUP1 REVERT JUMPDEST PUSH2 0x47 PUSH1 0x4 DUP1 CALLDATASIZE SUB DUP2 ADD SWAP1 PUSH2 0x42 SWAP2 SWAP1 PUSH2 0x134 JUMP JUMPDEST PUSH2 0x5D JUMP JUMPDEST PUSH1 0x40 MLOAD PUSH2 0x54 SWAP2 SWAP1 PUSH2 0x16E JUMP JUMPDEST PUSH1 0x40 MLOAD DUP1 SWAP2 SUB SWAP1 RETURN JUMPDEST PUSH0 PUSH1 0x1 DUP3 SUB PUSH2 0xA1 JUMPI PUSH1 0x40 MLOAD PUSH32 0x8C379A000000000000000000000000000000000000000000000000000000000 DUP2 MSTORE PUSH1 0x4 ADD PUSH2 0x98 SWAP1 PUSH2 0x207 JUMP JUMPDEST PUSH1 0x40 MLOAD DUP1 SWAP2 SUB SWAP1 REVERT JUMPDEST PUSH0 DUP3 PUSH1 0xA PUSH2 0xAF SWAP2 SWAP1 PUSH2 0x252 JUMP JUMPDEST SWAP1 POP PUSH1 0x3 DUP4 SUB PUSH2 0xF4 JUMPI PUSH1 0x40 MLOAD PUSH32 0x8F0BD2E600000000000000000000000000000000000000000000000000000000 DUP2 MSTORE PUSH1 0x4 ADD PUSH2 0xEB SWAP1 PUSH2 0x2F2 JUMP JUMPDEST PUSH1 0x40 MLOAD DUP1 SWAP2 SUB SWAP1 REVERT JUMPDEST DUP1 SWAP2 POP POP SWAP2 SWAP1 POP JUMP JUMPDEST PUSH0 DUP1 REVERT JUMPDEST PUSH0 DUP2 SWAP1 POP SWAP2 SWAP1 POP JUMP JUMPDEST PUSH2 0x113 DUP2 PUSH2 0x101 JUMP JUMPDEST DUP2 EQ PUSH2 0x11D JUMPI PUSH0 DUP1 REVERT JUMPDEST POP JUMP JUMPDEST PUSH0 DUP2 CALLDATALOAD SWAP1 POP PUSH2 0x12E DUP2 PUSH2 0x10A JUMP JUMPDEST SWAP3 SWAP2 POP POP JUMP JUMPDEST PUSH0 PUSH1 0x20 DUP3 DUP5 SUB SLT ISZERO PUSH2 0x149 JUMPI PUSH2 0x148 PUSH2 0xFD JUMP JUMPDEST JUMPDEST PUSH0 PUSH2 0x156 DUP5 DUP3 DUP6 ADD PUSH2 0x120 JUMP JUMPDEST SWAP2 POP POP SWAP3 SWAP2 POP POP JUMP JUMPDEST PUSH2 0x168 DUP2 PUSH2 0x101 JUMP JUMPDEST DUP3 MSTORE POP POP JUMP JUMPDEST PUSH0 PUSH1 0x20 DUP3 ADD SWAP1 POP PUSH2 0x181 PUSH0 DUP4 ADD DUP5 PUSH2 0x15F JUMP JUMPDEST SWAP3 SWAP2 POP POP JUMP JUMPDEST PUSH0 DUP3 DUP3 MSTORE PUSH1 0x20 DUP3 ADD SWAP1 POP SWAP3 SWAP2 POP POP JUMP JUMPDEST PUSH32 0x746865206E756D2063616E206E6F7420657175616C73207A65726F20696E206D PUSH0 DUP3 ADD MSTORE PUSH32 0x696768744661696C2066756E6374696F6E000000000000000000000000000000 PUSH1 0x20 DUP3 ADD MSTORE POP JUMP JUMPDEST PUSH0 PUSH2 0x1F1 PUSH1 0x31 DUP4 PUSH2 0x187 JUMP JUMPDEST SWAP2 POP PUSH2 0x1FC DUP3 PUSH2 0x197 JUMP JUMPDEST PUSH1 0x40 DUP3 ADD SWAP1 POP SWAP2 SWAP1 POP JUMP JUMPDEST PUSH0 PUSH1 0x20 DUP3 ADD SWAP1 POP DUP2 DUP2 SUB PUSH0 DUP4 ADD MSTORE PUSH2 0x21E DUP2 PUSH2 0x1E5 JUMP JUMPDEST SWAP1 POP SWAP2 SWAP1 POP JUMP JUMPDEST PUSH32 0x4E487B7100000000000000000000000000000000000000000000000000000000 PUSH0 MSTORE PUSH1 0x12 PUSH1 0x4 MSTORE PUSH1 0x24 PUSH0 REVERT JUMPDEST PUSH0 PUSH2 0x25C DUP3 PUSH2 0x101 JUMP JUMPDEST SWAP2 POP PUSH2 0x267 DUP4 PUSH2 0x101 JUMP JUMPDEST SWAP3 POP DUP3 PUSH2 0x277 JUMPI PUSH2 0x276 PUSH2 0x225 JUMP JUMPDEST JUMPDEST DUP3 DUP3 DIV SWAP1 POP SWAP3 SWAP2 POP POP JUMP JUMPDEST PUSH32 0x6D696768744661696C20706172616D2063616E206E6F7420657175616C732074 PUSH0 DUP3 ADD MSTORE PUSH32 0x6872656500000000000000000000000000000000000000000000000000000000 PUSH1 0x20 DUP3 ADD MSTORE POP JUMP JUMPDEST PUSH0 PUSH2 0x2DC PUSH1 0x24 DUP4 PUSH2 0x187 JUMP JUMPDEST SWAP2 POP PUSH2 0x2E7 DUP3 PUSH2 0x282 JUMP JUMPDEST PUSH1 0x40 DUP3 ADD SWAP1 POP SWAP2 SWAP1 POP JUMP JUMPDEST PUSH0 PUSH1 0x20 DUP3 ADD SWAP1 POP DUP2 DUP2 SUB PUSH0 DUP4 ADD MSTORE PUSH2 0x309 DUP2 PUSH2 0x2D0 JUMP JUMPDEST SWAP1 POP SWAP2 SWAP1 POP JUMP INVALID LOG2 PUSH5 0x6970667358 0x22 SLT KECCAK256 0x26 0x2D DELEGATECALL 0xAE 0xBE PUSH10 0x2A7D8031E5393AD7D812 0xE2 0x2E 0xBB 0xEC 0xD2 0xCD STOP SAR 0x2F PUSH19 0x6E514356BDA464736F6C634300081A0033A264 PUSH10 0x706673582212207899BE SWAP16 DUP7 PUSH30 0xD7B32E273BA9BEC8E2B1FA8C6CBB081F2E56857FC206425A6A4464736F6C PUSH4 0x4300081A STOP CALLER "
		},
		"gasEstimates": {
			"creation": {
				"codeDepositCost": "730200",
				"executionCost": "764",
				"totalCost": "730964"
			},
			"external": {
				"callMightFail(uint256)": "infinite",
				"createExternalFailContract(uint256)": "infinite"
			}
		},
		"methodIdentifiers": {
			"callMightFail(uint256)": "2915bb50",
			"createExternalFailContract(uint256)": "3155f92f"
		}
	},
	"abi": [
		{
			"anonymous": false,
			"inputs": [
				{
					"indexed": false,
					"internalType": "address",
					"name": "newContract",
					"type": "address"
				}
			],
			"name": "ContractCreateSuccess",
			"type": "event"
		},
		{
			"anonymous": false,
			"inputs": [
				{
					"indexed": false,
					"internalType": "string",
					"name": "reason",
					"type": "string"
				}
			],
			"name": "ErrorEvent",
			"type": "event"
		},
		{
			"anonymous": false,
			"inputs": [
				{
					"indexed": false,
					"internalType": "uint256",
					"name": "result",
					"type": "uint256"
				}
			],
			"name": "FunctionCallSuccess",
			"type": "event"
		},
		{
			"anonymous": false,
			"inputs": [
				{
					"indexed": false,
					"internalType": "bytes",
					"name": "data",
					"type": "bytes"
				}
			],
			"name": "OtherExceptionEvent",
			"type": "event"
		},
		{
			"anonymous": false,
			"inputs": [
				{
					"indexed": false,
					"internalType": "uint256",
					"name": "errorCode",
					"type": "uint256"
				}
			],
			"name": "PanicEvent",
			"type": "event"
		},
		{
			"inputs": [
				{
					"internalType": "uint256",
					"name": "num",
					"type": "uint256"
				}
			],
			"name": "callMightFail",
			"outputs": [
				{
					"internalType": "uint256",
					"name": "result",
					"type": "uint256"
				}
			],
			"stateMutability": "nonpayable",
			"type": "function"
		},
		{
			"inputs": [
				{
					"internalType": "uint256",
					"name": "num",
					"type": "uint256"
				}
			],
			"name": "createExternalFailContract",
			"outputs": [
				{
					"internalType": "address",
					"name": "",
					"type": "address"
				}
			],
			"stateMutability": "nonpayable",
			"type": "function"
		}
	]
}