{
	"data": {
		"bytecode": {
			"linkReferences": {},
			"object": "608060405234801561000f575f80fd5b5060405161366e38038061366e8339818101604052810190610031919061033a565b3060405161003e906102dc565b61004891906103a4565b604051809103905ff080158015610061573d5f803e3d5ffd5b505f806101000a81548173ffffffffffffffffffffffffffffffffffffffff021916908373ffffffffffffffffffffffffffffffffffffffff1602179055505f6040516100ad906102e9565b604051809103905ff0801580156100c6573d5f803e3d5ffd5b509050805f8054906101000a900473ffffffffffffffffffffffffffffffffffffffff16836040516024016100fb91906103cc565b6040516020818303038152906040527ffe4b84df000000000000000000000000000000000000000000000000000000007bffffffffffffffffffffffffffffffffffffffffffffffffffffffff19166020820180517bffffffffffffffffffffffffffffffffffffffffffffffffffffffff8381831617835250505050604051610184906102f6565b61019093929190610455565b604051809103905ff0801580156101a9573d5f803e3d5ffd5b5060015f6101000a81548173ffffffffffffffffffffffffffffffffffffffff021916908373ffffffffffffffffffffffffffffffffffffffff160217905550610231306040518060400160405280600e81526020017f616464726573732874686973293a00000000000000000000000000000000000081525061029f60201b90919060201c565b6102985f8054906101000a900473ffffffffffffffffffffffffffffffffffffffff166040518060400160405280601581526020017f616464726573732870726f787941646d696e293a20000000000000000000000081525061029f60201b90919060201c565b5050610511565b7f7700ee2a2783c555d55a6d24309c75ed5612bd3dedc5272d3219b930694eba4482826040516102d09291906104e3565b60405180910390a15050565b6109c680610fb583390190565b61031f8061197b83390190565b6119d480611c9a83390190565b5f80fd5b5f819050919050565b61031981610307565b8114610323575f80fd5b50565b5f8151905061033481610310565b92915050565b5f6020828403121561034f5761034e610303565b5b5f61035c84828501610326565b91505092915050565b5f73ffffffffffffffffffffffffffffffffffffffff82169050919050565b5f61038e82610365565b9050919050565b61039e81610384565b82525050565b5f6020820190506103b75f830184610395565b92915050565b6103c681610307565b82525050565b5f6020820190506103df5f8301846103bd565b92915050565b5f81519050919050565b5f82825260208201905092915050565b8281835e5f83830152505050565b5f601f19601f8301169050919050565b5f610427826103e5565b61043181856103ef565b93506104418185602086016103ff565b61044a8161040d565b840191505092915050565b5f6060820190506104685f830186610395565b6104756020830185610395565b8181036040830152610487818461041d565b9050949350505050565b5f81519050919050565b5f82825260208201905092915050565b5f6104b582610491565b6104bf818561049b565b93506104cf8185602086016103ff565b6104d88161040d565b840191505092915050565b5f6040820190508181035f8301526104fb81856104ab565b905061050a6020830184610395565b9392505050565b610a978061051e5f395ff3fe608060405234801561000f575f80fd5b5060043610610055575f3560e01c80633e47158c146100595780635ab4c78c1461007757806374ffc5ab1461009357806391d48028146100c3578063ec556889146100e1575b5f80fd5b6100616100ff565b60405161006e91906106a9565b60405180910390f35b610091600480360381019061008c9190610734565b610122565b005b6100ad60048036038101906100a89190610772565b610262565b6040516100ba91906107b7565b60405180910390f35b6100cb6103d2565b6040516100d891906107df565b60405180910390f35b6100e9610590565b6040516100f69190610829565b60405180910390f35b5f8054906101000a900473ffffffffffffffffffffffffffffffffffffffff1681565b5f8160405160240161013491906107df565b6040516020818303038152906040527ffe4b84df000000000000000000000000000000000000000000000000000000007bffffffffffffffffffffffffffffffffffffffffffffffffffffffff19166020820180517bffffffffffffffffffffffffffffffffffffffffffffffffffffffff838183161783525050505090505f8054906101000a900473ffffffffffffffffffffffffffffffffffffffff1673ffffffffffffffffffffffffffffffffffffffff16639623609d60015f9054906101000a900473ffffffffffffffffffffffffffffffffffffffff1685846040518463ffffffff1660e01b8152600401610230939291906108e1565b5f604051808303815f87803b158015610247575f80fd5b505af1158015610259573d5f803e3d5ffd5b50505050505050565b5f808260405160240161027591906107df565b6040516020818303038152906040527f55241077000000000000000000000000000000000000000000000000000000007bffffffffffffffffffffffffffffffffffffffffffffffffffffffff19166020820180517bffffffffffffffffffffffffffffffffffffffffffffffffffffffff838183161783525050505090505f8060015f9054906101000a900473ffffffffffffffffffffffffffffffffffffffff1673ffffffffffffffffffffffffffffffffffffffff168360405161033c9190610957565b5f604051808303815f865af19150503d805f8114610375576040519150601f19603f3d011682016040523d82523d5f602084013e61037a565b606091505b50915091506103c7816040518060400160405280601581526020017f63616c6c50726f787920726573756c74446174613a00000000000000000000008152506105b590919063ffffffff16565b819350505050919050565b5f806040516024016040516020818303038152906040527f20965255000000000000000000000000000000000000000000000000000000007bffffffffffffffffffffffffffffffffffffffffffffffffffffffff19166020820180517bffffffffffffffffffffffffffffffffffffffffffffffffffffffff838183161783525050505090505f8060015f9054906101000a900473ffffffffffffffffffffffffffffffffffffffff1673ffffffffffffffffffffffffffffffffffffffff16836040516104a19190610957565b5f604051808303815f865af19150503d805f81146104da576040519150601f19603f3d011682016040523d82523d5f602084013e6104df565b606091505b509150915061052c826040518060400160405280601281526020017f63616c6c50726f787920737563636573733a00000000000000000000000000008152506105f290919063ffffffff16565b610574816040518060400160405280601581526020017f63616c6c50726f787920726573756c74446174613a00000000000000000000008152506105b590919063ffffffff16565b808060200190518101906105889190610981565b935050505090565b60015f9054906101000a900473ffffffffffffffffffffffffffffffffffffffff1681565b7f38510722cca54c7525003469aff2983da6aa6aaa7dec66f217775d1de381a51a82826040516105e69291906109fe565b60405180910390a15050565b7f554b0a22792e0cc5201e915b6e42d3cf18a8d15c3d1984da155e6c591b12bb6d8282604051610623929190610a33565b60405180910390a15050565b5f73ffffffffffffffffffffffffffffffffffffffff82169050919050565b5f819050919050565b5f61067161066c6106678461062f565b61064e565b61062f565b9050919050565b5f61068282610657565b9050919050565b5f61069382610678565b9050919050565b6106a381610689565b82525050565b5f6020820190506106bc5f83018461069a565b92915050565b5f80fd5b5f6106d08261062f565b9050919050565b6106e0816106c6565b81146106ea575f80fd5b50565b5f813590506106fb816106d7565b92915050565b5f819050919050565b61071381610701565b811461071d575f80fd5b50565b5f8135905061072e8161070a565b92915050565b5f806040838503121561074a576107496106c2565b5b5f610757858286016106ed565b925050602061076885828601610720565b9150509250929050565b5f60208284031215610787576107866106c2565b5b5f61079484828501610720565b91505092915050565b5f8115159050919050565b6107b18161079d565b82525050565b5f6020820190506107ca5f8301846107a8565b92915050565b6107d981610701565b82525050565b5f6020820190506107f25f8301846107d0565b92915050565b5f61080282610657565b9050919050565b5f610813826107f8565b9050919050565b61082381610809565b82525050565b5f60208201905061083c5f83018461081a565b92915050565b5f61084c82610678565b9050919050565b61085c81610842565b82525050565b61086b816106c6565b82525050565b5f81519050919050565b5f82825260208201905092915050565b8281835e5f83830152505050565b5f601f19601f8301169050919050565b5f6108b382610871565b6108bd818561087b565b93506108cd81856020860161088b565b6108d681610899565b840191505092915050565b5f6060820190506108f45f830186610853565b6109016020830185610862565b818103604083015261091381846108a9565b9050949350505050565b5f81905092915050565b5f61093182610871565b61093b818561091d565b935061094b81856020860161088b565b80840191505092915050565b5f6109628284610927565b915081905092915050565b5f8151905061097b8161070a565b92915050565b5f60208284031215610996576109956106c2565b5b5f6109a38482850161096d565b91505092915050565b5f81519050919050565b5f82825260208201905092915050565b5f6109d0826109ac565b6109da81856109b6565b93506109ea81856020860161088b565b6109f381610899565b840191505092915050565b5f6040820190508181035f830152610a1681856109c6565b90508181036020830152610a2a81846109c6565b90509392505050565b5f6040820190508181035f830152610a4b81856109c6565b9050610a5a60208301846107a8565b939250505056fea2646970667358221220fb00b0c92d86db34ab221ff1e88ed6ba7bd989126d4a527df7bda5777ad519f364736f6c634300081a0033608060405234801561000f575f80fd5b506040516109c63803806109c6833981810160405281019061003191906101d7565b805f73ffffffffffffffffffffffffffffffffffffffff168173ffffffffffffffffffffffffffffffffffffffff16036100a2575f6040517f1e4fbdf70000000000000000000000000000000000000000000000000000000081526004016100999190610211565b60405180910390fd5b6100b1816100b860201b60201c565b505061022a565b5f805f9054906101000a900473ffffffffffffffffffffffffffffffffffffffff169050815f806101000a81548173ffffffffffffffffffffffffffffffffffffffff021916908373ffffffffffffffffffffffffffffffffffffffff1602179055508173ffffffffffffffffffffffffffffffffffffffff168173ffffffffffffffffffffffffffffffffffffffff167f8be0079c531659141344cd1fd0a4f28419497f9722a3daafe3b4186f6b6457e060405160405180910390a35050565b5f80fd5b5f73ffffffffffffffffffffffffffffffffffffffff82169050919050565b5f6101a68261017d565b9050919050565b6101b68161019c565b81146101c0575f80fd5b50565b5f815190506101d1816101ad565b92915050565b5f602082840312156101ec576101eb610179565b5b5f6101f9848285016101c3565b91505092915050565b61020b8161019c565b82525050565b5f6020820190506102245f830184610202565b92915050565b61078f806102375f395ff3fe608060405260043610610049575f3560e01c8063715018a61461004d5780638da5cb5b146100635780639623609d1461008d578063ad3cb1cc146100a9578063f2fde38b146100d3575b5f80fd5b348015610058575f80fd5b506100616100fb565b005b34801561006e575f80fd5b5061007761010e565b60405161008491906103f7565b60405180910390f35b6100a760048036038101906100a291906105c2565b610135565b005b3480156100b4575f80fd5b506100bd6101ac565b6040516100ca919061068e565b60405180910390f35b3480156100de575f80fd5b506100f960048036038101906100f491906106ae565b6101e5565b005b610103610269565b61010c5f6102f0565b565b5f805f9054906101000a900473ffffffffffffffffffffffffffffffffffffffff16905090565b61013d610269565b8273ffffffffffffffffffffffffffffffffffffffff16634f1ef2863484846040518463ffffffff1660e01b815260040161017992919061072b565b5f604051808303818588803b158015610190575f80fd5b505af11580156101a2573d5f803e3d5ffd5b5050505050505050565b6040518060400160405280600581526020017f352e302e3000000000000000000000000000000000000000000000000000000081525081565b6101ed610269565b5f73ffffffffffffffffffffffffffffffffffffffff168173ffffffffffffffffffffffffffffffffffffffff160361025d575f6040517f1e4fbdf700000000000000000000000000000000000000000000000000000000815260040161025491906103f7565b60405180910390fd5b610266816102f0565b50565b6102716103b1565b73ffffffffffffffffffffffffffffffffffffffff1661028f61010e565b73ffffffffffffffffffffffffffffffffffffffff16146102ee576102b26103b1565b6040517f118cdaa70000000000000000000000000000000000000000000000000000000081526004016102e591906103f7565b60405180910390fd5b565b5f805f9054906101000a900473ffffffffffffffffffffffffffffffffffffffff169050815f806101000a81548173ffffffffffffffffffffffffffffffffffffffff021916908373ffffffffffffffffffffffffffffffffffffffff1602179055508173ffffffffffffffffffffffffffffffffffffffff168173ffffffffffffffffffffffffffffffffffffffff167f8be0079c531659141344cd1fd0a4f28419497f9722a3daafe3b4186f6b6457e060405160405180910390a35050565b5f33905090565b5f73ffffffffffffffffffffffffffffffffffffffff82169050919050565b5f6103e1826103b8565b9050919050565b6103f1816103d7565b82525050565b5f60208201905061040a5f8301846103e8565b92915050565b5f604051905090565b5f80fd5b5f80fd5b5f61042b826103d7565b9050919050565b61043b81610421565b8114610445575f80fd5b50565b5f8135905061045681610432565b92915050565b610465816103d7565b811461046f575f80fd5b50565b5f813590506104808161045c565b92915050565b5f80fd5b5f80fd5b5f601f19601f8301169050919050565b7f4e487b71000000000000000000000000000000000000000000000000000000005f52604160045260245ffd5b6104d48261048e565b810181811067ffffffffffffffff821117156104f3576104f261049e565b5b80604052505050565b5f610505610410565b905061051182826104cb565b919050565b5f67ffffffffffffffff8211156105305761052f61049e565b5b6105398261048e565b9050602081019050919050565b828183375f83830152505050565b5f61056661056184610516565b6104fc565b9050828152602081018484840111156105825761058161048a565b5b61058d848285610546565b509392505050565b5f82601f8301126105a9576105a8610486565b5b81356105b9848260208601610554565b91505092915050565b5f805f606084860312156105d9576105d8610419565b5b5f6105e686828701610448565b93505060206105f786828701610472565b925050604084013567ffffffffffffffff8111156106185761061761041d565b5b61062486828701610595565b9150509250925092565b5f81519050919050565b5f82825260208201905092915050565b8281835e5f83830152505050565b5f6106608261062e565b61066a8185610638565b935061067a818560208601610648565b6106838161048e565b840191505092915050565b5f6020820190508181035f8301526106a68184610656565b905092915050565b5f602082840312156106c3576106c2610419565b5b5f6106d084828501610472565b91505092915050565b5f81519050919050565b5f82825260208201905092915050565b5f6106fd826106d9565b61070781856106e3565b9350610717818560208601610648565b6107208161048e565b840191505092915050565b5f60408201905061073e5f8301856103e8565b818103602083015261075081846106f3565b9050939250505056fea26469706673582212207dae247e483e29d0fbf36e48f7c1706ab7d6d498d1493c2bb64a07a5733307bf64736f6c634300081a00336080604052348015600e575f80fd5b506103038061001c5f395ff3fe608060405234801561000f575f80fd5b506004361061004a575f3560e01c8063209652551461004e5780633fa4f2451461006c578063552410771461008a578063fe4b84df146100a6575b5f80fd5b6100566100c2565b604051610063919061017e565b60405180910390f35b610074610112565b604051610081919061017e565b60405180910390f35b6100a4600480360381019061009f91906101c5565b610117565b005b6100c060048036038101906100bb91906101c5565b610120565b005b5f61010b336040518060400160405280601e81526020017f4c6f67696356312067657456616c756528292c6d73672e73656e6465723a000081525061012990919063ffffffff16565b5f54905090565b5f5481565b805f8190555050565b805f8190555050565b7f7700ee2a2783c555d55a6d24309c75ed5612bd3dedc5272d3219b930694eba44828260405161015a92919061029f565b60405180910390a15050565b5f819050919050565b61017881610166565b82525050565b5f6020820190506101915f83018461016f565b92915050565b5f80fd5b6101a481610166565b81146101ae575f80fd5b50565b5f813590506101bf8161019b565b92915050565b5f602082840312156101da576101d9610197565b5b5f6101e7848285016101b1565b91505092915050565b5f81519050919050565b5f82825260208201905092915050565b8281835e5f83830152505050565b5f601f19601f8301169050919050565b5f610232826101f0565b61023c81856101fa565b935061024c81856020860161020a565b61025581610218565b840191505092915050565b5f73ffffffffffffffffffffffffffffffffffffffff82169050919050565b5f61028982610260565b9050919050565b6102998161027f565b82525050565b5f6040820190508181035f8301526102b78185610228565b90506102c66020830184610290565b939250505056fea2646970667358221220c875a4e360ecf186a98a447e15ff274d244536990aa4651a1d321140a6ef770d64736f6c634300081a003360a06040526040516119d43803806119d483398181016040528101906100259190610708565b828161003782826100c160201b60201c565b50508160405161004690610554565b6100509190610783565b604051809103905ff080158015610069573d5f803e3d5ffd5b5073ffffffffffffffffffffffffffffffffffffffff1660808173ffffffffffffffffffffffffffffffffffffffff16815250506100b96100ae61014560201b60201c565b61014e60201b60201c565b50505061081d565b6100d0826101a660201b60201c565b8173ffffffffffffffffffffffffffffffffffffffff167fbc7cd75a20ee27fd9adebab32041f755214dbc6bffa90cc0225b39da2e5c2d3b60405160405180910390a25f815111156101325761012c828261027560201b60201c565b50610141565b6101406102fb60201b60201c565b5b5050565b5f608051905090565b7f7e644d79422f17c01e4894b5f4f588d331ebfa28653d42ae832dc59e38c9798f61017d61033760201b60201c565b8260405161018c92919061079c565b60405180910390a16101a38161039060201b60201c565b50565b5f8173ffffffffffffffffffffffffffffffffffffffff163b0361020157806040517f4c9c8ce30000000000000000000000000000000000000000000000000000000081526004016101f89190610783565b60405180910390fd5b806102337f360894a13ba1a3210667c828492db98dca3e2076cc3735a920a3ca505d382bbc5f1b61047460201b60201c565b5f015f6101000a81548173ffffffffffffffffffffffffffffffffffffffff021916908373ffffffffffffffffffffffffffffffffffffffff16021790555050565b60605f808473ffffffffffffffffffffffffffffffffffffffff168460405161029e9190610807565b5f60405180830381855af49150503d805f81146102d6576040519150601f19603f3d011682016040523d82523d5f602084013e6102db565b606091505b50915091506102f185838361047d60201b60201c565b9250505092915050565b5f341115610335576040517fb398979f00000000000000000000000000000000000000000000000000000000815260040160405180910390fd5b565b5f6103697fb53127684a568b3173ae13b9f8a6016e243e63b6e8ee1178d6a717850b5d61035f1b61047460201b60201c565b5f015f9054906101000a900473ffffffffffffffffffffffffffffffffffffffff16905090565b5f73ffffffffffffffffffffffffffffffffffffffff168173ffffffffffffffffffffffffffffffffffffffff1603610400575f6040517f62e77ba20000000000000000000000000000000000000000000000000000000081526004016103f79190610783565b60405180910390fd5b806104327fb53127684a568b3173ae13b9f8a6016e243e63b6e8ee1178d6a717850b5d61035f1b61047460201b60201c565b5f015f6101000a81548173ffffffffffffffffffffffffffffffffffffffff021916908373ffffffffffffffffffffffffffffffffffffffff16021790555050565b5f819050919050565b606082610498576104938261051060201b60201c565b610508565b5f82511480156104be57505f8473ffffffffffffffffffffffffffffffffffffffff163b145b1561050057836040517f9996b3150000000000000000000000000000000000000000000000000000000081526004016104f79190610783565b60405180910390fd5b819050610509565b5b9392505050565b5f815111156105225780518082602001fd5b6040517fd6bda27500000000000000000000000000000000000000000000000000000000815260040160405180910390fd5b6109c68061100e83390190565b5f604051905090565b5f80fd5b5f80fd5b5f73ffffffffffffffffffffffffffffffffffffffff82169050919050565b5f61059b82610572565b9050919050565b6105ab81610591565b81146105b5575f80fd5b50565b5f815190506105c6816105a2565b92915050565b5f80fd5b5f80fd5b5f601f19601f8301169050919050565b7f4e487b71000000000000000000000000000000000000000000000000000000005f52604160045260245ffd5b61061a826105d4565b810181811067ffffffffffffffff82111715610639576106386105e4565b5b80604052505050565b5f61064b610561565b90506106578282610611565b919050565b5f67ffffffffffffffff821115610676576106756105e4565b5b61067f826105d4565b9050602081019050919050565b8281835e5f83830152505050565b5f6106ac6106a78461065c565b610642565b9050828152602081018484840111156106c8576106c76105d0565b5b6106d384828561068c565b509392505050565b5f82601f8301126106ef576106ee6105cc565b5b81516106ff84826020860161069a565b91505092915050565b5f805f6060848603121561071f5761071e61056a565b5b5f61072c868287016105b8565b935050602061073d868287016105b8565b925050604084015167ffffffffffffffff81111561075e5761075d61056e565b5b61076a868287016106db565b9150509250925092565b61077d81610591565b82525050565b5f6020820190506107965f830184610774565b92915050565b5f6040820190506107af5f830185610774565b6107bc6020830184610774565b9392505050565b5f81519050919050565b5f81905092915050565b5f6107e1826107c3565b6107eb81856107cd565b93506107fb81856020860161068c565b80840191505092915050565b5f61081282846107d7565b915081905092915050565b6080516107d96108355f395f61010401526107d95ff3fe608060405261000c61000e565b005b610016610101565b73ffffffffffffffffffffffffffffffffffffffff163373ffffffffffffffffffffffffffffffffffffffff16036100f657634f1ef28660e01b7bffffffffffffffffffffffffffffffffffffffffffffffffffffffff19165f357fffffffff00000000000000000000000000000000000000000000000000000000167bffffffffffffffffffffffffffffffffffffffffffffffffffffffff1916146100e9576040517fd2b576ec00000000000000000000000000000000000000000000000000000000815260040160405180910390fd5b6100f1610128565b6100ff565b6100fe61015c565b5b565b5f7f0000000000000000000000000000000000000000000000000000000000000000905090565b5f805f36600490809261013d939291906104d0565b81019061014a91906106a8565b91509150610158828261016e565b5050565b61016c6101676101e0565b6101ee565b565b6101778261020d565b8173ffffffffffffffffffffffffffffffffffffffff167fbc7cd75a20ee27fd9adebab32041f755214dbc6bffa90cc0225b39da2e5c2d3b60405160405180910390a25f815111156101d3576101cd82826102d6565b506101dc565b6101db610356565b5b5050565b5f6101e9610392565b905090565b365f80375f80365f845af43d5f803e805f8114610209573d5ff35b3d5ffd5b5f8173ffffffffffffffffffffffffffffffffffffffff163b0361026857806040517f4c9c8ce300000000000000000000000000000000000000000000000000000000815260040161025f9190610722565b60405180910390fd5b806102947f360894a13ba1a3210667c828492db98dca3e2076cc3735a920a3ca505d382bbc5f1b6103e5565b5f015f6101000a81548173ffffffffffffffffffffffffffffffffffffffff021916908373ffffffffffffffffffffffffffffffffffffffff16021790555050565b60605f808473ffffffffffffffffffffffffffffffffffffffff16846040516102ff919061078d565b5f60405180830381855af49150503d805f8114610337576040519150601f19603f3d011682016040523d82523d5f602084013e61033c565b606091505b509150915061034c8583836103ee565b9250505092915050565b5f341115610390576040517fb398979f00000000000000000000000000000000000000000000000000000000815260040160405180910390fd5b565b5f6103be7f360894a13ba1a3210667c828492db98dca3e2076cc3735a920a3ca505d382bbc5f1b6103e5565b5f015f9054906101000a900473ffffffffffffffffffffffffffffffffffffffff16905090565b5f819050919050565b606082610403576103fe8261047b565b610473565b5f825114801561042957505f8473ffffffffffffffffffffffffffffffffffffffff163b145b1561046b57836040517f9996b3150000000000000000000000000000000000000000000000000000000081526004016104629190610722565b60405180910390fd5b819050610474565b5b9392505050565b5f8151111561048d5780518082602001fd5b6040517fd6bda27500000000000000000000000000000000000000000000000000000000815260040160405180910390fd5b5f604051905090565b5f80fd5b5f80fd5b5f80858511156104e3576104e26104c8565b5b838611156104f4576104f36104cc565b5b6001850283019150848603905094509492505050565b5f80fd5b5f80fd5b5f73ffffffffffffffffffffffffffffffffffffffff82169050919050565b5f61053b82610512565b9050919050565b61054b81610531565b8114610555575f80fd5b50565b5f8135905061056681610542565b92915050565b5f80fd5b5f80fd5b5f601f19601f8301169050919050565b7f4e487b71000000000000000000000000000000000000000000000000000000005f52604160045260245ffd5b6105ba82610574565b810181811067ffffffffffffffff821117156105d9576105d8610584565b5b80604052505050565b5f6105eb6104bf565b90506105f782826105b1565b919050565b5f67ffffffffffffffff82111561061657610615610584565b5b61061f82610574565b9050602081019050919050565b828183375f83830152505050565b5f61064c610647846105fc565b6105e2565b90508281526020810184848401111561066857610667610570565b5b61067384828561062c565b509392505050565b5f82601f83011261068f5761068e61056c565b5b813561069f84826020860161063a565b91505092915050565b5f80604083850312156106be576106bd61050a565b5b5f6106cb85828601610558565b925050602083013567ffffffffffffffff8111156106ec576106eb61050e565b5b6106f88582860161067b565b9150509250929050565b5f61070c82610512565b9050919050565b61071c81610702565b82525050565b5f6020820190506107355f830184610713565b92915050565b5f81519050919050565b5f81905092915050565b8281835e5f83830152505050565b5f6107678261073b565b6107718185610745565b935061078181856020860161074f565b80840191505092915050565b5f610798828461075d565b91508190509291505056fea2646970667358221220d06faf38beb89cd82c78ec4ff914e468dbcab26e076e8a2a28270d6e4d2652e564736f6c634300081a0033608060405234801561000f575f80fd5b506040516109c63803806109c6833981810160405281019061003191906101d7565b805f73ffffffffffffffffffffffffffffffffffffffff168173ffffffffffffffffffffffffffffffffffffffff16036100a2575f6040517f1e4fbdf70000000000000000000000000000000000000000000000000000000081526004016100999190610211565b60405180910390fd5b6100b1816100b860201b60201c565b505061022a565b5f805f9054906101000a900473ffffffffffffffffffffffffffffffffffffffff169050815f806101000a81548173ffffffffffffffffffffffffffffffffffffffff021916908373ffffffffffffffffffffffffffffffffffffffff1602179055508173ffffffffffffffffffffffffffffffffffffffff168173ffffffffffffffffffffffffffffffffffffffff167f8be0079c531659141344cd1fd0a4f28419497f9722a3daafe3b4186f6b6457e060405160405180910390a35050565b5f80fd5b5f73ffffffffffffffffffffffffffffffffffffffff82169050919050565b5f6101a68261017d565b9050919050565b6101b68161019c565b81146101c0575f80fd5b50565b5f815190506101d1816101ad565b92915050565b5f602082840312156101ec576101eb610179565b5b5f6101f9848285016101c3565b91505092915050565b61020b8161019c565b82525050565b5f6020820190506102245f830184610202565b92915050565b61078f806102375f395ff3fe608060405260043610610049575f3560e01c8063715018a61461004d5780638da5cb5b146100635780639623609d1461008d578063ad3cb1cc146100a9578063f2fde38b146100d3575b5f80fd5b348015610058575f80fd5b506100616100fb565b005b34801561006e575f80fd5b5061007761010e565b60405161008491906103f7565b60405180910390f35b6100a760048036038101906100a291906105c2565b610135565b005b3480156100b4575f80fd5b506100bd6101ac565b6040516100ca919061068e565b60405180910390f35b3480156100de575f80fd5b506100f960048036038101906100f491906106ae565b6101e5565b005b610103610269565b61010c5f6102f0565b565b5f805f9054906101000a900473ffffffffffffffffffffffffffffffffffffffff16905090565b61013d610269565b8273ffffffffffffffffffffffffffffffffffffffff16634f1ef2863484846040518463ffffffff1660e01b815260040161017992919061072b565b5f604051808303818588803b158015610190575f80fd5b505af11580156101a2573d5f803e3d5ffd5b5050505050505050565b6040518060400160405280600581526020017f352e302e3000000000000000000000000000000000000000000000000000000081525081565b6101ed610269565b5f73ffffffffffffffffffffffffffffffffffffffff168173ffffffffffffffffffffffffffffffffffffffff160361025d575f6040517f1e4fbdf700000000000000000000000000000000000000000000000000000000815260040161025491906103f7565b60405180910390fd5b610266816102f0565b50565b6102716103b1565b73ffffffffffffffffffffffffffffffffffffffff1661028f61010e565b73ffffffffffffffffffffffffffffffffffffffff16146102ee576102b26103b1565b6040517f118cdaa70000000000000000000000000000000000000000000000000000000081526004016102e591906103f7565b60405180910390fd5b565b5f805f9054906101000a900473ffffffffffffffffffffffffffffffffffffffff169050815f806101000a81548173ffffffffffffffffffffffffffffffffffffffff021916908373ffffffffffffffffffffffffffffffffffffffff1602179055508173ffffffffffffffffffffffffffffffffffffffff168173ffffffffffffffffffffffffffffffffffffffff167f8be0079c531659141344cd1fd0a4f28419497f9722a3daafe3b4186f6b6457e060405160405180910390a35050565b5f33905090565b5f73ffffffffffffffffffffffffffffffffffffffff82169050919050565b5f6103e1826103b8565b9050919050565b6103f1816103d7565b82525050565b5f60208201905061040a5f8301846103e8565b92915050565b5f604051905090565b5f80fd5b5f80fd5b5f61042b826103d7565b9050919050565b61043b81610421565b8114610445575f80fd5b50565b5f8135905061045681610432565b92915050565b610465816103d7565b811461046f575f80fd5b50565b5f813590506104808161045c565b92915050565b5f80fd5b5f80fd5b5f601f19601f8301169050919050565b7f4e487b71000000000000000000000000000000000000000000000000000000005f52604160045260245ffd5b6104d48261048e565b810181811067ffffffffffffffff821117156104f3576104f261049e565b5b80604052505050565b5f610505610410565b905061051182826104cb565b919050565b5f67ffffffffffffffff8211156105305761052f61049e565b5b6105398261048e565b9050602081019050919050565b828183375f83830152505050565b5f61056661056184610516565b6104fc565b9050828152602081018484840111156105825761058161048a565b5b61058d848285610546565b509392505050565b5f82601f8301126105a9576105a8610486565b5b81356105b9848260208601610554565b91505092915050565b5f805f606084860312156105d9576105d8610419565b5b5f6105e686828701610448565b93505060206105f786828701610472565b925050604084013567ffffffffffffffff8111156106185761061761041d565b5b61062486828701610595565b9150509250925092565b5f81519050919050565b5f82825260208201905092915050565b8281835e5f83830152505050565b5f6106608261062e565b61066a8185610638565b935061067a818560208601610648565b6106838161048e565b840191505092915050565b5f6020820190508181035f8301526106a68184610656565b905092915050565b5f602082840312156106c3576106c2610419565b5b5f6106d084828501610472565b91505092915050565b5f81519050919050565b5f82825260208201905092915050565b5f6106fd826106d9565b61070781856106e3565b9350610717818560208601610648565b6107208161048e565b840191505092915050565b5f60408201905061073e5f8301856103e8565b818103602083015261075081846106f3565b9050939250505056fea26469706673582212207dae247e483e29d0fbf36e48f7c1706ab7d6d498d1493c2bb64a07a5733307bf64736f6c634300081a0033",
			"opcodes": "PUSH1 0x80 PUSH1 0x40 MSTORE CALLVALUE DUP1 ISZERO PUSH2 0xF JUMPI PUSH0 DUP1 REVERT JUMPDEST POP PUSH1 0x40 MLOAD PUSH2 0x366E CODESIZE SUB DUP1 PUSH2 0x366E DUP4 CODECOPY DUP2 DUP2 ADD PUSH1 0x40 MSTORE DUP2 ADD SWAP1 PUSH2 0x31 SWAP2 SWAP1 PUSH2 0x33A JUMP JUMPDEST ADDRESS PUSH1 0x40 MLOAD PUSH2 0x3E SWAP1 PUSH2 0x2DC JUMP JUMPDEST PUSH2 0x48 SWAP2 SWAP1 PUSH2 0x3A4 JUMP JUMPDEST PUSH1 0x40 MLOAD DUP1 SWAP2 SUB SWAP1 PUSH0 CREATE DUP1 ISZERO DUP1 ISZERO PUSH2 0x61 JUMPI RETURNDATASIZE PUSH0 DUP1 RETURNDATACOPY RETURNDATASIZE PUSH0 REVERT JUMPDEST POP PUSH0 DUP1 PUSH2 0x100 EXP DUP2 SLOAD DUP2 PUSH20 0xFFFFFFFFFFFFFFFFFFFFFFFFFFFFFFFFFFFFFFFF MUL NOT AND SWAP1 DUP4 PUSH20 0xFFFFFFFFFFFFFFFFFFFFFFFFFFFFFFFFFFFFFFFF AND MUL OR SWAP1 SSTORE POP PUSH0 PUSH1 0x40 MLOAD PUSH2 0xAD SWAP1 PUSH2 0x2E9 JUMP JUMPDEST PUSH1 0x40 MLOAD DUP1 SWAP2 SUB SWAP1 PUSH0 CREATE DUP1 ISZERO DUP1 ISZERO PUSH2 0xC6 JUMPI RETURNDATASIZE PUSH0 DUP1 RETURNDATACOPY RETURNDATASIZE PUSH0 REVERT JUMPDEST POP SWAP1 POP DUP1 PUSH0 DUP1 SLOAD SWAP1 PUSH2 0x100 EXP SWAP1 DIV PUSH20 0xFFFFFFFFFFFFFFFFFFFFFFFFFFFFFFFFFFFFFFFF AND DUP4 PUSH1 0x40 MLOAD PUSH1 0x24 ADD PUSH2 0xFB SWAP2 SWAP1 PUSH2 0x3CC JUMP JUMPDEST PUSH1 0x40 MLOAD PUSH1 0x20 DUP2 DUP4 SUB SUB DUP2 MSTORE SWAP1 PUSH1 0x40 MSTORE PUSH32 0xFE4B84DF00000000000000000000000000000000000000000000000000000000 PUSH28 0xFFFFFFFFFFFFFFFFFFFFFFFFFFFFFFFFFFFFFFFFFFFFFFFFFFFFFFFF NOT AND PUSH1 0x20 DUP3 ADD DUP1 MLOAD PUSH28 0xFFFFFFFFFFFFFFFFFFFFFFFFFFFFFFFFFFFFFFFFFFFFFFFFFFFFFFFF DUP4 DUP2 DUP4 AND OR DUP4 MSTORE POP POP POP POP PUSH1 0x40 MLOAD PUSH2 0x184 SWAP1 PUSH2 0x2F6 JUMP JUMPDEST PUSH2 0x190 SWAP4 SWAP3 SWAP2 SWAP1 PUSH2 0x455 JUMP JUMPDEST PUSH1 0x40 MLOAD DUP1 SWAP2 SUB SWAP1 PUSH0 CREATE DUP1 ISZERO DUP1 ISZERO PUSH2 0x1A9 JUMPI RETURNDATASIZE PUSH0 DUP1 RETURNDATACOPY RETURNDATASIZE PUSH0 REVERT JUMPDEST POP PUSH1 0x1 PUSH0 PUSH2 0x100 EXP DUP2 SLOAD DUP2 PUSH20 0xFFFFFFFFFFFFFFFFFFFFFFFFFFFFFFFFFFFFFFFF MUL NOT AND SWAP1 DUP4 PUSH20 0xFFFFFFFFFFFFFFFFFFFFFFFFFFFFFFFFFFFFFFFF AND MUL OR SWAP1 SSTORE POP PUSH2 0x231 ADDRESS PUSH1 0x40 MLOAD DUP1 PUSH1 0x40 ADD PUSH1 0x40 MSTORE DUP1 PUSH1 0xE DUP2 MSTORE PUSH1 0x20 ADD PUSH32 0x616464726573732874686973293A000000000000000000000000000000000000 DUP2 MSTORE POP PUSH2 0x29F PUSH1 0x20 SHL SWAP1 SWAP2 SWAP1 PUSH1 0x20 SHR JUMP JUMPDEST PUSH2 0x298 PUSH0 DUP1 SLOAD SWAP1 PUSH2 0x100 EXP SWAP1 DIV PUSH20 0xFFFFFFFFFFFFFFFFFFFFFFFFFFFFFFFFFFFFFFFF AND PUSH1 0x40 MLOAD DUP1 PUSH1 0x40 ADD PUSH1 0x40 MSTORE DUP1 PUSH1 0x15 DUP2 MSTORE PUSH1 0x20 ADD PUSH32 0x616464726573732870726F787941646D696E293A200000000000000000000000 DUP2 MSTORE POP PUSH2 0x29F PUSH1 0x20 SHL SWAP1 SWAP2 SWAP1 PUSH1 0x20 SHR JUMP JUMPDEST POP POP PUSH2 0x511 JUMP JUMPDEST PUSH32 0x7700EE2A2783C555D55A6D24309C75ED5612BD3DEDC5272D3219B930694EBA44 DUP3 DUP3 PUSH1 0x40 MLOAD PUSH2 0x2D0 SWAP3 SWAP2 SWAP1 PUSH2 0x4E3 JUMP JUMPDEST PUSH1 0x40 MLOAD DUP1 SWAP2 SUB SWAP1 LOG1 POP POP JUMP JUMPDEST PUSH2 0x9C6 DUP1 PUSH2 0xFB5 DUP4 CODECOPY ADD SWAP1 JUMP JUMPDEST PUSH2 0x31F DUP1 PUSH2 0x197B DUP4 CODECOPY ADD SWAP1 JUMP JUMPDEST PUSH2 0x19D4 DUP1 PUSH2 0x1C9A DUP4 CODECOPY ADD SWAP1 JUMP JUMPDEST PUSH0 DUP1 REVERT JUMPDEST PUSH0 DUP2 SWAP1 POP SWAP2 SWAP1 POP JUMP JUMPDEST PUSH2 0x319 DUP2 PUSH2 0x307 JUMP JUMPDEST DUP2 EQ PUSH2 0x323 JUMPI PUSH0 DUP1 REVERT JUMPDEST POP JUMP JUMPDEST PUSH0 DUP2 MLOAD SWAP1 POP PUSH2 0x334 DUP2 PUSH2 0x310 JUMP JUMPDEST SWAP3 SWAP2 POP POP JUMP JUMPDEST PUSH0 PUSH1 0x20 DUP3 DUP5 SUB SLT ISZERO PUSH2 0x34F JUMPI PUSH2 0x34E PUSH2 0x303 JUMP JUMPDEST JUMPDEST PUSH0 PUSH2 0x35C DUP5 DUP3 DUP6 ADD PUSH2 0x326 JUMP JUMPDEST SWAP2 POP POP SWAP3 SWAP2 POP POP JUMP JUMPDEST PUSH0 PUSH20 0xFFFFFFFFFFFFFFFFFFFFFFFFFFFFFFFFFFFFFFFF DUP3 AND SWAP1 POP SWAP2 SWAP1 POP JUMP JUMPDEST PUSH0 PUSH2 0x38E DUP3 PUSH2 0x365 JUMP JUMPDEST SWAP1 POP SWAP2 SWAP1 POP JUMP JUMPDEST PUSH2 0x39E DUP2 PUSH2 0x384 JUMP JUMPDEST DUP3 MSTORE POP POP JUMP JUMPDEST PUSH0 PUSH1 0x20 DUP3 ADD SWAP1 POP PUSH2 0x3B7 PUSH0 DUP4 ADD DUP5 PUSH2 0x395 JUMP JUMPDEST SWAP3 SWAP2 POP POP JUMP JUMPDEST PUSH2 0x3C6 DUP2 PUSH2 0x307 JUMP JUMPDEST DUP3 MSTORE POP POP JUMP JUMPDEST PUSH0 PUSH1 0x20 DUP3 ADD SWAP1 POP PUSH2 0x3DF PUSH0 DUP4 ADD DUP5 PUSH2 0x3BD JUMP JUMPDEST SWAP3 SWAP2 POP POP JUMP JUMPDEST PUSH0 DUP2 MLOAD SWAP1 POP SWAP2 SWAP1 POP JUMP JUMPDEST PUSH0 DUP3 DUP3 MSTORE PUSH1 0x20 DUP3 ADD SWAP1 POP SWAP3 SWAP2 POP POP JUMP JUMPDEST DUP3 DUP2 DUP4 MCOPY PUSH0 DUP4 DUP4 ADD MSTORE POP POP POP JUMP JUMPDEST PUSH0 PUSH1 0x1F NOT PUSH1 0x1F DUP4 ADD AND SWAP1 POP SWAP2 SWAP1 POP JUMP JUMPDEST PUSH0 PUSH2 0x427 DUP3 PUSH2 0x3E5 JUMP JUMPDEST PUSH2 0x431 DUP2 DUP6 PUSH2 0x3EF JUMP JUMPDEST SWAP4 POP PUSH2 0x441 DUP2 DUP6 PUSH1 0x20 DUP7 ADD PUSH2 0x3FF JUMP JUMPDEST PUSH2 0x44A DUP2 PUSH2 0x40D JUMP JUMPDEST DUP5 ADD SWAP2 POP POP SWAP3 SWAP2 POP POP JUMP JUMPDEST PUSH0 PUSH1 0x60 DUP3 ADD SWAP1 POP PUSH2 0x468 PUSH0 DUP4 ADD DUP7 PUSH2 0x395 JUMP JUMPDEST PUSH2 0x475 PUSH1 0x20 DUP4 ADD DUP6 PUSH2 0x395 JUMP JUMPDEST DUP2 DUP2 SUB PUSH1 0x40 DUP4 ADD MSTORE PUSH2 0x487 DUP2 DUP5 PUSH2 0x41D JUMP JUMPDEST SWAP1 POP SWAP5 SWAP4 POP POP POP POP JUMP JUMPDEST PUSH0 DUP2 MLOAD SWAP1 POP SWAP2 SWAP1 POP JUMP JUMPDEST PUSH0 DUP3 DUP3 MSTORE PUSH1 0x20 DUP3 ADD SWAP1 POP SWAP3 SWAP2 POP POP JUMP JUMPDEST PUSH0 PUSH2 0x4B5 DUP3 PUSH2 0x491 JUMP JUMPDEST PUSH2 0x4BF DUP2 DUP6 PUSH2 0x49B JUMP JUMPDEST SWAP4 POP PUSH2 0x4CF DUP2 DUP6 PUSH1 0x20 DUP7 ADD PUSH2 0x3FF JUMP JUMPDEST PUSH2 0x4D8 DUP2 PUSH2 0x40D JUMP JUMPDEST DUP5 ADD SWAP2 POP POP SWAP3 SWAP2 POP POP JUMP JUMPDEST PUSH0 PUSH1 0x40 DUP3 ADD SWAP1 POP DUP2 DUP2 SUB PUSH0 DUP4 ADD MSTORE PUSH2 0x4FB DUP2 DUP6 PUSH2 0x4AB JUMP JUMPDEST SWAP1 POP PUSH2 0x50A PUSH1 0x20 DUP4 ADD DUP5 PUSH2 0x395 JUMP JUMPDEST SWAP4 SWAP3 POP POP POP JUMP JUMPDEST PUSH2 0xA97 DUP1 PUSH2 0x51E PUSH0 CODECOPY PUSH0 RETURN INVALID PUSH1 0x80 PUSH1 0x40 MSTORE CALLVALUE DUP1 ISZERO PUSH2 0xF JUMPI PUSH0 DUP1 REVERT JUMPDEST POP PUSH1 0x4 CALLDATASIZE LT PUSH2 0x55 JUMPI PUSH0 CALLDATALOAD PUSH1 0xE0 SHR DUP1 PUSH4 0x3E47158C EQ PUSH2 0x59 JUMPI DUP1 PUSH4 0x5AB4C78C EQ PUSH2 0x77 JUMPI DUP1 PUSH4 0x74FFC5AB EQ PUSH2 0x93 JUMPI DUP1 PUSH4 0x91D48028 EQ PUSH2 0xC3 JUMPI DUP1 PUSH4 0xEC556889 EQ PUSH2 0xE1 JUMPI JUMPDEST PUSH0 DUP1 REVERT JUMPDEST PUSH2 0x61 PUSH2 0xFF JUMP JUMPDEST PUSH1 0x40 MLOAD PUSH2 0x6E SWAP2 SWAP1 PUSH2 0x6A9 JUMP JUMPDEST PUSH1 0x40 MLOAD DUP1 SWAP2 SUB SWAP1 RETURN JUMPDEST PUSH2 0x91 PUSH1 0x4 DUP1 CALLDATASIZE SUB DUP2 ADD SWAP1 PUSH2 0x8C SWAP2 SWAP1 PUSH2 0x734 JUMP JUMPDEST PUSH2 0x122 JUMP JUMPDEST STOP JUMPDEST PUSH2 0xAD PUSH1 0x4 DUP1 CALLDATASIZE SUB DUP2 ADD SWAP1 PUSH2 0xA8 SWAP2 SWAP1 PUSH2 0x772 JUMP JUMPDEST PUSH2 0x262 JUMP JUMPDEST PUSH1 0x40 MLOAD PUSH2 0xBA SWAP2 SWAP1 PUSH2 0x7B7 JUMP JUMPDEST PUSH1 0x40 MLOAD DUP1 SWAP2 SUB SWAP1 RETURN JUMPDEST PUSH2 0xCB PUSH2 0x3D2 JUMP JUMPDEST PUSH1 0x40 MLOAD PUSH2 0xD8 SWAP2 SWAP1 PUSH2 0x7DF JUMP JUMPDEST PUSH1 0x40 MLOAD DUP1 SWAP2 SUB SWAP1 RETURN JUMPDEST PUSH2 0xE9 PUSH2 0x590 JUMP JUMPDEST PUSH1 0x40 MLOAD PUSH2 0xF6 SWAP2 SWAP1 PUSH2 0x829 JUMP JUMPDEST PUSH1 0x40 MLOAD DUP1 SWAP2 SUB SWAP1 RETURN JUMPDEST PUSH0 DUP1 SLOAD SWAP1 PUSH2 0x100 EXP SWAP1 DIV PUSH20 0xFFFFFFFFFFFFFFFFFFFFFFFFFFFFFFFFFFFFFFFF AND DUP2 JUMP JUMPDEST PUSH0 DUP2 PUSH1 0x40 MLOAD PUSH1 0x24 ADD PUSH2 0x134 SWAP2 SWAP1 PUSH2 0x7DF JUMP JUMPDEST PUSH1 0x40 MLOAD PUSH1 0x20 DUP2 DUP4 SUB SUB DUP2 MSTORE SWAP1 PUSH1 0x40 MSTORE PUSH32 0xFE4B84DF00000000000000000000000000000000000000000000000000000000 PUSH28 0xFFFFFFFFFFFFFFFFFFFFFFFFFFFFFFFFFFFFFFFFFFFFFFFFFFFFFFFF NOT AND PUSH1 0x20 DUP3 ADD DUP1 MLOAD PUSH28 0xFFFFFFFFFFFFFFFFFFFFFFFFFFFFFFFFFFFFFFFFFFFFFFFFFFFFFFFF DUP4 DUP2 DUP4 AND OR DUP4 MSTORE POP POP POP POP SWAP1 POP PUSH0 DUP1 SLOAD SWAP1 PUSH2 0x100 EXP SWAP1 DIV PUSH20 0xFFFFFFFFFFFFFFFFFFFFFFFFFFFFFFFFFFFFFFFF AND PUSH20 0xFFFFFFFFFFFFFFFFFFFFFFFFFFFFFFFFFFFFFFFF AND PUSH4 0x9623609D PUSH1 0x1 PUSH0 SWAP1 SLOAD SWAP1 PUSH2 0x100 EXP SWAP1 DIV PUSH20 0xFFFFFFFFFFFFFFFFFFFFFFFFFFFFFFFFFFFFFFFF AND DUP6 DUP5 PUSH1 0x40 MLOAD DUP5 PUSH4 0xFFFFFFFF AND PUSH1 0xE0 SHL DUP2 MSTORE PUSH1 0x4 ADD PUSH2 0x230 SWAP4 SWAP3 SWAP2 SWAP1 PUSH2 0x8E1 JUMP JUMPDEST PUSH0 PUSH1 0x40 MLOAD DUP1 DUP4 SUB DUP2 PUSH0 DUP8 DUP1 EXTCODESIZE ISZERO DUP1 ISZERO PUSH2 0x247 JUMPI PUSH0 DUP1 REVERT JUMPDEST POP GAS CALL ISZERO DUP1 ISZERO PUSH2 0x259 JUMPI RETURNDATASIZE PUSH0 DUP1 RETURNDATACOPY RETURNDATASIZE PUSH0 REVERT JUMPDEST POP POP POP POP POP POP POP JUMP JUMPDEST PUSH0 DUP1 DUP3 PUSH1 0x40 MLOAD PUSH1 0x24 ADD PUSH2 0x275 SWAP2 SWAP1 PUSH2 0x7DF JUMP JUMPDEST PUSH1 0x40 MLOAD PUSH1 0x20 DUP2 DUP4 SUB SUB DUP2 MSTORE SWAP1 PUSH1 0x40 MSTORE PUSH32 0x5524107700000000000000000000000000000000000000000000000000000000 PUSH28 0xFFFFFFFFFFFFFFFFFFFFFFFFFFFFFFFFFFFFFFFFFFFFFFFFFFFFFFFF NOT AND PUSH1 0x20 DUP3 ADD DUP1 MLOAD PUSH28 0xFFFFFFFFFFFFFFFFFFFFFFFFFFFFFFFFFFFFFFFFFFFFFFFFFFFFFFFF DUP4 DUP2 DUP4 AND OR DUP4 MSTORE POP POP POP POP SWAP1 POP PUSH0 DUP1 PUSH1 0x1 PUSH0 SWAP1 SLOAD SWAP1 PUSH2 0x100 EXP SWAP1 DIV PUSH20 0xFFFFFFFFFFFFFFFFFFFFFFFFFFFFFFFFFFFFFFFF AND PUSH20 0xFFFFFFFFFFFFFFFFFFFFFFFFFFFFFFFFFFFFFFFF AND DUP4 PUSH1 0x40 MLOAD PUSH2 0x33C SWAP2 SWAP1 PUSH2 0x957 JUMP JUMPDEST PUSH0 PUSH1 0x40 MLOAD DUP1 DUP4 SUB DUP2 PUSH0 DUP7 GAS CALL SWAP2 POP POP RETURNDATASIZE DUP1 PUSH0 DUP2 EQ PUSH2 0x375 JUMPI PUSH1 0x40 MLOAD SWAP2 POP PUSH1 0x1F NOT PUSH1 0x3F RETURNDATASIZE ADD AND DUP3 ADD PUSH1 0x40 MSTORE RETURNDATASIZE DUP3 MSTORE RETURNDATASIZE PUSH0 PUSH1 0x20 DUP5 ADD RETURNDATACOPY PUSH2 0x37A JUMP JUMPDEST PUSH1 0x60 SWAP2 POP JUMPDEST POP SWAP2 POP SWAP2 POP PUSH2 0x3C7 DUP2 PUSH1 0x40 MLOAD DUP1 PUSH1 0x40 ADD PUSH1 0x40 MSTORE DUP1 PUSH1 0x15 DUP2 MSTORE PUSH1 0x20 ADD PUSH32 0x63616C6C50726F787920726573756C74446174613A0000000000000000000000 DUP2 MSTORE POP PUSH2 0x5B5 SWAP1 SWAP2 SWAP1 PUSH4 0xFFFFFFFF AND JUMP JUMPDEST DUP2 SWAP4 POP POP POP POP SWAP2 SWAP1 POP JUMP JUMPDEST PUSH0 DUP1 PUSH1 0x40 MLOAD PUSH1 0x24 ADD PUSH1 0x40 MLOAD PUSH1 0x20 DUP2 DUP4 SUB SUB DUP2 MSTORE SWAP1 PUSH1 0x40 MSTORE PUSH32 0x2096525500000000000000000000000000000000000000000000000000000000 PUSH28 0xFFFFFFFFFFFFFFFFFFFFFFFFFFFFFFFFFFFFFFFFFFFFFFFFFFFFFFFF NOT AND PUSH1 0x20 DUP3 ADD DUP1 MLOAD PUSH28 0xFFFFFFFFFFFFFFFFFFFFFFFFFFFFFFFFFFFFFFFFFFFFFFFFFFFFFFFF DUP4 DUP2 DUP4 AND OR DUP4 MSTORE POP POP POP POP SWAP1 POP PUSH0 DUP1 PUSH1 0x1 PUSH0 SWAP1 SLOAD SWAP1 PUSH2 0x100 EXP SWAP1 DIV PUSH20 0xFFFFFFFFFFFFFFFFFFFFFFFFFFFFFFFFFFFFFFFF AND PUSH20 0xFFFFFFFFFFFFFFFFFFFFFFFFFFFFFFFFFFFFFFFF AND DUP4 PUSH1 0x40 MLOAD PUSH2 0x4A1 SWAP2 SWAP1 PUSH2 0x957 JUMP JUMPDEST PUSH0 PUSH1 0x40 MLOAD DUP1 DUP4 SUB DUP2 PUSH0 DUP7 GAS CALL SWAP2 POP POP RETURNDATASIZE DUP1 PUSH0 DUP2 EQ PUSH2 0x4DA JUMPI PUSH1 0x40 MLOAD SWAP2 POP PUSH1 0x1F NOT PUSH1 0x3F RETURNDATASIZE ADD AND DUP3 ADD PUSH1 0x40 MSTORE RETURNDATASIZE DUP3 MSTORE RETURNDATASIZE PUSH0 PUSH1 0x20 DUP5 ADD RETURNDATACOPY PUSH2 0x4DF JUMP JUMPDEST PUSH1 0x60 SWAP2 POP JUMPDEST POP SWAP2 POP SWAP2 POP PUSH2 0x52C DUP3 PUSH1 0x40 MLOAD DUP1 PUSH1 0x40 ADD PUSH1 0x40 MSTORE DUP1 PUSH1 0x12 DUP2 MSTORE PUSH1 0x20 ADD PUSH32 0x63616C6C50726F787920737563636573733A0000000000000000000000000000 DUP2 MSTORE POP PUSH2 0x5F2 SWAP1 SWAP2 SWAP1 PUSH4 0xFFFFFFFF AND JUMP JUMPDEST PUSH2 0x574 DUP2 PUSH1 0x40 MLOAD DUP1 PUSH1 0x40 ADD PUSH1 0x40 MSTORE DUP1 PUSH1 0x15 DUP2 MSTORE PUSH1 0x20 ADD PUSH32 0x63616C6C50726F787920726573756C74446174613A0000000000000000000000 DUP2 MSTORE POP PUSH2 0x5B5 SWAP1 SWAP2 SWAP1 PUSH4 0xFFFFFFFF AND JUMP JUMPDEST DUP1 DUP1 PUSH1 0x20 ADD SWAP1 MLOAD DUP2 ADD SWAP1 PUSH2 0x588 SWAP2 SWAP1 PUSH2 0x981 JUMP JUMPDEST SWAP4 POP POP POP POP SWAP1 JUMP JUMPDEST PUSH1 0x1 PUSH0 SWAP1 SLOAD SWAP1 PUSH2 0x100 EXP SWAP1 DIV PUSH20 0xFFFFFFFFFFFFFFFFFFFFFFFFFFFFFFFFFFFFFFFF AND DUP2 JUMP JUMPDEST PUSH32 0x38510722CCA54C7525003469AFF2983DA6AA6AAA7DEC66F217775D1DE381A51A DUP3 DUP3 PUSH1 0x40 MLOAD PUSH2 0x5E6 SWAP3 SWAP2 SWAP1 PUSH2 0x9FE JUMP JUMPDEST PUSH1 0x40 MLOAD DUP1 SWAP2 SUB SWAP1 LOG1 POP POP JUMP JUMPDEST PUSH32 0x554B0A22792E0CC5201E915B6E42D3CF18A8D15C3D1984DA155E6C591B12BB6D DUP3 DUP3 PUSH1 0x40 MLOAD PUSH2 0x623 SWAP3 SWAP2 SWAP1 PUSH2 0xA33 JUMP JUMPDEST PUSH1 0x40 MLOAD DUP1 SWAP2 SUB SWAP1 LOG1 POP POP JUMP JUMPDEST PUSH0 PUSH20 0xFFFFFFFFFFFFFFFFFFFFFFFFFFFFFFFFFFFFFFFF DUP3 AND SWAP1 POP SWAP2 SWAP1 POP JUMP JUMPDEST PUSH0 DUP2 SWAP1 POP SWAP2 SWAP1 POP JUMP JUMPDEST PUSH0 PUSH2 0x671 PUSH2 0x66C PUSH2 0x667 DUP5 PUSH2 0x62F JUMP JUMPDEST PUSH2 0x64E JUMP JUMPDEST PUSH2 0x62F JUMP JUMPDEST SWAP1 POP SWAP2 SWAP1 POP JUMP JUMPDEST PUSH0 PUSH2 0x682 DUP3 PUSH2 0x657 JUMP JUMPDEST SWAP1 POP SWAP2 SWAP1 POP JUMP JUMPDEST PUSH0 PUSH2 0x693 DUP3 PUSH2 0x678 JUMP JUMPDEST SWAP1 POP SWAP2 SWAP1 POP JUMP JUMPDEST PUSH2 0x6A3 DUP2 PUSH2 0x689 JUMP JUMPDEST DUP3 MSTORE POP POP JUMP JUMPDEST PUSH0 PUSH1 0x20 DUP3 ADD SWAP1 POP PUSH2 0x6BC PUSH0 DUP4 ADD DUP5 PUSH2 0x69A JUMP JUMPDEST SWAP3 SWAP2 POP POP JUMP JUMPDEST PUSH0 DUP1 REVERT JUMPDEST PUSH0 PUSH2 0x6D0 DUP3 PUSH2 0x62F JUMP JUMPDEST SWAP1 POP SWAP2 SWAP1 POP JUMP JUMPDEST PUSH2 0x6E0 DUP2 PUSH2 0x6C6 JUMP JUMPDEST DUP2 EQ PUSH2 0x6EA JUMPI PUSH0 DUP1 REVERT JUMPDEST POP JUMP JUMPDEST PUSH0 DUP2 CALLDATALOAD SWAP1 POP PUSH2 0x6FB DUP2 PUSH2 0x6D7 JUMP JUMPDEST SWAP3 SWAP2 POP POP JUMP JUMPDEST PUSH0 DUP2 SWAP1 POP SWAP2 SWAP1 POP JUMP JUMPDEST PUSH2 0x713 DUP2 PUSH2 0x701 JUMP JUMPDEST DUP2 EQ PUSH2 0x71D JUMPI PUSH0 DUP1 REVERT JUMPDEST POP JUMP JUMPDEST PUSH0 DUP2 CALLDATALOAD SWAP1 POP PUSH2 0x72E DUP2 PUSH2 0x70A JUMP JUMPDEST SWAP3 SWAP2 POP POP JUMP JUMPDEST PUSH0 DUP1 PUSH1 0x40 DUP4 DUP6 SUB SLT ISZERO PUSH2 0x74A JUMPI PUSH2 0x749 PUSH2 0x6C2 JUMP JUMPDEST JUMPDEST PUSH0 PUSH2 0x757 DUP6 DUP3 DUP7 ADD PUSH2 0x6ED JUMP JUMPDEST SWAP3 POP POP PUSH1 0x20 PUSH2 0x768 DUP6 DUP3 DUP7 ADD PUSH2 0x720 JUMP JUMPDEST SWAP2 POP POP SWAP3 POP SWAP3 SWAP1 POP JUMP JUMPDEST PUSH0 PUSH1 0x20 DUP3 DUP5 SUB SLT ISZERO PUSH2 0x787 JUMPI PUSH2 0x786 PUSH2 0x6C2 JUMP JUMPDEST JUMPDEST PUSH0 PUSH2 0x794 DUP5 DUP3 DUP6 ADD PUSH2 0x720 JUMP JUMPDEST SWAP2 POP POP SWAP3 SWAP2 POP POP JUMP JUMPDEST PUSH0 DUP2 ISZERO ISZERO SWAP1 POP SWAP2 SWAP1 POP JUMP JUMPDEST PUSH2 0x7B1 DUP2 PUSH2 0x79D JUMP JUMPDEST DUP3 MSTORE POP POP JUMP JUMPDEST PUSH0 PUSH1 0x20 DUP3 ADD SWAP1 POP PUSH2 0x7CA PUSH0 DUP4 ADD DUP5 PUSH2 0x7A8 JUMP JUMPDEST SWAP3 SWAP2 POP POP JUMP JUMPDEST PUSH2 0x7D9 DUP2 PUSH2 0x701 JUMP JUMPDEST DUP3 MSTORE POP POP JUMP JUMPDEST PUSH0 PUSH1 0x20 DUP3 ADD SWAP1 POP PUSH2 0x7F2 PUSH0 DUP4 ADD DUP5 PUSH2 0x7D0 JUMP JUMPDEST SWAP3 SWAP2 POP POP JUMP JUMPDEST PUSH0 PUSH2 0x802 DUP3 PUSH2 0x657 JUMP JUMPDEST SWAP1 POP SWAP2 SWAP1 POP JUMP JUMPDEST PUSH0 PUSH2 0x813 DUP3 PUSH2 0x7F8 JUMP JUMPDEST SWAP1 POP SWAP2 SWAP1 POP JUMP JUMPDEST PUSH2 0x823 DUP2 PUSH2 0x809 JUMP JUMPDEST DUP3 MSTORE POP POP JUMP JUMPDEST PUSH0 PUSH1 0x20 DUP3 ADD SWAP1 POP PUSH2 0x83C PUSH0 DUP4 ADD DUP5 PUSH2 0x81A JUMP JUMPDEST SWAP3 SWAP2 POP POP JUMP JUMPDEST PUSH0 PUSH2 0x84C DUP3 PUSH2 0x678 JUMP JUMPDEST SWAP1 POP SWAP2 SWAP1 POP JUMP JUMPDEST PUSH2 0x85C DUP2 PUSH2 0x842 JUMP JUMPDEST DUP3 MSTORE POP POP JUMP JUMPDEST PUSH2 0x86B DUP2 PUSH2 0x6C6 JUMP JUMPDEST DUP3 MSTORE POP POP JUMP JUMPDEST PUSH0 DUP2 MLOAD SWAP1 POP SWAP2 SWAP1 POP JUMP JUMPDEST PUSH0 DUP3 DUP3 MSTORE PUSH1 0x20 DUP3 ADD SWAP1 POP SWAP3 SWAP2 POP POP JUMP JUMPDEST DUP3 DUP2 DUP4 MCOPY PUSH0 DUP4 DUP4 ADD MSTORE POP POP POP JUMP JUMPDEST PUSH0 PUSH1 0x1F NOT PUSH1 0x1F DUP4 ADD AND SWAP1 POP SWAP2 SWAP1 POP JUMP JUMPDEST PUSH0 PUSH2 0x8B3 DUP3 PUSH2 0x871 JUMP JUMPDEST PUSH2 0x8BD DUP2 DUP6 PUSH2 0x87B JUMP JUMPDEST SWAP4 POP PUSH2 0x8CD DUP2 DUP6 PUSH1 0x20 DUP7 ADD PUSH2 0x88B JUMP JUMPDEST PUSH2 0x8D6 DUP2 PUSH2 0x899 JUMP JUMPDEST DUP5 ADD SWAP2 POP POP SWAP3 SWAP2 POP POP JUMP JUMPDEST PUSH0 PUSH1 0x60 DUP3 ADD SWAP1 POP PUSH2 0x8F4 PUSH0 DUP4 ADD DUP7 PUSH2 0x853 JUMP JUMPDEST PUSH2 0x901 PUSH1 0x20 DUP4 ADD DUP6 PUSH2 0x862 JUMP JUMPDEST DUP2 DUP2 SUB PUSH1 0x40 DUP4 ADD MSTORE PUSH2 0x913 DUP2 DUP5 PUSH2 0x8A9 JUMP JUMPDEST SWAP1 POP SWAP5 SWAP4 POP POP POP POP JUMP JUMPDEST PUSH0 DUP2 SWAP1 POP SWAP3 SWAP2 POP POP JUMP JUMPDEST PUSH0 PUSH2 0x931 DUP3 PUSH2 0x871 JUMP JUMPDEST PUSH2 0x93B DUP2 DUP6 PUSH2 0x91D JUMP JUMPDEST SWAP4 POP PUSH2 0x94B DUP2 DUP6 PUSH1 0x20 DUP7 ADD PUSH2 0x88B JUMP JUMPDEST DUP1 DUP5 ADD SWAP2 POP POP SWAP3 SWAP2 POP POP JUMP JUMPDEST PUSH0 PUSH2 0x962 DUP3 DUP5 PUSH2 0x927 JUMP JUMPDEST SWAP2 POP DUP2 SWAP1 POP SWAP3 SWAP2 POP POP JUMP JUMPDEST PUSH0 DUP2 MLOAD SWAP1 POP PUSH2 0x97B DUP2 PUSH2 0x70A JUMP JUMPDEST SWAP3 SWAP2 POP POP JUMP JUMPDEST PUSH0 PUSH1 0x20 DUP3 DUP5 SUB SLT ISZERO PUSH2 0x996 JUMPI PUSH2 0x995 PUSH2 0x6C2 JUMP JUMPDEST JUMPDEST PUSH0 PUSH2 0x9A3 DUP5 DUP3 DUP6 ADD PUSH2 0x96D JUMP JUMPDEST SWAP2 POP POP SWAP3 SWAP2 POP POP JUMP JUMPDEST PUSH0 DUP2 MLOAD SWAP1 POP SWAP2 SWAP1 POP JUMP JUMPDEST PUSH0 DUP3 DUP3 MSTORE PUSH1 0x20 DUP3 ADD SWAP1 POP SWAP3 SWAP2 POP POP JUMP JUMPDEST PUSH0 PUSH2 0x9D0 DUP3 PUSH2 0x9AC JUMP JUMPDEST PUSH2 0x9DA DUP2 DUP6 PUSH2 0x9B6 JUMP JUMPDEST SWAP4 POP PUSH2 0x9EA DUP2 DUP6 PUSH1 0x20 DUP7 ADD PUSH2 0x88B JUMP JUMPDEST PUSH2 0x9F3 DUP2 PUSH2 0x899 JUMP JUMPDEST DUP5 ADD SWAP2 POP POP SWAP3 SWAP2 POP POP JUMP JUMPDEST PUSH0 PUSH1 0x40 DUP3 ADD SWAP1 POP DUP2 DUP2 SUB PUSH0 DUP4 ADD MSTORE PUSH2 0xA16 DUP2 DUP6 PUSH2 0x9C6 JUMP JUMPDEST SWAP1 POP DUP2 DUP2 SUB PUSH1 0x20 DUP4 ADD MSTORE PUSH2 0xA2A DUP2 DUP5 PUSH2 0x9C6 JUMP JUMPDEST SWAP1 POP SWAP4 SWAP3 POP POP POP JUMP JUMPDEST PUSH0 PUSH1 0x40 DUP3 ADD SWAP1 POP DUP2 DUP2 SUB PUSH0 DUP4 ADD MSTORE PUSH2 0xA4B DUP2 DUP6 PUSH2 0x9C6 JUMP JUMPDEST SWAP1 POP PUSH2 0xA5A PUSH1 0x20 DUP4 ADD DUP5 PUSH2 0x7A8 JUMP JUMPDEST SWAP4 SWAP3 POP POP POP JUMP INVALID LOG2 PUSH5 0x6970667358 0x22 SLT KECCAK256 0xFB STOP 0xB0 0xC9 0x2D DUP7 0xDB CALLVALUE 0xAB 0x22 0x1F CALL 0xE8 DUP15 0xD6 0xBA PUSH28 0xD989126D4A527DF7BDA5777AD519F364736F6C634300081A00336080 PUSH1 0x40 MSTORE CALLVALUE DUP1 ISZERO PUSH2 0xF JUMPI PUSH0 DUP1 REVERT JUMPDEST POP PUSH1 0x40 MLOAD PUSH2 0x9C6 CODESIZE SUB DUP1 PUSH2 0x9C6 DUP4 CODECOPY DUP2 DUP2 ADD PUSH1 0x40 MSTORE DUP2 ADD SWAP1 PUSH2 0x31 SWAP2 SWAP1 PUSH2 0x1D7 JUMP JUMPDEST DUP1 PUSH0 PUSH20 0xFFFFFFFFFFFFFFFFFFFFFFFFFFFFFFFFFFFFFFFF AND DUP2 PUSH20 0xFFFFFFFFFFFFFFFFFFFFFFFFFFFFFFFFFFFFFFFF AND SUB PUSH2 0xA2 JUMPI PUSH0 PUSH1 0x40 MLOAD PUSH32 0x1E4FBDF700000000000000000000000000000000000000000000000000000000 DUP2 MSTORE PUSH1 0x4 ADD PUSH2 0x99 SWAP2 SWAP1 PUSH2 0x211 JUMP JUMPDEST PUSH1 0x40 MLOAD DUP1 SWAP2 SUB SWAP1 REVERT JUMPDEST PUSH2 0xB1 DUP2 PUSH2 0xB8 PUSH1 0x20 SHL PUSH1 0x20 SHR JUMP JUMPDEST POP POP PUSH2 0x22A JUMP JUMPDEST PUSH0 DUP1 PUSH0 SWAP1 SLOAD SWAP1 PUSH2 0x100 EXP SWAP1 DIV PUSH20 0xFFFFFFFFFFFFFFFFFFFFFFFFFFFFFFFFFFFFFFFF AND SWAP1 POP DUP2 PUSH0 DUP1 PUSH2 0x100 EXP DUP2 SLOAD DUP2 PUSH20 0xFFFFFFFFFFFFFFFFFFFFFFFFFFFFFFFFFFFFFFFF MUL NOT AND SWAP1 DUP4 PUSH20 0xFFFFFFFFFFFFFFFFFFFFFFFFFFFFFFFFFFFFFFFF AND MUL OR SWAP1 SSTORE POP DUP2 PUSH20 0xFFFFFFFFFFFFFFFFFFFFFFFFFFFFFFFFFFFFFFFF AND DUP2 PUSH20 0xFFFFFFFFFFFFFFFFFFFFFFFFFFFFFFFFFFFFFFFF AND PUSH32 0x8BE0079C531659141344CD1FD0A4F28419497F9722A3DAAFE3B4186F6B6457E0 PUSH1 0x40 MLOAD PUSH1 0x40 MLOAD DUP1 SWAP2 SUB SWAP1 LOG3 POP POP JUMP JUMPDEST PUSH0 DUP1 REVERT JUMPDEST PUSH0 PUSH20 0xFFFFFFFFFFFFFFFFFFFFFFFFFFFFFFFFFFFFFFFF DUP3 AND SWAP1 POP SWAP2 SWAP1 POP JUMP JUMPDEST PUSH0 PUSH2 0x1A6 DUP3 PUSH2 0x17D JUMP JUMPDEST SWAP1 POP SWAP2 SWAP1 POP JUMP JUMPDEST PUSH2 0x1B6 DUP2 PUSH2 0x19C JUMP JUMPDEST DUP2 EQ PUSH2 0x1C0 JUMPI PUSH0 DUP1 REVERT JUMPDEST POP JUMP JUMPDEST PUSH0 DUP2 MLOAD SWAP1 POP PUSH2 0x1D1 DUP2 PUSH2 0x1AD JUMP JUMPDEST SWAP3 SWAP2 POP POP JUMP JUMPDEST PUSH0 PUSH1 0x20 DUP3 DUP5 SUB SLT ISZERO PUSH2 0x1EC JUMPI PUSH2 0x1EB PUSH2 0x179 JUMP JUMPDEST JUMPDEST PUSH0 PUSH2 0x1F9 DUP5 DUP3 DUP6 ADD PUSH2 0x1C3 JUMP JUMPDEST SWAP2 POP POP SWAP3 SWAP2 POP POP JUMP JUMPDEST PUSH2 0x20B DUP2 PUSH2 0x19C JUMP JUMPDEST DUP3 MSTORE POP POP JUMP JUMPDEST PUSH0 PUSH1 0x20 DUP3 ADD SWAP1 POP PUSH2 0x224 PUSH0 DUP4 ADD DUP5 PUSH2 0x202 JUMP JUMPDEST SWAP3 SWAP2 POP POP JUMP JUMPDEST PUSH2 0x78F DUP1 PUSH2 0x237 PUSH0 CODECOPY PUSH0 RETURN INVALID PUSH1 0x80 PUSH1 0x40 MSTORE PUSH1 0x4 CALLDATASIZE LT PUSH2 0x49 JUMPI PUSH0 CALLDATALOAD PUSH1 0xE0 SHR DUP1 PUSH4 0x715018A6 EQ PUSH2 0x4D JUMPI DUP1 PUSH4 0x8DA5CB5B EQ PUSH2 0x63 JUMPI DUP1 PUSH4 0x9623609D EQ PUSH2 0x8D JUMPI DUP1 PUSH4 0xAD3CB1CC EQ PUSH2 0xA9 JUMPI DUP1 PUSH4 0xF2FDE38B EQ PUSH2 0xD3 JUMPI JUMPDEST PUSH0 DUP1 REVERT JUMPDEST CALLVALUE DUP1 ISZERO PUSH2 0x58 JUMPI PUSH0 DUP1 REVERT JUMPDEST POP PUSH2 0x61 PUSH2 0xFB JUMP JUMPDEST STOP JUMPDEST CALLVALUE DUP1 ISZERO PUSH2 0x6E JUMPI PUSH0 DUP1 REVERT JUMPDEST POP PUSH2 0x77 PUSH2 0x10E JUMP JUMPDEST PUSH1 0x40 MLOAD PUSH2 0x84 SWAP2 SWAP1 PUSH2 0x3F7 JUMP JUMPDEST PUSH1 0x40 MLOAD DUP1 SWAP2 SUB SWAP1 RETURN JUMPDEST PUSH2 0xA7 PUSH1 0x4 DUP1 CALLDATASIZE SUB DUP2 ADD SWAP1 PUSH2 0xA2 SWAP2 SWAP1 PUSH2 0x5C2 JUMP JUMPDEST PUSH2 0x135 JUMP JUMPDEST STOP JUMPDEST CALLVALUE DUP1 ISZERO PUSH2 0xB4 JUMPI PUSH0 DUP1 REVERT JUMPDEST POP PUSH2 0xBD PUSH2 0x1AC JUMP JUMPDEST PUSH1 0x40 MLOAD PUSH2 0xCA SWAP2 SWAP1 PUSH2 0x68E JUMP JUMPDEST PUSH1 0x40 MLOAD DUP1 SWAP2 SUB SWAP1 RETURN JUMPDEST CALLVALUE DUP1 ISZERO PUSH2 0xDE JUMPI PUSH0 DUP1 REVERT JUMPDEST POP PUSH2 0xF9 PUSH1 0x4 DUP1 CALLDATASIZE SUB DUP2 ADD SWAP1 PUSH2 0xF4 SWAP2 SWAP1 PUSH2 0x6AE JUMP JUMPDEST PUSH2 0x1E5 JUMP JUMPDEST STOP JUMPDEST PUSH2 0x103 PUSH2 0x269 JUMP JUMPDEST PUSH2 0x10C PUSH0 PUSH2 0x2F0 JUMP JUMPDEST JUMP JUMPDEST PUSH0 DUP1 PUSH0 SWAP1 SLOAD SWAP1 PUSH2 0x100 EXP SWAP1 DIV PUSH20 0xFFFFFFFFFFFFFFFFFFFFFFFFFFFFFFFFFFFFFFFF AND SWAP1 POP SWAP1 JUMP JUMPDEST PUSH2 0x13D PUSH2 0x269 JUMP JUMPDEST DUP3 PUSH20 0xFFFFFFFFFFFFFFFFFFFFFFFFFFFFFFFFFFFFFFFF AND PUSH4 0x4F1EF286 CALLVALUE DUP5 DUP5 PUSH1 0x40 MLOAD DUP5 PUSH4 0xFFFFFFFF AND PUSH1 0xE0 SHL DUP2 MSTORE PUSH1 0x4 ADD PUSH2 0x179 SWAP3 SWAP2 SWAP1 PUSH2 0x72B JUMP JUMPDEST PUSH0 PUSH1 0x40 MLOAD DUP1 DUP4 SUB DUP2 DUP6 DUP9 DUP1 EXTCODESIZE ISZERO DUP1 ISZERO PUSH2 0x190 JUMPI PUSH0 DUP1 REVERT JUMPDEST POP GAS CALL ISZERO DUP1 ISZERO PUSH2 0x1A2 JUMPI RETURNDATASIZE PUSH0 DUP1 RETURNDATACOPY RETURNDATASIZE PUSH0 REVERT JUMPDEST POP POP POP POP POP POP POP POP JUMP JUMPDEST PUSH1 0x40 MLOAD DUP1 PUSH1 0x40 ADD PUSH1 0x40 MSTORE DUP1 PUSH1 0x5 DUP2 MSTORE PUSH1 0x20 ADD PUSH32 0x352E302E30000000000000000000000000000000000000000000000000000000 DUP2 MSTORE POP DUP2 JUMP JUMPDEST PUSH2 0x1ED PUSH2 0x269 JUMP JUMPDEST PUSH0 PUSH20 0xFFFFFFFFFFFFFFFFFFFFFFFFFFFFFFFFFFFFFFFF AND DUP2 PUSH20 0xFFFFFFFFFFFFFFFFFFFFFFFFFFFFFFFFFFFFFFFF AND SUB PUSH2 0x25D JUMPI PUSH0 PUSH1 0x40 MLOAD PUSH32 0x1E4FBDF700000000000000000000000000000000000000000000000000000000 DUP2 MSTORE PUSH1 0x4 ADD PUSH2 0x254 SWAP2 SWAP1 PUSH2 0x3F7 JUMP JUMPDEST PUSH1 0x40 MLOAD DUP1 SWAP2 SUB SWAP1 REVERT JUMPDEST PUSH2 0x266 DUP2 PUSH2 0x2F0 JUMP JUMPDEST POP JUMP JUMPDEST PUSH2 0x271 PUSH2 0x3B1 JUMP JUMPDEST PUSH20 0xFFFFFFFFFFFFFFFFFFFFFFFFFFFFFFFFFFFFFFFF AND PUSH2 0x28F PUSH2 0x10E JUMP JUMPDEST PUSH20 0xFFFFFFFFFFFFFFFFFFFFFFFFFFFFFFFFFFFFFFFF AND EQ PUSH2 0x2EE JUMPI PUSH2 0x2B2 PUSH2 0x3B1 JUMP JUMPDEST PUSH1 0x40 MLOAD PUSH32 0x118CDAA700000000000000000000000000000000000000000000000000000000 DUP2 MSTORE PUSH1 0x4 ADD PUSH2 0x2E5 SWAP2 SWAP1 PUSH2 0x3F7 JUMP JUMPDEST PUSH1 0x40 MLOAD DUP1 SWAP2 SUB SWAP1 REVERT JUMPDEST JUMP JUMPDEST PUSH0 DUP1 PUSH0 SWAP1 SLOAD SWAP1 PUSH2 0x100 EXP SWAP1 DIV PUSH20 0xFFFFFFFFFFFFFFFFFFFFFFFFFFFFFFFFFFFFFFFF AND SWAP1 POP DUP2 PUSH0 DUP1 PUSH2 0x100 EXP DUP2 SLOAD DUP2 PUSH20 0xFFFFFFFFFFFFFFFFFFFFFFFFFFFFFFFFFFFFFFFF MUL NOT AND SWAP1 DUP4 PUSH20 0xFFFFFFFFFFFFFFFFFFFFFFFFFFFFFFFFFFFFFFFF AND MUL OR SWAP1 SSTORE POP DUP2 PUSH20 0xFFFFFFFFFFFFFFFFFFFFFFFFFFFFFFFFFFFFFFFF AND DUP2 PUSH20 0xFFFFFFFFFFFFFFFFFFFFFFFFFFFFFFFFFFFFFFFF AND PUSH32 0x8BE0079C531659141344CD1FD0A4F28419497F9722A3DAAFE3B4186F6B6457E0 PUSH1 0x40 MLOAD PUSH1 0x40 MLOAD DUP1 SWAP2 SUB SWAP1 LOG3 POP POP JUMP JUMPDEST PUSH0 CALLER SWAP1 POP SWAP1 JUMP JUMPDEST PUSH0 PUSH20 0xFFFFFFFFFFFFFFFFFFFFFFFFFFFFFFFFFFFFFFFF DUP3 AND SWAP1 POP SWAP2 SWAP1 POP JUMP JUMPDEST PUSH0 PUSH2 0x3E1 DUP3 PUSH2 0x3B8 JUMP JUMPDEST SWAP1 POP SWAP2 SWAP1 POP JUMP JUMPDEST PUSH2 0x3F1 DUP2 PUSH2 0x3D7 JUMP JUMPDEST DUP3 MSTORE POP POP JUMP JUMPDEST PUSH0 PUSH1 0x20 DUP3 ADD SWAP1 POP PUSH2 0x40A PUSH0 DUP4 ADD DUP5 PUSH2 0x3E8 JUMP JUMPDEST SWAP3 SWAP2 POP POP JUMP JUMPDEST PUSH0 PUSH1 0x40 MLOAD SWAP1 POP SWAP1 JUMP JUMPDEST PUSH0 DUP1 REVERT JUMPDEST PUSH0 DUP1 REVERT JUMPDEST PUSH0 PUSH2 0x42B DUP3 PUSH2 0x3D7 JUMP JUMPDEST SWAP1 POP SWAP2 SWAP1 POP JUMP JUMPDEST PUSH2 0x43B DUP2 PUSH2 0x421 JUMP JUMPDEST DUP2 EQ PUSH2 0x445 JUMPI PUSH0 DUP1 REVERT JUMPDEST POP JUMP JUMPDEST PUSH0 DUP2 CALLDATALOAD SWAP1 POP PUSH2 0x456 DUP2 PUSH2 0x432 JUMP JUMPDEST SWAP3 SWAP2 POP POP JUMP JUMPDEST PUSH2 0x465 DUP2 PUSH2 0x3D7 JUMP JUMPDEST DUP2 EQ PUSH2 0x46F JUMPI PUSH0 DUP1 REVERT JUMPDEST POP JUMP JUMPDEST PUSH0 DUP2 CALLDATALOAD SWAP1 POP PUSH2 0x480 DUP2 PUSH2 0x45C JUMP JUMPDEST SWAP3 SWAP2 POP POP JUMP JUMPDEST PUSH0 DUP1 REVERT JUMPDEST PUSH0 DUP1 REVERT JUMPDEST PUSH0 PUSH1 0x1F NOT PUSH1 0x1F DUP4 ADD AND SWAP1 POP SWAP2 SWAP1 POP JUMP JUMPDEST PUSH32 0x4E487B7100000000000000000000000000000000000000000000000000000000 PUSH0 MSTORE PUSH1 0x41 PUSH1 0x4 MSTORE PUSH1 0x24 PUSH0 REVERT JUMPDEST PUSH2 0x4D4 DUP3 PUSH2 0x48E JUMP JUMPDEST DUP2 ADD DUP2 DUP2 LT PUSH8 0xFFFFFFFFFFFFFFFF DUP3 GT OR ISZERO PUSH2 0x4F3 JUMPI PUSH2 0x4F2 PUSH2 0x49E JUMP JUMPDEST JUMPDEST DUP1 PUSH1 0x40 MSTORE POP POP POP JUMP JUMPDEST PUSH0 PUSH2 0x505 PUSH2 0x410 JUMP JUMPDEST SWAP1 POP PUSH2 0x511 DUP3 DUP3 PUSH2 0x4CB JUMP JUMPDEST SWAP2 SWAP1 POP JUMP JUMPDEST PUSH0 PUSH8 0xFFFFFFFFFFFFFFFF DUP3 GT ISZERO PUSH2 0x530 JUMPI PUSH2 0x52F PUSH2 0x49E JUMP JUMPDEST JUMPDEST PUSH2 0x539 DUP3 PUSH2 0x48E JUMP JUMPDEST SWAP1 POP PUSH1 0x20 DUP2 ADD SWAP1 POP SWAP2 SWAP1 POP JUMP JUMPDEST DUP3 DUP2 DUP4 CALLDATACOPY PUSH0 DUP4 DUP4 ADD MSTORE POP POP POP JUMP JUMPDEST PUSH0 PUSH2 0x566 PUSH2 0x561 DUP5 PUSH2 0x516 JUMP JUMPDEST PUSH2 0x4FC JUMP JUMPDEST SWAP1 POP DUP3 DUP2 MSTORE PUSH1 0x20 DUP2 ADD DUP5 DUP5 DUP5 ADD GT ISZERO PUSH2 0x582 JUMPI PUSH2 0x581 PUSH2 0x48A JUMP JUMPDEST JUMPDEST PUSH2 0x58D DUP5 DUP3 DUP6 PUSH2 0x546 JUMP JUMPDEST POP SWAP4 SWAP3 POP POP POP JUMP JUMPDEST PUSH0 DUP3 PUSH1 0x1F DUP4 ADD SLT PUSH2 0x5A9 JUMPI PUSH2 0x5A8 PUSH2 0x486 JUMP JUMPDEST JUMPDEST DUP2 CALLDATALOAD PUSH2 0x5B9 DUP5 DUP3 PUSH1 0x20 DUP7 ADD PUSH2 0x554 JUMP JUMPDEST SWAP2 POP POP SWAP3 SWAP2 POP POP JUMP JUMPDEST PUSH0 DUP1 PUSH0 PUSH1 0x60 DUP5 DUP7 SUB SLT ISZERO PUSH2 0x5D9 JUMPI PUSH2 0x5D8 PUSH2 0x419 JUMP JUMPDEST JUMPDEST PUSH0 PUSH2 0x5E6 DUP7 DUP3 DUP8 ADD PUSH2 0x448 JUMP JUMPDEST SWAP4 POP POP PUSH1 0x20 PUSH2 0x5F7 DUP7 DUP3 DUP8 ADD PUSH2 0x472 JUMP JUMPDEST SWAP3 POP POP PUSH1 0x40 DUP5 ADD CALLDATALOAD PUSH8 0xFFFFFFFFFFFFFFFF DUP2 GT ISZERO PUSH2 0x618 JUMPI PUSH2 0x617 PUSH2 0x41D JUMP JUMPDEST JUMPDEST PUSH2 0x624 DUP7 DUP3 DUP8 ADD PUSH2 0x595 JUMP JUMPDEST SWAP2 POP POP SWAP3 POP SWAP3 POP SWAP3 JUMP JUMPDEST PUSH0 DUP2 MLOAD SWAP1 POP SWAP2 SWAP1 POP JUMP JUMPDEST PUSH0 DUP3 DUP3 MSTORE PUSH1 0x20 DUP3 ADD SWAP1 POP SWAP3 SWAP2 POP POP JUMP JUMPDEST DUP3 DUP2 DUP4 MCOPY PUSH0 DUP4 DUP4 ADD MSTORE POP POP POP JUMP JUMPDEST PUSH0 PUSH2 0x660 DUP3 PUSH2 0x62E JUMP JUMPDEST PUSH2 0x66A DUP2 DUP6 PUSH2 0x638 JUMP JUMPDEST SWAP4 POP PUSH2 0x67A DUP2 DUP6 PUSH1 0x20 DUP7 ADD PUSH2 0x648 JUMP JUMPDEST PUSH2 0x683 DUP2 PUSH2 0x48E JUMP JUMPDEST DUP5 ADD SWAP2 POP POP SWAP3 SWAP2 POP POP JUMP JUMPDEST PUSH0 PUSH1 0x20 DUP3 ADD SWAP1 POP DUP2 DUP2 SUB PUSH0 DUP4 ADD MSTORE PUSH2 0x6A6 DUP2 DUP5 PUSH2 0x656 JUMP JUMPDEST SWAP1 POP SWAP3 SWAP2 POP POP JUMP JUMPDEST PUSH0 PUSH1 0x20 DUP3 DUP5 SUB SLT ISZERO PUSH2 0x6C3 JUMPI PUSH2 0x6C2 PUSH2 0x419 JUMP JUMPDEST JUMPDEST PUSH0 PUSH2 0x6D0 DUP5 DUP3 DUP6 ADD PUSH2 0x472 JUMP JUMPDEST SWAP2 POP POP SWAP3 SWAP2 POP POP JUMP JUMPDEST PUSH0 DUP2 MLOAD SWAP1 POP SWAP2 SWAP1 POP JUMP JUMPDEST PUSH0 DUP3 DUP3 MSTORE PUSH1 0x20 DUP3 ADD SWAP1 POP SWAP3 SWAP2 POP POP JUMP JUMPDEST PUSH0 PUSH2 0x6FD DUP3 PUSH2 0x6D9 JUMP JUMPDEST PUSH2 0x707 DUP2 DUP6 PUSH2 0x6E3 JUMP JUMPDEST SWAP4 POP PUSH2 0x717 DUP2 DUP6 PUSH1 0x20 DUP7 ADD PUSH2 0x648 JUMP JUMPDEST PUSH2 0x720 DUP2 PUSH2 0x48E JUMP JUMPDEST DUP5 ADD SWAP2 POP POP SWAP3 SWAP2 POP POP JUMP JUMPDEST PUSH0 PUSH1 0x40 DUP3 ADD SWAP1 POP PUSH2 0x73E PUSH0 DUP4 ADD DUP6 PUSH2 0x3E8 JUMP JUMPDEST DUP2 DUP2 SUB PUSH1 0x20 DUP4 ADD MSTORE PUSH2 0x750 DUP2 DUP5 PUSH2 0x6F3 JUMP JUMPDEST SWAP1 POP SWAP4 SWAP3 POP POP POP JUMP INVALID LOG2 PUSH5 0x6970667358 0x22 SLT KECCAK256 PUSH30 0xAE247E483E29D0FBF36E48F7C1706AB7D6D498D1493C2BB64A07A5733307 0xBF PUSH5 0x736F6C6343 STOP ADDMOD BYTE STOP CALLER PUSH1 0x80 PUSH1 0x40 MSTORE CALLVALUE DUP1 ISZERO PUSH1 0xE JUMPI PUSH0 DUP1 REVERT JUMPDEST POP PUSH2 0x303 DUP1 PUSH2 0x1C PUSH0 CODECOPY PUSH0 RETURN INVALID PUSH1 0x80 PUSH1 0x40 MSTORE CALLVALUE DUP1 ISZERO PUSH2 0xF JUMPI PUSH0 DUP1 REVERT JUMPDEST POP PUSH1 0x4 CALLDATASIZE LT PUSH2 0x4A JUMPI PUSH0 CALLDATALOAD PUSH1 0xE0 SHR DUP1 PUSH4 0x20965255 EQ PUSH2 0x4E JUMPI DUP1 PUSH4 0x3FA4F245 EQ PUSH2 0x6C JUMPI DUP1 PUSH4 0x55241077 EQ PUSH2 0x8A JUMPI DUP1 PUSH4 0xFE4B84DF EQ PUSH2 0xA6 JUMPI JUMPDEST PUSH0 DUP1 REVERT JUMPDEST PUSH2 0x56 PUSH2 0xC2 JUMP JUMPDEST PUSH1 0x40 MLOAD PUSH2 0x63 SWAP2 SWAP1 PUSH2 0x17E JUMP JUMPDEST PUSH1 0x40 MLOAD DUP1 SWAP2 SUB SWAP1 RETURN JUMPDEST PUSH2 0x74 PUSH2 0x112 JUMP JUMPDEST PUSH1 0x40 MLOAD PUSH2 0x81 SWAP2 SWAP1 PUSH2 0x17E JUMP JUMPDEST PUSH1 0x40 MLOAD DUP1 SWAP2 SUB SWAP1 RETURN JUMPDEST PUSH2 0xA4 PUSH1 0x4 DUP1 CALLDATASIZE SUB DUP2 ADD SWAP1 PUSH2 0x9F SWAP2 SWAP1 PUSH2 0x1C5 JUMP JUMPDEST PUSH2 0x117 JUMP JUMPDEST STOP JUMPDEST PUSH2 0xC0 PUSH1 0x4 DUP1 CALLDATASIZE SUB DUP2 ADD SWAP1 PUSH2 0xBB SWAP2 SWAP1 PUSH2 0x1C5 JUMP JUMPDEST PUSH2 0x120 JUMP JUMPDEST STOP JUMPDEST PUSH0 PUSH2 0x10B CALLER PUSH1 0x40 MLOAD DUP1 PUSH1 0x40 ADD PUSH1 0x40 MSTORE DUP1 PUSH1 0x1E DUP2 MSTORE PUSH1 0x20 ADD PUSH32 0x4C6F67696356312067657456616C756528292C6D73672E73656E6465723A0000 DUP2 MSTORE POP PUSH2 0x129 SWAP1 SWAP2 SWAP1 PUSH4 0xFFFFFFFF AND JUMP JUMPDEST PUSH0 SLOAD SWAP1 POP SWAP1 JUMP JUMPDEST PUSH0 SLOAD DUP2 JUMP JUMPDEST DUP1 PUSH0 DUP2 SWAP1 SSTORE POP POP JUMP JUMPDEST DUP1 PUSH0 DUP2 SWAP1 SSTORE POP POP JUMP JUMPDEST PUSH32 0x7700EE2A2783C555D55A6D24309C75ED5612BD3DEDC5272D3219B930694EBA44 DUP3 DUP3 PUSH1 0x40 MLOAD PUSH2 0x15A SWAP3 SWAP2 SWAP1 PUSH2 0x29F JUMP JUMPDEST PUSH1 0x40 MLOAD DUP1 SWAP2 SUB SWAP1 LOG1 POP POP JUMP JUMPDEST PUSH0 DUP2 SWAP1 POP SWAP2 SWAP1 POP JUMP JUMPDEST PUSH2 0x178 DUP2 PUSH2 0x166 JUMP JUMPDEST DUP3 MSTORE POP POP JUMP JUMPDEST PUSH0 PUSH1 0x20 DUP3 ADD SWAP1 POP PUSH2 0x191 PUSH0 DUP4 ADD DUP5 PUSH2 0x16F JUMP JUMPDEST SWAP3 SWAP2 POP POP JUMP JUMPDEST PUSH0 DUP1 REVERT JUMPDEST PUSH2 0x1A4 DUP2 PUSH2 0x166 JUMP JUMPDEST DUP2 EQ PUSH2 0x1AE JUMPI PUSH0 DUP1 REVERT JUMPDEST POP JUMP JUMPDEST PUSH0 DUP2 CALLDATALOAD SWAP1 POP PUSH2 0x1BF DUP2 PUSH2 0x19B JUMP JUMPDEST SWAP3 SWAP2 POP POP JUMP JUMPDEST PUSH0 PUSH1 0x20 DUP3 DUP5 SUB SLT ISZERO PUSH2 0x1DA JUMPI PUSH2 0x1D9 PUSH2 0x197 JUMP JUMPDEST JUMPDEST PUSH0 PUSH2 0x1E7 DUP5 DUP3 DUP6 ADD PUSH2 0x1B1 JUMP JUMPDEST SWAP2 POP POP SWAP3 SWAP2 POP POP JUMP JUMPDEST PUSH0 DUP2 MLOAD SWAP1 POP SWAP2 SWAP1 POP JUMP JUMPDEST PUSH0 DUP3 DUP3 MSTORE PUSH1 0x20 DUP3 ADD SWAP1 POP SWAP3 SWAP2 POP POP JUMP JUMPDEST DUP3 DUP2 DUP4 MCOPY PUSH0 DUP4 DUP4 ADD MSTORE POP POP POP JUMP JUMPDEST PUSH0 PUSH1 0x1F NOT PUSH1 0x1F DUP4 ADD AND SWAP1 POP SWAP2 SWAP1 POP JUMP JUMPDEST PUSH0 PUSH2 0x232 DUP3 PUSH2 0x1F0 JUMP JUMPDEST PUSH2 0x23C DUP2 DUP6 PUSH2 0x1FA JUMP JUMPDEST SWAP4 POP PUSH2 0x24C DUP2 DUP6 PUSH1 0x20 DUP7 ADD PUSH2 0x20A JUMP JUMPDEST PUSH2 0x255 DUP2 PUSH2 0x218 JUMP JUMPDEST DUP5 ADD SWAP2 POP POP SWAP3 SWAP2 POP POP JUMP JUMPDEST PUSH0 PUSH20 0xFFFFFFFFFFFFFFFFFFFFFFFFFFFFFFFFFFFFFFFF DUP3 AND SWAP1 POP SWAP2 SWAP1 POP JUMP JUMPDEST PUSH0 PUSH2 0x289 DUP3 PUSH2 0x260 JUMP JUMPDEST SWAP1 POP SWAP2 SWAP1 POP JUMP JUMPDEST PUSH2 0x299 DUP2 PUSH2 0x27F JUMP JUMPDEST DUP3 MSTORE POP POP JUMP JUMPDEST PUSH0 PUSH1 0x40 DUP3 ADD SWAP1 POP DUP2 DUP2 SUB PUSH0 DUP4 ADD MSTORE PUSH2 0x2B7 DUP2 DUP6 PUSH2 0x228 JUMP JUMPDEST SWAP1 POP PUSH2 0x2C6 PUSH1 0x20 DUP4 ADD DUP5 PUSH2 0x290 JUMP JUMPDEST SWAP4 SWAP3 POP POP POP JUMP INVALID LOG2 PUSH5 0x6970667358 0x22 SLT KECCAK256 0xC8 PUSH22 0xA4E360ECF186A98A447E15FF274D244536990AA4651A SAR ORIGIN GT BLOCKHASH 0xA6 0xEF PUSH24 0xD64736F6C634300081A003360A06040526040516119D438 SUB DUP1 PUSH2 0x19D4 DUP4 CODECOPY DUP2 DUP2 ADD PUSH1 0x40 MSTORE DUP2 ADD SWAP1 PUSH2 0x25 SWAP2 SWAP1 PUSH2 0x708 JUMP JUMPDEST DUP3 DUP2 PUSH2 0x37 DUP3 DUP3 PUSH2 0xC1 PUSH1 0x20 SHL PUSH1 0x20 SHR JUMP JUMPDEST POP POP DUP2 PUSH1 0x40 MLOAD PUSH2 0x46 SWAP1 PUSH2 0x554 JUMP JUMPDEST PUSH2 0x50 SWAP2 SWAP1 PUSH2 0x783 JUMP JUMPDEST PUSH1 0x40 MLOAD DUP1 SWAP2 SUB SWAP1 PUSH0 CREATE DUP1 ISZERO DUP1 ISZERO PUSH2 0x69 JUMPI RETURNDATASIZE PUSH0 DUP1 RETURNDATACOPY RETURNDATASIZE PUSH0 REVERT JUMPDEST POP PUSH20 0xFFFFFFFFFFFFFFFFFFFFFFFFFFFFFFFFFFFFFFFF AND PUSH1 0x80 DUP2 PUSH20 0xFFFFFFFFFFFFFFFFFFFFFFFFFFFFFFFFFFFFFFFF AND DUP2 MSTORE POP POP PUSH2 0xB9 PUSH2 0xAE PUSH2 0x145 PUSH1 0x20 SHL PUSH1 0x20 SHR JUMP JUMPDEST PUSH2 0x14E PUSH1 0x20 SHL PUSH1 0x20 SHR JUMP JUMPDEST POP POP POP PUSH2 0x81D JUMP JUMPDEST PUSH2 0xD0 DUP3 PUSH2 0x1A6 PUSH1 0x20 SHL PUSH1 0x20 SHR JUMP JUMPDEST DUP2 PUSH20 0xFFFFFFFFFFFFFFFFFFFFFFFFFFFFFFFFFFFFFFFF AND PUSH32 0xBC7CD75A20EE27FD9ADEBAB32041F755214DBC6BFFA90CC0225B39DA2E5C2D3B PUSH1 0x40 MLOAD PUSH1 0x40 MLOAD DUP1 SWAP2 SUB SWAP1 LOG2 PUSH0 DUP2 MLOAD GT ISZERO PUSH2 0x132 JUMPI PUSH2 0x12C DUP3 DUP3 PUSH2 0x275 PUSH1 0x20 SHL PUSH1 0x20 SHR JUMP JUMPDEST POP PUSH2 0x141 JUMP JUMPDEST PUSH2 0x140 PUSH2 0x2FB PUSH1 0x20 SHL PUSH1 0x20 SHR JUMP JUMPDEST JUMPDEST POP POP JUMP JUMPDEST PUSH0 PUSH1 0x80 MLOAD SWAP1 POP SWAP1 JUMP JUMPDEST PUSH32 0x7E644D79422F17C01E4894B5F4F588D331EBFA28653D42AE832DC59E38C9798F PUSH2 0x17D PUSH2 0x337 PUSH1 0x20 SHL PUSH1 0x20 SHR JUMP JUMPDEST DUP3 PUSH1 0x40 MLOAD PUSH2 0x18C SWAP3 SWAP2 SWAP1 PUSH2 0x79C JUMP JUMPDEST PUSH1 0x40 MLOAD DUP1 SWAP2 SUB SWAP1 LOG1 PUSH2 0x1A3 DUP2 PUSH2 0x390 PUSH1 0x20 SHL PUSH1 0x20 SHR JUMP JUMPDEST POP JUMP JUMPDEST PUSH0 DUP2 PUSH20 0xFFFFFFFFFFFFFFFFFFFFFFFFFFFFFFFFFFFFFFFF AND EXTCODESIZE SUB PUSH2 0x201 JUMPI DUP1 PUSH1 0x40 MLOAD PUSH32 0x4C9C8CE300000000000000000000000000000000000000000000000000000000 DUP2 MSTORE PUSH1 0x4 ADD PUSH2 0x1F8 SWAP2 SWAP1 PUSH2 0x783 JUMP JUMPDEST PUSH1 0x40 MLOAD DUP1 SWAP2 SUB SWAP1 REVERT JUMPDEST DUP1 PUSH2 0x233 PUSH32 0x360894A13BA1A3210667C828492DB98DCA3E2076CC3735A920A3CA505D382BBC PUSH0 SHL PUSH2 0x474 PUSH1 0x20 SHL PUSH1 0x20 SHR JUMP JUMPDEST PUSH0 ADD PUSH0 PUSH2 0x100 EXP DUP2 SLOAD DUP2 PUSH20 0xFFFFFFFFFFFFFFFFFFFFFFFFFFFFFFFFFFFFFFFF MUL NOT AND SWAP1 DUP4 PUSH20 0xFFFFFFFFFFFFFFFFFFFFFFFFFFFFFFFFFFFFFFFF AND MUL OR SWAP1 SSTORE POP POP JUMP JUMPDEST PUSH1 0x60 PUSH0 DUP1 DUP5 PUSH20 0xFFFFFFFFFFFFFFFFFFFFFFFFFFFFFFFFFFFFFFFF AND DUP5 PUSH1 0x40 MLOAD PUSH2 0x29E SWAP2 SWAP1 PUSH2 0x807 JUMP JUMPDEST PUSH0 PUSH1 0x40 MLOAD DUP1 DUP4 SUB DUP2 DUP6 GAS DELEGATECALL SWAP2 POP POP RETURNDATASIZE DUP1 PUSH0 DUP2 EQ PUSH2 0x2D6 JUMPI PUSH1 0x40 MLOAD SWAP2 POP PUSH1 0x1F NOT PUSH1 0x3F RETURNDATASIZE ADD AND DUP3 ADD PUSH1 0x40 MSTORE RETURNDATASIZE DUP3 MSTORE RETURNDATASIZE PUSH0 PUSH1 0x20 DUP5 ADD RETURNDATACOPY PUSH2 0x2DB JUMP JUMPDEST PUSH1 0x60 SWAP2 POP JUMPDEST POP SWAP2 POP SWAP2 POP PUSH2 0x2F1 DUP6 DUP4 DUP4 PUSH2 0x47D PUSH1 0x20 SHL PUSH1 0x20 SHR JUMP JUMPDEST SWAP3 POP POP POP SWAP3 SWAP2 POP POP JUMP JUMPDEST PUSH0 CALLVALUE GT ISZERO PUSH2 0x335 JUMPI PUSH1 0x40 MLOAD PUSH32 0xB398979F00000000000000000000000000000000000000000000000000000000 DUP2 MSTORE PUSH1 0x4 ADD PUSH1 0x40 MLOAD DUP1 SWAP2 SUB SWAP1 REVERT JUMPDEST JUMP JUMPDEST PUSH0 PUSH2 0x369 PUSH32 0xB53127684A568B3173AE13B9F8A6016E243E63B6E8EE1178D6A717850B5D6103 PUSH0 SHL PUSH2 0x474 PUSH1 0x20 SHL PUSH1 0x20 SHR JUMP JUMPDEST PUSH0 ADD PUSH0 SWAP1 SLOAD SWAP1 PUSH2 0x100 EXP SWAP1 DIV PUSH20 0xFFFFFFFFFFFFFFFFFFFFFFFFFFFFFFFFFFFFFFFF AND SWAP1 POP SWAP1 JUMP JUMPDEST PUSH0 PUSH20 0xFFFFFFFFFFFFFFFFFFFFFFFFFFFFFFFFFFFFFFFF AND DUP2 PUSH20 0xFFFFFFFFFFFFFFFFFFFFFFFFFFFFFFFFFFFFFFFF AND SUB PUSH2 0x400 JUMPI PUSH0 PUSH1 0x40 MLOAD PUSH32 0x62E77BA200000000000000000000000000000000000000000000000000000000 DUP2 MSTORE PUSH1 0x4 ADD PUSH2 0x3F7 SWAP2 SWAP1 PUSH2 0x783 JUMP JUMPDEST PUSH1 0x40 MLOAD DUP1 SWAP2 SUB SWAP1 REVERT JUMPDEST DUP1 PUSH2 0x432 PUSH32 0xB53127684A568B3173AE13B9F8A6016E243E63B6E8EE1178D6A717850B5D6103 PUSH0 SHL PUSH2 0x474 PUSH1 0x20 SHL PUSH1 0x20 SHR JUMP JUMPDEST PUSH0 ADD PUSH0 PUSH2 0x100 EXP DUP2 SLOAD DUP2 PUSH20 0xFFFFFFFFFFFFFFFFFFFFFFFFFFFFFFFFFFFFFFFF MUL NOT AND SWAP1 DUP4 PUSH20 0xFFFFFFFFFFFFFFFFFFFFFFFFFFFFFFFFFFFFFFFF AND MUL OR SWAP1 SSTORE POP POP JUMP JUMPDEST PUSH0 DUP2 SWAP1 POP SWAP2 SWAP1 POP JUMP JUMPDEST PUSH1 0x60 DUP3 PUSH2 0x498 JUMPI PUSH2 0x493 DUP3 PUSH2 0x510 PUSH1 0x20 SHL PUSH1 0x20 SHR JUMP JUMPDEST PUSH2 0x508 JUMP JUMPDEST PUSH0 DUP3 MLOAD EQ DUP1 ISZERO PUSH2 0x4BE JUMPI POP PUSH0 DUP5 PUSH20 0xFFFFFFFFFFFFFFFFFFFFFFFFFFFFFFFFFFFFFFFF AND EXTCODESIZE EQ JUMPDEST ISZERO PUSH2 0x500 JUMPI DUP4 PUSH1 0x40 MLOAD PUSH32 0x9996B31500000000000000000000000000000000000000000000000000000000 DUP2 MSTORE PUSH1 0x4 ADD PUSH2 0x4F7 SWAP2 SWAP1 PUSH2 0x783 JUMP JUMPDEST PUSH1 0x40 MLOAD DUP1 SWAP2 SUB SWAP1 REVERT JUMPDEST DUP2 SWAP1 POP PUSH2 0x509 JUMP JUMPDEST JUMPDEST SWAP4 SWAP3 POP POP POP JUMP JUMPDEST PUSH0 DUP2 MLOAD GT ISZERO PUSH2 0x522 JUMPI DUP1 MLOAD DUP1 DUP3 PUSH1 0x20 ADD REVERT JUMPDEST PUSH1 0x40 MLOAD PUSH32 0xD6BDA27500000000000000000000000000000000000000000000000000000000 DUP2 MSTORE PUSH1 0x4 ADD PUSH1 0x40 MLOAD DUP1 SWAP2 SUB SWAP1 REVERT JUMPDEST PUSH2 0x9C6 DUP1 PUSH2 0x100E DUP4 CODECOPY ADD SWAP1 JUMP JUMPDEST PUSH0 PUSH1 0x40 MLOAD SWAP1 POP SWAP1 JUMP JUMPDEST PUSH0 DUP1 REVERT JUMPDEST PUSH0 DUP1 REVERT JUMPDEST PUSH0 PUSH20 0xFFFFFFFFFFFFFFFFFFFFFFFFFFFFFFFFFFFFFFFF DUP3 AND SWAP1 POP SWAP2 SWAP1 POP JUMP JUMPDEST PUSH0 PUSH2 0x59B DUP3 PUSH2 0x572 JUMP JUMPDEST SWAP1 POP SWAP2 SWAP1 POP JUMP JUMPDEST PUSH2 0x5AB DUP2 PUSH2 0x591 JUMP JUMPDEST DUP2 EQ PUSH2 0x5B5 JUMPI PUSH0 DUP1 REVERT JUMPDEST POP JUMP JUMPDEST PUSH0 DUP2 MLOAD SWAP1 POP PUSH2 0x5C6 DUP2 PUSH2 0x5A2 JUMP JUMPDEST SWAP3 SWAP2 POP POP JUMP JUMPDEST PUSH0 DUP1 REVERT JUMPDEST PUSH0 DUP1 REVERT JUMPDEST PUSH0 PUSH1 0x1F NOT PUSH1 0x1F DUP4 ADD AND SWAP1 POP SWAP2 SWAP1 POP JUMP JUMPDEST PUSH32 0x4E487B7100000000000000000000000000000000000000000000000000000000 PUSH0 MSTORE PUSH1 0x41 PUSH1 0x4 MSTORE PUSH1 0x24 PUSH0 REVERT JUMPDEST PUSH2 0x61A DUP3 PUSH2 0x5D4 JUMP JUMPDEST DUP2 ADD DUP2 DUP2 LT PUSH8 0xFFFFFFFFFFFFFFFF DUP3 GT OR ISZERO PUSH2 0x639 JUMPI PUSH2 0x638 PUSH2 0x5E4 JUMP JUMPDEST JUMPDEST DUP1 PUSH1 0x40 MSTORE POP POP POP JUMP JUMPDEST PUSH0 PUSH2 0x64B PUSH2 0x561 JUMP JUMPDEST SWAP1 POP PUSH2 0x657 DUP3 DUP3 PUSH2 0x611 JUMP JUMPDEST SWAP2 SWAP1 POP JUMP JUMPDEST PUSH0 PUSH8 0xFFFFFFFFFFFFFFFF DUP3 GT ISZERO PUSH2 0x676 JUMPI PUSH2 0x675 PUSH2 0x5E4 JUMP JUMPDEST JUMPDEST PUSH2 0x67F DUP3 PUSH2 0x5D4 JUMP JUMPDEST SWAP1 POP PUSH1 0x20 DUP2 ADD SWAP1 POP SWAP2 SWAP1 POP JUMP JUMPDEST DUP3 DUP2 DUP4 MCOPY PUSH0 DUP4 DUP4 ADD MSTORE POP POP POP JUMP JUMPDEST PUSH0 PUSH2 0x6AC PUSH2 0x6A7 DUP5 PUSH2 0x65C JUMP JUMPDEST PUSH2 0x642 JUMP JUMPDEST SWAP1 POP DUP3 DUP2 MSTORE PUSH1 0x20 DUP2 ADD DUP5 DUP5 DUP5 ADD GT ISZERO PUSH2 0x6C8 JUMPI PUSH2 0x6C7 PUSH2 0x5D0 JUMP JUMPDEST JUMPDEST PUSH2 0x6D3 DUP5 DUP3 DUP6 PUSH2 0x68C JUMP JUMPDEST POP SWAP4 SWAP3 POP POP POP JUMP JUMPDEST PUSH0 DUP3 PUSH1 0x1F DUP4 ADD SLT PUSH2 0x6EF JUMPI PUSH2 0x6EE PUSH2 0x5CC JUMP JUMPDEST JUMPDEST DUP2 MLOAD PUSH2 0x6FF DUP5 DUP3 PUSH1 0x20 DUP7 ADD PUSH2 0x69A JUMP JUMPDEST SWAP2 POP POP SWAP3 SWAP2 POP POP JUMP JUMPDEST PUSH0 DUP1 PUSH0 PUSH1 0x60 DUP5 DUP7 SUB SLT ISZERO PUSH2 0x71F JUMPI PUSH2 0x71E PUSH2 0x56A JUMP JUMPDEST JUMPDEST PUSH0 PUSH2 0x72C DUP7 DUP3 DUP8 ADD PUSH2 0x5B8 JUMP JUMPDEST SWAP4 POP POP PUSH1 0x20 PUSH2 0x73D DUP7 DUP3 DUP8 ADD PUSH2 0x5B8 JUMP JUMPDEST SWAP3 POP POP PUSH1 0x40 DUP5 ADD MLOAD PUSH8 0xFFFFFFFFFFFFFFFF DUP2 GT ISZERO PUSH2 0x75E JUMPI PUSH2 0x75D PUSH2 0x56E JUMP JUMPDEST JUMPDEST PUSH2 0x76A DUP7 DUP3 DUP8 ADD PUSH2 0x6DB JUMP JUMPDEST SWAP2 POP POP SWAP3 POP SWAP3 POP SWAP3 JUMP JUMPDEST PUSH2 0x77D DUP2 PUSH2 0x591 JUMP JUMPDEST DUP3 MSTORE POP POP JUMP JUMPDEST PUSH0 PUSH1 0x20 DUP3 ADD SWAP1 POP PUSH2 0x796 PUSH0 DUP4 ADD DUP5 PUSH2 0x774 JUMP JUMPDEST SWAP3 SWAP2 POP POP JUMP JUMPDEST PUSH0 PUSH1 0x40 DUP3 ADD SWAP1 POP PUSH2 0x7AF PUSH0 DUP4 ADD DUP6 PUSH2 0x774 JUMP JUMPDEST PUSH2 0x7BC PUSH1 0x20 DUP4 ADD DUP5 PUSH2 0x774 JUMP JUMPDEST SWAP4 SWAP3 POP POP POP JUMP JUMPDEST PUSH0 DUP2 MLOAD SWAP1 POP SWAP2 SWAP1 POP JUMP JUMPDEST PUSH0 DUP2 SWAP1 POP SWAP3 SWAP2 POP POP JUMP JUMPDEST PUSH0 PUSH2 0x7E1 DUP3 PUSH2 0x7C3 JUMP JUMPDEST PUSH2 0x7EB DUP2 DUP6 PUSH2 0x7CD JUMP JUMPDEST SWAP4 POP PUSH2 0x7FB DUP2 DUP6 PUSH1 0x20 DUP7 ADD PUSH2 0x68C JUMP JUMPDEST DUP1 DUP5 ADD SWAP2 POP POP SWAP3 SWAP2 POP POP JUMP JUMPDEST PUSH0 PUSH2 0x812 DUP3 DUP5 PUSH2 0x7D7 JUMP JUMPDEST SWAP2 POP DUP2 SWAP1 POP SWAP3 SWAP2 POP POP JUMP JUMPDEST PUSH1 0x80 MLOAD PUSH2 0x7D9 PUSH2 0x835 PUSH0 CODECOPY PUSH0 PUSH2 0x104 ADD MSTORE PUSH2 0x7D9 PUSH0 RETURN INVALID PUSH1 0x80 PUSH1 0x40 MSTORE PUSH2 0xC PUSH2 0xE JUMP JUMPDEST STOP JUMPDEST PUSH2 0x16 PUSH2 0x101 JUMP JUMPDEST PUSH20 0xFFFFFFFFFFFFFFFFFFFFFFFFFFFFFFFFFFFFFFFF AND CALLER PUSH20 0xFFFFFFFFFFFFFFFFFFFFFFFFFFFFFFFFFFFFFFFF AND SUB PUSH2 0xF6 JUMPI PUSH4 0x4F1EF286 PUSH1 0xE0 SHL PUSH28 0xFFFFFFFFFFFFFFFFFFFFFFFFFFFFFFFFFFFFFFFFFFFFFFFFFFFFFFFF NOT AND PUSH0 CALLDATALOAD PUSH32 0xFFFFFFFF00000000000000000000000000000000000000000000000000000000 AND PUSH28 0xFFFFFFFFFFFFFFFFFFFFFFFFFFFFFFFFFFFFFFFFFFFFFFFFFFFFFFFF NOT AND EQ PUSH2 0xE9 JUMPI PUSH1 0x40 MLOAD PUSH32 0xD2B576EC00000000000000000000000000000000000000000000000000000000 DUP2 MSTORE PUSH1 0x4 ADD PUSH1 0x40 MLOAD DUP1 SWAP2 SUB SWAP1 REVERT JUMPDEST PUSH2 0xF1 PUSH2 0x128 JUMP JUMPDEST PUSH2 0xFF JUMP JUMPDEST PUSH2 0xFE PUSH2 0x15C JUMP JUMPDEST JUMPDEST JUMP JUMPDEST PUSH0 PUSH32 0x0 SWAP1 POP SWAP1 JUMP JUMPDEST PUSH0 DUP1 PUSH0 CALLDATASIZE PUSH1 0x4 SWAP1 DUP1 SWAP3 PUSH2 0x13D SWAP4 SWAP3 SWAP2 SWAP1 PUSH2 0x4D0 JUMP JUMPDEST DUP2 ADD SWAP1 PUSH2 0x14A SWAP2 SWAP1 PUSH2 0x6A8 JUMP JUMPDEST SWAP2 POP SWAP2 POP PUSH2 0x158 DUP3 DUP3 PUSH2 0x16E JUMP JUMPDEST POP POP JUMP JUMPDEST PUSH2 0x16C PUSH2 0x167 PUSH2 0x1E0 JUMP JUMPDEST PUSH2 0x1EE JUMP JUMPDEST JUMP JUMPDEST PUSH2 0x177 DUP3 PUSH2 0x20D JUMP JUMPDEST DUP2 PUSH20 0xFFFFFFFFFFFFFFFFFFFFFFFFFFFFFFFFFFFFFFFF AND PUSH32 0xBC7CD75A20EE27FD9ADEBAB32041F755214DBC6BFFA90CC0225B39DA2E5C2D3B PUSH1 0x40 MLOAD PUSH1 0x40 MLOAD DUP1 SWAP2 SUB SWAP1 LOG2 PUSH0 DUP2 MLOAD GT ISZERO PUSH2 0x1D3 JUMPI PUSH2 0x1CD DUP3 DUP3 PUSH2 0x2D6 JUMP JUMPDEST POP PUSH2 0x1DC JUMP JUMPDEST PUSH2 0x1DB PUSH2 0x356 JUMP JUMPDEST JUMPDEST POP POP JUMP JUMPDEST PUSH0 PUSH2 0x1E9 PUSH2 0x392 JUMP JUMPDEST SWAP1 POP SWAP1 JUMP JUMPDEST CALLDATASIZE PUSH0 DUP1 CALLDATACOPY PUSH0 DUP1 CALLDATASIZE PUSH0 DUP5 GAS DELEGATECALL RETURNDATASIZE PUSH0 DUP1 RETURNDATACOPY DUP1 PUSH0 DUP2 EQ PUSH2 0x209 JUMPI RETURNDATASIZE PUSH0 RETURN JUMPDEST RETURNDATASIZE PUSH0 REVERT JUMPDEST PUSH0 DUP2 PUSH20 0xFFFFFFFFFFFFFFFFFFFFFFFFFFFFFFFFFFFFFFFF AND EXTCODESIZE SUB PUSH2 0x268 JUMPI DUP1 PUSH1 0x40 MLOAD PUSH32 0x4C9C8CE300000000000000000000000000000000000000000000000000000000 DUP2 MSTORE PUSH1 0x4 ADD PUSH2 0x25F SWAP2 SWAP1 PUSH2 0x722 JUMP JUMPDEST PUSH1 0x40 MLOAD DUP1 SWAP2 SUB SWAP1 REVERT JUMPDEST DUP1 PUSH2 0x294 PUSH32 0x360894A13BA1A3210667C828492DB98DCA3E2076CC3735A920A3CA505D382BBC PUSH0 SHL PUSH2 0x3E5 JUMP JUMPDEST PUSH0 ADD PUSH0 PUSH2 0x100 EXP DUP2 SLOAD DUP2 PUSH20 0xFFFFFFFFFFFFFFFFFFFFFFFFFFFFFFFFFFFFFFFF MUL NOT AND SWAP1 DUP4 PUSH20 0xFFFFFFFFFFFFFFFFFFFFFFFFFFFFFFFFFFFFFFFF AND MUL OR SWAP1 SSTORE POP POP JUMP JUMPDEST PUSH1 0x60 PUSH0 DUP1 DUP5 PUSH20 0xFFFFFFFFFFFFFFFFFFFFFFFFFFFFFFFFFFFFFFFF AND DUP5 PUSH1 0x40 MLOAD PUSH2 0x2FF SWAP2 SWAP1 PUSH2 0x78D JUMP JUMPDEST PUSH0 PUSH1 0x40 MLOAD DUP1 DUP4 SUB DUP2 DUP6 GAS DELEGATECALL SWAP2 POP POP RETURNDATASIZE DUP1 PUSH0 DUP2 EQ PUSH2 0x337 JUMPI PUSH1 0x40 MLOAD SWAP2 POP PUSH1 0x1F NOT PUSH1 0x3F RETURNDATASIZE ADD AND DUP3 ADD PUSH1 0x40 MSTORE RETURNDATASIZE DUP3 MSTORE RETURNDATASIZE PUSH0 PUSH1 0x20 DUP5 ADD RETURNDATACOPY PUSH2 0x33C JUMP JUMPDEST PUSH1 0x60 SWAP2 POP JUMPDEST POP SWAP2 POP SWAP2 POP PUSH2 0x34C DUP6 DUP4 DUP4 PUSH2 0x3EE JUMP JUMPDEST SWAP3 POP POP POP SWAP3 SWAP2 POP POP JUMP JUMPDEST PUSH0 CALLVALUE GT ISZERO PUSH2 0x390 JUMPI PUSH1 0x40 MLOAD PUSH32 0xB398979F00000000000000000000000000000000000000000000000000000000 DUP2 MSTORE PUSH1 0x4 ADD PUSH1 0x40 MLOAD DUP1 SWAP2 SUB SWAP1 REVERT JUMPDEST JUMP JUMPDEST PUSH0 PUSH2 0x3BE PUSH32 0x360894A13BA1A3210667C828492DB98DCA3E2076CC3735A920A3CA505D382BBC PUSH0 SHL PUSH2 0x3E5 JUMP JUMPDEST PUSH0 ADD PUSH0 SWAP1 SLOAD SWAP1 PUSH2 0x100 EXP SWAP1 DIV PUSH20 0xFFFFFFFFFFFFFFFFFFFFFFFFFFFFFFFFFFFFFFFF AND SWAP1 POP SWAP1 JUMP JUMPDEST PUSH0 DUP2 SWAP1 POP SWAP2 SWAP1 POP JUMP JUMPDEST PUSH1 0x60 DUP3 PUSH2 0x403 JUMPI PUSH2 0x3FE DUP3 PUSH2 0x47B JUMP JUMPDEST PUSH2 0x473 JUMP JUMPDEST PUSH0 DUP3 MLOAD EQ DUP1 ISZERO PUSH2 0x429 JUMPI POP PUSH0 DUP5 PUSH20 0xFFFFFFFFFFFFFFFFFFFFFFFFFFFFFFFFFFFFFFFF AND EXTCODESIZE EQ JUMPDEST ISZERO PUSH2 0x46B JUMPI DUP4 PUSH1 0x40 MLOAD PUSH32 0x9996B31500000000000000000000000000000000000000000000000000000000 DUP2 MSTORE PUSH1 0x4 ADD PUSH2 0x462 SWAP2 SWAP1 PUSH2 0x722 JUMP JUMPDEST PUSH1 0x40 MLOAD DUP1 SWAP2 SUB SWAP1 REVERT JUMPDEST DUP2 SWAP1 POP PUSH2 0x474 JUMP JUMPDEST JUMPDEST SWAP4 SWAP3 POP POP POP JUMP JUMPDEST PUSH0 DUP2 MLOAD GT ISZERO PUSH2 0x48D JUMPI DUP1 MLOAD DUP1 DUP3 PUSH1 0x20 ADD REVERT JUMPDEST PUSH1 0x40 MLOAD PUSH32 0xD6BDA27500000000000000000000000000000000000000000000000000000000 DUP2 MSTORE PUSH1 0x4 ADD PUSH1 0x40 MLOAD DUP1 SWAP2 SUB SWAP1 REVERT JUMPDEST PUSH0 PUSH1 0x40 MLOAD SWAP1 POP SWAP1 JUMP JUMPDEST PUSH0 DUP1 REVERT JUMPDEST PUSH0 DUP1 REVERT JUMPDEST PUSH0 DUP1 DUP6 DUP6 GT ISZERO PUSH2 0x4E3 JUMPI PUSH2 0x4E2 PUSH2 0x4C8 JUMP JUMPDEST JUMPDEST DUP4 DUP7 GT ISZERO PUSH2 0x4F4 JUMPI PUSH2 0x4F3 PUSH2 0x4CC JUMP JUMPDEST JUMPDEST PUSH1 0x1 DUP6 MUL DUP4 ADD SWAP2 POP DUP5 DUP7 SUB SWAP1 POP SWAP5 POP SWAP5 SWAP3 POP POP POP JUMP JUMPDEST PUSH0 DUP1 REVERT JUMPDEST PUSH0 DUP1 REVERT JUMPDEST PUSH0 PUSH20 0xFFFFFFFFFFFFFFFFFFFFFFFFFFFFFFFFFFFFFFFF DUP3 AND SWAP1 POP SWAP2 SWAP1 POP JUMP JUMPDEST PUSH0 PUSH2 0x53B DUP3 PUSH2 0x512 JUMP JUMPDEST SWAP1 POP SWAP2 SWAP1 POP JUMP JUMPDEST PUSH2 0x54B DUP2 PUSH2 0x531 JUMP JUMPDEST DUP2 EQ PUSH2 0x555 JUMPI PUSH0 DUP1 REVERT JUMPDEST POP JUMP JUMPDEST PUSH0 DUP2 CALLDATALOAD SWAP1 POP PUSH2 0x566 DUP2 PUSH2 0x542 JUMP JUMPDEST SWAP3 SWAP2 POP POP JUMP JUMPDEST PUSH0 DUP1 REVERT JUMPDEST PUSH0 DUP1 REVERT JUMPDEST PUSH0 PUSH1 0x1F NOT PUSH1 0x1F DUP4 ADD AND SWAP1 POP SWAP2 SWAP1 POP JUMP JUMPDEST PUSH32 0x4E487B7100000000000000000000000000000000000000000000000000000000 PUSH0 MSTORE PUSH1 0x41 PUSH1 0x4 MSTORE PUSH1 0x24 PUSH0 REVERT JUMPDEST PUSH2 0x5BA DUP3 PUSH2 0x574 JUMP JUMPDEST DUP2 ADD DUP2 DUP2 LT PUSH8 0xFFFFFFFFFFFFFFFF DUP3 GT OR ISZERO PUSH2 0x5D9 JUMPI PUSH2 0x5D8 PUSH2 0x584 JUMP JUMPDEST JUMPDEST DUP1 PUSH1 0x40 MSTORE POP POP POP JUMP JUMPDEST PUSH0 PUSH2 0x5EB PUSH2 0x4BF JUMP JUMPDEST SWAP1 POP PUSH2 0x5F7 DUP3 DUP3 PUSH2 0x5B1 JUMP JUMPDEST SWAP2 SWAP1 POP JUMP JUMPDEST PUSH0 PUSH8 0xFFFFFFFFFFFFFFFF DUP3 GT ISZERO PUSH2 0x616 JUMPI PUSH2 0x615 PUSH2 0x584 JUMP JUMPDEST JUMPDEST PUSH2 0x61F DUP3 PUSH2 0x574 JUMP JUMPDEST SWAP1 POP PUSH1 0x20 DUP2 ADD SWAP1 POP SWAP2 SWAP1 POP JUMP JUMPDEST DUP3 DUP2 DUP4 CALLDATACOPY PUSH0 DUP4 DUP4 ADD MSTORE POP POP POP JUMP JUMPDEST PUSH0 PUSH2 0x64C PUSH2 0x647 DUP5 PUSH2 0x5FC JUMP JUMPDEST PUSH2 0x5E2 JUMP JUMPDEST SWAP1 POP DUP3 DUP2 MSTORE PUSH1 0x20 DUP2 ADD DUP5 DUP5 DUP5 ADD GT ISZERO PUSH2 0x668 JUMPI PUSH2 0x667 PUSH2 0x570 JUMP JUMPDEST JUMPDEST PUSH2 0x673 DUP5 DUP3 DUP6 PUSH2 0x62C JUMP JUMPDEST POP SWAP4 SWAP3 POP POP POP JUMP JUMPDEST PUSH0 DUP3 PUSH1 0x1F DUP4 ADD SLT PUSH2 0x68F JUMPI PUSH2 0x68E PUSH2 0x56C JUMP JUMPDEST JUMPDEST DUP2 CALLDATALOAD PUSH2 0x69F DUP5 DUP3 PUSH1 0x20 DUP7 ADD PUSH2 0x63A JUMP JUMPDEST SWAP2 POP POP SWAP3 SWAP2 POP POP JUMP JUMPDEST PUSH0 DUP1 PUSH1 0x40 DUP4 DUP6 SUB SLT ISZERO PUSH2 0x6BE JUMPI PUSH2 0x6BD PUSH2 0x50A JUMP JUMPDEST JUMPDEST PUSH0 PUSH2 0x6CB DUP6 DUP3 DUP7 ADD PUSH2 0x558 JUMP JUMPDEST SWAP3 POP POP PUSH1 0x20 DUP4 ADD CALLDATALOAD PUSH8 0xFFFFFFFFFFFFFFFF DUP2 GT ISZERO PUSH2 0x6EC JUMPI PUSH2 0x6EB PUSH2 0x50E JUMP JUMPDEST JUMPDEST PUSH2 0x6F8 DUP6 DUP3 DUP7 ADD PUSH2 0x67B JUMP JUMPDEST SWAP2 POP POP SWAP3 POP SWAP3 SWAP1 POP JUMP JUMPDEST PUSH0 PUSH2 0x70C DUP3 PUSH2 0x512 JUMP JUMPDEST SWAP1 POP SWAP2 SWAP1 POP JUMP JUMPDEST PUSH2 0x71C DUP2 PUSH2 0x702 JUMP JUMPDEST DUP3 MSTORE POP POP JUMP JUMPDEST PUSH0 PUSH1 0x20 DUP3 ADD SWAP1 POP PUSH2 0x735 PUSH0 DUP4 ADD DUP5 PUSH2 0x713 JUMP JUMPDEST SWAP3 SWAP2 POP POP JUMP JUMPDEST PUSH0 DUP2 MLOAD SWAP1 POP SWAP2 SWAP1 POP JUMP JUMPDEST PUSH0 DUP2 SWAP1 POP SWAP3 SWAP2 POP POP JUMP JUMPDEST DUP3 DUP2 DUP4 MCOPY PUSH0 DUP4 DUP4 ADD MSTORE POP POP POP JUMP JUMPDEST PUSH0 PUSH2 0x767 DUP3 PUSH2 0x73B JUMP JUMPDEST PUSH2 0x771 DUP2 DUP6 PUSH2 0x745 JUMP JUMPDEST SWAP4 POP PUSH2 0x781 DUP2 DUP6 PUSH1 0x20 DUP7 ADD PUSH2 0x74F JUMP JUMPDEST DUP1 DUP5 ADD SWAP2 POP POP SWAP3 SWAP2 POP POP JUMP JUMPDEST PUSH0 PUSH2 0x798 DUP3 DUP5 PUSH2 0x75D JUMP JUMPDEST SWAP2 POP DUP2 SWAP1 POP SWAP3 SWAP2 POP POP JUMP INVALID LOG2 PUSH5 0x6970667358 0x22 SLT KECCAK256 0xD0 PUSH16 0xAF38BEB89CD82C78EC4FF914E468DBCA 0xB2 PUSH15 0x76E8A2A28270D6E4D2652E564736F PUSH13 0x634300081A0033608060405234 DUP1 ISZERO PUSH2 0xF JUMPI PUSH0 DUP1 REVERT JUMPDEST POP PUSH1 0x40 MLOAD PUSH2 0x9C6 CODESIZE SUB DUP1 PUSH2 0x9C6 DUP4 CODECOPY DUP2 DUP2 ADD PUSH1 0x40 MSTORE DUP2 ADD SWAP1 PUSH2 0x31 SWAP2 SWAP1 PUSH2 0x1D7 JUMP JUMPDEST DUP1 PUSH0 PUSH20 0xFFFFFFFFFFFFFFFFFFFFFFFFFFFFFFFFFFFFFFFF AND DUP2 PUSH20 0xFFFFFFFFFFFFFFFFFFFFFFFFFFFFFFFFFFFFFFFF AND SUB PUSH2 0xA2 JUMPI PUSH0 PUSH1 0x40 MLOAD PUSH32 0x1E4FBDF700000000000000000000000000000000000000000000000000000000 DUP2 MSTORE PUSH1 0x4 ADD PUSH2 0x99 SWAP2 SWAP1 PUSH2 0x211 JUMP JUMPDEST PUSH1 0x40 MLOAD DUP1 SWAP2 SUB SWAP1 REVERT JUMPDEST PUSH2 0xB1 DUP2 PUSH2 0xB8 PUSH1 0x20 SHL PUSH1 0x20 SHR JUMP JUMPDEST POP POP PUSH2 0x22A JUMP JUMPDEST PUSH0 DUP1 PUSH0 SWAP1 SLOAD SWAP1 PUSH2 0x100 EXP SWAP1 DIV PUSH20 0xFFFFFFFFFFFFFFFFFFFFFFFFFFFFFFFFFFFFFFFF AND SWAP1 POP DUP2 PUSH0 DUP1 PUSH2 0x100 EXP DUP2 SLOAD DUP2 PUSH20 0xFFFFFFFFFFFFFFFFFFFFFFFFFFFFFFFFFFFFFFFF MUL NOT AND SWAP1 DUP4 PUSH20 0xFFFFFFFFFFFFFFFFFFFFFFFFFFFFFFFFFFFFFFFF AND MUL OR SWAP1 SSTORE POP DUP2 PUSH20 0xFFFFFFFFFFFFFFFFFFFFFFFFFFFFFFFFFFFFFFFF AND DUP2 PUSH20 0xFFFFFFFFFFFFFFFFFFFFFFFFFFFFFFFFFFFFFFFF AND PUSH32 0x8BE0079C531659141344CD1FD0A4F28419497F9722A3DAAFE3B4186F6B6457E0 PUSH1 0x40 MLOAD PUSH1 0x40 MLOAD DUP1 SWAP2 SUB SWAP1 LOG3 POP POP JUMP JUMPDEST PUSH0 DUP1 REVERT JUMPDEST PUSH0 PUSH20 0xFFFFFFFFFFFFFFFFFFFFFFFFFFFFFFFFFFFFFFFF DUP3 AND SWAP1 POP SWAP2 SWAP1 POP JUMP JUMPDEST PUSH0 PUSH2 0x1A6 DUP3 PUSH2 0x17D JUMP JUMPDEST SWAP1 POP SWAP2 SWAP1 POP JUMP JUMPDEST PUSH2 0x1B6 DUP2 PUSH2 0x19C JUMP JUMPDEST DUP2 EQ PUSH2 0x1C0 JUMPI PUSH0 DUP1 REVERT JUMPDEST POP JUMP JUMPDEST PUSH0 DUP2 MLOAD SWAP1 POP PUSH2 0x1D1 DUP2 PUSH2 0x1AD JUMP JUMPDEST SWAP3 SWAP2 POP POP JUMP JUMPDEST PUSH0 PUSH1 0x20 DUP3 DUP5 SUB SLT ISZERO PUSH2 0x1EC JUMPI PUSH2 0x1EB PUSH2 0x179 JUMP JUMPDEST JUMPDEST PUSH0 PUSH2 0x1F9 DUP5 DUP3 DUP6 ADD PUSH2 0x1C3 JUMP JUMPDEST SWAP2 POP POP SWAP3 SWAP2 POP POP JUMP JUMPDEST PUSH2 0x20B DUP2 PUSH2 0x19C JUMP JUMPDEST DUP3 MSTORE POP POP JUMP JUMPDEST PUSH0 PUSH1 0x20 DUP3 ADD SWAP1 POP PUSH2 0x224 PUSH0 DUP4 ADD DUP5 PUSH2 0x202 JUMP JUMPDEST SWAP3 SWAP2 POP POP JUMP JUMPDEST PUSH2 0x78F DUP1 PUSH2 0x237 PUSH0 CODECOPY PUSH0 RETURN INVALID PUSH1 0x80 PUSH1 0x40 MSTORE PUSH1 0x4 CALLDATASIZE LT PUSH2 0x49 JUMPI PUSH0 CALLDATALOAD PUSH1 0xE0 SHR DUP1 PUSH4 0x715018A6 EQ PUSH2 0x4D JUMPI DUP1 PUSH4 0x8DA5CB5B EQ PUSH2 0x63 JUMPI DUP1 PUSH4 0x9623609D EQ PUSH2 0x8D JUMPI DUP1 PUSH4 0xAD3CB1CC EQ PUSH2 0xA9 JUMPI DUP1 PUSH4 0xF2FDE38B EQ PUSH2 0xD3 JUMPI JUMPDEST PUSH0 DUP1 REVERT JUMPDEST CALLVALUE DUP1 ISZERO PUSH2 0x58 JUMPI PUSH0 DUP1 REVERT JUMPDEST POP PUSH2 0x61 PUSH2 0xFB JUMP JUMPDEST STOP JUMPDEST CALLVALUE DUP1 ISZERO PUSH2 0x6E JUMPI PUSH0 DUP1 REVERT JUMPDEST POP PUSH2 0x77 PUSH2 0x10E JUMP JUMPDEST PUSH1 0x40 MLOAD PUSH2 0x84 SWAP2 SWAP1 PUSH2 0x3F7 JUMP JUMPDEST PUSH1 0x40 MLOAD DUP1 SWAP2 SUB SWAP1 RETURN JUMPDEST PUSH2 0xA7 PUSH1 0x4 DUP1 CALLDATASIZE SUB DUP2 ADD SWAP1 PUSH2 0xA2 SWAP2 SWAP1 PUSH2 0x5C2 JUMP JUMPDEST PUSH2 0x135 JUMP JUMPDEST STOP JUMPDEST CALLVALUE DUP1 ISZERO PUSH2 0xB4 JUMPI PUSH0 DUP1 REVERT JUMPDEST POP PUSH2 0xBD PUSH2 0x1AC JUMP JUMPDEST PUSH1 0x40 MLOAD PUSH2 0xCA SWAP2 SWAP1 PUSH2 0x68E JUMP JUMPDEST PUSH1 0x40 MLOAD DUP1 SWAP2 SUB SWAP1 RETURN JUMPDEST CALLVALUE DUP1 ISZERO PUSH2 0xDE JUMPI PUSH0 DUP1 REVERT JUMPDEST POP PUSH2 0xF9 PUSH1 0x4 DUP1 CALLDATASIZE SUB DUP2 ADD SWAP1 PUSH2 0xF4 SWAP2 SWAP1 PUSH2 0x6AE JUMP JUMPDEST PUSH2 0x1E5 JUMP JUMPDEST STOP JUMPDEST PUSH2 0x103 PUSH2 0x269 JUMP JUMPDEST PUSH2 0x10C PUSH0 PUSH2 0x2F0 JUMP JUMPDEST JUMP JUMPDEST PUSH0 DUP1 PUSH0 SWAP1 SLOAD SWAP1 PUSH2 0x100 EXP SWAP1 DIV PUSH20 0xFFFFFFFFFFFFFFFFFFFFFFFFFFFFFFFFFFFFFFFF AND SWAP1 POP SWAP1 JUMP JUMPDEST PUSH2 0x13D PUSH2 0x269 JUMP JUMPDEST DUP3 PUSH20 0xFFFFFFFFFFFFFFFFFFFFFFFFFFFFFFFFFFFFFFFF AND PUSH4 0x4F1EF286 CALLVALUE DUP5 DUP5 PUSH1 0x40 MLOAD DUP5 PUSH4 0xFFFFFFFF AND PUSH1 0xE0 SHL DUP2 MSTORE PUSH1 0x4 ADD PUSH2 0x179 SWAP3 SWAP2 SWAP1 PUSH2 0x72B JUMP JUMPDEST PUSH0 PUSH1 0x40 MLOAD DUP1 DUP4 SUB DUP2 DUP6 DUP9 DUP1 EXTCODESIZE ISZERO DUP1 ISZERO PUSH2 0x190 JUMPI PUSH0 DUP1 REVERT JUMPDEST POP GAS CALL ISZERO DUP1 ISZERO PUSH2 0x1A2 JUMPI RETURNDATASIZE PUSH0 DUP1 RETURNDATACOPY RETURNDATASIZE PUSH0 REVERT JUMPDEST POP POP POP POP POP POP POP POP JUMP JUMPDEST PUSH1 0x40 MLOAD DUP1 PUSH1 0x40 ADD PUSH1 0x40 MSTORE DUP1 PUSH1 0x5 DUP2 MSTORE PUSH1 0x20 ADD PUSH32 0x352E302E30000000000000000000000000000000000000000000000000000000 DUP2 MSTORE POP DUP2 JUMP JUMPDEST PUSH2 0x1ED PUSH2 0x269 JUMP JUMPDEST PUSH0 PUSH20 0xFFFFFFFFFFFFFFFFFFFFFFFFFFFFFFFFFFFFFFFF AND DUP2 PUSH20 0xFFFFFFFFFFFFFFFFFFFFFFFFFFFFFFFFFFFFFFFF AND SUB PUSH2 0x25D JUMPI PUSH0 PUSH1 0x40 MLOAD PUSH32 0x1E4FBDF700000000000000000000000000000000000000000000000000000000 DUP2 MSTORE PUSH1 0x4 ADD PUSH2 0x254 SWAP2 SWAP1 PUSH2 0x3F7 JUMP JUMPDEST PUSH1 0x40 MLOAD DUP1 SWAP2 SUB SWAP1 REVERT JUMPDEST PUSH2 0x266 DUP2 PUSH2 0x2F0 JUMP JUMPDEST POP JUMP JUMPDEST PUSH2 0x271 PUSH2 0x3B1 JUMP JUMPDEST PUSH20 0xFFFFFFFFFFFFFFFFFFFFFFFFFFFFFFFFFFFFFFFF AND PUSH2 0x28F PUSH2 0x10E JUMP JUMPDEST PUSH20 0xFFFFFFFFFFFFFFFFFFFFFFFFFFFFFFFFFFFFFFFF AND EQ PUSH2 0x2EE JUMPI PUSH2 0x2B2 PUSH2 0x3B1 JUMP JUMPDEST PUSH1 0x40 MLOAD PUSH32 0x118CDAA700000000000000000000000000000000000000000000000000000000 DUP2 MSTORE PUSH1 0x4 ADD PUSH2 0x2E5 SWAP2 SWAP1 PUSH2 0x3F7 JUMP JUMPDEST PUSH1 0x40 MLOAD DUP1 SWAP2 SUB SWAP1 REVERT JUMPDEST JUMP JUMPDEST PUSH0 DUP1 PUSH0 SWAP1 SLOAD SWAP1 PUSH2 0x100 EXP SWAP1 DIV PUSH20 0xFFFFFFFFFFFFFFFFFFFFFFFFFFFFFFFFFFFFFFFF AND SWAP1 POP DUP2 PUSH0 DUP1 PUSH2 0x100 EXP DUP2 SLOAD DUP2 PUSH20 0xFFFFFFFFFFFFFFFFFFFFFFFFFFFFFFFFFFFFFFFF MUL NOT AND SWAP1 DUP4 PUSH20 0xFFFFFFFFFFFFFFFFFFFFFFFFFFFFFFFFFFFFFFFF AND MUL OR SWAP1 SSTORE POP DUP2 PUSH20 0xFFFFFFFFFFFFFFFFFFFFFFFFFFFFFFFFFFFFFFFF AND DUP2 PUSH20 0xFFFFFFFFFFFFFFFFFFFFFFFFFFFFFFFFFFFFFFFF AND PUSH32 0x8BE0079C531659141344CD1FD0A4F28419497F9722A3DAAFE3B4186F6B6457E0 PUSH1 0x40 MLOAD PUSH1 0x40 MLOAD DUP1 SWAP2 SUB SWAP1 LOG3 POP POP JUMP JUMPDEST PUSH0 CALLER SWAP1 POP SWAP1 JUMP JUMPDEST PUSH0 PUSH20 0xFFFFFFFFFFFFFFFFFFFFFFFFFFFFFFFFFFFFFFFF DUP3 AND SWAP1 POP SWAP2 SWAP1 POP JUMP JUMPDEST PUSH0 PUSH2 0x3E1 DUP3 PUSH2 0x3B8 JUMP JUMPDEST SWAP1 POP SWAP2 SWAP1 POP JUMP JUMPDEST PUSH2 0x3F1 DUP2 PUSH2 0x3D7 JUMP JUMPDEST DUP3 MSTORE POP POP JUMP JUMPDEST PUSH0 PUSH1 0x20 DUP3 ADD SWAP1 POP PUSH2 0x40A PUSH0 DUP4 ADD DUP5 PUSH2 0x3E8 JUMP JUMPDEST SWAP3 SWAP2 POP POP JUMP JUMPDEST PUSH0 PUSH1 0x40 MLOAD SWAP1 POP SWAP1 JUMP JUMPDEST PUSH0 DUP1 REVERT JUMPDEST PUSH0 DUP1 REVERT JUMPDEST PUSH0 PUSH2 0x42B DUP3 PUSH2 0x3D7 JUMP JUMPDEST SWAP1 POP SWAP2 SWAP1 POP JUMP JUMPDEST PUSH2 0x43B DUP2 PUSH2 0x421 JUMP JUMPDEST DUP2 EQ PUSH2 0x445 JUMPI PUSH0 DUP1 REVERT JUMPDEST POP JUMP JUMPDEST PUSH0 DUP2 CALLDATALOAD SWAP1 POP PUSH2 0x456 DUP2 PUSH2 0x432 JUMP JUMPDEST SWAP3 SWAP2 POP POP JUMP JUMPDEST PUSH2 0x465 DUP2 PUSH2 0x3D7 JUMP JUMPDEST DUP2 EQ PUSH2 0x46F JUMPI PUSH0 DUP1 REVERT JUMPDEST POP JUMP JUMPDEST PUSH0 DUP2 CALLDATALOAD SWAP1 POP PUSH2 0x480 DUP2 PUSH2 0x45C JUMP JUMPDEST SWAP3 SWAP2 POP POP JUMP JUMPDEST PUSH0 DUP1 REVERT JUMPDEST PUSH0 DUP1 REVERT JUMPDEST PUSH0 PUSH1 0x1F NOT PUSH1 0x1F DUP4 ADD AND SWAP1 POP SWAP2 SWAP1 POP JUMP JUMPDEST PUSH32 0x4E487B7100000000000000000000000000000000000000000000000000000000 PUSH0 MSTORE PUSH1 0x41 PUSH1 0x4 MSTORE PUSH1 0x24 PUSH0 REVERT JUMPDEST PUSH2 0x4D4 DUP3 PUSH2 0x48E JUMP JUMPDEST DUP2 ADD DUP2 DUP2 LT PUSH8 0xFFFFFFFFFFFFFFFF DUP3 GT OR ISZERO PUSH2 0x4F3 JUMPI PUSH2 0x4F2 PUSH2 0x49E JUMP JUMPDEST JUMPDEST DUP1 PUSH1 0x40 MSTORE POP POP POP JUMP JUMPDEST PUSH0 PUSH2 0x505 PUSH2 0x410 JUMP JUMPDEST SWAP1 POP PUSH2 0x511 DUP3 DUP3 PUSH2 0x4CB JUMP JUMPDEST SWAP2 SWAP1 POP JUMP JUMPDEST PUSH0 PUSH8 0xFFFFFFFFFFFFFFFF DUP3 GT ISZERO PUSH2 0x530 JUMPI PUSH2 0x52F PUSH2 0x49E JUMP JUMPDEST JUMPDEST PUSH2 0x539 DUP3 PUSH2 0x48E JUMP JUMPDEST SWAP1 POP PUSH1 0x20 DUP2 ADD SWAP1 POP SWAP2 SWAP1 POP JUMP JUMPDEST DUP3 DUP2 DUP4 CALLDATACOPY PUSH0 DUP4 DUP4 ADD MSTORE POP POP POP JUMP JUMPDEST PUSH0 PUSH2 0x566 PUSH2 0x561 DUP5 PUSH2 0x516 JUMP JUMPDEST PUSH2 0x4FC JUMP JUMPDEST SWAP1 POP DUP3 DUP2 MSTORE PUSH1 0x20 DUP2 ADD DUP5 DUP5 DUP5 ADD GT ISZERO PUSH2 0x582 JUMPI PUSH2 0x581 PUSH2 0x48A JUMP JUMPDEST JUMPDEST PUSH2 0x58D DUP5 DUP3 DUP6 PUSH2 0x546 JUMP JUMPDEST POP SWAP4 SWAP3 POP POP POP JUMP JUMPDEST PUSH0 DUP3 PUSH1 0x1F DUP4 ADD SLT PUSH2 0x5A9 JUMPI PUSH2 0x5A8 PUSH2 0x486 JUMP JUMPDEST JUMPDEST DUP2 CALLDATALOAD PUSH2 0x5B9 DUP5 DUP3 PUSH1 0x20 DUP7 ADD PUSH2 0x554 JUMP JUMPDEST SWAP2 POP POP SWAP3 SWAP2 POP POP JUMP JUMPDEST PUSH0 DUP1 PUSH0 PUSH1 0x60 DUP5 DUP7 SUB SLT ISZERO PUSH2 0x5D9 JUMPI PUSH2 0x5D8 PUSH2 0x419 JUMP JUMPDEST JUMPDEST PUSH0 PUSH2 0x5E6 DUP7 DUP3 DUP8 ADD PUSH2 0x448 JUMP JUMPDEST SWAP4 POP POP PUSH1 0x20 PUSH2 0x5F7 DUP7 DUP3 DUP8 ADD PUSH2 0x472 JUMP JUMPDEST SWAP3 POP POP PUSH1 0x40 DUP5 ADD CALLDATALOAD PUSH8 0xFFFFFFFFFFFFFFFF DUP2 GT ISZERO PUSH2 0x618 JUMPI PUSH2 0x617 PUSH2 0x41D JUMP JUMPDEST JUMPDEST PUSH2 0x624 DUP7 DUP3 DUP8 ADD PUSH2 0x595 JUMP JUMPDEST SWAP2 POP POP SWAP3 POP SWAP3 POP SWAP3 JUMP JUMPDEST PUSH0 DUP2 MLOAD SWAP1 POP SWAP2 SWAP1 POP JUMP JUMPDEST PUSH0 DUP3 DUP3 MSTORE PUSH1 0x20 DUP3 ADD SWAP1 POP SWAP3 SWAP2 POP POP JUMP JUMPDEST DUP3 DUP2 DUP4 MCOPY PUSH0 DUP4 DUP4 ADD MSTORE POP POP POP JUMP JUMPDEST PUSH0 PUSH2 0x660 DUP3 PUSH2 0x62E JUMP JUMPDEST PUSH2 0x66A DUP2 DUP6 PUSH2 0x638 JUMP JUMPDEST SWAP4 POP PUSH2 0x67A DUP2 DUP6 PUSH1 0x20 DUP7 ADD PUSH2 0x648 JUMP JUMPDEST PUSH2 0x683 DUP2 PUSH2 0x48E JUMP JUMPDEST DUP5 ADD SWAP2 POP POP SWAP3 SWAP2 POP POP JUMP JUMPDEST PUSH0 PUSH1 0x20 DUP3 ADD SWAP1 POP DUP2 DUP2 SUB PUSH0 DUP4 ADD MSTORE PUSH2 0x6A6 DUP2 DUP5 PUSH2 0x656 JUMP JUMPDEST SWAP1 POP SWAP3 SWAP2 POP POP JUMP JUMPDEST PUSH0 PUSH1 0x20 DUP3 DUP5 SUB SLT ISZERO PUSH2 0x6C3 JUMPI PUSH2 0x6C2 PUSH2 0x419 JUMP JUMPDEST JUMPDEST PUSH0 PUSH2 0x6D0 DUP5 DUP3 DUP6 ADD PUSH2 0x472 JUMP JUMPDEST SWAP2 POP POP SWAP3 SWAP2 POP POP JUMP JUMPDEST PUSH0 DUP2 MLOAD SWAP1 POP SWAP2 SWAP1 POP JUMP JUMPDEST PUSH0 DUP3 DUP3 MSTORE PUSH1 0x20 DUP3 ADD SWAP1 POP SWAP3 SWAP2 POP POP JUMP JUMPDEST PUSH0 PUSH2 0x6FD DUP3 PUSH2 0x6D9 JUMP JUMPDEST PUSH2 0x707 DUP2 DUP6 PUSH2 0x6E3 JUMP JUMPDEST SWAP4 POP PUSH2 0x717 DUP2 DUP6 PUSH1 0x20 DUP7 ADD PUSH2 0x648 JUMP JUMPDEST PUSH2 0x720 DUP2 PUSH2 0x48E JUMP JUMPDEST DUP5 ADD SWAP2 POP POP SWAP3 SWAP2 POP POP JUMP JUMPDEST PUSH0 PUSH1 0x40 DUP3 ADD SWAP1 POP PUSH2 0x73E PUSH0 DUP4 ADD DUP6 PUSH2 0x3E8 JUMP JUMPDEST DUP2 DUP2 SUB PUSH1 0x20 DUP4 ADD MSTORE PUSH2 0x750 DUP2 DUP5 PUSH2 0x6F3 JUMP JUMPDEST SWAP1 POP SWAP4 SWAP3 POP POP POP JUMP INVALID LOG2 PUSH5 0x6970667358 0x22 SLT KECCAK256 PUSH30 0xAE247E483E29D0FBF36E48F7C1706AB7D6D498D1493C2BB64A07A5733307 0xBF PUSH5 0x736F6C6343 STOP ADDMOD BYTE STOP CALLER "
		},
		"gasEstimates": {
			"creation": {
				"codeDepositCost": "542200",
				"executionCost": "infinite",
				"totalCost": "infinite"
			},
			"external": {
				"callProxyGetValue()": "infinite",
				"callProxySetValue(uint256)": "infinite",
				"proxy()": "infinite",
				"proxyAdmin()": "infinite",
				"upgradeToV2(address,uint256)": "infinite"
			}
		},
		"methodIdentifiers": {
			"callProxyGetValue()": "91d48028",
			"callProxySetValue(uint256)": "74ffc5ab",
			"proxy()": "ec556889",
			"proxyAdmin()": "3e47158c",
			"upgradeToV2(address,uint256)": "5ab4c78c"
		}
	},
	"abi": [
		{
			"inputs": [
				{
					"internalType": "uint256",
					"name": "num",
					"type": "uint256"
				}
			],
			"stateMutability": "nonpayable",
			"type": "constructor"
		},
		{
			"anonymous": false,
			"inputs": [
				{
					"indexed": false,
					"internalType": "string",
					"name": "desc",
					"type": "string"
				},
				{
					"indexed": false,
					"internalType": "address",
					"name": "value",
					"type": "address"
				}
			],
			"name": "PrintAddressLog",
			"type": "event"
		},
		{
			"anonymous": false,
			"inputs": [
				{
					"indexed": false,
					"internalType": "string",
					"name": "desc",
					"type": "string"
				},
				{
					"indexed": false,
					"internalType": "bool",
					"name": "data",
					"type": "bool"
				}
			],
			"name": "PrintBoolLog",
			"type": "event"
		},
		{
			"anonymous": false,
			"inputs": [
				{
					"indexed": false,
					"internalType": "string",
					"name": "desc",
					"type": "string"
				},
				{
					"indexed": false,
					"internalType": "string",
					"name": "value",
					"type": "string"
				}
			],
			"name": "PrintStringLog",
			"type": "event"
		},
		{
			"inputs": [],
			"name": "callProxyGetValue",
			"outputs": [
				{
					"internalType": "uint256",
					"name": "",
					"type": "uint256"
				}
			],
			"stateMutability": "nonpayable",
			"type": "function"
		},
		{
			"inputs": [
				{
					"internalType": "uint256",
					"name": "num",
					"type": "uint256"
				}
			],
			"name": "callProxySetValue",
			"outputs": [
				{
					"internalType": "bool",
					"name": "",
					"type": "bool"
				}
			],
			"stateMutability": "nonpayable",
			"type": "function"
		},
		{
			"inputs": [],
			"name": "proxy",
			"outputs": [
				{
					"internalType": "contract TransparentUpgradeableProxy",
					"name": "",
					"type": "address"
				}
			],
			"stateMutability": "view",
			"type": "function"
		},
		{
			"inputs": [],
			"name": "proxyAdmin",
			"outputs": [
				{
					"internalType": "contract ProxyAdmin",
					"name": "",
					"type": "address"
				}
			],
			"stateMutability": "view",
			"type": "function"
		},
		{
			"inputs": [
				{
					"internalType": "address",
					"name": "v2",
					"type": "address"
				},
				{
					"internalType": "uint256",
					"name": "newValue",
					"type": "uint256"
				}
			],
			"name": "upgradeToV2",
			"outputs": [],
			"stateMutability": "nonpayable",
			"type": "function"
		}
	]
}