{
	"contracts/business/DutchAuctionHouse.sol": {
		"TestTimestamp": {
			"abi": [
				{
					"inputs": [],
					"name": "getTimeStamp",
					"outputs": [
						{
							"internalType": "uint256",
							"name": "current",
							"type": "uint256"
						},
						{
							"internalType": "uint256",
							"name": "future",
							"type": "uint256"
						}
					],
					"stateMutability": "view",
					"type": "function"
				}
			],
			"devdoc": {
				"kind": "dev",
				"methods": {},
				"version": 1
			},
			"evm": {
				"assembly": "    /* \"contracts/business/DutchAuctionHouse.sol\":12795:12987  contract TestTimestamp {... */\n  mstore(0x40, 0x80)\n  callvalue\n  dup1\n  iszero\n  tag_1\n  jumpi\n  0x00\n  dup1\n  revert\ntag_1:\n  pop\n  dataSize(sub_0)\n  dup1\n  dataOffset(sub_0)\n  0x00\n  codecopy\n  0x00\n  return\nstop\n\nsub_0: assembly {\n        /* \"contracts/business/DutchAuctionHouse.sol\":12795:12987  contract TestTimestamp {... */\n      mstore(0x40, 0x80)\n      callvalue\n      dup1\n      iszero\n      tag_1\n      jumpi\n      0x00\n      dup1\n      revert\n    tag_1:\n      pop\n      jumpi(tag_2, lt(calldatasize, 0x04))\n      shr(0xe0, calldataload(0x00))\n      dup1\n      0xda235b22\n      eq\n      tag_3\n      jumpi\n    tag_2:\n      0x00\n      dup1\n      revert\n        /* \"contracts/business/DutchAuctionHouse.sol\":12824:12985  function getTimeStamp() external view returns (uint256 current, uint256 future) {... */\n    tag_3:\n      tag_4\n      tag_5\n      jump\t// in\n    tag_4:\n      mload(0x40)\n      tag_6\n      swap3\n      swap2\n      swap1\n      tag_7\n      jump\t// in\n    tag_6:\n      mload(0x40)\n      dup1\n      swap2\n      sub\n      swap1\n      return\n    tag_5:\n        /* \"contracts/business/DutchAuctionHouse.sol\":12871:12886  uint256 current */\n      0x00\n        /* \"contracts/business/DutchAuctionHouse.sol\":12888:12902  uint256 future */\n      dup1\n        /* \"contracts/business/DutchAuctionHouse.sol\":12924:12939  block.timestamp */\n      timestamp\n        /* \"contracts/business/DutchAuctionHouse.sol\":12914:12939  current = block.timestamp */\n      swap2\n      pop\n        /* \"contracts/business/DutchAuctionHouse.sol\":12976:12978  60 */\n      0x3c\n        /* \"contracts/business/DutchAuctionHouse.sol\":12958:12973  block.timestamp */\n      timestamp\n        /* \"contracts/business/DutchAuctionHouse.sol\":12958:12978  block.timestamp + 60 */\n      tag_9\n      swap2\n      swap1\n      tag_10\n      jump\t// in\n    tag_9:\n        /* \"contracts/business/DutchAuctionHouse.sol\":12949:12978  future = block.timestamp + 60 */\n      swap1\n      pop\n        /* \"contracts/business/DutchAuctionHouse.sol\":12824:12985  function getTimeStamp() external view returns (uint256 current, uint256 future) {... */\n      swap1\n      swap2\n      jump\t// out\n        /* \"#utility.yul\":7:84   */\n    tag_11:\n        /* \"#utility.yul\":44:51   */\n      0x00\n        /* \"#utility.yul\":73:78   */\n      dup2\n        /* \"#utility.yul\":62:78   */\n      swap1\n      pop\n        /* \"#utility.yul\":7:84   */\n      swap2\n      swap1\n      pop\n      jump\t// out\n        /* \"#utility.yul\":90:208   */\n    tag_12:\n        /* \"#utility.yul\":177:201   */\n      tag_17\n        /* \"#utility.yul\":195:200   */\n      dup2\n        /* \"#utility.yul\":177:201   */\n      tag_11\n      jump\t// in\n    tag_17:\n        /* \"#utility.yul\":172:175   */\n      dup3\n        /* \"#utility.yul\":165:202   */\n      mstore\n        /* \"#utility.yul\":90:208   */\n      pop\n      pop\n      jump\t// out\n        /* \"#utility.yul\":214:546   */\n    tag_7:\n        /* \"#utility.yul\":335:339   */\n      0x00\n        /* \"#utility.yul\":373:375   */\n      0x40\n        /* \"#utility.yul\":362:371   */\n      dup3\n        /* \"#utility.yul\":358:376   */\n      add\n        /* \"#utility.yul\":350:376   */\n      swap1\n      pop\n        /* \"#utility.yul\":386:457   */\n      tag_19\n        /* \"#utility.yul\":454:455   */\n      0x00\n        /* \"#utility.yul\":443:452   */\n      dup4\n        /* \"#utility.yul\":439:456   */\n      add\n        /* \"#utility.yul\":430:436   */\n      dup6\n        /* \"#utility.yul\":386:457   */\n      tag_12\n      jump\t// in\n    tag_19:\n        /* \"#utility.yul\":467:539   */\n      tag_20\n        /* \"#utility.yul\":535:537   */\n      0x20\n        /* \"#utility.yul\":524:533   */\n      dup4\n        /* \"#utility.yul\":520:538   */\n      add\n        /* \"#utility.yul\":511:517   */\n      dup5\n        /* \"#utility.yul\":467:539   */\n      tag_12\n      jump\t// in\n    tag_20:\n        /* \"#utility.yul\":214:546   */\n      swap4\n      swap3\n      pop\n      pop\n      pop\n      jump\t// out\n        /* \"#utility.yul\":552:732   */\n    tag_13:\n        /* \"#utility.yul\":600:677   */\n      0x4e487b7100000000000000000000000000000000000000000000000000000000\n        /* \"#utility.yul\":597:598   */\n      0x00\n        /* \"#utility.yul\":590:678   */\n      mstore\n        /* \"#utility.yul\":697:701   */\n      0x11\n        /* \"#utility.yul\":694:695   */\n      0x04\n        /* \"#utility.yul\":687:702   */\n      mstore\n        /* \"#utility.yul\":721:725   */\n      0x24\n        /* \"#utility.yul\":718:719   */\n      0x00\n        /* \"#utility.yul\":711:726   */\n      revert\n        /* \"#utility.yul\":738:929   */\n    tag_10:\n        /* \"#utility.yul\":778:781   */\n      0x00\n        /* \"#utility.yul\":797:817   */\n      tag_23\n        /* \"#utility.yul\":815:816   */\n      dup3\n        /* \"#utility.yul\":797:817   */\n      tag_11\n      jump\t// in\n    tag_23:\n        /* \"#utility.yul\":792:817   */\n      swap2\n      pop\n        /* \"#utility.yul\":831:851   */\n      tag_24\n        /* \"#utility.yul\":849:850   */\n      dup4\n        /* \"#utility.yul\":831:851   */\n      tag_11\n      jump\t// in\n    tag_24:\n        /* \"#utility.yul\":826:851   */\n      swap3\n      pop\n        /* \"#utility.yul\":874:875   */\n      dup3\n        /* \"#utility.yul\":871:872   */\n      dup3\n        /* \"#utility.yul\":867:876   */\n      add\n        /* \"#utility.yul\":860:876   */\n      swap1\n      pop\n        /* \"#utility.yul\":895:898   */\n      dup1\n        /* \"#utility.yul\":892:893   */\n      dup3\n        /* \"#utility.yul\":889:899   */\n      gt\n        /* \"#utility.yul\":886:922   */\n      iszero\n      tag_25\n      jumpi\n        /* \"#utility.yul\":902:920   */\n      tag_26\n      tag_13\n      jump\t// in\n    tag_26:\n        /* \"#utility.yul\":886:922   */\n    tag_25:\n        /* \"#utility.yul\":738:929   */\n      swap3\n      swap2\n      pop\n      pop\n      jump\t// out\n\n    auxdata: 0xa2646970667358221220dc016253c683a0afd26b84ca06c836be777dec720d468944926660d1c040eb3364736f6c634300081a0033\n}\n",
				"bytecode": {
					"linkReferences": {},
					"object": "6080604052348015600e575f80fd5b506101238061001c5f395ff3fe6080604052348015600e575f80fd5b50600436106026575f3560e01c8063da235b2214602a575b5f80fd5b60306045565b604051603c9291906071565b60405180910390f35b5f80429150603c426055919060c1565b90509091565b5f819050919050565b606b81605b565b82525050565b5f60408201905060825f8301856064565b608d60208301846064565b9392505050565b7f4e487b71000000000000000000000000000000000000000000000000000000005f52601160045260245ffd5b5f60c982605b565b915060d283605b565b925082820190508082111560e75760e66094565b5b9291505056fea2646970667358221220dc016253c683a0afd26b84ca06c836be777dec720d468944926660d1c040eb3364736f6c634300081a0033",
					"opcodes": "PUSH1 0x80 PUSH1 0x40 MSTORE CALLVALUE DUP1 ISZERO PUSH1 0xE JUMPI PUSH0 DUP1 REVERT JUMPDEST POP PUSH2 0x123 DUP1 PUSH2 0x1C PUSH0 CODECOPY PUSH0 RETURN INVALID PUSH1 0x80 PUSH1 0x40 MSTORE CALLVALUE DUP1 ISZERO PUSH1 0xE JUMPI PUSH0 DUP1 REVERT JUMPDEST POP PUSH1 0x4 CALLDATASIZE LT PUSH1 0x26 JUMPI PUSH0 CALLDATALOAD PUSH1 0xE0 SHR DUP1 PUSH4 0xDA235B22 EQ PUSH1 0x2A JUMPI JUMPDEST PUSH0 DUP1 REVERT JUMPDEST PUSH1 0x30 PUSH1 0x45 JUMP JUMPDEST PUSH1 0x40 MLOAD PUSH1 0x3C SWAP3 SWAP2 SWAP1 PUSH1 0x71 JUMP JUMPDEST PUSH1 0x40 MLOAD DUP1 SWAP2 SUB SWAP1 RETURN JUMPDEST PUSH0 DUP1 TIMESTAMP SWAP2 POP PUSH1 0x3C TIMESTAMP PUSH1 0x55 SWAP2 SWAP1 PUSH1 0xC1 JUMP JUMPDEST SWAP1 POP SWAP1 SWAP2 JUMP JUMPDEST PUSH0 DUP2 SWAP1 POP SWAP2 SWAP1 POP JUMP JUMPDEST PUSH1 0x6B DUP2 PUSH1 0x5B JUMP JUMPDEST DUP3 MSTORE POP POP JUMP JUMPDEST PUSH0 PUSH1 0x40 DUP3 ADD SWAP1 POP PUSH1 0x82 PUSH0 DUP4 ADD DUP6 PUSH1 0x64 JUMP JUMPDEST PUSH1 0x8D PUSH1 0x20 DUP4 ADD DUP5 PUSH1 0x64 JUMP JUMPDEST SWAP4 SWAP3 POP POP POP JUMP JUMPDEST PUSH32 0x4E487B7100000000000000000000000000000000000000000000000000000000 PUSH0 MSTORE PUSH1 0x11 PUSH1 0x4 MSTORE PUSH1 0x24 PUSH0 REVERT JUMPDEST PUSH0 PUSH1 0xC9 DUP3 PUSH1 0x5B JUMP JUMPDEST SWAP2 POP PUSH1 0xD2 DUP4 PUSH1 0x5B JUMP JUMPDEST SWAP3 POP DUP3 DUP3 ADD SWAP1 POP DUP1 DUP3 GT ISZERO PUSH1 0xE7 JUMPI PUSH1 0xE6 PUSH1 0x94 JUMP JUMPDEST JUMPDEST SWAP3 SWAP2 POP POP JUMP INVALID LOG2 PUSH5 0x6970667358 0x22 SLT KECCAK256 0xDC ADD PUSH3 0x53C683 LOG0 0xAF 0xD2 PUSH12 0x84CA06C836BE777DEC720D46 DUP10 PREVRANDAO SWAP3 PUSH7 0x60D1C040EB3364 PUSH20 0x6F6C634300081A00330000000000000000000000 "
				},
				"gasEstimates": {
					"creation": {
						"codeDepositCost": "58200",
						"executionCost": "109",
						"totalCost": "58309"
					},
					"external": {
						"getTimeStamp()": "infinite"
					}
				},
				"methodIdentifiers": {
					"getTimeStamp()": "da235b22"
				}
			},
			"storageLayout": {
				"storage": [],
				"types": null
			},
			"userdoc": {
				"kind": "user",
				"methods": {},
				"version": 1
			}
		}
	}
}