{
	"contracts/business/DutchAuctionHouse.sol": {
		"DutchAuctionHouse": {
			"abi": [
				{
					"inputs": [],
					"stateMutability": "nonpayable",
					"type": "constructor"
				},
				{
					"inputs": [],
					"name": "AuctionItemAlreadySale",
					"type": "error"
				},
				{
					"inputs": [
						{
							"internalType": "uint256",
							"name": "itemId",
							"type": "uint256"
						}
					],
					"name": "AuctionItemNotFound",
					"type": "error"
				},
				{
					"inputs": [
						{
							"internalType": "uint256",
							"name": "auctionPrice",
							"type": "uint256"
						},
						{
							"internalType": "uint256",
							"name": "msgValue",
							"type": "uint256"
						}
					],
					"name": "AuctionPriceNotEnough",
					"type": "error"
				},
				{
					"inputs": [
						{
							"internalType": "string",
							"name": "reason",
							"type": "string"
						}
					],
					"name": "InvalidAuctionParameters",
					"type": "error"
				},
				{
					"inputs": [
						{
							"internalType": "address",
							"name": "nftAddress",
							"type": "address"
						},
						{
							"internalType": "uint256",
							"name": "tokenId",
							"type": "uint256"
						}
					],
					"name": "UnreceivedToken",
					"type": "error"
				},
				{
					"inputs": [
						{
							"internalType": "address",
							"name": "nftAddress",
							"type": "address"
						}
					],
					"name": "UnsupportedToken",
					"type": "error"
				},
				{
					"inputs": [
						{
							"internalType": "address",
							"name": "seller",
							"type": "address"
						},
						{
							"internalType": "uint256",
							"name": "amount",
							"type": "uint256"
						}
					],
					"name": "WithdrawCallFail",
					"type": "error"
				},
				{
					"anonymous": false,
					"inputs": [
						{
							"indexed": true,
							"internalType": "address",
							"name": "bider",
							"type": "address"
						},
						{
							"indexed": true,
							"internalType": "address",
							"name": "seller",
							"type": "address"
						},
						{
							"indexed": false,
							"internalType": "uint256",
							"name": "price",
							"type": "uint256"
						},
						{
							"indexed": false,
							"internalType": "uint256",
							"name": "itemId",
							"type": "uint256"
						}
					],
					"name": "BidSuccess",
					"type": "event"
				},
				{
					"anonymous": false,
					"inputs": [
						{
							"indexed": true,
							"internalType": "address",
							"name": "operator",
							"type": "address"
						},
						{
							"indexed": false,
							"internalType": "address",
							"name": "from",
							"type": "address"
						},
						{
							"indexed": true,
							"internalType": "uint256",
							"name": "tokenId",
							"type": "uint256"
						},
						{
							"indexed": true,
							"internalType": "uint256",
							"name": "itemId",
							"type": "uint256"
						},
						{
							"indexed": false,
							"internalType": "bytes",
							"name": "data",
							"type": "bytes"
						}
					],
					"name": "ERC721Received",
					"type": "event"
				},
				{
					"anonymous": false,
					"inputs": [
						{
							"indexed": true,
							"internalType": "address",
							"name": "nftAddress",
							"type": "address"
						}
					],
					"name": "NFTSupportAdded",
					"type": "event"
				},
				{
					"anonymous": false,
					"inputs": [
						{
							"indexed": true,
							"internalType": "address",
							"name": "nftAddress",
							"type": "address"
						}
					],
					"name": "NFTSupportRemoved",
					"type": "event"
				},
				{
					"inputs": [
						{
							"internalType": "address",
							"name": "_nftAddress",
							"type": "address"
						}
					],
					"name": "addNFTSupport",
					"outputs": [],
					"stateMutability": "nonpayable",
					"type": "function"
				},
				{
					"inputs": [],
					"name": "admin",
					"outputs": [
						{
							"internalType": "address",
							"name": "",
							"type": "address"
						}
					],
					"stateMutability": "view",
					"type": "function"
				},
				{
					"inputs": [
						{
							"internalType": "address",
							"name": "nftAddress",
							"type": "address"
						},
						{
							"internalType": "uint256",
							"name": "tokenId",
							"type": "uint256"
						}
					],
					"name": "auctionItemIdByTokenId",
					"outputs": [
						{
							"internalType": "uint256",
							"name": "",
							"type": "uint256"
						}
					],
					"stateMutability": "view",
					"type": "function"
				},
				{
					"inputs": [
						{
							"internalType": "uint256",
							"name": "itemId",
							"type": "uint256"
						}
					],
					"name": "auctionItems",
					"outputs": [
						{
							"internalType": "contract IERC721",
							"name": "nftContract",
							"type": "address"
						},
						{
							"internalType": "uint256",
							"name": "tokenId",
							"type": "uint256"
						},
						{
							"internalType": "address",
							"name": "seller",
							"type": "address"
						},
						{
							"internalType": "uint256",
							"name": "startPrice",
							"type": "uint256"
						},
						{
							"internalType": "uint256",
							"name": "endPrice",
							"type": "uint256"
						},
						{
							"internalType": "uint256",
							"name": "startTime",
							"type": "uint256"
						},
						{
							"internalType": "uint256",
							"name": "duringTime",
							"type": "uint256"
						},
						{
							"internalType": "uint256",
							"name": "dropInterval",
							"type": "uint256"
						},
						{
							"internalType": "uint256",
							"name": "stepPrice",
							"type": "uint256"
						},
						{
							"internalType": "address",
							"name": "bider",
							"type": "address"
						},
						{
							"internalType": "uint256",
							"name": "auctionPrice",
							"type": "uint256"
						}
					],
					"stateMutability": "view",
					"type": "function"
				},
				{
					"inputs": [
						{
							"internalType": "uint256",
							"name": "itemId",
							"type": "uint256"
						}
					],
					"name": "bidAuction",
					"outputs": [],
					"stateMutability": "payable",
					"type": "function"
				},
				{
					"inputs": [
						{
							"internalType": "uint256",
							"name": "itemId",
							"type": "uint256"
						},
						{
							"internalType": "uint256",
							"name": "_startPrice",
							"type": "uint256"
						},
						{
							"internalType": "uint256",
							"name": "_endPrice",
							"type": "uint256"
						},
						{
							"internalType": "uint256",
							"name": "_startTime",
							"type": "uint256"
						},
						{
							"internalType": "uint256",
							"name": "_duringTime",
							"type": "uint256"
						},
						{
							"internalType": "uint256",
							"name": "_dropInterval",
							"type": "uint256"
						}
					],
					"name": "createAuction",
					"outputs": [],
					"stateMutability": "nonpayable",
					"type": "function"
				},
				{
					"inputs": [],
					"name": "feeRate",
					"outputs": [
						{
							"internalType": "uint256",
							"name": "",
							"type": "uint256"
						}
					],
					"stateMutability": "view",
					"type": "function"
				},
				{
					"inputs": [
						{
							"internalType": "uint256",
							"name": "itemId",
							"type": "uint256"
						}
					],
					"name": "getAuctionPrice",
					"outputs": [
						{
							"internalType": "uint256",
							"name": "",
							"type": "uint256"
						}
					],
					"stateMutability": "view",
					"type": "function"
				},
				{
					"inputs": [
						{
							"internalType": "address",
							"name": "nftAddress",
							"type": "address"
						},
						{
							"internalType": "uint256",
							"name": "tokenId",
							"type": "uint256"
						},
						{
							"internalType": "address",
							"name": "receiver",
							"type": "address"
						}
					],
					"name": "getBackNft",
					"outputs": [],
					"stateMutability": "nonpayable",
					"type": "function"
				},
				{
					"inputs": [],
					"name": "getBalance",
					"outputs": [
						{
							"internalType": "uint256",
							"name": "",
							"type": "uint256"
						}
					],
					"stateMutability": "view",
					"type": "function"
				},
				{
					"inputs": [
						{
							"internalType": "address",
							"name": "nftAddress",
							"type": "address"
						},
						{
							"internalType": "uint256",
							"name": "tokenId",
							"type": "uint256"
						}
					],
					"name": "getItemId",
					"outputs": [
						{
							"internalType": "uint256",
							"name": "",
							"type": "uint256"
						}
					],
					"stateMutability": "nonpayable",
					"type": "function"
				},
				{
					"inputs": [],
					"name": "getProfits",
					"outputs": [
						{
							"internalType": "uint256",
							"name": "",
							"type": "uint256"
						}
					],
					"stateMutability": "view",
					"type": "function"
				},
				{
					"inputs": [],
					"name": "nextItemId",
					"outputs": [
						{
							"internalType": "uint256",
							"name": "",
							"type": "uint256"
						}
					],
					"stateMutability": "view",
					"type": "function"
				},
				{
					"inputs": [
						{
							"internalType": "address",
							"name": "operator",
							"type": "address"
						},
						{
							"internalType": "address",
							"name": "from",
							"type": "address"
						},
						{
							"internalType": "uint256",
							"name": "_tokenId",
							"type": "uint256"
						},
						{
							"internalType": "bytes",
							"name": "data",
							"type": "bytes"
						}
					],
					"name": "onERC721Received",
					"outputs": [
						{
							"internalType": "bytes4",
							"name": "",
							"type": "bytes4"
						}
					],
					"stateMutability": "nonpayable",
					"type": "function"
				},
				{
					"inputs": [
						{
							"internalType": "address",
							"name": "nftAddress",
							"type": "address"
						},
						{
							"internalType": "uint256",
							"name": "tokenId",
							"type": "uint256"
						}
					],
					"name": "recoverAtuctionItem",
					"outputs": [
						{
							"internalType": "uint256",
							"name": "",
							"type": "uint256"
						}
					],
					"stateMutability": "nonpayable",
					"type": "function"
				},
				{
					"inputs": [
						{
							"internalType": "address",
							"name": "_nftAddress",
							"type": "address"
						}
					],
					"name": "removeNFTSupport",
					"outputs": [],
					"stateMutability": "nonpayable",
					"type": "function"
				},
				{
					"inputs": [],
					"name": "send",
					"outputs": [],
					"stateMutability": "nonpayable",
					"type": "function"
				},
				{
					"inputs": [
						{
							"internalType": "uint256",
							"name": "_feeRate",
							"type": "uint256"
						}
					],
					"name": "setFeeRate",
					"outputs": [],
					"stateMutability": "nonpayable",
					"type": "function"
				},
				{
					"inputs": [
						{
							"internalType": "address",
							"name": "nftAddress",
							"type": "address"
						},
						{
							"internalType": "uint256",
							"name": "tokenId",
							"type": "uint256"
						}
					],
					"name": "tokenIdToItemIds",
					"outputs": [
						{
							"internalType": "uint256",
							"name": "",
							"type": "uint256"
						}
					],
					"stateMutability": "view",
					"type": "function"
				},
				{
					"inputs": [],
					"name": "withdraw",
					"outputs": [],
					"stateMutability": "nonpayable",
					"type": "function"
				}
			],
			"devdoc": {
				"kind": "dev",
				"methods": {},
				"version": 1
			},
			"evm": {
				"assembly": "    /* \"contracts/business/DutchAuctionHouse.sol\":292:12793  contract DutchAuctionHouse is IERC721Receiver {... */\n  mstore(0x40, 0x80)\n    /* \"contracts/business/DutchAuctionHouse.sol\":1854:1855  0 */\n  0x00\n    /* \"contracts/business/DutchAuctionHouse.sol\":1826:1855  uint256 public nextItemId = 0 */\n  dup1\n  sstore\n    /* \"contracts/business/DutchAuctionHouse.sol\":2380:2429  constructor() {... */\n  callvalue\n  dup1\n  iszero\n  tag_1\n  jumpi\n  0x00\n  dup1\n  revert\ntag_1:\n  pop\n    /* \"contracts/business/DutchAuctionHouse.sol\":2412:2422  msg.sender */\n  caller\n    /* \"contracts/business/DutchAuctionHouse.sol\":2404:2409  admin */\n  0x07\n  0x00\n    /* \"contracts/business/DutchAuctionHouse.sol\":2404:2422  admin = msg.sender */\n  0x0100\n  exp\n  dup2\n  sload\n  dup2\n  0xffffffffffffffffffffffffffffffffffffffff\n  mul\n  not\n  and\n  swap1\n  dup4\n  0xffffffffffffffffffffffffffffffffffffffff\n  and\n  mul\n  or\n  swap1\n  sstore\n  pop\n    /* \"contracts/business/DutchAuctionHouse.sol\":292:12793  contract DutchAuctionHouse is IERC721Receiver {... */\n  dataSize(sub_0)\n  dup1\n  dataOffset(sub_0)\n  0x00\n  codecopy\n  0x00\n  return\nstop\n\nsub_0: assembly {\n        /* \"contracts/business/DutchAuctionHouse.sol\":292:12793  contract DutchAuctionHouse is IERC721Receiver {... */\n      mstore(0x40, 0x80)\n      jumpi(tag_1, lt(calldatasize, 0x04))\n      shr(0xe0, calldataload(0x00))\n      dup1\n      0x8f4e9cbb\n      gt\n      tag_22\n      jumpi\n      dup1\n      0xb46300ec\n      gt\n      tag_23\n      jumpi\n      dup1\n      0xb46300ec\n      eq\n      tag_17\n      jumpi\n      dup1\n      0xb80083fa\n      eq\n      tag_18\n      jumpi\n      dup1\n      0xd2c069f0\n      eq\n      tag_19\n      jumpi\n      dup1\n      0xe43197ef\n      eq\n      tag_20\n      jumpi\n      dup1\n      0xf851a440\n      eq\n      tag_21\n      jumpi\n      jump(tag_1)\n    tag_23:\n      dup1\n      0x8f4e9cbb\n      eq\n      tag_12\n      jumpi\n      dup1\n      0x917d009e\n      eq\n      tag_13\n      jumpi\n      dup1\n      0x978bbdb9\n      eq\n      tag_14\n      jumpi\n      dup1\n      0x97ae9a84\n      eq\n      tag_15\n      jumpi\n      dup1\n      0x98891fac\n      eq\n      tag_16\n      jumpi\n      jump(tag_1)\n    tag_22:\n      dup1\n      0x3ccfd60b\n      gt\n      tag_24\n      jumpi\n      dup1\n      0x3ccfd60b\n      eq\n      tag_7\n      jumpi\n      dup1\n      0x3e2d4ee9\n      eq\n      tag_8\n      jumpi\n      dup1\n      0x45596e2e\n      eq\n      tag_9\n      jumpi\n      dup1\n      0x64a7d7c7\n      eq\n      tag_10\n      jumpi\n      dup1\n      0x6a868974\n      eq\n      tag_11\n      jumpi\n      jump(tag_1)\n    tag_24:\n      dup1\n      0x33a40c\n      eq\n      tag_2\n      jumpi\n      dup1\n      0x0b21bd10\n      eq\n      tag_3\n      jumpi\n      dup1\n      0x12065fe0\n      eq\n      tag_4\n      jumpi\n      dup1\n      0x150b7a02\n      eq\n      tag_5\n      jumpi\n      dup1\n      0x3ad15258\n      eq\n      tag_6\n      jumpi\n    tag_1:\n      0x00\n      dup1\n      revert\n        /* \"contracts/business/DutchAuctionHouse.sol\":3593:4789  function createAuction(... */\n    tag_2:\n      callvalue\n      dup1\n      iszero\n      tag_25\n      jumpi\n      0x00\n      dup1\n      revert\n    tag_25:\n      pop\n      tag_26\n      0x04\n      dup1\n      calldatasize\n      sub\n      dup2\n      add\n      swap1\n      tag_27\n      swap2\n      swap1\n      tag_28\n      jump\t// in\n    tag_27:\n      tag_29\n      jump\t// in\n    tag_26:\n      stop\n        /* \"contracts/business/DutchAuctionHouse.sol\":6940:7432  function recoverAtuctionItem(address nftAddress, uint256 tokenId) public returns (uint256) {... */\n    tag_3:\n      callvalue\n      dup1\n      iszero\n      tag_30\n      jumpi\n      0x00\n      dup1\n      revert\n    tag_30:\n      pop\n      tag_31\n      0x04\n      dup1\n      calldatasize\n      sub\n      dup2\n      add\n      swap1\n      tag_32\n      swap2\n      swap1\n      tag_33\n      jump\t// in\n    tag_32:\n      tag_34\n      jump\t// in\n    tag_31:\n      mload(0x40)\n      tag_35\n      swap2\n      swap1\n      tag_36\n      jump\t// in\n    tag_35:\n      mload(0x40)\n      dup1\n      swap2\n      sub\n      swap1\n      return\n        /* \"contracts/business/DutchAuctionHouse.sol\":11074:11177  function getBalance() external view returns (uint256) {... */\n    tag_4:\n      callvalue\n      dup1\n      iszero\n      tag_37\n      jumpi\n      0x00\n      dup1\n      revert\n    tag_37:\n      pop\n      tag_38\n      tag_39\n      jump\t// in\n    tag_38:\n      mload(0x40)\n      tag_40\n      swap2\n      swap1\n      tag_36\n      jump\t// in\n    tag_40:\n      mload(0x40)\n      dup1\n      swap2\n      sub\n      swap1\n      return\n        /* \"contracts/business/DutchAuctionHouse.sol\":4818:5322  function onERC721Received(address operator, address from, uint256 _tokenId, bytes memory data) public virtual returns (bytes4) {... */\n    tag_5:\n      callvalue\n      dup1\n      iszero\n      tag_41\n      jumpi\n      0x00\n      dup1\n      revert\n    tag_41:\n      pop\n      tag_42\n      0x04\n      dup1\n      calldatasize\n      sub\n      dup2\n      add\n      swap1\n      tag_43\n      swap2\n      swap1\n      tag_44\n      jump\t// in\n    tag_43:\n      tag_45\n      jump\t// in\n    tag_42:\n      mload(0x40)\n      tag_46\n      swap2\n      swap1\n      tag_47\n      jump\t// in\n    tag_46:\n      mload(0x40)\n      dup1\n      swap2\n      sub\n      swap1\n      return\n        /* \"contracts/business/DutchAuctionHouse.sol\":12528:12623  function getProfits() external view onlyAdmin returns (uint256) {... */\n    tag_6:\n      callvalue\n      dup1\n      iszero\n      tag_48\n      jumpi\n      0x00\n      dup1\n      revert\n    tag_48:\n      pop\n      tag_49\n      tag_50\n      jump\t// in\n    tag_49:\n      mload(0x40)\n      tag_51\n      swap2\n      swap1\n      tag_36\n      jump\t// in\n    tag_51:\n      mload(0x40)\n      dup1\n      swap2\n      sub\n      swap1\n      return\n        /* \"contracts/business/DutchAuctionHouse.sol\":11203:11672  function withdraw() external {... */\n    tag_7:\n      callvalue\n      dup1\n      iszero\n      tag_52\n      jumpi\n      0x00\n      dup1\n      revert\n    tag_52:\n      pop\n      tag_53\n      tag_54\n      jump\t// in\n    tag_53:\n      stop\n        /* \"contracts/business/DutchAuctionHouse.sol\":7494:7881  function auctionItemIdByTokenId(address nftAddress, uint256 tokenId) external view returns (uint256) {... */\n    tag_8:\n      callvalue\n      dup1\n      iszero\n      tag_55\n      jumpi\n      0x00\n      dup1\n      revert\n    tag_55:\n      pop\n      tag_56\n      0x04\n      dup1\n      calldatasize\n      sub\n      dup2\n      add\n      swap1\n      tag_57\n      swap2\n      swap1\n      tag_33\n      jump\t// in\n    tag_57:\n      tag_58\n      jump\t// in\n    tag_56:\n      mload(0x40)\n      tag_59\n      swap2\n      swap1\n      tag_36\n      jump\t// in\n    tag_59:\n      mload(0x40)\n      dup1\n      swap2\n      sub\n      swap1\n      return\n        /* \"contracts/business/DutchAuctionHouse.sol\":10868:11036  function setFeeRate(uint256 _feeRate) external onlyAdmin {... */\n    tag_9:\n      callvalue\n      dup1\n      iszero\n      tag_60\n      jumpi\n      0x00\n      dup1\n      revert\n    tag_60:\n      pop\n      tag_61\n      0x04\n      dup1\n      calldatasize\n      sub\n      dup2\n      add\n      swap1\n      tag_62\n      swap2\n      swap1\n      tag_63\n      jump\t// in\n    tag_62:\n      tag_64\n      jump\t// in\n    tag_61:\n      stop\n        /* \"contracts/business/DutchAuctionHouse.sol\":9350:10677  function bidAuction(uint256 itemId) external payable {... */\n    tag_10:\n      tag_65\n      0x04\n      dup1\n      calldatasize\n      sub\n      dup2\n      add\n      swap1\n      tag_66\n      swap2\n      swap1\n      tag_63\n      jump\t// in\n    tag_66:\n      tag_67\n      jump\t// in\n    tag_65:\n      stop\n        /* \"contracts/business/DutchAuctionHouse.sol\":1826:1855  uint256 public nextItemId = 0 */\n    tag_11:\n      callvalue\n      dup1\n      iszero\n      tag_68\n      jumpi\n      0x00\n      dup1\n      revert\n    tag_68:\n      pop\n      tag_69\n      tag_70\n      jump\t// in\n    tag_69:\n      mload(0x40)\n      tag_71\n      swap2\n      swap1\n      tag_36\n      jump\t// in\n    tag_71:\n      mload(0x40)\n      dup1\n      swap2\n      sub\n      swap1\n      return\n        /* \"contracts/business/DutchAuctionHouse.sol\":6359:6824  function getItemId(address nftAddress, uint256 tokenId) external returns (uint256) {... */\n    tag_12:\n      callvalue\n      dup1\n      iszero\n      tag_72\n      jumpi\n      0x00\n      dup1\n      revert\n    tag_72:\n      pop\n      tag_73\n      0x04\n      dup1\n      calldatasize\n      sub\n      dup2\n      add\n      swap1\n      tag_74\n      swap2\n      swap1\n      tag_33\n      jump\t// in\n    tag_74:\n      tag_75\n      jump\t// in\n    tag_73:\n      mload(0x40)\n      tag_76\n      swap2\n      swap1\n      tag_36\n      jump\t// in\n    tag_76:\n      mload(0x40)\n      dup1\n      swap2\n      sub\n      swap1\n      return\n        /* \"contracts/business/DutchAuctionHouse.sol\":7913:8898  function getAuctionPrice(uint256 itemId) public view returns (uint256) {... */\n    tag_13:\n      callvalue\n      dup1\n      iszero\n      tag_77\n      jumpi\n      0x00\n      dup1\n      revert\n    tag_77:\n      pop\n      tag_78\n      0x04\n      dup1\n      calldatasize\n      sub\n      dup2\n      add\n      swap1\n      tag_79\n      swap2\n      swap1\n      tag_63\n      jump\t// in\n    tag_79:\n      tag_80\n      jump\t// in\n    tag_78:\n      mload(0x40)\n      tag_81\n      swap2\n      swap1\n      tag_36\n      jump\t// in\n    tag_81:\n      mload(0x40)\n      dup1\n      swap2\n      sub\n      swap1\n      return\n        /* \"contracts/business/DutchAuctionHouse.sol\":2251:2273  uint256 public feeRate */\n    tag_14:\n      callvalue\n      dup1\n      iszero\n      tag_82\n      jumpi\n      0x00\n      dup1\n      revert\n    tag_82:\n      pop\n      tag_83\n      tag_84\n      jump\t// in\n    tag_83:\n      mload(0x40)\n      tag_85\n      swap2\n      swap1\n      tag_36\n      jump\t// in\n    tag_85:\n      mload(0x40)\n      dup1\n      swap2\n      sub\n      swap1\n      return\n        /* \"contracts/business/DutchAuctionHouse.sol\":11695:12522  function getBackNft(address nftAddress, uint256 tokenId, address receiver) external {... */\n    tag_15:\n      callvalue\n      dup1\n      iszero\n      tag_86\n      jumpi\n      0x00\n      dup1\n      revert\n    tag_86:\n      pop\n      tag_87\n      0x04\n      dup1\n      calldatasize\n      sub\n      dup2\n      add\n      swap1\n      tag_88\n      swap2\n      swap1\n      tag_89\n      jump\t// in\n    tag_88:\n      tag_90\n      jump\t// in\n    tag_87:\n      stop\n        /* \"contracts/business/DutchAuctionHouse.sol\":2064:2154  mapping(address nftAddress => mapping(uint256 tokenId => uint256)) public tokenIdToItemIds */\n    tag_16:\n      callvalue\n      dup1\n      iszero\n      tag_91\n      jumpi\n      0x00\n      dup1\n      revert\n    tag_91:\n      pop\n      tag_92\n      0x04\n      dup1\n      calldatasize\n      sub\n      dup2\n      add\n      swap1\n      tag_93\n      swap2\n      swap1\n      tag_33\n      jump\t// in\n    tag_93:\n      tag_94\n      jump\t// in\n    tag_92:\n      mload(0x40)\n      tag_95\n      swap2\n      swap1\n      tag_36\n      jump\t// in\n    tag_95:\n      mload(0x40)\n      dup1\n      swap2\n      sub\n      swap1\n      return\n        /* \"contracts/business/DutchAuctionHouse.sol\":12652:12790  function send() external onlyAdmin {... */\n    tag_17:\n      callvalue\n      dup1\n      iszero\n      tag_96\n      jumpi\n      0x00\n      dup1\n      revert\n    tag_96:\n      pop\n      tag_97\n      tag_98\n      jump\t// in\n    tag_97:\n      stop\n        /* \"contracts/business/DutchAuctionHouse.sol\":2562:3107  function addNFTSupport(address _nftAddress) external onlyAdmin {... */\n    tag_18:\n      callvalue\n      dup1\n      iszero\n      tag_99\n      jumpi\n      0x00\n      dup1\n      revert\n    tag_99:\n      pop\n      tag_100\n      0x04\n      dup1\n      calldatasize\n      sub\n      dup2\n      add\n      swap1\n      tag_101\n      swap2\n      swap1\n      tag_102\n      jump\t// in\n    tag_101:\n      tag_103\n      jump\t// in\n    tag_100:\n      stop\n        /* \"contracts/business/DutchAuctionHouse.sol\":2000:2058  mapping(uint256 itemId => AuctionItem) public auctionItems */\n    tag_19:\n      callvalue\n      dup1\n      iszero\n      tag_104\n      jumpi\n      0x00\n      dup1\n      revert\n    tag_104:\n      pop\n      tag_105\n      0x04\n      dup1\n      calldatasize\n      sub\n      dup2\n      add\n      swap1\n      tag_106\n      swap2\n      swap1\n      tag_63\n      jump\t// in\n    tag_106:\n      tag_107\n      jump\t// in\n    tag_105:\n      mload(0x40)\n      tag_108\n      swap12\n      swap11\n      swap10\n      swap9\n      swap8\n      swap7\n      swap6\n      swap5\n      swap4\n      swap3\n      swap2\n      swap1\n      tag_109\n      jump\t// in\n    tag_108:\n      mload(0x40)\n      dup1\n      swap2\n      sub\n      swap1\n      return\n        /* \"contracts/business/DutchAuctionHouse.sol\":3138:3386  function removeNFTSupport(address _nftAddress) external onlyAdmin {... */\n    tag_20:\n      callvalue\n      dup1\n      iszero\n      tag_110\n      jumpi\n      0x00\n      dup1\n      revert\n    tag_110:\n      pop\n      tag_111\n      0x04\n      dup1\n      calldatasize\n      sub\n      dup2\n      add\n      swap1\n      tag_112\n      swap2\n      swap1\n      tag_102\n      jump\t// in\n    tag_112:\n      tag_113\n      jump\t// in\n    tag_111:\n      stop\n        /* \"contracts/business/DutchAuctionHouse.sol\":2353:2373  address public admin */\n    tag_21:\n      callvalue\n      dup1\n      iszero\n      tag_114\n      jumpi\n      0x00\n      dup1\n      revert\n    tag_114:\n      pop\n      tag_115\n      tag_116\n      jump\t// in\n    tag_115:\n      mload(0x40)\n      tag_117\n      swap2\n      swap1\n      tag_118\n      jump\t// in\n    tag_117:\n      mload(0x40)\n      dup1\n      swap2\n      sub\n      swap1\n      return\n        /* \"contracts/business/DutchAuctionHouse.sol\":3593:4789  function createAuction(... */\n    tag_29:\n        /* \"contracts/business/DutchAuctionHouse.sol\":3997:4008  _startPrice */\n      dup5\n        /* \"contracts/business/DutchAuctionHouse.sol\":3985:3994  _endPrice */\n      dup5\n        /* \"contracts/business/DutchAuctionHouse.sol\":3985:4008  _endPrice > _startPrice */\n      gt\n        /* \"contracts/business/DutchAuctionHouse.sol\":3981:4117  if (_endPrice > _startPrice) {... */\n      iszero\n      tag_120\n      jumpi\n        /* \"contracts/business/DutchAuctionHouse.sol\":4031:4106  InvalidAuctionParameters(\"end price must not be greater than start price.\") */\n      mload(0x40)\n      0x17e268cd00000000000000000000000000000000000000000000000000000000\n      dup2\n      mstore\n      0x04\n      add\n      tag_121\n      swap1\n      tag_122\n      jump\t// in\n    tag_121:\n      mload(0x40)\n      dup1\n      swap2\n      sub\n      swap1\n      revert\n        /* \"contracts/business/DutchAuctionHouse.sol\":3981:4117  if (_endPrice > _startPrice) {... */\n    tag_120:\n        /* \"contracts/business/DutchAuctionHouse.sol\":4126:4147  address sellerAddress */\n      0x00\n        /* \"contracts/business/DutchAuctionHouse.sol\":4150:4162  auctionItems */\n      0x01\n        /* \"contracts/business/DutchAuctionHouse.sol\":4150:4170  auctionItems[itemId] */\n      0x00\n        /* \"contracts/business/DutchAuctionHouse.sol\":4163:4169  itemId */\n      dup9\n        /* \"contracts/business/DutchAuctionHouse.sol\":4150:4170  auctionItems[itemId] */\n      dup2\n      mstore\n      0x20\n      add\n      swap1\n      dup2\n      mstore\n      0x20\n      add\n      0x00\n      keccak256\n        /* \"contracts/business/DutchAuctionHouse.sol\":4150:4177  auctionItems[itemId].seller */\n      0x02\n      add\n      0x00\n      swap1\n      sload\n      swap1\n      0x0100\n      exp\n      swap1\n      div\n      0xffffffffffffffffffffffffffffffffffffffff\n      and\n        /* \"contracts/business/DutchAuctionHouse.sol\":4126:4177  address sellerAddress = auctionItems[itemId].seller */\n      swap1\n      pop\n        /* \"contracts/business/DutchAuctionHouse.sol\":4208:4218  msg.sender */\n      caller\n        /* \"contracts/business/DutchAuctionHouse.sol\":4191:4218  sellerAddress != msg.sender */\n      0xffffffffffffffffffffffffffffffffffffffff\n      and\n        /* \"contracts/business/DutchAuctionHouse.sol\":4191:4204  sellerAddress */\n      dup2\n        /* \"contracts/business/DutchAuctionHouse.sol\":4191:4218  sellerAddress != msg.sender */\n      0xffffffffffffffffffffffffffffffffffffffff\n      and\n      eq\n        /* \"contracts/business/DutchAuctionHouse.sol\":4187:4330  if (sellerAddress != msg.sender) {... */\n      tag_123\n      jumpi\n        /* \"contracts/business/DutchAuctionHouse.sol\":4241:4319  InvalidAuctionParameters(\"can not create auction, the nft not from yourself.\") */\n      mload(0x40)\n      0x17e268cd00000000000000000000000000000000000000000000000000000000\n      dup2\n      mstore\n      0x04\n      add\n      tag_124\n      swap1\n      tag_125\n      jump\t// in\n    tag_124:\n      mload(0x40)\n      dup1\n      swap2\n      sub\n      swap1\n      revert\n        /* \"contracts/business/DutchAuctionHouse.sol\":4187:4330  if (sellerAddress != msg.sender) {... */\n    tag_123:\n        /* \"contracts/business/DutchAuctionHouse.sol\":4369:4394  _checkItemNotSale(itemId) */\n      tag_126\n        /* \"contracts/business/DutchAuctionHouse.sol\":4387:4393  itemId */\n      dup8\n        /* \"contracts/business/DutchAuctionHouse.sol\":4369:4386  _checkItemNotSale */\n      tag_127\n        /* \"contracts/business/DutchAuctionHouse.sol\":4369:4394  _checkItemNotSale(itemId) */\n      jump\t// in\n    tag_126:\n        /* \"contracts/business/DutchAuctionHouse.sol\":4457:4468  _startPrice */\n      dup6\n        /* \"contracts/business/DutchAuctionHouse.sol\":4423:4435  auctionItems */\n      0x01\n        /* \"contracts/business/DutchAuctionHouse.sol\":4423:4443  auctionItems[itemId] */\n      0x00\n        /* \"contracts/business/DutchAuctionHouse.sol\":4436:4442  itemId */\n      dup10\n        /* \"contracts/business/DutchAuctionHouse.sol\":4423:4443  auctionItems[itemId] */\n      dup2\n      mstore\n      0x20\n      add\n      swap1\n      dup2\n      mstore\n      0x20\n      add\n      0x00\n      keccak256\n        /* \"contracts/business/DutchAuctionHouse.sol\":4423:4454  auctionItems[itemId].startPrice */\n      0x03\n      add\n        /* \"contracts/business/DutchAuctionHouse.sol\":4423:4468  auctionItems[itemId].startPrice = _startPrice */\n      dup2\n      swap1\n      sstore\n      pop\n        /* \"contracts/business/DutchAuctionHouse.sol\":4510:4519  _endPrice */\n      dup5\n        /* \"contracts/business/DutchAuctionHouse.sol\":4478:4490  auctionItems */\n      0x01\n        /* \"contracts/business/DutchAuctionHouse.sol\":4478:4498  auctionItems[itemId] */\n      0x00\n        /* \"contracts/business/DutchAuctionHouse.sol\":4491:4497  itemId */\n      dup10\n        /* \"contracts/business/DutchAuctionHouse.sol\":4478:4498  auctionItems[itemId] */\n      dup2\n      mstore\n      0x20\n      add\n      swap1\n      dup2\n      mstore\n      0x20\n      add\n      0x00\n      keccak256\n        /* \"contracts/business/DutchAuctionHouse.sol\":4478:4507  auctionItems[itemId].endPrice */\n      0x04\n      add\n        /* \"contracts/business/DutchAuctionHouse.sol\":4478:4519  auctionItems[itemId].endPrice = _endPrice */\n      dup2\n      swap1\n      sstore\n      pop\n        /* \"contracts/business/DutchAuctionHouse.sol\":4562:4572  _startTime */\n      dup4\n        /* \"contracts/business/DutchAuctionHouse.sol\":4529:4541  auctionItems */\n      0x01\n        /* \"contracts/business/DutchAuctionHouse.sol\":4529:4549  auctionItems[itemId] */\n      0x00\n        /* \"contracts/business/DutchAuctionHouse.sol\":4542:4548  itemId */\n      dup10\n        /* \"contracts/business/DutchAuctionHouse.sol\":4529:4549  auctionItems[itemId] */\n      dup2\n      mstore\n      0x20\n      add\n      swap1\n      dup2\n      mstore\n      0x20\n      add\n      0x00\n      keccak256\n        /* \"contracts/business/DutchAuctionHouse.sol\":4529:4559  auctionItems[itemId].startTime */\n      0x05\n      add\n        /* \"contracts/business/DutchAuctionHouse.sol\":4529:4572  auctionItems[itemId].startTime = _startTime */\n      dup2\n      swap1\n      sstore\n      pop\n        /* \"contracts/business/DutchAuctionHouse.sol\":4616:4627  _duringTime */\n      dup3\n        /* \"contracts/business/DutchAuctionHouse.sol\":4582:4594  auctionItems */\n      0x01\n        /* \"contracts/business/DutchAuctionHouse.sol\":4582:4602  auctionItems[itemId] */\n      0x00\n        /* \"contracts/business/DutchAuctionHouse.sol\":4595:4601  itemId */\n      dup10\n        /* \"contracts/business/DutchAuctionHouse.sol\":4582:4602  auctionItems[itemId] */\n      dup2\n      mstore\n      0x20\n      add\n      swap1\n      dup2\n      mstore\n      0x20\n      add\n      0x00\n      keccak256\n        /* \"contracts/business/DutchAuctionHouse.sol\":4582:4613  auctionItems[itemId].duringTime */\n      0x06\n      add\n        /* \"contracts/business/DutchAuctionHouse.sol\":4582:4627  auctionItems[itemId].duringTime = _duringTime */\n      dup2\n      swap1\n      sstore\n      pop\n        /* \"contracts/business/DutchAuctionHouse.sol\":4673:4686  _dropInterval */\n      dup2\n        /* \"contracts/business/DutchAuctionHouse.sol\":4637:4649  auctionItems */\n      0x01\n        /* \"contracts/business/DutchAuctionHouse.sol\":4637:4657  auctionItems[itemId] */\n      0x00\n        /* \"contracts/business/DutchAuctionHouse.sol\":4650:4656  itemId */\n      dup10\n        /* \"contracts/business/DutchAuctionHouse.sol\":4637:4657  auctionItems[itemId] */\n      dup2\n      mstore\n      0x20\n      add\n      swap1\n      dup2\n      mstore\n      0x20\n      add\n      0x00\n      keccak256\n        /* \"contracts/business/DutchAuctionHouse.sol\":4637:4670  auctionItems[itemId].dropInterval */\n      0x07\n      add\n        /* \"contracts/business/DutchAuctionHouse.sol\":4637:4686  auctionItems[itemId].dropInterval = _dropInterval */\n      dup2\n      swap1\n      sstore\n      pop\n        /* \"contracts/business/DutchAuctionHouse.sol\":4768:4781  _dropInterval */\n      dup2\n        /* \"contracts/business/DutchAuctionHouse.sol\":4756:4767  _duringTime */\n      dup4\n        /* \"contracts/business/DutchAuctionHouse.sol\":4756:4781  _duringTime/_dropInterval */\n      tag_128\n      swap2\n      swap1\n      tag_129\n      jump\t// in\n    tag_128:\n        /* \"contracts/business/DutchAuctionHouse.sol\":4742:4751  _endPrice */\n      dup6\n        /* \"contracts/business/DutchAuctionHouse.sol\":4730:4741  _startPrice */\n      dup8\n        /* \"contracts/business/DutchAuctionHouse.sol\":4730:4751  _startPrice-_endPrice */\n      tag_130\n      swap2\n      swap1\n      tag_131\n      jump\t// in\n    tag_130:\n        /* \"contracts/business/DutchAuctionHouse.sol\":4729:4782  (_startPrice-_endPrice) / (_duringTime/_dropInterval) */\n      tag_132\n      swap2\n      swap1\n      tag_129\n      jump\t// in\n    tag_132:\n        /* \"contracts/business/DutchAuctionHouse.sol\":4696:4708  auctionItems */\n      0x01\n        /* \"contracts/business/DutchAuctionHouse.sol\":4696:4716  auctionItems[itemId] */\n      0x00\n        /* \"contracts/business/DutchAuctionHouse.sol\":4709:4715  itemId */\n      dup10\n        /* \"contracts/business/DutchAuctionHouse.sol\":4696:4716  auctionItems[itemId] */\n      dup2\n      mstore\n      0x20\n      add\n      swap1\n      dup2\n      mstore\n      0x20\n      add\n      0x00\n      keccak256\n        /* \"contracts/business/DutchAuctionHouse.sol\":4696:4726  auctionItems[itemId].stepPrice */\n      0x08\n      add\n        /* \"contracts/business/DutchAuctionHouse.sol\":4696:4782  auctionItems[itemId].stepPrice = (_startPrice-_endPrice) / (_duringTime/_dropInterval) */\n      dup2\n      swap1\n      sstore\n      pop\n        /* \"contracts/business/DutchAuctionHouse.sol\":3953:4789  {... */\n      pop\n        /* \"contracts/business/DutchAuctionHouse.sol\":3593:4789  function createAuction(... */\n      pop\n      pop\n      pop\n      pop\n      pop\n      pop\n      jump\t// out\n        /* \"contracts/business/DutchAuctionHouse.sol\":6940:7432  function recoverAtuctionItem(address nftAddress, uint256 tokenId) public returns (uint256) {... */\n    tag_34:\n        /* \"contracts/business/DutchAuctionHouse.sol\":7022:7029  uint256 */\n      0x00\n        /* \"contracts/business/DutchAuctionHouse.sol\":7116:7117  0 */\n      dup1\n        /* \"contracts/business/DutchAuctionHouse.sol\":7075:7091  tokenIdToItemIds */\n      0x02\n        /* \"contracts/business/DutchAuctionHouse.sol\":7075:7103  tokenIdToItemIds[nftAddress] */\n      0x00\n        /* \"contracts/business/DutchAuctionHouse.sol\":7092:7102  nftAddress */\n      dup6\n        /* \"contracts/business/DutchAuctionHouse.sol\":7075:7103  tokenIdToItemIds[nftAddress] */\n      0xffffffffffffffffffffffffffffffffffffffff\n      and\n      0xffffffffffffffffffffffffffffffffffffffff\n      and\n      dup2\n      mstore\n      0x20\n      add\n      swap1\n      dup2\n      mstore\n      0x20\n      add\n      0x00\n      keccak256\n        /* \"contracts/business/DutchAuctionHouse.sol\":7075:7112  tokenIdToItemIds[nftAddress][tokenId] */\n      0x00\n        /* \"contracts/business/DutchAuctionHouse.sol\":7104:7111  tokenId */\n      dup5\n        /* \"contracts/business/DutchAuctionHouse.sol\":7075:7112  tokenIdToItemIds[nftAddress][tokenId] */\n      dup2\n      mstore\n      0x20\n      add\n      swap1\n      dup2\n      mstore\n      0x20\n      add\n      0x00\n      keccak256\n      sload\n        /* \"contracts/business/DutchAuctionHouse.sol\":7075:7117  tokenIdToItemIds[nftAddress][tokenId] != 0 */\n      eq\n        /* \"contracts/business/DutchAuctionHouse.sol\":7071:7188  if (tokenIdToItemIds[nftAddress][tokenId] != 0) {... */\n      tag_134\n      jumpi\n        /* \"contracts/business/DutchAuctionHouse.sol\":7140:7156  tokenIdToItemIds */\n      0x02\n        /* \"contracts/business/DutchAuctionHouse.sol\":7140:7168  tokenIdToItemIds[nftAddress] */\n      0x00\n        /* \"contracts/business/DutchAuctionHouse.sol\":7157:7167  nftAddress */\n      dup5\n        /* \"contracts/business/DutchAuctionHouse.sol\":7140:7168  tokenIdToItemIds[nftAddress] */\n      0xffffffffffffffffffffffffffffffffffffffff\n      and\n      0xffffffffffffffffffffffffffffffffffffffff\n      and\n      dup2\n      mstore\n      0x20\n      add\n      swap1\n      dup2\n      mstore\n      0x20\n      add\n      0x00\n      keccak256\n        /* \"contracts/business/DutchAuctionHouse.sol\":7140:7177  tokenIdToItemIds[nftAddress][tokenId] */\n      0x00\n        /* \"contracts/business/DutchAuctionHouse.sol\":7169:7176  tokenId */\n      dup4\n        /* \"contracts/business/DutchAuctionHouse.sol\":7140:7177  tokenIdToItemIds[nftAddress][tokenId] */\n      dup2\n      mstore\n      0x20\n      add\n      swap1\n      dup2\n      mstore\n      0x20\n      add\n      0x00\n      keccak256\n      sload\n        /* \"contracts/business/DutchAuctionHouse.sol\":7133:7177  return tokenIdToItemIds[nftAddress][tokenId] */\n      swap1\n      pop\n      jump(tag_133)\n        /* \"contracts/business/DutchAuctionHouse.sol\":7071:7188  if (tokenIdToItemIds[nftAddress][tokenId] != 0) {... */\n    tag_134:\n        /* \"contracts/business/DutchAuctionHouse.sol\":7215:7245  _checkNFTWhiteList(nftAddress) */\n      tag_135\n        /* \"contracts/business/DutchAuctionHouse.sol\":7234:7244  nftAddress */\n      dup4\n        /* \"contracts/business/DutchAuctionHouse.sol\":7215:7233  _checkNFTWhiteList */\n      tag_136\n        /* \"contracts/business/DutchAuctionHouse.sol\":7215:7245  _checkNFTWhiteList(nftAddress) */\n      jump\t// in\n    tag_135:\n        /* \"contracts/business/DutchAuctionHouse.sol\":7255:7287  _checkOwner(nftAddress, tokenId) */\n      tag_137\n        /* \"contracts/business/DutchAuctionHouse.sol\":7267:7277  nftAddress */\n      dup4\n        /* \"contracts/business/DutchAuctionHouse.sol\":7279:7286  tokenId */\n      dup4\n        /* \"contracts/business/DutchAuctionHouse.sol\":7255:7266  _checkOwner */\n      tag_138\n        /* \"contracts/business/DutchAuctionHouse.sol\":7255:7287  _checkOwner(nftAddress, tokenId) */\n      jump\t// in\n    tag_137:\n        /* \"contracts/business/DutchAuctionHouse.sol\":7316:7326  nextItemId */\n      0x00\n      dup1\n        /* \"contracts/business/DutchAuctionHouse.sol\":7316:7328  nextItemId++ */\n      dup2\n      sload\n      dup1\n      swap3\n      swap2\n      swap1\n      tag_139\n      swap1\n      tag_140\n      jump\t// in\n    tag_139:\n      swap2\n      swap1\n      pop\n      sstore\n      pop\n        /* \"contracts/business/DutchAuctionHouse.sol\":7338:7398  _addAuctionItem(nftAddress, tokenId, msg.sender, nextItemId) */\n      tag_141\n        /* \"contracts/business/DutchAuctionHouse.sol\":7354:7364  nftAddress */\n      dup4\n        /* \"contracts/business/DutchAuctionHouse.sol\":7366:7373  tokenId */\n      dup4\n        /* \"contracts/business/DutchAuctionHouse.sol\":7375:7385  msg.sender */\n      caller\n        /* \"contracts/business/DutchAuctionHouse.sol\":7387:7397  nextItemId */\n      sload(0x00)\n        /* \"contracts/business/DutchAuctionHouse.sol\":7338:7353  _addAuctionItem */\n      tag_142\n        /* \"contracts/business/DutchAuctionHouse.sol\":7338:7398  _addAuctionItem(nftAddress, tokenId, msg.sender, nextItemId) */\n      jump\t// in\n    tag_141:\n        /* \"contracts/business/DutchAuctionHouse.sol\":7415:7425  nextItemId */\n      sload(0x00)\n        /* \"contracts/business/DutchAuctionHouse.sol\":7408:7425  return nextItemId */\n      swap1\n      pop\n        /* \"contracts/business/DutchAuctionHouse.sol\":6940:7432  function recoverAtuctionItem(address nftAddress, uint256 tokenId) public returns (uint256) {... */\n    tag_133:\n      swap3\n      swap2\n      pop\n      pop\n      jump\t// out\n        /* \"contracts/business/DutchAuctionHouse.sol\":11074:11177  function getBalance() external view returns (uint256) {... */\n    tag_39:\n        /* \"contracts/business/DutchAuctionHouse.sol\":11119:11126  uint256 */\n      0x00\n        /* \"contracts/business/DutchAuctionHouse.sol\":11145:11158  sellerBalance */\n      0x03\n        /* \"contracts/business/DutchAuctionHouse.sol\":11145:11170  sellerBalance[msg.sender] */\n      0x00\n        /* \"contracts/business/DutchAuctionHouse.sol\":11159:11169  msg.sender */\n      caller\n        /* \"contracts/business/DutchAuctionHouse.sol\":11145:11170  sellerBalance[msg.sender] */\n      0xffffffffffffffffffffffffffffffffffffffff\n      and\n      0xffffffffffffffffffffffffffffffffffffffff\n      and\n      dup2\n      mstore\n      0x20\n      add\n      swap1\n      dup2\n      mstore\n      0x20\n      add\n      0x00\n      keccak256\n      sload\n        /* \"contracts/business/DutchAuctionHouse.sol\":11138:11170  return sellerBalance[msg.sender] */\n      swap1\n      pop\n        /* \"contracts/business/DutchAuctionHouse.sol\":11074:11177  function getBalance() external view returns (uint256) {... */\n      swap1\n      jump\t// out\n        /* \"contracts/business/DutchAuctionHouse.sol\":4818:5322  function onERC721Received(address operator, address from, uint256 _tokenId, bytes memory data) public virtual returns (bytes4) {... */\n    tag_45:\n        /* \"contracts/business/DutchAuctionHouse.sol\":4937:4943  bytes4 */\n      0x00\n        /* \"contracts/business/DutchAuctionHouse.sol\":4955:4973  address nftAddress */\n      dup1\n        /* \"contracts/business/DutchAuctionHouse.sol\":4976:4986  msg.sender */\n      caller\n        /* \"contracts/business/DutchAuctionHouse.sol\":4955:4986  address nftAddress = msg.sender */\n      swap1\n      pop\n        /* \"contracts/business/DutchAuctionHouse.sol\":4996:5026  _checkNFTWhiteList(nftAddress) */\n      tag_145\n        /* \"contracts/business/DutchAuctionHouse.sol\":5015:5025  nftAddress */\n      dup2\n        /* \"contracts/business/DutchAuctionHouse.sol\":4996:5014  _checkNFTWhiteList */\n      tag_136\n        /* \"contracts/business/DutchAuctionHouse.sol\":4996:5026  _checkNFTWhiteList(nftAddress) */\n      jump\t// in\n    tag_145:\n        /* \"contracts/business/DutchAuctionHouse.sol\":5036:5069  _checkOwner(nftAddress, _tokenId) */\n      tag_146\n        /* \"contracts/business/DutchAuctionHouse.sol\":5048:5058  nftAddress */\n      dup2\n        /* \"contracts/business/DutchAuctionHouse.sol\":5060:5068  _tokenId */\n      dup6\n        /* \"contracts/business/DutchAuctionHouse.sol\":5036:5047  _checkOwner */\n      tag_138\n        /* \"contracts/business/DutchAuctionHouse.sol\":5036:5069  _checkOwner(nftAddress, _tokenId) */\n      jump\t// in\n    tag_146:\n        /* \"contracts/business/DutchAuctionHouse.sol\":5103:5113  nextItemId */\n      0x00\n      dup1\n        /* \"contracts/business/DutchAuctionHouse.sol\":5103:5115  nextItemId++ */\n      dup2\n      sload\n      dup1\n      swap3\n      swap2\n      swap1\n      tag_147\n      swap1\n      tag_140\n      jump\t// in\n    tag_147:\n      swap2\n      swap1\n      pop\n      sstore\n      pop\n        /* \"contracts/business/DutchAuctionHouse.sol\":5125:5184  _addAuctionItem(nftAddress, _tokenId, operator, nextItemId) */\n      tag_148\n        /* \"contracts/business/DutchAuctionHouse.sol\":5141:5151  nftAddress */\n      dup2\n        /* \"contracts/business/DutchAuctionHouse.sol\":5153:5161  _tokenId */\n      dup6\n        /* \"contracts/business/DutchAuctionHouse.sol\":5163:5171  operator */\n      dup9\n        /* \"contracts/business/DutchAuctionHouse.sol\":5173:5183  nextItemId */\n      sload(0x00)\n        /* \"contracts/business/DutchAuctionHouse.sol\":5125:5140  _addAuctionItem */\n      tag_142\n        /* \"contracts/business/DutchAuctionHouse.sol\":5125:5184  _addAuctionItem(nftAddress, _tokenId, operator, nextItemId) */\n      jump\t// in\n    tag_148:\n        /* \"contracts/business/DutchAuctionHouse.sol\":5240:5250  nextItemId */\n      sload(0x00)\n        /* \"contracts/business/DutchAuctionHouse.sol\":5230:5238  _tokenId */\n      dup5\n        /* \"contracts/business/DutchAuctionHouse.sol\":5214:5222  operator */\n      dup8\n        /* \"contracts/business/DutchAuctionHouse.sol\":5199:5257  ERC721Received(operator, from, _tokenId, nextItemId, data) */\n      0xffffffffffffffffffffffffffffffffffffffff\n      and\n      0x6778fcaa1a3680b9a79665a7194f70a23653f082d46eb1c5505ffb75d50a553b\n        /* \"contracts/business/DutchAuctionHouse.sol\":5224:5228  from */\n      dup9\n        /* \"contracts/business/DutchAuctionHouse.sol\":5252:5256  data */\n      dup8\n        /* \"contracts/business/DutchAuctionHouse.sol\":5199:5257  ERC721Received(operator, from, _tokenId, nextItemId, data) */\n      mload(0x40)\n      tag_149\n      swap3\n      swap2\n      swap1\n      tag_150\n      jump\t// in\n    tag_149:\n      mload(0x40)\n      dup1\n      swap2\n      sub\n      swap1\n      log4\n        /* \"contracts/business/DutchAuctionHouse.sol\":5274:5315  IERC721Receiver.onERC721Received.selector */\n      shl(0xe0, 0x150b7a02)\n        /* \"contracts/business/DutchAuctionHouse.sol\":5267:5315  return IERC721Receiver.onERC721Received.selector */\n      swap2\n      pop\n      pop\n        /* \"contracts/business/DutchAuctionHouse.sol\":4818:5322  function onERC721Received(address operator, address from, uint256 _tokenId, bytes memory data) public virtual returns (bytes4) {... */\n      swap5\n      swap4\n      pop\n      pop\n      pop\n      pop\n      jump\t// out\n        /* \"contracts/business/DutchAuctionHouse.sol\":12528:12623  function getProfits() external view onlyAdmin returns (uint256) {... */\n    tag_50:\n        /* \"contracts/business/DutchAuctionHouse.sol\":12583:12590  uint256 */\n      0x00\n        /* \"contracts/business/DutchAuctionHouse.sol\":2488:2493  admin */\n      0x07\n      0x00\n      swap1\n      sload\n      swap1\n      0x0100\n      exp\n      swap1\n      div\n      0xffffffffffffffffffffffffffffffffffffffff\n      and\n        /* \"contracts/business/DutchAuctionHouse.sol\":2474:2493  msg.sender == admin */\n      0xffffffffffffffffffffffffffffffffffffffff\n      and\n        /* \"contracts/business/DutchAuctionHouse.sol\":2474:2484  msg.sender */\n      caller\n        /* \"contracts/business/DutchAuctionHouse.sol\":2474:2493  msg.sender == admin */\n      0xffffffffffffffffffffffffffffffffffffffff\n      and\n      eq\n        /* \"contracts/business/DutchAuctionHouse.sol\":2466:2512  require(msg.sender == admin, \"not authorized\") */\n      tag_152\n      jumpi\n      mload(0x40)\n      0x08c379a000000000000000000000000000000000000000000000000000000000\n      dup2\n      mstore\n      0x04\n      add\n      tag_153\n      swap1\n      tag_154\n      jump\t// in\n    tag_153:\n      mload(0x40)\n      dup1\n      swap2\n      sub\n      swap1\n      revert\n    tag_152:\n        /* \"contracts/business/DutchAuctionHouse.sol\":12609:12616  profits */\n      sload(0x04)\n        /* \"contracts/business/DutchAuctionHouse.sol\":12602:12616  return profits */\n      swap1\n      pop\n        /* \"contracts/business/DutchAuctionHouse.sol\":12528:12623  function getProfits() external view onlyAdmin returns (uint256) {... */\n      swap1\n      jump\t// out\n        /* \"contracts/business/DutchAuctionHouse.sol\":11203:11672  function withdraw() external {... */\n    tag_54:\n        /* \"contracts/business/DutchAuctionHouse.sol\":11242:11257  address _sender */\n      0x00\n        /* \"contracts/business/DutchAuctionHouse.sol\":11260:11270  msg.sender */\n      caller\n        /* \"contracts/business/DutchAuctionHouse.sol\":11242:11270  address _sender = msg.sender */\n      swap1\n      pop\n        /* \"contracts/business/DutchAuctionHouse.sol\":11280:11296  uint256 _balance */\n      0x00\n        /* \"contracts/business/DutchAuctionHouse.sol\":11299:11312  sellerBalance */\n      0x03\n        /* \"contracts/business/DutchAuctionHouse.sol\":11299:11324  sellerBalance[msg.sender] */\n      0x00\n        /* \"contracts/business/DutchAuctionHouse.sol\":11313:11323  msg.sender */\n      caller\n        /* \"contracts/business/DutchAuctionHouse.sol\":11299:11324  sellerBalance[msg.sender] */\n      0xffffffffffffffffffffffffffffffffffffffff\n      and\n      0xffffffffffffffffffffffffffffffffffffffff\n      and\n      dup2\n      mstore\n      0x20\n      add\n      swap1\n      dup2\n      mstore\n      0x20\n      add\n      0x00\n      keccak256\n      sload\n        /* \"contracts/business/DutchAuctionHouse.sol\":11280:11324  uint256 _balance = sellerBalance[msg.sender] */\n      swap1\n      pop\n        /* \"contracts/business/DutchAuctionHouse.sol\":11368:11369  0 */\n      0x00\n        /* \"contracts/business/DutchAuctionHouse.sol\":11356:11364  _balance */\n      dup2\n        /* \"contracts/business/DutchAuctionHouse.sol\":11356:11369  _balance == 0 */\n      sub\n        /* \"contracts/business/DutchAuctionHouse.sol\":11352:11426  if (_balance == 0) {... */\n      tag_157\n      jumpi\n        /* \"contracts/business/DutchAuctionHouse.sol\":11385:11415  revert (\"you have no balance\") */\n      mload(0x40)\n      0x08c379a000000000000000000000000000000000000000000000000000000000\n      dup2\n      mstore\n      0x04\n      add\n      tag_158\n      swap1\n      tag_159\n      jump\t// in\n    tag_158:\n      mload(0x40)\n      dup1\n      swap2\n      sub\n      swap1\n      revert\n        /* \"contracts/business/DutchAuctionHouse.sol\":11352:11426  if (_balance == 0) {... */\n    tag_157:\n        /* \"contracts/business/DutchAuctionHouse.sol\":11479:11480  0 */\n      0x00\n        /* \"contracts/business/DutchAuctionHouse.sol\":11454:11467  sellerBalance */\n      0x03\n        /* \"contracts/business/DutchAuctionHouse.sol\":11454:11476  sellerBalance[_sender] */\n      0x00\n        /* \"contracts/business/DutchAuctionHouse.sol\":11468:11475  _sender */\n      dup5\n        /* \"contracts/business/DutchAuctionHouse.sol\":11454:11476  sellerBalance[_sender] */\n      0xffffffffffffffffffffffffffffffffffffffff\n      and\n      0xffffffffffffffffffffffffffffffffffffffff\n      and\n      dup2\n      mstore\n      0x20\n      add\n      swap1\n      dup2\n      mstore\n      0x20\n      add\n      0x00\n      keccak256\n        /* \"contracts/business/DutchAuctionHouse.sol\":11454:11480  sellerBalance[_sender] = 0 */\n      dup2\n      swap1\n      sstore\n      pop\n        /* \"contracts/business/DutchAuctionHouse.sol\":11515:11527  bool success */\n      0x00\n        /* \"contracts/business/DutchAuctionHouse.sol\":11541:11548  _sender */\n      dup3\n        /* \"contracts/business/DutchAuctionHouse.sol\":11533:11554  payable(_sender).call */\n      0xffffffffffffffffffffffffffffffffffffffff\n      and\n        /* \"contracts/business/DutchAuctionHouse.sol\":11562:11570  _balance */\n      dup3\n        /* \"contracts/business/DutchAuctionHouse.sol\":11533:11575  payable(_sender).call{value: _balance}(\"\") */\n      mload(0x40)\n      tag_160\n      swap1\n      tag_161\n      jump\t// in\n    tag_160:\n      0x00\n      mload(0x40)\n      dup1\n      dup4\n      sub\n      dup2\n      dup6\n      dup8\n      gas\n      call\n      swap3\n      pop\n      pop\n      pop\n      returndatasize\n      dup1\n      0x00\n      dup2\n      eq\n      tag_164\n      jumpi\n      mload(0x40)\n      swap2\n      pop\n      and(add(returndatasize, 0x3f), not(0x1f))\n      dup3\n      add\n      0x40\n      mstore\n      returndatasize\n      dup3\n      mstore\n      returndatasize\n      0x00\n      0x20\n      dup5\n      add\n      returndatacopy\n      jump(tag_163)\n    tag_164:\n      0x60\n      swap2\n      pop\n    tag_163:\n      pop\n        /* \"contracts/business/DutchAuctionHouse.sol\":11514:11575  (bool success, ) = payable(_sender).call{value: _balance}(\"\") */\n      pop\n      swap1\n      pop\n        /* \"contracts/business/DutchAuctionHouse.sol\":11590:11597  success */\n      dup1\n        /* \"contracts/business/DutchAuctionHouse.sol\":11585:11666  if (!success) {... */\n      tag_165\n      jumpi\n        /* \"contracts/business/DutchAuctionHouse.sol\":11637:11644  _sender */\n      dup3\n        /* \"contracts/business/DutchAuctionHouse.sol\":11646:11654  _balance */\n      dup3\n        /* \"contracts/business/DutchAuctionHouse.sol\":11620:11655  WithdrawCallFail(_sender, _balance) */\n      mload(0x40)\n      0xff47597900000000000000000000000000000000000000000000000000000000\n      dup2\n      mstore\n      0x04\n      add\n      tag_166\n      swap3\n      swap2\n      swap1\n      tag_167\n      jump\t// in\n    tag_166:\n      mload(0x40)\n      dup1\n      swap2\n      sub\n      swap1\n      revert\n        /* \"contracts/business/DutchAuctionHouse.sol\":11585:11666  if (!success) {... */\n    tag_165:\n        /* \"contracts/business/DutchAuctionHouse.sol\":11232:11672  {... */\n      pop\n      pop\n      pop\n        /* \"contracts/business/DutchAuctionHouse.sol\":11203:11672  function withdraw() external {... */\n      jump\t// out\n        /* \"contracts/business/DutchAuctionHouse.sol\":7494:7881  function auctionItemIdByTokenId(address nftAddress, uint256 tokenId) external view returns (uint256) {... */\n    tag_58:\n        /* \"contracts/business/DutchAuctionHouse.sol\":7586:7593  uint256 */\n      0x00\n        /* \"contracts/business/DutchAuctionHouse.sol\":7605:7635  _checkNFTWhiteList(nftAddress) */\n      tag_169\n        /* \"contracts/business/DutchAuctionHouse.sol\":7624:7634  nftAddress */\n      dup4\n        /* \"contracts/business/DutchAuctionHouse.sol\":7605:7623  _checkNFTWhiteList */\n      tag_136\n        /* \"contracts/business/DutchAuctionHouse.sol\":7605:7635  _checkNFTWhiteList(nftAddress) */\n      jump\t// in\n    tag_169:\n        /* \"contracts/business/DutchAuctionHouse.sol\":7645:7677  _checkOwner(nftAddress, tokenId) */\n      tag_170\n        /* \"contracts/business/DutchAuctionHouse.sol\":7657:7667  nftAddress */\n      dup4\n        /* \"contracts/business/DutchAuctionHouse.sol\":7669:7676  tokenId */\n      dup4\n        /* \"contracts/business/DutchAuctionHouse.sol\":7645:7656  _checkOwner */\n      tag_138\n        /* \"contracts/business/DutchAuctionHouse.sol\":7645:7677  _checkOwner(nftAddress, tokenId) */\n      jump\t// in\n    tag_170:\n        /* \"contracts/business/DutchAuctionHouse.sol\":7687:7701  uint256 itemId */\n      0x00\n        /* \"contracts/business/DutchAuctionHouse.sol\":7704:7720  tokenIdToItemIds */\n      0x02\n        /* \"contracts/business/DutchAuctionHouse.sol\":7704:7732  tokenIdToItemIds[nftAddress] */\n      0x00\n        /* \"contracts/business/DutchAuctionHouse.sol\":7721:7731  nftAddress */\n      dup6\n        /* \"contracts/business/DutchAuctionHouse.sol\":7704:7732  tokenIdToItemIds[nftAddress] */\n      0xffffffffffffffffffffffffffffffffffffffff\n      and\n      0xffffffffffffffffffffffffffffffffffffffff\n      and\n      dup2\n      mstore\n      0x20\n      add\n      swap1\n      dup2\n      mstore\n      0x20\n      add\n      0x00\n      keccak256\n        /* \"contracts/business/DutchAuctionHouse.sol\":7704:7741  tokenIdToItemIds[nftAddress][tokenId] */\n      0x00\n        /* \"contracts/business/DutchAuctionHouse.sol\":7733:7740  tokenId */\n      dup5\n        /* \"contracts/business/DutchAuctionHouse.sol\":7704:7741  tokenIdToItemIds[nftAddress][tokenId] */\n      dup2\n      mstore\n      0x20\n      add\n      swap1\n      dup2\n      mstore\n      0x20\n      add\n      0x00\n      keccak256\n      sload\n        /* \"contracts/business/DutchAuctionHouse.sol\":7687:7741  uint256 itemId = tokenIdToItemIds[nftAddress][tokenId] */\n      swap1\n      pop\n        /* \"contracts/business/DutchAuctionHouse.sol\":7786:7796  msg.sender */\n      caller\n        /* \"contracts/business/DutchAuctionHouse.sol\":7755:7796  auctionItems[itemId].seller != msg.sender */\n      0xffffffffffffffffffffffffffffffffffffffff\n      and\n        /* \"contracts/business/DutchAuctionHouse.sol\":7755:7767  auctionItems */\n      0x01\n        /* \"contracts/business/DutchAuctionHouse.sol\":7755:7775  auctionItems[itemId] */\n      0x00\n        /* \"contracts/business/DutchAuctionHouse.sol\":7768:7774  itemId */\n      dup4\n        /* \"contracts/business/DutchAuctionHouse.sol\":7755:7775  auctionItems[itemId] */\n      dup2\n      mstore\n      0x20\n      add\n      swap1\n      dup2\n      mstore\n      0x20\n      add\n      0x00\n      keccak256\n        /* \"contracts/business/DutchAuctionHouse.sol\":7755:7782  auctionItems[itemId].seller */\n      0x02\n      add\n      0x00\n      swap1\n      sload\n      swap1\n      0x0100\n      exp\n      swap1\n      div\n      0xffffffffffffffffffffffffffffffffffffffff\n      and\n        /* \"contracts/business/DutchAuctionHouse.sol\":7755:7796  auctionItems[itemId].seller != msg.sender */\n      0xffffffffffffffffffffffffffffffffffffffff\n      and\n      eq\n        /* \"contracts/business/DutchAuctionHouse.sol\":7751:7852  if (auctionItems[itemId].seller != msg.sender) {... */\n      tag_171\n      jumpi\n        /* \"contracts/business/DutchAuctionHouse.sol\":7839:7840  0 */\n      0x00\n        /* \"contracts/business/DutchAuctionHouse.sol\":7819:7841  AuctionItemNotFound(0) */\n      mload(0x40)\n      0x1d60399900000000000000000000000000000000000000000000000000000000\n      dup2\n      mstore\n      0x04\n      add\n      tag_172\n      swap2\n      swap1\n      tag_173\n      jump\t// in\n    tag_172:\n      mload(0x40)\n      dup1\n      swap2\n      sub\n      swap1\n      revert\n        /* \"contracts/business/DutchAuctionHouse.sol\":7751:7852  if (auctionItems[itemId].seller != msg.sender) {... */\n    tag_171:\n        /* \"contracts/business/DutchAuctionHouse.sol\":7868:7874  itemId */\n      dup1\n        /* \"contracts/business/DutchAuctionHouse.sol\":7861:7874  return itemId */\n      swap2\n      pop\n      pop\n        /* \"contracts/business/DutchAuctionHouse.sol\":7494:7881  function auctionItemIdByTokenId(address nftAddress, uint256 tokenId) external view returns (uint256) {... */\n      swap3\n      swap2\n      pop\n      pop\n      jump\t// out\n        /* \"contracts/business/DutchAuctionHouse.sol\":10868:11036  function setFeeRate(uint256 _feeRate) external onlyAdmin {... */\n    tag_64:\n        /* \"contracts/business/DutchAuctionHouse.sol\":2488:2493  admin */\n      0x07\n      0x00\n      swap1\n      sload\n      swap1\n      0x0100\n      exp\n      swap1\n      div\n      0xffffffffffffffffffffffffffffffffffffffff\n      and\n        /* \"contracts/business/DutchAuctionHouse.sol\":2474:2493  msg.sender == admin */\n      0xffffffffffffffffffffffffffffffffffffffff\n      and\n        /* \"contracts/business/DutchAuctionHouse.sol\":2474:2484  msg.sender */\n      caller\n        /* \"contracts/business/DutchAuctionHouse.sol\":2474:2493  msg.sender == admin */\n      0xffffffffffffffffffffffffffffffffffffffff\n      and\n      eq\n        /* \"contracts/business/DutchAuctionHouse.sol\":2466:2512  require(msg.sender == admin, \"not authorized\") */\n      tag_175\n      jumpi\n      mload(0x40)\n      0x08c379a000000000000000000000000000000000000000000000000000000000\n      dup2\n      mstore\n      0x04\n      add\n      tag_176\n      swap1\n      tag_154\n      jump\t// in\n    tag_176:\n      mload(0x40)\n      dup1\n      swap2\n      sub\n      swap1\n      revert\n    tag_175:\n        /* \"contracts/business/DutchAuctionHouse.sol\":10955:10959  2000 */\n      0x07d0\n        /* \"contracts/business/DutchAuctionHouse.sol\":10943:10951  _feeRate */\n      dup2\n        /* \"contracts/business/DutchAuctionHouse.sol\":10943:10959  _feeRate <= 2000 */\n      gt\n      iszero\n        /* \"contracts/business/DutchAuctionHouse.sol\":10935:10981  require(_feeRate <= 2000, \"fee rate too high\") */\n      tag_178\n      jumpi\n      mload(0x40)\n      0x08c379a000000000000000000000000000000000000000000000000000000000\n      dup2\n      mstore\n      0x04\n      add\n      tag_179\n      swap1\n      tag_180\n      jump\t// in\n    tag_179:\n      mload(0x40)\n      dup1\n      swap2\n      sub\n      swap1\n      revert\n    tag_178:\n        /* \"contracts/business/DutchAuctionHouse.sol\":11021:11029  _feeRate */\n      dup1\n        /* \"contracts/business/DutchAuctionHouse.sol\":11011:11018  feeRate */\n      0x05\n        /* \"contracts/business/DutchAuctionHouse.sol\":11011:11029  feeRate = _feeRate */\n      dup2\n      swap1\n      sstore\n      pop\n        /* \"contracts/business/DutchAuctionHouse.sol\":10868:11036  function setFeeRate(uint256 _feeRate) external onlyAdmin {... */\n      pop\n      jump\t// out\n        /* \"contracts/business/DutchAuctionHouse.sol\":9350:10677  function bidAuction(uint256 itemId) external payable {... */\n    tag_67:\n        /* \"contracts/business/DutchAuctionHouse.sol\":9431:9455  _checkItemExists(itemId) */\n      tag_182\n        /* \"contracts/business/DutchAuctionHouse.sol\":9448:9454  itemId */\n      dup2\n        /* \"contracts/business/DutchAuctionHouse.sol\":9431:9447  _checkItemExists */\n      tag_183\n        /* \"contracts/business/DutchAuctionHouse.sol\":9431:9455  _checkItemExists(itemId) */\n      jump\t// in\n    tag_182:\n        /* \"contracts/business/DutchAuctionHouse.sol\":9517:9529  auctionItems */\n      0x01\n        /* \"contracts/business/DutchAuctionHouse.sol\":9517:9537  auctionItems[itemId] */\n      0x00\n        /* \"contracts/business/DutchAuctionHouse.sol\":9530:9536  itemId */\n      dup3\n        /* \"contracts/business/DutchAuctionHouse.sol\":9517:9537  auctionItems[itemId] */\n      dup2\n      mstore\n      0x20\n      add\n      swap1\n      dup2\n      mstore\n      0x20\n      add\n      0x00\n      keccak256\n        /* \"contracts/business/DutchAuctionHouse.sol\":9517:9547  auctionItems[itemId].startTime */\n      0x05\n      add\n      sload\n        /* \"contracts/business/DutchAuctionHouse.sol\":9499:9514  block.timestamp */\n      timestamp\n        /* \"contracts/business/DutchAuctionHouse.sol\":9499:9547  block.timestamp < auctionItems[itemId].startTime */\n      lt\n        /* \"contracts/business/DutchAuctionHouse.sol\":9495:9632  if (block.timestamp < auctionItems[itemId].startTime) {... */\n      iszero\n      tag_184\n      jumpi\n        /* \"contracts/business/DutchAuctionHouse.sol\":9570:9621  InvalidAuctionParameters(\"auction not started yet\") */\n      mload(0x40)\n      0x17e268cd00000000000000000000000000000000000000000000000000000000\n      dup2\n      mstore\n      0x04\n      add\n      tag_185\n      swap1\n      tag_186\n      jump\t// in\n    tag_185:\n      mload(0x40)\n      dup1\n      swap2\n      sub\n      swap1\n      revert\n        /* \"contracts/business/DutchAuctionHouse.sol\":9495:9632  if (block.timestamp < auctionItems[itemId].startTime) {... */\n    tag_184:\n        /* \"contracts/business/DutchAuctionHouse.sol\":9671:9696  _checkItemNotSale(itemId) */\n      tag_187\n        /* \"contracts/business/DutchAuctionHouse.sol\":9689:9695  itemId */\n      dup2\n        /* \"contracts/business/DutchAuctionHouse.sol\":9671:9688  _checkItemNotSale */\n      tag_127\n        /* \"contracts/business/DutchAuctionHouse.sol\":9671:9696  _checkItemNotSale(itemId) */\n      jump\t// in\n    tag_187:\n        /* \"contracts/business/DutchAuctionHouse.sol\":9730:9750  uint256 auctionPrice */\n      0x00\n        /* \"contracts/business/DutchAuctionHouse.sol\":9753:9776  getAuctionPrice(itemId) */\n      tag_188\n        /* \"contracts/business/DutchAuctionHouse.sol\":9769:9775  itemId */\n      dup3\n        /* \"contracts/business/DutchAuctionHouse.sol\":9753:9768  getAuctionPrice */\n      tag_80\n        /* \"contracts/business/DutchAuctionHouse.sol\":9753:9776  getAuctionPrice(itemId) */\n      jump\t// in\n    tag_188:\n        /* \"contracts/business/DutchAuctionHouse.sol\":9730:9776  uint256 auctionPrice = getAuctionPrice(itemId) */\n      swap1\n      pop\n        /* \"contracts/business/DutchAuctionHouse.sol\":9802:9814  auctionPrice */\n      dup1\n        /* \"contracts/business/DutchAuctionHouse.sol\":9790:9799  msg.value */\n      callvalue\n        /* \"contracts/business/DutchAuctionHouse.sol\":9790:9814  msg.value < auctionPrice */\n      lt\n        /* \"contracts/business/DutchAuctionHouse.sol\":9786:9894  if (msg.value < auctionPrice) {... */\n      iszero\n      tag_189\n      jumpi\n        /* \"contracts/business/DutchAuctionHouse.sol\":9859:9871  auctionPrice */\n      dup1\n        /* \"contracts/business/DutchAuctionHouse.sol\":9873:9882  msg.value */\n      callvalue\n        /* \"contracts/business/DutchAuctionHouse.sol\":9837:9883  AuctionPriceNotEnough(auctionPrice, msg.value) */\n      mload(0x40)\n      0x09f1801c00000000000000000000000000000000000000000000000000000000\n      dup2\n      mstore\n      0x04\n      add\n      tag_190\n      swap3\n      swap2\n      swap1\n      tag_191\n      jump\t// in\n    tag_190:\n      mload(0x40)\n      dup1\n      swap2\n      sub\n      swap1\n      revert\n        /* \"contracts/business/DutchAuctionHouse.sol\":9786:9894  if (msg.value < auctionPrice) {... */\n    tag_189:\n        /* \"contracts/business/DutchAuctionHouse.sol\":9951:9961  msg.sender */\n      caller\n        /* \"contracts/business/DutchAuctionHouse.sol\":9922:9934  auctionItems */\n      0x01\n        /* \"contracts/business/DutchAuctionHouse.sol\":9922:9942  auctionItems[itemId] */\n      0x00\n        /* \"contracts/business/DutchAuctionHouse.sol\":9935:9941  itemId */\n      dup5\n        /* \"contracts/business/DutchAuctionHouse.sol\":9922:9942  auctionItems[itemId] */\n      dup2\n      mstore\n      0x20\n      add\n      swap1\n      dup2\n      mstore\n      0x20\n      add\n      0x00\n      keccak256\n        /* \"contracts/business/DutchAuctionHouse.sol\":9922:9948  auctionItems[itemId].bider */\n      0x09\n      add\n      0x00\n        /* \"contracts/business/DutchAuctionHouse.sol\":9922:9961  auctionItems[itemId].bider = msg.sender */\n      0x0100\n      exp\n      dup2\n      sload\n      dup2\n      0xffffffffffffffffffffffffffffffffffffffff\n      mul\n      not\n      and\n      swap1\n      dup4\n      0xffffffffffffffffffffffffffffffffffffffff\n      and\n      mul\n      or\n      swap1\n      sstore\n      pop\n        /* \"contracts/business/DutchAuctionHouse.sol\":10007:10019  auctionPrice */\n      dup1\n        /* \"contracts/business/DutchAuctionHouse.sol\":9971:9983  auctionItems */\n      0x01\n        /* \"contracts/business/DutchAuctionHouse.sol\":9971:9991  auctionItems[itemId] */\n      0x00\n        /* \"contracts/business/DutchAuctionHouse.sol\":9984:9990  itemId */\n      dup5\n        /* \"contracts/business/DutchAuctionHouse.sol\":9971:9991  auctionItems[itemId] */\n      dup2\n      mstore\n      0x20\n      add\n      swap1\n      dup2\n      mstore\n      0x20\n      add\n      0x00\n      keccak256\n        /* \"contracts/business/DutchAuctionHouse.sol\":9971:10004  auctionItems[itemId].auctionPrice */\n      0x0a\n      add\n        /* \"contracts/business/DutchAuctionHouse.sol\":9971:10019  auctionItems[itemId].auctionPrice = auctionPrice */\n      dup2\n      swap1\n      sstore\n      pop\n        /* \"contracts/business/DutchAuctionHouse.sol\":10029:10048  IERC721 nftContract */\n      0x00\n        /* \"contracts/business/DutchAuctionHouse.sol\":10051:10063  auctionItems */\n      0x01\n        /* \"contracts/business/DutchAuctionHouse.sol\":10051:10071  auctionItems[itemId] */\n      0x00\n        /* \"contracts/business/DutchAuctionHouse.sol\":10064:10070  itemId */\n      dup5\n        /* \"contracts/business/DutchAuctionHouse.sol\":10051:10071  auctionItems[itemId] */\n      dup2\n      mstore\n      0x20\n      add\n      swap1\n      dup2\n      mstore\n      0x20\n      add\n      0x00\n      keccak256\n        /* \"contracts/business/DutchAuctionHouse.sol\":10051:10083  auctionItems[itemId].nftContract */\n      0x00\n      add\n      0x00\n      swap1\n      sload\n      swap1\n      0x0100\n      exp\n      swap1\n      div\n      0xffffffffffffffffffffffffffffffffffffffff\n      and\n        /* \"contracts/business/DutchAuctionHouse.sol\":10029:10083  IERC721 nftContract = auctionItems[itemId].nftContract */\n      swap1\n      pop\n        /* \"contracts/business/DutchAuctionHouse.sol\":10093:10108  uint256 tokenId */\n      0x00\n        /* \"contracts/business/DutchAuctionHouse.sol\":10111:10123  auctionItems */\n      0x01\n        /* \"contracts/business/DutchAuctionHouse.sol\":10111:10131  auctionItems[itemId] */\n      0x00\n        /* \"contracts/business/DutchAuctionHouse.sol\":10124:10130  itemId */\n      dup6\n        /* \"contracts/business/DutchAuctionHouse.sol\":10111:10131  auctionItems[itemId] */\n      dup2\n      mstore\n      0x20\n      add\n      swap1\n      dup2\n      mstore\n      0x20\n      add\n      0x00\n      keccak256\n        /* \"contracts/business/DutchAuctionHouse.sol\":10111:10139  auctionItems[itemId].tokenId */\n      0x01\n      add\n      sload\n        /* \"contracts/business/DutchAuctionHouse.sol\":10093:10139  uint256 tokenId = auctionItems[itemId].tokenId */\n      swap1\n      pop\n        /* \"contracts/business/DutchAuctionHouse.sol\":10156:10172  tokenIdToItemIds */\n      0x02\n        /* \"contracts/business/DutchAuctionHouse.sol\":10156:10194  tokenIdToItemIds[address(nftContract)] */\n      0x00\n        /* \"contracts/business/DutchAuctionHouse.sol\":10181:10192  nftContract */\n      dup4\n        /* \"contracts/business/DutchAuctionHouse.sol\":10156:10194  tokenIdToItemIds[address(nftContract)] */\n      0xffffffffffffffffffffffffffffffffffffffff\n      and\n      0xffffffffffffffffffffffffffffffffffffffff\n      and\n      dup2\n      mstore\n      0x20\n      add\n      swap1\n      dup2\n      mstore\n      0x20\n      add\n      0x00\n      keccak256\n        /* \"contracts/business/DutchAuctionHouse.sol\":10156:10203  tokenIdToItemIds[address(nftContract)][tokenId] */\n      0x00\n        /* \"contracts/business/DutchAuctionHouse.sol\":10195:10202  tokenId */\n      dup3\n        /* \"contracts/business/DutchAuctionHouse.sol\":10156:10203  tokenIdToItemIds[address(nftContract)][tokenId] */\n      dup2\n      mstore\n      0x20\n      add\n      swap1\n      dup2\n      mstore\n      0x20\n      add\n      0x00\n      keccak256\n        /* \"contracts/business/DutchAuctionHouse.sol\":10149:10203  delete tokenIdToItemIds[address(nftContract)][tokenId] */\n      0x00\n      swap1\n      sstore\n        /* \"contracts/business/DutchAuctionHouse.sol\":10237:10251  address seller */\n      0x00\n        /* \"contracts/business/DutchAuctionHouse.sol\":10254:10266  auctionItems */\n      0x01\n        /* \"contracts/business/DutchAuctionHouse.sol\":10254:10274  auctionItems[itemId] */\n      0x00\n        /* \"contracts/business/DutchAuctionHouse.sol\":10267:10273  itemId */\n      dup7\n        /* \"contracts/business/DutchAuctionHouse.sol\":10254:10274  auctionItems[itemId] */\n      dup2\n      mstore\n      0x20\n      add\n      swap1\n      dup2\n      mstore\n      0x20\n      add\n      0x00\n      keccak256\n        /* \"contracts/business/DutchAuctionHouse.sol\":10254:10281  auctionItems[itemId].seller */\n      0x02\n      add\n      0x00\n      swap1\n      sload\n      swap1\n      0x0100\n      exp\n      swap1\n      div\n      0xffffffffffffffffffffffffffffffffffffffff\n      and\n        /* \"contracts/business/DutchAuctionHouse.sol\":10237:10281  address seller = auctionItems[itemId].seller */\n      swap1\n      pop\n        /* \"contracts/business/DutchAuctionHouse.sol\":10291:10305  uint256 profit */\n      0x00\n        /* \"contracts/business/DutchAuctionHouse.sol\":10308:10332  calcProfit(auctionPrice) */\n      tag_192\n        /* \"contracts/business/DutchAuctionHouse.sol\":10319:10331  auctionPrice */\n      dup6\n        /* \"contracts/business/DutchAuctionHouse.sol\":10308:10318  calcProfit */\n      tag_193\n        /* \"contracts/business/DutchAuctionHouse.sol\":10308:10332  calcProfit(auctionPrice) */\n      jump\t// in\n    tag_192:\n        /* \"contracts/business/DutchAuctionHouse.sol\":10291:10332  uint256 profit = calcProfit(auctionPrice) */\n      swap1\n      pop\n        /* \"contracts/business/DutchAuctionHouse.sol\":10353:10359  profit */\n      dup1\n        /* \"contracts/business/DutchAuctionHouse.sol\":10342:10349  profits */\n      0x04\n      0x00\n        /* \"contracts/business/DutchAuctionHouse.sol\":10342:10359  profits += profit */\n      dup3\n      dup3\n      sload\n      tag_194\n      swap2\n      swap1\n      tag_195\n      jump\t// in\n    tag_194:\n      swap3\n      pop\n      pop\n      dup2\n      swap1\n      sstore\n      pop\n        /* \"contracts/business/DutchAuctionHouse.sol\":10408:10414  profit */\n      dup1\n        /* \"contracts/business/DutchAuctionHouse.sol\":10395:10407  auctionPrice */\n      dup6\n        /* \"contracts/business/DutchAuctionHouse.sol\":10395:10414  auctionPrice-profit */\n      tag_196\n      swap2\n      swap1\n      tag_131\n      jump\t// in\n    tag_196:\n        /* \"contracts/business/DutchAuctionHouse.sol\":10369:10382  sellerBalance */\n      0x03\n        /* \"contracts/business/DutchAuctionHouse.sol\":10369:10390  sellerBalance[seller] */\n      0x00\n        /* \"contracts/business/DutchAuctionHouse.sol\":10383:10389  seller */\n      dup5\n        /* \"contracts/business/DutchAuctionHouse.sol\":10369:10390  sellerBalance[seller] */\n      0xffffffffffffffffffffffffffffffffffffffff\n      and\n      0xffffffffffffffffffffffffffffffffffffffff\n      and\n      dup2\n      mstore\n      0x20\n      add\n      swap1\n      dup2\n      mstore\n      0x20\n      add\n      0x00\n      keccak256\n      0x00\n        /* \"contracts/business/DutchAuctionHouse.sol\":10369:10415  sellerBalance[seller] += (auctionPrice-profit) */\n      dup3\n      dup3\n      sload\n      tag_197\n      swap2\n      swap1\n      tag_195\n      jump\t// in\n    tag_197:\n      swap3\n      pop\n      pop\n      dup2\n      swap1\n      sstore\n      pop\n        /* \"contracts/business/DutchAuctionHouse.sol\":10449:10461  auctionItems */\n      0x01\n        /* \"contracts/business/DutchAuctionHouse.sol\":10449:10469  auctionItems[itemId] */\n      0x00\n        /* \"contracts/business/DutchAuctionHouse.sol\":10462:10468  itemId */\n      dup8\n        /* \"contracts/business/DutchAuctionHouse.sol\":10449:10469  auctionItems[itemId] */\n      dup2\n      mstore\n      0x20\n      add\n      swap1\n      dup2\n      mstore\n      0x20\n      add\n      0x00\n      keccak256\n        /* \"contracts/business/DutchAuctionHouse.sol\":10449:10481  auctionItems[itemId].nftContract */\n      0x00\n      add\n      0x00\n      swap1\n      sload\n      swap1\n      0x0100\n      exp\n      swap1\n      div\n      0xffffffffffffffffffffffffffffffffffffffff\n      and\n        /* \"contracts/business/DutchAuctionHouse.sol\":10449:10498  auctionItems[itemId].nftContract.safeTransferFrom */\n      0xffffffffffffffffffffffffffffffffffffffff\n      and\n      0x42842e0e\n        /* \"contracts/business/DutchAuctionHouse.sol\":10507:10511  this */\n      address\n        /* \"contracts/business/DutchAuctionHouse.sol\":10514:10524  msg.sender */\n      caller\n        /* \"contracts/business/DutchAuctionHouse.sol\":10526:10533  tokenId */\n      dup7\n        /* \"contracts/business/DutchAuctionHouse.sol\":10449:10534  auctionItems[itemId].nftContract.safeTransferFrom(address(this), msg.sender, tokenId) */\n      mload(0x40)\n      dup5\n      0xffffffff\n      and\n      0xe0\n      shl\n      dup2\n      mstore\n      0x04\n      add\n      tag_198\n      swap4\n      swap3\n      swap2\n      swap1\n      tag_199\n      jump\t// in\n    tag_198:\n      0x00\n      mload(0x40)\n      dup1\n      dup4\n      sub\n      dup2\n      0x00\n      dup8\n      dup1\n      extcodesize\n      iszero\n      dup1\n      iszero\n      tag_200\n      jumpi\n      0x00\n      dup1\n      revert\n    tag_200:\n      pop\n      gas\n      call\n      iszero\n      dup1\n      iszero\n      tag_202\n      jumpi\n      returndatasize\n      0x00\n      dup1\n      returndatacopy\n      revert(0x00, returndatasize)\n    tag_202:\n      pop\n      pop\n      pop\n      pop\n        /* \"contracts/business/DutchAuctionHouse.sol\":10578:10590  auctionPrice */\n      dup5\n        /* \"contracts/business/DutchAuctionHouse.sol\":10566:10575  msg.value */\n      callvalue\n        /* \"contracts/business/DutchAuctionHouse.sol\":10566:10590  msg.value > auctionPrice */\n      gt\n        /* \"contracts/business/DutchAuctionHouse.sol\":10562:10671  if (msg.value > auctionPrice) {... */\n      iszero\n      tag_203\n      jumpi\n        /* \"contracts/business/DutchAuctionHouse.sol\":10614:10624  msg.sender */\n      caller\n        /* \"contracts/business/DutchAuctionHouse.sol\":10606:10634  payable(msg.sender).transfer */\n      0xffffffffffffffffffffffffffffffffffffffff\n      and\n        /* \"contracts/business/DutchAuctionHouse.sol\":10606:10660  payable(msg.sender).transfer(msg.value - auctionPrice) */\n      0x08fc\n        /* \"contracts/business/DutchAuctionHouse.sol\":10647:10659  auctionPrice */\n      dup7\n        /* \"contracts/business/DutchAuctionHouse.sol\":10635:10644  msg.value */\n      callvalue\n        /* \"contracts/business/DutchAuctionHouse.sol\":10635:10659  msg.value - auctionPrice */\n      tag_204\n      swap2\n      swap1\n      tag_131\n      jump\t// in\n    tag_204:\n        /* \"contracts/business/DutchAuctionHouse.sol\":10606:10660  payable(msg.sender).transfer(msg.value - auctionPrice) */\n      swap1\n      dup2\n      iszero\n      mul\n      swap1\n      mload(0x40)\n      0x00\n      mload(0x40)\n      dup1\n      dup4\n      sub\n      dup2\n      dup6\n      dup9\n      dup9\n      call\n      swap4\n      pop\n      pop\n      pop\n      pop\n      iszero\n      dup1\n      iszero\n      tag_206\n      jumpi\n      returndatasize\n      0x00\n      dup1\n      returndatacopy\n      revert(0x00, returndatasize)\n    tag_206:\n      pop\n        /* \"contracts/business/DutchAuctionHouse.sol\":10562:10671  if (msg.value > auctionPrice) {... */\n    tag_203:\n        /* \"contracts/business/DutchAuctionHouse.sol\":9403:10677  {... */\n      pop\n      pop\n      pop\n      pop\n      pop\n        /* \"contracts/business/DutchAuctionHouse.sol\":9350:10677  function bidAuction(uint256 itemId) external payable {... */\n      pop\n      jump\t// out\n        /* \"contracts/business/DutchAuctionHouse.sol\":1826:1855  uint256 public nextItemId = 0 */\n    tag_70:\n      sload(0x00)\n      dup2\n      jump\t// out\n        /* \"contracts/business/DutchAuctionHouse.sol\":6359:6824  function getItemId(address nftAddress, uint256 tokenId) external returns (uint256) {... */\n    tag_75:\n        /* \"contracts/business/DutchAuctionHouse.sol\":6433:6440  uint256 */\n      0x00\n        /* \"contracts/business/DutchAuctionHouse.sol\":6497:6498  0 */\n      dup1\n        /* \"contracts/business/DutchAuctionHouse.sol\":6456:6472  tokenIdToItemIds */\n      0x02\n        /* \"contracts/business/DutchAuctionHouse.sol\":6456:6484  tokenIdToItemIds[nftAddress] */\n      0x00\n        /* \"contracts/business/DutchAuctionHouse.sol\":6473:6483  nftAddress */\n      dup6\n        /* \"contracts/business/DutchAuctionHouse.sol\":6456:6484  tokenIdToItemIds[nftAddress] */\n      0xffffffffffffffffffffffffffffffffffffffff\n      and\n      0xffffffffffffffffffffffffffffffffffffffff\n      and\n      dup2\n      mstore\n      0x20\n      add\n      swap1\n      dup2\n      mstore\n      0x20\n      add\n      0x00\n      keccak256\n        /* \"contracts/business/DutchAuctionHouse.sol\":6456:6493  tokenIdToItemIds[nftAddress][tokenId] */\n      0x00\n        /* \"contracts/business/DutchAuctionHouse.sol\":6485:6492  tokenId */\n      dup5\n        /* \"contracts/business/DutchAuctionHouse.sol\":6456:6493  tokenIdToItemIds[nftAddress][tokenId] */\n      dup2\n      mstore\n      0x20\n      add\n      swap1\n      dup2\n      mstore\n      0x20\n      add\n      0x00\n      keccak256\n      sload\n        /* \"contracts/business/DutchAuctionHouse.sol\":6456:6498  tokenIdToItemIds[nftAddress][tokenId] != 0 */\n      eq\n        /* \"contracts/business/DutchAuctionHouse.sol\":6452:6818  if (tokenIdToItemIds[nftAddress][tokenId] != 0) {... */\n      tag_208\n      jumpi\n        /* \"contracts/business/DutchAuctionHouse.sol\":6601:6617  tokenIdToItemIds */\n      0x02\n        /* \"contracts/business/DutchAuctionHouse.sol\":6601:6629  tokenIdToItemIds[nftAddress] */\n      0x00\n        /* \"contracts/business/DutchAuctionHouse.sol\":6618:6628  nftAddress */\n      dup5\n        /* \"contracts/business/DutchAuctionHouse.sol\":6601:6629  tokenIdToItemIds[nftAddress] */\n      0xffffffffffffffffffffffffffffffffffffffff\n      and\n      0xffffffffffffffffffffffffffffffffffffffff\n      and\n      dup2\n      mstore\n      0x20\n      add\n      swap1\n      dup2\n      mstore\n      0x20\n      add\n      0x00\n      keccak256\n        /* \"contracts/business/DutchAuctionHouse.sol\":6601:6638  tokenIdToItemIds[nftAddress][tokenId] */\n      0x00\n        /* \"contracts/business/DutchAuctionHouse.sol\":6630:6637  tokenId */\n      dup4\n        /* \"contracts/business/DutchAuctionHouse.sol\":6601:6638  tokenIdToItemIds[nftAddress][tokenId] */\n      dup2\n      mstore\n      0x20\n      add\n      swap1\n      dup2\n      mstore\n      0x20\n      add\n      0x00\n      keccak256\n      sload\n        /* \"contracts/business/DutchAuctionHouse.sol\":6594:6638  return tokenIdToItemIds[nftAddress][tokenId] */\n      swap1\n      pop\n      jump(tag_207)\n        /* \"contracts/business/DutchAuctionHouse.sol\":6452:6818  if (tokenIdToItemIds[nftAddress][tokenId] != 0) {... */\n    tag_208:\n        /* \"contracts/business/DutchAuctionHouse.sol\":6767:6807  recoverAtuctionItem(nftAddress, tokenId) */\n      tag_210\n        /* \"contracts/business/DutchAuctionHouse.sol\":6787:6797  nftAddress */\n      dup4\n        /* \"contracts/business/DutchAuctionHouse.sol\":6799:6806  tokenId */\n      dup4\n        /* \"contracts/business/DutchAuctionHouse.sol\":6767:6786  recoverAtuctionItem */\n      tag_34\n        /* \"contracts/business/DutchAuctionHouse.sol\":6767:6807  recoverAtuctionItem(nftAddress, tokenId) */\n      jump\t// in\n    tag_210:\n        /* \"contracts/business/DutchAuctionHouse.sol\":6760:6807  return recoverAtuctionItem(nftAddress, tokenId) */\n      swap1\n      pop\n        /* \"contracts/business/DutchAuctionHouse.sol\":6359:6824  function getItemId(address nftAddress, uint256 tokenId) external returns (uint256) {... */\n    tag_207:\n      swap3\n      swap2\n      pop\n      pop\n      jump\t// out\n        /* \"contracts/business/DutchAuctionHouse.sol\":7913:8898  function getAuctionPrice(uint256 itemId) public view returns (uint256) {... */\n    tag_80:\n        /* \"contracts/business/DutchAuctionHouse.sol\":7975:7982  uint256 */\n      0x00\n        /* \"contracts/business/DutchAuctionHouse.sol\":8022:8046  _checkItemExists(itemId) */\n      tag_212\n        /* \"contracts/business/DutchAuctionHouse.sol\":8039:8045  itemId */\n      dup3\n        /* \"contracts/business/DutchAuctionHouse.sol\":8022:8038  _checkItemExists */\n      tag_183\n        /* \"contracts/business/DutchAuctionHouse.sol\":8022:8046  _checkItemExists(itemId) */\n      jump\t// in\n    tag_212:\n        /* \"contracts/business/DutchAuctionHouse.sol\":8086:8111  _checkItemNotSale(itemId) */\n      tag_213\n        /* \"contracts/business/DutchAuctionHouse.sol\":8104:8110  itemId */\n      dup3\n        /* \"contracts/business/DutchAuctionHouse.sol\":8086:8103  _checkItemNotSale */\n      tag_127\n        /* \"contracts/business/DutchAuctionHouse.sol\":8086:8111  _checkItemNotSale(itemId) */\n      jump\t// in\n    tag_213:\n        /* \"contracts/business/DutchAuctionHouse.sol\":8121:8140  uint256 _startPrice */\n      0x00\n        /* \"contracts/business/DutchAuctionHouse.sol\":8143:8155  auctionItems */\n      0x01\n        /* \"contracts/business/DutchAuctionHouse.sol\":8143:8163  auctionItems[itemId] */\n      0x00\n        /* \"contracts/business/DutchAuctionHouse.sol\":8156:8162  itemId */\n      dup5\n        /* \"contracts/business/DutchAuctionHouse.sol\":8143:8163  auctionItems[itemId] */\n      dup2\n      mstore\n      0x20\n      add\n      swap1\n      dup2\n      mstore\n      0x20\n      add\n      0x00\n      keccak256\n        /* \"contracts/business/DutchAuctionHouse.sol\":8143:8174  auctionItems[itemId].startPrice */\n      0x03\n      add\n      sload\n        /* \"contracts/business/DutchAuctionHouse.sol\":8121:8174  uint256 _startPrice = auctionItems[itemId].startPrice */\n      swap1\n      pop\n        /* \"contracts/business/DutchAuctionHouse.sol\":8184:8201  uint256 _endPrice */\n      0x00\n        /* \"contracts/business/DutchAuctionHouse.sol\":8204:8216  auctionItems */\n      0x01\n        /* \"contracts/business/DutchAuctionHouse.sol\":8204:8224  auctionItems[itemId] */\n      0x00\n        /* \"contracts/business/DutchAuctionHouse.sol\":8217:8223  itemId */\n      dup6\n        /* \"contracts/business/DutchAuctionHouse.sol\":8204:8224  auctionItems[itemId] */\n      dup2\n      mstore\n      0x20\n      add\n      swap1\n      dup2\n      mstore\n      0x20\n      add\n      0x00\n      keccak256\n        /* \"contracts/business/DutchAuctionHouse.sol\":8204:8233  auctionItems[itemId].endPrice */\n      0x04\n      add\n      sload\n        /* \"contracts/business/DutchAuctionHouse.sol\":8184:8233  uint256 _endPrice = auctionItems[itemId].endPrice */\n      swap1\n      pop\n        /* \"contracts/business/DutchAuctionHouse.sol\":8243:8261  uint256 _startTime */\n      0x00\n        /* \"contracts/business/DutchAuctionHouse.sol\":8264:8276  auctionItems */\n      0x01\n        /* \"contracts/business/DutchAuctionHouse.sol\":8264:8284  auctionItems[itemId] */\n      0x00\n        /* \"contracts/business/DutchAuctionHouse.sol\":8277:8283  itemId */\n      dup7\n        /* \"contracts/business/DutchAuctionHouse.sol\":8264:8284  auctionItems[itemId] */\n      dup2\n      mstore\n      0x20\n      add\n      swap1\n      dup2\n      mstore\n      0x20\n      add\n      0x00\n      keccak256\n        /* \"contracts/business/DutchAuctionHouse.sol\":8264:8294  auctionItems[itemId].startTime */\n      0x05\n      add\n      sload\n        /* \"contracts/business/DutchAuctionHouse.sol\":8243:8294  uint256 _startTime = auctionItems[itemId].startTime */\n      swap1\n      pop\n        /* \"contracts/business/DutchAuctionHouse.sol\":8304:8323  uint256 _duringTime */\n      0x00\n        /* \"contracts/business/DutchAuctionHouse.sol\":8326:8338  auctionItems */\n      0x01\n        /* \"contracts/business/DutchAuctionHouse.sol\":8326:8346  auctionItems[itemId] */\n      0x00\n        /* \"contracts/business/DutchAuctionHouse.sol\":8339:8345  itemId */\n      dup8\n        /* \"contracts/business/DutchAuctionHouse.sol\":8326:8346  auctionItems[itemId] */\n      dup2\n      mstore\n      0x20\n      add\n      swap1\n      dup2\n      mstore\n      0x20\n      add\n      0x00\n      keccak256\n        /* \"contracts/business/DutchAuctionHouse.sol\":8326:8357  auctionItems[itemId].duringTime */\n      0x06\n      add\n      sload\n        /* \"contracts/business/DutchAuctionHouse.sol\":8304:8357  uint256 _duringTime = auctionItems[itemId].duringTime */\n      swap1\n      pop\n        /* \"contracts/business/DutchAuctionHouse.sol\":8367:8388  uint256 _dropInterval */\n      0x00\n        /* \"contracts/business/DutchAuctionHouse.sol\":8391:8403  auctionItems */\n      0x01\n        /* \"contracts/business/DutchAuctionHouse.sol\":8391:8411  auctionItems[itemId] */\n      0x00\n        /* \"contracts/business/DutchAuctionHouse.sol\":8404:8410  itemId */\n      dup9\n        /* \"contracts/business/DutchAuctionHouse.sol\":8391:8411  auctionItems[itemId] */\n      dup2\n      mstore\n      0x20\n      add\n      swap1\n      dup2\n      mstore\n      0x20\n      add\n      0x00\n      keccak256\n        /* \"contracts/business/DutchAuctionHouse.sol\":8391:8424  auctionItems[itemId].dropInterval */\n      0x07\n      add\n      sload\n        /* \"contracts/business/DutchAuctionHouse.sol\":8367:8424  uint256 _dropInterval = auctionItems[itemId].dropInterval */\n      swap1\n      pop\n        /* \"contracts/business/DutchAuctionHouse.sol\":8434:8452  uint256 _stepPrice */\n      0x00\n        /* \"contracts/business/DutchAuctionHouse.sol\":8455:8467  auctionItems */\n      0x01\n        /* \"contracts/business/DutchAuctionHouse.sol\":8455:8475  auctionItems[itemId] */\n      0x00\n        /* \"contracts/business/DutchAuctionHouse.sol\":8468:8474  itemId */\n      dup10\n        /* \"contracts/business/DutchAuctionHouse.sol\":8455:8475  auctionItems[itemId] */\n      dup2\n      mstore\n      0x20\n      add\n      swap1\n      dup2\n      mstore\n      0x20\n      add\n      0x00\n      keccak256\n        /* \"contracts/business/DutchAuctionHouse.sol\":8455:8485  auctionItems[itemId].stepPrice */\n      0x08\n      add\n      sload\n        /* \"contracts/business/DutchAuctionHouse.sol\":8434:8485  uint256 _stepPrice = auctionItems[itemId].stepPrice */\n      swap1\n      pop\n        /* \"contracts/business/DutchAuctionHouse.sol\":8495:8515  uint256 auctionPrice */\n      0x00\n        /* \"contracts/business/DutchAuctionHouse.sol\":8552:8562  _startTime */\n      dup5\n        /* \"contracts/business/DutchAuctionHouse.sol\":8533:8548  block.timestamp */\n      timestamp\n        /* \"contracts/business/DutchAuctionHouse.sol\":8533:8562  block.timestamp <= _startTime */\n      gt\n        /* \"contracts/business/DutchAuctionHouse.sol\":8529:8863  if (block.timestamp <= _startTime) {... */\n      tag_214\n      jumpi\n        /* \"contracts/business/DutchAuctionHouse.sol\":8593:8604  _startPrice */\n      dup7\n        /* \"contracts/business/DutchAuctionHouse.sol\":8578:8604  auctionPrice = _startPrice */\n      swap1\n      pop\n        /* \"contracts/business/DutchAuctionHouse.sol\":8529:8863  if (block.timestamp <= _startTime) {... */\n      jump(tag_215)\n    tag_214:\n        /* \"contracts/business/DutchAuctionHouse.sol\":8655:8666  _duringTime */\n      dup4\n        /* \"contracts/business/DutchAuctionHouse.sol\":8644:8654  _startTime */\n      dup6\n        /* \"contracts/business/DutchAuctionHouse.sol\":8644:8666  _startTime+_duringTime */\n      tag_216\n      swap2\n      swap1\n      tag_195\n      jump\t// in\n    tag_216:\n        /* \"contracts/business/DutchAuctionHouse.sol\":8624:8639  block.timestamp */\n      timestamp\n        /* \"contracts/business/DutchAuctionHouse.sol\":8624:8667  block.timestamp >= (_startTime+_duringTime) */\n      lt\n        /* \"contracts/business/DutchAuctionHouse.sol\":8620:8863  if (block.timestamp >= (_startTime+_duringTime)) {... */\n      tag_217\n      jumpi\n        /* \"contracts/business/DutchAuctionHouse.sol\":8698:8707  _endPrice */\n      dup6\n        /* \"contracts/business/DutchAuctionHouse.sol\":8683:8707  auctionPrice = _endPrice */\n      swap1\n      pop\n        /* \"contracts/business/DutchAuctionHouse.sol\":8620:8863  if (block.timestamp >= (_startTime+_duringTime)) {... */\n      jump(tag_218)\n    tag_217:\n        /* \"contracts/business/DutchAuctionHouse.sol\":8737:8750  uint256 steps */\n      0x00\n        /* \"contracts/business/DutchAuctionHouse.sol\":8782:8795  _dropInterval */\n      dup4\n        /* \"contracts/business/DutchAuctionHouse.sol\":8770:8780  _startTime */\n      dup7\n        /* \"contracts/business/DutchAuctionHouse.sol\":8754:8769  block.timestamp */\n      timestamp\n        /* \"contracts/business/DutchAuctionHouse.sol\":8754:8780  block.timestamp-_startTime */\n      tag_219\n      swap2\n      swap1\n      tag_131\n      jump\t// in\n    tag_219:\n        /* \"contracts/business/DutchAuctionHouse.sol\":8753:8795  (block.timestamp-_startTime)/_dropInterval */\n      tag_220\n      swap2\n      swap1\n      tag_129\n      jump\t// in\n    tag_220:\n        /* \"contracts/business/DutchAuctionHouse.sol\":8737:8795  uint256 steps = (block.timestamp-_startTime)/_dropInterval */\n      swap1\n      pop\n        /* \"contracts/business/DutchAuctionHouse.sol\":8847:8852  steps */\n      dup1\n        /* \"contracts/business/DutchAuctionHouse.sol\":8836:8846  _stepPrice */\n      dup4\n        /* \"contracts/business/DutchAuctionHouse.sol\":8836:8852  _stepPrice*steps */\n      tag_221\n      swap2\n      swap1\n      tag_222\n      jump\t// in\n    tag_221:\n        /* \"contracts/business/DutchAuctionHouse.sol\":8824:8835  _startPrice */\n      dup9\n        /* \"contracts/business/DutchAuctionHouse.sol\":8824:8852  _startPrice-_stepPrice*steps */\n      tag_223\n      swap2\n      swap1\n      tag_131\n      jump\t// in\n    tag_223:\n        /* \"contracts/business/DutchAuctionHouse.sol\":8809:8852  auctionPrice = _startPrice-_stepPrice*steps */\n      swap2\n      pop\n        /* \"contracts/business/DutchAuctionHouse.sol\":8723:8863  {... */\n      pop\n        /* \"contracts/business/DutchAuctionHouse.sol\":8620:8863  if (block.timestamp >= (_startTime+_duringTime)) {... */\n    tag_218:\n        /* \"contracts/business/DutchAuctionHouse.sol\":8529:8863  if (block.timestamp <= _startTime) {... */\n    tag_215:\n        /* \"contracts/business/DutchAuctionHouse.sol\":8879:8891  auctionPrice */\n      dup1\n        /* \"contracts/business/DutchAuctionHouse.sol\":8872:8891  return auctionPrice */\n      swap8\n      pop\n      pop\n      pop\n      pop\n      pop\n      pop\n      pop\n      pop\n        /* \"contracts/business/DutchAuctionHouse.sol\":7913:8898  function getAuctionPrice(uint256 itemId) public view returns (uint256) {... */\n      swap2\n      swap1\n      pop\n      jump\t// out\n        /* \"contracts/business/DutchAuctionHouse.sol\":2251:2273  uint256 public feeRate */\n    tag_84:\n      sload(0x05)\n      dup2\n      jump\t// out\n        /* \"contracts/business/DutchAuctionHouse.sol\":11695:12522  function getBackNft(address nftAddress, uint256 tokenId, address receiver) external {... */\n    tag_90:\n        /* \"contracts/business/DutchAuctionHouse.sol\":11807:11837  _checkNFTWhiteList(nftAddress) */\n      tag_225\n        /* \"contracts/business/DutchAuctionHouse.sol\":11826:11836  nftAddress */\n      dup4\n        /* \"contracts/business/DutchAuctionHouse.sol\":11807:11825  _checkNFTWhiteList */\n      tag_136\n        /* \"contracts/business/DutchAuctionHouse.sol\":11807:11837  _checkNFTWhiteList(nftAddress) */\n      jump\t// in\n    tag_225:\n        /* \"contracts/business/DutchAuctionHouse.sol\":11847:11879  _checkOwner(nftAddress, tokenId) */\n      tag_226\n        /* \"contracts/business/DutchAuctionHouse.sol\":11859:11869  nftAddress */\n      dup4\n        /* \"contracts/business/DutchAuctionHouse.sol\":11871:11878  tokenId */\n      dup4\n        /* \"contracts/business/DutchAuctionHouse.sol\":11847:11858  _checkOwner */\n      tag_138\n        /* \"contracts/business/DutchAuctionHouse.sol\":11847:11879  _checkOwner(nftAddress, tokenId) */\n      jump\t// in\n    tag_226:\n        /* \"contracts/business/DutchAuctionHouse.sol\":11982:11996  uint256 itemId */\n      0x00\n        /* \"contracts/business/DutchAuctionHouse.sol\":11999:12015  tokenIdToItemIds */\n      0x02\n        /* \"contracts/business/DutchAuctionHouse.sol\":11999:12027  tokenIdToItemIds[nftAddress] */\n      0x00\n        /* \"contracts/business/DutchAuctionHouse.sol\":12016:12026  nftAddress */\n      dup6\n        /* \"contracts/business/DutchAuctionHouse.sol\":11999:12027  tokenIdToItemIds[nftAddress] */\n      0xffffffffffffffffffffffffffffffffffffffff\n      and\n      0xffffffffffffffffffffffffffffffffffffffff\n      and\n      dup2\n      mstore\n      0x20\n      add\n      swap1\n      dup2\n      mstore\n      0x20\n      add\n      0x00\n      keccak256\n        /* \"contracts/business/DutchAuctionHouse.sol\":11999:12036  tokenIdToItemIds[nftAddress][tokenId] */\n      0x00\n        /* \"contracts/business/DutchAuctionHouse.sol\":12028:12035  tokenId */\n      dup5\n        /* \"contracts/business/DutchAuctionHouse.sol\":11999:12036  tokenIdToItemIds[nftAddress][tokenId] */\n      dup2\n      mstore\n      0x20\n      add\n      swap1\n      dup2\n      mstore\n      0x20\n      add\n      0x00\n      keccak256\n      sload\n        /* \"contracts/business/DutchAuctionHouse.sol\":11982:12036  uint256 itemId = tokenIdToItemIds[nftAddress][tokenId] */\n      swap1\n      pop\n        /* \"contracts/business/DutchAuctionHouse.sol\":12060:12061  0 */\n      0x00\n        /* \"contracts/business/DutchAuctionHouse.sol\":12050:12056  itemId */\n      dup2\n        /* \"contracts/business/DutchAuctionHouse.sol\":12050:12061  itemId != 0 */\n      eq\n        /* \"contracts/business/DutchAuctionHouse.sol\":12046:12412  if (itemId != 0) {... */\n      tag_227\n      jumpi\n        /* \"contracts/business/DutchAuctionHouse.sol\":12077:12102  _checkItemNotSale(itemId) */\n      tag_228\n        /* \"contracts/business/DutchAuctionHouse.sol\":12095:12101  itemId */\n      dup2\n        /* \"contracts/business/DutchAuctionHouse.sol\":12077:12094  _checkItemNotSale */\n      tag_127\n        /* \"contracts/business/DutchAuctionHouse.sol\":12077:12102  _checkItemNotSale(itemId) */\n      jump\t// in\n    tag_228:\n        /* \"contracts/business/DutchAuctionHouse.sol\":12172:12184  auctionItems */\n      0x01\n        /* \"contracts/business/DutchAuctionHouse.sol\":12172:12192  auctionItems[itemId] */\n      0x00\n        /* \"contracts/business/DutchAuctionHouse.sol\":12185:12191  itemId */\n      dup3\n        /* \"contracts/business/DutchAuctionHouse.sol\":12172:12192  auctionItems[itemId] */\n      dup2\n      mstore\n      0x20\n      add\n      swap1\n      dup2\n      mstore\n      0x20\n      add\n      0x00\n      keccak256\n        /* \"contracts/business/DutchAuctionHouse.sol\":12172:12203  auctionItems[itemId].duringTime */\n      0x06\n      add\n      sload\n        /* \"contracts/business/DutchAuctionHouse.sol\":12139:12151  auctionItems */\n      0x01\n        /* \"contracts/business/DutchAuctionHouse.sol\":12139:12159  auctionItems[itemId] */\n      0x00\n        /* \"contracts/business/DutchAuctionHouse.sol\":12152:12158  itemId */\n      dup4\n        /* \"contracts/business/DutchAuctionHouse.sol\":12139:12159  auctionItems[itemId] */\n      dup2\n      mstore\n      0x20\n      add\n      swap1\n      dup2\n      mstore\n      0x20\n      add\n      0x00\n      keccak256\n        /* \"contracts/business/DutchAuctionHouse.sol\":12139:12169  auctionItems[itemId].startTime */\n      0x05\n      add\n      sload\n        /* \"contracts/business/DutchAuctionHouse.sol\":12139:12203  auctionItems[itemId].startTime + auctionItems[itemId].duringTime */\n      tag_229\n      swap2\n      swap1\n      tag_195\n      jump\t// in\n    tag_229:\n        /* \"contracts/business/DutchAuctionHouse.sol\":12120:12135  block.timestamp */\n      timestamp\n        /* \"contracts/business/DutchAuctionHouse.sol\":12120:12204  block.timestamp > (auctionItems[itemId].startTime + auctionItems[itemId].duringTime) */\n      gt\n        /* \"contracts/business/DutchAuctionHouse.sol\":12116:12402  if (block.timestamp > (auctionItems[itemId].startTime + auctionItems[itemId].duringTime)) {... */\n      iszero\n      tag_230\n      jumpi\n        /* \"contracts/business/DutchAuctionHouse.sol\":12231:12243  auctionItems */\n      0x01\n        /* \"contracts/business/DutchAuctionHouse.sol\":12231:12251  auctionItems[itemId] */\n      0x00\n        /* \"contracts/business/DutchAuctionHouse.sol\":12244:12250  itemId */\n      dup3\n        /* \"contracts/business/DutchAuctionHouse.sol\":12231:12251  auctionItems[itemId] */\n      dup2\n      mstore\n      0x20\n      add\n      swap1\n      dup2\n      mstore\n      0x20\n      add\n      0x00\n      keccak256\n        /* \"contracts/business/DutchAuctionHouse.sol\":12231:12258  auctionItems[itemId].seller */\n      0x02\n      add\n      0x00\n        /* \"contracts/business/DutchAuctionHouse.sol\":12224:12258  delete auctionItems[itemId].seller */\n      0x0100\n      exp\n      dup2\n      sload\n      swap1\n      0xffffffffffffffffffffffffffffffffffffffff\n      mul\n      not\n      and\n      swap1\n      sstore\n        /* \"contracts/business/DutchAuctionHouse.sol\":12283:12299  tokenIdToItemIds */\n      0x02\n        /* \"contracts/business/DutchAuctionHouse.sol\":12283:12311  tokenIdToItemIds[nftAddress] */\n      0x00\n        /* \"contracts/business/DutchAuctionHouse.sol\":12300:12310  nftAddress */\n      dup6\n        /* \"contracts/business/DutchAuctionHouse.sol\":12283:12311  tokenIdToItemIds[nftAddress] */\n      0xffffffffffffffffffffffffffffffffffffffff\n      and\n      0xffffffffffffffffffffffffffffffffffffffff\n      and\n      dup2\n      mstore\n      0x20\n      add\n      swap1\n      dup2\n      mstore\n      0x20\n      add\n      0x00\n      keccak256\n        /* \"contracts/business/DutchAuctionHouse.sol\":12283:12320  tokenIdToItemIds[nftAddress][tokenId] */\n      0x00\n        /* \"contracts/business/DutchAuctionHouse.sol\":12312:12319  tokenId */\n      dup5\n        /* \"contracts/business/DutchAuctionHouse.sol\":12283:12320  tokenIdToItemIds[nftAddress][tokenId] */\n      dup2\n      mstore\n      0x20\n      add\n      swap1\n      dup2\n      mstore\n      0x20\n      add\n      0x00\n      keccak256\n        /* \"contracts/business/DutchAuctionHouse.sol\":12276:12320  delete tokenIdToItemIds[nftAddress][tokenId] */\n      0x00\n      swap1\n      sstore\n        /* \"contracts/business/DutchAuctionHouse.sol\":12116:12402  if (block.timestamp > (auctionItems[itemId].startTime + auctionItems[itemId].duringTime)) {... */\n      jump(tag_231)\n    tag_230:\n        /* \"contracts/business/DutchAuctionHouse.sol\":12358:12387  revert (\"can not cancel now\") */\n      mload(0x40)\n      0x08c379a000000000000000000000000000000000000000000000000000000000\n      dup2\n      mstore\n      0x04\n      add\n      tag_232\n      swap1\n      tag_233\n      jump\t// in\n    tag_232:\n      mload(0x40)\n      dup1\n      swap2\n      sub\n      swap1\n      revert\n        /* \"contracts/business/DutchAuctionHouse.sol\":12116:12402  if (block.timestamp > (auctionItems[itemId].startTime + auctionItems[itemId].duringTime)) {... */\n    tag_231:\n        /* \"contracts/business/DutchAuctionHouse.sol\":12046:12412  if (itemId != 0) {... */\n    tag_227:\n        /* \"contracts/business/DutchAuctionHouse.sol\":12453:12463  nftAddress */\n      dup4\n        /* \"contracts/business/DutchAuctionHouse.sol\":12445:12481  IERC721(nftAddress).safeTransferFrom */\n      0xffffffffffffffffffffffffffffffffffffffff\n      and\n      0x42842e0e\n        /* \"contracts/business/DutchAuctionHouse.sol\":12490:12494  this */\n      address\n        /* \"contracts/business/DutchAuctionHouse.sol\":12497:12505  receiver */\n      dup5\n        /* \"contracts/business/DutchAuctionHouse.sol\":12507:12514  tokenId */\n      dup7\n        /* \"contracts/business/DutchAuctionHouse.sol\":12445:12515  IERC721(nftAddress).safeTransferFrom(address(this), receiver, tokenId) */\n      mload(0x40)\n      dup5\n      0xffffffff\n      and\n      0xe0\n      shl\n      dup2\n      mstore\n      0x04\n      add\n      tag_234\n      swap4\n      swap3\n      swap2\n      swap1\n      tag_199\n      jump\t// in\n    tag_234:\n      0x00\n      mload(0x40)\n      dup1\n      dup4\n      sub\n      dup2\n      0x00\n      dup8\n      dup1\n      extcodesize\n      iszero\n      dup1\n      iszero\n      tag_235\n      jumpi\n      0x00\n      dup1\n      revert\n    tag_235:\n      pop\n      gas\n      call\n      iszero\n      dup1\n      iszero\n      tag_237\n      jumpi\n      returndatasize\n      0x00\n      dup1\n      returndatacopy\n      revert(0x00, returndatasize)\n    tag_237:\n      pop\n      pop\n      pop\n      pop\n        /* \"contracts/business/DutchAuctionHouse.sol\":11779:12522  {... */\n      pop\n        /* \"contracts/business/DutchAuctionHouse.sol\":11695:12522  function getBackNft(address nftAddress, uint256 tokenId, address receiver) external {... */\n      pop\n      pop\n      pop\n      jump\t// out\n        /* \"contracts/business/DutchAuctionHouse.sol\":2064:2154  mapping(address nftAddress => mapping(uint256 tokenId => uint256)) public tokenIdToItemIds */\n    tag_94:\n      mstore(0x20, 0x02)\n      dup2\n      0x00\n      mstore\n      mstore(0x20, keccak256(0x00, 0x40))\n      dup1\n      0x00\n      mstore\n      keccak256(0x00, 0x40)\n      0x00\n      swap2\n      pop\n      swap2\n      pop\n      pop\n      sload\n      dup2\n      jump\t// out\n        /* \"contracts/business/DutchAuctionHouse.sol\":12652:12790  function send() external onlyAdmin {... */\n    tag_98:\n        /* \"contracts/business/DutchAuctionHouse.sol\":2488:2493  admin */\n      0x07\n      0x00\n      swap1\n      sload\n      swap1\n      0x0100\n      exp\n      swap1\n      div\n      0xffffffffffffffffffffffffffffffffffffffff\n      and\n        /* \"contracts/business/DutchAuctionHouse.sol\":2474:2493  msg.sender == admin */\n      0xffffffffffffffffffffffffffffffffffffffff\n      and\n        /* \"contracts/business/DutchAuctionHouse.sol\":2474:2484  msg.sender */\n      caller\n        /* \"contracts/business/DutchAuctionHouse.sol\":2474:2493  msg.sender == admin */\n      0xffffffffffffffffffffffffffffffffffffffff\n      and\n      eq\n        /* \"contracts/business/DutchAuctionHouse.sol\":2466:2512  require(msg.sender == admin, \"not authorized\") */\n      tag_239\n      jumpi\n      mload(0x40)\n      0x08c379a000000000000000000000000000000000000000000000000000000000\n      dup2\n      mstore\n      0x04\n      add\n      tag_240\n      swap1\n      tag_154\n      jump\t// in\n    tag_240:\n      mload(0x40)\n      dup1\n      swap2\n      sub\n      swap1\n      revert\n    tag_239:\n        /* \"contracts/business/DutchAuctionHouse.sol\":12697:12711  uint256 amount */\n      0x00\n        /* \"contracts/business/DutchAuctionHouse.sol\":12714:12721  profits */\n      sload(0x04)\n        /* \"contracts/business/DutchAuctionHouse.sol\":12697:12721  uint256 amount = profits */\n      swap1\n      pop\n        /* \"contracts/business/DutchAuctionHouse.sol\":12741:12742  0 */\n      0x00\n        /* \"contracts/business/DutchAuctionHouse.sol\":12731:12738  profits */\n      0x04\n        /* \"contracts/business/DutchAuctionHouse.sol\":12731:12742  profits = 0 */\n      dup2\n      swap1\n      sstore\n      pop\n        /* \"contracts/business/DutchAuctionHouse.sol\":12760:12765  admin */\n      0x07\n      0x00\n      swap1\n      sload\n      swap1\n      0x0100\n      exp\n      swap1\n      div\n      0xffffffffffffffffffffffffffffffffffffffff\n      and\n        /* \"contracts/business/DutchAuctionHouse.sol\":12752:12775  payable(admin).transfer */\n      0xffffffffffffffffffffffffffffffffffffffff\n      and\n        /* \"contracts/business/DutchAuctionHouse.sol\":12752:12783  payable(admin).transfer(amount) */\n      0x08fc\n        /* \"contracts/business/DutchAuctionHouse.sol\":12776:12782  amount */\n      dup3\n        /* \"contracts/business/DutchAuctionHouse.sol\":12752:12783  payable(admin).transfer(amount) */\n      swap1\n      dup2\n      iszero\n      mul\n      swap1\n      mload(0x40)\n      0x00\n      mload(0x40)\n      dup1\n      dup4\n      sub\n      dup2\n      dup6\n      dup9\n      dup9\n      call\n      swap4\n      pop\n      pop\n      pop\n      pop\n      iszero\n      dup1\n      iszero\n      tag_243\n      jumpi\n      returndatasize\n      0x00\n      dup1\n      returndatacopy\n      revert(0x00, returndatasize)\n    tag_243:\n      pop\n        /* \"contracts/business/DutchAuctionHouse.sol\":12687:12790  {... */\n      pop\n        /* \"contracts/business/DutchAuctionHouse.sol\":12652:12790  function send() external onlyAdmin {... */\n      jump\t// out\n        /* \"contracts/business/DutchAuctionHouse.sol\":2562:3107  function addNFTSupport(address _nftAddress) external onlyAdmin {... */\n    tag_103:\n        /* \"contracts/business/DutchAuctionHouse.sol\":2488:2493  admin */\n      0x07\n      0x00\n      swap1\n      sload\n      swap1\n      0x0100\n      exp\n      swap1\n      div\n      0xffffffffffffffffffffffffffffffffffffffff\n      and\n        /* \"contracts/business/DutchAuctionHouse.sol\":2474:2493  msg.sender == admin */\n      0xffffffffffffffffffffffffffffffffffffffff\n      and\n        /* \"contracts/business/DutchAuctionHouse.sol\":2474:2484  msg.sender */\n      caller\n        /* \"contracts/business/DutchAuctionHouse.sol\":2474:2493  msg.sender == admin */\n      0xffffffffffffffffffffffffffffffffffffffff\n      and\n      eq\n        /* \"contracts/business/DutchAuctionHouse.sol\":2466:2512  require(msg.sender == admin, \"not authorized\") */\n      tag_245\n      jumpi\n      mload(0x40)\n      0x08c379a000000000000000000000000000000000000000000000000000000000\n      dup2\n      mstore\n      0x04\n      add\n      tag_246\n      swap1\n      tag_154\n      jump\t// in\n    tag_246:\n      mload(0x40)\n      dup1\n      swap2\n      sub\n      swap1\n      revert\n    tag_245:\n        /* \"contracts/business/DutchAuctionHouse.sol\":2666:2667  0 */\n      0x00\n        /* \"contracts/business/DutchAuctionHouse.sol\":2643:2668  _nftAddress != address(0) */\n      0xffffffffffffffffffffffffffffffffffffffff\n      and\n        /* \"contracts/business/DutchAuctionHouse.sol\":2643:2654  _nftAddress */\n      dup2\n        /* \"contracts/business/DutchAuctionHouse.sol\":2643:2668  _nftAddress != address(0) */\n      0xffffffffffffffffffffffffffffffffffffffff\n      and\n      sub\n        /* \"contracts/business/DutchAuctionHouse.sol\":2635:2692  require(_nftAddress != address(0), \"invalid nft address\") */\n      tag_248\n      jumpi\n      mload(0x40)\n      0x08c379a000000000000000000000000000000000000000000000000000000000\n      dup2\n      mstore\n      0x04\n      add\n      tag_249\n      swap1\n      tag_250\n      jump\t// in\n    tag_249:\n      mload(0x40)\n      dup1\n      swap2\n      sub\n      swap1\n      revert\n    tag_248:\n        /* \"contracts/business/DutchAuctionHouse.sol\":2723:2734  _nftAddress */\n      dup1\n        /* \"contracts/business/DutchAuctionHouse.sol\":2706:2734  address(this) == _nftAddress */\n      0xffffffffffffffffffffffffffffffffffffffff\n      and\n        /* \"contracts/business/DutchAuctionHouse.sol\":2714:2718  this */\n      address\n        /* \"contracts/business/DutchAuctionHouse.sol\":2706:2734  address(this) == _nftAddress */\n      0xffffffffffffffffffffffffffffffffffffffff\n      and\n      sub\n        /* \"contracts/business/DutchAuctionHouse.sol\":2702:2772  if (address(this) == _nftAddress) revert UnsupportedToken(_nftAddress) */\n      tag_251\n      jumpi\n        /* \"contracts/business/DutchAuctionHouse.sol\":2760:2771  _nftAddress */\n      dup1\n        /* \"contracts/business/DutchAuctionHouse.sol\":2743:2772  UnsupportedToken(_nftAddress) */\n      mload(0x40)\n      0xbf16aab600000000000000000000000000000000000000000000000000000000\n      dup2\n      mstore\n      0x04\n      add\n      tag_252\n      swap2\n      swap1\n      tag_118\n      jump\t// in\n    tag_252:\n      mload(0x40)\n      dup1\n      swap2\n      sub\n      swap1\n      revert\n        /* \"contracts/business/DutchAuctionHouse.sol\":2702:2772  if (address(this) == _nftAddress) revert UnsupportedToken(_nftAddress) */\n    tag_251:\n        /* \"contracts/business/DutchAuctionHouse.sol\":2791:2820  nftWhiteList.get(_nftAddress) */\n      tag_253\n        /* \"contracts/business/DutchAuctionHouse.sol\":2808:2819  _nftAddress */\n      dup2\n        /* \"contracts/business/DutchAuctionHouse.sol\":2791:2803  nftWhiteList */\n      0x06\n        /* \"contracts/business/DutchAuctionHouse.sol\":2791:2807  nftWhiteList.get */\n      tag_254\n      swap1\n        /* \"contracts/business/DutchAuctionHouse.sol\":2791:2820  nftWhiteList.get(_nftAddress) */\n      swap2\n      swap1\n      0xffffffff\n      and\n      jump\t// in\n    tag_253:\n        /* \"contracts/business/DutchAuctionHouse.sol\":2790:2820  !nftWhiteList.get(_nftAddress) */\n      iszero\n        /* \"contracts/business/DutchAuctionHouse.sol\":2782:2851  require(!nftWhiteList.get(_nftAddress),\"already exists in whitelist\") */\n      tag_255\n      jumpi\n      mload(0x40)\n      0x08c379a000000000000000000000000000000000000000000000000000000000\n      dup2\n      mstore\n      0x04\n      add\n      tag_256\n      swap1\n      tag_257\n      jump\t// in\n    tag_256:\n      mload(0x40)\n      dup1\n      swap2\n      sub\n      swap1\n      revert\n    tag_255:\n        /* \"contracts/business/DutchAuctionHouse.sol\":2910:2921  _nftAddress */\n      dup1\n        /* \"contracts/business/DutchAuctionHouse.sol\":2902:2940  IERC721(_nftAddress).supportsInterface */\n      0xffffffffffffffffffffffffffffffffffffffff\n      and\n      0x01ffc9a7\n        /* \"contracts/business/DutchAuctionHouse.sol\":2941:2966  type(IERC721).interfaceId */\n      0x80ac58cd00000000000000000000000000000000000000000000000000000000\n        /* \"contracts/business/DutchAuctionHouse.sol\":2902:2967  IERC721(_nftAddress).supportsInterface(type(IERC721).interfaceId) */\n      mload(0x40)\n      dup3\n      0xffffffff\n      and\n      0xe0\n      shl\n      dup2\n      mstore\n      0x04\n      add\n      tag_258\n      swap2\n      swap1\n      tag_47\n      jump\t// in\n    tag_258:\n      0x20\n      mload(0x40)\n      dup1\n      dup4\n      sub\n      dup2\n      dup7\n      gas\n      staticcall\n      iszero\n      dup1\n      iszero\n      tag_260\n      jumpi\n      returndatasize\n      0x00\n      dup1\n      returndatacopy\n      revert(0x00, returndatasize)\n    tag_260:\n      pop\n      pop\n      pop\n      pop\n      mload(0x40)\n      returndatasize\n      not(0x1f)\n      0x1f\n      dup3\n      add\n      and\n      dup3\n      add\n      dup1\n      0x40\n      mstore\n      pop\n      dup2\n      add\n      swap1\n      tag_261\n      swap2\n      swap1\n      tag_262\n      jump\t// in\n    tag_261:\n        /* \"contracts/business/DutchAuctionHouse.sol\":2894:2988  require(IERC721(_nftAddress).supportsInterface(type(IERC721).interfaceId), \"invalid nft type\") */\n      tag_263\n      jumpi\n      mload(0x40)\n      0x08c379a000000000000000000000000000000000000000000000000000000000\n      dup2\n      mstore\n      0x04\n      add\n      tag_264\n      swap1\n      tag_265\n      jump\t// in\n    tag_264:\n      mload(0x40)\n      dup1\n      swap2\n      sub\n      swap1\n      revert\n    tag_263:\n        /* \"contracts/business/DutchAuctionHouse.sol\":3028:3057  nftWhiteList.set(_nftAddress) */\n      tag_266\n        /* \"contracts/business/DutchAuctionHouse.sol\":3045:3056  _nftAddress */\n      dup2\n        /* \"contracts/business/DutchAuctionHouse.sol\":3028:3040  nftWhiteList */\n      0x06\n        /* \"contracts/business/DutchAuctionHouse.sol\":3028:3044  nftWhiteList.set */\n      tag_267\n      swap1\n        /* \"contracts/business/DutchAuctionHouse.sol\":3028:3057  nftWhiteList.set(_nftAddress) */\n      swap2\n      swap1\n      0xffffffff\n      and\n      jump\t// in\n    tag_266:\n        /* \"contracts/business/DutchAuctionHouse.sol\":3088:3099  _nftAddress */\n      dup1\n        /* \"contracts/business/DutchAuctionHouse.sol\":3072:3100  NFTSupportAdded(_nftAddress) */\n      0xffffffffffffffffffffffffffffffffffffffff\n      and\n      0x37fb5467cdf7dcb833b3c07d10482c6019526966533fc80293b05cd19ea55a68\n      mload(0x40)\n      mload(0x40)\n      dup1\n      swap2\n      sub\n      swap1\n      log2\n        /* \"contracts/business/DutchAuctionHouse.sol\":2562:3107  function addNFTSupport(address _nftAddress) external onlyAdmin {... */\n      pop\n      jump\t// out\n        /* \"contracts/business/DutchAuctionHouse.sol\":2000:2058  mapping(uint256 itemId => AuctionItem) public auctionItems */\n    tag_107:\n      mstore(0x20, 0x01)\n      dup1\n      0x00\n      mstore\n      keccak256(0x00, 0x40)\n      0x00\n      swap2\n      pop\n      swap1\n      pop\n      dup1\n      0x00\n      add\n      0x00\n      swap1\n      sload\n      swap1\n      0x0100\n      exp\n      swap1\n      div\n      0xffffffffffffffffffffffffffffffffffffffff\n      and\n      swap1\n      dup1\n      0x01\n      add\n      sload\n      swap1\n      dup1\n      0x02\n      add\n      0x00\n      swap1\n      sload\n      swap1\n      0x0100\n      exp\n      swap1\n      div\n      0xffffffffffffffffffffffffffffffffffffffff\n      and\n      swap1\n      dup1\n      0x03\n      add\n      sload\n      swap1\n      dup1\n      0x04\n      add\n      sload\n      swap1\n      dup1\n      0x05\n      add\n      sload\n      swap1\n      dup1\n      0x06\n      add\n      sload\n      swap1\n      dup1\n      0x07\n      add\n      sload\n      swap1\n      dup1\n      0x08\n      add\n      sload\n      swap1\n      dup1\n      0x09\n      add\n      0x00\n      swap1\n      sload\n      swap1\n      0x0100\n      exp\n      swap1\n      div\n      0xffffffffffffffffffffffffffffffffffffffff\n      and\n      swap1\n      dup1\n      0x0a\n      add\n      sload\n      swap1\n      pop\n      dup12\n      jump\t// out\n        /* \"contracts/business/DutchAuctionHouse.sol\":3138:3386  function removeNFTSupport(address _nftAddress) external onlyAdmin {... */\n    tag_113:\n        /* \"contracts/business/DutchAuctionHouse.sol\":2488:2493  admin */\n      0x07\n      0x00\n      swap1\n      sload\n      swap1\n      0x0100\n      exp\n      swap1\n      div\n      0xffffffffffffffffffffffffffffffffffffffff\n      and\n        /* \"contracts/business/DutchAuctionHouse.sol\":2474:2493  msg.sender == admin */\n      0xffffffffffffffffffffffffffffffffffffffff\n      and\n        /* \"contracts/business/DutchAuctionHouse.sol\":2474:2484  msg.sender */\n      caller\n        /* \"contracts/business/DutchAuctionHouse.sol\":2474:2493  msg.sender == admin */\n      0xffffffffffffffffffffffffffffffffffffffff\n      and\n      eq\n        /* \"contracts/business/DutchAuctionHouse.sol\":2466:2512  require(msg.sender == admin, \"not authorized\") */\n      tag_269\n      jumpi\n      mload(0x40)\n      0x08c379a000000000000000000000000000000000000000000000000000000000\n      dup2\n      mstore\n      0x04\n      add\n      tag_270\n      swap1\n      tag_154\n      jump\t// in\n    tag_270:\n      mload(0x40)\n      dup1\n      swap2\n      sub\n      swap1\n      revert\n    tag_269:\n        /* \"contracts/business/DutchAuctionHouse.sol\":3245:3246  0 */\n      0x00\n        /* \"contracts/business/DutchAuctionHouse.sol\":3222:3247  _nftAddress != address(0) */\n      0xffffffffffffffffffffffffffffffffffffffff\n      and\n        /* \"contracts/business/DutchAuctionHouse.sol\":3222:3233  _nftAddress */\n      dup2\n        /* \"contracts/business/DutchAuctionHouse.sol\":3222:3247  _nftAddress != address(0) */\n      0xffffffffffffffffffffffffffffffffffffffff\n      and\n      sub\n        /* \"contracts/business/DutchAuctionHouse.sol\":3214:3263  require(_nftAddress != address(0), \"invalid nft\") */\n      tag_272\n      jumpi\n      mload(0x40)\n      0x08c379a000000000000000000000000000000000000000000000000000000000\n      dup2\n      mstore\n      0x04\n      add\n      tag_273\n      swap1\n      tag_274\n      jump\t// in\n    tag_273:\n      mload(0x40)\n      dup1\n      swap2\n      sub\n      swap1\n      revert\n    tag_272:\n        /* \"contracts/business/DutchAuctionHouse.sol\":3303:3334  nftWhiteList.unset(_nftAddress) */\n      tag_275\n        /* \"contracts/business/DutchAuctionHouse.sol\":3322:3333  _nftAddress */\n      dup2\n        /* \"contracts/business/DutchAuctionHouse.sol\":3303:3315  nftWhiteList */\n      0x06\n        /* \"contracts/business/DutchAuctionHouse.sol\":3303:3321  nftWhiteList.unset */\n      tag_276\n      swap1\n        /* \"contracts/business/DutchAuctionHouse.sol\":3303:3334  nftWhiteList.unset(_nftAddress) */\n      swap2\n      swap1\n      0xffffffff\n      and\n      jump\t// in\n    tag_275:\n        /* \"contracts/business/DutchAuctionHouse.sol\":3367:3378  _nftAddress */\n      dup1\n        /* \"contracts/business/DutchAuctionHouse.sol\":3349:3379  NFTSupportRemoved(_nftAddress) */\n      0xffffffffffffffffffffffffffffffffffffffff\n      and\n      0x13d42f38aa17fe3792989c026a1b89b975ee252624a7d09716c1c7d5535fe945\n      mload(0x40)\n      mload(0x40)\n      dup1\n      swap2\n      sub\n      swap1\n      log2\n        /* \"contracts/business/DutchAuctionHouse.sol\":3138:3386  function removeNFTSupport(address _nftAddress) external onlyAdmin {... */\n      pop\n      jump\t// out\n        /* \"contracts/business/DutchAuctionHouse.sol\":2353:2373  address public admin */\n    tag_116:\n      0x07\n      0x00\n      swap1\n      sload\n      swap1\n      0x0100\n      exp\n      swap1\n      div\n      0xffffffffffffffffffffffffffffffffffffffff\n      and\n      dup2\n      jump\t// out\n        /* \"contracts/business/DutchAuctionHouse.sol\":9156:9330  function _checkItemNotSale(uint256 itemId) private view {... */\n    tag_127:\n        /* \"contracts/business/DutchAuctionHouse.sol\":9264:9265  0 */\n      0x00\n        /* \"contracts/business/DutchAuctionHouse.sol\":9226:9266  auctionItems[itemId].bider != address(0) */\n      0xffffffffffffffffffffffffffffffffffffffff\n      and\n        /* \"contracts/business/DutchAuctionHouse.sol\":9226:9238  auctionItems */\n      0x01\n        /* \"contracts/business/DutchAuctionHouse.sol\":9226:9246  auctionItems[itemId] */\n      0x00\n        /* \"contracts/business/DutchAuctionHouse.sol\":9239:9245  itemId */\n      dup4\n        /* \"contracts/business/DutchAuctionHouse.sol\":9226:9246  auctionItems[itemId] */\n      dup2\n      mstore\n      0x20\n      add\n      swap1\n      dup2\n      mstore\n      0x20\n      add\n      0x00\n      keccak256\n        /* \"contracts/business/DutchAuctionHouse.sol\":9226:9252  auctionItems[itemId].bider */\n      0x09\n      add\n      0x00\n      swap1\n      sload\n      swap1\n      0x0100\n      exp\n      swap1\n      div\n      0xffffffffffffffffffffffffffffffffffffffff\n      and\n        /* \"contracts/business/DutchAuctionHouse.sol\":9226:9266  auctionItems[itemId].bider != address(0) */\n      0xffffffffffffffffffffffffffffffffffffffff\n      and\n      eq\n        /* \"contracts/business/DutchAuctionHouse.sol\":9222:9324  if (auctionItems[itemId].bider != address(0)) {... */\n      tag_278\n      jumpi\n        /* \"contracts/business/DutchAuctionHouse.sol\":9289:9313  AuctionItemAlreadySale() */\n      mload(0x40)\n      0xa7dad6ac00000000000000000000000000000000000000000000000000000000\n      dup2\n      mstore\n      0x04\n      add\n      mload(0x40)\n      dup1\n      swap2\n      sub\n      swap1\n      revert\n        /* \"contracts/business/DutchAuctionHouse.sol\":9222:9324  if (auctionItems[itemId].bider != address(0)) {... */\n    tag_278:\n        /* \"contracts/business/DutchAuctionHouse.sol\":9156:9330  function _checkItemNotSale(uint256 itemId) private view {... */\n      pop\n      jump\t// out\n        /* \"contracts/business/DutchAuctionHouse.sol\":5369:5572  function _checkNFTWhiteList(address nftAddress) private view {... */\n    tag_136:\n        /* \"contracts/business/DutchAuctionHouse.sol\":5445:5473  nftWhiteList.get(nftAddress) */\n      tag_280\n        /* \"contracts/business/DutchAuctionHouse.sol\":5462:5472  nftAddress */\n      dup2\n        /* \"contracts/business/DutchAuctionHouse.sol\":5445:5457  nftWhiteList */\n      0x06\n        /* \"contracts/business/DutchAuctionHouse.sol\":5445:5461  nftWhiteList.get */\n      tag_254\n      swap1\n        /* \"contracts/business/DutchAuctionHouse.sol\":5445:5473  nftWhiteList.get(nftAddress) */\n      swap2\n      swap1\n      0xffffffff\n      and\n      jump\t// in\n    tag_280:\n        /* \"contracts/business/DutchAuctionHouse.sol\":5440:5566  if (!nftWhiteList.get(nftAddress)) {... */\n      tag_281\n      jumpi\n        /* \"contracts/business/DutchAuctionHouse.sol\":5544:5554  nftAddress */\n      dup1\n        /* \"contracts/business/DutchAuctionHouse.sol\":5527:5555  UnsupportedToken(nftAddress) */\n      mload(0x40)\n      0xbf16aab600000000000000000000000000000000000000000000000000000000\n      dup2\n      mstore\n      0x04\n      add\n      tag_282\n      swap2\n      swap1\n      tag_118\n      jump\t// in\n    tag_282:\n      mload(0x40)\n      dup1\n      swap2\n      sub\n      swap1\n      revert\n        /* \"contracts/business/DutchAuctionHouse.sol\":5440:5566  if (!nftWhiteList.get(nftAddress)) {... */\n    tag_281:\n        /* \"contracts/business/DutchAuctionHouse.sol\":5369:5572  function _checkNFTWhiteList(address nftAddress) private view {... */\n      pop\n      jump\t// out\n        /* \"contracts/business/DutchAuctionHouse.sol\":5631:5844  function _checkOwner(address nftAddress, uint256 tokenId) private view {... */\n    tag_138:\n        /* \"contracts/business/DutchAuctionHouse.sol\":5763:5767  this */\n      address\n        /* \"contracts/business/DutchAuctionHouse.sol\":5715:5768  IERC721(nftAddress).ownerOf(tokenId) != address(this) */\n      0xffffffffffffffffffffffffffffffffffffffff\n      and\n        /* \"contracts/business/DutchAuctionHouse.sol\":5723:5733  nftAddress */\n      dup3\n        /* \"contracts/business/DutchAuctionHouse.sol\":5715:5742  IERC721(nftAddress).ownerOf */\n      0xffffffffffffffffffffffffffffffffffffffff\n      and\n      0x6352211e\n        /* \"contracts/business/DutchAuctionHouse.sol\":5743:5750  tokenId */\n      dup4\n        /* \"contracts/business/DutchAuctionHouse.sol\":5715:5751  IERC721(nftAddress).ownerOf(tokenId) */\n      mload(0x40)\n      dup3\n      0xffffffff\n      and\n      0xe0\n      shl\n      dup2\n      mstore\n      0x04\n      add\n      tag_284\n      swap2\n      swap1\n      tag_36\n      jump\t// in\n    tag_284:\n      0x20\n      mload(0x40)\n      dup1\n      dup4\n      sub\n      dup2\n      dup7\n      gas\n      staticcall\n      iszero\n      dup1\n      iszero\n      tag_286\n      jumpi\n      returndatasize\n      0x00\n      dup1\n      returndatacopy\n      revert(0x00, returndatasize)\n    tag_286:\n      pop\n      pop\n      pop\n      pop\n      mload(0x40)\n      returndatasize\n      not(0x1f)\n      0x1f\n      dup3\n      add\n      and\n      dup3\n      add\n      dup1\n      0x40\n      mstore\n      pop\n      dup2\n      add\n      swap1\n      tag_287\n      swap2\n      swap1\n      tag_288\n      jump\t// in\n    tag_287:\n        /* \"contracts/business/DutchAuctionHouse.sol\":5715:5768  IERC721(nftAddress).ownerOf(tokenId) != address(this) */\n      0xffffffffffffffffffffffffffffffffffffffff\n      and\n      eq\n        /* \"contracts/business/DutchAuctionHouse.sol\":5712:5838  if(IERC721(nftAddress).ownerOf(tokenId) != address(this)) {... */\n      tag_289\n      jumpi\n        /* \"contracts/business/DutchAuctionHouse.sol\":5807:5817  nftAddress */\n      dup2\n        /* \"contracts/business/DutchAuctionHouse.sol\":5819:5826  tokenId */\n      dup2\n        /* \"contracts/business/DutchAuctionHouse.sol\":5791:5827  UnreceivedToken(nftAddress, tokenId) */\n      mload(0x40)\n      0xef9b3c4d00000000000000000000000000000000000000000000000000000000\n      dup2\n      mstore\n      0x04\n      add\n      tag_290\n      swap3\n      swap2\n      swap1\n      tag_167\n      jump\t// in\n    tag_290:\n      mload(0x40)\n      dup1\n      swap2\n      sub\n      swap1\n      revert\n        /* \"contracts/business/DutchAuctionHouse.sol\":5712:5838  if(IERC721(nftAddress).ownerOf(tokenId) != address(this)) {... */\n    tag_289:\n        /* \"contracts/business/DutchAuctionHouse.sol\":5631:5844  function _checkOwner(address nftAddress, uint256 tokenId) private view {... */\n      pop\n      pop\n      jump\t// out\n        /* \"contracts/business/DutchAuctionHouse.sol\":5879:6302  function _addAuctionItem(address _nftAddress, uint256 _tokenId, address _seller, uint256 _itemId) private {... */\n    tag_142:\n        /* \"contracts/business/DutchAuctionHouse.sol\":6081:6092  _nftAddress */\n      dup4\n        /* \"contracts/business/DutchAuctionHouse.sol\":6034:6046  auctionItems */\n      0x01\n        /* \"contracts/business/DutchAuctionHouse.sol\":6034:6058  auctionItems[nextItemId] */\n      0x00\n        /* \"contracts/business/DutchAuctionHouse.sol\":6047:6057  nextItemId */\n      dup1\n      sload\n        /* \"contracts/business/DutchAuctionHouse.sol\":6034:6058  auctionItems[nextItemId] */\n      dup2\n      mstore\n      0x20\n      add\n      swap1\n      dup2\n      mstore\n      0x20\n      add\n      0x00\n      keccak256\n        /* \"contracts/business/DutchAuctionHouse.sol\":6034:6070  auctionItems[nextItemId].nftContract */\n      0x00\n      add\n      0x00\n        /* \"contracts/business/DutchAuctionHouse.sol\":6034:6093  auctionItems[nextItemId].nftContract = IERC721(_nftAddress) */\n      0x0100\n      exp\n      dup2\n      sload\n      dup2\n      0xffffffffffffffffffffffffffffffffffffffff\n      mul\n      not\n      and\n      swap1\n      dup4\n      0xffffffffffffffffffffffffffffffffffffffff\n      and\n      mul\n      or\n      swap1\n      sstore\n      pop\n        /* \"contracts/business/DutchAuctionHouse.sol\":6138:6146  _tokenId */\n      dup3\n        /* \"contracts/business/DutchAuctionHouse.sol\":6103:6115  auctionItems */\n      0x01\n        /* \"contracts/business/DutchAuctionHouse.sol\":6103:6127  auctionItems[nextItemId] */\n      0x00\n        /* \"contracts/business/DutchAuctionHouse.sol\":6116:6126  nextItemId */\n      dup1\n      sload\n        /* \"contracts/business/DutchAuctionHouse.sol\":6103:6127  auctionItems[nextItemId] */\n      dup2\n      mstore\n      0x20\n      add\n      swap1\n      dup2\n      mstore\n      0x20\n      add\n      0x00\n      keccak256\n        /* \"contracts/business/DutchAuctionHouse.sol\":6103:6135  auctionItems[nextItemId].tokenId */\n      0x01\n      add\n        /* \"contracts/business/DutchAuctionHouse.sol\":6103:6146  auctionItems[nextItemId].tokenId = _tokenId */\n      dup2\n      swap1\n      sstore\n      pop\n        /* \"contracts/business/DutchAuctionHouse.sol\":6190:6197  _seller */\n      dup2\n        /* \"contracts/business/DutchAuctionHouse.sol\":6156:6168  auctionItems */\n      0x01\n        /* \"contracts/business/DutchAuctionHouse.sol\":6156:6180  auctionItems[nextItemId] */\n      0x00\n        /* \"contracts/business/DutchAuctionHouse.sol\":6169:6179  nextItemId */\n      dup1\n      sload\n        /* \"contracts/business/DutchAuctionHouse.sol\":6156:6180  auctionItems[nextItemId] */\n      dup2\n      mstore\n      0x20\n      add\n      swap1\n      dup2\n      mstore\n      0x20\n      add\n      0x00\n      keccak256\n        /* \"contracts/business/DutchAuctionHouse.sol\":6156:6187  auctionItems[nextItemId].seller */\n      0x02\n      add\n      0x00\n        /* \"contracts/business/DutchAuctionHouse.sol\":6156:6197  auctionItems[nextItemId].seller = _seller */\n      0x0100\n      exp\n      dup2\n      sload\n      dup2\n      0xffffffffffffffffffffffffffffffffffffffff\n      mul\n      not\n      and\n      swap1\n      dup4\n      0xffffffffffffffffffffffffffffffffffffffff\n      and\n      mul\n      or\n      swap1\n      sstore\n      pop\n        /* \"contracts/business/DutchAuctionHouse.sol\":6288:6295  _itemId */\n      dup1\n        /* \"contracts/business/DutchAuctionHouse.sol\":6246:6262  tokenIdToItemIds */\n      0x02\n        /* \"contracts/business/DutchAuctionHouse.sol\":6246:6275  tokenIdToItemIds[_nftAddress] */\n      0x00\n        /* \"contracts/business/DutchAuctionHouse.sol\":6263:6274  _nftAddress */\n      dup7\n        /* \"contracts/business/DutchAuctionHouse.sol\":6246:6275  tokenIdToItemIds[_nftAddress] */\n      0xffffffffffffffffffffffffffffffffffffffff\n      and\n      0xffffffffffffffffffffffffffffffffffffffff\n      and\n      dup2\n      mstore\n      0x20\n      add\n      swap1\n      dup2\n      mstore\n      0x20\n      add\n      0x00\n      keccak256\n        /* \"contracts/business/DutchAuctionHouse.sol\":6246:6285  tokenIdToItemIds[_nftAddress][_tokenId] */\n      0x00\n        /* \"contracts/business/DutchAuctionHouse.sol\":6276:6284  _tokenId */\n      dup6\n        /* \"contracts/business/DutchAuctionHouse.sol\":6246:6285  tokenIdToItemIds[_nftAddress][_tokenId] */\n      dup2\n      mstore\n      0x20\n      add\n      swap1\n      dup2\n      mstore\n      0x20\n      add\n      0x00\n      keccak256\n        /* \"contracts/business/DutchAuctionHouse.sol\":6246:6295  tokenIdToItemIds[_nftAddress][_tokenId] = _itemId */\n      dup2\n      swap1\n      sstore\n      pop\n        /* \"contracts/business/DutchAuctionHouse.sol\":5879:6302  function _addAuctionItem(address _nftAddress, uint256 _tokenId, address _seller, uint256 _itemId) private {... */\n      pop\n      pop\n      pop\n      pop\n      jump\t// out\n        /* \"contracts/business/DutchAuctionHouse.sol\":8941:9118  function _checkItemExists(uint256 itemId) private view {... */\n    tag_183:\n        /* \"contracts/business/DutchAuctionHouse.sol\":9049:9050  0 */\n      0x00\n        /* \"contracts/business/DutchAuctionHouse.sol\":9010:9051  auctionItems[itemId].seller == address(0) */\n      0xffffffffffffffffffffffffffffffffffffffff\n      and\n        /* \"contracts/business/DutchAuctionHouse.sol\":9010:9022  auctionItems */\n      0x01\n        /* \"contracts/business/DutchAuctionHouse.sol\":9010:9030  auctionItems[itemId] */\n      0x00\n        /* \"contracts/business/DutchAuctionHouse.sol\":9023:9029  itemId */\n      dup4\n        /* \"contracts/business/DutchAuctionHouse.sol\":9010:9030  auctionItems[itemId] */\n      dup2\n      mstore\n      0x20\n      add\n      swap1\n      dup2\n      mstore\n      0x20\n      add\n      0x00\n      keccak256\n        /* \"contracts/business/DutchAuctionHouse.sol\":9010:9037  auctionItems[itemId].seller */\n      0x02\n      add\n      0x00\n      swap1\n      sload\n      swap1\n      0x0100\n      exp\n      swap1\n      div\n      0xffffffffffffffffffffffffffffffffffffffff\n      and\n        /* \"contracts/business/DutchAuctionHouse.sol\":9010:9051  auctionItems[itemId].seller == address(0) */\n      0xffffffffffffffffffffffffffffffffffffffff\n      and\n      sub\n        /* \"contracts/business/DutchAuctionHouse.sol\":9006:9112  if (auctionItems[itemId].seller == address(0)) {... */\n      tag_293\n      jumpi\n        /* \"contracts/business/DutchAuctionHouse.sol\":9094:9100  itemId */\n      dup1\n        /* \"contracts/business/DutchAuctionHouse.sol\":9074:9101  AuctionItemNotFound(itemId) */\n      mload(0x40)\n      0x1d60399900000000000000000000000000000000000000000000000000000000\n      dup2\n      mstore\n      0x04\n      add\n      tag_294\n      swap2\n      swap1\n      tag_36\n      jump\t// in\n    tag_294:\n      mload(0x40)\n      dup1\n      swap2\n      sub\n      swap1\n      revert\n        /* \"contracts/business/DutchAuctionHouse.sol\":9006:9112  if (auctionItems[itemId].seller == address(0)) {... */\n    tag_293:\n        /* \"contracts/business/DutchAuctionHouse.sol\":8941:9118  function _checkItemExists(uint256 itemId) private view {... */\n      pop\n      jump\t// out\n        /* \"contracts/business/DutchAuctionHouse.sol\":10721:10837  function calcProfit(uint256 price) internal view returns (uint256) {... */\n    tag_193:\n        /* \"contracts/business/DutchAuctionHouse.sol\":10779:10786  uint256 */\n      0x00\n        /* \"contracts/business/DutchAuctionHouse.sol\":10825:10830  10000 */\n      0x2710\n        /* \"contracts/business/DutchAuctionHouse.sol\":10814:10821  feeRate */\n      sload(0x05)\n        /* \"contracts/business/DutchAuctionHouse.sol\":10806:10811  price */\n      dup4\n        /* \"contracts/business/DutchAuctionHouse.sol\":10806:10821  price * feeRate */\n      tag_296\n      swap2\n      swap1\n      tag_222\n      jump\t// in\n    tag_296:\n        /* \"contracts/business/DutchAuctionHouse.sol\":10805:10830  (price * feeRate) / 10000 */\n      tag_297\n      swap2\n      swap1\n      tag_129\n      jump\t// in\n    tag_297:\n        /* \"contracts/business/DutchAuctionHouse.sol\":10798:10830  return (price * feeRate) / 10000 */\n      swap1\n      pop\n        /* \"contracts/business/DutchAuctionHouse.sol\":10721:10837  function calcProfit(uint256 price) internal view returns (uint256) {... */\n      swap2\n      swap1\n      pop\n      jump\t// out\n        /* \"contracts/structs/BitMaps.sol\":2752:2906  function get(AddressBitMap storage bitmap, address data) internal view returns (bool) {... */\n    tag_254:\n        /* \"contracts/structs/BitMaps.sol\":2832:2836  bool */\n      0x00\n        /* \"contracts/structs/BitMaps.sol\":2855:2899  _get(bitmap._inner, _addressToUint256(data)) */\n      tag_299\n        /* \"contracts/structs/BitMaps.sol\":2860:2866  bitmap */\n      dup4\n        /* \"contracts/structs/BitMaps.sol\":2860:2873  bitmap._inner */\n      0x00\n      add\n        /* \"contracts/structs/BitMaps.sol\":2875:2898  _addressToUint256(data) */\n      tag_300\n        /* \"contracts/structs/BitMaps.sol\":2893:2897  data */\n      dup5\n        /* \"contracts/structs/BitMaps.sol\":2875:2892  _addressToUint256 */\n      tag_301\n        /* \"contracts/structs/BitMaps.sol\":2875:2898  _addressToUint256(data) */\n      jump\t// in\n    tag_300:\n        /* \"contracts/structs/BitMaps.sol\":2855:2859  _get */\n      tag_302\n        /* \"contracts/structs/BitMaps.sol\":2855:2899  _get(bitmap._inner, _addressToUint256(data)) */\n      jump\t// in\n    tag_299:\n        /* \"contracts/structs/BitMaps.sol\":2848:2899  return _get(bitmap._inner, _addressToUint256(data)) */\n      swap1\n      pop\n        /* \"contracts/structs/BitMaps.sol\":2752:2906  function get(AddressBitMap storage bitmap, address data) internal view returns (bool) {... */\n      swap3\n      swap2\n      pop\n      pop\n      jump\t// out\n        /* \"contracts/structs/BitMaps.sol\":3195:3322  function set(AddressBitMap storage bitmap, address data) internal {... */\n    tag_267:\n        /* \"contracts/structs/BitMaps.sol\":3271:3315  _set(bitmap._inner, _addressToUint256(data)) */\n      tag_304\n        /* \"contracts/structs/BitMaps.sol\":3276:3282  bitmap */\n      dup3\n        /* \"contracts/structs/BitMaps.sol\":3276:3289  bitmap._inner */\n      0x00\n      add\n        /* \"contracts/structs/BitMaps.sol\":3291:3314  _addressToUint256(data) */\n      tag_305\n        /* \"contracts/structs/BitMaps.sol\":3309:3313  data */\n      dup4\n        /* \"contracts/structs/BitMaps.sol\":3291:3308  _addressToUint256 */\n      tag_301\n        /* \"contracts/structs/BitMaps.sol\":3291:3314  _addressToUint256(data) */\n      jump\t// in\n    tag_305:\n        /* \"contracts/structs/BitMaps.sol\":3271:3275  _set */\n      tag_306\n        /* \"contracts/structs/BitMaps.sol\":3271:3315  _set(bitmap._inner, _addressToUint256(data)) */\n      jump\t// in\n    tag_304:\n        /* \"contracts/structs/BitMaps.sol\":3195:3322  function set(AddressBitMap storage bitmap, address data) internal {... */\n      pop\n      pop\n      jump\t// out\n        /* \"contracts/structs/BitMaps.sol\":3382:3513  function unset(AddressBitMap storage bitmap, address data) internal {... */\n    tag_276:\n        /* \"contracts/structs/BitMaps.sol\":3460:3506  _unset(bitmap._inner, _addressToUint256(data)) */\n      tag_308\n        /* \"contracts/structs/BitMaps.sol\":3467:3473  bitmap */\n      dup3\n        /* \"contracts/structs/BitMaps.sol\":3467:3480  bitmap._inner */\n      0x00\n      add\n        /* \"contracts/structs/BitMaps.sol\":3482:3505  _addressToUint256(data) */\n      tag_309\n        /* \"contracts/structs/BitMaps.sol\":3500:3504  data */\n      dup4\n        /* \"contracts/structs/BitMaps.sol\":3482:3499  _addressToUint256 */\n      tag_301\n        /* \"contracts/structs/BitMaps.sol\":3482:3505  _addressToUint256(data) */\n      jump\t// in\n    tag_309:\n        /* \"contracts/structs/BitMaps.sol\":3460:3466  _unset */\n      tag_310\n        /* \"contracts/structs/BitMaps.sol\":3460:3506  _unset(bitmap._inner, _addressToUint256(data)) */\n      jump\t// in\n    tag_308:\n        /* \"contracts/structs/BitMaps.sol\":3382:3513  function unset(AddressBitMap storage bitmap, address data) internal {... */\n      pop\n      pop\n      jump\t// out\n        /* \"contracts/structs/BitMaps.sol\":3519:3637  function _addressToUint256(address data) private pure returns (uint256) {... */\n    tag_301:\n        /* \"contracts/structs/BitMaps.sol\":3582:3589  uint256 */\n      0x00\n        /* \"contracts/structs/BitMaps.sol\":3624:3628  data */\n      dup2\n        /* \"contracts/structs/BitMaps.sol\":3608:3630  uint256(uint160(data)) */\n      0xffffffffffffffffffffffffffffffffffffffff\n      and\n        /* \"contracts/structs/BitMaps.sol\":3601:3630  return uint256(uint160(data)) */\n      swap1\n      pop\n        /* \"contracts/structs/BitMaps.sol\":3519:3637  function _addressToUint256(address data) private pure returns (uint256) {... */\n      swap2\n      swap1\n      pop\n      jump\t// out\n        /* \"contracts/structs/BitMaps.sol\":341:543  function _get(BitMap storage bitmap, uint256 data) private view returns (bool) {... */\n    tag_302:\n        /* \"contracts/structs/BitMaps.sol\":414:418  bool */\n      0x00\n        /* \"contracts/structs/BitMaps.sol\":431:445  uint256 bucket */\n      dup1\n        /* \"contracts/structs/BitMaps.sol\":447:459  uint256 mask */\n      0x00\n        /* \"contracts/structs/BitMaps.sol\":463:487  _calcBucketAndMask(data) */\n      tag_313\n        /* \"contracts/structs/BitMaps.sol\":482:486  data */\n      dup5\n        /* \"contracts/structs/BitMaps.sol\":463:481  _calcBucketAndMask */\n      tag_314\n        /* \"contracts/structs/BitMaps.sol\":463:487  _calcBucketAndMask(data) */\n      jump\t// in\n    tag_313:\n        /* \"contracts/structs/BitMaps.sol\":430:487  (uint256 bucket, uint256 mask) = _calcBucketAndMask(data) */\n      swap2\n      pop\n      swap2\n      pop\n        /* \"contracts/structs/BitMaps.sol\":535:536  0 */\n      0x00\n        /* \"contracts/structs/BitMaps.sol\":527:531  mask */\n      dup2\n        /* \"contracts/structs/BitMaps.sol\":504:510  bitmap */\n      dup7\n        /* \"contracts/structs/BitMaps.sol\":504:516  bitmap._data */\n      0x00\n      add\n        /* \"contracts/structs/BitMaps.sol\":504:524  bitmap._data[bucket] */\n      0x00\n        /* \"contracts/structs/BitMaps.sol\":517:523  bucket */\n      dup6\n        /* \"contracts/structs/BitMaps.sol\":504:524  bitmap._data[bucket] */\n      dup2\n      mstore\n      0x20\n      add\n      swap1\n      dup2\n      mstore\n      0x20\n      add\n      0x00\n      keccak256\n      sload\n        /* \"contracts/structs/BitMaps.sol\":504:531  bitmap._data[bucket] & mask */\n      and\n        /* \"contracts/structs/BitMaps.sol\":504:536  bitmap._data[bucket] & mask != 0 */\n      eq\n      iszero\n        /* \"contracts/structs/BitMaps.sol\":497:536  return bitmap._data[bucket] & mask != 0 */\n      swap3\n      pop\n      pop\n      pop\n        /* \"contracts/structs/BitMaps.sol\":341:543  function _get(BitMap storage bitmap, uint256 data) private view returns (bool) {... */\n      swap3\n      swap2\n      pop\n      pop\n      jump\t// out\n        /* \"contracts/structs/BitMaps.sol\":876:1047  function _set(BitMap storage bitmap, uint256 data) private {... */\n    tag_306:\n        /* \"contracts/structs/BitMaps.sol\":946:960  uint256 bucket */\n      0x00\n        /* \"contracts/structs/BitMaps.sol\":962:974  uint256 mask */\n      dup1\n        /* \"contracts/structs/BitMaps.sol\":978:1002  _calcBucketAndMask(data) */\n      tag_316\n        /* \"contracts/structs/BitMaps.sol\":997:1001  data */\n      dup4\n        /* \"contracts/structs/BitMaps.sol\":978:996  _calcBucketAndMask */\n      tag_314\n        /* \"contracts/structs/BitMaps.sol\":978:1002  _calcBucketAndMask(data) */\n      jump\t// in\n    tag_316:\n        /* \"contracts/structs/BitMaps.sol\":945:1002  (uint256 bucket, uint256 mask) = _calcBucketAndMask(data) */\n      swap2\n      pop\n      swap2\n      pop\n        /* \"contracts/structs/BitMaps.sol\":1036:1040  mask */\n      dup1\n        /* \"contracts/structs/BitMaps.sol\":1012:1018  bitmap */\n      dup5\n        /* \"contracts/structs/BitMaps.sol\":1012:1024  bitmap._data */\n      0x00\n      add\n        /* \"contracts/structs/BitMaps.sol\":1012:1032  bitmap._data[bucket] */\n      0x00\n        /* \"contracts/structs/BitMaps.sol\":1025:1031  bucket */\n      dup5\n        /* \"contracts/structs/BitMaps.sol\":1012:1032  bitmap._data[bucket] */\n      dup2\n      mstore\n      0x20\n      add\n      swap1\n      dup2\n      mstore\n      0x20\n      add\n      0x00\n      keccak256\n      0x00\n        /* \"contracts/structs/BitMaps.sol\":1012:1040  bitmap._data[bucket] |= mask */\n      dup3\n      dup3\n      sload\n      or\n      swap3\n      pop\n      pop\n      dup2\n      swap1\n      sstore\n      pop\n        /* \"contracts/structs/BitMaps.sol\":935:1047  {... */\n      pop\n      pop\n        /* \"contracts/structs/BitMaps.sol\":876:1047  function _set(BitMap storage bitmap, uint256 data) private {... */\n      pop\n      pop\n      jump\t// out\n        /* \"contracts/structs/BitMaps.sol\":1107:1281  function _unset(BitMap storage bitmap, uint256 data) private {... */\n    tag_310:\n        /* \"contracts/structs/BitMaps.sol\":1179:1193  uint256 bucket */\n      0x00\n        /* \"contracts/structs/BitMaps.sol\":1195:1207  uint256 mask */\n      dup1\n        /* \"contracts/structs/BitMaps.sol\":1211:1235  _calcBucketAndMask(data) */\n      tag_318\n        /* \"contracts/structs/BitMaps.sol\":1230:1234  data */\n      dup4\n        /* \"contracts/structs/BitMaps.sol\":1211:1229  _calcBucketAndMask */\n      tag_314\n        /* \"contracts/structs/BitMaps.sol\":1211:1235  _calcBucketAndMask(data) */\n      jump\t// in\n    tag_318:\n        /* \"contracts/structs/BitMaps.sol\":1178:1235  (uint256 bucket, uint256 mask) = _calcBucketAndMask(data) */\n      swap2\n      pop\n      swap2\n      pop\n        /* \"contracts/structs/BitMaps.sol\":1270:1274  mask */\n      dup1\n        /* \"contracts/structs/BitMaps.sol\":1269:1274  ~mask */\n      not\n        /* \"contracts/structs/BitMaps.sol\":1245:1251  bitmap */\n      dup5\n        /* \"contracts/structs/BitMaps.sol\":1245:1257  bitmap._data */\n      0x00\n      add\n        /* \"contracts/structs/BitMaps.sol\":1245:1265  bitmap._data[bucket] */\n      0x00\n        /* \"contracts/structs/BitMaps.sol\":1258:1264  bucket */\n      dup5\n        /* \"contracts/structs/BitMaps.sol\":1245:1265  bitmap._data[bucket] */\n      dup2\n      mstore\n      0x20\n      add\n      swap1\n      dup2\n      mstore\n      0x20\n      add\n      0x00\n      keccak256\n      0x00\n        /* \"contracts/structs/BitMaps.sol\":1245:1274  bitmap._data[bucket] &= ~mask */\n      dup3\n      dup3\n      sload\n      and\n      swap3\n      pop\n      pop\n      dup2\n      swap1\n      sstore\n      pop\n        /* \"contracts/structs/BitMaps.sol\":1168:1281  {... */\n      pop\n      pop\n        /* \"contracts/structs/BitMaps.sol\":1107:1281  function _unset(BitMap storage bitmap, uint256 data) private {... */\n      pop\n      pop\n      jump\t// out\n        /* \"contracts/structs/BitMaps.sol\":1329:1757  function _calcBucketAndMask(uint256 data) private pure returns (uint256 bucket, uint256 mask) {... */\n    tag_314:\n        /* \"contracts/structs/BitMaps.sol\":1393:1407  uint256 bucket */\n      0x00\n        /* \"contracts/structs/BitMaps.sol\":1409:1421  uint256 mask */\n      dup1\n        /* \"contracts/structs/BitMaps.sol\":1525:1526  8 */\n      0x08\n        /* \"contracts/structs/BitMaps.sol\":1517:1521  data */\n      dup4\n        /* \"contracts/structs/BitMaps.sol\":1517:1526  data >> 8 */\n      swap1\n      shr\n        /* \"contracts/structs/BitMaps.sol\":1508:1526  bucket = data >> 8 */\n      swap2\n      pop\n        /* \"contracts/structs/BitMaps.sol\":1745:1749  0xff */\n      0xff\n        /* \"contracts/structs/BitMaps.sol\":1738:1742  data */\n      dup4\n        /* \"contracts/structs/BitMaps.sol\":1738:1749  data & 0xff */\n      and\n        /* \"contracts/structs/BitMaps.sol\":1732:1733  1 */\n      0x01\n        /* \"contracts/structs/BitMaps.sol\":1732:1750  1 << (data & 0xff) */\n      swap1\n      shl\n        /* \"contracts/structs/BitMaps.sol\":1725:1750  mask = 1 << (data & 0xff) */\n      swap1\n      pop\n        /* \"contracts/structs/BitMaps.sol\":1329:1757  function _calcBucketAndMask(uint256 data) private pure returns (uint256 bucket, uint256 mask) {... */\n      swap2\n      pop\n      swap2\n      jump\t// out\n        /* \"#utility.yul\":7:82   */\n    tag_320:\n        /* \"#utility.yul\":40:46   */\n      0x00\n        /* \"#utility.yul\":73:75   */\n      0x40\n        /* \"#utility.yul\":67:76   */\n      mload\n        /* \"#utility.yul\":57:76   */\n      swap1\n      pop\n        /* \"#utility.yul\":7:82   */\n      swap1\n      jump\t// out\n        /* \"#utility.yul\":88:205   */\n    tag_321:\n        /* \"#utility.yul\":197:198   */\n      0x00\n        /* \"#utility.yul\":194:195   */\n      dup1\n        /* \"#utility.yul\":187:199   */\n      revert\n        /* \"#utility.yul\":211:328   */\n    tag_322:\n        /* \"#utility.yul\":320:321   */\n      0x00\n        /* \"#utility.yul\":317:318   */\n      dup1\n        /* \"#utility.yul\":310:322   */\n      revert\n        /* \"#utility.yul\":334:411   */\n    tag_323:\n        /* \"#utility.yul\":371:378   */\n      0x00\n        /* \"#utility.yul\":400:405   */\n      dup2\n        /* \"#utility.yul\":389:405   */\n      swap1\n      pop\n        /* \"#utility.yul\":334:411   */\n      swap2\n      swap1\n      pop\n      jump\t// out\n        /* \"#utility.yul\":417:539   */\n    tag_324:\n        /* \"#utility.yul\":490:514   */\n      tag_394\n        /* \"#utility.yul\":508:513   */\n      dup2\n        /* \"#utility.yul\":490:514   */\n      tag_323\n      jump\t// in\n    tag_394:\n        /* \"#utility.yul\":483:488   */\n      dup2\n        /* \"#utility.yul\":480:515   */\n      eq\n        /* \"#utility.yul\":470:533   */\n      tag_395\n      jumpi\n        /* \"#utility.yul\":529:530   */\n      0x00\n        /* \"#utility.yul\":526:527   */\n      dup1\n        /* \"#utility.yul\":519:531   */\n      revert\n        /* \"#utility.yul\":470:533   */\n    tag_395:\n        /* \"#utility.yul\":417:539   */\n      pop\n      jump\t// out\n        /* \"#utility.yul\":545:684   */\n    tag_325:\n        /* \"#utility.yul\":591:596   */\n      0x00\n        /* \"#utility.yul\":629:635   */\n      dup2\n        /* \"#utility.yul\":616:636   */\n      calldataload\n        /* \"#utility.yul\":607:636   */\n      swap1\n      pop\n        /* \"#utility.yul\":645:678   */\n      tag_397\n        /* \"#utility.yul\":672:677   */\n      dup2\n        /* \"#utility.yul\":645:678   */\n      tag_324\n      jump\t// in\n    tag_397:\n        /* \"#utility.yul\":545:684   */\n      swap3\n      swap2\n      pop\n      pop\n      jump\t// out\n        /* \"#utility.yul\":690:1747   */\n    tag_28:\n        /* \"#utility.yul\":794:800   */\n      0x00\n        /* \"#utility.yul\":802:808   */\n      dup1\n        /* \"#utility.yul\":810:816   */\n      0x00\n        /* \"#utility.yul\":818:824   */\n      dup1\n        /* \"#utility.yul\":826:832   */\n      0x00\n        /* \"#utility.yul\":834:840   */\n      dup1\n        /* \"#utility.yul\":883:886   */\n      0xc0\n        /* \"#utility.yul\":871:880   */\n      dup8\n        /* \"#utility.yul\":862:869   */\n      dup10\n        /* \"#utility.yul\":858:881   */\n      sub\n        /* \"#utility.yul\":854:887   */\n      slt\n        /* \"#utility.yul\":851:971   */\n      iszero\n      tag_399\n      jumpi\n        /* \"#utility.yul\":890:969   */\n      tag_400\n      tag_321\n      jump\t// in\n    tag_400:\n        /* \"#utility.yul\":851:971   */\n    tag_399:\n        /* \"#utility.yul\":1010:1011   */\n      0x00\n        /* \"#utility.yul\":1035:1088   */\n      tag_401\n        /* \"#utility.yul\":1080:1087   */\n      dup10\n        /* \"#utility.yul\":1071:1077   */\n      dup3\n        /* \"#utility.yul\":1060:1069   */\n      dup11\n        /* \"#utility.yul\":1056:1078   */\n      add\n        /* \"#utility.yul\":1035:1088   */\n      tag_325\n      jump\t// in\n    tag_401:\n        /* \"#utility.yul\":1025:1088   */\n      swap7\n      pop\n        /* \"#utility.yul\":981:1098   */\n      pop\n        /* \"#utility.yul\":1137:1139   */\n      0x20\n        /* \"#utility.yul\":1163:1216   */\n      tag_402\n        /* \"#utility.yul\":1208:1215   */\n      dup10\n        /* \"#utility.yul\":1199:1205   */\n      dup3\n        /* \"#utility.yul\":1188:1197   */\n      dup11\n        /* \"#utility.yul\":1184:1206   */\n      add\n        /* \"#utility.yul\":1163:1216   */\n      tag_325\n      jump\t// in\n    tag_402:\n        /* \"#utility.yul\":1153:1216   */\n      swap6\n      pop\n        /* \"#utility.yul\":1108:1226   */\n      pop\n        /* \"#utility.yul\":1265:1267   */\n      0x40\n        /* \"#utility.yul\":1291:1344   */\n      tag_403\n        /* \"#utility.yul\":1336:1343   */\n      dup10\n        /* \"#utility.yul\":1327:1333   */\n      dup3\n        /* \"#utility.yul\":1316:1325   */\n      dup11\n        /* \"#utility.yul\":1312:1334   */\n      add\n        /* \"#utility.yul\":1291:1344   */\n      tag_325\n      jump\t// in\n    tag_403:\n        /* \"#utility.yul\":1281:1344   */\n      swap5\n      pop\n        /* \"#utility.yul\":1236:1354   */\n      pop\n        /* \"#utility.yul\":1393:1395   */\n      0x60\n        /* \"#utility.yul\":1419:1472   */\n      tag_404\n        /* \"#utility.yul\":1464:1471   */\n      dup10\n        /* \"#utility.yul\":1455:1461   */\n      dup3\n        /* \"#utility.yul\":1444:1453   */\n      dup11\n        /* \"#utility.yul\":1440:1462   */\n      add\n        /* \"#utility.yul\":1419:1472   */\n      tag_325\n      jump\t// in\n    tag_404:\n        /* \"#utility.yul\":1409:1472   */\n      swap4\n      pop\n        /* \"#utility.yul\":1364:1482   */\n      pop\n        /* \"#utility.yul\":1521:1524   */\n      0x80\n        /* \"#utility.yul\":1548:1601   */\n      tag_405\n        /* \"#utility.yul\":1593:1600   */\n      dup10\n        /* \"#utility.yul\":1584:1590   */\n      dup3\n        /* \"#utility.yul\":1573:1582   */\n      dup11\n        /* \"#utility.yul\":1569:1591   */\n      add\n        /* \"#utility.yul\":1548:1601   */\n      tag_325\n      jump\t// in\n    tag_405:\n        /* \"#utility.yul\":1538:1601   */\n      swap3\n      pop\n        /* \"#utility.yul\":1492:1611   */\n      pop\n        /* \"#utility.yul\":1650:1653   */\n      0xa0\n        /* \"#utility.yul\":1677:1730   */\n      tag_406\n        /* \"#utility.yul\":1722:1729   */\n      dup10\n        /* \"#utility.yul\":1713:1719   */\n      dup3\n        /* \"#utility.yul\":1702:1711   */\n      dup11\n        /* \"#utility.yul\":1698:1720   */\n      add\n        /* \"#utility.yul\":1677:1730   */\n      tag_325\n      jump\t// in\n    tag_406:\n        /* \"#utility.yul\":1667:1730   */\n      swap2\n      pop\n        /* \"#utility.yul\":1621:1740   */\n      pop\n        /* \"#utility.yul\":690:1747   */\n      swap3\n      swap6\n      pop\n      swap3\n      swap6\n      pop\n      swap3\n      swap6\n      jump\t// out\n        /* \"#utility.yul\":1753:1879   */\n    tag_326:\n        /* \"#utility.yul\":1790:1797   */\n      0x00\n        /* \"#utility.yul\":1830:1872   */\n      0xffffffffffffffffffffffffffffffffffffffff\n        /* \"#utility.yul\":1823:1828   */\n      dup3\n        /* \"#utility.yul\":1819:1873   */\n      and\n        /* \"#utility.yul\":1808:1873   */\n      swap1\n      pop\n        /* \"#utility.yul\":1753:1879   */\n      swap2\n      swap1\n      pop\n      jump\t// out\n        /* \"#utility.yul\":1885:1981   */\n    tag_327:\n        /* \"#utility.yul\":1922:1929   */\n      0x00\n        /* \"#utility.yul\":1951:1975   */\n      tag_409\n        /* \"#utility.yul\":1969:1974   */\n      dup3\n        /* \"#utility.yul\":1951:1975   */\n      tag_326\n      jump\t// in\n    tag_409:\n        /* \"#utility.yul\":1940:1975   */\n      swap1\n      pop\n        /* \"#utility.yul\":1885:1981   */\n      swap2\n      swap1\n      pop\n      jump\t// out\n        /* \"#utility.yul\":1987:2109   */\n    tag_328:\n        /* \"#utility.yul\":2060:2084   */\n      tag_411\n        /* \"#utility.yul\":2078:2083   */\n      dup2\n        /* \"#utility.yul\":2060:2084   */\n      tag_327\n      jump\t// in\n    tag_411:\n        /* \"#utility.yul\":2053:2058   */\n      dup2\n        /* \"#utility.yul\":2050:2085   */\n      eq\n        /* \"#utility.yul\":2040:2103   */\n      tag_412\n      jumpi\n        /* \"#utility.yul\":2099:2100   */\n      0x00\n        /* \"#utility.yul\":2096:2097   */\n      dup1\n        /* \"#utility.yul\":2089:2101   */\n      revert\n        /* \"#utility.yul\":2040:2103   */\n    tag_412:\n        /* \"#utility.yul\":1987:2109   */\n      pop\n      jump\t// out\n        /* \"#utility.yul\":2115:2254   */\n    tag_329:\n        /* \"#utility.yul\":2161:2166   */\n      0x00\n        /* \"#utility.yul\":2199:2205   */\n      dup2\n        /* \"#utility.yul\":2186:2206   */\n      calldataload\n        /* \"#utility.yul\":2177:2206   */\n      swap1\n      pop\n        /* \"#utility.yul\":2215:2248   */\n      tag_414\n        /* \"#utility.yul\":2242:2247   */\n      dup2\n        /* \"#utility.yul\":2215:2248   */\n      tag_328\n      jump\t// in\n    tag_414:\n        /* \"#utility.yul\":2115:2254   */\n      swap3\n      swap2\n      pop\n      pop\n      jump\t// out\n        /* \"#utility.yul\":2260:2734   */\n    tag_33:\n        /* \"#utility.yul\":2328:2334   */\n      0x00\n        /* \"#utility.yul\":2336:2342   */\n      dup1\n        /* \"#utility.yul\":2385:2387   */\n      0x40\n        /* \"#utility.yul\":2373:2382   */\n      dup4\n        /* \"#utility.yul\":2364:2371   */\n      dup6\n        /* \"#utility.yul\":2360:2383   */\n      sub\n        /* \"#utility.yul\":2356:2388   */\n      slt\n        /* \"#utility.yul\":2353:2472   */\n      iszero\n      tag_416\n      jumpi\n        /* \"#utility.yul\":2391:2470   */\n      tag_417\n      tag_321\n      jump\t// in\n    tag_417:\n        /* \"#utility.yul\":2353:2472   */\n    tag_416:\n        /* \"#utility.yul\":2511:2512   */\n      0x00\n        /* \"#utility.yul\":2536:2589   */\n      tag_418\n        /* \"#utility.yul\":2581:2588   */\n      dup6\n        /* \"#utility.yul\":2572:2578   */\n      dup3\n        /* \"#utility.yul\":2561:2570   */\n      dup7\n        /* \"#utility.yul\":2557:2579   */\n      add\n        /* \"#utility.yul\":2536:2589   */\n      tag_329\n      jump\t// in\n    tag_418:\n        /* \"#utility.yul\":2526:2589   */\n      swap3\n      pop\n        /* \"#utility.yul\":2482:2599   */\n      pop\n        /* \"#utility.yul\":2638:2640   */\n      0x20\n        /* \"#utility.yul\":2664:2717   */\n      tag_419\n        /* \"#utility.yul\":2709:2716   */\n      dup6\n        /* \"#utility.yul\":2700:2706   */\n      dup3\n        /* \"#utility.yul\":2689:2698   */\n      dup7\n        /* \"#utility.yul\":2685:2707   */\n      add\n        /* \"#utility.yul\":2664:2717   */\n      tag_325\n      jump\t// in\n    tag_419:\n        /* \"#utility.yul\":2654:2717   */\n      swap2\n      pop\n        /* \"#utility.yul\":2609:2727   */\n      pop\n        /* \"#utility.yul\":2260:2734   */\n      swap3\n      pop\n      swap3\n      swap1\n      pop\n      jump\t// out\n        /* \"#utility.yul\":2740:2858   */\n    tag_330:\n        /* \"#utility.yul\":2827:2851   */\n      tag_421\n        /* \"#utility.yul\":2845:2850   */\n      dup2\n        /* \"#utility.yul\":2827:2851   */\n      tag_323\n      jump\t// in\n    tag_421:\n        /* \"#utility.yul\":2822:2825   */\n      dup3\n        /* \"#utility.yul\":2815:2852   */\n      mstore\n        /* \"#utility.yul\":2740:2858   */\n      pop\n      pop\n      jump\t// out\n        /* \"#utility.yul\":2864:3086   */\n    tag_36:\n        /* \"#utility.yul\":2957:2961   */\n      0x00\n        /* \"#utility.yul\":2995:2997   */\n      0x20\n        /* \"#utility.yul\":2984:2993   */\n      dup3\n        /* \"#utility.yul\":2980:2998   */\n      add\n        /* \"#utility.yul\":2972:2998   */\n      swap1\n      pop\n        /* \"#utility.yul\":3008:3079   */\n      tag_423\n        /* \"#utility.yul\":3076:3077   */\n      0x00\n        /* \"#utility.yul\":3065:3074   */\n      dup4\n        /* \"#utility.yul\":3061:3078   */\n      add\n        /* \"#utility.yul\":3052:3058   */\n      dup5\n        /* \"#utility.yul\":3008:3079   */\n      tag_330\n      jump\t// in\n    tag_423:\n        /* \"#utility.yul\":2864:3086   */\n      swap3\n      swap2\n      pop\n      pop\n      jump\t// out\n        /* \"#utility.yul\":3092:3209   */\n    tag_331:\n        /* \"#utility.yul\":3201:3202   */\n      0x00\n        /* \"#utility.yul\":3198:3199   */\n      dup1\n        /* \"#utility.yul\":3191:3203   */\n      revert\n        /* \"#utility.yul\":3215:3332   */\n    tag_332:\n        /* \"#utility.yul\":3324:3325   */\n      0x00\n        /* \"#utility.yul\":3321:3322   */\n      dup1\n        /* \"#utility.yul\":3314:3326   */\n      revert\n        /* \"#utility.yul\":3338:3440   */\n    tag_333:\n        /* \"#utility.yul\":3379:3385   */\n      0x00\n        /* \"#utility.yul\":3430:3432   */\n      0x1f\n        /* \"#utility.yul\":3426:3433   */\n      not\n        /* \"#utility.yul\":3421:3423   */\n      0x1f\n        /* \"#utility.yul\":3414:3419   */\n      dup4\n        /* \"#utility.yul\":3410:3424   */\n      add\n        /* \"#utility.yul\":3406:3434   */\n      and\n        /* \"#utility.yul\":3396:3434   */\n      swap1\n      pop\n        /* \"#utility.yul\":3338:3440   */\n      swap2\n      swap1\n      pop\n      jump\t// out\n        /* \"#utility.yul\":3446:3626   */\n    tag_334:\n        /* \"#utility.yul\":3494:3571   */\n      0x4e487b7100000000000000000000000000000000000000000000000000000000\n        /* \"#utility.yul\":3491:3492   */\n      0x00\n        /* \"#utility.yul\":3484:3572   */\n      mstore\n        /* \"#utility.yul\":3591:3595   */\n      0x41\n        /* \"#utility.yul\":3588:3589   */\n      0x04\n        /* \"#utility.yul\":3581:3596   */\n      mstore\n        /* \"#utility.yul\":3615:3619   */\n      0x24\n        /* \"#utility.yul\":3612:3613   */\n      0x00\n        /* \"#utility.yul\":3605:3620   */\n      revert\n        /* \"#utility.yul\":3632:3913   */\n    tag_335:\n        /* \"#utility.yul\":3715:3742   */\n      tag_429\n        /* \"#utility.yul\":3737:3741   */\n      dup3\n        /* \"#utility.yul\":3715:3742   */\n      tag_333\n      jump\t// in\n    tag_429:\n        /* \"#utility.yul\":3707:3713   */\n      dup2\n        /* \"#utility.yul\":3703:3743   */\n      add\n        /* \"#utility.yul\":3845:3851   */\n      dup2\n        /* \"#utility.yul\":3833:3843   */\n      dup2\n        /* \"#utility.yul\":3830:3852   */\n      lt\n        /* \"#utility.yul\":3809:3827   */\n      0xffffffffffffffff\n        /* \"#utility.yul\":3797:3807   */\n      dup3\n        /* \"#utility.yul\":3794:3828   */\n      gt\n        /* \"#utility.yul\":3791:3853   */\n      or\n        /* \"#utility.yul\":3788:3876   */\n      iszero\n      tag_430\n      jumpi\n        /* \"#utility.yul\":3856:3874   */\n      tag_431\n      tag_334\n      jump\t// in\n    tag_431:\n        /* \"#utility.yul\":3788:3876   */\n    tag_430:\n        /* \"#utility.yul\":3896:3906   */\n      dup1\n        /* \"#utility.yul\":3892:3894   */\n      0x40\n        /* \"#utility.yul\":3885:3907   */\n      mstore\n        /* \"#utility.yul\":3675:3913   */\n      pop\n        /* \"#utility.yul\":3632:3913   */\n      pop\n      pop\n      jump\t// out\n        /* \"#utility.yul\":3919:4048   */\n    tag_336:\n        /* \"#utility.yul\":3953:3959   */\n      0x00\n        /* \"#utility.yul\":3980:4000   */\n      tag_433\n      tag_320\n      jump\t// in\n    tag_433:\n        /* \"#utility.yul\":3970:4000   */\n      swap1\n      pop\n        /* \"#utility.yul\":4009:4042   */\n      tag_434\n        /* \"#utility.yul\":4037:4041   */\n      dup3\n        /* \"#utility.yul\":4029:4035   */\n      dup3\n        /* \"#utility.yul\":4009:4042   */\n      tag_335\n      jump\t// in\n    tag_434:\n        /* \"#utility.yul\":3919:4048   */\n      swap2\n      swap1\n      pop\n      jump\t// out\n        /* \"#utility.yul\":4054:4361   */\n    tag_337:\n        /* \"#utility.yul\":4115:4119   */\n      0x00\n        /* \"#utility.yul\":4205:4223   */\n      0xffffffffffffffff\n        /* \"#utility.yul\":4197:4203   */\n      dup3\n        /* \"#utility.yul\":4194:4224   */\n      gt\n        /* \"#utility.yul\":4191:4247   */\n      iszero\n      tag_436\n      jumpi\n        /* \"#utility.yul\":4227:4245   */\n      tag_437\n      tag_334\n      jump\t// in\n    tag_437:\n        /* \"#utility.yul\":4191:4247   */\n    tag_436:\n        /* \"#utility.yul\":4265:4294   */\n      tag_438\n        /* \"#utility.yul\":4287:4293   */\n      dup3\n        /* \"#utility.yul\":4265:4294   */\n      tag_333\n      jump\t// in\n    tag_438:\n        /* \"#utility.yul\":4257:4294   */\n      swap1\n      pop\n        /* \"#utility.yul\":4349:4353   */\n      0x20\n        /* \"#utility.yul\":4343:4347   */\n      dup2\n        /* \"#utility.yul\":4339:4354   */\n      add\n        /* \"#utility.yul\":4331:4354   */\n      swap1\n      pop\n        /* \"#utility.yul\":4054:4361   */\n      swap2\n      swap1\n      pop\n      jump\t// out\n        /* \"#utility.yul\":4367:4515   */\n    tag_338:\n        /* \"#utility.yul\":4465:4471   */\n      dup3\n        /* \"#utility.yul\":4460:4463   */\n      dup2\n        /* \"#utility.yul\":4455:4458   */\n      dup4\n        /* \"#utility.yul\":4442:4472   */\n      calldatacopy\n        /* \"#utility.yul\":4506:4507   */\n      0x00\n        /* \"#utility.yul\":4497:4503   */\n      dup4\n        /* \"#utility.yul\":4492:4495   */\n      dup4\n        /* \"#utility.yul\":4488:4504   */\n      add\n        /* \"#utility.yul\":4481:4508   */\n      mstore\n        /* \"#utility.yul\":4367:4515   */\n      pop\n      pop\n      pop\n      jump\t// out\n        /* \"#utility.yul\":4521:4944   */\n    tag_339:\n        /* \"#utility.yul\":4598:4603   */\n      0x00\n        /* \"#utility.yul\":4623:4688   */\n      tag_441\n        /* \"#utility.yul\":4639:4687   */\n      tag_442\n        /* \"#utility.yul\":4680:4686   */\n      dup5\n        /* \"#utility.yul\":4639:4687   */\n      tag_337\n      jump\t// in\n    tag_442:\n        /* \"#utility.yul\":4623:4688   */\n      tag_336\n      jump\t// in\n    tag_441:\n        /* \"#utility.yul\":4614:4688   */\n      swap1\n      pop\n        /* \"#utility.yul\":4711:4717   */\n      dup3\n        /* \"#utility.yul\":4704:4709   */\n      dup2\n        /* \"#utility.yul\":4697:4718   */\n      mstore\n        /* \"#utility.yul\":4749:4753   */\n      0x20\n        /* \"#utility.yul\":4742:4747   */\n      dup2\n        /* \"#utility.yul\":4738:4754   */\n      add\n        /* \"#utility.yul\":4787:4790   */\n      dup5\n        /* \"#utility.yul\":4778:4784   */\n      dup5\n        /* \"#utility.yul\":4773:4776   */\n      dup5\n        /* \"#utility.yul\":4769:4785   */\n      add\n        /* \"#utility.yul\":4766:4791   */\n      gt\n        /* \"#utility.yul\":4763:4875   */\n      iszero\n      tag_443\n      jumpi\n        /* \"#utility.yul\":4794:4873   */\n      tag_444\n      tag_332\n      jump\t// in\n    tag_444:\n        /* \"#utility.yul\":4763:4875   */\n    tag_443:\n        /* \"#utility.yul\":4884:4938   */\n      tag_445\n        /* \"#utility.yul\":4931:4937   */\n      dup5\n        /* \"#utility.yul\":4926:4929   */\n      dup3\n        /* \"#utility.yul\":4921:4924   */\n      dup6\n        /* \"#utility.yul\":4884:4938   */\n      tag_338\n      jump\t// in\n    tag_445:\n        /* \"#utility.yul\":4604:4944   */\n      pop\n        /* \"#utility.yul\":4521:4944   */\n      swap4\n      swap3\n      pop\n      pop\n      pop\n      jump\t// out\n        /* \"#utility.yul\":4963:5301   */\n    tag_340:\n        /* \"#utility.yul\":5018:5023   */\n      0x00\n        /* \"#utility.yul\":5067:5070   */\n      dup3\n        /* \"#utility.yul\":5060:5064   */\n      0x1f\n        /* \"#utility.yul\":5052:5058   */\n      dup4\n        /* \"#utility.yul\":5048:5065   */\n      add\n        /* \"#utility.yul\":5044:5071   */\n      slt\n        /* \"#utility.yul\":5034:5156   */\n      tag_447\n      jumpi\n        /* \"#utility.yul\":5075:5154   */\n      tag_448\n      tag_331\n      jump\t// in\n    tag_448:\n        /* \"#utility.yul\":5034:5156   */\n    tag_447:\n        /* \"#utility.yul\":5192:5198   */\n      dup2\n        /* \"#utility.yul\":5179:5199   */\n      calldataload\n        /* \"#utility.yul\":5217:5295   */\n      tag_449\n        /* \"#utility.yul\":5291:5294   */\n      dup5\n        /* \"#utility.yul\":5283:5289   */\n      dup3\n        /* \"#utility.yul\":5276:5280   */\n      0x20\n        /* \"#utility.yul\":5268:5274   */\n      dup7\n        /* \"#utility.yul\":5264:5281   */\n      add\n        /* \"#utility.yul\":5217:5295   */\n      tag_339\n      jump\t// in\n    tag_449:\n        /* \"#utility.yul\":5208:5295   */\n      swap2\n      pop\n        /* \"#utility.yul\":5024:5301   */\n      pop\n        /* \"#utility.yul\":4963:5301   */\n      swap3\n      swap2\n      pop\n      pop\n      jump\t// out\n        /* \"#utility.yul\":5307:6250   */\n    tag_44:\n        /* \"#utility.yul\":5402:5408   */\n      0x00\n        /* \"#utility.yul\":5410:5416   */\n      dup1\n        /* \"#utility.yul\":5418:5424   */\n      0x00\n        /* \"#utility.yul\":5426:5432   */\n      dup1\n        /* \"#utility.yul\":5475:5478   */\n      0x80\n        /* \"#utility.yul\":5463:5472   */\n      dup6\n        /* \"#utility.yul\":5454:5461   */\n      dup8\n        /* \"#utility.yul\":5450:5473   */\n      sub\n        /* \"#utility.yul\":5446:5479   */\n      slt\n        /* \"#utility.yul\":5443:5563   */\n      iszero\n      tag_451\n      jumpi\n        /* \"#utility.yul\":5482:5561   */\n      tag_452\n      tag_321\n      jump\t// in\n    tag_452:\n        /* \"#utility.yul\":5443:5563   */\n    tag_451:\n        /* \"#utility.yul\":5602:5603   */\n      0x00\n        /* \"#utility.yul\":5627:5680   */\n      tag_453\n        /* \"#utility.yul\":5672:5679   */\n      dup8\n        /* \"#utility.yul\":5663:5669   */\n      dup3\n        /* \"#utility.yul\":5652:5661   */\n      dup9\n        /* \"#utility.yul\":5648:5670   */\n      add\n        /* \"#utility.yul\":5627:5680   */\n      tag_329\n      jump\t// in\n    tag_453:\n        /* \"#utility.yul\":5617:5680   */\n      swap5\n      pop\n        /* \"#utility.yul\":5573:5690   */\n      pop\n        /* \"#utility.yul\":5729:5731   */\n      0x20\n        /* \"#utility.yul\":5755:5808   */\n      tag_454\n        /* \"#utility.yul\":5800:5807   */\n      dup8\n        /* \"#utility.yul\":5791:5797   */\n      dup3\n        /* \"#utility.yul\":5780:5789   */\n      dup9\n        /* \"#utility.yul\":5776:5798   */\n      add\n        /* \"#utility.yul\":5755:5808   */\n      tag_329\n      jump\t// in\n    tag_454:\n        /* \"#utility.yul\":5745:5808   */\n      swap4\n      pop\n        /* \"#utility.yul\":5700:5818   */\n      pop\n        /* \"#utility.yul\":5857:5859   */\n      0x40\n        /* \"#utility.yul\":5883:5936   */\n      tag_455\n        /* \"#utility.yul\":5928:5935   */\n      dup8\n        /* \"#utility.yul\":5919:5925   */\n      dup3\n        /* \"#utility.yul\":5908:5917   */\n      dup9\n        /* \"#utility.yul\":5904:5926   */\n      add\n        /* \"#utility.yul\":5883:5936   */\n      tag_325\n      jump\t// in\n    tag_455:\n        /* \"#utility.yul\":5873:5936   */\n      swap3\n      pop\n        /* \"#utility.yul\":5828:5946   */\n      pop\n        /* \"#utility.yul\":6013:6015   */\n      0x60\n        /* \"#utility.yul\":6002:6011   */\n      dup6\n        /* \"#utility.yul\":5998:6016   */\n      add\n        /* \"#utility.yul\":5985:6017   */\n      calldataload\n        /* \"#utility.yul\":6044:6062   */\n      0xffffffffffffffff\n        /* \"#utility.yul\":6036:6042   */\n      dup2\n        /* \"#utility.yul\":6033:6063   */\n      gt\n        /* \"#utility.yul\":6030:6147   */\n      iszero\n      tag_456\n      jumpi\n        /* \"#utility.yul\":6066:6145   */\n      tag_457\n      tag_322\n      jump\t// in\n    tag_457:\n        /* \"#utility.yul\":6030:6147   */\n    tag_456:\n        /* \"#utility.yul\":6171:6233   */\n      tag_458\n        /* \"#utility.yul\":6225:6232   */\n      dup8\n        /* \"#utility.yul\":6216:6222   */\n      dup3\n        /* \"#utility.yul\":6205:6214   */\n      dup9\n        /* \"#utility.yul\":6201:6223   */\n      add\n        /* \"#utility.yul\":6171:6233   */\n      tag_340\n      jump\t// in\n    tag_458:\n        /* \"#utility.yul\":6161:6233   */\n      swap2\n      pop\n        /* \"#utility.yul\":5956:6243   */\n      pop\n        /* \"#utility.yul\":5307:6250   */\n      swap3\n      swap6\n      swap2\n      swap5\n      pop\n      swap3\n      pop\n      jump\t// out\n        /* \"#utility.yul\":6256:6405   */\n    tag_341:\n        /* \"#utility.yul\":6292:6299   */\n      0x00\n        /* \"#utility.yul\":6332:6398   */\n      0xffffffff00000000000000000000000000000000000000000000000000000000\n        /* \"#utility.yul\":6325:6330   */\n      dup3\n        /* \"#utility.yul\":6321:6399   */\n      and\n        /* \"#utility.yul\":6310:6399   */\n      swap1\n      pop\n        /* \"#utility.yul\":6256:6405   */\n      swap2\n      swap1\n      pop\n      jump\t// out\n        /* \"#utility.yul\":6411:6526   */\n    tag_342:\n        /* \"#utility.yul\":6496:6519   */\n      tag_461\n        /* \"#utility.yul\":6513:6518   */\n      dup2\n        /* \"#utility.yul\":6496:6519   */\n      tag_341\n      jump\t// in\n    tag_461:\n        /* \"#utility.yul\":6491:6494   */\n      dup3\n        /* \"#utility.yul\":6484:6520   */\n      mstore\n        /* \"#utility.yul\":6411:6526   */\n      pop\n      pop\n      jump\t// out\n        /* \"#utility.yul\":6532:6750   */\n    tag_47:\n        /* \"#utility.yul\":6623:6627   */\n      0x00\n        /* \"#utility.yul\":6661:6663   */\n      0x20\n        /* \"#utility.yul\":6650:6659   */\n      dup3\n        /* \"#utility.yul\":6646:6664   */\n      add\n        /* \"#utility.yul\":6638:6664   */\n      swap1\n      pop\n        /* \"#utility.yul\":6674:6743   */\n      tag_463\n        /* \"#utility.yul\":6740:6741   */\n      0x00\n        /* \"#utility.yul\":6729:6738   */\n      dup4\n        /* \"#utility.yul\":6725:6742   */\n      add\n        /* \"#utility.yul\":6716:6722   */\n      dup5\n        /* \"#utility.yul\":6674:6743   */\n      tag_342\n      jump\t// in\n    tag_463:\n        /* \"#utility.yul\":6532:6750   */\n      swap3\n      swap2\n      pop\n      pop\n      jump\t// out\n        /* \"#utility.yul\":6756:7085   */\n    tag_63:\n        /* \"#utility.yul\":6815:6821   */\n      0x00\n        /* \"#utility.yul\":6864:6866   */\n      0x20\n        /* \"#utility.yul\":6852:6861   */\n      dup3\n        /* \"#utility.yul\":6843:6850   */\n      dup5\n        /* \"#utility.yul\":6839:6862   */\n      sub\n        /* \"#utility.yul\":6835:6867   */\n      slt\n        /* \"#utility.yul\":6832:6951   */\n      iszero\n      tag_465\n      jumpi\n        /* \"#utility.yul\":6870:6949   */\n      tag_466\n      tag_321\n      jump\t// in\n    tag_466:\n        /* \"#utility.yul\":6832:6951   */\n    tag_465:\n        /* \"#utility.yul\":6990:6991   */\n      0x00\n        /* \"#utility.yul\":7015:7068   */\n      tag_467\n        /* \"#utility.yul\":7060:7067   */\n      dup5\n        /* \"#utility.yul\":7051:7057   */\n      dup3\n        /* \"#utility.yul\":7040:7049   */\n      dup6\n        /* \"#utility.yul\":7036:7058   */\n      add\n        /* \"#utility.yul\":7015:7068   */\n      tag_325\n      jump\t// in\n    tag_467:\n        /* \"#utility.yul\":7005:7068   */\n      swap2\n      pop\n        /* \"#utility.yul\":6961:7078   */\n      pop\n        /* \"#utility.yul\":6756:7085   */\n      swap3\n      swap2\n      pop\n      pop\n      jump\t// out\n        /* \"#utility.yul\":7091:7710   */\n    tag_89:\n        /* \"#utility.yul\":7168:7174   */\n      0x00\n        /* \"#utility.yul\":7176:7182   */\n      dup1\n        /* \"#utility.yul\":7184:7190   */\n      0x00\n        /* \"#utility.yul\":7233:7235   */\n      0x60\n        /* \"#utility.yul\":7221:7230   */\n      dup5\n        /* \"#utility.yul\":7212:7219   */\n      dup7\n        /* \"#utility.yul\":7208:7231   */\n      sub\n        /* \"#utility.yul\":7204:7236   */\n      slt\n        /* \"#utility.yul\":7201:7320   */\n      iszero\n      tag_469\n      jumpi\n        /* \"#utility.yul\":7239:7318   */\n      tag_470\n      tag_321\n      jump\t// in\n    tag_470:\n        /* \"#utility.yul\":7201:7320   */\n    tag_469:\n        /* \"#utility.yul\":7359:7360   */\n      0x00\n        /* \"#utility.yul\":7384:7437   */\n      tag_471\n        /* \"#utility.yul\":7429:7436   */\n      dup7\n        /* \"#utility.yul\":7420:7426   */\n      dup3\n        /* \"#utility.yul\":7409:7418   */\n      dup8\n        /* \"#utility.yul\":7405:7427   */\n      add\n        /* \"#utility.yul\":7384:7437   */\n      tag_329\n      jump\t// in\n    tag_471:\n        /* \"#utility.yul\":7374:7437   */\n      swap4\n      pop\n        /* \"#utility.yul\":7330:7447   */\n      pop\n        /* \"#utility.yul\":7486:7488   */\n      0x20\n        /* \"#utility.yul\":7512:7565   */\n      tag_472\n        /* \"#utility.yul\":7557:7564   */\n      dup7\n        /* \"#utility.yul\":7548:7554   */\n      dup3\n        /* \"#utility.yul\":7537:7546   */\n      dup8\n        /* \"#utility.yul\":7533:7555   */\n      add\n        /* \"#utility.yul\":7512:7565   */\n      tag_325\n      jump\t// in\n    tag_472:\n        /* \"#utility.yul\":7502:7565   */\n      swap3\n      pop\n        /* \"#utility.yul\":7457:7575   */\n      pop\n        /* \"#utility.yul\":7614:7616   */\n      0x40\n        /* \"#utility.yul\":7640:7693   */\n      tag_473\n        /* \"#utility.yul\":7685:7692   */\n      dup7\n        /* \"#utility.yul\":7676:7682   */\n      dup3\n        /* \"#utility.yul\":7665:7674   */\n      dup8\n        /* \"#utility.yul\":7661:7683   */\n      add\n        /* \"#utility.yul\":7640:7693   */\n      tag_329\n      jump\t// in\n    tag_473:\n        /* \"#utility.yul\":7630:7693   */\n      swap2\n      pop\n        /* \"#utility.yul\":7585:7703   */\n      pop\n        /* \"#utility.yul\":7091:7710   */\n      swap3\n      pop\n      swap3\n      pop\n      swap3\n      jump\t// out\n        /* \"#utility.yul\":7716:8045   */\n    tag_102:\n        /* \"#utility.yul\":7775:7781   */\n      0x00\n        /* \"#utility.yul\":7824:7826   */\n      0x20\n        /* \"#utility.yul\":7812:7821   */\n      dup3\n        /* \"#utility.yul\":7803:7810   */\n      dup5\n        /* \"#utility.yul\":7799:7822   */\n      sub\n        /* \"#utility.yul\":7795:7827   */\n      slt\n        /* \"#utility.yul\":7792:7911   */\n      iszero\n      tag_475\n      jumpi\n        /* \"#utility.yul\":7830:7909   */\n      tag_476\n      tag_321\n      jump\t// in\n    tag_476:\n        /* \"#utility.yul\":7792:7911   */\n    tag_475:\n        /* \"#utility.yul\":7950:7951   */\n      0x00\n        /* \"#utility.yul\":7975:8028   */\n      tag_477\n        /* \"#utility.yul\":8020:8027   */\n      dup5\n        /* \"#utility.yul\":8011:8017   */\n      dup3\n        /* \"#utility.yul\":8000:8009   */\n      dup6\n        /* \"#utility.yul\":7996:8018   */\n      add\n        /* \"#utility.yul\":7975:8028   */\n      tag_329\n      jump\t// in\n    tag_477:\n        /* \"#utility.yul\":7965:8028   */\n      swap2\n      pop\n        /* \"#utility.yul\":7921:8038   */\n      pop\n        /* \"#utility.yul\":7716:8045   */\n      swap3\n      swap2\n      pop\n      pop\n      jump\t// out\n        /* \"#utility.yul\":8051:8111   */\n    tag_343:\n        /* \"#utility.yul\":8079:8082   */\n      0x00\n        /* \"#utility.yul\":8100:8105   */\n      dup2\n        /* \"#utility.yul\":8093:8105   */\n      swap1\n      pop\n        /* \"#utility.yul\":8051:8111   */\n      swap2\n      swap1\n      pop\n      jump\t// out\n        /* \"#utility.yul\":8117:8259   */\n    tag_344:\n        /* \"#utility.yul\":8167:8176   */\n      0x00\n        /* \"#utility.yul\":8200:8253   */\n      tag_480\n        /* \"#utility.yul\":8218:8252   */\n      tag_481\n        /* \"#utility.yul\":8227:8251   */\n      tag_482\n        /* \"#utility.yul\":8245:8250   */\n      dup5\n        /* \"#utility.yul\":8227:8251   */\n      tag_326\n      jump\t// in\n    tag_482:\n        /* \"#utility.yul\":8218:8252   */\n      tag_343\n      jump\t// in\n    tag_481:\n        /* \"#utility.yul\":8200:8253   */\n      tag_326\n      jump\t// in\n    tag_480:\n        /* \"#utility.yul\":8187:8253   */\n      swap1\n      pop\n        /* \"#utility.yul\":8117:8259   */\n      swap2\n      swap1\n      pop\n      jump\t// out\n        /* \"#utility.yul\":8265:8391   */\n    tag_345:\n        /* \"#utility.yul\":8315:8324   */\n      0x00\n        /* \"#utility.yul\":8348:8385   */\n      tag_484\n        /* \"#utility.yul\":8379:8384   */\n      dup3\n        /* \"#utility.yul\":8348:8385   */\n      tag_344\n      jump\t// in\n    tag_484:\n        /* \"#utility.yul\":8335:8385   */\n      swap1\n      pop\n        /* \"#utility.yul\":8265:8391   */\n      swap2\n      swap1\n      pop\n      jump\t// out\n        /* \"#utility.yul\":8397:8538   */\n    tag_346:\n        /* \"#utility.yul\":8462:8471   */\n      0x00\n        /* \"#utility.yul\":8495:8532   */\n      tag_486\n        /* \"#utility.yul\":8526:8531   */\n      dup3\n        /* \"#utility.yul\":8495:8532   */\n      tag_345\n      jump\t// in\n    tag_486:\n        /* \"#utility.yul\":8482:8532   */\n      swap1\n      pop\n        /* \"#utility.yul\":8397:8538   */\n      swap2\n      swap1\n      pop\n      jump\t// out\n        /* \"#utility.yul\":8544:8705   */\n    tag_347:\n        /* \"#utility.yul\":8646:8698   */\n      tag_488\n        /* \"#utility.yul\":8692:8697   */\n      dup2\n        /* \"#utility.yul\":8646:8698   */\n      tag_346\n      jump\t// in\n    tag_488:\n        /* \"#utility.yul\":8641:8644   */\n      dup3\n        /* \"#utility.yul\":8634:8699   */\n      mstore\n        /* \"#utility.yul\":8544:8705   */\n      pop\n      pop\n      jump\t// out\n        /* \"#utility.yul\":8711:8829   */\n    tag_348:\n        /* \"#utility.yul\":8798:8822   */\n      tag_490\n        /* \"#utility.yul\":8816:8821   */\n      dup2\n        /* \"#utility.yul\":8798:8822   */\n      tag_327\n      jump\t// in\n    tag_490:\n        /* \"#utility.yul\":8793:8796   */\n      dup3\n        /* \"#utility.yul\":8786:8823   */\n      mstore\n        /* \"#utility.yul\":8711:8829   */\n      pop\n      pop\n      jump\t// out\n        /* \"#utility.yul\":8835:10197   */\n    tag_109:\n        /* \"#utility.yul\":9224:9228   */\n      0x00\n        /* \"#utility.yul\":9262:9265   */\n      0x0160\n        /* \"#utility.yul\":9251:9260   */\n      dup3\n        /* \"#utility.yul\":9247:9266   */\n      add\n        /* \"#utility.yul\":9239:9266   */\n      swap1\n      pop\n        /* \"#utility.yul\":9276:9362   */\n      tag_492\n        /* \"#utility.yul\":9359:9360   */\n      0x00\n        /* \"#utility.yul\":9348:9357   */\n      dup4\n        /* \"#utility.yul\":9344:9361   */\n      add\n        /* \"#utility.yul\":9335:9341   */\n      dup15\n        /* \"#utility.yul\":9276:9362   */\n      tag_347\n      jump\t// in\n    tag_492:\n        /* \"#utility.yul\":9372:9444   */\n      tag_493\n        /* \"#utility.yul\":9440:9442   */\n      0x20\n        /* \"#utility.yul\":9429:9438   */\n      dup4\n        /* \"#utility.yul\":9425:9443   */\n      add\n        /* \"#utility.yul\":9416:9422   */\n      dup14\n        /* \"#utility.yul\":9372:9444   */\n      tag_330\n      jump\t// in\n    tag_493:\n        /* \"#utility.yul\":9454:9526   */\n      tag_494\n        /* \"#utility.yul\":9522:9524   */\n      0x40\n        /* \"#utility.yul\":9511:9520   */\n      dup4\n        /* \"#utility.yul\":9507:9525   */\n      add\n        /* \"#utility.yul\":9498:9504   */\n      dup13\n        /* \"#utility.yul\":9454:9526   */\n      tag_348\n      jump\t// in\n    tag_494:\n        /* \"#utility.yul\":9536:9608   */\n      tag_495\n        /* \"#utility.yul\":9604:9606   */\n      0x60\n        /* \"#utility.yul\":9593:9602   */\n      dup4\n        /* \"#utility.yul\":9589:9607   */\n      add\n        /* \"#utility.yul\":9580:9586   */\n      dup12\n        /* \"#utility.yul\":9536:9608   */\n      tag_330\n      jump\t// in\n    tag_495:\n        /* \"#utility.yul\":9618:9691   */\n      tag_496\n        /* \"#utility.yul\":9686:9689   */\n      0x80\n        /* \"#utility.yul\":9675:9684   */\n      dup4\n        /* \"#utility.yul\":9671:9690   */\n      add\n        /* \"#utility.yul\":9662:9668   */\n      dup11\n        /* \"#utility.yul\":9618:9691   */\n      tag_330\n      jump\t// in\n    tag_496:\n        /* \"#utility.yul\":9701:9774   */\n      tag_497\n        /* \"#utility.yul\":9769:9772   */\n      0xa0\n        /* \"#utility.yul\":9758:9767   */\n      dup4\n        /* \"#utility.yul\":9754:9773   */\n      add\n        /* \"#utility.yul\":9745:9751   */\n      dup10\n        /* \"#utility.yul\":9701:9774   */\n      tag_330\n      jump\t// in\n    tag_497:\n        /* \"#utility.yul\":9784:9857   */\n      tag_498\n        /* \"#utility.yul\":9852:9855   */\n      0xc0\n        /* \"#utility.yul\":9841:9850   */\n      dup4\n        /* \"#utility.yul\":9837:9856   */\n      add\n        /* \"#utility.yul\":9828:9834   */\n      dup9\n        /* \"#utility.yul\":9784:9857   */\n      tag_330\n      jump\t// in\n    tag_498:\n        /* \"#utility.yul\":9867:9940   */\n      tag_499\n        /* \"#utility.yul\":9935:9938   */\n      0xe0\n        /* \"#utility.yul\":9924:9933   */\n      dup4\n        /* \"#utility.yul\":9920:9939   */\n      add\n        /* \"#utility.yul\":9911:9917   */\n      dup8\n        /* \"#utility.yul\":9867:9940   */\n      tag_330\n      jump\t// in\n    tag_499:\n        /* \"#utility.yul\":9950:10023   */\n      tag_500\n        /* \"#utility.yul\":10018:10021   */\n      0x0100\n        /* \"#utility.yul\":10007:10016   */\n      dup4\n        /* \"#utility.yul\":10003:10022   */\n      add\n        /* \"#utility.yul\":9994:10000   */\n      dup7\n        /* \"#utility.yul\":9950:10023   */\n      tag_330\n      jump\t// in\n    tag_500:\n        /* \"#utility.yul\":10033:10106   */\n      tag_501\n        /* \"#utility.yul\":10101:10104   */\n      0x0120\n        /* \"#utility.yul\":10090:10099   */\n      dup4\n        /* \"#utility.yul\":10086:10105   */\n      add\n        /* \"#utility.yul\":10077:10083   */\n      dup6\n        /* \"#utility.yul\":10033:10106   */\n      tag_348\n      jump\t// in\n    tag_501:\n        /* \"#utility.yul\":10116:10190   */\n      tag_502\n        /* \"#utility.yul\":10185:10188   */\n      0x0140\n        /* \"#utility.yul\":10174:10183   */\n      dup4\n        /* \"#utility.yul\":10170:10189   */\n      add\n        /* \"#utility.yul\":10160:10167   */\n      dup5\n        /* \"#utility.yul\":10116:10190   */\n      tag_330\n      jump\t// in\n    tag_502:\n        /* \"#utility.yul\":8835:10197   */\n      swap13\n      swap12\n      pop\n      pop\n      pop\n      pop\n      pop\n      pop\n      pop\n      pop\n      pop\n      pop\n      pop\n      pop\n      jump\t// out\n        /* \"#utility.yul\":10203:10425   */\n    tag_118:\n        /* \"#utility.yul\":10296:10300   */\n      0x00\n        /* \"#utility.yul\":10334:10336   */\n      0x20\n        /* \"#utility.yul\":10323:10332   */\n      dup3\n        /* \"#utility.yul\":10319:10337   */\n      add\n        /* \"#utility.yul\":10311:10337   */\n      swap1\n      pop\n        /* \"#utility.yul\":10347:10418   */\n      tag_504\n        /* \"#utility.yul\":10415:10416   */\n      0x00\n        /* \"#utility.yul\":10404:10413   */\n      dup4\n        /* \"#utility.yul\":10400:10417   */\n      add\n        /* \"#utility.yul\":10391:10397   */\n      dup5\n        /* \"#utility.yul\":10347:10418   */\n      tag_348\n      jump\t// in\n    tag_504:\n        /* \"#utility.yul\":10203:10425   */\n      swap3\n      swap2\n      pop\n      pop\n      jump\t// out\n        /* \"#utility.yul\":10431:10600   */\n    tag_349:\n        /* \"#utility.yul\":10515:10526   */\n      0x00\n        /* \"#utility.yul\":10549:10555   */\n      dup3\n        /* \"#utility.yul\":10544:10547   */\n      dup3\n        /* \"#utility.yul\":10537:10556   */\n      mstore\n        /* \"#utility.yul\":10589:10593   */\n      0x20\n        /* \"#utility.yul\":10584:10587   */\n      dup3\n        /* \"#utility.yul\":10580:10594   */\n      add\n        /* \"#utility.yul\":10565:10594   */\n      swap1\n      pop\n        /* \"#utility.yul\":10431:10600   */\n      swap3\n      swap2\n      pop\n      pop\n      jump\t// out\n        /* \"#utility.yul\":10606:10840   */\n    tag_350:\n        /* \"#utility.yul\":10746:10780   */\n      0x656e64207072696365206d757374206e6f742062652067726561746572207468\n        /* \"#utility.yul\":10742:10743   */\n      0x00\n        /* \"#utility.yul\":10734:10740   */\n      dup3\n        /* \"#utility.yul\":10730:10744   */\n      add\n        /* \"#utility.yul\":10723:10781   */\n      mstore\n        /* \"#utility.yul\":10815:10832   */\n      0x616e2073746172742070726963652e0000000000000000000000000000000000\n        /* \"#utility.yul\":10810:10812   */\n      0x20\n        /* \"#utility.yul\":10802:10808   */\n      dup3\n        /* \"#utility.yul\":10798:10813   */\n      add\n        /* \"#utility.yul\":10791:10833   */\n      mstore\n        /* \"#utility.yul\":10606:10840   */\n      pop\n      jump\t// out\n        /* \"#utility.yul\":10846:11212   */\n    tag_351:\n        /* \"#utility.yul\":10988:10991   */\n      0x00\n        /* \"#utility.yul\":11009:11076   */\n      tag_508\n        /* \"#utility.yul\":11073:11075   */\n      0x2f\n        /* \"#utility.yul\":11068:11071   */\n      dup4\n        /* \"#utility.yul\":11009:11076   */\n      tag_349\n      jump\t// in\n    tag_508:\n        /* \"#utility.yul\":11002:11076   */\n      swap2\n      pop\n        /* \"#utility.yul\":11085:11178   */\n      tag_509\n        /* \"#utility.yul\":11174:11177   */\n      dup3\n        /* \"#utility.yul\":11085:11178   */\n      tag_350\n      jump\t// in\n    tag_509:\n        /* \"#utility.yul\":11203:11205   */\n      0x40\n        /* \"#utility.yul\":11198:11201   */\n      dup3\n        /* \"#utility.yul\":11194:11206   */\n      add\n        /* \"#utility.yul\":11187:11206   */\n      swap1\n      pop\n        /* \"#utility.yul\":10846:11212   */\n      swap2\n      swap1\n      pop\n      jump\t// out\n        /* \"#utility.yul\":11218:11637   */\n    tag_122:\n        /* \"#utility.yul\":11384:11388   */\n      0x00\n        /* \"#utility.yul\":11422:11424   */\n      0x20\n        /* \"#utility.yul\":11411:11420   */\n      dup3\n        /* \"#utility.yul\":11407:11425   */\n      add\n        /* \"#utility.yul\":11399:11425   */\n      swap1\n      pop\n        /* \"#utility.yul\":11471:11480   */\n      dup2\n        /* \"#utility.yul\":11465:11469   */\n      dup2\n        /* \"#utility.yul\":11461:11481   */\n      sub\n        /* \"#utility.yul\":11457:11458   */\n      0x00\n        /* \"#utility.yul\":11446:11455   */\n      dup4\n        /* \"#utility.yul\":11442:11459   */\n      add\n        /* \"#utility.yul\":11435:11482   */\n      mstore\n        /* \"#utility.yul\":11499:11630   */\n      tag_511\n        /* \"#utility.yul\":11625:11629   */\n      dup2\n        /* \"#utility.yul\":11499:11630   */\n      tag_351\n      jump\t// in\n    tag_511:\n        /* \"#utility.yul\":11491:11630   */\n      swap1\n      pop\n        /* \"#utility.yul\":11218:11637   */\n      swap2\n      swap1\n      pop\n      jump\t// out\n        /* \"#utility.yul\":11643:11880   */\n    tag_352:\n        /* \"#utility.yul\":11783:11817   */\n      0x63616e206e6f74206372656174652061756374696f6e2c20746865206e667420\n        /* \"#utility.yul\":11779:11780   */\n      0x00\n        /* \"#utility.yul\":11771:11777   */\n      dup3\n        /* \"#utility.yul\":11767:11781   */\n      add\n        /* \"#utility.yul\":11760:11818   */\n      mstore\n        /* \"#utility.yul\":11852:11872   */\n      0x6e6f742066726f6d20796f757273656c662e0000000000000000000000000000\n        /* \"#utility.yul\":11847:11849   */\n      0x20\n        /* \"#utility.yul\":11839:11845   */\n      dup3\n        /* \"#utility.yul\":11835:11850   */\n      add\n        /* \"#utility.yul\":11828:11873   */\n      mstore\n        /* \"#utility.yul\":11643:11880   */\n      pop\n      jump\t// out\n        /* \"#utility.yul\":11886:12252   */\n    tag_353:\n        /* \"#utility.yul\":12028:12031   */\n      0x00\n        /* \"#utility.yul\":12049:12116   */\n      tag_514\n        /* \"#utility.yul\":12113:12115   */\n      0x32\n        /* \"#utility.yul\":12108:12111   */\n      dup4\n        /* \"#utility.yul\":12049:12116   */\n      tag_349\n      jump\t// in\n    tag_514:\n        /* \"#utility.yul\":12042:12116   */\n      swap2\n      pop\n        /* \"#utility.yul\":12125:12218   */\n      tag_515\n        /* \"#utility.yul\":12214:12217   */\n      dup3\n        /* \"#utility.yul\":12125:12218   */\n      tag_352\n      jump\t// in\n    tag_515:\n        /* \"#utility.yul\":12243:12245   */\n      0x40\n        /* \"#utility.yul\":12238:12241   */\n      dup3\n        /* \"#utility.yul\":12234:12246   */\n      add\n        /* \"#utility.yul\":12227:12246   */\n      swap1\n      pop\n        /* \"#utility.yul\":11886:12252   */\n      swap2\n      swap1\n      pop\n      jump\t// out\n        /* \"#utility.yul\":12258:12677   */\n    tag_125:\n        /* \"#utility.yul\":12424:12428   */\n      0x00\n        /* \"#utility.yul\":12462:12464   */\n      0x20\n        /* \"#utility.yul\":12451:12460   */\n      dup3\n        /* \"#utility.yul\":12447:12465   */\n      add\n        /* \"#utility.yul\":12439:12465   */\n      swap1\n      pop\n        /* \"#utility.yul\":12511:12520   */\n      dup2\n        /* \"#utility.yul\":12505:12509   */\n      dup2\n        /* \"#utility.yul\":12501:12521   */\n      sub\n        /* \"#utility.yul\":12497:12498   */\n      0x00\n        /* \"#utility.yul\":12486:12495   */\n      dup4\n        /* \"#utility.yul\":12482:12499   */\n      add\n        /* \"#utility.yul\":12475:12522   */\n      mstore\n        /* \"#utility.yul\":12539:12670   */\n      tag_517\n        /* \"#utility.yul\":12665:12669   */\n      dup2\n        /* \"#utility.yul\":12539:12670   */\n      tag_353\n      jump\t// in\n    tag_517:\n        /* \"#utility.yul\":12531:12670   */\n      swap1\n      pop\n        /* \"#utility.yul\":12258:12677   */\n      swap2\n      swap1\n      pop\n      jump\t// out\n        /* \"#utility.yul\":12683:12863   */\n    tag_354:\n        /* \"#utility.yul\":12731:12808   */\n      0x4e487b7100000000000000000000000000000000000000000000000000000000\n        /* \"#utility.yul\":12728:12729   */\n      0x00\n        /* \"#utility.yul\":12721:12809   */\n      mstore\n        /* \"#utility.yul\":12828:12832   */\n      0x12\n        /* \"#utility.yul\":12825:12826   */\n      0x04\n        /* \"#utility.yul\":12818:12833   */\n      mstore\n        /* \"#utility.yul\":12852:12856   */\n      0x24\n        /* \"#utility.yul\":12849:12850   */\n      0x00\n        /* \"#utility.yul\":12842:12857   */\n      revert\n        /* \"#utility.yul\":12869:13049   */\n    tag_355:\n        /* \"#utility.yul\":12917:12994   */\n      0x4e487b7100000000000000000000000000000000000000000000000000000000\n        /* \"#utility.yul\":12914:12915   */\n      0x00\n        /* \"#utility.yul\":12907:12995   */\n      mstore\n        /* \"#utility.yul\":13014:13018   */\n      0x11\n        /* \"#utility.yul\":13011:13012   */\n      0x04\n        /* \"#utility.yul\":13004:13019   */\n      mstore\n        /* \"#utility.yul\":13038:13042   */\n      0x24\n        /* \"#utility.yul\":13035:13036   */\n      0x00\n        /* \"#utility.yul\":13028:13043   */\n      revert\n        /* \"#utility.yul\":13055:13240   */\n    tag_129:\n        /* \"#utility.yul\":13095:13096   */\n      0x00\n        /* \"#utility.yul\":13112:13132   */\n      tag_521\n        /* \"#utility.yul\":13130:13131   */\n      dup3\n        /* \"#utility.yul\":13112:13132   */\n      tag_323\n      jump\t// in\n    tag_521:\n        /* \"#utility.yul\":13107:13132   */\n      swap2\n      pop\n        /* \"#utility.yul\":13146:13166   */\n      tag_522\n        /* \"#utility.yul\":13164:13165   */\n      dup4\n        /* \"#utility.yul\":13146:13166   */\n      tag_323\n      jump\t// in\n    tag_522:\n        /* \"#utility.yul\":13141:13166   */\n      swap3\n      pop\n        /* \"#utility.yul\":13185:13186   */\n      dup3\n        /* \"#utility.yul\":13175:13210   */\n      tag_523\n      jumpi\n        /* \"#utility.yul\":13190:13208   */\n      tag_524\n      tag_354\n      jump\t// in\n    tag_524:\n        /* \"#utility.yul\":13175:13210   */\n    tag_523:\n        /* \"#utility.yul\":13232:13233   */\n      dup3\n        /* \"#utility.yul\":13229:13230   */\n      dup3\n        /* \"#utility.yul\":13225:13234   */\n      div\n        /* \"#utility.yul\":13220:13234   */\n      swap1\n      pop\n        /* \"#utility.yul\":13055:13240   */\n      swap3\n      swap2\n      pop\n      pop\n      jump\t// out\n        /* \"#utility.yul\":13246:13440   */\n    tag_131:\n        /* \"#utility.yul\":13286:13290   */\n      0x00\n        /* \"#utility.yul\":13306:13326   */\n      tag_526\n        /* \"#utility.yul\":13324:13325   */\n      dup3\n        /* \"#utility.yul\":13306:13326   */\n      tag_323\n      jump\t// in\n    tag_526:\n        /* \"#utility.yul\":13301:13326   */\n      swap2\n      pop\n        /* \"#utility.yul\":13340:13360   */\n      tag_527\n        /* \"#utility.yul\":13358:13359   */\n      dup4\n        /* \"#utility.yul\":13340:13360   */\n      tag_323\n      jump\t// in\n    tag_527:\n        /* \"#utility.yul\":13335:13360   */\n      swap3\n      pop\n        /* \"#utility.yul\":13384:13385   */\n      dup3\n        /* \"#utility.yul\":13381:13382   */\n      dup3\n        /* \"#utility.yul\":13377:13386   */\n      sub\n        /* \"#utility.yul\":13369:13386   */\n      swap1\n      pop\n        /* \"#utility.yul\":13408:13409   */\n      dup2\n        /* \"#utility.yul\":13402:13406   */\n      dup2\n        /* \"#utility.yul\":13399:13410   */\n      gt\n        /* \"#utility.yul\":13396:13433   */\n      iszero\n      tag_528\n      jumpi\n        /* \"#utility.yul\":13413:13431   */\n      tag_529\n      tag_355\n      jump\t// in\n    tag_529:\n        /* \"#utility.yul\":13396:13433   */\n    tag_528:\n        /* \"#utility.yul\":13246:13440   */\n      swap3\n      swap2\n      pop\n      pop\n      jump\t// out\n        /* \"#utility.yul\":13446:13679   */\n    tag_140:\n        /* \"#utility.yul\":13485:13488   */\n      0x00\n        /* \"#utility.yul\":13508:13532   */\n      tag_531\n        /* \"#utility.yul\":13526:13531   */\n      dup3\n        /* \"#utility.yul\":13508:13532   */\n      tag_323\n      jump\t// in\n    tag_531:\n        /* \"#utility.yul\":13499:13532   */\n      swap2\n      pop\n        /* \"#utility.yul\":13554:13620   */\n      0xffffffffffffffffffffffffffffffffffffffffffffffffffffffffffffffff\n        /* \"#utility.yul\":13547:13552   */\n      dup3\n        /* \"#utility.yul\":13544:13621   */\n      sub\n        /* \"#utility.yul\":13541:13644   */\n      tag_532\n      jumpi\n        /* \"#utility.yul\":13624:13642   */\n      tag_533\n      tag_355\n      jump\t// in\n    tag_533:\n        /* \"#utility.yul\":13541:13644   */\n    tag_532:\n        /* \"#utility.yul\":13671:13672   */\n      0x01\n        /* \"#utility.yul\":13664:13669   */\n      dup3\n        /* \"#utility.yul\":13660:13673   */\n      add\n        /* \"#utility.yul\":13653:13673   */\n      swap1\n      pop\n        /* \"#utility.yul\":13446:13679   */\n      swap2\n      swap1\n      pop\n      jump\t// out\n        /* \"#utility.yul\":13685:13783   */\n    tag_356:\n        /* \"#utility.yul\":13736:13742   */\n      0x00\n        /* \"#utility.yul\":13770:13775   */\n      dup2\n        /* \"#utility.yul\":13764:13776   */\n      mload\n        /* \"#utility.yul\":13754:13776   */\n      swap1\n      pop\n        /* \"#utility.yul\":13685:13783   */\n      swap2\n      swap1\n      pop\n      jump\t// out\n        /* \"#utility.yul\":13789:13957   */\n    tag_357:\n        /* \"#utility.yul\":13872:13883   */\n      0x00\n        /* \"#utility.yul\":13906:13912   */\n      dup3\n        /* \"#utility.yul\":13901:13904   */\n      dup3\n        /* \"#utility.yul\":13894:13913   */\n      mstore\n        /* \"#utility.yul\":13946:13950   */\n      0x20\n        /* \"#utility.yul\":13941:13944   */\n      dup3\n        /* \"#utility.yul\":13937:13951   */\n      add\n        /* \"#utility.yul\":13922:13951   */\n      swap1\n      pop\n        /* \"#utility.yul\":13789:13957   */\n      swap3\n      swap2\n      pop\n      pop\n      jump\t// out\n        /* \"#utility.yul\":13963:14102   */\n    tag_358:\n        /* \"#utility.yul\":14052:14058   */\n      dup3\n        /* \"#utility.yul\":14047:14050   */\n      dup2\n        /* \"#utility.yul\":14042:14045   */\n      dup4\n        /* \"#utility.yul\":14036:14059   */\n      mcopy\n        /* \"#utility.yul\":14093:14094   */\n      0x00\n        /* \"#utility.yul\":14084:14090   */\n      dup4\n        /* \"#utility.yul\":14079:14082   */\n      dup4\n        /* \"#utility.yul\":14075:14091   */\n      add\n        /* \"#utility.yul\":14068:14095   */\n      mstore\n        /* \"#utility.yul\":13963:14102   */\n      pop\n      pop\n      pop\n      jump\t// out\n        /* \"#utility.yul\":14108:14481   */\n    tag_359:\n        /* \"#utility.yul\":14194:14197   */\n      0x00\n        /* \"#utility.yul\":14222:14260   */\n      tag_538\n        /* \"#utility.yul\":14254:14259   */\n      dup3\n        /* \"#utility.yul\":14222:14260   */\n      tag_356\n      jump\t// in\n    tag_538:\n        /* \"#utility.yul\":14276:14346   */\n      tag_539\n        /* \"#utility.yul\":14339:14345   */\n      dup2\n        /* \"#utility.yul\":14334:14337   */\n      dup6\n        /* \"#utility.yul\":14276:14346   */\n      tag_357\n      jump\t// in\n    tag_539:\n        /* \"#utility.yul\":14269:14346   */\n      swap4\n      pop\n        /* \"#utility.yul\":14355:14420   */\n      tag_540\n        /* \"#utility.yul\":14413:14419   */\n      dup2\n        /* \"#utility.yul\":14408:14411   */\n      dup6\n        /* \"#utility.yul\":14401:14405   */\n      0x20\n        /* \"#utility.yul\":14394:14399   */\n      dup7\n        /* \"#utility.yul\":14390:14406   */\n      add\n        /* \"#utility.yul\":14355:14420   */\n      tag_358\n      jump\t// in\n    tag_540:\n        /* \"#utility.yul\":14445:14474   */\n      tag_541\n        /* \"#utility.yul\":14467:14473   */\n      dup2\n        /* \"#utility.yul\":14445:14474   */\n      tag_333\n      jump\t// in\n    tag_541:\n        /* \"#utility.yul\":14440:14443   */\n      dup5\n        /* \"#utility.yul\":14436:14475   */\n      add\n        /* \"#utility.yul\":14429:14475   */\n      swap2\n      pop\n        /* \"#utility.yul\":14198:14481   */\n      pop\n        /* \"#utility.yul\":14108:14481   */\n      swap3\n      swap2\n      pop\n      pop\n      jump\t// out\n        /* \"#utility.yul\":14487:14906   */\n    tag_150:\n        /* \"#utility.yul\":14626:14630   */\n      0x00\n        /* \"#utility.yul\":14664:14666   */\n      0x40\n        /* \"#utility.yul\":14653:14662   */\n      dup3\n        /* \"#utility.yul\":14649:14667   */\n      add\n        /* \"#utility.yul\":14641:14667   */\n      swap1\n      pop\n        /* \"#utility.yul\":14677:14748   */\n      tag_543\n        /* \"#utility.yul\":14745:14746   */\n      0x00\n        /* \"#utility.yul\":14734:14743   */\n      dup4\n        /* \"#utility.yul\":14730:14747   */\n      add\n        /* \"#utility.yul\":14721:14727   */\n      dup6\n        /* \"#utility.yul\":14677:14748   */\n      tag_348\n      jump\t// in\n    tag_543:\n        /* \"#utility.yul\":14795:14804   */\n      dup2\n        /* \"#utility.yul\":14789:14793   */\n      dup2\n        /* \"#utility.yul\":14785:14805   */\n      sub\n        /* \"#utility.yul\":14780:14782   */\n      0x20\n        /* \"#utility.yul\":14769:14778   */\n      dup4\n        /* \"#utility.yul\":14765:14783   */\n      add\n        /* \"#utility.yul\":14758:14806   */\n      mstore\n        /* \"#utility.yul\":14823:14899   */\n      tag_544\n        /* \"#utility.yul\":14894:14898   */\n      dup2\n        /* \"#utility.yul\":14885:14891   */\n      dup5\n        /* \"#utility.yul\":14823:14899   */\n      tag_359\n      jump\t// in\n    tag_544:\n        /* \"#utility.yul\":14815:14899   */\n      swap1\n      pop\n        /* \"#utility.yul\":14487:14906   */\n      swap4\n      swap3\n      pop\n      pop\n      pop\n      jump\t// out\n        /* \"#utility.yul\":14912:15076   */\n    tag_360:\n        /* \"#utility.yul\":15052:15068   */\n      0x6e6f7420617574686f72697a6564000000000000000000000000000000000000\n        /* \"#utility.yul\":15048:15049   */\n      0x00\n        /* \"#utility.yul\":15040:15046   */\n      dup3\n        /* \"#utility.yul\":15036:15050   */\n      add\n        /* \"#utility.yul\":15029:15069   */\n      mstore\n        /* \"#utility.yul\":14912:15076   */\n      pop\n      jump\t// out\n        /* \"#utility.yul\":15082:15448   */\n    tag_361:\n        /* \"#utility.yul\":15224:15227   */\n      0x00\n        /* \"#utility.yul\":15245:15312   */\n      tag_547\n        /* \"#utility.yul\":15309:15311   */\n      0x0e\n        /* \"#utility.yul\":15304:15307   */\n      dup4\n        /* \"#utility.yul\":15245:15312   */\n      tag_349\n      jump\t// in\n    tag_547:\n        /* \"#utility.yul\":15238:15312   */\n      swap2\n      pop\n        /* \"#utility.yul\":15321:15414   */\n      tag_548\n        /* \"#utility.yul\":15410:15413   */\n      dup3\n        /* \"#utility.yul\":15321:15414   */\n      tag_360\n      jump\t// in\n    tag_548:\n        /* \"#utility.yul\":15439:15441   */\n      0x20\n        /* \"#utility.yul\":15434:15437   */\n      dup3\n        /* \"#utility.yul\":15430:15442   */\n      add\n        /* \"#utility.yul\":15423:15442   */\n      swap1\n      pop\n        /* \"#utility.yul\":15082:15448   */\n      swap2\n      swap1\n      pop\n      jump\t// out\n        /* \"#utility.yul\":15454:15873   */\n    tag_154:\n        /* \"#utility.yul\":15620:15624   */\n      0x00\n        /* \"#utility.yul\":15658:15660   */\n      0x20\n        /* \"#utility.yul\":15647:15656   */\n      dup3\n        /* \"#utility.yul\":15643:15661   */\n      add\n        /* \"#utility.yul\":15635:15661   */\n      swap1\n      pop\n        /* \"#utility.yul\":15707:15716   */\n      dup2\n        /* \"#utility.yul\":15701:15705   */\n      dup2\n        /* \"#utility.yul\":15697:15717   */\n      sub\n        /* \"#utility.yul\":15693:15694   */\n      0x00\n        /* \"#utility.yul\":15682:15691   */\n      dup4\n        /* \"#utility.yul\":15678:15695   */\n      add\n        /* \"#utility.yul\":15671:15718   */\n      mstore\n        /* \"#utility.yul\":15735:15866   */\n      tag_550\n        /* \"#utility.yul\":15861:15865   */\n      dup2\n        /* \"#utility.yul\":15735:15866   */\n      tag_361\n      jump\t// in\n    tag_550:\n        /* \"#utility.yul\":15727:15866   */\n      swap1\n      pop\n        /* \"#utility.yul\":15454:15873   */\n      swap2\n      swap1\n      pop\n      jump\t// out\n        /* \"#utility.yul\":15879:16048   */\n    tag_362:\n        /* \"#utility.yul\":16019:16040   */\n      0x796f752068617665206e6f2062616c616e636500000000000000000000000000\n        /* \"#utility.yul\":16015:16016   */\n      0x00\n        /* \"#utility.yul\":16007:16013   */\n      dup3\n        /* \"#utility.yul\":16003:16017   */\n      add\n        /* \"#utility.yul\":15996:16041   */\n      mstore\n        /* \"#utility.yul\":15879:16048   */\n      pop\n      jump\t// out\n        /* \"#utility.yul\":16054:16420   */\n    tag_363:\n        /* \"#utility.yul\":16196:16199   */\n      0x00\n        /* \"#utility.yul\":16217:16284   */\n      tag_553\n        /* \"#utility.yul\":16281:16283   */\n      0x13\n        /* \"#utility.yul\":16276:16279   */\n      dup4\n        /* \"#utility.yul\":16217:16284   */\n      tag_349\n      jump\t// in\n    tag_553:\n        /* \"#utility.yul\":16210:16284   */\n      swap2\n      pop\n        /* \"#utility.yul\":16293:16386   */\n      tag_554\n        /* \"#utility.yul\":16382:16385   */\n      dup3\n        /* \"#utility.yul\":16293:16386   */\n      tag_362\n      jump\t// in\n    tag_554:\n        /* \"#utility.yul\":16411:16413   */\n      0x20\n        /* \"#utility.yul\":16406:16409   */\n      dup3\n        /* \"#utility.yul\":16402:16414   */\n      add\n        /* \"#utility.yul\":16395:16414   */\n      swap1\n      pop\n        /* \"#utility.yul\":16054:16420   */\n      swap2\n      swap1\n      pop\n      jump\t// out\n        /* \"#utility.yul\":16426:16845   */\n    tag_159:\n        /* \"#utility.yul\":16592:16596   */\n      0x00\n        /* \"#utility.yul\":16630:16632   */\n      0x20\n        /* \"#utility.yul\":16619:16628   */\n      dup3\n        /* \"#utility.yul\":16615:16633   */\n      add\n        /* \"#utility.yul\":16607:16633   */\n      swap1\n      pop\n        /* \"#utility.yul\":16679:16688   */\n      dup2\n        /* \"#utility.yul\":16673:16677   */\n      dup2\n        /* \"#utility.yul\":16669:16689   */\n      sub\n        /* \"#utility.yul\":16665:16666   */\n      0x00\n        /* \"#utility.yul\":16654:16663   */\n      dup4\n        /* \"#utility.yul\":16650:16667   */\n      add\n        /* \"#utility.yul\":16643:16690   */\n      mstore\n        /* \"#utility.yul\":16707:16838   */\n      tag_556\n        /* \"#utility.yul\":16833:16837   */\n      dup2\n        /* \"#utility.yul\":16707:16838   */\n      tag_363\n      jump\t// in\n    tag_556:\n        /* \"#utility.yul\":16699:16838   */\n      swap1\n      pop\n        /* \"#utility.yul\":16426:16845   */\n      swap2\n      swap1\n      pop\n      jump\t// out\n        /* \"#utility.yul\":16851:16998   */\n    tag_364:\n        /* \"#utility.yul\":16952:16963   */\n      0x00\n        /* \"#utility.yul\":16989:16992   */\n      dup2\n        /* \"#utility.yul\":16974:16992   */\n      swap1\n      pop\n        /* \"#utility.yul\":16851:16998   */\n      swap3\n      swap2\n      pop\n      pop\n      jump\t// out\n        /* \"#utility.yul\":17004:17118   */\n    tag_365:\n      pop\n      jump\t// out\n        /* \"#utility.yul\":17124:17522   */\n    tag_366:\n        /* \"#utility.yul\":17283:17286   */\n      0x00\n        /* \"#utility.yul\":17304:17387   */\n      tag_560\n        /* \"#utility.yul\":17385:17386   */\n      0x00\n        /* \"#utility.yul\":17380:17383   */\n      dup4\n        /* \"#utility.yul\":17304:17387   */\n      tag_364\n      jump\t// in\n    tag_560:\n        /* \"#utility.yul\":17297:17387   */\n      swap2\n      pop\n        /* \"#utility.yul\":17396:17489   */\n      tag_561\n        /* \"#utility.yul\":17485:17488   */\n      dup3\n        /* \"#utility.yul\":17396:17489   */\n      tag_365\n      jump\t// in\n    tag_561:\n        /* \"#utility.yul\":17514:17515   */\n      0x00\n        /* \"#utility.yul\":17509:17512   */\n      dup3\n        /* \"#utility.yul\":17505:17516   */\n      add\n        /* \"#utility.yul\":17498:17516   */\n      swap1\n      pop\n        /* \"#utility.yul\":17124:17522   */\n      swap2\n      swap1\n      pop\n      jump\t// out\n        /* \"#utility.yul\":17528:17907   */\n    tag_161:\n        /* \"#utility.yul\":17712:17715   */\n      0x00\n        /* \"#utility.yul\":17734:17881   */\n      tag_563\n        /* \"#utility.yul\":17877:17880   */\n      dup3\n        /* \"#utility.yul\":17734:17881   */\n      tag_366\n      jump\t// in\n    tag_563:\n        /* \"#utility.yul\":17727:17881   */\n      swap2\n      pop\n        /* \"#utility.yul\":17898:17901   */\n      dup2\n        /* \"#utility.yul\":17891:17901   */\n      swap1\n      pop\n        /* \"#utility.yul\":17528:17907   */\n      swap2\n      swap1\n      pop\n      jump\t// out\n        /* \"#utility.yul\":17913:18245   */\n    tag_167:\n        /* \"#utility.yul\":18034:18038   */\n      0x00\n        /* \"#utility.yul\":18072:18074   */\n      0x40\n        /* \"#utility.yul\":18061:18070   */\n      dup3\n        /* \"#utility.yul\":18057:18075   */\n      add\n        /* \"#utility.yul\":18049:18075   */\n      swap1\n      pop\n        /* \"#utility.yul\":18085:18156   */\n      tag_565\n        /* \"#utility.yul\":18153:18154   */\n      0x00\n        /* \"#utility.yul\":18142:18151   */\n      dup4\n        /* \"#utility.yul\":18138:18155   */\n      add\n        /* \"#utility.yul\":18129:18135   */\n      dup6\n        /* \"#utility.yul\":18085:18156   */\n      tag_348\n      jump\t// in\n    tag_565:\n        /* \"#utility.yul\":18166:18238   */\n      tag_566\n        /* \"#utility.yul\":18234:18236   */\n      0x20\n        /* \"#utility.yul\":18223:18232   */\n      dup4\n        /* \"#utility.yul\":18219:18237   */\n      add\n        /* \"#utility.yul\":18210:18216   */\n      dup5\n        /* \"#utility.yul\":18166:18238   */\n      tag_330\n      jump\t// in\n    tag_566:\n        /* \"#utility.yul\":17913:18245   */\n      swap4\n      swap3\n      pop\n      pop\n      pop\n      jump\t// out\n        /* \"#utility.yul\":18251:18336   */\n    tag_367:\n        /* \"#utility.yul\":18296:18303   */\n      0x00\n        /* \"#utility.yul\":18325:18330   */\n      dup2\n        /* \"#utility.yul\":18314:18330   */\n      swap1\n      pop\n        /* \"#utility.yul\":18251:18336   */\n      swap2\n      swap1\n      pop\n      jump\t// out\n        /* \"#utility.yul\":18342:18500   */\n    tag_368:\n        /* \"#utility.yul\":18400:18409   */\n      0x00\n        /* \"#utility.yul\":18433:18494   */\n      tag_569\n        /* \"#utility.yul\":18451:18493   */\n      tag_570\n        /* \"#utility.yul\":18460:18492   */\n      tag_571\n        /* \"#utility.yul\":18486:18491   */\n      dup5\n        /* \"#utility.yul\":18460:18492   */\n      tag_367\n      jump\t// in\n    tag_571:\n        /* \"#utility.yul\":18451:18493   */\n      tag_343\n      jump\t// in\n    tag_570:\n        /* \"#utility.yul\":18433:18494   */\n      tag_323\n      jump\t// in\n    tag_569:\n        /* \"#utility.yul\":18420:18494   */\n      swap1\n      pop\n        /* \"#utility.yul\":18342:18500   */\n      swap2\n      swap1\n      pop\n      jump\t// out\n        /* \"#utility.yul\":18506:18653   */\n    tag_369:\n        /* \"#utility.yul\":18601:18646   */\n      tag_573\n        /* \"#utility.yul\":18640:18645   */\n      dup2\n        /* \"#utility.yul\":18601:18646   */\n      tag_368\n      jump\t// in\n    tag_573:\n        /* \"#utility.yul\":18596:18599   */\n      dup3\n        /* \"#utility.yul\":18589:18647   */\n      mstore\n        /* \"#utility.yul\":18506:18653   */\n      pop\n      pop\n      jump\t// out\n        /* \"#utility.yul\":18659:18897   */\n    tag_173:\n        /* \"#utility.yul\":18760:18764   */\n      0x00\n        /* \"#utility.yul\":18798:18800   */\n      0x20\n        /* \"#utility.yul\":18787:18796   */\n      dup3\n        /* \"#utility.yul\":18783:18801   */\n      add\n        /* \"#utility.yul\":18775:18801   */\n      swap1\n      pop\n        /* \"#utility.yul\":18811:18890   */\n      tag_575\n        /* \"#utility.yul\":18887:18888   */\n      0x00\n        /* \"#utility.yul\":18876:18885   */\n      dup4\n        /* \"#utility.yul\":18872:18889   */\n      add\n        /* \"#utility.yul\":18863:18869   */\n      dup5\n        /* \"#utility.yul\":18811:18890   */\n      tag_369\n      jump\t// in\n    tag_575:\n        /* \"#utility.yul\":18659:18897   */\n      swap3\n      swap2\n      pop\n      pop\n      jump\t// out\n        /* \"#utility.yul\":18903:19070   */\n    tag_370:\n        /* \"#utility.yul\":19043:19062   */\n      0x666565207261746520746f6f2068696768000000000000000000000000000000\n        /* \"#utility.yul\":19039:19040   */\n      0x00\n        /* \"#utility.yul\":19031:19037   */\n      dup3\n        /* \"#utility.yul\":19027:19041   */\n      add\n        /* \"#utility.yul\":19020:19063   */\n      mstore\n        /* \"#utility.yul\":18903:19070   */\n      pop\n      jump\t// out\n        /* \"#utility.yul\":19076:19442   */\n    tag_371:\n        /* \"#utility.yul\":19218:19221   */\n      0x00\n        /* \"#utility.yul\":19239:19306   */\n      tag_578\n        /* \"#utility.yul\":19303:19305   */\n      0x11\n        /* \"#utility.yul\":19298:19301   */\n      dup4\n        /* \"#utility.yul\":19239:19306   */\n      tag_349\n      jump\t// in\n    tag_578:\n        /* \"#utility.yul\":19232:19306   */\n      swap2\n      pop\n        /* \"#utility.yul\":19315:19408   */\n      tag_579\n        /* \"#utility.yul\":19404:19407   */\n      dup3\n        /* \"#utility.yul\":19315:19408   */\n      tag_370\n      jump\t// in\n    tag_579:\n        /* \"#utility.yul\":19433:19435   */\n      0x20\n        /* \"#utility.yul\":19428:19431   */\n      dup3\n        /* \"#utility.yul\":19424:19436   */\n      add\n        /* \"#utility.yul\":19417:19436   */\n      swap1\n      pop\n        /* \"#utility.yul\":19076:19442   */\n      swap2\n      swap1\n      pop\n      jump\t// out\n        /* \"#utility.yul\":19448:19867   */\n    tag_180:\n        /* \"#utility.yul\":19614:19618   */\n      0x00\n        /* \"#utility.yul\":19652:19654   */\n      0x20\n        /* \"#utility.yul\":19641:19650   */\n      dup3\n        /* \"#utility.yul\":19637:19655   */\n      add\n        /* \"#utility.yul\":19629:19655   */\n      swap1\n      pop\n        /* \"#utility.yul\":19701:19710   */\n      dup2\n        /* \"#utility.yul\":19695:19699   */\n      dup2\n        /* \"#utility.yul\":19691:19711   */\n      sub\n        /* \"#utility.yul\":19687:19688   */\n      0x00\n        /* \"#utility.yul\":19676:19685   */\n      dup4\n        /* \"#utility.yul\":19672:19689   */\n      add\n        /* \"#utility.yul\":19665:19712   */\n      mstore\n        /* \"#utility.yul\":19729:19860   */\n      tag_581\n        /* \"#utility.yul\":19855:19859   */\n      dup2\n        /* \"#utility.yul\":19729:19860   */\n      tag_371\n      jump\t// in\n    tag_581:\n        /* \"#utility.yul\":19721:19860   */\n      swap1\n      pop\n        /* \"#utility.yul\":19448:19867   */\n      swap2\n      swap1\n      pop\n      jump\t// out\n        /* \"#utility.yul\":19873:20046   */\n    tag_372:\n        /* \"#utility.yul\":20013:20038   */\n      0x61756374696f6e206e6f74207374617274656420796574000000000000000000\n        /* \"#utility.yul\":20009:20010   */\n      0x00\n        /* \"#utility.yul\":20001:20007   */\n      dup3\n        /* \"#utility.yul\":19997:20011   */\n      add\n        /* \"#utility.yul\":19990:20039   */\n      mstore\n        /* \"#utility.yul\":19873:20046   */\n      pop\n      jump\t// out\n        /* \"#utility.yul\":20052:20418   */\n    tag_373:\n        /* \"#utility.yul\":20194:20197   */\n      0x00\n        /* \"#utility.yul\":20215:20282   */\n      tag_584\n        /* \"#utility.yul\":20279:20281   */\n      0x17\n        /* \"#utility.yul\":20274:20277   */\n      dup4\n        /* \"#utility.yul\":20215:20282   */\n      tag_349\n      jump\t// in\n    tag_584:\n        /* \"#utility.yul\":20208:20282   */\n      swap2\n      pop\n        /* \"#utility.yul\":20291:20384   */\n      tag_585\n        /* \"#utility.yul\":20380:20383   */\n      dup3\n        /* \"#utility.yul\":20291:20384   */\n      tag_372\n      jump\t// in\n    tag_585:\n        /* \"#utility.yul\":20409:20411   */\n      0x20\n        /* \"#utility.yul\":20404:20407   */\n      dup3\n        /* \"#utility.yul\":20400:20412   */\n      add\n        /* \"#utility.yul\":20393:20412   */\n      swap1\n      pop\n        /* \"#utility.yul\":20052:20418   */\n      swap2\n      swap1\n      pop\n      jump\t// out\n        /* \"#utility.yul\":20424:20843   */\n    tag_186:\n        /* \"#utility.yul\":20590:20594   */\n      0x00\n        /* \"#utility.yul\":20628:20630   */\n      0x20\n        /* \"#utility.yul\":20617:20626   */\n      dup3\n        /* \"#utility.yul\":20613:20631   */\n      add\n        /* \"#utility.yul\":20605:20631   */\n      swap1\n      pop\n        /* \"#utility.yul\":20677:20686   */\n      dup2\n        /* \"#utility.yul\":20671:20675   */\n      dup2\n        /* \"#utility.yul\":20667:20687   */\n      sub\n        /* \"#utility.yul\":20663:20664   */\n      0x00\n        /* \"#utility.yul\":20652:20661   */\n      dup4\n        /* \"#utility.yul\":20648:20665   */\n      add\n        /* \"#utility.yul\":20641:20688   */\n      mstore\n        /* \"#utility.yul\":20705:20836   */\n      tag_587\n        /* \"#utility.yul\":20831:20835   */\n      dup2\n        /* \"#utility.yul\":20705:20836   */\n      tag_373\n      jump\t// in\n    tag_587:\n        /* \"#utility.yul\":20697:20836   */\n      swap1\n      pop\n        /* \"#utility.yul\":20424:20843   */\n      swap2\n      swap1\n      pop\n      jump\t// out\n        /* \"#utility.yul\":20849:21181   */\n    tag_191:\n        /* \"#utility.yul\":20970:20974   */\n      0x00\n        /* \"#utility.yul\":21008:21010   */\n      0x40\n        /* \"#utility.yul\":20997:21006   */\n      dup3\n        /* \"#utility.yul\":20993:21011   */\n      add\n        /* \"#utility.yul\":20985:21011   */\n      swap1\n      pop\n        /* \"#utility.yul\":21021:21092   */\n      tag_589\n        /* \"#utility.yul\":21089:21090   */\n      0x00\n        /* \"#utility.yul\":21078:21087   */\n      dup4\n        /* \"#utility.yul\":21074:21091   */\n      add\n        /* \"#utility.yul\":21065:21071   */\n      dup6\n        /* \"#utility.yul\":21021:21092   */\n      tag_330\n      jump\t// in\n    tag_589:\n        /* \"#utility.yul\":21102:21174   */\n      tag_590\n        /* \"#utility.yul\":21170:21172   */\n      0x20\n        /* \"#utility.yul\":21159:21168   */\n      dup4\n        /* \"#utility.yul\":21155:21173   */\n      add\n        /* \"#utility.yul\":21146:21152   */\n      dup5\n        /* \"#utility.yul\":21102:21174   */\n      tag_330\n      jump\t// in\n    tag_590:\n        /* \"#utility.yul\":20849:21181   */\n      swap4\n      swap3\n      pop\n      pop\n      pop\n      jump\t// out\n        /* \"#utility.yul\":21187:21378   */\n    tag_195:\n        /* \"#utility.yul\":21227:21230   */\n      0x00\n        /* \"#utility.yul\":21246:21266   */\n      tag_592\n        /* \"#utility.yul\":21264:21265   */\n      dup3\n        /* \"#utility.yul\":21246:21266   */\n      tag_323\n      jump\t// in\n    tag_592:\n        /* \"#utility.yul\":21241:21266   */\n      swap2\n      pop\n        /* \"#utility.yul\":21280:21300   */\n      tag_593\n        /* \"#utility.yul\":21298:21299   */\n      dup4\n        /* \"#utility.yul\":21280:21300   */\n      tag_323\n      jump\t// in\n    tag_593:\n        /* \"#utility.yul\":21275:21300   */\n      swap3\n      pop\n        /* \"#utility.yul\":21323:21324   */\n      dup3\n        /* \"#utility.yul\":21320:21321   */\n      dup3\n        /* \"#utility.yul\":21316:21325   */\n      add\n        /* \"#utility.yul\":21309:21325   */\n      swap1\n      pop\n        /* \"#utility.yul\":21344:21347   */\n      dup1\n        /* \"#utility.yul\":21341:21342   */\n      dup3\n        /* \"#utility.yul\":21338:21348   */\n      gt\n        /* \"#utility.yul\":21335:21371   */\n      iszero\n      tag_594\n      jumpi\n        /* \"#utility.yul\":21351:21369   */\n      tag_595\n      tag_355\n      jump\t// in\n    tag_595:\n        /* \"#utility.yul\":21335:21371   */\n    tag_594:\n        /* \"#utility.yul\":21187:21378   */\n      swap3\n      swap2\n      pop\n      pop\n      jump\t// out\n        /* \"#utility.yul\":21384:21826   */\n    tag_199:\n        /* \"#utility.yul\":21533:21537   */\n      0x00\n        /* \"#utility.yul\":21571:21573   */\n      0x60\n        /* \"#utility.yul\":21560:21569   */\n      dup3\n        /* \"#utility.yul\":21556:21574   */\n      add\n        /* \"#utility.yul\":21548:21574   */\n      swap1\n      pop\n        /* \"#utility.yul\":21584:21655   */\n      tag_597\n        /* \"#utility.yul\":21652:21653   */\n      0x00\n        /* \"#utility.yul\":21641:21650   */\n      dup4\n        /* \"#utility.yul\":21637:21654   */\n      add\n        /* \"#utility.yul\":21628:21634   */\n      dup7\n        /* \"#utility.yul\":21584:21655   */\n      tag_348\n      jump\t// in\n    tag_597:\n        /* \"#utility.yul\":21665:21737   */\n      tag_598\n        /* \"#utility.yul\":21733:21735   */\n      0x20\n        /* \"#utility.yul\":21722:21731   */\n      dup4\n        /* \"#utility.yul\":21718:21736   */\n      add\n        /* \"#utility.yul\":21709:21715   */\n      dup6\n        /* \"#utility.yul\":21665:21737   */\n      tag_348\n      jump\t// in\n    tag_598:\n        /* \"#utility.yul\":21747:21819   */\n      tag_599\n        /* \"#utility.yul\":21815:21817   */\n      0x40\n        /* \"#utility.yul\":21804:21813   */\n      dup4\n        /* \"#utility.yul\":21800:21818   */\n      add\n        /* \"#utility.yul\":21791:21797   */\n      dup5\n        /* \"#utility.yul\":21747:21819   */\n      tag_330\n      jump\t// in\n    tag_599:\n        /* \"#utility.yul\":21384:21826   */\n      swap5\n      swap4\n      pop\n      pop\n      pop\n      pop\n      jump\t// out\n        /* \"#utility.yul\":21832:22242   */\n    tag_222:\n        /* \"#utility.yul\":21872:21879   */\n      0x00\n        /* \"#utility.yul\":21895:21915   */\n      tag_601\n        /* \"#utility.yul\":21913:21914   */\n      dup3\n        /* \"#utility.yul\":21895:21915   */\n      tag_323\n      jump\t// in\n    tag_601:\n        /* \"#utility.yul\":21890:21915   */\n      swap2\n      pop\n        /* \"#utility.yul\":21929:21949   */\n      tag_602\n        /* \"#utility.yul\":21947:21948   */\n      dup4\n        /* \"#utility.yul\":21929:21949   */\n      tag_323\n      jump\t// in\n    tag_602:\n        /* \"#utility.yul\":21924:21949   */\n      swap3\n      pop\n        /* \"#utility.yul\":21984:21985   */\n      dup3\n        /* \"#utility.yul\":21981:21982   */\n      dup3\n        /* \"#utility.yul\":21977:21986   */\n      mul\n        /* \"#utility.yul\":22006:22036   */\n      tag_603\n        /* \"#utility.yul\":22024:22035   */\n      dup2\n        /* \"#utility.yul\":22006:22036   */\n      tag_323\n      jump\t// in\n    tag_603:\n        /* \"#utility.yul\":21995:22036   */\n      swap2\n      pop\n        /* \"#utility.yul\":22185:22186   */\n      dup3\n        /* \"#utility.yul\":22176:22183   */\n      dup3\n        /* \"#utility.yul\":22172:22187   */\n      div\n        /* \"#utility.yul\":22169:22170   */\n      dup5\n        /* \"#utility.yul\":22166:22188   */\n      eq\n        /* \"#utility.yul\":22146:22147   */\n      dup4\n        /* \"#utility.yul\":22139:22148   */\n      iszero\n        /* \"#utility.yul\":22119:22202   */\n      or\n        /* \"#utility.yul\":22096:22235   */\n      tag_604\n      jumpi\n        /* \"#utility.yul\":22215:22233   */\n      tag_605\n      tag_355\n      jump\t// in\n    tag_605:\n        /* \"#utility.yul\":22096:22235   */\n    tag_604:\n        /* \"#utility.yul\":21880:22242   */\n      pop\n        /* \"#utility.yul\":21832:22242   */\n      swap3\n      swap2\n      pop\n      pop\n      jump\t// out\n        /* \"#utility.yul\":22248:22416   */\n    tag_374:\n        /* \"#utility.yul\":22388:22408   */\n      0x63616e206e6f742063616e63656c206e6f770000000000000000000000000000\n        /* \"#utility.yul\":22384:22385   */\n      0x00\n        /* \"#utility.yul\":22376:22382   */\n      dup3\n        /* \"#utility.yul\":22372:22386   */\n      add\n        /* \"#utility.yul\":22365:22409   */\n      mstore\n        /* \"#utility.yul\":22248:22416   */\n      pop\n      jump\t// out\n        /* \"#utility.yul\":22422:22788   */\n    tag_375:\n        /* \"#utility.yul\":22564:22567   */\n      0x00\n        /* \"#utility.yul\":22585:22652   */\n      tag_608\n        /* \"#utility.yul\":22649:22651   */\n      0x12\n        /* \"#utility.yul\":22644:22647   */\n      dup4\n        /* \"#utility.yul\":22585:22652   */\n      tag_349\n      jump\t// in\n    tag_608:\n        /* \"#utility.yul\":22578:22652   */\n      swap2\n      pop\n        /* \"#utility.yul\":22661:22754   */\n      tag_609\n        /* \"#utility.yul\":22750:22753   */\n      dup3\n        /* \"#utility.yul\":22661:22754   */\n      tag_374\n      jump\t// in\n    tag_609:\n        /* \"#utility.yul\":22779:22781   */\n      0x20\n        /* \"#utility.yul\":22774:22777   */\n      dup3\n        /* \"#utility.yul\":22770:22782   */\n      add\n        /* \"#utility.yul\":22763:22782   */\n      swap1\n      pop\n        /* \"#utility.yul\":22422:22788   */\n      swap2\n      swap1\n      pop\n      jump\t// out\n        /* \"#utility.yul\":22794:23213   */\n    tag_233:\n        /* \"#utility.yul\":22960:22964   */\n      0x00\n        /* \"#utility.yul\":22998:23000   */\n      0x20\n        /* \"#utility.yul\":22987:22996   */\n      dup3\n        /* \"#utility.yul\":22983:23001   */\n      add\n        /* \"#utility.yul\":22975:23001   */\n      swap1\n      pop\n        /* \"#utility.yul\":23047:23056   */\n      dup2\n        /* \"#utility.yul\":23041:23045   */\n      dup2\n        /* \"#utility.yul\":23037:23057   */\n      sub\n        /* \"#utility.yul\":23033:23034   */\n      0x00\n        /* \"#utility.yul\":23022:23031   */\n      dup4\n        /* \"#utility.yul\":23018:23035   */\n      add\n        /* \"#utility.yul\":23011:23058   */\n      mstore\n        /* \"#utility.yul\":23075:23206   */\n      tag_611\n        /* \"#utility.yul\":23201:23205   */\n      dup2\n        /* \"#utility.yul\":23075:23206   */\n      tag_375\n      jump\t// in\n    tag_611:\n        /* \"#utility.yul\":23067:23206   */\n      swap1\n      pop\n        /* \"#utility.yul\":22794:23213   */\n      swap2\n      swap1\n      pop\n      jump\t// out\n        /* \"#utility.yul\":23219:23388   */\n    tag_376:\n        /* \"#utility.yul\":23359:23380   */\n      0x696e76616c6964206e6674206164647265737300000000000000000000000000\n        /* \"#utility.yul\":23355:23356   */\n      0x00\n        /* \"#utility.yul\":23347:23353   */\n      dup3\n        /* \"#utility.yul\":23343:23357   */\n      add\n        /* \"#utility.yul\":23336:23381   */\n      mstore\n        /* \"#utility.yul\":23219:23388   */\n      pop\n      jump\t// out\n        /* \"#utility.yul\":23394:23760   */\n    tag_377:\n        /* \"#utility.yul\":23536:23539   */\n      0x00\n        /* \"#utility.yul\":23557:23624   */\n      tag_614\n        /* \"#utility.yul\":23621:23623   */\n      0x13\n        /* \"#utility.yul\":23616:23619   */\n      dup4\n        /* \"#utility.yul\":23557:23624   */\n      tag_349\n      jump\t// in\n    tag_614:\n        /* \"#utility.yul\":23550:23624   */\n      swap2\n      pop\n        /* \"#utility.yul\":23633:23726   */\n      tag_615\n        /* \"#utility.yul\":23722:23725   */\n      dup3\n        /* \"#utility.yul\":23633:23726   */\n      tag_376\n      jump\t// in\n    tag_615:\n        /* \"#utility.yul\":23751:23753   */\n      0x20\n        /* \"#utility.yul\":23746:23749   */\n      dup3\n        /* \"#utility.yul\":23742:23754   */\n      add\n        /* \"#utility.yul\":23735:23754   */\n      swap1\n      pop\n        /* \"#utility.yul\":23394:23760   */\n      swap2\n      swap1\n      pop\n      jump\t// out\n        /* \"#utility.yul\":23766:24185   */\n    tag_250:\n        /* \"#utility.yul\":23932:23936   */\n      0x00\n        /* \"#utility.yul\":23970:23972   */\n      0x20\n        /* \"#utility.yul\":23959:23968   */\n      dup3\n        /* \"#utility.yul\":23955:23973   */\n      add\n        /* \"#utility.yul\":23947:23973   */\n      swap1\n      pop\n        /* \"#utility.yul\":24019:24028   */\n      dup2\n        /* \"#utility.yul\":24013:24017   */\n      dup2\n        /* \"#utility.yul\":24009:24029   */\n      sub\n        /* \"#utility.yul\":24005:24006   */\n      0x00\n        /* \"#utility.yul\":23994:24003   */\n      dup4\n        /* \"#utility.yul\":23990:24007   */\n      add\n        /* \"#utility.yul\":23983:24030   */\n      mstore\n        /* \"#utility.yul\":24047:24178   */\n      tag_617\n        /* \"#utility.yul\":24173:24177   */\n      dup2\n        /* \"#utility.yul\":24047:24178   */\n      tag_377\n      jump\t// in\n    tag_617:\n        /* \"#utility.yul\":24039:24178   */\n      swap1\n      pop\n        /* \"#utility.yul\":23766:24185   */\n      swap2\n      swap1\n      pop\n      jump\t// out\n        /* \"#utility.yul\":24191:24368   */\n    tag_378:\n        /* \"#utility.yul\":24331:24360   */\n      0x616c72656164792065786973747320696e2077686974656c6973740000000000\n        /* \"#utility.yul\":24327:24328   */\n      0x00\n        /* \"#utility.yul\":24319:24325   */\n      dup3\n        /* \"#utility.yul\":24315:24329   */\n      add\n        /* \"#utility.yul\":24308:24361   */\n      mstore\n        /* \"#utility.yul\":24191:24368   */\n      pop\n      jump\t// out\n        /* \"#utility.yul\":24374:24740   */\n    tag_379:\n        /* \"#utility.yul\":24516:24519   */\n      0x00\n        /* \"#utility.yul\":24537:24604   */\n      tag_620\n        /* \"#utility.yul\":24601:24603   */\n      0x1b\n        /* \"#utility.yul\":24596:24599   */\n      dup4\n        /* \"#utility.yul\":24537:24604   */\n      tag_349\n      jump\t// in\n    tag_620:\n        /* \"#utility.yul\":24530:24604   */\n      swap2\n      pop\n        /* \"#utility.yul\":24613:24706   */\n      tag_621\n        /* \"#utility.yul\":24702:24705   */\n      dup3\n        /* \"#utility.yul\":24613:24706   */\n      tag_378\n      jump\t// in\n    tag_621:\n        /* \"#utility.yul\":24731:24733   */\n      0x20\n        /* \"#utility.yul\":24726:24729   */\n      dup3\n        /* \"#utility.yul\":24722:24734   */\n      add\n        /* \"#utility.yul\":24715:24734   */\n      swap1\n      pop\n        /* \"#utility.yul\":24374:24740   */\n      swap2\n      swap1\n      pop\n      jump\t// out\n        /* \"#utility.yul\":24746:25165   */\n    tag_257:\n        /* \"#utility.yul\":24912:24916   */\n      0x00\n        /* \"#utility.yul\":24950:24952   */\n      0x20\n        /* \"#utility.yul\":24939:24948   */\n      dup3\n        /* \"#utility.yul\":24935:24953   */\n      add\n        /* \"#utility.yul\":24927:24953   */\n      swap1\n      pop\n        /* \"#utility.yul\":24999:25008   */\n      dup2\n        /* \"#utility.yul\":24993:24997   */\n      dup2\n        /* \"#utility.yul\":24989:25009   */\n      sub\n        /* \"#utility.yul\":24985:24986   */\n      0x00\n        /* \"#utility.yul\":24974:24983   */\n      dup4\n        /* \"#utility.yul\":24970:24987   */\n      add\n        /* \"#utility.yul\":24963:25010   */\n      mstore\n        /* \"#utility.yul\":25027:25158   */\n      tag_623\n        /* \"#utility.yul\":25153:25157   */\n      dup2\n        /* \"#utility.yul\":25027:25158   */\n      tag_379\n      jump\t// in\n    tag_623:\n        /* \"#utility.yul\":25019:25158   */\n      swap1\n      pop\n        /* \"#utility.yul\":24746:25165   */\n      swap2\n      swap1\n      pop\n      jump\t// out\n        /* \"#utility.yul\":25171:25261   */\n    tag_380:\n        /* \"#utility.yul\":25205:25212   */\n      0x00\n        /* \"#utility.yul\":25248:25253   */\n      dup2\n        /* \"#utility.yul\":25241:25254   */\n      iszero\n        /* \"#utility.yul\":25234:25255   */\n      iszero\n        /* \"#utility.yul\":25223:25255   */\n      swap1\n      pop\n        /* \"#utility.yul\":25171:25261   */\n      swap2\n      swap1\n      pop\n      jump\t// out\n        /* \"#utility.yul\":25267:25383   */\n    tag_381:\n        /* \"#utility.yul\":25337:25358   */\n      tag_626\n        /* \"#utility.yul\":25352:25357   */\n      dup2\n        /* \"#utility.yul\":25337:25358   */\n      tag_380\n      jump\t// in\n    tag_626:\n        /* \"#utility.yul\":25330:25335   */\n      dup2\n        /* \"#utility.yul\":25327:25359   */\n      eq\n        /* \"#utility.yul\":25317:25377   */\n      tag_627\n      jumpi\n        /* \"#utility.yul\":25373:25374   */\n      0x00\n        /* \"#utility.yul\":25370:25371   */\n      dup1\n        /* \"#utility.yul\":25363:25375   */\n      revert\n        /* \"#utility.yul\":25317:25377   */\n    tag_627:\n        /* \"#utility.yul\":25267:25383   */\n      pop\n      jump\t// out\n        /* \"#utility.yul\":25389:25526   */\n    tag_382:\n        /* \"#utility.yul\":25443:25448   */\n      0x00\n        /* \"#utility.yul\":25474:25480   */\n      dup2\n        /* \"#utility.yul\":25468:25481   */\n      mload\n        /* \"#utility.yul\":25459:25481   */\n      swap1\n      pop\n        /* \"#utility.yul\":25490:25520   */\n      tag_629\n        /* \"#utility.yul\":25514:25519   */\n      dup2\n        /* \"#utility.yul\":25490:25520   */\n      tag_381\n      jump\t// in\n    tag_629:\n        /* \"#utility.yul\":25389:25526   */\n      swap3\n      swap2\n      pop\n      pop\n      jump\t// out\n        /* \"#utility.yul\":25532:25877   */\n    tag_262:\n        /* \"#utility.yul\":25599:25605   */\n      0x00\n        /* \"#utility.yul\":25648:25650   */\n      0x20\n        /* \"#utility.yul\":25636:25645   */\n      dup3\n        /* \"#utility.yul\":25627:25634   */\n      dup5\n        /* \"#utility.yul\":25623:25646   */\n      sub\n        /* \"#utility.yul\":25619:25651   */\n      slt\n        /* \"#utility.yul\":25616:25735   */\n      iszero\n      tag_631\n      jumpi\n        /* \"#utility.yul\":25654:25733   */\n      tag_632\n      tag_321\n      jump\t// in\n    tag_632:\n        /* \"#utility.yul\":25616:25735   */\n    tag_631:\n        /* \"#utility.yul\":25774:25775   */\n      0x00\n        /* \"#utility.yul\":25799:25860   */\n      tag_633\n        /* \"#utility.yul\":25852:25859   */\n      dup5\n        /* \"#utility.yul\":25843:25849   */\n      dup3\n        /* \"#utility.yul\":25832:25841   */\n      dup6\n        /* \"#utility.yul\":25828:25850   */\n      add\n        /* \"#utility.yul\":25799:25860   */\n      tag_382\n      jump\t// in\n    tag_633:\n        /* \"#utility.yul\":25789:25860   */\n      swap2\n      pop\n        /* \"#utility.yul\":25745:25870   */\n      pop\n        /* \"#utility.yul\":25532:25877   */\n      swap3\n      swap2\n      pop\n      pop\n      jump\t// out\n        /* \"#utility.yul\":25883:26049   */\n    tag_383:\n        /* \"#utility.yul\":26023:26041   */\n      0x696e76616c6964206e6674207479706500000000000000000000000000000000\n        /* \"#utility.yul\":26019:26020   */\n      0x00\n        /* \"#utility.yul\":26011:26017   */\n      dup3\n        /* \"#utility.yul\":26007:26021   */\n      add\n        /* \"#utility.yul\":26000:26042   */\n      mstore\n        /* \"#utility.yul\":25883:26049   */\n      pop\n      jump\t// out\n        /* \"#utility.yul\":26055:26421   */\n    tag_384:\n        /* \"#utility.yul\":26197:26200   */\n      0x00\n        /* \"#utility.yul\":26218:26285   */\n      tag_636\n        /* \"#utility.yul\":26282:26284   */\n      0x10\n        /* \"#utility.yul\":26277:26280   */\n      dup4\n        /* \"#utility.yul\":26218:26285   */\n      tag_349\n      jump\t// in\n    tag_636:\n        /* \"#utility.yul\":26211:26285   */\n      swap2\n      pop\n        /* \"#utility.yul\":26294:26387   */\n      tag_637\n        /* \"#utility.yul\":26383:26386   */\n      dup3\n        /* \"#utility.yul\":26294:26387   */\n      tag_383\n      jump\t// in\n    tag_637:\n        /* \"#utility.yul\":26412:26414   */\n      0x20\n        /* \"#utility.yul\":26407:26410   */\n      dup3\n        /* \"#utility.yul\":26403:26415   */\n      add\n        /* \"#utility.yul\":26396:26415   */\n      swap1\n      pop\n        /* \"#utility.yul\":26055:26421   */\n      swap2\n      swap1\n      pop\n      jump\t// out\n        /* \"#utility.yul\":26427:26846   */\n    tag_265:\n        /* \"#utility.yul\":26593:26597   */\n      0x00\n        /* \"#utility.yul\":26631:26633   */\n      0x20\n        /* \"#utility.yul\":26620:26629   */\n      dup3\n        /* \"#utility.yul\":26616:26634   */\n      add\n        /* \"#utility.yul\":26608:26634   */\n      swap1\n      pop\n        /* \"#utility.yul\":26680:26689   */\n      dup2\n        /* \"#utility.yul\":26674:26678   */\n      dup2\n        /* \"#utility.yul\":26670:26690   */\n      sub\n        /* \"#utility.yul\":26666:26667   */\n      0x00\n        /* \"#utility.yul\":26655:26664   */\n      dup4\n        /* \"#utility.yul\":26651:26668   */\n      add\n        /* \"#utility.yul\":26644:26691   */\n      mstore\n        /* \"#utility.yul\":26708:26839   */\n      tag_639\n        /* \"#utility.yul\":26834:26838   */\n      dup2\n        /* \"#utility.yul\":26708:26839   */\n      tag_384\n      jump\t// in\n    tag_639:\n        /* \"#utility.yul\":26700:26839   */\n      swap1\n      pop\n        /* \"#utility.yul\":26427:26846   */\n      swap2\n      swap1\n      pop\n      jump\t// out\n        /* \"#utility.yul\":26852:27013   */\n    tag_385:\n        /* \"#utility.yul\":26992:27005   */\n      0x696e76616c6964206e6674000000000000000000000000000000000000000000\n        /* \"#utility.yul\":26988:26989   */\n      0x00\n        /* \"#utility.yul\":26980:26986   */\n      dup3\n        /* \"#utility.yul\":26976:26990   */\n      add\n        /* \"#utility.yul\":26969:27006   */\n      mstore\n        /* \"#utility.yul\":26852:27013   */\n      pop\n      jump\t// out\n        /* \"#utility.yul\":27019:27385   */\n    tag_386:\n        /* \"#utility.yul\":27161:27164   */\n      0x00\n        /* \"#utility.yul\":27182:27249   */\n      tag_642\n        /* \"#utility.yul\":27246:27248   */\n      0x0b\n        /* \"#utility.yul\":27241:27244   */\n      dup4\n        /* \"#utility.yul\":27182:27249   */\n      tag_349\n      jump\t// in\n    tag_642:\n        /* \"#utility.yul\":27175:27249   */\n      swap2\n      pop\n        /* \"#utility.yul\":27258:27351   */\n      tag_643\n        /* \"#utility.yul\":27347:27350   */\n      dup3\n        /* \"#utility.yul\":27258:27351   */\n      tag_385\n      jump\t// in\n    tag_643:\n        /* \"#utility.yul\":27376:27378   */\n      0x20\n        /* \"#utility.yul\":27371:27374   */\n      dup3\n        /* \"#utility.yul\":27367:27379   */\n      add\n        /* \"#utility.yul\":27360:27379   */\n      swap1\n      pop\n        /* \"#utility.yul\":27019:27385   */\n      swap2\n      swap1\n      pop\n      jump\t// out\n        /* \"#utility.yul\":27391:27810   */\n    tag_274:\n        /* \"#utility.yul\":27557:27561   */\n      0x00\n        /* \"#utility.yul\":27595:27597   */\n      0x20\n        /* \"#utility.yul\":27584:27593   */\n      dup3\n        /* \"#utility.yul\":27580:27598   */\n      add\n        /* \"#utility.yul\":27572:27598   */\n      swap1\n      pop\n        /* \"#utility.yul\":27644:27653   */\n      dup2\n        /* \"#utility.yul\":27638:27642   */\n      dup2\n        /* \"#utility.yul\":27634:27654   */\n      sub\n        /* \"#utility.yul\":27630:27631   */\n      0x00\n        /* \"#utility.yul\":27619:27628   */\n      dup4\n        /* \"#utility.yul\":27615:27632   */\n      add\n        /* \"#utility.yul\":27608:27655   */\n      mstore\n        /* \"#utility.yul\":27672:27803   */\n      tag_645\n        /* \"#utility.yul\":27798:27802   */\n      dup2\n        /* \"#utility.yul\":27672:27803   */\n      tag_386\n      jump\t// in\n    tag_645:\n        /* \"#utility.yul\":27664:27803   */\n      swap1\n      pop\n        /* \"#utility.yul\":27391:27810   */\n      swap2\n      swap1\n      pop\n      jump\t// out\n        /* \"#utility.yul\":27816:27959   */\n    tag_387:\n        /* \"#utility.yul\":27873:27878   */\n      0x00\n        /* \"#utility.yul\":27904:27910   */\n      dup2\n        /* \"#utility.yul\":27898:27911   */\n      mload\n        /* \"#utility.yul\":27889:27911   */\n      swap1\n      pop\n        /* \"#utility.yul\":27920:27953   */\n      tag_647\n        /* \"#utility.yul\":27947:27952   */\n      dup2\n        /* \"#utility.yul\":27920:27953   */\n      tag_328\n      jump\t// in\n    tag_647:\n        /* \"#utility.yul\":27816:27959   */\n      swap3\n      swap2\n      pop\n      pop\n      jump\t// out\n        /* \"#utility.yul\":27965:28316   */\n    tag_288:\n        /* \"#utility.yul\":28035:28041   */\n      0x00\n        /* \"#utility.yul\":28084:28086   */\n      0x20\n        /* \"#utility.yul\":28072:28081   */\n      dup3\n        /* \"#utility.yul\":28063:28070   */\n      dup5\n        /* \"#utility.yul\":28059:28082   */\n      sub\n        /* \"#utility.yul\":28055:28087   */\n      slt\n        /* \"#utility.yul\":28052:28171   */\n      iszero\n      tag_649\n      jumpi\n        /* \"#utility.yul\":28090:28169   */\n      tag_650\n      tag_321\n      jump\t// in\n    tag_650:\n        /* \"#utility.yul\":28052:28171   */\n    tag_649:\n        /* \"#utility.yul\":28210:28211   */\n      0x00\n        /* \"#utility.yul\":28235:28299   */\n      tag_651\n        /* \"#utility.yul\":28291:28298   */\n      dup5\n        /* \"#utility.yul\":28282:28288   */\n      dup3\n        /* \"#utility.yul\":28271:28280   */\n      dup6\n        /* \"#utility.yul\":28267:28289   */\n      add\n        /* \"#utility.yul\":28235:28299   */\n      tag_387\n      jump\t// in\n    tag_651:\n        /* \"#utility.yul\":28225:28299   */\n      swap2\n      pop\n        /* \"#utility.yul\":28181:28309   */\n      pop\n        /* \"#utility.yul\":27965:28316   */\n      swap3\n      swap2\n      pop\n      pop\n      jump\t// out\n\n    auxdata: 0xa264697066735822122013ab145a59fb2267df8f074b2211d70e0de6584e854dcf807de0fea21ed3b2dd64736f6c634300081a0033\n}\n",
				"bytecode": {
					"linkReferences": {},
					"object": "60806040525f80553480156011575f80fd5b503360075f6101000a81548173ffffffffffffffffffffffffffffffffffffffff021916908373ffffffffffffffffffffffffffffffffffffffff160217905550612cbc8061005f5f395ff3fe60806040526004361061011d575f3560e01c80638f4e9cbb1161009f578063b46300ec11610063578063b46300ec146103db578063b80083fa146103f1578063d2c069f014610419578063e43197ef1461045f578063f851a440146104875761011d565b80638f4e9cbb146102d5578063917d009e14610311578063978bbdb91461034d57806397ae9a841461037757806398891fac1461039f5761011d565b80633ccfd60b116100e65780633ccfd60b146102155780633e2d4ee91461022b57806345596e2e1461026757806364a7d7c71461028f5780636a868974146102ab5761011d565b806233a40c146101215780630b21bd101461014957806312065fe014610185578063150b7a02146101af5780633ad15258146101eb575b5f80fd5b34801561012c575f80fd5b5061014760048036038101906101429190611ecd565b6104b1565b005b348015610154575f80fd5b5061016f600480360381019061016a9190611fb0565b610662565b60405161017c9190611ffd565b60405180910390f35b348015610190575f80fd5b5061019961074b565b6040516101a69190611ffd565b60405180910390f35b3480156101ba575f80fd5b506101d560048036038101906101d09190612152565b61078f565b6040516101e2919061220c565b60405180910390f35b3480156101f6575f80fd5b506101ff610830565b60405161020c9190611ffd565b60405180910390f35b348015610220575f80fd5b506102296108c8565b005b348015610236575f80fd5b50610251600480360381019061024c9190611fb0565b610a42565b60405161025e9190611ffd565b60405180910390f35b348015610272575f80fd5b5061028d60048036038101906102889190612225565b610b53565b005b6102a960048036038101906102a49190612225565b610c31565b005b3480156102b6575f80fd5b506102bf610faa565b6040516102cc9190611ffd565b60405180910390f35b3480156102e0575f80fd5b506102fb60048036038101906102f69190611fb0565b610faf565b6040516103089190611ffd565b60405180910390f35b34801561031c575f80fd5b5061033760048036038101906103329190612225565b61106a565b6040516103449190611ffd565b60405180910390f35b348015610358575f80fd5b5061036161117c565b60405161036e9190611ffd565b60405180910390f35b348015610382575f80fd5b5061039d60048036038101906103989190612250565b611182565b005b3480156103aa575f80fd5b506103c560048036038101906103c09190611fb0565b611366565b6040516103d29190611ffd565b60405180910390f35b3480156103e6575f80fd5b506103ef611386565b005b3480156103fc575f80fd5b50610417600480360381019061041291906122a0565b61148a565b005b348015610424575f80fd5b5061043f600480360381019061043a9190612225565b61177c565b6040516104569b9a99989796959493929190612335565b60405180910390f35b34801561046a575f80fd5b50610485600480360381019061048091906122a0565b61182f565b005b348015610492575f80fd5b5061049b611986565b6040516104a891906123de565b60405180910390f35b848411156104f4576040517f17e268cd0000000000000000000000000000000000000000000000000000000081526004016104eb90612477565b60405180910390fd5b5f60015f8881526020019081526020015f206002015f9054906101000a900473ffffffffffffffffffffffffffffffffffffffff1690503373ffffffffffffffffffffffffffffffffffffffff168173ffffffffffffffffffffffffffffffffffffffff1614610599576040517f17e268cd00000000000000000000000000000000000000000000000000000000815260040161059090612505565b60405180910390fd5b6105a2876119ab565b8560015f8981526020019081526020015f20600301819055508460015f8981526020019081526020015f20600401819055508360015f8981526020019081526020015f20600501819055508260015f8981526020019081526020015f20600601819055508160015f8981526020019081526020015f2060070181905550818361062b919061257d565b858761063791906125ad565b610641919061257d565b60015f8981526020019081526020015f206008018190555050505050505050565b5f8060025f8573ffffffffffffffffffffffffffffffffffffffff1673ffffffffffffffffffffffffffffffffffffffff1681526020019081526020015f205f8481526020019081526020015f20541461070a5760025f8473ffffffffffffffffffffffffffffffffffffffff1673ffffffffffffffffffffffffffffffffffffffff1681526020019081526020015f205f8381526020019081526020015f20549050610745565b61071383611a46565b61071d8383611a9e565b5f8081548092919061072e906125e0565b91905055506107408383335f54611b8b565b5f5490505b92915050565b5f60035f3373ffffffffffffffffffffffffffffffffffffffff1673ffffffffffffffffffffffffffffffffffffffff1681526020019081526020015f2054905090565b5f8033905061079d81611a46565b6107a78185611a9e565b5f808154809291906107b8906125e0565b91905055506107ca8185885f54611b8b565b5f54848773ffffffffffffffffffffffffffffffffffffffff167f6778fcaa1a3680b9a79665a7194f70a23653f082d46eb1c5505ffb75d50a553b8887604051610815929190612687565b60405180910390a463150b7a0260e01b915050949350505050565b5f60075f9054906101000a900473ffffffffffffffffffffffffffffffffffffffff1673ffffffffffffffffffffffffffffffffffffffff163373ffffffffffffffffffffffffffffffffffffffff16146108c0576040517f08c379a00000000000000000000000000000000000000000000000000000000081526004016108b7906126ff565b60405180910390fd5b600454905090565b5f3390505f60035f3373ffffffffffffffffffffffffffffffffffffffff1673ffffffffffffffffffffffffffffffffffffffff1681526020019081526020015f205490505f810361094f576040517f08c379a000000000000000000000000000000000000000000000000000000000815260040161094690612767565b60405180910390fd5b5f60035f8473ffffffffffffffffffffffffffffffffffffffff1673ffffffffffffffffffffffffffffffffffffffff1681526020019081526020015f20819055505f8273ffffffffffffffffffffffffffffffffffffffff16826040516109b6906127b2565b5f6040518083038185875af1925050503d805f81146109f0576040519150601f19603f3d011682016040523d82523d5f602084013e6109f5565b606091505b5050905080610a3d5782826040517fff475979000000000000000000000000000000000000000000000000000000008152600401610a349291906127c6565b60405180910390fd5b505050565b5f610a4c83611a46565b610a568383611a9e565b5f60025f8573ffffffffffffffffffffffffffffffffffffffff1673ffffffffffffffffffffffffffffffffffffffff1681526020019081526020015f205f8481526020019081526020015f205490503373ffffffffffffffffffffffffffffffffffffffff1660015f8381526020019081526020015f206002015f9054906101000a900473ffffffffffffffffffffffffffffffffffffffff1673ffffffffffffffffffffffffffffffffffffffff1614610b49575f6040517f1d603999000000000000000000000000000000000000000000000000000000008152600401610b409190612826565b60405180910390fd5b8091505092915050565b60075f9054906101000a900473ffffffffffffffffffffffffffffffffffffffff1673ffffffffffffffffffffffffffffffffffffffff163373ffffffffffffffffffffffffffffffffffffffff1614610be2576040517f08c379a0000000000000000000000000000000000000000000000000000000008152600401610bd9906126ff565b60405180910390fd5b6107d0811115610c27576040517f08c379a0000000000000000000000000000000000000000000000000000000008152600401610c1e90612889565b60405180910390fd5b8060058190555050565b610c3a81611ca1565b60015f8281526020019081526020015f2060050154421015610c91576040517f17e268cd000000000000000000000000000000000000000000000000000000008152600401610c88906128f1565b60405180910390fd5b610c9a816119ab565b5f610ca48261106a565b905080341015610ced5780346040517f09f1801c000000000000000000000000000000000000000000000000000000008152600401610ce492919061290f565b60405180910390fd5b3360015f8481526020019081526020015f206009015f6101000a81548173ffffffffffffffffffffffffffffffffffffffff021916908373ffffffffffffffffffffffffffffffffffffffff1602179055508060015f8481526020019081526020015f20600a01819055505f60015f8481526020019081526020015f205f015f9054906101000a900473ffffffffffffffffffffffffffffffffffffffff1690505f60015f8581526020019081526020015f2060010154905060025f8373ffffffffffffffffffffffffffffffffffffffff1673ffffffffffffffffffffffffffffffffffffffff1681526020019081526020015f205f8281526020019081526020015f205f90555f60015f8681526020019081526020015f206002015f9054906101000a900473ffffffffffffffffffffffffffffffffffffffff1690505f610e3685611d47565b90508060045f828254610e499190612936565b925050819055508085610e5c91906125ad565b60035f8473ffffffffffffffffffffffffffffffffffffffff1673ffffffffffffffffffffffffffffffffffffffff1681526020019081526020015f205f828254610ea79190612936565b9250508190555060015f8781526020019081526020015f205f015f9054906101000a900473ffffffffffffffffffffffffffffffffffffffff1673ffffffffffffffffffffffffffffffffffffffff166342842e0e3033866040518463ffffffff1660e01b8152600401610f1d93929190612969565b5f604051808303815f87803b158015610f34575f80fd5b505af1158015610f46573d5f803e3d5ffd5b5050505084341115610fa2573373ffffffffffffffffffffffffffffffffffffffff166108fc8634610f7891906125ad565b90811502906040515f60405180830381858888f19350505050158015610fa0573d5f803e3d5ffd5b505b505050505050565b5f5481565b5f8060025f8573ffffffffffffffffffffffffffffffffffffffff1673ffffffffffffffffffffffffffffffffffffffff1681526020019081526020015f205f8481526020019081526020015f2054146110575760025f8473ffffffffffffffffffffffffffffffffffffffff1673ffffffffffffffffffffffffffffffffffffffff1681526020019081526020015f205f8381526020019081526020015f20549050611064565b6110618383610662565b90505b92915050565b5f61107482611ca1565b61107d826119ab565b5f60015f8481526020019081526020015f206003015490505f60015f8581526020019081526020015f206004015490505f60015f8681526020019081526020015f206005015490505f60015f8781526020019081526020015f206006015490505f60015f8881526020019081526020015f206007015490505f60015f8981526020019081526020015f206008015490505f84421161111d5786905061116d565b83856111299190612936565b42106111375785905061116c565b5f83864261114591906125ad565b61114f919061257d565b9050808361115d919061299e565b8861116891906125ad565b9150505b5b80975050505050505050919050565b60055481565b61118b83611a46565b6111958383611a9e565b5f60025f8573ffffffffffffffffffffffffffffffffffffffff1673ffffffffffffffffffffffffffffffffffffffff1681526020019081526020015f205f8481526020019081526020015f205490505f81146112f6576111f5816119ab565b60015f8281526020019081526020015f206006015460015f8381526020019081526020015f20600501546112299190612936565b4211156112ba5760015f8281526020019081526020015f206002015f6101000a81549073ffffffffffffffffffffffffffffffffffffffff021916905560025f8573ffffffffffffffffffffffffffffffffffffffff1673ffffffffffffffffffffffffffffffffffffffff1681526020019081526020015f205f8481526020019081526020015f205f90556112f5565b6040517f08c379a00000000000000000000000000000000000000000000000000000000081526004016112ec90612a29565b60405180910390fd5b5b8373ffffffffffffffffffffffffffffffffffffffff166342842e0e3084866040518463ffffffff1660e01b815260040161133393929190612969565b5f604051808303815f87803b15801561134a575f80fd5b505af115801561135c573d5f803e3d5ffd5b5050505050505050565b6002602052815f5260405f20602052805f5260405f205f91509150505481565b60075f9054906101000a900473ffffffffffffffffffffffffffffffffffffffff1673ffffffffffffffffffffffffffffffffffffffff163373ffffffffffffffffffffffffffffffffffffffff1614611415576040517f08c379a000000000000000000000000000000000000000000000000000000000815260040161140c906126ff565b60405180910390fd5b5f60045490505f60048190555060075f9054906101000a900473ffffffffffffffffffffffffffffffffffffffff1673ffffffffffffffffffffffffffffffffffffffff166108fc8290811502906040515f60405180830381858888f19350505050158015611486573d5f803e3d5ffd5b5050565b60075f9054906101000a900473ffffffffffffffffffffffffffffffffffffffff1673ffffffffffffffffffffffffffffffffffffffff163373ffffffffffffffffffffffffffffffffffffffff1614611519576040517f08c379a0000000000000000000000000000000000000000000000000000000008152600401611510906126ff565b60405180910390fd5b5f73ffffffffffffffffffffffffffffffffffffffff168173ffffffffffffffffffffffffffffffffffffffff1603611587576040517f08c379a000000000000000000000000000000000000000000000000000000000815260040161157e90612a91565b60405180910390fd5b8073ffffffffffffffffffffffffffffffffffffffff163073ffffffffffffffffffffffffffffffffffffffff16036115f757806040517fbf16aab60000000000000000000000000000000000000000000000000000000081526004016115ee91906123de565b60405180910390fd5b61160b816006611d6a90919063ffffffff16565b1561164b576040517f08c379a000000000000000000000000000000000000000000000000000000000815260040161164290612af9565b60405180910390fd5b8073ffffffffffffffffffffffffffffffffffffffff166301ffc9a77f80ac58cd000000000000000000000000000000000000000000000000000000006040518263ffffffff1660e01b81526004016116a4919061220c565b602060405180830381865afa1580156116bf573d5f803e3d5ffd5b505050506040513d601f19601f820116820180604052508101906116e39190612b4c565b611722576040517f08c379a000000000000000000000000000000000000000000000000000000000815260040161171990612bc1565b60405180910390fd5b611736816006611d8790919063ffffffff16565b8073ffffffffffffffffffffffffffffffffffffffff167f37fb5467cdf7dcb833b3c07d10482c6019526966533fc80293b05cd19ea55a6860405160405180910390a250565b6001602052805f5260405f205f91509050805f015f9054906101000a900473ffffffffffffffffffffffffffffffffffffffff1690806001015490806002015f9054906101000a900473ffffffffffffffffffffffffffffffffffffffff1690806003015490806004015490806005015490806006015490806007015490806008015490806009015f9054906101000a900473ffffffffffffffffffffffffffffffffffffffff169080600a015490508b565b60075f9054906101000a900473ffffffffffffffffffffffffffffffffffffffff1673ffffffffffffffffffffffffffffffffffffffff163373ffffffffffffffffffffffffffffffffffffffff16146118be576040517f08c379a00000000000000000000000000000000000000000000000000000000081526004016118b5906126ff565b60405180910390fd5b5f73ffffffffffffffffffffffffffffffffffffffff168173ffffffffffffffffffffffffffffffffffffffff160361192c576040517f08c379a000000000000000000000000000000000000000000000000000000000815260040161192390612c29565b60405180910390fd5b611940816006611d9f90919063ffffffff16565b8073ffffffffffffffffffffffffffffffffffffffff167f13d42f38aa17fe3792989c026a1b89b975ee252624a7d09716c1c7d5535fe94560405160405180910390a250565b60075f9054906101000a900473ffffffffffffffffffffffffffffffffffffffff1681565b5f73ffffffffffffffffffffffffffffffffffffffff1660015f8381526020019081526020015f206009015f9054906101000a900473ffffffffffffffffffffffffffffffffffffffff1673ffffffffffffffffffffffffffffffffffffffff1614611a43576040517fa7dad6ac00000000000000000000000000000000000000000000000000000000815260040160405180910390fd5b50565b611a5a816006611d6a90919063ffffffff16565b611a9b57806040517fbf16aab6000000000000000000000000000000000000000000000000000000008152600401611a9291906123de565b60405180910390fd5b50565b3073ffffffffffffffffffffffffffffffffffffffff168273ffffffffffffffffffffffffffffffffffffffff16636352211e836040518263ffffffff1660e01b8152600401611aee9190611ffd565b602060405180830381865afa158015611b09573d5f803e3d5ffd5b505050506040513d601f19601f82011682018060405250810190611b2d9190612c5b565b73ffffffffffffffffffffffffffffffffffffffff1614611b875781816040517fef9b3c4d000000000000000000000000000000000000000000000000000000008152600401611b7e9291906127c6565b60405180910390fd5b5050565b8360015f805481526020019081526020015f205f015f6101000a81548173ffffffffffffffffffffffffffffffffffffffff021916908373ffffffffffffffffffffffffffffffffffffffff1602179055508260015f805481526020019081526020015f20600101819055508160015f805481526020019081526020015f206002015f6101000a81548173ffffffffffffffffffffffffffffffffffffffff021916908373ffffffffffffffffffffffffffffffffffffffff1602179055508060025f8673ffffffffffffffffffffffffffffffffffffffff1673ffffffffffffffffffffffffffffffffffffffff1681526020019081526020015f205f8581526020019081526020015f208190555050505050565b5f73ffffffffffffffffffffffffffffffffffffffff1660015f8381526020019081526020015f206002015f9054906101000a900473ffffffffffffffffffffffffffffffffffffffff1673ffffffffffffffffffffffffffffffffffffffff1603611d4457806040517f1d603999000000000000000000000000000000000000000000000000000000008152600401611d3b9190611ffd565b60405180910390fd5b50565b5f61271060055483611d59919061299e565b611d63919061257d565b9050919050565b5f611d7f835f01611d7a84611db7565b611dd6565b905092915050565b611d9b825f01611d9683611db7565b611e08565b5050565b611db3825f01611dae83611db7565b611e3c565b5050565b5f8173ffffffffffffffffffffffffffffffffffffffff169050919050565b5f805f611de284611e71565b915091505f81865f015f8581526020019081526020015f20541614159250505092915050565b5f80611e1383611e71565b9150915080845f015f8481526020019081526020015f205f828254179250508190555050505050565b5f80611e4783611e71565b915091508019845f015f8481526020019081526020015f205f828254169250508190555050505050565b5f80600883901c915060ff83166001901b9050915091565b5f604051905090565b5f80fd5b5f80fd5b5f819050919050565b611eac81611e9a565b8114611eb6575f80fd5b50565b5f81359050611ec781611ea3565b92915050565b5f805f805f8060c08789031215611ee757611ee6611e92565b5b5f611ef489828a01611eb9565b9650506020611f0589828a01611eb9565b9550506040611f1689828a01611eb9565b9450506060611f2789828a01611eb9565b9350506080611f3889828a01611eb9565b92505060a0611f4989828a01611eb9565b9150509295509295509295565b5f73ffffffffffffffffffffffffffffffffffffffff82169050919050565b5f611f7f82611f56565b9050919050565b611f8f81611f75565b8114611f99575f80fd5b50565b5f81359050611faa81611f86565b92915050565b5f8060408385031215611fc657611fc5611e92565b5b5f611fd385828601611f9c565b9250506020611fe485828601611eb9565b9150509250929050565b611ff781611e9a565b82525050565b5f6020820190506120105f830184611fee565b92915050565b5f80fd5b5f80fd5b5f601f19601f8301169050919050565b7f4e487b71000000000000000000000000000000000000000000000000000000005f52604160045260245ffd5b6120648261201e565b810181811067ffffffffffffffff821117156120835761208261202e565b5b80604052505050565b5f612095611e89565b90506120a1828261205b565b919050565b5f67ffffffffffffffff8211156120c0576120bf61202e565b5b6120c98261201e565b9050602081019050919050565b828183375f83830152505050565b5f6120f66120f1846120a6565b61208c565b9050828152602081018484840111156121125761211161201a565b5b61211d8482856120d6565b509392505050565b5f82601f83011261213957612138612016565b5b81356121498482602086016120e4565b91505092915050565b5f805f806080858703121561216a57612169611e92565b5b5f61217787828801611f9c565b945050602061218887828801611f9c565b935050604061219987828801611eb9565b925050606085013567ffffffffffffffff8111156121ba576121b9611e96565b5b6121c687828801612125565b91505092959194509250565b5f7fffffffff0000000000000000000000000000000000000000000000000000000082169050919050565b612206816121d2565b82525050565b5f60208201905061221f5f8301846121fd565b92915050565b5f6020828403121561223a57612239611e92565b5b5f61224784828501611eb9565b91505092915050565b5f805f6060848603121561226757612266611e92565b5b5f61227486828701611f9c565b935050602061228586828701611eb9565b925050604061229686828701611f9c565b9150509250925092565b5f602082840312156122b5576122b4611e92565b5b5f6122c284828501611f9c565b91505092915050565b5f819050919050565b5f6122ee6122e96122e484611f56565b6122cb565b611f56565b9050919050565b5f6122ff826122d4565b9050919050565b5f612310826122f5565b9050919050565b61232081612306565b82525050565b61232f81611f75565b82525050565b5f610160820190506123495f83018e612317565b612356602083018d611fee565b612363604083018c612326565b612370606083018b611fee565b61237d608083018a611fee565b61238a60a0830189611fee565b61239760c0830188611fee565b6123a460e0830187611fee565b6123b2610100830186611fee565b6123c0610120830185612326565b6123ce610140830184611fee565b9c9b505050505050505050505050565b5f6020820190506123f15f830184612326565b92915050565b5f82825260208201905092915050565b7f656e64207072696365206d757374206e6f7420626520677265617465722074685f8201527f616e2073746172742070726963652e0000000000000000000000000000000000602082015250565b5f612461602f836123f7565b915061246c82612407565b604082019050919050565b5f6020820190508181035f83015261248e81612455565b9050919050565b7f63616e206e6f74206372656174652061756374696f6e2c20746865206e6674205f8201527f6e6f742066726f6d20796f757273656c662e0000000000000000000000000000602082015250565b5f6124ef6032836123f7565b91506124fa82612495565b604082019050919050565b5f6020820190508181035f83015261251c816124e3565b9050919050565b7f4e487b71000000000000000000000000000000000000000000000000000000005f52601260045260245ffd5b7f4e487b71000000000000000000000000000000000000000000000000000000005f52601160045260245ffd5b5f61258782611e9a565b915061259283611e9a565b9250826125a2576125a1612523565b5b828204905092915050565b5f6125b782611e9a565b91506125c283611e9a565b92508282039050818111156125da576125d9612550565b5b92915050565b5f6125ea82611e9a565b91507fffffffffffffffffffffffffffffffffffffffffffffffffffffffffffffffff820361261c5761261b612550565b5b600182019050919050565b5f81519050919050565b5f82825260208201905092915050565b8281835e5f83830152505050565b5f61265982612627565b6126638185612631565b9350612673818560208601612641565b61267c8161201e565b840191505092915050565b5f60408201905061269a5f830185612326565b81810360208301526126ac818461264f565b90509392505050565b7f6e6f7420617574686f72697a65640000000000000000000000000000000000005f82015250565b5f6126e9600e836123f7565b91506126f4826126b5565b602082019050919050565b5f6020820190508181035f830152612716816126dd565b9050919050565b7f796f752068617665206e6f2062616c616e6365000000000000000000000000005f82015250565b5f6127516013836123f7565b915061275c8261271d565b602082019050919050565b5f6020820190508181035f83015261277e81612745565b9050919050565b5f81905092915050565b50565b5f61279d5f83612785565b91506127a88261278f565b5f82019050919050565b5f6127bc82612792565b9150819050919050565b5f6040820190506127d95f830185612326565b6127e66020830184611fee565b9392505050565b5f819050919050565b5f61281061280b612806846127ed565b6122cb565b611e9a565b9050919050565b612820816127f6565b82525050565b5f6020820190506128395f830184612817565b92915050565b7f666565207261746520746f6f20686967680000000000000000000000000000005f82015250565b5f6128736011836123f7565b915061287e8261283f565b602082019050919050565b5f6020820190508181035f8301526128a081612867565b9050919050565b7f61756374696f6e206e6f742073746172746564207965740000000000000000005f82015250565b5f6128db6017836123f7565b91506128e6826128a7565b602082019050919050565b5f6020820190508181035f830152612908816128cf565b9050919050565b5f6040820190506129225f830185611fee565b61292f6020830184611fee565b9392505050565b5f61294082611e9a565b915061294b83611e9a565b925082820190508082111561296357612962612550565b5b92915050565b5f60608201905061297c5f830186612326565b6129896020830185612326565b6129966040830184611fee565b949350505050565b5f6129a882611e9a565b91506129b383611e9a565b92508282026129c181611e9a565b915082820484148315176129d8576129d7612550565b5b5092915050565b7f63616e206e6f742063616e63656c206e6f7700000000000000000000000000005f82015250565b5f612a136012836123f7565b9150612a1e826129df565b602082019050919050565b5f6020820190508181035f830152612a4081612a07565b9050919050565b7f696e76616c6964206e66742061646472657373000000000000000000000000005f82015250565b5f612a7b6013836123f7565b9150612a8682612a47565b602082019050919050565b5f6020820190508181035f830152612aa881612a6f565b9050919050565b7f616c72656164792065786973747320696e2077686974656c69737400000000005f82015250565b5f612ae3601b836123f7565b9150612aee82612aaf565b602082019050919050565b5f6020820190508181035f830152612b1081612ad7565b9050919050565b5f8115159050919050565b612b2b81612b17565b8114612b35575f80fd5b50565b5f81519050612b4681612b22565b92915050565b5f60208284031215612b6157612b60611e92565b5b5f612b6e84828501612b38565b91505092915050565b7f696e76616c6964206e66742074797065000000000000000000000000000000005f82015250565b5f612bab6010836123f7565b9150612bb682612b77565b602082019050919050565b5f6020820190508181035f830152612bd881612b9f565b9050919050565b7f696e76616c6964206e66740000000000000000000000000000000000000000005f82015250565b5f612c13600b836123f7565b9150612c1e82612bdf565b602082019050919050565b5f6020820190508181035f830152612c4081612c07565b9050919050565b5f81519050612c5581611f86565b92915050565b5f60208284031215612c7057612c6f611e92565b5b5f612c7d84828501612c47565b9150509291505056fea264697066735822122013ab145a59fb2267df8f074b2211d70e0de6584e854dcf807de0fea21ed3b2dd64736f6c634300081a0033",
					"opcodes": "PUSH1 0x80 PUSH1 0x40 MSTORE PUSH0 DUP1 SSTORE CALLVALUE DUP1 ISZERO PUSH1 0x11 JUMPI PUSH0 DUP1 REVERT JUMPDEST POP CALLER PUSH1 0x7 PUSH0 PUSH2 0x100 EXP DUP2 SLOAD DUP2 PUSH20 0xFFFFFFFFFFFFFFFFFFFFFFFFFFFFFFFFFFFFFFFF MUL NOT AND SWAP1 DUP4 PUSH20 0xFFFFFFFFFFFFFFFFFFFFFFFFFFFFFFFFFFFFFFFF AND MUL OR SWAP1 SSTORE POP PUSH2 0x2CBC DUP1 PUSH2 0x5F PUSH0 CODECOPY PUSH0 RETURN INVALID PUSH1 0x80 PUSH1 0x40 MSTORE PUSH1 0x4 CALLDATASIZE LT PUSH2 0x11D JUMPI PUSH0 CALLDATALOAD PUSH1 0xE0 SHR DUP1 PUSH4 0x8F4E9CBB GT PUSH2 0x9F JUMPI DUP1 PUSH4 0xB46300EC GT PUSH2 0x63 JUMPI DUP1 PUSH4 0xB46300EC EQ PUSH2 0x3DB JUMPI DUP1 PUSH4 0xB80083FA EQ PUSH2 0x3F1 JUMPI DUP1 PUSH4 0xD2C069F0 EQ PUSH2 0x419 JUMPI DUP1 PUSH4 0xE43197EF EQ PUSH2 0x45F JUMPI DUP1 PUSH4 0xF851A440 EQ PUSH2 0x487 JUMPI PUSH2 0x11D JUMP JUMPDEST DUP1 PUSH4 0x8F4E9CBB EQ PUSH2 0x2D5 JUMPI DUP1 PUSH4 0x917D009E EQ PUSH2 0x311 JUMPI DUP1 PUSH4 0x978BBDB9 EQ PUSH2 0x34D JUMPI DUP1 PUSH4 0x97AE9A84 EQ PUSH2 0x377 JUMPI DUP1 PUSH4 0x98891FAC EQ PUSH2 0x39F JUMPI PUSH2 0x11D JUMP JUMPDEST DUP1 PUSH4 0x3CCFD60B GT PUSH2 0xE6 JUMPI DUP1 PUSH4 0x3CCFD60B EQ PUSH2 0x215 JUMPI DUP1 PUSH4 0x3E2D4EE9 EQ PUSH2 0x22B JUMPI DUP1 PUSH4 0x45596E2E EQ PUSH2 0x267 JUMPI DUP1 PUSH4 0x64A7D7C7 EQ PUSH2 0x28F JUMPI DUP1 PUSH4 0x6A868974 EQ PUSH2 0x2AB JUMPI PUSH2 0x11D JUMP JUMPDEST DUP1 PUSH3 0x33A40C EQ PUSH2 0x121 JUMPI DUP1 PUSH4 0xB21BD10 EQ PUSH2 0x149 JUMPI DUP1 PUSH4 0x12065FE0 EQ PUSH2 0x185 JUMPI DUP1 PUSH4 0x150B7A02 EQ PUSH2 0x1AF JUMPI DUP1 PUSH4 0x3AD15258 EQ PUSH2 0x1EB JUMPI JUMPDEST PUSH0 DUP1 REVERT JUMPDEST CALLVALUE DUP1 ISZERO PUSH2 0x12C JUMPI PUSH0 DUP1 REVERT JUMPDEST POP PUSH2 0x147 PUSH1 0x4 DUP1 CALLDATASIZE SUB DUP2 ADD SWAP1 PUSH2 0x142 SWAP2 SWAP1 PUSH2 0x1ECD JUMP JUMPDEST PUSH2 0x4B1 JUMP JUMPDEST STOP JUMPDEST CALLVALUE DUP1 ISZERO PUSH2 0x154 JUMPI PUSH0 DUP1 REVERT JUMPDEST POP PUSH2 0x16F PUSH1 0x4 DUP1 CALLDATASIZE SUB DUP2 ADD SWAP1 PUSH2 0x16A SWAP2 SWAP1 PUSH2 0x1FB0 JUMP JUMPDEST PUSH2 0x662 JUMP JUMPDEST PUSH1 0x40 MLOAD PUSH2 0x17C SWAP2 SWAP1 PUSH2 0x1FFD JUMP JUMPDEST PUSH1 0x40 MLOAD DUP1 SWAP2 SUB SWAP1 RETURN JUMPDEST CALLVALUE DUP1 ISZERO PUSH2 0x190 JUMPI PUSH0 DUP1 REVERT JUMPDEST POP PUSH2 0x199 PUSH2 0x74B JUMP JUMPDEST PUSH1 0x40 MLOAD PUSH2 0x1A6 SWAP2 SWAP1 PUSH2 0x1FFD JUMP JUMPDEST PUSH1 0x40 MLOAD DUP1 SWAP2 SUB SWAP1 RETURN JUMPDEST CALLVALUE DUP1 ISZERO PUSH2 0x1BA JUMPI PUSH0 DUP1 REVERT JUMPDEST POP PUSH2 0x1D5 PUSH1 0x4 DUP1 CALLDATASIZE SUB DUP2 ADD SWAP1 PUSH2 0x1D0 SWAP2 SWAP1 PUSH2 0x2152 JUMP JUMPDEST PUSH2 0x78F JUMP JUMPDEST PUSH1 0x40 MLOAD PUSH2 0x1E2 SWAP2 SWAP1 PUSH2 0x220C JUMP JUMPDEST PUSH1 0x40 MLOAD DUP1 SWAP2 SUB SWAP1 RETURN JUMPDEST CALLVALUE DUP1 ISZERO PUSH2 0x1F6 JUMPI PUSH0 DUP1 REVERT JUMPDEST POP PUSH2 0x1FF PUSH2 0x830 JUMP JUMPDEST PUSH1 0x40 MLOAD PUSH2 0x20C SWAP2 SWAP1 PUSH2 0x1FFD JUMP JUMPDEST PUSH1 0x40 MLOAD DUP1 SWAP2 SUB SWAP1 RETURN JUMPDEST CALLVALUE DUP1 ISZERO PUSH2 0x220 JUMPI PUSH0 DUP1 REVERT JUMPDEST POP PUSH2 0x229 PUSH2 0x8C8 JUMP JUMPDEST STOP JUMPDEST CALLVALUE DUP1 ISZERO PUSH2 0x236 JUMPI PUSH0 DUP1 REVERT JUMPDEST POP PUSH2 0x251 PUSH1 0x4 DUP1 CALLDATASIZE SUB DUP2 ADD SWAP1 PUSH2 0x24C SWAP2 SWAP1 PUSH2 0x1FB0 JUMP JUMPDEST PUSH2 0xA42 JUMP JUMPDEST PUSH1 0x40 MLOAD PUSH2 0x25E SWAP2 SWAP1 PUSH2 0x1FFD JUMP JUMPDEST PUSH1 0x40 MLOAD DUP1 SWAP2 SUB SWAP1 RETURN JUMPDEST CALLVALUE DUP1 ISZERO PUSH2 0x272 JUMPI PUSH0 DUP1 REVERT JUMPDEST POP PUSH2 0x28D PUSH1 0x4 DUP1 CALLDATASIZE SUB DUP2 ADD SWAP1 PUSH2 0x288 SWAP2 SWAP1 PUSH2 0x2225 JUMP JUMPDEST PUSH2 0xB53 JUMP JUMPDEST STOP JUMPDEST PUSH2 0x2A9 PUSH1 0x4 DUP1 CALLDATASIZE SUB DUP2 ADD SWAP1 PUSH2 0x2A4 SWAP2 SWAP1 PUSH2 0x2225 JUMP JUMPDEST PUSH2 0xC31 JUMP JUMPDEST STOP JUMPDEST CALLVALUE DUP1 ISZERO PUSH2 0x2B6 JUMPI PUSH0 DUP1 REVERT JUMPDEST POP PUSH2 0x2BF PUSH2 0xFAA JUMP JUMPDEST PUSH1 0x40 MLOAD PUSH2 0x2CC SWAP2 SWAP1 PUSH2 0x1FFD JUMP JUMPDEST PUSH1 0x40 MLOAD DUP1 SWAP2 SUB SWAP1 RETURN JUMPDEST CALLVALUE DUP1 ISZERO PUSH2 0x2E0 JUMPI PUSH0 DUP1 REVERT JUMPDEST POP PUSH2 0x2FB PUSH1 0x4 DUP1 CALLDATASIZE SUB DUP2 ADD SWAP1 PUSH2 0x2F6 SWAP2 SWAP1 PUSH2 0x1FB0 JUMP JUMPDEST PUSH2 0xFAF JUMP JUMPDEST PUSH1 0x40 MLOAD PUSH2 0x308 SWAP2 SWAP1 PUSH2 0x1FFD JUMP JUMPDEST PUSH1 0x40 MLOAD DUP1 SWAP2 SUB SWAP1 RETURN JUMPDEST CALLVALUE DUP1 ISZERO PUSH2 0x31C JUMPI PUSH0 DUP1 REVERT JUMPDEST POP PUSH2 0x337 PUSH1 0x4 DUP1 CALLDATASIZE SUB DUP2 ADD SWAP1 PUSH2 0x332 SWAP2 SWAP1 PUSH2 0x2225 JUMP JUMPDEST PUSH2 0x106A JUMP JUMPDEST PUSH1 0x40 MLOAD PUSH2 0x344 SWAP2 SWAP1 PUSH2 0x1FFD JUMP JUMPDEST PUSH1 0x40 MLOAD DUP1 SWAP2 SUB SWAP1 RETURN JUMPDEST CALLVALUE DUP1 ISZERO PUSH2 0x358 JUMPI PUSH0 DUP1 REVERT JUMPDEST POP PUSH2 0x361 PUSH2 0x117C JUMP JUMPDEST PUSH1 0x40 MLOAD PUSH2 0x36E SWAP2 SWAP1 PUSH2 0x1FFD JUMP JUMPDEST PUSH1 0x40 MLOAD DUP1 SWAP2 SUB SWAP1 RETURN JUMPDEST CALLVALUE DUP1 ISZERO PUSH2 0x382 JUMPI PUSH0 DUP1 REVERT JUMPDEST POP PUSH2 0x39D PUSH1 0x4 DUP1 CALLDATASIZE SUB DUP2 ADD SWAP1 PUSH2 0x398 SWAP2 SWAP1 PUSH2 0x2250 JUMP JUMPDEST PUSH2 0x1182 JUMP JUMPDEST STOP JUMPDEST CALLVALUE DUP1 ISZERO PUSH2 0x3AA JUMPI PUSH0 DUP1 REVERT JUMPDEST POP PUSH2 0x3C5 PUSH1 0x4 DUP1 CALLDATASIZE SUB DUP2 ADD SWAP1 PUSH2 0x3C0 SWAP2 SWAP1 PUSH2 0x1FB0 JUMP JUMPDEST PUSH2 0x1366 JUMP JUMPDEST PUSH1 0x40 MLOAD PUSH2 0x3D2 SWAP2 SWAP1 PUSH2 0x1FFD JUMP JUMPDEST PUSH1 0x40 MLOAD DUP1 SWAP2 SUB SWAP1 RETURN JUMPDEST CALLVALUE DUP1 ISZERO PUSH2 0x3E6 JUMPI PUSH0 DUP1 REVERT JUMPDEST POP PUSH2 0x3EF PUSH2 0x1386 JUMP JUMPDEST STOP JUMPDEST CALLVALUE DUP1 ISZERO PUSH2 0x3FC JUMPI PUSH0 DUP1 REVERT JUMPDEST POP PUSH2 0x417 PUSH1 0x4 DUP1 CALLDATASIZE SUB DUP2 ADD SWAP1 PUSH2 0x412 SWAP2 SWAP1 PUSH2 0x22A0 JUMP JUMPDEST PUSH2 0x148A JUMP JUMPDEST STOP JUMPDEST CALLVALUE DUP1 ISZERO PUSH2 0x424 JUMPI PUSH0 DUP1 REVERT JUMPDEST POP PUSH2 0x43F PUSH1 0x4 DUP1 CALLDATASIZE SUB DUP2 ADD SWAP1 PUSH2 0x43A SWAP2 SWAP1 PUSH2 0x2225 JUMP JUMPDEST PUSH2 0x177C JUMP JUMPDEST PUSH1 0x40 MLOAD PUSH2 0x456 SWAP12 SWAP11 SWAP10 SWAP9 SWAP8 SWAP7 SWAP6 SWAP5 SWAP4 SWAP3 SWAP2 SWAP1 PUSH2 0x2335 JUMP JUMPDEST PUSH1 0x40 MLOAD DUP1 SWAP2 SUB SWAP1 RETURN JUMPDEST CALLVALUE DUP1 ISZERO PUSH2 0x46A JUMPI PUSH0 DUP1 REVERT JUMPDEST POP PUSH2 0x485 PUSH1 0x4 DUP1 CALLDATASIZE SUB DUP2 ADD SWAP1 PUSH2 0x480 SWAP2 SWAP1 PUSH2 0x22A0 JUMP JUMPDEST PUSH2 0x182F JUMP JUMPDEST STOP JUMPDEST CALLVALUE DUP1 ISZERO PUSH2 0x492 JUMPI PUSH0 DUP1 REVERT JUMPDEST POP PUSH2 0x49B PUSH2 0x1986 JUMP JUMPDEST PUSH1 0x40 MLOAD PUSH2 0x4A8 SWAP2 SWAP1 PUSH2 0x23DE JUMP JUMPDEST PUSH1 0x40 MLOAD DUP1 SWAP2 SUB SWAP1 RETURN JUMPDEST DUP5 DUP5 GT ISZERO PUSH2 0x4F4 JUMPI PUSH1 0x40 MLOAD PUSH32 0x17E268CD00000000000000000000000000000000000000000000000000000000 DUP2 MSTORE PUSH1 0x4 ADD PUSH2 0x4EB SWAP1 PUSH2 0x2477 JUMP JUMPDEST PUSH1 0x40 MLOAD DUP1 SWAP2 SUB SWAP1 REVERT JUMPDEST PUSH0 PUSH1 0x1 PUSH0 DUP9 DUP2 MSTORE PUSH1 0x20 ADD SWAP1 DUP2 MSTORE PUSH1 0x20 ADD PUSH0 KECCAK256 PUSH1 0x2 ADD PUSH0 SWAP1 SLOAD SWAP1 PUSH2 0x100 EXP SWAP1 DIV PUSH20 0xFFFFFFFFFFFFFFFFFFFFFFFFFFFFFFFFFFFFFFFF AND SWAP1 POP CALLER PUSH20 0xFFFFFFFFFFFFFFFFFFFFFFFFFFFFFFFFFFFFFFFF AND DUP2 PUSH20 0xFFFFFFFFFFFFFFFFFFFFFFFFFFFFFFFFFFFFFFFF AND EQ PUSH2 0x599 JUMPI PUSH1 0x40 MLOAD PUSH32 0x17E268CD00000000000000000000000000000000000000000000000000000000 DUP2 MSTORE PUSH1 0x4 ADD PUSH2 0x590 SWAP1 PUSH2 0x2505 JUMP JUMPDEST PUSH1 0x40 MLOAD DUP1 SWAP2 SUB SWAP1 REVERT JUMPDEST PUSH2 0x5A2 DUP8 PUSH2 0x19AB JUMP JUMPDEST DUP6 PUSH1 0x1 PUSH0 DUP10 DUP2 MSTORE PUSH1 0x20 ADD SWAP1 DUP2 MSTORE PUSH1 0x20 ADD PUSH0 KECCAK256 PUSH1 0x3 ADD DUP2 SWAP1 SSTORE POP DUP5 PUSH1 0x1 PUSH0 DUP10 DUP2 MSTORE PUSH1 0x20 ADD SWAP1 DUP2 MSTORE PUSH1 0x20 ADD PUSH0 KECCAK256 PUSH1 0x4 ADD DUP2 SWAP1 SSTORE POP DUP4 PUSH1 0x1 PUSH0 DUP10 DUP2 MSTORE PUSH1 0x20 ADD SWAP1 DUP2 MSTORE PUSH1 0x20 ADD PUSH0 KECCAK256 PUSH1 0x5 ADD DUP2 SWAP1 SSTORE POP DUP3 PUSH1 0x1 PUSH0 DUP10 DUP2 MSTORE PUSH1 0x20 ADD SWAP1 DUP2 MSTORE PUSH1 0x20 ADD PUSH0 KECCAK256 PUSH1 0x6 ADD DUP2 SWAP1 SSTORE POP DUP2 PUSH1 0x1 PUSH0 DUP10 DUP2 MSTORE PUSH1 0x20 ADD SWAP1 DUP2 MSTORE PUSH1 0x20 ADD PUSH0 KECCAK256 PUSH1 0x7 ADD DUP2 SWAP1 SSTORE POP DUP2 DUP4 PUSH2 0x62B SWAP2 SWAP1 PUSH2 0x257D JUMP JUMPDEST DUP6 DUP8 PUSH2 0x637 SWAP2 SWAP1 PUSH2 0x25AD JUMP JUMPDEST PUSH2 0x641 SWAP2 SWAP1 PUSH2 0x257D JUMP JUMPDEST PUSH1 0x1 PUSH0 DUP10 DUP2 MSTORE PUSH1 0x20 ADD SWAP1 DUP2 MSTORE PUSH1 0x20 ADD PUSH0 KECCAK256 PUSH1 0x8 ADD DUP2 SWAP1 SSTORE POP POP POP POP POP POP POP POP JUMP JUMPDEST PUSH0 DUP1 PUSH1 0x2 PUSH0 DUP6 PUSH20 0xFFFFFFFFFFFFFFFFFFFFFFFFFFFFFFFFFFFFFFFF AND PUSH20 0xFFFFFFFFFFFFFFFFFFFFFFFFFFFFFFFFFFFFFFFF AND DUP2 MSTORE PUSH1 0x20 ADD SWAP1 DUP2 MSTORE PUSH1 0x20 ADD PUSH0 KECCAK256 PUSH0 DUP5 DUP2 MSTORE PUSH1 0x20 ADD SWAP1 DUP2 MSTORE PUSH1 0x20 ADD PUSH0 KECCAK256 SLOAD EQ PUSH2 0x70A JUMPI PUSH1 0x2 PUSH0 DUP5 PUSH20 0xFFFFFFFFFFFFFFFFFFFFFFFFFFFFFFFFFFFFFFFF AND PUSH20 0xFFFFFFFFFFFFFFFFFFFFFFFFFFFFFFFFFFFFFFFF AND DUP2 MSTORE PUSH1 0x20 ADD SWAP1 DUP2 MSTORE PUSH1 0x20 ADD PUSH0 KECCAK256 PUSH0 DUP4 DUP2 MSTORE PUSH1 0x20 ADD SWAP1 DUP2 MSTORE PUSH1 0x20 ADD PUSH0 KECCAK256 SLOAD SWAP1 POP PUSH2 0x745 JUMP JUMPDEST PUSH2 0x713 DUP4 PUSH2 0x1A46 JUMP JUMPDEST PUSH2 0x71D DUP4 DUP4 PUSH2 0x1A9E JUMP JUMPDEST PUSH0 DUP1 DUP2 SLOAD DUP1 SWAP3 SWAP2 SWAP1 PUSH2 0x72E SWAP1 PUSH2 0x25E0 JUMP JUMPDEST SWAP2 SWAP1 POP SSTORE POP PUSH2 0x740 DUP4 DUP4 CALLER PUSH0 SLOAD PUSH2 0x1B8B JUMP JUMPDEST PUSH0 SLOAD SWAP1 POP JUMPDEST SWAP3 SWAP2 POP POP JUMP JUMPDEST PUSH0 PUSH1 0x3 PUSH0 CALLER PUSH20 0xFFFFFFFFFFFFFFFFFFFFFFFFFFFFFFFFFFFFFFFF AND PUSH20 0xFFFFFFFFFFFFFFFFFFFFFFFFFFFFFFFFFFFFFFFF AND DUP2 MSTORE PUSH1 0x20 ADD SWAP1 DUP2 MSTORE PUSH1 0x20 ADD PUSH0 KECCAK256 SLOAD SWAP1 POP SWAP1 JUMP JUMPDEST PUSH0 DUP1 CALLER SWAP1 POP PUSH2 0x79D DUP2 PUSH2 0x1A46 JUMP JUMPDEST PUSH2 0x7A7 DUP2 DUP6 PUSH2 0x1A9E JUMP JUMPDEST PUSH0 DUP1 DUP2 SLOAD DUP1 SWAP3 SWAP2 SWAP1 PUSH2 0x7B8 SWAP1 PUSH2 0x25E0 JUMP JUMPDEST SWAP2 SWAP1 POP SSTORE POP PUSH2 0x7CA DUP2 DUP6 DUP9 PUSH0 SLOAD PUSH2 0x1B8B JUMP JUMPDEST PUSH0 SLOAD DUP5 DUP8 PUSH20 0xFFFFFFFFFFFFFFFFFFFFFFFFFFFFFFFFFFFFFFFF AND PUSH32 0x6778FCAA1A3680B9A79665A7194F70A23653F082D46EB1C5505FFB75D50A553B DUP9 DUP8 PUSH1 0x40 MLOAD PUSH2 0x815 SWAP3 SWAP2 SWAP1 PUSH2 0x2687 JUMP JUMPDEST PUSH1 0x40 MLOAD DUP1 SWAP2 SUB SWAP1 LOG4 PUSH4 0x150B7A02 PUSH1 0xE0 SHL SWAP2 POP POP SWAP5 SWAP4 POP POP POP POP JUMP JUMPDEST PUSH0 PUSH1 0x7 PUSH0 SWAP1 SLOAD SWAP1 PUSH2 0x100 EXP SWAP1 DIV PUSH20 0xFFFFFFFFFFFFFFFFFFFFFFFFFFFFFFFFFFFFFFFF AND PUSH20 0xFFFFFFFFFFFFFFFFFFFFFFFFFFFFFFFFFFFFFFFF AND CALLER PUSH20 0xFFFFFFFFFFFFFFFFFFFFFFFFFFFFFFFFFFFFFFFF AND EQ PUSH2 0x8C0 JUMPI PUSH1 0x40 MLOAD PUSH32 0x8C379A000000000000000000000000000000000000000000000000000000000 DUP2 MSTORE PUSH1 0x4 ADD PUSH2 0x8B7 SWAP1 PUSH2 0x26FF JUMP JUMPDEST PUSH1 0x40 MLOAD DUP1 SWAP2 SUB SWAP1 REVERT JUMPDEST PUSH1 0x4 SLOAD SWAP1 POP SWAP1 JUMP JUMPDEST PUSH0 CALLER SWAP1 POP PUSH0 PUSH1 0x3 PUSH0 CALLER PUSH20 0xFFFFFFFFFFFFFFFFFFFFFFFFFFFFFFFFFFFFFFFF AND PUSH20 0xFFFFFFFFFFFFFFFFFFFFFFFFFFFFFFFFFFFFFFFF AND DUP2 MSTORE PUSH1 0x20 ADD SWAP1 DUP2 MSTORE PUSH1 0x20 ADD PUSH0 KECCAK256 SLOAD SWAP1 POP PUSH0 DUP2 SUB PUSH2 0x94F JUMPI PUSH1 0x40 MLOAD PUSH32 0x8C379A000000000000000000000000000000000000000000000000000000000 DUP2 MSTORE PUSH1 0x4 ADD PUSH2 0x946 SWAP1 PUSH2 0x2767 JUMP JUMPDEST PUSH1 0x40 MLOAD DUP1 SWAP2 SUB SWAP1 REVERT JUMPDEST PUSH0 PUSH1 0x3 PUSH0 DUP5 PUSH20 0xFFFFFFFFFFFFFFFFFFFFFFFFFFFFFFFFFFFFFFFF AND PUSH20 0xFFFFFFFFFFFFFFFFFFFFFFFFFFFFFFFFFFFFFFFF AND DUP2 MSTORE PUSH1 0x20 ADD SWAP1 DUP2 MSTORE PUSH1 0x20 ADD PUSH0 KECCAK256 DUP2 SWAP1 SSTORE POP PUSH0 DUP3 PUSH20 0xFFFFFFFFFFFFFFFFFFFFFFFFFFFFFFFFFFFFFFFF AND DUP3 PUSH1 0x40 MLOAD PUSH2 0x9B6 SWAP1 PUSH2 0x27B2 JUMP JUMPDEST PUSH0 PUSH1 0x40 MLOAD DUP1 DUP4 SUB DUP2 DUP6 DUP8 GAS CALL SWAP3 POP POP POP RETURNDATASIZE DUP1 PUSH0 DUP2 EQ PUSH2 0x9F0 JUMPI PUSH1 0x40 MLOAD SWAP2 POP PUSH1 0x1F NOT PUSH1 0x3F RETURNDATASIZE ADD AND DUP3 ADD PUSH1 0x40 MSTORE RETURNDATASIZE DUP3 MSTORE RETURNDATASIZE PUSH0 PUSH1 0x20 DUP5 ADD RETURNDATACOPY PUSH2 0x9F5 JUMP JUMPDEST PUSH1 0x60 SWAP2 POP JUMPDEST POP POP SWAP1 POP DUP1 PUSH2 0xA3D JUMPI DUP3 DUP3 PUSH1 0x40 MLOAD PUSH32 0xFF47597900000000000000000000000000000000000000000000000000000000 DUP2 MSTORE PUSH1 0x4 ADD PUSH2 0xA34 SWAP3 SWAP2 SWAP1 PUSH2 0x27C6 JUMP JUMPDEST PUSH1 0x40 MLOAD DUP1 SWAP2 SUB SWAP1 REVERT JUMPDEST POP POP POP JUMP JUMPDEST PUSH0 PUSH2 0xA4C DUP4 PUSH2 0x1A46 JUMP JUMPDEST PUSH2 0xA56 DUP4 DUP4 PUSH2 0x1A9E JUMP JUMPDEST PUSH0 PUSH1 0x2 PUSH0 DUP6 PUSH20 0xFFFFFFFFFFFFFFFFFFFFFFFFFFFFFFFFFFFFFFFF AND PUSH20 0xFFFFFFFFFFFFFFFFFFFFFFFFFFFFFFFFFFFFFFFF AND DUP2 MSTORE PUSH1 0x20 ADD SWAP1 DUP2 MSTORE PUSH1 0x20 ADD PUSH0 KECCAK256 PUSH0 DUP5 DUP2 MSTORE PUSH1 0x20 ADD SWAP1 DUP2 MSTORE PUSH1 0x20 ADD PUSH0 KECCAK256 SLOAD SWAP1 POP CALLER PUSH20 0xFFFFFFFFFFFFFFFFFFFFFFFFFFFFFFFFFFFFFFFF AND PUSH1 0x1 PUSH0 DUP4 DUP2 MSTORE PUSH1 0x20 ADD SWAP1 DUP2 MSTORE PUSH1 0x20 ADD PUSH0 KECCAK256 PUSH1 0x2 ADD PUSH0 SWAP1 SLOAD SWAP1 PUSH2 0x100 EXP SWAP1 DIV PUSH20 0xFFFFFFFFFFFFFFFFFFFFFFFFFFFFFFFFFFFFFFFF AND PUSH20 0xFFFFFFFFFFFFFFFFFFFFFFFFFFFFFFFFFFFFFFFF AND EQ PUSH2 0xB49 JUMPI PUSH0 PUSH1 0x40 MLOAD PUSH32 0x1D60399900000000000000000000000000000000000000000000000000000000 DUP2 MSTORE PUSH1 0x4 ADD PUSH2 0xB40 SWAP2 SWAP1 PUSH2 0x2826 JUMP JUMPDEST PUSH1 0x40 MLOAD DUP1 SWAP2 SUB SWAP1 REVERT JUMPDEST DUP1 SWAP2 POP POP SWAP3 SWAP2 POP POP JUMP JUMPDEST PUSH1 0x7 PUSH0 SWAP1 SLOAD SWAP1 PUSH2 0x100 EXP SWAP1 DIV PUSH20 0xFFFFFFFFFFFFFFFFFFFFFFFFFFFFFFFFFFFFFFFF AND PUSH20 0xFFFFFFFFFFFFFFFFFFFFFFFFFFFFFFFFFFFFFFFF AND CALLER PUSH20 0xFFFFFFFFFFFFFFFFFFFFFFFFFFFFFFFFFFFFFFFF AND EQ PUSH2 0xBE2 JUMPI PUSH1 0x40 MLOAD PUSH32 0x8C379A000000000000000000000000000000000000000000000000000000000 DUP2 MSTORE PUSH1 0x4 ADD PUSH2 0xBD9 SWAP1 PUSH2 0x26FF JUMP JUMPDEST PUSH1 0x40 MLOAD DUP1 SWAP2 SUB SWAP1 REVERT JUMPDEST PUSH2 0x7D0 DUP2 GT ISZERO PUSH2 0xC27 JUMPI PUSH1 0x40 MLOAD PUSH32 0x8C379A000000000000000000000000000000000000000000000000000000000 DUP2 MSTORE PUSH1 0x4 ADD PUSH2 0xC1E SWAP1 PUSH2 0x2889 JUMP JUMPDEST PUSH1 0x40 MLOAD DUP1 SWAP2 SUB SWAP1 REVERT JUMPDEST DUP1 PUSH1 0x5 DUP2 SWAP1 SSTORE POP POP JUMP JUMPDEST PUSH2 0xC3A DUP2 PUSH2 0x1CA1 JUMP JUMPDEST PUSH1 0x1 PUSH0 DUP3 DUP2 MSTORE PUSH1 0x20 ADD SWAP1 DUP2 MSTORE PUSH1 0x20 ADD PUSH0 KECCAK256 PUSH1 0x5 ADD SLOAD TIMESTAMP LT ISZERO PUSH2 0xC91 JUMPI PUSH1 0x40 MLOAD PUSH32 0x17E268CD00000000000000000000000000000000000000000000000000000000 DUP2 MSTORE PUSH1 0x4 ADD PUSH2 0xC88 SWAP1 PUSH2 0x28F1 JUMP JUMPDEST PUSH1 0x40 MLOAD DUP1 SWAP2 SUB SWAP1 REVERT JUMPDEST PUSH2 0xC9A DUP2 PUSH2 0x19AB JUMP JUMPDEST PUSH0 PUSH2 0xCA4 DUP3 PUSH2 0x106A JUMP JUMPDEST SWAP1 POP DUP1 CALLVALUE LT ISZERO PUSH2 0xCED JUMPI DUP1 CALLVALUE PUSH1 0x40 MLOAD PUSH32 0x9F1801C00000000000000000000000000000000000000000000000000000000 DUP2 MSTORE PUSH1 0x4 ADD PUSH2 0xCE4 SWAP3 SWAP2 SWAP1 PUSH2 0x290F JUMP JUMPDEST PUSH1 0x40 MLOAD DUP1 SWAP2 SUB SWAP1 REVERT JUMPDEST CALLER PUSH1 0x1 PUSH0 DUP5 DUP2 MSTORE PUSH1 0x20 ADD SWAP1 DUP2 MSTORE PUSH1 0x20 ADD PUSH0 KECCAK256 PUSH1 0x9 ADD PUSH0 PUSH2 0x100 EXP DUP2 SLOAD DUP2 PUSH20 0xFFFFFFFFFFFFFFFFFFFFFFFFFFFFFFFFFFFFFFFF MUL NOT AND SWAP1 DUP4 PUSH20 0xFFFFFFFFFFFFFFFFFFFFFFFFFFFFFFFFFFFFFFFF AND MUL OR SWAP1 SSTORE POP DUP1 PUSH1 0x1 PUSH0 DUP5 DUP2 MSTORE PUSH1 0x20 ADD SWAP1 DUP2 MSTORE PUSH1 0x20 ADD PUSH0 KECCAK256 PUSH1 0xA ADD DUP2 SWAP1 SSTORE POP PUSH0 PUSH1 0x1 PUSH0 DUP5 DUP2 MSTORE PUSH1 0x20 ADD SWAP1 DUP2 MSTORE PUSH1 0x20 ADD PUSH0 KECCAK256 PUSH0 ADD PUSH0 SWAP1 SLOAD SWAP1 PUSH2 0x100 EXP SWAP1 DIV PUSH20 0xFFFFFFFFFFFFFFFFFFFFFFFFFFFFFFFFFFFFFFFF AND SWAP1 POP PUSH0 PUSH1 0x1 PUSH0 DUP6 DUP2 MSTORE PUSH1 0x20 ADD SWAP1 DUP2 MSTORE PUSH1 0x20 ADD PUSH0 KECCAK256 PUSH1 0x1 ADD SLOAD SWAP1 POP PUSH1 0x2 PUSH0 DUP4 PUSH20 0xFFFFFFFFFFFFFFFFFFFFFFFFFFFFFFFFFFFFFFFF AND PUSH20 0xFFFFFFFFFFFFFFFFFFFFFFFFFFFFFFFFFFFFFFFF AND DUP2 MSTORE PUSH1 0x20 ADD SWAP1 DUP2 MSTORE PUSH1 0x20 ADD PUSH0 KECCAK256 PUSH0 DUP3 DUP2 MSTORE PUSH1 0x20 ADD SWAP1 DUP2 MSTORE PUSH1 0x20 ADD PUSH0 KECCAK256 PUSH0 SWAP1 SSTORE PUSH0 PUSH1 0x1 PUSH0 DUP7 DUP2 MSTORE PUSH1 0x20 ADD SWAP1 DUP2 MSTORE PUSH1 0x20 ADD PUSH0 KECCAK256 PUSH1 0x2 ADD PUSH0 SWAP1 SLOAD SWAP1 PUSH2 0x100 EXP SWAP1 DIV PUSH20 0xFFFFFFFFFFFFFFFFFFFFFFFFFFFFFFFFFFFFFFFF AND SWAP1 POP PUSH0 PUSH2 0xE36 DUP6 PUSH2 0x1D47 JUMP JUMPDEST SWAP1 POP DUP1 PUSH1 0x4 PUSH0 DUP3 DUP3 SLOAD PUSH2 0xE49 SWAP2 SWAP1 PUSH2 0x2936 JUMP JUMPDEST SWAP3 POP POP DUP2 SWAP1 SSTORE POP DUP1 DUP6 PUSH2 0xE5C SWAP2 SWAP1 PUSH2 0x25AD JUMP JUMPDEST PUSH1 0x3 PUSH0 DUP5 PUSH20 0xFFFFFFFFFFFFFFFFFFFFFFFFFFFFFFFFFFFFFFFF AND PUSH20 0xFFFFFFFFFFFFFFFFFFFFFFFFFFFFFFFFFFFFFFFF AND DUP2 MSTORE PUSH1 0x20 ADD SWAP1 DUP2 MSTORE PUSH1 0x20 ADD PUSH0 KECCAK256 PUSH0 DUP3 DUP3 SLOAD PUSH2 0xEA7 SWAP2 SWAP1 PUSH2 0x2936 JUMP JUMPDEST SWAP3 POP POP DUP2 SWAP1 SSTORE POP PUSH1 0x1 PUSH0 DUP8 DUP2 MSTORE PUSH1 0x20 ADD SWAP1 DUP2 MSTORE PUSH1 0x20 ADD PUSH0 KECCAK256 PUSH0 ADD PUSH0 SWAP1 SLOAD SWAP1 PUSH2 0x100 EXP SWAP1 DIV PUSH20 0xFFFFFFFFFFFFFFFFFFFFFFFFFFFFFFFFFFFFFFFF AND PUSH20 0xFFFFFFFFFFFFFFFFFFFFFFFFFFFFFFFFFFFFFFFF AND PUSH4 0x42842E0E ADDRESS CALLER DUP7 PUSH1 0x40 MLOAD DUP5 PUSH4 0xFFFFFFFF AND PUSH1 0xE0 SHL DUP2 MSTORE PUSH1 0x4 ADD PUSH2 0xF1D SWAP4 SWAP3 SWAP2 SWAP1 PUSH2 0x2969 JUMP JUMPDEST PUSH0 PUSH1 0x40 MLOAD DUP1 DUP4 SUB DUP2 PUSH0 DUP8 DUP1 EXTCODESIZE ISZERO DUP1 ISZERO PUSH2 0xF34 JUMPI PUSH0 DUP1 REVERT JUMPDEST POP GAS CALL ISZERO DUP1 ISZERO PUSH2 0xF46 JUMPI RETURNDATASIZE PUSH0 DUP1 RETURNDATACOPY RETURNDATASIZE PUSH0 REVERT JUMPDEST POP POP POP POP DUP5 CALLVALUE GT ISZERO PUSH2 0xFA2 JUMPI CALLER PUSH20 0xFFFFFFFFFFFFFFFFFFFFFFFFFFFFFFFFFFFFFFFF AND PUSH2 0x8FC DUP7 CALLVALUE PUSH2 0xF78 SWAP2 SWAP1 PUSH2 0x25AD JUMP JUMPDEST SWAP1 DUP2 ISZERO MUL SWAP1 PUSH1 0x40 MLOAD PUSH0 PUSH1 0x40 MLOAD DUP1 DUP4 SUB DUP2 DUP6 DUP9 DUP9 CALL SWAP4 POP POP POP POP ISZERO DUP1 ISZERO PUSH2 0xFA0 JUMPI RETURNDATASIZE PUSH0 DUP1 RETURNDATACOPY RETURNDATASIZE PUSH0 REVERT JUMPDEST POP JUMPDEST POP POP POP POP POP POP JUMP JUMPDEST PUSH0 SLOAD DUP2 JUMP JUMPDEST PUSH0 DUP1 PUSH1 0x2 PUSH0 DUP6 PUSH20 0xFFFFFFFFFFFFFFFFFFFFFFFFFFFFFFFFFFFFFFFF AND PUSH20 0xFFFFFFFFFFFFFFFFFFFFFFFFFFFFFFFFFFFFFFFF AND DUP2 MSTORE PUSH1 0x20 ADD SWAP1 DUP2 MSTORE PUSH1 0x20 ADD PUSH0 KECCAK256 PUSH0 DUP5 DUP2 MSTORE PUSH1 0x20 ADD SWAP1 DUP2 MSTORE PUSH1 0x20 ADD PUSH0 KECCAK256 SLOAD EQ PUSH2 0x1057 JUMPI PUSH1 0x2 PUSH0 DUP5 PUSH20 0xFFFFFFFFFFFFFFFFFFFFFFFFFFFFFFFFFFFFFFFF AND PUSH20 0xFFFFFFFFFFFFFFFFFFFFFFFFFFFFFFFFFFFFFFFF AND DUP2 MSTORE PUSH1 0x20 ADD SWAP1 DUP2 MSTORE PUSH1 0x20 ADD PUSH0 KECCAK256 PUSH0 DUP4 DUP2 MSTORE PUSH1 0x20 ADD SWAP1 DUP2 MSTORE PUSH1 0x20 ADD PUSH0 KECCAK256 SLOAD SWAP1 POP PUSH2 0x1064 JUMP JUMPDEST PUSH2 0x1061 DUP4 DUP4 PUSH2 0x662 JUMP JUMPDEST SWAP1 POP JUMPDEST SWAP3 SWAP2 POP POP JUMP JUMPDEST PUSH0 PUSH2 0x1074 DUP3 PUSH2 0x1CA1 JUMP JUMPDEST PUSH2 0x107D DUP3 PUSH2 0x19AB JUMP JUMPDEST PUSH0 PUSH1 0x1 PUSH0 DUP5 DUP2 MSTORE PUSH1 0x20 ADD SWAP1 DUP2 MSTORE PUSH1 0x20 ADD PUSH0 KECCAK256 PUSH1 0x3 ADD SLOAD SWAP1 POP PUSH0 PUSH1 0x1 PUSH0 DUP6 DUP2 MSTORE PUSH1 0x20 ADD SWAP1 DUP2 MSTORE PUSH1 0x20 ADD PUSH0 KECCAK256 PUSH1 0x4 ADD SLOAD SWAP1 POP PUSH0 PUSH1 0x1 PUSH0 DUP7 DUP2 MSTORE PUSH1 0x20 ADD SWAP1 DUP2 MSTORE PUSH1 0x20 ADD PUSH0 KECCAK256 PUSH1 0x5 ADD SLOAD SWAP1 POP PUSH0 PUSH1 0x1 PUSH0 DUP8 DUP2 MSTORE PUSH1 0x20 ADD SWAP1 DUP2 MSTORE PUSH1 0x20 ADD PUSH0 KECCAK256 PUSH1 0x6 ADD SLOAD SWAP1 POP PUSH0 PUSH1 0x1 PUSH0 DUP9 DUP2 MSTORE PUSH1 0x20 ADD SWAP1 DUP2 MSTORE PUSH1 0x20 ADD PUSH0 KECCAK256 PUSH1 0x7 ADD SLOAD SWAP1 POP PUSH0 PUSH1 0x1 PUSH0 DUP10 DUP2 MSTORE PUSH1 0x20 ADD SWAP1 DUP2 MSTORE PUSH1 0x20 ADD PUSH0 KECCAK256 PUSH1 0x8 ADD SLOAD SWAP1 POP PUSH0 DUP5 TIMESTAMP GT PUSH2 0x111D JUMPI DUP7 SWAP1 POP PUSH2 0x116D JUMP JUMPDEST DUP4 DUP6 PUSH2 0x1129 SWAP2 SWAP1 PUSH2 0x2936 JUMP JUMPDEST TIMESTAMP LT PUSH2 0x1137 JUMPI DUP6 SWAP1 POP PUSH2 0x116C JUMP JUMPDEST PUSH0 DUP4 DUP7 TIMESTAMP PUSH2 0x1145 SWAP2 SWAP1 PUSH2 0x25AD JUMP JUMPDEST PUSH2 0x114F SWAP2 SWAP1 PUSH2 0x257D JUMP JUMPDEST SWAP1 POP DUP1 DUP4 PUSH2 0x115D SWAP2 SWAP1 PUSH2 0x299E JUMP JUMPDEST DUP9 PUSH2 0x1168 SWAP2 SWAP1 PUSH2 0x25AD JUMP JUMPDEST SWAP2 POP POP JUMPDEST JUMPDEST DUP1 SWAP8 POP POP POP POP POP POP POP POP SWAP2 SWAP1 POP JUMP JUMPDEST PUSH1 0x5 SLOAD DUP2 JUMP JUMPDEST PUSH2 0x118B DUP4 PUSH2 0x1A46 JUMP JUMPDEST PUSH2 0x1195 DUP4 DUP4 PUSH2 0x1A9E JUMP JUMPDEST PUSH0 PUSH1 0x2 PUSH0 DUP6 PUSH20 0xFFFFFFFFFFFFFFFFFFFFFFFFFFFFFFFFFFFFFFFF AND PUSH20 0xFFFFFFFFFFFFFFFFFFFFFFFFFFFFFFFFFFFFFFFF AND DUP2 MSTORE PUSH1 0x20 ADD SWAP1 DUP2 MSTORE PUSH1 0x20 ADD PUSH0 KECCAK256 PUSH0 DUP5 DUP2 MSTORE PUSH1 0x20 ADD SWAP1 DUP2 MSTORE PUSH1 0x20 ADD PUSH0 KECCAK256 SLOAD SWAP1 POP PUSH0 DUP2 EQ PUSH2 0x12F6 JUMPI PUSH2 0x11F5 DUP2 PUSH2 0x19AB JUMP JUMPDEST PUSH1 0x1 PUSH0 DUP3 DUP2 MSTORE PUSH1 0x20 ADD SWAP1 DUP2 MSTORE PUSH1 0x20 ADD PUSH0 KECCAK256 PUSH1 0x6 ADD SLOAD PUSH1 0x1 PUSH0 DUP4 DUP2 MSTORE PUSH1 0x20 ADD SWAP1 DUP2 MSTORE PUSH1 0x20 ADD PUSH0 KECCAK256 PUSH1 0x5 ADD SLOAD PUSH2 0x1229 SWAP2 SWAP1 PUSH2 0x2936 JUMP JUMPDEST TIMESTAMP GT ISZERO PUSH2 0x12BA JUMPI PUSH1 0x1 PUSH0 DUP3 DUP2 MSTORE PUSH1 0x20 ADD SWAP1 DUP2 MSTORE PUSH1 0x20 ADD PUSH0 KECCAK256 PUSH1 0x2 ADD PUSH0 PUSH2 0x100 EXP DUP2 SLOAD SWAP1 PUSH20 0xFFFFFFFFFFFFFFFFFFFFFFFFFFFFFFFFFFFFFFFF MUL NOT AND SWAP1 SSTORE PUSH1 0x2 PUSH0 DUP6 PUSH20 0xFFFFFFFFFFFFFFFFFFFFFFFFFFFFFFFFFFFFFFFF AND PUSH20 0xFFFFFFFFFFFFFFFFFFFFFFFFFFFFFFFFFFFFFFFF AND DUP2 MSTORE PUSH1 0x20 ADD SWAP1 DUP2 MSTORE PUSH1 0x20 ADD PUSH0 KECCAK256 PUSH0 DUP5 DUP2 MSTORE PUSH1 0x20 ADD SWAP1 DUP2 MSTORE PUSH1 0x20 ADD PUSH0 KECCAK256 PUSH0 SWAP1 SSTORE PUSH2 0x12F5 JUMP JUMPDEST PUSH1 0x40 MLOAD PUSH32 0x8C379A000000000000000000000000000000000000000000000000000000000 DUP2 MSTORE PUSH1 0x4 ADD PUSH2 0x12EC SWAP1 PUSH2 0x2A29 JUMP JUMPDEST PUSH1 0x40 MLOAD DUP1 SWAP2 SUB SWAP1 REVERT JUMPDEST JUMPDEST DUP4 PUSH20 0xFFFFFFFFFFFFFFFFFFFFFFFFFFFFFFFFFFFFFFFF AND PUSH4 0x42842E0E ADDRESS DUP5 DUP7 PUSH1 0x40 MLOAD DUP5 PUSH4 0xFFFFFFFF AND PUSH1 0xE0 SHL DUP2 MSTORE PUSH1 0x4 ADD PUSH2 0x1333 SWAP4 SWAP3 SWAP2 SWAP1 PUSH2 0x2969 JUMP JUMPDEST PUSH0 PUSH1 0x40 MLOAD DUP1 DUP4 SUB DUP2 PUSH0 DUP8 DUP1 EXTCODESIZE ISZERO DUP1 ISZERO PUSH2 0x134A JUMPI PUSH0 DUP1 REVERT JUMPDEST POP GAS CALL ISZERO DUP1 ISZERO PUSH2 0x135C JUMPI RETURNDATASIZE PUSH0 DUP1 RETURNDATACOPY RETURNDATASIZE PUSH0 REVERT JUMPDEST POP POP POP POP POP POP POP POP JUMP JUMPDEST PUSH1 0x2 PUSH1 0x20 MSTORE DUP2 PUSH0 MSTORE PUSH1 0x40 PUSH0 KECCAK256 PUSH1 0x20 MSTORE DUP1 PUSH0 MSTORE PUSH1 0x40 PUSH0 KECCAK256 PUSH0 SWAP2 POP SWAP2 POP POP SLOAD DUP2 JUMP JUMPDEST PUSH1 0x7 PUSH0 SWAP1 SLOAD SWAP1 PUSH2 0x100 EXP SWAP1 DIV PUSH20 0xFFFFFFFFFFFFFFFFFFFFFFFFFFFFFFFFFFFFFFFF AND PUSH20 0xFFFFFFFFFFFFFFFFFFFFFFFFFFFFFFFFFFFFFFFF AND CALLER PUSH20 0xFFFFFFFFFFFFFFFFFFFFFFFFFFFFFFFFFFFFFFFF AND EQ PUSH2 0x1415 JUMPI PUSH1 0x40 MLOAD PUSH32 0x8C379A000000000000000000000000000000000000000000000000000000000 DUP2 MSTORE PUSH1 0x4 ADD PUSH2 0x140C SWAP1 PUSH2 0x26FF JUMP JUMPDEST PUSH1 0x40 MLOAD DUP1 SWAP2 SUB SWAP1 REVERT JUMPDEST PUSH0 PUSH1 0x4 SLOAD SWAP1 POP PUSH0 PUSH1 0x4 DUP2 SWAP1 SSTORE POP PUSH1 0x7 PUSH0 SWAP1 SLOAD SWAP1 PUSH2 0x100 EXP SWAP1 DIV PUSH20 0xFFFFFFFFFFFFFFFFFFFFFFFFFFFFFFFFFFFFFFFF AND PUSH20 0xFFFFFFFFFFFFFFFFFFFFFFFFFFFFFFFFFFFFFFFF AND PUSH2 0x8FC DUP3 SWAP1 DUP2 ISZERO MUL SWAP1 PUSH1 0x40 MLOAD PUSH0 PUSH1 0x40 MLOAD DUP1 DUP4 SUB DUP2 DUP6 DUP9 DUP9 CALL SWAP4 POP POP POP POP ISZERO DUP1 ISZERO PUSH2 0x1486 JUMPI RETURNDATASIZE PUSH0 DUP1 RETURNDATACOPY RETURNDATASIZE PUSH0 REVERT JUMPDEST POP POP JUMP JUMPDEST PUSH1 0x7 PUSH0 SWAP1 SLOAD SWAP1 PUSH2 0x100 EXP SWAP1 DIV PUSH20 0xFFFFFFFFFFFFFFFFFFFFFFFFFFFFFFFFFFFFFFFF AND PUSH20 0xFFFFFFFFFFFFFFFFFFFFFFFFFFFFFFFFFFFFFFFF AND CALLER PUSH20 0xFFFFFFFFFFFFFFFFFFFFFFFFFFFFFFFFFFFFFFFF AND EQ PUSH2 0x1519 JUMPI PUSH1 0x40 MLOAD PUSH32 0x8C379A000000000000000000000000000000000000000000000000000000000 DUP2 MSTORE PUSH1 0x4 ADD PUSH2 0x1510 SWAP1 PUSH2 0x26FF JUMP JUMPDEST PUSH1 0x40 MLOAD DUP1 SWAP2 SUB SWAP1 REVERT JUMPDEST PUSH0 PUSH20 0xFFFFFFFFFFFFFFFFFFFFFFFFFFFFFFFFFFFFFFFF AND DUP2 PUSH20 0xFFFFFFFFFFFFFFFFFFFFFFFFFFFFFFFFFFFFFFFF AND SUB PUSH2 0x1587 JUMPI PUSH1 0x40 MLOAD PUSH32 0x8C379A000000000000000000000000000000000000000000000000000000000 DUP2 MSTORE PUSH1 0x4 ADD PUSH2 0x157E SWAP1 PUSH2 0x2A91 JUMP JUMPDEST PUSH1 0x40 MLOAD DUP1 SWAP2 SUB SWAP1 REVERT JUMPDEST DUP1 PUSH20 0xFFFFFFFFFFFFFFFFFFFFFFFFFFFFFFFFFFFFFFFF AND ADDRESS PUSH20 0xFFFFFFFFFFFFFFFFFFFFFFFFFFFFFFFFFFFFFFFF AND SUB PUSH2 0x15F7 JUMPI DUP1 PUSH1 0x40 MLOAD PUSH32 0xBF16AAB600000000000000000000000000000000000000000000000000000000 DUP2 MSTORE PUSH1 0x4 ADD PUSH2 0x15EE SWAP2 SWAP1 PUSH2 0x23DE JUMP JUMPDEST PUSH1 0x40 MLOAD DUP1 SWAP2 SUB SWAP1 REVERT JUMPDEST PUSH2 0x160B DUP2 PUSH1 0x6 PUSH2 0x1D6A SWAP1 SWAP2 SWAP1 PUSH4 0xFFFFFFFF AND JUMP JUMPDEST ISZERO PUSH2 0x164B JUMPI PUSH1 0x40 MLOAD PUSH32 0x8C379A000000000000000000000000000000000000000000000000000000000 DUP2 MSTORE PUSH1 0x4 ADD PUSH2 0x1642 SWAP1 PUSH2 0x2AF9 JUMP JUMPDEST PUSH1 0x40 MLOAD DUP1 SWAP2 SUB SWAP1 REVERT JUMPDEST DUP1 PUSH20 0xFFFFFFFFFFFFFFFFFFFFFFFFFFFFFFFFFFFFFFFF AND PUSH4 0x1FFC9A7 PUSH32 0x80AC58CD00000000000000000000000000000000000000000000000000000000 PUSH1 0x40 MLOAD DUP3 PUSH4 0xFFFFFFFF AND PUSH1 0xE0 SHL DUP2 MSTORE PUSH1 0x4 ADD PUSH2 0x16A4 SWAP2 SWAP1 PUSH2 0x220C JUMP JUMPDEST PUSH1 0x20 PUSH1 0x40 MLOAD DUP1 DUP4 SUB DUP2 DUP7 GAS STATICCALL ISZERO DUP1 ISZERO PUSH2 0x16BF JUMPI RETURNDATASIZE PUSH0 DUP1 RETURNDATACOPY RETURNDATASIZE PUSH0 REVERT JUMPDEST POP POP POP POP PUSH1 0x40 MLOAD RETURNDATASIZE PUSH1 0x1F NOT PUSH1 0x1F DUP3 ADD AND DUP3 ADD DUP1 PUSH1 0x40 MSTORE POP DUP2 ADD SWAP1 PUSH2 0x16E3 SWAP2 SWAP1 PUSH2 0x2B4C JUMP JUMPDEST PUSH2 0x1722 JUMPI PUSH1 0x40 MLOAD PUSH32 0x8C379A000000000000000000000000000000000000000000000000000000000 DUP2 MSTORE PUSH1 0x4 ADD PUSH2 0x1719 SWAP1 PUSH2 0x2BC1 JUMP JUMPDEST PUSH1 0x40 MLOAD DUP1 SWAP2 SUB SWAP1 REVERT JUMPDEST PUSH2 0x1736 DUP2 PUSH1 0x6 PUSH2 0x1D87 SWAP1 SWAP2 SWAP1 PUSH4 0xFFFFFFFF AND JUMP JUMPDEST DUP1 PUSH20 0xFFFFFFFFFFFFFFFFFFFFFFFFFFFFFFFFFFFFFFFF AND PUSH32 0x37FB5467CDF7DCB833B3C07D10482C6019526966533FC80293B05CD19EA55A68 PUSH1 0x40 MLOAD PUSH1 0x40 MLOAD DUP1 SWAP2 SUB SWAP1 LOG2 POP JUMP JUMPDEST PUSH1 0x1 PUSH1 0x20 MSTORE DUP1 PUSH0 MSTORE PUSH1 0x40 PUSH0 KECCAK256 PUSH0 SWAP2 POP SWAP1 POP DUP1 PUSH0 ADD PUSH0 SWAP1 SLOAD SWAP1 PUSH2 0x100 EXP SWAP1 DIV PUSH20 0xFFFFFFFFFFFFFFFFFFFFFFFFFFFFFFFFFFFFFFFF AND SWAP1 DUP1 PUSH1 0x1 ADD SLOAD SWAP1 DUP1 PUSH1 0x2 ADD PUSH0 SWAP1 SLOAD SWAP1 PUSH2 0x100 EXP SWAP1 DIV PUSH20 0xFFFFFFFFFFFFFFFFFFFFFFFFFFFFFFFFFFFFFFFF AND SWAP1 DUP1 PUSH1 0x3 ADD SLOAD SWAP1 DUP1 PUSH1 0x4 ADD SLOAD SWAP1 DUP1 PUSH1 0x5 ADD SLOAD SWAP1 DUP1 PUSH1 0x6 ADD SLOAD SWAP1 DUP1 PUSH1 0x7 ADD SLOAD SWAP1 DUP1 PUSH1 0x8 ADD SLOAD SWAP1 DUP1 PUSH1 0x9 ADD PUSH0 SWAP1 SLOAD SWAP1 PUSH2 0x100 EXP SWAP1 DIV PUSH20 0xFFFFFFFFFFFFFFFFFFFFFFFFFFFFFFFFFFFFFFFF AND SWAP1 DUP1 PUSH1 0xA ADD SLOAD SWAP1 POP DUP12 JUMP JUMPDEST PUSH1 0x7 PUSH0 SWAP1 SLOAD SWAP1 PUSH2 0x100 EXP SWAP1 DIV PUSH20 0xFFFFFFFFFFFFFFFFFFFFFFFFFFFFFFFFFFFFFFFF AND PUSH20 0xFFFFFFFFFFFFFFFFFFFFFFFFFFFFFFFFFFFFFFFF AND CALLER PUSH20 0xFFFFFFFFFFFFFFFFFFFFFFFFFFFFFFFFFFFFFFFF AND EQ PUSH2 0x18BE JUMPI PUSH1 0x40 MLOAD PUSH32 0x8C379A000000000000000000000000000000000000000000000000000000000 DUP2 MSTORE PUSH1 0x4 ADD PUSH2 0x18B5 SWAP1 PUSH2 0x26FF JUMP JUMPDEST PUSH1 0x40 MLOAD DUP1 SWAP2 SUB SWAP1 REVERT JUMPDEST PUSH0 PUSH20 0xFFFFFFFFFFFFFFFFFFFFFFFFFFFFFFFFFFFFFFFF AND DUP2 PUSH20 0xFFFFFFFFFFFFFFFFFFFFFFFFFFFFFFFFFFFFFFFF AND SUB PUSH2 0x192C JUMPI PUSH1 0x40 MLOAD PUSH32 0x8C379A000000000000000000000000000000000000000000000000000000000 DUP2 MSTORE PUSH1 0x4 ADD PUSH2 0x1923 SWAP1 PUSH2 0x2C29 JUMP JUMPDEST PUSH1 0x40 MLOAD DUP1 SWAP2 SUB SWAP1 REVERT JUMPDEST PUSH2 0x1940 DUP2 PUSH1 0x6 PUSH2 0x1D9F SWAP1 SWAP2 SWAP1 PUSH4 0xFFFFFFFF AND JUMP JUMPDEST DUP1 PUSH20 0xFFFFFFFFFFFFFFFFFFFFFFFFFFFFFFFFFFFFFFFF AND PUSH32 0x13D42F38AA17FE3792989C026A1B89B975EE252624A7D09716C1C7D5535FE945 PUSH1 0x40 MLOAD PUSH1 0x40 MLOAD DUP1 SWAP2 SUB SWAP1 LOG2 POP JUMP JUMPDEST PUSH1 0x7 PUSH0 SWAP1 SLOAD SWAP1 PUSH2 0x100 EXP SWAP1 DIV PUSH20 0xFFFFFFFFFFFFFFFFFFFFFFFFFFFFFFFFFFFFFFFF AND DUP2 JUMP JUMPDEST PUSH0 PUSH20 0xFFFFFFFFFFFFFFFFFFFFFFFFFFFFFFFFFFFFFFFF AND PUSH1 0x1 PUSH0 DUP4 DUP2 MSTORE PUSH1 0x20 ADD SWAP1 DUP2 MSTORE PUSH1 0x20 ADD PUSH0 KECCAK256 PUSH1 0x9 ADD PUSH0 SWAP1 SLOAD SWAP1 PUSH2 0x100 EXP SWAP1 DIV PUSH20 0xFFFFFFFFFFFFFFFFFFFFFFFFFFFFFFFFFFFFFFFF AND PUSH20 0xFFFFFFFFFFFFFFFFFFFFFFFFFFFFFFFFFFFFFFFF AND EQ PUSH2 0x1A43 JUMPI PUSH1 0x40 MLOAD PUSH32 0xA7DAD6AC00000000000000000000000000000000000000000000000000000000 DUP2 MSTORE PUSH1 0x4 ADD PUSH1 0x40 MLOAD DUP1 SWAP2 SUB SWAP1 REVERT JUMPDEST POP JUMP JUMPDEST PUSH2 0x1A5A DUP2 PUSH1 0x6 PUSH2 0x1D6A SWAP1 SWAP2 SWAP1 PUSH4 0xFFFFFFFF AND JUMP JUMPDEST PUSH2 0x1A9B JUMPI DUP1 PUSH1 0x40 MLOAD PUSH32 0xBF16AAB600000000000000000000000000000000000000000000000000000000 DUP2 MSTORE PUSH1 0x4 ADD PUSH2 0x1A92 SWAP2 SWAP1 PUSH2 0x23DE JUMP JUMPDEST PUSH1 0x40 MLOAD DUP1 SWAP2 SUB SWAP1 REVERT JUMPDEST POP JUMP JUMPDEST ADDRESS PUSH20 0xFFFFFFFFFFFFFFFFFFFFFFFFFFFFFFFFFFFFFFFF AND DUP3 PUSH20 0xFFFFFFFFFFFFFFFFFFFFFFFFFFFFFFFFFFFFFFFF AND PUSH4 0x6352211E DUP4 PUSH1 0x40 MLOAD DUP3 PUSH4 0xFFFFFFFF AND PUSH1 0xE0 SHL DUP2 MSTORE PUSH1 0x4 ADD PUSH2 0x1AEE SWAP2 SWAP1 PUSH2 0x1FFD JUMP JUMPDEST PUSH1 0x20 PUSH1 0x40 MLOAD DUP1 DUP4 SUB DUP2 DUP7 GAS STATICCALL ISZERO DUP1 ISZERO PUSH2 0x1B09 JUMPI RETURNDATASIZE PUSH0 DUP1 RETURNDATACOPY RETURNDATASIZE PUSH0 REVERT JUMPDEST POP POP POP POP PUSH1 0x40 MLOAD RETURNDATASIZE PUSH1 0x1F NOT PUSH1 0x1F DUP3 ADD AND DUP3 ADD DUP1 PUSH1 0x40 MSTORE POP DUP2 ADD SWAP1 PUSH2 0x1B2D SWAP2 SWAP1 PUSH2 0x2C5B JUMP JUMPDEST PUSH20 0xFFFFFFFFFFFFFFFFFFFFFFFFFFFFFFFFFFFFFFFF AND EQ PUSH2 0x1B87 JUMPI DUP2 DUP2 PUSH1 0x40 MLOAD PUSH32 0xEF9B3C4D00000000000000000000000000000000000000000000000000000000 DUP2 MSTORE PUSH1 0x4 ADD PUSH2 0x1B7E SWAP3 SWAP2 SWAP1 PUSH2 0x27C6 JUMP JUMPDEST PUSH1 0x40 MLOAD DUP1 SWAP2 SUB SWAP1 REVERT JUMPDEST POP POP JUMP JUMPDEST DUP4 PUSH1 0x1 PUSH0 DUP1 SLOAD DUP2 MSTORE PUSH1 0x20 ADD SWAP1 DUP2 MSTORE PUSH1 0x20 ADD PUSH0 KECCAK256 PUSH0 ADD PUSH0 PUSH2 0x100 EXP DUP2 SLOAD DUP2 PUSH20 0xFFFFFFFFFFFFFFFFFFFFFFFFFFFFFFFFFFFFFFFF MUL NOT AND SWAP1 DUP4 PUSH20 0xFFFFFFFFFFFFFFFFFFFFFFFFFFFFFFFFFFFFFFFF AND MUL OR SWAP1 SSTORE POP DUP3 PUSH1 0x1 PUSH0 DUP1 SLOAD DUP2 MSTORE PUSH1 0x20 ADD SWAP1 DUP2 MSTORE PUSH1 0x20 ADD PUSH0 KECCAK256 PUSH1 0x1 ADD DUP2 SWAP1 SSTORE POP DUP2 PUSH1 0x1 PUSH0 DUP1 SLOAD DUP2 MSTORE PUSH1 0x20 ADD SWAP1 DUP2 MSTORE PUSH1 0x20 ADD PUSH0 KECCAK256 PUSH1 0x2 ADD PUSH0 PUSH2 0x100 EXP DUP2 SLOAD DUP2 PUSH20 0xFFFFFFFFFFFFFFFFFFFFFFFFFFFFFFFFFFFFFFFF MUL NOT AND SWAP1 DUP4 PUSH20 0xFFFFFFFFFFFFFFFFFFFFFFFFFFFFFFFFFFFFFFFF AND MUL OR SWAP1 SSTORE POP DUP1 PUSH1 0x2 PUSH0 DUP7 PUSH20 0xFFFFFFFFFFFFFFFFFFFFFFFFFFFFFFFFFFFFFFFF AND PUSH20 0xFFFFFFFFFFFFFFFFFFFFFFFFFFFFFFFFFFFFFFFF AND DUP2 MSTORE PUSH1 0x20 ADD SWAP1 DUP2 MSTORE PUSH1 0x20 ADD PUSH0 KECCAK256 PUSH0 DUP6 DUP2 MSTORE PUSH1 0x20 ADD SWAP1 DUP2 MSTORE PUSH1 0x20 ADD PUSH0 KECCAK256 DUP2 SWAP1 SSTORE POP POP POP POP POP JUMP JUMPDEST PUSH0 PUSH20 0xFFFFFFFFFFFFFFFFFFFFFFFFFFFFFFFFFFFFFFFF AND PUSH1 0x1 PUSH0 DUP4 DUP2 MSTORE PUSH1 0x20 ADD SWAP1 DUP2 MSTORE PUSH1 0x20 ADD PUSH0 KECCAK256 PUSH1 0x2 ADD PUSH0 SWAP1 SLOAD SWAP1 PUSH2 0x100 EXP SWAP1 DIV PUSH20 0xFFFFFFFFFFFFFFFFFFFFFFFFFFFFFFFFFFFFFFFF AND PUSH20 0xFFFFFFFFFFFFFFFFFFFFFFFFFFFFFFFFFFFFFFFF AND SUB PUSH2 0x1D44 JUMPI DUP1 PUSH1 0x40 MLOAD PUSH32 0x1D60399900000000000000000000000000000000000000000000000000000000 DUP2 MSTORE PUSH1 0x4 ADD PUSH2 0x1D3B SWAP2 SWAP1 PUSH2 0x1FFD JUMP JUMPDEST PUSH1 0x40 MLOAD DUP1 SWAP2 SUB SWAP1 REVERT JUMPDEST POP JUMP JUMPDEST PUSH0 PUSH2 0x2710 PUSH1 0x5 SLOAD DUP4 PUSH2 0x1D59 SWAP2 SWAP1 PUSH2 0x299E JUMP JUMPDEST PUSH2 0x1D63 SWAP2 SWAP1 PUSH2 0x257D JUMP JUMPDEST SWAP1 POP SWAP2 SWAP1 POP JUMP JUMPDEST PUSH0 PUSH2 0x1D7F DUP4 PUSH0 ADD PUSH2 0x1D7A DUP5 PUSH2 0x1DB7 JUMP JUMPDEST PUSH2 0x1DD6 JUMP JUMPDEST SWAP1 POP SWAP3 SWAP2 POP POP JUMP JUMPDEST PUSH2 0x1D9B DUP3 PUSH0 ADD PUSH2 0x1D96 DUP4 PUSH2 0x1DB7 JUMP JUMPDEST PUSH2 0x1E08 JUMP JUMPDEST POP POP JUMP JUMPDEST PUSH2 0x1DB3 DUP3 PUSH0 ADD PUSH2 0x1DAE DUP4 PUSH2 0x1DB7 JUMP JUMPDEST PUSH2 0x1E3C JUMP JUMPDEST POP POP JUMP JUMPDEST PUSH0 DUP2 PUSH20 0xFFFFFFFFFFFFFFFFFFFFFFFFFFFFFFFFFFFFFFFF AND SWAP1 POP SWAP2 SWAP1 POP JUMP JUMPDEST PUSH0 DUP1 PUSH0 PUSH2 0x1DE2 DUP5 PUSH2 0x1E71 JUMP JUMPDEST SWAP2 POP SWAP2 POP PUSH0 DUP2 DUP7 PUSH0 ADD PUSH0 DUP6 DUP2 MSTORE PUSH1 0x20 ADD SWAP1 DUP2 MSTORE PUSH1 0x20 ADD PUSH0 KECCAK256 SLOAD AND EQ ISZERO SWAP3 POP POP POP SWAP3 SWAP2 POP POP JUMP JUMPDEST PUSH0 DUP1 PUSH2 0x1E13 DUP4 PUSH2 0x1E71 JUMP JUMPDEST SWAP2 POP SWAP2 POP DUP1 DUP5 PUSH0 ADD PUSH0 DUP5 DUP2 MSTORE PUSH1 0x20 ADD SWAP1 DUP2 MSTORE PUSH1 0x20 ADD PUSH0 KECCAK256 PUSH0 DUP3 DUP3 SLOAD OR SWAP3 POP POP DUP2 SWAP1 SSTORE POP POP POP POP POP JUMP JUMPDEST PUSH0 DUP1 PUSH2 0x1E47 DUP4 PUSH2 0x1E71 JUMP JUMPDEST SWAP2 POP SWAP2 POP DUP1 NOT DUP5 PUSH0 ADD PUSH0 DUP5 DUP2 MSTORE PUSH1 0x20 ADD SWAP1 DUP2 MSTORE PUSH1 0x20 ADD PUSH0 KECCAK256 PUSH0 DUP3 DUP3 SLOAD AND SWAP3 POP POP DUP2 SWAP1 SSTORE POP POP POP POP POP JUMP JUMPDEST PUSH0 DUP1 PUSH1 0x8 DUP4 SWAP1 SHR SWAP2 POP PUSH1 0xFF DUP4 AND PUSH1 0x1 SWAP1 SHL SWAP1 POP SWAP2 POP SWAP2 JUMP JUMPDEST PUSH0 PUSH1 0x40 MLOAD SWAP1 POP SWAP1 JUMP JUMPDEST PUSH0 DUP1 REVERT JUMPDEST PUSH0 DUP1 REVERT JUMPDEST PUSH0 DUP2 SWAP1 POP SWAP2 SWAP1 POP JUMP JUMPDEST PUSH2 0x1EAC DUP2 PUSH2 0x1E9A JUMP JUMPDEST DUP2 EQ PUSH2 0x1EB6 JUMPI PUSH0 DUP1 REVERT JUMPDEST POP JUMP JUMPDEST PUSH0 DUP2 CALLDATALOAD SWAP1 POP PUSH2 0x1EC7 DUP2 PUSH2 0x1EA3 JUMP JUMPDEST SWAP3 SWAP2 POP POP JUMP JUMPDEST PUSH0 DUP1 PUSH0 DUP1 PUSH0 DUP1 PUSH1 0xC0 DUP8 DUP10 SUB SLT ISZERO PUSH2 0x1EE7 JUMPI PUSH2 0x1EE6 PUSH2 0x1E92 JUMP JUMPDEST JUMPDEST PUSH0 PUSH2 0x1EF4 DUP10 DUP3 DUP11 ADD PUSH2 0x1EB9 JUMP JUMPDEST SWAP7 POP POP PUSH1 0x20 PUSH2 0x1F05 DUP10 DUP3 DUP11 ADD PUSH2 0x1EB9 JUMP JUMPDEST SWAP6 POP POP PUSH1 0x40 PUSH2 0x1F16 DUP10 DUP3 DUP11 ADD PUSH2 0x1EB9 JUMP JUMPDEST SWAP5 POP POP PUSH1 0x60 PUSH2 0x1F27 DUP10 DUP3 DUP11 ADD PUSH2 0x1EB9 JUMP JUMPDEST SWAP4 POP POP PUSH1 0x80 PUSH2 0x1F38 DUP10 DUP3 DUP11 ADD PUSH2 0x1EB9 JUMP JUMPDEST SWAP3 POP POP PUSH1 0xA0 PUSH2 0x1F49 DUP10 DUP3 DUP11 ADD PUSH2 0x1EB9 JUMP JUMPDEST SWAP2 POP POP SWAP3 SWAP6 POP SWAP3 SWAP6 POP SWAP3 SWAP6 JUMP JUMPDEST PUSH0 PUSH20 0xFFFFFFFFFFFFFFFFFFFFFFFFFFFFFFFFFFFFFFFF DUP3 AND SWAP1 POP SWAP2 SWAP1 POP JUMP JUMPDEST PUSH0 PUSH2 0x1F7F DUP3 PUSH2 0x1F56 JUMP JUMPDEST SWAP1 POP SWAP2 SWAP1 POP JUMP JUMPDEST PUSH2 0x1F8F DUP2 PUSH2 0x1F75 JUMP JUMPDEST DUP2 EQ PUSH2 0x1F99 JUMPI PUSH0 DUP1 REVERT JUMPDEST POP JUMP JUMPDEST PUSH0 DUP2 CALLDATALOAD SWAP1 POP PUSH2 0x1FAA DUP2 PUSH2 0x1F86 JUMP JUMPDEST SWAP3 SWAP2 POP POP JUMP JUMPDEST PUSH0 DUP1 PUSH1 0x40 DUP4 DUP6 SUB SLT ISZERO PUSH2 0x1FC6 JUMPI PUSH2 0x1FC5 PUSH2 0x1E92 JUMP JUMPDEST JUMPDEST PUSH0 PUSH2 0x1FD3 DUP6 DUP3 DUP7 ADD PUSH2 0x1F9C JUMP JUMPDEST SWAP3 POP POP PUSH1 0x20 PUSH2 0x1FE4 DUP6 DUP3 DUP7 ADD PUSH2 0x1EB9 JUMP JUMPDEST SWAP2 POP POP SWAP3 POP SWAP3 SWAP1 POP JUMP JUMPDEST PUSH2 0x1FF7 DUP2 PUSH2 0x1E9A JUMP JUMPDEST DUP3 MSTORE POP POP JUMP JUMPDEST PUSH0 PUSH1 0x20 DUP3 ADD SWAP1 POP PUSH2 0x2010 PUSH0 DUP4 ADD DUP5 PUSH2 0x1FEE JUMP JUMPDEST SWAP3 SWAP2 POP POP JUMP JUMPDEST PUSH0 DUP1 REVERT JUMPDEST PUSH0 DUP1 REVERT JUMPDEST PUSH0 PUSH1 0x1F NOT PUSH1 0x1F DUP4 ADD AND SWAP1 POP SWAP2 SWAP1 POP JUMP JUMPDEST PUSH32 0x4E487B7100000000000000000000000000000000000000000000000000000000 PUSH0 MSTORE PUSH1 0x41 PUSH1 0x4 MSTORE PUSH1 0x24 PUSH0 REVERT JUMPDEST PUSH2 0x2064 DUP3 PUSH2 0x201E JUMP JUMPDEST DUP2 ADD DUP2 DUP2 LT PUSH8 0xFFFFFFFFFFFFFFFF DUP3 GT OR ISZERO PUSH2 0x2083 JUMPI PUSH2 0x2082 PUSH2 0x202E JUMP JUMPDEST JUMPDEST DUP1 PUSH1 0x40 MSTORE POP POP POP JUMP JUMPDEST PUSH0 PUSH2 0x2095 PUSH2 0x1E89 JUMP JUMPDEST SWAP1 POP PUSH2 0x20A1 DUP3 DUP3 PUSH2 0x205B JUMP JUMPDEST SWAP2 SWAP1 POP JUMP JUMPDEST PUSH0 PUSH8 0xFFFFFFFFFFFFFFFF DUP3 GT ISZERO PUSH2 0x20C0 JUMPI PUSH2 0x20BF PUSH2 0x202E JUMP JUMPDEST JUMPDEST PUSH2 0x20C9 DUP3 PUSH2 0x201E JUMP JUMPDEST SWAP1 POP PUSH1 0x20 DUP2 ADD SWAP1 POP SWAP2 SWAP1 POP JUMP JUMPDEST DUP3 DUP2 DUP4 CALLDATACOPY PUSH0 DUP4 DUP4 ADD MSTORE POP POP POP JUMP JUMPDEST PUSH0 PUSH2 0x20F6 PUSH2 0x20F1 DUP5 PUSH2 0x20A6 JUMP JUMPDEST PUSH2 0x208C JUMP JUMPDEST SWAP1 POP DUP3 DUP2 MSTORE PUSH1 0x20 DUP2 ADD DUP5 DUP5 DUP5 ADD GT ISZERO PUSH2 0x2112 JUMPI PUSH2 0x2111 PUSH2 0x201A JUMP JUMPDEST JUMPDEST PUSH2 0x211D DUP5 DUP3 DUP6 PUSH2 0x20D6 JUMP JUMPDEST POP SWAP4 SWAP3 POP POP POP JUMP JUMPDEST PUSH0 DUP3 PUSH1 0x1F DUP4 ADD SLT PUSH2 0x2139 JUMPI PUSH2 0x2138 PUSH2 0x2016 JUMP JUMPDEST JUMPDEST DUP2 CALLDATALOAD PUSH2 0x2149 DUP5 DUP3 PUSH1 0x20 DUP7 ADD PUSH2 0x20E4 JUMP JUMPDEST SWAP2 POP POP SWAP3 SWAP2 POP POP JUMP JUMPDEST PUSH0 DUP1 PUSH0 DUP1 PUSH1 0x80 DUP6 DUP8 SUB SLT ISZERO PUSH2 0x216A JUMPI PUSH2 0x2169 PUSH2 0x1E92 JUMP JUMPDEST JUMPDEST PUSH0 PUSH2 0x2177 DUP8 DUP3 DUP9 ADD PUSH2 0x1F9C JUMP JUMPDEST SWAP5 POP POP PUSH1 0x20 PUSH2 0x2188 DUP8 DUP3 DUP9 ADD PUSH2 0x1F9C JUMP JUMPDEST SWAP4 POP POP PUSH1 0x40 PUSH2 0x2199 DUP8 DUP3 DUP9 ADD PUSH2 0x1EB9 JUMP JUMPDEST SWAP3 POP POP PUSH1 0x60 DUP6 ADD CALLDATALOAD PUSH8 0xFFFFFFFFFFFFFFFF DUP2 GT ISZERO PUSH2 0x21BA JUMPI PUSH2 0x21B9 PUSH2 0x1E96 JUMP JUMPDEST JUMPDEST PUSH2 0x21C6 DUP8 DUP3 DUP9 ADD PUSH2 0x2125 JUMP JUMPDEST SWAP2 POP POP SWAP3 SWAP6 SWAP2 SWAP5 POP SWAP3 POP JUMP JUMPDEST PUSH0 PUSH32 0xFFFFFFFF00000000000000000000000000000000000000000000000000000000 DUP3 AND SWAP1 POP SWAP2 SWAP1 POP JUMP JUMPDEST PUSH2 0x2206 DUP2 PUSH2 0x21D2 JUMP JUMPDEST DUP3 MSTORE POP POP JUMP JUMPDEST PUSH0 PUSH1 0x20 DUP3 ADD SWAP1 POP PUSH2 0x221F PUSH0 DUP4 ADD DUP5 PUSH2 0x21FD JUMP JUMPDEST SWAP3 SWAP2 POP POP JUMP JUMPDEST PUSH0 PUSH1 0x20 DUP3 DUP5 SUB SLT ISZERO PUSH2 0x223A JUMPI PUSH2 0x2239 PUSH2 0x1E92 JUMP JUMPDEST JUMPDEST PUSH0 PUSH2 0x2247 DUP5 DUP3 DUP6 ADD PUSH2 0x1EB9 JUMP JUMPDEST SWAP2 POP POP SWAP3 SWAP2 POP POP JUMP JUMPDEST PUSH0 DUP1 PUSH0 PUSH1 0x60 DUP5 DUP7 SUB SLT ISZERO PUSH2 0x2267 JUMPI PUSH2 0x2266 PUSH2 0x1E92 JUMP JUMPDEST JUMPDEST PUSH0 PUSH2 0x2274 DUP7 DUP3 DUP8 ADD PUSH2 0x1F9C JUMP JUMPDEST SWAP4 POP POP PUSH1 0x20 PUSH2 0x2285 DUP7 DUP3 DUP8 ADD PUSH2 0x1EB9 JUMP JUMPDEST SWAP3 POP POP PUSH1 0x40 PUSH2 0x2296 DUP7 DUP3 DUP8 ADD PUSH2 0x1F9C JUMP JUMPDEST SWAP2 POP POP SWAP3 POP SWAP3 POP SWAP3 JUMP JUMPDEST PUSH0 PUSH1 0x20 DUP3 DUP5 SUB SLT ISZERO PUSH2 0x22B5 JUMPI PUSH2 0x22B4 PUSH2 0x1E92 JUMP JUMPDEST JUMPDEST PUSH0 PUSH2 0x22C2 DUP5 DUP3 DUP6 ADD PUSH2 0x1F9C JUMP JUMPDEST SWAP2 POP POP SWAP3 SWAP2 POP POP JUMP JUMPDEST PUSH0 DUP2 SWAP1 POP SWAP2 SWAP1 POP JUMP JUMPDEST PUSH0 PUSH2 0x22EE PUSH2 0x22E9 PUSH2 0x22E4 DUP5 PUSH2 0x1F56 JUMP JUMPDEST PUSH2 0x22CB JUMP JUMPDEST PUSH2 0x1F56 JUMP JUMPDEST SWAP1 POP SWAP2 SWAP1 POP JUMP JUMPDEST PUSH0 PUSH2 0x22FF DUP3 PUSH2 0x22D4 JUMP JUMPDEST SWAP1 POP SWAP2 SWAP1 POP JUMP JUMPDEST PUSH0 PUSH2 0x2310 DUP3 PUSH2 0x22F5 JUMP JUMPDEST SWAP1 POP SWAP2 SWAP1 POP JUMP JUMPDEST PUSH2 0x2320 DUP2 PUSH2 0x2306 JUMP JUMPDEST DUP3 MSTORE POP POP JUMP JUMPDEST PUSH2 0x232F DUP2 PUSH2 0x1F75 JUMP JUMPDEST DUP3 MSTORE POP POP JUMP JUMPDEST PUSH0 PUSH2 0x160 DUP3 ADD SWAP1 POP PUSH2 0x2349 PUSH0 DUP4 ADD DUP15 PUSH2 0x2317 JUMP JUMPDEST PUSH2 0x2356 PUSH1 0x20 DUP4 ADD DUP14 PUSH2 0x1FEE JUMP JUMPDEST PUSH2 0x2363 PUSH1 0x40 DUP4 ADD DUP13 PUSH2 0x2326 JUMP JUMPDEST PUSH2 0x2370 PUSH1 0x60 DUP4 ADD DUP12 PUSH2 0x1FEE JUMP JUMPDEST PUSH2 0x237D PUSH1 0x80 DUP4 ADD DUP11 PUSH2 0x1FEE JUMP JUMPDEST PUSH2 0x238A PUSH1 0xA0 DUP4 ADD DUP10 PUSH2 0x1FEE JUMP JUMPDEST PUSH2 0x2397 PUSH1 0xC0 DUP4 ADD DUP9 PUSH2 0x1FEE JUMP JUMPDEST PUSH2 0x23A4 PUSH1 0xE0 DUP4 ADD DUP8 PUSH2 0x1FEE JUMP JUMPDEST PUSH2 0x23B2 PUSH2 0x100 DUP4 ADD DUP7 PUSH2 0x1FEE JUMP JUMPDEST PUSH2 0x23C0 PUSH2 0x120 DUP4 ADD DUP6 PUSH2 0x2326 JUMP JUMPDEST PUSH2 0x23CE PUSH2 0x140 DUP4 ADD DUP5 PUSH2 0x1FEE JUMP JUMPDEST SWAP13 SWAP12 POP POP POP POP POP POP POP POP POP POP POP POP JUMP JUMPDEST PUSH0 PUSH1 0x20 DUP3 ADD SWAP1 POP PUSH2 0x23F1 PUSH0 DUP4 ADD DUP5 PUSH2 0x2326 JUMP JUMPDEST SWAP3 SWAP2 POP POP JUMP JUMPDEST PUSH0 DUP3 DUP3 MSTORE PUSH1 0x20 DUP3 ADD SWAP1 POP SWAP3 SWAP2 POP POP JUMP JUMPDEST PUSH32 0x656E64207072696365206D757374206E6F742062652067726561746572207468 PUSH0 DUP3 ADD MSTORE PUSH32 0x616E2073746172742070726963652E0000000000000000000000000000000000 PUSH1 0x20 DUP3 ADD MSTORE POP JUMP JUMPDEST PUSH0 PUSH2 0x2461 PUSH1 0x2F DUP4 PUSH2 0x23F7 JUMP JUMPDEST SWAP2 POP PUSH2 0x246C DUP3 PUSH2 0x2407 JUMP JUMPDEST PUSH1 0x40 DUP3 ADD SWAP1 POP SWAP2 SWAP1 POP JUMP JUMPDEST PUSH0 PUSH1 0x20 DUP3 ADD SWAP1 POP DUP2 DUP2 SUB PUSH0 DUP4 ADD MSTORE PUSH2 0x248E DUP2 PUSH2 0x2455 JUMP JUMPDEST SWAP1 POP SWAP2 SWAP1 POP JUMP JUMPDEST PUSH32 0x63616E206E6F74206372656174652061756374696F6E2C20746865206E667420 PUSH0 DUP3 ADD MSTORE PUSH32 0x6E6F742066726F6D20796F757273656C662E0000000000000000000000000000 PUSH1 0x20 DUP3 ADD MSTORE POP JUMP JUMPDEST PUSH0 PUSH2 0x24EF PUSH1 0x32 DUP4 PUSH2 0x23F7 JUMP JUMPDEST SWAP2 POP PUSH2 0x24FA DUP3 PUSH2 0x2495 JUMP JUMPDEST PUSH1 0x40 DUP3 ADD SWAP1 POP SWAP2 SWAP1 POP JUMP JUMPDEST PUSH0 PUSH1 0x20 DUP3 ADD SWAP1 POP DUP2 DUP2 SUB PUSH0 DUP4 ADD MSTORE PUSH2 0x251C DUP2 PUSH2 0x24E3 JUMP JUMPDEST SWAP1 POP SWAP2 SWAP1 POP JUMP JUMPDEST PUSH32 0x4E487B7100000000000000000000000000000000000000000000000000000000 PUSH0 MSTORE PUSH1 0x12 PUSH1 0x4 MSTORE PUSH1 0x24 PUSH0 REVERT JUMPDEST PUSH32 0x4E487B7100000000000000000000000000000000000000000000000000000000 PUSH0 MSTORE PUSH1 0x11 PUSH1 0x4 MSTORE PUSH1 0x24 PUSH0 REVERT JUMPDEST PUSH0 PUSH2 0x2587 DUP3 PUSH2 0x1E9A JUMP JUMPDEST SWAP2 POP PUSH2 0x2592 DUP4 PUSH2 0x1E9A JUMP JUMPDEST SWAP3 POP DUP3 PUSH2 0x25A2 JUMPI PUSH2 0x25A1 PUSH2 0x2523 JUMP JUMPDEST JUMPDEST DUP3 DUP3 DIV SWAP1 POP SWAP3 SWAP2 POP POP JUMP JUMPDEST PUSH0 PUSH2 0x25B7 DUP3 PUSH2 0x1E9A JUMP JUMPDEST SWAP2 POP PUSH2 0x25C2 DUP4 PUSH2 0x1E9A JUMP JUMPDEST SWAP3 POP DUP3 DUP3 SUB SWAP1 POP DUP2 DUP2 GT ISZERO PUSH2 0x25DA JUMPI PUSH2 0x25D9 PUSH2 0x2550 JUMP JUMPDEST JUMPDEST SWAP3 SWAP2 POP POP JUMP JUMPDEST PUSH0 PUSH2 0x25EA DUP3 PUSH2 0x1E9A JUMP JUMPDEST SWAP2 POP PUSH32 0xFFFFFFFFFFFFFFFFFFFFFFFFFFFFFFFFFFFFFFFFFFFFFFFFFFFFFFFFFFFFFFFF DUP3 SUB PUSH2 0x261C JUMPI PUSH2 0x261B PUSH2 0x2550 JUMP JUMPDEST JUMPDEST PUSH1 0x1 DUP3 ADD SWAP1 POP SWAP2 SWAP1 POP JUMP JUMPDEST PUSH0 DUP2 MLOAD SWAP1 POP SWAP2 SWAP1 POP JUMP JUMPDEST PUSH0 DUP3 DUP3 MSTORE PUSH1 0x20 DUP3 ADD SWAP1 POP SWAP3 SWAP2 POP POP JUMP JUMPDEST DUP3 DUP2 DUP4 MCOPY PUSH0 DUP4 DUP4 ADD MSTORE POP POP POP JUMP JUMPDEST PUSH0 PUSH2 0x2659 DUP3 PUSH2 0x2627 JUMP JUMPDEST PUSH2 0x2663 DUP2 DUP6 PUSH2 0x2631 JUMP JUMPDEST SWAP4 POP PUSH2 0x2673 DUP2 DUP6 PUSH1 0x20 DUP7 ADD PUSH2 0x2641 JUMP JUMPDEST PUSH2 0x267C DUP2 PUSH2 0x201E JUMP JUMPDEST DUP5 ADD SWAP2 POP POP SWAP3 SWAP2 POP POP JUMP JUMPDEST PUSH0 PUSH1 0x40 DUP3 ADD SWAP1 POP PUSH2 0x269A PUSH0 DUP4 ADD DUP6 PUSH2 0x2326 JUMP JUMPDEST DUP2 DUP2 SUB PUSH1 0x20 DUP4 ADD MSTORE PUSH2 0x26AC DUP2 DUP5 PUSH2 0x264F JUMP JUMPDEST SWAP1 POP SWAP4 SWAP3 POP POP POP JUMP JUMPDEST PUSH32 0x6E6F7420617574686F72697A6564000000000000000000000000000000000000 PUSH0 DUP3 ADD MSTORE POP JUMP JUMPDEST PUSH0 PUSH2 0x26E9 PUSH1 0xE DUP4 PUSH2 0x23F7 JUMP JUMPDEST SWAP2 POP PUSH2 0x26F4 DUP3 PUSH2 0x26B5 JUMP JUMPDEST PUSH1 0x20 DUP3 ADD SWAP1 POP SWAP2 SWAP1 POP JUMP JUMPDEST PUSH0 PUSH1 0x20 DUP3 ADD SWAP1 POP DUP2 DUP2 SUB PUSH0 DUP4 ADD MSTORE PUSH2 0x2716 DUP2 PUSH2 0x26DD JUMP JUMPDEST SWAP1 POP SWAP2 SWAP1 POP JUMP JUMPDEST PUSH32 0x796F752068617665206E6F2062616C616E636500000000000000000000000000 PUSH0 DUP3 ADD MSTORE POP JUMP JUMPDEST PUSH0 PUSH2 0x2751 PUSH1 0x13 DUP4 PUSH2 0x23F7 JUMP JUMPDEST SWAP2 POP PUSH2 0x275C DUP3 PUSH2 0x271D JUMP JUMPDEST PUSH1 0x20 DUP3 ADD SWAP1 POP SWAP2 SWAP1 POP JUMP JUMPDEST PUSH0 PUSH1 0x20 DUP3 ADD SWAP1 POP DUP2 DUP2 SUB PUSH0 DUP4 ADD MSTORE PUSH2 0x277E DUP2 PUSH2 0x2745 JUMP JUMPDEST SWAP1 POP SWAP2 SWAP1 POP JUMP JUMPDEST PUSH0 DUP2 SWAP1 POP SWAP3 SWAP2 POP POP JUMP JUMPDEST POP JUMP JUMPDEST PUSH0 PUSH2 0x279D PUSH0 DUP4 PUSH2 0x2785 JUMP JUMPDEST SWAP2 POP PUSH2 0x27A8 DUP3 PUSH2 0x278F JUMP JUMPDEST PUSH0 DUP3 ADD SWAP1 POP SWAP2 SWAP1 POP JUMP JUMPDEST PUSH0 PUSH2 0x27BC DUP3 PUSH2 0x2792 JUMP JUMPDEST SWAP2 POP DUP2 SWAP1 POP SWAP2 SWAP1 POP JUMP JUMPDEST PUSH0 PUSH1 0x40 DUP3 ADD SWAP1 POP PUSH2 0x27D9 PUSH0 DUP4 ADD DUP6 PUSH2 0x2326 JUMP JUMPDEST PUSH2 0x27E6 PUSH1 0x20 DUP4 ADD DUP5 PUSH2 0x1FEE JUMP JUMPDEST SWAP4 SWAP3 POP POP POP JUMP JUMPDEST PUSH0 DUP2 SWAP1 POP SWAP2 SWAP1 POP JUMP JUMPDEST PUSH0 PUSH2 0x2810 PUSH2 0x280B PUSH2 0x2806 DUP5 PUSH2 0x27ED JUMP JUMPDEST PUSH2 0x22CB JUMP JUMPDEST PUSH2 0x1E9A JUMP JUMPDEST SWAP1 POP SWAP2 SWAP1 POP JUMP JUMPDEST PUSH2 0x2820 DUP2 PUSH2 0x27F6 JUMP JUMPDEST DUP3 MSTORE POP POP JUMP JUMPDEST PUSH0 PUSH1 0x20 DUP3 ADD SWAP1 POP PUSH2 0x2839 PUSH0 DUP4 ADD DUP5 PUSH2 0x2817 JUMP JUMPDEST SWAP3 SWAP2 POP POP JUMP JUMPDEST PUSH32 0x666565207261746520746F6F2068696768000000000000000000000000000000 PUSH0 DUP3 ADD MSTORE POP JUMP JUMPDEST PUSH0 PUSH2 0x2873 PUSH1 0x11 DUP4 PUSH2 0x23F7 JUMP JUMPDEST SWAP2 POP PUSH2 0x287E DUP3 PUSH2 0x283F JUMP JUMPDEST PUSH1 0x20 DUP3 ADD SWAP1 POP SWAP2 SWAP1 POP JUMP JUMPDEST PUSH0 PUSH1 0x20 DUP3 ADD SWAP1 POP DUP2 DUP2 SUB PUSH0 DUP4 ADD MSTORE PUSH2 0x28A0 DUP2 PUSH2 0x2867 JUMP JUMPDEST SWAP1 POP SWAP2 SWAP1 POP JUMP JUMPDEST PUSH32 0x61756374696F6E206E6F74207374617274656420796574000000000000000000 PUSH0 DUP3 ADD MSTORE POP JUMP JUMPDEST PUSH0 PUSH2 0x28DB PUSH1 0x17 DUP4 PUSH2 0x23F7 JUMP JUMPDEST SWAP2 POP PUSH2 0x28E6 DUP3 PUSH2 0x28A7 JUMP JUMPDEST PUSH1 0x20 DUP3 ADD SWAP1 POP SWAP2 SWAP1 POP JUMP JUMPDEST PUSH0 PUSH1 0x20 DUP3 ADD SWAP1 POP DUP2 DUP2 SUB PUSH0 DUP4 ADD MSTORE PUSH2 0x2908 DUP2 PUSH2 0x28CF JUMP JUMPDEST SWAP1 POP SWAP2 SWAP1 POP JUMP JUMPDEST PUSH0 PUSH1 0x40 DUP3 ADD SWAP1 POP PUSH2 0x2922 PUSH0 DUP4 ADD DUP6 PUSH2 0x1FEE JUMP JUMPDEST PUSH2 0x292F PUSH1 0x20 DUP4 ADD DUP5 PUSH2 0x1FEE JUMP JUMPDEST SWAP4 SWAP3 POP POP POP JUMP JUMPDEST PUSH0 PUSH2 0x2940 DUP3 PUSH2 0x1E9A JUMP JUMPDEST SWAP2 POP PUSH2 0x294B DUP4 PUSH2 0x1E9A JUMP JUMPDEST SWAP3 POP DUP3 DUP3 ADD SWAP1 POP DUP1 DUP3 GT ISZERO PUSH2 0x2963 JUMPI PUSH2 0x2962 PUSH2 0x2550 JUMP JUMPDEST JUMPDEST SWAP3 SWAP2 POP POP JUMP JUMPDEST PUSH0 PUSH1 0x60 DUP3 ADD SWAP1 POP PUSH2 0x297C PUSH0 DUP4 ADD DUP7 PUSH2 0x2326 JUMP JUMPDEST PUSH2 0x2989 PUSH1 0x20 DUP4 ADD DUP6 PUSH2 0x2326 JUMP JUMPDEST PUSH2 0x2996 PUSH1 0x40 DUP4 ADD DUP5 PUSH2 0x1FEE JUMP JUMPDEST SWAP5 SWAP4 POP POP POP POP JUMP JUMPDEST PUSH0 PUSH2 0x29A8 DUP3 PUSH2 0x1E9A JUMP JUMPDEST SWAP2 POP PUSH2 0x29B3 DUP4 PUSH2 0x1E9A JUMP JUMPDEST SWAP3 POP DUP3 DUP3 MUL PUSH2 0x29C1 DUP2 PUSH2 0x1E9A JUMP JUMPDEST SWAP2 POP DUP3 DUP3 DIV DUP5 EQ DUP4 ISZERO OR PUSH2 0x29D8 JUMPI PUSH2 0x29D7 PUSH2 0x2550 JUMP JUMPDEST JUMPDEST POP SWAP3 SWAP2 POP POP JUMP JUMPDEST PUSH32 0x63616E206E6F742063616E63656C206E6F770000000000000000000000000000 PUSH0 DUP3 ADD MSTORE POP JUMP JUMPDEST PUSH0 PUSH2 0x2A13 PUSH1 0x12 DUP4 PUSH2 0x23F7 JUMP JUMPDEST SWAP2 POP PUSH2 0x2A1E DUP3 PUSH2 0x29DF JUMP JUMPDEST PUSH1 0x20 DUP3 ADD SWAP1 POP SWAP2 SWAP1 POP JUMP JUMPDEST PUSH0 PUSH1 0x20 DUP3 ADD SWAP1 POP DUP2 DUP2 SUB PUSH0 DUP4 ADD MSTORE PUSH2 0x2A40 DUP2 PUSH2 0x2A07 JUMP JUMPDEST SWAP1 POP SWAP2 SWAP1 POP JUMP JUMPDEST PUSH32 0x696E76616C6964206E6674206164647265737300000000000000000000000000 PUSH0 DUP3 ADD MSTORE POP JUMP JUMPDEST PUSH0 PUSH2 0x2A7B PUSH1 0x13 DUP4 PUSH2 0x23F7 JUMP JUMPDEST SWAP2 POP PUSH2 0x2A86 DUP3 PUSH2 0x2A47 JUMP JUMPDEST PUSH1 0x20 DUP3 ADD SWAP1 POP SWAP2 SWAP1 POP JUMP JUMPDEST PUSH0 PUSH1 0x20 DUP3 ADD SWAP1 POP DUP2 DUP2 SUB PUSH0 DUP4 ADD MSTORE PUSH2 0x2AA8 DUP2 PUSH2 0x2A6F JUMP JUMPDEST SWAP1 POP SWAP2 SWAP1 POP JUMP JUMPDEST PUSH32 0x616C72656164792065786973747320696E2077686974656C6973740000000000 PUSH0 DUP3 ADD MSTORE POP JUMP JUMPDEST PUSH0 PUSH2 0x2AE3 PUSH1 0x1B DUP4 PUSH2 0x23F7 JUMP JUMPDEST SWAP2 POP PUSH2 0x2AEE DUP3 PUSH2 0x2AAF JUMP JUMPDEST PUSH1 0x20 DUP3 ADD SWAP1 POP SWAP2 SWAP1 POP JUMP JUMPDEST PUSH0 PUSH1 0x20 DUP3 ADD SWAP1 POP DUP2 DUP2 SUB PUSH0 DUP4 ADD MSTORE PUSH2 0x2B10 DUP2 PUSH2 0x2AD7 JUMP JUMPDEST SWAP1 POP SWAP2 SWAP1 POP JUMP JUMPDEST PUSH0 DUP2 ISZERO ISZERO SWAP1 POP SWAP2 SWAP1 POP JUMP JUMPDEST PUSH2 0x2B2B DUP2 PUSH2 0x2B17 JUMP JUMPDEST DUP2 EQ PUSH2 0x2B35 JUMPI PUSH0 DUP1 REVERT JUMPDEST POP JUMP JUMPDEST PUSH0 DUP2 MLOAD SWAP1 POP PUSH2 0x2B46 DUP2 PUSH2 0x2B22 JUMP JUMPDEST SWAP3 SWAP2 POP POP JUMP JUMPDEST PUSH0 PUSH1 0x20 DUP3 DUP5 SUB SLT ISZERO PUSH2 0x2B61 JUMPI PUSH2 0x2B60 PUSH2 0x1E92 JUMP JUMPDEST JUMPDEST PUSH0 PUSH2 0x2B6E DUP5 DUP3 DUP6 ADD PUSH2 0x2B38 JUMP JUMPDEST SWAP2 POP POP SWAP3 SWAP2 POP POP JUMP JUMPDEST PUSH32 0x696E76616C6964206E6674207479706500000000000000000000000000000000 PUSH0 DUP3 ADD MSTORE POP JUMP JUMPDEST PUSH0 PUSH2 0x2BAB PUSH1 0x10 DUP4 PUSH2 0x23F7 JUMP JUMPDEST SWAP2 POP PUSH2 0x2BB6 DUP3 PUSH2 0x2B77 JUMP JUMPDEST PUSH1 0x20 DUP3 ADD SWAP1 POP SWAP2 SWAP1 POP JUMP JUMPDEST PUSH0 PUSH1 0x20 DUP3 ADD SWAP1 POP DUP2 DUP2 SUB PUSH0 DUP4 ADD MSTORE PUSH2 0x2BD8 DUP2 PUSH2 0x2B9F JUMP JUMPDEST SWAP1 POP SWAP2 SWAP1 POP JUMP JUMPDEST PUSH32 0x696E76616C6964206E6674000000000000000000000000000000000000000000 PUSH0 DUP3 ADD MSTORE POP JUMP JUMPDEST PUSH0 PUSH2 0x2C13 PUSH1 0xB DUP4 PUSH2 0x23F7 JUMP JUMPDEST SWAP2 POP PUSH2 0x2C1E DUP3 PUSH2 0x2BDF JUMP JUMPDEST PUSH1 0x20 DUP3 ADD SWAP1 POP SWAP2 SWAP1 POP JUMP JUMPDEST PUSH0 PUSH1 0x20 DUP3 ADD SWAP1 POP DUP2 DUP2 SUB PUSH0 DUP4 ADD MSTORE PUSH2 0x2C40 DUP2 PUSH2 0x2C07 JUMP JUMPDEST SWAP1 POP SWAP2 SWAP1 POP JUMP JUMPDEST PUSH0 DUP2 MLOAD SWAP1 POP PUSH2 0x2C55 DUP2 PUSH2 0x1F86 JUMP JUMPDEST SWAP3 SWAP2 POP POP JUMP JUMPDEST PUSH0 PUSH1 0x20 DUP3 DUP5 SUB SLT ISZERO PUSH2 0x2C70 JUMPI PUSH2 0x2C6F PUSH2 0x1E92 JUMP JUMPDEST JUMPDEST PUSH0 PUSH2 0x2C7D DUP5 DUP3 DUP6 ADD PUSH2 0x2C47 JUMP JUMPDEST SWAP2 POP POP SWAP3 SWAP2 POP POP JUMP INVALID LOG2 PUSH5 0x6970667358 0x22 SLT KECCAK256 SGT 0xAB EQ GAS MSIZE 0xFB 0x22 PUSH8 0xDF8F074B2211D70E 0xD 0xE6 PC 0x4E DUP6 0x4D 0xCF DUP1 PUSH30 0xE0FEA21ED3B2DD64736F6C634300081A0033000000000000000000000000 "
				},
				"gasEstimates": {
					"creation": {
						"codeDepositCost": "2290400",
						"executionCost": "31717",
						"totalCost": "2322117"
					},
					"external": {
						"addNFTSupport(address)": "infinite",
						"admin()": "2618",
						"auctionItemIdByTokenId(address,uint256)": "infinite",
						"auctionItems(uint256)": "infinite",
						"bidAuction(uint256)": "infinite",
						"createAuction(uint256,uint256,uint256,uint256,uint256,uint256)": "infinite",
						"feeRate()": "2492",
						"getAuctionPrice(uint256)": "infinite",
						"getBackNft(address,uint256,address)": "infinite",
						"getBalance()": "2587",
						"getItemId(address,uint256)": "infinite",
						"getProfits()": "4713",
						"nextItemId()": "2535",
						"onERC721Received(address,address,uint256,bytes)": "infinite",
						"recoverAtuctionItem(address,uint256)": "infinite",
						"removeNFTSupport(address)": "infinite",
						"send()": "infinite",
						"setFeeRate(uint256)": "24777",
						"tokenIdToItemIds(address,uint256)": "infinite",
						"withdraw()": "infinite"
					},
					"internal": {
						"_addAuctionItem(address,uint256,address,uint256)": "99492",
						"_addressTouint256(address)": "infinite",
						"_checkItemExists(uint256)": "infinite",
						"_checkItemNotSale(uint256)": "infinite",
						"_checkNFTWhiteList(address)": "infinite",
						"_checkOwner(address,uint256)": "infinite",
						"calcProfit(uint256)": "infinite"
					}
				},
				"methodIdentifiers": {
					"addNFTSupport(address)": "b80083fa",
					"admin()": "f851a440",
					"auctionItemIdByTokenId(address,uint256)": "3e2d4ee9",
					"auctionItems(uint256)": "d2c069f0",
					"bidAuction(uint256)": "64a7d7c7",
					"createAuction(uint256,uint256,uint256,uint256,uint256,uint256)": "0033a40c",
					"feeRate()": "978bbdb9",
					"getAuctionPrice(uint256)": "917d009e",
					"getBackNft(address,uint256,address)": "97ae9a84",
					"getBalance()": "12065fe0",
					"getItemId(address,uint256)": "8f4e9cbb",
					"getProfits()": "3ad15258",
					"nextItemId()": "6a868974",
					"onERC721Received(address,address,uint256,bytes)": "150b7a02",
					"recoverAtuctionItem(address,uint256)": "0b21bd10",
					"removeNFTSupport(address)": "e43197ef",
					"send()": "b46300ec",
					"setFeeRate(uint256)": "45596e2e",
					"tokenIdToItemIds(address,uint256)": "98891fac",
					"withdraw()": "3ccfd60b"
				}
			},
			"storageLayout": {
				"storage": [
					{
						"astId": 461,
						"contract": "contracts/business/DutchAuctionHouse.sol:DutchAuctionHouse",
						"label": "nextItemId",
						"offset": 0,
						"slot": "0",
						"type": "t_uint256"
					},
					{
						"astId": 466,
						"contract": "contracts/business/DutchAuctionHouse.sol:DutchAuctionHouse",
						"label": "auctionItems",
						"offset": 0,
						"slot": "1",
						"type": "t_mapping(t_uint256,t_struct(AuctionItem)458_storage)"
					},
					{
						"astId": 472,
						"contract": "contracts/business/DutchAuctionHouse.sol:DutchAuctionHouse",
						"label": "tokenIdToItemIds",
						"offset": 0,
						"slot": "2",
						"type": "t_mapping(t_address,t_mapping(t_uint256,t_uint256))"
					},
					{
						"astId": 476,
						"contract": "contracts/business/DutchAuctionHouse.sol:DutchAuctionHouse",
						"label": "sellerBalance",
						"offset": 0,
						"slot": "3",
						"type": "t_mapping(t_address,t_uint256)"
					},
					{
						"astId": 478,
						"contract": "contracts/business/DutchAuctionHouse.sol:DutchAuctionHouse",
						"label": "profits",
						"offset": 0,
						"slot": "4",
						"type": "t_uint256"
					},
					{
						"astId": 480,
						"contract": "contracts/business/DutchAuctionHouse.sol:DutchAuctionHouse",
						"label": "feeRate",
						"offset": 0,
						"slot": "5",
						"type": "t_uint256"
					},
					{
						"astId": 483,
						"contract": "contracts/business/DutchAuctionHouse.sol:DutchAuctionHouse",
						"label": "nftWhiteList",
						"offset": 0,
						"slot": "6",
						"type": "t_struct(AddressBitMap)1711_storage"
					},
					{
						"astId": 485,
						"contract": "contracts/business/DutchAuctionHouse.sol:DutchAuctionHouse",
						"label": "admin",
						"offset": 0,
						"slot": "7",
						"type": "t_address"
					}
				],
				"types": {
					"t_address": {
						"encoding": "inplace",
						"label": "address",
						"numberOfBytes": "20"
					},
					"t_contract(IERC721)253": {
						"encoding": "inplace",
						"label": "contract IERC721",
						"numberOfBytes": "20"
					},
					"t_mapping(t_address,t_mapping(t_uint256,t_uint256))": {
						"encoding": "mapping",
						"key": "t_address",
						"label": "mapping(address => mapping(uint256 => uint256))",
						"numberOfBytes": "32",
						"value": "t_mapping(t_uint256,t_uint256)"
					},
					"t_mapping(t_address,t_uint256)": {
						"encoding": "mapping",
						"key": "t_address",
						"label": "mapping(address => uint256)",
						"numberOfBytes": "32",
						"value": "t_uint256"
					},
					"t_mapping(t_uint256,t_struct(AuctionItem)458_storage)": {
						"encoding": "mapping",
						"key": "t_uint256",
						"label": "mapping(uint256 => struct DutchAuctionHouse.AuctionItem)",
						"numberOfBytes": "32",
						"value": "t_struct(AuctionItem)458_storage"
					},
					"t_mapping(t_uint256,t_uint256)": {
						"encoding": "mapping",
						"key": "t_uint256",
						"label": "mapping(uint256 => uint256)",
						"numberOfBytes": "32",
						"value": "t_uint256"
					},
					"t_struct(AddressBitMap)1711_storage": {
						"encoding": "inplace",
						"label": "struct BitMaps.AddressBitMap",
						"members": [
							{
								"astId": 1710,
								"contract": "contracts/business/DutchAuctionHouse.sol:DutchAuctionHouse",
								"label": "_inner",
								"offset": 0,
								"slot": "0",
								"type": "t_struct(BitMap)1501_storage"
							}
						],
						"numberOfBytes": "32"
					},
					"t_struct(AuctionItem)458_storage": {
						"encoding": "inplace",
						"label": "struct DutchAuctionHouse.AuctionItem",
						"members": [
							{
								"astId": 437,
								"contract": "contracts/business/DutchAuctionHouse.sol:DutchAuctionHouse",
								"label": "nftContract",
								"offset": 0,
								"slot": "0",
								"type": "t_contract(IERC721)253"
							},
							{
								"astId": 439,
								"contract": "contracts/business/DutchAuctionHouse.sol:DutchAuctionHouse",
								"label": "tokenId",
								"offset": 0,
								"slot": "1",
								"type": "t_uint256"
							},
							{
								"astId": 441,
								"contract": "contracts/business/DutchAuctionHouse.sol:DutchAuctionHouse",
								"label": "seller",
								"offset": 0,
								"slot": "2",
								"type": "t_address"
							},
							{
								"astId": 443,
								"contract": "contracts/business/DutchAuctionHouse.sol:DutchAuctionHouse",
								"label": "startPrice",
								"offset": 0,
								"slot": "3",
								"type": "t_uint256"
							},
							{
								"astId": 445,
								"contract": "contracts/business/DutchAuctionHouse.sol:DutchAuctionHouse",
								"label": "endPrice",
								"offset": 0,
								"slot": "4",
								"type": "t_uint256"
							},
							{
								"astId": 447,
								"contract": "contracts/business/DutchAuctionHouse.sol:DutchAuctionHouse",
								"label": "startTime",
								"offset": 0,
								"slot": "5",
								"type": "t_uint256"
							},
							{
								"astId": 449,
								"contract": "contracts/business/DutchAuctionHouse.sol:DutchAuctionHouse",
								"label": "duringTime",
								"offset": 0,
								"slot": "6",
								"type": "t_uint256"
							},
							{
								"astId": 451,
								"contract": "contracts/business/DutchAuctionHouse.sol:DutchAuctionHouse",
								"label": "dropInterval",
								"offset": 0,
								"slot": "7",
								"type": "t_uint256"
							},
							{
								"astId": 453,
								"contract": "contracts/business/DutchAuctionHouse.sol:DutchAuctionHouse",
								"label": "stepPrice",
								"offset": 0,
								"slot": "8",
								"type": "t_uint256"
							},
							{
								"astId": 455,
								"contract": "contracts/business/DutchAuctionHouse.sol:DutchAuctionHouse",
								"label": "bider",
								"offset": 0,
								"slot": "9",
								"type": "t_address"
							},
							{
								"astId": 457,
								"contract": "contracts/business/DutchAuctionHouse.sol:DutchAuctionHouse",
								"label": "auctionPrice",
								"offset": 0,
								"slot": "10",
								"type": "t_uint256"
							}
						],
						"numberOfBytes": "352"
					},
					"t_struct(BitMap)1501_storage": {
						"encoding": "inplace",
						"label": "struct BitMaps.BitMap",
						"members": [
							{
								"astId": 1500,
								"contract": "contracts/business/DutchAuctionHouse.sol:DutchAuctionHouse",
								"label": "_data",
								"offset": 0,
								"slot": "0",
								"type": "t_mapping(t_uint256,t_uint256)"
							}
						],
						"numberOfBytes": "32"
					},
					"t_uint256": {
						"encoding": "inplace",
						"label": "uint256",
						"numberOfBytes": "32"
					}
				}
			},
			"userdoc": {
				"kind": "user",
				"methods": {},
				"version": 1
			}
		}
	}
}