{
	"data": {
		"bytecode": {
			"linkReferences": {},
			"object": "6080604052348015600e575f80fd5b50610e768061001c5f395ff3fe608060405234801561000f575f80fd5b5060043610610034575f3560e01c80634f76c05814610038578063986cfba314610068575b5f80fd5b610052600480360381019061004d919061098e565b610098565b60405161005f91906109d4565b60405180910390f35b610082600480360381019061007d9190610a17565b61048f565b60405161008f9190610a51565b60405180910390f35b5f6401000276a373ffffffffffffffffffffffffffffffffffffffff168273ffffffffffffffffffffffffffffffffffffffff1610158015610119575073fffd8963efd1fc6a506488495d951d5263988d2673ffffffffffffffffffffffffffffffffffffffff168273ffffffffffffffffffffffffffffffffffffffff16105b610158576040517f08c379a000000000000000000000000000000000000000000000000000000000815260040161014f90610ac4565b60405180910390fd5b5f60208373ffffffffffffffffffffffffffffffffffffffff16901b90505f8190505f6fffffffffffffffffffffffffffffffff821160071b808217915082811c92505067ffffffffffffffff821160061b808217915082811c92505063ffffffff821160051b808217915082811c92505061ffff821160041b808217915082811c92505060ff821160031b808217915082811c925050600f821160021b808217915082811c9250506003821160011b808217915082811c925050600182118082179150506080811061023c57607f816102329190610b18565b83901c915061024f565b80607f6102499190610b18565b83901b91505b5f604060808361025f9190610b54565b901b9050828302607f1c92508260801c80603f1b8217915083811c935050828302607f1c92508260801c80603e1b8217915083811c935050828302607f1c92508260801c80603d1b8217915083811c935050828302607f1c92508260801c80603c1b8217915083811c935050828302607f1c92508260801c80603b1b8217915083811c935050828302607f1c92508260801c80603a1b8217915083811c935050828302607f1c92508260801c8060391b8217915083811c935050828302607f1c92508260801c8060381b8217915083811c935050828302607f1c92508260801c8060371b8217915083811c935050828302607f1c92508260801c8060361b8217915083811c935050828302607f1c92508260801c8060351b8217915083811c935050828302607f1c92508260801c8060341b8217915083811c935050828302607f1c92508260801c8060331b8217915083811c935050828302607f1c92508260801c8060321b82179150505f693627a301d71055774c85826103e19190610b94565b90505f60806f028f6481ab7f045a5af012a19d003aaa836104029190610b54565b901d90505f60806fdb2df09e81959a81455e260799a0632f846104259190610c0a565b901d90508060020b8260020b1461047f578873ffffffffffffffffffffffffffffffffffffffff166104568261048f565b73ffffffffffffffffffffffffffffffffffffffff161115610478578161047a565b805b610481565b815b975050505050505050919050565b5f805f8360020b126104a4578260020b6104b2565b8260020b6104b190610c4b565b5b90507ffffffffffffffffffffffffffffffffffffffffffffffffffffffffffff276186104de90610c91565b60020b811115610523576040517f08c379a000000000000000000000000000000000000000000000000000000000815260040161051a90610d21565b60405180910390fd5b5f80600183160361054557700100000000000000000000000000000000610557565b6ffffcb933bd6fad37aa2d162d1a5940015b70ffffffffffffffffffffffffffffffffff1690505f60028316146105995760806ffff97272373d413259a46990580e213a826105949190610d3f565b901c90505b5f60048316146105c65760806ffff2e50f5f656932ef12357cf3c7fdcc826105c19190610d3f565b901c90505b5f60088316146105f35760806fffe5caca7e10e4e61c3624eaa0941cd0826105ee9190610d3f565b901c90505b5f60108316146106205760806fffcb9843d60f6159c9db58835c9266448261061b9190610d3f565b901c90505b5f602083161461064d5760806fff973b41fa98c081472e6896dfb254c0826106489190610d3f565b901c90505b5f604083161461067a5760806fff2ea16466c96a3843ec78b326b52861826106759190610d3f565b901c90505b5f60808316146106a75760806ffe5dee046a99a2a811c461f1969c3053826106a29190610d3f565b901c90505b5f6101008316146106d55760806ffcbe86c7900a88aedcffc83b479aa3a4826106d09190610d3f565b901c90505b5f6102008316146107035760806ff987a7253ac413176f2b074cf7815e54826106fe9190610d3f565b901c90505b5f6104008316146107315760806ff3392b0822b70005940c7a398e4b70f38261072c9190610d3f565b901c90505b5f61080083161461075f5760806fe7159475a2c29b7443b29c7fa6e889d98261075a9190610d3f565b901c90505b5f61100083161461078d5760806fd097f3bdfd2022b8845ad8f792aa5825826107889190610d3f565b901c90505b5f6120008316146107bb5760806fa9f746462d870fdf8a65dc1f90e061e5826107b69190610d3f565b901c90505b5f6140008316146107e95760806f70d869a156d2a1b890bb3df62baf32f7826107e49190610d3f565b901c90505b5f6180008316146108175760806f31be135f97d08fd981231505542fcfa6826108129190610d3f565b901c90505b5f620100008316146108465760806f09aa508b5b7a84e1c677de54f3e99bc9826108419190610d3f565b901c90505b5f620200008316146108745760806e5d6af8dedb81196699c329225ee6048261086f9190610d3f565b901c90505b5f620400008316146108a15760806d2216e584f5fa1ea926041bedfe988261089c9190610d3f565b901c90505b5f620800008316146108cc5760806b048a170391f7dc42444e8fa2826108c79190610d3f565b901c90505b5f8460020b131561090657807fffffffffffffffffffffffffffffffffffffffffffffffffffffffffffffffff6109039190610dad565b90505b5f640100000000826109189190610ddd565b14610924576001610926565b5f5b60ff16602082901c6109389190610e0d565b92505050919050565b5f80fd5b5f73ffffffffffffffffffffffffffffffffffffffff82169050919050565b61096d81610945565b8114610977575f80fd5b50565b5f8135905061098881610964565b92915050565b5f602082840312156109a3576109a2610941565b5b5f6109b08482850161097a565b91505092915050565b5f8160020b9050919050565b6109ce816109b9565b82525050565b5f6020820190506109e75f8301846109c5565b92915050565b6109f6816109b9565b8114610a00575f80fd5b50565b5f81359050610a11816109ed565b92915050565b5f60208284031215610a2c57610a2b610941565b5b5f610a3984828501610a03565b91505092915050565b610a4b81610945565b82525050565b5f602082019050610a645f830184610a42565b92915050565b5f82825260208201905092915050565b7f52000000000000000000000000000000000000000000000000000000000000005f82015250565b5f610aae600183610a6a565b9150610ab982610a7a565b602082019050919050565b5f6020820190508181035f830152610adb81610aa2565b9050919050565b5f819050919050565b7f4e487b71000000000000000000000000000000000000000000000000000000005f52601160045260245ffd5b5f610b2282610ae2565b9150610b2d83610ae2565b9250828203905081811115610b4557610b44610aeb565b5b92915050565b5f819050919050565b5f610b5e82610b4b565b9150610b6983610b4b565b925082820390508181125f8412168282135f851215161715610b8e57610b8d610aeb565b5b92915050565b5f610b9e82610b4b565b9150610ba983610b4b565b9250828202610bb781610b4b565b91507f800000000000000000000000000000000000000000000000000000000000000084145f84121615610bee57610bed610aeb565b5b8282058414831517610c0357610c02610aeb565b5b5092915050565b5f610c1482610b4b565b9150610c1f83610b4b565b92508282019050828112155f8312168382125f841215161715610c4557610c44610aeb565b5b92915050565b5f610c5582610b4b565b91507f80000000000000000000000000000000000000000000000000000000000000008203610c8757610c86610aeb565b5b815f039050919050565b5f610c9b826109b9565b91507fffffffffffffffffffffffffffffffffffffffffffffffffffffffffff8000008203610ccd57610ccc610aeb565b5b815f039050919050565b7f54000000000000000000000000000000000000000000000000000000000000005f82015250565b5f610d0b600183610a6a565b9150610d1682610cd7565b602082019050919050565b5f6020820190508181035f830152610d3881610cff565b9050919050565b5f610d4982610ae2565b9150610d5483610ae2565b9250828202610d6281610ae2565b91508282048414831517610d7957610d78610aeb565b5b5092915050565b7f4e487b71000000000000000000000000000000000000000000000000000000005f52601260045260245ffd5b5f610db782610ae2565b9150610dc283610ae2565b925082610dd257610dd1610d80565b5b828204905092915050565b5f610de782610ae2565b9150610df283610ae2565b925082610e0257610e01610d80565b5b828206905092915050565b5f610e1782610ae2565b9150610e2283610ae2565b9250828201905080821115610e3a57610e39610aeb565b5b9291505056fea2646970667358221220f91f48196e139273bcb3f6f1561eb599c31506efc667e47066d3a35a1f9d1c3c64736f6c634300081a0033",
			"opcodes": "PUSH1 0x80 PUSH1 0x40 MSTORE CALLVALUE DUP1 ISZERO PUSH1 0xE JUMPI PUSH0 DUP1 REVERT JUMPDEST POP PUSH2 0xE76 DUP1 PUSH2 0x1C PUSH0 CODECOPY PUSH0 RETURN INVALID PUSH1 0x80 PUSH1 0x40 MSTORE CALLVALUE DUP1 ISZERO PUSH2 0xF JUMPI PUSH0 DUP1 REVERT JUMPDEST POP PUSH1 0x4 CALLDATASIZE LT PUSH2 0x34 JUMPI PUSH0 CALLDATALOAD PUSH1 0xE0 SHR DUP1 PUSH4 0x4F76C058 EQ PUSH2 0x38 JUMPI DUP1 PUSH4 0x986CFBA3 EQ PUSH2 0x68 JUMPI JUMPDEST PUSH0 DUP1 REVERT JUMPDEST PUSH2 0x52 PUSH1 0x4 DUP1 CALLDATASIZE SUB DUP2 ADD SWAP1 PUSH2 0x4D SWAP2 SWAP1 PUSH2 0x98E JUMP JUMPDEST PUSH2 0x98 JUMP JUMPDEST PUSH1 0x40 MLOAD PUSH2 0x5F SWAP2 SWAP1 PUSH2 0x9D4 JUMP JUMPDEST PUSH1 0x40 MLOAD DUP1 SWAP2 SUB SWAP1 RETURN JUMPDEST PUSH2 0x82 PUSH1 0x4 DUP1 CALLDATASIZE SUB DUP2 ADD SWAP1 PUSH2 0x7D SWAP2 SWAP1 PUSH2 0xA17 JUMP JUMPDEST PUSH2 0x48F JUMP JUMPDEST PUSH1 0x40 MLOAD PUSH2 0x8F SWAP2 SWAP1 PUSH2 0xA51 JUMP JUMPDEST PUSH1 0x40 MLOAD DUP1 SWAP2 SUB SWAP1 RETURN JUMPDEST PUSH0 PUSH5 0x1000276A3 PUSH20 0xFFFFFFFFFFFFFFFFFFFFFFFFFFFFFFFFFFFFFFFF AND DUP3 PUSH20 0xFFFFFFFFFFFFFFFFFFFFFFFFFFFFFFFFFFFFFFFF AND LT ISZERO DUP1 ISZERO PUSH2 0x119 JUMPI POP PUSH20 0xFFFD8963EFD1FC6A506488495D951D5263988D26 PUSH20 0xFFFFFFFFFFFFFFFFFFFFFFFFFFFFFFFFFFFFFFFF AND DUP3 PUSH20 0xFFFFFFFFFFFFFFFFFFFFFFFFFFFFFFFFFFFFFFFF AND LT JUMPDEST PUSH2 0x158 JUMPI PUSH1 0x40 MLOAD PUSH32 0x8C379A000000000000000000000000000000000000000000000000000000000 DUP2 MSTORE PUSH1 0x4 ADD PUSH2 0x14F SWAP1 PUSH2 0xAC4 JUMP JUMPDEST PUSH1 0x40 MLOAD DUP1 SWAP2 SUB SWAP1 REVERT JUMPDEST PUSH0 PUSH1 0x20 DUP4 PUSH20 0xFFFFFFFFFFFFFFFFFFFFFFFFFFFFFFFFFFFFFFFF AND SWAP1 SHL SWAP1 POP PUSH0 DUP2 SWAP1 POP PUSH0 PUSH16 0xFFFFFFFFFFFFFFFFFFFFFFFFFFFFFFFF DUP3 GT PUSH1 0x7 SHL DUP1 DUP3 OR SWAP2 POP DUP3 DUP2 SHR SWAP3 POP POP PUSH8 0xFFFFFFFFFFFFFFFF DUP3 GT PUSH1 0x6 SHL DUP1 DUP3 OR SWAP2 POP DUP3 DUP2 SHR SWAP3 POP POP PUSH4 0xFFFFFFFF DUP3 GT PUSH1 0x5 SHL DUP1 DUP3 OR SWAP2 POP DUP3 DUP2 SHR SWAP3 POP POP PUSH2 0xFFFF DUP3 GT PUSH1 0x4 SHL DUP1 DUP3 OR SWAP2 POP DUP3 DUP2 SHR SWAP3 POP POP PUSH1 0xFF DUP3 GT PUSH1 0x3 SHL DUP1 DUP3 OR SWAP2 POP DUP3 DUP2 SHR SWAP3 POP POP PUSH1 0xF DUP3 GT PUSH1 0x2 SHL DUP1 DUP3 OR SWAP2 POP DUP3 DUP2 SHR SWAP3 POP POP PUSH1 0x3 DUP3 GT PUSH1 0x1 SHL DUP1 DUP3 OR SWAP2 POP DUP3 DUP2 SHR SWAP3 POP POP PUSH1 0x1 DUP3 GT DUP1 DUP3 OR SWAP2 POP POP PUSH1 0x80 DUP2 LT PUSH2 0x23C JUMPI PUSH1 0x7F DUP2 PUSH2 0x232 SWAP2 SWAP1 PUSH2 0xB18 JUMP JUMPDEST DUP4 SWAP1 SHR SWAP2 POP PUSH2 0x24F JUMP JUMPDEST DUP1 PUSH1 0x7F PUSH2 0x249 SWAP2 SWAP1 PUSH2 0xB18 JUMP JUMPDEST DUP4 SWAP1 SHL SWAP2 POP JUMPDEST PUSH0 PUSH1 0x40 PUSH1 0x80 DUP4 PUSH2 0x25F SWAP2 SWAP1 PUSH2 0xB54 JUMP JUMPDEST SWAP1 SHL SWAP1 POP DUP3 DUP4 MUL PUSH1 0x7F SHR SWAP3 POP DUP3 PUSH1 0x80 SHR DUP1 PUSH1 0x3F SHL DUP3 OR SWAP2 POP DUP4 DUP2 SHR SWAP4 POP POP DUP3 DUP4 MUL PUSH1 0x7F SHR SWAP3 POP DUP3 PUSH1 0x80 SHR DUP1 PUSH1 0x3E SHL DUP3 OR SWAP2 POP DUP4 DUP2 SHR SWAP4 POP POP DUP3 DUP4 MUL PUSH1 0x7F SHR SWAP3 POP DUP3 PUSH1 0x80 SHR DUP1 PUSH1 0x3D SHL DUP3 OR SWAP2 POP DUP4 DUP2 SHR SWAP4 POP POP DUP3 DUP4 MUL PUSH1 0x7F SHR SWAP3 POP DUP3 PUSH1 0x80 SHR DUP1 PUSH1 0x3C SHL DUP3 OR SWAP2 POP DUP4 DUP2 SHR SWAP4 POP POP DUP3 DUP4 MUL PUSH1 0x7F SHR SWAP3 POP DUP3 PUSH1 0x80 SHR DUP1 PUSH1 0x3B SHL DUP3 OR SWAP2 POP DUP4 DUP2 SHR SWAP4 POP POP DUP3 DUP4 MUL PUSH1 0x7F SHR SWAP3 POP DUP3 PUSH1 0x80 SHR DUP1 PUSH1 0x3A SHL DUP3 OR SWAP2 POP DUP4 DUP2 SHR SWAP4 POP POP DUP3 DUP4 MUL PUSH1 0x7F SHR SWAP3 POP DUP3 PUSH1 0x80 SHR DUP1 PUSH1 0x39 SHL DUP3 OR SWAP2 POP DUP4 DUP2 SHR SWAP4 POP POP DUP3 DUP4 MUL PUSH1 0x7F SHR SWAP3 POP DUP3 PUSH1 0x80 SHR DUP1 PUSH1 0x38 SHL DUP3 OR SWAP2 POP DUP4 DUP2 SHR SWAP4 POP POP DUP3 DUP4 MUL PUSH1 0x7F SHR SWAP3 POP DUP3 PUSH1 0x80 SHR DUP1 PUSH1 0x37 SHL DUP3 OR SWAP2 POP DUP4 DUP2 SHR SWAP4 POP POP DUP3 DUP4 MUL PUSH1 0x7F SHR SWAP3 POP DUP3 PUSH1 0x80 SHR DUP1 PUSH1 0x36 SHL DUP3 OR SWAP2 POP DUP4 DUP2 SHR SWAP4 POP POP DUP3 DUP4 MUL PUSH1 0x7F SHR SWAP3 POP DUP3 PUSH1 0x80 SHR DUP1 PUSH1 0x35 SHL DUP3 OR SWAP2 POP DUP4 DUP2 SHR SWAP4 POP POP DUP3 DUP4 MUL PUSH1 0x7F SHR SWAP3 POP DUP3 PUSH1 0x80 SHR DUP1 PUSH1 0x34 SHL DUP3 OR SWAP2 POP DUP4 DUP2 SHR SWAP4 POP POP DUP3 DUP4 MUL PUSH1 0x7F SHR SWAP3 POP DUP3 PUSH1 0x80 SHR DUP1 PUSH1 0x33 SHL DUP3 OR SWAP2 POP DUP4 DUP2 SHR SWAP4 POP POP DUP3 DUP4 MUL PUSH1 0x7F SHR SWAP3 POP DUP3 PUSH1 0x80 SHR DUP1 PUSH1 0x32 SHL DUP3 OR SWAP2 POP POP PUSH0 PUSH10 0x3627A301D71055774C85 DUP3 PUSH2 0x3E1 SWAP2 SWAP1 PUSH2 0xB94 JUMP JUMPDEST SWAP1 POP PUSH0 PUSH1 0x80 PUSH16 0x28F6481AB7F045A5AF012A19D003AAA DUP4 PUSH2 0x402 SWAP2 SWAP1 PUSH2 0xB54 JUMP JUMPDEST SWAP1 SAR SWAP1 POP PUSH0 PUSH1 0x80 PUSH16 0xDB2DF09E81959A81455E260799A0632F DUP5 PUSH2 0x425 SWAP2 SWAP1 PUSH2 0xC0A JUMP JUMPDEST SWAP1 SAR SWAP1 POP DUP1 PUSH1 0x2 SIGNEXTEND DUP3 PUSH1 0x2 SIGNEXTEND EQ PUSH2 0x47F JUMPI DUP9 PUSH20 0xFFFFFFFFFFFFFFFFFFFFFFFFFFFFFFFFFFFFFFFF AND PUSH2 0x456 DUP3 PUSH2 0x48F JUMP JUMPDEST PUSH20 0xFFFFFFFFFFFFFFFFFFFFFFFFFFFFFFFFFFFFFFFF AND GT ISZERO PUSH2 0x478 JUMPI DUP2 PUSH2 0x47A JUMP JUMPDEST DUP1 JUMPDEST PUSH2 0x481 JUMP JUMPDEST DUP2 JUMPDEST SWAP8 POP POP POP POP POP POP POP POP SWAP2 SWAP1 POP JUMP JUMPDEST PUSH0 DUP1 PUSH0 DUP4 PUSH1 0x2 SIGNEXTEND SLT PUSH2 0x4A4 JUMPI DUP3 PUSH1 0x2 SIGNEXTEND PUSH2 0x4B2 JUMP JUMPDEST DUP3 PUSH1 0x2 SIGNEXTEND PUSH2 0x4B1 SWAP1 PUSH2 0xC4B JUMP JUMPDEST JUMPDEST SWAP1 POP PUSH32 0xFFFFFFFFFFFFFFFFFFFFFFFFFFFFFFFFFFFFFFFFFFFFFFFFFFFFFFFFFFF27618 PUSH2 0x4DE SWAP1 PUSH2 0xC91 JUMP JUMPDEST PUSH1 0x2 SIGNEXTEND DUP2 GT ISZERO PUSH2 0x523 JUMPI PUSH1 0x40 MLOAD PUSH32 0x8C379A000000000000000000000000000000000000000000000000000000000 DUP2 MSTORE PUSH1 0x4 ADD PUSH2 0x51A SWAP1 PUSH2 0xD21 JUMP JUMPDEST PUSH1 0x40 MLOAD DUP1 SWAP2 SUB SWAP1 REVERT JUMPDEST PUSH0 DUP1 PUSH1 0x1 DUP4 AND SUB PUSH2 0x545 JUMPI PUSH17 0x100000000000000000000000000000000 PUSH2 0x557 JUMP JUMPDEST PUSH16 0xFFFCB933BD6FAD37AA2D162D1A594001 JUMPDEST PUSH17 0xFFFFFFFFFFFFFFFFFFFFFFFFFFFFFFFFFF AND SWAP1 POP PUSH0 PUSH1 0x2 DUP4 AND EQ PUSH2 0x599 JUMPI PUSH1 0x80 PUSH16 0xFFF97272373D413259A46990580E213A DUP3 PUSH2 0x594 SWAP2 SWAP1 PUSH2 0xD3F JUMP JUMPDEST SWAP1 SHR SWAP1 POP JUMPDEST PUSH0 PUSH1 0x4 DUP4 AND EQ PUSH2 0x5C6 JUMPI PUSH1 0x80 PUSH16 0xFFF2E50F5F656932EF12357CF3C7FDCC DUP3 PUSH2 0x5C1 SWAP2 SWAP1 PUSH2 0xD3F JUMP JUMPDEST SWAP1 SHR SWAP1 POP JUMPDEST PUSH0 PUSH1 0x8 DUP4 AND EQ PUSH2 0x5F3 JUMPI PUSH1 0x80 PUSH16 0xFFE5CACA7E10E4E61C3624EAA0941CD0 DUP3 PUSH2 0x5EE SWAP2 SWAP1 PUSH2 0xD3F JUMP JUMPDEST SWAP1 SHR SWAP1 POP JUMPDEST PUSH0 PUSH1 0x10 DUP4 AND EQ PUSH2 0x620 JUMPI PUSH1 0x80 PUSH16 0xFFCB9843D60F6159C9DB58835C926644 DUP3 PUSH2 0x61B SWAP2 SWAP1 PUSH2 0xD3F JUMP JUMPDEST SWAP1 SHR SWAP1 POP JUMPDEST PUSH0 PUSH1 0x20 DUP4 AND EQ PUSH2 0x64D JUMPI PUSH1 0x80 PUSH16 0xFF973B41FA98C081472E6896DFB254C0 DUP3 PUSH2 0x648 SWAP2 SWAP1 PUSH2 0xD3F JUMP JUMPDEST SWAP1 SHR SWAP1 POP JUMPDEST PUSH0 PUSH1 0x40 DUP4 AND EQ PUSH2 0x67A JUMPI PUSH1 0x80 PUSH16 0xFF2EA16466C96A3843EC78B326B52861 DUP3 PUSH2 0x675 SWAP2 SWAP1 PUSH2 0xD3F JUMP JUMPDEST SWAP1 SHR SWAP1 POP JUMPDEST PUSH0 PUSH1 0x80 DUP4 AND EQ PUSH2 0x6A7 JUMPI PUSH1 0x80 PUSH16 0xFE5DEE046A99A2A811C461F1969C3053 DUP3 PUSH2 0x6A2 SWAP2 SWAP1 PUSH2 0xD3F JUMP JUMPDEST SWAP1 SHR SWAP1 POP JUMPDEST PUSH0 PUSH2 0x100 DUP4 AND EQ PUSH2 0x6D5 JUMPI PUSH1 0x80 PUSH16 0xFCBE86C7900A88AEDCFFC83B479AA3A4 DUP3 PUSH2 0x6D0 SWAP2 SWAP1 PUSH2 0xD3F JUMP JUMPDEST SWAP1 SHR SWAP1 POP JUMPDEST PUSH0 PUSH2 0x200 DUP4 AND EQ PUSH2 0x703 JUMPI PUSH1 0x80 PUSH16 0xF987A7253AC413176F2B074CF7815E54 DUP3 PUSH2 0x6FE SWAP2 SWAP1 PUSH2 0xD3F JUMP JUMPDEST SWAP1 SHR SWAP1 POP JUMPDEST PUSH0 PUSH2 0x400 DUP4 AND EQ PUSH2 0x731 JUMPI PUSH1 0x80 PUSH16 0xF3392B0822B70005940C7A398E4B70F3 DUP3 PUSH2 0x72C SWAP2 SWAP1 PUSH2 0xD3F JUMP JUMPDEST SWAP1 SHR SWAP1 POP JUMPDEST PUSH0 PUSH2 0x800 DUP4 AND EQ PUSH2 0x75F JUMPI PUSH1 0x80 PUSH16 0xE7159475A2C29B7443B29C7FA6E889D9 DUP3 PUSH2 0x75A SWAP2 SWAP1 PUSH2 0xD3F JUMP JUMPDEST SWAP1 SHR SWAP1 POP JUMPDEST PUSH0 PUSH2 0x1000 DUP4 AND EQ PUSH2 0x78D JUMPI PUSH1 0x80 PUSH16 0xD097F3BDFD2022B8845AD8F792AA5825 DUP3 PUSH2 0x788 SWAP2 SWAP1 PUSH2 0xD3F JUMP JUMPDEST SWAP1 SHR SWAP1 POP JUMPDEST PUSH0 PUSH2 0x2000 DUP4 AND EQ PUSH2 0x7BB JUMPI PUSH1 0x80 PUSH16 0xA9F746462D870FDF8A65DC1F90E061E5 DUP3 PUSH2 0x7B6 SWAP2 SWAP1 PUSH2 0xD3F JUMP JUMPDEST SWAP1 SHR SWAP1 POP JUMPDEST PUSH0 PUSH2 0x4000 DUP4 AND EQ PUSH2 0x7E9 JUMPI PUSH1 0x80 PUSH16 0x70D869A156D2A1B890BB3DF62BAF32F7 DUP3 PUSH2 0x7E4 SWAP2 SWAP1 PUSH2 0xD3F JUMP JUMPDEST SWAP1 SHR SWAP1 POP JUMPDEST PUSH0 PUSH2 0x8000 DUP4 AND EQ PUSH2 0x817 JUMPI PUSH1 0x80 PUSH16 0x31BE135F97D08FD981231505542FCFA6 DUP3 PUSH2 0x812 SWAP2 SWAP1 PUSH2 0xD3F JUMP JUMPDEST SWAP1 SHR SWAP1 POP JUMPDEST PUSH0 PUSH3 0x10000 DUP4 AND EQ PUSH2 0x846 JUMPI PUSH1 0x80 PUSH16 0x9AA508B5B7A84E1C677DE54F3E99BC9 DUP3 PUSH2 0x841 SWAP2 SWAP1 PUSH2 0xD3F JUMP JUMPDEST SWAP1 SHR SWAP1 POP JUMPDEST PUSH0 PUSH3 0x20000 DUP4 AND EQ PUSH2 0x874 JUMPI PUSH1 0x80 PUSH15 0x5D6AF8DEDB81196699C329225EE604 DUP3 PUSH2 0x86F SWAP2 SWAP1 PUSH2 0xD3F JUMP JUMPDEST SWAP1 SHR SWAP1 POP JUMPDEST PUSH0 PUSH3 0x40000 DUP4 AND EQ PUSH2 0x8A1 JUMPI PUSH1 0x80 PUSH14 0x2216E584F5FA1EA926041BEDFE98 DUP3 PUSH2 0x89C SWAP2 SWAP1 PUSH2 0xD3F JUMP JUMPDEST SWAP1 SHR SWAP1 POP JUMPDEST PUSH0 PUSH3 0x80000 DUP4 AND EQ PUSH2 0x8CC JUMPI PUSH1 0x80 PUSH12 0x48A170391F7DC42444E8FA2 DUP3 PUSH2 0x8C7 SWAP2 SWAP1 PUSH2 0xD3F JUMP JUMPDEST SWAP1 SHR SWAP1 POP JUMPDEST PUSH0 DUP5 PUSH1 0x2 SIGNEXTEND SGT ISZERO PUSH2 0x906 JUMPI DUP1 PUSH32 0xFFFFFFFFFFFFFFFFFFFFFFFFFFFFFFFFFFFFFFFFFFFFFFFFFFFFFFFFFFFFFFFF PUSH2 0x903 SWAP2 SWAP1 PUSH2 0xDAD JUMP JUMPDEST SWAP1 POP JUMPDEST PUSH0 PUSH5 0x100000000 DUP3 PUSH2 0x918 SWAP2 SWAP1 PUSH2 0xDDD JUMP JUMPDEST EQ PUSH2 0x924 JUMPI PUSH1 0x1 PUSH2 0x926 JUMP JUMPDEST PUSH0 JUMPDEST PUSH1 0xFF AND PUSH1 0x20 DUP3 SWAP1 SHR PUSH2 0x938 SWAP2 SWAP1 PUSH2 0xE0D JUMP JUMPDEST SWAP3 POP POP POP SWAP2 SWAP1 POP JUMP JUMPDEST PUSH0 DUP1 REVERT JUMPDEST PUSH0 PUSH20 0xFFFFFFFFFFFFFFFFFFFFFFFFFFFFFFFFFFFFFFFF DUP3 AND SWAP1 POP SWAP2 SWAP1 POP JUMP JUMPDEST PUSH2 0x96D DUP2 PUSH2 0x945 JUMP JUMPDEST DUP2 EQ PUSH2 0x977 JUMPI PUSH0 DUP1 REVERT JUMPDEST POP JUMP JUMPDEST PUSH0 DUP2 CALLDATALOAD SWAP1 POP PUSH2 0x988 DUP2 PUSH2 0x964 JUMP JUMPDEST SWAP3 SWAP2 POP POP JUMP JUMPDEST PUSH0 PUSH1 0x20 DUP3 DUP5 SUB SLT ISZERO PUSH2 0x9A3 JUMPI PUSH2 0x9A2 PUSH2 0x941 JUMP JUMPDEST JUMPDEST PUSH0 PUSH2 0x9B0 DUP5 DUP3 DUP6 ADD PUSH2 0x97A JUMP JUMPDEST SWAP2 POP POP SWAP3 SWAP2 POP POP JUMP JUMPDEST PUSH0 DUP2 PUSH1 0x2 SIGNEXTEND SWAP1 POP SWAP2 SWAP1 POP JUMP JUMPDEST PUSH2 0x9CE DUP2 PUSH2 0x9B9 JUMP JUMPDEST DUP3 MSTORE POP POP JUMP JUMPDEST PUSH0 PUSH1 0x20 DUP3 ADD SWAP1 POP PUSH2 0x9E7 PUSH0 DUP4 ADD DUP5 PUSH2 0x9C5 JUMP JUMPDEST SWAP3 SWAP2 POP POP JUMP JUMPDEST PUSH2 0x9F6 DUP2 PUSH2 0x9B9 JUMP JUMPDEST DUP2 EQ PUSH2 0xA00 JUMPI PUSH0 DUP1 REVERT JUMPDEST POP JUMP JUMPDEST PUSH0 DUP2 CALLDATALOAD SWAP1 POP PUSH2 0xA11 DUP2 PUSH2 0x9ED JUMP JUMPDEST SWAP3 SWAP2 POP POP JUMP JUMPDEST PUSH0 PUSH1 0x20 DUP3 DUP5 SUB SLT ISZERO PUSH2 0xA2C JUMPI PUSH2 0xA2B PUSH2 0x941 JUMP JUMPDEST JUMPDEST PUSH0 PUSH2 0xA39 DUP5 DUP3 DUP6 ADD PUSH2 0xA03 JUMP JUMPDEST SWAP2 POP POP SWAP3 SWAP2 POP POP JUMP JUMPDEST PUSH2 0xA4B DUP2 PUSH2 0x945 JUMP JUMPDEST DUP3 MSTORE POP POP JUMP JUMPDEST PUSH0 PUSH1 0x20 DUP3 ADD SWAP1 POP PUSH2 0xA64 PUSH0 DUP4 ADD DUP5 PUSH2 0xA42 JUMP JUMPDEST SWAP3 SWAP2 POP POP JUMP JUMPDEST PUSH0 DUP3 DUP3 MSTORE PUSH1 0x20 DUP3 ADD SWAP1 POP SWAP3 SWAP2 POP POP JUMP JUMPDEST PUSH32 0x5200000000000000000000000000000000000000000000000000000000000000 PUSH0 DUP3 ADD MSTORE POP JUMP JUMPDEST PUSH0 PUSH2 0xAAE PUSH1 0x1 DUP4 PUSH2 0xA6A JUMP JUMPDEST SWAP2 POP PUSH2 0xAB9 DUP3 PUSH2 0xA7A JUMP JUMPDEST PUSH1 0x20 DUP3 ADD SWAP1 POP SWAP2 SWAP1 POP JUMP JUMPDEST PUSH0 PUSH1 0x20 DUP3 ADD SWAP1 POP DUP2 DUP2 SUB PUSH0 DUP4 ADD MSTORE PUSH2 0xADB DUP2 PUSH2 0xAA2 JUMP JUMPDEST SWAP1 POP SWAP2 SWAP1 POP JUMP JUMPDEST PUSH0 DUP2 SWAP1 POP SWAP2 SWAP1 POP JUMP JUMPDEST PUSH32 0x4E487B7100000000000000000000000000000000000000000000000000000000 PUSH0 MSTORE PUSH1 0x11 PUSH1 0x4 MSTORE PUSH1 0x24 PUSH0 REVERT JUMPDEST PUSH0 PUSH2 0xB22 DUP3 PUSH2 0xAE2 JUMP JUMPDEST SWAP2 POP PUSH2 0xB2D DUP4 PUSH2 0xAE2 JUMP JUMPDEST SWAP3 POP DUP3 DUP3 SUB SWAP1 POP DUP2 DUP2 GT ISZERO PUSH2 0xB45 JUMPI PUSH2 0xB44 PUSH2 0xAEB JUMP JUMPDEST JUMPDEST SWAP3 SWAP2 POP POP JUMP JUMPDEST PUSH0 DUP2 SWAP1 POP SWAP2 SWAP1 POP JUMP JUMPDEST PUSH0 PUSH2 0xB5E DUP3 PUSH2 0xB4B JUMP JUMPDEST SWAP2 POP PUSH2 0xB69 DUP4 PUSH2 0xB4B JUMP JUMPDEST SWAP3 POP DUP3 DUP3 SUB SWAP1 POP DUP2 DUP2 SLT PUSH0 DUP5 SLT AND DUP3 DUP3 SGT PUSH0 DUP6 SLT ISZERO AND OR ISZERO PUSH2 0xB8E JUMPI PUSH2 0xB8D PUSH2 0xAEB JUMP JUMPDEST JUMPDEST SWAP3 SWAP2 POP POP JUMP JUMPDEST PUSH0 PUSH2 0xB9E DUP3 PUSH2 0xB4B JUMP JUMPDEST SWAP2 POP PUSH2 0xBA9 DUP4 PUSH2 0xB4B JUMP JUMPDEST SWAP3 POP DUP3 DUP3 MUL PUSH2 0xBB7 DUP2 PUSH2 0xB4B JUMP JUMPDEST SWAP2 POP PUSH32 0x8000000000000000000000000000000000000000000000000000000000000000 DUP5 EQ PUSH0 DUP5 SLT AND ISZERO PUSH2 0xBEE JUMPI PUSH2 0xBED PUSH2 0xAEB JUMP JUMPDEST JUMPDEST DUP3 DUP3 SDIV DUP5 EQ DUP4 ISZERO OR PUSH2 0xC03 JUMPI PUSH2 0xC02 PUSH2 0xAEB JUMP JUMPDEST JUMPDEST POP SWAP3 SWAP2 POP POP JUMP JUMPDEST PUSH0 PUSH2 0xC14 DUP3 PUSH2 0xB4B JUMP JUMPDEST SWAP2 POP PUSH2 0xC1F DUP4 PUSH2 0xB4B JUMP JUMPDEST SWAP3 POP DUP3 DUP3 ADD SWAP1 POP DUP3 DUP2 SLT ISZERO PUSH0 DUP4 SLT AND DUP4 DUP3 SLT PUSH0 DUP5 SLT ISZERO AND OR ISZERO PUSH2 0xC45 JUMPI PUSH2 0xC44 PUSH2 0xAEB JUMP JUMPDEST JUMPDEST SWAP3 SWAP2 POP POP JUMP JUMPDEST PUSH0 PUSH2 0xC55 DUP3 PUSH2 0xB4B JUMP JUMPDEST SWAP2 POP PUSH32 0x8000000000000000000000000000000000000000000000000000000000000000 DUP3 SUB PUSH2 0xC87 JUMPI PUSH2 0xC86 PUSH2 0xAEB JUMP JUMPDEST JUMPDEST DUP2 PUSH0 SUB SWAP1 POP SWAP2 SWAP1 POP JUMP JUMPDEST PUSH0 PUSH2 0xC9B DUP3 PUSH2 0x9B9 JUMP JUMPDEST SWAP2 POP PUSH32 0xFFFFFFFFFFFFFFFFFFFFFFFFFFFFFFFFFFFFFFFFFFFFFFFFFFFFFFFFFF800000 DUP3 SUB PUSH2 0xCCD JUMPI PUSH2 0xCCC PUSH2 0xAEB JUMP JUMPDEST JUMPDEST DUP2 PUSH0 SUB SWAP1 POP SWAP2 SWAP1 POP JUMP JUMPDEST PUSH32 0x5400000000000000000000000000000000000000000000000000000000000000 PUSH0 DUP3 ADD MSTORE POP JUMP JUMPDEST PUSH0 PUSH2 0xD0B PUSH1 0x1 DUP4 PUSH2 0xA6A JUMP JUMPDEST SWAP2 POP PUSH2 0xD16 DUP3 PUSH2 0xCD7 JUMP JUMPDEST PUSH1 0x20 DUP3 ADD SWAP1 POP SWAP2 SWAP1 POP JUMP JUMPDEST PUSH0 PUSH1 0x20 DUP3 ADD SWAP1 POP DUP2 DUP2 SUB PUSH0 DUP4 ADD MSTORE PUSH2 0xD38 DUP2 PUSH2 0xCFF JUMP JUMPDEST SWAP1 POP SWAP2 SWAP1 POP JUMP JUMPDEST PUSH0 PUSH2 0xD49 DUP3 PUSH2 0xAE2 JUMP JUMPDEST SWAP2 POP PUSH2 0xD54 DUP4 PUSH2 0xAE2 JUMP JUMPDEST SWAP3 POP DUP3 DUP3 MUL PUSH2 0xD62 DUP2 PUSH2 0xAE2 JUMP JUMPDEST SWAP2 POP DUP3 DUP3 DIV DUP5 EQ DUP4 ISZERO OR PUSH2 0xD79 JUMPI PUSH2 0xD78 PUSH2 0xAEB JUMP JUMPDEST JUMPDEST POP SWAP3 SWAP2 POP POP JUMP JUMPDEST PUSH32 0x4E487B7100000000000000000000000000000000000000000000000000000000 PUSH0 MSTORE PUSH1 0x12 PUSH1 0x4 MSTORE PUSH1 0x24 PUSH0 REVERT JUMPDEST PUSH0 PUSH2 0xDB7 DUP3 PUSH2 0xAE2 JUMP JUMPDEST SWAP2 POP PUSH2 0xDC2 DUP4 PUSH2 0xAE2 JUMP JUMPDEST SWAP3 POP DUP3 PUSH2 0xDD2 JUMPI PUSH2 0xDD1 PUSH2 0xD80 JUMP JUMPDEST JUMPDEST DUP3 DUP3 DIV SWAP1 POP SWAP3 SWAP2 POP POP JUMP JUMPDEST PUSH0 PUSH2 0xDE7 DUP3 PUSH2 0xAE2 JUMP JUMPDEST SWAP2 POP PUSH2 0xDF2 DUP4 PUSH2 0xAE2 JUMP JUMPDEST SWAP3 POP DUP3 PUSH2 0xE02 JUMPI PUSH2 0xE01 PUSH2 0xD80 JUMP JUMPDEST JUMPDEST DUP3 DUP3 MOD SWAP1 POP SWAP3 SWAP2 POP POP JUMP JUMPDEST PUSH0 PUSH2 0xE17 DUP3 PUSH2 0xAE2 JUMP JUMPDEST SWAP2 POP PUSH2 0xE22 DUP4 PUSH2 0xAE2 JUMP JUMPDEST SWAP3 POP DUP3 DUP3 ADD SWAP1 POP DUP1 DUP3 GT ISZERO PUSH2 0xE3A JUMPI PUSH2 0xE39 PUSH2 0xAEB JUMP JUMPDEST JUMPDEST SWAP3 SWAP2 POP POP JUMP INVALID LOG2 PUSH5 0x6970667358 0x22 SLT KECCAK256 0xF9 0x1F BASEFEE NOT PUSH15 0x139273BCB3F6F1561EB599C31506EF 0xC6 PUSH8 0xE47066D3A35A1F9D SHR EXTCODECOPY PUSH5 0x736F6C6343 STOP ADDMOD BYTE STOP CALLER "
		},
		"gasEstimates": {
			"creation": {
				"codeDepositCost": "740400",
				"executionCost": "771",
				"totalCost": "741171"
			},
			"external": {
				"getSqrtRatioAtTick(int24)": "infinite",
				"getTickAtSqrtRatio(uint160)": "infinite"
			}
		},
		"methodIdentifiers": {
			"getSqrtRatioAtTick(int24)": "986cfba3",
			"getTickAtSqrtRatio(uint160)": "4f76c058"
		}
	},
	"abi": [
		{
			"inputs": [
				{
					"internalType": "int24",
					"name": "tick",
					"type": "int24"
				}
			],
			"name": "getSqrtRatioAtTick",
			"outputs": [
				{
					"internalType": "uint160",
					"name": "sqrtPriceX96",
					"type": "uint160"
				}
			],
			"stateMutability": "pure",
			"type": "function"
		},
		{
			"inputs": [
				{
					"internalType": "uint160",
					"name": "sqrtPriceX96",
					"type": "uint160"
				}
			],
			"name": "getTickAtSqrtRatio",
			"outputs": [
				{
					"internalType": "int24",
					"name": "tick",
					"type": "int24"
				}
			],
			"stateMutability": "pure",
			"type": "function"
		}
	]
}