{
	"data": {
		"bytecode": {
			"linkReferences": {},
			"object": "6080604052348015600e575f80fd5b5061208f8061001c5f395ff3fe608060405234801561000f575f80fd5b506004361061004a575f3560e01c8063177fffed1461004e5780632aec3a7a1461007e57806350293e09146100ae5780637d6d3245146100de575b5f80fd5b61006860048036038101906100639190610ecf565b61010e565b604051610075919061106c565b60405180910390f35b610098600480360381019061009391906110e1565b61037d565b6040516100a591906113b0565b60405180910390f35b6100c860048036038101906100c39190611425565b610615565b6040516100d5919061157d565b60405180910390f35b6100f860048036038101906100f391906115f2565b610884565b6040516101059190611771565b60405180910390f35b60605f8383905090505f8167ffffffffffffffff81111561013257610131611791565b5b60405190808252806020026020018201604052801561016b57816020015b610158610d37565b8152602001906001900390816101505790505b5090505f5b82811015610370575f63bd21704a60e01b878784818110610194576101936117be565b5b905060a002016040516024016101aa919061197b565b604051602081830303815290604052907bffffffffffffffffffffffffffffffffffffffffffffffffffffffff19166020820180517bffffffffffffffffffffffffffffffffffffffffffffffffffffffff838183161783525050505090505f808973ffffffffffffffffffffffffffffffffffffffff168360405161023091906119e6565b5f60405180830381855afa9150503d805f8114610268576040519150601f19603f3d011682016040523d82523d5f602084013e61026d565b606091505b509150915081156102fc575f805f80848060200190518101906102909190611a4e565b935093509350935060405180608001604052808581526020018473ffffffffffffffffffffffffffffffffffffffff1681526020018363ffffffff168152602001828152508989815181106102e8576102e76117be565b5b602002602001018190525050505050610360565b61030584610b1c565b6040516020016103159190611b40565b6040516020818303038152906040526040517f08c379a00000000000000000000000000000000000000000000000000000000081526004016103579190611bb9565b60405180910390fd5b5050508080600101915050610170565b5080925050509392505050565b60605f8383905090505f8167ffffffffffffffff8111156103a1576103a0611791565b5b6040519080825280602002602001820160405280156103da57816020015b6103c7610d77565b8152602001906001900390816103bf5790505b5090505f5b82811015610608575f632f80bb1d60e01b878784818110610403576104026117be565b5b90506020028101906104159190611be5565b805f01906104239190611c0c565b898986818110610436576104356117be565b5b90506020028101906104489190611be5565b6020013560405160240161045e93929190611cc7565b604051602081830303815290604052907bffffffffffffffffffffffffffffffffffffffffffffffffffffffff19166020820180517bffffffffffffffffffffffffffffffffffffffffffffffffffffffff838183161783525050505090505f808973ffffffffffffffffffffffffffffffffffffffff16836040516104e491906119e6565b5f60405180830381855afa9150503d805f811461051c576040519150601f19603f3d011682016040523d82523d5f602084013e610521565b606091505b50915091508115610594575f805f80848060200190518101906105449190611ec2565b93509350935093506040518060800160405280858152602001848152602001838152602001828152508989815181106105805761057f6117be565b5b6020026020010181905250505050506105f8565b61059d84610b1c565b6040516020016105ad9190611b40565b6040516020818303038152906040526040517f08c379a00000000000000000000000000000000000000000000000000000000081526004016105ef9190611bb9565b60405180910390fd5b50505080806001019150506103df565b5080925050509392505050565b60605f8383905090505f8167ffffffffffffffff81111561063957610638611791565b5b60405190808252806020026020018201604052801561067257816020015b61065f610d9d565b8152602001906001900390816106575790505b5090505f5b82811015610877575f63c6a5026a60e01b87878481811061069b5761069a6117be565b5b905060a002016040516024016106b19190611fec565b604051602081830303815290604052907bffffffffffffffffffffffffffffffffffffffffffffffffffffffff19166020820180517bffffffffffffffffffffffffffffffffffffffffffffffffffffffff838183161783525050505090505f808973ffffffffffffffffffffffffffffffffffffffff168360405161073791906119e6565b5f60405180830381855afa9150503d805f811461076f576040519150601f19603f3d011682016040523d82523d5f602084013e610774565b606091505b50915091508115610803575f805f80848060200190518101906107979190611a4e565b935093509350935060405180608001604052808581526020018473ffffffffffffffffffffffffffffffffffffffff1681526020018363ffffffff168152602001828152508989815181106107ef576107ee6117be565b5b602002602001018190525050505050610867565b61080c84610b1c565b60405160200161081c9190611b40565b6040516020818303038152906040526040517f08c379a000000000000000000000000000000000000000000000000000000000815260040161085e9190611bb9565b60405180910390fd5b5050508080600101915050610677565b5080925050509392505050565b60605f8383905090505f8167ffffffffffffffff8111156108a8576108a7611791565b5b6040519080825280602002602001820160405280156108e157816020015b6108ce610ddd565b8152602001906001900390816108c65790505b5090505f5b82811015610b0f575f63cdca175360e01b87878481811061090a576109096117be565b5b905060200281019061091c9190612005565b805f019061092a9190611c0c565b89898681811061093d5761093c6117be565b5b905060200281019061094f9190612005565b6020013560405160240161096593929190611cc7565b604051602081830303815290604052907bffffffffffffffffffffffffffffffffffffffffffffffffffffffff19166020820180517bffffffffffffffffffffffffffffffffffffffffffffffffffffffff838183161783525050505090505f808973ffffffffffffffffffffffffffffffffffffffff16836040516109eb91906119e6565b5f60405180830381855afa9150503d805f8114610a23576040519150601f19603f3d011682016040523d82523d5f602084013e610a28565b606091505b50915091508115610a9b575f805f8084806020019051810190610a4b9190611ec2565b9350935093509350604051806080016040528085815260200184815260200183815260200182815250898981518110610a8757610a866117be565b5b602002602001018190525050505050610aff565b610aa484610b1c565b604051602001610ab49190611b40565b6040516020818303038152906040526040517f08c379a0000000000000000000000000000000000000000000000000000000008152600401610af69190611bb9565b60405180910390fd5b50505080806001019150506108e6565b5080925050509392505050565b60605f6001610b2a84610be6565b0190505f8167ffffffffffffffff811115610b4857610b47611791565b5b6040519080825280601f01601f191660200182016040528015610b7a5781602001600182028036833780820191505090505b5090505f82602001820190505b600115610bdb578080600190039150507f3031323334353637383961626364656600000000000000000000000000000000600a86061a8153600a8581610bd057610bcf61202c565b5b0494505f8503610b87575b819350505050919050565b5f805f90507a184f03e93ff9f4daa797ed6e38ed64bf6a1f0100000000000000008310610c42577a184f03e93ff9f4daa797ed6e38ed64bf6a1f0100000000000000008381610c3857610c3761202c565b5b0492506040810190505b6d04ee2d6d415b85acef81000000008310610c7f576d04ee2d6d415b85acef81000000008381610c7557610c7461202c565b5b0492506020810190505b662386f26fc100008310610cae57662386f26fc100008381610ca457610ca361202c565b5b0492506010810190505b6305f5e1008310610cd7576305f5e1008381610ccd57610ccc61202c565b5b0492506008810190505b6127108310610cfc576127108381610cf257610cf161202c565b5b0492506004810190505b60648310610d1f5760648381610d1557610d1461202c565b5b0492506002810190505b600a8310610d2e576001810190505b80915050919050565b60405180608001604052805f81526020015f73ffffffffffffffffffffffffffffffffffffffff1681526020015f63ffffffff1681526020015f81525090565b60405180608001604052805f815260200160608152602001606081526020015f81525090565b60405180608001604052805f81526020015f73ffffffffffffffffffffffffffffffffffffffff1681526020015f63ffffffff1681526020015f81525090565b60405180608001604052805f815260200160608152602001606081526020015f81525090565b5f604051905090565b5f80fd5b5f80fd5b5f73ffffffffffffffffffffffffffffffffffffffff82169050919050565b5f610e3d82610e14565b9050919050565b610e4d81610e33565b8114610e57575f80fd5b50565b5f81359050610e6881610e44565b92915050565b5f80fd5b5f80fd5b5f80fd5b5f8083601f840112610e8f57610e8e610e6e565b5b8235905067ffffffffffffffff811115610eac57610eab610e72565b5b6020830191508360a0820283011115610ec857610ec7610e76565b5b9250929050565b5f805f60408486031215610ee657610ee5610e0c565b5b5f610ef386828701610e5a565b935050602084013567ffffffffffffffff811115610f1457610f13610e10565b5b610f2086828701610e7a565b92509250509250925092565b5f81519050919050565b5f82825260208201905092915050565b5f819050602082019050919050565b5f819050919050565b610f6781610f55565b82525050565b610f7681610e14565b82525050565b5f63ffffffff82169050919050565b610f9481610f7c565b82525050565b608082015f820151610fae5f850182610f5e565b506020820151610fc16020850182610f6d565b506040820151610fd46040850182610f8b565b506060820151610fe76060850182610f5e565b50505050565b5f610ff88383610f9a565b60808301905092915050565b5f602082019050919050565b5f61101a82610f2c565b6110248185610f36565b935061102f83610f46565b805f5b8381101561105f5781516110468882610fed565b975061105183611004565b925050600181019050611032565b5085935050505092915050565b5f6020820190508181035f8301526110848184611010565b905092915050565b5f8083601f8401126110a1576110a0610e6e565b5b8235905067ffffffffffffffff8111156110be576110bd610e72565b5b6020830191508360208202830111156110da576110d9610e76565b5b9250929050565b5f805f604084860312156110f8576110f7610e0c565b5b5f61110586828701610e5a565b935050602084013567ffffffffffffffff81111561112657611125610e10565b5b6111328682870161108c565b92509250509250925092565b5f81519050919050565b5f82825260208201905092915050565b5f819050602082019050919050565b5f81519050919050565b5f82825260208201905092915050565b5f819050602082019050919050565b5f61119b8383610f6d565b60208301905092915050565b5f602082019050919050565b5f6111bd82611167565b6111c78185611171565b93506111d283611181565b805f5b838110156112025781516111e98882611190565b97506111f4836111a7565b9250506001810190506111d5565b5085935050505092915050565b5f81519050919050565b5f82825260208201905092915050565b5f819050602082019050919050565b5f6112438383610f8b565b60208301905092915050565b5f602082019050919050565b5f6112658261120f565b61126f8185611219565b935061127a83611229565b805f5b838110156112aa5781516112918882611238565b975061129c8361124f565b92505060018101905061127d565b5085935050505092915050565b5f608083015f8301516112cc5f860182610f5e565b50602083015184820360208601526112e482826111b3565b915050604083015184820360408601526112fe828261125b565b91505060608301516113136060860182610f5e565b508091505092915050565b5f61132983836112b7565b905092915050565b5f602082019050919050565b5f6113478261113e565b6113518185611148565b93508360208202850161136385611158565b805f5b8581101561139e578484038952815161137f858261131e565b945061138a83611331565b925060208a01995050600181019050611366565b50829750879550505050505092915050565b5f6020820190508181035f8301526113c8818461133d565b905092915050565b5f8083601f8401126113e5576113e4610e6e565b5b8235905067ffffffffffffffff81111561140257611401610e72565b5b6020830191508360a082028301111561141e5761141d610e76565b5b9250929050565b5f805f6040848603121561143c5761143b610e0c565b5b5f61144986828701610e5a565b935050602084013567ffffffffffffffff81111561146a57611469610e10565b5b611476868287016113d0565b92509250509250925092565b5f81519050919050565b5f82825260208201905092915050565b5f819050602082019050919050565b608082015f8201516114bf5f850182610f5e565b5060208201516114d26020850182610f6d565b5060408201516114e56040850182610f8b565b5060608201516114f86060850182610f5e565b50505050565b5f61150983836114ab565b60808301905092915050565b5f602082019050919050565b5f61152b82611482565b611535818561148c565b93506115408361149c565b805f5b8381101561157057815161155788826114fe565b975061156283611515565b925050600181019050611543565b5085935050505092915050565b5f6020820190508181035f8301526115958184611521565b905092915050565b5f8083601f8401126115b2576115b1610e6e565b5b8235905067ffffffffffffffff8111156115cf576115ce610e72565b5b6020830191508360208202830111156115eb576115ea610e76565b5b9250929050565b5f805f6040848603121561160957611608610e0c565b5b5f61161686828701610e5a565b935050602084013567ffffffffffffffff81111561163757611636610e10565b5b6116438682870161159d565b92509250509250925092565b5f81519050919050565b5f82825260208201905092915050565b5f819050602082019050919050565b5f608083015f83015161168d5f860182610f5e565b50602083015184820360208601526116a582826111b3565b915050604083015184820360408601526116bf828261125b565b91505060608301516116d46060860182610f5e565b508091505092915050565b5f6116ea8383611678565b905092915050565b5f602082019050919050565b5f6117088261164f565b6117128185611659565b93508360208202850161172485611669565b805f5b8581101561175f578484038952815161174085826116df565b945061174b836116f2565b925060208a01995050600181019050611727565b50829750879550505050505092915050565b5f6020820190508181035f83015261178981846116fe565b905092915050565b7f4e487b71000000000000000000000000000000000000000000000000000000005f52604160045260245ffd5b7f4e487b71000000000000000000000000000000000000000000000000000000005f52603260045260245ffd5b5f6117f96020840184610e5a565b905092915050565b61180a81610e33565b82525050565b61181981610f55565b8114611823575f80fd5b50565b5f8135905061183481611810565b92915050565b5f6118486020840184611826565b905092915050565b5f62ffffff82169050919050565b61186781611850565b8114611871575f80fd5b50565b5f813590506118828161185e565b92915050565b5f6118966020840184611874565b905092915050565b6118a781611850565b82525050565b6118b681610e14565b81146118c0575f80fd5b50565b5f813590506118d1816118ad565b92915050565b5f6118e560208401846118c3565b905092915050565b60a082016118fd5f8301836117eb565b6119095f850182611801565b5061191760208301836117eb565b6119246020850182611801565b50611932604083018361183a565b61193f6040850182610f5e565b5061194d6060830183611888565b61195a606085018261189e565b5061196860808301836118d7565b6119756080850182610f6d565b50505050565b5f60a08201905061198e5f8301846118ed565b92915050565b5f81519050919050565b5f81905092915050565b8281835e5f83830152505050565b5f6119c082611994565b6119ca818561199e565b93506119da8185602086016119a8565b80840191505092915050565b5f6119f182846119b6565b915081905092915050565b5f81519050611a0a81611810565b92915050565b5f81519050611a1e816118ad565b92915050565b611a2d81610f7c565b8114611a37575f80fd5b50565b5f81519050611a4881611a24565b92915050565b5f805f8060808587031215611a6657611a65610e0c565b5b5f611a73878288016119fc565b9450506020611a8487828801611a10565b9350506040611a9587828801611a3a565b9250506060611aa6878288016119fc565b91505092959194509250565b5f81905092915050565b7f73746174696363616c6c206661696c656420617420696e6465782000000000005f82015250565b5f611af0601b83611ab2565b9150611afb82611abc565b601b82019050919050565b5f81519050919050565b5f611b1a82611b06565b611b248185611ab2565b9350611b348185602086016119a8565b80840191505092915050565b5f611b4a82611ae4565b9150611b568284611b10565b915081905092915050565b5f82825260208201905092915050565b5f601f19601f8301169050919050565b5f611b8b82611b06565b611b958185611b61565b9350611ba58185602086016119a8565b611bae81611b71565b840191505092915050565b5f6020820190508181035f830152611bd18184611b81565b905092915050565b5f80fd5b5f80fd5b5f80fd5b5f82356001604003833603038112611c0057611bff611bd9565b5b80830191505092915050565b5f8083356001602003843603038112611c2857611c27611bd9565b5b80840192508235915067ffffffffffffffff821115611c4a57611c49611bdd565b5b602083019250600182023603831315611c6657611c65611be1565b5b509250929050565b5f82825260208201905092915050565b828183375f83830152505050565b5f611c978385611c6e565b9350611ca4838584611c7e565b611cad83611b71565b840190509392505050565b611cc181610f55565b82525050565b5f6040820190508181035f830152611ce0818587611c8c565b9050611cef6020830184611cb8565b949350505050565b611d0082611b71565b810181811067ffffffffffffffff82111715611d1f57611d1e611791565b5b80604052505050565b5f611d31610e03565b9050611d3d8282611cf7565b919050565b5f67ffffffffffffffff821115611d5c57611d5b611791565b5b602082029050602081019050919050565b5f611d7f611d7a84611d42565b611d28565b90508083825260208201905060208402830185811115611da257611da1610e76565b5b835b81811015611dcb5780611db78882611a10565b845260208401935050602081019050611da4565b5050509392505050565b5f82601f830112611de957611de8610e6e565b5b8151611df9848260208601611d6d565b91505092915050565b5f67ffffffffffffffff821115611e1c57611e1b611791565b5b602082029050602081019050919050565b5f611e3f611e3a84611e02565b611d28565b90508083825260208201905060208402830185811115611e6257611e61610e76565b5b835b81811015611e8b5780611e778882611a3a565b845260208401935050602081019050611e64565b5050509392505050565b5f82601f830112611ea957611ea8610e6e565b5b8151611eb9848260208601611e2d565b91505092915050565b5f805f8060808587031215611eda57611ed9610e0c565b5b5f611ee7878288016119fc565b945050602085015167ffffffffffffffff811115611f0857611f07610e10565b5b611f1487828801611dd5565b935050604085015167ffffffffffffffff811115611f3557611f34610e10565b5b611f4187828801611e95565b9250506060611f52878288016119fc565b91505092959194509250565b60a08201611f6e5f8301836117eb565b611f7a5f850182611801565b50611f8860208301836117eb565b611f956020850182611801565b50611fa3604083018361183a565b611fb06040850182610f5e565b50611fbe6060830183611888565b611fcb606085018261189e565b50611fd960808301836118d7565b611fe66080850182610f6d565b50505050565b5f60a082019050611fff5f830184611f5e565b92915050565b5f823560016040038336030381126120205761201f611bd9565b5b80830191505092915050565b7f4e487b71000000000000000000000000000000000000000000000000000000005f52601260045260245ffdfea26469706673582212207efd7bcac243bbe9ec36c76c20f26ece462d9b0091edb7eb3de7bde0e19a7ecb64736f6c634300081a0033",
			"opcodes": "PUSH1 0x80 PUSH1 0x40 MSTORE CALLVALUE DUP1 ISZERO PUSH1 0xE JUMPI PUSH0 DUP1 REVERT JUMPDEST POP PUSH2 0x208F DUP1 PUSH2 0x1C PUSH0 CODECOPY PUSH0 RETURN INVALID PUSH1 0x80 PUSH1 0x40 MSTORE CALLVALUE DUP1 ISZERO PUSH2 0xF JUMPI PUSH0 DUP1 REVERT JUMPDEST POP PUSH1 0x4 CALLDATASIZE LT PUSH2 0x4A JUMPI PUSH0 CALLDATALOAD PUSH1 0xE0 SHR DUP1 PUSH4 0x177FFFED EQ PUSH2 0x4E JUMPI DUP1 PUSH4 0x2AEC3A7A EQ PUSH2 0x7E JUMPI DUP1 PUSH4 0x50293E09 EQ PUSH2 0xAE JUMPI DUP1 PUSH4 0x7D6D3245 EQ PUSH2 0xDE JUMPI JUMPDEST PUSH0 DUP1 REVERT JUMPDEST PUSH2 0x68 PUSH1 0x4 DUP1 CALLDATASIZE SUB DUP2 ADD SWAP1 PUSH2 0x63 SWAP2 SWAP1 PUSH2 0xECF JUMP JUMPDEST PUSH2 0x10E JUMP JUMPDEST PUSH1 0x40 MLOAD PUSH2 0x75 SWAP2 SWAP1 PUSH2 0x106C JUMP JUMPDEST PUSH1 0x40 MLOAD DUP1 SWAP2 SUB SWAP1 RETURN JUMPDEST PUSH2 0x98 PUSH1 0x4 DUP1 CALLDATASIZE SUB DUP2 ADD SWAP1 PUSH2 0x93 SWAP2 SWAP1 PUSH2 0x10E1 JUMP JUMPDEST PUSH2 0x37D JUMP JUMPDEST PUSH1 0x40 MLOAD PUSH2 0xA5 SWAP2 SWAP1 PUSH2 0x13B0 JUMP JUMPDEST PUSH1 0x40 MLOAD DUP1 SWAP2 SUB SWAP1 RETURN JUMPDEST PUSH2 0xC8 PUSH1 0x4 DUP1 CALLDATASIZE SUB DUP2 ADD SWAP1 PUSH2 0xC3 SWAP2 SWAP1 PUSH2 0x1425 JUMP JUMPDEST PUSH2 0x615 JUMP JUMPDEST PUSH1 0x40 MLOAD PUSH2 0xD5 SWAP2 SWAP1 PUSH2 0x157D JUMP JUMPDEST PUSH1 0x40 MLOAD DUP1 SWAP2 SUB SWAP1 RETURN JUMPDEST PUSH2 0xF8 PUSH1 0x4 DUP1 CALLDATASIZE SUB DUP2 ADD SWAP1 PUSH2 0xF3 SWAP2 SWAP1 PUSH2 0x15F2 JUMP JUMPDEST PUSH2 0x884 JUMP JUMPDEST PUSH1 0x40 MLOAD PUSH2 0x105 SWAP2 SWAP1 PUSH2 0x1771 JUMP JUMPDEST PUSH1 0x40 MLOAD DUP1 SWAP2 SUB SWAP1 RETURN JUMPDEST PUSH1 0x60 PUSH0 DUP4 DUP4 SWAP1 POP SWAP1 POP PUSH0 DUP2 PUSH8 0xFFFFFFFFFFFFFFFF DUP2 GT ISZERO PUSH2 0x132 JUMPI PUSH2 0x131 PUSH2 0x1791 JUMP JUMPDEST JUMPDEST PUSH1 0x40 MLOAD SWAP1 DUP1 DUP3 MSTORE DUP1 PUSH1 0x20 MUL PUSH1 0x20 ADD DUP3 ADD PUSH1 0x40 MSTORE DUP1 ISZERO PUSH2 0x16B JUMPI DUP2 PUSH1 0x20 ADD JUMPDEST PUSH2 0x158 PUSH2 0xD37 JUMP JUMPDEST DUP2 MSTORE PUSH1 0x20 ADD SWAP1 PUSH1 0x1 SWAP1 SUB SWAP1 DUP2 PUSH2 0x150 JUMPI SWAP1 POP JUMPDEST POP SWAP1 POP PUSH0 JUMPDEST DUP3 DUP2 LT ISZERO PUSH2 0x370 JUMPI PUSH0 PUSH4 0xBD21704A PUSH1 0xE0 SHL DUP8 DUP8 DUP5 DUP2 DUP2 LT PUSH2 0x194 JUMPI PUSH2 0x193 PUSH2 0x17BE JUMP JUMPDEST JUMPDEST SWAP1 POP PUSH1 0xA0 MUL ADD PUSH1 0x40 MLOAD PUSH1 0x24 ADD PUSH2 0x1AA SWAP2 SWAP1 PUSH2 0x197B JUMP JUMPDEST PUSH1 0x40 MLOAD PUSH1 0x20 DUP2 DUP4 SUB SUB DUP2 MSTORE SWAP1 PUSH1 0x40 MSTORE SWAP1 PUSH28 0xFFFFFFFFFFFFFFFFFFFFFFFFFFFFFFFFFFFFFFFFFFFFFFFFFFFFFFFF NOT AND PUSH1 0x20 DUP3 ADD DUP1 MLOAD PUSH28 0xFFFFFFFFFFFFFFFFFFFFFFFFFFFFFFFFFFFFFFFFFFFFFFFFFFFFFFFF DUP4 DUP2 DUP4 AND OR DUP4 MSTORE POP POP POP POP SWAP1 POP PUSH0 DUP1 DUP10 PUSH20 0xFFFFFFFFFFFFFFFFFFFFFFFFFFFFFFFFFFFFFFFF AND DUP4 PUSH1 0x40 MLOAD PUSH2 0x230 SWAP2 SWAP1 PUSH2 0x19E6 JUMP JUMPDEST PUSH0 PUSH1 0x40 MLOAD DUP1 DUP4 SUB DUP2 DUP6 GAS STATICCALL SWAP2 POP POP RETURNDATASIZE DUP1 PUSH0 DUP2 EQ PUSH2 0x268 JUMPI PUSH1 0x40 MLOAD SWAP2 POP PUSH1 0x1F NOT PUSH1 0x3F RETURNDATASIZE ADD AND DUP3 ADD PUSH1 0x40 MSTORE RETURNDATASIZE DUP3 MSTORE RETURNDATASIZE PUSH0 PUSH1 0x20 DUP5 ADD RETURNDATACOPY PUSH2 0x26D JUMP JUMPDEST PUSH1 0x60 SWAP2 POP JUMPDEST POP SWAP2 POP SWAP2 POP DUP2 ISZERO PUSH2 0x2FC JUMPI PUSH0 DUP1 PUSH0 DUP1 DUP5 DUP1 PUSH1 0x20 ADD SWAP1 MLOAD DUP2 ADD SWAP1 PUSH2 0x290 SWAP2 SWAP1 PUSH2 0x1A4E JUMP JUMPDEST SWAP4 POP SWAP4 POP SWAP4 POP SWAP4 POP PUSH1 0x40 MLOAD DUP1 PUSH1 0x80 ADD PUSH1 0x40 MSTORE DUP1 DUP6 DUP2 MSTORE PUSH1 0x20 ADD DUP5 PUSH20 0xFFFFFFFFFFFFFFFFFFFFFFFFFFFFFFFFFFFFFFFF AND DUP2 MSTORE PUSH1 0x20 ADD DUP4 PUSH4 0xFFFFFFFF AND DUP2 MSTORE PUSH1 0x20 ADD DUP3 DUP2 MSTORE POP DUP10 DUP10 DUP2 MLOAD DUP2 LT PUSH2 0x2E8 JUMPI PUSH2 0x2E7 PUSH2 0x17BE JUMP JUMPDEST JUMPDEST PUSH1 0x20 MUL PUSH1 0x20 ADD ADD DUP2 SWAP1 MSTORE POP POP POP POP POP PUSH2 0x360 JUMP JUMPDEST PUSH2 0x305 DUP5 PUSH2 0xB1C JUMP JUMPDEST PUSH1 0x40 MLOAD PUSH1 0x20 ADD PUSH2 0x315 SWAP2 SWAP1 PUSH2 0x1B40 JUMP JUMPDEST PUSH1 0x40 MLOAD PUSH1 0x20 DUP2 DUP4 SUB SUB DUP2 MSTORE SWAP1 PUSH1 0x40 MSTORE PUSH1 0x40 MLOAD PUSH32 0x8C379A000000000000000000000000000000000000000000000000000000000 DUP2 MSTORE PUSH1 0x4 ADD PUSH2 0x357 SWAP2 SWAP1 PUSH2 0x1BB9 JUMP JUMPDEST PUSH1 0x40 MLOAD DUP1 SWAP2 SUB SWAP1 REVERT JUMPDEST POP POP POP DUP1 DUP1 PUSH1 0x1 ADD SWAP2 POP POP PUSH2 0x170 JUMP JUMPDEST POP DUP1 SWAP3 POP POP POP SWAP4 SWAP3 POP POP POP JUMP JUMPDEST PUSH1 0x60 PUSH0 DUP4 DUP4 SWAP1 POP SWAP1 POP PUSH0 DUP2 PUSH8 0xFFFFFFFFFFFFFFFF DUP2 GT ISZERO PUSH2 0x3A1 JUMPI PUSH2 0x3A0 PUSH2 0x1791 JUMP JUMPDEST JUMPDEST PUSH1 0x40 MLOAD SWAP1 DUP1 DUP3 MSTORE DUP1 PUSH1 0x20 MUL PUSH1 0x20 ADD DUP3 ADD PUSH1 0x40 MSTORE DUP1 ISZERO PUSH2 0x3DA JUMPI DUP2 PUSH1 0x20 ADD JUMPDEST PUSH2 0x3C7 PUSH2 0xD77 JUMP JUMPDEST DUP2 MSTORE PUSH1 0x20 ADD SWAP1 PUSH1 0x1 SWAP1 SUB SWAP1 DUP2 PUSH2 0x3BF JUMPI SWAP1 POP JUMPDEST POP SWAP1 POP PUSH0 JUMPDEST DUP3 DUP2 LT ISZERO PUSH2 0x608 JUMPI PUSH0 PUSH4 0x2F80BB1D PUSH1 0xE0 SHL DUP8 DUP8 DUP5 DUP2 DUP2 LT PUSH2 0x403 JUMPI PUSH2 0x402 PUSH2 0x17BE JUMP JUMPDEST JUMPDEST SWAP1 POP PUSH1 0x20 MUL DUP2 ADD SWAP1 PUSH2 0x415 SWAP2 SWAP1 PUSH2 0x1BE5 JUMP JUMPDEST DUP1 PUSH0 ADD SWAP1 PUSH2 0x423 SWAP2 SWAP1 PUSH2 0x1C0C JUMP JUMPDEST DUP10 DUP10 DUP7 DUP2 DUP2 LT PUSH2 0x436 JUMPI PUSH2 0x435 PUSH2 0x17BE JUMP JUMPDEST JUMPDEST SWAP1 POP PUSH1 0x20 MUL DUP2 ADD SWAP1 PUSH2 0x448 SWAP2 SWAP1 PUSH2 0x1BE5 JUMP JUMPDEST PUSH1 0x20 ADD CALLDATALOAD PUSH1 0x40 MLOAD PUSH1 0x24 ADD PUSH2 0x45E SWAP4 SWAP3 SWAP2 SWAP1 PUSH2 0x1CC7 JUMP JUMPDEST PUSH1 0x40 MLOAD PUSH1 0x20 DUP2 DUP4 SUB SUB DUP2 MSTORE SWAP1 PUSH1 0x40 MSTORE SWAP1 PUSH28 0xFFFFFFFFFFFFFFFFFFFFFFFFFFFFFFFFFFFFFFFFFFFFFFFFFFFFFFFF NOT AND PUSH1 0x20 DUP3 ADD DUP1 MLOAD PUSH28 0xFFFFFFFFFFFFFFFFFFFFFFFFFFFFFFFFFFFFFFFFFFFFFFFFFFFFFFFF DUP4 DUP2 DUP4 AND OR DUP4 MSTORE POP POP POP POP SWAP1 POP PUSH0 DUP1 DUP10 PUSH20 0xFFFFFFFFFFFFFFFFFFFFFFFFFFFFFFFFFFFFFFFF AND DUP4 PUSH1 0x40 MLOAD PUSH2 0x4E4 SWAP2 SWAP1 PUSH2 0x19E6 JUMP JUMPDEST PUSH0 PUSH1 0x40 MLOAD DUP1 DUP4 SUB DUP2 DUP6 GAS STATICCALL SWAP2 POP POP RETURNDATASIZE DUP1 PUSH0 DUP2 EQ PUSH2 0x51C JUMPI PUSH1 0x40 MLOAD SWAP2 POP PUSH1 0x1F NOT PUSH1 0x3F RETURNDATASIZE ADD AND DUP3 ADD PUSH1 0x40 MSTORE RETURNDATASIZE DUP3 MSTORE RETURNDATASIZE PUSH0 PUSH1 0x20 DUP5 ADD RETURNDATACOPY PUSH2 0x521 JUMP JUMPDEST PUSH1 0x60 SWAP2 POP JUMPDEST POP SWAP2 POP SWAP2 POP DUP2 ISZERO PUSH2 0x594 JUMPI PUSH0 DUP1 PUSH0 DUP1 DUP5 DUP1 PUSH1 0x20 ADD SWAP1 MLOAD DUP2 ADD SWAP1 PUSH2 0x544 SWAP2 SWAP1 PUSH2 0x1EC2 JUMP JUMPDEST SWAP4 POP SWAP4 POP SWAP4 POP SWAP4 POP PUSH1 0x40 MLOAD DUP1 PUSH1 0x80 ADD PUSH1 0x40 MSTORE DUP1 DUP6 DUP2 MSTORE PUSH1 0x20 ADD DUP5 DUP2 MSTORE PUSH1 0x20 ADD DUP4 DUP2 MSTORE PUSH1 0x20 ADD DUP3 DUP2 MSTORE POP DUP10 DUP10 DUP2 MLOAD DUP2 LT PUSH2 0x580 JUMPI PUSH2 0x57F PUSH2 0x17BE JUMP JUMPDEST JUMPDEST PUSH1 0x20 MUL PUSH1 0x20 ADD ADD DUP2 SWAP1 MSTORE POP POP POP POP POP PUSH2 0x5F8 JUMP JUMPDEST PUSH2 0x59D DUP5 PUSH2 0xB1C JUMP JUMPDEST PUSH1 0x40 MLOAD PUSH1 0x20 ADD PUSH2 0x5AD SWAP2 SWAP1 PUSH2 0x1B40 JUMP JUMPDEST PUSH1 0x40 MLOAD PUSH1 0x20 DUP2 DUP4 SUB SUB DUP2 MSTORE SWAP1 PUSH1 0x40 MSTORE PUSH1 0x40 MLOAD PUSH32 0x8C379A000000000000000000000000000000000000000000000000000000000 DUP2 MSTORE PUSH1 0x4 ADD PUSH2 0x5EF SWAP2 SWAP1 PUSH2 0x1BB9 JUMP JUMPDEST PUSH1 0x40 MLOAD DUP1 SWAP2 SUB SWAP1 REVERT JUMPDEST POP POP POP DUP1 DUP1 PUSH1 0x1 ADD SWAP2 POP POP PUSH2 0x3DF JUMP JUMPDEST POP DUP1 SWAP3 POP POP POP SWAP4 SWAP3 POP POP POP JUMP JUMPDEST PUSH1 0x60 PUSH0 DUP4 DUP4 SWAP1 POP SWAP1 POP PUSH0 DUP2 PUSH8 0xFFFFFFFFFFFFFFFF DUP2 GT ISZERO PUSH2 0x639 JUMPI PUSH2 0x638 PUSH2 0x1791 JUMP JUMPDEST JUMPDEST PUSH1 0x40 MLOAD SWAP1 DUP1 DUP3 MSTORE DUP1 PUSH1 0x20 MUL PUSH1 0x20 ADD DUP3 ADD PUSH1 0x40 MSTORE DUP1 ISZERO PUSH2 0x672 JUMPI DUP2 PUSH1 0x20 ADD JUMPDEST PUSH2 0x65F PUSH2 0xD9D JUMP JUMPDEST DUP2 MSTORE PUSH1 0x20 ADD SWAP1 PUSH1 0x1 SWAP1 SUB SWAP1 DUP2 PUSH2 0x657 JUMPI SWAP1 POP JUMPDEST POP SWAP1 POP PUSH0 JUMPDEST DUP3 DUP2 LT ISZERO PUSH2 0x877 JUMPI PUSH0 PUSH4 0xC6A5026A PUSH1 0xE0 SHL DUP8 DUP8 DUP5 DUP2 DUP2 LT PUSH2 0x69B JUMPI PUSH2 0x69A PUSH2 0x17BE JUMP JUMPDEST JUMPDEST SWAP1 POP PUSH1 0xA0 MUL ADD PUSH1 0x40 MLOAD PUSH1 0x24 ADD PUSH2 0x6B1 SWAP2 SWAP1 PUSH2 0x1FEC JUMP JUMPDEST PUSH1 0x40 MLOAD PUSH1 0x20 DUP2 DUP4 SUB SUB DUP2 MSTORE SWAP1 PUSH1 0x40 MSTORE SWAP1 PUSH28 0xFFFFFFFFFFFFFFFFFFFFFFFFFFFFFFFFFFFFFFFFFFFFFFFFFFFFFFFF NOT AND PUSH1 0x20 DUP3 ADD DUP1 MLOAD PUSH28 0xFFFFFFFFFFFFFFFFFFFFFFFFFFFFFFFFFFFFFFFFFFFFFFFFFFFFFFFF DUP4 DUP2 DUP4 AND OR DUP4 MSTORE POP POP POP POP SWAP1 POP PUSH0 DUP1 DUP10 PUSH20 0xFFFFFFFFFFFFFFFFFFFFFFFFFFFFFFFFFFFFFFFF AND DUP4 PUSH1 0x40 MLOAD PUSH2 0x737 SWAP2 SWAP1 PUSH2 0x19E6 JUMP JUMPDEST PUSH0 PUSH1 0x40 MLOAD DUP1 DUP4 SUB DUP2 DUP6 GAS STATICCALL SWAP2 POP POP RETURNDATASIZE DUP1 PUSH0 DUP2 EQ PUSH2 0x76F JUMPI PUSH1 0x40 MLOAD SWAP2 POP PUSH1 0x1F NOT PUSH1 0x3F RETURNDATASIZE ADD AND DUP3 ADD PUSH1 0x40 MSTORE RETURNDATASIZE DUP3 MSTORE RETURNDATASIZE PUSH0 PUSH1 0x20 DUP5 ADD RETURNDATACOPY PUSH2 0x774 JUMP JUMPDEST PUSH1 0x60 SWAP2 POP JUMPDEST POP SWAP2 POP SWAP2 POP DUP2 ISZERO PUSH2 0x803 JUMPI PUSH0 DUP1 PUSH0 DUP1 DUP5 DUP1 PUSH1 0x20 ADD SWAP1 MLOAD DUP2 ADD SWAP1 PUSH2 0x797 SWAP2 SWAP1 PUSH2 0x1A4E JUMP JUMPDEST SWAP4 POP SWAP4 POP SWAP4 POP SWAP4 POP PUSH1 0x40 MLOAD DUP1 PUSH1 0x80 ADD PUSH1 0x40 MSTORE DUP1 DUP6 DUP2 MSTORE PUSH1 0x20 ADD DUP5 PUSH20 0xFFFFFFFFFFFFFFFFFFFFFFFFFFFFFFFFFFFFFFFF AND DUP2 MSTORE PUSH1 0x20 ADD DUP4 PUSH4 0xFFFFFFFF AND DUP2 MSTORE PUSH1 0x20 ADD DUP3 DUP2 MSTORE POP DUP10 DUP10 DUP2 MLOAD DUP2 LT PUSH2 0x7EF JUMPI PUSH2 0x7EE PUSH2 0x17BE JUMP JUMPDEST JUMPDEST PUSH1 0x20 MUL PUSH1 0x20 ADD ADD DUP2 SWAP1 MSTORE POP POP POP POP POP PUSH2 0x867 JUMP JUMPDEST PUSH2 0x80C DUP5 PUSH2 0xB1C JUMP JUMPDEST PUSH1 0x40 MLOAD PUSH1 0x20 ADD PUSH2 0x81C SWAP2 SWAP1 PUSH2 0x1B40 JUMP JUMPDEST PUSH1 0x40 MLOAD PUSH1 0x20 DUP2 DUP4 SUB SUB DUP2 MSTORE SWAP1 PUSH1 0x40 MSTORE PUSH1 0x40 MLOAD PUSH32 0x8C379A000000000000000000000000000000000000000000000000000000000 DUP2 MSTORE PUSH1 0x4 ADD PUSH2 0x85E SWAP2 SWAP1 PUSH2 0x1BB9 JUMP JUMPDEST PUSH1 0x40 MLOAD DUP1 SWAP2 SUB SWAP1 REVERT JUMPDEST POP POP POP DUP1 DUP1 PUSH1 0x1 ADD SWAP2 POP POP PUSH2 0x677 JUMP JUMPDEST POP DUP1 SWAP3 POP POP POP SWAP4 SWAP3 POP POP POP JUMP JUMPDEST PUSH1 0x60 PUSH0 DUP4 DUP4 SWAP1 POP SWAP1 POP PUSH0 DUP2 PUSH8 0xFFFFFFFFFFFFFFFF DUP2 GT ISZERO PUSH2 0x8A8 JUMPI PUSH2 0x8A7 PUSH2 0x1791 JUMP JUMPDEST JUMPDEST PUSH1 0x40 MLOAD SWAP1 DUP1 DUP3 MSTORE DUP1 PUSH1 0x20 MUL PUSH1 0x20 ADD DUP3 ADD PUSH1 0x40 MSTORE DUP1 ISZERO PUSH2 0x8E1 JUMPI DUP2 PUSH1 0x20 ADD JUMPDEST PUSH2 0x8CE PUSH2 0xDDD JUMP JUMPDEST DUP2 MSTORE PUSH1 0x20 ADD SWAP1 PUSH1 0x1 SWAP1 SUB SWAP1 DUP2 PUSH2 0x8C6 JUMPI SWAP1 POP JUMPDEST POP SWAP1 POP PUSH0 JUMPDEST DUP3 DUP2 LT ISZERO PUSH2 0xB0F JUMPI PUSH0 PUSH4 0xCDCA1753 PUSH1 0xE0 SHL DUP8 DUP8 DUP5 DUP2 DUP2 LT PUSH2 0x90A JUMPI PUSH2 0x909 PUSH2 0x17BE JUMP JUMPDEST JUMPDEST SWAP1 POP PUSH1 0x20 MUL DUP2 ADD SWAP1 PUSH2 0x91C SWAP2 SWAP1 PUSH2 0x2005 JUMP JUMPDEST DUP1 PUSH0 ADD SWAP1 PUSH2 0x92A SWAP2 SWAP1 PUSH2 0x1C0C JUMP JUMPDEST DUP10 DUP10 DUP7 DUP2 DUP2 LT PUSH2 0x93D JUMPI PUSH2 0x93C PUSH2 0x17BE JUMP JUMPDEST JUMPDEST SWAP1 POP PUSH1 0x20 MUL DUP2 ADD SWAP1 PUSH2 0x94F SWAP2 SWAP1 PUSH2 0x2005 JUMP JUMPDEST PUSH1 0x20 ADD CALLDATALOAD PUSH1 0x40 MLOAD PUSH1 0x24 ADD PUSH2 0x965 SWAP4 SWAP3 SWAP2 SWAP1 PUSH2 0x1CC7 JUMP JUMPDEST PUSH1 0x40 MLOAD PUSH1 0x20 DUP2 DUP4 SUB SUB DUP2 MSTORE SWAP1 PUSH1 0x40 MSTORE SWAP1 PUSH28 0xFFFFFFFFFFFFFFFFFFFFFFFFFFFFFFFFFFFFFFFFFFFFFFFFFFFFFFFF NOT AND PUSH1 0x20 DUP3 ADD DUP1 MLOAD PUSH28 0xFFFFFFFFFFFFFFFFFFFFFFFFFFFFFFFFFFFFFFFFFFFFFFFFFFFFFFFF DUP4 DUP2 DUP4 AND OR DUP4 MSTORE POP POP POP POP SWAP1 POP PUSH0 DUP1 DUP10 PUSH20 0xFFFFFFFFFFFFFFFFFFFFFFFFFFFFFFFFFFFFFFFF AND DUP4 PUSH1 0x40 MLOAD PUSH2 0x9EB SWAP2 SWAP1 PUSH2 0x19E6 JUMP JUMPDEST PUSH0 PUSH1 0x40 MLOAD DUP1 DUP4 SUB DUP2 DUP6 GAS STATICCALL SWAP2 POP POP RETURNDATASIZE DUP1 PUSH0 DUP2 EQ PUSH2 0xA23 JUMPI PUSH1 0x40 MLOAD SWAP2 POP PUSH1 0x1F NOT PUSH1 0x3F RETURNDATASIZE ADD AND DUP3 ADD PUSH1 0x40 MSTORE RETURNDATASIZE DUP3 MSTORE RETURNDATASIZE PUSH0 PUSH1 0x20 DUP5 ADD RETURNDATACOPY PUSH2 0xA28 JUMP JUMPDEST PUSH1 0x60 SWAP2 POP JUMPDEST POP SWAP2 POP SWAP2 POP DUP2 ISZERO PUSH2 0xA9B JUMPI PUSH0 DUP1 PUSH0 DUP1 DUP5 DUP1 PUSH1 0x20 ADD SWAP1 MLOAD DUP2 ADD SWAP1 PUSH2 0xA4B SWAP2 SWAP1 PUSH2 0x1EC2 JUMP JUMPDEST SWAP4 POP SWAP4 POP SWAP4 POP SWAP4 POP PUSH1 0x40 MLOAD DUP1 PUSH1 0x80 ADD PUSH1 0x40 MSTORE DUP1 DUP6 DUP2 MSTORE PUSH1 0x20 ADD DUP5 DUP2 MSTORE PUSH1 0x20 ADD DUP4 DUP2 MSTORE PUSH1 0x20 ADD DUP3 DUP2 MSTORE POP DUP10 DUP10 DUP2 MLOAD DUP2 LT PUSH2 0xA87 JUMPI PUSH2 0xA86 PUSH2 0x17BE JUMP JUMPDEST JUMPDEST PUSH1 0x20 MUL PUSH1 0x20 ADD ADD DUP2 SWAP1 MSTORE POP POP POP POP POP PUSH2 0xAFF JUMP JUMPDEST PUSH2 0xAA4 DUP5 PUSH2 0xB1C JUMP JUMPDEST PUSH1 0x40 MLOAD PUSH1 0x20 ADD PUSH2 0xAB4 SWAP2 SWAP1 PUSH2 0x1B40 JUMP JUMPDEST PUSH1 0x40 MLOAD PUSH1 0x20 DUP2 DUP4 SUB SUB DUP2 MSTORE SWAP1 PUSH1 0x40 MSTORE PUSH1 0x40 MLOAD PUSH32 0x8C379A000000000000000000000000000000000000000000000000000000000 DUP2 MSTORE PUSH1 0x4 ADD PUSH2 0xAF6 SWAP2 SWAP1 PUSH2 0x1BB9 JUMP JUMPDEST PUSH1 0x40 MLOAD DUP1 SWAP2 SUB SWAP1 REVERT JUMPDEST POP POP POP DUP1 DUP1 PUSH1 0x1 ADD SWAP2 POP POP PUSH2 0x8E6 JUMP JUMPDEST POP DUP1 SWAP3 POP POP POP SWAP4 SWAP3 POP POP POP JUMP JUMPDEST PUSH1 0x60 PUSH0 PUSH1 0x1 PUSH2 0xB2A DUP5 PUSH2 0xBE6 JUMP JUMPDEST ADD SWAP1 POP PUSH0 DUP2 PUSH8 0xFFFFFFFFFFFFFFFF DUP2 GT ISZERO PUSH2 0xB48 JUMPI PUSH2 0xB47 PUSH2 0x1791 JUMP JUMPDEST JUMPDEST PUSH1 0x40 MLOAD SWAP1 DUP1 DUP3 MSTORE DUP1 PUSH1 0x1F ADD PUSH1 0x1F NOT AND PUSH1 0x20 ADD DUP3 ADD PUSH1 0x40 MSTORE DUP1 ISZERO PUSH2 0xB7A JUMPI DUP2 PUSH1 0x20 ADD PUSH1 0x1 DUP3 MUL DUP1 CALLDATASIZE DUP4 CALLDATACOPY DUP1 DUP3 ADD SWAP2 POP POP SWAP1 POP JUMPDEST POP SWAP1 POP PUSH0 DUP3 PUSH1 0x20 ADD DUP3 ADD SWAP1 POP JUMPDEST PUSH1 0x1 ISZERO PUSH2 0xBDB JUMPI DUP1 DUP1 PUSH1 0x1 SWAP1 SUB SWAP2 POP POP PUSH32 0x3031323334353637383961626364656600000000000000000000000000000000 PUSH1 0xA DUP7 MOD BYTE DUP2 MSTORE8 PUSH1 0xA DUP6 DUP2 PUSH2 0xBD0 JUMPI PUSH2 0xBCF PUSH2 0x202C JUMP JUMPDEST JUMPDEST DIV SWAP5 POP PUSH0 DUP6 SUB PUSH2 0xB87 JUMPI JUMPDEST DUP2 SWAP4 POP POP POP POP SWAP2 SWAP1 POP JUMP JUMPDEST PUSH0 DUP1 PUSH0 SWAP1 POP PUSH27 0x184F03E93FF9F4DAA797ED6E38ED64BF6A1F010000000000000000 DUP4 LT PUSH2 0xC42 JUMPI PUSH27 0x184F03E93FF9F4DAA797ED6E38ED64BF6A1F010000000000000000 DUP4 DUP2 PUSH2 0xC38 JUMPI PUSH2 0xC37 PUSH2 0x202C JUMP JUMPDEST JUMPDEST DIV SWAP3 POP PUSH1 0x40 DUP2 ADD SWAP1 POP JUMPDEST PUSH14 0x4EE2D6D415B85ACEF8100000000 DUP4 LT PUSH2 0xC7F JUMPI PUSH14 0x4EE2D6D415B85ACEF8100000000 DUP4 DUP2 PUSH2 0xC75 JUMPI PUSH2 0xC74 PUSH2 0x202C JUMP JUMPDEST JUMPDEST DIV SWAP3 POP PUSH1 0x20 DUP2 ADD SWAP1 POP JUMPDEST PUSH7 0x2386F26FC10000 DUP4 LT PUSH2 0xCAE JUMPI PUSH7 0x2386F26FC10000 DUP4 DUP2 PUSH2 0xCA4 JUMPI PUSH2 0xCA3 PUSH2 0x202C JUMP JUMPDEST JUMPDEST DIV SWAP3 POP PUSH1 0x10 DUP2 ADD SWAP1 POP JUMPDEST PUSH4 0x5F5E100 DUP4 LT PUSH2 0xCD7 JUMPI PUSH4 0x5F5E100 DUP4 DUP2 PUSH2 0xCCD JUMPI PUSH2 0xCCC PUSH2 0x202C JUMP JUMPDEST JUMPDEST DIV SWAP3 POP PUSH1 0x8 DUP2 ADD SWAP1 POP JUMPDEST PUSH2 0x2710 DUP4 LT PUSH2 0xCFC JUMPI PUSH2 0x2710 DUP4 DUP2 PUSH2 0xCF2 JUMPI PUSH2 0xCF1 PUSH2 0x202C JUMP JUMPDEST JUMPDEST DIV SWAP3 POP PUSH1 0x4 DUP2 ADD SWAP1 POP JUMPDEST PUSH1 0x64 DUP4 LT PUSH2 0xD1F JUMPI PUSH1 0x64 DUP4 DUP2 PUSH2 0xD15 JUMPI PUSH2 0xD14 PUSH2 0x202C JUMP JUMPDEST JUMPDEST DIV SWAP3 POP PUSH1 0x2 DUP2 ADD SWAP1 POP JUMPDEST PUSH1 0xA DUP4 LT PUSH2 0xD2E JUMPI PUSH1 0x1 DUP2 ADD SWAP1 POP JUMPDEST DUP1 SWAP2 POP POP SWAP2 SWAP1 POP JUMP JUMPDEST PUSH1 0x40 MLOAD DUP1 PUSH1 0x80 ADD PUSH1 0x40 MSTORE DUP1 PUSH0 DUP2 MSTORE PUSH1 0x20 ADD PUSH0 PUSH20 0xFFFFFFFFFFFFFFFFFFFFFFFFFFFFFFFFFFFFFFFF AND DUP2 MSTORE PUSH1 0x20 ADD PUSH0 PUSH4 0xFFFFFFFF AND DUP2 MSTORE PUSH1 0x20 ADD PUSH0 DUP2 MSTORE POP SWAP1 JUMP JUMPDEST PUSH1 0x40 MLOAD DUP1 PUSH1 0x80 ADD PUSH1 0x40 MSTORE DUP1 PUSH0 DUP2 MSTORE PUSH1 0x20 ADD PUSH1 0x60 DUP2 MSTORE PUSH1 0x20 ADD PUSH1 0x60 DUP2 MSTORE PUSH1 0x20 ADD PUSH0 DUP2 MSTORE POP SWAP1 JUMP JUMPDEST PUSH1 0x40 MLOAD DUP1 PUSH1 0x80 ADD PUSH1 0x40 MSTORE DUP1 PUSH0 DUP2 MSTORE PUSH1 0x20 ADD PUSH0 PUSH20 0xFFFFFFFFFFFFFFFFFFFFFFFFFFFFFFFFFFFFFFFF AND DUP2 MSTORE PUSH1 0x20 ADD PUSH0 PUSH4 0xFFFFFFFF AND DUP2 MSTORE PUSH1 0x20 ADD PUSH0 DUP2 MSTORE POP SWAP1 JUMP JUMPDEST PUSH1 0x40 MLOAD DUP1 PUSH1 0x80 ADD PUSH1 0x40 MSTORE DUP1 PUSH0 DUP2 MSTORE PUSH1 0x20 ADD PUSH1 0x60 DUP2 MSTORE PUSH1 0x20 ADD PUSH1 0x60 DUP2 MSTORE PUSH1 0x20 ADD PUSH0 DUP2 MSTORE POP SWAP1 JUMP JUMPDEST PUSH0 PUSH1 0x40 MLOAD SWAP1 POP SWAP1 JUMP JUMPDEST PUSH0 DUP1 REVERT JUMPDEST PUSH0 DUP1 REVERT JUMPDEST PUSH0 PUSH20 0xFFFFFFFFFFFFFFFFFFFFFFFFFFFFFFFFFFFFFFFF DUP3 AND SWAP1 POP SWAP2 SWAP1 POP JUMP JUMPDEST PUSH0 PUSH2 0xE3D DUP3 PUSH2 0xE14 JUMP JUMPDEST SWAP1 POP SWAP2 SWAP1 POP JUMP JUMPDEST PUSH2 0xE4D DUP2 PUSH2 0xE33 JUMP JUMPDEST DUP2 EQ PUSH2 0xE57 JUMPI PUSH0 DUP1 REVERT JUMPDEST POP JUMP JUMPDEST PUSH0 DUP2 CALLDATALOAD SWAP1 POP PUSH2 0xE68 DUP2 PUSH2 0xE44 JUMP JUMPDEST SWAP3 SWAP2 POP POP JUMP JUMPDEST PUSH0 DUP1 REVERT JUMPDEST PUSH0 DUP1 REVERT JUMPDEST PUSH0 DUP1 REVERT JUMPDEST PUSH0 DUP1 DUP4 PUSH1 0x1F DUP5 ADD SLT PUSH2 0xE8F JUMPI PUSH2 0xE8E PUSH2 0xE6E JUMP JUMPDEST JUMPDEST DUP3 CALLDATALOAD SWAP1 POP PUSH8 0xFFFFFFFFFFFFFFFF DUP2 GT ISZERO PUSH2 0xEAC JUMPI PUSH2 0xEAB PUSH2 0xE72 JUMP JUMPDEST JUMPDEST PUSH1 0x20 DUP4 ADD SWAP2 POP DUP4 PUSH1 0xA0 DUP3 MUL DUP4 ADD GT ISZERO PUSH2 0xEC8 JUMPI PUSH2 0xEC7 PUSH2 0xE76 JUMP JUMPDEST JUMPDEST SWAP3 POP SWAP3 SWAP1 POP JUMP JUMPDEST PUSH0 DUP1 PUSH0 PUSH1 0x40 DUP5 DUP7 SUB SLT ISZERO PUSH2 0xEE6 JUMPI PUSH2 0xEE5 PUSH2 0xE0C JUMP JUMPDEST JUMPDEST PUSH0 PUSH2 0xEF3 DUP7 DUP3 DUP8 ADD PUSH2 0xE5A JUMP JUMPDEST SWAP4 POP POP PUSH1 0x20 DUP5 ADD CALLDATALOAD PUSH8 0xFFFFFFFFFFFFFFFF DUP2 GT ISZERO PUSH2 0xF14 JUMPI PUSH2 0xF13 PUSH2 0xE10 JUMP JUMPDEST JUMPDEST PUSH2 0xF20 DUP7 DUP3 DUP8 ADD PUSH2 0xE7A JUMP JUMPDEST SWAP3 POP SWAP3 POP POP SWAP3 POP SWAP3 POP SWAP3 JUMP JUMPDEST PUSH0 DUP2 MLOAD SWAP1 POP SWAP2 SWAP1 POP JUMP JUMPDEST PUSH0 DUP3 DUP3 MSTORE PUSH1 0x20 DUP3 ADD SWAP1 POP SWAP3 SWAP2 POP POP JUMP JUMPDEST PUSH0 DUP2 SWAP1 POP PUSH1 0x20 DUP3 ADD SWAP1 POP SWAP2 SWAP1 POP JUMP JUMPDEST PUSH0 DUP2 SWAP1 POP SWAP2 SWAP1 POP JUMP JUMPDEST PUSH2 0xF67 DUP2 PUSH2 0xF55 JUMP JUMPDEST DUP3 MSTORE POP POP JUMP JUMPDEST PUSH2 0xF76 DUP2 PUSH2 0xE14 JUMP JUMPDEST DUP3 MSTORE POP POP JUMP JUMPDEST PUSH0 PUSH4 0xFFFFFFFF DUP3 AND SWAP1 POP SWAP2 SWAP1 POP JUMP JUMPDEST PUSH2 0xF94 DUP2 PUSH2 0xF7C JUMP JUMPDEST DUP3 MSTORE POP POP JUMP JUMPDEST PUSH1 0x80 DUP3 ADD PUSH0 DUP3 ADD MLOAD PUSH2 0xFAE PUSH0 DUP6 ADD DUP3 PUSH2 0xF5E JUMP JUMPDEST POP PUSH1 0x20 DUP3 ADD MLOAD PUSH2 0xFC1 PUSH1 0x20 DUP6 ADD DUP3 PUSH2 0xF6D JUMP JUMPDEST POP PUSH1 0x40 DUP3 ADD MLOAD PUSH2 0xFD4 PUSH1 0x40 DUP6 ADD DUP3 PUSH2 0xF8B JUMP JUMPDEST POP PUSH1 0x60 DUP3 ADD MLOAD PUSH2 0xFE7 PUSH1 0x60 DUP6 ADD DUP3 PUSH2 0xF5E JUMP JUMPDEST POP POP POP POP JUMP JUMPDEST PUSH0 PUSH2 0xFF8 DUP4 DUP4 PUSH2 0xF9A JUMP JUMPDEST PUSH1 0x80 DUP4 ADD SWAP1 POP SWAP3 SWAP2 POP POP JUMP JUMPDEST PUSH0 PUSH1 0x20 DUP3 ADD SWAP1 POP SWAP2 SWAP1 POP JUMP JUMPDEST PUSH0 PUSH2 0x101A DUP3 PUSH2 0xF2C JUMP JUMPDEST PUSH2 0x1024 DUP2 DUP6 PUSH2 0xF36 JUMP JUMPDEST SWAP4 POP PUSH2 0x102F DUP4 PUSH2 0xF46 JUMP JUMPDEST DUP1 PUSH0 JUMPDEST DUP4 DUP2 LT ISZERO PUSH2 0x105F JUMPI DUP2 MLOAD PUSH2 0x1046 DUP9 DUP3 PUSH2 0xFED JUMP JUMPDEST SWAP8 POP PUSH2 0x1051 DUP4 PUSH2 0x1004 JUMP JUMPDEST SWAP3 POP POP PUSH1 0x1 DUP2 ADD SWAP1 POP PUSH2 0x1032 JUMP JUMPDEST POP DUP6 SWAP4 POP POP POP POP SWAP3 SWAP2 POP POP JUMP JUMPDEST PUSH0 PUSH1 0x20 DUP3 ADD SWAP1 POP DUP2 DUP2 SUB PUSH0 DUP4 ADD MSTORE PUSH2 0x1084 DUP2 DUP5 PUSH2 0x1010 JUMP JUMPDEST SWAP1 POP SWAP3 SWAP2 POP POP JUMP JUMPDEST PUSH0 DUP1 DUP4 PUSH1 0x1F DUP5 ADD SLT PUSH2 0x10A1 JUMPI PUSH2 0x10A0 PUSH2 0xE6E JUMP JUMPDEST JUMPDEST DUP3 CALLDATALOAD SWAP1 POP PUSH8 0xFFFFFFFFFFFFFFFF DUP2 GT ISZERO PUSH2 0x10BE JUMPI PUSH2 0x10BD PUSH2 0xE72 JUMP JUMPDEST JUMPDEST PUSH1 0x20 DUP4 ADD SWAP2 POP DUP4 PUSH1 0x20 DUP3 MUL DUP4 ADD GT ISZERO PUSH2 0x10DA JUMPI PUSH2 0x10D9 PUSH2 0xE76 JUMP JUMPDEST JUMPDEST SWAP3 POP SWAP3 SWAP1 POP JUMP JUMPDEST PUSH0 DUP1 PUSH0 PUSH1 0x40 DUP5 DUP7 SUB SLT ISZERO PUSH2 0x10F8 JUMPI PUSH2 0x10F7 PUSH2 0xE0C JUMP JUMPDEST JUMPDEST PUSH0 PUSH2 0x1105 DUP7 DUP3 DUP8 ADD PUSH2 0xE5A JUMP JUMPDEST SWAP4 POP POP PUSH1 0x20 DUP5 ADD CALLDATALOAD PUSH8 0xFFFFFFFFFFFFFFFF DUP2 GT ISZERO PUSH2 0x1126 JUMPI PUSH2 0x1125 PUSH2 0xE10 JUMP JUMPDEST JUMPDEST PUSH2 0x1132 DUP7 DUP3 DUP8 ADD PUSH2 0x108C JUMP JUMPDEST SWAP3 POP SWAP3 POP POP SWAP3 POP SWAP3 POP SWAP3 JUMP JUMPDEST PUSH0 DUP2 MLOAD SWAP1 POP SWAP2 SWAP1 POP JUMP JUMPDEST PUSH0 DUP3 DUP3 MSTORE PUSH1 0x20 DUP3 ADD SWAP1 POP SWAP3 SWAP2 POP POP JUMP JUMPDEST PUSH0 DUP2 SWAP1 POP PUSH1 0x20 DUP3 ADD SWAP1 POP SWAP2 SWAP1 POP JUMP JUMPDEST PUSH0 DUP2 MLOAD SWAP1 POP SWAP2 SWAP1 POP JUMP JUMPDEST PUSH0 DUP3 DUP3 MSTORE PUSH1 0x20 DUP3 ADD SWAP1 POP SWAP3 SWAP2 POP POP JUMP JUMPDEST PUSH0 DUP2 SWAP1 POP PUSH1 0x20 DUP3 ADD SWAP1 POP SWAP2 SWAP1 POP JUMP JUMPDEST PUSH0 PUSH2 0x119B DUP4 DUP4 PUSH2 0xF6D JUMP JUMPDEST PUSH1 0x20 DUP4 ADD SWAP1 POP SWAP3 SWAP2 POP POP JUMP JUMPDEST PUSH0 PUSH1 0x20 DUP3 ADD SWAP1 POP SWAP2 SWAP1 POP JUMP JUMPDEST PUSH0 PUSH2 0x11BD DUP3 PUSH2 0x1167 JUMP JUMPDEST PUSH2 0x11C7 DUP2 DUP6 PUSH2 0x1171 JUMP JUMPDEST SWAP4 POP PUSH2 0x11D2 DUP4 PUSH2 0x1181 JUMP JUMPDEST DUP1 PUSH0 JUMPDEST DUP4 DUP2 LT ISZERO PUSH2 0x1202 JUMPI DUP2 MLOAD PUSH2 0x11E9 DUP9 DUP3 PUSH2 0x1190 JUMP JUMPDEST SWAP8 POP PUSH2 0x11F4 DUP4 PUSH2 0x11A7 JUMP JUMPDEST SWAP3 POP POP PUSH1 0x1 DUP2 ADD SWAP1 POP PUSH2 0x11D5 JUMP JUMPDEST POP DUP6 SWAP4 POP POP POP POP SWAP3 SWAP2 POP POP JUMP JUMPDEST PUSH0 DUP2 MLOAD SWAP1 POP SWAP2 SWAP1 POP JUMP JUMPDEST PUSH0 DUP3 DUP3 MSTORE PUSH1 0x20 DUP3 ADD SWAP1 POP SWAP3 SWAP2 POP POP JUMP JUMPDEST PUSH0 DUP2 SWAP1 POP PUSH1 0x20 DUP3 ADD SWAP1 POP SWAP2 SWAP1 POP JUMP JUMPDEST PUSH0 PUSH2 0x1243 DUP4 DUP4 PUSH2 0xF8B JUMP JUMPDEST PUSH1 0x20 DUP4 ADD SWAP1 POP SWAP3 SWAP2 POP POP JUMP JUMPDEST PUSH0 PUSH1 0x20 DUP3 ADD SWAP1 POP SWAP2 SWAP1 POP JUMP JUMPDEST PUSH0 PUSH2 0x1265 DUP3 PUSH2 0x120F JUMP JUMPDEST PUSH2 0x126F DUP2 DUP6 PUSH2 0x1219 JUMP JUMPDEST SWAP4 POP PUSH2 0x127A DUP4 PUSH2 0x1229 JUMP JUMPDEST DUP1 PUSH0 JUMPDEST DUP4 DUP2 LT ISZERO PUSH2 0x12AA JUMPI DUP2 MLOAD PUSH2 0x1291 DUP9 DUP3 PUSH2 0x1238 JUMP JUMPDEST SWAP8 POP PUSH2 0x129C DUP4 PUSH2 0x124F JUMP JUMPDEST SWAP3 POP POP PUSH1 0x1 DUP2 ADD SWAP1 POP PUSH2 0x127D JUMP JUMPDEST POP DUP6 SWAP4 POP POP POP POP SWAP3 SWAP2 POP POP JUMP JUMPDEST PUSH0 PUSH1 0x80 DUP4 ADD PUSH0 DUP4 ADD MLOAD PUSH2 0x12CC PUSH0 DUP7 ADD DUP3 PUSH2 0xF5E JUMP JUMPDEST POP PUSH1 0x20 DUP4 ADD MLOAD DUP5 DUP3 SUB PUSH1 0x20 DUP7 ADD MSTORE PUSH2 0x12E4 DUP3 DUP3 PUSH2 0x11B3 JUMP JUMPDEST SWAP2 POP POP PUSH1 0x40 DUP4 ADD MLOAD DUP5 DUP3 SUB PUSH1 0x40 DUP7 ADD MSTORE PUSH2 0x12FE DUP3 DUP3 PUSH2 0x125B JUMP JUMPDEST SWAP2 POP POP PUSH1 0x60 DUP4 ADD MLOAD PUSH2 0x1313 PUSH1 0x60 DUP7 ADD DUP3 PUSH2 0xF5E JUMP JUMPDEST POP DUP1 SWAP2 POP POP SWAP3 SWAP2 POP POP JUMP JUMPDEST PUSH0 PUSH2 0x1329 DUP4 DUP4 PUSH2 0x12B7 JUMP JUMPDEST SWAP1 POP SWAP3 SWAP2 POP POP JUMP JUMPDEST PUSH0 PUSH1 0x20 DUP3 ADD SWAP1 POP SWAP2 SWAP1 POP JUMP JUMPDEST PUSH0 PUSH2 0x1347 DUP3 PUSH2 0x113E JUMP JUMPDEST PUSH2 0x1351 DUP2 DUP6 PUSH2 0x1148 JUMP JUMPDEST SWAP4 POP DUP4 PUSH1 0x20 DUP3 MUL DUP6 ADD PUSH2 0x1363 DUP6 PUSH2 0x1158 JUMP JUMPDEST DUP1 PUSH0 JUMPDEST DUP6 DUP2 LT ISZERO PUSH2 0x139E JUMPI DUP5 DUP5 SUB DUP10 MSTORE DUP2 MLOAD PUSH2 0x137F DUP6 DUP3 PUSH2 0x131E JUMP JUMPDEST SWAP5 POP PUSH2 0x138A DUP4 PUSH2 0x1331 JUMP JUMPDEST SWAP3 POP PUSH1 0x20 DUP11 ADD SWAP10 POP POP PUSH1 0x1 DUP2 ADD SWAP1 POP PUSH2 0x1366 JUMP JUMPDEST POP DUP3 SWAP8 POP DUP8 SWAP6 POP POP POP POP POP POP SWAP3 SWAP2 POP POP JUMP JUMPDEST PUSH0 PUSH1 0x20 DUP3 ADD SWAP1 POP DUP2 DUP2 SUB PUSH0 DUP4 ADD MSTORE PUSH2 0x13C8 DUP2 DUP5 PUSH2 0x133D JUMP JUMPDEST SWAP1 POP SWAP3 SWAP2 POP POP JUMP JUMPDEST PUSH0 DUP1 DUP4 PUSH1 0x1F DUP5 ADD SLT PUSH2 0x13E5 JUMPI PUSH2 0x13E4 PUSH2 0xE6E JUMP JUMPDEST JUMPDEST DUP3 CALLDATALOAD SWAP1 POP PUSH8 0xFFFFFFFFFFFFFFFF DUP2 GT ISZERO PUSH2 0x1402 JUMPI PUSH2 0x1401 PUSH2 0xE72 JUMP JUMPDEST JUMPDEST PUSH1 0x20 DUP4 ADD SWAP2 POP DUP4 PUSH1 0xA0 DUP3 MUL DUP4 ADD GT ISZERO PUSH2 0x141E JUMPI PUSH2 0x141D PUSH2 0xE76 JUMP JUMPDEST JUMPDEST SWAP3 POP SWAP3 SWAP1 POP JUMP JUMPDEST PUSH0 DUP1 PUSH0 PUSH1 0x40 DUP5 DUP7 SUB SLT ISZERO PUSH2 0x143C JUMPI PUSH2 0x143B PUSH2 0xE0C JUMP JUMPDEST JUMPDEST PUSH0 PUSH2 0x1449 DUP7 DUP3 DUP8 ADD PUSH2 0xE5A JUMP JUMPDEST SWAP4 POP POP PUSH1 0x20 DUP5 ADD CALLDATALOAD PUSH8 0xFFFFFFFFFFFFFFFF DUP2 GT ISZERO PUSH2 0x146A JUMPI PUSH2 0x1469 PUSH2 0xE10 JUMP JUMPDEST JUMPDEST PUSH2 0x1476 DUP7 DUP3 DUP8 ADD PUSH2 0x13D0 JUMP JUMPDEST SWAP3 POP SWAP3 POP POP SWAP3 POP SWAP3 POP SWAP3 JUMP JUMPDEST PUSH0 DUP2 MLOAD SWAP1 POP SWAP2 SWAP1 POP JUMP JUMPDEST PUSH0 DUP3 DUP3 MSTORE PUSH1 0x20 DUP3 ADD SWAP1 POP SWAP3 SWAP2 POP POP JUMP JUMPDEST PUSH0 DUP2 SWAP1 POP PUSH1 0x20 DUP3 ADD SWAP1 POP SWAP2 SWAP1 POP JUMP JUMPDEST PUSH1 0x80 DUP3 ADD PUSH0 DUP3 ADD MLOAD PUSH2 0x14BF PUSH0 DUP6 ADD DUP3 PUSH2 0xF5E JUMP JUMPDEST POP PUSH1 0x20 DUP3 ADD MLOAD PUSH2 0x14D2 PUSH1 0x20 DUP6 ADD DUP3 PUSH2 0xF6D JUMP JUMPDEST POP PUSH1 0x40 DUP3 ADD MLOAD PUSH2 0x14E5 PUSH1 0x40 DUP6 ADD DUP3 PUSH2 0xF8B JUMP JUMPDEST POP PUSH1 0x60 DUP3 ADD MLOAD PUSH2 0x14F8 PUSH1 0x60 DUP6 ADD DUP3 PUSH2 0xF5E JUMP JUMPDEST POP POP POP POP JUMP JUMPDEST PUSH0 PUSH2 0x1509 DUP4 DUP4 PUSH2 0x14AB JUMP JUMPDEST PUSH1 0x80 DUP4 ADD SWAP1 POP SWAP3 SWAP2 POP POP JUMP JUMPDEST PUSH0 PUSH1 0x20 DUP3 ADD SWAP1 POP SWAP2 SWAP1 POP JUMP JUMPDEST PUSH0 PUSH2 0x152B DUP3 PUSH2 0x1482 JUMP JUMPDEST PUSH2 0x1535 DUP2 DUP6 PUSH2 0x148C JUMP JUMPDEST SWAP4 POP PUSH2 0x1540 DUP4 PUSH2 0x149C JUMP JUMPDEST DUP1 PUSH0 JUMPDEST DUP4 DUP2 LT ISZERO PUSH2 0x1570 JUMPI DUP2 MLOAD PUSH2 0x1557 DUP9 DUP3 PUSH2 0x14FE JUMP JUMPDEST SWAP8 POP PUSH2 0x1562 DUP4 PUSH2 0x1515 JUMP JUMPDEST SWAP3 POP POP PUSH1 0x1 DUP2 ADD SWAP1 POP PUSH2 0x1543 JUMP JUMPDEST POP DUP6 SWAP4 POP POP POP POP SWAP3 SWAP2 POP POP JUMP JUMPDEST PUSH0 PUSH1 0x20 DUP3 ADD SWAP1 POP DUP2 DUP2 SUB PUSH0 DUP4 ADD MSTORE PUSH2 0x1595 DUP2 DUP5 PUSH2 0x1521 JUMP JUMPDEST SWAP1 POP SWAP3 SWAP2 POP POP JUMP JUMPDEST PUSH0 DUP1 DUP4 PUSH1 0x1F DUP5 ADD SLT PUSH2 0x15B2 JUMPI PUSH2 0x15B1 PUSH2 0xE6E JUMP JUMPDEST JUMPDEST DUP3 CALLDATALOAD SWAP1 POP PUSH8 0xFFFFFFFFFFFFFFFF DUP2 GT ISZERO PUSH2 0x15CF JUMPI PUSH2 0x15CE PUSH2 0xE72 JUMP JUMPDEST JUMPDEST PUSH1 0x20 DUP4 ADD SWAP2 POP DUP4 PUSH1 0x20 DUP3 MUL DUP4 ADD GT ISZERO PUSH2 0x15EB JUMPI PUSH2 0x15EA PUSH2 0xE76 JUMP JUMPDEST JUMPDEST SWAP3 POP SWAP3 SWAP1 POP JUMP JUMPDEST PUSH0 DUP1 PUSH0 PUSH1 0x40 DUP5 DUP7 SUB SLT ISZERO PUSH2 0x1609 JUMPI PUSH2 0x1608 PUSH2 0xE0C JUMP JUMPDEST JUMPDEST PUSH0 PUSH2 0x1616 DUP7 DUP3 DUP8 ADD PUSH2 0xE5A JUMP JUMPDEST SWAP4 POP POP PUSH1 0x20 DUP5 ADD CALLDATALOAD PUSH8 0xFFFFFFFFFFFFFFFF DUP2 GT ISZERO PUSH2 0x1637 JUMPI PUSH2 0x1636 PUSH2 0xE10 JUMP JUMPDEST JUMPDEST PUSH2 0x1643 DUP7 DUP3 DUP8 ADD PUSH2 0x159D JUMP JUMPDEST SWAP3 POP SWAP3 POP POP SWAP3 POP SWAP3 POP SWAP3 JUMP JUMPDEST PUSH0 DUP2 MLOAD SWAP1 POP SWAP2 SWAP1 POP JUMP JUMPDEST PUSH0 DUP3 DUP3 MSTORE PUSH1 0x20 DUP3 ADD SWAP1 POP SWAP3 SWAP2 POP POP JUMP JUMPDEST PUSH0 DUP2 SWAP1 POP PUSH1 0x20 DUP3 ADD SWAP1 POP SWAP2 SWAP1 POP JUMP JUMPDEST PUSH0 PUSH1 0x80 DUP4 ADD PUSH0 DUP4 ADD MLOAD PUSH2 0x168D PUSH0 DUP7 ADD DUP3 PUSH2 0xF5E JUMP JUMPDEST POP PUSH1 0x20 DUP4 ADD MLOAD DUP5 DUP3 SUB PUSH1 0x20 DUP7 ADD MSTORE PUSH2 0x16A5 DUP3 DUP3 PUSH2 0x11B3 JUMP JUMPDEST SWAP2 POP POP PUSH1 0x40 DUP4 ADD MLOAD DUP5 DUP3 SUB PUSH1 0x40 DUP7 ADD MSTORE PUSH2 0x16BF DUP3 DUP3 PUSH2 0x125B JUMP JUMPDEST SWAP2 POP POP PUSH1 0x60 DUP4 ADD MLOAD PUSH2 0x16D4 PUSH1 0x60 DUP7 ADD DUP3 PUSH2 0xF5E JUMP JUMPDEST POP DUP1 SWAP2 POP POP SWAP3 SWAP2 POP POP JUMP JUMPDEST PUSH0 PUSH2 0x16EA DUP4 DUP4 PUSH2 0x1678 JUMP JUMPDEST SWAP1 POP SWAP3 SWAP2 POP POP JUMP JUMPDEST PUSH0 PUSH1 0x20 DUP3 ADD SWAP1 POP SWAP2 SWAP1 POP JUMP JUMPDEST PUSH0 PUSH2 0x1708 DUP3 PUSH2 0x164F JUMP JUMPDEST PUSH2 0x1712 DUP2 DUP6 PUSH2 0x1659 JUMP JUMPDEST SWAP4 POP DUP4 PUSH1 0x20 DUP3 MUL DUP6 ADD PUSH2 0x1724 DUP6 PUSH2 0x1669 JUMP JUMPDEST DUP1 PUSH0 JUMPDEST DUP6 DUP2 LT ISZERO PUSH2 0x175F JUMPI DUP5 DUP5 SUB DUP10 MSTORE DUP2 MLOAD PUSH2 0x1740 DUP6 DUP3 PUSH2 0x16DF JUMP JUMPDEST SWAP5 POP PUSH2 0x174B DUP4 PUSH2 0x16F2 JUMP JUMPDEST SWAP3 POP PUSH1 0x20 DUP11 ADD SWAP10 POP POP PUSH1 0x1 DUP2 ADD SWAP1 POP PUSH2 0x1727 JUMP JUMPDEST POP DUP3 SWAP8 POP DUP8 SWAP6 POP POP POP POP POP POP SWAP3 SWAP2 POP POP JUMP JUMPDEST PUSH0 PUSH1 0x20 DUP3 ADD SWAP1 POP DUP2 DUP2 SUB PUSH0 DUP4 ADD MSTORE PUSH2 0x1789 DUP2 DUP5 PUSH2 0x16FE JUMP JUMPDEST SWAP1 POP SWAP3 SWAP2 POP POP JUMP JUMPDEST PUSH32 0x4E487B7100000000000000000000000000000000000000000000000000000000 PUSH0 MSTORE PUSH1 0x41 PUSH1 0x4 MSTORE PUSH1 0x24 PUSH0 REVERT JUMPDEST PUSH32 0x4E487B7100000000000000000000000000000000000000000000000000000000 PUSH0 MSTORE PUSH1 0x32 PUSH1 0x4 MSTORE PUSH1 0x24 PUSH0 REVERT JUMPDEST PUSH0 PUSH2 0x17F9 PUSH1 0x20 DUP5 ADD DUP5 PUSH2 0xE5A JUMP JUMPDEST SWAP1 POP SWAP3 SWAP2 POP POP JUMP JUMPDEST PUSH2 0x180A DUP2 PUSH2 0xE33 JUMP JUMPDEST DUP3 MSTORE POP POP JUMP JUMPDEST PUSH2 0x1819 DUP2 PUSH2 0xF55 JUMP JUMPDEST DUP2 EQ PUSH2 0x1823 JUMPI PUSH0 DUP1 REVERT JUMPDEST POP JUMP JUMPDEST PUSH0 DUP2 CALLDATALOAD SWAP1 POP PUSH2 0x1834 DUP2 PUSH2 0x1810 JUMP JUMPDEST SWAP3 SWAP2 POP POP JUMP JUMPDEST PUSH0 PUSH2 0x1848 PUSH1 0x20 DUP5 ADD DUP5 PUSH2 0x1826 JUMP JUMPDEST SWAP1 POP SWAP3 SWAP2 POP POP JUMP JUMPDEST PUSH0 PUSH3 0xFFFFFF DUP3 AND SWAP1 POP SWAP2 SWAP1 POP JUMP JUMPDEST PUSH2 0x1867 DUP2 PUSH2 0x1850 JUMP JUMPDEST DUP2 EQ PUSH2 0x1871 JUMPI PUSH0 DUP1 REVERT JUMPDEST POP JUMP JUMPDEST PUSH0 DUP2 CALLDATALOAD SWAP1 POP PUSH2 0x1882 DUP2 PUSH2 0x185E JUMP JUMPDEST SWAP3 SWAP2 POP POP JUMP JUMPDEST PUSH0 PUSH2 0x1896 PUSH1 0x20 DUP5 ADD DUP5 PUSH2 0x1874 JUMP JUMPDEST SWAP1 POP SWAP3 SWAP2 POP POP JUMP JUMPDEST PUSH2 0x18A7 DUP2 PUSH2 0x1850 JUMP JUMPDEST DUP3 MSTORE POP POP JUMP JUMPDEST PUSH2 0x18B6 DUP2 PUSH2 0xE14 JUMP JUMPDEST DUP2 EQ PUSH2 0x18C0 JUMPI PUSH0 DUP1 REVERT JUMPDEST POP JUMP JUMPDEST PUSH0 DUP2 CALLDATALOAD SWAP1 POP PUSH2 0x18D1 DUP2 PUSH2 0x18AD JUMP JUMPDEST SWAP3 SWAP2 POP POP JUMP JUMPDEST PUSH0 PUSH2 0x18E5 PUSH1 0x20 DUP5 ADD DUP5 PUSH2 0x18C3 JUMP JUMPDEST SWAP1 POP SWAP3 SWAP2 POP POP JUMP JUMPDEST PUSH1 0xA0 DUP3 ADD PUSH2 0x18FD PUSH0 DUP4 ADD DUP4 PUSH2 0x17EB JUMP JUMPDEST PUSH2 0x1909 PUSH0 DUP6 ADD DUP3 PUSH2 0x1801 JUMP JUMPDEST POP PUSH2 0x1917 PUSH1 0x20 DUP4 ADD DUP4 PUSH2 0x17EB JUMP JUMPDEST PUSH2 0x1924 PUSH1 0x20 DUP6 ADD DUP3 PUSH2 0x1801 JUMP JUMPDEST POP PUSH2 0x1932 PUSH1 0x40 DUP4 ADD DUP4 PUSH2 0x183A JUMP JUMPDEST PUSH2 0x193F PUSH1 0x40 DUP6 ADD DUP3 PUSH2 0xF5E JUMP JUMPDEST POP PUSH2 0x194D PUSH1 0x60 DUP4 ADD DUP4 PUSH2 0x1888 JUMP JUMPDEST PUSH2 0x195A PUSH1 0x60 DUP6 ADD DUP3 PUSH2 0x189E JUMP JUMPDEST POP PUSH2 0x1968 PUSH1 0x80 DUP4 ADD DUP4 PUSH2 0x18D7 JUMP JUMPDEST PUSH2 0x1975 PUSH1 0x80 DUP6 ADD DUP3 PUSH2 0xF6D JUMP JUMPDEST POP POP POP POP JUMP JUMPDEST PUSH0 PUSH1 0xA0 DUP3 ADD SWAP1 POP PUSH2 0x198E PUSH0 DUP4 ADD DUP5 PUSH2 0x18ED JUMP JUMPDEST SWAP3 SWAP2 POP POP JUMP JUMPDEST PUSH0 DUP2 MLOAD SWAP1 POP SWAP2 SWAP1 POP JUMP JUMPDEST PUSH0 DUP2 SWAP1 POP SWAP3 SWAP2 POP POP JUMP JUMPDEST DUP3 DUP2 DUP4 MCOPY PUSH0 DUP4 DUP4 ADD MSTORE POP POP POP JUMP JUMPDEST PUSH0 PUSH2 0x19C0 DUP3 PUSH2 0x1994 JUMP JUMPDEST PUSH2 0x19CA DUP2 DUP6 PUSH2 0x199E JUMP JUMPDEST SWAP4 POP PUSH2 0x19DA DUP2 DUP6 PUSH1 0x20 DUP7 ADD PUSH2 0x19A8 JUMP JUMPDEST DUP1 DUP5 ADD SWAP2 POP POP SWAP3 SWAP2 POP POP JUMP JUMPDEST PUSH0 PUSH2 0x19F1 DUP3 DUP5 PUSH2 0x19B6 JUMP JUMPDEST SWAP2 POP DUP2 SWAP1 POP SWAP3 SWAP2 POP POP JUMP JUMPDEST PUSH0 DUP2 MLOAD SWAP1 POP PUSH2 0x1A0A DUP2 PUSH2 0x1810 JUMP JUMPDEST SWAP3 SWAP2 POP POP JUMP JUMPDEST PUSH0 DUP2 MLOAD SWAP1 POP PUSH2 0x1A1E DUP2 PUSH2 0x18AD JUMP JUMPDEST SWAP3 SWAP2 POP POP JUMP JUMPDEST PUSH2 0x1A2D DUP2 PUSH2 0xF7C JUMP JUMPDEST DUP2 EQ PUSH2 0x1A37 JUMPI PUSH0 DUP1 REVERT JUMPDEST POP JUMP JUMPDEST PUSH0 DUP2 MLOAD SWAP1 POP PUSH2 0x1A48 DUP2 PUSH2 0x1A24 JUMP JUMPDEST SWAP3 SWAP2 POP POP JUMP JUMPDEST PUSH0 DUP1 PUSH0 DUP1 PUSH1 0x80 DUP6 DUP8 SUB SLT ISZERO PUSH2 0x1A66 JUMPI PUSH2 0x1A65 PUSH2 0xE0C JUMP JUMPDEST JUMPDEST PUSH0 PUSH2 0x1A73 DUP8 DUP3 DUP9 ADD PUSH2 0x19FC JUMP JUMPDEST SWAP5 POP POP PUSH1 0x20 PUSH2 0x1A84 DUP8 DUP3 DUP9 ADD PUSH2 0x1A10 JUMP JUMPDEST SWAP4 POP POP PUSH1 0x40 PUSH2 0x1A95 DUP8 DUP3 DUP9 ADD PUSH2 0x1A3A JUMP JUMPDEST SWAP3 POP POP PUSH1 0x60 PUSH2 0x1AA6 DUP8 DUP3 DUP9 ADD PUSH2 0x19FC JUMP JUMPDEST SWAP2 POP POP SWAP3 SWAP6 SWAP2 SWAP5 POP SWAP3 POP JUMP JUMPDEST PUSH0 DUP2 SWAP1 POP SWAP3 SWAP2 POP POP JUMP JUMPDEST PUSH32 0x73746174696363616C6C206661696C656420617420696E646578200000000000 PUSH0 DUP3 ADD MSTORE POP JUMP JUMPDEST PUSH0 PUSH2 0x1AF0 PUSH1 0x1B DUP4 PUSH2 0x1AB2 JUMP JUMPDEST SWAP2 POP PUSH2 0x1AFB DUP3 PUSH2 0x1ABC JUMP JUMPDEST PUSH1 0x1B DUP3 ADD SWAP1 POP SWAP2 SWAP1 POP JUMP JUMPDEST PUSH0 DUP2 MLOAD SWAP1 POP SWAP2 SWAP1 POP JUMP JUMPDEST PUSH0 PUSH2 0x1B1A DUP3 PUSH2 0x1B06 JUMP JUMPDEST PUSH2 0x1B24 DUP2 DUP6 PUSH2 0x1AB2 JUMP JUMPDEST SWAP4 POP PUSH2 0x1B34 DUP2 DUP6 PUSH1 0x20 DUP7 ADD PUSH2 0x19A8 JUMP JUMPDEST DUP1 DUP5 ADD SWAP2 POP POP SWAP3 SWAP2 POP POP JUMP JUMPDEST PUSH0 PUSH2 0x1B4A DUP3 PUSH2 0x1AE4 JUMP JUMPDEST SWAP2 POP PUSH2 0x1B56 DUP3 DUP5 PUSH2 0x1B10 JUMP JUMPDEST SWAP2 POP DUP2 SWAP1 POP SWAP3 SWAP2 POP POP JUMP JUMPDEST PUSH0 DUP3 DUP3 MSTORE PUSH1 0x20 DUP3 ADD SWAP1 POP SWAP3 SWAP2 POP POP JUMP JUMPDEST PUSH0 PUSH1 0x1F NOT PUSH1 0x1F DUP4 ADD AND SWAP1 POP SWAP2 SWAP1 POP JUMP JUMPDEST PUSH0 PUSH2 0x1B8B DUP3 PUSH2 0x1B06 JUMP JUMPDEST PUSH2 0x1B95 DUP2 DUP6 PUSH2 0x1B61 JUMP JUMPDEST SWAP4 POP PUSH2 0x1BA5 DUP2 DUP6 PUSH1 0x20 DUP7 ADD PUSH2 0x19A8 JUMP JUMPDEST PUSH2 0x1BAE DUP2 PUSH2 0x1B71 JUMP JUMPDEST DUP5 ADD SWAP2 POP POP SWAP3 SWAP2 POP POP JUMP JUMPDEST PUSH0 PUSH1 0x20 DUP3 ADD SWAP1 POP DUP2 DUP2 SUB PUSH0 DUP4 ADD MSTORE PUSH2 0x1BD1 DUP2 DUP5 PUSH2 0x1B81 JUMP JUMPDEST SWAP1 POP SWAP3 SWAP2 POP POP JUMP JUMPDEST PUSH0 DUP1 REVERT JUMPDEST PUSH0 DUP1 REVERT JUMPDEST PUSH0 DUP1 REVERT JUMPDEST PUSH0 DUP3 CALLDATALOAD PUSH1 0x1 PUSH1 0x40 SUB DUP4 CALLDATASIZE SUB SUB DUP2 SLT PUSH2 0x1C00 JUMPI PUSH2 0x1BFF PUSH2 0x1BD9 JUMP JUMPDEST JUMPDEST DUP1 DUP4 ADD SWAP2 POP POP SWAP3 SWAP2 POP POP JUMP JUMPDEST PUSH0 DUP1 DUP4 CALLDATALOAD PUSH1 0x1 PUSH1 0x20 SUB DUP5 CALLDATASIZE SUB SUB DUP2 SLT PUSH2 0x1C28 JUMPI PUSH2 0x1C27 PUSH2 0x1BD9 JUMP JUMPDEST JUMPDEST DUP1 DUP5 ADD SWAP3 POP DUP3 CALLDATALOAD SWAP2 POP PUSH8 0xFFFFFFFFFFFFFFFF DUP3 GT ISZERO PUSH2 0x1C4A JUMPI PUSH2 0x1C49 PUSH2 0x1BDD JUMP JUMPDEST JUMPDEST PUSH1 0x20 DUP4 ADD SWAP3 POP PUSH1 0x1 DUP3 MUL CALLDATASIZE SUB DUP4 SGT ISZERO PUSH2 0x1C66 JUMPI PUSH2 0x1C65 PUSH2 0x1BE1 JUMP JUMPDEST JUMPDEST POP SWAP3 POP SWAP3 SWAP1 POP JUMP JUMPDEST PUSH0 DUP3 DUP3 MSTORE PUSH1 0x20 DUP3 ADD SWAP1 POP SWAP3 SWAP2 POP POP JUMP JUMPDEST DUP3 DUP2 DUP4 CALLDATACOPY PUSH0 DUP4 DUP4 ADD MSTORE POP POP POP JUMP JUMPDEST PUSH0 PUSH2 0x1C97 DUP4 DUP6 PUSH2 0x1C6E JUMP JUMPDEST SWAP4 POP PUSH2 0x1CA4 DUP4 DUP6 DUP5 PUSH2 0x1C7E JUMP JUMPDEST PUSH2 0x1CAD DUP4 PUSH2 0x1B71 JUMP JUMPDEST DUP5 ADD SWAP1 POP SWAP4 SWAP3 POP POP POP JUMP JUMPDEST PUSH2 0x1CC1 DUP2 PUSH2 0xF55 JUMP JUMPDEST DUP3 MSTORE POP POP JUMP JUMPDEST PUSH0 PUSH1 0x40 DUP3 ADD SWAP1 POP DUP2 DUP2 SUB PUSH0 DUP4 ADD MSTORE PUSH2 0x1CE0 DUP2 DUP6 DUP8 PUSH2 0x1C8C JUMP JUMPDEST SWAP1 POP PUSH2 0x1CEF PUSH1 0x20 DUP4 ADD DUP5 PUSH2 0x1CB8 JUMP JUMPDEST SWAP5 SWAP4 POP POP POP POP JUMP JUMPDEST PUSH2 0x1D00 DUP3 PUSH2 0x1B71 JUMP JUMPDEST DUP2 ADD DUP2 DUP2 LT PUSH8 0xFFFFFFFFFFFFFFFF DUP3 GT OR ISZERO PUSH2 0x1D1F JUMPI PUSH2 0x1D1E PUSH2 0x1791 JUMP JUMPDEST JUMPDEST DUP1 PUSH1 0x40 MSTORE POP POP POP JUMP JUMPDEST PUSH0 PUSH2 0x1D31 PUSH2 0xE03 JUMP JUMPDEST SWAP1 POP PUSH2 0x1D3D DUP3 DUP3 PUSH2 0x1CF7 JUMP JUMPDEST SWAP2 SWAP1 POP JUMP JUMPDEST PUSH0 PUSH8 0xFFFFFFFFFFFFFFFF DUP3 GT ISZERO PUSH2 0x1D5C JUMPI PUSH2 0x1D5B PUSH2 0x1791 JUMP JUMPDEST JUMPDEST PUSH1 0x20 DUP3 MUL SWAP1 POP PUSH1 0x20 DUP2 ADD SWAP1 POP SWAP2 SWAP1 POP JUMP JUMPDEST PUSH0 PUSH2 0x1D7F PUSH2 0x1D7A DUP5 PUSH2 0x1D42 JUMP JUMPDEST PUSH2 0x1D28 JUMP JUMPDEST SWAP1 POP DUP1 DUP4 DUP3 MSTORE PUSH1 0x20 DUP3 ADD SWAP1 POP PUSH1 0x20 DUP5 MUL DUP4 ADD DUP6 DUP2 GT ISZERO PUSH2 0x1DA2 JUMPI PUSH2 0x1DA1 PUSH2 0xE76 JUMP JUMPDEST JUMPDEST DUP4 JUMPDEST DUP2 DUP2 LT ISZERO PUSH2 0x1DCB JUMPI DUP1 PUSH2 0x1DB7 DUP9 DUP3 PUSH2 0x1A10 JUMP JUMPDEST DUP5 MSTORE PUSH1 0x20 DUP5 ADD SWAP4 POP POP PUSH1 0x20 DUP2 ADD SWAP1 POP PUSH2 0x1DA4 JUMP JUMPDEST POP POP POP SWAP4 SWAP3 POP POP POP JUMP JUMPDEST PUSH0 DUP3 PUSH1 0x1F DUP4 ADD SLT PUSH2 0x1DE9 JUMPI PUSH2 0x1DE8 PUSH2 0xE6E JUMP JUMPDEST JUMPDEST DUP2 MLOAD PUSH2 0x1DF9 DUP5 DUP3 PUSH1 0x20 DUP7 ADD PUSH2 0x1D6D JUMP JUMPDEST SWAP2 POP POP SWAP3 SWAP2 POP POP JUMP JUMPDEST PUSH0 PUSH8 0xFFFFFFFFFFFFFFFF DUP3 GT ISZERO PUSH2 0x1E1C JUMPI PUSH2 0x1E1B PUSH2 0x1791 JUMP JUMPDEST JUMPDEST PUSH1 0x20 DUP3 MUL SWAP1 POP PUSH1 0x20 DUP2 ADD SWAP1 POP SWAP2 SWAP1 POP JUMP JUMPDEST PUSH0 PUSH2 0x1E3F PUSH2 0x1E3A DUP5 PUSH2 0x1E02 JUMP JUMPDEST PUSH2 0x1D28 JUMP JUMPDEST SWAP1 POP DUP1 DUP4 DUP3 MSTORE PUSH1 0x20 DUP3 ADD SWAP1 POP PUSH1 0x20 DUP5 MUL DUP4 ADD DUP6 DUP2 GT ISZERO PUSH2 0x1E62 JUMPI PUSH2 0x1E61 PUSH2 0xE76 JUMP JUMPDEST JUMPDEST DUP4 JUMPDEST DUP2 DUP2 LT ISZERO PUSH2 0x1E8B JUMPI DUP1 PUSH2 0x1E77 DUP9 DUP3 PUSH2 0x1A3A JUMP JUMPDEST DUP5 MSTORE PUSH1 0x20 DUP5 ADD SWAP4 POP POP PUSH1 0x20 DUP2 ADD SWAP1 POP PUSH2 0x1E64 JUMP JUMPDEST POP POP POP SWAP4 SWAP3 POP POP POP JUMP JUMPDEST PUSH0 DUP3 PUSH1 0x1F DUP4 ADD SLT PUSH2 0x1EA9 JUMPI PUSH2 0x1EA8 PUSH2 0xE6E JUMP JUMPDEST JUMPDEST DUP2 MLOAD PUSH2 0x1EB9 DUP5 DUP3 PUSH1 0x20 DUP7 ADD PUSH2 0x1E2D JUMP JUMPDEST SWAP2 POP POP SWAP3 SWAP2 POP POP JUMP JUMPDEST PUSH0 DUP1 PUSH0 DUP1 PUSH1 0x80 DUP6 DUP8 SUB SLT ISZERO PUSH2 0x1EDA JUMPI PUSH2 0x1ED9 PUSH2 0xE0C JUMP JUMPDEST JUMPDEST PUSH0 PUSH2 0x1EE7 DUP8 DUP3 DUP9 ADD PUSH2 0x19FC JUMP JUMPDEST SWAP5 POP POP PUSH1 0x20 DUP6 ADD MLOAD PUSH8 0xFFFFFFFFFFFFFFFF DUP2 GT ISZERO PUSH2 0x1F08 JUMPI PUSH2 0x1F07 PUSH2 0xE10 JUMP JUMPDEST JUMPDEST PUSH2 0x1F14 DUP8 DUP3 DUP9 ADD PUSH2 0x1DD5 JUMP JUMPDEST SWAP4 POP POP PUSH1 0x40 DUP6 ADD MLOAD PUSH8 0xFFFFFFFFFFFFFFFF DUP2 GT ISZERO PUSH2 0x1F35 JUMPI PUSH2 0x1F34 PUSH2 0xE10 JUMP JUMPDEST JUMPDEST PUSH2 0x1F41 DUP8 DUP3 DUP9 ADD PUSH2 0x1E95 JUMP JUMPDEST SWAP3 POP POP PUSH1 0x60 PUSH2 0x1F52 DUP8 DUP3 DUP9 ADD PUSH2 0x19FC JUMP JUMPDEST SWAP2 POP POP SWAP3 SWAP6 SWAP2 SWAP5 POP SWAP3 POP JUMP JUMPDEST PUSH1 0xA0 DUP3 ADD PUSH2 0x1F6E PUSH0 DUP4 ADD DUP4 PUSH2 0x17EB JUMP JUMPDEST PUSH2 0x1F7A PUSH0 DUP6 ADD DUP3 PUSH2 0x1801 JUMP JUMPDEST POP PUSH2 0x1F88 PUSH1 0x20 DUP4 ADD DUP4 PUSH2 0x17EB JUMP JUMPDEST PUSH2 0x1F95 PUSH1 0x20 DUP6 ADD DUP3 PUSH2 0x1801 JUMP JUMPDEST POP PUSH2 0x1FA3 PUSH1 0x40 DUP4 ADD DUP4 PUSH2 0x183A JUMP JUMPDEST PUSH2 0x1FB0 PUSH1 0x40 DUP6 ADD DUP3 PUSH2 0xF5E JUMP JUMPDEST POP PUSH2 0x1FBE PUSH1 0x60 DUP4 ADD DUP4 PUSH2 0x1888 JUMP JUMPDEST PUSH2 0x1FCB PUSH1 0x60 DUP6 ADD DUP3 PUSH2 0x189E JUMP JUMPDEST POP PUSH2 0x1FD9 PUSH1 0x80 DUP4 ADD DUP4 PUSH2 0x18D7 JUMP JUMPDEST PUSH2 0x1FE6 PUSH1 0x80 DUP6 ADD DUP3 PUSH2 0xF6D JUMP JUMPDEST POP POP POP POP JUMP JUMPDEST PUSH0 PUSH1 0xA0 DUP3 ADD SWAP1 POP PUSH2 0x1FFF PUSH0 DUP4 ADD DUP5 PUSH2 0x1F5E JUMP JUMPDEST SWAP3 SWAP2 POP POP JUMP JUMPDEST PUSH0 DUP3 CALLDATALOAD PUSH1 0x1 PUSH1 0x40 SUB DUP4 CALLDATASIZE SUB SUB DUP2 SLT PUSH2 0x2020 JUMPI PUSH2 0x201F PUSH2 0x1BD9 JUMP JUMPDEST JUMPDEST DUP1 DUP4 ADD SWAP2 POP POP SWAP3 SWAP2 POP POP JUMP JUMPDEST PUSH32 0x4E487B7100000000000000000000000000000000000000000000000000000000 PUSH0 MSTORE PUSH1 0x12 PUSH1 0x4 MSTORE PUSH1 0x24 PUSH0 REVERT INVALID LOG2 PUSH5 0x6970667358 0x22 SLT KECCAK256 PUSH31 0xFD7BCAC243BBE9EC36C76C20F26ECE462D9B0091EDB7EB3DE7BDE0E19A7ECB PUSH5 0x736F6C6343 STOP ADDMOD BYTE STOP CALLER "
		},
		"gasEstimates": {
			"creation": {
				"codeDepositCost": "1667000",
				"executionCost": "1748",
				"totalCost": "1668748"
			},
			"external": {
				"quoteExactInputMul(address,(bytes,uint256)[])": "infinite",
				"quoteExactInputSingleMul(address,(address,address,uint256,uint24,uint160)[])": "infinite",
				"quoteExactOutputMul(address,(bytes,uint256)[])": "infinite",
				"quoteExactOutputSingleMul(address,(address,address,uint256,uint24,uint160)[])": "infinite"
			}
		},
		"methodIdentifiers": {
			"quoteExactInputMul(address,(bytes,uint256)[])": "7d6d3245",
			"quoteExactInputSingleMul(address,(address,address,uint256,uint24,uint160)[])": "50293e09",
			"quoteExactOutputMul(address,(bytes,uint256)[])": "2aec3a7a",
			"quoteExactOutputSingleMul(address,(address,address,uint256,uint24,uint160)[])": "177fffed"
		}
	},
	"abi": [
		{
			"inputs": [
				{
					"internalType": "address",
					"name": "quoteV2Address",
					"type": "address"
				},
				{
					"components": [
						{
							"internalType": "bytes",
							"name": "path",
							"type": "bytes"
						},
						{
							"internalType": "uint256",
							"name": "amountIn",
							"type": "uint256"
						}
					],
					"internalType": "struct IQuoteV2MultiCall.QuoteExactInputMulParam[]",
					"name": "params",
					"type": "tuple[]"
				}
			],
			"name": "quoteExactInputMul",
			"outputs": [
				{
					"components": [
						{
							"internalType": "uint256",
							"name": "amountOut",
							"type": "uint256"
						},
						{
							"internalType": "uint160[]",
							"name": "sqrtPriceX96AfterList",
							"type": "uint160[]"
						},
						{
							"internalType": "uint32[]",
							"name": "initializedTicksCrossedList",
							"type": "uint32[]"
						},
						{
							"internalType": "uint256",
							"name": "gasEstimate",
							"type": "uint256"
						}
					],
					"internalType": "struct IQuoteV2MultiCall.QuoteExactInputMulRes[]",
					"name": "",
					"type": "tuple[]"
				}
			],
			"stateMutability": "view",
			"type": "function"
		},
		{
			"inputs": [
				{
					"internalType": "address",
					"name": "quoteV2Address",
					"type": "address"
				},
				{
					"components": [
						{
							"internalType": "address",
							"name": "tokenIn",
							"type": "address"
						},
						{
							"internalType": "address",
							"name": "tokenOut",
							"type": "address"
						},
						{
							"internalType": "uint256",
							"name": "amountIn",
							"type": "uint256"
						},
						{
							"internalType": "uint24",
							"name": "fee",
							"type": "uint24"
						},
						{
							"internalType": "uint160",
							"name": "sqrtPriceLimitX96",
							"type": "uint160"
						}
					],
					"internalType": "struct IQuoterV2.QuoteExactInputSingleParams[]",
					"name": "params",
					"type": "tuple[]"
				}
			],
			"name": "quoteExactInputSingleMul",
			"outputs": [
				{
					"components": [
						{
							"internalType": "uint256",
							"name": "amountOut",
							"type": "uint256"
						},
						{
							"internalType": "uint160",
							"name": "sqrtPriceX96After",
							"type": "uint160"
						},
						{
							"internalType": "uint32",
							"name": "initializedTicksCrossed",
							"type": "uint32"
						},
						{
							"internalType": "uint256",
							"name": "gasEstimate",
							"type": "uint256"
						}
					],
					"internalType": "struct IQuoteV2MultiCall.QuoteExactInputSingleMulRes[]",
					"name": "",
					"type": "tuple[]"
				}
			],
			"stateMutability": "view",
			"type": "function"
		},
		{
			"inputs": [
				{
					"internalType": "address",
					"name": "quoteV2Address",
					"type": "address"
				},
				{
					"components": [
						{
							"internalType": "bytes",
							"name": "path",
							"type": "bytes"
						},
						{
							"internalType": "uint256",
							"name": "amountOut",
							"type": "uint256"
						}
					],
					"internalType": "struct IQuoteV2MultiCall.QuoteExactOutputMulParam[]",
					"name": "params",
					"type": "tuple[]"
				}
			],
			"name": "quoteExactOutputMul",
			"outputs": [
				{
					"components": [
						{
							"internalType": "uint256",
							"name": "amountIn",
							"type": "uint256"
						},
						{
							"internalType": "uint160[]",
							"name": "sqrtPriceX96AfterList",
							"type": "uint160[]"
						},
						{
							"internalType": "uint32[]",
							"name": "initializedTicksCrossedList",
							"type": "uint32[]"
						},
						{
							"internalType": "uint256",
							"name": "gasEstimate",
							"type": "uint256"
						}
					],
					"internalType": "struct IQuoteV2MultiCall.QuoteExactOutputMulRes[]",
					"name": "",
					"type": "tuple[]"
				}
			],
			"stateMutability": "view",
			"type": "function"
		},
		{
			"inputs": [
				{
					"internalType": "address",
					"name": "quoteV2Address",
					"type": "address"
				},
				{
					"components": [
						{
							"internalType": "address",
							"name": "tokenIn",
							"type": "address"
						},
						{
							"internalType": "address",
							"name": "tokenOut",
							"type": "address"
						},
						{
							"internalType": "uint256",
							"name": "amount",
							"type": "uint256"
						},
						{
							"internalType": "uint24",
							"name": "fee",
							"type": "uint24"
						},
						{
							"internalType": "uint160",
							"name": "sqrtPriceLimitX96",
							"type": "uint160"
						}
					],
					"internalType": "struct IQuoterV2.QuoteExactOutputSingleParams[]",
					"name": "params",
					"type": "tuple[]"
				}
			],
			"name": "quoteExactOutputSingleMul",
			"outputs": [
				{
					"components": [
						{
							"internalType": "uint256",
							"name": "amountIn",
							"type": "uint256"
						},
						{
							"internalType": "uint160",
							"name": "sqrtPriceX96After",
							"type": "uint160"
						},
						{
							"internalType": "uint32",
							"name": "initializedTicksCrossed",
							"type": "uint32"
						},
						{
							"internalType": "uint256",
							"name": "gasEstimate",
							"type": "uint256"
						}
					],
					"internalType": "struct IQuoteV2MultiCall.QuoteExactOutputSingleMulRes[]",
					"name": "",
					"type": "tuple[]"
				}
			],
			"stateMutability": "view",
			"type": "function"
		}
	]
}