{
	"data": {
		"bytecode": {
			"linkReferences": {},
			"object": "60a060405234801561000f575f80fd5b50335f806101000a81548173ffffffffffffffffffffffffffffffffffffffff021916908373ffffffffffffffffffffffffffffffffffffffff1602179055505f61008b731c7d4b196cb0c7b01d743fbc6116a902379c723873fff9976782d46cc05630d1f6ebab18b2324d6b14610bb86100d960201b60201c565b5050505090508073ffffffffffffffffffffffffffffffffffffffff1660808173ffffffffffffffffffffffffffffffffffffffff16815250506100d361034d60201b60201c565b50611347565b5f805f805f730227628f3f023bb0b980b67d528571c95c6dac1c73ffffffffffffffffffffffffffffffffffffffff16631698ee828989896040518463ffffffff1660e01b815260040161012f93929190610f42565b602060405180830381865afa15801561014a573d5f803e3d5ffd5b505050506040513d601f19601f8201168201806040525081019061016e9190610fa5565b94508473ffffffffffffffffffffffffffffffffffffffff16630dfe16816040518163ffffffff1660e01b8152600401602060405180830381865afa1580156101b9573d5f803e3d5ffd5b505050506040513d601f19601f820116820180604052508101906101dd9190610fa5565b93508373ffffffffffffffffffffffffffffffffffffffff166370a08231866040518263ffffffff1660e01b81526004016102189190610fd0565b602060405180830381865afa158015610233573d5f803e3d5ffd5b505050506040513d601f19601f82011682018060405250810190610257919061101c565b92508473ffffffffffffffffffffffffffffffffffffffff1663d21220a76040518163ffffffff1660e01b8152600401602060405180830381865afa1580156102a2573d5f803e3d5ffd5b505050506040513d601f19601f820116820180604052508101906102c69190610fa5565b91508173ffffffffffffffffffffffffffffffffffffffff166370a08231866040518263ffffffff1660e01b81526004016103019190610fd0565b602060405180830381865afa15801561031c573d5f803e3d5ffd5b505050506040513d601f19601f82011682018060405250810190610340919061101c565b9050939792965093509350565b5f73fff9976782d46cc05630d1f6ebab18b2324d6b149050600181908060018154018082558091505060019003905f5260205f20015f9091909190916101000a81548173ffffffffffffffffffffffffffffffffffffffff021916908373ffffffffffffffffffffffffffffffffffffffff1602179055506040518060400160405280600481526020017f574554480000000000000000000000000000000000000000000000000000000081525060025f8373ffffffffffffffffffffffffffffffffffffffff1673ffffffffffffffffffffffffffffffffffffffff1681526020019081526020015f2090816104449190611278565b505f731c7d4b196cb0c7b01d743fbc6116a902379c72389050600181908060018154018082558091505060019003905f5260205f20015f9091909190916101000a81548173ffffffffffffffffffffffffffffffffffffffff021916908373ffffffffffffffffffffffffffffffffffffffff1602179055506040518060400160405280600481526020017f555344430000000000000000000000000000000000000000000000000000000081525060025f8373ffffffffffffffffffffffffffffffffffffffff1673ffffffffffffffffffffffffffffffffffffffff1681526020019081526020015f20908161053c9190611278565b505f73aa8e23fb1079ea71e0a56f48a2aa51851d8433d09050600181908060018154018082558091505060019003905f5260205f20015f9091909190916101000a81548173ffffffffffffffffffffffffffffffffffffffff021916908373ffffffffffffffffffffffffffffffffffffffff1602179055506040518060400160405280600481526020017f555344540000000000000000000000000000000000000000000000000000000081525060025f8373ffffffffffffffffffffffffffffffffffffffff1673ffffffffffffffffffffffffffffffffffffffff1681526020019081526020015f2090816106349190611278565b505f73ff34b3d4aee8ddcd6f9afffb6fe49bd371b8a3579050600181908060018154018082558091505060019003905f5260205f20015f9091909190916101000a81548173ffffffffffffffffffffffffffffffffffffffff021916908373ffffffffffffffffffffffffffffffffffffffff1602179055506040518060400160405280600381526020017f444149000000000000000000000000000000000000000000000000000000000081525060025f8373ffffffffffffffffffffffffffffffffffffffff1673ffffffffffffffffffffffffffffffffffffffff1681526020019081526020015f20908161072c9190611278565b505f7308210f9170f89ab7658f0b5e3ff39b0e03c594d49050600181908060018154018082558091505060019003905f5260205f20015f9091909190916101000a81548173ffffffffffffffffffffffffffffffffffffffff021916908373ffffffffffffffffffffffffffffffffffffffff1602179055506040518060400160405280600481526020017f455552430000000000000000000000000000000000000000000000000000000081525060025f8373ffffffffffffffffffffffffffffffffffffffff1673ffffffffffffffffffffffffffffffffffffffff1681526020019081526020015f2090816108249190611278565b505f73779877a7b0d9e8603169ddbd7836e478b46247899050600181908060018154018082558091505060019003905f5260205f20015f9091909190916101000a81548173ffffffffffffffffffffffffffffffffffffffff021916908373ffffffffffffffffffffffffffffffffffffffff1602179055506040518060400160405280600481526020017f4c494e4b0000000000000000000000000000000000000000000000000000000081525060025f8373ffffffffffffffffffffffffffffffffffffffff1673ffffffffffffffffffffffffffffffffffffffff1681526020019081526020015f20908161091c9190611278565b505f7388541670e55cc00beefd87eb59edd1b7c511ac9a9050600181908060018154018082558091505060019003905f5260205f20015f9091909190916101000a81548173ffffffffffffffffffffffffffffffffffffffff021916908373ffffffffffffffffffffffffffffffffffffffff1602179055506040518060400160405280600481526020017f414156450000000000000000000000000000000000000000000000000000000081525060025f8373ffffffffffffffffffffffffffffffffffffffff1673ffffffffffffffffffffffffffffffffffffffff1681526020019081526020015f209081610a149190611278565b505f731f9840a85d5af5bf1d1762f925bdaddc4201f9849050600181908060018154018082558091505060019003905f5260205f20015f9091909190916101000a81548173ffffffffffffffffffffffffffffffffffffffff021916908373ffffffffffffffffffffffffffffffffffffffff1602179055506040518060400160405280600381526020017f554e49000000000000000000000000000000000000000000000000000000000081525060025f8373ffffffffffffffffffffffffffffffffffffffff1673ffffffffffffffffffffffffffffffffffffffff1681526020019081526020015f209081610b0c9190611278565b505f7329f2d40b0605204364af54ec677bd022da425d039050600181908060018154018082558091505060019003905f5260205f20015f9091909190916101000a81548173ffffffffffffffffffffffffffffffffffffffff021916908373ffffffffffffffffffffffffffffffffffffffff1602179055506040518060400160405280600481526020017f574254430000000000000000000000000000000000000000000000000000000081525060025f8373ffffffffffffffffffffffffffffffffffffffff1673ffffffffffffffffffffffffffffffffffffffff1681526020019081526020015f209081610c049190611278565b505f733fd0a53f4bf853985a95f4eb3f9c9fde1f8e2b539050600181908060018154018082558091505060019003905f5260205f20015f9091909190916101000a81548173ffffffffffffffffffffffffffffffffffffffff021916908373ffffffffffffffffffffffffffffffffffffffff1602179055506040518060400160405280600581526020017f4d4154494300000000000000000000000000000000000000000000000000000081525060025f8373ffffffffffffffffffffffffffffffffffffffff1673ffffffffffffffffffffffffffffffffffffffff1681526020019081526020015f209081610cfc9190611278565b505f73d701e3e1a327d13564ba072e6c0806129fea46719050600181908060018154018082558091505060019003905f5260205f20015f9091909190916101000a81548173ffffffffffffffffffffffffffffffffffffffff021916908373ffffffffffffffffffffffffffffffffffffffff1602179055506040518060400160405280600381526020017f4b4e43000000000000000000000000000000000000000000000000000000000081525060025f8373ffffffffffffffffffffffffffffffffffffffff1673ffffffffffffffffffffffffffffffffffffffff1681526020019081526020015f209081610df49190611278565b5060036101f4908060018154018082558091505060019003905f5260205f2090600a91828204019190066003029091909190916101000a81548162ffffff021916908362ffffff1602179055506003610bb8908060018154018082558091505060019003905f5260205f2090600a91828204019190066003029091909190916101000a81548162ffffff021916908362ffffff1602179055506003612710908060018154018082558091505060019003905f5260205f2090600a91828204019190066003029091909190916101000a81548162ffffff021916908362ffffff1602179055505050505050505050505050565b5f73ffffffffffffffffffffffffffffffffffffffff82169050919050565b5f610f0f82610ee6565b9050919050565b610f1f81610f05565b82525050565b5f62ffffff82169050919050565b610f3c81610f25565b82525050565b5f606082019050610f555f830186610f16565b610f626020830185610f16565b610f6f6040830184610f33565b949350505050565b5f80fd5b610f8481610f05565b8114610f8e575f80fd5b50565b5f81519050610f9f81610f7b565b92915050565b5f60208284031215610fba57610fb9610f77565b5b5f610fc784828501610f91565b91505092915050565b5f602082019050610fe35f830184610f16565b92915050565b5f819050919050565b610ffb81610fe9565b8114611005575f80fd5b50565b5f8151905061101681610ff2565b92915050565b5f6020828403121561103157611030610f77565b5b5f61103e84828501611008565b91505092915050565b5f81519050919050565b7f4e487b71000000000000000000000000000000000000000000000000000000005f52604160045260245ffd5b7f4e487b71000000000000000000000000000000000000000000000000000000005f52602260045260245ffd5b5f60028204905060018216806110c257607f821691505b6020821081036110d5576110d461107e565b5b50919050565b5f819050815f5260205f209050919050565b5f6020601f8301049050919050565b5f82821b905092915050565b5f600883026111377fffffffffffffffffffffffffffffffffffffffffffffffffffffffffffffffff826110fc565b61114186836110fc565b95508019841693508086168417925050509392505050565b5f819050919050565b5f61117c61117761117284610fe9565b611159565b610fe9565b9050919050565b5f819050919050565b61119583611162565b6111a96111a182611183565b848454611108565b825550505050565b5f90565b6111bd6111b1565b6111c881848461118c565b505050565b5b818110156111eb576111e05f826111b5565b6001810190506111ce565b5050565b601f82111561123057611201816110db565b61120a846110ed565b81016020851015611219578190505b61122d611225856110ed565b8301826111cd565b50505b505050565b5f82821c905092915050565b5f6112505f1984600802611235565b1980831691505092915050565b5f6112688383611241565b9150826002028217905092915050565b61128182611047565b67ffffffffffffffff81111561129a57611299611051565b5b6112a482546110ab565b6112af8282856111ef565b5f60209050601f8311600181146112e0575f84156112ce578287015190505b6112d8858261125d565b86555061133f565b601f1984166112ee866110db565b5f5b82811015611315578489015182556001820191506020850194506020810190506112f0565b86831015611332578489015161132e601f891682611241565b8355505b6001600288020188555050505b505050505050565b60805161248c6113665f395f81816106620152610722015261248c5ff3fe608060405234801561000f575f80fd5b50600436106100fe575f3560e01c80639d5d46b511610095578063d1af005d11610064578063d1af005d146102c9578063f73e5aab146102e5578063f851a44014610303578063faa32f5d14610321576100fe565b80639d5d46b51461022d578063ad5c46481461025d578063b34b06af1461027b578063b59b28ef14610299576100fe565b806349c0222f116100d157806349c0222f146101a45780637f6c6f10146101d557806389a30271146101f35780638fef847414610211576100fe565b8063085d4ad3146101025780631698ee821461013257806316f0115b146101665780634055cdfb14610184575b5f80fd5b61011c600480360381019061011791906113a3565b610351565b604051610129919061143e565b60405180910390f35b61014c60048036038101906101479190611496565b6103ec565b60405161015d95949392919061150d565b60405180910390f35b61016e610660565b60405161017b91906115b9565b60405180910390f35b61018c610684565b60405161019b939291906115d2565b60405180910390f35b6101be60048036038101906101b9919061163a565b61068c565b6040516101cc929190611687565b60405180910390f35b6101dd61081c565b6040516101ea91906116ae565b60405180910390f35b6101fb610823565b60405161020891906116c7565b60405180910390f35b61022b6004803603810190610226919061170a565b61083b565b005b61024760048036038101906102429190611748565b61095c565b6040516102549190611782565b60405180910390f35b610265610992565b60405161027291906116c7565b60405180910390f35b6102836109aa565b60405161029091906119d1565b60405180910390f35b6102b360048036038101906102ae9190611b31565b610f55565b6040516102c09190611c4f565b60405180910390f35b6102e360048036038101906102de919061170a565b61111b565b005b6102ed61123c565b6040516102fa91906116c7565b60405180910390f35b61030b611254565b60405161031891906116c7565b60405180910390f35b61033b60048036038101906103369190611748565b611277565b60405161034891906116c7565b60405180910390f35b6002602052805f5260405f205f91509050805461036d90611c9c565b80601f016020809104026020016040519081016040528092919081815260200182805461039990611c9c565b80156103e45780601f106103bb576101008083540402835291602001916103e4565b820191905f5260205f20905b8154815290600101906020018083116103c757829003601f168201915b505050505081565b5f805f805f730227628f3f023bb0b980b67d528571c95c6dac1c73ffffffffffffffffffffffffffffffffffffffff16631698ee828989896040518463ffffffff1660e01b815260040161044293929190611ccc565b602060405180830381865afa15801561045d573d5f803e3d5ffd5b505050506040513d601f19601f820116820180604052508101906104819190611d15565b94508473ffffffffffffffffffffffffffffffffffffffff16630dfe16816040518163ffffffff1660e01b8152600401602060405180830381865afa1580156104cc573d5f803e3d5ffd5b505050506040513d601f19601f820116820180604052508101906104f09190611d15565b93508373ffffffffffffffffffffffffffffffffffffffff166370a08231866040518263ffffffff1660e01b815260040161052b91906116c7565b602060405180830381865afa158015610546573d5f803e3d5ffd5b505050506040513d601f19601f8201168201806040525081019061056a9190611d54565b92508473ffffffffffffffffffffffffffffffffffffffff1663d21220a76040518163ffffffff1660e01b8152600401602060405180830381865afa1580156105b5573d5f803e3d5ffd5b505050506040513d601f19601f820116820180604052508101906105d99190611d15565b91508173ffffffffffffffffffffffffffffffffffffffff166370a08231866040518263ffffffff1660e01b815260040161061491906116c7565b602060405180830381865afa15801561062f573d5f803e3d5ffd5b505050506040513d601f19601f820116820180604052508101906106539190611d54565b9050939792965093509350565b7f000000000000000000000000000000000000000000000000000000000000000081565b5f805f909192565b5f805f8054906101000a900473ffffffffffffffffffffffffffffffffffffffff1673ffffffffffffffffffffffffffffffffffffffff163373ffffffffffffffffffffffffffffffffffffffff161461071b576040517f08c379a000000000000000000000000000000000000000000000000000000000815260040161071290611dc9565b60405180910390fd5b5f600190507f000000000000000000000000000000000000000000000000000000000000000073ffffffffffffffffffffffffffffffffffffffff1663128acb088583885f8067ffffffffffffffff81111561077a576107796119f5565b5b6040519080825280601f01601f1916602001820160405280156107ac5781602001600182028036833780820191505090505b506040518663ffffffff1660e01b81526004016107cd959493929190611e58565b60408051808303815f875af11580156107e8573d5f803e3d5ffd5b505050506040513d601f19601f8201168201806040525081019061080c9190611ec4565b8093508194505050509250929050565b5f43905090565b731c7d4b196cb0c7b01d743fbc6116a902379c723881565b5f8054906101000a900473ffffffffffffffffffffffffffffffffffffffff1673ffffffffffffffffffffffffffffffffffffffff163373ffffffffffffffffffffffffffffffffffffffff16146108c8576040517f08c379a00000000000000000000000000000000000000000000000000000000081526004016108bf90611dc9565b60405180910390fd5b731c7d4b196cb0c7b01d743fbc6116a902379c723873ffffffffffffffffffffffffffffffffffffffff1663a9059cbb82846040518363ffffffff1660e01b8152600401610917929190611f02565b6020604051808303815f875af1158015610933573d5f803e3d5ffd5b505050506040513d601f19601f820116820180604052508101906109579190611f53565b505050565b6003818154811061096b575f80fd5b905f5260205f2090600a9182820401919006600302915054906101000a900462ffffff1681565b73fff9976782d46cc05630d1f6ebab18b2324d6b1481565b60605f60018054905090505f60038054905090505f8160026001856109cf9190611fab565b856109da9190611fde565b6109e4919061204c565b6109ee9190611fde565b67ffffffffffffffff811115610a0757610a066119f5565b5b604051908082528060200260200182016040528015610a4057816020015b610a2d6112b2565b815260200190600190039081610a255790505b5090505f805f90505b600185610a569190611fab565b811015610f4a575f60018281548110610a7257610a7161207c565b5b905f5260205f20015f9054906101000a900473ffffffffffffffffffffffffffffffffffffffff1690505f600183610aaa91906120a9565b90505b86811015610f3b575f60018281548110610aca57610ac961207c565b5b905f5260205f20015f9054906101000a900473ffffffffffffffffffffffffffffffffffffffff1690505f5b87811015610f2c575f60038281548110610b1357610b1261207c565b5b905f5260205f2090600a91828204019190066003029054906101000a900462ffffff1690503073ffffffffffffffffffffffffffffffffffffffff16631698ee828685846040518463ffffffff1660e01b8152600401610b7593929190611ccc565b60a060405180830381865afa925050508015610baf57506040513d601f19601f82011682018060405250810190610bac91906120dc565b60015b610ce157610bbb61215f565b806308c379a003610c225750610bcf61217e565b80610bda5750610c87565b80604051602001610beb919061143e565b604051602081830303815290604052898981518110610c0d57610c0c61207c565b5b602002602001015160e0018190525050610cdc565b634e487b7103610c8757610c3461220d565b90610c3f5750610c87565b80604051602001610c5091906116ae565b604051602081830303815290604052898981518110610c7257610c7161207c565b5b602002602001015160e0018190525050610cdc565b3d805f8114610cb1576040519150601f19603f3d011682016040523d82523d5f602084013e610cb6565b606091505b5080898981518110610ccb57610cca61207c565b5b602002602001015160e00181905250505b610f10565b60025f8573ffffffffffffffffffffffffffffffffffffffff1673ffffffffffffffffffffffffffffffffffffffff1681526020019081526020015f2060025f8473ffffffffffffffffffffffffffffffffffffffff1673ffffffffffffffffffffffffffffffffffffffff1681526020019081526020015f20604051602001610d6c929190612311565b6040516020818303038152906040528d8d81518110610d8e57610d8d61207c565b5b60200260200101515f0181905250858d8d81518110610db057610daf61207c565b5b60200260200101516020019062ffffff16908162ffffff1681525050848d8d81518110610de057610ddf61207c565b5b60200260200101516040019073ffffffffffffffffffffffffffffffffffffffff16908173ffffffffffffffffffffffffffffffffffffffff1681525050838d8d81518110610e3257610e3161207c565b5b60200260200101516060019073ffffffffffffffffffffffffffffffffffffffff16908173ffffffffffffffffffffffffffffffffffffffff1681525050828d8d81518110610e8457610e8361207c565b5b60200260200101516080018181525050818d8d81518110610ea857610ea761207c565b5b602002602001015160a0019073ffffffffffffffffffffffffffffffffffffffff16908173ffffffffffffffffffffffffffffffffffffffff1681525050808d8d81518110610efa57610ef961207c565b5b602002602001015160c001818152505050505050505b8680610f1b9061233f565b975050508080600101915050610af6565b50508080600101915050610aad565b50508080600101915050610a49565b508194505050505090565b60605f835190505f8111610f9e576040517f08c379a0000000000000000000000000000000000000000000000000000000008152600401610f95906123d0565b60405180910390fd5b82518114610fe1576040517f08c379a0000000000000000000000000000000000000000000000000000000008152600401610fd890612438565b60405180910390fd5b5f8167ffffffffffffffff811115610ffc57610ffb6119f5565b5b60405190808252806020026020018201604052801561102a5781602001602082028036833780820191505090505b5090505f5b8281101561110f5785818151811061104a5761104961207c565b5b602002602001015173ffffffffffffffffffffffffffffffffffffffff166370a082318683815181106110805761107f61207c565b5b60200260200101516040518263ffffffff1660e01b81526004016110a491906116c7565b602060405180830381865afa1580156110bf573d5f803e3d5ffd5b505050506040513d601f19601f820116820180604052508101906110e39190611d54565b8282815181106110f6576110f561207c565b5b602002602001018181525050808060010191505061102f565b50809250505092915050565b5f8054906101000a900473ffffffffffffffffffffffffffffffffffffffff1673ffffffffffffffffffffffffffffffffffffffff163373ffffffffffffffffffffffffffffffffffffffff16146111a8576040517f08c379a000000000000000000000000000000000000000000000000000000000815260040161119f90611dc9565b60405180910390fd5b73fff9976782d46cc05630d1f6ebab18b2324d6b1473ffffffffffffffffffffffffffffffffffffffff1663a9059cbb82846040518363ffffffff1660e01b81526004016111f7929190611f02565b6020604051808303815f875af1158015611213573d5f803e3d5ffd5b505050506040513d601f19601f820116820180604052508101906112379190611f53565b505050565b730227628f3f023bb0b980b67d528571c95c6dac1c81565b5f8054906101000a900473ffffffffffffffffffffffffffffffffffffffff1681565b60018181548110611286575f80fd5b905f5260205f20015f915054906101000a900473ffffffffffffffffffffffffffffffffffffffff1681565b604051806101000160405280606081526020015f62ffffff1681526020015f73ffffffffffffffffffffffffffffffffffffffff1681526020015f73ffffffffffffffffffffffffffffffffffffffff1681526020015f81526020015f73ffffffffffffffffffffffffffffffffffffffff1681526020015f8152602001606081525090565b5f604051905090565b5f80fd5b5f80fd5b5f73ffffffffffffffffffffffffffffffffffffffff82169050919050565b5f61137282611349565b9050919050565b61138281611368565b811461138c575f80fd5b50565b5f8135905061139d81611379565b92915050565b5f602082840312156113b8576113b7611341565b5b5f6113c58482850161138f565b91505092915050565b5f81519050919050565b5f82825260208201905092915050565b8281835e5f83830152505050565b5f601f19601f8301169050919050565b5f611410826113ce565b61141a81856113d8565b935061142a8185602086016113e8565b611433816113f6565b840191505092915050565b5f6020820190508181035f8301526114568184611406565b905092915050565b5f62ffffff82169050919050565b6114758161145e565b811461147f575f80fd5b50565b5f813590506114908161146c565b92915050565b5f805f606084860312156114ad576114ac611341565b5b5f6114ba8682870161138f565b93505060206114cb8682870161138f565b92505060406114dc86828701611482565b9150509250925092565b6114ef81611368565b82525050565b5f819050919050565b611507816114f5565b82525050565b5f60a0820190506115205f8301886114e6565b61152d60208301876114e6565b61153a60408301866114fe565b61154760608301856114e6565b61155460808301846114fe565b9695505050505050565b5f819050919050565b5f61158161157c61157784611349565b61155e565b611349565b9050919050565b5f61159282611567565b9050919050565b5f6115a382611588565b9050919050565b6115b381611599565b82525050565b5f6020820190506115cc5f8301846115aa565b92915050565b5f6060820190506115e55f8301866114e6565b6115f260208301856114fe565b6115ff60408301846114fe565b949350505050565b5f819050919050565b61161981611607565b8114611623575f80fd5b50565b5f8135905061163481611610565b92915050565b5f80604083850312156116505761164f611341565b5b5f61165d85828601611626565b925050602061166e8582860161138f565b9150509250929050565b61168181611607565b82525050565b5f60408201905061169a5f830185611678565b6116a76020830184611678565b9392505050565b5f6020820190506116c15f8301846114fe565b92915050565b5f6020820190506116da5f8301846114e6565b92915050565b6116e9816114f5565b81146116f3575f80fd5b50565b5f81359050611704816116e0565b92915050565b5f80604083850312156117205761171f611341565b5b5f61172d858286016116f6565b925050602061173e8582860161138f565b9150509250929050565b5f6020828403121561175d5761175c611341565b5b5f61176a848285016116f6565b91505092915050565b61177c8161145e565b82525050565b5f6020820190506117955f830184611773565b92915050565b5f81519050919050565b5f82825260208201905092915050565b5f819050602082019050919050565b5f82825260208201905092915050565b5f6117de826113ce565b6117e881856117c4565b93506117f88185602086016113e8565b611801816113f6565b840191505092915050565b6118158161145e565b82525050565b61182481611368565b82525050565b611833816114f5565b82525050565b5f81519050919050565b5f82825260208201905092915050565b5f61185d82611839565b6118678185611843565b93506118778185602086016113e8565b611880816113f6565b840191505092915050565b5f61010083015f8301518482035f8601526118a682826117d4565b91505060208301516118bb602086018261180c565b5060408301516118ce604086018261181b565b5060608301516118e1606086018261181b565b5060808301516118f4608086018261182a565b5060a083015161190760a086018261181b565b5060c083015161191a60c086018261182a565b5060e083015184820360e08601526119328282611853565b9150508091505092915050565b5f61194a838361188b565b905092915050565b5f602082019050919050565b5f6119688261179b565b61197281856117a5565b935083602082028501611984856117b5565b805f5b858110156119bf57848403895281516119a0858261193f565b94506119ab83611952565b925060208a01995050600181019050611987565b50829750879550505050505092915050565b5f6020820190508181035f8301526119e9818461195e565b905092915050565b5f80fd5b7f4e487b71000000000000000000000000000000000000000000000000000000005f52604160045260245ffd5b611a2b826113f6565b810181811067ffffffffffffffff82111715611a4a57611a496119f5565b5b80604052505050565b5f611a5c611338565b9050611a688282611a22565b919050565b5f67ffffffffffffffff821115611a8757611a866119f5565b5b602082029050602081019050919050565b5f80fd5b5f611aae611aa984611a6d565b611a53565b90508083825260208201905060208402830185811115611ad157611ad0611a98565b5b835b81811015611afa5780611ae6888261138f565b845260208401935050602081019050611ad3565b5050509392505050565b5f82601f830112611b1857611b176119f1565b5b8135611b28848260208601611a9c565b91505092915050565b5f8060408385031215611b4757611b46611341565b5b5f83013567ffffffffffffffff811115611b6457611b63611345565b5b611b7085828601611b04565b925050602083013567ffffffffffffffff811115611b9157611b90611345565b5b611b9d85828601611b04565b9150509250929050565b5f81519050919050565b5f82825260208201905092915050565b5f819050602082019050919050565b5f611bdb838361182a565b60208301905092915050565b5f602082019050919050565b5f611bfd82611ba7565b611c078185611bb1565b9350611c1283611bc1565b805f5b83811015611c42578151611c298882611bd0565b9750611c3483611be7565b925050600181019050611c15565b5085935050505092915050565b5f6020820190508181035f830152611c678184611bf3565b905092915050565b7f4e487b71000000000000000000000000000000000000000000000000000000005f52602260045260245ffd5b5f6002820490506001821680611cb357607f821691505b602082108103611cc657611cc5611c6f565b5b50919050565b5f606082019050611cdf5f8301866114e6565b611cec60208301856114e6565b611cf96040830184611773565b949350505050565b5f81519050611d0f81611379565b92915050565b5f60208284031215611d2a57611d29611341565b5b5f611d3784828501611d01565b91505092915050565b5f81519050611d4e816116e0565b92915050565b5f60208284031215611d6957611d68611341565b5b5f611d7684828501611d40565b91505092915050565b7f61636365737320636f6e74726f6c0000000000000000000000000000000000005f82015250565b5f611db3600e836113d8565b9150611dbe82611d7f565b602082019050919050565b5f6020820190508181035f830152611de081611da7565b9050919050565b5f8115159050919050565b611dfb81611de7565b82525050565b611e0a81611349565b82525050565b5f82825260208201905092915050565b5f611e2a82611839565b611e348185611e10565b9350611e448185602086016113e8565b611e4d816113f6565b840191505092915050565b5f60a082019050611e6b5f8301886114e6565b611e786020830187611df2565b611e856040830186611678565b611e926060830185611e01565b8181036080830152611ea48184611e20565b90509695505050505050565b5f81519050611ebe81611610565b92915050565b5f8060408385031215611eda57611ed9611341565b5b5f611ee785828601611eb0565b9250506020611ef885828601611eb0565b9150509250929050565b5f604082019050611f155f8301856114e6565b611f2260208301846114fe565b9392505050565b611f3281611de7565b8114611f3c575f80fd5b50565b5f81519050611f4d81611f29565b92915050565b5f60208284031215611f6857611f67611341565b5b5f611f7584828501611f3f565b91505092915050565b7f4e487b71000000000000000000000000000000000000000000000000000000005f52601160045260245ffd5b5f611fb5826114f5565b9150611fc0836114f5565b9250828203905081811115611fd857611fd7611f7e565b5b92915050565b5f611fe8826114f5565b9150611ff3836114f5565b9250828202612001816114f5565b9150828204841483151761201857612017611f7e565b5b5092915050565b7f4e487b71000000000000000000000000000000000000000000000000000000005f52601260045260245ffd5b5f612056826114f5565b9150612061836114f5565b9250826120715761207061201f565b5b828204905092915050565b7f4e487b71000000000000000000000000000000000000000000000000000000005f52603260045260245ffd5b5f6120b3826114f5565b91506120be836114f5565b92508282019050808211156120d6576120d5611f7e565b5b92915050565b5f805f805f60a086880312156120f5576120f4611341565b5b5f61210288828901611d01565b955050602061211388828901611d01565b945050604061212488828901611d40565b935050606061213588828901611d01565b925050608061214688828901611d40565b9150509295509295909350565b5f8160e01c9050919050565b5f60033d111561217b5760045f803e6121785f51612153565b90505b90565b5f60443d1061220a5761218f611338565b60043d036004823e80513d602482011167ffffffffffffffff821117156121b757505061220a565b808201805167ffffffffffffffff8111156121d5575050505061220a565b80602083010160043d0385018111156121f257505050505061220a565b61220182602001850186611a22565b82955050505050505b90565b5f8060233d111561222757602060045f3e600191505f5190505b9091565b5f81905092915050565b5f819050815f5260205f209050919050565b5f815461225381611c9c565b61225d818661222b565b9450600182165f8114612277576001811461228c576122be565b60ff19831686528115158202860193506122be565b61229585612235565b5f5b838110156122b657815481890152600182019150602081019050612297565b838801955050505b50505092915050565b7f2d000000000000000000000000000000000000000000000000000000000000005f82015250565b5f6122fb60018361222b565b9150612306826122c7565b600182019050919050565b5f61231c8285612247565b9150612327826122ef565b91506123338284612247565b91508190509392505050565b5f612349826114f5565b91507fffffffffffffffffffffffffffffffffffffffffffffffffffffffffffffffff820361237b5761237a611f7e565b5b600182019050919050565b7f626174636842616c616e63654f663a20656d707479206572726f7200000000005f82015250565b5f6123ba601b836113d8565b91506123c582612386565b602082019050919050565b5f6020820190508181035f8301526123e7816123ae565b9050919050565b7f626174636842616c616e63654f663a206c656e67746820646966666572656e745f82015250565b5f6124226020836113d8565b915061242d826123ee565b602082019050919050565b5f6020820190508181035f83015261244f81612416565b905091905056fea264697066735822122034851084ccf79d5fec4ff5324cc6c1b39cc96d85846ef34c39dffda91fade0a964736f6c634300081a0033",
			"opcodes": "PUSH1 0xA0 PUSH1 0x40 MSTORE CALLVALUE DUP1 ISZERO PUSH2 0xF JUMPI PUSH0 DUP1 REVERT JUMPDEST POP CALLER PUSH0 DUP1 PUSH2 0x100 EXP DUP2 SLOAD DUP2 PUSH20 0xFFFFFFFFFFFFFFFFFFFFFFFFFFFFFFFFFFFFFFFF MUL NOT AND SWAP1 DUP4 PUSH20 0xFFFFFFFFFFFFFFFFFFFFFFFFFFFFFFFFFFFFFFFF AND MUL OR SWAP1 SSTORE POP PUSH0 PUSH2 0x8B PUSH20 0x1C7D4B196CB0C7B01D743FBC6116A902379C7238 PUSH20 0xFFF9976782D46CC05630D1F6EBAB18B2324D6B14 PUSH2 0xBB8 PUSH2 0xD9 PUSH1 0x20 SHL PUSH1 0x20 SHR JUMP JUMPDEST POP POP POP POP SWAP1 POP DUP1 PUSH20 0xFFFFFFFFFFFFFFFFFFFFFFFFFFFFFFFFFFFFFFFF AND PUSH1 0x80 DUP2 PUSH20 0xFFFFFFFFFFFFFFFFFFFFFFFFFFFFFFFFFFFFFFFF AND DUP2 MSTORE POP POP PUSH2 0xD3 PUSH2 0x34D PUSH1 0x20 SHL PUSH1 0x20 SHR JUMP JUMPDEST POP PUSH2 0x1347 JUMP JUMPDEST PUSH0 DUP1 PUSH0 DUP1 PUSH0 PUSH20 0x227628F3F023BB0B980B67D528571C95C6DAC1C PUSH20 0xFFFFFFFFFFFFFFFFFFFFFFFFFFFFFFFFFFFFFFFF AND PUSH4 0x1698EE82 DUP10 DUP10 DUP10 PUSH1 0x40 MLOAD DUP5 PUSH4 0xFFFFFFFF AND PUSH1 0xE0 SHL DUP2 MSTORE PUSH1 0x4 ADD PUSH2 0x12F SWAP4 SWAP3 SWAP2 SWAP1 PUSH2 0xF42 JUMP JUMPDEST PUSH1 0x20 PUSH1 0x40 MLOAD DUP1 DUP4 SUB DUP2 DUP7 GAS STATICCALL ISZERO DUP1 ISZERO PUSH2 0x14A JUMPI RETURNDATASIZE PUSH0 DUP1 RETURNDATACOPY RETURNDATASIZE PUSH0 REVERT JUMPDEST POP POP POP POP PUSH1 0x40 MLOAD RETURNDATASIZE PUSH1 0x1F NOT PUSH1 0x1F DUP3 ADD AND DUP3 ADD DUP1 PUSH1 0x40 MSTORE POP DUP2 ADD SWAP1 PUSH2 0x16E SWAP2 SWAP1 PUSH2 0xFA5 JUMP JUMPDEST SWAP5 POP DUP5 PUSH20 0xFFFFFFFFFFFFFFFFFFFFFFFFFFFFFFFFFFFFFFFF AND PUSH4 0xDFE1681 PUSH1 0x40 MLOAD DUP2 PUSH4 0xFFFFFFFF AND PUSH1 0xE0 SHL DUP2 MSTORE PUSH1 0x4 ADD PUSH1 0x20 PUSH1 0x40 MLOAD DUP1 DUP4 SUB DUP2 DUP7 GAS STATICCALL ISZERO DUP1 ISZERO PUSH2 0x1B9 JUMPI RETURNDATASIZE PUSH0 DUP1 RETURNDATACOPY RETURNDATASIZE PUSH0 REVERT JUMPDEST POP POP POP POP PUSH1 0x40 MLOAD RETURNDATASIZE PUSH1 0x1F NOT PUSH1 0x1F DUP3 ADD AND DUP3 ADD DUP1 PUSH1 0x40 MSTORE POP DUP2 ADD SWAP1 PUSH2 0x1DD SWAP2 SWAP1 PUSH2 0xFA5 JUMP JUMPDEST SWAP4 POP DUP4 PUSH20 0xFFFFFFFFFFFFFFFFFFFFFFFFFFFFFFFFFFFFFFFF AND PUSH4 0x70A08231 DUP7 PUSH1 0x40 MLOAD DUP3 PUSH4 0xFFFFFFFF AND PUSH1 0xE0 SHL DUP2 MSTORE PUSH1 0x4 ADD PUSH2 0x218 SWAP2 SWAP1 PUSH2 0xFD0 JUMP JUMPDEST PUSH1 0x20 PUSH1 0x40 MLOAD DUP1 DUP4 SUB DUP2 DUP7 GAS STATICCALL ISZERO DUP1 ISZERO PUSH2 0x233 JUMPI RETURNDATASIZE PUSH0 DUP1 RETURNDATACOPY RETURNDATASIZE PUSH0 REVERT JUMPDEST POP POP POP POP PUSH1 0x40 MLOAD RETURNDATASIZE PUSH1 0x1F NOT PUSH1 0x1F DUP3 ADD AND DUP3 ADD DUP1 PUSH1 0x40 MSTORE POP DUP2 ADD SWAP1 PUSH2 0x257 SWAP2 SWAP1 PUSH2 0x101C JUMP JUMPDEST SWAP3 POP DUP5 PUSH20 0xFFFFFFFFFFFFFFFFFFFFFFFFFFFFFFFFFFFFFFFF AND PUSH4 0xD21220A7 PUSH1 0x40 MLOAD DUP2 PUSH4 0xFFFFFFFF AND PUSH1 0xE0 SHL DUP2 MSTORE PUSH1 0x4 ADD PUSH1 0x20 PUSH1 0x40 MLOAD DUP1 DUP4 SUB DUP2 DUP7 GAS STATICCALL ISZERO DUP1 ISZERO PUSH2 0x2A2 JUMPI RETURNDATASIZE PUSH0 DUP1 RETURNDATACOPY RETURNDATASIZE PUSH0 REVERT JUMPDEST POP POP POP POP PUSH1 0x40 MLOAD RETURNDATASIZE PUSH1 0x1F NOT PUSH1 0x1F DUP3 ADD AND DUP3 ADD DUP1 PUSH1 0x40 MSTORE POP DUP2 ADD SWAP1 PUSH2 0x2C6 SWAP2 SWAP1 PUSH2 0xFA5 JUMP JUMPDEST SWAP2 POP DUP2 PUSH20 0xFFFFFFFFFFFFFFFFFFFFFFFFFFFFFFFFFFFFFFFF AND PUSH4 0x70A08231 DUP7 PUSH1 0x40 MLOAD DUP3 PUSH4 0xFFFFFFFF AND PUSH1 0xE0 SHL DUP2 MSTORE PUSH1 0x4 ADD PUSH2 0x301 SWAP2 SWAP1 PUSH2 0xFD0 JUMP JUMPDEST PUSH1 0x20 PUSH1 0x40 MLOAD DUP1 DUP4 SUB DUP2 DUP7 GAS STATICCALL ISZERO DUP1 ISZERO PUSH2 0x31C JUMPI RETURNDATASIZE PUSH0 DUP1 RETURNDATACOPY RETURNDATASIZE PUSH0 REVERT JUMPDEST POP POP POP POP PUSH1 0x40 MLOAD RETURNDATASIZE PUSH1 0x1F NOT PUSH1 0x1F DUP3 ADD AND DUP3 ADD DUP1 PUSH1 0x40 MSTORE POP DUP2 ADD SWAP1 PUSH2 0x340 SWAP2 SWAP1 PUSH2 0x101C JUMP JUMPDEST SWAP1 POP SWAP4 SWAP8 SWAP3 SWAP7 POP SWAP4 POP SWAP4 POP JUMP JUMPDEST PUSH0 PUSH20 0xFFF9976782D46CC05630D1F6EBAB18B2324D6B14 SWAP1 POP PUSH1 0x1 DUP2 SWAP1 DUP1 PUSH1 0x1 DUP2 SLOAD ADD DUP1 DUP3 SSTORE DUP1 SWAP2 POP POP PUSH1 0x1 SWAP1 SUB SWAP1 PUSH0 MSTORE PUSH1 0x20 PUSH0 KECCAK256 ADD PUSH0 SWAP1 SWAP2 SWAP1 SWAP2 SWAP1 SWAP2 PUSH2 0x100 EXP DUP2 SLOAD DUP2 PUSH20 0xFFFFFFFFFFFFFFFFFFFFFFFFFFFFFFFFFFFFFFFF MUL NOT AND SWAP1 DUP4 PUSH20 0xFFFFFFFFFFFFFFFFFFFFFFFFFFFFFFFFFFFFFFFF AND MUL OR SWAP1 SSTORE POP PUSH1 0x40 MLOAD DUP1 PUSH1 0x40 ADD PUSH1 0x40 MSTORE DUP1 PUSH1 0x4 DUP2 MSTORE PUSH1 0x20 ADD PUSH32 0x5745544800000000000000000000000000000000000000000000000000000000 DUP2 MSTORE POP PUSH1 0x2 PUSH0 DUP4 PUSH20 0xFFFFFFFFFFFFFFFFFFFFFFFFFFFFFFFFFFFFFFFF AND PUSH20 0xFFFFFFFFFFFFFFFFFFFFFFFFFFFFFFFFFFFFFFFF AND DUP2 MSTORE PUSH1 0x20 ADD SWAP1 DUP2 MSTORE PUSH1 0x20 ADD PUSH0 KECCAK256 SWAP1 DUP2 PUSH2 0x444 SWAP2 SWAP1 PUSH2 0x1278 JUMP JUMPDEST POP PUSH0 PUSH20 0x1C7D4B196CB0C7B01D743FBC6116A902379C7238 SWAP1 POP PUSH1 0x1 DUP2 SWAP1 DUP1 PUSH1 0x1 DUP2 SLOAD ADD DUP1 DUP3 SSTORE DUP1 SWAP2 POP POP PUSH1 0x1 SWAP1 SUB SWAP1 PUSH0 MSTORE PUSH1 0x20 PUSH0 KECCAK256 ADD PUSH0 SWAP1 SWAP2 SWAP1 SWAP2 SWAP1 SWAP2 PUSH2 0x100 EXP DUP2 SLOAD DUP2 PUSH20 0xFFFFFFFFFFFFFFFFFFFFFFFFFFFFFFFFFFFFFFFF MUL NOT AND SWAP1 DUP4 PUSH20 0xFFFFFFFFFFFFFFFFFFFFFFFFFFFFFFFFFFFFFFFF AND MUL OR SWAP1 SSTORE POP PUSH1 0x40 MLOAD DUP1 PUSH1 0x40 ADD PUSH1 0x40 MSTORE DUP1 PUSH1 0x4 DUP2 MSTORE PUSH1 0x20 ADD PUSH32 0x5553444300000000000000000000000000000000000000000000000000000000 DUP2 MSTORE POP PUSH1 0x2 PUSH0 DUP4 PUSH20 0xFFFFFFFFFFFFFFFFFFFFFFFFFFFFFFFFFFFFFFFF AND PUSH20 0xFFFFFFFFFFFFFFFFFFFFFFFFFFFFFFFFFFFFFFFF AND DUP2 MSTORE PUSH1 0x20 ADD SWAP1 DUP2 MSTORE PUSH1 0x20 ADD PUSH0 KECCAK256 SWAP1 DUP2 PUSH2 0x53C SWAP2 SWAP1 PUSH2 0x1278 JUMP JUMPDEST POP PUSH0 PUSH20 0xAA8E23FB1079EA71E0A56F48A2AA51851D8433D0 SWAP1 POP PUSH1 0x1 DUP2 SWAP1 DUP1 PUSH1 0x1 DUP2 SLOAD ADD DUP1 DUP3 SSTORE DUP1 SWAP2 POP POP PUSH1 0x1 SWAP1 SUB SWAP1 PUSH0 MSTORE PUSH1 0x20 PUSH0 KECCAK256 ADD PUSH0 SWAP1 SWAP2 SWAP1 SWAP2 SWAP1 SWAP2 PUSH2 0x100 EXP DUP2 SLOAD DUP2 PUSH20 0xFFFFFFFFFFFFFFFFFFFFFFFFFFFFFFFFFFFFFFFF MUL NOT AND SWAP1 DUP4 PUSH20 0xFFFFFFFFFFFFFFFFFFFFFFFFFFFFFFFFFFFFFFFF AND MUL OR SWAP1 SSTORE POP PUSH1 0x40 MLOAD DUP1 PUSH1 0x40 ADD PUSH1 0x40 MSTORE DUP1 PUSH1 0x4 DUP2 MSTORE PUSH1 0x20 ADD PUSH32 0x5553445400000000000000000000000000000000000000000000000000000000 DUP2 MSTORE POP PUSH1 0x2 PUSH0 DUP4 PUSH20 0xFFFFFFFFFFFFFFFFFFFFFFFFFFFFFFFFFFFFFFFF AND PUSH20 0xFFFFFFFFFFFFFFFFFFFFFFFFFFFFFFFFFFFFFFFF AND DUP2 MSTORE PUSH1 0x20 ADD SWAP1 DUP2 MSTORE PUSH1 0x20 ADD PUSH0 KECCAK256 SWAP1 DUP2 PUSH2 0x634 SWAP2 SWAP1 PUSH2 0x1278 JUMP JUMPDEST POP PUSH0 PUSH20 0xFF34B3D4AEE8DDCD6F9AFFFB6FE49BD371B8A357 SWAP1 POP PUSH1 0x1 DUP2 SWAP1 DUP1 PUSH1 0x1 DUP2 SLOAD ADD DUP1 DUP3 SSTORE DUP1 SWAP2 POP POP PUSH1 0x1 SWAP1 SUB SWAP1 PUSH0 MSTORE PUSH1 0x20 PUSH0 KECCAK256 ADD PUSH0 SWAP1 SWAP2 SWAP1 SWAP2 SWAP1 SWAP2 PUSH2 0x100 EXP DUP2 SLOAD DUP2 PUSH20 0xFFFFFFFFFFFFFFFFFFFFFFFFFFFFFFFFFFFFFFFF MUL NOT AND SWAP1 DUP4 PUSH20 0xFFFFFFFFFFFFFFFFFFFFFFFFFFFFFFFFFFFFFFFF AND MUL OR SWAP1 SSTORE POP PUSH1 0x40 MLOAD DUP1 PUSH1 0x40 ADD PUSH1 0x40 MSTORE DUP1 PUSH1 0x3 DUP2 MSTORE PUSH1 0x20 ADD PUSH32 0x4441490000000000000000000000000000000000000000000000000000000000 DUP2 MSTORE POP PUSH1 0x2 PUSH0 DUP4 PUSH20 0xFFFFFFFFFFFFFFFFFFFFFFFFFFFFFFFFFFFFFFFF AND PUSH20 0xFFFFFFFFFFFFFFFFFFFFFFFFFFFFFFFFFFFFFFFF AND DUP2 MSTORE PUSH1 0x20 ADD SWAP1 DUP2 MSTORE PUSH1 0x20 ADD PUSH0 KECCAK256 SWAP1 DUP2 PUSH2 0x72C SWAP2 SWAP1 PUSH2 0x1278 JUMP JUMPDEST POP PUSH0 PUSH20 0x8210F9170F89AB7658F0B5E3FF39B0E03C594D4 SWAP1 POP PUSH1 0x1 DUP2 SWAP1 DUP1 PUSH1 0x1 DUP2 SLOAD ADD DUP1 DUP3 SSTORE DUP1 SWAP2 POP POP PUSH1 0x1 SWAP1 SUB SWAP1 PUSH0 MSTORE PUSH1 0x20 PUSH0 KECCAK256 ADD PUSH0 SWAP1 SWAP2 SWAP1 SWAP2 SWAP1 SWAP2 PUSH2 0x100 EXP DUP2 SLOAD DUP2 PUSH20 0xFFFFFFFFFFFFFFFFFFFFFFFFFFFFFFFFFFFFFFFF MUL NOT AND SWAP1 DUP4 PUSH20 0xFFFFFFFFFFFFFFFFFFFFFFFFFFFFFFFFFFFFFFFF AND MUL OR SWAP1 SSTORE POP PUSH1 0x40 MLOAD DUP1 PUSH1 0x40 ADD PUSH1 0x40 MSTORE DUP1 PUSH1 0x4 DUP2 MSTORE PUSH1 0x20 ADD PUSH32 0x4555524300000000000000000000000000000000000000000000000000000000 DUP2 MSTORE POP PUSH1 0x2 PUSH0 DUP4 PUSH20 0xFFFFFFFFFFFFFFFFFFFFFFFFFFFFFFFFFFFFFFFF AND PUSH20 0xFFFFFFFFFFFFFFFFFFFFFFFFFFFFFFFFFFFFFFFF AND DUP2 MSTORE PUSH1 0x20 ADD SWAP1 DUP2 MSTORE PUSH1 0x20 ADD PUSH0 KECCAK256 SWAP1 DUP2 PUSH2 0x824 SWAP2 SWAP1 PUSH2 0x1278 JUMP JUMPDEST POP PUSH0 PUSH20 0x779877A7B0D9E8603169DDBD7836E478B4624789 SWAP1 POP PUSH1 0x1 DUP2 SWAP1 DUP1 PUSH1 0x1 DUP2 SLOAD ADD DUP1 DUP3 SSTORE DUP1 SWAP2 POP POP PUSH1 0x1 SWAP1 SUB SWAP1 PUSH0 MSTORE PUSH1 0x20 PUSH0 KECCAK256 ADD PUSH0 SWAP1 SWAP2 SWAP1 SWAP2 SWAP1 SWAP2 PUSH2 0x100 EXP DUP2 SLOAD DUP2 PUSH20 0xFFFFFFFFFFFFFFFFFFFFFFFFFFFFFFFFFFFFFFFF MUL NOT AND SWAP1 DUP4 PUSH20 0xFFFFFFFFFFFFFFFFFFFFFFFFFFFFFFFFFFFFFFFF AND MUL OR SWAP1 SSTORE POP PUSH1 0x40 MLOAD DUP1 PUSH1 0x40 ADD PUSH1 0x40 MSTORE DUP1 PUSH1 0x4 DUP2 MSTORE PUSH1 0x20 ADD PUSH32 0x4C494E4B00000000000000000000000000000000000000000000000000000000 DUP2 MSTORE POP PUSH1 0x2 PUSH0 DUP4 PUSH20 0xFFFFFFFFFFFFFFFFFFFFFFFFFFFFFFFFFFFFFFFF AND PUSH20 0xFFFFFFFFFFFFFFFFFFFFFFFFFFFFFFFFFFFFFFFF AND DUP2 MSTORE PUSH1 0x20 ADD SWAP1 DUP2 MSTORE PUSH1 0x20 ADD PUSH0 KECCAK256 SWAP1 DUP2 PUSH2 0x91C SWAP2 SWAP1 PUSH2 0x1278 JUMP JUMPDEST POP PUSH0 PUSH20 0x88541670E55CC00BEEFD87EB59EDD1B7C511AC9A SWAP1 POP PUSH1 0x1 DUP2 SWAP1 DUP1 PUSH1 0x1 DUP2 SLOAD ADD DUP1 DUP3 SSTORE DUP1 SWAP2 POP POP PUSH1 0x1 SWAP1 SUB SWAP1 PUSH0 MSTORE PUSH1 0x20 PUSH0 KECCAK256 ADD PUSH0 SWAP1 SWAP2 SWAP1 SWAP2 SWAP1 SWAP2 PUSH2 0x100 EXP DUP2 SLOAD DUP2 PUSH20 0xFFFFFFFFFFFFFFFFFFFFFFFFFFFFFFFFFFFFFFFF MUL NOT AND SWAP1 DUP4 PUSH20 0xFFFFFFFFFFFFFFFFFFFFFFFFFFFFFFFFFFFFFFFF AND MUL OR SWAP1 SSTORE POP PUSH1 0x40 MLOAD DUP1 PUSH1 0x40 ADD PUSH1 0x40 MSTORE DUP1 PUSH1 0x4 DUP2 MSTORE PUSH1 0x20 ADD PUSH32 0x4141564500000000000000000000000000000000000000000000000000000000 DUP2 MSTORE POP PUSH1 0x2 PUSH0 DUP4 PUSH20 0xFFFFFFFFFFFFFFFFFFFFFFFFFFFFFFFFFFFFFFFF AND PUSH20 0xFFFFFFFFFFFFFFFFFFFFFFFFFFFFFFFFFFFFFFFF AND DUP2 MSTORE PUSH1 0x20 ADD SWAP1 DUP2 MSTORE PUSH1 0x20 ADD PUSH0 KECCAK256 SWAP1 DUP2 PUSH2 0xA14 SWAP2 SWAP1 PUSH2 0x1278 JUMP JUMPDEST POP PUSH0 PUSH20 0x1F9840A85D5AF5BF1D1762F925BDADDC4201F984 SWAP1 POP PUSH1 0x1 DUP2 SWAP1 DUP1 PUSH1 0x1 DUP2 SLOAD ADD DUP1 DUP3 SSTORE DUP1 SWAP2 POP POP PUSH1 0x1 SWAP1 SUB SWAP1 PUSH0 MSTORE PUSH1 0x20 PUSH0 KECCAK256 ADD PUSH0 SWAP1 SWAP2 SWAP1 SWAP2 SWAP1 SWAP2 PUSH2 0x100 EXP DUP2 SLOAD DUP2 PUSH20 0xFFFFFFFFFFFFFFFFFFFFFFFFFFFFFFFFFFFFFFFF MUL NOT AND SWAP1 DUP4 PUSH20 0xFFFFFFFFFFFFFFFFFFFFFFFFFFFFFFFFFFFFFFFF AND MUL OR SWAP1 SSTORE POP PUSH1 0x40 MLOAD DUP1 PUSH1 0x40 ADD PUSH1 0x40 MSTORE DUP1 PUSH1 0x3 DUP2 MSTORE PUSH1 0x20 ADD PUSH32 0x554E490000000000000000000000000000000000000000000000000000000000 DUP2 MSTORE POP PUSH1 0x2 PUSH0 DUP4 PUSH20 0xFFFFFFFFFFFFFFFFFFFFFFFFFFFFFFFFFFFFFFFF AND PUSH20 0xFFFFFFFFFFFFFFFFFFFFFFFFFFFFFFFFFFFFFFFF AND DUP2 MSTORE PUSH1 0x20 ADD SWAP1 DUP2 MSTORE PUSH1 0x20 ADD PUSH0 KECCAK256 SWAP1 DUP2 PUSH2 0xB0C SWAP2 SWAP1 PUSH2 0x1278 JUMP JUMPDEST POP PUSH0 PUSH20 0x29F2D40B0605204364AF54EC677BD022DA425D03 SWAP1 POP PUSH1 0x1 DUP2 SWAP1 DUP1 PUSH1 0x1 DUP2 SLOAD ADD DUP1 DUP3 SSTORE DUP1 SWAP2 POP POP PUSH1 0x1 SWAP1 SUB SWAP1 PUSH0 MSTORE PUSH1 0x20 PUSH0 KECCAK256 ADD PUSH0 SWAP1 SWAP2 SWAP1 SWAP2 SWAP1 SWAP2 PUSH2 0x100 EXP DUP2 SLOAD DUP2 PUSH20 0xFFFFFFFFFFFFFFFFFFFFFFFFFFFFFFFFFFFFFFFF MUL NOT AND SWAP1 DUP4 PUSH20 0xFFFFFFFFFFFFFFFFFFFFFFFFFFFFFFFFFFFFFFFF AND MUL OR SWAP1 SSTORE POP PUSH1 0x40 MLOAD DUP1 PUSH1 0x40 ADD PUSH1 0x40 MSTORE DUP1 PUSH1 0x4 DUP2 MSTORE PUSH1 0x20 ADD PUSH32 0x5742544300000000000000000000000000000000000000000000000000000000 DUP2 MSTORE POP PUSH1 0x2 PUSH0 DUP4 PUSH20 0xFFFFFFFFFFFFFFFFFFFFFFFFFFFFFFFFFFFFFFFF AND PUSH20 0xFFFFFFFFFFFFFFFFFFFFFFFFFFFFFFFFFFFFFFFF AND DUP2 MSTORE PUSH1 0x20 ADD SWAP1 DUP2 MSTORE PUSH1 0x20 ADD PUSH0 KECCAK256 SWAP1 DUP2 PUSH2 0xC04 SWAP2 SWAP1 PUSH2 0x1278 JUMP JUMPDEST POP PUSH0 PUSH20 0x3FD0A53F4BF853985A95F4EB3F9C9FDE1F8E2B53 SWAP1 POP PUSH1 0x1 DUP2 SWAP1 DUP1 PUSH1 0x1 DUP2 SLOAD ADD DUP1 DUP3 SSTORE DUP1 SWAP2 POP POP PUSH1 0x1 SWAP1 SUB SWAP1 PUSH0 MSTORE PUSH1 0x20 PUSH0 KECCAK256 ADD PUSH0 SWAP1 SWAP2 SWAP1 SWAP2 SWAP1 SWAP2 PUSH2 0x100 EXP DUP2 SLOAD DUP2 PUSH20 0xFFFFFFFFFFFFFFFFFFFFFFFFFFFFFFFFFFFFFFFF MUL NOT AND SWAP1 DUP4 PUSH20 0xFFFFFFFFFFFFFFFFFFFFFFFFFFFFFFFFFFFFFFFF AND MUL OR SWAP1 SSTORE POP PUSH1 0x40 MLOAD DUP1 PUSH1 0x40 ADD PUSH1 0x40 MSTORE DUP1 PUSH1 0x5 DUP2 MSTORE PUSH1 0x20 ADD PUSH32 0x4D41544943000000000000000000000000000000000000000000000000000000 DUP2 MSTORE POP PUSH1 0x2 PUSH0 DUP4 PUSH20 0xFFFFFFFFFFFFFFFFFFFFFFFFFFFFFFFFFFFFFFFF AND PUSH20 0xFFFFFFFFFFFFFFFFFFFFFFFFFFFFFFFFFFFFFFFF AND DUP2 MSTORE PUSH1 0x20 ADD SWAP1 DUP2 MSTORE PUSH1 0x20 ADD PUSH0 KECCAK256 SWAP1 DUP2 PUSH2 0xCFC SWAP2 SWAP1 PUSH2 0x1278 JUMP JUMPDEST POP PUSH0 PUSH20 0xD701E3E1A327D13564BA072E6C0806129FEA4671 SWAP1 POP PUSH1 0x1 DUP2 SWAP1 DUP1 PUSH1 0x1 DUP2 SLOAD ADD DUP1 DUP3 SSTORE DUP1 SWAP2 POP POP PUSH1 0x1 SWAP1 SUB SWAP1 PUSH0 MSTORE PUSH1 0x20 PUSH0 KECCAK256 ADD PUSH0 SWAP1 SWAP2 SWAP1 SWAP2 SWAP1 SWAP2 PUSH2 0x100 EXP DUP2 SLOAD DUP2 PUSH20 0xFFFFFFFFFFFFFFFFFFFFFFFFFFFFFFFFFFFFFFFF MUL NOT AND SWAP1 DUP4 PUSH20 0xFFFFFFFFFFFFFFFFFFFFFFFFFFFFFFFFFFFFFFFF AND MUL OR SWAP1 SSTORE POP PUSH1 0x40 MLOAD DUP1 PUSH1 0x40 ADD PUSH1 0x40 MSTORE DUP1 PUSH1 0x3 DUP2 MSTORE PUSH1 0x20 ADD PUSH32 0x4B4E430000000000000000000000000000000000000000000000000000000000 DUP2 MSTORE POP PUSH1 0x2 PUSH0 DUP4 PUSH20 0xFFFFFFFFFFFFFFFFFFFFFFFFFFFFFFFFFFFFFFFF AND PUSH20 0xFFFFFFFFFFFFFFFFFFFFFFFFFFFFFFFFFFFFFFFF AND DUP2 MSTORE PUSH1 0x20 ADD SWAP1 DUP2 MSTORE PUSH1 0x20 ADD PUSH0 KECCAK256 SWAP1 DUP2 PUSH2 0xDF4 SWAP2 SWAP1 PUSH2 0x1278 JUMP JUMPDEST POP PUSH1 0x3 PUSH2 0x1F4 SWAP1 DUP1 PUSH1 0x1 DUP2 SLOAD ADD DUP1 DUP3 SSTORE DUP1 SWAP2 POP POP PUSH1 0x1 SWAP1 SUB SWAP1 PUSH0 MSTORE PUSH1 0x20 PUSH0 KECCAK256 SWAP1 PUSH1 0xA SWAP2 DUP3 DUP3 DIV ADD SWAP2 SWAP1 MOD PUSH1 0x3 MUL SWAP1 SWAP2 SWAP1 SWAP2 SWAP1 SWAP2 PUSH2 0x100 EXP DUP2 SLOAD DUP2 PUSH3 0xFFFFFF MUL NOT AND SWAP1 DUP4 PUSH3 0xFFFFFF AND MUL OR SWAP1 SSTORE POP PUSH1 0x3 PUSH2 0xBB8 SWAP1 DUP1 PUSH1 0x1 DUP2 SLOAD ADD DUP1 DUP3 SSTORE DUP1 SWAP2 POP POP PUSH1 0x1 SWAP1 SUB SWAP1 PUSH0 MSTORE PUSH1 0x20 PUSH0 KECCAK256 SWAP1 PUSH1 0xA SWAP2 DUP3 DUP3 DIV ADD SWAP2 SWAP1 MOD PUSH1 0x3 MUL SWAP1 SWAP2 SWAP1 SWAP2 SWAP1 SWAP2 PUSH2 0x100 EXP DUP2 SLOAD DUP2 PUSH3 0xFFFFFF MUL NOT AND SWAP1 DUP4 PUSH3 0xFFFFFF AND MUL OR SWAP1 SSTORE POP PUSH1 0x3 PUSH2 0x2710 SWAP1 DUP1 PUSH1 0x1 DUP2 SLOAD ADD DUP1 DUP3 SSTORE DUP1 SWAP2 POP POP PUSH1 0x1 SWAP1 SUB SWAP1 PUSH0 MSTORE PUSH1 0x20 PUSH0 KECCAK256 SWAP1 PUSH1 0xA SWAP2 DUP3 DUP3 DIV ADD SWAP2 SWAP1 MOD PUSH1 0x3 MUL SWAP1 SWAP2 SWAP1 SWAP2 SWAP1 SWAP2 PUSH2 0x100 EXP DUP2 SLOAD DUP2 PUSH3 0xFFFFFF MUL NOT AND SWAP1 DUP4 PUSH3 0xFFFFFF AND MUL OR SWAP1 SSTORE POP POP POP POP POP POP POP POP POP POP POP POP JUMP JUMPDEST PUSH0 PUSH20 0xFFFFFFFFFFFFFFFFFFFFFFFFFFFFFFFFFFFFFFFF DUP3 AND SWAP1 POP SWAP2 SWAP1 POP JUMP JUMPDEST PUSH0 PUSH2 0xF0F DUP3 PUSH2 0xEE6 JUMP JUMPDEST SWAP1 POP SWAP2 SWAP1 POP JUMP JUMPDEST PUSH2 0xF1F DUP2 PUSH2 0xF05 JUMP JUMPDEST DUP3 MSTORE POP POP JUMP JUMPDEST PUSH0 PUSH3 0xFFFFFF DUP3 AND SWAP1 POP SWAP2 SWAP1 POP JUMP JUMPDEST PUSH2 0xF3C DUP2 PUSH2 0xF25 JUMP JUMPDEST DUP3 MSTORE POP POP JUMP JUMPDEST PUSH0 PUSH1 0x60 DUP3 ADD SWAP1 POP PUSH2 0xF55 PUSH0 DUP4 ADD DUP7 PUSH2 0xF16 JUMP JUMPDEST PUSH2 0xF62 PUSH1 0x20 DUP4 ADD DUP6 PUSH2 0xF16 JUMP JUMPDEST PUSH2 0xF6F PUSH1 0x40 DUP4 ADD DUP5 PUSH2 0xF33 JUMP JUMPDEST SWAP5 SWAP4 POP POP POP POP JUMP JUMPDEST PUSH0 DUP1 REVERT JUMPDEST PUSH2 0xF84 DUP2 PUSH2 0xF05 JUMP JUMPDEST DUP2 EQ PUSH2 0xF8E JUMPI PUSH0 DUP1 REVERT JUMPDEST POP JUMP JUMPDEST PUSH0 DUP2 MLOAD SWAP1 POP PUSH2 0xF9F DUP2 PUSH2 0xF7B JUMP JUMPDEST SWAP3 SWAP2 POP POP JUMP JUMPDEST PUSH0 PUSH1 0x20 DUP3 DUP5 SUB SLT ISZERO PUSH2 0xFBA JUMPI PUSH2 0xFB9 PUSH2 0xF77 JUMP JUMPDEST JUMPDEST PUSH0 PUSH2 0xFC7 DUP5 DUP3 DUP6 ADD PUSH2 0xF91 JUMP JUMPDEST SWAP2 POP POP SWAP3 SWAP2 POP POP JUMP JUMPDEST PUSH0 PUSH1 0x20 DUP3 ADD SWAP1 POP PUSH2 0xFE3 PUSH0 DUP4 ADD DUP5 PUSH2 0xF16 JUMP JUMPDEST SWAP3 SWAP2 POP POP JUMP JUMPDEST PUSH0 DUP2 SWAP1 POP SWAP2 SWAP1 POP JUMP JUMPDEST PUSH2 0xFFB DUP2 PUSH2 0xFE9 JUMP JUMPDEST DUP2 EQ PUSH2 0x1005 JUMPI PUSH0 DUP1 REVERT JUMPDEST POP JUMP JUMPDEST PUSH0 DUP2 MLOAD SWAP1 POP PUSH2 0x1016 DUP2 PUSH2 0xFF2 JUMP JUMPDEST SWAP3 SWAP2 POP POP JUMP JUMPDEST PUSH0 PUSH1 0x20 DUP3 DUP5 SUB SLT ISZERO PUSH2 0x1031 JUMPI PUSH2 0x1030 PUSH2 0xF77 JUMP JUMPDEST JUMPDEST PUSH0 PUSH2 0x103E DUP5 DUP3 DUP6 ADD PUSH2 0x1008 JUMP JUMPDEST SWAP2 POP POP SWAP3 SWAP2 POP POP JUMP JUMPDEST PUSH0 DUP2 MLOAD SWAP1 POP SWAP2 SWAP1 POP JUMP JUMPDEST PUSH32 0x4E487B7100000000000000000000000000000000000000000000000000000000 PUSH0 MSTORE PUSH1 0x41 PUSH1 0x4 MSTORE PUSH1 0x24 PUSH0 REVERT JUMPDEST PUSH32 0x4E487B7100000000000000000000000000000000000000000000000000000000 PUSH0 MSTORE PUSH1 0x22 PUSH1 0x4 MSTORE PUSH1 0x24 PUSH0 REVERT JUMPDEST PUSH0 PUSH1 0x2 DUP3 DIV SWAP1 POP PUSH1 0x1 DUP3 AND DUP1 PUSH2 0x10C2 JUMPI PUSH1 0x7F DUP3 AND SWAP2 POP JUMPDEST PUSH1 0x20 DUP3 LT DUP2 SUB PUSH2 0x10D5 JUMPI PUSH2 0x10D4 PUSH2 0x107E JUMP JUMPDEST JUMPDEST POP SWAP2 SWAP1 POP JUMP JUMPDEST PUSH0 DUP2 SWAP1 POP DUP2 PUSH0 MSTORE PUSH1 0x20 PUSH0 KECCAK256 SWAP1 POP SWAP2 SWAP1 POP JUMP JUMPDEST PUSH0 PUSH1 0x20 PUSH1 0x1F DUP4 ADD DIV SWAP1 POP SWAP2 SWAP1 POP JUMP JUMPDEST PUSH0 DUP3 DUP3 SHL SWAP1 POP SWAP3 SWAP2 POP POP JUMP JUMPDEST PUSH0 PUSH1 0x8 DUP4 MUL PUSH2 0x1137 PUSH32 0xFFFFFFFFFFFFFFFFFFFFFFFFFFFFFFFFFFFFFFFFFFFFFFFFFFFFFFFFFFFFFFFF DUP3 PUSH2 0x10FC JUMP JUMPDEST PUSH2 0x1141 DUP7 DUP4 PUSH2 0x10FC JUMP JUMPDEST SWAP6 POP DUP1 NOT DUP5 AND SWAP4 POP DUP1 DUP7 AND DUP5 OR SWAP3 POP POP POP SWAP4 SWAP3 POP POP POP JUMP JUMPDEST PUSH0 DUP2 SWAP1 POP SWAP2 SWAP1 POP JUMP JUMPDEST PUSH0 PUSH2 0x117C PUSH2 0x1177 PUSH2 0x1172 DUP5 PUSH2 0xFE9 JUMP JUMPDEST PUSH2 0x1159 JUMP JUMPDEST PUSH2 0xFE9 JUMP JUMPDEST SWAP1 POP SWAP2 SWAP1 POP JUMP JUMPDEST PUSH0 DUP2 SWAP1 POP SWAP2 SWAP1 POP JUMP JUMPDEST PUSH2 0x1195 DUP4 PUSH2 0x1162 JUMP JUMPDEST PUSH2 0x11A9 PUSH2 0x11A1 DUP3 PUSH2 0x1183 JUMP JUMPDEST DUP5 DUP5 SLOAD PUSH2 0x1108 JUMP JUMPDEST DUP3 SSTORE POP POP POP POP JUMP JUMPDEST PUSH0 SWAP1 JUMP JUMPDEST PUSH2 0x11BD PUSH2 0x11B1 JUMP JUMPDEST PUSH2 0x11C8 DUP2 DUP5 DUP5 PUSH2 0x118C JUMP JUMPDEST POP POP POP JUMP JUMPDEST JUMPDEST DUP2 DUP2 LT ISZERO PUSH2 0x11EB JUMPI PUSH2 0x11E0 PUSH0 DUP3 PUSH2 0x11B5 JUMP JUMPDEST PUSH1 0x1 DUP2 ADD SWAP1 POP PUSH2 0x11CE JUMP JUMPDEST POP POP JUMP JUMPDEST PUSH1 0x1F DUP3 GT ISZERO PUSH2 0x1230 JUMPI PUSH2 0x1201 DUP2 PUSH2 0x10DB JUMP JUMPDEST PUSH2 0x120A DUP5 PUSH2 0x10ED JUMP JUMPDEST DUP2 ADD PUSH1 0x20 DUP6 LT ISZERO PUSH2 0x1219 JUMPI DUP2 SWAP1 POP JUMPDEST PUSH2 0x122D PUSH2 0x1225 DUP6 PUSH2 0x10ED JUMP JUMPDEST DUP4 ADD DUP3 PUSH2 0x11CD JUMP JUMPDEST POP POP JUMPDEST POP POP POP JUMP JUMPDEST PUSH0 DUP3 DUP3 SHR SWAP1 POP SWAP3 SWAP2 POP POP JUMP JUMPDEST PUSH0 PUSH2 0x1250 PUSH0 NOT DUP5 PUSH1 0x8 MUL PUSH2 0x1235 JUMP JUMPDEST NOT DUP1 DUP4 AND SWAP2 POP POP SWAP3 SWAP2 POP POP JUMP JUMPDEST PUSH0 PUSH2 0x1268 DUP4 DUP4 PUSH2 0x1241 JUMP JUMPDEST SWAP2 POP DUP3 PUSH1 0x2 MUL DUP3 OR SWAP1 POP SWAP3 SWAP2 POP POP JUMP JUMPDEST PUSH2 0x1281 DUP3 PUSH2 0x1047 JUMP JUMPDEST PUSH8 0xFFFFFFFFFFFFFFFF DUP2 GT ISZERO PUSH2 0x129A JUMPI PUSH2 0x1299 PUSH2 0x1051 JUMP JUMPDEST JUMPDEST PUSH2 0x12A4 DUP3 SLOAD PUSH2 0x10AB JUMP JUMPDEST PUSH2 0x12AF DUP3 DUP3 DUP6 PUSH2 0x11EF JUMP JUMPDEST PUSH0 PUSH1 0x20 SWAP1 POP PUSH1 0x1F DUP4 GT PUSH1 0x1 DUP2 EQ PUSH2 0x12E0 JUMPI PUSH0 DUP5 ISZERO PUSH2 0x12CE JUMPI DUP3 DUP8 ADD MLOAD SWAP1 POP JUMPDEST PUSH2 0x12D8 DUP6 DUP3 PUSH2 0x125D JUMP JUMPDEST DUP7 SSTORE POP PUSH2 0x133F JUMP JUMPDEST PUSH1 0x1F NOT DUP5 AND PUSH2 0x12EE DUP7 PUSH2 0x10DB JUMP JUMPDEST PUSH0 JUMPDEST DUP3 DUP2 LT ISZERO PUSH2 0x1315 JUMPI DUP5 DUP10 ADD MLOAD DUP3 SSTORE PUSH1 0x1 DUP3 ADD SWAP2 POP PUSH1 0x20 DUP6 ADD SWAP5 POP PUSH1 0x20 DUP2 ADD SWAP1 POP PUSH2 0x12F0 JUMP JUMPDEST DUP7 DUP4 LT ISZERO PUSH2 0x1332 JUMPI DUP5 DUP10 ADD MLOAD PUSH2 0x132E PUSH1 0x1F DUP10 AND DUP3 PUSH2 0x1241 JUMP JUMPDEST DUP4 SSTORE POP JUMPDEST PUSH1 0x1 PUSH1 0x2 DUP9 MUL ADD DUP9 SSTORE POP POP POP JUMPDEST POP POP POP POP POP POP JUMP JUMPDEST PUSH1 0x80 MLOAD PUSH2 0x248C PUSH2 0x1366 PUSH0 CODECOPY PUSH0 DUP2 DUP2 PUSH2 0x662 ADD MSTORE PUSH2 0x722 ADD MSTORE PUSH2 0x248C PUSH0 RETURN INVALID PUSH1 0x80 PUSH1 0x40 MSTORE CALLVALUE DUP1 ISZERO PUSH2 0xF JUMPI PUSH0 DUP1 REVERT JUMPDEST POP PUSH1 0x4 CALLDATASIZE LT PUSH2 0xFE JUMPI PUSH0 CALLDATALOAD PUSH1 0xE0 SHR DUP1 PUSH4 0x9D5D46B5 GT PUSH2 0x95 JUMPI DUP1 PUSH4 0xD1AF005D GT PUSH2 0x64 JUMPI DUP1 PUSH4 0xD1AF005D EQ PUSH2 0x2C9 JUMPI DUP1 PUSH4 0xF73E5AAB EQ PUSH2 0x2E5 JUMPI DUP1 PUSH4 0xF851A440 EQ PUSH2 0x303 JUMPI DUP1 PUSH4 0xFAA32F5D EQ PUSH2 0x321 JUMPI PUSH2 0xFE JUMP JUMPDEST DUP1 PUSH4 0x9D5D46B5 EQ PUSH2 0x22D JUMPI DUP1 PUSH4 0xAD5C4648 EQ PUSH2 0x25D JUMPI DUP1 PUSH4 0xB34B06AF EQ PUSH2 0x27B JUMPI DUP1 PUSH4 0xB59B28EF EQ PUSH2 0x299 JUMPI PUSH2 0xFE JUMP JUMPDEST DUP1 PUSH4 0x49C0222F GT PUSH2 0xD1 JUMPI DUP1 PUSH4 0x49C0222F EQ PUSH2 0x1A4 JUMPI DUP1 PUSH4 0x7F6C6F10 EQ PUSH2 0x1D5 JUMPI DUP1 PUSH4 0x89A30271 EQ PUSH2 0x1F3 JUMPI DUP1 PUSH4 0x8FEF8474 EQ PUSH2 0x211 JUMPI PUSH2 0xFE JUMP JUMPDEST DUP1 PUSH4 0x85D4AD3 EQ PUSH2 0x102 JUMPI DUP1 PUSH4 0x1698EE82 EQ PUSH2 0x132 JUMPI DUP1 PUSH4 0x16F0115B EQ PUSH2 0x166 JUMPI DUP1 PUSH4 0x4055CDFB EQ PUSH2 0x184 JUMPI JUMPDEST PUSH0 DUP1 REVERT JUMPDEST PUSH2 0x11C PUSH1 0x4 DUP1 CALLDATASIZE SUB DUP2 ADD SWAP1 PUSH2 0x117 SWAP2 SWAP1 PUSH2 0x13A3 JUMP JUMPDEST PUSH2 0x351 JUMP JUMPDEST PUSH1 0x40 MLOAD PUSH2 0x129 SWAP2 SWAP1 PUSH2 0x143E JUMP JUMPDEST PUSH1 0x40 MLOAD DUP1 SWAP2 SUB SWAP1 RETURN JUMPDEST PUSH2 0x14C PUSH1 0x4 DUP1 CALLDATASIZE SUB DUP2 ADD SWAP1 PUSH2 0x147 SWAP2 SWAP1 PUSH2 0x1496 JUMP JUMPDEST PUSH2 0x3EC JUMP JUMPDEST PUSH1 0x40 MLOAD PUSH2 0x15D SWAP6 SWAP5 SWAP4 SWAP3 SWAP2 SWAP1 PUSH2 0x150D JUMP JUMPDEST PUSH1 0x40 MLOAD DUP1 SWAP2 SUB SWAP1 RETURN JUMPDEST PUSH2 0x16E PUSH2 0x660 JUMP JUMPDEST PUSH1 0x40 MLOAD PUSH2 0x17B SWAP2 SWAP1 PUSH2 0x15B9 JUMP JUMPDEST PUSH1 0x40 MLOAD DUP1 SWAP2 SUB SWAP1 RETURN JUMPDEST PUSH2 0x18C PUSH2 0x684 JUMP JUMPDEST PUSH1 0x40 MLOAD PUSH2 0x19B SWAP4 SWAP3 SWAP2 SWAP1 PUSH2 0x15D2 JUMP JUMPDEST PUSH1 0x40 MLOAD DUP1 SWAP2 SUB SWAP1 RETURN JUMPDEST PUSH2 0x1BE PUSH1 0x4 DUP1 CALLDATASIZE SUB DUP2 ADD SWAP1 PUSH2 0x1B9 SWAP2 SWAP1 PUSH2 0x163A JUMP JUMPDEST PUSH2 0x68C JUMP JUMPDEST PUSH1 0x40 MLOAD PUSH2 0x1CC SWAP3 SWAP2 SWAP1 PUSH2 0x1687 JUMP JUMPDEST PUSH1 0x40 MLOAD DUP1 SWAP2 SUB SWAP1 RETURN JUMPDEST PUSH2 0x1DD PUSH2 0x81C JUMP JUMPDEST PUSH1 0x40 MLOAD PUSH2 0x1EA SWAP2 SWAP1 PUSH2 0x16AE JUMP JUMPDEST PUSH1 0x40 MLOAD DUP1 SWAP2 SUB SWAP1 RETURN JUMPDEST PUSH2 0x1FB PUSH2 0x823 JUMP JUMPDEST PUSH1 0x40 MLOAD PUSH2 0x208 SWAP2 SWAP1 PUSH2 0x16C7 JUMP JUMPDEST PUSH1 0x40 MLOAD DUP1 SWAP2 SUB SWAP1 RETURN JUMPDEST PUSH2 0x22B PUSH1 0x4 DUP1 CALLDATASIZE SUB DUP2 ADD SWAP1 PUSH2 0x226 SWAP2 SWAP1 PUSH2 0x170A JUMP JUMPDEST PUSH2 0x83B JUMP JUMPDEST STOP JUMPDEST PUSH2 0x247 PUSH1 0x4 DUP1 CALLDATASIZE SUB DUP2 ADD SWAP1 PUSH2 0x242 SWAP2 SWAP1 PUSH2 0x1748 JUMP JUMPDEST PUSH2 0x95C JUMP JUMPDEST PUSH1 0x40 MLOAD PUSH2 0x254 SWAP2 SWAP1 PUSH2 0x1782 JUMP JUMPDEST PUSH1 0x40 MLOAD DUP1 SWAP2 SUB SWAP1 RETURN JUMPDEST PUSH2 0x265 PUSH2 0x992 JUMP JUMPDEST PUSH1 0x40 MLOAD PUSH2 0x272 SWAP2 SWAP1 PUSH2 0x16C7 JUMP JUMPDEST PUSH1 0x40 MLOAD DUP1 SWAP2 SUB SWAP1 RETURN JUMPDEST PUSH2 0x283 PUSH2 0x9AA JUMP JUMPDEST PUSH1 0x40 MLOAD PUSH2 0x290 SWAP2 SWAP1 PUSH2 0x19D1 JUMP JUMPDEST PUSH1 0x40 MLOAD DUP1 SWAP2 SUB SWAP1 RETURN JUMPDEST PUSH2 0x2B3 PUSH1 0x4 DUP1 CALLDATASIZE SUB DUP2 ADD SWAP1 PUSH2 0x2AE SWAP2 SWAP1 PUSH2 0x1B31 JUMP JUMPDEST PUSH2 0xF55 JUMP JUMPDEST PUSH1 0x40 MLOAD PUSH2 0x2C0 SWAP2 SWAP1 PUSH2 0x1C4F JUMP JUMPDEST PUSH1 0x40 MLOAD DUP1 SWAP2 SUB SWAP1 RETURN JUMPDEST PUSH2 0x2E3 PUSH1 0x4 DUP1 CALLDATASIZE SUB DUP2 ADD SWAP1 PUSH2 0x2DE SWAP2 SWAP1 PUSH2 0x170A JUMP JUMPDEST PUSH2 0x111B JUMP JUMPDEST STOP JUMPDEST PUSH2 0x2ED PUSH2 0x123C JUMP JUMPDEST PUSH1 0x40 MLOAD PUSH2 0x2FA SWAP2 SWAP1 PUSH2 0x16C7 JUMP JUMPDEST PUSH1 0x40 MLOAD DUP1 SWAP2 SUB SWAP1 RETURN JUMPDEST PUSH2 0x30B PUSH2 0x1254 JUMP JUMPDEST PUSH1 0x40 MLOAD PUSH2 0x318 SWAP2 SWAP1 PUSH2 0x16C7 JUMP JUMPDEST PUSH1 0x40 MLOAD DUP1 SWAP2 SUB SWAP1 RETURN JUMPDEST PUSH2 0x33B PUSH1 0x4 DUP1 CALLDATASIZE SUB DUP2 ADD SWAP1 PUSH2 0x336 SWAP2 SWAP1 PUSH2 0x1748 JUMP JUMPDEST PUSH2 0x1277 JUMP JUMPDEST PUSH1 0x40 MLOAD PUSH2 0x348 SWAP2 SWAP1 PUSH2 0x16C7 JUMP JUMPDEST PUSH1 0x40 MLOAD DUP1 SWAP2 SUB SWAP1 RETURN JUMPDEST PUSH1 0x2 PUSH1 0x20 MSTORE DUP1 PUSH0 MSTORE PUSH1 0x40 PUSH0 KECCAK256 PUSH0 SWAP2 POP SWAP1 POP DUP1 SLOAD PUSH2 0x36D SWAP1 PUSH2 0x1C9C JUMP JUMPDEST DUP1 PUSH1 0x1F ADD PUSH1 0x20 DUP1 SWAP2 DIV MUL PUSH1 0x20 ADD PUSH1 0x40 MLOAD SWAP1 DUP2 ADD PUSH1 0x40 MSTORE DUP1 SWAP3 SWAP2 SWAP1 DUP2 DUP2 MSTORE PUSH1 0x20 ADD DUP3 DUP1 SLOAD PUSH2 0x399 SWAP1 PUSH2 0x1C9C JUMP JUMPDEST DUP1 ISZERO PUSH2 0x3E4 JUMPI DUP1 PUSH1 0x1F LT PUSH2 0x3BB JUMPI PUSH2 0x100 DUP1 DUP4 SLOAD DIV MUL DUP4 MSTORE SWAP2 PUSH1 0x20 ADD SWAP2 PUSH2 0x3E4 JUMP JUMPDEST DUP3 ADD SWAP2 SWAP1 PUSH0 MSTORE PUSH1 0x20 PUSH0 KECCAK256 SWAP1 JUMPDEST DUP2 SLOAD DUP2 MSTORE SWAP1 PUSH1 0x1 ADD SWAP1 PUSH1 0x20 ADD DUP1 DUP4 GT PUSH2 0x3C7 JUMPI DUP3 SWAP1 SUB PUSH1 0x1F AND DUP3 ADD SWAP2 JUMPDEST POP POP POP POP POP DUP2 JUMP JUMPDEST PUSH0 DUP1 PUSH0 DUP1 PUSH0 PUSH20 0x227628F3F023BB0B980B67D528571C95C6DAC1C PUSH20 0xFFFFFFFFFFFFFFFFFFFFFFFFFFFFFFFFFFFFFFFF AND PUSH4 0x1698EE82 DUP10 DUP10 DUP10 PUSH1 0x40 MLOAD DUP5 PUSH4 0xFFFFFFFF AND PUSH1 0xE0 SHL DUP2 MSTORE PUSH1 0x4 ADD PUSH2 0x442 SWAP4 SWAP3 SWAP2 SWAP1 PUSH2 0x1CCC JUMP JUMPDEST PUSH1 0x20 PUSH1 0x40 MLOAD DUP1 DUP4 SUB DUP2 DUP7 GAS STATICCALL ISZERO DUP1 ISZERO PUSH2 0x45D JUMPI RETURNDATASIZE PUSH0 DUP1 RETURNDATACOPY RETURNDATASIZE PUSH0 REVERT JUMPDEST POP POP POP POP PUSH1 0x40 MLOAD RETURNDATASIZE PUSH1 0x1F NOT PUSH1 0x1F DUP3 ADD AND DUP3 ADD DUP1 PUSH1 0x40 MSTORE POP DUP2 ADD SWAP1 PUSH2 0x481 SWAP2 SWAP1 PUSH2 0x1D15 JUMP JUMPDEST SWAP5 POP DUP5 PUSH20 0xFFFFFFFFFFFFFFFFFFFFFFFFFFFFFFFFFFFFFFFF AND PUSH4 0xDFE1681 PUSH1 0x40 MLOAD DUP2 PUSH4 0xFFFFFFFF AND PUSH1 0xE0 SHL DUP2 MSTORE PUSH1 0x4 ADD PUSH1 0x20 PUSH1 0x40 MLOAD DUP1 DUP4 SUB DUP2 DUP7 GAS STATICCALL ISZERO DUP1 ISZERO PUSH2 0x4CC JUMPI RETURNDATASIZE PUSH0 DUP1 RETURNDATACOPY RETURNDATASIZE PUSH0 REVERT JUMPDEST POP POP POP POP PUSH1 0x40 MLOAD RETURNDATASIZE PUSH1 0x1F NOT PUSH1 0x1F DUP3 ADD AND DUP3 ADD DUP1 PUSH1 0x40 MSTORE POP DUP2 ADD SWAP1 PUSH2 0x4F0 SWAP2 SWAP1 PUSH2 0x1D15 JUMP JUMPDEST SWAP4 POP DUP4 PUSH20 0xFFFFFFFFFFFFFFFFFFFFFFFFFFFFFFFFFFFFFFFF AND PUSH4 0x70A08231 DUP7 PUSH1 0x40 MLOAD DUP3 PUSH4 0xFFFFFFFF AND PUSH1 0xE0 SHL DUP2 MSTORE PUSH1 0x4 ADD PUSH2 0x52B SWAP2 SWAP1 PUSH2 0x16C7 JUMP JUMPDEST PUSH1 0x20 PUSH1 0x40 MLOAD DUP1 DUP4 SUB DUP2 DUP7 GAS STATICCALL ISZERO DUP1 ISZERO PUSH2 0x546 JUMPI RETURNDATASIZE PUSH0 DUP1 RETURNDATACOPY RETURNDATASIZE PUSH0 REVERT JUMPDEST POP POP POP POP PUSH1 0x40 MLOAD RETURNDATASIZE PUSH1 0x1F NOT PUSH1 0x1F DUP3 ADD AND DUP3 ADD DUP1 PUSH1 0x40 MSTORE POP DUP2 ADD SWAP1 PUSH2 0x56A SWAP2 SWAP1 PUSH2 0x1D54 JUMP JUMPDEST SWAP3 POP DUP5 PUSH20 0xFFFFFFFFFFFFFFFFFFFFFFFFFFFFFFFFFFFFFFFF AND PUSH4 0xD21220A7 PUSH1 0x40 MLOAD DUP2 PUSH4 0xFFFFFFFF AND PUSH1 0xE0 SHL DUP2 MSTORE PUSH1 0x4 ADD PUSH1 0x20 PUSH1 0x40 MLOAD DUP1 DUP4 SUB DUP2 DUP7 GAS STATICCALL ISZERO DUP1 ISZERO PUSH2 0x5B5 JUMPI RETURNDATASIZE PUSH0 DUP1 RETURNDATACOPY RETURNDATASIZE PUSH0 REVERT JUMPDEST POP POP POP POP PUSH1 0x40 MLOAD RETURNDATASIZE PUSH1 0x1F NOT PUSH1 0x1F DUP3 ADD AND DUP3 ADD DUP1 PUSH1 0x40 MSTORE POP DUP2 ADD SWAP1 PUSH2 0x5D9 SWAP2 SWAP1 PUSH2 0x1D15 JUMP JUMPDEST SWAP2 POP DUP2 PUSH20 0xFFFFFFFFFFFFFFFFFFFFFFFFFFFFFFFFFFFFFFFF AND PUSH4 0x70A08231 DUP7 PUSH1 0x40 MLOAD DUP3 PUSH4 0xFFFFFFFF AND PUSH1 0xE0 SHL DUP2 MSTORE PUSH1 0x4 ADD PUSH2 0x614 SWAP2 SWAP1 PUSH2 0x16C7 JUMP JUMPDEST PUSH1 0x20 PUSH1 0x40 MLOAD DUP1 DUP4 SUB DUP2 DUP7 GAS STATICCALL ISZERO DUP1 ISZERO PUSH2 0x62F JUMPI RETURNDATASIZE PUSH0 DUP1 RETURNDATACOPY RETURNDATASIZE PUSH0 REVERT JUMPDEST POP POP POP POP PUSH1 0x40 MLOAD RETURNDATASIZE PUSH1 0x1F NOT PUSH1 0x1F DUP3 ADD AND DUP3 ADD DUP1 PUSH1 0x40 MSTORE POP DUP2 ADD SWAP1 PUSH2 0x653 SWAP2 SWAP1 PUSH2 0x1D54 JUMP JUMPDEST SWAP1 POP SWAP4 SWAP8 SWAP3 SWAP7 POP SWAP4 POP SWAP4 POP JUMP JUMPDEST PUSH32 0x0 DUP2 JUMP JUMPDEST PUSH0 DUP1 PUSH0 SWAP1 SWAP2 SWAP3 JUMP JUMPDEST PUSH0 DUP1 PUSH0 DUP1 SLOAD SWAP1 PUSH2 0x100 EXP SWAP1 DIV PUSH20 0xFFFFFFFFFFFFFFFFFFFFFFFFFFFFFFFFFFFFFFFF AND PUSH20 0xFFFFFFFFFFFFFFFFFFFFFFFFFFFFFFFFFFFFFFFF AND CALLER PUSH20 0xFFFFFFFFFFFFFFFFFFFFFFFFFFFFFFFFFFFFFFFF AND EQ PUSH2 0x71B JUMPI PUSH1 0x40 MLOAD PUSH32 0x8C379A000000000000000000000000000000000000000000000000000000000 DUP2 MSTORE PUSH1 0x4 ADD PUSH2 0x712 SWAP1 PUSH2 0x1DC9 JUMP JUMPDEST PUSH1 0x40 MLOAD DUP1 SWAP2 SUB SWAP1 REVERT JUMPDEST PUSH0 PUSH1 0x1 SWAP1 POP PUSH32 0x0 PUSH20 0xFFFFFFFFFFFFFFFFFFFFFFFFFFFFFFFFFFFFFFFF AND PUSH4 0x128ACB08 DUP6 DUP4 DUP9 PUSH0 DUP1 PUSH8 0xFFFFFFFFFFFFFFFF DUP2 GT ISZERO PUSH2 0x77A JUMPI PUSH2 0x779 PUSH2 0x19F5 JUMP JUMPDEST JUMPDEST PUSH1 0x40 MLOAD SWAP1 DUP1 DUP3 MSTORE DUP1 PUSH1 0x1F ADD PUSH1 0x1F NOT AND PUSH1 0x20 ADD DUP3 ADD PUSH1 0x40 MSTORE DUP1 ISZERO PUSH2 0x7AC JUMPI DUP2 PUSH1 0x20 ADD PUSH1 0x1 DUP3 MUL DUP1 CALLDATASIZE DUP4 CALLDATACOPY DUP1 DUP3 ADD SWAP2 POP POP SWAP1 POP JUMPDEST POP PUSH1 0x40 MLOAD DUP7 PUSH4 0xFFFFFFFF AND PUSH1 0xE0 SHL DUP2 MSTORE PUSH1 0x4 ADD PUSH2 0x7CD SWAP6 SWAP5 SWAP4 SWAP3 SWAP2 SWAP1 PUSH2 0x1E58 JUMP JUMPDEST PUSH1 0x40 DUP1 MLOAD DUP1 DUP4 SUB DUP2 PUSH0 DUP8 GAS CALL ISZERO DUP1 ISZERO PUSH2 0x7E8 JUMPI RETURNDATASIZE PUSH0 DUP1 RETURNDATACOPY RETURNDATASIZE PUSH0 REVERT JUMPDEST POP POP POP POP PUSH1 0x40 MLOAD RETURNDATASIZE PUSH1 0x1F NOT PUSH1 0x1F DUP3 ADD AND DUP3 ADD DUP1 PUSH1 0x40 MSTORE POP DUP2 ADD SWAP1 PUSH2 0x80C SWAP2 SWAP1 PUSH2 0x1EC4 JUMP JUMPDEST DUP1 SWAP4 POP DUP2 SWAP5 POP POP POP POP SWAP3 POP SWAP3 SWAP1 POP JUMP JUMPDEST PUSH0 NUMBER SWAP1 POP SWAP1 JUMP JUMPDEST PUSH20 0x1C7D4B196CB0C7B01D743FBC6116A902379C7238 DUP2 JUMP JUMPDEST PUSH0 DUP1 SLOAD SWAP1 PUSH2 0x100 EXP SWAP1 DIV PUSH20 0xFFFFFFFFFFFFFFFFFFFFFFFFFFFFFFFFFFFFFFFF AND PUSH20 0xFFFFFFFFFFFFFFFFFFFFFFFFFFFFFFFFFFFFFFFF AND CALLER PUSH20 0xFFFFFFFFFFFFFFFFFFFFFFFFFFFFFFFFFFFFFFFF AND EQ PUSH2 0x8C8 JUMPI PUSH1 0x40 MLOAD PUSH32 0x8C379A000000000000000000000000000000000000000000000000000000000 DUP2 MSTORE PUSH1 0x4 ADD PUSH2 0x8BF SWAP1 PUSH2 0x1DC9 JUMP JUMPDEST PUSH1 0x40 MLOAD DUP1 SWAP2 SUB SWAP1 REVERT JUMPDEST PUSH20 0x1C7D4B196CB0C7B01D743FBC6116A902379C7238 PUSH20 0xFFFFFFFFFFFFFFFFFFFFFFFFFFFFFFFFFFFFFFFF AND PUSH4 0xA9059CBB DUP3 DUP5 PUSH1 0x40 MLOAD DUP4 PUSH4 0xFFFFFFFF AND PUSH1 0xE0 SHL DUP2 MSTORE PUSH1 0x4 ADD PUSH2 0x917 SWAP3 SWAP2 SWAP1 PUSH2 0x1F02 JUMP JUMPDEST PUSH1 0x20 PUSH1 0x40 MLOAD DUP1 DUP4 SUB DUP2 PUSH0 DUP8 GAS CALL ISZERO DUP1 ISZERO PUSH2 0x933 JUMPI RETURNDATASIZE PUSH0 DUP1 RETURNDATACOPY RETURNDATASIZE PUSH0 REVERT JUMPDEST POP POP POP POP PUSH1 0x40 MLOAD RETURNDATASIZE PUSH1 0x1F NOT PUSH1 0x1F DUP3 ADD AND DUP3 ADD DUP1 PUSH1 0x40 MSTORE POP DUP2 ADD SWAP1 PUSH2 0x957 SWAP2 SWAP1 PUSH2 0x1F53 JUMP JUMPDEST POP POP POP JUMP JUMPDEST PUSH1 0x3 DUP2 DUP2 SLOAD DUP2 LT PUSH2 0x96B JUMPI PUSH0 DUP1 REVERT JUMPDEST SWAP1 PUSH0 MSTORE PUSH1 0x20 PUSH0 KECCAK256 SWAP1 PUSH1 0xA SWAP2 DUP3 DUP3 DIV ADD SWAP2 SWAP1 MOD PUSH1 0x3 MUL SWAP2 POP SLOAD SWAP1 PUSH2 0x100 EXP SWAP1 DIV PUSH3 0xFFFFFF AND DUP2 JUMP JUMPDEST PUSH20 0xFFF9976782D46CC05630D1F6EBAB18B2324D6B14 DUP2 JUMP JUMPDEST PUSH1 0x60 PUSH0 PUSH1 0x1 DUP1 SLOAD SWAP1 POP SWAP1 POP PUSH0 PUSH1 0x3 DUP1 SLOAD SWAP1 POP SWAP1 POP PUSH0 DUP2 PUSH1 0x2 PUSH1 0x1 DUP6 PUSH2 0x9CF SWAP2 SWAP1 PUSH2 0x1FAB JUMP JUMPDEST DUP6 PUSH2 0x9DA SWAP2 SWAP1 PUSH2 0x1FDE JUMP JUMPDEST PUSH2 0x9E4 SWAP2 SWAP1 PUSH2 0x204C JUMP JUMPDEST PUSH2 0x9EE SWAP2 SWAP1 PUSH2 0x1FDE JUMP JUMPDEST PUSH8 0xFFFFFFFFFFFFFFFF DUP2 GT ISZERO PUSH2 0xA07 JUMPI PUSH2 0xA06 PUSH2 0x19F5 JUMP JUMPDEST JUMPDEST PUSH1 0x40 MLOAD SWAP1 DUP1 DUP3 MSTORE DUP1 PUSH1 0x20 MUL PUSH1 0x20 ADD DUP3 ADD PUSH1 0x40 MSTORE DUP1 ISZERO PUSH2 0xA40 JUMPI DUP2 PUSH1 0x20 ADD JUMPDEST PUSH2 0xA2D PUSH2 0x12B2 JUMP JUMPDEST DUP2 MSTORE PUSH1 0x20 ADD SWAP1 PUSH1 0x1 SWAP1 SUB SWAP1 DUP2 PUSH2 0xA25 JUMPI SWAP1 POP JUMPDEST POP SWAP1 POP PUSH0 DUP1 PUSH0 SWAP1 POP JUMPDEST PUSH1 0x1 DUP6 PUSH2 0xA56 SWAP2 SWAP1 PUSH2 0x1FAB JUMP JUMPDEST DUP2 LT ISZERO PUSH2 0xF4A JUMPI PUSH0 PUSH1 0x1 DUP3 DUP2 SLOAD DUP2 LT PUSH2 0xA72 JUMPI PUSH2 0xA71 PUSH2 0x207C JUMP JUMPDEST JUMPDEST SWAP1 PUSH0 MSTORE PUSH1 0x20 PUSH0 KECCAK256 ADD PUSH0 SWAP1 SLOAD SWAP1 PUSH2 0x100 EXP SWAP1 DIV PUSH20 0xFFFFFFFFFFFFFFFFFFFFFFFFFFFFFFFFFFFFFFFF AND SWAP1 POP PUSH0 PUSH1 0x1 DUP4 PUSH2 0xAAA SWAP2 SWAP1 PUSH2 0x20A9 JUMP JUMPDEST SWAP1 POP JUMPDEST DUP7 DUP2 LT ISZERO PUSH2 0xF3B JUMPI PUSH0 PUSH1 0x1 DUP3 DUP2 SLOAD DUP2 LT PUSH2 0xACA JUMPI PUSH2 0xAC9 PUSH2 0x207C JUMP JUMPDEST JUMPDEST SWAP1 PUSH0 MSTORE PUSH1 0x20 PUSH0 KECCAK256 ADD PUSH0 SWAP1 SLOAD SWAP1 PUSH2 0x100 EXP SWAP1 DIV PUSH20 0xFFFFFFFFFFFFFFFFFFFFFFFFFFFFFFFFFFFFFFFF AND SWAP1 POP PUSH0 JUMPDEST DUP8 DUP2 LT ISZERO PUSH2 0xF2C JUMPI PUSH0 PUSH1 0x3 DUP3 DUP2 SLOAD DUP2 LT PUSH2 0xB13 JUMPI PUSH2 0xB12 PUSH2 0x207C JUMP JUMPDEST JUMPDEST SWAP1 PUSH0 MSTORE PUSH1 0x20 PUSH0 KECCAK256 SWAP1 PUSH1 0xA SWAP2 DUP3 DUP3 DIV ADD SWAP2 SWAP1 MOD PUSH1 0x3 MUL SWAP1 SLOAD SWAP1 PUSH2 0x100 EXP SWAP1 DIV PUSH3 0xFFFFFF AND SWAP1 POP ADDRESS PUSH20 0xFFFFFFFFFFFFFFFFFFFFFFFFFFFFFFFFFFFFFFFF AND PUSH4 0x1698EE82 DUP7 DUP6 DUP5 PUSH1 0x40 MLOAD DUP5 PUSH4 0xFFFFFFFF AND PUSH1 0xE0 SHL DUP2 MSTORE PUSH1 0x4 ADD PUSH2 0xB75 SWAP4 SWAP3 SWAP2 SWAP1 PUSH2 0x1CCC JUMP JUMPDEST PUSH1 0xA0 PUSH1 0x40 MLOAD DUP1 DUP4 SUB DUP2 DUP7 GAS STATICCALL SWAP3 POP POP POP DUP1 ISZERO PUSH2 0xBAF JUMPI POP PUSH1 0x40 MLOAD RETURNDATASIZE PUSH1 0x1F NOT PUSH1 0x1F DUP3 ADD AND DUP3 ADD DUP1 PUSH1 0x40 MSTORE POP DUP2 ADD SWAP1 PUSH2 0xBAC SWAP2 SWAP1 PUSH2 0x20DC JUMP JUMPDEST PUSH1 0x1 JUMPDEST PUSH2 0xCE1 JUMPI PUSH2 0xBBB PUSH2 0x215F JUMP JUMPDEST DUP1 PUSH4 0x8C379A0 SUB PUSH2 0xC22 JUMPI POP PUSH2 0xBCF PUSH2 0x217E JUMP JUMPDEST DUP1 PUSH2 0xBDA JUMPI POP PUSH2 0xC87 JUMP JUMPDEST DUP1 PUSH1 0x40 MLOAD PUSH1 0x20 ADD PUSH2 0xBEB SWAP2 SWAP1 PUSH2 0x143E JUMP JUMPDEST PUSH1 0x40 MLOAD PUSH1 0x20 DUP2 DUP4 SUB SUB DUP2 MSTORE SWAP1 PUSH1 0x40 MSTORE DUP10 DUP10 DUP2 MLOAD DUP2 LT PUSH2 0xC0D JUMPI PUSH2 0xC0C PUSH2 0x207C JUMP JUMPDEST JUMPDEST PUSH1 0x20 MUL PUSH1 0x20 ADD ADD MLOAD PUSH1 0xE0 ADD DUP2 SWAP1 MSTORE POP POP PUSH2 0xCDC JUMP JUMPDEST PUSH4 0x4E487B71 SUB PUSH2 0xC87 JUMPI PUSH2 0xC34 PUSH2 0x220D JUMP JUMPDEST SWAP1 PUSH2 0xC3F JUMPI POP PUSH2 0xC87 JUMP JUMPDEST DUP1 PUSH1 0x40 MLOAD PUSH1 0x20 ADD PUSH2 0xC50 SWAP2 SWAP1 PUSH2 0x16AE JUMP JUMPDEST PUSH1 0x40 MLOAD PUSH1 0x20 DUP2 DUP4 SUB SUB DUP2 MSTORE SWAP1 PUSH1 0x40 MSTORE DUP10 DUP10 DUP2 MLOAD DUP2 LT PUSH2 0xC72 JUMPI PUSH2 0xC71 PUSH2 0x207C JUMP JUMPDEST JUMPDEST PUSH1 0x20 MUL PUSH1 0x20 ADD ADD MLOAD PUSH1 0xE0 ADD DUP2 SWAP1 MSTORE POP POP PUSH2 0xCDC JUMP JUMPDEST RETURNDATASIZE DUP1 PUSH0 DUP2 EQ PUSH2 0xCB1 JUMPI PUSH1 0x40 MLOAD SWAP2 POP PUSH1 0x1F NOT PUSH1 0x3F RETURNDATASIZE ADD AND DUP3 ADD PUSH1 0x40 MSTORE RETURNDATASIZE DUP3 MSTORE RETURNDATASIZE PUSH0 PUSH1 0x20 DUP5 ADD RETURNDATACOPY PUSH2 0xCB6 JUMP JUMPDEST PUSH1 0x60 SWAP2 POP JUMPDEST POP DUP1 DUP10 DUP10 DUP2 MLOAD DUP2 LT PUSH2 0xCCB JUMPI PUSH2 0xCCA PUSH2 0x207C JUMP JUMPDEST JUMPDEST PUSH1 0x20 MUL PUSH1 0x20 ADD ADD MLOAD PUSH1 0xE0 ADD DUP2 SWAP1 MSTORE POP POP JUMPDEST PUSH2 0xF10 JUMP JUMPDEST PUSH1 0x2 PUSH0 DUP6 PUSH20 0xFFFFFFFFFFFFFFFFFFFFFFFFFFFFFFFFFFFFFFFF AND PUSH20 0xFFFFFFFFFFFFFFFFFFFFFFFFFFFFFFFFFFFFFFFF AND DUP2 MSTORE PUSH1 0x20 ADD SWAP1 DUP2 MSTORE PUSH1 0x20 ADD PUSH0 KECCAK256 PUSH1 0x2 PUSH0 DUP5 PUSH20 0xFFFFFFFFFFFFFFFFFFFFFFFFFFFFFFFFFFFFFFFF AND PUSH20 0xFFFFFFFFFFFFFFFFFFFFFFFFFFFFFFFFFFFFFFFF AND DUP2 MSTORE PUSH1 0x20 ADD SWAP1 DUP2 MSTORE PUSH1 0x20 ADD PUSH0 KECCAK256 PUSH1 0x40 MLOAD PUSH1 0x20 ADD PUSH2 0xD6C SWAP3 SWAP2 SWAP1 PUSH2 0x2311 JUMP JUMPDEST PUSH1 0x40 MLOAD PUSH1 0x20 DUP2 DUP4 SUB SUB DUP2 MSTORE SWAP1 PUSH1 0x40 MSTORE DUP14 DUP14 DUP2 MLOAD DUP2 LT PUSH2 0xD8E JUMPI PUSH2 0xD8D PUSH2 0x207C JUMP JUMPDEST JUMPDEST PUSH1 0x20 MUL PUSH1 0x20 ADD ADD MLOAD PUSH0 ADD DUP2 SWAP1 MSTORE POP DUP6 DUP14 DUP14 DUP2 MLOAD DUP2 LT PUSH2 0xDB0 JUMPI PUSH2 0xDAF PUSH2 0x207C JUMP JUMPDEST JUMPDEST PUSH1 0x20 MUL PUSH1 0x20 ADD ADD MLOAD PUSH1 0x20 ADD SWAP1 PUSH3 0xFFFFFF AND SWAP1 DUP2 PUSH3 0xFFFFFF AND DUP2 MSTORE POP POP DUP5 DUP14 DUP14 DUP2 MLOAD DUP2 LT PUSH2 0xDE0 JUMPI PUSH2 0xDDF PUSH2 0x207C JUMP JUMPDEST JUMPDEST PUSH1 0x20 MUL PUSH1 0x20 ADD ADD MLOAD PUSH1 0x40 ADD SWAP1 PUSH20 0xFFFFFFFFFFFFFFFFFFFFFFFFFFFFFFFFFFFFFFFF AND SWAP1 DUP2 PUSH20 0xFFFFFFFFFFFFFFFFFFFFFFFFFFFFFFFFFFFFFFFF AND DUP2 MSTORE POP POP DUP4 DUP14 DUP14 DUP2 MLOAD DUP2 LT PUSH2 0xE32 JUMPI PUSH2 0xE31 PUSH2 0x207C JUMP JUMPDEST JUMPDEST PUSH1 0x20 MUL PUSH1 0x20 ADD ADD MLOAD PUSH1 0x60 ADD SWAP1 PUSH20 0xFFFFFFFFFFFFFFFFFFFFFFFFFFFFFFFFFFFFFFFF AND SWAP1 DUP2 PUSH20 0xFFFFFFFFFFFFFFFFFFFFFFFFFFFFFFFFFFFFFFFF AND DUP2 MSTORE POP POP DUP3 DUP14 DUP14 DUP2 MLOAD DUP2 LT PUSH2 0xE84 JUMPI PUSH2 0xE83 PUSH2 0x207C JUMP JUMPDEST JUMPDEST PUSH1 0x20 MUL PUSH1 0x20 ADD ADD MLOAD PUSH1 0x80 ADD DUP2 DUP2 MSTORE POP POP DUP2 DUP14 DUP14 DUP2 MLOAD DUP2 LT PUSH2 0xEA8 JUMPI PUSH2 0xEA7 PUSH2 0x207C JUMP JUMPDEST JUMPDEST PUSH1 0x20 MUL PUSH1 0x20 ADD ADD MLOAD PUSH1 0xA0 ADD SWAP1 PUSH20 0xFFFFFFFFFFFFFFFFFFFFFFFFFFFFFFFFFFFFFFFF AND SWAP1 DUP2 PUSH20 0xFFFFFFFFFFFFFFFFFFFFFFFFFFFFFFFFFFFFFFFF AND DUP2 MSTORE POP POP DUP1 DUP14 DUP14 DUP2 MLOAD DUP2 LT PUSH2 0xEFA JUMPI PUSH2 0xEF9 PUSH2 0x207C JUMP JUMPDEST JUMPDEST PUSH1 0x20 MUL PUSH1 0x20 ADD ADD MLOAD PUSH1 0xC0 ADD DUP2 DUP2 MSTORE POP POP POP POP POP POP POP JUMPDEST DUP7 DUP1 PUSH2 0xF1B SWAP1 PUSH2 0x233F JUMP JUMPDEST SWAP8 POP POP POP DUP1 DUP1 PUSH1 0x1 ADD SWAP2 POP POP PUSH2 0xAF6 JUMP JUMPDEST POP POP DUP1 DUP1 PUSH1 0x1 ADD SWAP2 POP POP PUSH2 0xAAD JUMP JUMPDEST POP POP DUP1 DUP1 PUSH1 0x1 ADD SWAP2 POP POP PUSH2 0xA49 JUMP JUMPDEST POP DUP2 SWAP5 POP POP POP POP POP SWAP1 JUMP JUMPDEST PUSH1 0x60 PUSH0 DUP4 MLOAD SWAP1 POP PUSH0 DUP2 GT PUSH2 0xF9E JUMPI PUSH1 0x40 MLOAD PUSH32 0x8C379A000000000000000000000000000000000000000000000000000000000 DUP2 MSTORE PUSH1 0x4 ADD PUSH2 0xF95 SWAP1 PUSH2 0x23D0 JUMP JUMPDEST PUSH1 0x40 MLOAD DUP1 SWAP2 SUB SWAP1 REVERT JUMPDEST DUP3 MLOAD DUP2 EQ PUSH2 0xFE1 JUMPI PUSH1 0x40 MLOAD PUSH32 0x8C379A000000000000000000000000000000000000000000000000000000000 DUP2 MSTORE PUSH1 0x4 ADD PUSH2 0xFD8 SWAP1 PUSH2 0x2438 JUMP JUMPDEST PUSH1 0x40 MLOAD DUP1 SWAP2 SUB SWAP1 REVERT JUMPDEST PUSH0 DUP2 PUSH8 0xFFFFFFFFFFFFFFFF DUP2 GT ISZERO PUSH2 0xFFC JUMPI PUSH2 0xFFB PUSH2 0x19F5 JUMP JUMPDEST JUMPDEST PUSH1 0x40 MLOAD SWAP1 DUP1 DUP3 MSTORE DUP1 PUSH1 0x20 MUL PUSH1 0x20 ADD DUP3 ADD PUSH1 0x40 MSTORE DUP1 ISZERO PUSH2 0x102A JUMPI DUP2 PUSH1 0x20 ADD PUSH1 0x20 DUP3 MUL DUP1 CALLDATASIZE DUP4 CALLDATACOPY DUP1 DUP3 ADD SWAP2 POP POP SWAP1 POP JUMPDEST POP SWAP1 POP PUSH0 JUMPDEST DUP3 DUP2 LT ISZERO PUSH2 0x110F JUMPI DUP6 DUP2 DUP2 MLOAD DUP2 LT PUSH2 0x104A JUMPI PUSH2 0x1049 PUSH2 0x207C JUMP JUMPDEST JUMPDEST PUSH1 0x20 MUL PUSH1 0x20 ADD ADD MLOAD PUSH20 0xFFFFFFFFFFFFFFFFFFFFFFFFFFFFFFFFFFFFFFFF AND PUSH4 0x70A08231 DUP7 DUP4 DUP2 MLOAD DUP2 LT PUSH2 0x1080 JUMPI PUSH2 0x107F PUSH2 0x207C JUMP JUMPDEST JUMPDEST PUSH1 0x20 MUL PUSH1 0x20 ADD ADD MLOAD PUSH1 0x40 MLOAD DUP3 PUSH4 0xFFFFFFFF AND PUSH1 0xE0 SHL DUP2 MSTORE PUSH1 0x4 ADD PUSH2 0x10A4 SWAP2 SWAP1 PUSH2 0x16C7 JUMP JUMPDEST PUSH1 0x20 PUSH1 0x40 MLOAD DUP1 DUP4 SUB DUP2 DUP7 GAS STATICCALL ISZERO DUP1 ISZERO PUSH2 0x10BF JUMPI RETURNDATASIZE PUSH0 DUP1 RETURNDATACOPY RETURNDATASIZE PUSH0 REVERT JUMPDEST POP POP POP POP PUSH1 0x40 MLOAD RETURNDATASIZE PUSH1 0x1F NOT PUSH1 0x1F DUP3 ADD AND DUP3 ADD DUP1 PUSH1 0x40 MSTORE POP DUP2 ADD SWAP1 PUSH2 0x10E3 SWAP2 SWAP1 PUSH2 0x1D54 JUMP JUMPDEST DUP3 DUP3 DUP2 MLOAD DUP2 LT PUSH2 0x10F6 JUMPI PUSH2 0x10F5 PUSH2 0x207C JUMP JUMPDEST JUMPDEST PUSH1 0x20 MUL PUSH1 0x20 ADD ADD DUP2 DUP2 MSTORE POP POP DUP1 DUP1 PUSH1 0x1 ADD SWAP2 POP POP PUSH2 0x102F JUMP JUMPDEST POP DUP1 SWAP3 POP POP POP SWAP3 SWAP2 POP POP JUMP JUMPDEST PUSH0 DUP1 SLOAD SWAP1 PUSH2 0x100 EXP SWAP1 DIV PUSH20 0xFFFFFFFFFFFFFFFFFFFFFFFFFFFFFFFFFFFFFFFF AND PUSH20 0xFFFFFFFFFFFFFFFFFFFFFFFFFFFFFFFFFFFFFFFF AND CALLER PUSH20 0xFFFFFFFFFFFFFFFFFFFFFFFFFFFFFFFFFFFFFFFF AND EQ PUSH2 0x11A8 JUMPI PUSH1 0x40 MLOAD PUSH32 0x8C379A000000000000000000000000000000000000000000000000000000000 DUP2 MSTORE PUSH1 0x4 ADD PUSH2 0x119F SWAP1 PUSH2 0x1DC9 JUMP JUMPDEST PUSH1 0x40 MLOAD DUP1 SWAP2 SUB SWAP1 REVERT JUMPDEST PUSH20 0xFFF9976782D46CC05630D1F6EBAB18B2324D6B14 PUSH20 0xFFFFFFFFFFFFFFFFFFFFFFFFFFFFFFFFFFFFFFFF AND PUSH4 0xA9059CBB DUP3 DUP5 PUSH1 0x40 MLOAD DUP4 PUSH4 0xFFFFFFFF AND PUSH1 0xE0 SHL DUP2 MSTORE PUSH1 0x4 ADD PUSH2 0x11F7 SWAP3 SWAP2 SWAP1 PUSH2 0x1F02 JUMP JUMPDEST PUSH1 0x20 PUSH1 0x40 MLOAD DUP1 DUP4 SUB DUP2 PUSH0 DUP8 GAS CALL ISZERO DUP1 ISZERO PUSH2 0x1213 JUMPI RETURNDATASIZE PUSH0 DUP1 RETURNDATACOPY RETURNDATASIZE PUSH0 REVERT JUMPDEST POP POP POP POP PUSH1 0x40 MLOAD RETURNDATASIZE PUSH1 0x1F NOT PUSH1 0x1F DUP3 ADD AND DUP3 ADD DUP1 PUSH1 0x40 MSTORE POP DUP2 ADD SWAP1 PUSH2 0x1237 SWAP2 SWAP1 PUSH2 0x1F53 JUMP JUMPDEST POP POP POP JUMP JUMPDEST PUSH20 0x227628F3F023BB0B980B67D528571C95C6DAC1C DUP2 JUMP JUMPDEST PUSH0 DUP1 SLOAD SWAP1 PUSH2 0x100 EXP SWAP1 DIV PUSH20 0xFFFFFFFFFFFFFFFFFFFFFFFFFFFFFFFFFFFFFFFF AND DUP2 JUMP JUMPDEST PUSH1 0x1 DUP2 DUP2 SLOAD DUP2 LT PUSH2 0x1286 JUMPI PUSH0 DUP1 REVERT JUMPDEST SWAP1 PUSH0 MSTORE PUSH1 0x20 PUSH0 KECCAK256 ADD PUSH0 SWAP2 POP SLOAD SWAP1 PUSH2 0x100 EXP SWAP1 DIV PUSH20 0xFFFFFFFFFFFFFFFFFFFFFFFFFFFFFFFFFFFFFFFF AND DUP2 JUMP JUMPDEST PUSH1 0x40 MLOAD DUP1 PUSH2 0x100 ADD PUSH1 0x40 MSTORE DUP1 PUSH1 0x60 DUP2 MSTORE PUSH1 0x20 ADD PUSH0 PUSH3 0xFFFFFF AND DUP2 MSTORE PUSH1 0x20 ADD PUSH0 PUSH20 0xFFFFFFFFFFFFFFFFFFFFFFFFFFFFFFFFFFFFFFFF AND DUP2 MSTORE PUSH1 0x20 ADD PUSH0 PUSH20 0xFFFFFFFFFFFFFFFFFFFFFFFFFFFFFFFFFFFFFFFF AND DUP2 MSTORE PUSH1 0x20 ADD PUSH0 DUP2 MSTORE PUSH1 0x20 ADD PUSH0 PUSH20 0xFFFFFFFFFFFFFFFFFFFFFFFFFFFFFFFFFFFFFFFF AND DUP2 MSTORE PUSH1 0x20 ADD PUSH0 DUP2 MSTORE PUSH1 0x20 ADD PUSH1 0x60 DUP2 MSTORE POP SWAP1 JUMP JUMPDEST PUSH0 PUSH1 0x40 MLOAD SWAP1 POP SWAP1 JUMP JUMPDEST PUSH0 DUP1 REVERT JUMPDEST PUSH0 DUP1 REVERT JUMPDEST PUSH0 PUSH20 0xFFFFFFFFFFFFFFFFFFFFFFFFFFFFFFFFFFFFFFFF DUP3 AND SWAP1 POP SWAP2 SWAP1 POP JUMP JUMPDEST PUSH0 PUSH2 0x1372 DUP3 PUSH2 0x1349 JUMP JUMPDEST SWAP1 POP SWAP2 SWAP1 POP JUMP JUMPDEST PUSH2 0x1382 DUP2 PUSH2 0x1368 JUMP JUMPDEST DUP2 EQ PUSH2 0x138C JUMPI PUSH0 DUP1 REVERT JUMPDEST POP JUMP JUMPDEST PUSH0 DUP2 CALLDATALOAD SWAP1 POP PUSH2 0x139D DUP2 PUSH2 0x1379 JUMP JUMPDEST SWAP3 SWAP2 POP POP JUMP JUMPDEST PUSH0 PUSH1 0x20 DUP3 DUP5 SUB SLT ISZERO PUSH2 0x13B8 JUMPI PUSH2 0x13B7 PUSH2 0x1341 JUMP JUMPDEST JUMPDEST PUSH0 PUSH2 0x13C5 DUP5 DUP3 DUP6 ADD PUSH2 0x138F JUMP JUMPDEST SWAP2 POP POP SWAP3 SWAP2 POP POP JUMP JUMPDEST PUSH0 DUP2 MLOAD SWAP1 POP SWAP2 SWAP1 POP JUMP JUMPDEST PUSH0 DUP3 DUP3 MSTORE PUSH1 0x20 DUP3 ADD SWAP1 POP SWAP3 SWAP2 POP POP JUMP JUMPDEST DUP3 DUP2 DUP4 MCOPY PUSH0 DUP4 DUP4 ADD MSTORE POP POP POP JUMP JUMPDEST PUSH0 PUSH1 0x1F NOT PUSH1 0x1F DUP4 ADD AND SWAP1 POP SWAP2 SWAP1 POP JUMP JUMPDEST PUSH0 PUSH2 0x1410 DUP3 PUSH2 0x13CE JUMP JUMPDEST PUSH2 0x141A DUP2 DUP6 PUSH2 0x13D8 JUMP JUMPDEST SWAP4 POP PUSH2 0x142A DUP2 DUP6 PUSH1 0x20 DUP7 ADD PUSH2 0x13E8 JUMP JUMPDEST PUSH2 0x1433 DUP2 PUSH2 0x13F6 JUMP JUMPDEST DUP5 ADD SWAP2 POP POP SWAP3 SWAP2 POP POP JUMP JUMPDEST PUSH0 PUSH1 0x20 DUP3 ADD SWAP1 POP DUP2 DUP2 SUB PUSH0 DUP4 ADD MSTORE PUSH2 0x1456 DUP2 DUP5 PUSH2 0x1406 JUMP JUMPDEST SWAP1 POP SWAP3 SWAP2 POP POP JUMP JUMPDEST PUSH0 PUSH3 0xFFFFFF DUP3 AND SWAP1 POP SWAP2 SWAP1 POP JUMP JUMPDEST PUSH2 0x1475 DUP2 PUSH2 0x145E JUMP JUMPDEST DUP2 EQ PUSH2 0x147F JUMPI PUSH0 DUP1 REVERT JUMPDEST POP JUMP JUMPDEST PUSH0 DUP2 CALLDATALOAD SWAP1 POP PUSH2 0x1490 DUP2 PUSH2 0x146C JUMP JUMPDEST SWAP3 SWAP2 POP POP JUMP JUMPDEST PUSH0 DUP1 PUSH0 PUSH1 0x60 DUP5 DUP7 SUB SLT ISZERO PUSH2 0x14AD JUMPI PUSH2 0x14AC PUSH2 0x1341 JUMP JUMPDEST JUMPDEST PUSH0 PUSH2 0x14BA DUP7 DUP3 DUP8 ADD PUSH2 0x138F JUMP JUMPDEST SWAP4 POP POP PUSH1 0x20 PUSH2 0x14CB DUP7 DUP3 DUP8 ADD PUSH2 0x138F JUMP JUMPDEST SWAP3 POP POP PUSH1 0x40 PUSH2 0x14DC DUP7 DUP3 DUP8 ADD PUSH2 0x1482 JUMP JUMPDEST SWAP2 POP POP SWAP3 POP SWAP3 POP SWAP3 JUMP JUMPDEST PUSH2 0x14EF DUP2 PUSH2 0x1368 JUMP JUMPDEST DUP3 MSTORE POP POP JUMP JUMPDEST PUSH0 DUP2 SWAP1 POP SWAP2 SWAP1 POP JUMP JUMPDEST PUSH2 0x1507 DUP2 PUSH2 0x14F5 JUMP JUMPDEST DUP3 MSTORE POP POP JUMP JUMPDEST PUSH0 PUSH1 0xA0 DUP3 ADD SWAP1 POP PUSH2 0x1520 PUSH0 DUP4 ADD DUP9 PUSH2 0x14E6 JUMP JUMPDEST PUSH2 0x152D PUSH1 0x20 DUP4 ADD DUP8 PUSH2 0x14E6 JUMP JUMPDEST PUSH2 0x153A PUSH1 0x40 DUP4 ADD DUP7 PUSH2 0x14FE JUMP JUMPDEST PUSH2 0x1547 PUSH1 0x60 DUP4 ADD DUP6 PUSH2 0x14E6 JUMP JUMPDEST PUSH2 0x1554 PUSH1 0x80 DUP4 ADD DUP5 PUSH2 0x14FE JUMP JUMPDEST SWAP7 SWAP6 POP POP POP POP POP POP JUMP JUMPDEST PUSH0 DUP2 SWAP1 POP SWAP2 SWAP1 POP JUMP JUMPDEST PUSH0 PUSH2 0x1581 PUSH2 0x157C PUSH2 0x1577 DUP5 PUSH2 0x1349 JUMP JUMPDEST PUSH2 0x155E JUMP JUMPDEST PUSH2 0x1349 JUMP JUMPDEST SWAP1 POP SWAP2 SWAP1 POP JUMP JUMPDEST PUSH0 PUSH2 0x1592 DUP3 PUSH2 0x1567 JUMP JUMPDEST SWAP1 POP SWAP2 SWAP1 POP JUMP JUMPDEST PUSH0 PUSH2 0x15A3 DUP3 PUSH2 0x1588 JUMP JUMPDEST SWAP1 POP SWAP2 SWAP1 POP JUMP JUMPDEST PUSH2 0x15B3 DUP2 PUSH2 0x1599 JUMP JUMPDEST DUP3 MSTORE POP POP JUMP JUMPDEST PUSH0 PUSH1 0x20 DUP3 ADD SWAP1 POP PUSH2 0x15CC PUSH0 DUP4 ADD DUP5 PUSH2 0x15AA JUMP JUMPDEST SWAP3 SWAP2 POP POP JUMP JUMPDEST PUSH0 PUSH1 0x60 DUP3 ADD SWAP1 POP PUSH2 0x15E5 PUSH0 DUP4 ADD DUP7 PUSH2 0x14E6 JUMP JUMPDEST PUSH2 0x15F2 PUSH1 0x20 DUP4 ADD DUP6 PUSH2 0x14FE JUMP JUMPDEST PUSH2 0x15FF PUSH1 0x40 DUP4 ADD DUP5 PUSH2 0x14FE JUMP JUMPDEST SWAP5 SWAP4 POP POP POP POP JUMP JUMPDEST PUSH0 DUP2 SWAP1 POP SWAP2 SWAP1 POP JUMP JUMPDEST PUSH2 0x1619 DUP2 PUSH2 0x1607 JUMP JUMPDEST DUP2 EQ PUSH2 0x1623 JUMPI PUSH0 DUP1 REVERT JUMPDEST POP JUMP JUMPDEST PUSH0 DUP2 CALLDATALOAD SWAP1 POP PUSH2 0x1634 DUP2 PUSH2 0x1610 JUMP JUMPDEST SWAP3 SWAP2 POP POP JUMP JUMPDEST PUSH0 DUP1 PUSH1 0x40 DUP4 DUP6 SUB SLT ISZERO PUSH2 0x1650 JUMPI PUSH2 0x164F PUSH2 0x1341 JUMP JUMPDEST JUMPDEST PUSH0 PUSH2 0x165D DUP6 DUP3 DUP7 ADD PUSH2 0x1626 JUMP JUMPDEST SWAP3 POP POP PUSH1 0x20 PUSH2 0x166E DUP6 DUP3 DUP7 ADD PUSH2 0x138F JUMP JUMPDEST SWAP2 POP POP SWAP3 POP SWAP3 SWAP1 POP JUMP JUMPDEST PUSH2 0x1681 DUP2 PUSH2 0x1607 JUMP JUMPDEST DUP3 MSTORE POP POP JUMP JUMPDEST PUSH0 PUSH1 0x40 DUP3 ADD SWAP1 POP PUSH2 0x169A PUSH0 DUP4 ADD DUP6 PUSH2 0x1678 JUMP JUMPDEST PUSH2 0x16A7 PUSH1 0x20 DUP4 ADD DUP5 PUSH2 0x1678 JUMP JUMPDEST SWAP4 SWAP3 POP POP POP JUMP JUMPDEST PUSH0 PUSH1 0x20 DUP3 ADD SWAP1 POP PUSH2 0x16C1 PUSH0 DUP4 ADD DUP5 PUSH2 0x14FE JUMP JUMPDEST SWAP3 SWAP2 POP POP JUMP JUMPDEST PUSH0 PUSH1 0x20 DUP3 ADD SWAP1 POP PUSH2 0x16DA PUSH0 DUP4 ADD DUP5 PUSH2 0x14E6 JUMP JUMPDEST SWAP3 SWAP2 POP POP JUMP JUMPDEST PUSH2 0x16E9 DUP2 PUSH2 0x14F5 JUMP JUMPDEST DUP2 EQ PUSH2 0x16F3 JUMPI PUSH0 DUP1 REVERT JUMPDEST POP JUMP JUMPDEST PUSH0 DUP2 CALLDATALOAD SWAP1 POP PUSH2 0x1704 DUP2 PUSH2 0x16E0 JUMP JUMPDEST SWAP3 SWAP2 POP POP JUMP JUMPDEST PUSH0 DUP1 PUSH1 0x40 DUP4 DUP6 SUB SLT ISZERO PUSH2 0x1720 JUMPI PUSH2 0x171F PUSH2 0x1341 JUMP JUMPDEST JUMPDEST PUSH0 PUSH2 0x172D DUP6 DUP3 DUP7 ADD PUSH2 0x16F6 JUMP JUMPDEST SWAP3 POP POP PUSH1 0x20 PUSH2 0x173E DUP6 DUP3 DUP7 ADD PUSH2 0x138F JUMP JUMPDEST SWAP2 POP POP SWAP3 POP SWAP3 SWAP1 POP JUMP JUMPDEST PUSH0 PUSH1 0x20 DUP3 DUP5 SUB SLT ISZERO PUSH2 0x175D JUMPI PUSH2 0x175C PUSH2 0x1341 JUMP JUMPDEST JUMPDEST PUSH0 PUSH2 0x176A DUP5 DUP3 DUP6 ADD PUSH2 0x16F6 JUMP JUMPDEST SWAP2 POP POP SWAP3 SWAP2 POP POP JUMP JUMPDEST PUSH2 0x177C DUP2 PUSH2 0x145E JUMP JUMPDEST DUP3 MSTORE POP POP JUMP JUMPDEST PUSH0 PUSH1 0x20 DUP3 ADD SWAP1 POP PUSH2 0x1795 PUSH0 DUP4 ADD DUP5 PUSH2 0x1773 JUMP JUMPDEST SWAP3 SWAP2 POP POP JUMP JUMPDEST PUSH0 DUP2 MLOAD SWAP1 POP SWAP2 SWAP1 POP JUMP JUMPDEST PUSH0 DUP3 DUP3 MSTORE PUSH1 0x20 DUP3 ADD SWAP1 POP SWAP3 SWAP2 POP POP JUMP JUMPDEST PUSH0 DUP2 SWAP1 POP PUSH1 0x20 DUP3 ADD SWAP1 POP SWAP2 SWAP1 POP JUMP JUMPDEST PUSH0 DUP3 DUP3 MSTORE PUSH1 0x20 DUP3 ADD SWAP1 POP SWAP3 SWAP2 POP POP JUMP JUMPDEST PUSH0 PUSH2 0x17DE DUP3 PUSH2 0x13CE JUMP JUMPDEST PUSH2 0x17E8 DUP2 DUP6 PUSH2 0x17C4 JUMP JUMPDEST SWAP4 POP PUSH2 0x17F8 DUP2 DUP6 PUSH1 0x20 DUP7 ADD PUSH2 0x13E8 JUMP JUMPDEST PUSH2 0x1801 DUP2 PUSH2 0x13F6 JUMP JUMPDEST DUP5 ADD SWAP2 POP POP SWAP3 SWAP2 POP POP JUMP JUMPDEST PUSH2 0x1815 DUP2 PUSH2 0x145E JUMP JUMPDEST DUP3 MSTORE POP POP JUMP JUMPDEST PUSH2 0x1824 DUP2 PUSH2 0x1368 JUMP JUMPDEST DUP3 MSTORE POP POP JUMP JUMPDEST PUSH2 0x1833 DUP2 PUSH2 0x14F5 JUMP JUMPDEST DUP3 MSTORE POP POP JUMP JUMPDEST PUSH0 DUP2 MLOAD SWAP1 POP SWAP2 SWAP1 POP JUMP JUMPDEST PUSH0 DUP3 DUP3 MSTORE PUSH1 0x20 DUP3 ADD SWAP1 POP SWAP3 SWAP2 POP POP JUMP JUMPDEST PUSH0 PUSH2 0x185D DUP3 PUSH2 0x1839 JUMP JUMPDEST PUSH2 0x1867 DUP2 DUP6 PUSH2 0x1843 JUMP JUMPDEST SWAP4 POP PUSH2 0x1877 DUP2 DUP6 PUSH1 0x20 DUP7 ADD PUSH2 0x13E8 JUMP JUMPDEST PUSH2 0x1880 DUP2 PUSH2 0x13F6 JUMP JUMPDEST DUP5 ADD SWAP2 POP POP SWAP3 SWAP2 POP POP JUMP JUMPDEST PUSH0 PUSH2 0x100 DUP4 ADD PUSH0 DUP4 ADD MLOAD DUP5 DUP3 SUB PUSH0 DUP7 ADD MSTORE PUSH2 0x18A6 DUP3 DUP3 PUSH2 0x17D4 JUMP JUMPDEST SWAP2 POP POP PUSH1 0x20 DUP4 ADD MLOAD PUSH2 0x18BB PUSH1 0x20 DUP7 ADD DUP3 PUSH2 0x180C JUMP JUMPDEST POP PUSH1 0x40 DUP4 ADD MLOAD PUSH2 0x18CE PUSH1 0x40 DUP7 ADD DUP3 PUSH2 0x181B JUMP JUMPDEST POP PUSH1 0x60 DUP4 ADD MLOAD PUSH2 0x18E1 PUSH1 0x60 DUP7 ADD DUP3 PUSH2 0x181B JUMP JUMPDEST POP PUSH1 0x80 DUP4 ADD MLOAD PUSH2 0x18F4 PUSH1 0x80 DUP7 ADD DUP3 PUSH2 0x182A JUMP JUMPDEST POP PUSH1 0xA0 DUP4 ADD MLOAD PUSH2 0x1907 PUSH1 0xA0 DUP7 ADD DUP3 PUSH2 0x181B JUMP JUMPDEST POP PUSH1 0xC0 DUP4 ADD MLOAD PUSH2 0x191A PUSH1 0xC0 DUP7 ADD DUP3 PUSH2 0x182A JUMP JUMPDEST POP PUSH1 0xE0 DUP4 ADD MLOAD DUP5 DUP3 SUB PUSH1 0xE0 DUP7 ADD MSTORE PUSH2 0x1932 DUP3 DUP3 PUSH2 0x1853 JUMP JUMPDEST SWAP2 POP POP DUP1 SWAP2 POP POP SWAP3 SWAP2 POP POP JUMP JUMPDEST PUSH0 PUSH2 0x194A DUP4 DUP4 PUSH2 0x188B JUMP JUMPDEST SWAP1 POP SWAP3 SWAP2 POP POP JUMP JUMPDEST PUSH0 PUSH1 0x20 DUP3 ADD SWAP1 POP SWAP2 SWAP1 POP JUMP JUMPDEST PUSH0 PUSH2 0x1968 DUP3 PUSH2 0x179B JUMP JUMPDEST PUSH2 0x1972 DUP2 DUP6 PUSH2 0x17A5 JUMP JUMPDEST SWAP4 POP DUP4 PUSH1 0x20 DUP3 MUL DUP6 ADD PUSH2 0x1984 DUP6 PUSH2 0x17B5 JUMP JUMPDEST DUP1 PUSH0 JUMPDEST DUP6 DUP2 LT ISZERO PUSH2 0x19BF JUMPI DUP5 DUP5 SUB DUP10 MSTORE DUP2 MLOAD PUSH2 0x19A0 DUP6 DUP3 PUSH2 0x193F JUMP JUMPDEST SWAP5 POP PUSH2 0x19AB DUP4 PUSH2 0x1952 JUMP JUMPDEST SWAP3 POP PUSH1 0x20 DUP11 ADD SWAP10 POP POP PUSH1 0x1 DUP2 ADD SWAP1 POP PUSH2 0x1987 JUMP JUMPDEST POP DUP3 SWAP8 POP DUP8 SWAP6 POP POP POP POP POP POP SWAP3 SWAP2 POP POP JUMP JUMPDEST PUSH0 PUSH1 0x20 DUP3 ADD SWAP1 POP DUP2 DUP2 SUB PUSH0 DUP4 ADD MSTORE PUSH2 0x19E9 DUP2 DUP5 PUSH2 0x195E JUMP JUMPDEST SWAP1 POP SWAP3 SWAP2 POP POP JUMP JUMPDEST PUSH0 DUP1 REVERT JUMPDEST PUSH32 0x4E487B7100000000000000000000000000000000000000000000000000000000 PUSH0 MSTORE PUSH1 0x41 PUSH1 0x4 MSTORE PUSH1 0x24 PUSH0 REVERT JUMPDEST PUSH2 0x1A2B DUP3 PUSH2 0x13F6 JUMP JUMPDEST DUP2 ADD DUP2 DUP2 LT PUSH8 0xFFFFFFFFFFFFFFFF DUP3 GT OR ISZERO PUSH2 0x1A4A JUMPI PUSH2 0x1A49 PUSH2 0x19F5 JUMP JUMPDEST JUMPDEST DUP1 PUSH1 0x40 MSTORE POP POP POP JUMP JUMPDEST PUSH0 PUSH2 0x1A5C PUSH2 0x1338 JUMP JUMPDEST SWAP1 POP PUSH2 0x1A68 DUP3 DUP3 PUSH2 0x1A22 JUMP JUMPDEST SWAP2 SWAP1 POP JUMP JUMPDEST PUSH0 PUSH8 0xFFFFFFFFFFFFFFFF DUP3 GT ISZERO PUSH2 0x1A87 JUMPI PUSH2 0x1A86 PUSH2 0x19F5 JUMP JUMPDEST JUMPDEST PUSH1 0x20 DUP3 MUL SWAP1 POP PUSH1 0x20 DUP2 ADD SWAP1 POP SWAP2 SWAP1 POP JUMP JUMPDEST PUSH0 DUP1 REVERT JUMPDEST PUSH0 PUSH2 0x1AAE PUSH2 0x1AA9 DUP5 PUSH2 0x1A6D JUMP JUMPDEST PUSH2 0x1A53 JUMP JUMPDEST SWAP1 POP DUP1 DUP4 DUP3 MSTORE PUSH1 0x20 DUP3 ADD SWAP1 POP PUSH1 0x20 DUP5 MUL DUP4 ADD DUP6 DUP2 GT ISZERO PUSH2 0x1AD1 JUMPI PUSH2 0x1AD0 PUSH2 0x1A98 JUMP JUMPDEST JUMPDEST DUP4 JUMPDEST DUP2 DUP2 LT ISZERO PUSH2 0x1AFA JUMPI DUP1 PUSH2 0x1AE6 DUP9 DUP3 PUSH2 0x138F JUMP JUMPDEST DUP5 MSTORE PUSH1 0x20 DUP5 ADD SWAP4 POP POP PUSH1 0x20 DUP2 ADD SWAP1 POP PUSH2 0x1AD3 JUMP JUMPDEST POP POP POP SWAP4 SWAP3 POP POP POP JUMP JUMPDEST PUSH0 DUP3 PUSH1 0x1F DUP4 ADD SLT PUSH2 0x1B18 JUMPI PUSH2 0x1B17 PUSH2 0x19F1 JUMP JUMPDEST JUMPDEST DUP2 CALLDATALOAD PUSH2 0x1B28 DUP5 DUP3 PUSH1 0x20 DUP7 ADD PUSH2 0x1A9C JUMP JUMPDEST SWAP2 POP POP SWAP3 SWAP2 POP POP JUMP JUMPDEST PUSH0 DUP1 PUSH1 0x40 DUP4 DUP6 SUB SLT ISZERO PUSH2 0x1B47 JUMPI PUSH2 0x1B46 PUSH2 0x1341 JUMP JUMPDEST JUMPDEST PUSH0 DUP4 ADD CALLDATALOAD PUSH8 0xFFFFFFFFFFFFFFFF DUP2 GT ISZERO PUSH2 0x1B64 JUMPI PUSH2 0x1B63 PUSH2 0x1345 JUMP JUMPDEST JUMPDEST PUSH2 0x1B70 DUP6 DUP3 DUP7 ADD PUSH2 0x1B04 JUMP JUMPDEST SWAP3 POP POP PUSH1 0x20 DUP4 ADD CALLDATALOAD PUSH8 0xFFFFFFFFFFFFFFFF DUP2 GT ISZERO PUSH2 0x1B91 JUMPI PUSH2 0x1B90 PUSH2 0x1345 JUMP JUMPDEST JUMPDEST PUSH2 0x1B9D DUP6 DUP3 DUP7 ADD PUSH2 0x1B04 JUMP JUMPDEST SWAP2 POP POP SWAP3 POP SWAP3 SWAP1 POP JUMP JUMPDEST PUSH0 DUP2 MLOAD SWAP1 POP SWAP2 SWAP1 POP JUMP JUMPDEST PUSH0 DUP3 DUP3 MSTORE PUSH1 0x20 DUP3 ADD SWAP1 POP SWAP3 SWAP2 POP POP JUMP JUMPDEST PUSH0 DUP2 SWAP1 POP PUSH1 0x20 DUP3 ADD SWAP1 POP SWAP2 SWAP1 POP JUMP JUMPDEST PUSH0 PUSH2 0x1BDB DUP4 DUP4 PUSH2 0x182A JUMP JUMPDEST PUSH1 0x20 DUP4 ADD SWAP1 POP SWAP3 SWAP2 POP POP JUMP JUMPDEST PUSH0 PUSH1 0x20 DUP3 ADD SWAP1 POP SWAP2 SWAP1 POP JUMP JUMPDEST PUSH0 PUSH2 0x1BFD DUP3 PUSH2 0x1BA7 JUMP JUMPDEST PUSH2 0x1C07 DUP2 DUP6 PUSH2 0x1BB1 JUMP JUMPDEST SWAP4 POP PUSH2 0x1C12 DUP4 PUSH2 0x1BC1 JUMP JUMPDEST DUP1 PUSH0 JUMPDEST DUP4 DUP2 LT ISZERO PUSH2 0x1C42 JUMPI DUP2 MLOAD PUSH2 0x1C29 DUP9 DUP3 PUSH2 0x1BD0 JUMP JUMPDEST SWAP8 POP PUSH2 0x1C34 DUP4 PUSH2 0x1BE7 JUMP JUMPDEST SWAP3 POP POP PUSH1 0x1 DUP2 ADD SWAP1 POP PUSH2 0x1C15 JUMP JUMPDEST POP DUP6 SWAP4 POP POP POP POP SWAP3 SWAP2 POP POP JUMP JUMPDEST PUSH0 PUSH1 0x20 DUP3 ADD SWAP1 POP DUP2 DUP2 SUB PUSH0 DUP4 ADD MSTORE PUSH2 0x1C67 DUP2 DUP5 PUSH2 0x1BF3 JUMP JUMPDEST SWAP1 POP SWAP3 SWAP2 POP POP JUMP JUMPDEST PUSH32 0x4E487B7100000000000000000000000000000000000000000000000000000000 PUSH0 MSTORE PUSH1 0x22 PUSH1 0x4 MSTORE PUSH1 0x24 PUSH0 REVERT JUMPDEST PUSH0 PUSH1 0x2 DUP3 DIV SWAP1 POP PUSH1 0x1 DUP3 AND DUP1 PUSH2 0x1CB3 JUMPI PUSH1 0x7F DUP3 AND SWAP2 POP JUMPDEST PUSH1 0x20 DUP3 LT DUP2 SUB PUSH2 0x1CC6 JUMPI PUSH2 0x1CC5 PUSH2 0x1C6F JUMP JUMPDEST JUMPDEST POP SWAP2 SWAP1 POP JUMP JUMPDEST PUSH0 PUSH1 0x60 DUP3 ADD SWAP1 POP PUSH2 0x1CDF PUSH0 DUP4 ADD DUP7 PUSH2 0x14E6 JUMP JUMPDEST PUSH2 0x1CEC PUSH1 0x20 DUP4 ADD DUP6 PUSH2 0x14E6 JUMP JUMPDEST PUSH2 0x1CF9 PUSH1 0x40 DUP4 ADD DUP5 PUSH2 0x1773 JUMP JUMPDEST SWAP5 SWAP4 POP POP POP POP JUMP JUMPDEST PUSH0 DUP2 MLOAD SWAP1 POP PUSH2 0x1D0F DUP2 PUSH2 0x1379 JUMP JUMPDEST SWAP3 SWAP2 POP POP JUMP JUMPDEST PUSH0 PUSH1 0x20 DUP3 DUP5 SUB SLT ISZERO PUSH2 0x1D2A JUMPI PUSH2 0x1D29 PUSH2 0x1341 JUMP JUMPDEST JUMPDEST PUSH0 PUSH2 0x1D37 DUP5 DUP3 DUP6 ADD PUSH2 0x1D01 JUMP JUMPDEST SWAP2 POP POP SWAP3 SWAP2 POP POP JUMP JUMPDEST PUSH0 DUP2 MLOAD SWAP1 POP PUSH2 0x1D4E DUP2 PUSH2 0x16E0 JUMP JUMPDEST SWAP3 SWAP2 POP POP JUMP JUMPDEST PUSH0 PUSH1 0x20 DUP3 DUP5 SUB SLT ISZERO PUSH2 0x1D69 JUMPI PUSH2 0x1D68 PUSH2 0x1341 JUMP JUMPDEST JUMPDEST PUSH0 PUSH2 0x1D76 DUP5 DUP3 DUP6 ADD PUSH2 0x1D40 JUMP JUMPDEST SWAP2 POP POP SWAP3 SWAP2 POP POP JUMP JUMPDEST PUSH32 0x61636365737320636F6E74726F6C000000000000000000000000000000000000 PUSH0 DUP3 ADD MSTORE POP JUMP JUMPDEST PUSH0 PUSH2 0x1DB3 PUSH1 0xE DUP4 PUSH2 0x13D8 JUMP JUMPDEST SWAP2 POP PUSH2 0x1DBE DUP3 PUSH2 0x1D7F JUMP JUMPDEST PUSH1 0x20 DUP3 ADD SWAP1 POP SWAP2 SWAP1 POP JUMP JUMPDEST PUSH0 PUSH1 0x20 DUP3 ADD SWAP1 POP DUP2 DUP2 SUB PUSH0 DUP4 ADD MSTORE PUSH2 0x1DE0 DUP2 PUSH2 0x1DA7 JUMP JUMPDEST SWAP1 POP SWAP2 SWAP1 POP JUMP JUMPDEST PUSH0 DUP2 ISZERO ISZERO SWAP1 POP SWAP2 SWAP1 POP JUMP JUMPDEST PUSH2 0x1DFB DUP2 PUSH2 0x1DE7 JUMP JUMPDEST DUP3 MSTORE POP POP JUMP JUMPDEST PUSH2 0x1E0A DUP2 PUSH2 0x1349 JUMP JUMPDEST DUP3 MSTORE POP POP JUMP JUMPDEST PUSH0 DUP3 DUP3 MSTORE PUSH1 0x20 DUP3 ADD SWAP1 POP SWAP3 SWAP2 POP POP JUMP JUMPDEST PUSH0 PUSH2 0x1E2A DUP3 PUSH2 0x1839 JUMP JUMPDEST PUSH2 0x1E34 DUP2 DUP6 PUSH2 0x1E10 JUMP JUMPDEST SWAP4 POP PUSH2 0x1E44 DUP2 DUP6 PUSH1 0x20 DUP7 ADD PUSH2 0x13E8 JUMP JUMPDEST PUSH2 0x1E4D DUP2 PUSH2 0x13F6 JUMP JUMPDEST DUP5 ADD SWAP2 POP POP SWAP3 SWAP2 POP POP JUMP JUMPDEST PUSH0 PUSH1 0xA0 DUP3 ADD SWAP1 POP PUSH2 0x1E6B PUSH0 DUP4 ADD DUP9 PUSH2 0x14E6 JUMP JUMPDEST PUSH2 0x1E78 PUSH1 0x20 DUP4 ADD DUP8 PUSH2 0x1DF2 JUMP JUMPDEST PUSH2 0x1E85 PUSH1 0x40 DUP4 ADD DUP7 PUSH2 0x1678 JUMP JUMPDEST PUSH2 0x1E92 PUSH1 0x60 DUP4 ADD DUP6 PUSH2 0x1E01 JUMP JUMPDEST DUP2 DUP2 SUB PUSH1 0x80 DUP4 ADD MSTORE PUSH2 0x1EA4 DUP2 DUP5 PUSH2 0x1E20 JUMP JUMPDEST SWAP1 POP SWAP7 SWAP6 POP POP POP POP POP POP JUMP JUMPDEST PUSH0 DUP2 MLOAD SWAP1 POP PUSH2 0x1EBE DUP2 PUSH2 0x1610 JUMP JUMPDEST SWAP3 SWAP2 POP POP JUMP JUMPDEST PUSH0 DUP1 PUSH1 0x40 DUP4 DUP6 SUB SLT ISZERO PUSH2 0x1EDA JUMPI PUSH2 0x1ED9 PUSH2 0x1341 JUMP JUMPDEST JUMPDEST PUSH0 PUSH2 0x1EE7 DUP6 DUP3 DUP7 ADD PUSH2 0x1EB0 JUMP JUMPDEST SWAP3 POP POP PUSH1 0x20 PUSH2 0x1EF8 DUP6 DUP3 DUP7 ADD PUSH2 0x1EB0 JUMP JUMPDEST SWAP2 POP POP SWAP3 POP SWAP3 SWAP1 POP JUMP JUMPDEST PUSH0 PUSH1 0x40 DUP3 ADD SWAP1 POP PUSH2 0x1F15 PUSH0 DUP4 ADD DUP6 PUSH2 0x14E6 JUMP JUMPDEST PUSH2 0x1F22 PUSH1 0x20 DUP4 ADD DUP5 PUSH2 0x14FE JUMP JUMPDEST SWAP4 SWAP3 POP POP POP JUMP JUMPDEST PUSH2 0x1F32 DUP2 PUSH2 0x1DE7 JUMP JUMPDEST DUP2 EQ PUSH2 0x1F3C JUMPI PUSH0 DUP1 REVERT JUMPDEST POP JUMP JUMPDEST PUSH0 DUP2 MLOAD SWAP1 POP PUSH2 0x1F4D DUP2 PUSH2 0x1F29 JUMP JUMPDEST SWAP3 SWAP2 POP POP JUMP JUMPDEST PUSH0 PUSH1 0x20 DUP3 DUP5 SUB SLT ISZERO PUSH2 0x1F68 JUMPI PUSH2 0x1F67 PUSH2 0x1341 JUMP JUMPDEST JUMPDEST PUSH0 PUSH2 0x1F75 DUP5 DUP3 DUP6 ADD PUSH2 0x1F3F JUMP JUMPDEST SWAP2 POP POP SWAP3 SWAP2 POP POP JUMP JUMPDEST PUSH32 0x4E487B7100000000000000000000000000000000000000000000000000000000 PUSH0 MSTORE PUSH1 0x11 PUSH1 0x4 MSTORE PUSH1 0x24 PUSH0 REVERT JUMPDEST PUSH0 PUSH2 0x1FB5 DUP3 PUSH2 0x14F5 JUMP JUMPDEST SWAP2 POP PUSH2 0x1FC0 DUP4 PUSH2 0x14F5 JUMP JUMPDEST SWAP3 POP DUP3 DUP3 SUB SWAP1 POP DUP2 DUP2 GT ISZERO PUSH2 0x1FD8 JUMPI PUSH2 0x1FD7 PUSH2 0x1F7E JUMP JUMPDEST JUMPDEST SWAP3 SWAP2 POP POP JUMP JUMPDEST PUSH0 PUSH2 0x1FE8 DUP3 PUSH2 0x14F5 JUMP JUMPDEST SWAP2 POP PUSH2 0x1FF3 DUP4 PUSH2 0x14F5 JUMP JUMPDEST SWAP3 POP DUP3 DUP3 MUL PUSH2 0x2001 DUP2 PUSH2 0x14F5 JUMP JUMPDEST SWAP2 POP DUP3 DUP3 DIV DUP5 EQ DUP4 ISZERO OR PUSH2 0x2018 JUMPI PUSH2 0x2017 PUSH2 0x1F7E JUMP JUMPDEST JUMPDEST POP SWAP3 SWAP2 POP POP JUMP JUMPDEST PUSH32 0x4E487B7100000000000000000000000000000000000000000000000000000000 PUSH0 MSTORE PUSH1 0x12 PUSH1 0x4 MSTORE PUSH1 0x24 PUSH0 REVERT JUMPDEST PUSH0 PUSH2 0x2056 DUP3 PUSH2 0x14F5 JUMP JUMPDEST SWAP2 POP PUSH2 0x2061 DUP4 PUSH2 0x14F5 JUMP JUMPDEST SWAP3 POP DUP3 PUSH2 0x2071 JUMPI PUSH2 0x2070 PUSH2 0x201F JUMP JUMPDEST JUMPDEST DUP3 DUP3 DIV SWAP1 POP SWAP3 SWAP2 POP POP JUMP JUMPDEST PUSH32 0x4E487B7100000000000000000000000000000000000000000000000000000000 PUSH0 MSTORE PUSH1 0x32 PUSH1 0x4 MSTORE PUSH1 0x24 PUSH0 REVERT JUMPDEST PUSH0 PUSH2 0x20B3 DUP3 PUSH2 0x14F5 JUMP JUMPDEST SWAP2 POP PUSH2 0x20BE DUP4 PUSH2 0x14F5 JUMP JUMPDEST SWAP3 POP DUP3 DUP3 ADD SWAP1 POP DUP1 DUP3 GT ISZERO PUSH2 0x20D6 JUMPI PUSH2 0x20D5 PUSH2 0x1F7E JUMP JUMPDEST JUMPDEST SWAP3 SWAP2 POP POP JUMP JUMPDEST PUSH0 DUP1 PUSH0 DUP1 PUSH0 PUSH1 0xA0 DUP7 DUP9 SUB SLT ISZERO PUSH2 0x20F5 JUMPI PUSH2 0x20F4 PUSH2 0x1341 JUMP JUMPDEST JUMPDEST PUSH0 PUSH2 0x2102 DUP9 DUP3 DUP10 ADD PUSH2 0x1D01 JUMP JUMPDEST SWAP6 POP POP PUSH1 0x20 PUSH2 0x2113 DUP9 DUP3 DUP10 ADD PUSH2 0x1D01 JUMP JUMPDEST SWAP5 POP POP PUSH1 0x40 PUSH2 0x2124 DUP9 DUP3 DUP10 ADD PUSH2 0x1D40 JUMP JUMPDEST SWAP4 POP POP PUSH1 0x60 PUSH2 0x2135 DUP9 DUP3 DUP10 ADD PUSH2 0x1D01 JUMP JUMPDEST SWAP3 POP POP PUSH1 0x80 PUSH2 0x2146 DUP9 DUP3 DUP10 ADD PUSH2 0x1D40 JUMP JUMPDEST SWAP2 POP POP SWAP3 SWAP6 POP SWAP3 SWAP6 SWAP1 SWAP4 POP JUMP JUMPDEST PUSH0 DUP2 PUSH1 0xE0 SHR SWAP1 POP SWAP2 SWAP1 POP JUMP JUMPDEST PUSH0 PUSH1 0x3 RETURNDATASIZE GT ISZERO PUSH2 0x217B JUMPI PUSH1 0x4 PUSH0 DUP1 RETURNDATACOPY PUSH2 0x2178 PUSH0 MLOAD PUSH2 0x2153 JUMP JUMPDEST SWAP1 POP JUMPDEST SWAP1 JUMP JUMPDEST PUSH0 PUSH1 0x44 RETURNDATASIZE LT PUSH2 0x220A JUMPI PUSH2 0x218F PUSH2 0x1338 JUMP JUMPDEST PUSH1 0x4 RETURNDATASIZE SUB PUSH1 0x4 DUP3 RETURNDATACOPY DUP1 MLOAD RETURNDATASIZE PUSH1 0x24 DUP3 ADD GT PUSH8 0xFFFFFFFFFFFFFFFF DUP3 GT OR ISZERO PUSH2 0x21B7 JUMPI POP POP PUSH2 0x220A JUMP JUMPDEST DUP1 DUP3 ADD DUP1 MLOAD PUSH8 0xFFFFFFFFFFFFFFFF DUP2 GT ISZERO PUSH2 0x21D5 JUMPI POP POP POP POP PUSH2 0x220A JUMP JUMPDEST DUP1 PUSH1 0x20 DUP4 ADD ADD PUSH1 0x4 RETURNDATASIZE SUB DUP6 ADD DUP2 GT ISZERO PUSH2 0x21F2 JUMPI POP POP POP POP POP PUSH2 0x220A JUMP JUMPDEST PUSH2 0x2201 DUP3 PUSH1 0x20 ADD DUP6 ADD DUP7 PUSH2 0x1A22 JUMP JUMPDEST DUP3 SWAP6 POP POP POP POP POP POP JUMPDEST SWAP1 JUMP JUMPDEST PUSH0 DUP1 PUSH1 0x23 RETURNDATASIZE GT ISZERO PUSH2 0x2227 JUMPI PUSH1 0x20 PUSH1 0x4 PUSH0 RETURNDATACOPY PUSH1 0x1 SWAP2 POP PUSH0 MLOAD SWAP1 POP JUMPDEST SWAP1 SWAP2 JUMP JUMPDEST PUSH0 DUP2 SWAP1 POP SWAP3 SWAP2 POP POP JUMP JUMPDEST PUSH0 DUP2 SWAP1 POP DUP2 PUSH0 MSTORE PUSH1 0x20 PUSH0 KECCAK256 SWAP1 POP SWAP2 SWAP1 POP JUMP JUMPDEST PUSH0 DUP2 SLOAD PUSH2 0x2253 DUP2 PUSH2 0x1C9C JUMP JUMPDEST PUSH2 0x225D DUP2 DUP7 PUSH2 0x222B JUMP JUMPDEST SWAP5 POP PUSH1 0x1 DUP3 AND PUSH0 DUP2 EQ PUSH2 0x2277 JUMPI PUSH1 0x1 DUP2 EQ PUSH2 0x228C JUMPI PUSH2 0x22BE JUMP JUMPDEST PUSH1 0xFF NOT DUP4 AND DUP7 MSTORE DUP2 ISZERO ISZERO DUP3 MUL DUP7 ADD SWAP4 POP PUSH2 0x22BE JUMP JUMPDEST PUSH2 0x2295 DUP6 PUSH2 0x2235 JUMP JUMPDEST PUSH0 JUMPDEST DUP4 DUP2 LT ISZERO PUSH2 0x22B6 JUMPI DUP2 SLOAD DUP2 DUP10 ADD MSTORE PUSH1 0x1 DUP3 ADD SWAP2 POP PUSH1 0x20 DUP2 ADD SWAP1 POP PUSH2 0x2297 JUMP JUMPDEST DUP4 DUP9 ADD SWAP6 POP POP POP JUMPDEST POP POP POP SWAP3 SWAP2 POP POP JUMP JUMPDEST PUSH32 0x2D00000000000000000000000000000000000000000000000000000000000000 PUSH0 DUP3 ADD MSTORE POP JUMP JUMPDEST PUSH0 PUSH2 0x22FB PUSH1 0x1 DUP4 PUSH2 0x222B JUMP JUMPDEST SWAP2 POP PUSH2 0x2306 DUP3 PUSH2 0x22C7 JUMP JUMPDEST PUSH1 0x1 DUP3 ADD SWAP1 POP SWAP2 SWAP1 POP JUMP JUMPDEST PUSH0 PUSH2 0x231C DUP3 DUP6 PUSH2 0x2247 JUMP JUMPDEST SWAP2 POP PUSH2 0x2327 DUP3 PUSH2 0x22EF JUMP JUMPDEST SWAP2 POP PUSH2 0x2333 DUP3 DUP5 PUSH2 0x2247 JUMP JUMPDEST SWAP2 POP DUP2 SWAP1 POP SWAP4 SWAP3 POP POP POP JUMP JUMPDEST PUSH0 PUSH2 0x2349 DUP3 PUSH2 0x14F5 JUMP JUMPDEST SWAP2 POP PUSH32 0xFFFFFFFFFFFFFFFFFFFFFFFFFFFFFFFFFFFFFFFFFFFFFFFFFFFFFFFFFFFFFFFF DUP3 SUB PUSH2 0x237B JUMPI PUSH2 0x237A PUSH2 0x1F7E JUMP JUMPDEST JUMPDEST PUSH1 0x1 DUP3 ADD SWAP1 POP SWAP2 SWAP1 POP JUMP JUMPDEST PUSH32 0x626174636842616C616E63654F663A20656D707479206572726F720000000000 PUSH0 DUP3 ADD MSTORE POP JUMP JUMPDEST PUSH0 PUSH2 0x23BA PUSH1 0x1B DUP4 PUSH2 0x13D8 JUMP JUMPDEST SWAP2 POP PUSH2 0x23C5 DUP3 PUSH2 0x2386 JUMP JUMPDEST PUSH1 0x20 DUP3 ADD SWAP1 POP SWAP2 SWAP1 POP JUMP JUMPDEST PUSH0 PUSH1 0x20 DUP3 ADD SWAP1 POP DUP2 DUP2 SUB PUSH0 DUP4 ADD MSTORE PUSH2 0x23E7 DUP2 PUSH2 0x23AE JUMP JUMPDEST SWAP1 POP SWAP2 SWAP1 POP JUMP JUMPDEST PUSH32 0x626174636842616C616E63654F663A206C656E67746820646966666572656E74 PUSH0 DUP3 ADD MSTORE POP JUMP JUMPDEST PUSH0 PUSH2 0x2422 PUSH1 0x20 DUP4 PUSH2 0x13D8 JUMP JUMPDEST SWAP2 POP PUSH2 0x242D DUP3 PUSH2 0x23EE JUMP JUMPDEST PUSH1 0x20 DUP3 ADD SWAP1 POP SWAP2 SWAP1 POP JUMP JUMPDEST PUSH0 PUSH1 0x20 DUP3 ADD SWAP1 POP DUP2 DUP2 SUB PUSH0 DUP4 ADD MSTORE PUSH2 0x244F DUP2 PUSH2 0x2416 JUMP JUMPDEST SWAP1 POP SWAP2 SWAP1 POP JUMP INVALID LOG2 PUSH5 0x6970667358 0x22 SLT KECCAK256 CALLVALUE DUP6 LT DUP5 0xCC 0xF7 SWAP14 PUSH0 0xEC 0x4F CREATE2 ORIGIN 0x4C 0xC6 0xC1 0xB3 SWAP13 0xC9 PUSH14 0x85846EF34C39DFFDA91FADE0A964 PUSH20 0x6F6C634300081A00330000000000000000000000 "
		},
		"gasEstimates": {
			"creation": {
				"codeDepositCost": "1871200",
				"executionCost": "infinite",
				"totalCost": "infinite"
			},
			"external": {
				"UNISWAP_V3_FACTORY()": "417",
				"USDC()": "440",
				"WETH()": "418",
				"admin()": "2571",
				"batchBalanceOf(address[],address[])": "infinite",
				"batchGetPoolInfo()": "infinite",
				"feeArray(uint256)": "6562",
				"getBlockNum()": "376",
				"getPool(address,address,uint24)": "infinite",
				"pool()": "infinite",
				"searchWETPairs()": "infinite",
				"swapUSDC2WETH(int256,address)": "infinite",
				"tokenArray(uint256)": "5032",
				"tokensDesc(address)": "infinite",
				"transferUSDC(uint256,address)": "infinite",
				"transferWETH(uint256,address)": "infinite"
			},
			"internal": {
				"initTokenArray()": "infinite"
			}
		},
		"methodIdentifiers": {
			"UNISWAP_V3_FACTORY()": "f73e5aab",
			"USDC()": "89a30271",
			"WETH()": "ad5c4648",
			"admin()": "f851a440",
			"batchBalanceOf(address[],address[])": "b59b28ef",
			"batchGetPoolInfo()": "b34b06af",
			"feeArray(uint256)": "9d5d46b5",
			"getBlockNum()": "7f6c6f10",
			"getPool(address,address,uint24)": "1698ee82",
			"pool()": "16f0115b",
			"searchWETPairs()": "4055cdfb",
			"swapUSDC2WETH(int256,address)": "49c0222f",
			"tokenArray(uint256)": "faa32f5d",
			"tokensDesc(address)": "085d4ad3",
			"transferUSDC(uint256,address)": "8fef8474",
			"transferWETH(uint256,address)": "d1af005d"
		}
	},
	"abi": [
		{
			"inputs": [],
			"stateMutability": "nonpayable",
			"type": "constructor"
		},
		{
			"inputs": [],
			"name": "UNISWAP_V3_FACTORY",
			"outputs": [
				{
					"internalType": "address",
					"name": "",
					"type": "address"
				}
			],
			"stateMutability": "view",
			"type": "function"
		},
		{
			"inputs": [],
			"name": "USDC",
			"outputs": [
				{
					"internalType": "address",
					"name": "",
					"type": "address"
				}
			],
			"stateMutability": "view",
			"type": "function"
		},
		{
			"inputs": [],
			"name": "WETH",
			"outputs": [
				{
					"internalType": "address",
					"name": "",
					"type": "address"
				}
			],
			"stateMutability": "view",
			"type": "function"
		},
		{
			"inputs": [],
			"name": "admin",
			"outputs": [
				{
					"internalType": "address",
					"name": "",
					"type": "address"
				}
			],
			"stateMutability": "view",
			"type": "function"
		},
		{
			"inputs": [
				{
					"internalType": "address[]",
					"name": "tokens",
					"type": "address[]"
				},
				{
					"internalType": "address[]",
					"name": "owners",
					"type": "address[]"
				}
			],
			"name": "batchBalanceOf",
			"outputs": [
				{
					"internalType": "uint256[]",
					"name": "",
					"type": "uint256[]"
				}
			],
			"stateMutability": "view",
			"type": "function"
		},
		{
			"inputs": [],
			"name": "batchGetPoolInfo",
			"outputs": [
				{
					"components": [
						{
							"internalType": "string",
							"name": "desc",
							"type": "string"
						},
						{
							"internalType": "uint24",
							"name": "fee",
							"type": "uint24"
						},
						{
							"internalType": "address",
							"name": "poolAddress",
							"type": "address"
						},
						{
							"internalType": "address",
							"name": "token0",
							"type": "address"
						},
						{
							"internalType": "uint256",
							"name": "token0Balance",
							"type": "uint256"
						},
						{
							"internalType": "address",
							"name": "token1",
							"type": "address"
						},
						{
							"internalType": "uint256",
							"name": "token1Balance",
							"type": "uint256"
						},
						{
							"internalType": "bytes",
							"name": "errorMsg",
							"type": "bytes"
						}
					],
					"internalType": "struct TestV3.PoolInfo[]",
					"name": "",
					"type": "tuple[]"
				}
			],
			"stateMutability": "view",
			"type": "function"
		},
		{
			"inputs": [
				{
					"internalType": "uint256",
					"name": "",
					"type": "uint256"
				}
			],
			"name": "feeArray",
			"outputs": [
				{
					"internalType": "uint24",
					"name": "",
					"type": "uint24"
				}
			],
			"stateMutability": "view",
			"type": "function"
		},
		{
			"inputs": [],
			"name": "getBlockNum",
			"outputs": [
				{
					"internalType": "uint256",
					"name": "",
					"type": "uint256"
				}
			],
			"stateMutability": "view",
			"type": "function"
		},
		{
			"inputs": [
				{
					"internalType": "address",
					"name": "_token0",
					"type": "address"
				},
				{
					"internalType": "address",
					"name": "_token1",
					"type": "address"
				},
				{
					"internalType": "uint24",
					"name": "fee",
					"type": "uint24"
				}
			],
			"name": "getPool",
			"outputs": [
				{
					"internalType": "address",
					"name": "poolAddress",
					"type": "address"
				},
				{
					"internalType": "address",
					"name": "token0",
					"type": "address"
				},
				{
					"internalType": "uint256",
					"name": "token0Balance",
					"type": "uint256"
				},
				{
					"internalType": "address",
					"name": "token1",
					"type": "address"
				},
				{
					"internalType": "uint256",
					"name": "token1Balance",
					"type": "uint256"
				}
			],
			"stateMutability": "view",
			"type": "function"
		},
		{
			"inputs": [],
			"name": "pool",
			"outputs": [
				{
					"internalType": "contract IUniswapV3Pool",
					"name": "",
					"type": "address"
				}
			],
			"stateMutability": "view",
			"type": "function"
		},
		{
			"inputs": [],
			"name": "searchWETPairs",
			"outputs": [
				{
					"internalType": "address",
					"name": "poolAddress",
					"type": "address"
				},
				{
					"internalType": "uint256",
					"name": "balance0",
					"type": "uint256"
				},
				{
					"internalType": "uint256",
					"name": "balance1",
					"type": "uint256"
				}
			],
			"stateMutability": "view",
			"type": "function"
		},
		{
			"inputs": [
				{
					"internalType": "int256",
					"name": "amount",
					"type": "int256"
				},
				{
					"internalType": "address",
					"name": "receiver",
					"type": "address"
				}
			],
			"name": "swapUSDC2WETH",
			"outputs": [
				{
					"internalType": "int256",
					"name": "amount0",
					"type": "int256"
				},
				{
					"internalType": "int256",
					"name": "amount1",
					"type": "int256"
				}
			],
			"stateMutability": "nonpayable",
			"type": "function"
		},
		{
			"inputs": [
				{
					"internalType": "uint256",
					"name": "",
					"type": "uint256"
				}
			],
			"name": "tokenArray",
			"outputs": [
				{
					"internalType": "address",
					"name": "",
					"type": "address"
				}
			],
			"stateMutability": "view",
			"type": "function"
		},
		{
			"inputs": [
				{
					"internalType": "address",
					"name": "tokenAddress",
					"type": "address"
				}
			],
			"name": "tokensDesc",
			"outputs": [
				{
					"internalType": "string",
					"name": "",
					"type": "string"
				}
			],
			"stateMutability": "view",
			"type": "function"
		},
		{
			"inputs": [
				{
					"internalType": "uint256",
					"name": "amount",
					"type": "uint256"
				},
				{
					"internalType": "address",
					"name": "receiver",
					"type": "address"
				}
			],
			"name": "transferUSDC",
			"outputs": [],
			"stateMutability": "nonpayable",
			"type": "function"
		},
		{
			"inputs": [
				{
					"internalType": "uint256",
					"name": "amount",
					"type": "uint256"
				},
				{
					"internalType": "address",
					"name": "receiver",
					"type": "address"
				}
			],
			"name": "transferWETH",
			"outputs": [],
			"stateMutability": "nonpayable",
			"type": "function"
		}
	]
}