{
	"data": {
		"bytecode": {
			"linkReferences": {},
			"object": "60a060405234801561000f575f80fd5b5073f62c03e08ada871a0beb309762e260a7a6a880e673ffffffffffffffffffffffffffffffffffffffff1663e6a4390573fff9976782d46cc05630d1f6ebab18b2324d6b1473ee567fe1712faf6149d80da1e6934e354124cfe36040518363ffffffff1660e01b815260040161008792919061013d565b602060405180830381865afa1580156100a2573d5f803e3d5ffd5b505050506040513d601f19601f820116820180604052508101906100c69190610192565b73ffffffffffffffffffffffffffffffffffffffff1660808173ffffffffffffffffffffffffffffffffffffffff16815250506101bd565b5f73ffffffffffffffffffffffffffffffffffffffff82169050919050565b5f610127826100fe565b9050919050565b6101378161011d565b82525050565b5f6040820190506101505f83018561012e565b61015d602083018461012e565b9392505050565b5f80fd5b6101718161011d565b811461017b575f80fd5b50565b5f8151905061018c81610168565b92915050565b5f602082840312156101a7576101a6610164565b5b5f6101b48482850161017e565b91505092915050565b608051610cf76101dc5f395f818161046201526105290152610cf75ff3fe608060405234801561000f575f80fd5b5060043610610060575f3560e01c806310d1e85c1461006457806365b6c4f01461008057806397af41d01461009c57806399d8fae3146100ba578063ad5c4648146100d8578063e0bab4c4146100f6575b5f80fd5b61007e6004803603810190610079919061070d565b610114565b005b61009a60048036038101906100959190610791565b6104ee565b005b6100a46105b7565b6040516100b191906107cb565b60405180910390f35b6100c26105cf565b6040516100cf91906107cb565b60405180910390f35b6100e06105e7565b6040516100ed91906107cb565b60405180910390f35b6100fe6105ff565b60405161010b91906107cb565b60405180910390f35b3073ffffffffffffffffffffffffffffffffffffffff168573ffffffffffffffffffffffffffffffffffffffff1614610182576040517f08c379a00000000000000000000000000000000000000000000000000000000081526004016101799061083e565b60405180910390fd5b5f3390505f8173ffffffffffffffffffffffffffffffffffffffff16630dfe16816040518163ffffffff1660e01b8152600401602060405180830381865afa1580156101d0573d5f803e3d5ffd5b505050506040513d601f19601f820116820180604052508101906101f49190610870565b90505f8273ffffffffffffffffffffffffffffffffffffffff1663d21220a76040518163ffffffff1660e01b8152600401602060405180830381865afa158015610240573d5f803e3d5ffd5b505050506040513d601f19601f820116820180604052508101906102649190610870565b90508273ffffffffffffffffffffffffffffffffffffffff1673f62c03e08ada871a0beb309762e260a7a6a880e673ffffffffffffffffffffffffffffffffffffffff1663e6a4390584846040518363ffffffff1660e01b81526004016102cc92919061089b565b602060405180830381865afa1580156102e7573d5f803e3d5ffd5b505050506040513d601f19601f8201168201806040525081019061030b9190610870565b73ffffffffffffffffffffffffffffffffffffffff1614610361576040517f08c379a00000000000000000000000000000000000000000000000000000000081526004016103589061090c565b60405180910390fd5b5f8086868101906103729190610965565b9150915073fff9976782d46cc05630d1f6ebab18b2324d6b1473ffffffffffffffffffffffffffffffffffffffff168273ffffffffffffffffffffffffffffffffffffffff16146103f8576040517f08c379a00000000000000000000000000000000000000000000000000000000081526004016103ef90610a13565b60405180910390fd5b5f60016103e560038b61040b9190610a5e565b6104159190610acc565b61041f9190610afc565b90505f818a61042e9190610afc565b905073fff9976782d46cc05630d1f6ebab18b2324d6b1473ffffffffffffffffffffffffffffffffffffffff1663a9059cbb7f0000000000000000000000000000000000000000000000000000000000000000836040518363ffffffff1660e01b815260040161049f929190610b3e565b6020604051808303815f875af11580156104bb573d5f803e3d5ffd5b505050506040513d601f19601f820116820180604052508101906104df9190610b9a565b50505050505050505050505050565b5f73fff9976782d46cc05630d1f6ebab18b2324d6b1482604051602001610516929190610b3e565b60405160208183030381529060405290507f000000000000000000000000000000000000000000000000000000000000000073ffffffffffffffffffffffffffffffffffffffff1663022c0d9f5f8430856040518563ffffffff1660e01b81526004016105869493929190610c77565b5f604051808303815f87803b15801561059d575f80fd5b505af11580156105af573d5f803e3d5ffd5b505050505050565b73ee567fe1712faf6149d80da1e6934e354124cfe381565b73f62c03e08ada871a0beb309762e260a7a6a880e681565b73fff9976782d46cc05630d1f6ebab18b2324d6b1481565b73ee567fe1712faf6149d80da1e6934e354124cfe381565b5f80fd5b5f80fd5b5f73ffffffffffffffffffffffffffffffffffffffff82169050919050565b5f6106488261061f565b9050919050565b6106588161063e565b8114610662575f80fd5b50565b5f813590506106738161064f565b92915050565b5f819050919050565b61068b81610679565b8114610695575f80fd5b50565b5f813590506106a681610682565b92915050565b5f80fd5b5f80fd5b5f80fd5b5f8083601f8401126106cd576106cc6106ac565b5b8235905067ffffffffffffffff8111156106ea576106e96106b0565b5b602083019150836001820283011115610706576107056106b4565b5b9250929050565b5f805f805f6080868803121561072657610725610617565b5b5f61073388828901610665565b955050602061074488828901610698565b945050604061075588828901610698565b935050606086013567ffffffffffffffff8111156107765761077561061b565b5b610782888289016106b8565b92509250509295509295909350565b5f602082840312156107a6576107a5610617565b5b5f6107b384828501610698565b91505092915050565b6107c58161063e565b82525050565b5f6020820190506107de5f8301846107bc565b92915050565b5f82825260208201905092915050565b7f756e6973776170563243616c6c3a2073656e646572206572726f7200000000005f82015250565b5f610828601b836107e4565b9150610833826107f4565b602082019050919050565b5f6020820190508181035f8301526108558161081c565b9050919050565b5f8151905061086a8161064f565b92915050565b5f6020828403121561088557610884610617565b5b5f6108928482850161085c565b91505092915050565b5f6040820190506108ae5f8301856107bc565b6108bb60208301846107bc565b9392505050565b7f756e6973776170563243616c6c3a206d736753656e646572206572726f7200005f82015250565b5f6108f6601e836107e4565b9150610901826108c2565b602082019050919050565b5f6020820190508181035f830152610923816108ea565b9050919050565b5f6109348261061f565b9050919050565b6109448161092a565b811461094e575f80fd5b50565b5f8135905061095f8161093b565b92915050565b5f806040838503121561097b5761097a610617565b5b5f61098885828601610951565b925050602061099985828601610698565b9150509250929050565b7f756e6973776170563243616c6c3a20626f72726f7720746f6b656e20747970655f8201527f206572726f720000000000000000000000000000000000000000000000000000602082015250565b5f6109fd6026836107e4565b9150610a08826109a3565b604082019050919050565b5f6020820190508181035f830152610a2a816109f1565b9050919050565b7f4e487b71000000000000000000000000000000000000000000000000000000005f52601160045260245ffd5b5f610a6882610679565b9150610a7383610679565b9250828202610a8181610679565b91508282048414831517610a9857610a97610a31565b5b5092915050565b7f4e487b71000000000000000000000000000000000000000000000000000000005f52601260045260245ffd5b5f610ad682610679565b9150610ae183610679565b925082610af157610af0610a9f565b5b828204905092915050565b5f610b0682610679565b9150610b1183610679565b9250828201905080821115610b2957610b28610a31565b5b92915050565b610b3881610679565b82525050565b5f604082019050610b515f8301856107bc565b610b5e6020830184610b2f565b9392505050565b5f8115159050919050565b610b7981610b65565b8114610b83575f80fd5b50565b5f81519050610b9481610b70565b92915050565b5f60208284031215610baf57610bae610617565b5b5f610bbc84828501610b86565b91505092915050565b5f819050919050565b5f819050919050565b5f610bf1610bec610be784610bc5565b610bce565b610679565b9050919050565b610c0181610bd7565b82525050565b5f81519050919050565b5f82825260208201905092915050565b8281835e5f83830152505050565b5f601f19601f8301169050919050565b5f610c4982610c07565b610c538185610c11565b9350610c63818560208601610c21565b610c6c81610c2f565b840191505092915050565b5f608082019050610c8a5f830187610bf8565b610c976020830186610b2f565b610ca460408301856107bc565b8181036060830152610cb68184610c3f565b90509594505050505056fea2646970667358221220e6020ecc80ebfdb54c3e8cb9c16b417bfac08229a40723318a115862f3ac947164736f6c634300081a0033",
			"opcodes": "PUSH1 0xA0 PUSH1 0x40 MSTORE CALLVALUE DUP1 ISZERO PUSH2 0xF JUMPI PUSH0 DUP1 REVERT JUMPDEST POP PUSH20 0xF62C03E08ADA871A0BEB309762E260A7A6A880E6 PUSH20 0xFFFFFFFFFFFFFFFFFFFFFFFFFFFFFFFFFFFFFFFF AND PUSH4 0xE6A43905 PUSH20 0xFFF9976782D46CC05630D1F6EBAB18B2324D6B14 PUSH20 0xEE567FE1712FAF6149D80DA1E6934E354124CFE3 PUSH1 0x40 MLOAD DUP4 PUSH4 0xFFFFFFFF AND PUSH1 0xE0 SHL DUP2 MSTORE PUSH1 0x4 ADD PUSH2 0x87 SWAP3 SWAP2 SWAP1 PUSH2 0x13D JUMP JUMPDEST PUSH1 0x20 PUSH1 0x40 MLOAD DUP1 DUP4 SUB DUP2 DUP7 GAS STATICCALL ISZERO DUP1 ISZERO PUSH2 0xA2 JUMPI RETURNDATASIZE PUSH0 DUP1 RETURNDATACOPY RETURNDATASIZE PUSH0 REVERT JUMPDEST POP POP POP POP PUSH1 0x40 MLOAD RETURNDATASIZE PUSH1 0x1F NOT PUSH1 0x1F DUP3 ADD AND DUP3 ADD DUP1 PUSH1 0x40 MSTORE POP DUP2 ADD SWAP1 PUSH2 0xC6 SWAP2 SWAP1 PUSH2 0x192 JUMP JUMPDEST PUSH20 0xFFFFFFFFFFFFFFFFFFFFFFFFFFFFFFFFFFFFFFFF AND PUSH1 0x80 DUP2 PUSH20 0xFFFFFFFFFFFFFFFFFFFFFFFFFFFFFFFFFFFFFFFF AND DUP2 MSTORE POP POP PUSH2 0x1BD JUMP JUMPDEST PUSH0 PUSH20 0xFFFFFFFFFFFFFFFFFFFFFFFFFFFFFFFFFFFFFFFF DUP3 AND SWAP1 POP SWAP2 SWAP1 POP JUMP JUMPDEST PUSH0 PUSH2 0x127 DUP3 PUSH2 0xFE JUMP JUMPDEST SWAP1 POP SWAP2 SWAP1 POP JUMP JUMPDEST PUSH2 0x137 DUP2 PUSH2 0x11D JUMP JUMPDEST DUP3 MSTORE POP POP JUMP JUMPDEST PUSH0 PUSH1 0x40 DUP3 ADD SWAP1 POP PUSH2 0x150 PUSH0 DUP4 ADD DUP6 PUSH2 0x12E JUMP JUMPDEST PUSH2 0x15D PUSH1 0x20 DUP4 ADD DUP5 PUSH2 0x12E JUMP JUMPDEST SWAP4 SWAP3 POP POP POP JUMP JUMPDEST PUSH0 DUP1 REVERT JUMPDEST PUSH2 0x171 DUP2 PUSH2 0x11D JUMP JUMPDEST DUP2 EQ PUSH2 0x17B JUMPI PUSH0 DUP1 REVERT JUMPDEST POP JUMP JUMPDEST PUSH0 DUP2 MLOAD SWAP1 POP PUSH2 0x18C DUP2 PUSH2 0x168 JUMP JUMPDEST SWAP3 SWAP2 POP POP JUMP JUMPDEST PUSH0 PUSH1 0x20 DUP3 DUP5 SUB SLT ISZERO PUSH2 0x1A7 JUMPI PUSH2 0x1A6 PUSH2 0x164 JUMP JUMPDEST JUMPDEST PUSH0 PUSH2 0x1B4 DUP5 DUP3 DUP6 ADD PUSH2 0x17E JUMP JUMPDEST SWAP2 POP POP SWAP3 SWAP2 POP POP JUMP JUMPDEST PUSH1 0x80 MLOAD PUSH2 0xCF7 PUSH2 0x1DC PUSH0 CODECOPY PUSH0 DUP2 DUP2 PUSH2 0x462 ADD MSTORE PUSH2 0x529 ADD MSTORE PUSH2 0xCF7 PUSH0 RETURN INVALID PUSH1 0x80 PUSH1 0x40 MSTORE CALLVALUE DUP1 ISZERO PUSH2 0xF JUMPI PUSH0 DUP1 REVERT JUMPDEST POP PUSH1 0x4 CALLDATASIZE LT PUSH2 0x60 JUMPI PUSH0 CALLDATALOAD PUSH1 0xE0 SHR DUP1 PUSH4 0x10D1E85C EQ PUSH2 0x64 JUMPI DUP1 PUSH4 0x65B6C4F0 EQ PUSH2 0x80 JUMPI DUP1 PUSH4 0x97AF41D0 EQ PUSH2 0x9C JUMPI DUP1 PUSH4 0x99D8FAE3 EQ PUSH2 0xBA JUMPI DUP1 PUSH4 0xAD5C4648 EQ PUSH2 0xD8 JUMPI DUP1 PUSH4 0xE0BAB4C4 EQ PUSH2 0xF6 JUMPI JUMPDEST PUSH0 DUP1 REVERT JUMPDEST PUSH2 0x7E PUSH1 0x4 DUP1 CALLDATASIZE SUB DUP2 ADD SWAP1 PUSH2 0x79 SWAP2 SWAP1 PUSH2 0x70D JUMP JUMPDEST PUSH2 0x114 JUMP JUMPDEST STOP JUMPDEST PUSH2 0x9A PUSH1 0x4 DUP1 CALLDATASIZE SUB DUP2 ADD SWAP1 PUSH2 0x95 SWAP2 SWAP1 PUSH2 0x791 JUMP JUMPDEST PUSH2 0x4EE JUMP JUMPDEST STOP JUMPDEST PUSH2 0xA4 PUSH2 0x5B7 JUMP JUMPDEST PUSH1 0x40 MLOAD PUSH2 0xB1 SWAP2 SWAP1 PUSH2 0x7CB JUMP JUMPDEST PUSH1 0x40 MLOAD DUP1 SWAP2 SUB SWAP1 RETURN JUMPDEST PUSH2 0xC2 PUSH2 0x5CF JUMP JUMPDEST PUSH1 0x40 MLOAD PUSH2 0xCF SWAP2 SWAP1 PUSH2 0x7CB JUMP JUMPDEST PUSH1 0x40 MLOAD DUP1 SWAP2 SUB SWAP1 RETURN JUMPDEST PUSH2 0xE0 PUSH2 0x5E7 JUMP JUMPDEST PUSH1 0x40 MLOAD PUSH2 0xED SWAP2 SWAP1 PUSH2 0x7CB JUMP JUMPDEST PUSH1 0x40 MLOAD DUP1 SWAP2 SUB SWAP1 RETURN JUMPDEST PUSH2 0xFE PUSH2 0x5FF JUMP JUMPDEST PUSH1 0x40 MLOAD PUSH2 0x10B SWAP2 SWAP1 PUSH2 0x7CB JUMP JUMPDEST PUSH1 0x40 MLOAD DUP1 SWAP2 SUB SWAP1 RETURN JUMPDEST ADDRESS PUSH20 0xFFFFFFFFFFFFFFFFFFFFFFFFFFFFFFFFFFFFFFFF AND DUP6 PUSH20 0xFFFFFFFFFFFFFFFFFFFFFFFFFFFFFFFFFFFFFFFF AND EQ PUSH2 0x182 JUMPI PUSH1 0x40 MLOAD PUSH32 0x8C379A000000000000000000000000000000000000000000000000000000000 DUP2 MSTORE PUSH1 0x4 ADD PUSH2 0x179 SWAP1 PUSH2 0x83E JUMP JUMPDEST PUSH1 0x40 MLOAD DUP1 SWAP2 SUB SWAP1 REVERT JUMPDEST PUSH0 CALLER SWAP1 POP PUSH0 DUP2 PUSH20 0xFFFFFFFFFFFFFFFFFFFFFFFFFFFFFFFFFFFFFFFF AND PUSH4 0xDFE1681 PUSH1 0x40 MLOAD DUP2 PUSH4 0xFFFFFFFF AND PUSH1 0xE0 SHL DUP2 MSTORE PUSH1 0x4 ADD PUSH1 0x20 PUSH1 0x40 MLOAD DUP1 DUP4 SUB DUP2 DUP7 GAS STATICCALL ISZERO DUP1 ISZERO PUSH2 0x1D0 JUMPI RETURNDATASIZE PUSH0 DUP1 RETURNDATACOPY RETURNDATASIZE PUSH0 REVERT JUMPDEST POP POP POP POP PUSH1 0x40 MLOAD RETURNDATASIZE PUSH1 0x1F NOT PUSH1 0x1F DUP3 ADD AND DUP3 ADD DUP1 PUSH1 0x40 MSTORE POP DUP2 ADD SWAP1 PUSH2 0x1F4 SWAP2 SWAP1 PUSH2 0x870 JUMP JUMPDEST SWAP1 POP PUSH0 DUP3 PUSH20 0xFFFFFFFFFFFFFFFFFFFFFFFFFFFFFFFFFFFFFFFF AND PUSH4 0xD21220A7 PUSH1 0x40 MLOAD DUP2 PUSH4 0xFFFFFFFF AND PUSH1 0xE0 SHL DUP2 MSTORE PUSH1 0x4 ADD PUSH1 0x20 PUSH1 0x40 MLOAD DUP1 DUP4 SUB DUP2 DUP7 GAS STATICCALL ISZERO DUP1 ISZERO PUSH2 0x240 JUMPI RETURNDATASIZE PUSH0 DUP1 RETURNDATACOPY RETURNDATASIZE PUSH0 REVERT JUMPDEST POP POP POP POP PUSH1 0x40 MLOAD RETURNDATASIZE PUSH1 0x1F NOT PUSH1 0x1F DUP3 ADD AND DUP3 ADD DUP1 PUSH1 0x40 MSTORE POP DUP2 ADD SWAP1 PUSH2 0x264 SWAP2 SWAP1 PUSH2 0x870 JUMP JUMPDEST SWAP1 POP DUP3 PUSH20 0xFFFFFFFFFFFFFFFFFFFFFFFFFFFFFFFFFFFFFFFF AND PUSH20 0xF62C03E08ADA871A0BEB309762E260A7A6A880E6 PUSH20 0xFFFFFFFFFFFFFFFFFFFFFFFFFFFFFFFFFFFFFFFF AND PUSH4 0xE6A43905 DUP5 DUP5 PUSH1 0x40 MLOAD DUP4 PUSH4 0xFFFFFFFF AND PUSH1 0xE0 SHL DUP2 MSTORE PUSH1 0x4 ADD PUSH2 0x2CC SWAP3 SWAP2 SWAP1 PUSH2 0x89B JUMP JUMPDEST PUSH1 0x20 PUSH1 0x40 MLOAD DUP1 DUP4 SUB DUP2 DUP7 GAS STATICCALL ISZERO DUP1 ISZERO PUSH2 0x2E7 JUMPI RETURNDATASIZE PUSH0 DUP1 RETURNDATACOPY RETURNDATASIZE PUSH0 REVERT JUMPDEST POP POP POP POP PUSH1 0x40 MLOAD RETURNDATASIZE PUSH1 0x1F NOT PUSH1 0x1F DUP3 ADD AND DUP3 ADD DUP1 PUSH1 0x40 MSTORE POP DUP2 ADD SWAP1 PUSH2 0x30B SWAP2 SWAP1 PUSH2 0x870 JUMP JUMPDEST PUSH20 0xFFFFFFFFFFFFFFFFFFFFFFFFFFFFFFFFFFFFFFFF AND EQ PUSH2 0x361 JUMPI PUSH1 0x40 MLOAD PUSH32 0x8C379A000000000000000000000000000000000000000000000000000000000 DUP2 MSTORE PUSH1 0x4 ADD PUSH2 0x358 SWAP1 PUSH2 0x90C JUMP JUMPDEST PUSH1 0x40 MLOAD DUP1 SWAP2 SUB SWAP1 REVERT JUMPDEST PUSH0 DUP1 DUP7 DUP7 DUP2 ADD SWAP1 PUSH2 0x372 SWAP2 SWAP1 PUSH2 0x965 JUMP JUMPDEST SWAP2 POP SWAP2 POP PUSH20 0xFFF9976782D46CC05630D1F6EBAB18B2324D6B14 PUSH20 0xFFFFFFFFFFFFFFFFFFFFFFFFFFFFFFFFFFFFFFFF AND DUP3 PUSH20 0xFFFFFFFFFFFFFFFFFFFFFFFFFFFFFFFFFFFFFFFF AND EQ PUSH2 0x3F8 JUMPI PUSH1 0x40 MLOAD PUSH32 0x8C379A000000000000000000000000000000000000000000000000000000000 DUP2 MSTORE PUSH1 0x4 ADD PUSH2 0x3EF SWAP1 PUSH2 0xA13 JUMP JUMPDEST PUSH1 0x40 MLOAD DUP1 SWAP2 SUB SWAP1 REVERT JUMPDEST PUSH0 PUSH1 0x1 PUSH2 0x3E5 PUSH1 0x3 DUP12 PUSH2 0x40B SWAP2 SWAP1 PUSH2 0xA5E JUMP JUMPDEST PUSH2 0x415 SWAP2 SWAP1 PUSH2 0xACC JUMP JUMPDEST PUSH2 0x41F SWAP2 SWAP1 PUSH2 0xAFC JUMP JUMPDEST SWAP1 POP PUSH0 DUP2 DUP11 PUSH2 0x42E SWAP2 SWAP1 PUSH2 0xAFC JUMP JUMPDEST SWAP1 POP PUSH20 0xFFF9976782D46CC05630D1F6EBAB18B2324D6B14 PUSH20 0xFFFFFFFFFFFFFFFFFFFFFFFFFFFFFFFFFFFFFFFF AND PUSH4 0xA9059CBB PUSH32 0x0 DUP4 PUSH1 0x40 MLOAD DUP4 PUSH4 0xFFFFFFFF AND PUSH1 0xE0 SHL DUP2 MSTORE PUSH1 0x4 ADD PUSH2 0x49F SWAP3 SWAP2 SWAP1 PUSH2 0xB3E JUMP JUMPDEST PUSH1 0x20 PUSH1 0x40 MLOAD DUP1 DUP4 SUB DUP2 PUSH0 DUP8 GAS CALL ISZERO DUP1 ISZERO PUSH2 0x4BB JUMPI RETURNDATASIZE PUSH0 DUP1 RETURNDATACOPY RETURNDATASIZE PUSH0 REVERT JUMPDEST POP POP POP POP PUSH1 0x40 MLOAD RETURNDATASIZE PUSH1 0x1F NOT PUSH1 0x1F DUP3 ADD AND DUP3 ADD DUP1 PUSH1 0x40 MSTORE POP DUP2 ADD SWAP1 PUSH2 0x4DF SWAP2 SWAP1 PUSH2 0xB9A JUMP JUMPDEST POP POP POP POP POP POP POP POP POP POP POP POP POP JUMP JUMPDEST PUSH0 PUSH20 0xFFF9976782D46CC05630D1F6EBAB18B2324D6B14 DUP3 PUSH1 0x40 MLOAD PUSH1 0x20 ADD PUSH2 0x516 SWAP3 SWAP2 SWAP1 PUSH2 0xB3E JUMP JUMPDEST PUSH1 0x40 MLOAD PUSH1 0x20 DUP2 DUP4 SUB SUB DUP2 MSTORE SWAP1 PUSH1 0x40 MSTORE SWAP1 POP PUSH32 0x0 PUSH20 0xFFFFFFFFFFFFFFFFFFFFFFFFFFFFFFFFFFFFFFFF AND PUSH4 0x22C0D9F PUSH0 DUP5 ADDRESS DUP6 PUSH1 0x40 MLOAD DUP6 PUSH4 0xFFFFFFFF AND PUSH1 0xE0 SHL DUP2 MSTORE PUSH1 0x4 ADD PUSH2 0x586 SWAP5 SWAP4 SWAP3 SWAP2 SWAP1 PUSH2 0xC77 JUMP JUMPDEST PUSH0 PUSH1 0x40 MLOAD DUP1 DUP4 SUB DUP2 PUSH0 DUP8 DUP1 EXTCODESIZE ISZERO DUP1 ISZERO PUSH2 0x59D JUMPI PUSH0 DUP1 REVERT JUMPDEST POP GAS CALL ISZERO DUP1 ISZERO PUSH2 0x5AF JUMPI RETURNDATASIZE PUSH0 DUP1 RETURNDATACOPY RETURNDATASIZE PUSH0 REVERT JUMPDEST POP POP POP POP POP POP JUMP JUMPDEST PUSH20 0xEE567FE1712FAF6149D80DA1E6934E354124CFE3 DUP2 JUMP JUMPDEST PUSH20 0xF62C03E08ADA871A0BEB309762E260A7A6A880E6 DUP2 JUMP JUMPDEST PUSH20 0xFFF9976782D46CC05630D1F6EBAB18B2324D6B14 DUP2 JUMP JUMPDEST PUSH20 0xEE567FE1712FAF6149D80DA1E6934E354124CFE3 DUP2 JUMP JUMPDEST PUSH0 DUP1 REVERT JUMPDEST PUSH0 DUP1 REVERT JUMPDEST PUSH0 PUSH20 0xFFFFFFFFFFFFFFFFFFFFFFFFFFFFFFFFFFFFFFFF DUP3 AND SWAP1 POP SWAP2 SWAP1 POP JUMP JUMPDEST PUSH0 PUSH2 0x648 DUP3 PUSH2 0x61F JUMP JUMPDEST SWAP1 POP SWAP2 SWAP1 POP JUMP JUMPDEST PUSH2 0x658 DUP2 PUSH2 0x63E JUMP JUMPDEST DUP2 EQ PUSH2 0x662 JUMPI PUSH0 DUP1 REVERT JUMPDEST POP JUMP JUMPDEST PUSH0 DUP2 CALLDATALOAD SWAP1 POP PUSH2 0x673 DUP2 PUSH2 0x64F JUMP JUMPDEST SWAP3 SWAP2 POP POP JUMP JUMPDEST PUSH0 DUP2 SWAP1 POP SWAP2 SWAP1 POP JUMP JUMPDEST PUSH2 0x68B DUP2 PUSH2 0x679 JUMP JUMPDEST DUP2 EQ PUSH2 0x695 JUMPI PUSH0 DUP1 REVERT JUMPDEST POP JUMP JUMPDEST PUSH0 DUP2 CALLDATALOAD SWAP1 POP PUSH2 0x6A6 DUP2 PUSH2 0x682 JUMP JUMPDEST SWAP3 SWAP2 POP POP JUMP JUMPDEST PUSH0 DUP1 REVERT JUMPDEST PUSH0 DUP1 REVERT JUMPDEST PUSH0 DUP1 REVERT JUMPDEST PUSH0 DUP1 DUP4 PUSH1 0x1F DUP5 ADD SLT PUSH2 0x6CD JUMPI PUSH2 0x6CC PUSH2 0x6AC JUMP JUMPDEST JUMPDEST DUP3 CALLDATALOAD SWAP1 POP PUSH8 0xFFFFFFFFFFFFFFFF DUP2 GT ISZERO PUSH2 0x6EA JUMPI PUSH2 0x6E9 PUSH2 0x6B0 JUMP JUMPDEST JUMPDEST PUSH1 0x20 DUP4 ADD SWAP2 POP DUP4 PUSH1 0x1 DUP3 MUL DUP4 ADD GT ISZERO PUSH2 0x706 JUMPI PUSH2 0x705 PUSH2 0x6B4 JUMP JUMPDEST JUMPDEST SWAP3 POP SWAP3 SWAP1 POP JUMP JUMPDEST PUSH0 DUP1 PUSH0 DUP1 PUSH0 PUSH1 0x80 DUP7 DUP9 SUB SLT ISZERO PUSH2 0x726 JUMPI PUSH2 0x725 PUSH2 0x617 JUMP JUMPDEST JUMPDEST PUSH0 PUSH2 0x733 DUP9 DUP3 DUP10 ADD PUSH2 0x665 JUMP JUMPDEST SWAP6 POP POP PUSH1 0x20 PUSH2 0x744 DUP9 DUP3 DUP10 ADD PUSH2 0x698 JUMP JUMPDEST SWAP5 POP POP PUSH1 0x40 PUSH2 0x755 DUP9 DUP3 DUP10 ADD PUSH2 0x698 JUMP JUMPDEST SWAP4 POP POP PUSH1 0x60 DUP7 ADD CALLDATALOAD PUSH8 0xFFFFFFFFFFFFFFFF DUP2 GT ISZERO PUSH2 0x776 JUMPI PUSH2 0x775 PUSH2 0x61B JUMP JUMPDEST JUMPDEST PUSH2 0x782 DUP9 DUP3 DUP10 ADD PUSH2 0x6B8 JUMP JUMPDEST SWAP3 POP SWAP3 POP POP SWAP3 SWAP6 POP SWAP3 SWAP6 SWAP1 SWAP4 POP JUMP JUMPDEST PUSH0 PUSH1 0x20 DUP3 DUP5 SUB SLT ISZERO PUSH2 0x7A6 JUMPI PUSH2 0x7A5 PUSH2 0x617 JUMP JUMPDEST JUMPDEST PUSH0 PUSH2 0x7B3 DUP5 DUP3 DUP6 ADD PUSH2 0x698 JUMP JUMPDEST SWAP2 POP POP SWAP3 SWAP2 POP POP JUMP JUMPDEST PUSH2 0x7C5 DUP2 PUSH2 0x63E JUMP JUMPDEST DUP3 MSTORE POP POP JUMP JUMPDEST PUSH0 PUSH1 0x20 DUP3 ADD SWAP1 POP PUSH2 0x7DE PUSH0 DUP4 ADD DUP5 PUSH2 0x7BC JUMP JUMPDEST SWAP3 SWAP2 POP POP JUMP JUMPDEST PUSH0 DUP3 DUP3 MSTORE PUSH1 0x20 DUP3 ADD SWAP1 POP SWAP3 SWAP2 POP POP JUMP JUMPDEST PUSH32 0x756E6973776170563243616C6C3A2073656E646572206572726F720000000000 PUSH0 DUP3 ADD MSTORE POP JUMP JUMPDEST PUSH0 PUSH2 0x828 PUSH1 0x1B DUP4 PUSH2 0x7E4 JUMP JUMPDEST SWAP2 POP PUSH2 0x833 DUP3 PUSH2 0x7F4 JUMP JUMPDEST PUSH1 0x20 DUP3 ADD SWAP1 POP SWAP2 SWAP1 POP JUMP JUMPDEST PUSH0 PUSH1 0x20 DUP3 ADD SWAP1 POP DUP2 DUP2 SUB PUSH0 DUP4 ADD MSTORE PUSH2 0x855 DUP2 PUSH2 0x81C JUMP JUMPDEST SWAP1 POP SWAP2 SWAP1 POP JUMP JUMPDEST PUSH0 DUP2 MLOAD SWAP1 POP PUSH2 0x86A DUP2 PUSH2 0x64F JUMP JUMPDEST SWAP3 SWAP2 POP POP JUMP JUMPDEST PUSH0 PUSH1 0x20 DUP3 DUP5 SUB SLT ISZERO PUSH2 0x885 JUMPI PUSH2 0x884 PUSH2 0x617 JUMP JUMPDEST JUMPDEST PUSH0 PUSH2 0x892 DUP5 DUP3 DUP6 ADD PUSH2 0x85C JUMP JUMPDEST SWAP2 POP POP SWAP3 SWAP2 POP POP JUMP JUMPDEST PUSH0 PUSH1 0x40 DUP3 ADD SWAP1 POP PUSH2 0x8AE PUSH0 DUP4 ADD DUP6 PUSH2 0x7BC JUMP JUMPDEST PUSH2 0x8BB PUSH1 0x20 DUP4 ADD DUP5 PUSH2 0x7BC JUMP JUMPDEST SWAP4 SWAP3 POP POP POP JUMP JUMPDEST PUSH32 0x756E6973776170563243616C6C3A206D736753656E646572206572726F720000 PUSH0 DUP3 ADD MSTORE POP JUMP JUMPDEST PUSH0 PUSH2 0x8F6 PUSH1 0x1E DUP4 PUSH2 0x7E4 JUMP JUMPDEST SWAP2 POP PUSH2 0x901 DUP3 PUSH2 0x8C2 JUMP JUMPDEST PUSH1 0x20 DUP3 ADD SWAP1 POP SWAP2 SWAP1 POP JUMP JUMPDEST PUSH0 PUSH1 0x20 DUP3 ADD SWAP1 POP DUP2 DUP2 SUB PUSH0 DUP4 ADD MSTORE PUSH2 0x923 DUP2 PUSH2 0x8EA JUMP JUMPDEST SWAP1 POP SWAP2 SWAP1 POP JUMP JUMPDEST PUSH0 PUSH2 0x934 DUP3 PUSH2 0x61F JUMP JUMPDEST SWAP1 POP SWAP2 SWAP1 POP JUMP JUMPDEST PUSH2 0x944 DUP2 PUSH2 0x92A JUMP JUMPDEST DUP2 EQ PUSH2 0x94E JUMPI PUSH0 DUP1 REVERT JUMPDEST POP JUMP JUMPDEST PUSH0 DUP2 CALLDATALOAD SWAP1 POP PUSH2 0x95F DUP2 PUSH2 0x93B JUMP JUMPDEST SWAP3 SWAP2 POP POP JUMP JUMPDEST PUSH0 DUP1 PUSH1 0x40 DUP4 DUP6 SUB SLT ISZERO PUSH2 0x97B JUMPI PUSH2 0x97A PUSH2 0x617 JUMP JUMPDEST JUMPDEST PUSH0 PUSH2 0x988 DUP6 DUP3 DUP7 ADD PUSH2 0x951 JUMP JUMPDEST SWAP3 POP POP PUSH1 0x20 PUSH2 0x999 DUP6 DUP3 DUP7 ADD PUSH2 0x698 JUMP JUMPDEST SWAP2 POP POP SWAP3 POP SWAP3 SWAP1 POP JUMP JUMPDEST PUSH32 0x756E6973776170563243616C6C3A20626F72726F7720746F6B656E2074797065 PUSH0 DUP3 ADD MSTORE PUSH32 0x206572726F720000000000000000000000000000000000000000000000000000 PUSH1 0x20 DUP3 ADD MSTORE POP JUMP JUMPDEST PUSH0 PUSH2 0x9FD PUSH1 0x26 DUP4 PUSH2 0x7E4 JUMP JUMPDEST SWAP2 POP PUSH2 0xA08 DUP3 PUSH2 0x9A3 JUMP JUMPDEST PUSH1 0x40 DUP3 ADD SWAP1 POP SWAP2 SWAP1 POP JUMP JUMPDEST PUSH0 PUSH1 0x20 DUP3 ADD SWAP1 POP DUP2 DUP2 SUB PUSH0 DUP4 ADD MSTORE PUSH2 0xA2A DUP2 PUSH2 0x9F1 JUMP JUMPDEST SWAP1 POP SWAP2 SWAP1 POP JUMP JUMPDEST PUSH32 0x4E487B7100000000000000000000000000000000000000000000000000000000 PUSH0 MSTORE PUSH1 0x11 PUSH1 0x4 MSTORE PUSH1 0x24 PUSH0 REVERT JUMPDEST PUSH0 PUSH2 0xA68 DUP3 PUSH2 0x679 JUMP JUMPDEST SWAP2 POP PUSH2 0xA73 DUP4 PUSH2 0x679 JUMP JUMPDEST SWAP3 POP DUP3 DUP3 MUL PUSH2 0xA81 DUP2 PUSH2 0x679 JUMP JUMPDEST SWAP2 POP DUP3 DUP3 DIV DUP5 EQ DUP4 ISZERO OR PUSH2 0xA98 JUMPI PUSH2 0xA97 PUSH2 0xA31 JUMP JUMPDEST JUMPDEST POP SWAP3 SWAP2 POP POP JUMP JUMPDEST PUSH32 0x4E487B7100000000000000000000000000000000000000000000000000000000 PUSH0 MSTORE PUSH1 0x12 PUSH1 0x4 MSTORE PUSH1 0x24 PUSH0 REVERT JUMPDEST PUSH0 PUSH2 0xAD6 DUP3 PUSH2 0x679 JUMP JUMPDEST SWAP2 POP PUSH2 0xAE1 DUP4 PUSH2 0x679 JUMP JUMPDEST SWAP3 POP DUP3 PUSH2 0xAF1 JUMPI PUSH2 0xAF0 PUSH2 0xA9F JUMP JUMPDEST JUMPDEST DUP3 DUP3 DIV SWAP1 POP SWAP3 SWAP2 POP POP JUMP JUMPDEST PUSH0 PUSH2 0xB06 DUP3 PUSH2 0x679 JUMP JUMPDEST SWAP2 POP PUSH2 0xB11 DUP4 PUSH2 0x679 JUMP JUMPDEST SWAP3 POP DUP3 DUP3 ADD SWAP1 POP DUP1 DUP3 GT ISZERO PUSH2 0xB29 JUMPI PUSH2 0xB28 PUSH2 0xA31 JUMP JUMPDEST JUMPDEST SWAP3 SWAP2 POP POP JUMP JUMPDEST PUSH2 0xB38 DUP2 PUSH2 0x679 JUMP JUMPDEST DUP3 MSTORE POP POP JUMP JUMPDEST PUSH0 PUSH1 0x40 DUP3 ADD SWAP1 POP PUSH2 0xB51 PUSH0 DUP4 ADD DUP6 PUSH2 0x7BC JUMP JUMPDEST PUSH2 0xB5E PUSH1 0x20 DUP4 ADD DUP5 PUSH2 0xB2F JUMP JUMPDEST SWAP4 SWAP3 POP POP POP JUMP JUMPDEST PUSH0 DUP2 ISZERO ISZERO SWAP1 POP SWAP2 SWAP1 POP JUMP JUMPDEST PUSH2 0xB79 DUP2 PUSH2 0xB65 JUMP JUMPDEST DUP2 EQ PUSH2 0xB83 JUMPI PUSH0 DUP1 REVERT JUMPDEST POP JUMP JUMPDEST PUSH0 DUP2 MLOAD SWAP1 POP PUSH2 0xB94 DUP2 PUSH2 0xB70 JUMP JUMPDEST SWAP3 SWAP2 POP POP JUMP JUMPDEST PUSH0 PUSH1 0x20 DUP3 DUP5 SUB SLT ISZERO PUSH2 0xBAF JUMPI PUSH2 0xBAE PUSH2 0x617 JUMP JUMPDEST JUMPDEST PUSH0 PUSH2 0xBBC DUP5 DUP3 DUP6 ADD PUSH2 0xB86 JUMP JUMPDEST SWAP2 POP POP SWAP3 SWAP2 POP POP JUMP JUMPDEST PUSH0 DUP2 SWAP1 POP SWAP2 SWAP1 POP JUMP JUMPDEST PUSH0 DUP2 SWAP1 POP SWAP2 SWAP1 POP JUMP JUMPDEST PUSH0 PUSH2 0xBF1 PUSH2 0xBEC PUSH2 0xBE7 DUP5 PUSH2 0xBC5 JUMP JUMPDEST PUSH2 0xBCE JUMP JUMPDEST PUSH2 0x679 JUMP JUMPDEST SWAP1 POP SWAP2 SWAP1 POP JUMP JUMPDEST PUSH2 0xC01 DUP2 PUSH2 0xBD7 JUMP JUMPDEST DUP3 MSTORE POP POP JUMP JUMPDEST PUSH0 DUP2 MLOAD SWAP1 POP SWAP2 SWAP1 POP JUMP JUMPDEST PUSH0 DUP3 DUP3 MSTORE PUSH1 0x20 DUP3 ADD SWAP1 POP SWAP3 SWAP2 POP POP JUMP JUMPDEST DUP3 DUP2 DUP4 MCOPY PUSH0 DUP4 DUP4 ADD MSTORE POP POP POP JUMP JUMPDEST PUSH0 PUSH1 0x1F NOT PUSH1 0x1F DUP4 ADD AND SWAP1 POP SWAP2 SWAP1 POP JUMP JUMPDEST PUSH0 PUSH2 0xC49 DUP3 PUSH2 0xC07 JUMP JUMPDEST PUSH2 0xC53 DUP2 DUP6 PUSH2 0xC11 JUMP JUMPDEST SWAP4 POP PUSH2 0xC63 DUP2 DUP6 PUSH1 0x20 DUP7 ADD PUSH2 0xC21 JUMP JUMPDEST PUSH2 0xC6C DUP2 PUSH2 0xC2F JUMP JUMPDEST DUP5 ADD SWAP2 POP POP SWAP3 SWAP2 POP POP JUMP JUMPDEST PUSH0 PUSH1 0x80 DUP3 ADD SWAP1 POP PUSH2 0xC8A PUSH0 DUP4 ADD DUP8 PUSH2 0xBF8 JUMP JUMPDEST PUSH2 0xC97 PUSH1 0x20 DUP4 ADD DUP7 PUSH2 0xB2F JUMP JUMPDEST PUSH2 0xCA4 PUSH1 0x40 DUP4 ADD DUP6 PUSH2 0x7BC JUMP JUMPDEST DUP2 DUP2 SUB PUSH1 0x60 DUP4 ADD MSTORE PUSH2 0xCB6 DUP2 DUP5 PUSH2 0xC3F JUMP JUMPDEST SWAP1 POP SWAP6 SWAP5 POP POP POP POP POP JUMP INVALID LOG2 PUSH5 0x6970667358 0x22 SLT KECCAK256 0xE6 MUL 0xE 0xCC DUP1 0xEB REVERT 0xB5 0x4C RETURNDATACOPY DUP13 0xB9 0xC1 PUSH12 0x417BFAC08229A40723318A11 PC PUSH3 0xF3AC94 PUSH18 0x64736F6C634300081A003300000000000000 "
		},
		"gasEstimates": {
			"creation": {
				"codeDepositCost": "663800",
				"executionCost": "infinite",
				"totalCost": "infinite"
			},
			"external": {
				"DAI()": "461",
				"UNISWAP_V2_FACTORY()": "417",
				"UNISWAP_V2_ROUTER02()": "395",
				"WETH()": "439",
				"flashloan(uint256)": "infinite",
				"uniswapV2Call(address,uint256,uint256,bytes)": "infinite"
			}
		},
		"methodIdentifiers": {
			"DAI()": "e0bab4c4",
			"UNISWAP_V2_FACTORY()": "99d8fae3",
			"UNISWAP_V2_ROUTER02()": "97af41d0",
			"WETH()": "ad5c4648",
			"flashloan(uint256)": "65b6c4f0",
			"uniswapV2Call(address,uint256,uint256,bytes)": "10d1e85c"
		}
	},
	"abi": [
		{
			"inputs": [],
			"stateMutability": "nonpayable",
			"type": "constructor"
		},
		{
			"inputs": [],
			"name": "DAI",
			"outputs": [
				{
					"internalType": "address",
					"name": "",
					"type": "address"
				}
			],
			"stateMutability": "view",
			"type": "function"
		},
		{
			"inputs": [],
			"name": "UNISWAP_V2_FACTORY",
			"outputs": [
				{
					"internalType": "address",
					"name": "",
					"type": "address"
				}
			],
			"stateMutability": "view",
			"type": "function"
		},
		{
			"inputs": [],
			"name": "UNISWAP_V2_ROUTER02",
			"outputs": [
				{
					"internalType": "address",
					"name": "",
					"type": "address"
				}
			],
			"stateMutability": "view",
			"type": "function"
		},
		{
			"inputs": [],
			"name": "WETH",
			"outputs": [
				{
					"internalType": "address",
					"name": "",
					"type": "address"
				}
			],
			"stateMutability": "view",
			"type": "function"
		},
		{
			"inputs": [
				{
					"internalType": "uint256",
					"name": "wethAmount",
					"type": "uint256"
				}
			],
			"name": "flashloan",
			"outputs": [],
			"stateMutability": "nonpayable",
			"type": "function"
		},
		{
			"inputs": [
				{
					"internalType": "address",
					"name": "sender",
					"type": "address"
				},
				{
					"internalType": "uint256",
					"name": "amount0",
					"type": "uint256"
				},
				{
					"internalType": "uint256",
					"name": "amount1",
					"type": "uint256"
				},
				{
					"internalType": "bytes",
					"name": "data",
					"type": "bytes"
				}
			],
			"name": "uniswapV2Call",
			"outputs": [],
			"stateMutability": "nonpayable",
			"type": "function"
		}
	]
}