{
	"data": {
		"bytecode": {
			"linkReferences": {},
			"object": "6080604052348015600e575f80fd5b506121ae8061001c5f395ff3fe608060405234801561000f575f80fd5b5060043610610060575f3560e01c806306449dd514610064578063508e1e44146100945780636eb35eab146100c4578063919d472f146100f457806398fcd0d314610124578063cef2c93914610154575b5f80fd5b61007e6004803603810190610079919061114a565b610186565b60405161008b91906114b7565b60405180910390f35b6100ae60048036038101906100a99190611501565b6107f5565b6040516100bb919061155a565b60405180910390f35b6100de60048036038101906100d9919061114a565b610850565b6040516100eb91906114b7565b60405180910390f35b61010e6004803603810190610109919061170f565b610982565b60405161011b9190611823565b60405180910390f35b61013e60048036038101906101399190611843565b610b22565b60405161014b91906118ed565b60405180910390f35b61016e6004803603810190610169919061190d565b610e8c565b60405161017d93929190611965565b60405180910390f35b60605f8490505f8484905090505f8167ffffffffffffffff8111156101ae576101ad611583565b5b6040519080825280602002602001820160405280156101e757816020015b6101d4610f8e565b8152602001906001900390816101cc5790505b5090505f5b828110156107e7575f8473ffffffffffffffffffffffffffffffffffffffff16631698ee828989858181106102245761022361199a565b5b9050606002015f01602081019061023b919061190d565b8a8a8681811061024e5761024d61199a565b5b9050606002016020016020810190610266919061190d565b8b8b878181106102795761027861199a565b5b905060600201604001602081019061029191906119ff565b6040518463ffffffff1660e01b81526004016102af93929190611a48565b602060405180830381865afa1580156102ca573d5f803e3d5ffd5b505050506040513d601f19601f820116820180604052508101906102ee9190611a91565b90505f73ffffffffffffffffffffffffffffffffffffffff168173ffffffffffffffffffffffffffffffffffffffff16146107d957808383815181106103375761033661199a565b5b60200260200101515f019073ffffffffffffffffffffffffffffffffffffffff16908173ffffffffffffffffffffffffffffffffffffffff16815250508073ffffffffffffffffffffffffffffffffffffffff16630dfe16816040518163ffffffff1660e01b8152600401602060405180830381865afa1580156103bd573d5f803e3d5ffd5b505050506040513d601f19601f820116820180604052508101906103e19190611a91565b8383815181106103f4576103f361199a565b5b60200260200101516020019073ffffffffffffffffffffffffffffffffffffffff16908173ffffffffffffffffffffffffffffffffffffffff16815250508282815181106104455761044461199a565b5b60200260200101516020015173ffffffffffffffffffffffffffffffffffffffff166370a08231826040518263ffffffff1660e01b81526004016104899190611abc565b602060405180830381865afa1580156104a4573d5f803e3d5ffd5b505050506040513d601f19601f820116820180604052508101906104c89190611ae9565b8383815181106104db576104da61199a565b5b602002602001015160400181815250508073ffffffffffffffffffffffffffffffffffffffff1663d21220a76040518163ffffffff1660e01b8152600401602060405180830381865afa158015610534573d5f803e3d5ffd5b505050506040513d601f19601f820116820180604052508101906105589190611a91565b83838151811061056b5761056a61199a565b5b60200260200101516060019073ffffffffffffffffffffffffffffffffffffffff16908173ffffffffffffffffffffffffffffffffffffffff16815250508282815181106105bc576105bb61199a565b5b60200260200101516060015173ffffffffffffffffffffffffffffffffffffffff166370a08231826040518263ffffffff1660e01b81526004016106009190611abc565b602060405180830381865afa15801561061b573d5f803e3d5ffd5b505050506040513d601f19601f8201168201806040525081019061063f9190611ae9565b8383815181106106525761065161199a565b5b602002602001015160800181815250508073ffffffffffffffffffffffffffffffffffffffff1663d0c93a7c6040518163ffffffff1660e01b8152600401602060405180830381865afa1580156106ab573d5f803e3d5ffd5b505050506040513d601f19601f820116820180604052508101906106cf9190611b28565b8383815181106106e2576106e161199a565b5b602002602001015160a0019060020b908160020b815250505f805f61070684610e8c565b925092509250828686815181106107205761071f61199a565b5b602002602001015160c0019073ffffffffffffffffffffffffffffffffffffffff16908173ffffffffffffffffffffffffffffffffffffffff1681525050818686815181106107725761077161199a565b5b602002602001015160e0019060020b908160020b815250508086868151811061079e5761079d61199a565b5b602002602001015161010001906fffffffffffffffffffffffffffffffff1690816fffffffffffffffffffffffffffffffff16815250505050505b5080806001019150506101ec565b508093505050509392505050565b5f8082846108039190611bad565b90505f8460020b12801561082557505f838561081f9190611c15565b60020b14155b1561083a576001816108379190611c45565b90505b5f60088260020b901d9050809250505092915050565b60605f8383905090505f8167ffffffffffffffff81111561087457610873611583565b5b6040519080825280602002602001820160405280156108ad57816020015b61089a610f8e565b8152602001906001900390816108925790505b5090506108bb868686610186565b90505f5b82811015610975575f8282815181106108db576108da61199a565b5b60200260200101515f015190505f73ffffffffffffffffffffffffffffffffffffffff168173ffffffffffffffffffffffffffffffffffffffff161461096757610943818484815181106109325761093161199a565b5b602002602001015160a00151610b22565b8383815181106109565761095561199a565b5b602002602001015161012001819052505b5080806001019150506108bf565b5080925050509392505050565b60605f805f90505b85518110156109f5575f8682815181106109a7576109a661199a565b5b602002602001015190505f5b6101008110156109e6575f816001901b8316146109d95783806109d590611c9f565b9450505b80806001019150506109b3565b5050808060010191505061098a565b505f8167ffffffffffffffff811115610a1157610a10611583565b5b604051908082528060200260200182016040528015610a3f5781602001602082028036833780820191505090505b5090505f805f90505b8751811015610b14575f888281518110610a6557610a6461199a565b5b602002602001015190505f8289610a7c9190611ce6565b60010b90505f5b610100811015610b04575f816001901b841614610af7575f898261010085610aab9190611d3f565b610ab59190611d7b565b610abf9190611d3f565b905080878780610ace90611c9f565b985081518110610ae157610ae061199a565b5b602002602001019060020b908160020b81525050505b8080600101915050610a83565b5050508080600101915050610a48565b508193505050509392505050565b60605f8390505f610b537ffffffffffffffffffffffffffffffffffffffffffffffffffffffffffff27618856107f5565b90505f610b63620d89e8866107f5565b90505f60018383610b749190611dd5565b610b7e9190611ce6565b61ffff1690505f8167ffffffffffffffff811115610b9f57610b9e611583565b5b604051908082528060200260200182016040528015610bcd5781602001602082028036833780820191505090505b5090505f8490505b8360010b8160010b13610ca0575f8582610bef9190611dd5565b61ffff1690508673ffffffffffffffffffffffffffffffffffffffff16635339c296836040518263ffffffff1660e01b8152600401610c2e919061155a565b602060405180830381865afa158015610c49573d5f803e3d5ffd5b505050506040513d601f19601f82011682018060405250810190610c6d9190611ae9565b838281518110610c8057610c7f61199a565b5b602002602001018181525050508080610c9890611e2e565b915050610bd5565b505f610cad82868a610982565b90505f815167ffffffffffffffff811115610ccb57610cca611583565b5b604051908082528060200260200182016040528015610d0457816020015b610cf1611048565b815260200190600190039081610ce95790505b5090505f5b8251811015610e7b575f808973ffffffffffffffffffffffffffffffffffffffff1663f30dba93868581518110610d4357610d4261199a565b5b60200260200101516040518263ffffffff1660e01b8152600401610d679190611e57565b61010060405180830381865afa158015610d83573d5f803e3d5ffd5b505050506040513d601f19601f82011682018060405250810190610da79190611f92565b50505050505091509150848381518110610dc457610dc361199a565b5b6020026020010151848481518110610ddf57610dde61199a565b5b60200260200101515f019060020b908160020b8152505081848481518110610e0a57610e0961199a565b5b6020026020010151602001906fffffffffffffffffffffffffffffffff1690816fffffffffffffffffffffffffffffffff168152505080848481518110610e5457610e5361199a565b5b602002602001015160400190600f0b9081600f0b8152505050508080600101915050610d09565b508097505050505050505092915050565b5f805f808490508073ffffffffffffffffffffffffffffffffffffffff16633850c7bd6040518163ffffffff1660e01b815260040160e060405180830381865afa158015610edc573d5f803e3d5ffd5b505050506040513d601f19601f82011682018060405250810190610f0091906120b0565b90919293509091925090915090505080945081955050508073ffffffffffffffffffffffffffffffffffffffff16631a6865026040518163ffffffff1660e01b8152600401602060405180830381865afa158015610f60573d5f803e3d5ffd5b505050506040513d601f19601f82011682018060405250810190610f84919061214d565b9150509193909250565b6040518061014001604052805f73ffffffffffffffffffffffffffffffffffffffff1681526020015f73ffffffffffffffffffffffffffffffffffffffff1681526020015f81526020015f73ffffffffffffffffffffffffffffffffffffffff1681526020015f81526020015f60020b81526020015f73ffffffffffffffffffffffffffffffffffffffff1681526020015f60020b81526020015f6fffffffffffffffffffffffffffffffff168152602001606081525090565b60405180606001604052805f60020b81526020015f6fffffffffffffffffffffffffffffffff1681526020015f600f0b81525090565b5f604051905090565b5f80fd5b5f80fd5b5f73ffffffffffffffffffffffffffffffffffffffff82169050919050565b5f6110b88261108f565b9050919050565b6110c8816110ae565b81146110d2575f80fd5b50565b5f813590506110e3816110bf565b92915050565b5f80fd5b5f80fd5b5f80fd5b5f8083601f84011261110a576111096110e9565b5b8235905067ffffffffffffffff811115611127576111266110ed565b5b602083019150836060820283011115611143576111426110f1565b5b9250929050565b5f805f6040848603121561116157611160611087565b5b5f61116e868287016110d5565b935050602084013567ffffffffffffffff81111561118f5761118e61108b565b5b61119b868287016110f5565b92509250509250925092565b5f81519050919050565b5f82825260208201905092915050565b5f819050602082019050919050565b6111d9816110ae565b82525050565b5f819050919050565b6111f1816111df565b82525050565b5f8160020b9050919050565b61120c816111f7565b82525050565b61121b8161108f565b82525050565b5f6fffffffffffffffffffffffffffffffff82169050919050565b61124581611221565b82525050565b5f81519050919050565b5f82825260208201905092915050565b5f819050602082019050919050565b5f81600f0b9050919050565b61128981611274565b82525050565b606082015f8201516112a35f850182611203565b5060208201516112b6602085018261123c565b5060408201516112c96040850182611280565b50505050565b5f6112da838361128f565b60608301905092915050565b5f602082019050919050565b5f6112fc8261124b565b6113068185611255565b935061131183611265565b805f5b8381101561134157815161132888826112cf565b9750611333836112e6565b925050600181019050611314565b5085935050505092915050565b5f61014083015f8301516113645f8601826111d0565b50602083015161137760208601826111d0565b50604083015161138a60408601826111e8565b50606083015161139d60608601826111d0565b5060808301516113b060808601826111e8565b5060a08301516113c360a0860182611203565b5060c08301516113d660c0860182611212565b5060e08301516113e960e0860182611203565b506101008301516113fe61010086018261123c565b5061012083015184820361012086015261141882826112f2565b9150508091505092915050565b5f611430838361134e565b905092915050565b5f602082019050919050565b5f61144e826111a7565b61145881856111b1565b93508360208202850161146a856111c1565b805f5b858110156114a557848403895281516114868582611425565b945061149183611438565b925060208a0199505060018101905061146d565b50829750879550505050505092915050565b5f6020820190508181035f8301526114cf8184611444565b905092915050565b6114e0816111f7565b81146114ea575f80fd5b50565b5f813590506114fb816114d7565b92915050565b5f806040838503121561151757611516611087565b5b5f611524858286016114ed565b9250506020611535858286016114ed565b9150509250929050565b5f8160010b9050919050565b6115548161153f565b82525050565b5f60208201905061156d5f83018461154b565b92915050565b5f601f19601f8301169050919050565b7f4e487b71000000000000000000000000000000000000000000000000000000005f52604160045260245ffd5b6115b982611573565b810181811067ffffffffffffffff821117156115d8576115d7611583565b5b80604052505050565b5f6115ea61107e565b90506115f682826115b0565b919050565b5f67ffffffffffffffff82111561161557611614611583565b5b602082029050602081019050919050565b61162f816111df565b8114611639575f80fd5b50565b5f8135905061164a81611626565b92915050565b5f61166261165d846115fb565b6115e1565b90508083825260208201905060208402830185811115611685576116846110f1565b5b835b818110156116ae578061169a888261163c565b845260208401935050602081019050611687565b5050509392505050565b5f82601f8301126116cc576116cb6110e9565b5b81356116dc848260208601611650565b91505092915050565b6116ee8161153f565b81146116f8575f80fd5b50565b5f81359050611709816116e5565b92915050565b5f805f6060848603121561172657611725611087565b5b5f84013567ffffffffffffffff8111156117435761174261108b565b5b61174f868287016116b8565b9350506020611760868287016116fb565b9250506040611771868287016114ed565b9150509250925092565b5f81519050919050565b5f82825260208201905092915050565b5f819050602082019050919050565b5f6117af8383611203565b60208301905092915050565b5f602082019050919050565b5f6117d18261177b565b6117db8185611785565b93506117e683611795565b805f5b838110156118165781516117fd88826117a4565b9750611808836117bb565b9250506001810190506117e9565b5085935050505092915050565b5f6020820190508181035f83015261183b81846117c7565b905092915050565b5f806040838503121561185957611858611087565b5b5f611866858286016110d5565b9250506020611877858286016114ed565b9150509250929050565b5f82825260208201905092915050565b5f61189b8261124b565b6118a58185611881565b93506118b083611265565b805f5b838110156118e05781516118c788826112cf565b97506118d2836112e6565b9250506001810190506118b3565b5085935050505092915050565b5f6020820190508181035f8301526119058184611891565b905092915050565b5f6020828403121561192257611921611087565b5b5f61192f848285016110d5565b91505092915050565b6119418161108f565b82525050565b611950816111f7565b82525050565b61195f81611221565b82525050565b5f6060820190506119785f830186611938565b6119856020830185611947565b6119926040830184611956565b949350505050565b7f4e487b71000000000000000000000000000000000000000000000000000000005f52603260045260245ffd5b5f62ffffff82169050919050565b6119de816119c7565b81146119e8575f80fd5b50565b5f813590506119f9816119d5565b92915050565b5f60208284031215611a1457611a13611087565b5b5f611a21848285016119eb565b91505092915050565b611a33816110ae565b82525050565b611a42816119c7565b82525050565b5f606082019050611a5b5f830186611a2a565b611a686020830185611a2a565b611a756040830184611a39565b949350505050565b5f81519050611a8b816110bf565b92915050565b5f60208284031215611aa657611aa5611087565b5b5f611ab384828501611a7d565b91505092915050565b5f602082019050611acf5f830184611a2a565b92915050565b5f81519050611ae381611626565b92915050565b5f60208284031215611afe57611afd611087565b5b5f611b0b84828501611ad5565b91505092915050565b5f81519050611b22816114d7565b92915050565b5f60208284031215611b3d57611b3c611087565b5b5f611b4a84828501611b14565b91505092915050565b7f4e487b71000000000000000000000000000000000000000000000000000000005f52601260045260245ffd5b7f4e487b71000000000000000000000000000000000000000000000000000000005f52601160045260245ffd5b5f611bb7826111f7565b9150611bc2836111f7565b925082611bd257611bd1611b53565b5b60015f0383147fffffffffffffffffffffffffffffffffffffffffffffffffffffffffff80000083141615611c0a57611c09611b80565b5b828205905092915050565b5f611c1f826111f7565b9150611c2a836111f7565b925082611c3a57611c39611b53565b5b828207905092915050565b5f611c4f826111f7565b9150611c5a836111f7565b92508282039050627fffff81137fffffffffffffffffffffffffffffffffffffffffffffffffffffffffff80000082121715611c9957611c98611b80565b5b92915050565b5f611ca9826111df565b91507fffffffffffffffffffffffffffffffffffffffffffffffffffffffffffffffff8203611cdb57611cda611b80565b5b600182019050919050565b5f611cf08261153f565b9150611cfb8361153f565b925082820190507fffffffffffffffffffffffffffffffffffffffffffffffffffffffffffff80008112617fff82131715611d3957611d38611b80565b5b92915050565b5f611d49826111f7565b9150611d54836111f7565b9250828202611d62816111f7565b9150808214611d7457611d73611b80565b5b5092915050565b5f611d85826111f7565b9150611d90836111f7565b925082820190507fffffffffffffffffffffffffffffffffffffffffffffffffffffffffff8000008112627fffff82131715611dcf57611dce611b80565b5b92915050565b5f611ddf8261153f565b9150611dea8361153f565b92508282039050617fff81137fffffffffffffffffffffffffffffffffffffffffffffffffffffffffffff800082121715611e2857611e27611b80565b5b92915050565b5f611e388261153f565b9150617fff8203611e4c57611e4b611b80565b5b600182019050919050565b5f602082019050611e6a5f830184611947565b92915050565b611e7981611221565b8114611e83575f80fd5b50565b5f81519050611e9481611e70565b92915050565b611ea381611274565b8114611ead575f80fd5b50565b5f81519050611ebe81611e9a565b92915050565b5f8160060b9050919050565b611ed981611ec4565b8114611ee3575f80fd5b50565b5f81519050611ef481611ed0565b92915050565b611f038161108f565b8114611f0d575f80fd5b50565b5f81519050611f1e81611efa565b92915050565b5f63ffffffff82169050919050565b611f3c81611f24565b8114611f46575f80fd5b50565b5f81519050611f5781611f33565b92915050565b5f8115159050919050565b611f7181611f5d565b8114611f7b575f80fd5b50565b5f81519050611f8c81611f68565b92915050565b5f805f805f805f80610100898b031215611faf57611fae611087565b5b5f611fbc8b828c01611e86565b9850506020611fcd8b828c01611eb0565b9750506040611fde8b828c01611ad5565b9650506060611fef8b828c01611ad5565b95505060806120008b828c01611ee6565b94505060a06120118b828c01611f10565b93505060c06120228b828c01611f49565b92505060e06120338b828c01611f7e565b9150509295985092959890939650565b5f61ffff82169050919050565b61205981612043565b8114612063575f80fd5b50565b5f8151905061207481612050565b92915050565b5f60ff82169050919050565b61208f8161207a565b8114612099575f80fd5b50565b5f815190506120aa81612086565b92915050565b5f805f805f805f60e0888a0312156120cb576120ca611087565b5b5f6120d88a828b01611f10565b97505060206120e98a828b01611b14565b96505060406120fa8a828b01612066565b955050606061210b8a828b01612066565b945050608061211c8a828b01612066565b93505060a061212d8a828b0161209c565b92505060c061213e8a828b01611f7e565b91505092959891949750929550565b5f6020828403121561216257612161611087565b5b5f61216f84828501611e86565b9150509291505056fea264697066735822122086906698d604f29a604cebb7b427a4d323eaf99f67fc05bd544d22101f1e14c364736f6c634300081a0033",
			"opcodes": "PUSH1 0x80 PUSH1 0x40 MSTORE CALLVALUE DUP1 ISZERO PUSH1 0xE JUMPI PUSH0 DUP1 REVERT JUMPDEST POP PUSH2 0x21AE DUP1 PUSH2 0x1C PUSH0 CODECOPY PUSH0 RETURN INVALID PUSH1 0x80 PUSH1 0x40 MSTORE CALLVALUE DUP1 ISZERO PUSH2 0xF JUMPI PUSH0 DUP1 REVERT JUMPDEST POP PUSH1 0x4 CALLDATASIZE LT PUSH2 0x60 JUMPI PUSH0 CALLDATALOAD PUSH1 0xE0 SHR DUP1 PUSH4 0x6449DD5 EQ PUSH2 0x64 JUMPI DUP1 PUSH4 0x508E1E44 EQ PUSH2 0x94 JUMPI DUP1 PUSH4 0x6EB35EAB EQ PUSH2 0xC4 JUMPI DUP1 PUSH4 0x919D472F EQ PUSH2 0xF4 JUMPI DUP1 PUSH4 0x98FCD0D3 EQ PUSH2 0x124 JUMPI DUP1 PUSH4 0xCEF2C939 EQ PUSH2 0x154 JUMPI JUMPDEST PUSH0 DUP1 REVERT JUMPDEST PUSH2 0x7E PUSH1 0x4 DUP1 CALLDATASIZE SUB DUP2 ADD SWAP1 PUSH2 0x79 SWAP2 SWAP1 PUSH2 0x114A JUMP JUMPDEST PUSH2 0x186 JUMP JUMPDEST PUSH1 0x40 MLOAD PUSH2 0x8B SWAP2 SWAP1 PUSH2 0x14B7 JUMP JUMPDEST PUSH1 0x40 MLOAD DUP1 SWAP2 SUB SWAP1 RETURN JUMPDEST PUSH2 0xAE PUSH1 0x4 DUP1 CALLDATASIZE SUB DUP2 ADD SWAP1 PUSH2 0xA9 SWAP2 SWAP1 PUSH2 0x1501 JUMP JUMPDEST PUSH2 0x7F5 JUMP JUMPDEST PUSH1 0x40 MLOAD PUSH2 0xBB SWAP2 SWAP1 PUSH2 0x155A JUMP JUMPDEST PUSH1 0x40 MLOAD DUP1 SWAP2 SUB SWAP1 RETURN JUMPDEST PUSH2 0xDE PUSH1 0x4 DUP1 CALLDATASIZE SUB DUP2 ADD SWAP1 PUSH2 0xD9 SWAP2 SWAP1 PUSH2 0x114A JUMP JUMPDEST PUSH2 0x850 JUMP JUMPDEST PUSH1 0x40 MLOAD PUSH2 0xEB SWAP2 SWAP1 PUSH2 0x14B7 JUMP JUMPDEST PUSH1 0x40 MLOAD DUP1 SWAP2 SUB SWAP1 RETURN JUMPDEST PUSH2 0x10E PUSH1 0x4 DUP1 CALLDATASIZE SUB DUP2 ADD SWAP1 PUSH2 0x109 SWAP2 SWAP1 PUSH2 0x170F JUMP JUMPDEST PUSH2 0x982 JUMP JUMPDEST PUSH1 0x40 MLOAD PUSH2 0x11B SWAP2 SWAP1 PUSH2 0x1823 JUMP JUMPDEST PUSH1 0x40 MLOAD DUP1 SWAP2 SUB SWAP1 RETURN JUMPDEST PUSH2 0x13E PUSH1 0x4 DUP1 CALLDATASIZE SUB DUP2 ADD SWAP1 PUSH2 0x139 SWAP2 SWAP1 PUSH2 0x1843 JUMP JUMPDEST PUSH2 0xB22 JUMP JUMPDEST PUSH1 0x40 MLOAD PUSH2 0x14B SWAP2 SWAP1 PUSH2 0x18ED JUMP JUMPDEST PUSH1 0x40 MLOAD DUP1 SWAP2 SUB SWAP1 RETURN JUMPDEST PUSH2 0x16E PUSH1 0x4 DUP1 CALLDATASIZE SUB DUP2 ADD SWAP1 PUSH2 0x169 SWAP2 SWAP1 PUSH2 0x190D JUMP JUMPDEST PUSH2 0xE8C JUMP JUMPDEST PUSH1 0x40 MLOAD PUSH2 0x17D SWAP4 SWAP3 SWAP2 SWAP1 PUSH2 0x1965 JUMP JUMPDEST PUSH1 0x40 MLOAD DUP1 SWAP2 SUB SWAP1 RETURN JUMPDEST PUSH1 0x60 PUSH0 DUP5 SWAP1 POP PUSH0 DUP5 DUP5 SWAP1 POP SWAP1 POP PUSH0 DUP2 PUSH8 0xFFFFFFFFFFFFFFFF DUP2 GT ISZERO PUSH2 0x1AE JUMPI PUSH2 0x1AD PUSH2 0x1583 JUMP JUMPDEST JUMPDEST PUSH1 0x40 MLOAD SWAP1 DUP1 DUP3 MSTORE DUP1 PUSH1 0x20 MUL PUSH1 0x20 ADD DUP3 ADD PUSH1 0x40 MSTORE DUP1 ISZERO PUSH2 0x1E7 JUMPI DUP2 PUSH1 0x20 ADD JUMPDEST PUSH2 0x1D4 PUSH2 0xF8E JUMP JUMPDEST DUP2 MSTORE PUSH1 0x20 ADD SWAP1 PUSH1 0x1 SWAP1 SUB SWAP1 DUP2 PUSH2 0x1CC JUMPI SWAP1 POP JUMPDEST POP SWAP1 POP PUSH0 JUMPDEST DUP3 DUP2 LT ISZERO PUSH2 0x7E7 JUMPI PUSH0 DUP5 PUSH20 0xFFFFFFFFFFFFFFFFFFFFFFFFFFFFFFFFFFFFFFFF AND PUSH4 0x1698EE82 DUP10 DUP10 DUP6 DUP2 DUP2 LT PUSH2 0x224 JUMPI PUSH2 0x223 PUSH2 0x199A JUMP JUMPDEST JUMPDEST SWAP1 POP PUSH1 0x60 MUL ADD PUSH0 ADD PUSH1 0x20 DUP2 ADD SWAP1 PUSH2 0x23B SWAP2 SWAP1 PUSH2 0x190D JUMP JUMPDEST DUP11 DUP11 DUP7 DUP2 DUP2 LT PUSH2 0x24E JUMPI PUSH2 0x24D PUSH2 0x199A JUMP JUMPDEST JUMPDEST SWAP1 POP PUSH1 0x60 MUL ADD PUSH1 0x20 ADD PUSH1 0x20 DUP2 ADD SWAP1 PUSH2 0x266 SWAP2 SWAP1 PUSH2 0x190D JUMP JUMPDEST DUP12 DUP12 DUP8 DUP2 DUP2 LT PUSH2 0x279 JUMPI PUSH2 0x278 PUSH2 0x199A JUMP JUMPDEST JUMPDEST SWAP1 POP PUSH1 0x60 MUL ADD PUSH1 0x40 ADD PUSH1 0x20 DUP2 ADD SWAP1 PUSH2 0x291 SWAP2 SWAP1 PUSH2 0x19FF JUMP JUMPDEST PUSH1 0x40 MLOAD DUP5 PUSH4 0xFFFFFFFF AND PUSH1 0xE0 SHL DUP2 MSTORE PUSH1 0x4 ADD PUSH2 0x2AF SWAP4 SWAP3 SWAP2 SWAP1 PUSH2 0x1A48 JUMP JUMPDEST PUSH1 0x20 PUSH1 0x40 MLOAD DUP1 DUP4 SUB DUP2 DUP7 GAS STATICCALL ISZERO DUP1 ISZERO PUSH2 0x2CA JUMPI RETURNDATASIZE PUSH0 DUP1 RETURNDATACOPY RETURNDATASIZE PUSH0 REVERT JUMPDEST POP POP POP POP PUSH1 0x40 MLOAD RETURNDATASIZE PUSH1 0x1F NOT PUSH1 0x1F DUP3 ADD AND DUP3 ADD DUP1 PUSH1 0x40 MSTORE POP DUP2 ADD SWAP1 PUSH2 0x2EE SWAP2 SWAP1 PUSH2 0x1A91 JUMP JUMPDEST SWAP1 POP PUSH0 PUSH20 0xFFFFFFFFFFFFFFFFFFFFFFFFFFFFFFFFFFFFFFFF AND DUP2 PUSH20 0xFFFFFFFFFFFFFFFFFFFFFFFFFFFFFFFFFFFFFFFF AND EQ PUSH2 0x7D9 JUMPI DUP1 DUP4 DUP4 DUP2 MLOAD DUP2 LT PUSH2 0x337 JUMPI PUSH2 0x336 PUSH2 0x199A JUMP JUMPDEST JUMPDEST PUSH1 0x20 MUL PUSH1 0x20 ADD ADD MLOAD PUSH0 ADD SWAP1 PUSH20 0xFFFFFFFFFFFFFFFFFFFFFFFFFFFFFFFFFFFFFFFF AND SWAP1 DUP2 PUSH20 0xFFFFFFFFFFFFFFFFFFFFFFFFFFFFFFFFFFFFFFFF AND DUP2 MSTORE POP POP DUP1 PUSH20 0xFFFFFFFFFFFFFFFFFFFFFFFFFFFFFFFFFFFFFFFF AND PUSH4 0xDFE1681 PUSH1 0x40 MLOAD DUP2 PUSH4 0xFFFFFFFF AND PUSH1 0xE0 SHL DUP2 MSTORE PUSH1 0x4 ADD PUSH1 0x20 PUSH1 0x40 MLOAD DUP1 DUP4 SUB DUP2 DUP7 GAS STATICCALL ISZERO DUP1 ISZERO PUSH2 0x3BD JUMPI RETURNDATASIZE PUSH0 DUP1 RETURNDATACOPY RETURNDATASIZE PUSH0 REVERT JUMPDEST POP POP POP POP PUSH1 0x40 MLOAD RETURNDATASIZE PUSH1 0x1F NOT PUSH1 0x1F DUP3 ADD AND DUP3 ADD DUP1 PUSH1 0x40 MSTORE POP DUP2 ADD SWAP1 PUSH2 0x3E1 SWAP2 SWAP1 PUSH2 0x1A91 JUMP JUMPDEST DUP4 DUP4 DUP2 MLOAD DUP2 LT PUSH2 0x3F4 JUMPI PUSH2 0x3F3 PUSH2 0x199A JUMP JUMPDEST JUMPDEST PUSH1 0x20 MUL PUSH1 0x20 ADD ADD MLOAD PUSH1 0x20 ADD SWAP1 PUSH20 0xFFFFFFFFFFFFFFFFFFFFFFFFFFFFFFFFFFFFFFFF AND SWAP1 DUP2 PUSH20 0xFFFFFFFFFFFFFFFFFFFFFFFFFFFFFFFFFFFFFFFF AND DUP2 MSTORE POP POP DUP3 DUP3 DUP2 MLOAD DUP2 LT PUSH2 0x445 JUMPI PUSH2 0x444 PUSH2 0x199A JUMP JUMPDEST JUMPDEST PUSH1 0x20 MUL PUSH1 0x20 ADD ADD MLOAD PUSH1 0x20 ADD MLOAD PUSH20 0xFFFFFFFFFFFFFFFFFFFFFFFFFFFFFFFFFFFFFFFF AND PUSH4 0x70A08231 DUP3 PUSH1 0x40 MLOAD DUP3 PUSH4 0xFFFFFFFF AND PUSH1 0xE0 SHL DUP2 MSTORE PUSH1 0x4 ADD PUSH2 0x489 SWAP2 SWAP1 PUSH2 0x1ABC JUMP JUMPDEST PUSH1 0x20 PUSH1 0x40 MLOAD DUP1 DUP4 SUB DUP2 DUP7 GAS STATICCALL ISZERO DUP1 ISZERO PUSH2 0x4A4 JUMPI RETURNDATASIZE PUSH0 DUP1 RETURNDATACOPY RETURNDATASIZE PUSH0 REVERT JUMPDEST POP POP POP POP PUSH1 0x40 MLOAD RETURNDATASIZE PUSH1 0x1F NOT PUSH1 0x1F DUP3 ADD AND DUP3 ADD DUP1 PUSH1 0x40 MSTORE POP DUP2 ADD SWAP1 PUSH2 0x4C8 SWAP2 SWAP1 PUSH2 0x1AE9 JUMP JUMPDEST DUP4 DUP4 DUP2 MLOAD DUP2 LT PUSH2 0x4DB JUMPI PUSH2 0x4DA PUSH2 0x199A JUMP JUMPDEST JUMPDEST PUSH1 0x20 MUL PUSH1 0x20 ADD ADD MLOAD PUSH1 0x40 ADD DUP2 DUP2 MSTORE POP POP DUP1 PUSH20 0xFFFFFFFFFFFFFFFFFFFFFFFFFFFFFFFFFFFFFFFF AND PUSH4 0xD21220A7 PUSH1 0x40 MLOAD DUP2 PUSH4 0xFFFFFFFF AND PUSH1 0xE0 SHL DUP2 MSTORE PUSH1 0x4 ADD PUSH1 0x20 PUSH1 0x40 MLOAD DUP1 DUP4 SUB DUP2 DUP7 GAS STATICCALL ISZERO DUP1 ISZERO PUSH2 0x534 JUMPI RETURNDATASIZE PUSH0 DUP1 RETURNDATACOPY RETURNDATASIZE PUSH0 REVERT JUMPDEST POP POP POP POP PUSH1 0x40 MLOAD RETURNDATASIZE PUSH1 0x1F NOT PUSH1 0x1F DUP3 ADD AND DUP3 ADD DUP1 PUSH1 0x40 MSTORE POP DUP2 ADD SWAP1 PUSH2 0x558 SWAP2 SWAP1 PUSH2 0x1A91 JUMP JUMPDEST DUP4 DUP4 DUP2 MLOAD DUP2 LT PUSH2 0x56B JUMPI PUSH2 0x56A PUSH2 0x199A JUMP JUMPDEST JUMPDEST PUSH1 0x20 MUL PUSH1 0x20 ADD ADD MLOAD PUSH1 0x60 ADD SWAP1 PUSH20 0xFFFFFFFFFFFFFFFFFFFFFFFFFFFFFFFFFFFFFFFF AND SWAP1 DUP2 PUSH20 0xFFFFFFFFFFFFFFFFFFFFFFFFFFFFFFFFFFFFFFFF AND DUP2 MSTORE POP POP DUP3 DUP3 DUP2 MLOAD DUP2 LT PUSH2 0x5BC JUMPI PUSH2 0x5BB PUSH2 0x199A JUMP JUMPDEST JUMPDEST PUSH1 0x20 MUL PUSH1 0x20 ADD ADD MLOAD PUSH1 0x60 ADD MLOAD PUSH20 0xFFFFFFFFFFFFFFFFFFFFFFFFFFFFFFFFFFFFFFFF AND PUSH4 0x70A08231 DUP3 PUSH1 0x40 MLOAD DUP3 PUSH4 0xFFFFFFFF AND PUSH1 0xE0 SHL DUP2 MSTORE PUSH1 0x4 ADD PUSH2 0x600 SWAP2 SWAP1 PUSH2 0x1ABC JUMP JUMPDEST PUSH1 0x20 PUSH1 0x40 MLOAD DUP1 DUP4 SUB DUP2 DUP7 GAS STATICCALL ISZERO DUP1 ISZERO PUSH2 0x61B JUMPI RETURNDATASIZE PUSH0 DUP1 RETURNDATACOPY RETURNDATASIZE PUSH0 REVERT JUMPDEST POP POP POP POP PUSH1 0x40 MLOAD RETURNDATASIZE PUSH1 0x1F NOT PUSH1 0x1F DUP3 ADD AND DUP3 ADD DUP1 PUSH1 0x40 MSTORE POP DUP2 ADD SWAP1 PUSH2 0x63F SWAP2 SWAP1 PUSH2 0x1AE9 JUMP JUMPDEST DUP4 DUP4 DUP2 MLOAD DUP2 LT PUSH2 0x652 JUMPI PUSH2 0x651 PUSH2 0x199A JUMP JUMPDEST JUMPDEST PUSH1 0x20 MUL PUSH1 0x20 ADD ADD MLOAD PUSH1 0x80 ADD DUP2 DUP2 MSTORE POP POP DUP1 PUSH20 0xFFFFFFFFFFFFFFFFFFFFFFFFFFFFFFFFFFFFFFFF AND PUSH4 0xD0C93A7C PUSH1 0x40 MLOAD DUP2 PUSH4 0xFFFFFFFF AND PUSH1 0xE0 SHL DUP2 MSTORE PUSH1 0x4 ADD PUSH1 0x20 PUSH1 0x40 MLOAD DUP1 DUP4 SUB DUP2 DUP7 GAS STATICCALL ISZERO DUP1 ISZERO PUSH2 0x6AB JUMPI RETURNDATASIZE PUSH0 DUP1 RETURNDATACOPY RETURNDATASIZE PUSH0 REVERT JUMPDEST POP POP POP POP PUSH1 0x40 MLOAD RETURNDATASIZE PUSH1 0x1F NOT PUSH1 0x1F DUP3 ADD AND DUP3 ADD DUP1 PUSH1 0x40 MSTORE POP DUP2 ADD SWAP1 PUSH2 0x6CF SWAP2 SWAP1 PUSH2 0x1B28 JUMP JUMPDEST DUP4 DUP4 DUP2 MLOAD DUP2 LT PUSH2 0x6E2 JUMPI PUSH2 0x6E1 PUSH2 0x199A JUMP JUMPDEST JUMPDEST PUSH1 0x20 MUL PUSH1 0x20 ADD ADD MLOAD PUSH1 0xA0 ADD SWAP1 PUSH1 0x2 SIGNEXTEND SWAP1 DUP2 PUSH1 0x2 SIGNEXTEND DUP2 MSTORE POP POP PUSH0 DUP1 PUSH0 PUSH2 0x706 DUP5 PUSH2 0xE8C JUMP JUMPDEST SWAP3 POP SWAP3 POP SWAP3 POP DUP3 DUP7 DUP7 DUP2 MLOAD DUP2 LT PUSH2 0x720 JUMPI PUSH2 0x71F PUSH2 0x199A JUMP JUMPDEST JUMPDEST PUSH1 0x20 MUL PUSH1 0x20 ADD ADD MLOAD PUSH1 0xC0 ADD SWAP1 PUSH20 0xFFFFFFFFFFFFFFFFFFFFFFFFFFFFFFFFFFFFFFFF AND SWAP1 DUP2 PUSH20 0xFFFFFFFFFFFFFFFFFFFFFFFFFFFFFFFFFFFFFFFF AND DUP2 MSTORE POP POP DUP2 DUP7 DUP7 DUP2 MLOAD DUP2 LT PUSH2 0x772 JUMPI PUSH2 0x771 PUSH2 0x199A JUMP JUMPDEST JUMPDEST PUSH1 0x20 MUL PUSH1 0x20 ADD ADD MLOAD PUSH1 0xE0 ADD SWAP1 PUSH1 0x2 SIGNEXTEND SWAP1 DUP2 PUSH1 0x2 SIGNEXTEND DUP2 MSTORE POP POP DUP1 DUP7 DUP7 DUP2 MLOAD DUP2 LT PUSH2 0x79E JUMPI PUSH2 0x79D PUSH2 0x199A JUMP JUMPDEST JUMPDEST PUSH1 0x20 MUL PUSH1 0x20 ADD ADD MLOAD PUSH2 0x100 ADD SWAP1 PUSH16 0xFFFFFFFFFFFFFFFFFFFFFFFFFFFFFFFF AND SWAP1 DUP2 PUSH16 0xFFFFFFFFFFFFFFFFFFFFFFFFFFFFFFFF AND DUP2 MSTORE POP POP POP POP POP JUMPDEST POP DUP1 DUP1 PUSH1 0x1 ADD SWAP2 POP POP PUSH2 0x1EC JUMP JUMPDEST POP DUP1 SWAP4 POP POP POP POP SWAP4 SWAP3 POP POP POP JUMP JUMPDEST PUSH0 DUP1 DUP3 DUP5 PUSH2 0x803 SWAP2 SWAP1 PUSH2 0x1BAD JUMP JUMPDEST SWAP1 POP PUSH0 DUP5 PUSH1 0x2 SIGNEXTEND SLT DUP1 ISZERO PUSH2 0x825 JUMPI POP PUSH0 DUP4 DUP6 PUSH2 0x81F SWAP2 SWAP1 PUSH2 0x1C15 JUMP JUMPDEST PUSH1 0x2 SIGNEXTEND EQ ISZERO JUMPDEST ISZERO PUSH2 0x83A JUMPI PUSH1 0x1 DUP2 PUSH2 0x837 SWAP2 SWAP1 PUSH2 0x1C45 JUMP JUMPDEST SWAP1 POP JUMPDEST PUSH0 PUSH1 0x8 DUP3 PUSH1 0x2 SIGNEXTEND SWAP1 SAR SWAP1 POP DUP1 SWAP3 POP POP POP SWAP3 SWAP2 POP POP JUMP JUMPDEST PUSH1 0x60 PUSH0 DUP4 DUP4 SWAP1 POP SWAP1 POP PUSH0 DUP2 PUSH8 0xFFFFFFFFFFFFFFFF DUP2 GT ISZERO PUSH2 0x874 JUMPI PUSH2 0x873 PUSH2 0x1583 JUMP JUMPDEST JUMPDEST PUSH1 0x40 MLOAD SWAP1 DUP1 DUP3 MSTORE DUP1 PUSH1 0x20 MUL PUSH1 0x20 ADD DUP3 ADD PUSH1 0x40 MSTORE DUP1 ISZERO PUSH2 0x8AD JUMPI DUP2 PUSH1 0x20 ADD JUMPDEST PUSH2 0x89A PUSH2 0xF8E JUMP JUMPDEST DUP2 MSTORE PUSH1 0x20 ADD SWAP1 PUSH1 0x1 SWAP1 SUB SWAP1 DUP2 PUSH2 0x892 JUMPI SWAP1 POP JUMPDEST POP SWAP1 POP PUSH2 0x8BB DUP7 DUP7 DUP7 PUSH2 0x186 JUMP JUMPDEST SWAP1 POP PUSH0 JUMPDEST DUP3 DUP2 LT ISZERO PUSH2 0x975 JUMPI PUSH0 DUP3 DUP3 DUP2 MLOAD DUP2 LT PUSH2 0x8DB JUMPI PUSH2 0x8DA PUSH2 0x199A JUMP JUMPDEST JUMPDEST PUSH1 0x20 MUL PUSH1 0x20 ADD ADD MLOAD PUSH0 ADD MLOAD SWAP1 POP PUSH0 PUSH20 0xFFFFFFFFFFFFFFFFFFFFFFFFFFFFFFFFFFFFFFFF AND DUP2 PUSH20 0xFFFFFFFFFFFFFFFFFFFFFFFFFFFFFFFFFFFFFFFF AND EQ PUSH2 0x967 JUMPI PUSH2 0x943 DUP2 DUP5 DUP5 DUP2 MLOAD DUP2 LT PUSH2 0x932 JUMPI PUSH2 0x931 PUSH2 0x199A JUMP JUMPDEST JUMPDEST PUSH1 0x20 MUL PUSH1 0x20 ADD ADD MLOAD PUSH1 0xA0 ADD MLOAD PUSH2 0xB22 JUMP JUMPDEST DUP4 DUP4 DUP2 MLOAD DUP2 LT PUSH2 0x956 JUMPI PUSH2 0x955 PUSH2 0x199A JUMP JUMPDEST JUMPDEST PUSH1 0x20 MUL PUSH1 0x20 ADD ADD MLOAD PUSH2 0x120 ADD DUP2 SWAP1 MSTORE POP JUMPDEST POP DUP1 DUP1 PUSH1 0x1 ADD SWAP2 POP POP PUSH2 0x8BF JUMP JUMPDEST POP DUP1 SWAP3 POP POP POP SWAP4 SWAP3 POP POP POP JUMP JUMPDEST PUSH1 0x60 PUSH0 DUP1 PUSH0 SWAP1 POP JUMPDEST DUP6 MLOAD DUP2 LT ISZERO PUSH2 0x9F5 JUMPI PUSH0 DUP7 DUP3 DUP2 MLOAD DUP2 LT PUSH2 0x9A7 JUMPI PUSH2 0x9A6 PUSH2 0x199A JUMP JUMPDEST JUMPDEST PUSH1 0x20 MUL PUSH1 0x20 ADD ADD MLOAD SWAP1 POP PUSH0 JUMPDEST PUSH2 0x100 DUP2 LT ISZERO PUSH2 0x9E6 JUMPI PUSH0 DUP2 PUSH1 0x1 SWAP1 SHL DUP4 AND EQ PUSH2 0x9D9 JUMPI DUP4 DUP1 PUSH2 0x9D5 SWAP1 PUSH2 0x1C9F JUMP JUMPDEST SWAP5 POP POP JUMPDEST DUP1 DUP1 PUSH1 0x1 ADD SWAP2 POP POP PUSH2 0x9B3 JUMP JUMPDEST POP POP DUP1 DUP1 PUSH1 0x1 ADD SWAP2 POP POP PUSH2 0x98A JUMP JUMPDEST POP PUSH0 DUP2 PUSH8 0xFFFFFFFFFFFFFFFF DUP2 GT ISZERO PUSH2 0xA11 JUMPI PUSH2 0xA10 PUSH2 0x1583 JUMP JUMPDEST JUMPDEST PUSH1 0x40 MLOAD SWAP1 DUP1 DUP3 MSTORE DUP1 PUSH1 0x20 MUL PUSH1 0x20 ADD DUP3 ADD PUSH1 0x40 MSTORE DUP1 ISZERO PUSH2 0xA3F JUMPI DUP2 PUSH1 0x20 ADD PUSH1 0x20 DUP3 MUL DUP1 CALLDATASIZE DUP4 CALLDATACOPY DUP1 DUP3 ADD SWAP2 POP POP SWAP1 POP JUMPDEST POP SWAP1 POP PUSH0 DUP1 PUSH0 SWAP1 POP JUMPDEST DUP8 MLOAD DUP2 LT ISZERO PUSH2 0xB14 JUMPI PUSH0 DUP9 DUP3 DUP2 MLOAD DUP2 LT PUSH2 0xA65 JUMPI PUSH2 0xA64 PUSH2 0x199A JUMP JUMPDEST JUMPDEST PUSH1 0x20 MUL PUSH1 0x20 ADD ADD MLOAD SWAP1 POP PUSH0 DUP3 DUP10 PUSH2 0xA7C SWAP2 SWAP1 PUSH2 0x1CE6 JUMP JUMPDEST PUSH1 0x1 SIGNEXTEND SWAP1 POP PUSH0 JUMPDEST PUSH2 0x100 DUP2 LT ISZERO PUSH2 0xB04 JUMPI PUSH0 DUP2 PUSH1 0x1 SWAP1 SHL DUP5 AND EQ PUSH2 0xAF7 JUMPI PUSH0 DUP10 DUP3 PUSH2 0x100 DUP6 PUSH2 0xAAB SWAP2 SWAP1 PUSH2 0x1D3F JUMP JUMPDEST PUSH2 0xAB5 SWAP2 SWAP1 PUSH2 0x1D7B JUMP JUMPDEST PUSH2 0xABF SWAP2 SWAP1 PUSH2 0x1D3F JUMP JUMPDEST SWAP1 POP DUP1 DUP8 DUP8 DUP1 PUSH2 0xACE SWAP1 PUSH2 0x1C9F JUMP JUMPDEST SWAP9 POP DUP2 MLOAD DUP2 LT PUSH2 0xAE1 JUMPI PUSH2 0xAE0 PUSH2 0x199A JUMP JUMPDEST JUMPDEST PUSH1 0x20 MUL PUSH1 0x20 ADD ADD SWAP1 PUSH1 0x2 SIGNEXTEND SWAP1 DUP2 PUSH1 0x2 SIGNEXTEND DUP2 MSTORE POP POP POP JUMPDEST DUP1 DUP1 PUSH1 0x1 ADD SWAP2 POP POP PUSH2 0xA83 JUMP JUMPDEST POP POP POP DUP1 DUP1 PUSH1 0x1 ADD SWAP2 POP POP PUSH2 0xA48 JUMP JUMPDEST POP DUP2 SWAP4 POP POP POP POP SWAP4 SWAP3 POP POP POP JUMP JUMPDEST PUSH1 0x60 PUSH0 DUP4 SWAP1 POP PUSH0 PUSH2 0xB53 PUSH32 0xFFFFFFFFFFFFFFFFFFFFFFFFFFFFFFFFFFFFFFFFFFFFFFFFFFFFFFFFFFF27618 DUP6 PUSH2 0x7F5 JUMP JUMPDEST SWAP1 POP PUSH0 PUSH2 0xB63 PUSH3 0xD89E8 DUP7 PUSH2 0x7F5 JUMP JUMPDEST SWAP1 POP PUSH0 PUSH1 0x1 DUP4 DUP4 PUSH2 0xB74 SWAP2 SWAP1 PUSH2 0x1DD5 JUMP JUMPDEST PUSH2 0xB7E SWAP2 SWAP1 PUSH2 0x1CE6 JUMP JUMPDEST PUSH2 0xFFFF AND SWAP1 POP PUSH0 DUP2 PUSH8 0xFFFFFFFFFFFFFFFF DUP2 GT ISZERO PUSH2 0xB9F JUMPI PUSH2 0xB9E PUSH2 0x1583 JUMP JUMPDEST JUMPDEST PUSH1 0x40 MLOAD SWAP1 DUP1 DUP3 MSTORE DUP1 PUSH1 0x20 MUL PUSH1 0x20 ADD DUP3 ADD PUSH1 0x40 MSTORE DUP1 ISZERO PUSH2 0xBCD JUMPI DUP2 PUSH1 0x20 ADD PUSH1 0x20 DUP3 MUL DUP1 CALLDATASIZE DUP4 CALLDATACOPY DUP1 DUP3 ADD SWAP2 POP POP SWAP1 POP JUMPDEST POP SWAP1 POP PUSH0 DUP5 SWAP1 POP JUMPDEST DUP4 PUSH1 0x1 SIGNEXTEND DUP2 PUSH1 0x1 SIGNEXTEND SGT PUSH2 0xCA0 JUMPI PUSH0 DUP6 DUP3 PUSH2 0xBEF SWAP2 SWAP1 PUSH2 0x1DD5 JUMP JUMPDEST PUSH2 0xFFFF AND SWAP1 POP DUP7 PUSH20 0xFFFFFFFFFFFFFFFFFFFFFFFFFFFFFFFFFFFFFFFF AND PUSH4 0x5339C296 DUP4 PUSH1 0x40 MLOAD DUP3 PUSH4 0xFFFFFFFF AND PUSH1 0xE0 SHL DUP2 MSTORE PUSH1 0x4 ADD PUSH2 0xC2E SWAP2 SWAP1 PUSH2 0x155A JUMP JUMPDEST PUSH1 0x20 PUSH1 0x40 MLOAD DUP1 DUP4 SUB DUP2 DUP7 GAS STATICCALL ISZERO DUP1 ISZERO PUSH2 0xC49 JUMPI RETURNDATASIZE PUSH0 DUP1 RETURNDATACOPY RETURNDATASIZE PUSH0 REVERT JUMPDEST POP POP POP POP PUSH1 0x40 MLOAD RETURNDATASIZE PUSH1 0x1F NOT PUSH1 0x1F DUP3 ADD AND DUP3 ADD DUP1 PUSH1 0x40 MSTORE POP DUP2 ADD SWAP1 PUSH2 0xC6D SWAP2 SWAP1 PUSH2 0x1AE9 JUMP JUMPDEST DUP4 DUP3 DUP2 MLOAD DUP2 LT PUSH2 0xC80 JUMPI PUSH2 0xC7F PUSH2 0x199A JUMP JUMPDEST JUMPDEST PUSH1 0x20 MUL PUSH1 0x20 ADD ADD DUP2 DUP2 MSTORE POP POP POP DUP1 DUP1 PUSH2 0xC98 SWAP1 PUSH2 0x1E2E JUMP JUMPDEST SWAP2 POP POP PUSH2 0xBD5 JUMP JUMPDEST POP PUSH0 PUSH2 0xCAD DUP3 DUP7 DUP11 PUSH2 0x982 JUMP JUMPDEST SWAP1 POP PUSH0 DUP2 MLOAD PUSH8 0xFFFFFFFFFFFFFFFF DUP2 GT ISZERO PUSH2 0xCCB JUMPI PUSH2 0xCCA PUSH2 0x1583 JUMP JUMPDEST JUMPDEST PUSH1 0x40 MLOAD SWAP1 DUP1 DUP3 MSTORE DUP1 PUSH1 0x20 MUL PUSH1 0x20 ADD DUP3 ADD PUSH1 0x40 MSTORE DUP1 ISZERO PUSH2 0xD04 JUMPI DUP2 PUSH1 0x20 ADD JUMPDEST PUSH2 0xCF1 PUSH2 0x1048 JUMP JUMPDEST DUP2 MSTORE PUSH1 0x20 ADD SWAP1 PUSH1 0x1 SWAP1 SUB SWAP1 DUP2 PUSH2 0xCE9 JUMPI SWAP1 POP JUMPDEST POP SWAP1 POP PUSH0 JUMPDEST DUP3 MLOAD DUP2 LT ISZERO PUSH2 0xE7B JUMPI PUSH0 DUP1 DUP10 PUSH20 0xFFFFFFFFFFFFFFFFFFFFFFFFFFFFFFFFFFFFFFFF AND PUSH4 0xF30DBA93 DUP7 DUP6 DUP2 MLOAD DUP2 LT PUSH2 0xD43 JUMPI PUSH2 0xD42 PUSH2 0x199A JUMP JUMPDEST JUMPDEST PUSH1 0x20 MUL PUSH1 0x20 ADD ADD MLOAD PUSH1 0x40 MLOAD DUP3 PUSH4 0xFFFFFFFF AND PUSH1 0xE0 SHL DUP2 MSTORE PUSH1 0x4 ADD PUSH2 0xD67 SWAP2 SWAP1 PUSH2 0x1E57 JUMP JUMPDEST PUSH2 0x100 PUSH1 0x40 MLOAD DUP1 DUP4 SUB DUP2 DUP7 GAS STATICCALL ISZERO DUP1 ISZERO PUSH2 0xD83 JUMPI RETURNDATASIZE PUSH0 DUP1 RETURNDATACOPY RETURNDATASIZE PUSH0 REVERT JUMPDEST POP POP POP POP PUSH1 0x40 MLOAD RETURNDATASIZE PUSH1 0x1F NOT PUSH1 0x1F DUP3 ADD AND DUP3 ADD DUP1 PUSH1 0x40 MSTORE POP DUP2 ADD SWAP1 PUSH2 0xDA7 SWAP2 SWAP1 PUSH2 0x1F92 JUMP JUMPDEST POP POP POP POP POP POP SWAP2 POP SWAP2 POP DUP5 DUP4 DUP2 MLOAD DUP2 LT PUSH2 0xDC4 JUMPI PUSH2 0xDC3 PUSH2 0x199A JUMP JUMPDEST JUMPDEST PUSH1 0x20 MUL PUSH1 0x20 ADD ADD MLOAD DUP5 DUP5 DUP2 MLOAD DUP2 LT PUSH2 0xDDF JUMPI PUSH2 0xDDE PUSH2 0x199A JUMP JUMPDEST JUMPDEST PUSH1 0x20 MUL PUSH1 0x20 ADD ADD MLOAD PUSH0 ADD SWAP1 PUSH1 0x2 SIGNEXTEND SWAP1 DUP2 PUSH1 0x2 SIGNEXTEND DUP2 MSTORE POP POP DUP2 DUP5 DUP5 DUP2 MLOAD DUP2 LT PUSH2 0xE0A JUMPI PUSH2 0xE09 PUSH2 0x199A JUMP JUMPDEST JUMPDEST PUSH1 0x20 MUL PUSH1 0x20 ADD ADD MLOAD PUSH1 0x20 ADD SWAP1 PUSH16 0xFFFFFFFFFFFFFFFFFFFFFFFFFFFFFFFF AND SWAP1 DUP2 PUSH16 0xFFFFFFFFFFFFFFFFFFFFFFFFFFFFFFFF AND DUP2 MSTORE POP POP DUP1 DUP5 DUP5 DUP2 MLOAD DUP2 LT PUSH2 0xE54 JUMPI PUSH2 0xE53 PUSH2 0x199A JUMP JUMPDEST JUMPDEST PUSH1 0x20 MUL PUSH1 0x20 ADD ADD MLOAD PUSH1 0x40 ADD SWAP1 PUSH1 0xF SIGNEXTEND SWAP1 DUP2 PUSH1 0xF SIGNEXTEND DUP2 MSTORE POP POP POP POP DUP1 DUP1 PUSH1 0x1 ADD SWAP2 POP POP PUSH2 0xD09 JUMP JUMPDEST POP DUP1 SWAP8 POP POP POP POP POP POP POP POP SWAP3 SWAP2 POP POP JUMP JUMPDEST PUSH0 DUP1 PUSH0 DUP1 DUP5 SWAP1 POP DUP1 PUSH20 0xFFFFFFFFFFFFFFFFFFFFFFFFFFFFFFFFFFFFFFFF AND PUSH4 0x3850C7BD PUSH1 0x40 MLOAD DUP2 PUSH4 0xFFFFFFFF AND PUSH1 0xE0 SHL DUP2 MSTORE PUSH1 0x4 ADD PUSH1 0xE0 PUSH1 0x40 MLOAD DUP1 DUP4 SUB DUP2 DUP7 GAS STATICCALL ISZERO DUP1 ISZERO PUSH2 0xEDC JUMPI RETURNDATASIZE PUSH0 DUP1 RETURNDATACOPY RETURNDATASIZE PUSH0 REVERT JUMPDEST POP POP POP POP PUSH1 0x40 MLOAD RETURNDATASIZE PUSH1 0x1F NOT PUSH1 0x1F DUP3 ADD AND DUP3 ADD DUP1 PUSH1 0x40 MSTORE POP DUP2 ADD SWAP1 PUSH2 0xF00 SWAP2 SWAP1 PUSH2 0x20B0 JUMP JUMPDEST SWAP1 SWAP2 SWAP3 SWAP4 POP SWAP1 SWAP2 SWAP3 POP SWAP1 SWAP2 POP SWAP1 POP POP DUP1 SWAP5 POP DUP2 SWAP6 POP POP POP DUP1 PUSH20 0xFFFFFFFFFFFFFFFFFFFFFFFFFFFFFFFFFFFFFFFF AND PUSH4 0x1A686502 PUSH1 0x40 MLOAD DUP2 PUSH4 0xFFFFFFFF AND PUSH1 0xE0 SHL DUP2 MSTORE PUSH1 0x4 ADD PUSH1 0x20 PUSH1 0x40 MLOAD DUP1 DUP4 SUB DUP2 DUP7 GAS STATICCALL ISZERO DUP1 ISZERO PUSH2 0xF60 JUMPI RETURNDATASIZE PUSH0 DUP1 RETURNDATACOPY RETURNDATASIZE PUSH0 REVERT JUMPDEST POP POP POP POP PUSH1 0x40 MLOAD RETURNDATASIZE PUSH1 0x1F NOT PUSH1 0x1F DUP3 ADD AND DUP3 ADD DUP1 PUSH1 0x40 MSTORE POP DUP2 ADD SWAP1 PUSH2 0xF84 SWAP2 SWAP1 PUSH2 0x214D JUMP JUMPDEST SWAP2 POP POP SWAP2 SWAP4 SWAP1 SWAP3 POP JUMP JUMPDEST PUSH1 0x40 MLOAD DUP1 PUSH2 0x140 ADD PUSH1 0x40 MSTORE DUP1 PUSH0 PUSH20 0xFFFFFFFFFFFFFFFFFFFFFFFFFFFFFFFFFFFFFFFF AND DUP2 MSTORE PUSH1 0x20 ADD PUSH0 PUSH20 0xFFFFFFFFFFFFFFFFFFFFFFFFFFFFFFFFFFFFFFFF AND DUP2 MSTORE PUSH1 0x20 ADD PUSH0 DUP2 MSTORE PUSH1 0x20 ADD PUSH0 PUSH20 0xFFFFFFFFFFFFFFFFFFFFFFFFFFFFFFFFFFFFFFFF AND DUP2 MSTORE PUSH1 0x20 ADD PUSH0 DUP2 MSTORE PUSH1 0x20 ADD PUSH0 PUSH1 0x2 SIGNEXTEND DUP2 MSTORE PUSH1 0x20 ADD PUSH0 PUSH20 0xFFFFFFFFFFFFFFFFFFFFFFFFFFFFFFFFFFFFFFFF AND DUP2 MSTORE PUSH1 0x20 ADD PUSH0 PUSH1 0x2 SIGNEXTEND DUP2 MSTORE PUSH1 0x20 ADD PUSH0 PUSH16 0xFFFFFFFFFFFFFFFFFFFFFFFFFFFFFFFF AND DUP2 MSTORE PUSH1 0x20 ADD PUSH1 0x60 DUP2 MSTORE POP SWAP1 JUMP JUMPDEST PUSH1 0x40 MLOAD DUP1 PUSH1 0x60 ADD PUSH1 0x40 MSTORE DUP1 PUSH0 PUSH1 0x2 SIGNEXTEND DUP2 MSTORE PUSH1 0x20 ADD PUSH0 PUSH16 0xFFFFFFFFFFFFFFFFFFFFFFFFFFFFFFFF AND DUP2 MSTORE PUSH1 0x20 ADD PUSH0 PUSH1 0xF SIGNEXTEND DUP2 MSTORE POP SWAP1 JUMP JUMPDEST PUSH0 PUSH1 0x40 MLOAD SWAP1 POP SWAP1 JUMP JUMPDEST PUSH0 DUP1 REVERT JUMPDEST PUSH0 DUP1 REVERT JUMPDEST PUSH0 PUSH20 0xFFFFFFFFFFFFFFFFFFFFFFFFFFFFFFFFFFFFFFFF DUP3 AND SWAP1 POP SWAP2 SWAP1 POP JUMP JUMPDEST PUSH0 PUSH2 0x10B8 DUP3 PUSH2 0x108F JUMP JUMPDEST SWAP1 POP SWAP2 SWAP1 POP JUMP JUMPDEST PUSH2 0x10C8 DUP2 PUSH2 0x10AE JUMP JUMPDEST DUP2 EQ PUSH2 0x10D2 JUMPI PUSH0 DUP1 REVERT JUMPDEST POP JUMP JUMPDEST PUSH0 DUP2 CALLDATALOAD SWAP1 POP PUSH2 0x10E3 DUP2 PUSH2 0x10BF JUMP JUMPDEST SWAP3 SWAP2 POP POP JUMP JUMPDEST PUSH0 DUP1 REVERT JUMPDEST PUSH0 DUP1 REVERT JUMPDEST PUSH0 DUP1 REVERT JUMPDEST PUSH0 DUP1 DUP4 PUSH1 0x1F DUP5 ADD SLT PUSH2 0x110A JUMPI PUSH2 0x1109 PUSH2 0x10E9 JUMP JUMPDEST JUMPDEST DUP3 CALLDATALOAD SWAP1 POP PUSH8 0xFFFFFFFFFFFFFFFF DUP2 GT ISZERO PUSH2 0x1127 JUMPI PUSH2 0x1126 PUSH2 0x10ED JUMP JUMPDEST JUMPDEST PUSH1 0x20 DUP4 ADD SWAP2 POP DUP4 PUSH1 0x60 DUP3 MUL DUP4 ADD GT ISZERO PUSH2 0x1143 JUMPI PUSH2 0x1142 PUSH2 0x10F1 JUMP JUMPDEST JUMPDEST SWAP3 POP SWAP3 SWAP1 POP JUMP JUMPDEST PUSH0 DUP1 PUSH0 PUSH1 0x40 DUP5 DUP7 SUB SLT ISZERO PUSH2 0x1161 JUMPI PUSH2 0x1160 PUSH2 0x1087 JUMP JUMPDEST JUMPDEST PUSH0 PUSH2 0x116E DUP7 DUP3 DUP8 ADD PUSH2 0x10D5 JUMP JUMPDEST SWAP4 POP POP PUSH1 0x20 DUP5 ADD CALLDATALOAD PUSH8 0xFFFFFFFFFFFFFFFF DUP2 GT ISZERO PUSH2 0x118F JUMPI PUSH2 0x118E PUSH2 0x108B JUMP JUMPDEST JUMPDEST PUSH2 0x119B DUP7 DUP3 DUP8 ADD PUSH2 0x10F5 JUMP JUMPDEST SWAP3 POP SWAP3 POP POP SWAP3 POP SWAP3 POP SWAP3 JUMP JUMPDEST PUSH0 DUP2 MLOAD SWAP1 POP SWAP2 SWAP1 POP JUMP JUMPDEST PUSH0 DUP3 DUP3 MSTORE PUSH1 0x20 DUP3 ADD SWAP1 POP SWAP3 SWAP2 POP POP JUMP JUMPDEST PUSH0 DUP2 SWAP1 POP PUSH1 0x20 DUP3 ADD SWAP1 POP SWAP2 SWAP1 POP JUMP JUMPDEST PUSH2 0x11D9 DUP2 PUSH2 0x10AE JUMP JUMPDEST DUP3 MSTORE POP POP JUMP JUMPDEST PUSH0 DUP2 SWAP1 POP SWAP2 SWAP1 POP JUMP JUMPDEST PUSH2 0x11F1 DUP2 PUSH2 0x11DF JUMP JUMPDEST DUP3 MSTORE POP POP JUMP JUMPDEST PUSH0 DUP2 PUSH1 0x2 SIGNEXTEND SWAP1 POP SWAP2 SWAP1 POP JUMP JUMPDEST PUSH2 0x120C DUP2 PUSH2 0x11F7 JUMP JUMPDEST DUP3 MSTORE POP POP JUMP JUMPDEST PUSH2 0x121B DUP2 PUSH2 0x108F JUMP JUMPDEST DUP3 MSTORE POP POP JUMP JUMPDEST PUSH0 PUSH16 0xFFFFFFFFFFFFFFFFFFFFFFFFFFFFFFFF DUP3 AND SWAP1 POP SWAP2 SWAP1 POP JUMP JUMPDEST PUSH2 0x1245 DUP2 PUSH2 0x1221 JUMP JUMPDEST DUP3 MSTORE POP POP JUMP JUMPDEST PUSH0 DUP2 MLOAD SWAP1 POP SWAP2 SWAP1 POP JUMP JUMPDEST PUSH0 DUP3 DUP3 MSTORE PUSH1 0x20 DUP3 ADD SWAP1 POP SWAP3 SWAP2 POP POP JUMP JUMPDEST PUSH0 DUP2 SWAP1 POP PUSH1 0x20 DUP3 ADD SWAP1 POP SWAP2 SWAP1 POP JUMP JUMPDEST PUSH0 DUP2 PUSH1 0xF SIGNEXTEND SWAP1 POP SWAP2 SWAP1 POP JUMP JUMPDEST PUSH2 0x1289 DUP2 PUSH2 0x1274 JUMP JUMPDEST DUP3 MSTORE POP POP JUMP JUMPDEST PUSH1 0x60 DUP3 ADD PUSH0 DUP3 ADD MLOAD PUSH2 0x12A3 PUSH0 DUP6 ADD DUP3 PUSH2 0x1203 JUMP JUMPDEST POP PUSH1 0x20 DUP3 ADD MLOAD PUSH2 0x12B6 PUSH1 0x20 DUP6 ADD DUP3 PUSH2 0x123C JUMP JUMPDEST POP PUSH1 0x40 DUP3 ADD MLOAD PUSH2 0x12C9 PUSH1 0x40 DUP6 ADD DUP3 PUSH2 0x1280 JUMP JUMPDEST POP POP POP POP JUMP JUMPDEST PUSH0 PUSH2 0x12DA DUP4 DUP4 PUSH2 0x128F JUMP JUMPDEST PUSH1 0x60 DUP4 ADD SWAP1 POP SWAP3 SWAP2 POP POP JUMP JUMPDEST PUSH0 PUSH1 0x20 DUP3 ADD SWAP1 POP SWAP2 SWAP1 POP JUMP JUMPDEST PUSH0 PUSH2 0x12FC DUP3 PUSH2 0x124B JUMP JUMPDEST PUSH2 0x1306 DUP2 DUP6 PUSH2 0x1255 JUMP JUMPDEST SWAP4 POP PUSH2 0x1311 DUP4 PUSH2 0x1265 JUMP JUMPDEST DUP1 PUSH0 JUMPDEST DUP4 DUP2 LT ISZERO PUSH2 0x1341 JUMPI DUP2 MLOAD PUSH2 0x1328 DUP9 DUP3 PUSH2 0x12CF JUMP JUMPDEST SWAP8 POP PUSH2 0x1333 DUP4 PUSH2 0x12E6 JUMP JUMPDEST SWAP3 POP POP PUSH1 0x1 DUP2 ADD SWAP1 POP PUSH2 0x1314 JUMP JUMPDEST POP DUP6 SWAP4 POP POP POP POP SWAP3 SWAP2 POP POP JUMP JUMPDEST PUSH0 PUSH2 0x140 DUP4 ADD PUSH0 DUP4 ADD MLOAD PUSH2 0x1364 PUSH0 DUP7 ADD DUP3 PUSH2 0x11D0 JUMP JUMPDEST POP PUSH1 0x20 DUP4 ADD MLOAD PUSH2 0x1377 PUSH1 0x20 DUP7 ADD DUP3 PUSH2 0x11D0 JUMP JUMPDEST POP PUSH1 0x40 DUP4 ADD MLOAD PUSH2 0x138A PUSH1 0x40 DUP7 ADD DUP3 PUSH2 0x11E8 JUMP JUMPDEST POP PUSH1 0x60 DUP4 ADD MLOAD PUSH2 0x139D PUSH1 0x60 DUP7 ADD DUP3 PUSH2 0x11D0 JUMP JUMPDEST POP PUSH1 0x80 DUP4 ADD MLOAD PUSH2 0x13B0 PUSH1 0x80 DUP7 ADD DUP3 PUSH2 0x11E8 JUMP JUMPDEST POP PUSH1 0xA0 DUP4 ADD MLOAD PUSH2 0x13C3 PUSH1 0xA0 DUP7 ADD DUP3 PUSH2 0x1203 JUMP JUMPDEST POP PUSH1 0xC0 DUP4 ADD MLOAD PUSH2 0x13D6 PUSH1 0xC0 DUP7 ADD DUP3 PUSH2 0x1212 JUMP JUMPDEST POP PUSH1 0xE0 DUP4 ADD MLOAD PUSH2 0x13E9 PUSH1 0xE0 DUP7 ADD DUP3 PUSH2 0x1203 JUMP JUMPDEST POP PUSH2 0x100 DUP4 ADD MLOAD PUSH2 0x13FE PUSH2 0x100 DUP7 ADD DUP3 PUSH2 0x123C JUMP JUMPDEST POP PUSH2 0x120 DUP4 ADD MLOAD DUP5 DUP3 SUB PUSH2 0x120 DUP7 ADD MSTORE PUSH2 0x1418 DUP3 DUP3 PUSH2 0x12F2 JUMP JUMPDEST SWAP2 POP POP DUP1 SWAP2 POP POP SWAP3 SWAP2 POP POP JUMP JUMPDEST PUSH0 PUSH2 0x1430 DUP4 DUP4 PUSH2 0x134E JUMP JUMPDEST SWAP1 POP SWAP3 SWAP2 POP POP JUMP JUMPDEST PUSH0 PUSH1 0x20 DUP3 ADD SWAP1 POP SWAP2 SWAP1 POP JUMP JUMPDEST PUSH0 PUSH2 0x144E DUP3 PUSH2 0x11A7 JUMP JUMPDEST PUSH2 0x1458 DUP2 DUP6 PUSH2 0x11B1 JUMP JUMPDEST SWAP4 POP DUP4 PUSH1 0x20 DUP3 MUL DUP6 ADD PUSH2 0x146A DUP6 PUSH2 0x11C1 JUMP JUMPDEST DUP1 PUSH0 JUMPDEST DUP6 DUP2 LT ISZERO PUSH2 0x14A5 JUMPI DUP5 DUP5 SUB DUP10 MSTORE DUP2 MLOAD PUSH2 0x1486 DUP6 DUP3 PUSH2 0x1425 JUMP JUMPDEST SWAP5 POP PUSH2 0x1491 DUP4 PUSH2 0x1438 JUMP JUMPDEST SWAP3 POP PUSH1 0x20 DUP11 ADD SWAP10 POP POP PUSH1 0x1 DUP2 ADD SWAP1 POP PUSH2 0x146D JUMP JUMPDEST POP DUP3 SWAP8 POP DUP8 SWAP6 POP POP POP POP POP POP SWAP3 SWAP2 POP POP JUMP JUMPDEST PUSH0 PUSH1 0x20 DUP3 ADD SWAP1 POP DUP2 DUP2 SUB PUSH0 DUP4 ADD MSTORE PUSH2 0x14CF DUP2 DUP5 PUSH2 0x1444 JUMP JUMPDEST SWAP1 POP SWAP3 SWAP2 POP POP JUMP JUMPDEST PUSH2 0x14E0 DUP2 PUSH2 0x11F7 JUMP JUMPDEST DUP2 EQ PUSH2 0x14EA JUMPI PUSH0 DUP1 REVERT JUMPDEST POP JUMP JUMPDEST PUSH0 DUP2 CALLDATALOAD SWAP1 POP PUSH2 0x14FB DUP2 PUSH2 0x14D7 JUMP JUMPDEST SWAP3 SWAP2 POP POP JUMP JUMPDEST PUSH0 DUP1 PUSH1 0x40 DUP4 DUP6 SUB SLT ISZERO PUSH2 0x1517 JUMPI PUSH2 0x1516 PUSH2 0x1087 JUMP JUMPDEST JUMPDEST PUSH0 PUSH2 0x1524 DUP6 DUP3 DUP7 ADD PUSH2 0x14ED JUMP JUMPDEST SWAP3 POP POP PUSH1 0x20 PUSH2 0x1535 DUP6 DUP3 DUP7 ADD PUSH2 0x14ED JUMP JUMPDEST SWAP2 POP POP SWAP3 POP SWAP3 SWAP1 POP JUMP JUMPDEST PUSH0 DUP2 PUSH1 0x1 SIGNEXTEND SWAP1 POP SWAP2 SWAP1 POP JUMP JUMPDEST PUSH2 0x1554 DUP2 PUSH2 0x153F JUMP JUMPDEST DUP3 MSTORE POP POP JUMP JUMPDEST PUSH0 PUSH1 0x20 DUP3 ADD SWAP1 POP PUSH2 0x156D PUSH0 DUP4 ADD DUP5 PUSH2 0x154B JUMP JUMPDEST SWAP3 SWAP2 POP POP JUMP JUMPDEST PUSH0 PUSH1 0x1F NOT PUSH1 0x1F DUP4 ADD AND SWAP1 POP SWAP2 SWAP1 POP JUMP JUMPDEST PUSH32 0x4E487B7100000000000000000000000000000000000000000000000000000000 PUSH0 MSTORE PUSH1 0x41 PUSH1 0x4 MSTORE PUSH1 0x24 PUSH0 REVERT JUMPDEST PUSH2 0x15B9 DUP3 PUSH2 0x1573 JUMP JUMPDEST DUP2 ADD DUP2 DUP2 LT PUSH8 0xFFFFFFFFFFFFFFFF DUP3 GT OR ISZERO PUSH2 0x15D8 JUMPI PUSH2 0x15D7 PUSH2 0x1583 JUMP JUMPDEST JUMPDEST DUP1 PUSH1 0x40 MSTORE POP POP POP JUMP JUMPDEST PUSH0 PUSH2 0x15EA PUSH2 0x107E JUMP JUMPDEST SWAP1 POP PUSH2 0x15F6 DUP3 DUP3 PUSH2 0x15B0 JUMP JUMPDEST SWAP2 SWAP1 POP JUMP JUMPDEST PUSH0 PUSH8 0xFFFFFFFFFFFFFFFF DUP3 GT ISZERO PUSH2 0x1615 JUMPI PUSH2 0x1614 PUSH2 0x1583 JUMP JUMPDEST JUMPDEST PUSH1 0x20 DUP3 MUL SWAP1 POP PUSH1 0x20 DUP2 ADD SWAP1 POP SWAP2 SWAP1 POP JUMP JUMPDEST PUSH2 0x162F DUP2 PUSH2 0x11DF JUMP JUMPDEST DUP2 EQ PUSH2 0x1639 JUMPI PUSH0 DUP1 REVERT JUMPDEST POP JUMP JUMPDEST PUSH0 DUP2 CALLDATALOAD SWAP1 POP PUSH2 0x164A DUP2 PUSH2 0x1626 JUMP JUMPDEST SWAP3 SWAP2 POP POP JUMP JUMPDEST PUSH0 PUSH2 0x1662 PUSH2 0x165D DUP5 PUSH2 0x15FB JUMP JUMPDEST PUSH2 0x15E1 JUMP JUMPDEST SWAP1 POP DUP1 DUP4 DUP3 MSTORE PUSH1 0x20 DUP3 ADD SWAP1 POP PUSH1 0x20 DUP5 MUL DUP4 ADD DUP6 DUP2 GT ISZERO PUSH2 0x1685 JUMPI PUSH2 0x1684 PUSH2 0x10F1 JUMP JUMPDEST JUMPDEST DUP4 JUMPDEST DUP2 DUP2 LT ISZERO PUSH2 0x16AE JUMPI DUP1 PUSH2 0x169A DUP9 DUP3 PUSH2 0x163C JUMP JUMPDEST DUP5 MSTORE PUSH1 0x20 DUP5 ADD SWAP4 POP POP PUSH1 0x20 DUP2 ADD SWAP1 POP PUSH2 0x1687 JUMP JUMPDEST POP POP POP SWAP4 SWAP3 POP POP POP JUMP JUMPDEST PUSH0 DUP3 PUSH1 0x1F DUP4 ADD SLT PUSH2 0x16CC JUMPI PUSH2 0x16CB PUSH2 0x10E9 JUMP JUMPDEST JUMPDEST DUP2 CALLDATALOAD PUSH2 0x16DC DUP5 DUP3 PUSH1 0x20 DUP7 ADD PUSH2 0x1650 JUMP JUMPDEST SWAP2 POP POP SWAP3 SWAP2 POP POP JUMP JUMPDEST PUSH2 0x16EE DUP2 PUSH2 0x153F JUMP JUMPDEST DUP2 EQ PUSH2 0x16F8 JUMPI PUSH0 DUP1 REVERT JUMPDEST POP JUMP JUMPDEST PUSH0 DUP2 CALLDATALOAD SWAP1 POP PUSH2 0x1709 DUP2 PUSH2 0x16E5 JUMP JUMPDEST SWAP3 SWAP2 POP POP JUMP JUMPDEST PUSH0 DUP1 PUSH0 PUSH1 0x60 DUP5 DUP7 SUB SLT ISZERO PUSH2 0x1726 JUMPI PUSH2 0x1725 PUSH2 0x1087 JUMP JUMPDEST JUMPDEST PUSH0 DUP5 ADD CALLDATALOAD PUSH8 0xFFFFFFFFFFFFFFFF DUP2 GT ISZERO PUSH2 0x1743 JUMPI PUSH2 0x1742 PUSH2 0x108B JUMP JUMPDEST JUMPDEST PUSH2 0x174F DUP7 DUP3 DUP8 ADD PUSH2 0x16B8 JUMP JUMPDEST SWAP4 POP POP PUSH1 0x20 PUSH2 0x1760 DUP7 DUP3 DUP8 ADD PUSH2 0x16FB JUMP JUMPDEST SWAP3 POP POP PUSH1 0x40 PUSH2 0x1771 DUP7 DUP3 DUP8 ADD PUSH2 0x14ED JUMP JUMPDEST SWAP2 POP POP SWAP3 POP SWAP3 POP SWAP3 JUMP JUMPDEST PUSH0 DUP2 MLOAD SWAP1 POP SWAP2 SWAP1 POP JUMP JUMPDEST PUSH0 DUP3 DUP3 MSTORE PUSH1 0x20 DUP3 ADD SWAP1 POP SWAP3 SWAP2 POP POP JUMP JUMPDEST PUSH0 DUP2 SWAP1 POP PUSH1 0x20 DUP3 ADD SWAP1 POP SWAP2 SWAP1 POP JUMP JUMPDEST PUSH0 PUSH2 0x17AF DUP4 DUP4 PUSH2 0x1203 JUMP JUMPDEST PUSH1 0x20 DUP4 ADD SWAP1 POP SWAP3 SWAP2 POP POP JUMP JUMPDEST PUSH0 PUSH1 0x20 DUP3 ADD SWAP1 POP SWAP2 SWAP1 POP JUMP JUMPDEST PUSH0 PUSH2 0x17D1 DUP3 PUSH2 0x177B JUMP JUMPDEST PUSH2 0x17DB DUP2 DUP6 PUSH2 0x1785 JUMP JUMPDEST SWAP4 POP PUSH2 0x17E6 DUP4 PUSH2 0x1795 JUMP JUMPDEST DUP1 PUSH0 JUMPDEST DUP4 DUP2 LT ISZERO PUSH2 0x1816 JUMPI DUP2 MLOAD PUSH2 0x17FD DUP9 DUP3 PUSH2 0x17A4 JUMP JUMPDEST SWAP8 POP PUSH2 0x1808 DUP4 PUSH2 0x17BB JUMP JUMPDEST SWAP3 POP POP PUSH1 0x1 DUP2 ADD SWAP1 POP PUSH2 0x17E9 JUMP JUMPDEST POP DUP6 SWAP4 POP POP POP POP SWAP3 SWAP2 POP POP JUMP JUMPDEST PUSH0 PUSH1 0x20 DUP3 ADD SWAP1 POP DUP2 DUP2 SUB PUSH0 DUP4 ADD MSTORE PUSH2 0x183B DUP2 DUP5 PUSH2 0x17C7 JUMP JUMPDEST SWAP1 POP SWAP3 SWAP2 POP POP JUMP JUMPDEST PUSH0 DUP1 PUSH1 0x40 DUP4 DUP6 SUB SLT ISZERO PUSH2 0x1859 JUMPI PUSH2 0x1858 PUSH2 0x1087 JUMP JUMPDEST JUMPDEST PUSH0 PUSH2 0x1866 DUP6 DUP3 DUP7 ADD PUSH2 0x10D5 JUMP JUMPDEST SWAP3 POP POP PUSH1 0x20 PUSH2 0x1877 DUP6 DUP3 DUP7 ADD PUSH2 0x14ED JUMP JUMPDEST SWAP2 POP POP SWAP3 POP SWAP3 SWAP1 POP JUMP JUMPDEST PUSH0 DUP3 DUP3 MSTORE PUSH1 0x20 DUP3 ADD SWAP1 POP SWAP3 SWAP2 POP POP JUMP JUMPDEST PUSH0 PUSH2 0x189B DUP3 PUSH2 0x124B JUMP JUMPDEST PUSH2 0x18A5 DUP2 DUP6 PUSH2 0x1881 JUMP JUMPDEST SWAP4 POP PUSH2 0x18B0 DUP4 PUSH2 0x1265 JUMP JUMPDEST DUP1 PUSH0 JUMPDEST DUP4 DUP2 LT ISZERO PUSH2 0x18E0 JUMPI DUP2 MLOAD PUSH2 0x18C7 DUP9 DUP3 PUSH2 0x12CF JUMP JUMPDEST SWAP8 POP PUSH2 0x18D2 DUP4 PUSH2 0x12E6 JUMP JUMPDEST SWAP3 POP POP PUSH1 0x1 DUP2 ADD SWAP1 POP PUSH2 0x18B3 JUMP JUMPDEST POP DUP6 SWAP4 POP POP POP POP SWAP3 SWAP2 POP POP JUMP JUMPDEST PUSH0 PUSH1 0x20 DUP3 ADD SWAP1 POP DUP2 DUP2 SUB PUSH0 DUP4 ADD MSTORE PUSH2 0x1905 DUP2 DUP5 PUSH2 0x1891 JUMP JUMPDEST SWAP1 POP SWAP3 SWAP2 POP POP JUMP JUMPDEST PUSH0 PUSH1 0x20 DUP3 DUP5 SUB SLT ISZERO PUSH2 0x1922 JUMPI PUSH2 0x1921 PUSH2 0x1087 JUMP JUMPDEST JUMPDEST PUSH0 PUSH2 0x192F DUP5 DUP3 DUP6 ADD PUSH2 0x10D5 JUMP JUMPDEST SWAP2 POP POP SWAP3 SWAP2 POP POP JUMP JUMPDEST PUSH2 0x1941 DUP2 PUSH2 0x108F JUMP JUMPDEST DUP3 MSTORE POP POP JUMP JUMPDEST PUSH2 0x1950 DUP2 PUSH2 0x11F7 JUMP JUMPDEST DUP3 MSTORE POP POP JUMP JUMPDEST PUSH2 0x195F DUP2 PUSH2 0x1221 JUMP JUMPDEST DUP3 MSTORE POP POP JUMP JUMPDEST PUSH0 PUSH1 0x60 DUP3 ADD SWAP1 POP PUSH2 0x1978 PUSH0 DUP4 ADD DUP7 PUSH2 0x1938 JUMP JUMPDEST PUSH2 0x1985 PUSH1 0x20 DUP4 ADD DUP6 PUSH2 0x1947 JUMP JUMPDEST PUSH2 0x1992 PUSH1 0x40 DUP4 ADD DUP5 PUSH2 0x1956 JUMP JUMPDEST SWAP5 SWAP4 POP POP POP POP JUMP JUMPDEST PUSH32 0x4E487B7100000000000000000000000000000000000000000000000000000000 PUSH0 MSTORE PUSH1 0x32 PUSH1 0x4 MSTORE PUSH1 0x24 PUSH0 REVERT JUMPDEST PUSH0 PUSH3 0xFFFFFF DUP3 AND SWAP1 POP SWAP2 SWAP1 POP JUMP JUMPDEST PUSH2 0x19DE DUP2 PUSH2 0x19C7 JUMP JUMPDEST DUP2 EQ PUSH2 0x19E8 JUMPI PUSH0 DUP1 REVERT JUMPDEST POP JUMP JUMPDEST PUSH0 DUP2 CALLDATALOAD SWAP1 POP PUSH2 0x19F9 DUP2 PUSH2 0x19D5 JUMP JUMPDEST SWAP3 SWAP2 POP POP JUMP JUMPDEST PUSH0 PUSH1 0x20 DUP3 DUP5 SUB SLT ISZERO PUSH2 0x1A14 JUMPI PUSH2 0x1A13 PUSH2 0x1087 JUMP JUMPDEST JUMPDEST PUSH0 PUSH2 0x1A21 DUP5 DUP3 DUP6 ADD PUSH2 0x19EB JUMP JUMPDEST SWAP2 POP POP SWAP3 SWAP2 POP POP JUMP JUMPDEST PUSH2 0x1A33 DUP2 PUSH2 0x10AE JUMP JUMPDEST DUP3 MSTORE POP POP JUMP JUMPDEST PUSH2 0x1A42 DUP2 PUSH2 0x19C7 JUMP JUMPDEST DUP3 MSTORE POP POP JUMP JUMPDEST PUSH0 PUSH1 0x60 DUP3 ADD SWAP1 POP PUSH2 0x1A5B PUSH0 DUP4 ADD DUP7 PUSH2 0x1A2A JUMP JUMPDEST PUSH2 0x1A68 PUSH1 0x20 DUP4 ADD DUP6 PUSH2 0x1A2A JUMP JUMPDEST PUSH2 0x1A75 PUSH1 0x40 DUP4 ADD DUP5 PUSH2 0x1A39 JUMP JUMPDEST SWAP5 SWAP4 POP POP POP POP JUMP JUMPDEST PUSH0 DUP2 MLOAD SWAP1 POP PUSH2 0x1A8B DUP2 PUSH2 0x10BF JUMP JUMPDEST SWAP3 SWAP2 POP POP JUMP JUMPDEST PUSH0 PUSH1 0x20 DUP3 DUP5 SUB SLT ISZERO PUSH2 0x1AA6 JUMPI PUSH2 0x1AA5 PUSH2 0x1087 JUMP JUMPDEST JUMPDEST PUSH0 PUSH2 0x1AB3 DUP5 DUP3 DUP6 ADD PUSH2 0x1A7D JUMP JUMPDEST SWAP2 POP POP SWAP3 SWAP2 POP POP JUMP JUMPDEST PUSH0 PUSH1 0x20 DUP3 ADD SWAP1 POP PUSH2 0x1ACF PUSH0 DUP4 ADD DUP5 PUSH2 0x1A2A JUMP JUMPDEST SWAP3 SWAP2 POP POP JUMP JUMPDEST PUSH0 DUP2 MLOAD SWAP1 POP PUSH2 0x1AE3 DUP2 PUSH2 0x1626 JUMP JUMPDEST SWAP3 SWAP2 POP POP JUMP JUMPDEST PUSH0 PUSH1 0x20 DUP3 DUP5 SUB SLT ISZERO PUSH2 0x1AFE JUMPI PUSH2 0x1AFD PUSH2 0x1087 JUMP JUMPDEST JUMPDEST PUSH0 PUSH2 0x1B0B DUP5 DUP3 DUP6 ADD PUSH2 0x1AD5 JUMP JUMPDEST SWAP2 POP POP SWAP3 SWAP2 POP POP JUMP JUMPDEST PUSH0 DUP2 MLOAD SWAP1 POP PUSH2 0x1B22 DUP2 PUSH2 0x14D7 JUMP JUMPDEST SWAP3 SWAP2 POP POP JUMP JUMPDEST PUSH0 PUSH1 0x20 DUP3 DUP5 SUB SLT ISZERO PUSH2 0x1B3D JUMPI PUSH2 0x1B3C PUSH2 0x1087 JUMP JUMPDEST JUMPDEST PUSH0 PUSH2 0x1B4A DUP5 DUP3 DUP6 ADD PUSH2 0x1B14 JUMP JUMPDEST SWAP2 POP POP SWAP3 SWAP2 POP POP JUMP JUMPDEST PUSH32 0x4E487B7100000000000000000000000000000000000000000000000000000000 PUSH0 MSTORE PUSH1 0x12 PUSH1 0x4 MSTORE PUSH1 0x24 PUSH0 REVERT JUMPDEST PUSH32 0x4E487B7100000000000000000000000000000000000000000000000000000000 PUSH0 MSTORE PUSH1 0x11 PUSH1 0x4 MSTORE PUSH1 0x24 PUSH0 REVERT JUMPDEST PUSH0 PUSH2 0x1BB7 DUP3 PUSH2 0x11F7 JUMP JUMPDEST SWAP2 POP PUSH2 0x1BC2 DUP4 PUSH2 0x11F7 JUMP JUMPDEST SWAP3 POP DUP3 PUSH2 0x1BD2 JUMPI PUSH2 0x1BD1 PUSH2 0x1B53 JUMP JUMPDEST JUMPDEST PUSH1 0x1 PUSH0 SUB DUP4 EQ PUSH32 0xFFFFFFFFFFFFFFFFFFFFFFFFFFFFFFFFFFFFFFFFFFFFFFFFFFFFFFFFFF800000 DUP4 EQ AND ISZERO PUSH2 0x1C0A JUMPI PUSH2 0x1C09 PUSH2 0x1B80 JUMP JUMPDEST JUMPDEST DUP3 DUP3 SDIV SWAP1 POP SWAP3 SWAP2 POP POP JUMP JUMPDEST PUSH0 PUSH2 0x1C1F DUP3 PUSH2 0x11F7 JUMP JUMPDEST SWAP2 POP PUSH2 0x1C2A DUP4 PUSH2 0x11F7 JUMP JUMPDEST SWAP3 POP DUP3 PUSH2 0x1C3A JUMPI PUSH2 0x1C39 PUSH2 0x1B53 JUMP JUMPDEST JUMPDEST DUP3 DUP3 SMOD SWAP1 POP SWAP3 SWAP2 POP POP JUMP JUMPDEST PUSH0 PUSH2 0x1C4F DUP3 PUSH2 0x11F7 JUMP JUMPDEST SWAP2 POP PUSH2 0x1C5A DUP4 PUSH2 0x11F7 JUMP JUMPDEST SWAP3 POP DUP3 DUP3 SUB SWAP1 POP PUSH3 0x7FFFFF DUP2 SGT PUSH32 0xFFFFFFFFFFFFFFFFFFFFFFFFFFFFFFFFFFFFFFFFFFFFFFFFFFFFFFFFFF800000 DUP3 SLT OR ISZERO PUSH2 0x1C99 JUMPI PUSH2 0x1C98 PUSH2 0x1B80 JUMP JUMPDEST JUMPDEST SWAP3 SWAP2 POP POP JUMP JUMPDEST PUSH0 PUSH2 0x1CA9 DUP3 PUSH2 0x11DF JUMP JUMPDEST SWAP2 POP PUSH32 0xFFFFFFFFFFFFFFFFFFFFFFFFFFFFFFFFFFFFFFFFFFFFFFFFFFFFFFFFFFFFFFFF DUP3 SUB PUSH2 0x1CDB JUMPI PUSH2 0x1CDA PUSH2 0x1B80 JUMP JUMPDEST JUMPDEST PUSH1 0x1 DUP3 ADD SWAP1 POP SWAP2 SWAP1 POP JUMP JUMPDEST PUSH0 PUSH2 0x1CF0 DUP3 PUSH2 0x153F JUMP JUMPDEST SWAP2 POP PUSH2 0x1CFB DUP4 PUSH2 0x153F JUMP JUMPDEST SWAP3 POP DUP3 DUP3 ADD SWAP1 POP PUSH32 0xFFFFFFFFFFFFFFFFFFFFFFFFFFFFFFFFFFFFFFFFFFFFFFFFFFFFFFFFFFFF8000 DUP2 SLT PUSH2 0x7FFF DUP3 SGT OR ISZERO PUSH2 0x1D39 JUMPI PUSH2 0x1D38 PUSH2 0x1B80 JUMP JUMPDEST JUMPDEST SWAP3 SWAP2 POP POP JUMP JUMPDEST PUSH0 PUSH2 0x1D49 DUP3 PUSH2 0x11F7 JUMP JUMPDEST SWAP2 POP PUSH2 0x1D54 DUP4 PUSH2 0x11F7 JUMP JUMPDEST SWAP3 POP DUP3 DUP3 MUL PUSH2 0x1D62 DUP2 PUSH2 0x11F7 JUMP JUMPDEST SWAP2 POP DUP1 DUP3 EQ PUSH2 0x1D74 JUMPI PUSH2 0x1D73 PUSH2 0x1B80 JUMP JUMPDEST JUMPDEST POP SWAP3 SWAP2 POP POP JUMP JUMPDEST PUSH0 PUSH2 0x1D85 DUP3 PUSH2 0x11F7 JUMP JUMPDEST SWAP2 POP PUSH2 0x1D90 DUP4 PUSH2 0x11F7 JUMP JUMPDEST SWAP3 POP DUP3 DUP3 ADD SWAP1 POP PUSH32 0xFFFFFFFFFFFFFFFFFFFFFFFFFFFFFFFFFFFFFFFFFFFFFFFFFFFFFFFFFF800000 DUP2 SLT PUSH3 0x7FFFFF DUP3 SGT OR ISZERO PUSH2 0x1DCF JUMPI PUSH2 0x1DCE PUSH2 0x1B80 JUMP JUMPDEST JUMPDEST SWAP3 SWAP2 POP POP JUMP JUMPDEST PUSH0 PUSH2 0x1DDF DUP3 PUSH2 0x153F JUMP JUMPDEST SWAP2 POP PUSH2 0x1DEA DUP4 PUSH2 0x153F JUMP JUMPDEST SWAP3 POP DUP3 DUP3 SUB SWAP1 POP PUSH2 0x7FFF DUP2 SGT PUSH32 0xFFFFFFFFFFFFFFFFFFFFFFFFFFFFFFFFFFFFFFFFFFFFFFFFFFFFFFFFFFFF8000 DUP3 SLT OR ISZERO PUSH2 0x1E28 JUMPI PUSH2 0x1E27 PUSH2 0x1B80 JUMP JUMPDEST JUMPDEST SWAP3 SWAP2 POP POP JUMP JUMPDEST PUSH0 PUSH2 0x1E38 DUP3 PUSH2 0x153F JUMP JUMPDEST SWAP2 POP PUSH2 0x7FFF DUP3 SUB PUSH2 0x1E4C JUMPI PUSH2 0x1E4B PUSH2 0x1B80 JUMP JUMPDEST JUMPDEST PUSH1 0x1 DUP3 ADD SWAP1 POP SWAP2 SWAP1 POP JUMP JUMPDEST PUSH0 PUSH1 0x20 DUP3 ADD SWAP1 POP PUSH2 0x1E6A PUSH0 DUP4 ADD DUP5 PUSH2 0x1947 JUMP JUMPDEST SWAP3 SWAP2 POP POP JUMP JUMPDEST PUSH2 0x1E79 DUP2 PUSH2 0x1221 JUMP JUMPDEST DUP2 EQ PUSH2 0x1E83 JUMPI PUSH0 DUP1 REVERT JUMPDEST POP JUMP JUMPDEST PUSH0 DUP2 MLOAD SWAP1 POP PUSH2 0x1E94 DUP2 PUSH2 0x1E70 JUMP JUMPDEST SWAP3 SWAP2 POP POP JUMP JUMPDEST PUSH2 0x1EA3 DUP2 PUSH2 0x1274 JUMP JUMPDEST DUP2 EQ PUSH2 0x1EAD JUMPI PUSH0 DUP1 REVERT JUMPDEST POP JUMP JUMPDEST PUSH0 DUP2 MLOAD SWAP1 POP PUSH2 0x1EBE DUP2 PUSH2 0x1E9A JUMP JUMPDEST SWAP3 SWAP2 POP POP JUMP JUMPDEST PUSH0 DUP2 PUSH1 0x6 SIGNEXTEND SWAP1 POP SWAP2 SWAP1 POP JUMP JUMPDEST PUSH2 0x1ED9 DUP2 PUSH2 0x1EC4 JUMP JUMPDEST DUP2 EQ PUSH2 0x1EE3 JUMPI PUSH0 DUP1 REVERT JUMPDEST POP JUMP JUMPDEST PUSH0 DUP2 MLOAD SWAP1 POP PUSH2 0x1EF4 DUP2 PUSH2 0x1ED0 JUMP JUMPDEST SWAP3 SWAP2 POP POP JUMP JUMPDEST PUSH2 0x1F03 DUP2 PUSH2 0x108F JUMP JUMPDEST DUP2 EQ PUSH2 0x1F0D JUMPI PUSH0 DUP1 REVERT JUMPDEST POP JUMP JUMPDEST PUSH0 DUP2 MLOAD SWAP1 POP PUSH2 0x1F1E DUP2 PUSH2 0x1EFA JUMP JUMPDEST SWAP3 SWAP2 POP POP JUMP JUMPDEST PUSH0 PUSH4 0xFFFFFFFF DUP3 AND SWAP1 POP SWAP2 SWAP1 POP JUMP JUMPDEST PUSH2 0x1F3C DUP2 PUSH2 0x1F24 JUMP JUMPDEST DUP2 EQ PUSH2 0x1F46 JUMPI PUSH0 DUP1 REVERT JUMPDEST POP JUMP JUMPDEST PUSH0 DUP2 MLOAD SWAP1 POP PUSH2 0x1F57 DUP2 PUSH2 0x1F33 JUMP JUMPDEST SWAP3 SWAP2 POP POP JUMP JUMPDEST PUSH0 DUP2 ISZERO ISZERO SWAP1 POP SWAP2 SWAP1 POP JUMP JUMPDEST PUSH2 0x1F71 DUP2 PUSH2 0x1F5D JUMP JUMPDEST DUP2 EQ PUSH2 0x1F7B JUMPI PUSH0 DUP1 REVERT JUMPDEST POP JUMP JUMPDEST PUSH0 DUP2 MLOAD SWAP1 POP PUSH2 0x1F8C DUP2 PUSH2 0x1F68 JUMP JUMPDEST SWAP3 SWAP2 POP POP JUMP JUMPDEST PUSH0 DUP1 PUSH0 DUP1 PUSH0 DUP1 PUSH0 DUP1 PUSH2 0x100 DUP10 DUP12 SUB SLT ISZERO PUSH2 0x1FAF JUMPI PUSH2 0x1FAE PUSH2 0x1087 JUMP JUMPDEST JUMPDEST PUSH0 PUSH2 0x1FBC DUP12 DUP3 DUP13 ADD PUSH2 0x1E86 JUMP JUMPDEST SWAP9 POP POP PUSH1 0x20 PUSH2 0x1FCD DUP12 DUP3 DUP13 ADD PUSH2 0x1EB0 JUMP JUMPDEST SWAP8 POP POP PUSH1 0x40 PUSH2 0x1FDE DUP12 DUP3 DUP13 ADD PUSH2 0x1AD5 JUMP JUMPDEST SWAP7 POP POP PUSH1 0x60 PUSH2 0x1FEF DUP12 DUP3 DUP13 ADD PUSH2 0x1AD5 JUMP JUMPDEST SWAP6 POP POP PUSH1 0x80 PUSH2 0x2000 DUP12 DUP3 DUP13 ADD PUSH2 0x1EE6 JUMP JUMPDEST SWAP5 POP POP PUSH1 0xA0 PUSH2 0x2011 DUP12 DUP3 DUP13 ADD PUSH2 0x1F10 JUMP JUMPDEST SWAP4 POP POP PUSH1 0xC0 PUSH2 0x2022 DUP12 DUP3 DUP13 ADD PUSH2 0x1F49 JUMP JUMPDEST SWAP3 POP POP PUSH1 0xE0 PUSH2 0x2033 DUP12 DUP3 DUP13 ADD PUSH2 0x1F7E JUMP JUMPDEST SWAP2 POP POP SWAP3 SWAP6 SWAP9 POP SWAP3 SWAP6 SWAP9 SWAP1 SWAP4 SWAP7 POP JUMP JUMPDEST PUSH0 PUSH2 0xFFFF DUP3 AND SWAP1 POP SWAP2 SWAP1 POP JUMP JUMPDEST PUSH2 0x2059 DUP2 PUSH2 0x2043 JUMP JUMPDEST DUP2 EQ PUSH2 0x2063 JUMPI PUSH0 DUP1 REVERT JUMPDEST POP JUMP JUMPDEST PUSH0 DUP2 MLOAD SWAP1 POP PUSH2 0x2074 DUP2 PUSH2 0x2050 JUMP JUMPDEST SWAP3 SWAP2 POP POP JUMP JUMPDEST PUSH0 PUSH1 0xFF DUP3 AND SWAP1 POP SWAP2 SWAP1 POP JUMP JUMPDEST PUSH2 0x208F DUP2 PUSH2 0x207A JUMP JUMPDEST DUP2 EQ PUSH2 0x2099 JUMPI PUSH0 DUP1 REVERT JUMPDEST POP JUMP JUMPDEST PUSH0 DUP2 MLOAD SWAP1 POP PUSH2 0x20AA DUP2 PUSH2 0x2086 JUMP JUMPDEST SWAP3 SWAP2 POP POP JUMP JUMPDEST PUSH0 DUP1 PUSH0 DUP1 PUSH0 DUP1 PUSH0 PUSH1 0xE0 DUP9 DUP11 SUB SLT ISZERO PUSH2 0x20CB JUMPI PUSH2 0x20CA PUSH2 0x1087 JUMP JUMPDEST JUMPDEST PUSH0 PUSH2 0x20D8 DUP11 DUP3 DUP12 ADD PUSH2 0x1F10 JUMP JUMPDEST SWAP8 POP POP PUSH1 0x20 PUSH2 0x20E9 DUP11 DUP3 DUP12 ADD PUSH2 0x1B14 JUMP JUMPDEST SWAP7 POP POP PUSH1 0x40 PUSH2 0x20FA DUP11 DUP3 DUP12 ADD PUSH2 0x2066 JUMP JUMPDEST SWAP6 POP POP PUSH1 0x60 PUSH2 0x210B DUP11 DUP3 DUP12 ADD PUSH2 0x2066 JUMP JUMPDEST SWAP5 POP POP PUSH1 0x80 PUSH2 0x211C DUP11 DUP3 DUP12 ADD PUSH2 0x2066 JUMP JUMPDEST SWAP4 POP POP PUSH1 0xA0 PUSH2 0x212D DUP11 DUP3 DUP12 ADD PUSH2 0x209C JUMP JUMPDEST SWAP3 POP POP PUSH1 0xC0 PUSH2 0x213E DUP11 DUP3 DUP12 ADD PUSH2 0x1F7E JUMP JUMPDEST SWAP2 POP POP SWAP3 SWAP6 SWAP9 SWAP2 SWAP5 SWAP8 POP SWAP3 SWAP6 POP JUMP JUMPDEST PUSH0 PUSH1 0x20 DUP3 DUP5 SUB SLT ISZERO PUSH2 0x2162 JUMPI PUSH2 0x2161 PUSH2 0x1087 JUMP JUMPDEST JUMPDEST PUSH0 PUSH2 0x216F DUP5 DUP3 DUP6 ADD PUSH2 0x1E86 JUMP JUMPDEST SWAP2 POP POP SWAP3 SWAP2 POP POP JUMP INVALID LOG2 PUSH5 0x6970667358 0x22 SLT KECCAK256 DUP7 SWAP1 PUSH7 0x98D604F29A604C 0xEB 0xB7 0xB4 0x27 LOG4 0xD3 0x23 0xEA 0xF9 SWAP16 PUSH8 0xFC05BD544D22101F 0x1E EQ 0xC3 PUSH5 0x736F6C6343 STOP ADDMOD BYTE STOP CALLER "
		},
		"gasEstimates": {
			"creation": {
				"codeDepositCost": "1724400",
				"executionCost": "1811",
				"totalCost": "1726211"
			},
			"external": {
				"extractInitializedTicks(uint256[],int16,int24)": "infinite",
				"getPoolInfo(address,(address,address,uint24)[])": "infinite",
				"getPoolInfoWithoutTickData(address,(address,address,uint24)[])": "infinite",
				"getPoolStateData(address)": "infinite",
				"getPoolTicks(address,int24)": "infinite",
				"tickToWord(int24,int24)": "infinite"
			}
		},
		"methodIdentifiers": {
			"extractInitializedTicks(uint256[],int16,int24)": "919d472f",
			"getPoolInfo(address,(address,address,uint24)[])": "6eb35eab",
			"getPoolInfoWithoutTickData(address,(address,address,uint24)[])": "06449dd5",
			"getPoolStateData(address)": "cef2c939",
			"getPoolTicks(address,int24)": "98fcd0d3",
			"tickToWord(int24,int24)": "508e1e44"
		}
	},
	"abi": [
		{
			"inputs": [
				{
					"internalType": "uint256[]",
					"name": "tickBitMaps",
					"type": "uint256[]"
				},
				{
					"internalType": "int16",
					"name": "minWordPos",
					"type": "int16"
				},
				{
					"internalType": "int24",
					"name": "tickSpacing",
					"type": "int24"
				}
			],
			"name": "extractInitializedTicks",
			"outputs": [
				{
					"internalType": "int24[]",
					"name": "",
					"type": "int24[]"
				}
			],
			"stateMutability": "pure",
			"type": "function"
		},
		{
			"inputs": [
				{
					"internalType": "address",
					"name": "factoryAddress",
					"type": "address"
				},
				{
					"components": [
						{
							"internalType": "address",
							"name": "_token0Address",
							"type": "address"
						},
						{
							"internalType": "address",
							"name": "_token1Address",
							"type": "address"
						},
						{
							"internalType": "uint24",
							"name": "fee",
							"type": "uint24"
						}
					],
					"internalType": "struct IUniswapV3Data.PoolParam[]",
					"name": "poolParams",
					"type": "tuple[]"
				}
			],
			"name": "getPoolInfo",
			"outputs": [
				{
					"components": [
						{
							"internalType": "address",
							"name": "poolAddress",
							"type": "address"
						},
						{
							"internalType": "address",
							"name": "token0",
							"type": "address"
						},
						{
							"internalType": "uint256",
							"name": "token0Balance",
							"type": "uint256"
						},
						{
							"internalType": "address",
							"name": "token1",
							"type": "address"
						},
						{
							"internalType": "uint256",
							"name": "token1Balance",
							"type": "uint256"
						},
						{
							"internalType": "int24",
							"name": "tickSpacing",
							"type": "int24"
						},
						{
							"internalType": "uint160",
							"name": "sqrtPriceX96",
							"type": "uint160"
						},
						{
							"internalType": "int24",
							"name": "tick",
							"type": "int24"
						},
						{
							"internalType": "uint128",
							"name": "liquidity",
							"type": "uint128"
						},
						{
							"components": [
								{
									"internalType": "int24",
									"name": "tick",
									"type": "int24"
								},
								{
									"internalType": "uint128",
									"name": "liquidityGross",
									"type": "uint128"
								},
								{
									"internalType": "int128",
									"name": "liquidityNet",
									"type": "int128"
								}
							],
							"internalType": "struct IUniswapV3Data.PoolTick[]",
							"name": "ticks",
							"type": "tuple[]"
						}
					],
					"internalType": "struct IUniswapV3Data.PoolInfo[]",
					"name": "",
					"type": "tuple[]"
				}
			],
			"stateMutability": "view",
			"type": "function"
		},
		{
			"inputs": [
				{
					"internalType": "address",
					"name": "factoryAddress",
					"type": "address"
				},
				{
					"components": [
						{
							"internalType": "address",
							"name": "_token0Address",
							"type": "address"
						},
						{
							"internalType": "address",
							"name": "_token1Address",
							"type": "address"
						},
						{
							"internalType": "uint24",
							"name": "fee",
							"type": "uint24"
						}
					],
					"internalType": "struct IUniswapV3Data.PoolParam[]",
					"name": "poolParams",
					"type": "tuple[]"
				}
			],
			"name": "getPoolInfoWithoutTickData",
			"outputs": [
				{
					"components": [
						{
							"internalType": "address",
							"name": "poolAddress",
							"type": "address"
						},
						{
							"internalType": "address",
							"name": "token0",
							"type": "address"
						},
						{
							"internalType": "uint256",
							"name": "token0Balance",
							"type": "uint256"
						},
						{
							"internalType": "address",
							"name": "token1",
							"type": "address"
						},
						{
							"internalType": "uint256",
							"name": "token1Balance",
							"type": "uint256"
						},
						{
							"internalType": "int24",
							"name": "tickSpacing",
							"type": "int24"
						},
						{
							"internalType": "uint160",
							"name": "sqrtPriceX96",
							"type": "uint160"
						},
						{
							"internalType": "int24",
							"name": "tick",
							"type": "int24"
						},
						{
							"internalType": "uint128",
							"name": "liquidity",
							"type": "uint128"
						},
						{
							"components": [
								{
									"internalType": "int24",
									"name": "tick",
									"type": "int24"
								},
								{
									"internalType": "uint128",
									"name": "liquidityGross",
									"type": "uint128"
								},
								{
									"internalType": "int128",
									"name": "liquidityNet",
									"type": "int128"
								}
							],
							"internalType": "struct IUniswapV3Data.PoolTick[]",
							"name": "ticks",
							"type": "tuple[]"
						}
					],
					"internalType": "struct IUniswapV3Data.PoolInfo[]",
					"name": "",
					"type": "tuple[]"
				}
			],
			"stateMutability": "view",
			"type": "function"
		},
		{
			"inputs": [
				{
					"internalType": "address",
					"name": "poolAddress",
					"type": "address"
				}
			],
			"name": "getPoolStateData",
			"outputs": [
				{
					"internalType": "uint160",
					"name": "sqrtPriceX96",
					"type": "uint160"
				},
				{
					"internalType": "int24",
					"name": "tick",
					"type": "int24"
				},
				{
					"internalType": "uint128",
					"name": "liquidity",
					"type": "uint128"
				}
			],
			"stateMutability": "view",
			"type": "function"
		},
		{
			"inputs": [
				{
					"internalType": "address",
					"name": "poolAddress",
					"type": "address"
				},
				{
					"internalType": "int24",
					"name": "tickSpacing",
					"type": "int24"
				}
			],
			"name": "getPoolTicks",
			"outputs": [
				{
					"components": [
						{
							"internalType": "int24",
							"name": "tick",
							"type": "int24"
						},
						{
							"internalType": "uint128",
							"name": "liquidityGross",
							"type": "uint128"
						},
						{
							"internalType": "int128",
							"name": "liquidityNet",
							"type": "int128"
						}
					],
					"internalType": "struct IUniswapV3Data.PoolTick[]",
					"name": "",
					"type": "tuple[]"
				}
			],
			"stateMutability": "view",
			"type": "function"
		},
		{
			"inputs": [
				{
					"internalType": "int24",
					"name": "tick",
					"type": "int24"
				},
				{
					"internalType": "int24",
					"name": "tickSpacing",
					"type": "int24"
				}
			],
			"name": "tickToWord",
			"outputs": [
				{
					"internalType": "int16",
					"name": "",
					"type": "int16"
				}
			],
			"stateMutability": "pure",
			"type": "function"
		}
	]
}