{
	"data": {
		"bytecode": {
			"linkReferences": {},
			"object": "60e060405234801561000f575f80fd5b5073224cc4e5b50036108c1d862442365054600c260c73ffffffffffffffffffffffffffffffffffffffff1660808173ffffffffffffffffffffffffffffffffffffffff168152505073287b0e934ed0439e2a7b1d5f0fc25ea2c24b64f773ffffffffffffffffffffffffffffffffffffffff1660a08173ffffffffffffffffffffffffffffffffffffffff16815250507351adc79e7760ac5317a0d05e7a64c4f9cb2d436973ffffffffffffffffffffffffffffffffffffffff1660c08173ffffffffffffffffffffffffffffffffffffffff168152505060805160a05160c051611b3061013c5f395f81816103950152818161078a0152610b3c01525f818161061e0152818161085f0152610b9101525f818161028b0152818161040b01526106420152611b305ff3fe608060405234801561000f575f80fd5b50600436106100cd575f3560e01c806365b6c4f01161008a578063b941d3e011610064578063b941d3e014610215578063e9cbafb014610233578063f6c099f01461024f578063fa461e331461026d576100cd565b806365b6c4f014610197578063a24fcdbf146101c7578063ad5c4648146101f7576100cd565b806305ea3ed5146100d157806313c614fa146100ef5780632ccb1b301461010d5780634e6313721461013d57806353ce36a91461015b578063541bcb7614610179575b5f80fd5b6100d9610289565b6040516100e69190610e2a565b60405180910390f35b6100f76102ad565b6040516101049190610e63565b60405180910390f35b61012760048036038101906101229190610eea565b6102c5565b6040516101349190610f42565b60405180910390f35b61014561037b565b6040516101529190610e63565b60405180910390f35b610163610393565b6040516101709190610e2a565b60405180910390f35b6101816103b7565b60405161018e9190610e63565b60405180910390f35b6101b160048036038101906101ac9190610f5b565b6103cf565b6040516101be9190610f95565b60405180910390f35b6101e160048036038101906101dc9190610fae565b61049b565b6040516101ee9190610f42565b60405180910390f35b6101ff610604565b60405161020c9190610e63565b60405180910390f35b61021d61061c565b60405161022a9190610e2a565b60405180910390f35b61024d6004803603810190610248919061103a565b610640565b005b610257610b22565b6040516102649190610e63565b60405180910390f35b610287600480360381019061028291906110de565b610b3a565b005b7f000000000000000000000000000000000000000000000000000000000000000081565b73287b0e934ed0439e2a7b1d5f0fc25ea2c24b64f781565b5f81471015610309576040517f08c379a0000000000000000000000000000000000000000000000000000000008152600401610300906111a9565b60405180910390fd5b5f8373ffffffffffffffffffffffffffffffffffffffff168360405161032e906111f4565b5f6040518083038185875af1925050503d805f8114610368576040519150601f19603f3d011682016040523d82523d5f602084013e61036d565b606091505b505090508091505092915050565b7351adc79e7760ac5317a0d05e7a64c4f9cb2d436981565b7f000000000000000000000000000000000000000000000000000000000000000081565b731f9840a85d5af5bf1d1762f925bdaddc4201f98481565b5f8073224cc4e5b50036108c1d862442365054600c260c836040516020016103f8929190611208565b60405160208183030381529060405290507f000000000000000000000000000000000000000000000000000000000000000073ffffffffffffffffffffffffffffffffffffffff1663490e6cbc30855f856040518563ffffffff1660e01b815260040161046894939291906112d8565b5f604051808303815f87803b15801561047f575f80fd5b505af1158015610491573d5f803e3d5ffd5b5050505050919050565b5f8073fff9976782d46cc05630d1f6ebab18b2324d6b1473ffffffffffffffffffffffffffffffffffffffff166370a08231306040518263ffffffff1660e01b81526004016104ea9190610e63565b602060405180830381865afa158015610505573d5f803e3d5ffd5b505050506040513d601f19601f820116820180604052508101906105299190611336565b90505f811161056d576040517f08c379a0000000000000000000000000000000000000000000000000000000008152600401610564906111a9565b60405180910390fd5b73fff9976782d46cc05630d1f6ebab18b2324d6b1473ffffffffffffffffffffffffffffffffffffffff1663a9059cbb84836040518363ffffffff1660e01b81526004016105bc929190611208565b6020604051808303815f875af11580156105d8573d5f803e3d5ffd5b505050506040513d601f19601f820116820180604052508101906105fc919061138b565b915050919050565b73fff9976782d46cc05630d1f6ebab18b2324d6b1481565b7f000000000000000000000000000000000000000000000000000000000000000081565b7f000000000000000000000000000000000000000000000000000000000000000073ffffffffffffffffffffffffffffffffffffffff163373ffffffffffffffffffffffffffffffffffffffff16146106ce576040517f08c379a00000000000000000000000000000000000000000000000000000000081526004016106c590611426565b60405180910390fd5b5f8083838101906106df919061147f565b9150915073224cc4e5b50036108c1d862442365054600c260c73ffffffffffffffffffffffffffffffffffffffff168273ffffffffffffffffffffffffffffffffffffffff1614610765576040517f08c379a000000000000000000000000000000000000000000000000000000000815260040161075c9061152d565b60405180910390fd5b5f8160405160200161077791906115df565b60405160208183030381529060405290507f000000000000000000000000000000000000000000000000000000000000000073ffffffffffffffffffffffffffffffffffffffff1663128acb08306001855f866040518663ffffffff1660e01b81526004016107ea95949392919061165d565b60408051808303815f875af1158015610805573d5f803e3d5ffd5b505050506040513d601f19601f8201168201806040525081019061082991906116c9565b50505f8260405160200161083d9190611707565b60405160208183030381529060405290505f838961085b9190611773565b90507f000000000000000000000000000000000000000000000000000000000000000073ffffffffffffffffffffffffffffffffffffffff1663128acb08305f845f6108a791906117a6565b5f876040518663ffffffff1660e01b81526004016108c995949392919061165d565b60408051808303815f875af11580156108e4573d5f803e3d5ffd5b505050506040513d601f19601f8201168201806040525081019061090891906116c9565b5050731f9840a85d5af5bf1d1762f925bdaddc4201f98473ffffffffffffffffffffffffffffffffffffffff1663a9059cbb33836040518363ffffffff1660e01b8152600401610959929190611208565b6020604051808303815f875af1158015610975573d5f803e3d5ffd5b505050506040513d601f19601f82011682018060405250810190610999919061138b565b505f73fff9976782d46cc05630d1f6ebab18b2324d6b1473ffffffffffffffffffffffffffffffffffffffff166370a08231306040518263ffffffff1660e01b81526004016109e89190610e63565b602060405180830381865afa158015610a03573d5f803e3d5ffd5b505050506040513d601f19601f82011682018060405250810190610a279190611336565b90505f811115610adb575f734320c101a2a26447f14f3da29969a0faf0ed59b0905073fff9976782d46cc05630d1f6ebab18b2324d6b1473ffffffffffffffffffffffffffffffffffffffff1663a9059cbb82846040518363ffffffff1660e01b8152600401610a98929190611208565b6020604051808303815f875af1158015610ab4573d5f803e3d5ffd5b505050506040513d601f19601f82011682018060405250810190610ad8919061138b565b50505b7fff82631e8f8e3edb7072916c1e9618373dade734d73c9fb4293828fc22aedb118a8a83604051610b0e939291906117e6565b60405180910390a150505050505050505050565b73224cc4e5b50036108c1d862442365054600c260c81565b7f000000000000000000000000000000000000000000000000000000000000000073ffffffffffffffffffffffffffffffffffffffff163373ffffffffffffffffffffffffffffffffffffffff161480610bdf57507f000000000000000000000000000000000000000000000000000000000000000073ffffffffffffffffffffffffffffffffffffffff163373ffffffffffffffffffffffffffffffffffffffff16145b610c1e576040517f08c379a0000000000000000000000000000000000000000000000000000000008152600401610c159061188b565b60405180910390fd5b5f805f8484810190610c3091906119d1565b9250925092505f871315610ccf57731f9840a85d5af5bf1d1762f925bdaddc4201f98473ffffffffffffffffffffffffffffffffffffffff1663a9059cbb33896040518363ffffffff1660e01b8152600401610c8d929190611208565b6020604051808303815f875af1158015610ca9573d5f803e3d5ffd5b505050506040513d601f19601f82011682018060405250810190610ccd919061138b565b505b5f861315610d685773fff9976782d46cc05630d1f6ebab18b2324d6b1473ffffffffffffffffffffffffffffffffffffffff1663a9059cbb33886040518363ffffffff1660e01b8152600401610d26929190611208565b6020604051808303815f875af1158015610d42573d5f803e3d5ffd5b505050506040513d601f19601f82011682018060405250810190610d66919061138b565b505b7fe601e5c328394c2755e945ecc860d3b5747c69d898a6f92ee158c13a8ef85f6e3384848a8a604051610d9f959493929190611a9b565b60405180910390a150505050505050565b5f73ffffffffffffffffffffffffffffffffffffffff82169050919050565b5f819050919050565b5f610df2610ded610de884610db0565b610dcf565b610db0565b9050919050565b5f610e0382610dd8565b9050919050565b5f610e1482610df9565b9050919050565b610e2481610e0a565b82525050565b5f602082019050610e3d5f830184610e1b565b92915050565b5f610e4d82610db0565b9050919050565b610e5d81610e43565b82525050565b5f602082019050610e765f830184610e54565b92915050565b5f604051905090565b5f80fd5b5f80fd5b610e9681610e43565b8114610ea0575f80fd5b50565b5f81359050610eb181610e8d565b92915050565b5f819050919050565b610ec981610eb7565b8114610ed3575f80fd5b50565b5f81359050610ee481610ec0565b92915050565b5f8060408385031215610f0057610eff610e85565b5b5f610f0d85828601610ea3565b9250506020610f1e85828601610ed6565b9150509250929050565b5f8115159050919050565b610f3c81610f28565b82525050565b5f602082019050610f555f830184610f33565b92915050565b5f60208284031215610f7057610f6f610e85565b5b5f610f7d84828501610ed6565b91505092915050565b610f8f81610eb7565b82525050565b5f602082019050610fa85f830184610f86565b92915050565b5f60208284031215610fc357610fc2610e85565b5b5f610fd084828501610ea3565b91505092915050565b5f80fd5b5f80fd5b5f80fd5b5f8083601f840112610ffa57610ff9610fd9565b5b8235905067ffffffffffffffff81111561101757611016610fdd565b5b60208301915083600182028301111561103357611032610fe1565b5b9250929050565b5f805f806060858703121561105257611051610e85565b5b5f61105f87828801610ed6565b945050602061107087828801610ed6565b935050604085013567ffffffffffffffff81111561109157611090610e89565b5b61109d87828801610fe5565b925092505092959194509250565b5f819050919050565b6110bd816110ab565b81146110c7575f80fd5b50565b5f813590506110d8816110b4565b92915050565b5f805f80606085870312156110f6576110f5610e85565b5b5f611103878288016110ca565b9450506020611114878288016110ca565b935050604085013567ffffffffffffffff81111561113557611134610e89565b5b61114187828801610fe5565b925092505092959194509250565b5f82825260208201905092915050565b7f7472616e73666572546f3a20696e73756666697369656e742062616c616e63655f82015250565b5f61119360208361114f565b915061119e8261115f565b602082019050919050565b5f6020820190508181035f8301526111c081611187565b9050919050565b5f81905092915050565b50565b5f6111df5f836111c7565b91506111ea826111d1565b5f82019050919050565b5f6111fe826111d4565b9150819050919050565b5f60408201905061121b5f830185610e54565b6112286020830184610f86565b9392505050565b5f819050919050565b5f61125261124d6112488461122f565b610dcf565b610eb7565b9050919050565b61126281611238565b82525050565b5f81519050919050565b5f82825260208201905092915050565b8281835e5f83830152505050565b5f601f19601f8301169050919050565b5f6112aa82611268565b6112b48185611272565b93506112c4818560208601611282565b6112cd81611290565b840191505092915050565b5f6080820190506112eb5f830187610e54565b6112f86020830186610f86565b6113056040830185611259565b818103606083015261131781846112a0565b905095945050505050565b5f8151905061133081610ec0565b92915050565b5f6020828403121561134b5761134a610e85565b5b5f61135884828501611322565b91505092915050565b61136a81610f28565b8114611374575f80fd5b50565b5f8151905061138581611361565b92915050565b5f602082840312156113a05761139f610e85565b5b5f6113ad84828501611377565b91505092915050565b7f756e69737761705633466c61736843616c6c6261636b3a206e6f7420617574685f8201527f6f72697a65640000000000000000000000000000000000000000000000000000602082015250565b5f61141060268361114f565b915061141b826113b6565b604082019050919050565b5f6020820190508181035f83015261143d81611404565b9050919050565b5f61144e82610db0565b9050919050565b61145e81611444565b8114611468575f80fd5b50565b5f8135905061147981611455565b92915050565b5f806040838503121561149557611494610e85565b5b5f6114a28582860161146b565b92505060206114b385828601610ed6565b9150509250929050565b7f756e69737761705633466c61736843616c6c6261636b3a20706f6f6c20626f725f8201527f726f7720213d20554e495f574554483100000000000000000000000000000000602082015250565b5f61151760308361114f565b9150611522826114bd565b604082019050919050565b5f6020820190508181035f8301526115448161150b565b9050919050565b7f554e4900000000000000000000000000000000000000000000000000000000005f82015250565b5f61157f60038361114f565b915061158a8261154b565b602082019050919050565b7f57455448000000000000000000000000000000000000000000000000000000005f82015250565b5f6115c960048361114f565b91506115d482611595565b602082019050919050565b5f6060820190508181035f8301526115f681611573565b90508181036020830152611609816115bd565b90506116186040830184610f86565b92915050565b611627816110ab565b82525050565b5f61164761164261163d8461122f565b610dcf565b610db0565b9050919050565b6116578161162d565b82525050565b5f60a0820190506116705f830188610e54565b61167d6020830187610f33565b61168a604083018661161e565b611697606083018561164e565b81810360808301526116a981846112a0565b90509695505050505050565b5f815190506116c3816110b4565b92915050565b5f80604083850312156116df576116de610e85565b5b5f6116ec858286016116b5565b92505060206116fd858286016116b5565b9150509250929050565b5f6060820190508181035f83015261171e816115bd565b9050818103602083015261173181611573565b90506117406040830184610f86565b92915050565b7f4e487b71000000000000000000000000000000000000000000000000000000005f52601160045260245ffd5b5f61177d82610eb7565b915061178883610eb7565b92508282019050808211156117a05761179f611746565b5b92915050565b5f6117b0826110ab565b91506117bb836110ab565b925082820390508181125f8412168282135f8512151617156117e0576117df611746565b5b92915050565b5f6060820190506117f95f830186610f86565b6118066020830185610f86565b6118136040830184610f86565b949350505050565b7f756e697377617056335377617043616c6c6261636b3a206e6f7420617574686f5f8201527f72697a6564000000000000000000000000000000000000000000000000000000602082015250565b5f61187560258361114f565b91506118808261181b565b604082019050919050565b5f6020820190508181035f8301526118a281611869565b9050919050565b5f80fd5b7f4e487b71000000000000000000000000000000000000000000000000000000005f52604160045260245ffd5b6118e382611290565b810181811067ffffffffffffffff82111715611902576119016118ad565b5b80604052505050565b5f611914610e7c565b905061192082826118da565b919050565b5f67ffffffffffffffff82111561193f5761193e6118ad565b5b61194882611290565b9050602081019050919050565b828183375f83830152505050565b5f61197561197084611925565b61190b565b905082815260208101848484011115611991576119906118a9565b5b61199c848285611955565b509392505050565b5f82601f8301126119b8576119b7610fd9565b5b81356119c8848260208601611963565b91505092915050565b5f805f606084860312156119e8576119e7610e85565b5b5f84013567ffffffffffffffff811115611a0557611a04610e89565b5b611a11868287016119a4565b935050602084013567ffffffffffffffff811115611a3257611a31610e89565b5b611a3e868287016119a4565b9250506040611a4f86828701610ed6565b9150509250925092565b5f81519050919050565b5f611a6d82611a59565b611a77818561114f565b9350611a87818560208601611282565b611a9081611290565b840191505092915050565b5f60a082019050611aae5f830188610e54565b8181036020830152611ac08187611a63565b90508181036040830152611ad48186611a63565b9050611ae3606083018561161e565b611af0608083018461161e565b969550505050505056fea26469706673582212202951ba1a8f2496f6b1cd9555152734e8ffc3b0499929190d1122754868144c1264736f6c634300081a0033",
			"opcodes": "PUSH1 0xE0 PUSH1 0x40 MSTORE CALLVALUE DUP1 ISZERO PUSH2 0xF JUMPI PUSH0 DUP1 REVERT JUMPDEST POP PUSH20 0x224CC4E5B50036108C1D862442365054600C260C PUSH20 0xFFFFFFFFFFFFFFFFFFFFFFFFFFFFFFFFFFFFFFFF AND PUSH1 0x80 DUP2 PUSH20 0xFFFFFFFFFFFFFFFFFFFFFFFFFFFFFFFFFFFFFFFF AND DUP2 MSTORE POP POP PUSH20 0x287B0E934ED0439E2A7B1D5F0FC25EA2C24B64F7 PUSH20 0xFFFFFFFFFFFFFFFFFFFFFFFFFFFFFFFFFFFFFFFF AND PUSH1 0xA0 DUP2 PUSH20 0xFFFFFFFFFFFFFFFFFFFFFFFFFFFFFFFFFFFFFFFF AND DUP2 MSTORE POP POP PUSH20 0x51ADC79E7760AC5317A0D05E7A64C4F9CB2D4369 PUSH20 0xFFFFFFFFFFFFFFFFFFFFFFFFFFFFFFFFFFFFFFFF AND PUSH1 0xC0 DUP2 PUSH20 0xFFFFFFFFFFFFFFFFFFFFFFFFFFFFFFFFFFFFFFFF AND DUP2 MSTORE POP POP PUSH1 0x80 MLOAD PUSH1 0xA0 MLOAD PUSH1 0xC0 MLOAD PUSH2 0x1B30 PUSH2 0x13C PUSH0 CODECOPY PUSH0 DUP2 DUP2 PUSH2 0x395 ADD MSTORE DUP2 DUP2 PUSH2 0x78A ADD MSTORE PUSH2 0xB3C ADD MSTORE PUSH0 DUP2 DUP2 PUSH2 0x61E ADD MSTORE DUP2 DUP2 PUSH2 0x85F ADD MSTORE PUSH2 0xB91 ADD MSTORE PUSH0 DUP2 DUP2 PUSH2 0x28B ADD MSTORE DUP2 DUP2 PUSH2 0x40B ADD MSTORE PUSH2 0x642 ADD MSTORE PUSH2 0x1B30 PUSH0 RETURN INVALID PUSH1 0x80 PUSH1 0x40 MSTORE CALLVALUE DUP1 ISZERO PUSH2 0xF JUMPI PUSH0 DUP1 REVERT JUMPDEST POP PUSH1 0x4 CALLDATASIZE LT PUSH2 0xCD JUMPI PUSH0 CALLDATALOAD PUSH1 0xE0 SHR DUP1 PUSH4 0x65B6C4F0 GT PUSH2 0x8A JUMPI DUP1 PUSH4 0xB941D3E0 GT PUSH2 0x64 JUMPI DUP1 PUSH4 0xB941D3E0 EQ PUSH2 0x215 JUMPI DUP1 PUSH4 0xE9CBAFB0 EQ PUSH2 0x233 JUMPI DUP1 PUSH4 0xF6C099F0 EQ PUSH2 0x24F JUMPI DUP1 PUSH4 0xFA461E33 EQ PUSH2 0x26D JUMPI PUSH2 0xCD JUMP JUMPDEST DUP1 PUSH4 0x65B6C4F0 EQ PUSH2 0x197 JUMPI DUP1 PUSH4 0xA24FCDBF EQ PUSH2 0x1C7 JUMPI DUP1 PUSH4 0xAD5C4648 EQ PUSH2 0x1F7 JUMPI PUSH2 0xCD JUMP JUMPDEST DUP1 PUSH4 0x5EA3ED5 EQ PUSH2 0xD1 JUMPI DUP1 PUSH4 0x13C614FA EQ PUSH2 0xEF JUMPI DUP1 PUSH4 0x2CCB1B30 EQ PUSH2 0x10D JUMPI DUP1 PUSH4 0x4E631372 EQ PUSH2 0x13D JUMPI DUP1 PUSH4 0x53CE36A9 EQ PUSH2 0x15B JUMPI DUP1 PUSH4 0x541BCB76 EQ PUSH2 0x179 JUMPI JUMPDEST PUSH0 DUP1 REVERT JUMPDEST PUSH2 0xD9 PUSH2 0x289 JUMP JUMPDEST PUSH1 0x40 MLOAD PUSH2 0xE6 SWAP2 SWAP1 PUSH2 0xE2A JUMP JUMPDEST PUSH1 0x40 MLOAD DUP1 SWAP2 SUB SWAP1 RETURN JUMPDEST PUSH2 0xF7 PUSH2 0x2AD JUMP JUMPDEST PUSH1 0x40 MLOAD PUSH2 0x104 SWAP2 SWAP1 PUSH2 0xE63 JUMP JUMPDEST PUSH1 0x40 MLOAD DUP1 SWAP2 SUB SWAP1 RETURN JUMPDEST PUSH2 0x127 PUSH1 0x4 DUP1 CALLDATASIZE SUB DUP2 ADD SWAP1 PUSH2 0x122 SWAP2 SWAP1 PUSH2 0xEEA JUMP JUMPDEST PUSH2 0x2C5 JUMP JUMPDEST PUSH1 0x40 MLOAD PUSH2 0x134 SWAP2 SWAP1 PUSH2 0xF42 JUMP JUMPDEST PUSH1 0x40 MLOAD DUP1 SWAP2 SUB SWAP1 RETURN JUMPDEST PUSH2 0x145 PUSH2 0x37B JUMP JUMPDEST PUSH1 0x40 MLOAD PUSH2 0x152 SWAP2 SWAP1 PUSH2 0xE63 JUMP JUMPDEST PUSH1 0x40 MLOAD DUP1 SWAP2 SUB SWAP1 RETURN JUMPDEST PUSH2 0x163 PUSH2 0x393 JUMP JUMPDEST PUSH1 0x40 MLOAD PUSH2 0x170 SWAP2 SWAP1 PUSH2 0xE2A JUMP JUMPDEST PUSH1 0x40 MLOAD DUP1 SWAP2 SUB SWAP1 RETURN JUMPDEST PUSH2 0x181 PUSH2 0x3B7 JUMP JUMPDEST PUSH1 0x40 MLOAD PUSH2 0x18E SWAP2 SWAP1 PUSH2 0xE63 JUMP JUMPDEST PUSH1 0x40 MLOAD DUP1 SWAP2 SUB SWAP1 RETURN JUMPDEST PUSH2 0x1B1 PUSH1 0x4 DUP1 CALLDATASIZE SUB DUP2 ADD SWAP1 PUSH2 0x1AC SWAP2 SWAP1 PUSH2 0xF5B JUMP JUMPDEST PUSH2 0x3CF JUMP JUMPDEST PUSH1 0x40 MLOAD PUSH2 0x1BE SWAP2 SWAP1 PUSH2 0xF95 JUMP JUMPDEST PUSH1 0x40 MLOAD DUP1 SWAP2 SUB SWAP1 RETURN JUMPDEST PUSH2 0x1E1 PUSH1 0x4 DUP1 CALLDATASIZE SUB DUP2 ADD SWAP1 PUSH2 0x1DC SWAP2 SWAP1 PUSH2 0xFAE JUMP JUMPDEST PUSH2 0x49B JUMP JUMPDEST PUSH1 0x40 MLOAD PUSH2 0x1EE SWAP2 SWAP1 PUSH2 0xF42 JUMP JUMPDEST PUSH1 0x40 MLOAD DUP1 SWAP2 SUB SWAP1 RETURN JUMPDEST PUSH2 0x1FF PUSH2 0x604 JUMP JUMPDEST PUSH1 0x40 MLOAD PUSH2 0x20C SWAP2 SWAP1 PUSH2 0xE63 JUMP JUMPDEST PUSH1 0x40 MLOAD DUP1 SWAP2 SUB SWAP1 RETURN JUMPDEST PUSH2 0x21D PUSH2 0x61C JUMP JUMPDEST PUSH1 0x40 MLOAD PUSH2 0x22A SWAP2 SWAP1 PUSH2 0xE2A JUMP JUMPDEST PUSH1 0x40 MLOAD DUP1 SWAP2 SUB SWAP1 RETURN JUMPDEST PUSH2 0x24D PUSH1 0x4 DUP1 CALLDATASIZE SUB DUP2 ADD SWAP1 PUSH2 0x248 SWAP2 SWAP1 PUSH2 0x103A JUMP JUMPDEST PUSH2 0x640 JUMP JUMPDEST STOP JUMPDEST PUSH2 0x257 PUSH2 0xB22 JUMP JUMPDEST PUSH1 0x40 MLOAD PUSH2 0x264 SWAP2 SWAP1 PUSH2 0xE63 JUMP JUMPDEST PUSH1 0x40 MLOAD DUP1 SWAP2 SUB SWAP1 RETURN JUMPDEST PUSH2 0x287 PUSH1 0x4 DUP1 CALLDATASIZE SUB DUP2 ADD SWAP1 PUSH2 0x282 SWAP2 SWAP1 PUSH2 0x10DE JUMP JUMPDEST PUSH2 0xB3A JUMP JUMPDEST STOP JUMPDEST PUSH32 0x0 DUP2 JUMP JUMPDEST PUSH20 0x287B0E934ED0439E2A7B1D5F0FC25EA2C24B64F7 DUP2 JUMP JUMPDEST PUSH0 DUP2 SELFBALANCE LT ISZERO PUSH2 0x309 JUMPI PUSH1 0x40 MLOAD PUSH32 0x8C379A000000000000000000000000000000000000000000000000000000000 DUP2 MSTORE PUSH1 0x4 ADD PUSH2 0x300 SWAP1 PUSH2 0x11A9 JUMP JUMPDEST PUSH1 0x40 MLOAD DUP1 SWAP2 SUB SWAP1 REVERT JUMPDEST PUSH0 DUP4 PUSH20 0xFFFFFFFFFFFFFFFFFFFFFFFFFFFFFFFFFFFFFFFF AND DUP4 PUSH1 0x40 MLOAD PUSH2 0x32E SWAP1 PUSH2 0x11F4 JUMP JUMPDEST PUSH0 PUSH1 0x40 MLOAD DUP1 DUP4 SUB DUP2 DUP6 DUP8 GAS CALL SWAP3 POP POP POP RETURNDATASIZE DUP1 PUSH0 DUP2 EQ PUSH2 0x368 JUMPI PUSH1 0x40 MLOAD SWAP2 POP PUSH1 0x1F NOT PUSH1 0x3F RETURNDATASIZE ADD AND DUP3 ADD PUSH1 0x40 MSTORE RETURNDATASIZE DUP3 MSTORE RETURNDATASIZE PUSH0 PUSH1 0x20 DUP5 ADD RETURNDATACOPY PUSH2 0x36D JUMP JUMPDEST PUSH1 0x60 SWAP2 POP JUMPDEST POP POP SWAP1 POP DUP1 SWAP2 POP POP SWAP3 SWAP2 POP POP JUMP JUMPDEST PUSH20 0x51ADC79E7760AC5317A0D05E7A64C4F9CB2D4369 DUP2 JUMP JUMPDEST PUSH32 0x0 DUP2 JUMP JUMPDEST PUSH20 0x1F9840A85D5AF5BF1D1762F925BDADDC4201F984 DUP2 JUMP JUMPDEST PUSH0 DUP1 PUSH20 0x224CC4E5B50036108C1D862442365054600C260C DUP4 PUSH1 0x40 MLOAD PUSH1 0x20 ADD PUSH2 0x3F8 SWAP3 SWAP2 SWAP1 PUSH2 0x1208 JUMP JUMPDEST PUSH1 0x40 MLOAD PUSH1 0x20 DUP2 DUP4 SUB SUB DUP2 MSTORE SWAP1 PUSH1 0x40 MSTORE SWAP1 POP PUSH32 0x0 PUSH20 0xFFFFFFFFFFFFFFFFFFFFFFFFFFFFFFFFFFFFFFFF AND PUSH4 0x490E6CBC ADDRESS DUP6 PUSH0 DUP6 PUSH1 0x40 MLOAD DUP6 PUSH4 0xFFFFFFFF AND PUSH1 0xE0 SHL DUP2 MSTORE PUSH1 0x4 ADD PUSH2 0x468 SWAP5 SWAP4 SWAP3 SWAP2 SWAP1 PUSH2 0x12D8 JUMP JUMPDEST PUSH0 PUSH1 0x40 MLOAD DUP1 DUP4 SUB DUP2 PUSH0 DUP8 DUP1 EXTCODESIZE ISZERO DUP1 ISZERO PUSH2 0x47F JUMPI PUSH0 DUP1 REVERT JUMPDEST POP GAS CALL ISZERO DUP1 ISZERO PUSH2 0x491 JUMPI RETURNDATASIZE PUSH0 DUP1 RETURNDATACOPY RETURNDATASIZE PUSH0 REVERT JUMPDEST POP POP POP POP POP SWAP2 SWAP1 POP JUMP JUMPDEST PUSH0 DUP1 PUSH20 0xFFF9976782D46CC05630D1F6EBAB18B2324D6B14 PUSH20 0xFFFFFFFFFFFFFFFFFFFFFFFFFFFFFFFFFFFFFFFF AND PUSH4 0x70A08231 ADDRESS PUSH1 0x40 MLOAD DUP3 PUSH4 0xFFFFFFFF AND PUSH1 0xE0 SHL DUP2 MSTORE PUSH1 0x4 ADD PUSH2 0x4EA SWAP2 SWAP1 PUSH2 0xE63 JUMP JUMPDEST PUSH1 0x20 PUSH1 0x40 MLOAD DUP1 DUP4 SUB DUP2 DUP7 GAS STATICCALL ISZERO DUP1 ISZERO PUSH2 0x505 JUMPI RETURNDATASIZE PUSH0 DUP1 RETURNDATACOPY RETURNDATASIZE PUSH0 REVERT JUMPDEST POP POP POP POP PUSH1 0x40 MLOAD RETURNDATASIZE PUSH1 0x1F NOT PUSH1 0x1F DUP3 ADD AND DUP3 ADD DUP1 PUSH1 0x40 MSTORE POP DUP2 ADD SWAP1 PUSH2 0x529 SWAP2 SWAP1 PUSH2 0x1336 JUMP JUMPDEST SWAP1 POP PUSH0 DUP2 GT PUSH2 0x56D JUMPI PUSH1 0x40 MLOAD PUSH32 0x8C379A000000000000000000000000000000000000000000000000000000000 DUP2 MSTORE PUSH1 0x4 ADD PUSH2 0x564 SWAP1 PUSH2 0x11A9 JUMP JUMPDEST PUSH1 0x40 MLOAD DUP1 SWAP2 SUB SWAP1 REVERT JUMPDEST PUSH20 0xFFF9976782D46CC05630D1F6EBAB18B2324D6B14 PUSH20 0xFFFFFFFFFFFFFFFFFFFFFFFFFFFFFFFFFFFFFFFF AND PUSH4 0xA9059CBB DUP5 DUP4 PUSH1 0x40 MLOAD DUP4 PUSH4 0xFFFFFFFF AND PUSH1 0xE0 SHL DUP2 MSTORE PUSH1 0x4 ADD PUSH2 0x5BC SWAP3 SWAP2 SWAP1 PUSH2 0x1208 JUMP JUMPDEST PUSH1 0x20 PUSH1 0x40 MLOAD DUP1 DUP4 SUB DUP2 PUSH0 DUP8 GAS CALL ISZERO DUP1 ISZERO PUSH2 0x5D8 JUMPI RETURNDATASIZE PUSH0 DUP1 RETURNDATACOPY RETURNDATASIZE PUSH0 REVERT JUMPDEST POP POP POP POP PUSH1 0x40 MLOAD RETURNDATASIZE PUSH1 0x1F NOT PUSH1 0x1F DUP3 ADD AND DUP3 ADD DUP1 PUSH1 0x40 MSTORE POP DUP2 ADD SWAP1 PUSH2 0x5FC SWAP2 SWAP1 PUSH2 0x138B JUMP JUMPDEST SWAP2 POP POP SWAP2 SWAP1 POP JUMP JUMPDEST PUSH20 0xFFF9976782D46CC05630D1F6EBAB18B2324D6B14 DUP2 JUMP JUMPDEST PUSH32 0x0 DUP2 JUMP JUMPDEST PUSH32 0x0 PUSH20 0xFFFFFFFFFFFFFFFFFFFFFFFFFFFFFFFFFFFFFFFF AND CALLER PUSH20 0xFFFFFFFFFFFFFFFFFFFFFFFFFFFFFFFFFFFFFFFF AND EQ PUSH2 0x6CE JUMPI PUSH1 0x40 MLOAD PUSH32 0x8C379A000000000000000000000000000000000000000000000000000000000 DUP2 MSTORE PUSH1 0x4 ADD PUSH2 0x6C5 SWAP1 PUSH2 0x1426 JUMP JUMPDEST PUSH1 0x40 MLOAD DUP1 SWAP2 SUB SWAP1 REVERT JUMPDEST PUSH0 DUP1 DUP4 DUP4 DUP2 ADD SWAP1 PUSH2 0x6DF SWAP2 SWAP1 PUSH2 0x147F JUMP JUMPDEST SWAP2 POP SWAP2 POP PUSH20 0x224CC4E5B50036108C1D862442365054600C260C PUSH20 0xFFFFFFFFFFFFFFFFFFFFFFFFFFFFFFFFFFFFFFFF AND DUP3 PUSH20 0xFFFFFFFFFFFFFFFFFFFFFFFFFFFFFFFFFFFFFFFF AND EQ PUSH2 0x765 JUMPI PUSH1 0x40 MLOAD PUSH32 0x8C379A000000000000000000000000000000000000000000000000000000000 DUP2 MSTORE PUSH1 0x4 ADD PUSH2 0x75C SWAP1 PUSH2 0x152D JUMP JUMPDEST PUSH1 0x40 MLOAD DUP1 SWAP2 SUB SWAP1 REVERT JUMPDEST PUSH0 DUP2 PUSH1 0x40 MLOAD PUSH1 0x20 ADD PUSH2 0x777 SWAP2 SWAP1 PUSH2 0x15DF JUMP JUMPDEST PUSH1 0x40 MLOAD PUSH1 0x20 DUP2 DUP4 SUB SUB DUP2 MSTORE SWAP1 PUSH1 0x40 MSTORE SWAP1 POP PUSH32 0x0 PUSH20 0xFFFFFFFFFFFFFFFFFFFFFFFFFFFFFFFFFFFFFFFF AND PUSH4 0x128ACB08 ADDRESS PUSH1 0x1 DUP6 PUSH0 DUP7 PUSH1 0x40 MLOAD DUP7 PUSH4 0xFFFFFFFF AND PUSH1 0xE0 SHL DUP2 MSTORE PUSH1 0x4 ADD PUSH2 0x7EA SWAP6 SWAP5 SWAP4 SWAP3 SWAP2 SWAP1 PUSH2 0x165D JUMP JUMPDEST PUSH1 0x40 DUP1 MLOAD DUP1 DUP4 SUB DUP2 PUSH0 DUP8 GAS CALL ISZERO DUP1 ISZERO PUSH2 0x805 JUMPI RETURNDATASIZE PUSH0 DUP1 RETURNDATACOPY RETURNDATASIZE PUSH0 REVERT JUMPDEST POP POP POP POP PUSH1 0x40 MLOAD RETURNDATASIZE PUSH1 0x1F NOT PUSH1 0x1F DUP3 ADD AND DUP3 ADD DUP1 PUSH1 0x40 MSTORE POP DUP2 ADD SWAP1 PUSH2 0x829 SWAP2 SWAP1 PUSH2 0x16C9 JUMP JUMPDEST POP POP PUSH0 DUP3 PUSH1 0x40 MLOAD PUSH1 0x20 ADD PUSH2 0x83D SWAP2 SWAP1 PUSH2 0x1707 JUMP JUMPDEST PUSH1 0x40 MLOAD PUSH1 0x20 DUP2 DUP4 SUB SUB DUP2 MSTORE SWAP1 PUSH1 0x40 MSTORE SWAP1 POP PUSH0 DUP4 DUP10 PUSH2 0x85B SWAP2 SWAP1 PUSH2 0x1773 JUMP JUMPDEST SWAP1 POP PUSH32 0x0 PUSH20 0xFFFFFFFFFFFFFFFFFFFFFFFFFFFFFFFFFFFFFFFF AND PUSH4 0x128ACB08 ADDRESS PUSH0 DUP5 PUSH0 PUSH2 0x8A7 SWAP2 SWAP1 PUSH2 0x17A6 JUMP JUMPDEST PUSH0 DUP8 PUSH1 0x40 MLOAD DUP7 PUSH4 0xFFFFFFFF AND PUSH1 0xE0 SHL DUP2 MSTORE PUSH1 0x4 ADD PUSH2 0x8C9 SWAP6 SWAP5 SWAP4 SWAP3 SWAP2 SWAP1 PUSH2 0x165D JUMP JUMPDEST PUSH1 0x40 DUP1 MLOAD DUP1 DUP4 SUB DUP2 PUSH0 DUP8 GAS CALL ISZERO DUP1 ISZERO PUSH2 0x8E4 JUMPI RETURNDATASIZE PUSH0 DUP1 RETURNDATACOPY RETURNDATASIZE PUSH0 REVERT JUMPDEST POP POP POP POP PUSH1 0x40 MLOAD RETURNDATASIZE PUSH1 0x1F NOT PUSH1 0x1F DUP3 ADD AND DUP3 ADD DUP1 PUSH1 0x40 MSTORE POP DUP2 ADD SWAP1 PUSH2 0x908 SWAP2 SWAP1 PUSH2 0x16C9 JUMP JUMPDEST POP POP PUSH20 0x1F9840A85D5AF5BF1D1762F925BDADDC4201F984 PUSH20 0xFFFFFFFFFFFFFFFFFFFFFFFFFFFFFFFFFFFFFFFF AND PUSH4 0xA9059CBB CALLER DUP4 PUSH1 0x40 MLOAD DUP4 PUSH4 0xFFFFFFFF AND PUSH1 0xE0 SHL DUP2 MSTORE PUSH1 0x4 ADD PUSH2 0x959 SWAP3 SWAP2 SWAP1 PUSH2 0x1208 JUMP JUMPDEST PUSH1 0x20 PUSH1 0x40 MLOAD DUP1 DUP4 SUB DUP2 PUSH0 DUP8 GAS CALL ISZERO DUP1 ISZERO PUSH2 0x975 JUMPI RETURNDATASIZE PUSH0 DUP1 RETURNDATACOPY RETURNDATASIZE PUSH0 REVERT JUMPDEST POP POP POP POP PUSH1 0x40 MLOAD RETURNDATASIZE PUSH1 0x1F NOT PUSH1 0x1F DUP3 ADD AND DUP3 ADD DUP1 PUSH1 0x40 MSTORE POP DUP2 ADD SWAP1 PUSH2 0x999 SWAP2 SWAP1 PUSH2 0x138B JUMP JUMPDEST POP PUSH0 PUSH20 0xFFF9976782D46CC05630D1F6EBAB18B2324D6B14 PUSH20 0xFFFFFFFFFFFFFFFFFFFFFFFFFFFFFFFFFFFFFFFF AND PUSH4 0x70A08231 ADDRESS PUSH1 0x40 MLOAD DUP3 PUSH4 0xFFFFFFFF AND PUSH1 0xE0 SHL DUP2 MSTORE PUSH1 0x4 ADD PUSH2 0x9E8 SWAP2 SWAP1 PUSH2 0xE63 JUMP JUMPDEST PUSH1 0x20 PUSH1 0x40 MLOAD DUP1 DUP4 SUB DUP2 DUP7 GAS STATICCALL ISZERO DUP1 ISZERO PUSH2 0xA03 JUMPI RETURNDATASIZE PUSH0 DUP1 RETURNDATACOPY RETURNDATASIZE PUSH0 REVERT JUMPDEST POP POP POP POP PUSH1 0x40 MLOAD RETURNDATASIZE PUSH1 0x1F NOT PUSH1 0x1F DUP3 ADD AND DUP3 ADD DUP1 PUSH1 0x40 MSTORE POP DUP2 ADD SWAP1 PUSH2 0xA27 SWAP2 SWAP1 PUSH2 0x1336 JUMP JUMPDEST SWAP1 POP PUSH0 DUP2 GT ISZERO PUSH2 0xADB JUMPI PUSH0 PUSH20 0x4320C101A2A26447F14F3DA29969A0FAF0ED59B0 SWAP1 POP PUSH20 0xFFF9976782D46CC05630D1F6EBAB18B2324D6B14 PUSH20 0xFFFFFFFFFFFFFFFFFFFFFFFFFFFFFFFFFFFFFFFF AND PUSH4 0xA9059CBB DUP3 DUP5 PUSH1 0x40 MLOAD DUP4 PUSH4 0xFFFFFFFF AND PUSH1 0xE0 SHL DUP2 MSTORE PUSH1 0x4 ADD PUSH2 0xA98 SWAP3 SWAP2 SWAP1 PUSH2 0x1208 JUMP JUMPDEST PUSH1 0x20 PUSH1 0x40 MLOAD DUP1 DUP4 SUB DUP2 PUSH0 DUP8 GAS CALL ISZERO DUP1 ISZERO PUSH2 0xAB4 JUMPI RETURNDATASIZE PUSH0 DUP1 RETURNDATACOPY RETURNDATASIZE PUSH0 REVERT JUMPDEST POP POP POP POP PUSH1 0x40 MLOAD RETURNDATASIZE PUSH1 0x1F NOT PUSH1 0x1F DUP3 ADD AND DUP3 ADD DUP1 PUSH1 0x40 MSTORE POP DUP2 ADD SWAP1 PUSH2 0xAD8 SWAP2 SWAP1 PUSH2 0x138B JUMP JUMPDEST POP POP JUMPDEST PUSH32 0xFF82631E8F8E3EDB7072916C1E9618373DADE734D73C9FB4293828FC22AEDB11 DUP11 DUP11 DUP4 PUSH1 0x40 MLOAD PUSH2 0xB0E SWAP4 SWAP3 SWAP2 SWAP1 PUSH2 0x17E6 JUMP JUMPDEST PUSH1 0x40 MLOAD DUP1 SWAP2 SUB SWAP1 LOG1 POP POP POP POP POP POP POP POP POP POP JUMP JUMPDEST PUSH20 0x224CC4E5B50036108C1D862442365054600C260C DUP2 JUMP JUMPDEST PUSH32 0x0 PUSH20 0xFFFFFFFFFFFFFFFFFFFFFFFFFFFFFFFFFFFFFFFF AND CALLER PUSH20 0xFFFFFFFFFFFFFFFFFFFFFFFFFFFFFFFFFFFFFFFF AND EQ DUP1 PUSH2 0xBDF JUMPI POP PUSH32 0x0 PUSH20 0xFFFFFFFFFFFFFFFFFFFFFFFFFFFFFFFFFFFFFFFF AND CALLER PUSH20 0xFFFFFFFFFFFFFFFFFFFFFFFFFFFFFFFFFFFFFFFF AND EQ JUMPDEST PUSH2 0xC1E JUMPI PUSH1 0x40 MLOAD PUSH32 0x8C379A000000000000000000000000000000000000000000000000000000000 DUP2 MSTORE PUSH1 0x4 ADD PUSH2 0xC15 SWAP1 PUSH2 0x188B JUMP JUMPDEST PUSH1 0x40 MLOAD DUP1 SWAP2 SUB SWAP1 REVERT JUMPDEST PUSH0 DUP1 PUSH0 DUP5 DUP5 DUP2 ADD SWAP1 PUSH2 0xC30 SWAP2 SWAP1 PUSH2 0x19D1 JUMP JUMPDEST SWAP3 POP SWAP3 POP SWAP3 POP PUSH0 DUP8 SGT ISZERO PUSH2 0xCCF JUMPI PUSH20 0x1F9840A85D5AF5BF1D1762F925BDADDC4201F984 PUSH20 0xFFFFFFFFFFFFFFFFFFFFFFFFFFFFFFFFFFFFFFFF AND PUSH4 0xA9059CBB CALLER DUP10 PUSH1 0x40 MLOAD DUP4 PUSH4 0xFFFFFFFF AND PUSH1 0xE0 SHL DUP2 MSTORE PUSH1 0x4 ADD PUSH2 0xC8D SWAP3 SWAP2 SWAP1 PUSH2 0x1208 JUMP JUMPDEST PUSH1 0x20 PUSH1 0x40 MLOAD DUP1 DUP4 SUB DUP2 PUSH0 DUP8 GAS CALL ISZERO DUP1 ISZERO PUSH2 0xCA9 JUMPI RETURNDATASIZE PUSH0 DUP1 RETURNDATACOPY RETURNDATASIZE PUSH0 REVERT JUMPDEST POP POP POP POP PUSH1 0x40 MLOAD RETURNDATASIZE PUSH1 0x1F NOT PUSH1 0x1F DUP3 ADD AND DUP3 ADD DUP1 PUSH1 0x40 MSTORE POP DUP2 ADD SWAP1 PUSH2 0xCCD SWAP2 SWAP1 PUSH2 0x138B JUMP JUMPDEST POP JUMPDEST PUSH0 DUP7 SGT ISZERO PUSH2 0xD68 JUMPI PUSH20 0xFFF9976782D46CC05630D1F6EBAB18B2324D6B14 PUSH20 0xFFFFFFFFFFFFFFFFFFFFFFFFFFFFFFFFFFFFFFFF AND PUSH4 0xA9059CBB CALLER DUP9 PUSH1 0x40 MLOAD DUP4 PUSH4 0xFFFFFFFF AND PUSH1 0xE0 SHL DUP2 MSTORE PUSH1 0x4 ADD PUSH2 0xD26 SWAP3 SWAP2 SWAP1 PUSH2 0x1208 JUMP JUMPDEST PUSH1 0x20 PUSH1 0x40 MLOAD DUP1 DUP4 SUB DUP2 PUSH0 DUP8 GAS CALL ISZERO DUP1 ISZERO PUSH2 0xD42 JUMPI RETURNDATASIZE PUSH0 DUP1 RETURNDATACOPY RETURNDATASIZE PUSH0 REVERT JUMPDEST POP POP POP POP PUSH1 0x40 MLOAD RETURNDATASIZE PUSH1 0x1F NOT PUSH1 0x1F DUP3 ADD AND DUP3 ADD DUP1 PUSH1 0x40 MSTORE POP DUP2 ADD SWAP1 PUSH2 0xD66 SWAP2 SWAP1 PUSH2 0x138B JUMP JUMPDEST POP JUMPDEST PUSH32 0xE601E5C328394C2755E945ECC860D3B5747C69D898A6F92EE158C13A8EF85F6E CALLER DUP5 DUP5 DUP11 DUP11 PUSH1 0x40 MLOAD PUSH2 0xD9F SWAP6 SWAP5 SWAP4 SWAP3 SWAP2 SWAP1 PUSH2 0x1A9B JUMP JUMPDEST PUSH1 0x40 MLOAD DUP1 SWAP2 SUB SWAP1 LOG1 POP POP POP POP POP POP POP JUMP JUMPDEST PUSH0 PUSH20 0xFFFFFFFFFFFFFFFFFFFFFFFFFFFFFFFFFFFFFFFF DUP3 AND SWAP1 POP SWAP2 SWAP1 POP JUMP JUMPDEST PUSH0 DUP2 SWAP1 POP SWAP2 SWAP1 POP JUMP JUMPDEST PUSH0 PUSH2 0xDF2 PUSH2 0xDED PUSH2 0xDE8 DUP5 PUSH2 0xDB0 JUMP JUMPDEST PUSH2 0xDCF JUMP JUMPDEST PUSH2 0xDB0 JUMP JUMPDEST SWAP1 POP SWAP2 SWAP1 POP JUMP JUMPDEST PUSH0 PUSH2 0xE03 DUP3 PUSH2 0xDD8 JUMP JUMPDEST SWAP1 POP SWAP2 SWAP1 POP JUMP JUMPDEST PUSH0 PUSH2 0xE14 DUP3 PUSH2 0xDF9 JUMP JUMPDEST SWAP1 POP SWAP2 SWAP1 POP JUMP JUMPDEST PUSH2 0xE24 DUP2 PUSH2 0xE0A JUMP JUMPDEST DUP3 MSTORE POP POP JUMP JUMPDEST PUSH0 PUSH1 0x20 DUP3 ADD SWAP1 POP PUSH2 0xE3D PUSH0 DUP4 ADD DUP5 PUSH2 0xE1B JUMP JUMPDEST SWAP3 SWAP2 POP POP JUMP JUMPDEST PUSH0 PUSH2 0xE4D DUP3 PUSH2 0xDB0 JUMP JUMPDEST SWAP1 POP SWAP2 SWAP1 POP JUMP JUMPDEST PUSH2 0xE5D DUP2 PUSH2 0xE43 JUMP JUMPDEST DUP3 MSTORE POP POP JUMP JUMPDEST PUSH0 PUSH1 0x20 DUP3 ADD SWAP1 POP PUSH2 0xE76 PUSH0 DUP4 ADD DUP5 PUSH2 0xE54 JUMP JUMPDEST SWAP3 SWAP2 POP POP JUMP JUMPDEST PUSH0 PUSH1 0x40 MLOAD SWAP1 POP SWAP1 JUMP JUMPDEST PUSH0 DUP1 REVERT JUMPDEST PUSH0 DUP1 REVERT JUMPDEST PUSH2 0xE96 DUP2 PUSH2 0xE43 JUMP JUMPDEST DUP2 EQ PUSH2 0xEA0 JUMPI PUSH0 DUP1 REVERT JUMPDEST POP JUMP JUMPDEST PUSH0 DUP2 CALLDATALOAD SWAP1 POP PUSH2 0xEB1 DUP2 PUSH2 0xE8D JUMP JUMPDEST SWAP3 SWAP2 POP POP JUMP JUMPDEST PUSH0 DUP2 SWAP1 POP SWAP2 SWAP1 POP JUMP JUMPDEST PUSH2 0xEC9 DUP2 PUSH2 0xEB7 JUMP JUMPDEST DUP2 EQ PUSH2 0xED3 JUMPI PUSH0 DUP1 REVERT JUMPDEST POP JUMP JUMPDEST PUSH0 DUP2 CALLDATALOAD SWAP1 POP PUSH2 0xEE4 DUP2 PUSH2 0xEC0 JUMP JUMPDEST SWAP3 SWAP2 POP POP JUMP JUMPDEST PUSH0 DUP1 PUSH1 0x40 DUP4 DUP6 SUB SLT ISZERO PUSH2 0xF00 JUMPI PUSH2 0xEFF PUSH2 0xE85 JUMP JUMPDEST JUMPDEST PUSH0 PUSH2 0xF0D DUP6 DUP3 DUP7 ADD PUSH2 0xEA3 JUMP JUMPDEST SWAP3 POP POP PUSH1 0x20 PUSH2 0xF1E DUP6 DUP3 DUP7 ADD PUSH2 0xED6 JUMP JUMPDEST SWAP2 POP POP SWAP3 POP SWAP3 SWAP1 POP JUMP JUMPDEST PUSH0 DUP2 ISZERO ISZERO SWAP1 POP SWAP2 SWAP1 POP JUMP JUMPDEST PUSH2 0xF3C DUP2 PUSH2 0xF28 JUMP JUMPDEST DUP3 MSTORE POP POP JUMP JUMPDEST PUSH0 PUSH1 0x20 DUP3 ADD SWAP1 POP PUSH2 0xF55 PUSH0 DUP4 ADD DUP5 PUSH2 0xF33 JUMP JUMPDEST SWAP3 SWAP2 POP POP JUMP JUMPDEST PUSH0 PUSH1 0x20 DUP3 DUP5 SUB SLT ISZERO PUSH2 0xF70 JUMPI PUSH2 0xF6F PUSH2 0xE85 JUMP JUMPDEST JUMPDEST PUSH0 PUSH2 0xF7D DUP5 DUP3 DUP6 ADD PUSH2 0xED6 JUMP JUMPDEST SWAP2 POP POP SWAP3 SWAP2 POP POP JUMP JUMPDEST PUSH2 0xF8F DUP2 PUSH2 0xEB7 JUMP JUMPDEST DUP3 MSTORE POP POP JUMP JUMPDEST PUSH0 PUSH1 0x20 DUP3 ADD SWAP1 POP PUSH2 0xFA8 PUSH0 DUP4 ADD DUP5 PUSH2 0xF86 JUMP JUMPDEST SWAP3 SWAP2 POP POP JUMP JUMPDEST PUSH0 PUSH1 0x20 DUP3 DUP5 SUB SLT ISZERO PUSH2 0xFC3 JUMPI PUSH2 0xFC2 PUSH2 0xE85 JUMP JUMPDEST JUMPDEST PUSH0 PUSH2 0xFD0 DUP5 DUP3 DUP6 ADD PUSH2 0xEA3 JUMP JUMPDEST SWAP2 POP POP SWAP3 SWAP2 POP POP JUMP JUMPDEST PUSH0 DUP1 REVERT JUMPDEST PUSH0 DUP1 REVERT JUMPDEST PUSH0 DUP1 REVERT JUMPDEST PUSH0 DUP1 DUP4 PUSH1 0x1F DUP5 ADD SLT PUSH2 0xFFA JUMPI PUSH2 0xFF9 PUSH2 0xFD9 JUMP JUMPDEST JUMPDEST DUP3 CALLDATALOAD SWAP1 POP PUSH8 0xFFFFFFFFFFFFFFFF DUP2 GT ISZERO PUSH2 0x1017 JUMPI PUSH2 0x1016 PUSH2 0xFDD JUMP JUMPDEST JUMPDEST PUSH1 0x20 DUP4 ADD SWAP2 POP DUP4 PUSH1 0x1 DUP3 MUL DUP4 ADD GT ISZERO PUSH2 0x1033 JUMPI PUSH2 0x1032 PUSH2 0xFE1 JUMP JUMPDEST JUMPDEST SWAP3 POP SWAP3 SWAP1 POP JUMP JUMPDEST PUSH0 DUP1 PUSH0 DUP1 PUSH1 0x60 DUP6 DUP8 SUB SLT ISZERO PUSH2 0x1052 JUMPI PUSH2 0x1051 PUSH2 0xE85 JUMP JUMPDEST JUMPDEST PUSH0 PUSH2 0x105F DUP8 DUP3 DUP9 ADD PUSH2 0xED6 JUMP JUMPDEST SWAP5 POP POP PUSH1 0x20 PUSH2 0x1070 DUP8 DUP3 DUP9 ADD PUSH2 0xED6 JUMP JUMPDEST SWAP4 POP POP PUSH1 0x40 DUP6 ADD CALLDATALOAD PUSH8 0xFFFFFFFFFFFFFFFF DUP2 GT ISZERO PUSH2 0x1091 JUMPI PUSH2 0x1090 PUSH2 0xE89 JUMP JUMPDEST JUMPDEST PUSH2 0x109D DUP8 DUP3 DUP9 ADD PUSH2 0xFE5 JUMP JUMPDEST SWAP3 POP SWAP3 POP POP SWAP3 SWAP6 SWAP2 SWAP5 POP SWAP3 POP JUMP JUMPDEST PUSH0 DUP2 SWAP1 POP SWAP2 SWAP1 POP JUMP JUMPDEST PUSH2 0x10BD DUP2 PUSH2 0x10AB JUMP JUMPDEST DUP2 EQ PUSH2 0x10C7 JUMPI PUSH0 DUP1 REVERT JUMPDEST POP JUMP JUMPDEST PUSH0 DUP2 CALLDATALOAD SWAP1 POP PUSH2 0x10D8 DUP2 PUSH2 0x10B4 JUMP JUMPDEST SWAP3 SWAP2 POP POP JUMP JUMPDEST PUSH0 DUP1 PUSH0 DUP1 PUSH1 0x60 DUP6 DUP8 SUB SLT ISZERO PUSH2 0x10F6 JUMPI PUSH2 0x10F5 PUSH2 0xE85 JUMP JUMPDEST JUMPDEST PUSH0 PUSH2 0x1103 DUP8 DUP3 DUP9 ADD PUSH2 0x10CA JUMP JUMPDEST SWAP5 POP POP PUSH1 0x20 PUSH2 0x1114 DUP8 DUP3 DUP9 ADD PUSH2 0x10CA JUMP JUMPDEST SWAP4 POP POP PUSH1 0x40 DUP6 ADD CALLDATALOAD PUSH8 0xFFFFFFFFFFFFFFFF DUP2 GT ISZERO PUSH2 0x1135 JUMPI PUSH2 0x1134 PUSH2 0xE89 JUMP JUMPDEST JUMPDEST PUSH2 0x1141 DUP8 DUP3 DUP9 ADD PUSH2 0xFE5 JUMP JUMPDEST SWAP3 POP SWAP3 POP POP SWAP3 SWAP6 SWAP2 SWAP5 POP SWAP3 POP JUMP JUMPDEST PUSH0 DUP3 DUP3 MSTORE PUSH1 0x20 DUP3 ADD SWAP1 POP SWAP3 SWAP2 POP POP JUMP JUMPDEST PUSH32 0x7472616E73666572546F3A20696E73756666697369656E742062616C616E6365 PUSH0 DUP3 ADD MSTORE POP JUMP JUMPDEST PUSH0 PUSH2 0x1193 PUSH1 0x20 DUP4 PUSH2 0x114F JUMP JUMPDEST SWAP2 POP PUSH2 0x119E DUP3 PUSH2 0x115F JUMP JUMPDEST PUSH1 0x20 DUP3 ADD SWAP1 POP SWAP2 SWAP1 POP JUMP JUMPDEST PUSH0 PUSH1 0x20 DUP3 ADD SWAP1 POP DUP2 DUP2 SUB PUSH0 DUP4 ADD MSTORE PUSH2 0x11C0 DUP2 PUSH2 0x1187 JUMP JUMPDEST SWAP1 POP SWAP2 SWAP1 POP JUMP JUMPDEST PUSH0 DUP2 SWAP1 POP SWAP3 SWAP2 POP POP JUMP JUMPDEST POP JUMP JUMPDEST PUSH0 PUSH2 0x11DF PUSH0 DUP4 PUSH2 0x11C7 JUMP JUMPDEST SWAP2 POP PUSH2 0x11EA DUP3 PUSH2 0x11D1 JUMP JUMPDEST PUSH0 DUP3 ADD SWAP1 POP SWAP2 SWAP1 POP JUMP JUMPDEST PUSH0 PUSH2 0x11FE DUP3 PUSH2 0x11D4 JUMP JUMPDEST SWAP2 POP DUP2 SWAP1 POP SWAP2 SWAP1 POP JUMP JUMPDEST PUSH0 PUSH1 0x40 DUP3 ADD SWAP1 POP PUSH2 0x121B PUSH0 DUP4 ADD DUP6 PUSH2 0xE54 JUMP JUMPDEST PUSH2 0x1228 PUSH1 0x20 DUP4 ADD DUP5 PUSH2 0xF86 JUMP JUMPDEST SWAP4 SWAP3 POP POP POP JUMP JUMPDEST PUSH0 DUP2 SWAP1 POP SWAP2 SWAP1 POP JUMP JUMPDEST PUSH0 PUSH2 0x1252 PUSH2 0x124D PUSH2 0x1248 DUP5 PUSH2 0x122F JUMP JUMPDEST PUSH2 0xDCF JUMP JUMPDEST PUSH2 0xEB7 JUMP JUMPDEST SWAP1 POP SWAP2 SWAP1 POP JUMP JUMPDEST PUSH2 0x1262 DUP2 PUSH2 0x1238 JUMP JUMPDEST DUP3 MSTORE POP POP JUMP JUMPDEST PUSH0 DUP2 MLOAD SWAP1 POP SWAP2 SWAP1 POP JUMP JUMPDEST PUSH0 DUP3 DUP3 MSTORE PUSH1 0x20 DUP3 ADD SWAP1 POP SWAP3 SWAP2 POP POP JUMP JUMPDEST DUP3 DUP2 DUP4 MCOPY PUSH0 DUP4 DUP4 ADD MSTORE POP POP POP JUMP JUMPDEST PUSH0 PUSH1 0x1F NOT PUSH1 0x1F DUP4 ADD AND SWAP1 POP SWAP2 SWAP1 POP JUMP JUMPDEST PUSH0 PUSH2 0x12AA DUP3 PUSH2 0x1268 JUMP JUMPDEST PUSH2 0x12B4 DUP2 DUP6 PUSH2 0x1272 JUMP JUMPDEST SWAP4 POP PUSH2 0x12C4 DUP2 DUP6 PUSH1 0x20 DUP7 ADD PUSH2 0x1282 JUMP JUMPDEST PUSH2 0x12CD DUP2 PUSH2 0x1290 JUMP JUMPDEST DUP5 ADD SWAP2 POP POP SWAP3 SWAP2 POP POP JUMP JUMPDEST PUSH0 PUSH1 0x80 DUP3 ADD SWAP1 POP PUSH2 0x12EB PUSH0 DUP4 ADD DUP8 PUSH2 0xE54 JUMP JUMPDEST PUSH2 0x12F8 PUSH1 0x20 DUP4 ADD DUP7 PUSH2 0xF86 JUMP JUMPDEST PUSH2 0x1305 PUSH1 0x40 DUP4 ADD DUP6 PUSH2 0x1259 JUMP JUMPDEST DUP2 DUP2 SUB PUSH1 0x60 DUP4 ADD MSTORE PUSH2 0x1317 DUP2 DUP5 PUSH2 0x12A0 JUMP JUMPDEST SWAP1 POP SWAP6 SWAP5 POP POP POP POP POP JUMP JUMPDEST PUSH0 DUP2 MLOAD SWAP1 POP PUSH2 0x1330 DUP2 PUSH2 0xEC0 JUMP JUMPDEST SWAP3 SWAP2 POP POP JUMP JUMPDEST PUSH0 PUSH1 0x20 DUP3 DUP5 SUB SLT ISZERO PUSH2 0x134B JUMPI PUSH2 0x134A PUSH2 0xE85 JUMP JUMPDEST JUMPDEST PUSH0 PUSH2 0x1358 DUP5 DUP3 DUP6 ADD PUSH2 0x1322 JUMP JUMPDEST SWAP2 POP POP SWAP3 SWAP2 POP POP JUMP JUMPDEST PUSH2 0x136A DUP2 PUSH2 0xF28 JUMP JUMPDEST DUP2 EQ PUSH2 0x1374 JUMPI PUSH0 DUP1 REVERT JUMPDEST POP JUMP JUMPDEST PUSH0 DUP2 MLOAD SWAP1 POP PUSH2 0x1385 DUP2 PUSH2 0x1361 JUMP JUMPDEST SWAP3 SWAP2 POP POP JUMP JUMPDEST PUSH0 PUSH1 0x20 DUP3 DUP5 SUB SLT ISZERO PUSH2 0x13A0 JUMPI PUSH2 0x139F PUSH2 0xE85 JUMP JUMPDEST JUMPDEST PUSH0 PUSH2 0x13AD DUP5 DUP3 DUP6 ADD PUSH2 0x1377 JUMP JUMPDEST SWAP2 POP POP SWAP3 SWAP2 POP POP JUMP JUMPDEST PUSH32 0x756E69737761705633466C61736843616C6C6261636B3A206E6F742061757468 PUSH0 DUP3 ADD MSTORE PUSH32 0x6F72697A65640000000000000000000000000000000000000000000000000000 PUSH1 0x20 DUP3 ADD MSTORE POP JUMP JUMPDEST PUSH0 PUSH2 0x1410 PUSH1 0x26 DUP4 PUSH2 0x114F JUMP JUMPDEST SWAP2 POP PUSH2 0x141B DUP3 PUSH2 0x13B6 JUMP JUMPDEST PUSH1 0x40 DUP3 ADD SWAP1 POP SWAP2 SWAP1 POP JUMP JUMPDEST PUSH0 PUSH1 0x20 DUP3 ADD SWAP1 POP DUP2 DUP2 SUB PUSH0 DUP4 ADD MSTORE PUSH2 0x143D DUP2 PUSH2 0x1404 JUMP JUMPDEST SWAP1 POP SWAP2 SWAP1 POP JUMP JUMPDEST PUSH0 PUSH2 0x144E DUP3 PUSH2 0xDB0 JUMP JUMPDEST SWAP1 POP SWAP2 SWAP1 POP JUMP JUMPDEST PUSH2 0x145E DUP2 PUSH2 0x1444 JUMP JUMPDEST DUP2 EQ PUSH2 0x1468 JUMPI PUSH0 DUP1 REVERT JUMPDEST POP JUMP JUMPDEST PUSH0 DUP2 CALLDATALOAD SWAP1 POP PUSH2 0x1479 DUP2 PUSH2 0x1455 JUMP JUMPDEST SWAP3 SWAP2 POP POP JUMP JUMPDEST PUSH0 DUP1 PUSH1 0x40 DUP4 DUP6 SUB SLT ISZERO PUSH2 0x1495 JUMPI PUSH2 0x1494 PUSH2 0xE85 JUMP JUMPDEST JUMPDEST PUSH0 PUSH2 0x14A2 DUP6 DUP3 DUP7 ADD PUSH2 0x146B JUMP JUMPDEST SWAP3 POP POP PUSH1 0x20 PUSH2 0x14B3 DUP6 DUP3 DUP7 ADD PUSH2 0xED6 JUMP JUMPDEST SWAP2 POP POP SWAP3 POP SWAP3 SWAP1 POP JUMP JUMPDEST PUSH32 0x756E69737761705633466C61736843616C6C6261636B3A20706F6F6C20626F72 PUSH0 DUP3 ADD MSTORE PUSH32 0x726F7720213D20554E495F574554483100000000000000000000000000000000 PUSH1 0x20 DUP3 ADD MSTORE POP JUMP JUMPDEST PUSH0 PUSH2 0x1517 PUSH1 0x30 DUP4 PUSH2 0x114F JUMP JUMPDEST SWAP2 POP PUSH2 0x1522 DUP3 PUSH2 0x14BD JUMP JUMPDEST PUSH1 0x40 DUP3 ADD SWAP1 POP SWAP2 SWAP1 POP JUMP JUMPDEST PUSH0 PUSH1 0x20 DUP3 ADD SWAP1 POP DUP2 DUP2 SUB PUSH0 DUP4 ADD MSTORE PUSH2 0x1544 DUP2 PUSH2 0x150B JUMP JUMPDEST SWAP1 POP SWAP2 SWAP1 POP JUMP JUMPDEST PUSH32 0x554E490000000000000000000000000000000000000000000000000000000000 PUSH0 DUP3 ADD MSTORE POP JUMP JUMPDEST PUSH0 PUSH2 0x157F PUSH1 0x3 DUP4 PUSH2 0x114F JUMP JUMPDEST SWAP2 POP PUSH2 0x158A DUP3 PUSH2 0x154B JUMP JUMPDEST PUSH1 0x20 DUP3 ADD SWAP1 POP SWAP2 SWAP1 POP JUMP JUMPDEST PUSH32 0x5745544800000000000000000000000000000000000000000000000000000000 PUSH0 DUP3 ADD MSTORE POP JUMP JUMPDEST PUSH0 PUSH2 0x15C9 PUSH1 0x4 DUP4 PUSH2 0x114F JUMP JUMPDEST SWAP2 POP PUSH2 0x15D4 DUP3 PUSH2 0x1595 JUMP JUMPDEST PUSH1 0x20 DUP3 ADD SWAP1 POP SWAP2 SWAP1 POP JUMP JUMPDEST PUSH0 PUSH1 0x60 DUP3 ADD SWAP1 POP DUP2 DUP2 SUB PUSH0 DUP4 ADD MSTORE PUSH2 0x15F6 DUP2 PUSH2 0x1573 JUMP JUMPDEST SWAP1 POP DUP2 DUP2 SUB PUSH1 0x20 DUP4 ADD MSTORE PUSH2 0x1609 DUP2 PUSH2 0x15BD JUMP JUMPDEST SWAP1 POP PUSH2 0x1618 PUSH1 0x40 DUP4 ADD DUP5 PUSH2 0xF86 JUMP JUMPDEST SWAP3 SWAP2 POP POP JUMP JUMPDEST PUSH2 0x1627 DUP2 PUSH2 0x10AB JUMP JUMPDEST DUP3 MSTORE POP POP JUMP JUMPDEST PUSH0 PUSH2 0x1647 PUSH2 0x1642 PUSH2 0x163D DUP5 PUSH2 0x122F JUMP JUMPDEST PUSH2 0xDCF JUMP JUMPDEST PUSH2 0xDB0 JUMP JUMPDEST SWAP1 POP SWAP2 SWAP1 POP JUMP JUMPDEST PUSH2 0x1657 DUP2 PUSH2 0x162D JUMP JUMPDEST DUP3 MSTORE POP POP JUMP JUMPDEST PUSH0 PUSH1 0xA0 DUP3 ADD SWAP1 POP PUSH2 0x1670 PUSH0 DUP4 ADD DUP9 PUSH2 0xE54 JUMP JUMPDEST PUSH2 0x167D PUSH1 0x20 DUP4 ADD DUP8 PUSH2 0xF33 JUMP JUMPDEST PUSH2 0x168A PUSH1 0x40 DUP4 ADD DUP7 PUSH2 0x161E JUMP JUMPDEST PUSH2 0x1697 PUSH1 0x60 DUP4 ADD DUP6 PUSH2 0x164E JUMP JUMPDEST DUP2 DUP2 SUB PUSH1 0x80 DUP4 ADD MSTORE PUSH2 0x16A9 DUP2 DUP5 PUSH2 0x12A0 JUMP JUMPDEST SWAP1 POP SWAP7 SWAP6 POP POP POP POP POP POP JUMP JUMPDEST PUSH0 DUP2 MLOAD SWAP1 POP PUSH2 0x16C3 DUP2 PUSH2 0x10B4 JUMP JUMPDEST SWAP3 SWAP2 POP POP JUMP JUMPDEST PUSH0 DUP1 PUSH1 0x40 DUP4 DUP6 SUB SLT ISZERO PUSH2 0x16DF JUMPI PUSH2 0x16DE PUSH2 0xE85 JUMP JUMPDEST JUMPDEST PUSH0 PUSH2 0x16EC DUP6 DUP3 DUP7 ADD PUSH2 0x16B5 JUMP JUMPDEST SWAP3 POP POP PUSH1 0x20 PUSH2 0x16FD DUP6 DUP3 DUP7 ADD PUSH2 0x16B5 JUMP JUMPDEST SWAP2 POP POP SWAP3 POP SWAP3 SWAP1 POP JUMP JUMPDEST PUSH0 PUSH1 0x60 DUP3 ADD SWAP1 POP DUP2 DUP2 SUB PUSH0 DUP4 ADD MSTORE PUSH2 0x171E DUP2 PUSH2 0x15BD JUMP JUMPDEST SWAP1 POP DUP2 DUP2 SUB PUSH1 0x20 DUP4 ADD MSTORE PUSH2 0x1731 DUP2 PUSH2 0x1573 JUMP JUMPDEST SWAP1 POP PUSH2 0x1740 PUSH1 0x40 DUP4 ADD DUP5 PUSH2 0xF86 JUMP JUMPDEST SWAP3 SWAP2 POP POP JUMP JUMPDEST PUSH32 0x4E487B7100000000000000000000000000000000000000000000000000000000 PUSH0 MSTORE PUSH1 0x11 PUSH1 0x4 MSTORE PUSH1 0x24 PUSH0 REVERT JUMPDEST PUSH0 PUSH2 0x177D DUP3 PUSH2 0xEB7 JUMP JUMPDEST SWAP2 POP PUSH2 0x1788 DUP4 PUSH2 0xEB7 JUMP JUMPDEST SWAP3 POP DUP3 DUP3 ADD SWAP1 POP DUP1 DUP3 GT ISZERO PUSH2 0x17A0 JUMPI PUSH2 0x179F PUSH2 0x1746 JUMP JUMPDEST JUMPDEST SWAP3 SWAP2 POP POP JUMP JUMPDEST PUSH0 PUSH2 0x17B0 DUP3 PUSH2 0x10AB JUMP JUMPDEST SWAP2 POP PUSH2 0x17BB DUP4 PUSH2 0x10AB JUMP JUMPDEST SWAP3 POP DUP3 DUP3 SUB SWAP1 POP DUP2 DUP2 SLT PUSH0 DUP5 SLT AND DUP3 DUP3 SGT PUSH0 DUP6 SLT ISZERO AND OR ISZERO PUSH2 0x17E0 JUMPI PUSH2 0x17DF PUSH2 0x1746 JUMP JUMPDEST JUMPDEST SWAP3 SWAP2 POP POP JUMP JUMPDEST PUSH0 PUSH1 0x60 DUP3 ADD SWAP1 POP PUSH2 0x17F9 PUSH0 DUP4 ADD DUP7 PUSH2 0xF86 JUMP JUMPDEST PUSH2 0x1806 PUSH1 0x20 DUP4 ADD DUP6 PUSH2 0xF86 JUMP JUMPDEST PUSH2 0x1813 PUSH1 0x40 DUP4 ADD DUP5 PUSH2 0xF86 JUMP JUMPDEST SWAP5 SWAP4 POP POP POP POP JUMP JUMPDEST PUSH32 0x756E697377617056335377617043616C6C6261636B3A206E6F7420617574686F PUSH0 DUP3 ADD MSTORE PUSH32 0x72697A6564000000000000000000000000000000000000000000000000000000 PUSH1 0x20 DUP3 ADD MSTORE POP JUMP JUMPDEST PUSH0 PUSH2 0x1875 PUSH1 0x25 DUP4 PUSH2 0x114F JUMP JUMPDEST SWAP2 POP PUSH2 0x1880 DUP3 PUSH2 0x181B JUMP JUMPDEST PUSH1 0x40 DUP3 ADD SWAP1 POP SWAP2 SWAP1 POP JUMP JUMPDEST PUSH0 PUSH1 0x20 DUP3 ADD SWAP1 POP DUP2 DUP2 SUB PUSH0 DUP4 ADD MSTORE PUSH2 0x18A2 DUP2 PUSH2 0x1869 JUMP JUMPDEST SWAP1 POP SWAP2 SWAP1 POP JUMP JUMPDEST PUSH0 DUP1 REVERT JUMPDEST PUSH32 0x4E487B7100000000000000000000000000000000000000000000000000000000 PUSH0 MSTORE PUSH1 0x41 PUSH1 0x4 MSTORE PUSH1 0x24 PUSH0 REVERT JUMPDEST PUSH2 0x18E3 DUP3 PUSH2 0x1290 JUMP JUMPDEST DUP2 ADD DUP2 DUP2 LT PUSH8 0xFFFFFFFFFFFFFFFF DUP3 GT OR ISZERO PUSH2 0x1902 JUMPI PUSH2 0x1901 PUSH2 0x18AD JUMP JUMPDEST JUMPDEST DUP1 PUSH1 0x40 MSTORE POP POP POP JUMP JUMPDEST PUSH0 PUSH2 0x1914 PUSH2 0xE7C JUMP JUMPDEST SWAP1 POP PUSH2 0x1920 DUP3 DUP3 PUSH2 0x18DA JUMP JUMPDEST SWAP2 SWAP1 POP JUMP JUMPDEST PUSH0 PUSH8 0xFFFFFFFFFFFFFFFF DUP3 GT ISZERO PUSH2 0x193F JUMPI PUSH2 0x193E PUSH2 0x18AD JUMP JUMPDEST JUMPDEST PUSH2 0x1948 DUP3 PUSH2 0x1290 JUMP JUMPDEST SWAP1 POP PUSH1 0x20 DUP2 ADD SWAP1 POP SWAP2 SWAP1 POP JUMP JUMPDEST DUP3 DUP2 DUP4 CALLDATACOPY PUSH0 DUP4 DUP4 ADD MSTORE POP POP POP JUMP JUMPDEST PUSH0 PUSH2 0x1975 PUSH2 0x1970 DUP5 PUSH2 0x1925 JUMP JUMPDEST PUSH2 0x190B JUMP JUMPDEST SWAP1 POP DUP3 DUP2 MSTORE PUSH1 0x20 DUP2 ADD DUP5 DUP5 DUP5 ADD GT ISZERO PUSH2 0x1991 JUMPI PUSH2 0x1990 PUSH2 0x18A9 JUMP JUMPDEST JUMPDEST PUSH2 0x199C DUP5 DUP3 DUP6 PUSH2 0x1955 JUMP JUMPDEST POP SWAP4 SWAP3 POP POP POP JUMP JUMPDEST PUSH0 DUP3 PUSH1 0x1F DUP4 ADD SLT PUSH2 0x19B8 JUMPI PUSH2 0x19B7 PUSH2 0xFD9 JUMP JUMPDEST JUMPDEST DUP2 CALLDATALOAD PUSH2 0x19C8 DUP5 DUP3 PUSH1 0x20 DUP7 ADD PUSH2 0x1963 JUMP JUMPDEST SWAP2 POP POP SWAP3 SWAP2 POP POP JUMP JUMPDEST PUSH0 DUP1 PUSH0 PUSH1 0x60 DUP5 DUP7 SUB SLT ISZERO PUSH2 0x19E8 JUMPI PUSH2 0x19E7 PUSH2 0xE85 JUMP JUMPDEST JUMPDEST PUSH0 DUP5 ADD CALLDATALOAD PUSH8 0xFFFFFFFFFFFFFFFF DUP2 GT ISZERO PUSH2 0x1A05 JUMPI PUSH2 0x1A04 PUSH2 0xE89 JUMP JUMPDEST JUMPDEST PUSH2 0x1A11 DUP7 DUP3 DUP8 ADD PUSH2 0x19A4 JUMP JUMPDEST SWAP4 POP POP PUSH1 0x20 DUP5 ADD CALLDATALOAD PUSH8 0xFFFFFFFFFFFFFFFF DUP2 GT ISZERO PUSH2 0x1A32 JUMPI PUSH2 0x1A31 PUSH2 0xE89 JUMP JUMPDEST JUMPDEST PUSH2 0x1A3E DUP7 DUP3 DUP8 ADD PUSH2 0x19A4 JUMP JUMPDEST SWAP3 POP POP PUSH1 0x40 PUSH2 0x1A4F DUP7 DUP3 DUP8 ADD PUSH2 0xED6 JUMP JUMPDEST SWAP2 POP POP SWAP3 POP SWAP3 POP SWAP3 JUMP JUMPDEST PUSH0 DUP2 MLOAD SWAP1 POP SWAP2 SWAP1 POP JUMP JUMPDEST PUSH0 PUSH2 0x1A6D DUP3 PUSH2 0x1A59 JUMP JUMPDEST PUSH2 0x1A77 DUP2 DUP6 PUSH2 0x114F JUMP JUMPDEST SWAP4 POP PUSH2 0x1A87 DUP2 DUP6 PUSH1 0x20 DUP7 ADD PUSH2 0x1282 JUMP JUMPDEST PUSH2 0x1A90 DUP2 PUSH2 0x1290 JUMP JUMPDEST DUP5 ADD SWAP2 POP POP SWAP3 SWAP2 POP POP JUMP JUMPDEST PUSH0 PUSH1 0xA0 DUP3 ADD SWAP1 POP PUSH2 0x1AAE PUSH0 DUP4 ADD DUP9 PUSH2 0xE54 JUMP JUMPDEST DUP2 DUP2 SUB PUSH1 0x20 DUP4 ADD MSTORE PUSH2 0x1AC0 DUP2 DUP8 PUSH2 0x1A63 JUMP JUMPDEST SWAP1 POP DUP2 DUP2 SUB PUSH1 0x40 DUP4 ADD MSTORE PUSH2 0x1AD4 DUP2 DUP7 PUSH2 0x1A63 JUMP JUMPDEST SWAP1 POP PUSH2 0x1AE3 PUSH1 0x60 DUP4 ADD DUP6 PUSH2 0x161E JUMP JUMPDEST PUSH2 0x1AF0 PUSH1 0x80 DUP4 ADD DUP5 PUSH2 0x161E JUMP JUMPDEST SWAP7 SWAP6 POP POP POP POP POP POP JUMP INVALID LOG2 PUSH5 0x6970667358 0x22 SLT KECCAK256 0x29 MLOAD 0xBA BYTE DUP16 0x24 SWAP7 0xF6 0xB1 0xCD SWAP6 SSTORE ISZERO 0x27 CALLVALUE 0xE8 SELFDESTRUCT 0xC3 0xB0 BLOBHASH SWAP10 0x29 NOT 0xD GT 0x22 PUSH22 0x4868144C1264736F6C634300081A0033000000000000 "
		},
		"gasEstimates": {
			"creation": {
				"codeDepositCost": "1392000",
				"executionCost": "infinite",
				"totalCost": "infinite"
			},
			"external": {
				"UNI()": "484",
				"UNI_WETH1()": "439",
				"UNI_WETH2()": "396",
				"UNI_WETH3()": "440",
				"WETH()": "440",
				"flashloan(uint256)": "infinite",
				"pool1()": "infinite",
				"pool2()": "infinite",
				"pool3()": "infinite",
				"transferTo(address,uint256)": "infinite",
				"transferWETHTo(address)": "infinite",
				"uniswapV3FlashCallback(uint256,uint256,bytes)": "infinite",
				"uniswapV3SwapCallback(int256,int256,bytes)": "infinite"
			}
		},
		"methodIdentifiers": {
			"UNI()": "541bcb76",
			"UNI_WETH1()": "f6c099f0",
			"UNI_WETH2()": "13c614fa",
			"UNI_WETH3()": "4e631372",
			"WETH()": "ad5c4648",
			"flashloan(uint256)": "65b6c4f0",
			"pool1()": "05ea3ed5",
			"pool2()": "b941d3e0",
			"pool3()": "53ce36a9",
			"transferTo(address,uint256)": "2ccb1b30",
			"transferWETHTo(address)": "a24fcdbf",
			"uniswapV3FlashCallback(uint256,uint256,bytes)": "e9cbafb0",
			"uniswapV3SwapCallback(int256,int256,bytes)": "fa461e33"
		}
	},
	"abi": [
		{
			"inputs": [],
			"stateMutability": "nonpayable",
			"type": "constructor"
		},
		{
			"anonymous": false,
			"inputs": [
				{
					"indexed": false,
					"internalType": "uint256",
					"name": "fee0",
					"type": "uint256"
				},
				{
					"indexed": false,
					"internalType": "uint256",
					"name": "fee1",
					"type": "uint256"
				},
				{
					"indexed": false,
					"internalType": "uint256",
					"name": "wethEarn",
					"type": "uint256"
				}
			],
			"name": "FlashCallback",
			"type": "event"
		},
		{
			"anonymous": false,
			"inputs": [
				{
					"indexed": false,
					"internalType": "address",
					"name": "poolAddress",
					"type": "address"
				},
				{
					"indexed": false,
					"internalType": "string",
					"name": "transferToken0Desc",
					"type": "string"
				},
				{
					"indexed": false,
					"internalType": "string",
					"name": "receiveTokenDesc",
					"type": "string"
				},
				{
					"indexed": false,
					"internalType": "int256",
					"name": "amount0Delta",
					"type": "int256"
				},
				{
					"indexed": false,
					"internalType": "int256",
					"name": "amount1Delta",
					"type": "int256"
				}
			],
			"name": "SwapCallback",
			"type": "event"
		},
		{
			"inputs": [],
			"name": "UNI",
			"outputs": [
				{
					"internalType": "address",
					"name": "",
					"type": "address"
				}
			],
			"stateMutability": "view",
			"type": "function"
		},
		{
			"inputs": [],
			"name": "UNI_WETH1",
			"outputs": [
				{
					"internalType": "address",
					"name": "",
					"type": "address"
				}
			],
			"stateMutability": "view",
			"type": "function"
		},
		{
			"inputs": [],
			"name": "UNI_WETH2",
			"outputs": [
				{
					"internalType": "address",
					"name": "",
					"type": "address"
				}
			],
			"stateMutability": "view",
			"type": "function"
		},
		{
			"inputs": [],
			"name": "UNI_WETH3",
			"outputs": [
				{
					"internalType": "address",
					"name": "",
					"type": "address"
				}
			],
			"stateMutability": "view",
			"type": "function"
		},
		{
			"inputs": [],
			"name": "WETH",
			"outputs": [
				{
					"internalType": "address",
					"name": "",
					"type": "address"
				}
			],
			"stateMutability": "view",
			"type": "function"
		},
		{
			"inputs": [
				{
					"internalType": "uint256",
					"name": "amount",
					"type": "uint256"
				}
			],
			"name": "flashloan",
			"outputs": [
				{
					"internalType": "uint256",
					"name": "",
					"type": "uint256"
				}
			],
			"stateMutability": "nonpayable",
			"type": "function"
		},
		{
			"inputs": [],
			"name": "pool1",
			"outputs": [
				{
					"internalType": "contract IUniswapV3Pool",
					"name": "",
					"type": "address"
				}
			],
			"stateMutability": "view",
			"type": "function"
		},
		{
			"inputs": [],
			"name": "pool2",
			"outputs": [
				{
					"internalType": "contract IUniswapV3Pool",
					"name": "",
					"type": "address"
				}
			],
			"stateMutability": "view",
			"type": "function"
		},
		{
			"inputs": [],
			"name": "pool3",
			"outputs": [
				{
					"internalType": "contract IUniswapV3Pool",
					"name": "",
					"type": "address"
				}
			],
			"stateMutability": "view",
			"type": "function"
		},
		{
			"inputs": [
				{
					"internalType": "address",
					"name": "recipient",
					"type": "address"
				},
				{
					"internalType": "uint256",
					"name": "amount",
					"type": "uint256"
				}
			],
			"name": "transferTo",
			"outputs": [
				{
					"internalType": "bool",
					"name": "",
					"type": "bool"
				}
			],
			"stateMutability": "nonpayable",
			"type": "function"
		},
		{
			"inputs": [
				{
					"internalType": "address",
					"name": "recipient",
					"type": "address"
				}
			],
			"name": "transferWETHTo",
			"outputs": [
				{
					"internalType": "bool",
					"name": "",
					"type": "bool"
				}
			],
			"stateMutability": "nonpayable",
			"type": "function"
		},
		{
			"inputs": [
				{
					"internalType": "uint256",
					"name": "fee0",
					"type": "uint256"
				},
				{
					"internalType": "uint256",
					"name": "fee1",
					"type": "uint256"
				},
				{
					"internalType": "bytes",
					"name": "data",
					"type": "bytes"
				}
			],
			"name": "uniswapV3FlashCallback",
			"outputs": [],
			"stateMutability": "nonpayable",
			"type": "function"
		},
		{
			"inputs": [
				{
					"internalType": "int256",
					"name": "amount0Delta",
					"type": "int256"
				},
				{
					"internalType": "int256",
					"name": "amount1Delta",
					"type": "int256"
				},
				{
					"internalType": "bytes",
					"name": "data",
					"type": "bytes"
				}
			],
			"name": "uniswapV3SwapCallback",
			"outputs": [],
			"stateMutability": "nonpayable",
			"type": "function"
		}
	]
}