{
	"data": {
		"bytecode": {
			"linkReferences": {},
			"object": "6080604052348015600e575f80fd5b506121ed8061001c5f395ff3fe608060405234801561000f575f80fd5b5060043610610060575f3560e01c806306449dd514610064578063508e1e44146100965780636eb35eab146100c6578063919d472f146100f857806398fcd0d314610128578063cef2c93914610158575b5f80fd5b61007e60048036038101906100799190611113565b61018a565b60405161008d939291906114a7565b60405180910390f35b6100b060048036038101906100ab919061150d565b61080b565b6040516100bd9190611566565b60405180910390f35b6100e060048036038101906100db9190611113565b610866565b6040516100ef939291906114a7565b60405180910390f35b610112600480360381019061010d919061171b565b61094b565b60405161011f919061182f565b60405180910390f35b610142600480360381019061013d919061184f565b610aeb565b60405161014f91906118f9565b60405180910390f35b610172600480360381019061016d9190611919565b610e55565b60405161018193929190611971565b60405180910390f35b60605f805f8690505f8686905090508067ffffffffffffffff8111156101b3576101b261158f565b5b6040519080825280602002602001820160405280156101ec57816020015b6101d9610f57565b8152602001906001900390816101d15790505b5094506001436101fc91906119d3565b9350834092505f5b818110156107ff575f8373ffffffffffffffffffffffffffffffffffffffff16631698ee828a8a8581811061023c5761023b611a06565b5b9050606002015f0160208101906102539190611919565b8b8b8681811061026657610265611a06565b5b905060600201602001602081019061027e9190611919565b8c8c8781811061029157610290611a06565b5b90506060020160400160208101906102a99190611a6b565b6040518463ffffffff1660e01b81526004016102c793929190611ab4565b602060405180830381865afa1580156102e2573d5f803e3d5ffd5b505050506040513d601f19601f820116820180604052508101906103069190611afd565b90505f73ffffffffffffffffffffffffffffffffffffffff168173ffffffffffffffffffffffffffffffffffffffff16146107f1578087838151811061034f5761034e611a06565b5b60200260200101515f019073ffffffffffffffffffffffffffffffffffffffff16908173ffffffffffffffffffffffffffffffffffffffff16815250508073ffffffffffffffffffffffffffffffffffffffff16630dfe16816040518163ffffffff1660e01b8152600401602060405180830381865afa1580156103d5573d5f803e3d5ffd5b505050506040513d601f19601f820116820180604052508101906103f99190611afd565b87838151811061040c5761040b611a06565b5b60200260200101516020019073ffffffffffffffffffffffffffffffffffffffff16908173ffffffffffffffffffffffffffffffffffffffff168152505086828151811061045d5761045c611a06565b5b60200260200101516020015173ffffffffffffffffffffffffffffffffffffffff166370a08231826040518263ffffffff1660e01b81526004016104a19190611b28565b602060405180830381865afa1580156104bc573d5f803e3d5ffd5b505050506040513d601f19601f820116820180604052508101906104e09190611b55565b8783815181106104f3576104f2611a06565b5b602002602001015160400181815250508073ffffffffffffffffffffffffffffffffffffffff1663d21220a76040518163ffffffff1660e01b8152600401602060405180830381865afa15801561054c573d5f803e3d5ffd5b505050506040513d601f19601f820116820180604052508101906105709190611afd565b87838151811061058357610582611a06565b5b60200260200101516060019073ffffffffffffffffffffffffffffffffffffffff16908173ffffffffffffffffffffffffffffffffffffffff16815250508682815181106105d4576105d3611a06565b5b60200260200101516060015173ffffffffffffffffffffffffffffffffffffffff166370a08231826040518263ffffffff1660e01b81526004016106189190611b28565b602060405180830381865afa158015610633573d5f803e3d5ffd5b505050506040513d601f19601f820116820180604052508101906106579190611b55565b87838151811061066a57610669611a06565b5b602002602001015160800181815250508073ffffffffffffffffffffffffffffffffffffffff1663d0c93a7c6040518163ffffffff1660e01b8152600401602060405180830381865afa1580156106c3573d5f803e3d5ffd5b505050506040513d601f19601f820116820180604052508101906106e79190611b94565b8783815181106106fa576106f9611a06565b5b602002602001015160a0019060020b908160020b815250505f805f61071e84610e55565b925092509250828a868151811061073857610737611a06565b5b602002602001015160c0019073ffffffffffffffffffffffffffffffffffffffff16908173ffffffffffffffffffffffffffffffffffffffff1681525050818a868151811061078a57610789611a06565b5b602002602001015160e0019060020b908160020b81525050808a86815181106107b6576107b5611a06565b5b602002602001015161010001906fffffffffffffffffffffffffffffffff1690816fffffffffffffffffffffffffffffffff16815250505050505b508080600101915050610204565b50505093509350939050565b5f8082846108199190611bec565b90505f8460020b12801561083b57505f83856108359190611c54565b60020b14155b156108505760018161084d9190611c84565b90505b5f60088260020b901d9050809250505092915050565b60605f805f85859050905061087c87878761018a565b8094508195508296505050505f5b81811015610940575f8582815181106108a6576108a5611a06565b5b60200260200101515f015190505f73ffffffffffffffffffffffffffffffffffffffff168173ffffffffffffffffffffffffffffffffffffffff16146109325761090e818784815181106108fd576108fc611a06565b5b602002602001015160a00151610aeb565b86838151811061092157610920611a06565b5b602002602001015161012001819052505b50808060010191505061088a565b505093509350939050565b60605f805f90505b85518110156109be575f8682815181106109705761096f611a06565b5b602002602001015190505f5b6101008110156109af575f816001901b8316146109a257838061099e90611cde565b9450505b808060010191505061097c565b50508080600101915050610953565b505f8167ffffffffffffffff8111156109da576109d961158f565b5b604051908082528060200260200182016040528015610a085781602001602082028036833780820191505090505b5090505f805f90505b8751811015610add575f888281518110610a2e57610a2d611a06565b5b602002602001015190505f8289610a459190611d25565b60010b90505f5b610100811015610acd575f816001901b841614610ac0575f898261010085610a749190611d7e565b610a7e9190611dba565b610a889190611d7e565b905080878780610a9790611cde565b985081518110610aaa57610aa9611a06565b5b602002602001019060020b908160020b81525050505b8080600101915050610a4c565b5050508080600101915050610a11565b508193505050509392505050565b60605f8390505f610b1c7ffffffffffffffffffffffffffffffffffffffffffffffffffffffffffff276188561080b565b90505f610b2c620d89e88661080b565b90505f60018383610b3d9190611e14565b610b479190611d25565b61ffff1690505f8167ffffffffffffffff811115610b6857610b6761158f565b5b604051908082528060200260200182016040528015610b965781602001602082028036833780820191505090505b5090505f8490505b8360010b8160010b13610c69575f8582610bb89190611e14565b61ffff1690508673ffffffffffffffffffffffffffffffffffffffff16635339c296836040518263ffffffff1660e01b8152600401610bf79190611566565b602060405180830381865afa158015610c12573d5f803e3d5ffd5b505050506040513d601f19601f82011682018060405250810190610c369190611b55565b838281518110610c4957610c48611a06565b5b602002602001018181525050508080610c6190611e6d565b915050610b9e565b505f610c7682868a61094b565b90505f815167ffffffffffffffff811115610c9457610c9361158f565b5b604051908082528060200260200182016040528015610ccd57816020015b610cba611011565b815260200190600190039081610cb25790505b5090505f5b8251811015610e44575f808973ffffffffffffffffffffffffffffffffffffffff1663f30dba93868581518110610d0c57610d0b611a06565b5b60200260200101516040518263ffffffff1660e01b8152600401610d309190611e96565b61010060405180830381865afa158015610d4c573d5f803e3d5ffd5b505050506040513d601f19601f82011682018060405250810190610d709190611fd1565b50505050505091509150848381518110610d8d57610d8c611a06565b5b6020026020010151848481518110610da857610da7611a06565b5b60200260200101515f019060020b908160020b8152505081848481518110610dd357610dd2611a06565b5b6020026020010151602001906fffffffffffffffffffffffffffffffff1690816fffffffffffffffffffffffffffffffff168152505080848481518110610e1d57610e1c611a06565b5b602002602001015160400190600f0b9081600f0b8152505050508080600101915050610cd2565b508097505050505050505092915050565b5f805f808490508073ffffffffffffffffffffffffffffffffffffffff16633850c7bd6040518163ffffffff1660e01b815260040160e060405180830381865afa158015610ea5573d5f803e3d5ffd5b505050506040513d601f19601f82011682018060405250810190610ec991906120ef565b90919293509091925090915090505080945081955050508073ffffffffffffffffffffffffffffffffffffffff16631a6865026040518163ffffffff1660e01b8152600401602060405180830381865afa158015610f29573d5f803e3d5ffd5b505050506040513d601f19601f82011682018060405250810190610f4d919061218c565b9150509193909250565b6040518061014001604052805f73ffffffffffffffffffffffffffffffffffffffff1681526020015f73ffffffffffffffffffffffffffffffffffffffff1681526020015f81526020015f73ffffffffffffffffffffffffffffffffffffffff1681526020015f81526020015f60020b81526020015f73ffffffffffffffffffffffffffffffffffffffff1681526020015f60020b81526020015f6fffffffffffffffffffffffffffffffff168152602001606081525090565b60405180606001604052805f60020b81526020015f6fffffffffffffffffffffffffffffffff1681526020015f600f0b81525090565b5f604051905090565b5f80fd5b5f80fd5b5f73ffffffffffffffffffffffffffffffffffffffff82169050919050565b5f61108182611058565b9050919050565b61109181611077565b811461109b575f80fd5b50565b5f813590506110ac81611088565b92915050565b5f80fd5b5f80fd5b5f80fd5b5f8083601f8401126110d3576110d26110b2565b5b8235905067ffffffffffffffff8111156110f0576110ef6110b6565b5b60208301915083606082028301111561110c5761110b6110ba565b5b9250929050565b5f805f6040848603121561112a57611129611050565b5b5f6111378682870161109e565b935050602084013567ffffffffffffffff81111561115857611157611054565b5b611164868287016110be565b92509250509250925092565b5f81519050919050565b5f82825260208201905092915050565b5f819050602082019050919050565b6111a281611077565b82525050565b5f819050919050565b6111ba816111a8565b82525050565b5f8160020b9050919050565b6111d5816111c0565b82525050565b6111e481611058565b82525050565b5f6fffffffffffffffffffffffffffffffff82169050919050565b61120e816111ea565b82525050565b5f81519050919050565b5f82825260208201905092915050565b5f819050602082019050919050565b5f81600f0b9050919050565b6112528161123d565b82525050565b606082015f82015161126c5f8501826111cc565b50602082015161127f6020850182611205565b5060408201516112926040850182611249565b50505050565b5f6112a38383611258565b60608301905092915050565b5f602082019050919050565b5f6112c582611214565b6112cf818561121e565b93506112da8361122e565b805f5b8381101561130a5781516112f18882611298565b97506112fc836112af565b9250506001810190506112dd565b5085935050505092915050565b5f61014083015f83015161132d5f860182611199565b5060208301516113406020860182611199565b50604083015161135360408601826111b1565b5060608301516113666060860182611199565b50608083015161137960808601826111b1565b5060a083015161138c60a08601826111cc565b5060c083015161139f60c08601826111db565b5060e08301516113b260e08601826111cc565b506101008301516113c7610100860182611205565b506101208301518482036101208601526113e182826112bb565b9150508091505092915050565b5f6113f98383611317565b905092915050565b5f602082019050919050565b5f61141782611170565b611421818561117a565b9350836020820285016114338561118a565b805f5b8581101561146e578484038952815161144f85826113ee565b945061145a83611401565b925060208a01995050600181019050611436565b50829750879550505050505092915050565b611489816111a8565b82525050565b5f819050919050565b6114a18161148f565b82525050565b5f6060820190508181035f8301526114bf818661140d565b90506114ce6020830185611480565b6114db6040830184611498565b949350505050565b6114ec816111c0565b81146114f6575f80fd5b50565b5f81359050611507816114e3565b92915050565b5f806040838503121561152357611522611050565b5b5f611530858286016114f9565b9250506020611541858286016114f9565b9150509250929050565b5f8160010b9050919050565b6115608161154b565b82525050565b5f6020820190506115795f830184611557565b92915050565b5f601f19601f8301169050919050565b7f4e487b71000000000000000000000000000000000000000000000000000000005f52604160045260245ffd5b6115c58261157f565b810181811067ffffffffffffffff821117156115e4576115e361158f565b5b80604052505050565b5f6115f6611047565b905061160282826115bc565b919050565b5f67ffffffffffffffff8211156116215761162061158f565b5b602082029050602081019050919050565b61163b816111a8565b8114611645575f80fd5b50565b5f8135905061165681611632565b92915050565b5f61166e61166984611607565b6115ed565b90508083825260208201905060208402830185811115611691576116906110ba565b5b835b818110156116ba57806116a68882611648565b845260208401935050602081019050611693565b5050509392505050565b5f82601f8301126116d8576116d76110b2565b5b81356116e884826020860161165c565b91505092915050565b6116fa8161154b565b8114611704575f80fd5b50565b5f81359050611715816116f1565b92915050565b5f805f6060848603121561173257611731611050565b5b5f84013567ffffffffffffffff81111561174f5761174e611054565b5b61175b868287016116c4565b935050602061176c86828701611707565b925050604061177d868287016114f9565b9150509250925092565b5f81519050919050565b5f82825260208201905092915050565b5f819050602082019050919050565b5f6117bb83836111cc565b60208301905092915050565b5f602082019050919050565b5f6117dd82611787565b6117e78185611791565b93506117f2836117a1565b805f5b8381101561182257815161180988826117b0565b9750611814836117c7565b9250506001810190506117f5565b5085935050505092915050565b5f6020820190508181035f83015261184781846117d3565b905092915050565b5f806040838503121561186557611864611050565b5b5f6118728582860161109e565b9250506020611883858286016114f9565b9150509250929050565b5f82825260208201905092915050565b5f6118a782611214565b6118b1818561188d565b93506118bc8361122e565b805f5b838110156118ec5781516118d38882611298565b97506118de836112af565b9250506001810190506118bf565b5085935050505092915050565b5f6020820190508181035f830152611911818461189d565b905092915050565b5f6020828403121561192e5761192d611050565b5b5f61193b8482850161109e565b91505092915050565b61194d81611058565b82525050565b61195c816111c0565b82525050565b61196b816111ea565b82525050565b5f6060820190506119845f830186611944565b6119916020830185611953565b61199e6040830184611962565b949350505050565b7f4e487b71000000000000000000000000000000000000000000000000000000005f52601160045260245ffd5b5f6119dd826111a8565b91506119e8836111a8565b9250828203905081811115611a00576119ff6119a6565b5b92915050565b7f4e487b71000000000000000000000000000000000000000000000000000000005f52603260045260245ffd5b5f62ffffff82169050919050565b611a4a81611a33565b8114611a54575f80fd5b50565b5f81359050611a6581611a41565b92915050565b5f60208284031215611a8057611a7f611050565b5b5f611a8d84828501611a57565b91505092915050565b611a9f81611077565b82525050565b611aae81611a33565b82525050565b5f606082019050611ac75f830186611a96565b611ad46020830185611a96565b611ae16040830184611aa5565b949350505050565b5f81519050611af781611088565b92915050565b5f60208284031215611b1257611b11611050565b5b5f611b1f84828501611ae9565b91505092915050565b5f602082019050611b3b5f830184611a96565b92915050565b5f81519050611b4f81611632565b92915050565b5f60208284031215611b6a57611b69611050565b5b5f611b7784828501611b41565b91505092915050565b5f81519050611b8e816114e3565b92915050565b5f60208284031215611ba957611ba8611050565b5b5f611bb684828501611b80565b91505092915050565b7f4e487b71000000000000000000000000000000000000000000000000000000005f52601260045260245ffd5b5f611bf6826111c0565b9150611c01836111c0565b925082611c1157611c10611bbf565b5b60015f0383147fffffffffffffffffffffffffffffffffffffffffffffffffffffffffff80000083141615611c4957611c486119a6565b5b828205905092915050565b5f611c5e826111c0565b9150611c69836111c0565b925082611c7957611c78611bbf565b5b828207905092915050565b5f611c8e826111c0565b9150611c99836111c0565b92508282039050627fffff81137fffffffffffffffffffffffffffffffffffffffffffffffffffffffffff80000082121715611cd857611cd76119a6565b5b92915050565b5f611ce8826111a8565b91507fffffffffffffffffffffffffffffffffffffffffffffffffffffffffffffffff8203611d1a57611d196119a6565b5b600182019050919050565b5f611d2f8261154b565b9150611d3a8361154b565b925082820190507fffffffffffffffffffffffffffffffffffffffffffffffffffffffffffff80008112617fff82131715611d7857611d776119a6565b5b92915050565b5f611d88826111c0565b9150611d93836111c0565b9250828202611da1816111c0565b9150808214611db357611db26119a6565b5b5092915050565b5f611dc4826111c0565b9150611dcf836111c0565b925082820190507fffffffffffffffffffffffffffffffffffffffffffffffffffffffffff8000008112627fffff82131715611e0e57611e0d6119a6565b5b92915050565b5f611e1e8261154b565b9150611e298361154b565b92508282039050617fff81137fffffffffffffffffffffffffffffffffffffffffffffffffffffffffffff800082121715611e6757611e666119a6565b5b92915050565b5f611e778261154b565b9150617fff8203611e8b57611e8a6119a6565b5b600182019050919050565b5f602082019050611ea95f830184611953565b92915050565b611eb8816111ea565b8114611ec2575f80fd5b50565b5f81519050611ed381611eaf565b92915050565b611ee28161123d565b8114611eec575f80fd5b50565b5f81519050611efd81611ed9565b92915050565b5f8160060b9050919050565b611f1881611f03565b8114611f22575f80fd5b50565b5f81519050611f3381611f0f565b92915050565b611f4281611058565b8114611f4c575f80fd5b50565b5f81519050611f5d81611f39565b92915050565b5f63ffffffff82169050919050565b611f7b81611f63565b8114611f85575f80fd5b50565b5f81519050611f9681611f72565b92915050565b5f8115159050919050565b611fb081611f9c565b8114611fba575f80fd5b50565b5f81519050611fcb81611fa7565b92915050565b5f805f805f805f80610100898b031215611fee57611fed611050565b5b5f611ffb8b828c01611ec5565b985050602061200c8b828c01611eef565b975050604061201d8b828c01611b41565b965050606061202e8b828c01611b41565b955050608061203f8b828c01611f25565b94505060a06120508b828c01611f4f565b93505060c06120618b828c01611f88565b92505060e06120728b828c01611fbd565b9150509295985092959890939650565b5f61ffff82169050919050565b61209881612082565b81146120a2575f80fd5b50565b5f815190506120b38161208f565b92915050565b5f60ff82169050919050565b6120ce816120b9565b81146120d8575f80fd5b50565b5f815190506120e9816120c5565b92915050565b5f805f805f805f60e0888a03121561210a57612109611050565b5b5f6121178a828b01611f4f565b97505060206121288a828b01611b80565b96505060406121398a828b016120a5565b955050606061214a8a828b016120a5565b945050608061215b8a828b016120a5565b93505060a061216c8a828b016120db565b92505060c061217d8a828b01611fbd565b91505092959891949750929550565b5f602082840312156121a1576121a0611050565b5b5f6121ae84828501611ec5565b9150509291505056fea26469706673582212209feecb8b27a0921267f31916a2b6071050984d38882f1c23bc07577b05a4d06064736f6c634300081a0033",
			"opcodes": "PUSH1 0x80 PUSH1 0x40 MSTORE CALLVALUE DUP1 ISZERO PUSH1 0xE JUMPI PUSH0 DUP1 REVERT JUMPDEST POP PUSH2 0x21ED DUP1 PUSH2 0x1C PUSH0 CODECOPY PUSH0 RETURN INVALID PUSH1 0x80 PUSH1 0x40 MSTORE CALLVALUE DUP1 ISZERO PUSH2 0xF JUMPI PUSH0 DUP1 REVERT JUMPDEST POP PUSH1 0x4 CALLDATASIZE LT PUSH2 0x60 JUMPI PUSH0 CALLDATALOAD PUSH1 0xE0 SHR DUP1 PUSH4 0x6449DD5 EQ PUSH2 0x64 JUMPI DUP1 PUSH4 0x508E1E44 EQ PUSH2 0x96 JUMPI DUP1 PUSH4 0x6EB35EAB EQ PUSH2 0xC6 JUMPI DUP1 PUSH4 0x919D472F EQ PUSH2 0xF8 JUMPI DUP1 PUSH4 0x98FCD0D3 EQ PUSH2 0x128 JUMPI DUP1 PUSH4 0xCEF2C939 EQ PUSH2 0x158 JUMPI JUMPDEST PUSH0 DUP1 REVERT JUMPDEST PUSH2 0x7E PUSH1 0x4 DUP1 CALLDATASIZE SUB DUP2 ADD SWAP1 PUSH2 0x79 SWAP2 SWAP1 PUSH2 0x1113 JUMP JUMPDEST PUSH2 0x18A JUMP JUMPDEST PUSH1 0x40 MLOAD PUSH2 0x8D SWAP4 SWAP3 SWAP2 SWAP1 PUSH2 0x14A7 JUMP JUMPDEST PUSH1 0x40 MLOAD DUP1 SWAP2 SUB SWAP1 RETURN JUMPDEST PUSH2 0xB0 PUSH1 0x4 DUP1 CALLDATASIZE SUB DUP2 ADD SWAP1 PUSH2 0xAB SWAP2 SWAP1 PUSH2 0x150D JUMP JUMPDEST PUSH2 0x80B JUMP JUMPDEST PUSH1 0x40 MLOAD PUSH2 0xBD SWAP2 SWAP1 PUSH2 0x1566 JUMP JUMPDEST PUSH1 0x40 MLOAD DUP1 SWAP2 SUB SWAP1 RETURN JUMPDEST PUSH2 0xE0 PUSH1 0x4 DUP1 CALLDATASIZE SUB DUP2 ADD SWAP1 PUSH2 0xDB SWAP2 SWAP1 PUSH2 0x1113 JUMP JUMPDEST PUSH2 0x866 JUMP JUMPDEST PUSH1 0x40 MLOAD PUSH2 0xEF SWAP4 SWAP3 SWAP2 SWAP1 PUSH2 0x14A7 JUMP JUMPDEST PUSH1 0x40 MLOAD DUP1 SWAP2 SUB SWAP1 RETURN JUMPDEST PUSH2 0x112 PUSH1 0x4 DUP1 CALLDATASIZE SUB DUP2 ADD SWAP1 PUSH2 0x10D SWAP2 SWAP1 PUSH2 0x171B JUMP JUMPDEST PUSH2 0x94B JUMP JUMPDEST PUSH1 0x40 MLOAD PUSH2 0x11F SWAP2 SWAP1 PUSH2 0x182F JUMP JUMPDEST PUSH1 0x40 MLOAD DUP1 SWAP2 SUB SWAP1 RETURN JUMPDEST PUSH2 0x142 PUSH1 0x4 DUP1 CALLDATASIZE SUB DUP2 ADD SWAP1 PUSH2 0x13D SWAP2 SWAP1 PUSH2 0x184F JUMP JUMPDEST PUSH2 0xAEB JUMP JUMPDEST PUSH1 0x40 MLOAD PUSH2 0x14F SWAP2 SWAP1 PUSH2 0x18F9 JUMP JUMPDEST PUSH1 0x40 MLOAD DUP1 SWAP2 SUB SWAP1 RETURN JUMPDEST PUSH2 0x172 PUSH1 0x4 DUP1 CALLDATASIZE SUB DUP2 ADD SWAP1 PUSH2 0x16D SWAP2 SWAP1 PUSH2 0x1919 JUMP JUMPDEST PUSH2 0xE55 JUMP JUMPDEST PUSH1 0x40 MLOAD PUSH2 0x181 SWAP4 SWAP3 SWAP2 SWAP1 PUSH2 0x1971 JUMP JUMPDEST PUSH1 0x40 MLOAD DUP1 SWAP2 SUB SWAP1 RETURN JUMPDEST PUSH1 0x60 PUSH0 DUP1 PUSH0 DUP7 SWAP1 POP PUSH0 DUP7 DUP7 SWAP1 POP SWAP1 POP DUP1 PUSH8 0xFFFFFFFFFFFFFFFF DUP2 GT ISZERO PUSH2 0x1B3 JUMPI PUSH2 0x1B2 PUSH2 0x158F JUMP JUMPDEST JUMPDEST PUSH1 0x40 MLOAD SWAP1 DUP1 DUP3 MSTORE DUP1 PUSH1 0x20 MUL PUSH1 0x20 ADD DUP3 ADD PUSH1 0x40 MSTORE DUP1 ISZERO PUSH2 0x1EC JUMPI DUP2 PUSH1 0x20 ADD JUMPDEST PUSH2 0x1D9 PUSH2 0xF57 JUMP JUMPDEST DUP2 MSTORE PUSH1 0x20 ADD SWAP1 PUSH1 0x1 SWAP1 SUB SWAP1 DUP2 PUSH2 0x1D1 JUMPI SWAP1 POP JUMPDEST POP SWAP5 POP PUSH1 0x1 NUMBER PUSH2 0x1FC SWAP2 SWAP1 PUSH2 0x19D3 JUMP JUMPDEST SWAP4 POP DUP4 BLOCKHASH SWAP3 POP PUSH0 JUMPDEST DUP2 DUP2 LT ISZERO PUSH2 0x7FF JUMPI PUSH0 DUP4 PUSH20 0xFFFFFFFFFFFFFFFFFFFFFFFFFFFFFFFFFFFFFFFF AND PUSH4 0x1698EE82 DUP11 DUP11 DUP6 DUP2 DUP2 LT PUSH2 0x23C JUMPI PUSH2 0x23B PUSH2 0x1A06 JUMP JUMPDEST JUMPDEST SWAP1 POP PUSH1 0x60 MUL ADD PUSH0 ADD PUSH1 0x20 DUP2 ADD SWAP1 PUSH2 0x253 SWAP2 SWAP1 PUSH2 0x1919 JUMP JUMPDEST DUP12 DUP12 DUP7 DUP2 DUP2 LT PUSH2 0x266 JUMPI PUSH2 0x265 PUSH2 0x1A06 JUMP JUMPDEST JUMPDEST SWAP1 POP PUSH1 0x60 MUL ADD PUSH1 0x20 ADD PUSH1 0x20 DUP2 ADD SWAP1 PUSH2 0x27E SWAP2 SWAP1 PUSH2 0x1919 JUMP JUMPDEST DUP13 DUP13 DUP8 DUP2 DUP2 LT PUSH2 0x291 JUMPI PUSH2 0x290 PUSH2 0x1A06 JUMP JUMPDEST JUMPDEST SWAP1 POP PUSH1 0x60 MUL ADD PUSH1 0x40 ADD PUSH1 0x20 DUP2 ADD SWAP1 PUSH2 0x2A9 SWAP2 SWAP1 PUSH2 0x1A6B JUMP JUMPDEST PUSH1 0x40 MLOAD DUP5 PUSH4 0xFFFFFFFF AND PUSH1 0xE0 SHL DUP2 MSTORE PUSH1 0x4 ADD PUSH2 0x2C7 SWAP4 SWAP3 SWAP2 SWAP1 PUSH2 0x1AB4 JUMP JUMPDEST PUSH1 0x20 PUSH1 0x40 MLOAD DUP1 DUP4 SUB DUP2 DUP7 GAS STATICCALL ISZERO DUP1 ISZERO PUSH2 0x2E2 JUMPI RETURNDATASIZE PUSH0 DUP1 RETURNDATACOPY RETURNDATASIZE PUSH0 REVERT JUMPDEST POP POP POP POP PUSH1 0x40 MLOAD RETURNDATASIZE PUSH1 0x1F NOT PUSH1 0x1F DUP3 ADD AND DUP3 ADD DUP1 PUSH1 0x40 MSTORE POP DUP2 ADD SWAP1 PUSH2 0x306 SWAP2 SWAP1 PUSH2 0x1AFD JUMP JUMPDEST SWAP1 POP PUSH0 PUSH20 0xFFFFFFFFFFFFFFFFFFFFFFFFFFFFFFFFFFFFFFFF AND DUP2 PUSH20 0xFFFFFFFFFFFFFFFFFFFFFFFFFFFFFFFFFFFFFFFF AND EQ PUSH2 0x7F1 JUMPI DUP1 DUP8 DUP4 DUP2 MLOAD DUP2 LT PUSH2 0x34F JUMPI PUSH2 0x34E PUSH2 0x1A06 JUMP JUMPDEST JUMPDEST PUSH1 0x20 MUL PUSH1 0x20 ADD ADD MLOAD PUSH0 ADD SWAP1 PUSH20 0xFFFFFFFFFFFFFFFFFFFFFFFFFFFFFFFFFFFFFFFF AND SWAP1 DUP2 PUSH20 0xFFFFFFFFFFFFFFFFFFFFFFFFFFFFFFFFFFFFFFFF AND DUP2 MSTORE POP POP DUP1 PUSH20 0xFFFFFFFFFFFFFFFFFFFFFFFFFFFFFFFFFFFFFFFF AND PUSH4 0xDFE1681 PUSH1 0x40 MLOAD DUP2 PUSH4 0xFFFFFFFF AND PUSH1 0xE0 SHL DUP2 MSTORE PUSH1 0x4 ADD PUSH1 0x20 PUSH1 0x40 MLOAD DUP1 DUP4 SUB DUP2 DUP7 GAS STATICCALL ISZERO DUP1 ISZERO PUSH2 0x3D5 JUMPI RETURNDATASIZE PUSH0 DUP1 RETURNDATACOPY RETURNDATASIZE PUSH0 REVERT JUMPDEST POP POP POP POP PUSH1 0x40 MLOAD RETURNDATASIZE PUSH1 0x1F NOT PUSH1 0x1F DUP3 ADD AND DUP3 ADD DUP1 PUSH1 0x40 MSTORE POP DUP2 ADD SWAP1 PUSH2 0x3F9 SWAP2 SWAP1 PUSH2 0x1AFD JUMP JUMPDEST DUP8 DUP4 DUP2 MLOAD DUP2 LT PUSH2 0x40C JUMPI PUSH2 0x40B PUSH2 0x1A06 JUMP JUMPDEST JUMPDEST PUSH1 0x20 MUL PUSH1 0x20 ADD ADD MLOAD PUSH1 0x20 ADD SWAP1 PUSH20 0xFFFFFFFFFFFFFFFFFFFFFFFFFFFFFFFFFFFFFFFF AND SWAP1 DUP2 PUSH20 0xFFFFFFFFFFFFFFFFFFFFFFFFFFFFFFFFFFFFFFFF AND DUP2 MSTORE POP POP DUP7 DUP3 DUP2 MLOAD DUP2 LT PUSH2 0x45D JUMPI PUSH2 0x45C PUSH2 0x1A06 JUMP JUMPDEST JUMPDEST PUSH1 0x20 MUL PUSH1 0x20 ADD ADD MLOAD PUSH1 0x20 ADD MLOAD PUSH20 0xFFFFFFFFFFFFFFFFFFFFFFFFFFFFFFFFFFFFFFFF AND PUSH4 0x70A08231 DUP3 PUSH1 0x40 MLOAD DUP3 PUSH4 0xFFFFFFFF AND PUSH1 0xE0 SHL DUP2 MSTORE PUSH1 0x4 ADD PUSH2 0x4A1 SWAP2 SWAP1 PUSH2 0x1B28 JUMP JUMPDEST PUSH1 0x20 PUSH1 0x40 MLOAD DUP1 DUP4 SUB DUP2 DUP7 GAS STATICCALL ISZERO DUP1 ISZERO PUSH2 0x4BC JUMPI RETURNDATASIZE PUSH0 DUP1 RETURNDATACOPY RETURNDATASIZE PUSH0 REVERT JUMPDEST POP POP POP POP PUSH1 0x40 MLOAD RETURNDATASIZE PUSH1 0x1F NOT PUSH1 0x1F DUP3 ADD AND DUP3 ADD DUP1 PUSH1 0x40 MSTORE POP DUP2 ADD SWAP1 PUSH2 0x4E0 SWAP2 SWAP1 PUSH2 0x1B55 JUMP JUMPDEST DUP8 DUP4 DUP2 MLOAD DUP2 LT PUSH2 0x4F3 JUMPI PUSH2 0x4F2 PUSH2 0x1A06 JUMP JUMPDEST JUMPDEST PUSH1 0x20 MUL PUSH1 0x20 ADD ADD MLOAD PUSH1 0x40 ADD DUP2 DUP2 MSTORE POP POP DUP1 PUSH20 0xFFFFFFFFFFFFFFFFFFFFFFFFFFFFFFFFFFFFFFFF AND PUSH4 0xD21220A7 PUSH1 0x40 MLOAD DUP2 PUSH4 0xFFFFFFFF AND PUSH1 0xE0 SHL DUP2 MSTORE PUSH1 0x4 ADD PUSH1 0x20 PUSH1 0x40 MLOAD DUP1 DUP4 SUB DUP2 DUP7 GAS STATICCALL ISZERO DUP1 ISZERO PUSH2 0x54C JUMPI RETURNDATASIZE PUSH0 DUP1 RETURNDATACOPY RETURNDATASIZE PUSH0 REVERT JUMPDEST POP POP POP POP PUSH1 0x40 MLOAD RETURNDATASIZE PUSH1 0x1F NOT PUSH1 0x1F DUP3 ADD AND DUP3 ADD DUP1 PUSH1 0x40 MSTORE POP DUP2 ADD SWAP1 PUSH2 0x570 SWAP2 SWAP1 PUSH2 0x1AFD JUMP JUMPDEST DUP8 DUP4 DUP2 MLOAD DUP2 LT PUSH2 0x583 JUMPI PUSH2 0x582 PUSH2 0x1A06 JUMP JUMPDEST JUMPDEST PUSH1 0x20 MUL PUSH1 0x20 ADD ADD MLOAD PUSH1 0x60 ADD SWAP1 PUSH20 0xFFFFFFFFFFFFFFFFFFFFFFFFFFFFFFFFFFFFFFFF AND SWAP1 DUP2 PUSH20 0xFFFFFFFFFFFFFFFFFFFFFFFFFFFFFFFFFFFFFFFF AND DUP2 MSTORE POP POP DUP7 DUP3 DUP2 MLOAD DUP2 LT PUSH2 0x5D4 JUMPI PUSH2 0x5D3 PUSH2 0x1A06 JUMP JUMPDEST JUMPDEST PUSH1 0x20 MUL PUSH1 0x20 ADD ADD MLOAD PUSH1 0x60 ADD MLOAD PUSH20 0xFFFFFFFFFFFFFFFFFFFFFFFFFFFFFFFFFFFFFFFF AND PUSH4 0x70A08231 DUP3 PUSH1 0x40 MLOAD DUP3 PUSH4 0xFFFFFFFF AND PUSH1 0xE0 SHL DUP2 MSTORE PUSH1 0x4 ADD PUSH2 0x618 SWAP2 SWAP1 PUSH2 0x1B28 JUMP JUMPDEST PUSH1 0x20 PUSH1 0x40 MLOAD DUP1 DUP4 SUB DUP2 DUP7 GAS STATICCALL ISZERO DUP1 ISZERO PUSH2 0x633 JUMPI RETURNDATASIZE PUSH0 DUP1 RETURNDATACOPY RETURNDATASIZE PUSH0 REVERT JUMPDEST POP POP POP POP PUSH1 0x40 MLOAD RETURNDATASIZE PUSH1 0x1F NOT PUSH1 0x1F DUP3 ADD AND DUP3 ADD DUP1 PUSH1 0x40 MSTORE POP DUP2 ADD SWAP1 PUSH2 0x657 SWAP2 SWAP1 PUSH2 0x1B55 JUMP JUMPDEST DUP8 DUP4 DUP2 MLOAD DUP2 LT PUSH2 0x66A JUMPI PUSH2 0x669 PUSH2 0x1A06 JUMP JUMPDEST JUMPDEST PUSH1 0x20 MUL PUSH1 0x20 ADD ADD MLOAD PUSH1 0x80 ADD DUP2 DUP2 MSTORE POP POP DUP1 PUSH20 0xFFFFFFFFFFFFFFFFFFFFFFFFFFFFFFFFFFFFFFFF AND PUSH4 0xD0C93A7C PUSH1 0x40 MLOAD DUP2 PUSH4 0xFFFFFFFF AND PUSH1 0xE0 SHL DUP2 MSTORE PUSH1 0x4 ADD PUSH1 0x20 PUSH1 0x40 MLOAD DUP1 DUP4 SUB DUP2 DUP7 GAS STATICCALL ISZERO DUP1 ISZERO PUSH2 0x6C3 JUMPI RETURNDATASIZE PUSH0 DUP1 RETURNDATACOPY RETURNDATASIZE PUSH0 REVERT JUMPDEST POP POP POP POP PUSH1 0x40 MLOAD RETURNDATASIZE PUSH1 0x1F NOT PUSH1 0x1F DUP3 ADD AND DUP3 ADD DUP1 PUSH1 0x40 MSTORE POP DUP2 ADD SWAP1 PUSH2 0x6E7 SWAP2 SWAP1 PUSH2 0x1B94 JUMP JUMPDEST DUP8 DUP4 DUP2 MLOAD DUP2 LT PUSH2 0x6FA JUMPI PUSH2 0x6F9 PUSH2 0x1A06 JUMP JUMPDEST JUMPDEST PUSH1 0x20 MUL PUSH1 0x20 ADD ADD MLOAD PUSH1 0xA0 ADD SWAP1 PUSH1 0x2 SIGNEXTEND SWAP1 DUP2 PUSH1 0x2 SIGNEXTEND DUP2 MSTORE POP POP PUSH0 DUP1 PUSH0 PUSH2 0x71E DUP5 PUSH2 0xE55 JUMP JUMPDEST SWAP3 POP SWAP3 POP SWAP3 POP DUP3 DUP11 DUP7 DUP2 MLOAD DUP2 LT PUSH2 0x738 JUMPI PUSH2 0x737 PUSH2 0x1A06 JUMP JUMPDEST JUMPDEST PUSH1 0x20 MUL PUSH1 0x20 ADD ADD MLOAD PUSH1 0xC0 ADD SWAP1 PUSH20 0xFFFFFFFFFFFFFFFFFFFFFFFFFFFFFFFFFFFFFFFF AND SWAP1 DUP2 PUSH20 0xFFFFFFFFFFFFFFFFFFFFFFFFFFFFFFFFFFFFFFFF AND DUP2 MSTORE POP POP DUP2 DUP11 DUP7 DUP2 MLOAD DUP2 LT PUSH2 0x78A JUMPI PUSH2 0x789 PUSH2 0x1A06 JUMP JUMPDEST JUMPDEST PUSH1 0x20 MUL PUSH1 0x20 ADD ADD MLOAD PUSH1 0xE0 ADD SWAP1 PUSH1 0x2 SIGNEXTEND SWAP1 DUP2 PUSH1 0x2 SIGNEXTEND DUP2 MSTORE POP POP DUP1 DUP11 DUP7 DUP2 MLOAD DUP2 LT PUSH2 0x7B6 JUMPI PUSH2 0x7B5 PUSH2 0x1A06 JUMP JUMPDEST JUMPDEST PUSH1 0x20 MUL PUSH1 0x20 ADD ADD MLOAD PUSH2 0x100 ADD SWAP1 PUSH16 0xFFFFFFFFFFFFFFFFFFFFFFFFFFFFFFFF AND SWAP1 DUP2 PUSH16 0xFFFFFFFFFFFFFFFFFFFFFFFFFFFFFFFF AND DUP2 MSTORE POP POP POP POP POP JUMPDEST POP DUP1 DUP1 PUSH1 0x1 ADD SWAP2 POP POP PUSH2 0x204 JUMP JUMPDEST POP POP POP SWAP4 POP SWAP4 POP SWAP4 SWAP1 POP JUMP JUMPDEST PUSH0 DUP1 DUP3 DUP5 PUSH2 0x819 SWAP2 SWAP1 PUSH2 0x1BEC JUMP JUMPDEST SWAP1 POP PUSH0 DUP5 PUSH1 0x2 SIGNEXTEND SLT DUP1 ISZERO PUSH2 0x83B JUMPI POP PUSH0 DUP4 DUP6 PUSH2 0x835 SWAP2 SWAP1 PUSH2 0x1C54 JUMP JUMPDEST PUSH1 0x2 SIGNEXTEND EQ ISZERO JUMPDEST ISZERO PUSH2 0x850 JUMPI PUSH1 0x1 DUP2 PUSH2 0x84D SWAP2 SWAP1 PUSH2 0x1C84 JUMP JUMPDEST SWAP1 POP JUMPDEST PUSH0 PUSH1 0x8 DUP3 PUSH1 0x2 SIGNEXTEND SWAP1 SAR SWAP1 POP DUP1 SWAP3 POP POP POP SWAP3 SWAP2 POP POP JUMP JUMPDEST PUSH1 0x60 PUSH0 DUP1 PUSH0 DUP6 DUP6 SWAP1 POP SWAP1 POP PUSH2 0x87C DUP8 DUP8 DUP8 PUSH2 0x18A JUMP JUMPDEST DUP1 SWAP5 POP DUP2 SWAP6 POP DUP3 SWAP7 POP POP POP POP PUSH0 JUMPDEST DUP2 DUP2 LT ISZERO PUSH2 0x940 JUMPI PUSH0 DUP6 DUP3 DUP2 MLOAD DUP2 LT PUSH2 0x8A6 JUMPI PUSH2 0x8A5 PUSH2 0x1A06 JUMP JUMPDEST JUMPDEST PUSH1 0x20 MUL PUSH1 0x20 ADD ADD MLOAD PUSH0 ADD MLOAD SWAP1 POP PUSH0 PUSH20 0xFFFFFFFFFFFFFFFFFFFFFFFFFFFFFFFFFFFFFFFF AND DUP2 PUSH20 0xFFFFFFFFFFFFFFFFFFFFFFFFFFFFFFFFFFFFFFFF AND EQ PUSH2 0x932 JUMPI PUSH2 0x90E DUP2 DUP8 DUP5 DUP2 MLOAD DUP2 LT PUSH2 0x8FD JUMPI PUSH2 0x8FC PUSH2 0x1A06 JUMP JUMPDEST JUMPDEST PUSH1 0x20 MUL PUSH1 0x20 ADD ADD MLOAD PUSH1 0xA0 ADD MLOAD PUSH2 0xAEB JUMP JUMPDEST DUP7 DUP4 DUP2 MLOAD DUP2 LT PUSH2 0x921 JUMPI PUSH2 0x920 PUSH2 0x1A06 JUMP JUMPDEST JUMPDEST PUSH1 0x20 MUL PUSH1 0x20 ADD ADD MLOAD PUSH2 0x120 ADD DUP2 SWAP1 MSTORE POP JUMPDEST POP DUP1 DUP1 PUSH1 0x1 ADD SWAP2 POP POP PUSH2 0x88A JUMP JUMPDEST POP POP SWAP4 POP SWAP4 POP SWAP4 SWAP1 POP JUMP JUMPDEST PUSH1 0x60 PUSH0 DUP1 PUSH0 SWAP1 POP JUMPDEST DUP6 MLOAD DUP2 LT ISZERO PUSH2 0x9BE JUMPI PUSH0 DUP7 DUP3 DUP2 MLOAD DUP2 LT PUSH2 0x970 JUMPI PUSH2 0x96F PUSH2 0x1A06 JUMP JUMPDEST JUMPDEST PUSH1 0x20 MUL PUSH1 0x20 ADD ADD MLOAD SWAP1 POP PUSH0 JUMPDEST PUSH2 0x100 DUP2 LT ISZERO PUSH2 0x9AF JUMPI PUSH0 DUP2 PUSH1 0x1 SWAP1 SHL DUP4 AND EQ PUSH2 0x9A2 JUMPI DUP4 DUP1 PUSH2 0x99E SWAP1 PUSH2 0x1CDE JUMP JUMPDEST SWAP5 POP POP JUMPDEST DUP1 DUP1 PUSH1 0x1 ADD SWAP2 POP POP PUSH2 0x97C JUMP JUMPDEST POP POP DUP1 DUP1 PUSH1 0x1 ADD SWAP2 POP POP PUSH2 0x953 JUMP JUMPDEST POP PUSH0 DUP2 PUSH8 0xFFFFFFFFFFFFFFFF DUP2 GT ISZERO PUSH2 0x9DA JUMPI PUSH2 0x9D9 PUSH2 0x158F JUMP JUMPDEST JUMPDEST PUSH1 0x40 MLOAD SWAP1 DUP1 DUP3 MSTORE DUP1 PUSH1 0x20 MUL PUSH1 0x20 ADD DUP3 ADD PUSH1 0x40 MSTORE DUP1 ISZERO PUSH2 0xA08 JUMPI DUP2 PUSH1 0x20 ADD PUSH1 0x20 DUP3 MUL DUP1 CALLDATASIZE DUP4 CALLDATACOPY DUP1 DUP3 ADD SWAP2 POP POP SWAP1 POP JUMPDEST POP SWAP1 POP PUSH0 DUP1 PUSH0 SWAP1 POP JUMPDEST DUP8 MLOAD DUP2 LT ISZERO PUSH2 0xADD JUMPI PUSH0 DUP9 DUP3 DUP2 MLOAD DUP2 LT PUSH2 0xA2E JUMPI PUSH2 0xA2D PUSH2 0x1A06 JUMP JUMPDEST JUMPDEST PUSH1 0x20 MUL PUSH1 0x20 ADD ADD MLOAD SWAP1 POP PUSH0 DUP3 DUP10 PUSH2 0xA45 SWAP2 SWAP1 PUSH2 0x1D25 JUMP JUMPDEST PUSH1 0x1 SIGNEXTEND SWAP1 POP PUSH0 JUMPDEST PUSH2 0x100 DUP2 LT ISZERO PUSH2 0xACD JUMPI PUSH0 DUP2 PUSH1 0x1 SWAP1 SHL DUP5 AND EQ PUSH2 0xAC0 JUMPI PUSH0 DUP10 DUP3 PUSH2 0x100 DUP6 PUSH2 0xA74 SWAP2 SWAP1 PUSH2 0x1D7E JUMP JUMPDEST PUSH2 0xA7E SWAP2 SWAP1 PUSH2 0x1DBA JUMP JUMPDEST PUSH2 0xA88 SWAP2 SWAP1 PUSH2 0x1D7E JUMP JUMPDEST SWAP1 POP DUP1 DUP8 DUP8 DUP1 PUSH2 0xA97 SWAP1 PUSH2 0x1CDE JUMP JUMPDEST SWAP9 POP DUP2 MLOAD DUP2 LT PUSH2 0xAAA JUMPI PUSH2 0xAA9 PUSH2 0x1A06 JUMP JUMPDEST JUMPDEST PUSH1 0x20 MUL PUSH1 0x20 ADD ADD SWAP1 PUSH1 0x2 SIGNEXTEND SWAP1 DUP2 PUSH1 0x2 SIGNEXTEND DUP2 MSTORE POP POP POP JUMPDEST DUP1 DUP1 PUSH1 0x1 ADD SWAP2 POP POP PUSH2 0xA4C JUMP JUMPDEST POP POP POP DUP1 DUP1 PUSH1 0x1 ADD SWAP2 POP POP PUSH2 0xA11 JUMP JUMPDEST POP DUP2 SWAP4 POP POP POP POP SWAP4 SWAP3 POP POP POP JUMP JUMPDEST PUSH1 0x60 PUSH0 DUP4 SWAP1 POP PUSH0 PUSH2 0xB1C PUSH32 0xFFFFFFFFFFFFFFFFFFFFFFFFFFFFFFFFFFFFFFFFFFFFFFFFFFFFFFFFFFF27618 DUP6 PUSH2 0x80B JUMP JUMPDEST SWAP1 POP PUSH0 PUSH2 0xB2C PUSH3 0xD89E8 DUP7 PUSH2 0x80B JUMP JUMPDEST SWAP1 POP PUSH0 PUSH1 0x1 DUP4 DUP4 PUSH2 0xB3D SWAP2 SWAP1 PUSH2 0x1E14 JUMP JUMPDEST PUSH2 0xB47 SWAP2 SWAP1 PUSH2 0x1D25 JUMP JUMPDEST PUSH2 0xFFFF AND SWAP1 POP PUSH0 DUP2 PUSH8 0xFFFFFFFFFFFFFFFF DUP2 GT ISZERO PUSH2 0xB68 JUMPI PUSH2 0xB67 PUSH2 0x158F JUMP JUMPDEST JUMPDEST PUSH1 0x40 MLOAD SWAP1 DUP1 DUP3 MSTORE DUP1 PUSH1 0x20 MUL PUSH1 0x20 ADD DUP3 ADD PUSH1 0x40 MSTORE DUP1 ISZERO PUSH2 0xB96 JUMPI DUP2 PUSH1 0x20 ADD PUSH1 0x20 DUP3 MUL DUP1 CALLDATASIZE DUP4 CALLDATACOPY DUP1 DUP3 ADD SWAP2 POP POP SWAP1 POP JUMPDEST POP SWAP1 POP PUSH0 DUP5 SWAP1 POP JUMPDEST DUP4 PUSH1 0x1 SIGNEXTEND DUP2 PUSH1 0x1 SIGNEXTEND SGT PUSH2 0xC69 JUMPI PUSH0 DUP6 DUP3 PUSH2 0xBB8 SWAP2 SWAP1 PUSH2 0x1E14 JUMP JUMPDEST PUSH2 0xFFFF AND SWAP1 POP DUP7 PUSH20 0xFFFFFFFFFFFFFFFFFFFFFFFFFFFFFFFFFFFFFFFF AND PUSH4 0x5339C296 DUP4 PUSH1 0x40 MLOAD DUP3 PUSH4 0xFFFFFFFF AND PUSH1 0xE0 SHL DUP2 MSTORE PUSH1 0x4 ADD PUSH2 0xBF7 SWAP2 SWAP1 PUSH2 0x1566 JUMP JUMPDEST PUSH1 0x20 PUSH1 0x40 MLOAD DUP1 DUP4 SUB DUP2 DUP7 GAS STATICCALL ISZERO DUP1 ISZERO PUSH2 0xC12 JUMPI RETURNDATASIZE PUSH0 DUP1 RETURNDATACOPY RETURNDATASIZE PUSH0 REVERT JUMPDEST POP POP POP POP PUSH1 0x40 MLOAD RETURNDATASIZE PUSH1 0x1F NOT PUSH1 0x1F DUP3 ADD AND DUP3 ADD DUP1 PUSH1 0x40 MSTORE POP DUP2 ADD SWAP1 PUSH2 0xC36 SWAP2 SWAP1 PUSH2 0x1B55 JUMP JUMPDEST DUP4 DUP3 DUP2 MLOAD DUP2 LT PUSH2 0xC49 JUMPI PUSH2 0xC48 PUSH2 0x1A06 JUMP JUMPDEST JUMPDEST PUSH1 0x20 MUL PUSH1 0x20 ADD ADD DUP2 DUP2 MSTORE POP POP POP DUP1 DUP1 PUSH2 0xC61 SWAP1 PUSH2 0x1E6D JUMP JUMPDEST SWAP2 POP POP PUSH2 0xB9E JUMP JUMPDEST POP PUSH0 PUSH2 0xC76 DUP3 DUP7 DUP11 PUSH2 0x94B JUMP JUMPDEST SWAP1 POP PUSH0 DUP2 MLOAD PUSH8 0xFFFFFFFFFFFFFFFF DUP2 GT ISZERO PUSH2 0xC94 JUMPI PUSH2 0xC93 PUSH2 0x158F JUMP JUMPDEST JUMPDEST PUSH1 0x40 MLOAD SWAP1 DUP1 DUP3 MSTORE DUP1 PUSH1 0x20 MUL PUSH1 0x20 ADD DUP3 ADD PUSH1 0x40 MSTORE DUP1 ISZERO PUSH2 0xCCD JUMPI DUP2 PUSH1 0x20 ADD JUMPDEST PUSH2 0xCBA PUSH2 0x1011 JUMP JUMPDEST DUP2 MSTORE PUSH1 0x20 ADD SWAP1 PUSH1 0x1 SWAP1 SUB SWAP1 DUP2 PUSH2 0xCB2 JUMPI SWAP1 POP JUMPDEST POP SWAP1 POP PUSH0 JUMPDEST DUP3 MLOAD DUP2 LT ISZERO PUSH2 0xE44 JUMPI PUSH0 DUP1 DUP10 PUSH20 0xFFFFFFFFFFFFFFFFFFFFFFFFFFFFFFFFFFFFFFFF AND PUSH4 0xF30DBA93 DUP7 DUP6 DUP2 MLOAD DUP2 LT PUSH2 0xD0C JUMPI PUSH2 0xD0B PUSH2 0x1A06 JUMP JUMPDEST JUMPDEST PUSH1 0x20 MUL PUSH1 0x20 ADD ADD MLOAD PUSH1 0x40 MLOAD DUP3 PUSH4 0xFFFFFFFF AND PUSH1 0xE0 SHL DUP2 MSTORE PUSH1 0x4 ADD PUSH2 0xD30 SWAP2 SWAP1 PUSH2 0x1E96 JUMP JUMPDEST PUSH2 0x100 PUSH1 0x40 MLOAD DUP1 DUP4 SUB DUP2 DUP7 GAS STATICCALL ISZERO DUP1 ISZERO PUSH2 0xD4C JUMPI RETURNDATASIZE PUSH0 DUP1 RETURNDATACOPY RETURNDATASIZE PUSH0 REVERT JUMPDEST POP POP POP POP PUSH1 0x40 MLOAD RETURNDATASIZE PUSH1 0x1F NOT PUSH1 0x1F DUP3 ADD AND DUP3 ADD DUP1 PUSH1 0x40 MSTORE POP DUP2 ADD SWAP1 PUSH2 0xD70 SWAP2 SWAP1 PUSH2 0x1FD1 JUMP JUMPDEST POP POP POP POP POP POP SWAP2 POP SWAP2 POP DUP5 DUP4 DUP2 MLOAD DUP2 LT PUSH2 0xD8D JUMPI PUSH2 0xD8C PUSH2 0x1A06 JUMP JUMPDEST JUMPDEST PUSH1 0x20 MUL PUSH1 0x20 ADD ADD MLOAD DUP5 DUP5 DUP2 MLOAD DUP2 LT PUSH2 0xDA8 JUMPI PUSH2 0xDA7 PUSH2 0x1A06 JUMP JUMPDEST JUMPDEST PUSH1 0x20 MUL PUSH1 0x20 ADD ADD MLOAD PUSH0 ADD SWAP1 PUSH1 0x2 SIGNEXTEND SWAP1 DUP2 PUSH1 0x2 SIGNEXTEND DUP2 MSTORE POP POP DUP2 DUP5 DUP5 DUP2 MLOAD DUP2 LT PUSH2 0xDD3 JUMPI PUSH2 0xDD2 PUSH2 0x1A06 JUMP JUMPDEST JUMPDEST PUSH1 0x20 MUL PUSH1 0x20 ADD ADD MLOAD PUSH1 0x20 ADD SWAP1 PUSH16 0xFFFFFFFFFFFFFFFFFFFFFFFFFFFFFFFF AND SWAP1 DUP2 PUSH16 0xFFFFFFFFFFFFFFFFFFFFFFFFFFFFFFFF AND DUP2 MSTORE POP POP DUP1 DUP5 DUP5 DUP2 MLOAD DUP2 LT PUSH2 0xE1D JUMPI PUSH2 0xE1C PUSH2 0x1A06 JUMP JUMPDEST JUMPDEST PUSH1 0x20 MUL PUSH1 0x20 ADD ADD MLOAD PUSH1 0x40 ADD SWAP1 PUSH1 0xF SIGNEXTEND SWAP1 DUP2 PUSH1 0xF SIGNEXTEND DUP2 MSTORE POP POP POP POP DUP1 DUP1 PUSH1 0x1 ADD SWAP2 POP POP PUSH2 0xCD2 JUMP JUMPDEST POP DUP1 SWAP8 POP POP POP POP POP POP POP POP SWAP3 SWAP2 POP POP JUMP JUMPDEST PUSH0 DUP1 PUSH0 DUP1 DUP5 SWAP1 POP DUP1 PUSH20 0xFFFFFFFFFFFFFFFFFFFFFFFFFFFFFFFFFFFFFFFF AND PUSH4 0x3850C7BD PUSH1 0x40 MLOAD DUP2 PUSH4 0xFFFFFFFF AND PUSH1 0xE0 SHL DUP2 MSTORE PUSH1 0x4 ADD PUSH1 0xE0 PUSH1 0x40 MLOAD DUP1 DUP4 SUB DUP2 DUP7 GAS STATICCALL ISZERO DUP1 ISZERO PUSH2 0xEA5 JUMPI RETURNDATASIZE PUSH0 DUP1 RETURNDATACOPY RETURNDATASIZE PUSH0 REVERT JUMPDEST POP POP POP POP PUSH1 0x40 MLOAD RETURNDATASIZE PUSH1 0x1F NOT PUSH1 0x1F DUP3 ADD AND DUP3 ADD DUP1 PUSH1 0x40 MSTORE POP DUP2 ADD SWAP1 PUSH2 0xEC9 SWAP2 SWAP1 PUSH2 0x20EF JUMP JUMPDEST SWAP1 SWAP2 SWAP3 SWAP4 POP SWAP1 SWAP2 SWAP3 POP SWAP1 SWAP2 POP SWAP1 POP POP DUP1 SWAP5 POP DUP2 SWAP6 POP POP POP DUP1 PUSH20 0xFFFFFFFFFFFFFFFFFFFFFFFFFFFFFFFFFFFFFFFF AND PUSH4 0x1A686502 PUSH1 0x40 MLOAD DUP2 PUSH4 0xFFFFFFFF AND PUSH1 0xE0 SHL DUP2 MSTORE PUSH1 0x4 ADD PUSH1 0x20 PUSH1 0x40 MLOAD DUP1 DUP4 SUB DUP2 DUP7 GAS STATICCALL ISZERO DUP1 ISZERO PUSH2 0xF29 JUMPI RETURNDATASIZE PUSH0 DUP1 RETURNDATACOPY RETURNDATASIZE PUSH0 REVERT JUMPDEST POP POP POP POP PUSH1 0x40 MLOAD RETURNDATASIZE PUSH1 0x1F NOT PUSH1 0x1F DUP3 ADD AND DUP3 ADD DUP1 PUSH1 0x40 MSTORE POP DUP2 ADD SWAP1 PUSH2 0xF4D SWAP2 SWAP1 PUSH2 0x218C JUMP JUMPDEST SWAP2 POP POP SWAP2 SWAP4 SWAP1 SWAP3 POP JUMP JUMPDEST PUSH1 0x40 MLOAD DUP1 PUSH2 0x140 ADD PUSH1 0x40 MSTORE DUP1 PUSH0 PUSH20 0xFFFFFFFFFFFFFFFFFFFFFFFFFFFFFFFFFFFFFFFF AND DUP2 MSTORE PUSH1 0x20 ADD PUSH0 PUSH20 0xFFFFFFFFFFFFFFFFFFFFFFFFFFFFFFFFFFFFFFFF AND DUP2 MSTORE PUSH1 0x20 ADD PUSH0 DUP2 MSTORE PUSH1 0x20 ADD PUSH0 PUSH20 0xFFFFFFFFFFFFFFFFFFFFFFFFFFFFFFFFFFFFFFFF AND DUP2 MSTORE PUSH1 0x20 ADD PUSH0 DUP2 MSTORE PUSH1 0x20 ADD PUSH0 PUSH1 0x2 SIGNEXTEND DUP2 MSTORE PUSH1 0x20 ADD PUSH0 PUSH20 0xFFFFFFFFFFFFFFFFFFFFFFFFFFFFFFFFFFFFFFFF AND DUP2 MSTORE PUSH1 0x20 ADD PUSH0 PUSH1 0x2 SIGNEXTEND DUP2 MSTORE PUSH1 0x20 ADD PUSH0 PUSH16 0xFFFFFFFFFFFFFFFFFFFFFFFFFFFFFFFF AND DUP2 MSTORE PUSH1 0x20 ADD PUSH1 0x60 DUP2 MSTORE POP SWAP1 JUMP JUMPDEST PUSH1 0x40 MLOAD DUP1 PUSH1 0x60 ADD PUSH1 0x40 MSTORE DUP1 PUSH0 PUSH1 0x2 SIGNEXTEND DUP2 MSTORE PUSH1 0x20 ADD PUSH0 PUSH16 0xFFFFFFFFFFFFFFFFFFFFFFFFFFFFFFFF AND DUP2 MSTORE PUSH1 0x20 ADD PUSH0 PUSH1 0xF SIGNEXTEND DUP2 MSTORE POP SWAP1 JUMP JUMPDEST PUSH0 PUSH1 0x40 MLOAD SWAP1 POP SWAP1 JUMP JUMPDEST PUSH0 DUP1 REVERT JUMPDEST PUSH0 DUP1 REVERT JUMPDEST PUSH0 PUSH20 0xFFFFFFFFFFFFFFFFFFFFFFFFFFFFFFFFFFFFFFFF DUP3 AND SWAP1 POP SWAP2 SWAP1 POP JUMP JUMPDEST PUSH0 PUSH2 0x1081 DUP3 PUSH2 0x1058 JUMP JUMPDEST SWAP1 POP SWAP2 SWAP1 POP JUMP JUMPDEST PUSH2 0x1091 DUP2 PUSH2 0x1077 JUMP JUMPDEST DUP2 EQ PUSH2 0x109B JUMPI PUSH0 DUP1 REVERT JUMPDEST POP JUMP JUMPDEST PUSH0 DUP2 CALLDATALOAD SWAP1 POP PUSH2 0x10AC DUP2 PUSH2 0x1088 JUMP JUMPDEST SWAP3 SWAP2 POP POP JUMP JUMPDEST PUSH0 DUP1 REVERT JUMPDEST PUSH0 DUP1 REVERT JUMPDEST PUSH0 DUP1 REVERT JUMPDEST PUSH0 DUP1 DUP4 PUSH1 0x1F DUP5 ADD SLT PUSH2 0x10D3 JUMPI PUSH2 0x10D2 PUSH2 0x10B2 JUMP JUMPDEST JUMPDEST DUP3 CALLDATALOAD SWAP1 POP PUSH8 0xFFFFFFFFFFFFFFFF DUP2 GT ISZERO PUSH2 0x10F0 JUMPI PUSH2 0x10EF PUSH2 0x10B6 JUMP JUMPDEST JUMPDEST PUSH1 0x20 DUP4 ADD SWAP2 POP DUP4 PUSH1 0x60 DUP3 MUL DUP4 ADD GT ISZERO PUSH2 0x110C JUMPI PUSH2 0x110B PUSH2 0x10BA JUMP JUMPDEST JUMPDEST SWAP3 POP SWAP3 SWAP1 POP JUMP JUMPDEST PUSH0 DUP1 PUSH0 PUSH1 0x40 DUP5 DUP7 SUB SLT ISZERO PUSH2 0x112A JUMPI PUSH2 0x1129 PUSH2 0x1050 JUMP JUMPDEST JUMPDEST PUSH0 PUSH2 0x1137 DUP7 DUP3 DUP8 ADD PUSH2 0x109E JUMP JUMPDEST SWAP4 POP POP PUSH1 0x20 DUP5 ADD CALLDATALOAD PUSH8 0xFFFFFFFFFFFFFFFF DUP2 GT ISZERO PUSH2 0x1158 JUMPI PUSH2 0x1157 PUSH2 0x1054 JUMP JUMPDEST JUMPDEST PUSH2 0x1164 DUP7 DUP3 DUP8 ADD PUSH2 0x10BE JUMP JUMPDEST SWAP3 POP SWAP3 POP POP SWAP3 POP SWAP3 POP SWAP3 JUMP JUMPDEST PUSH0 DUP2 MLOAD SWAP1 POP SWAP2 SWAP1 POP JUMP JUMPDEST PUSH0 DUP3 DUP3 MSTORE PUSH1 0x20 DUP3 ADD SWAP1 POP SWAP3 SWAP2 POP POP JUMP JUMPDEST PUSH0 DUP2 SWAP1 POP PUSH1 0x20 DUP3 ADD SWAP1 POP SWAP2 SWAP1 POP JUMP JUMPDEST PUSH2 0x11A2 DUP2 PUSH2 0x1077 JUMP JUMPDEST DUP3 MSTORE POP POP JUMP JUMPDEST PUSH0 DUP2 SWAP1 POP SWAP2 SWAP1 POP JUMP JUMPDEST PUSH2 0x11BA DUP2 PUSH2 0x11A8 JUMP JUMPDEST DUP3 MSTORE POP POP JUMP JUMPDEST PUSH0 DUP2 PUSH1 0x2 SIGNEXTEND SWAP1 POP SWAP2 SWAP1 POP JUMP JUMPDEST PUSH2 0x11D5 DUP2 PUSH2 0x11C0 JUMP JUMPDEST DUP3 MSTORE POP POP JUMP JUMPDEST PUSH2 0x11E4 DUP2 PUSH2 0x1058 JUMP JUMPDEST DUP3 MSTORE POP POP JUMP JUMPDEST PUSH0 PUSH16 0xFFFFFFFFFFFFFFFFFFFFFFFFFFFFFFFF DUP3 AND SWAP1 POP SWAP2 SWAP1 POP JUMP JUMPDEST PUSH2 0x120E DUP2 PUSH2 0x11EA JUMP JUMPDEST DUP3 MSTORE POP POP JUMP JUMPDEST PUSH0 DUP2 MLOAD SWAP1 POP SWAP2 SWAP1 POP JUMP JUMPDEST PUSH0 DUP3 DUP3 MSTORE PUSH1 0x20 DUP3 ADD SWAP1 POP SWAP3 SWAP2 POP POP JUMP JUMPDEST PUSH0 DUP2 SWAP1 POP PUSH1 0x20 DUP3 ADD SWAP1 POP SWAP2 SWAP1 POP JUMP JUMPDEST PUSH0 DUP2 PUSH1 0xF SIGNEXTEND SWAP1 POP SWAP2 SWAP1 POP JUMP JUMPDEST PUSH2 0x1252 DUP2 PUSH2 0x123D JUMP JUMPDEST DUP3 MSTORE POP POP JUMP JUMPDEST PUSH1 0x60 DUP3 ADD PUSH0 DUP3 ADD MLOAD PUSH2 0x126C PUSH0 DUP6 ADD DUP3 PUSH2 0x11CC JUMP JUMPDEST POP PUSH1 0x20 DUP3 ADD MLOAD PUSH2 0x127F PUSH1 0x20 DUP6 ADD DUP3 PUSH2 0x1205 JUMP JUMPDEST POP PUSH1 0x40 DUP3 ADD MLOAD PUSH2 0x1292 PUSH1 0x40 DUP6 ADD DUP3 PUSH2 0x1249 JUMP JUMPDEST POP POP POP POP JUMP JUMPDEST PUSH0 PUSH2 0x12A3 DUP4 DUP4 PUSH2 0x1258 JUMP JUMPDEST PUSH1 0x60 DUP4 ADD SWAP1 POP SWAP3 SWAP2 POP POP JUMP JUMPDEST PUSH0 PUSH1 0x20 DUP3 ADD SWAP1 POP SWAP2 SWAP1 POP JUMP JUMPDEST PUSH0 PUSH2 0x12C5 DUP3 PUSH2 0x1214 JUMP JUMPDEST PUSH2 0x12CF DUP2 DUP6 PUSH2 0x121E JUMP JUMPDEST SWAP4 POP PUSH2 0x12DA DUP4 PUSH2 0x122E JUMP JUMPDEST DUP1 PUSH0 JUMPDEST DUP4 DUP2 LT ISZERO PUSH2 0x130A JUMPI DUP2 MLOAD PUSH2 0x12F1 DUP9 DUP3 PUSH2 0x1298 JUMP JUMPDEST SWAP8 POP PUSH2 0x12FC DUP4 PUSH2 0x12AF JUMP JUMPDEST SWAP3 POP POP PUSH1 0x1 DUP2 ADD SWAP1 POP PUSH2 0x12DD JUMP JUMPDEST POP DUP6 SWAP4 POP POP POP POP SWAP3 SWAP2 POP POP JUMP JUMPDEST PUSH0 PUSH2 0x140 DUP4 ADD PUSH0 DUP4 ADD MLOAD PUSH2 0x132D PUSH0 DUP7 ADD DUP3 PUSH2 0x1199 JUMP JUMPDEST POP PUSH1 0x20 DUP4 ADD MLOAD PUSH2 0x1340 PUSH1 0x20 DUP7 ADD DUP3 PUSH2 0x1199 JUMP JUMPDEST POP PUSH1 0x40 DUP4 ADD MLOAD PUSH2 0x1353 PUSH1 0x40 DUP7 ADD DUP3 PUSH2 0x11B1 JUMP JUMPDEST POP PUSH1 0x60 DUP4 ADD MLOAD PUSH2 0x1366 PUSH1 0x60 DUP7 ADD DUP3 PUSH2 0x1199 JUMP JUMPDEST POP PUSH1 0x80 DUP4 ADD MLOAD PUSH2 0x1379 PUSH1 0x80 DUP7 ADD DUP3 PUSH2 0x11B1 JUMP JUMPDEST POP PUSH1 0xA0 DUP4 ADD MLOAD PUSH2 0x138C PUSH1 0xA0 DUP7 ADD DUP3 PUSH2 0x11CC JUMP JUMPDEST POP PUSH1 0xC0 DUP4 ADD MLOAD PUSH2 0x139F PUSH1 0xC0 DUP7 ADD DUP3 PUSH2 0x11DB JUMP JUMPDEST POP PUSH1 0xE0 DUP4 ADD MLOAD PUSH2 0x13B2 PUSH1 0xE0 DUP7 ADD DUP3 PUSH2 0x11CC JUMP JUMPDEST POP PUSH2 0x100 DUP4 ADD MLOAD PUSH2 0x13C7 PUSH2 0x100 DUP7 ADD DUP3 PUSH2 0x1205 JUMP JUMPDEST POP PUSH2 0x120 DUP4 ADD MLOAD DUP5 DUP3 SUB PUSH2 0x120 DUP7 ADD MSTORE PUSH2 0x13E1 DUP3 DUP3 PUSH2 0x12BB JUMP JUMPDEST SWAP2 POP POP DUP1 SWAP2 POP POP SWAP3 SWAP2 POP POP JUMP JUMPDEST PUSH0 PUSH2 0x13F9 DUP4 DUP4 PUSH2 0x1317 JUMP JUMPDEST SWAP1 POP SWAP3 SWAP2 POP POP JUMP JUMPDEST PUSH0 PUSH1 0x20 DUP3 ADD SWAP1 POP SWAP2 SWAP1 POP JUMP JUMPDEST PUSH0 PUSH2 0x1417 DUP3 PUSH2 0x1170 JUMP JUMPDEST PUSH2 0x1421 DUP2 DUP6 PUSH2 0x117A JUMP JUMPDEST SWAP4 POP DUP4 PUSH1 0x20 DUP3 MUL DUP6 ADD PUSH2 0x1433 DUP6 PUSH2 0x118A JUMP JUMPDEST DUP1 PUSH0 JUMPDEST DUP6 DUP2 LT ISZERO PUSH2 0x146E JUMPI DUP5 DUP5 SUB DUP10 MSTORE DUP2 MLOAD PUSH2 0x144F DUP6 DUP3 PUSH2 0x13EE JUMP JUMPDEST SWAP5 POP PUSH2 0x145A DUP4 PUSH2 0x1401 JUMP JUMPDEST SWAP3 POP PUSH1 0x20 DUP11 ADD SWAP10 POP POP PUSH1 0x1 DUP2 ADD SWAP1 POP PUSH2 0x1436 JUMP JUMPDEST POP DUP3 SWAP8 POP DUP8 SWAP6 POP POP POP POP POP POP SWAP3 SWAP2 POP POP JUMP JUMPDEST PUSH2 0x1489 DUP2 PUSH2 0x11A8 JUMP JUMPDEST DUP3 MSTORE POP POP JUMP JUMPDEST PUSH0 DUP2 SWAP1 POP SWAP2 SWAP1 POP JUMP JUMPDEST PUSH2 0x14A1 DUP2 PUSH2 0x148F JUMP JUMPDEST DUP3 MSTORE POP POP JUMP JUMPDEST PUSH0 PUSH1 0x60 DUP3 ADD SWAP1 POP DUP2 DUP2 SUB PUSH0 DUP4 ADD MSTORE PUSH2 0x14BF DUP2 DUP7 PUSH2 0x140D JUMP JUMPDEST SWAP1 POP PUSH2 0x14CE PUSH1 0x20 DUP4 ADD DUP6 PUSH2 0x1480 JUMP JUMPDEST PUSH2 0x14DB PUSH1 0x40 DUP4 ADD DUP5 PUSH2 0x1498 JUMP JUMPDEST SWAP5 SWAP4 POP POP POP POP JUMP JUMPDEST PUSH2 0x14EC DUP2 PUSH2 0x11C0 JUMP JUMPDEST DUP2 EQ PUSH2 0x14F6 JUMPI PUSH0 DUP1 REVERT JUMPDEST POP JUMP JUMPDEST PUSH0 DUP2 CALLDATALOAD SWAP1 POP PUSH2 0x1507 DUP2 PUSH2 0x14E3 JUMP JUMPDEST SWAP3 SWAP2 POP POP JUMP JUMPDEST PUSH0 DUP1 PUSH1 0x40 DUP4 DUP6 SUB SLT ISZERO PUSH2 0x1523 JUMPI PUSH2 0x1522 PUSH2 0x1050 JUMP JUMPDEST JUMPDEST PUSH0 PUSH2 0x1530 DUP6 DUP3 DUP7 ADD PUSH2 0x14F9 JUMP JUMPDEST SWAP3 POP POP PUSH1 0x20 PUSH2 0x1541 DUP6 DUP3 DUP7 ADD PUSH2 0x14F9 JUMP JUMPDEST SWAP2 POP POP SWAP3 POP SWAP3 SWAP1 POP JUMP JUMPDEST PUSH0 DUP2 PUSH1 0x1 SIGNEXTEND SWAP1 POP SWAP2 SWAP1 POP JUMP JUMPDEST PUSH2 0x1560 DUP2 PUSH2 0x154B JUMP JUMPDEST DUP3 MSTORE POP POP JUMP JUMPDEST PUSH0 PUSH1 0x20 DUP3 ADD SWAP1 POP PUSH2 0x1579 PUSH0 DUP4 ADD DUP5 PUSH2 0x1557 JUMP JUMPDEST SWAP3 SWAP2 POP POP JUMP JUMPDEST PUSH0 PUSH1 0x1F NOT PUSH1 0x1F DUP4 ADD AND SWAP1 POP SWAP2 SWAP1 POP JUMP JUMPDEST PUSH32 0x4E487B7100000000000000000000000000000000000000000000000000000000 PUSH0 MSTORE PUSH1 0x41 PUSH1 0x4 MSTORE PUSH1 0x24 PUSH0 REVERT JUMPDEST PUSH2 0x15C5 DUP3 PUSH2 0x157F JUMP JUMPDEST DUP2 ADD DUP2 DUP2 LT PUSH8 0xFFFFFFFFFFFFFFFF DUP3 GT OR ISZERO PUSH2 0x15E4 JUMPI PUSH2 0x15E3 PUSH2 0x158F JUMP JUMPDEST JUMPDEST DUP1 PUSH1 0x40 MSTORE POP POP POP JUMP JUMPDEST PUSH0 PUSH2 0x15F6 PUSH2 0x1047 JUMP JUMPDEST SWAP1 POP PUSH2 0x1602 DUP3 DUP3 PUSH2 0x15BC JUMP JUMPDEST SWAP2 SWAP1 POP JUMP JUMPDEST PUSH0 PUSH8 0xFFFFFFFFFFFFFFFF DUP3 GT ISZERO PUSH2 0x1621 JUMPI PUSH2 0x1620 PUSH2 0x158F JUMP JUMPDEST JUMPDEST PUSH1 0x20 DUP3 MUL SWAP1 POP PUSH1 0x20 DUP2 ADD SWAP1 POP SWAP2 SWAP1 POP JUMP JUMPDEST PUSH2 0x163B DUP2 PUSH2 0x11A8 JUMP JUMPDEST DUP2 EQ PUSH2 0x1645 JUMPI PUSH0 DUP1 REVERT JUMPDEST POP JUMP JUMPDEST PUSH0 DUP2 CALLDATALOAD SWAP1 POP PUSH2 0x1656 DUP2 PUSH2 0x1632 JUMP JUMPDEST SWAP3 SWAP2 POP POP JUMP JUMPDEST PUSH0 PUSH2 0x166E PUSH2 0x1669 DUP5 PUSH2 0x1607 JUMP JUMPDEST PUSH2 0x15ED JUMP JUMPDEST SWAP1 POP DUP1 DUP4 DUP3 MSTORE PUSH1 0x20 DUP3 ADD SWAP1 POP PUSH1 0x20 DUP5 MUL DUP4 ADD DUP6 DUP2 GT ISZERO PUSH2 0x1691 JUMPI PUSH2 0x1690 PUSH2 0x10BA JUMP JUMPDEST JUMPDEST DUP4 JUMPDEST DUP2 DUP2 LT ISZERO PUSH2 0x16BA JUMPI DUP1 PUSH2 0x16A6 DUP9 DUP3 PUSH2 0x1648 JUMP JUMPDEST DUP5 MSTORE PUSH1 0x20 DUP5 ADD SWAP4 POP POP PUSH1 0x20 DUP2 ADD SWAP1 POP PUSH2 0x1693 JUMP JUMPDEST POP POP POP SWAP4 SWAP3 POP POP POP JUMP JUMPDEST PUSH0 DUP3 PUSH1 0x1F DUP4 ADD SLT PUSH2 0x16D8 JUMPI PUSH2 0x16D7 PUSH2 0x10B2 JUMP JUMPDEST JUMPDEST DUP2 CALLDATALOAD PUSH2 0x16E8 DUP5 DUP3 PUSH1 0x20 DUP7 ADD PUSH2 0x165C JUMP JUMPDEST SWAP2 POP POP SWAP3 SWAP2 POP POP JUMP JUMPDEST PUSH2 0x16FA DUP2 PUSH2 0x154B JUMP JUMPDEST DUP2 EQ PUSH2 0x1704 JUMPI PUSH0 DUP1 REVERT JUMPDEST POP JUMP JUMPDEST PUSH0 DUP2 CALLDATALOAD SWAP1 POP PUSH2 0x1715 DUP2 PUSH2 0x16F1 JUMP JUMPDEST SWAP3 SWAP2 POP POP JUMP JUMPDEST PUSH0 DUP1 PUSH0 PUSH1 0x60 DUP5 DUP7 SUB SLT ISZERO PUSH2 0x1732 JUMPI PUSH2 0x1731 PUSH2 0x1050 JUMP JUMPDEST JUMPDEST PUSH0 DUP5 ADD CALLDATALOAD PUSH8 0xFFFFFFFFFFFFFFFF DUP2 GT ISZERO PUSH2 0x174F JUMPI PUSH2 0x174E PUSH2 0x1054 JUMP JUMPDEST JUMPDEST PUSH2 0x175B DUP7 DUP3 DUP8 ADD PUSH2 0x16C4 JUMP JUMPDEST SWAP4 POP POP PUSH1 0x20 PUSH2 0x176C DUP7 DUP3 DUP8 ADD PUSH2 0x1707 JUMP JUMPDEST SWAP3 POP POP PUSH1 0x40 PUSH2 0x177D DUP7 DUP3 DUP8 ADD PUSH2 0x14F9 JUMP JUMPDEST SWAP2 POP POP SWAP3 POP SWAP3 POP SWAP3 JUMP JUMPDEST PUSH0 DUP2 MLOAD SWAP1 POP SWAP2 SWAP1 POP JUMP JUMPDEST PUSH0 DUP3 DUP3 MSTORE PUSH1 0x20 DUP3 ADD SWAP1 POP SWAP3 SWAP2 POP POP JUMP JUMPDEST PUSH0 DUP2 SWAP1 POP PUSH1 0x20 DUP3 ADD SWAP1 POP SWAP2 SWAP1 POP JUMP JUMPDEST PUSH0 PUSH2 0x17BB DUP4 DUP4 PUSH2 0x11CC JUMP JUMPDEST PUSH1 0x20 DUP4 ADD SWAP1 POP SWAP3 SWAP2 POP POP JUMP JUMPDEST PUSH0 PUSH1 0x20 DUP3 ADD SWAP1 POP SWAP2 SWAP1 POP JUMP JUMPDEST PUSH0 PUSH2 0x17DD DUP3 PUSH2 0x1787 JUMP JUMPDEST PUSH2 0x17E7 DUP2 DUP6 PUSH2 0x1791 JUMP JUMPDEST SWAP4 POP PUSH2 0x17F2 DUP4 PUSH2 0x17A1 JUMP JUMPDEST DUP1 PUSH0 JUMPDEST DUP4 DUP2 LT ISZERO PUSH2 0x1822 JUMPI DUP2 MLOAD PUSH2 0x1809 DUP9 DUP3 PUSH2 0x17B0 JUMP JUMPDEST SWAP8 POP PUSH2 0x1814 DUP4 PUSH2 0x17C7 JUMP JUMPDEST SWAP3 POP POP PUSH1 0x1 DUP2 ADD SWAP1 POP PUSH2 0x17F5 JUMP JUMPDEST POP DUP6 SWAP4 POP POP POP POP SWAP3 SWAP2 POP POP JUMP JUMPDEST PUSH0 PUSH1 0x20 DUP3 ADD SWAP1 POP DUP2 DUP2 SUB PUSH0 DUP4 ADD MSTORE PUSH2 0x1847 DUP2 DUP5 PUSH2 0x17D3 JUMP JUMPDEST SWAP1 POP SWAP3 SWAP2 POP POP JUMP JUMPDEST PUSH0 DUP1 PUSH1 0x40 DUP4 DUP6 SUB SLT ISZERO PUSH2 0x1865 JUMPI PUSH2 0x1864 PUSH2 0x1050 JUMP JUMPDEST JUMPDEST PUSH0 PUSH2 0x1872 DUP6 DUP3 DUP7 ADD PUSH2 0x109E JUMP JUMPDEST SWAP3 POP POP PUSH1 0x20 PUSH2 0x1883 DUP6 DUP3 DUP7 ADD PUSH2 0x14F9 JUMP JUMPDEST SWAP2 POP POP SWAP3 POP SWAP3 SWAP1 POP JUMP JUMPDEST PUSH0 DUP3 DUP3 MSTORE PUSH1 0x20 DUP3 ADD SWAP1 POP SWAP3 SWAP2 POP POP JUMP JUMPDEST PUSH0 PUSH2 0x18A7 DUP3 PUSH2 0x1214 JUMP JUMPDEST PUSH2 0x18B1 DUP2 DUP6 PUSH2 0x188D JUMP JUMPDEST SWAP4 POP PUSH2 0x18BC DUP4 PUSH2 0x122E JUMP JUMPDEST DUP1 PUSH0 JUMPDEST DUP4 DUP2 LT ISZERO PUSH2 0x18EC JUMPI DUP2 MLOAD PUSH2 0x18D3 DUP9 DUP3 PUSH2 0x1298 JUMP JUMPDEST SWAP8 POP PUSH2 0x18DE DUP4 PUSH2 0x12AF JUMP JUMPDEST SWAP3 POP POP PUSH1 0x1 DUP2 ADD SWAP1 POP PUSH2 0x18BF JUMP JUMPDEST POP DUP6 SWAP4 POP POP POP POP SWAP3 SWAP2 POP POP JUMP JUMPDEST PUSH0 PUSH1 0x20 DUP3 ADD SWAP1 POP DUP2 DUP2 SUB PUSH0 DUP4 ADD MSTORE PUSH2 0x1911 DUP2 DUP5 PUSH2 0x189D JUMP JUMPDEST SWAP1 POP SWAP3 SWAP2 POP POP JUMP JUMPDEST PUSH0 PUSH1 0x20 DUP3 DUP5 SUB SLT ISZERO PUSH2 0x192E JUMPI PUSH2 0x192D PUSH2 0x1050 JUMP JUMPDEST JUMPDEST PUSH0 PUSH2 0x193B DUP5 DUP3 DUP6 ADD PUSH2 0x109E JUMP JUMPDEST SWAP2 POP POP SWAP3 SWAP2 POP POP JUMP JUMPDEST PUSH2 0x194D DUP2 PUSH2 0x1058 JUMP JUMPDEST DUP3 MSTORE POP POP JUMP JUMPDEST PUSH2 0x195C DUP2 PUSH2 0x11C0 JUMP JUMPDEST DUP3 MSTORE POP POP JUMP JUMPDEST PUSH2 0x196B DUP2 PUSH2 0x11EA JUMP JUMPDEST DUP3 MSTORE POP POP JUMP JUMPDEST PUSH0 PUSH1 0x60 DUP3 ADD SWAP1 POP PUSH2 0x1984 PUSH0 DUP4 ADD DUP7 PUSH2 0x1944 JUMP JUMPDEST PUSH2 0x1991 PUSH1 0x20 DUP4 ADD DUP6 PUSH2 0x1953 JUMP JUMPDEST PUSH2 0x199E PUSH1 0x40 DUP4 ADD DUP5 PUSH2 0x1962 JUMP JUMPDEST SWAP5 SWAP4 POP POP POP POP JUMP JUMPDEST PUSH32 0x4E487B7100000000000000000000000000000000000000000000000000000000 PUSH0 MSTORE PUSH1 0x11 PUSH1 0x4 MSTORE PUSH1 0x24 PUSH0 REVERT JUMPDEST PUSH0 PUSH2 0x19DD DUP3 PUSH2 0x11A8 JUMP JUMPDEST SWAP2 POP PUSH2 0x19E8 DUP4 PUSH2 0x11A8 JUMP JUMPDEST SWAP3 POP DUP3 DUP3 SUB SWAP1 POP DUP2 DUP2 GT ISZERO PUSH2 0x1A00 JUMPI PUSH2 0x19FF PUSH2 0x19A6 JUMP JUMPDEST JUMPDEST SWAP3 SWAP2 POP POP JUMP JUMPDEST PUSH32 0x4E487B7100000000000000000000000000000000000000000000000000000000 PUSH0 MSTORE PUSH1 0x32 PUSH1 0x4 MSTORE PUSH1 0x24 PUSH0 REVERT JUMPDEST PUSH0 PUSH3 0xFFFFFF DUP3 AND SWAP1 POP SWAP2 SWAP1 POP JUMP JUMPDEST PUSH2 0x1A4A DUP2 PUSH2 0x1A33 JUMP JUMPDEST DUP2 EQ PUSH2 0x1A54 JUMPI PUSH0 DUP1 REVERT JUMPDEST POP JUMP JUMPDEST PUSH0 DUP2 CALLDATALOAD SWAP1 POP PUSH2 0x1A65 DUP2 PUSH2 0x1A41 JUMP JUMPDEST SWAP3 SWAP2 POP POP JUMP JUMPDEST PUSH0 PUSH1 0x20 DUP3 DUP5 SUB SLT ISZERO PUSH2 0x1A80 JUMPI PUSH2 0x1A7F PUSH2 0x1050 JUMP JUMPDEST JUMPDEST PUSH0 PUSH2 0x1A8D DUP5 DUP3 DUP6 ADD PUSH2 0x1A57 JUMP JUMPDEST SWAP2 POP POP SWAP3 SWAP2 POP POP JUMP JUMPDEST PUSH2 0x1A9F DUP2 PUSH2 0x1077 JUMP JUMPDEST DUP3 MSTORE POP POP JUMP JUMPDEST PUSH2 0x1AAE DUP2 PUSH2 0x1A33 JUMP JUMPDEST DUP3 MSTORE POP POP JUMP JUMPDEST PUSH0 PUSH1 0x60 DUP3 ADD SWAP1 POP PUSH2 0x1AC7 PUSH0 DUP4 ADD DUP7 PUSH2 0x1A96 JUMP JUMPDEST PUSH2 0x1AD4 PUSH1 0x20 DUP4 ADD DUP6 PUSH2 0x1A96 JUMP JUMPDEST PUSH2 0x1AE1 PUSH1 0x40 DUP4 ADD DUP5 PUSH2 0x1AA5 JUMP JUMPDEST SWAP5 SWAP4 POP POP POP POP JUMP JUMPDEST PUSH0 DUP2 MLOAD SWAP1 POP PUSH2 0x1AF7 DUP2 PUSH2 0x1088 JUMP JUMPDEST SWAP3 SWAP2 POP POP JUMP JUMPDEST PUSH0 PUSH1 0x20 DUP3 DUP5 SUB SLT ISZERO PUSH2 0x1B12 JUMPI PUSH2 0x1B11 PUSH2 0x1050 JUMP JUMPDEST JUMPDEST PUSH0 PUSH2 0x1B1F DUP5 DUP3 DUP6 ADD PUSH2 0x1AE9 JUMP JUMPDEST SWAP2 POP POP SWAP3 SWAP2 POP POP JUMP JUMPDEST PUSH0 PUSH1 0x20 DUP3 ADD SWAP1 POP PUSH2 0x1B3B PUSH0 DUP4 ADD DUP5 PUSH2 0x1A96 JUMP JUMPDEST SWAP3 SWAP2 POP POP JUMP JUMPDEST PUSH0 DUP2 MLOAD SWAP1 POP PUSH2 0x1B4F DUP2 PUSH2 0x1632 JUMP JUMPDEST SWAP3 SWAP2 POP POP JUMP JUMPDEST PUSH0 PUSH1 0x20 DUP3 DUP5 SUB SLT ISZERO PUSH2 0x1B6A JUMPI PUSH2 0x1B69 PUSH2 0x1050 JUMP JUMPDEST JUMPDEST PUSH0 PUSH2 0x1B77 DUP5 DUP3 DUP6 ADD PUSH2 0x1B41 JUMP JUMPDEST SWAP2 POP POP SWAP3 SWAP2 POP POP JUMP JUMPDEST PUSH0 DUP2 MLOAD SWAP1 POP PUSH2 0x1B8E DUP2 PUSH2 0x14E3 JUMP JUMPDEST SWAP3 SWAP2 POP POP JUMP JUMPDEST PUSH0 PUSH1 0x20 DUP3 DUP5 SUB SLT ISZERO PUSH2 0x1BA9 JUMPI PUSH2 0x1BA8 PUSH2 0x1050 JUMP JUMPDEST JUMPDEST PUSH0 PUSH2 0x1BB6 DUP5 DUP3 DUP6 ADD PUSH2 0x1B80 JUMP JUMPDEST SWAP2 POP POP SWAP3 SWAP2 POP POP JUMP JUMPDEST PUSH32 0x4E487B7100000000000000000000000000000000000000000000000000000000 PUSH0 MSTORE PUSH1 0x12 PUSH1 0x4 MSTORE PUSH1 0x24 PUSH0 REVERT JUMPDEST PUSH0 PUSH2 0x1BF6 DUP3 PUSH2 0x11C0 JUMP JUMPDEST SWAP2 POP PUSH2 0x1C01 DUP4 PUSH2 0x11C0 JUMP JUMPDEST SWAP3 POP DUP3 PUSH2 0x1C11 JUMPI PUSH2 0x1C10 PUSH2 0x1BBF JUMP JUMPDEST JUMPDEST PUSH1 0x1 PUSH0 SUB DUP4 EQ PUSH32 0xFFFFFFFFFFFFFFFFFFFFFFFFFFFFFFFFFFFFFFFFFFFFFFFFFFFFFFFFFF800000 DUP4 EQ AND ISZERO PUSH2 0x1C49 JUMPI PUSH2 0x1C48 PUSH2 0x19A6 JUMP JUMPDEST JUMPDEST DUP3 DUP3 SDIV SWAP1 POP SWAP3 SWAP2 POP POP JUMP JUMPDEST PUSH0 PUSH2 0x1C5E DUP3 PUSH2 0x11C0 JUMP JUMPDEST SWAP2 POP PUSH2 0x1C69 DUP4 PUSH2 0x11C0 JUMP JUMPDEST SWAP3 POP DUP3 PUSH2 0x1C79 JUMPI PUSH2 0x1C78 PUSH2 0x1BBF JUMP JUMPDEST JUMPDEST DUP3 DUP3 SMOD SWAP1 POP SWAP3 SWAP2 POP POP JUMP JUMPDEST PUSH0 PUSH2 0x1C8E DUP3 PUSH2 0x11C0 JUMP JUMPDEST SWAP2 POP PUSH2 0x1C99 DUP4 PUSH2 0x11C0 JUMP JUMPDEST SWAP3 POP DUP3 DUP3 SUB SWAP1 POP PUSH3 0x7FFFFF DUP2 SGT PUSH32 0xFFFFFFFFFFFFFFFFFFFFFFFFFFFFFFFFFFFFFFFFFFFFFFFFFFFFFFFFFF800000 DUP3 SLT OR ISZERO PUSH2 0x1CD8 JUMPI PUSH2 0x1CD7 PUSH2 0x19A6 JUMP JUMPDEST JUMPDEST SWAP3 SWAP2 POP POP JUMP JUMPDEST PUSH0 PUSH2 0x1CE8 DUP3 PUSH2 0x11A8 JUMP JUMPDEST SWAP2 POP PUSH32 0xFFFFFFFFFFFFFFFFFFFFFFFFFFFFFFFFFFFFFFFFFFFFFFFFFFFFFFFFFFFFFFFF DUP3 SUB PUSH2 0x1D1A JUMPI PUSH2 0x1D19 PUSH2 0x19A6 JUMP JUMPDEST JUMPDEST PUSH1 0x1 DUP3 ADD SWAP1 POP SWAP2 SWAP1 POP JUMP JUMPDEST PUSH0 PUSH2 0x1D2F DUP3 PUSH2 0x154B JUMP JUMPDEST SWAP2 POP PUSH2 0x1D3A DUP4 PUSH2 0x154B JUMP JUMPDEST SWAP3 POP DUP3 DUP3 ADD SWAP1 POP PUSH32 0xFFFFFFFFFFFFFFFFFFFFFFFFFFFFFFFFFFFFFFFFFFFFFFFFFFFFFFFFFFFF8000 DUP2 SLT PUSH2 0x7FFF DUP3 SGT OR ISZERO PUSH2 0x1D78 JUMPI PUSH2 0x1D77 PUSH2 0x19A6 JUMP JUMPDEST JUMPDEST SWAP3 SWAP2 POP POP JUMP JUMPDEST PUSH0 PUSH2 0x1D88 DUP3 PUSH2 0x11C0 JUMP JUMPDEST SWAP2 POP PUSH2 0x1D93 DUP4 PUSH2 0x11C0 JUMP JUMPDEST SWAP3 POP DUP3 DUP3 MUL PUSH2 0x1DA1 DUP2 PUSH2 0x11C0 JUMP JUMPDEST SWAP2 POP DUP1 DUP3 EQ PUSH2 0x1DB3 JUMPI PUSH2 0x1DB2 PUSH2 0x19A6 JUMP JUMPDEST JUMPDEST POP SWAP3 SWAP2 POP POP JUMP JUMPDEST PUSH0 PUSH2 0x1DC4 DUP3 PUSH2 0x11C0 JUMP JUMPDEST SWAP2 POP PUSH2 0x1DCF DUP4 PUSH2 0x11C0 JUMP JUMPDEST SWAP3 POP DUP3 DUP3 ADD SWAP1 POP PUSH32 0xFFFFFFFFFFFFFFFFFFFFFFFFFFFFFFFFFFFFFFFFFFFFFFFFFFFFFFFFFF800000 DUP2 SLT PUSH3 0x7FFFFF DUP3 SGT OR ISZERO PUSH2 0x1E0E JUMPI PUSH2 0x1E0D PUSH2 0x19A6 JUMP JUMPDEST JUMPDEST SWAP3 SWAP2 POP POP JUMP JUMPDEST PUSH0 PUSH2 0x1E1E DUP3 PUSH2 0x154B JUMP JUMPDEST SWAP2 POP PUSH2 0x1E29 DUP4 PUSH2 0x154B JUMP JUMPDEST SWAP3 POP DUP3 DUP3 SUB SWAP1 POP PUSH2 0x7FFF DUP2 SGT PUSH32 0xFFFFFFFFFFFFFFFFFFFFFFFFFFFFFFFFFFFFFFFFFFFFFFFFFFFFFFFFFFFF8000 DUP3 SLT OR ISZERO PUSH2 0x1E67 JUMPI PUSH2 0x1E66 PUSH2 0x19A6 JUMP JUMPDEST JUMPDEST SWAP3 SWAP2 POP POP JUMP JUMPDEST PUSH0 PUSH2 0x1E77 DUP3 PUSH2 0x154B JUMP JUMPDEST SWAP2 POP PUSH2 0x7FFF DUP3 SUB PUSH2 0x1E8B JUMPI PUSH2 0x1E8A PUSH2 0x19A6 JUMP JUMPDEST JUMPDEST PUSH1 0x1 DUP3 ADD SWAP1 POP SWAP2 SWAP1 POP JUMP JUMPDEST PUSH0 PUSH1 0x20 DUP3 ADD SWAP1 POP PUSH2 0x1EA9 PUSH0 DUP4 ADD DUP5 PUSH2 0x1953 JUMP JUMPDEST SWAP3 SWAP2 POP POP JUMP JUMPDEST PUSH2 0x1EB8 DUP2 PUSH2 0x11EA JUMP JUMPDEST DUP2 EQ PUSH2 0x1EC2 JUMPI PUSH0 DUP1 REVERT JUMPDEST POP JUMP JUMPDEST PUSH0 DUP2 MLOAD SWAP1 POP PUSH2 0x1ED3 DUP2 PUSH2 0x1EAF JUMP JUMPDEST SWAP3 SWAP2 POP POP JUMP JUMPDEST PUSH2 0x1EE2 DUP2 PUSH2 0x123D JUMP JUMPDEST DUP2 EQ PUSH2 0x1EEC JUMPI PUSH0 DUP1 REVERT JUMPDEST POP JUMP JUMPDEST PUSH0 DUP2 MLOAD SWAP1 POP PUSH2 0x1EFD DUP2 PUSH2 0x1ED9 JUMP JUMPDEST SWAP3 SWAP2 POP POP JUMP JUMPDEST PUSH0 DUP2 PUSH1 0x6 SIGNEXTEND SWAP1 POP SWAP2 SWAP1 POP JUMP JUMPDEST PUSH2 0x1F18 DUP2 PUSH2 0x1F03 JUMP JUMPDEST DUP2 EQ PUSH2 0x1F22 JUMPI PUSH0 DUP1 REVERT JUMPDEST POP JUMP JUMPDEST PUSH0 DUP2 MLOAD SWAP1 POP PUSH2 0x1F33 DUP2 PUSH2 0x1F0F JUMP JUMPDEST SWAP3 SWAP2 POP POP JUMP JUMPDEST PUSH2 0x1F42 DUP2 PUSH2 0x1058 JUMP JUMPDEST DUP2 EQ PUSH2 0x1F4C JUMPI PUSH0 DUP1 REVERT JUMPDEST POP JUMP JUMPDEST PUSH0 DUP2 MLOAD SWAP1 POP PUSH2 0x1F5D DUP2 PUSH2 0x1F39 JUMP JUMPDEST SWAP3 SWAP2 POP POP JUMP JUMPDEST PUSH0 PUSH4 0xFFFFFFFF DUP3 AND SWAP1 POP SWAP2 SWAP1 POP JUMP JUMPDEST PUSH2 0x1F7B DUP2 PUSH2 0x1F63 JUMP JUMPDEST DUP2 EQ PUSH2 0x1F85 JUMPI PUSH0 DUP1 REVERT JUMPDEST POP JUMP JUMPDEST PUSH0 DUP2 MLOAD SWAP1 POP PUSH2 0x1F96 DUP2 PUSH2 0x1F72 JUMP JUMPDEST SWAP3 SWAP2 POP POP JUMP JUMPDEST PUSH0 DUP2 ISZERO ISZERO SWAP1 POP SWAP2 SWAP1 POP JUMP JUMPDEST PUSH2 0x1FB0 DUP2 PUSH2 0x1F9C JUMP JUMPDEST DUP2 EQ PUSH2 0x1FBA JUMPI PUSH0 DUP1 REVERT JUMPDEST POP JUMP JUMPDEST PUSH0 DUP2 MLOAD SWAP1 POP PUSH2 0x1FCB DUP2 PUSH2 0x1FA7 JUMP JUMPDEST SWAP3 SWAP2 POP POP JUMP JUMPDEST PUSH0 DUP1 PUSH0 DUP1 PUSH0 DUP1 PUSH0 DUP1 PUSH2 0x100 DUP10 DUP12 SUB SLT ISZERO PUSH2 0x1FEE JUMPI PUSH2 0x1FED PUSH2 0x1050 JUMP JUMPDEST JUMPDEST PUSH0 PUSH2 0x1FFB DUP12 DUP3 DUP13 ADD PUSH2 0x1EC5 JUMP JUMPDEST SWAP9 POP POP PUSH1 0x20 PUSH2 0x200C DUP12 DUP3 DUP13 ADD PUSH2 0x1EEF JUMP JUMPDEST SWAP8 POP POP PUSH1 0x40 PUSH2 0x201D DUP12 DUP3 DUP13 ADD PUSH2 0x1B41 JUMP JUMPDEST SWAP7 POP POP PUSH1 0x60 PUSH2 0x202E DUP12 DUP3 DUP13 ADD PUSH2 0x1B41 JUMP JUMPDEST SWAP6 POP POP PUSH1 0x80 PUSH2 0x203F DUP12 DUP3 DUP13 ADD PUSH2 0x1F25 JUMP JUMPDEST SWAP5 POP POP PUSH1 0xA0 PUSH2 0x2050 DUP12 DUP3 DUP13 ADD PUSH2 0x1F4F JUMP JUMPDEST SWAP4 POP POP PUSH1 0xC0 PUSH2 0x2061 DUP12 DUP3 DUP13 ADD PUSH2 0x1F88 JUMP JUMPDEST SWAP3 POP POP PUSH1 0xE0 PUSH2 0x2072 DUP12 DUP3 DUP13 ADD PUSH2 0x1FBD JUMP JUMPDEST SWAP2 POP POP SWAP3 SWAP6 SWAP9 POP SWAP3 SWAP6 SWAP9 SWAP1 SWAP4 SWAP7 POP JUMP JUMPDEST PUSH0 PUSH2 0xFFFF DUP3 AND SWAP1 POP SWAP2 SWAP1 POP JUMP JUMPDEST PUSH2 0x2098 DUP2 PUSH2 0x2082 JUMP JUMPDEST DUP2 EQ PUSH2 0x20A2 JUMPI PUSH0 DUP1 REVERT JUMPDEST POP JUMP JUMPDEST PUSH0 DUP2 MLOAD SWAP1 POP PUSH2 0x20B3 DUP2 PUSH2 0x208F JUMP JUMPDEST SWAP3 SWAP2 POP POP JUMP JUMPDEST PUSH0 PUSH1 0xFF DUP3 AND SWAP1 POP SWAP2 SWAP1 POP JUMP JUMPDEST PUSH2 0x20CE DUP2 PUSH2 0x20B9 JUMP JUMPDEST DUP2 EQ PUSH2 0x20D8 JUMPI PUSH0 DUP1 REVERT JUMPDEST POP JUMP JUMPDEST PUSH0 DUP2 MLOAD SWAP1 POP PUSH2 0x20E9 DUP2 PUSH2 0x20C5 JUMP JUMPDEST SWAP3 SWAP2 POP POP JUMP JUMPDEST PUSH0 DUP1 PUSH0 DUP1 PUSH0 DUP1 PUSH0 PUSH1 0xE0 DUP9 DUP11 SUB SLT ISZERO PUSH2 0x210A JUMPI PUSH2 0x2109 PUSH2 0x1050 JUMP JUMPDEST JUMPDEST PUSH0 PUSH2 0x2117 DUP11 DUP3 DUP12 ADD PUSH2 0x1F4F JUMP JUMPDEST SWAP8 POP POP PUSH1 0x20 PUSH2 0x2128 DUP11 DUP3 DUP12 ADD PUSH2 0x1B80 JUMP JUMPDEST SWAP7 POP POP PUSH1 0x40 PUSH2 0x2139 DUP11 DUP3 DUP12 ADD PUSH2 0x20A5 JUMP JUMPDEST SWAP6 POP POP PUSH1 0x60 PUSH2 0x214A DUP11 DUP3 DUP12 ADD PUSH2 0x20A5 JUMP JUMPDEST SWAP5 POP POP PUSH1 0x80 PUSH2 0x215B DUP11 DUP3 DUP12 ADD PUSH2 0x20A5 JUMP JUMPDEST SWAP4 POP POP PUSH1 0xA0 PUSH2 0x216C DUP11 DUP3 DUP12 ADD PUSH2 0x20DB JUMP JUMPDEST SWAP3 POP POP PUSH1 0xC0 PUSH2 0x217D DUP11 DUP3 DUP12 ADD PUSH2 0x1FBD JUMP JUMPDEST SWAP2 POP POP SWAP3 SWAP6 SWAP9 SWAP2 SWAP5 SWAP8 POP SWAP3 SWAP6 POP JUMP JUMPDEST PUSH0 PUSH1 0x20 DUP3 DUP5 SUB SLT ISZERO PUSH2 0x21A1 JUMPI PUSH2 0x21A0 PUSH2 0x1050 JUMP JUMPDEST JUMPDEST PUSH0 PUSH2 0x21AE DUP5 DUP3 DUP6 ADD PUSH2 0x1EC5 JUMP JUMPDEST SWAP2 POP POP SWAP3 SWAP2 POP POP JUMP INVALID LOG2 PUSH5 0x6970667358 0x22 SLT KECCAK256 SWAP16 0xEE 0xCB DUP12 0x27 LOG0 SWAP3 SLT PUSH8 0xF31916A2B6071050 SWAP9 0x4D CODESIZE DUP9 0x2F SHR 0x23 0xBC SMOD JUMPI PUSH28 0x5A4D06064736F6C634300081A003300000000000000000000000000 "
		},
		"gasEstimates": {
			"creation": {
				"codeDepositCost": "1737000",
				"executionCost": "1825",
				"totalCost": "1738825"
			},
			"external": {
				"extractInitializedTicks(uint256[],int16,int24)": "infinite",
				"getPoolInfo(address,(address,address,uint24)[])": "infinite",
				"getPoolInfoWithoutTickData(address,(address,address,uint24)[])": "infinite",
				"getPoolStateData(address)": "infinite",
				"getPoolTicks(address,int24)": "infinite",
				"tickToWord(int24,int24)": "infinite"
			}
		},
		"methodIdentifiers": {
			"extractInitializedTicks(uint256[],int16,int24)": "919d472f",
			"getPoolInfo(address,(address,address,uint24)[])": "6eb35eab",
			"getPoolInfoWithoutTickData(address,(address,address,uint24)[])": "06449dd5",
			"getPoolStateData(address)": "cef2c939",
			"getPoolTicks(address,int24)": "98fcd0d3",
			"tickToWord(int24,int24)": "508e1e44"
		}
	},
	"abi": [
		{
			"inputs": [
				{
					"internalType": "uint256[]",
					"name": "tickBitMaps",
					"type": "uint256[]"
				},
				{
					"internalType": "int16",
					"name": "minWordPos",
					"type": "int16"
				},
				{
					"internalType": "int24",
					"name": "tickSpacing",
					"type": "int24"
				}
			],
			"name": "extractInitializedTicks",
			"outputs": [
				{
					"internalType": "int24[]",
					"name": "",
					"type": "int24[]"
				}
			],
			"stateMutability": "pure",
			"type": "function"
		},
		{
			"inputs": [
				{
					"internalType": "address",
					"name": "factoryAddress",
					"type": "address"
				},
				{
					"components": [
						{
							"internalType": "address",
							"name": "_token0Address",
							"type": "address"
						},
						{
							"internalType": "address",
							"name": "_token1Address",
							"type": "address"
						},
						{
							"internalType": "uint24",
							"name": "fee",
							"type": "uint24"
						}
					],
					"internalType": "struct IUniswapV3Data.PoolParam[]",
					"name": "poolParams",
					"type": "tuple[]"
				}
			],
			"name": "getPoolInfo",
			"outputs": [
				{
					"components": [
						{
							"internalType": "address",
							"name": "poolAddress",
							"type": "address"
						},
						{
							"internalType": "address",
							"name": "token0",
							"type": "address"
						},
						{
							"internalType": "uint256",
							"name": "token0Balance",
							"type": "uint256"
						},
						{
							"internalType": "address",
							"name": "token1",
							"type": "address"
						},
						{
							"internalType": "uint256",
							"name": "token1Balance",
							"type": "uint256"
						},
						{
							"internalType": "int24",
							"name": "tickSpacing",
							"type": "int24"
						},
						{
							"internalType": "uint160",
							"name": "sqrtPriceX96",
							"type": "uint160"
						},
						{
							"internalType": "int24",
							"name": "tick",
							"type": "int24"
						},
						{
							"internalType": "uint128",
							"name": "liquidity",
							"type": "uint128"
						},
						{
							"components": [
								{
									"internalType": "int24",
									"name": "tick",
									"type": "int24"
								},
								{
									"internalType": "uint128",
									"name": "liquidityGross",
									"type": "uint128"
								},
								{
									"internalType": "int128",
									"name": "liquidityNet",
									"type": "int128"
								}
							],
							"internalType": "struct IUniswapV3Data.PoolTick[]",
							"name": "ticks",
							"type": "tuple[]"
						}
					],
					"internalType": "struct IUniswapV3Data.PoolInfo[]",
					"name": "poolInfoArray",
					"type": "tuple[]"
				},
				{
					"internalType": "uint256",
					"name": "latestBlockNumber",
					"type": "uint256"
				},
				{
					"internalType": "bytes32",
					"name": "blockHash",
					"type": "bytes32"
				}
			],
			"stateMutability": "view",
			"type": "function"
		},
		{
			"inputs": [
				{
					"internalType": "address",
					"name": "factoryAddress",
					"type": "address"
				},
				{
					"components": [
						{
							"internalType": "address",
							"name": "_token0Address",
							"type": "address"
						},
						{
							"internalType": "address",
							"name": "_token1Address",
							"type": "address"
						},
						{
							"internalType": "uint24",
							"name": "fee",
							"type": "uint24"
						}
					],
					"internalType": "struct IUniswapV3Data.PoolParam[]",
					"name": "poolParams",
					"type": "tuple[]"
				}
			],
			"name": "getPoolInfoWithoutTickData",
			"outputs": [
				{
					"components": [
						{
							"internalType": "address",
							"name": "poolAddress",
							"type": "address"
						},
						{
							"internalType": "address",
							"name": "token0",
							"type": "address"
						},
						{
							"internalType": "uint256",
							"name": "token0Balance",
							"type": "uint256"
						},
						{
							"internalType": "address",
							"name": "token1",
							"type": "address"
						},
						{
							"internalType": "uint256",
							"name": "token1Balance",
							"type": "uint256"
						},
						{
							"internalType": "int24",
							"name": "tickSpacing",
							"type": "int24"
						},
						{
							"internalType": "uint160",
							"name": "sqrtPriceX96",
							"type": "uint160"
						},
						{
							"internalType": "int24",
							"name": "tick",
							"type": "int24"
						},
						{
							"internalType": "uint128",
							"name": "liquidity",
							"type": "uint128"
						},
						{
							"components": [
								{
									"internalType": "int24",
									"name": "tick",
									"type": "int24"
								},
								{
									"internalType": "uint128",
									"name": "liquidityGross",
									"type": "uint128"
								},
								{
									"internalType": "int128",
									"name": "liquidityNet",
									"type": "int128"
								}
							],
							"internalType": "struct IUniswapV3Data.PoolTick[]",
							"name": "ticks",
							"type": "tuple[]"
						}
					],
					"internalType": "struct IUniswapV3Data.PoolInfo[]",
					"name": "poolInfoArray",
					"type": "tuple[]"
				},
				{
					"internalType": "uint256",
					"name": "latestBlockNumber",
					"type": "uint256"
				},
				{
					"internalType": "bytes32",
					"name": "blockHash",
					"type": "bytes32"
				}
			],
			"stateMutability": "view",
			"type": "function"
		},
		{
			"inputs": [
				{
					"internalType": "address",
					"name": "poolAddress",
					"type": "address"
				}
			],
			"name": "getPoolStateData",
			"outputs": [
				{
					"internalType": "uint160",
					"name": "sqrtPriceX96",
					"type": "uint160"
				},
				{
					"internalType": "int24",
					"name": "tick",
					"type": "int24"
				},
				{
					"internalType": "uint128",
					"name": "liquidity",
					"type": "uint128"
				}
			],
			"stateMutability": "view",
			"type": "function"
		},
		{
			"inputs": [
				{
					"internalType": "address",
					"name": "poolAddress",
					"type": "address"
				},
				{
					"internalType": "int24",
					"name": "tickSpacing",
					"type": "int24"
				}
			],
			"name": "getPoolTicks",
			"outputs": [
				{
					"components": [
						{
							"internalType": "int24",
							"name": "tick",
							"type": "int24"
						},
						{
							"internalType": "uint128",
							"name": "liquidityGross",
							"type": "uint128"
						},
						{
							"internalType": "int128",
							"name": "liquidityNet",
							"type": "int128"
						}
					],
					"internalType": "struct IUniswapV3Data.PoolTick[]",
					"name": "",
					"type": "tuple[]"
				}
			],
			"stateMutability": "view",
			"type": "function"
		},
		{
			"inputs": [
				{
					"internalType": "int24",
					"name": "tick",
					"type": "int24"
				},
				{
					"internalType": "int24",
					"name": "tickSpacing",
					"type": "int24"
				}
			],
			"name": "tickToWord",
			"outputs": [
				{
					"internalType": "int16",
					"name": "",
					"type": "int16"
				}
			],
			"stateMutability": "pure",
			"type": "function"
		}
	]
}