{
	"contracts/token/ERC20/MyAirdrop.sol": {
		"MyAirDrop": {
			"abi": [
				{
					"inputs": [
						{
							"internalType": "contract IERC20",
							"name": "_tokenContract",
							"type": "address"
						}
					],
					"stateMutability": "nonpayable",
					"type": "constructor"
				},
				{
					"inputs": [
						{
							"internalType": "address",
							"name": "user",
							"type": "address"
						},
						{
							"internalType": "uint256",
							"name": "amount",
							"type": "uint256"
						}
					],
					"name": "airdropAmount",
					"outputs": [],
					"stateMutability": "nonpayable",
					"type": "function"
				},
				{
					"inputs": [
						{
							"internalType": "address[]",
							"name": "recipients",
							"type": "address[]"
						},
						{
							"internalType": "uint256[]",
							"name": "amounts",
							"type": "uint256[]"
						}
					],
					"name": "airdropTokens",
					"outputs": [],
					"stateMutability": "nonpayable",
					"type": "function"
				},
				{
					"inputs": [],
					"name": "claim",
					"outputs": [
						{
							"internalType": "uint256",
							"name": "",
							"type": "uint256"
						}
					],
					"stateMutability": "nonpayable",
					"type": "function"
				},
				{
					"inputs": [],
					"name": "claimAmount",
					"outputs": [
						{
							"internalType": "uint256",
							"name": "",
							"type": "uint256"
						}
					],
					"stateMutability": "view",
					"type": "function"
				},
				{
					"inputs": [],
					"name": "owner",
					"outputs": [
						{
							"internalType": "address",
							"name": "",
							"type": "address"
						}
					],
					"stateMutability": "view",
					"type": "function"
				},
				{
					"inputs": [],
					"name": "tokenContract",
					"outputs": [
						{
							"internalType": "contract IERC20",
							"name": "",
							"type": "address"
						}
					],
					"stateMutability": "view",
					"type": "function"
				}
			],
			"devdoc": {
				"kind": "dev",
				"methods": {},
				"version": 1
			},
			"evm": {
				"assembly": "    /* \"contracts/token/ERC20/MyAirdrop.sol\":270:2502  contract MyAirDrop {... */\n  mstore(0x40, 0xa0)\n    /* \"contracts/token/ERC20/MyAirdrop.sol\":605:715  constructor(IERC20 _tokenContract) {... */\n  callvalue\n  dup1\n  iszero\n  tag_1\n  jumpi\n  0x00\n  dup1\n  revert\ntag_1:\n  pop\n  mload(0x40)\n  sub(codesize, bytecodeSize)\n  dup1\n  bytecodeSize\n  dup4\n  codecopy\n  dup2\n  dup2\n  add\n  0x40\n  mstore\n  dup2\n  add\n  swap1\n  tag_2\n  swap2\n  swap1\n  tag_3\n  jump\t// in\ntag_2:\n    /* \"contracts/token/ERC20/MyAirdrop.sol\":658:668  msg.sender */\n  caller\n    /* \"contracts/token/ERC20/MyAirdrop.sol\":650:655  owner */\n  0x00\n  dup1\n    /* \"contracts/token/ERC20/MyAirdrop.sol\":650:668  owner = msg.sender */\n  0x0100\n  exp\n  dup2\n  sload\n  dup2\n  0xffffffffffffffffffffffffffffffffffffffff\n  mul\n  not\n  and\n  swap1\n  dup4\n  0xffffffffffffffffffffffffffffffffffffffff\n  and\n  mul\n  or\n  swap1\n  sstore\n  pop\n    /* \"contracts/token/ERC20/MyAirdrop.sol\":694:708  _tokenContract */\n  dup1\n    /* \"contracts/token/ERC20/MyAirdrop.sol\":678:708  tokenContract = _tokenContract */\n  0xffffffffffffffffffffffffffffffffffffffff\n  and\n  0x80\n  dup2\n  0xffffffffffffffffffffffffffffffffffffffff\n  and\n  dup2\n  mstore\n  pop\n  pop\n    /* \"contracts/token/ERC20/MyAirdrop.sol\":605:715  constructor(IERC20 _tokenContract) {... */\n  pop\n    /* \"contracts/token/ERC20/MyAirdrop.sol\":270:2502  contract MyAirDrop {... */\n  jump(tag_6)\n    /* \"#utility.yul\":88:205   */\ntag_8:\n    /* \"#utility.yul\":197:198   */\n  0x00\n    /* \"#utility.yul\":194:195   */\n  dup1\n    /* \"#utility.yul\":187:199   */\n  revert\n    /* \"#utility.yul\":334:460   */\ntag_10:\n    /* \"#utility.yul\":371:378   */\n  0x00\n    /* \"#utility.yul\":411:453   */\n  0xffffffffffffffffffffffffffffffffffffffff\n    /* \"#utility.yul\":404:409   */\n  dup3\n    /* \"#utility.yul\":400:454   */\n  and\n    /* \"#utility.yul\":389:454   */\n  swap1\n  pop\n    /* \"#utility.yul\":334:460   */\n  swap2\n  swap1\n  pop\n  jump\t// out\n    /* \"#utility.yul\":466:562   */\ntag_11:\n    /* \"#utility.yul\":503:510   */\n  0x00\n    /* \"#utility.yul\":532:556   */\n  tag_21\n    /* \"#utility.yul\":550:555   */\n  dup3\n    /* \"#utility.yul\":532:556   */\n  tag_10\n  jump\t// in\ntag_21:\n    /* \"#utility.yul\":521:556   */\n  swap1\n  pop\n    /* \"#utility.yul\":466:562   */\n  swap2\n  swap1\n  pop\n  jump\t// out\n    /* \"#utility.yul\":568:677   */\ntag_12:\n    /* \"#utility.yul\":618:625   */\n  0x00\n    /* \"#utility.yul\":647:671   */\n  tag_23\n    /* \"#utility.yul\":665:670   */\n  dup3\n    /* \"#utility.yul\":647:671   */\n  tag_11\n  jump\t// in\ntag_23:\n    /* \"#utility.yul\":636:671   */\n  swap1\n  pop\n    /* \"#utility.yul\":568:677   */\n  swap2\n  swap1\n  pop\n  jump\t// out\n    /* \"#utility.yul\":683:831   */\ntag_13:\n    /* \"#utility.yul\":769:806   */\n  tag_25\n    /* \"#utility.yul\":800:805   */\n  dup2\n    /* \"#utility.yul\":769:806   */\n  tag_12\n  jump\t// in\ntag_25:\n    /* \"#utility.yul\":762:767   */\n  dup2\n    /* \"#utility.yul\":759:807   */\n  eq\n    /* \"#utility.yul\":749:825   */\n  tag_26\n  jumpi\n    /* \"#utility.yul\":821:822   */\n  0x00\n    /* \"#utility.yul\":818:819   */\n  dup1\n    /* \"#utility.yul\":811:823   */\n  revert\n    /* \"#utility.yul\":749:825   */\ntag_26:\n    /* \"#utility.yul\":683:831   */\n  pop\n  jump\t// out\n    /* \"#utility.yul\":837:1006   */\ntag_14:\n    /* \"#utility.yul\":907:912   */\n  0x00\n    /* \"#utility.yul\":938:944   */\n  dup2\n    /* \"#utility.yul\":932:945   */\n  mload\n    /* \"#utility.yul\":923:945   */\n  swap1\n  pop\n    /* \"#utility.yul\":954:1000   */\n  tag_28\n    /* \"#utility.yul\":994:999   */\n  dup2\n    /* \"#utility.yul\":954:1000   */\n  tag_13\n  jump\t// in\ntag_28:\n    /* \"#utility.yul\":837:1006   */\n  swap3\n  swap2\n  pop\n  pop\n  jump\t// out\n    /* \"#utility.yul\":1012:1389   */\ntag_3:\n    /* \"#utility.yul\":1095:1101   */\n  0x00\n    /* \"#utility.yul\":1144:1146   */\n  0x20\n    /* \"#utility.yul\":1132:1141   */\n  dup3\n    /* \"#utility.yul\":1123:1130   */\n  dup5\n    /* \"#utility.yul\":1119:1142   */\n  sub\n    /* \"#utility.yul\":1115:1147   */\n  slt\n    /* \"#utility.yul\":1112:1231   */\n  iszero\n  tag_30\n  jumpi\n    /* \"#utility.yul\":1150:1229   */\n  tag_31\n  tag_8\n  jump\t// in\ntag_31:\n    /* \"#utility.yul\":1112:1231   */\ntag_30:\n    /* \"#utility.yul\":1270:1271   */\n  0x00\n    /* \"#utility.yul\":1295:1372   */\n  tag_32\n    /* \"#utility.yul\":1364:1371   */\n  dup5\n    /* \"#utility.yul\":1355:1361   */\n  dup3\n    /* \"#utility.yul\":1344:1353   */\n  dup6\n    /* \"#utility.yul\":1340:1362   */\n  add\n    /* \"#utility.yul\":1295:1372   */\n  tag_14\n  jump\t// in\ntag_32:\n    /* \"#utility.yul\":1285:1372   */\n  swap2\n  pop\n    /* \"#utility.yul\":1241:1382   */\n  pop\n    /* \"#utility.yul\":1012:1389   */\n  swap3\n  swap2\n  pop\n  pop\n  jump\t// out\n    /* \"contracts/token/ERC20/MyAirdrop.sol\":270:2502  contract MyAirDrop {... */\ntag_6:\n  mload(0x80)\n  codecopy(0x00, dataOffset(sub_0), dataSize(sub_0))\n  0x00\n  assignImmutable(\"0x17157e479612de6088d957c64aca858964825e74089b3c7dacc26409e6d53000\")\n  return(0x00, dataSize(sub_0))\nstop\n\nsub_0: assembly {\n        /* \"contracts/token/ERC20/MyAirdrop.sol\":270:2502  contract MyAirDrop {... */\n      mstore(0x40, 0x80)\n      callvalue\n      dup1\n      iszero\n      tag_1\n      jumpi\n      0x00\n      dup1\n      revert\n    tag_1:\n      pop\n      jumpi(tag_2, lt(calldatasize, 0x04))\n      shr(0xe0, calldataload(0x00))\n      dup1\n      0x4e71d92d\n      eq\n      tag_3\n      jumpi\n      dup1\n      0x55a373d6\n      eq\n      tag_4\n      jumpi\n      dup1\n      0x706f6937\n      eq\n      tag_5\n      jumpi\n      dup1\n      0x830953ab\n      eq\n      tag_6\n      jumpi\n      dup1\n      0x8da5cb5b\n      eq\n      tag_7\n      jumpi\n      dup1\n      0xdc307b63\n      eq\n      tag_8\n      jumpi\n    tag_2:\n      0x00\n      dup1\n      revert\n        /* \"contracts/token/ERC20/MyAirdrop.sol\":2168:2500  function claim() external returns (uint256) {... */\n    tag_3:\n      tag_9\n      tag_10\n      jump\t// in\n    tag_9:\n      mload(0x40)\n      tag_11\n      swap2\n      swap1\n      tag_12\n      jump\t// in\n    tag_11:\n      mload(0x40)\n      dup1\n      swap2\n      sub\n      swap1\n      return\n        /* \"contracts/token/ERC20/MyAirdrop.sol\":372:409  IERC20 public immutable tokenContract */\n    tag_4:\n      tag_13\n      tag_14\n      jump\t// in\n    tag_13:\n      mload(0x40)\n      tag_15\n      swap2\n      swap1\n      tag_16\n      jump\t// in\n    tag_15:\n      mload(0x40)\n      dup1\n      swap2\n      sub\n      swap1\n      return\n        /* \"contracts/token/ERC20/MyAirdrop.sol\":902:1326  function airdropTokens(address[] calldata recipients, uint256[] calldata amounts) external onlyOwner {... */\n    tag_5:\n      tag_17\n      0x04\n      dup1\n      calldatasize\n      sub\n      dup2\n      add\n      swap1\n      tag_18\n      swap2\n      swap1\n      tag_19\n      jump\t// in\n    tag_18:\n      tag_20\n      jump\t// in\n    tag_17:\n      stop\n        /* \"contracts/token/ERC20/MyAirdrop.sol\":2038:2143  function claimAmount() external view returns (uint256) {... */\n    tag_6:\n      tag_21\n      tag_22\n      jump\t// in\n    tag_21:\n      mload(0x40)\n      tag_23\n      swap2\n      swap1\n      tag_12\n      jump\t// in\n    tag_23:\n      mload(0x40)\n      dup1\n      swap2\n      sub\n      swap1\n      return\n        /* \"contracts/token/ERC20/MyAirdrop.sol\":320:340  address public owner */\n    tag_7:\n      tag_24\n      tag_25\n      jump\t// in\n    tag_24:\n      mload(0x40)\n      tag_26\n      swap2\n      swap1\n      tag_27\n      jump\t// in\n    tag_26:\n      mload(0x40)\n      dup1\n      swap2\n      sub\n      swap1\n      return\n        /* \"contracts/token/ERC20/MyAirdrop.sol\":1361:2004  function airdropAmount(address user, uint256 amount) external onlyOwner {... */\n    tag_8:\n      tag_28\n      0x04\n      dup1\n      calldatasize\n      sub\n      dup2\n      add\n      swap1\n      tag_29\n      swap2\n      swap1\n      tag_30\n      jump\t// in\n    tag_29:\n      tag_31\n      jump\t// in\n    tag_28:\n      stop\n        /* \"contracts/token/ERC20/MyAirdrop.sol\":2168:2500  function claim() external returns (uint256) {... */\n    tag_10:\n        /* \"contracts/token/ERC20/MyAirdrop.sol\":2203:2210  uint256 */\n      0x00\n        /* \"contracts/token/ERC20/MyAirdrop.sol\":2222:2236  uint256 amount */\n      dup1\n        /* \"contracts/token/ERC20/MyAirdrop.sol\":2239:2253  airdropAmounts */\n      0x02\n        /* \"contracts/token/ERC20/MyAirdrop.sol\":2239:2265  airdropAmounts[msg.sender] */\n      0x00\n        /* \"contracts/token/ERC20/MyAirdrop.sol\":2254:2264  msg.sender */\n      caller\n        /* \"contracts/token/ERC20/MyAirdrop.sol\":2239:2265  airdropAmounts[msg.sender] */\n      0xffffffffffffffffffffffffffffffffffffffff\n      and\n      0xffffffffffffffffffffffffffffffffffffffff\n      and\n      dup2\n      mstore\n      0x20\n      add\n      swap1\n      dup2\n      mstore\n      0x20\n      add\n      0x00\n      keccak256\n      sload\n        /* \"contracts/token/ERC20/MyAirdrop.sol\":2222:2265  uint256 amount = airdropAmounts[msg.sender] */\n      swap1\n      pop\n        /* \"contracts/token/ERC20/MyAirdrop.sol\":2306:2307  0 */\n      0x00\n        /* \"contracts/token/ERC20/MyAirdrop.sol\":2297:2303  amount */\n      dup2\n        /* \"contracts/token/ERC20/MyAirdrop.sol\":2297:2307  amount > 0 */\n      gt\n        /* \"contracts/token/ERC20/MyAirdrop.sol\":2293:2471  if (amount > 0) {... */\n      iszero\n      tag_33\n      jumpi\n        /* \"contracts/token/ERC20/MyAirdrop.sol\":2375:2376  0 */\n      0x00\n        /* \"contracts/token/ERC20/MyAirdrop.sol\":2346:2360  airdropAmounts */\n      0x02\n        /* \"contracts/token/ERC20/MyAirdrop.sol\":2346:2372  airdropAmounts[msg.sender] */\n      0x00\n        /* \"contracts/token/ERC20/MyAirdrop.sol\":2361:2371  msg.sender */\n      caller\n        /* \"contracts/token/ERC20/MyAirdrop.sol\":2346:2372  airdropAmounts[msg.sender] */\n      0xffffffffffffffffffffffffffffffffffffffff\n      and\n      0xffffffffffffffffffffffffffffffffffffffff\n      and\n      dup2\n      mstore\n      0x20\n      add\n      swap1\n      dup2\n      mstore\n      0x20\n      add\n      0x00\n      keccak256\n        /* \"contracts/token/ERC20/MyAirdrop.sol\":2346:2376  airdropAmounts[msg.sender] = 0 */\n      dup2\n      swap1\n      sstore\n      pop\n        /* \"contracts/token/ERC20/MyAirdrop.sol\":2418:2431  tokenContract */\n      immutable(\"0x17157e479612de6088d957c64aca858964825e74089b3c7dacc26409e6d53000\")\n        /* \"contracts/token/ERC20/MyAirdrop.sol\":2418:2440  tokenContract.transfer */\n      0xffffffffffffffffffffffffffffffffffffffff\n      and\n      0xa9059cbb\n        /* \"contracts/token/ERC20/MyAirdrop.sol\":2441:2451  msg.sender */\n      caller\n        /* \"contracts/token/ERC20/MyAirdrop.sol\":2453:2459  amount */\n      dup4\n        /* \"contracts/token/ERC20/MyAirdrop.sol\":2418:2460  tokenContract.transfer(msg.sender, amount) */\n      mload(0x40)\n      dup4\n      0xffffffff\n      and\n      0xe0\n      shl\n      dup2\n      mstore\n      0x04\n      add\n      tag_34\n      swap3\n      swap2\n      swap1\n      tag_35\n      jump\t// in\n    tag_34:\n      0x20\n      mload(0x40)\n      dup1\n      dup4\n      sub\n      dup2\n      0x00\n      dup8\n      gas\n      call\n      iszero\n      dup1\n      iszero\n      tag_37\n      jumpi\n      returndatasize\n      0x00\n      dup1\n      returndatacopy\n      revert(0x00, returndatasize)\n    tag_37:\n      pop\n      pop\n      pop\n      pop\n      mload(0x40)\n      returndatasize\n      not(0x1f)\n      0x1f\n      dup3\n      add\n      and\n      dup3\n      add\n      dup1\n      0x40\n      mstore\n      pop\n      dup2\n      add\n      swap1\n      tag_38\n      swap2\n      swap1\n      tag_39\n      jump\t// in\n    tag_38:\n      pop\n        /* \"contracts/token/ERC20/MyAirdrop.sol\":2293:2471  if (amount > 0) {... */\n    tag_33:\n        /* \"contracts/token/ERC20/MyAirdrop.sol\":2487:2493  amount */\n      dup1\n        /* \"contracts/token/ERC20/MyAirdrop.sol\":2480:2493  return amount */\n      swap2\n      pop\n      pop\n        /* \"contracts/token/ERC20/MyAirdrop.sol\":2168:2500  function claim() external returns (uint256) {... */\n      swap1\n      jump\t// out\n        /* \"contracts/token/ERC20/MyAirdrop.sol\":372:409  IERC20 public immutable tokenContract */\n    tag_14:\n      immutable(\"0x17157e479612de6088d957c64aca858964825e74089b3c7dacc26409e6d53000\")\n      dup2\n      jump\t// out\n        /* \"contracts/token/ERC20/MyAirdrop.sol\":902:1326  function airdropTokens(address[] calldata recipients, uint256[] calldata amounts) external onlyOwner {... */\n    tag_20:\n        /* \"contracts/token/ERC20/MyAirdrop.sol\":796:801  owner */\n      0x00\n      dup1\n      sload\n      swap1\n      0x0100\n      exp\n      swap1\n      div\n      0xffffffffffffffffffffffffffffffffffffffff\n      and\n        /* \"contracts/token/ERC20/MyAirdrop.sol\":782:801  msg.sender != owner */\n      0xffffffffffffffffffffffffffffffffffffffff\n      and\n        /* \"contracts/token/ERC20/MyAirdrop.sol\":782:792  msg.sender */\n      caller\n        /* \"contracts/token/ERC20/MyAirdrop.sol\":782:801  msg.sender != owner */\n      0xffffffffffffffffffffffffffffffffffffffff\n      and\n      eq\n        /* \"contracts/token/ERC20/MyAirdrop.sol\":778:859  if (msg.sender != owner) {... */\n      tag_41\n      jumpi\n        /* \"contracts/token/ERC20/MyAirdrop.sol\":817:848  revert(\"Only owner can access\") */\n      mload(0x40)\n      0x08c379a000000000000000000000000000000000000000000000000000000000\n      dup2\n      mstore\n      0x04\n      add\n      tag_42\n      swap1\n      tag_43\n      jump\t// in\n    tag_42:\n      mload(0x40)\n      dup1\n      swap2\n      sub\n      swap1\n      revert\n        /* \"contracts/token/ERC20/MyAirdrop.sol\":778:859  if (msg.sender != owner) {... */\n    tag_41:\n        /* \"contracts/token/ERC20/MyAirdrop.sol\":1056:1063  amounts */\n      dup2\n      dup2\n        /* \"contracts/token/ERC20/MyAirdrop.sol\":1056:1070  amounts.length */\n      swap1\n      pop\n        /* \"contracts/token/ERC20/MyAirdrop.sol\":1035:1045  recipients */\n      dup5\n      dup5\n        /* \"contracts/token/ERC20/MyAirdrop.sol\":1035:1052  recipients.length */\n      swap1\n      pop\n        /* \"contracts/token/ERC20/MyAirdrop.sol\":1035:1070  recipients.length != amounts.length */\n      eq\n        /* \"contracts/token/ERC20/MyAirdrop.sol\":1031:1130  if (recipients.length != amounts.length) {... */\n      tag_45\n      jumpi\n        /* \"contracts/token/ERC20/MyAirdrop.sol\":1086:1119  revert(\"Mismatched array lenths\") */\n      mload(0x40)\n      0x08c379a000000000000000000000000000000000000000000000000000000000\n      dup2\n      mstore\n      0x04\n      add\n      tag_46\n      swap1\n      tag_47\n      jump\t// in\n    tag_46:\n      mload(0x40)\n      dup1\n      swap2\n      sub\n      swap1\n      revert\n        /* \"contracts/token/ERC20/MyAirdrop.sol\":1031:1130  if (recipients.length != amounts.length) {... */\n    tag_45:\n        /* \"contracts/token/ERC20/MyAirdrop.sol\":1143:1152  uint256 i */\n      0x00\n        /* \"contracts/token/ERC20/MyAirdrop.sol\":1139:1320  for(uint256 i=0; i<recipients.length; i++) {... */\n    tag_48:\n        /* \"contracts/token/ERC20/MyAirdrop.sol\":1158:1168  recipients */\n      dup5\n      dup5\n        /* \"contracts/token/ERC20/MyAirdrop.sol\":1158:1175  recipients.length */\n      swap1\n      pop\n        /* \"contracts/token/ERC20/MyAirdrop.sol\":1156:1157  i */\n      dup2\n        /* \"contracts/token/ERC20/MyAirdrop.sol\":1156:1175  i<recipients.length */\n      lt\n        /* \"contracts/token/ERC20/MyAirdrop.sol\":1139:1320  for(uint256 i=0; i<recipients.length; i++) {... */\n      iszero\n      tag_49\n      jumpi\n        /* \"contracts/token/ERC20/MyAirdrop.sol\":1201:1214  tokenContract */\n      immutable(\"0x17157e479612de6088d957c64aca858964825e74089b3c7dacc26409e6d53000\")\n        /* \"contracts/token/ERC20/MyAirdrop.sol\":1201:1223  tokenContract.transfer */\n      0xffffffffffffffffffffffffffffffffffffffff\n      and\n      0xa9059cbb\n        /* \"contracts/token/ERC20/MyAirdrop.sol\":1224:1234  recipients */\n      dup7\n      dup7\n        /* \"contracts/token/ERC20/MyAirdrop.sol\":1235:1236  i */\n      dup5\n        /* \"contracts/token/ERC20/MyAirdrop.sol\":1224:1237  recipients[i] */\n      dup2\n      dup2\n      lt\n      tag_51\n      jumpi\n      tag_52\n      tag_53\n      jump\t// in\n    tag_52:\n    tag_51:\n      swap1\n      pop\n      0x20\n      mul\n      add\n      0x20\n      dup2\n      add\n      swap1\n      tag_54\n      swap2\n      swap1\n      tag_55\n      jump\t// in\n    tag_54:\n        /* \"contracts/token/ERC20/MyAirdrop.sol\":1239:1246  amounts */\n      dup6\n      dup6\n        /* \"contracts/token/ERC20/MyAirdrop.sol\":1247:1248  i */\n      dup6\n        /* \"contracts/token/ERC20/MyAirdrop.sol\":1239:1249  amounts[i] */\n      dup2\n      dup2\n      lt\n      tag_56\n      jumpi\n      tag_57\n      tag_53\n      jump\t// in\n    tag_57:\n    tag_56:\n      swap1\n      pop\n      0x20\n      mul\n      add\n      calldataload\n        /* \"contracts/token/ERC20/MyAirdrop.sol\":1201:1250  tokenContract.transfer(recipients[i], amounts[i]) */\n      mload(0x40)\n      dup4\n      0xffffffff\n      and\n      0xe0\n      shl\n      dup2\n      mstore\n      0x04\n      add\n      tag_58\n      swap3\n      swap2\n      swap1\n      tag_35\n      jump\t// in\n    tag_58:\n      0x20\n      mload(0x40)\n      dup1\n      dup4\n      sub\n      dup2\n      0x00\n      dup8\n      gas\n      call\n      iszero\n      dup1\n      iszero\n      tag_60\n      jumpi\n      returndatasize\n      0x00\n      dup1\n      returndatacopy\n      revert(0x00, returndatasize)\n    tag_60:\n      pop\n      pop\n      pop\n      pop\n      mload(0x40)\n      returndatasize\n      not(0x1f)\n      0x1f\n      dup3\n      add\n      and\n      dup3\n      add\n      dup1\n      0x40\n      mstore\n      pop\n      dup2\n      add\n      swap1\n      tag_61\n      swap2\n      swap1\n      tag_39\n      jump\t// in\n    tag_61:\n        /* \"contracts/token/ERC20/MyAirdrop.sol\":1196:1310  if (!tokenContract.transfer(recipients[i], amounts[i])) {... */\n      tag_62\n      jumpi\n        /* \"contracts/token/ERC20/MyAirdrop.sol\":1270:1295  revert(\"Transfer failed\") */\n      mload(0x40)\n      0x08c379a000000000000000000000000000000000000000000000000000000000\n      dup2\n      mstore\n      0x04\n      add\n      tag_63\n      swap1\n      tag_64\n      jump\t// in\n    tag_63:\n      mload(0x40)\n      dup1\n      swap2\n      sub\n      swap1\n      revert\n        /* \"contracts/token/ERC20/MyAirdrop.sol\":1196:1310  if (!tokenContract.transfer(recipients[i], amounts[i])) {... */\n    tag_62:\n        /* \"contracts/token/ERC20/MyAirdrop.sol\":1177:1180  i++ */\n      dup1\n      dup1\n      0x01\n      add\n      swap2\n      pop\n      pop\n        /* \"contracts/token/ERC20/MyAirdrop.sol\":1139:1320  for(uint256 i=0; i<recipients.length; i++) {... */\n      jump(tag_48)\n    tag_49:\n      pop\n        /* \"contracts/token/ERC20/MyAirdrop.sol\":902:1326  function airdropTokens(address[] calldata recipients, uint256[] calldata amounts) external onlyOwner {... */\n      pop\n      pop\n      pop\n      pop\n      jump\t// out\n        /* \"contracts/token/ERC20/MyAirdrop.sol\":2038:2143  function claimAmount() external view returns (uint256) {... */\n    tag_22:\n        /* \"contracts/token/ERC20/MyAirdrop.sol\":2084:2091  uint256 */\n      0x00\n        /* \"contracts/token/ERC20/MyAirdrop.sol\":2110:2124  airdropAmounts */\n      0x02\n        /* \"contracts/token/ERC20/MyAirdrop.sol\":2110:2136  airdropAmounts[msg.sender] */\n      0x00\n        /* \"contracts/token/ERC20/MyAirdrop.sol\":2125:2135  msg.sender */\n      caller\n        /* \"contracts/token/ERC20/MyAirdrop.sol\":2110:2136  airdropAmounts[msg.sender] */\n      0xffffffffffffffffffffffffffffffffffffffff\n      and\n      0xffffffffffffffffffffffffffffffffffffffff\n      and\n      dup2\n      mstore\n      0x20\n      add\n      swap1\n      dup2\n      mstore\n      0x20\n      add\n      0x00\n      keccak256\n      sload\n        /* \"contracts/token/ERC20/MyAirdrop.sol\":2103:2136  return airdropAmounts[msg.sender] */\n      swap1\n      pop\n        /* \"contracts/token/ERC20/MyAirdrop.sol\":2038:2143  function claimAmount() external view returns (uint256) {... */\n      swap1\n      jump\t// out\n        /* \"contracts/token/ERC20/MyAirdrop.sol\":320:340  address public owner */\n    tag_25:\n      0x00\n      dup1\n      sload\n      swap1\n      0x0100\n      exp\n      swap1\n      div\n      0xffffffffffffffffffffffffffffffffffffffff\n      and\n      dup2\n      jump\t// out\n        /* \"contracts/token/ERC20/MyAirdrop.sol\":1361:2004  function airdropAmount(address user, uint256 amount) external onlyOwner {... */\n    tag_31:\n        /* \"contracts/token/ERC20/MyAirdrop.sol\":796:801  owner */\n      0x00\n      dup1\n      sload\n      swap1\n      0x0100\n      exp\n      swap1\n      div\n      0xffffffffffffffffffffffffffffffffffffffff\n      and\n        /* \"contracts/token/ERC20/MyAirdrop.sol\":782:801  msg.sender != owner */\n      0xffffffffffffffffffffffffffffffffffffffff\n      and\n        /* \"contracts/token/ERC20/MyAirdrop.sol\":782:792  msg.sender */\n      caller\n        /* \"contracts/token/ERC20/MyAirdrop.sol\":782:801  msg.sender != owner */\n      0xffffffffffffffffffffffffffffffffffffffff\n      and\n      eq\n        /* \"contracts/token/ERC20/MyAirdrop.sol\":778:859  if (msg.sender != owner) {... */\n      tag_67\n      jumpi\n        /* \"contracts/token/ERC20/MyAirdrop.sol\":817:848  revert(\"Only owner can access\") */\n      mload(0x40)\n      0x08c379a000000000000000000000000000000000000000000000000000000000\n      dup2\n      mstore\n      0x04\n      add\n      tag_68\n      swap1\n      tag_43\n      jump\t// in\n    tag_68:\n      mload(0x40)\n      dup1\n      swap2\n      sub\n      swap1\n      revert\n        /* \"contracts/token/ERC20/MyAirdrop.sol\":778:859  if (msg.sender != owner) {... */\n    tag_67:\n        /* \"contracts/token/ERC20/MyAirdrop.sol\":1481:1495  airdropAmounts */\n      0x02\n        /* \"contracts/token/ERC20/MyAirdrop.sol\":1481:1501  airdropAmounts[user] */\n      0x00\n        /* \"contracts/token/ERC20/MyAirdrop.sol\":1496:1500  user */\n      dup4\n        /* \"contracts/token/ERC20/MyAirdrop.sol\":1481:1501  airdropAmounts[user] */\n      0xffffffffffffffffffffffffffffffffffffffff\n      and\n      0xffffffffffffffffffffffffffffffffffffffff\n      and\n      dup2\n      mstore\n      0x20\n      add\n      swap1\n      dup2\n      mstore\n      0x20\n      add\n      0x00\n      keccak256\n      sload\n        /* \"contracts/token/ERC20/MyAirdrop.sol\":1472:1478  amount */\n      dup2\n        /* \"contracts/token/ERC20/MyAirdrop.sol\":1472:1501  amount > airdropAmounts[user] */\n      gt\n        /* \"contracts/token/ERC20/MyAirdrop.sol\":1468:1940  if (amount > airdropAmounts[user]) {... */\n      iszero\n      tag_70\n      jumpi\n        /* \"contracts/token/ERC20/MyAirdrop.sol\":1590:1609  uint256 newClaimSum */\n      0x00\n        /* \"contracts/token/ERC20/MyAirdrop.sol\":1633:1647  airdropAmounts */\n      0x02\n        /* \"contracts/token/ERC20/MyAirdrop.sol\":1633:1653  airdropAmounts[user] */\n      0x00\n        /* \"contracts/token/ERC20/MyAirdrop.sol\":1648:1652  user */\n      dup5\n        /* \"contracts/token/ERC20/MyAirdrop.sol\":1633:1653  airdropAmounts[user] */\n      0xffffffffffffffffffffffffffffffffffffffff\n      and\n      0xffffffffffffffffffffffffffffffffffffffff\n      and\n      dup2\n      mstore\n      0x20\n      add\n      swap1\n      dup2\n      mstore\n      0x20\n      add\n      0x00\n      keccak256\n      sload\n        /* \"contracts/token/ERC20/MyAirdrop.sol\":1624:1630  amount */\n      dup3\n        /* \"contracts/token/ERC20/MyAirdrop.sol\":1624:1653  amount - airdropAmounts[user] */\n      tag_71\n      swap2\n      swap1\n      tag_72\n      jump\t// in\n    tag_71:\n        /* \"contracts/token/ERC20/MyAirdrop.sol\":1612:1620  claimSum */\n      sload(0x01)\n        /* \"contracts/token/ERC20/MyAirdrop.sol\":1612:1654  claimSum + (amount - airdropAmounts[user]) */\n      tag_73\n      swap2\n      swap1\n      tag_74\n      jump\t// in\n    tag_73:\n        /* \"contracts/token/ERC20/MyAirdrop.sol\":1590:1654  uint256 newClaimSum = claimSum + (amount - airdropAmounts[user]) */\n      swap1\n      pop\n        /* \"contracts/token/ERC20/MyAirdrop.sol\":1686:1699  tokenContract */\n      immutable(\"0x17157e479612de6088d957c64aca858964825e74089b3c7dacc26409e6d53000\")\n        /* \"contracts/token/ERC20/MyAirdrop.sol\":1686:1709  tokenContract.balanceOf */\n      0xffffffffffffffffffffffffffffffffffffffff\n      and\n      0x70a08231\n        /* \"contracts/token/ERC20/MyAirdrop.sol\":1718:1722  this */\n      address\n        /* \"contracts/token/ERC20/MyAirdrop.sol\":1686:1724  tokenContract.balanceOf(address(this)) */\n      mload(0x40)\n      dup3\n      0xffffffff\n      and\n      0xe0\n      shl\n      dup2\n      mstore\n      0x04\n      add\n      tag_75\n      swap2\n      swap1\n      tag_27\n      jump\t// in\n    tag_75:\n      0x20\n      mload(0x40)\n      dup1\n      dup4\n      sub\n      dup2\n      dup7\n      gas\n      staticcall\n      iszero\n      dup1\n      iszero\n      tag_77\n      jumpi\n      returndatasize\n      0x00\n      dup1\n      returndatacopy\n      revert(0x00, returndatasize)\n    tag_77:\n      pop\n      pop\n      pop\n      pop\n      mload(0x40)\n      returndatasize\n      not(0x1f)\n      0x1f\n      dup3\n      add\n      and\n      dup3\n      add\n      dup1\n      0x40\n      mstore\n      pop\n      dup2\n      add\n      swap1\n      tag_78\n      swap2\n      swap1\n      tag_79\n      jump\t// in\n    tag_78:\n        /* \"contracts/token/ERC20/MyAirdrop.sol\":1672:1683  newClaimSum */\n      dup2\n        /* \"contracts/token/ERC20/MyAirdrop.sol\":1672:1724  newClaimSum > tokenContract.balanceOf(address(this)) */\n      gt\n        /* \"contracts/token/ERC20/MyAirdrop.sol\":1668:1795  if (newClaimSum > tokenContract.balanceOf(address(this))) {... */\n      iszero\n      tag_80\n      jumpi\n        /* \"contracts/token/ERC20/MyAirdrop.sol\":1744:1780  revert(\"Token balance insufficient\") */\n      mload(0x40)\n      0x08c379a000000000000000000000000000000000000000000000000000000000\n      dup2\n      mstore\n      0x04\n      add\n      tag_81\n      swap1\n      tag_82\n      jump\t// in\n    tag_81:\n      mload(0x40)\n      dup1\n      swap2\n      sub\n      swap1\n      revert\n        /* \"contracts/token/ERC20/MyAirdrop.sol\":1668:1795  if (newClaimSum > tokenContract.balanceOf(address(this))) {... */\n    tag_80:\n        /* \"contracts/token/ERC20/MyAirdrop.sol\":1819:1830  newClaimSum */\n      dup1\n        /* \"contracts/token/ERC20/MyAirdrop.sol\":1808:1816  claimSum */\n      0x01\n        /* \"contracts/token/ERC20/MyAirdrop.sol\":1808:1830  claimSum = newClaimSum */\n      dup2\n      swap1\n      sstore\n      pop\n        /* \"contracts/token/ERC20/MyAirdrop.sol\":1503:1841  {... */\n      pop\n        /* \"contracts/token/ERC20/MyAirdrop.sol\":1468:1940  if (amount > airdropAmounts[user]) {... */\n      jump(tag_83)\n    tag_70:\n        /* \"contracts/token/ERC20/MyAirdrop.sol\":1922:1928  amount */\n      dup1\n        /* \"contracts/token/ERC20/MyAirdrop.sol\":1901:1915  airdropAmounts */\n      0x02\n        /* \"contracts/token/ERC20/MyAirdrop.sol\":1901:1921  airdropAmounts[user] */\n      0x00\n        /* \"contracts/token/ERC20/MyAirdrop.sol\":1916:1920  user */\n      dup5\n        /* \"contracts/token/ERC20/MyAirdrop.sol\":1901:1921  airdropAmounts[user] */\n      0xffffffffffffffffffffffffffffffffffffffff\n      and\n      0xffffffffffffffffffffffffffffffffffffffff\n      and\n      dup2\n      mstore\n      0x20\n      add\n      swap1\n      dup2\n      mstore\n      0x20\n      add\n      0x00\n      keccak256\n      sload\n        /* \"contracts/token/ERC20/MyAirdrop.sol\":1901:1928  airdropAmounts[user]-amount */\n      tag_84\n      swap2\n      swap1\n      tag_72\n      jump\t// in\n    tag_84:\n        /* \"contracts/token/ERC20/MyAirdrop.sol\":1888:1896  claimSum */\n      0x01\n      0x00\n        /* \"contracts/token/ERC20/MyAirdrop.sol\":1888:1929  claimSum -= (airdropAmounts[user]-amount) */\n      dup3\n      dup3\n      sload\n      tag_85\n      swap2\n      swap1\n      tag_72\n      jump\t// in\n    tag_85:\n      swap3\n      pop\n      pop\n      dup2\n      swap1\n      sstore\n      pop\n        /* \"contracts/token/ERC20/MyAirdrop.sol\":1468:1940  if (amount > airdropAmounts[user]) {... */\n    tag_83:\n        /* \"contracts/token/ERC20/MyAirdrop.sol\":1991:1997  amount */\n      dup1\n        /* \"contracts/token/ERC20/MyAirdrop.sol\":1968:1982  airdropAmounts */\n      0x02\n        /* \"contracts/token/ERC20/MyAirdrop.sol\":1968:1988  airdropAmounts[user] */\n      0x00\n        /* \"contracts/token/ERC20/MyAirdrop.sol\":1983:1987  user */\n      dup5\n        /* \"contracts/token/ERC20/MyAirdrop.sol\":1968:1988  airdropAmounts[user] */\n      0xffffffffffffffffffffffffffffffffffffffff\n      and\n      0xffffffffffffffffffffffffffffffffffffffff\n      and\n      dup2\n      mstore\n      0x20\n      add\n      swap1\n      dup2\n      mstore\n      0x20\n      add\n      0x00\n      keccak256\n        /* \"contracts/token/ERC20/MyAirdrop.sol\":1968:1997  airdropAmounts[user] = amount */\n      dup2\n      swap1\n      sstore\n      pop\n        /* \"contracts/token/ERC20/MyAirdrop.sol\":1361:2004  function airdropAmount(address user, uint256 amount) external onlyOwner {... */\n      pop\n      pop\n      jump\t// out\n        /* \"#utility.yul\":7:84   */\n    tag_86:\n        /* \"#utility.yul\":44:51   */\n      0x00\n        /* \"#utility.yul\":73:78   */\n      dup2\n        /* \"#utility.yul\":62:78   */\n      swap1\n      pop\n        /* \"#utility.yul\":7:84   */\n      swap2\n      swap1\n      pop\n      jump\t// out\n        /* \"#utility.yul\":90:208   */\n    tag_87:\n        /* \"#utility.yul\":177:201   */\n      tag_125\n        /* \"#utility.yul\":195:200   */\n      dup2\n        /* \"#utility.yul\":177:201   */\n      tag_86\n      jump\t// in\n    tag_125:\n        /* \"#utility.yul\":172:175   */\n      dup3\n        /* \"#utility.yul\":165:202   */\n      mstore\n        /* \"#utility.yul\":90:208   */\n      pop\n      pop\n      jump\t// out\n        /* \"#utility.yul\":214:436   */\n    tag_12:\n        /* \"#utility.yul\":307:311   */\n      0x00\n        /* \"#utility.yul\":345:347   */\n      0x20\n        /* \"#utility.yul\":334:343   */\n      dup3\n        /* \"#utility.yul\":330:348   */\n      add\n        /* \"#utility.yul\":322:348   */\n      swap1\n      pop\n        /* \"#utility.yul\":358:429   */\n      tag_127\n        /* \"#utility.yul\":426:427   */\n      0x00\n        /* \"#utility.yul\":415:424   */\n      dup4\n        /* \"#utility.yul\":411:428   */\n      add\n        /* \"#utility.yul\":402:408   */\n      dup5\n        /* \"#utility.yul\":358:429   */\n      tag_87\n      jump\t// in\n    tag_127:\n        /* \"#utility.yul\":214:436   */\n      swap3\n      swap2\n      pop\n      pop\n      jump\t// out\n        /* \"#utility.yul\":442:568   */\n    tag_88:\n        /* \"#utility.yul\":479:486   */\n      0x00\n        /* \"#utility.yul\":519:561   */\n      0xffffffffffffffffffffffffffffffffffffffff\n        /* \"#utility.yul\":512:517   */\n      dup3\n        /* \"#utility.yul\":508:562   */\n      and\n        /* \"#utility.yul\":497:562   */\n      swap1\n      pop\n        /* \"#utility.yul\":442:568   */\n      swap2\n      swap1\n      pop\n      jump\t// out\n        /* \"#utility.yul\":574:634   */\n    tag_89:\n        /* \"#utility.yul\":602:605   */\n      0x00\n        /* \"#utility.yul\":623:628   */\n      dup2\n        /* \"#utility.yul\":616:628   */\n      swap1\n      pop\n        /* \"#utility.yul\":574:634   */\n      swap2\n      swap1\n      pop\n      jump\t// out\n        /* \"#utility.yul\":640:782   */\n    tag_90:\n        /* \"#utility.yul\":690:699   */\n      0x00\n        /* \"#utility.yul\":723:776   */\n      tag_131\n        /* \"#utility.yul\":741:775   */\n      tag_132\n        /* \"#utility.yul\":750:774   */\n      tag_133\n        /* \"#utility.yul\":768:773   */\n      dup5\n        /* \"#utility.yul\":750:774   */\n      tag_88\n      jump\t// in\n    tag_133:\n        /* \"#utility.yul\":741:775   */\n      tag_89\n      jump\t// in\n    tag_132:\n        /* \"#utility.yul\":723:776   */\n      tag_88\n      jump\t// in\n    tag_131:\n        /* \"#utility.yul\":710:776   */\n      swap1\n      pop\n        /* \"#utility.yul\":640:782   */\n      swap2\n      swap1\n      pop\n      jump\t// out\n        /* \"#utility.yul\":788:914   */\n    tag_91:\n        /* \"#utility.yul\":838:847   */\n      0x00\n        /* \"#utility.yul\":871:908   */\n      tag_135\n        /* \"#utility.yul\":902:907   */\n      dup3\n        /* \"#utility.yul\":871:908   */\n      tag_90\n      jump\t// in\n    tag_135:\n        /* \"#utility.yul\":858:908   */\n      swap1\n      pop\n        /* \"#utility.yul\":788:914   */\n      swap2\n      swap1\n      pop\n      jump\t// out\n        /* \"#utility.yul\":920:1059   */\n    tag_92:\n        /* \"#utility.yul\":983:992   */\n      0x00\n        /* \"#utility.yul\":1016:1053   */\n      tag_137\n        /* \"#utility.yul\":1047:1052   */\n      dup3\n        /* \"#utility.yul\":1016:1053   */\n      tag_91\n      jump\t// in\n    tag_137:\n        /* \"#utility.yul\":1003:1053   */\n      swap1\n      pop\n        /* \"#utility.yul\":920:1059   */\n      swap2\n      swap1\n      pop\n      jump\t// out\n        /* \"#utility.yul\":1065:1222   */\n    tag_93:\n        /* \"#utility.yul\":1165:1215   */\n      tag_139\n        /* \"#utility.yul\":1209:1214   */\n      dup2\n        /* \"#utility.yul\":1165:1215   */\n      tag_92\n      jump\t// in\n    tag_139:\n        /* \"#utility.yul\":1160:1163   */\n      dup3\n        /* \"#utility.yul\":1153:1216   */\n      mstore\n        /* \"#utility.yul\":1065:1222   */\n      pop\n      pop\n      jump\t// out\n        /* \"#utility.yul\":1228:1476   */\n    tag_16:\n        /* \"#utility.yul\":1334:1338   */\n      0x00\n        /* \"#utility.yul\":1372:1374   */\n      0x20\n        /* \"#utility.yul\":1361:1370   */\n      dup3\n        /* \"#utility.yul\":1357:1375   */\n      add\n        /* \"#utility.yul\":1349:1375   */\n      swap1\n      pop\n        /* \"#utility.yul\":1385:1469   */\n      tag_141\n        /* \"#utility.yul\":1466:1467   */\n      0x00\n        /* \"#utility.yul\":1455:1464   */\n      dup4\n        /* \"#utility.yul\":1451:1468   */\n      add\n        /* \"#utility.yul\":1442:1448   */\n      dup5\n        /* \"#utility.yul\":1385:1469   */\n      tag_93\n      jump\t// in\n    tag_141:\n        /* \"#utility.yul\":1228:1476   */\n      swap3\n      swap2\n      pop\n      pop\n      jump\t// out\n        /* \"#utility.yul\":1563:1680   */\n    tag_95:\n        /* \"#utility.yul\":1672:1673   */\n      0x00\n        /* \"#utility.yul\":1669:1670   */\n      dup1\n        /* \"#utility.yul\":1662:1674   */\n      revert\n        /* \"#utility.yul\":1686:1803   */\n    tag_96:\n        /* \"#utility.yul\":1795:1796   */\n      0x00\n        /* \"#utility.yul\":1792:1793   */\n      dup1\n        /* \"#utility.yul\":1785:1797   */\n      revert\n        /* \"#utility.yul\":1809:1926   */\n    tag_97:\n        /* \"#utility.yul\":1918:1919   */\n      0x00\n        /* \"#utility.yul\":1915:1916   */\n      dup1\n        /* \"#utility.yul\":1908:1920   */\n      revert\n        /* \"#utility.yul\":1932:2049   */\n    tag_98:\n        /* \"#utility.yul\":2041:2042   */\n      0x00\n        /* \"#utility.yul\":2038:2039   */\n      dup1\n        /* \"#utility.yul\":2031:2043   */\n      revert\n        /* \"#utility.yul\":2055:2172   */\n    tag_99:\n        /* \"#utility.yul\":2164:2165   */\n      0x00\n        /* \"#utility.yul\":2161:2162   */\n      dup1\n        /* \"#utility.yul\":2154:2166   */\n      revert\n        /* \"#utility.yul\":2195:2763   */\n    tag_100:\n        /* \"#utility.yul\":2268:2276   */\n      0x00\n        /* \"#utility.yul\":2278:2284   */\n      dup1\n        /* \"#utility.yul\":2328:2331   */\n      dup4\n        /* \"#utility.yul\":2321:2325   */\n      0x1f\n        /* \"#utility.yul\":2313:2319   */\n      dup5\n        /* \"#utility.yul\":2309:2326   */\n      add\n        /* \"#utility.yul\":2305:2332   */\n      slt\n        /* \"#utility.yul\":2295:2417   */\n      tag_149\n      jumpi\n        /* \"#utility.yul\":2336:2415   */\n      tag_150\n      tag_97\n      jump\t// in\n    tag_150:\n        /* \"#utility.yul\":2295:2417   */\n    tag_149:\n        /* \"#utility.yul\":2449:2455   */\n      dup3\n        /* \"#utility.yul\":2436:2456   */\n      calldataload\n        /* \"#utility.yul\":2426:2456   */\n      swap1\n      pop\n        /* \"#utility.yul\":2479:2497   */\n      0xffffffffffffffff\n        /* \"#utility.yul\":2471:2477   */\n      dup2\n        /* \"#utility.yul\":2468:2498   */\n      gt\n        /* \"#utility.yul\":2465:2582   */\n      iszero\n      tag_151\n      jumpi\n        /* \"#utility.yul\":2501:2580   */\n      tag_152\n      tag_98\n      jump\t// in\n    tag_152:\n        /* \"#utility.yul\":2465:2582   */\n    tag_151:\n        /* \"#utility.yul\":2615:2619   */\n      0x20\n        /* \"#utility.yul\":2607:2613   */\n      dup4\n        /* \"#utility.yul\":2603:2620   */\n      add\n        /* \"#utility.yul\":2591:2620   */\n      swap2\n      pop\n        /* \"#utility.yul\":2669:2672   */\n      dup4\n        /* \"#utility.yul\":2661:2665   */\n      0x20\n        /* \"#utility.yul\":2653:2659   */\n      dup3\n        /* \"#utility.yul\":2649:2666   */\n      mul\n        /* \"#utility.yul\":2639:2647   */\n      dup4\n        /* \"#utility.yul\":2635:2667   */\n      add\n        /* \"#utility.yul\":2632:2673   */\n      gt\n        /* \"#utility.yul\":2629:2757   */\n      iszero\n      tag_153\n      jumpi\n        /* \"#utility.yul\":2676:2755   */\n      tag_154\n      tag_99\n      jump\t// in\n    tag_154:\n        /* \"#utility.yul\":2629:2757   */\n    tag_153:\n        /* \"#utility.yul\":2195:2763   */\n      swap3\n      pop\n      swap3\n      swap1\n      pop\n      jump\t// out\n        /* \"#utility.yul\":2786:3354   */\n    tag_101:\n        /* \"#utility.yul\":2859:2867   */\n      0x00\n        /* \"#utility.yul\":2869:2875   */\n      dup1\n        /* \"#utility.yul\":2919:2922   */\n      dup4\n        /* \"#utility.yul\":2912:2916   */\n      0x1f\n        /* \"#utility.yul\":2904:2910   */\n      dup5\n        /* \"#utility.yul\":2900:2917   */\n      add\n        /* \"#utility.yul\":2896:2923   */\n      slt\n        /* \"#utility.yul\":2886:3008   */\n      tag_156\n      jumpi\n        /* \"#utility.yul\":2927:3006   */\n      tag_157\n      tag_97\n      jump\t// in\n    tag_157:\n        /* \"#utility.yul\":2886:3008   */\n    tag_156:\n        /* \"#utility.yul\":3040:3046   */\n      dup3\n        /* \"#utility.yul\":3027:3047   */\n      calldataload\n        /* \"#utility.yul\":3017:3047   */\n      swap1\n      pop\n        /* \"#utility.yul\":3070:3088   */\n      0xffffffffffffffff\n        /* \"#utility.yul\":3062:3068   */\n      dup2\n        /* \"#utility.yul\":3059:3089   */\n      gt\n        /* \"#utility.yul\":3056:3173   */\n      iszero\n      tag_158\n      jumpi\n        /* \"#utility.yul\":3092:3171   */\n      tag_159\n      tag_98\n      jump\t// in\n    tag_159:\n        /* \"#utility.yul\":3056:3173   */\n    tag_158:\n        /* \"#utility.yul\":3206:3210   */\n      0x20\n        /* \"#utility.yul\":3198:3204   */\n      dup4\n        /* \"#utility.yul\":3194:3211   */\n      add\n        /* \"#utility.yul\":3182:3211   */\n      swap2\n      pop\n        /* \"#utility.yul\":3260:3263   */\n      dup4\n        /* \"#utility.yul\":3252:3256   */\n      0x20\n        /* \"#utility.yul\":3244:3250   */\n      dup3\n        /* \"#utility.yul\":3240:3257   */\n      mul\n        /* \"#utility.yul\":3230:3238   */\n      dup4\n        /* \"#utility.yul\":3226:3258   */\n      add\n        /* \"#utility.yul\":3223:3264   */\n      gt\n        /* \"#utility.yul\":3220:3348   */\n      iszero\n      tag_160\n      jumpi\n        /* \"#utility.yul\":3267:3346   */\n      tag_161\n      tag_99\n      jump\t// in\n    tag_161:\n        /* \"#utility.yul\":3220:3348   */\n    tag_160:\n        /* \"#utility.yul\":2786:3354   */\n      swap3\n      pop\n      swap3\n      swap1\n      pop\n      jump\t// out\n        /* \"#utility.yul\":3360:4294   */\n    tag_19:\n        /* \"#utility.yul\":3482:3488   */\n      0x00\n        /* \"#utility.yul\":3490:3496   */\n      dup1\n        /* \"#utility.yul\":3498:3504   */\n      0x00\n        /* \"#utility.yul\":3506:3512   */\n      dup1\n        /* \"#utility.yul\":3555:3557   */\n      0x40\n        /* \"#utility.yul\":3543:3552   */\n      dup6\n        /* \"#utility.yul\":3534:3541   */\n      dup8\n        /* \"#utility.yul\":3530:3553   */\n      sub\n        /* \"#utility.yul\":3526:3558   */\n      slt\n        /* \"#utility.yul\":3523:3642   */\n      iszero\n      tag_163\n      jumpi\n        /* \"#utility.yul\":3561:3640   */\n      tag_164\n      tag_95\n      jump\t// in\n    tag_164:\n        /* \"#utility.yul\":3523:3642   */\n    tag_163:\n        /* \"#utility.yul\":3709:3710   */\n      0x00\n        /* \"#utility.yul\":3698:3707   */\n      dup6\n        /* \"#utility.yul\":3694:3711   */\n      add\n        /* \"#utility.yul\":3681:3712   */\n      calldataload\n        /* \"#utility.yul\":3739:3757   */\n      0xffffffffffffffff\n        /* \"#utility.yul\":3731:3737   */\n      dup2\n        /* \"#utility.yul\":3728:3758   */\n      gt\n        /* \"#utility.yul\":3725:3842   */\n      iszero\n      tag_165\n      jumpi\n        /* \"#utility.yul\":3761:3840   */\n      tag_166\n      tag_96\n      jump\t// in\n    tag_166:\n        /* \"#utility.yul\":3725:3842   */\n    tag_165:\n        /* \"#utility.yul\":3874:3954   */\n      tag_167\n        /* \"#utility.yul\":3946:3953   */\n      dup8\n        /* \"#utility.yul\":3937:3943   */\n      dup3\n        /* \"#utility.yul\":3926:3935   */\n      dup9\n        /* \"#utility.yul\":3922:3944   */\n      add\n        /* \"#utility.yul\":3874:3954   */\n      tag_100\n      jump\t// in\n    tag_167:\n        /* \"#utility.yul\":3856:3954   */\n      swap5\n      pop\n      swap5\n      pop\n        /* \"#utility.yul\":3652:3964   */\n      pop\n        /* \"#utility.yul\":4031:4033   */\n      0x20\n        /* \"#utility.yul\":4020:4029   */\n      dup6\n        /* \"#utility.yul\":4016:4034   */\n      add\n        /* \"#utility.yul\":4003:4035   */\n      calldataload\n        /* \"#utility.yul\":4062:4080   */\n      0xffffffffffffffff\n        /* \"#utility.yul\":4054:4060   */\n      dup2\n        /* \"#utility.yul\":4051:4081   */\n      gt\n        /* \"#utility.yul\":4048:4165   */\n      iszero\n      tag_168\n      jumpi\n        /* \"#utility.yul\":4084:4163   */\n      tag_169\n      tag_96\n      jump\t// in\n    tag_169:\n        /* \"#utility.yul\":4048:4165   */\n    tag_168:\n        /* \"#utility.yul\":4197:4277   */\n      tag_170\n        /* \"#utility.yul\":4269:4276   */\n      dup8\n        /* \"#utility.yul\":4260:4266   */\n      dup3\n        /* \"#utility.yul\":4249:4258   */\n      dup9\n        /* \"#utility.yul\":4245:4267   */\n      add\n        /* \"#utility.yul\":4197:4277   */\n      tag_101\n      jump\t// in\n    tag_170:\n        /* \"#utility.yul\":4179:4277   */\n      swap3\n      pop\n      swap3\n      pop\n        /* \"#utility.yul\":3974:4287   */\n      pop\n        /* \"#utility.yul\":3360:4294   */\n      swap3\n      swap6\n      swap2\n      swap5\n      pop\n      swap3\n      pop\n      jump\t// out\n        /* \"#utility.yul\":4300:4396   */\n    tag_102:\n        /* \"#utility.yul\":4337:4344   */\n      0x00\n        /* \"#utility.yul\":4366:4390   */\n      tag_172\n        /* \"#utility.yul\":4384:4389   */\n      dup3\n        /* \"#utility.yul\":4366:4390   */\n      tag_88\n      jump\t// in\n    tag_172:\n        /* \"#utility.yul\":4355:4390   */\n      swap1\n      pop\n        /* \"#utility.yul\":4300:4396   */\n      swap2\n      swap1\n      pop\n      jump\t// out\n        /* \"#utility.yul\":4402:4520   */\n    tag_103:\n        /* \"#utility.yul\":4489:4513   */\n      tag_174\n        /* \"#utility.yul\":4507:4512   */\n      dup2\n        /* \"#utility.yul\":4489:4513   */\n      tag_102\n      jump\t// in\n    tag_174:\n        /* \"#utility.yul\":4484:4487   */\n      dup3\n        /* \"#utility.yul\":4477:4514   */\n      mstore\n        /* \"#utility.yul\":4402:4520   */\n      pop\n      pop\n      jump\t// out\n        /* \"#utility.yul\":4526:4748   */\n    tag_27:\n        /* \"#utility.yul\":4619:4623   */\n      0x00\n        /* \"#utility.yul\":4657:4659   */\n      0x20\n        /* \"#utility.yul\":4646:4655   */\n      dup3\n        /* \"#utility.yul\":4642:4660   */\n      add\n        /* \"#utility.yul\":4634:4660   */\n      swap1\n      pop\n        /* \"#utility.yul\":4670:4741   */\n      tag_176\n        /* \"#utility.yul\":4738:4739   */\n      0x00\n        /* \"#utility.yul\":4727:4736   */\n      dup4\n        /* \"#utility.yul\":4723:4740   */\n      add\n        /* \"#utility.yul\":4714:4720   */\n      dup5\n        /* \"#utility.yul\":4670:4741   */\n      tag_103\n      jump\t// in\n    tag_176:\n        /* \"#utility.yul\":4526:4748   */\n      swap3\n      swap2\n      pop\n      pop\n      jump\t// out\n        /* \"#utility.yul\":4754:4876   */\n    tag_104:\n        /* \"#utility.yul\":4827:4851   */\n      tag_178\n        /* \"#utility.yul\":4845:4850   */\n      dup2\n        /* \"#utility.yul\":4827:4851   */\n      tag_102\n      jump\t// in\n    tag_178:\n        /* \"#utility.yul\":4820:4825   */\n      dup2\n        /* \"#utility.yul\":4817:4852   */\n      eq\n        /* \"#utility.yul\":4807:4870   */\n      tag_179\n      jumpi\n        /* \"#utility.yul\":4866:4867   */\n      0x00\n        /* \"#utility.yul\":4863:4864   */\n      dup1\n        /* \"#utility.yul\":4856:4868   */\n      revert\n        /* \"#utility.yul\":4807:4870   */\n    tag_179:\n        /* \"#utility.yul\":4754:4876   */\n      pop\n      jump\t// out\n        /* \"#utility.yul\":4882:5021   */\n    tag_105:\n        /* \"#utility.yul\":4928:4933   */\n      0x00\n        /* \"#utility.yul\":4966:4972   */\n      dup2\n        /* \"#utility.yul\":4953:4973   */\n      calldataload\n        /* \"#utility.yul\":4944:4973   */\n      swap1\n      pop\n        /* \"#utility.yul\":4982:5015   */\n      tag_181\n        /* \"#utility.yul\":5009:5014   */\n      dup2\n        /* \"#utility.yul\":4982:5015   */\n      tag_104\n      jump\t// in\n    tag_181:\n        /* \"#utility.yul\":4882:5021   */\n      swap3\n      swap2\n      pop\n      pop\n      jump\t// out\n        /* \"#utility.yul\":5027:5149   */\n    tag_106:\n        /* \"#utility.yul\":5100:5124   */\n      tag_183\n        /* \"#utility.yul\":5118:5123   */\n      dup2\n        /* \"#utility.yul\":5100:5124   */\n      tag_86\n      jump\t// in\n    tag_183:\n        /* \"#utility.yul\":5093:5098   */\n      dup2\n        /* \"#utility.yul\":5090:5125   */\n      eq\n        /* \"#utility.yul\":5080:5143   */\n      tag_184\n      jumpi\n        /* \"#utility.yul\":5139:5140   */\n      0x00\n        /* \"#utility.yul\":5136:5137   */\n      dup1\n        /* \"#utility.yul\":5129:5141   */\n      revert\n        /* \"#utility.yul\":5080:5143   */\n    tag_184:\n        /* \"#utility.yul\":5027:5149   */\n      pop\n      jump\t// out\n        /* \"#utility.yul\":5155:5294   */\n    tag_107:\n        /* \"#utility.yul\":5201:5206   */\n      0x00\n        /* \"#utility.yul\":5239:5245   */\n      dup2\n        /* \"#utility.yul\":5226:5246   */\n      calldataload\n        /* \"#utility.yul\":5217:5246   */\n      swap1\n      pop\n        /* \"#utility.yul\":5255:5288   */\n      tag_186\n        /* \"#utility.yul\":5282:5287   */\n      dup2\n        /* \"#utility.yul\":5255:5288   */\n      tag_106\n      jump\t// in\n    tag_186:\n        /* \"#utility.yul\":5155:5294   */\n      swap3\n      swap2\n      pop\n      pop\n      jump\t// out\n        /* \"#utility.yul\":5300:5774   */\n    tag_30:\n        /* \"#utility.yul\":5368:5374   */\n      0x00\n        /* \"#utility.yul\":5376:5382   */\n      dup1\n        /* \"#utility.yul\":5425:5427   */\n      0x40\n        /* \"#utility.yul\":5413:5422   */\n      dup4\n        /* \"#utility.yul\":5404:5411   */\n      dup6\n        /* \"#utility.yul\":5400:5423   */\n      sub\n        /* \"#utility.yul\":5396:5428   */\n      slt\n        /* \"#utility.yul\":5393:5512   */\n      iszero\n      tag_188\n      jumpi\n        /* \"#utility.yul\":5431:5510   */\n      tag_189\n      tag_95\n      jump\t// in\n    tag_189:\n        /* \"#utility.yul\":5393:5512   */\n    tag_188:\n        /* \"#utility.yul\":5551:5552   */\n      0x00\n        /* \"#utility.yul\":5576:5629   */\n      tag_190\n        /* \"#utility.yul\":5621:5628   */\n      dup6\n        /* \"#utility.yul\":5612:5618   */\n      dup3\n        /* \"#utility.yul\":5601:5610   */\n      dup7\n        /* \"#utility.yul\":5597:5619   */\n      add\n        /* \"#utility.yul\":5576:5629   */\n      tag_105\n      jump\t// in\n    tag_190:\n        /* \"#utility.yul\":5566:5629   */\n      swap3\n      pop\n        /* \"#utility.yul\":5522:5639   */\n      pop\n        /* \"#utility.yul\":5678:5680   */\n      0x20\n        /* \"#utility.yul\":5704:5757   */\n      tag_191\n        /* \"#utility.yul\":5749:5756   */\n      dup6\n        /* \"#utility.yul\":5740:5746   */\n      dup3\n        /* \"#utility.yul\":5729:5738   */\n      dup7\n        /* \"#utility.yul\":5725:5747   */\n      add\n        /* \"#utility.yul\":5704:5757   */\n      tag_107\n      jump\t// in\n    tag_191:\n        /* \"#utility.yul\":5694:5757   */\n      swap2\n      pop\n        /* \"#utility.yul\":5649:5767   */\n      pop\n        /* \"#utility.yul\":5300:5774   */\n      swap3\n      pop\n      swap3\n      swap1\n      pop\n      jump\t// out\n        /* \"#utility.yul\":5780:6112   */\n    tag_35:\n        /* \"#utility.yul\":5901:5905   */\n      0x00\n        /* \"#utility.yul\":5939:5941   */\n      0x40\n        /* \"#utility.yul\":5928:5937   */\n      dup3\n        /* \"#utility.yul\":5924:5942   */\n      add\n        /* \"#utility.yul\":5916:5942   */\n      swap1\n      pop\n        /* \"#utility.yul\":5952:6023   */\n      tag_193\n        /* \"#utility.yul\":6020:6021   */\n      0x00\n        /* \"#utility.yul\":6009:6018   */\n      dup4\n        /* \"#utility.yul\":6005:6022   */\n      add\n        /* \"#utility.yul\":5996:6002   */\n      dup6\n        /* \"#utility.yul\":5952:6023   */\n      tag_103\n      jump\t// in\n    tag_193:\n        /* \"#utility.yul\":6033:6105   */\n      tag_194\n        /* \"#utility.yul\":6101:6103   */\n      0x20\n        /* \"#utility.yul\":6090:6099   */\n      dup4\n        /* \"#utility.yul\":6086:6104   */\n      add\n        /* \"#utility.yul\":6077:6083   */\n      dup5\n        /* \"#utility.yul\":6033:6105   */\n      tag_87\n      jump\t// in\n    tag_194:\n        /* \"#utility.yul\":5780:6112   */\n      swap4\n      swap3\n      pop\n      pop\n      pop\n      jump\t// out\n        /* \"#utility.yul\":6118:6208   */\n    tag_108:\n        /* \"#utility.yul\":6152:6159   */\n      0x00\n        /* \"#utility.yul\":6195:6200   */\n      dup2\n        /* \"#utility.yul\":6188:6201   */\n      iszero\n        /* \"#utility.yul\":6181:6202   */\n      iszero\n        /* \"#utility.yul\":6170:6202   */\n      swap1\n      pop\n        /* \"#utility.yul\":6118:6208   */\n      swap2\n      swap1\n      pop\n      jump\t// out\n        /* \"#utility.yul\":6214:6330   */\n    tag_109:\n        /* \"#utility.yul\":6284:6305   */\n      tag_197\n        /* \"#utility.yul\":6299:6304   */\n      dup2\n        /* \"#utility.yul\":6284:6305   */\n      tag_108\n      jump\t// in\n    tag_197:\n        /* \"#utility.yul\":6277:6282   */\n      dup2\n        /* \"#utility.yul\":6274:6306   */\n      eq\n        /* \"#utility.yul\":6264:6324   */\n      tag_198\n      jumpi\n        /* \"#utility.yul\":6320:6321   */\n      0x00\n        /* \"#utility.yul\":6317:6318   */\n      dup1\n        /* \"#utility.yul\":6310:6322   */\n      revert\n        /* \"#utility.yul\":6264:6324   */\n    tag_198:\n        /* \"#utility.yul\":6214:6330   */\n      pop\n      jump\t// out\n        /* \"#utility.yul\":6336:6473   */\n    tag_110:\n        /* \"#utility.yul\":6390:6395   */\n      0x00\n        /* \"#utility.yul\":6421:6427   */\n      dup2\n        /* \"#utility.yul\":6415:6428   */\n      mload\n        /* \"#utility.yul\":6406:6428   */\n      swap1\n      pop\n        /* \"#utility.yul\":6437:6467   */\n      tag_200\n        /* \"#utility.yul\":6461:6466   */\n      dup2\n        /* \"#utility.yul\":6437:6467   */\n      tag_109\n      jump\t// in\n    tag_200:\n        /* \"#utility.yul\":6336:6473   */\n      swap3\n      swap2\n      pop\n      pop\n      jump\t// out\n        /* \"#utility.yul\":6479:6824   */\n    tag_39:\n        /* \"#utility.yul\":6546:6552   */\n      0x00\n        /* \"#utility.yul\":6595:6597   */\n      0x20\n        /* \"#utility.yul\":6583:6592   */\n      dup3\n        /* \"#utility.yul\":6574:6581   */\n      dup5\n        /* \"#utility.yul\":6570:6593   */\n      sub\n        /* \"#utility.yul\":6566:6598   */\n      slt\n        /* \"#utility.yul\":6563:6682   */\n      iszero\n      tag_202\n      jumpi\n        /* \"#utility.yul\":6601:6680   */\n      tag_203\n      tag_95\n      jump\t// in\n    tag_203:\n        /* \"#utility.yul\":6563:6682   */\n    tag_202:\n        /* \"#utility.yul\":6721:6722   */\n      0x00\n        /* \"#utility.yul\":6746:6807   */\n      tag_204\n        /* \"#utility.yul\":6799:6806   */\n      dup5\n        /* \"#utility.yul\":6790:6796   */\n      dup3\n        /* \"#utility.yul\":6779:6788   */\n      dup6\n        /* \"#utility.yul\":6775:6797   */\n      add\n        /* \"#utility.yul\":6746:6807   */\n      tag_110\n      jump\t// in\n    tag_204:\n        /* \"#utility.yul\":6736:6807   */\n      swap2\n      pop\n        /* \"#utility.yul\":6692:6817   */\n      pop\n        /* \"#utility.yul\":6479:6824   */\n      swap3\n      swap2\n      pop\n      pop\n      jump\t// out\n        /* \"#utility.yul\":6830:6999   */\n    tag_111:\n        /* \"#utility.yul\":6914:6925   */\n      0x00\n        /* \"#utility.yul\":6948:6954   */\n      dup3\n        /* \"#utility.yul\":6943:6946   */\n      dup3\n        /* \"#utility.yul\":6936:6955   */\n      mstore\n        /* \"#utility.yul\":6988:6992   */\n      0x20\n        /* \"#utility.yul\":6983:6986   */\n      dup3\n        /* \"#utility.yul\":6979:6993   */\n      add\n        /* \"#utility.yul\":6964:6993   */\n      swap1\n      pop\n        /* \"#utility.yul\":6830:6999   */\n      swap3\n      swap2\n      pop\n      pop\n      jump\t// out\n        /* \"#utility.yul\":7005:7176   */\n    tag_112:\n        /* \"#utility.yul\":7145:7168   */\n      0x4f6e6c79206f776e65722063616e206163636573730000000000000000000000\n        /* \"#utility.yul\":7141:7142   */\n      0x00\n        /* \"#utility.yul\":7133:7139   */\n      dup3\n        /* \"#utility.yul\":7129:7143   */\n      add\n        /* \"#utility.yul\":7122:7169   */\n      mstore\n        /* \"#utility.yul\":7005:7176   */\n      pop\n      jump\t// out\n        /* \"#utility.yul\":7182:7548   */\n    tag_113:\n        /* \"#utility.yul\":7324:7327   */\n      0x00\n        /* \"#utility.yul\":7345:7412   */\n      tag_208\n        /* \"#utility.yul\":7409:7411   */\n      0x15\n        /* \"#utility.yul\":7404:7407   */\n      dup4\n        /* \"#utility.yul\":7345:7412   */\n      tag_111\n      jump\t// in\n    tag_208:\n        /* \"#utility.yul\":7338:7412   */\n      swap2\n      pop\n        /* \"#utility.yul\":7421:7514   */\n      tag_209\n        /* \"#utility.yul\":7510:7513   */\n      dup3\n        /* \"#utility.yul\":7421:7514   */\n      tag_112\n      jump\t// in\n    tag_209:\n        /* \"#utility.yul\":7539:7541   */\n      0x20\n        /* \"#utility.yul\":7534:7537   */\n      dup3\n        /* \"#utility.yul\":7530:7542   */\n      add\n        /* \"#utility.yul\":7523:7542   */\n      swap1\n      pop\n        /* \"#utility.yul\":7182:7548   */\n      swap2\n      swap1\n      pop\n      jump\t// out\n        /* \"#utility.yul\":7554:7973   */\n    tag_43:\n        /* \"#utility.yul\":7720:7724   */\n      0x00\n        /* \"#utility.yul\":7758:7760   */\n      0x20\n        /* \"#utility.yul\":7747:7756   */\n      dup3\n        /* \"#utility.yul\":7743:7761   */\n      add\n        /* \"#utility.yul\":7735:7761   */\n      swap1\n      pop\n        /* \"#utility.yul\":7807:7816   */\n      dup2\n        /* \"#utility.yul\":7801:7805   */\n      dup2\n        /* \"#utility.yul\":7797:7817   */\n      sub\n        /* \"#utility.yul\":7793:7794   */\n      0x00\n        /* \"#utility.yul\":7782:7791   */\n      dup4\n        /* \"#utility.yul\":7778:7795   */\n      add\n        /* \"#utility.yul\":7771:7818   */\n      mstore\n        /* \"#utility.yul\":7835:7966   */\n      tag_211\n        /* \"#utility.yul\":7961:7965   */\n      dup2\n        /* \"#utility.yul\":7835:7966   */\n      tag_113\n      jump\t// in\n    tag_211:\n        /* \"#utility.yul\":7827:7966   */\n      swap1\n      pop\n        /* \"#utility.yul\":7554:7973   */\n      swap2\n      swap1\n      pop\n      jump\t// out\n        /* \"#utility.yul\":7979:8152   */\n    tag_114:\n        /* \"#utility.yul\":8119:8144   */\n      0x4d69736d617463686564206172726179206c656e746873000000000000000000\n        /* \"#utility.yul\":8115:8116   */\n      0x00\n        /* \"#utility.yul\":8107:8113   */\n      dup3\n        /* \"#utility.yul\":8103:8117   */\n      add\n        /* \"#utility.yul\":8096:8145   */\n      mstore\n        /* \"#utility.yul\":7979:8152   */\n      pop\n      jump\t// out\n        /* \"#utility.yul\":8158:8524   */\n    tag_115:\n        /* \"#utility.yul\":8300:8303   */\n      0x00\n        /* \"#utility.yul\":8321:8388   */\n      tag_214\n        /* \"#utility.yul\":8385:8387   */\n      0x17\n        /* \"#utility.yul\":8380:8383   */\n      dup4\n        /* \"#utility.yul\":8321:8388   */\n      tag_111\n      jump\t// in\n    tag_214:\n        /* \"#utility.yul\":8314:8388   */\n      swap2\n      pop\n        /* \"#utility.yul\":8397:8490   */\n      tag_215\n        /* \"#utility.yul\":8486:8489   */\n      dup3\n        /* \"#utility.yul\":8397:8490   */\n      tag_114\n      jump\t// in\n    tag_215:\n        /* \"#utility.yul\":8515:8517   */\n      0x20\n        /* \"#utility.yul\":8510:8513   */\n      dup3\n        /* \"#utility.yul\":8506:8518   */\n      add\n        /* \"#utility.yul\":8499:8518   */\n      swap1\n      pop\n        /* \"#utility.yul\":8158:8524   */\n      swap2\n      swap1\n      pop\n      jump\t// out\n        /* \"#utility.yul\":8530:8949   */\n    tag_47:\n        /* \"#utility.yul\":8696:8700   */\n      0x00\n        /* \"#utility.yul\":8734:8736   */\n      0x20\n        /* \"#utility.yul\":8723:8732   */\n      dup3\n        /* \"#utility.yul\":8719:8737   */\n      add\n        /* \"#utility.yul\":8711:8737   */\n      swap1\n      pop\n        /* \"#utility.yul\":8783:8792   */\n      dup2\n        /* \"#utility.yul\":8777:8781   */\n      dup2\n        /* \"#utility.yul\":8773:8793   */\n      sub\n        /* \"#utility.yul\":8769:8770   */\n      0x00\n        /* \"#utility.yul\":8758:8767   */\n      dup4\n        /* \"#utility.yul\":8754:8771   */\n      add\n        /* \"#utility.yul\":8747:8794   */\n      mstore\n        /* \"#utility.yul\":8811:8942   */\n      tag_217\n        /* \"#utility.yul\":8937:8941   */\n      dup2\n        /* \"#utility.yul\":8811:8942   */\n      tag_115\n      jump\t// in\n    tag_217:\n        /* \"#utility.yul\":8803:8942   */\n      swap1\n      pop\n        /* \"#utility.yul\":8530:8949   */\n      swap2\n      swap1\n      pop\n      jump\t// out\n        /* \"#utility.yul\":8955:9135   */\n    tag_53:\n        /* \"#utility.yul\":9003:9080   */\n      0x4e487b7100000000000000000000000000000000000000000000000000000000\n        /* \"#utility.yul\":9000:9001   */\n      0x00\n        /* \"#utility.yul\":8993:9081   */\n      mstore\n        /* \"#utility.yul\":9100:9104   */\n      0x32\n        /* \"#utility.yul\":9097:9098   */\n      0x04\n        /* \"#utility.yul\":9090:9105   */\n      mstore\n        /* \"#utility.yul\":9124:9128   */\n      0x24\n        /* \"#utility.yul\":9121:9122   */\n      0x00\n        /* \"#utility.yul\":9114:9129   */\n      revert\n        /* \"#utility.yul\":9141:9470   */\n    tag_55:\n        /* \"#utility.yul\":9200:9206   */\n      0x00\n        /* \"#utility.yul\":9249:9251   */\n      0x20\n        /* \"#utility.yul\":9237:9246   */\n      dup3\n        /* \"#utility.yul\":9228:9235   */\n      dup5\n        /* \"#utility.yul\":9224:9247   */\n      sub\n        /* \"#utility.yul\":9220:9252   */\n      slt\n        /* \"#utility.yul\":9217:9336   */\n      iszero\n      tag_220\n      jumpi\n        /* \"#utility.yul\":9255:9334   */\n      tag_221\n      tag_95\n      jump\t// in\n    tag_221:\n        /* \"#utility.yul\":9217:9336   */\n    tag_220:\n        /* \"#utility.yul\":9375:9376   */\n      0x00\n        /* \"#utility.yul\":9400:9453   */\n      tag_222\n        /* \"#utility.yul\":9445:9452   */\n      dup5\n        /* \"#utility.yul\":9436:9442   */\n      dup3\n        /* \"#utility.yul\":9425:9434   */\n      dup6\n        /* \"#utility.yul\":9421:9443   */\n      add\n        /* \"#utility.yul\":9400:9453   */\n      tag_105\n      jump\t// in\n    tag_222:\n        /* \"#utility.yul\":9390:9453   */\n      swap2\n      pop\n        /* \"#utility.yul\":9346:9463   */\n      pop\n        /* \"#utility.yul\":9141:9470   */\n      swap3\n      swap2\n      pop\n      pop\n      jump\t// out\n        /* \"#utility.yul\":9476:9641   */\n    tag_116:\n        /* \"#utility.yul\":9616:9633   */\n      0x5472616e73666572206661696c65640000000000000000000000000000000000\n        /* \"#utility.yul\":9612:9613   */\n      0x00\n        /* \"#utility.yul\":9604:9610   */\n      dup3\n        /* \"#utility.yul\":9600:9614   */\n      add\n        /* \"#utility.yul\":9593:9634   */\n      mstore\n        /* \"#utility.yul\":9476:9641   */\n      pop\n      jump\t// out\n        /* \"#utility.yul\":9647:10013   */\n    tag_117:\n        /* \"#utility.yul\":9789:9792   */\n      0x00\n        /* \"#utility.yul\":9810:9877   */\n      tag_225\n        /* \"#utility.yul\":9874:9876   */\n      0x0f\n        /* \"#utility.yul\":9869:9872   */\n      dup4\n        /* \"#utility.yul\":9810:9877   */\n      tag_111\n      jump\t// in\n    tag_225:\n        /* \"#utility.yul\":9803:9877   */\n      swap2\n      pop\n        /* \"#utility.yul\":9886:9979   */\n      tag_226\n        /* \"#utility.yul\":9975:9978   */\n      dup3\n        /* \"#utility.yul\":9886:9979   */\n      tag_116\n      jump\t// in\n    tag_226:\n        /* \"#utility.yul\":10004:10006   */\n      0x20\n        /* \"#utility.yul\":9999:10002   */\n      dup3\n        /* \"#utility.yul\":9995:10007   */\n      add\n        /* \"#utility.yul\":9988:10007   */\n      swap1\n      pop\n        /* \"#utility.yul\":9647:10013   */\n      swap2\n      swap1\n      pop\n      jump\t// out\n        /* \"#utility.yul\":10019:10438   */\n    tag_64:\n        /* \"#utility.yul\":10185:10189   */\n      0x00\n        /* \"#utility.yul\":10223:10225   */\n      0x20\n        /* \"#utility.yul\":10212:10221   */\n      dup3\n        /* \"#utility.yul\":10208:10226   */\n      add\n        /* \"#utility.yul\":10200:10226   */\n      swap1\n      pop\n        /* \"#utility.yul\":10272:10281   */\n      dup2\n        /* \"#utility.yul\":10266:10270   */\n      dup2\n        /* \"#utility.yul\":10262:10282   */\n      sub\n        /* \"#utility.yul\":10258:10259   */\n      0x00\n        /* \"#utility.yul\":10247:10256   */\n      dup4\n        /* \"#utility.yul\":10243:10260   */\n      add\n        /* \"#utility.yul\":10236:10283   */\n      mstore\n        /* \"#utility.yul\":10300:10431   */\n      tag_228\n        /* \"#utility.yul\":10426:10430   */\n      dup2\n        /* \"#utility.yul\":10300:10431   */\n      tag_117\n      jump\t// in\n    tag_228:\n        /* \"#utility.yul\":10292:10431   */\n      swap1\n      pop\n        /* \"#utility.yul\":10019:10438   */\n      swap2\n      swap1\n      pop\n      jump\t// out\n        /* \"#utility.yul\":10444:10624   */\n    tag_118:\n        /* \"#utility.yul\":10492:10569   */\n      0x4e487b7100000000000000000000000000000000000000000000000000000000\n        /* \"#utility.yul\":10489:10490   */\n      0x00\n        /* \"#utility.yul\":10482:10570   */\n      mstore\n        /* \"#utility.yul\":10589:10593   */\n      0x11\n        /* \"#utility.yul\":10586:10587   */\n      0x04\n        /* \"#utility.yul\":10579:10594   */\n      mstore\n        /* \"#utility.yul\":10613:10617   */\n      0x24\n        /* \"#utility.yul\":10610:10611   */\n      0x00\n        /* \"#utility.yul\":10603:10618   */\n      revert\n        /* \"#utility.yul\":10630:10824   */\n    tag_72:\n        /* \"#utility.yul\":10670:10674   */\n      0x00\n        /* \"#utility.yul\":10690:10710   */\n      tag_231\n        /* \"#utility.yul\":10708:10709   */\n      dup3\n        /* \"#utility.yul\":10690:10710   */\n      tag_86\n      jump\t// in\n    tag_231:\n        /* \"#utility.yul\":10685:10710   */\n      swap2\n      pop\n        /* \"#utility.yul\":10724:10744   */\n      tag_232\n        /* \"#utility.yul\":10742:10743   */\n      dup4\n        /* \"#utility.yul\":10724:10744   */\n      tag_86\n      jump\t// in\n    tag_232:\n        /* \"#utility.yul\":10719:10744   */\n      swap3\n      pop\n        /* \"#utility.yul\":10768:10769   */\n      dup3\n        /* \"#utility.yul\":10765:10766   */\n      dup3\n        /* \"#utility.yul\":10761:10770   */\n      sub\n        /* \"#utility.yul\":10753:10770   */\n      swap1\n      pop\n        /* \"#utility.yul\":10792:10793   */\n      dup2\n        /* \"#utility.yul\":10786:10790   */\n      dup2\n        /* \"#utility.yul\":10783:10794   */\n      gt\n        /* \"#utility.yul\":10780:10817   */\n      iszero\n      tag_233\n      jumpi\n        /* \"#utility.yul\":10797:10815   */\n      tag_234\n      tag_118\n      jump\t// in\n    tag_234:\n        /* \"#utility.yul\":10780:10817   */\n    tag_233:\n        /* \"#utility.yul\":10630:10824   */\n      swap3\n      swap2\n      pop\n      pop\n      jump\t// out\n        /* \"#utility.yul\":10830:11021   */\n    tag_74:\n        /* \"#utility.yul\":10870:10873   */\n      0x00\n        /* \"#utility.yul\":10889:10909   */\n      tag_236\n        /* \"#utility.yul\":10907:10908   */\n      dup3\n        /* \"#utility.yul\":10889:10909   */\n      tag_86\n      jump\t// in\n    tag_236:\n        /* \"#utility.yul\":10884:10909   */\n      swap2\n      pop\n        /* \"#utility.yul\":10923:10943   */\n      tag_237\n        /* \"#utility.yul\":10941:10942   */\n      dup4\n        /* \"#utility.yul\":10923:10943   */\n      tag_86\n      jump\t// in\n    tag_237:\n        /* \"#utility.yul\":10918:10943   */\n      swap3\n      pop\n        /* \"#utility.yul\":10966:10967   */\n      dup3\n        /* \"#utility.yul\":10963:10964   */\n      dup3\n        /* \"#utility.yul\":10959:10968   */\n      add\n        /* \"#utility.yul\":10952:10968   */\n      swap1\n      pop\n        /* \"#utility.yul\":10987:10990   */\n      dup1\n        /* \"#utility.yul\":10984:10985   */\n      dup3\n        /* \"#utility.yul\":10981:10991   */\n      gt\n        /* \"#utility.yul\":10978:11014   */\n      iszero\n      tag_238\n      jumpi\n        /* \"#utility.yul\":10994:11012   */\n      tag_239\n      tag_118\n      jump\t// in\n    tag_239:\n        /* \"#utility.yul\":10978:11014   */\n    tag_238:\n        /* \"#utility.yul\":10830:11021   */\n      swap3\n      swap2\n      pop\n      pop\n      jump\t// out\n        /* \"#utility.yul\":11027:11170   */\n    tag_119:\n        /* \"#utility.yul\":11084:11089   */\n      0x00\n        /* \"#utility.yul\":11115:11121   */\n      dup2\n        /* \"#utility.yul\":11109:11122   */\n      mload\n        /* \"#utility.yul\":11100:11122   */\n      swap1\n      pop\n        /* \"#utility.yul\":11131:11164   */\n      tag_241\n        /* \"#utility.yul\":11158:11163   */\n      dup2\n        /* \"#utility.yul\":11131:11164   */\n      tag_106\n      jump\t// in\n    tag_241:\n        /* \"#utility.yul\":11027:11170   */\n      swap3\n      swap2\n      pop\n      pop\n      jump\t// out\n        /* \"#utility.yul\":11176:11527   */\n    tag_79:\n        /* \"#utility.yul\":11246:11252   */\n      0x00\n        /* \"#utility.yul\":11295:11297   */\n      0x20\n        /* \"#utility.yul\":11283:11292   */\n      dup3\n        /* \"#utility.yul\":11274:11281   */\n      dup5\n        /* \"#utility.yul\":11270:11293   */\n      sub\n        /* \"#utility.yul\":11266:11298   */\n      slt\n        /* \"#utility.yul\":11263:11382   */\n      iszero\n      tag_243\n      jumpi\n        /* \"#utility.yul\":11301:11380   */\n      tag_244\n      tag_95\n      jump\t// in\n    tag_244:\n        /* \"#utility.yul\":11263:11382   */\n    tag_243:\n        /* \"#utility.yul\":11421:11422   */\n      0x00\n        /* \"#utility.yul\":11446:11510   */\n      tag_245\n        /* \"#utility.yul\":11502:11509   */\n      dup5\n        /* \"#utility.yul\":11493:11499   */\n      dup3\n        /* \"#utility.yul\":11482:11491   */\n      dup6\n        /* \"#utility.yul\":11478:11500   */\n      add\n        /* \"#utility.yul\":11446:11510   */\n      tag_119\n      jump\t// in\n    tag_245:\n        /* \"#utility.yul\":11436:11510   */\n      swap2\n      pop\n        /* \"#utility.yul\":11392:11520   */\n      pop\n        /* \"#utility.yul\":11176:11527   */\n      swap3\n      swap2\n      pop\n      pop\n      jump\t// out\n        /* \"#utility.yul\":11533:11709   */\n    tag_120:\n        /* \"#utility.yul\":11673:11701   */\n      0x546f6b656e2062616c616e636520696e73756666696369656e74000000000000\n        /* \"#utility.yul\":11669:11670   */\n      0x00\n        /* \"#utility.yul\":11661:11667   */\n      dup3\n        /* \"#utility.yul\":11657:11671   */\n      add\n        /* \"#utility.yul\":11650:11702   */\n      mstore\n        /* \"#utility.yul\":11533:11709   */\n      pop\n      jump\t// out\n        /* \"#utility.yul\":11715:12081   */\n    tag_121:\n        /* \"#utility.yul\":11857:11860   */\n      0x00\n        /* \"#utility.yul\":11878:11945   */\n      tag_248\n        /* \"#utility.yul\":11942:11944   */\n      0x1a\n        /* \"#utility.yul\":11937:11940   */\n      dup4\n        /* \"#utility.yul\":11878:11945   */\n      tag_111\n      jump\t// in\n    tag_248:\n        /* \"#utility.yul\":11871:11945   */\n      swap2\n      pop\n        /* \"#utility.yul\":11954:12047   */\n      tag_249\n        /* \"#utility.yul\":12043:12046   */\n      dup3\n        /* \"#utility.yul\":11954:12047   */\n      tag_120\n      jump\t// in\n    tag_249:\n        /* \"#utility.yul\":12072:12074   */\n      0x20\n        /* \"#utility.yul\":12067:12070   */\n      dup3\n        /* \"#utility.yul\":12063:12075   */\n      add\n        /* \"#utility.yul\":12056:12075   */\n      swap1\n      pop\n        /* \"#utility.yul\":11715:12081   */\n      swap2\n      swap1\n      pop\n      jump\t// out\n        /* \"#utility.yul\":12087:12506   */\n    tag_82:\n        /* \"#utility.yul\":12253:12257   */\n      0x00\n        /* \"#utility.yul\":12291:12293   */\n      0x20\n        /* \"#utility.yul\":12280:12289   */\n      dup3\n        /* \"#utility.yul\":12276:12294   */\n      add\n        /* \"#utility.yul\":12268:12294   */\n      swap1\n      pop\n        /* \"#utility.yul\":12340:12349   */\n      dup2\n        /* \"#utility.yul\":12334:12338   */\n      dup2\n        /* \"#utility.yul\":12330:12350   */\n      sub\n        /* \"#utility.yul\":12326:12327   */\n      0x00\n        /* \"#utility.yul\":12315:12324   */\n      dup4\n        /* \"#utility.yul\":12311:12328   */\n      add\n        /* \"#utility.yul\":12304:12351   */\n      mstore\n        /* \"#utility.yul\":12368:12499   */\n      tag_251\n        /* \"#utility.yul\":12494:12498   */\n      dup2\n        /* \"#utility.yul\":12368:12499   */\n      tag_121\n      jump\t// in\n    tag_251:\n        /* \"#utility.yul\":12360:12499   */\n      swap1\n      pop\n        /* \"#utility.yul\":12087:12506   */\n      swap2\n      swap1\n      pop\n      jump\t// out\n\n    auxdata: 0xa2646970667358221220403ebc1b3d191717ccf9a0195b1e6d999997954ab324b55c430064ba23c6aed664736f6c634300081a0033\n}\n",
				"bytecode": {
					"linkReferences": {},
					"object": "60a060405234801561000f575f80fd5b50604051610f6b380380610f6b83398181016040528101906100319190610119565b335f806101000a81548173ffffffffffffffffffffffffffffffffffffffff021916908373ffffffffffffffffffffffffffffffffffffffff1602179055508073ffffffffffffffffffffffffffffffffffffffff1660808173ffffffffffffffffffffffffffffffffffffffff168152505050610144565b5f80fd5b5f73ffffffffffffffffffffffffffffffffffffffff82169050919050565b5f6100d7826100ae565b9050919050565b5f6100e8826100cd565b9050919050565b6100f8816100de565b8114610102575f80fd5b50565b5f81519050610113816100ef565b92915050565b5f6020828403121561012e5761012d6100aa565b5b5f61013b84828501610105565b91505092915050565b608051610dfa6101715f395f81816101a2015281816102460152818161034c015261060c0152610dfa5ff3fe608060405234801561000f575f80fd5b5060043610610060575f3560e01c80634e71d92d1461006457806355a373d614610082578063706f6937146100a0578063830953ab146100bc5780638da5cb5b146100da578063dc307b63146100f8575b5f80fd5b61006c610114565b60405161007991906107b0565b60405180910390f35b61008a610244565b6040516100979190610843565b60405180910390f35b6100ba60048036038101906100b5919061091a565b610268565b005b6100c4610478565b6040516100d191906107b0565b60405180910390f35b6100e26104bc565b6040516100ef91906109b8565b60405180910390f35b610112600480360381019061010d9190610a25565b6104df565b005b5f8060025f3373ffffffffffffffffffffffffffffffffffffffff1673ffffffffffffffffffffffffffffffffffffffff1681526020019081526020015f205490505f81111561023d575f60025f3373ffffffffffffffffffffffffffffffffffffffff1673ffffffffffffffffffffffffffffffffffffffff1681526020019081526020015f20819055507f000000000000000000000000000000000000000000000000000000000000000073ffffffffffffffffffffffffffffffffffffffff1663a9059cbb33836040518363ffffffff1660e01b81526004016101fb929190610a63565b6020604051808303815f875af1158015610217573d5f803e3d5ffd5b505050506040513d601f19601f8201168201806040525081019061023b9190610abf565b505b8091505090565b7f000000000000000000000000000000000000000000000000000000000000000081565b5f8054906101000a900473ffffffffffffffffffffffffffffffffffffffff1673ffffffffffffffffffffffffffffffffffffffff163373ffffffffffffffffffffffffffffffffffffffff16146102f5576040517f08c379a00000000000000000000000000000000000000000000000000000000081526004016102ec90610b44565b60405180910390fd5b81819050848490501461033d576040517f08c379a000000000000000000000000000000000000000000000000000000000815260040161033490610bac565b60405180910390fd5b5f5b84849050811015610471577f000000000000000000000000000000000000000000000000000000000000000073ffffffffffffffffffffffffffffffffffffffff1663a9059cbb86868481811061039957610398610bca565b5b90506020020160208101906103ae9190610bf7565b8585858181106103c1576103c0610bca565b5b905060200201356040518363ffffffff1660e01b81526004016103e5929190610a63565b6020604051808303815f875af1158015610401573d5f803e3d5ffd5b505050506040513d601f19601f820116820180604052508101906104259190610abf565b610464576040517f08c379a000000000000000000000000000000000000000000000000000000000815260040161045b90610c6c565b60405180910390fd5b808060010191505061033f565b5050505050565b5f60025f3373ffffffffffffffffffffffffffffffffffffffff1673ffffffffffffffffffffffffffffffffffffffff1681526020019081526020015f2054905090565b5f8054906101000a900473ffffffffffffffffffffffffffffffffffffffff1681565b5f8054906101000a900473ffffffffffffffffffffffffffffffffffffffff1673ffffffffffffffffffffffffffffffffffffffff163373ffffffffffffffffffffffffffffffffffffffff161461056c576040517f08c379a000000000000000000000000000000000000000000000000000000000815260040161056390610b44565b60405180910390fd5b60025f8373ffffffffffffffffffffffffffffffffffffffff1673ffffffffffffffffffffffffffffffffffffffff1681526020019081526020015f20548111156106f1575f60025f8473ffffffffffffffffffffffffffffffffffffffff1673ffffffffffffffffffffffffffffffffffffffff1681526020019081526020015f2054826105fb9190610cb7565b6001546106089190610cea565b90507f000000000000000000000000000000000000000000000000000000000000000073ffffffffffffffffffffffffffffffffffffffff166370a08231306040518263ffffffff1660e01b815260040161066391906109b8565b602060405180830381865afa15801561067e573d5f803e3d5ffd5b505050506040513d601f19601f820116820180604052508101906106a29190610d31565b8111156106e4576040517f08c379a00000000000000000000000000000000000000000000000000000000081526004016106db90610da6565b60405180910390fd5b8060018190555050610752565b8060025f8473ffffffffffffffffffffffffffffffffffffffff1673ffffffffffffffffffffffffffffffffffffffff1681526020019081526020015f205461073a9190610cb7565b60015f82825461074a9190610cb7565b925050819055505b8060025f8473ffffffffffffffffffffffffffffffffffffffff1673ffffffffffffffffffffffffffffffffffffffff1681526020019081526020015f20819055505050565b5f819050919050565b6107aa81610798565b82525050565b5f6020820190506107c35f8301846107a1565b92915050565b5f73ffffffffffffffffffffffffffffffffffffffff82169050919050565b5f819050919050565b5f61080b610806610801846107c9565b6107e8565b6107c9565b9050919050565b5f61081c826107f1565b9050919050565b5f61082d82610812565b9050919050565b61083d81610823565b82525050565b5f6020820190506108565f830184610834565b92915050565b5f80fd5b5f80fd5b5f80fd5b5f80fd5b5f80fd5b5f8083601f84011261088557610884610864565b5b8235905067ffffffffffffffff8111156108a2576108a1610868565b5b6020830191508360208202830111156108be576108bd61086c565b5b9250929050565b5f8083601f8401126108da576108d9610864565b5b8235905067ffffffffffffffff8111156108f7576108f6610868565b5b6020830191508360208202830111156109135761091261086c565b5b9250929050565b5f805f80604085870312156109325761093161085c565b5b5f85013567ffffffffffffffff81111561094f5761094e610860565b5b61095b87828801610870565b9450945050602085013567ffffffffffffffff81111561097e5761097d610860565b5b61098a878288016108c5565b925092505092959194509250565b5f6109a2826107c9565b9050919050565b6109b281610998565b82525050565b5f6020820190506109cb5f8301846109a9565b92915050565b6109da81610998565b81146109e4575f80fd5b50565b5f813590506109f5816109d1565b92915050565b610a0481610798565b8114610a0e575f80fd5b50565b5f81359050610a1f816109fb565b92915050565b5f8060408385031215610a3b57610a3a61085c565b5b5f610a48858286016109e7565b9250506020610a5985828601610a11565b9150509250929050565b5f604082019050610a765f8301856109a9565b610a8360208301846107a1565b9392505050565b5f8115159050919050565b610a9e81610a8a565b8114610aa8575f80fd5b50565b5f81519050610ab981610a95565b92915050565b5f60208284031215610ad457610ad361085c565b5b5f610ae184828501610aab565b91505092915050565b5f82825260208201905092915050565b7f4f6e6c79206f776e65722063616e2061636365737300000000000000000000005f82015250565b5f610b2e601583610aea565b9150610b3982610afa565b602082019050919050565b5f6020820190508181035f830152610b5b81610b22565b9050919050565b7f4d69736d617463686564206172726179206c656e7468730000000000000000005f82015250565b5f610b96601783610aea565b9150610ba182610b62565b602082019050919050565b5f6020820190508181035f830152610bc381610b8a565b9050919050565b7f4e487b71000000000000000000000000000000000000000000000000000000005f52603260045260245ffd5b5f60208284031215610c0c57610c0b61085c565b5b5f610c19848285016109e7565b91505092915050565b7f5472616e73666572206661696c656400000000000000000000000000000000005f82015250565b5f610c56600f83610aea565b9150610c6182610c22565b602082019050919050565b5f6020820190508181035f830152610c8381610c4a565b9050919050565b7f4e487b71000000000000000000000000000000000000000000000000000000005f52601160045260245ffd5b5f610cc182610798565b9150610ccc83610798565b9250828203905081811115610ce457610ce3610c8a565b5b92915050565b5f610cf482610798565b9150610cff83610798565b9250828201905080821115610d1757610d16610c8a565b5b92915050565b5f81519050610d2b816109fb565b92915050565b5f60208284031215610d4657610d4561085c565b5b5f610d5384828501610d1d565b91505092915050565b7f546f6b656e2062616c616e636520696e73756666696369656e740000000000005f82015250565b5f610d90601a83610aea565b9150610d9b82610d5c565b602082019050919050565b5f6020820190508181035f830152610dbd81610d84565b905091905056fea2646970667358221220403ebc1b3d191717ccf9a0195b1e6d999997954ab324b55c430064ba23c6aed664736f6c634300081a0033",
					"opcodes": "PUSH1 0xA0 PUSH1 0x40 MSTORE CALLVALUE DUP1 ISZERO PUSH2 0xF JUMPI PUSH0 DUP1 REVERT JUMPDEST POP PUSH1 0x40 MLOAD PUSH2 0xF6B CODESIZE SUB DUP1 PUSH2 0xF6B DUP4 CODECOPY DUP2 DUP2 ADD PUSH1 0x40 MSTORE DUP2 ADD SWAP1 PUSH2 0x31 SWAP2 SWAP1 PUSH2 0x119 JUMP JUMPDEST CALLER PUSH0 DUP1 PUSH2 0x100 EXP DUP2 SLOAD DUP2 PUSH20 0xFFFFFFFFFFFFFFFFFFFFFFFFFFFFFFFFFFFFFFFF MUL NOT AND SWAP1 DUP4 PUSH20 0xFFFFFFFFFFFFFFFFFFFFFFFFFFFFFFFFFFFFFFFF AND MUL OR SWAP1 SSTORE POP DUP1 PUSH20 0xFFFFFFFFFFFFFFFFFFFFFFFFFFFFFFFFFFFFFFFF AND PUSH1 0x80 DUP2 PUSH20 0xFFFFFFFFFFFFFFFFFFFFFFFFFFFFFFFFFFFFFFFF AND DUP2 MSTORE POP POP POP PUSH2 0x144 JUMP JUMPDEST PUSH0 DUP1 REVERT JUMPDEST PUSH0 PUSH20 0xFFFFFFFFFFFFFFFFFFFFFFFFFFFFFFFFFFFFFFFF DUP3 AND SWAP1 POP SWAP2 SWAP1 POP JUMP JUMPDEST PUSH0 PUSH2 0xD7 DUP3 PUSH2 0xAE JUMP JUMPDEST SWAP1 POP SWAP2 SWAP1 POP JUMP JUMPDEST PUSH0 PUSH2 0xE8 DUP3 PUSH2 0xCD JUMP JUMPDEST SWAP1 POP SWAP2 SWAP1 POP JUMP JUMPDEST PUSH2 0xF8 DUP2 PUSH2 0xDE JUMP JUMPDEST DUP2 EQ PUSH2 0x102 JUMPI PUSH0 DUP1 REVERT JUMPDEST POP JUMP JUMPDEST PUSH0 DUP2 MLOAD SWAP1 POP PUSH2 0x113 DUP2 PUSH2 0xEF JUMP JUMPDEST SWAP3 SWAP2 POP POP JUMP JUMPDEST PUSH0 PUSH1 0x20 DUP3 DUP5 SUB SLT ISZERO PUSH2 0x12E JUMPI PUSH2 0x12D PUSH2 0xAA JUMP JUMPDEST JUMPDEST PUSH0 PUSH2 0x13B DUP5 DUP3 DUP6 ADD PUSH2 0x105 JUMP JUMPDEST SWAP2 POP POP SWAP3 SWAP2 POP POP JUMP JUMPDEST PUSH1 0x80 MLOAD PUSH2 0xDFA PUSH2 0x171 PUSH0 CODECOPY PUSH0 DUP2 DUP2 PUSH2 0x1A2 ADD MSTORE DUP2 DUP2 PUSH2 0x246 ADD MSTORE DUP2 DUP2 PUSH2 0x34C ADD MSTORE PUSH2 0x60C ADD MSTORE PUSH2 0xDFA PUSH0 RETURN INVALID PUSH1 0x80 PUSH1 0x40 MSTORE CALLVALUE DUP1 ISZERO PUSH2 0xF JUMPI PUSH0 DUP1 REVERT JUMPDEST POP PUSH1 0x4 CALLDATASIZE LT PUSH2 0x60 JUMPI PUSH0 CALLDATALOAD PUSH1 0xE0 SHR DUP1 PUSH4 0x4E71D92D EQ PUSH2 0x64 JUMPI DUP1 PUSH4 0x55A373D6 EQ PUSH2 0x82 JUMPI DUP1 PUSH4 0x706F6937 EQ PUSH2 0xA0 JUMPI DUP1 PUSH4 0x830953AB EQ PUSH2 0xBC JUMPI DUP1 PUSH4 0x8DA5CB5B EQ PUSH2 0xDA JUMPI DUP1 PUSH4 0xDC307B63 EQ PUSH2 0xF8 JUMPI JUMPDEST PUSH0 DUP1 REVERT JUMPDEST PUSH2 0x6C PUSH2 0x114 JUMP JUMPDEST PUSH1 0x40 MLOAD PUSH2 0x79 SWAP2 SWAP1 PUSH2 0x7B0 JUMP JUMPDEST PUSH1 0x40 MLOAD DUP1 SWAP2 SUB SWAP1 RETURN JUMPDEST PUSH2 0x8A PUSH2 0x244 JUMP JUMPDEST PUSH1 0x40 MLOAD PUSH2 0x97 SWAP2 SWAP1 PUSH2 0x843 JUMP JUMPDEST PUSH1 0x40 MLOAD DUP1 SWAP2 SUB SWAP1 RETURN JUMPDEST PUSH2 0xBA PUSH1 0x4 DUP1 CALLDATASIZE SUB DUP2 ADD SWAP1 PUSH2 0xB5 SWAP2 SWAP1 PUSH2 0x91A JUMP JUMPDEST PUSH2 0x268 JUMP JUMPDEST STOP JUMPDEST PUSH2 0xC4 PUSH2 0x478 JUMP JUMPDEST PUSH1 0x40 MLOAD PUSH2 0xD1 SWAP2 SWAP1 PUSH2 0x7B0 JUMP JUMPDEST PUSH1 0x40 MLOAD DUP1 SWAP2 SUB SWAP1 RETURN JUMPDEST PUSH2 0xE2 PUSH2 0x4BC JUMP JUMPDEST PUSH1 0x40 MLOAD PUSH2 0xEF SWAP2 SWAP1 PUSH2 0x9B8 JUMP JUMPDEST PUSH1 0x40 MLOAD DUP1 SWAP2 SUB SWAP1 RETURN JUMPDEST PUSH2 0x112 PUSH1 0x4 DUP1 CALLDATASIZE SUB DUP2 ADD SWAP1 PUSH2 0x10D SWAP2 SWAP1 PUSH2 0xA25 JUMP JUMPDEST PUSH2 0x4DF JUMP JUMPDEST STOP JUMPDEST PUSH0 DUP1 PUSH1 0x2 PUSH0 CALLER PUSH20 0xFFFFFFFFFFFFFFFFFFFFFFFFFFFFFFFFFFFFFFFF AND PUSH20 0xFFFFFFFFFFFFFFFFFFFFFFFFFFFFFFFFFFFFFFFF AND DUP2 MSTORE PUSH1 0x20 ADD SWAP1 DUP2 MSTORE PUSH1 0x20 ADD PUSH0 KECCAK256 SLOAD SWAP1 POP PUSH0 DUP2 GT ISZERO PUSH2 0x23D JUMPI PUSH0 PUSH1 0x2 PUSH0 CALLER PUSH20 0xFFFFFFFFFFFFFFFFFFFFFFFFFFFFFFFFFFFFFFFF AND PUSH20 0xFFFFFFFFFFFFFFFFFFFFFFFFFFFFFFFFFFFFFFFF AND DUP2 MSTORE PUSH1 0x20 ADD SWAP1 DUP2 MSTORE PUSH1 0x20 ADD PUSH0 KECCAK256 DUP2 SWAP1 SSTORE POP PUSH32 0x0 PUSH20 0xFFFFFFFFFFFFFFFFFFFFFFFFFFFFFFFFFFFFFFFF AND PUSH4 0xA9059CBB CALLER DUP4 PUSH1 0x40 MLOAD DUP4 PUSH4 0xFFFFFFFF AND PUSH1 0xE0 SHL DUP2 MSTORE PUSH1 0x4 ADD PUSH2 0x1FB SWAP3 SWAP2 SWAP1 PUSH2 0xA63 JUMP JUMPDEST PUSH1 0x20 PUSH1 0x40 MLOAD DUP1 DUP4 SUB DUP2 PUSH0 DUP8 GAS CALL ISZERO DUP1 ISZERO PUSH2 0x217 JUMPI RETURNDATASIZE PUSH0 DUP1 RETURNDATACOPY RETURNDATASIZE PUSH0 REVERT JUMPDEST POP POP POP POP PUSH1 0x40 MLOAD RETURNDATASIZE PUSH1 0x1F NOT PUSH1 0x1F DUP3 ADD AND DUP3 ADD DUP1 PUSH1 0x40 MSTORE POP DUP2 ADD SWAP1 PUSH2 0x23B SWAP2 SWAP1 PUSH2 0xABF JUMP JUMPDEST POP JUMPDEST DUP1 SWAP2 POP POP SWAP1 JUMP JUMPDEST PUSH32 0x0 DUP2 JUMP JUMPDEST PUSH0 DUP1 SLOAD SWAP1 PUSH2 0x100 EXP SWAP1 DIV PUSH20 0xFFFFFFFFFFFFFFFFFFFFFFFFFFFFFFFFFFFFFFFF AND PUSH20 0xFFFFFFFFFFFFFFFFFFFFFFFFFFFFFFFFFFFFFFFF AND CALLER PUSH20 0xFFFFFFFFFFFFFFFFFFFFFFFFFFFFFFFFFFFFFFFF AND EQ PUSH2 0x2F5 JUMPI PUSH1 0x40 MLOAD PUSH32 0x8C379A000000000000000000000000000000000000000000000000000000000 DUP2 MSTORE PUSH1 0x4 ADD PUSH2 0x2EC SWAP1 PUSH2 0xB44 JUMP JUMPDEST PUSH1 0x40 MLOAD DUP1 SWAP2 SUB SWAP1 REVERT JUMPDEST DUP2 DUP2 SWAP1 POP DUP5 DUP5 SWAP1 POP EQ PUSH2 0x33D JUMPI PUSH1 0x40 MLOAD PUSH32 0x8C379A000000000000000000000000000000000000000000000000000000000 DUP2 MSTORE PUSH1 0x4 ADD PUSH2 0x334 SWAP1 PUSH2 0xBAC JUMP JUMPDEST PUSH1 0x40 MLOAD DUP1 SWAP2 SUB SWAP1 REVERT JUMPDEST PUSH0 JUMPDEST DUP5 DUP5 SWAP1 POP DUP2 LT ISZERO PUSH2 0x471 JUMPI PUSH32 0x0 PUSH20 0xFFFFFFFFFFFFFFFFFFFFFFFFFFFFFFFFFFFFFFFF AND PUSH4 0xA9059CBB DUP7 DUP7 DUP5 DUP2 DUP2 LT PUSH2 0x399 JUMPI PUSH2 0x398 PUSH2 0xBCA JUMP JUMPDEST JUMPDEST SWAP1 POP PUSH1 0x20 MUL ADD PUSH1 0x20 DUP2 ADD SWAP1 PUSH2 0x3AE SWAP2 SWAP1 PUSH2 0xBF7 JUMP JUMPDEST DUP6 DUP6 DUP6 DUP2 DUP2 LT PUSH2 0x3C1 JUMPI PUSH2 0x3C0 PUSH2 0xBCA JUMP JUMPDEST JUMPDEST SWAP1 POP PUSH1 0x20 MUL ADD CALLDATALOAD PUSH1 0x40 MLOAD DUP4 PUSH4 0xFFFFFFFF AND PUSH1 0xE0 SHL DUP2 MSTORE PUSH1 0x4 ADD PUSH2 0x3E5 SWAP3 SWAP2 SWAP1 PUSH2 0xA63 JUMP JUMPDEST PUSH1 0x20 PUSH1 0x40 MLOAD DUP1 DUP4 SUB DUP2 PUSH0 DUP8 GAS CALL ISZERO DUP1 ISZERO PUSH2 0x401 JUMPI RETURNDATASIZE PUSH0 DUP1 RETURNDATACOPY RETURNDATASIZE PUSH0 REVERT JUMPDEST POP POP POP POP PUSH1 0x40 MLOAD RETURNDATASIZE PUSH1 0x1F NOT PUSH1 0x1F DUP3 ADD AND DUP3 ADD DUP1 PUSH1 0x40 MSTORE POP DUP2 ADD SWAP1 PUSH2 0x425 SWAP2 SWAP1 PUSH2 0xABF JUMP JUMPDEST PUSH2 0x464 JUMPI PUSH1 0x40 MLOAD PUSH32 0x8C379A000000000000000000000000000000000000000000000000000000000 DUP2 MSTORE PUSH1 0x4 ADD PUSH2 0x45B SWAP1 PUSH2 0xC6C JUMP JUMPDEST PUSH1 0x40 MLOAD DUP1 SWAP2 SUB SWAP1 REVERT JUMPDEST DUP1 DUP1 PUSH1 0x1 ADD SWAP2 POP POP PUSH2 0x33F JUMP JUMPDEST POP POP POP POP POP JUMP JUMPDEST PUSH0 PUSH1 0x2 PUSH0 CALLER PUSH20 0xFFFFFFFFFFFFFFFFFFFFFFFFFFFFFFFFFFFFFFFF AND PUSH20 0xFFFFFFFFFFFFFFFFFFFFFFFFFFFFFFFFFFFFFFFF AND DUP2 MSTORE PUSH1 0x20 ADD SWAP1 DUP2 MSTORE PUSH1 0x20 ADD PUSH0 KECCAK256 SLOAD SWAP1 POP SWAP1 JUMP JUMPDEST PUSH0 DUP1 SLOAD SWAP1 PUSH2 0x100 EXP SWAP1 DIV PUSH20 0xFFFFFFFFFFFFFFFFFFFFFFFFFFFFFFFFFFFFFFFF AND DUP2 JUMP JUMPDEST PUSH0 DUP1 SLOAD SWAP1 PUSH2 0x100 EXP SWAP1 DIV PUSH20 0xFFFFFFFFFFFFFFFFFFFFFFFFFFFFFFFFFFFFFFFF AND PUSH20 0xFFFFFFFFFFFFFFFFFFFFFFFFFFFFFFFFFFFFFFFF AND CALLER PUSH20 0xFFFFFFFFFFFFFFFFFFFFFFFFFFFFFFFFFFFFFFFF AND EQ PUSH2 0x56C JUMPI PUSH1 0x40 MLOAD PUSH32 0x8C379A000000000000000000000000000000000000000000000000000000000 DUP2 MSTORE PUSH1 0x4 ADD PUSH2 0x563 SWAP1 PUSH2 0xB44 JUMP JUMPDEST PUSH1 0x40 MLOAD DUP1 SWAP2 SUB SWAP1 REVERT JUMPDEST PUSH1 0x2 PUSH0 DUP4 PUSH20 0xFFFFFFFFFFFFFFFFFFFFFFFFFFFFFFFFFFFFFFFF AND PUSH20 0xFFFFFFFFFFFFFFFFFFFFFFFFFFFFFFFFFFFFFFFF AND DUP2 MSTORE PUSH1 0x20 ADD SWAP1 DUP2 MSTORE PUSH1 0x20 ADD PUSH0 KECCAK256 SLOAD DUP2 GT ISZERO PUSH2 0x6F1 JUMPI PUSH0 PUSH1 0x2 PUSH0 DUP5 PUSH20 0xFFFFFFFFFFFFFFFFFFFFFFFFFFFFFFFFFFFFFFFF AND PUSH20 0xFFFFFFFFFFFFFFFFFFFFFFFFFFFFFFFFFFFFFFFF AND DUP2 MSTORE PUSH1 0x20 ADD SWAP1 DUP2 MSTORE PUSH1 0x20 ADD PUSH0 KECCAK256 SLOAD DUP3 PUSH2 0x5FB SWAP2 SWAP1 PUSH2 0xCB7 JUMP JUMPDEST PUSH1 0x1 SLOAD PUSH2 0x608 SWAP2 SWAP1 PUSH2 0xCEA JUMP JUMPDEST SWAP1 POP PUSH32 0x0 PUSH20 0xFFFFFFFFFFFFFFFFFFFFFFFFFFFFFFFFFFFFFFFF AND PUSH4 0x70A08231 ADDRESS PUSH1 0x40 MLOAD DUP3 PUSH4 0xFFFFFFFF AND PUSH1 0xE0 SHL DUP2 MSTORE PUSH1 0x4 ADD PUSH2 0x663 SWAP2 SWAP1 PUSH2 0x9B8 JUMP JUMPDEST PUSH1 0x20 PUSH1 0x40 MLOAD DUP1 DUP4 SUB DUP2 DUP7 GAS STATICCALL ISZERO DUP1 ISZERO PUSH2 0x67E JUMPI RETURNDATASIZE PUSH0 DUP1 RETURNDATACOPY RETURNDATASIZE PUSH0 REVERT JUMPDEST POP POP POP POP PUSH1 0x40 MLOAD RETURNDATASIZE PUSH1 0x1F NOT PUSH1 0x1F DUP3 ADD AND DUP3 ADD DUP1 PUSH1 0x40 MSTORE POP DUP2 ADD SWAP1 PUSH2 0x6A2 SWAP2 SWAP1 PUSH2 0xD31 JUMP JUMPDEST DUP2 GT ISZERO PUSH2 0x6E4 JUMPI PUSH1 0x40 MLOAD PUSH32 0x8C379A000000000000000000000000000000000000000000000000000000000 DUP2 MSTORE PUSH1 0x4 ADD PUSH2 0x6DB SWAP1 PUSH2 0xDA6 JUMP JUMPDEST PUSH1 0x40 MLOAD DUP1 SWAP2 SUB SWAP1 REVERT JUMPDEST DUP1 PUSH1 0x1 DUP2 SWAP1 SSTORE POP POP PUSH2 0x752 JUMP JUMPDEST DUP1 PUSH1 0x2 PUSH0 DUP5 PUSH20 0xFFFFFFFFFFFFFFFFFFFFFFFFFFFFFFFFFFFFFFFF AND PUSH20 0xFFFFFFFFFFFFFFFFFFFFFFFFFFFFFFFFFFFFFFFF AND DUP2 MSTORE PUSH1 0x20 ADD SWAP1 DUP2 MSTORE PUSH1 0x20 ADD PUSH0 KECCAK256 SLOAD PUSH2 0x73A SWAP2 SWAP1 PUSH2 0xCB7 JUMP JUMPDEST PUSH1 0x1 PUSH0 DUP3 DUP3 SLOAD PUSH2 0x74A SWAP2 SWAP1 PUSH2 0xCB7 JUMP JUMPDEST SWAP3 POP POP DUP2 SWAP1 SSTORE POP JUMPDEST DUP1 PUSH1 0x2 PUSH0 DUP5 PUSH20 0xFFFFFFFFFFFFFFFFFFFFFFFFFFFFFFFFFFFFFFFF AND PUSH20 0xFFFFFFFFFFFFFFFFFFFFFFFFFFFFFFFFFFFFFFFF AND DUP2 MSTORE PUSH1 0x20 ADD SWAP1 DUP2 MSTORE PUSH1 0x20 ADD PUSH0 KECCAK256 DUP2 SWAP1 SSTORE POP POP POP JUMP JUMPDEST PUSH0 DUP2 SWAP1 POP SWAP2 SWAP1 POP JUMP JUMPDEST PUSH2 0x7AA DUP2 PUSH2 0x798 JUMP JUMPDEST DUP3 MSTORE POP POP JUMP JUMPDEST PUSH0 PUSH1 0x20 DUP3 ADD SWAP1 POP PUSH2 0x7C3 PUSH0 DUP4 ADD DUP5 PUSH2 0x7A1 JUMP JUMPDEST SWAP3 SWAP2 POP POP JUMP JUMPDEST PUSH0 PUSH20 0xFFFFFFFFFFFFFFFFFFFFFFFFFFFFFFFFFFFFFFFF DUP3 AND SWAP1 POP SWAP2 SWAP1 POP JUMP JUMPDEST PUSH0 DUP2 SWAP1 POP SWAP2 SWAP1 POP JUMP JUMPDEST PUSH0 PUSH2 0x80B PUSH2 0x806 PUSH2 0x801 DUP5 PUSH2 0x7C9 JUMP JUMPDEST PUSH2 0x7E8 JUMP JUMPDEST PUSH2 0x7C9 JUMP JUMPDEST SWAP1 POP SWAP2 SWAP1 POP JUMP JUMPDEST PUSH0 PUSH2 0x81C DUP3 PUSH2 0x7F1 JUMP JUMPDEST SWAP1 POP SWAP2 SWAP1 POP JUMP JUMPDEST PUSH0 PUSH2 0x82D DUP3 PUSH2 0x812 JUMP JUMPDEST SWAP1 POP SWAP2 SWAP1 POP JUMP JUMPDEST PUSH2 0x83D DUP2 PUSH2 0x823 JUMP JUMPDEST DUP3 MSTORE POP POP JUMP JUMPDEST PUSH0 PUSH1 0x20 DUP3 ADD SWAP1 POP PUSH2 0x856 PUSH0 DUP4 ADD DUP5 PUSH2 0x834 JUMP JUMPDEST SWAP3 SWAP2 POP POP JUMP JUMPDEST PUSH0 DUP1 REVERT JUMPDEST PUSH0 DUP1 REVERT JUMPDEST PUSH0 DUP1 REVERT JUMPDEST PUSH0 DUP1 REVERT JUMPDEST PUSH0 DUP1 REVERT JUMPDEST PUSH0 DUP1 DUP4 PUSH1 0x1F DUP5 ADD SLT PUSH2 0x885 JUMPI PUSH2 0x884 PUSH2 0x864 JUMP JUMPDEST JUMPDEST DUP3 CALLDATALOAD SWAP1 POP PUSH8 0xFFFFFFFFFFFFFFFF DUP2 GT ISZERO PUSH2 0x8A2 JUMPI PUSH2 0x8A1 PUSH2 0x868 JUMP JUMPDEST JUMPDEST PUSH1 0x20 DUP4 ADD SWAP2 POP DUP4 PUSH1 0x20 DUP3 MUL DUP4 ADD GT ISZERO PUSH2 0x8BE JUMPI PUSH2 0x8BD PUSH2 0x86C JUMP JUMPDEST JUMPDEST SWAP3 POP SWAP3 SWAP1 POP JUMP JUMPDEST PUSH0 DUP1 DUP4 PUSH1 0x1F DUP5 ADD SLT PUSH2 0x8DA JUMPI PUSH2 0x8D9 PUSH2 0x864 JUMP JUMPDEST JUMPDEST DUP3 CALLDATALOAD SWAP1 POP PUSH8 0xFFFFFFFFFFFFFFFF DUP2 GT ISZERO PUSH2 0x8F7 JUMPI PUSH2 0x8F6 PUSH2 0x868 JUMP JUMPDEST JUMPDEST PUSH1 0x20 DUP4 ADD SWAP2 POP DUP4 PUSH1 0x20 DUP3 MUL DUP4 ADD GT ISZERO PUSH2 0x913 JUMPI PUSH2 0x912 PUSH2 0x86C JUMP JUMPDEST JUMPDEST SWAP3 POP SWAP3 SWAP1 POP JUMP JUMPDEST PUSH0 DUP1 PUSH0 DUP1 PUSH1 0x40 DUP6 DUP8 SUB SLT ISZERO PUSH2 0x932 JUMPI PUSH2 0x931 PUSH2 0x85C JUMP JUMPDEST JUMPDEST PUSH0 DUP6 ADD CALLDATALOAD PUSH8 0xFFFFFFFFFFFFFFFF DUP2 GT ISZERO PUSH2 0x94F JUMPI PUSH2 0x94E PUSH2 0x860 JUMP JUMPDEST JUMPDEST PUSH2 0x95B DUP8 DUP3 DUP9 ADD PUSH2 0x870 JUMP JUMPDEST SWAP5 POP SWAP5 POP POP PUSH1 0x20 DUP6 ADD CALLDATALOAD PUSH8 0xFFFFFFFFFFFFFFFF DUP2 GT ISZERO PUSH2 0x97E JUMPI PUSH2 0x97D PUSH2 0x860 JUMP JUMPDEST JUMPDEST PUSH2 0x98A DUP8 DUP3 DUP9 ADD PUSH2 0x8C5 JUMP JUMPDEST SWAP3 POP SWAP3 POP POP SWAP3 SWAP6 SWAP2 SWAP5 POP SWAP3 POP JUMP JUMPDEST PUSH0 PUSH2 0x9A2 DUP3 PUSH2 0x7C9 JUMP JUMPDEST SWAP1 POP SWAP2 SWAP1 POP JUMP JUMPDEST PUSH2 0x9B2 DUP2 PUSH2 0x998 JUMP JUMPDEST DUP3 MSTORE POP POP JUMP JUMPDEST PUSH0 PUSH1 0x20 DUP3 ADD SWAP1 POP PUSH2 0x9CB PUSH0 DUP4 ADD DUP5 PUSH2 0x9A9 JUMP JUMPDEST SWAP3 SWAP2 POP POP JUMP JUMPDEST PUSH2 0x9DA DUP2 PUSH2 0x998 JUMP JUMPDEST DUP2 EQ PUSH2 0x9E4 JUMPI PUSH0 DUP1 REVERT JUMPDEST POP JUMP JUMPDEST PUSH0 DUP2 CALLDATALOAD SWAP1 POP PUSH2 0x9F5 DUP2 PUSH2 0x9D1 JUMP JUMPDEST SWAP3 SWAP2 POP POP JUMP JUMPDEST PUSH2 0xA04 DUP2 PUSH2 0x798 JUMP JUMPDEST DUP2 EQ PUSH2 0xA0E JUMPI PUSH0 DUP1 REVERT JUMPDEST POP JUMP JUMPDEST PUSH0 DUP2 CALLDATALOAD SWAP1 POP PUSH2 0xA1F DUP2 PUSH2 0x9FB JUMP JUMPDEST SWAP3 SWAP2 POP POP JUMP JUMPDEST PUSH0 DUP1 PUSH1 0x40 DUP4 DUP6 SUB SLT ISZERO PUSH2 0xA3B JUMPI PUSH2 0xA3A PUSH2 0x85C JUMP JUMPDEST JUMPDEST PUSH0 PUSH2 0xA48 DUP6 DUP3 DUP7 ADD PUSH2 0x9E7 JUMP JUMPDEST SWAP3 POP POP PUSH1 0x20 PUSH2 0xA59 DUP6 DUP3 DUP7 ADD PUSH2 0xA11 JUMP JUMPDEST SWAP2 POP POP SWAP3 POP SWAP3 SWAP1 POP JUMP JUMPDEST PUSH0 PUSH1 0x40 DUP3 ADD SWAP1 POP PUSH2 0xA76 PUSH0 DUP4 ADD DUP6 PUSH2 0x9A9 JUMP JUMPDEST PUSH2 0xA83 PUSH1 0x20 DUP4 ADD DUP5 PUSH2 0x7A1 JUMP JUMPDEST SWAP4 SWAP3 POP POP POP JUMP JUMPDEST PUSH0 DUP2 ISZERO ISZERO SWAP1 POP SWAP2 SWAP1 POP JUMP JUMPDEST PUSH2 0xA9E DUP2 PUSH2 0xA8A JUMP JUMPDEST DUP2 EQ PUSH2 0xAA8 JUMPI PUSH0 DUP1 REVERT JUMPDEST POP JUMP JUMPDEST PUSH0 DUP2 MLOAD SWAP1 POP PUSH2 0xAB9 DUP2 PUSH2 0xA95 JUMP JUMPDEST SWAP3 SWAP2 POP POP JUMP JUMPDEST PUSH0 PUSH1 0x20 DUP3 DUP5 SUB SLT ISZERO PUSH2 0xAD4 JUMPI PUSH2 0xAD3 PUSH2 0x85C JUMP JUMPDEST JUMPDEST PUSH0 PUSH2 0xAE1 DUP5 DUP3 DUP6 ADD PUSH2 0xAAB JUMP JUMPDEST SWAP2 POP POP SWAP3 SWAP2 POP POP JUMP JUMPDEST PUSH0 DUP3 DUP3 MSTORE PUSH1 0x20 DUP3 ADD SWAP1 POP SWAP3 SWAP2 POP POP JUMP JUMPDEST PUSH32 0x4F6E6C79206F776E65722063616E206163636573730000000000000000000000 PUSH0 DUP3 ADD MSTORE POP JUMP JUMPDEST PUSH0 PUSH2 0xB2E PUSH1 0x15 DUP4 PUSH2 0xAEA JUMP JUMPDEST SWAP2 POP PUSH2 0xB39 DUP3 PUSH2 0xAFA JUMP JUMPDEST PUSH1 0x20 DUP3 ADD SWAP1 POP SWAP2 SWAP1 POP JUMP JUMPDEST PUSH0 PUSH1 0x20 DUP3 ADD SWAP1 POP DUP2 DUP2 SUB PUSH0 DUP4 ADD MSTORE PUSH2 0xB5B DUP2 PUSH2 0xB22 JUMP JUMPDEST SWAP1 POP SWAP2 SWAP1 POP JUMP JUMPDEST PUSH32 0x4D69736D617463686564206172726179206C656E746873000000000000000000 PUSH0 DUP3 ADD MSTORE POP JUMP JUMPDEST PUSH0 PUSH2 0xB96 PUSH1 0x17 DUP4 PUSH2 0xAEA JUMP JUMPDEST SWAP2 POP PUSH2 0xBA1 DUP3 PUSH2 0xB62 JUMP JUMPDEST PUSH1 0x20 DUP3 ADD SWAP1 POP SWAP2 SWAP1 POP JUMP JUMPDEST PUSH0 PUSH1 0x20 DUP3 ADD SWAP1 POP DUP2 DUP2 SUB PUSH0 DUP4 ADD MSTORE PUSH2 0xBC3 DUP2 PUSH2 0xB8A JUMP JUMPDEST SWAP1 POP SWAP2 SWAP1 POP JUMP JUMPDEST PUSH32 0x4E487B7100000000000000000000000000000000000000000000000000000000 PUSH0 MSTORE PUSH1 0x32 PUSH1 0x4 MSTORE PUSH1 0x24 PUSH0 REVERT JUMPDEST PUSH0 PUSH1 0x20 DUP3 DUP5 SUB SLT ISZERO PUSH2 0xC0C JUMPI PUSH2 0xC0B PUSH2 0x85C JUMP JUMPDEST JUMPDEST PUSH0 PUSH2 0xC19 DUP5 DUP3 DUP6 ADD PUSH2 0x9E7 JUMP JUMPDEST SWAP2 POP POP SWAP3 SWAP2 POP POP JUMP JUMPDEST PUSH32 0x5472616E73666572206661696C65640000000000000000000000000000000000 PUSH0 DUP3 ADD MSTORE POP JUMP JUMPDEST PUSH0 PUSH2 0xC56 PUSH1 0xF DUP4 PUSH2 0xAEA JUMP JUMPDEST SWAP2 POP PUSH2 0xC61 DUP3 PUSH2 0xC22 JUMP JUMPDEST PUSH1 0x20 DUP3 ADD SWAP1 POP SWAP2 SWAP1 POP JUMP JUMPDEST PUSH0 PUSH1 0x20 DUP3 ADD SWAP1 POP DUP2 DUP2 SUB PUSH0 DUP4 ADD MSTORE PUSH2 0xC83 DUP2 PUSH2 0xC4A JUMP JUMPDEST SWAP1 POP SWAP2 SWAP1 POP JUMP JUMPDEST PUSH32 0x4E487B7100000000000000000000000000000000000000000000000000000000 PUSH0 MSTORE PUSH1 0x11 PUSH1 0x4 MSTORE PUSH1 0x24 PUSH0 REVERT JUMPDEST PUSH0 PUSH2 0xCC1 DUP3 PUSH2 0x798 JUMP JUMPDEST SWAP2 POP PUSH2 0xCCC DUP4 PUSH2 0x798 JUMP JUMPDEST SWAP3 POP DUP3 DUP3 SUB SWAP1 POP DUP2 DUP2 GT ISZERO PUSH2 0xCE4 JUMPI PUSH2 0xCE3 PUSH2 0xC8A JUMP JUMPDEST JUMPDEST SWAP3 SWAP2 POP POP JUMP JUMPDEST PUSH0 PUSH2 0xCF4 DUP3 PUSH2 0x798 JUMP JUMPDEST SWAP2 POP PUSH2 0xCFF DUP4 PUSH2 0x798 JUMP JUMPDEST SWAP3 POP DUP3 DUP3 ADD SWAP1 POP DUP1 DUP3 GT ISZERO PUSH2 0xD17 JUMPI PUSH2 0xD16 PUSH2 0xC8A JUMP JUMPDEST JUMPDEST SWAP3 SWAP2 POP POP JUMP JUMPDEST PUSH0 DUP2 MLOAD SWAP1 POP PUSH2 0xD2B DUP2 PUSH2 0x9FB JUMP JUMPDEST SWAP3 SWAP2 POP POP JUMP JUMPDEST PUSH0 PUSH1 0x20 DUP3 DUP5 SUB SLT ISZERO PUSH2 0xD46 JUMPI PUSH2 0xD45 PUSH2 0x85C JUMP JUMPDEST JUMPDEST PUSH0 PUSH2 0xD53 DUP5 DUP3 DUP6 ADD PUSH2 0xD1D JUMP JUMPDEST SWAP2 POP POP SWAP3 SWAP2 POP POP JUMP JUMPDEST PUSH32 0x546F6B656E2062616C616E636520696E73756666696369656E74000000000000 PUSH0 DUP3 ADD MSTORE POP JUMP JUMPDEST PUSH0 PUSH2 0xD90 PUSH1 0x1A DUP4 PUSH2 0xAEA JUMP JUMPDEST SWAP2 POP PUSH2 0xD9B DUP3 PUSH2 0xD5C JUMP JUMPDEST PUSH1 0x20 DUP3 ADD SWAP1 POP SWAP2 SWAP1 POP JUMP JUMPDEST PUSH0 PUSH1 0x20 DUP3 ADD SWAP1 POP DUP2 DUP2 SUB PUSH0 DUP4 ADD MSTORE PUSH2 0xDBD DUP2 PUSH2 0xD84 JUMP JUMPDEST SWAP1 POP SWAP2 SWAP1 POP JUMP INVALID LOG2 PUSH5 0x6970667358 0x22 SLT KECCAK256 BLOCKHASH RETURNDATACOPY 0xBC SHL RETURNDATASIZE NOT OR OR 0xCC 0xF9 LOG0 NOT JUMPDEST 0x1E PUSH14 0x999997954AB324B55C430064BA23 0xC6 0xAE 0xD6 PUSH5 0x736F6C6343 STOP ADDMOD BYTE STOP CALLER "
				},
				"gasEstimates": {
					"creation": {
						"codeDepositCost": "715600",
						"executionCost": "infinite",
						"totalCost": "infinite"
					},
					"external": {
						"airdropAmount(address,uint256)": "infinite",
						"airdropTokens(address[],uint256[])": "infinite",
						"claim()": "infinite",
						"claimAmount()": "2563",
						"owner()": "2571",
						"tokenContract()": "infinite"
					}
				},
				"methodIdentifiers": {
					"airdropAmount(address,uint256)": "dc307b63",
					"airdropTokens(address[],uint256[])": "706f6937",
					"claim()": "4e71d92d",
					"claimAmount()": "830953ab",
					"owner()": "8da5cb5b",
					"tokenContract()": "55a373d6"
				}
			},
			"storageLayout": {
				"storage": [
					{
						"astId": 82,
						"contract": "contracts/token/ERC20/MyAirdrop.sol:MyAirDrop",
						"label": "owner",
						"offset": 0,
						"slot": "0",
						"type": "t_address"
					},
					{
						"astId": 87,
						"contract": "contracts/token/ERC20/MyAirdrop.sol:MyAirDrop",
						"label": "claimSum",
						"offset": 0,
						"slot": "1",
						"type": "t_uint256"
					},
					{
						"astId": 91,
						"contract": "contracts/token/ERC20/MyAirdrop.sol:MyAirDrop",
						"label": "airdropAmounts",
						"offset": 0,
						"slot": "2",
						"type": "t_mapping(t_address,t_uint256)"
					}
				],
				"types": {
					"t_address": {
						"encoding": "inplace",
						"label": "address",
						"numberOfBytes": "20"
					},
					"t_mapping(t_address,t_uint256)": {
						"encoding": "mapping",
						"key": "t_address",
						"label": "mapping(address => uint256)",
						"numberOfBytes": "32",
						"value": "t_uint256"
					},
					"t_uint256": {
						"encoding": "inplace",
						"label": "uint256",
						"numberOfBytes": "32"
					}
				}
			},
			"userdoc": {
				"kind": "user",
				"methods": {},
				"version": 1
			}
		}
	}
}