{
	"contracts/utils/TestNonReentrantLockTransient.sol": {
		"TestNonReentrantLockTransient": {
			"abi": [
				{
					"inputs": [
						{
							"internalType": "string",
							"name": "slotSeed",
							"type": "string"
						}
					],
					"name": "AcquireLockFailure",
					"type": "error"
				},
				{
					"inputs": [
						{
							"internalType": "string",
							"name": "slotSeed",
							"type": "string"
						}
					],
					"name": "GetLockFailure",
					"type": "error"
				},
				{
					"inputs": [
						{
							"internalType": "string",
							"name": "slotSeed",
							"type": "string"
						}
					],
					"name": "UnlockFailure",
					"type": "error"
				},
				{
					"anonymous": false,
					"inputs": [
						{
							"indexed": false,
							"internalType": "string",
							"name": "data",
							"type": "string"
						}
					],
					"name": "Log",
					"type": "event"
				},
				{
					"inputs": [
						{
							"internalType": "bool",
							"name": "triggerLockFailure",
							"type": "bool"
						}
					],
					"name": "testCodeBlockLock",
					"outputs": [],
					"stateMutability": "nonpayable",
					"type": "function"
				},
				{
					"inputs": [
						{
							"internalType": "bool",
							"name": "triggerLockFailure",
							"type": "bool"
						}
					],
					"name": "testCodeBlockTryLock",
					"outputs": [],
					"stateMutability": "nonpayable",
					"type": "function"
				},
				{
					"inputs": [
						{
							"internalType": "bool",
							"name": "same",
							"type": "bool"
						}
					],
					"name": "testNonReentrantCustomizeLockFail",
					"outputs": [],
					"stateMutability": "nonpayable",
					"type": "function"
				},
				{
					"inputs": [],
					"name": "testNonReentrantCustomizeLockSuccess",
					"outputs": [],
					"stateMutability": "nonpayable",
					"type": "function"
				},
				{
					"inputs": [],
					"name": "testNonReentrantLockFail",
					"outputs": [],
					"stateMutability": "nonpayable",
					"type": "function"
				},
				{
					"inputs": [],
					"name": "testNonReentrantLockSuccess",
					"outputs": [],
					"stateMutability": "nonpayable",
					"type": "function"
				}
			],
			"devdoc": {
				"kind": "dev",
				"methods": {},
				"version": 1
			},
			"evm": {
				"assembly": "    /* \"contracts/utils/TestNonReentrantLockTransient.sol\":298:3709  contract TestNonReentrantLockTransient is AbstractNonReentrantLockTransient {... */\n  mstore(0x40, 0x80)\n  callvalue\n  dup1\n  iszero\n  tag_1\n  jumpi\n  0x00\n  dup1\n  revert\ntag_1:\n  pop\n  dataSize(sub_0)\n  dup1\n  dataOffset(sub_0)\n  0x00\n  codecopy\n  0x00\n  return\nstop\n\nsub_0: assembly {\n        /* \"contracts/utils/TestNonReentrantLockTransient.sol\":298:3709  contract TestNonReentrantLockTransient is AbstractNonReentrantLockTransient {... */\n      mstore(0x40, 0x80)\n      callvalue\n      dup1\n      iszero\n      tag_1\n      jumpi\n      0x00\n      dup1\n      revert\n    tag_1:\n      pop\n      jumpi(tag_2, lt(calldatasize, 0x04))\n      shr(0xe0, calldataload(0x00))\n      dup1\n      0x1402f8cf\n      eq\n      tag_3\n      jumpi\n      dup1\n      0x1a09a63e\n      eq\n      tag_4\n      jumpi\n      dup1\n      0x87aeff1a\n      eq\n      tag_5\n      jumpi\n      dup1\n      0xae27d366\n      eq\n      tag_6\n      jumpi\n      dup1\n      0xd33bf9a6\n      eq\n      tag_7\n      jumpi\n      dup1\n      0xf76cfc98\n      eq\n      tag_8\n      jumpi\n    tag_2:\n      0x00\n      dup1\n      revert\n        /* \"contracts/utils/TestNonReentrantLockTransient.sol\":1876:2304  function testCodeBlockLock(bool triggerLockFailure) external {... */\n    tag_3:\n      tag_9\n      0x04\n      dup1\n      calldatasize\n      sub\n      dup2\n      add\n      swap1\n      tag_10\n      swap2\n      swap1\n      tag_11\n      jump\t// in\n    tag_10:\n      tag_12\n      jump\t// in\n    tag_9:\n      stop\n        /* \"contracts/utils/TestNonReentrantLockTransient.sol\":1178:1489  function testNonReentrantCustomizeLockFail(bool same) public nonReentrantcustomizeLock(\"testNonReentrantCustomizeLockFail\") {... */\n    tag_4:\n      tag_13\n      0x04\n      dup1\n      calldatasize\n      sub\n      dup2\n      add\n      swap1\n      tag_14\n      swap2\n      swap1\n      tag_11\n      jump\t// in\n    tag_14:\n      tag_15\n      jump\t// in\n    tag_13:\n      stop\n        /* \"contracts/utils/TestNonReentrantLockTransient.sol\":866:1006  function testNonReentrantLockFail() public nonReentrantLock {... */\n    tag_5:\n      tag_16\n      tag_17\n      jump\t// in\n    tag_16:\n      stop\n        /* \"contracts/utils/TestNonReentrantLockTransient.sol\":444:556  function testNonReentrantLockSuccess() public nonReentrantLock {... */\n    tag_6:\n      tag_18\n      tag_19\n      jump\t// in\n    tag_18:\n      stop\n        /* \"contracts/utils/TestNonReentrantLockTransient.sol\":607:770  function testNonReentrantCustomizeLockSuccess() public nonReentrantcustomizeLock(\"testNonReentrantCustomizeLock\") {... */\n    tag_7:\n      tag_20\n      tag_21\n      jump\t// in\n    tag_20:\n      stop\n        /* \"contracts/utils/TestNonReentrantLockTransient.sol\":2831:3379  function testCodeBlockTryLock(bool triggerLockFailure) external {... */\n    tag_8:\n      tag_22\n      0x04\n      dup1\n      calldatasize\n      sub\n      dup2\n      add\n      swap1\n      tag_23\n      swap2\n      swap1\n      tag_11\n      jump\t// in\n    tag_23:\n      tag_24\n      jump\t// in\n    tag_22:\n      stop\n        /* \"contracts/utils/TestNonReentrantLockTransient.sol\":1876:2304  function testCodeBlockLock(bool triggerLockFailure) external {... */\n    tag_12:\n        /* \"contracts/utils/TestNonReentrantLockTransient.sol\":1947:2001  NonReentrantLockTransient.NonReentrantLock memory lock */\n      0x00\n        /* \"contracts/utils/TestNonReentrantLockTransient.sol\":2004:2039  NonReentrantLockTransient.getLock() */\n      tag_26\n        /* \"contracts/utils/TestNonReentrantLockTransient.sol\":2004:2037  NonReentrantLockTransient.getLock */\n      tag_27\n        /* \"contracts/utils/TestNonReentrantLockTransient.sol\":2004:2039  NonReentrantLockTransient.getLock() */\n      jump\t// in\n    tag_26:\n        /* \"contracts/utils/TestNonReentrantLockTransient.sol\":1947:2039  NonReentrantLockTransient.NonReentrantLock memory lock = NonReentrantLockTransient.getLock() */\n      swap1\n      pop\n        /* \"contracts/utils/TestNonReentrantLockTransient.sol\":2049:2060  lock.lock() */\n      tag_28\n        /* \"contracts/utils/TestNonReentrantLockTransient.sol\":2049:2053  lock */\n      dup2\n        /* \"contracts/utils/TestNonReentrantLockTransient.sol\":2049:2058  lock.lock */\n      tag_29\n        /* \"contracts/utils/TestNonReentrantLockTransient.sol\":2049:2060  lock.lock() */\n      jump\t// in\n    tag_28:\n        /* \"contracts/utils/TestNonReentrantLockTransient.sol\":2075:2099  Log(\"testCodeBlockLock\") */\n      0xcf34ef537ac33ee1ac626ca1587a0a7e8e51561e5514f8cb36afa1c5102b3bab\n      mload(0x40)\n      tag_30\n      swap1\n      tag_31\n      jump\t// in\n    tag_30:\n      mload(0x40)\n      dup1\n      swap2\n      sub\n      swap1\n      log1\n        /* \"contracts/utils/TestNonReentrantLockTransient.sol\":2113:2131  triggerLockFailure */\n      dup2\n        /* \"contracts/utils/TestNonReentrantLockTransient.sol\":2109:2275  if (triggerLockFailure) {... */\n      iszero\n      tag_32\n      jumpi\n        /* \"contracts/utils/TestNonReentrantLockTransient.sol\":2147:2164  _getDefaultLock() */\n      tag_33\n        /* \"contracts/utils/TestNonReentrantLockTransient.sol\":2147:2162  _getDefaultLock */\n      tag_34\n        /* \"contracts/utils/TestNonReentrantLockTransient.sol\":2147:2164  _getDefaultLock() */\n      jump\t// in\n    tag_33:\n        /* \"contracts/utils/TestNonReentrantLockTransient.sol\":2109:2275  if (triggerLockFailure) {... */\n      jump(tag_35)\n    tag_32:\n        /* \"contracts/utils/TestNonReentrantLockTransient.sol\":2230:2264  _getCustomizeLock(\"customizeLock\") */\n      tag_36\n      mload(0x40)\n      dup1\n      0x40\n      add\n      0x40\n      mstore\n      dup1\n      0x0d\n      dup2\n      mstore\n      0x20\n      add\n      0x637573746f6d697a654c6f636b00000000000000000000000000000000000000\n      dup2\n      mstore\n      pop\n        /* \"contracts/utils/TestNonReentrantLockTransient.sol\":2230:2247  _getCustomizeLock */\n      tag_37\n        /* \"contracts/utils/TestNonReentrantLockTransient.sol\":2230:2264  _getCustomizeLock(\"customizeLock\") */\n      jump\t// in\n    tag_36:\n        /* \"contracts/utils/TestNonReentrantLockTransient.sol\":2109:2275  if (triggerLockFailure) {... */\n    tag_35:\n        /* \"contracts/utils/TestNonReentrantLockTransient.sol\":2284:2297  lock.unlock() */\n      tag_38\n        /* \"contracts/utils/TestNonReentrantLockTransient.sol\":2284:2288  lock */\n      dup2\n        /* \"contracts/utils/TestNonReentrantLockTransient.sol\":2284:2295  lock.unlock */\n      tag_39\n        /* \"contracts/utils/TestNonReentrantLockTransient.sol\":2284:2297  lock.unlock() */\n      jump\t// in\n    tag_38:\n        /* \"contracts/utils/TestNonReentrantLockTransient.sol\":1937:2304  {... */\n      pop\n        /* \"contracts/utils/TestNonReentrantLockTransient.sol\":1876:2304  function testCodeBlockLock(bool triggerLockFailure) external {... */\n      pop\n      jump\t// out\n        /* \"contracts/utils/TestNonReentrantLockTransient.sol\":1178:1489  function testNonReentrantCustomizeLockFail(bool same) public nonReentrantcustomizeLock(\"testNonReentrantCustomizeLockFail\") {... */\n    tag_15:\n        /* \"contracts/utils/AbstractNonReentrantLockTransient.sol\":1833:2031  modifier nonReentrantcustomizeLock(string memory seed) {... */\n      mload(0x40)\n      dup1\n      0x60\n      add\n      0x40\n      mstore\n      dup1\n      0x21\n      dup2\n      mstore\n      0x20\n      add\n      data_71eb6b56e6bc75391686fe67e966306f806b048a456c03623c5c82cb980d186f\n      0x21\n      swap2\n      codecopy\n        /* \"contracts/utils/AbstractNonReentrantLockTransient.sol\":1898:1952  NonReentrantLockTransient.NonReentrantLock memory lock */\n      0x00\n        /* \"contracts/utils/AbstractNonReentrantLockTransient.sol\":1955:1969  seed.getLock() */\n      tag_41\n        /* \"contracts/utils/AbstractNonReentrantLockTransient.sol\":1955:1959  seed */\n      dup3\n        /* \"contracts/utils/AbstractNonReentrantLockTransient.sol\":1955:1967  seed.getLock */\n      tag_42\n        /* \"contracts/utils/AbstractNonReentrantLockTransient.sol\":1955:1969  seed.getLock() */\n      jump\t// in\n    tag_41:\n        /* \"contracts/utils/AbstractNonReentrantLockTransient.sol\":1898:1969  NonReentrantLockTransient.NonReentrantLock memory lock = seed.getLock() */\n      swap1\n      pop\n        /* \"contracts/utils/AbstractNonReentrantLockTransient.sol\":1979:1990  lock.lock() */\n      tag_43\n        /* \"contracts/utils/AbstractNonReentrantLockTransient.sol\":1979:1983  lock */\n      dup2\n        /* \"contracts/utils/AbstractNonReentrantLockTransient.sol\":1979:1988  lock.lock */\n      tag_29\n        /* \"contracts/utils/AbstractNonReentrantLockTransient.sol\":1979:1990  lock.lock() */\n      jump\t// in\n    tag_43:\n        /* \"contracts/utils/TestNonReentrantLockTransient.sol\":1317:1357  Log(\"testNonReentrantCustomizeLockFail\") */\n      0xcf34ef537ac33ee1ac626ca1587a0a7e8e51561e5514f8cb36afa1c5102b3bab\n      mload(0x40)\n      tag_45\n      swap1\n      tag_46\n      jump\t// in\n    tag_45:\n      mload(0x40)\n      dup1\n      swap2\n      sub\n      swap1\n      log1\n        /* \"contracts/utils/TestNonReentrantLockTransient.sol\":1371:1375  same */\n      dup3\n        /* \"contracts/utils/TestNonReentrantLockTransient.sol\":1367:1483  if (same) {... */\n      iszero\n      tag_47\n      jumpi\n        /* \"contracts/utils/TestNonReentrantLockTransient.sol\":1391:1414  _useCustomizeSameLock() */\n      tag_48\n        /* \"contracts/utils/TestNonReentrantLockTransient.sol\":1391:1412  _useCustomizeSameLock */\n      tag_49\n        /* \"contracts/utils/TestNonReentrantLockTransient.sol\":1391:1414  _useCustomizeSameLock() */\n      jump\t// in\n    tag_48:\n        /* \"contracts/utils/TestNonReentrantLockTransient.sol\":1367:1483  if (same) {... */\n      jump(tag_50)\n    tag_47:\n        /* \"contracts/utils/TestNonReentrantLockTransient.sol\":1444:1472  _useCustomizeDifferentLock() */\n      tag_51\n        /* \"contracts/utils/TestNonReentrantLockTransient.sol\":1444:1470  _useCustomizeDifferentLock */\n      tag_52\n        /* \"contracts/utils/TestNonReentrantLockTransient.sol\":1444:1472  _useCustomizeDifferentLock() */\n      jump\t// in\n    tag_51:\n        /* \"contracts/utils/TestNonReentrantLockTransient.sol\":1367:1483  if (same) {... */\n    tag_50:\n        /* \"contracts/utils/AbstractNonReentrantLockTransient.sol\":2011:2024  lock.unlock() */\n      tag_53\n        /* \"contracts/utils/AbstractNonReentrantLockTransient.sol\":2011:2015  lock */\n      dup2\n        /* \"contracts/utils/AbstractNonReentrantLockTransient.sol\":2011:2022  lock.unlock */\n      tag_39\n        /* \"contracts/utils/AbstractNonReentrantLockTransient.sol\":2011:2024  lock.unlock() */\n      jump\t// in\n    tag_53:\n        /* \"contracts/utils/AbstractNonReentrantLockTransient.sol\":1888:2031  {... */\n      pop\n        /* \"contracts/utils/TestNonReentrantLockTransient.sol\":1178:1489  function testNonReentrantCustomizeLockFail(bool same) public nonReentrantcustomizeLock(\"testNonReentrantCustomizeLockFail\") {... */\n      pop\n      pop\n      jump\t// out\n        /* \"contracts/utils/TestNonReentrantLockTransient.sol\":866:1006  function testNonReentrantLockFail() public nonReentrantLock {... */\n    tag_17:\n        /* \"contracts/utils/AbstractNonReentrantLockTransient.sol\":1523:1577  NonReentrantLockTransient.NonReentrantLock memory lock */\n      0x00\n        /* \"contracts/utils/AbstractNonReentrantLockTransient.sol\":1580:1615  NonReentrantLockTransient.getLock() */\n      tag_55\n        /* \"contracts/utils/AbstractNonReentrantLockTransient.sol\":1580:1613  NonReentrantLockTransient.getLock */\n      tag_27\n        /* \"contracts/utils/AbstractNonReentrantLockTransient.sol\":1580:1615  NonReentrantLockTransient.getLock() */\n      jump\t// in\n    tag_55:\n        /* \"contracts/utils/AbstractNonReentrantLockTransient.sol\":1523:1615  NonReentrantLockTransient.NonReentrantLock memory lock = NonReentrantLockTransient.getLock() */\n      swap1\n      pop\n        /* \"contracts/utils/AbstractNonReentrantLockTransient.sol\":1625:1636  lock.lock() */\n      tag_56\n        /* \"contracts/utils/AbstractNonReentrantLockTransient.sol\":1625:1629  lock */\n      dup2\n        /* \"contracts/utils/AbstractNonReentrantLockTransient.sol\":1625:1634  lock.lock */\n      tag_29\n        /* \"contracts/utils/AbstractNonReentrantLockTransient.sol\":1625:1636  lock.lock() */\n      jump\t// in\n    tag_56:\n        /* \"contracts/utils/TestNonReentrantLockTransient.sol\":941:972  Log(\"testNonReentrantLockFail\") */\n      0xcf34ef537ac33ee1ac626ca1587a0a7e8e51561e5514f8cb36afa1c5102b3bab\n      mload(0x40)\n      tag_58\n      swap1\n      tag_59\n      jump\t// in\n    tag_58:\n      mload(0x40)\n      dup1\n      swap2\n      sub\n      swap1\n      log1\n        /* \"contracts/utils/TestNonReentrantLockTransient.sol\":982:999  _useDefaultLock() */\n      tag_60\n        /* \"contracts/utils/TestNonReentrantLockTransient.sol\":982:997  _useDefaultLock */\n      tag_61\n        /* \"contracts/utils/TestNonReentrantLockTransient.sol\":982:999  _useDefaultLock() */\n      jump\t// in\n    tag_60:\n        /* \"contracts/utils/AbstractNonReentrantLockTransient.sol\":1657:1670  lock.unlock() */\n      tag_62\n        /* \"contracts/utils/AbstractNonReentrantLockTransient.sol\":1657:1661  lock */\n      dup2\n        /* \"contracts/utils/AbstractNonReentrantLockTransient.sol\":1657:1668  lock.unlock */\n      tag_39\n        /* \"contracts/utils/AbstractNonReentrantLockTransient.sol\":1657:1670  lock.unlock() */\n      jump\t// in\n    tag_62:\n        /* \"contracts/utils/AbstractNonReentrantLockTransient.sol\":1513:1677  {... */\n      pop\n        /* \"contracts/utils/TestNonReentrantLockTransient.sol\":866:1006  function testNonReentrantLockFail() public nonReentrantLock {... */\n      jump\t// out\n        /* \"contracts/utils/TestNonReentrantLockTransient.sol\":444:556  function testNonReentrantLockSuccess() public nonReentrantLock {... */\n    tag_19:\n        /* \"contracts/utils/AbstractNonReentrantLockTransient.sol\":1523:1577  NonReentrantLockTransient.NonReentrantLock memory lock */\n      0x00\n        /* \"contracts/utils/AbstractNonReentrantLockTransient.sol\":1580:1615  NonReentrantLockTransient.getLock() */\n      tag_64\n        /* \"contracts/utils/AbstractNonReentrantLockTransient.sol\":1580:1613  NonReentrantLockTransient.getLock */\n      tag_27\n        /* \"contracts/utils/AbstractNonReentrantLockTransient.sol\":1580:1615  NonReentrantLockTransient.getLock() */\n      jump\t// in\n    tag_64:\n        /* \"contracts/utils/AbstractNonReentrantLockTransient.sol\":1523:1615  NonReentrantLockTransient.NonReentrantLock memory lock = NonReentrantLockTransient.getLock() */\n      swap1\n      pop\n        /* \"contracts/utils/AbstractNonReentrantLockTransient.sol\":1625:1636  lock.lock() */\n      tag_65\n        /* \"contracts/utils/AbstractNonReentrantLockTransient.sol\":1625:1629  lock */\n      dup2\n        /* \"contracts/utils/AbstractNonReentrantLockTransient.sol\":1625:1634  lock.lock */\n      tag_29\n        /* \"contracts/utils/AbstractNonReentrantLockTransient.sol\":1625:1636  lock.lock() */\n      jump\t// in\n    tag_65:\n        /* \"contracts/utils/TestNonReentrantLockTransient.sol\":522:549  Log(\"testNonReentrantLock\") */\n      0xcf34ef537ac33ee1ac626ca1587a0a7e8e51561e5514f8cb36afa1c5102b3bab\n      mload(0x40)\n      tag_67\n      swap1\n      tag_68\n      jump\t// in\n    tag_67:\n      mload(0x40)\n      dup1\n      swap2\n      sub\n      swap1\n      log1\n        /* \"contracts/utils/AbstractNonReentrantLockTransient.sol\":1657:1670  lock.unlock() */\n      tag_69\n        /* \"contracts/utils/AbstractNonReentrantLockTransient.sol\":1657:1661  lock */\n      dup2\n        /* \"contracts/utils/AbstractNonReentrantLockTransient.sol\":1657:1668  lock.unlock */\n      tag_39\n        /* \"contracts/utils/AbstractNonReentrantLockTransient.sol\":1657:1670  lock.unlock() */\n      jump\t// in\n    tag_69:\n        /* \"contracts/utils/AbstractNonReentrantLockTransient.sol\":1513:1677  {... */\n      pop\n        /* \"contracts/utils/TestNonReentrantLockTransient.sol\":444:556  function testNonReentrantLockSuccess() public nonReentrantLock {... */\n      jump\t// out\n        /* \"contracts/utils/TestNonReentrantLockTransient.sol\":607:770  function testNonReentrantCustomizeLockSuccess() public nonReentrantcustomizeLock(\"testNonReentrantCustomizeLock\") {... */\n    tag_21:\n        /* \"contracts/utils/AbstractNonReentrantLockTransient.sol\":1833:2031  modifier nonReentrantcustomizeLock(string memory seed) {... */\n      mload(0x40)\n      dup1\n      0x40\n      add\n      0x40\n      mstore\n      dup1\n      0x1d\n      dup2\n      mstore\n      0x20\n      add\n      0x746573744e6f6e5265656e7472616e74437573746f6d697a654c6f636b000000\n      dup2\n      mstore\n      pop\n        /* \"contracts/utils/AbstractNonReentrantLockTransient.sol\":1898:1952  NonReentrantLockTransient.NonReentrantLock memory lock */\n      0x00\n        /* \"contracts/utils/AbstractNonReentrantLockTransient.sol\":1955:1969  seed.getLock() */\n      tag_71\n        /* \"contracts/utils/AbstractNonReentrantLockTransient.sol\":1955:1959  seed */\n      dup3\n        /* \"contracts/utils/AbstractNonReentrantLockTransient.sol\":1955:1967  seed.getLock */\n      tag_42\n        /* \"contracts/utils/AbstractNonReentrantLockTransient.sol\":1955:1969  seed.getLock() */\n      jump\t// in\n    tag_71:\n        /* \"contracts/utils/AbstractNonReentrantLockTransient.sol\":1898:1969  NonReentrantLockTransient.NonReentrantLock memory lock = seed.getLock() */\n      swap1\n      pop\n        /* \"contracts/utils/AbstractNonReentrantLockTransient.sol\":1979:1990  lock.lock() */\n      tag_72\n        /* \"contracts/utils/AbstractNonReentrantLockTransient.sol\":1979:1983  lock */\n      dup2\n        /* \"contracts/utils/AbstractNonReentrantLockTransient.sol\":1979:1988  lock.lock */\n      tag_29\n        /* \"contracts/utils/AbstractNonReentrantLockTransient.sol\":1979:1990  lock.lock() */\n      jump\t// in\n    tag_72:\n        /* \"contracts/utils/TestNonReentrantLockTransient.sol\":736:763  Log(\"testNonReentrantLock\") */\n      0xcf34ef537ac33ee1ac626ca1587a0a7e8e51561e5514f8cb36afa1c5102b3bab\n      mload(0x40)\n      tag_74\n      swap1\n      tag_68\n      jump\t// in\n    tag_74:\n      mload(0x40)\n      dup1\n      swap2\n      sub\n      swap1\n      log1\n        /* \"contracts/utils/AbstractNonReentrantLockTransient.sol\":2011:2024  lock.unlock() */\n      tag_75\n        /* \"contracts/utils/AbstractNonReentrantLockTransient.sol\":2011:2015  lock */\n      dup2\n        /* \"contracts/utils/AbstractNonReentrantLockTransient.sol\":2011:2022  lock.unlock */\n      tag_39\n        /* \"contracts/utils/AbstractNonReentrantLockTransient.sol\":2011:2024  lock.unlock() */\n      jump\t// in\n    tag_75:\n        /* \"contracts/utils/AbstractNonReentrantLockTransient.sol\":1888:2031  {... */\n      pop\n        /* \"contracts/utils/TestNonReentrantLockTransient.sol\":607:770  function testNonReentrantCustomizeLockSuccess() public nonReentrantcustomizeLock(\"testNonReentrantCustomizeLock\") {... */\n      pop\n      jump\t// out\n        /* \"contracts/utils/TestNonReentrantLockTransient.sol\":2831:3379  function testCodeBlockTryLock(bool triggerLockFailure) external {... */\n    tag_24:\n        /* \"contracts/utils/TestNonReentrantLockTransient.sol\":2905:2959  NonReentrantLockTransient.NonReentrantLock memory lock */\n      0x00\n        /* \"contracts/utils/TestNonReentrantLockTransient.sol\":2962:3019  NonReentrantLockTransient.getLock(\"testCodeBlockTryLock\") */\n      tag_77\n      mload(0x40)\n      dup1\n      0x40\n      add\n      0x40\n      mstore\n      dup1\n      0x14\n      dup2\n      mstore\n      0x20\n      add\n      0x74657374436f6465426c6f636b5472794c6f636b000000000000000000000000\n      dup2\n      mstore\n      pop\n        /* \"contracts/utils/TestNonReentrantLockTransient.sol\":2962:2995  NonReentrantLockTransient.getLock */\n      tag_42\n        /* \"contracts/utils/TestNonReentrantLockTransient.sol\":2962:3019  NonReentrantLockTransient.getLock(\"testCodeBlockTryLock\") */\n      jump\t// in\n    tag_77:\n        /* \"contracts/utils/TestNonReentrantLockTransient.sol\":2905:3019  NonReentrantLockTransient.NonReentrantLock memory lock = NonReentrantLockTransient.getLock(\"testCodeBlockTryLock\") */\n      swap1\n      pop\n        /* \"contracts/utils/TestNonReentrantLockTransient.sol\":3037:3051  lock.tryLock() */\n      tag_78\n        /* \"contracts/utils/TestNonReentrantLockTransient.sol\":3037:3041  lock */\n      dup2\n        /* \"contracts/utils/TestNonReentrantLockTransient.sol\":3037:3049  lock.tryLock */\n      tag_79\n        /* \"contracts/utils/TestNonReentrantLockTransient.sol\":3037:3051  lock.tryLock() */\n      jump\t// in\n    tag_78:\n        /* \"contracts/utils/TestNonReentrantLockTransient.sol\":3029:3071  require(lock.tryLock(), \"tryLock failure\") */\n      tag_80\n      jumpi\n      mload(0x40)\n      0x08c379a000000000000000000000000000000000000000000000000000000000\n      dup2\n      mstore\n      0x04\n      add\n      tag_81\n      swap1\n      tag_82\n      jump\t// in\n    tag_81:\n      mload(0x40)\n      dup1\n      swap2\n      sub\n      swap1\n      revert\n    tag_80:\n        /* \"contracts/utils/TestNonReentrantLockTransient.sol\":3086:3113  Log(\"testCodeBlockTryLock\") */\n      0xcf34ef537ac33ee1ac626ca1587a0a7e8e51561e5514f8cb36afa1c5102b3bab\n      mload(0x40)\n      tag_83\n      swap1\n      tag_84\n      jump\t// in\n    tag_83:\n      mload(0x40)\n      dup1\n      swap2\n      sub\n      swap1\n      log1\n        /* \"contracts/utils/TestNonReentrantLockTransient.sol\":3127:3145  triggerLockFailure */\n      dup2\n        /* \"contracts/utils/TestNonReentrantLockTransient.sol\":3123:3317  if (triggerLockFailure) {... */\n      iszero\n      tag_85\n      jumpi\n        /* \"contracts/utils/TestNonReentrantLockTransient.sol\":3161:3202  _tryCodeBlockLock(\"testCodeBlockTryLock\") */\n      tag_86\n      mload(0x40)\n      dup1\n      0x40\n      add\n      0x40\n      mstore\n      dup1\n      0x14\n      dup2\n      mstore\n      0x20\n      add\n      0x74657374436f6465426c6f636b5472794c6f636b000000000000000000000000\n      dup2\n      mstore\n      pop\n        /* \"contracts/utils/TestNonReentrantLockTransient.sol\":3161:3178  _tryCodeBlockLock */\n      tag_87\n        /* \"contracts/utils/TestNonReentrantLockTransient.sol\":3161:3202  _tryCodeBlockLock(\"testCodeBlockTryLock\") */\n      jump\t// in\n    tag_86:\n        /* \"contracts/utils/TestNonReentrantLockTransient.sol\":3123:3317  if (triggerLockFailure) {... */\n      jump(tag_88)\n    tag_85:\n        /* \"contracts/utils/TestNonReentrantLockTransient.sol\":3268:3306  _getCustomizeLock(\"_tryCodeBlockLock\") */\n      tag_89\n      mload(0x40)\n      dup1\n      0x40\n      add\n      0x40\n      mstore\n      dup1\n      0x11\n      dup2\n      mstore\n      0x20\n      add\n      0x5f747279436f6465426c6f636b4c6f636b000000000000000000000000000000\n      dup2\n      mstore\n      pop\n        /* \"contracts/utils/TestNonReentrantLockTransient.sol\":3268:3285  _getCustomizeLock */\n      tag_37\n        /* \"contracts/utils/TestNonReentrantLockTransient.sol\":3268:3306  _getCustomizeLock(\"_tryCodeBlockLock\") */\n      jump\t// in\n    tag_89:\n        /* \"contracts/utils/TestNonReentrantLockTransient.sol\":3123:3317  if (triggerLockFailure) {... */\n    tag_88:\n        /* \"contracts/utils/TestNonReentrantLockTransient.sol\":3334:3350  lock.tryUnlock() */\n      tag_90\n        /* \"contracts/utils/TestNonReentrantLockTransient.sol\":3334:3338  lock */\n      dup2\n        /* \"contracts/utils/TestNonReentrantLockTransient.sol\":3334:3348  lock.tryUnlock */\n      tag_91\n        /* \"contracts/utils/TestNonReentrantLockTransient.sol\":3334:3350  lock.tryUnlock() */\n      jump\t// in\n    tag_90:\n        /* \"contracts/utils/TestNonReentrantLockTransient.sol\":3326:3372  require(lock.tryUnlock(), \"tryUnlock failure\") */\n      tag_92\n      jumpi\n      mload(0x40)\n      0x08c379a000000000000000000000000000000000000000000000000000000000\n      dup2\n      mstore\n      0x04\n      add\n      tag_93\n      swap1\n      tag_94\n      jump\t// in\n    tag_93:\n      mload(0x40)\n      dup1\n      swap2\n      sub\n      swap1\n      revert\n    tag_92:\n        /* \"contracts/utils/TestNonReentrantLockTransient.sol\":2895:3379  {... */\n      pop\n        /* \"contracts/utils/TestNonReentrantLockTransient.sol\":2831:3379  function testCodeBlockTryLock(bool triggerLockFailure) external {... */\n      pop\n      jump\t// out\n        /* \"contracts/utils/NonReentrantLockTransient.sol\":1762:1942  function getLock() internal view returns (NonReentrantLock memory) {... */\n    tag_27:\n        /* \"contracts/utils/NonReentrantLockTransient.sol\":1804:1827  NonReentrantLock memory */\n      tag_95\n      tag_96\n      jump\t// in\n    tag_95:\n        /* \"contracts/utils/NonReentrantLockTransient.sol\":1839:1851  bytes32 slot */\n      0x00\n        /* \"contracts/utils/NonReentrantLockTransient.sol\":1854:1885  DEFAULT_LOCK_SEED.erc7201Slot() */\n      tag_98\n        /* \"contracts/utils/NonReentrantLockTransient.sol\":1854:1871  DEFAULT_LOCK_SEED */\n      mload(0x40)\n      dup1\n      0x60\n      add\n      0x40\n      mstore\n      dup1\n      0x26\n      dup2\n      mstore\n      0x20\n      add\n      data_faacc88369d312f0551ab55116e7b939a3b994008b4cbf5dd194662a45dfd0c7\n      0x26\n      swap2\n      codecopy\n        /* \"contracts/utils/NonReentrantLockTransient.sol\":1854:1883  DEFAULT_LOCK_SEED.erc7201Slot */\n      tag_99\n        /* \"contracts/utils/NonReentrantLockTransient.sol\":1854:1885  DEFAULT_LOCK_SEED.erc7201Slot() */\n      jump\t// in\n    tag_98:\n        /* \"contracts/utils/NonReentrantLockTransient.sol\":1839:1885  bytes32 slot = DEFAULT_LOCK_SEED.erc7201Slot() */\n      swap1\n      pop\n        /* \"contracts/utils/NonReentrantLockTransient.sol\":1902:1935  _getLock(DEFAULT_LOCK_SEED, slot) */\n      tag_100\n        /* \"contracts/utils/NonReentrantLockTransient.sol\":1911:1928  DEFAULT_LOCK_SEED */\n      mload(0x40)\n      dup1\n      0x60\n      add\n      0x40\n      mstore\n      dup1\n      0x26\n      dup2\n      mstore\n      0x20\n      add\n      data_faacc88369d312f0551ab55116e7b939a3b994008b4cbf5dd194662a45dfd0c7\n      0x26\n      swap2\n      codecopy\n        /* \"contracts/utils/NonReentrantLockTransient.sol\":1930:1934  slot */\n      dup3\n        /* \"contracts/utils/NonReentrantLockTransient.sol\":1902:1910  _getLock */\n      tag_101\n        /* \"contracts/utils/NonReentrantLockTransient.sol\":1902:1935  _getLock(DEFAULT_LOCK_SEED, slot) */\n      jump\t// in\n    tag_100:\n        /* \"contracts/utils/NonReentrantLockTransient.sol\":1895:1935  return _getLock(DEFAULT_LOCK_SEED, slot) */\n      swap2\n      pop\n      pop\n        /* \"contracts/utils/NonReentrantLockTransient.sol\":1762:1942  function getLock() internal view returns (NonReentrantLock memory) {... */\n      swap1\n      jump\t// out\n        /* \"contracts/utils/NonReentrantLockTransient.sol\":2819:2982  function lock(NonReentrantLock memory _lock) internal {... */\n    tag_29:\n        /* \"contracts/utils/NonReentrantLockTransient.sol\":2888:2906  _tryAcquire(_lock) */\n      tag_103\n        /* \"contracts/utils/NonReentrantLockTransient.sol\":2900:2905  _lock */\n      dup2\n        /* \"contracts/utils/NonReentrantLockTransient.sol\":2888:2899  _tryAcquire */\n      tag_104\n        /* \"contracts/utils/NonReentrantLockTransient.sol\":2888:2906  _tryAcquire(_lock) */\n      jump\t// in\n    tag_103:\n        /* \"contracts/utils/NonReentrantLockTransient.sol\":2883:2976  if (!_tryAcquire(_lock)) {... */\n      tag_105\n      jumpi\n        /* \"contracts/utils/NonReentrantLockTransient.sol\":2948:2953  _lock */\n      dup1\n        /* \"contracts/utils/NonReentrantLockTransient.sol\":2948:2964  _lock._SLOT_SEED */\n      0x00\n      add\n      mload\n        /* \"contracts/utils/NonReentrantLockTransient.sol\":2929:2965  AcquireLockFailure(_lock._SLOT_SEED) */\n      mload(0x40)\n      0x0b8b113e00000000000000000000000000000000000000000000000000000000\n      dup2\n      mstore\n      0x04\n      add\n      tag_106\n      swap2\n      swap1\n      tag_107\n      jump\t// in\n    tag_106:\n      mload(0x40)\n      dup1\n      swap2\n      sub\n      swap1\n      revert\n        /* \"contracts/utils/NonReentrantLockTransient.sol\":2883:2976  if (!_tryAcquire(_lock)) {... */\n    tag_105:\n        /* \"contracts/utils/NonReentrantLockTransient.sol\":2819:2982  function lock(NonReentrantLock memory _lock) internal {... */\n      pop\n      jump\t// out\n        /* \"contracts/utils/TestNonReentrantLockTransient.sol\":2309:2536  function _getDefaultLock() private {... */\n    tag_34:\n        /* \"contracts/utils/TestNonReentrantLockTransient.sol\":2354:2408  NonReentrantLockTransient.NonReentrantLock memory lock */\n      0x00\n        /* \"contracts/utils/TestNonReentrantLockTransient.sol\":2411:2446  NonReentrantLockTransient.getLock() */\n      tag_109\n        /* \"contracts/utils/TestNonReentrantLockTransient.sol\":2411:2444  NonReentrantLockTransient.getLock */\n      tag_27\n        /* \"contracts/utils/TestNonReentrantLockTransient.sol\":2411:2446  NonReentrantLockTransient.getLock() */\n      jump\t// in\n    tag_109:\n        /* \"contracts/utils/TestNonReentrantLockTransient.sol\":2354:2446  NonReentrantLockTransient.NonReentrantLock memory lock = NonReentrantLockTransient.getLock() */\n      swap1\n      pop\n        /* \"contracts/utils/TestNonReentrantLockTransient.sol\":2456:2467  lock.lock() */\n      tag_110\n        /* \"contracts/utils/TestNonReentrantLockTransient.sol\":2456:2460  lock */\n      dup2\n        /* \"contracts/utils/TestNonReentrantLockTransient.sol\":2456:2465  lock.lock */\n      tag_29\n        /* \"contracts/utils/TestNonReentrantLockTransient.sol\":2456:2467  lock.lock() */\n      jump\t// in\n    tag_110:\n        /* \"contracts/utils/TestNonReentrantLockTransient.sol\":2482:2506  Log(\"testCodeBlockLock\") */\n      0xcf34ef537ac33ee1ac626ca1587a0a7e8e51561e5514f8cb36afa1c5102b3bab\n      mload(0x40)\n      tag_111\n      swap1\n      tag_31\n      jump\t// in\n    tag_111:\n      mload(0x40)\n      dup1\n      swap2\n      sub\n      swap1\n      log1\n        /* \"contracts/utils/TestNonReentrantLockTransient.sol\":2516:2529  lock.unlock() */\n      tag_112\n        /* \"contracts/utils/TestNonReentrantLockTransient.sol\":2516:2520  lock */\n      dup2\n        /* \"contracts/utils/TestNonReentrantLockTransient.sol\":2516:2527  lock.unlock */\n      tag_39\n        /* \"contracts/utils/TestNonReentrantLockTransient.sol\":2516:2529  lock.unlock() */\n      jump\t// in\n    tag_112:\n        /* \"contracts/utils/TestNonReentrantLockTransient.sol\":2344:2536  {... */\n      pop\n        /* \"contracts/utils/TestNonReentrantLockTransient.sol\":2309:2536  function _getDefaultLock() private {... */\n      jump\t// out\n        /* \"contracts/utils/TestNonReentrantLockTransient.sol\":2541:2825  function _getCustomizeLock(string memory lockSeed) private {... */\n    tag_37:\n        /* \"contracts/utils/TestNonReentrantLockTransient.sol\":2610:2664  NonReentrantLockTransient.NonReentrantLock memory lock */\n      0x00\n        /* \"contracts/utils/TestNonReentrantLockTransient.sol\":2667:2710  NonReentrantLockTransient.getLock(lockSeed) */\n      tag_114\n        /* \"contracts/utils/TestNonReentrantLockTransient.sol\":2701:2709  lockSeed */\n      dup3\n        /* \"contracts/utils/TestNonReentrantLockTransient.sol\":2667:2700  NonReentrantLockTransient.getLock */\n      tag_42\n        /* \"contracts/utils/TestNonReentrantLockTransient.sol\":2667:2710  NonReentrantLockTransient.getLock(lockSeed) */\n      jump\t// in\n    tag_114:\n        /* \"contracts/utils/TestNonReentrantLockTransient.sol\":2610:2710  NonReentrantLockTransient.NonReentrantLock memory lock = NonReentrantLockTransient.getLock(lockSeed) */\n      swap1\n      pop\n        /* \"contracts/utils/TestNonReentrantLockTransient.sol\":2720:2731  lock.lock() */\n      tag_115\n        /* \"contracts/utils/TestNonReentrantLockTransient.sol\":2720:2724  lock */\n      dup2\n        /* \"contracts/utils/TestNonReentrantLockTransient.sol\":2720:2729  lock.lock */\n      tag_29\n        /* \"contracts/utils/TestNonReentrantLockTransient.sol\":2720:2731  lock.lock() */\n      jump\t// in\n    tag_115:\n        /* \"contracts/utils/TestNonReentrantLockTransient.sol\":2746:2795  Log(string.concat(\"_getCustomizeLock\", lockSeed)) */\n      0xcf34ef537ac33ee1ac626ca1587a0a7e8e51561e5514f8cb36afa1c5102b3bab\n        /* \"contracts/utils/TestNonReentrantLockTransient.sol\":2785:2793  lockSeed */\n      dup3\n        /* \"contracts/utils/TestNonReentrantLockTransient.sol\":2750:2794  string.concat(\"_getCustomizeLock\", lockSeed) */\n      add(0x20, mload(0x40))\n      tag_116\n      swap2\n      swap1\n      tag_117\n      jump\t// in\n    tag_116:\n      mload(0x40)\n      0x20\n      dup2\n      dup4\n      sub\n      sub\n      dup2\n      mstore\n      swap1\n      0x40\n      mstore\n        /* \"contracts/utils/TestNonReentrantLockTransient.sol\":2746:2795  Log(string.concat(\"_getCustomizeLock\", lockSeed)) */\n      mload(0x40)\n      tag_118\n      swap2\n      swap1\n      tag_107\n      jump\t// in\n    tag_118:\n      mload(0x40)\n      dup1\n      swap2\n      sub\n      swap1\n      log1\n        /* \"contracts/utils/TestNonReentrantLockTransient.sol\":2805:2818  lock.unlock() */\n      tag_119\n        /* \"contracts/utils/TestNonReentrantLockTransient.sol\":2805:2809  lock */\n      dup2\n        /* \"contracts/utils/TestNonReentrantLockTransient.sol\":2805:2816  lock.unlock */\n      tag_39\n        /* \"contracts/utils/TestNonReentrantLockTransient.sol\":2805:2818  lock.unlock() */\n      jump\t// in\n    tag_119:\n        /* \"contracts/utils/TestNonReentrantLockTransient.sol\":2600:2825  {... */\n      pop\n        /* \"contracts/utils/TestNonReentrantLockTransient.sol\":2541:2825  function _getCustomizeLock(string memory lockSeed) private {... */\n      pop\n      jump\t// out\n        /* \"contracts/utils/NonReentrantLockTransient.sol\":3106:3266  function unlock(NonReentrantLock memory _lock) internal {... */\n    tag_39:\n        /* \"contracts/utils/NonReentrantLockTransient.sol\":3177:3195  _tryRelease(_lock) */\n      tag_121\n        /* \"contracts/utils/NonReentrantLockTransient.sol\":3189:3194  _lock */\n      dup2\n        /* \"contracts/utils/NonReentrantLockTransient.sol\":3177:3188  _tryRelease */\n      tag_122\n        /* \"contracts/utils/NonReentrantLockTransient.sol\":3177:3195  _tryRelease(_lock) */\n      jump\t// in\n    tag_121:\n        /* \"contracts/utils/NonReentrantLockTransient.sol\":3172:3260  if (!_tryRelease(_lock)) {... */\n      tag_123\n      jumpi\n        /* \"contracts/utils/NonReentrantLockTransient.sol\":3232:3237  _lock */\n      dup1\n        /* \"contracts/utils/NonReentrantLockTransient.sol\":3232:3248  _lock._SLOT_SEED */\n      0x00\n      add\n      mload\n        /* \"contracts/utils/NonReentrantLockTransient.sol\":3218:3249  UnlockFailure(_lock._SLOT_SEED) */\n      mload(0x40)\n      0xd036eb5b00000000000000000000000000000000000000000000000000000000\n      dup2\n      mstore\n      0x04\n      add\n      tag_124\n      swap2\n      swap1\n      tag_107\n      jump\t// in\n    tag_124:\n      mload(0x40)\n      dup1\n      swap2\n      sub\n      swap1\n      revert\n        /* \"contracts/utils/NonReentrantLockTransient.sol\":3172:3260  if (!_tryRelease(_lock)) {... */\n    tag_123:\n        /* \"contracts/utils/NonReentrantLockTransient.sol\":3106:3266  function unlock(NonReentrantLock memory _lock) internal {... */\n      pop\n      jump\t// out\n        /* \"contracts/utils/NonReentrantLockTransient.sol\":2164:2381  function getLock(string memory slotSeed) internal view returns (NonReentrantLock memory) {... */\n    tag_42:\n        /* \"contracts/utils/NonReentrantLockTransient.sol\":2228:2251  NonReentrantLock memory */\n      tag_125\n      tag_96\n      jump\t// in\n    tag_125:\n        /* \"contracts/utils/NonReentrantLockTransient.sol\":2263:2275  bytes32 slot */\n      0x00\n        /* \"contracts/utils/NonReentrantLockTransient.sol\":2278:2333  ERC7201_NAMESPACE.erc7201Slot().deriveMapping(slotSeed) */\n      tag_127\n        /* \"contracts/utils/NonReentrantLockTransient.sol\":2324:2332  slotSeed */\n      dup4\n        /* \"contracts/utils/NonReentrantLockTransient.sol\":2278:2309  ERC7201_NAMESPACE.erc7201Slot() */\n      tag_128\n        /* \"contracts/utils/NonReentrantLockTransient.sol\":2278:2295  ERC7201_NAMESPACE */\n      mload(0x40)\n      dup1\n      0x60\n      add\n      0x40\n      mstore\n      dup1\n      0x23\n      dup2\n      mstore\n      0x20\n      add\n      data_78bd68c7aad5ccee14efdb1ff7a7cc09b75c500c33c172544d24c92d311e0b5b\n      0x23\n      swap2\n      codecopy\n        /* \"contracts/utils/NonReentrantLockTransient.sol\":2278:2307  ERC7201_NAMESPACE.erc7201Slot */\n      tag_99\n        /* \"contracts/utils/NonReentrantLockTransient.sol\":2278:2309  ERC7201_NAMESPACE.erc7201Slot() */\n      jump\t// in\n    tag_128:\n        /* \"contracts/utils/NonReentrantLockTransient.sol\":2278:2323  ERC7201_NAMESPACE.erc7201Slot().deriveMapping */\n      tag_129\n      swap1\n        /* \"contracts/utils/NonReentrantLockTransient.sol\":2278:2333  ERC7201_NAMESPACE.erc7201Slot().deriveMapping(slotSeed) */\n      swap2\n      swap1\n      0xffffffff\n      and\n      jump\t// in\n    tag_127:\n        /* \"contracts/utils/NonReentrantLockTransient.sol\":2263:2333  bytes32 slot = ERC7201_NAMESPACE.erc7201Slot().deriveMapping(slotSeed) */\n      swap1\n      pop\n        /* \"contracts/utils/NonReentrantLockTransient.sol\":2350:2374  _getLock(slotSeed, slot) */\n      tag_130\n        /* \"contracts/utils/NonReentrantLockTransient.sol\":2359:2367  slotSeed */\n      dup4\n        /* \"contracts/utils/NonReentrantLockTransient.sol\":2369:2373  slot */\n      dup3\n        /* \"contracts/utils/NonReentrantLockTransient.sol\":2350:2358  _getLock */\n      tag_101\n        /* \"contracts/utils/NonReentrantLockTransient.sol\":2350:2374  _getLock(slotSeed, slot) */\n      jump\t// in\n    tag_130:\n        /* \"contracts/utils/NonReentrantLockTransient.sol\":2343:2374  return _getLock(slotSeed, slot) */\n      swap2\n      pop\n      pop\n        /* \"contracts/utils/NonReentrantLockTransient.sol\":2164:2381  function getLock(string memory slotSeed) internal view returns (NonReentrantLock memory) {... */\n      swap2\n      swap1\n      pop\n      jump\t// out\n        /* \"contracts/utils/TestNonReentrantLockTransient.sol\":1495:1649  function _useCustomizeSameLock() private nonReentrantcustomizeLock(\"testNonReentrantCustomizeLockFail\") {... */\n    tag_49:\n        /* \"contracts/utils/AbstractNonReentrantLockTransient.sol\":1833:2031  modifier nonReentrantcustomizeLock(string memory seed) {... */\n      mload(0x40)\n      dup1\n      0x60\n      add\n      0x40\n      mstore\n      dup1\n      0x21\n      dup2\n      mstore\n      0x20\n      add\n      data_71eb6b56e6bc75391686fe67e966306f806b048a456c03623c5c82cb980d186f\n      0x21\n      swap2\n      codecopy\n        /* \"contracts/utils/AbstractNonReentrantLockTransient.sol\":1898:1952  NonReentrantLockTransient.NonReentrantLock memory lock */\n      0x00\n        /* \"contracts/utils/AbstractNonReentrantLockTransient.sol\":1955:1969  seed.getLock() */\n      tag_132\n        /* \"contracts/utils/AbstractNonReentrantLockTransient.sol\":1955:1959  seed */\n      dup3\n        /* \"contracts/utils/AbstractNonReentrantLockTransient.sol\":1955:1967  seed.getLock */\n      tag_42\n        /* \"contracts/utils/AbstractNonReentrantLockTransient.sol\":1955:1969  seed.getLock() */\n      jump\t// in\n    tag_132:\n        /* \"contracts/utils/AbstractNonReentrantLockTransient.sol\":1898:1969  NonReentrantLockTransient.NonReentrantLock memory lock = seed.getLock() */\n      swap1\n      pop\n        /* \"contracts/utils/AbstractNonReentrantLockTransient.sol\":1979:1990  lock.lock() */\n      tag_133\n        /* \"contracts/utils/AbstractNonReentrantLockTransient.sol\":1979:1983  lock */\n      dup2\n        /* \"contracts/utils/AbstractNonReentrantLockTransient.sol\":1979:1988  lock.lock */\n      tag_29\n        /* \"contracts/utils/AbstractNonReentrantLockTransient.sol\":1979:1990  lock.lock() */\n      jump\t// in\n    tag_133:\n        /* \"contracts/utils/TestNonReentrantLockTransient.sol\":1614:1642  Log(\"_useCustomizeSameLock\") */\n      0xcf34ef537ac33ee1ac626ca1587a0a7e8e51561e5514f8cb36afa1c5102b3bab\n      mload(0x40)\n      tag_135\n      swap1\n      tag_136\n      jump\t// in\n    tag_135:\n      mload(0x40)\n      dup1\n      swap2\n      sub\n      swap1\n      log1\n        /* \"contracts/utils/AbstractNonReentrantLockTransient.sol\":2011:2024  lock.unlock() */\n      tag_137\n        /* \"contracts/utils/AbstractNonReentrantLockTransient.sol\":2011:2015  lock */\n      dup2\n        /* \"contracts/utils/AbstractNonReentrantLockTransient.sol\":2011:2022  lock.unlock */\n      tag_39\n        /* \"contracts/utils/AbstractNonReentrantLockTransient.sol\":2011:2024  lock.unlock() */\n      jump\t// in\n    tag_137:\n        /* \"contracts/utils/AbstractNonReentrantLockTransient.sol\":1888:2031  {... */\n      pop\n        /* \"contracts/utils/TestNonReentrantLockTransient.sol\":1495:1649  function _useCustomizeSameLock() private nonReentrantcustomizeLock(\"testNonReentrantCustomizeLockFail\") {... */\n      pop\n      jump\t// out\n        /* \"contracts/utils/TestNonReentrantLockTransient.sol\":1655:1799  function _useCustomizeDifferentLock() private nonReentrantcustomizeLock(\"differentLock\") {... */\n    tag_52:\n        /* \"contracts/utils/AbstractNonReentrantLockTransient.sol\":1833:2031  modifier nonReentrantcustomizeLock(string memory seed) {... */\n      mload(0x40)\n      dup1\n      0x40\n      add\n      0x40\n      mstore\n      dup1\n      0x0d\n      dup2\n      mstore\n      0x20\n      add\n      0x646966666572656e744c6f636b00000000000000000000000000000000000000\n      dup2\n      mstore\n      pop\n        /* \"contracts/utils/AbstractNonReentrantLockTransient.sol\":1898:1952  NonReentrantLockTransient.NonReentrantLock memory lock */\n      0x00\n        /* \"contracts/utils/AbstractNonReentrantLockTransient.sol\":1955:1969  seed.getLock() */\n      tag_139\n        /* \"contracts/utils/AbstractNonReentrantLockTransient.sol\":1955:1959  seed */\n      dup3\n        /* \"contracts/utils/AbstractNonReentrantLockTransient.sol\":1955:1967  seed.getLock */\n      tag_42\n        /* \"contracts/utils/AbstractNonReentrantLockTransient.sol\":1955:1969  seed.getLock() */\n      jump\t// in\n    tag_139:\n        /* \"contracts/utils/AbstractNonReentrantLockTransient.sol\":1898:1969  NonReentrantLockTransient.NonReentrantLock memory lock = seed.getLock() */\n      swap1\n      pop\n        /* \"contracts/utils/AbstractNonReentrantLockTransient.sol\":1979:1990  lock.lock() */\n      tag_140\n        /* \"contracts/utils/AbstractNonReentrantLockTransient.sol\":1979:1983  lock */\n      dup2\n        /* \"contracts/utils/AbstractNonReentrantLockTransient.sol\":1979:1988  lock.lock */\n      tag_29\n        /* \"contracts/utils/AbstractNonReentrantLockTransient.sol\":1979:1990  lock.lock() */\n      jump\t// in\n    tag_140:\n        /* \"contracts/utils/TestNonReentrantLockTransient.sol\":1759:1792  Log(\"_useCustomizeDifferentLock\") */\n      0xcf34ef537ac33ee1ac626ca1587a0a7e8e51561e5514f8cb36afa1c5102b3bab\n      mload(0x40)\n      tag_142\n      swap1\n      tag_143\n      jump\t// in\n    tag_142:\n      mload(0x40)\n      dup1\n      swap2\n      sub\n      swap1\n      log1\n        /* \"contracts/utils/AbstractNonReentrantLockTransient.sol\":2011:2024  lock.unlock() */\n      tag_144\n        /* \"contracts/utils/AbstractNonReentrantLockTransient.sol\":2011:2015  lock */\n      dup2\n        /* \"contracts/utils/AbstractNonReentrantLockTransient.sol\":2011:2022  lock.unlock */\n      tag_39\n        /* \"contracts/utils/AbstractNonReentrantLockTransient.sol\":2011:2024  lock.unlock() */\n      jump\t// in\n    tag_144:\n        /* \"contracts/utils/AbstractNonReentrantLockTransient.sol\":1888:2031  {... */\n      pop\n        /* \"contracts/utils/TestNonReentrantLockTransient.sol\":1655:1799  function _useCustomizeDifferentLock() private nonReentrantcustomizeLock(\"differentLock\") {... */\n      pop\n      jump\t// out\n        /* \"contracts/utils/TestNonReentrantLockTransient.sol\":1012:1130  function _useDefaultLock() private {... */\n    tag_61:\n        /* \"contracts/utils/TestNonReentrantLockTransient.sol\":1062:1084  Log(\"_useDefaultLock\") */\n      0xcf34ef537ac33ee1ac626ca1587a0a7e8e51561e5514f8cb36afa1c5102b3bab\n      mload(0x40)\n      tag_146\n      swap1\n      tag_147\n      jump\t// in\n    tag_146:\n      mload(0x40)\n      dup1\n      swap2\n      sub\n      swap1\n      log1\n        /* \"contracts/utils/TestNonReentrantLockTransient.sol\":1094:1123  testNonReentrantLockSuccess() */\n      tag_148\n        /* \"contracts/utils/TestNonReentrantLockTransient.sol\":1094:1121  testNonReentrantLockSuccess */\n      tag_19\n        /* \"contracts/utils/TestNonReentrantLockTransient.sol\":1094:1123  testNonReentrantLockSuccess() */\n      jump\t// in\n    tag_148:\n        /* \"contracts/utils/TestNonReentrantLockTransient.sol\":1012:1130  function _useDefaultLock() private {... */\n      jump\t// out\n        /* \"contracts/utils/NonReentrantLockTransient.sol\":3419:3533  function tryLock(NonReentrantLock memory _lock) internal returns (bool) {... */\n    tag_79:\n        /* \"contracts/utils/NonReentrantLockTransient.sol\":3485:3489  bool */\n      0x00\n        /* \"contracts/utils/NonReentrantLockTransient.sol\":3508:3526  _tryAcquire(_lock) */\n      tag_150\n        /* \"contracts/utils/NonReentrantLockTransient.sol\":3520:3525  _lock */\n      dup3\n        /* \"contracts/utils/NonReentrantLockTransient.sol\":3508:3519  _tryAcquire */\n      tag_104\n        /* \"contracts/utils/NonReentrantLockTransient.sol\":3508:3526  _tryAcquire(_lock) */\n      jump\t// in\n    tag_150:\n        /* \"contracts/utils/NonReentrantLockTransient.sol\":3501:3526  return _tryAcquire(_lock) */\n      swap1\n      pop\n        /* \"contracts/utils/NonReentrantLockTransient.sol\":3419:3533  function tryLock(NonReentrantLock memory _lock) internal returns (bool) {... */\n      swap2\n      swap1\n      pop\n      jump\t// out\n        /* \"contracts/utils/TestNonReentrantLockTransient.sol\":3384:3707  function _tryCodeBlockLock(string memory lockSeed) private {... */\n    tag_87:\n        /* \"contracts/utils/TestNonReentrantLockTransient.sol\":3453:3507  NonReentrantLockTransient.NonReentrantLock memory lock */\n      0x00\n        /* \"contracts/utils/TestNonReentrantLockTransient.sol\":3510:3553  NonReentrantLockTransient.getLock(lockSeed) */\n      tag_152\n        /* \"contracts/utils/TestNonReentrantLockTransient.sol\":3544:3552  lockSeed */\n      dup3\n        /* \"contracts/utils/TestNonReentrantLockTransient.sol\":3510:3543  NonReentrantLockTransient.getLock */\n      tag_42\n        /* \"contracts/utils/TestNonReentrantLockTransient.sol\":3510:3553  NonReentrantLockTransient.getLock(lockSeed) */\n      jump\t// in\n    tag_152:\n        /* \"contracts/utils/TestNonReentrantLockTransient.sol\":3453:3553  NonReentrantLockTransient.NonReentrantLock memory lock = NonReentrantLockTransient.getLock(lockSeed) */\n      swap1\n      pop\n        /* \"contracts/utils/TestNonReentrantLockTransient.sol\":3571:3585  lock.tryLock() */\n      tag_153\n        /* \"contracts/utils/TestNonReentrantLockTransient.sol\":3571:3575  lock */\n      dup2\n        /* \"contracts/utils/TestNonReentrantLockTransient.sol\":3571:3583  lock.tryLock */\n      tag_79\n        /* \"contracts/utils/TestNonReentrantLockTransient.sol\":3571:3585  lock.tryLock() */\n      jump\t// in\n    tag_153:\n        /* \"contracts/utils/TestNonReentrantLockTransient.sol\":3563:3605  require(lock.tryLock(), \"tryLock failure\") */\n      tag_154\n      jumpi\n      mload(0x40)\n      0x08c379a000000000000000000000000000000000000000000000000000000000\n      dup2\n      mstore\n      0x04\n      add\n      tag_155\n      swap1\n      tag_82\n      jump\t// in\n    tag_155:\n      mload(0x40)\n      dup1\n      swap2\n      sub\n      swap1\n      revert\n    tag_154:\n        /* \"contracts/utils/TestNonReentrantLockTransient.sol\":3620:3644  Log(\"_tryCodeBlockLock\") */\n      0xcf34ef537ac33ee1ac626ca1587a0a7e8e51561e5514f8cb36afa1c5102b3bab\n      mload(0x40)\n      tag_156\n      swap1\n      tag_157\n      jump\t// in\n    tag_156:\n      mload(0x40)\n      dup1\n      swap2\n      sub\n      swap1\n      log1\n        /* \"contracts/utils/TestNonReentrantLockTransient.sol\":3662:3678  lock.tryUnlock() */\n      tag_158\n        /* \"contracts/utils/TestNonReentrantLockTransient.sol\":3662:3666  lock */\n      dup2\n        /* \"contracts/utils/TestNonReentrantLockTransient.sol\":3662:3676  lock.tryUnlock */\n      tag_91\n        /* \"contracts/utils/TestNonReentrantLockTransient.sol\":3662:3678  lock.tryUnlock() */\n      jump\t// in\n    tag_158:\n        /* \"contracts/utils/TestNonReentrantLockTransient.sol\":3654:3700  require(lock.tryUnlock(), \"tryUnlock failure\") */\n      tag_159\n      jumpi\n      mload(0x40)\n      0x08c379a000000000000000000000000000000000000000000000000000000000\n      dup2\n      mstore\n      0x04\n      add\n      tag_160\n      swap1\n      tag_94\n      jump\t// in\n    tag_160:\n      mload(0x40)\n      dup1\n      swap2\n      sub\n      swap1\n      revert\n    tag_159:\n        /* \"contracts/utils/TestNonReentrantLockTransient.sol\":3443:3707  {... */\n      pop\n        /* \"contracts/utils/TestNonReentrantLockTransient.sol\":3384:3707  function _tryCodeBlockLock(string memory lockSeed) private {... */\n      pop\n      jump\t// out\n        /* \"contracts/utils/NonReentrantLockTransient.sol\":3686:3802  function tryUnlock(NonReentrantLock memory _lock) internal returns (bool) {... */\n    tag_91:\n        /* \"contracts/utils/NonReentrantLockTransient.sol\":3754:3758  bool */\n      0x00\n        /* \"contracts/utils/NonReentrantLockTransient.sol\":3777:3795  _tryRelease(_lock) */\n      tag_162\n        /* \"contracts/utils/NonReentrantLockTransient.sol\":3789:3794  _lock */\n      dup3\n        /* \"contracts/utils/NonReentrantLockTransient.sol\":3777:3788  _tryRelease */\n      tag_122\n        /* \"contracts/utils/NonReentrantLockTransient.sol\":3777:3795  _tryRelease(_lock) */\n      jump\t// in\n    tag_162:\n        /* \"contracts/utils/NonReentrantLockTransient.sol\":3770:3795  return _tryRelease(_lock) */\n      swap1\n      pop\n        /* \"contracts/utils/NonReentrantLockTransient.sol\":3686:3802  function tryUnlock(NonReentrantLock memory _lock) internal returns (bool) {... */\n      swap2\n      swap1\n      pop\n      jump\t// out\n        /* \"@openzeppelin/contracts/utils/SlotDerivation.sol\":1706:1983  function erc7201Slot(string memory namespace) internal pure returns (bytes32 slot) {... */\n    tag_99:\n        /* \"@openzeppelin/contracts/utils/SlotDerivation.sol\":1775:1787  bytes32 slot */\n      0x00\n        /* \"@openzeppelin/contracts/utils/SlotDerivation.sol\":1906:1907  1 */\n      0x01\n        /* \"@openzeppelin/contracts/utils/SlotDerivation.sol\":1893:1902  namespace */\n      dup3\n        /* \"@openzeppelin/contracts/utils/SlotDerivation.sol\":1887:1903  mload(namespace) */\n      mload\n        /* \"@openzeppelin/contracts/utils/SlotDerivation.sol\":1880:1884  0x20 */\n      0x20\n        /* \"@openzeppelin/contracts/utils/SlotDerivation.sol\":1869:1878  namespace */\n      dup5\n        /* \"@openzeppelin/contracts/utils/SlotDerivation.sol\":1865:1885  add(namespace, 0x20) */\n      add\n        /* \"@openzeppelin/contracts/utils/SlotDerivation.sol\":1855:1904  keccak256(add(namespace, 0x20), mload(namespace)) */\n      keccak256\n        /* \"@openzeppelin/contracts/utils/SlotDerivation.sol\":1851:1908  sub(keccak256(add(namespace, 0x20), mload(namespace)), 1) */\n      sub\n        /* \"@openzeppelin/contracts/utils/SlotDerivation.sol\":1845:1849  0x00 */\n      0x00\n        /* \"@openzeppelin/contracts/utils/SlotDerivation.sol\":1838:1909  mstore(0x00, sub(keccak256(add(namespace, 0x20), mload(namespace)), 1)) */\n      mstore\n        /* \"@openzeppelin/contracts/utils/SlotDerivation.sol\":1961:1965  0xff */\n      0xff\n        /* \"@openzeppelin/contracts/utils/SlotDerivation.sol\":1957:1966  not(0xff) */\n      not\n        /* \"@openzeppelin/contracts/utils/SlotDerivation.sol\":1950:1954  0x20 */\n      0x20\n        /* \"@openzeppelin/contracts/utils/SlotDerivation.sol\":1944:1948  0x00 */\n      0x00\n        /* \"@openzeppelin/contracts/utils/SlotDerivation.sol\":1934:1955  keccak256(0x00, 0x20) */\n      keccak256\n        /* \"@openzeppelin/contracts/utils/SlotDerivation.sol\":1930:1967  and(keccak256(0x00, 0x20), not(0xff)) */\n      and\n        /* \"@openzeppelin/contracts/utils/SlotDerivation.sol\":1922:1967  slot := and(keccak256(0x00, 0x20), not(0xff)) */\n      swap1\n      pop\n        /* \"@openzeppelin/contracts/utils/SlotDerivation.sol\":1706:1983  function erc7201Slot(string memory namespace) internal pure returns (bytes32 slot) {... */\n      swap2\n      swap1\n      pop\n      jump\t// out\n        /* \"contracts/utils/NonReentrantLockTransient.sol\":2387:2696  function _getLock(string memory slotSeed, bytes32 slot) private view returns (NonReentrantLock memory) {... */\n    tag_101:\n        /* \"contracts/utils/NonReentrantLockTransient.sol\":2465:2488  NonReentrantLock memory */\n      tag_164\n      tag_96\n      jump\t// in\n    tag_164:\n        /* \"contracts/utils/NonReentrantLockTransient.sol\":2500:2534  TransientSlot.BooleanSlot boolSlot */\n      0x00\n        /* \"contracts/utils/NonReentrantLockTransient.sol\":2537:2553  slot.asBoolean() */\n      tag_166\n        /* \"contracts/utils/NonReentrantLockTransient.sol\":2537:2541  slot */\n      dup4\n        /* \"contracts/utils/NonReentrantLockTransient.sol\":2537:2551  slot.asBoolean */\n      tag_167\n        /* \"contracts/utils/NonReentrantLockTransient.sol\":2537:2553  slot.asBoolean() */\n      jump\t// in\n    tag_166:\n        /* \"contracts/utils/NonReentrantLockTransient.sol\":2500:2553  TransientSlot.BooleanSlot boolSlot = slot.asBoolean() */\n      swap1\n      pop\n        /* \"contracts/utils/NonReentrantLockTransient.sol\":2567:2583  boolSlot.tload() */\n      tag_168\n        /* \"contracts/utils/NonReentrantLockTransient.sol\":2567:2575  boolSlot */\n      dup2\n        /* \"contracts/utils/NonReentrantLockTransient.sol\":2567:2581  boolSlot.tload */\n      tag_169\n        /* \"contracts/utils/NonReentrantLockTransient.sol\":2567:2583  boolSlot.tload() */\n      jump\t// in\n    tag_168:\n        /* \"contracts/utils/NonReentrantLockTransient.sol\":2563:2641  if (boolSlot.tload()) {... */\n      iszero\n      tag_170\n      jumpi\n        /* \"contracts/utils/NonReentrantLockTransient.sol\":2621:2629  slotSeed */\n      dup4\n        /* \"contracts/utils/NonReentrantLockTransient.sol\":2606:2630  GetLockFailure(slotSeed) */\n      mload(0x40)\n      0x0f538feb00000000000000000000000000000000000000000000000000000000\n      dup2\n      mstore\n      0x04\n      add\n      tag_171\n      swap2\n      swap1\n      tag_107\n      jump\t// in\n    tag_171:\n      mload(0x40)\n      dup1\n      swap2\n      sub\n      swap1\n      revert\n        /* \"contracts/utils/NonReentrantLockTransient.sol\":2563:2641  if (boolSlot.tload()) {... */\n    tag_170:\n        /* \"contracts/utils/NonReentrantLockTransient.sol\":2657:2689  NonReentrantLock(slotSeed, slot) */\n      mload(0x40)\n      dup1\n      0x40\n      add\n      0x40\n      mstore\n      dup1\n        /* \"contracts/utils/NonReentrantLockTransient.sol\":2674:2682  slotSeed */\n      dup6\n        /* \"contracts/utils/NonReentrantLockTransient.sol\":2657:2689  NonReentrantLock(slotSeed, slot) */\n      dup2\n      mstore\n      0x20\n      add\n        /* \"contracts/utils/NonReentrantLockTransient.sol\":2684:2688  slot */\n      dup5\n        /* \"contracts/utils/NonReentrantLockTransient.sol\":2657:2689  NonReentrantLock(slotSeed, slot) */\n      dup2\n      mstore\n      pop\n        /* \"contracts/utils/NonReentrantLockTransient.sol\":2650:2689  return NonReentrantLock(slotSeed, slot) */\n      swap2\n      pop\n      pop\n        /* \"contracts/utils/NonReentrantLockTransient.sol\":2387:2696  function _getLock(string memory slotSeed, bytes32 slot) private view returns (NonReentrantLock memory) {... */\n      swap3\n      swap2\n      pop\n      pop\n      jump\t// out\n        /* \"contracts/utils/NonReentrantLockTransient.sol\":3808:4085  function _tryAcquire(NonReentrantLock memory _lock) private returns (bool) {... */\n    tag_104:\n        /* \"contracts/utils/NonReentrantLockTransient.sol\":3877:3881  bool */\n      0x00\n        /* \"contracts/utils/NonReentrantLockTransient.sol\":3893:3927  TransientSlot.BooleanSlot boolSlot */\n      dup1\n        /* \"contracts/utils/NonReentrantLockTransient.sol\":3930:3958  _lock._LOCK_SLOT.asBoolean() */\n      tag_173\n        /* \"contracts/utils/NonReentrantLockTransient.sol\":3930:3935  _lock */\n      dup4\n        /* \"contracts/utils/NonReentrantLockTransient.sol\":3930:3946  _lock._LOCK_SLOT */\n      0x20\n      add\n      mload\n        /* \"contracts/utils/NonReentrantLockTransient.sol\":3930:3956  _lock._LOCK_SLOT.asBoolean */\n      tag_167\n        /* \"contracts/utils/NonReentrantLockTransient.sol\":3930:3958  _lock._LOCK_SLOT.asBoolean() */\n      jump\t// in\n    tag_173:\n        /* \"contracts/utils/NonReentrantLockTransient.sol\":3893:3958  TransientSlot.BooleanSlot boolSlot = _lock._LOCK_SLOT.asBoolean() */\n      swap1\n      pop\n        /* \"contracts/utils/NonReentrantLockTransient.sol\":3972:3988  boolSlot.tload() */\n      tag_174\n        /* \"contracts/utils/NonReentrantLockTransient.sol\":3972:3980  boolSlot */\n      dup2\n        /* \"contracts/utils/NonReentrantLockTransient.sol\":3972:3986  boolSlot.tload */\n      tag_169\n        /* \"contracts/utils/NonReentrantLockTransient.sol\":3972:3988  boolSlot.tload() */\n      jump\t// in\n    tag_174:\n        /* \"contracts/utils/NonReentrantLockTransient.sol\":3968:4027  if (boolSlot.tload()) {... */\n      iszero\n      tag_175\n      jumpi\n        /* \"contracts/utils/NonReentrantLockTransient.sol\":4011:4016  false */\n      0x00\n        /* \"contracts/utils/NonReentrantLockTransient.sol\":4004:4016  return false */\n      swap2\n      pop\n      pop\n      jump(tag_172)\n        /* \"contracts/utils/NonReentrantLockTransient.sol\":3968:4027  if (boolSlot.tload()) {... */\n    tag_175:\n        /* \"contracts/utils/NonReentrantLockTransient.sol\":4036:4057  boolSlot.tstore(true) */\n      tag_176\n        /* \"contracts/utils/NonReentrantLockTransient.sol\":4052:4056  true */\n      0x01\n        /* \"contracts/utils/NonReentrantLockTransient.sol\":4036:4044  boolSlot */\n      dup3\n        /* \"contracts/utils/NonReentrantLockTransient.sol\":4036:4051  boolSlot.tstore */\n      tag_177\n      swap1\n        /* \"contracts/utils/NonReentrantLockTransient.sol\":4036:4057  boolSlot.tstore(true) */\n      swap2\n      swap1\n      0xffffffff\n      and\n      jump\t// in\n    tag_176:\n        /* \"contracts/utils/NonReentrantLockTransient.sol\":4074:4078  true */\n      0x01\n        /* \"contracts/utils/NonReentrantLockTransient.sol\":4067:4078  return true */\n      swap2\n      pop\n      pop\n        /* \"contracts/utils/NonReentrantLockTransient.sol\":3808:4085  function _tryAcquire(NonReentrantLock memory _lock) private returns (bool) {... */\n    tag_172:\n      swap2\n      swap1\n      pop\n      jump\t// out\n        /* \"contracts/utils/NonReentrantLockTransient.sol\":4091:4370  function _tryRelease(NonReentrantLock memory _lock) private returns (bool) {... */\n    tag_122:\n        /* \"contracts/utils/NonReentrantLockTransient.sol\":4160:4164  bool */\n      0x00\n        /* \"contracts/utils/NonReentrantLockTransient.sol\":4176:4210  TransientSlot.BooleanSlot boolSlot */\n      dup1\n        /* \"contracts/utils/NonReentrantLockTransient.sol\":4213:4241  _lock._LOCK_SLOT.asBoolean() */\n      tag_179\n        /* \"contracts/utils/NonReentrantLockTransient.sol\":4213:4218  _lock */\n      dup4\n        /* \"contracts/utils/NonReentrantLockTransient.sol\":4213:4229  _lock._LOCK_SLOT */\n      0x20\n      add\n      mload\n        /* \"contracts/utils/NonReentrantLockTransient.sol\":4213:4239  _lock._LOCK_SLOT.asBoolean */\n      tag_167\n        /* \"contracts/utils/NonReentrantLockTransient.sol\":4213:4241  _lock._LOCK_SLOT.asBoolean() */\n      jump\t// in\n    tag_179:\n        /* \"contracts/utils/NonReentrantLockTransient.sol\":4176:4241  TransientSlot.BooleanSlot boolSlot = _lock._LOCK_SLOT.asBoolean() */\n      swap1\n      pop\n        /* \"contracts/utils/NonReentrantLockTransient.sol\":4256:4272  boolSlot.tload() */\n      tag_180\n        /* \"contracts/utils/NonReentrantLockTransient.sol\":4256:4264  boolSlot */\n      dup2\n        /* \"contracts/utils/NonReentrantLockTransient.sol\":4256:4270  boolSlot.tload */\n      tag_169\n        /* \"contracts/utils/NonReentrantLockTransient.sol\":4256:4272  boolSlot.tload() */\n      jump\t// in\n    tag_180:\n        /* \"contracts/utils/NonReentrantLockTransient.sol\":4251:4311  if (!boolSlot.tload()) {... */\n      tag_181\n      jumpi\n        /* \"contracts/utils/NonReentrantLockTransient.sol\":4295:4300  false */\n      0x00\n        /* \"contracts/utils/NonReentrantLockTransient.sol\":4288:4300  return false */\n      swap2\n      pop\n      pop\n      jump(tag_178)\n        /* \"contracts/utils/NonReentrantLockTransient.sol\":4251:4311  if (!boolSlot.tload()) {... */\n    tag_181:\n        /* \"contracts/utils/NonReentrantLockTransient.sol\":4320:4342  boolSlot.tstore(false) */\n      tag_182\n        /* \"contracts/utils/NonReentrantLockTransient.sol\":4336:4341  false */\n      0x00\n        /* \"contracts/utils/NonReentrantLockTransient.sol\":4320:4328  boolSlot */\n      dup3\n        /* \"contracts/utils/NonReentrantLockTransient.sol\":4320:4335  boolSlot.tstore */\n      tag_177\n      swap1\n        /* \"contracts/utils/NonReentrantLockTransient.sol\":4320:4342  boolSlot.tstore(false) */\n      swap2\n      swap1\n      0xffffffff\n      and\n      jump\t// in\n    tag_182:\n        /* \"contracts/utils/NonReentrantLockTransient.sol\":4359:4363  true */\n      0x01\n        /* \"contracts/utils/NonReentrantLockTransient.sol\":4352:4363  return true */\n      swap2\n      pop\n      pop\n        /* \"contracts/utils/NonReentrantLockTransient.sol\":4091:4370  function _tryRelease(NonReentrantLock memory _lock) private returns (bool) {... */\n    tag_178:\n      swap2\n      swap1\n      pop\n      jump\t// out\n        /* \"@openzeppelin/contracts/utils/SlotDerivation.sol\":4389:4810  function deriveMapping(bytes32 slot, string memory key) internal pure returns (bytes32 result) {... */\n    tag_129:\n        /* \"@openzeppelin/contracts/utils/SlotDerivation.sol\":4468:4482  bytes32 result */\n      0x00\n        /* \"@openzeppelin/contracts/utils/SlotDerivation.sol\":4553:4556  key */\n      dup2\n        /* \"@openzeppelin/contracts/utils/SlotDerivation.sol\":4547:4557  mload(key) */\n      mload\n        /* \"@openzeppelin/contracts/utils/SlotDerivation.sol\":4592:4596  0x20 */\n      0x20\n        /* \"@openzeppelin/contracts/utils/SlotDerivation.sol\":4587:4590  key */\n      dup4\n        /* \"@openzeppelin/contracts/utils/SlotDerivation.sol\":4583:4597  add(key, 0x20) */\n      add\n        /* \"@openzeppelin/contracts/utils/SlotDerivation.sol\":4632:4638  length */\n      dup2\n        /* \"@openzeppelin/contracts/utils/SlotDerivation.sol\":4625:4630  begin */\n      dup2\n        /* \"@openzeppelin/contracts/utils/SlotDerivation.sol\":4621:4639  add(begin, length) */\n      add\n        /* \"@openzeppelin/contracts/utils/SlotDerivation.sol\":4671:4674  end */\n      dup1\n        /* \"@openzeppelin/contracts/utils/SlotDerivation.sol\":4665:4675  mload(end) */\n      mload\n        /* \"@openzeppelin/contracts/utils/SlotDerivation.sol\":4700:4704  slot */\n      dup7\n        /* \"@openzeppelin/contracts/utils/SlotDerivation.sol\":4695:4698  end */\n      dup3\n        /* \"@openzeppelin/contracts/utils/SlotDerivation.sol\":4688:4705  mstore(end, slot) */\n      mstore\n        /* \"@openzeppelin/contracts/utils/SlotDerivation.sol\":4757:4761  0x20 */\n      0x20\n        /* \"@openzeppelin/contracts/utils/SlotDerivation.sol\":4749:4755  length */\n      dup5\n        /* \"@openzeppelin/contracts/utils/SlotDerivation.sol\":4745:4762  add(length, 0x20) */\n      add\n        /* \"@openzeppelin/contracts/utils/SlotDerivation.sol\":4738:4743  begin */\n      dup4\n        /* \"@openzeppelin/contracts/utils/SlotDerivation.sol\":4728:4763  keccak256(begin, add(length, 0x20)) */\n      keccak256\n        /* \"@openzeppelin/contracts/utils/SlotDerivation.sol\":4718:4763  result := keccak256(begin, add(length, 0x20)) */\n      swap5\n      pop\n        /* \"@openzeppelin/contracts/utils/SlotDerivation.sol\":4788:4793  cache */\n      dup1\n        /* \"@openzeppelin/contracts/utils/SlotDerivation.sol\":4783:4786  end */\n      dup3\n        /* \"@openzeppelin/contracts/utils/SlotDerivation.sol\":4776:4794  mstore(end, cache) */\n      mstore\n        /* \"@openzeppelin/contracts/utils/SlotDerivation.sol\":4519:4804  {... */\n      pop\n      pop\n      pop\n      pop\n        /* \"@openzeppelin/contracts/utils/SlotDerivation.sol\":4389:4810  function deriveMapping(bytes32 slot, string memory key) internal pure returns (bytes32 result) {... */\n      swap3\n      swap2\n      pop\n      pop\n      jump\t// out\n        /* \"@openzeppelin/contracts/utils/TransientSlot.sol\":1663:1778  function asBoolean(bytes32 slot) internal pure returns (BooleanSlot) {... */\n    tag_167:\n        /* \"@openzeppelin/contracts/utils/TransientSlot.sol\":1719:1730  BooleanSlot */\n      0x00\n        /* \"@openzeppelin/contracts/utils/TransientSlot.sol\":1766:1770  slot */\n      dup2\n        /* \"@openzeppelin/contracts/utils/TransientSlot.sol\":1742:1771  return BooleanSlot.wrap(slot) */\n      swap1\n      pop\n        /* \"@openzeppelin/contracts/utils/TransientSlot.sol\":1663:1778  function asBoolean(bytes32 slot) internal pure returns (BooleanSlot) {... */\n      swap2\n      swap1\n      pop\n      jump\t// out\n        /* \"@openzeppelin/contracts/utils/TransientSlot.sol\":3243:3396  function tload(BooleanSlot slot) internal view returns (bool value) {... */\n    tag_169:\n        /* \"@openzeppelin/contracts/utils/TransientSlot.sol\":3299:3309  bool value */\n      0x00\n        /* \"@openzeppelin/contracts/utils/TransientSlot.sol\":3375:3379  slot */\n      dup2\n        /* \"@openzeppelin/contracts/utils/TransientSlot.sol\":3369:3380  tload(slot) */\n      tload\n        /* \"@openzeppelin/contracts/utils/TransientSlot.sol\":3360:3380  value := tload(slot) */\n      swap1\n      pop\n        /* \"@openzeppelin/contracts/utils/TransientSlot.sol\":3243:3396  function tload(BooleanSlot slot) internal view returns (bool value) {... */\n      swap2\n      swap1\n      pop\n      jump\t// out\n        /* \"@openzeppelin/contracts/utils/TransientSlot.sol\":3485:3624  function tstore(BooleanSlot slot, bool value) internal {... */\n    tag_177:\n        /* \"@openzeppelin/contracts/utils/TransientSlot.sol\":3602:3607  value */\n      dup1\n        /* \"@openzeppelin/contracts/utils/TransientSlot.sol\":3596:3600  slot */\n      dup3\n        /* \"@openzeppelin/contracts/utils/TransientSlot.sol\":3589:3608  tstore(slot, value) */\n      tstore\n        /* \"@openzeppelin/contracts/utils/TransientSlot.sol\":3485:3624  function tstore(BooleanSlot slot, bool value) internal {... */\n      pop\n      pop\n      jump\t// out\n    tag_96:\n      mload(0x40)\n      dup1\n      0x40\n      add\n      0x40\n      mstore\n      dup1\n      0x60\n      dup2\n      mstore\n      0x20\n      add\n      0x00\n      dup1\n      not\n      and\n      dup2\n      mstore\n      pop\n      swap1\n      jump\t// out\n        /* \"#utility.yul\":88:205   */\n    tag_188:\n        /* \"#utility.yul\":197:198   */\n      0x00\n        /* \"#utility.yul\":194:195   */\n      dup1\n        /* \"#utility.yul\":187:199   */\n      revert\n        /* \"#utility.yul\":334:424   */\n    tag_190:\n        /* \"#utility.yul\":368:375   */\n      0x00\n        /* \"#utility.yul\":411:416   */\n      dup2\n        /* \"#utility.yul\":404:417   */\n      iszero\n        /* \"#utility.yul\":397:418   */\n      iszero\n        /* \"#utility.yul\":386:418   */\n      swap1\n      pop\n        /* \"#utility.yul\":334:424   */\n      swap2\n      swap1\n      pop\n      jump\t// out\n        /* \"#utility.yul\":430:546   */\n    tag_191:\n        /* \"#utility.yul\":500:521   */\n      tag_229\n        /* \"#utility.yul\":515:520   */\n      dup2\n        /* \"#utility.yul\":500:521   */\n      tag_190\n      jump\t// in\n    tag_229:\n        /* \"#utility.yul\":493:498   */\n      dup2\n        /* \"#utility.yul\":490:522   */\n      eq\n        /* \"#utility.yul\":480:540   */\n      tag_230\n      jumpi\n        /* \"#utility.yul\":536:537   */\n      0x00\n        /* \"#utility.yul\":533:534   */\n      dup1\n        /* \"#utility.yul\":526:538   */\n      revert\n        /* \"#utility.yul\":480:540   */\n    tag_230:\n        /* \"#utility.yul\":430:546   */\n      pop\n      jump\t// out\n        /* \"#utility.yul\":552:685   */\n    tag_192:\n        /* \"#utility.yul\":595:600   */\n      0x00\n        /* \"#utility.yul\":633:639   */\n      dup2\n        /* \"#utility.yul\":620:640   */\n      calldataload\n        /* \"#utility.yul\":611:640   */\n      swap1\n      pop\n        /* \"#utility.yul\":649:679   */\n      tag_232\n        /* \"#utility.yul\":673:678   */\n      dup2\n        /* \"#utility.yul\":649:679   */\n      tag_191\n      jump\t// in\n    tag_232:\n        /* \"#utility.yul\":552:685   */\n      swap3\n      swap2\n      pop\n      pop\n      jump\t// out\n        /* \"#utility.yul\":691:1014   */\n    tag_11:\n        /* \"#utility.yul\":747:753   */\n      0x00\n        /* \"#utility.yul\":796:798   */\n      0x20\n        /* \"#utility.yul\":784:793   */\n      dup3\n        /* \"#utility.yul\":775:782   */\n      dup5\n        /* \"#utility.yul\":771:794   */\n      sub\n        /* \"#utility.yul\":767:799   */\n      slt\n        /* \"#utility.yul\":764:883   */\n      iszero\n      tag_234\n      jumpi\n        /* \"#utility.yul\":802:881   */\n      tag_235\n      tag_188\n      jump\t// in\n    tag_235:\n        /* \"#utility.yul\":764:883   */\n    tag_234:\n        /* \"#utility.yul\":922:923   */\n      0x00\n        /* \"#utility.yul\":947:997   */\n      tag_236\n        /* \"#utility.yul\":989:996   */\n      dup5\n        /* \"#utility.yul\":980:986   */\n      dup3\n        /* \"#utility.yul\":969:978   */\n      dup6\n        /* \"#utility.yul\":965:987   */\n      add\n        /* \"#utility.yul\":947:997   */\n      tag_192\n      jump\t// in\n    tag_236:\n        /* \"#utility.yul\":937:997   */\n      swap2\n      pop\n        /* \"#utility.yul\":893:1007   */\n      pop\n        /* \"#utility.yul\":691:1014   */\n      swap3\n      swap2\n      pop\n      pop\n      jump\t// out\n        /* \"#utility.yul\":1020:1189   */\n    tag_193:\n        /* \"#utility.yul\":1104:1115   */\n      0x00\n        /* \"#utility.yul\":1138:1144   */\n      dup3\n        /* \"#utility.yul\":1133:1136   */\n      dup3\n        /* \"#utility.yul\":1126:1145   */\n      mstore\n        /* \"#utility.yul\":1178:1182   */\n      0x20\n        /* \"#utility.yul\":1173:1176   */\n      dup3\n        /* \"#utility.yul\":1169:1183   */\n      add\n        /* \"#utility.yul\":1154:1183   */\n      swap1\n      pop\n        /* \"#utility.yul\":1020:1189   */\n      swap3\n      swap2\n      pop\n      pop\n      jump\t// out\n        /* \"#utility.yul\":1195:1362   */\n    tag_194:\n        /* \"#utility.yul\":1335:1354   */\n      0x74657374436f6465426c6f636b4c6f636b000000000000000000000000000000\n        /* \"#utility.yul\":1331:1332   */\n      0x00\n        /* \"#utility.yul\":1323:1329   */\n      dup3\n        /* \"#utility.yul\":1319:1333   */\n      add\n        /* \"#utility.yul\":1312:1355   */\n      mstore\n        /* \"#utility.yul\":1195:1362   */\n      pop\n      jump\t// out\n        /* \"#utility.yul\":1368:1734   */\n    tag_195:\n        /* \"#utility.yul\":1510:1513   */\n      0x00\n        /* \"#utility.yul\":1531:1598   */\n      tag_240\n        /* \"#utility.yul\":1595:1597   */\n      0x11\n        /* \"#utility.yul\":1590:1593   */\n      dup4\n        /* \"#utility.yul\":1531:1598   */\n      tag_193\n      jump\t// in\n    tag_240:\n        /* \"#utility.yul\":1524:1598   */\n      swap2\n      pop\n        /* \"#utility.yul\":1607:1700   */\n      tag_241\n        /* \"#utility.yul\":1696:1699   */\n      dup3\n        /* \"#utility.yul\":1607:1700   */\n      tag_194\n      jump\t// in\n    tag_241:\n        /* \"#utility.yul\":1725:1727   */\n      0x20\n        /* \"#utility.yul\":1720:1723   */\n      dup3\n        /* \"#utility.yul\":1716:1728   */\n      add\n        /* \"#utility.yul\":1709:1728   */\n      swap1\n      pop\n        /* \"#utility.yul\":1368:1734   */\n      swap2\n      swap1\n      pop\n      jump\t// out\n        /* \"#utility.yul\":1740:2159   */\n    tag_31:\n        /* \"#utility.yul\":1906:1910   */\n      0x00\n        /* \"#utility.yul\":1944:1946   */\n      0x20\n        /* \"#utility.yul\":1933:1942   */\n      dup3\n        /* \"#utility.yul\":1929:1947   */\n      add\n        /* \"#utility.yul\":1921:1947   */\n      swap1\n      pop\n        /* \"#utility.yul\":1993:2002   */\n      dup2\n        /* \"#utility.yul\":1987:1991   */\n      dup2\n        /* \"#utility.yul\":1983:2003   */\n      sub\n        /* \"#utility.yul\":1979:1980   */\n      0x00\n        /* \"#utility.yul\":1968:1977   */\n      dup4\n        /* \"#utility.yul\":1964:1981   */\n      add\n        /* \"#utility.yul\":1957:2004   */\n      mstore\n        /* \"#utility.yul\":2021:2152   */\n      tag_243\n        /* \"#utility.yul\":2147:2151   */\n      dup2\n        /* \"#utility.yul\":2021:2152   */\n      tag_195\n      jump\t// in\n    tag_243:\n        /* \"#utility.yul\":2013:2152   */\n      swap1\n      pop\n        /* \"#utility.yul\":1740:2159   */\n      swap2\n      swap1\n      pop\n      jump\t// out\n        /* \"#utility.yul\":2165:2385   */\n    tag_196:\n        /* \"#utility.yul\":2305:2339   */\n      0x746573744e6f6e5265656e7472616e74437573746f6d697a654c6f636b466169\n        /* \"#utility.yul\":2301:2302   */\n      0x00\n        /* \"#utility.yul\":2293:2299   */\n      dup3\n        /* \"#utility.yul\":2289:2303   */\n      add\n        /* \"#utility.yul\":2282:2340   */\n      mstore\n        /* \"#utility.yul\":2374:2377   */\n      0x6c00000000000000000000000000000000000000000000000000000000000000\n        /* \"#utility.yul\":2369:2371   */\n      0x20\n        /* \"#utility.yul\":2361:2367   */\n      dup3\n        /* \"#utility.yul\":2357:2372   */\n      add\n        /* \"#utility.yul\":2350:2378   */\n      mstore\n        /* \"#utility.yul\":2165:2385   */\n      pop\n      jump\t// out\n        /* \"#utility.yul\":2391:2757   */\n    tag_197:\n        /* \"#utility.yul\":2533:2536   */\n      0x00\n        /* \"#utility.yul\":2554:2621   */\n      tag_246\n        /* \"#utility.yul\":2618:2620   */\n      0x21\n        /* \"#utility.yul\":2613:2616   */\n      dup4\n        /* \"#utility.yul\":2554:2621   */\n      tag_193\n      jump\t// in\n    tag_246:\n        /* \"#utility.yul\":2547:2621   */\n      swap2\n      pop\n        /* \"#utility.yul\":2630:2723   */\n      tag_247\n        /* \"#utility.yul\":2719:2722   */\n      dup3\n        /* \"#utility.yul\":2630:2723   */\n      tag_196\n      jump\t// in\n    tag_247:\n        /* \"#utility.yul\":2748:2750   */\n      0x40\n        /* \"#utility.yul\":2743:2746   */\n      dup3\n        /* \"#utility.yul\":2739:2751   */\n      add\n        /* \"#utility.yul\":2732:2751   */\n      swap1\n      pop\n        /* \"#utility.yul\":2391:2757   */\n      swap2\n      swap1\n      pop\n      jump\t// out\n        /* \"#utility.yul\":2763:3182   */\n    tag_46:\n        /* \"#utility.yul\":2929:2933   */\n      0x00\n        /* \"#utility.yul\":2967:2969   */\n      0x20\n        /* \"#utility.yul\":2956:2965   */\n      dup3\n        /* \"#utility.yul\":2952:2970   */\n      add\n        /* \"#utility.yul\":2944:2970   */\n      swap1\n      pop\n        /* \"#utility.yul\":3016:3025   */\n      dup2\n        /* \"#utility.yul\":3010:3014   */\n      dup2\n        /* \"#utility.yul\":3006:3026   */\n      sub\n        /* \"#utility.yul\":3002:3003   */\n      0x00\n        /* \"#utility.yul\":2991:3000   */\n      dup4\n        /* \"#utility.yul\":2987:3004   */\n      add\n        /* \"#utility.yul\":2980:3027   */\n      mstore\n        /* \"#utility.yul\":3044:3175   */\n      tag_249\n        /* \"#utility.yul\":3170:3174   */\n      dup2\n        /* \"#utility.yul\":3044:3175   */\n      tag_197\n      jump\t// in\n    tag_249:\n        /* \"#utility.yul\":3036:3175   */\n      swap1\n      pop\n        /* \"#utility.yul\":2763:3182   */\n      swap2\n      swap1\n      pop\n      jump\t// out\n        /* \"#utility.yul\":3188:3362   */\n    tag_198:\n        /* \"#utility.yul\":3328:3354   */\n      0x746573744e6f6e5265656e7472616e744c6f636b4661696c0000000000000000\n        /* \"#utility.yul\":3324:3325   */\n      0x00\n        /* \"#utility.yul\":3316:3322   */\n      dup3\n        /* \"#utility.yul\":3312:3326   */\n      add\n        /* \"#utility.yul\":3305:3355   */\n      mstore\n        /* \"#utility.yul\":3188:3362   */\n      pop\n      jump\t// out\n        /* \"#utility.yul\":3368:3734   */\n    tag_199:\n        /* \"#utility.yul\":3510:3513   */\n      0x00\n        /* \"#utility.yul\":3531:3598   */\n      tag_252\n        /* \"#utility.yul\":3595:3597   */\n      0x18\n        /* \"#utility.yul\":3590:3593   */\n      dup4\n        /* \"#utility.yul\":3531:3598   */\n      tag_193\n      jump\t// in\n    tag_252:\n        /* \"#utility.yul\":3524:3598   */\n      swap2\n      pop\n        /* \"#utility.yul\":3607:3700   */\n      tag_253\n        /* \"#utility.yul\":3696:3699   */\n      dup3\n        /* \"#utility.yul\":3607:3700   */\n      tag_198\n      jump\t// in\n    tag_253:\n        /* \"#utility.yul\":3725:3727   */\n      0x20\n        /* \"#utility.yul\":3720:3723   */\n      dup3\n        /* \"#utility.yul\":3716:3728   */\n      add\n        /* \"#utility.yul\":3709:3728   */\n      swap1\n      pop\n        /* \"#utility.yul\":3368:3734   */\n      swap2\n      swap1\n      pop\n      jump\t// out\n        /* \"#utility.yul\":3740:4159   */\n    tag_59:\n        /* \"#utility.yul\":3906:3910   */\n      0x00\n        /* \"#utility.yul\":3944:3946   */\n      0x20\n        /* \"#utility.yul\":3933:3942   */\n      dup3\n        /* \"#utility.yul\":3929:3947   */\n      add\n        /* \"#utility.yul\":3921:3947   */\n      swap1\n      pop\n        /* \"#utility.yul\":3993:4002   */\n      dup2\n        /* \"#utility.yul\":3987:3991   */\n      dup2\n        /* \"#utility.yul\":3983:4003   */\n      sub\n        /* \"#utility.yul\":3979:3980   */\n      0x00\n        /* \"#utility.yul\":3968:3977   */\n      dup4\n        /* \"#utility.yul\":3964:3981   */\n      add\n        /* \"#utility.yul\":3957:4004   */\n      mstore\n        /* \"#utility.yul\":4021:4152   */\n      tag_255\n        /* \"#utility.yul\":4147:4151   */\n      dup2\n        /* \"#utility.yul\":4021:4152   */\n      tag_199\n      jump\t// in\n    tag_255:\n        /* \"#utility.yul\":4013:4152   */\n      swap1\n      pop\n        /* \"#utility.yul\":3740:4159   */\n      swap2\n      swap1\n      pop\n      jump\t// out\n        /* \"#utility.yul\":4165:4335   */\n    tag_200:\n        /* \"#utility.yul\":4305:4327   */\n      0x746573744e6f6e5265656e7472616e744c6f636b000000000000000000000000\n        /* \"#utility.yul\":4301:4302   */\n      0x00\n        /* \"#utility.yul\":4293:4299   */\n      dup3\n        /* \"#utility.yul\":4289:4303   */\n      add\n        /* \"#utility.yul\":4282:4328   */\n      mstore\n        /* \"#utility.yul\":4165:4335   */\n      pop\n      jump\t// out\n        /* \"#utility.yul\":4341:4707   */\n    tag_201:\n        /* \"#utility.yul\":4483:4486   */\n      0x00\n        /* \"#utility.yul\":4504:4571   */\n      tag_258\n        /* \"#utility.yul\":4568:4570   */\n      0x14\n        /* \"#utility.yul\":4563:4566   */\n      dup4\n        /* \"#utility.yul\":4504:4571   */\n      tag_193\n      jump\t// in\n    tag_258:\n        /* \"#utility.yul\":4497:4571   */\n      swap2\n      pop\n        /* \"#utility.yul\":4580:4673   */\n      tag_259\n        /* \"#utility.yul\":4669:4672   */\n      dup3\n        /* \"#utility.yul\":4580:4673   */\n      tag_200\n      jump\t// in\n    tag_259:\n        /* \"#utility.yul\":4698:4700   */\n      0x20\n        /* \"#utility.yul\":4693:4696   */\n      dup3\n        /* \"#utility.yul\":4689:4701   */\n      add\n        /* \"#utility.yul\":4682:4701   */\n      swap1\n      pop\n        /* \"#utility.yul\":4341:4707   */\n      swap2\n      swap1\n      pop\n      jump\t// out\n        /* \"#utility.yul\":4713:5132   */\n    tag_68:\n        /* \"#utility.yul\":4879:4883   */\n      0x00\n        /* \"#utility.yul\":4917:4919   */\n      0x20\n        /* \"#utility.yul\":4906:4915   */\n      dup3\n        /* \"#utility.yul\":4902:4920   */\n      add\n        /* \"#utility.yul\":4894:4920   */\n      swap1\n      pop\n        /* \"#utility.yul\":4966:4975   */\n      dup2\n        /* \"#utility.yul\":4960:4964   */\n      dup2\n        /* \"#utility.yul\":4956:4976   */\n      sub\n        /* \"#utility.yul\":4952:4953   */\n      0x00\n        /* \"#utility.yul\":4941:4950   */\n      dup4\n        /* \"#utility.yul\":4937:4954   */\n      add\n        /* \"#utility.yul\":4930:4977   */\n      mstore\n        /* \"#utility.yul\":4994:5125   */\n      tag_261\n        /* \"#utility.yul\":5120:5124   */\n      dup2\n        /* \"#utility.yul\":4994:5125   */\n      tag_201\n      jump\t// in\n    tag_261:\n        /* \"#utility.yul\":4986:5125   */\n      swap1\n      pop\n        /* \"#utility.yul\":4713:5132   */\n      swap2\n      swap1\n      pop\n      jump\t// out\n        /* \"#utility.yul\":5138:5303   */\n    tag_202:\n        /* \"#utility.yul\":5278:5295   */\n      0x7472794c6f636b206661696c7572650000000000000000000000000000000000\n        /* \"#utility.yul\":5274:5275   */\n      0x00\n        /* \"#utility.yul\":5266:5272   */\n      dup3\n        /* \"#utility.yul\":5262:5276   */\n      add\n        /* \"#utility.yul\":5255:5296   */\n      mstore\n        /* \"#utility.yul\":5138:5303   */\n      pop\n      jump\t// out\n        /* \"#utility.yul\":5309:5675   */\n    tag_203:\n        /* \"#utility.yul\":5451:5454   */\n      0x00\n        /* \"#utility.yul\":5472:5539   */\n      tag_264\n        /* \"#utility.yul\":5536:5538   */\n      0x0f\n        /* \"#utility.yul\":5531:5534   */\n      dup4\n        /* \"#utility.yul\":5472:5539   */\n      tag_193\n      jump\t// in\n    tag_264:\n        /* \"#utility.yul\":5465:5539   */\n      swap2\n      pop\n        /* \"#utility.yul\":5548:5641   */\n      tag_265\n        /* \"#utility.yul\":5637:5640   */\n      dup3\n        /* \"#utility.yul\":5548:5641   */\n      tag_202\n      jump\t// in\n    tag_265:\n        /* \"#utility.yul\":5666:5668   */\n      0x20\n        /* \"#utility.yul\":5661:5664   */\n      dup3\n        /* \"#utility.yul\":5657:5669   */\n      add\n        /* \"#utility.yul\":5650:5669   */\n      swap1\n      pop\n        /* \"#utility.yul\":5309:5675   */\n      swap2\n      swap1\n      pop\n      jump\t// out\n        /* \"#utility.yul\":5681:6100   */\n    tag_82:\n        /* \"#utility.yul\":5847:5851   */\n      0x00\n        /* \"#utility.yul\":5885:5887   */\n      0x20\n        /* \"#utility.yul\":5874:5883   */\n      dup3\n        /* \"#utility.yul\":5870:5888   */\n      add\n        /* \"#utility.yul\":5862:5888   */\n      swap1\n      pop\n        /* \"#utility.yul\":5934:5943   */\n      dup2\n        /* \"#utility.yul\":5928:5932   */\n      dup2\n        /* \"#utility.yul\":5924:5944   */\n      sub\n        /* \"#utility.yul\":5920:5921   */\n      0x00\n        /* \"#utility.yul\":5909:5918   */\n      dup4\n        /* \"#utility.yul\":5905:5922   */\n      add\n        /* \"#utility.yul\":5898:5945   */\n      mstore\n        /* \"#utility.yul\":5962:6093   */\n      tag_267\n        /* \"#utility.yul\":6088:6092   */\n      dup2\n        /* \"#utility.yul\":5962:6093   */\n      tag_203\n      jump\t// in\n    tag_267:\n        /* \"#utility.yul\":5954:6093   */\n      swap1\n      pop\n        /* \"#utility.yul\":5681:6100   */\n      swap2\n      swap1\n      pop\n      jump\t// out\n        /* \"#utility.yul\":6106:6276   */\n    tag_204:\n        /* \"#utility.yul\":6246:6268   */\n      0x74657374436f6465426c6f636b5472794c6f636b000000000000000000000000\n        /* \"#utility.yul\":6242:6243   */\n      0x00\n        /* \"#utility.yul\":6234:6240   */\n      dup3\n        /* \"#utility.yul\":6230:6244   */\n      add\n        /* \"#utility.yul\":6223:6269   */\n      mstore\n        /* \"#utility.yul\":6106:6276   */\n      pop\n      jump\t// out\n        /* \"#utility.yul\":6282:6648   */\n    tag_205:\n        /* \"#utility.yul\":6424:6427   */\n      0x00\n        /* \"#utility.yul\":6445:6512   */\n      tag_270\n        /* \"#utility.yul\":6509:6511   */\n      0x14\n        /* \"#utility.yul\":6504:6507   */\n      dup4\n        /* \"#utility.yul\":6445:6512   */\n      tag_193\n      jump\t// in\n    tag_270:\n        /* \"#utility.yul\":6438:6512   */\n      swap2\n      pop\n        /* \"#utility.yul\":6521:6614   */\n      tag_271\n        /* \"#utility.yul\":6610:6613   */\n      dup3\n        /* \"#utility.yul\":6521:6614   */\n      tag_204\n      jump\t// in\n    tag_271:\n        /* \"#utility.yul\":6639:6641   */\n      0x20\n        /* \"#utility.yul\":6634:6637   */\n      dup3\n        /* \"#utility.yul\":6630:6642   */\n      add\n        /* \"#utility.yul\":6623:6642   */\n      swap1\n      pop\n        /* \"#utility.yul\":6282:6648   */\n      swap2\n      swap1\n      pop\n      jump\t// out\n        /* \"#utility.yul\":6654:7073   */\n    tag_84:\n        /* \"#utility.yul\":6820:6824   */\n      0x00\n        /* \"#utility.yul\":6858:6860   */\n      0x20\n        /* \"#utility.yul\":6847:6856   */\n      dup3\n        /* \"#utility.yul\":6843:6861   */\n      add\n        /* \"#utility.yul\":6835:6861   */\n      swap1\n      pop\n        /* \"#utility.yul\":6907:6916   */\n      dup2\n        /* \"#utility.yul\":6901:6905   */\n      dup2\n        /* \"#utility.yul\":6897:6917   */\n      sub\n        /* \"#utility.yul\":6893:6894   */\n      0x00\n        /* \"#utility.yul\":6882:6891   */\n      dup4\n        /* \"#utility.yul\":6878:6895   */\n      add\n        /* \"#utility.yul\":6871:6918   */\n      mstore\n        /* \"#utility.yul\":6935:7066   */\n      tag_273\n        /* \"#utility.yul\":7061:7065   */\n      dup2\n        /* \"#utility.yul\":6935:7066   */\n      tag_205\n      jump\t// in\n    tag_273:\n        /* \"#utility.yul\":6927:7066   */\n      swap1\n      pop\n        /* \"#utility.yul\":6654:7073   */\n      swap2\n      swap1\n      pop\n      jump\t// out\n        /* \"#utility.yul\":7079:7246   */\n    tag_206:\n        /* \"#utility.yul\":7219:7238   */\n      0x747279556e6c6f636b206661696c757265000000000000000000000000000000\n        /* \"#utility.yul\":7215:7216   */\n      0x00\n        /* \"#utility.yul\":7207:7213   */\n      dup3\n        /* \"#utility.yul\":7203:7217   */\n      add\n        /* \"#utility.yul\":7196:7239   */\n      mstore\n        /* \"#utility.yul\":7079:7246   */\n      pop\n      jump\t// out\n        /* \"#utility.yul\":7252:7618   */\n    tag_207:\n        /* \"#utility.yul\":7394:7397   */\n      0x00\n        /* \"#utility.yul\":7415:7482   */\n      tag_276\n        /* \"#utility.yul\":7479:7481   */\n      0x11\n        /* \"#utility.yul\":7474:7477   */\n      dup4\n        /* \"#utility.yul\":7415:7482   */\n      tag_193\n      jump\t// in\n    tag_276:\n        /* \"#utility.yul\":7408:7482   */\n      swap2\n      pop\n        /* \"#utility.yul\":7491:7584   */\n      tag_277\n        /* \"#utility.yul\":7580:7583   */\n      dup3\n        /* \"#utility.yul\":7491:7584   */\n      tag_206\n      jump\t// in\n    tag_277:\n        /* \"#utility.yul\":7609:7611   */\n      0x20\n        /* \"#utility.yul\":7604:7607   */\n      dup3\n        /* \"#utility.yul\":7600:7612   */\n      add\n        /* \"#utility.yul\":7593:7612   */\n      swap1\n      pop\n        /* \"#utility.yul\":7252:7618   */\n      swap2\n      swap1\n      pop\n      jump\t// out\n        /* \"#utility.yul\":7624:8043   */\n    tag_94:\n        /* \"#utility.yul\":7790:7794   */\n      0x00\n        /* \"#utility.yul\":7828:7830   */\n      0x20\n        /* \"#utility.yul\":7817:7826   */\n      dup3\n        /* \"#utility.yul\":7813:7831   */\n      add\n        /* \"#utility.yul\":7805:7831   */\n      swap1\n      pop\n        /* \"#utility.yul\":7877:7886   */\n      dup2\n        /* \"#utility.yul\":7871:7875   */\n      dup2\n        /* \"#utility.yul\":7867:7887   */\n      sub\n        /* \"#utility.yul\":7863:7864   */\n      0x00\n        /* \"#utility.yul\":7852:7861   */\n      dup4\n        /* \"#utility.yul\":7848:7865   */\n      add\n        /* \"#utility.yul\":7841:7888   */\n      mstore\n        /* \"#utility.yul\":7905:8036   */\n      tag_279\n        /* \"#utility.yul\":8031:8035   */\n      dup2\n        /* \"#utility.yul\":7905:8036   */\n      tag_207\n      jump\t// in\n    tag_279:\n        /* \"#utility.yul\":7897:8036   */\n      swap1\n      pop\n        /* \"#utility.yul\":7624:8043   */\n      swap2\n      swap1\n      pop\n      jump\t// out\n        /* \"#utility.yul\":8049:8148   */\n    tag_208:\n        /* \"#utility.yul\":8101:8107   */\n      0x00\n        /* \"#utility.yul\":8135:8140   */\n      dup2\n        /* \"#utility.yul\":8129:8141   */\n      mload\n        /* \"#utility.yul\":8119:8141   */\n      swap1\n      pop\n        /* \"#utility.yul\":8049:8148   */\n      swap2\n      swap1\n      pop\n      jump\t// out\n        /* \"#utility.yul\":8154:8293   */\n    tag_209:\n        /* \"#utility.yul\":8243:8249   */\n      dup3\n        /* \"#utility.yul\":8238:8241   */\n      dup2\n        /* \"#utility.yul\":8233:8236   */\n      dup4\n        /* \"#utility.yul\":8227:8250   */\n      mcopy\n        /* \"#utility.yul\":8284:8285   */\n      0x00\n        /* \"#utility.yul\":8275:8281   */\n      dup4\n        /* \"#utility.yul\":8270:8273   */\n      dup4\n        /* \"#utility.yul\":8266:8282   */\n      add\n        /* \"#utility.yul\":8259:8286   */\n      mstore\n        /* \"#utility.yul\":8154:8293   */\n      pop\n      pop\n      pop\n      jump\t// out\n        /* \"#utility.yul\":8299:8401   */\n    tag_210:\n        /* \"#utility.yul\":8340:8346   */\n      0x00\n        /* \"#utility.yul\":8391:8393   */\n      0x1f\n        /* \"#utility.yul\":8387:8394   */\n      not\n        /* \"#utility.yul\":8382:8384   */\n      0x1f\n        /* \"#utility.yul\":8375:8380   */\n      dup4\n        /* \"#utility.yul\":8371:8385   */\n      add\n        /* \"#utility.yul\":8367:8395   */\n      and\n        /* \"#utility.yul\":8357:8395   */\n      swap1\n      pop\n        /* \"#utility.yul\":8299:8401   */\n      swap2\n      swap1\n      pop\n      jump\t// out\n        /* \"#utility.yul\":8407:8784   */\n    tag_211:\n        /* \"#utility.yul\":8495:8498   */\n      0x00\n        /* \"#utility.yul\":8523:8562   */\n      tag_284\n        /* \"#utility.yul\":8556:8561   */\n      dup3\n        /* \"#utility.yul\":8523:8562   */\n      tag_208\n      jump\t// in\n    tag_284:\n        /* \"#utility.yul\":8578:8649   */\n      tag_285\n        /* \"#utility.yul\":8642:8648   */\n      dup2\n        /* \"#utility.yul\":8637:8640   */\n      dup6\n        /* \"#utility.yul\":8578:8649   */\n      tag_193\n      jump\t// in\n    tag_285:\n        /* \"#utility.yul\":8571:8649   */\n      swap4\n      pop\n        /* \"#utility.yul\":8658:8723   */\n      tag_286\n        /* \"#utility.yul\":8716:8722   */\n      dup2\n        /* \"#utility.yul\":8711:8714   */\n      dup6\n        /* \"#utility.yul\":8704:8708   */\n      0x20\n        /* \"#utility.yul\":8697:8702   */\n      dup7\n        /* \"#utility.yul\":8693:8709   */\n      add\n        /* \"#utility.yul\":8658:8723   */\n      tag_209\n      jump\t// in\n    tag_286:\n        /* \"#utility.yul\":8748:8777   */\n      tag_287\n        /* \"#utility.yul\":8770:8776   */\n      dup2\n        /* \"#utility.yul\":8748:8777   */\n      tag_210\n      jump\t// in\n    tag_287:\n        /* \"#utility.yul\":8743:8746   */\n      dup5\n        /* \"#utility.yul\":8739:8778   */\n      add\n        /* \"#utility.yul\":8732:8778   */\n      swap2\n      pop\n        /* \"#utility.yul\":8499:8784   */\n      pop\n        /* \"#utility.yul\":8407:8784   */\n      swap3\n      swap2\n      pop\n      pop\n      jump\t// out\n        /* \"#utility.yul\":8790:9103   */\n    tag_107:\n        /* \"#utility.yul\":8903:8907   */\n      0x00\n        /* \"#utility.yul\":8941:8943   */\n      0x20\n        /* \"#utility.yul\":8930:8939   */\n      dup3\n        /* \"#utility.yul\":8926:8944   */\n      add\n        /* \"#utility.yul\":8918:8944   */\n      swap1\n      pop\n        /* \"#utility.yul\":8990:8999   */\n      dup2\n        /* \"#utility.yul\":8984:8988   */\n      dup2\n        /* \"#utility.yul\":8980:9000   */\n      sub\n        /* \"#utility.yul\":8976:8977   */\n      0x00\n        /* \"#utility.yul\":8965:8974   */\n      dup4\n        /* \"#utility.yul\":8961:8978   */\n      add\n        /* \"#utility.yul\":8954:9001   */\n      mstore\n        /* \"#utility.yul\":9018:9096   */\n      tag_289\n        /* \"#utility.yul\":9091:9095   */\n      dup2\n        /* \"#utility.yul\":9082:9088   */\n      dup5\n        /* \"#utility.yul\":9018:9096   */\n      tag_211\n      jump\t// in\n    tag_289:\n        /* \"#utility.yul\":9010:9096   */\n      swap1\n      pop\n        /* \"#utility.yul\":8790:9103   */\n      swap3\n      swap2\n      pop\n      pop\n      jump\t// out\n        /* \"#utility.yul\":9109:9304   */\n    tag_212:\n        /* \"#utility.yul\":9278:9297   */\n      0x5f676574437573746f6d697a654c6f636b000000000000000000000000000000\n        /* \"#utility.yul\":9273:9276   */\n      dup2\n        /* \"#utility.yul\":9266:9298   */\n      mstore\n        /* \"#utility.yul\":9109:9304   */\n      pop\n      jump\t// out\n        /* \"#utility.yul\":9310:9458   */\n    tag_213:\n        /* \"#utility.yul\":9412:9423   */\n      0x00\n        /* \"#utility.yul\":9449:9452   */\n      dup2\n        /* \"#utility.yul\":9434:9452   */\n      swap1\n      pop\n        /* \"#utility.yul\":9310:9458   */\n      swap3\n      swap2\n      pop\n      pop\n      jump\t// out\n        /* \"#utility.yul\":9464:9854   */\n    tag_214:\n        /* \"#utility.yul\":9570:9573   */\n      0x00\n        /* \"#utility.yul\":9598:9637   */\n      tag_293\n        /* \"#utility.yul\":9631:9636   */\n      dup3\n        /* \"#utility.yul\":9598:9637   */\n      tag_208\n      jump\t// in\n    tag_293:\n        /* \"#utility.yul\":9653:9742   */\n      tag_294\n        /* \"#utility.yul\":9735:9741   */\n      dup2\n        /* \"#utility.yul\":9730:9733   */\n      dup6\n        /* \"#utility.yul\":9653:9742   */\n      tag_213\n      jump\t// in\n    tag_294:\n        /* \"#utility.yul\":9646:9742   */\n      swap4\n      pop\n        /* \"#utility.yul\":9751:9816   */\n      tag_295\n        /* \"#utility.yul\":9809:9815   */\n      dup2\n        /* \"#utility.yul\":9804:9807   */\n      dup6\n        /* \"#utility.yul\":9797:9801   */\n      0x20\n        /* \"#utility.yul\":9790:9795   */\n      dup7\n        /* \"#utility.yul\":9786:9802   */\n      add\n        /* \"#utility.yul\":9751:9816   */\n      tag_209\n      jump\t// in\n    tag_295:\n        /* \"#utility.yul\":9841:9847   */\n      dup1\n        /* \"#utility.yul\":9836:9839   */\n      dup5\n        /* \"#utility.yul\":9832:9848   */\n      add\n        /* \"#utility.yul\":9825:9848   */\n      swap2\n      pop\n        /* \"#utility.yul\":9574:9854   */\n      pop\n        /* \"#utility.yul\":9464:9854   */\n      swap3\n      swap2\n      pop\n      pop\n      jump\t// out\n        /* \"#utility.yul\":9860:10402   */\n    tag_117:\n        /* \"#utility.yul\":10083:10086   */\n      0x00\n        /* \"#utility.yul\":10098:10236   */\n      tag_297\n        /* \"#utility.yul\":10232:10235   */\n      dup3\n        /* \"#utility.yul\":10098:10236   */\n      tag_212\n      jump\t// in\n    tag_297:\n        /* \"#utility.yul\":10261:10263   */\n      0x11\n        /* \"#utility.yul\":10256:10259   */\n      dup3\n        /* \"#utility.yul\":10252:10264   */\n      add\n        /* \"#utility.yul\":10245:10264   */\n      swap2\n      pop\n        /* \"#utility.yul\":10281:10376   */\n      tag_298\n        /* \"#utility.yul\":10372:10375   */\n      dup3\n        /* \"#utility.yul\":10363:10369   */\n      dup5\n        /* \"#utility.yul\":10281:10376   */\n      tag_214\n      jump\t// in\n    tag_298:\n        /* \"#utility.yul\":10274:10376   */\n      swap2\n      pop\n        /* \"#utility.yul\":10393:10396   */\n      dup2\n        /* \"#utility.yul\":10386:10396   */\n      swap1\n      pop\n        /* \"#utility.yul\":9860:10402   */\n      swap3\n      swap2\n      pop\n      pop\n      jump\t// out\n        /* \"#utility.yul\":10408:10579   */\n    tag_215:\n        /* \"#utility.yul\":10548:10571   */\n      0x5f757365437573746f6d697a6553616d654c6f636b0000000000000000000000\n        /* \"#utility.yul\":10544:10545   */\n      0x00\n        /* \"#utility.yul\":10536:10542   */\n      dup3\n        /* \"#utility.yul\":10532:10546   */\n      add\n        /* \"#utility.yul\":10525:10572   */\n      mstore\n        /* \"#utility.yul\":10408:10579   */\n      pop\n      jump\t// out\n        /* \"#utility.yul\":10585:10951   */\n    tag_216:\n        /* \"#utility.yul\":10727:10730   */\n      0x00\n        /* \"#utility.yul\":10748:10815   */\n      tag_301\n        /* \"#utility.yul\":10812:10814   */\n      0x15\n        /* \"#utility.yul\":10807:10810   */\n      dup4\n        /* \"#utility.yul\":10748:10815   */\n      tag_193\n      jump\t// in\n    tag_301:\n        /* \"#utility.yul\":10741:10815   */\n      swap2\n      pop\n        /* \"#utility.yul\":10824:10917   */\n      tag_302\n        /* \"#utility.yul\":10913:10916   */\n      dup3\n        /* \"#utility.yul\":10824:10917   */\n      tag_215\n      jump\t// in\n    tag_302:\n        /* \"#utility.yul\":10942:10944   */\n      0x20\n        /* \"#utility.yul\":10937:10940   */\n      dup3\n        /* \"#utility.yul\":10933:10945   */\n      add\n        /* \"#utility.yul\":10926:10945   */\n      swap1\n      pop\n        /* \"#utility.yul\":10585:10951   */\n      swap2\n      swap1\n      pop\n      jump\t// out\n        /* \"#utility.yul\":10957:11376   */\n    tag_136:\n        /* \"#utility.yul\":11123:11127   */\n      0x00\n        /* \"#utility.yul\":11161:11163   */\n      0x20\n        /* \"#utility.yul\":11150:11159   */\n      dup3\n        /* \"#utility.yul\":11146:11164   */\n      add\n        /* \"#utility.yul\":11138:11164   */\n      swap1\n      pop\n        /* \"#utility.yul\":11210:11219   */\n      dup2\n        /* \"#utility.yul\":11204:11208   */\n      dup2\n        /* \"#utility.yul\":11200:11220   */\n      sub\n        /* \"#utility.yul\":11196:11197   */\n      0x00\n        /* \"#utility.yul\":11185:11194   */\n      dup4\n        /* \"#utility.yul\":11181:11198   */\n      add\n        /* \"#utility.yul\":11174:11221   */\n      mstore\n        /* \"#utility.yul\":11238:11369   */\n      tag_304\n        /* \"#utility.yul\":11364:11368   */\n      dup2\n        /* \"#utility.yul\":11238:11369   */\n      tag_216\n      jump\t// in\n    tag_304:\n        /* \"#utility.yul\":11230:11369   */\n      swap1\n      pop\n        /* \"#utility.yul\":10957:11376   */\n      swap2\n      swap1\n      pop\n      jump\t// out\n        /* \"#utility.yul\":11382:11558   */\n    tag_217:\n        /* \"#utility.yul\":11522:11550   */\n      0x5f757365437573746f6d697a65446966666572656e744c6f636b000000000000\n        /* \"#utility.yul\":11518:11519   */\n      0x00\n        /* \"#utility.yul\":11510:11516   */\n      dup3\n        /* \"#utility.yul\":11506:11520   */\n      add\n        /* \"#utility.yul\":11499:11551   */\n      mstore\n        /* \"#utility.yul\":11382:11558   */\n      pop\n      jump\t// out\n        /* \"#utility.yul\":11564:11930   */\n    tag_218:\n        /* \"#utility.yul\":11706:11709   */\n      0x00\n        /* \"#utility.yul\":11727:11794   */\n      tag_307\n        /* \"#utility.yul\":11791:11793   */\n      0x1a\n        /* \"#utility.yul\":11786:11789   */\n      dup4\n        /* \"#utility.yul\":11727:11794   */\n      tag_193\n      jump\t// in\n    tag_307:\n        /* \"#utility.yul\":11720:11794   */\n      swap2\n      pop\n        /* \"#utility.yul\":11803:11896   */\n      tag_308\n        /* \"#utility.yul\":11892:11895   */\n      dup3\n        /* \"#utility.yul\":11803:11896   */\n      tag_217\n      jump\t// in\n    tag_308:\n        /* \"#utility.yul\":11921:11923   */\n      0x20\n        /* \"#utility.yul\":11916:11919   */\n      dup3\n        /* \"#utility.yul\":11912:11924   */\n      add\n        /* \"#utility.yul\":11905:11924   */\n      swap1\n      pop\n        /* \"#utility.yul\":11564:11930   */\n      swap2\n      swap1\n      pop\n      jump\t// out\n        /* \"#utility.yul\":11936:12355   */\n    tag_143:\n        /* \"#utility.yul\":12102:12106   */\n      0x00\n        /* \"#utility.yul\":12140:12142   */\n      0x20\n        /* \"#utility.yul\":12129:12138   */\n      dup3\n        /* \"#utility.yul\":12125:12143   */\n      add\n        /* \"#utility.yul\":12117:12143   */\n      swap1\n      pop\n        /* \"#utility.yul\":12189:12198   */\n      dup2\n        /* \"#utility.yul\":12183:12187   */\n      dup2\n        /* \"#utility.yul\":12179:12199   */\n      sub\n        /* \"#utility.yul\":12175:12176   */\n      0x00\n        /* \"#utility.yul\":12164:12173   */\n      dup4\n        /* \"#utility.yul\":12160:12177   */\n      add\n        /* \"#utility.yul\":12153:12200   */\n      mstore\n        /* \"#utility.yul\":12217:12348   */\n      tag_310\n        /* \"#utility.yul\":12343:12347   */\n      dup2\n        /* \"#utility.yul\":12217:12348   */\n      tag_218\n      jump\t// in\n    tag_310:\n        /* \"#utility.yul\":12209:12348   */\n      swap1\n      pop\n        /* \"#utility.yul\":11936:12355   */\n      swap2\n      swap1\n      pop\n      jump\t// out\n        /* \"#utility.yul\":12361:12526   */\n    tag_219:\n        /* \"#utility.yul\":12501:12518   */\n      0x5f75736544656661756c744c6f636b0000000000000000000000000000000000\n        /* \"#utility.yul\":12497:12498   */\n      0x00\n        /* \"#utility.yul\":12489:12495   */\n      dup3\n        /* \"#utility.yul\":12485:12499   */\n      add\n        /* \"#utility.yul\":12478:12519   */\n      mstore\n        /* \"#utility.yul\":12361:12526   */\n      pop\n      jump\t// out\n        /* \"#utility.yul\":12532:12898   */\n    tag_220:\n        /* \"#utility.yul\":12674:12677   */\n      0x00\n        /* \"#utility.yul\":12695:12762   */\n      tag_313\n        /* \"#utility.yul\":12759:12761   */\n      0x0f\n        /* \"#utility.yul\":12754:12757   */\n      dup4\n        /* \"#utility.yul\":12695:12762   */\n      tag_193\n      jump\t// in\n    tag_313:\n        /* \"#utility.yul\":12688:12762   */\n      swap2\n      pop\n        /* \"#utility.yul\":12771:12864   */\n      tag_314\n        /* \"#utility.yul\":12860:12863   */\n      dup3\n        /* \"#utility.yul\":12771:12864   */\n      tag_219\n      jump\t// in\n    tag_314:\n        /* \"#utility.yul\":12889:12891   */\n      0x20\n        /* \"#utility.yul\":12884:12887   */\n      dup3\n        /* \"#utility.yul\":12880:12892   */\n      add\n        /* \"#utility.yul\":12873:12892   */\n      swap1\n      pop\n        /* \"#utility.yul\":12532:12898   */\n      swap2\n      swap1\n      pop\n      jump\t// out\n        /* \"#utility.yul\":12904:13323   */\n    tag_147:\n        /* \"#utility.yul\":13070:13074   */\n      0x00\n        /* \"#utility.yul\":13108:13110   */\n      0x20\n        /* \"#utility.yul\":13097:13106   */\n      dup3\n        /* \"#utility.yul\":13093:13111   */\n      add\n        /* \"#utility.yul\":13085:13111   */\n      swap1\n      pop\n        /* \"#utility.yul\":13157:13166   */\n      dup2\n        /* \"#utility.yul\":13151:13155   */\n      dup2\n        /* \"#utility.yul\":13147:13167   */\n      sub\n        /* \"#utility.yul\":13143:13144   */\n      0x00\n        /* \"#utility.yul\":13132:13141   */\n      dup4\n        /* \"#utility.yul\":13128:13145   */\n      add\n        /* \"#utility.yul\":13121:13168   */\n      mstore\n        /* \"#utility.yul\":13185:13316   */\n      tag_316\n        /* \"#utility.yul\":13311:13315   */\n      dup2\n        /* \"#utility.yul\":13185:13316   */\n      tag_220\n      jump\t// in\n    tag_316:\n        /* \"#utility.yul\":13177:13316   */\n      swap1\n      pop\n        /* \"#utility.yul\":12904:13323   */\n      swap2\n      swap1\n      pop\n      jump\t// out\n        /* \"#utility.yul\":13329:13496   */\n    tag_221:\n        /* \"#utility.yul\":13469:13488   */\n      0x5f747279436f6465426c6f636b4c6f636b000000000000000000000000000000\n        /* \"#utility.yul\":13465:13466   */\n      0x00\n        /* \"#utility.yul\":13457:13463   */\n      dup3\n        /* \"#utility.yul\":13453:13467   */\n      add\n        /* \"#utility.yul\":13446:13489   */\n      mstore\n        /* \"#utility.yul\":13329:13496   */\n      pop\n      jump\t// out\n        /* \"#utility.yul\":13502:13868   */\n    tag_222:\n        /* \"#utility.yul\":13644:13647   */\n      0x00\n        /* \"#utility.yul\":13665:13732   */\n      tag_319\n        /* \"#utility.yul\":13729:13731   */\n      0x11\n        /* \"#utility.yul\":13724:13727   */\n      dup4\n        /* \"#utility.yul\":13665:13732   */\n      tag_193\n      jump\t// in\n    tag_319:\n        /* \"#utility.yul\":13658:13732   */\n      swap2\n      pop\n        /* \"#utility.yul\":13741:13834   */\n      tag_320\n        /* \"#utility.yul\":13830:13833   */\n      dup3\n        /* \"#utility.yul\":13741:13834   */\n      tag_221\n      jump\t// in\n    tag_320:\n        /* \"#utility.yul\":13859:13861   */\n      0x20\n        /* \"#utility.yul\":13854:13857   */\n      dup3\n        /* \"#utility.yul\":13850:13862   */\n      add\n        /* \"#utility.yul\":13843:13862   */\n      swap1\n      pop\n        /* \"#utility.yul\":13502:13868   */\n      swap2\n      swap1\n      pop\n      jump\t// out\n        /* \"#utility.yul\":13874:14293   */\n    tag_157:\n        /* \"#utility.yul\":14040:14044   */\n      0x00\n        /* \"#utility.yul\":14078:14080   */\n      0x20\n        /* \"#utility.yul\":14067:14076   */\n      dup3\n        /* \"#utility.yul\":14063:14081   */\n      add\n        /* \"#utility.yul\":14055:14081   */\n      swap1\n      pop\n        /* \"#utility.yul\":14127:14136   */\n      dup2\n        /* \"#utility.yul\":14121:14125   */\n      dup2\n        /* \"#utility.yul\":14117:14137   */\n      sub\n        /* \"#utility.yul\":14113:14114   */\n      0x00\n        /* \"#utility.yul\":14102:14111   */\n      dup4\n        /* \"#utility.yul\":14098:14115   */\n      add\n        /* \"#utility.yul\":14091:14138   */\n      mstore\n        /* \"#utility.yul\":14155:14286   */\n      tag_322\n        /* \"#utility.yul\":14281:14285   */\n      dup2\n        /* \"#utility.yul\":14155:14286   */\n      tag_222\n      jump\t// in\n    tag_322:\n        /* \"#utility.yul\":14147:14286   */\n      swap1\n      pop\n        /* \"#utility.yul\":13874:14293   */\n      swap2\n      swap1\n      pop\n      jump\t// out\n    stop\n    data_71eb6b56e6bc75391686fe67e966306f806b048a456c03623c5c82cb980d186f 746573744e6f6e5265656e7472616e74437573746f6d697a654c6f636b4661696c\n    data_78bd68c7aad5ccee14efdb1ff7a7cc09b75c500c33c172544d24c92d311e0b5b 4e6f6e5265656e7472616e744c6f636b5472616e7369656e742e4e616d657370616365\n    data_faacc88369d312f0551ab55116e7b939a3b994008b4cbf5dd194662a45dfd0c7 4e6f6e5265656e7472616e744c6f636b5472616e7369656e742e64656661756c742e6c6f636b\n\n    auxdata: 0xa26469706673582212209b0605c0ad6a4994173641bfd754922ae3b39dd188f81db991d9b6a7c638d04064736f6c634300081a0033\n}\n",
				"bytecode": {
					"linkReferences": {},
					"object": "6080604052348015600e575f80fd5b506111568061001c5f395ff3fe608060405234801561000f575f80fd5b5060043610610060575f3560e01c80631402f8cf146100645780631a09a63e1461008057806387aeff1a1461009c578063ae27d366146100a6578063d33bf9a6146100b0578063f76cfc98146100ba575b5f80fd5b61007e60048036038101906100799190610ad8565b6100d6565b005b61009a60048036038101906100959190610ad8565b61017e565b005b6100a461020b565b005b6100ae610268565b005b6100b86102bd565b005b6100d460048036038101906100cf9190610ad8565b61034a565b005b5f6100df6104dc565b90506100ea81610530565b7fcf34ef537ac33ee1ac626ca1587a0a7e8e51561e5514f8cb36afa1c5102b3bab60405161011790610b5d565b60405180910390a181156101325761012d610580565b610171565b6101706040518060400160405280600d81526020017f637573746f6d697a654c6f636b000000000000000000000000000000000000008152506105d5565b5b61017a8161064d565b5050565b6040518060600160405280602181526020016110b7602191395f6101a18261069d565b90506101ac81610530565b7fcf34ef537ac33ee1ac626ca1587a0a7e8e51561e5514f8cb36afa1c5102b3bab6040516101d990610beb565b60405180910390a182156101f4576101ef6106ed565b6101fd565b6101fc61075d565b5b6102068161064d565b505050565b5f6102146104dc565b905061021f81610530565b7fcf34ef537ac33ee1ac626ca1587a0a7e8e51561e5514f8cb36afa1c5102b3bab60405161024c90610c53565b60405180910390a161025c6107ea565b6102658161064d565b50565b5f6102716104dc565b905061027c81610530565b7fcf34ef537ac33ee1ac626ca1587a0a7e8e51561e5514f8cb36afa1c5102b3bab6040516102a990610cbb565b60405180910390a16102ba8161064d565b50565b6040518060400160405280601d81526020017f746573744e6f6e5265656e7472616e74437573746f6d697a654c6f636b0000008152505f6102fd8261069d565b905061030881610530565b7fcf34ef537ac33ee1ac626ca1587a0a7e8e51561e5514f8cb36afa1c5102b3bab60405161033590610cbb565b60405180910390a16103468161064d565b5050565b5f6103896040518060400160405280601481526020017f74657374436f6465426c6f636b5472794c6f636b00000000000000000000000081525061069d565b905061039481610829565b6103d3576040517f08c379a00000000000000000000000000000000000000000000000000000000081526004016103ca90610d23565b60405180910390fd5b7fcf34ef537ac33ee1ac626ca1587a0a7e8e51561e5514f8cb36afa1c5102b3bab60405161040090610d8b565b60405180910390a181156104515761044c6040518060400160405280601481526020017f74657374436f6465426c6f636b5472794c6f636b00000000000000000000000081525061083a565b610490565b61048f6040518060400160405280601181526020017f5f747279436f6465426c6f636b4c6f636b0000000000000000000000000000008152506105d5565b5b6104998161090f565b6104d8576040517f08c379a00000000000000000000000000000000000000000000000000000000081526004016104cf90610df3565b60405180910390fd5b5050565b6104e4610a83565b5f6105066040518060600160405280602681526020016110fb60269139610920565b905061052a6040518060600160405280602681526020016110fb602691398261093c565b91505090565b610539816109b9565b61057d57805f01516040517f0b8b113e0000000000000000000000000000000000000000000000000000000081526004016105749190610e71565b60405180910390fd5b50565b5f6105896104dc565b905061059481610530565b7fcf34ef537ac33ee1ac626ca1587a0a7e8e51561e5514f8cb36afa1c5102b3bab6040516105c190610b5d565b60405180910390a16105d28161064d565b50565b5f6105df8261069d565b90506105ea81610530565b7fcf34ef537ac33ee1ac626ca1587a0a7e8e51561e5514f8cb36afa1c5102b3bab8260405160200161061c9190610ef1565b6040516020818303038152906040526040516106389190610e71565b60405180910390a16106498161064d565b5050565b61065681610a00565b61069a57805f01516040517fd036eb5b0000000000000000000000000000000000000000000000000000000081526004016106919190610e71565b60405180910390fd5b50565b6106a5610a83565b5f6106d9836106cb6040518060600160405280602381526020016110d860239139610920565b610a4590919063ffffffff16565b90506106e5838261093c565b915050919050565b6040518060600160405280602181526020016110b7602191395f6107108261069d565b905061071b81610530565b7fcf34ef537ac33ee1ac626ca1587a0a7e8e51561e5514f8cb36afa1c5102b3bab60405161074890610f60565b60405180910390a16107598161064d565b5050565b6040518060400160405280600d81526020017f646966666572656e744c6f636b000000000000000000000000000000000000008152505f61079d8261069d565b90506107a881610530565b7fcf34ef537ac33ee1ac626ca1587a0a7e8e51561e5514f8cb36afa1c5102b3bab6040516107d590610fc8565b60405180910390a16107e68161064d565b5050565b7fcf34ef537ac33ee1ac626ca1587a0a7e8e51561e5514f8cb36afa1c5102b3bab60405161081790611030565b60405180910390a1610827610268565b565b5f610833826109b9565b9050919050565b5f6108448261069d565b905061084f81610829565b61088e576040517f08c379a000000000000000000000000000000000000000000000000000000000815260040161088590610d23565b60405180910390fd5b7fcf34ef537ac33ee1ac626ca1587a0a7e8e51561e5514f8cb36afa1c5102b3bab6040516108bb90611098565b60405180910390a16108cc8161090f565b61090b576040517f08c379a000000000000000000000000000000000000000000000000000000000815260040161090290610df3565b60405180910390fd5b5050565b5f61091982610a00565b9050919050565b5f600182516020840120035f5260ff1960205f20169050919050565b610944610a83565b5f61094e83610a69565b905061095981610a72565b1561099b57836040517f0f538feb0000000000000000000000000000000000000000000000000000000081526004016109929190610e71565b60405180910390fd5b60405180604001604052808581526020018481525091505092915050565b5f806109c88360200151610a69565b90506109d381610a72565b156109e1575f9150506109fb565b6109f5600182610a7c90919063ffffffff16565b60019150505b919050565b5f80610a0f8360200151610a69565b9050610a1a81610a72565b610a27575f915050610a40565b610a3a5f82610a7c90919063ffffffff16565b60019150505b919050565b5f815160208301818101805186825260208401832094508082525050505092915050565b5f819050919050565b5f815c9050919050565b80825d5050565b6040518060400160405280606081526020015f80191681525090565b5f80fd5b5f8115159050919050565b610ab781610aa3565b8114610ac1575f80fd5b50565b5f81359050610ad281610aae565b92915050565b5f60208284031215610aed57610aec610a9f565b5b5f610afa84828501610ac4565b91505092915050565b5f82825260208201905092915050565b7f74657374436f6465426c6f636b4c6f636b0000000000000000000000000000005f82015250565b5f610b47601183610b03565b9150610b5282610b13565b602082019050919050565b5f6020820190508181035f830152610b7481610b3b565b9050919050565b7f746573744e6f6e5265656e7472616e74437573746f6d697a654c6f636b4661695f8201527f6c00000000000000000000000000000000000000000000000000000000000000602082015250565b5f610bd5602183610b03565b9150610be082610b7b565b604082019050919050565b5f6020820190508181035f830152610c0281610bc9565b9050919050565b7f746573744e6f6e5265656e7472616e744c6f636b4661696c00000000000000005f82015250565b5f610c3d601883610b03565b9150610c4882610c09565b602082019050919050565b5f6020820190508181035f830152610c6a81610c31565b9050919050565b7f746573744e6f6e5265656e7472616e744c6f636b0000000000000000000000005f82015250565b5f610ca5601483610b03565b9150610cb082610c71565b602082019050919050565b5f6020820190508181035f830152610cd281610c99565b9050919050565b7f7472794c6f636b206661696c75726500000000000000000000000000000000005f82015250565b5f610d0d600f83610b03565b9150610d1882610cd9565b602082019050919050565b5f6020820190508181035f830152610d3a81610d01565b9050919050565b7f74657374436f6465426c6f636b5472794c6f636b0000000000000000000000005f82015250565b5f610d75601483610b03565b9150610d8082610d41565b602082019050919050565b5f6020820190508181035f830152610da281610d69565b9050919050565b7f747279556e6c6f636b206661696c7572650000000000000000000000000000005f82015250565b5f610ddd601183610b03565b9150610de882610da9565b602082019050919050565b5f6020820190508181035f830152610e0a81610dd1565b9050919050565b5f81519050919050565b8281835e5f83830152505050565b5f601f19601f8301169050919050565b5f610e4382610e11565b610e4d8185610b03565b9350610e5d818560208601610e1b565b610e6681610e29565b840191505092915050565b5f6020820190508181035f830152610e898184610e39565b905092915050565b7f5f676574437573746f6d697a654c6f636b000000000000000000000000000000815250565b5f81905092915050565b5f610ecb82610e11565b610ed58185610eb7565b9350610ee5818560208601610e1b565b80840191505092915050565b5f610efb82610e91565b601182019150610f0b8284610ec1565b915081905092915050565b7f5f757365437573746f6d697a6553616d654c6f636b00000000000000000000005f82015250565b5f610f4a601583610b03565b9150610f5582610f16565b602082019050919050565b5f6020820190508181035f830152610f7781610f3e565b9050919050565b7f5f757365437573746f6d697a65446966666572656e744c6f636b0000000000005f82015250565b5f610fb2601a83610b03565b9150610fbd82610f7e565b602082019050919050565b5f6020820190508181035f830152610fdf81610fa6565b9050919050565b7f5f75736544656661756c744c6f636b00000000000000000000000000000000005f82015250565b5f61101a600f83610b03565b915061102582610fe6565b602082019050919050565b5f6020820190508181035f8301526110478161100e565b9050919050565b7f5f747279436f6465426c6f636b4c6f636b0000000000000000000000000000005f82015250565b5f611082601183610b03565b915061108d8261104e565b602082019050919050565b5f6020820190508181035f8301526110af81611076565b905091905056fe746573744e6f6e5265656e7472616e74437573746f6d697a654c6f636b4661696c4e6f6e5265656e7472616e744c6f636b5472616e7369656e742e4e616d6573706163654e6f6e5265656e7472616e744c6f636b5472616e7369656e742e64656661756c742e6c6f636ba26469706673582212209b0605c0ad6a4994173641bfd754922ae3b39dd188f81db991d9b6a7c638d04064736f6c634300081a0033",
					"opcodes": "PUSH1 0x80 PUSH1 0x40 MSTORE CALLVALUE DUP1 ISZERO PUSH1 0xE JUMPI PUSH0 DUP1 REVERT JUMPDEST POP PUSH2 0x1156 DUP1 PUSH2 0x1C PUSH0 CODECOPY PUSH0 RETURN INVALID PUSH1 0x80 PUSH1 0x40 MSTORE CALLVALUE DUP1 ISZERO PUSH2 0xF JUMPI PUSH0 DUP1 REVERT JUMPDEST POP PUSH1 0x4 CALLDATASIZE LT PUSH2 0x60 JUMPI PUSH0 CALLDATALOAD PUSH1 0xE0 SHR DUP1 PUSH4 0x1402F8CF EQ PUSH2 0x64 JUMPI DUP1 PUSH4 0x1A09A63E EQ PUSH2 0x80 JUMPI DUP1 PUSH4 0x87AEFF1A EQ PUSH2 0x9C JUMPI DUP1 PUSH4 0xAE27D366 EQ PUSH2 0xA6 JUMPI DUP1 PUSH4 0xD33BF9A6 EQ PUSH2 0xB0 JUMPI DUP1 PUSH4 0xF76CFC98 EQ PUSH2 0xBA JUMPI JUMPDEST PUSH0 DUP1 REVERT JUMPDEST PUSH2 0x7E PUSH1 0x4 DUP1 CALLDATASIZE SUB DUP2 ADD SWAP1 PUSH2 0x79 SWAP2 SWAP1 PUSH2 0xAD8 JUMP JUMPDEST PUSH2 0xD6 JUMP JUMPDEST STOP JUMPDEST PUSH2 0x9A PUSH1 0x4 DUP1 CALLDATASIZE SUB DUP2 ADD SWAP1 PUSH2 0x95 SWAP2 SWAP1 PUSH2 0xAD8 JUMP JUMPDEST PUSH2 0x17E JUMP JUMPDEST STOP JUMPDEST PUSH2 0xA4 PUSH2 0x20B JUMP JUMPDEST STOP JUMPDEST PUSH2 0xAE PUSH2 0x268 JUMP JUMPDEST STOP JUMPDEST PUSH2 0xB8 PUSH2 0x2BD JUMP JUMPDEST STOP JUMPDEST PUSH2 0xD4 PUSH1 0x4 DUP1 CALLDATASIZE SUB DUP2 ADD SWAP1 PUSH2 0xCF SWAP2 SWAP1 PUSH2 0xAD8 JUMP JUMPDEST PUSH2 0x34A JUMP JUMPDEST STOP JUMPDEST PUSH0 PUSH2 0xDF PUSH2 0x4DC JUMP JUMPDEST SWAP1 POP PUSH2 0xEA DUP2 PUSH2 0x530 JUMP JUMPDEST PUSH32 0xCF34EF537AC33EE1AC626CA1587A0A7E8E51561E5514F8CB36AFA1C5102B3BAB PUSH1 0x40 MLOAD PUSH2 0x117 SWAP1 PUSH2 0xB5D JUMP JUMPDEST PUSH1 0x40 MLOAD DUP1 SWAP2 SUB SWAP1 LOG1 DUP2 ISZERO PUSH2 0x132 JUMPI PUSH2 0x12D PUSH2 0x580 JUMP JUMPDEST PUSH2 0x171 JUMP JUMPDEST PUSH2 0x170 PUSH1 0x40 MLOAD DUP1 PUSH1 0x40 ADD PUSH1 0x40 MSTORE DUP1 PUSH1 0xD DUP2 MSTORE PUSH1 0x20 ADD PUSH32 0x637573746F6D697A654C6F636B00000000000000000000000000000000000000 DUP2 MSTORE POP PUSH2 0x5D5 JUMP JUMPDEST JUMPDEST PUSH2 0x17A DUP2 PUSH2 0x64D JUMP JUMPDEST POP POP JUMP JUMPDEST PUSH1 0x40 MLOAD DUP1 PUSH1 0x60 ADD PUSH1 0x40 MSTORE DUP1 PUSH1 0x21 DUP2 MSTORE PUSH1 0x20 ADD PUSH2 0x10B7 PUSH1 0x21 SWAP2 CODECOPY PUSH0 PUSH2 0x1A1 DUP3 PUSH2 0x69D JUMP JUMPDEST SWAP1 POP PUSH2 0x1AC DUP2 PUSH2 0x530 JUMP JUMPDEST PUSH32 0xCF34EF537AC33EE1AC626CA1587A0A7E8E51561E5514F8CB36AFA1C5102B3BAB PUSH1 0x40 MLOAD PUSH2 0x1D9 SWAP1 PUSH2 0xBEB JUMP JUMPDEST PUSH1 0x40 MLOAD DUP1 SWAP2 SUB SWAP1 LOG1 DUP3 ISZERO PUSH2 0x1F4 JUMPI PUSH2 0x1EF PUSH2 0x6ED JUMP JUMPDEST PUSH2 0x1FD JUMP JUMPDEST PUSH2 0x1FC PUSH2 0x75D JUMP JUMPDEST JUMPDEST PUSH2 0x206 DUP2 PUSH2 0x64D JUMP JUMPDEST POP POP POP JUMP JUMPDEST PUSH0 PUSH2 0x214 PUSH2 0x4DC JUMP JUMPDEST SWAP1 POP PUSH2 0x21F DUP2 PUSH2 0x530 JUMP JUMPDEST PUSH32 0xCF34EF537AC33EE1AC626CA1587A0A7E8E51561E5514F8CB36AFA1C5102B3BAB PUSH1 0x40 MLOAD PUSH2 0x24C SWAP1 PUSH2 0xC53 JUMP JUMPDEST PUSH1 0x40 MLOAD DUP1 SWAP2 SUB SWAP1 LOG1 PUSH2 0x25C PUSH2 0x7EA JUMP JUMPDEST PUSH2 0x265 DUP2 PUSH2 0x64D JUMP JUMPDEST POP JUMP JUMPDEST PUSH0 PUSH2 0x271 PUSH2 0x4DC JUMP JUMPDEST SWAP1 POP PUSH2 0x27C DUP2 PUSH2 0x530 JUMP JUMPDEST PUSH32 0xCF34EF537AC33EE1AC626CA1587A0A7E8E51561E5514F8CB36AFA1C5102B3BAB PUSH1 0x40 MLOAD PUSH2 0x2A9 SWAP1 PUSH2 0xCBB JUMP JUMPDEST PUSH1 0x40 MLOAD DUP1 SWAP2 SUB SWAP1 LOG1 PUSH2 0x2BA DUP2 PUSH2 0x64D JUMP JUMPDEST POP JUMP JUMPDEST PUSH1 0x40 MLOAD DUP1 PUSH1 0x40 ADD PUSH1 0x40 MSTORE DUP1 PUSH1 0x1D DUP2 MSTORE PUSH1 0x20 ADD PUSH32 0x746573744E6F6E5265656E7472616E74437573746F6D697A654C6F636B000000 DUP2 MSTORE POP PUSH0 PUSH2 0x2FD DUP3 PUSH2 0x69D JUMP JUMPDEST SWAP1 POP PUSH2 0x308 DUP2 PUSH2 0x530 JUMP JUMPDEST PUSH32 0xCF34EF537AC33EE1AC626CA1587A0A7E8E51561E5514F8CB36AFA1C5102B3BAB PUSH1 0x40 MLOAD PUSH2 0x335 SWAP1 PUSH2 0xCBB JUMP JUMPDEST PUSH1 0x40 MLOAD DUP1 SWAP2 SUB SWAP1 LOG1 PUSH2 0x346 DUP2 PUSH2 0x64D JUMP JUMPDEST POP POP JUMP JUMPDEST PUSH0 PUSH2 0x389 PUSH1 0x40 MLOAD DUP1 PUSH1 0x40 ADD PUSH1 0x40 MSTORE DUP1 PUSH1 0x14 DUP2 MSTORE PUSH1 0x20 ADD PUSH32 0x74657374436F6465426C6F636B5472794C6F636B000000000000000000000000 DUP2 MSTORE POP PUSH2 0x69D JUMP JUMPDEST SWAP1 POP PUSH2 0x394 DUP2 PUSH2 0x829 JUMP JUMPDEST PUSH2 0x3D3 JUMPI PUSH1 0x40 MLOAD PUSH32 0x8C379A000000000000000000000000000000000000000000000000000000000 DUP2 MSTORE PUSH1 0x4 ADD PUSH2 0x3CA SWAP1 PUSH2 0xD23 JUMP JUMPDEST PUSH1 0x40 MLOAD DUP1 SWAP2 SUB SWAP1 REVERT JUMPDEST PUSH32 0xCF34EF537AC33EE1AC626CA1587A0A7E8E51561E5514F8CB36AFA1C5102B3BAB PUSH1 0x40 MLOAD PUSH2 0x400 SWAP1 PUSH2 0xD8B JUMP JUMPDEST PUSH1 0x40 MLOAD DUP1 SWAP2 SUB SWAP1 LOG1 DUP2 ISZERO PUSH2 0x451 JUMPI PUSH2 0x44C PUSH1 0x40 MLOAD DUP1 PUSH1 0x40 ADD PUSH1 0x40 MSTORE DUP1 PUSH1 0x14 DUP2 MSTORE PUSH1 0x20 ADD PUSH32 0x74657374436F6465426C6F636B5472794C6F636B000000000000000000000000 DUP2 MSTORE POP PUSH2 0x83A JUMP JUMPDEST PUSH2 0x490 JUMP JUMPDEST PUSH2 0x48F PUSH1 0x40 MLOAD DUP1 PUSH1 0x40 ADD PUSH1 0x40 MSTORE DUP1 PUSH1 0x11 DUP2 MSTORE PUSH1 0x20 ADD PUSH32 0x5F747279436F6465426C6F636B4C6F636B000000000000000000000000000000 DUP2 MSTORE POP PUSH2 0x5D5 JUMP JUMPDEST JUMPDEST PUSH2 0x499 DUP2 PUSH2 0x90F JUMP JUMPDEST PUSH2 0x4D8 JUMPI PUSH1 0x40 MLOAD PUSH32 0x8C379A000000000000000000000000000000000000000000000000000000000 DUP2 MSTORE PUSH1 0x4 ADD PUSH2 0x4CF SWAP1 PUSH2 0xDF3 JUMP JUMPDEST PUSH1 0x40 MLOAD DUP1 SWAP2 SUB SWAP1 REVERT JUMPDEST POP POP JUMP JUMPDEST PUSH2 0x4E4 PUSH2 0xA83 JUMP JUMPDEST PUSH0 PUSH2 0x506 PUSH1 0x40 MLOAD DUP1 PUSH1 0x60 ADD PUSH1 0x40 MSTORE DUP1 PUSH1 0x26 DUP2 MSTORE PUSH1 0x20 ADD PUSH2 0x10FB PUSH1 0x26 SWAP2 CODECOPY PUSH2 0x920 JUMP JUMPDEST SWAP1 POP PUSH2 0x52A PUSH1 0x40 MLOAD DUP1 PUSH1 0x60 ADD PUSH1 0x40 MSTORE DUP1 PUSH1 0x26 DUP2 MSTORE PUSH1 0x20 ADD PUSH2 0x10FB PUSH1 0x26 SWAP2 CODECOPY DUP3 PUSH2 0x93C JUMP JUMPDEST SWAP2 POP POP SWAP1 JUMP JUMPDEST PUSH2 0x539 DUP2 PUSH2 0x9B9 JUMP JUMPDEST PUSH2 0x57D JUMPI DUP1 PUSH0 ADD MLOAD PUSH1 0x40 MLOAD PUSH32 0xB8B113E00000000000000000000000000000000000000000000000000000000 DUP2 MSTORE PUSH1 0x4 ADD PUSH2 0x574 SWAP2 SWAP1 PUSH2 0xE71 JUMP JUMPDEST PUSH1 0x40 MLOAD DUP1 SWAP2 SUB SWAP1 REVERT JUMPDEST POP JUMP JUMPDEST PUSH0 PUSH2 0x589 PUSH2 0x4DC JUMP JUMPDEST SWAP1 POP PUSH2 0x594 DUP2 PUSH2 0x530 JUMP JUMPDEST PUSH32 0xCF34EF537AC33EE1AC626CA1587A0A7E8E51561E5514F8CB36AFA1C5102B3BAB PUSH1 0x40 MLOAD PUSH2 0x5C1 SWAP1 PUSH2 0xB5D JUMP JUMPDEST PUSH1 0x40 MLOAD DUP1 SWAP2 SUB SWAP1 LOG1 PUSH2 0x5D2 DUP2 PUSH2 0x64D JUMP JUMPDEST POP JUMP JUMPDEST PUSH0 PUSH2 0x5DF DUP3 PUSH2 0x69D JUMP JUMPDEST SWAP1 POP PUSH2 0x5EA DUP2 PUSH2 0x530 JUMP JUMPDEST PUSH32 0xCF34EF537AC33EE1AC626CA1587A0A7E8E51561E5514F8CB36AFA1C5102B3BAB DUP3 PUSH1 0x40 MLOAD PUSH1 0x20 ADD PUSH2 0x61C SWAP2 SWAP1 PUSH2 0xEF1 JUMP JUMPDEST PUSH1 0x40 MLOAD PUSH1 0x20 DUP2 DUP4 SUB SUB DUP2 MSTORE SWAP1 PUSH1 0x40 MSTORE PUSH1 0x40 MLOAD PUSH2 0x638 SWAP2 SWAP1 PUSH2 0xE71 JUMP JUMPDEST PUSH1 0x40 MLOAD DUP1 SWAP2 SUB SWAP1 LOG1 PUSH2 0x649 DUP2 PUSH2 0x64D JUMP JUMPDEST POP POP JUMP JUMPDEST PUSH2 0x656 DUP2 PUSH2 0xA00 JUMP JUMPDEST PUSH2 0x69A JUMPI DUP1 PUSH0 ADD MLOAD PUSH1 0x40 MLOAD PUSH32 0xD036EB5B00000000000000000000000000000000000000000000000000000000 DUP2 MSTORE PUSH1 0x4 ADD PUSH2 0x691 SWAP2 SWAP1 PUSH2 0xE71 JUMP JUMPDEST PUSH1 0x40 MLOAD DUP1 SWAP2 SUB SWAP1 REVERT JUMPDEST POP JUMP JUMPDEST PUSH2 0x6A5 PUSH2 0xA83 JUMP JUMPDEST PUSH0 PUSH2 0x6D9 DUP4 PUSH2 0x6CB PUSH1 0x40 MLOAD DUP1 PUSH1 0x60 ADD PUSH1 0x40 MSTORE DUP1 PUSH1 0x23 DUP2 MSTORE PUSH1 0x20 ADD PUSH2 0x10D8 PUSH1 0x23 SWAP2 CODECOPY PUSH2 0x920 JUMP JUMPDEST PUSH2 0xA45 SWAP1 SWAP2 SWAP1 PUSH4 0xFFFFFFFF AND JUMP JUMPDEST SWAP1 POP PUSH2 0x6E5 DUP4 DUP3 PUSH2 0x93C JUMP JUMPDEST SWAP2 POP POP SWAP2 SWAP1 POP JUMP JUMPDEST PUSH1 0x40 MLOAD DUP1 PUSH1 0x60 ADD PUSH1 0x40 MSTORE DUP1 PUSH1 0x21 DUP2 MSTORE PUSH1 0x20 ADD PUSH2 0x10B7 PUSH1 0x21 SWAP2 CODECOPY PUSH0 PUSH2 0x710 DUP3 PUSH2 0x69D JUMP JUMPDEST SWAP1 POP PUSH2 0x71B DUP2 PUSH2 0x530 JUMP JUMPDEST PUSH32 0xCF34EF537AC33EE1AC626CA1587A0A7E8E51561E5514F8CB36AFA1C5102B3BAB PUSH1 0x40 MLOAD PUSH2 0x748 SWAP1 PUSH2 0xF60 JUMP JUMPDEST PUSH1 0x40 MLOAD DUP1 SWAP2 SUB SWAP1 LOG1 PUSH2 0x759 DUP2 PUSH2 0x64D JUMP JUMPDEST POP POP JUMP JUMPDEST PUSH1 0x40 MLOAD DUP1 PUSH1 0x40 ADD PUSH1 0x40 MSTORE DUP1 PUSH1 0xD DUP2 MSTORE PUSH1 0x20 ADD PUSH32 0x646966666572656E744C6F636B00000000000000000000000000000000000000 DUP2 MSTORE POP PUSH0 PUSH2 0x79D DUP3 PUSH2 0x69D JUMP JUMPDEST SWAP1 POP PUSH2 0x7A8 DUP2 PUSH2 0x530 JUMP JUMPDEST PUSH32 0xCF34EF537AC33EE1AC626CA1587A0A7E8E51561E5514F8CB36AFA1C5102B3BAB PUSH1 0x40 MLOAD PUSH2 0x7D5 SWAP1 PUSH2 0xFC8 JUMP JUMPDEST PUSH1 0x40 MLOAD DUP1 SWAP2 SUB SWAP1 LOG1 PUSH2 0x7E6 DUP2 PUSH2 0x64D JUMP JUMPDEST POP POP JUMP JUMPDEST PUSH32 0xCF34EF537AC33EE1AC626CA1587A0A7E8E51561E5514F8CB36AFA1C5102B3BAB PUSH1 0x40 MLOAD PUSH2 0x817 SWAP1 PUSH2 0x1030 JUMP JUMPDEST PUSH1 0x40 MLOAD DUP1 SWAP2 SUB SWAP1 LOG1 PUSH2 0x827 PUSH2 0x268 JUMP JUMPDEST JUMP JUMPDEST PUSH0 PUSH2 0x833 DUP3 PUSH2 0x9B9 JUMP JUMPDEST SWAP1 POP SWAP2 SWAP1 POP JUMP JUMPDEST PUSH0 PUSH2 0x844 DUP3 PUSH2 0x69D JUMP JUMPDEST SWAP1 POP PUSH2 0x84F DUP2 PUSH2 0x829 JUMP JUMPDEST PUSH2 0x88E JUMPI PUSH1 0x40 MLOAD PUSH32 0x8C379A000000000000000000000000000000000000000000000000000000000 DUP2 MSTORE PUSH1 0x4 ADD PUSH2 0x885 SWAP1 PUSH2 0xD23 JUMP JUMPDEST PUSH1 0x40 MLOAD DUP1 SWAP2 SUB SWAP1 REVERT JUMPDEST PUSH32 0xCF34EF537AC33EE1AC626CA1587A0A7E8E51561E5514F8CB36AFA1C5102B3BAB PUSH1 0x40 MLOAD PUSH2 0x8BB SWAP1 PUSH2 0x1098 JUMP JUMPDEST PUSH1 0x40 MLOAD DUP1 SWAP2 SUB SWAP1 LOG1 PUSH2 0x8CC DUP2 PUSH2 0x90F JUMP JUMPDEST PUSH2 0x90B JUMPI PUSH1 0x40 MLOAD PUSH32 0x8C379A000000000000000000000000000000000000000000000000000000000 DUP2 MSTORE PUSH1 0x4 ADD PUSH2 0x902 SWAP1 PUSH2 0xDF3 JUMP JUMPDEST PUSH1 0x40 MLOAD DUP1 SWAP2 SUB SWAP1 REVERT JUMPDEST POP POP JUMP JUMPDEST PUSH0 PUSH2 0x919 DUP3 PUSH2 0xA00 JUMP JUMPDEST SWAP1 POP SWAP2 SWAP1 POP JUMP JUMPDEST PUSH0 PUSH1 0x1 DUP3 MLOAD PUSH1 0x20 DUP5 ADD KECCAK256 SUB PUSH0 MSTORE PUSH1 0xFF NOT PUSH1 0x20 PUSH0 KECCAK256 AND SWAP1 POP SWAP2 SWAP1 POP JUMP JUMPDEST PUSH2 0x944 PUSH2 0xA83 JUMP JUMPDEST PUSH0 PUSH2 0x94E DUP4 PUSH2 0xA69 JUMP JUMPDEST SWAP1 POP PUSH2 0x959 DUP2 PUSH2 0xA72 JUMP JUMPDEST ISZERO PUSH2 0x99B JUMPI DUP4 PUSH1 0x40 MLOAD PUSH32 0xF538FEB00000000000000000000000000000000000000000000000000000000 DUP2 MSTORE PUSH1 0x4 ADD PUSH2 0x992 SWAP2 SWAP1 PUSH2 0xE71 JUMP JUMPDEST PUSH1 0x40 MLOAD DUP1 SWAP2 SUB SWAP1 REVERT JUMPDEST PUSH1 0x40 MLOAD DUP1 PUSH1 0x40 ADD PUSH1 0x40 MSTORE DUP1 DUP6 DUP2 MSTORE PUSH1 0x20 ADD DUP5 DUP2 MSTORE POP SWAP2 POP POP SWAP3 SWAP2 POP POP JUMP JUMPDEST PUSH0 DUP1 PUSH2 0x9C8 DUP4 PUSH1 0x20 ADD MLOAD PUSH2 0xA69 JUMP JUMPDEST SWAP1 POP PUSH2 0x9D3 DUP2 PUSH2 0xA72 JUMP JUMPDEST ISZERO PUSH2 0x9E1 JUMPI PUSH0 SWAP2 POP POP PUSH2 0x9FB JUMP JUMPDEST PUSH2 0x9F5 PUSH1 0x1 DUP3 PUSH2 0xA7C SWAP1 SWAP2 SWAP1 PUSH4 0xFFFFFFFF AND JUMP JUMPDEST PUSH1 0x1 SWAP2 POP POP JUMPDEST SWAP2 SWAP1 POP JUMP JUMPDEST PUSH0 DUP1 PUSH2 0xA0F DUP4 PUSH1 0x20 ADD MLOAD PUSH2 0xA69 JUMP JUMPDEST SWAP1 POP PUSH2 0xA1A DUP2 PUSH2 0xA72 JUMP JUMPDEST PUSH2 0xA27 JUMPI PUSH0 SWAP2 POP POP PUSH2 0xA40 JUMP JUMPDEST PUSH2 0xA3A PUSH0 DUP3 PUSH2 0xA7C SWAP1 SWAP2 SWAP1 PUSH4 0xFFFFFFFF AND JUMP JUMPDEST PUSH1 0x1 SWAP2 POP POP JUMPDEST SWAP2 SWAP1 POP JUMP JUMPDEST PUSH0 DUP2 MLOAD PUSH1 0x20 DUP4 ADD DUP2 DUP2 ADD DUP1 MLOAD DUP7 DUP3 MSTORE PUSH1 0x20 DUP5 ADD DUP4 KECCAK256 SWAP5 POP DUP1 DUP3 MSTORE POP POP POP POP SWAP3 SWAP2 POP POP JUMP JUMPDEST PUSH0 DUP2 SWAP1 POP SWAP2 SWAP1 POP JUMP JUMPDEST PUSH0 DUP2 TLOAD SWAP1 POP SWAP2 SWAP1 POP JUMP JUMPDEST DUP1 DUP3 TSTORE POP POP JUMP JUMPDEST PUSH1 0x40 MLOAD DUP1 PUSH1 0x40 ADD PUSH1 0x40 MSTORE DUP1 PUSH1 0x60 DUP2 MSTORE PUSH1 0x20 ADD PUSH0 DUP1 NOT AND DUP2 MSTORE POP SWAP1 JUMP JUMPDEST PUSH0 DUP1 REVERT JUMPDEST PUSH0 DUP2 ISZERO ISZERO SWAP1 POP SWAP2 SWAP1 POP JUMP JUMPDEST PUSH2 0xAB7 DUP2 PUSH2 0xAA3 JUMP JUMPDEST DUP2 EQ PUSH2 0xAC1 JUMPI PUSH0 DUP1 REVERT JUMPDEST POP JUMP JUMPDEST PUSH0 DUP2 CALLDATALOAD SWAP1 POP PUSH2 0xAD2 DUP2 PUSH2 0xAAE JUMP JUMPDEST SWAP3 SWAP2 POP POP JUMP JUMPDEST PUSH0 PUSH1 0x20 DUP3 DUP5 SUB SLT ISZERO PUSH2 0xAED JUMPI PUSH2 0xAEC PUSH2 0xA9F JUMP JUMPDEST JUMPDEST PUSH0 PUSH2 0xAFA DUP5 DUP3 DUP6 ADD PUSH2 0xAC4 JUMP JUMPDEST SWAP2 POP POP SWAP3 SWAP2 POP POP JUMP JUMPDEST PUSH0 DUP3 DUP3 MSTORE PUSH1 0x20 DUP3 ADD SWAP1 POP SWAP3 SWAP2 POP POP JUMP JUMPDEST PUSH32 0x74657374436F6465426C6F636B4C6F636B000000000000000000000000000000 PUSH0 DUP3 ADD MSTORE POP JUMP JUMPDEST PUSH0 PUSH2 0xB47 PUSH1 0x11 DUP4 PUSH2 0xB03 JUMP JUMPDEST SWAP2 POP PUSH2 0xB52 DUP3 PUSH2 0xB13 JUMP JUMPDEST PUSH1 0x20 DUP3 ADD SWAP1 POP SWAP2 SWAP1 POP JUMP JUMPDEST PUSH0 PUSH1 0x20 DUP3 ADD SWAP1 POP DUP2 DUP2 SUB PUSH0 DUP4 ADD MSTORE PUSH2 0xB74 DUP2 PUSH2 0xB3B JUMP JUMPDEST SWAP1 POP SWAP2 SWAP1 POP JUMP JUMPDEST PUSH32 0x746573744E6F6E5265656E7472616E74437573746F6D697A654C6F636B466169 PUSH0 DUP3 ADD MSTORE PUSH32 0x6C00000000000000000000000000000000000000000000000000000000000000 PUSH1 0x20 DUP3 ADD MSTORE POP JUMP JUMPDEST PUSH0 PUSH2 0xBD5 PUSH1 0x21 DUP4 PUSH2 0xB03 JUMP JUMPDEST SWAP2 POP PUSH2 0xBE0 DUP3 PUSH2 0xB7B JUMP JUMPDEST PUSH1 0x40 DUP3 ADD SWAP1 POP SWAP2 SWAP1 POP JUMP JUMPDEST PUSH0 PUSH1 0x20 DUP3 ADD SWAP1 POP DUP2 DUP2 SUB PUSH0 DUP4 ADD MSTORE PUSH2 0xC02 DUP2 PUSH2 0xBC9 JUMP JUMPDEST SWAP1 POP SWAP2 SWAP1 POP JUMP JUMPDEST PUSH32 0x746573744E6F6E5265656E7472616E744C6F636B4661696C0000000000000000 PUSH0 DUP3 ADD MSTORE POP JUMP JUMPDEST PUSH0 PUSH2 0xC3D PUSH1 0x18 DUP4 PUSH2 0xB03 JUMP JUMPDEST SWAP2 POP PUSH2 0xC48 DUP3 PUSH2 0xC09 JUMP JUMPDEST PUSH1 0x20 DUP3 ADD SWAP1 POP SWAP2 SWAP1 POP JUMP JUMPDEST PUSH0 PUSH1 0x20 DUP3 ADD SWAP1 POP DUP2 DUP2 SUB PUSH0 DUP4 ADD MSTORE PUSH2 0xC6A DUP2 PUSH2 0xC31 JUMP JUMPDEST SWAP1 POP SWAP2 SWAP1 POP JUMP JUMPDEST PUSH32 0x746573744E6F6E5265656E7472616E744C6F636B000000000000000000000000 PUSH0 DUP3 ADD MSTORE POP JUMP JUMPDEST PUSH0 PUSH2 0xCA5 PUSH1 0x14 DUP4 PUSH2 0xB03 JUMP JUMPDEST SWAP2 POP PUSH2 0xCB0 DUP3 PUSH2 0xC71 JUMP JUMPDEST PUSH1 0x20 DUP3 ADD SWAP1 POP SWAP2 SWAP1 POP JUMP JUMPDEST PUSH0 PUSH1 0x20 DUP3 ADD SWAP1 POP DUP2 DUP2 SUB PUSH0 DUP4 ADD MSTORE PUSH2 0xCD2 DUP2 PUSH2 0xC99 JUMP JUMPDEST SWAP1 POP SWAP2 SWAP1 POP JUMP JUMPDEST PUSH32 0x7472794C6F636B206661696C7572650000000000000000000000000000000000 PUSH0 DUP3 ADD MSTORE POP JUMP JUMPDEST PUSH0 PUSH2 0xD0D PUSH1 0xF DUP4 PUSH2 0xB03 JUMP JUMPDEST SWAP2 POP PUSH2 0xD18 DUP3 PUSH2 0xCD9 JUMP JUMPDEST PUSH1 0x20 DUP3 ADD SWAP1 POP SWAP2 SWAP1 POP JUMP JUMPDEST PUSH0 PUSH1 0x20 DUP3 ADD SWAP1 POP DUP2 DUP2 SUB PUSH0 DUP4 ADD MSTORE PUSH2 0xD3A DUP2 PUSH2 0xD01 JUMP JUMPDEST SWAP1 POP SWAP2 SWAP1 POP JUMP JUMPDEST PUSH32 0x74657374436F6465426C6F636B5472794C6F636B000000000000000000000000 PUSH0 DUP3 ADD MSTORE POP JUMP JUMPDEST PUSH0 PUSH2 0xD75 PUSH1 0x14 DUP4 PUSH2 0xB03 JUMP JUMPDEST SWAP2 POP PUSH2 0xD80 DUP3 PUSH2 0xD41 JUMP JUMPDEST PUSH1 0x20 DUP3 ADD SWAP1 POP SWAP2 SWAP1 POP JUMP JUMPDEST PUSH0 PUSH1 0x20 DUP3 ADD SWAP1 POP DUP2 DUP2 SUB PUSH0 DUP4 ADD MSTORE PUSH2 0xDA2 DUP2 PUSH2 0xD69 JUMP JUMPDEST SWAP1 POP SWAP2 SWAP1 POP JUMP JUMPDEST PUSH32 0x747279556E6C6F636B206661696C757265000000000000000000000000000000 PUSH0 DUP3 ADD MSTORE POP JUMP JUMPDEST PUSH0 PUSH2 0xDDD PUSH1 0x11 DUP4 PUSH2 0xB03 JUMP JUMPDEST SWAP2 POP PUSH2 0xDE8 DUP3 PUSH2 0xDA9 JUMP JUMPDEST PUSH1 0x20 DUP3 ADD SWAP1 POP SWAP2 SWAP1 POP JUMP JUMPDEST PUSH0 PUSH1 0x20 DUP3 ADD SWAP1 POP DUP2 DUP2 SUB PUSH0 DUP4 ADD MSTORE PUSH2 0xE0A DUP2 PUSH2 0xDD1 JUMP JUMPDEST SWAP1 POP SWAP2 SWAP1 POP JUMP JUMPDEST PUSH0 DUP2 MLOAD SWAP1 POP SWAP2 SWAP1 POP JUMP JUMPDEST DUP3 DUP2 DUP4 MCOPY PUSH0 DUP4 DUP4 ADD MSTORE POP POP POP JUMP JUMPDEST PUSH0 PUSH1 0x1F NOT PUSH1 0x1F DUP4 ADD AND SWAP1 POP SWAP2 SWAP1 POP JUMP JUMPDEST PUSH0 PUSH2 0xE43 DUP3 PUSH2 0xE11 JUMP JUMPDEST PUSH2 0xE4D DUP2 DUP6 PUSH2 0xB03 JUMP JUMPDEST SWAP4 POP PUSH2 0xE5D DUP2 DUP6 PUSH1 0x20 DUP7 ADD PUSH2 0xE1B JUMP JUMPDEST PUSH2 0xE66 DUP2 PUSH2 0xE29 JUMP JUMPDEST DUP5 ADD SWAP2 POP POP SWAP3 SWAP2 POP POP JUMP JUMPDEST PUSH0 PUSH1 0x20 DUP3 ADD SWAP1 POP DUP2 DUP2 SUB PUSH0 DUP4 ADD MSTORE PUSH2 0xE89 DUP2 DUP5 PUSH2 0xE39 JUMP JUMPDEST SWAP1 POP SWAP3 SWAP2 POP POP JUMP JUMPDEST PUSH32 0x5F676574437573746F6D697A654C6F636B000000000000000000000000000000 DUP2 MSTORE POP JUMP JUMPDEST PUSH0 DUP2 SWAP1 POP SWAP3 SWAP2 POP POP JUMP JUMPDEST PUSH0 PUSH2 0xECB DUP3 PUSH2 0xE11 JUMP JUMPDEST PUSH2 0xED5 DUP2 DUP6 PUSH2 0xEB7 JUMP JUMPDEST SWAP4 POP PUSH2 0xEE5 DUP2 DUP6 PUSH1 0x20 DUP7 ADD PUSH2 0xE1B JUMP JUMPDEST DUP1 DUP5 ADD SWAP2 POP POP SWAP3 SWAP2 POP POP JUMP JUMPDEST PUSH0 PUSH2 0xEFB DUP3 PUSH2 0xE91 JUMP JUMPDEST PUSH1 0x11 DUP3 ADD SWAP2 POP PUSH2 0xF0B DUP3 DUP5 PUSH2 0xEC1 JUMP JUMPDEST SWAP2 POP DUP2 SWAP1 POP SWAP3 SWAP2 POP POP JUMP JUMPDEST PUSH32 0x5F757365437573746F6D697A6553616D654C6F636B0000000000000000000000 PUSH0 DUP3 ADD MSTORE POP JUMP JUMPDEST PUSH0 PUSH2 0xF4A PUSH1 0x15 DUP4 PUSH2 0xB03 JUMP JUMPDEST SWAP2 POP PUSH2 0xF55 DUP3 PUSH2 0xF16 JUMP JUMPDEST PUSH1 0x20 DUP3 ADD SWAP1 POP SWAP2 SWAP1 POP JUMP JUMPDEST PUSH0 PUSH1 0x20 DUP3 ADD SWAP1 POP DUP2 DUP2 SUB PUSH0 DUP4 ADD MSTORE PUSH2 0xF77 DUP2 PUSH2 0xF3E JUMP JUMPDEST SWAP1 POP SWAP2 SWAP1 POP JUMP JUMPDEST PUSH32 0x5F757365437573746F6D697A65446966666572656E744C6F636B000000000000 PUSH0 DUP3 ADD MSTORE POP JUMP JUMPDEST PUSH0 PUSH2 0xFB2 PUSH1 0x1A DUP4 PUSH2 0xB03 JUMP JUMPDEST SWAP2 POP PUSH2 0xFBD DUP3 PUSH2 0xF7E JUMP JUMPDEST PUSH1 0x20 DUP3 ADD SWAP1 POP SWAP2 SWAP1 POP JUMP JUMPDEST PUSH0 PUSH1 0x20 DUP3 ADD SWAP1 POP DUP2 DUP2 SUB PUSH0 DUP4 ADD MSTORE PUSH2 0xFDF DUP2 PUSH2 0xFA6 JUMP JUMPDEST SWAP1 POP SWAP2 SWAP1 POP JUMP JUMPDEST PUSH32 0x5F75736544656661756C744C6F636B0000000000000000000000000000000000 PUSH0 DUP3 ADD MSTORE POP JUMP JUMPDEST PUSH0 PUSH2 0x101A PUSH1 0xF DUP4 PUSH2 0xB03 JUMP JUMPDEST SWAP2 POP PUSH2 0x1025 DUP3 PUSH2 0xFE6 JUMP JUMPDEST PUSH1 0x20 DUP3 ADD SWAP1 POP SWAP2 SWAP1 POP JUMP JUMPDEST PUSH0 PUSH1 0x20 DUP3 ADD SWAP1 POP DUP2 DUP2 SUB PUSH0 DUP4 ADD MSTORE PUSH2 0x1047 DUP2 PUSH2 0x100E JUMP JUMPDEST SWAP1 POP SWAP2 SWAP1 POP JUMP JUMPDEST PUSH32 0x5F747279436F6465426C6F636B4C6F636B000000000000000000000000000000 PUSH0 DUP3 ADD MSTORE POP JUMP JUMPDEST PUSH0 PUSH2 0x1082 PUSH1 0x11 DUP4 PUSH2 0xB03 JUMP JUMPDEST SWAP2 POP PUSH2 0x108D DUP3 PUSH2 0x104E JUMP JUMPDEST PUSH1 0x20 DUP3 ADD SWAP1 POP SWAP2 SWAP1 POP JUMP JUMPDEST PUSH0 PUSH1 0x20 DUP3 ADD SWAP1 POP DUP2 DUP2 SUB PUSH0 DUP4 ADD MSTORE PUSH2 0x10AF DUP2 PUSH2 0x1076 JUMP JUMPDEST SWAP1 POP SWAP2 SWAP1 POP JUMP INVALID PUSH21 0x6573744E6F6E5265656E7472616E74437573746F6D PUSH10 0x7A654C6F636B4661696C 0x4E PUSH16 0x6E5265656E7472616E744C6F636B5472 PUSH2 0x6E73 PUSH10 0x656E742E4E616D657370 PUSH2 0x6365 0x4E PUSH16 0x6E5265656E7472616E744C6F636B5472 PUSH2 0x6E73 PUSH10 0x656E742E64656661756C PUSH21 0x2E6C6F636BA26469706673582212209B0605C0AD6A BLOBHASH SWAP5 OR CALLDATASIZE COINBASE 0xBF 0xD7 SLOAD SWAP3 0x2A 0xE3 0xB3 SWAP14 0xD1 DUP9 0xF8 SAR 0xB9 SWAP2 0xD9 0xB6 0xA7 0xC6 CODESIZE 0xD0 BLOCKHASH PUSH5 0x736F6C6343 STOP ADDMOD BYTE STOP CALLER "
				},
				"gasEstimates": {
					"creation": {
						"codeDepositCost": "887600",
						"executionCost": "920",
						"totalCost": "888520"
					},
					"external": {
						"testCodeBlockLock(bool)": "infinite",
						"testCodeBlockTryLock(bool)": "infinite",
						"testNonReentrantCustomizeLockFail(bool)": "infinite",
						"testNonReentrantCustomizeLockSuccess()": "infinite",
						"testNonReentrantLockFail()": "infinite",
						"testNonReentrantLockSuccess()": "infinite"
					},
					"internal": {
						"_getCustomizeLock(string memory)": "infinite",
						"_getDefaultLock()": "infinite",
						"_tryCodeBlockLock(string memory)": "infinite",
						"_useCustomizeDifferentLock()": "infinite",
						"_useCustomizeSameLock()": "infinite",
						"_useDefaultLock()": "infinite"
					}
				},
				"methodIdentifiers": {
					"testCodeBlockLock(bool)": "1402f8cf",
					"testCodeBlockTryLock(bool)": "f76cfc98",
					"testNonReentrantCustomizeLockFail(bool)": "1a09a63e",
					"testNonReentrantCustomizeLockSuccess()": "d33bf9a6",
					"testNonReentrantLockFail()": "87aeff1a",
					"testNonReentrantLockSuccess()": "ae27d366"
				}
			},
			"storageLayout": {
				"storage": [],
				"types": null
			},
			"userdoc": {
				"kind": "user",
				"methods": {},
				"version": 1
			}
		}
	}
}