{
	"contracts/utils/NonReentrantLockTransient.sol": {
		"NonReentrantLockTransient": {
			"abi": [
				{
					"inputs": [
						{
							"internalType": "string",
							"name": "slotSeed",
							"type": "string"
						}
					],
					"name": "AcquireLockFailure",
					"type": "error"
				},
				{
					"inputs": [
						{
							"internalType": "string",
							"name": "slotSeed",
							"type": "string"
						}
					],
					"name": "GetLockFailure",
					"type": "error"
				},
				{
					"inputs": [
						{
							"internalType": "string",
							"name": "slotSeed",
							"type": "string"
						}
					],
					"name": "UnlockFailure",
					"type": "error"
				},
				{
					"inputs": [],
					"name": "ERC7201_NAMESPACE",
					"outputs": [
						{
							"internalType": "string",
							"name": "",
							"type": "string"
						}
					],
					"stateMutability": "view",
					"type": "function"
				}
			],
			"devdoc": {
				"details": "Library for managing transient reentrancy locks using EIP-1153 transient storage.  Provides functions to acquire, release, and customize locks. Locks are automatically  reset at the end of transactions, ensuring safe use even in multi-call scenarios.  Key Functions: - `getLock()`: Retrieves the default lock. - `getLock(string memory seed)`: Retrieves a custom lock based on a unique seed. - `lock()` & `unlock()`: Acquire and release locks, reverting on failure. - `tryLock()` & `tryUnlock()`: Non-reverting lock functions returning success status. Example usage: ```solidity function criticalOperation() external {    // NonReentrantLockTransient.getLock() also can get a default lock    NonReentrantLockTransient.NonReentrantLock memory lock = \"critical.lock\".getLock();    lock.lock();     // Critical section code    lock.unlock(); } ```",
				"kind": "dev",
				"methods": {},
				"title": "NonReentrantLockTransient",
				"version": 1
			},
			"evm": {
				"assembly": "    /* \"contracts/utils/NonReentrantLockTransient.sol\":1130:4372  library NonReentrantLockTransient {... */\n  dataSize(sub_0)\n  dataOffset(sub_0)\n  0x0b\n  dup3\n  dup3\n  dup3\n  codecopy\n  dup1\n  mload\n  0x00\n  byte\n  0x73\n  eq\n  tag_1\n  jumpi\n  mstore(0x00, 0x4e487b7100000000000000000000000000000000000000000000000000000000)\n  mstore(0x04, 0x00)\n  revert(0x00, 0x24)\ntag_1:\n  mstore(0x00, address)\n  0x73\n  dup2\n  mstore8\n  dup3\n  dup2\n  return\nstop\n\nsub_0: assembly {\n        /* \"contracts/utils/NonReentrantLockTransient.sol\":1130:4372  library NonReentrantLockTransient {... */\n      eq(address, deployTimeAddress())\n      mstore(0x40, 0x80)\n      jumpi(tag_1, lt(calldatasize, 0x04))\n      shr(0xe0, calldataload(0x00))\n      dup1\n      0x1516f08e\n      eq\n      tag_2\n      jumpi\n    tag_1:\n      0x00\n      dup1\n      revert\n        /* \"contracts/utils/NonReentrantLockTransient.sol\":1367:1447  string public constant ERC7201_NAMESPACE = \"NonReentrantLockTransient.Namespace\" */\n    tag_2:\n      tag_3\n      tag_4\n      jump\t// in\n    tag_3:\n      mload(0x40)\n      tag_5\n      swap2\n      swap1\n      tag_6\n      jump\t// in\n    tag_5:\n      mload(0x40)\n      dup1\n      swap2\n      sub\n      swap1\n      return\n    tag_4:\n      mload(0x40)\n      dup1\n      0x60\n      add\n      0x40\n      mstore\n      dup1\n      0x23\n      dup2\n      mstore\n      0x20\n      add\n      data_78bd68c7aad5ccee14efdb1ff7a7cc09b75c500c33c172544d24c92d311e0b5b\n      0x23\n      swap2\n      codecopy\n      dup2\n      jump\t// out\n        /* \"#utility.yul\":7:106   */\n    tag_7:\n        /* \"#utility.yul\":59:65   */\n      0x00\n        /* \"#utility.yul\":93:98   */\n      dup2\n        /* \"#utility.yul\":87:99   */\n      mload\n        /* \"#utility.yul\":77:99   */\n      swap1\n      pop\n        /* \"#utility.yul\":7:106   */\n      swap2\n      swap1\n      pop\n      jump\t// out\n        /* \"#utility.yul\":112:289   */\n    tag_8:\n        /* \"#utility.yul\":204:215   */\n      0x00\n        /* \"#utility.yul\":238:244   */\n      dup3\n        /* \"#utility.yul\":233:236   */\n      dup3\n        /* \"#utility.yul\":226:245   */\n      mstore\n        /* \"#utility.yul\":278:282   */\n      0x20\n        /* \"#utility.yul\":273:276   */\n      dup3\n        /* \"#utility.yul\":269:283   */\n      add\n        /* \"#utility.yul\":254:283   */\n      swap1\n      pop\n        /* \"#utility.yul\":112:289   */\n      swap3\n      swap2\n      pop\n      pop\n      jump\t// out\n        /* \"#utility.yul\":295:434   */\n    tag_9:\n        /* \"#utility.yul\":384:390   */\n      dup3\n        /* \"#utility.yul\":379:382   */\n      dup2\n        /* \"#utility.yul\":374:377   */\n      dup4\n        /* \"#utility.yul\":368:391   */\n      mcopy\n        /* \"#utility.yul\":425:426   */\n      0x00\n        /* \"#utility.yul\":416:422   */\n      dup4\n        /* \"#utility.yul\":411:414   */\n      dup4\n        /* \"#utility.yul\":407:423   */\n      add\n        /* \"#utility.yul\":400:427   */\n      mstore\n        /* \"#utility.yul\":295:434   */\n      pop\n      pop\n      pop\n      jump\t// out\n        /* \"#utility.yul\":440:542   */\n    tag_10:\n        /* \"#utility.yul\":481:487   */\n      0x00\n        /* \"#utility.yul\":532:534   */\n      0x1f\n        /* \"#utility.yul\":528:535   */\n      not\n        /* \"#utility.yul\":523:525   */\n      0x1f\n        /* \"#utility.yul\":516:521   */\n      dup4\n        /* \"#utility.yul\":512:526   */\n      add\n        /* \"#utility.yul\":508:536   */\n      and\n        /* \"#utility.yul\":498:536   */\n      swap1\n      pop\n        /* \"#utility.yul\":440:542   */\n      swap2\n      swap1\n      pop\n      jump\t// out\n        /* \"#utility.yul\":548:941   */\n    tag_11:\n        /* \"#utility.yul\":644:647   */\n      0x00\n        /* \"#utility.yul\":672:711   */\n      tag_18\n        /* \"#utility.yul\":705:710   */\n      dup3\n        /* \"#utility.yul\":672:711   */\n      tag_7\n      jump\t// in\n    tag_18:\n        /* \"#utility.yul\":727:806   */\n      tag_19\n        /* \"#utility.yul\":799:805   */\n      dup2\n        /* \"#utility.yul\":794:797   */\n      dup6\n        /* \"#utility.yul\":727:806   */\n      tag_8\n      jump\t// in\n    tag_19:\n        /* \"#utility.yul\":720:806   */\n      swap4\n      pop\n        /* \"#utility.yul\":815:880   */\n      tag_20\n        /* \"#utility.yul\":873:879   */\n      dup2\n        /* \"#utility.yul\":868:871   */\n      dup6\n        /* \"#utility.yul\":861:865   */\n      0x20\n        /* \"#utility.yul\":854:859   */\n      dup7\n        /* \"#utility.yul\":850:866   */\n      add\n        /* \"#utility.yul\":815:880   */\n      tag_9\n      jump\t// in\n    tag_20:\n        /* \"#utility.yul\":905:934   */\n      tag_21\n        /* \"#utility.yul\":927:933   */\n      dup2\n        /* \"#utility.yul\":905:934   */\n      tag_10\n      jump\t// in\n    tag_21:\n        /* \"#utility.yul\":900:903   */\n      dup5\n        /* \"#utility.yul\":896:935   */\n      add\n        /* \"#utility.yul\":889:935   */\n      swap2\n      pop\n        /* \"#utility.yul\":648:941   */\n      pop\n        /* \"#utility.yul\":548:941   */\n      swap3\n      swap2\n      pop\n      pop\n      jump\t// out\n        /* \"#utility.yul\":947:1276   */\n    tag_6:\n        /* \"#utility.yul\":1068:1072   */\n      0x00\n        /* \"#utility.yul\":1106:1108   */\n      0x20\n        /* \"#utility.yul\":1095:1104   */\n      dup3\n        /* \"#utility.yul\":1091:1109   */\n      add\n        /* \"#utility.yul\":1083:1109   */\n      swap1\n      pop\n        /* \"#utility.yul\":1155:1164   */\n      dup2\n        /* \"#utility.yul\":1149:1153   */\n      dup2\n        /* \"#utility.yul\":1145:1165   */\n      sub\n        /* \"#utility.yul\":1141:1142   */\n      0x00\n        /* \"#utility.yul\":1130:1139   */\n      dup4\n        /* \"#utility.yul\":1126:1143   */\n      add\n        /* \"#utility.yul\":1119:1166   */\n      mstore\n        /* \"#utility.yul\":1183:1269   */\n      tag_23\n        /* \"#utility.yul\":1264:1268   */\n      dup2\n        /* \"#utility.yul\":1255:1261   */\n      dup5\n        /* \"#utility.yul\":1183:1269   */\n      tag_11\n      jump\t// in\n    tag_23:\n        /* \"#utility.yul\":1175:1269   */\n      swap1\n      pop\n        /* \"#utility.yul\":947:1276   */\n      swap3\n      swap2\n      pop\n      pop\n      jump\t// out\n    stop\n    data_78bd68c7aad5ccee14efdb1ff7a7cc09b75c500c33c172544d24c92d311e0b5b 4e6f6e5265656e7472616e744c6f636b5472616e7369656e742e4e616d657370616365\n\n    auxdata: 0xa2646970667358221220782cdb37201ef7101a5204341d6973c71716773c604573215d4cac07cf0881a964736f6c634300081a0033\n}\n",
				"bytecode": {
					"linkReferences": {},
					"object": "61015b61004d600b8282823980515f1a6073146041577f4e487b71000000000000000000000000000000000000000000000000000000005f525f60045260245ffd5b305f52607381538281f3fe7300000000000000000000000000000000000000003014608060405260043610610034575f3560e01c80631516f08e14610038575b5f80fd5b610040610056565b60405161004d91906100e2565b60405180910390f35b6040518060600160405280602381526020016101036023913981565b5f81519050919050565b5f82825260208201905092915050565b8281835e5f83830152505050565b5f601f19601f8301169050919050565b5f6100b482610072565b6100be818561007c565b93506100ce81856020860161008c565b6100d78161009a565b840191505092915050565b5f6020820190508181035f8301526100fa81846100aa565b90509291505056fe4e6f6e5265656e7472616e744c6f636b5472616e7369656e742e4e616d657370616365a2646970667358221220782cdb37201ef7101a5204341d6973c71716773c604573215d4cac07cf0881a964736f6c634300081a0033",
					"opcodes": "PUSH2 0x15B PUSH2 0x4D PUSH1 0xB DUP3 DUP3 DUP3 CODECOPY DUP1 MLOAD PUSH0 BYTE PUSH1 0x73 EQ PUSH1 0x41 JUMPI PUSH32 0x4E487B7100000000000000000000000000000000000000000000000000000000 PUSH0 MSTORE PUSH0 PUSH1 0x4 MSTORE PUSH1 0x24 PUSH0 REVERT JUMPDEST ADDRESS PUSH0 MSTORE PUSH1 0x73 DUP2 MSTORE8 DUP3 DUP2 RETURN INVALID PUSH20 0x0 ADDRESS EQ PUSH1 0x80 PUSH1 0x40 MSTORE PUSH1 0x4 CALLDATASIZE LT PUSH2 0x34 JUMPI PUSH0 CALLDATALOAD PUSH1 0xE0 SHR DUP1 PUSH4 0x1516F08E EQ PUSH2 0x38 JUMPI JUMPDEST PUSH0 DUP1 REVERT JUMPDEST PUSH2 0x40 PUSH2 0x56 JUMP JUMPDEST PUSH1 0x40 MLOAD PUSH2 0x4D SWAP2 SWAP1 PUSH2 0xE2 JUMP JUMPDEST PUSH1 0x40 MLOAD DUP1 SWAP2 SUB SWAP1 RETURN JUMPDEST PUSH1 0x40 MLOAD DUP1 PUSH1 0x60 ADD PUSH1 0x40 MSTORE DUP1 PUSH1 0x23 DUP2 MSTORE PUSH1 0x20 ADD PUSH2 0x103 PUSH1 0x23 SWAP2 CODECOPY DUP2 JUMP JUMPDEST PUSH0 DUP2 MLOAD SWAP1 POP SWAP2 SWAP1 POP JUMP JUMPDEST PUSH0 DUP3 DUP3 MSTORE PUSH1 0x20 DUP3 ADD SWAP1 POP SWAP3 SWAP2 POP POP JUMP JUMPDEST DUP3 DUP2 DUP4 MCOPY PUSH0 DUP4 DUP4 ADD MSTORE POP POP POP JUMP JUMPDEST PUSH0 PUSH1 0x1F NOT PUSH1 0x1F DUP4 ADD AND SWAP1 POP SWAP2 SWAP1 POP JUMP JUMPDEST PUSH0 PUSH2 0xB4 DUP3 PUSH2 0x72 JUMP JUMPDEST PUSH2 0xBE DUP2 DUP6 PUSH2 0x7C JUMP JUMPDEST SWAP4 POP PUSH2 0xCE DUP2 DUP6 PUSH1 0x20 DUP7 ADD PUSH2 0x8C JUMP JUMPDEST PUSH2 0xD7 DUP2 PUSH2 0x9A JUMP JUMPDEST DUP5 ADD SWAP2 POP POP SWAP3 SWAP2 POP POP JUMP JUMPDEST PUSH0 PUSH1 0x20 DUP3 ADD SWAP1 POP DUP2 DUP2 SUB PUSH0 DUP4 ADD MSTORE PUSH2 0xFA DUP2 DUP5 PUSH2 0xAA JUMP JUMPDEST SWAP1 POP SWAP3 SWAP2 POP POP JUMP INVALID 0x4E PUSH16 0x6E5265656E7472616E744C6F636B5472 PUSH2 0x6E73 PUSH10 0x656E742E4E616D657370 PUSH2 0x6365 LOG2 PUSH5 0x6970667358 0x22 SLT KECCAK256 PUSH25 0x2CDB37201EF7101A5204341D6973C71716773C604573215D4C 0xAC SMOD 0xCF ADDMOD DUP2 0xA9 PUSH5 0x736F6C6343 STOP ADDMOD BYTE STOP CALLER "
				},
				"gasEstimates": {
					"creation": {
						"codeDepositCost": "69400",
						"executionCost": "143",
						"totalCost": "69543"
					},
					"external": {
						"ERC7201_NAMESPACE()": "infinite"
					},
					"internal": {
						"_getLock(string memory,bytes32)": "infinite",
						"_tryAcquire(struct NonReentrantLockTransient.NonReentrantLock memory)": "infinite",
						"_tryRelease(struct NonReentrantLockTransient.NonReentrantLock memory)": "infinite",
						"getLock()": "infinite",
						"getLock(string memory)": "infinite",
						"lock(struct NonReentrantLockTransient.NonReentrantLock memory)": "infinite",
						"tryLock(struct NonReentrantLockTransient.NonReentrantLock memory)": "infinite",
						"tryUnlock(struct NonReentrantLockTransient.NonReentrantLock memory)": "infinite",
						"unlock(struct NonReentrantLockTransient.NonReentrantLock memory)": "infinite"
					}
				},
				"methodIdentifiers": {
					"ERC7201_NAMESPACE()": "1516f08e"
				}
			},
			"storageLayout": {
				"storage": [],
				"types": null
			},
			"userdoc": {
				"kind": "user",
				"methods": {},
				"version": 1
			}
		}
	}
}