{
	"contracts/token/TimeLock.sol": {
		"TimeLock": {
			"abi": [
				{
					"inputs": [
						{
							"internalType": "uint256",
							"name": "_delay",
							"type": "uint256"
						}
					],
					"stateMutability": "nonpayable",
					"type": "constructor"
				},
				{
					"anonymous": false,
					"inputs": [
						{
							"indexed": false,
							"internalType": "address",
							"name": "newAdmin",
							"type": "address"
						},
						{
							"indexed": false,
							"internalType": "address",
							"name": "oldAdmin",
							"type": "address"
						}
					],
					"name": "AdminChanged",
					"type": "event"
				},
				{
					"anonymous": false,
					"inputs": [
						{
							"indexed": true,
							"internalType": "bytes32",
							"name": "txHash",
							"type": "bytes32"
						}
					],
					"name": "CancelTransaction",
					"type": "event"
				},
				{
					"anonymous": false,
					"inputs": [
						{
							"indexed": true,
							"internalType": "address",
							"name": "target",
							"type": "address"
						},
						{
							"indexed": false,
							"internalType": "uint256",
							"name": "value",
							"type": "uint256"
						},
						{
							"indexed": false,
							"internalType": "string",
							"name": "signature",
							"type": "string"
						},
						{
							"indexed": false,
							"internalType": "bytes",
							"name": "data",
							"type": "bytes"
						},
						{
							"indexed": false,
							"internalType": "uint256",
							"name": "executeTime",
							"type": "uint256"
						},
						{
							"indexed": true,
							"internalType": "bytes32",
							"name": "txHash",
							"type": "bytes32"
						},
						{
							"indexed": false,
							"internalType": "bytes",
							"name": "returnData",
							"type": "bytes"
						}
					],
					"name": "TransactionCancelled",
					"type": "event"
				},
				{
					"anonymous": false,
					"inputs": [
						{
							"indexed": true,
							"internalType": "address",
							"name": "target",
							"type": "address"
						},
						{
							"indexed": false,
							"internalType": "uint256",
							"name": "value",
							"type": "uint256"
						},
						{
							"indexed": false,
							"internalType": "string",
							"name": "signature",
							"type": "string"
						},
						{
							"indexed": false,
							"internalType": "bytes",
							"name": "data",
							"type": "bytes"
						},
						{
							"indexed": false,
							"internalType": "uint256",
							"name": "executeTime",
							"type": "uint256"
						},
						{
							"indexed": true,
							"internalType": "bytes32",
							"name": "txHash",
							"type": "bytes32"
						}
					],
					"name": "TransactionQueued",
					"type": "event"
				},
				{
					"inputs": [],
					"name": "admin",
					"outputs": [
						{
							"internalType": "address",
							"name": "",
							"type": "address"
						}
					],
					"stateMutability": "view",
					"type": "function"
				},
				{
					"inputs": [
						{
							"internalType": "bytes32",
							"name": "_txHash",
							"type": "bytes32"
						}
					],
					"name": "cancelTransaction",
					"outputs": [],
					"stateMutability": "nonpayable",
					"type": "function"
				},
				{
					"inputs": [
						{
							"internalType": "address",
							"name": "newAdmin",
							"type": "address"
						}
					],
					"name": "changeAdmin",
					"outputs": [],
					"stateMutability": "nonpayable",
					"type": "function"
				},
				{
					"inputs": [],
					"name": "delay",
					"outputs": [
						{
							"internalType": "uint256",
							"name": "",
							"type": "uint256"
						}
					],
					"stateMutability": "view",
					"type": "function"
				},
				{
					"inputs": [
						{
							"internalType": "address",
							"name": "target",
							"type": "address"
						},
						{
							"internalType": "uint256",
							"name": "value",
							"type": "uint256"
						},
						{
							"internalType": "string",
							"name": "signature",
							"type": "string"
						},
						{
							"internalType": "bytes",
							"name": "data",
							"type": "bytes"
						},
						{
							"internalType": "uint256",
							"name": "executeTime",
							"type": "uint256"
						}
					],
					"name": "executeTransaction",
					"outputs": [
						{
							"internalType": "bytes",
							"name": "",
							"type": "bytes"
						}
					],
					"stateMutability": "nonpayable",
					"type": "function"
				},
				{
					"inputs": [
						{
							"internalType": "address",
							"name": "target",
							"type": "address"
						},
						{
							"internalType": "uint256",
							"name": "value",
							"type": "uint256"
						},
						{
							"internalType": "string",
							"name": "signature",
							"type": "string"
						},
						{
							"internalType": "bytes",
							"name": "data",
							"type": "bytes"
						},
						{
							"internalType": "uint256",
							"name": "executeTime",
							"type": "uint256"
						}
					],
					"name": "getTxHash",
					"outputs": [
						{
							"internalType": "bytes32",
							"name": "",
							"type": "bytes32"
						}
					],
					"stateMutability": "pure",
					"type": "function"
				},
				{
					"inputs": [
						{
							"internalType": "address",
							"name": "target",
							"type": "address"
						},
						{
							"internalType": "uint256",
							"name": "value",
							"type": "uint256"
						},
						{
							"internalType": "string",
							"name": "signature",
							"type": "string"
						},
						{
							"internalType": "bytes",
							"name": "data",
							"type": "bytes"
						},
						{
							"internalType": "uint256",
							"name": "executeTime",
							"type": "uint256"
						}
					],
					"name": "queueTransaction",
					"outputs": [],
					"stateMutability": "payable",
					"type": "function"
				},
				{
					"inputs": [
						{
							"internalType": "bytes32",
							"name": "txHash",
							"type": "bytes32"
						}
					],
					"name": "queuedTransactions",
					"outputs": [
						{
							"internalType": "bool",
							"name": "",
							"type": "bool"
						}
					],
					"stateMutability": "view",
					"type": "function"
				}
			],
			"devdoc": {
				"kind": "dev",
				"methods": {},
				"version": 1
			},
			"evm": {
				"assembly": "    /* \"contracts/token/TimeLock.sol\":115:4299  contract TimeLock {... */\n  mstore(0x40, 0x80)\n    /* \"contracts/token/TimeLock.sol\":859:946  constructor(uint256 _delay) {... */\n  callvalue\n  dup1\n  iszero\n  tag_1\n  jumpi\n  0x00\n  dup1\n  revert\ntag_1:\n  pop\n  mload(0x40)\n  sub(codesize, bytecodeSize)\n  dup1\n  bytecodeSize\n  dup4\n  codecopy\n  dup2\n  dup2\n  add\n  0x40\n  mstore\n  dup2\n  add\n  swap1\n  tag_2\n  swap2\n  swap1\n  tag_3\n  jump\t// in\ntag_2:\n    /* \"contracts/token/TimeLock.sol\":905:911  _delay */\n  dup1\n    /* \"contracts/token/TimeLock.sol\":897:902  delay */\n  0x01\n    /* \"contracts/token/TimeLock.sol\":897:911  delay = _delay */\n  dup2\n  swap1\n  sstore\n  pop\n    /* \"contracts/token/TimeLock.sol\":929:939  msg.sender */\n  caller\n    /* \"contracts/token/TimeLock.sol\":921:926  admin */\n  0x00\n  dup1\n    /* \"contracts/token/TimeLock.sol\":921:939  admin = msg.sender */\n  0x0100\n  exp\n  dup2\n  sload\n  dup2\n  0xffffffffffffffffffffffffffffffffffffffff\n  mul\n  not\n  and\n  swap1\n  dup4\n  0xffffffffffffffffffffffffffffffffffffffff\n  and\n  mul\n  or\n  swap1\n  sstore\n  pop\n    /* \"contracts/token/TimeLock.sol\":859:946  constructor(uint256 _delay) {... */\n  pop\n    /* \"contracts/token/TimeLock.sol\":115:4299  contract TimeLock {... */\n  jump(tag_6)\n    /* \"#utility.yul\":88:205   */\ntag_8:\n    /* \"#utility.yul\":197:198   */\n  0x00\n    /* \"#utility.yul\":194:195   */\n  dup1\n    /* \"#utility.yul\":187:199   */\n  revert\n    /* \"#utility.yul\":334:411   */\ntag_10:\n    /* \"#utility.yul\":371:378   */\n  0x00\n    /* \"#utility.yul\":400:405   */\n  dup2\n    /* \"#utility.yul\":389:405   */\n  swap1\n  pop\n    /* \"#utility.yul\":334:411   */\n  swap2\n  swap1\n  pop\n  jump\t// out\n    /* \"#utility.yul\":417:539   */\ntag_11:\n    /* \"#utility.yul\":490:514   */\n  tag_19\n    /* \"#utility.yul\":508:513   */\n  dup2\n    /* \"#utility.yul\":490:514   */\n  tag_10\n  jump\t// in\ntag_19:\n    /* \"#utility.yul\":483:488   */\n  dup2\n    /* \"#utility.yul\":480:515   */\n  eq\n    /* \"#utility.yul\":470:533   */\n  tag_20\n  jumpi\n    /* \"#utility.yul\":529:530   */\n  0x00\n    /* \"#utility.yul\":526:527   */\n  dup1\n    /* \"#utility.yul\":519:531   */\n  revert\n    /* \"#utility.yul\":470:533   */\ntag_20:\n    /* \"#utility.yul\":417:539   */\n  pop\n  jump\t// out\n    /* \"#utility.yul\":545:688   */\ntag_12:\n    /* \"#utility.yul\":602:607   */\n  0x00\n    /* \"#utility.yul\":633:639   */\n  dup2\n    /* \"#utility.yul\":627:640   */\n  mload\n    /* \"#utility.yul\":618:640   */\n  swap1\n  pop\n    /* \"#utility.yul\":649:682   */\n  tag_22\n    /* \"#utility.yul\":676:681   */\n  dup2\n    /* \"#utility.yul\":649:682   */\n  tag_11\n  jump\t// in\ntag_22:\n    /* \"#utility.yul\":545:688   */\n  swap3\n  swap2\n  pop\n  pop\n  jump\t// out\n    /* \"#utility.yul\":694:1045   */\ntag_3:\n    /* \"#utility.yul\":764:770   */\n  0x00\n    /* \"#utility.yul\":813:815   */\n  0x20\n    /* \"#utility.yul\":801:810   */\n  dup3\n    /* \"#utility.yul\":792:799   */\n  dup5\n    /* \"#utility.yul\":788:811   */\n  sub\n    /* \"#utility.yul\":784:816   */\n  slt\n    /* \"#utility.yul\":781:900   */\n  iszero\n  tag_24\n  jumpi\n    /* \"#utility.yul\":819:898   */\n  tag_25\n  tag_8\n  jump\t// in\ntag_25:\n    /* \"#utility.yul\":781:900   */\ntag_24:\n    /* \"#utility.yul\":939:940   */\n  0x00\n    /* \"#utility.yul\":964:1028   */\n  tag_26\n    /* \"#utility.yul\":1020:1027   */\n  dup5\n    /* \"#utility.yul\":1011:1017   */\n  dup3\n    /* \"#utility.yul\":1000:1009   */\n  dup6\n    /* \"#utility.yul\":996:1018   */\n  add\n    /* \"#utility.yul\":964:1028   */\n  tag_12\n  jump\t// in\ntag_26:\n    /* \"#utility.yul\":954:1028   */\n  swap2\n  pop\n    /* \"#utility.yul\":910:1038   */\n  pop\n    /* \"#utility.yul\":694:1045   */\n  swap3\n  swap2\n  pop\n  pop\n  jump\t// out\n    /* \"contracts/token/TimeLock.sol\":115:4299  contract TimeLock {... */\ntag_6:\n  dataSize(sub_0)\n  dup1\n  dataOffset(sub_0)\n  0x00\n  codecopy\n  0x00\n  return\nstop\n\nsub_0: assembly {\n        /* \"contracts/token/TimeLock.sol\":115:4299  contract TimeLock {... */\n      mstore(0x40, 0x80)\n      jumpi(tag_1, lt(calldatasize, 0x04))\n      shr(0xe0, calldataload(0x00))\n      dup1\n      0x70ba3339\n      gt\n      tag_10\n      jumpi\n      dup1\n      0x70ba3339\n      eq\n      tag_6\n      jumpi\n      dup1\n      0x8f283970\n      eq\n      tag_7\n      jumpi\n      dup1\n      0xf2b06537\n      eq\n      tag_8\n      jumpi\n      dup1\n      0xf851a440\n      eq\n      tag_9\n      jumpi\n      jump(tag_1)\n    tag_10:\n      dup1\n      0x04a71576\n      eq\n      tag_2\n      jumpi\n      dup1\n      0x0825f38f\n      eq\n      tag_3\n      jumpi\n      dup1\n      0x3a66f901\n      eq\n      tag_4\n      jumpi\n      dup1\n      0x6a42b8f8\n      eq\n      tag_5\n      jumpi\n    tag_1:\n      0x00\n      dup1\n      revert\n        /* \"contracts/token/TimeLock.sol\":2223:2637  function getTxHash(... */\n    tag_2:\n      callvalue\n      dup1\n      iszero\n      tag_11\n      jumpi\n      0x00\n      dup1\n      revert\n    tag_11:\n      pop\n      tag_12\n      0x04\n      dup1\n      calldatasize\n      sub\n      dup2\n      add\n      swap1\n      tag_13\n      swap2\n      swap1\n      tag_14\n      jump\t// in\n    tag_13:\n      tag_15\n      jump\t// in\n    tag_12:\n      mload(0x40)\n      tag_16\n      swap2\n      swap1\n      tag_17\n      jump\t// in\n    tag_16:\n      mload(0x40)\n      dup1\n      swap2\n      sub\n      swap1\n      return\n        /* \"contracts/token/TimeLock.sol\":2724:4025  function executeTransaction(... */\n    tag_3:\n      callvalue\n      dup1\n      iszero\n      tag_18\n      jumpi\n      0x00\n      dup1\n      revert\n    tag_18:\n      pop\n      tag_19\n      0x04\n      dup1\n      calldatasize\n      sub\n      dup2\n      add\n      swap1\n      tag_20\n      swap2\n      swap1\n      tag_14\n      jump\t// in\n    tag_20:\n      tag_21\n      jump\t// in\n    tag_19:\n      mload(0x40)\n      tag_22\n      swap2\n      swap1\n      tag_23\n      jump\t// in\n    tag_22:\n      mload(0x40)\n      dup1\n      swap2\n      sub\n      swap1\n      return\n        /* \"contracts/token/TimeLock.sol\":1509:2198  function queueTransaction(... */\n    tag_4:\n      tag_24\n      0x04\n      dup1\n      calldatasize\n      sub\n      dup2\n      add\n      swap1\n      tag_25\n      swap2\n      swap1\n      tag_14\n      jump\t// in\n    tag_25:\n      tag_26\n      jump\t// in\n    tag_24:\n      stop\n        /* \"contracts/token/TimeLock.sol\":743:763  uint256 public delay */\n    tag_5:\n      callvalue\n      dup1\n      iszero\n      tag_27\n      jumpi\n      0x00\n      dup1\n      revert\n    tag_27:\n      pop\n      tag_28\n      tag_29\n      jump\t// in\n    tag_28:\n      mload(0x40)\n      tag_30\n      swap2\n      swap1\n      tag_31\n      jump\t// in\n    tag_30:\n      mload(0x40)\n      dup1\n      swap2\n      sub\n      swap1\n      return\n        /* \"contracts/token/TimeLock.sol\":4050:4297  function cancelTransaction(bytes32 _txHash) external onlyAdmin {... */\n    tag_6:\n      callvalue\n      dup1\n      iszero\n      tag_32\n      jumpi\n      0x00\n      dup1\n      revert\n    tag_32:\n      pop\n      tag_33\n      0x04\n      dup1\n      calldatasize\n      sub\n      dup2\n      add\n      swap1\n      tag_34\n      swap2\n      swap1\n      tag_35\n      jump\t// in\n    tag_34:\n      tag_36\n      jump\t// in\n    tag_33:\n      stop\n        /* \"contracts/token/TimeLock.sol\":1241:1473  function changeAdmin(address newAdmin) public onlyTimeLocker {... */\n    tag_7:\n      callvalue\n      dup1\n      iszero\n      tag_37\n      jumpi\n      0x00\n      dup1\n      revert\n    tag_37:\n      pop\n      tag_38\n      0x04\n      dup1\n      calldatasize\n      sub\n      dup2\n      add\n      swap1\n      tag_39\n      swap2\n      swap1\n      tag_40\n      jump\t// in\n    tag_39:\n      tag_41\n      jump\t// in\n    tag_38:\n      stop\n        /* \"contracts/token/TimeLock.sol\":795:852  mapping(bytes32 txHash => bool) public queuedTransactions */\n    tag_8:\n      callvalue\n      dup1\n      iszero\n      tag_42\n      jumpi\n      0x00\n      dup1\n      revert\n    tag_42:\n      pop\n      tag_43\n      0x04\n      dup1\n      calldatasize\n      sub\n      dup2\n      add\n      swap1\n      tag_44\n      swap2\n      swap1\n      tag_35\n      jump\t// in\n    tag_44:\n      tag_45\n      jump\t// in\n    tag_43:\n      mload(0x40)\n      tag_46\n      swap2\n      swap1\n      tag_47\n      jump\t// in\n    tag_46:\n      mload(0x40)\n      dup1\n      swap2\n      sub\n      swap1\n      return\n        /* \"contracts/token/TimeLock.sol\":691:711  address public admin */\n    tag_9:\n      callvalue\n      dup1\n      iszero\n      tag_48\n      jumpi\n      0x00\n      dup1\n      revert\n    tag_48:\n      pop\n      tag_49\n      tag_50\n      jump\t// in\n    tag_49:\n      mload(0x40)\n      tag_51\n      swap2\n      swap1\n      tag_52\n      jump\t// in\n    tag_51:\n      mload(0x40)\n      dup1\n      swap2\n      sub\n      swap1\n      return\n        /* \"contracts/token/TimeLock.sol\":2223:2637  function getTxHash(... */\n    tag_15:\n        /* \"contracts/token/TimeLock.sol\":2539:2546  bytes32 */\n      0x00\n        /* \"contracts/token/TimeLock.sol\":2586:2592  target */\n      dup6\n        /* \"contracts/token/TimeLock.sol\":2594:2599  value */\n      dup6\n        /* \"contracts/token/TimeLock.sol\":2600:2609  signature */\n      dup6\n        /* \"contracts/token/TimeLock.sol\":2611:2615  data */\n      dup6\n        /* \"contracts/token/TimeLock.sol\":2617:2628  executeTime */\n      dup6\n        /* \"contracts/token/TimeLock.sol\":2575:2629  abi.encode(target, value,signature, data, executeTime) */\n      add(0x20, mload(0x40))\n      tag_54\n      swap6\n      swap5\n      swap4\n      swap3\n      swap2\n      swap1\n      tag_55\n      jump\t// in\n    tag_54:\n      mload(0x40)\n      0x20\n      dup2\n      dup4\n      sub\n      sub\n      dup2\n      mstore\n      swap1\n      0x40\n      mstore\n        /* \"contracts/token/TimeLock.sol\":2565:2630  keccak256(abi.encode(target, value,signature, data, executeTime)) */\n      dup1\n      mload\n      swap1\n      0x20\n      add\n      keccak256\n        /* \"contracts/token/TimeLock.sol\":2558:2630  return keccak256(abi.encode(target, value,signature, data, executeTime)) */\n      swap1\n      pop\n        /* \"contracts/token/TimeLock.sol\":2223:2637  function getTxHash(... */\n      swap6\n      swap5\n      pop\n      pop\n      pop\n      pop\n      pop\n      jump\t// out\n        /* \"contracts/token/TimeLock.sol\":2724:4025  function executeTransaction(... */\n    tag_21:\n        /* \"contracts/token/TimeLock.sol\":3056:3068  bytes memory */\n      0x60\n        /* \"contracts/token/TimeLock.sol\":1005:1010  admin */\n      0x00\n      dup1\n      sload\n      swap1\n      0x0100\n      exp\n      swap1\n      div\n      0xffffffffffffffffffffffffffffffffffffffff\n      and\n        /* \"contracts/token/TimeLock.sol\":991:1010  msg.sender == admin */\n      0xffffffffffffffffffffffffffffffffffffffff\n      and\n        /* \"contracts/token/TimeLock.sol\":991:1001  msg.sender */\n      caller\n        /* \"contracts/token/TimeLock.sol\":991:1010  msg.sender == admin */\n      0xffffffffffffffffffffffffffffffffffffffff\n      and\n      eq\n        /* \"contracts/token/TimeLock.sol\":983:1042  require(msg.sender == admin, \"Forbidden: Caller not admin\") */\n      tag_57\n      jumpi\n      mload(0x40)\n      0x08c379a000000000000000000000000000000000000000000000000000000000\n      dup2\n      mstore\n      0x04\n      add\n      tag_58\n      swap1\n      tag_59\n      jump\t// in\n    tag_58:\n      mload(0x40)\n      dup1\n      swap2\n      sub\n      swap1\n      revert\n    tag_57:\n        /* \"contracts/token/TimeLock.sol\":3136:3141  delay */\n      sload(0x01)\n        /* \"contracts/token/TimeLock.sol\":3120:3135  block.timestamp */\n      timestamp\n        /* \"contracts/token/TimeLock.sol\":3120:3141  block.timestamp+delay */\n      tag_61\n      swap2\n      swap1\n      tag_62\n      jump\t// in\n    tag_61:\n        /* \"contracts/token/TimeLock.sol\":3106:3117  executeTime */\n      dup3\n        /* \"contracts/token/TimeLock.sol\":3106:3141  executeTime > block.timestamp+delay */\n      gt\n        /* \"contracts/token/TimeLock.sol\":3098:3196  require(executeTime > block.timestamp+delay, \"executeTransaction: executeTime must satisfy delay\") */\n      tag_63\n      jumpi\n      mload(0x40)\n      0x08c379a000000000000000000000000000000000000000000000000000000000\n      dup2\n      mstore\n      0x04\n      add\n      tag_64\n      swap1\n      tag_65\n      jump\t// in\n    tag_64:\n      mload(0x40)\n      dup1\n      swap2\n      sub\n      swap1\n      revert\n    tag_63:\n        /* \"contracts/token/TimeLock.sol\":3206:3220  bytes32 txHash */\n      0x00\n        /* \"contracts/token/TimeLock.sol\":3223:3281  getTxHash(msg.sender, value, signature, data, executeTime) */\n      tag_66\n        /* \"contracts/token/TimeLock.sol\":3233:3243  msg.sender */\n      caller\n        /* \"contracts/token/TimeLock.sol\":3245:3250  value */\n      dup8\n        /* \"contracts/token/TimeLock.sol\":3252:3261  signature */\n      dup8\n        /* \"contracts/token/TimeLock.sol\":3263:3267  data */\n      dup8\n        /* \"contracts/token/TimeLock.sol\":3269:3280  executeTime */\n      dup8\n        /* \"contracts/token/TimeLock.sol\":3223:3232  getTxHash */\n      tag_15\n        /* \"contracts/token/TimeLock.sol\":3223:3281  getTxHash(msg.sender, value, signature, data, executeTime) */\n      jump\t// in\n    tag_66:\n        /* \"contracts/token/TimeLock.sol\":3206:3281  bytes32 txHash = getTxHash(msg.sender, value, signature, data, executeTime) */\n      swap1\n      pop\n        /* \"contracts/token/TimeLock.sol\":3299:3317  queuedTransactions */\n      0x02\n        /* \"contracts/token/TimeLock.sol\":3299:3325  queuedTransactions[txHash] */\n      0x00\n        /* \"contracts/token/TimeLock.sol\":3318:3324  txHash */\n      dup3\n        /* \"contracts/token/TimeLock.sol\":3299:3325  queuedTransactions[txHash] */\n      dup2\n      mstore\n      0x20\n      add\n      swap1\n      dup2\n      mstore\n      0x20\n      add\n      0x00\n      keccak256\n      0x00\n      swap1\n      sload\n      swap1\n      0x0100\n      exp\n      swap1\n      div\n      0xff\n      and\n        /* \"contracts/token/TimeLock.sol\":3291:3372  require(queuedTransactions[txHash], \"executeTransaction: Transaction not queued\") */\n      tag_67\n      jumpi\n      mload(0x40)\n      0x08c379a000000000000000000000000000000000000000000000000000000000\n      dup2\n      mstore\n      0x04\n      add\n      tag_68\n      swap1\n      tag_69\n      jump\t// in\n    tag_68:\n      mload(0x40)\n      dup1\n      swap2\n      sub\n      swap1\n      revert\n    tag_67:\n        /* \"contracts/token/TimeLock.sol\":3454:3459  false */\n      0x00\n        /* \"contracts/token/TimeLock.sol\":3425:3443  queuedTransactions */\n      0x02\n        /* \"contracts/token/TimeLock.sol\":3425:3451  queuedTransactions[txHash] */\n      0x00\n        /* \"contracts/token/TimeLock.sol\":3444:3450  txHash */\n      dup4\n        /* \"contracts/token/TimeLock.sol\":3425:3451  queuedTransactions[txHash] */\n      dup2\n      mstore\n      0x20\n      add\n      swap1\n      dup2\n      mstore\n      0x20\n      add\n      0x00\n      keccak256\n      0x00\n        /* \"contracts/token/TimeLock.sol\":3425:3459  queuedTransactions[txHash] = false */\n      0x0100\n      exp\n      dup2\n      sload\n      dup2\n      0xff\n      mul\n      not\n      and\n      swap1\n      dup4\n      iszero\n      iszero\n      mul\n      or\n      swap1\n      sstore\n      pop\n        /* \"contracts/token/TimeLock.sol\":3517:3538  bytes memory callData */\n      0x60\n        /* \"contracts/token/TimeLock.sol\":3579:3580  0 */\n      0x00\n        /* \"contracts/token/TimeLock.sol\":3558:3567  signature */\n      dup7\n        /* \"contracts/token/TimeLock.sol\":3552:3575  bytes(signature).length */\n      mload\n        /* \"contracts/token/TimeLock.sol\":3552:3580  bytes(signature).length == 0 */\n      sub\n        /* \"contracts/token/TimeLock.sol\":3548:3722  if (bytes(signature).length == 0) {... */\n      tag_70\n      jumpi\n        /* \"contracts/token/TimeLock.sol\":3607:3611  data */\n      dup5\n        /* \"contracts/token/TimeLock.sol\":3596:3611  callData = data */\n      swap1\n      pop\n        /* \"contracts/token/TimeLock.sol\":3548:3722  if (bytes(signature).length == 0) {... */\n      jump(tag_71)\n    tag_70:\n        /* \"contracts/token/TimeLock.sol\":3692:3701  signature */\n      dup6\n        /* \"contracts/token/TimeLock.sol\":3676:3703  keccak256(bytes(signature)) */\n      dup1\n      mload\n      swap1\n      0x20\n      add\n      keccak256\n        /* \"contracts/token/TimeLock.sol\":3706:3710  data */\n      dup6\n        /* \"contracts/token/TimeLock.sol\":3652:3711  abi.encodePacked(bytes4(keccak256(bytes(signature))), data) */\n      add(0x20, mload(0x40))\n      tag_72\n      swap3\n      swap2\n      swap1\n      tag_73\n      jump\t// in\n    tag_72:\n      mload(0x40)\n      0x20\n      dup2\n      dup4\n      sub\n      sub\n      dup2\n      mstore\n      swap1\n      0x40\n      mstore\n        /* \"contracts/token/TimeLock.sol\":3641:3711  callData = abi.encodePacked(bytes4(keccak256(bytes(signature))), data) */\n      swap1\n      pop\n        /* \"contracts/token/TimeLock.sol\":3548:3722  if (bytes(signature).length == 0) {... */\n    tag_71:\n        /* \"contracts/token/TimeLock.sol\":3756:3768  bool success */\n      0x00\n        /* \"contracts/token/TimeLock.sol\":3770:3793  bytes memory returnData */\n      dup1\n        /* \"contracts/token/TimeLock.sol\":3797:3803  target */\n      dup10\n        /* \"contracts/token/TimeLock.sol\":3797:3808  target.call */\n      0xffffffffffffffffffffffffffffffffffffffff\n      and\n        /* \"contracts/token/TimeLock.sol\":3816:3821  value */\n      dup10\n        /* \"contracts/token/TimeLock.sol\":3823:3831  callData */\n      dup5\n        /* \"contracts/token/TimeLock.sol\":3797:3832  target.call{value: value}(callData) */\n      mload(0x40)\n      tag_74\n      swap2\n      swap1\n      tag_75\n      jump\t// in\n    tag_74:\n      0x00\n      mload(0x40)\n      dup1\n      dup4\n      sub\n      dup2\n      dup6\n      dup8\n      gas\n      call\n      swap3\n      pop\n      pop\n      pop\n      returndatasize\n      dup1\n      0x00\n      dup2\n      eq\n      tag_78\n      jumpi\n      mload(0x40)\n      swap2\n      pop\n      and(add(returndatasize, 0x3f), not(0x1f))\n      dup3\n      add\n      0x40\n      mstore\n      returndatasize\n      dup3\n      mstore\n      returndatasize\n      0x00\n      0x20\n      dup5\n      add\n      returndatacopy\n      jump(tag_77)\n    tag_78:\n      0x60\n      swap2\n      pop\n    tag_77:\n      pop\n        /* \"contracts/token/TimeLock.sol\":3755:3832  (bool success, bytes memory returnData) = target.call{value: value}(callData) */\n      swap2\n      pop\n      swap2\n      pop\n        /* \"contracts/token/TimeLock.sol\":3850:3857  success */\n      dup2\n        /* \"contracts/token/TimeLock.sol\":3842:3891  require(success, \"executeTransaction: call fail\") */\n      tag_79\n      jumpi\n      mload(0x40)\n      0x08c379a000000000000000000000000000000000000000000000000000000000\n      dup2\n      mstore\n      0x04\n      add\n      tag_80\n      swap1\n      tag_81\n      jump\t// in\n    tag_80:\n      mload(0x40)\n      dup1\n      swap2\n      sub\n      swap1\n      revert\n    tag_79:\n        /* \"contracts/token/TimeLock.sol\":3972:3978  txHash */\n      dup4\n        /* \"contracts/token/TimeLock.sol\":3927:3933  target */\n      dup11\n        /* \"contracts/token/TimeLock.sol\":3906:3991  TransactionCancelled(target, value, signature, data, executeTime, txHash, returnData) */\n      0xffffffffffffffffffffffffffffffffffffffff\n      and\n      0x52a140ea1bb82a1c275bde2ab8a1d8ea97f6f6274533d18df8675100d6dd3fd4\n        /* \"contracts/token/TimeLock.sol\":3935:3940  value */\n      dup12\n        /* \"contracts/token/TimeLock.sol\":3942:3951  signature */\n      dup12\n        /* \"contracts/token/TimeLock.sol\":3953:3957  data */\n      dup12\n        /* \"contracts/token/TimeLock.sol\":3959:3970  executeTime */\n      dup12\n        /* \"contracts/token/TimeLock.sol\":3980:3990  returnData */\n      dup8\n        /* \"contracts/token/TimeLock.sol\":3906:3991  TransactionCancelled(target, value, signature, data, executeTime, txHash, returnData) */\n      mload(0x40)\n      tag_82\n      swap6\n      swap5\n      swap4\n      swap3\n      swap2\n      swap1\n      tag_83\n      jump\t// in\n    tag_82:\n      mload(0x40)\n      dup1\n      swap2\n      sub\n      swap1\n      log3\n        /* \"contracts/token/TimeLock.sol\":4008:4018  returnData */\n      dup1\n        /* \"contracts/token/TimeLock.sol\":4001:4018  return returnData */\n      swap5\n      pop\n      pop\n      pop\n      pop\n      pop\n        /* \"contracts/token/TimeLock.sol\":2724:4025  function executeTransaction(... */\n      swap6\n      swap5\n      pop\n      pop\n      pop\n      pop\n      pop\n      jump\t// out\n        /* \"contracts/token/TimeLock.sol\":1509:2198  function queueTransaction(... */\n    tag_26:\n        /* \"contracts/token/TimeLock.sol\":1005:1010  admin */\n      0x00\n      dup1\n      sload\n      swap1\n      0x0100\n      exp\n      swap1\n      div\n      0xffffffffffffffffffffffffffffffffffffffff\n      and\n        /* \"contracts/token/TimeLock.sol\":991:1010  msg.sender == admin */\n      0xffffffffffffffffffffffffffffffffffffffff\n      and\n        /* \"contracts/token/TimeLock.sol\":991:1001  msg.sender */\n      caller\n        /* \"contracts/token/TimeLock.sol\":991:1010  msg.sender == admin */\n      0xffffffffffffffffffffffffffffffffffffffff\n      and\n      eq\n        /* \"contracts/token/TimeLock.sol\":983:1042  require(msg.sender == admin, \"Forbidden: Caller not admin\") */\n      tag_85\n      jumpi\n      mload(0x40)\n      0x08c379a000000000000000000000000000000000000000000000000000000000\n      dup2\n      mstore\n      0x04\n      add\n      tag_86\n      swap1\n      tag_59\n      jump\t// in\n    tag_86:\n      mload(0x40)\n      dup1\n      swap2\n      sub\n      swap1\n      revert\n    tag_85:\n        /* \"contracts/token/TimeLock.sol\":1905:1910  delay */\n      sload(0x01)\n        /* \"contracts/token/TimeLock.sol\":1889:1904  block.timestamp */\n      timestamp\n        /* \"contracts/token/TimeLock.sol\":1889:1910  block.timestamp+delay */\n      tag_88\n      swap2\n      swap1\n      tag_62\n      jump\t// in\n    tag_88:\n        /* \"contracts/token/TimeLock.sol\":1875:1886  executeTime */\n      dup2\n        /* \"contracts/token/TimeLock.sol\":1875:1910  executeTime > block.timestamp+delay */\n      gt\n        /* \"contracts/token/TimeLock.sol\":1867:1963  require(executeTime > block.timestamp+delay, \"queueTransaction: executeTime must satisfy delay\") */\n      tag_89\n      jumpi\n      mload(0x40)\n      0x08c379a000000000000000000000000000000000000000000000000000000000\n      dup2\n      mstore\n      0x04\n      add\n      tag_90\n      swap1\n      tag_91\n      jump\t// in\n    tag_90:\n      mload(0x40)\n      dup1\n      swap2\n      sub\n      swap1\n      revert\n    tag_89:\n        /* \"contracts/token/TimeLock.sol\":1992:2006  bytes32 txHash */\n      0x00\n        /* \"contracts/token/TimeLock.sol\":2009:2063  getTxHash(target, value, signature, data, executeTime) */\n      tag_92\n        /* \"contracts/token/TimeLock.sol\":2019:2025  target */\n      dup7\n        /* \"contracts/token/TimeLock.sol\":2027:2032  value */\n      dup7\n        /* \"contracts/token/TimeLock.sol\":2034:2043  signature */\n      dup7\n        /* \"contracts/token/TimeLock.sol\":2045:2049  data */\n      dup7\n        /* \"contracts/token/TimeLock.sol\":2051:2062  executeTime */\n      dup7\n        /* \"contracts/token/TimeLock.sol\":2009:2018  getTxHash */\n      tag_15\n        /* \"contracts/token/TimeLock.sol\":2009:2063  getTxHash(target, value, signature, data, executeTime) */\n      jump\t// in\n    tag_92:\n        /* \"contracts/token/TimeLock.sol\":1992:2063  bytes32 txHash = getTxHash(target, value, signature, data, executeTime) */\n      swap1\n      pop\n        /* \"contracts/token/TimeLock.sol\":2102:2106  true */\n      0x01\n        /* \"contracts/token/TimeLock.sol\":2073:2091  queuedTransactions */\n      0x02\n        /* \"contracts/token/TimeLock.sol\":2073:2099  queuedTransactions[txHash] */\n      0x00\n        /* \"contracts/token/TimeLock.sol\":2092:2098  txHash */\n      dup4\n        /* \"contracts/token/TimeLock.sol\":2073:2099  queuedTransactions[txHash] */\n      dup2\n      mstore\n      0x20\n      add\n      swap1\n      dup2\n      mstore\n      0x20\n      add\n      0x00\n      keccak256\n      0x00\n        /* \"contracts/token/TimeLock.sol\":2073:2106  queuedTransactions[txHash] = true */\n      0x0100\n      exp\n      dup2\n      sload\n      dup2\n      0xff\n      mul\n      not\n      and\n      swap1\n      dup4\n      iszero\n      iszero\n      mul\n      or\n      swap1\n      sstore\n      pop\n        /* \"contracts/token/TimeLock.sol\":2184:2190  txHash */\n      dup1\n        /* \"contracts/token/TimeLock.sol\":2139:2145  target */\n      dup7\n        /* \"contracts/token/TimeLock.sol\":2121:2191  TransactionQueued(target, value, signature, data, executeTime, txHash) */\n      0xffffffffffffffffffffffffffffffffffffffff\n      and\n      0xd03fffbb21d826401523fdbe307b708edda56f04a900898c627aca66e45a2ffb\n        /* \"contracts/token/TimeLock.sol\":2147:2152  value */\n      dup8\n        /* \"contracts/token/TimeLock.sol\":2154:2163  signature */\n      dup8\n        /* \"contracts/token/TimeLock.sol\":2165:2169  data */\n      dup8\n        /* \"contracts/token/TimeLock.sol\":2171:2182  executeTime */\n      dup8\n        /* \"contracts/token/TimeLock.sol\":2121:2191  TransactionQueued(target, value, signature, data, executeTime, txHash) */\n      mload(0x40)\n      tag_93\n      swap5\n      swap4\n      swap3\n      swap2\n      swap1\n      tag_94\n      jump\t// in\n    tag_93:\n      mload(0x40)\n      dup1\n      swap2\n      sub\n      swap1\n      log3\n        /* \"contracts/token/TimeLock.sol\":1839:2198  {... */\n      pop\n        /* \"contracts/token/TimeLock.sol\":1509:2198  function queueTransaction(... */\n      pop\n      pop\n      pop\n      pop\n      pop\n      jump\t// out\n        /* \"contracts/token/TimeLock.sol\":743:763  uint256 public delay */\n    tag_29:\n      sload(0x01)\n      dup2\n      jump\t// out\n        /* \"contracts/token/TimeLock.sol\":4050:4297  function cancelTransaction(bytes32 _txHash) external onlyAdmin {... */\n    tag_36:\n        /* \"contracts/token/TimeLock.sol\":1005:1010  admin */\n      0x00\n      dup1\n      sload\n      swap1\n      0x0100\n      exp\n      swap1\n      div\n      0xffffffffffffffffffffffffffffffffffffffff\n      and\n        /* \"contracts/token/TimeLock.sol\":991:1010  msg.sender == admin */\n      0xffffffffffffffffffffffffffffffffffffffff\n      and\n        /* \"contracts/token/TimeLock.sol\":991:1001  msg.sender */\n      caller\n        /* \"contracts/token/TimeLock.sol\":991:1010  msg.sender == admin */\n      0xffffffffffffffffffffffffffffffffffffffff\n      and\n      eq\n        /* \"contracts/token/TimeLock.sol\":983:1042  require(msg.sender == admin, \"Forbidden: Caller not admin\") */\n      tag_96\n      jumpi\n      mload(0x40)\n      0x08c379a000000000000000000000000000000000000000000000000000000000\n      dup2\n      mstore\n      0x04\n      add\n      tag_97\n      swap1\n      tag_59\n      jump\t// in\n    tag_97:\n      mload(0x40)\n      dup1\n      swap2\n      sub\n      swap1\n      revert\n    tag_96:\n        /* \"contracts/token/TimeLock.sol\":4131:4149  queuedTransactions */\n      0x02\n        /* \"contracts/token/TimeLock.sol\":4131:4158  queuedTransactions[_txHash] */\n      0x00\n        /* \"contracts/token/TimeLock.sol\":4150:4157  _txHash */\n      dup3\n        /* \"contracts/token/TimeLock.sol\":4131:4158  queuedTransactions[_txHash] */\n      dup2\n      mstore\n      0x20\n      add\n      swap1\n      dup2\n      mstore\n      0x20\n      add\n      0x00\n      keccak256\n      0x00\n      swap1\n      sload\n      swap1\n      0x0100\n      exp\n      swap1\n      div\n      0xff\n      and\n        /* \"contracts/token/TimeLock.sol\":4123:4204  require(queuedTransactions[_txHash], \"cancelTransaction: Transaction not queued\") */\n      tag_99\n      jumpi\n      mload(0x40)\n      0x08c379a000000000000000000000000000000000000000000000000000000000\n      dup2\n      mstore\n      0x04\n      add\n      tag_100\n      swap1\n      tag_101\n      jump\t// in\n    tag_100:\n      mload(0x40)\n      dup1\n      swap2\n      sub\n      swap1\n      revert\n    tag_99:\n        /* \"contracts/token/TimeLock.sol\":4244:4249  false */\n      0x00\n        /* \"contracts/token/TimeLock.sol\":4214:4232  queuedTransactions */\n      0x02\n        /* \"contracts/token/TimeLock.sol\":4214:4241  queuedTransactions[_txHash] */\n      0x00\n        /* \"contracts/token/TimeLock.sol\":4233:4240  _txHash */\n      dup4\n        /* \"contracts/token/TimeLock.sol\":4214:4241  queuedTransactions[_txHash] */\n      dup2\n      mstore\n      0x20\n      add\n      swap1\n      dup2\n      mstore\n      0x20\n      add\n      0x00\n      keccak256\n      0x00\n        /* \"contracts/token/TimeLock.sol\":4214:4249  queuedTransactions[_txHash] = false */\n      0x0100\n      exp\n      dup2\n      sload\n      dup2\n      0xff\n      mul\n      not\n      and\n      swap1\n      dup4\n      iszero\n      iszero\n      mul\n      or\n      swap1\n      sstore\n      pop\n        /* \"contracts/token/TimeLock.sol\":4282:4289  _txHash */\n      dup1\n        /* \"contracts/token/TimeLock.sol\":4264:4290  CancelTransaction(_txHash) */\n      0xbb8e18922d3abb7d8aea19f1b55d85b0ee985798c196aad6d05c58dfdb7c98af\n      mload(0x40)\n      mload(0x40)\n      dup1\n      swap2\n      sub\n      swap1\n      log2\n        /* \"contracts/token/TimeLock.sol\":4050:4297  function cancelTransaction(bytes32 _txHash) external onlyAdmin {... */\n      pop\n      jump\t// out\n        /* \"contracts/token/TimeLock.sol\":1241:1473  function changeAdmin(address newAdmin) public onlyTimeLocker {... */\n    tag_41:\n        /* \"contracts/token/TimeLock.sol\":1131:1135  this */\n      address\n        /* \"contracts/token/TimeLock.sol\":1109:1136  msg.sender == address(this) */\n      0xffffffffffffffffffffffffffffffffffffffff\n      and\n        /* \"contracts/token/TimeLock.sol\":1109:1119  msg.sender */\n      caller\n        /* \"contracts/token/TimeLock.sol\":1109:1136  msg.sender == address(this) */\n      0xffffffffffffffffffffffffffffffffffffffff\n      and\n      eq\n        /* \"contracts/token/TimeLock.sol\":1101:1173  require(msg.sender == address(this), \"Forbidden: Caller not timeLocker\") */\n      tag_103\n      jumpi\n      mload(0x40)\n      0x08c379a000000000000000000000000000000000000000000000000000000000\n      dup2\n      mstore\n      0x04\n      add\n      tag_104\n      swap1\n      tag_105\n      jump\t// in\n    tag_104:\n      mload(0x40)\n      dup1\n      swap2\n      sub\n      swap1\n      revert\n    tag_103:\n        /* \"contracts/token/TimeLock.sol\":1329:1337  newAdmin */\n      dup1\n        /* \"contracts/token/TimeLock.sol\":1320:1337  admin != newAdmin */\n      0xffffffffffffffffffffffffffffffffffffffff\n      and\n        /* \"contracts/token/TimeLock.sol\":1320:1325  admin */\n      0x00\n      dup1\n      sload\n      swap1\n      0x0100\n      exp\n      swap1\n      div\n      0xffffffffffffffffffffffffffffffffffffffff\n      and\n        /* \"contracts/token/TimeLock.sol\":1320:1337  admin != newAdmin */\n      0xffffffffffffffffffffffffffffffffffffffff\n      and\n      sub\n        /* \"contracts/token/TimeLock.sol\":1312:1369  require(admin != newAdmin, \"Forbidden: Admin not change\") */\n      tag_107\n      jumpi\n      mload(0x40)\n      0x08c379a000000000000000000000000000000000000000000000000000000000\n      dup2\n      mstore\n      0x04\n      add\n      tag_108\n      swap1\n      tag_109\n      jump\t// in\n    tag_108:\n      mload(0x40)\n      dup1\n      swap2\n      sub\n      swap1\n      revert\n    tag_107:\n        /* \"contracts/token/TimeLock.sol\":1379:1390  address old */\n      0x00\n        /* \"contracts/token/TimeLock.sol\":1393:1398  admin */\n      dup1\n      0x00\n      swap1\n      sload\n      swap1\n      0x0100\n      exp\n      swap1\n      div\n      0xffffffffffffffffffffffffffffffffffffffff\n      and\n        /* \"contracts/token/TimeLock.sol\":1379:1398  address old = admin */\n      swap1\n      pop\n        /* \"contracts/token/TimeLock.sol\":1416:1424  newAdmin */\n      dup2\n        /* \"contracts/token/TimeLock.sol\":1408:1413  admin */\n      0x00\n      dup1\n        /* \"contracts/token/TimeLock.sol\":1408:1424  admin = newAdmin */\n      0x0100\n      exp\n      dup2\n      sload\n      dup2\n      0xffffffffffffffffffffffffffffffffffffffff\n      mul\n      not\n      and\n      swap1\n      dup4\n      0xffffffffffffffffffffffffffffffffffffffff\n      and\n      mul\n      or\n      swap1\n      sstore\n      pop\n        /* \"contracts/token/TimeLock.sol\":1439:1466  AdminChanged(newAdmin, old) */\n      0x7e644d79422f17c01e4894b5f4f588d331ebfa28653d42ae832dc59e38c9798f\n        /* \"contracts/token/TimeLock.sol\":1452:1460  newAdmin */\n      dup3\n        /* \"contracts/token/TimeLock.sol\":1462:1465  old */\n      dup3\n        /* \"contracts/token/TimeLock.sol\":1439:1466  AdminChanged(newAdmin, old) */\n      mload(0x40)\n      tag_110\n      swap3\n      swap2\n      swap1\n      tag_111\n      jump\t// in\n    tag_110:\n      mload(0x40)\n      dup1\n      swap2\n      sub\n      swap1\n      log1\n        /* \"contracts/token/TimeLock.sol\":1302:1473  {... */\n      pop\n        /* \"contracts/token/TimeLock.sol\":1241:1473  function changeAdmin(address newAdmin) public onlyTimeLocker {... */\n      pop\n      jump\t// out\n        /* \"contracts/token/TimeLock.sol\":795:852  mapping(bytes32 txHash => bool) public queuedTransactions */\n    tag_45:\n      mstore(0x20, 0x02)\n      dup1\n      0x00\n      mstore\n      keccak256(0x00, 0x40)\n      0x00\n      swap2\n      pop\n      sload\n      swap1\n      0x0100\n      exp\n      swap1\n      div\n      0xff\n      and\n      dup2\n      jump\t// out\n        /* \"contracts/token/TimeLock.sol\":691:711  address public admin */\n    tag_50:\n      0x00\n      dup1\n      sload\n      swap1\n      0x0100\n      exp\n      swap1\n      div\n      0xffffffffffffffffffffffffffffffffffffffff\n      and\n      dup2\n      jump\t// out\n        /* \"#utility.yul\":7:82   */\n    tag_112:\n        /* \"#utility.yul\":40:46   */\n      0x00\n        /* \"#utility.yul\":73:75   */\n      0x40\n        /* \"#utility.yul\":67:76   */\n      mload\n        /* \"#utility.yul\":57:76   */\n      swap1\n      pop\n        /* \"#utility.yul\":7:82   */\n      swap1\n      jump\t// out\n        /* \"#utility.yul\":88:205   */\n    tag_113:\n        /* \"#utility.yul\":197:198   */\n      0x00\n        /* \"#utility.yul\":194:195   */\n      dup1\n        /* \"#utility.yul\":187:199   */\n      revert\n        /* \"#utility.yul\":211:328   */\n    tag_114:\n        /* \"#utility.yul\":320:321   */\n      0x00\n        /* \"#utility.yul\":317:318   */\n      dup1\n        /* \"#utility.yul\":310:322   */\n      revert\n        /* \"#utility.yul\":334:460   */\n    tag_115:\n        /* \"#utility.yul\":371:378   */\n      0x00\n        /* \"#utility.yul\":411:453   */\n      0xffffffffffffffffffffffffffffffffffffffff\n        /* \"#utility.yul\":404:409   */\n      dup3\n        /* \"#utility.yul\":400:454   */\n      and\n        /* \"#utility.yul\":389:454   */\n      swap1\n      pop\n        /* \"#utility.yul\":334:460   */\n      swap2\n      swap1\n      pop\n      jump\t// out\n        /* \"#utility.yul\":466:562   */\n    tag_116:\n        /* \"#utility.yul\":503:510   */\n      0x00\n        /* \"#utility.yul\":532:556   */\n      tag_178\n        /* \"#utility.yul\":550:555   */\n      dup3\n        /* \"#utility.yul\":532:556   */\n      tag_115\n      jump\t// in\n    tag_178:\n        /* \"#utility.yul\":521:556   */\n      swap1\n      pop\n        /* \"#utility.yul\":466:562   */\n      swap2\n      swap1\n      pop\n      jump\t// out\n        /* \"#utility.yul\":568:690   */\n    tag_117:\n        /* \"#utility.yul\":641:665   */\n      tag_180\n        /* \"#utility.yul\":659:664   */\n      dup2\n        /* \"#utility.yul\":641:665   */\n      tag_116\n      jump\t// in\n    tag_180:\n        /* \"#utility.yul\":634:639   */\n      dup2\n        /* \"#utility.yul\":631:666   */\n      eq\n        /* \"#utility.yul\":621:684   */\n      tag_181\n      jumpi\n        /* \"#utility.yul\":680:681   */\n      0x00\n        /* \"#utility.yul\":677:678   */\n      dup1\n        /* \"#utility.yul\":670:682   */\n      revert\n        /* \"#utility.yul\":621:684   */\n    tag_181:\n        /* \"#utility.yul\":568:690   */\n      pop\n      jump\t// out\n        /* \"#utility.yul\":696:835   */\n    tag_118:\n        /* \"#utility.yul\":742:747   */\n      0x00\n        /* \"#utility.yul\":780:786   */\n      dup2\n        /* \"#utility.yul\":767:787   */\n      calldataload\n        /* \"#utility.yul\":758:787   */\n      swap1\n      pop\n        /* \"#utility.yul\":796:829   */\n      tag_183\n        /* \"#utility.yul\":823:828   */\n      dup2\n        /* \"#utility.yul\":796:829   */\n      tag_117\n      jump\t// in\n    tag_183:\n        /* \"#utility.yul\":696:835   */\n      swap3\n      swap2\n      pop\n      pop\n      jump\t// out\n        /* \"#utility.yul\":841:918   */\n    tag_119:\n        /* \"#utility.yul\":878:885   */\n      0x00\n        /* \"#utility.yul\":907:912   */\n      dup2\n        /* \"#utility.yul\":896:912   */\n      swap1\n      pop\n        /* \"#utility.yul\":841:918   */\n      swap2\n      swap1\n      pop\n      jump\t// out\n        /* \"#utility.yul\":924:1046   */\n    tag_120:\n        /* \"#utility.yul\":997:1021   */\n      tag_186\n        /* \"#utility.yul\":1015:1020   */\n      dup2\n        /* \"#utility.yul\":997:1021   */\n      tag_119\n      jump\t// in\n    tag_186:\n        /* \"#utility.yul\":990:995   */\n      dup2\n        /* \"#utility.yul\":987:1022   */\n      eq\n        /* \"#utility.yul\":977:1040   */\n      tag_187\n      jumpi\n        /* \"#utility.yul\":1036:1037   */\n      0x00\n        /* \"#utility.yul\":1033:1034   */\n      dup1\n        /* \"#utility.yul\":1026:1038   */\n      revert\n        /* \"#utility.yul\":977:1040   */\n    tag_187:\n        /* \"#utility.yul\":924:1046   */\n      pop\n      jump\t// out\n        /* \"#utility.yul\":1052:1191   */\n    tag_121:\n        /* \"#utility.yul\":1098:1103   */\n      0x00\n        /* \"#utility.yul\":1136:1142   */\n      dup2\n        /* \"#utility.yul\":1123:1143   */\n      calldataload\n        /* \"#utility.yul\":1114:1143   */\n      swap1\n      pop\n        /* \"#utility.yul\":1152:1185   */\n      tag_189\n        /* \"#utility.yul\":1179:1184   */\n      dup2\n        /* \"#utility.yul\":1152:1185   */\n      tag_120\n      jump\t// in\n    tag_189:\n        /* \"#utility.yul\":1052:1191   */\n      swap3\n      swap2\n      pop\n      pop\n      jump\t// out\n        /* \"#utility.yul\":1197:1314   */\n    tag_122:\n        /* \"#utility.yul\":1306:1307   */\n      0x00\n        /* \"#utility.yul\":1303:1304   */\n      dup1\n        /* \"#utility.yul\":1296:1308   */\n      revert\n        /* \"#utility.yul\":1320:1437   */\n    tag_123:\n        /* \"#utility.yul\":1429:1430   */\n      0x00\n        /* \"#utility.yul\":1426:1427   */\n      dup1\n        /* \"#utility.yul\":1419:1431   */\n      revert\n        /* \"#utility.yul\":1443:1545   */\n    tag_124:\n        /* \"#utility.yul\":1484:1490   */\n      0x00\n        /* \"#utility.yul\":1535:1537   */\n      0x1f\n        /* \"#utility.yul\":1531:1538   */\n      not\n        /* \"#utility.yul\":1526:1528   */\n      0x1f\n        /* \"#utility.yul\":1519:1524   */\n      dup4\n        /* \"#utility.yul\":1515:1529   */\n      add\n        /* \"#utility.yul\":1511:1539   */\n      and\n        /* \"#utility.yul\":1501:1539   */\n      swap1\n      pop\n        /* \"#utility.yul\":1443:1545   */\n      swap2\n      swap1\n      pop\n      jump\t// out\n        /* \"#utility.yul\":1551:1731   */\n    tag_125:\n        /* \"#utility.yul\":1599:1676   */\n      0x4e487b7100000000000000000000000000000000000000000000000000000000\n        /* \"#utility.yul\":1596:1597   */\n      0x00\n        /* \"#utility.yul\":1589:1677   */\n      mstore\n        /* \"#utility.yul\":1696:1700   */\n      0x41\n        /* \"#utility.yul\":1693:1694   */\n      0x04\n        /* \"#utility.yul\":1686:1701   */\n      mstore\n        /* \"#utility.yul\":1720:1724   */\n      0x24\n        /* \"#utility.yul\":1717:1718   */\n      0x00\n        /* \"#utility.yul\":1710:1725   */\n      revert\n        /* \"#utility.yul\":1737:2018   */\n    tag_126:\n        /* \"#utility.yul\":1820:1847   */\n      tag_195\n        /* \"#utility.yul\":1842:1846   */\n      dup3\n        /* \"#utility.yul\":1820:1847   */\n      tag_124\n      jump\t// in\n    tag_195:\n        /* \"#utility.yul\":1812:1818   */\n      dup2\n        /* \"#utility.yul\":1808:1848   */\n      add\n        /* \"#utility.yul\":1950:1956   */\n      dup2\n        /* \"#utility.yul\":1938:1948   */\n      dup2\n        /* \"#utility.yul\":1935:1957   */\n      lt\n        /* \"#utility.yul\":1914:1932   */\n      0xffffffffffffffff\n        /* \"#utility.yul\":1902:1912   */\n      dup3\n        /* \"#utility.yul\":1899:1933   */\n      gt\n        /* \"#utility.yul\":1896:1958   */\n      or\n        /* \"#utility.yul\":1893:1981   */\n      iszero\n      tag_196\n      jumpi\n        /* \"#utility.yul\":1961:1979   */\n      tag_197\n      tag_125\n      jump\t// in\n    tag_197:\n        /* \"#utility.yul\":1893:1981   */\n    tag_196:\n        /* \"#utility.yul\":2001:2011   */\n      dup1\n        /* \"#utility.yul\":1997:1999   */\n      0x40\n        /* \"#utility.yul\":1990:2012   */\n      mstore\n        /* \"#utility.yul\":1780:2018   */\n      pop\n        /* \"#utility.yul\":1737:2018   */\n      pop\n      pop\n      jump\t// out\n        /* \"#utility.yul\":2024:2153   */\n    tag_127:\n        /* \"#utility.yul\":2058:2064   */\n      0x00\n        /* \"#utility.yul\":2085:2105   */\n      tag_199\n      tag_112\n      jump\t// in\n    tag_199:\n        /* \"#utility.yul\":2075:2105   */\n      swap1\n      pop\n        /* \"#utility.yul\":2114:2147   */\n      tag_200\n        /* \"#utility.yul\":2142:2146   */\n      dup3\n        /* \"#utility.yul\":2134:2140   */\n      dup3\n        /* \"#utility.yul\":2114:2147   */\n      tag_126\n      jump\t// in\n    tag_200:\n        /* \"#utility.yul\":2024:2153   */\n      swap2\n      swap1\n      pop\n      jump\t// out\n        /* \"#utility.yul\":2159:2467   */\n    tag_128:\n        /* \"#utility.yul\":2221:2225   */\n      0x00\n        /* \"#utility.yul\":2311:2329   */\n      0xffffffffffffffff\n        /* \"#utility.yul\":2303:2309   */\n      dup3\n        /* \"#utility.yul\":2300:2330   */\n      gt\n        /* \"#utility.yul\":2297:2353   */\n      iszero\n      tag_202\n      jumpi\n        /* \"#utility.yul\":2333:2351   */\n      tag_203\n      tag_125\n      jump\t// in\n    tag_203:\n        /* \"#utility.yul\":2297:2353   */\n    tag_202:\n        /* \"#utility.yul\":2371:2400   */\n      tag_204\n        /* \"#utility.yul\":2393:2399   */\n      dup3\n        /* \"#utility.yul\":2371:2400   */\n      tag_124\n      jump\t// in\n    tag_204:\n        /* \"#utility.yul\":2363:2400   */\n      swap1\n      pop\n        /* \"#utility.yul\":2455:2459   */\n      0x20\n        /* \"#utility.yul\":2449:2453   */\n      dup2\n        /* \"#utility.yul\":2445:2460   */\n      add\n        /* \"#utility.yul\":2437:2460   */\n      swap1\n      pop\n        /* \"#utility.yul\":2159:2467   */\n      swap2\n      swap1\n      pop\n      jump\t// out\n        /* \"#utility.yul\":2473:2621   */\n    tag_129:\n        /* \"#utility.yul\":2571:2577   */\n      dup3\n        /* \"#utility.yul\":2566:2569   */\n      dup2\n        /* \"#utility.yul\":2561:2564   */\n      dup4\n        /* \"#utility.yul\":2548:2578   */\n      calldatacopy\n        /* \"#utility.yul\":2612:2613   */\n      0x00\n        /* \"#utility.yul\":2603:2609   */\n      dup4\n        /* \"#utility.yul\":2598:2601   */\n      dup4\n        /* \"#utility.yul\":2594:2610   */\n      add\n        /* \"#utility.yul\":2587:2614   */\n      mstore\n        /* \"#utility.yul\":2473:2621   */\n      pop\n      pop\n      pop\n      jump\t// out\n        /* \"#utility.yul\":2627:3052   */\n    tag_130:\n        /* \"#utility.yul\":2705:2710   */\n      0x00\n        /* \"#utility.yul\":2730:2796   */\n      tag_207\n        /* \"#utility.yul\":2746:2795   */\n      tag_208\n        /* \"#utility.yul\":2788:2794   */\n      dup5\n        /* \"#utility.yul\":2746:2795   */\n      tag_128\n      jump\t// in\n    tag_208:\n        /* \"#utility.yul\":2730:2796   */\n      tag_127\n      jump\t// in\n    tag_207:\n        /* \"#utility.yul\":2721:2796   */\n      swap1\n      pop\n        /* \"#utility.yul\":2819:2825   */\n      dup3\n        /* \"#utility.yul\":2812:2817   */\n      dup2\n        /* \"#utility.yul\":2805:2826   */\n      mstore\n        /* \"#utility.yul\":2857:2861   */\n      0x20\n        /* \"#utility.yul\":2850:2855   */\n      dup2\n        /* \"#utility.yul\":2846:2862   */\n      add\n        /* \"#utility.yul\":2895:2898   */\n      dup5\n        /* \"#utility.yul\":2886:2892   */\n      dup5\n        /* \"#utility.yul\":2881:2884   */\n      dup5\n        /* \"#utility.yul\":2877:2893   */\n      add\n        /* \"#utility.yul\":2874:2899   */\n      gt\n        /* \"#utility.yul\":2871:2983   */\n      iszero\n      tag_209\n      jumpi\n        /* \"#utility.yul\":2902:2981   */\n      tag_210\n      tag_123\n      jump\t// in\n    tag_210:\n        /* \"#utility.yul\":2871:2983   */\n    tag_209:\n        /* \"#utility.yul\":2992:3046   */\n      tag_211\n        /* \"#utility.yul\":3039:3045   */\n      dup5\n        /* \"#utility.yul\":3034:3037   */\n      dup3\n        /* \"#utility.yul\":3029:3032   */\n      dup6\n        /* \"#utility.yul\":2992:3046   */\n      tag_129\n      jump\t// in\n    tag_211:\n        /* \"#utility.yul\":2711:3052   */\n      pop\n        /* \"#utility.yul\":2627:3052   */\n      swap4\n      swap3\n      pop\n      pop\n      pop\n      jump\t// out\n        /* \"#utility.yul\":3072:3412   */\n    tag_131:\n        /* \"#utility.yul\":3128:3133   */\n      0x00\n        /* \"#utility.yul\":3177:3180   */\n      dup3\n        /* \"#utility.yul\":3170:3174   */\n      0x1f\n        /* \"#utility.yul\":3162:3168   */\n      dup4\n        /* \"#utility.yul\":3158:3175   */\n      add\n        /* \"#utility.yul\":3154:3181   */\n      slt\n        /* \"#utility.yul\":3144:3266   */\n      tag_213\n      jumpi\n        /* \"#utility.yul\":3185:3264   */\n      tag_214\n      tag_122\n      jump\t// in\n    tag_214:\n        /* \"#utility.yul\":3144:3266   */\n    tag_213:\n        /* \"#utility.yul\":3302:3308   */\n      dup2\n        /* \"#utility.yul\":3289:3309   */\n      calldataload\n        /* \"#utility.yul\":3327:3406   */\n      tag_215\n        /* \"#utility.yul\":3402:3405   */\n      dup5\n        /* \"#utility.yul\":3394:3400   */\n      dup3\n        /* \"#utility.yul\":3387:3391   */\n      0x20\n        /* \"#utility.yul\":3379:3385   */\n      dup7\n        /* \"#utility.yul\":3375:3392   */\n      add\n        /* \"#utility.yul\":3327:3406   */\n      tag_130\n      jump\t// in\n    tag_215:\n        /* \"#utility.yul\":3318:3406   */\n      swap2\n      pop\n        /* \"#utility.yul\":3134:3412   */\n      pop\n        /* \"#utility.yul\":3072:3412   */\n      swap3\n      swap2\n      pop\n      pop\n      jump\t// out\n        /* \"#utility.yul\":3418:3725   */\n    tag_132:\n        /* \"#utility.yul\":3479:3483   */\n      0x00\n        /* \"#utility.yul\":3569:3587   */\n      0xffffffffffffffff\n        /* \"#utility.yul\":3561:3567   */\n      dup3\n        /* \"#utility.yul\":3558:3588   */\n      gt\n        /* \"#utility.yul\":3555:3611   */\n      iszero\n      tag_217\n      jumpi\n        /* \"#utility.yul\":3591:3609   */\n      tag_218\n      tag_125\n      jump\t// in\n    tag_218:\n        /* \"#utility.yul\":3555:3611   */\n    tag_217:\n        /* \"#utility.yul\":3629:3658   */\n      tag_219\n        /* \"#utility.yul\":3651:3657   */\n      dup3\n        /* \"#utility.yul\":3629:3658   */\n      tag_124\n      jump\t// in\n    tag_219:\n        /* \"#utility.yul\":3621:3658   */\n      swap1\n      pop\n        /* \"#utility.yul\":3713:3717   */\n      0x20\n        /* \"#utility.yul\":3707:3711   */\n      dup2\n        /* \"#utility.yul\":3703:3718   */\n      add\n        /* \"#utility.yul\":3695:3718   */\n      swap1\n      pop\n        /* \"#utility.yul\":3418:3725   */\n      swap2\n      swap1\n      pop\n      jump\t// out\n        /* \"#utility.yul\":3731:4154   */\n    tag_133:\n        /* \"#utility.yul\":3808:3813   */\n      0x00\n        /* \"#utility.yul\":3833:3898   */\n      tag_221\n        /* \"#utility.yul\":3849:3897   */\n      tag_222\n        /* \"#utility.yul\":3890:3896   */\n      dup5\n        /* \"#utility.yul\":3849:3897   */\n      tag_132\n      jump\t// in\n    tag_222:\n        /* \"#utility.yul\":3833:3898   */\n      tag_127\n      jump\t// in\n    tag_221:\n        /* \"#utility.yul\":3824:3898   */\n      swap1\n      pop\n        /* \"#utility.yul\":3921:3927   */\n      dup3\n        /* \"#utility.yul\":3914:3919   */\n      dup2\n        /* \"#utility.yul\":3907:3928   */\n      mstore\n        /* \"#utility.yul\":3959:3963   */\n      0x20\n        /* \"#utility.yul\":3952:3957   */\n      dup2\n        /* \"#utility.yul\":3948:3964   */\n      add\n        /* \"#utility.yul\":3997:4000   */\n      dup5\n        /* \"#utility.yul\":3988:3994   */\n      dup5\n        /* \"#utility.yul\":3983:3986   */\n      dup5\n        /* \"#utility.yul\":3979:3995   */\n      add\n        /* \"#utility.yul\":3976:4001   */\n      gt\n        /* \"#utility.yul\":3973:4085   */\n      iszero\n      tag_223\n      jumpi\n        /* \"#utility.yul\":4004:4083   */\n      tag_224\n      tag_123\n      jump\t// in\n    tag_224:\n        /* \"#utility.yul\":3973:4085   */\n    tag_223:\n        /* \"#utility.yul\":4094:4148   */\n      tag_225\n        /* \"#utility.yul\":4141:4147   */\n      dup5\n        /* \"#utility.yul\":4136:4139   */\n      dup3\n        /* \"#utility.yul\":4131:4134   */\n      dup6\n        /* \"#utility.yul\":4094:4148   */\n      tag_129\n      jump\t// in\n    tag_225:\n        /* \"#utility.yul\":3814:4154   */\n      pop\n        /* \"#utility.yul\":3731:4154   */\n      swap4\n      swap3\n      pop\n      pop\n      pop\n      jump\t// out\n        /* \"#utility.yul\":4173:4511   */\n    tag_134:\n        /* \"#utility.yul\":4228:4233   */\n      0x00\n        /* \"#utility.yul\":4277:4280   */\n      dup3\n        /* \"#utility.yul\":4270:4274   */\n      0x1f\n        /* \"#utility.yul\":4262:4268   */\n      dup4\n        /* \"#utility.yul\":4258:4275   */\n      add\n        /* \"#utility.yul\":4254:4281   */\n      slt\n        /* \"#utility.yul\":4244:4366   */\n      tag_227\n      jumpi\n        /* \"#utility.yul\":4285:4364   */\n      tag_228\n      tag_122\n      jump\t// in\n    tag_228:\n        /* \"#utility.yul\":4244:4366   */\n    tag_227:\n        /* \"#utility.yul\":4402:4408   */\n      dup2\n        /* \"#utility.yul\":4389:4409   */\n      calldataload\n        /* \"#utility.yul\":4427:4505   */\n      tag_229\n        /* \"#utility.yul\":4501:4504   */\n      dup5\n        /* \"#utility.yul\":4493:4499   */\n      dup3\n        /* \"#utility.yul\":4486:4490   */\n      0x20\n        /* \"#utility.yul\":4478:4484   */\n      dup7\n        /* \"#utility.yul\":4474:4491   */\n      add\n        /* \"#utility.yul\":4427:4505   */\n      tag_133\n      jump\t// in\n    tag_229:\n        /* \"#utility.yul\":4418:4505   */\n      swap2\n      pop\n        /* \"#utility.yul\":4234:4511   */\n      pop\n        /* \"#utility.yul\":4173:4511   */\n      swap3\n      swap2\n      pop\n      pop\n      jump\t// out\n        /* \"#utility.yul\":4517:5786   */\n    tag_14:\n        /* \"#utility.yul\":4631:4637   */\n      0x00\n        /* \"#utility.yul\":4639:4645   */\n      dup1\n        /* \"#utility.yul\":4647:4653   */\n      0x00\n        /* \"#utility.yul\":4655:4661   */\n      dup1\n        /* \"#utility.yul\":4663:4669   */\n      0x00\n        /* \"#utility.yul\":4712:4715   */\n      0xa0\n        /* \"#utility.yul\":4700:4709   */\n      dup7\n        /* \"#utility.yul\":4691:4698   */\n      dup9\n        /* \"#utility.yul\":4687:4710   */\n      sub\n        /* \"#utility.yul\":4683:4716   */\n      slt\n        /* \"#utility.yul\":4680:4800   */\n      iszero\n      tag_231\n      jumpi\n        /* \"#utility.yul\":4719:4798   */\n      tag_232\n      tag_113\n      jump\t// in\n    tag_232:\n        /* \"#utility.yul\":4680:4800   */\n    tag_231:\n        /* \"#utility.yul\":4839:4840   */\n      0x00\n        /* \"#utility.yul\":4864:4917   */\n      tag_233\n        /* \"#utility.yul\":4909:4916   */\n      dup9\n        /* \"#utility.yul\":4900:4906   */\n      dup3\n        /* \"#utility.yul\":4889:4898   */\n      dup10\n        /* \"#utility.yul\":4885:4907   */\n      add\n        /* \"#utility.yul\":4864:4917   */\n      tag_118\n      jump\t// in\n    tag_233:\n        /* \"#utility.yul\":4854:4917   */\n      swap6\n      pop\n        /* \"#utility.yul\":4810:4927   */\n      pop\n        /* \"#utility.yul\":4966:4968   */\n      0x20\n        /* \"#utility.yul\":4992:5045   */\n      tag_234\n        /* \"#utility.yul\":5037:5044   */\n      dup9\n        /* \"#utility.yul\":5028:5034   */\n      dup3\n        /* \"#utility.yul\":5017:5026   */\n      dup10\n        /* \"#utility.yul\":5013:5035   */\n      add\n        /* \"#utility.yul\":4992:5045   */\n      tag_121\n      jump\t// in\n    tag_234:\n        /* \"#utility.yul\":4982:5045   */\n      swap5\n      pop\n        /* \"#utility.yul\":4937:5055   */\n      pop\n        /* \"#utility.yul\":5122:5124   */\n      0x40\n        /* \"#utility.yul\":5111:5120   */\n      dup7\n        /* \"#utility.yul\":5107:5125   */\n      add\n        /* \"#utility.yul\":5094:5126   */\n      calldataload\n        /* \"#utility.yul\":5153:5171   */\n      0xffffffffffffffff\n        /* \"#utility.yul\":5145:5151   */\n      dup2\n        /* \"#utility.yul\":5142:5172   */\n      gt\n        /* \"#utility.yul\":5139:5256   */\n      iszero\n      tag_235\n      jumpi\n        /* \"#utility.yul\":5175:5254   */\n      tag_236\n      tag_114\n      jump\t// in\n    tag_236:\n        /* \"#utility.yul\":5139:5256   */\n    tag_235:\n        /* \"#utility.yul\":5280:5343   */\n      tag_237\n        /* \"#utility.yul\":5335:5342   */\n      dup9\n        /* \"#utility.yul\":5326:5332   */\n      dup3\n        /* \"#utility.yul\":5315:5324   */\n      dup10\n        /* \"#utility.yul\":5311:5333   */\n      add\n        /* \"#utility.yul\":5280:5343   */\n      tag_131\n      jump\t// in\n    tag_237:\n        /* \"#utility.yul\":5270:5343   */\n      swap4\n      pop\n        /* \"#utility.yul\":5065:5353   */\n      pop\n        /* \"#utility.yul\":5420:5422   */\n      0x60\n        /* \"#utility.yul\":5409:5418   */\n      dup7\n        /* \"#utility.yul\":5405:5423   */\n      add\n        /* \"#utility.yul\":5392:5424   */\n      calldataload\n        /* \"#utility.yul\":5451:5469   */\n      0xffffffffffffffff\n        /* \"#utility.yul\":5443:5449   */\n      dup2\n        /* \"#utility.yul\":5440:5470   */\n      gt\n        /* \"#utility.yul\":5437:5554   */\n      iszero\n      tag_238\n      jumpi\n        /* \"#utility.yul\":5473:5552   */\n      tag_239\n      tag_114\n      jump\t// in\n    tag_239:\n        /* \"#utility.yul\":5437:5554   */\n    tag_238:\n        /* \"#utility.yul\":5578:5640   */\n      tag_240\n        /* \"#utility.yul\":5632:5639   */\n      dup9\n        /* \"#utility.yul\":5623:5629   */\n      dup3\n        /* \"#utility.yul\":5612:5621   */\n      dup10\n        /* \"#utility.yul\":5608:5630   */\n      add\n        /* \"#utility.yul\":5578:5640   */\n      tag_134\n      jump\t// in\n    tag_240:\n        /* \"#utility.yul\":5568:5640   */\n      swap3\n      pop\n        /* \"#utility.yul\":5363:5650   */\n      pop\n        /* \"#utility.yul\":5689:5692   */\n      0x80\n        /* \"#utility.yul\":5716:5769   */\n      tag_241\n        /* \"#utility.yul\":5761:5768   */\n      dup9\n        /* \"#utility.yul\":5752:5758   */\n      dup3\n        /* \"#utility.yul\":5741:5750   */\n      dup10\n        /* \"#utility.yul\":5737:5759   */\n      add\n        /* \"#utility.yul\":5716:5769   */\n      tag_121\n      jump\t// in\n    tag_241:\n        /* \"#utility.yul\":5706:5769   */\n      swap2\n      pop\n        /* \"#utility.yul\":5660:5779   */\n      pop\n        /* \"#utility.yul\":4517:5786   */\n      swap3\n      swap6\n      pop\n      swap3\n      swap6\n      swap1\n      swap4\n      pop\n      jump\t// out\n        /* \"#utility.yul\":5792:5869   */\n    tag_135:\n        /* \"#utility.yul\":5829:5836   */\n      0x00\n        /* \"#utility.yul\":5858:5863   */\n      dup2\n        /* \"#utility.yul\":5847:5863   */\n      swap1\n      pop\n        /* \"#utility.yul\":5792:5869   */\n      swap2\n      swap1\n      pop\n      jump\t// out\n        /* \"#utility.yul\":5875:5993   */\n    tag_136:\n        /* \"#utility.yul\":5962:5986   */\n      tag_244\n        /* \"#utility.yul\":5980:5985   */\n      dup2\n        /* \"#utility.yul\":5962:5986   */\n      tag_135\n      jump\t// in\n    tag_244:\n        /* \"#utility.yul\":5957:5960   */\n      dup3\n        /* \"#utility.yul\":5950:5987   */\n      mstore\n        /* \"#utility.yul\":5875:5993   */\n      pop\n      pop\n      jump\t// out\n        /* \"#utility.yul\":5999:6221   */\n    tag_17:\n        /* \"#utility.yul\":6092:6096   */\n      0x00\n        /* \"#utility.yul\":6130:6132   */\n      0x20\n        /* \"#utility.yul\":6119:6128   */\n      dup3\n        /* \"#utility.yul\":6115:6133   */\n      add\n        /* \"#utility.yul\":6107:6133   */\n      swap1\n      pop\n        /* \"#utility.yul\":6143:6214   */\n      tag_246\n        /* \"#utility.yul\":6211:6212   */\n      0x00\n        /* \"#utility.yul\":6200:6209   */\n      dup4\n        /* \"#utility.yul\":6196:6213   */\n      add\n        /* \"#utility.yul\":6187:6193   */\n      dup5\n        /* \"#utility.yul\":6143:6214   */\n      tag_136\n      jump\t// in\n    tag_246:\n        /* \"#utility.yul\":5999:6221   */\n      swap3\n      swap2\n      pop\n      pop\n      jump\t// out\n        /* \"#utility.yul\":6227:6325   */\n    tag_137:\n        /* \"#utility.yul\":6278:6284   */\n      0x00\n        /* \"#utility.yul\":6312:6317   */\n      dup2\n        /* \"#utility.yul\":6306:6318   */\n      mload\n        /* \"#utility.yul\":6296:6318   */\n      swap1\n      pop\n        /* \"#utility.yul\":6227:6325   */\n      swap2\n      swap1\n      pop\n      jump\t// out\n        /* \"#utility.yul\":6331:6499   */\n    tag_138:\n        /* \"#utility.yul\":6414:6425   */\n      0x00\n        /* \"#utility.yul\":6448:6454   */\n      dup3\n        /* \"#utility.yul\":6443:6446   */\n      dup3\n        /* \"#utility.yul\":6436:6455   */\n      mstore\n        /* \"#utility.yul\":6488:6492   */\n      0x20\n        /* \"#utility.yul\":6483:6486   */\n      dup3\n        /* \"#utility.yul\":6479:6493   */\n      add\n        /* \"#utility.yul\":6464:6493   */\n      swap1\n      pop\n        /* \"#utility.yul\":6331:6499   */\n      swap3\n      swap2\n      pop\n      pop\n      jump\t// out\n        /* \"#utility.yul\":6505:6644   */\n    tag_139:\n        /* \"#utility.yul\":6594:6600   */\n      dup3\n        /* \"#utility.yul\":6589:6592   */\n      dup2\n        /* \"#utility.yul\":6584:6587   */\n      dup4\n        /* \"#utility.yul\":6578:6601   */\n      mcopy\n        /* \"#utility.yul\":6635:6636   */\n      0x00\n        /* \"#utility.yul\":6626:6632   */\n      dup4\n        /* \"#utility.yul\":6621:6624   */\n      dup4\n        /* \"#utility.yul\":6617:6633   */\n      add\n        /* \"#utility.yul\":6610:6637   */\n      mstore\n        /* \"#utility.yul\":6505:6644   */\n      pop\n      pop\n      pop\n      jump\t// out\n        /* \"#utility.yul\":6650:7023   */\n    tag_140:\n        /* \"#utility.yul\":6736:6739   */\n      0x00\n        /* \"#utility.yul\":6764:6802   */\n      tag_251\n        /* \"#utility.yul\":6796:6801   */\n      dup3\n        /* \"#utility.yul\":6764:6802   */\n      tag_137\n      jump\t// in\n    tag_251:\n        /* \"#utility.yul\":6818:6888   */\n      tag_252\n        /* \"#utility.yul\":6881:6887   */\n      dup2\n        /* \"#utility.yul\":6876:6879   */\n      dup6\n        /* \"#utility.yul\":6818:6888   */\n      tag_138\n      jump\t// in\n    tag_252:\n        /* \"#utility.yul\":6811:6888   */\n      swap4\n      pop\n        /* \"#utility.yul\":6897:6962   */\n      tag_253\n        /* \"#utility.yul\":6955:6961   */\n      dup2\n        /* \"#utility.yul\":6950:6953   */\n      dup6\n        /* \"#utility.yul\":6943:6947   */\n      0x20\n        /* \"#utility.yul\":6936:6941   */\n      dup7\n        /* \"#utility.yul\":6932:6948   */\n      add\n        /* \"#utility.yul\":6897:6962   */\n      tag_139\n      jump\t// in\n    tag_253:\n        /* \"#utility.yul\":6987:7016   */\n      tag_254\n        /* \"#utility.yul\":7009:7015   */\n      dup2\n        /* \"#utility.yul\":6987:7016   */\n      tag_124\n      jump\t// in\n    tag_254:\n        /* \"#utility.yul\":6982:6985   */\n      dup5\n        /* \"#utility.yul\":6978:7017   */\n      add\n        /* \"#utility.yul\":6971:7017   */\n      swap2\n      pop\n        /* \"#utility.yul\":6740:7023   */\n      pop\n        /* \"#utility.yul\":6650:7023   */\n      swap3\n      swap2\n      pop\n      pop\n      jump\t// out\n        /* \"#utility.yul\":7029:7338   */\n    tag_23:\n        /* \"#utility.yul\":7140:7144   */\n      0x00\n        /* \"#utility.yul\":7178:7180   */\n      0x20\n        /* \"#utility.yul\":7167:7176   */\n      dup3\n        /* \"#utility.yul\":7163:7181   */\n      add\n        /* \"#utility.yul\":7155:7181   */\n      swap1\n      pop\n        /* \"#utility.yul\":7227:7236   */\n      dup2\n        /* \"#utility.yul\":7221:7225   */\n      dup2\n        /* \"#utility.yul\":7217:7237   */\n      sub\n        /* \"#utility.yul\":7213:7214   */\n      0x00\n        /* \"#utility.yul\":7202:7211   */\n      dup4\n        /* \"#utility.yul\":7198:7215   */\n      add\n        /* \"#utility.yul\":7191:7238   */\n      mstore\n        /* \"#utility.yul\":7255:7331   */\n      tag_256\n        /* \"#utility.yul\":7326:7330   */\n      dup2\n        /* \"#utility.yul\":7317:7323   */\n      dup5\n        /* \"#utility.yul\":7255:7331   */\n      tag_140\n      jump\t// in\n    tag_256:\n        /* \"#utility.yul\":7247:7331   */\n      swap1\n      pop\n        /* \"#utility.yul\":7029:7338   */\n      swap3\n      swap2\n      pop\n      pop\n      jump\t// out\n        /* \"#utility.yul\":7344:7462   */\n    tag_141:\n        /* \"#utility.yul\":7431:7455   */\n      tag_258\n        /* \"#utility.yul\":7449:7454   */\n      dup2\n        /* \"#utility.yul\":7431:7455   */\n      tag_119\n      jump\t// in\n    tag_258:\n        /* \"#utility.yul\":7426:7429   */\n      dup3\n        /* \"#utility.yul\":7419:7456   */\n      mstore\n        /* \"#utility.yul\":7344:7462   */\n      pop\n      pop\n      jump\t// out\n        /* \"#utility.yul\":7468:7690   */\n    tag_31:\n        /* \"#utility.yul\":7561:7565   */\n      0x00\n        /* \"#utility.yul\":7599:7601   */\n      0x20\n        /* \"#utility.yul\":7588:7597   */\n      dup3\n        /* \"#utility.yul\":7584:7602   */\n      add\n        /* \"#utility.yul\":7576:7602   */\n      swap1\n      pop\n        /* \"#utility.yul\":7612:7683   */\n      tag_260\n        /* \"#utility.yul\":7680:7681   */\n      0x00\n        /* \"#utility.yul\":7669:7678   */\n      dup4\n        /* \"#utility.yul\":7665:7682   */\n      add\n        /* \"#utility.yul\":7656:7662   */\n      dup5\n        /* \"#utility.yul\":7612:7683   */\n      tag_141\n      jump\t// in\n    tag_260:\n        /* \"#utility.yul\":7468:7690   */\n      swap3\n      swap2\n      pop\n      pop\n      jump\t// out\n        /* \"#utility.yul\":7696:7818   */\n    tag_142:\n        /* \"#utility.yul\":7769:7793   */\n      tag_262\n        /* \"#utility.yul\":7787:7792   */\n      dup2\n        /* \"#utility.yul\":7769:7793   */\n      tag_135\n      jump\t// in\n    tag_262:\n        /* \"#utility.yul\":7762:7767   */\n      dup2\n        /* \"#utility.yul\":7759:7794   */\n      eq\n        /* \"#utility.yul\":7749:7812   */\n      tag_263\n      jumpi\n        /* \"#utility.yul\":7808:7809   */\n      0x00\n        /* \"#utility.yul\":7805:7806   */\n      dup1\n        /* \"#utility.yul\":7798:7810   */\n      revert\n        /* \"#utility.yul\":7749:7812   */\n    tag_263:\n        /* \"#utility.yul\":7696:7818   */\n      pop\n      jump\t// out\n        /* \"#utility.yul\":7824:7963   */\n    tag_143:\n        /* \"#utility.yul\":7870:7875   */\n      0x00\n        /* \"#utility.yul\":7908:7914   */\n      dup2\n        /* \"#utility.yul\":7895:7915   */\n      calldataload\n        /* \"#utility.yul\":7886:7915   */\n      swap1\n      pop\n        /* \"#utility.yul\":7924:7957   */\n      tag_265\n        /* \"#utility.yul\":7951:7956   */\n      dup2\n        /* \"#utility.yul\":7924:7957   */\n      tag_142\n      jump\t// in\n    tag_265:\n        /* \"#utility.yul\":7824:7963   */\n      swap3\n      swap2\n      pop\n      pop\n      jump\t// out\n        /* \"#utility.yul\":7969:8298   */\n    tag_35:\n        /* \"#utility.yul\":8028:8034   */\n      0x00\n        /* \"#utility.yul\":8077:8079   */\n      0x20\n        /* \"#utility.yul\":8065:8074   */\n      dup3\n        /* \"#utility.yul\":8056:8063   */\n      dup5\n        /* \"#utility.yul\":8052:8075   */\n      sub\n        /* \"#utility.yul\":8048:8080   */\n      slt\n        /* \"#utility.yul\":8045:8164   */\n      iszero\n      tag_267\n      jumpi\n        /* \"#utility.yul\":8083:8162   */\n      tag_268\n      tag_113\n      jump\t// in\n    tag_268:\n        /* \"#utility.yul\":8045:8164   */\n    tag_267:\n        /* \"#utility.yul\":8203:8204   */\n      0x00\n        /* \"#utility.yul\":8228:8281   */\n      tag_269\n        /* \"#utility.yul\":8273:8280   */\n      dup5\n        /* \"#utility.yul\":8264:8270   */\n      dup3\n        /* \"#utility.yul\":8253:8262   */\n      dup6\n        /* \"#utility.yul\":8249:8271   */\n      add\n        /* \"#utility.yul\":8228:8281   */\n      tag_143\n      jump\t// in\n    tag_269:\n        /* \"#utility.yul\":8218:8281   */\n      swap2\n      pop\n        /* \"#utility.yul\":8174:8291   */\n      pop\n        /* \"#utility.yul\":7969:8298   */\n      swap3\n      swap2\n      pop\n      pop\n      jump\t// out\n        /* \"#utility.yul\":8304:8633   */\n    tag_40:\n        /* \"#utility.yul\":8363:8369   */\n      0x00\n        /* \"#utility.yul\":8412:8414   */\n      0x20\n        /* \"#utility.yul\":8400:8409   */\n      dup3\n        /* \"#utility.yul\":8391:8398   */\n      dup5\n        /* \"#utility.yul\":8387:8410   */\n      sub\n        /* \"#utility.yul\":8383:8415   */\n      slt\n        /* \"#utility.yul\":8380:8499   */\n      iszero\n      tag_271\n      jumpi\n        /* \"#utility.yul\":8418:8497   */\n      tag_272\n      tag_113\n      jump\t// in\n    tag_272:\n        /* \"#utility.yul\":8380:8499   */\n    tag_271:\n        /* \"#utility.yul\":8538:8539   */\n      0x00\n        /* \"#utility.yul\":8563:8616   */\n      tag_273\n        /* \"#utility.yul\":8608:8615   */\n      dup5\n        /* \"#utility.yul\":8599:8605   */\n      dup3\n        /* \"#utility.yul\":8588:8597   */\n      dup6\n        /* \"#utility.yul\":8584:8606   */\n      add\n        /* \"#utility.yul\":8563:8616   */\n      tag_118\n      jump\t// in\n    tag_273:\n        /* \"#utility.yul\":8553:8616   */\n      swap2\n      pop\n        /* \"#utility.yul\":8509:8626   */\n      pop\n        /* \"#utility.yul\":8304:8633   */\n      swap3\n      swap2\n      pop\n      pop\n      jump\t// out\n        /* \"#utility.yul\":8639:8729   */\n    tag_144:\n        /* \"#utility.yul\":8673:8680   */\n      0x00\n        /* \"#utility.yul\":8716:8721   */\n      dup2\n        /* \"#utility.yul\":8709:8722   */\n      iszero\n        /* \"#utility.yul\":8702:8723   */\n      iszero\n        /* \"#utility.yul\":8691:8723   */\n      swap1\n      pop\n        /* \"#utility.yul\":8639:8729   */\n      swap2\n      swap1\n      pop\n      jump\t// out\n        /* \"#utility.yul\":8735:8844   */\n    tag_145:\n        /* \"#utility.yul\":8816:8837   */\n      tag_276\n        /* \"#utility.yul\":8831:8836   */\n      dup2\n        /* \"#utility.yul\":8816:8837   */\n      tag_144\n      jump\t// in\n    tag_276:\n        /* \"#utility.yul\":8811:8814   */\n      dup3\n        /* \"#utility.yul\":8804:8838   */\n      mstore\n        /* \"#utility.yul\":8735:8844   */\n      pop\n      pop\n      jump\t// out\n        /* \"#utility.yul\":8850:9060   */\n    tag_47:\n        /* \"#utility.yul\":8937:8941   */\n      0x00\n        /* \"#utility.yul\":8975:8977   */\n      0x20\n        /* \"#utility.yul\":8964:8973   */\n      dup3\n        /* \"#utility.yul\":8960:8978   */\n      add\n        /* \"#utility.yul\":8952:8978   */\n      swap1\n      pop\n        /* \"#utility.yul\":8988:9053   */\n      tag_278\n        /* \"#utility.yul\":9050:9051   */\n      0x00\n        /* \"#utility.yul\":9039:9048   */\n      dup4\n        /* \"#utility.yul\":9035:9052   */\n      add\n        /* \"#utility.yul\":9026:9032   */\n      dup5\n        /* \"#utility.yul\":8988:9053   */\n      tag_145\n      jump\t// in\n    tag_278:\n        /* \"#utility.yul\":8850:9060   */\n      swap3\n      swap2\n      pop\n      pop\n      jump\t// out\n        /* \"#utility.yul\":9066:9184   */\n    tag_146:\n        /* \"#utility.yul\":9153:9177   */\n      tag_280\n        /* \"#utility.yul\":9171:9176   */\n      dup2\n        /* \"#utility.yul\":9153:9177   */\n      tag_116\n      jump\t// in\n    tag_280:\n        /* \"#utility.yul\":9148:9151   */\n      dup3\n        /* \"#utility.yul\":9141:9178   */\n      mstore\n        /* \"#utility.yul\":9066:9184   */\n      pop\n      pop\n      jump\t// out\n        /* \"#utility.yul\":9190:9412   */\n    tag_52:\n        /* \"#utility.yul\":9283:9287   */\n      0x00\n        /* \"#utility.yul\":9321:9323   */\n      0x20\n        /* \"#utility.yul\":9310:9319   */\n      dup3\n        /* \"#utility.yul\":9306:9324   */\n      add\n        /* \"#utility.yul\":9298:9324   */\n      swap1\n      pop\n        /* \"#utility.yul\":9334:9405   */\n      tag_282\n        /* \"#utility.yul\":9402:9403   */\n      0x00\n        /* \"#utility.yul\":9391:9400   */\n      dup4\n        /* \"#utility.yul\":9387:9404   */\n      add\n        /* \"#utility.yul\":9378:9384   */\n      dup5\n        /* \"#utility.yul\":9334:9405   */\n      tag_146\n      jump\t// in\n    tag_282:\n        /* \"#utility.yul\":9190:9412   */\n      swap3\n      swap2\n      pop\n      pop\n      jump\t// out\n        /* \"#utility.yul\":9418:9517   */\n    tag_147:\n        /* \"#utility.yul\":9470:9476   */\n      0x00\n        /* \"#utility.yul\":9504:9509   */\n      dup2\n        /* \"#utility.yul\":9498:9510   */\n      mload\n        /* \"#utility.yul\":9488:9510   */\n      swap1\n      pop\n        /* \"#utility.yul\":9418:9517   */\n      swap2\n      swap1\n      pop\n      jump\t// out\n        /* \"#utility.yul\":9523:9692   */\n    tag_148:\n        /* \"#utility.yul\":9607:9618   */\n      0x00\n        /* \"#utility.yul\":9641:9647   */\n      dup3\n        /* \"#utility.yul\":9636:9639   */\n      dup3\n        /* \"#utility.yul\":9629:9648   */\n      mstore\n        /* \"#utility.yul\":9681:9685   */\n      0x20\n        /* \"#utility.yul\":9676:9679   */\n      dup3\n        /* \"#utility.yul\":9672:9686   */\n      add\n        /* \"#utility.yul\":9657:9686   */\n      swap1\n      pop\n        /* \"#utility.yul\":9523:9692   */\n      swap3\n      swap2\n      pop\n      pop\n      jump\t// out\n        /* \"#utility.yul\":9698:10075   */\n    tag_149:\n        /* \"#utility.yul\":9786:9789   */\n      0x00\n        /* \"#utility.yul\":9814:9853   */\n      tag_286\n        /* \"#utility.yul\":9847:9852   */\n      dup3\n        /* \"#utility.yul\":9814:9853   */\n      tag_147\n      jump\t// in\n    tag_286:\n        /* \"#utility.yul\":9869:9940   */\n      tag_287\n        /* \"#utility.yul\":9933:9939   */\n      dup2\n        /* \"#utility.yul\":9928:9931   */\n      dup6\n        /* \"#utility.yul\":9869:9940   */\n      tag_148\n      jump\t// in\n    tag_287:\n        /* \"#utility.yul\":9862:9940   */\n      swap4\n      pop\n        /* \"#utility.yul\":9949:10014   */\n      tag_288\n        /* \"#utility.yul\":10007:10013   */\n      dup2\n        /* \"#utility.yul\":10002:10005   */\n      dup6\n        /* \"#utility.yul\":9995:9999   */\n      0x20\n        /* \"#utility.yul\":9988:9993   */\n      dup7\n        /* \"#utility.yul\":9984:10000   */\n      add\n        /* \"#utility.yul\":9949:10014   */\n      tag_139\n      jump\t// in\n    tag_288:\n        /* \"#utility.yul\":10039:10068   */\n      tag_289\n        /* \"#utility.yul\":10061:10067   */\n      dup2\n        /* \"#utility.yul\":10039:10068   */\n      tag_124\n      jump\t// in\n    tag_289:\n        /* \"#utility.yul\":10034:10037   */\n      dup5\n        /* \"#utility.yul\":10030:10069   */\n      add\n        /* \"#utility.yul\":10023:10069   */\n      swap2\n      pop\n        /* \"#utility.yul\":9790:10075   */\n      pop\n        /* \"#utility.yul\":9698:10075   */\n      swap3\n      swap2\n      pop\n      pop\n      jump\t// out\n        /* \"#utility.yul\":10081:10923   */\n    tag_55:\n        /* \"#utility.yul\":10324:10328   */\n      0x00\n        /* \"#utility.yul\":10362:10365   */\n      0xa0\n        /* \"#utility.yul\":10351:10360   */\n      dup3\n        /* \"#utility.yul\":10347:10366   */\n      add\n        /* \"#utility.yul\":10339:10366   */\n      swap1\n      pop\n        /* \"#utility.yul\":10376:10447   */\n      tag_291\n        /* \"#utility.yul\":10444:10445   */\n      0x00\n        /* \"#utility.yul\":10433:10442   */\n      dup4\n        /* \"#utility.yul\":10429:10446   */\n      add\n        /* \"#utility.yul\":10420:10426   */\n      dup9\n        /* \"#utility.yul\":10376:10447   */\n      tag_146\n      jump\t// in\n    tag_291:\n        /* \"#utility.yul\":10457:10529   */\n      tag_292\n        /* \"#utility.yul\":10525:10527   */\n      0x20\n        /* \"#utility.yul\":10514:10523   */\n      dup4\n        /* \"#utility.yul\":10510:10528   */\n      add\n        /* \"#utility.yul\":10501:10507   */\n      dup8\n        /* \"#utility.yul\":10457:10529   */\n      tag_141\n      jump\t// in\n    tag_292:\n        /* \"#utility.yul\":10576:10585   */\n      dup2\n        /* \"#utility.yul\":10570:10574   */\n      dup2\n        /* \"#utility.yul\":10566:10586   */\n      sub\n        /* \"#utility.yul\":10561:10563   */\n      0x40\n        /* \"#utility.yul\":10550:10559   */\n      dup4\n        /* \"#utility.yul\":10546:10564   */\n      add\n        /* \"#utility.yul\":10539:10587   */\n      mstore\n        /* \"#utility.yul\":10604:10682   */\n      tag_293\n        /* \"#utility.yul\":10677:10681   */\n      dup2\n        /* \"#utility.yul\":10668:10674   */\n      dup7\n        /* \"#utility.yul\":10604:10682   */\n      tag_149\n      jump\t// in\n    tag_293:\n        /* \"#utility.yul\":10596:10682   */\n      swap1\n      pop\n        /* \"#utility.yul\":10729:10738   */\n      dup2\n        /* \"#utility.yul\":10723:10727   */\n      dup2\n        /* \"#utility.yul\":10719:10739   */\n      sub\n        /* \"#utility.yul\":10714:10716   */\n      0x60\n        /* \"#utility.yul\":10703:10712   */\n      dup4\n        /* \"#utility.yul\":10699:10717   */\n      add\n        /* \"#utility.yul\":10692:10740   */\n      mstore\n        /* \"#utility.yul\":10757:10833   */\n      tag_294\n        /* \"#utility.yul\":10828:10832   */\n      dup2\n        /* \"#utility.yul\":10819:10825   */\n      dup6\n        /* \"#utility.yul\":10757:10833   */\n      tag_140\n      jump\t// in\n    tag_294:\n        /* \"#utility.yul\":10749:10833   */\n      swap1\n      pop\n        /* \"#utility.yul\":10843:10916   */\n      tag_295\n        /* \"#utility.yul\":10911:10914   */\n      0x80\n        /* \"#utility.yul\":10900:10909   */\n      dup4\n        /* \"#utility.yul\":10896:10915   */\n      add\n        /* \"#utility.yul\":10887:10893   */\n      dup5\n        /* \"#utility.yul\":10843:10916   */\n      tag_141\n      jump\t// in\n    tag_295:\n        /* \"#utility.yul\":10081:10923   */\n      swap7\n      swap6\n      pop\n      pop\n      pop\n      pop\n      pop\n      pop\n      jump\t// out\n        /* \"#utility.yul\":10929:11106   */\n    tag_150:\n        /* \"#utility.yul\":11069:11098   */\n      0x466f7262696464656e3a2043616c6c6572206e6f742061646d696e0000000000\n        /* \"#utility.yul\":11065:11066   */\n      0x00\n        /* \"#utility.yul\":11057:11063   */\n      dup3\n        /* \"#utility.yul\":11053:11067   */\n      add\n        /* \"#utility.yul\":11046:11099   */\n      mstore\n        /* \"#utility.yul\":10929:11106   */\n      pop\n      jump\t// out\n        /* \"#utility.yul\":11112:11478   */\n    tag_151:\n        /* \"#utility.yul\":11254:11257   */\n      0x00\n        /* \"#utility.yul\":11275:11342   */\n      tag_298\n        /* \"#utility.yul\":11339:11341   */\n      0x1b\n        /* \"#utility.yul\":11334:11337   */\n      dup4\n        /* \"#utility.yul\":11275:11342   */\n      tag_148\n      jump\t// in\n    tag_298:\n        /* \"#utility.yul\":11268:11342   */\n      swap2\n      pop\n        /* \"#utility.yul\":11351:11444   */\n      tag_299\n        /* \"#utility.yul\":11440:11443   */\n      dup3\n        /* \"#utility.yul\":11351:11444   */\n      tag_150\n      jump\t// in\n    tag_299:\n        /* \"#utility.yul\":11469:11471   */\n      0x20\n        /* \"#utility.yul\":11464:11467   */\n      dup3\n        /* \"#utility.yul\":11460:11472   */\n      add\n        /* \"#utility.yul\":11453:11472   */\n      swap1\n      pop\n        /* \"#utility.yul\":11112:11478   */\n      swap2\n      swap1\n      pop\n      jump\t// out\n        /* \"#utility.yul\":11484:11903   */\n    tag_59:\n        /* \"#utility.yul\":11650:11654   */\n      0x00\n        /* \"#utility.yul\":11688:11690   */\n      0x20\n        /* \"#utility.yul\":11677:11686   */\n      dup3\n        /* \"#utility.yul\":11673:11691   */\n      add\n        /* \"#utility.yul\":11665:11691   */\n      swap1\n      pop\n        /* \"#utility.yul\":11737:11746   */\n      dup2\n        /* \"#utility.yul\":11731:11735   */\n      dup2\n        /* \"#utility.yul\":11727:11747   */\n      sub\n        /* \"#utility.yul\":11723:11724   */\n      0x00\n        /* \"#utility.yul\":11712:11721   */\n      dup4\n        /* \"#utility.yul\":11708:11725   */\n      add\n        /* \"#utility.yul\":11701:11748   */\n      mstore\n        /* \"#utility.yul\":11765:11896   */\n      tag_301\n        /* \"#utility.yul\":11891:11895   */\n      dup2\n        /* \"#utility.yul\":11765:11896   */\n      tag_151\n      jump\t// in\n    tag_301:\n        /* \"#utility.yul\":11757:11896   */\n      swap1\n      pop\n        /* \"#utility.yul\":11484:11903   */\n      swap2\n      swap1\n      pop\n      jump\t// out\n        /* \"#utility.yul\":11909:12089   */\n    tag_152:\n        /* \"#utility.yul\":11957:12034   */\n      0x4e487b7100000000000000000000000000000000000000000000000000000000\n        /* \"#utility.yul\":11954:11955   */\n      0x00\n        /* \"#utility.yul\":11947:12035   */\n      mstore\n        /* \"#utility.yul\":12054:12058   */\n      0x11\n        /* \"#utility.yul\":12051:12052   */\n      0x04\n        /* \"#utility.yul\":12044:12059   */\n      mstore\n        /* \"#utility.yul\":12078:12082   */\n      0x24\n        /* \"#utility.yul\":12075:12076   */\n      0x00\n        /* \"#utility.yul\":12068:12083   */\n      revert\n        /* \"#utility.yul\":12095:12286   */\n    tag_62:\n        /* \"#utility.yul\":12135:12138   */\n      0x00\n        /* \"#utility.yul\":12154:12174   */\n      tag_304\n        /* \"#utility.yul\":12172:12173   */\n      dup3\n        /* \"#utility.yul\":12154:12174   */\n      tag_119\n      jump\t// in\n    tag_304:\n        /* \"#utility.yul\":12149:12174   */\n      swap2\n      pop\n        /* \"#utility.yul\":12188:12208   */\n      tag_305\n        /* \"#utility.yul\":12206:12207   */\n      dup4\n        /* \"#utility.yul\":12188:12208   */\n      tag_119\n      jump\t// in\n    tag_305:\n        /* \"#utility.yul\":12183:12208   */\n      swap3\n      pop\n        /* \"#utility.yul\":12231:12232   */\n      dup3\n        /* \"#utility.yul\":12228:12229   */\n      dup3\n        /* \"#utility.yul\":12224:12233   */\n      add\n        /* \"#utility.yul\":12217:12233   */\n      swap1\n      pop\n        /* \"#utility.yul\":12252:12255   */\n      dup1\n        /* \"#utility.yul\":12249:12250   */\n      dup3\n        /* \"#utility.yul\":12246:12256   */\n      gt\n        /* \"#utility.yul\":12243:12279   */\n      iszero\n      tag_306\n      jumpi\n        /* \"#utility.yul\":12259:12277   */\n      tag_307\n      tag_152\n      jump\t// in\n    tag_307:\n        /* \"#utility.yul\":12243:12279   */\n    tag_306:\n        /* \"#utility.yul\":12095:12286   */\n      swap3\n      swap2\n      pop\n      pop\n      jump\t// out\n        /* \"#utility.yul\":12292:12529   */\n    tag_153:\n        /* \"#utility.yul\":12432:12466   */\n      0x657865637574655472616e73616374696f6e3a206578656375746554696d6520\n        /* \"#utility.yul\":12428:12429   */\n      0x00\n        /* \"#utility.yul\":12420:12426   */\n      dup3\n        /* \"#utility.yul\":12416:12430   */\n      add\n        /* \"#utility.yul\":12409:12467   */\n      mstore\n        /* \"#utility.yul\":12501:12521   */\n      0x6d75737420736174697366792064656c61790000000000000000000000000000\n        /* \"#utility.yul\":12496:12498   */\n      0x20\n        /* \"#utility.yul\":12488:12494   */\n      dup3\n        /* \"#utility.yul\":12484:12499   */\n      add\n        /* \"#utility.yul\":12477:12522   */\n      mstore\n        /* \"#utility.yul\":12292:12529   */\n      pop\n      jump\t// out\n        /* \"#utility.yul\":12535:12901   */\n    tag_154:\n        /* \"#utility.yul\":12677:12680   */\n      0x00\n        /* \"#utility.yul\":12698:12765   */\n      tag_310\n        /* \"#utility.yul\":12762:12764   */\n      0x32\n        /* \"#utility.yul\":12757:12760   */\n      dup4\n        /* \"#utility.yul\":12698:12765   */\n      tag_148\n      jump\t// in\n    tag_310:\n        /* \"#utility.yul\":12691:12765   */\n      swap2\n      pop\n        /* \"#utility.yul\":12774:12867   */\n      tag_311\n        /* \"#utility.yul\":12863:12866   */\n      dup3\n        /* \"#utility.yul\":12774:12867   */\n      tag_153\n      jump\t// in\n    tag_311:\n        /* \"#utility.yul\":12892:12894   */\n      0x40\n        /* \"#utility.yul\":12887:12890   */\n      dup3\n        /* \"#utility.yul\":12883:12895   */\n      add\n        /* \"#utility.yul\":12876:12895   */\n      swap1\n      pop\n        /* \"#utility.yul\":12535:12901   */\n      swap2\n      swap1\n      pop\n      jump\t// out\n        /* \"#utility.yul\":12907:13326   */\n    tag_65:\n        /* \"#utility.yul\":13073:13077   */\n      0x00\n        /* \"#utility.yul\":13111:13113   */\n      0x20\n        /* \"#utility.yul\":13100:13109   */\n      dup3\n        /* \"#utility.yul\":13096:13114   */\n      add\n        /* \"#utility.yul\":13088:13114   */\n      swap1\n      pop\n        /* \"#utility.yul\":13160:13169   */\n      dup2\n        /* \"#utility.yul\":13154:13158   */\n      dup2\n        /* \"#utility.yul\":13150:13170   */\n      sub\n        /* \"#utility.yul\":13146:13147   */\n      0x00\n        /* \"#utility.yul\":13135:13144   */\n      dup4\n        /* \"#utility.yul\":13131:13148   */\n      add\n        /* \"#utility.yul\":13124:13171   */\n      mstore\n        /* \"#utility.yul\":13188:13319   */\n      tag_313\n        /* \"#utility.yul\":13314:13318   */\n      dup2\n        /* \"#utility.yul\":13188:13319   */\n      tag_154\n      jump\t// in\n    tag_313:\n        /* \"#utility.yul\":13180:13319   */\n      swap1\n      pop\n        /* \"#utility.yul\":12907:13326   */\n      swap2\n      swap1\n      pop\n      jump\t// out\n        /* \"#utility.yul\":13332:13561   */\n    tag_155:\n        /* \"#utility.yul\":13472:13506   */\n      0x657865637574655472616e73616374696f6e3a205472616e73616374696f6e20\n        /* \"#utility.yul\":13468:13469   */\n      0x00\n        /* \"#utility.yul\":13460:13466   */\n      dup3\n        /* \"#utility.yul\":13456:13470   */\n      add\n        /* \"#utility.yul\":13449:13507   */\n      mstore\n        /* \"#utility.yul\":13541:13553   */\n      0x6e6f742071756575656400000000000000000000000000000000000000000000\n        /* \"#utility.yul\":13536:13538   */\n      0x20\n        /* \"#utility.yul\":13528:13534   */\n      dup3\n        /* \"#utility.yul\":13524:13539   */\n      add\n        /* \"#utility.yul\":13517:13554   */\n      mstore\n        /* \"#utility.yul\":13332:13561   */\n      pop\n      jump\t// out\n        /* \"#utility.yul\":13567:13933   */\n    tag_156:\n        /* \"#utility.yul\":13709:13712   */\n      0x00\n        /* \"#utility.yul\":13730:13797   */\n      tag_316\n        /* \"#utility.yul\":13794:13796   */\n      0x2a\n        /* \"#utility.yul\":13789:13792   */\n      dup4\n        /* \"#utility.yul\":13730:13797   */\n      tag_148\n      jump\t// in\n    tag_316:\n        /* \"#utility.yul\":13723:13797   */\n      swap2\n      pop\n        /* \"#utility.yul\":13806:13899   */\n      tag_317\n        /* \"#utility.yul\":13895:13898   */\n      dup3\n        /* \"#utility.yul\":13806:13899   */\n      tag_155\n      jump\t// in\n    tag_317:\n        /* \"#utility.yul\":13924:13926   */\n      0x40\n        /* \"#utility.yul\":13919:13922   */\n      dup3\n        /* \"#utility.yul\":13915:13927   */\n      add\n        /* \"#utility.yul\":13908:13927   */\n      swap1\n      pop\n        /* \"#utility.yul\":13567:13933   */\n      swap2\n      swap1\n      pop\n      jump\t// out\n        /* \"#utility.yul\":13939:14358   */\n    tag_69:\n        /* \"#utility.yul\":14105:14109   */\n      0x00\n        /* \"#utility.yul\":14143:14145   */\n      0x20\n        /* \"#utility.yul\":14132:14141   */\n      dup3\n        /* \"#utility.yul\":14128:14146   */\n      add\n        /* \"#utility.yul\":14120:14146   */\n      swap1\n      pop\n        /* \"#utility.yul\":14192:14201   */\n      dup2\n        /* \"#utility.yul\":14186:14190   */\n      dup2\n        /* \"#utility.yul\":14182:14202   */\n      sub\n        /* \"#utility.yul\":14178:14179   */\n      0x00\n        /* \"#utility.yul\":14167:14176   */\n      dup4\n        /* \"#utility.yul\":14163:14180   */\n      add\n        /* \"#utility.yul\":14156:14203   */\n      mstore\n        /* \"#utility.yul\":14220:14351   */\n      tag_319\n        /* \"#utility.yul\":14346:14350   */\n      dup2\n        /* \"#utility.yul\":14220:14351   */\n      tag_156\n      jump\t// in\n    tag_319:\n        /* \"#utility.yul\":14212:14351   */\n      swap1\n      pop\n        /* \"#utility.yul\":13939:14358   */\n      swap2\n      swap1\n      pop\n      jump\t// out\n        /* \"#utility.yul\":14364:14513   */\n    tag_157:\n        /* \"#utility.yul\":14400:14407   */\n      0x00\n        /* \"#utility.yul\":14440:14506   */\n      0xffffffff00000000000000000000000000000000000000000000000000000000\n        /* \"#utility.yul\":14433:14438   */\n      dup3\n        /* \"#utility.yul\":14429:14507   */\n      and\n        /* \"#utility.yul\":14418:14507   */\n      swap1\n      pop\n        /* \"#utility.yul\":14364:14513   */\n      swap2\n      swap1\n      pop\n      jump\t// out\n        /* \"#utility.yul\":14519:14597   */\n    tag_158:\n        /* \"#utility.yul\":14557:14564   */\n      0x00\n        /* \"#utility.yul\":14586:14591   */\n      dup2\n        /* \"#utility.yul\":14575:14591   */\n      swap1\n      pop\n        /* \"#utility.yul\":14519:14597   */\n      swap2\n      swap1\n      pop\n      jump\t// out\n        /* \"#utility.yul\":14603:14756   */\n    tag_159:\n        /* \"#utility.yul\":14706:14749   */\n      tag_323\n        /* \"#utility.yul\":14725:14748   */\n      tag_324\n        /* \"#utility.yul\":14742:14747   */\n      dup3\n        /* \"#utility.yul\":14725:14748   */\n      tag_157\n      jump\t// in\n    tag_324:\n        /* \"#utility.yul\":14706:14749   */\n      tag_158\n      jump\t// in\n    tag_323:\n        /* \"#utility.yul\":14701:14704   */\n      dup3\n        /* \"#utility.yul\":14694:14750   */\n      mstore\n        /* \"#utility.yul\":14603:14756   */\n      pop\n      pop\n      jump\t// out\n        /* \"#utility.yul\":14762:14909   */\n    tag_160:\n        /* \"#utility.yul\":14863:14874   */\n      0x00\n        /* \"#utility.yul\":14900:14903   */\n      dup2\n        /* \"#utility.yul\":14885:14903   */\n      swap1\n      pop\n        /* \"#utility.yul\":14762:14909   */\n      swap3\n      swap2\n      pop\n      pop\n      jump\t// out\n        /* \"#utility.yul\":14915:15301   */\n    tag_161:\n        /* \"#utility.yul\":15019:15022   */\n      0x00\n        /* \"#utility.yul\":15047:15085   */\n      tag_327\n        /* \"#utility.yul\":15079:15084   */\n      dup3\n        /* \"#utility.yul\":15047:15085   */\n      tag_137\n      jump\t// in\n    tag_327:\n        /* \"#utility.yul\":15101:15189   */\n      tag_328\n        /* \"#utility.yul\":15182:15188   */\n      dup2\n        /* \"#utility.yul\":15177:15180   */\n      dup6\n        /* \"#utility.yul\":15101:15189   */\n      tag_160\n      jump\t// in\n    tag_328:\n        /* \"#utility.yul\":15094:15189   */\n      swap4\n      pop\n        /* \"#utility.yul\":15198:15263   */\n      tag_329\n        /* \"#utility.yul\":15256:15262   */\n      dup2\n        /* \"#utility.yul\":15251:15254   */\n      dup6\n        /* \"#utility.yul\":15244:15248   */\n      0x20\n        /* \"#utility.yul\":15237:15242   */\n      dup7\n        /* \"#utility.yul\":15233:15249   */\n      add\n        /* \"#utility.yul\":15198:15263   */\n      tag_139\n      jump\t// in\n    tag_329:\n        /* \"#utility.yul\":15288:15294   */\n      dup1\n        /* \"#utility.yul\":15283:15286   */\n      dup5\n        /* \"#utility.yul\":15279:15295   */\n      add\n        /* \"#utility.yul\":15272:15295   */\n      swap2\n      pop\n        /* \"#utility.yul\":15023:15301   */\n      pop\n        /* \"#utility.yul\":14915:15301   */\n      swap3\n      swap2\n      pop\n      pop\n      jump\t// out\n        /* \"#utility.yul\":15307:15714   */\n    tag_73:\n        /* \"#utility.yul\":15463:15466   */\n      0x00\n        /* \"#utility.yul\":15478:15551   */\n      tag_331\n        /* \"#utility.yul\":15547:15550   */\n      dup3\n        /* \"#utility.yul\":15538:15544   */\n      dup6\n        /* \"#utility.yul\":15478:15551   */\n      tag_159\n      jump\t// in\n    tag_331:\n        /* \"#utility.yul\":15576:15577   */\n      0x04\n        /* \"#utility.yul\":15571:15574   */\n      dup3\n        /* \"#utility.yul\":15567:15578   */\n      add\n        /* \"#utility.yul\":15560:15578   */\n      swap2\n      pop\n        /* \"#utility.yul\":15595:15688   */\n      tag_332\n        /* \"#utility.yul\":15684:15687   */\n      dup3\n        /* \"#utility.yul\":15675:15681   */\n      dup5\n        /* \"#utility.yul\":15595:15688   */\n      tag_161\n      jump\t// in\n    tag_332:\n        /* \"#utility.yul\":15588:15688   */\n      swap2\n      pop\n        /* \"#utility.yul\":15705:15708   */\n      dup2\n        /* \"#utility.yul\":15698:15708   */\n      swap1\n      pop\n        /* \"#utility.yul\":15307:15714   */\n      swap4\n      swap3\n      pop\n      pop\n      pop\n      jump\t// out\n        /* \"#utility.yul\":15720:15991   */\n    tag_75:\n        /* \"#utility.yul\":15850:15853   */\n      0x00\n        /* \"#utility.yul\":15872:15965   */\n      tag_334\n        /* \"#utility.yul\":15961:15964   */\n      dup3\n        /* \"#utility.yul\":15952:15958   */\n      dup5\n        /* \"#utility.yul\":15872:15965   */\n      tag_161\n      jump\t// in\n    tag_334:\n        /* \"#utility.yul\":15865:15965   */\n      swap2\n      pop\n        /* \"#utility.yul\":15982:15985   */\n      dup2\n        /* \"#utility.yul\":15975:15985   */\n      swap1\n      pop\n        /* \"#utility.yul\":15720:15991   */\n      swap3\n      swap2\n      pop\n      pop\n      jump\t// out\n        /* \"#utility.yul\":15997:16176   */\n    tag_162:\n        /* \"#utility.yul\":16137:16168   */\n      0x657865637574655472616e73616374696f6e3a2063616c6c206661696c000000\n        /* \"#utility.yul\":16133:16134   */\n      0x00\n        /* \"#utility.yul\":16125:16131   */\n      dup3\n        /* \"#utility.yul\":16121:16135   */\n      add\n        /* \"#utility.yul\":16114:16169   */\n      mstore\n        /* \"#utility.yul\":15997:16176   */\n      pop\n      jump\t// out\n        /* \"#utility.yul\":16182:16548   */\n    tag_163:\n        /* \"#utility.yul\":16324:16327   */\n      0x00\n        /* \"#utility.yul\":16345:16412   */\n      tag_337\n        /* \"#utility.yul\":16409:16411   */\n      0x1d\n        /* \"#utility.yul\":16404:16407   */\n      dup4\n        /* \"#utility.yul\":16345:16412   */\n      tag_148\n      jump\t// in\n    tag_337:\n        /* \"#utility.yul\":16338:16412   */\n      swap2\n      pop\n        /* \"#utility.yul\":16421:16514   */\n      tag_338\n        /* \"#utility.yul\":16510:16513   */\n      dup3\n        /* \"#utility.yul\":16421:16514   */\n      tag_162\n      jump\t// in\n    tag_338:\n        /* \"#utility.yul\":16539:16541   */\n      0x20\n        /* \"#utility.yul\":16534:16537   */\n      dup3\n        /* \"#utility.yul\":16530:16542   */\n      add\n        /* \"#utility.yul\":16523:16542   */\n      swap1\n      pop\n        /* \"#utility.yul\":16182:16548   */\n      swap2\n      swap1\n      pop\n      jump\t// out\n        /* \"#utility.yul\":16554:16973   */\n    tag_81:\n        /* \"#utility.yul\":16720:16724   */\n      0x00\n        /* \"#utility.yul\":16758:16760   */\n      0x20\n        /* \"#utility.yul\":16747:16756   */\n      dup3\n        /* \"#utility.yul\":16743:16761   */\n      add\n        /* \"#utility.yul\":16735:16761   */\n      swap1\n      pop\n        /* \"#utility.yul\":16807:16816   */\n      dup2\n        /* \"#utility.yul\":16801:16805   */\n      dup2\n        /* \"#utility.yul\":16797:16817   */\n      sub\n        /* \"#utility.yul\":16793:16794   */\n      0x00\n        /* \"#utility.yul\":16782:16791   */\n      dup4\n        /* \"#utility.yul\":16778:16795   */\n      add\n        /* \"#utility.yul\":16771:16818   */\n      mstore\n        /* \"#utility.yul\":16835:16966   */\n      tag_340\n        /* \"#utility.yul\":16961:16965   */\n      dup2\n        /* \"#utility.yul\":16835:16966   */\n      tag_163\n      jump\t// in\n    tag_340:\n        /* \"#utility.yul\":16827:16966   */\n      swap1\n      pop\n        /* \"#utility.yul\":16554:16973   */\n      swap2\n      swap1\n      pop\n      jump\t// out\n        /* \"#utility.yul\":16979:17908   */\n    tag_83:\n        /* \"#utility.yul\":17240:17244   */\n      0x00\n        /* \"#utility.yul\":17278:17281   */\n      0xa0\n        /* \"#utility.yul\":17267:17276   */\n      dup3\n        /* \"#utility.yul\":17263:17282   */\n      add\n        /* \"#utility.yul\":17255:17282   */\n      swap1\n      pop\n        /* \"#utility.yul\":17292:17363   */\n      tag_342\n        /* \"#utility.yul\":17360:17361   */\n      0x00\n        /* \"#utility.yul\":17349:17358   */\n      dup4\n        /* \"#utility.yul\":17345:17362   */\n      add\n        /* \"#utility.yul\":17336:17342   */\n      dup9\n        /* \"#utility.yul\":17292:17363   */\n      tag_141\n      jump\t// in\n    tag_342:\n        /* \"#utility.yul\":17410:17419   */\n      dup2\n        /* \"#utility.yul\":17404:17408   */\n      dup2\n        /* \"#utility.yul\":17400:17420   */\n      sub\n        /* \"#utility.yul\":17395:17397   */\n      0x20\n        /* \"#utility.yul\":17384:17393   */\n      dup4\n        /* \"#utility.yul\":17380:17398   */\n      add\n        /* \"#utility.yul\":17373:17421   */\n      mstore\n        /* \"#utility.yul\":17438:17516   */\n      tag_343\n        /* \"#utility.yul\":17511:17515   */\n      dup2\n        /* \"#utility.yul\":17502:17508   */\n      dup8\n        /* \"#utility.yul\":17438:17516   */\n      tag_149\n      jump\t// in\n    tag_343:\n        /* \"#utility.yul\":17430:17516   */\n      swap1\n      pop\n        /* \"#utility.yul\":17563:17572   */\n      dup2\n        /* \"#utility.yul\":17557:17561   */\n      dup2\n        /* \"#utility.yul\":17553:17573   */\n      sub\n        /* \"#utility.yul\":17548:17550   */\n      0x40\n        /* \"#utility.yul\":17537:17546   */\n      dup4\n        /* \"#utility.yul\":17533:17551   */\n      add\n        /* \"#utility.yul\":17526:17574   */\n      mstore\n        /* \"#utility.yul\":17591:17667   */\n      tag_344\n        /* \"#utility.yul\":17662:17666   */\n      dup2\n        /* \"#utility.yul\":17653:17659   */\n      dup7\n        /* \"#utility.yul\":17591:17667   */\n      tag_140\n      jump\t// in\n    tag_344:\n        /* \"#utility.yul\":17583:17667   */\n      swap1\n      pop\n        /* \"#utility.yul\":17677:17749   */\n      tag_345\n        /* \"#utility.yul\":17745:17747   */\n      0x60\n        /* \"#utility.yul\":17734:17743   */\n      dup4\n        /* \"#utility.yul\":17730:17748   */\n      add\n        /* \"#utility.yul\":17721:17727   */\n      dup6\n        /* \"#utility.yul\":17677:17749   */\n      tag_141\n      jump\t// in\n    tag_345:\n        /* \"#utility.yul\":17797:17806   */\n      dup2\n        /* \"#utility.yul\":17791:17795   */\n      dup2\n        /* \"#utility.yul\":17787:17807   */\n      sub\n        /* \"#utility.yul\":17781:17784   */\n      0x80\n        /* \"#utility.yul\":17770:17779   */\n      dup4\n        /* \"#utility.yul\":17766:17785   */\n      add\n        /* \"#utility.yul\":17759:17808   */\n      mstore\n        /* \"#utility.yul\":17825:17901   */\n      tag_346\n        /* \"#utility.yul\":17896:17900   */\n      dup2\n        /* \"#utility.yul\":17887:17893   */\n      dup5\n        /* \"#utility.yul\":17825:17901   */\n      tag_140\n      jump\t// in\n    tag_346:\n        /* \"#utility.yul\":17817:17901   */\n      swap1\n      pop\n        /* \"#utility.yul\":16979:17908   */\n      swap7\n      swap6\n      pop\n      pop\n      pop\n      pop\n      pop\n      pop\n      jump\t// out\n        /* \"#utility.yul\":17914:18149   */\n    tag_164:\n        /* \"#utility.yul\":18054:18088   */\n      0x71756575655472616e73616374696f6e3a206578656375746554696d65206d75\n        /* \"#utility.yul\":18050:18051   */\n      0x00\n        /* \"#utility.yul\":18042:18048   */\n      dup3\n        /* \"#utility.yul\":18038:18052   */\n      add\n        /* \"#utility.yul\":18031:18089   */\n      mstore\n        /* \"#utility.yul\":18123:18141   */\n      0x737420736174697366792064656c617900000000000000000000000000000000\n        /* \"#utility.yul\":18118:18120   */\n      0x20\n        /* \"#utility.yul\":18110:18116   */\n      dup3\n        /* \"#utility.yul\":18106:18121   */\n      add\n        /* \"#utility.yul\":18099:18142   */\n      mstore\n        /* \"#utility.yul\":17914:18149   */\n      pop\n      jump\t// out\n        /* \"#utility.yul\":18155:18521   */\n    tag_165:\n        /* \"#utility.yul\":18297:18300   */\n      0x00\n        /* \"#utility.yul\":18318:18385   */\n      tag_349\n        /* \"#utility.yul\":18382:18384   */\n      0x30\n        /* \"#utility.yul\":18377:18380   */\n      dup4\n        /* \"#utility.yul\":18318:18385   */\n      tag_148\n      jump\t// in\n    tag_349:\n        /* \"#utility.yul\":18311:18385   */\n      swap2\n      pop\n        /* \"#utility.yul\":18394:18487   */\n      tag_350\n        /* \"#utility.yul\":18483:18486   */\n      dup3\n        /* \"#utility.yul\":18394:18487   */\n      tag_164\n      jump\t// in\n    tag_350:\n        /* \"#utility.yul\":18512:18514   */\n      0x40\n        /* \"#utility.yul\":18507:18510   */\n      dup3\n        /* \"#utility.yul\":18503:18515   */\n      add\n        /* \"#utility.yul\":18496:18515   */\n      swap1\n      pop\n        /* \"#utility.yul\":18155:18521   */\n      swap2\n      swap1\n      pop\n      jump\t// out\n        /* \"#utility.yul\":18527:18946   */\n    tag_91:\n        /* \"#utility.yul\":18693:18697   */\n      0x00\n        /* \"#utility.yul\":18731:18733   */\n      0x20\n        /* \"#utility.yul\":18720:18729   */\n      dup3\n        /* \"#utility.yul\":18716:18734   */\n      add\n        /* \"#utility.yul\":18708:18734   */\n      swap1\n      pop\n        /* \"#utility.yul\":18780:18789   */\n      dup2\n        /* \"#utility.yul\":18774:18778   */\n      dup2\n        /* \"#utility.yul\":18770:18790   */\n      sub\n        /* \"#utility.yul\":18766:18767   */\n      0x00\n        /* \"#utility.yul\":18755:18764   */\n      dup4\n        /* \"#utility.yul\":18751:18768   */\n      add\n        /* \"#utility.yul\":18744:18791   */\n      mstore\n        /* \"#utility.yul\":18808:18939   */\n      tag_352\n        /* \"#utility.yul\":18934:18938   */\n      dup2\n        /* \"#utility.yul\":18808:18939   */\n      tag_165\n      jump\t// in\n    tag_352:\n        /* \"#utility.yul\":18800:18939   */\n      swap1\n      pop\n        /* \"#utility.yul\":18527:18946   */\n      swap2\n      swap1\n      pop\n      jump\t// out\n        /* \"#utility.yul\":18952:19683   */\n    tag_94:\n        /* \"#utility.yul\":19167:19171   */\n      0x00\n        /* \"#utility.yul\":19205:19208   */\n      0x80\n        /* \"#utility.yul\":19194:19203   */\n      dup3\n        /* \"#utility.yul\":19190:19209   */\n      add\n        /* \"#utility.yul\":19182:19209   */\n      swap1\n      pop\n        /* \"#utility.yul\":19219:19290   */\n      tag_354\n        /* \"#utility.yul\":19287:19288   */\n      0x00\n        /* \"#utility.yul\":19276:19285   */\n      dup4\n        /* \"#utility.yul\":19272:19289   */\n      add\n        /* \"#utility.yul\":19263:19269   */\n      dup8\n        /* \"#utility.yul\":19219:19290   */\n      tag_141\n      jump\t// in\n    tag_354:\n        /* \"#utility.yul\":19337:19346   */\n      dup2\n        /* \"#utility.yul\":19331:19335   */\n      dup2\n        /* \"#utility.yul\":19327:19347   */\n      sub\n        /* \"#utility.yul\":19322:19324   */\n      0x20\n        /* \"#utility.yul\":19311:19320   */\n      dup4\n        /* \"#utility.yul\":19307:19325   */\n      add\n        /* \"#utility.yul\":19300:19348   */\n      mstore\n        /* \"#utility.yul\":19365:19443   */\n      tag_355\n        /* \"#utility.yul\":19438:19442   */\n      dup2\n        /* \"#utility.yul\":19429:19435   */\n      dup7\n        /* \"#utility.yul\":19365:19443   */\n      tag_149\n      jump\t// in\n    tag_355:\n        /* \"#utility.yul\":19357:19443   */\n      swap1\n      pop\n        /* \"#utility.yul\":19490:19499   */\n      dup2\n        /* \"#utility.yul\":19484:19488   */\n      dup2\n        /* \"#utility.yul\":19480:19500   */\n      sub\n        /* \"#utility.yul\":19475:19477   */\n      0x40\n        /* \"#utility.yul\":19464:19473   */\n      dup4\n        /* \"#utility.yul\":19460:19478   */\n      add\n        /* \"#utility.yul\":19453:19501   */\n      mstore\n        /* \"#utility.yul\":19518:19594   */\n      tag_356\n        /* \"#utility.yul\":19589:19593   */\n      dup2\n        /* \"#utility.yul\":19580:19586   */\n      dup6\n        /* \"#utility.yul\":19518:19594   */\n      tag_140\n      jump\t// in\n    tag_356:\n        /* \"#utility.yul\":19510:19594   */\n      swap1\n      pop\n        /* \"#utility.yul\":19604:19676   */\n      tag_357\n        /* \"#utility.yul\":19672:19674   */\n      0x60\n        /* \"#utility.yul\":19661:19670   */\n      dup4\n        /* \"#utility.yul\":19657:19675   */\n      add\n        /* \"#utility.yul\":19648:19654   */\n      dup5\n        /* \"#utility.yul\":19604:19676   */\n      tag_141\n      jump\t// in\n    tag_357:\n        /* \"#utility.yul\":18952:19683   */\n      swap6\n      swap5\n      pop\n      pop\n      pop\n      pop\n      pop\n      jump\t// out\n        /* \"#utility.yul\":19689:19917   */\n    tag_166:\n        /* \"#utility.yul\":19829:19863   */\n      0x63616e63656c5472616e73616374696f6e3a205472616e73616374696f6e206e\n        /* \"#utility.yul\":19825:19826   */\n      0x00\n        /* \"#utility.yul\":19817:19823   */\n      dup3\n        /* \"#utility.yul\":19813:19827   */\n      add\n        /* \"#utility.yul\":19806:19864   */\n      mstore\n        /* \"#utility.yul\":19898:19909   */\n      0x6f74207175657565640000000000000000000000000000000000000000000000\n        /* \"#utility.yul\":19893:19895   */\n      0x20\n        /* \"#utility.yul\":19885:19891   */\n      dup3\n        /* \"#utility.yul\":19881:19896   */\n      add\n        /* \"#utility.yul\":19874:19910   */\n      mstore\n        /* \"#utility.yul\":19689:19917   */\n      pop\n      jump\t// out\n        /* \"#utility.yul\":19923:20289   */\n    tag_167:\n        /* \"#utility.yul\":20065:20068   */\n      0x00\n        /* \"#utility.yul\":20086:20153   */\n      tag_360\n        /* \"#utility.yul\":20150:20152   */\n      0x29\n        /* \"#utility.yul\":20145:20148   */\n      dup4\n        /* \"#utility.yul\":20086:20153   */\n      tag_148\n      jump\t// in\n    tag_360:\n        /* \"#utility.yul\":20079:20153   */\n      swap2\n      pop\n        /* \"#utility.yul\":20162:20255   */\n      tag_361\n        /* \"#utility.yul\":20251:20254   */\n      dup3\n        /* \"#utility.yul\":20162:20255   */\n      tag_166\n      jump\t// in\n    tag_361:\n        /* \"#utility.yul\":20280:20282   */\n      0x40\n        /* \"#utility.yul\":20275:20278   */\n      dup3\n        /* \"#utility.yul\":20271:20283   */\n      add\n        /* \"#utility.yul\":20264:20283   */\n      swap1\n      pop\n        /* \"#utility.yul\":19923:20289   */\n      swap2\n      swap1\n      pop\n      jump\t// out\n        /* \"#utility.yul\":20295:20714   */\n    tag_101:\n        /* \"#utility.yul\":20461:20465   */\n      0x00\n        /* \"#utility.yul\":20499:20501   */\n      0x20\n        /* \"#utility.yul\":20488:20497   */\n      dup3\n        /* \"#utility.yul\":20484:20502   */\n      add\n        /* \"#utility.yul\":20476:20502   */\n      swap1\n      pop\n        /* \"#utility.yul\":20548:20557   */\n      dup2\n        /* \"#utility.yul\":20542:20546   */\n      dup2\n        /* \"#utility.yul\":20538:20558   */\n      sub\n        /* \"#utility.yul\":20534:20535   */\n      0x00\n        /* \"#utility.yul\":20523:20532   */\n      dup4\n        /* \"#utility.yul\":20519:20536   */\n      add\n        /* \"#utility.yul\":20512:20559   */\n      mstore\n        /* \"#utility.yul\":20576:20707   */\n      tag_363\n        /* \"#utility.yul\":20702:20706   */\n      dup2\n        /* \"#utility.yul\":20576:20707   */\n      tag_167\n      jump\t// in\n    tag_363:\n        /* \"#utility.yul\":20568:20707   */\n      swap1\n      pop\n        /* \"#utility.yul\":20295:20714   */\n      swap2\n      swap1\n      pop\n      jump\t// out\n        /* \"#utility.yul\":20720:20902   */\n    tag_168:\n        /* \"#utility.yul\":20860:20894   */\n      0x466f7262696464656e3a2043616c6c6572206e6f742074696d654c6f636b6572\n        /* \"#utility.yul\":20856:20857   */\n      0x00\n        /* \"#utility.yul\":20848:20854   */\n      dup3\n        /* \"#utility.yul\":20844:20858   */\n      add\n        /* \"#utility.yul\":20837:20895   */\n      mstore\n        /* \"#utility.yul\":20720:20902   */\n      pop\n      jump\t// out\n        /* \"#utility.yul\":20908:21274   */\n    tag_169:\n        /* \"#utility.yul\":21050:21053   */\n      0x00\n        /* \"#utility.yul\":21071:21138   */\n      tag_366\n        /* \"#utility.yul\":21135:21137   */\n      0x20\n        /* \"#utility.yul\":21130:21133   */\n      dup4\n        /* \"#utility.yul\":21071:21138   */\n      tag_148\n      jump\t// in\n    tag_366:\n        /* \"#utility.yul\":21064:21138   */\n      swap2\n      pop\n        /* \"#utility.yul\":21147:21240   */\n      tag_367\n        /* \"#utility.yul\":21236:21239   */\n      dup3\n        /* \"#utility.yul\":21147:21240   */\n      tag_168\n      jump\t// in\n    tag_367:\n        /* \"#utility.yul\":21265:21267   */\n      0x20\n        /* \"#utility.yul\":21260:21263   */\n      dup3\n        /* \"#utility.yul\":21256:21268   */\n      add\n        /* \"#utility.yul\":21249:21268   */\n      swap1\n      pop\n        /* \"#utility.yul\":20908:21274   */\n      swap2\n      swap1\n      pop\n      jump\t// out\n        /* \"#utility.yul\":21280:21699   */\n    tag_105:\n        /* \"#utility.yul\":21446:21450   */\n      0x00\n        /* \"#utility.yul\":21484:21486   */\n      0x20\n        /* \"#utility.yul\":21473:21482   */\n      dup3\n        /* \"#utility.yul\":21469:21487   */\n      add\n        /* \"#utility.yul\":21461:21487   */\n      swap1\n      pop\n        /* \"#utility.yul\":21533:21542   */\n      dup2\n        /* \"#utility.yul\":21527:21531   */\n      dup2\n        /* \"#utility.yul\":21523:21543   */\n      sub\n        /* \"#utility.yul\":21519:21520   */\n      0x00\n        /* \"#utility.yul\":21508:21517   */\n      dup4\n        /* \"#utility.yul\":21504:21521   */\n      add\n        /* \"#utility.yul\":21497:21544   */\n      mstore\n        /* \"#utility.yul\":21561:21692   */\n      tag_369\n        /* \"#utility.yul\":21687:21691   */\n      dup2\n        /* \"#utility.yul\":21561:21692   */\n      tag_169\n      jump\t// in\n    tag_369:\n        /* \"#utility.yul\":21553:21692   */\n      swap1\n      pop\n        /* \"#utility.yul\":21280:21699   */\n      swap2\n      swap1\n      pop\n      jump\t// out\n        /* \"#utility.yul\":21705:21882   */\n    tag_170:\n        /* \"#utility.yul\":21845:21874   */\n      0x466f7262696464656e3a2041646d696e206e6f74206368616e67650000000000\n        /* \"#utility.yul\":21841:21842   */\n      0x00\n        /* \"#utility.yul\":21833:21839   */\n      dup3\n        /* \"#utility.yul\":21829:21843   */\n      add\n        /* \"#utility.yul\":21822:21875   */\n      mstore\n        /* \"#utility.yul\":21705:21882   */\n      pop\n      jump\t// out\n        /* \"#utility.yul\":21888:22254   */\n    tag_171:\n        /* \"#utility.yul\":22030:22033   */\n      0x00\n        /* \"#utility.yul\":22051:22118   */\n      tag_372\n        /* \"#utility.yul\":22115:22117   */\n      0x1b\n        /* \"#utility.yul\":22110:22113   */\n      dup4\n        /* \"#utility.yul\":22051:22118   */\n      tag_148\n      jump\t// in\n    tag_372:\n        /* \"#utility.yul\":22044:22118   */\n      swap2\n      pop\n        /* \"#utility.yul\":22127:22220   */\n      tag_373\n        /* \"#utility.yul\":22216:22219   */\n      dup3\n        /* \"#utility.yul\":22127:22220   */\n      tag_170\n      jump\t// in\n    tag_373:\n        /* \"#utility.yul\":22245:22247   */\n      0x20\n        /* \"#utility.yul\":22240:22243   */\n      dup3\n        /* \"#utility.yul\":22236:22248   */\n      add\n        /* \"#utility.yul\":22229:22248   */\n      swap1\n      pop\n        /* \"#utility.yul\":21888:22254   */\n      swap2\n      swap1\n      pop\n      jump\t// out\n        /* \"#utility.yul\":22260:22679   */\n    tag_109:\n        /* \"#utility.yul\":22426:22430   */\n      0x00\n        /* \"#utility.yul\":22464:22466   */\n      0x20\n        /* \"#utility.yul\":22453:22462   */\n      dup3\n        /* \"#utility.yul\":22449:22467   */\n      add\n        /* \"#utility.yul\":22441:22467   */\n      swap1\n      pop\n        /* \"#utility.yul\":22513:22522   */\n      dup2\n        /* \"#utility.yul\":22507:22511   */\n      dup2\n        /* \"#utility.yul\":22503:22523   */\n      sub\n        /* \"#utility.yul\":22499:22500   */\n      0x00\n        /* \"#utility.yul\":22488:22497   */\n      dup4\n        /* \"#utility.yul\":22484:22501   */\n      add\n        /* \"#utility.yul\":22477:22524   */\n      mstore\n        /* \"#utility.yul\":22541:22672   */\n      tag_375\n        /* \"#utility.yul\":22667:22671   */\n      dup2\n        /* \"#utility.yul\":22541:22672   */\n      tag_171\n      jump\t// in\n    tag_375:\n        /* \"#utility.yul\":22533:22672   */\n      swap1\n      pop\n        /* \"#utility.yul\":22260:22679   */\n      swap2\n      swap1\n      pop\n      jump\t// out\n        /* \"#utility.yul\":22685:23017   */\n    tag_111:\n        /* \"#utility.yul\":22806:22810   */\n      0x00\n        /* \"#utility.yul\":22844:22846   */\n      0x40\n        /* \"#utility.yul\":22833:22842   */\n      dup3\n        /* \"#utility.yul\":22829:22847   */\n      add\n        /* \"#utility.yul\":22821:22847   */\n      swap1\n      pop\n        /* \"#utility.yul\":22857:22928   */\n      tag_377\n        /* \"#utility.yul\":22925:22926   */\n      0x00\n        /* \"#utility.yul\":22914:22923   */\n      dup4\n        /* \"#utility.yul\":22910:22927   */\n      add\n        /* \"#utility.yul\":22901:22907   */\n      dup6\n        /* \"#utility.yul\":22857:22928   */\n      tag_146\n      jump\t// in\n    tag_377:\n        /* \"#utility.yul\":22938:23010   */\n      tag_378\n        /* \"#utility.yul\":23006:23008   */\n      0x20\n        /* \"#utility.yul\":22995:23004   */\n      dup4\n        /* \"#utility.yul\":22991:23009   */\n      add\n        /* \"#utility.yul\":22982:22988   */\n      dup5\n        /* \"#utility.yul\":22938:23010   */\n      tag_146\n      jump\t// in\n    tag_378:\n        /* \"#utility.yul\":22685:23017   */\n      swap4\n      swap3\n      pop\n      pop\n      pop\n      jump\t// out\n\n    auxdata: 0xa2646970667358221220b8852ded2648ed83ccf7b6c38be64275218400e931b4c845b74c8fe69b83f09c64736f6c634300081a0033\n}\n",
				"bytecode": {
					"linkReferences": {},
					"object": "6080604052348015600e575f80fd5b506040516115fe3803806115fe8339818101604052810190602e919060ab565b80600181905550335f806101000a81548173ffffffffffffffffffffffffffffffffffffffff021916908373ffffffffffffffffffffffffffffffffffffffff1602179055505060d1565b5f80fd5b5f819050919050565b608d81607d565b81146096575f80fd5b50565b5f8151905060a5816086565b92915050565b5f6020828403121560bd5760bc6079565b5b5f60c8848285016099565b91505092915050565b611520806100de5f395ff3fe60806040526004361061007a575f3560e01c806370ba33391161004d57806370ba33391461013c5780638f28397014610164578063f2b065371461018c578063f851a440146101c85761007a565b806304a715761461007e5780630825f38f146100ba5780633a66f901146100f65780636a42b8f814610112575b5f80fd5b348015610089575f80fd5b506100a4600480360381019061009f9190610bfe565b6101f2565b6040516100b19190610cc5565b60405180910390f35b3480156100c5575f80fd5b506100e060048036038101906100db9190610bfe565b61022d565b6040516100ed9190610d3e565b60405180910390f35b610110600480360381019061010b9190610bfe565b6104f1565b005b34801561011d575f80fd5b50610126610663565b6040516101339190610d6d565b60405180910390f35b348015610147575f80fd5b50610162600480360381019061015d9190610db0565b610669565b005b34801561016f575f80fd5b5061018a60048036038101906101859190610ddb565b6107ab565b005b348015610197575f80fd5b506101b260048036038101906101ad9190610db0565b610946565b6040516101bf9190610e20565b60405180910390f35b3480156101d3575f80fd5b506101dc610963565b6040516101e99190610e48565b60405180910390f35b5f858585858560405160200161020c959493929190610eb3565b60405160208183030381529060405280519060200120905095945050505050565b60605f8054906101000a900473ffffffffffffffffffffffffffffffffffffffff1673ffffffffffffffffffffffffffffffffffffffff163373ffffffffffffffffffffffffffffffffffffffff16146102bc576040517f08c379a00000000000000000000000000000000000000000000000000000000081526004016102b390610f5c565b60405180910390fd5b600154426102ca9190610fa7565b821161030b576040517f08c379a00000000000000000000000000000000000000000000000000000000081526004016103029061104a565b60405180910390fd5b5f61031933878787876101f2565b905060025f8281526020019081526020015f205f9054906101000a900460ff16610378576040517f08c379a000000000000000000000000000000000000000000000000000000000815260040161036f906110d8565b60405180910390fd5b5f60025f8381526020019081526020015f205f6101000a81548160ff02191690831515021790555060605f8651036103b2578490506103de565b8580519060200120856040516020016103cc92919061117b565b60405160208183030381529060405290505b5f808973ffffffffffffffffffffffffffffffffffffffff16898460405161040691906111a2565b5f6040518083038185875af1925050503d805f8114610440576040519150601f19603f3d011682016040523d82523d5f602084013e610445565b606091505b50915091508161048a576040517f08c379a000000000000000000000000000000000000000000000000000000000815260040161048190611202565b60405180910390fd5b838a73ffffffffffffffffffffffffffffffffffffffff167f52a140ea1bb82a1c275bde2ab8a1d8ea97f6f6274533d18df8675100d6dd3fd48b8b8b8b876040516104d9959493929190611220565b60405180910390a38094505050505095945050505050565b5f8054906101000a900473ffffffffffffffffffffffffffffffffffffffff1673ffffffffffffffffffffffffffffffffffffffff163373ffffffffffffffffffffffffffffffffffffffff161461057e576040517f08c379a000000000000000000000000000000000000000000000000000000000815260040161057590610f5c565b60405180910390fd5b6001544261058c9190610fa7565b81116105cd576040517f08c379a00000000000000000000000000000000000000000000000000000000081526004016105c4906112f6565b60405180910390fd5b5f6105db86868686866101f2565b9050600160025f8381526020019081526020015f205f6101000a81548160ff021916908315150217905550808673ffffffffffffffffffffffffffffffffffffffff167fd03fffbb21d826401523fdbe307b708edda56f04a900898c627aca66e45a2ffb878787876040516106539493929190611314565b60405180910390a3505050505050565b60015481565b5f8054906101000a900473ffffffffffffffffffffffffffffffffffffffff1673ffffffffffffffffffffffffffffffffffffffff163373ffffffffffffffffffffffffffffffffffffffff16146106f6576040517f08c379a00000000000000000000000000000000000000000000000000000000081526004016106ed90610f5c565b60405180910390fd5b60025f8281526020019081526020015f205f9054906101000a900460ff16610753576040517f08c379a000000000000000000000000000000000000000000000000000000000815260040161074a906113d5565b60405180910390fd5b5f60025f8381526020019081526020015f205f6101000a81548160ff021916908315150217905550807fbb8e18922d3abb7d8aea19f1b55d85b0ee985798c196aad6d05c58dfdb7c98af60405160405180910390a250565b3073ffffffffffffffffffffffffffffffffffffffff163373ffffffffffffffffffffffffffffffffffffffff1614610819576040517f08c379a00000000000000000000000000000000000000000000000000000000081526004016108109061143d565b60405180910390fd5b8073ffffffffffffffffffffffffffffffffffffffff165f8054906101000a900473ffffffffffffffffffffffffffffffffffffffff1673ffffffffffffffffffffffffffffffffffffffff16036108a6576040517f08c379a000000000000000000000000000000000000000000000000000000000815260040161089d906114a5565b60405180910390fd5b5f805f9054906101000a900473ffffffffffffffffffffffffffffffffffffffff169050815f806101000a81548173ffffffffffffffffffffffffffffffffffffffff021916908373ffffffffffffffffffffffffffffffffffffffff1602179055507f7e644d79422f17c01e4894b5f4f588d331ebfa28653d42ae832dc59e38c9798f828260405161093a9291906114c3565b60405180910390a15050565b6002602052805f5260405f205f915054906101000a900460ff1681565b5f8054906101000a900473ffffffffffffffffffffffffffffffffffffffff1681565b5f604051905090565b5f80fd5b5f80fd5b5f73ffffffffffffffffffffffffffffffffffffffff82169050919050565b5f6109c082610997565b9050919050565b6109d0816109b6565b81146109da575f80fd5b50565b5f813590506109eb816109c7565b92915050565b5f819050919050565b610a03816109f1565b8114610a0d575f80fd5b50565b5f81359050610a1e816109fa565b92915050565b5f80fd5b5f80fd5b5f601f19601f8301169050919050565b7f4e487b71000000000000000000000000000000000000000000000000000000005f52604160045260245ffd5b610a7282610a2c565b810181811067ffffffffffffffff82111715610a9157610a90610a3c565b5b80604052505050565b5f610aa3610986565b9050610aaf8282610a69565b919050565b5f67ffffffffffffffff821115610ace57610acd610a3c565b5b610ad782610a2c565b9050602081019050919050565b828183375f83830152505050565b5f610b04610aff84610ab4565b610a9a565b905082815260208101848484011115610b2057610b1f610a28565b5b610b2b848285610ae4565b509392505050565b5f82601f830112610b4757610b46610a24565b5b8135610b57848260208601610af2565b91505092915050565b5f67ffffffffffffffff821115610b7a57610b79610a3c565b5b610b8382610a2c565b9050602081019050919050565b5f610ba2610b9d84610b60565b610a9a565b905082815260208101848484011115610bbe57610bbd610a28565b5b610bc9848285610ae4565b509392505050565b5f82601f830112610be557610be4610a24565b5b8135610bf5848260208601610b90565b91505092915050565b5f805f805f60a08688031215610c1757610c1661098f565b5b5f610c24888289016109dd565b9550506020610c3588828901610a10565b945050604086013567ffffffffffffffff811115610c5657610c55610993565b5b610c6288828901610b33565b935050606086013567ffffffffffffffff811115610c8357610c82610993565b5b610c8f88828901610bd1565b9250506080610ca088828901610a10565b9150509295509295909350565b5f819050919050565b610cbf81610cad565b82525050565b5f602082019050610cd85f830184610cb6565b92915050565b5f81519050919050565b5f82825260208201905092915050565b8281835e5f83830152505050565b5f610d1082610cde565b610d1a8185610ce8565b9350610d2a818560208601610cf8565b610d3381610a2c565b840191505092915050565b5f6020820190508181035f830152610d568184610d06565b905092915050565b610d67816109f1565b82525050565b5f602082019050610d805f830184610d5e565b92915050565b610d8f81610cad565b8114610d99575f80fd5b50565b5f81359050610daa81610d86565b92915050565b5f60208284031215610dc557610dc461098f565b5b5f610dd284828501610d9c565b91505092915050565b5f60208284031215610df057610def61098f565b5b5f610dfd848285016109dd565b91505092915050565b5f8115159050919050565b610e1a81610e06565b82525050565b5f602082019050610e335f830184610e11565b92915050565b610e42816109b6565b82525050565b5f602082019050610e5b5f830184610e39565b92915050565b5f81519050919050565b5f82825260208201905092915050565b5f610e8582610e61565b610e8f8185610e6b565b9350610e9f818560208601610cf8565b610ea881610a2c565b840191505092915050565b5f60a082019050610ec65f830188610e39565b610ed36020830187610d5e565b8181036040830152610ee58186610e7b565b90508181036060830152610ef98185610d06565b9050610f086080830184610d5e565b9695505050505050565b7f466f7262696464656e3a2043616c6c6572206e6f742061646d696e00000000005f82015250565b5f610f46601b83610e6b565b9150610f5182610f12565b602082019050919050565b5f6020820190508181035f830152610f7381610f3a565b9050919050565b7f4e487b71000000000000000000000000000000000000000000000000000000005f52601160045260245ffd5b5f610fb1826109f1565b9150610fbc836109f1565b9250828201905080821115610fd457610fd3610f7a565b5b92915050565b7f657865637574655472616e73616374696f6e3a206578656375746554696d65205f8201527f6d75737420736174697366792064656c61790000000000000000000000000000602082015250565b5f611034603283610e6b565b915061103f82610fda565b604082019050919050565b5f6020820190508181035f83015261106181611028565b9050919050565b7f657865637574655472616e73616374696f6e3a205472616e73616374696f6e205f8201527f6e6f742071756575656400000000000000000000000000000000000000000000602082015250565b5f6110c2602a83610e6b565b91506110cd82611068565b604082019050919050565b5f6020820190508181035f8301526110ef816110b6565b9050919050565b5f7fffffffff0000000000000000000000000000000000000000000000000000000082169050919050565b5f819050919050565b61113b611136826110f6565b611121565b82525050565b5f81905092915050565b5f61115582610cde565b61115f8185611141565b935061116f818560208601610cf8565b80840191505092915050565b5f611186828561112a565b600482019150611196828461114b565b91508190509392505050565b5f6111ad828461114b565b915081905092915050565b7f657865637574655472616e73616374696f6e3a2063616c6c206661696c0000005f82015250565b5f6111ec601d83610e6b565b91506111f7826111b8565b602082019050919050565b5f6020820190508181035f830152611219816111e0565b9050919050565b5f60a0820190506112335f830188610d5e565b81810360208301526112458187610e7b565b905081810360408301526112598186610d06565b90506112686060830185610d5e565b818103608083015261127a8184610d06565b90509695505050505050565b7f71756575655472616e73616374696f6e3a206578656375746554696d65206d755f8201527f737420736174697366792064656c617900000000000000000000000000000000602082015250565b5f6112e0603083610e6b565b91506112eb82611286565b604082019050919050565b5f6020820190508181035f83015261130d816112d4565b9050919050565b5f6080820190506113275f830187610d5e565b81810360208301526113398186610e7b565b9050818103604083015261134d8185610d06565b905061135c6060830184610d5e565b95945050505050565b7f63616e63656c5472616e73616374696f6e3a205472616e73616374696f6e206e5f8201527f6f74207175657565640000000000000000000000000000000000000000000000602082015250565b5f6113bf602983610e6b565b91506113ca82611365565b604082019050919050565b5f6020820190508181035f8301526113ec816113b3565b9050919050565b7f466f7262696464656e3a2043616c6c6572206e6f742074696d654c6f636b65725f82015250565b5f611427602083610e6b565b9150611432826113f3565b602082019050919050565b5f6020820190508181035f8301526114548161141b565b9050919050565b7f466f7262696464656e3a2041646d696e206e6f74206368616e676500000000005f82015250565b5f61148f601b83610e6b565b915061149a8261145b565b602082019050919050565b5f6020820190508181035f8301526114bc81611483565b9050919050565b5f6040820190506114d65f830185610e39565b6114e36020830184610e39565b939250505056fea2646970667358221220b8852ded2648ed83ccf7b6c38be64275218400e931b4c845b74c8fe69b83f09c64736f6c634300081a0033",
					"opcodes": "PUSH1 0x80 PUSH1 0x40 MSTORE CALLVALUE DUP1 ISZERO PUSH1 0xE JUMPI PUSH0 DUP1 REVERT JUMPDEST POP PUSH1 0x40 MLOAD PUSH2 0x15FE CODESIZE SUB DUP1 PUSH2 0x15FE DUP4 CODECOPY DUP2 DUP2 ADD PUSH1 0x40 MSTORE DUP2 ADD SWAP1 PUSH1 0x2E SWAP2 SWAP1 PUSH1 0xAB JUMP JUMPDEST DUP1 PUSH1 0x1 DUP2 SWAP1 SSTORE POP CALLER PUSH0 DUP1 PUSH2 0x100 EXP DUP2 SLOAD DUP2 PUSH20 0xFFFFFFFFFFFFFFFFFFFFFFFFFFFFFFFFFFFFFFFF MUL NOT AND SWAP1 DUP4 PUSH20 0xFFFFFFFFFFFFFFFFFFFFFFFFFFFFFFFFFFFFFFFF AND MUL OR SWAP1 SSTORE POP POP PUSH1 0xD1 JUMP JUMPDEST PUSH0 DUP1 REVERT JUMPDEST PUSH0 DUP2 SWAP1 POP SWAP2 SWAP1 POP JUMP JUMPDEST PUSH1 0x8D DUP2 PUSH1 0x7D JUMP JUMPDEST DUP2 EQ PUSH1 0x96 JUMPI PUSH0 DUP1 REVERT JUMPDEST POP JUMP JUMPDEST PUSH0 DUP2 MLOAD SWAP1 POP PUSH1 0xA5 DUP2 PUSH1 0x86 JUMP JUMPDEST SWAP3 SWAP2 POP POP JUMP JUMPDEST PUSH0 PUSH1 0x20 DUP3 DUP5 SUB SLT ISZERO PUSH1 0xBD JUMPI PUSH1 0xBC PUSH1 0x79 JUMP JUMPDEST JUMPDEST PUSH0 PUSH1 0xC8 DUP5 DUP3 DUP6 ADD PUSH1 0x99 JUMP JUMPDEST SWAP2 POP POP SWAP3 SWAP2 POP POP JUMP JUMPDEST PUSH2 0x1520 DUP1 PUSH2 0xDE PUSH0 CODECOPY PUSH0 RETURN INVALID PUSH1 0x80 PUSH1 0x40 MSTORE PUSH1 0x4 CALLDATASIZE LT PUSH2 0x7A JUMPI PUSH0 CALLDATALOAD PUSH1 0xE0 SHR DUP1 PUSH4 0x70BA3339 GT PUSH2 0x4D JUMPI DUP1 PUSH4 0x70BA3339 EQ PUSH2 0x13C JUMPI DUP1 PUSH4 0x8F283970 EQ PUSH2 0x164 JUMPI DUP1 PUSH4 0xF2B06537 EQ PUSH2 0x18C JUMPI DUP1 PUSH4 0xF851A440 EQ PUSH2 0x1C8 JUMPI PUSH2 0x7A JUMP JUMPDEST DUP1 PUSH4 0x4A71576 EQ PUSH2 0x7E JUMPI DUP1 PUSH4 0x825F38F EQ PUSH2 0xBA JUMPI DUP1 PUSH4 0x3A66F901 EQ PUSH2 0xF6 JUMPI DUP1 PUSH4 0x6A42B8F8 EQ PUSH2 0x112 JUMPI JUMPDEST PUSH0 DUP1 REVERT JUMPDEST CALLVALUE DUP1 ISZERO PUSH2 0x89 JUMPI PUSH0 DUP1 REVERT JUMPDEST POP PUSH2 0xA4 PUSH1 0x4 DUP1 CALLDATASIZE SUB DUP2 ADD SWAP1 PUSH2 0x9F SWAP2 SWAP1 PUSH2 0xBFE JUMP JUMPDEST PUSH2 0x1F2 JUMP JUMPDEST PUSH1 0x40 MLOAD PUSH2 0xB1 SWAP2 SWAP1 PUSH2 0xCC5 JUMP JUMPDEST PUSH1 0x40 MLOAD DUP1 SWAP2 SUB SWAP1 RETURN JUMPDEST CALLVALUE DUP1 ISZERO PUSH2 0xC5 JUMPI PUSH0 DUP1 REVERT JUMPDEST POP PUSH2 0xE0 PUSH1 0x4 DUP1 CALLDATASIZE SUB DUP2 ADD SWAP1 PUSH2 0xDB SWAP2 SWAP1 PUSH2 0xBFE JUMP JUMPDEST PUSH2 0x22D JUMP JUMPDEST PUSH1 0x40 MLOAD PUSH2 0xED SWAP2 SWAP1 PUSH2 0xD3E JUMP JUMPDEST PUSH1 0x40 MLOAD DUP1 SWAP2 SUB SWAP1 RETURN JUMPDEST PUSH2 0x110 PUSH1 0x4 DUP1 CALLDATASIZE SUB DUP2 ADD SWAP1 PUSH2 0x10B SWAP2 SWAP1 PUSH2 0xBFE JUMP JUMPDEST PUSH2 0x4F1 JUMP JUMPDEST STOP JUMPDEST CALLVALUE DUP1 ISZERO PUSH2 0x11D JUMPI PUSH0 DUP1 REVERT JUMPDEST POP PUSH2 0x126 PUSH2 0x663 JUMP JUMPDEST PUSH1 0x40 MLOAD PUSH2 0x133 SWAP2 SWAP1 PUSH2 0xD6D JUMP JUMPDEST PUSH1 0x40 MLOAD DUP1 SWAP2 SUB SWAP1 RETURN JUMPDEST CALLVALUE DUP1 ISZERO PUSH2 0x147 JUMPI PUSH0 DUP1 REVERT JUMPDEST POP PUSH2 0x162 PUSH1 0x4 DUP1 CALLDATASIZE SUB DUP2 ADD SWAP1 PUSH2 0x15D SWAP2 SWAP1 PUSH2 0xDB0 JUMP JUMPDEST PUSH2 0x669 JUMP JUMPDEST STOP JUMPDEST CALLVALUE DUP1 ISZERO PUSH2 0x16F JUMPI PUSH0 DUP1 REVERT JUMPDEST POP PUSH2 0x18A PUSH1 0x4 DUP1 CALLDATASIZE SUB DUP2 ADD SWAP1 PUSH2 0x185 SWAP2 SWAP1 PUSH2 0xDDB JUMP JUMPDEST PUSH2 0x7AB JUMP JUMPDEST STOP JUMPDEST CALLVALUE DUP1 ISZERO PUSH2 0x197 JUMPI PUSH0 DUP1 REVERT JUMPDEST POP PUSH2 0x1B2 PUSH1 0x4 DUP1 CALLDATASIZE SUB DUP2 ADD SWAP1 PUSH2 0x1AD SWAP2 SWAP1 PUSH2 0xDB0 JUMP JUMPDEST PUSH2 0x946 JUMP JUMPDEST PUSH1 0x40 MLOAD PUSH2 0x1BF SWAP2 SWAP1 PUSH2 0xE20 JUMP JUMPDEST PUSH1 0x40 MLOAD DUP1 SWAP2 SUB SWAP1 RETURN JUMPDEST CALLVALUE DUP1 ISZERO PUSH2 0x1D3 JUMPI PUSH0 DUP1 REVERT JUMPDEST POP PUSH2 0x1DC PUSH2 0x963 JUMP JUMPDEST PUSH1 0x40 MLOAD PUSH2 0x1E9 SWAP2 SWAP1 PUSH2 0xE48 JUMP JUMPDEST PUSH1 0x40 MLOAD DUP1 SWAP2 SUB SWAP1 RETURN JUMPDEST PUSH0 DUP6 DUP6 DUP6 DUP6 DUP6 PUSH1 0x40 MLOAD PUSH1 0x20 ADD PUSH2 0x20C SWAP6 SWAP5 SWAP4 SWAP3 SWAP2 SWAP1 PUSH2 0xEB3 JUMP JUMPDEST PUSH1 0x40 MLOAD PUSH1 0x20 DUP2 DUP4 SUB SUB DUP2 MSTORE SWAP1 PUSH1 0x40 MSTORE DUP1 MLOAD SWAP1 PUSH1 0x20 ADD KECCAK256 SWAP1 POP SWAP6 SWAP5 POP POP POP POP POP JUMP JUMPDEST PUSH1 0x60 PUSH0 DUP1 SLOAD SWAP1 PUSH2 0x100 EXP SWAP1 DIV PUSH20 0xFFFFFFFFFFFFFFFFFFFFFFFFFFFFFFFFFFFFFFFF AND PUSH20 0xFFFFFFFFFFFFFFFFFFFFFFFFFFFFFFFFFFFFFFFF AND CALLER PUSH20 0xFFFFFFFFFFFFFFFFFFFFFFFFFFFFFFFFFFFFFFFF AND EQ PUSH2 0x2BC JUMPI PUSH1 0x40 MLOAD PUSH32 0x8C379A000000000000000000000000000000000000000000000000000000000 DUP2 MSTORE PUSH1 0x4 ADD PUSH2 0x2B3 SWAP1 PUSH2 0xF5C JUMP JUMPDEST PUSH1 0x40 MLOAD DUP1 SWAP2 SUB SWAP1 REVERT JUMPDEST PUSH1 0x1 SLOAD TIMESTAMP PUSH2 0x2CA SWAP2 SWAP1 PUSH2 0xFA7 JUMP JUMPDEST DUP3 GT PUSH2 0x30B JUMPI PUSH1 0x40 MLOAD PUSH32 0x8C379A000000000000000000000000000000000000000000000000000000000 DUP2 MSTORE PUSH1 0x4 ADD PUSH2 0x302 SWAP1 PUSH2 0x104A JUMP JUMPDEST PUSH1 0x40 MLOAD DUP1 SWAP2 SUB SWAP1 REVERT JUMPDEST PUSH0 PUSH2 0x319 CALLER DUP8 DUP8 DUP8 DUP8 PUSH2 0x1F2 JUMP JUMPDEST SWAP1 POP PUSH1 0x2 PUSH0 DUP3 DUP2 MSTORE PUSH1 0x20 ADD SWAP1 DUP2 MSTORE PUSH1 0x20 ADD PUSH0 KECCAK256 PUSH0 SWAP1 SLOAD SWAP1 PUSH2 0x100 EXP SWAP1 DIV PUSH1 0xFF AND PUSH2 0x378 JUMPI PUSH1 0x40 MLOAD PUSH32 0x8C379A000000000000000000000000000000000000000000000000000000000 DUP2 MSTORE PUSH1 0x4 ADD PUSH2 0x36F SWAP1 PUSH2 0x10D8 JUMP JUMPDEST PUSH1 0x40 MLOAD DUP1 SWAP2 SUB SWAP1 REVERT JUMPDEST PUSH0 PUSH1 0x2 PUSH0 DUP4 DUP2 MSTORE PUSH1 0x20 ADD SWAP1 DUP2 MSTORE PUSH1 0x20 ADD PUSH0 KECCAK256 PUSH0 PUSH2 0x100 EXP DUP2 SLOAD DUP2 PUSH1 0xFF MUL NOT AND SWAP1 DUP4 ISZERO ISZERO MUL OR SWAP1 SSTORE POP PUSH1 0x60 PUSH0 DUP7 MLOAD SUB PUSH2 0x3B2 JUMPI DUP5 SWAP1 POP PUSH2 0x3DE JUMP JUMPDEST DUP6 DUP1 MLOAD SWAP1 PUSH1 0x20 ADD KECCAK256 DUP6 PUSH1 0x40 MLOAD PUSH1 0x20 ADD PUSH2 0x3CC SWAP3 SWAP2 SWAP1 PUSH2 0x117B JUMP JUMPDEST PUSH1 0x40 MLOAD PUSH1 0x20 DUP2 DUP4 SUB SUB DUP2 MSTORE SWAP1 PUSH1 0x40 MSTORE SWAP1 POP JUMPDEST PUSH0 DUP1 DUP10 PUSH20 0xFFFFFFFFFFFFFFFFFFFFFFFFFFFFFFFFFFFFFFFF AND DUP10 DUP5 PUSH1 0x40 MLOAD PUSH2 0x406 SWAP2 SWAP1 PUSH2 0x11A2 JUMP JUMPDEST PUSH0 PUSH1 0x40 MLOAD DUP1 DUP4 SUB DUP2 DUP6 DUP8 GAS CALL SWAP3 POP POP POP RETURNDATASIZE DUP1 PUSH0 DUP2 EQ PUSH2 0x440 JUMPI PUSH1 0x40 MLOAD SWAP2 POP PUSH1 0x1F NOT PUSH1 0x3F RETURNDATASIZE ADD AND DUP3 ADD PUSH1 0x40 MSTORE RETURNDATASIZE DUP3 MSTORE RETURNDATASIZE PUSH0 PUSH1 0x20 DUP5 ADD RETURNDATACOPY PUSH2 0x445 JUMP JUMPDEST PUSH1 0x60 SWAP2 POP JUMPDEST POP SWAP2 POP SWAP2 POP DUP2 PUSH2 0x48A JUMPI PUSH1 0x40 MLOAD PUSH32 0x8C379A000000000000000000000000000000000000000000000000000000000 DUP2 MSTORE PUSH1 0x4 ADD PUSH2 0x481 SWAP1 PUSH2 0x1202 JUMP JUMPDEST PUSH1 0x40 MLOAD DUP1 SWAP2 SUB SWAP1 REVERT JUMPDEST DUP4 DUP11 PUSH20 0xFFFFFFFFFFFFFFFFFFFFFFFFFFFFFFFFFFFFFFFF AND PUSH32 0x52A140EA1BB82A1C275BDE2AB8A1D8EA97F6F6274533D18DF8675100D6DD3FD4 DUP12 DUP12 DUP12 DUP12 DUP8 PUSH1 0x40 MLOAD PUSH2 0x4D9 SWAP6 SWAP5 SWAP4 SWAP3 SWAP2 SWAP1 PUSH2 0x1220 JUMP JUMPDEST PUSH1 0x40 MLOAD DUP1 SWAP2 SUB SWAP1 LOG3 DUP1 SWAP5 POP POP POP POP POP SWAP6 SWAP5 POP POP POP POP POP JUMP JUMPDEST PUSH0 DUP1 SLOAD SWAP1 PUSH2 0x100 EXP SWAP1 DIV PUSH20 0xFFFFFFFFFFFFFFFFFFFFFFFFFFFFFFFFFFFFFFFF AND PUSH20 0xFFFFFFFFFFFFFFFFFFFFFFFFFFFFFFFFFFFFFFFF AND CALLER PUSH20 0xFFFFFFFFFFFFFFFFFFFFFFFFFFFFFFFFFFFFFFFF AND EQ PUSH2 0x57E JUMPI PUSH1 0x40 MLOAD PUSH32 0x8C379A000000000000000000000000000000000000000000000000000000000 DUP2 MSTORE PUSH1 0x4 ADD PUSH2 0x575 SWAP1 PUSH2 0xF5C JUMP JUMPDEST PUSH1 0x40 MLOAD DUP1 SWAP2 SUB SWAP1 REVERT JUMPDEST PUSH1 0x1 SLOAD TIMESTAMP PUSH2 0x58C SWAP2 SWAP1 PUSH2 0xFA7 JUMP JUMPDEST DUP2 GT PUSH2 0x5CD JUMPI PUSH1 0x40 MLOAD PUSH32 0x8C379A000000000000000000000000000000000000000000000000000000000 DUP2 MSTORE PUSH1 0x4 ADD PUSH2 0x5C4 SWAP1 PUSH2 0x12F6 JUMP JUMPDEST PUSH1 0x40 MLOAD DUP1 SWAP2 SUB SWAP1 REVERT JUMPDEST PUSH0 PUSH2 0x5DB DUP7 DUP7 DUP7 DUP7 DUP7 PUSH2 0x1F2 JUMP JUMPDEST SWAP1 POP PUSH1 0x1 PUSH1 0x2 PUSH0 DUP4 DUP2 MSTORE PUSH1 0x20 ADD SWAP1 DUP2 MSTORE PUSH1 0x20 ADD PUSH0 KECCAK256 PUSH0 PUSH2 0x100 EXP DUP2 SLOAD DUP2 PUSH1 0xFF MUL NOT AND SWAP1 DUP4 ISZERO ISZERO MUL OR SWAP1 SSTORE POP DUP1 DUP7 PUSH20 0xFFFFFFFFFFFFFFFFFFFFFFFFFFFFFFFFFFFFFFFF AND PUSH32 0xD03FFFBB21D826401523FDBE307B708EDDA56F04A900898C627ACA66E45A2FFB DUP8 DUP8 DUP8 DUP8 PUSH1 0x40 MLOAD PUSH2 0x653 SWAP5 SWAP4 SWAP3 SWAP2 SWAP1 PUSH2 0x1314 JUMP JUMPDEST PUSH1 0x40 MLOAD DUP1 SWAP2 SUB SWAP1 LOG3 POP POP POP POP POP POP JUMP JUMPDEST PUSH1 0x1 SLOAD DUP2 JUMP JUMPDEST PUSH0 DUP1 SLOAD SWAP1 PUSH2 0x100 EXP SWAP1 DIV PUSH20 0xFFFFFFFFFFFFFFFFFFFFFFFFFFFFFFFFFFFFFFFF AND PUSH20 0xFFFFFFFFFFFFFFFFFFFFFFFFFFFFFFFFFFFFFFFF AND CALLER PUSH20 0xFFFFFFFFFFFFFFFFFFFFFFFFFFFFFFFFFFFFFFFF AND EQ PUSH2 0x6F6 JUMPI PUSH1 0x40 MLOAD PUSH32 0x8C379A000000000000000000000000000000000000000000000000000000000 DUP2 MSTORE PUSH1 0x4 ADD PUSH2 0x6ED SWAP1 PUSH2 0xF5C JUMP JUMPDEST PUSH1 0x40 MLOAD DUP1 SWAP2 SUB SWAP1 REVERT JUMPDEST PUSH1 0x2 PUSH0 DUP3 DUP2 MSTORE PUSH1 0x20 ADD SWAP1 DUP2 MSTORE PUSH1 0x20 ADD PUSH0 KECCAK256 PUSH0 SWAP1 SLOAD SWAP1 PUSH2 0x100 EXP SWAP1 DIV PUSH1 0xFF AND PUSH2 0x753 JUMPI PUSH1 0x40 MLOAD PUSH32 0x8C379A000000000000000000000000000000000000000000000000000000000 DUP2 MSTORE PUSH1 0x4 ADD PUSH2 0x74A SWAP1 PUSH2 0x13D5 JUMP JUMPDEST PUSH1 0x40 MLOAD DUP1 SWAP2 SUB SWAP1 REVERT JUMPDEST PUSH0 PUSH1 0x2 PUSH0 DUP4 DUP2 MSTORE PUSH1 0x20 ADD SWAP1 DUP2 MSTORE PUSH1 0x20 ADD PUSH0 KECCAK256 PUSH0 PUSH2 0x100 EXP DUP2 SLOAD DUP2 PUSH1 0xFF MUL NOT AND SWAP1 DUP4 ISZERO ISZERO MUL OR SWAP1 SSTORE POP DUP1 PUSH32 0xBB8E18922D3ABB7D8AEA19F1B55D85B0EE985798C196AAD6D05C58DFDB7C98AF PUSH1 0x40 MLOAD PUSH1 0x40 MLOAD DUP1 SWAP2 SUB SWAP1 LOG2 POP JUMP JUMPDEST ADDRESS PUSH20 0xFFFFFFFFFFFFFFFFFFFFFFFFFFFFFFFFFFFFFFFF AND CALLER PUSH20 0xFFFFFFFFFFFFFFFFFFFFFFFFFFFFFFFFFFFFFFFF AND EQ PUSH2 0x819 JUMPI PUSH1 0x40 MLOAD PUSH32 0x8C379A000000000000000000000000000000000000000000000000000000000 DUP2 MSTORE PUSH1 0x4 ADD PUSH2 0x810 SWAP1 PUSH2 0x143D JUMP JUMPDEST PUSH1 0x40 MLOAD DUP1 SWAP2 SUB SWAP1 REVERT JUMPDEST DUP1 PUSH20 0xFFFFFFFFFFFFFFFFFFFFFFFFFFFFFFFFFFFFFFFF AND PUSH0 DUP1 SLOAD SWAP1 PUSH2 0x100 EXP SWAP1 DIV PUSH20 0xFFFFFFFFFFFFFFFFFFFFFFFFFFFFFFFFFFFFFFFF AND PUSH20 0xFFFFFFFFFFFFFFFFFFFFFFFFFFFFFFFFFFFFFFFF AND SUB PUSH2 0x8A6 JUMPI PUSH1 0x40 MLOAD PUSH32 0x8C379A000000000000000000000000000000000000000000000000000000000 DUP2 MSTORE PUSH1 0x4 ADD PUSH2 0x89D SWAP1 PUSH2 0x14A5 JUMP JUMPDEST PUSH1 0x40 MLOAD DUP1 SWAP2 SUB SWAP1 REVERT JUMPDEST PUSH0 DUP1 PUSH0 SWAP1 SLOAD SWAP1 PUSH2 0x100 EXP SWAP1 DIV PUSH20 0xFFFFFFFFFFFFFFFFFFFFFFFFFFFFFFFFFFFFFFFF AND SWAP1 POP DUP2 PUSH0 DUP1 PUSH2 0x100 EXP DUP2 SLOAD DUP2 PUSH20 0xFFFFFFFFFFFFFFFFFFFFFFFFFFFFFFFFFFFFFFFF MUL NOT AND SWAP1 DUP4 PUSH20 0xFFFFFFFFFFFFFFFFFFFFFFFFFFFFFFFFFFFFFFFF AND MUL OR SWAP1 SSTORE POP PUSH32 0x7E644D79422F17C01E4894B5F4F588D331EBFA28653D42AE832DC59E38C9798F DUP3 DUP3 PUSH1 0x40 MLOAD PUSH2 0x93A SWAP3 SWAP2 SWAP1 PUSH2 0x14C3 JUMP JUMPDEST PUSH1 0x40 MLOAD DUP1 SWAP2 SUB SWAP1 LOG1 POP POP JUMP JUMPDEST PUSH1 0x2 PUSH1 0x20 MSTORE DUP1 PUSH0 MSTORE PUSH1 0x40 PUSH0 KECCAK256 PUSH0 SWAP2 POP SLOAD SWAP1 PUSH2 0x100 EXP SWAP1 DIV PUSH1 0xFF AND DUP2 JUMP JUMPDEST PUSH0 DUP1 SLOAD SWAP1 PUSH2 0x100 EXP SWAP1 DIV PUSH20 0xFFFFFFFFFFFFFFFFFFFFFFFFFFFFFFFFFFFFFFFF AND DUP2 JUMP JUMPDEST PUSH0 PUSH1 0x40 MLOAD SWAP1 POP SWAP1 JUMP JUMPDEST PUSH0 DUP1 REVERT JUMPDEST PUSH0 DUP1 REVERT JUMPDEST PUSH0 PUSH20 0xFFFFFFFFFFFFFFFFFFFFFFFFFFFFFFFFFFFFFFFF DUP3 AND SWAP1 POP SWAP2 SWAP1 POP JUMP JUMPDEST PUSH0 PUSH2 0x9C0 DUP3 PUSH2 0x997 JUMP JUMPDEST SWAP1 POP SWAP2 SWAP1 POP JUMP JUMPDEST PUSH2 0x9D0 DUP2 PUSH2 0x9B6 JUMP JUMPDEST DUP2 EQ PUSH2 0x9DA JUMPI PUSH0 DUP1 REVERT JUMPDEST POP JUMP JUMPDEST PUSH0 DUP2 CALLDATALOAD SWAP1 POP PUSH2 0x9EB DUP2 PUSH2 0x9C7 JUMP JUMPDEST SWAP3 SWAP2 POP POP JUMP JUMPDEST PUSH0 DUP2 SWAP1 POP SWAP2 SWAP1 POP JUMP JUMPDEST PUSH2 0xA03 DUP2 PUSH2 0x9F1 JUMP JUMPDEST DUP2 EQ PUSH2 0xA0D JUMPI PUSH0 DUP1 REVERT JUMPDEST POP JUMP JUMPDEST PUSH0 DUP2 CALLDATALOAD SWAP1 POP PUSH2 0xA1E DUP2 PUSH2 0x9FA JUMP JUMPDEST SWAP3 SWAP2 POP POP JUMP JUMPDEST PUSH0 DUP1 REVERT JUMPDEST PUSH0 DUP1 REVERT JUMPDEST PUSH0 PUSH1 0x1F NOT PUSH1 0x1F DUP4 ADD AND SWAP1 POP SWAP2 SWAP1 POP JUMP JUMPDEST PUSH32 0x4E487B7100000000000000000000000000000000000000000000000000000000 PUSH0 MSTORE PUSH1 0x41 PUSH1 0x4 MSTORE PUSH1 0x24 PUSH0 REVERT JUMPDEST PUSH2 0xA72 DUP3 PUSH2 0xA2C JUMP JUMPDEST DUP2 ADD DUP2 DUP2 LT PUSH8 0xFFFFFFFFFFFFFFFF DUP3 GT OR ISZERO PUSH2 0xA91 JUMPI PUSH2 0xA90 PUSH2 0xA3C JUMP JUMPDEST JUMPDEST DUP1 PUSH1 0x40 MSTORE POP POP POP JUMP JUMPDEST PUSH0 PUSH2 0xAA3 PUSH2 0x986 JUMP JUMPDEST SWAP1 POP PUSH2 0xAAF DUP3 DUP3 PUSH2 0xA69 JUMP JUMPDEST SWAP2 SWAP1 POP JUMP JUMPDEST PUSH0 PUSH8 0xFFFFFFFFFFFFFFFF DUP3 GT ISZERO PUSH2 0xACE JUMPI PUSH2 0xACD PUSH2 0xA3C JUMP JUMPDEST JUMPDEST PUSH2 0xAD7 DUP3 PUSH2 0xA2C JUMP JUMPDEST SWAP1 POP PUSH1 0x20 DUP2 ADD SWAP1 POP SWAP2 SWAP1 POP JUMP JUMPDEST DUP3 DUP2 DUP4 CALLDATACOPY PUSH0 DUP4 DUP4 ADD MSTORE POP POP POP JUMP JUMPDEST PUSH0 PUSH2 0xB04 PUSH2 0xAFF DUP5 PUSH2 0xAB4 JUMP JUMPDEST PUSH2 0xA9A JUMP JUMPDEST SWAP1 POP DUP3 DUP2 MSTORE PUSH1 0x20 DUP2 ADD DUP5 DUP5 DUP5 ADD GT ISZERO PUSH2 0xB20 JUMPI PUSH2 0xB1F PUSH2 0xA28 JUMP JUMPDEST JUMPDEST PUSH2 0xB2B DUP5 DUP3 DUP6 PUSH2 0xAE4 JUMP JUMPDEST POP SWAP4 SWAP3 POP POP POP JUMP JUMPDEST PUSH0 DUP3 PUSH1 0x1F DUP4 ADD SLT PUSH2 0xB47 JUMPI PUSH2 0xB46 PUSH2 0xA24 JUMP JUMPDEST JUMPDEST DUP2 CALLDATALOAD PUSH2 0xB57 DUP5 DUP3 PUSH1 0x20 DUP7 ADD PUSH2 0xAF2 JUMP JUMPDEST SWAP2 POP POP SWAP3 SWAP2 POP POP JUMP JUMPDEST PUSH0 PUSH8 0xFFFFFFFFFFFFFFFF DUP3 GT ISZERO PUSH2 0xB7A JUMPI PUSH2 0xB79 PUSH2 0xA3C JUMP JUMPDEST JUMPDEST PUSH2 0xB83 DUP3 PUSH2 0xA2C JUMP JUMPDEST SWAP1 POP PUSH1 0x20 DUP2 ADD SWAP1 POP SWAP2 SWAP1 POP JUMP JUMPDEST PUSH0 PUSH2 0xBA2 PUSH2 0xB9D DUP5 PUSH2 0xB60 JUMP JUMPDEST PUSH2 0xA9A JUMP JUMPDEST SWAP1 POP DUP3 DUP2 MSTORE PUSH1 0x20 DUP2 ADD DUP5 DUP5 DUP5 ADD GT ISZERO PUSH2 0xBBE JUMPI PUSH2 0xBBD PUSH2 0xA28 JUMP JUMPDEST JUMPDEST PUSH2 0xBC9 DUP5 DUP3 DUP6 PUSH2 0xAE4 JUMP JUMPDEST POP SWAP4 SWAP3 POP POP POP JUMP JUMPDEST PUSH0 DUP3 PUSH1 0x1F DUP4 ADD SLT PUSH2 0xBE5 JUMPI PUSH2 0xBE4 PUSH2 0xA24 JUMP JUMPDEST JUMPDEST DUP2 CALLDATALOAD PUSH2 0xBF5 DUP5 DUP3 PUSH1 0x20 DUP7 ADD PUSH2 0xB90 JUMP JUMPDEST SWAP2 POP POP SWAP3 SWAP2 POP POP JUMP JUMPDEST PUSH0 DUP1 PUSH0 DUP1 PUSH0 PUSH1 0xA0 DUP7 DUP9 SUB SLT ISZERO PUSH2 0xC17 JUMPI PUSH2 0xC16 PUSH2 0x98F JUMP JUMPDEST JUMPDEST PUSH0 PUSH2 0xC24 DUP9 DUP3 DUP10 ADD PUSH2 0x9DD JUMP JUMPDEST SWAP6 POP POP PUSH1 0x20 PUSH2 0xC35 DUP9 DUP3 DUP10 ADD PUSH2 0xA10 JUMP JUMPDEST SWAP5 POP POP PUSH1 0x40 DUP7 ADD CALLDATALOAD PUSH8 0xFFFFFFFFFFFFFFFF DUP2 GT ISZERO PUSH2 0xC56 JUMPI PUSH2 0xC55 PUSH2 0x993 JUMP JUMPDEST JUMPDEST PUSH2 0xC62 DUP9 DUP3 DUP10 ADD PUSH2 0xB33 JUMP JUMPDEST SWAP4 POP POP PUSH1 0x60 DUP7 ADD CALLDATALOAD PUSH8 0xFFFFFFFFFFFFFFFF DUP2 GT ISZERO PUSH2 0xC83 JUMPI PUSH2 0xC82 PUSH2 0x993 JUMP JUMPDEST JUMPDEST PUSH2 0xC8F DUP9 DUP3 DUP10 ADD PUSH2 0xBD1 JUMP JUMPDEST SWAP3 POP POP PUSH1 0x80 PUSH2 0xCA0 DUP9 DUP3 DUP10 ADD PUSH2 0xA10 JUMP JUMPDEST SWAP2 POP POP SWAP3 SWAP6 POP SWAP3 SWAP6 SWAP1 SWAP4 POP JUMP JUMPDEST PUSH0 DUP2 SWAP1 POP SWAP2 SWAP1 POP JUMP JUMPDEST PUSH2 0xCBF DUP2 PUSH2 0xCAD JUMP JUMPDEST DUP3 MSTORE POP POP JUMP JUMPDEST PUSH0 PUSH1 0x20 DUP3 ADD SWAP1 POP PUSH2 0xCD8 PUSH0 DUP4 ADD DUP5 PUSH2 0xCB6 JUMP JUMPDEST SWAP3 SWAP2 POP POP JUMP JUMPDEST PUSH0 DUP2 MLOAD SWAP1 POP SWAP2 SWAP1 POP JUMP JUMPDEST PUSH0 DUP3 DUP3 MSTORE PUSH1 0x20 DUP3 ADD SWAP1 POP SWAP3 SWAP2 POP POP JUMP JUMPDEST DUP3 DUP2 DUP4 MCOPY PUSH0 DUP4 DUP4 ADD MSTORE POP POP POP JUMP JUMPDEST PUSH0 PUSH2 0xD10 DUP3 PUSH2 0xCDE JUMP JUMPDEST PUSH2 0xD1A DUP2 DUP6 PUSH2 0xCE8 JUMP JUMPDEST SWAP4 POP PUSH2 0xD2A DUP2 DUP6 PUSH1 0x20 DUP7 ADD PUSH2 0xCF8 JUMP JUMPDEST PUSH2 0xD33 DUP2 PUSH2 0xA2C JUMP JUMPDEST DUP5 ADD SWAP2 POP POP SWAP3 SWAP2 POP POP JUMP JUMPDEST PUSH0 PUSH1 0x20 DUP3 ADD SWAP1 POP DUP2 DUP2 SUB PUSH0 DUP4 ADD MSTORE PUSH2 0xD56 DUP2 DUP5 PUSH2 0xD06 JUMP JUMPDEST SWAP1 POP SWAP3 SWAP2 POP POP JUMP JUMPDEST PUSH2 0xD67 DUP2 PUSH2 0x9F1 JUMP JUMPDEST DUP3 MSTORE POP POP JUMP JUMPDEST PUSH0 PUSH1 0x20 DUP3 ADD SWAP1 POP PUSH2 0xD80 PUSH0 DUP4 ADD DUP5 PUSH2 0xD5E JUMP JUMPDEST SWAP3 SWAP2 POP POP JUMP JUMPDEST PUSH2 0xD8F DUP2 PUSH2 0xCAD JUMP JUMPDEST DUP2 EQ PUSH2 0xD99 JUMPI PUSH0 DUP1 REVERT JUMPDEST POP JUMP JUMPDEST PUSH0 DUP2 CALLDATALOAD SWAP1 POP PUSH2 0xDAA DUP2 PUSH2 0xD86 JUMP JUMPDEST SWAP3 SWAP2 POP POP JUMP JUMPDEST PUSH0 PUSH1 0x20 DUP3 DUP5 SUB SLT ISZERO PUSH2 0xDC5 JUMPI PUSH2 0xDC4 PUSH2 0x98F JUMP JUMPDEST JUMPDEST PUSH0 PUSH2 0xDD2 DUP5 DUP3 DUP6 ADD PUSH2 0xD9C JUMP JUMPDEST SWAP2 POP POP SWAP3 SWAP2 POP POP JUMP JUMPDEST PUSH0 PUSH1 0x20 DUP3 DUP5 SUB SLT ISZERO PUSH2 0xDF0 JUMPI PUSH2 0xDEF PUSH2 0x98F JUMP JUMPDEST JUMPDEST PUSH0 PUSH2 0xDFD DUP5 DUP3 DUP6 ADD PUSH2 0x9DD JUMP JUMPDEST SWAP2 POP POP SWAP3 SWAP2 POP POP JUMP JUMPDEST PUSH0 DUP2 ISZERO ISZERO SWAP1 POP SWAP2 SWAP1 POP JUMP JUMPDEST PUSH2 0xE1A DUP2 PUSH2 0xE06 JUMP JUMPDEST DUP3 MSTORE POP POP JUMP JUMPDEST PUSH0 PUSH1 0x20 DUP3 ADD SWAP1 POP PUSH2 0xE33 PUSH0 DUP4 ADD DUP5 PUSH2 0xE11 JUMP JUMPDEST SWAP3 SWAP2 POP POP JUMP JUMPDEST PUSH2 0xE42 DUP2 PUSH2 0x9B6 JUMP JUMPDEST DUP3 MSTORE POP POP JUMP JUMPDEST PUSH0 PUSH1 0x20 DUP3 ADD SWAP1 POP PUSH2 0xE5B PUSH0 DUP4 ADD DUP5 PUSH2 0xE39 JUMP JUMPDEST SWAP3 SWAP2 POP POP JUMP JUMPDEST PUSH0 DUP2 MLOAD SWAP1 POP SWAP2 SWAP1 POP JUMP JUMPDEST PUSH0 DUP3 DUP3 MSTORE PUSH1 0x20 DUP3 ADD SWAP1 POP SWAP3 SWAP2 POP POP JUMP JUMPDEST PUSH0 PUSH2 0xE85 DUP3 PUSH2 0xE61 JUMP JUMPDEST PUSH2 0xE8F DUP2 DUP6 PUSH2 0xE6B JUMP JUMPDEST SWAP4 POP PUSH2 0xE9F DUP2 DUP6 PUSH1 0x20 DUP7 ADD PUSH2 0xCF8 JUMP JUMPDEST PUSH2 0xEA8 DUP2 PUSH2 0xA2C JUMP JUMPDEST DUP5 ADD SWAP2 POP POP SWAP3 SWAP2 POP POP JUMP JUMPDEST PUSH0 PUSH1 0xA0 DUP3 ADD SWAP1 POP PUSH2 0xEC6 PUSH0 DUP4 ADD DUP9 PUSH2 0xE39 JUMP JUMPDEST PUSH2 0xED3 PUSH1 0x20 DUP4 ADD DUP8 PUSH2 0xD5E JUMP JUMPDEST DUP2 DUP2 SUB PUSH1 0x40 DUP4 ADD MSTORE PUSH2 0xEE5 DUP2 DUP7 PUSH2 0xE7B JUMP JUMPDEST SWAP1 POP DUP2 DUP2 SUB PUSH1 0x60 DUP4 ADD MSTORE PUSH2 0xEF9 DUP2 DUP6 PUSH2 0xD06 JUMP JUMPDEST SWAP1 POP PUSH2 0xF08 PUSH1 0x80 DUP4 ADD DUP5 PUSH2 0xD5E JUMP JUMPDEST SWAP7 SWAP6 POP POP POP POP POP POP JUMP JUMPDEST PUSH32 0x466F7262696464656E3A2043616C6C6572206E6F742061646D696E0000000000 PUSH0 DUP3 ADD MSTORE POP JUMP JUMPDEST PUSH0 PUSH2 0xF46 PUSH1 0x1B DUP4 PUSH2 0xE6B JUMP JUMPDEST SWAP2 POP PUSH2 0xF51 DUP3 PUSH2 0xF12 JUMP JUMPDEST PUSH1 0x20 DUP3 ADD SWAP1 POP SWAP2 SWAP1 POP JUMP JUMPDEST PUSH0 PUSH1 0x20 DUP3 ADD SWAP1 POP DUP2 DUP2 SUB PUSH0 DUP4 ADD MSTORE PUSH2 0xF73 DUP2 PUSH2 0xF3A JUMP JUMPDEST SWAP1 POP SWAP2 SWAP1 POP JUMP JUMPDEST PUSH32 0x4E487B7100000000000000000000000000000000000000000000000000000000 PUSH0 MSTORE PUSH1 0x11 PUSH1 0x4 MSTORE PUSH1 0x24 PUSH0 REVERT JUMPDEST PUSH0 PUSH2 0xFB1 DUP3 PUSH2 0x9F1 JUMP JUMPDEST SWAP2 POP PUSH2 0xFBC DUP4 PUSH2 0x9F1 JUMP JUMPDEST SWAP3 POP DUP3 DUP3 ADD SWAP1 POP DUP1 DUP3 GT ISZERO PUSH2 0xFD4 JUMPI PUSH2 0xFD3 PUSH2 0xF7A JUMP JUMPDEST JUMPDEST SWAP3 SWAP2 POP POP JUMP JUMPDEST PUSH32 0x657865637574655472616E73616374696F6E3A206578656375746554696D6520 PUSH0 DUP3 ADD MSTORE PUSH32 0x6D75737420736174697366792064656C61790000000000000000000000000000 PUSH1 0x20 DUP3 ADD MSTORE POP JUMP JUMPDEST PUSH0 PUSH2 0x1034 PUSH1 0x32 DUP4 PUSH2 0xE6B JUMP JUMPDEST SWAP2 POP PUSH2 0x103F DUP3 PUSH2 0xFDA JUMP JUMPDEST PUSH1 0x40 DUP3 ADD SWAP1 POP SWAP2 SWAP1 POP JUMP JUMPDEST PUSH0 PUSH1 0x20 DUP3 ADD SWAP1 POP DUP2 DUP2 SUB PUSH0 DUP4 ADD MSTORE PUSH2 0x1061 DUP2 PUSH2 0x1028 JUMP JUMPDEST SWAP1 POP SWAP2 SWAP1 POP JUMP JUMPDEST PUSH32 0x657865637574655472616E73616374696F6E3A205472616E73616374696F6E20 PUSH0 DUP3 ADD MSTORE PUSH32 0x6E6F742071756575656400000000000000000000000000000000000000000000 PUSH1 0x20 DUP3 ADD MSTORE POP JUMP JUMPDEST PUSH0 PUSH2 0x10C2 PUSH1 0x2A DUP4 PUSH2 0xE6B JUMP JUMPDEST SWAP2 POP PUSH2 0x10CD DUP3 PUSH2 0x1068 JUMP JUMPDEST PUSH1 0x40 DUP3 ADD SWAP1 POP SWAP2 SWAP1 POP JUMP JUMPDEST PUSH0 PUSH1 0x20 DUP3 ADD SWAP1 POP DUP2 DUP2 SUB PUSH0 DUP4 ADD MSTORE PUSH2 0x10EF DUP2 PUSH2 0x10B6 JUMP JUMPDEST SWAP1 POP SWAP2 SWAP1 POP JUMP JUMPDEST PUSH0 PUSH32 0xFFFFFFFF00000000000000000000000000000000000000000000000000000000 DUP3 AND SWAP1 POP SWAP2 SWAP1 POP JUMP JUMPDEST PUSH0 DUP2 SWAP1 POP SWAP2 SWAP1 POP JUMP JUMPDEST PUSH2 0x113B PUSH2 0x1136 DUP3 PUSH2 0x10F6 JUMP JUMPDEST PUSH2 0x1121 JUMP JUMPDEST DUP3 MSTORE POP POP JUMP JUMPDEST PUSH0 DUP2 SWAP1 POP SWAP3 SWAP2 POP POP JUMP JUMPDEST PUSH0 PUSH2 0x1155 DUP3 PUSH2 0xCDE JUMP JUMPDEST PUSH2 0x115F DUP2 DUP6 PUSH2 0x1141 JUMP JUMPDEST SWAP4 POP PUSH2 0x116F DUP2 DUP6 PUSH1 0x20 DUP7 ADD PUSH2 0xCF8 JUMP JUMPDEST DUP1 DUP5 ADD SWAP2 POP POP SWAP3 SWAP2 POP POP JUMP JUMPDEST PUSH0 PUSH2 0x1186 DUP3 DUP6 PUSH2 0x112A JUMP JUMPDEST PUSH1 0x4 DUP3 ADD SWAP2 POP PUSH2 0x1196 DUP3 DUP5 PUSH2 0x114B JUMP JUMPDEST SWAP2 POP DUP2 SWAP1 POP SWAP4 SWAP3 POP POP POP JUMP JUMPDEST PUSH0 PUSH2 0x11AD DUP3 DUP5 PUSH2 0x114B JUMP JUMPDEST SWAP2 POP DUP2 SWAP1 POP SWAP3 SWAP2 POP POP JUMP JUMPDEST PUSH32 0x657865637574655472616E73616374696F6E3A2063616C6C206661696C000000 PUSH0 DUP3 ADD MSTORE POP JUMP JUMPDEST PUSH0 PUSH2 0x11EC PUSH1 0x1D DUP4 PUSH2 0xE6B JUMP JUMPDEST SWAP2 POP PUSH2 0x11F7 DUP3 PUSH2 0x11B8 JUMP JUMPDEST PUSH1 0x20 DUP3 ADD SWAP1 POP SWAP2 SWAP1 POP JUMP JUMPDEST PUSH0 PUSH1 0x20 DUP3 ADD SWAP1 POP DUP2 DUP2 SUB PUSH0 DUP4 ADD MSTORE PUSH2 0x1219 DUP2 PUSH2 0x11E0 JUMP JUMPDEST SWAP1 POP SWAP2 SWAP1 POP JUMP JUMPDEST PUSH0 PUSH1 0xA0 DUP3 ADD SWAP1 POP PUSH2 0x1233 PUSH0 DUP4 ADD DUP9 PUSH2 0xD5E JUMP JUMPDEST DUP2 DUP2 SUB PUSH1 0x20 DUP4 ADD MSTORE PUSH2 0x1245 DUP2 DUP8 PUSH2 0xE7B JUMP JUMPDEST SWAP1 POP DUP2 DUP2 SUB PUSH1 0x40 DUP4 ADD MSTORE PUSH2 0x1259 DUP2 DUP7 PUSH2 0xD06 JUMP JUMPDEST SWAP1 POP PUSH2 0x1268 PUSH1 0x60 DUP4 ADD DUP6 PUSH2 0xD5E JUMP JUMPDEST DUP2 DUP2 SUB PUSH1 0x80 DUP4 ADD MSTORE PUSH2 0x127A DUP2 DUP5 PUSH2 0xD06 JUMP JUMPDEST SWAP1 POP SWAP7 SWAP6 POP POP POP POP POP POP JUMP JUMPDEST PUSH32 0x71756575655472616E73616374696F6E3A206578656375746554696D65206D75 PUSH0 DUP3 ADD MSTORE PUSH32 0x737420736174697366792064656C617900000000000000000000000000000000 PUSH1 0x20 DUP3 ADD MSTORE POP JUMP JUMPDEST PUSH0 PUSH2 0x12E0 PUSH1 0x30 DUP4 PUSH2 0xE6B JUMP JUMPDEST SWAP2 POP PUSH2 0x12EB DUP3 PUSH2 0x1286 JUMP JUMPDEST PUSH1 0x40 DUP3 ADD SWAP1 POP SWAP2 SWAP1 POP JUMP JUMPDEST PUSH0 PUSH1 0x20 DUP3 ADD SWAP1 POP DUP2 DUP2 SUB PUSH0 DUP4 ADD MSTORE PUSH2 0x130D DUP2 PUSH2 0x12D4 JUMP JUMPDEST SWAP1 POP SWAP2 SWAP1 POP JUMP JUMPDEST PUSH0 PUSH1 0x80 DUP3 ADD SWAP1 POP PUSH2 0x1327 PUSH0 DUP4 ADD DUP8 PUSH2 0xD5E JUMP JUMPDEST DUP2 DUP2 SUB PUSH1 0x20 DUP4 ADD MSTORE PUSH2 0x1339 DUP2 DUP7 PUSH2 0xE7B JUMP JUMPDEST SWAP1 POP DUP2 DUP2 SUB PUSH1 0x40 DUP4 ADD MSTORE PUSH2 0x134D DUP2 DUP6 PUSH2 0xD06 JUMP JUMPDEST SWAP1 POP PUSH2 0x135C PUSH1 0x60 DUP4 ADD DUP5 PUSH2 0xD5E JUMP JUMPDEST SWAP6 SWAP5 POP POP POP POP POP JUMP JUMPDEST PUSH32 0x63616E63656C5472616E73616374696F6E3A205472616E73616374696F6E206E PUSH0 DUP3 ADD MSTORE PUSH32 0x6F74207175657565640000000000000000000000000000000000000000000000 PUSH1 0x20 DUP3 ADD MSTORE POP JUMP JUMPDEST PUSH0 PUSH2 0x13BF PUSH1 0x29 DUP4 PUSH2 0xE6B JUMP JUMPDEST SWAP2 POP PUSH2 0x13CA DUP3 PUSH2 0x1365 JUMP JUMPDEST PUSH1 0x40 DUP3 ADD SWAP1 POP SWAP2 SWAP1 POP JUMP JUMPDEST PUSH0 PUSH1 0x20 DUP3 ADD SWAP1 POP DUP2 DUP2 SUB PUSH0 DUP4 ADD MSTORE PUSH2 0x13EC DUP2 PUSH2 0x13B3 JUMP JUMPDEST SWAP1 POP SWAP2 SWAP1 POP JUMP JUMPDEST PUSH32 0x466F7262696464656E3A2043616C6C6572206E6F742074696D654C6F636B6572 PUSH0 DUP3 ADD MSTORE POP JUMP JUMPDEST PUSH0 PUSH2 0x1427 PUSH1 0x20 DUP4 PUSH2 0xE6B JUMP JUMPDEST SWAP2 POP PUSH2 0x1432 DUP3 PUSH2 0x13F3 JUMP JUMPDEST PUSH1 0x20 DUP3 ADD SWAP1 POP SWAP2 SWAP1 POP JUMP JUMPDEST PUSH0 PUSH1 0x20 DUP3 ADD SWAP1 POP DUP2 DUP2 SUB PUSH0 DUP4 ADD MSTORE PUSH2 0x1454 DUP2 PUSH2 0x141B JUMP JUMPDEST SWAP1 POP SWAP2 SWAP1 POP JUMP JUMPDEST PUSH32 0x466F7262696464656E3A2041646D696E206E6F74206368616E67650000000000 PUSH0 DUP3 ADD MSTORE POP JUMP JUMPDEST PUSH0 PUSH2 0x148F PUSH1 0x1B DUP4 PUSH2 0xE6B JUMP JUMPDEST SWAP2 POP PUSH2 0x149A DUP3 PUSH2 0x145B JUMP JUMPDEST PUSH1 0x20 DUP3 ADD SWAP1 POP SWAP2 SWAP1 POP JUMP JUMPDEST PUSH0 PUSH1 0x20 DUP3 ADD SWAP1 POP DUP2 DUP2 SUB PUSH0 DUP4 ADD MSTORE PUSH2 0x14BC DUP2 PUSH2 0x1483 JUMP JUMPDEST SWAP1 POP SWAP2 SWAP1 POP JUMP JUMPDEST PUSH0 PUSH1 0x40 DUP3 ADD SWAP1 POP PUSH2 0x14D6 PUSH0 DUP4 ADD DUP6 PUSH2 0xE39 JUMP JUMPDEST PUSH2 0x14E3 PUSH1 0x20 DUP4 ADD DUP5 PUSH2 0xE39 JUMP JUMPDEST SWAP4 SWAP3 POP POP POP JUMP INVALID LOG2 PUSH5 0x6970667358 0x22 SLT KECCAK256 0xB8 DUP6 0x2D 0xED 0x26 BASEFEE 0xED DUP4 0xCC 0xF7 0xB6 0xC3 DUP12 0xE6 TIMESTAMP PUSH22 0x218400E931B4C845B74C8FE69B83F09C64736F6C6343 STOP ADDMOD BYTE STOP CALLER "
				},
				"gasEstimates": {
					"creation": {
						"codeDepositCost": "1081600",
						"executionCost": "infinite",
						"totalCost": "infinite"
					},
					"external": {
						"admin()": "2571",
						"cancelTransaction(bytes32)": "30291",
						"changeAdmin(address)": "infinite",
						"delay()": "2492",
						"executeTransaction(address,uint256,string,bytes,uint256)": "infinite",
						"getTxHash(address,uint256,string,bytes,uint256)": "infinite",
						"queueTransaction(address,uint256,string,bytes,uint256)": "infinite",
						"queuedTransactions(bytes32)": "2829"
					}
				},
				"methodIdentifiers": {
					"admin()": "f851a440",
					"cancelTransaction(bytes32)": "70ba3339",
					"changeAdmin(address)": "8f283970",
					"delay()": "6a42b8f8",
					"executeTransaction(address,uint256,string,bytes,uint256)": "0825f38f",
					"getTxHash(address,uint256,string,bytes,uint256)": "04a71576",
					"queueTransaction(address,uint256,string,bytes,uint256)": "3a66f901",
					"queuedTransactions(bytes32)": "f2b06537"
				}
			},
			"storageLayout": {
				"storage": [
					{
						"astId": 43,
						"contract": "contracts/token/TimeLock.sol:TimeLock",
						"label": "admin",
						"offset": 0,
						"slot": "0",
						"type": "t_address"
					},
					{
						"astId": 45,
						"contract": "contracts/token/TimeLock.sol:TimeLock",
						"label": "delay",
						"offset": 0,
						"slot": "1",
						"type": "t_uint256"
					},
					{
						"astId": 49,
						"contract": "contracts/token/TimeLock.sol:TimeLock",
						"label": "queuedTransactions",
						"offset": 0,
						"slot": "2",
						"type": "t_mapping(t_bytes32,t_bool)"
					}
				],
				"types": {
					"t_address": {
						"encoding": "inplace",
						"label": "address",
						"numberOfBytes": "20"
					},
					"t_bool": {
						"encoding": "inplace",
						"label": "bool",
						"numberOfBytes": "1"
					},
					"t_bytes32": {
						"encoding": "inplace",
						"label": "bytes32",
						"numberOfBytes": "32"
					},
					"t_mapping(t_bytes32,t_bool)": {
						"encoding": "mapping",
						"key": "t_bytes32",
						"label": "mapping(bytes32 => bool)",
						"numberOfBytes": "32",
						"value": "t_bool"
					},
					"t_uint256": {
						"encoding": "inplace",
						"label": "uint256",
						"numberOfBytes": "32"
					}
				}
			},
			"userdoc": {
				"kind": "user",
				"methods": {},
				"version": 1
			}
		}
	}
}