{
	"contracts/token/SimpleSwap.sol": {
		"SimpleSwap": {
			"abi": [
				{
					"inputs": [
						{
							"internalType": "contract IERC20",
							"name": "_token0",
							"type": "address"
						},
						{
							"internalType": "contract IERC20",
							"name": "_token1",
							"type": "address"
						}
					],
					"stateMutability": "nonpayable",
					"type": "constructor"
				},
				{
					"inputs": [
						{
							"internalType": "address",
							"name": "spender",
							"type": "address"
						},
						{
							"internalType": "uint256",
							"name": "allowance",
							"type": "uint256"
						},
						{
							"internalType": "uint256",
							"name": "needed",
							"type": "uint256"
						}
					],
					"name": "ERC20InsufficientAllowance",
					"type": "error"
				},
				{
					"inputs": [
						{
							"internalType": "address",
							"name": "sender",
							"type": "address"
						},
						{
							"internalType": "uint256",
							"name": "balance",
							"type": "uint256"
						},
						{
							"internalType": "uint256",
							"name": "needed",
							"type": "uint256"
						}
					],
					"name": "ERC20InsufficientBalance",
					"type": "error"
				},
				{
					"inputs": [
						{
							"internalType": "address",
							"name": "approver",
							"type": "address"
						}
					],
					"name": "ERC20InvalidApprover",
					"type": "error"
				},
				{
					"inputs": [
						{
							"internalType": "address",
							"name": "receiver",
							"type": "address"
						}
					],
					"name": "ERC20InvalidReceiver",
					"type": "error"
				},
				{
					"inputs": [
						{
							"internalType": "address",
							"name": "sender",
							"type": "address"
						}
					],
					"name": "ERC20InvalidSender",
					"type": "error"
				},
				{
					"inputs": [
						{
							"internalType": "address",
							"name": "spender",
							"type": "address"
						}
					],
					"name": "ERC20InvalidSpender",
					"type": "error"
				},
				{
					"inputs": [],
					"name": "SwapAmountLessThanOutMin",
					"type": "error"
				},
				{
					"anonymous": false,
					"inputs": [
						{
							"indexed": true,
							"internalType": "address",
							"name": "owner",
							"type": "address"
						},
						{
							"indexed": true,
							"internalType": "address",
							"name": "spender",
							"type": "address"
						},
						{
							"indexed": false,
							"internalType": "uint256",
							"name": "value",
							"type": "uint256"
						}
					],
					"name": "Approval",
					"type": "event"
				},
				{
					"anonymous": false,
					"inputs": [
						{
							"indexed": true,
							"internalType": "address",
							"name": "liquidityProvider",
							"type": "address"
						},
						{
							"indexed": false,
							"internalType": "uint256",
							"name": "token0Amount",
							"type": "uint256"
						},
						{
							"indexed": false,
							"internalType": "uint256",
							"name": "token1Amount",
							"type": "uint256"
						},
						{
							"indexed": false,
							"internalType": "uint256",
							"name": "liquidity",
							"type": "uint256"
						}
					],
					"name": "LiquidityAdded",
					"type": "event"
				},
				{
					"anonymous": false,
					"inputs": [
						{
							"indexed": true,
							"internalType": "address",
							"name": "liquidityProvider",
							"type": "address"
						},
						{
							"indexed": false,
							"internalType": "uint256",
							"name": "liquidity",
							"type": "uint256"
						},
						{
							"indexed": false,
							"internalType": "uint256",
							"name": "token0Amount",
							"type": "uint256"
						},
						{
							"indexed": false,
							"internalType": "uint256",
							"name": "token1Amount",
							"type": "uint256"
						}
					],
					"name": "LiquidityRemoved",
					"type": "event"
				},
				{
					"anonymous": false,
					"inputs": [
						{
							"indexed": true,
							"internalType": "address",
							"name": "tokenIn",
							"type": "address"
						},
						{
							"indexed": false,
							"internalType": "uint256",
							"name": "amountIn",
							"type": "uint256"
						},
						{
							"indexed": true,
							"internalType": "address",
							"name": "tokenOut",
							"type": "address"
						},
						{
							"indexed": false,
							"internalType": "uint256",
							"name": "amountOut",
							"type": "uint256"
						}
					],
					"name": "SwapSuccess",
					"type": "event"
				},
				{
					"anonymous": false,
					"inputs": [
						{
							"indexed": true,
							"internalType": "address",
							"name": "from",
							"type": "address"
						},
						{
							"indexed": true,
							"internalType": "address",
							"name": "to",
							"type": "address"
						},
						{
							"indexed": false,
							"internalType": "uint256",
							"name": "value",
							"type": "uint256"
						}
					],
					"name": "Transfer",
					"type": "event"
				},
				{
					"inputs": [
						{
							"internalType": "uint256",
							"name": "token0Amount",
							"type": "uint256"
						},
						{
							"internalType": "uint256",
							"name": "token1Amount",
							"type": "uint256"
						}
					],
					"name": "addLiquidity",
					"outputs": [
						{
							"internalType": "uint256",
							"name": "liquidity",
							"type": "uint256"
						}
					],
					"stateMutability": "nonpayable",
					"type": "function"
				},
				{
					"inputs": [
						{
							"internalType": "address",
							"name": "owner",
							"type": "address"
						},
						{
							"internalType": "address",
							"name": "spender",
							"type": "address"
						}
					],
					"name": "allowance",
					"outputs": [
						{
							"internalType": "uint256",
							"name": "",
							"type": "uint256"
						}
					],
					"stateMutability": "view",
					"type": "function"
				},
				{
					"inputs": [
						{
							"internalType": "address",
							"name": "spender",
							"type": "address"
						},
						{
							"internalType": "uint256",
							"name": "value",
							"type": "uint256"
						}
					],
					"name": "approve",
					"outputs": [
						{
							"internalType": "bool",
							"name": "",
							"type": "bool"
						}
					],
					"stateMutability": "nonpayable",
					"type": "function"
				},
				{
					"inputs": [
						{
							"internalType": "address",
							"name": "account",
							"type": "address"
						}
					],
					"name": "balanceOf",
					"outputs": [
						{
							"internalType": "uint256",
							"name": "",
							"type": "uint256"
						}
					],
					"stateMutability": "view",
					"type": "function"
				},
				{
					"inputs": [
						{
							"internalType": "uint256",
							"name": "amountIn",
							"type": "uint256"
						},
						{
							"internalType": "uint256",
							"name": "reserveIn",
							"type": "uint256"
						},
						{
							"internalType": "uint256",
							"name": "reserveOut",
							"type": "uint256"
						}
					],
					"name": "calculateSwapOutAmount",
					"outputs": [
						{
							"internalType": "uint256",
							"name": "amountOut",
							"type": "uint256"
						}
					],
					"stateMutability": "pure",
					"type": "function"
				},
				{
					"inputs": [],
					"name": "decimals",
					"outputs": [
						{
							"internalType": "uint8",
							"name": "",
							"type": "uint8"
						}
					],
					"stateMutability": "view",
					"type": "function"
				},
				{
					"inputs": [],
					"name": "name",
					"outputs": [
						{
							"internalType": "string",
							"name": "",
							"type": "string"
						}
					],
					"stateMutability": "view",
					"type": "function"
				},
				{
					"inputs": [
						{
							"internalType": "uint256",
							"name": "liquidity",
							"type": "uint256"
						}
					],
					"name": "removeLiquidity",
					"outputs": [
						{
							"internalType": "uint256",
							"name": "token0Amount",
							"type": "uint256"
						},
						{
							"internalType": "uint256",
							"name": "token1Amount",
							"type": "uint256"
						}
					],
					"stateMutability": "nonpayable",
					"type": "function"
				},
				{
					"inputs": [],
					"name": "reserve0",
					"outputs": [
						{
							"internalType": "uint256",
							"name": "",
							"type": "uint256"
						}
					],
					"stateMutability": "view",
					"type": "function"
				},
				{
					"inputs": [],
					"name": "reserve1",
					"outputs": [
						{
							"internalType": "uint256",
							"name": "",
							"type": "uint256"
						}
					],
					"stateMutability": "view",
					"type": "function"
				},
				{
					"inputs": [
						{
							"internalType": "uint256",
							"name": "amountIn",
							"type": "uint256"
						},
						{
							"internalType": "contract IERC20",
							"name": "tokenIn",
							"type": "address"
						},
						{
							"internalType": "uint256",
							"name": "amountOutMin",
							"type": "uint256"
						}
					],
					"name": "swap",
					"outputs": [
						{
							"internalType": "uint256",
							"name": "amountOut",
							"type": "uint256"
						},
						{
							"internalType": "contract IERC20",
							"name": "tokenOut",
							"type": "address"
						}
					],
					"stateMutability": "nonpayable",
					"type": "function"
				},
				{
					"inputs": [],
					"name": "symbol",
					"outputs": [
						{
							"internalType": "string",
							"name": "",
							"type": "string"
						}
					],
					"stateMutability": "view",
					"type": "function"
				},
				{
					"inputs": [],
					"name": "token0",
					"outputs": [
						{
							"internalType": "contract IERC20",
							"name": "",
							"type": "address"
						}
					],
					"stateMutability": "view",
					"type": "function"
				},
				{
					"inputs": [],
					"name": "token1",
					"outputs": [
						{
							"internalType": "contract IERC20",
							"name": "",
							"type": "address"
						}
					],
					"stateMutability": "view",
					"type": "function"
				},
				{
					"inputs": [],
					"name": "totalSupply",
					"outputs": [
						{
							"internalType": "uint256",
							"name": "",
							"type": "uint256"
						}
					],
					"stateMutability": "view",
					"type": "function"
				},
				{
					"inputs": [
						{
							"internalType": "address",
							"name": "to",
							"type": "address"
						},
						{
							"internalType": "uint256",
							"name": "value",
							"type": "uint256"
						}
					],
					"name": "transfer",
					"outputs": [
						{
							"internalType": "bool",
							"name": "",
							"type": "bool"
						}
					],
					"stateMutability": "nonpayable",
					"type": "function"
				},
				{
					"inputs": [
						{
							"internalType": "address",
							"name": "from",
							"type": "address"
						},
						{
							"internalType": "address",
							"name": "to",
							"type": "address"
						},
						{
							"internalType": "uint256",
							"name": "value",
							"type": "uint256"
						}
					],
					"name": "transferFrom",
					"outputs": [
						{
							"internalType": "bool",
							"name": "",
							"type": "bool"
						}
					],
					"stateMutability": "nonpayable",
					"type": "function"
				}
			],
			"devdoc": {
				"errors": {
					"ERC20InsufficientAllowance(address,uint256,uint256)": [
						{
							"details": "Indicates a failure with the `spender`’s `allowance`. Used in transfers.",
							"params": {
								"allowance": "Amount of tokens a `spender` is allowed to operate with.",
								"needed": "Minimum amount required to perform a transfer.",
								"spender": "Address that may be allowed to operate on tokens without being their owner."
							}
						}
					],
					"ERC20InsufficientBalance(address,uint256,uint256)": [
						{
							"details": "Indicates an error related to the current `balance` of a `sender`. Used in transfers.",
							"params": {
								"balance": "Current balance for the interacting account.",
								"needed": "Minimum amount required to perform a transfer.",
								"sender": "Address whose tokens are being transferred."
							}
						}
					],
					"ERC20InvalidApprover(address)": [
						{
							"details": "Indicates a failure with the `approver` of a token to be approved. Used in approvals.",
							"params": {
								"approver": "Address initiating an approval operation."
							}
						}
					],
					"ERC20InvalidReceiver(address)": [
						{
							"details": "Indicates a failure with the token `receiver`. Used in transfers.",
							"params": {
								"receiver": "Address to which tokens are being transferred."
							}
						}
					],
					"ERC20InvalidSender(address)": [
						{
							"details": "Indicates a failure with the token `sender`. Used in transfers.",
							"params": {
								"sender": "Address whose tokens are being transferred."
							}
						}
					],
					"ERC20InvalidSpender(address)": [
						{
							"details": "Indicates a failure with the `spender` to be approved. Used in approvals.",
							"params": {
								"spender": "Address that may be allowed to operate on tokens without being their owner."
							}
						}
					]
				},
				"events": {
					"Approval(address,address,uint256)": {
						"details": "Emitted when the allowance of a `spender` for an `owner` is set by a call to {approve}. `value` is the new allowance."
					},
					"Transfer(address,address,uint256)": {
						"details": "Emitted when `value` tokens are moved from one account (`from`) to another (`to`). Note that `value` may be zero."
					}
				},
				"kind": "dev",
				"methods": {
					"allowance(address,address)": {
						"details": "See {IERC20-allowance}."
					},
					"approve(address,uint256)": {
						"details": "See {IERC20-approve}. NOTE: If `value` is the maximum `uint256`, the allowance is not updated on `transferFrom`. This is semantically equivalent to an infinite approval. Requirements: - `spender` cannot be the zero address."
					},
					"balanceOf(address)": {
						"details": "See {IERC20-balanceOf}."
					},
					"decimals()": {
						"details": "Returns the number of decimals used to get its user representation. For example, if `decimals` equals `2`, a balance of `505` tokens should be displayed to a user as `5.05` (`505 / 10 ** 2`). Tokens usually opt for a value of 18, imitating the relationship between Ether and Wei. This is the default value returned by this function, unless it's overridden. NOTE: This information is only used for _display_ purposes: it in no way affects any of the arithmetic of the contract, including {IERC20-balanceOf} and {IERC20-transfer}."
					},
					"name()": {
						"details": "Returns the name of the token."
					},
					"symbol()": {
						"details": "Returns the symbol of the token, usually a shorter version of the name."
					},
					"totalSupply()": {
						"details": "See {IERC20-totalSupply}."
					},
					"transfer(address,uint256)": {
						"details": "See {IERC20-transfer}. Requirements: - `to` cannot be the zero address. - the caller must have a balance of at least `value`."
					},
					"transferFrom(address,address,uint256)": {
						"details": "See {IERC20-transferFrom}. Skips emitting an {Approval} event indicating an allowance update. This is not required by the ERC. See {xref-ERC20-_approve-address-address-uint256-bool-}[_approve]. NOTE: Does not update the allowance if the current allowance is the maximum `uint256`. Requirements: - `from` and `to` cannot be the zero address. - `from` must have a balance of at least `value`. - the caller must have allowance for ``from``'s tokens of at least `value`."
					}
				},
				"version": 1
			},
			"evm": {
				"assembly": "    /* \"contracts/token/SimpleSwap.sol\":224:8354  contract SimpleSwap is ERC20 {... */\n  mstore(0x40, 0x80)\n    /* \"contracts/token/SimpleSwap.sol\":1009:1138  constructor(IERC20 _token0, IERC20 _token1) ERC20(\"SimpleSwap\", \"SS\") {... */\n  callvalue\n  dup1\n  iszero\n  tag_1\n  jumpi\n  0x00\n  dup1\n  revert\ntag_1:\n  pop\n  mload(0x40)\n  sub(codesize, bytecodeSize)\n  dup1\n  bytecodeSize\n  dup4\n  codecopy\n  dup2\n  dup2\n  add\n  0x40\n  mstore\n  dup2\n  add\n  swap1\n  tag_2\n  swap2\n  swap1\n  tag_3\n  jump\t// in\ntag_2:\n    /* \"@openzeppelin/contracts/token/ERC20/ERC20.sol\":1601:1714  constructor(string memory name_, string memory symbol_) {... */\n  mload(0x40)\n  dup1\n  0x40\n  add\n  0x40\n  mstore\n  dup1\n  0x0a\n  dup2\n  mstore\n  0x20\n  add\n  0x53696d706c655377617000000000000000000000000000000000000000000000\n  dup2\n  mstore\n  pop\n  mload(0x40)\n  dup1\n  0x40\n  add\n  0x40\n  mstore\n  dup1\n  0x02\n  dup2\n  mstore\n  0x20\n  add\n  0x5353000000000000000000000000000000000000000000000000000000000000\n  dup2\n  mstore\n  pop\n    /* \"@openzeppelin/contracts/token/ERC20/ERC20.sol\":1675:1680  name_ */\n  dup2\n    /* \"@openzeppelin/contracts/token/ERC20/ERC20.sol\":1667:1672  _name */\n  0x03\n    /* \"@openzeppelin/contracts/token/ERC20/ERC20.sol\":1667:1680  _name = name_ */\n  swap1\n  dup2\n  tag_7\n  swap2\n  swap1\n  tag_8\n  jump\t// in\ntag_7:\n  pop\n    /* \"@openzeppelin/contracts/token/ERC20/ERC20.sol\":1700:1707  symbol_ */\n  dup1\n    /* \"@openzeppelin/contracts/token/ERC20/ERC20.sol\":1690:1697  _symbol */\n  0x04\n    /* \"@openzeppelin/contracts/token/ERC20/ERC20.sol\":1690:1707  _symbol = symbol_ */\n  swap1\n  dup2\n  tag_9\n  swap2\n  swap1\n  tag_8\n  jump\t// in\ntag_9:\n  pop\n    /* \"@openzeppelin/contracts/token/ERC20/ERC20.sol\":1601:1714  constructor(string memory name_, string memory symbol_) {... */\n  pop\n  pop\n    /* \"contracts/token/SimpleSwap.sol\":1098:1105  _token0 */\n  dup2\n    /* \"contracts/token/SimpleSwap.sol\":1089:1095  token0 */\n  0x05\n  0x00\n    /* \"contracts/token/SimpleSwap.sol\":1089:1105  token0 = _token0 */\n  0x0100\n  exp\n  dup2\n  sload\n  dup2\n  0xffffffffffffffffffffffffffffffffffffffff\n  mul\n  not\n  and\n  swap1\n  dup4\n  0xffffffffffffffffffffffffffffffffffffffff\n  and\n  mul\n  or\n  swap1\n  sstore\n  pop\n    /* \"contracts/token/SimpleSwap.sol\":1124:1131  _token1 */\n  dup1\n    /* \"contracts/token/SimpleSwap.sol\":1115:1121  token1 */\n  0x06\n  0x00\n    /* \"contracts/token/SimpleSwap.sol\":1115:1131  token1 = _token1 */\n  0x0100\n  exp\n  dup2\n  sload\n  dup2\n  0xffffffffffffffffffffffffffffffffffffffff\n  mul\n  not\n  and\n  swap1\n  dup4\n  0xffffffffffffffffffffffffffffffffffffffff\n  and\n  mul\n  or\n  swap1\n  sstore\n  pop\n    /* \"contracts/token/SimpleSwap.sol\":1009:1138  constructor(IERC20 _token0, IERC20 _token1) ERC20(\"SimpleSwap\", \"SS\") {... */\n  pop\n  pop\n    /* \"contracts/token/SimpleSwap.sol\":224:8354  contract SimpleSwap is ERC20 {... */\n  jump(tag_11)\n    /* \"#utility.yul\":88:205   */\ntag_13:\n    /* \"#utility.yul\":197:198   */\n  0x00\n    /* \"#utility.yul\":194:195   */\n  dup1\n    /* \"#utility.yul\":187:199   */\n  revert\n    /* \"#utility.yul\":334:460   */\ntag_15:\n    /* \"#utility.yul\":371:378   */\n  0x00\n    /* \"#utility.yul\":411:453   */\n  0xffffffffffffffffffffffffffffffffffffffff\n    /* \"#utility.yul\":404:409   */\n  dup3\n    /* \"#utility.yul\":400:454   */\n  and\n    /* \"#utility.yul\":389:454   */\n  swap1\n  pop\n    /* \"#utility.yul\":334:460   */\n  swap2\n  swap1\n  pop\n  jump\t// out\n    /* \"#utility.yul\":466:562   */\ntag_16:\n    /* \"#utility.yul\":503:510   */\n  0x00\n    /* \"#utility.yul\":532:556   */\n  tag_46\n    /* \"#utility.yul\":550:555   */\n  dup3\n    /* \"#utility.yul\":532:556   */\n  tag_15\n  jump\t// in\ntag_46:\n    /* \"#utility.yul\":521:556   */\n  swap1\n  pop\n    /* \"#utility.yul\":466:562   */\n  swap2\n  swap1\n  pop\n  jump\t// out\n    /* \"#utility.yul\":568:678   */\ntag_17:\n    /* \"#utility.yul\":619:626   */\n  0x00\n    /* \"#utility.yul\":648:672   */\n  tag_48\n    /* \"#utility.yul\":666:671   */\n  dup3\n    /* \"#utility.yul\":648:672   */\n  tag_16\n  jump\t// in\ntag_48:\n    /* \"#utility.yul\":637:672   */\n  swap1\n  pop\n    /* \"#utility.yul\":568:678   */\n  swap2\n  swap1\n  pop\n  jump\t// out\n    /* \"#utility.yul\":684:834   */\ntag_18:\n    /* \"#utility.yul\":771:809   */\n  tag_50\n    /* \"#utility.yul\":803:808   */\n  dup2\n    /* \"#utility.yul\":771:809   */\n  tag_17\n  jump\t// in\ntag_50:\n    /* \"#utility.yul\":764:769   */\n  dup2\n    /* \"#utility.yul\":761:810   */\n  eq\n    /* \"#utility.yul\":751:828   */\n  tag_51\n  jumpi\n    /* \"#utility.yul\":824:825   */\n  0x00\n    /* \"#utility.yul\":821:822   */\n  dup1\n    /* \"#utility.yul\":814:826   */\n  revert\n    /* \"#utility.yul\":751:828   */\ntag_51:\n    /* \"#utility.yul\":684:834   */\n  pop\n  jump\t// out\n    /* \"#utility.yul\":840:1011   */\ntag_19:\n    /* \"#utility.yul\":911:916   */\n  0x00\n    /* \"#utility.yul\":942:948   */\n  dup2\n    /* \"#utility.yul\":936:949   */\n  mload\n    /* \"#utility.yul\":927:949   */\n  swap1\n  pop\n    /* \"#utility.yul\":958:1005   */\n  tag_53\n    /* \"#utility.yul\":999:1004   */\n  dup2\n    /* \"#utility.yul\":958:1005   */\n  tag_18\n  jump\t// in\ntag_53:\n    /* \"#utility.yul\":840:1011   */\n  swap3\n  swap2\n  pop\n  pop\n  jump\t// out\n    /* \"#utility.yul\":1017:1580   */\ntag_3:\n    /* \"#utility.yul\":1124:1130   */\n  0x00\n    /* \"#utility.yul\":1132:1138   */\n  dup1\n    /* \"#utility.yul\":1181:1183   */\n  0x40\n    /* \"#utility.yul\":1169:1178   */\n  dup4\n    /* \"#utility.yul\":1160:1167   */\n  dup6\n    /* \"#utility.yul\":1156:1179   */\n  sub\n    /* \"#utility.yul\":1152:1184   */\n  slt\n    /* \"#utility.yul\":1149:1268   */\n  iszero\n  tag_55\n  jumpi\n    /* \"#utility.yul\":1187:1266   */\n  tag_56\n  tag_13\n  jump\t// in\ntag_56:\n    /* \"#utility.yul\":1149:1268   */\ntag_55:\n    /* \"#utility.yul\":1307:1308   */\n  0x00\n    /* \"#utility.yul\":1332:1410   */\n  tag_57\n    /* \"#utility.yul\":1402:1409   */\n  dup6\n    /* \"#utility.yul\":1393:1399   */\n  dup3\n    /* \"#utility.yul\":1382:1391   */\n  dup7\n    /* \"#utility.yul\":1378:1400   */\n  add\n    /* \"#utility.yul\":1332:1410   */\n  tag_19\n  jump\t// in\ntag_57:\n    /* \"#utility.yul\":1322:1410   */\n  swap3\n  pop\n    /* \"#utility.yul\":1278:1420   */\n  pop\n    /* \"#utility.yul\":1459:1461   */\n  0x20\n    /* \"#utility.yul\":1485:1563   */\n  tag_58\n    /* \"#utility.yul\":1555:1562   */\n  dup6\n    /* \"#utility.yul\":1546:1552   */\n  dup3\n    /* \"#utility.yul\":1535:1544   */\n  dup7\n    /* \"#utility.yul\":1531:1553   */\n  add\n    /* \"#utility.yul\":1485:1563   */\n  tag_19\n  jump\t// in\ntag_58:\n    /* \"#utility.yul\":1475:1563   */\n  swap2\n  pop\n    /* \"#utility.yul\":1430:1573   */\n  pop\n    /* \"#utility.yul\":1017:1580   */\n  swap3\n  pop\n  swap3\n  swap1\n  pop\n  jump\t// out\n    /* \"#utility.yul\":1586:1685   */\ntag_20:\n    /* \"#utility.yul\":1638:1644   */\n  0x00\n    /* \"#utility.yul\":1672:1677   */\n  dup2\n    /* \"#utility.yul\":1666:1678   */\n  mload\n    /* \"#utility.yul\":1656:1678   */\n  swap1\n  pop\n    /* \"#utility.yul\":1586:1685   */\n  swap2\n  swap1\n  pop\n  jump\t// out\n    /* \"#utility.yul\":1691:1871   */\ntag_21:\n    /* \"#utility.yul\":1739:1816   */\n  0x4e487b7100000000000000000000000000000000000000000000000000000000\n    /* \"#utility.yul\":1736:1737   */\n  0x00\n    /* \"#utility.yul\":1729:1817   */\n  mstore\n    /* \"#utility.yul\":1836:1840   */\n  0x41\n    /* \"#utility.yul\":1833:1834   */\n  0x04\n    /* \"#utility.yul\":1826:1841   */\n  mstore\n    /* \"#utility.yul\":1860:1864   */\n  0x24\n    /* \"#utility.yul\":1857:1858   */\n  0x00\n    /* \"#utility.yul\":1850:1865   */\n  revert\n    /* \"#utility.yul\":1877:2057   */\ntag_22:\n    /* \"#utility.yul\":1925:2002   */\n  0x4e487b7100000000000000000000000000000000000000000000000000000000\n    /* \"#utility.yul\":1922:1923   */\n  0x00\n    /* \"#utility.yul\":1915:2003   */\n  mstore\n    /* \"#utility.yul\":2022:2026   */\n  0x22\n    /* \"#utility.yul\":2019:2020   */\n  0x04\n    /* \"#utility.yul\":2012:2027   */\n  mstore\n    /* \"#utility.yul\":2046:2050   */\n  0x24\n    /* \"#utility.yul\":2043:2044   */\n  0x00\n    /* \"#utility.yul\":2036:2051   */\n  revert\n    /* \"#utility.yul\":2063:2383   */\ntag_23:\n    /* \"#utility.yul\":2107:2113   */\n  0x00\n    /* \"#utility.yul\":2144:2145   */\n  0x02\n    /* \"#utility.yul\":2138:2142   */\n  dup3\n    /* \"#utility.yul\":2134:2146   */\n  div\n    /* \"#utility.yul\":2124:2146   */\n  swap1\n  pop\n    /* \"#utility.yul\":2191:2192   */\n  0x01\n    /* \"#utility.yul\":2185:2189   */\n  dup3\n    /* \"#utility.yul\":2181:2193   */\n  and\n    /* \"#utility.yul\":2212:2230   */\n  dup1\n    /* \"#utility.yul\":2202:2283   */\n  tag_63\n  jumpi\n    /* \"#utility.yul\":2268:2272   */\n  0x7f\n    /* \"#utility.yul\":2260:2266   */\n  dup3\n    /* \"#utility.yul\":2256:2273   */\n  and\n    /* \"#utility.yul\":2246:2273   */\n  swap2\n  pop\n    /* \"#utility.yul\":2202:2283   */\ntag_63:\n    /* \"#utility.yul\":2330:2332   */\n  0x20\n    /* \"#utility.yul\":2322:2328   */\n  dup3\n    /* \"#utility.yul\":2319:2333   */\n  lt\n    /* \"#utility.yul\":2299:2317   */\n  dup2\n    /* \"#utility.yul\":2296:2334   */\n  sub\n    /* \"#utility.yul\":2293:2377   */\n  tag_64\n  jumpi\n    /* \"#utility.yul\":2349:2367   */\n  tag_65\n  tag_22\n  jump\t// in\ntag_65:\n    /* \"#utility.yul\":2293:2377   */\ntag_64:\n    /* \"#utility.yul\":2114:2383   */\n  pop\n    /* \"#utility.yul\":2063:2383   */\n  swap2\n  swap1\n  pop\n  jump\t// out\n    /* \"#utility.yul\":2389:2530   */\ntag_24:\n    /* \"#utility.yul\":2438:2442   */\n  0x00\n    /* \"#utility.yul\":2461:2464   */\n  dup2\n    /* \"#utility.yul\":2453:2464   */\n  swap1\n  pop\n    /* \"#utility.yul\":2484:2487   */\n  dup2\n    /* \"#utility.yul\":2481:2482   */\n  0x00\n    /* \"#utility.yul\":2474:2488   */\n  mstore\n    /* \"#utility.yul\":2518:2522   */\n  0x20\n    /* \"#utility.yul\":2515:2516   */\n  0x00\n    /* \"#utility.yul\":2505:2523   */\n  keccak256\n    /* \"#utility.yul\":2497:2523   */\n  swap1\n  pop\n    /* \"#utility.yul\":2389:2530   */\n  swap2\n  swap1\n  pop\n  jump\t// out\n    /* \"#utility.yul\":2536:2629   */\ntag_25:\n    /* \"#utility.yul\":2573:2579   */\n  0x00\n    /* \"#utility.yul\":2620:2622   */\n  0x20\n    /* \"#utility.yul\":2615:2617   */\n  0x1f\n    /* \"#utility.yul\":2608:2613   */\n  dup4\n    /* \"#utility.yul\":2604:2618   */\n  add\n    /* \"#utility.yul\":2600:2623   */\n  div\n    /* \"#utility.yul\":2590:2623   */\n  swap1\n  pop\n    /* \"#utility.yul\":2536:2629   */\n  swap2\n  swap1\n  pop\n  jump\t// out\n    /* \"#utility.yul\":2635:2742   */\ntag_26:\n    /* \"#utility.yul\":2679:2687   */\n  0x00\n    /* \"#utility.yul\":2729:2734   */\n  dup3\n    /* \"#utility.yul\":2723:2727   */\n  dup3\n    /* \"#utility.yul\":2719:2735   */\n  shl\n    /* \"#utility.yul\":2698:2735   */\n  swap1\n  pop\n    /* \"#utility.yul\":2635:2742   */\n  swap3\n  swap2\n  pop\n  pop\n  jump\t// out\n    /* \"#utility.yul\":2748:3141   */\ntag_27:\n    /* \"#utility.yul\":2817:2823   */\n  0x00\n    /* \"#utility.yul\":2867:2868   */\n  0x08\n    /* \"#utility.yul\":2855:2865   */\n  dup4\n    /* \"#utility.yul\":2851:2869   */\n  mul\n    /* \"#utility.yul\":2890:2987   */\n  tag_70\n    /* \"#utility.yul\":2920:2986   */\n  0xffffffffffffffffffffffffffffffffffffffffffffffffffffffffffffffff\n    /* \"#utility.yul\":2909:2918   */\n  dup3\n    /* \"#utility.yul\":2890:2987   */\n  tag_26\n  jump\t// in\ntag_70:\n    /* \"#utility.yul\":3008:3047   */\n  tag_71\n    /* \"#utility.yul\":3038:3046   */\n  dup7\n    /* \"#utility.yul\":3027:3036   */\n  dup4\n    /* \"#utility.yul\":3008:3047   */\n  tag_26\n  jump\t// in\ntag_71:\n    /* \"#utility.yul\":2996:3047   */\n  swap6\n  pop\n    /* \"#utility.yul\":3080:3084   */\n  dup1\n    /* \"#utility.yul\":3076:3085   */\n  not\n    /* \"#utility.yul\":3069:3074   */\n  dup5\n    /* \"#utility.yul\":3065:3086   */\n  and\n    /* \"#utility.yul\":3056:3086   */\n  swap4\n  pop\n    /* \"#utility.yul\":3129:3133   */\n  dup1\n    /* \"#utility.yul\":3119:3127   */\n  dup7\n    /* \"#utility.yul\":3115:3134   */\n  and\n    /* \"#utility.yul\":3108:3113   */\n  dup5\n    /* \"#utility.yul\":3105:3135   */\n  or\n    /* \"#utility.yul\":3095:3135   */\n  swap3\n  pop\n    /* \"#utility.yul\":2824:3141   */\n  pop\n  pop\n    /* \"#utility.yul\":2748:3141   */\n  swap4\n  swap3\n  pop\n  pop\n  pop\n  jump\t// out\n    /* \"#utility.yul\":3147:3224   */\ntag_28:\n    /* \"#utility.yul\":3184:3191   */\n  0x00\n    /* \"#utility.yul\":3213:3218   */\n  dup2\n    /* \"#utility.yul\":3202:3218   */\n  swap1\n  pop\n    /* \"#utility.yul\":3147:3224   */\n  swap2\n  swap1\n  pop\n  jump\t// out\n    /* \"#utility.yul\":3230:3290   */\ntag_29:\n    /* \"#utility.yul\":3258:3261   */\n  0x00\n    /* \"#utility.yul\":3279:3284   */\n  dup2\n    /* \"#utility.yul\":3272:3284   */\n  swap1\n  pop\n    /* \"#utility.yul\":3230:3290   */\n  swap2\n  swap1\n  pop\n  jump\t// out\n    /* \"#utility.yul\":3296:3438   */\ntag_30:\n    /* \"#utility.yul\":3346:3355   */\n  0x00\n    /* \"#utility.yul\":3379:3432   */\n  tag_75\n    /* \"#utility.yul\":3397:3431   */\n  tag_76\n    /* \"#utility.yul\":3406:3430   */\n  tag_77\n    /* \"#utility.yul\":3424:3429   */\n  dup5\n    /* \"#utility.yul\":3406:3430   */\n  tag_28\n  jump\t// in\ntag_77:\n    /* \"#utility.yul\":3397:3431   */\n  tag_29\n  jump\t// in\ntag_76:\n    /* \"#utility.yul\":3379:3432   */\n  tag_28\n  jump\t// in\ntag_75:\n    /* \"#utility.yul\":3366:3432   */\n  swap1\n  pop\n    /* \"#utility.yul\":3296:3438   */\n  swap2\n  swap1\n  pop\n  jump\t// out\n    /* \"#utility.yul\":3444:3519   */\ntag_31:\n    /* \"#utility.yul\":3487:3490   */\n  0x00\n    /* \"#utility.yul\":3508:3513   */\n  dup2\n    /* \"#utility.yul\":3501:3513   */\n  swap1\n  pop\n    /* \"#utility.yul\":3444:3519   */\n  swap2\n  swap1\n  pop\n  jump\t// out\n    /* \"#utility.yul\":3525:3794   */\ntag_32:\n    /* \"#utility.yul\":3635:3674   */\n  tag_80\n    /* \"#utility.yul\":3666:3673   */\n  dup4\n    /* \"#utility.yul\":3635:3674   */\n  tag_30\n  jump\t// in\ntag_80:\n    /* \"#utility.yul\":3696:3787   */\n  tag_81\n    /* \"#utility.yul\":3745:3786   */\n  tag_82\n    /* \"#utility.yul\":3769:3785   */\n  dup3\n    /* \"#utility.yul\":3745:3786   */\n  tag_31\n  jump\t// in\ntag_82:\n    /* \"#utility.yul\":3737:3743   */\n  dup5\n    /* \"#utility.yul\":3730:3734   */\n  dup5\n    /* \"#utility.yul\":3724:3735   */\n  sload\n    /* \"#utility.yul\":3696:3787   */\n  tag_27\n  jump\t// in\ntag_81:\n    /* \"#utility.yul\":3690:3694   */\n  dup3\n    /* \"#utility.yul\":3683:3788   */\n  sstore\n    /* \"#utility.yul\":3601:3794   */\n  pop\n    /* \"#utility.yul\":3525:3794   */\n  pop\n  pop\n  pop\n  jump\t// out\n    /* \"#utility.yul\":3800:3873   */\ntag_33:\n    /* \"#utility.yul\":3845:3848   */\n  0x00\n    /* \"#utility.yul\":3800:3873   */\n  swap1\n  jump\t// out\n    /* \"#utility.yul\":3879:4068   */\ntag_34:\n    /* \"#utility.yul\":3956:3988   */\n  tag_85\n  tag_33\n  jump\t// in\ntag_85:\n    /* \"#utility.yul\":3997:4062   */\n  tag_86\n    /* \"#utility.yul\":4055:4061   */\n  dup2\n    /* \"#utility.yul\":4047:4053   */\n  dup5\n    /* \"#utility.yul\":4041:4045   */\n  dup5\n    /* \"#utility.yul\":3997:4062   */\n  tag_32\n  jump\t// in\ntag_86:\n    /* \"#utility.yul\":3932:4068   */\n  pop\n    /* \"#utility.yul\":3879:4068   */\n  pop\n  pop\n  jump\t// out\n    /* \"#utility.yul\":4074:4260   */\ntag_35:\n    /* \"#utility.yul\":4134:4254   */\ntag_88:\n    /* \"#utility.yul\":4151:4154   */\n  dup2\n    /* \"#utility.yul\":4144:4149   */\n  dup2\n    /* \"#utility.yul\":4141:4155   */\n  lt\n    /* \"#utility.yul\":4134:4254   */\n  iszero\n  tag_90\n  jumpi\n    /* \"#utility.yul\":4205:4244   */\n  tag_91\n    /* \"#utility.yul\":4242:4243   */\n  0x00\n    /* \"#utility.yul\":4235:4240   */\n  dup3\n    /* \"#utility.yul\":4205:4244   */\n  tag_34\n  jump\t// in\ntag_91:\n    /* \"#utility.yul\":4178:4179   */\n  0x01\n    /* \"#utility.yul\":4171:4176   */\n  dup2\n    /* \"#utility.yul\":4167:4180   */\n  add\n    /* \"#utility.yul\":4158:4180   */\n  swap1\n  pop\n    /* \"#utility.yul\":4134:4254   */\n  jump(tag_88)\ntag_90:\n    /* \"#utility.yul\":4074:4260   */\n  pop\n  pop\n  jump\t// out\n    /* \"#utility.yul\":4266:4809   */\ntag_36:\n    /* \"#utility.yul\":4367:4369   */\n  0x1f\n    /* \"#utility.yul\":4362:4365   */\n  dup3\n    /* \"#utility.yul\":4359:4370   */\n  gt\n    /* \"#utility.yul\":4356:4802   */\n  iszero\n  tag_93\n  jumpi\n    /* \"#utility.yul\":4401:4439   */\n  tag_94\n    /* \"#utility.yul\":4433:4438   */\n  dup2\n    /* \"#utility.yul\":4401:4439   */\n  tag_24\n  jump\t// in\ntag_94:\n    /* \"#utility.yul\":4485:4514   */\n  tag_95\n    /* \"#utility.yul\":4503:4513   */\n  dup5\n    /* \"#utility.yul\":4485:4514   */\n  tag_25\n  jump\t// in\ntag_95:\n    /* \"#utility.yul\":4475:4483   */\n  dup2\n    /* \"#utility.yul\":4471:4515   */\n  add\n    /* \"#utility.yul\":4668:4670   */\n  0x20\n    /* \"#utility.yul\":4656:4666   */\n  dup6\n    /* \"#utility.yul\":4653:4671   */\n  lt\n    /* \"#utility.yul\":4650:4699   */\n  iszero\n  tag_96\n  jumpi\n    /* \"#utility.yul\":4689:4697   */\n  dup2\n    /* \"#utility.yul\":4674:4697   */\n  swap1\n  pop\n    /* \"#utility.yul\":4650:4699   */\ntag_96:\n    /* \"#utility.yul\":4712:4792   */\n  tag_97\n    /* \"#utility.yul\":4768:4790   */\n  tag_98\n    /* \"#utility.yul\":4786:4789   */\n  dup6\n    /* \"#utility.yul\":4768:4790   */\n  tag_25\n  jump\t// in\ntag_98:\n    /* \"#utility.yul\":4758:4766   */\n  dup4\n    /* \"#utility.yul\":4754:4791   */\n  add\n    /* \"#utility.yul\":4741:4752   */\n  dup3\n    /* \"#utility.yul\":4712:4792   */\n  tag_35\n  jump\t// in\ntag_97:\n    /* \"#utility.yul\":4371:4802   */\n  pop\n  pop\n    /* \"#utility.yul\":4356:4802   */\ntag_93:\n    /* \"#utility.yul\":4266:4809   */\n  pop\n  pop\n  pop\n  jump\t// out\n    /* \"#utility.yul\":4815:4932   */\ntag_37:\n    /* \"#utility.yul\":4869:4877   */\n  0x00\n    /* \"#utility.yul\":4919:4924   */\n  dup3\n    /* \"#utility.yul\":4913:4917   */\n  dup3\n    /* \"#utility.yul\":4909:4925   */\n  shr\n    /* \"#utility.yul\":4888:4925   */\n  swap1\n  pop\n    /* \"#utility.yul\":4815:4932   */\n  swap3\n  swap2\n  pop\n  pop\n  jump\t// out\n    /* \"#utility.yul\":4938:5107   */\ntag_38:\n    /* \"#utility.yul\":4982:4988   */\n  0x00\n    /* \"#utility.yul\":5015:5066   */\n  tag_101\n    /* \"#utility.yul\":5063:5064   */\n  0x00\n    /* \"#utility.yul\":5059:5065   */\n  not\n    /* \"#utility.yul\":5051:5056   */\n  dup5\n    /* \"#utility.yul\":5048:5049   */\n  0x08\n    /* \"#utility.yul\":5044:5057   */\n  mul\n    /* \"#utility.yul\":5015:5066   */\n  tag_37\n  jump\t// in\ntag_101:\n    /* \"#utility.yul\":5011:5067   */\n  not\n    /* \"#utility.yul\":5096:5100   */\n  dup1\n    /* \"#utility.yul\":5090:5094   */\n  dup4\n    /* \"#utility.yul\":5086:5101   */\n  and\n    /* \"#utility.yul\":5076:5101   */\n  swap2\n  pop\n    /* \"#utility.yul\":4989:5107   */\n  pop\n    /* \"#utility.yul\":4938:5107   */\n  swap3\n  swap2\n  pop\n  pop\n  jump\t// out\n    /* \"#utility.yul\":5112:5407   */\ntag_39:\n    /* \"#utility.yul\":5188:5192   */\n  0x00\n    /* \"#utility.yul\":5334:5363   */\n  tag_103\n    /* \"#utility.yul\":5359:5362   */\n  dup4\n    /* \"#utility.yul\":5353:5357   */\n  dup4\n    /* \"#utility.yul\":5334:5363   */\n  tag_38\n  jump\t// in\ntag_103:\n    /* \"#utility.yul\":5326:5363   */\n  swap2\n  pop\n    /* \"#utility.yul\":5396:5399   */\n  dup3\n    /* \"#utility.yul\":5393:5394   */\n  0x02\n    /* \"#utility.yul\":5389:5400   */\n  mul\n    /* \"#utility.yul\":5383:5387   */\n  dup3\n    /* \"#utility.yul\":5380:5401   */\n  or\n    /* \"#utility.yul\":5372:5401   */\n  swap1\n  pop\n    /* \"#utility.yul\":5112:5407   */\n  swap3\n  swap2\n  pop\n  pop\n  jump\t// out\n    /* \"#utility.yul\":5412:6807   */\ntag_8:\n    /* \"#utility.yul\":5529:5566   */\n  tag_105\n    /* \"#utility.yul\":5562:5565   */\n  dup3\n    /* \"#utility.yul\":5529:5566   */\n  tag_20\n  jump\t// in\ntag_105:\n    /* \"#utility.yul\":5631:5649   */\n  0xffffffffffffffff\n    /* \"#utility.yul\":5623:5629   */\n  dup2\n    /* \"#utility.yul\":5620:5650   */\n  gt\n    /* \"#utility.yul\":5617:5673   */\n  iszero\n  tag_106\n  jumpi\n    /* \"#utility.yul\":5653:5671   */\n  tag_107\n  tag_21\n  jump\t// in\ntag_107:\n    /* \"#utility.yul\":5617:5673   */\ntag_106:\n    /* \"#utility.yul\":5697:5735   */\n  tag_108\n    /* \"#utility.yul\":5729:5733   */\n  dup3\n    /* \"#utility.yul\":5723:5734   */\n  sload\n    /* \"#utility.yul\":5697:5735   */\n  tag_23\n  jump\t// in\ntag_108:\n    /* \"#utility.yul\":5782:5849   */\n  tag_109\n    /* \"#utility.yul\":5842:5848   */\n  dup3\n    /* \"#utility.yul\":5834:5840   */\n  dup3\n    /* \"#utility.yul\":5828:5832   */\n  dup6\n    /* \"#utility.yul\":5782:5849   */\n  tag_36\n  jump\t// in\ntag_109:\n    /* \"#utility.yul\":5876:5877   */\n  0x00\n    /* \"#utility.yul\":5900:5904   */\n  0x20\n    /* \"#utility.yul\":5887:5904   */\n  swap1\n  pop\n    /* \"#utility.yul\":5932:5934   */\n  0x1f\n    /* \"#utility.yul\":5924:5930   */\n  dup4\n    /* \"#utility.yul\":5921:5935   */\n  gt\n    /* \"#utility.yul\":5949:5950   */\n  0x01\n    /* \"#utility.yul\":5944:6562   */\n  dup2\n  eq\n  tag_111\n  jumpi\n    /* \"#utility.yul\":6606:6607   */\n  0x00\n    /* \"#utility.yul\":6623:6629   */\n  dup5\n    /* \"#utility.yul\":6620:6697   */\n  iszero\n  tag_112\n  jumpi\n    /* \"#utility.yul\":6672:6681   */\n  dup3\n    /* \"#utility.yul\":6667:6670   */\n  dup8\n    /* \"#utility.yul\":6663:6682   */\n  add\n    /* \"#utility.yul\":6657:6683   */\n  mload\n    /* \"#utility.yul\":6648:6683   */\n  swap1\n  pop\n    /* \"#utility.yul\":6620:6697   */\ntag_112:\n    /* \"#utility.yul\":6723:6790   */\n  tag_113\n    /* \"#utility.yul\":6783:6789   */\n  dup6\n    /* \"#utility.yul\":6776:6781   */\n  dup3\n    /* \"#utility.yul\":6723:6790   */\n  tag_39\n  jump\t// in\ntag_113:\n    /* \"#utility.yul\":6717:6721   */\n  dup7\n    /* \"#utility.yul\":6710:6791   */\n  sstore\n    /* \"#utility.yul\":6579:6801   */\n  pop\n    /* \"#utility.yul\":5914:6801   */\n  jump(tag_110)\n    /* \"#utility.yul\":5944:6562   */\ntag_111:\n    /* \"#utility.yul\":5996:6000   */\n  0x1f\n    /* \"#utility.yul\":5992:6001   */\n  not\n    /* \"#utility.yul\":5984:5990   */\n  dup5\n    /* \"#utility.yul\":5980:6002   */\n  and\n    /* \"#utility.yul\":6030:6067   */\n  tag_114\n    /* \"#utility.yul\":6062:6066   */\n  dup7\n    /* \"#utility.yul\":6030:6067   */\n  tag_24\n  jump\t// in\ntag_114:\n    /* \"#utility.yul\":6089:6090   */\n  0x00\n    /* \"#utility.yul\":6103:6311   */\ntag_115:\n    /* \"#utility.yul\":6117:6124   */\n  dup3\n    /* \"#utility.yul\":6114:6115   */\n  dup2\n    /* \"#utility.yul\":6111:6125   */\n  lt\n    /* \"#utility.yul\":6103:6311   */\n  iszero\n  tag_117\n  jumpi\n    /* \"#utility.yul\":6196:6205   */\n  dup5\n    /* \"#utility.yul\":6191:6194   */\n  dup10\n    /* \"#utility.yul\":6187:6206   */\n  add\n    /* \"#utility.yul\":6181:6207   */\n  mload\n    /* \"#utility.yul\":6173:6179   */\n  dup3\n    /* \"#utility.yul\":6166:6208   */\n  sstore\n    /* \"#utility.yul\":6247:6248   */\n  0x01\n    /* \"#utility.yul\":6239:6245   */\n  dup3\n    /* \"#utility.yul\":6235:6249   */\n  add\n    /* \"#utility.yul\":6225:6249   */\n  swap2\n  pop\n    /* \"#utility.yul\":6294:6296   */\n  0x20\n    /* \"#utility.yul\":6283:6292   */\n  dup6\n    /* \"#utility.yul\":6279:6297   */\n  add\n    /* \"#utility.yul\":6266:6297   */\n  swap5\n  pop\n    /* \"#utility.yul\":6140:6144   */\n  0x20\n    /* \"#utility.yul\":6137:6138   */\n  dup2\n    /* \"#utility.yul\":6133:6145   */\n  add\n    /* \"#utility.yul\":6128:6145   */\n  swap1\n  pop\n    /* \"#utility.yul\":6103:6311   */\n  jump(tag_115)\ntag_117:\n    /* \"#utility.yul\":6339:6345   */\n  dup7\n    /* \"#utility.yul\":6330:6337   */\n  dup4\n    /* \"#utility.yul\":6327:6346   */\n  lt\n    /* \"#utility.yul\":6324:6503   */\n  iszero\n  tag_118\n  jumpi\n    /* \"#utility.yul\":6397:6406   */\n  dup5\n    /* \"#utility.yul\":6392:6395   */\n  dup10\n    /* \"#utility.yul\":6388:6407   */\n  add\n    /* \"#utility.yul\":6382:6408   */\n  mload\n    /* \"#utility.yul\":6440:6488   */\n  tag_119\n    /* \"#utility.yul\":6482:6486   */\n  0x1f\n    /* \"#utility.yul\":6474:6480   */\n  dup10\n    /* \"#utility.yul\":6470:6487   */\n  and\n    /* \"#utility.yul\":6459:6468   */\n  dup3\n    /* \"#utility.yul\":6440:6488   */\n  tag_38\n  jump\t// in\ntag_119:\n    /* \"#utility.yul\":6432:6438   */\n  dup4\n    /* \"#utility.yul\":6425:6489   */\n  sstore\n    /* \"#utility.yul\":6347:6503   */\n  pop\n    /* \"#utility.yul\":6324:6503   */\ntag_118:\n    /* \"#utility.yul\":6549:6550   */\n  0x01\n    /* \"#utility.yul\":6545:6546   */\n  0x02\n    /* \"#utility.yul\":6537:6543   */\n  dup9\n    /* \"#utility.yul\":6533:6547   */\n  mul\n    /* \"#utility.yul\":6529:6551   */\n  add\n    /* \"#utility.yul\":6523:6527   */\n  dup9\n    /* \"#utility.yul\":6516:6552   */\n  sstore\n    /* \"#utility.yul\":5951:6562   */\n  pop\n  pop\n  pop\n    /* \"#utility.yul\":5914:6801   */\ntag_110:\n  pop\n    /* \"#utility.yul\":5504:6807   */\n  pop\n  pop\n  pop\n    /* \"#utility.yul\":5412:6807   */\n  pop\n  pop\n  jump\t// out\n    /* \"contracts/token/SimpleSwap.sol\":224:8354  contract SimpleSwap is ERC20 {... */\ntag_11:\n  dataSize(sub_0)\n  dup1\n  dataOffset(sub_0)\n  0x00\n  codecopy\n  0x00\n  return\nstop\n\nsub_0: assembly {\n        /* \"contracts/token/SimpleSwap.sol\":224:8354  contract SimpleSwap is ERC20 {... */\n      mstore(0x40, 0x80)\n      callvalue\n      dup1\n      iszero\n      tag_1\n      jumpi\n      0x00\n      dup1\n      revert\n    tag_1:\n      pop\n      jumpi(tag_2, lt(calldatasize, 0x04))\n      shr(0xe0, calldataload(0x00))\n      dup1\n      0x5a76f25e\n      gt\n      tag_20\n      jumpi\n      dup1\n      0x9cd441da\n      gt\n      tag_21\n      jumpi\n      dup1\n      0x9cd441da\n      eq\n      tag_15\n      jumpi\n      dup1\n      0xa3919e42\n      eq\n      tag_16\n      jumpi\n      dup1\n      0xa9059cbb\n      eq\n      tag_17\n      jumpi\n      dup1\n      0xd21220a7\n      eq\n      tag_18\n      jumpi\n      dup1\n      0xdd62ed3e\n      eq\n      tag_19\n      jumpi\n      jump(tag_2)\n    tag_21:\n      dup1\n      0x5a76f25e\n      eq\n      tag_11\n      jumpi\n      dup1\n      0x70a08231\n      eq\n      tag_12\n      jumpi\n      dup1\n      0x95d89b41\n      eq\n      tag_13\n      jumpi\n      dup1\n      0x9c8f9f23\n      eq\n      tag_14\n      jumpi\n      jump(tag_2)\n    tag_20:\n      dup1\n      0x23b872dd\n      gt\n      tag_22\n      jumpi\n      dup1\n      0x23b872dd\n      eq\n      tag_7\n      jumpi\n      dup1\n      0x313ce567\n      eq\n      tag_8\n      jumpi\n      dup1\n      0x43264349\n      eq\n      tag_9\n      jumpi\n      dup1\n      0x443cb4bc\n      eq\n      tag_10\n      jumpi\n      jump(tag_2)\n    tag_22:\n      dup1\n      0x06fdde03\n      eq\n      tag_3\n      jumpi\n      dup1\n      0x095ea7b3\n      eq\n      tag_4\n      jumpi\n      dup1\n      0x0dfe1681\n      eq\n      tag_5\n      jumpi\n      dup1\n      0x18160ddd\n      eq\n      tag_6\n      jumpi\n    tag_2:\n      0x00\n      dup1\n      revert\n        /* \"@openzeppelin/contracts/token/ERC20/ERC20.sol\":1779:1868  function name() public view virtual returns (string memory) {... */\n    tag_3:\n      tag_23\n      tag_24\n      jump\t// in\n    tag_23:\n      mload(0x40)\n      tag_25\n      swap2\n      swap1\n      tag_26\n      jump\t// in\n    tag_25:\n      mload(0x40)\n      dup1\n      swap2\n      sub\n      swap1\n      return\n        /* \"@openzeppelin/contracts/token/ERC20/ERC20.sol\":3998:4184  function approve(address spender, uint256 value) public virtual returns (bool) {... */\n    tag_4:\n      tag_27\n      0x04\n      dup1\n      calldatasize\n      sub\n      dup2\n      add\n      swap1\n      tag_28\n      swap2\n      swap1\n      tag_29\n      jump\t// in\n    tag_28:\n      tag_30\n      jump\t// in\n    tag_27:\n      mload(0x40)\n      tag_31\n      swap2\n      swap1\n      tag_32\n      jump\t// in\n    tag_31:\n      mload(0x40)\n      dup1\n      swap2\n      sub\n      swap1\n      return\n        /* \"contracts/token/SimpleSwap.sol\":851:871  IERC20 public token0 */\n    tag_5:\n      tag_33\n      tag_34\n      jump\t// in\n    tag_33:\n      mload(0x40)\n      tag_35\n      swap2\n      swap1\n      tag_36\n      jump\t// in\n    tag_35:\n      mload(0x40)\n      dup1\n      swap2\n      sub\n      swap1\n      return\n        /* \"@openzeppelin/contracts/token/ERC20/ERC20.sol\":2849:2946  function totalSupply() public view virtual returns (uint256) {... */\n    tag_6:\n      tag_37\n      tag_38\n      jump\t// in\n    tag_37:\n      mload(0x40)\n      tag_39\n      swap2\n      swap1\n      tag_40\n      jump\t// in\n    tag_39:\n      mload(0x40)\n      dup1\n      swap2\n      sub\n      swap1\n      return\n        /* \"@openzeppelin/contracts/token/ERC20/ERC20.sol\":4776:5020  function transferFrom(address from, address to, uint256 value) public virtual returns (bool) {... */\n    tag_7:\n      tag_41\n      0x04\n      dup1\n      calldatasize\n      sub\n      dup2\n      add\n      swap1\n      tag_42\n      swap2\n      swap1\n      tag_43\n      jump\t// in\n    tag_42:\n      tag_44\n      jump\t// in\n    tag_41:\n      mload(0x40)\n      tag_45\n      swap2\n      swap1\n      tag_32\n      jump\t// in\n    tag_45:\n      mload(0x40)\n      dup1\n      swap2\n      sub\n      swap1\n      return\n        /* \"@openzeppelin/contracts/token/ERC20/ERC20.sol\":2707:2789  function decimals() public view virtual returns (uint8) {... */\n    tag_8:\n      tag_46\n      tag_47\n      jump\t// in\n    tag_46:\n      mload(0x40)\n      tag_48\n      swap2\n      swap1\n      tag_49\n      jump\t// in\n    tag_48:\n      mload(0x40)\n      dup1\n      swap2\n      sub\n      swap1\n      return\n        /* \"contracts/token/SimpleSwap.sol\":4881:6748  function swap(uint256 amountIn, IERC20 tokenIn, uint256 amountOutMin) public returns (uint256 amountOut, IERC20 tokenOut) {... */\n    tag_9:\n      tag_50\n      0x04\n      dup1\n      calldatasize\n      sub\n      dup2\n      add\n      swap1\n      tag_51\n      swap2\n      swap1\n      tag_52\n      jump\t// in\n    tag_51:\n      tag_53\n      jump\t// in\n    tag_50:\n      mload(0x40)\n      tag_54\n      swap3\n      swap2\n      swap1\n      tag_55\n      jump\t// in\n    tag_54:\n      mload(0x40)\n      dup1\n      swap2\n      sub\n      swap1\n      return\n        /* \"contracts/token/SimpleSwap.sol\":927:950  uint256 public reserve0 */\n    tag_10:\n      tag_56\n      tag_57\n      jump\t// in\n    tag_56:\n      mload(0x40)\n      tag_58\n      swap2\n      swap1\n      tag_40\n      jump\t// in\n    tag_58:\n      mload(0x40)\n      dup1\n      swap2\n      sub\n      swap1\n      return\n        /* \"contracts/token/SimpleSwap.sol\":980:1003  uint256 public reserve1 */\n    tag_11:\n      tag_59\n      tag_60\n      jump\t// in\n    tag_59:\n      mload(0x40)\n      tag_61\n      swap2\n      swap1\n      tag_40\n      jump\t// in\n    tag_61:\n      mload(0x40)\n      dup1\n      swap2\n      sub\n      swap1\n      return\n        /* \"@openzeppelin/contracts/token/ERC20/ERC20.sol\":3004:3120  function balanceOf(address account) public view virtual returns (uint256) {... */\n    tag_12:\n      tag_62\n      0x04\n      dup1\n      calldatasize\n      sub\n      dup2\n      add\n      swap1\n      tag_63\n      swap2\n      swap1\n      tag_64\n      jump\t// in\n    tag_63:\n      tag_65\n      jump\t// in\n    tag_62:\n      mload(0x40)\n      tag_66\n      swap2\n      swap1\n      tag_40\n      jump\t// in\n    tag_66:\n      mload(0x40)\n      dup1\n      swap2\n      sub\n      swap1\n      return\n        /* \"@openzeppelin/contracts/token/ERC20/ERC20.sol\":1981:2074  function symbol() public view virtual returns (string memory) {... */\n    tag_13:\n      tag_67\n      tag_68\n      jump\t// in\n    tag_67:\n      mload(0x40)\n      tag_69\n      swap2\n      swap1\n      tag_26\n      jump\t// in\n    tag_69:\n      mload(0x40)\n      dup1\n      swap2\n      sub\n      swap1\n      return\n        /* \"contracts/token/SimpleSwap.sol\":3787:4639  function removeLiquidity(uint256 liquidity) public returns (uint256 token0Amount, uint256 token1Amount) {... */\n    tag_14:\n      tag_70\n      0x04\n      dup1\n      calldatasize\n      sub\n      dup2\n      add\n      swap1\n      tag_71\n      swap2\n      swap1\n      tag_72\n      jump\t// in\n    tag_71:\n      tag_73\n      jump\t// in\n    tag_70:\n      mload(0x40)\n      tag_74\n      swap3\n      swap2\n      swap1\n      tag_75\n      jump\t// in\n    tag_74:\n      mload(0x40)\n      dup1\n      swap2\n      sub\n      swap1\n      return\n        /* \"contracts/token/SimpleSwap.sol\":1812:3259  function addLiquidity(... */\n    tag_15:\n      tag_76\n      0x04\n      dup1\n      calldatasize\n      sub\n      dup2\n      add\n      swap1\n      tag_77\n      swap2\n      swap1\n      tag_78\n      jump\t// in\n    tag_77:\n      tag_79\n      jump\t// in\n    tag_76:\n      mload(0x40)\n      tag_80\n      swap2\n      swap1\n      tag_40\n      jump\t// in\n    tag_80:\n      mload(0x40)\n      dup1\n      swap2\n      sub\n      swap1\n      return\n        /* \"contracts/token/SimpleSwap.sol\":7255:7830  function calculateSwapOutAmount(... */\n    tag_16:\n      tag_81\n      0x04\n      dup1\n      calldatasize\n      sub\n      dup2\n      add\n      swap1\n      tag_82\n      swap2\n      swap1\n      tag_83\n      jump\t// in\n    tag_82:\n      tag_84\n      jump\t// in\n    tag_81:\n      mload(0x40)\n      tag_85\n      swap2\n      swap1\n      tag_40\n      jump\t// in\n    tag_85:\n      mload(0x40)\n      dup1\n      swap2\n      sub\n      swap1\n      return\n        /* \"@openzeppelin/contracts/token/ERC20/ERC20.sol\":3315:3493  function transfer(address to, uint256 value) public virtual returns (bool) {... */\n    tag_17:\n      tag_86\n      0x04\n      dup1\n      calldatasize\n      sub\n      dup2\n      add\n      swap1\n      tag_87\n      swap2\n      swap1\n      tag_29\n      jump\t// in\n    tag_87:\n      tag_88\n      jump\t// in\n    tag_86:\n      mload(0x40)\n      tag_89\n      swap2\n      swap1\n      tag_32\n      jump\t// in\n    tag_89:\n      mload(0x40)\n      dup1\n      swap2\n      sub\n      swap1\n      return\n        /* \"contracts/token/SimpleSwap.sol\":877:897  IERC20 public token1 */\n    tag_18:\n      tag_90\n      tag_91\n      jump\t// in\n    tag_90:\n      mload(0x40)\n      tag_92\n      swap2\n      swap1\n      tag_36\n      jump\t// in\n    tag_92:\n      mload(0x40)\n      dup1\n      swap2\n      sub\n      swap1\n      return\n        /* \"@openzeppelin/contracts/token/ERC20/ERC20.sol\":3551:3691  function allowance(address owner, address spender) public view virtual returns (uint256) {... */\n    tag_19:\n      tag_93\n      0x04\n      dup1\n      calldatasize\n      sub\n      dup2\n      add\n      swap1\n      tag_94\n      swap2\n      swap1\n      tag_95\n      jump\t// in\n    tag_94:\n      tag_96\n      jump\t// in\n    tag_93:\n      mload(0x40)\n      tag_97\n      swap2\n      swap1\n      tag_40\n      jump\t// in\n    tag_97:\n      mload(0x40)\n      dup1\n      swap2\n      sub\n      swap1\n      return\n        /* \"@openzeppelin/contracts/token/ERC20/ERC20.sol\":1779:1868  function name() public view virtual returns (string memory) {... */\n    tag_24:\n        /* \"@openzeppelin/contracts/token/ERC20/ERC20.sol\":1824:1837  string memory */\n      0x60\n        /* \"@openzeppelin/contracts/token/ERC20/ERC20.sol\":1856:1861  _name */\n      0x03\n        /* \"@openzeppelin/contracts/token/ERC20/ERC20.sol\":1849:1861  return _name */\n      dup1\n      sload\n      tag_99\n      swap1\n      tag_100\n      jump\t// in\n    tag_99:\n      dup1\n      0x1f\n      add\n      0x20\n      dup1\n      swap2\n      div\n      mul\n      0x20\n      add\n      mload(0x40)\n      swap1\n      dup2\n      add\n      0x40\n      mstore\n      dup1\n      swap3\n      swap2\n      swap1\n      dup2\n      dup2\n      mstore\n      0x20\n      add\n      dup3\n      dup1\n      sload\n      tag_101\n      swap1\n      tag_100\n      jump\t// in\n    tag_101:\n      dup1\n      iszero\n      tag_102\n      jumpi\n      dup1\n      0x1f\n      lt\n      tag_103\n      jumpi\n      0x0100\n      dup1\n      dup4\n      sload\n      div\n      mul\n      dup4\n      mstore\n      swap2\n      0x20\n      add\n      swap2\n      jump(tag_102)\n    tag_103:\n      dup3\n      add\n      swap2\n      swap1\n      0x00\n      mstore\n      keccak256(0x00, 0x20)\n      swap1\n    tag_104:\n      dup2\n      sload\n      dup2\n      mstore\n      swap1\n      0x01\n      add\n      swap1\n      0x20\n      add\n      dup1\n      dup4\n      gt\n      tag_104\n      jumpi\n      dup3\n      swap1\n      sub\n      0x1f\n      and\n      dup3\n      add\n      swap2\n    tag_102:\n      pop\n      pop\n      pop\n      pop\n      pop\n      swap1\n      pop\n        /* \"@openzeppelin/contracts/token/ERC20/ERC20.sol\":1779:1868  function name() public view virtual returns (string memory) {... */\n      swap1\n      jump\t// out\n        /* \"@openzeppelin/contracts/token/ERC20/ERC20.sol\":3998:4184  function approve(address spender, uint256 value) public virtual returns (bool) {... */\n    tag_30:\n        /* \"@openzeppelin/contracts/token/ERC20/ERC20.sol\":4071:4075  bool */\n      0x00\n        /* \"@openzeppelin/contracts/token/ERC20/ERC20.sol\":4087:4100  address owner */\n      dup1\n        /* \"@openzeppelin/contracts/token/ERC20/ERC20.sol\":4103:4115  _msgSender() */\n      tag_106\n        /* \"@openzeppelin/contracts/token/ERC20/ERC20.sol\":4103:4113  _msgSender */\n      tag_107\n        /* \"@openzeppelin/contracts/token/ERC20/ERC20.sol\":4103:4115  _msgSender() */\n      jump\t// in\n    tag_106:\n        /* \"@openzeppelin/contracts/token/ERC20/ERC20.sol\":4087:4115  address owner = _msgSender() */\n      swap1\n      pop\n        /* \"@openzeppelin/contracts/token/ERC20/ERC20.sol\":4125:4156  _approve(owner, spender, value) */\n      tag_108\n        /* \"@openzeppelin/contracts/token/ERC20/ERC20.sol\":4134:4139  owner */\n      dup2\n        /* \"@openzeppelin/contracts/token/ERC20/ERC20.sol\":4141:4148  spender */\n      dup6\n        /* \"@openzeppelin/contracts/token/ERC20/ERC20.sol\":4150:4155  value */\n      dup6\n        /* \"@openzeppelin/contracts/token/ERC20/ERC20.sol\":4125:4133  _approve */\n      tag_109\n        /* \"@openzeppelin/contracts/token/ERC20/ERC20.sol\":4125:4156  _approve(owner, spender, value) */\n      jump\t// in\n    tag_108:\n        /* \"@openzeppelin/contracts/token/ERC20/ERC20.sol\":4173:4177  true */\n      0x01\n        /* \"@openzeppelin/contracts/token/ERC20/ERC20.sol\":4166:4177  return true */\n      swap2\n      pop\n      pop\n        /* \"@openzeppelin/contracts/token/ERC20/ERC20.sol\":3998:4184  function approve(address spender, uint256 value) public virtual returns (bool) {... */\n      swap3\n      swap2\n      pop\n      pop\n      jump\t// out\n        /* \"contracts/token/SimpleSwap.sol\":851:871  IERC20 public token0 */\n    tag_34:\n      0x05\n      0x00\n      swap1\n      sload\n      swap1\n      0x0100\n      exp\n      swap1\n      div\n      0xffffffffffffffffffffffffffffffffffffffff\n      and\n      dup2\n      jump\t// out\n        /* \"@openzeppelin/contracts/token/ERC20/ERC20.sol\":2849:2946  function totalSupply() public view virtual returns (uint256) {... */\n    tag_38:\n        /* \"@openzeppelin/contracts/token/ERC20/ERC20.sol\":2901:2908  uint256 */\n      0x00\n        /* \"@openzeppelin/contracts/token/ERC20/ERC20.sol\":2927:2939  _totalSupply */\n      sload(0x02)\n        /* \"@openzeppelin/contracts/token/ERC20/ERC20.sol\":2920:2939  return _totalSupply */\n      swap1\n      pop\n        /* \"@openzeppelin/contracts/token/ERC20/ERC20.sol\":2849:2946  function totalSupply() public view virtual returns (uint256) {... */\n      swap1\n      jump\t// out\n        /* \"@openzeppelin/contracts/token/ERC20/ERC20.sol\":4776:5020  function transferFrom(address from, address to, uint256 value) public virtual returns (bool) {... */\n    tag_44:\n        /* \"@openzeppelin/contracts/token/ERC20/ERC20.sol\":4863:4867  bool */\n      0x00\n        /* \"@openzeppelin/contracts/token/ERC20/ERC20.sol\":4879:4894  address spender */\n      dup1\n        /* \"@openzeppelin/contracts/token/ERC20/ERC20.sol\":4897:4909  _msgSender() */\n      tag_112\n        /* \"@openzeppelin/contracts/token/ERC20/ERC20.sol\":4897:4907  _msgSender */\n      tag_107\n        /* \"@openzeppelin/contracts/token/ERC20/ERC20.sol\":4897:4909  _msgSender() */\n      jump\t// in\n    tag_112:\n        /* \"@openzeppelin/contracts/token/ERC20/ERC20.sol\":4879:4909  address spender = _msgSender() */\n      swap1\n      pop\n        /* \"@openzeppelin/contracts/token/ERC20/ERC20.sol\":4919:4956  _spendAllowance(from, spender, value) */\n      tag_113\n        /* \"@openzeppelin/contracts/token/ERC20/ERC20.sol\":4935:4939  from */\n      dup6\n        /* \"@openzeppelin/contracts/token/ERC20/ERC20.sol\":4941:4948  spender */\n      dup3\n        /* \"@openzeppelin/contracts/token/ERC20/ERC20.sol\":4950:4955  value */\n      dup6\n        /* \"@openzeppelin/contracts/token/ERC20/ERC20.sol\":4919:4934  _spendAllowance */\n      tag_114\n        /* \"@openzeppelin/contracts/token/ERC20/ERC20.sol\":4919:4956  _spendAllowance(from, spender, value) */\n      jump\t// in\n    tag_113:\n        /* \"@openzeppelin/contracts/token/ERC20/ERC20.sol\":4966:4992  _transfer(from, to, value) */\n      tag_115\n        /* \"@openzeppelin/contracts/token/ERC20/ERC20.sol\":4976:4980  from */\n      dup6\n        /* \"@openzeppelin/contracts/token/ERC20/ERC20.sol\":4982:4984  to */\n      dup6\n        /* \"@openzeppelin/contracts/token/ERC20/ERC20.sol\":4986:4991  value */\n      dup6\n        /* \"@openzeppelin/contracts/token/ERC20/ERC20.sol\":4966:4975  _transfer */\n      tag_116\n        /* \"@openzeppelin/contracts/token/ERC20/ERC20.sol\":4966:4992  _transfer(from, to, value) */\n      jump\t// in\n    tag_115:\n        /* \"@openzeppelin/contracts/token/ERC20/ERC20.sol\":5009:5013  true */\n      0x01\n        /* \"@openzeppelin/contracts/token/ERC20/ERC20.sol\":5002:5013  return true */\n      swap2\n      pop\n      pop\n        /* \"@openzeppelin/contracts/token/ERC20/ERC20.sol\":4776:5020  function transferFrom(address from, address to, uint256 value) public virtual returns (bool) {... */\n      swap4\n      swap3\n      pop\n      pop\n      pop\n      jump\t// out\n        /* \"@openzeppelin/contracts/token/ERC20/ERC20.sol\":2707:2789  function decimals() public view virtual returns (uint8) {... */\n    tag_47:\n        /* \"@openzeppelin/contracts/token/ERC20/ERC20.sol\":2756:2761  uint8 */\n      0x00\n        /* \"@openzeppelin/contracts/token/ERC20/ERC20.sol\":2780:2782  18 */\n      0x12\n        /* \"@openzeppelin/contracts/token/ERC20/ERC20.sol\":2773:2782  return 18 */\n      swap1\n      pop\n        /* \"@openzeppelin/contracts/token/ERC20/ERC20.sol\":2707:2789  function decimals() public view virtual returns (uint8) {... */\n      swap1\n      jump\t// out\n        /* \"contracts/token/SimpleSwap.sol\":4881:6748  function swap(uint256 amountIn, IERC20 tokenIn, uint256 amountOutMin) public returns (uint256 amountOut, IERC20 tokenOut) {... */\n    tag_53:\n        /* \"contracts/token/SimpleSwap.sol\":4967:4984  uint256 amountOut */\n      0x00\n        /* \"contracts/token/SimpleSwap.sol\":4986:5001  IERC20 tokenOut */\n      dup1\n        /* \"contracts/token/SimpleSwap.sol\":5050:5051  0 */\n      0x00\n        /* \"contracts/token/SimpleSwap.sol\":5039:5047  amountIn */\n      dup6\n        /* \"contracts/token/SimpleSwap.sol\":5039:5051  amountIn > 0 */\n      gt\n        /* \"contracts/token/SimpleSwap.sol\":5031:5084  require(amountIn > 0, \"swap: amountIn must positive\") */\n      tag_119\n      jumpi\n      mload(0x40)\n      0x08c379a000000000000000000000000000000000000000000000000000000000\n      dup2\n      mstore\n      0x04\n      add\n      tag_120\n      swap1\n      tag_121\n      jump\t// in\n    tag_120:\n      mload(0x40)\n      dup1\n      swap2\n      sub\n      swap1\n      revert\n    tag_119:\n        /* \"contracts/token/SimpleSwap.sol\":5113:5119  token0 */\n      0x05\n      0x00\n      swap1\n      sload\n      swap1\n      0x0100\n      exp\n      swap1\n      div\n      0xffffffffffffffffffffffffffffffffffffffff\n      and\n        /* \"contracts/token/SimpleSwap.sol\":5102:5119  tokenIn == token0 */\n      0xffffffffffffffffffffffffffffffffffffffff\n      and\n        /* \"contracts/token/SimpleSwap.sol\":5102:5109  tokenIn */\n      dup5\n        /* \"contracts/token/SimpleSwap.sol\":5102:5119  tokenIn == token0 */\n      0xffffffffffffffffffffffffffffffffffffffff\n      and\n      eq\n        /* \"contracts/token/SimpleSwap.sol\":5102:5140  tokenIn == token0 || tokenIn == token1 */\n      dup1\n      tag_122\n      jumpi\n      pop\n        /* \"contracts/token/SimpleSwap.sol\":5134:5140  token1 */\n      0x06\n      0x00\n      swap1\n      sload\n      swap1\n      0x0100\n      exp\n      swap1\n      div\n      0xffffffffffffffffffffffffffffffffffffffff\n      and\n        /* \"contracts/token/SimpleSwap.sol\":5123:5140  tokenIn == token1 */\n      0xffffffffffffffffffffffffffffffffffffffff\n      and\n        /* \"contracts/token/SimpleSwap.sol\":5123:5130  tokenIn */\n      dup5\n        /* \"contracts/token/SimpleSwap.sol\":5123:5140  tokenIn == token1 */\n      0xffffffffffffffffffffffffffffffffffffffff\n      and\n      eq\n        /* \"contracts/token/SimpleSwap.sol\":5102:5140  tokenIn == token0 || tokenIn == token1 */\n    tag_122:\n        /* \"contracts/token/SimpleSwap.sol\":5094:5172  require(tokenIn == token0 || tokenIn == token1, \"swap: tokenIn not supported\") */\n      tag_123\n      jumpi\n      mload(0x40)\n      0x08c379a000000000000000000000000000000000000000000000000000000000\n      dup2\n      mstore\n      0x04\n      add\n      tag_124\n      swap1\n      tag_125\n      jump\t// in\n    tag_124:\n      mload(0x40)\n      dup1\n      swap2\n      sub\n      swap1\n      revert\n    tag_123:\n        /* \"contracts/token/SimpleSwap.sol\":5182:5198  uint256 balance0 */\n      0x00\n        /* \"contracts/token/SimpleSwap.sol\":5201:5207  token0 */\n      0x05\n      0x00\n      swap1\n      sload\n      swap1\n      0x0100\n      exp\n      swap1\n      div\n      0xffffffffffffffffffffffffffffffffffffffff\n      and\n        /* \"contracts/token/SimpleSwap.sol\":5201:5217  token0.balanceOf */\n      0xffffffffffffffffffffffffffffffffffffffff\n      and\n      0x70a08231\n        /* \"contracts/token/SimpleSwap.sol\":5226:5230  this */\n      address\n        /* \"contracts/token/SimpleSwap.sol\":5201:5232  token0.balanceOf(address(this)) */\n      mload(0x40)\n      dup3\n      0xffffffff\n      and\n      0xe0\n      shl\n      dup2\n      mstore\n      0x04\n      add\n      tag_126\n      swap2\n      swap1\n      tag_127\n      jump\t// in\n    tag_126:\n      0x20\n      mload(0x40)\n      dup1\n      dup4\n      sub\n      dup2\n      dup7\n      gas\n      staticcall\n      iszero\n      dup1\n      iszero\n      tag_129\n      jumpi\n      returndatasize\n      0x00\n      dup1\n      returndatacopy\n      revert(0x00, returndatasize)\n    tag_129:\n      pop\n      pop\n      pop\n      pop\n      mload(0x40)\n      returndatasize\n      not(0x1f)\n      0x1f\n      dup3\n      add\n      and\n      dup3\n      add\n      dup1\n      0x40\n      mstore\n      pop\n      dup2\n      add\n      swap1\n      tag_130\n      swap2\n      swap1\n      tag_131\n      jump\t// in\n    tag_130:\n        /* \"contracts/token/SimpleSwap.sol\":5182:5232  uint256 balance0 = token0.balanceOf(address(this)) */\n      swap1\n      pop\n        /* \"contracts/token/SimpleSwap.sol\":5242:5258  uint256 balance1 */\n      0x00\n        /* \"contracts/token/SimpleSwap.sol\":5261:5267  token1 */\n      0x06\n      0x00\n      swap1\n      sload\n      swap1\n      0x0100\n      exp\n      swap1\n      div\n      0xffffffffffffffffffffffffffffffffffffffff\n      and\n        /* \"contracts/token/SimpleSwap.sol\":5261:5277  token1.balanceOf */\n      0xffffffffffffffffffffffffffffffffffffffff\n      and\n      0x70a08231\n        /* \"contracts/token/SimpleSwap.sol\":5286:5290  this */\n      address\n        /* \"contracts/token/SimpleSwap.sol\":5261:5292  token1.balanceOf(address(this)) */\n      mload(0x40)\n      dup3\n      0xffffffff\n      and\n      0xe0\n      shl\n      dup2\n      mstore\n      0x04\n      add\n      tag_132\n      swap2\n      swap1\n      tag_127\n      jump\t// in\n    tag_132:\n      0x20\n      mload(0x40)\n      dup1\n      dup4\n      sub\n      dup2\n      dup7\n      gas\n      staticcall\n      iszero\n      dup1\n      iszero\n      tag_134\n      jumpi\n      returndatasize\n      0x00\n      dup1\n      returndatacopy\n      revert(0x00, returndatasize)\n    tag_134:\n      pop\n      pop\n      pop\n      pop\n      mload(0x40)\n      returndatasize\n      not(0x1f)\n      0x1f\n      dup3\n      add\n      and\n      dup3\n      add\n      dup1\n      0x40\n      mstore\n      pop\n      dup2\n      add\n      swap1\n      tag_135\n      swap2\n      swap1\n      tag_131\n      jump\t// in\n    tag_135:\n        /* \"contracts/token/SimpleSwap.sol\":5242:5292  uint256 balance1 = token1.balanceOf(address(this)) */\n      swap1\n      pop\n        /* \"contracts/token/SimpleSwap.sol\":5317:5323  token0 */\n      0x05\n      0x00\n      swap1\n      sload\n      swap1\n      0x0100\n      exp\n      swap1\n      div\n      0xffffffffffffffffffffffffffffffffffffffff\n      and\n        /* \"contracts/token/SimpleSwap.sol\":5306:5323  tokenIn == token0 */\n      0xffffffffffffffffffffffffffffffffffffffff\n      and\n        /* \"contracts/token/SimpleSwap.sol\":5306:5313  tokenIn */\n      dup7\n        /* \"contracts/token/SimpleSwap.sol\":5306:5323  tokenIn == token0 */\n      0xffffffffffffffffffffffffffffffffffffffff\n      and\n      sub\n        /* \"contracts/token/SimpleSwap.sol\":5302:6658  if (tokenIn == token0) {... */\n      tag_136\n      jumpi\n        /* \"contracts/token/SimpleSwap.sol\":5400:5452  calculateSwapOutAmount(amountIn, balance0, balance1) */\n      tag_137\n        /* \"contracts/token/SimpleSwap.sol\":5423:5431  amountIn */\n      dup8\n        /* \"contracts/token/SimpleSwap.sol\":5433:5441  balance0 */\n      dup4\n        /* \"contracts/token/SimpleSwap.sol\":5443:5451  balance1 */\n      dup4\n        /* \"contracts/token/SimpleSwap.sol\":5400:5422  calculateSwapOutAmount */\n      tag_84\n        /* \"contracts/token/SimpleSwap.sol\":5400:5452  calculateSwapOutAmount(amountIn, balance0, balance1) */\n      jump\t// in\n    tag_137:\n        /* \"contracts/token/SimpleSwap.sol\":5388:5452  amountOut = calculateSwapOutAmount(amountIn, balance0, balance1) */\n      swap4\n      pop\n        /* \"contracts/token/SimpleSwap.sol\":5477:5483  token1 */\n      0x06\n      0x00\n      swap1\n      sload\n      swap1\n      0x0100\n      exp\n      swap1\n      div\n      0xffffffffffffffffffffffffffffffffffffffff\n      and\n        /* \"contracts/token/SimpleSwap.sol\":5466:5483  tokenOut = token1 */\n      swap3\n      pop\n        /* \"contracts/token/SimpleSwap.sol\":5513:5525  amountOutMin */\n      dup5\n        /* \"contracts/token/SimpleSwap.sol\":5501:5510  amountOut */\n      dup5\n        /* \"contracts/token/SimpleSwap.sol\":5501:5525  amountOut < amountOutMin */\n      lt\n        /* \"contracts/token/SimpleSwap.sol\":5497:5593  if (amountOut < amountOutMin) {... */\n      iszero\n      tag_138\n      jumpi\n        /* \"contracts/token/SimpleSwap.sol\":5552:5578  SwapAmountLessThanOutMin() */\n      mload(0x40)\n      0xcf3ba9fc00000000000000000000000000000000000000000000000000000000\n      dup2\n      mstore\n      0x04\n      add\n      mload(0x40)\n      dup1\n      swap2\n      sub\n      swap1\n      revert\n        /* \"contracts/token/SimpleSwap.sol\":5497:5593  if (amountOut < amountOutMin) {... */\n    tag_138:\n        /* \"contracts/token/SimpleSwap.sol\":5712:5720  amountIn */\n      dup7\n        /* \"contracts/token/SimpleSwap.sol\":5678:5684  token0 */\n      0x05\n      0x00\n      swap1\n      sload\n      swap1\n      0x0100\n      exp\n      swap1\n      div\n      0xffffffffffffffffffffffffffffffffffffffff\n      and\n        /* \"contracts/token/SimpleSwap.sol\":5678:5694  token0.balanceOf */\n      0xffffffffffffffffffffffffffffffffffffffff\n      and\n      0x70a08231\n        /* \"contracts/token/SimpleSwap.sol\":5703:5707  this */\n      address\n        /* \"contracts/token/SimpleSwap.sol\":5678:5709  token0.balanceOf(address(this)) */\n      mload(0x40)\n      dup3\n      0xffffffff\n      and\n      0xe0\n      shl\n      dup2\n      mstore\n      0x04\n      add\n      tag_139\n      swap2\n      swap1\n      tag_127\n      jump\t// in\n    tag_139:\n      0x20\n      mload(0x40)\n      dup1\n      dup4\n      sub\n      dup2\n      dup7\n      gas\n      staticcall\n      iszero\n      dup1\n      iszero\n      tag_141\n      jumpi\n      returndatasize\n      0x00\n      dup1\n      returndatacopy\n      revert(0x00, returndatasize)\n    tag_141:\n      pop\n      pop\n      pop\n      pop\n      mload(0x40)\n      returndatasize\n      not(0x1f)\n      0x1f\n      dup3\n      add\n      and\n      dup3\n      add\n      dup1\n      0x40\n      mstore\n      pop\n      dup2\n      add\n      swap1\n      tag_142\n      swap2\n      swap1\n      tag_131\n      jump\t// in\n    tag_142:\n        /* \"contracts/token/SimpleSwap.sol\":5678:5720  token0.balanceOf(address(this)) + amountIn */\n      tag_143\n      swap2\n      swap1\n      tag_144\n      jump\t// in\n    tag_143:\n        /* \"contracts/token/SimpleSwap.sol\":5667:5675  reserve0 */\n      0x07\n        /* \"contracts/token/SimpleSwap.sol\":5667:5720  reserve0 = token0.balanceOf(address(this)) + amountIn */\n      dup2\n      swap1\n      sstore\n      pop\n        /* \"contracts/token/SimpleSwap.sol\":5818:5827  amountOut */\n      dup4\n        /* \"contracts/token/SimpleSwap.sol\":5784:5790  token1 */\n      0x06\n      0x00\n      swap1\n      sload\n      swap1\n      0x0100\n      exp\n      swap1\n      div\n      0xffffffffffffffffffffffffffffffffffffffff\n      and\n        /* \"contracts/token/SimpleSwap.sol\":5784:5800  token1.balanceOf */\n      0xffffffffffffffffffffffffffffffffffffffff\n      and\n      0x70a08231\n        /* \"contracts/token/SimpleSwap.sol\":5809:5813  this */\n      address\n        /* \"contracts/token/SimpleSwap.sol\":5784:5815  token1.balanceOf(address(this)) */\n      mload(0x40)\n      dup3\n      0xffffffff\n      and\n      0xe0\n      shl\n      dup2\n      mstore\n      0x04\n      add\n      tag_145\n      swap2\n      swap1\n      tag_127\n      jump\t// in\n    tag_145:\n      0x20\n      mload(0x40)\n      dup1\n      dup4\n      sub\n      dup2\n      dup7\n      gas\n      staticcall\n      iszero\n      dup1\n      iszero\n      tag_147\n      jumpi\n      returndatasize\n      0x00\n      dup1\n      returndatacopy\n      revert(0x00, returndatasize)\n    tag_147:\n      pop\n      pop\n      pop\n      pop\n      mload(0x40)\n      returndatasize\n      not(0x1f)\n      0x1f\n      dup3\n      add\n      and\n      dup3\n      add\n      dup1\n      0x40\n      mstore\n      pop\n      dup2\n      add\n      swap1\n      tag_148\n      swap2\n      swap1\n      tag_131\n      jump\t// in\n    tag_148:\n        /* \"contracts/token/SimpleSwap.sol\":5784:5827  token1.balanceOf(address(this)) - amountOut */\n      tag_149\n      swap2\n      swap1\n      tag_150\n      jump\t// in\n    tag_149:\n        /* \"contracts/token/SimpleSwap.sol\":5773:5781  reserve1 */\n      0x08\n        /* \"contracts/token/SimpleSwap.sol\":5773:5827  reserve1 = token1.balanceOf(address(this)) - amountOut */\n      dup2\n      swap1\n      sstore\n      pop\n        /* \"contracts/token/SimpleSwap.sol\":5869:5875  token0 */\n      0x05\n      0x00\n      swap1\n      sload\n      swap1\n      0x0100\n      exp\n      swap1\n      div\n      0xffffffffffffffffffffffffffffffffffffffff\n      and\n        /* \"contracts/token/SimpleSwap.sol\":5869:5888  token0.transferFrom */\n      0xffffffffffffffffffffffffffffffffffffffff\n      and\n      0x23b872dd\n        /* \"contracts/token/SimpleSwap.sol\":5889:5899  msg.sender */\n      caller\n        /* \"contracts/token/SimpleSwap.sol\":5909:5913  this */\n      address\n        /* \"contracts/token/SimpleSwap.sol\":5916:5924  amountIn */\n      dup11\n        /* \"contracts/token/SimpleSwap.sol\":5869:5925  token0.transferFrom(msg.sender, address(this), amountIn) */\n      mload(0x40)\n      dup5\n      0xffffffff\n      and\n      0xe0\n      shl\n      dup2\n      mstore\n      0x04\n      add\n      tag_151\n      swap4\n      swap3\n      swap2\n      swap1\n      tag_152\n      jump\t// in\n    tag_151:\n      0x20\n      mload(0x40)\n      dup1\n      dup4\n      sub\n      dup2\n      0x00\n      dup8\n      gas\n      call\n      iszero\n      dup1\n      iszero\n      tag_154\n      jumpi\n      returndatasize\n      0x00\n      dup1\n      returndatacopy\n      revert(0x00, returndatasize)\n    tag_154:\n      pop\n      pop\n      pop\n      pop\n      mload(0x40)\n      returndatasize\n      not(0x1f)\n      0x1f\n      dup3\n      add\n      and\n      dup3\n      add\n      dup1\n      0x40\n      mstore\n      pop\n      dup2\n      add\n      swap1\n      tag_155\n      swap2\n      swap1\n      tag_156\n      jump\t// in\n    tag_155:\n      pop\n        /* \"contracts/token/SimpleSwap.sol\":5939:5945  token1 */\n      0x06\n      0x00\n      swap1\n      sload\n      swap1\n      0x0100\n      exp\n      swap1\n      div\n      0xffffffffffffffffffffffffffffffffffffffff\n      and\n        /* \"contracts/token/SimpleSwap.sol\":5939:5954  token1.transfer */\n      0xffffffffffffffffffffffffffffffffffffffff\n      and\n      0xa9059cbb\n        /* \"contracts/token/SimpleSwap.sol\":5955:5965  msg.sender */\n      caller\n        /* \"contracts/token/SimpleSwap.sol\":5967:5976  amountOut */\n      dup7\n        /* \"contracts/token/SimpleSwap.sol\":5939:5977  token1.transfer(msg.sender, amountOut) */\n      mload(0x40)\n      dup4\n      0xffffffff\n      and\n      0xe0\n      shl\n      dup2\n      mstore\n      0x04\n      add\n      tag_157\n      swap3\n      swap2\n      swap1\n      tag_158\n      jump\t// in\n    tag_157:\n      0x20\n      mload(0x40)\n      dup1\n      dup4\n      sub\n      dup2\n      0x00\n      dup8\n      gas\n      call\n      iszero\n      dup1\n      iszero\n      tag_160\n      jumpi\n      returndatasize\n      0x00\n      dup1\n      returndatacopy\n      revert(0x00, returndatasize)\n    tag_160:\n      pop\n      pop\n      pop\n      pop\n      mload(0x40)\n      returndatasize\n      not(0x1f)\n      0x1f\n      dup3\n      add\n      and\n      dup3\n      add\n      dup1\n      0x40\n      mstore\n      pop\n      dup2\n      add\n      swap1\n      tag_161\n      swap2\n      swap1\n      tag_156\n      jump\t// in\n    tag_161:\n      pop\n        /* \"contracts/token/SimpleSwap.sol\":5302:6658  if (tokenIn == token0) {... */\n      jump(tag_162)\n    tag_136:\n        /* \"contracts/token/SimpleSwap.sol\":6068:6120  calculateSwapOutAmount(amountIn, balance1, balance0) */\n      tag_163\n        /* \"contracts/token/SimpleSwap.sol\":6091:6099  amountIn */\n      dup8\n        /* \"contracts/token/SimpleSwap.sol\":6101:6109  balance1 */\n      dup3\n        /* \"contracts/token/SimpleSwap.sol\":6111:6119  balance0 */\n      dup5\n        /* \"contracts/token/SimpleSwap.sol\":6068:6090  calculateSwapOutAmount */\n      tag_84\n        /* \"contracts/token/SimpleSwap.sol\":6068:6120  calculateSwapOutAmount(amountIn, balance1, balance0) */\n      jump\t// in\n    tag_163:\n        /* \"contracts/token/SimpleSwap.sol\":6056:6120  amountOut = calculateSwapOutAmount(amountIn, balance1, balance0) */\n      swap4\n      pop\n        /* \"contracts/token/SimpleSwap.sol\":6145:6151  token0 */\n      0x05\n      0x00\n      swap1\n      sload\n      swap1\n      0x0100\n      exp\n      swap1\n      div\n      0xffffffffffffffffffffffffffffffffffffffff\n      and\n        /* \"contracts/token/SimpleSwap.sol\":6134:6151  tokenOut = token0 */\n      swap3\n      pop\n        /* \"contracts/token/SimpleSwap.sol\":6181:6193  amountOutMin */\n      dup5\n        /* \"contracts/token/SimpleSwap.sol\":6169:6178  amountOut */\n      dup5\n        /* \"contracts/token/SimpleSwap.sol\":6169:6193  amountOut < amountOutMin */\n      lt\n        /* \"contracts/token/SimpleSwap.sol\":6165:6261  if (amountOut < amountOutMin) {... */\n      iszero\n      tag_164\n      jumpi\n        /* \"contracts/token/SimpleSwap.sol\":6220:6246  SwapAmountLessThanOutMin() */\n      mload(0x40)\n      0xcf3ba9fc00000000000000000000000000000000000000000000000000000000\n      dup2\n      mstore\n      0x04\n      add\n      mload(0x40)\n      dup1\n      swap2\n      sub\n      swap1\n      revert\n        /* \"contracts/token/SimpleSwap.sol\":6165:6261  if (amountOut < amountOutMin) {... */\n    tag_164:\n        /* \"contracts/token/SimpleSwap.sol\":6381:6389  amountIn */\n      dup7\n        /* \"contracts/token/SimpleSwap.sol\":6347:6353  token1 */\n      0x06\n      0x00\n      swap1\n      sload\n      swap1\n      0x0100\n      exp\n      swap1\n      div\n      0xffffffffffffffffffffffffffffffffffffffff\n      and\n        /* \"contracts/token/SimpleSwap.sol\":6347:6363  token1.balanceOf */\n      0xffffffffffffffffffffffffffffffffffffffff\n      and\n      0x70a08231\n        /* \"contracts/token/SimpleSwap.sol\":6372:6376  this */\n      address\n        /* \"contracts/token/SimpleSwap.sol\":6347:6378  token1.balanceOf(address(this)) */\n      mload(0x40)\n      dup3\n      0xffffffff\n      and\n      0xe0\n      shl\n      dup2\n      mstore\n      0x04\n      add\n      tag_165\n      swap2\n      swap1\n      tag_127\n      jump\t// in\n    tag_165:\n      0x20\n      mload(0x40)\n      dup1\n      dup4\n      sub\n      dup2\n      dup7\n      gas\n      staticcall\n      iszero\n      dup1\n      iszero\n      tag_167\n      jumpi\n      returndatasize\n      0x00\n      dup1\n      returndatacopy\n      revert(0x00, returndatasize)\n    tag_167:\n      pop\n      pop\n      pop\n      pop\n      mload(0x40)\n      returndatasize\n      not(0x1f)\n      0x1f\n      dup3\n      add\n      and\n      dup3\n      add\n      dup1\n      0x40\n      mstore\n      pop\n      dup2\n      add\n      swap1\n      tag_168\n      swap2\n      swap1\n      tag_131\n      jump\t// in\n    tag_168:\n        /* \"contracts/token/SimpleSwap.sol\":6347:6389  token1.balanceOf(address(this)) + amountIn */\n      tag_169\n      swap2\n      swap1\n      tag_144\n      jump\t// in\n    tag_169:\n        /* \"contracts/token/SimpleSwap.sol\":6336:6344  reserve1 */\n      0x08\n        /* \"contracts/token/SimpleSwap.sol\":6336:6389  reserve1 = token1.balanceOf(address(this)) + amountIn */\n      dup2\n      swap1\n      sstore\n      pop\n        /* \"contracts/token/SimpleSwap.sol\":6488:6497  amountOut */\n      dup4\n        /* \"contracts/token/SimpleSwap.sol\":6454:6460  token0 */\n      0x05\n      0x00\n      swap1\n      sload\n      swap1\n      0x0100\n      exp\n      swap1\n      div\n      0xffffffffffffffffffffffffffffffffffffffff\n      and\n        /* \"contracts/token/SimpleSwap.sol\":6454:6470  token0.balanceOf */\n      0xffffffffffffffffffffffffffffffffffffffff\n      and\n      0x70a08231\n        /* \"contracts/token/SimpleSwap.sol\":6479:6483  this */\n      address\n        /* \"contracts/token/SimpleSwap.sol\":6454:6485  token0.balanceOf(address(this)) */\n      mload(0x40)\n      dup3\n      0xffffffff\n      and\n      0xe0\n      shl\n      dup2\n      mstore\n      0x04\n      add\n      tag_170\n      swap2\n      swap1\n      tag_127\n      jump\t// in\n    tag_170:\n      0x20\n      mload(0x40)\n      dup1\n      dup4\n      sub\n      dup2\n      dup7\n      gas\n      staticcall\n      iszero\n      dup1\n      iszero\n      tag_172\n      jumpi\n      returndatasize\n      0x00\n      dup1\n      returndatacopy\n      revert(0x00, returndatasize)\n    tag_172:\n      pop\n      pop\n      pop\n      pop\n      mload(0x40)\n      returndatasize\n      not(0x1f)\n      0x1f\n      dup3\n      add\n      and\n      dup3\n      add\n      dup1\n      0x40\n      mstore\n      pop\n      dup2\n      add\n      swap1\n      tag_173\n      swap2\n      swap1\n      tag_131\n      jump\t// in\n    tag_173:\n        /* \"contracts/token/SimpleSwap.sol\":6454:6497  token0.balanceOf(address(this)) - amountOut */\n      tag_174\n      swap2\n      swap1\n      tag_150\n      jump\t// in\n    tag_174:\n        /* \"contracts/token/SimpleSwap.sol\":6443:6451  reserve0 */\n      0x07\n        /* \"contracts/token/SimpleSwap.sol\":6443:6497  reserve0 = token0.balanceOf(address(this)) - amountOut */\n      dup2\n      swap1\n      sstore\n      pop\n        /* \"contracts/token/SimpleSwap.sol\":6539:6545  token1 */\n      0x06\n      0x00\n      swap1\n      sload\n      swap1\n      0x0100\n      exp\n      swap1\n      div\n      0xffffffffffffffffffffffffffffffffffffffff\n      and\n        /* \"contracts/token/SimpleSwap.sol\":6539:6558  token1.transferFrom */\n      0xffffffffffffffffffffffffffffffffffffffff\n      and\n      0x23b872dd\n        /* \"contracts/token/SimpleSwap.sol\":6559:6569  msg.sender */\n      caller\n        /* \"contracts/token/SimpleSwap.sol\":6579:6583  this */\n      address\n        /* \"contracts/token/SimpleSwap.sol\":6586:6594  amountIn */\n      dup11\n        /* \"contracts/token/SimpleSwap.sol\":6539:6595  token1.transferFrom(msg.sender, address(this), amountIn) */\n      mload(0x40)\n      dup5\n      0xffffffff\n      and\n      0xe0\n      shl\n      dup2\n      mstore\n      0x04\n      add\n      tag_175\n      swap4\n      swap3\n      swap2\n      swap1\n      tag_152\n      jump\t// in\n    tag_175:\n      0x20\n      mload(0x40)\n      dup1\n      dup4\n      sub\n      dup2\n      0x00\n      dup8\n      gas\n      call\n      iszero\n      dup1\n      iszero\n      tag_177\n      jumpi\n      returndatasize\n      0x00\n      dup1\n      returndatacopy\n      revert(0x00, returndatasize)\n    tag_177:\n      pop\n      pop\n      pop\n      pop\n      mload(0x40)\n      returndatasize\n      not(0x1f)\n      0x1f\n      dup3\n      add\n      and\n      dup3\n      add\n      dup1\n      0x40\n      mstore\n      pop\n      dup2\n      add\n      swap1\n      tag_178\n      swap2\n      swap1\n      tag_156\n      jump\t// in\n    tag_178:\n      pop\n        /* \"contracts/token/SimpleSwap.sol\":6609:6615  token0 */\n      0x05\n      0x00\n      swap1\n      sload\n      swap1\n      0x0100\n      exp\n      swap1\n      div\n      0xffffffffffffffffffffffffffffffffffffffff\n      and\n        /* \"contracts/token/SimpleSwap.sol\":6609:6624  token0.transfer */\n      0xffffffffffffffffffffffffffffffffffffffff\n      and\n      0xa9059cbb\n        /* \"contracts/token/SimpleSwap.sol\":6625:6635  msg.sender */\n      caller\n        /* \"contracts/token/SimpleSwap.sol\":6637:6646  amountOut */\n      dup7\n        /* \"contracts/token/SimpleSwap.sol\":6609:6647  token0.transfer(msg.sender, amountOut) */\n      mload(0x40)\n      dup4\n      0xffffffff\n      and\n      0xe0\n      shl\n      dup2\n      mstore\n      0x04\n      add\n      tag_179\n      swap3\n      swap2\n      swap1\n      tag_158\n      jump\t// in\n    tag_179:\n      0x20\n      mload(0x40)\n      dup1\n      dup4\n      sub\n      dup2\n      0x00\n      dup8\n      gas\n      call\n      iszero\n      dup1\n      iszero\n      tag_181\n      jumpi\n      returndatasize\n      0x00\n      dup1\n      returndatacopy\n      revert(0x00, returndatasize)\n    tag_181:\n      pop\n      pop\n      pop\n      pop\n      mload(0x40)\n      returndatasize\n      not(0x1f)\n      0x1f\n      dup3\n      add\n      and\n      dup3\n      add\n      dup1\n      0x40\n      mstore\n      pop\n      dup2\n      add\n      swap1\n      tag_182\n      swap2\n      swap1\n      tag_156\n      jump\t// in\n    tag_182:\n      pop\n        /* \"contracts/token/SimpleSwap.sol\":5302:6658  if (tokenIn == token0) {... */\n    tag_162:\n        /* \"contracts/token/SimpleSwap.sol\":6720:6728  tokenOut */\n      dup3\n        /* \"contracts/token/SimpleSwap.sol\":6672:6741  SwapSuccess(address(tokenIn), amountIn, address(tokenOut), amountOut) */\n      0xffffffffffffffffffffffffffffffffffffffff\n      and\n        /* \"contracts/token/SimpleSwap.sol\":6692:6699  tokenIn */\n      dup7\n        /* \"contracts/token/SimpleSwap.sol\":6672:6741  SwapSuccess(address(tokenIn), amountIn, address(tokenOut), amountOut) */\n      0xffffffffffffffffffffffffffffffffffffffff\n      and\n      0x80044f7893845e3883418a4d784224b0d2d9606ca5f19c2a910401c2c62761b5\n        /* \"contracts/token/SimpleSwap.sol\":6702:6710  amountIn */\n      dup10\n        /* \"contracts/token/SimpleSwap.sol\":6731:6740  amountOut */\n      dup8\n        /* \"contracts/token/SimpleSwap.sol\":6672:6741  SwapSuccess(address(tokenIn), amountIn, address(tokenOut), amountOut) */\n      mload(0x40)\n      tag_183\n      swap3\n      swap2\n      swap1\n      tag_75\n      jump\t// in\n    tag_183:\n      mload(0x40)\n      dup1\n      swap2\n      sub\n      swap1\n      log3\n        /* \"contracts/token/SimpleSwap.sol\":5003:6748  {... */\n      pop\n      pop\n        /* \"contracts/token/SimpleSwap.sol\":4881:6748  function swap(uint256 amountIn, IERC20 tokenIn, uint256 amountOutMin) public returns (uint256 amountOut, IERC20 tokenOut) {... */\n      swap4\n      pop\n      swap4\n      swap2\n      pop\n      pop\n      jump\t// out\n        /* \"contracts/token/SimpleSwap.sol\":927:950  uint256 public reserve0 */\n    tag_57:\n      sload(0x07)\n      dup2\n      jump\t// out\n        /* \"contracts/token/SimpleSwap.sol\":980:1003  uint256 public reserve1 */\n    tag_60:\n      sload(0x08)\n      dup2\n      jump\t// out\n        /* \"@openzeppelin/contracts/token/ERC20/ERC20.sol\":3004:3120  function balanceOf(address account) public view virtual returns (uint256) {... */\n    tag_65:\n        /* \"@openzeppelin/contracts/token/ERC20/ERC20.sol\":3069:3076  uint256 */\n      0x00\n        /* \"@openzeppelin/contracts/token/ERC20/ERC20.sol\":3095:3104  _balances */\n      dup1\n        /* \"@openzeppelin/contracts/token/ERC20/ERC20.sol\":3095:3113  _balances[account] */\n      0x00\n        /* \"@openzeppelin/contracts/token/ERC20/ERC20.sol\":3105:3112  account */\n      dup4\n        /* \"@openzeppelin/contracts/token/ERC20/ERC20.sol\":3095:3113  _balances[account] */\n      0xffffffffffffffffffffffffffffffffffffffff\n      and\n      0xffffffffffffffffffffffffffffffffffffffff\n      and\n      dup2\n      mstore\n      0x20\n      add\n      swap1\n      dup2\n      mstore\n      0x20\n      add\n      0x00\n      keccak256\n      sload\n        /* \"@openzeppelin/contracts/token/ERC20/ERC20.sol\":3088:3113  return _balances[account] */\n      swap1\n      pop\n        /* \"@openzeppelin/contracts/token/ERC20/ERC20.sol\":3004:3120  function balanceOf(address account) public view virtual returns (uint256) {... */\n      swap2\n      swap1\n      pop\n      jump\t// out\n        /* \"@openzeppelin/contracts/token/ERC20/ERC20.sol\":1981:2074  function symbol() public view virtual returns (string memory) {... */\n    tag_68:\n        /* \"@openzeppelin/contracts/token/ERC20/ERC20.sol\":2028:2041  string memory */\n      0x60\n        /* \"@openzeppelin/contracts/token/ERC20/ERC20.sol\":2060:2067  _symbol */\n      0x04\n        /* \"@openzeppelin/contracts/token/ERC20/ERC20.sol\":2053:2067  return _symbol */\n      dup1\n      sload\n      tag_186\n      swap1\n      tag_100\n      jump\t// in\n    tag_186:\n      dup1\n      0x1f\n      add\n      0x20\n      dup1\n      swap2\n      div\n      mul\n      0x20\n      add\n      mload(0x40)\n      swap1\n      dup2\n      add\n      0x40\n      mstore\n      dup1\n      swap3\n      swap2\n      swap1\n      dup2\n      dup2\n      mstore\n      0x20\n      add\n      dup3\n      dup1\n      sload\n      tag_187\n      swap1\n      tag_100\n      jump\t// in\n    tag_187:\n      dup1\n      iszero\n      tag_188\n      jumpi\n      dup1\n      0x1f\n      lt\n      tag_189\n      jumpi\n      0x0100\n      dup1\n      dup4\n      sload\n      div\n      mul\n      dup4\n      mstore\n      swap2\n      0x20\n      add\n      swap2\n      jump(tag_188)\n    tag_189:\n      dup3\n      add\n      swap2\n      swap1\n      0x00\n      mstore\n      keccak256(0x00, 0x20)\n      swap1\n    tag_190:\n      dup2\n      sload\n      dup2\n      mstore\n      swap1\n      0x01\n      add\n      swap1\n      0x20\n      add\n      dup1\n      dup4\n      gt\n      tag_190\n      jumpi\n      dup3\n      swap1\n      sub\n      0x1f\n      and\n      dup3\n      add\n      swap2\n    tag_188:\n      pop\n      pop\n      pop\n      pop\n      pop\n      swap1\n      pop\n        /* \"@openzeppelin/contracts/token/ERC20/ERC20.sol\":1981:2074  function symbol() public view virtual returns (string memory) {... */\n      swap1\n      jump\t// out\n        /* \"contracts/token/SimpleSwap.sol\":3787:4639  function removeLiquidity(uint256 liquidity) public returns (uint256 token0Amount, uint256 token1Amount) {... */\n    tag_73:\n        /* \"contracts/token/SimpleSwap.sol\":3847:3867  uint256 token0Amount */\n      0x00\n        /* \"contracts/token/SimpleSwap.sol\":3869:3889  uint256 token1Amount */\n      dup1\n        /* \"contracts/token/SimpleSwap.sol\":3919:3934  uint256 balance */\n      0x00\n        /* \"contracts/token/SimpleSwap.sol\":3937:3958  balanceOf(msg.sender) */\n      tag_192\n        /* \"contracts/token/SimpleSwap.sol\":3947:3957  msg.sender */\n      caller\n        /* \"contracts/token/SimpleSwap.sol\":3937:3946  balanceOf */\n      tag_65\n        /* \"contracts/token/SimpleSwap.sol\":3937:3958  balanceOf(msg.sender) */\n      jump\t// in\n    tag_192:\n        /* \"contracts/token/SimpleSwap.sol\":3919:3958  uint256 balance = balanceOf(msg.sender) */\n      swap1\n      pop\n        /* \"contracts/token/SimpleSwap.sol\":3987:3996  liquidity */\n      dup4\n        /* \"contracts/token/SimpleSwap.sol\":3976:3983  balance */\n      dup2\n        /* \"contracts/token/SimpleSwap.sol\":3976:3996  balance >= liquidity */\n      lt\n      iszero\n        /* \"contracts/token/SimpleSwap.sol\":3968:4016  require(balance >= liquidity, \"LP insufficient\") */\n      tag_193\n      jumpi\n      mload(0x40)\n      0x08c379a000000000000000000000000000000000000000000000000000000000\n      dup2\n      mstore\n      0x04\n      add\n      tag_194\n      swap1\n      tag_195\n      jump\t// in\n    tag_194:\n      mload(0x40)\n      dup1\n      swap2\n      sub\n      swap1\n      revert\n    tag_193:\n        /* \"contracts/token/SimpleSwap.sol\":4080:4099  uint256 totalSupply */\n      0x00\n        /* \"contracts/token/SimpleSwap.sol\":4102:4115  totalSupply() */\n      tag_196\n        /* \"contracts/token/SimpleSwap.sol\":4102:4113  totalSupply */\n      tag_38\n        /* \"contracts/token/SimpleSwap.sol\":4102:4115  totalSupply() */\n      jump\t// in\n    tag_196:\n        /* \"contracts/token/SimpleSwap.sol\":4080:4115  uint256 totalSupply = totalSupply() */\n      swap1\n      pop\n        /* \"contracts/token/SimpleSwap.sol\":4163:4174  totalSupply */\n      dup1\n        /* \"contracts/token/SimpleSwap.sol\":4152:4160  reserve0 */\n      sload(0x07)\n        /* \"contracts/token/SimpleSwap.sol\":4140:4149  liquidity */\n      dup7\n        /* \"contracts/token/SimpleSwap.sol\":4140:4160  liquidity * reserve0 */\n      tag_197\n      swap2\n      swap1\n      tag_198\n      jump\t// in\n    tag_197:\n        /* \"contracts/token/SimpleSwap.sol\":4140:4174  liquidity * reserve0 / totalSupply */\n      tag_199\n      swap2\n      swap1\n      tag_200\n      jump\t// in\n    tag_199:\n        /* \"contracts/token/SimpleSwap.sol\":4125:4174  token0Amount = liquidity * reserve0 / totalSupply */\n      swap4\n      pop\n        /* \"contracts/token/SimpleSwap.sol\":4222:4233  totalSupply */\n      dup1\n        /* \"contracts/token/SimpleSwap.sol\":4211:4219  reserve1 */\n      sload(0x08)\n        /* \"contracts/token/SimpleSwap.sol\":4199:4208  liquidity */\n      dup7\n        /* \"contracts/token/SimpleSwap.sol\":4199:4219  liquidity * reserve1 */\n      tag_201\n      swap2\n      swap1\n      tag_198\n      jump\t// in\n    tag_201:\n        /* \"contracts/token/SimpleSwap.sol\":4199:4233  liquidity * reserve1 / totalSupply */\n      tag_202\n      swap2\n      swap1\n      tag_200\n      jump\t// in\n    tag_202:\n        /* \"contracts/token/SimpleSwap.sol\":4184:4233  token1Amount = liquidity * reserve1 / totalSupply */\n      swap3\n      pop\n        /* \"contracts/token/SimpleSwap.sol\":4288:4300  token0Amount */\n      dup4\n        /* \"contracts/token/SimpleSwap.sol\":4254:4260  token0 */\n      0x05\n      0x00\n      swap1\n      sload\n      swap1\n      0x0100\n      exp\n      swap1\n      div\n      0xffffffffffffffffffffffffffffffffffffffff\n      and\n        /* \"contracts/token/SimpleSwap.sol\":4254:4270  token0.balanceOf */\n      0xffffffffffffffffffffffffffffffffffffffff\n      and\n      0x70a08231\n        /* \"contracts/token/SimpleSwap.sol\":4279:4283  this */\n      address\n        /* \"contracts/token/SimpleSwap.sol\":4254:4285  token0.balanceOf(address(this)) */\n      mload(0x40)\n      dup3\n      0xffffffff\n      and\n      0xe0\n      shl\n      dup2\n      mstore\n      0x04\n      add\n      tag_203\n      swap2\n      swap1\n      tag_127\n      jump\t// in\n    tag_203:\n      0x20\n      mload(0x40)\n      dup1\n      dup4\n      sub\n      dup2\n      dup7\n      gas\n      staticcall\n      iszero\n      dup1\n      iszero\n      tag_205\n      jumpi\n      returndatasize\n      0x00\n      dup1\n      returndatacopy\n      revert(0x00, returndatasize)\n    tag_205:\n      pop\n      pop\n      pop\n      pop\n      mload(0x40)\n      returndatasize\n      not(0x1f)\n      0x1f\n      dup3\n      add\n      and\n      dup3\n      add\n      dup1\n      0x40\n      mstore\n      pop\n      dup2\n      add\n      swap1\n      tag_206\n      swap2\n      swap1\n      tag_131\n      jump\t// in\n    tag_206:\n        /* \"contracts/token/SimpleSwap.sol\":4254:4300  token0.balanceOf(address(this)) - token0Amount */\n      tag_207\n      swap2\n      swap1\n      tag_150\n      jump\t// in\n    tag_207:\n        /* \"contracts/token/SimpleSwap.sol\":4243:4251  reserve0 */\n      0x07\n        /* \"contracts/token/SimpleSwap.sol\":4243:4300  reserve0 = token0.balanceOf(address(this)) - token0Amount */\n      dup2\n      swap1\n      sstore\n      pop\n        /* \"contracts/token/SimpleSwap.sol\":4355:4367  token1Amount */\n      dup3\n        /* \"contracts/token/SimpleSwap.sol\":4321:4327  token1 */\n      0x06\n      0x00\n      swap1\n      sload\n      swap1\n      0x0100\n      exp\n      swap1\n      div\n      0xffffffffffffffffffffffffffffffffffffffff\n      and\n        /* \"contracts/token/SimpleSwap.sol\":4321:4337  token1.balanceOf */\n      0xffffffffffffffffffffffffffffffffffffffff\n      and\n      0x70a08231\n        /* \"contracts/token/SimpleSwap.sol\":4346:4350  this */\n      address\n        /* \"contracts/token/SimpleSwap.sol\":4321:4352  token1.balanceOf(address(this)) */\n      mload(0x40)\n      dup3\n      0xffffffff\n      and\n      0xe0\n      shl\n      dup2\n      mstore\n      0x04\n      add\n      tag_208\n      swap2\n      swap1\n      tag_127\n      jump\t// in\n    tag_208:\n      0x20\n      mload(0x40)\n      dup1\n      dup4\n      sub\n      dup2\n      dup7\n      gas\n      staticcall\n      iszero\n      dup1\n      iszero\n      tag_210\n      jumpi\n      returndatasize\n      0x00\n      dup1\n      returndatacopy\n      revert(0x00, returndatasize)\n    tag_210:\n      pop\n      pop\n      pop\n      pop\n      mload(0x40)\n      returndatasize\n      not(0x1f)\n      0x1f\n      dup3\n      add\n      and\n      dup3\n      add\n      dup1\n      0x40\n      mstore\n      pop\n      dup2\n      add\n      swap1\n      tag_211\n      swap2\n      swap1\n      tag_131\n      jump\t// in\n    tag_211:\n        /* \"contracts/token/SimpleSwap.sol\":4321:4367  token1.balanceOf(address(this)) - token1Amount */\n      tag_212\n      swap2\n      swap1\n      tag_150\n      jump\t// in\n    tag_212:\n        /* \"contracts/token/SimpleSwap.sol\":4310:4318  reserve1 */\n      0x08\n        /* \"contracts/token/SimpleSwap.sol\":4310:4367  reserve1 = token1.balanceOf(address(this)) - token1Amount */\n      dup2\n      swap1\n      sstore\n      pop\n        /* \"contracts/token/SimpleSwap.sol\":4397:4425  _burn(msg.sender, liquidity) */\n      tag_213\n        /* \"contracts/token/SimpleSwap.sol\":4403:4413  msg.sender */\n      caller\n        /* \"contracts/token/SimpleSwap.sol\":4415:4424  liquidity */\n      dup7\n        /* \"contracts/token/SimpleSwap.sol\":4397:4402  _burn */\n      tag_214\n        /* \"contracts/token/SimpleSwap.sol\":4397:4425  _burn(msg.sender, liquidity) */\n      jump\t// in\n    tag_213:\n        /* \"contracts/token/SimpleSwap.sol\":4459:4465  token0 */\n      0x05\n      0x00\n      swap1\n      sload\n      swap1\n      0x0100\n      exp\n      swap1\n      div\n      0xffffffffffffffffffffffffffffffffffffffff\n      and\n        /* \"contracts/token/SimpleSwap.sol\":4459:4474  token0.transfer */\n      0xffffffffffffffffffffffffffffffffffffffff\n      and\n      0xa9059cbb\n        /* \"contracts/token/SimpleSwap.sol\":4475:4485  msg.sender */\n      caller\n        /* \"contracts/token/SimpleSwap.sol\":4487:4499  token0Amount */\n      dup7\n        /* \"contracts/token/SimpleSwap.sol\":4459:4500  token0.transfer(msg.sender, token0Amount) */\n      mload(0x40)\n      dup4\n      0xffffffff\n      and\n      0xe0\n      shl\n      dup2\n      mstore\n      0x04\n      add\n      tag_215\n      swap3\n      swap2\n      swap1\n      tag_158\n      jump\t// in\n    tag_215:\n      0x20\n      mload(0x40)\n      dup1\n      dup4\n      sub\n      dup2\n      0x00\n      dup8\n      gas\n      call\n      iszero\n      dup1\n      iszero\n      tag_217\n      jumpi\n      returndatasize\n      0x00\n      dup1\n      returndatacopy\n      revert(0x00, returndatasize)\n    tag_217:\n      pop\n      pop\n      pop\n      pop\n      mload(0x40)\n      returndatasize\n      not(0x1f)\n      0x1f\n      dup3\n      add\n      and\n      dup3\n      add\n      dup1\n      0x40\n      mstore\n      pop\n      dup2\n      add\n      swap1\n      tag_218\n      swap2\n      swap1\n      tag_156\n      jump\t// in\n    tag_218:\n      pop\n        /* \"contracts/token/SimpleSwap.sol\":4510:4516  token1 */\n      0x06\n      0x00\n      swap1\n      sload\n      swap1\n      0x0100\n      exp\n      swap1\n      div\n      0xffffffffffffffffffffffffffffffffffffffff\n      and\n        /* \"contracts/token/SimpleSwap.sol\":4510:4525  token1.transfer */\n      0xffffffffffffffffffffffffffffffffffffffff\n      and\n      0xa9059cbb\n        /* \"contracts/token/SimpleSwap.sol\":4526:4536  msg.sender */\n      caller\n        /* \"contracts/token/SimpleSwap.sol\":4538:4550  token1Amount */\n      dup6\n        /* \"contracts/token/SimpleSwap.sol\":4510:4551  token1.transfer(msg.sender, token1Amount) */\n      mload(0x40)\n      dup4\n      0xffffffff\n      and\n      0xe0\n      shl\n      dup2\n      mstore\n      0x04\n      add\n      tag_219\n      swap3\n      swap2\n      swap1\n      tag_158\n      jump\t// in\n    tag_219:\n      0x20\n      mload(0x40)\n      dup1\n      dup4\n      sub\n      dup2\n      0x00\n      dup8\n      gas\n      call\n      iszero\n      dup1\n      iszero\n      tag_221\n      jumpi\n      returndatasize\n      0x00\n      dup1\n      returndatacopy\n      revert(0x00, returndatasize)\n    tag_221:\n      pop\n      pop\n      pop\n      pop\n      mload(0x40)\n      returndatasize\n      not(0x1f)\n      0x1f\n      dup3\n      add\n      and\n      dup3\n      add\n      dup1\n      0x40\n      mstore\n      pop\n      dup2\n      add\n      swap1\n      tag_222\n      swap2\n      swap1\n      tag_156\n      jump\t// in\n    tag_222:\n      pop\n        /* \"contracts/token/SimpleSwap.sol\":4583:4593  msg.sender */\n      caller\n        /* \"contracts/token/SimpleSwap.sol\":4566:4632  LiquidityRemoved(msg.sender, liquidity, token0Amount,token1Amount) */\n      0xffffffffffffffffffffffffffffffffffffffff\n      and\n      0x1dc8bb69df2b8e91fbdcbfcf93d951b3f0000f085a95fe3f7946d6161439245d\n        /* \"contracts/token/SimpleSwap.sol\":4595:4604  liquidity */\n      dup7\n        /* \"contracts/token/SimpleSwap.sol\":4606:4618  token0Amount */\n      dup7\n        /* \"contracts/token/SimpleSwap.sol\":4619:4631  token1Amount */\n      dup7\n        /* \"contracts/token/SimpleSwap.sol\":4566:4632  LiquidityRemoved(msg.sender, liquidity, token0Amount,token1Amount) */\n      mload(0x40)\n      tag_223\n      swap4\n      swap3\n      swap2\n      swap1\n      tag_224\n      jump\t// in\n    tag_223:\n      mload(0x40)\n      dup1\n      swap2\n      sub\n      swap1\n      log2\n        /* \"contracts/token/SimpleSwap.sol\":3891:4639  {... */\n      pop\n      pop\n        /* \"contracts/token/SimpleSwap.sol\":3787:4639  function removeLiquidity(uint256 liquidity) public returns (uint256 token0Amount, uint256 token1Amount) {... */\n      swap2\n      pop\n      swap2\n      jump\t// out\n        /* \"contracts/token/SimpleSwap.sol\":1812:3259  function addLiquidity(... */\n    tag_79:\n        /* \"contracts/token/SimpleSwap.sol\":1983:2000  uint256 liquidity */\n      0x00\n        /* \"contracts/token/SimpleSwap.sol\":2053:2054  0 */\n      dup1\n        /* \"contracts/token/SimpleSwap.sol\":2038:2050  token0Amount */\n      dup4\n        /* \"contracts/token/SimpleSwap.sol\":2038:2054  token0Amount > 0 */\n      gt\n        /* \"contracts/token/SimpleSwap.sol\":2030:2098  require(token0Amount > 0, \"addLiquidity: token0Amount can not zero\") */\n      tag_226\n      jumpi\n      mload(0x40)\n      0x08c379a000000000000000000000000000000000000000000000000000000000\n      dup2\n      mstore\n      0x04\n      add\n      tag_227\n      swap1\n      tag_228\n      jump\t// in\n    tag_227:\n      mload(0x40)\n      dup1\n      swap2\n      sub\n      swap1\n      revert\n    tag_226:\n        /* \"contracts/token/SimpleSwap.sol\":2131:2132  0 */\n      0x00\n        /* \"contracts/token/SimpleSwap.sol\":2116:2128  token1Amount */\n      dup3\n        /* \"contracts/token/SimpleSwap.sol\":2116:2132  token1Amount > 0 */\n      gt\n        /* \"contracts/token/SimpleSwap.sol\":2108:2176  require(token1Amount > 0, \"addLiquidity: token1Amount can not zero\") */\n      tag_229\n      jumpi\n      mload(0x40)\n      0x08c379a000000000000000000000000000000000000000000000000000000000\n      dup2\n      mstore\n      0x04\n      add\n      tag_230\n      swap1\n      tag_231\n      jump\t// in\n    tag_230:\n      mload(0x40)\n      dup1\n      swap2\n      sub\n      swap1\n      revert\n    tag_229:\n        /* \"contracts/token/SimpleSwap.sol\":2277:2289  token0Amount */\n      dup3\n        /* \"contracts/token/SimpleSwap.sol\":2243:2249  token0 */\n      0x05\n      0x00\n      swap1\n      sload\n      swap1\n      0x0100\n      exp\n      swap1\n      div\n      0xffffffffffffffffffffffffffffffffffffffff\n      and\n        /* \"contracts/token/SimpleSwap.sol\":2243:2259  token0.balanceOf */\n      0xffffffffffffffffffffffffffffffffffffffff\n      and\n      0x70a08231\n        /* \"contracts/token/SimpleSwap.sol\":2268:2272  this */\n      address\n        /* \"contracts/token/SimpleSwap.sol\":2243:2274  token0.balanceOf(address(this)) */\n      mload(0x40)\n      dup3\n      0xffffffff\n      and\n      0xe0\n      shl\n      dup2\n      mstore\n      0x04\n      add\n      tag_232\n      swap2\n      swap1\n      tag_127\n      jump\t// in\n    tag_232:\n      0x20\n      mload(0x40)\n      dup1\n      dup4\n      sub\n      dup2\n      dup7\n      gas\n      staticcall\n      iszero\n      dup1\n      iszero\n      tag_234\n      jumpi\n      returndatasize\n      0x00\n      dup1\n      returndatacopy\n      revert(0x00, returndatasize)\n    tag_234:\n      pop\n      pop\n      pop\n      pop\n      mload(0x40)\n      returndatasize\n      not(0x1f)\n      0x1f\n      dup3\n      add\n      and\n      dup3\n      add\n      dup1\n      0x40\n      mstore\n      pop\n      dup2\n      add\n      swap1\n      tag_235\n      swap2\n      swap1\n      tag_131\n      jump\t// in\n    tag_235:\n        /* \"contracts/token/SimpleSwap.sol\":2243:2289  token0.balanceOf(address(this)) + token0Amount */\n      tag_236\n      swap2\n      swap1\n      tag_144\n      jump\t// in\n    tag_236:\n        /* \"contracts/token/SimpleSwap.sol\":2232:2240  reserve0 */\n      0x07\n        /* \"contracts/token/SimpleSwap.sol\":2232:2289  reserve0 = token0.balanceOf(address(this)) + token0Amount */\n      dup2\n      swap1\n      sstore\n      pop\n        /* \"contracts/token/SimpleSwap.sol\":2344:2356  token1Amount */\n      dup2\n        /* \"contracts/token/SimpleSwap.sol\":2310:2316  token1 */\n      0x06\n      0x00\n      swap1\n      sload\n      swap1\n      0x0100\n      exp\n      swap1\n      div\n      0xffffffffffffffffffffffffffffffffffffffff\n      and\n        /* \"contracts/token/SimpleSwap.sol\":2310:2326  token1.balanceOf */\n      0xffffffffffffffffffffffffffffffffffffffff\n      and\n      0x70a08231\n        /* \"contracts/token/SimpleSwap.sol\":2335:2339  this */\n      address\n        /* \"contracts/token/SimpleSwap.sol\":2310:2341  token1.balanceOf(address(this)) */\n      mload(0x40)\n      dup3\n      0xffffffff\n      and\n      0xe0\n      shl\n      dup2\n      mstore\n      0x04\n      add\n      tag_237\n      swap2\n      swap1\n      tag_127\n      jump\t// in\n    tag_237:\n      0x20\n      mload(0x40)\n      dup1\n      dup4\n      sub\n      dup2\n      dup7\n      gas\n      staticcall\n      iszero\n      dup1\n      iszero\n      tag_239\n      jumpi\n      returndatasize\n      0x00\n      dup1\n      returndatacopy\n      revert(0x00, returndatasize)\n    tag_239:\n      pop\n      pop\n      pop\n      pop\n      mload(0x40)\n      returndatasize\n      not(0x1f)\n      0x1f\n      dup3\n      add\n      and\n      dup3\n      add\n      dup1\n      0x40\n      mstore\n      pop\n      dup2\n      add\n      swap1\n      tag_240\n      swap2\n      swap1\n      tag_131\n      jump\t// in\n    tag_240:\n        /* \"contracts/token/SimpleSwap.sol\":2310:2356  token1.balanceOf(address(this)) + token1Amount */\n      tag_241\n      swap2\n      swap1\n      tag_144\n      jump\t// in\n    tag_241:\n        /* \"contracts/token/SimpleSwap.sol\":2299:2307  reserve1 */\n      0x08\n        /* \"contracts/token/SimpleSwap.sol\":2299:2356  reserve1 = token1.balanceOf(address(this)) + token1Amount */\n      dup2\n      swap1\n      sstore\n      pop\n        /* \"contracts/token/SimpleSwap.sol\":2366:2385  uint256 totalSupply */\n      0x00\n        /* \"contracts/token/SimpleSwap.sol\":2388:2401  totalSupply() */\n      tag_242\n        /* \"contracts/token/SimpleSwap.sol\":2388:2399  totalSupply */\n      tag_38\n        /* \"contracts/token/SimpleSwap.sol\":2388:2401  totalSupply() */\n      jump\t// in\n    tag_242:\n        /* \"contracts/token/SimpleSwap.sol\":2366:2401  uint256 totalSupply = totalSupply() */\n      swap1\n      pop\n        /* \"contracts/token/SimpleSwap.sol\":2430:2431  0 */\n      0x00\n        /* \"contracts/token/SimpleSwap.sol\":2415:2426  totalSupply */\n      dup2\n        /* \"contracts/token/SimpleSwap.sol\":2415:2431  totalSupply == 0 */\n      sub\n        /* \"contracts/token/SimpleSwap.sol\":2411:2829  if (totalSupply == 0) {... */\n      tag_243\n      jumpi\n        /* \"contracts/token/SimpleSwap.sol\":2536:2569  sqrt(token0Amount * token1Amount) */\n      tag_244\n        /* \"contracts/token/SimpleSwap.sol\":2556:2568  token1Amount */\n      dup4\n        /* \"contracts/token/SimpleSwap.sol\":2541:2553  token0Amount */\n      dup6\n        /* \"contracts/token/SimpleSwap.sol\":2541:2568  token0Amount * token1Amount */\n      tag_245\n      swap2\n      swap1\n      tag_198\n      jump\t// in\n    tag_245:\n        /* \"contracts/token/SimpleSwap.sol\":2536:2540  sqrt */\n      tag_246\n        /* \"contracts/token/SimpleSwap.sol\":2536:2569  sqrt(token0Amount * token1Amount) */\n      jump\t// in\n    tag_244:\n        /* \"contracts/token/SimpleSwap.sol\":2524:2569  liquidity = sqrt(token0Amount * token1Amount) */\n      swap2\n      pop\n        /* \"contracts/token/SimpleSwap.sol\":2411:2829  if (totalSupply == 0) {... */\n      jump(tag_247)\n    tag_243:\n        /* \"contracts/token/SimpleSwap.sol\":2737:2818  min(token0Amount * totalSupply / reserve0, token1Amount * totalSupply / reserve1) */\n      tag_248\n        /* \"contracts/token/SimpleSwap.sol\":2770:2778  reserve0 */\n      sload(0x07)\n        /* \"contracts/token/SimpleSwap.sol\":2756:2767  totalSupply */\n      dup3\n        /* \"contracts/token/SimpleSwap.sol\":2741:2753  token0Amount */\n      dup7\n        /* \"contracts/token/SimpleSwap.sol\":2741:2767  token0Amount * totalSupply */\n      tag_249\n      swap2\n      swap1\n      tag_198\n      jump\t// in\n    tag_249:\n        /* \"contracts/token/SimpleSwap.sol\":2741:2778  token0Amount * totalSupply / reserve0 */\n      tag_250\n      swap2\n      swap1\n      tag_200\n      jump\t// in\n    tag_250:\n        /* \"contracts/token/SimpleSwap.sol\":2809:2817  reserve1 */\n      sload(0x08)\n        /* \"contracts/token/SimpleSwap.sol\":2795:2806  totalSupply */\n      dup4\n        /* \"contracts/token/SimpleSwap.sol\":2780:2792  token1Amount */\n      dup7\n        /* \"contracts/token/SimpleSwap.sol\":2780:2806  token1Amount * totalSupply */\n      tag_251\n      swap2\n      swap1\n      tag_198\n      jump\t// in\n    tag_251:\n        /* \"contracts/token/SimpleSwap.sol\":2780:2817  token1Amount * totalSupply / reserve1 */\n      tag_252\n      swap2\n      swap1\n      tag_200\n      jump\t// in\n    tag_252:\n        /* \"contracts/token/SimpleSwap.sol\":2737:2740  min */\n      tag_253\n        /* \"contracts/token/SimpleSwap.sol\":2737:2818  min(token0Amount * totalSupply / reserve0, token1Amount * totalSupply / reserve1) */\n      jump\t// in\n    tag_248:\n        /* \"contracts/token/SimpleSwap.sol\":2725:2818  liquidity = min(token0Amount * totalSupply / reserve0, token1Amount * totalSupply / reserve1) */\n      swap2\n      pop\n        /* \"contracts/token/SimpleSwap.sol\":2411:2829  if (totalSupply == 0) {... */\n    tag_247:\n        /* \"contracts/token/SimpleSwap.sol\":2884:2885  0 */\n      0x00\n        /* \"contracts/token/SimpleSwap.sol\":2872:2881  liquidity */\n      dup3\n        /* \"contracts/token/SimpleSwap.sol\":2872:2885  liquidity > 0 */\n      gt\n        /* \"contracts/token/SimpleSwap.sol\":2864:2926  require(liquidity > 0, \"addLiquidity: insufficient liquidity\") */\n      tag_254\n      jumpi\n      mload(0x40)\n      0x08c379a000000000000000000000000000000000000000000000000000000000\n      dup2\n      mstore\n      0x04\n      add\n      tag_255\n      swap1\n      tag_256\n      jump\t// in\n    tag_255:\n      mload(0x40)\n      dup1\n      swap2\n      sub\n      swap1\n      revert\n    tag_254:\n        /* \"contracts/token/SimpleSwap.sol\":2956:2984  _mint(msg.sender, liquidity) */\n      tag_257\n        /* \"contracts/token/SimpleSwap.sol\":2962:2972  msg.sender */\n      caller\n        /* \"contracts/token/SimpleSwap.sol\":2974:2983  liquidity */\n      dup4\n        /* \"contracts/token/SimpleSwap.sol\":2956:2961  _mint */\n      tag_258\n        /* \"contracts/token/SimpleSwap.sol\":2956:2984  _mint(msg.sender, liquidity) */\n      jump\t// in\n    tag_257:\n        /* \"contracts/token/SimpleSwap.sol\":3018:3024  token0 */\n      0x05\n      0x00\n      swap1\n      sload\n      swap1\n      0x0100\n      exp\n      swap1\n      div\n      0xffffffffffffffffffffffffffffffffffffffff\n      and\n        /* \"contracts/token/SimpleSwap.sol\":3018:3037  token0.transferFrom */\n      0xffffffffffffffffffffffffffffffffffffffff\n      and\n      0x23b872dd\n        /* \"contracts/token/SimpleSwap.sol\":3038:3048  msg.sender */\n      caller\n        /* \"contracts/token/SimpleSwap.sol\":3058:3062  this */\n      address\n        /* \"contracts/token/SimpleSwap.sol\":3065:3077  token0Amount */\n      dup8\n        /* \"contracts/token/SimpleSwap.sol\":3018:3078  token0.transferFrom(msg.sender, address(this), token0Amount) */\n      mload(0x40)\n      dup5\n      0xffffffff\n      and\n      0xe0\n      shl\n      dup2\n      mstore\n      0x04\n      add\n      tag_259\n      swap4\n      swap3\n      swap2\n      swap1\n      tag_152\n      jump\t// in\n    tag_259:\n      0x20\n      mload(0x40)\n      dup1\n      dup4\n      sub\n      dup2\n      0x00\n      dup8\n      gas\n      call\n      iszero\n      dup1\n      iszero\n      tag_261\n      jumpi\n      returndatasize\n      0x00\n      dup1\n      returndatacopy\n      revert(0x00, returndatasize)\n    tag_261:\n      pop\n      pop\n      pop\n      pop\n      mload(0x40)\n      returndatasize\n      not(0x1f)\n      0x1f\n      dup3\n      add\n      and\n      dup3\n      add\n      dup1\n      0x40\n      mstore\n      pop\n      dup2\n      add\n      swap1\n      tag_262\n      swap2\n      swap1\n      tag_156\n      jump\t// in\n    tag_262:\n      pop\n        /* \"contracts/token/SimpleSwap.sol\":3088:3094  token1 */\n      0x06\n      0x00\n      swap1\n      sload\n      swap1\n      0x0100\n      exp\n      swap1\n      div\n      0xffffffffffffffffffffffffffffffffffffffff\n      and\n        /* \"contracts/token/SimpleSwap.sol\":3088:3107  token1.transferFrom */\n      0xffffffffffffffffffffffffffffffffffffffff\n      and\n      0x23b872dd\n        /* \"contracts/token/SimpleSwap.sol\":3108:3118  msg.sender */\n      caller\n        /* \"contracts/token/SimpleSwap.sol\":3128:3132  this */\n      address\n        /* \"contracts/token/SimpleSwap.sol\":3135:3147  token1Amount */\n      dup7\n        /* \"contracts/token/SimpleSwap.sol\":3088:3148  token1.transferFrom(msg.sender, address(this), token1Amount) */\n      mload(0x40)\n      dup5\n      0xffffffff\n      and\n      0xe0\n      shl\n      dup2\n      mstore\n      0x04\n      add\n      tag_263\n      swap4\n      swap3\n      swap2\n      swap1\n      tag_152\n      jump\t// in\n    tag_263:\n      0x20\n      mload(0x40)\n      dup1\n      dup4\n      sub\n      dup2\n      0x00\n      dup8\n      gas\n      call\n      iszero\n      dup1\n      iszero\n      tag_265\n      jumpi\n      returndatasize\n      0x00\n      dup1\n      returndatacopy\n      revert(0x00, returndatasize)\n    tag_265:\n      pop\n      pop\n      pop\n      pop\n      mload(0x40)\n      returndatasize\n      not(0x1f)\n      0x1f\n      dup3\n      add\n      and\n      dup3\n      add\n      dup1\n      0x40\n      mstore\n      pop\n      dup2\n      add\n      swap1\n      tag_266\n      swap2\n      swap1\n      tag_156\n      jump\t// in\n    tag_266:\n      pop\n        /* \"contracts/token/SimpleSwap.sol\":3202:3212  msg.sender */\n      caller\n        /* \"contracts/token/SimpleSwap.sol\":3187:3252  LiquidityAdded(msg.sender, token0Amount, token1Amount, liquidity) */\n      0xffffffffffffffffffffffffffffffffffffffff\n      and\n      0x64b83944e79c3ce8d4c297411de637c3e102d064677aac0c163976ebdcd6f50e\n        /* \"contracts/token/SimpleSwap.sol\":3214:3226  token0Amount */\n      dup6\n        /* \"contracts/token/SimpleSwap.sol\":3228:3240  token1Amount */\n      dup6\n        /* \"contracts/token/SimpleSwap.sol\":3242:3251  liquidity */\n      dup6\n        /* \"contracts/token/SimpleSwap.sol\":3187:3252  LiquidityAdded(msg.sender, token0Amount, token1Amount, liquidity) */\n      mload(0x40)\n      tag_267\n      swap4\n      swap3\n      swap2\n      swap1\n      tag_224\n      jump\t// in\n    tag_267:\n      mload(0x40)\n      dup1\n      swap2\n      sub\n      swap1\n      log2\n        /* \"contracts/token/SimpleSwap.sol\":2002:3259  {... */\n      pop\n        /* \"contracts/token/SimpleSwap.sol\":1812:3259  function addLiquidity(... */\n      swap3\n      swap2\n      pop\n      pop\n      jump\t// out\n        /* \"contracts/token/SimpleSwap.sol\":7255:7830  function calculateSwapOutAmount(... */\n    tag_84:\n        /* \"contracts/token/SimpleSwap.sol\":7489:7506  uint256 amountOut */\n      0x00\n        /* \"contracts/token/SimpleSwap.sol\":7537:7538  0 */\n      dup1\n        /* \"contracts/token/SimpleSwap.sol\":7526:7534  amountIn */\n      dup5\n        /* \"contracts/token/SimpleSwap.sol\":7526:7538  amountIn > 0 */\n      gt\n        /* \"contracts/token/SimpleSwap.sol\":7518:7589  require(amountIn > 0, \"calculateSwapOutAmount: amountIn must positive\") */\n      tag_269\n      jumpi\n      mload(0x40)\n      0x08c379a000000000000000000000000000000000000000000000000000000000\n      dup2\n      mstore\n      0x04\n      add\n      tag_270\n      swap1\n      tag_271\n      jump\t// in\n    tag_270:\n      mload(0x40)\n      dup1\n      swap2\n      sub\n      swap1\n      revert\n    tag_269:\n        /* \"contracts/token/SimpleSwap.sol\":7619:7620  0 */\n      0x00\n        /* \"contracts/token/SimpleSwap.sol\":7607:7616  reserveIn */\n      dup4\n        /* \"contracts/token/SimpleSwap.sol\":7607:7620  reserveIn > 0 */\n      gt\n        /* \"contracts/token/SimpleSwap.sol\":7599:7672  require(reserveIn > 0, \"calculateSwapOutAmount: reserveIn must positive\") */\n      tag_272\n      jumpi\n      mload(0x40)\n      0x08c379a000000000000000000000000000000000000000000000000000000000\n      dup2\n      mstore\n      0x04\n      add\n      tag_273\n      swap1\n      tag_274\n      jump\t// in\n    tag_273:\n      mload(0x40)\n      dup1\n      swap2\n      sub\n      swap1\n      revert\n    tag_272:\n        /* \"contracts/token/SimpleSwap.sol\":7703:7704  0 */\n      0x00\n        /* \"contracts/token/SimpleSwap.sol\":7690:7700  reserveOut */\n      dup3\n        /* \"contracts/token/SimpleSwap.sol\":7690:7704  reserveOut > 0 */\n      gt\n        /* \"contracts/token/SimpleSwap.sol\":7682:7757  require(reserveOut > 0, \"calculateSwapOutAmount: reserveOut must positive\") */\n      tag_275\n      jumpi\n      mload(0x40)\n      0x08c379a000000000000000000000000000000000000000000000000000000000\n      dup2\n      mstore\n      0x04\n      add\n      tag_276\n      swap1\n      tag_277\n      jump\t// in\n    tag_276:\n      mload(0x40)\n      dup1\n      swap2\n      sub\n      swap1\n      revert\n    tag_275:\n        /* \"contracts/token/SimpleSwap.sol\":7814:7822  amountIn */\n      dup4\n        /* \"contracts/token/SimpleSwap.sol\":7804:7813  reserveIn */\n      dup4\n        /* \"contracts/token/SimpleSwap.sol\":7804:7822  reserveIn+amountIn */\n      tag_278\n      swap2\n      swap1\n      tag_144\n      jump\t// in\n    tag_278:\n        /* \"contracts/token/SimpleSwap.sol\":7789:7799  reserveOut */\n      dup3\n        /* \"contracts/token/SimpleSwap.sol\":7780:7788  amountIn */\n      dup6\n        /* \"contracts/token/SimpleSwap.sol\":7780:7799  amountIn*reserveOut */\n      tag_279\n      swap2\n      swap1\n      tag_198\n      jump\t// in\n    tag_279:\n        /* \"contracts/token/SimpleSwap.sol\":7779:7823  (amountIn*reserveOut) / (reserveIn+amountIn) */\n      tag_280\n      swap2\n      swap1\n      tag_200\n      jump\t// in\n    tag_280:\n        /* \"contracts/token/SimpleSwap.sol\":7767:7823  amountOut = (amountIn*reserveOut) / (reserveIn+amountIn) */\n      swap1\n      pop\n        /* \"contracts/token/SimpleSwap.sol\":7255:7830  function calculateSwapOutAmount(... */\n      swap4\n      swap3\n      pop\n      pop\n      pop\n      jump\t// out\n        /* \"@openzeppelin/contracts/token/ERC20/ERC20.sol\":3315:3493  function transfer(address to, uint256 value) public virtual returns (bool) {... */\n    tag_88:\n        /* \"@openzeppelin/contracts/token/ERC20/ERC20.sol\":3384:3388  bool */\n      0x00\n        /* \"@openzeppelin/contracts/token/ERC20/ERC20.sol\":3400:3413  address owner */\n      dup1\n        /* \"@openzeppelin/contracts/token/ERC20/ERC20.sol\":3416:3428  _msgSender() */\n      tag_282\n        /* \"@openzeppelin/contracts/token/ERC20/ERC20.sol\":3416:3426  _msgSender */\n      tag_107\n        /* \"@openzeppelin/contracts/token/ERC20/ERC20.sol\":3416:3428  _msgSender() */\n      jump\t// in\n    tag_282:\n        /* \"@openzeppelin/contracts/token/ERC20/ERC20.sol\":3400:3428  address owner = _msgSender() */\n      swap1\n      pop\n        /* \"@openzeppelin/contracts/token/ERC20/ERC20.sol\":3438:3465  _transfer(owner, to, value) */\n      tag_283\n        /* \"@openzeppelin/contracts/token/ERC20/ERC20.sol\":3448:3453  owner */\n      dup2\n        /* \"@openzeppelin/contracts/token/ERC20/ERC20.sol\":3455:3457  to */\n      dup6\n        /* \"@openzeppelin/contracts/token/ERC20/ERC20.sol\":3459:3464  value */\n      dup6\n        /* \"@openzeppelin/contracts/token/ERC20/ERC20.sol\":3438:3447  _transfer */\n      tag_116\n        /* \"@openzeppelin/contracts/token/ERC20/ERC20.sol\":3438:3465  _transfer(owner, to, value) */\n      jump\t// in\n    tag_283:\n        /* \"@openzeppelin/contracts/token/ERC20/ERC20.sol\":3482:3486  true */\n      0x01\n        /* \"@openzeppelin/contracts/token/ERC20/ERC20.sol\":3475:3486  return true */\n      swap2\n      pop\n      pop\n        /* \"@openzeppelin/contracts/token/ERC20/ERC20.sol\":3315:3493  function transfer(address to, uint256 value) public virtual returns (bool) {... */\n      swap3\n      swap2\n      pop\n      pop\n      jump\t// out\n        /* \"contracts/token/SimpleSwap.sol\":877:897  IERC20 public token1 */\n    tag_91:\n      0x06\n      0x00\n      swap1\n      sload\n      swap1\n      0x0100\n      exp\n      swap1\n      div\n      0xffffffffffffffffffffffffffffffffffffffff\n      and\n      dup2\n      jump\t// out\n        /* \"@openzeppelin/contracts/token/ERC20/ERC20.sol\":3551:3691  function allowance(address owner, address spender) public view virtual returns (uint256) {... */\n    tag_96:\n        /* \"@openzeppelin/contracts/token/ERC20/ERC20.sol\":3631:3638  uint256 */\n      0x00\n        /* \"@openzeppelin/contracts/token/ERC20/ERC20.sol\":3657:3668  _allowances */\n      0x01\n        /* \"@openzeppelin/contracts/token/ERC20/ERC20.sol\":3657:3675  _allowances[owner] */\n      0x00\n        /* \"@openzeppelin/contracts/token/ERC20/ERC20.sol\":3669:3674  owner */\n      dup5\n        /* \"@openzeppelin/contracts/token/ERC20/ERC20.sol\":3657:3675  _allowances[owner] */\n      0xffffffffffffffffffffffffffffffffffffffff\n      and\n      0xffffffffffffffffffffffffffffffffffffffff\n      and\n      dup2\n      mstore\n      0x20\n      add\n      swap1\n      dup2\n      mstore\n      0x20\n      add\n      0x00\n      keccak256\n        /* \"@openzeppelin/contracts/token/ERC20/ERC20.sol\":3657:3684  _allowances[owner][spender] */\n      0x00\n        /* \"@openzeppelin/contracts/token/ERC20/ERC20.sol\":3676:3683  spender */\n      dup4\n        /* \"@openzeppelin/contracts/token/ERC20/ERC20.sol\":3657:3684  _allowances[owner][spender] */\n      0xffffffffffffffffffffffffffffffffffffffff\n      and\n      0xffffffffffffffffffffffffffffffffffffffff\n      and\n      dup2\n      mstore\n      0x20\n      add\n      swap1\n      dup2\n      mstore\n      0x20\n      add\n      0x00\n      keccak256\n      sload\n        /* \"@openzeppelin/contracts/token/ERC20/ERC20.sol\":3650:3684  return _allowances[owner][spender] */\n      swap1\n      pop\n        /* \"@openzeppelin/contracts/token/ERC20/ERC20.sol\":3551:3691  function allowance(address owner, address spender) public view virtual returns (uint256) {... */\n      swap3\n      swap2\n      pop\n      pop\n      jump\t// out\n        /* \"@openzeppelin/contracts/utils/Context.sol\":656:752  function _msgSender() internal view virtual returns (address) {... */\n    tag_107:\n        /* \"@openzeppelin/contracts/utils/Context.sol\":709:716  address */\n      0x00\n        /* \"@openzeppelin/contracts/utils/Context.sol\":735:745  msg.sender */\n      caller\n        /* \"@openzeppelin/contracts/utils/Context.sol\":728:745  return msg.sender */\n      swap1\n      pop\n        /* \"@openzeppelin/contracts/utils/Context.sol\":656:752  function _msgSender() internal view virtual returns (address) {... */\n      swap1\n      jump\t// out\n        /* \"@openzeppelin/contracts/token/ERC20/ERC20.sol\":8726:8854  function _approve(address owner, address spender, uint256 value) internal {... */\n    tag_109:\n        /* \"@openzeppelin/contracts/token/ERC20/ERC20.sol\":8810:8847  _approve(owner, spender, value, true) */\n      tag_287\n        /* \"@openzeppelin/contracts/token/ERC20/ERC20.sol\":8819:8824  owner */\n      dup4\n        /* \"@openzeppelin/contracts/token/ERC20/ERC20.sol\":8826:8833  spender */\n      dup4\n        /* \"@openzeppelin/contracts/token/ERC20/ERC20.sol\":8835:8840  value */\n      dup4\n        /* \"@openzeppelin/contracts/token/ERC20/ERC20.sol\":8842:8846  true */\n      0x01\n        /* \"@openzeppelin/contracts/token/ERC20/ERC20.sol\":8810:8818  _approve */\n      tag_288\n        /* \"@openzeppelin/contracts/token/ERC20/ERC20.sol\":8810:8847  _approve(owner, spender, value, true) */\n      jump\t// in\n    tag_287:\n        /* \"@openzeppelin/contracts/token/ERC20/ERC20.sol\":8726:8854  function _approve(address owner, address spender, uint256 value) internal {... */\n      pop\n      pop\n      pop\n      jump\t// out\n        /* \"@openzeppelin/contracts/token/ERC20/ERC20.sol\":10415:10891  function _spendAllowance(address owner, address spender, uint256 value) internal virtual {... */\n    tag_114:\n        /* \"@openzeppelin/contracts/token/ERC20/ERC20.sol\":10514:10538  uint256 currentAllowance */\n      0x00\n        /* \"@openzeppelin/contracts/token/ERC20/ERC20.sol\":10541:10566  allowance(owner, spender) */\n      tag_290\n        /* \"@openzeppelin/contracts/token/ERC20/ERC20.sol\":10551:10556  owner */\n      dup5\n        /* \"@openzeppelin/contracts/token/ERC20/ERC20.sol\":10558:10565  spender */\n      dup5\n        /* \"@openzeppelin/contracts/token/ERC20/ERC20.sol\":10541:10550  allowance */\n      tag_96\n        /* \"@openzeppelin/contracts/token/ERC20/ERC20.sol\":10541:10566  allowance(owner, spender) */\n      jump\t// in\n    tag_290:\n        /* \"@openzeppelin/contracts/token/ERC20/ERC20.sol\":10514:10566  uint256 currentAllowance = allowance(owner, spender) */\n      swap1\n      pop\n        /* \"@openzeppelin/contracts/token/ERC20/ERC20.sol\":10599:10616  type(uint256).max */\n      0xffffffffffffffffffffffffffffffffffffffffffffffffffffffffffffffff\n        /* \"@openzeppelin/contracts/token/ERC20/ERC20.sol\":10580:10596  currentAllowance */\n      dup2\n        /* \"@openzeppelin/contracts/token/ERC20/ERC20.sol\":10580:10616  currentAllowance < type(uint256).max */\n      lt\n        /* \"@openzeppelin/contracts/token/ERC20/ERC20.sol\":10576:10885  if (currentAllowance < type(uint256).max) {... */\n      iszero\n      tag_291\n      jumpi\n        /* \"@openzeppelin/contracts/token/ERC20/ERC20.sol\":10655:10660  value */\n      dup2\n        /* \"@openzeppelin/contracts/token/ERC20/ERC20.sol\":10636:10652  currentAllowance */\n      dup2\n        /* \"@openzeppelin/contracts/token/ERC20/ERC20.sol\":10636:10660  currentAllowance < value */\n      lt\n        /* \"@openzeppelin/contracts/token/ERC20/ERC20.sol\":10632:10762  if (currentAllowance < value) {... */\n      iszero\n      tag_292\n      jumpi\n        /* \"@openzeppelin/contracts/token/ERC20/ERC20.sol\":10714:10721  spender */\n      dup3\n        /* \"@openzeppelin/contracts/token/ERC20/ERC20.sol\":10723:10739  currentAllowance */\n      dup2\n        /* \"@openzeppelin/contracts/token/ERC20/ERC20.sol\":10741:10746  value */\n      dup4\n        /* \"@openzeppelin/contracts/token/ERC20/ERC20.sol\":10687:10747  ERC20InsufficientAllowance(spender, currentAllowance, value) */\n      mload(0x40)\n      0xfb8f41b200000000000000000000000000000000000000000000000000000000\n      dup2\n      mstore\n      0x04\n      add\n      tag_293\n      swap4\n      swap3\n      swap2\n      swap1\n      tag_294\n      jump\t// in\n    tag_293:\n      mload(0x40)\n      dup1\n      swap2\n      sub\n      swap1\n      revert\n        /* \"@openzeppelin/contracts/token/ERC20/ERC20.sol\":10632:10762  if (currentAllowance < value) {... */\n    tag_292:\n        /* \"@openzeppelin/contracts/token/ERC20/ERC20.sol\":10803:10860  _approve(owner, spender, currentAllowance - value, false) */\n      tag_295\n        /* \"@openzeppelin/contracts/token/ERC20/ERC20.sol\":10812:10817  owner */\n      dup5\n        /* \"@openzeppelin/contracts/token/ERC20/ERC20.sol\":10819:10826  spender */\n      dup5\n        /* \"@openzeppelin/contracts/token/ERC20/ERC20.sol\":10847:10852  value */\n      dup5\n        /* \"@openzeppelin/contracts/token/ERC20/ERC20.sol\":10828:10844  currentAllowance */\n      dup5\n        /* \"@openzeppelin/contracts/token/ERC20/ERC20.sol\":10828:10852  currentAllowance - value */\n      sub\n        /* \"@openzeppelin/contracts/token/ERC20/ERC20.sol\":10854:10859  false */\n      0x00\n        /* \"@openzeppelin/contracts/token/ERC20/ERC20.sol\":10803:10811  _approve */\n      tag_288\n        /* \"@openzeppelin/contracts/token/ERC20/ERC20.sol\":10803:10860  _approve(owner, spender, currentAllowance - value, false) */\n      jump\t// in\n    tag_295:\n        /* \"@openzeppelin/contracts/token/ERC20/ERC20.sol\":10576:10885  if (currentAllowance < type(uint256).max) {... */\n    tag_291:\n        /* \"@openzeppelin/contracts/token/ERC20/ERC20.sol\":10504:10891  {... */\n      pop\n        /* \"@openzeppelin/contracts/token/ERC20/ERC20.sol\":10415:10891  function _spendAllowance(address owner, address spender, uint256 value) internal virtual {... */\n      pop\n      pop\n      pop\n      jump\t// out\n        /* \"@openzeppelin/contracts/token/ERC20/ERC20.sol\":5393:5693  function _transfer(address from, address to, uint256 value) internal {... */\n    tag_116:\n        /* \"@openzeppelin/contracts/token/ERC20/ERC20.sol\":5492:5493  0 */\n      0x00\n        /* \"@openzeppelin/contracts/token/ERC20/ERC20.sol\":5476:5494  from == address(0) */\n      0xffffffffffffffffffffffffffffffffffffffff\n      and\n        /* \"@openzeppelin/contracts/token/ERC20/ERC20.sol\":5476:5480  from */\n      dup4\n        /* \"@openzeppelin/contracts/token/ERC20/ERC20.sol\":5476:5494  from == address(0) */\n      0xffffffffffffffffffffffffffffffffffffffff\n      and\n      sub\n        /* \"@openzeppelin/contracts/token/ERC20/ERC20.sol\":5472:5558  if (from == address(0)) {... */\n      tag_297\n      jumpi\n        /* \"@openzeppelin/contracts/token/ERC20/ERC20.sol\":5544:5545  0 */\n      0x00\n        /* \"@openzeppelin/contracts/token/ERC20/ERC20.sol\":5517:5547  ERC20InvalidSender(address(0)) */\n      mload(0x40)\n      0x96c6fd1e00000000000000000000000000000000000000000000000000000000\n      dup2\n      mstore\n      0x04\n      add\n      tag_298\n      swap2\n      swap1\n      tag_127\n      jump\t// in\n    tag_298:\n      mload(0x40)\n      dup1\n      swap2\n      sub\n      swap1\n      revert\n        /* \"@openzeppelin/contracts/token/ERC20/ERC20.sol\":5472:5558  if (from == address(0)) {... */\n    tag_297:\n        /* \"@openzeppelin/contracts/token/ERC20/ERC20.sol\":5585:5586  0 */\n      0x00\n        /* \"@openzeppelin/contracts/token/ERC20/ERC20.sol\":5571:5587  to == address(0) */\n      0xffffffffffffffffffffffffffffffffffffffff\n      and\n        /* \"@openzeppelin/contracts/token/ERC20/ERC20.sol\":5571:5573  to */\n      dup3\n        /* \"@openzeppelin/contracts/token/ERC20/ERC20.sol\":5571:5587  to == address(0) */\n      0xffffffffffffffffffffffffffffffffffffffff\n      and\n      sub\n        /* \"@openzeppelin/contracts/token/ERC20/ERC20.sol\":5567:5653  if (to == address(0)) {... */\n      tag_299\n      jumpi\n        /* \"@openzeppelin/contracts/token/ERC20/ERC20.sol\":5639:5640  0 */\n      0x00\n        /* \"@openzeppelin/contracts/token/ERC20/ERC20.sol\":5610:5642  ERC20InvalidReceiver(address(0)) */\n      mload(0x40)\n      0xec442f0500000000000000000000000000000000000000000000000000000000\n      dup2\n      mstore\n      0x04\n      add\n      tag_300\n      swap2\n      swap1\n      tag_127\n      jump\t// in\n    tag_300:\n      mload(0x40)\n      dup1\n      swap2\n      sub\n      swap1\n      revert\n        /* \"@openzeppelin/contracts/token/ERC20/ERC20.sol\":5567:5653  if (to == address(0)) {... */\n    tag_299:\n        /* \"@openzeppelin/contracts/token/ERC20/ERC20.sol\":5662:5686  _update(from, to, value) */\n      tag_301\n        /* \"@openzeppelin/contracts/token/ERC20/ERC20.sol\":5670:5674  from */\n      dup4\n        /* \"@openzeppelin/contracts/token/ERC20/ERC20.sol\":5676:5678  to */\n      dup4\n        /* \"@openzeppelin/contracts/token/ERC20/ERC20.sol\":5680:5685  value */\n      dup4\n        /* \"@openzeppelin/contracts/token/ERC20/ERC20.sol\":5662:5669  _update */\n      tag_302\n        /* \"@openzeppelin/contracts/token/ERC20/ERC20.sol\":5662:5686  _update(from, to, value) */\n      jump\t// in\n    tag_301:\n        /* \"@openzeppelin/contracts/token/ERC20/ERC20.sol\":5393:5693  function _transfer(address from, address to, uint256 value) internal {... */\n      pop\n      pop\n      pop\n      jump\t// out\n        /* \"@openzeppelin/contracts/token/ERC20/ERC20.sol\":7984:8190  function _burn(address account, uint256 value) internal {... */\n    tag_214:\n        /* \"@openzeppelin/contracts/token/ERC20/ERC20.sol\":8073:8074  0 */\n      0x00\n        /* \"@openzeppelin/contracts/token/ERC20/ERC20.sol\":8054:8075  account == address(0) */\n      0xffffffffffffffffffffffffffffffffffffffff\n      and\n        /* \"@openzeppelin/contracts/token/ERC20/ERC20.sol\":8054:8061  account */\n      dup3\n        /* \"@openzeppelin/contracts/token/ERC20/ERC20.sol\":8054:8075  account == address(0) */\n      0xffffffffffffffffffffffffffffffffffffffff\n      and\n      sub\n        /* \"@openzeppelin/contracts/token/ERC20/ERC20.sol\":8050:8139  if (account == address(0)) {... */\n      tag_304\n      jumpi\n        /* \"@openzeppelin/contracts/token/ERC20/ERC20.sol\":8125:8126  0 */\n      0x00\n        /* \"@openzeppelin/contracts/token/ERC20/ERC20.sol\":8098:8128  ERC20InvalidSender(address(0)) */\n      mload(0x40)\n      0x96c6fd1e00000000000000000000000000000000000000000000000000000000\n      dup2\n      mstore\n      0x04\n      add\n      tag_305\n      swap2\n      swap1\n      tag_127\n      jump\t// in\n    tag_305:\n      mload(0x40)\n      dup1\n      swap2\n      sub\n      swap1\n      revert\n        /* \"@openzeppelin/contracts/token/ERC20/ERC20.sol\":8050:8139  if (account == address(0)) {... */\n    tag_304:\n        /* \"@openzeppelin/contracts/token/ERC20/ERC20.sol\":8148:8183  _update(account, address(0), value) */\n      tag_306\n        /* \"@openzeppelin/contracts/token/ERC20/ERC20.sol\":8156:8163  account */\n      dup3\n        /* \"@openzeppelin/contracts/token/ERC20/ERC20.sol\":8173:8174  0 */\n      0x00\n        /* \"@openzeppelin/contracts/token/ERC20/ERC20.sol\":8177:8182  value */\n      dup4\n        /* \"@openzeppelin/contracts/token/ERC20/ERC20.sol\":8148:8155  _update */\n      tag_302\n        /* \"@openzeppelin/contracts/token/ERC20/ERC20.sol\":8148:8183  _update(account, address(0), value) */\n      jump\t// in\n    tag_306:\n        /* \"@openzeppelin/contracts/token/ERC20/ERC20.sol\":7984:8190  function _burn(address account, uint256 value) internal {... */\n      pop\n      pop\n      jump\t// out\n        /* \"contracts/token/SimpleSwap.sol\":7863:8199  function sqrt(uint256 num) internal pure returns (uint256 result) {... */\n    tag_246:\n        /* \"contracts/token/SimpleSwap.sol\":7913:7927  uint256 result */\n      0x00\n        /* \"contracts/token/SimpleSwap.sol\":7949:7950  3 */\n      0x03\n        /* \"contracts/token/SimpleSwap.sol\":7943:7946  num */\n      dup3\n        /* \"contracts/token/SimpleSwap.sol\":7943:7950  num > 3 */\n      gt\n        /* \"contracts/token/SimpleSwap.sol\":7939:8193  if (num > 3) {... */\n      iszero\n      tag_308\n      jumpi\n        /* \"contracts/token/SimpleSwap.sol\":7975:7978  num */\n      dup2\n        /* \"contracts/token/SimpleSwap.sol\":7966:7978  result = num */\n      swap1\n      pop\n        /* \"contracts/token/SimpleSwap.sol\":7992:8001  uint256 x */\n      0x00\n        /* \"contracts/token/SimpleSwap.sol\":8014:8015  1 */\n      0x01\n        /* \"contracts/token/SimpleSwap.sol\":8010:8011  2 */\n      0x02\n        /* \"contracts/token/SimpleSwap.sol\":8004:8007  num */\n      dup5\n        /* \"contracts/token/SimpleSwap.sol\":8004:8011  num / 2 */\n      tag_309\n      swap2\n      swap1\n      tag_200\n      jump\t// in\n    tag_309:\n        /* \"contracts/token/SimpleSwap.sol\":8004:8015  num / 2 + 1 */\n      tag_310\n      swap2\n      swap1\n      tag_144\n      jump\t// in\n    tag_310:\n        /* \"contracts/token/SimpleSwap.sol\":7992:8015  uint256 x = num / 2 + 1 */\n      swap1\n      pop\n        /* \"contracts/token/SimpleSwap.sol\":8029:8130  while (x < result) {... */\n    tag_311:\n        /* \"contracts/token/SimpleSwap.sol\":8040:8046  result */\n      dup2\n        /* \"contracts/token/SimpleSwap.sol\":8036:8037  x */\n      dup2\n        /* \"contracts/token/SimpleSwap.sol\":8036:8046  x < result */\n      lt\n        /* \"contracts/token/SimpleSwap.sol\":8029:8130  while (x < result) {... */\n      iszero\n      tag_312\n      jumpi\n        /* \"contracts/token/SimpleSwap.sol\":8075:8076  x */\n      dup1\n        /* \"contracts/token/SimpleSwap.sol\":8066:8076  result = x */\n      swap2\n      pop\n        /* \"contracts/token/SimpleSwap.sol\":8114:8115  2 */\n      0x02\n        /* \"contracts/token/SimpleSwap.sol\":8109:8110  x */\n      dup2\n        /* \"contracts/token/SimpleSwap.sol\":8105:8106  x */\n      dup3\n        /* \"contracts/token/SimpleSwap.sol\":8099:8102  num */\n      dup6\n        /* \"contracts/token/SimpleSwap.sol\":8099:8106  num / x */\n      tag_313\n      swap2\n      swap1\n      tag_200\n      jump\t// in\n    tag_313:\n        /* \"contracts/token/SimpleSwap.sol\":8099:8110  num / x + x */\n      tag_314\n      swap2\n      swap1\n      tag_144\n      jump\t// in\n    tag_314:\n        /* \"contracts/token/SimpleSwap.sol\":8098:8115  (num / x + x) / 2 */\n      tag_315\n      swap2\n      swap1\n      tag_200\n      jump\t// in\n    tag_315:\n        /* \"contracts/token/SimpleSwap.sol\":8094:8115  x = (num / x + x) / 2 */\n      swap1\n      pop\n        /* \"contracts/token/SimpleSwap.sol\":8029:8130  while (x < result) {... */\n      jump(tag_311)\n    tag_312:\n        /* \"contracts/token/SimpleSwap.sol\":7952:8140  {... */\n      pop\n        /* \"contracts/token/SimpleSwap.sol\":7939:8193  if (num > 3) {... */\n      jump(tag_316)\n    tag_308:\n        /* \"contracts/token/SimpleSwap.sol\":8155:8156  0 */\n      0x00\n        /* \"contracts/token/SimpleSwap.sol\":8148:8151  num */\n      dup3\n        /* \"contracts/token/SimpleSwap.sol\":8148:8156  num != 0 */\n      eq\n        /* \"contracts/token/SimpleSwap.sol\":8145:8193  if(num != 0) {... */\n      tag_317\n      jumpi\n        /* \"contracts/token/SimpleSwap.sol\":8181:8182  1 */\n      0x01\n        /* \"contracts/token/SimpleSwap.sol\":8172:8182  result = 1 */\n      swap1\n      pop\n        /* \"contracts/token/SimpleSwap.sol\":8145:8193  if(num != 0) {... */\n    tag_317:\n        /* \"contracts/token/SimpleSwap.sol\":7939:8193  if (num > 3) {... */\n    tag_316:\n        /* \"contracts/token/SimpleSwap.sol\":7863:8199  function sqrt(uint256 num) internal pure returns (uint256 result) {... */\n      swap2\n      swap1\n      pop\n      jump\t// out\n        /* \"contracts/token/SimpleSwap.sol\":8224:8352  function min(uint num0, uint256 num1) internal pure returns (uint256 result) {... */\n    tag_253:\n        /* \"contracts/token/SimpleSwap.sol\":8285:8299  uint256 result */\n      0x00\n        /* \"contracts/token/SimpleSwap.sol\":8327:8331  num1 */\n      dup2\n        /* \"contracts/token/SimpleSwap.sol\":8320:8324  num0 */\n      dup4\n        /* \"contracts/token/SimpleSwap.sol\":8320:8331  num0 < num1 */\n      lt\n        /* \"contracts/token/SimpleSwap.sol\":8320:8345  num0 < num1 ? num0 : num1 */\n      tag_319\n      jumpi\n        /* \"contracts/token/SimpleSwap.sol\":8341:8345  num1 */\n      dup2\n        /* \"contracts/token/SimpleSwap.sol\":8320:8345  num0 < num1 ? num0 : num1 */\n      jump(tag_320)\n    tag_319:\n        /* \"contracts/token/SimpleSwap.sol\":8334:8338  num0 */\n      dup3\n        /* \"contracts/token/SimpleSwap.sol\":8320:8345  num0 < num1 ? num0 : num1 */\n    tag_320:\n        /* \"contracts/token/SimpleSwap.sol\":8311:8345  result = num0 < num1 ? num0 : num1 */\n      swap1\n      pop\n        /* \"contracts/token/SimpleSwap.sol\":8224:8352  function min(uint num0, uint256 num1) internal pure returns (uint256 result) {... */\n      swap3\n      swap2\n      pop\n      pop\n      jump\t// out\n        /* \"@openzeppelin/contracts/token/ERC20/ERC20.sol\":7458:7666  function _mint(address account, uint256 value) internal {... */\n    tag_258:\n        /* \"@openzeppelin/contracts/token/ERC20/ERC20.sol\":7547:7548  0 */\n      0x00\n        /* \"@openzeppelin/contracts/token/ERC20/ERC20.sol\":7528:7549  account == address(0) */\n      0xffffffffffffffffffffffffffffffffffffffff\n      and\n        /* \"@openzeppelin/contracts/token/ERC20/ERC20.sol\":7528:7535  account */\n      dup3\n        /* \"@openzeppelin/contracts/token/ERC20/ERC20.sol\":7528:7549  account == address(0) */\n      0xffffffffffffffffffffffffffffffffffffffff\n      and\n      sub\n        /* \"@openzeppelin/contracts/token/ERC20/ERC20.sol\":7524:7615  if (account == address(0)) {... */\n      tag_322\n      jumpi\n        /* \"@openzeppelin/contracts/token/ERC20/ERC20.sol\":7601:7602  0 */\n      0x00\n        /* \"@openzeppelin/contracts/token/ERC20/ERC20.sol\":7572:7604  ERC20InvalidReceiver(address(0)) */\n      mload(0x40)\n      0xec442f0500000000000000000000000000000000000000000000000000000000\n      dup2\n      mstore\n      0x04\n      add\n      tag_323\n      swap2\n      swap1\n      tag_127\n      jump\t// in\n    tag_323:\n      mload(0x40)\n      dup1\n      swap2\n      sub\n      swap1\n      revert\n        /* \"@openzeppelin/contracts/token/ERC20/ERC20.sol\":7524:7615  if (account == address(0)) {... */\n    tag_322:\n        /* \"@openzeppelin/contracts/token/ERC20/ERC20.sol\":7624:7659  _update(address(0), account, value) */\n      tag_324\n        /* \"@openzeppelin/contracts/token/ERC20/ERC20.sol\":7640:7641  0 */\n      0x00\n        /* \"@openzeppelin/contracts/token/ERC20/ERC20.sol\":7644:7651  account */\n      dup4\n        /* \"@openzeppelin/contracts/token/ERC20/ERC20.sol\":7653:7658  value */\n      dup4\n        /* \"@openzeppelin/contracts/token/ERC20/ERC20.sol\":7624:7631  _update */\n      tag_302\n        /* \"@openzeppelin/contracts/token/ERC20/ERC20.sol\":7624:7659  _update(address(0), account, value) */\n      jump\t// in\n    tag_324:\n        /* \"@openzeppelin/contracts/token/ERC20/ERC20.sol\":7458:7666  function _mint(address account, uint256 value) internal {... */\n      pop\n      pop\n      jump\t// out\n        /* \"@openzeppelin/contracts/token/ERC20/ERC20.sol\":9701:10133  function _approve(address owner, address spender, uint256 value, bool emitEvent) internal virtual {... */\n    tag_288:\n        /* \"@openzeppelin/contracts/token/ERC20/ERC20.sol\":9830:9831  0 */\n      0x00\n        /* \"@openzeppelin/contracts/token/ERC20/ERC20.sol\":9813:9832  owner == address(0) */\n      0xffffffffffffffffffffffffffffffffffffffff\n      and\n        /* \"@openzeppelin/contracts/token/ERC20/ERC20.sol\":9813:9818  owner */\n      dup5\n        /* \"@openzeppelin/contracts/token/ERC20/ERC20.sol\":9813:9832  owner == address(0) */\n      0xffffffffffffffffffffffffffffffffffffffff\n      and\n      sub\n        /* \"@openzeppelin/contracts/token/ERC20/ERC20.sol\":9809:9898  if (owner == address(0)) {... */\n      tag_326\n      jumpi\n        /* \"@openzeppelin/contracts/token/ERC20/ERC20.sol\":9884:9885  0 */\n      0x00\n        /* \"@openzeppelin/contracts/token/ERC20/ERC20.sol\":9855:9887  ERC20InvalidApprover(address(0)) */\n      mload(0x40)\n      0xe602df0500000000000000000000000000000000000000000000000000000000\n      dup2\n      mstore\n      0x04\n      add\n      tag_327\n      swap2\n      swap1\n      tag_127\n      jump\t// in\n    tag_327:\n      mload(0x40)\n      dup1\n      swap2\n      sub\n      swap1\n      revert\n        /* \"@openzeppelin/contracts/token/ERC20/ERC20.sol\":9809:9898  if (owner == address(0)) {... */\n    tag_326:\n        /* \"@openzeppelin/contracts/token/ERC20/ERC20.sol\":9930:9931  0 */\n      0x00\n        /* \"@openzeppelin/contracts/token/ERC20/ERC20.sol\":9911:9932  spender == address(0) */\n      0xffffffffffffffffffffffffffffffffffffffff\n      and\n        /* \"@openzeppelin/contracts/token/ERC20/ERC20.sol\":9911:9918  spender */\n      dup4\n        /* \"@openzeppelin/contracts/token/ERC20/ERC20.sol\":9911:9932  spender == address(0) */\n      0xffffffffffffffffffffffffffffffffffffffff\n      and\n      sub\n        /* \"@openzeppelin/contracts/token/ERC20/ERC20.sol\":9907:9997  if (spender == address(0)) {... */\n      tag_328\n      jumpi\n        /* \"@openzeppelin/contracts/token/ERC20/ERC20.sol\":9983:9984  0 */\n      0x00\n        /* \"@openzeppelin/contracts/token/ERC20/ERC20.sol\":9955:9986  ERC20InvalidSpender(address(0)) */\n      mload(0x40)\n      0x94280d6200000000000000000000000000000000000000000000000000000000\n      dup2\n      mstore\n      0x04\n      add\n      tag_329\n      swap2\n      swap1\n      tag_127\n      jump\t// in\n    tag_329:\n      mload(0x40)\n      dup1\n      swap2\n      sub\n      swap1\n      revert\n        /* \"@openzeppelin/contracts/token/ERC20/ERC20.sol\":9907:9997  if (spender == address(0)) {... */\n    tag_328:\n        /* \"@openzeppelin/contracts/token/ERC20/ERC20.sol\":10036:10041  value */\n      dup2\n        /* \"@openzeppelin/contracts/token/ERC20/ERC20.sol\":10006:10017  _allowances */\n      0x01\n        /* \"@openzeppelin/contracts/token/ERC20/ERC20.sol\":10006:10024  _allowances[owner] */\n      0x00\n        /* \"@openzeppelin/contracts/token/ERC20/ERC20.sol\":10018:10023  owner */\n      dup7\n        /* \"@openzeppelin/contracts/token/ERC20/ERC20.sol\":10006:10024  _allowances[owner] */\n      0xffffffffffffffffffffffffffffffffffffffff\n      and\n      0xffffffffffffffffffffffffffffffffffffffff\n      and\n      dup2\n      mstore\n      0x20\n      add\n      swap1\n      dup2\n      mstore\n      0x20\n      add\n      0x00\n      keccak256\n        /* \"@openzeppelin/contracts/token/ERC20/ERC20.sol\":10006:10033  _allowances[owner][spender] */\n      0x00\n        /* \"@openzeppelin/contracts/token/ERC20/ERC20.sol\":10025:10032  spender */\n      dup6\n        /* \"@openzeppelin/contracts/token/ERC20/ERC20.sol\":10006:10033  _allowances[owner][spender] */\n      0xffffffffffffffffffffffffffffffffffffffff\n      and\n      0xffffffffffffffffffffffffffffffffffffffff\n      and\n      dup2\n      mstore\n      0x20\n      add\n      swap1\n      dup2\n      mstore\n      0x20\n      add\n      0x00\n      keccak256\n        /* \"@openzeppelin/contracts/token/ERC20/ERC20.sol\":10006:10041  _allowances[owner][spender] = value */\n      dup2\n      swap1\n      sstore\n      pop\n        /* \"@openzeppelin/contracts/token/ERC20/ERC20.sol\":10055:10064  emitEvent */\n      dup1\n        /* \"@openzeppelin/contracts/token/ERC20/ERC20.sol\":10051:10127  if (emitEvent) {... */\n      iszero\n      tag_330\n      jumpi\n        /* \"@openzeppelin/contracts/token/ERC20/ERC20.sol\":10101:10108  spender */\n      dup3\n        /* \"@openzeppelin/contracts/token/ERC20/ERC20.sol\":10085:10116  Approval(owner, spender, value) */\n      0xffffffffffffffffffffffffffffffffffffffff\n      and\n        /* \"@openzeppelin/contracts/token/ERC20/ERC20.sol\":10094:10099  owner */\n      dup5\n        /* \"@openzeppelin/contracts/token/ERC20/ERC20.sol\":10085:10116  Approval(owner, spender, value) */\n      0xffffffffffffffffffffffffffffffffffffffff\n      and\n      0x8c5be1e5ebec7d5bd14f71427d1e84f3dd0314c0f7b2291e5b200ac8c7c3b925\n        /* \"@openzeppelin/contracts/token/ERC20/ERC20.sol\":10110:10115  value */\n      dup5\n        /* \"@openzeppelin/contracts/token/ERC20/ERC20.sol\":10085:10116  Approval(owner, spender, value) */\n      mload(0x40)\n      tag_331\n      swap2\n      swap1\n      tag_40\n      jump\t// in\n    tag_331:\n      mload(0x40)\n      dup1\n      swap2\n      sub\n      swap1\n      log3\n        /* \"@openzeppelin/contracts/token/ERC20/ERC20.sol\":10051:10127  if (emitEvent) {... */\n    tag_330:\n        /* \"@openzeppelin/contracts/token/ERC20/ERC20.sol\":9701:10133  function _approve(address owner, address spender, uint256 value, bool emitEvent) internal virtual {... */\n      pop\n      pop\n      pop\n      pop\n      jump\t// out\n        /* \"@openzeppelin/contracts/token/ERC20/ERC20.sol\":6008:7115  function _update(address from, address to, uint256 value) internal virtual {... */\n    tag_302:\n        /* \"@openzeppelin/contracts/token/ERC20/ERC20.sol\":6113:6114  0 */\n      0x00\n        /* \"@openzeppelin/contracts/token/ERC20/ERC20.sol\":6097:6115  from == address(0) */\n      0xffffffffffffffffffffffffffffffffffffffff\n      and\n        /* \"@openzeppelin/contracts/token/ERC20/ERC20.sol\":6097:6101  from */\n      dup4\n        /* \"@openzeppelin/contracts/token/ERC20/ERC20.sol\":6097:6115  from == address(0) */\n      0xffffffffffffffffffffffffffffffffffffffff\n      and\n      sub\n        /* \"@openzeppelin/contracts/token/ERC20/ERC20.sol\":6093:6633  if (from == address(0)) {... */\n      tag_333\n      jumpi\n        /* \"@openzeppelin/contracts/token/ERC20/ERC20.sol\":6249:6254  value */\n      dup1\n        /* \"@openzeppelin/contracts/token/ERC20/ERC20.sol\":6233:6245  _totalSupply */\n      0x02\n      0x00\n        /* \"@openzeppelin/contracts/token/ERC20/ERC20.sol\":6233:6254  _totalSupply += value */\n      dup3\n      dup3\n      sload\n      tag_334\n      swap2\n      swap1\n      tag_144\n      jump\t// in\n    tag_334:\n      swap3\n      pop\n      pop\n      dup2\n      swap1\n      sstore\n      pop\n        /* \"@openzeppelin/contracts/token/ERC20/ERC20.sol\":6093:6633  if (from == address(0)) {... */\n      jump(tag_335)\n    tag_333:\n        /* \"@openzeppelin/contracts/token/ERC20/ERC20.sol\":6285:6304  uint256 fromBalance */\n      0x00\n        /* \"@openzeppelin/contracts/token/ERC20/ERC20.sol\":6307:6316  _balances */\n      dup1\n        /* \"@openzeppelin/contracts/token/ERC20/ERC20.sol\":6307:6322  _balances[from] */\n      0x00\n        /* \"@openzeppelin/contracts/token/ERC20/ERC20.sol\":6317:6321  from */\n      dup6\n        /* \"@openzeppelin/contracts/token/ERC20/ERC20.sol\":6307:6322  _balances[from] */\n      0xffffffffffffffffffffffffffffffffffffffff\n      and\n      0xffffffffffffffffffffffffffffffffffffffff\n      and\n      dup2\n      mstore\n      0x20\n      add\n      swap1\n      dup2\n      mstore\n      0x20\n      add\n      0x00\n      keccak256\n      sload\n        /* \"@openzeppelin/contracts/token/ERC20/ERC20.sol\":6285:6322  uint256 fromBalance = _balances[from] */\n      swap1\n      pop\n        /* \"@openzeppelin/contracts/token/ERC20/ERC20.sol\":6354:6359  value */\n      dup2\n        /* \"@openzeppelin/contracts/token/ERC20/ERC20.sol\":6340:6351  fromBalance */\n      dup2\n        /* \"@openzeppelin/contracts/token/ERC20/ERC20.sol\":6340:6359  fromBalance < value */\n      lt\n        /* \"@openzeppelin/contracts/token/ERC20/ERC20.sol\":6336:6451  if (fromBalance < value) {... */\n      iszero\n      tag_336\n      jumpi\n        /* \"@openzeppelin/contracts/token/ERC20/ERC20.sol\":6411:6415  from */\n      dup4\n        /* \"@openzeppelin/contracts/token/ERC20/ERC20.sol\":6417:6428  fromBalance */\n      dup2\n        /* \"@openzeppelin/contracts/token/ERC20/ERC20.sol\":6430:6435  value */\n      dup4\n        /* \"@openzeppelin/contracts/token/ERC20/ERC20.sol\":6386:6436  ERC20InsufficientBalance(from, fromBalance, value) */\n      mload(0x40)\n      0xe450d38c00000000000000000000000000000000000000000000000000000000\n      dup2\n      mstore\n      0x04\n      add\n      tag_337\n      swap4\n      swap3\n      swap2\n      swap1\n      tag_294\n      jump\t// in\n    tag_337:\n      mload(0x40)\n      dup1\n      swap2\n      sub\n      swap1\n      revert\n        /* \"@openzeppelin/contracts/token/ERC20/ERC20.sol\":6336:6451  if (fromBalance < value) {... */\n    tag_336:\n        /* \"@openzeppelin/contracts/token/ERC20/ERC20.sol\":6603:6608  value */\n      dup2\n        /* \"@openzeppelin/contracts/token/ERC20/ERC20.sol\":6589:6600  fromBalance */\n      dup2\n        /* \"@openzeppelin/contracts/token/ERC20/ERC20.sol\":6589:6608  fromBalance - value */\n      sub\n        /* \"@openzeppelin/contracts/token/ERC20/ERC20.sol\":6571:6580  _balances */\n      0x00\n        /* \"@openzeppelin/contracts/token/ERC20/ERC20.sol\":6571:6586  _balances[from] */\n      dup1\n        /* \"@openzeppelin/contracts/token/ERC20/ERC20.sol\":6581:6585  from */\n      dup7\n        /* \"@openzeppelin/contracts/token/ERC20/ERC20.sol\":6571:6586  _balances[from] */\n      0xffffffffffffffffffffffffffffffffffffffff\n      and\n      0xffffffffffffffffffffffffffffffffffffffff\n      and\n      dup2\n      mstore\n      0x20\n      add\n      swap1\n      dup2\n      mstore\n      0x20\n      add\n      0x00\n      keccak256\n        /* \"@openzeppelin/contracts/token/ERC20/ERC20.sol\":6571:6608  _balances[from] = fromBalance - value */\n      dup2\n      swap1\n      sstore\n      pop\n        /* \"@openzeppelin/contracts/token/ERC20/ERC20.sol\":6271:6633  {... */\n      pop\n        /* \"@openzeppelin/contracts/token/ERC20/ERC20.sol\":6093:6633  if (from == address(0)) {... */\n    tag_335:\n        /* \"@openzeppelin/contracts/token/ERC20/ERC20.sol\":6661:6662  0 */\n      0x00\n        /* \"@openzeppelin/contracts/token/ERC20/ERC20.sol\":6647:6663  to == address(0) */\n      0xffffffffffffffffffffffffffffffffffffffff\n      and\n        /* \"@openzeppelin/contracts/token/ERC20/ERC20.sol\":6647:6649  to */\n      dup3\n        /* \"@openzeppelin/contracts/token/ERC20/ERC20.sol\":6647:6663  to == address(0) */\n      0xffffffffffffffffffffffffffffffffffffffff\n      and\n      sub\n        /* \"@openzeppelin/contracts/token/ERC20/ERC20.sol\":6643:7068  if (to == address(0)) {... */\n      tag_338\n      jumpi\n        /* \"@openzeppelin/contracts/token/ERC20/ERC20.sol\":6826:6831  value */\n      dup1\n        /* \"@openzeppelin/contracts/token/ERC20/ERC20.sol\":6810:6822  _totalSupply */\n      0x02\n      0x00\n        /* \"@openzeppelin/contracts/token/ERC20/ERC20.sol\":6810:6831  _totalSupply -= value */\n      dup3\n      dup3\n      sload\n      sub\n      swap3\n      pop\n      pop\n      dup2\n      swap1\n      sstore\n      pop\n        /* \"@openzeppelin/contracts/token/ERC20/ERC20.sol\":6643:7068  if (to == address(0)) {... */\n      jump(tag_339)\n    tag_338:\n        /* \"@openzeppelin/contracts/token/ERC20/ERC20.sol\":7038:7043  value */\n      dup1\n        /* \"@openzeppelin/contracts/token/ERC20/ERC20.sol\":7021:7030  _balances */\n      0x00\n        /* \"@openzeppelin/contracts/token/ERC20/ERC20.sol\":7021:7034  _balances[to] */\n      dup1\n        /* \"@openzeppelin/contracts/token/ERC20/ERC20.sol\":7031:7033  to */\n      dup5\n        /* \"@openzeppelin/contracts/token/ERC20/ERC20.sol\":7021:7034  _balances[to] */\n      0xffffffffffffffffffffffffffffffffffffffff\n      and\n      0xffffffffffffffffffffffffffffffffffffffff\n      and\n      dup2\n      mstore\n      0x20\n      add\n      swap1\n      dup2\n      mstore\n      0x20\n      add\n      0x00\n      keccak256\n      0x00\n        /* \"@openzeppelin/contracts/token/ERC20/ERC20.sol\":7021:7043  _balances[to] += value */\n      dup3\n      dup3\n      sload\n      add\n      swap3\n      pop\n      pop\n      dup2\n      swap1\n      sstore\n      pop\n        /* \"@openzeppelin/contracts/token/ERC20/ERC20.sol\":6643:7068  if (to == address(0)) {... */\n    tag_339:\n        /* \"@openzeppelin/contracts/token/ERC20/ERC20.sol\":7098:7100  to */\n      dup2\n        /* \"@openzeppelin/contracts/token/ERC20/ERC20.sol\":7083:7108  Transfer(from, to, value) */\n      0xffffffffffffffffffffffffffffffffffffffff\n      and\n        /* \"@openzeppelin/contracts/token/ERC20/ERC20.sol\":7092:7096  from */\n      dup4\n        /* \"@openzeppelin/contracts/token/ERC20/ERC20.sol\":7083:7108  Transfer(from, to, value) */\n      0xffffffffffffffffffffffffffffffffffffffff\n      and\n      0xddf252ad1be2c89b69c2b068fc378daa952ba7f163c4a11628f55a4df523b3ef\n        /* \"@openzeppelin/contracts/token/ERC20/ERC20.sol\":7102:7107  value */\n      dup4\n        /* \"@openzeppelin/contracts/token/ERC20/ERC20.sol\":7083:7108  Transfer(from, to, value) */\n      mload(0x40)\n      tag_340\n      swap2\n      swap1\n      tag_40\n      jump\t// in\n    tag_340:\n      mload(0x40)\n      dup1\n      swap2\n      sub\n      swap1\n      log3\n        /* \"@openzeppelin/contracts/token/ERC20/ERC20.sol\":6008:7115  function _update(address from, address to, uint256 value) internal virtual {... */\n      pop\n      pop\n      pop\n      jump\t// out\n        /* \"#utility.yul\":7:106   */\n    tag_341:\n        /* \"#utility.yul\":59:65   */\n      0x00\n        /* \"#utility.yul\":93:98   */\n      dup2\n        /* \"#utility.yul\":87:99   */\n      mload\n        /* \"#utility.yul\":77:99   */\n      swap1\n      pop\n        /* \"#utility.yul\":7:106   */\n      swap2\n      swap1\n      pop\n      jump\t// out\n        /* \"#utility.yul\":112:281   */\n    tag_342:\n        /* \"#utility.yul\":196:207   */\n      0x00\n        /* \"#utility.yul\":230:236   */\n      dup3\n        /* \"#utility.yul\":225:228   */\n      dup3\n        /* \"#utility.yul\":218:237   */\n      mstore\n        /* \"#utility.yul\":270:274   */\n      0x20\n        /* \"#utility.yul\":265:268   */\n      dup3\n        /* \"#utility.yul\":261:275   */\n      add\n        /* \"#utility.yul\":246:275   */\n      swap1\n      pop\n        /* \"#utility.yul\":112:281   */\n      swap3\n      swap2\n      pop\n      pop\n      jump\t// out\n        /* \"#utility.yul\":287:426   */\n    tag_343:\n        /* \"#utility.yul\":376:382   */\n      dup3\n        /* \"#utility.yul\":371:374   */\n      dup2\n        /* \"#utility.yul\":366:369   */\n      dup4\n        /* \"#utility.yul\":360:383   */\n      mcopy\n        /* \"#utility.yul\":417:418   */\n      0x00\n        /* \"#utility.yul\":408:414   */\n      dup4\n        /* \"#utility.yul\":403:406   */\n      dup4\n        /* \"#utility.yul\":399:415   */\n      add\n        /* \"#utility.yul\":392:419   */\n      mstore\n        /* \"#utility.yul\":287:426   */\n      pop\n      pop\n      pop\n      jump\t// out\n        /* \"#utility.yul\":432:534   */\n    tag_344:\n        /* \"#utility.yul\":473:479   */\n      0x00\n        /* \"#utility.yul\":524:526   */\n      0x1f\n        /* \"#utility.yul\":520:527   */\n      not\n        /* \"#utility.yul\":515:517   */\n      0x1f\n        /* \"#utility.yul\":508:513   */\n      dup4\n        /* \"#utility.yul\":504:518   */\n      add\n        /* \"#utility.yul\":500:528   */\n      and\n        /* \"#utility.yul\":490:528   */\n      swap1\n      pop\n        /* \"#utility.yul\":432:534   */\n      swap2\n      swap1\n      pop\n      jump\t// out\n        /* \"#utility.yul\":540:917   */\n    tag_345:\n        /* \"#utility.yul\":628:631   */\n      0x00\n        /* \"#utility.yul\":656:695   */\n      tag_400\n        /* \"#utility.yul\":689:694   */\n      dup3\n        /* \"#utility.yul\":656:695   */\n      tag_341\n      jump\t// in\n    tag_400:\n        /* \"#utility.yul\":711:782   */\n      tag_401\n        /* \"#utility.yul\":775:781   */\n      dup2\n        /* \"#utility.yul\":770:773   */\n      dup6\n        /* \"#utility.yul\":711:782   */\n      tag_342\n      jump\t// in\n    tag_401:\n        /* \"#utility.yul\":704:782   */\n      swap4\n      pop\n        /* \"#utility.yul\":791:856   */\n      tag_402\n        /* \"#utility.yul\":849:855   */\n      dup2\n        /* \"#utility.yul\":844:847   */\n      dup6\n        /* \"#utility.yul\":837:841   */\n      0x20\n        /* \"#utility.yul\":830:835   */\n      dup7\n        /* \"#utility.yul\":826:842   */\n      add\n        /* \"#utility.yul\":791:856   */\n      tag_343\n      jump\t// in\n    tag_402:\n        /* \"#utility.yul\":881:910   */\n      tag_403\n        /* \"#utility.yul\":903:909   */\n      dup2\n        /* \"#utility.yul\":881:910   */\n      tag_344\n      jump\t// in\n    tag_403:\n        /* \"#utility.yul\":876:879   */\n      dup5\n        /* \"#utility.yul\":872:911   */\n      add\n        /* \"#utility.yul\":865:911   */\n      swap2\n      pop\n        /* \"#utility.yul\":632:917   */\n      pop\n        /* \"#utility.yul\":540:917   */\n      swap3\n      swap2\n      pop\n      pop\n      jump\t// out\n        /* \"#utility.yul\":923:1236   */\n    tag_26:\n        /* \"#utility.yul\":1036:1040   */\n      0x00\n        /* \"#utility.yul\":1074:1076   */\n      0x20\n        /* \"#utility.yul\":1063:1072   */\n      dup3\n        /* \"#utility.yul\":1059:1077   */\n      add\n        /* \"#utility.yul\":1051:1077   */\n      swap1\n      pop\n        /* \"#utility.yul\":1123:1132   */\n      dup2\n        /* \"#utility.yul\":1117:1121   */\n      dup2\n        /* \"#utility.yul\":1113:1133   */\n      sub\n        /* \"#utility.yul\":1109:1110   */\n      0x00\n        /* \"#utility.yul\":1098:1107   */\n      dup4\n        /* \"#utility.yul\":1094:1111   */\n      add\n        /* \"#utility.yul\":1087:1134   */\n      mstore\n        /* \"#utility.yul\":1151:1229   */\n      tag_405\n        /* \"#utility.yul\":1224:1228   */\n      dup2\n        /* \"#utility.yul\":1215:1221   */\n      dup5\n        /* \"#utility.yul\":1151:1229   */\n      tag_345\n      jump\t// in\n    tag_405:\n        /* \"#utility.yul\":1143:1229   */\n      swap1\n      pop\n        /* \"#utility.yul\":923:1236   */\n      swap3\n      swap2\n      pop\n      pop\n      jump\t// out\n        /* \"#utility.yul\":1323:1440   */\n    tag_347:\n        /* \"#utility.yul\":1432:1433   */\n      0x00\n        /* \"#utility.yul\":1429:1430   */\n      dup1\n        /* \"#utility.yul\":1422:1434   */\n      revert\n        /* \"#utility.yul\":1569:1695   */\n    tag_349:\n        /* \"#utility.yul\":1606:1613   */\n      0x00\n        /* \"#utility.yul\":1646:1688   */\n      0xffffffffffffffffffffffffffffffffffffffff\n        /* \"#utility.yul\":1639:1644   */\n      dup3\n        /* \"#utility.yul\":1635:1689   */\n      and\n        /* \"#utility.yul\":1624:1689   */\n      swap1\n      pop\n        /* \"#utility.yul\":1569:1695   */\n      swap2\n      swap1\n      pop\n      jump\t// out\n        /* \"#utility.yul\":1701:1797   */\n    tag_350:\n        /* \"#utility.yul\":1738:1745   */\n      0x00\n        /* \"#utility.yul\":1767:1791   */\n      tag_411\n        /* \"#utility.yul\":1785:1790   */\n      dup3\n        /* \"#utility.yul\":1767:1791   */\n      tag_349\n      jump\t// in\n    tag_411:\n        /* \"#utility.yul\":1756:1791   */\n      swap1\n      pop\n        /* \"#utility.yul\":1701:1797   */\n      swap2\n      swap1\n      pop\n      jump\t// out\n        /* \"#utility.yul\":1803:1925   */\n    tag_351:\n        /* \"#utility.yul\":1876:1900   */\n      tag_413\n        /* \"#utility.yul\":1894:1899   */\n      dup2\n        /* \"#utility.yul\":1876:1900   */\n      tag_350\n      jump\t// in\n    tag_413:\n        /* \"#utility.yul\":1869:1874   */\n      dup2\n        /* \"#utility.yul\":1866:1901   */\n      eq\n        /* \"#utility.yul\":1856:1919   */\n      tag_414\n      jumpi\n        /* \"#utility.yul\":1915:1916   */\n      0x00\n        /* \"#utility.yul\":1912:1913   */\n      dup1\n        /* \"#utility.yul\":1905:1917   */\n      revert\n        /* \"#utility.yul\":1856:1919   */\n    tag_414:\n        /* \"#utility.yul\":1803:1925   */\n      pop\n      jump\t// out\n        /* \"#utility.yul\":1931:2070   */\n    tag_352:\n        /* \"#utility.yul\":1977:1982   */\n      0x00\n        /* \"#utility.yul\":2015:2021   */\n      dup2\n        /* \"#utility.yul\":2002:2022   */\n      calldataload\n        /* \"#utility.yul\":1993:2022   */\n      swap1\n      pop\n        /* \"#utility.yul\":2031:2064   */\n      tag_416\n        /* \"#utility.yul\":2058:2063   */\n      dup2\n        /* \"#utility.yul\":2031:2064   */\n      tag_351\n      jump\t// in\n    tag_416:\n        /* \"#utility.yul\":1931:2070   */\n      swap3\n      swap2\n      pop\n      pop\n      jump\t// out\n        /* \"#utility.yul\":2076:2153   */\n    tag_353:\n        /* \"#utility.yul\":2113:2120   */\n      0x00\n        /* \"#utility.yul\":2142:2147   */\n      dup2\n        /* \"#utility.yul\":2131:2147   */\n      swap1\n      pop\n        /* \"#utility.yul\":2076:2153   */\n      swap2\n      swap1\n      pop\n      jump\t// out\n        /* \"#utility.yul\":2159:2281   */\n    tag_354:\n        /* \"#utility.yul\":2232:2256   */\n      tag_419\n        /* \"#utility.yul\":2250:2255   */\n      dup2\n        /* \"#utility.yul\":2232:2256   */\n      tag_353\n      jump\t// in\n    tag_419:\n        /* \"#utility.yul\":2225:2230   */\n      dup2\n        /* \"#utility.yul\":2222:2257   */\n      eq\n        /* \"#utility.yul\":2212:2275   */\n      tag_420\n      jumpi\n        /* \"#utility.yul\":2271:2272   */\n      0x00\n        /* \"#utility.yul\":2268:2269   */\n      dup1\n        /* \"#utility.yul\":2261:2273   */\n      revert\n        /* \"#utility.yul\":2212:2275   */\n    tag_420:\n        /* \"#utility.yul\":2159:2281   */\n      pop\n      jump\t// out\n        /* \"#utility.yul\":2287:2426   */\n    tag_355:\n        /* \"#utility.yul\":2333:2338   */\n      0x00\n        /* \"#utility.yul\":2371:2377   */\n      dup2\n        /* \"#utility.yul\":2358:2378   */\n      calldataload\n        /* \"#utility.yul\":2349:2378   */\n      swap1\n      pop\n        /* \"#utility.yul\":2387:2420   */\n      tag_422\n        /* \"#utility.yul\":2414:2419   */\n      dup2\n        /* \"#utility.yul\":2387:2420   */\n      tag_354\n      jump\t// in\n    tag_422:\n        /* \"#utility.yul\":2287:2426   */\n      swap3\n      swap2\n      pop\n      pop\n      jump\t// out\n        /* \"#utility.yul\":2432:2906   */\n    tag_29:\n        /* \"#utility.yul\":2500:2506   */\n      0x00\n        /* \"#utility.yul\":2508:2514   */\n      dup1\n        /* \"#utility.yul\":2557:2559   */\n      0x40\n        /* \"#utility.yul\":2545:2554   */\n      dup4\n        /* \"#utility.yul\":2536:2543   */\n      dup6\n        /* \"#utility.yul\":2532:2555   */\n      sub\n        /* \"#utility.yul\":2528:2560   */\n      slt\n        /* \"#utility.yul\":2525:2644   */\n      iszero\n      tag_424\n      jumpi\n        /* \"#utility.yul\":2563:2642   */\n      tag_425\n      tag_347\n      jump\t// in\n    tag_425:\n        /* \"#utility.yul\":2525:2644   */\n    tag_424:\n        /* \"#utility.yul\":2683:2684   */\n      0x00\n        /* \"#utility.yul\":2708:2761   */\n      tag_426\n        /* \"#utility.yul\":2753:2760   */\n      dup6\n        /* \"#utility.yul\":2744:2750   */\n      dup3\n        /* \"#utility.yul\":2733:2742   */\n      dup7\n        /* \"#utility.yul\":2729:2751   */\n      add\n        /* \"#utility.yul\":2708:2761   */\n      tag_352\n      jump\t// in\n    tag_426:\n        /* \"#utility.yul\":2698:2761   */\n      swap3\n      pop\n        /* \"#utility.yul\":2654:2771   */\n      pop\n        /* \"#utility.yul\":2810:2812   */\n      0x20\n        /* \"#utility.yul\":2836:2889   */\n      tag_427\n        /* \"#utility.yul\":2881:2888   */\n      dup6\n        /* \"#utility.yul\":2872:2878   */\n      dup3\n        /* \"#utility.yul\":2861:2870   */\n      dup7\n        /* \"#utility.yul\":2857:2879   */\n      add\n        /* \"#utility.yul\":2836:2889   */\n      tag_355\n      jump\t// in\n    tag_427:\n        /* \"#utility.yul\":2826:2889   */\n      swap2\n      pop\n        /* \"#utility.yul\":2781:2899   */\n      pop\n        /* \"#utility.yul\":2432:2906   */\n      swap3\n      pop\n      swap3\n      swap1\n      pop\n      jump\t// out\n        /* \"#utility.yul\":2912:3002   */\n    tag_356:\n        /* \"#utility.yul\":2946:2953   */\n      0x00\n        /* \"#utility.yul\":2989:2994   */\n      dup2\n        /* \"#utility.yul\":2982:2995   */\n      iszero\n        /* \"#utility.yul\":2975:2996   */\n      iszero\n        /* \"#utility.yul\":2964:2996   */\n      swap1\n      pop\n        /* \"#utility.yul\":2912:3002   */\n      swap2\n      swap1\n      pop\n      jump\t// out\n        /* \"#utility.yul\":3008:3117   */\n    tag_357:\n        /* \"#utility.yul\":3089:3110   */\n      tag_430\n        /* \"#utility.yul\":3104:3109   */\n      dup2\n        /* \"#utility.yul\":3089:3110   */\n      tag_356\n      jump\t// in\n    tag_430:\n        /* \"#utility.yul\":3084:3087   */\n      dup3\n        /* \"#utility.yul\":3077:3111   */\n      mstore\n        /* \"#utility.yul\":3008:3117   */\n      pop\n      pop\n      jump\t// out\n        /* \"#utility.yul\":3123:3333   */\n    tag_32:\n        /* \"#utility.yul\":3210:3214   */\n      0x00\n        /* \"#utility.yul\":3248:3250   */\n      0x20\n        /* \"#utility.yul\":3237:3246   */\n      dup3\n        /* \"#utility.yul\":3233:3251   */\n      add\n        /* \"#utility.yul\":3225:3251   */\n      swap1\n      pop\n        /* \"#utility.yul\":3261:3326   */\n      tag_432\n        /* \"#utility.yul\":3323:3324   */\n      0x00\n        /* \"#utility.yul\":3312:3321   */\n      dup4\n        /* \"#utility.yul\":3308:3325   */\n      add\n        /* \"#utility.yul\":3299:3305   */\n      dup5\n        /* \"#utility.yul\":3261:3326   */\n      tag_357\n      jump\t// in\n    tag_432:\n        /* \"#utility.yul\":3123:3333   */\n      swap3\n      swap2\n      pop\n      pop\n      jump\t// out\n        /* \"#utility.yul\":3339:3399   */\n    tag_358:\n        /* \"#utility.yul\":3367:3370   */\n      0x00\n        /* \"#utility.yul\":3388:3393   */\n      dup2\n        /* \"#utility.yul\":3381:3393   */\n      swap1\n      pop\n        /* \"#utility.yul\":3339:3399   */\n      swap2\n      swap1\n      pop\n      jump\t// out\n        /* \"#utility.yul\":3405:3547   */\n    tag_359:\n        /* \"#utility.yul\":3455:3464   */\n      0x00\n        /* \"#utility.yul\":3488:3541   */\n      tag_435\n        /* \"#utility.yul\":3506:3540   */\n      tag_436\n        /* \"#utility.yul\":3515:3539   */\n      tag_437\n        /* \"#utility.yul\":3533:3538   */\n      dup5\n        /* \"#utility.yul\":3515:3539   */\n      tag_349\n      jump\t// in\n    tag_437:\n        /* \"#utility.yul\":3506:3540   */\n      tag_358\n      jump\t// in\n    tag_436:\n        /* \"#utility.yul\":3488:3541   */\n      tag_349\n      jump\t// in\n    tag_435:\n        /* \"#utility.yul\":3475:3541   */\n      swap1\n      pop\n        /* \"#utility.yul\":3405:3547   */\n      swap2\n      swap1\n      pop\n      jump\t// out\n        /* \"#utility.yul\":3553:3679   */\n    tag_360:\n        /* \"#utility.yul\":3603:3612   */\n      0x00\n        /* \"#utility.yul\":3636:3673   */\n      tag_439\n        /* \"#utility.yul\":3667:3672   */\n      dup3\n        /* \"#utility.yul\":3636:3673   */\n      tag_359\n      jump\t// in\n    tag_439:\n        /* \"#utility.yul\":3623:3673   */\n      swap1\n      pop\n        /* \"#utility.yul\":3553:3679   */\n      swap2\n      swap1\n      pop\n      jump\t// out\n        /* \"#utility.yul\":3685:3825   */\n    tag_361:\n        /* \"#utility.yul\":3749:3758   */\n      0x00\n        /* \"#utility.yul\":3782:3819   */\n      tag_441\n        /* \"#utility.yul\":3813:3818   */\n      dup3\n        /* \"#utility.yul\":3782:3819   */\n      tag_360\n      jump\t// in\n    tag_441:\n        /* \"#utility.yul\":3769:3819   */\n      swap1\n      pop\n        /* \"#utility.yul\":3685:3825   */\n      swap2\n      swap1\n      pop\n      jump\t// out\n        /* \"#utility.yul\":3831:3990   */\n    tag_362:\n        /* \"#utility.yul\":3932:3983   */\n      tag_443\n        /* \"#utility.yul\":3977:3982   */\n      dup2\n        /* \"#utility.yul\":3932:3983   */\n      tag_361\n      jump\t// in\n    tag_443:\n        /* \"#utility.yul\":3927:3930   */\n      dup3\n        /* \"#utility.yul\":3920:3984   */\n      mstore\n        /* \"#utility.yul\":3831:3990   */\n      pop\n      pop\n      jump\t// out\n        /* \"#utility.yul\":3996:4246   */\n    tag_36:\n        /* \"#utility.yul\":4103:4107   */\n      0x00\n        /* \"#utility.yul\":4141:4143   */\n      0x20\n        /* \"#utility.yul\":4130:4139   */\n      dup3\n        /* \"#utility.yul\":4126:4144   */\n      add\n        /* \"#utility.yul\":4118:4144   */\n      swap1\n      pop\n        /* \"#utility.yul\":4154:4239   */\n      tag_445\n        /* \"#utility.yul\":4236:4237   */\n      0x00\n        /* \"#utility.yul\":4225:4234   */\n      dup4\n        /* \"#utility.yul\":4221:4238   */\n      add\n        /* \"#utility.yul\":4212:4218   */\n      dup5\n        /* \"#utility.yul\":4154:4239   */\n      tag_362\n      jump\t// in\n    tag_445:\n        /* \"#utility.yul\":3996:4246   */\n      swap3\n      swap2\n      pop\n      pop\n      jump\t// out\n        /* \"#utility.yul\":4252:4370   */\n    tag_363:\n        /* \"#utility.yul\":4339:4363   */\n      tag_447\n        /* \"#utility.yul\":4357:4362   */\n      dup2\n        /* \"#utility.yul\":4339:4363   */\n      tag_353\n      jump\t// in\n    tag_447:\n        /* \"#utility.yul\":4334:4337   */\n      dup3\n        /* \"#utility.yul\":4327:4364   */\n      mstore\n        /* \"#utility.yul\":4252:4370   */\n      pop\n      pop\n      jump\t// out\n        /* \"#utility.yul\":4376:4598   */\n    tag_40:\n        /* \"#utility.yul\":4469:4473   */\n      0x00\n        /* \"#utility.yul\":4507:4509   */\n      0x20\n        /* \"#utility.yul\":4496:4505   */\n      dup3\n        /* \"#utility.yul\":4492:4510   */\n      add\n        /* \"#utility.yul\":4484:4510   */\n      swap1\n      pop\n        /* \"#utility.yul\":4520:4591   */\n      tag_449\n        /* \"#utility.yul\":4588:4589   */\n      0x00\n        /* \"#utility.yul\":4577:4586   */\n      dup4\n        /* \"#utility.yul\":4573:4590   */\n      add\n        /* \"#utility.yul\":4564:4570   */\n      dup5\n        /* \"#utility.yul\":4520:4591   */\n      tag_363\n      jump\t// in\n    tag_449:\n        /* \"#utility.yul\":4376:4598   */\n      swap3\n      swap2\n      pop\n      pop\n      jump\t// out\n        /* \"#utility.yul\":4604:5223   */\n    tag_43:\n        /* \"#utility.yul\":4681:4687   */\n      0x00\n        /* \"#utility.yul\":4689:4695   */\n      dup1\n        /* \"#utility.yul\":4697:4703   */\n      0x00\n        /* \"#utility.yul\":4746:4748   */\n      0x60\n        /* \"#utility.yul\":4734:4743   */\n      dup5\n        /* \"#utility.yul\":4725:4732   */\n      dup7\n        /* \"#utility.yul\":4721:4744   */\n      sub\n        /* \"#utility.yul\":4717:4749   */\n      slt\n        /* \"#utility.yul\":4714:4833   */\n      iszero\n      tag_451\n      jumpi\n        /* \"#utility.yul\":4752:4831   */\n      tag_452\n      tag_347\n      jump\t// in\n    tag_452:\n        /* \"#utility.yul\":4714:4833   */\n    tag_451:\n        /* \"#utility.yul\":4872:4873   */\n      0x00\n        /* \"#utility.yul\":4897:4950   */\n      tag_453\n        /* \"#utility.yul\":4942:4949   */\n      dup7\n        /* \"#utility.yul\":4933:4939   */\n      dup3\n        /* \"#utility.yul\":4922:4931   */\n      dup8\n        /* \"#utility.yul\":4918:4940   */\n      add\n        /* \"#utility.yul\":4897:4950   */\n      tag_352\n      jump\t// in\n    tag_453:\n        /* \"#utility.yul\":4887:4950   */\n      swap4\n      pop\n        /* \"#utility.yul\":4843:4960   */\n      pop\n        /* \"#utility.yul\":4999:5001   */\n      0x20\n        /* \"#utility.yul\":5025:5078   */\n      tag_454\n        /* \"#utility.yul\":5070:5077   */\n      dup7\n        /* \"#utility.yul\":5061:5067   */\n      dup3\n        /* \"#utility.yul\":5050:5059   */\n      dup8\n        /* \"#utility.yul\":5046:5068   */\n      add\n        /* \"#utility.yul\":5025:5078   */\n      tag_352\n      jump\t// in\n    tag_454:\n        /* \"#utility.yul\":5015:5078   */\n      swap3\n      pop\n        /* \"#utility.yul\":4970:5088   */\n      pop\n        /* \"#utility.yul\":5127:5129   */\n      0x40\n        /* \"#utility.yul\":5153:5206   */\n      tag_455\n        /* \"#utility.yul\":5198:5205   */\n      dup7\n        /* \"#utility.yul\":5189:5195   */\n      dup3\n        /* \"#utility.yul\":5178:5187   */\n      dup8\n        /* \"#utility.yul\":5174:5196   */\n      add\n        /* \"#utility.yul\":5153:5206   */\n      tag_355\n      jump\t// in\n    tag_455:\n        /* \"#utility.yul\":5143:5206   */\n      swap2\n      pop\n        /* \"#utility.yul\":5098:5216   */\n      pop\n        /* \"#utility.yul\":4604:5223   */\n      swap3\n      pop\n      swap3\n      pop\n      swap3\n      jump\t// out\n        /* \"#utility.yul\":5229:5315   */\n    tag_364:\n        /* \"#utility.yul\":5264:5271   */\n      0x00\n        /* \"#utility.yul\":5304:5308   */\n      0xff\n        /* \"#utility.yul\":5297:5302   */\n      dup3\n        /* \"#utility.yul\":5293:5309   */\n      and\n        /* \"#utility.yul\":5282:5309   */\n      swap1\n      pop\n        /* \"#utility.yul\":5229:5315   */\n      swap2\n      swap1\n      pop\n      jump\t// out\n        /* \"#utility.yul\":5321:5433   */\n    tag_365:\n        /* \"#utility.yul\":5404:5426   */\n      tag_458\n        /* \"#utility.yul\":5420:5425   */\n      dup2\n        /* \"#utility.yul\":5404:5426   */\n      tag_364\n      jump\t// in\n    tag_458:\n        /* \"#utility.yul\":5399:5402   */\n      dup3\n        /* \"#utility.yul\":5392:5427   */\n      mstore\n        /* \"#utility.yul\":5321:5433   */\n      pop\n      pop\n      jump\t// out\n        /* \"#utility.yul\":5439:5653   */\n    tag_49:\n        /* \"#utility.yul\":5528:5532   */\n      0x00\n        /* \"#utility.yul\":5566:5568   */\n      0x20\n        /* \"#utility.yul\":5555:5564   */\n      dup3\n        /* \"#utility.yul\":5551:5569   */\n      add\n        /* \"#utility.yul\":5543:5569   */\n      swap1\n      pop\n        /* \"#utility.yul\":5579:5646   */\n      tag_460\n        /* \"#utility.yul\":5643:5644   */\n      0x00\n        /* \"#utility.yul\":5632:5641   */\n      dup4\n        /* \"#utility.yul\":5628:5645   */\n      add\n        /* \"#utility.yul\":5619:5625   */\n      dup5\n        /* \"#utility.yul\":5579:5646   */\n      tag_365\n      jump\t// in\n    tag_460:\n        /* \"#utility.yul\":5439:5653   */\n      swap3\n      swap2\n      pop\n      pop\n      jump\t// out\n        /* \"#utility.yul\":5659:5769   */\n    tag_366:\n        /* \"#utility.yul\":5710:5717   */\n      0x00\n        /* \"#utility.yul\":5739:5763   */\n      tag_462\n        /* \"#utility.yul\":5757:5762   */\n      dup3\n        /* \"#utility.yul\":5739:5763   */\n      tag_350\n      jump\t// in\n    tag_462:\n        /* \"#utility.yul\":5728:5763   */\n      swap1\n      pop\n        /* \"#utility.yul\":5659:5769   */\n      swap2\n      swap1\n      pop\n      jump\t// out\n        /* \"#utility.yul\":5775:5925   */\n    tag_367:\n        /* \"#utility.yul\":5862:5900   */\n      tag_464\n        /* \"#utility.yul\":5894:5899   */\n      dup2\n        /* \"#utility.yul\":5862:5900   */\n      tag_366\n      jump\t// in\n    tag_464:\n        /* \"#utility.yul\":5855:5860   */\n      dup2\n        /* \"#utility.yul\":5852:5901   */\n      eq\n        /* \"#utility.yul\":5842:5919   */\n      tag_465\n      jumpi\n        /* \"#utility.yul\":5915:5916   */\n      0x00\n        /* \"#utility.yul\":5912:5913   */\n      dup1\n        /* \"#utility.yul\":5905:5917   */\n      revert\n        /* \"#utility.yul\":5842:5919   */\n    tag_465:\n        /* \"#utility.yul\":5775:5925   */\n      pop\n      jump\t// out\n        /* \"#utility.yul\":5931:6098   */\n    tag_368:\n        /* \"#utility.yul\":5991:5996   */\n      0x00\n        /* \"#utility.yul\":6029:6035   */\n      dup2\n        /* \"#utility.yul\":6016:6036   */\n      calldataload\n        /* \"#utility.yul\":6007:6036   */\n      swap1\n      pop\n        /* \"#utility.yul\":6045:6092   */\n      tag_467\n        /* \"#utility.yul\":6086:6091   */\n      dup2\n        /* \"#utility.yul\":6045:6092   */\n      tag_367\n      jump\t// in\n    tag_467:\n        /* \"#utility.yul\":5931:6098   */\n      swap3\n      swap2\n      pop\n      pop\n      jump\t// out\n        /* \"#utility.yul\":6104:6751   */\n    tag_52:\n        /* \"#utility.yul\":6195:6201   */\n      0x00\n        /* \"#utility.yul\":6203:6209   */\n      dup1\n        /* \"#utility.yul\":6211:6217   */\n      0x00\n        /* \"#utility.yul\":6260:6262   */\n      0x60\n        /* \"#utility.yul\":6248:6257   */\n      dup5\n        /* \"#utility.yul\":6239:6246   */\n      dup7\n        /* \"#utility.yul\":6235:6258   */\n      sub\n        /* \"#utility.yul\":6231:6263   */\n      slt\n        /* \"#utility.yul\":6228:6347   */\n      iszero\n      tag_469\n      jumpi\n        /* \"#utility.yul\":6266:6345   */\n      tag_470\n      tag_347\n      jump\t// in\n    tag_470:\n        /* \"#utility.yul\":6228:6347   */\n    tag_469:\n        /* \"#utility.yul\":6386:6387   */\n      0x00\n        /* \"#utility.yul\":6411:6464   */\n      tag_471\n        /* \"#utility.yul\":6456:6463   */\n      dup7\n        /* \"#utility.yul\":6447:6453   */\n      dup3\n        /* \"#utility.yul\":6436:6445   */\n      dup8\n        /* \"#utility.yul\":6432:6454   */\n      add\n        /* \"#utility.yul\":6411:6464   */\n      tag_355\n      jump\t// in\n    tag_471:\n        /* \"#utility.yul\":6401:6464   */\n      swap4\n      pop\n        /* \"#utility.yul\":6357:6474   */\n      pop\n        /* \"#utility.yul\":6513:6515   */\n      0x20\n        /* \"#utility.yul\":6539:6606   */\n      tag_472\n        /* \"#utility.yul\":6598:6605   */\n      dup7\n        /* \"#utility.yul\":6589:6595   */\n      dup3\n        /* \"#utility.yul\":6578:6587   */\n      dup8\n        /* \"#utility.yul\":6574:6596   */\n      add\n        /* \"#utility.yul\":6539:6606   */\n      tag_368\n      jump\t// in\n    tag_472:\n        /* \"#utility.yul\":6529:6606   */\n      swap3\n      pop\n        /* \"#utility.yul\":6484:6616   */\n      pop\n        /* \"#utility.yul\":6655:6657   */\n      0x40\n        /* \"#utility.yul\":6681:6734   */\n      tag_473\n        /* \"#utility.yul\":6726:6733   */\n      dup7\n        /* \"#utility.yul\":6717:6723   */\n      dup3\n        /* \"#utility.yul\":6706:6715   */\n      dup8\n        /* \"#utility.yul\":6702:6724   */\n      add\n        /* \"#utility.yul\":6681:6734   */\n      tag_355\n      jump\t// in\n    tag_473:\n        /* \"#utility.yul\":6671:6734   */\n      swap2\n      pop\n        /* \"#utility.yul\":6626:6744   */\n      pop\n        /* \"#utility.yul\":6104:6751   */\n      swap3\n      pop\n      swap3\n      pop\n      swap3\n      jump\t// out\n        /* \"#utility.yul\":6757:7117   */\n    tag_55:\n        /* \"#utility.yul\":6892:6896   */\n      0x00\n        /* \"#utility.yul\":6930:6932   */\n      0x40\n        /* \"#utility.yul\":6919:6928   */\n      dup3\n        /* \"#utility.yul\":6915:6933   */\n      add\n        /* \"#utility.yul\":6907:6933   */\n      swap1\n      pop\n        /* \"#utility.yul\":6943:7014   */\n      tag_475\n        /* \"#utility.yul\":7011:7012   */\n      0x00\n        /* \"#utility.yul\":7000:7009   */\n      dup4\n        /* \"#utility.yul\":6996:7013   */\n      add\n        /* \"#utility.yul\":6987:6993   */\n      dup6\n        /* \"#utility.yul\":6943:7014   */\n      tag_363\n      jump\t// in\n    tag_475:\n        /* \"#utility.yul\":7024:7110   */\n      tag_476\n        /* \"#utility.yul\":7106:7108   */\n      0x20\n        /* \"#utility.yul\":7095:7104   */\n      dup4\n        /* \"#utility.yul\":7091:7109   */\n      add\n        /* \"#utility.yul\":7082:7088   */\n      dup5\n        /* \"#utility.yul\":7024:7110   */\n      tag_362\n      jump\t// in\n    tag_476:\n        /* \"#utility.yul\":6757:7117   */\n      swap4\n      swap3\n      pop\n      pop\n      pop\n      jump\t// out\n        /* \"#utility.yul\":7123:7452   */\n    tag_64:\n        /* \"#utility.yul\":7182:7188   */\n      0x00\n        /* \"#utility.yul\":7231:7233   */\n      0x20\n        /* \"#utility.yul\":7219:7228   */\n      dup3\n        /* \"#utility.yul\":7210:7217   */\n      dup5\n        /* \"#utility.yul\":7206:7229   */\n      sub\n        /* \"#utility.yul\":7202:7234   */\n      slt\n        /* \"#utility.yul\":7199:7318   */\n      iszero\n      tag_478\n      jumpi\n        /* \"#utility.yul\":7237:7316   */\n      tag_479\n      tag_347\n      jump\t// in\n    tag_479:\n        /* \"#utility.yul\":7199:7318   */\n    tag_478:\n        /* \"#utility.yul\":7357:7358   */\n      0x00\n        /* \"#utility.yul\":7382:7435   */\n      tag_480\n        /* \"#utility.yul\":7427:7434   */\n      dup5\n        /* \"#utility.yul\":7418:7424   */\n      dup3\n        /* \"#utility.yul\":7407:7416   */\n      dup6\n        /* \"#utility.yul\":7403:7425   */\n      add\n        /* \"#utility.yul\":7382:7435   */\n      tag_352\n      jump\t// in\n    tag_480:\n        /* \"#utility.yul\":7372:7435   */\n      swap2\n      pop\n        /* \"#utility.yul\":7328:7445   */\n      pop\n        /* \"#utility.yul\":7123:7452   */\n      swap3\n      swap2\n      pop\n      pop\n      jump\t// out\n        /* \"#utility.yul\":7458:7787   */\n    tag_72:\n        /* \"#utility.yul\":7517:7523   */\n      0x00\n        /* \"#utility.yul\":7566:7568   */\n      0x20\n        /* \"#utility.yul\":7554:7563   */\n      dup3\n        /* \"#utility.yul\":7545:7552   */\n      dup5\n        /* \"#utility.yul\":7541:7564   */\n      sub\n        /* \"#utility.yul\":7537:7569   */\n      slt\n        /* \"#utility.yul\":7534:7653   */\n      iszero\n      tag_482\n      jumpi\n        /* \"#utility.yul\":7572:7651   */\n      tag_483\n      tag_347\n      jump\t// in\n    tag_483:\n        /* \"#utility.yul\":7534:7653   */\n    tag_482:\n        /* \"#utility.yul\":7692:7693   */\n      0x00\n        /* \"#utility.yul\":7717:7770   */\n      tag_484\n        /* \"#utility.yul\":7762:7769   */\n      dup5\n        /* \"#utility.yul\":7753:7759   */\n      dup3\n        /* \"#utility.yul\":7742:7751   */\n      dup6\n        /* \"#utility.yul\":7738:7760   */\n      add\n        /* \"#utility.yul\":7717:7770   */\n      tag_355\n      jump\t// in\n    tag_484:\n        /* \"#utility.yul\":7707:7770   */\n      swap2\n      pop\n        /* \"#utility.yul\":7663:7780   */\n      pop\n        /* \"#utility.yul\":7458:7787   */\n      swap3\n      swap2\n      pop\n      pop\n      jump\t// out\n        /* \"#utility.yul\":7793:8125   */\n    tag_75:\n        /* \"#utility.yul\":7914:7918   */\n      0x00\n        /* \"#utility.yul\":7952:7954   */\n      0x40\n        /* \"#utility.yul\":7941:7950   */\n      dup3\n        /* \"#utility.yul\":7937:7955   */\n      add\n        /* \"#utility.yul\":7929:7955   */\n      swap1\n      pop\n        /* \"#utility.yul\":7965:8036   */\n      tag_486\n        /* \"#utility.yul\":8033:8034   */\n      0x00\n        /* \"#utility.yul\":8022:8031   */\n      dup4\n        /* \"#utility.yul\":8018:8035   */\n      add\n        /* \"#utility.yul\":8009:8015   */\n      dup6\n        /* \"#utility.yul\":7965:8036   */\n      tag_363\n      jump\t// in\n    tag_486:\n        /* \"#utility.yul\":8046:8118   */\n      tag_487\n        /* \"#utility.yul\":8114:8116   */\n      0x20\n        /* \"#utility.yul\":8103:8112   */\n      dup4\n        /* \"#utility.yul\":8099:8117   */\n      add\n        /* \"#utility.yul\":8090:8096   */\n      dup5\n        /* \"#utility.yul\":8046:8118   */\n      tag_363\n      jump\t// in\n    tag_487:\n        /* \"#utility.yul\":7793:8125   */\n      swap4\n      swap3\n      pop\n      pop\n      pop\n      jump\t// out\n        /* \"#utility.yul\":8131:8605   */\n    tag_78:\n        /* \"#utility.yul\":8199:8205   */\n      0x00\n        /* \"#utility.yul\":8207:8213   */\n      dup1\n        /* \"#utility.yul\":8256:8258   */\n      0x40\n        /* \"#utility.yul\":8244:8253   */\n      dup4\n        /* \"#utility.yul\":8235:8242   */\n      dup6\n        /* \"#utility.yul\":8231:8254   */\n      sub\n        /* \"#utility.yul\":8227:8259   */\n      slt\n        /* \"#utility.yul\":8224:8343   */\n      iszero\n      tag_489\n      jumpi\n        /* \"#utility.yul\":8262:8341   */\n      tag_490\n      tag_347\n      jump\t// in\n    tag_490:\n        /* \"#utility.yul\":8224:8343   */\n    tag_489:\n        /* \"#utility.yul\":8382:8383   */\n      0x00\n        /* \"#utility.yul\":8407:8460   */\n      tag_491\n        /* \"#utility.yul\":8452:8459   */\n      dup6\n        /* \"#utility.yul\":8443:8449   */\n      dup3\n        /* \"#utility.yul\":8432:8441   */\n      dup7\n        /* \"#utility.yul\":8428:8450   */\n      add\n        /* \"#utility.yul\":8407:8460   */\n      tag_355\n      jump\t// in\n    tag_491:\n        /* \"#utility.yul\":8397:8460   */\n      swap3\n      pop\n        /* \"#utility.yul\":8353:8470   */\n      pop\n        /* \"#utility.yul\":8509:8511   */\n      0x20\n        /* \"#utility.yul\":8535:8588   */\n      tag_492\n        /* \"#utility.yul\":8580:8587   */\n      dup6\n        /* \"#utility.yul\":8571:8577   */\n      dup3\n        /* \"#utility.yul\":8560:8569   */\n      dup7\n        /* \"#utility.yul\":8556:8578   */\n      add\n        /* \"#utility.yul\":8535:8588   */\n      tag_355\n      jump\t// in\n    tag_492:\n        /* \"#utility.yul\":8525:8588   */\n      swap2\n      pop\n        /* \"#utility.yul\":8480:8598   */\n      pop\n        /* \"#utility.yul\":8131:8605   */\n      swap3\n      pop\n      swap3\n      swap1\n      pop\n      jump\t// out\n        /* \"#utility.yul\":8611:9230   */\n    tag_83:\n        /* \"#utility.yul\":8688:8694   */\n      0x00\n        /* \"#utility.yul\":8696:8702   */\n      dup1\n        /* \"#utility.yul\":8704:8710   */\n      0x00\n        /* \"#utility.yul\":8753:8755   */\n      0x60\n        /* \"#utility.yul\":8741:8750   */\n      dup5\n        /* \"#utility.yul\":8732:8739   */\n      dup7\n        /* \"#utility.yul\":8728:8751   */\n      sub\n        /* \"#utility.yul\":8724:8756   */\n      slt\n        /* \"#utility.yul\":8721:8840   */\n      iszero\n      tag_494\n      jumpi\n        /* \"#utility.yul\":8759:8838   */\n      tag_495\n      tag_347\n      jump\t// in\n    tag_495:\n        /* \"#utility.yul\":8721:8840   */\n    tag_494:\n        /* \"#utility.yul\":8879:8880   */\n      0x00\n        /* \"#utility.yul\":8904:8957   */\n      tag_496\n        /* \"#utility.yul\":8949:8956   */\n      dup7\n        /* \"#utility.yul\":8940:8946   */\n      dup3\n        /* \"#utility.yul\":8929:8938   */\n      dup8\n        /* \"#utility.yul\":8925:8947   */\n      add\n        /* \"#utility.yul\":8904:8957   */\n      tag_355\n      jump\t// in\n    tag_496:\n        /* \"#utility.yul\":8894:8957   */\n      swap4\n      pop\n        /* \"#utility.yul\":8850:8967   */\n      pop\n        /* \"#utility.yul\":9006:9008   */\n      0x20\n        /* \"#utility.yul\":9032:9085   */\n      tag_497\n        /* \"#utility.yul\":9077:9084   */\n      dup7\n        /* \"#utility.yul\":9068:9074   */\n      dup3\n        /* \"#utility.yul\":9057:9066   */\n      dup8\n        /* \"#utility.yul\":9053:9075   */\n      add\n        /* \"#utility.yul\":9032:9085   */\n      tag_355\n      jump\t// in\n    tag_497:\n        /* \"#utility.yul\":9022:9085   */\n      swap3\n      pop\n        /* \"#utility.yul\":8977:9095   */\n      pop\n        /* \"#utility.yul\":9134:9136   */\n      0x40\n        /* \"#utility.yul\":9160:9213   */\n      tag_498\n        /* \"#utility.yul\":9205:9212   */\n      dup7\n        /* \"#utility.yul\":9196:9202   */\n      dup3\n        /* \"#utility.yul\":9185:9194   */\n      dup8\n        /* \"#utility.yul\":9181:9203   */\n      add\n        /* \"#utility.yul\":9160:9213   */\n      tag_355\n      jump\t// in\n    tag_498:\n        /* \"#utility.yul\":9150:9213   */\n      swap2\n      pop\n        /* \"#utility.yul\":9105:9223   */\n      pop\n        /* \"#utility.yul\":8611:9230   */\n      swap3\n      pop\n      swap3\n      pop\n      swap3\n      jump\t// out\n        /* \"#utility.yul\":9236:9710   */\n    tag_95:\n        /* \"#utility.yul\":9304:9310   */\n      0x00\n        /* \"#utility.yul\":9312:9318   */\n      dup1\n        /* \"#utility.yul\":9361:9363   */\n      0x40\n        /* \"#utility.yul\":9349:9358   */\n      dup4\n        /* \"#utility.yul\":9340:9347   */\n      dup6\n        /* \"#utility.yul\":9336:9359   */\n      sub\n        /* \"#utility.yul\":9332:9364   */\n      slt\n        /* \"#utility.yul\":9329:9448   */\n      iszero\n      tag_500\n      jumpi\n        /* \"#utility.yul\":9367:9446   */\n      tag_501\n      tag_347\n      jump\t// in\n    tag_501:\n        /* \"#utility.yul\":9329:9448   */\n    tag_500:\n        /* \"#utility.yul\":9487:9488   */\n      0x00\n        /* \"#utility.yul\":9512:9565   */\n      tag_502\n        /* \"#utility.yul\":9557:9564   */\n      dup6\n        /* \"#utility.yul\":9548:9554   */\n      dup3\n        /* \"#utility.yul\":9537:9546   */\n      dup7\n        /* \"#utility.yul\":9533:9555   */\n      add\n        /* \"#utility.yul\":9512:9565   */\n      tag_352\n      jump\t// in\n    tag_502:\n        /* \"#utility.yul\":9502:9565   */\n      swap3\n      pop\n        /* \"#utility.yul\":9458:9575   */\n      pop\n        /* \"#utility.yul\":9614:9616   */\n      0x20\n        /* \"#utility.yul\":9640:9693   */\n      tag_503\n        /* \"#utility.yul\":9685:9692   */\n      dup6\n        /* \"#utility.yul\":9676:9682   */\n      dup3\n        /* \"#utility.yul\":9665:9674   */\n      dup7\n        /* \"#utility.yul\":9661:9683   */\n      add\n        /* \"#utility.yul\":9640:9693   */\n      tag_352\n      jump\t// in\n    tag_503:\n        /* \"#utility.yul\":9630:9693   */\n      swap2\n      pop\n        /* \"#utility.yul\":9585:9703   */\n      pop\n        /* \"#utility.yul\":9236:9710   */\n      swap3\n      pop\n      swap3\n      swap1\n      pop\n      jump\t// out\n        /* \"#utility.yul\":9716:9896   */\n    tag_369:\n        /* \"#utility.yul\":9764:9841   */\n      0x4e487b7100000000000000000000000000000000000000000000000000000000\n        /* \"#utility.yul\":9761:9762   */\n      0x00\n        /* \"#utility.yul\":9754:9842   */\n      mstore\n        /* \"#utility.yul\":9861:9865   */\n      0x22\n        /* \"#utility.yul\":9858:9859   */\n      0x04\n        /* \"#utility.yul\":9851:9866   */\n      mstore\n        /* \"#utility.yul\":9885:9889   */\n      0x24\n        /* \"#utility.yul\":9882:9883   */\n      0x00\n        /* \"#utility.yul\":9875:9890   */\n      revert\n        /* \"#utility.yul\":9902:10222   */\n    tag_100:\n        /* \"#utility.yul\":9946:9952   */\n      0x00\n        /* \"#utility.yul\":9983:9984   */\n      0x02\n        /* \"#utility.yul\":9977:9981   */\n      dup3\n        /* \"#utility.yul\":9973:9985   */\n      div\n        /* \"#utility.yul\":9963:9985   */\n      swap1\n      pop\n        /* \"#utility.yul\":10030:10031   */\n      0x01\n        /* \"#utility.yul\":10024:10028   */\n      dup3\n        /* \"#utility.yul\":10020:10032   */\n      and\n        /* \"#utility.yul\":10051:10069   */\n      dup1\n        /* \"#utility.yul\":10041:10122   */\n      tag_506\n      jumpi\n        /* \"#utility.yul\":10107:10111   */\n      0x7f\n        /* \"#utility.yul\":10099:10105   */\n      dup3\n        /* \"#utility.yul\":10095:10112   */\n      and\n        /* \"#utility.yul\":10085:10112   */\n      swap2\n      pop\n        /* \"#utility.yul\":10041:10122   */\n    tag_506:\n        /* \"#utility.yul\":10169:10171   */\n      0x20\n        /* \"#utility.yul\":10161:10167   */\n      dup3\n        /* \"#utility.yul\":10158:10172   */\n      lt\n        /* \"#utility.yul\":10138:10156   */\n      dup2\n        /* \"#utility.yul\":10135:10173   */\n      sub\n        /* \"#utility.yul\":10132:10216   */\n      tag_507\n      jumpi\n        /* \"#utility.yul\":10188:10206   */\n      tag_508\n      tag_369\n      jump\t// in\n    tag_508:\n        /* \"#utility.yul\":10132:10216   */\n    tag_507:\n        /* \"#utility.yul\":9953:10222   */\n      pop\n        /* \"#utility.yul\":9902:10222   */\n      swap2\n      swap1\n      pop\n      jump\t// out\n        /* \"#utility.yul\":10228:10406   */\n    tag_370:\n        /* \"#utility.yul\":10368:10398   */\n      0x737761703a20616d6f756e74496e206d75737420706f73697469766500000000\n        /* \"#utility.yul\":10364:10365   */\n      0x00\n        /* \"#utility.yul\":10356:10362   */\n      dup3\n        /* \"#utility.yul\":10352:10366   */\n      add\n        /* \"#utility.yul\":10345:10399   */\n      mstore\n        /* \"#utility.yul\":10228:10406   */\n      pop\n      jump\t// out\n        /* \"#utility.yul\":10412:10778   */\n    tag_371:\n        /* \"#utility.yul\":10554:10557   */\n      0x00\n        /* \"#utility.yul\":10575:10642   */\n      tag_511\n        /* \"#utility.yul\":10639:10641   */\n      0x1c\n        /* \"#utility.yul\":10634:10637   */\n      dup4\n        /* \"#utility.yul\":10575:10642   */\n      tag_342\n      jump\t// in\n    tag_511:\n        /* \"#utility.yul\":10568:10642   */\n      swap2\n      pop\n        /* \"#utility.yul\":10651:10744   */\n      tag_512\n        /* \"#utility.yul\":10740:10743   */\n      dup3\n        /* \"#utility.yul\":10651:10744   */\n      tag_370\n      jump\t// in\n    tag_512:\n        /* \"#utility.yul\":10769:10771   */\n      0x20\n        /* \"#utility.yul\":10764:10767   */\n      dup3\n        /* \"#utility.yul\":10760:10772   */\n      add\n        /* \"#utility.yul\":10753:10772   */\n      swap1\n      pop\n        /* \"#utility.yul\":10412:10778   */\n      swap2\n      swap1\n      pop\n      jump\t// out\n        /* \"#utility.yul\":10784:11203   */\n    tag_121:\n        /* \"#utility.yul\":10950:10954   */\n      0x00\n        /* \"#utility.yul\":10988:10990   */\n      0x20\n        /* \"#utility.yul\":10977:10986   */\n      dup3\n        /* \"#utility.yul\":10973:10991   */\n      add\n        /* \"#utility.yul\":10965:10991   */\n      swap1\n      pop\n        /* \"#utility.yul\":11037:11046   */\n      dup2\n        /* \"#utility.yul\":11031:11035   */\n      dup2\n        /* \"#utility.yul\":11027:11047   */\n      sub\n        /* \"#utility.yul\":11023:11024   */\n      0x00\n        /* \"#utility.yul\":11012:11021   */\n      dup4\n        /* \"#utility.yul\":11008:11025   */\n      add\n        /* \"#utility.yul\":11001:11048   */\n      mstore\n        /* \"#utility.yul\":11065:11196   */\n      tag_514\n        /* \"#utility.yul\":11191:11195   */\n      dup2\n        /* \"#utility.yul\":11065:11196   */\n      tag_371\n      jump\t// in\n    tag_514:\n        /* \"#utility.yul\":11057:11196   */\n      swap1\n      pop\n        /* \"#utility.yul\":10784:11203   */\n      swap2\n      swap1\n      pop\n      jump\t// out\n        /* \"#utility.yul\":11209:11386   */\n    tag_372:\n        /* \"#utility.yul\":11349:11378   */\n      0x737761703a20746f6b656e496e206e6f7420737570706f727465640000000000\n        /* \"#utility.yul\":11345:11346   */\n      0x00\n        /* \"#utility.yul\":11337:11343   */\n      dup3\n        /* \"#utility.yul\":11333:11347   */\n      add\n        /* \"#utility.yul\":11326:11379   */\n      mstore\n        /* \"#utility.yul\":11209:11386   */\n      pop\n      jump\t// out\n        /* \"#utility.yul\":11392:11758   */\n    tag_373:\n        /* \"#utility.yul\":11534:11537   */\n      0x00\n        /* \"#utility.yul\":11555:11622   */\n      tag_517\n        /* \"#utility.yul\":11619:11621   */\n      0x1b\n        /* \"#utility.yul\":11614:11617   */\n      dup4\n        /* \"#utility.yul\":11555:11622   */\n      tag_342\n      jump\t// in\n    tag_517:\n        /* \"#utility.yul\":11548:11622   */\n      swap2\n      pop\n        /* \"#utility.yul\":11631:11724   */\n      tag_518\n        /* \"#utility.yul\":11720:11723   */\n      dup3\n        /* \"#utility.yul\":11631:11724   */\n      tag_372\n      jump\t// in\n    tag_518:\n        /* \"#utility.yul\":11749:11751   */\n      0x20\n        /* \"#utility.yul\":11744:11747   */\n      dup3\n        /* \"#utility.yul\":11740:11752   */\n      add\n        /* \"#utility.yul\":11733:11752   */\n      swap1\n      pop\n        /* \"#utility.yul\":11392:11758   */\n      swap2\n      swap1\n      pop\n      jump\t// out\n        /* \"#utility.yul\":11764:12183   */\n    tag_125:\n        /* \"#utility.yul\":11930:11934   */\n      0x00\n        /* \"#utility.yul\":11968:11970   */\n      0x20\n        /* \"#utility.yul\":11957:11966   */\n      dup3\n        /* \"#utility.yul\":11953:11971   */\n      add\n        /* \"#utility.yul\":11945:11971   */\n      swap1\n      pop\n        /* \"#utility.yul\":12017:12026   */\n      dup2\n        /* \"#utility.yul\":12011:12015   */\n      dup2\n        /* \"#utility.yul\":12007:12027   */\n      sub\n        /* \"#utility.yul\":12003:12004   */\n      0x00\n        /* \"#utility.yul\":11992:12001   */\n      dup4\n        /* \"#utility.yul\":11988:12005   */\n      add\n        /* \"#utility.yul\":11981:12028   */\n      mstore\n        /* \"#utility.yul\":12045:12176   */\n      tag_520\n        /* \"#utility.yul\":12171:12175   */\n      dup2\n        /* \"#utility.yul\":12045:12176   */\n      tag_373\n      jump\t// in\n    tag_520:\n        /* \"#utility.yul\":12037:12176   */\n      swap1\n      pop\n        /* \"#utility.yul\":11764:12183   */\n      swap2\n      swap1\n      pop\n      jump\t// out\n        /* \"#utility.yul\":12189:12307   */\n    tag_374:\n        /* \"#utility.yul\":12276:12300   */\n      tag_522\n        /* \"#utility.yul\":12294:12299   */\n      dup2\n        /* \"#utility.yul\":12276:12300   */\n      tag_350\n      jump\t// in\n    tag_522:\n        /* \"#utility.yul\":12271:12274   */\n      dup3\n        /* \"#utility.yul\":12264:12301   */\n      mstore\n        /* \"#utility.yul\":12189:12307   */\n      pop\n      pop\n      jump\t// out\n        /* \"#utility.yul\":12313:12535   */\n    tag_127:\n        /* \"#utility.yul\":12406:12410   */\n      0x00\n        /* \"#utility.yul\":12444:12446   */\n      0x20\n        /* \"#utility.yul\":12433:12442   */\n      dup3\n        /* \"#utility.yul\":12429:12447   */\n      add\n        /* \"#utility.yul\":12421:12447   */\n      swap1\n      pop\n        /* \"#utility.yul\":12457:12528   */\n      tag_524\n        /* \"#utility.yul\":12525:12526   */\n      0x00\n        /* \"#utility.yul\":12514:12523   */\n      dup4\n        /* \"#utility.yul\":12510:12527   */\n      add\n        /* \"#utility.yul\":12501:12507   */\n      dup5\n        /* \"#utility.yul\":12457:12528   */\n      tag_374\n      jump\t// in\n    tag_524:\n        /* \"#utility.yul\":12313:12535   */\n      swap3\n      swap2\n      pop\n      pop\n      jump\t// out\n        /* \"#utility.yul\":12541:12684   */\n    tag_375:\n        /* \"#utility.yul\":12598:12603   */\n      0x00\n        /* \"#utility.yul\":12629:12635   */\n      dup2\n        /* \"#utility.yul\":12623:12636   */\n      mload\n        /* \"#utility.yul\":12614:12636   */\n      swap1\n      pop\n        /* \"#utility.yul\":12645:12678   */\n      tag_526\n        /* \"#utility.yul\":12672:12677   */\n      dup2\n        /* \"#utility.yul\":12645:12678   */\n      tag_354\n      jump\t// in\n    tag_526:\n        /* \"#utility.yul\":12541:12684   */\n      swap3\n      swap2\n      pop\n      pop\n      jump\t// out\n        /* \"#utility.yul\":12690:13041   */\n    tag_131:\n        /* \"#utility.yul\":12760:12766   */\n      0x00\n        /* \"#utility.yul\":12809:12811   */\n      0x20\n        /* \"#utility.yul\":12797:12806   */\n      dup3\n        /* \"#utility.yul\":12788:12795   */\n      dup5\n        /* \"#utility.yul\":12784:12807   */\n      sub\n        /* \"#utility.yul\":12780:12812   */\n      slt\n        /* \"#utility.yul\":12777:12896   */\n      iszero\n      tag_528\n      jumpi\n        /* \"#utility.yul\":12815:12894   */\n      tag_529\n      tag_347\n      jump\t// in\n    tag_529:\n        /* \"#utility.yul\":12777:12896   */\n    tag_528:\n        /* \"#utility.yul\":12935:12936   */\n      0x00\n        /* \"#utility.yul\":12960:13024   */\n      tag_530\n        /* \"#utility.yul\":13016:13023   */\n      dup5\n        /* \"#utility.yul\":13007:13013   */\n      dup3\n        /* \"#utility.yul\":12996:13005   */\n      dup6\n        /* \"#utility.yul\":12992:13014   */\n      add\n        /* \"#utility.yul\":12960:13024   */\n      tag_375\n      jump\t// in\n    tag_530:\n        /* \"#utility.yul\":12950:13024   */\n      swap2\n      pop\n        /* \"#utility.yul\":12906:13034   */\n      pop\n        /* \"#utility.yul\":12690:13041   */\n      swap3\n      swap2\n      pop\n      pop\n      jump\t// out\n        /* \"#utility.yul\":13047:13227   */\n    tag_376:\n        /* \"#utility.yul\":13095:13172   */\n      0x4e487b7100000000000000000000000000000000000000000000000000000000\n        /* \"#utility.yul\":13092:13093   */\n      0x00\n        /* \"#utility.yul\":13085:13173   */\n      mstore\n        /* \"#utility.yul\":13192:13196   */\n      0x11\n        /* \"#utility.yul\":13189:13190   */\n      0x04\n        /* \"#utility.yul\":13182:13197   */\n      mstore\n        /* \"#utility.yul\":13216:13220   */\n      0x24\n        /* \"#utility.yul\":13213:13214   */\n      0x00\n        /* \"#utility.yul\":13206:13221   */\n      revert\n        /* \"#utility.yul\":13233:13424   */\n    tag_144:\n        /* \"#utility.yul\":13273:13276   */\n      0x00\n        /* \"#utility.yul\":13292:13312   */\n      tag_533\n        /* \"#utility.yul\":13310:13311   */\n      dup3\n        /* \"#utility.yul\":13292:13312   */\n      tag_353\n      jump\t// in\n    tag_533:\n        /* \"#utility.yul\":13287:13312   */\n      swap2\n      pop\n        /* \"#utility.yul\":13326:13346   */\n      tag_534\n        /* \"#utility.yul\":13344:13345   */\n      dup4\n        /* \"#utility.yul\":13326:13346   */\n      tag_353\n      jump\t// in\n    tag_534:\n        /* \"#utility.yul\":13321:13346   */\n      swap3\n      pop\n        /* \"#utility.yul\":13369:13370   */\n      dup3\n        /* \"#utility.yul\":13366:13367   */\n      dup3\n        /* \"#utility.yul\":13362:13371   */\n      add\n        /* \"#utility.yul\":13355:13371   */\n      swap1\n      pop\n        /* \"#utility.yul\":13390:13393   */\n      dup1\n        /* \"#utility.yul\":13387:13388   */\n      dup3\n        /* \"#utility.yul\":13384:13394   */\n      gt\n        /* \"#utility.yul\":13381:13417   */\n      iszero\n      tag_535\n      jumpi\n        /* \"#utility.yul\":13397:13415   */\n      tag_536\n      tag_376\n      jump\t// in\n    tag_536:\n        /* \"#utility.yul\":13381:13417   */\n    tag_535:\n        /* \"#utility.yul\":13233:13424   */\n      swap3\n      swap2\n      pop\n      pop\n      jump\t// out\n        /* \"#utility.yul\":13430:13624   */\n    tag_150:\n        /* \"#utility.yul\":13470:13474   */\n      0x00\n        /* \"#utility.yul\":13490:13510   */\n      tag_538\n        /* \"#utility.yul\":13508:13509   */\n      dup3\n        /* \"#utility.yul\":13490:13510   */\n      tag_353\n      jump\t// in\n    tag_538:\n        /* \"#utility.yul\":13485:13510   */\n      swap2\n      pop\n        /* \"#utility.yul\":13524:13544   */\n      tag_539\n        /* \"#utility.yul\":13542:13543   */\n      dup4\n        /* \"#utility.yul\":13524:13544   */\n      tag_353\n      jump\t// in\n    tag_539:\n        /* \"#utility.yul\":13519:13544   */\n      swap3\n      pop\n        /* \"#utility.yul\":13568:13569   */\n      dup3\n        /* \"#utility.yul\":13565:13566   */\n      dup3\n        /* \"#utility.yul\":13561:13570   */\n      sub\n        /* \"#utility.yul\":13553:13570   */\n      swap1\n      pop\n        /* \"#utility.yul\":13592:13593   */\n      dup2\n        /* \"#utility.yul\":13586:13590   */\n      dup2\n        /* \"#utility.yul\":13583:13594   */\n      gt\n        /* \"#utility.yul\":13580:13617   */\n      iszero\n      tag_540\n      jumpi\n        /* \"#utility.yul\":13597:13615   */\n      tag_541\n      tag_376\n      jump\t// in\n    tag_541:\n        /* \"#utility.yul\":13580:13617   */\n    tag_540:\n        /* \"#utility.yul\":13430:13624   */\n      swap3\n      swap2\n      pop\n      pop\n      jump\t// out\n        /* \"#utility.yul\":13630:14072   */\n    tag_152:\n        /* \"#utility.yul\":13779:13783   */\n      0x00\n        /* \"#utility.yul\":13817:13819   */\n      0x60\n        /* \"#utility.yul\":13806:13815   */\n      dup3\n        /* \"#utility.yul\":13802:13820   */\n      add\n        /* \"#utility.yul\":13794:13820   */\n      swap1\n      pop\n        /* \"#utility.yul\":13830:13901   */\n      tag_543\n        /* \"#utility.yul\":13898:13899   */\n      0x00\n        /* \"#utility.yul\":13887:13896   */\n      dup4\n        /* \"#utility.yul\":13883:13900   */\n      add\n        /* \"#utility.yul\":13874:13880   */\n      dup7\n        /* \"#utility.yul\":13830:13901   */\n      tag_374\n      jump\t// in\n    tag_543:\n        /* \"#utility.yul\":13911:13983   */\n      tag_544\n        /* \"#utility.yul\":13979:13981   */\n      0x20\n        /* \"#utility.yul\":13968:13977   */\n      dup4\n        /* \"#utility.yul\":13964:13982   */\n      add\n        /* \"#utility.yul\":13955:13961   */\n      dup6\n        /* \"#utility.yul\":13911:13983   */\n      tag_374\n      jump\t// in\n    tag_544:\n        /* \"#utility.yul\":13993:14065   */\n      tag_545\n        /* \"#utility.yul\":14061:14063   */\n      0x40\n        /* \"#utility.yul\":14050:14059   */\n      dup4\n        /* \"#utility.yul\":14046:14064   */\n      add\n        /* \"#utility.yul\":14037:14043   */\n      dup5\n        /* \"#utility.yul\":13993:14065   */\n      tag_363\n      jump\t// in\n    tag_545:\n        /* \"#utility.yul\":13630:14072   */\n      swap5\n      swap4\n      pop\n      pop\n      pop\n      pop\n      jump\t// out\n        /* \"#utility.yul\":14078:14194   */\n    tag_377:\n        /* \"#utility.yul\":14148:14169   */\n      tag_547\n        /* \"#utility.yul\":14163:14168   */\n      dup2\n        /* \"#utility.yul\":14148:14169   */\n      tag_356\n      jump\t// in\n    tag_547:\n        /* \"#utility.yul\":14141:14146   */\n      dup2\n        /* \"#utility.yul\":14138:14170   */\n      eq\n        /* \"#utility.yul\":14128:14188   */\n      tag_548\n      jumpi\n        /* \"#utility.yul\":14184:14185   */\n      0x00\n        /* \"#utility.yul\":14181:14182   */\n      dup1\n        /* \"#utility.yul\":14174:14186   */\n      revert\n        /* \"#utility.yul\":14128:14188   */\n    tag_548:\n        /* \"#utility.yul\":14078:14194   */\n      pop\n      jump\t// out\n        /* \"#utility.yul\":14200:14337   */\n    tag_378:\n        /* \"#utility.yul\":14254:14259   */\n      0x00\n        /* \"#utility.yul\":14285:14291   */\n      dup2\n        /* \"#utility.yul\":14279:14292   */\n      mload\n        /* \"#utility.yul\":14270:14292   */\n      swap1\n      pop\n        /* \"#utility.yul\":14301:14331   */\n      tag_550\n        /* \"#utility.yul\":14325:14330   */\n      dup2\n        /* \"#utility.yul\":14301:14331   */\n      tag_377\n      jump\t// in\n    tag_550:\n        /* \"#utility.yul\":14200:14337   */\n      swap3\n      swap2\n      pop\n      pop\n      jump\t// out\n        /* \"#utility.yul\":14343:14688   */\n    tag_156:\n        /* \"#utility.yul\":14410:14416   */\n      0x00\n        /* \"#utility.yul\":14459:14461   */\n      0x20\n        /* \"#utility.yul\":14447:14456   */\n      dup3\n        /* \"#utility.yul\":14438:14445   */\n      dup5\n        /* \"#utility.yul\":14434:14457   */\n      sub\n        /* \"#utility.yul\":14430:14462   */\n      slt\n        /* \"#utility.yul\":14427:14546   */\n      iszero\n      tag_552\n      jumpi\n        /* \"#utility.yul\":14465:14544   */\n      tag_553\n      tag_347\n      jump\t// in\n    tag_553:\n        /* \"#utility.yul\":14427:14546   */\n    tag_552:\n        /* \"#utility.yul\":14585:14586   */\n      0x00\n        /* \"#utility.yul\":14610:14671   */\n      tag_554\n        /* \"#utility.yul\":14663:14670   */\n      dup5\n        /* \"#utility.yul\":14654:14660   */\n      dup3\n        /* \"#utility.yul\":14643:14652   */\n      dup6\n        /* \"#utility.yul\":14639:14661   */\n      add\n        /* \"#utility.yul\":14610:14671   */\n      tag_378\n      jump\t// in\n    tag_554:\n        /* \"#utility.yul\":14600:14671   */\n      swap2\n      pop\n        /* \"#utility.yul\":14556:14681   */\n      pop\n        /* \"#utility.yul\":14343:14688   */\n      swap3\n      swap2\n      pop\n      pop\n      jump\t// out\n        /* \"#utility.yul\":14694:15026   */\n    tag_158:\n        /* \"#utility.yul\":14815:14819   */\n      0x00\n        /* \"#utility.yul\":14853:14855   */\n      0x40\n        /* \"#utility.yul\":14842:14851   */\n      dup3\n        /* \"#utility.yul\":14838:14856   */\n      add\n        /* \"#utility.yul\":14830:14856   */\n      swap1\n      pop\n        /* \"#utility.yul\":14866:14937   */\n      tag_556\n        /* \"#utility.yul\":14934:14935   */\n      0x00\n        /* \"#utility.yul\":14923:14932   */\n      dup4\n        /* \"#utility.yul\":14919:14936   */\n      add\n        /* \"#utility.yul\":14910:14916   */\n      dup6\n        /* \"#utility.yul\":14866:14937   */\n      tag_374\n      jump\t// in\n    tag_556:\n        /* \"#utility.yul\":14947:15019   */\n      tag_557\n        /* \"#utility.yul\":15015:15017   */\n      0x20\n        /* \"#utility.yul\":15004:15013   */\n      dup4\n        /* \"#utility.yul\":15000:15018   */\n      add\n        /* \"#utility.yul\":14991:14997   */\n      dup5\n        /* \"#utility.yul\":14947:15019   */\n      tag_363\n      jump\t// in\n    tag_557:\n        /* \"#utility.yul\":14694:15026   */\n      swap4\n      swap3\n      pop\n      pop\n      pop\n      jump\t// out\n        /* \"#utility.yul\":15032:15197   */\n    tag_379:\n        /* \"#utility.yul\":15172:15189   */\n      0x4c5020696e73756666696369656e740000000000000000000000000000000000\n        /* \"#utility.yul\":15168:15169   */\n      0x00\n        /* \"#utility.yul\":15160:15166   */\n      dup3\n        /* \"#utility.yul\":15156:15170   */\n      add\n        /* \"#utility.yul\":15149:15190   */\n      mstore\n        /* \"#utility.yul\":15032:15197   */\n      pop\n      jump\t// out\n        /* \"#utility.yul\":15203:15569   */\n    tag_380:\n        /* \"#utility.yul\":15345:15348   */\n      0x00\n        /* \"#utility.yul\":15366:15433   */\n      tag_560\n        /* \"#utility.yul\":15430:15432   */\n      0x0f\n        /* \"#utility.yul\":15425:15428   */\n      dup4\n        /* \"#utility.yul\":15366:15433   */\n      tag_342\n      jump\t// in\n    tag_560:\n        /* \"#utility.yul\":15359:15433   */\n      swap2\n      pop\n        /* \"#utility.yul\":15442:15535   */\n      tag_561\n        /* \"#utility.yul\":15531:15534   */\n      dup3\n        /* \"#utility.yul\":15442:15535   */\n      tag_379\n      jump\t// in\n    tag_561:\n        /* \"#utility.yul\":15560:15562   */\n      0x20\n        /* \"#utility.yul\":15555:15558   */\n      dup3\n        /* \"#utility.yul\":15551:15563   */\n      add\n        /* \"#utility.yul\":15544:15563   */\n      swap1\n      pop\n        /* \"#utility.yul\":15203:15569   */\n      swap2\n      swap1\n      pop\n      jump\t// out\n        /* \"#utility.yul\":15575:15994   */\n    tag_195:\n        /* \"#utility.yul\":15741:15745   */\n      0x00\n        /* \"#utility.yul\":15779:15781   */\n      0x20\n        /* \"#utility.yul\":15768:15777   */\n      dup3\n        /* \"#utility.yul\":15764:15782   */\n      add\n        /* \"#utility.yul\":15756:15782   */\n      swap1\n      pop\n        /* \"#utility.yul\":15828:15837   */\n      dup2\n        /* \"#utility.yul\":15822:15826   */\n      dup2\n        /* \"#utility.yul\":15818:15838   */\n      sub\n        /* \"#utility.yul\":15814:15815   */\n      0x00\n        /* \"#utility.yul\":15803:15812   */\n      dup4\n        /* \"#utility.yul\":15799:15816   */\n      add\n        /* \"#utility.yul\":15792:15839   */\n      mstore\n        /* \"#utility.yul\":15856:15987   */\n      tag_563\n        /* \"#utility.yul\":15982:15986   */\n      dup2\n        /* \"#utility.yul\":15856:15987   */\n      tag_380\n      jump\t// in\n    tag_563:\n        /* \"#utility.yul\":15848:15987   */\n      swap1\n      pop\n        /* \"#utility.yul\":15575:15994   */\n      swap2\n      swap1\n      pop\n      jump\t// out\n        /* \"#utility.yul\":16000:16410   */\n    tag_198:\n        /* \"#utility.yul\":16040:16047   */\n      0x00\n        /* \"#utility.yul\":16063:16083   */\n      tag_565\n        /* \"#utility.yul\":16081:16082   */\n      dup3\n        /* \"#utility.yul\":16063:16083   */\n      tag_353\n      jump\t// in\n    tag_565:\n        /* \"#utility.yul\":16058:16083   */\n      swap2\n      pop\n        /* \"#utility.yul\":16097:16117   */\n      tag_566\n        /* \"#utility.yul\":16115:16116   */\n      dup4\n        /* \"#utility.yul\":16097:16117   */\n      tag_353\n      jump\t// in\n    tag_566:\n        /* \"#utility.yul\":16092:16117   */\n      swap3\n      pop\n        /* \"#utility.yul\":16152:16153   */\n      dup3\n        /* \"#utility.yul\":16149:16150   */\n      dup3\n        /* \"#utility.yul\":16145:16154   */\n      mul\n        /* \"#utility.yul\":16174:16204   */\n      tag_567\n        /* \"#utility.yul\":16192:16203   */\n      dup2\n        /* \"#utility.yul\":16174:16204   */\n      tag_353\n      jump\t// in\n    tag_567:\n        /* \"#utility.yul\":16163:16204   */\n      swap2\n      pop\n        /* \"#utility.yul\":16353:16354   */\n      dup3\n        /* \"#utility.yul\":16344:16351   */\n      dup3\n        /* \"#utility.yul\":16340:16355   */\n      div\n        /* \"#utility.yul\":16337:16338   */\n      dup5\n        /* \"#utility.yul\":16334:16356   */\n      eq\n        /* \"#utility.yul\":16314:16315   */\n      dup4\n        /* \"#utility.yul\":16307:16316   */\n      iszero\n        /* \"#utility.yul\":16287:16370   */\n      or\n        /* \"#utility.yul\":16264:16403   */\n      tag_568\n      jumpi\n        /* \"#utility.yul\":16383:16401   */\n      tag_569\n      tag_376\n      jump\t// in\n    tag_569:\n        /* \"#utility.yul\":16264:16403   */\n    tag_568:\n        /* \"#utility.yul\":16048:16410   */\n      pop\n        /* \"#utility.yul\":16000:16410   */\n      swap3\n      swap2\n      pop\n      pop\n      jump\t// out\n        /* \"#utility.yul\":16416:16596   */\n    tag_381:\n        /* \"#utility.yul\":16464:16541   */\n      0x4e487b7100000000000000000000000000000000000000000000000000000000\n        /* \"#utility.yul\":16461:16462   */\n      0x00\n        /* \"#utility.yul\":16454:16542   */\n      mstore\n        /* \"#utility.yul\":16561:16565   */\n      0x12\n        /* \"#utility.yul\":16558:16559   */\n      0x04\n        /* \"#utility.yul\":16551:16566   */\n      mstore\n        /* \"#utility.yul\":16585:16589   */\n      0x24\n        /* \"#utility.yul\":16582:16583   */\n      0x00\n        /* \"#utility.yul\":16575:16590   */\n      revert\n        /* \"#utility.yul\":16602:16787   */\n    tag_200:\n        /* \"#utility.yul\":16642:16643   */\n      0x00\n        /* \"#utility.yul\":16659:16679   */\n      tag_572\n        /* \"#utility.yul\":16677:16678   */\n      dup3\n        /* \"#utility.yul\":16659:16679   */\n      tag_353\n      jump\t// in\n    tag_572:\n        /* \"#utility.yul\":16654:16679   */\n      swap2\n      pop\n        /* \"#utility.yul\":16693:16713   */\n      tag_573\n        /* \"#utility.yul\":16711:16712   */\n      dup4\n        /* \"#utility.yul\":16693:16713   */\n      tag_353\n      jump\t// in\n    tag_573:\n        /* \"#utility.yul\":16688:16713   */\n      swap3\n      pop\n        /* \"#utility.yul\":16732:16733   */\n      dup3\n        /* \"#utility.yul\":16722:16757   */\n      tag_574\n      jumpi\n        /* \"#utility.yul\":16737:16755   */\n      tag_575\n      tag_381\n      jump\t// in\n    tag_575:\n        /* \"#utility.yul\":16722:16757   */\n    tag_574:\n        /* \"#utility.yul\":16779:16780   */\n      dup3\n        /* \"#utility.yul\":16776:16777   */\n      dup3\n        /* \"#utility.yul\":16772:16781   */\n      div\n        /* \"#utility.yul\":16767:16781   */\n      swap1\n      pop\n        /* \"#utility.yul\":16602:16787   */\n      swap3\n      swap2\n      pop\n      pop\n      jump\t// out\n        /* \"#utility.yul\":16793:17235   */\n    tag_224:\n        /* \"#utility.yul\":16942:16946   */\n      0x00\n        /* \"#utility.yul\":16980:16982   */\n      0x60\n        /* \"#utility.yul\":16969:16978   */\n      dup3\n        /* \"#utility.yul\":16965:16983   */\n      add\n        /* \"#utility.yul\":16957:16983   */\n      swap1\n      pop\n        /* \"#utility.yul\":16993:17064   */\n      tag_577\n        /* \"#utility.yul\":17061:17062   */\n      0x00\n        /* \"#utility.yul\":17050:17059   */\n      dup4\n        /* \"#utility.yul\":17046:17063   */\n      add\n        /* \"#utility.yul\":17037:17043   */\n      dup7\n        /* \"#utility.yul\":16993:17064   */\n      tag_363\n      jump\t// in\n    tag_577:\n        /* \"#utility.yul\":17074:17146   */\n      tag_578\n        /* \"#utility.yul\":17142:17144   */\n      0x20\n        /* \"#utility.yul\":17131:17140   */\n      dup4\n        /* \"#utility.yul\":17127:17145   */\n      add\n        /* \"#utility.yul\":17118:17124   */\n      dup6\n        /* \"#utility.yul\":17074:17146   */\n      tag_363\n      jump\t// in\n    tag_578:\n        /* \"#utility.yul\":17156:17228   */\n      tag_579\n        /* \"#utility.yul\":17224:17226   */\n      0x40\n        /* \"#utility.yul\":17213:17222   */\n      dup4\n        /* \"#utility.yul\":17209:17227   */\n      add\n        /* \"#utility.yul\":17200:17206   */\n      dup5\n        /* \"#utility.yul\":17156:17228   */\n      tag_363\n      jump\t// in\n    tag_579:\n        /* \"#utility.yul\":16793:17235   */\n      swap5\n      swap4\n      pop\n      pop\n      pop\n      pop\n      jump\t// out\n        /* \"#utility.yul\":17241:17467   */\n    tag_382:\n        /* \"#utility.yul\":17381:17415   */\n      0x6164644c69717569646974793a20746f6b656e30416d6f756e742063616e206e\n        /* \"#utility.yul\":17377:17378   */\n      0x00\n        /* \"#utility.yul\":17369:17375   */\n      dup3\n        /* \"#utility.yul\":17365:17379   */\n      add\n        /* \"#utility.yul\":17358:17416   */\n      mstore\n        /* \"#utility.yul\":17450:17459   */\n      0x6f74207a65726f00000000000000000000000000000000000000000000000000\n        /* \"#utility.yul\":17445:17447   */\n      0x20\n        /* \"#utility.yul\":17437:17443   */\n      dup3\n        /* \"#utility.yul\":17433:17448   */\n      add\n        /* \"#utility.yul\":17426:17460   */\n      mstore\n        /* \"#utility.yul\":17241:17467   */\n      pop\n      jump\t// out\n        /* \"#utility.yul\":17473:17839   */\n    tag_383:\n        /* \"#utility.yul\":17615:17618   */\n      0x00\n        /* \"#utility.yul\":17636:17703   */\n      tag_582\n        /* \"#utility.yul\":17700:17702   */\n      0x27\n        /* \"#utility.yul\":17695:17698   */\n      dup4\n        /* \"#utility.yul\":17636:17703   */\n      tag_342\n      jump\t// in\n    tag_582:\n        /* \"#utility.yul\":17629:17703   */\n      swap2\n      pop\n        /* \"#utility.yul\":17712:17805   */\n      tag_583\n        /* \"#utility.yul\":17801:17804   */\n      dup3\n        /* \"#utility.yul\":17712:17805   */\n      tag_382\n      jump\t// in\n    tag_583:\n        /* \"#utility.yul\":17830:17832   */\n      0x40\n        /* \"#utility.yul\":17825:17828   */\n      dup3\n        /* \"#utility.yul\":17821:17833   */\n      add\n        /* \"#utility.yul\":17814:17833   */\n      swap1\n      pop\n        /* \"#utility.yul\":17473:17839   */\n      swap2\n      swap1\n      pop\n      jump\t// out\n        /* \"#utility.yul\":17845:18264   */\n    tag_228:\n        /* \"#utility.yul\":18011:18015   */\n      0x00\n        /* \"#utility.yul\":18049:18051   */\n      0x20\n        /* \"#utility.yul\":18038:18047   */\n      dup3\n        /* \"#utility.yul\":18034:18052   */\n      add\n        /* \"#utility.yul\":18026:18052   */\n      swap1\n      pop\n        /* \"#utility.yul\":18098:18107   */\n      dup2\n        /* \"#utility.yul\":18092:18096   */\n      dup2\n        /* \"#utility.yul\":18088:18108   */\n      sub\n        /* \"#utility.yul\":18084:18085   */\n      0x00\n        /* \"#utility.yul\":18073:18082   */\n      dup4\n        /* \"#utility.yul\":18069:18086   */\n      add\n        /* \"#utility.yul\":18062:18109   */\n      mstore\n        /* \"#utility.yul\":18126:18257   */\n      tag_585\n        /* \"#utility.yul\":18252:18256   */\n      dup2\n        /* \"#utility.yul\":18126:18257   */\n      tag_383\n      jump\t// in\n    tag_585:\n        /* \"#utility.yul\":18118:18257   */\n      swap1\n      pop\n        /* \"#utility.yul\":17845:18264   */\n      swap2\n      swap1\n      pop\n      jump\t// out\n        /* \"#utility.yul\":18270:18496   */\n    tag_384:\n        /* \"#utility.yul\":18410:18444   */\n      0x6164644c69717569646974793a20746f6b656e31416d6f756e742063616e206e\n        /* \"#utility.yul\":18406:18407   */\n      0x00\n        /* \"#utility.yul\":18398:18404   */\n      dup3\n        /* \"#utility.yul\":18394:18408   */\n      add\n        /* \"#utility.yul\":18387:18445   */\n      mstore\n        /* \"#utility.yul\":18479:18488   */\n      0x6f74207a65726f00000000000000000000000000000000000000000000000000\n        /* \"#utility.yul\":18474:18476   */\n      0x20\n        /* \"#utility.yul\":18466:18472   */\n      dup3\n        /* \"#utility.yul\":18462:18477   */\n      add\n        /* \"#utility.yul\":18455:18489   */\n      mstore\n        /* \"#utility.yul\":18270:18496   */\n      pop\n      jump\t// out\n        /* \"#utility.yul\":18502:18868   */\n    tag_385:\n        /* \"#utility.yul\":18644:18647   */\n      0x00\n        /* \"#utility.yul\":18665:18732   */\n      tag_588\n        /* \"#utility.yul\":18729:18731   */\n      0x27\n        /* \"#utility.yul\":18724:18727   */\n      dup4\n        /* \"#utility.yul\":18665:18732   */\n      tag_342\n      jump\t// in\n    tag_588:\n        /* \"#utility.yul\":18658:18732   */\n      swap2\n      pop\n        /* \"#utility.yul\":18741:18834   */\n      tag_589\n        /* \"#utility.yul\":18830:18833   */\n      dup3\n        /* \"#utility.yul\":18741:18834   */\n      tag_384\n      jump\t// in\n    tag_589:\n        /* \"#utility.yul\":18859:18861   */\n      0x40\n        /* \"#utility.yul\":18854:18857   */\n      dup3\n        /* \"#utility.yul\":18850:18862   */\n      add\n        /* \"#utility.yul\":18843:18862   */\n      swap1\n      pop\n        /* \"#utility.yul\":18502:18868   */\n      swap2\n      swap1\n      pop\n      jump\t// out\n        /* \"#utility.yul\":18874:19293   */\n    tag_231:\n        /* \"#utility.yul\":19040:19044   */\n      0x00\n        /* \"#utility.yul\":19078:19080   */\n      0x20\n        /* \"#utility.yul\":19067:19076   */\n      dup3\n        /* \"#utility.yul\":19063:19081   */\n      add\n        /* \"#utility.yul\":19055:19081   */\n      swap1\n      pop\n        /* \"#utility.yul\":19127:19136   */\n      dup2\n        /* \"#utility.yul\":19121:19125   */\n      dup2\n        /* \"#utility.yul\":19117:19137   */\n      sub\n        /* \"#utility.yul\":19113:19114   */\n      0x00\n        /* \"#utility.yul\":19102:19111   */\n      dup4\n        /* \"#utility.yul\":19098:19115   */\n      add\n        /* \"#utility.yul\":19091:19138   */\n      mstore\n        /* \"#utility.yul\":19155:19286   */\n      tag_591\n        /* \"#utility.yul\":19281:19285   */\n      dup2\n        /* \"#utility.yul\":19155:19286   */\n      tag_385\n      jump\t// in\n    tag_591:\n        /* \"#utility.yul\":19147:19286   */\n      swap1\n      pop\n        /* \"#utility.yul\":18874:19293   */\n      swap2\n      swap1\n      pop\n      jump\t// out\n        /* \"#utility.yul\":19299:19522   */\n    tag_386:\n        /* \"#utility.yul\":19439:19473   */\n      0x6164644c69717569646974793a20696e73756666696369656e74206c69717569\n        /* \"#utility.yul\":19435:19436   */\n      0x00\n        /* \"#utility.yul\":19427:19433   */\n      dup3\n        /* \"#utility.yul\":19423:19437   */\n      add\n        /* \"#utility.yul\":19416:19474   */\n      mstore\n        /* \"#utility.yul\":19508:19514   */\n      0x6469747900000000000000000000000000000000000000000000000000000000\n        /* \"#utility.yul\":19503:19505   */\n      0x20\n        /* \"#utility.yul\":19495:19501   */\n      dup3\n        /* \"#utility.yul\":19491:19506   */\n      add\n        /* \"#utility.yul\":19484:19515   */\n      mstore\n        /* \"#utility.yul\":19299:19522   */\n      pop\n      jump\t// out\n        /* \"#utility.yul\":19528:19894   */\n    tag_387:\n        /* \"#utility.yul\":19670:19673   */\n      0x00\n        /* \"#utility.yul\":19691:19758   */\n      tag_594\n        /* \"#utility.yul\":19755:19757   */\n      0x24\n        /* \"#utility.yul\":19750:19753   */\n      dup4\n        /* \"#utility.yul\":19691:19758   */\n      tag_342\n      jump\t// in\n    tag_594:\n        /* \"#utility.yul\":19684:19758   */\n      swap2\n      pop\n        /* \"#utility.yul\":19767:19860   */\n      tag_595\n        /* \"#utility.yul\":19856:19859   */\n      dup3\n        /* \"#utility.yul\":19767:19860   */\n      tag_386\n      jump\t// in\n    tag_595:\n        /* \"#utility.yul\":19885:19887   */\n      0x40\n        /* \"#utility.yul\":19880:19883   */\n      dup3\n        /* \"#utility.yul\":19876:19888   */\n      add\n        /* \"#utility.yul\":19869:19888   */\n      swap1\n      pop\n        /* \"#utility.yul\":19528:19894   */\n      swap2\n      swap1\n      pop\n      jump\t// out\n        /* \"#utility.yul\":19900:20319   */\n    tag_256:\n        /* \"#utility.yul\":20066:20070   */\n      0x00\n        /* \"#utility.yul\":20104:20106   */\n      0x20\n        /* \"#utility.yul\":20093:20102   */\n      dup3\n        /* \"#utility.yul\":20089:20107   */\n      add\n        /* \"#utility.yul\":20081:20107   */\n      swap1\n      pop\n        /* \"#utility.yul\":20153:20162   */\n      dup2\n        /* \"#utility.yul\":20147:20151   */\n      dup2\n        /* \"#utility.yul\":20143:20163   */\n      sub\n        /* \"#utility.yul\":20139:20140   */\n      0x00\n        /* \"#utility.yul\":20128:20137   */\n      dup4\n        /* \"#utility.yul\":20124:20141   */\n      add\n        /* \"#utility.yul\":20117:20164   */\n      mstore\n        /* \"#utility.yul\":20181:20312   */\n      tag_597\n        /* \"#utility.yul\":20307:20311   */\n      dup2\n        /* \"#utility.yul\":20181:20312   */\n      tag_387\n      jump\t// in\n    tag_597:\n        /* \"#utility.yul\":20173:20312   */\n      swap1\n      pop\n        /* \"#utility.yul\":19900:20319   */\n      swap2\n      swap1\n      pop\n      jump\t// out\n        /* \"#utility.yul\":20325:20558   */\n    tag_388:\n        /* \"#utility.yul\":20465:20499   */\n      0x63616c63756c617465537761704f7574416d6f756e743a20616d6f756e74496e\n        /* \"#utility.yul\":20461:20462   */\n      0x00\n        /* \"#utility.yul\":20453:20459   */\n      dup3\n        /* \"#utility.yul\":20449:20463   */\n      add\n        /* \"#utility.yul\":20442:20500   */\n      mstore\n        /* \"#utility.yul\":20534:20550   */\n      0x206d75737420706f736974697665000000000000000000000000000000000000\n        /* \"#utility.yul\":20529:20531   */\n      0x20\n        /* \"#utility.yul\":20521:20527   */\n      dup3\n        /* \"#utility.yul\":20517:20532   */\n      add\n        /* \"#utility.yul\":20510:20551   */\n      mstore\n        /* \"#utility.yul\":20325:20558   */\n      pop\n      jump\t// out\n        /* \"#utility.yul\":20564:20930   */\n    tag_389:\n        /* \"#utility.yul\":20706:20709   */\n      0x00\n        /* \"#utility.yul\":20727:20794   */\n      tag_600\n        /* \"#utility.yul\":20791:20793   */\n      0x2e\n        /* \"#utility.yul\":20786:20789   */\n      dup4\n        /* \"#utility.yul\":20727:20794   */\n      tag_342\n      jump\t// in\n    tag_600:\n        /* \"#utility.yul\":20720:20794   */\n      swap2\n      pop\n        /* \"#utility.yul\":20803:20896   */\n      tag_601\n        /* \"#utility.yul\":20892:20895   */\n      dup3\n        /* \"#utility.yul\":20803:20896   */\n      tag_388\n      jump\t// in\n    tag_601:\n        /* \"#utility.yul\":20921:20923   */\n      0x40\n        /* \"#utility.yul\":20916:20919   */\n      dup3\n        /* \"#utility.yul\":20912:20924   */\n      add\n        /* \"#utility.yul\":20905:20924   */\n      swap1\n      pop\n        /* \"#utility.yul\":20564:20930   */\n      swap2\n      swap1\n      pop\n      jump\t// out\n        /* \"#utility.yul\":20936:21355   */\n    tag_271:\n        /* \"#utility.yul\":21102:21106   */\n      0x00\n        /* \"#utility.yul\":21140:21142   */\n      0x20\n        /* \"#utility.yul\":21129:21138   */\n      dup3\n        /* \"#utility.yul\":21125:21143   */\n      add\n        /* \"#utility.yul\":21117:21143   */\n      swap1\n      pop\n        /* \"#utility.yul\":21189:21198   */\n      dup2\n        /* \"#utility.yul\":21183:21187   */\n      dup2\n        /* \"#utility.yul\":21179:21199   */\n      sub\n        /* \"#utility.yul\":21175:21176   */\n      0x00\n        /* \"#utility.yul\":21164:21173   */\n      dup4\n        /* \"#utility.yul\":21160:21177   */\n      add\n        /* \"#utility.yul\":21153:21200   */\n      mstore\n        /* \"#utility.yul\":21217:21348   */\n      tag_603\n        /* \"#utility.yul\":21343:21347   */\n      dup2\n        /* \"#utility.yul\":21217:21348   */\n      tag_389\n      jump\t// in\n    tag_603:\n        /* \"#utility.yul\":21209:21348   */\n      swap1\n      pop\n        /* \"#utility.yul\":20936:21355   */\n      swap2\n      swap1\n      pop\n      jump\t// out\n        /* \"#utility.yul\":21361:21595   */\n    tag_390:\n        /* \"#utility.yul\":21501:21535   */\n      0x63616c63756c617465537761704f7574416d6f756e743a207265736572766549\n        /* \"#utility.yul\":21497:21498   */\n      0x00\n        /* \"#utility.yul\":21489:21495   */\n      dup3\n        /* \"#utility.yul\":21485:21499   */\n      add\n        /* \"#utility.yul\":21478:21536   */\n      mstore\n        /* \"#utility.yul\":21570:21587   */\n      0x6e206d75737420706f7369746976650000000000000000000000000000000000\n        /* \"#utility.yul\":21565:21567   */\n      0x20\n        /* \"#utility.yul\":21557:21563   */\n      dup3\n        /* \"#utility.yul\":21553:21568   */\n      add\n        /* \"#utility.yul\":21546:21588   */\n      mstore\n        /* \"#utility.yul\":21361:21595   */\n      pop\n      jump\t// out\n        /* \"#utility.yul\":21601:21967   */\n    tag_391:\n        /* \"#utility.yul\":21743:21746   */\n      0x00\n        /* \"#utility.yul\":21764:21831   */\n      tag_606\n        /* \"#utility.yul\":21828:21830   */\n      0x2f\n        /* \"#utility.yul\":21823:21826   */\n      dup4\n        /* \"#utility.yul\":21764:21831   */\n      tag_342\n      jump\t// in\n    tag_606:\n        /* \"#utility.yul\":21757:21831   */\n      swap2\n      pop\n        /* \"#utility.yul\":21840:21933   */\n      tag_607\n        /* \"#utility.yul\":21929:21932   */\n      dup3\n        /* \"#utility.yul\":21840:21933   */\n      tag_390\n      jump\t// in\n    tag_607:\n        /* \"#utility.yul\":21958:21960   */\n      0x40\n        /* \"#utility.yul\":21953:21956   */\n      dup3\n        /* \"#utility.yul\":21949:21961   */\n      add\n        /* \"#utility.yul\":21942:21961   */\n      swap1\n      pop\n        /* \"#utility.yul\":21601:21967   */\n      swap2\n      swap1\n      pop\n      jump\t// out\n        /* \"#utility.yul\":21973:22392   */\n    tag_274:\n        /* \"#utility.yul\":22139:22143   */\n      0x00\n        /* \"#utility.yul\":22177:22179   */\n      0x20\n        /* \"#utility.yul\":22166:22175   */\n      dup3\n        /* \"#utility.yul\":22162:22180   */\n      add\n        /* \"#utility.yul\":22154:22180   */\n      swap1\n      pop\n        /* \"#utility.yul\":22226:22235   */\n      dup2\n        /* \"#utility.yul\":22220:22224   */\n      dup2\n        /* \"#utility.yul\":22216:22236   */\n      sub\n        /* \"#utility.yul\":22212:22213   */\n      0x00\n        /* \"#utility.yul\":22201:22210   */\n      dup4\n        /* \"#utility.yul\":22197:22214   */\n      add\n        /* \"#utility.yul\":22190:22237   */\n      mstore\n        /* \"#utility.yul\":22254:22385   */\n      tag_609\n        /* \"#utility.yul\":22380:22384   */\n      dup2\n        /* \"#utility.yul\":22254:22385   */\n      tag_391\n      jump\t// in\n    tag_609:\n        /* \"#utility.yul\":22246:22385   */\n      swap1\n      pop\n        /* \"#utility.yul\":21973:22392   */\n      swap2\n      swap1\n      pop\n      jump\t// out\n        /* \"#utility.yul\":22398:22633   */\n    tag_392:\n        /* \"#utility.yul\":22538:22572   */\n      0x63616c63756c617465537761704f7574416d6f756e743a20726573657276654f\n        /* \"#utility.yul\":22534:22535   */\n      0x00\n        /* \"#utility.yul\":22526:22532   */\n      dup3\n        /* \"#utility.yul\":22522:22536   */\n      add\n        /* \"#utility.yul\":22515:22573   */\n      mstore\n        /* \"#utility.yul\":22607:22625   */\n      0x7574206d75737420706f73697469766500000000000000000000000000000000\n        /* \"#utility.yul\":22602:22604   */\n      0x20\n        /* \"#utility.yul\":22594:22600   */\n      dup3\n        /* \"#utility.yul\":22590:22605   */\n      add\n        /* \"#utility.yul\":22583:22626   */\n      mstore\n        /* \"#utility.yul\":22398:22633   */\n      pop\n      jump\t// out\n        /* \"#utility.yul\":22639:23005   */\n    tag_393:\n        /* \"#utility.yul\":22781:22784   */\n      0x00\n        /* \"#utility.yul\":22802:22869   */\n      tag_612\n        /* \"#utility.yul\":22866:22868   */\n      0x30\n        /* \"#utility.yul\":22861:22864   */\n      dup4\n        /* \"#utility.yul\":22802:22869   */\n      tag_342\n      jump\t// in\n    tag_612:\n        /* \"#utility.yul\":22795:22869   */\n      swap2\n      pop\n        /* \"#utility.yul\":22878:22971   */\n      tag_613\n        /* \"#utility.yul\":22967:22970   */\n      dup3\n        /* \"#utility.yul\":22878:22971   */\n      tag_392\n      jump\t// in\n    tag_613:\n        /* \"#utility.yul\":22996:22998   */\n      0x40\n        /* \"#utility.yul\":22991:22994   */\n      dup3\n        /* \"#utility.yul\":22987:22999   */\n      add\n        /* \"#utility.yul\":22980:22999   */\n      swap1\n      pop\n        /* \"#utility.yul\":22639:23005   */\n      swap2\n      swap1\n      pop\n      jump\t// out\n        /* \"#utility.yul\":23011:23430   */\n    tag_277:\n        /* \"#utility.yul\":23177:23181   */\n      0x00\n        /* \"#utility.yul\":23215:23217   */\n      0x20\n        /* \"#utility.yul\":23204:23213   */\n      dup3\n        /* \"#utility.yul\":23200:23218   */\n      add\n        /* \"#utility.yul\":23192:23218   */\n      swap1\n      pop\n        /* \"#utility.yul\":23264:23273   */\n      dup2\n        /* \"#utility.yul\":23258:23262   */\n      dup2\n        /* \"#utility.yul\":23254:23274   */\n      sub\n        /* \"#utility.yul\":23250:23251   */\n      0x00\n        /* \"#utility.yul\":23239:23248   */\n      dup4\n        /* \"#utility.yul\":23235:23252   */\n      add\n        /* \"#utility.yul\":23228:23275   */\n      mstore\n        /* \"#utility.yul\":23292:23423   */\n      tag_615\n        /* \"#utility.yul\":23418:23422   */\n      dup2\n        /* \"#utility.yul\":23292:23423   */\n      tag_393\n      jump\t// in\n    tag_615:\n        /* \"#utility.yul\":23284:23423   */\n      swap1\n      pop\n        /* \"#utility.yul\":23011:23430   */\n      swap2\n      swap1\n      pop\n      jump\t// out\n        /* \"#utility.yul\":23436:23878   */\n    tag_294:\n        /* \"#utility.yul\":23585:23589   */\n      0x00\n        /* \"#utility.yul\":23623:23625   */\n      0x60\n        /* \"#utility.yul\":23612:23621   */\n      dup3\n        /* \"#utility.yul\":23608:23626   */\n      add\n        /* \"#utility.yul\":23600:23626   */\n      swap1\n      pop\n        /* \"#utility.yul\":23636:23707   */\n      tag_617\n        /* \"#utility.yul\":23704:23705   */\n      0x00\n        /* \"#utility.yul\":23693:23702   */\n      dup4\n        /* \"#utility.yul\":23689:23706   */\n      add\n        /* \"#utility.yul\":23680:23686   */\n      dup7\n        /* \"#utility.yul\":23636:23707   */\n      tag_374\n      jump\t// in\n    tag_617:\n        /* \"#utility.yul\":23717:23789   */\n      tag_618\n        /* \"#utility.yul\":23785:23787   */\n      0x20\n        /* \"#utility.yul\":23774:23783   */\n      dup4\n        /* \"#utility.yul\":23770:23788   */\n      add\n        /* \"#utility.yul\":23761:23767   */\n      dup6\n        /* \"#utility.yul\":23717:23789   */\n      tag_363\n      jump\t// in\n    tag_618:\n        /* \"#utility.yul\":23799:23871   */\n      tag_619\n        /* \"#utility.yul\":23867:23869   */\n      0x40\n        /* \"#utility.yul\":23856:23865   */\n      dup4\n        /* \"#utility.yul\":23852:23870   */\n      add\n        /* \"#utility.yul\":23843:23849   */\n      dup5\n        /* \"#utility.yul\":23799:23871   */\n      tag_363\n      jump\t// in\n    tag_619:\n        /* \"#utility.yul\":23436:23878   */\n      swap5\n      swap4\n      pop\n      pop\n      pop\n      pop\n      jump\t// out\n\n    auxdata: 0xa264697066735822122099834e2f6f4e98d84376552bb880117154be87b6df8bea8a7c9080f7e75105e164736f6c634300081a0033\n}\n",
				"bytecode": {
					"linkReferences": {},
					"object": "608060405234801561000f575f80fd5b506040516130c63803806130c6833981810160405281019061003191906101b5565b6040518060400160405280600a81526020017f53696d706c6553776170000000000000000000000000000000000000000000008152506040518060400160405280600281526020017f535300000000000000000000000000000000000000000000000000000000000081525081600390816100ac919061042d565b5080600490816100bc919061042d565b5050508160055f6101000a81548173ffffffffffffffffffffffffffffffffffffffff021916908373ffffffffffffffffffffffffffffffffffffffff1602179055508060065f6101000a81548173ffffffffffffffffffffffffffffffffffffffff021916908373ffffffffffffffffffffffffffffffffffffffff16021790555050506104fc565b5f80fd5b5f73ffffffffffffffffffffffffffffffffffffffff82169050919050565b5f6101738261014a565b9050919050565b5f61018482610169565b9050919050565b6101948161017a565b811461019e575f80fd5b50565b5f815190506101af8161018b565b92915050565b5f80604083850312156101cb576101ca610146565b5b5f6101d8858286016101a1565b92505060206101e9858286016101a1565b9150509250929050565b5f81519050919050565b7f4e487b71000000000000000000000000000000000000000000000000000000005f52604160045260245ffd5b7f4e487b71000000000000000000000000000000000000000000000000000000005f52602260045260245ffd5b5f600282049050600182168061026e57607f821691505b6020821081036102815761028061022a565b5b50919050565b5f819050815f5260205f209050919050565b5f6020601f8301049050919050565b5f82821b905092915050565b5f600883026102e37fffffffffffffffffffffffffffffffffffffffffffffffffffffffffffffffff826102a8565b6102ed86836102a8565b95508019841693508086168417925050509392505050565b5f819050919050565b5f819050919050565b5f61033161032c61032784610305565b61030e565b610305565b9050919050565b5f819050919050565b61034a83610317565b61035e61035682610338565b8484546102b4565b825550505050565b5f90565b610372610366565b61037d818484610341565b505050565b5b818110156103a0576103955f8261036a565b600181019050610383565b5050565b601f8211156103e5576103b681610287565b6103bf84610299565b810160208510156103ce578190505b6103e26103da85610299565b830182610382565b50505b505050565b5f82821c905092915050565b5f6104055f19846008026103ea565b1980831691505092915050565b5f61041d83836103f6565b9150826002028217905092915050565b610436826101f3565b67ffffffffffffffff81111561044f5761044e6101fd565b5b6104598254610257565b6104648282856103a4565b5f60209050601f831160018114610495575f8415610483578287015190505b61048d8582610412565b8655506104f4565b601f1984166104a386610287565b5f5b828110156104ca578489015182556001820191506020850194506020810190506104a5565b868310156104e757848901516104e3601f8916826103f6565b8355505b6001600288020188555050505b505050505050565b612bbd806105095f395ff3fe608060405234801561000f575f80fd5b5060043610610109575f3560e01c80635a76f25e116100a05780639cd441da1161006f5780639cd441da146102d1578063a3919e4214610301578063a9059cbb14610331578063d21220a714610361578063dd62ed3e1461037f57610109565b80635a76f25e1461023457806370a082311461025257806395d89b41146102825780639c8f9f23146102a057610109565b806323b872dd116100dc57806323b872dd14610197578063313ce567146101c757806343264349146101e5578063443cb4bc1461021657610109565b806306fdde031461010d578063095ea7b31461012b5780630dfe16811461015b57806318160ddd14610179575b5f80fd5b6101156103af565b6040516101229190611fae565b60405180910390f35b6101456004803603810190610140919061205f565b61043f565b60405161015291906120b7565b60405180910390f35b610163610461565b604051610170919061212b565b60405180910390f35b610181610486565b60405161018e9190612153565b60405180910390f35b6101b160048036038101906101ac919061216c565b61048f565b6040516101be91906120b7565b60405180910390f35b6101cf6104bd565b6040516101dc91906121d7565b60405180910390f35b6101ff60048036038101906101fa919061222b565b6104c5565b60405161020d92919061227b565b60405180910390f35b61021e610de8565b60405161022b9190612153565b60405180910390f35b61023c610dee565b6040516102499190612153565b60405180910390f35b61026c600480360381019061026791906122a2565b610df4565b6040516102799190612153565b60405180910390f35b61028a610e39565b6040516102979190611fae565b60405180910390f35b6102ba60048036038101906102b591906122cd565b610ec9565b6040516102c89291906122f8565b60405180910390f35b6102eb60048036038101906102e6919061231f565b61124c565b6040516102f89190612153565b60405180910390f35b61031b6004803603810190610316919061235d565b611672565b6040516103289190612153565b60405180910390f35b61034b6004803603810190610346919061205f565b611764565b60405161035891906120b7565b60405180910390f35b610369611786565b604051610376919061212b565b60405180910390f35b610399600480360381019061039491906123ad565b6117ab565b6040516103a69190612153565b60405180910390f35b6060600380546103be90612418565b80601f01602080910402602001604051908101604052809291908181526020018280546103ea90612418565b80156104355780601f1061040c57610100808354040283529160200191610435565b820191905f5260205f20905b81548152906001019060200180831161041857829003601f168201915b5050505050905090565b5f8061044961182d565b9050610456818585611834565b600191505092915050565b60055f9054906101000a900473ffffffffffffffffffffffffffffffffffffffff1681565b5f600254905090565b5f8061049961182d565b90506104a6858285611846565b6104b18585856118d9565b60019150509392505050565b5f6012905090565b5f805f8511610509576040517f08c379a000000000000000000000000000000000000000000000000000000000815260040161050090612492565b60405180910390fd5b60055f9054906101000a900473ffffffffffffffffffffffffffffffffffffffff1673ffffffffffffffffffffffffffffffffffffffff168473ffffffffffffffffffffffffffffffffffffffff1614806105b0575060065f9054906101000a900473ffffffffffffffffffffffffffffffffffffffff1673ffffffffffffffffffffffffffffffffffffffff168473ffffffffffffffffffffffffffffffffffffffff16145b6105ef576040517f08c379a00000000000000000000000000000000000000000000000000000000081526004016105e6906124fa565b60405180910390fd5b5f60055f9054906101000a900473ffffffffffffffffffffffffffffffffffffffff1673ffffffffffffffffffffffffffffffffffffffff166370a08231306040518263ffffffff1660e01b815260040161064a9190612527565b602060405180830381865afa158015610665573d5f803e3d5ffd5b505050506040513d601f19601f820116820180604052508101906106899190612554565b90505f60065f9054906101000a900473ffffffffffffffffffffffffffffffffffffffff1673ffffffffffffffffffffffffffffffffffffffff166370a08231306040518263ffffffff1660e01b81526004016106e69190612527565b602060405180830381865afa158015610701573d5f803e3d5ffd5b505050506040513d601f19601f820116820180604052508101906107259190612554565b905060055f9054906101000a900473ffffffffffffffffffffffffffffffffffffffff1673ffffffffffffffffffffffffffffffffffffffff168673ffffffffffffffffffffffffffffffffffffffff1603610a7b57610786878383611672565b935060065f9054906101000a900473ffffffffffffffffffffffffffffffffffffffff169250848410156107e6576040517fcf3ba9fc00000000000000000000000000000000000000000000000000000000815260040160405180910390fd5b8660055f9054906101000a900473ffffffffffffffffffffffffffffffffffffffff1673ffffffffffffffffffffffffffffffffffffffff166370a08231306040518263ffffffff1660e01b81526004016108419190612527565b602060405180830381865afa15801561085c573d5f803e3d5ffd5b505050506040513d601f19601f820116820180604052508101906108809190612554565b61088a91906125ac565b6007819055508360065f9054906101000a900473ffffffffffffffffffffffffffffffffffffffff1673ffffffffffffffffffffffffffffffffffffffff166370a08231306040518263ffffffff1660e01b81526004016108eb9190612527565b602060405180830381865afa158015610906573d5f803e3d5ffd5b505050506040513d601f19601f8201168201806040525081019061092a9190612554565b61093491906125df565b60088190555060055f9054906101000a900473ffffffffffffffffffffffffffffffffffffffff1673ffffffffffffffffffffffffffffffffffffffff166323b872dd33308a6040518463ffffffff1660e01b815260040161099893929190612612565b6020604051808303815f875af11580156109b4573d5f803e3d5ffd5b505050506040513d601f19601f820116820180604052508101906109d89190612671565b5060065f9054906101000a900473ffffffffffffffffffffffffffffffffffffffff1673ffffffffffffffffffffffffffffffffffffffff1663a9059cbb33866040518363ffffffff1660e01b8152600401610a3592919061269c565b6020604051808303815f875af1158015610a51573d5f803e3d5ffd5b505050506040513d601f19601f82011682018060405250810190610a759190612671565b50610d77565b610a86878284611672565b935060055f9054906101000a900473ffffffffffffffffffffffffffffffffffffffff16925084841015610ae6576040517fcf3ba9fc00000000000000000000000000000000000000000000000000000000815260040160405180910390fd5b8660065f9054906101000a900473ffffffffffffffffffffffffffffffffffffffff1673ffffffffffffffffffffffffffffffffffffffff166370a08231306040518263ffffffff1660e01b8152600401610b419190612527565b602060405180830381865afa158015610b5c573d5f803e3d5ffd5b505050506040513d601f19601f82011682018060405250810190610b809190612554565b610b8a91906125ac565b6008819055508360055f9054906101000a900473ffffffffffffffffffffffffffffffffffffffff1673ffffffffffffffffffffffffffffffffffffffff166370a08231306040518263ffffffff1660e01b8152600401610beb9190612527565b602060405180830381865afa158015610c06573d5f803e3d5ffd5b505050506040513d601f19601f82011682018060405250810190610c2a9190612554565b610c3491906125df565b60078190555060065f9054906101000a900473ffffffffffffffffffffffffffffffffffffffff1673ffffffffffffffffffffffffffffffffffffffff166323b872dd33308a6040518463ffffffff1660e01b8152600401610c9893929190612612565b6020604051808303815f875af1158015610cb4573d5f803e3d5ffd5b505050506040513d601f19601f82011682018060405250810190610cd89190612671565b5060055f9054906101000a900473ffffffffffffffffffffffffffffffffffffffff1673ffffffffffffffffffffffffffffffffffffffff1663a9059cbb33866040518363ffffffff1660e01b8152600401610d3592919061269c565b6020604051808303815f875af1158015610d51573d5f803e3d5ffd5b505050506040513d601f19601f82011682018060405250810190610d759190612671565b505b8273ffffffffffffffffffffffffffffffffffffffff168673ffffffffffffffffffffffffffffffffffffffff167f80044f7893845e3883418a4d784224b0d2d9606ca5f19c2a910401c2c62761b58987604051610dd69291906122f8565b60405180910390a35050935093915050565b60075481565b60085481565b5f805f8373ffffffffffffffffffffffffffffffffffffffff1673ffffffffffffffffffffffffffffffffffffffff1681526020019081526020015f20549050919050565b606060048054610e4890612418565b80601f0160208091040260200160405190810160405280929190818152602001828054610e7490612418565b8015610ebf5780601f10610e9657610100808354040283529160200191610ebf565b820191905f5260205f20905b815481529060010190602001808311610ea257829003601f168201915b5050505050905090565b5f805f610ed533610df4565b905083811015610f1a576040517f08c379a0000000000000000000000000000000000000000000000000000000008152600401610f119061270d565b60405180910390fd5b5f610f23610486565b90508060075486610f34919061272b565b610f3e9190612799565b93508060085486610f4f919061272b565b610f599190612799565b92508360055f9054906101000a900473ffffffffffffffffffffffffffffffffffffffff1673ffffffffffffffffffffffffffffffffffffffff166370a08231306040518263ffffffff1660e01b8152600401610fb69190612527565b602060405180830381865afa158015610fd1573d5f803e3d5ffd5b505050506040513d601f19601f82011682018060405250810190610ff59190612554565b610fff91906125df565b6007819055508260065f9054906101000a900473ffffffffffffffffffffffffffffffffffffffff1673ffffffffffffffffffffffffffffffffffffffff166370a08231306040518263ffffffff1660e01b81526004016110609190612527565b602060405180830381865afa15801561107b573d5f803e3d5ffd5b505050506040513d601f19601f8201168201806040525081019061109f9190612554565b6110a991906125df565b6008819055506110b933866119c9565b60055f9054906101000a900473ffffffffffffffffffffffffffffffffffffffff1673ffffffffffffffffffffffffffffffffffffffff1663a9059cbb33866040518363ffffffff1660e01b815260040161111592919061269c565b6020604051808303815f875af1158015611131573d5f803e3d5ffd5b505050506040513d601f19601f820116820180604052508101906111559190612671565b5060065f9054906101000a900473ffffffffffffffffffffffffffffffffffffffff1673ffffffffffffffffffffffffffffffffffffffff1663a9059cbb33856040518363ffffffff1660e01b81526004016111b292919061269c565b6020604051808303815f875af11580156111ce573d5f803e3d5ffd5b505050506040513d601f19601f820116820180604052508101906111f29190612671565b503373ffffffffffffffffffffffffffffffffffffffff167f1dc8bb69df2b8e91fbdcbfcf93d951b3f0000f085a95fe3f7946d6161439245d86868660405161123d939291906127c9565b60405180910390a25050915091565b5f80831161128f576040517f08c379a00000000000000000000000000000000000000000000000000000000081526004016112869061286e565b60405180910390fd5b5f82116112d1576040517f08c379a00000000000000000000000000000000000000000000000000000000081526004016112c8906128fc565b60405180910390fd5b8260055f9054906101000a900473ffffffffffffffffffffffffffffffffffffffff1673ffffffffffffffffffffffffffffffffffffffff166370a08231306040518263ffffffff1660e01b815260040161132c9190612527565b602060405180830381865afa158015611347573d5f803e3d5ffd5b505050506040513d601f19601f8201168201806040525081019061136b9190612554565b61137591906125ac565b6007819055508160065f9054906101000a900473ffffffffffffffffffffffffffffffffffffffff1673ffffffffffffffffffffffffffffffffffffffff166370a08231306040518263ffffffff1660e01b81526004016113d69190612527565b602060405180830381865afa1580156113f1573d5f803e3d5ffd5b505050506040513d601f19601f820116820180604052508101906114159190612554565b61141f91906125ac565b6008819055505f61142e610486565b90505f81036114525761144b8385611446919061272b565b611a48565b915061148f565b61148c6007548286611464919061272b565b61146e9190612799565b600854838661147d919061272b565b6114879190612799565b611abf565b91505b5f82116114d1576040517f08c379a00000000000000000000000000000000000000000000000000000000081526004016114c89061298a565b60405180910390fd5b6114db3383611ad7565b60055f9054906101000a900473ffffffffffffffffffffffffffffffffffffffff1673ffffffffffffffffffffffffffffffffffffffff166323b872dd3330876040518463ffffffff1660e01b815260040161153993929190612612565b6020604051808303815f875af1158015611555573d5f803e3d5ffd5b505050506040513d601f19601f820116820180604052508101906115799190612671565b5060065f9054906101000a900473ffffffffffffffffffffffffffffffffffffffff1673ffffffffffffffffffffffffffffffffffffffff166323b872dd3330866040518463ffffffff1660e01b81526004016115d893929190612612565b6020604051808303815f875af11580156115f4573d5f803e3d5ffd5b505050506040513d601f19601f820116820180604052508101906116189190612671565b503373ffffffffffffffffffffffffffffffffffffffff167f64b83944e79c3ce8d4c297411de637c3e102d064677aac0c163976ebdcd6f50e858585604051611663939291906127c9565b60405180910390a25092915050565b5f8084116116b5576040517f08c379a00000000000000000000000000000000000000000000000000000000081526004016116ac90612a18565b60405180910390fd5b5f83116116f7576040517f08c379a00000000000000000000000000000000000000000000000000000000081526004016116ee90612aa6565b60405180910390fd5b5f8211611739576040517f08c379a000000000000000000000000000000000000000000000000000000000815260040161173090612b34565b60405180910390fd5b838361174591906125ac565b8285611751919061272b565b61175b9190612799565b90509392505050565b5f8061176e61182d565b905061177b8185856118d9565b600191505092915050565b60065f9054906101000a900473ffffffffffffffffffffffffffffffffffffffff1681565b5f60015f8473ffffffffffffffffffffffffffffffffffffffff1673ffffffffffffffffffffffffffffffffffffffff1681526020019081526020015f205f8373ffffffffffffffffffffffffffffffffffffffff1673ffffffffffffffffffffffffffffffffffffffff1681526020019081526020015f2054905092915050565b5f33905090565b6118418383836001611b56565b505050565b5f61185184846117ab565b90507fffffffffffffffffffffffffffffffffffffffffffffffffffffffffffffffff8110156118d357818110156118c4578281836040517ffb8f41b20000000000000000000000000000000000000000000000000000000081526004016118bb93929190612b52565b60405180910390fd5b6118d284848484035f611b56565b5b50505050565b5f73ffffffffffffffffffffffffffffffffffffffff168373ffffffffffffffffffffffffffffffffffffffff1603611949575f6040517f96c6fd1e0000000000000000000000000000000000000000000000000000000081526004016119409190612527565b60405180910390fd5b5f73ffffffffffffffffffffffffffffffffffffffff168273ffffffffffffffffffffffffffffffffffffffff16036119b9575f6040517fec442f050000000000000000000000000000000000000000000000000000000081526004016119b09190612527565b60405180910390fd5b6119c4838383611d25565b505050565b5f73ffffffffffffffffffffffffffffffffffffffff168273ffffffffffffffffffffffffffffffffffffffff1603611a39575f6040517f96c6fd1e000000000000000000000000000000000000000000000000000000008152600401611a309190612527565b60405180910390fd5b611a44825f83611d25565b5050565b5f6003821115611aad578190505f6001600284611a659190612799565b611a6f91906125ac565b90505b81811015611aa7578091506002818285611a8c9190612799565b611a9691906125ac565b611aa09190612799565b9050611a72565b50611aba565b5f8214611ab957600190505b5b919050565b5f818310611acd5781611acf565b825b905092915050565b5f73ffffffffffffffffffffffffffffffffffffffff168273ffffffffffffffffffffffffffffffffffffffff1603611b47575f6040517fec442f05000000000000000000000000000000000000000000000000000000008152600401611b3e9190612527565b60405180910390fd5b611b525f8383611d25565b5050565b5f73ffffffffffffffffffffffffffffffffffffffff168473ffffffffffffffffffffffffffffffffffffffff1603611bc6575f6040517fe602df05000000000000000000000000000000000000000000000000000000008152600401611bbd9190612527565b60405180910390fd5b5f73ffffffffffffffffffffffffffffffffffffffff168373ffffffffffffffffffffffffffffffffffffffff1603611c36575f6040517f94280d62000000000000000000000000000000000000000000000000000000008152600401611c2d9190612527565b60405180910390fd5b8160015f8673ffffffffffffffffffffffffffffffffffffffff1673ffffffffffffffffffffffffffffffffffffffff1681526020019081526020015f205f8573ffffffffffffffffffffffffffffffffffffffff1673ffffffffffffffffffffffffffffffffffffffff1681526020019081526020015f20819055508015611d1f578273ffffffffffffffffffffffffffffffffffffffff168473ffffffffffffffffffffffffffffffffffffffff167f8c5be1e5ebec7d5bd14f71427d1e84f3dd0314c0f7b2291e5b200ac8c7c3b92584604051611d169190612153565b60405180910390a35b50505050565b5f73ffffffffffffffffffffffffffffffffffffffff168373ffffffffffffffffffffffffffffffffffffffff1603611d75578060025f828254611d6991906125ac565b92505081905550611e43565b5f805f8573ffffffffffffffffffffffffffffffffffffffff1673ffffffffffffffffffffffffffffffffffffffff1681526020019081526020015f2054905081811015611dfe578381836040517fe450d38c000000000000000000000000000000000000000000000000000000008152600401611df593929190612b52565b60405180910390fd5b8181035f808673ffffffffffffffffffffffffffffffffffffffff1673ffffffffffffffffffffffffffffffffffffffff1681526020019081526020015f2081905550505b5f73ffffffffffffffffffffffffffffffffffffffff168273ffffffffffffffffffffffffffffffffffffffff1603611e8a578060025f8282540392505081905550611ed4565b805f808473ffffffffffffffffffffffffffffffffffffffff1673ffffffffffffffffffffffffffffffffffffffff1681526020019081526020015f205f82825401925050819055505b8173ffffffffffffffffffffffffffffffffffffffff168373ffffffffffffffffffffffffffffffffffffffff167fddf252ad1be2c89b69c2b068fc378daa952ba7f163c4a11628f55a4df523b3ef83604051611f319190612153565b60405180910390a3505050565b5f81519050919050565b5f82825260208201905092915050565b8281835e5f83830152505050565b5f601f19601f8301169050919050565b5f611f8082611f3e565b611f8a8185611f48565b9350611f9a818560208601611f58565b611fa381611f66565b840191505092915050565b5f6020820190508181035f830152611fc68184611f76565b905092915050565b5f80fd5b5f73ffffffffffffffffffffffffffffffffffffffff82169050919050565b5f611ffb82611fd2565b9050919050565b61200b81611ff1565b8114612015575f80fd5b50565b5f8135905061202681612002565b92915050565b5f819050919050565b61203e8161202c565b8114612048575f80fd5b50565b5f8135905061205981612035565b92915050565b5f806040838503121561207557612074611fce565b5b5f61208285828601612018565b92505060206120938582860161204b565b9150509250929050565b5f8115159050919050565b6120b18161209d565b82525050565b5f6020820190506120ca5f8301846120a8565b92915050565b5f819050919050565b5f6120f36120ee6120e984611fd2565b6120d0565b611fd2565b9050919050565b5f612104826120d9565b9050919050565b5f612115826120fa565b9050919050565b6121258161210b565b82525050565b5f60208201905061213e5f83018461211c565b92915050565b61214d8161202c565b82525050565b5f6020820190506121665f830184612144565b92915050565b5f805f6060848603121561218357612182611fce565b5b5f61219086828701612018565b93505060206121a186828701612018565b92505060406121b28682870161204b565b9150509250925092565b5f60ff82169050919050565b6121d1816121bc565b82525050565b5f6020820190506121ea5f8301846121c8565b92915050565b5f6121fa82611ff1565b9050919050565b61220a816121f0565b8114612214575f80fd5b50565b5f8135905061222581612201565b92915050565b5f805f6060848603121561224257612241611fce565b5b5f61224f8682870161204b565b935050602061226086828701612217565b92505060406122718682870161204b565b9150509250925092565b5f60408201905061228e5f830185612144565b61229b602083018461211c565b9392505050565b5f602082840312156122b7576122b6611fce565b5b5f6122c484828501612018565b91505092915050565b5f602082840312156122e2576122e1611fce565b5b5f6122ef8482850161204b565b91505092915050565b5f60408201905061230b5f830185612144565b6123186020830184612144565b9392505050565b5f806040838503121561233557612334611fce565b5b5f6123428582860161204b565b92505060206123538582860161204b565b9150509250929050565b5f805f6060848603121561237457612373611fce565b5b5f6123818682870161204b565b93505060206123928682870161204b565b92505060406123a38682870161204b565b9150509250925092565b5f80604083850312156123c3576123c2611fce565b5b5f6123d085828601612018565b92505060206123e185828601612018565b9150509250929050565b7f4e487b71000000000000000000000000000000000000000000000000000000005f52602260045260245ffd5b5f600282049050600182168061242f57607f821691505b602082108103612442576124416123eb565b5b50919050565b7f737761703a20616d6f756e74496e206d75737420706f736974697665000000005f82015250565b5f61247c601c83611f48565b915061248782612448565b602082019050919050565b5f6020820190508181035f8301526124a981612470565b9050919050565b7f737761703a20746f6b656e496e206e6f7420737570706f7274656400000000005f82015250565b5f6124e4601b83611f48565b91506124ef826124b0565b602082019050919050565b5f6020820190508181035f830152612511816124d8565b9050919050565b61252181611ff1565b82525050565b5f60208201905061253a5f830184612518565b92915050565b5f8151905061254e81612035565b92915050565b5f6020828403121561256957612568611fce565b5b5f61257684828501612540565b91505092915050565b7f4e487b71000000000000000000000000000000000000000000000000000000005f52601160045260245ffd5b5f6125b68261202c565b91506125c18361202c565b92508282019050808211156125d9576125d861257f565b5b92915050565b5f6125e98261202c565b91506125f48361202c565b925082820390508181111561260c5761260b61257f565b5b92915050565b5f6060820190506126255f830186612518565b6126326020830185612518565b61263f6040830184612144565b949350505050565b6126508161209d565b811461265a575f80fd5b50565b5f8151905061266b81612647565b92915050565b5f6020828403121561268657612685611fce565b5b5f6126938482850161265d565b91505092915050565b5f6040820190506126af5f830185612518565b6126bc6020830184612144565b9392505050565b7f4c5020696e73756666696369656e7400000000000000000000000000000000005f82015250565b5f6126f7600f83611f48565b9150612702826126c3565b602082019050919050565b5f6020820190508181035f830152612724816126eb565b9050919050565b5f6127358261202c565b91506127408361202c565b925082820261274e8161202c565b915082820484148315176127655761276461257f565b5b5092915050565b7f4e487b71000000000000000000000000000000000000000000000000000000005f52601260045260245ffd5b5f6127a38261202c565b91506127ae8361202c565b9250826127be576127bd61276c565b5b828204905092915050565b5f6060820190506127dc5f830186612144565b6127e96020830185612144565b6127f66040830184612144565b949350505050565b7f6164644c69717569646974793a20746f6b656e30416d6f756e742063616e206e5f8201527f6f74207a65726f00000000000000000000000000000000000000000000000000602082015250565b5f612858602783611f48565b9150612863826127fe565b604082019050919050565b5f6020820190508181035f8301526128858161284c565b9050919050565b7f6164644c69717569646974793a20746f6b656e31416d6f756e742063616e206e5f8201527f6f74207a65726f00000000000000000000000000000000000000000000000000602082015250565b5f6128e6602783611f48565b91506128f18261288c565b604082019050919050565b5f6020820190508181035f830152612913816128da565b9050919050565b7f6164644c69717569646974793a20696e73756666696369656e74206c697175695f8201527f6469747900000000000000000000000000000000000000000000000000000000602082015250565b5f612974602483611f48565b915061297f8261291a565b604082019050919050565b5f6020820190508181035f8301526129a181612968565b9050919050565b7f63616c63756c617465537761704f7574416d6f756e743a20616d6f756e74496e5f8201527f206d75737420706f736974697665000000000000000000000000000000000000602082015250565b5f612a02602e83611f48565b9150612a0d826129a8565b604082019050919050565b5f6020820190508181035f830152612a2f816129f6565b9050919050565b7f63616c63756c617465537761704f7574416d6f756e743a2072657365727665495f8201527f6e206d75737420706f7369746976650000000000000000000000000000000000602082015250565b5f612a90602f83611f48565b9150612a9b82612a36565b604082019050919050565b5f6020820190508181035f830152612abd81612a84565b9050919050565b7f63616c63756c617465537761704f7574416d6f756e743a20726573657276654f5f8201527f7574206d75737420706f73697469766500000000000000000000000000000000602082015250565b5f612b1e603083611f48565b9150612b2982612ac4565b604082019050919050565b5f6020820190508181035f830152612b4b81612b12565b9050919050565b5f606082019050612b655f830186612518565b612b726020830185612144565b612b7f6040830184612144565b94935050505056fea264697066735822122099834e2f6f4e98d84376552bb880117154be87b6df8bea8a7c9080f7e75105e164736f6c634300081a0033",
					"opcodes": "PUSH1 0x80 PUSH1 0x40 MSTORE CALLVALUE DUP1 ISZERO PUSH2 0xF JUMPI PUSH0 DUP1 REVERT JUMPDEST POP PUSH1 0x40 MLOAD PUSH2 0x30C6 CODESIZE SUB DUP1 PUSH2 0x30C6 DUP4 CODECOPY DUP2 DUP2 ADD PUSH1 0x40 MSTORE DUP2 ADD SWAP1 PUSH2 0x31 SWAP2 SWAP1 PUSH2 0x1B5 JUMP JUMPDEST PUSH1 0x40 MLOAD DUP1 PUSH1 0x40 ADD PUSH1 0x40 MSTORE DUP1 PUSH1 0xA DUP2 MSTORE PUSH1 0x20 ADD PUSH32 0x53696D706C655377617000000000000000000000000000000000000000000000 DUP2 MSTORE POP PUSH1 0x40 MLOAD DUP1 PUSH1 0x40 ADD PUSH1 0x40 MSTORE DUP1 PUSH1 0x2 DUP2 MSTORE PUSH1 0x20 ADD PUSH32 0x5353000000000000000000000000000000000000000000000000000000000000 DUP2 MSTORE POP DUP2 PUSH1 0x3 SWAP1 DUP2 PUSH2 0xAC SWAP2 SWAP1 PUSH2 0x42D JUMP JUMPDEST POP DUP1 PUSH1 0x4 SWAP1 DUP2 PUSH2 0xBC SWAP2 SWAP1 PUSH2 0x42D JUMP JUMPDEST POP POP POP DUP2 PUSH1 0x5 PUSH0 PUSH2 0x100 EXP DUP2 SLOAD DUP2 PUSH20 0xFFFFFFFFFFFFFFFFFFFFFFFFFFFFFFFFFFFFFFFF MUL NOT AND SWAP1 DUP4 PUSH20 0xFFFFFFFFFFFFFFFFFFFFFFFFFFFFFFFFFFFFFFFF AND MUL OR SWAP1 SSTORE POP DUP1 PUSH1 0x6 PUSH0 PUSH2 0x100 EXP DUP2 SLOAD DUP2 PUSH20 0xFFFFFFFFFFFFFFFFFFFFFFFFFFFFFFFFFFFFFFFF MUL NOT AND SWAP1 DUP4 PUSH20 0xFFFFFFFFFFFFFFFFFFFFFFFFFFFFFFFFFFFFFFFF AND MUL OR SWAP1 SSTORE POP POP POP PUSH2 0x4FC JUMP JUMPDEST PUSH0 DUP1 REVERT JUMPDEST PUSH0 PUSH20 0xFFFFFFFFFFFFFFFFFFFFFFFFFFFFFFFFFFFFFFFF DUP3 AND SWAP1 POP SWAP2 SWAP1 POP JUMP JUMPDEST PUSH0 PUSH2 0x173 DUP3 PUSH2 0x14A JUMP JUMPDEST SWAP1 POP SWAP2 SWAP1 POP JUMP JUMPDEST PUSH0 PUSH2 0x184 DUP3 PUSH2 0x169 JUMP JUMPDEST SWAP1 POP SWAP2 SWAP1 POP JUMP JUMPDEST PUSH2 0x194 DUP2 PUSH2 0x17A JUMP JUMPDEST DUP2 EQ PUSH2 0x19E JUMPI PUSH0 DUP1 REVERT JUMPDEST POP JUMP JUMPDEST PUSH0 DUP2 MLOAD SWAP1 POP PUSH2 0x1AF DUP2 PUSH2 0x18B JUMP JUMPDEST SWAP3 SWAP2 POP POP JUMP JUMPDEST PUSH0 DUP1 PUSH1 0x40 DUP4 DUP6 SUB SLT ISZERO PUSH2 0x1CB JUMPI PUSH2 0x1CA PUSH2 0x146 JUMP JUMPDEST JUMPDEST PUSH0 PUSH2 0x1D8 DUP6 DUP3 DUP7 ADD PUSH2 0x1A1 JUMP JUMPDEST SWAP3 POP POP PUSH1 0x20 PUSH2 0x1E9 DUP6 DUP3 DUP7 ADD PUSH2 0x1A1 JUMP JUMPDEST SWAP2 POP POP SWAP3 POP SWAP3 SWAP1 POP JUMP JUMPDEST PUSH0 DUP2 MLOAD SWAP1 POP SWAP2 SWAP1 POP JUMP JUMPDEST PUSH32 0x4E487B7100000000000000000000000000000000000000000000000000000000 PUSH0 MSTORE PUSH1 0x41 PUSH1 0x4 MSTORE PUSH1 0x24 PUSH0 REVERT JUMPDEST PUSH32 0x4E487B7100000000000000000000000000000000000000000000000000000000 PUSH0 MSTORE PUSH1 0x22 PUSH1 0x4 MSTORE PUSH1 0x24 PUSH0 REVERT JUMPDEST PUSH0 PUSH1 0x2 DUP3 DIV SWAP1 POP PUSH1 0x1 DUP3 AND DUP1 PUSH2 0x26E JUMPI PUSH1 0x7F DUP3 AND SWAP2 POP JUMPDEST PUSH1 0x20 DUP3 LT DUP2 SUB PUSH2 0x281 JUMPI PUSH2 0x280 PUSH2 0x22A JUMP JUMPDEST JUMPDEST POP SWAP2 SWAP1 POP JUMP JUMPDEST PUSH0 DUP2 SWAP1 POP DUP2 PUSH0 MSTORE PUSH1 0x20 PUSH0 KECCAK256 SWAP1 POP SWAP2 SWAP1 POP JUMP JUMPDEST PUSH0 PUSH1 0x20 PUSH1 0x1F DUP4 ADD DIV SWAP1 POP SWAP2 SWAP1 POP JUMP JUMPDEST PUSH0 DUP3 DUP3 SHL SWAP1 POP SWAP3 SWAP2 POP POP JUMP JUMPDEST PUSH0 PUSH1 0x8 DUP4 MUL PUSH2 0x2E3 PUSH32 0xFFFFFFFFFFFFFFFFFFFFFFFFFFFFFFFFFFFFFFFFFFFFFFFFFFFFFFFFFFFFFFFF DUP3 PUSH2 0x2A8 JUMP JUMPDEST PUSH2 0x2ED DUP7 DUP4 PUSH2 0x2A8 JUMP JUMPDEST SWAP6 POP DUP1 NOT DUP5 AND SWAP4 POP DUP1 DUP7 AND DUP5 OR SWAP3 POP POP POP SWAP4 SWAP3 POP POP POP JUMP JUMPDEST PUSH0 DUP2 SWAP1 POP SWAP2 SWAP1 POP JUMP JUMPDEST PUSH0 DUP2 SWAP1 POP SWAP2 SWAP1 POP JUMP JUMPDEST PUSH0 PUSH2 0x331 PUSH2 0x32C PUSH2 0x327 DUP5 PUSH2 0x305 JUMP JUMPDEST PUSH2 0x30E JUMP JUMPDEST PUSH2 0x305 JUMP JUMPDEST SWAP1 POP SWAP2 SWAP1 POP JUMP JUMPDEST PUSH0 DUP2 SWAP1 POP SWAP2 SWAP1 POP JUMP JUMPDEST PUSH2 0x34A DUP4 PUSH2 0x317 JUMP JUMPDEST PUSH2 0x35E PUSH2 0x356 DUP3 PUSH2 0x338 JUMP JUMPDEST DUP5 DUP5 SLOAD PUSH2 0x2B4 JUMP JUMPDEST DUP3 SSTORE POP POP POP POP JUMP JUMPDEST PUSH0 SWAP1 JUMP JUMPDEST PUSH2 0x372 PUSH2 0x366 JUMP JUMPDEST PUSH2 0x37D DUP2 DUP5 DUP5 PUSH2 0x341 JUMP JUMPDEST POP POP POP JUMP JUMPDEST JUMPDEST DUP2 DUP2 LT ISZERO PUSH2 0x3A0 JUMPI PUSH2 0x395 PUSH0 DUP3 PUSH2 0x36A JUMP JUMPDEST PUSH1 0x1 DUP2 ADD SWAP1 POP PUSH2 0x383 JUMP JUMPDEST POP POP JUMP JUMPDEST PUSH1 0x1F DUP3 GT ISZERO PUSH2 0x3E5 JUMPI PUSH2 0x3B6 DUP2 PUSH2 0x287 JUMP JUMPDEST PUSH2 0x3BF DUP5 PUSH2 0x299 JUMP JUMPDEST DUP2 ADD PUSH1 0x20 DUP6 LT ISZERO PUSH2 0x3CE JUMPI DUP2 SWAP1 POP JUMPDEST PUSH2 0x3E2 PUSH2 0x3DA DUP6 PUSH2 0x299 JUMP JUMPDEST DUP4 ADD DUP3 PUSH2 0x382 JUMP JUMPDEST POP POP JUMPDEST POP POP POP JUMP JUMPDEST PUSH0 DUP3 DUP3 SHR SWAP1 POP SWAP3 SWAP2 POP POP JUMP JUMPDEST PUSH0 PUSH2 0x405 PUSH0 NOT DUP5 PUSH1 0x8 MUL PUSH2 0x3EA JUMP JUMPDEST NOT DUP1 DUP4 AND SWAP2 POP POP SWAP3 SWAP2 POP POP JUMP JUMPDEST PUSH0 PUSH2 0x41D DUP4 DUP4 PUSH2 0x3F6 JUMP JUMPDEST SWAP2 POP DUP3 PUSH1 0x2 MUL DUP3 OR SWAP1 POP SWAP3 SWAP2 POP POP JUMP JUMPDEST PUSH2 0x436 DUP3 PUSH2 0x1F3 JUMP JUMPDEST PUSH8 0xFFFFFFFFFFFFFFFF DUP2 GT ISZERO PUSH2 0x44F JUMPI PUSH2 0x44E PUSH2 0x1FD JUMP JUMPDEST JUMPDEST PUSH2 0x459 DUP3 SLOAD PUSH2 0x257 JUMP JUMPDEST PUSH2 0x464 DUP3 DUP3 DUP6 PUSH2 0x3A4 JUMP JUMPDEST PUSH0 PUSH1 0x20 SWAP1 POP PUSH1 0x1F DUP4 GT PUSH1 0x1 DUP2 EQ PUSH2 0x495 JUMPI PUSH0 DUP5 ISZERO PUSH2 0x483 JUMPI DUP3 DUP8 ADD MLOAD SWAP1 POP JUMPDEST PUSH2 0x48D DUP6 DUP3 PUSH2 0x412 JUMP JUMPDEST DUP7 SSTORE POP PUSH2 0x4F4 JUMP JUMPDEST PUSH1 0x1F NOT DUP5 AND PUSH2 0x4A3 DUP7 PUSH2 0x287 JUMP JUMPDEST PUSH0 JUMPDEST DUP3 DUP2 LT ISZERO PUSH2 0x4CA JUMPI DUP5 DUP10 ADD MLOAD DUP3 SSTORE PUSH1 0x1 DUP3 ADD SWAP2 POP PUSH1 0x20 DUP6 ADD SWAP5 POP PUSH1 0x20 DUP2 ADD SWAP1 POP PUSH2 0x4A5 JUMP JUMPDEST DUP7 DUP4 LT ISZERO PUSH2 0x4E7 JUMPI DUP5 DUP10 ADD MLOAD PUSH2 0x4E3 PUSH1 0x1F DUP10 AND DUP3 PUSH2 0x3F6 JUMP JUMPDEST DUP4 SSTORE POP JUMPDEST PUSH1 0x1 PUSH1 0x2 DUP9 MUL ADD DUP9 SSTORE POP POP POP JUMPDEST POP POP POP POP POP POP JUMP JUMPDEST PUSH2 0x2BBD DUP1 PUSH2 0x509 PUSH0 CODECOPY PUSH0 RETURN INVALID PUSH1 0x80 PUSH1 0x40 MSTORE CALLVALUE DUP1 ISZERO PUSH2 0xF JUMPI PUSH0 DUP1 REVERT JUMPDEST POP PUSH1 0x4 CALLDATASIZE LT PUSH2 0x109 JUMPI PUSH0 CALLDATALOAD PUSH1 0xE0 SHR DUP1 PUSH4 0x5A76F25E GT PUSH2 0xA0 JUMPI DUP1 PUSH4 0x9CD441DA GT PUSH2 0x6F JUMPI DUP1 PUSH4 0x9CD441DA EQ PUSH2 0x2D1 JUMPI DUP1 PUSH4 0xA3919E42 EQ PUSH2 0x301 JUMPI DUP1 PUSH4 0xA9059CBB EQ PUSH2 0x331 JUMPI DUP1 PUSH4 0xD21220A7 EQ PUSH2 0x361 JUMPI DUP1 PUSH4 0xDD62ED3E EQ PUSH2 0x37F JUMPI PUSH2 0x109 JUMP JUMPDEST DUP1 PUSH4 0x5A76F25E EQ PUSH2 0x234 JUMPI DUP1 PUSH4 0x70A08231 EQ PUSH2 0x252 JUMPI DUP1 PUSH4 0x95D89B41 EQ PUSH2 0x282 JUMPI DUP1 PUSH4 0x9C8F9F23 EQ PUSH2 0x2A0 JUMPI PUSH2 0x109 JUMP JUMPDEST DUP1 PUSH4 0x23B872DD GT PUSH2 0xDC JUMPI DUP1 PUSH4 0x23B872DD EQ PUSH2 0x197 JUMPI DUP1 PUSH4 0x313CE567 EQ PUSH2 0x1C7 JUMPI DUP1 PUSH4 0x43264349 EQ PUSH2 0x1E5 JUMPI DUP1 PUSH4 0x443CB4BC EQ PUSH2 0x216 JUMPI PUSH2 0x109 JUMP JUMPDEST DUP1 PUSH4 0x6FDDE03 EQ PUSH2 0x10D JUMPI DUP1 PUSH4 0x95EA7B3 EQ PUSH2 0x12B JUMPI DUP1 PUSH4 0xDFE1681 EQ PUSH2 0x15B JUMPI DUP1 PUSH4 0x18160DDD EQ PUSH2 0x179 JUMPI JUMPDEST PUSH0 DUP1 REVERT JUMPDEST PUSH2 0x115 PUSH2 0x3AF JUMP JUMPDEST PUSH1 0x40 MLOAD PUSH2 0x122 SWAP2 SWAP1 PUSH2 0x1FAE JUMP JUMPDEST PUSH1 0x40 MLOAD DUP1 SWAP2 SUB SWAP1 RETURN JUMPDEST PUSH2 0x145 PUSH1 0x4 DUP1 CALLDATASIZE SUB DUP2 ADD SWAP1 PUSH2 0x140 SWAP2 SWAP1 PUSH2 0x205F JUMP JUMPDEST PUSH2 0x43F JUMP JUMPDEST PUSH1 0x40 MLOAD PUSH2 0x152 SWAP2 SWAP1 PUSH2 0x20B7 JUMP JUMPDEST PUSH1 0x40 MLOAD DUP1 SWAP2 SUB SWAP1 RETURN JUMPDEST PUSH2 0x163 PUSH2 0x461 JUMP JUMPDEST PUSH1 0x40 MLOAD PUSH2 0x170 SWAP2 SWAP1 PUSH2 0x212B JUMP JUMPDEST PUSH1 0x40 MLOAD DUP1 SWAP2 SUB SWAP1 RETURN JUMPDEST PUSH2 0x181 PUSH2 0x486 JUMP JUMPDEST PUSH1 0x40 MLOAD PUSH2 0x18E SWAP2 SWAP1 PUSH2 0x2153 JUMP JUMPDEST PUSH1 0x40 MLOAD DUP1 SWAP2 SUB SWAP1 RETURN JUMPDEST PUSH2 0x1B1 PUSH1 0x4 DUP1 CALLDATASIZE SUB DUP2 ADD SWAP1 PUSH2 0x1AC SWAP2 SWAP1 PUSH2 0x216C JUMP JUMPDEST PUSH2 0x48F JUMP JUMPDEST PUSH1 0x40 MLOAD PUSH2 0x1BE SWAP2 SWAP1 PUSH2 0x20B7 JUMP JUMPDEST PUSH1 0x40 MLOAD DUP1 SWAP2 SUB SWAP1 RETURN JUMPDEST PUSH2 0x1CF PUSH2 0x4BD JUMP JUMPDEST PUSH1 0x40 MLOAD PUSH2 0x1DC SWAP2 SWAP1 PUSH2 0x21D7 JUMP JUMPDEST PUSH1 0x40 MLOAD DUP1 SWAP2 SUB SWAP1 RETURN JUMPDEST PUSH2 0x1FF PUSH1 0x4 DUP1 CALLDATASIZE SUB DUP2 ADD SWAP1 PUSH2 0x1FA SWAP2 SWAP1 PUSH2 0x222B JUMP JUMPDEST PUSH2 0x4C5 JUMP JUMPDEST PUSH1 0x40 MLOAD PUSH2 0x20D SWAP3 SWAP2 SWAP1 PUSH2 0x227B JUMP JUMPDEST PUSH1 0x40 MLOAD DUP1 SWAP2 SUB SWAP1 RETURN JUMPDEST PUSH2 0x21E PUSH2 0xDE8 JUMP JUMPDEST PUSH1 0x40 MLOAD PUSH2 0x22B SWAP2 SWAP1 PUSH2 0x2153 JUMP JUMPDEST PUSH1 0x40 MLOAD DUP1 SWAP2 SUB SWAP1 RETURN JUMPDEST PUSH2 0x23C PUSH2 0xDEE JUMP JUMPDEST PUSH1 0x40 MLOAD PUSH2 0x249 SWAP2 SWAP1 PUSH2 0x2153 JUMP JUMPDEST PUSH1 0x40 MLOAD DUP1 SWAP2 SUB SWAP1 RETURN JUMPDEST PUSH2 0x26C PUSH1 0x4 DUP1 CALLDATASIZE SUB DUP2 ADD SWAP1 PUSH2 0x267 SWAP2 SWAP1 PUSH2 0x22A2 JUMP JUMPDEST PUSH2 0xDF4 JUMP JUMPDEST PUSH1 0x40 MLOAD PUSH2 0x279 SWAP2 SWAP1 PUSH2 0x2153 JUMP JUMPDEST PUSH1 0x40 MLOAD DUP1 SWAP2 SUB SWAP1 RETURN JUMPDEST PUSH2 0x28A PUSH2 0xE39 JUMP JUMPDEST PUSH1 0x40 MLOAD PUSH2 0x297 SWAP2 SWAP1 PUSH2 0x1FAE JUMP JUMPDEST PUSH1 0x40 MLOAD DUP1 SWAP2 SUB SWAP1 RETURN JUMPDEST PUSH2 0x2BA PUSH1 0x4 DUP1 CALLDATASIZE SUB DUP2 ADD SWAP1 PUSH2 0x2B5 SWAP2 SWAP1 PUSH2 0x22CD JUMP JUMPDEST PUSH2 0xEC9 JUMP JUMPDEST PUSH1 0x40 MLOAD PUSH2 0x2C8 SWAP3 SWAP2 SWAP1 PUSH2 0x22F8 JUMP JUMPDEST PUSH1 0x40 MLOAD DUP1 SWAP2 SUB SWAP1 RETURN JUMPDEST PUSH2 0x2EB PUSH1 0x4 DUP1 CALLDATASIZE SUB DUP2 ADD SWAP1 PUSH2 0x2E6 SWAP2 SWAP1 PUSH2 0x231F JUMP JUMPDEST PUSH2 0x124C JUMP JUMPDEST PUSH1 0x40 MLOAD PUSH2 0x2F8 SWAP2 SWAP1 PUSH2 0x2153 JUMP JUMPDEST PUSH1 0x40 MLOAD DUP1 SWAP2 SUB SWAP1 RETURN JUMPDEST PUSH2 0x31B PUSH1 0x4 DUP1 CALLDATASIZE SUB DUP2 ADD SWAP1 PUSH2 0x316 SWAP2 SWAP1 PUSH2 0x235D JUMP JUMPDEST PUSH2 0x1672 JUMP JUMPDEST PUSH1 0x40 MLOAD PUSH2 0x328 SWAP2 SWAP1 PUSH2 0x2153 JUMP JUMPDEST PUSH1 0x40 MLOAD DUP1 SWAP2 SUB SWAP1 RETURN JUMPDEST PUSH2 0x34B PUSH1 0x4 DUP1 CALLDATASIZE SUB DUP2 ADD SWAP1 PUSH2 0x346 SWAP2 SWAP1 PUSH2 0x205F JUMP JUMPDEST PUSH2 0x1764 JUMP JUMPDEST PUSH1 0x40 MLOAD PUSH2 0x358 SWAP2 SWAP1 PUSH2 0x20B7 JUMP JUMPDEST PUSH1 0x40 MLOAD DUP1 SWAP2 SUB SWAP1 RETURN JUMPDEST PUSH2 0x369 PUSH2 0x1786 JUMP JUMPDEST PUSH1 0x40 MLOAD PUSH2 0x376 SWAP2 SWAP1 PUSH2 0x212B JUMP JUMPDEST PUSH1 0x40 MLOAD DUP1 SWAP2 SUB SWAP1 RETURN JUMPDEST PUSH2 0x399 PUSH1 0x4 DUP1 CALLDATASIZE SUB DUP2 ADD SWAP1 PUSH2 0x394 SWAP2 SWAP1 PUSH2 0x23AD JUMP JUMPDEST PUSH2 0x17AB JUMP JUMPDEST PUSH1 0x40 MLOAD PUSH2 0x3A6 SWAP2 SWAP1 PUSH2 0x2153 JUMP JUMPDEST PUSH1 0x40 MLOAD DUP1 SWAP2 SUB SWAP1 RETURN JUMPDEST PUSH1 0x60 PUSH1 0x3 DUP1 SLOAD PUSH2 0x3BE SWAP1 PUSH2 0x2418 JUMP JUMPDEST DUP1 PUSH1 0x1F ADD PUSH1 0x20 DUP1 SWAP2 DIV MUL PUSH1 0x20 ADD PUSH1 0x40 MLOAD SWAP1 DUP2 ADD PUSH1 0x40 MSTORE DUP1 SWAP3 SWAP2 SWAP1 DUP2 DUP2 MSTORE PUSH1 0x20 ADD DUP3 DUP1 SLOAD PUSH2 0x3EA SWAP1 PUSH2 0x2418 JUMP JUMPDEST DUP1 ISZERO PUSH2 0x435 JUMPI DUP1 PUSH1 0x1F LT PUSH2 0x40C JUMPI PUSH2 0x100 DUP1 DUP4 SLOAD DIV MUL DUP4 MSTORE SWAP2 PUSH1 0x20 ADD SWAP2 PUSH2 0x435 JUMP JUMPDEST DUP3 ADD SWAP2 SWAP1 PUSH0 MSTORE PUSH1 0x20 PUSH0 KECCAK256 SWAP1 JUMPDEST DUP2 SLOAD DUP2 MSTORE SWAP1 PUSH1 0x1 ADD SWAP1 PUSH1 0x20 ADD DUP1 DUP4 GT PUSH2 0x418 JUMPI DUP3 SWAP1 SUB PUSH1 0x1F AND DUP3 ADD SWAP2 JUMPDEST POP POP POP POP POP SWAP1 POP SWAP1 JUMP JUMPDEST PUSH0 DUP1 PUSH2 0x449 PUSH2 0x182D JUMP JUMPDEST SWAP1 POP PUSH2 0x456 DUP2 DUP6 DUP6 PUSH2 0x1834 JUMP JUMPDEST PUSH1 0x1 SWAP2 POP POP SWAP3 SWAP2 POP POP JUMP JUMPDEST PUSH1 0x5 PUSH0 SWAP1 SLOAD SWAP1 PUSH2 0x100 EXP SWAP1 DIV PUSH20 0xFFFFFFFFFFFFFFFFFFFFFFFFFFFFFFFFFFFFFFFF AND DUP2 JUMP JUMPDEST PUSH0 PUSH1 0x2 SLOAD SWAP1 POP SWAP1 JUMP JUMPDEST PUSH0 DUP1 PUSH2 0x499 PUSH2 0x182D JUMP JUMPDEST SWAP1 POP PUSH2 0x4A6 DUP6 DUP3 DUP6 PUSH2 0x1846 JUMP JUMPDEST PUSH2 0x4B1 DUP6 DUP6 DUP6 PUSH2 0x18D9 JUMP JUMPDEST PUSH1 0x1 SWAP2 POP POP SWAP4 SWAP3 POP POP POP JUMP JUMPDEST PUSH0 PUSH1 0x12 SWAP1 POP SWAP1 JUMP JUMPDEST PUSH0 DUP1 PUSH0 DUP6 GT PUSH2 0x509 JUMPI PUSH1 0x40 MLOAD PUSH32 0x8C379A000000000000000000000000000000000000000000000000000000000 DUP2 MSTORE PUSH1 0x4 ADD PUSH2 0x500 SWAP1 PUSH2 0x2492 JUMP JUMPDEST PUSH1 0x40 MLOAD DUP1 SWAP2 SUB SWAP1 REVERT JUMPDEST PUSH1 0x5 PUSH0 SWAP1 SLOAD SWAP1 PUSH2 0x100 EXP SWAP1 DIV PUSH20 0xFFFFFFFFFFFFFFFFFFFFFFFFFFFFFFFFFFFFFFFF AND PUSH20 0xFFFFFFFFFFFFFFFFFFFFFFFFFFFFFFFFFFFFFFFF AND DUP5 PUSH20 0xFFFFFFFFFFFFFFFFFFFFFFFFFFFFFFFFFFFFFFFF AND EQ DUP1 PUSH2 0x5B0 JUMPI POP PUSH1 0x6 PUSH0 SWAP1 SLOAD SWAP1 PUSH2 0x100 EXP SWAP1 DIV PUSH20 0xFFFFFFFFFFFFFFFFFFFFFFFFFFFFFFFFFFFFFFFF AND PUSH20 0xFFFFFFFFFFFFFFFFFFFFFFFFFFFFFFFFFFFFFFFF AND DUP5 PUSH20 0xFFFFFFFFFFFFFFFFFFFFFFFFFFFFFFFFFFFFFFFF AND EQ JUMPDEST PUSH2 0x5EF JUMPI PUSH1 0x40 MLOAD PUSH32 0x8C379A000000000000000000000000000000000000000000000000000000000 DUP2 MSTORE PUSH1 0x4 ADD PUSH2 0x5E6 SWAP1 PUSH2 0x24FA JUMP JUMPDEST PUSH1 0x40 MLOAD DUP1 SWAP2 SUB SWAP1 REVERT JUMPDEST PUSH0 PUSH1 0x5 PUSH0 SWAP1 SLOAD SWAP1 PUSH2 0x100 EXP SWAP1 DIV PUSH20 0xFFFFFFFFFFFFFFFFFFFFFFFFFFFFFFFFFFFFFFFF AND PUSH20 0xFFFFFFFFFFFFFFFFFFFFFFFFFFFFFFFFFFFFFFFF AND PUSH4 0x70A08231 ADDRESS PUSH1 0x40 MLOAD DUP3 PUSH4 0xFFFFFFFF AND PUSH1 0xE0 SHL DUP2 MSTORE PUSH1 0x4 ADD PUSH2 0x64A SWAP2 SWAP1 PUSH2 0x2527 JUMP JUMPDEST PUSH1 0x20 PUSH1 0x40 MLOAD DUP1 DUP4 SUB DUP2 DUP7 GAS STATICCALL ISZERO DUP1 ISZERO PUSH2 0x665 JUMPI RETURNDATASIZE PUSH0 DUP1 RETURNDATACOPY RETURNDATASIZE PUSH0 REVERT JUMPDEST POP POP POP POP PUSH1 0x40 MLOAD RETURNDATASIZE PUSH1 0x1F NOT PUSH1 0x1F DUP3 ADD AND DUP3 ADD DUP1 PUSH1 0x40 MSTORE POP DUP2 ADD SWAP1 PUSH2 0x689 SWAP2 SWAP1 PUSH2 0x2554 JUMP JUMPDEST SWAP1 POP PUSH0 PUSH1 0x6 PUSH0 SWAP1 SLOAD SWAP1 PUSH2 0x100 EXP SWAP1 DIV PUSH20 0xFFFFFFFFFFFFFFFFFFFFFFFFFFFFFFFFFFFFFFFF AND PUSH20 0xFFFFFFFFFFFFFFFFFFFFFFFFFFFFFFFFFFFFFFFF AND PUSH4 0x70A08231 ADDRESS PUSH1 0x40 MLOAD DUP3 PUSH4 0xFFFFFFFF AND PUSH1 0xE0 SHL DUP2 MSTORE PUSH1 0x4 ADD PUSH2 0x6E6 SWAP2 SWAP1 PUSH2 0x2527 JUMP JUMPDEST PUSH1 0x20 PUSH1 0x40 MLOAD DUP1 DUP4 SUB DUP2 DUP7 GAS STATICCALL ISZERO DUP1 ISZERO PUSH2 0x701 JUMPI RETURNDATASIZE PUSH0 DUP1 RETURNDATACOPY RETURNDATASIZE PUSH0 REVERT JUMPDEST POP POP POP POP PUSH1 0x40 MLOAD RETURNDATASIZE PUSH1 0x1F NOT PUSH1 0x1F DUP3 ADD AND DUP3 ADD DUP1 PUSH1 0x40 MSTORE POP DUP2 ADD SWAP1 PUSH2 0x725 SWAP2 SWAP1 PUSH2 0x2554 JUMP JUMPDEST SWAP1 POP PUSH1 0x5 PUSH0 SWAP1 SLOAD SWAP1 PUSH2 0x100 EXP SWAP1 DIV PUSH20 0xFFFFFFFFFFFFFFFFFFFFFFFFFFFFFFFFFFFFFFFF AND PUSH20 0xFFFFFFFFFFFFFFFFFFFFFFFFFFFFFFFFFFFFFFFF AND DUP7 PUSH20 0xFFFFFFFFFFFFFFFFFFFFFFFFFFFFFFFFFFFFFFFF AND SUB PUSH2 0xA7B JUMPI PUSH2 0x786 DUP8 DUP4 DUP4 PUSH2 0x1672 JUMP JUMPDEST SWAP4 POP PUSH1 0x6 PUSH0 SWAP1 SLOAD SWAP1 PUSH2 0x100 EXP SWAP1 DIV PUSH20 0xFFFFFFFFFFFFFFFFFFFFFFFFFFFFFFFFFFFFFFFF AND SWAP3 POP DUP5 DUP5 LT ISZERO PUSH2 0x7E6 JUMPI PUSH1 0x40 MLOAD PUSH32 0xCF3BA9FC00000000000000000000000000000000000000000000000000000000 DUP2 MSTORE PUSH1 0x4 ADD PUSH1 0x40 MLOAD DUP1 SWAP2 SUB SWAP1 REVERT JUMPDEST DUP7 PUSH1 0x5 PUSH0 SWAP1 SLOAD SWAP1 PUSH2 0x100 EXP SWAP1 DIV PUSH20 0xFFFFFFFFFFFFFFFFFFFFFFFFFFFFFFFFFFFFFFFF AND PUSH20 0xFFFFFFFFFFFFFFFFFFFFFFFFFFFFFFFFFFFFFFFF AND PUSH4 0x70A08231 ADDRESS PUSH1 0x40 MLOAD DUP3 PUSH4 0xFFFFFFFF AND PUSH1 0xE0 SHL DUP2 MSTORE PUSH1 0x4 ADD PUSH2 0x841 SWAP2 SWAP1 PUSH2 0x2527 JUMP JUMPDEST PUSH1 0x20 PUSH1 0x40 MLOAD DUP1 DUP4 SUB DUP2 DUP7 GAS STATICCALL ISZERO DUP1 ISZERO PUSH2 0x85C JUMPI RETURNDATASIZE PUSH0 DUP1 RETURNDATACOPY RETURNDATASIZE PUSH0 REVERT JUMPDEST POP POP POP POP PUSH1 0x40 MLOAD RETURNDATASIZE PUSH1 0x1F NOT PUSH1 0x1F DUP3 ADD AND DUP3 ADD DUP1 PUSH1 0x40 MSTORE POP DUP2 ADD SWAP1 PUSH2 0x880 SWAP2 SWAP1 PUSH2 0x2554 JUMP JUMPDEST PUSH2 0x88A SWAP2 SWAP1 PUSH2 0x25AC JUMP JUMPDEST PUSH1 0x7 DUP2 SWAP1 SSTORE POP DUP4 PUSH1 0x6 PUSH0 SWAP1 SLOAD SWAP1 PUSH2 0x100 EXP SWAP1 DIV PUSH20 0xFFFFFFFFFFFFFFFFFFFFFFFFFFFFFFFFFFFFFFFF AND PUSH20 0xFFFFFFFFFFFFFFFFFFFFFFFFFFFFFFFFFFFFFFFF AND PUSH4 0x70A08231 ADDRESS PUSH1 0x40 MLOAD DUP3 PUSH4 0xFFFFFFFF AND PUSH1 0xE0 SHL DUP2 MSTORE PUSH1 0x4 ADD PUSH2 0x8EB SWAP2 SWAP1 PUSH2 0x2527 JUMP JUMPDEST PUSH1 0x20 PUSH1 0x40 MLOAD DUP1 DUP4 SUB DUP2 DUP7 GAS STATICCALL ISZERO DUP1 ISZERO PUSH2 0x906 JUMPI RETURNDATASIZE PUSH0 DUP1 RETURNDATACOPY RETURNDATASIZE PUSH0 REVERT JUMPDEST POP POP POP POP PUSH1 0x40 MLOAD RETURNDATASIZE PUSH1 0x1F NOT PUSH1 0x1F DUP3 ADD AND DUP3 ADD DUP1 PUSH1 0x40 MSTORE POP DUP2 ADD SWAP1 PUSH2 0x92A SWAP2 SWAP1 PUSH2 0x2554 JUMP JUMPDEST PUSH2 0x934 SWAP2 SWAP1 PUSH2 0x25DF JUMP JUMPDEST PUSH1 0x8 DUP2 SWAP1 SSTORE POP PUSH1 0x5 PUSH0 SWAP1 SLOAD SWAP1 PUSH2 0x100 EXP SWAP1 DIV PUSH20 0xFFFFFFFFFFFFFFFFFFFFFFFFFFFFFFFFFFFFFFFF AND PUSH20 0xFFFFFFFFFFFFFFFFFFFFFFFFFFFFFFFFFFFFFFFF AND PUSH4 0x23B872DD CALLER ADDRESS DUP11 PUSH1 0x40 MLOAD DUP5 PUSH4 0xFFFFFFFF AND PUSH1 0xE0 SHL DUP2 MSTORE PUSH1 0x4 ADD PUSH2 0x998 SWAP4 SWAP3 SWAP2 SWAP1 PUSH2 0x2612 JUMP JUMPDEST PUSH1 0x20 PUSH1 0x40 MLOAD DUP1 DUP4 SUB DUP2 PUSH0 DUP8 GAS CALL ISZERO DUP1 ISZERO PUSH2 0x9B4 JUMPI RETURNDATASIZE PUSH0 DUP1 RETURNDATACOPY RETURNDATASIZE PUSH0 REVERT JUMPDEST POP POP POP POP PUSH1 0x40 MLOAD RETURNDATASIZE PUSH1 0x1F NOT PUSH1 0x1F DUP3 ADD AND DUP3 ADD DUP1 PUSH1 0x40 MSTORE POP DUP2 ADD SWAP1 PUSH2 0x9D8 SWAP2 SWAP1 PUSH2 0x2671 JUMP JUMPDEST POP PUSH1 0x6 PUSH0 SWAP1 SLOAD SWAP1 PUSH2 0x100 EXP SWAP1 DIV PUSH20 0xFFFFFFFFFFFFFFFFFFFFFFFFFFFFFFFFFFFFFFFF AND PUSH20 0xFFFFFFFFFFFFFFFFFFFFFFFFFFFFFFFFFFFFFFFF AND PUSH4 0xA9059CBB CALLER DUP7 PUSH1 0x40 MLOAD DUP4 PUSH4 0xFFFFFFFF AND PUSH1 0xE0 SHL DUP2 MSTORE PUSH1 0x4 ADD PUSH2 0xA35 SWAP3 SWAP2 SWAP1 PUSH2 0x269C JUMP JUMPDEST PUSH1 0x20 PUSH1 0x40 MLOAD DUP1 DUP4 SUB DUP2 PUSH0 DUP8 GAS CALL ISZERO DUP1 ISZERO PUSH2 0xA51 JUMPI RETURNDATASIZE PUSH0 DUP1 RETURNDATACOPY RETURNDATASIZE PUSH0 REVERT JUMPDEST POP POP POP POP PUSH1 0x40 MLOAD RETURNDATASIZE PUSH1 0x1F NOT PUSH1 0x1F DUP3 ADD AND DUP3 ADD DUP1 PUSH1 0x40 MSTORE POP DUP2 ADD SWAP1 PUSH2 0xA75 SWAP2 SWAP1 PUSH2 0x2671 JUMP JUMPDEST POP PUSH2 0xD77 JUMP JUMPDEST PUSH2 0xA86 DUP8 DUP3 DUP5 PUSH2 0x1672 JUMP JUMPDEST SWAP4 POP PUSH1 0x5 PUSH0 SWAP1 SLOAD SWAP1 PUSH2 0x100 EXP SWAP1 DIV PUSH20 0xFFFFFFFFFFFFFFFFFFFFFFFFFFFFFFFFFFFFFFFF AND SWAP3 POP DUP5 DUP5 LT ISZERO PUSH2 0xAE6 JUMPI PUSH1 0x40 MLOAD PUSH32 0xCF3BA9FC00000000000000000000000000000000000000000000000000000000 DUP2 MSTORE PUSH1 0x4 ADD PUSH1 0x40 MLOAD DUP1 SWAP2 SUB SWAP1 REVERT JUMPDEST DUP7 PUSH1 0x6 PUSH0 SWAP1 SLOAD SWAP1 PUSH2 0x100 EXP SWAP1 DIV PUSH20 0xFFFFFFFFFFFFFFFFFFFFFFFFFFFFFFFFFFFFFFFF AND PUSH20 0xFFFFFFFFFFFFFFFFFFFFFFFFFFFFFFFFFFFFFFFF AND PUSH4 0x70A08231 ADDRESS PUSH1 0x40 MLOAD DUP3 PUSH4 0xFFFFFFFF AND PUSH1 0xE0 SHL DUP2 MSTORE PUSH1 0x4 ADD PUSH2 0xB41 SWAP2 SWAP1 PUSH2 0x2527 JUMP JUMPDEST PUSH1 0x20 PUSH1 0x40 MLOAD DUP1 DUP4 SUB DUP2 DUP7 GAS STATICCALL ISZERO DUP1 ISZERO PUSH2 0xB5C JUMPI RETURNDATASIZE PUSH0 DUP1 RETURNDATACOPY RETURNDATASIZE PUSH0 REVERT JUMPDEST POP POP POP POP PUSH1 0x40 MLOAD RETURNDATASIZE PUSH1 0x1F NOT PUSH1 0x1F DUP3 ADD AND DUP3 ADD DUP1 PUSH1 0x40 MSTORE POP DUP2 ADD SWAP1 PUSH2 0xB80 SWAP2 SWAP1 PUSH2 0x2554 JUMP JUMPDEST PUSH2 0xB8A SWAP2 SWAP1 PUSH2 0x25AC JUMP JUMPDEST PUSH1 0x8 DUP2 SWAP1 SSTORE POP DUP4 PUSH1 0x5 PUSH0 SWAP1 SLOAD SWAP1 PUSH2 0x100 EXP SWAP1 DIV PUSH20 0xFFFFFFFFFFFFFFFFFFFFFFFFFFFFFFFFFFFFFFFF AND PUSH20 0xFFFFFFFFFFFFFFFFFFFFFFFFFFFFFFFFFFFFFFFF AND PUSH4 0x70A08231 ADDRESS PUSH1 0x40 MLOAD DUP3 PUSH4 0xFFFFFFFF AND PUSH1 0xE0 SHL DUP2 MSTORE PUSH1 0x4 ADD PUSH2 0xBEB SWAP2 SWAP1 PUSH2 0x2527 JUMP JUMPDEST PUSH1 0x20 PUSH1 0x40 MLOAD DUP1 DUP4 SUB DUP2 DUP7 GAS STATICCALL ISZERO DUP1 ISZERO PUSH2 0xC06 JUMPI RETURNDATASIZE PUSH0 DUP1 RETURNDATACOPY RETURNDATASIZE PUSH0 REVERT JUMPDEST POP POP POP POP PUSH1 0x40 MLOAD RETURNDATASIZE PUSH1 0x1F NOT PUSH1 0x1F DUP3 ADD AND DUP3 ADD DUP1 PUSH1 0x40 MSTORE POP DUP2 ADD SWAP1 PUSH2 0xC2A SWAP2 SWAP1 PUSH2 0x2554 JUMP JUMPDEST PUSH2 0xC34 SWAP2 SWAP1 PUSH2 0x25DF JUMP JUMPDEST PUSH1 0x7 DUP2 SWAP1 SSTORE POP PUSH1 0x6 PUSH0 SWAP1 SLOAD SWAP1 PUSH2 0x100 EXP SWAP1 DIV PUSH20 0xFFFFFFFFFFFFFFFFFFFFFFFFFFFFFFFFFFFFFFFF AND PUSH20 0xFFFFFFFFFFFFFFFFFFFFFFFFFFFFFFFFFFFFFFFF AND PUSH4 0x23B872DD CALLER ADDRESS DUP11 PUSH1 0x40 MLOAD DUP5 PUSH4 0xFFFFFFFF AND PUSH1 0xE0 SHL DUP2 MSTORE PUSH1 0x4 ADD PUSH2 0xC98 SWAP4 SWAP3 SWAP2 SWAP1 PUSH2 0x2612 JUMP JUMPDEST PUSH1 0x20 PUSH1 0x40 MLOAD DUP1 DUP4 SUB DUP2 PUSH0 DUP8 GAS CALL ISZERO DUP1 ISZERO PUSH2 0xCB4 JUMPI RETURNDATASIZE PUSH0 DUP1 RETURNDATACOPY RETURNDATASIZE PUSH0 REVERT JUMPDEST POP POP POP POP PUSH1 0x40 MLOAD RETURNDATASIZE PUSH1 0x1F NOT PUSH1 0x1F DUP3 ADD AND DUP3 ADD DUP1 PUSH1 0x40 MSTORE POP DUP2 ADD SWAP1 PUSH2 0xCD8 SWAP2 SWAP1 PUSH2 0x2671 JUMP JUMPDEST POP PUSH1 0x5 PUSH0 SWAP1 SLOAD SWAP1 PUSH2 0x100 EXP SWAP1 DIV PUSH20 0xFFFFFFFFFFFFFFFFFFFFFFFFFFFFFFFFFFFFFFFF AND PUSH20 0xFFFFFFFFFFFFFFFFFFFFFFFFFFFFFFFFFFFFFFFF AND PUSH4 0xA9059CBB CALLER DUP7 PUSH1 0x40 MLOAD DUP4 PUSH4 0xFFFFFFFF AND PUSH1 0xE0 SHL DUP2 MSTORE PUSH1 0x4 ADD PUSH2 0xD35 SWAP3 SWAP2 SWAP1 PUSH2 0x269C JUMP JUMPDEST PUSH1 0x20 PUSH1 0x40 MLOAD DUP1 DUP4 SUB DUP2 PUSH0 DUP8 GAS CALL ISZERO DUP1 ISZERO PUSH2 0xD51 JUMPI RETURNDATASIZE PUSH0 DUP1 RETURNDATACOPY RETURNDATASIZE PUSH0 REVERT JUMPDEST POP POP POP POP PUSH1 0x40 MLOAD RETURNDATASIZE PUSH1 0x1F NOT PUSH1 0x1F DUP3 ADD AND DUP3 ADD DUP1 PUSH1 0x40 MSTORE POP DUP2 ADD SWAP1 PUSH2 0xD75 SWAP2 SWAP1 PUSH2 0x2671 JUMP JUMPDEST POP JUMPDEST DUP3 PUSH20 0xFFFFFFFFFFFFFFFFFFFFFFFFFFFFFFFFFFFFFFFF AND DUP7 PUSH20 0xFFFFFFFFFFFFFFFFFFFFFFFFFFFFFFFFFFFFFFFF AND PUSH32 0x80044F7893845E3883418A4D784224B0D2D9606CA5F19C2A910401C2C62761B5 DUP10 DUP8 PUSH1 0x40 MLOAD PUSH2 0xDD6 SWAP3 SWAP2 SWAP1 PUSH2 0x22F8 JUMP JUMPDEST PUSH1 0x40 MLOAD DUP1 SWAP2 SUB SWAP1 LOG3 POP POP SWAP4 POP SWAP4 SWAP2 POP POP JUMP JUMPDEST PUSH1 0x7 SLOAD DUP2 JUMP JUMPDEST PUSH1 0x8 SLOAD DUP2 JUMP JUMPDEST PUSH0 DUP1 PUSH0 DUP4 PUSH20 0xFFFFFFFFFFFFFFFFFFFFFFFFFFFFFFFFFFFFFFFF AND PUSH20 0xFFFFFFFFFFFFFFFFFFFFFFFFFFFFFFFFFFFFFFFF AND DUP2 MSTORE PUSH1 0x20 ADD SWAP1 DUP2 MSTORE PUSH1 0x20 ADD PUSH0 KECCAK256 SLOAD SWAP1 POP SWAP2 SWAP1 POP JUMP JUMPDEST PUSH1 0x60 PUSH1 0x4 DUP1 SLOAD PUSH2 0xE48 SWAP1 PUSH2 0x2418 JUMP JUMPDEST DUP1 PUSH1 0x1F ADD PUSH1 0x20 DUP1 SWAP2 DIV MUL PUSH1 0x20 ADD PUSH1 0x40 MLOAD SWAP1 DUP2 ADD PUSH1 0x40 MSTORE DUP1 SWAP3 SWAP2 SWAP1 DUP2 DUP2 MSTORE PUSH1 0x20 ADD DUP3 DUP1 SLOAD PUSH2 0xE74 SWAP1 PUSH2 0x2418 JUMP JUMPDEST DUP1 ISZERO PUSH2 0xEBF JUMPI DUP1 PUSH1 0x1F LT PUSH2 0xE96 JUMPI PUSH2 0x100 DUP1 DUP4 SLOAD DIV MUL DUP4 MSTORE SWAP2 PUSH1 0x20 ADD SWAP2 PUSH2 0xEBF JUMP JUMPDEST DUP3 ADD SWAP2 SWAP1 PUSH0 MSTORE PUSH1 0x20 PUSH0 KECCAK256 SWAP1 JUMPDEST DUP2 SLOAD DUP2 MSTORE SWAP1 PUSH1 0x1 ADD SWAP1 PUSH1 0x20 ADD DUP1 DUP4 GT PUSH2 0xEA2 JUMPI DUP3 SWAP1 SUB PUSH1 0x1F AND DUP3 ADD SWAP2 JUMPDEST POP POP POP POP POP SWAP1 POP SWAP1 JUMP JUMPDEST PUSH0 DUP1 PUSH0 PUSH2 0xED5 CALLER PUSH2 0xDF4 JUMP JUMPDEST SWAP1 POP DUP4 DUP2 LT ISZERO PUSH2 0xF1A JUMPI PUSH1 0x40 MLOAD PUSH32 0x8C379A000000000000000000000000000000000000000000000000000000000 DUP2 MSTORE PUSH1 0x4 ADD PUSH2 0xF11 SWAP1 PUSH2 0x270D JUMP JUMPDEST PUSH1 0x40 MLOAD DUP1 SWAP2 SUB SWAP1 REVERT JUMPDEST PUSH0 PUSH2 0xF23 PUSH2 0x486 JUMP JUMPDEST SWAP1 POP DUP1 PUSH1 0x7 SLOAD DUP7 PUSH2 0xF34 SWAP2 SWAP1 PUSH2 0x272B JUMP JUMPDEST PUSH2 0xF3E SWAP2 SWAP1 PUSH2 0x2799 JUMP JUMPDEST SWAP4 POP DUP1 PUSH1 0x8 SLOAD DUP7 PUSH2 0xF4F SWAP2 SWAP1 PUSH2 0x272B JUMP JUMPDEST PUSH2 0xF59 SWAP2 SWAP1 PUSH2 0x2799 JUMP JUMPDEST SWAP3 POP DUP4 PUSH1 0x5 PUSH0 SWAP1 SLOAD SWAP1 PUSH2 0x100 EXP SWAP1 DIV PUSH20 0xFFFFFFFFFFFFFFFFFFFFFFFFFFFFFFFFFFFFFFFF AND PUSH20 0xFFFFFFFFFFFFFFFFFFFFFFFFFFFFFFFFFFFFFFFF AND PUSH4 0x70A08231 ADDRESS PUSH1 0x40 MLOAD DUP3 PUSH4 0xFFFFFFFF AND PUSH1 0xE0 SHL DUP2 MSTORE PUSH1 0x4 ADD PUSH2 0xFB6 SWAP2 SWAP1 PUSH2 0x2527 JUMP JUMPDEST PUSH1 0x20 PUSH1 0x40 MLOAD DUP1 DUP4 SUB DUP2 DUP7 GAS STATICCALL ISZERO DUP1 ISZERO PUSH2 0xFD1 JUMPI RETURNDATASIZE PUSH0 DUP1 RETURNDATACOPY RETURNDATASIZE PUSH0 REVERT JUMPDEST POP POP POP POP PUSH1 0x40 MLOAD RETURNDATASIZE PUSH1 0x1F NOT PUSH1 0x1F DUP3 ADD AND DUP3 ADD DUP1 PUSH1 0x40 MSTORE POP DUP2 ADD SWAP1 PUSH2 0xFF5 SWAP2 SWAP1 PUSH2 0x2554 JUMP JUMPDEST PUSH2 0xFFF SWAP2 SWAP1 PUSH2 0x25DF JUMP JUMPDEST PUSH1 0x7 DUP2 SWAP1 SSTORE POP DUP3 PUSH1 0x6 PUSH0 SWAP1 SLOAD SWAP1 PUSH2 0x100 EXP SWAP1 DIV PUSH20 0xFFFFFFFFFFFFFFFFFFFFFFFFFFFFFFFFFFFFFFFF AND PUSH20 0xFFFFFFFFFFFFFFFFFFFFFFFFFFFFFFFFFFFFFFFF AND PUSH4 0x70A08231 ADDRESS PUSH1 0x40 MLOAD DUP3 PUSH4 0xFFFFFFFF AND PUSH1 0xE0 SHL DUP2 MSTORE PUSH1 0x4 ADD PUSH2 0x1060 SWAP2 SWAP1 PUSH2 0x2527 JUMP JUMPDEST PUSH1 0x20 PUSH1 0x40 MLOAD DUP1 DUP4 SUB DUP2 DUP7 GAS STATICCALL ISZERO DUP1 ISZERO PUSH2 0x107B JUMPI RETURNDATASIZE PUSH0 DUP1 RETURNDATACOPY RETURNDATASIZE PUSH0 REVERT JUMPDEST POP POP POP POP PUSH1 0x40 MLOAD RETURNDATASIZE PUSH1 0x1F NOT PUSH1 0x1F DUP3 ADD AND DUP3 ADD DUP1 PUSH1 0x40 MSTORE POP DUP2 ADD SWAP1 PUSH2 0x109F SWAP2 SWAP1 PUSH2 0x2554 JUMP JUMPDEST PUSH2 0x10A9 SWAP2 SWAP1 PUSH2 0x25DF JUMP JUMPDEST PUSH1 0x8 DUP2 SWAP1 SSTORE POP PUSH2 0x10B9 CALLER DUP7 PUSH2 0x19C9 JUMP JUMPDEST PUSH1 0x5 PUSH0 SWAP1 SLOAD SWAP1 PUSH2 0x100 EXP SWAP1 DIV PUSH20 0xFFFFFFFFFFFFFFFFFFFFFFFFFFFFFFFFFFFFFFFF AND PUSH20 0xFFFFFFFFFFFFFFFFFFFFFFFFFFFFFFFFFFFFFFFF AND PUSH4 0xA9059CBB CALLER DUP7 PUSH1 0x40 MLOAD DUP4 PUSH4 0xFFFFFFFF AND PUSH1 0xE0 SHL DUP2 MSTORE PUSH1 0x4 ADD PUSH2 0x1115 SWAP3 SWAP2 SWAP1 PUSH2 0x269C JUMP JUMPDEST PUSH1 0x20 PUSH1 0x40 MLOAD DUP1 DUP4 SUB DUP2 PUSH0 DUP8 GAS CALL ISZERO DUP1 ISZERO PUSH2 0x1131 JUMPI RETURNDATASIZE PUSH0 DUP1 RETURNDATACOPY RETURNDATASIZE PUSH0 REVERT JUMPDEST POP POP POP POP PUSH1 0x40 MLOAD RETURNDATASIZE PUSH1 0x1F NOT PUSH1 0x1F DUP3 ADD AND DUP3 ADD DUP1 PUSH1 0x40 MSTORE POP DUP2 ADD SWAP1 PUSH2 0x1155 SWAP2 SWAP1 PUSH2 0x2671 JUMP JUMPDEST POP PUSH1 0x6 PUSH0 SWAP1 SLOAD SWAP1 PUSH2 0x100 EXP SWAP1 DIV PUSH20 0xFFFFFFFFFFFFFFFFFFFFFFFFFFFFFFFFFFFFFFFF AND PUSH20 0xFFFFFFFFFFFFFFFFFFFFFFFFFFFFFFFFFFFFFFFF AND PUSH4 0xA9059CBB CALLER DUP6 PUSH1 0x40 MLOAD DUP4 PUSH4 0xFFFFFFFF AND PUSH1 0xE0 SHL DUP2 MSTORE PUSH1 0x4 ADD PUSH2 0x11B2 SWAP3 SWAP2 SWAP1 PUSH2 0x269C JUMP JUMPDEST PUSH1 0x20 PUSH1 0x40 MLOAD DUP1 DUP4 SUB DUP2 PUSH0 DUP8 GAS CALL ISZERO DUP1 ISZERO PUSH2 0x11CE JUMPI RETURNDATASIZE PUSH0 DUP1 RETURNDATACOPY RETURNDATASIZE PUSH0 REVERT JUMPDEST POP POP POP POP PUSH1 0x40 MLOAD RETURNDATASIZE PUSH1 0x1F NOT PUSH1 0x1F DUP3 ADD AND DUP3 ADD DUP1 PUSH1 0x40 MSTORE POP DUP2 ADD SWAP1 PUSH2 0x11F2 SWAP2 SWAP1 PUSH2 0x2671 JUMP JUMPDEST POP CALLER PUSH20 0xFFFFFFFFFFFFFFFFFFFFFFFFFFFFFFFFFFFFFFFF AND PUSH32 0x1DC8BB69DF2B8E91FBDCBFCF93D951B3F0000F085A95FE3F7946D6161439245D DUP7 DUP7 DUP7 PUSH1 0x40 MLOAD PUSH2 0x123D SWAP4 SWAP3 SWAP2 SWAP1 PUSH2 0x27C9 JUMP JUMPDEST PUSH1 0x40 MLOAD DUP1 SWAP2 SUB SWAP1 LOG2 POP POP SWAP2 POP SWAP2 JUMP JUMPDEST PUSH0 DUP1 DUP4 GT PUSH2 0x128F JUMPI PUSH1 0x40 MLOAD PUSH32 0x8C379A000000000000000000000000000000000000000000000000000000000 DUP2 MSTORE PUSH1 0x4 ADD PUSH2 0x1286 SWAP1 PUSH2 0x286E JUMP JUMPDEST PUSH1 0x40 MLOAD DUP1 SWAP2 SUB SWAP1 REVERT JUMPDEST PUSH0 DUP3 GT PUSH2 0x12D1 JUMPI PUSH1 0x40 MLOAD PUSH32 0x8C379A000000000000000000000000000000000000000000000000000000000 DUP2 MSTORE PUSH1 0x4 ADD PUSH2 0x12C8 SWAP1 PUSH2 0x28FC JUMP JUMPDEST PUSH1 0x40 MLOAD DUP1 SWAP2 SUB SWAP1 REVERT JUMPDEST DUP3 PUSH1 0x5 PUSH0 SWAP1 SLOAD SWAP1 PUSH2 0x100 EXP SWAP1 DIV PUSH20 0xFFFFFFFFFFFFFFFFFFFFFFFFFFFFFFFFFFFFFFFF AND PUSH20 0xFFFFFFFFFFFFFFFFFFFFFFFFFFFFFFFFFFFFFFFF AND PUSH4 0x70A08231 ADDRESS PUSH1 0x40 MLOAD DUP3 PUSH4 0xFFFFFFFF AND PUSH1 0xE0 SHL DUP2 MSTORE PUSH1 0x4 ADD PUSH2 0x132C SWAP2 SWAP1 PUSH2 0x2527 JUMP JUMPDEST PUSH1 0x20 PUSH1 0x40 MLOAD DUP1 DUP4 SUB DUP2 DUP7 GAS STATICCALL ISZERO DUP1 ISZERO PUSH2 0x1347 JUMPI RETURNDATASIZE PUSH0 DUP1 RETURNDATACOPY RETURNDATASIZE PUSH0 REVERT JUMPDEST POP POP POP POP PUSH1 0x40 MLOAD RETURNDATASIZE PUSH1 0x1F NOT PUSH1 0x1F DUP3 ADD AND DUP3 ADD DUP1 PUSH1 0x40 MSTORE POP DUP2 ADD SWAP1 PUSH2 0x136B SWAP2 SWAP1 PUSH2 0x2554 JUMP JUMPDEST PUSH2 0x1375 SWAP2 SWAP1 PUSH2 0x25AC JUMP JUMPDEST PUSH1 0x7 DUP2 SWAP1 SSTORE POP DUP2 PUSH1 0x6 PUSH0 SWAP1 SLOAD SWAP1 PUSH2 0x100 EXP SWAP1 DIV PUSH20 0xFFFFFFFFFFFFFFFFFFFFFFFFFFFFFFFFFFFFFFFF AND PUSH20 0xFFFFFFFFFFFFFFFFFFFFFFFFFFFFFFFFFFFFFFFF AND PUSH4 0x70A08231 ADDRESS PUSH1 0x40 MLOAD DUP3 PUSH4 0xFFFFFFFF AND PUSH1 0xE0 SHL DUP2 MSTORE PUSH1 0x4 ADD PUSH2 0x13D6 SWAP2 SWAP1 PUSH2 0x2527 JUMP JUMPDEST PUSH1 0x20 PUSH1 0x40 MLOAD DUP1 DUP4 SUB DUP2 DUP7 GAS STATICCALL ISZERO DUP1 ISZERO PUSH2 0x13F1 JUMPI RETURNDATASIZE PUSH0 DUP1 RETURNDATACOPY RETURNDATASIZE PUSH0 REVERT JUMPDEST POP POP POP POP PUSH1 0x40 MLOAD RETURNDATASIZE PUSH1 0x1F NOT PUSH1 0x1F DUP3 ADD AND DUP3 ADD DUP1 PUSH1 0x40 MSTORE POP DUP2 ADD SWAP1 PUSH2 0x1415 SWAP2 SWAP1 PUSH2 0x2554 JUMP JUMPDEST PUSH2 0x141F SWAP2 SWAP1 PUSH2 0x25AC JUMP JUMPDEST PUSH1 0x8 DUP2 SWAP1 SSTORE POP PUSH0 PUSH2 0x142E PUSH2 0x486 JUMP JUMPDEST SWAP1 POP PUSH0 DUP2 SUB PUSH2 0x1452 JUMPI PUSH2 0x144B DUP4 DUP6 PUSH2 0x1446 SWAP2 SWAP1 PUSH2 0x272B JUMP JUMPDEST PUSH2 0x1A48 JUMP JUMPDEST SWAP2 POP PUSH2 0x148F JUMP JUMPDEST PUSH2 0x148C PUSH1 0x7 SLOAD DUP3 DUP7 PUSH2 0x1464 SWAP2 SWAP1 PUSH2 0x272B JUMP JUMPDEST PUSH2 0x146E SWAP2 SWAP1 PUSH2 0x2799 JUMP JUMPDEST PUSH1 0x8 SLOAD DUP4 DUP7 PUSH2 0x147D SWAP2 SWAP1 PUSH2 0x272B JUMP JUMPDEST PUSH2 0x1487 SWAP2 SWAP1 PUSH2 0x2799 JUMP JUMPDEST PUSH2 0x1ABF JUMP JUMPDEST SWAP2 POP JUMPDEST PUSH0 DUP3 GT PUSH2 0x14D1 JUMPI PUSH1 0x40 MLOAD PUSH32 0x8C379A000000000000000000000000000000000000000000000000000000000 DUP2 MSTORE PUSH1 0x4 ADD PUSH2 0x14C8 SWAP1 PUSH2 0x298A JUMP JUMPDEST PUSH1 0x40 MLOAD DUP1 SWAP2 SUB SWAP1 REVERT JUMPDEST PUSH2 0x14DB CALLER DUP4 PUSH2 0x1AD7 JUMP JUMPDEST PUSH1 0x5 PUSH0 SWAP1 SLOAD SWAP1 PUSH2 0x100 EXP SWAP1 DIV PUSH20 0xFFFFFFFFFFFFFFFFFFFFFFFFFFFFFFFFFFFFFFFF AND PUSH20 0xFFFFFFFFFFFFFFFFFFFFFFFFFFFFFFFFFFFFFFFF AND PUSH4 0x23B872DD CALLER ADDRESS DUP8 PUSH1 0x40 MLOAD DUP5 PUSH4 0xFFFFFFFF AND PUSH1 0xE0 SHL DUP2 MSTORE PUSH1 0x4 ADD PUSH2 0x1539 SWAP4 SWAP3 SWAP2 SWAP1 PUSH2 0x2612 JUMP JUMPDEST PUSH1 0x20 PUSH1 0x40 MLOAD DUP1 DUP4 SUB DUP2 PUSH0 DUP8 GAS CALL ISZERO DUP1 ISZERO PUSH2 0x1555 JUMPI RETURNDATASIZE PUSH0 DUP1 RETURNDATACOPY RETURNDATASIZE PUSH0 REVERT JUMPDEST POP POP POP POP PUSH1 0x40 MLOAD RETURNDATASIZE PUSH1 0x1F NOT PUSH1 0x1F DUP3 ADD AND DUP3 ADD DUP1 PUSH1 0x40 MSTORE POP DUP2 ADD SWAP1 PUSH2 0x1579 SWAP2 SWAP1 PUSH2 0x2671 JUMP JUMPDEST POP PUSH1 0x6 PUSH0 SWAP1 SLOAD SWAP1 PUSH2 0x100 EXP SWAP1 DIV PUSH20 0xFFFFFFFFFFFFFFFFFFFFFFFFFFFFFFFFFFFFFFFF AND PUSH20 0xFFFFFFFFFFFFFFFFFFFFFFFFFFFFFFFFFFFFFFFF AND PUSH4 0x23B872DD CALLER ADDRESS DUP7 PUSH1 0x40 MLOAD DUP5 PUSH4 0xFFFFFFFF AND PUSH1 0xE0 SHL DUP2 MSTORE PUSH1 0x4 ADD PUSH2 0x15D8 SWAP4 SWAP3 SWAP2 SWAP1 PUSH2 0x2612 JUMP JUMPDEST PUSH1 0x20 PUSH1 0x40 MLOAD DUP1 DUP4 SUB DUP2 PUSH0 DUP8 GAS CALL ISZERO DUP1 ISZERO PUSH2 0x15F4 JUMPI RETURNDATASIZE PUSH0 DUP1 RETURNDATACOPY RETURNDATASIZE PUSH0 REVERT JUMPDEST POP POP POP POP PUSH1 0x40 MLOAD RETURNDATASIZE PUSH1 0x1F NOT PUSH1 0x1F DUP3 ADD AND DUP3 ADD DUP1 PUSH1 0x40 MSTORE POP DUP2 ADD SWAP1 PUSH2 0x1618 SWAP2 SWAP1 PUSH2 0x2671 JUMP JUMPDEST POP CALLER PUSH20 0xFFFFFFFFFFFFFFFFFFFFFFFFFFFFFFFFFFFFFFFF AND PUSH32 0x64B83944E79C3CE8D4C297411DE637C3E102D064677AAC0C163976EBDCD6F50E DUP6 DUP6 DUP6 PUSH1 0x40 MLOAD PUSH2 0x1663 SWAP4 SWAP3 SWAP2 SWAP1 PUSH2 0x27C9 JUMP JUMPDEST PUSH1 0x40 MLOAD DUP1 SWAP2 SUB SWAP1 LOG2 POP SWAP3 SWAP2 POP POP JUMP JUMPDEST PUSH0 DUP1 DUP5 GT PUSH2 0x16B5 JUMPI PUSH1 0x40 MLOAD PUSH32 0x8C379A000000000000000000000000000000000000000000000000000000000 DUP2 MSTORE PUSH1 0x4 ADD PUSH2 0x16AC SWAP1 PUSH2 0x2A18 JUMP JUMPDEST PUSH1 0x40 MLOAD DUP1 SWAP2 SUB SWAP1 REVERT JUMPDEST PUSH0 DUP4 GT PUSH2 0x16F7 JUMPI PUSH1 0x40 MLOAD PUSH32 0x8C379A000000000000000000000000000000000000000000000000000000000 DUP2 MSTORE PUSH1 0x4 ADD PUSH2 0x16EE SWAP1 PUSH2 0x2AA6 JUMP JUMPDEST PUSH1 0x40 MLOAD DUP1 SWAP2 SUB SWAP1 REVERT JUMPDEST PUSH0 DUP3 GT PUSH2 0x1739 JUMPI PUSH1 0x40 MLOAD PUSH32 0x8C379A000000000000000000000000000000000000000000000000000000000 DUP2 MSTORE PUSH1 0x4 ADD PUSH2 0x1730 SWAP1 PUSH2 0x2B34 JUMP JUMPDEST PUSH1 0x40 MLOAD DUP1 SWAP2 SUB SWAP1 REVERT JUMPDEST DUP4 DUP4 PUSH2 0x1745 SWAP2 SWAP1 PUSH2 0x25AC JUMP JUMPDEST DUP3 DUP6 PUSH2 0x1751 SWAP2 SWAP1 PUSH2 0x272B JUMP JUMPDEST PUSH2 0x175B SWAP2 SWAP1 PUSH2 0x2799 JUMP JUMPDEST SWAP1 POP SWAP4 SWAP3 POP POP POP JUMP JUMPDEST PUSH0 DUP1 PUSH2 0x176E PUSH2 0x182D JUMP JUMPDEST SWAP1 POP PUSH2 0x177B DUP2 DUP6 DUP6 PUSH2 0x18D9 JUMP JUMPDEST PUSH1 0x1 SWAP2 POP POP SWAP3 SWAP2 POP POP JUMP JUMPDEST PUSH1 0x6 PUSH0 SWAP1 SLOAD SWAP1 PUSH2 0x100 EXP SWAP1 DIV PUSH20 0xFFFFFFFFFFFFFFFFFFFFFFFFFFFFFFFFFFFFFFFF AND DUP2 JUMP JUMPDEST PUSH0 PUSH1 0x1 PUSH0 DUP5 PUSH20 0xFFFFFFFFFFFFFFFFFFFFFFFFFFFFFFFFFFFFFFFF AND PUSH20 0xFFFFFFFFFFFFFFFFFFFFFFFFFFFFFFFFFFFFFFFF AND DUP2 MSTORE PUSH1 0x20 ADD SWAP1 DUP2 MSTORE PUSH1 0x20 ADD PUSH0 KECCAK256 PUSH0 DUP4 PUSH20 0xFFFFFFFFFFFFFFFFFFFFFFFFFFFFFFFFFFFFFFFF AND PUSH20 0xFFFFFFFFFFFFFFFFFFFFFFFFFFFFFFFFFFFFFFFF AND DUP2 MSTORE PUSH1 0x20 ADD SWAP1 DUP2 MSTORE PUSH1 0x20 ADD PUSH0 KECCAK256 SLOAD SWAP1 POP SWAP3 SWAP2 POP POP JUMP JUMPDEST PUSH0 CALLER SWAP1 POP SWAP1 JUMP JUMPDEST PUSH2 0x1841 DUP4 DUP4 DUP4 PUSH1 0x1 PUSH2 0x1B56 JUMP JUMPDEST POP POP POP JUMP JUMPDEST PUSH0 PUSH2 0x1851 DUP5 DUP5 PUSH2 0x17AB JUMP JUMPDEST SWAP1 POP PUSH32 0xFFFFFFFFFFFFFFFFFFFFFFFFFFFFFFFFFFFFFFFFFFFFFFFFFFFFFFFFFFFFFFFF DUP2 LT ISZERO PUSH2 0x18D3 JUMPI DUP2 DUP2 LT ISZERO PUSH2 0x18C4 JUMPI DUP3 DUP2 DUP4 PUSH1 0x40 MLOAD PUSH32 0xFB8F41B200000000000000000000000000000000000000000000000000000000 DUP2 MSTORE PUSH1 0x4 ADD PUSH2 0x18BB SWAP4 SWAP3 SWAP2 SWAP1 PUSH2 0x2B52 JUMP JUMPDEST PUSH1 0x40 MLOAD DUP1 SWAP2 SUB SWAP1 REVERT JUMPDEST PUSH2 0x18D2 DUP5 DUP5 DUP5 DUP5 SUB PUSH0 PUSH2 0x1B56 JUMP JUMPDEST JUMPDEST POP POP POP POP JUMP JUMPDEST PUSH0 PUSH20 0xFFFFFFFFFFFFFFFFFFFFFFFFFFFFFFFFFFFFFFFF AND DUP4 PUSH20 0xFFFFFFFFFFFFFFFFFFFFFFFFFFFFFFFFFFFFFFFF AND SUB PUSH2 0x1949 JUMPI PUSH0 PUSH1 0x40 MLOAD PUSH32 0x96C6FD1E00000000000000000000000000000000000000000000000000000000 DUP2 MSTORE PUSH1 0x4 ADD PUSH2 0x1940 SWAP2 SWAP1 PUSH2 0x2527 JUMP JUMPDEST PUSH1 0x40 MLOAD DUP1 SWAP2 SUB SWAP1 REVERT JUMPDEST PUSH0 PUSH20 0xFFFFFFFFFFFFFFFFFFFFFFFFFFFFFFFFFFFFFFFF AND DUP3 PUSH20 0xFFFFFFFFFFFFFFFFFFFFFFFFFFFFFFFFFFFFFFFF AND SUB PUSH2 0x19B9 JUMPI PUSH0 PUSH1 0x40 MLOAD PUSH32 0xEC442F0500000000000000000000000000000000000000000000000000000000 DUP2 MSTORE PUSH1 0x4 ADD PUSH2 0x19B0 SWAP2 SWAP1 PUSH2 0x2527 JUMP JUMPDEST PUSH1 0x40 MLOAD DUP1 SWAP2 SUB SWAP1 REVERT JUMPDEST PUSH2 0x19C4 DUP4 DUP4 DUP4 PUSH2 0x1D25 JUMP JUMPDEST POP POP POP JUMP JUMPDEST PUSH0 PUSH20 0xFFFFFFFFFFFFFFFFFFFFFFFFFFFFFFFFFFFFFFFF AND DUP3 PUSH20 0xFFFFFFFFFFFFFFFFFFFFFFFFFFFFFFFFFFFFFFFF AND SUB PUSH2 0x1A39 JUMPI PUSH0 PUSH1 0x40 MLOAD PUSH32 0x96C6FD1E00000000000000000000000000000000000000000000000000000000 DUP2 MSTORE PUSH1 0x4 ADD PUSH2 0x1A30 SWAP2 SWAP1 PUSH2 0x2527 JUMP JUMPDEST PUSH1 0x40 MLOAD DUP1 SWAP2 SUB SWAP1 REVERT JUMPDEST PUSH2 0x1A44 DUP3 PUSH0 DUP4 PUSH2 0x1D25 JUMP JUMPDEST POP POP JUMP JUMPDEST PUSH0 PUSH1 0x3 DUP3 GT ISZERO PUSH2 0x1AAD JUMPI DUP2 SWAP1 POP PUSH0 PUSH1 0x1 PUSH1 0x2 DUP5 PUSH2 0x1A65 SWAP2 SWAP1 PUSH2 0x2799 JUMP JUMPDEST PUSH2 0x1A6F SWAP2 SWAP1 PUSH2 0x25AC JUMP JUMPDEST SWAP1 POP JUMPDEST DUP2 DUP2 LT ISZERO PUSH2 0x1AA7 JUMPI DUP1 SWAP2 POP PUSH1 0x2 DUP2 DUP3 DUP6 PUSH2 0x1A8C SWAP2 SWAP1 PUSH2 0x2799 JUMP JUMPDEST PUSH2 0x1A96 SWAP2 SWAP1 PUSH2 0x25AC JUMP JUMPDEST PUSH2 0x1AA0 SWAP2 SWAP1 PUSH2 0x2799 JUMP JUMPDEST SWAP1 POP PUSH2 0x1A72 JUMP JUMPDEST POP PUSH2 0x1ABA JUMP JUMPDEST PUSH0 DUP3 EQ PUSH2 0x1AB9 JUMPI PUSH1 0x1 SWAP1 POP JUMPDEST JUMPDEST SWAP2 SWAP1 POP JUMP JUMPDEST PUSH0 DUP2 DUP4 LT PUSH2 0x1ACD JUMPI DUP2 PUSH2 0x1ACF JUMP JUMPDEST DUP3 JUMPDEST SWAP1 POP SWAP3 SWAP2 POP POP JUMP JUMPDEST PUSH0 PUSH20 0xFFFFFFFFFFFFFFFFFFFFFFFFFFFFFFFFFFFFFFFF AND DUP3 PUSH20 0xFFFFFFFFFFFFFFFFFFFFFFFFFFFFFFFFFFFFFFFF AND SUB PUSH2 0x1B47 JUMPI PUSH0 PUSH1 0x40 MLOAD PUSH32 0xEC442F0500000000000000000000000000000000000000000000000000000000 DUP2 MSTORE PUSH1 0x4 ADD PUSH2 0x1B3E SWAP2 SWAP1 PUSH2 0x2527 JUMP JUMPDEST PUSH1 0x40 MLOAD DUP1 SWAP2 SUB SWAP1 REVERT JUMPDEST PUSH2 0x1B52 PUSH0 DUP4 DUP4 PUSH2 0x1D25 JUMP JUMPDEST POP POP JUMP JUMPDEST PUSH0 PUSH20 0xFFFFFFFFFFFFFFFFFFFFFFFFFFFFFFFFFFFFFFFF AND DUP5 PUSH20 0xFFFFFFFFFFFFFFFFFFFFFFFFFFFFFFFFFFFFFFFF AND SUB PUSH2 0x1BC6 JUMPI PUSH0 PUSH1 0x40 MLOAD PUSH32 0xE602DF0500000000000000000000000000000000000000000000000000000000 DUP2 MSTORE PUSH1 0x4 ADD PUSH2 0x1BBD SWAP2 SWAP1 PUSH2 0x2527 JUMP JUMPDEST PUSH1 0x40 MLOAD DUP1 SWAP2 SUB SWAP1 REVERT JUMPDEST PUSH0 PUSH20 0xFFFFFFFFFFFFFFFFFFFFFFFFFFFFFFFFFFFFFFFF AND DUP4 PUSH20 0xFFFFFFFFFFFFFFFFFFFFFFFFFFFFFFFFFFFFFFFF AND SUB PUSH2 0x1C36 JUMPI PUSH0 PUSH1 0x40 MLOAD PUSH32 0x94280D6200000000000000000000000000000000000000000000000000000000 DUP2 MSTORE PUSH1 0x4 ADD PUSH2 0x1C2D SWAP2 SWAP1 PUSH2 0x2527 JUMP JUMPDEST PUSH1 0x40 MLOAD DUP1 SWAP2 SUB SWAP1 REVERT JUMPDEST DUP2 PUSH1 0x1 PUSH0 DUP7 PUSH20 0xFFFFFFFFFFFFFFFFFFFFFFFFFFFFFFFFFFFFFFFF AND PUSH20 0xFFFFFFFFFFFFFFFFFFFFFFFFFFFFFFFFFFFFFFFF AND DUP2 MSTORE PUSH1 0x20 ADD SWAP1 DUP2 MSTORE PUSH1 0x20 ADD PUSH0 KECCAK256 PUSH0 DUP6 PUSH20 0xFFFFFFFFFFFFFFFFFFFFFFFFFFFFFFFFFFFFFFFF AND PUSH20 0xFFFFFFFFFFFFFFFFFFFFFFFFFFFFFFFFFFFFFFFF AND DUP2 MSTORE PUSH1 0x20 ADD SWAP1 DUP2 MSTORE PUSH1 0x20 ADD PUSH0 KECCAK256 DUP2 SWAP1 SSTORE POP DUP1 ISZERO PUSH2 0x1D1F JUMPI DUP3 PUSH20 0xFFFFFFFFFFFFFFFFFFFFFFFFFFFFFFFFFFFFFFFF AND DUP5 PUSH20 0xFFFFFFFFFFFFFFFFFFFFFFFFFFFFFFFFFFFFFFFF AND PUSH32 0x8C5BE1E5EBEC7D5BD14F71427D1E84F3DD0314C0F7B2291E5B200AC8C7C3B925 DUP5 PUSH1 0x40 MLOAD PUSH2 0x1D16 SWAP2 SWAP1 PUSH2 0x2153 JUMP JUMPDEST PUSH1 0x40 MLOAD DUP1 SWAP2 SUB SWAP1 LOG3 JUMPDEST POP POP POP POP JUMP JUMPDEST PUSH0 PUSH20 0xFFFFFFFFFFFFFFFFFFFFFFFFFFFFFFFFFFFFFFFF AND DUP4 PUSH20 0xFFFFFFFFFFFFFFFFFFFFFFFFFFFFFFFFFFFFFFFF AND SUB PUSH2 0x1D75 JUMPI DUP1 PUSH1 0x2 PUSH0 DUP3 DUP3 SLOAD PUSH2 0x1D69 SWAP2 SWAP1 PUSH2 0x25AC JUMP JUMPDEST SWAP3 POP POP DUP2 SWAP1 SSTORE POP PUSH2 0x1E43 JUMP JUMPDEST PUSH0 DUP1 PUSH0 DUP6 PUSH20 0xFFFFFFFFFFFFFFFFFFFFFFFFFFFFFFFFFFFFFFFF AND PUSH20 0xFFFFFFFFFFFFFFFFFFFFFFFFFFFFFFFFFFFFFFFF AND DUP2 MSTORE PUSH1 0x20 ADD SWAP1 DUP2 MSTORE PUSH1 0x20 ADD PUSH0 KECCAK256 SLOAD SWAP1 POP DUP2 DUP2 LT ISZERO PUSH2 0x1DFE JUMPI DUP4 DUP2 DUP4 PUSH1 0x40 MLOAD PUSH32 0xE450D38C00000000000000000000000000000000000000000000000000000000 DUP2 MSTORE PUSH1 0x4 ADD PUSH2 0x1DF5 SWAP4 SWAP3 SWAP2 SWAP1 PUSH2 0x2B52 JUMP JUMPDEST PUSH1 0x40 MLOAD DUP1 SWAP2 SUB SWAP1 REVERT JUMPDEST DUP2 DUP2 SUB PUSH0 DUP1 DUP7 PUSH20 0xFFFFFFFFFFFFFFFFFFFFFFFFFFFFFFFFFFFFFFFF AND PUSH20 0xFFFFFFFFFFFFFFFFFFFFFFFFFFFFFFFFFFFFFFFF AND DUP2 MSTORE PUSH1 0x20 ADD SWAP1 DUP2 MSTORE PUSH1 0x20 ADD PUSH0 KECCAK256 DUP2 SWAP1 SSTORE POP POP JUMPDEST PUSH0 PUSH20 0xFFFFFFFFFFFFFFFFFFFFFFFFFFFFFFFFFFFFFFFF AND DUP3 PUSH20 0xFFFFFFFFFFFFFFFFFFFFFFFFFFFFFFFFFFFFFFFF AND SUB PUSH2 0x1E8A JUMPI DUP1 PUSH1 0x2 PUSH0 DUP3 DUP3 SLOAD SUB SWAP3 POP POP DUP2 SWAP1 SSTORE POP PUSH2 0x1ED4 JUMP JUMPDEST DUP1 PUSH0 DUP1 DUP5 PUSH20 0xFFFFFFFFFFFFFFFFFFFFFFFFFFFFFFFFFFFFFFFF AND PUSH20 0xFFFFFFFFFFFFFFFFFFFFFFFFFFFFFFFFFFFFFFFF AND DUP2 MSTORE PUSH1 0x20 ADD SWAP1 DUP2 MSTORE PUSH1 0x20 ADD PUSH0 KECCAK256 PUSH0 DUP3 DUP3 SLOAD ADD SWAP3 POP POP DUP2 SWAP1 SSTORE POP JUMPDEST DUP2 PUSH20 0xFFFFFFFFFFFFFFFFFFFFFFFFFFFFFFFFFFFFFFFF AND DUP4 PUSH20 0xFFFFFFFFFFFFFFFFFFFFFFFFFFFFFFFFFFFFFFFF AND PUSH32 0xDDF252AD1BE2C89B69C2B068FC378DAA952BA7F163C4A11628F55A4DF523B3EF DUP4 PUSH1 0x40 MLOAD PUSH2 0x1F31 SWAP2 SWAP1 PUSH2 0x2153 JUMP JUMPDEST PUSH1 0x40 MLOAD DUP1 SWAP2 SUB SWAP1 LOG3 POP POP POP JUMP JUMPDEST PUSH0 DUP2 MLOAD SWAP1 POP SWAP2 SWAP1 POP JUMP JUMPDEST PUSH0 DUP3 DUP3 MSTORE PUSH1 0x20 DUP3 ADD SWAP1 POP SWAP3 SWAP2 POP POP JUMP JUMPDEST DUP3 DUP2 DUP4 MCOPY PUSH0 DUP4 DUP4 ADD MSTORE POP POP POP JUMP JUMPDEST PUSH0 PUSH1 0x1F NOT PUSH1 0x1F DUP4 ADD AND SWAP1 POP SWAP2 SWAP1 POP JUMP JUMPDEST PUSH0 PUSH2 0x1F80 DUP3 PUSH2 0x1F3E JUMP JUMPDEST PUSH2 0x1F8A DUP2 DUP6 PUSH2 0x1F48 JUMP JUMPDEST SWAP4 POP PUSH2 0x1F9A DUP2 DUP6 PUSH1 0x20 DUP7 ADD PUSH2 0x1F58 JUMP JUMPDEST PUSH2 0x1FA3 DUP2 PUSH2 0x1F66 JUMP JUMPDEST DUP5 ADD SWAP2 POP POP SWAP3 SWAP2 POP POP JUMP JUMPDEST PUSH0 PUSH1 0x20 DUP3 ADD SWAP1 POP DUP2 DUP2 SUB PUSH0 DUP4 ADD MSTORE PUSH2 0x1FC6 DUP2 DUP5 PUSH2 0x1F76 JUMP JUMPDEST SWAP1 POP SWAP3 SWAP2 POP POP JUMP JUMPDEST PUSH0 DUP1 REVERT JUMPDEST PUSH0 PUSH20 0xFFFFFFFFFFFFFFFFFFFFFFFFFFFFFFFFFFFFFFFF DUP3 AND SWAP1 POP SWAP2 SWAP1 POP JUMP JUMPDEST PUSH0 PUSH2 0x1FFB DUP3 PUSH2 0x1FD2 JUMP JUMPDEST SWAP1 POP SWAP2 SWAP1 POP JUMP JUMPDEST PUSH2 0x200B DUP2 PUSH2 0x1FF1 JUMP JUMPDEST DUP2 EQ PUSH2 0x2015 JUMPI PUSH0 DUP1 REVERT JUMPDEST POP JUMP JUMPDEST PUSH0 DUP2 CALLDATALOAD SWAP1 POP PUSH2 0x2026 DUP2 PUSH2 0x2002 JUMP JUMPDEST SWAP3 SWAP2 POP POP JUMP JUMPDEST PUSH0 DUP2 SWAP1 POP SWAP2 SWAP1 POP JUMP JUMPDEST PUSH2 0x203E DUP2 PUSH2 0x202C JUMP JUMPDEST DUP2 EQ PUSH2 0x2048 JUMPI PUSH0 DUP1 REVERT JUMPDEST POP JUMP JUMPDEST PUSH0 DUP2 CALLDATALOAD SWAP1 POP PUSH2 0x2059 DUP2 PUSH2 0x2035 JUMP JUMPDEST SWAP3 SWAP2 POP POP JUMP JUMPDEST PUSH0 DUP1 PUSH1 0x40 DUP4 DUP6 SUB SLT ISZERO PUSH2 0x2075 JUMPI PUSH2 0x2074 PUSH2 0x1FCE JUMP JUMPDEST JUMPDEST PUSH0 PUSH2 0x2082 DUP6 DUP3 DUP7 ADD PUSH2 0x2018 JUMP JUMPDEST SWAP3 POP POP PUSH1 0x20 PUSH2 0x2093 DUP6 DUP3 DUP7 ADD PUSH2 0x204B JUMP JUMPDEST SWAP2 POP POP SWAP3 POP SWAP3 SWAP1 POP JUMP JUMPDEST PUSH0 DUP2 ISZERO ISZERO SWAP1 POP SWAP2 SWAP1 POP JUMP JUMPDEST PUSH2 0x20B1 DUP2 PUSH2 0x209D JUMP JUMPDEST DUP3 MSTORE POP POP JUMP JUMPDEST PUSH0 PUSH1 0x20 DUP3 ADD SWAP1 POP PUSH2 0x20CA PUSH0 DUP4 ADD DUP5 PUSH2 0x20A8 JUMP JUMPDEST SWAP3 SWAP2 POP POP JUMP JUMPDEST PUSH0 DUP2 SWAP1 POP SWAP2 SWAP1 POP JUMP JUMPDEST PUSH0 PUSH2 0x20F3 PUSH2 0x20EE PUSH2 0x20E9 DUP5 PUSH2 0x1FD2 JUMP JUMPDEST PUSH2 0x20D0 JUMP JUMPDEST PUSH2 0x1FD2 JUMP JUMPDEST SWAP1 POP SWAP2 SWAP1 POP JUMP JUMPDEST PUSH0 PUSH2 0x2104 DUP3 PUSH2 0x20D9 JUMP JUMPDEST SWAP1 POP SWAP2 SWAP1 POP JUMP JUMPDEST PUSH0 PUSH2 0x2115 DUP3 PUSH2 0x20FA JUMP JUMPDEST SWAP1 POP SWAP2 SWAP1 POP JUMP JUMPDEST PUSH2 0x2125 DUP2 PUSH2 0x210B JUMP JUMPDEST DUP3 MSTORE POP POP JUMP JUMPDEST PUSH0 PUSH1 0x20 DUP3 ADD SWAP1 POP PUSH2 0x213E PUSH0 DUP4 ADD DUP5 PUSH2 0x211C JUMP JUMPDEST SWAP3 SWAP2 POP POP JUMP JUMPDEST PUSH2 0x214D DUP2 PUSH2 0x202C JUMP JUMPDEST DUP3 MSTORE POP POP JUMP JUMPDEST PUSH0 PUSH1 0x20 DUP3 ADD SWAP1 POP PUSH2 0x2166 PUSH0 DUP4 ADD DUP5 PUSH2 0x2144 JUMP JUMPDEST SWAP3 SWAP2 POP POP JUMP JUMPDEST PUSH0 DUP1 PUSH0 PUSH1 0x60 DUP5 DUP7 SUB SLT ISZERO PUSH2 0x2183 JUMPI PUSH2 0x2182 PUSH2 0x1FCE JUMP JUMPDEST JUMPDEST PUSH0 PUSH2 0x2190 DUP7 DUP3 DUP8 ADD PUSH2 0x2018 JUMP JUMPDEST SWAP4 POP POP PUSH1 0x20 PUSH2 0x21A1 DUP7 DUP3 DUP8 ADD PUSH2 0x2018 JUMP JUMPDEST SWAP3 POP POP PUSH1 0x40 PUSH2 0x21B2 DUP7 DUP3 DUP8 ADD PUSH2 0x204B JUMP JUMPDEST SWAP2 POP POP SWAP3 POP SWAP3 POP SWAP3 JUMP JUMPDEST PUSH0 PUSH1 0xFF DUP3 AND SWAP1 POP SWAP2 SWAP1 POP JUMP JUMPDEST PUSH2 0x21D1 DUP2 PUSH2 0x21BC JUMP JUMPDEST DUP3 MSTORE POP POP JUMP JUMPDEST PUSH0 PUSH1 0x20 DUP3 ADD SWAP1 POP PUSH2 0x21EA PUSH0 DUP4 ADD DUP5 PUSH2 0x21C8 JUMP JUMPDEST SWAP3 SWAP2 POP POP JUMP JUMPDEST PUSH0 PUSH2 0x21FA DUP3 PUSH2 0x1FF1 JUMP JUMPDEST SWAP1 POP SWAP2 SWAP1 POP JUMP JUMPDEST PUSH2 0x220A DUP2 PUSH2 0x21F0 JUMP JUMPDEST DUP2 EQ PUSH2 0x2214 JUMPI PUSH0 DUP1 REVERT JUMPDEST POP JUMP JUMPDEST PUSH0 DUP2 CALLDATALOAD SWAP1 POP PUSH2 0x2225 DUP2 PUSH2 0x2201 JUMP JUMPDEST SWAP3 SWAP2 POP POP JUMP JUMPDEST PUSH0 DUP1 PUSH0 PUSH1 0x60 DUP5 DUP7 SUB SLT ISZERO PUSH2 0x2242 JUMPI PUSH2 0x2241 PUSH2 0x1FCE JUMP JUMPDEST JUMPDEST PUSH0 PUSH2 0x224F DUP7 DUP3 DUP8 ADD PUSH2 0x204B JUMP JUMPDEST SWAP4 POP POP PUSH1 0x20 PUSH2 0x2260 DUP7 DUP3 DUP8 ADD PUSH2 0x2217 JUMP JUMPDEST SWAP3 POP POP PUSH1 0x40 PUSH2 0x2271 DUP7 DUP3 DUP8 ADD PUSH2 0x204B JUMP JUMPDEST SWAP2 POP POP SWAP3 POP SWAP3 POP SWAP3 JUMP JUMPDEST PUSH0 PUSH1 0x40 DUP3 ADD SWAP1 POP PUSH2 0x228E PUSH0 DUP4 ADD DUP6 PUSH2 0x2144 JUMP JUMPDEST PUSH2 0x229B PUSH1 0x20 DUP4 ADD DUP5 PUSH2 0x211C JUMP JUMPDEST SWAP4 SWAP3 POP POP POP JUMP JUMPDEST PUSH0 PUSH1 0x20 DUP3 DUP5 SUB SLT ISZERO PUSH2 0x22B7 JUMPI PUSH2 0x22B6 PUSH2 0x1FCE JUMP JUMPDEST JUMPDEST PUSH0 PUSH2 0x22C4 DUP5 DUP3 DUP6 ADD PUSH2 0x2018 JUMP JUMPDEST SWAP2 POP POP SWAP3 SWAP2 POP POP JUMP JUMPDEST PUSH0 PUSH1 0x20 DUP3 DUP5 SUB SLT ISZERO PUSH2 0x22E2 JUMPI PUSH2 0x22E1 PUSH2 0x1FCE JUMP JUMPDEST JUMPDEST PUSH0 PUSH2 0x22EF DUP5 DUP3 DUP6 ADD PUSH2 0x204B JUMP JUMPDEST SWAP2 POP POP SWAP3 SWAP2 POP POP JUMP JUMPDEST PUSH0 PUSH1 0x40 DUP3 ADD SWAP1 POP PUSH2 0x230B PUSH0 DUP4 ADD DUP6 PUSH2 0x2144 JUMP JUMPDEST PUSH2 0x2318 PUSH1 0x20 DUP4 ADD DUP5 PUSH2 0x2144 JUMP JUMPDEST SWAP4 SWAP3 POP POP POP JUMP JUMPDEST PUSH0 DUP1 PUSH1 0x40 DUP4 DUP6 SUB SLT ISZERO PUSH2 0x2335 JUMPI PUSH2 0x2334 PUSH2 0x1FCE JUMP JUMPDEST JUMPDEST PUSH0 PUSH2 0x2342 DUP6 DUP3 DUP7 ADD PUSH2 0x204B JUMP JUMPDEST SWAP3 POP POP PUSH1 0x20 PUSH2 0x2353 DUP6 DUP3 DUP7 ADD PUSH2 0x204B JUMP JUMPDEST SWAP2 POP POP SWAP3 POP SWAP3 SWAP1 POP JUMP JUMPDEST PUSH0 DUP1 PUSH0 PUSH1 0x60 DUP5 DUP7 SUB SLT ISZERO PUSH2 0x2374 JUMPI PUSH2 0x2373 PUSH2 0x1FCE JUMP JUMPDEST JUMPDEST PUSH0 PUSH2 0x2381 DUP7 DUP3 DUP8 ADD PUSH2 0x204B JUMP JUMPDEST SWAP4 POP POP PUSH1 0x20 PUSH2 0x2392 DUP7 DUP3 DUP8 ADD PUSH2 0x204B JUMP JUMPDEST SWAP3 POP POP PUSH1 0x40 PUSH2 0x23A3 DUP7 DUP3 DUP8 ADD PUSH2 0x204B JUMP JUMPDEST SWAP2 POP POP SWAP3 POP SWAP3 POP SWAP3 JUMP JUMPDEST PUSH0 DUP1 PUSH1 0x40 DUP4 DUP6 SUB SLT ISZERO PUSH2 0x23C3 JUMPI PUSH2 0x23C2 PUSH2 0x1FCE JUMP JUMPDEST JUMPDEST PUSH0 PUSH2 0x23D0 DUP6 DUP3 DUP7 ADD PUSH2 0x2018 JUMP JUMPDEST SWAP3 POP POP PUSH1 0x20 PUSH2 0x23E1 DUP6 DUP3 DUP7 ADD PUSH2 0x2018 JUMP JUMPDEST SWAP2 POP POP SWAP3 POP SWAP3 SWAP1 POP JUMP JUMPDEST PUSH32 0x4E487B7100000000000000000000000000000000000000000000000000000000 PUSH0 MSTORE PUSH1 0x22 PUSH1 0x4 MSTORE PUSH1 0x24 PUSH0 REVERT JUMPDEST PUSH0 PUSH1 0x2 DUP3 DIV SWAP1 POP PUSH1 0x1 DUP3 AND DUP1 PUSH2 0x242F JUMPI PUSH1 0x7F DUP3 AND SWAP2 POP JUMPDEST PUSH1 0x20 DUP3 LT DUP2 SUB PUSH2 0x2442 JUMPI PUSH2 0x2441 PUSH2 0x23EB JUMP JUMPDEST JUMPDEST POP SWAP2 SWAP1 POP JUMP JUMPDEST PUSH32 0x737761703A20616D6F756E74496E206D75737420706F73697469766500000000 PUSH0 DUP3 ADD MSTORE POP JUMP JUMPDEST PUSH0 PUSH2 0x247C PUSH1 0x1C DUP4 PUSH2 0x1F48 JUMP JUMPDEST SWAP2 POP PUSH2 0x2487 DUP3 PUSH2 0x2448 JUMP JUMPDEST PUSH1 0x20 DUP3 ADD SWAP1 POP SWAP2 SWAP1 POP JUMP JUMPDEST PUSH0 PUSH1 0x20 DUP3 ADD SWAP1 POP DUP2 DUP2 SUB PUSH0 DUP4 ADD MSTORE PUSH2 0x24A9 DUP2 PUSH2 0x2470 JUMP JUMPDEST SWAP1 POP SWAP2 SWAP1 POP JUMP JUMPDEST PUSH32 0x737761703A20746F6B656E496E206E6F7420737570706F727465640000000000 PUSH0 DUP3 ADD MSTORE POP JUMP JUMPDEST PUSH0 PUSH2 0x24E4 PUSH1 0x1B DUP4 PUSH2 0x1F48 JUMP JUMPDEST SWAP2 POP PUSH2 0x24EF DUP3 PUSH2 0x24B0 JUMP JUMPDEST PUSH1 0x20 DUP3 ADD SWAP1 POP SWAP2 SWAP1 POP JUMP JUMPDEST PUSH0 PUSH1 0x20 DUP3 ADD SWAP1 POP DUP2 DUP2 SUB PUSH0 DUP4 ADD MSTORE PUSH2 0x2511 DUP2 PUSH2 0x24D8 JUMP JUMPDEST SWAP1 POP SWAP2 SWAP1 POP JUMP JUMPDEST PUSH2 0x2521 DUP2 PUSH2 0x1FF1 JUMP JUMPDEST DUP3 MSTORE POP POP JUMP JUMPDEST PUSH0 PUSH1 0x20 DUP3 ADD SWAP1 POP PUSH2 0x253A PUSH0 DUP4 ADD DUP5 PUSH2 0x2518 JUMP JUMPDEST SWAP3 SWAP2 POP POP JUMP JUMPDEST PUSH0 DUP2 MLOAD SWAP1 POP PUSH2 0x254E DUP2 PUSH2 0x2035 JUMP JUMPDEST SWAP3 SWAP2 POP POP JUMP JUMPDEST PUSH0 PUSH1 0x20 DUP3 DUP5 SUB SLT ISZERO PUSH2 0x2569 JUMPI PUSH2 0x2568 PUSH2 0x1FCE JUMP JUMPDEST JUMPDEST PUSH0 PUSH2 0x2576 DUP5 DUP3 DUP6 ADD PUSH2 0x2540 JUMP JUMPDEST SWAP2 POP POP SWAP3 SWAP2 POP POP JUMP JUMPDEST PUSH32 0x4E487B7100000000000000000000000000000000000000000000000000000000 PUSH0 MSTORE PUSH1 0x11 PUSH1 0x4 MSTORE PUSH1 0x24 PUSH0 REVERT JUMPDEST PUSH0 PUSH2 0x25B6 DUP3 PUSH2 0x202C JUMP JUMPDEST SWAP2 POP PUSH2 0x25C1 DUP4 PUSH2 0x202C JUMP JUMPDEST SWAP3 POP DUP3 DUP3 ADD SWAP1 POP DUP1 DUP3 GT ISZERO PUSH2 0x25D9 JUMPI PUSH2 0x25D8 PUSH2 0x257F JUMP JUMPDEST JUMPDEST SWAP3 SWAP2 POP POP JUMP JUMPDEST PUSH0 PUSH2 0x25E9 DUP3 PUSH2 0x202C JUMP JUMPDEST SWAP2 POP PUSH2 0x25F4 DUP4 PUSH2 0x202C JUMP JUMPDEST SWAP3 POP DUP3 DUP3 SUB SWAP1 POP DUP2 DUP2 GT ISZERO PUSH2 0x260C JUMPI PUSH2 0x260B PUSH2 0x257F JUMP JUMPDEST JUMPDEST SWAP3 SWAP2 POP POP JUMP JUMPDEST PUSH0 PUSH1 0x60 DUP3 ADD SWAP1 POP PUSH2 0x2625 PUSH0 DUP4 ADD DUP7 PUSH2 0x2518 JUMP JUMPDEST PUSH2 0x2632 PUSH1 0x20 DUP4 ADD DUP6 PUSH2 0x2518 JUMP JUMPDEST PUSH2 0x263F PUSH1 0x40 DUP4 ADD DUP5 PUSH2 0x2144 JUMP JUMPDEST SWAP5 SWAP4 POP POP POP POP JUMP JUMPDEST PUSH2 0x2650 DUP2 PUSH2 0x209D JUMP JUMPDEST DUP2 EQ PUSH2 0x265A JUMPI PUSH0 DUP1 REVERT JUMPDEST POP JUMP JUMPDEST PUSH0 DUP2 MLOAD SWAP1 POP PUSH2 0x266B DUP2 PUSH2 0x2647 JUMP JUMPDEST SWAP3 SWAP2 POP POP JUMP JUMPDEST PUSH0 PUSH1 0x20 DUP3 DUP5 SUB SLT ISZERO PUSH2 0x2686 JUMPI PUSH2 0x2685 PUSH2 0x1FCE JUMP JUMPDEST JUMPDEST PUSH0 PUSH2 0x2693 DUP5 DUP3 DUP6 ADD PUSH2 0x265D JUMP JUMPDEST SWAP2 POP POP SWAP3 SWAP2 POP POP JUMP JUMPDEST PUSH0 PUSH1 0x40 DUP3 ADD SWAP1 POP PUSH2 0x26AF PUSH0 DUP4 ADD DUP6 PUSH2 0x2518 JUMP JUMPDEST PUSH2 0x26BC PUSH1 0x20 DUP4 ADD DUP5 PUSH2 0x2144 JUMP JUMPDEST SWAP4 SWAP3 POP POP POP JUMP JUMPDEST PUSH32 0x4C5020696E73756666696369656E740000000000000000000000000000000000 PUSH0 DUP3 ADD MSTORE POP JUMP JUMPDEST PUSH0 PUSH2 0x26F7 PUSH1 0xF DUP4 PUSH2 0x1F48 JUMP JUMPDEST SWAP2 POP PUSH2 0x2702 DUP3 PUSH2 0x26C3 JUMP JUMPDEST PUSH1 0x20 DUP3 ADD SWAP1 POP SWAP2 SWAP1 POP JUMP JUMPDEST PUSH0 PUSH1 0x20 DUP3 ADD SWAP1 POP DUP2 DUP2 SUB PUSH0 DUP4 ADD MSTORE PUSH2 0x2724 DUP2 PUSH2 0x26EB JUMP JUMPDEST SWAP1 POP SWAP2 SWAP1 POP JUMP JUMPDEST PUSH0 PUSH2 0x2735 DUP3 PUSH2 0x202C JUMP JUMPDEST SWAP2 POP PUSH2 0x2740 DUP4 PUSH2 0x202C JUMP JUMPDEST SWAP3 POP DUP3 DUP3 MUL PUSH2 0x274E DUP2 PUSH2 0x202C JUMP JUMPDEST SWAP2 POP DUP3 DUP3 DIV DUP5 EQ DUP4 ISZERO OR PUSH2 0x2765 JUMPI PUSH2 0x2764 PUSH2 0x257F JUMP JUMPDEST JUMPDEST POP SWAP3 SWAP2 POP POP JUMP JUMPDEST PUSH32 0x4E487B7100000000000000000000000000000000000000000000000000000000 PUSH0 MSTORE PUSH1 0x12 PUSH1 0x4 MSTORE PUSH1 0x24 PUSH0 REVERT JUMPDEST PUSH0 PUSH2 0x27A3 DUP3 PUSH2 0x202C JUMP JUMPDEST SWAP2 POP PUSH2 0x27AE DUP4 PUSH2 0x202C JUMP JUMPDEST SWAP3 POP DUP3 PUSH2 0x27BE JUMPI PUSH2 0x27BD PUSH2 0x276C JUMP JUMPDEST JUMPDEST DUP3 DUP3 DIV SWAP1 POP SWAP3 SWAP2 POP POP JUMP JUMPDEST PUSH0 PUSH1 0x60 DUP3 ADD SWAP1 POP PUSH2 0x27DC PUSH0 DUP4 ADD DUP7 PUSH2 0x2144 JUMP JUMPDEST PUSH2 0x27E9 PUSH1 0x20 DUP4 ADD DUP6 PUSH2 0x2144 JUMP JUMPDEST PUSH2 0x27F6 PUSH1 0x40 DUP4 ADD DUP5 PUSH2 0x2144 JUMP JUMPDEST SWAP5 SWAP4 POP POP POP POP JUMP JUMPDEST PUSH32 0x6164644C69717569646974793A20746F6B656E30416D6F756E742063616E206E PUSH0 DUP3 ADD MSTORE PUSH32 0x6F74207A65726F00000000000000000000000000000000000000000000000000 PUSH1 0x20 DUP3 ADD MSTORE POP JUMP JUMPDEST PUSH0 PUSH2 0x2858 PUSH1 0x27 DUP4 PUSH2 0x1F48 JUMP JUMPDEST SWAP2 POP PUSH2 0x2863 DUP3 PUSH2 0x27FE JUMP JUMPDEST PUSH1 0x40 DUP3 ADD SWAP1 POP SWAP2 SWAP1 POP JUMP JUMPDEST PUSH0 PUSH1 0x20 DUP3 ADD SWAP1 POP DUP2 DUP2 SUB PUSH0 DUP4 ADD MSTORE PUSH2 0x2885 DUP2 PUSH2 0x284C JUMP JUMPDEST SWAP1 POP SWAP2 SWAP1 POP JUMP JUMPDEST PUSH32 0x6164644C69717569646974793A20746F6B656E31416D6F756E742063616E206E PUSH0 DUP3 ADD MSTORE PUSH32 0x6F74207A65726F00000000000000000000000000000000000000000000000000 PUSH1 0x20 DUP3 ADD MSTORE POP JUMP JUMPDEST PUSH0 PUSH2 0x28E6 PUSH1 0x27 DUP4 PUSH2 0x1F48 JUMP JUMPDEST SWAP2 POP PUSH2 0x28F1 DUP3 PUSH2 0x288C JUMP JUMPDEST PUSH1 0x40 DUP3 ADD SWAP1 POP SWAP2 SWAP1 POP JUMP JUMPDEST PUSH0 PUSH1 0x20 DUP3 ADD SWAP1 POP DUP2 DUP2 SUB PUSH0 DUP4 ADD MSTORE PUSH2 0x2913 DUP2 PUSH2 0x28DA JUMP JUMPDEST SWAP1 POP SWAP2 SWAP1 POP JUMP JUMPDEST PUSH32 0x6164644C69717569646974793A20696E73756666696369656E74206C69717569 PUSH0 DUP3 ADD MSTORE PUSH32 0x6469747900000000000000000000000000000000000000000000000000000000 PUSH1 0x20 DUP3 ADD MSTORE POP JUMP JUMPDEST PUSH0 PUSH2 0x2974 PUSH1 0x24 DUP4 PUSH2 0x1F48 JUMP JUMPDEST SWAP2 POP PUSH2 0x297F DUP3 PUSH2 0x291A JUMP JUMPDEST PUSH1 0x40 DUP3 ADD SWAP1 POP SWAP2 SWAP1 POP JUMP JUMPDEST PUSH0 PUSH1 0x20 DUP3 ADD SWAP1 POP DUP2 DUP2 SUB PUSH0 DUP4 ADD MSTORE PUSH2 0x29A1 DUP2 PUSH2 0x2968 JUMP JUMPDEST SWAP1 POP SWAP2 SWAP1 POP JUMP JUMPDEST PUSH32 0x63616C63756C617465537761704F7574416D6F756E743A20616D6F756E74496E PUSH0 DUP3 ADD MSTORE PUSH32 0x206D75737420706F736974697665000000000000000000000000000000000000 PUSH1 0x20 DUP3 ADD MSTORE POP JUMP JUMPDEST PUSH0 PUSH2 0x2A02 PUSH1 0x2E DUP4 PUSH2 0x1F48 JUMP JUMPDEST SWAP2 POP PUSH2 0x2A0D DUP3 PUSH2 0x29A8 JUMP JUMPDEST PUSH1 0x40 DUP3 ADD SWAP1 POP SWAP2 SWAP1 POP JUMP JUMPDEST PUSH0 PUSH1 0x20 DUP3 ADD SWAP1 POP DUP2 DUP2 SUB PUSH0 DUP4 ADD MSTORE PUSH2 0x2A2F DUP2 PUSH2 0x29F6 JUMP JUMPDEST SWAP1 POP SWAP2 SWAP1 POP JUMP JUMPDEST PUSH32 0x63616C63756C617465537761704F7574416D6F756E743A207265736572766549 PUSH0 DUP3 ADD MSTORE PUSH32 0x6E206D75737420706F7369746976650000000000000000000000000000000000 PUSH1 0x20 DUP3 ADD MSTORE POP JUMP JUMPDEST PUSH0 PUSH2 0x2A90 PUSH1 0x2F DUP4 PUSH2 0x1F48 JUMP JUMPDEST SWAP2 POP PUSH2 0x2A9B DUP3 PUSH2 0x2A36 JUMP JUMPDEST PUSH1 0x40 DUP3 ADD SWAP1 POP SWAP2 SWAP1 POP JUMP JUMPDEST PUSH0 PUSH1 0x20 DUP3 ADD SWAP1 POP DUP2 DUP2 SUB PUSH0 DUP4 ADD MSTORE PUSH2 0x2ABD DUP2 PUSH2 0x2A84 JUMP JUMPDEST SWAP1 POP SWAP2 SWAP1 POP JUMP JUMPDEST PUSH32 0x63616C63756C617465537761704F7574416D6F756E743A20726573657276654F PUSH0 DUP3 ADD MSTORE PUSH32 0x7574206D75737420706F73697469766500000000000000000000000000000000 PUSH1 0x20 DUP3 ADD MSTORE POP JUMP JUMPDEST PUSH0 PUSH2 0x2B1E PUSH1 0x30 DUP4 PUSH2 0x1F48 JUMP JUMPDEST SWAP2 POP PUSH2 0x2B29 DUP3 PUSH2 0x2AC4 JUMP JUMPDEST PUSH1 0x40 DUP3 ADD SWAP1 POP SWAP2 SWAP1 POP JUMP JUMPDEST PUSH0 PUSH1 0x20 DUP3 ADD SWAP1 POP DUP2 DUP2 SUB PUSH0 DUP4 ADD MSTORE PUSH2 0x2B4B DUP2 PUSH2 0x2B12 JUMP JUMPDEST SWAP1 POP SWAP2 SWAP1 POP JUMP JUMPDEST PUSH0 PUSH1 0x60 DUP3 ADD SWAP1 POP PUSH2 0x2B65 PUSH0 DUP4 ADD DUP7 PUSH2 0x2518 JUMP JUMPDEST PUSH2 0x2B72 PUSH1 0x20 DUP4 ADD DUP6 PUSH2 0x2144 JUMP JUMPDEST PUSH2 0x2B7F PUSH1 0x40 DUP4 ADD DUP5 PUSH2 0x2144 JUMP JUMPDEST SWAP5 SWAP4 POP POP POP POP JUMP INVALID LOG2 PUSH5 0x6970667358 0x22 SLT KECCAK256 SWAP10 DUP4 0x4E 0x2F PUSH16 0x4E98D84376552BB880117154BE87B6DF DUP12 0xEA DUP11 PUSH29 0x9080F7E75105E164736F6C634300081A00330000000000000000000000 "
				},
				"gasEstimates": {
					"creation": {
						"codeDepositCost": "2239400",
						"executionCost": "infinite",
						"totalCost": "infinite"
					},
					"external": {
						"addLiquidity(uint256,uint256)": "infinite",
						"allowance(address,address)": "infinite",
						"approve(address,uint256)": "infinite",
						"balanceOf(address)": "2874",
						"calculateSwapOutAmount(uint256,uint256,uint256)": "infinite",
						"decimals()": "383",
						"name()": "infinite",
						"removeLiquidity(uint256)": "infinite",
						"reserve0()": "2514",
						"reserve1()": "2448",
						"swap(uint256,address,uint256)": "infinite",
						"symbol()": "infinite",
						"token0()": "infinite",
						"token1()": "infinite",
						"totalSupply()": "2522",
						"transfer(address,uint256)": "infinite",
						"transferFrom(address,address,uint256)": "infinite"
					},
					"internal": {
						"min(uint256,uint256)": "63",
						"sqrt(uint256)": "infinite"
					}
				},
				"methodIdentifiers": {
					"addLiquidity(uint256,uint256)": "9cd441da",
					"allowance(address,address)": "dd62ed3e",
					"approve(address,uint256)": "095ea7b3",
					"balanceOf(address)": "70a08231",
					"calculateSwapOutAmount(uint256,uint256,uint256)": "a3919e42",
					"decimals()": "313ce567",
					"name()": "06fdde03",
					"removeLiquidity(uint256)": "9c8f9f23",
					"reserve0()": "443cb4bc",
					"reserve1()": "5a76f25e",
					"swap(uint256,address,uint256)": "43264349",
					"symbol()": "95d89b41",
					"token0()": "0dfe1681",
					"token1()": "d21220a7",
					"totalSupply()": "18160ddd",
					"transfer(address,uint256)": "a9059cbb",
					"transferFrom(address,address,uint256)": "23b872dd"
				}
			},
			"storageLayout": {
				"storage": [
					{
						"astId": 159,
						"contract": "contracts/token/SimpleSwap.sol:SimpleSwap",
						"label": "_balances",
						"offset": 0,
						"slot": "0",
						"type": "t_mapping(t_address,t_uint256)"
					},
					{
						"astId": 165,
						"contract": "contracts/token/SimpleSwap.sol:SimpleSwap",
						"label": "_allowances",
						"offset": 0,
						"slot": "1",
						"type": "t_mapping(t_address,t_mapping(t_address,t_uint256))"
					},
					{
						"astId": 167,
						"contract": "contracts/token/SimpleSwap.sol:SimpleSwap",
						"label": "_totalSupply",
						"offset": 0,
						"slot": "2",
						"type": "t_uint256"
					},
					{
						"astId": 169,
						"contract": "contracts/token/SimpleSwap.sol:SimpleSwap",
						"label": "_name",
						"offset": 0,
						"slot": "3",
						"type": "t_string_storage"
					},
					{
						"astId": 171,
						"contract": "contracts/token/SimpleSwap.sol:SimpleSwap",
						"label": "_symbol",
						"offset": 0,
						"slot": "4",
						"type": "t_string_storage"
					},
					{
						"astId": 825,
						"contract": "contracts/token/SimpleSwap.sol:SimpleSwap",
						"label": "token0",
						"offset": 0,
						"slot": "5",
						"type": "t_contract(IERC20)729"
					},
					{
						"astId": 828,
						"contract": "contracts/token/SimpleSwap.sol:SimpleSwap",
						"label": "token1",
						"offset": 0,
						"slot": "6",
						"type": "t_contract(IERC20)729"
					},
					{
						"astId": 830,
						"contract": "contracts/token/SimpleSwap.sol:SimpleSwap",
						"label": "reserve0",
						"offset": 0,
						"slot": "7",
						"type": "t_uint256"
					},
					{
						"astId": 832,
						"contract": "contracts/token/SimpleSwap.sol:SimpleSwap",
						"label": "reserve1",
						"offset": 0,
						"slot": "8",
						"type": "t_uint256"
					}
				],
				"types": {
					"t_address": {
						"encoding": "inplace",
						"label": "address",
						"numberOfBytes": "20"
					},
					"t_contract(IERC20)729": {
						"encoding": "inplace",
						"label": "contract IERC20",
						"numberOfBytes": "20"
					},
					"t_mapping(t_address,t_mapping(t_address,t_uint256))": {
						"encoding": "mapping",
						"key": "t_address",
						"label": "mapping(address => mapping(address => uint256))",
						"numberOfBytes": "32",
						"value": "t_mapping(t_address,t_uint256)"
					},
					"t_mapping(t_address,t_uint256)": {
						"encoding": "mapping",
						"key": "t_address",
						"label": "mapping(address => uint256)",
						"numberOfBytes": "32",
						"value": "t_uint256"
					},
					"t_string_storage": {
						"encoding": "bytes",
						"label": "string",
						"numberOfBytes": "32"
					},
					"t_uint256": {
						"encoding": "inplace",
						"label": "uint256",
						"numberOfBytes": "32"
					}
				}
			},
			"userdoc": {
				"kind": "user",
				"methods": {},
				"version": 1
			}
		}
	}
}