{
	"contracts/token/MultisigWallet.sol": {
		"MultisigWallet": {
			"abi": [
				{
					"anonymous": false,
					"inputs": [
						{
							"indexed": true,
							"internalType": "bytes32",
							"name": "walletId",
							"type": "bytes32"
						},
						{
							"indexed": true,
							"internalType": "bytes32",
							"name": "txHash",
							"type": "bytes32"
						}
					],
					"name": "TransferExecutedFailure",
					"type": "event"
				},
				{
					"anonymous": false,
					"inputs": [
						{
							"indexed": true,
							"internalType": "bytes32",
							"name": "walletId",
							"type": "bytes32"
						},
						{
							"indexed": true,
							"internalType": "bytes32",
							"name": "txHash",
							"type": "bytes32"
						}
					],
					"name": "TransferExecutedSuccess",
					"type": "event"
				},
				{
					"anonymous": false,
					"inputs": [
						{
							"indexed": false,
							"internalType": "address[]",
							"name": "owners",
							"type": "address[]"
						},
						{
							"indexed": false,
							"internalType": "uint256",
							"name": "threshold",
							"type": "uint256"
						},
						{
							"indexed": false,
							"internalType": "uint256",
							"name": "balance",
							"type": "uint256"
						},
						{
							"indexed": true,
							"internalType": "bytes32",
							"name": "walletId",
							"type": "bytes32"
						}
					],
					"name": "WalletCreated",
					"type": "event"
				},
				{
					"anonymous": false,
					"inputs": [
						{
							"indexed": true,
							"internalType": "bytes32",
							"name": "walletId",
							"type": "bytes32"
						},
						{
							"indexed": false,
							"internalType": "uint256",
							"name": "amount",
							"type": "uint256"
						}
					],
					"name": "WalletRecharged",
					"type": "event"
				},
				{
					"inputs": [
						{
							"internalType": "bytes32",
							"name": "walletId",
							"type": "bytes32"
						},
						{
							"internalType": "bytes32",
							"name": "txHash",
							"type": "bytes32"
						},
						{
							"internalType": "bytes",
							"name": "signatures",
							"type": "bytes"
						}
					],
					"name": "checkSignatures",
					"outputs": [],
					"stateMutability": "view",
					"type": "function"
				},
				{
					"inputs": [
						{
							"internalType": "address[]",
							"name": "_owners",
							"type": "address[]"
						},
						{
							"internalType": "uint256",
							"name": "_threshold",
							"type": "uint256"
						}
					],
					"name": "createWallet",
					"outputs": [
						{
							"internalType": "bytes32",
							"name": "",
							"type": "bytes32"
						}
					],
					"stateMutability": "payable",
					"type": "function"
				},
				{
					"inputs": [
						{
							"internalType": "bytes32",
							"name": "walletId",
							"type": "bytes32"
						},
						{
							"internalType": "address",
							"name": "to",
							"type": "address"
						},
						{
							"internalType": "uint256",
							"name": "value",
							"type": "uint256"
						},
						{
							"internalType": "bytes",
							"name": "data",
							"type": "bytes"
						},
						{
							"internalType": "uint256",
							"name": "nonce",
							"type": "uint256"
						},
						{
							"internalType": "uint256",
							"name": "chainId",
							"type": "uint256"
						}
					],
					"name": "encodeTransactionData",
					"outputs": [
						{
							"internalType": "bytes32",
							"name": "",
							"type": "bytes32"
						}
					],
					"stateMutability": "pure",
					"type": "function"
				},
				{
					"inputs": [
						{
							"internalType": "bytes32",
							"name": "walletId",
							"type": "bytes32"
						},
						{
							"internalType": "address",
							"name": "to",
							"type": "address"
						},
						{
							"internalType": "uint256",
							"name": "value",
							"type": "uint256"
						},
						{
							"internalType": "bytes",
							"name": "data",
							"type": "bytes"
						},
						{
							"internalType": "bytes",
							"name": "signatures",
							"type": "bytes"
						}
					],
					"name": "executeTransaction",
					"outputs": [
						{
							"internalType": "bool",
							"name": "",
							"type": "bool"
						}
					],
					"stateMutability": "nonpayable",
					"type": "function"
				},
				{
					"inputs": [
						{
							"internalType": "address[]",
							"name": "_owners",
							"type": "address[]"
						}
					],
					"name": "remeberWalletAddress",
					"outputs": [
						{
							"internalType": "bytes32",
							"name": "",
							"type": "bytes32"
						}
					],
					"stateMutability": "pure",
					"type": "function"
				},
				{
					"inputs": [
						{
							"internalType": "bytes",
							"name": "_signatures",
							"type": "bytes"
						},
						{
							"internalType": "uint256",
							"name": "pos",
							"type": "uint256"
						}
					],
					"name": "sigSplit",
					"outputs": [
						{
							"internalType": "bytes32",
							"name": "r",
							"type": "bytes32"
						},
						{
							"internalType": "bytes32",
							"name": "s",
							"type": "bytes32"
						},
						{
							"internalType": "uint8",
							"name": "v",
							"type": "uint8"
						}
					],
					"stateMutability": "pure",
					"type": "function"
				},
				{
					"inputs": [
						{
							"internalType": "address[]",
							"name": "_owners",
							"type": "address[]"
						}
					],
					"name": "sortOwners",
					"outputs": [
						{
							"internalType": "address[]",
							"name": "",
							"type": "address[]"
						}
					],
					"stateMutability": "pure",
					"type": "function"
				},
				{
					"inputs": [
						{
							"internalType": "bytes32",
							"name": "walletId",
							"type": "bytes32"
						}
					],
					"name": "walletBalance",
					"outputs": [
						{
							"internalType": "uint256",
							"name": "",
							"type": "uint256"
						}
					],
					"stateMutability": "view",
					"type": "function"
				},
				{
					"inputs": [
						{
							"internalType": "bytes32",
							"name": "walletId",
							"type": "bytes32"
						}
					],
					"name": "walletInfo",
					"outputs": [
						{
							"internalType": "address[]",
							"name": "owners",
							"type": "address[]"
						},
						{
							"internalType": "uint256",
							"name": "threshold",
							"type": "uint256"
						},
						{
							"internalType": "uint256",
							"name": "nonce",
							"type": "uint256"
						},
						{
							"internalType": "uint256",
							"name": "balance",
							"type": "uint256"
						}
					],
					"stateMutability": "view",
					"type": "function"
				},
				{
					"inputs": [
						{
							"internalType": "bytes32",
							"name": "walletId",
							"type": "bytes32"
						}
					],
					"name": "walletRecharge",
					"outputs": [],
					"stateMutability": "payable",
					"type": "function"
				}
			],
			"devdoc": {
				"kind": "dev",
				"methods": {},
				"version": 1
			},
			"evm": {
				"assembly": "    /* \"contracts/token/MultisigWallet.sol\":73:9431  contract MultisigWallet {... */\n  mstore(0x40, 0x80)\n  callvalue\n  dup1\n  iszero\n  tag_1\n  jumpi\n  0x00\n  dup1\n  revert\ntag_1:\n  pop\n  dataSize(sub_0)\n  dup1\n  dataOffset(sub_0)\n  0x00\n  codecopy\n  0x00\n  return\nstop\n\nsub_0: assembly {\n        /* \"contracts/token/MultisigWallet.sol\":73:9431  contract MultisigWallet {... */\n      mstore(0x40, 0x80)\n      jumpi(tag_1, lt(calldatasize, 0x04))\n      shr(0xe0, calldataload(0x00))\n      dup1\n      0x94e5279c\n      gt\n      tag_12\n      jumpi\n      dup1\n      0x94e5279c\n      eq\n      tag_7\n      jumpi\n      dup1\n      0xab4b7010\n      eq\n      tag_8\n      jumpi\n      dup1\n      0xaf9e219a\n      eq\n      tag_9\n      jumpi\n      dup1\n      0xbcbae862\n      eq\n      tag_10\n      jumpi\n      dup1\n      0xeaa48f63\n      eq\n      tag_11\n      jumpi\n      jump(tag_1)\n    tag_12:\n      dup1\n      0x161cac3e\n      eq\n      tag_2\n      jumpi\n      dup1\n      0x19309177\n      eq\n      tag_3\n      jumpi\n      dup1\n      0x3800a55d\n      eq\n      tag_4\n      jumpi\n      dup1\n      0x3c34b6e1\n      eq\n      tag_5\n      jumpi\n      dup1\n      0x6aa70de1\n      eq\n      tag_6\n      jumpi\n    tag_1:\n      0x00\n      dup1\n      revert\n        /* \"contracts/token/MultisigWallet.sol\":4786:6022  function executeTransaction(... */\n    tag_2:\n      callvalue\n      dup1\n      iszero\n      tag_13\n      jumpi\n      0x00\n      dup1\n      revert\n    tag_13:\n      pop\n      tag_14\n      0x04\n      dup1\n      calldatasize\n      sub\n      dup2\n      add\n      swap1\n      tag_15\n      swap2\n      swap1\n      tag_16\n      jump\t// in\n    tag_15:\n      tag_17\n      jump\t// in\n    tag_14:\n      mload(0x40)\n      tag_18\n      swap2\n      swap1\n      tag_19\n      jump\t// in\n    tag_18:\n      mload(0x40)\n      dup1\n      swap2\n      sub\n      swap1\n      return\n        /* \"contracts/token/MultisigWallet.sol\":4239:4755  function sortOwners(address[] memory _owners) public pure returns (address[] memory) {... */\n    tag_3:\n      callvalue\n      dup1\n      iszero\n      tag_20\n      jumpi\n      0x00\n      dup1\n      revert\n    tag_20:\n      pop\n      tag_21\n      0x04\n      dup1\n      calldatasize\n      sub\n      dup2\n      add\n      swap1\n      tag_22\n      swap2\n      swap1\n      tag_23\n      jump\t// in\n    tag_22:\n      tag_24\n      jump\t// in\n    tag_21:\n      mload(0x40)\n      tag_25\n      swap2\n      swap1\n      tag_26\n      jump\t// in\n    tag_25:\n      mload(0x40)\n      dup1\n      swap2\n      sub\n      swap1\n      return\n        /* \"contracts/token/MultisigWallet.sol\":2378:3601  function createWallet(address[] memory _owners, uint256 _threshold) public payable returns (bytes32) {... */\n    tag_4:\n      tag_27\n      0x04\n      dup1\n      calldatasize\n      sub\n      dup2\n      add\n      swap1\n      tag_28\n      swap2\n      swap1\n      tag_29\n      jump\t// in\n    tag_28:\n      tag_30\n      jump\t// in\n    tag_27:\n      mload(0x40)\n      tag_31\n      swap2\n      swap1\n      tag_32\n      jump\t// in\n    tag_31:\n      mload(0x40)\n      dup1\n      swap2\n      sub\n      swap1\n      return\n        /* \"contracts/token/MultisigWallet.sol\":1069:1480  function walletInfo(bytes32 walletId) public view returns (address[] memory owners, uint256 threshold, uint256 nonce ,uint256 balance) {... */\n    tag_5:\n      callvalue\n      dup1\n      iszero\n      tag_33\n      jumpi\n      0x00\n      dup1\n      revert\n    tag_33:\n      pop\n      tag_34\n      0x04\n      dup1\n      calldatasize\n      sub\n      dup2\n      add\n      swap1\n      tag_35\n      swap2\n      swap1\n      tag_36\n      jump\t// in\n    tag_35:\n      tag_37\n      jump\t// in\n    tag_34:\n      mload(0x40)\n      tag_38\n      swap5\n      swap4\n      swap3\n      swap2\n      swap1\n      tag_39\n      jump\t// in\n    tag_38:\n      mload(0x40)\n      dup1\n      swap2\n      sub\n      swap1\n      return\n        /* \"contracts/token/MultisigWallet.sol\":6051:6653  function encodeTransactionData(... */\n    tag_6:\n      callvalue\n      dup1\n      iszero\n      tag_40\n      jumpi\n      0x00\n      dup1\n      revert\n    tag_40:\n      pop\n      tag_41\n      0x04\n      dup1\n      calldatasize\n      sub\n      dup2\n      add\n      swap1\n      tag_42\n      swap2\n      swap1\n      tag_43\n      jump\t// in\n    tag_42:\n      tag_44\n      jump\t// in\n    tag_41:\n      mload(0x40)\n      tag_45\n      swap2\n      swap1\n      tag_32\n      jump\t// in\n    tag_45:\n      mload(0x40)\n      dup1\n      swap2\n      sub\n      swap1\n      return\n        /* \"contracts/token/MultisigWallet.sol\":7980:9429  function sigSplit(... */\n    tag_7:\n      callvalue\n      dup1\n      iszero\n      tag_46\n      jumpi\n      0x00\n      dup1\n      revert\n    tag_46:\n      pop\n      tag_47\n      0x04\n      dup1\n      calldatasize\n      sub\n      dup2\n      add\n      swap1\n      tag_48\n      swap2\n      swap1\n      tag_49\n      jump\t// in\n    tag_48:\n      tag_50\n      jump\t// in\n    tag_47:\n      mload(0x40)\n      tag_51\n      swap4\n      swap3\n      swap2\n      swap1\n      tag_52\n      jump\t// in\n    tag_51:\n      mload(0x40)\n      dup1\n      swap2\n      sub\n      swap1\n      return\n        /* \"contracts/token/MultisigWallet.sol\":1511:1713  function walletBalance(bytes32 walletId) public view returns (uint256) {... */\n    tag_8:\n      callvalue\n      dup1\n      iszero\n      tag_53\n      jumpi\n      0x00\n      dup1\n      revert\n    tag_53:\n      pop\n      tag_54\n      0x04\n      dup1\n      calldatasize\n      sub\n      dup2\n      add\n      swap1\n      tag_55\n      swap2\n      swap1\n      tag_36\n      jump\t// in\n    tag_55:\n      tag_56\n      jump\t// in\n    tag_54:\n      mload(0x40)\n      tag_57\n      swap2\n      swap1\n      tag_58\n      jump\t// in\n    tag_57:\n      mload(0x40)\n      dup1\n      swap2\n      sub\n      swap1\n      return\n        /* \"contracts/token/MultisigWallet.sol\":6699:7955  function checkSignatures(bytes32 walletId, bytes32 txHash, bytes memory signatures) public view {... */\n    tag_9:\n      callvalue\n      dup1\n      iszero\n      tag_59\n      jumpi\n      0x00\n      dup1\n      revert\n    tag_59:\n      pop\n      tag_60\n      0x04\n      dup1\n      calldatasize\n      sub\n      dup2\n      add\n      swap1\n      tag_61\n      swap2\n      swap1\n      tag_62\n      jump\t// in\n    tag_61:\n      tag_63\n      jump\t// in\n    tag_60:\n      stop\n        /* \"contracts/token/MultisigWallet.sol\":1738:2090  function walletRecharge(bytes32 walletId) external payable{... */\n    tag_10:\n      tag_64\n      0x04\n      dup1\n      calldatasize\n      sub\n      dup2\n      add\n      swap1\n      tag_65\n      swap2\n      swap1\n      tag_36\n      jump\t// in\n    tag_65:\n      tag_66\n      jump\t// in\n    tag_64:\n      stop\n        /* \"contracts/token/MultisigWallet.sol\":3632:4215  function remeberWalletAddress(address[] memory _owners) public pure returns (bytes32) {... */\n    tag_11:\n      callvalue\n      dup1\n      iszero\n      tag_67\n      jumpi\n      0x00\n      dup1\n      revert\n    tag_67:\n      pop\n      tag_68\n      0x04\n      dup1\n      calldatasize\n      sub\n      dup2\n      add\n      swap1\n      tag_69\n      swap2\n      swap1\n      tag_23\n      jump\t// in\n    tag_69:\n      tag_70\n      jump\t// in\n    tag_68:\n      mload(0x40)\n      tag_71\n      swap2\n      swap1\n      tag_32\n      jump\t// in\n    tag_71:\n      mload(0x40)\n      dup1\n      swap2\n      sub\n      swap1\n      return\n        /* \"contracts/token/MultisigWallet.sol\":4786:6022  function executeTransaction(... */\n    tag_17:\n        /* \"contracts/token/MultisigWallet.sol\":5161:5165  bool */\n      0x00\n        /* \"contracts/token/MultisigWallet.sol\":5203:5226  _walletExists(walletId) */\n      tag_73\n        /* \"contracts/token/MultisigWallet.sol\":5217:5225  walletId */\n      dup7\n        /* \"contracts/token/MultisigWallet.sol\":5203:5216  _walletExists */\n      tag_74\n        /* \"contracts/token/MultisigWallet.sol\":5203:5226  _walletExists(walletId) */\n      jump\t// in\n    tag_73:\n        /* \"contracts/token/MultisigWallet.sol\":5195:5268  require(_walletExists(walletId), \"executeTransaction: wallet not exists\") */\n      tag_75\n      jumpi\n      mload(0x40)\n      0x08c379a000000000000000000000000000000000000000000000000000000000\n      dup2\n      mstore\n      0x04\n      add\n      tag_76\n      swap1\n      tag_77\n      jump\t// in\n    tag_76:\n      mload(0x40)\n      dup1\n      swap2\n      sub\n      swap1\n      revert\n    tag_75:\n        /* \"contracts/token/MultisigWallet.sol\":5319:5324  value */\n      dup4\n        /* \"contracts/token/MultisigWallet.sol\":5286:5297  walletInfos */\n      0x00\n        /* \"contracts/token/MultisigWallet.sol\":5286:5307  walletInfos[walletId] */\n      dup1\n        /* \"contracts/token/MultisigWallet.sol\":5298:5306  walletId */\n      dup9\n        /* \"contracts/token/MultisigWallet.sol\":5286:5307  walletInfos[walletId] */\n      dup2\n      mstore\n      0x20\n      add\n      swap1\n      dup2\n      mstore\n      0x20\n      add\n      0x00\n      keccak256\n        /* \"contracts/token/MultisigWallet.sol\":5286:5315  walletInfos[walletId].balance */\n      0x04\n      add\n      sload\n        /* \"contracts/token/MultisigWallet.sol\":5286:5324  walletInfos[walletId].balance >= value */\n      lt\n      iszero\n        /* \"contracts/token/MultisigWallet.sol\":5278:5349  require(walletInfos[walletId].balance >= value, \"insufficient balance\") */\n      tag_78\n      jumpi\n      mload(0x40)\n      0x08c379a000000000000000000000000000000000000000000000000000000000\n      dup2\n      mstore\n      0x04\n      add\n      tag_79\n      swap1\n      tag_80\n      jump\t// in\n    tag_79:\n      mload(0x40)\n      dup1\n      swap2\n      sub\n      swap1\n      revert\n    tag_78:\n        /* \"contracts/token/MultisigWallet.sol\":5389:5403  bytes32 txHash */\n      0x00\n        /* \"contracts/token/MultisigWallet.sol\":5406:5498  encodeTransactionData(walletId, to, value, data, walletInfos[walletId].nonce, block.chainid) */\n      tag_81\n        /* \"contracts/token/MultisigWallet.sol\":5428:5436  walletId */\n      dup8\n        /* \"contracts/token/MultisigWallet.sol\":5438:5440  to */\n      dup8\n        /* \"contracts/token/MultisigWallet.sol\":5442:5447  value */\n      dup8\n        /* \"contracts/token/MultisigWallet.sol\":5449:5453  data */\n      dup8\n        /* \"contracts/token/MultisigWallet.sol\":5455:5466  walletInfos */\n      0x00\n        /* \"contracts/token/MultisigWallet.sol\":5455:5476  walletInfos[walletId] */\n      dup1\n        /* \"contracts/token/MultisigWallet.sol\":5467:5475  walletId */\n      dup14\n        /* \"contracts/token/MultisigWallet.sol\":5455:5476  walletInfos[walletId] */\n      dup2\n      mstore\n      0x20\n      add\n      swap1\n      dup2\n      mstore\n      0x20\n      add\n      0x00\n      keccak256\n        /* \"contracts/token/MultisigWallet.sol\":5455:5482  walletInfos[walletId].nonce */\n      0x03\n      add\n      sload\n        /* \"contracts/token/MultisigWallet.sol\":5484:5497  block.chainid */\n      chainid\n        /* \"contracts/token/MultisigWallet.sol\":5406:5427  encodeTransactionData */\n      tag_44\n        /* \"contracts/token/MultisigWallet.sol\":5406:5498  encodeTransactionData(walletId, to, value, data, walletInfos[walletId].nonce, block.chainid) */\n      jump\t// in\n    tag_81:\n        /* \"contracts/token/MultisigWallet.sol\":5389:5498  bytes32 txHash = encodeTransactionData(walletId, to, value, data, walletInfos[walletId].nonce, block.chainid) */\n      swap1\n      pop\n        /* \"contracts/token/MultisigWallet.sol\":5527:5538  walletInfos */\n      0x00\n        /* \"contracts/token/MultisigWallet.sol\":5527:5548  walletInfos[walletId] */\n      dup1\n        /* \"contracts/token/MultisigWallet.sol\":5539:5547  walletId */\n      dup9\n        /* \"contracts/token/MultisigWallet.sol\":5527:5548  walletInfos[walletId] */\n      dup2\n      mstore\n      0x20\n      add\n      swap1\n      dup2\n      mstore\n      0x20\n      add\n      0x00\n      keccak256\n        /* \"contracts/token/MultisigWallet.sol\":5527:5554  walletInfos[walletId].nonce */\n      0x03\n      add\n      0x00\n        /* \"contracts/token/MultisigWallet.sol\":5527:5556  walletInfos[walletId].nonce++ */\n      dup2\n      sload\n      dup1\n      swap3\n      swap2\n      swap1\n      tag_82\n      swap1\n      tag_83\n      jump\t// in\n    tag_82:\n      swap2\n      swap1\n      pop\n      sstore\n      pop\n        /* \"contracts/token/MultisigWallet.sol\":5599:5604  value */\n      dup5\n        /* \"contracts/token/MultisigWallet.sol\":5566:5577  walletInfos */\n      0x00\n        /* \"contracts/token/MultisigWallet.sol\":5566:5587  walletInfos[walletId] */\n      dup1\n        /* \"contracts/token/MultisigWallet.sol\":5578:5586  walletId */\n      dup10\n        /* \"contracts/token/MultisigWallet.sol\":5566:5587  walletInfos[walletId] */\n      dup2\n      mstore\n      0x20\n      add\n      swap1\n      dup2\n      mstore\n      0x20\n      add\n      0x00\n      keccak256\n        /* \"contracts/token/MultisigWallet.sol\":5566:5595  walletInfos[walletId].balance */\n      0x04\n      add\n      0x00\n        /* \"contracts/token/MultisigWallet.sol\":5566:5604  walletInfos[walletId].balance -= value */\n      dup3\n      dup3\n      sload\n      tag_84\n      swap2\n      swap1\n      tag_85\n      jump\t// in\n    tag_84:\n      swap3\n      pop\n      pop\n      dup2\n      swap1\n      sstore\n      pop\n        /* \"contracts/token/MultisigWallet.sol\":5638:5683  checkSignatures(walletId, txHash, signatures) */\n      tag_86\n        /* \"contracts/token/MultisigWallet.sol\":5654:5662  walletId */\n      dup8\n        /* \"contracts/token/MultisigWallet.sol\":5664:5670  txHash */\n      dup3\n        /* \"contracts/token/MultisigWallet.sol\":5672:5682  signatures */\n      dup6\n        /* \"contracts/token/MultisigWallet.sol\":5638:5653  checkSignatures */\n      tag_63\n        /* \"contracts/token/MultisigWallet.sol\":5638:5683  checkSignatures(walletId, txHash, signatures) */\n      jump\t// in\n    tag_86:\n        /* \"contracts/token/MultisigWallet.sol\":5718:5730  bool success */\n      0x00\n        /* \"contracts/token/MultisigWallet.sol\":5736:5738  to */\n      dup7\n        /* \"contracts/token/MultisigWallet.sol\":5736:5743  to.call */\n      0xffffffffffffffffffffffffffffffffffffffff\n      and\n        /* \"contracts/token/MultisigWallet.sol\":5751:5756  value */\n      dup7\n        /* \"contracts/token/MultisigWallet.sol\":5758:5762  data */\n      dup7\n        /* \"contracts/token/MultisigWallet.sol\":5736:5763  to.call{value: value}(data) */\n      mload(0x40)\n      tag_87\n      swap2\n      swap1\n      tag_88\n      jump\t// in\n    tag_87:\n      0x00\n      mload(0x40)\n      dup1\n      dup4\n      sub\n      dup2\n      dup6\n      dup8\n      gas\n      call\n      swap3\n      pop\n      pop\n      pop\n      returndatasize\n      dup1\n      0x00\n      dup2\n      eq\n      tag_91\n      jumpi\n      mload(0x40)\n      swap2\n      pop\n      and(add(returndatasize, 0x3f), not(0x1f))\n      dup3\n      add\n      0x40\n      mstore\n      returndatasize\n      dup3\n      mstore\n      returndatasize\n      0x00\n      0x20\n      dup5\n      add\n      returndatacopy\n      jump(tag_90)\n    tag_91:\n      0x60\n      swap2\n      pop\n    tag_90:\n      pop\n        /* \"contracts/token/MultisigWallet.sol\":5717:5763  (bool success, ) = to.call{value: value}(data) */\n      pop\n      swap1\n      pop\n        /* \"contracts/token/MultisigWallet.sol\":5781:5788  success */\n      dup1\n        /* \"contracts/token/MultisigWallet.sol\":5773:5822  require(success, \"executeTransaction: call fail\") */\n      tag_92\n      jumpi\n      mload(0x40)\n      0x08c379a000000000000000000000000000000000000000000000000000000000\n      dup2\n      mstore\n      0x04\n      add\n      tag_93\n      swap1\n      tag_94\n      jump\t// in\n    tag_93:\n      mload(0x40)\n      dup1\n      swap2\n      sub\n      swap1\n      revert\n    tag_92:\n        /* \"contracts/token/MultisigWallet.sol\":5836:5843  success */\n      dup1\n        /* \"contracts/token/MultisigWallet.sol\":5832:5992  if (success) {... */\n      iszero\n      tag_95\n      jumpi\n        /* \"contracts/token/MultisigWallet.sol\":5898:5904  txHash */\n      dup2\n        /* \"contracts/token/MultisigWallet.sol\":5888:5896  walletId */\n      dup9\n        /* \"contracts/token/MultisigWallet.sol\":5864:5905  TransferExecutedSuccess(walletId, txHash) */\n      0x2343c14a87ee6171c01ff0e2c8061707429ea972a0db2d181649b553f6ee198e\n      mload(0x40)\n      mload(0x40)\n      dup1\n      swap2\n      sub\n      swap1\n      log3\n        /* \"contracts/token/MultisigWallet.sol\":5832:5992  if (success) {... */\n      jump(tag_96)\n    tag_95:\n        /* \"contracts/token/MultisigWallet.sol\":5974:5980  txHash */\n      dup2\n        /* \"contracts/token/MultisigWallet.sol\":5964:5972  walletId */\n      dup9\n        /* \"contracts/token/MultisigWallet.sol\":5940:5981  TransferExecutedFailure(walletId, txHash) */\n      0xf8de97432a1352b9fab9941f6727dca171a72eddcc8a75ced5611be06b29b789\n      mload(0x40)\n      mload(0x40)\n      dup1\n      swap2\n      sub\n      swap1\n      log3\n        /* \"contracts/token/MultisigWallet.sol\":5832:5992  if (success) {... */\n    tag_96:\n        /* \"contracts/token/MultisigWallet.sol\":6008:6015  success */\n      dup1\n        /* \"contracts/token/MultisigWallet.sol\":6001:6015  return success */\n      swap3\n      pop\n      pop\n      pop\n        /* \"contracts/token/MultisigWallet.sol\":4786:6022  function executeTransaction(... */\n      swap6\n      swap5\n      pop\n      pop\n      pop\n      pop\n      pop\n      jump\t// out\n        /* \"contracts/token/MultisigWallet.sol\":4239:4755  function sortOwners(address[] memory _owners) public pure returns (address[] memory) {... */\n    tag_24:\n        /* \"contracts/token/MultisigWallet.sol\":4306:4322  address[] memory */\n      0x60\n        /* \"contracts/token/MultisigWallet.sol\":4334:4348  uint256 length */\n      0x00\n        /* \"contracts/token/MultisigWallet.sol\":4351:4358  _owners */\n      dup3\n        /* \"contracts/token/MultisigWallet.sol\":4351:4365  _owners.length */\n      mload\n        /* \"contracts/token/MultisigWallet.sol\":4334:4365  uint256 length = _owners.length */\n      swap1\n      pop\n        /* \"contracts/token/MultisigWallet.sol\":4405:4414  uint256 i */\n      0x00\n        /* \"contracts/token/MultisigWallet.sol\":4400:4725  for (uint256 i = 0; i < length; i++) {... */\n    tag_98:\n        /* \"contracts/token/MultisigWallet.sol\":4424:4430  length */\n      dup2\n        /* \"contracts/token/MultisigWallet.sol\":4420:4421  i */\n      dup2\n        /* \"contracts/token/MultisigWallet.sol\":4420:4430  i < length */\n      lt\n        /* \"contracts/token/MultisigWallet.sol\":4400:4725  for (uint256 i = 0; i < length; i++) {... */\n      iszero\n      tag_99\n      jumpi\n        /* \"contracts/token/MultisigWallet.sol\":4456:4465  uint256 j */\n      0x00\n        /* \"contracts/token/MultisigWallet.sol\":4451:4715  for (uint256 j = 0; j < length - 1; j++) {... */\n    tag_101:\n        /* \"contracts/token/MultisigWallet.sol\":4484:4485  1 */\n      0x01\n        /* \"contracts/token/MultisigWallet.sol\":4475:4481  length */\n      dup4\n        /* \"contracts/token/MultisigWallet.sol\":4475:4485  length - 1 */\n      tag_104\n      swap2\n      swap1\n      tag_85\n      jump\t// in\n    tag_104:\n        /* \"contracts/token/MultisigWallet.sol\":4471:4472  j */\n      dup2\n        /* \"contracts/token/MultisigWallet.sol\":4471:4485  j < length - 1 */\n      lt\n        /* \"contracts/token/MultisigWallet.sol\":4451:4715  for (uint256 j = 0; j < length - 1; j++) {... */\n      iszero\n      tag_102\n      jumpi\n        /* \"contracts/token/MultisigWallet.sol\":4527:4534  _owners */\n      dup5\n        /* \"contracts/token/MultisigWallet.sol\":4539:4540  1 */\n      0x01\n        /* \"contracts/token/MultisigWallet.sol\":4535:4536  j */\n      dup3\n        /* \"contracts/token/MultisigWallet.sol\":4535:4540  j + 1 */\n      tag_105\n      swap2\n      swap1\n      tag_106\n      jump\t// in\n    tag_105:\n        /* \"contracts/token/MultisigWallet.sol\":4527:4541  _owners[j + 1] */\n      dup2\n      mload\n      dup2\n      lt\n      tag_107\n      jumpi\n      tag_108\n      tag_109\n      jump\t// in\n    tag_108:\n    tag_107:\n      0x20\n      mul\n      0x20\n      add\n      add\n      mload\n        /* \"contracts/token/MultisigWallet.sol\":4514:4541  _owners[j] > _owners[j + 1] */\n      0xffffffffffffffffffffffffffffffffffffffff\n      and\n        /* \"contracts/token/MultisigWallet.sol\":4514:4521  _owners */\n      dup6\n        /* \"contracts/token/MultisigWallet.sol\":4522:4523  j */\n      dup3\n        /* \"contracts/token/MultisigWallet.sol\":4514:4524  _owners[j] */\n      dup2\n      mload\n      dup2\n      lt\n      tag_110\n      jumpi\n      tag_111\n      tag_109\n      jump\t// in\n    tag_111:\n    tag_110:\n      0x20\n      mul\n      0x20\n      add\n      add\n      mload\n        /* \"contracts/token/MultisigWallet.sol\":4514:4541  _owners[j] > _owners[j + 1] */\n      0xffffffffffffffffffffffffffffffffffffffff\n      and\n      gt\n        /* \"contracts/token/MultisigWallet.sol\":4510:4701  if (_owners[j] > _owners[j + 1]) {... */\n      iszero\n      tag_112\n      jumpi\n        /* \"contracts/token/MultisigWallet.sol\":4565:4577  address temp */\n      0x00\n        /* \"contracts/token/MultisigWallet.sol\":4580:4587  _owners */\n      dup6\n        /* \"contracts/token/MultisigWallet.sol\":4588:4589  j */\n      dup3\n        /* \"contracts/token/MultisigWallet.sol\":4580:4590  _owners[j] */\n      dup2\n      mload\n      dup2\n      lt\n      tag_113\n      jumpi\n      tag_114\n      tag_109\n      jump\t// in\n    tag_114:\n    tag_113:\n      0x20\n      mul\n      0x20\n      add\n      add\n      mload\n        /* \"contracts/token/MultisigWallet.sol\":4565:4590  address temp = _owners[j] */\n      swap1\n      pop\n        /* \"contracts/token/MultisigWallet.sol\":4625:4632  _owners */\n      dup6\n        /* \"contracts/token/MultisigWallet.sol\":4637:4638  1 */\n      0x01\n        /* \"contracts/token/MultisigWallet.sol\":4633:4634  j */\n      dup4\n        /* \"contracts/token/MultisigWallet.sol\":4633:4638  j + 1 */\n      tag_115\n      swap2\n      swap1\n      tag_106\n      jump\t// in\n    tag_115:\n        /* \"contracts/token/MultisigWallet.sol\":4625:4639  _owners[j + 1] */\n      dup2\n      mload\n      dup2\n      lt\n      tag_116\n      jumpi\n      tag_117\n      tag_109\n      jump\t// in\n    tag_117:\n    tag_116:\n      0x20\n      mul\n      0x20\n      add\n      add\n      mload\n        /* \"contracts/token/MultisigWallet.sol\":4612:4619  _owners */\n      dup7\n        /* \"contracts/token/MultisigWallet.sol\":4620:4621  j */\n      dup4\n        /* \"contracts/token/MultisigWallet.sol\":4612:4622  _owners[j] */\n      dup2\n      mload\n      dup2\n      lt\n      tag_118\n      jumpi\n      tag_119\n      tag_109\n      jump\t// in\n    tag_119:\n    tag_118:\n      0x20\n      mul\n      0x20\n      add\n      add\n        /* \"contracts/token/MultisigWallet.sol\":4612:4639  _owners[j] = _owners[j + 1] */\n      swap1\n      0xffffffffffffffffffffffffffffffffffffffff\n      and\n      swap1\n      dup2\n      0xffffffffffffffffffffffffffffffffffffffff\n      and\n      dup2\n      mstore\n      pop\n      pop\n        /* \"contracts/token/MultisigWallet.sol\":4678:4682  temp */\n      dup1\n        /* \"contracts/token/MultisigWallet.sol\":4661:4668  _owners */\n      dup7\n        /* \"contracts/token/MultisigWallet.sol\":4673:4674  1 */\n      0x01\n        /* \"contracts/token/MultisigWallet.sol\":4669:4670  j */\n      dup5\n        /* \"contracts/token/MultisigWallet.sol\":4669:4674  j + 1 */\n      tag_120\n      swap2\n      swap1\n      tag_106\n      jump\t// in\n    tag_120:\n        /* \"contracts/token/MultisigWallet.sol\":4661:4675  _owners[j + 1] */\n      dup2\n      mload\n      dup2\n      lt\n      tag_121\n      jumpi\n      tag_122\n      tag_109\n      jump\t// in\n    tag_122:\n    tag_121:\n      0x20\n      mul\n      0x20\n      add\n      add\n        /* \"contracts/token/MultisigWallet.sol\":4661:4682  _owners[j + 1] = temp */\n      swap1\n      0xffffffffffffffffffffffffffffffffffffffff\n      and\n      swap1\n      dup2\n      0xffffffffffffffffffffffffffffffffffffffff\n      and\n      dup2\n      mstore\n      pop\n      pop\n        /* \"contracts/token/MultisigWallet.sol\":4543:4701  {... */\n      pop\n        /* \"contracts/token/MultisigWallet.sol\":4510:4701  if (_owners[j] > _owners[j + 1]) {... */\n    tag_112:\n        /* \"contracts/token/MultisigWallet.sol\":4487:4490  j++ */\n      dup1\n      dup1\n      0x01\n      add\n      swap2\n      pop\n      pop\n        /* \"contracts/token/MultisigWallet.sol\":4451:4715  for (uint256 j = 0; j < length - 1; j++) {... */\n      jump(tag_101)\n    tag_102:\n      pop\n        /* \"contracts/token/MultisigWallet.sol\":4432:4435  i++ */\n      dup1\n      dup1\n      0x01\n      add\n      swap2\n      pop\n      pop\n        /* \"contracts/token/MultisigWallet.sol\":4400:4725  for (uint256 i = 0; i < length; i++) {... */\n      jump(tag_98)\n    tag_99:\n      pop\n        /* \"contracts/token/MultisigWallet.sol\":4741:4748  _owners */\n      dup3\n        /* \"contracts/token/MultisigWallet.sol\":4734:4748  return _owners */\n      swap2\n      pop\n      pop\n        /* \"contracts/token/MultisigWallet.sol\":4239:4755  function sortOwners(address[] memory _owners) public pure returns (address[] memory) {... */\n      swap2\n      swap1\n      pop\n      jump\t// out\n        /* \"contracts/token/MultisigWallet.sol\":2378:3601  function createWallet(address[] memory _owners, uint256 _threshold) public payable returns (bytes32) {... */\n    tag_30:\n        /* \"contracts/token/MultisigWallet.sol\":2470:2477  bytes32 */\n      0x00\n        /* \"contracts/token/MultisigWallet.sol\":2507:2521  uint256 length */\n      dup1\n        /* \"contracts/token/MultisigWallet.sol\":2524:2531  _owners */\n      dup4\n        /* \"contracts/token/MultisigWallet.sol\":2524:2538  _owners.length */\n      mload\n        /* \"contracts/token/MultisigWallet.sol\":2507:2538  uint256 length = _owners.length */\n      swap1\n      pop\n        /* \"contracts/token/MultisigWallet.sol\":2565:2566  0 */\n      0x00\n        /* \"contracts/token/MultisigWallet.sol\":2556:2562  length */\n      dup2\n        /* \"contracts/token/MultisigWallet.sol\":2556:2566  length > 0 */\n      gt\n        /* \"contracts/token/MultisigWallet.sol\":2548:2598  require(length > 0, \"createWallet: empty address\") */\n      tag_124\n      jumpi\n      mload(0x40)\n      0x08c379a000000000000000000000000000000000000000000000000000000000\n      dup2\n      mstore\n      0x04\n      add\n      tag_125\n      swap1\n      tag_126\n      jump\t// in\n    tag_125:\n      mload(0x40)\n      dup1\n      swap2\n      sub\n      swap1\n      revert\n    tag_124:\n        /* \"contracts/token/MultisigWallet.sol\":2629:2630  0 */\n      0x00\n        /* \"contracts/token/MultisigWallet.sol\":2616:2626  _threshold */\n      dup4\n        /* \"contracts/token/MultisigWallet.sol\":2616:2630  _threshold > 0 */\n      gt\n        /* \"contracts/token/MultisigWallet.sol\":2608:2672  require(_threshold > 0, \"createWallet: threshold must positive\") */\n      tag_127\n      jumpi\n      mload(0x40)\n      0x08c379a000000000000000000000000000000000000000000000000000000000\n      dup2\n      mstore\n      0x04\n      add\n      tag_128\n      swap1\n      tag_129\n      jump\t// in\n    tag_128:\n      mload(0x40)\n      dup1\n      swap2\n      sub\n      swap1\n      revert\n    tag_127:\n        /* \"contracts/token/MultisigWallet.sol\":2704:2710  length */\n      dup1\n        /* \"contracts/token/MultisigWallet.sol\":2690:2700  _threshold */\n      dup4\n        /* \"contracts/token/MultisigWallet.sol\":2690:2710  _threshold <= length */\n      gt\n      iszero\n        /* \"contracts/token/MultisigWallet.sol\":2682:2762  require(_threshold <= length, \"createWallet: threshold more than owners length\") */\n      tag_130\n      jumpi\n      mload(0x40)\n      0x08c379a000000000000000000000000000000000000000000000000000000000\n      dup2\n      mstore\n      0x04\n      add\n      tag_131\n      swap1\n      tag_132\n      jump\t// in\n    tag_131:\n      mload(0x40)\n      dup1\n      swap2\n      sub\n      swap1\n      revert\n    tag_130:\n        /* \"contracts/token/MultisigWallet.sol\":2772:2788  bytes32 walletId */\n      0x00\n        /* \"contracts/token/MultisigWallet.sol\":2791:2820  remeberWalletAddress(_owners) */\n      tag_133\n        /* \"contracts/token/MultisigWallet.sol\":2812:2819  _owners */\n      dup6\n        /* \"contracts/token/MultisigWallet.sol\":2791:2811  remeberWalletAddress */\n      tag_70\n        /* \"contracts/token/MultisigWallet.sol\":2791:2820  remeberWalletAddress(_owners) */\n      jump\t// in\n    tag_133:\n        /* \"contracts/token/MultisigWallet.sol\":2772:2820  bytes32 walletId = remeberWalletAddress(_owners) */\n      swap1\n      pop\n        /* \"contracts/token/MultisigWallet.sol\":2877:2900  _walletExists(walletId) */\n      tag_134\n        /* \"contracts/token/MultisigWallet.sol\":2891:2899  walletId */\n      dup2\n        /* \"contracts/token/MultisigWallet.sol\":2877:2890  _walletExists */\n      tag_74\n        /* \"contracts/token/MultisigWallet.sol\":2877:2900  _walletExists(walletId) */\n      jump\t// in\n    tag_134:\n        /* \"contracts/token/MultisigWallet.sol\":2876:2900  !_walletExists(walletId) */\n      iszero\n        /* \"contracts/token/MultisigWallet.sol\":2868:2932  require(!_walletExists(walletId), \"createWallet: wallet exist!\") */\n      tag_135\n      jumpi\n      mload(0x40)\n      0x08c379a000000000000000000000000000000000000000000000000000000000\n      dup2\n      mstore\n      0x04\n      add\n      tag_136\n      swap1\n      tag_137\n      jump\t// in\n    tag_136:\n      mload(0x40)\n      dup1\n      swap2\n      sub\n      swap1\n      revert\n    tag_135:\n        /* \"contracts/token/MultisigWallet.sol\":2966:2975  uint256 i */\n      0x00\n        /* \"contracts/token/MultisigWallet.sol\":2961:3395  for (uint256 i=0; i< length; i++) {... */\n    tag_138:\n        /* \"contracts/token/MultisigWallet.sol\":2982:2988  length */\n      dup3\n        /* \"contracts/token/MultisigWallet.sol\":2979:2980  i */\n      dup2\n        /* \"contracts/token/MultisigWallet.sol\":2979:2988  i< length */\n      lt\n        /* \"contracts/token/MultisigWallet.sol\":2961:3395  for (uint256 i=0; i< length; i++) {... */\n      iszero\n      tag_139\n      jumpi\n        /* \"contracts/token/MultisigWallet.sol\":3009:3029  address currentOwner */\n      0x00\n        /* \"contracts/token/MultisigWallet.sol\":3032:3039  _owners */\n      dup7\n        /* \"contracts/token/MultisigWallet.sol\":3040:3041  i */\n      dup3\n        /* \"contracts/token/MultisigWallet.sol\":3032:3042  _owners[i] */\n      dup2\n      mload\n      dup2\n      lt\n      tag_141\n      jumpi\n      tag_142\n      tag_109\n      jump\t// in\n    tag_142:\n    tag_141:\n      0x20\n      mul\n      0x20\n      add\n      add\n      mload\n        /* \"contracts/token/MultisigWallet.sol\":3009:3042  address currentOwner = _owners[i] */\n      swap1\n      pop\n        /* \"contracts/token/MultisigWallet.sol\":3088:3089  0 */\n      0x00\n        /* \"contracts/token/MultisigWallet.sol\":3064:3090  currentOwner != address(0) */\n      0xffffffffffffffffffffffffffffffffffffffff\n      and\n        /* \"contracts/token/MultisigWallet.sol\":3064:3076  currentOwner */\n      dup2\n        /* \"contracts/token/MultisigWallet.sol\":3064:3090  currentOwner != address(0) */\n      0xffffffffffffffffffffffffffffffffffffffff\n      and\n      eq\n      iszero\n        /* \"contracts/token/MultisigWallet.sol\":3064:3140  currentOwner != address(0) ... */\n      dup1\n      iszero\n      tag_143\n      jumpi\n      pop\n        /* \"contracts/token/MultisigWallet.sol\":3135:3139  this */\n      address\n        /* \"contracts/token/MultisigWallet.sol\":3111:3140  currentOwner != address(this) */\n      0xffffffffffffffffffffffffffffffffffffffff\n      and\n        /* \"contracts/token/MultisigWallet.sol\":3111:3123  currentOwner */\n      dup2\n        /* \"contracts/token/MultisigWallet.sol\":3111:3140  currentOwner != address(this) */\n      0xffffffffffffffffffffffffffffffffffffffff\n      and\n      eq\n      iszero\n        /* \"contracts/token/MultisigWallet.sol\":3064:3140  currentOwner != address(0) ... */\n    tag_143:\n        /* \"contracts/token/MultisigWallet.sol\":3064:3205  currentOwner != address(0) ... */\n      dup1\n      iszero\n      tag_144\n      jumpi\n      pop\n        /* \"contracts/token/MultisigWallet.sol\":3162:3173  walletInfos */\n      0x00\n        /* \"contracts/token/MultisigWallet.sol\":3162:3183  walletInfos[walletId] */\n      dup1\n        /* \"contracts/token/MultisigWallet.sol\":3174:3182  walletId */\n      dup5\n        /* \"contracts/token/MultisigWallet.sol\":3162:3183  walletInfos[walletId] */\n      dup2\n      mstore\n      0x20\n      add\n      swap1\n      dup2\n      mstore\n      0x20\n      add\n      0x00\n      keccak256\n        /* \"contracts/token/MultisigWallet.sol\":3162:3191  walletInfos[walletId].isOwner */\n      0x01\n      add\n        /* \"contracts/token/MultisigWallet.sol\":3162:3205  walletInfos[walletId].isOwner[currentOwner] */\n      0x00\n        /* \"contracts/token/MultisigWallet.sol\":3192:3204  currentOwner */\n      dup3\n        /* \"contracts/token/MultisigWallet.sol\":3162:3205  walletInfos[walletId].isOwner[currentOwner] */\n      0xffffffffffffffffffffffffffffffffffffffff\n      and\n      0xffffffffffffffffffffffffffffffffffffffff\n      and\n      dup2\n      mstore\n      0x20\n      add\n      swap1\n      dup2\n      mstore\n      0x20\n      add\n      0x00\n      keccak256\n      0x00\n      swap1\n      sload\n      swap1\n      0x0100\n      exp\n      swap1\n      div\n      0xff\n      and\n        /* \"contracts/token/MultisigWallet.sol\":3161:3205  !walletInfos[walletId].isOwner[currentOwner] */\n      iszero\n        /* \"contracts/token/MultisigWallet.sol\":3064:3205  currentOwner != address(0) ... */\n    tag_144:\n        /* \"contracts/token/MultisigWallet.sol\":3056:3259  require(currentOwner != address(0) ... */\n      tag_145\n      jumpi\n      mload(0x40)\n      0x08c379a000000000000000000000000000000000000000000000000000000000\n      dup2\n      mstore\n      0x04\n      add\n      tag_146\n      swap1\n      tag_147\n      jump\t// in\n    tag_146:\n      mload(0x40)\n      dup1\n      swap2\n      sub\n      swap1\n      revert\n    tag_145:\n        /* \"contracts/token/MultisigWallet.sol\":3273:3284  walletInfos */\n      0x00\n        /* \"contracts/token/MultisigWallet.sol\":3273:3294  walletInfos[walletId] */\n      dup1\n        /* \"contracts/token/MultisigWallet.sol\":3285:3293  walletId */\n      dup5\n        /* \"contracts/token/MultisigWallet.sol\":3273:3294  walletInfos[walletId] */\n      dup2\n      mstore\n      0x20\n      add\n      swap1\n      dup2\n      mstore\n      0x20\n      add\n      0x00\n      keccak256\n        /* \"contracts/token/MultisigWallet.sol\":3273:3301  walletInfos[walletId].owners */\n      0x00\n      add\n        /* \"contracts/token/MultisigWallet.sol\":3307:3319  currentOwner */\n      dup2\n        /* \"contracts/token/MultisigWallet.sol\":3273:3320  walletInfos[walletId].owners.push(currentOwner) */\n      swap1\n      dup1\n      0x01\n      dup2\n      sload\n      add\n      dup1\n      dup3\n      sstore\n      dup1\n      swap2\n      pop\n      pop\n      0x01\n      swap1\n      sub\n      swap1\n      0x00\n      mstore\n      keccak256(0x00, 0x20)\n      add\n      0x00\n      swap1\n      swap2\n      swap1\n      swap2\n      swap1\n      swap2\n      0x0100\n      exp\n      dup2\n      sload\n      dup2\n      0xffffffffffffffffffffffffffffffffffffffff\n      mul\n      not\n      and\n      swap1\n      dup4\n      0xffffffffffffffffffffffffffffffffffffffff\n      and\n      mul\n      or\n      swap1\n      sstore\n      pop\n        /* \"contracts/token/MultisigWallet.sol\":3380:3384  true */\n      0x01\n        /* \"contracts/token/MultisigWallet.sol\":3334:3345  walletInfos */\n      0x00\n        /* \"contracts/token/MultisigWallet.sol\":3334:3355  walletInfos[walletId] */\n      dup1\n        /* \"contracts/token/MultisigWallet.sol\":3346:3354  walletId */\n      dup6\n        /* \"contracts/token/MultisigWallet.sol\":3334:3355  walletInfos[walletId] */\n      dup2\n      mstore\n      0x20\n      add\n      swap1\n      dup2\n      mstore\n      0x20\n      add\n      0x00\n      keccak256\n        /* \"contracts/token/MultisigWallet.sol\":3334:3363  walletInfos[walletId].isOwner */\n      0x01\n      add\n        /* \"contracts/token/MultisigWallet.sol\":3334:3377  walletInfos[walletId].isOwner[currentOwner] */\n      0x00\n        /* \"contracts/token/MultisigWallet.sol\":3364:3376  currentOwner */\n      dup4\n        /* \"contracts/token/MultisigWallet.sol\":3334:3377  walletInfos[walletId].isOwner[currentOwner] */\n      0xffffffffffffffffffffffffffffffffffffffff\n      and\n      0xffffffffffffffffffffffffffffffffffffffff\n      and\n      dup2\n      mstore\n      0x20\n      add\n      swap1\n      dup2\n      mstore\n      0x20\n      add\n      0x00\n      keccak256\n      0x00\n        /* \"contracts/token/MultisigWallet.sol\":3334:3384  walletInfos[walletId].isOwner[currentOwner] = true */\n      0x0100\n      exp\n      dup2\n      sload\n      dup2\n      0xff\n      mul\n      not\n      and\n      swap1\n      dup4\n      iszero\n      iszero\n      mul\n      or\n      swap1\n      sstore\n      pop\n        /* \"contracts/token/MultisigWallet.sol\":2995:3395  {... */\n      pop\n        /* \"contracts/token/MultisigWallet.sol\":2990:2993  i++ */\n      dup1\n      dup1\n      0x01\n      add\n      swap2\n      pop\n      pop\n        /* \"contracts/token/MultisigWallet.sol\":2961:3395  for (uint256 i=0; i< length; i++) {... */\n      jump(tag_138)\n    tag_139:\n      pop\n        /* \"contracts/token/MultisigWallet.sol\":3438:3448  _threshold */\n      dup4\n        /* \"contracts/token/MultisigWallet.sol\":3404:3415  walletInfos */\n      0x00\n        /* \"contracts/token/MultisigWallet.sol\":3404:3425  walletInfos[walletId] */\n      dup1\n        /* \"contracts/token/MultisigWallet.sol\":3416:3424  walletId */\n      dup4\n        /* \"contracts/token/MultisigWallet.sol\":3404:3425  walletInfos[walletId] */\n      dup2\n      mstore\n      0x20\n      add\n      swap1\n      dup2\n      mstore\n      0x20\n      add\n      0x00\n      keccak256\n        /* \"contracts/token/MultisigWallet.sol\":3404:3435  walletInfos[walletId].threshold */\n      0x02\n      add\n        /* \"contracts/token/MultisigWallet.sol\":3404:3448  walletInfos[walletId].threshold = _threshold */\n      dup2\n      swap1\n      sstore\n      pop\n        /* \"contracts/token/MultisigWallet.sol\":3490:3499  msg.value */\n      callvalue\n        /* \"contracts/token/MultisigWallet.sol\":3458:3469  walletInfos */\n      0x00\n        /* \"contracts/token/MultisigWallet.sol\":3458:3479  walletInfos[walletId] */\n      dup1\n        /* \"contracts/token/MultisigWallet.sol\":3470:3478  walletId */\n      dup4\n        /* \"contracts/token/MultisigWallet.sol\":3458:3479  walletInfos[walletId] */\n      dup2\n      mstore\n      0x20\n      add\n      swap1\n      dup2\n      mstore\n      0x20\n      add\n      0x00\n      keccak256\n        /* \"contracts/token/MultisigWallet.sol\":3458:3487  walletInfos[walletId].balance */\n      0x04\n      add\n        /* \"contracts/token/MultisigWallet.sol\":3458:3499  walletInfos[walletId].balance = msg.value */\n      dup2\n      swap1\n      sstore\n      pop\n        /* \"contracts/token/MultisigWallet.sol\":3560:3568  walletId */\n      dup1\n        /* \"contracts/token/MultisigWallet.sol\":3514:3569  WalletCreated(_owners, _threshold, msg.value, walletId) */\n      0x6ff361c77f3fc84f51cca7eece7f6780d4c0814e2cbbb4765846ceb19e6c9b94\n        /* \"contracts/token/MultisigWallet.sol\":3528:3535  _owners */\n      dup7\n        /* \"contracts/token/MultisigWallet.sol\":3537:3547  _threshold */\n      dup7\n        /* \"contracts/token/MultisigWallet.sol\":3549:3558  msg.value */\n      callvalue\n        /* \"contracts/token/MultisigWallet.sol\":3514:3569  WalletCreated(_owners, _threshold, msg.value, walletId) */\n      mload(0x40)\n      tag_149\n      swap4\n      swap3\n      swap2\n      swap1\n      tag_150\n      jump\t// in\n    tag_149:\n      mload(0x40)\n      dup1\n      swap2\n      sub\n      swap1\n      log2\n        /* \"contracts/token/MultisigWallet.sol\":3586:3594  walletId */\n      dup1\n        /* \"contracts/token/MultisigWallet.sol\":3579:3594  return walletId */\n      swap3\n      pop\n      pop\n      pop\n        /* \"contracts/token/MultisigWallet.sol\":2378:3601  function createWallet(address[] memory _owners, uint256 _threshold) public payable returns (bytes32) {... */\n      swap3\n      swap2\n      pop\n      pop\n      jump\t// out\n        /* \"contracts/token/MultisigWallet.sol\":1069:1480  function walletInfo(bytes32 walletId) public view returns (address[] memory owners, uint256 threshold, uint256 nonce ,uint256 balance) {... */\n    tag_37:\n        /* \"contracts/token/MultisigWallet.sol\":1128:1151  address[] memory owners */\n      0x60\n        /* \"contracts/token/MultisigWallet.sol\":1153:1170  uint256 threshold */\n      0x00\n        /* \"contracts/token/MultisigWallet.sol\":1172:1185  uint256 nonce */\n      dup1\n        /* \"contracts/token/MultisigWallet.sol\":1187:1202  uint256 balance */\n      0x00\n        /* \"contracts/token/MultisigWallet.sol\":1222:1245  _walletExists(walletId) */\n      tag_152\n        /* \"contracts/token/MultisigWallet.sol\":1236:1244  walletId */\n      dup6\n        /* \"contracts/token/MultisigWallet.sol\":1222:1235  _walletExists */\n      tag_74\n        /* \"contracts/token/MultisigWallet.sol\":1222:1245  _walletExists(walletId) */\n      jump\t// in\n    tag_152:\n        /* \"contracts/token/MultisigWallet.sol\":1214:1279  require(_walletExists(walletId), \"walletInfo: wallet not exists\") */\n      tag_153\n      jumpi\n      mload(0x40)\n      0x08c379a000000000000000000000000000000000000000000000000000000000\n      dup2\n      mstore\n      0x04\n      add\n      tag_154\n      swap1\n      tag_155\n      jump\t// in\n    tag_154:\n      mload(0x40)\n      dup1\n      swap2\n      sub\n      swap1\n      revert\n    tag_153:\n        /* \"contracts/token/MultisigWallet.sol\":1298:1309  walletInfos */\n      0x00\n        /* \"contracts/token/MultisigWallet.sol\":1298:1319  walletInfos[walletId] */\n      dup1\n        /* \"contracts/token/MultisigWallet.sol\":1310:1318  walletId */\n      dup7\n        /* \"contracts/token/MultisigWallet.sol\":1298:1319  walletInfos[walletId] */\n      dup2\n      mstore\n      0x20\n      add\n      swap1\n      dup2\n      mstore\n      0x20\n      add\n      0x00\n      keccak256\n        /* \"contracts/token/MultisigWallet.sol\":1298:1326  walletInfos[walletId].owners */\n      0x00\n      add\n        /* \"contracts/token/MultisigWallet.sol\":1289:1326  owners = walletInfos[walletId].owners */\n      dup1\n      sload\n      dup1\n      0x20\n      mul\n      0x20\n      add\n      mload(0x40)\n      swap1\n      dup2\n      add\n      0x40\n      mstore\n      dup1\n      swap3\n      swap2\n      swap1\n      dup2\n      dup2\n      mstore\n      0x20\n      add\n      dup3\n      dup1\n      sload\n      dup1\n      iszero\n      tag_156\n      jumpi\n      0x20\n      mul\n      dup3\n      add\n      swap2\n      swap1\n      0x00\n      mstore\n      keccak256(0x00, 0x20)\n      swap1\n    tag_157:\n      dup2\n      0x00\n      swap1\n      sload\n      swap1\n      0x0100\n      exp\n      swap1\n      div\n      0xffffffffffffffffffffffffffffffffffffffff\n      and\n      0xffffffffffffffffffffffffffffffffffffffff\n      and\n      dup2\n      mstore\n      0x20\n      add\n      swap1\n      0x01\n      add\n      swap1\n      dup1\n      dup4\n      gt\n      tag_157\n      jumpi\n    tag_156:\n      pop\n      pop\n      pop\n      pop\n      pop\n      swap4\n      pop\n        /* \"contracts/token/MultisigWallet.sol\":1348:1359  walletInfos */\n      0x00\n        /* \"contracts/token/MultisigWallet.sol\":1348:1369  walletInfos[walletId] */\n      dup1\n        /* \"contracts/token/MultisigWallet.sol\":1360:1368  walletId */\n      dup7\n        /* \"contracts/token/MultisigWallet.sol\":1348:1369  walletInfos[walletId] */\n      dup2\n      mstore\n      0x20\n      add\n      swap1\n      dup2\n      mstore\n      0x20\n      add\n      0x00\n      keccak256\n        /* \"contracts/token/MultisigWallet.sol\":1348:1379  walletInfos[walletId].threshold */\n      0x02\n      add\n      sload\n        /* \"contracts/token/MultisigWallet.sol\":1336:1379  threshold = walletInfos[walletId].threshold */\n      swap3\n      pop\n        /* \"contracts/token/MultisigWallet.sol\":1397:1408  walletInfos */\n      0x00\n        /* \"contracts/token/MultisigWallet.sol\":1397:1418  walletInfos[walletId] */\n      dup1\n        /* \"contracts/token/MultisigWallet.sol\":1409:1417  walletId */\n      dup7\n        /* \"contracts/token/MultisigWallet.sol\":1397:1418  walletInfos[walletId] */\n      dup2\n      mstore\n      0x20\n      add\n      swap1\n      dup2\n      mstore\n      0x20\n      add\n      0x00\n      keccak256\n        /* \"contracts/token/MultisigWallet.sol\":1397:1424  walletInfos[walletId].nonce */\n      0x03\n      add\n      sload\n        /* \"contracts/token/MultisigWallet.sol\":1389:1424  nonce = walletInfos[walletId].nonce */\n      swap2\n      pop\n        /* \"contracts/token/MultisigWallet.sol\":1444:1455  walletInfos */\n      0x00\n        /* \"contracts/token/MultisigWallet.sol\":1444:1465  walletInfos[walletId] */\n      dup1\n        /* \"contracts/token/MultisigWallet.sol\":1456:1464  walletId */\n      dup7\n        /* \"contracts/token/MultisigWallet.sol\":1444:1465  walletInfos[walletId] */\n      dup2\n      mstore\n      0x20\n      add\n      swap1\n      dup2\n      mstore\n      0x20\n      add\n      0x00\n      keccak256\n        /* \"contracts/token/MultisigWallet.sol\":1444:1473  walletInfos[walletId].balance */\n      0x04\n      add\n      sload\n        /* \"contracts/token/MultisigWallet.sol\":1434:1473  balance = walletInfos[walletId].balance */\n      swap1\n      pop\n        /* \"contracts/token/MultisigWallet.sol\":1069:1480  function walletInfo(bytes32 walletId) public view returns (address[] memory owners, uint256 threshold, uint256 nonce ,uint256 balance) {... */\n      swap2\n      swap4\n      pop\n      swap2\n      swap4\n      jump\t// out\n        /* \"contracts/token/MultisigWallet.sol\":6051:6653  function encodeTransactionData(... */\n    tag_44:\n        /* \"contracts/token/MultisigWallet.sol\":6425:6432  bytes32 */\n      0x00\n        /* \"contracts/token/MultisigWallet.sol\":6501:6509  walletId */\n      dup7\n        /* \"contracts/token/MultisigWallet.sol\":6527:6529  to */\n      dup7\n        /* \"contracts/token/MultisigWallet.sol\":6547:6552  value */\n      dup7\n        /* \"contracts/token/MultisigWallet.sol\":6570:6574  data */\n      dup7\n        /* \"contracts/token/MultisigWallet.sol\":6592:6597  nonce */\n      dup7\n        /* \"contracts/token/MultisigWallet.sol\":6615:6622  chainId */\n      dup7\n        /* \"contracts/token/MultisigWallet.sol\":6473:6636  abi.encode(... */\n      add(0x20, mload(0x40))\n      tag_159\n      swap7\n      swap6\n      swap5\n      swap4\n      swap3\n      swap2\n      swap1\n      tag_160\n      jump\t// in\n    tag_159:\n      mload(0x40)\n      0x20\n      dup2\n      dup4\n      sub\n      sub\n      dup2\n      mstore\n      swap1\n      0x40\n      mstore\n        /* \"contracts/token/MultisigWallet.sol\":6450:6646  keccak256(... */\n      dup1\n      mload\n      swap1\n      0x20\n      add\n      keccak256\n        /* \"contracts/token/MultisigWallet.sol\":6443:6646  return keccak256(... */\n      swap1\n      pop\n        /* \"contracts/token/MultisigWallet.sol\":6051:6653  function encodeTransactionData(... */\n      swap7\n      swap6\n      pop\n      pop\n      pop\n      pop\n      pop\n      pop\n      jump\t// out\n        /* \"contracts/token/MultisigWallet.sol\":7980:9429  function sigSplit(... */\n    tag_50:\n        /* \"contracts/token/MultisigWallet.sol\":8180:8189  bytes32 r */\n      0x00\n        /* \"contracts/token/MultisigWallet.sol\":8200:8209  bytes32 s */\n      dup1\n        /* \"contracts/token/MultisigWallet.sol\":8220:8227  uint8 v */\n      0x00\n        /* \"contracts/token/MultisigWallet.sol\":8565:8568  pos */\n      dup4\n        /* \"contracts/token/MultisigWallet.sol\":8559:8563  0x41 */\n      0x41\n        /* \"contracts/token/MultisigWallet.sol\":8555:8569  mul(0x41, pos) */\n      mul\n        /* \"contracts/token/MultisigWallet.sol\":8706:8710  0x20 */\n      0x20\n        /* \"contracts/token/MultisigWallet.sol\":8698:8704  sigPos */\n      dup2\n        /* \"contracts/token/MultisigWallet.sol\":8694:8711  add(sigPos, 0x20) */\n      add\n        /* \"contracts/token/MultisigWallet.sol\":8681:8692  _signatures */\n      dup7\n        /* \"contracts/token/MultisigWallet.sol\":8677:8712  add(_signatures, add(sigPos, 0x20)) */\n      add\n        /* \"contracts/token/MultisigWallet.sol\":8671:8713  mload(add(_signatures, add(sigPos, 0x20))) */\n      mload\n        /* \"contracts/token/MultisigWallet.sol\":8666:8713  r := mload(add(_signatures, add(sigPos, 0x20))) */\n      swap4\n      pop\n        /* \"contracts/token/MultisigWallet.sol\":8894:8898  0x40 */\n      0x40\n        /* \"contracts/token/MultisigWallet.sol\":8886:8892  sigPos */\n      dup2\n        /* \"contracts/token/MultisigWallet.sol\":8882:8899  add(sigPos, 0x40) */\n      add\n        /* \"contracts/token/MultisigWallet.sol\":8869:8880  _signatures */\n      dup7\n        /* \"contracts/token/MultisigWallet.sol\":8865:8900  add(_signatures, add(sigPos, 0x40)) */\n      add\n        /* \"contracts/token/MultisigWallet.sol\":8859:8901  mload(add(_signatures, add(sigPos, 0x40))) */\n      mload\n        /* \"contracts/token/MultisigWallet.sol\":8854:8901  s := mload(add(_signatures, add(sigPos, 0x40))) */\n      swap3\n      pop\n        /* \"contracts/token/MultisigWallet.sol\":9156:9160  0xff */\n      0xff\n        /* \"contracts/token/MultisigWallet.sol\":9147:9151  0x41 */\n      0x41\n        /* \"contracts/token/MultisigWallet.sol\":9139:9145  sigPos */\n      dup3\n        /* \"contracts/token/MultisigWallet.sol\":9135:9152  add(sigPos, 0x41) */\n      add\n        /* \"contracts/token/MultisigWallet.sol\":9122:9133  _signatures */\n      dup8\n        /* \"contracts/token/MultisigWallet.sol\":9118:9153  add(_signatures, add(sigPos, 0x41)) */\n      add\n        /* \"contracts/token/MultisigWallet.sol\":9112:9154  mload(add(_signatures, add(sigPos, 0x41))) */\n      mload\n        /* \"contracts/token/MultisigWallet.sol\":9108:9161  and(mload(add(_signatures, add(sigPos, 0x41))), 0xff) */\n      and\n        /* \"contracts/token/MultisigWallet.sol\":9103:9161  v := and(mload(add(_signatures, add(sigPos, 0x41))), 0xff) */\n      swap2\n      pop\n        /* \"contracts/token/MultisigWallet.sol\":8252:9423  {... */\n      pop\n        /* \"contracts/token/MultisigWallet.sol\":7980:9429  function sigSplit(... */\n      swap3\n      pop\n      swap3\n      pop\n      swap3\n      jump\t// out\n        /* \"contracts/token/MultisigWallet.sol\":1511:1713  function walletBalance(bytes32 walletId) public view returns (uint256) {... */\n    tag_56:\n        /* \"contracts/token/MultisigWallet.sol\":1573:1580  uint256 */\n      0x00\n        /* \"contracts/token/MultisigWallet.sol\":1600:1623  _walletExists(walletId) */\n      tag_163\n        /* \"contracts/token/MultisigWallet.sol\":1614:1622  walletId */\n      dup3\n        /* \"contracts/token/MultisigWallet.sol\":1600:1613  _walletExists */\n      tag_74\n        /* \"contracts/token/MultisigWallet.sol\":1600:1623  _walletExists(walletId) */\n      jump\t// in\n    tag_163:\n        /* \"contracts/token/MultisigWallet.sol\":1592:1660  require(_walletExists(walletId), \"walletBalance: wallet not exists\") */\n      tag_164\n      jumpi\n      mload(0x40)\n      0x08c379a000000000000000000000000000000000000000000000000000000000\n      dup2\n      mstore\n      0x04\n      add\n      tag_165\n      swap1\n      tag_166\n      jump\t// in\n    tag_165:\n      mload(0x40)\n      dup1\n      swap2\n      sub\n      swap1\n      revert\n    tag_164:\n        /* \"contracts/token/MultisigWallet.sol\":1677:1688  walletInfos */\n      0x00\n        /* \"contracts/token/MultisigWallet.sol\":1677:1698  walletInfos[walletId] */\n      dup1\n        /* \"contracts/token/MultisigWallet.sol\":1689:1697  walletId */\n      dup4\n        /* \"contracts/token/MultisigWallet.sol\":1677:1698  walletInfos[walletId] */\n      dup2\n      mstore\n      0x20\n      add\n      swap1\n      dup2\n      mstore\n      0x20\n      add\n      0x00\n      keccak256\n        /* \"contracts/token/MultisigWallet.sol\":1677:1706  walletInfos[walletId].balance */\n      0x04\n      add\n      sload\n        /* \"contracts/token/MultisigWallet.sol\":1670:1706  return walletInfos[walletId].balance */\n      swap1\n      pop\n        /* \"contracts/token/MultisigWallet.sol\":1511:1713  function walletBalance(bytes32 walletId) public view returns (uint256) {... */\n      swap2\n      swap1\n      pop\n      jump\t// out\n        /* \"contracts/token/MultisigWallet.sol\":6699:7955  function checkSignatures(bytes32 walletId, bytes32 txHash, bytes memory signatures) public view {... */\n    tag_63:\n        /* \"contracts/token/MultisigWallet.sol\":6805:6823  uint256 _threshold */\n      0x00\n        /* \"contracts/token/MultisigWallet.sol\":6826:6837  walletInfos */\n      dup1\n        /* \"contracts/token/MultisigWallet.sol\":6826:6847  walletInfos[walletId] */\n      0x00\n        /* \"contracts/token/MultisigWallet.sol\":6838:6846  walletId */\n      dup6\n        /* \"contracts/token/MultisigWallet.sol\":6826:6847  walletInfos[walletId] */\n      dup2\n      mstore\n      0x20\n      add\n      swap1\n      dup2\n      mstore\n      0x20\n      add\n      0x00\n      keccak256\n        /* \"contracts/token/MultisigWallet.sol\":6826:6857  walletInfos[walletId].threshold */\n      0x02\n      add\n      sload\n        /* \"contracts/token/MultisigWallet.sol\":6805:6857  uint256 _threshold = walletInfos[walletId].threshold */\n      swap1\n      pop\n        /* \"contracts/token/MultisigWallet.sol\":6888:6889  0 */\n      0x00\n        /* \"contracts/token/MultisigWallet.sol\":6875:6885  _threshold */\n      dup2\n        /* \"contracts/token/MultisigWallet.sol\":6875:6889  _threshold > 0 */\n      gt\n        /* \"contracts/token/MultisigWallet.sol\":6867:6934  require(_threshold > 0, \"checkSignatures: threshold must positive\") */\n      tag_168\n      jumpi\n      mload(0x40)\n      0x08c379a000000000000000000000000000000000000000000000000000000000\n      dup2\n      mstore\n      0x04\n      add\n      tag_169\n      swap1\n      tag_170\n      jump\t// in\n    tag_169:\n      mload(0x40)\n      dup1\n      swap2\n      sub\n      swap1\n      revert\n    tag_168:\n        /* \"contracts/token/MultisigWallet.sol\":6984:6986  65 */\n      0x41\n        /* \"contracts/token/MultisigWallet.sol\":6973:6983  _threshold */\n      dup2\n        /* \"contracts/token/MultisigWallet.sol\":6973:6986  _threshold*65 */\n      tag_171\n      swap2\n      swap1\n      tag_172\n      jump\t// in\n    tag_171:\n        /* \"contracts/token/MultisigWallet.sol\":6952:6962  signatures */\n      dup3\n        /* \"contracts/token/MultisigWallet.sol\":6952:6969  signatures.length */\n      mload\n        /* \"contracts/token/MultisigWallet.sol\":6952:6986  signatures.length >= _threshold*65 */\n      lt\n      iszero\n        /* \"contracts/token/MultisigWallet.sol\":6944:7036  require(signatures.length >= _threshold*65, \"checkSignatures: signatures length not enough\") */\n      tag_173\n      jumpi\n      mload(0x40)\n      0x08c379a000000000000000000000000000000000000000000000000000000000\n      dup2\n      mstore\n      0x04\n      add\n      tag_174\n      swap1\n      tag_175\n      jump\t// in\n    tag_174:\n      mload(0x40)\n      dup1\n      swap2\n      sub\n      swap1\n      revert\n    tag_173:\n        /* \"contracts/token/MultisigWallet.sol\":7276:7293  address lastOwner */\n      0x00\n        /* \"contracts/token/MultisigWallet.sol\":7316:7325  bytes32 r */\n      dup1\n        /* \"contracts/token/MultisigWallet.sol\":7335:7344  bytes32 s */\n      dup1\n        /* \"contracts/token/MultisigWallet.sol\":7354:7361  uint8 v */\n      0x00\n        /* \"contracts/token/MultisigWallet.sol\":7439:7448  uint256 i */\n      dup1\n        /* \"contracts/token/MultisigWallet.sol\":7449:7450  0 */\n      0x00\n        /* \"contracts/token/MultisigWallet.sol\":7439:7450  uint256 i=0 */\n      swap1\n      pop\n        /* \"contracts/token/MultisigWallet.sol\":7434:7949  for (uint256 i=0; i<_threshold; i++) {... */\n    tag_176:\n        /* \"contracts/token/MultisigWallet.sol\":7454:7464  _threshold */\n      dup6\n        /* \"contracts/token/MultisigWallet.sol\":7452:7453  i */\n      dup2\n        /* \"contracts/token/MultisigWallet.sol\":7452:7464  i<_threshold */\n      lt\n        /* \"contracts/token/MultisigWallet.sol\":7434:7949  for (uint256 i=0; i<_threshold; i++) {... */\n      iszero\n      tag_177\n      jumpi\n        /* \"contracts/token/MultisigWallet.sol\":7531:7554  sigSplit(signatures, i) */\n      tag_179\n        /* \"contracts/token/MultisigWallet.sol\":7540:7550  signatures */\n      dup8\n        /* \"contracts/token/MultisigWallet.sol\":7552:7553  i */\n      dup3\n        /* \"contracts/token/MultisigWallet.sol\":7531:7539  sigSplit */\n      tag_50\n        /* \"contracts/token/MultisigWallet.sol\":7531:7554  sigSplit(signatures, i) */\n      jump\t// in\n    tag_179:\n        /* \"contracts/token/MultisigWallet.sol\":7519:7554  (r, s, v) = sigSplit(signatures, i) */\n      dup1\n      swap5\n      pop\n      dup2\n      swap6\n      pop\n      dup3\n      swap7\n      pop\n      pop\n      pop\n      pop\n        /* \"contracts/token/MultisigWallet.sol\":7568:7588  address currentOwner */\n      0x00\n        /* \"contracts/token/MultisigWallet.sol\":7591:7754  ecrecover(... */\n      0x01\n        /* \"contracts/token/MultisigWallet.sol\":7702:7708  txHash */\n      dup10\n        /* \"contracts/token/MultisigWallet.sol\":7649:7709  abi.encodePacked(\"\\x19Ethereum Signed Message:\\n32\", txHash) */\n      add(0x20, mload(0x40))\n      tag_180\n      swap2\n      swap1\n      tag_181\n      jump\t// in\n    tag_180:\n      mload(0x40)\n      0x20\n      dup2\n      dup4\n      sub\n      sub\n      dup2\n      mstore\n      swap1\n      0x40\n      mstore\n        /* \"contracts/token/MultisigWallet.sol\":7618:7727  keccak256(... */\n      dup1\n      mload\n      swap1\n      0x20\n      add\n      keccak256\n        /* \"contracts/token/MultisigWallet.sol\":7746:7747  v */\n      dup5\n        /* \"contracts/token/MultisigWallet.sol\":7749:7750  r */\n      dup8\n        /* \"contracts/token/MultisigWallet.sol\":7752:7753  s */\n      dup8\n        /* \"contracts/token/MultisigWallet.sol\":7591:7754  ecrecover(... */\n      mload(0x40)\n      0x00\n      dup2\n      mstore\n      0x20\n      add\n      0x40\n      mstore\n      mload(0x40)\n      tag_182\n      swap5\n      swap4\n      swap3\n      swap2\n      swap1\n      tag_183\n      jump\t// in\n    tag_182:\n      0x20\n      mload(0x40)\n      0x20\n      dup2\n      sub\n      swap1\n      dup1\n      dup5\n      sub\n      swap1\n      dup6\n      gas\n      staticcall\n      iszero\n      dup1\n      iszero\n      tag_185\n      jumpi\n      returndatasize\n      0x00\n      dup1\n      returndatacopy\n      revert(0x00, returndatasize)\n    tag_185:\n      pop\n      pop\n      pop\n      mload(sub(mload(0x40), 0x20))\n        /* \"contracts/token/MultisigWallet.sol\":7568:7754  address currentOwner = ecrecover(... */\n      swap1\n      pop\n        /* \"contracts/token/MultisigWallet.sol\":7795:7804  lastOwner */\n      dup6\n        /* \"contracts/token/MultisigWallet.sol\":7780:7804  currentOwner > lastOwner */\n      0xffffffffffffffffffffffffffffffffffffffff\n      and\n        /* \"contracts/token/MultisigWallet.sol\":7780:7792  currentOwner */\n      dup2\n        /* \"contracts/token/MultisigWallet.sol\":7780:7804  currentOwner > lastOwner */\n      0xffffffffffffffffffffffffffffffffffffffff\n      and\n      gt\n        /* \"contracts/token/MultisigWallet.sol\":7780:7851  currentOwner > lastOwner && walletInfos[walletId].isOwner[currentOwner] */\n      dup1\n      iszero\n      tag_186\n      jumpi\n      pop\n        /* \"contracts/token/MultisigWallet.sol\":7808:7819  walletInfos */\n      0x00\n        /* \"contracts/token/MultisigWallet.sol\":7808:7829  walletInfos[walletId] */\n      dup1\n        /* \"contracts/token/MultisigWallet.sol\":7820:7828  walletId */\n      dup12\n        /* \"contracts/token/MultisigWallet.sol\":7808:7829  walletInfos[walletId] */\n      dup2\n      mstore\n      0x20\n      add\n      swap1\n      dup2\n      mstore\n      0x20\n      add\n      0x00\n      keccak256\n        /* \"contracts/token/MultisigWallet.sol\":7808:7837  walletInfos[walletId].isOwner */\n      0x01\n      add\n        /* \"contracts/token/MultisigWallet.sol\":7808:7851  walletInfos[walletId].isOwner[currentOwner] */\n      0x00\n        /* \"contracts/token/MultisigWallet.sol\":7838:7850  currentOwner */\n      dup3\n        /* \"contracts/token/MultisigWallet.sol\":7808:7851  walletInfos[walletId].isOwner[currentOwner] */\n      0xffffffffffffffffffffffffffffffffffffffff\n      and\n      0xffffffffffffffffffffffffffffffffffffffff\n      and\n      dup2\n      mstore\n      0x20\n      add\n      swap1\n      dup2\n      mstore\n      0x20\n      add\n      0x00\n      keccak256\n      0x00\n      swap1\n      sload\n      swap1\n      0x0100\n      exp\n      swap1\n      div\n      0xff\n      and\n        /* \"contracts/token/MultisigWallet.sol\":7780:7851  currentOwner > lastOwner && walletInfos[walletId].isOwner[currentOwner] */\n    tag_186:\n        /* \"contracts/token/MultisigWallet.sol\":7772:7896  require(currentOwner > lastOwner && walletInfos[walletId].isOwner[currentOwner], \"checkSignatures: ecrecover address error\") */\n      tag_187\n      jumpi\n      mload(0x40)\n      0x08c379a000000000000000000000000000000000000000000000000000000000\n      dup2\n      mstore\n      0x04\n      add\n      tag_188\n      swap1\n      tag_189\n      jump\t// in\n    tag_188:\n      mload(0x40)\n      dup1\n      swap2\n      sub\n      swap1\n      revert\n    tag_187:\n        /* \"contracts/token/MultisigWallet.sol\":7926:7938  currentOwner */\n      dup1\n        /* \"contracts/token/MultisigWallet.sol\":7914:7938  lastOwner = currentOwner */\n      swap6\n      pop\n        /* \"contracts/token/MultisigWallet.sol\":7471:7949  {... */\n      pop\n        /* \"contracts/token/MultisigWallet.sol\":7466:7469  i++ */\n      dup1\n      dup1\n      0x01\n      add\n      swap2\n      pop\n      pop\n        /* \"contracts/token/MultisigWallet.sol\":7434:7949  for (uint256 i=0; i<_threshold; i++) {... */\n      jump(tag_176)\n    tag_177:\n      pop\n        /* \"contracts/token/MultisigWallet.sol\":6795:7955  {... */\n      pop\n      pop\n      pop\n      pop\n      pop\n        /* \"contracts/token/MultisigWallet.sol\":6699:7955  function checkSignatures(bytes32 walletId, bytes32 txHash, bytes memory signatures) public view {... */\n      pop\n      pop\n      pop\n      jump\t// out\n        /* \"contracts/token/MultisigWallet.sol\":1738:2090  function walletRecharge(bytes32 walletId) external payable{... */\n    tag_66:\n        /* \"contracts/token/MultisigWallet.sol\":1832:1855  _walletExists(walletId) */\n      tag_191\n        /* \"contracts/token/MultisigWallet.sol\":1846:1854  walletId */\n      dup2\n        /* \"contracts/token/MultisigWallet.sol\":1832:1845  _walletExists */\n      tag_74\n        /* \"contracts/token/MultisigWallet.sol\":1832:1855  _walletExists(walletId) */\n      jump\t// in\n    tag_191:\n        /* \"contracts/token/MultisigWallet.sol\":1824:1893  require(_walletExists(walletId), \"walletRecharge: wallet not exists\") */\n      tag_192\n      jumpi\n      mload(0x40)\n      0x08c379a000000000000000000000000000000000000000000000000000000000\n      dup2\n      mstore\n      0x04\n      add\n      tag_193\n      swap1\n      tag_194\n      jump\t// in\n    tag_193:\n      mload(0x40)\n      dup1\n      swap2\n      sub\n      swap1\n      revert\n    tag_192:\n        /* \"contracts/token/MultisigWallet.sol\":1923:1924  0 */\n      0x00\n        /* \"contracts/token/MultisigWallet.sol\":1911:1920  msg.value */\n      callvalue\n        /* \"contracts/token/MultisigWallet.sol\":1911:1924  msg.value > 0 */\n      gt\n        /* \"contracts/token/MultisigWallet.sol\":1903:1961  require(msg.value > 0, \"walletRecharge: payment required\") */\n      tag_195\n      jumpi\n      mload(0x40)\n      0x08c379a000000000000000000000000000000000000000000000000000000000\n      dup2\n      mstore\n      0x04\n      add\n      tag_196\n      swap1\n      tag_197\n      jump\t// in\n    tag_196:\n      mload(0x40)\n      dup1\n      swap2\n      sub\n      swap1\n      revert\n    tag_195:\n        /* \"contracts/token/MultisigWallet.sol\":2023:2032  msg.value */\n      callvalue\n        /* \"contracts/token/MultisigWallet.sol\":1990:2001  walletInfos */\n      0x00\n        /* \"contracts/token/MultisigWallet.sol\":1990:2011  walletInfos[walletId] */\n      dup1\n        /* \"contracts/token/MultisigWallet.sol\":2002:2010  walletId */\n      dup4\n        /* \"contracts/token/MultisigWallet.sol\":1990:2011  walletInfos[walletId] */\n      dup2\n      mstore\n      0x20\n      add\n      swap1\n      dup2\n      mstore\n      0x20\n      add\n      0x00\n      keccak256\n        /* \"contracts/token/MultisigWallet.sol\":1990:2019  walletInfos[walletId].balance */\n      0x04\n      add\n      0x00\n        /* \"contracts/token/MultisigWallet.sol\":1990:2032  walletInfos[walletId].balance += msg.value */\n      dup3\n      dup3\n      sload\n      tag_198\n      swap2\n      swap1\n      tag_106\n      jump\t// in\n    tag_198:\n      swap3\n      pop\n      pop\n      dup2\n      swap1\n      sstore\n      pop\n        /* \"contracts/token/MultisigWallet.sol\":2063:2071  walletId */\n      dup1\n        /* \"contracts/token/MultisigWallet.sol\":2047:2083  WalletRecharged(walletId, msg.value) */\n      0x3a2a22576eb1f878c2ea76f459f6518a52da5b82dcc9a09c579282919a6d393d\n        /* \"contracts/token/MultisigWallet.sol\":2073:2082  msg.value */\n      callvalue\n        /* \"contracts/token/MultisigWallet.sol\":2047:2083  WalletRecharged(walletId, msg.value) */\n      mload(0x40)\n      tag_199\n      swap2\n      swap1\n      tag_58\n      jump\t// in\n    tag_199:\n      mload(0x40)\n      dup1\n      swap2\n      sub\n      swap1\n      log2\n        /* \"contracts/token/MultisigWallet.sol\":1738:2090  function walletRecharge(bytes32 walletId) external payable{... */\n      pop\n      jump\t// out\n        /* \"contracts/token/MultisigWallet.sol\":3632:4215  function remeberWalletAddress(address[] memory _owners) public pure returns (bytes32) {... */\n    tag_70:\n        /* \"contracts/token/MultisigWallet.sol\":3709:3716  bytes32 */\n      0x00\n        /* \"contracts/token/MultisigWallet.sol\":3728:3742  uint256 length */\n      dup1\n        /* \"contracts/token/MultisigWallet.sol\":3745:3752  _owners */\n      dup3\n        /* \"contracts/token/MultisigWallet.sol\":3745:3759  _owners.length */\n      mload\n        /* \"contracts/token/MultisigWallet.sol\":3728:3759  uint256 length = _owners.length */\n      swap1\n      pop\n        /* \"contracts/token/MultisigWallet.sol\":3786:3787  0 */\n      0x00\n        /* \"contracts/token/MultisigWallet.sol\":3777:3783  length */\n      dup2\n        /* \"contracts/token/MultisigWallet.sol\":3777:3787  length > 0 */\n      gt\n        /* \"contracts/token/MultisigWallet.sol\":3769:3819  require(length > 0, \"createWallet: empty address\") */\n      tag_201\n      jumpi\n      mload(0x40)\n      0x08c379a000000000000000000000000000000000000000000000000000000000\n      dup2\n      mstore\n      0x04\n      add\n      tag_202\n      swap1\n      tag_126\n      jump\t// in\n    tag_202:\n      mload(0x40)\n      dup1\n      swap2\n      sub\n      swap1\n      revert\n    tag_201:\n        /* \"contracts/token/MultisigWallet.sol\":3864:3883  sortOwners(_owners) */\n      tag_203\n        /* \"contracts/token/MultisigWallet.sol\":3875:3882  _owners */\n      dup4\n        /* \"contracts/token/MultisigWallet.sol\":3864:3874  sortOwners */\n      tag_24\n        /* \"contracts/token/MultisigWallet.sol\":3864:3883  sortOwners(_owners) */\n      jump\t// in\n    tag_203:\n        /* \"contracts/token/MultisigWallet.sol\":3854:3883  _owners = sortOwners(_owners) */\n      swap3\n      pop\n        /* \"contracts/token/MultisigWallet.sol\":3931:3940  uint256 i */\n      0x00\n        /* \"contracts/token/MultisigWallet.sol\":3926:4134  for (uint256 i = 0; i < length - 1; i++) {... */\n    tag_204:\n        /* \"contracts/token/MultisigWallet.sol\":3959:3960  1 */\n      0x01\n        /* \"contracts/token/MultisigWallet.sol\":3950:3956  length */\n      dup3\n        /* \"contracts/token/MultisigWallet.sol\":3950:3960  length - 1 */\n      tag_207\n      swap2\n      swap1\n      tag_85\n      jump\t// in\n    tag_207:\n        /* \"contracts/token/MultisigWallet.sol\":3946:3947  i */\n      dup2\n        /* \"contracts/token/MultisigWallet.sol\":3946:3960  i < length - 1 */\n      lt\n        /* \"contracts/token/MultisigWallet.sol\":3926:4134  for (uint256 i = 0; i < length - 1; i++) {... */\n      iszero\n      tag_205\n      jumpi\n        /* \"contracts/token/MultisigWallet.sol\":3999:4006  _owners */\n      dup4\n        /* \"contracts/token/MultisigWallet.sol\":4011:4012  1 */\n      0x01\n        /* \"contracts/token/MultisigWallet.sol\":4007:4008  i */\n      dup3\n        /* \"contracts/token/MultisigWallet.sol\":4007:4012  i + 1 */\n      tag_208\n      swap2\n      swap1\n      tag_106\n      jump\t// in\n    tag_208:\n        /* \"contracts/token/MultisigWallet.sol\":3999:4013  _owners[i + 1] */\n      dup2\n      mload\n      dup2\n      lt\n      tag_209\n      jumpi\n      tag_210\n      tag_109\n      jump\t// in\n    tag_210:\n    tag_209:\n      0x20\n      mul\n      0x20\n      add\n      add\n      mload\n        /* \"contracts/token/MultisigWallet.sol\":3985:4013  _owners[i] == _owners[i + 1] */\n      0xffffffffffffffffffffffffffffffffffffffff\n      and\n        /* \"contracts/token/MultisigWallet.sol\":3985:3992  _owners */\n      dup5\n        /* \"contracts/token/MultisigWallet.sol\":3993:3994  i */\n      dup3\n        /* \"contracts/token/MultisigWallet.sol\":3985:3995  _owners[i] */\n      dup2\n      mload\n      dup2\n      lt\n      tag_211\n      jumpi\n      tag_212\n      tag_109\n      jump\t// in\n    tag_212:\n    tag_211:\n      0x20\n      mul\n      0x20\n      add\n      add\n      mload\n        /* \"contracts/token/MultisigWallet.sol\":3985:4013  _owners[i] == _owners[i + 1] */\n      0xffffffffffffffffffffffffffffffffffffffff\n      and\n      sub\n        /* \"contracts/token/MultisigWallet.sol\":3981:4124  if (_owners[i] == _owners[i + 1]) {... */\n      tag_213\n      jumpi\n        /* \"contracts/token/MultisigWallet.sol\":4059:4109  revert(\"remeberWalletAddress: duplicated address\") */\n      mload(0x40)\n      0x08c379a000000000000000000000000000000000000000000000000000000000\n      dup2\n      mstore\n      0x04\n      add\n      tag_214\n      swap1\n      tag_215\n      jump\t// in\n    tag_214:\n      mload(0x40)\n      dup1\n      swap2\n      sub\n      swap1\n      revert\n        /* \"contracts/token/MultisigWallet.sol\":3981:4124  if (_owners[i] == _owners[i + 1]) {... */\n    tag_213:\n        /* \"contracts/token/MultisigWallet.sol\":3962:3965  i++ */\n      dup1\n      dup1\n      0x01\n      add\n      swap2\n      pop\n      pop\n        /* \"contracts/token/MultisigWallet.sol\":3926:4134  for (uint256 i = 0; i < length - 1; i++) {... */\n      jump(tag_204)\n    tag_205:\n      pop\n        /* \"contracts/token/MultisigWallet.sol\":4199:4206  _owners */\n      dup3\n        /* \"contracts/token/MultisigWallet.sol\":4182:4207  abi.encodePacked(_owners) */\n      add(0x20, mload(0x40))\n      tag_216\n      swap2\n      swap1\n      tag_217\n      jump\t// in\n    tag_216:\n      mload(0x40)\n      0x20\n      dup2\n      dup4\n      sub\n      sub\n      dup2\n      mstore\n      swap1\n      0x40\n      mstore\n        /* \"contracts/token/MultisigWallet.sol\":4172:4208  keccak256(abi.encodePacked(_owners)) */\n      dup1\n      mload\n      swap1\n      0x20\n      add\n      keccak256\n        /* \"contracts/token/MultisigWallet.sol\":4165:4208  return keccak256(abi.encodePacked(_owners)) */\n      swap2\n      pop\n      pop\n        /* \"contracts/token/MultisigWallet.sol\":3632:4215  function remeberWalletAddress(address[] memory _owners) public pure returns (bytes32) {... */\n      swap2\n      swap1\n      pop\n      jump\t// out\n        /* \"contracts/token/MultisigWallet.sol\":2150:2335  function _walletExists(bytes32 walletId) private view returns (bool) {... */\n    tag_74:\n        /* \"contracts/token/MultisigWallet.sol\":2213:2217  bool */\n      0x00\n        /* \"contracts/token/MultisigWallet.sol\":2268:2269  0 */\n      dup1\n        /* \"contracts/token/MultisigWallet.sol\":2233:2244  walletInfos */\n      0x00\n        /* \"contracts/token/MultisigWallet.sol\":2233:2254  walletInfos[walletId] */\n      dup1\n        /* \"contracts/token/MultisigWallet.sol\":2245:2253  walletId */\n      dup5\n        /* \"contracts/token/MultisigWallet.sol\":2233:2254  walletInfos[walletId] */\n      dup2\n      mstore\n      0x20\n      add\n      swap1\n      dup2\n      mstore\n      0x20\n      add\n      0x00\n      keccak256\n        /* \"contracts/token/MultisigWallet.sol\":2233:2264  walletInfos[walletId].threshold */\n      0x02\n      add\n      sload\n        /* \"contracts/token/MultisigWallet.sol\":2233:2269  walletInfos[walletId].threshold == 0 */\n      sub\n        /* \"contracts/token/MultisigWallet.sol\":2229:2308  if (walletInfos[walletId].threshold == 0) {... */\n      tag_219\n      jumpi\n        /* \"contracts/token/MultisigWallet.sol\":2292:2297  false */\n      0x00\n        /* \"contracts/token/MultisigWallet.sol\":2285:2297  return false */\n      swap1\n      pop\n      jump(tag_218)\n        /* \"contracts/token/MultisigWallet.sol\":2229:2308  if (walletInfos[walletId].threshold == 0) {... */\n    tag_219:\n        /* \"contracts/token/MultisigWallet.sol\":2324:2328  true */\n      0x01\n        /* \"contracts/token/MultisigWallet.sol\":2317:2328  return true */\n      swap1\n      pop\n        /* \"contracts/token/MultisigWallet.sol\":2150:2335  function _walletExists(bytes32 walletId) private view returns (bool) {... */\n    tag_218:\n      swap2\n      swap1\n      pop\n      jump\t// out\n        /* \"#utility.yul\":7:82   */\n    tag_220:\n        /* \"#utility.yul\":40:46   */\n      0x00\n        /* \"#utility.yul\":73:75   */\n      0x40\n        /* \"#utility.yul\":67:76   */\n      mload\n        /* \"#utility.yul\":57:76   */\n      swap1\n      pop\n        /* \"#utility.yul\":7:82   */\n      swap1\n      jump\t// out\n        /* \"#utility.yul\":88:205   */\n    tag_221:\n        /* \"#utility.yul\":197:198   */\n      0x00\n        /* \"#utility.yul\":194:195   */\n      dup1\n        /* \"#utility.yul\":187:199   */\n      revert\n        /* \"#utility.yul\":211:328   */\n    tag_222:\n        /* \"#utility.yul\":320:321   */\n      0x00\n        /* \"#utility.yul\":317:318   */\n      dup1\n        /* \"#utility.yul\":310:322   */\n      revert\n        /* \"#utility.yul\":334:411   */\n    tag_223:\n        /* \"#utility.yul\":371:378   */\n      0x00\n        /* \"#utility.yul\":400:405   */\n      dup2\n        /* \"#utility.yul\":389:405   */\n      swap1\n      pop\n        /* \"#utility.yul\":334:411   */\n      swap2\n      swap1\n      pop\n      jump\t// out\n        /* \"#utility.yul\":417:539   */\n    tag_224:\n        /* \"#utility.yul\":490:514   */\n      tag_316\n        /* \"#utility.yul\":508:513   */\n      dup2\n        /* \"#utility.yul\":490:514   */\n      tag_223\n      jump\t// in\n    tag_316:\n        /* \"#utility.yul\":483:488   */\n      dup2\n        /* \"#utility.yul\":480:515   */\n      eq\n        /* \"#utility.yul\":470:533   */\n      tag_317\n      jumpi\n        /* \"#utility.yul\":529:530   */\n      0x00\n        /* \"#utility.yul\":526:527   */\n      dup1\n        /* \"#utility.yul\":519:531   */\n      revert\n        /* \"#utility.yul\":470:533   */\n    tag_317:\n        /* \"#utility.yul\":417:539   */\n      pop\n      jump\t// out\n        /* \"#utility.yul\":545:684   */\n    tag_225:\n        /* \"#utility.yul\":591:596   */\n      0x00\n        /* \"#utility.yul\":629:635   */\n      dup2\n        /* \"#utility.yul\":616:636   */\n      calldataload\n        /* \"#utility.yul\":607:636   */\n      swap1\n      pop\n        /* \"#utility.yul\":645:678   */\n      tag_319\n        /* \"#utility.yul\":672:677   */\n      dup2\n        /* \"#utility.yul\":645:678   */\n      tag_224\n      jump\t// in\n    tag_319:\n        /* \"#utility.yul\":545:684   */\n      swap3\n      swap2\n      pop\n      pop\n      jump\t// out\n        /* \"#utility.yul\":690:816   */\n    tag_226:\n        /* \"#utility.yul\":727:734   */\n      0x00\n        /* \"#utility.yul\":767:809   */\n      0xffffffffffffffffffffffffffffffffffffffff\n        /* \"#utility.yul\":760:765   */\n      dup3\n        /* \"#utility.yul\":756:810   */\n      and\n        /* \"#utility.yul\":745:810   */\n      swap1\n      pop\n        /* \"#utility.yul\":690:816   */\n      swap2\n      swap1\n      pop\n      jump\t// out\n        /* \"#utility.yul\":822:918   */\n    tag_227:\n        /* \"#utility.yul\":859:866   */\n      0x00\n        /* \"#utility.yul\":888:912   */\n      tag_322\n        /* \"#utility.yul\":906:911   */\n      dup3\n        /* \"#utility.yul\":888:912   */\n      tag_226\n      jump\t// in\n    tag_322:\n        /* \"#utility.yul\":877:912   */\n      swap1\n      pop\n        /* \"#utility.yul\":822:918   */\n      swap2\n      swap1\n      pop\n      jump\t// out\n        /* \"#utility.yul\":924:1046   */\n    tag_228:\n        /* \"#utility.yul\":997:1021   */\n      tag_324\n        /* \"#utility.yul\":1015:1020   */\n      dup2\n        /* \"#utility.yul\":997:1021   */\n      tag_227\n      jump\t// in\n    tag_324:\n        /* \"#utility.yul\":990:995   */\n      dup2\n        /* \"#utility.yul\":987:1022   */\n      eq\n        /* \"#utility.yul\":977:1040   */\n      tag_325\n      jumpi\n        /* \"#utility.yul\":1036:1037   */\n      0x00\n        /* \"#utility.yul\":1033:1034   */\n      dup1\n        /* \"#utility.yul\":1026:1038   */\n      revert\n        /* \"#utility.yul\":977:1040   */\n    tag_325:\n        /* \"#utility.yul\":924:1046   */\n      pop\n      jump\t// out\n        /* \"#utility.yul\":1052:1191   */\n    tag_229:\n        /* \"#utility.yul\":1098:1103   */\n      0x00\n        /* \"#utility.yul\":1136:1142   */\n      dup2\n        /* \"#utility.yul\":1123:1143   */\n      calldataload\n        /* \"#utility.yul\":1114:1143   */\n      swap1\n      pop\n        /* \"#utility.yul\":1152:1185   */\n      tag_327\n        /* \"#utility.yul\":1179:1184   */\n      dup2\n        /* \"#utility.yul\":1152:1185   */\n      tag_228\n      jump\t// in\n    tag_327:\n        /* \"#utility.yul\":1052:1191   */\n      swap3\n      swap2\n      pop\n      pop\n      jump\t// out\n        /* \"#utility.yul\":1197:1274   */\n    tag_230:\n        /* \"#utility.yul\":1234:1241   */\n      0x00\n        /* \"#utility.yul\":1263:1268   */\n      dup2\n        /* \"#utility.yul\":1252:1268   */\n      swap1\n      pop\n        /* \"#utility.yul\":1197:1274   */\n      swap2\n      swap1\n      pop\n      jump\t// out\n        /* \"#utility.yul\":1280:1402   */\n    tag_231:\n        /* \"#utility.yul\":1353:1377   */\n      tag_330\n        /* \"#utility.yul\":1371:1376   */\n      dup2\n        /* \"#utility.yul\":1353:1377   */\n      tag_230\n      jump\t// in\n    tag_330:\n        /* \"#utility.yul\":1346:1351   */\n      dup2\n        /* \"#utility.yul\":1343:1378   */\n      eq\n        /* \"#utility.yul\":1333:1396   */\n      tag_331\n      jumpi\n        /* \"#utility.yul\":1392:1393   */\n      0x00\n        /* \"#utility.yul\":1389:1390   */\n      dup1\n        /* \"#utility.yul\":1382:1394   */\n      revert\n        /* \"#utility.yul\":1333:1396   */\n    tag_331:\n        /* \"#utility.yul\":1280:1402   */\n      pop\n      jump\t// out\n        /* \"#utility.yul\":1408:1547   */\n    tag_232:\n        /* \"#utility.yul\":1454:1459   */\n      0x00\n        /* \"#utility.yul\":1492:1498   */\n      dup2\n        /* \"#utility.yul\":1479:1499   */\n      calldataload\n        /* \"#utility.yul\":1470:1499   */\n      swap1\n      pop\n        /* \"#utility.yul\":1508:1541   */\n      tag_333\n        /* \"#utility.yul\":1535:1540   */\n      dup2\n        /* \"#utility.yul\":1508:1541   */\n      tag_231\n      jump\t// in\n    tag_333:\n        /* \"#utility.yul\":1408:1547   */\n      swap3\n      swap2\n      pop\n      pop\n      jump\t// out\n        /* \"#utility.yul\":1553:1670   */\n    tag_233:\n        /* \"#utility.yul\":1662:1663   */\n      0x00\n        /* \"#utility.yul\":1659:1660   */\n      dup1\n        /* \"#utility.yul\":1652:1664   */\n      revert\n        /* \"#utility.yul\":1676:1793   */\n    tag_234:\n        /* \"#utility.yul\":1785:1786   */\n      0x00\n        /* \"#utility.yul\":1782:1783   */\n      dup1\n        /* \"#utility.yul\":1775:1787   */\n      revert\n        /* \"#utility.yul\":1799:1901   */\n    tag_235:\n        /* \"#utility.yul\":1840:1846   */\n      0x00\n        /* \"#utility.yul\":1891:1893   */\n      0x1f\n        /* \"#utility.yul\":1887:1894   */\n      not\n        /* \"#utility.yul\":1882:1884   */\n      0x1f\n        /* \"#utility.yul\":1875:1880   */\n      dup4\n        /* \"#utility.yul\":1871:1885   */\n      add\n        /* \"#utility.yul\":1867:1895   */\n      and\n        /* \"#utility.yul\":1857:1895   */\n      swap1\n      pop\n        /* \"#utility.yul\":1799:1901   */\n      swap2\n      swap1\n      pop\n      jump\t// out\n        /* \"#utility.yul\":1907:2087   */\n    tag_236:\n        /* \"#utility.yul\":1955:2032   */\n      0x4e487b7100000000000000000000000000000000000000000000000000000000\n        /* \"#utility.yul\":1952:1953   */\n      0x00\n        /* \"#utility.yul\":1945:2033   */\n      mstore\n        /* \"#utility.yul\":2052:2056   */\n      0x41\n        /* \"#utility.yul\":2049:2050   */\n      0x04\n        /* \"#utility.yul\":2042:2057   */\n      mstore\n        /* \"#utility.yul\":2076:2080   */\n      0x24\n        /* \"#utility.yul\":2073:2074   */\n      0x00\n        /* \"#utility.yul\":2066:2081   */\n      revert\n        /* \"#utility.yul\":2093:2374   */\n    tag_237:\n        /* \"#utility.yul\":2176:2203   */\n      tag_339\n        /* \"#utility.yul\":2198:2202   */\n      dup3\n        /* \"#utility.yul\":2176:2203   */\n      tag_235\n      jump\t// in\n    tag_339:\n        /* \"#utility.yul\":2168:2174   */\n      dup2\n        /* \"#utility.yul\":2164:2204   */\n      add\n        /* \"#utility.yul\":2306:2312   */\n      dup2\n        /* \"#utility.yul\":2294:2304   */\n      dup2\n        /* \"#utility.yul\":2291:2313   */\n      lt\n        /* \"#utility.yul\":2270:2288   */\n      0xffffffffffffffff\n        /* \"#utility.yul\":2258:2268   */\n      dup3\n        /* \"#utility.yul\":2255:2289   */\n      gt\n        /* \"#utility.yul\":2252:2314   */\n      or\n        /* \"#utility.yul\":2249:2337   */\n      iszero\n      tag_340\n      jumpi\n        /* \"#utility.yul\":2317:2335   */\n      tag_341\n      tag_236\n      jump\t// in\n    tag_341:\n        /* \"#utility.yul\":2249:2337   */\n    tag_340:\n        /* \"#utility.yul\":2357:2367   */\n      dup1\n        /* \"#utility.yul\":2353:2355   */\n      0x40\n        /* \"#utility.yul\":2346:2368   */\n      mstore\n        /* \"#utility.yul\":2136:2374   */\n      pop\n        /* \"#utility.yul\":2093:2374   */\n      pop\n      pop\n      jump\t// out\n        /* \"#utility.yul\":2380:2509   */\n    tag_238:\n        /* \"#utility.yul\":2414:2420   */\n      0x00\n        /* \"#utility.yul\":2441:2461   */\n      tag_343\n      tag_220\n      jump\t// in\n    tag_343:\n        /* \"#utility.yul\":2431:2461   */\n      swap1\n      pop\n        /* \"#utility.yul\":2470:2503   */\n      tag_344\n        /* \"#utility.yul\":2498:2502   */\n      dup3\n        /* \"#utility.yul\":2490:2496   */\n      dup3\n        /* \"#utility.yul\":2470:2503   */\n      tag_237\n      jump\t// in\n    tag_344:\n        /* \"#utility.yul\":2380:2509   */\n      swap2\n      swap1\n      pop\n      jump\t// out\n        /* \"#utility.yul\":2515:2822   */\n    tag_239:\n        /* \"#utility.yul\":2576:2580   */\n      0x00\n        /* \"#utility.yul\":2666:2684   */\n      0xffffffffffffffff\n        /* \"#utility.yul\":2658:2664   */\n      dup3\n        /* \"#utility.yul\":2655:2685   */\n      gt\n        /* \"#utility.yul\":2652:2708   */\n      iszero\n      tag_346\n      jumpi\n        /* \"#utility.yul\":2688:2706   */\n      tag_347\n      tag_236\n      jump\t// in\n    tag_347:\n        /* \"#utility.yul\":2652:2708   */\n    tag_346:\n        /* \"#utility.yul\":2726:2755   */\n      tag_348\n        /* \"#utility.yul\":2748:2754   */\n      dup3\n        /* \"#utility.yul\":2726:2755   */\n      tag_235\n      jump\t// in\n    tag_348:\n        /* \"#utility.yul\":2718:2755   */\n      swap1\n      pop\n        /* \"#utility.yul\":2810:2814   */\n      0x20\n        /* \"#utility.yul\":2804:2808   */\n      dup2\n        /* \"#utility.yul\":2800:2815   */\n      add\n        /* \"#utility.yul\":2792:2815   */\n      swap1\n      pop\n        /* \"#utility.yul\":2515:2822   */\n      swap2\n      swap1\n      pop\n      jump\t// out\n        /* \"#utility.yul\":2828:2976   */\n    tag_240:\n        /* \"#utility.yul\":2926:2932   */\n      dup3\n        /* \"#utility.yul\":2921:2924   */\n      dup2\n        /* \"#utility.yul\":2916:2919   */\n      dup4\n        /* \"#utility.yul\":2903:2933   */\n      calldatacopy\n        /* \"#utility.yul\":2967:2968   */\n      0x00\n        /* \"#utility.yul\":2958:2964   */\n      dup4\n        /* \"#utility.yul\":2953:2956   */\n      dup4\n        /* \"#utility.yul\":2949:2965   */\n      add\n        /* \"#utility.yul\":2942:2969   */\n      mstore\n        /* \"#utility.yul\":2828:2976   */\n      pop\n      pop\n      pop\n      jump\t// out\n        /* \"#utility.yul\":2982:3405   */\n    tag_241:\n        /* \"#utility.yul\":3059:3064   */\n      0x00\n        /* \"#utility.yul\":3084:3149   */\n      tag_351\n        /* \"#utility.yul\":3100:3148   */\n      tag_352\n        /* \"#utility.yul\":3141:3147   */\n      dup5\n        /* \"#utility.yul\":3100:3148   */\n      tag_239\n      jump\t// in\n    tag_352:\n        /* \"#utility.yul\":3084:3149   */\n      tag_238\n      jump\t// in\n    tag_351:\n        /* \"#utility.yul\":3075:3149   */\n      swap1\n      pop\n        /* \"#utility.yul\":3172:3178   */\n      dup3\n        /* \"#utility.yul\":3165:3170   */\n      dup2\n        /* \"#utility.yul\":3158:3179   */\n      mstore\n        /* \"#utility.yul\":3210:3214   */\n      0x20\n        /* \"#utility.yul\":3203:3208   */\n      dup2\n        /* \"#utility.yul\":3199:3215   */\n      add\n        /* \"#utility.yul\":3248:3251   */\n      dup5\n        /* \"#utility.yul\":3239:3245   */\n      dup5\n        /* \"#utility.yul\":3234:3237   */\n      dup5\n        /* \"#utility.yul\":3230:3246   */\n      add\n        /* \"#utility.yul\":3227:3252   */\n      gt\n        /* \"#utility.yul\":3224:3336   */\n      iszero\n      tag_353\n      jumpi\n        /* \"#utility.yul\":3255:3334   */\n      tag_354\n      tag_234\n      jump\t// in\n    tag_354:\n        /* \"#utility.yul\":3224:3336   */\n    tag_353:\n        /* \"#utility.yul\":3345:3399   */\n      tag_355\n        /* \"#utility.yul\":3392:3398   */\n      dup5\n        /* \"#utility.yul\":3387:3390   */\n      dup3\n        /* \"#utility.yul\":3382:3385   */\n      dup6\n        /* \"#utility.yul\":3345:3399   */\n      tag_240\n      jump\t// in\n    tag_355:\n        /* \"#utility.yul\":3065:3405   */\n      pop\n        /* \"#utility.yul\":2982:3405   */\n      swap4\n      swap3\n      pop\n      pop\n      pop\n      jump\t// out\n        /* \"#utility.yul\":3424:3762   */\n    tag_242:\n        /* \"#utility.yul\":3479:3484   */\n      0x00\n        /* \"#utility.yul\":3528:3531   */\n      dup3\n        /* \"#utility.yul\":3521:3525   */\n      0x1f\n        /* \"#utility.yul\":3513:3519   */\n      dup4\n        /* \"#utility.yul\":3509:3526   */\n      add\n        /* \"#utility.yul\":3505:3532   */\n      slt\n        /* \"#utility.yul\":3495:3617   */\n      tag_357\n      jumpi\n        /* \"#utility.yul\":3536:3615   */\n      tag_358\n      tag_233\n      jump\t// in\n    tag_358:\n        /* \"#utility.yul\":3495:3617   */\n    tag_357:\n        /* \"#utility.yul\":3653:3659   */\n      dup2\n        /* \"#utility.yul\":3640:3660   */\n      calldataload\n        /* \"#utility.yul\":3678:3756   */\n      tag_359\n        /* \"#utility.yul\":3752:3755   */\n      dup5\n        /* \"#utility.yul\":3744:3750   */\n      dup3\n        /* \"#utility.yul\":3737:3741   */\n      0x20\n        /* \"#utility.yul\":3729:3735   */\n      dup7\n        /* \"#utility.yul\":3725:3742   */\n      add\n        /* \"#utility.yul\":3678:3756   */\n      tag_241\n      jump\t// in\n    tag_359:\n        /* \"#utility.yul\":3669:3756   */\n      swap2\n      pop\n        /* \"#utility.yul\":3485:3762   */\n      pop\n        /* \"#utility.yul\":3424:3762   */\n      swap3\n      swap2\n      pop\n      pop\n      jump\t// out\n        /* \"#utility.yul\":3768:5035   */\n    tag_16:\n        /* \"#utility.yul\":3881:3887   */\n      0x00\n        /* \"#utility.yul\":3889:3895   */\n      dup1\n        /* \"#utility.yul\":3897:3903   */\n      0x00\n        /* \"#utility.yul\":3905:3911   */\n      dup1\n        /* \"#utility.yul\":3913:3919   */\n      0x00\n        /* \"#utility.yul\":3962:3965   */\n      0xa0\n        /* \"#utility.yul\":3950:3959   */\n      dup7\n        /* \"#utility.yul\":3941:3948   */\n      dup9\n        /* \"#utility.yul\":3937:3960   */\n      sub\n        /* \"#utility.yul\":3933:3966   */\n      slt\n        /* \"#utility.yul\":3930:4050   */\n      iszero\n      tag_361\n      jumpi\n        /* \"#utility.yul\":3969:4048   */\n      tag_362\n      tag_221\n      jump\t// in\n    tag_362:\n        /* \"#utility.yul\":3930:4050   */\n    tag_361:\n        /* \"#utility.yul\":4089:4090   */\n      0x00\n        /* \"#utility.yul\":4114:4167   */\n      tag_363\n        /* \"#utility.yul\":4159:4166   */\n      dup9\n        /* \"#utility.yul\":4150:4156   */\n      dup3\n        /* \"#utility.yul\":4139:4148   */\n      dup10\n        /* \"#utility.yul\":4135:4157   */\n      add\n        /* \"#utility.yul\":4114:4167   */\n      tag_225\n      jump\t// in\n    tag_363:\n        /* \"#utility.yul\":4104:4167   */\n      swap6\n      pop\n        /* \"#utility.yul\":4060:4177   */\n      pop\n        /* \"#utility.yul\":4216:4218   */\n      0x20\n        /* \"#utility.yul\":4242:4295   */\n      tag_364\n        /* \"#utility.yul\":4287:4294   */\n      dup9\n        /* \"#utility.yul\":4278:4284   */\n      dup3\n        /* \"#utility.yul\":4267:4276   */\n      dup10\n        /* \"#utility.yul\":4263:4285   */\n      add\n        /* \"#utility.yul\":4242:4295   */\n      tag_229\n      jump\t// in\n    tag_364:\n        /* \"#utility.yul\":4232:4295   */\n      swap5\n      pop\n        /* \"#utility.yul\":4187:4305   */\n      pop\n        /* \"#utility.yul\":4344:4346   */\n      0x40\n        /* \"#utility.yul\":4370:4423   */\n      tag_365\n        /* \"#utility.yul\":4415:4422   */\n      dup9\n        /* \"#utility.yul\":4406:4412   */\n      dup3\n        /* \"#utility.yul\":4395:4404   */\n      dup10\n        /* \"#utility.yul\":4391:4413   */\n      add\n        /* \"#utility.yul\":4370:4423   */\n      tag_232\n      jump\t// in\n    tag_365:\n        /* \"#utility.yul\":4360:4423   */\n      swap4\n      pop\n        /* \"#utility.yul\":4315:4433   */\n      pop\n        /* \"#utility.yul\":4500:4502   */\n      0x60\n        /* \"#utility.yul\":4489:4498   */\n      dup7\n        /* \"#utility.yul\":4485:4503   */\n      add\n        /* \"#utility.yul\":4472:4504   */\n      calldataload\n        /* \"#utility.yul\":4531:4549   */\n      0xffffffffffffffff\n        /* \"#utility.yul\":4523:4529   */\n      dup2\n        /* \"#utility.yul\":4520:4550   */\n      gt\n        /* \"#utility.yul\":4517:4634   */\n      iszero\n      tag_366\n      jumpi\n        /* \"#utility.yul\":4553:4632   */\n      tag_367\n      tag_222\n      jump\t// in\n    tag_367:\n        /* \"#utility.yul\":4517:4634   */\n    tag_366:\n        /* \"#utility.yul\":4658:4720   */\n      tag_368\n        /* \"#utility.yul\":4712:4719   */\n      dup9\n        /* \"#utility.yul\":4703:4709   */\n      dup3\n        /* \"#utility.yul\":4692:4701   */\n      dup10\n        /* \"#utility.yul\":4688:4710   */\n      add\n        /* \"#utility.yul\":4658:4720   */\n      tag_242\n      jump\t// in\n    tag_368:\n        /* \"#utility.yul\":4648:4720   */\n      swap3\n      pop\n        /* \"#utility.yul\":4443:4730   */\n      pop\n        /* \"#utility.yul\":4797:4800   */\n      0x80\n        /* \"#utility.yul\":4786:4795   */\n      dup7\n        /* \"#utility.yul\":4782:4801   */\n      add\n        /* \"#utility.yul\":4769:4802   */\n      calldataload\n        /* \"#utility.yul\":4829:4847   */\n      0xffffffffffffffff\n        /* \"#utility.yul\":4821:4827   */\n      dup2\n        /* \"#utility.yul\":4818:4848   */\n      gt\n        /* \"#utility.yul\":4815:4932   */\n      iszero\n      tag_369\n      jumpi\n        /* \"#utility.yul\":4851:4930   */\n      tag_370\n      tag_222\n      jump\t// in\n    tag_370:\n        /* \"#utility.yul\":4815:4932   */\n    tag_369:\n        /* \"#utility.yul\":4956:5018   */\n      tag_371\n        /* \"#utility.yul\":5010:5017   */\n      dup9\n        /* \"#utility.yul\":5001:5007   */\n      dup3\n        /* \"#utility.yul\":4990:4999   */\n      dup10\n        /* \"#utility.yul\":4986:5008   */\n      add\n        /* \"#utility.yul\":4956:5018   */\n      tag_242\n      jump\t// in\n    tag_371:\n        /* \"#utility.yul\":4946:5018   */\n      swap2\n      pop\n        /* \"#utility.yul\":4740:5028   */\n      pop\n        /* \"#utility.yul\":3768:5035   */\n      swap3\n      swap6\n      pop\n      swap3\n      swap6\n      swap1\n      swap4\n      pop\n      jump\t// out\n        /* \"#utility.yul\":5041:5131   */\n    tag_243:\n        /* \"#utility.yul\":5075:5082   */\n      0x00\n        /* \"#utility.yul\":5118:5123   */\n      dup2\n        /* \"#utility.yul\":5111:5124   */\n      iszero\n        /* \"#utility.yul\":5104:5125   */\n      iszero\n        /* \"#utility.yul\":5093:5125   */\n      swap1\n      pop\n        /* \"#utility.yul\":5041:5131   */\n      swap2\n      swap1\n      pop\n      jump\t// out\n        /* \"#utility.yul\":5137:5246   */\n    tag_244:\n        /* \"#utility.yul\":5218:5239   */\n      tag_374\n        /* \"#utility.yul\":5233:5238   */\n      dup2\n        /* \"#utility.yul\":5218:5239   */\n      tag_243\n      jump\t// in\n    tag_374:\n        /* \"#utility.yul\":5213:5216   */\n      dup3\n        /* \"#utility.yul\":5206:5240   */\n      mstore\n        /* \"#utility.yul\":5137:5246   */\n      pop\n      pop\n      jump\t// out\n        /* \"#utility.yul\":5252:5462   */\n    tag_19:\n        /* \"#utility.yul\":5339:5343   */\n      0x00\n        /* \"#utility.yul\":5377:5379   */\n      0x20\n        /* \"#utility.yul\":5366:5375   */\n      dup3\n        /* \"#utility.yul\":5362:5380   */\n      add\n        /* \"#utility.yul\":5354:5380   */\n      swap1\n      pop\n        /* \"#utility.yul\":5390:5455   */\n      tag_376\n        /* \"#utility.yul\":5452:5453   */\n      0x00\n        /* \"#utility.yul\":5441:5450   */\n      dup4\n        /* \"#utility.yul\":5437:5454   */\n      add\n        /* \"#utility.yul\":5428:5434   */\n      dup5\n        /* \"#utility.yul\":5390:5455   */\n      tag_244\n      jump\t// in\n    tag_376:\n        /* \"#utility.yul\":5252:5462   */\n      swap3\n      swap2\n      pop\n      pop\n      jump\t// out\n        /* \"#utility.yul\":5468:5779   */\n    tag_245:\n        /* \"#utility.yul\":5545:5549   */\n      0x00\n        /* \"#utility.yul\":5635:5653   */\n      0xffffffffffffffff\n        /* \"#utility.yul\":5627:5633   */\n      dup3\n        /* \"#utility.yul\":5624:5654   */\n      gt\n        /* \"#utility.yul\":5621:5677   */\n      iszero\n      tag_378\n      jumpi\n        /* \"#utility.yul\":5657:5675   */\n      tag_379\n      tag_236\n      jump\t// in\n    tag_379:\n        /* \"#utility.yul\":5621:5677   */\n    tag_378:\n        /* \"#utility.yul\":5707:5711   */\n      0x20\n        /* \"#utility.yul\":5699:5705   */\n      dup3\n        /* \"#utility.yul\":5695:5712   */\n      mul\n        /* \"#utility.yul\":5687:5712   */\n      swap1\n      pop\n        /* \"#utility.yul\":5767:5771   */\n      0x20\n        /* \"#utility.yul\":5761:5765   */\n      dup2\n        /* \"#utility.yul\":5757:5772   */\n      add\n        /* \"#utility.yul\":5749:5772   */\n      swap1\n      pop\n        /* \"#utility.yul\":5468:5779   */\n      swap2\n      swap1\n      pop\n      jump\t// out\n        /* \"#utility.yul\":5785:5902   */\n    tag_246:\n        /* \"#utility.yul\":5894:5895   */\n      0x00\n        /* \"#utility.yul\":5891:5892   */\n      dup1\n        /* \"#utility.yul\":5884:5896   */\n      revert\n        /* \"#utility.yul\":5925:6635   */\n    tag_247:\n        /* \"#utility.yul\":6021:6026   */\n      0x00\n        /* \"#utility.yul\":6046:6127   */\n      tag_382\n        /* \"#utility.yul\":6062:6126   */\n      tag_383\n        /* \"#utility.yul\":6119:6125   */\n      dup5\n        /* \"#utility.yul\":6062:6126   */\n      tag_245\n      jump\t// in\n    tag_383:\n        /* \"#utility.yul\":6046:6127   */\n      tag_238\n      jump\t// in\n    tag_382:\n        /* \"#utility.yul\":6037:6127   */\n      swap1\n      pop\n        /* \"#utility.yul\":6147:6152   */\n      dup1\n        /* \"#utility.yul\":6176:6182   */\n      dup4\n        /* \"#utility.yul\":6169:6174   */\n      dup3\n        /* \"#utility.yul\":6162:6183   */\n      mstore\n        /* \"#utility.yul\":6210:6214   */\n      0x20\n        /* \"#utility.yul\":6203:6208   */\n      dup3\n        /* \"#utility.yul\":6199:6215   */\n      add\n        /* \"#utility.yul\":6192:6215   */\n      swap1\n      pop\n        /* \"#utility.yul\":6263:6267   */\n      0x20\n        /* \"#utility.yul\":6255:6261   */\n      dup5\n        /* \"#utility.yul\":6251:6268   */\n      mul\n        /* \"#utility.yul\":6243:6249   */\n      dup4\n        /* \"#utility.yul\":6239:6269   */\n      add\n        /* \"#utility.yul\":6292:6295   */\n      dup6\n        /* \"#utility.yul\":6284:6290   */\n      dup2\n        /* \"#utility.yul\":6281:6296   */\n      gt\n        /* \"#utility.yul\":6278:6400   */\n      iszero\n      tag_384\n      jumpi\n        /* \"#utility.yul\":6311:6390   */\n      tag_385\n      tag_246\n      jump\t// in\n    tag_385:\n        /* \"#utility.yul\":6278:6400   */\n    tag_384:\n        /* \"#utility.yul\":6426:6432   */\n      dup4\n        /* \"#utility.yul\":6409:6629   */\n    tag_386:\n        /* \"#utility.yul\":6443:6449   */\n      dup2\n        /* \"#utility.yul\":6438:6441   */\n      dup2\n        /* \"#utility.yul\":6435:6450   */\n      lt\n        /* \"#utility.yul\":6409:6629   */\n      iszero\n      tag_388\n      jumpi\n        /* \"#utility.yul\":6518:6521   */\n      dup1\n        /* \"#utility.yul\":6547:6584   */\n      tag_389\n        /* \"#utility.yul\":6580:6583   */\n      dup9\n        /* \"#utility.yul\":6568:6578   */\n      dup3\n        /* \"#utility.yul\":6547:6584   */\n      tag_229\n      jump\t// in\n    tag_389:\n        /* \"#utility.yul\":6542:6545   */\n      dup5\n        /* \"#utility.yul\":6535:6585   */\n      mstore\n        /* \"#utility.yul\":6614:6618   */\n      0x20\n        /* \"#utility.yul\":6609:6612   */\n      dup5\n        /* \"#utility.yul\":6605:6619   */\n      add\n        /* \"#utility.yul\":6598:6619   */\n      swap4\n      pop\n        /* \"#utility.yul\":6485:6629   */\n      pop\n        /* \"#utility.yul\":6469:6473   */\n      0x20\n        /* \"#utility.yul\":6464:6467   */\n      dup2\n        /* \"#utility.yul\":6460:6474   */\n      add\n        /* \"#utility.yul\":6453:6474   */\n      swap1\n      pop\n        /* \"#utility.yul\":6409:6629   */\n      jump(tag_386)\n    tag_388:\n        /* \"#utility.yul\":6413:6434   */\n      pop\n        /* \"#utility.yul\":6027:6635   */\n      pop\n      pop\n        /* \"#utility.yul\":5925:6635   */\n      swap4\n      swap3\n      pop\n      pop\n      pop\n      jump\t// out\n        /* \"#utility.yul\":6658:7028   */\n    tag_248:\n        /* \"#utility.yul\":6729:6734   */\n      0x00\n        /* \"#utility.yul\":6778:6781   */\n      dup3\n        /* \"#utility.yul\":6771:6775   */\n      0x1f\n        /* \"#utility.yul\":6763:6769   */\n      dup4\n        /* \"#utility.yul\":6759:6776   */\n      add\n        /* \"#utility.yul\":6755:6782   */\n      slt\n        /* \"#utility.yul\":6745:6867   */\n      tag_391\n      jumpi\n        /* \"#utility.yul\":6786:6865   */\n      tag_392\n      tag_233\n      jump\t// in\n    tag_392:\n        /* \"#utility.yul\":6745:6867   */\n    tag_391:\n        /* \"#utility.yul\":6903:6909   */\n      dup2\n        /* \"#utility.yul\":6890:6910   */\n      calldataload\n        /* \"#utility.yul\":6928:7022   */\n      tag_393\n        /* \"#utility.yul\":7018:7021   */\n      dup5\n        /* \"#utility.yul\":7010:7016   */\n      dup3\n        /* \"#utility.yul\":7003:7007   */\n      0x20\n        /* \"#utility.yul\":6995:7001   */\n      dup7\n        /* \"#utility.yul\":6991:7008   */\n      add\n        /* \"#utility.yul\":6928:7022   */\n      tag_247\n      jump\t// in\n    tag_393:\n        /* \"#utility.yul\":6919:7022   */\n      swap2\n      pop\n        /* \"#utility.yul\":6735:7028   */\n      pop\n        /* \"#utility.yul\":6658:7028   */\n      swap3\n      swap2\n      pop\n      pop\n      jump\t// out\n        /* \"#utility.yul\":7034:7573   */\n    tag_23:\n        /* \"#utility.yul\":7118:7124   */\n      0x00\n        /* \"#utility.yul\":7167:7169   */\n      0x20\n        /* \"#utility.yul\":7155:7164   */\n      dup3\n        /* \"#utility.yul\":7146:7153   */\n      dup5\n        /* \"#utility.yul\":7142:7165   */\n      sub\n        /* \"#utility.yul\":7138:7170   */\n      slt\n        /* \"#utility.yul\":7135:7254   */\n      iszero\n      tag_395\n      jumpi\n        /* \"#utility.yul\":7173:7252   */\n      tag_396\n      tag_221\n      jump\t// in\n    tag_396:\n        /* \"#utility.yul\":7135:7254   */\n    tag_395:\n        /* \"#utility.yul\":7321:7322   */\n      0x00\n        /* \"#utility.yul\":7310:7319   */\n      dup3\n        /* \"#utility.yul\":7306:7323   */\n      add\n        /* \"#utility.yul\":7293:7324   */\n      calldataload\n        /* \"#utility.yul\":7351:7369   */\n      0xffffffffffffffff\n        /* \"#utility.yul\":7343:7349   */\n      dup2\n        /* \"#utility.yul\":7340:7370   */\n      gt\n        /* \"#utility.yul\":7337:7454   */\n      iszero\n      tag_397\n      jumpi\n        /* \"#utility.yul\":7373:7452   */\n      tag_398\n      tag_222\n      jump\t// in\n    tag_398:\n        /* \"#utility.yul\":7337:7454   */\n    tag_397:\n        /* \"#utility.yul\":7478:7556   */\n      tag_399\n        /* \"#utility.yul\":7548:7555   */\n      dup5\n        /* \"#utility.yul\":7539:7545   */\n      dup3\n        /* \"#utility.yul\":7528:7537   */\n      dup6\n        /* \"#utility.yul\":7524:7546   */\n      add\n        /* \"#utility.yul\":7478:7556   */\n      tag_248\n      jump\t// in\n    tag_399:\n        /* \"#utility.yul\":7468:7556   */\n      swap2\n      pop\n        /* \"#utility.yul\":7264:7566   */\n      pop\n        /* \"#utility.yul\":7034:7573   */\n      swap3\n      swap2\n      pop\n      pop\n      jump\t// out\n        /* \"#utility.yul\":7579:7693   */\n    tag_249:\n        /* \"#utility.yul\":7646:7652   */\n      0x00\n        /* \"#utility.yul\":7680:7685   */\n      dup2\n        /* \"#utility.yul\":7674:7686   */\n      mload\n        /* \"#utility.yul\":7664:7686   */\n      swap1\n      pop\n        /* \"#utility.yul\":7579:7693   */\n      swap2\n      swap1\n      pop\n      jump\t// out\n        /* \"#utility.yul\":7699:7883   */\n    tag_250:\n        /* \"#utility.yul\":7798:7809   */\n      0x00\n        /* \"#utility.yul\":7832:7838   */\n      dup3\n        /* \"#utility.yul\":7827:7830   */\n      dup3\n        /* \"#utility.yul\":7820:7839   */\n      mstore\n        /* \"#utility.yul\":7872:7876   */\n      0x20\n        /* \"#utility.yul\":7867:7870   */\n      dup3\n        /* \"#utility.yul\":7863:7877   */\n      add\n        /* \"#utility.yul\":7848:7877   */\n      swap1\n      pop\n        /* \"#utility.yul\":7699:7883   */\n      swap3\n      swap2\n      pop\n      pop\n      jump\t// out\n        /* \"#utility.yul\":7889:8021   */\n    tag_251:\n        /* \"#utility.yul\":7956:7960   */\n      0x00\n        /* \"#utility.yul\":7979:7982   */\n      dup2\n        /* \"#utility.yul\":7971:7982   */\n      swap1\n      pop\n        /* \"#utility.yul\":8009:8013   */\n      0x20\n        /* \"#utility.yul\":8004:8007   */\n      dup3\n        /* \"#utility.yul\":8000:8014   */\n      add\n        /* \"#utility.yul\":7992:8014   */\n      swap1\n      pop\n        /* \"#utility.yul\":7889:8021   */\n      swap2\n      swap1\n      pop\n      jump\t// out\n        /* \"#utility.yul\":8027:8135   */\n    tag_252:\n        /* \"#utility.yul\":8104:8128   */\n      tag_404\n        /* \"#utility.yul\":8122:8127   */\n      dup2\n        /* \"#utility.yul\":8104:8128   */\n      tag_227\n      jump\t// in\n    tag_404:\n        /* \"#utility.yul\":8099:8102   */\n      dup3\n        /* \"#utility.yul\":8092:8129   */\n      mstore\n        /* \"#utility.yul\":8027:8135   */\n      pop\n      pop\n      jump\t// out\n        /* \"#utility.yul\":8141:8320   */\n    tag_253:\n        /* \"#utility.yul\":8210:8220   */\n      0x00\n        /* \"#utility.yul\":8231:8277   */\n      tag_406\n        /* \"#utility.yul\":8273:8276   */\n      dup4\n        /* \"#utility.yul\":8265:8271   */\n      dup4\n        /* \"#utility.yul\":8231:8277   */\n      tag_252\n      jump\t// in\n    tag_406:\n        /* \"#utility.yul\":8309:8313   */\n      0x20\n        /* \"#utility.yul\":8304:8307   */\n      dup4\n        /* \"#utility.yul\":8300:8314   */\n      add\n        /* \"#utility.yul\":8286:8314   */\n      swap1\n      pop\n        /* \"#utility.yul\":8141:8320   */\n      swap3\n      swap2\n      pop\n      pop\n      jump\t// out\n        /* \"#utility.yul\":8326:8439   */\n    tag_254:\n        /* \"#utility.yul\":8396:8400   */\n      0x00\n        /* \"#utility.yul\":8428:8432   */\n      0x20\n        /* \"#utility.yul\":8423:8426   */\n      dup3\n        /* \"#utility.yul\":8419:8433   */\n      add\n        /* \"#utility.yul\":8411:8433   */\n      swap1\n      pop\n        /* \"#utility.yul\":8326:8439   */\n      swap2\n      swap1\n      pop\n      jump\t// out\n        /* \"#utility.yul\":8475:9207   */\n    tag_255:\n        /* \"#utility.yul\":8594:8597   */\n      0x00\n        /* \"#utility.yul\":8623:8677   */\n      tag_409\n        /* \"#utility.yul\":8671:8676   */\n      dup3\n        /* \"#utility.yul\":8623:8677   */\n      tag_249\n      jump\t// in\n    tag_409:\n        /* \"#utility.yul\":8693:8779   */\n      tag_410\n        /* \"#utility.yul\":8772:8778   */\n      dup2\n        /* \"#utility.yul\":8767:8770   */\n      dup6\n        /* \"#utility.yul\":8693:8779   */\n      tag_250\n      jump\t// in\n    tag_410:\n        /* \"#utility.yul\":8686:8779   */\n      swap4\n      pop\n        /* \"#utility.yul\":8803:8859   */\n      tag_411\n        /* \"#utility.yul\":8853:8858   */\n      dup4\n        /* \"#utility.yul\":8803:8859   */\n      tag_251\n      jump\t// in\n    tag_411:\n        /* \"#utility.yul\":8882:8889   */\n      dup1\n        /* \"#utility.yul\":8913:8914   */\n      0x00\n        /* \"#utility.yul\":8898:9182   */\n    tag_412:\n        /* \"#utility.yul\":8923:8929   */\n      dup4\n        /* \"#utility.yul\":8920:8921   */\n      dup2\n        /* \"#utility.yul\":8917:8930   */\n      lt\n        /* \"#utility.yul\":8898:9182   */\n      iszero\n      tag_414\n      jumpi\n        /* \"#utility.yul\":8999:9005   */\n      dup2\n        /* \"#utility.yul\":8993:9006   */\n      mload\n        /* \"#utility.yul\":9026:9089   */\n      tag_415\n        /* \"#utility.yul\":9085:9088   */\n      dup9\n        /* \"#utility.yul\":9070:9083   */\n      dup3\n        /* \"#utility.yul\":9026:9089   */\n      tag_253\n      jump\t// in\n    tag_415:\n        /* \"#utility.yul\":9019:9089   */\n      swap8\n      pop\n        /* \"#utility.yul\":9112:9172   */\n      tag_416\n        /* \"#utility.yul\":9165:9171   */\n      dup4\n        /* \"#utility.yul\":9112:9172   */\n      tag_254\n      jump\t// in\n    tag_416:\n        /* \"#utility.yul\":9102:9172   */\n      swap3\n      pop\n        /* \"#utility.yul\":8958:9182   */\n      pop\n        /* \"#utility.yul\":8945:8946   */\n      0x01\n        /* \"#utility.yul\":8942:8943   */\n      dup2\n        /* \"#utility.yul\":8938:8947   */\n      add\n        /* \"#utility.yul\":8933:8947   */\n      swap1\n      pop\n        /* \"#utility.yul\":8898:9182   */\n      jump(tag_412)\n    tag_414:\n        /* \"#utility.yul\":8902:8916   */\n      pop\n        /* \"#utility.yul\":9198:9201   */\n      dup6\n        /* \"#utility.yul\":9191:9201   */\n      swap4\n      pop\n        /* \"#utility.yul\":8599:9207   */\n      pop\n      pop\n      pop\n        /* \"#utility.yul\":8475:9207   */\n      swap3\n      swap2\n      pop\n      pop\n      jump\t// out\n        /* \"#utility.yul\":9213:9586   */\n    tag_26:\n        /* \"#utility.yul\":9356:9360   */\n      0x00\n        /* \"#utility.yul\":9394:9396   */\n      0x20\n        /* \"#utility.yul\":9383:9392   */\n      dup3\n        /* \"#utility.yul\":9379:9397   */\n      add\n        /* \"#utility.yul\":9371:9397   */\n      swap1\n      pop\n        /* \"#utility.yul\":9443:9452   */\n      dup2\n        /* \"#utility.yul\":9437:9441   */\n      dup2\n        /* \"#utility.yul\":9433:9453   */\n      sub\n        /* \"#utility.yul\":9429:9430   */\n      0x00\n        /* \"#utility.yul\":9418:9427   */\n      dup4\n        /* \"#utility.yul\":9414:9431   */\n      add\n        /* \"#utility.yul\":9407:9454   */\n      mstore\n        /* \"#utility.yul\":9471:9579   */\n      tag_418\n        /* \"#utility.yul\":9574:9578   */\n      dup2\n        /* \"#utility.yul\":9565:9571   */\n      dup5\n        /* \"#utility.yul\":9471:9579   */\n      tag_255\n      jump\t// in\n    tag_418:\n        /* \"#utility.yul\":9463:9579   */\n      swap1\n      pop\n        /* \"#utility.yul\":9213:9586   */\n      swap3\n      swap2\n      pop\n      pop\n      jump\t// out\n        /* \"#utility.yul\":9592:10276   */\n    tag_29:\n        /* \"#utility.yul\":9685:9691   */\n      0x00\n        /* \"#utility.yul\":9693:9699   */\n      dup1\n        /* \"#utility.yul\":9742:9744   */\n      0x40\n        /* \"#utility.yul\":9730:9739   */\n      dup4\n        /* \"#utility.yul\":9721:9728   */\n      dup6\n        /* \"#utility.yul\":9717:9740   */\n      sub\n        /* \"#utility.yul\":9713:9745   */\n      slt\n        /* \"#utility.yul\":9710:9829   */\n      iszero\n      tag_420\n      jumpi\n        /* \"#utility.yul\":9748:9827   */\n      tag_421\n      tag_221\n      jump\t// in\n    tag_421:\n        /* \"#utility.yul\":9710:9829   */\n    tag_420:\n        /* \"#utility.yul\":9896:9897   */\n      0x00\n        /* \"#utility.yul\":9885:9894   */\n      dup4\n        /* \"#utility.yul\":9881:9898   */\n      add\n        /* \"#utility.yul\":9868:9899   */\n      calldataload\n        /* \"#utility.yul\":9926:9944   */\n      0xffffffffffffffff\n        /* \"#utility.yul\":9918:9924   */\n      dup2\n        /* \"#utility.yul\":9915:9945   */\n      gt\n        /* \"#utility.yul\":9912:10029   */\n      iszero\n      tag_422\n      jumpi\n        /* \"#utility.yul\":9948:10027   */\n      tag_423\n      tag_222\n      jump\t// in\n    tag_423:\n        /* \"#utility.yul\":9912:10029   */\n    tag_422:\n        /* \"#utility.yul\":10053:10131   */\n      tag_424\n        /* \"#utility.yul\":10123:10130   */\n      dup6\n        /* \"#utility.yul\":10114:10120   */\n      dup3\n        /* \"#utility.yul\":10103:10112   */\n      dup7\n        /* \"#utility.yul\":10099:10121   */\n      add\n        /* \"#utility.yul\":10053:10131   */\n      tag_248\n      jump\t// in\n    tag_424:\n        /* \"#utility.yul\":10043:10131   */\n      swap3\n      pop\n        /* \"#utility.yul\":9839:10141   */\n      pop\n        /* \"#utility.yul\":10180:10182   */\n      0x20\n        /* \"#utility.yul\":10206:10259   */\n      tag_425\n        /* \"#utility.yul\":10251:10258   */\n      dup6\n        /* \"#utility.yul\":10242:10248   */\n      dup3\n        /* \"#utility.yul\":10231:10240   */\n      dup7\n        /* \"#utility.yul\":10227:10249   */\n      add\n        /* \"#utility.yul\":10206:10259   */\n      tag_232\n      jump\t// in\n    tag_425:\n        /* \"#utility.yul\":10196:10259   */\n      swap2\n      pop\n        /* \"#utility.yul\":10151:10269   */\n      pop\n        /* \"#utility.yul\":9592:10276   */\n      swap3\n      pop\n      swap3\n      swap1\n      pop\n      jump\t// out\n        /* \"#utility.yul\":10282:10400   */\n    tag_256:\n        /* \"#utility.yul\":10369:10393   */\n      tag_427\n        /* \"#utility.yul\":10387:10392   */\n      dup2\n        /* \"#utility.yul\":10369:10393   */\n      tag_223\n      jump\t// in\n    tag_427:\n        /* \"#utility.yul\":10364:10367   */\n      dup3\n        /* \"#utility.yul\":10357:10394   */\n      mstore\n        /* \"#utility.yul\":10282:10400   */\n      pop\n      pop\n      jump\t// out\n        /* \"#utility.yul\":10406:10628   */\n    tag_32:\n        /* \"#utility.yul\":10499:10503   */\n      0x00\n        /* \"#utility.yul\":10537:10539   */\n      0x20\n        /* \"#utility.yul\":10526:10535   */\n      dup3\n        /* \"#utility.yul\":10522:10540   */\n      add\n        /* \"#utility.yul\":10514:10540   */\n      swap1\n      pop\n        /* \"#utility.yul\":10550:10621   */\n      tag_429\n        /* \"#utility.yul\":10618:10619   */\n      0x00\n        /* \"#utility.yul\":10607:10616   */\n      dup4\n        /* \"#utility.yul\":10603:10620   */\n      add\n        /* \"#utility.yul\":10594:10600   */\n      dup5\n        /* \"#utility.yul\":10550:10621   */\n      tag_256\n      jump\t// in\n    tag_429:\n        /* \"#utility.yul\":10406:10628   */\n      swap3\n      swap2\n      pop\n      pop\n      jump\t// out\n        /* \"#utility.yul\":10634:10963   */\n    tag_36:\n        /* \"#utility.yul\":10693:10699   */\n      0x00\n        /* \"#utility.yul\":10742:10744   */\n      0x20\n        /* \"#utility.yul\":10730:10739   */\n      dup3\n        /* \"#utility.yul\":10721:10728   */\n      dup5\n        /* \"#utility.yul\":10717:10740   */\n      sub\n        /* \"#utility.yul\":10713:10745   */\n      slt\n        /* \"#utility.yul\":10710:10829   */\n      iszero\n      tag_431\n      jumpi\n        /* \"#utility.yul\":10748:10827   */\n      tag_432\n      tag_221\n      jump\t// in\n    tag_432:\n        /* \"#utility.yul\":10710:10829   */\n    tag_431:\n        /* \"#utility.yul\":10868:10869   */\n      0x00\n        /* \"#utility.yul\":10893:10946   */\n      tag_433\n        /* \"#utility.yul\":10938:10945   */\n      dup5\n        /* \"#utility.yul\":10929:10935   */\n      dup3\n        /* \"#utility.yul\":10918:10927   */\n      dup6\n        /* \"#utility.yul\":10914:10936   */\n      add\n        /* \"#utility.yul\":10893:10946   */\n      tag_225\n      jump\t// in\n    tag_433:\n        /* \"#utility.yul\":10883:10946   */\n      swap2\n      pop\n        /* \"#utility.yul\":10839:10956   */\n      pop\n        /* \"#utility.yul\":10634:10963   */\n      swap3\n      swap2\n      pop\n      pop\n      jump\t// out\n        /* \"#utility.yul\":10969:11087   */\n    tag_257:\n        /* \"#utility.yul\":11056:11080   */\n      tag_435\n        /* \"#utility.yul\":11074:11079   */\n      dup2\n        /* \"#utility.yul\":11056:11080   */\n      tag_230\n      jump\t// in\n    tag_435:\n        /* \"#utility.yul\":11051:11054   */\n      dup3\n        /* \"#utility.yul\":11044:11081   */\n      mstore\n        /* \"#utility.yul\":10969:11087   */\n      pop\n      pop\n      jump\t// out\n        /* \"#utility.yul\":11093:11797   */\n    tag_39:\n        /* \"#utility.yul\":11320:11324   */\n      0x00\n        /* \"#utility.yul\":11358:11361   */\n      0x80\n        /* \"#utility.yul\":11347:11356   */\n      dup3\n        /* \"#utility.yul\":11343:11362   */\n      add\n        /* \"#utility.yul\":11335:11362   */\n      swap1\n      pop\n        /* \"#utility.yul\":11408:11417   */\n      dup2\n        /* \"#utility.yul\":11402:11406   */\n      dup2\n        /* \"#utility.yul\":11398:11418   */\n      sub\n        /* \"#utility.yul\":11394:11395   */\n      0x00\n        /* \"#utility.yul\":11383:11392   */\n      dup4\n        /* \"#utility.yul\":11379:11396   */\n      add\n        /* \"#utility.yul\":11372:11419   */\n      mstore\n        /* \"#utility.yul\":11436:11544   */\n      tag_437\n        /* \"#utility.yul\":11539:11543   */\n      dup2\n        /* \"#utility.yul\":11530:11536   */\n      dup8\n        /* \"#utility.yul\":11436:11544   */\n      tag_255\n      jump\t// in\n    tag_437:\n        /* \"#utility.yul\":11428:11544   */\n      swap1\n      pop\n        /* \"#utility.yul\":11554:11626   */\n      tag_438\n        /* \"#utility.yul\":11622:11624   */\n      0x20\n        /* \"#utility.yul\":11611:11620   */\n      dup4\n        /* \"#utility.yul\":11607:11625   */\n      add\n        /* \"#utility.yul\":11598:11604   */\n      dup7\n        /* \"#utility.yul\":11554:11626   */\n      tag_257\n      jump\t// in\n    tag_438:\n        /* \"#utility.yul\":11636:11708   */\n      tag_439\n        /* \"#utility.yul\":11704:11706   */\n      0x40\n        /* \"#utility.yul\":11693:11702   */\n      dup4\n        /* \"#utility.yul\":11689:11707   */\n      add\n        /* \"#utility.yul\":11680:11686   */\n      dup6\n        /* \"#utility.yul\":11636:11708   */\n      tag_257\n      jump\t// in\n    tag_439:\n        /* \"#utility.yul\":11718:11790   */\n      tag_440\n        /* \"#utility.yul\":11786:11788   */\n      0x60\n        /* \"#utility.yul\":11775:11784   */\n      dup4\n        /* \"#utility.yul\":11771:11789   */\n      add\n        /* \"#utility.yul\":11762:11768   */\n      dup5\n        /* \"#utility.yul\":11718:11790   */\n      tag_257\n      jump\t// in\n    tag_440:\n        /* \"#utility.yul\":11093:11797   */\n      swap6\n      swap5\n      pop\n      pop\n      pop\n      pop\n      pop\n      jump\t// out\n        /* \"#utility.yul\":11803:13038   */\n    tag_43:\n        /* \"#utility.yul\":11916:11922   */\n      0x00\n        /* \"#utility.yul\":11924:11930   */\n      dup1\n        /* \"#utility.yul\":11932:11938   */\n      0x00\n        /* \"#utility.yul\":11940:11946   */\n      dup1\n        /* \"#utility.yul\":11948:11954   */\n      0x00\n        /* \"#utility.yul\":11956:11962   */\n      dup1\n        /* \"#utility.yul\":12005:12008   */\n      0xc0\n        /* \"#utility.yul\":11993:12002   */\n      dup8\n        /* \"#utility.yul\":11984:11991   */\n      dup10\n        /* \"#utility.yul\":11980:12003   */\n      sub\n        /* \"#utility.yul\":11976:12009   */\n      slt\n        /* \"#utility.yul\":11973:12093   */\n      iszero\n      tag_442\n      jumpi\n        /* \"#utility.yul\":12012:12091   */\n      tag_443\n      tag_221\n      jump\t// in\n    tag_443:\n        /* \"#utility.yul\":11973:12093   */\n    tag_442:\n        /* \"#utility.yul\":12132:12133   */\n      0x00\n        /* \"#utility.yul\":12157:12210   */\n      tag_444\n        /* \"#utility.yul\":12202:12209   */\n      dup10\n        /* \"#utility.yul\":12193:12199   */\n      dup3\n        /* \"#utility.yul\":12182:12191   */\n      dup11\n        /* \"#utility.yul\":12178:12200   */\n      add\n        /* \"#utility.yul\":12157:12210   */\n      tag_225\n      jump\t// in\n    tag_444:\n        /* \"#utility.yul\":12147:12210   */\n      swap7\n      pop\n        /* \"#utility.yul\":12103:12220   */\n      pop\n        /* \"#utility.yul\":12259:12261   */\n      0x20\n        /* \"#utility.yul\":12285:12338   */\n      tag_445\n        /* \"#utility.yul\":12330:12337   */\n      dup10\n        /* \"#utility.yul\":12321:12327   */\n      dup3\n        /* \"#utility.yul\":12310:12319   */\n      dup11\n        /* \"#utility.yul\":12306:12328   */\n      add\n        /* \"#utility.yul\":12285:12338   */\n      tag_229\n      jump\t// in\n    tag_445:\n        /* \"#utility.yul\":12275:12338   */\n      swap6\n      pop\n        /* \"#utility.yul\":12230:12348   */\n      pop\n        /* \"#utility.yul\":12387:12389   */\n      0x40\n        /* \"#utility.yul\":12413:12466   */\n      tag_446\n        /* \"#utility.yul\":12458:12465   */\n      dup10\n        /* \"#utility.yul\":12449:12455   */\n      dup3\n        /* \"#utility.yul\":12438:12447   */\n      dup11\n        /* \"#utility.yul\":12434:12456   */\n      add\n        /* \"#utility.yul\":12413:12466   */\n      tag_232\n      jump\t// in\n    tag_446:\n        /* \"#utility.yul\":12403:12466   */\n      swap5\n      pop\n        /* \"#utility.yul\":12358:12476   */\n      pop\n        /* \"#utility.yul\":12543:12545   */\n      0x60\n        /* \"#utility.yul\":12532:12541   */\n      dup8\n        /* \"#utility.yul\":12528:12546   */\n      add\n        /* \"#utility.yul\":12515:12547   */\n      calldataload\n        /* \"#utility.yul\":12574:12592   */\n      0xffffffffffffffff\n        /* \"#utility.yul\":12566:12572   */\n      dup2\n        /* \"#utility.yul\":12563:12593   */\n      gt\n        /* \"#utility.yul\":12560:12677   */\n      iszero\n      tag_447\n      jumpi\n        /* \"#utility.yul\":12596:12675   */\n      tag_448\n      tag_222\n      jump\t// in\n    tag_448:\n        /* \"#utility.yul\":12560:12677   */\n    tag_447:\n        /* \"#utility.yul\":12701:12763   */\n      tag_449\n        /* \"#utility.yul\":12755:12762   */\n      dup10\n        /* \"#utility.yul\":12746:12752   */\n      dup3\n        /* \"#utility.yul\":12735:12744   */\n      dup11\n        /* \"#utility.yul\":12731:12753   */\n      add\n        /* \"#utility.yul\":12701:12763   */\n      tag_242\n      jump\t// in\n    tag_449:\n        /* \"#utility.yul\":12691:12763   */\n      swap4\n      pop\n        /* \"#utility.yul\":12486:12773   */\n      pop\n        /* \"#utility.yul\":12812:12815   */\n      0x80\n        /* \"#utility.yul\":12839:12892   */\n      tag_450\n        /* \"#utility.yul\":12884:12891   */\n      dup10\n        /* \"#utility.yul\":12875:12881   */\n      dup3\n        /* \"#utility.yul\":12864:12873   */\n      dup11\n        /* \"#utility.yul\":12860:12882   */\n      add\n        /* \"#utility.yul\":12839:12892   */\n      tag_232\n      jump\t// in\n    tag_450:\n        /* \"#utility.yul\":12829:12892   */\n      swap3\n      pop\n        /* \"#utility.yul\":12783:12902   */\n      pop\n        /* \"#utility.yul\":12941:12944   */\n      0xa0\n        /* \"#utility.yul\":12968:13021   */\n      tag_451\n        /* \"#utility.yul\":13013:13020   */\n      dup10\n        /* \"#utility.yul\":13004:13010   */\n      dup3\n        /* \"#utility.yul\":12993:13002   */\n      dup11\n        /* \"#utility.yul\":12989:13011   */\n      add\n        /* \"#utility.yul\":12968:13021   */\n      tag_232\n      jump\t// in\n    tag_451:\n        /* \"#utility.yul\":12958:13021   */\n      swap2\n      pop\n        /* \"#utility.yul\":12912:13031   */\n      pop\n        /* \"#utility.yul\":11803:13038   */\n      swap3\n      swap6\n      pop\n      swap3\n      swap6\n      pop\n      swap3\n      swap6\n      jump\t// out\n        /* \"#utility.yul\":13044:13696   */\n    tag_49:\n        /* \"#utility.yul\":13121:13127   */\n      0x00\n        /* \"#utility.yul\":13129:13135   */\n      dup1\n        /* \"#utility.yul\":13178:13180   */\n      0x40\n        /* \"#utility.yul\":13166:13175   */\n      dup4\n        /* \"#utility.yul\":13157:13164   */\n      dup6\n        /* \"#utility.yul\":13153:13176   */\n      sub\n        /* \"#utility.yul\":13149:13181   */\n      slt\n        /* \"#utility.yul\":13146:13265   */\n      iszero\n      tag_453\n      jumpi\n        /* \"#utility.yul\":13184:13263   */\n      tag_454\n      tag_221\n      jump\t// in\n    tag_454:\n        /* \"#utility.yul\":13146:13265   */\n    tag_453:\n        /* \"#utility.yul\":13332:13333   */\n      0x00\n        /* \"#utility.yul\":13321:13330   */\n      dup4\n        /* \"#utility.yul\":13317:13334   */\n      add\n        /* \"#utility.yul\":13304:13335   */\n      calldataload\n        /* \"#utility.yul\":13362:13380   */\n      0xffffffffffffffff\n        /* \"#utility.yul\":13354:13360   */\n      dup2\n        /* \"#utility.yul\":13351:13381   */\n      gt\n        /* \"#utility.yul\":13348:13465   */\n      iszero\n      tag_455\n      jumpi\n        /* \"#utility.yul\":13384:13463   */\n      tag_456\n      tag_222\n      jump\t// in\n    tag_456:\n        /* \"#utility.yul\":13348:13465   */\n    tag_455:\n        /* \"#utility.yul\":13489:13551   */\n      tag_457\n        /* \"#utility.yul\":13543:13550   */\n      dup6\n        /* \"#utility.yul\":13534:13540   */\n      dup3\n        /* \"#utility.yul\":13523:13532   */\n      dup7\n        /* \"#utility.yul\":13519:13541   */\n      add\n        /* \"#utility.yul\":13489:13551   */\n      tag_242\n      jump\t// in\n    tag_457:\n        /* \"#utility.yul\":13479:13551   */\n      swap3\n      pop\n        /* \"#utility.yul\":13275:13561   */\n      pop\n        /* \"#utility.yul\":13600:13602   */\n      0x20\n        /* \"#utility.yul\":13626:13679   */\n      tag_458\n        /* \"#utility.yul\":13671:13678   */\n      dup6\n        /* \"#utility.yul\":13662:13668   */\n      dup3\n        /* \"#utility.yul\":13651:13660   */\n      dup7\n        /* \"#utility.yul\":13647:13669   */\n      add\n        /* \"#utility.yul\":13626:13679   */\n      tag_232\n      jump\t// in\n    tag_458:\n        /* \"#utility.yul\":13616:13679   */\n      swap2\n      pop\n        /* \"#utility.yul\":13571:13689   */\n      pop\n        /* \"#utility.yul\":13044:13696   */\n      swap3\n      pop\n      swap3\n      swap1\n      pop\n      jump\t// out\n        /* \"#utility.yul\":13702:13788   */\n    tag_258:\n        /* \"#utility.yul\":13737:13744   */\n      0x00\n        /* \"#utility.yul\":13777:13781   */\n      0xff\n        /* \"#utility.yul\":13770:13775   */\n      dup3\n        /* \"#utility.yul\":13766:13782   */\n      and\n        /* \"#utility.yul\":13755:13782   */\n      swap1\n      pop\n        /* \"#utility.yul\":13702:13788   */\n      swap2\n      swap1\n      pop\n      jump\t// out\n        /* \"#utility.yul\":13794:13906   */\n    tag_259:\n        /* \"#utility.yul\":13877:13899   */\n      tag_461\n        /* \"#utility.yul\":13893:13898   */\n      dup2\n        /* \"#utility.yul\":13877:13899   */\n      tag_258\n      jump\t// in\n    tag_461:\n        /* \"#utility.yul\":13872:13875   */\n      dup3\n        /* \"#utility.yul\":13865:13900   */\n      mstore\n        /* \"#utility.yul\":13794:13906   */\n      pop\n      pop\n      jump\t// out\n        /* \"#utility.yul\":13912:14346   */\n    tag_52:\n        /* \"#utility.yul\":14057:14061   */\n      0x00\n        /* \"#utility.yul\":14095:14097   */\n      0x60\n        /* \"#utility.yul\":14084:14093   */\n      dup3\n        /* \"#utility.yul\":14080:14098   */\n      add\n        /* \"#utility.yul\":14072:14098   */\n      swap1\n      pop\n        /* \"#utility.yul\":14108:14179   */\n      tag_463\n        /* \"#utility.yul\":14176:14177   */\n      0x00\n        /* \"#utility.yul\":14165:14174   */\n      dup4\n        /* \"#utility.yul\":14161:14178   */\n      add\n        /* \"#utility.yul\":14152:14158   */\n      dup7\n        /* \"#utility.yul\":14108:14179   */\n      tag_256\n      jump\t// in\n    tag_463:\n        /* \"#utility.yul\":14189:14261   */\n      tag_464\n        /* \"#utility.yul\":14257:14259   */\n      0x20\n        /* \"#utility.yul\":14246:14255   */\n      dup4\n        /* \"#utility.yul\":14242:14260   */\n      add\n        /* \"#utility.yul\":14233:14239   */\n      dup6\n        /* \"#utility.yul\":14189:14261   */\n      tag_256\n      jump\t// in\n    tag_464:\n        /* \"#utility.yul\":14271:14339   */\n      tag_465\n        /* \"#utility.yul\":14335:14337   */\n      0x40\n        /* \"#utility.yul\":14324:14333   */\n      dup4\n        /* \"#utility.yul\":14320:14338   */\n      add\n        /* \"#utility.yul\":14311:14317   */\n      dup5\n        /* \"#utility.yul\":14271:14339   */\n      tag_259\n      jump\t// in\n    tag_465:\n        /* \"#utility.yul\":13912:14346   */\n      swap5\n      swap4\n      pop\n      pop\n      pop\n      pop\n      jump\t// out\n        /* \"#utility.yul\":14352:14574   */\n    tag_58:\n        /* \"#utility.yul\":14445:14449   */\n      0x00\n        /* \"#utility.yul\":14483:14485   */\n      0x20\n        /* \"#utility.yul\":14472:14481   */\n      dup3\n        /* \"#utility.yul\":14468:14486   */\n      add\n        /* \"#utility.yul\":14460:14486   */\n      swap1\n      pop\n        /* \"#utility.yul\":14496:14567   */\n      tag_467\n        /* \"#utility.yul\":14564:14565   */\n      0x00\n        /* \"#utility.yul\":14553:14562   */\n      dup4\n        /* \"#utility.yul\":14549:14566   */\n      add\n        /* \"#utility.yul\":14540:14546   */\n      dup5\n        /* \"#utility.yul\":14496:14567   */\n      tag_257\n      jump\t// in\n    tag_467:\n        /* \"#utility.yul\":14352:14574   */\n      swap3\n      swap2\n      pop\n      pop\n      jump\t// out\n        /* \"#utility.yul\":14580:15377   */\n    tag_62:\n        /* \"#utility.yul\":14666:14672   */\n      0x00\n        /* \"#utility.yul\":14674:14680   */\n      dup1\n        /* \"#utility.yul\":14682:14688   */\n      0x00\n        /* \"#utility.yul\":14731:14733   */\n      0x60\n        /* \"#utility.yul\":14719:14728   */\n      dup5\n        /* \"#utility.yul\":14710:14717   */\n      dup7\n        /* \"#utility.yul\":14706:14729   */\n      sub\n        /* \"#utility.yul\":14702:14734   */\n      slt\n        /* \"#utility.yul\":14699:14818   */\n      iszero\n      tag_469\n      jumpi\n        /* \"#utility.yul\":14737:14816   */\n      tag_470\n      tag_221\n      jump\t// in\n    tag_470:\n        /* \"#utility.yul\":14699:14818   */\n    tag_469:\n        /* \"#utility.yul\":14857:14858   */\n      0x00\n        /* \"#utility.yul\":14882:14935   */\n      tag_471\n        /* \"#utility.yul\":14927:14934   */\n      dup7\n        /* \"#utility.yul\":14918:14924   */\n      dup3\n        /* \"#utility.yul\":14907:14916   */\n      dup8\n        /* \"#utility.yul\":14903:14925   */\n      add\n        /* \"#utility.yul\":14882:14935   */\n      tag_225\n      jump\t// in\n    tag_471:\n        /* \"#utility.yul\":14872:14935   */\n      swap4\n      pop\n        /* \"#utility.yul\":14828:14945   */\n      pop\n        /* \"#utility.yul\":14984:14986   */\n      0x20\n        /* \"#utility.yul\":15010:15063   */\n      tag_472\n        /* \"#utility.yul\":15055:15062   */\n      dup7\n        /* \"#utility.yul\":15046:15052   */\n      dup3\n        /* \"#utility.yul\":15035:15044   */\n      dup8\n        /* \"#utility.yul\":15031:15053   */\n      add\n        /* \"#utility.yul\":15010:15063   */\n      tag_225\n      jump\t// in\n    tag_472:\n        /* \"#utility.yul\":15000:15063   */\n      swap3\n      pop\n        /* \"#utility.yul\":14955:15073   */\n      pop\n        /* \"#utility.yul\":15140:15142   */\n      0x40\n        /* \"#utility.yul\":15129:15138   */\n      dup5\n        /* \"#utility.yul\":15125:15143   */\n      add\n        /* \"#utility.yul\":15112:15144   */\n      calldataload\n        /* \"#utility.yul\":15171:15189   */\n      0xffffffffffffffff\n        /* \"#utility.yul\":15163:15169   */\n      dup2\n        /* \"#utility.yul\":15160:15190   */\n      gt\n        /* \"#utility.yul\":15157:15274   */\n      iszero\n      tag_473\n      jumpi\n        /* \"#utility.yul\":15193:15272   */\n      tag_474\n      tag_222\n      jump\t// in\n    tag_474:\n        /* \"#utility.yul\":15157:15274   */\n    tag_473:\n        /* \"#utility.yul\":15298:15360   */\n      tag_475\n        /* \"#utility.yul\":15352:15359   */\n      dup7\n        /* \"#utility.yul\":15343:15349   */\n      dup3\n        /* \"#utility.yul\":15332:15341   */\n      dup8\n        /* \"#utility.yul\":15328:15350   */\n      add\n        /* \"#utility.yul\":15298:15360   */\n      tag_242\n      jump\t// in\n    tag_475:\n        /* \"#utility.yul\":15288:15360   */\n      swap2\n      pop\n        /* \"#utility.yul\":15083:15370   */\n      pop\n        /* \"#utility.yul\":14580:15377   */\n      swap3\n      pop\n      swap3\n      pop\n      swap3\n      jump\t// out\n        /* \"#utility.yul\":15383:15552   */\n    tag_260:\n        /* \"#utility.yul\":15467:15478   */\n      0x00\n        /* \"#utility.yul\":15501:15507   */\n      dup3\n        /* \"#utility.yul\":15496:15499   */\n      dup3\n        /* \"#utility.yul\":15489:15508   */\n      mstore\n        /* \"#utility.yul\":15541:15545   */\n      0x20\n        /* \"#utility.yul\":15536:15539   */\n      dup3\n        /* \"#utility.yul\":15532:15546   */\n      add\n        /* \"#utility.yul\":15517:15546   */\n      swap1\n      pop\n        /* \"#utility.yul\":15383:15552   */\n      swap3\n      swap2\n      pop\n      pop\n      jump\t// out\n        /* \"#utility.yul\":15558:15782   */\n    tag_261:\n        /* \"#utility.yul\":15698:15732   */\n      0x657865637574655472616e73616374696f6e3a2077616c6c6574206e6f742065\n        /* \"#utility.yul\":15694:15695   */\n      0x00\n        /* \"#utility.yul\":15686:15692   */\n      dup3\n        /* \"#utility.yul\":15682:15696   */\n      add\n        /* \"#utility.yul\":15675:15733   */\n      mstore\n        /* \"#utility.yul\":15767:15774   */\n      0x7869737473000000000000000000000000000000000000000000000000000000\n        /* \"#utility.yul\":15762:15764   */\n      0x20\n        /* \"#utility.yul\":15754:15760   */\n      dup3\n        /* \"#utility.yul\":15750:15765   */\n      add\n        /* \"#utility.yul\":15743:15775   */\n      mstore\n        /* \"#utility.yul\":15558:15782   */\n      pop\n      jump\t// out\n        /* \"#utility.yul\":15788:16154   */\n    tag_262:\n        /* \"#utility.yul\":15930:15933   */\n      0x00\n        /* \"#utility.yul\":15951:16018   */\n      tag_479\n        /* \"#utility.yul\":16015:16017   */\n      0x25\n        /* \"#utility.yul\":16010:16013   */\n      dup4\n        /* \"#utility.yul\":15951:16018   */\n      tag_260\n      jump\t// in\n    tag_479:\n        /* \"#utility.yul\":15944:16018   */\n      swap2\n      pop\n        /* \"#utility.yul\":16027:16120   */\n      tag_480\n        /* \"#utility.yul\":16116:16119   */\n      dup3\n        /* \"#utility.yul\":16027:16120   */\n      tag_261\n      jump\t// in\n    tag_480:\n        /* \"#utility.yul\":16145:16147   */\n      0x40\n        /* \"#utility.yul\":16140:16143   */\n      dup3\n        /* \"#utility.yul\":16136:16148   */\n      add\n        /* \"#utility.yul\":16129:16148   */\n      swap1\n      pop\n        /* \"#utility.yul\":15788:16154   */\n      swap2\n      swap1\n      pop\n      jump\t// out\n        /* \"#utility.yul\":16160:16579   */\n    tag_77:\n        /* \"#utility.yul\":16326:16330   */\n      0x00\n        /* \"#utility.yul\":16364:16366   */\n      0x20\n        /* \"#utility.yul\":16353:16362   */\n      dup3\n        /* \"#utility.yul\":16349:16367   */\n      add\n        /* \"#utility.yul\":16341:16367   */\n      swap1\n      pop\n        /* \"#utility.yul\":16413:16422   */\n      dup2\n        /* \"#utility.yul\":16407:16411   */\n      dup2\n        /* \"#utility.yul\":16403:16423   */\n      sub\n        /* \"#utility.yul\":16399:16400   */\n      0x00\n        /* \"#utility.yul\":16388:16397   */\n      dup4\n        /* \"#utility.yul\":16384:16401   */\n      add\n        /* \"#utility.yul\":16377:16424   */\n      mstore\n        /* \"#utility.yul\":16441:16572   */\n      tag_482\n        /* \"#utility.yul\":16567:16571   */\n      dup2\n        /* \"#utility.yul\":16441:16572   */\n      tag_262\n      jump\t// in\n    tag_482:\n        /* \"#utility.yul\":16433:16572   */\n      swap1\n      pop\n        /* \"#utility.yul\":16160:16579   */\n      swap2\n      swap1\n      pop\n      jump\t// out\n        /* \"#utility.yul\":16585:16755   */\n    tag_263:\n        /* \"#utility.yul\":16725:16747   */\n      0x696e73756666696369656e742062616c616e6365000000000000000000000000\n        /* \"#utility.yul\":16721:16722   */\n      0x00\n        /* \"#utility.yul\":16713:16719   */\n      dup3\n        /* \"#utility.yul\":16709:16723   */\n      add\n        /* \"#utility.yul\":16702:16748   */\n      mstore\n        /* \"#utility.yul\":16585:16755   */\n      pop\n      jump\t// out\n        /* \"#utility.yul\":16761:17127   */\n    tag_264:\n        /* \"#utility.yul\":16903:16906   */\n      0x00\n        /* \"#utility.yul\":16924:16991   */\n      tag_485\n        /* \"#utility.yul\":16988:16990   */\n      0x14\n        /* \"#utility.yul\":16983:16986   */\n      dup4\n        /* \"#utility.yul\":16924:16991   */\n      tag_260\n      jump\t// in\n    tag_485:\n        /* \"#utility.yul\":16917:16991   */\n      swap2\n      pop\n        /* \"#utility.yul\":17000:17093   */\n      tag_486\n        /* \"#utility.yul\":17089:17092   */\n      dup3\n        /* \"#utility.yul\":17000:17093   */\n      tag_263\n      jump\t// in\n    tag_486:\n        /* \"#utility.yul\":17118:17120   */\n      0x20\n        /* \"#utility.yul\":17113:17116   */\n      dup3\n        /* \"#utility.yul\":17109:17121   */\n      add\n        /* \"#utility.yul\":17102:17121   */\n      swap1\n      pop\n        /* \"#utility.yul\":16761:17127   */\n      swap2\n      swap1\n      pop\n      jump\t// out\n        /* \"#utility.yul\":17133:17552   */\n    tag_80:\n        /* \"#utility.yul\":17299:17303   */\n      0x00\n        /* \"#utility.yul\":17337:17339   */\n      0x20\n        /* \"#utility.yul\":17326:17335   */\n      dup3\n        /* \"#utility.yul\":17322:17340   */\n      add\n        /* \"#utility.yul\":17314:17340   */\n      swap1\n      pop\n        /* \"#utility.yul\":17386:17395   */\n      dup2\n        /* \"#utility.yul\":17380:17384   */\n      dup2\n        /* \"#utility.yul\":17376:17396   */\n      sub\n        /* \"#utility.yul\":17372:17373   */\n      0x00\n        /* \"#utility.yul\":17361:17370   */\n      dup4\n        /* \"#utility.yul\":17357:17374   */\n      add\n        /* \"#utility.yul\":17350:17397   */\n      mstore\n        /* \"#utility.yul\":17414:17545   */\n      tag_488\n        /* \"#utility.yul\":17540:17544   */\n      dup2\n        /* \"#utility.yul\":17414:17545   */\n      tag_264\n      jump\t// in\n    tag_488:\n        /* \"#utility.yul\":17406:17545   */\n      swap1\n      pop\n        /* \"#utility.yul\":17133:17552   */\n      swap2\n      swap1\n      pop\n      jump\t// out\n        /* \"#utility.yul\":17558:17738   */\n    tag_265:\n        /* \"#utility.yul\":17606:17683   */\n      0x4e487b7100000000000000000000000000000000000000000000000000000000\n        /* \"#utility.yul\":17603:17604   */\n      0x00\n        /* \"#utility.yul\":17596:17684   */\n      mstore\n        /* \"#utility.yul\":17703:17707   */\n      0x11\n        /* \"#utility.yul\":17700:17701   */\n      0x04\n        /* \"#utility.yul\":17693:17708   */\n      mstore\n        /* \"#utility.yul\":17727:17731   */\n      0x24\n        /* \"#utility.yul\":17724:17725   */\n      0x00\n        /* \"#utility.yul\":17717:17732   */\n      revert\n        /* \"#utility.yul\":17744:17977   */\n    tag_83:\n        /* \"#utility.yul\":17783:17786   */\n      0x00\n        /* \"#utility.yul\":17806:17830   */\n      tag_491\n        /* \"#utility.yul\":17824:17829   */\n      dup3\n        /* \"#utility.yul\":17806:17830   */\n      tag_230\n      jump\t// in\n    tag_491:\n        /* \"#utility.yul\":17797:17830   */\n      swap2\n      pop\n        /* \"#utility.yul\":17852:17918   */\n      0xffffffffffffffffffffffffffffffffffffffffffffffffffffffffffffffff\n        /* \"#utility.yul\":17845:17850   */\n      dup3\n        /* \"#utility.yul\":17842:17919   */\n      sub\n        /* \"#utility.yul\":17839:17942   */\n      tag_492\n      jumpi\n        /* \"#utility.yul\":17922:17940   */\n      tag_493\n      tag_265\n      jump\t// in\n    tag_493:\n        /* \"#utility.yul\":17839:17942   */\n    tag_492:\n        /* \"#utility.yul\":17969:17970   */\n      0x01\n        /* \"#utility.yul\":17962:17967   */\n      dup3\n        /* \"#utility.yul\":17958:17971   */\n      add\n        /* \"#utility.yul\":17951:17971   */\n      swap1\n      pop\n        /* \"#utility.yul\":17744:17977   */\n      swap2\n      swap1\n      pop\n      jump\t// out\n        /* \"#utility.yul\":17983:18177   */\n    tag_85:\n        /* \"#utility.yul\":18023:18027   */\n      0x00\n        /* \"#utility.yul\":18043:18063   */\n      tag_495\n        /* \"#utility.yul\":18061:18062   */\n      dup3\n        /* \"#utility.yul\":18043:18063   */\n      tag_230\n      jump\t// in\n    tag_495:\n        /* \"#utility.yul\":18038:18063   */\n      swap2\n      pop\n        /* \"#utility.yul\":18077:18097   */\n      tag_496\n        /* \"#utility.yul\":18095:18096   */\n      dup4\n        /* \"#utility.yul\":18077:18097   */\n      tag_230\n      jump\t// in\n    tag_496:\n        /* \"#utility.yul\":18072:18097   */\n      swap3\n      pop\n        /* \"#utility.yul\":18121:18122   */\n      dup3\n        /* \"#utility.yul\":18118:18119   */\n      dup3\n        /* \"#utility.yul\":18114:18123   */\n      sub\n        /* \"#utility.yul\":18106:18123   */\n      swap1\n      pop\n        /* \"#utility.yul\":18145:18146   */\n      dup2\n        /* \"#utility.yul\":18139:18143   */\n      dup2\n        /* \"#utility.yul\":18136:18147   */\n      gt\n        /* \"#utility.yul\":18133:18170   */\n      iszero\n      tag_497\n      jumpi\n        /* \"#utility.yul\":18150:18168   */\n      tag_498\n      tag_265\n      jump\t// in\n    tag_498:\n        /* \"#utility.yul\":18133:18170   */\n    tag_497:\n        /* \"#utility.yul\":17983:18177   */\n      swap3\n      swap2\n      pop\n      pop\n      jump\t// out\n        /* \"#utility.yul\":18183:18281   */\n    tag_266:\n        /* \"#utility.yul\":18234:18240   */\n      0x00\n        /* \"#utility.yul\":18268:18273   */\n      dup2\n        /* \"#utility.yul\":18262:18274   */\n      mload\n        /* \"#utility.yul\":18252:18274   */\n      swap1\n      pop\n        /* \"#utility.yul\":18183:18281   */\n      swap2\n      swap1\n      pop\n      jump\t// out\n        /* \"#utility.yul\":18287:18434   */\n    tag_267:\n        /* \"#utility.yul\":18388:18399   */\n      0x00\n        /* \"#utility.yul\":18425:18428   */\n      dup2\n        /* \"#utility.yul\":18410:18428   */\n      swap1\n      pop\n        /* \"#utility.yul\":18287:18434   */\n      swap3\n      swap2\n      pop\n      pop\n      jump\t// out\n        /* \"#utility.yul\":18440:18579   */\n    tag_268:\n        /* \"#utility.yul\":18529:18535   */\n      dup3\n        /* \"#utility.yul\":18524:18527   */\n      dup2\n        /* \"#utility.yul\":18519:18522   */\n      dup4\n        /* \"#utility.yul\":18513:18536   */\n      mcopy\n        /* \"#utility.yul\":18570:18571   */\n      0x00\n        /* \"#utility.yul\":18561:18567   */\n      dup4\n        /* \"#utility.yul\":18556:18559   */\n      dup4\n        /* \"#utility.yul\":18552:18568   */\n      add\n        /* \"#utility.yul\":18545:18572   */\n      mstore\n        /* \"#utility.yul\":18440:18579   */\n      pop\n      pop\n      pop\n      jump\t// out\n        /* \"#utility.yul\":18585:18971   */\n    tag_269:\n        /* \"#utility.yul\":18689:18692   */\n      0x00\n        /* \"#utility.yul\":18717:18755   */\n      tag_503\n        /* \"#utility.yul\":18749:18754   */\n      dup3\n        /* \"#utility.yul\":18717:18755   */\n      tag_266\n      jump\t// in\n    tag_503:\n        /* \"#utility.yul\":18771:18859   */\n      tag_504\n        /* \"#utility.yul\":18852:18858   */\n      dup2\n        /* \"#utility.yul\":18847:18850   */\n      dup6\n        /* \"#utility.yul\":18771:18859   */\n      tag_267\n      jump\t// in\n    tag_504:\n        /* \"#utility.yul\":18764:18859   */\n      swap4\n      pop\n        /* \"#utility.yul\":18868:18933   */\n      tag_505\n        /* \"#utility.yul\":18926:18932   */\n      dup2\n        /* \"#utility.yul\":18921:18924   */\n      dup6\n        /* \"#utility.yul\":18914:18918   */\n      0x20\n        /* \"#utility.yul\":18907:18912   */\n      dup7\n        /* \"#utility.yul\":18903:18919   */\n      add\n        /* \"#utility.yul\":18868:18933   */\n      tag_268\n      jump\t// in\n    tag_505:\n        /* \"#utility.yul\":18958:18964   */\n      dup1\n        /* \"#utility.yul\":18953:18956   */\n      dup5\n        /* \"#utility.yul\":18949:18965   */\n      add\n        /* \"#utility.yul\":18942:18965   */\n      swap2\n      pop\n        /* \"#utility.yul\":18693:18971   */\n      pop\n        /* \"#utility.yul\":18585:18971   */\n      swap3\n      swap2\n      pop\n      pop\n      jump\t// out\n        /* \"#utility.yul\":18977:19248   */\n    tag_88:\n        /* \"#utility.yul\":19107:19110   */\n      0x00\n        /* \"#utility.yul\":19129:19222   */\n      tag_507\n        /* \"#utility.yul\":19218:19221   */\n      dup3\n        /* \"#utility.yul\":19209:19215   */\n      dup5\n        /* \"#utility.yul\":19129:19222   */\n      tag_269\n      jump\t// in\n    tag_507:\n        /* \"#utility.yul\":19122:19222   */\n      swap2\n      pop\n        /* \"#utility.yul\":19239:19242   */\n      dup2\n        /* \"#utility.yul\":19232:19242   */\n      swap1\n      pop\n        /* \"#utility.yul\":18977:19248   */\n      swap3\n      swap2\n      pop\n      pop\n      jump\t// out\n        /* \"#utility.yul\":19254:19433   */\n    tag_270:\n        /* \"#utility.yul\":19394:19425   */\n      0x657865637574655472616e73616374696f6e3a2063616c6c206661696c000000\n        /* \"#utility.yul\":19390:19391   */\n      0x00\n        /* \"#utility.yul\":19382:19388   */\n      dup3\n        /* \"#utility.yul\":19378:19392   */\n      add\n        /* \"#utility.yul\":19371:19426   */\n      mstore\n        /* \"#utility.yul\":19254:19433   */\n      pop\n      jump\t// out\n        /* \"#utility.yul\":19439:19805   */\n    tag_271:\n        /* \"#utility.yul\":19581:19584   */\n      0x00\n        /* \"#utility.yul\":19602:19669   */\n      tag_510\n        /* \"#utility.yul\":19666:19668   */\n      0x1d\n        /* \"#utility.yul\":19661:19664   */\n      dup4\n        /* \"#utility.yul\":19602:19669   */\n      tag_260\n      jump\t// in\n    tag_510:\n        /* \"#utility.yul\":19595:19669   */\n      swap2\n      pop\n        /* \"#utility.yul\":19678:19771   */\n      tag_511\n        /* \"#utility.yul\":19767:19770   */\n      dup3\n        /* \"#utility.yul\":19678:19771   */\n      tag_270\n      jump\t// in\n    tag_511:\n        /* \"#utility.yul\":19796:19798   */\n      0x20\n        /* \"#utility.yul\":19791:19794   */\n      dup3\n        /* \"#utility.yul\":19787:19799   */\n      add\n        /* \"#utility.yul\":19780:19799   */\n      swap1\n      pop\n        /* \"#utility.yul\":19439:19805   */\n      swap2\n      swap1\n      pop\n      jump\t// out\n        /* \"#utility.yul\":19811:20230   */\n    tag_94:\n        /* \"#utility.yul\":19977:19981   */\n      0x00\n        /* \"#utility.yul\":20015:20017   */\n      0x20\n        /* \"#utility.yul\":20004:20013   */\n      dup3\n        /* \"#utility.yul\":20000:20018   */\n      add\n        /* \"#utility.yul\":19992:20018   */\n      swap1\n      pop\n        /* \"#utility.yul\":20064:20073   */\n      dup2\n        /* \"#utility.yul\":20058:20062   */\n      dup2\n        /* \"#utility.yul\":20054:20074   */\n      sub\n        /* \"#utility.yul\":20050:20051   */\n      0x00\n        /* \"#utility.yul\":20039:20048   */\n      dup4\n        /* \"#utility.yul\":20035:20052   */\n      add\n        /* \"#utility.yul\":20028:20075   */\n      mstore\n        /* \"#utility.yul\":20092:20223   */\n      tag_513\n        /* \"#utility.yul\":20218:20222   */\n      dup2\n        /* \"#utility.yul\":20092:20223   */\n      tag_271\n      jump\t// in\n    tag_513:\n        /* \"#utility.yul\":20084:20223   */\n      swap1\n      pop\n        /* \"#utility.yul\":19811:20230   */\n      swap2\n      swap1\n      pop\n      jump\t// out\n        /* \"#utility.yul\":20236:20427   */\n    tag_106:\n        /* \"#utility.yul\":20276:20279   */\n      0x00\n        /* \"#utility.yul\":20295:20315   */\n      tag_515\n        /* \"#utility.yul\":20313:20314   */\n      dup3\n        /* \"#utility.yul\":20295:20315   */\n      tag_230\n      jump\t// in\n    tag_515:\n        /* \"#utility.yul\":20290:20315   */\n      swap2\n      pop\n        /* \"#utility.yul\":20329:20349   */\n      tag_516\n        /* \"#utility.yul\":20347:20348   */\n      dup4\n        /* \"#utility.yul\":20329:20349   */\n      tag_230\n      jump\t// in\n    tag_516:\n        /* \"#utility.yul\":20324:20349   */\n      swap3\n      pop\n        /* \"#utility.yul\":20372:20373   */\n      dup3\n        /* \"#utility.yul\":20369:20370   */\n      dup3\n        /* \"#utility.yul\":20365:20374   */\n      add\n        /* \"#utility.yul\":20358:20374   */\n      swap1\n      pop\n        /* \"#utility.yul\":20393:20396   */\n      dup1\n        /* \"#utility.yul\":20390:20391   */\n      dup3\n        /* \"#utility.yul\":20387:20397   */\n      gt\n        /* \"#utility.yul\":20384:20420   */\n      iszero\n      tag_517\n      jumpi\n        /* \"#utility.yul\":20400:20418   */\n      tag_518\n      tag_265\n      jump\t// in\n    tag_518:\n        /* \"#utility.yul\":20384:20420   */\n    tag_517:\n        /* \"#utility.yul\":20236:20427   */\n      swap3\n      swap2\n      pop\n      pop\n      jump\t// out\n        /* \"#utility.yul\":20433:20613   */\n    tag_109:\n        /* \"#utility.yul\":20481:20558   */\n      0x4e487b7100000000000000000000000000000000000000000000000000000000\n        /* \"#utility.yul\":20478:20479   */\n      0x00\n        /* \"#utility.yul\":20471:20559   */\n      mstore\n        /* \"#utility.yul\":20578:20582   */\n      0x32\n        /* \"#utility.yul\":20575:20576   */\n      0x04\n        /* \"#utility.yul\":20568:20583   */\n      mstore\n        /* \"#utility.yul\":20602:20606   */\n      0x24\n        /* \"#utility.yul\":20599:20600   */\n      0x00\n        /* \"#utility.yul\":20592:20607   */\n      revert\n        /* \"#utility.yul\":20619:20796   */\n    tag_272:\n        /* \"#utility.yul\":20759:20788   */\n      0x63726561746557616c6c65743a20656d70747920616464726573730000000000\n        /* \"#utility.yul\":20755:20756   */\n      0x00\n        /* \"#utility.yul\":20747:20753   */\n      dup3\n        /* \"#utility.yul\":20743:20757   */\n      add\n        /* \"#utility.yul\":20736:20789   */\n      mstore\n        /* \"#utility.yul\":20619:20796   */\n      pop\n      jump\t// out\n        /* \"#utility.yul\":20802:21168   */\n    tag_273:\n        /* \"#utility.yul\":20944:20947   */\n      0x00\n        /* \"#utility.yul\":20965:21032   */\n      tag_522\n        /* \"#utility.yul\":21029:21031   */\n      0x1b\n        /* \"#utility.yul\":21024:21027   */\n      dup4\n        /* \"#utility.yul\":20965:21032   */\n      tag_260\n      jump\t// in\n    tag_522:\n        /* \"#utility.yul\":20958:21032   */\n      swap2\n      pop\n        /* \"#utility.yul\":21041:21134   */\n      tag_523\n        /* \"#utility.yul\":21130:21133   */\n      dup3\n        /* \"#utility.yul\":21041:21134   */\n      tag_272\n      jump\t// in\n    tag_523:\n        /* \"#utility.yul\":21159:21161   */\n      0x20\n        /* \"#utility.yul\":21154:21157   */\n      dup3\n        /* \"#utility.yul\":21150:21162   */\n      add\n        /* \"#utility.yul\":21143:21162   */\n      swap1\n      pop\n        /* \"#utility.yul\":20802:21168   */\n      swap2\n      swap1\n      pop\n      jump\t// out\n        /* \"#utility.yul\":21174:21593   */\n    tag_126:\n        /* \"#utility.yul\":21340:21344   */\n      0x00\n        /* \"#utility.yul\":21378:21380   */\n      0x20\n        /* \"#utility.yul\":21367:21376   */\n      dup3\n        /* \"#utility.yul\":21363:21381   */\n      add\n        /* \"#utility.yul\":21355:21381   */\n      swap1\n      pop\n        /* \"#utility.yul\":21427:21436   */\n      dup2\n        /* \"#utility.yul\":21421:21425   */\n      dup2\n        /* \"#utility.yul\":21417:21437   */\n      sub\n        /* \"#utility.yul\":21413:21414   */\n      0x00\n        /* \"#utility.yul\":21402:21411   */\n      dup4\n        /* \"#utility.yul\":21398:21415   */\n      add\n        /* \"#utility.yul\":21391:21438   */\n      mstore\n        /* \"#utility.yul\":21455:21586   */\n      tag_525\n        /* \"#utility.yul\":21581:21585   */\n      dup2\n        /* \"#utility.yul\":21455:21586   */\n      tag_273\n      jump\t// in\n    tag_525:\n        /* \"#utility.yul\":21447:21586   */\n      swap1\n      pop\n        /* \"#utility.yul\":21174:21593   */\n      swap2\n      swap1\n      pop\n      jump\t// out\n        /* \"#utility.yul\":21599:21823   */\n    tag_274:\n        /* \"#utility.yul\":21739:21773   */\n      0x63726561746557616c6c65743a207468726573686f6c64206d75737420706f73\n        /* \"#utility.yul\":21735:21736   */\n      0x00\n        /* \"#utility.yul\":21727:21733   */\n      dup3\n        /* \"#utility.yul\":21723:21737   */\n      add\n        /* \"#utility.yul\":21716:21774   */\n      mstore\n        /* \"#utility.yul\":21808:21815   */\n      0x6974697665000000000000000000000000000000000000000000000000000000\n        /* \"#utility.yul\":21803:21805   */\n      0x20\n        /* \"#utility.yul\":21795:21801   */\n      dup3\n        /* \"#utility.yul\":21791:21806   */\n      add\n        /* \"#utility.yul\":21784:21816   */\n      mstore\n        /* \"#utility.yul\":21599:21823   */\n      pop\n      jump\t// out\n        /* \"#utility.yul\":21829:22195   */\n    tag_275:\n        /* \"#utility.yul\":21971:21974   */\n      0x00\n        /* \"#utility.yul\":21992:22059   */\n      tag_528\n        /* \"#utility.yul\":22056:22058   */\n      0x25\n        /* \"#utility.yul\":22051:22054   */\n      dup4\n        /* \"#utility.yul\":21992:22059   */\n      tag_260\n      jump\t// in\n    tag_528:\n        /* \"#utility.yul\":21985:22059   */\n      swap2\n      pop\n        /* \"#utility.yul\":22068:22161   */\n      tag_529\n        /* \"#utility.yul\":22157:22160   */\n      dup3\n        /* \"#utility.yul\":22068:22161   */\n      tag_274\n      jump\t// in\n    tag_529:\n        /* \"#utility.yul\":22186:22188   */\n      0x40\n        /* \"#utility.yul\":22181:22184   */\n      dup3\n        /* \"#utility.yul\":22177:22189   */\n      add\n        /* \"#utility.yul\":22170:22189   */\n      swap1\n      pop\n        /* \"#utility.yul\":21829:22195   */\n      swap2\n      swap1\n      pop\n      jump\t// out\n        /* \"#utility.yul\":22201:22620   */\n    tag_129:\n        /* \"#utility.yul\":22367:22371   */\n      0x00\n        /* \"#utility.yul\":22405:22407   */\n      0x20\n        /* \"#utility.yul\":22394:22403   */\n      dup3\n        /* \"#utility.yul\":22390:22408   */\n      add\n        /* \"#utility.yul\":22382:22408   */\n      swap1\n      pop\n        /* \"#utility.yul\":22454:22463   */\n      dup2\n        /* \"#utility.yul\":22448:22452   */\n      dup2\n        /* \"#utility.yul\":22444:22464   */\n      sub\n        /* \"#utility.yul\":22440:22441   */\n      0x00\n        /* \"#utility.yul\":22429:22438   */\n      dup4\n        /* \"#utility.yul\":22425:22442   */\n      add\n        /* \"#utility.yul\":22418:22465   */\n      mstore\n        /* \"#utility.yul\":22482:22613   */\n      tag_531\n        /* \"#utility.yul\":22608:22612   */\n      dup2\n        /* \"#utility.yul\":22482:22613   */\n      tag_275\n      jump\t// in\n    tag_531:\n        /* \"#utility.yul\":22474:22613   */\n      swap1\n      pop\n        /* \"#utility.yul\":22201:22620   */\n      swap2\n      swap1\n      pop\n      jump\t// out\n        /* \"#utility.yul\":22626:22860   */\n    tag_276:\n        /* \"#utility.yul\":22766:22800   */\n      0x63726561746557616c6c65743a207468726573686f6c64206d6f726520746861\n        /* \"#utility.yul\":22762:22763   */\n      0x00\n        /* \"#utility.yul\":22754:22760   */\n      dup3\n        /* \"#utility.yul\":22750:22764   */\n      add\n        /* \"#utility.yul\":22743:22801   */\n      mstore\n        /* \"#utility.yul\":22835:22852   */\n      0x6e206f776e657273206c656e6774680000000000000000000000000000000000\n        /* \"#utility.yul\":22830:22832   */\n      0x20\n        /* \"#utility.yul\":22822:22828   */\n      dup3\n        /* \"#utility.yul\":22818:22833   */\n      add\n        /* \"#utility.yul\":22811:22853   */\n      mstore\n        /* \"#utility.yul\":22626:22860   */\n      pop\n      jump\t// out\n        /* \"#utility.yul\":22866:23232   */\n    tag_277:\n        /* \"#utility.yul\":23008:23011   */\n      0x00\n        /* \"#utility.yul\":23029:23096   */\n      tag_534\n        /* \"#utility.yul\":23093:23095   */\n      0x2f\n        /* \"#utility.yul\":23088:23091   */\n      dup4\n        /* \"#utility.yul\":23029:23096   */\n      tag_260\n      jump\t// in\n    tag_534:\n        /* \"#utility.yul\":23022:23096   */\n      swap2\n      pop\n        /* \"#utility.yul\":23105:23198   */\n      tag_535\n        /* \"#utility.yul\":23194:23197   */\n      dup3\n        /* \"#utility.yul\":23105:23198   */\n      tag_276\n      jump\t// in\n    tag_535:\n        /* \"#utility.yul\":23223:23225   */\n      0x40\n        /* \"#utility.yul\":23218:23221   */\n      dup3\n        /* \"#utility.yul\":23214:23226   */\n      add\n        /* \"#utility.yul\":23207:23226   */\n      swap1\n      pop\n        /* \"#utility.yul\":22866:23232   */\n      swap2\n      swap1\n      pop\n      jump\t// out\n        /* \"#utility.yul\":23238:23657   */\n    tag_132:\n        /* \"#utility.yul\":23404:23408   */\n      0x00\n        /* \"#utility.yul\":23442:23444   */\n      0x20\n        /* \"#utility.yul\":23431:23440   */\n      dup3\n        /* \"#utility.yul\":23427:23445   */\n      add\n        /* \"#utility.yul\":23419:23445   */\n      swap1\n      pop\n        /* \"#utility.yul\":23491:23500   */\n      dup2\n        /* \"#utility.yul\":23485:23489   */\n      dup2\n        /* \"#utility.yul\":23481:23501   */\n      sub\n        /* \"#utility.yul\":23477:23478   */\n      0x00\n        /* \"#utility.yul\":23466:23475   */\n      dup4\n        /* \"#utility.yul\":23462:23479   */\n      add\n        /* \"#utility.yul\":23455:23502   */\n      mstore\n        /* \"#utility.yul\":23519:23650   */\n      tag_537\n        /* \"#utility.yul\":23645:23649   */\n      dup2\n        /* \"#utility.yul\":23519:23650   */\n      tag_277\n      jump\t// in\n    tag_537:\n        /* \"#utility.yul\":23511:23650   */\n      swap1\n      pop\n        /* \"#utility.yul\":23238:23657   */\n      swap2\n      swap1\n      pop\n      jump\t// out\n        /* \"#utility.yul\":23663:23840   */\n    tag_278:\n        /* \"#utility.yul\":23803:23832   */\n      0x63726561746557616c6c65743a2077616c6c6574206578697374210000000000\n        /* \"#utility.yul\":23799:23800   */\n      0x00\n        /* \"#utility.yul\":23791:23797   */\n      dup3\n        /* \"#utility.yul\":23787:23801   */\n      add\n        /* \"#utility.yul\":23780:23833   */\n      mstore\n        /* \"#utility.yul\":23663:23840   */\n      pop\n      jump\t// out\n        /* \"#utility.yul\":23846:24212   */\n    tag_279:\n        /* \"#utility.yul\":23988:23991   */\n      0x00\n        /* \"#utility.yul\":24009:24076   */\n      tag_540\n        /* \"#utility.yul\":24073:24075   */\n      0x1b\n        /* \"#utility.yul\":24068:24071   */\n      dup4\n        /* \"#utility.yul\":24009:24076   */\n      tag_260\n      jump\t// in\n    tag_540:\n        /* \"#utility.yul\":24002:24076   */\n      swap2\n      pop\n        /* \"#utility.yul\":24085:24178   */\n      tag_541\n        /* \"#utility.yul\":24174:24177   */\n      dup3\n        /* \"#utility.yul\":24085:24178   */\n      tag_278\n      jump\t// in\n    tag_541:\n        /* \"#utility.yul\":24203:24205   */\n      0x20\n        /* \"#utility.yul\":24198:24201   */\n      dup3\n        /* \"#utility.yul\":24194:24206   */\n      add\n        /* \"#utility.yul\":24187:24206   */\n      swap1\n      pop\n        /* \"#utility.yul\":23846:24212   */\n      swap2\n      swap1\n      pop\n      jump\t// out\n        /* \"#utility.yul\":24218:24637   */\n    tag_137:\n        /* \"#utility.yul\":24384:24388   */\n      0x00\n        /* \"#utility.yul\":24422:24424   */\n      0x20\n        /* \"#utility.yul\":24411:24420   */\n      dup3\n        /* \"#utility.yul\":24407:24425   */\n      add\n        /* \"#utility.yul\":24399:24425   */\n      swap1\n      pop\n        /* \"#utility.yul\":24471:24480   */\n      dup2\n        /* \"#utility.yul\":24465:24469   */\n      dup2\n        /* \"#utility.yul\":24461:24481   */\n      sub\n        /* \"#utility.yul\":24457:24458   */\n      0x00\n        /* \"#utility.yul\":24446:24455   */\n      dup4\n        /* \"#utility.yul\":24442:24459   */\n      add\n        /* \"#utility.yul\":24435:24482   */\n      mstore\n        /* \"#utility.yul\":24499:24630   */\n      tag_543\n        /* \"#utility.yul\":24625:24629   */\n      dup2\n        /* \"#utility.yul\":24499:24630   */\n      tag_279\n      jump\t// in\n    tag_543:\n        /* \"#utility.yul\":24491:24630   */\n      swap1\n      pop\n        /* \"#utility.yul\":24218:24637   */\n      swap2\n      swap1\n      pop\n      jump\t// out\n        /* \"#utility.yul\":24643:24825   */\n    tag_280:\n        /* \"#utility.yul\":24783:24817   */\n      0x63726561746557616c6c65743a206475706c6963617465642061646472657373\n        /* \"#utility.yul\":24779:24780   */\n      0x00\n        /* \"#utility.yul\":24771:24777   */\n      dup3\n        /* \"#utility.yul\":24767:24781   */\n      add\n        /* \"#utility.yul\":24760:24818   */\n      mstore\n        /* \"#utility.yul\":24643:24825   */\n      pop\n      jump\t// out\n        /* \"#utility.yul\":24831:25197   */\n    tag_281:\n        /* \"#utility.yul\":24973:24976   */\n      0x00\n        /* \"#utility.yul\":24994:25061   */\n      tag_546\n        /* \"#utility.yul\":25058:25060   */\n      0x20\n        /* \"#utility.yul\":25053:25056   */\n      dup4\n        /* \"#utility.yul\":24994:25061   */\n      tag_260\n      jump\t// in\n    tag_546:\n        /* \"#utility.yul\":24987:25061   */\n      swap2\n      pop\n        /* \"#utility.yul\":25070:25163   */\n      tag_547\n        /* \"#utility.yul\":25159:25162   */\n      dup3\n        /* \"#utility.yul\":25070:25163   */\n      tag_280\n      jump\t// in\n    tag_547:\n        /* \"#utility.yul\":25188:25190   */\n      0x20\n        /* \"#utility.yul\":25183:25186   */\n      dup3\n        /* \"#utility.yul\":25179:25191   */\n      add\n        /* \"#utility.yul\":25172:25191   */\n      swap1\n      pop\n        /* \"#utility.yul\":24831:25197   */\n      swap2\n      swap1\n      pop\n      jump\t// out\n        /* \"#utility.yul\":25203:25622   */\n    tag_147:\n        /* \"#utility.yul\":25369:25373   */\n      0x00\n        /* \"#utility.yul\":25407:25409   */\n      0x20\n        /* \"#utility.yul\":25396:25405   */\n      dup3\n        /* \"#utility.yul\":25392:25410   */\n      add\n        /* \"#utility.yul\":25384:25410   */\n      swap1\n      pop\n        /* \"#utility.yul\":25456:25465   */\n      dup2\n        /* \"#utility.yul\":25450:25454   */\n      dup2\n        /* \"#utility.yul\":25446:25466   */\n      sub\n        /* \"#utility.yul\":25442:25443   */\n      0x00\n        /* \"#utility.yul\":25431:25440   */\n      dup4\n        /* \"#utility.yul\":25427:25444   */\n      add\n        /* \"#utility.yul\":25420:25467   */\n      mstore\n        /* \"#utility.yul\":25484:25615   */\n      tag_549\n        /* \"#utility.yul\":25610:25614   */\n      dup2\n        /* \"#utility.yul\":25484:25615   */\n      tag_281\n      jump\t// in\n    tag_549:\n        /* \"#utility.yul\":25476:25615   */\n      swap1\n      pop\n        /* \"#utility.yul\":25203:25622   */\n      swap2\n      swap1\n      pop\n      jump\t// out\n        /* \"#utility.yul\":25628:26221   */\n    tag_150:\n        /* \"#utility.yul\":25827:25831   */\n      0x00\n        /* \"#utility.yul\":25865:25867   */\n      0x60\n        /* \"#utility.yul\":25854:25863   */\n      dup3\n        /* \"#utility.yul\":25850:25868   */\n      add\n        /* \"#utility.yul\":25842:25868   */\n      swap1\n      pop\n        /* \"#utility.yul\":25914:25923   */\n      dup2\n        /* \"#utility.yul\":25908:25912   */\n      dup2\n        /* \"#utility.yul\":25904:25924   */\n      sub\n        /* \"#utility.yul\":25900:25901   */\n      0x00\n        /* \"#utility.yul\":25889:25898   */\n      dup4\n        /* \"#utility.yul\":25885:25902   */\n      add\n        /* \"#utility.yul\":25878:25925   */\n      mstore\n        /* \"#utility.yul\":25942:26050   */\n      tag_551\n        /* \"#utility.yul\":26045:26049   */\n      dup2\n        /* \"#utility.yul\":26036:26042   */\n      dup7\n        /* \"#utility.yul\":25942:26050   */\n      tag_255\n      jump\t// in\n    tag_551:\n        /* \"#utility.yul\":25934:26050   */\n      swap1\n      pop\n        /* \"#utility.yul\":26060:26132   */\n      tag_552\n        /* \"#utility.yul\":26128:26130   */\n      0x20\n        /* \"#utility.yul\":26117:26126   */\n      dup4\n        /* \"#utility.yul\":26113:26131   */\n      add\n        /* \"#utility.yul\":26104:26110   */\n      dup6\n        /* \"#utility.yul\":26060:26132   */\n      tag_257\n      jump\t// in\n    tag_552:\n        /* \"#utility.yul\":26142:26214   */\n      tag_553\n        /* \"#utility.yul\":26210:26212   */\n      0x40\n        /* \"#utility.yul\":26199:26208   */\n      dup4\n        /* \"#utility.yul\":26195:26213   */\n      add\n        /* \"#utility.yul\":26186:26192   */\n      dup5\n        /* \"#utility.yul\":26142:26214   */\n      tag_257\n      jump\t// in\n    tag_553:\n        /* \"#utility.yul\":25628:26221   */\n      swap5\n      swap4\n      pop\n      pop\n      pop\n      pop\n      jump\t// out\n        /* \"#utility.yul\":26227:26406   */\n    tag_282:\n        /* \"#utility.yul\":26367:26398   */\n      0x77616c6c6574496e666f3a2077616c6c6574206e6f7420657869737473000000\n        /* \"#utility.yul\":26363:26364   */\n      0x00\n        /* \"#utility.yul\":26355:26361   */\n      dup3\n        /* \"#utility.yul\":26351:26365   */\n      add\n        /* \"#utility.yul\":26344:26399   */\n      mstore\n        /* \"#utility.yul\":26227:26406   */\n      pop\n      jump\t// out\n        /* \"#utility.yul\":26412:26778   */\n    tag_283:\n        /* \"#utility.yul\":26554:26557   */\n      0x00\n        /* \"#utility.yul\":26575:26642   */\n      tag_556\n        /* \"#utility.yul\":26639:26641   */\n      0x1d\n        /* \"#utility.yul\":26634:26637   */\n      dup4\n        /* \"#utility.yul\":26575:26642   */\n      tag_260\n      jump\t// in\n    tag_556:\n        /* \"#utility.yul\":26568:26642   */\n      swap2\n      pop\n        /* \"#utility.yul\":26651:26744   */\n      tag_557\n        /* \"#utility.yul\":26740:26743   */\n      dup3\n        /* \"#utility.yul\":26651:26744   */\n      tag_282\n      jump\t// in\n    tag_557:\n        /* \"#utility.yul\":26769:26771   */\n      0x20\n        /* \"#utility.yul\":26764:26767   */\n      dup3\n        /* \"#utility.yul\":26760:26772   */\n      add\n        /* \"#utility.yul\":26753:26772   */\n      swap1\n      pop\n        /* \"#utility.yul\":26412:26778   */\n      swap2\n      swap1\n      pop\n      jump\t// out\n        /* \"#utility.yul\":26784:27203   */\n    tag_155:\n        /* \"#utility.yul\":26950:26954   */\n      0x00\n        /* \"#utility.yul\":26988:26990   */\n      0x20\n        /* \"#utility.yul\":26977:26986   */\n      dup3\n        /* \"#utility.yul\":26973:26991   */\n      add\n        /* \"#utility.yul\":26965:26991   */\n      swap1\n      pop\n        /* \"#utility.yul\":27037:27046   */\n      dup2\n        /* \"#utility.yul\":27031:27035   */\n      dup2\n        /* \"#utility.yul\":27027:27047   */\n      sub\n        /* \"#utility.yul\":27023:27024   */\n      0x00\n        /* \"#utility.yul\":27012:27021   */\n      dup4\n        /* \"#utility.yul\":27008:27025   */\n      add\n        /* \"#utility.yul\":27001:27048   */\n      mstore\n        /* \"#utility.yul\":27065:27196   */\n      tag_559\n        /* \"#utility.yul\":27191:27195   */\n      dup2\n        /* \"#utility.yul\":27065:27196   */\n      tag_283\n      jump\t// in\n    tag_559:\n        /* \"#utility.yul\":27057:27196   */\n      swap1\n      pop\n        /* \"#utility.yul\":26784:27203   */\n      swap2\n      swap1\n      pop\n      jump\t// out\n        /* \"#utility.yul\":27209:27327   */\n    tag_284:\n        /* \"#utility.yul\":27296:27320   */\n      tag_561\n        /* \"#utility.yul\":27314:27319   */\n      dup2\n        /* \"#utility.yul\":27296:27320   */\n      tag_227\n      jump\t// in\n    tag_561:\n        /* \"#utility.yul\":27291:27294   */\n      dup3\n        /* \"#utility.yul\":27284:27321   */\n      mstore\n        /* \"#utility.yul\":27209:27327   */\n      pop\n      pop\n      jump\t// out\n        /* \"#utility.yul\":27333:27501   */\n    tag_285:\n        /* \"#utility.yul\":27416:27427   */\n      0x00\n        /* \"#utility.yul\":27450:27456   */\n      dup3\n        /* \"#utility.yul\":27445:27448   */\n      dup3\n        /* \"#utility.yul\":27438:27457   */\n      mstore\n        /* \"#utility.yul\":27490:27494   */\n      0x20\n        /* \"#utility.yul\":27485:27488   */\n      dup3\n        /* \"#utility.yul\":27481:27495   */\n      add\n        /* \"#utility.yul\":27466:27495   */\n      swap1\n      pop\n        /* \"#utility.yul\":27333:27501   */\n      swap3\n      swap2\n      pop\n      pop\n      jump\t// out\n        /* \"#utility.yul\":27507:27880   */\n    tag_286:\n        /* \"#utility.yul\":27593:27596   */\n      0x00\n        /* \"#utility.yul\":27621:27659   */\n      tag_564\n        /* \"#utility.yul\":27653:27658   */\n      dup3\n        /* \"#utility.yul\":27621:27659   */\n      tag_266\n      jump\t// in\n    tag_564:\n        /* \"#utility.yul\":27675:27745   */\n      tag_565\n        /* \"#utility.yul\":27738:27744   */\n      dup2\n        /* \"#utility.yul\":27733:27736   */\n      dup6\n        /* \"#utility.yul\":27675:27745   */\n      tag_285\n      jump\t// in\n    tag_565:\n        /* \"#utility.yul\":27668:27745   */\n      swap4\n      pop\n        /* \"#utility.yul\":27754:27819   */\n      tag_566\n        /* \"#utility.yul\":27812:27818   */\n      dup2\n        /* \"#utility.yul\":27807:27810   */\n      dup6\n        /* \"#utility.yul\":27800:27804   */\n      0x20\n        /* \"#utility.yul\":27793:27798   */\n      dup7\n        /* \"#utility.yul\":27789:27805   */\n      add\n        /* \"#utility.yul\":27754:27819   */\n      tag_268\n      jump\t// in\n    tag_566:\n        /* \"#utility.yul\":27844:27873   */\n      tag_567\n        /* \"#utility.yul\":27866:27872   */\n      dup2\n        /* \"#utility.yul\":27844:27873   */\n      tag_235\n      jump\t// in\n    tag_567:\n        /* \"#utility.yul\":27839:27842   */\n      dup5\n        /* \"#utility.yul\":27835:27874   */\n      add\n        /* \"#utility.yul\":27828:27874   */\n      swap2\n      pop\n        /* \"#utility.yul\":27597:27880   */\n      pop\n        /* \"#utility.yul\":27507:27880   */\n      swap3\n      swap2\n      pop\n      pop\n      jump\t// out\n        /* \"#utility.yul\":27886:28748   */\n    tag_160:\n        /* \"#utility.yul\":28137:28141   */\n      0x00\n        /* \"#utility.yul\":28175:28178   */\n      0xc0\n        /* \"#utility.yul\":28164:28173   */\n      dup3\n        /* \"#utility.yul\":28160:28179   */\n      add\n        /* \"#utility.yul\":28152:28179   */\n      swap1\n      pop\n        /* \"#utility.yul\":28189:28260   */\n      tag_569\n        /* \"#utility.yul\":28257:28258   */\n      0x00\n        /* \"#utility.yul\":28246:28255   */\n      dup4\n        /* \"#utility.yul\":28242:28259   */\n      add\n        /* \"#utility.yul\":28233:28239   */\n      dup10\n        /* \"#utility.yul\":28189:28260   */\n      tag_256\n      jump\t// in\n    tag_569:\n        /* \"#utility.yul\":28270:28342   */\n      tag_570\n        /* \"#utility.yul\":28338:28340   */\n      0x20\n        /* \"#utility.yul\":28327:28336   */\n      dup4\n        /* \"#utility.yul\":28323:28341   */\n      add\n        /* \"#utility.yul\":28314:28320   */\n      dup9\n        /* \"#utility.yul\":28270:28342   */\n      tag_284\n      jump\t// in\n    tag_570:\n        /* \"#utility.yul\":28352:28424   */\n      tag_571\n        /* \"#utility.yul\":28420:28422   */\n      0x40\n        /* \"#utility.yul\":28409:28418   */\n      dup4\n        /* \"#utility.yul\":28405:28423   */\n      add\n        /* \"#utility.yul\":28396:28402   */\n      dup8\n        /* \"#utility.yul\":28352:28424   */\n      tag_257\n      jump\t// in\n    tag_571:\n        /* \"#utility.yul\":28471:28480   */\n      dup2\n        /* \"#utility.yul\":28465:28469   */\n      dup2\n        /* \"#utility.yul\":28461:28481   */\n      sub\n        /* \"#utility.yul\":28456:28458   */\n      0x60\n        /* \"#utility.yul\":28445:28454   */\n      dup4\n        /* \"#utility.yul\":28441:28459   */\n      add\n        /* \"#utility.yul\":28434:28482   */\n      mstore\n        /* \"#utility.yul\":28499:28575   */\n      tag_572\n        /* \"#utility.yul\":28570:28574   */\n      dup2\n        /* \"#utility.yul\":28561:28567   */\n      dup7\n        /* \"#utility.yul\":28499:28575   */\n      tag_286\n      jump\t// in\n    tag_572:\n        /* \"#utility.yul\":28491:28575   */\n      swap1\n      pop\n        /* \"#utility.yul\":28585:28658   */\n      tag_573\n        /* \"#utility.yul\":28653:28656   */\n      0x80\n        /* \"#utility.yul\":28642:28651   */\n      dup4\n        /* \"#utility.yul\":28638:28657   */\n      add\n        /* \"#utility.yul\":28629:28635   */\n      dup6\n        /* \"#utility.yul\":28585:28658   */\n      tag_257\n      jump\t// in\n    tag_573:\n        /* \"#utility.yul\":28668:28741   */\n      tag_574\n        /* \"#utility.yul\":28736:28739   */\n      0xa0\n        /* \"#utility.yul\":28725:28734   */\n      dup4\n        /* \"#utility.yul\":28721:28740   */\n      add\n        /* \"#utility.yul\":28712:28718   */\n      dup5\n        /* \"#utility.yul\":28668:28741   */\n      tag_257\n      jump\t// in\n    tag_574:\n        /* \"#utility.yul\":27886:28748   */\n      swap8\n      swap7\n      pop\n      pop\n      pop\n      pop\n      pop\n      pop\n      pop\n      jump\t// out\n        /* \"#utility.yul\":28754:28936   */\n    tag_287:\n        /* \"#utility.yul\":28894:28928   */\n      0x77616c6c657442616c616e63653a2077616c6c6574206e6f7420657869737473\n        /* \"#utility.yul\":28890:28891   */\n      0x00\n        /* \"#utility.yul\":28882:28888   */\n      dup3\n        /* \"#utility.yul\":28878:28892   */\n      add\n        /* \"#utility.yul\":28871:28929   */\n      mstore\n        /* \"#utility.yul\":28754:28936   */\n      pop\n      jump\t// out\n        /* \"#utility.yul\":28942:29308   */\n    tag_288:\n        /* \"#utility.yul\":29084:29087   */\n      0x00\n        /* \"#utility.yul\":29105:29172   */\n      tag_577\n        /* \"#utility.yul\":29169:29171   */\n      0x20\n        /* \"#utility.yul\":29164:29167   */\n      dup4\n        /* \"#utility.yul\":29105:29172   */\n      tag_260\n      jump\t// in\n    tag_577:\n        /* \"#utility.yul\":29098:29172   */\n      swap2\n      pop\n        /* \"#utility.yul\":29181:29274   */\n      tag_578\n        /* \"#utility.yul\":29270:29273   */\n      dup3\n        /* \"#utility.yul\":29181:29274   */\n      tag_287\n      jump\t// in\n    tag_578:\n        /* \"#utility.yul\":29299:29301   */\n      0x20\n        /* \"#utility.yul\":29294:29297   */\n      dup3\n        /* \"#utility.yul\":29290:29302   */\n      add\n        /* \"#utility.yul\":29283:29302   */\n      swap1\n      pop\n        /* \"#utility.yul\":28942:29308   */\n      swap2\n      swap1\n      pop\n      jump\t// out\n        /* \"#utility.yul\":29314:29733   */\n    tag_166:\n        /* \"#utility.yul\":29480:29484   */\n      0x00\n        /* \"#utility.yul\":29518:29520   */\n      0x20\n        /* \"#utility.yul\":29507:29516   */\n      dup3\n        /* \"#utility.yul\":29503:29521   */\n      add\n        /* \"#utility.yul\":29495:29521   */\n      swap1\n      pop\n        /* \"#utility.yul\":29567:29576   */\n      dup2\n        /* \"#utility.yul\":29561:29565   */\n      dup2\n        /* \"#utility.yul\":29557:29577   */\n      sub\n        /* \"#utility.yul\":29553:29554   */\n      0x00\n        /* \"#utility.yul\":29542:29551   */\n      dup4\n        /* \"#utility.yul\":29538:29555   */\n      add\n        /* \"#utility.yul\":29531:29578   */\n      mstore\n        /* \"#utility.yul\":29595:29726   */\n      tag_580\n        /* \"#utility.yul\":29721:29725   */\n      dup2\n        /* \"#utility.yul\":29595:29726   */\n      tag_288\n      jump\t// in\n    tag_580:\n        /* \"#utility.yul\":29587:29726   */\n      swap1\n      pop\n        /* \"#utility.yul\":29314:29733   */\n      swap2\n      swap1\n      pop\n      jump\t// out\n        /* \"#utility.yul\":29739:29966   */\n    tag_289:\n        /* \"#utility.yul\":29879:29913   */\n      0x636865636b5369676e6174757265733a207468726573686f6c64206d75737420\n        /* \"#utility.yul\":29875:29876   */\n      0x00\n        /* \"#utility.yul\":29867:29873   */\n      dup3\n        /* \"#utility.yul\":29863:29877   */\n      add\n        /* \"#utility.yul\":29856:29914   */\n      mstore\n        /* \"#utility.yul\":29948:29958   */\n      0x706f736974697665000000000000000000000000000000000000000000000000\n        /* \"#utility.yul\":29943:29945   */\n      0x20\n        /* \"#utility.yul\":29935:29941   */\n      dup3\n        /* \"#utility.yul\":29931:29946   */\n      add\n        /* \"#utility.yul\":29924:29959   */\n      mstore\n        /* \"#utility.yul\":29739:29966   */\n      pop\n      jump\t// out\n        /* \"#utility.yul\":29972:30338   */\n    tag_290:\n        /* \"#utility.yul\":30114:30117   */\n      0x00\n        /* \"#utility.yul\":30135:30202   */\n      tag_583\n        /* \"#utility.yul\":30199:30201   */\n      0x28\n        /* \"#utility.yul\":30194:30197   */\n      dup4\n        /* \"#utility.yul\":30135:30202   */\n      tag_260\n      jump\t// in\n    tag_583:\n        /* \"#utility.yul\":30128:30202   */\n      swap2\n      pop\n        /* \"#utility.yul\":30211:30304   */\n      tag_584\n        /* \"#utility.yul\":30300:30303   */\n      dup3\n        /* \"#utility.yul\":30211:30304   */\n      tag_289\n      jump\t// in\n    tag_584:\n        /* \"#utility.yul\":30329:30331   */\n      0x40\n        /* \"#utility.yul\":30324:30327   */\n      dup3\n        /* \"#utility.yul\":30320:30332   */\n      add\n        /* \"#utility.yul\":30313:30332   */\n      swap1\n      pop\n        /* \"#utility.yul\":29972:30338   */\n      swap2\n      swap1\n      pop\n      jump\t// out\n        /* \"#utility.yul\":30344:30763   */\n    tag_170:\n        /* \"#utility.yul\":30510:30514   */\n      0x00\n        /* \"#utility.yul\":30548:30550   */\n      0x20\n        /* \"#utility.yul\":30537:30546   */\n      dup3\n        /* \"#utility.yul\":30533:30551   */\n      add\n        /* \"#utility.yul\":30525:30551   */\n      swap1\n      pop\n        /* \"#utility.yul\":30597:30606   */\n      dup2\n        /* \"#utility.yul\":30591:30595   */\n      dup2\n        /* \"#utility.yul\":30587:30607   */\n      sub\n        /* \"#utility.yul\":30583:30584   */\n      0x00\n        /* \"#utility.yul\":30572:30581   */\n      dup4\n        /* \"#utility.yul\":30568:30585   */\n      add\n        /* \"#utility.yul\":30561:30608   */\n      mstore\n        /* \"#utility.yul\":30625:30756   */\n      tag_586\n        /* \"#utility.yul\":30751:30755   */\n      dup2\n        /* \"#utility.yul\":30625:30756   */\n      tag_290\n      jump\t// in\n    tag_586:\n        /* \"#utility.yul\":30617:30756   */\n      swap1\n      pop\n        /* \"#utility.yul\":30344:30763   */\n      swap2\n      swap1\n      pop\n      jump\t// out\n        /* \"#utility.yul\":30769:31179   */\n    tag_172:\n        /* \"#utility.yul\":30809:30816   */\n      0x00\n        /* \"#utility.yul\":30832:30852   */\n      tag_588\n        /* \"#utility.yul\":30850:30851   */\n      dup3\n        /* \"#utility.yul\":30832:30852   */\n      tag_230\n      jump\t// in\n    tag_588:\n        /* \"#utility.yul\":30827:30852   */\n      swap2\n      pop\n        /* \"#utility.yul\":30866:30886   */\n      tag_589\n        /* \"#utility.yul\":30884:30885   */\n      dup4\n        /* \"#utility.yul\":30866:30886   */\n      tag_230\n      jump\t// in\n    tag_589:\n        /* \"#utility.yul\":30861:30886   */\n      swap3\n      pop\n        /* \"#utility.yul\":30921:30922   */\n      dup3\n        /* \"#utility.yul\":30918:30919   */\n      dup3\n        /* \"#utility.yul\":30914:30923   */\n      mul\n        /* \"#utility.yul\":30943:30973   */\n      tag_590\n        /* \"#utility.yul\":30961:30972   */\n      dup2\n        /* \"#utility.yul\":30943:30973   */\n      tag_230\n      jump\t// in\n    tag_590:\n        /* \"#utility.yul\":30932:30973   */\n      swap2\n      pop\n        /* \"#utility.yul\":31122:31123   */\n      dup3\n        /* \"#utility.yul\":31113:31120   */\n      dup3\n        /* \"#utility.yul\":31109:31124   */\n      div\n        /* \"#utility.yul\":31106:31107   */\n      dup5\n        /* \"#utility.yul\":31103:31125   */\n      eq\n        /* \"#utility.yul\":31083:31084   */\n      dup4\n        /* \"#utility.yul\":31076:31085   */\n      iszero\n        /* \"#utility.yul\":31056:31139   */\n      or\n        /* \"#utility.yul\":31033:31172   */\n      tag_591\n      jumpi\n        /* \"#utility.yul\":31152:31170   */\n      tag_592\n      tag_265\n      jump\t// in\n    tag_592:\n        /* \"#utility.yul\":31033:31172   */\n    tag_591:\n        /* \"#utility.yul\":30817:31179   */\n      pop\n        /* \"#utility.yul\":30769:31179   */\n      swap3\n      swap2\n      pop\n      pop\n      jump\t// out\n        /* \"#utility.yul\":31185:31417   */\n    tag_291:\n        /* \"#utility.yul\":31325:31359   */\n      0x636865636b5369676e6174757265733a207369676e617475726573206c656e67\n        /* \"#utility.yul\":31321:31322   */\n      0x00\n        /* \"#utility.yul\":31313:31319   */\n      dup3\n        /* \"#utility.yul\":31309:31323   */\n      add\n        /* \"#utility.yul\":31302:31360   */\n      mstore\n        /* \"#utility.yul\":31394:31409   */\n      0x7468206e6f7420656e6f75676800000000000000000000000000000000000000\n        /* \"#utility.yul\":31389:31391   */\n      0x20\n        /* \"#utility.yul\":31381:31387   */\n      dup3\n        /* \"#utility.yul\":31377:31392   */\n      add\n        /* \"#utility.yul\":31370:31410   */\n      mstore\n        /* \"#utility.yul\":31185:31417   */\n      pop\n      jump\t// out\n        /* \"#utility.yul\":31423:31789   */\n    tag_292:\n        /* \"#utility.yul\":31565:31568   */\n      0x00\n        /* \"#utility.yul\":31586:31653   */\n      tag_595\n        /* \"#utility.yul\":31650:31652   */\n      0x2d\n        /* \"#utility.yul\":31645:31648   */\n      dup4\n        /* \"#utility.yul\":31586:31653   */\n      tag_260\n      jump\t// in\n    tag_595:\n        /* \"#utility.yul\":31579:31653   */\n      swap2\n      pop\n        /* \"#utility.yul\":31662:31755   */\n      tag_596\n        /* \"#utility.yul\":31751:31754   */\n      dup3\n        /* \"#utility.yul\":31662:31755   */\n      tag_291\n      jump\t// in\n    tag_596:\n        /* \"#utility.yul\":31780:31782   */\n      0x40\n        /* \"#utility.yul\":31775:31778   */\n      dup3\n        /* \"#utility.yul\":31771:31783   */\n      add\n        /* \"#utility.yul\":31764:31783   */\n      swap1\n      pop\n        /* \"#utility.yul\":31423:31789   */\n      swap2\n      swap1\n      pop\n      jump\t// out\n        /* \"#utility.yul\":31795:32214   */\n    tag_175:\n        /* \"#utility.yul\":31961:31965   */\n      0x00\n        /* \"#utility.yul\":31999:32001   */\n      0x20\n        /* \"#utility.yul\":31988:31997   */\n      dup3\n        /* \"#utility.yul\":31984:32002   */\n      add\n        /* \"#utility.yul\":31976:32002   */\n      swap1\n      pop\n        /* \"#utility.yul\":32048:32057   */\n      dup2\n        /* \"#utility.yul\":32042:32046   */\n      dup2\n        /* \"#utility.yul\":32038:32058   */\n      sub\n        /* \"#utility.yul\":32034:32035   */\n      0x00\n        /* \"#utility.yul\":32023:32032   */\n      dup4\n        /* \"#utility.yul\":32019:32036   */\n      add\n        /* \"#utility.yul\":32012:32059   */\n      mstore\n        /* \"#utility.yul\":32076:32207   */\n      tag_598\n        /* \"#utility.yul\":32202:32206   */\n      dup2\n        /* \"#utility.yul\":32076:32207   */\n      tag_292\n      jump\t// in\n    tag_598:\n        /* \"#utility.yul\":32068:32207   */\n      swap1\n      pop\n        /* \"#utility.yul\":31795:32214   */\n      swap2\n      swap1\n      pop\n      jump\t// out\n        /* \"#utility.yul\":32220:32368   */\n    tag_293:\n        /* \"#utility.yul\":32322:32333   */\n      0x00\n        /* \"#utility.yul\":32359:32362   */\n      dup2\n        /* \"#utility.yul\":32344:32362   */\n      swap1\n      pop\n        /* \"#utility.yul\":32220:32368   */\n      swap3\n      swap2\n      pop\n      pop\n      jump\t// out\n        /* \"#utility.yul\":32374:32588   */\n    tag_294:\n        /* \"#utility.yul\":32514:32580   */\n      0x19457468657265756d205369676e6564204d6573736167653a0a333200000000\n        /* \"#utility.yul\":32510:32511   */\n      0x00\n        /* \"#utility.yul\":32502:32508   */\n      dup3\n        /* \"#utility.yul\":32498:32512   */\n      add\n        /* \"#utility.yul\":32491:32581   */\n      mstore\n        /* \"#utility.yul\":32374:32588   */\n      pop\n      jump\t// out\n        /* \"#utility.yul\":32594:32996   */\n    tag_295:\n        /* \"#utility.yul\":32754:32757   */\n      0x00\n        /* \"#utility.yul\":32775:32860   */\n      tag_602\n        /* \"#utility.yul\":32857:32859   */\n      0x1c\n        /* \"#utility.yul\":32852:32855   */\n      dup4\n        /* \"#utility.yul\":32775:32860   */\n      tag_293\n      jump\t// in\n    tag_602:\n        /* \"#utility.yul\":32768:32860   */\n      swap2\n      pop\n        /* \"#utility.yul\":32869:32962   */\n      tag_603\n        /* \"#utility.yul\":32958:32961   */\n      dup3\n        /* \"#utility.yul\":32869:32962   */\n      tag_294\n      jump\t// in\n    tag_603:\n        /* \"#utility.yul\":32987:32989   */\n      0x1c\n        /* \"#utility.yul\":32982:32985   */\n      dup3\n        /* \"#utility.yul\":32978:32990   */\n      add\n        /* \"#utility.yul\":32971:32990   */\n      swap1\n      pop\n        /* \"#utility.yul\":32594:32996   */\n      swap2\n      swap1\n      pop\n      jump\t// out\n        /* \"#utility.yul\":33002:33081   */\n    tag_296:\n        /* \"#utility.yul\":33041:33048   */\n      0x00\n        /* \"#utility.yul\":33070:33075   */\n      dup2\n        /* \"#utility.yul\":33059:33075   */\n      swap1\n      pop\n        /* \"#utility.yul\":33002:33081   */\n      swap2\n      swap1\n      pop\n      jump\t// out\n        /* \"#utility.yul\":33087:33244   */\n    tag_297:\n        /* \"#utility.yul\":33192:33237   */\n      tag_606\n        /* \"#utility.yul\":33212:33236   */\n      tag_607\n        /* \"#utility.yul\":33230:33235   */\n      dup3\n        /* \"#utility.yul\":33212:33236   */\n      tag_223\n      jump\t// in\n    tag_607:\n        /* \"#utility.yul\":33192:33237   */\n      tag_296\n      jump\t// in\n    tag_606:\n        /* \"#utility.yul\":33187:33190   */\n      dup3\n        /* \"#utility.yul\":33180:33238   */\n      mstore\n        /* \"#utility.yul\":33087:33244   */\n      pop\n      pop\n      jump\t// out\n        /* \"#utility.yul\":33250:33772   */\n    tag_181:\n        /* \"#utility.yul\":33463:33466   */\n      0x00\n        /* \"#utility.yul\":33485:33633   */\n      tag_609\n        /* \"#utility.yul\":33629:33632   */\n      dup3\n        /* \"#utility.yul\":33485:33633   */\n      tag_295\n      jump\t// in\n    tag_609:\n        /* \"#utility.yul\":33478:33633   */\n      swap2\n      pop\n        /* \"#utility.yul\":33643:33718   */\n      tag_610\n        /* \"#utility.yul\":33714:33717   */\n      dup3\n        /* \"#utility.yul\":33705:33711   */\n      dup5\n        /* \"#utility.yul\":33643:33718   */\n      tag_297\n      jump\t// in\n    tag_610:\n        /* \"#utility.yul\":33743:33745   */\n      0x20\n        /* \"#utility.yul\":33738:33741   */\n      dup3\n        /* \"#utility.yul\":33734:33746   */\n      add\n        /* \"#utility.yul\":33727:33746   */\n      swap2\n      pop\n        /* \"#utility.yul\":33763:33766   */\n      dup2\n        /* \"#utility.yul\":33756:33766   */\n      swap1\n      pop\n        /* \"#utility.yul\":33250:33772   */\n      swap3\n      swap2\n      pop\n      pop\n      jump\t// out\n        /* \"#utility.yul\":33778:34323   */\n    tag_183:\n        /* \"#utility.yul\":33951:33955   */\n      0x00\n        /* \"#utility.yul\":33989:33992   */\n      0x80\n        /* \"#utility.yul\":33978:33987   */\n      dup3\n        /* \"#utility.yul\":33974:33993   */\n      add\n        /* \"#utility.yul\":33966:33993   */\n      swap1\n      pop\n        /* \"#utility.yul\":34003:34074   */\n      tag_612\n        /* \"#utility.yul\":34071:34072   */\n      0x00\n        /* \"#utility.yul\":34060:34069   */\n      dup4\n        /* \"#utility.yul\":34056:34073   */\n      add\n        /* \"#utility.yul\":34047:34053   */\n      dup8\n        /* \"#utility.yul\":34003:34074   */\n      tag_256\n      jump\t// in\n    tag_612:\n        /* \"#utility.yul\":34084:34152   */\n      tag_613\n        /* \"#utility.yul\":34148:34150   */\n      0x20\n        /* \"#utility.yul\":34137:34146   */\n      dup4\n        /* \"#utility.yul\":34133:34151   */\n      add\n        /* \"#utility.yul\":34124:34130   */\n      dup7\n        /* \"#utility.yul\":34084:34152   */\n      tag_259\n      jump\t// in\n    tag_613:\n        /* \"#utility.yul\":34162:34234   */\n      tag_614\n        /* \"#utility.yul\":34230:34232   */\n      0x40\n        /* \"#utility.yul\":34219:34228   */\n      dup4\n        /* \"#utility.yul\":34215:34233   */\n      add\n        /* \"#utility.yul\":34206:34212   */\n      dup6\n        /* \"#utility.yul\":34162:34234   */\n      tag_256\n      jump\t// in\n    tag_614:\n        /* \"#utility.yul\":34244:34316   */\n      tag_615\n        /* \"#utility.yul\":34312:34314   */\n      0x60\n        /* \"#utility.yul\":34301:34310   */\n      dup4\n        /* \"#utility.yul\":34297:34315   */\n      add\n        /* \"#utility.yul\":34288:34294   */\n      dup5\n        /* \"#utility.yul\":34244:34316   */\n      tag_256\n      jump\t// in\n    tag_615:\n        /* \"#utility.yul\":33778:34323   */\n      swap6\n      swap5\n      pop\n      pop\n      pop\n      pop\n      pop\n      jump\t// out\n        /* \"#utility.yul\":34329:34556   */\n    tag_298:\n        /* \"#utility.yul\":34469:34503   */\n      0x636865636b5369676e6174757265733a2065637265636f766572206164647265\n        /* \"#utility.yul\":34465:34466   */\n      0x00\n        /* \"#utility.yul\":34457:34463   */\n      dup3\n        /* \"#utility.yul\":34453:34467   */\n      add\n        /* \"#utility.yul\":34446:34504   */\n      mstore\n        /* \"#utility.yul\":34538:34548   */\n      0x7373206572726f72000000000000000000000000000000000000000000000000\n        /* \"#utility.yul\":34533:34535   */\n      0x20\n        /* \"#utility.yul\":34525:34531   */\n      dup3\n        /* \"#utility.yul\":34521:34536   */\n      add\n        /* \"#utility.yul\":34514:34549   */\n      mstore\n        /* \"#utility.yul\":34329:34556   */\n      pop\n      jump\t// out\n        /* \"#utility.yul\":34562:34928   */\n    tag_299:\n        /* \"#utility.yul\":34704:34707   */\n      0x00\n        /* \"#utility.yul\":34725:34792   */\n      tag_618\n        /* \"#utility.yul\":34789:34791   */\n      0x28\n        /* \"#utility.yul\":34784:34787   */\n      dup4\n        /* \"#utility.yul\":34725:34792   */\n      tag_260\n      jump\t// in\n    tag_618:\n        /* \"#utility.yul\":34718:34792   */\n      swap2\n      pop\n        /* \"#utility.yul\":34801:34894   */\n      tag_619\n        /* \"#utility.yul\":34890:34893   */\n      dup3\n        /* \"#utility.yul\":34801:34894   */\n      tag_298\n      jump\t// in\n    tag_619:\n        /* \"#utility.yul\":34919:34921   */\n      0x40\n        /* \"#utility.yul\":34914:34917   */\n      dup3\n        /* \"#utility.yul\":34910:34922   */\n      add\n        /* \"#utility.yul\":34903:34922   */\n      swap1\n      pop\n        /* \"#utility.yul\":34562:34928   */\n      swap2\n      swap1\n      pop\n      jump\t// out\n        /* \"#utility.yul\":34934:35353   */\n    tag_189:\n        /* \"#utility.yul\":35100:35104   */\n      0x00\n        /* \"#utility.yul\":35138:35140   */\n      0x20\n        /* \"#utility.yul\":35127:35136   */\n      dup3\n        /* \"#utility.yul\":35123:35141   */\n      add\n        /* \"#utility.yul\":35115:35141   */\n      swap1\n      pop\n        /* \"#utility.yul\":35187:35196   */\n      dup2\n        /* \"#utility.yul\":35181:35185   */\n      dup2\n        /* \"#utility.yul\":35177:35197   */\n      sub\n        /* \"#utility.yul\":35173:35174   */\n      0x00\n        /* \"#utility.yul\":35162:35171   */\n      dup4\n        /* \"#utility.yul\":35158:35175   */\n      add\n        /* \"#utility.yul\":35151:35198   */\n      mstore\n        /* \"#utility.yul\":35215:35346   */\n      tag_621\n        /* \"#utility.yul\":35341:35345   */\n      dup2\n        /* \"#utility.yul\":35215:35346   */\n      tag_299\n      jump\t// in\n    tag_621:\n        /* \"#utility.yul\":35207:35346   */\n      swap1\n      pop\n        /* \"#utility.yul\":34934:35353   */\n      swap2\n      swap1\n      pop\n      jump\t// out\n        /* \"#utility.yul\":35359:35579   */\n    tag_300:\n        /* \"#utility.yul\":35499:35533   */\n      0x77616c6c657452656368617267653a2077616c6c6574206e6f74206578697374\n        /* \"#utility.yul\":35495:35496   */\n      0x00\n        /* \"#utility.yul\":35487:35493   */\n      dup3\n        /* \"#utility.yul\":35483:35497   */\n      add\n        /* \"#utility.yul\":35476:35534   */\n      mstore\n        /* \"#utility.yul\":35568:35571   */\n      0x7300000000000000000000000000000000000000000000000000000000000000\n        /* \"#utility.yul\":35563:35565   */\n      0x20\n        /* \"#utility.yul\":35555:35561   */\n      dup3\n        /* \"#utility.yul\":35551:35566   */\n      add\n        /* \"#utility.yul\":35544:35572   */\n      mstore\n        /* \"#utility.yul\":35359:35579   */\n      pop\n      jump\t// out\n        /* \"#utility.yul\":35585:35951   */\n    tag_301:\n        /* \"#utility.yul\":35727:35730   */\n      0x00\n        /* \"#utility.yul\":35748:35815   */\n      tag_624\n        /* \"#utility.yul\":35812:35814   */\n      0x21\n        /* \"#utility.yul\":35807:35810   */\n      dup4\n        /* \"#utility.yul\":35748:35815   */\n      tag_260\n      jump\t// in\n    tag_624:\n        /* \"#utility.yul\":35741:35815   */\n      swap2\n      pop\n        /* \"#utility.yul\":35824:35917   */\n      tag_625\n        /* \"#utility.yul\":35913:35916   */\n      dup3\n        /* \"#utility.yul\":35824:35917   */\n      tag_300\n      jump\t// in\n    tag_625:\n        /* \"#utility.yul\":35942:35944   */\n      0x40\n        /* \"#utility.yul\":35937:35940   */\n      dup3\n        /* \"#utility.yul\":35933:35945   */\n      add\n        /* \"#utility.yul\":35926:35945   */\n      swap1\n      pop\n        /* \"#utility.yul\":35585:35951   */\n      swap2\n      swap1\n      pop\n      jump\t// out\n        /* \"#utility.yul\":35957:36376   */\n    tag_194:\n        /* \"#utility.yul\":36123:36127   */\n      0x00\n        /* \"#utility.yul\":36161:36163   */\n      0x20\n        /* \"#utility.yul\":36150:36159   */\n      dup3\n        /* \"#utility.yul\":36146:36164   */\n      add\n        /* \"#utility.yul\":36138:36164   */\n      swap1\n      pop\n        /* \"#utility.yul\":36210:36219   */\n      dup2\n        /* \"#utility.yul\":36204:36208   */\n      dup2\n        /* \"#utility.yul\":36200:36220   */\n      sub\n        /* \"#utility.yul\":36196:36197   */\n      0x00\n        /* \"#utility.yul\":36185:36194   */\n      dup4\n        /* \"#utility.yul\":36181:36198   */\n      add\n        /* \"#utility.yul\":36174:36221   */\n      mstore\n        /* \"#utility.yul\":36238:36369   */\n      tag_627\n        /* \"#utility.yul\":36364:36368   */\n      dup2\n        /* \"#utility.yul\":36238:36369   */\n      tag_301\n      jump\t// in\n    tag_627:\n        /* \"#utility.yul\":36230:36369   */\n      swap1\n      pop\n        /* \"#utility.yul\":35957:36376   */\n      swap2\n      swap1\n      pop\n      jump\t// out\n        /* \"#utility.yul\":36382:36564   */\n    tag_302:\n        /* \"#utility.yul\":36522:36556   */\n      0x77616c6c657452656368617267653a207061796d656e74207265717569726564\n        /* \"#utility.yul\":36518:36519   */\n      0x00\n        /* \"#utility.yul\":36510:36516   */\n      dup3\n        /* \"#utility.yul\":36506:36520   */\n      add\n        /* \"#utility.yul\":36499:36557   */\n      mstore\n        /* \"#utility.yul\":36382:36564   */\n      pop\n      jump\t// out\n        /* \"#utility.yul\":36570:36936   */\n    tag_303:\n        /* \"#utility.yul\":36712:36715   */\n      0x00\n        /* \"#utility.yul\":36733:36800   */\n      tag_630\n        /* \"#utility.yul\":36797:36799   */\n      0x20\n        /* \"#utility.yul\":36792:36795   */\n      dup4\n        /* \"#utility.yul\":36733:36800   */\n      tag_260\n      jump\t// in\n    tag_630:\n        /* \"#utility.yul\":36726:36800   */\n      swap2\n      pop\n        /* \"#utility.yul\":36809:36902   */\n      tag_631\n        /* \"#utility.yul\":36898:36901   */\n      dup3\n        /* \"#utility.yul\":36809:36902   */\n      tag_302\n      jump\t// in\n    tag_631:\n        /* \"#utility.yul\":36927:36929   */\n      0x20\n        /* \"#utility.yul\":36922:36925   */\n      dup3\n        /* \"#utility.yul\":36918:36930   */\n      add\n        /* \"#utility.yul\":36911:36930   */\n      swap1\n      pop\n        /* \"#utility.yul\":36570:36936   */\n      swap2\n      swap1\n      pop\n      jump\t// out\n        /* \"#utility.yul\":36942:37361   */\n    tag_197:\n        /* \"#utility.yul\":37108:37112   */\n      0x00\n        /* \"#utility.yul\":37146:37148   */\n      0x20\n        /* \"#utility.yul\":37135:37144   */\n      dup3\n        /* \"#utility.yul\":37131:37149   */\n      add\n        /* \"#utility.yul\":37123:37149   */\n      swap1\n      pop\n        /* \"#utility.yul\":37195:37204   */\n      dup2\n        /* \"#utility.yul\":37189:37193   */\n      dup2\n        /* \"#utility.yul\":37185:37205   */\n      sub\n        /* \"#utility.yul\":37181:37182   */\n      0x00\n        /* \"#utility.yul\":37170:37179   */\n      dup4\n        /* \"#utility.yul\":37166:37183   */\n      add\n        /* \"#utility.yul\":37159:37206   */\n      mstore\n        /* \"#utility.yul\":37223:37354   */\n      tag_633\n        /* \"#utility.yul\":37349:37353   */\n      dup2\n        /* \"#utility.yul\":37223:37354   */\n      tag_303\n      jump\t// in\n    tag_633:\n        /* \"#utility.yul\":37215:37354   */\n      swap1\n      pop\n        /* \"#utility.yul\":36942:37361   */\n      swap2\n      swap1\n      pop\n      jump\t// out\n        /* \"#utility.yul\":37367:37594   */\n    tag_304:\n        /* \"#utility.yul\":37507:37541   */\n      0x72656d6562657257616c6c6574416464726573733a206475706c696361746564\n        /* \"#utility.yul\":37503:37504   */\n      0x00\n        /* \"#utility.yul\":37495:37501   */\n      dup3\n        /* \"#utility.yul\":37491:37505   */\n      add\n        /* \"#utility.yul\":37484:37542   */\n      mstore\n        /* \"#utility.yul\":37576:37586   */\n      0x2061646472657373000000000000000000000000000000000000000000000000\n        /* \"#utility.yul\":37571:37573   */\n      0x20\n        /* \"#utility.yul\":37563:37569   */\n      dup3\n        /* \"#utility.yul\":37559:37574   */\n      add\n        /* \"#utility.yul\":37552:37587   */\n      mstore\n        /* \"#utility.yul\":37367:37594   */\n      pop\n      jump\t// out\n        /* \"#utility.yul\":37600:37966   */\n    tag_305:\n        /* \"#utility.yul\":37742:37745   */\n      0x00\n        /* \"#utility.yul\":37763:37830   */\n      tag_636\n        /* \"#utility.yul\":37827:37829   */\n      0x28\n        /* \"#utility.yul\":37822:37825   */\n      dup4\n        /* \"#utility.yul\":37763:37830   */\n      tag_260\n      jump\t// in\n    tag_636:\n        /* \"#utility.yul\":37756:37830   */\n      swap2\n      pop\n        /* \"#utility.yul\":37839:37932   */\n      tag_637\n        /* \"#utility.yul\":37928:37931   */\n      dup3\n        /* \"#utility.yul\":37839:37932   */\n      tag_304\n      jump\t// in\n    tag_637:\n        /* \"#utility.yul\":37957:37959   */\n      0x40\n        /* \"#utility.yul\":37952:37955   */\n      dup3\n        /* \"#utility.yul\":37948:37960   */\n      add\n        /* \"#utility.yul\":37941:37960   */\n      swap1\n      pop\n        /* \"#utility.yul\":37600:37966   */\n      swap2\n      swap1\n      pop\n      jump\t// out\n        /* \"#utility.yul\":37972:38391   */\n    tag_215:\n        /* \"#utility.yul\":38138:38142   */\n      0x00\n        /* \"#utility.yul\":38176:38178   */\n      0x20\n        /* \"#utility.yul\":38165:38174   */\n      dup3\n        /* \"#utility.yul\":38161:38179   */\n      add\n        /* \"#utility.yul\":38153:38179   */\n      swap1\n      pop\n        /* \"#utility.yul\":38225:38234   */\n      dup2\n        /* \"#utility.yul\":38219:38223   */\n      dup2\n        /* \"#utility.yul\":38215:38235   */\n      sub\n        /* \"#utility.yul\":38211:38212   */\n      0x00\n        /* \"#utility.yul\":38200:38209   */\n      dup4\n        /* \"#utility.yul\":38196:38213   */\n      add\n        /* \"#utility.yul\":38189:38236   */\n      mstore\n        /* \"#utility.yul\":38253:38384   */\n      tag_639\n        /* \"#utility.yul\":38379:38383   */\n      dup2\n        /* \"#utility.yul\":38253:38384   */\n      tag_305\n      jump\t// in\n    tag_639:\n        /* \"#utility.yul\":38245:38384   */\n      swap1\n      pop\n        /* \"#utility.yul\":37972:38391   */\n      swap2\n      swap1\n      pop\n      jump\t// out\n        /* \"#utility.yul\":38397:38560   */\n    tag_306:\n        /* \"#utility.yul\":38514:38525   */\n      0x00\n        /* \"#utility.yul\":38551:38554   */\n      dup2\n        /* \"#utility.yul\":38536:38554   */\n      swap1\n      pop\n        /* \"#utility.yul\":38397:38560   */\n      swap3\n      swap2\n      pop\n      pop\n      jump\t// out\n        /* \"#utility.yul\":38566:38682   */\n    tag_307:\n        /* \"#utility.yul\":38651:38675   */\n      tag_642\n        /* \"#utility.yul\":38669:38674   */\n      dup2\n        /* \"#utility.yul\":38651:38675   */\n      tag_227\n      jump\t// in\n    tag_642:\n        /* \"#utility.yul\":38646:38649   */\n      dup3\n        /* \"#utility.yul\":38639:38676   */\n      mstore\n        /* \"#utility.yul\":38566:38682   */\n      pop\n      pop\n      jump\t// out\n        /* \"#utility.yul\":38688:38883   */\n    tag_308:\n        /* \"#utility.yul\":38765:38775   */\n      0x00\n        /* \"#utility.yul\":38786:38840   */\n      tag_644\n        /* \"#utility.yul\":38836:38839   */\n      dup4\n        /* \"#utility.yul\":38828:38834   */\n      dup4\n        /* \"#utility.yul\":38786:38840   */\n      tag_307\n      jump\t// in\n    tag_644:\n        /* \"#utility.yul\":38872:38876   */\n      0x20\n        /* \"#utility.yul\":38867:38870   */\n      dup4\n        /* \"#utility.yul\":38863:38877   */\n      add\n        /* \"#utility.yul\":38849:38877   */\n      swap1\n      pop\n        /* \"#utility.yul\":38688:38883   */\n      swap3\n      swap2\n      pop\n      pop\n      jump\t// out\n        /* \"#utility.yul\":38919:39695   */\n    tag_309:\n        /* \"#utility.yul\":39056:39059   */\n      0x00\n        /* \"#utility.yul\":39085:39139   */\n      tag_646\n        /* \"#utility.yul\":39133:39138   */\n      dup3\n        /* \"#utility.yul\":39085:39139   */\n      tag_249\n      jump\t// in\n    tag_646:\n        /* \"#utility.yul\":39155:39259   */\n      tag_647\n        /* \"#utility.yul\":39252:39258   */\n      dup2\n        /* \"#utility.yul\":39247:39250   */\n      dup6\n        /* \"#utility.yul\":39155:39259   */\n      tag_306\n      jump\t// in\n    tag_647:\n        /* \"#utility.yul\":39148:39259   */\n      swap4\n      pop\n        /* \"#utility.yul\":39283:39339   */\n      tag_648\n        /* \"#utility.yul\":39333:39338   */\n      dup4\n        /* \"#utility.yul\":39283:39339   */\n      tag_251\n      jump\t// in\n    tag_648:\n        /* \"#utility.yul\":39362:39369   */\n      dup1\n        /* \"#utility.yul\":39393:39394   */\n      0x00\n        /* \"#utility.yul\":39378:39670   */\n    tag_649:\n        /* \"#utility.yul\":39403:39409   */\n      dup4\n        /* \"#utility.yul\":39400:39401   */\n      dup2\n        /* \"#utility.yul\":39397:39410   */\n      lt\n        /* \"#utility.yul\":39378:39670   */\n      iszero\n      tag_651\n      jumpi\n        /* \"#utility.yul\":39479:39485   */\n      dup2\n        /* \"#utility.yul\":39473:39486   */\n      mload\n        /* \"#utility.yul\":39506:39577   */\n      tag_652\n        /* \"#utility.yul\":39573:39576   */\n      dup9\n        /* \"#utility.yul\":39558:39571   */\n      dup3\n        /* \"#utility.yul\":39506:39577   */\n      tag_308\n      jump\t// in\n    tag_652:\n        /* \"#utility.yul\":39499:39577   */\n      swap8\n      pop\n        /* \"#utility.yul\":39600:39660   */\n      tag_653\n        /* \"#utility.yul\":39653:39659   */\n      dup4\n        /* \"#utility.yul\":39600:39660   */\n      tag_254\n      jump\t// in\n    tag_653:\n        /* \"#utility.yul\":39590:39660   */\n      swap3\n      pop\n        /* \"#utility.yul\":39438:39670   */\n      pop\n        /* \"#utility.yul\":39425:39426   */\n      0x01\n        /* \"#utility.yul\":39422:39423   */\n      dup2\n        /* \"#utility.yul\":39418:39427   */\n      add\n        /* \"#utility.yul\":39413:39427   */\n      swap1\n      pop\n        /* \"#utility.yul\":39378:39670   */\n      jump(tag_649)\n    tag_651:\n        /* \"#utility.yul\":39382:39396   */\n      pop\n        /* \"#utility.yul\":39686:39689   */\n      dup6\n        /* \"#utility.yul\":39679:39689   */\n      swap4\n      pop\n        /* \"#utility.yul\":39061:39695   */\n      pop\n      pop\n      pop\n        /* \"#utility.yul\":38919:39695   */\n      swap3\n      swap2\n      pop\n      pop\n      jump\t// out\n        /* \"#utility.yul\":39701:40036   */\n    tag_217:\n        /* \"#utility.yul\":39863:39866   */\n      0x00\n        /* \"#utility.yul\":39885:40010   */\n      tag_655\n        /* \"#utility.yul\":40006:40009   */\n      dup3\n        /* \"#utility.yul\":39997:40003   */\n      dup5\n        /* \"#utility.yul\":39885:40010   */\n      tag_309\n      jump\t// in\n    tag_655:\n        /* \"#utility.yul\":39878:40010   */\n      swap2\n      pop\n        /* \"#utility.yul\":40027:40030   */\n      dup2\n        /* \"#utility.yul\":40020:40030   */\n      swap1\n      pop\n        /* \"#utility.yul\":39701:40036   */\n      swap3\n      swap2\n      pop\n      pop\n      jump\t// out\n\n    auxdata: 0xa2646970667358221220e836d6cffd6544e68636f94d98318a78a53375f7c73d7c88504170b380582bd264736f6c634300081a0033\n}\n",
				"bytecode": {
					"linkReferences": {},
					"object": "6080604052348015600e575f80fd5b506124b38061001c5f395ff3fe608060405260043610610090575f3560e01c806394e5279c1161005857806394e5279c146101b7578063ab4b7010146101f5578063af9e219a14610231578063bcbae86214610259578063eaa48f631461027557610090565b8063161cac3e1461009457806319309177146100d05780633800a55d1461010c5780633c34b6e11461013c5780636aa70de11461017b575b5f80fd5b34801561009f575f80fd5b506100ba60048036038101906100b591906112f8565b6102b1565b6040516100c791906113c1565b60405180910390f35b3480156100db575f80fd5b506100f660048036038101906100f1919061149e565b6104f0565b604051610103919061159c565b60405180910390f35b610126600480360381019061012191906115bc565b61069e565b6040516101339190611625565b60405180910390f35b348015610147575f80fd5b50610162600480360381019061015d919061163e565b610a4f565b6040516101729493929190611678565b60405180910390f35b348015610186575f80fd5b506101a1600480360381019061019c91906116c2565b610b7b565b6040516101ae9190611625565b60405180910390f35b3480156101c2575f80fd5b506101dd60048036038101906101d89190611767565b610bb9565b6040516101ec939291906117dc565b60405180910390f35b348015610200575f80fd5b5061021b6004803603810190610216919061163e565b610be6565b6040516102289190611811565b60405180910390f35b34801561023c575f80fd5b506102576004803603810190610252919061182a565b610c4a565b005b610273600480360381019061026e919061163e565b610e7c565b005b348015610280575f80fd5b5061029b6004803603810190610296919061149e565b610f6a565b6040516102a89190611625565b60405180910390f35b5f6102bb866110be565b6102fa576040517f08c379a00000000000000000000000000000000000000000000000000000000081526004016102f190611916565b60405180910390fd5b835f808881526020019081526020015f20600401541015610350576040517f08c379a00000000000000000000000000000000000000000000000000000000081526004016103479061197e565b60405180910390fd5b5f610372878787875f808d81526020019081526020015f206003015446610b7b565b90505f808881526020019081526020015f206003015f815480929190610397906119c9565b9190505550845f808981526020019081526020015f206004015f8282546103be9190611a10565b925050819055506103d0878285610c4a565b5f8673ffffffffffffffffffffffffffffffffffffffff1686866040516103f79190611a95565b5f6040518083038185875af1925050503d805f8114610431576040519150601f19603f3d011682016040523d82523d5f602084013e610436565b606091505b505090508061047a576040517f08c379a000000000000000000000000000000000000000000000000000000000815260040161047190611af5565b60405180910390fd5b80156104b35781887f2343c14a87ee6171c01ff0e2c8061707429ea972a0db2d181649b553f6ee198e60405160405180910390a36104e2565b81887ff8de97432a1352b9fab9941f6727dca171a72eddcc8a75ced5611be06b29b78960405160405180910390a35b809250505095945050505050565b60605f825190505f5b81811015610694575f5b6001836105109190611a10565b81101561068657846001826105259190611b13565b8151811061053657610535611b46565b5b602002602001015173ffffffffffffffffffffffffffffffffffffffff1685828151811061056757610566611b46565b5b602002602001015173ffffffffffffffffffffffffffffffffffffffff161115610679575f85828151811061059f5761059e611b46565b5b60200260200101519050856001836105b79190611b13565b815181106105c8576105c7611b46565b5b60200260200101518683815181106105e3576105e2611b46565b5b602002602001019073ffffffffffffffffffffffffffffffffffffffff16908173ffffffffffffffffffffffffffffffffffffffff1681525050808660018461062c9190611b13565b8151811061063d5761063c611b46565b5b602002602001019073ffffffffffffffffffffffffffffffffffffffff16908173ffffffffffffffffffffffffffffffffffffffff1681525050505b8080600101915050610503565b5080806001019150506104f9565b5082915050919050565b5f80835190505f81116106e6576040517f08c379a00000000000000000000000000000000000000000000000000000000081526004016106dd90611bbd565b60405180910390fd5b5f8311610728576040517f08c379a000000000000000000000000000000000000000000000000000000000815260040161071f90611c4b565b60405180910390fd5b8083111561076b576040517f08c379a000000000000000000000000000000000000000000000000000000000815260040161076290611cd9565b60405180910390fd5b5f61077585610f6a565b9050610780816110be565b156107c0576040517f08c379a00000000000000000000000000000000000000000000000000000000081526004016107b790611d41565b60405180910390fd5b5f5b828110156109d7575f8682815181106107de576107dd611b46565b5b602002602001015190505f73ffffffffffffffffffffffffffffffffffffffff168173ffffffffffffffffffffffffffffffffffffffff161415801561085057503073ffffffffffffffffffffffffffffffffffffffff168173ffffffffffffffffffffffffffffffffffffffff1614155b80156108b457505f808481526020019081526020015f206001015f8273ffffffffffffffffffffffffffffffffffffffff1673ffffffffffffffffffffffffffffffffffffffff1681526020019081526020015f205f9054906101000a900460ff16155b6108f3576040517f08c379a00000000000000000000000000000000000000000000000000000000081526004016108ea90611da9565b60405180910390fd5b5f808481526020019081526020015f205f0181908060018154018082558091505060019003905f5260205f20015f9091909190916101000a81548173ffffffffffffffffffffffffffffffffffffffff021916908373ffffffffffffffffffffffffffffffffffffffff16021790555060015f808581526020019081526020015f206001015f8373ffffffffffffffffffffffffffffffffffffffff1673ffffffffffffffffffffffffffffffffffffffff1681526020019081526020015f205f6101000a81548160ff0219169083151502179055505080806001019150506107c2565b50835f808381526020019081526020015f2060020181905550345f808381526020019081526020015f2060040181905550807f6ff361c77f3fc84f51cca7eece7f6780d4c0814e2cbbb4765846ceb19e6c9b94868634604051610a3c93929190611dc7565b60405180910390a2809250505092915050565b60605f805f610a5d856110be565b610a9c576040517f08c379a0000000000000000000000000000000000000000000000000000000008152600401610a9390611e4d565b60405180910390fd5b5f808681526020019081526020015f205f01805480602002602001604051908101604052809291908181526020018280548015610b2b57602002820191905f5260205f20905b815f9054906101000a900473ffffffffffffffffffffffffffffffffffffffff1673ffffffffffffffffffffffffffffffffffffffff1681526020019060010190808311610ae2575b505050505093505f808681526020019081526020015f206002015492505f808681526020019081526020015f206003015491505f808681526020019081526020015f206004015490509193509193565b5f868686868686604051602001610b9796959493929190611ec2565b6040516020818303038152906040528051906020012090509695505050505050565b5f805f8360410260208101860151935060408101860151925060ff60418201870151169150509250925092565b5f610bf0826110be565b610c2f576040517f08c379a0000000000000000000000000000000000000000000000000000000008152600401610c2690611f72565b60405180910390fd5b5f808381526020019081526020015f20600401549050919050565b5f805f8581526020019081526020015f206002015490505f8111610ca3576040517f08c379a0000000000000000000000000000000000000000000000000000000008152600401610c9a90612000565b60405180910390fd5b604181610cb0919061201e565b82511015610cf3576040517f08c379a0000000000000000000000000000000000000000000000000000000008152600401610cea906120cf565b60405180910390fd5b5f80805f805f90505b85811015610e7157610d0e8782610bb9565b8094508195508296505050505f600189604051602001610d2e9190612161565b604051602081830303815290604052805190602001208487876040515f8152602001604052604051610d639493929190612186565b6020604051602081039080840390855afa158015610d83573d5f803e3d5ffd5b5050506020604051035190508573ffffffffffffffffffffffffffffffffffffffff168173ffffffffffffffffffffffffffffffffffffffff16118015610e2157505f808b81526020019081526020015f206001015f8273ffffffffffffffffffffffffffffffffffffffff1673ffffffffffffffffffffffffffffffffffffffff1681526020019081526020015f205f9054906101000a900460ff165b610e60576040517f08c379a0000000000000000000000000000000000000000000000000000000008152600401610e5790612239565b60405180910390fd5b809550508080600101915050610cfc565b505050505050505050565b610e85816110be565b610ec4576040517f08c379a0000000000000000000000000000000000000000000000000000000008152600401610ebb906122c7565b60405180910390fd5b5f3411610f06576040517f08c379a0000000000000000000000000000000000000000000000000000000008152600401610efd9061232f565b60405180910390fd5b345f808381526020019081526020015f206004015f828254610f289190611b13565b92505081905550807f3a2a22576eb1f878c2ea76f459f6518a52da5b82dcc9a09c579282919a6d393d34604051610f5f9190611811565b60405180910390a250565b5f80825190505f8111610fb2576040517f08c379a0000000000000000000000000000000000000000000000000000000008152600401610fa990611bbd565b60405180910390fd5b610fbb836104f0565b92505f5b600182610fcc9190611a10565b81101561108e5783600182610fe19190611b13565b81518110610ff257610ff1611b46565b5b602002602001015173ffffffffffffffffffffffffffffffffffffffff1684828151811061102357611022611b46565b5b602002602001015173ffffffffffffffffffffffffffffffffffffffff1603611081576040517f08c379a0000000000000000000000000000000000000000000000000000000008152600401611078906123bd565b60405180910390fd5b8080600101915050610fbf565b50826040516020016110a09190612467565b60405160208183030381529060405280519060200120915050919050565b5f805f808481526020019081526020015f2060020154036110e1575f90506110e6565b600190505b919050565b5f604051905090565b5f80fd5b5f80fd5b5f819050919050565b61110e816110fc565b8114611118575f80fd5b50565b5f8135905061112981611105565b92915050565b5f73ffffffffffffffffffffffffffffffffffffffff82169050919050565b5f6111588261112f565b9050919050565b6111688161114e565b8114611172575f80fd5b50565b5f813590506111838161115f565b92915050565b5f819050919050565b61119b81611189565b81146111a5575f80fd5b50565b5f813590506111b681611192565b92915050565b5f80fd5b5f80fd5b5f601f19601f8301169050919050565b7f4e487b71000000000000000000000000000000000000000000000000000000005f52604160045260245ffd5b61120a826111c4565b810181811067ffffffffffffffff82111715611229576112286111d4565b5b80604052505050565b5f61123b6110eb565b90506112478282611201565b919050565b5f67ffffffffffffffff821115611266576112656111d4565b5b61126f826111c4565b9050602081019050919050565b828183375f83830152505050565b5f61129c6112978461124c565b611232565b9050828152602081018484840111156112b8576112b76111c0565b5b6112c384828561127c565b509392505050565b5f82601f8301126112df576112de6111bc565b5b81356112ef84826020860161128a565b91505092915050565b5f805f805f60a08688031215611311576113106110f4565b5b5f61131e8882890161111b565b955050602061132f88828901611175565b9450506040611340888289016111a8565b935050606086013567ffffffffffffffff811115611361576113606110f8565b5b61136d888289016112cb565b925050608086013567ffffffffffffffff81111561138e5761138d6110f8565b5b61139a888289016112cb565b9150509295509295909350565b5f8115159050919050565b6113bb816113a7565b82525050565b5f6020820190506113d45f8301846113b2565b92915050565b5f67ffffffffffffffff8211156113f4576113f36111d4565b5b602082029050602081019050919050565b5f80fd5b5f61141b611416846113da565b611232565b9050808382526020820190506020840283018581111561143e5761143d611405565b5b835b8181101561146757806114538882611175565b845260208401935050602081019050611440565b5050509392505050565b5f82601f830112611485576114846111bc565b5b8135611495848260208601611409565b91505092915050565b5f602082840312156114b3576114b26110f4565b5b5f82013567ffffffffffffffff8111156114d0576114cf6110f8565b5b6114dc84828501611471565b91505092915050565b5f81519050919050565b5f82825260208201905092915050565b5f819050602082019050919050565b6115178161114e565b82525050565b5f611528838361150e565b60208301905092915050565b5f602082019050919050565b5f61154a826114e5565b61155481856114ef565b935061155f836114ff565b805f5b8381101561158f578151611576888261151d565b975061158183611534565b925050600181019050611562565b5085935050505092915050565b5f6020820190508181035f8301526115b48184611540565b905092915050565b5f80604083850312156115d2576115d16110f4565b5b5f83013567ffffffffffffffff8111156115ef576115ee6110f8565b5b6115fb85828601611471565b925050602061160c858286016111a8565b9150509250929050565b61161f816110fc565b82525050565b5f6020820190506116385f830184611616565b92915050565b5f60208284031215611653576116526110f4565b5b5f6116608482850161111b565b91505092915050565b61167281611189565b82525050565b5f6080820190508181035f8301526116908187611540565b905061169f6020830186611669565b6116ac6040830185611669565b6116b96060830184611669565b95945050505050565b5f805f805f8060c087890312156116dc576116db6110f4565b5b5f6116e989828a0161111b565b96505060206116fa89828a01611175565b955050604061170b89828a016111a8565b945050606087013567ffffffffffffffff81111561172c5761172b6110f8565b5b61173889828a016112cb565b935050608061174989828a016111a8565b92505060a061175a89828a016111a8565b9150509295509295509295565b5f806040838503121561177d5761177c6110f4565b5b5f83013567ffffffffffffffff81111561179a576117996110f8565b5b6117a6858286016112cb565b92505060206117b7858286016111a8565b9150509250929050565b5f60ff82169050919050565b6117d6816117c1565b82525050565b5f6060820190506117ef5f830186611616565b6117fc6020830185611616565b61180960408301846117cd565b949350505050565b5f6020820190506118245f830184611669565b92915050565b5f805f60608486031215611841576118406110f4565b5b5f61184e8682870161111b565b935050602061185f8682870161111b565b925050604084013567ffffffffffffffff8111156118805761187f6110f8565b5b61188c868287016112cb565b9150509250925092565b5f82825260208201905092915050565b7f657865637574655472616e73616374696f6e3a2077616c6c6574206e6f7420655f8201527f7869737473000000000000000000000000000000000000000000000000000000602082015250565b5f611900602583611896565b915061190b826118a6565b604082019050919050565b5f6020820190508181035f83015261192d816118f4565b9050919050565b7f696e73756666696369656e742062616c616e63650000000000000000000000005f82015250565b5f611968601483611896565b915061197382611934565b602082019050919050565b5f6020820190508181035f8301526119958161195c565b9050919050565b7f4e487b71000000000000000000000000000000000000000000000000000000005f52601160045260245ffd5b5f6119d382611189565b91507fffffffffffffffffffffffffffffffffffffffffffffffffffffffffffffffff8203611a0557611a0461199c565b5b600182019050919050565b5f611a1a82611189565b9150611a2583611189565b9250828203905081811115611a3d57611a3c61199c565b5b92915050565b5f81519050919050565b5f81905092915050565b8281835e5f83830152505050565b5f611a6f82611a43565b611a798185611a4d565b9350611a89818560208601611a57565b80840191505092915050565b5f611aa08284611a65565b915081905092915050565b7f657865637574655472616e73616374696f6e3a2063616c6c206661696c0000005f82015250565b5f611adf601d83611896565b9150611aea82611aab565b602082019050919050565b5f6020820190508181035f830152611b0c81611ad3565b9050919050565b5f611b1d82611189565b9150611b2883611189565b9250828201905080821115611b4057611b3f61199c565b5b92915050565b7f4e487b71000000000000000000000000000000000000000000000000000000005f52603260045260245ffd5b7f63726561746557616c6c65743a20656d707479206164647265737300000000005f82015250565b5f611ba7601b83611896565b9150611bb282611b73565b602082019050919050565b5f6020820190508181035f830152611bd481611b9b565b9050919050565b7f63726561746557616c6c65743a207468726573686f6c64206d75737420706f735f8201527f6974697665000000000000000000000000000000000000000000000000000000602082015250565b5f611c35602583611896565b9150611c4082611bdb565b604082019050919050565b5f6020820190508181035f830152611c6281611c29565b9050919050565b7f63726561746557616c6c65743a207468726573686f6c64206d6f7265207468615f8201527f6e206f776e657273206c656e6774680000000000000000000000000000000000602082015250565b5f611cc3602f83611896565b9150611cce82611c69565b604082019050919050565b5f6020820190508181035f830152611cf081611cb7565b9050919050565b7f63726561746557616c6c65743a2077616c6c65742065786973742100000000005f82015250565b5f611d2b601b83611896565b9150611d3682611cf7565b602082019050919050565b5f6020820190508181035f830152611d5881611d1f565b9050919050565b7f63726561746557616c6c65743a206475706c69636174656420616464726573735f82015250565b5f611d93602083611896565b9150611d9e82611d5f565b602082019050919050565b5f6020820190508181035f830152611dc081611d87565b9050919050565b5f6060820190508181035f830152611ddf8186611540565b9050611dee6020830185611669565b611dfb6040830184611669565b949350505050565b7f77616c6c6574496e666f3a2077616c6c6574206e6f74206578697374730000005f82015250565b5f611e37601d83611896565b9150611e4282611e03565b602082019050919050565b5f6020820190508181035f830152611e6481611e2b565b9050919050565b611e748161114e565b82525050565b5f82825260208201905092915050565b5f611e9482611a43565b611e9e8185611e7a565b9350611eae818560208601611a57565b611eb7816111c4565b840191505092915050565b5f60c082019050611ed55f830189611616565b611ee26020830188611e6b565b611eef6040830187611669565b8181036060830152611f018186611e8a565b9050611f106080830185611669565b611f1d60a0830184611669565b979650505050505050565b7f77616c6c657442616c616e63653a2077616c6c6574206e6f74206578697374735f82015250565b5f611f5c602083611896565b9150611f6782611f28565b602082019050919050565b5f6020820190508181035f830152611f8981611f50565b9050919050565b7f636865636b5369676e6174757265733a207468726573686f6c64206d757374205f8201527f706f736974697665000000000000000000000000000000000000000000000000602082015250565b5f611fea602883611896565b9150611ff582611f90565b604082019050919050565b5f6020820190508181035f83015261201781611fde565b9050919050565b5f61202882611189565b915061203383611189565b925082820261204181611189565b915082820484148315176120585761205761199c565b5b5092915050565b7f636865636b5369676e6174757265733a207369676e617475726573206c656e675f8201527f7468206e6f7420656e6f75676800000000000000000000000000000000000000602082015250565b5f6120b9602d83611896565b91506120c48261205f565b604082019050919050565b5f6020820190508181035f8301526120e6816120ad565b9050919050565b5f81905092915050565b7f19457468657265756d205369676e6564204d6573736167653a0a3332000000005f82015250565b5f61212b601c836120ed565b9150612136826120f7565b601c82019050919050565b5f819050919050565b61215b612156826110fc565b612141565b82525050565b5f61216b8261211f565b9150612177828461214a565b60208201915081905092915050565b5f6080820190506121995f830187611616565b6121a660208301866117cd565b6121b36040830185611616565b6121c06060830184611616565b95945050505050565b7f636865636b5369676e6174757265733a2065637265636f7665722061646472655f8201527f7373206572726f72000000000000000000000000000000000000000000000000602082015250565b5f612223602883611896565b915061222e826121c9565b604082019050919050565b5f6020820190508181035f83015261225081612217565b9050919050565b7f77616c6c657452656368617267653a2077616c6c6574206e6f742065786973745f8201527f7300000000000000000000000000000000000000000000000000000000000000602082015250565b5f6122b1602183611896565b91506122bc82612257565b604082019050919050565b5f6020820190508181035f8301526122de816122a5565b9050919050565b7f77616c6c657452656368617267653a207061796d656e742072657175697265645f82015250565b5f612319602083611896565b9150612324826122e5565b602082019050919050565b5f6020820190508181035f8301526123468161230d565b9050919050565b7f72656d6562657257616c6c6574416464726573733a206475706c6963617465645f8201527f2061646472657373000000000000000000000000000000000000000000000000602082015250565b5f6123a7602883611896565b91506123b28261234d565b604082019050919050565b5f6020820190508181035f8301526123d48161239b565b9050919050565b5f81905092915050565b6123ee8161114e565b82525050565b5f6123ff83836123e5565b60208301905092915050565b5f612415826114e5565b61241f81856123db565b935061242a836114ff565b805f5b8381101561245a57815161244188826123f4565b975061244c83611534565b92505060018101905061242d565b5085935050505092915050565b5f612472828461240b565b91508190509291505056fea2646970667358221220e836d6cffd6544e68636f94d98318a78a53375f7c73d7c88504170b380582bd264736f6c634300081a0033",
					"opcodes": "PUSH1 0x80 PUSH1 0x40 MSTORE CALLVALUE DUP1 ISZERO PUSH1 0xE JUMPI PUSH0 DUP1 REVERT JUMPDEST POP PUSH2 0x24B3 DUP1 PUSH2 0x1C PUSH0 CODECOPY PUSH0 RETURN INVALID PUSH1 0x80 PUSH1 0x40 MSTORE PUSH1 0x4 CALLDATASIZE LT PUSH2 0x90 JUMPI PUSH0 CALLDATALOAD PUSH1 0xE0 SHR DUP1 PUSH4 0x94E5279C GT PUSH2 0x58 JUMPI DUP1 PUSH4 0x94E5279C EQ PUSH2 0x1B7 JUMPI DUP1 PUSH4 0xAB4B7010 EQ PUSH2 0x1F5 JUMPI DUP1 PUSH4 0xAF9E219A EQ PUSH2 0x231 JUMPI DUP1 PUSH4 0xBCBAE862 EQ PUSH2 0x259 JUMPI DUP1 PUSH4 0xEAA48F63 EQ PUSH2 0x275 JUMPI PUSH2 0x90 JUMP JUMPDEST DUP1 PUSH4 0x161CAC3E EQ PUSH2 0x94 JUMPI DUP1 PUSH4 0x19309177 EQ PUSH2 0xD0 JUMPI DUP1 PUSH4 0x3800A55D EQ PUSH2 0x10C JUMPI DUP1 PUSH4 0x3C34B6E1 EQ PUSH2 0x13C JUMPI DUP1 PUSH4 0x6AA70DE1 EQ PUSH2 0x17B JUMPI JUMPDEST PUSH0 DUP1 REVERT JUMPDEST CALLVALUE DUP1 ISZERO PUSH2 0x9F JUMPI PUSH0 DUP1 REVERT JUMPDEST POP PUSH2 0xBA PUSH1 0x4 DUP1 CALLDATASIZE SUB DUP2 ADD SWAP1 PUSH2 0xB5 SWAP2 SWAP1 PUSH2 0x12F8 JUMP JUMPDEST PUSH2 0x2B1 JUMP JUMPDEST PUSH1 0x40 MLOAD PUSH2 0xC7 SWAP2 SWAP1 PUSH2 0x13C1 JUMP JUMPDEST PUSH1 0x40 MLOAD DUP1 SWAP2 SUB SWAP1 RETURN JUMPDEST CALLVALUE DUP1 ISZERO PUSH2 0xDB JUMPI PUSH0 DUP1 REVERT JUMPDEST POP PUSH2 0xF6 PUSH1 0x4 DUP1 CALLDATASIZE SUB DUP2 ADD SWAP1 PUSH2 0xF1 SWAP2 SWAP1 PUSH2 0x149E JUMP JUMPDEST PUSH2 0x4F0 JUMP JUMPDEST PUSH1 0x40 MLOAD PUSH2 0x103 SWAP2 SWAP1 PUSH2 0x159C JUMP JUMPDEST PUSH1 0x40 MLOAD DUP1 SWAP2 SUB SWAP1 RETURN JUMPDEST PUSH2 0x126 PUSH1 0x4 DUP1 CALLDATASIZE SUB DUP2 ADD SWAP1 PUSH2 0x121 SWAP2 SWAP1 PUSH2 0x15BC JUMP JUMPDEST PUSH2 0x69E JUMP JUMPDEST PUSH1 0x40 MLOAD PUSH2 0x133 SWAP2 SWAP1 PUSH2 0x1625 JUMP JUMPDEST PUSH1 0x40 MLOAD DUP1 SWAP2 SUB SWAP1 RETURN JUMPDEST CALLVALUE DUP1 ISZERO PUSH2 0x147 JUMPI PUSH0 DUP1 REVERT JUMPDEST POP PUSH2 0x162 PUSH1 0x4 DUP1 CALLDATASIZE SUB DUP2 ADD SWAP1 PUSH2 0x15D SWAP2 SWAP1 PUSH2 0x163E JUMP JUMPDEST PUSH2 0xA4F JUMP JUMPDEST PUSH1 0x40 MLOAD PUSH2 0x172 SWAP5 SWAP4 SWAP3 SWAP2 SWAP1 PUSH2 0x1678 JUMP JUMPDEST PUSH1 0x40 MLOAD DUP1 SWAP2 SUB SWAP1 RETURN JUMPDEST CALLVALUE DUP1 ISZERO PUSH2 0x186 JUMPI PUSH0 DUP1 REVERT JUMPDEST POP PUSH2 0x1A1 PUSH1 0x4 DUP1 CALLDATASIZE SUB DUP2 ADD SWAP1 PUSH2 0x19C SWAP2 SWAP1 PUSH2 0x16C2 JUMP JUMPDEST PUSH2 0xB7B JUMP JUMPDEST PUSH1 0x40 MLOAD PUSH2 0x1AE SWAP2 SWAP1 PUSH2 0x1625 JUMP JUMPDEST PUSH1 0x40 MLOAD DUP1 SWAP2 SUB SWAP1 RETURN JUMPDEST CALLVALUE DUP1 ISZERO PUSH2 0x1C2 JUMPI PUSH0 DUP1 REVERT JUMPDEST POP PUSH2 0x1DD PUSH1 0x4 DUP1 CALLDATASIZE SUB DUP2 ADD SWAP1 PUSH2 0x1D8 SWAP2 SWAP1 PUSH2 0x1767 JUMP JUMPDEST PUSH2 0xBB9 JUMP JUMPDEST PUSH1 0x40 MLOAD PUSH2 0x1EC SWAP4 SWAP3 SWAP2 SWAP1 PUSH2 0x17DC JUMP JUMPDEST PUSH1 0x40 MLOAD DUP1 SWAP2 SUB SWAP1 RETURN JUMPDEST CALLVALUE DUP1 ISZERO PUSH2 0x200 JUMPI PUSH0 DUP1 REVERT JUMPDEST POP PUSH2 0x21B PUSH1 0x4 DUP1 CALLDATASIZE SUB DUP2 ADD SWAP1 PUSH2 0x216 SWAP2 SWAP1 PUSH2 0x163E JUMP JUMPDEST PUSH2 0xBE6 JUMP JUMPDEST PUSH1 0x40 MLOAD PUSH2 0x228 SWAP2 SWAP1 PUSH2 0x1811 JUMP JUMPDEST PUSH1 0x40 MLOAD DUP1 SWAP2 SUB SWAP1 RETURN JUMPDEST CALLVALUE DUP1 ISZERO PUSH2 0x23C JUMPI PUSH0 DUP1 REVERT JUMPDEST POP PUSH2 0x257 PUSH1 0x4 DUP1 CALLDATASIZE SUB DUP2 ADD SWAP1 PUSH2 0x252 SWAP2 SWAP1 PUSH2 0x182A JUMP JUMPDEST PUSH2 0xC4A JUMP JUMPDEST STOP JUMPDEST PUSH2 0x273 PUSH1 0x4 DUP1 CALLDATASIZE SUB DUP2 ADD SWAP1 PUSH2 0x26E SWAP2 SWAP1 PUSH2 0x163E JUMP JUMPDEST PUSH2 0xE7C JUMP JUMPDEST STOP JUMPDEST CALLVALUE DUP1 ISZERO PUSH2 0x280 JUMPI PUSH0 DUP1 REVERT JUMPDEST POP PUSH2 0x29B PUSH1 0x4 DUP1 CALLDATASIZE SUB DUP2 ADD SWAP1 PUSH2 0x296 SWAP2 SWAP1 PUSH2 0x149E JUMP JUMPDEST PUSH2 0xF6A JUMP JUMPDEST PUSH1 0x40 MLOAD PUSH2 0x2A8 SWAP2 SWAP1 PUSH2 0x1625 JUMP JUMPDEST PUSH1 0x40 MLOAD DUP1 SWAP2 SUB SWAP1 RETURN JUMPDEST PUSH0 PUSH2 0x2BB DUP7 PUSH2 0x10BE JUMP JUMPDEST PUSH2 0x2FA JUMPI PUSH1 0x40 MLOAD PUSH32 0x8C379A000000000000000000000000000000000000000000000000000000000 DUP2 MSTORE PUSH1 0x4 ADD PUSH2 0x2F1 SWAP1 PUSH2 0x1916 JUMP JUMPDEST PUSH1 0x40 MLOAD DUP1 SWAP2 SUB SWAP1 REVERT JUMPDEST DUP4 PUSH0 DUP1 DUP9 DUP2 MSTORE PUSH1 0x20 ADD SWAP1 DUP2 MSTORE PUSH1 0x20 ADD PUSH0 KECCAK256 PUSH1 0x4 ADD SLOAD LT ISZERO PUSH2 0x350 JUMPI PUSH1 0x40 MLOAD PUSH32 0x8C379A000000000000000000000000000000000000000000000000000000000 DUP2 MSTORE PUSH1 0x4 ADD PUSH2 0x347 SWAP1 PUSH2 0x197E JUMP JUMPDEST PUSH1 0x40 MLOAD DUP1 SWAP2 SUB SWAP1 REVERT JUMPDEST PUSH0 PUSH2 0x372 DUP8 DUP8 DUP8 DUP8 PUSH0 DUP1 DUP14 DUP2 MSTORE PUSH1 0x20 ADD SWAP1 DUP2 MSTORE PUSH1 0x20 ADD PUSH0 KECCAK256 PUSH1 0x3 ADD SLOAD CHAINID PUSH2 0xB7B JUMP JUMPDEST SWAP1 POP PUSH0 DUP1 DUP9 DUP2 MSTORE PUSH1 0x20 ADD SWAP1 DUP2 MSTORE PUSH1 0x20 ADD PUSH0 KECCAK256 PUSH1 0x3 ADD PUSH0 DUP2 SLOAD DUP1 SWAP3 SWAP2 SWAP1 PUSH2 0x397 SWAP1 PUSH2 0x19C9 JUMP JUMPDEST SWAP2 SWAP1 POP SSTORE POP DUP5 PUSH0 DUP1 DUP10 DUP2 MSTORE PUSH1 0x20 ADD SWAP1 DUP2 MSTORE PUSH1 0x20 ADD PUSH0 KECCAK256 PUSH1 0x4 ADD PUSH0 DUP3 DUP3 SLOAD PUSH2 0x3BE SWAP2 SWAP1 PUSH2 0x1A10 JUMP JUMPDEST SWAP3 POP POP DUP2 SWAP1 SSTORE POP PUSH2 0x3D0 DUP8 DUP3 DUP6 PUSH2 0xC4A JUMP JUMPDEST PUSH0 DUP7 PUSH20 0xFFFFFFFFFFFFFFFFFFFFFFFFFFFFFFFFFFFFFFFF AND DUP7 DUP7 PUSH1 0x40 MLOAD PUSH2 0x3F7 SWAP2 SWAP1 PUSH2 0x1A95 JUMP JUMPDEST PUSH0 PUSH1 0x40 MLOAD DUP1 DUP4 SUB DUP2 DUP6 DUP8 GAS CALL SWAP3 POP POP POP RETURNDATASIZE DUP1 PUSH0 DUP2 EQ PUSH2 0x431 JUMPI PUSH1 0x40 MLOAD SWAP2 POP PUSH1 0x1F NOT PUSH1 0x3F RETURNDATASIZE ADD AND DUP3 ADD PUSH1 0x40 MSTORE RETURNDATASIZE DUP3 MSTORE RETURNDATASIZE PUSH0 PUSH1 0x20 DUP5 ADD RETURNDATACOPY PUSH2 0x436 JUMP JUMPDEST PUSH1 0x60 SWAP2 POP JUMPDEST POP POP SWAP1 POP DUP1 PUSH2 0x47A JUMPI PUSH1 0x40 MLOAD PUSH32 0x8C379A000000000000000000000000000000000000000000000000000000000 DUP2 MSTORE PUSH1 0x4 ADD PUSH2 0x471 SWAP1 PUSH2 0x1AF5 JUMP JUMPDEST PUSH1 0x40 MLOAD DUP1 SWAP2 SUB SWAP1 REVERT JUMPDEST DUP1 ISZERO PUSH2 0x4B3 JUMPI DUP2 DUP9 PUSH32 0x2343C14A87EE6171C01FF0E2C8061707429EA972A0DB2D181649B553F6EE198E PUSH1 0x40 MLOAD PUSH1 0x40 MLOAD DUP1 SWAP2 SUB SWAP1 LOG3 PUSH2 0x4E2 JUMP JUMPDEST DUP2 DUP9 PUSH32 0xF8DE97432A1352B9FAB9941F6727DCA171A72EDDCC8A75CED5611BE06B29B789 PUSH1 0x40 MLOAD PUSH1 0x40 MLOAD DUP1 SWAP2 SUB SWAP1 LOG3 JUMPDEST DUP1 SWAP3 POP POP POP SWAP6 SWAP5 POP POP POP POP POP JUMP JUMPDEST PUSH1 0x60 PUSH0 DUP3 MLOAD SWAP1 POP PUSH0 JUMPDEST DUP2 DUP2 LT ISZERO PUSH2 0x694 JUMPI PUSH0 JUMPDEST PUSH1 0x1 DUP4 PUSH2 0x510 SWAP2 SWAP1 PUSH2 0x1A10 JUMP JUMPDEST DUP2 LT ISZERO PUSH2 0x686 JUMPI DUP5 PUSH1 0x1 DUP3 PUSH2 0x525 SWAP2 SWAP1 PUSH2 0x1B13 JUMP JUMPDEST DUP2 MLOAD DUP2 LT PUSH2 0x536 JUMPI PUSH2 0x535 PUSH2 0x1B46 JUMP JUMPDEST JUMPDEST PUSH1 0x20 MUL PUSH1 0x20 ADD ADD MLOAD PUSH20 0xFFFFFFFFFFFFFFFFFFFFFFFFFFFFFFFFFFFFFFFF AND DUP6 DUP3 DUP2 MLOAD DUP2 LT PUSH2 0x567 JUMPI PUSH2 0x566 PUSH2 0x1B46 JUMP JUMPDEST JUMPDEST PUSH1 0x20 MUL PUSH1 0x20 ADD ADD MLOAD PUSH20 0xFFFFFFFFFFFFFFFFFFFFFFFFFFFFFFFFFFFFFFFF AND GT ISZERO PUSH2 0x679 JUMPI PUSH0 DUP6 DUP3 DUP2 MLOAD DUP2 LT PUSH2 0x59F JUMPI PUSH2 0x59E PUSH2 0x1B46 JUMP JUMPDEST JUMPDEST PUSH1 0x20 MUL PUSH1 0x20 ADD ADD MLOAD SWAP1 POP DUP6 PUSH1 0x1 DUP4 PUSH2 0x5B7 SWAP2 SWAP1 PUSH2 0x1B13 JUMP JUMPDEST DUP2 MLOAD DUP2 LT PUSH2 0x5C8 JUMPI PUSH2 0x5C7 PUSH2 0x1B46 JUMP JUMPDEST JUMPDEST PUSH1 0x20 MUL PUSH1 0x20 ADD ADD MLOAD DUP7 DUP4 DUP2 MLOAD DUP2 LT PUSH2 0x5E3 JUMPI PUSH2 0x5E2 PUSH2 0x1B46 JUMP JUMPDEST JUMPDEST PUSH1 0x20 MUL PUSH1 0x20 ADD ADD SWAP1 PUSH20 0xFFFFFFFFFFFFFFFFFFFFFFFFFFFFFFFFFFFFFFFF AND SWAP1 DUP2 PUSH20 0xFFFFFFFFFFFFFFFFFFFFFFFFFFFFFFFFFFFFFFFF AND DUP2 MSTORE POP POP DUP1 DUP7 PUSH1 0x1 DUP5 PUSH2 0x62C SWAP2 SWAP1 PUSH2 0x1B13 JUMP JUMPDEST DUP2 MLOAD DUP2 LT PUSH2 0x63D JUMPI PUSH2 0x63C PUSH2 0x1B46 JUMP JUMPDEST JUMPDEST PUSH1 0x20 MUL PUSH1 0x20 ADD ADD SWAP1 PUSH20 0xFFFFFFFFFFFFFFFFFFFFFFFFFFFFFFFFFFFFFFFF AND SWAP1 DUP2 PUSH20 0xFFFFFFFFFFFFFFFFFFFFFFFFFFFFFFFFFFFFFFFF AND DUP2 MSTORE POP POP POP JUMPDEST DUP1 DUP1 PUSH1 0x1 ADD SWAP2 POP POP PUSH2 0x503 JUMP JUMPDEST POP DUP1 DUP1 PUSH1 0x1 ADD SWAP2 POP POP PUSH2 0x4F9 JUMP JUMPDEST POP DUP3 SWAP2 POP POP SWAP2 SWAP1 POP JUMP JUMPDEST PUSH0 DUP1 DUP4 MLOAD SWAP1 POP PUSH0 DUP2 GT PUSH2 0x6E6 JUMPI PUSH1 0x40 MLOAD PUSH32 0x8C379A000000000000000000000000000000000000000000000000000000000 DUP2 MSTORE PUSH1 0x4 ADD PUSH2 0x6DD SWAP1 PUSH2 0x1BBD JUMP JUMPDEST PUSH1 0x40 MLOAD DUP1 SWAP2 SUB SWAP1 REVERT JUMPDEST PUSH0 DUP4 GT PUSH2 0x728 JUMPI PUSH1 0x40 MLOAD PUSH32 0x8C379A000000000000000000000000000000000000000000000000000000000 DUP2 MSTORE PUSH1 0x4 ADD PUSH2 0x71F SWAP1 PUSH2 0x1C4B JUMP JUMPDEST PUSH1 0x40 MLOAD DUP1 SWAP2 SUB SWAP1 REVERT JUMPDEST DUP1 DUP4 GT ISZERO PUSH2 0x76B JUMPI PUSH1 0x40 MLOAD PUSH32 0x8C379A000000000000000000000000000000000000000000000000000000000 DUP2 MSTORE PUSH1 0x4 ADD PUSH2 0x762 SWAP1 PUSH2 0x1CD9 JUMP JUMPDEST PUSH1 0x40 MLOAD DUP1 SWAP2 SUB SWAP1 REVERT JUMPDEST PUSH0 PUSH2 0x775 DUP6 PUSH2 0xF6A JUMP JUMPDEST SWAP1 POP PUSH2 0x780 DUP2 PUSH2 0x10BE JUMP JUMPDEST ISZERO PUSH2 0x7C0 JUMPI PUSH1 0x40 MLOAD PUSH32 0x8C379A000000000000000000000000000000000000000000000000000000000 DUP2 MSTORE PUSH1 0x4 ADD PUSH2 0x7B7 SWAP1 PUSH2 0x1D41 JUMP JUMPDEST PUSH1 0x40 MLOAD DUP1 SWAP2 SUB SWAP1 REVERT JUMPDEST PUSH0 JUMPDEST DUP3 DUP2 LT ISZERO PUSH2 0x9D7 JUMPI PUSH0 DUP7 DUP3 DUP2 MLOAD DUP2 LT PUSH2 0x7DE JUMPI PUSH2 0x7DD PUSH2 0x1B46 JUMP JUMPDEST JUMPDEST PUSH1 0x20 MUL PUSH1 0x20 ADD ADD MLOAD SWAP1 POP PUSH0 PUSH20 0xFFFFFFFFFFFFFFFFFFFFFFFFFFFFFFFFFFFFFFFF AND DUP2 PUSH20 0xFFFFFFFFFFFFFFFFFFFFFFFFFFFFFFFFFFFFFFFF AND EQ ISZERO DUP1 ISZERO PUSH2 0x850 JUMPI POP ADDRESS PUSH20 0xFFFFFFFFFFFFFFFFFFFFFFFFFFFFFFFFFFFFFFFF AND DUP2 PUSH20 0xFFFFFFFFFFFFFFFFFFFFFFFFFFFFFFFFFFFFFFFF AND EQ ISZERO JUMPDEST DUP1 ISZERO PUSH2 0x8B4 JUMPI POP PUSH0 DUP1 DUP5 DUP2 MSTORE PUSH1 0x20 ADD SWAP1 DUP2 MSTORE PUSH1 0x20 ADD PUSH0 KECCAK256 PUSH1 0x1 ADD PUSH0 DUP3 PUSH20 0xFFFFFFFFFFFFFFFFFFFFFFFFFFFFFFFFFFFFFFFF AND PUSH20 0xFFFFFFFFFFFFFFFFFFFFFFFFFFFFFFFFFFFFFFFF AND DUP2 MSTORE PUSH1 0x20 ADD SWAP1 DUP2 MSTORE PUSH1 0x20 ADD PUSH0 KECCAK256 PUSH0 SWAP1 SLOAD SWAP1 PUSH2 0x100 EXP SWAP1 DIV PUSH1 0xFF AND ISZERO JUMPDEST PUSH2 0x8F3 JUMPI PUSH1 0x40 MLOAD PUSH32 0x8C379A000000000000000000000000000000000000000000000000000000000 DUP2 MSTORE PUSH1 0x4 ADD PUSH2 0x8EA SWAP1 PUSH2 0x1DA9 JUMP JUMPDEST PUSH1 0x40 MLOAD DUP1 SWAP2 SUB SWAP1 REVERT JUMPDEST PUSH0 DUP1 DUP5 DUP2 MSTORE PUSH1 0x20 ADD SWAP1 DUP2 MSTORE PUSH1 0x20 ADD PUSH0 KECCAK256 PUSH0 ADD DUP2 SWAP1 DUP1 PUSH1 0x1 DUP2 SLOAD ADD DUP1 DUP3 SSTORE DUP1 SWAP2 POP POP PUSH1 0x1 SWAP1 SUB SWAP1 PUSH0 MSTORE PUSH1 0x20 PUSH0 KECCAK256 ADD PUSH0 SWAP1 SWAP2 SWAP1 SWAP2 SWAP1 SWAP2 PUSH2 0x100 EXP DUP2 SLOAD DUP2 PUSH20 0xFFFFFFFFFFFFFFFFFFFFFFFFFFFFFFFFFFFFFFFF MUL NOT AND SWAP1 DUP4 PUSH20 0xFFFFFFFFFFFFFFFFFFFFFFFFFFFFFFFFFFFFFFFF AND MUL OR SWAP1 SSTORE POP PUSH1 0x1 PUSH0 DUP1 DUP6 DUP2 MSTORE PUSH1 0x20 ADD SWAP1 DUP2 MSTORE PUSH1 0x20 ADD PUSH0 KECCAK256 PUSH1 0x1 ADD PUSH0 DUP4 PUSH20 0xFFFFFFFFFFFFFFFFFFFFFFFFFFFFFFFFFFFFFFFF AND PUSH20 0xFFFFFFFFFFFFFFFFFFFFFFFFFFFFFFFFFFFFFFFF AND DUP2 MSTORE PUSH1 0x20 ADD SWAP1 DUP2 MSTORE PUSH1 0x20 ADD PUSH0 KECCAK256 PUSH0 PUSH2 0x100 EXP DUP2 SLOAD DUP2 PUSH1 0xFF MUL NOT AND SWAP1 DUP4 ISZERO ISZERO MUL OR SWAP1 SSTORE POP POP DUP1 DUP1 PUSH1 0x1 ADD SWAP2 POP POP PUSH2 0x7C2 JUMP JUMPDEST POP DUP4 PUSH0 DUP1 DUP4 DUP2 MSTORE PUSH1 0x20 ADD SWAP1 DUP2 MSTORE PUSH1 0x20 ADD PUSH0 KECCAK256 PUSH1 0x2 ADD DUP2 SWAP1 SSTORE POP CALLVALUE PUSH0 DUP1 DUP4 DUP2 MSTORE PUSH1 0x20 ADD SWAP1 DUP2 MSTORE PUSH1 0x20 ADD PUSH0 KECCAK256 PUSH1 0x4 ADD DUP2 SWAP1 SSTORE POP DUP1 PUSH32 0x6FF361C77F3FC84F51CCA7EECE7F6780D4C0814E2CBBB4765846CEB19E6C9B94 DUP7 DUP7 CALLVALUE PUSH1 0x40 MLOAD PUSH2 0xA3C SWAP4 SWAP3 SWAP2 SWAP1 PUSH2 0x1DC7 JUMP JUMPDEST PUSH1 0x40 MLOAD DUP1 SWAP2 SUB SWAP1 LOG2 DUP1 SWAP3 POP POP POP SWAP3 SWAP2 POP POP JUMP JUMPDEST PUSH1 0x60 PUSH0 DUP1 PUSH0 PUSH2 0xA5D DUP6 PUSH2 0x10BE JUMP JUMPDEST PUSH2 0xA9C JUMPI PUSH1 0x40 MLOAD PUSH32 0x8C379A000000000000000000000000000000000000000000000000000000000 DUP2 MSTORE PUSH1 0x4 ADD PUSH2 0xA93 SWAP1 PUSH2 0x1E4D JUMP JUMPDEST PUSH1 0x40 MLOAD DUP1 SWAP2 SUB SWAP1 REVERT JUMPDEST PUSH0 DUP1 DUP7 DUP2 MSTORE PUSH1 0x20 ADD SWAP1 DUP2 MSTORE PUSH1 0x20 ADD PUSH0 KECCAK256 PUSH0 ADD DUP1 SLOAD DUP1 PUSH1 0x20 MUL PUSH1 0x20 ADD PUSH1 0x40 MLOAD SWAP1 DUP2 ADD PUSH1 0x40 MSTORE DUP1 SWAP3 SWAP2 SWAP1 DUP2 DUP2 MSTORE PUSH1 0x20 ADD DUP3 DUP1 SLOAD DUP1 ISZERO PUSH2 0xB2B JUMPI PUSH1 0x20 MUL DUP3 ADD SWAP2 SWAP1 PUSH0 MSTORE PUSH1 0x20 PUSH0 KECCAK256 SWAP1 JUMPDEST DUP2 PUSH0 SWAP1 SLOAD SWAP1 PUSH2 0x100 EXP SWAP1 DIV PUSH20 0xFFFFFFFFFFFFFFFFFFFFFFFFFFFFFFFFFFFFFFFF AND PUSH20 0xFFFFFFFFFFFFFFFFFFFFFFFFFFFFFFFFFFFFFFFF AND DUP2 MSTORE PUSH1 0x20 ADD SWAP1 PUSH1 0x1 ADD SWAP1 DUP1 DUP4 GT PUSH2 0xAE2 JUMPI JUMPDEST POP POP POP POP POP SWAP4 POP PUSH0 DUP1 DUP7 DUP2 MSTORE PUSH1 0x20 ADD SWAP1 DUP2 MSTORE PUSH1 0x20 ADD PUSH0 KECCAK256 PUSH1 0x2 ADD SLOAD SWAP3 POP PUSH0 DUP1 DUP7 DUP2 MSTORE PUSH1 0x20 ADD SWAP1 DUP2 MSTORE PUSH1 0x20 ADD PUSH0 KECCAK256 PUSH1 0x3 ADD SLOAD SWAP2 POP PUSH0 DUP1 DUP7 DUP2 MSTORE PUSH1 0x20 ADD SWAP1 DUP2 MSTORE PUSH1 0x20 ADD PUSH0 KECCAK256 PUSH1 0x4 ADD SLOAD SWAP1 POP SWAP2 SWAP4 POP SWAP2 SWAP4 JUMP JUMPDEST PUSH0 DUP7 DUP7 DUP7 DUP7 DUP7 DUP7 PUSH1 0x40 MLOAD PUSH1 0x20 ADD PUSH2 0xB97 SWAP7 SWAP6 SWAP5 SWAP4 SWAP3 SWAP2 SWAP1 PUSH2 0x1EC2 JUMP JUMPDEST PUSH1 0x40 MLOAD PUSH1 0x20 DUP2 DUP4 SUB SUB DUP2 MSTORE SWAP1 PUSH1 0x40 MSTORE DUP1 MLOAD SWAP1 PUSH1 0x20 ADD KECCAK256 SWAP1 POP SWAP7 SWAP6 POP POP POP POP POP POP JUMP JUMPDEST PUSH0 DUP1 PUSH0 DUP4 PUSH1 0x41 MUL PUSH1 0x20 DUP2 ADD DUP7 ADD MLOAD SWAP4 POP PUSH1 0x40 DUP2 ADD DUP7 ADD MLOAD SWAP3 POP PUSH1 0xFF PUSH1 0x41 DUP3 ADD DUP8 ADD MLOAD AND SWAP2 POP POP SWAP3 POP SWAP3 POP SWAP3 JUMP JUMPDEST PUSH0 PUSH2 0xBF0 DUP3 PUSH2 0x10BE JUMP JUMPDEST PUSH2 0xC2F JUMPI PUSH1 0x40 MLOAD PUSH32 0x8C379A000000000000000000000000000000000000000000000000000000000 DUP2 MSTORE PUSH1 0x4 ADD PUSH2 0xC26 SWAP1 PUSH2 0x1F72 JUMP JUMPDEST PUSH1 0x40 MLOAD DUP1 SWAP2 SUB SWAP1 REVERT JUMPDEST PUSH0 DUP1 DUP4 DUP2 MSTORE PUSH1 0x20 ADD SWAP1 DUP2 MSTORE PUSH1 0x20 ADD PUSH0 KECCAK256 PUSH1 0x4 ADD SLOAD SWAP1 POP SWAP2 SWAP1 POP JUMP JUMPDEST PUSH0 DUP1 PUSH0 DUP6 DUP2 MSTORE PUSH1 0x20 ADD SWAP1 DUP2 MSTORE PUSH1 0x20 ADD PUSH0 KECCAK256 PUSH1 0x2 ADD SLOAD SWAP1 POP PUSH0 DUP2 GT PUSH2 0xCA3 JUMPI PUSH1 0x40 MLOAD PUSH32 0x8C379A000000000000000000000000000000000000000000000000000000000 DUP2 MSTORE PUSH1 0x4 ADD PUSH2 0xC9A SWAP1 PUSH2 0x2000 JUMP JUMPDEST PUSH1 0x40 MLOAD DUP1 SWAP2 SUB SWAP1 REVERT JUMPDEST PUSH1 0x41 DUP2 PUSH2 0xCB0 SWAP2 SWAP1 PUSH2 0x201E JUMP JUMPDEST DUP3 MLOAD LT ISZERO PUSH2 0xCF3 JUMPI PUSH1 0x40 MLOAD PUSH32 0x8C379A000000000000000000000000000000000000000000000000000000000 DUP2 MSTORE PUSH1 0x4 ADD PUSH2 0xCEA SWAP1 PUSH2 0x20CF JUMP JUMPDEST PUSH1 0x40 MLOAD DUP1 SWAP2 SUB SWAP1 REVERT JUMPDEST PUSH0 DUP1 DUP1 PUSH0 DUP1 PUSH0 SWAP1 POP JUMPDEST DUP6 DUP2 LT ISZERO PUSH2 0xE71 JUMPI PUSH2 0xD0E DUP8 DUP3 PUSH2 0xBB9 JUMP JUMPDEST DUP1 SWAP5 POP DUP2 SWAP6 POP DUP3 SWAP7 POP POP POP POP PUSH0 PUSH1 0x1 DUP10 PUSH1 0x40 MLOAD PUSH1 0x20 ADD PUSH2 0xD2E SWAP2 SWAP1 PUSH2 0x2161 JUMP JUMPDEST PUSH1 0x40 MLOAD PUSH1 0x20 DUP2 DUP4 SUB SUB DUP2 MSTORE SWAP1 PUSH1 0x40 MSTORE DUP1 MLOAD SWAP1 PUSH1 0x20 ADD KECCAK256 DUP5 DUP8 DUP8 PUSH1 0x40 MLOAD PUSH0 DUP2 MSTORE PUSH1 0x20 ADD PUSH1 0x40 MSTORE PUSH1 0x40 MLOAD PUSH2 0xD63 SWAP5 SWAP4 SWAP3 SWAP2 SWAP1 PUSH2 0x2186 JUMP JUMPDEST PUSH1 0x20 PUSH1 0x40 MLOAD PUSH1 0x20 DUP2 SUB SWAP1 DUP1 DUP5 SUB SWAP1 DUP6 GAS STATICCALL ISZERO DUP1 ISZERO PUSH2 0xD83 JUMPI RETURNDATASIZE PUSH0 DUP1 RETURNDATACOPY RETURNDATASIZE PUSH0 REVERT JUMPDEST POP POP POP PUSH1 0x20 PUSH1 0x40 MLOAD SUB MLOAD SWAP1 POP DUP6 PUSH20 0xFFFFFFFFFFFFFFFFFFFFFFFFFFFFFFFFFFFFFFFF AND DUP2 PUSH20 0xFFFFFFFFFFFFFFFFFFFFFFFFFFFFFFFFFFFFFFFF AND GT DUP1 ISZERO PUSH2 0xE21 JUMPI POP PUSH0 DUP1 DUP12 DUP2 MSTORE PUSH1 0x20 ADD SWAP1 DUP2 MSTORE PUSH1 0x20 ADD PUSH0 KECCAK256 PUSH1 0x1 ADD PUSH0 DUP3 PUSH20 0xFFFFFFFFFFFFFFFFFFFFFFFFFFFFFFFFFFFFFFFF AND PUSH20 0xFFFFFFFFFFFFFFFFFFFFFFFFFFFFFFFFFFFFFFFF AND DUP2 MSTORE PUSH1 0x20 ADD SWAP1 DUP2 MSTORE PUSH1 0x20 ADD PUSH0 KECCAK256 PUSH0 SWAP1 SLOAD SWAP1 PUSH2 0x100 EXP SWAP1 DIV PUSH1 0xFF AND JUMPDEST PUSH2 0xE60 JUMPI PUSH1 0x40 MLOAD PUSH32 0x8C379A000000000000000000000000000000000000000000000000000000000 DUP2 MSTORE PUSH1 0x4 ADD PUSH2 0xE57 SWAP1 PUSH2 0x2239 JUMP JUMPDEST PUSH1 0x40 MLOAD DUP1 SWAP2 SUB SWAP1 REVERT JUMPDEST DUP1 SWAP6 POP POP DUP1 DUP1 PUSH1 0x1 ADD SWAP2 POP POP PUSH2 0xCFC JUMP JUMPDEST POP POP POP POP POP POP POP POP POP JUMP JUMPDEST PUSH2 0xE85 DUP2 PUSH2 0x10BE JUMP JUMPDEST PUSH2 0xEC4 JUMPI PUSH1 0x40 MLOAD PUSH32 0x8C379A000000000000000000000000000000000000000000000000000000000 DUP2 MSTORE PUSH1 0x4 ADD PUSH2 0xEBB SWAP1 PUSH2 0x22C7 JUMP JUMPDEST PUSH1 0x40 MLOAD DUP1 SWAP2 SUB SWAP1 REVERT JUMPDEST PUSH0 CALLVALUE GT PUSH2 0xF06 JUMPI PUSH1 0x40 MLOAD PUSH32 0x8C379A000000000000000000000000000000000000000000000000000000000 DUP2 MSTORE PUSH1 0x4 ADD PUSH2 0xEFD SWAP1 PUSH2 0x232F JUMP JUMPDEST PUSH1 0x40 MLOAD DUP1 SWAP2 SUB SWAP1 REVERT JUMPDEST CALLVALUE PUSH0 DUP1 DUP4 DUP2 MSTORE PUSH1 0x20 ADD SWAP1 DUP2 MSTORE PUSH1 0x20 ADD PUSH0 KECCAK256 PUSH1 0x4 ADD PUSH0 DUP3 DUP3 SLOAD PUSH2 0xF28 SWAP2 SWAP1 PUSH2 0x1B13 JUMP JUMPDEST SWAP3 POP POP DUP2 SWAP1 SSTORE POP DUP1 PUSH32 0x3A2A22576EB1F878C2EA76F459F6518A52DA5B82DCC9A09C579282919A6D393D CALLVALUE PUSH1 0x40 MLOAD PUSH2 0xF5F SWAP2 SWAP1 PUSH2 0x1811 JUMP JUMPDEST PUSH1 0x40 MLOAD DUP1 SWAP2 SUB SWAP1 LOG2 POP JUMP JUMPDEST PUSH0 DUP1 DUP3 MLOAD SWAP1 POP PUSH0 DUP2 GT PUSH2 0xFB2 JUMPI PUSH1 0x40 MLOAD PUSH32 0x8C379A000000000000000000000000000000000000000000000000000000000 DUP2 MSTORE PUSH1 0x4 ADD PUSH2 0xFA9 SWAP1 PUSH2 0x1BBD JUMP JUMPDEST PUSH1 0x40 MLOAD DUP1 SWAP2 SUB SWAP1 REVERT JUMPDEST PUSH2 0xFBB DUP4 PUSH2 0x4F0 JUMP JUMPDEST SWAP3 POP PUSH0 JUMPDEST PUSH1 0x1 DUP3 PUSH2 0xFCC SWAP2 SWAP1 PUSH2 0x1A10 JUMP JUMPDEST DUP2 LT ISZERO PUSH2 0x108E JUMPI DUP4 PUSH1 0x1 DUP3 PUSH2 0xFE1 SWAP2 SWAP1 PUSH2 0x1B13 JUMP JUMPDEST DUP2 MLOAD DUP2 LT PUSH2 0xFF2 JUMPI PUSH2 0xFF1 PUSH2 0x1B46 JUMP JUMPDEST JUMPDEST PUSH1 0x20 MUL PUSH1 0x20 ADD ADD MLOAD PUSH20 0xFFFFFFFFFFFFFFFFFFFFFFFFFFFFFFFFFFFFFFFF AND DUP5 DUP3 DUP2 MLOAD DUP2 LT PUSH2 0x1023 JUMPI PUSH2 0x1022 PUSH2 0x1B46 JUMP JUMPDEST JUMPDEST PUSH1 0x20 MUL PUSH1 0x20 ADD ADD MLOAD PUSH20 0xFFFFFFFFFFFFFFFFFFFFFFFFFFFFFFFFFFFFFFFF AND SUB PUSH2 0x1081 JUMPI PUSH1 0x40 MLOAD PUSH32 0x8C379A000000000000000000000000000000000000000000000000000000000 DUP2 MSTORE PUSH1 0x4 ADD PUSH2 0x1078 SWAP1 PUSH2 0x23BD JUMP JUMPDEST PUSH1 0x40 MLOAD DUP1 SWAP2 SUB SWAP1 REVERT JUMPDEST DUP1 DUP1 PUSH1 0x1 ADD SWAP2 POP POP PUSH2 0xFBF JUMP JUMPDEST POP DUP3 PUSH1 0x40 MLOAD PUSH1 0x20 ADD PUSH2 0x10A0 SWAP2 SWAP1 PUSH2 0x2467 JUMP JUMPDEST PUSH1 0x40 MLOAD PUSH1 0x20 DUP2 DUP4 SUB SUB DUP2 MSTORE SWAP1 PUSH1 0x40 MSTORE DUP1 MLOAD SWAP1 PUSH1 0x20 ADD KECCAK256 SWAP2 POP POP SWAP2 SWAP1 POP JUMP JUMPDEST PUSH0 DUP1 PUSH0 DUP1 DUP5 DUP2 MSTORE PUSH1 0x20 ADD SWAP1 DUP2 MSTORE PUSH1 0x20 ADD PUSH0 KECCAK256 PUSH1 0x2 ADD SLOAD SUB PUSH2 0x10E1 JUMPI PUSH0 SWAP1 POP PUSH2 0x10E6 JUMP JUMPDEST PUSH1 0x1 SWAP1 POP JUMPDEST SWAP2 SWAP1 POP JUMP JUMPDEST PUSH0 PUSH1 0x40 MLOAD SWAP1 POP SWAP1 JUMP JUMPDEST PUSH0 DUP1 REVERT JUMPDEST PUSH0 DUP1 REVERT JUMPDEST PUSH0 DUP2 SWAP1 POP SWAP2 SWAP1 POP JUMP JUMPDEST PUSH2 0x110E DUP2 PUSH2 0x10FC JUMP JUMPDEST DUP2 EQ PUSH2 0x1118 JUMPI PUSH0 DUP1 REVERT JUMPDEST POP JUMP JUMPDEST PUSH0 DUP2 CALLDATALOAD SWAP1 POP PUSH2 0x1129 DUP2 PUSH2 0x1105 JUMP JUMPDEST SWAP3 SWAP2 POP POP JUMP JUMPDEST PUSH0 PUSH20 0xFFFFFFFFFFFFFFFFFFFFFFFFFFFFFFFFFFFFFFFF DUP3 AND SWAP1 POP SWAP2 SWAP1 POP JUMP JUMPDEST PUSH0 PUSH2 0x1158 DUP3 PUSH2 0x112F JUMP JUMPDEST SWAP1 POP SWAP2 SWAP1 POP JUMP JUMPDEST PUSH2 0x1168 DUP2 PUSH2 0x114E JUMP JUMPDEST DUP2 EQ PUSH2 0x1172 JUMPI PUSH0 DUP1 REVERT JUMPDEST POP JUMP JUMPDEST PUSH0 DUP2 CALLDATALOAD SWAP1 POP PUSH2 0x1183 DUP2 PUSH2 0x115F JUMP JUMPDEST SWAP3 SWAP2 POP POP JUMP JUMPDEST PUSH0 DUP2 SWAP1 POP SWAP2 SWAP1 POP JUMP JUMPDEST PUSH2 0x119B DUP2 PUSH2 0x1189 JUMP JUMPDEST DUP2 EQ PUSH2 0x11A5 JUMPI PUSH0 DUP1 REVERT JUMPDEST POP JUMP JUMPDEST PUSH0 DUP2 CALLDATALOAD SWAP1 POP PUSH2 0x11B6 DUP2 PUSH2 0x1192 JUMP JUMPDEST SWAP3 SWAP2 POP POP JUMP JUMPDEST PUSH0 DUP1 REVERT JUMPDEST PUSH0 DUP1 REVERT JUMPDEST PUSH0 PUSH1 0x1F NOT PUSH1 0x1F DUP4 ADD AND SWAP1 POP SWAP2 SWAP1 POP JUMP JUMPDEST PUSH32 0x4E487B7100000000000000000000000000000000000000000000000000000000 PUSH0 MSTORE PUSH1 0x41 PUSH1 0x4 MSTORE PUSH1 0x24 PUSH0 REVERT JUMPDEST PUSH2 0x120A DUP3 PUSH2 0x11C4 JUMP JUMPDEST DUP2 ADD DUP2 DUP2 LT PUSH8 0xFFFFFFFFFFFFFFFF DUP3 GT OR ISZERO PUSH2 0x1229 JUMPI PUSH2 0x1228 PUSH2 0x11D4 JUMP JUMPDEST JUMPDEST DUP1 PUSH1 0x40 MSTORE POP POP POP JUMP JUMPDEST PUSH0 PUSH2 0x123B PUSH2 0x10EB JUMP JUMPDEST SWAP1 POP PUSH2 0x1247 DUP3 DUP3 PUSH2 0x1201 JUMP JUMPDEST SWAP2 SWAP1 POP JUMP JUMPDEST PUSH0 PUSH8 0xFFFFFFFFFFFFFFFF DUP3 GT ISZERO PUSH2 0x1266 JUMPI PUSH2 0x1265 PUSH2 0x11D4 JUMP JUMPDEST JUMPDEST PUSH2 0x126F DUP3 PUSH2 0x11C4 JUMP JUMPDEST SWAP1 POP PUSH1 0x20 DUP2 ADD SWAP1 POP SWAP2 SWAP1 POP JUMP JUMPDEST DUP3 DUP2 DUP4 CALLDATACOPY PUSH0 DUP4 DUP4 ADD MSTORE POP POP POP JUMP JUMPDEST PUSH0 PUSH2 0x129C PUSH2 0x1297 DUP5 PUSH2 0x124C JUMP JUMPDEST PUSH2 0x1232 JUMP JUMPDEST SWAP1 POP DUP3 DUP2 MSTORE PUSH1 0x20 DUP2 ADD DUP5 DUP5 DUP5 ADD GT ISZERO PUSH2 0x12B8 JUMPI PUSH2 0x12B7 PUSH2 0x11C0 JUMP JUMPDEST JUMPDEST PUSH2 0x12C3 DUP5 DUP3 DUP6 PUSH2 0x127C JUMP JUMPDEST POP SWAP4 SWAP3 POP POP POP JUMP JUMPDEST PUSH0 DUP3 PUSH1 0x1F DUP4 ADD SLT PUSH2 0x12DF JUMPI PUSH2 0x12DE PUSH2 0x11BC JUMP JUMPDEST JUMPDEST DUP2 CALLDATALOAD PUSH2 0x12EF DUP5 DUP3 PUSH1 0x20 DUP7 ADD PUSH2 0x128A JUMP JUMPDEST SWAP2 POP POP SWAP3 SWAP2 POP POP JUMP JUMPDEST PUSH0 DUP1 PUSH0 DUP1 PUSH0 PUSH1 0xA0 DUP7 DUP9 SUB SLT ISZERO PUSH2 0x1311 JUMPI PUSH2 0x1310 PUSH2 0x10F4 JUMP JUMPDEST JUMPDEST PUSH0 PUSH2 0x131E DUP9 DUP3 DUP10 ADD PUSH2 0x111B JUMP JUMPDEST SWAP6 POP POP PUSH1 0x20 PUSH2 0x132F DUP9 DUP3 DUP10 ADD PUSH2 0x1175 JUMP JUMPDEST SWAP5 POP POP PUSH1 0x40 PUSH2 0x1340 DUP9 DUP3 DUP10 ADD PUSH2 0x11A8 JUMP JUMPDEST SWAP4 POP POP PUSH1 0x60 DUP7 ADD CALLDATALOAD PUSH8 0xFFFFFFFFFFFFFFFF DUP2 GT ISZERO PUSH2 0x1361 JUMPI PUSH2 0x1360 PUSH2 0x10F8 JUMP JUMPDEST JUMPDEST PUSH2 0x136D DUP9 DUP3 DUP10 ADD PUSH2 0x12CB JUMP JUMPDEST SWAP3 POP POP PUSH1 0x80 DUP7 ADD CALLDATALOAD PUSH8 0xFFFFFFFFFFFFFFFF DUP2 GT ISZERO PUSH2 0x138E JUMPI PUSH2 0x138D PUSH2 0x10F8 JUMP JUMPDEST JUMPDEST PUSH2 0x139A DUP9 DUP3 DUP10 ADD PUSH2 0x12CB JUMP JUMPDEST SWAP2 POP POP SWAP3 SWAP6 POP SWAP3 SWAP6 SWAP1 SWAP4 POP JUMP JUMPDEST PUSH0 DUP2 ISZERO ISZERO SWAP1 POP SWAP2 SWAP1 POP JUMP JUMPDEST PUSH2 0x13BB DUP2 PUSH2 0x13A7 JUMP JUMPDEST DUP3 MSTORE POP POP JUMP JUMPDEST PUSH0 PUSH1 0x20 DUP3 ADD SWAP1 POP PUSH2 0x13D4 PUSH0 DUP4 ADD DUP5 PUSH2 0x13B2 JUMP JUMPDEST SWAP3 SWAP2 POP POP JUMP JUMPDEST PUSH0 PUSH8 0xFFFFFFFFFFFFFFFF DUP3 GT ISZERO PUSH2 0x13F4 JUMPI PUSH2 0x13F3 PUSH2 0x11D4 JUMP JUMPDEST JUMPDEST PUSH1 0x20 DUP3 MUL SWAP1 POP PUSH1 0x20 DUP2 ADD SWAP1 POP SWAP2 SWAP1 POP JUMP JUMPDEST PUSH0 DUP1 REVERT JUMPDEST PUSH0 PUSH2 0x141B PUSH2 0x1416 DUP5 PUSH2 0x13DA JUMP JUMPDEST PUSH2 0x1232 JUMP JUMPDEST SWAP1 POP DUP1 DUP4 DUP3 MSTORE PUSH1 0x20 DUP3 ADD SWAP1 POP PUSH1 0x20 DUP5 MUL DUP4 ADD DUP6 DUP2 GT ISZERO PUSH2 0x143E JUMPI PUSH2 0x143D PUSH2 0x1405 JUMP JUMPDEST JUMPDEST DUP4 JUMPDEST DUP2 DUP2 LT ISZERO PUSH2 0x1467 JUMPI DUP1 PUSH2 0x1453 DUP9 DUP3 PUSH2 0x1175 JUMP JUMPDEST DUP5 MSTORE PUSH1 0x20 DUP5 ADD SWAP4 POP POP PUSH1 0x20 DUP2 ADD SWAP1 POP PUSH2 0x1440 JUMP JUMPDEST POP POP POP SWAP4 SWAP3 POP POP POP JUMP JUMPDEST PUSH0 DUP3 PUSH1 0x1F DUP4 ADD SLT PUSH2 0x1485 JUMPI PUSH2 0x1484 PUSH2 0x11BC JUMP JUMPDEST JUMPDEST DUP2 CALLDATALOAD PUSH2 0x1495 DUP5 DUP3 PUSH1 0x20 DUP7 ADD PUSH2 0x1409 JUMP JUMPDEST SWAP2 POP POP SWAP3 SWAP2 POP POP JUMP JUMPDEST PUSH0 PUSH1 0x20 DUP3 DUP5 SUB SLT ISZERO PUSH2 0x14B3 JUMPI PUSH2 0x14B2 PUSH2 0x10F4 JUMP JUMPDEST JUMPDEST PUSH0 DUP3 ADD CALLDATALOAD PUSH8 0xFFFFFFFFFFFFFFFF DUP2 GT ISZERO PUSH2 0x14D0 JUMPI PUSH2 0x14CF PUSH2 0x10F8 JUMP JUMPDEST JUMPDEST PUSH2 0x14DC DUP5 DUP3 DUP6 ADD PUSH2 0x1471 JUMP JUMPDEST SWAP2 POP POP SWAP3 SWAP2 POP POP JUMP JUMPDEST PUSH0 DUP2 MLOAD SWAP1 POP SWAP2 SWAP1 POP JUMP JUMPDEST PUSH0 DUP3 DUP3 MSTORE PUSH1 0x20 DUP3 ADD SWAP1 POP SWAP3 SWAP2 POP POP JUMP JUMPDEST PUSH0 DUP2 SWAP1 POP PUSH1 0x20 DUP3 ADD SWAP1 POP SWAP2 SWAP1 POP JUMP JUMPDEST PUSH2 0x1517 DUP2 PUSH2 0x114E JUMP JUMPDEST DUP3 MSTORE POP POP JUMP JUMPDEST PUSH0 PUSH2 0x1528 DUP4 DUP4 PUSH2 0x150E JUMP JUMPDEST PUSH1 0x20 DUP4 ADD SWAP1 POP SWAP3 SWAP2 POP POP JUMP JUMPDEST PUSH0 PUSH1 0x20 DUP3 ADD SWAP1 POP SWAP2 SWAP1 POP JUMP JUMPDEST PUSH0 PUSH2 0x154A DUP3 PUSH2 0x14E5 JUMP JUMPDEST PUSH2 0x1554 DUP2 DUP6 PUSH2 0x14EF JUMP JUMPDEST SWAP4 POP PUSH2 0x155F DUP4 PUSH2 0x14FF JUMP JUMPDEST DUP1 PUSH0 JUMPDEST DUP4 DUP2 LT ISZERO PUSH2 0x158F JUMPI DUP2 MLOAD PUSH2 0x1576 DUP9 DUP3 PUSH2 0x151D JUMP JUMPDEST SWAP8 POP PUSH2 0x1581 DUP4 PUSH2 0x1534 JUMP JUMPDEST SWAP3 POP POP PUSH1 0x1 DUP2 ADD SWAP1 POP PUSH2 0x1562 JUMP JUMPDEST POP DUP6 SWAP4 POP POP POP POP SWAP3 SWAP2 POP POP JUMP JUMPDEST PUSH0 PUSH1 0x20 DUP3 ADD SWAP1 POP DUP2 DUP2 SUB PUSH0 DUP4 ADD MSTORE PUSH2 0x15B4 DUP2 DUP5 PUSH2 0x1540 JUMP JUMPDEST SWAP1 POP SWAP3 SWAP2 POP POP JUMP JUMPDEST PUSH0 DUP1 PUSH1 0x40 DUP4 DUP6 SUB SLT ISZERO PUSH2 0x15D2 JUMPI PUSH2 0x15D1 PUSH2 0x10F4 JUMP JUMPDEST JUMPDEST PUSH0 DUP4 ADD CALLDATALOAD PUSH8 0xFFFFFFFFFFFFFFFF DUP2 GT ISZERO PUSH2 0x15EF JUMPI PUSH2 0x15EE PUSH2 0x10F8 JUMP JUMPDEST JUMPDEST PUSH2 0x15FB DUP6 DUP3 DUP7 ADD PUSH2 0x1471 JUMP JUMPDEST SWAP3 POP POP PUSH1 0x20 PUSH2 0x160C DUP6 DUP3 DUP7 ADD PUSH2 0x11A8 JUMP JUMPDEST SWAP2 POP POP SWAP3 POP SWAP3 SWAP1 POP JUMP JUMPDEST PUSH2 0x161F DUP2 PUSH2 0x10FC JUMP JUMPDEST DUP3 MSTORE POP POP JUMP JUMPDEST PUSH0 PUSH1 0x20 DUP3 ADD SWAP1 POP PUSH2 0x1638 PUSH0 DUP4 ADD DUP5 PUSH2 0x1616 JUMP JUMPDEST SWAP3 SWAP2 POP POP JUMP JUMPDEST PUSH0 PUSH1 0x20 DUP3 DUP5 SUB SLT ISZERO PUSH2 0x1653 JUMPI PUSH2 0x1652 PUSH2 0x10F4 JUMP JUMPDEST JUMPDEST PUSH0 PUSH2 0x1660 DUP5 DUP3 DUP6 ADD PUSH2 0x111B JUMP JUMPDEST SWAP2 POP POP SWAP3 SWAP2 POP POP JUMP JUMPDEST PUSH2 0x1672 DUP2 PUSH2 0x1189 JUMP JUMPDEST DUP3 MSTORE POP POP JUMP JUMPDEST PUSH0 PUSH1 0x80 DUP3 ADD SWAP1 POP DUP2 DUP2 SUB PUSH0 DUP4 ADD MSTORE PUSH2 0x1690 DUP2 DUP8 PUSH2 0x1540 JUMP JUMPDEST SWAP1 POP PUSH2 0x169F PUSH1 0x20 DUP4 ADD DUP7 PUSH2 0x1669 JUMP JUMPDEST PUSH2 0x16AC PUSH1 0x40 DUP4 ADD DUP6 PUSH2 0x1669 JUMP JUMPDEST PUSH2 0x16B9 PUSH1 0x60 DUP4 ADD DUP5 PUSH2 0x1669 JUMP JUMPDEST SWAP6 SWAP5 POP POP POP POP POP JUMP JUMPDEST PUSH0 DUP1 PUSH0 DUP1 PUSH0 DUP1 PUSH1 0xC0 DUP8 DUP10 SUB SLT ISZERO PUSH2 0x16DC JUMPI PUSH2 0x16DB PUSH2 0x10F4 JUMP JUMPDEST JUMPDEST PUSH0 PUSH2 0x16E9 DUP10 DUP3 DUP11 ADD PUSH2 0x111B JUMP JUMPDEST SWAP7 POP POP PUSH1 0x20 PUSH2 0x16FA DUP10 DUP3 DUP11 ADD PUSH2 0x1175 JUMP JUMPDEST SWAP6 POP POP PUSH1 0x40 PUSH2 0x170B DUP10 DUP3 DUP11 ADD PUSH2 0x11A8 JUMP JUMPDEST SWAP5 POP POP PUSH1 0x60 DUP8 ADD CALLDATALOAD PUSH8 0xFFFFFFFFFFFFFFFF DUP2 GT ISZERO PUSH2 0x172C JUMPI PUSH2 0x172B PUSH2 0x10F8 JUMP JUMPDEST JUMPDEST PUSH2 0x1738 DUP10 DUP3 DUP11 ADD PUSH2 0x12CB JUMP JUMPDEST SWAP4 POP POP PUSH1 0x80 PUSH2 0x1749 DUP10 DUP3 DUP11 ADD PUSH2 0x11A8 JUMP JUMPDEST SWAP3 POP POP PUSH1 0xA0 PUSH2 0x175A DUP10 DUP3 DUP11 ADD PUSH2 0x11A8 JUMP JUMPDEST SWAP2 POP POP SWAP3 SWAP6 POP SWAP3 SWAP6 POP SWAP3 SWAP6 JUMP JUMPDEST PUSH0 DUP1 PUSH1 0x40 DUP4 DUP6 SUB SLT ISZERO PUSH2 0x177D JUMPI PUSH2 0x177C PUSH2 0x10F4 JUMP JUMPDEST JUMPDEST PUSH0 DUP4 ADD CALLDATALOAD PUSH8 0xFFFFFFFFFFFFFFFF DUP2 GT ISZERO PUSH2 0x179A JUMPI PUSH2 0x1799 PUSH2 0x10F8 JUMP JUMPDEST JUMPDEST PUSH2 0x17A6 DUP6 DUP3 DUP7 ADD PUSH2 0x12CB JUMP JUMPDEST SWAP3 POP POP PUSH1 0x20 PUSH2 0x17B7 DUP6 DUP3 DUP7 ADD PUSH2 0x11A8 JUMP JUMPDEST SWAP2 POP POP SWAP3 POP SWAP3 SWAP1 POP JUMP JUMPDEST PUSH0 PUSH1 0xFF DUP3 AND SWAP1 POP SWAP2 SWAP1 POP JUMP JUMPDEST PUSH2 0x17D6 DUP2 PUSH2 0x17C1 JUMP JUMPDEST DUP3 MSTORE POP POP JUMP JUMPDEST PUSH0 PUSH1 0x60 DUP3 ADD SWAP1 POP PUSH2 0x17EF PUSH0 DUP4 ADD DUP7 PUSH2 0x1616 JUMP JUMPDEST PUSH2 0x17FC PUSH1 0x20 DUP4 ADD DUP6 PUSH2 0x1616 JUMP JUMPDEST PUSH2 0x1809 PUSH1 0x40 DUP4 ADD DUP5 PUSH2 0x17CD JUMP JUMPDEST SWAP5 SWAP4 POP POP POP POP JUMP JUMPDEST PUSH0 PUSH1 0x20 DUP3 ADD SWAP1 POP PUSH2 0x1824 PUSH0 DUP4 ADD DUP5 PUSH2 0x1669 JUMP JUMPDEST SWAP3 SWAP2 POP POP JUMP JUMPDEST PUSH0 DUP1 PUSH0 PUSH1 0x60 DUP5 DUP7 SUB SLT ISZERO PUSH2 0x1841 JUMPI PUSH2 0x1840 PUSH2 0x10F4 JUMP JUMPDEST JUMPDEST PUSH0 PUSH2 0x184E DUP7 DUP3 DUP8 ADD PUSH2 0x111B JUMP JUMPDEST SWAP4 POP POP PUSH1 0x20 PUSH2 0x185F DUP7 DUP3 DUP8 ADD PUSH2 0x111B JUMP JUMPDEST SWAP3 POP POP PUSH1 0x40 DUP5 ADD CALLDATALOAD PUSH8 0xFFFFFFFFFFFFFFFF DUP2 GT ISZERO PUSH2 0x1880 JUMPI PUSH2 0x187F PUSH2 0x10F8 JUMP JUMPDEST JUMPDEST PUSH2 0x188C DUP7 DUP3 DUP8 ADD PUSH2 0x12CB JUMP JUMPDEST SWAP2 POP POP SWAP3 POP SWAP3 POP SWAP3 JUMP JUMPDEST PUSH0 DUP3 DUP3 MSTORE PUSH1 0x20 DUP3 ADD SWAP1 POP SWAP3 SWAP2 POP POP JUMP JUMPDEST PUSH32 0x657865637574655472616E73616374696F6E3A2077616C6C6574206E6F742065 PUSH0 DUP3 ADD MSTORE PUSH32 0x7869737473000000000000000000000000000000000000000000000000000000 PUSH1 0x20 DUP3 ADD MSTORE POP JUMP JUMPDEST PUSH0 PUSH2 0x1900 PUSH1 0x25 DUP4 PUSH2 0x1896 JUMP JUMPDEST SWAP2 POP PUSH2 0x190B DUP3 PUSH2 0x18A6 JUMP JUMPDEST PUSH1 0x40 DUP3 ADD SWAP1 POP SWAP2 SWAP1 POP JUMP JUMPDEST PUSH0 PUSH1 0x20 DUP3 ADD SWAP1 POP DUP2 DUP2 SUB PUSH0 DUP4 ADD MSTORE PUSH2 0x192D DUP2 PUSH2 0x18F4 JUMP JUMPDEST SWAP1 POP SWAP2 SWAP1 POP JUMP JUMPDEST PUSH32 0x696E73756666696369656E742062616C616E6365000000000000000000000000 PUSH0 DUP3 ADD MSTORE POP JUMP JUMPDEST PUSH0 PUSH2 0x1968 PUSH1 0x14 DUP4 PUSH2 0x1896 JUMP JUMPDEST SWAP2 POP PUSH2 0x1973 DUP3 PUSH2 0x1934 JUMP JUMPDEST PUSH1 0x20 DUP3 ADD SWAP1 POP SWAP2 SWAP1 POP JUMP JUMPDEST PUSH0 PUSH1 0x20 DUP3 ADD SWAP1 POP DUP2 DUP2 SUB PUSH0 DUP4 ADD MSTORE PUSH2 0x1995 DUP2 PUSH2 0x195C JUMP JUMPDEST SWAP1 POP SWAP2 SWAP1 POP JUMP JUMPDEST PUSH32 0x4E487B7100000000000000000000000000000000000000000000000000000000 PUSH0 MSTORE PUSH1 0x11 PUSH1 0x4 MSTORE PUSH1 0x24 PUSH0 REVERT JUMPDEST PUSH0 PUSH2 0x19D3 DUP3 PUSH2 0x1189 JUMP JUMPDEST SWAP2 POP PUSH32 0xFFFFFFFFFFFFFFFFFFFFFFFFFFFFFFFFFFFFFFFFFFFFFFFFFFFFFFFFFFFFFFFF DUP3 SUB PUSH2 0x1A05 JUMPI PUSH2 0x1A04 PUSH2 0x199C JUMP JUMPDEST JUMPDEST PUSH1 0x1 DUP3 ADD SWAP1 POP SWAP2 SWAP1 POP JUMP JUMPDEST PUSH0 PUSH2 0x1A1A DUP3 PUSH2 0x1189 JUMP JUMPDEST SWAP2 POP PUSH2 0x1A25 DUP4 PUSH2 0x1189 JUMP JUMPDEST SWAP3 POP DUP3 DUP3 SUB SWAP1 POP DUP2 DUP2 GT ISZERO PUSH2 0x1A3D JUMPI PUSH2 0x1A3C PUSH2 0x199C JUMP JUMPDEST JUMPDEST SWAP3 SWAP2 POP POP JUMP JUMPDEST PUSH0 DUP2 MLOAD SWAP1 POP SWAP2 SWAP1 POP JUMP JUMPDEST PUSH0 DUP2 SWAP1 POP SWAP3 SWAP2 POP POP JUMP JUMPDEST DUP3 DUP2 DUP4 MCOPY PUSH0 DUP4 DUP4 ADD MSTORE POP POP POP JUMP JUMPDEST PUSH0 PUSH2 0x1A6F DUP3 PUSH2 0x1A43 JUMP JUMPDEST PUSH2 0x1A79 DUP2 DUP6 PUSH2 0x1A4D JUMP JUMPDEST SWAP4 POP PUSH2 0x1A89 DUP2 DUP6 PUSH1 0x20 DUP7 ADD PUSH2 0x1A57 JUMP JUMPDEST DUP1 DUP5 ADD SWAP2 POP POP SWAP3 SWAP2 POP POP JUMP JUMPDEST PUSH0 PUSH2 0x1AA0 DUP3 DUP5 PUSH2 0x1A65 JUMP JUMPDEST SWAP2 POP DUP2 SWAP1 POP SWAP3 SWAP2 POP POP JUMP JUMPDEST PUSH32 0x657865637574655472616E73616374696F6E3A2063616C6C206661696C000000 PUSH0 DUP3 ADD MSTORE POP JUMP JUMPDEST PUSH0 PUSH2 0x1ADF PUSH1 0x1D DUP4 PUSH2 0x1896 JUMP JUMPDEST SWAP2 POP PUSH2 0x1AEA DUP3 PUSH2 0x1AAB JUMP JUMPDEST PUSH1 0x20 DUP3 ADD SWAP1 POP SWAP2 SWAP1 POP JUMP JUMPDEST PUSH0 PUSH1 0x20 DUP3 ADD SWAP1 POP DUP2 DUP2 SUB PUSH0 DUP4 ADD MSTORE PUSH2 0x1B0C DUP2 PUSH2 0x1AD3 JUMP JUMPDEST SWAP1 POP SWAP2 SWAP1 POP JUMP JUMPDEST PUSH0 PUSH2 0x1B1D DUP3 PUSH2 0x1189 JUMP JUMPDEST SWAP2 POP PUSH2 0x1B28 DUP4 PUSH2 0x1189 JUMP JUMPDEST SWAP3 POP DUP3 DUP3 ADD SWAP1 POP DUP1 DUP3 GT ISZERO PUSH2 0x1B40 JUMPI PUSH2 0x1B3F PUSH2 0x199C JUMP JUMPDEST JUMPDEST SWAP3 SWAP2 POP POP JUMP JUMPDEST PUSH32 0x4E487B7100000000000000000000000000000000000000000000000000000000 PUSH0 MSTORE PUSH1 0x32 PUSH1 0x4 MSTORE PUSH1 0x24 PUSH0 REVERT JUMPDEST PUSH32 0x63726561746557616C6C65743A20656D70747920616464726573730000000000 PUSH0 DUP3 ADD MSTORE POP JUMP JUMPDEST PUSH0 PUSH2 0x1BA7 PUSH1 0x1B DUP4 PUSH2 0x1896 JUMP JUMPDEST SWAP2 POP PUSH2 0x1BB2 DUP3 PUSH2 0x1B73 JUMP JUMPDEST PUSH1 0x20 DUP3 ADD SWAP1 POP SWAP2 SWAP1 POP JUMP JUMPDEST PUSH0 PUSH1 0x20 DUP3 ADD SWAP1 POP DUP2 DUP2 SUB PUSH0 DUP4 ADD MSTORE PUSH2 0x1BD4 DUP2 PUSH2 0x1B9B JUMP JUMPDEST SWAP1 POP SWAP2 SWAP1 POP JUMP JUMPDEST PUSH32 0x63726561746557616C6C65743A207468726573686F6C64206D75737420706F73 PUSH0 DUP3 ADD MSTORE PUSH32 0x6974697665000000000000000000000000000000000000000000000000000000 PUSH1 0x20 DUP3 ADD MSTORE POP JUMP JUMPDEST PUSH0 PUSH2 0x1C35 PUSH1 0x25 DUP4 PUSH2 0x1896 JUMP JUMPDEST SWAP2 POP PUSH2 0x1C40 DUP3 PUSH2 0x1BDB JUMP JUMPDEST PUSH1 0x40 DUP3 ADD SWAP1 POP SWAP2 SWAP1 POP JUMP JUMPDEST PUSH0 PUSH1 0x20 DUP3 ADD SWAP1 POP DUP2 DUP2 SUB PUSH0 DUP4 ADD MSTORE PUSH2 0x1C62 DUP2 PUSH2 0x1C29 JUMP JUMPDEST SWAP1 POP SWAP2 SWAP1 POP JUMP JUMPDEST PUSH32 0x63726561746557616C6C65743A207468726573686F6C64206D6F726520746861 PUSH0 DUP3 ADD MSTORE PUSH32 0x6E206F776E657273206C656E6774680000000000000000000000000000000000 PUSH1 0x20 DUP3 ADD MSTORE POP JUMP JUMPDEST PUSH0 PUSH2 0x1CC3 PUSH1 0x2F DUP4 PUSH2 0x1896 JUMP JUMPDEST SWAP2 POP PUSH2 0x1CCE DUP3 PUSH2 0x1C69 JUMP JUMPDEST PUSH1 0x40 DUP3 ADD SWAP1 POP SWAP2 SWAP1 POP JUMP JUMPDEST PUSH0 PUSH1 0x20 DUP3 ADD SWAP1 POP DUP2 DUP2 SUB PUSH0 DUP4 ADD MSTORE PUSH2 0x1CF0 DUP2 PUSH2 0x1CB7 JUMP JUMPDEST SWAP1 POP SWAP2 SWAP1 POP JUMP JUMPDEST PUSH32 0x63726561746557616C6C65743A2077616C6C6574206578697374210000000000 PUSH0 DUP3 ADD MSTORE POP JUMP JUMPDEST PUSH0 PUSH2 0x1D2B PUSH1 0x1B DUP4 PUSH2 0x1896 JUMP JUMPDEST SWAP2 POP PUSH2 0x1D36 DUP3 PUSH2 0x1CF7 JUMP JUMPDEST PUSH1 0x20 DUP3 ADD SWAP1 POP SWAP2 SWAP1 POP JUMP JUMPDEST PUSH0 PUSH1 0x20 DUP3 ADD SWAP1 POP DUP2 DUP2 SUB PUSH0 DUP4 ADD MSTORE PUSH2 0x1D58 DUP2 PUSH2 0x1D1F JUMP JUMPDEST SWAP1 POP SWAP2 SWAP1 POP JUMP JUMPDEST PUSH32 0x63726561746557616C6C65743A206475706C6963617465642061646472657373 PUSH0 DUP3 ADD MSTORE POP JUMP JUMPDEST PUSH0 PUSH2 0x1D93 PUSH1 0x20 DUP4 PUSH2 0x1896 JUMP JUMPDEST SWAP2 POP PUSH2 0x1D9E DUP3 PUSH2 0x1D5F JUMP JUMPDEST PUSH1 0x20 DUP3 ADD SWAP1 POP SWAP2 SWAP1 POP JUMP JUMPDEST PUSH0 PUSH1 0x20 DUP3 ADD SWAP1 POP DUP2 DUP2 SUB PUSH0 DUP4 ADD MSTORE PUSH2 0x1DC0 DUP2 PUSH2 0x1D87 JUMP JUMPDEST SWAP1 POP SWAP2 SWAP1 POP JUMP JUMPDEST PUSH0 PUSH1 0x60 DUP3 ADD SWAP1 POP DUP2 DUP2 SUB PUSH0 DUP4 ADD MSTORE PUSH2 0x1DDF DUP2 DUP7 PUSH2 0x1540 JUMP JUMPDEST SWAP1 POP PUSH2 0x1DEE PUSH1 0x20 DUP4 ADD DUP6 PUSH2 0x1669 JUMP JUMPDEST PUSH2 0x1DFB PUSH1 0x40 DUP4 ADD DUP5 PUSH2 0x1669 JUMP JUMPDEST SWAP5 SWAP4 POP POP POP POP JUMP JUMPDEST PUSH32 0x77616C6C6574496E666F3A2077616C6C6574206E6F7420657869737473000000 PUSH0 DUP3 ADD MSTORE POP JUMP JUMPDEST PUSH0 PUSH2 0x1E37 PUSH1 0x1D DUP4 PUSH2 0x1896 JUMP JUMPDEST SWAP2 POP PUSH2 0x1E42 DUP3 PUSH2 0x1E03 JUMP JUMPDEST PUSH1 0x20 DUP3 ADD SWAP1 POP SWAP2 SWAP1 POP JUMP JUMPDEST PUSH0 PUSH1 0x20 DUP3 ADD SWAP1 POP DUP2 DUP2 SUB PUSH0 DUP4 ADD MSTORE PUSH2 0x1E64 DUP2 PUSH2 0x1E2B JUMP JUMPDEST SWAP1 POP SWAP2 SWAP1 POP JUMP JUMPDEST PUSH2 0x1E74 DUP2 PUSH2 0x114E JUMP JUMPDEST DUP3 MSTORE POP POP JUMP JUMPDEST PUSH0 DUP3 DUP3 MSTORE PUSH1 0x20 DUP3 ADD SWAP1 POP SWAP3 SWAP2 POP POP JUMP JUMPDEST PUSH0 PUSH2 0x1E94 DUP3 PUSH2 0x1A43 JUMP JUMPDEST PUSH2 0x1E9E DUP2 DUP6 PUSH2 0x1E7A JUMP JUMPDEST SWAP4 POP PUSH2 0x1EAE DUP2 DUP6 PUSH1 0x20 DUP7 ADD PUSH2 0x1A57 JUMP JUMPDEST PUSH2 0x1EB7 DUP2 PUSH2 0x11C4 JUMP JUMPDEST DUP5 ADD SWAP2 POP POP SWAP3 SWAP2 POP POP JUMP JUMPDEST PUSH0 PUSH1 0xC0 DUP3 ADD SWAP1 POP PUSH2 0x1ED5 PUSH0 DUP4 ADD DUP10 PUSH2 0x1616 JUMP JUMPDEST PUSH2 0x1EE2 PUSH1 0x20 DUP4 ADD DUP9 PUSH2 0x1E6B JUMP JUMPDEST PUSH2 0x1EEF PUSH1 0x40 DUP4 ADD DUP8 PUSH2 0x1669 JUMP JUMPDEST DUP2 DUP2 SUB PUSH1 0x60 DUP4 ADD MSTORE PUSH2 0x1F01 DUP2 DUP7 PUSH2 0x1E8A JUMP JUMPDEST SWAP1 POP PUSH2 0x1F10 PUSH1 0x80 DUP4 ADD DUP6 PUSH2 0x1669 JUMP JUMPDEST PUSH2 0x1F1D PUSH1 0xA0 DUP4 ADD DUP5 PUSH2 0x1669 JUMP JUMPDEST SWAP8 SWAP7 POP POP POP POP POP POP POP JUMP JUMPDEST PUSH32 0x77616C6C657442616C616E63653A2077616C6C6574206E6F7420657869737473 PUSH0 DUP3 ADD MSTORE POP JUMP JUMPDEST PUSH0 PUSH2 0x1F5C PUSH1 0x20 DUP4 PUSH2 0x1896 JUMP JUMPDEST SWAP2 POP PUSH2 0x1F67 DUP3 PUSH2 0x1F28 JUMP JUMPDEST PUSH1 0x20 DUP3 ADD SWAP1 POP SWAP2 SWAP1 POP JUMP JUMPDEST PUSH0 PUSH1 0x20 DUP3 ADD SWAP1 POP DUP2 DUP2 SUB PUSH0 DUP4 ADD MSTORE PUSH2 0x1F89 DUP2 PUSH2 0x1F50 JUMP JUMPDEST SWAP1 POP SWAP2 SWAP1 POP JUMP JUMPDEST PUSH32 0x636865636B5369676E6174757265733A207468726573686F6C64206D75737420 PUSH0 DUP3 ADD MSTORE PUSH32 0x706F736974697665000000000000000000000000000000000000000000000000 PUSH1 0x20 DUP3 ADD MSTORE POP JUMP JUMPDEST PUSH0 PUSH2 0x1FEA PUSH1 0x28 DUP4 PUSH2 0x1896 JUMP JUMPDEST SWAP2 POP PUSH2 0x1FF5 DUP3 PUSH2 0x1F90 JUMP JUMPDEST PUSH1 0x40 DUP3 ADD SWAP1 POP SWAP2 SWAP1 POP JUMP JUMPDEST PUSH0 PUSH1 0x20 DUP3 ADD SWAP1 POP DUP2 DUP2 SUB PUSH0 DUP4 ADD MSTORE PUSH2 0x2017 DUP2 PUSH2 0x1FDE JUMP JUMPDEST SWAP1 POP SWAP2 SWAP1 POP JUMP JUMPDEST PUSH0 PUSH2 0x2028 DUP3 PUSH2 0x1189 JUMP JUMPDEST SWAP2 POP PUSH2 0x2033 DUP4 PUSH2 0x1189 JUMP JUMPDEST SWAP3 POP DUP3 DUP3 MUL PUSH2 0x2041 DUP2 PUSH2 0x1189 JUMP JUMPDEST SWAP2 POP DUP3 DUP3 DIV DUP5 EQ DUP4 ISZERO OR PUSH2 0x2058 JUMPI PUSH2 0x2057 PUSH2 0x199C JUMP JUMPDEST JUMPDEST POP SWAP3 SWAP2 POP POP JUMP JUMPDEST PUSH32 0x636865636B5369676E6174757265733A207369676E617475726573206C656E67 PUSH0 DUP3 ADD MSTORE PUSH32 0x7468206E6F7420656E6F75676800000000000000000000000000000000000000 PUSH1 0x20 DUP3 ADD MSTORE POP JUMP JUMPDEST PUSH0 PUSH2 0x20B9 PUSH1 0x2D DUP4 PUSH2 0x1896 JUMP JUMPDEST SWAP2 POP PUSH2 0x20C4 DUP3 PUSH2 0x205F JUMP JUMPDEST PUSH1 0x40 DUP3 ADD SWAP1 POP SWAP2 SWAP1 POP JUMP JUMPDEST PUSH0 PUSH1 0x20 DUP3 ADD SWAP1 POP DUP2 DUP2 SUB PUSH0 DUP4 ADD MSTORE PUSH2 0x20E6 DUP2 PUSH2 0x20AD JUMP JUMPDEST SWAP1 POP SWAP2 SWAP1 POP JUMP JUMPDEST PUSH0 DUP2 SWAP1 POP SWAP3 SWAP2 POP POP JUMP JUMPDEST PUSH32 0x19457468657265756D205369676E6564204D6573736167653A0A333200000000 PUSH0 DUP3 ADD MSTORE POP JUMP JUMPDEST PUSH0 PUSH2 0x212B PUSH1 0x1C DUP4 PUSH2 0x20ED JUMP JUMPDEST SWAP2 POP PUSH2 0x2136 DUP3 PUSH2 0x20F7 JUMP JUMPDEST PUSH1 0x1C DUP3 ADD SWAP1 POP SWAP2 SWAP1 POP JUMP JUMPDEST PUSH0 DUP2 SWAP1 POP SWAP2 SWAP1 POP JUMP JUMPDEST PUSH2 0x215B PUSH2 0x2156 DUP3 PUSH2 0x10FC JUMP JUMPDEST PUSH2 0x2141 JUMP JUMPDEST DUP3 MSTORE POP POP JUMP JUMPDEST PUSH0 PUSH2 0x216B DUP3 PUSH2 0x211F JUMP JUMPDEST SWAP2 POP PUSH2 0x2177 DUP3 DUP5 PUSH2 0x214A JUMP JUMPDEST PUSH1 0x20 DUP3 ADD SWAP2 POP DUP2 SWAP1 POP SWAP3 SWAP2 POP POP JUMP JUMPDEST PUSH0 PUSH1 0x80 DUP3 ADD SWAP1 POP PUSH2 0x2199 PUSH0 DUP4 ADD DUP8 PUSH2 0x1616 JUMP JUMPDEST PUSH2 0x21A6 PUSH1 0x20 DUP4 ADD DUP7 PUSH2 0x17CD JUMP JUMPDEST PUSH2 0x21B3 PUSH1 0x40 DUP4 ADD DUP6 PUSH2 0x1616 JUMP JUMPDEST PUSH2 0x21C0 PUSH1 0x60 DUP4 ADD DUP5 PUSH2 0x1616 JUMP JUMPDEST SWAP6 SWAP5 POP POP POP POP POP JUMP JUMPDEST PUSH32 0x636865636B5369676E6174757265733A2065637265636F766572206164647265 PUSH0 DUP3 ADD MSTORE PUSH32 0x7373206572726F72000000000000000000000000000000000000000000000000 PUSH1 0x20 DUP3 ADD MSTORE POP JUMP JUMPDEST PUSH0 PUSH2 0x2223 PUSH1 0x28 DUP4 PUSH2 0x1896 JUMP JUMPDEST SWAP2 POP PUSH2 0x222E DUP3 PUSH2 0x21C9 JUMP JUMPDEST PUSH1 0x40 DUP3 ADD SWAP1 POP SWAP2 SWAP1 POP JUMP JUMPDEST PUSH0 PUSH1 0x20 DUP3 ADD SWAP1 POP DUP2 DUP2 SUB PUSH0 DUP4 ADD MSTORE PUSH2 0x2250 DUP2 PUSH2 0x2217 JUMP JUMPDEST SWAP1 POP SWAP2 SWAP1 POP JUMP JUMPDEST PUSH32 0x77616C6C657452656368617267653A2077616C6C6574206E6F74206578697374 PUSH0 DUP3 ADD MSTORE PUSH32 0x7300000000000000000000000000000000000000000000000000000000000000 PUSH1 0x20 DUP3 ADD MSTORE POP JUMP JUMPDEST PUSH0 PUSH2 0x22B1 PUSH1 0x21 DUP4 PUSH2 0x1896 JUMP JUMPDEST SWAP2 POP PUSH2 0x22BC DUP3 PUSH2 0x2257 JUMP JUMPDEST PUSH1 0x40 DUP3 ADD SWAP1 POP SWAP2 SWAP1 POP JUMP JUMPDEST PUSH0 PUSH1 0x20 DUP3 ADD SWAP1 POP DUP2 DUP2 SUB PUSH0 DUP4 ADD MSTORE PUSH2 0x22DE DUP2 PUSH2 0x22A5 JUMP JUMPDEST SWAP1 POP SWAP2 SWAP1 POP JUMP JUMPDEST PUSH32 0x77616C6C657452656368617267653A207061796D656E74207265717569726564 PUSH0 DUP3 ADD MSTORE POP JUMP JUMPDEST PUSH0 PUSH2 0x2319 PUSH1 0x20 DUP4 PUSH2 0x1896 JUMP JUMPDEST SWAP2 POP PUSH2 0x2324 DUP3 PUSH2 0x22E5 JUMP JUMPDEST PUSH1 0x20 DUP3 ADD SWAP1 POP SWAP2 SWAP1 POP JUMP JUMPDEST PUSH0 PUSH1 0x20 DUP3 ADD SWAP1 POP DUP2 DUP2 SUB PUSH0 DUP4 ADD MSTORE PUSH2 0x2346 DUP2 PUSH2 0x230D JUMP JUMPDEST SWAP1 POP SWAP2 SWAP1 POP JUMP JUMPDEST PUSH32 0x72656D6562657257616C6C6574416464726573733A206475706C696361746564 PUSH0 DUP3 ADD MSTORE PUSH32 0x2061646472657373000000000000000000000000000000000000000000000000 PUSH1 0x20 DUP3 ADD MSTORE POP JUMP JUMPDEST PUSH0 PUSH2 0x23A7 PUSH1 0x28 DUP4 PUSH2 0x1896 JUMP JUMPDEST SWAP2 POP PUSH2 0x23B2 DUP3 PUSH2 0x234D JUMP JUMPDEST PUSH1 0x40 DUP3 ADD SWAP1 POP SWAP2 SWAP1 POP JUMP JUMPDEST PUSH0 PUSH1 0x20 DUP3 ADD SWAP1 POP DUP2 DUP2 SUB PUSH0 DUP4 ADD MSTORE PUSH2 0x23D4 DUP2 PUSH2 0x239B JUMP JUMPDEST SWAP1 POP SWAP2 SWAP1 POP JUMP JUMPDEST PUSH0 DUP2 SWAP1 POP SWAP3 SWAP2 POP POP JUMP JUMPDEST PUSH2 0x23EE DUP2 PUSH2 0x114E JUMP JUMPDEST DUP3 MSTORE POP POP JUMP JUMPDEST PUSH0 PUSH2 0x23FF DUP4 DUP4 PUSH2 0x23E5 JUMP JUMPDEST PUSH1 0x20 DUP4 ADD SWAP1 POP SWAP3 SWAP2 POP POP JUMP JUMPDEST PUSH0 PUSH2 0x2415 DUP3 PUSH2 0x14E5 JUMP JUMPDEST PUSH2 0x241F DUP2 DUP6 PUSH2 0x23DB JUMP JUMPDEST SWAP4 POP PUSH2 0x242A DUP4 PUSH2 0x14FF JUMP JUMPDEST DUP1 PUSH0 JUMPDEST DUP4 DUP2 LT ISZERO PUSH2 0x245A JUMPI DUP2 MLOAD PUSH2 0x2441 DUP9 DUP3 PUSH2 0x23F4 JUMP JUMPDEST SWAP8 POP PUSH2 0x244C DUP4 PUSH2 0x1534 JUMP JUMPDEST SWAP3 POP POP PUSH1 0x1 DUP2 ADD SWAP1 POP PUSH2 0x242D JUMP JUMPDEST POP DUP6 SWAP4 POP POP POP POP SWAP3 SWAP2 POP POP JUMP JUMPDEST PUSH0 PUSH2 0x2472 DUP3 DUP5 PUSH2 0x240B JUMP JUMPDEST SWAP2 POP DUP2 SWAP1 POP SWAP3 SWAP2 POP POP JUMP INVALID LOG2 PUSH5 0x6970667358 0x22 SLT KECCAK256 0xE8 CALLDATASIZE 0xD6 0xCF REVERT PUSH6 0x44E68636F94D SWAP9 BALANCE DUP11 PUSH25 0xA53375F7C73D7C88504170B380582BD264736F6C634300081A STOP CALLER "
				},
				"gasEstimates": {
					"creation": {
						"codeDepositCost": "1879000",
						"executionCost": "1981",
						"totalCost": "1880981"
					},
					"external": {
						"checkSignatures(bytes32,bytes32,bytes)": "infinite",
						"createWallet(address[],uint256)": "infinite",
						"encodeTransactionData(bytes32,address,uint256,bytes,uint256,uint256)": "infinite",
						"executeTransaction(bytes32,address,uint256,bytes,bytes)": "infinite",
						"remeberWalletAddress(address[])": "infinite",
						"sigSplit(bytes,uint256)": "infinite",
						"sortOwners(address[])": "infinite",
						"walletBalance(bytes32)": "2981",
						"walletInfo(bytes32)": "3034",
						"walletRecharge(bytes32)": "3017"
					},
					"internal": {
						"_walletExists(bytes32)": "2248"
					}
				},
				"methodIdentifiers": {
					"checkSignatures(bytes32,bytes32,bytes)": "af9e219a",
					"createWallet(address[],uint256)": "3800a55d",
					"encodeTransactionData(bytes32,address,uint256,bytes,uint256,uint256)": "6aa70de1",
					"executeTransaction(bytes32,address,uint256,bytes,bytes)": "161cac3e",
					"remeberWalletAddress(address[])": "eaa48f63",
					"sigSplit(bytes,uint256)": "94e5279c",
					"sortOwners(address[])": "19309177",
					"walletBalance(bytes32)": "ab4b7010",
					"walletInfo(bytes32)": "3c34b6e1",
					"walletRecharge(bytes32)": "bcbae862"
				}
			},
			"storageLayout": {
				"storage": [
					{
						"astId": 49,
						"contract": "contracts/token/MultisigWallet.sol:MultisigWallet",
						"label": "walletInfos",
						"offset": 0,
						"slot": "0",
						"type": "t_mapping(t_bytes32,t_struct(WalletInfo)44_storage)"
					}
				],
				"types": {
					"t_address": {
						"encoding": "inplace",
						"label": "address",
						"numberOfBytes": "20"
					},
					"t_array(t_address)dyn_storage": {
						"base": "t_address",
						"encoding": "dynamic_array",
						"label": "address[]",
						"numberOfBytes": "32"
					},
					"t_bool": {
						"encoding": "inplace",
						"label": "bool",
						"numberOfBytes": "1"
					},
					"t_bytes32": {
						"encoding": "inplace",
						"label": "bytes32",
						"numberOfBytes": "32"
					},
					"t_mapping(t_address,t_bool)": {
						"encoding": "mapping",
						"key": "t_address",
						"label": "mapping(address => bool)",
						"numberOfBytes": "32",
						"value": "t_bool"
					},
					"t_mapping(t_bytes32,t_struct(WalletInfo)44_storage)": {
						"encoding": "mapping",
						"key": "t_bytes32",
						"label": "mapping(bytes32 => struct MultisigWallet.WalletInfo)",
						"numberOfBytes": "32",
						"value": "t_struct(WalletInfo)44_storage"
					},
					"t_struct(WalletInfo)44_storage": {
						"encoding": "inplace",
						"label": "struct MultisigWallet.WalletInfo",
						"members": [
							{
								"astId": 33,
								"contract": "contracts/token/MultisigWallet.sol:MultisigWallet",
								"label": "owners",
								"offset": 0,
								"slot": "0",
								"type": "t_array(t_address)dyn_storage"
							},
							{
								"astId": 37,
								"contract": "contracts/token/MultisigWallet.sol:MultisigWallet",
								"label": "isOwner",
								"offset": 0,
								"slot": "1",
								"type": "t_mapping(t_address,t_bool)"
							},
							{
								"astId": 39,
								"contract": "contracts/token/MultisigWallet.sol:MultisigWallet",
								"label": "threshold",
								"offset": 0,
								"slot": "2",
								"type": "t_uint256"
							},
							{
								"astId": 41,
								"contract": "contracts/token/MultisigWallet.sol:MultisigWallet",
								"label": "nonce",
								"offset": 0,
								"slot": "3",
								"type": "t_uint256"
							},
							{
								"astId": 43,
								"contract": "contracts/token/MultisigWallet.sol:MultisigWallet",
								"label": "balance",
								"offset": 0,
								"slot": "4",
								"type": "t_uint256"
							}
						],
						"numberOfBytes": "160"
					},
					"t_uint256": {
						"encoding": "inplace",
						"label": "uint256",
						"numberOfBytes": "32"
					}
				}
			},
			"userdoc": {
				"kind": "user",
				"methods": {},
				"version": 1
			}
		}
	}
}