{
	"contracts/token/TokenVesting.sol": {
		"TokenVesting": {
			"abi": [
				{
					"inputs": [
						{
							"internalType": "address",
							"name": "erc20",
							"type": "address"
						},
						{
							"internalType": "address",
							"name": "beneficiaryAddress",
							"type": "address"
						}
					],
					"name": "BeneficiaryInfoNotExists",
					"type": "error"
				},
				{
					"anonymous": false,
					"inputs": [
						{
							"indexed": true,
							"internalType": "address",
							"name": "erc20",
							"type": "address"
						},
						{
							"indexed": true,
							"internalType": "address",
							"name": "beneficiary",
							"type": "address"
						},
						{
							"indexed": false,
							"internalType": "uint256",
							"name": "amount",
							"type": "uint256"
						},
						{
							"indexed": false,
							"internalType": "uint256",
							"name": "start",
							"type": "uint256"
						},
						{
							"indexed": false,
							"internalType": "uint256",
							"name": "duration",
							"type": "uint256"
						}
					],
					"name": "AddBeneficiaryInfoEvent",
					"type": "event"
				},
				{
					"anonymous": false,
					"inputs": [
						{
							"indexed": true,
							"internalType": "address",
							"name": "erc20",
							"type": "address"
						},
						{
							"indexed": true,
							"internalType": "address",
							"name": "beneficiary",
							"type": "address"
						},
						{
							"indexed": false,
							"internalType": "uint256",
							"name": "amount",
							"type": "uint256"
						}
					],
					"name": "ReleaseBeneficiaryAmountEvent",
					"type": "event"
				},
				{
					"inputs": [
						{
							"internalType": "address",
							"name": "erc20",
							"type": "address"
						},
						{
							"internalType": "address",
							"name": "beneficiary",
							"type": "address"
						},
						{
							"internalType": "uint256",
							"name": "amount",
							"type": "uint256"
						},
						{
							"internalType": "uint256",
							"name": "duration",
							"type": "uint256"
						}
					],
					"name": "addBeneficiaryInfo",
					"outputs": [],
					"stateMutability": "nonpayable",
					"type": "function"
				},
				{
					"inputs": [
						{
							"internalType": "address",
							"name": "erc20",
							"type": "address"
						},
						{
							"internalType": "address",
							"name": "beneficiaryAddress",
							"type": "address"
						}
					],
					"name": "calcReleaseAmount",
					"outputs": [
						{
							"internalType": "uint256",
							"name": "",
							"type": "uint256"
						}
					],
					"stateMutability": "view",
					"type": "function"
				},
				{
					"inputs": [
						{
							"internalType": "address",
							"name": "erc20",
							"type": "address"
						}
					],
					"name": "releaseBeneficiary",
					"outputs": [
						{
							"internalType": "uint256",
							"name": "",
							"type": "uint256"
						}
					],
					"stateMutability": "nonpayable",
					"type": "function"
				},
				{
					"inputs": [
						{
							"internalType": "address",
							"name": "erc20Address",
							"type": "address"
						},
						{
							"internalType": "address",
							"name": "beneficiaryAddress",
							"type": "address"
						}
					],
					"name": "tokenBeneficiaryInfo",
					"outputs": [
						{
							"internalType": "uint256",
							"name": "start",
							"type": "uint256"
						},
						{
							"internalType": "uint256",
							"name": "duration",
							"type": "uint256"
						},
						{
							"internalType": "uint256",
							"name": "released",
							"type": "uint256"
						}
					],
					"stateMutability": "view",
					"type": "function"
				}
			],
			"devdoc": {
				"kind": "dev",
				"methods": {},
				"version": 1
			},
			"evm": {
				"assembly": "    /* \"contracts/token/TokenVesting.sol\":131:3925  contract TokenVesting {... */\n  mstore(0x40, 0x80)\n  callvalue\n  dup1\n  iszero\n  tag_1\n  jumpi\n  0x00\n  dup1\n  revert\ntag_1:\n  pop\n  dataSize(sub_0)\n  dup1\n  dataOffset(sub_0)\n  0x00\n  codecopy\n  0x00\n  return\nstop\n\nsub_0: assembly {\n        /* \"contracts/token/TokenVesting.sol\":131:3925  contract TokenVesting {... */\n      mstore(0x40, 0x80)\n      callvalue\n      dup1\n      iszero\n      tag_1\n      jumpi\n      0x00\n      dup1\n      revert\n    tag_1:\n      pop\n      jumpi(tag_2, lt(calldatasize, 0x04))\n      shr(0xe0, calldataload(0x00))\n      dup1\n      0x0f4e099b\n      eq\n      tag_3\n      jumpi\n      dup1\n      0x282d2d9a\n      eq\n      tag_4\n      jumpi\n      dup1\n      0x4c31fdc8\n      eq\n      tag_5\n      jumpi\n      dup1\n      0xcd97efa8\n      eq\n      tag_6\n      jumpi\n    tag_2:\n      0x00\n      dup1\n      revert\n        /* \"contracts/token/TokenVesting.sol\":2840:3923  function calcReleaseAmount(address erc20, address beneficiaryAddress) public view returns (uint256) {... */\n    tag_3:\n      tag_7\n      0x04\n      dup1\n      calldatasize\n      sub\n      dup2\n      add\n      swap1\n      tag_8\n      swap2\n      swap1\n      tag_9\n      jump\t// in\n    tag_8:\n      tag_10\n      jump\t// in\n    tag_7:\n      mload(0x40)\n      tag_11\n      swap2\n      swap1\n      tag_12\n      jump\t// in\n    tag_11:\n      mload(0x40)\n      dup1\n      swap2\n      sub\n      swap1\n      return\n        /* \"contracts/token/TokenVesting.sol\":817:932  mapping(address erc20Address => mapping(address beneficiaryAddress => BeneficiaryInfo)) public tokenBeneficiaryInfo */\n    tag_4:\n      tag_13\n      0x04\n      dup1\n      calldatasize\n      sub\n      dup2\n      add\n      swap1\n      tag_14\n      swap2\n      swap1\n      tag_9\n      jump\t// in\n    tag_14:\n      tag_15\n      jump\t// in\n    tag_13:\n      mload(0x40)\n      tag_16\n      swap4\n      swap3\n      swap2\n      swap1\n      tag_17\n      jump\t// in\n    tag_16:\n      mload(0x40)\n      dup1\n      swap2\n      sub\n      swap1\n      return\n        /* \"contracts/token/TokenVesting.sol\":961:1740  function addBeneficiaryInfo(address erc20, address beneficiary, uint256 amount, uint256 duration) external {... */\n    tag_5:\n      tag_18\n      0x04\n      dup1\n      calldatasize\n      sub\n      dup2\n      add\n      swap1\n      tag_19\n      swap2\n      swap1\n      tag_20\n      jump\t// in\n    tag_19:\n      tag_21\n      jump\t// in\n    tag_18:\n      stop\n        /* \"contracts/token/TokenVesting.sol\":2098:2800  function releaseBeneficiary(address erc20) external returns (uint256) {... */\n    tag_6:\n      tag_22\n      0x04\n      dup1\n      calldatasize\n      sub\n      dup2\n      add\n      swap1\n      tag_23\n      swap2\n      swap1\n      tag_24\n      jump\t// in\n    tag_23:\n      tag_25\n      jump\t// in\n    tag_22:\n      mload(0x40)\n      tag_26\n      swap2\n      swap1\n      tag_12\n      jump\t// in\n    tag_26:\n      mload(0x40)\n      dup1\n      swap2\n      sub\n      swap1\n      return\n        /* \"contracts/token/TokenVesting.sol\":2840:3923  function calcReleaseAmount(address erc20, address beneficiaryAddress) public view returns (uint256) {... */\n    tag_10:\n        /* \"contracts/token/TokenVesting.sol\":2931:2938  uint256 */\n      0x00\n        /* \"contracts/token/TokenVesting.sol\":3011:3012  0 */\n      dup1\n        /* \"contracts/token/TokenVesting.sol\":2954:2974  tokenBeneficiaryInfo */\n      0x00\n        /* \"contracts/token/TokenVesting.sol\":2954:2981  tokenBeneficiaryInfo[erc20] */\n      dup1\n        /* \"contracts/token/TokenVesting.sol\":2975:2980  erc20 */\n      dup6\n        /* \"contracts/token/TokenVesting.sol\":2954:2981  tokenBeneficiaryInfo[erc20] */\n      0xffffffffffffffffffffffffffffffffffffffff\n      and\n      0xffffffffffffffffffffffffffffffffffffffff\n      and\n      dup2\n      mstore\n      0x20\n      add\n      swap1\n      dup2\n      mstore\n      0x20\n      add\n      0x00\n      keccak256\n        /* \"contracts/token/TokenVesting.sol\":2954:3001  tokenBeneficiaryInfo[erc20][beneficiaryAddress] */\n      0x00\n        /* \"contracts/token/TokenVesting.sol\":2982:3000  beneficiaryAddress */\n      dup5\n        /* \"contracts/token/TokenVesting.sol\":2954:3001  tokenBeneficiaryInfo[erc20][beneficiaryAddress] */\n      0xffffffffffffffffffffffffffffffffffffffff\n      and\n      0xffffffffffffffffffffffffffffffffffffffff\n      and\n      dup2\n      mstore\n      0x20\n      add\n      swap1\n      dup2\n      mstore\n      0x20\n      add\n      0x00\n      keccak256\n        /* \"contracts/token/TokenVesting.sol\":2954:3007  tokenBeneficiaryInfo[erc20][beneficiaryAddress].start */\n      0x00\n      add\n      sload\n        /* \"contracts/token/TokenVesting.sol\":2954:3012  tokenBeneficiaryInfo[erc20][beneficiaryAddress].start == 0 */\n      sub\n        /* \"contracts/token/TokenVesting.sol\":2950:3097  if (tokenBeneficiaryInfo[erc20][beneficiaryAddress].start == 0) {... */\n      tag_28\n      jumpi\n        /* \"contracts/token/TokenVesting.sol\":3060:3065  erc20 */\n      dup3\n        /* \"contracts/token/TokenVesting.sol\":3067:3085  beneficiaryAddress */\n      dup3\n        /* \"contracts/token/TokenVesting.sol\":3035:3086  BeneficiaryInfoNotExists(erc20, beneficiaryAddress) */\n      mload(0x40)\n      0xcee5ff1a00000000000000000000000000000000000000000000000000000000\n      dup2\n      mstore\n      0x04\n      add\n      tag_29\n      swap3\n      swap2\n      swap1\n      tag_30\n      jump\t// in\n    tag_29:\n      mload(0x40)\n      dup1\n      swap2\n      sub\n      swap1\n      revert\n        /* \"contracts/token/TokenVesting.sol\":2950:3097  if (tokenBeneficiaryInfo[erc20][beneficiaryAddress].start == 0) {... */\n    tag_28:\n        /* \"contracts/token/TokenVesting.sol\":3127:3144  uint256 allAmount */\n      0x00\n        /* \"contracts/token/TokenVesting.sol\":3213:3218  erc20 */\n      dup4\n        /* \"contracts/token/TokenVesting.sol\":3206:3229  IERC20(erc20).balanceOf */\n      0xffffffffffffffffffffffffffffffffffffffff\n      and\n      0x70a08231\n        /* \"contracts/token/TokenVesting.sol\":3238:3242  this */\n      address\n        /* \"contracts/token/TokenVesting.sol\":3206:3244  IERC20(erc20).balanceOf(address(this)) */\n      mload(0x40)\n      dup3\n      0xffffffff\n      and\n      0xe0\n      shl\n      dup2\n      mstore\n      0x04\n      add\n      tag_31\n      swap2\n      swap1\n      tag_32\n      jump\t// in\n    tag_31:\n      0x20\n      mload(0x40)\n      dup1\n      dup4\n      sub\n      dup2\n      dup7\n      gas\n      staticcall\n      iszero\n      dup1\n      iszero\n      tag_34\n      jumpi\n      returndatasize\n      0x00\n      dup1\n      returndatacopy\n      revert(0x00, returndatasize)\n    tag_34:\n      pop\n      pop\n      pop\n      pop\n      mload(0x40)\n      returndatasize\n      not(0x1f)\n      0x1f\n      dup3\n      add\n      and\n      dup3\n      add\n      dup1\n      0x40\n      mstore\n      pop\n      dup2\n      add\n      swap1\n      tag_35\n      swap2\n      swap1\n      tag_36\n      jump\t// in\n    tag_35:\n        /* \"contracts/token/TokenVesting.sol\":3147:3167  tokenBeneficiaryInfo */\n      0x00\n        /* \"contracts/token/TokenVesting.sol\":3147:3174  tokenBeneficiaryInfo[erc20] */\n      dup1\n        /* \"contracts/token/TokenVesting.sol\":3168:3173  erc20 */\n      dup7\n        /* \"contracts/token/TokenVesting.sol\":3147:3174  tokenBeneficiaryInfo[erc20] */\n      0xffffffffffffffffffffffffffffffffffffffff\n      and\n      0xffffffffffffffffffffffffffffffffffffffff\n      and\n      dup2\n      mstore\n      0x20\n      add\n      swap1\n      dup2\n      mstore\n      0x20\n      add\n      0x00\n      keccak256\n        /* \"contracts/token/TokenVesting.sol\":3147:3194  tokenBeneficiaryInfo[erc20][beneficiaryAddress] */\n      0x00\n        /* \"contracts/token/TokenVesting.sol\":3175:3193  beneficiaryAddress */\n      dup6\n        /* \"contracts/token/TokenVesting.sol\":3147:3194  tokenBeneficiaryInfo[erc20][beneficiaryAddress] */\n      0xffffffffffffffffffffffffffffffffffffffff\n      and\n      0xffffffffffffffffffffffffffffffffffffffff\n      and\n      dup2\n      mstore\n      0x20\n      add\n      swap1\n      dup2\n      mstore\n      0x20\n      add\n      0x00\n      keccak256\n        /* \"contracts/token/TokenVesting.sol\":3147:3203  tokenBeneficiaryInfo[erc20][beneficiaryAddress].released */\n      0x02\n      add\n      sload\n        /* \"contracts/token/TokenVesting.sol\":3147:3244  tokenBeneficiaryInfo[erc20][beneficiaryAddress].released + IERC20(erc20).balanceOf(address(this)) */\n      tag_37\n      swap2\n      swap1\n      tag_38\n      jump\t// in\n    tag_37:\n        /* \"contracts/token/TokenVesting.sol\":3127:3244  uint256 allAmount = tokenBeneficiaryInfo[erc20][beneficiaryAddress].released + IERC20(erc20).balanceOf(address(this)) */\n      swap1\n      pop\n        /* \"contracts/token/TokenVesting.sol\":3314:3326  uint256 diff */\n      0x00\n        /* \"contracts/token/TokenVesting.sol\":3347:3367  tokenBeneficiaryInfo */\n      dup1\n        /* \"contracts/token/TokenVesting.sol\":3347:3374  tokenBeneficiaryInfo[erc20] */\n      0x00\n        /* \"contracts/token/TokenVesting.sol\":3368:3373  erc20 */\n      dup7\n        /* \"contracts/token/TokenVesting.sol\":3347:3374  tokenBeneficiaryInfo[erc20] */\n      0xffffffffffffffffffffffffffffffffffffffff\n      and\n      0xffffffffffffffffffffffffffffffffffffffff\n      and\n      dup2\n      mstore\n      0x20\n      add\n      swap1\n      dup2\n      mstore\n      0x20\n      add\n      0x00\n      keccak256\n        /* \"contracts/token/TokenVesting.sol\":3347:3394  tokenBeneficiaryInfo[erc20][beneficiaryAddress] */\n      0x00\n        /* \"contracts/token/TokenVesting.sol\":3375:3393  beneficiaryAddress */\n      dup6\n        /* \"contracts/token/TokenVesting.sol\":3347:3394  tokenBeneficiaryInfo[erc20][beneficiaryAddress] */\n      0xffffffffffffffffffffffffffffffffffffffff\n      and\n      0xffffffffffffffffffffffffffffffffffffffff\n      and\n      dup2\n      mstore\n      0x20\n      add\n      swap1\n      dup2\n      mstore\n      0x20\n      add\n      0x00\n      keccak256\n        /* \"contracts/token/TokenVesting.sol\":3347:3400  tokenBeneficiaryInfo[erc20][beneficiaryAddress].start */\n      0x00\n      add\n      sload\n        /* \"contracts/token/TokenVesting.sol\":3329:3344  block.timestamp */\n      timestamp\n        /* \"contracts/token/TokenVesting.sol\":3329:3400  block.timestamp - tokenBeneficiaryInfo[erc20][beneficiaryAddress].start */\n      tag_39\n      swap2\n      swap1\n      tag_40\n      jump\t// in\n    tag_39:\n        /* \"contracts/token/TokenVesting.sol\":3314:3400  uint256 diff = block.timestamp - tokenBeneficiaryInfo[erc20][beneficiaryAddress].start */\n      swap1\n      pop\n        /* \"contracts/token/TokenVesting.sol\":3421:3441  tokenBeneficiaryInfo */\n      0x00\n        /* \"contracts/token/TokenVesting.sol\":3421:3448  tokenBeneficiaryInfo[erc20] */\n      dup1\n        /* \"contracts/token/TokenVesting.sol\":3442:3447  erc20 */\n      dup7\n        /* \"contracts/token/TokenVesting.sol\":3421:3448  tokenBeneficiaryInfo[erc20] */\n      0xffffffffffffffffffffffffffffffffffffffff\n      and\n      0xffffffffffffffffffffffffffffffffffffffff\n      and\n      dup2\n      mstore\n      0x20\n      add\n      swap1\n      dup2\n      mstore\n      0x20\n      add\n      0x00\n      keccak256\n        /* \"contracts/token/TokenVesting.sol\":3421:3468  tokenBeneficiaryInfo[erc20][beneficiaryAddress] */\n      0x00\n        /* \"contracts/token/TokenVesting.sol\":3449:3467  beneficiaryAddress */\n      dup6\n        /* \"contracts/token/TokenVesting.sol\":3421:3468  tokenBeneficiaryInfo[erc20][beneficiaryAddress] */\n      0xffffffffffffffffffffffffffffffffffffffff\n      and\n      0xffffffffffffffffffffffffffffffffffffffff\n      and\n      dup2\n      mstore\n      0x20\n      add\n      swap1\n      dup2\n      mstore\n      0x20\n      add\n      0x00\n      keccak256\n        /* \"contracts/token/TokenVesting.sol\":3421:3477  tokenBeneficiaryInfo[erc20][beneficiaryAddress].duration */\n      0x01\n      add\n      sload\n        /* \"contracts/token/TokenVesting.sol\":3414:3418  diff */\n      dup2\n        /* \"contracts/token/TokenVesting.sol\":3414:3477  diff > tokenBeneficiaryInfo[erc20][beneficiaryAddress].duration */\n      gt\n        /* \"contracts/token/TokenVesting.sol\":3410:3917  if (diff > tokenBeneficiaryInfo[erc20][beneficiaryAddress].duration) {... */\n      iszero\n      tag_41\n      jumpi\n        /* \"contracts/token/TokenVesting.sol\":3512:3532  tokenBeneficiaryInfo */\n      0x00\n        /* \"contracts/token/TokenVesting.sol\":3512:3539  tokenBeneficiaryInfo[erc20] */\n      dup1\n        /* \"contracts/token/TokenVesting.sol\":3533:3538  erc20 */\n      dup7\n        /* \"contracts/token/TokenVesting.sol\":3512:3539  tokenBeneficiaryInfo[erc20] */\n      0xffffffffffffffffffffffffffffffffffffffff\n      and\n      0xffffffffffffffffffffffffffffffffffffffff\n      and\n      dup2\n      mstore\n      0x20\n      add\n      swap1\n      dup2\n      mstore\n      0x20\n      add\n      0x00\n      keccak256\n        /* \"contracts/token/TokenVesting.sol\":3512:3559  tokenBeneficiaryInfo[erc20][beneficiaryAddress] */\n      0x00\n        /* \"contracts/token/TokenVesting.sol\":3540:3558  beneficiaryAddress */\n      dup6\n        /* \"contracts/token/TokenVesting.sol\":3512:3559  tokenBeneficiaryInfo[erc20][beneficiaryAddress] */\n      0xffffffffffffffffffffffffffffffffffffffff\n      and\n      0xffffffffffffffffffffffffffffffffffffffff\n      and\n      dup2\n      mstore\n      0x20\n      add\n      swap1\n      dup2\n      mstore\n      0x20\n      add\n      0x00\n      keccak256\n        /* \"contracts/token/TokenVesting.sol\":3512:3568  tokenBeneficiaryInfo[erc20][beneficiaryAddress].released */\n      0x02\n      add\n      sload\n        /* \"contracts/token/TokenVesting.sol\":3500:3509  allAmount */\n      dup3\n        /* \"contracts/token/TokenVesting.sol\":3500:3568  allAmount - tokenBeneficiaryInfo[erc20][beneficiaryAddress].released */\n      tag_42\n      swap2\n      swap1\n      tag_40\n      jump\t// in\n    tag_42:\n        /* \"contracts/token/TokenVesting.sol\":3493:3568  return allAmount - tokenBeneficiaryInfo[erc20][beneficiaryAddress].released */\n      swap3\n      pop\n      pop\n      pop\n      jump(tag_27)\n        /* \"contracts/token/TokenVesting.sol\":3410:3917  if (diff > tokenBeneficiaryInfo[erc20][beneficiaryAddress].duration) {... */\n    tag_41:\n        /* \"contracts/token/TokenVesting.sol\":3598:3616  uint256 allRelease */\n      0x00\n        /* \"contracts/token/TokenVesting.sol\":3703:3723  tokenBeneficiaryInfo */\n      dup1\n        /* \"contracts/token/TokenVesting.sol\":3703:3730  tokenBeneficiaryInfo[erc20] */\n      0x00\n        /* \"contracts/token/TokenVesting.sol\":3724:3729  erc20 */\n      dup8\n        /* \"contracts/token/TokenVesting.sol\":3703:3730  tokenBeneficiaryInfo[erc20] */\n      0xffffffffffffffffffffffffffffffffffffffff\n      and\n      0xffffffffffffffffffffffffffffffffffffffff\n      and\n      dup2\n      mstore\n      0x20\n      add\n      swap1\n      dup2\n      mstore\n      0x20\n      add\n      0x00\n      keccak256\n        /* \"contracts/token/TokenVesting.sol\":3703:3750  tokenBeneficiaryInfo[erc20][beneficiaryAddress] */\n      0x00\n        /* \"contracts/token/TokenVesting.sol\":3731:3749  beneficiaryAddress */\n      dup7\n        /* \"contracts/token/TokenVesting.sol\":3703:3750  tokenBeneficiaryInfo[erc20][beneficiaryAddress] */\n      0xffffffffffffffffffffffffffffffffffffffff\n      and\n      0xffffffffffffffffffffffffffffffffffffffff\n      and\n      dup2\n      mstore\n      0x20\n      add\n      swap1\n      dup2\n      mstore\n      0x20\n      add\n      0x00\n      keccak256\n        /* \"contracts/token/TokenVesting.sol\":3703:3759  tokenBeneficiaryInfo[erc20][beneficiaryAddress].duration */\n      0x01\n      add\n      sload\n        /* \"contracts/token/TokenVesting.sol\":3693:3702  allAmount */\n      dup4\n        /* \"contracts/token/TokenVesting.sol\":3638:3658  tokenBeneficiaryInfo */\n      0x00\n        /* \"contracts/token/TokenVesting.sol\":3638:3665  tokenBeneficiaryInfo[erc20] */\n      dup1\n        /* \"contracts/token/TokenVesting.sol\":3659:3664  erc20 */\n      dup10\n        /* \"contracts/token/TokenVesting.sol\":3638:3665  tokenBeneficiaryInfo[erc20] */\n      0xffffffffffffffffffffffffffffffffffffffff\n      and\n      0xffffffffffffffffffffffffffffffffffffffff\n      and\n      dup2\n      mstore\n      0x20\n      add\n      swap1\n      dup2\n      mstore\n      0x20\n      add\n      0x00\n      keccak256\n        /* \"contracts/token/TokenVesting.sol\":3638:3685  tokenBeneficiaryInfo[erc20][beneficiaryAddress] */\n      0x00\n        /* \"contracts/token/TokenVesting.sol\":3666:3684  beneficiaryAddress */\n      dup9\n        /* \"contracts/token/TokenVesting.sol\":3638:3685  tokenBeneficiaryInfo[erc20][beneficiaryAddress] */\n      0xffffffffffffffffffffffffffffffffffffffff\n      and\n      0xffffffffffffffffffffffffffffffffffffffff\n      and\n      dup2\n      mstore\n      0x20\n      add\n      swap1\n      dup2\n      mstore\n      0x20\n      add\n      0x00\n      keccak256\n        /* \"contracts/token/TokenVesting.sol\":3638:3691  tokenBeneficiaryInfo[erc20][beneficiaryAddress].start */\n      0x00\n      add\n      sload\n        /* \"contracts/token/TokenVesting.sol\":3620:3635  block.timestamp */\n      timestamp\n        /* \"contracts/token/TokenVesting.sol\":3620:3691  block.timestamp - tokenBeneficiaryInfo[erc20][beneficiaryAddress].start */\n      tag_44\n      swap2\n      swap1\n      tag_40\n      jump\t// in\n    tag_44:\n        /* \"contracts/token/TokenVesting.sol\":3619:3702  (block.timestamp - tokenBeneficiaryInfo[erc20][beneficiaryAddress].start)*allAmount */\n      tag_45\n      swap2\n      swap1\n      tag_46\n      jump\t// in\n    tag_45:\n        /* \"contracts/token/TokenVesting.sol\":3619:3759  (block.timestamp - tokenBeneficiaryInfo[erc20][beneficiaryAddress].start)*allAmount/tokenBeneficiaryInfo[erc20][beneficiaryAddress].duration */\n      tag_47\n      swap2\n      swap1\n      tag_48\n      jump\t// in\n    tag_47:\n        /* \"contracts/token/TokenVesting.sol\":3598:3759  uint256 allRelease = (block.timestamp - tokenBeneficiaryInfo[erc20][beneficiaryAddress].start)*allAmount/tokenBeneficiaryInfo[erc20][beneficiaryAddress].duration */\n      swap1\n      pop\n        /* \"contracts/token/TokenVesting.sol\":3850:3870  tokenBeneficiaryInfo */\n      0x00\n        /* \"contracts/token/TokenVesting.sol\":3850:3877  tokenBeneficiaryInfo[erc20] */\n      dup1\n        /* \"contracts/token/TokenVesting.sol\":3871:3876  erc20 */\n      dup8\n        /* \"contracts/token/TokenVesting.sol\":3850:3877  tokenBeneficiaryInfo[erc20] */\n      0xffffffffffffffffffffffffffffffffffffffff\n      and\n      0xffffffffffffffffffffffffffffffffffffffff\n      and\n      dup2\n      mstore\n      0x20\n      add\n      swap1\n      dup2\n      mstore\n      0x20\n      add\n      0x00\n      keccak256\n        /* \"contracts/token/TokenVesting.sol\":3850:3897  tokenBeneficiaryInfo[erc20][beneficiaryAddress] */\n      0x00\n        /* \"contracts/token/TokenVesting.sol\":3878:3896  beneficiaryAddress */\n      dup7\n        /* \"contracts/token/TokenVesting.sol\":3850:3897  tokenBeneficiaryInfo[erc20][beneficiaryAddress] */\n      0xffffffffffffffffffffffffffffffffffffffff\n      and\n      0xffffffffffffffffffffffffffffffffffffffff\n      and\n      dup2\n      mstore\n      0x20\n      add\n      swap1\n      dup2\n      mstore\n      0x20\n      add\n      0x00\n      keccak256\n        /* \"contracts/token/TokenVesting.sol\":3850:3906  tokenBeneficiaryInfo[erc20][beneficiaryAddress].released */\n      0x02\n      add\n      sload\n        /* \"contracts/token/TokenVesting.sol\":3837:3847  allRelease */\n      dup2\n        /* \"contracts/token/TokenVesting.sol\":3837:3906  allRelease - tokenBeneficiaryInfo[erc20][beneficiaryAddress].released */\n      tag_49\n      swap2\n      swap1\n      tag_40\n      jump\t// in\n    tag_49:\n        /* \"contracts/token/TokenVesting.sol\":3830:3906  return allRelease - tokenBeneficiaryInfo[erc20][beneficiaryAddress].released */\n      swap4\n      pop\n      pop\n      pop\n      pop\n        /* \"contracts/token/TokenVesting.sol\":2840:3923  function calcReleaseAmount(address erc20, address beneficiaryAddress) public view returns (uint256) {... */\n    tag_27:\n      swap3\n      swap2\n      pop\n      pop\n      jump\t// out\n        /* \"contracts/token/TokenVesting.sol\":817:932  mapping(address erc20Address => mapping(address beneficiaryAddress => BeneficiaryInfo)) public tokenBeneficiaryInfo */\n    tag_15:\n      mstore(0x20, 0x00)\n      dup2\n      0x00\n      mstore\n      mstore(0x20, keccak256(0x00, 0x40))\n      dup1\n      0x00\n      mstore\n      keccak256(0x00, 0x40)\n      0x00\n      swap2\n      pop\n      swap2\n      pop\n      pop\n      dup1\n      0x00\n      add\n      sload\n      swap1\n      dup1\n      0x01\n      add\n      sload\n      swap1\n      dup1\n      0x02\n      add\n      sload\n      swap1\n      pop\n      dup4\n      jump\t// out\n        /* \"contracts/token/TokenVesting.sol\":961:1740  function addBeneficiaryInfo(address erc20, address beneficiary, uint256 amount, uint256 duration) external {... */\n    tag_21:\n        /* \"contracts/token/TokenVesting.sol\":1104:1122  _checkERC20(erc20) */\n      tag_51\n        /* \"contracts/token/TokenVesting.sol\":1116:1121  erc20 */\n      dup5\n        /* \"contracts/token/TokenVesting.sol\":1104:1115  _checkERC20 */\n      tag_52\n        /* \"contracts/token/TokenVesting.sol\":1104:1122  _checkERC20(erc20) */\n      jump\t// in\n    tag_51:\n        /* \"contracts/token/TokenVesting.sol\":1096:1148  require(_checkERC20(erc20), \"erc20 address invalid\") */\n      tag_53\n      jumpi\n      mload(0x40)\n      0x08c379a000000000000000000000000000000000000000000000000000000000\n      dup2\n      mstore\n      0x04\n      add\n      tag_54\n      swap1\n      tag_55\n      jump\t// in\n    tag_54:\n      mload(0x40)\n      dup1\n      swap2\n      sub\n      swap1\n      revert\n    tag_53:\n        /* \"contracts/token/TokenVesting.sol\":1189:1190  0 */\n      0x00\n        /* \"contracts/token/TokenVesting.sol\":1166:1191  beneficiary != address(0) */\n      0xffffffffffffffffffffffffffffffffffffffff\n      and\n        /* \"contracts/token/TokenVesting.sol\":1166:1177  beneficiary */\n      dup4\n        /* \"contracts/token/TokenVesting.sol\":1166:1191  beneficiary != address(0) */\n      0xffffffffffffffffffffffffffffffffffffffff\n      and\n      sub\n        /* \"contracts/token/TokenVesting.sol\":1158:1215  require(beneficiary != address(0), \"beneficiary invalid\") */\n      tag_56\n      jumpi\n      mload(0x40)\n      0x08c379a000000000000000000000000000000000000000000000000000000000\n      dup2\n      mstore\n      0x04\n      add\n      tag_57\n      swap1\n      tag_58\n      jump\t// in\n    tag_57:\n      mload(0x40)\n      dup1\n      swap2\n      sub\n      swap1\n      revert\n    tag_56:\n        /* \"contracts/token/TokenVesting.sol\":1242:1243  0 */\n      0x00\n        /* \"contracts/token/TokenVesting.sol\":1233:1239  amount */\n      dup3\n        /* \"contracts/token/TokenVesting.sol\":1233:1243  amount > 0 */\n      gt\n        /* \"contracts/token/TokenVesting.sol\":1225:1258  require(amount > 0,\"amount zero\") */\n      tag_59\n      jumpi\n      mload(0x40)\n      0x08c379a000000000000000000000000000000000000000000000000000000000\n      dup2\n      mstore\n      0x04\n      add\n      tag_60\n      swap1\n      tag_61\n      jump\t// in\n    tag_60:\n      mload(0x40)\n      dup1\n      swap2\n      sub\n      swap1\n      revert\n    tag_59:\n        /* \"contracts/token/TokenVesting.sol\":1287:1288  0 */\n      0x00\n        /* \"contracts/token/TokenVesting.sol\":1276:1284  duration */\n      dup2\n        /* \"contracts/token/TokenVesting.sol\":1276:1288  duration > 0 */\n      gt\n        /* \"contracts/token/TokenVesting.sol\":1268:1306  require(duration > 0, \"duration zero\") */\n      tag_62\n      jumpi\n      mload(0x40)\n      0x08c379a000000000000000000000000000000000000000000000000000000000\n      dup2\n      mstore\n      0x04\n      add\n      tag_63\n      swap1\n      tag_64\n      jump\t// in\n    tag_63:\n      mload(0x40)\n      dup1\n      swap2\n      sub\n      swap1\n      revert\n    tag_62:\n        /* \"contracts/token/TokenVesting.sol\":1374:1375  0 */\n      0x00\n        /* \"contracts/token/TokenVesting.sol\":1324:1344  tokenBeneficiaryInfo */\n      dup1\n        /* \"contracts/token/TokenVesting.sol\":1324:1351  tokenBeneficiaryInfo[erc20] */\n      0x00\n        /* \"contracts/token/TokenVesting.sol\":1345:1350  erc20 */\n      dup7\n        /* \"contracts/token/TokenVesting.sol\":1324:1351  tokenBeneficiaryInfo[erc20] */\n      0xffffffffffffffffffffffffffffffffffffffff\n      and\n      0xffffffffffffffffffffffffffffffffffffffff\n      and\n      dup2\n      mstore\n      0x20\n      add\n      swap1\n      dup2\n      mstore\n      0x20\n      add\n      0x00\n      keccak256\n        /* \"contracts/token/TokenVesting.sol\":1324:1364  tokenBeneficiaryInfo[erc20][beneficiary] */\n      0x00\n        /* \"contracts/token/TokenVesting.sol\":1352:1363  beneficiary */\n      dup6\n        /* \"contracts/token/TokenVesting.sol\":1324:1364  tokenBeneficiaryInfo[erc20][beneficiary] */\n      0xffffffffffffffffffffffffffffffffffffffff\n      and\n      0xffffffffffffffffffffffffffffffffffffffff\n      and\n      dup2\n      mstore\n      0x20\n      add\n      swap1\n      dup2\n      mstore\n      0x20\n      add\n      0x00\n      keccak256\n        /* \"contracts/token/TokenVesting.sol\":1324:1370  tokenBeneficiaryInfo[erc20][beneficiary].start */\n      0x00\n      add\n      sload\n        /* \"contracts/token/TokenVesting.sol\":1324:1375  tokenBeneficiaryInfo[erc20][beneficiary].start == 0 */\n      eq\n        /* \"contracts/token/TokenVesting.sol\":1316:1398  require(tokenBeneficiaryInfo[erc20][beneficiary].start == 0, \"beneficiary exists\") */\n      tag_65\n      jumpi\n      mload(0x40)\n      0x08c379a000000000000000000000000000000000000000000000000000000000\n      dup2\n      mstore\n      0x04\n      add\n      tag_66\n      swap1\n      tag_67\n      jump\t// in\n    tag_66:\n      mload(0x40)\n      dup1\n      swap2\n      sub\n      swap1\n      revert\n    tag_65:\n        /* \"contracts/token/TokenVesting.sol\":1427:1440  uint256 start */\n      0x00\n        /* \"contracts/token/TokenVesting.sol\":1443:1458  block.timestamp */\n      timestamp\n        /* \"contracts/token/TokenVesting.sol\":1427:1458  uint256 start = block.timestamp */\n      swap1\n      pop\n        /* \"contracts/token/TokenVesting.sol\":1517:1522  start */\n      dup1\n        /* \"contracts/token/TokenVesting.sol\":1468:1488  tokenBeneficiaryInfo */\n      0x00\n        /* \"contracts/token/TokenVesting.sol\":1468:1495  tokenBeneficiaryInfo[erc20] */\n      dup1\n        /* \"contracts/token/TokenVesting.sol\":1489:1494  erc20 */\n      dup8\n        /* \"contracts/token/TokenVesting.sol\":1468:1495  tokenBeneficiaryInfo[erc20] */\n      0xffffffffffffffffffffffffffffffffffffffff\n      and\n      0xffffffffffffffffffffffffffffffffffffffff\n      and\n      dup2\n      mstore\n      0x20\n      add\n      swap1\n      dup2\n      mstore\n      0x20\n      add\n      0x00\n      keccak256\n        /* \"contracts/token/TokenVesting.sol\":1468:1508  tokenBeneficiaryInfo[erc20][beneficiary] */\n      0x00\n        /* \"contracts/token/TokenVesting.sol\":1496:1507  beneficiary */\n      dup7\n        /* \"contracts/token/TokenVesting.sol\":1468:1508  tokenBeneficiaryInfo[erc20][beneficiary] */\n      0xffffffffffffffffffffffffffffffffffffffff\n      and\n      0xffffffffffffffffffffffffffffffffffffffff\n      and\n      dup2\n      mstore\n      0x20\n      add\n      swap1\n      dup2\n      mstore\n      0x20\n      add\n      0x00\n      keccak256\n        /* \"contracts/token/TokenVesting.sol\":1468:1514  tokenBeneficiaryInfo[erc20][beneficiary].start */\n      0x00\n      add\n        /* \"contracts/token/TokenVesting.sol\":1468:1522  tokenBeneficiaryInfo[erc20][beneficiary].start = start */\n      dup2\n      swap1\n      sstore\n      pop\n        /* \"contracts/token/TokenVesting.sol\":1584:1592  duration */\n      dup2\n        /* \"contracts/token/TokenVesting.sol\":1532:1552  tokenBeneficiaryInfo */\n      0x00\n        /* \"contracts/token/TokenVesting.sol\":1532:1559  tokenBeneficiaryInfo[erc20] */\n      dup1\n        /* \"contracts/token/TokenVesting.sol\":1553:1558  erc20 */\n      dup8\n        /* \"contracts/token/TokenVesting.sol\":1532:1559  tokenBeneficiaryInfo[erc20] */\n      0xffffffffffffffffffffffffffffffffffffffff\n      and\n      0xffffffffffffffffffffffffffffffffffffffff\n      and\n      dup2\n      mstore\n      0x20\n      add\n      swap1\n      dup2\n      mstore\n      0x20\n      add\n      0x00\n      keccak256\n        /* \"contracts/token/TokenVesting.sol\":1532:1572  tokenBeneficiaryInfo[erc20][beneficiary] */\n      0x00\n        /* \"contracts/token/TokenVesting.sol\":1560:1571  beneficiary */\n      dup7\n        /* \"contracts/token/TokenVesting.sol\":1532:1572  tokenBeneficiaryInfo[erc20][beneficiary] */\n      0xffffffffffffffffffffffffffffffffffffffff\n      and\n      0xffffffffffffffffffffffffffffffffffffffff\n      and\n      dup2\n      mstore\n      0x20\n      add\n      swap1\n      dup2\n      mstore\n      0x20\n      add\n      0x00\n      keccak256\n        /* \"contracts/token/TokenVesting.sol\":1532:1581  tokenBeneficiaryInfo[erc20][beneficiary].duration */\n      0x01\n      add\n        /* \"contracts/token/TokenVesting.sol\":1532:1592  tokenBeneficiaryInfo[erc20][beneficiary].duration = duration */\n      dup2\n      swap1\n      sstore\n      pop\n        /* \"contracts/token/TokenVesting.sol\":1626:1650  _transfer(erc20, amount) */\n      tag_68\n        /* \"contracts/token/TokenVesting.sol\":1636:1641  erc20 */\n      dup6\n        /* \"contracts/token/TokenVesting.sol\":1643:1649  amount */\n      dup5\n        /* \"contracts/token/TokenVesting.sol\":1626:1635  _transfer */\n      tag_69\n        /* \"contracts/token/TokenVesting.sol\":1626:1650  _transfer(erc20, amount) */\n      jump\t// in\n    tag_68:\n        /* \"contracts/token/TokenVesting.sol\":1696:1707  beneficiary */\n      dup4\n        /* \"contracts/token/TokenVesting.sol\":1665:1733  AddBeneficiaryInfoEvent(erc20, beneficiary, amount, start, duration) */\n      0xffffffffffffffffffffffffffffffffffffffff\n      and\n        /* \"contracts/token/TokenVesting.sol\":1689:1694  erc20 */\n      dup6\n        /* \"contracts/token/TokenVesting.sol\":1665:1733  AddBeneficiaryInfoEvent(erc20, beneficiary, amount, start, duration) */\n      0xffffffffffffffffffffffffffffffffffffffff\n      and\n      0x0618834321ce8ecb1b7320e51ab3c6f13c5030ae25a978552e88ded53349532e\n        /* \"contracts/token/TokenVesting.sol\":1709:1715  amount */\n      dup6\n        /* \"contracts/token/TokenVesting.sol\":1717:1722  start */\n      dup5\n        /* \"contracts/token/TokenVesting.sol\":1724:1732  duration */\n      dup7\n        /* \"contracts/token/TokenVesting.sol\":1665:1733  AddBeneficiaryInfoEvent(erc20, beneficiary, amount, start, duration) */\n      mload(0x40)\n      tag_70\n      swap4\n      swap3\n      swap2\n      swap1\n      tag_17\n      jump\t// in\n    tag_70:\n      mload(0x40)\n      dup1\n      swap2\n      sub\n      swap1\n      log3\n        /* \"contracts/token/TokenVesting.sol\":1068:1740  {... */\n      pop\n        /* \"contracts/token/TokenVesting.sol\":961:1740  function addBeneficiaryInfo(address erc20, address beneficiary, uint256 amount, uint256 duration) external {... */\n      pop\n      pop\n      pop\n      pop\n      jump\t// out\n        /* \"contracts/token/TokenVesting.sol\":2098:2800  function releaseBeneficiary(address erc20) external returns (uint256) {... */\n    tag_25:\n        /* \"contracts/token/TokenVesting.sol\":2159:2166  uint256 */\n      0x00\n        /* \"contracts/token/TokenVesting.sol\":2204:2222  _checkERC20(erc20) */\n      tag_72\n        /* \"contracts/token/TokenVesting.sol\":2216:2221  erc20 */\n      dup3\n        /* \"contracts/token/TokenVesting.sol\":2204:2215  _checkERC20 */\n      tag_52\n        /* \"contracts/token/TokenVesting.sol\":2204:2222  _checkERC20(erc20) */\n      jump\t// in\n    tag_72:\n        /* \"contracts/token/TokenVesting.sol\":2196:2248  require(_checkERC20(erc20), \"erc20 address invalid\") */\n      tag_73\n      jumpi\n      mload(0x40)\n      0x08c379a000000000000000000000000000000000000000000000000000000000\n      dup2\n      mstore\n      0x04\n      add\n      tag_74\n      swap1\n      tag_55\n      jump\t// in\n    tag_74:\n      mload(0x40)\n      dup1\n      swap2\n      sub\n      swap1\n      revert\n    tag_73:\n        /* \"contracts/token/TokenVesting.sol\":2258:2284  address beneficiaryAddress */\n      0x00\n        /* \"contracts/token/TokenVesting.sol\":2287:2297  msg.sender */\n      caller\n        /* \"contracts/token/TokenVesting.sol\":2258:2297  address beneficiaryAddress = msg.sender */\n      swap1\n      pop\n        /* \"contracts/token/TokenVesting.sol\":2340:2361  uint256 releaseAmount */\n      0x00\n        /* \"contracts/token/TokenVesting.sol\":2364:2408  calcReleaseAmount(erc20, beneficiaryAddress) */\n      tag_75\n        /* \"contracts/token/TokenVesting.sol\":2382:2387  erc20 */\n      dup5\n        /* \"contracts/token/TokenVesting.sol\":2389:2407  beneficiaryAddress */\n      dup4\n        /* \"contracts/token/TokenVesting.sol\":2364:2381  calcReleaseAmount */\n      tag_10\n        /* \"contracts/token/TokenVesting.sol\":2364:2408  calcReleaseAmount(erc20, beneficiaryAddress) */\n      jump\t// in\n    tag_75:\n        /* \"contracts/token/TokenVesting.sol\":2340:2408  uint256 releaseAmount = calcReleaseAmount(erc20, beneficiaryAddress) */\n      swap1\n      pop\n        /* \"contracts/token/TokenVesting.sol\":2442:2443  0 */\n      0x00\n        /* \"contracts/token/TokenVesting.sol\":2426:2439  releaseAmount */\n      dup2\n        /* \"contracts/token/TokenVesting.sol\":2426:2443  releaseAmount > 0 */\n      gt\n        /* \"contracts/token/TokenVesting.sol\":2418:2466  require(releaseAmount > 0, \"releaseAmount zero\") */\n      tag_76\n      jumpi\n      mload(0x40)\n      0x08c379a000000000000000000000000000000000000000000000000000000000\n      dup2\n      mstore\n      0x04\n      add\n      tag_77\n      swap1\n      tag_78\n      jump\t// in\n    tag_77:\n      mload(0x40)\n      dup1\n      swap2\n      sub\n      swap1\n      revert\n    tag_76:\n        /* \"contracts/token/TokenVesting.sol\":2555:2568  releaseAmount */\n      dup1\n        /* \"contracts/token/TokenVesting.sol\":2495:2515  tokenBeneficiaryInfo */\n      0x00\n        /* \"contracts/token/TokenVesting.sol\":2495:2522  tokenBeneficiaryInfo[erc20] */\n      dup1\n        /* \"contracts/token/TokenVesting.sol\":2516:2521  erc20 */\n      dup7\n        /* \"contracts/token/TokenVesting.sol\":2495:2522  tokenBeneficiaryInfo[erc20] */\n      0xffffffffffffffffffffffffffffffffffffffff\n      and\n      0xffffffffffffffffffffffffffffffffffffffff\n      and\n      dup2\n      mstore\n      0x20\n      add\n      swap1\n      dup2\n      mstore\n      0x20\n      add\n      0x00\n      keccak256\n        /* \"contracts/token/TokenVesting.sol\":2495:2542  tokenBeneficiaryInfo[erc20][beneficiaryAddress] */\n      0x00\n        /* \"contracts/token/TokenVesting.sol\":2523:2541  beneficiaryAddress */\n      dup5\n        /* \"contracts/token/TokenVesting.sol\":2495:2542  tokenBeneficiaryInfo[erc20][beneficiaryAddress] */\n      0xffffffffffffffffffffffffffffffffffffffff\n      and\n      0xffffffffffffffffffffffffffffffffffffffff\n      and\n      dup2\n      mstore\n      0x20\n      add\n      swap1\n      dup2\n      mstore\n      0x20\n      add\n      0x00\n      keccak256\n        /* \"contracts/token/TokenVesting.sol\":2495:2551  tokenBeneficiaryInfo[erc20][beneficiaryAddress].released */\n      0x02\n      add\n      0x00\n        /* \"contracts/token/TokenVesting.sol\":2495:2568  tokenBeneficiaryInfo[erc20][beneficiaryAddress].released += releaseAmount */\n      dup3\n      dup3\n      sload\n      tag_79\n      swap2\n      swap1\n      tag_38\n      jump\t// in\n    tag_79:\n      swap3\n      pop\n      pop\n      dup2\n      swap1\n      sstore\n      pop\n        /* \"contracts/token/TokenVesting.sol\":2627:2632  erc20 */\n      dup4\n        /* \"contracts/token/TokenVesting.sol\":2620:2642  IERC20(erc20).transfer */\n      0xffffffffffffffffffffffffffffffffffffffff\n      and\n      0xa9059cbb\n        /* \"contracts/token/TokenVesting.sol\":2643:2661  beneficiaryAddress */\n      dup4\n        /* \"contracts/token/TokenVesting.sol\":2663:2676  releaseAmount */\n      dup4\n        /* \"contracts/token/TokenVesting.sol\":2620:2677  IERC20(erc20).transfer(beneficiaryAddress, releaseAmount) */\n      mload(0x40)\n      dup4\n      0xffffffff\n      and\n      0xe0\n      shl\n      dup2\n      mstore\n      0x04\n      add\n      tag_80\n      swap3\n      swap2\n      swap1\n      tag_81\n      jump\t// in\n    tag_80:\n      0x20\n      mload(0x40)\n      dup1\n      dup4\n      sub\n      dup2\n      0x00\n      dup8\n      gas\n      call\n      iszero\n      dup1\n      iszero\n      tag_83\n      jumpi\n      returndatasize\n      0x00\n      dup1\n      returndatacopy\n      revert(0x00, returndatasize)\n    tag_83:\n      pop\n      pop\n      pop\n      pop\n      mload(0x40)\n      returndatasize\n      not(0x1f)\n      0x1f\n      dup3\n      add\n      and\n      dup3\n      add\n      dup1\n      0x40\n      mstore\n      pop\n      dup2\n      add\n      swap1\n      tag_84\n      swap2\n      swap1\n      tag_85\n      jump\t// in\n    tag_84:\n      pop\n        /* \"contracts/token/TokenVesting.sol\":2729:2747  beneficiaryAddress */\n      dup2\n        /* \"contracts/token/TokenVesting.sol\":2692:2763  ReleaseBeneficiaryAmountEvent(erc20, beneficiaryAddress, releaseAmount) */\n      0xffffffffffffffffffffffffffffffffffffffff\n      and\n        /* \"contracts/token/TokenVesting.sol\":2722:2727  erc20 */\n      dup5\n        /* \"contracts/token/TokenVesting.sol\":2692:2763  ReleaseBeneficiaryAmountEvent(erc20, beneficiaryAddress, releaseAmount) */\n      0xffffffffffffffffffffffffffffffffffffffff\n      and\n      0x419ca9b9f0dd6884d3462d128d4c6302436c020d0244158c930a17d80ca8be5b\n        /* \"contracts/token/TokenVesting.sol\":2749:2762  releaseAmount */\n      dup4\n        /* \"contracts/token/TokenVesting.sol\":2692:2763  ReleaseBeneficiaryAmountEvent(erc20, beneficiaryAddress, releaseAmount) */\n      mload(0x40)\n      tag_86\n      swap2\n      swap1\n      tag_12\n      jump\t// in\n    tag_86:\n      mload(0x40)\n      dup1\n      swap2\n      sub\n      swap1\n      log3\n        /* \"contracts/token/TokenVesting.sol\":2780:2793  releaseAmount */\n      dup1\n        /* \"contracts/token/TokenVesting.sol\":2773:2793  return releaseAmount */\n      swap3\n      pop\n      pop\n      pop\n        /* \"contracts/token/TokenVesting.sol\":2098:2800  function releaseBeneficiary(address erc20) external returns (uint256) {... */\n      swap2\n      swap1\n      pop\n      jump\t// out\n        /* \"contracts/token/TokenVesting.sol\":1745:1932  function _checkERC20(address erc20) private view returns (bool) {... */\n    tag_52:\n        /* \"contracts/token/TokenVesting.sol\":1803:1807  bool */\n      0x00\n        /* \"contracts/token/TokenVesting.sol\":1840:1841  0 */\n      dup1\n        /* \"contracts/token/TokenVesting.sol\":1823:1842  erc20 == address(0) */\n      0xffffffffffffffffffffffffffffffffffffffff\n      and\n        /* \"contracts/token/TokenVesting.sol\":1823:1828  erc20 */\n      dup3\n        /* \"contracts/token/TokenVesting.sol\":1823:1842  erc20 == address(0) */\n      0xffffffffffffffffffffffffffffffffffffffff\n      and\n      eq\n        /* \"contracts/token/TokenVesting.sol\":1823:1866  erc20 == address(0) || erc20.code.length==0 */\n      dup1\n      tag_88\n      jumpi\n      pop\n        /* \"contracts/token/TokenVesting.sol\":1865:1866  0 */\n      0x00\n        /* \"contracts/token/TokenVesting.sol\":1846:1851  erc20 */\n      dup3\n        /* \"contracts/token/TokenVesting.sol\":1846:1863  erc20.code.length */\n      0xffffffffffffffffffffffffffffffffffffffff\n      and\n      extcodesize\n        /* \"contracts/token/TokenVesting.sol\":1846:1866  erc20.code.length==0 */\n      eq\n        /* \"contracts/token/TokenVesting.sol\":1823:1866  erc20 == address(0) || erc20.code.length==0 */\n    tag_88:\n        /* \"contracts/token/TokenVesting.sol\":1819:1905  if (erc20 == address(0) || erc20.code.length==0) {... */\n      iszero\n      tag_89\n      jumpi\n        /* \"contracts/token/TokenVesting.sol\":1889:1894  false */\n      0x00\n        /* \"contracts/token/TokenVesting.sol\":1882:1894  return false */\n      swap1\n      pop\n      jump(tag_87)\n        /* \"contracts/token/TokenVesting.sol\":1819:1905  if (erc20 == address(0) || erc20.code.length==0) {... */\n    tag_89:\n        /* \"contracts/token/TokenVesting.sol\":1921:1925  true */\n      0x01\n        /* \"contracts/token/TokenVesting.sol\":1914:1925  return true */\n      swap1\n      pop\n        /* \"contracts/token/TokenVesting.sol\":1745:1932  function _checkERC20(address erc20) private view returns (bool) {... */\n    tag_87:\n      swap2\n      swap1\n      pop\n      jump\t// out\n        /* \"contracts/token/TokenVesting.sol\":1937:2073  function _transfer(address erc20, uint256 amount) private {... */\n    tag_69:\n        /* \"contracts/token/TokenVesting.sol\":2012:2017  erc20 */\n      dup2\n        /* \"contracts/token/TokenVesting.sol\":2005:2031  IERC20(erc20).transferFrom */\n      0xffffffffffffffffffffffffffffffffffffffff\n      and\n      0x23b872dd\n        /* \"contracts/token/TokenVesting.sol\":2032:2042  msg.sender */\n      caller\n        /* \"contracts/token/TokenVesting.sol\":2052:2056  this */\n      address\n        /* \"contracts/token/TokenVesting.sol\":2059:2065  amount */\n      dup5\n        /* \"contracts/token/TokenVesting.sol\":2005:2066  IERC20(erc20).transferFrom(msg.sender, address(this), amount) */\n      mload(0x40)\n      dup5\n      0xffffffff\n      and\n      0xe0\n      shl\n      dup2\n      mstore\n      0x04\n      add\n      tag_91\n      swap4\n      swap3\n      swap2\n      swap1\n      tag_92\n      jump\t// in\n    tag_91:\n      0x20\n      mload(0x40)\n      dup1\n      dup4\n      sub\n      dup2\n      0x00\n      dup8\n      gas\n      call\n      iszero\n      dup1\n      iszero\n      tag_94\n      jumpi\n      returndatasize\n      0x00\n      dup1\n      returndatacopy\n      revert(0x00, returndatasize)\n    tag_94:\n      pop\n      pop\n      pop\n      pop\n      mload(0x40)\n      returndatasize\n      not(0x1f)\n      0x1f\n      dup3\n      add\n      and\n      dup3\n      add\n      dup1\n      0x40\n      mstore\n      pop\n      dup2\n      add\n      swap1\n      tag_95\n      swap2\n      swap1\n      tag_85\n      jump\t// in\n    tag_95:\n      pop\n        /* \"contracts/token/TokenVesting.sol\":1937:2073  function _transfer(address erc20, uint256 amount) private {... */\n      pop\n      pop\n      jump\t// out\n        /* \"#utility.yul\":88:205   */\n    tag_97:\n        /* \"#utility.yul\":197:198   */\n      0x00\n        /* \"#utility.yul\":194:195   */\n      dup1\n        /* \"#utility.yul\":187:199   */\n      revert\n        /* \"#utility.yul\":334:460   */\n    tag_99:\n        /* \"#utility.yul\":371:378   */\n      0x00\n        /* \"#utility.yul\":411:453   */\n      0xffffffffffffffffffffffffffffffffffffffff\n        /* \"#utility.yul\":404:409   */\n      dup3\n        /* \"#utility.yul\":400:454   */\n      and\n        /* \"#utility.yul\":389:454   */\n      swap1\n      pop\n        /* \"#utility.yul\":334:460   */\n      swap2\n      swap1\n      pop\n      jump\t// out\n        /* \"#utility.yul\":466:562   */\n    tag_100:\n        /* \"#utility.yul\":503:510   */\n      0x00\n        /* \"#utility.yul\":532:556   */\n      tag_133\n        /* \"#utility.yul\":550:555   */\n      dup3\n        /* \"#utility.yul\":532:556   */\n      tag_99\n      jump\t// in\n    tag_133:\n        /* \"#utility.yul\":521:556   */\n      swap1\n      pop\n        /* \"#utility.yul\":466:562   */\n      swap2\n      swap1\n      pop\n      jump\t// out\n        /* \"#utility.yul\":568:690   */\n    tag_101:\n        /* \"#utility.yul\":641:665   */\n      tag_135\n        /* \"#utility.yul\":659:664   */\n      dup2\n        /* \"#utility.yul\":641:665   */\n      tag_100\n      jump\t// in\n    tag_135:\n        /* \"#utility.yul\":634:639   */\n      dup2\n        /* \"#utility.yul\":631:666   */\n      eq\n        /* \"#utility.yul\":621:684   */\n      tag_136\n      jumpi\n        /* \"#utility.yul\":680:681   */\n      0x00\n        /* \"#utility.yul\":677:678   */\n      dup1\n        /* \"#utility.yul\":670:682   */\n      revert\n        /* \"#utility.yul\":621:684   */\n    tag_136:\n        /* \"#utility.yul\":568:690   */\n      pop\n      jump\t// out\n        /* \"#utility.yul\":696:835   */\n    tag_102:\n        /* \"#utility.yul\":742:747   */\n      0x00\n        /* \"#utility.yul\":780:786   */\n      dup2\n        /* \"#utility.yul\":767:787   */\n      calldataload\n        /* \"#utility.yul\":758:787   */\n      swap1\n      pop\n        /* \"#utility.yul\":796:829   */\n      tag_138\n        /* \"#utility.yul\":823:828   */\n      dup2\n        /* \"#utility.yul\":796:829   */\n      tag_101\n      jump\t// in\n    tag_138:\n        /* \"#utility.yul\":696:835   */\n      swap3\n      swap2\n      pop\n      pop\n      jump\t// out\n        /* \"#utility.yul\":841:1315   */\n    tag_9:\n        /* \"#utility.yul\":909:915   */\n      0x00\n        /* \"#utility.yul\":917:923   */\n      dup1\n        /* \"#utility.yul\":966:968   */\n      0x40\n        /* \"#utility.yul\":954:963   */\n      dup4\n        /* \"#utility.yul\":945:952   */\n      dup6\n        /* \"#utility.yul\":941:964   */\n      sub\n        /* \"#utility.yul\":937:969   */\n      slt\n        /* \"#utility.yul\":934:1053   */\n      iszero\n      tag_140\n      jumpi\n        /* \"#utility.yul\":972:1051   */\n      tag_141\n      tag_97\n      jump\t// in\n    tag_141:\n        /* \"#utility.yul\":934:1053   */\n    tag_140:\n        /* \"#utility.yul\":1092:1093   */\n      0x00\n        /* \"#utility.yul\":1117:1170   */\n      tag_142\n        /* \"#utility.yul\":1162:1169   */\n      dup6\n        /* \"#utility.yul\":1153:1159   */\n      dup3\n        /* \"#utility.yul\":1142:1151   */\n      dup7\n        /* \"#utility.yul\":1138:1160   */\n      add\n        /* \"#utility.yul\":1117:1170   */\n      tag_102\n      jump\t// in\n    tag_142:\n        /* \"#utility.yul\":1107:1170   */\n      swap3\n      pop\n        /* \"#utility.yul\":1063:1180   */\n      pop\n        /* \"#utility.yul\":1219:1221   */\n      0x20\n        /* \"#utility.yul\":1245:1298   */\n      tag_143\n        /* \"#utility.yul\":1290:1297   */\n      dup6\n        /* \"#utility.yul\":1281:1287   */\n      dup3\n        /* \"#utility.yul\":1270:1279   */\n      dup7\n        /* \"#utility.yul\":1266:1288   */\n      add\n        /* \"#utility.yul\":1245:1298   */\n      tag_102\n      jump\t// in\n    tag_143:\n        /* \"#utility.yul\":1235:1298   */\n      swap2\n      pop\n        /* \"#utility.yul\":1190:1308   */\n      pop\n        /* \"#utility.yul\":841:1315   */\n      swap3\n      pop\n      swap3\n      swap1\n      pop\n      jump\t// out\n        /* \"#utility.yul\":1321:1398   */\n    tag_103:\n        /* \"#utility.yul\":1358:1365   */\n      0x00\n        /* \"#utility.yul\":1387:1392   */\n      dup2\n        /* \"#utility.yul\":1376:1392   */\n      swap1\n      pop\n        /* \"#utility.yul\":1321:1398   */\n      swap2\n      swap1\n      pop\n      jump\t// out\n        /* \"#utility.yul\":1404:1522   */\n    tag_104:\n        /* \"#utility.yul\":1491:1515   */\n      tag_146\n        /* \"#utility.yul\":1509:1514   */\n      dup2\n        /* \"#utility.yul\":1491:1515   */\n      tag_103\n      jump\t// in\n    tag_146:\n        /* \"#utility.yul\":1486:1489   */\n      dup3\n        /* \"#utility.yul\":1479:1516   */\n      mstore\n        /* \"#utility.yul\":1404:1522   */\n      pop\n      pop\n      jump\t// out\n        /* \"#utility.yul\":1528:1750   */\n    tag_12:\n        /* \"#utility.yul\":1621:1625   */\n      0x00\n        /* \"#utility.yul\":1659:1661   */\n      0x20\n        /* \"#utility.yul\":1648:1657   */\n      dup3\n        /* \"#utility.yul\":1644:1662   */\n      add\n        /* \"#utility.yul\":1636:1662   */\n      swap1\n      pop\n        /* \"#utility.yul\":1672:1743   */\n      tag_148\n        /* \"#utility.yul\":1740:1741   */\n      0x00\n        /* \"#utility.yul\":1729:1738   */\n      dup4\n        /* \"#utility.yul\":1725:1742   */\n      add\n        /* \"#utility.yul\":1716:1722   */\n      dup5\n        /* \"#utility.yul\":1672:1743   */\n      tag_104\n      jump\t// in\n    tag_148:\n        /* \"#utility.yul\":1528:1750   */\n      swap3\n      swap2\n      pop\n      pop\n      jump\t// out\n        /* \"#utility.yul\":1756:2198   */\n    tag_17:\n        /* \"#utility.yul\":1905:1909   */\n      0x00\n        /* \"#utility.yul\":1943:1945   */\n      0x60\n        /* \"#utility.yul\":1932:1941   */\n      dup3\n        /* \"#utility.yul\":1928:1946   */\n      add\n        /* \"#utility.yul\":1920:1946   */\n      swap1\n      pop\n        /* \"#utility.yul\":1956:2027   */\n      tag_150\n        /* \"#utility.yul\":2024:2025   */\n      0x00\n        /* \"#utility.yul\":2013:2022   */\n      dup4\n        /* \"#utility.yul\":2009:2026   */\n      add\n        /* \"#utility.yul\":2000:2006   */\n      dup7\n        /* \"#utility.yul\":1956:2027   */\n      tag_104\n      jump\t// in\n    tag_150:\n        /* \"#utility.yul\":2037:2109   */\n      tag_151\n        /* \"#utility.yul\":2105:2107   */\n      0x20\n        /* \"#utility.yul\":2094:2103   */\n      dup4\n        /* \"#utility.yul\":2090:2108   */\n      add\n        /* \"#utility.yul\":2081:2087   */\n      dup6\n        /* \"#utility.yul\":2037:2109   */\n      tag_104\n      jump\t// in\n    tag_151:\n        /* \"#utility.yul\":2119:2191   */\n      tag_152\n        /* \"#utility.yul\":2187:2189   */\n      0x40\n        /* \"#utility.yul\":2176:2185   */\n      dup4\n        /* \"#utility.yul\":2172:2190   */\n      add\n        /* \"#utility.yul\":2163:2169   */\n      dup5\n        /* \"#utility.yul\":2119:2191   */\n      tag_104\n      jump\t// in\n    tag_152:\n        /* \"#utility.yul\":1756:2198   */\n      swap5\n      swap4\n      pop\n      pop\n      pop\n      pop\n      jump\t// out\n        /* \"#utility.yul\":2204:2326   */\n    tag_105:\n        /* \"#utility.yul\":2277:2301   */\n      tag_154\n        /* \"#utility.yul\":2295:2300   */\n      dup2\n        /* \"#utility.yul\":2277:2301   */\n      tag_103\n      jump\t// in\n    tag_154:\n        /* \"#utility.yul\":2270:2275   */\n      dup2\n        /* \"#utility.yul\":2267:2302   */\n      eq\n        /* \"#utility.yul\":2257:2320   */\n      tag_155\n      jumpi\n        /* \"#utility.yul\":2316:2317   */\n      0x00\n        /* \"#utility.yul\":2313:2314   */\n      dup1\n        /* \"#utility.yul\":2306:2318   */\n      revert\n        /* \"#utility.yul\":2257:2320   */\n    tag_155:\n        /* \"#utility.yul\":2204:2326   */\n      pop\n      jump\t// out\n        /* \"#utility.yul\":2332:2471   */\n    tag_106:\n        /* \"#utility.yul\":2378:2383   */\n      0x00\n        /* \"#utility.yul\":2416:2422   */\n      dup2\n        /* \"#utility.yul\":2403:2423   */\n      calldataload\n        /* \"#utility.yul\":2394:2423   */\n      swap1\n      pop\n        /* \"#utility.yul\":2432:2465   */\n      tag_157\n        /* \"#utility.yul\":2459:2464   */\n      dup2\n        /* \"#utility.yul\":2432:2465   */\n      tag_105\n      jump\t// in\n    tag_157:\n        /* \"#utility.yul\":2332:2471   */\n      swap3\n      swap2\n      pop\n      pop\n      jump\t// out\n        /* \"#utility.yul\":2477:3242   */\n    tag_20:\n        /* \"#utility.yul\":2563:2569   */\n      0x00\n        /* \"#utility.yul\":2571:2577   */\n      dup1\n        /* \"#utility.yul\":2579:2585   */\n      0x00\n        /* \"#utility.yul\":2587:2593   */\n      dup1\n        /* \"#utility.yul\":2636:2639   */\n      0x80\n        /* \"#utility.yul\":2624:2633   */\n      dup6\n        /* \"#utility.yul\":2615:2622   */\n      dup8\n        /* \"#utility.yul\":2611:2634   */\n      sub\n        /* \"#utility.yul\":2607:2640   */\n      slt\n        /* \"#utility.yul\":2604:2724   */\n      iszero\n      tag_159\n      jumpi\n        /* \"#utility.yul\":2643:2722   */\n      tag_160\n      tag_97\n      jump\t// in\n    tag_160:\n        /* \"#utility.yul\":2604:2724   */\n    tag_159:\n        /* \"#utility.yul\":2763:2764   */\n      0x00\n        /* \"#utility.yul\":2788:2841   */\n      tag_161\n        /* \"#utility.yul\":2833:2840   */\n      dup8\n        /* \"#utility.yul\":2824:2830   */\n      dup3\n        /* \"#utility.yul\":2813:2822   */\n      dup9\n        /* \"#utility.yul\":2809:2831   */\n      add\n        /* \"#utility.yul\":2788:2841   */\n      tag_102\n      jump\t// in\n    tag_161:\n        /* \"#utility.yul\":2778:2841   */\n      swap5\n      pop\n        /* \"#utility.yul\":2734:2851   */\n      pop\n        /* \"#utility.yul\":2890:2892   */\n      0x20\n        /* \"#utility.yul\":2916:2969   */\n      tag_162\n        /* \"#utility.yul\":2961:2968   */\n      dup8\n        /* \"#utility.yul\":2952:2958   */\n      dup3\n        /* \"#utility.yul\":2941:2950   */\n      dup9\n        /* \"#utility.yul\":2937:2959   */\n      add\n        /* \"#utility.yul\":2916:2969   */\n      tag_102\n      jump\t// in\n    tag_162:\n        /* \"#utility.yul\":2906:2969   */\n      swap4\n      pop\n        /* \"#utility.yul\":2861:2979   */\n      pop\n        /* \"#utility.yul\":3018:3020   */\n      0x40\n        /* \"#utility.yul\":3044:3097   */\n      tag_163\n        /* \"#utility.yul\":3089:3096   */\n      dup8\n        /* \"#utility.yul\":3080:3086   */\n      dup3\n        /* \"#utility.yul\":3069:3078   */\n      dup9\n        /* \"#utility.yul\":3065:3087   */\n      add\n        /* \"#utility.yul\":3044:3097   */\n      tag_106\n      jump\t// in\n    tag_163:\n        /* \"#utility.yul\":3034:3097   */\n      swap3\n      pop\n        /* \"#utility.yul\":2989:3107   */\n      pop\n        /* \"#utility.yul\":3146:3148   */\n      0x60\n        /* \"#utility.yul\":3172:3225   */\n      tag_164\n        /* \"#utility.yul\":3217:3224   */\n      dup8\n        /* \"#utility.yul\":3208:3214   */\n      dup3\n        /* \"#utility.yul\":3197:3206   */\n      dup9\n        /* \"#utility.yul\":3193:3215   */\n      add\n        /* \"#utility.yul\":3172:3225   */\n      tag_106\n      jump\t// in\n    tag_164:\n        /* \"#utility.yul\":3162:3225   */\n      swap2\n      pop\n        /* \"#utility.yul\":3117:3235   */\n      pop\n        /* \"#utility.yul\":2477:3242   */\n      swap3\n      swap6\n      swap2\n      swap5\n      pop\n      swap3\n      pop\n      jump\t// out\n        /* \"#utility.yul\":3248:3577   */\n    tag_24:\n        /* \"#utility.yul\":3307:3313   */\n      0x00\n        /* \"#utility.yul\":3356:3358   */\n      0x20\n        /* \"#utility.yul\":3344:3353   */\n      dup3\n        /* \"#utility.yul\":3335:3342   */\n      dup5\n        /* \"#utility.yul\":3331:3354   */\n      sub\n        /* \"#utility.yul\":3327:3359   */\n      slt\n        /* \"#utility.yul\":3324:3443   */\n      iszero\n      tag_166\n      jumpi\n        /* \"#utility.yul\":3362:3441   */\n      tag_167\n      tag_97\n      jump\t// in\n    tag_167:\n        /* \"#utility.yul\":3324:3443   */\n    tag_166:\n        /* \"#utility.yul\":3482:3483   */\n      0x00\n        /* \"#utility.yul\":3507:3560   */\n      tag_168\n        /* \"#utility.yul\":3552:3559   */\n      dup5\n        /* \"#utility.yul\":3543:3549   */\n      dup3\n        /* \"#utility.yul\":3532:3541   */\n      dup6\n        /* \"#utility.yul\":3528:3550   */\n      add\n        /* \"#utility.yul\":3507:3560   */\n      tag_102\n      jump\t// in\n    tag_168:\n        /* \"#utility.yul\":3497:3560   */\n      swap2\n      pop\n        /* \"#utility.yul\":3453:3570   */\n      pop\n        /* \"#utility.yul\":3248:3577   */\n      swap3\n      swap2\n      pop\n      pop\n      jump\t// out\n        /* \"#utility.yul\":3583:3701   */\n    tag_107:\n        /* \"#utility.yul\":3670:3694   */\n      tag_170\n        /* \"#utility.yul\":3688:3693   */\n      dup2\n        /* \"#utility.yul\":3670:3694   */\n      tag_100\n      jump\t// in\n    tag_170:\n        /* \"#utility.yul\":3665:3668   */\n      dup3\n        /* \"#utility.yul\":3658:3695   */\n      mstore\n        /* \"#utility.yul\":3583:3701   */\n      pop\n      pop\n      jump\t// out\n        /* \"#utility.yul\":3707:4039   */\n    tag_30:\n        /* \"#utility.yul\":3828:3832   */\n      0x00\n        /* \"#utility.yul\":3866:3868   */\n      0x40\n        /* \"#utility.yul\":3855:3864   */\n      dup3\n        /* \"#utility.yul\":3851:3869   */\n      add\n        /* \"#utility.yul\":3843:3869   */\n      swap1\n      pop\n        /* \"#utility.yul\":3879:3950   */\n      tag_172\n        /* \"#utility.yul\":3947:3948   */\n      0x00\n        /* \"#utility.yul\":3936:3945   */\n      dup4\n        /* \"#utility.yul\":3932:3949   */\n      add\n        /* \"#utility.yul\":3923:3929   */\n      dup6\n        /* \"#utility.yul\":3879:3950   */\n      tag_107\n      jump\t// in\n    tag_172:\n        /* \"#utility.yul\":3960:4032   */\n      tag_173\n        /* \"#utility.yul\":4028:4030   */\n      0x20\n        /* \"#utility.yul\":4017:4026   */\n      dup4\n        /* \"#utility.yul\":4013:4031   */\n      add\n        /* \"#utility.yul\":4004:4010   */\n      dup5\n        /* \"#utility.yul\":3960:4032   */\n      tag_107\n      jump\t// in\n    tag_173:\n        /* \"#utility.yul\":3707:4039   */\n      swap4\n      swap3\n      pop\n      pop\n      pop\n      jump\t// out\n        /* \"#utility.yul\":4045:4267   */\n    tag_32:\n        /* \"#utility.yul\":4138:4142   */\n      0x00\n        /* \"#utility.yul\":4176:4178   */\n      0x20\n        /* \"#utility.yul\":4165:4174   */\n      dup3\n        /* \"#utility.yul\":4161:4179   */\n      add\n        /* \"#utility.yul\":4153:4179   */\n      swap1\n      pop\n        /* \"#utility.yul\":4189:4260   */\n      tag_175\n        /* \"#utility.yul\":4257:4258   */\n      0x00\n        /* \"#utility.yul\":4246:4255   */\n      dup4\n        /* \"#utility.yul\":4242:4259   */\n      add\n        /* \"#utility.yul\":4233:4239   */\n      dup5\n        /* \"#utility.yul\":4189:4260   */\n      tag_107\n      jump\t// in\n    tag_175:\n        /* \"#utility.yul\":4045:4267   */\n      swap3\n      swap2\n      pop\n      pop\n      jump\t// out\n        /* \"#utility.yul\":4273:4416   */\n    tag_108:\n        /* \"#utility.yul\":4330:4335   */\n      0x00\n        /* \"#utility.yul\":4361:4367   */\n      dup2\n        /* \"#utility.yul\":4355:4368   */\n      mload\n        /* \"#utility.yul\":4346:4368   */\n      swap1\n      pop\n        /* \"#utility.yul\":4377:4410   */\n      tag_177\n        /* \"#utility.yul\":4404:4409   */\n      dup2\n        /* \"#utility.yul\":4377:4410   */\n      tag_105\n      jump\t// in\n    tag_177:\n        /* \"#utility.yul\":4273:4416   */\n      swap3\n      swap2\n      pop\n      pop\n      jump\t// out\n        /* \"#utility.yul\":4422:4773   */\n    tag_36:\n        /* \"#utility.yul\":4492:4498   */\n      0x00\n        /* \"#utility.yul\":4541:4543   */\n      0x20\n        /* \"#utility.yul\":4529:4538   */\n      dup3\n        /* \"#utility.yul\":4520:4527   */\n      dup5\n        /* \"#utility.yul\":4516:4539   */\n      sub\n        /* \"#utility.yul\":4512:4544   */\n      slt\n        /* \"#utility.yul\":4509:4628   */\n      iszero\n      tag_179\n      jumpi\n        /* \"#utility.yul\":4547:4626   */\n      tag_180\n      tag_97\n      jump\t// in\n    tag_180:\n        /* \"#utility.yul\":4509:4628   */\n    tag_179:\n        /* \"#utility.yul\":4667:4668   */\n      0x00\n        /* \"#utility.yul\":4692:4756   */\n      tag_181\n        /* \"#utility.yul\":4748:4755   */\n      dup5\n        /* \"#utility.yul\":4739:4745   */\n      dup3\n        /* \"#utility.yul\":4728:4737   */\n      dup6\n        /* \"#utility.yul\":4724:4746   */\n      add\n        /* \"#utility.yul\":4692:4756   */\n      tag_108\n      jump\t// in\n    tag_181:\n        /* \"#utility.yul\":4682:4756   */\n      swap2\n      pop\n        /* \"#utility.yul\":4638:4766   */\n      pop\n        /* \"#utility.yul\":4422:4773   */\n      swap3\n      swap2\n      pop\n      pop\n      jump\t// out\n        /* \"#utility.yul\":4779:4959   */\n    tag_109:\n        /* \"#utility.yul\":4827:4904   */\n      0x4e487b7100000000000000000000000000000000000000000000000000000000\n        /* \"#utility.yul\":4824:4825   */\n      0x00\n        /* \"#utility.yul\":4817:4905   */\n      mstore\n        /* \"#utility.yul\":4924:4928   */\n      0x11\n        /* \"#utility.yul\":4921:4922   */\n      0x04\n        /* \"#utility.yul\":4914:4929   */\n      mstore\n        /* \"#utility.yul\":4948:4952   */\n      0x24\n        /* \"#utility.yul\":4945:4946   */\n      0x00\n        /* \"#utility.yul\":4938:4953   */\n      revert\n        /* \"#utility.yul\":4965:5156   */\n    tag_38:\n        /* \"#utility.yul\":5005:5008   */\n      0x00\n        /* \"#utility.yul\":5024:5044   */\n      tag_184\n        /* \"#utility.yul\":5042:5043   */\n      dup3\n        /* \"#utility.yul\":5024:5044   */\n      tag_103\n      jump\t// in\n    tag_184:\n        /* \"#utility.yul\":5019:5044   */\n      swap2\n      pop\n        /* \"#utility.yul\":5058:5078   */\n      tag_185\n        /* \"#utility.yul\":5076:5077   */\n      dup4\n        /* \"#utility.yul\":5058:5078   */\n      tag_103\n      jump\t// in\n    tag_185:\n        /* \"#utility.yul\":5053:5078   */\n      swap3\n      pop\n        /* \"#utility.yul\":5101:5102   */\n      dup3\n        /* \"#utility.yul\":5098:5099   */\n      dup3\n        /* \"#utility.yul\":5094:5103   */\n      add\n        /* \"#utility.yul\":5087:5103   */\n      swap1\n      pop\n        /* \"#utility.yul\":5122:5125   */\n      dup1\n        /* \"#utility.yul\":5119:5120   */\n      dup3\n        /* \"#utility.yul\":5116:5126   */\n      gt\n        /* \"#utility.yul\":5113:5149   */\n      iszero\n      tag_186\n      jumpi\n        /* \"#utility.yul\":5129:5147   */\n      tag_187\n      tag_109\n      jump\t// in\n    tag_187:\n        /* \"#utility.yul\":5113:5149   */\n    tag_186:\n        /* \"#utility.yul\":4965:5156   */\n      swap3\n      swap2\n      pop\n      pop\n      jump\t// out\n        /* \"#utility.yul\":5162:5356   */\n    tag_40:\n        /* \"#utility.yul\":5202:5206   */\n      0x00\n        /* \"#utility.yul\":5222:5242   */\n      tag_189\n        /* \"#utility.yul\":5240:5241   */\n      dup3\n        /* \"#utility.yul\":5222:5242   */\n      tag_103\n      jump\t// in\n    tag_189:\n        /* \"#utility.yul\":5217:5242   */\n      swap2\n      pop\n        /* \"#utility.yul\":5256:5276   */\n      tag_190\n        /* \"#utility.yul\":5274:5275   */\n      dup4\n        /* \"#utility.yul\":5256:5276   */\n      tag_103\n      jump\t// in\n    tag_190:\n        /* \"#utility.yul\":5251:5276   */\n      swap3\n      pop\n        /* \"#utility.yul\":5300:5301   */\n      dup3\n        /* \"#utility.yul\":5297:5298   */\n      dup3\n        /* \"#utility.yul\":5293:5302   */\n      sub\n        /* \"#utility.yul\":5285:5302   */\n      swap1\n      pop\n        /* \"#utility.yul\":5324:5325   */\n      dup2\n        /* \"#utility.yul\":5318:5322   */\n      dup2\n        /* \"#utility.yul\":5315:5326   */\n      gt\n        /* \"#utility.yul\":5312:5349   */\n      iszero\n      tag_191\n      jumpi\n        /* \"#utility.yul\":5329:5347   */\n      tag_192\n      tag_109\n      jump\t// in\n    tag_192:\n        /* \"#utility.yul\":5312:5349   */\n    tag_191:\n        /* \"#utility.yul\":5162:5356   */\n      swap3\n      swap2\n      pop\n      pop\n      jump\t// out\n        /* \"#utility.yul\":5362:5772   */\n    tag_46:\n        /* \"#utility.yul\":5402:5409   */\n      0x00\n        /* \"#utility.yul\":5425:5445   */\n      tag_194\n        /* \"#utility.yul\":5443:5444   */\n      dup3\n        /* \"#utility.yul\":5425:5445   */\n      tag_103\n      jump\t// in\n    tag_194:\n        /* \"#utility.yul\":5420:5445   */\n      swap2\n      pop\n        /* \"#utility.yul\":5459:5479   */\n      tag_195\n        /* \"#utility.yul\":5477:5478   */\n      dup4\n        /* \"#utility.yul\":5459:5479   */\n      tag_103\n      jump\t// in\n    tag_195:\n        /* \"#utility.yul\":5454:5479   */\n      swap3\n      pop\n        /* \"#utility.yul\":5514:5515   */\n      dup3\n        /* \"#utility.yul\":5511:5512   */\n      dup3\n        /* \"#utility.yul\":5507:5516   */\n      mul\n        /* \"#utility.yul\":5536:5566   */\n      tag_196\n        /* \"#utility.yul\":5554:5565   */\n      dup2\n        /* \"#utility.yul\":5536:5566   */\n      tag_103\n      jump\t// in\n    tag_196:\n        /* \"#utility.yul\":5525:5566   */\n      swap2\n      pop\n        /* \"#utility.yul\":5715:5716   */\n      dup3\n        /* \"#utility.yul\":5706:5713   */\n      dup3\n        /* \"#utility.yul\":5702:5717   */\n      div\n        /* \"#utility.yul\":5699:5700   */\n      dup5\n        /* \"#utility.yul\":5696:5718   */\n      eq\n        /* \"#utility.yul\":5676:5677   */\n      dup4\n        /* \"#utility.yul\":5669:5678   */\n      iszero\n        /* \"#utility.yul\":5649:5732   */\n      or\n        /* \"#utility.yul\":5626:5765   */\n      tag_197\n      jumpi\n        /* \"#utility.yul\":5745:5763   */\n      tag_198\n      tag_109\n      jump\t// in\n    tag_198:\n        /* \"#utility.yul\":5626:5765   */\n    tag_197:\n        /* \"#utility.yul\":5410:5772   */\n      pop\n        /* \"#utility.yul\":5362:5772   */\n      swap3\n      swap2\n      pop\n      pop\n      jump\t// out\n        /* \"#utility.yul\":5778:5958   */\n    tag_110:\n        /* \"#utility.yul\":5826:5903   */\n      0x4e487b7100000000000000000000000000000000000000000000000000000000\n        /* \"#utility.yul\":5823:5824   */\n      0x00\n        /* \"#utility.yul\":5816:5904   */\n      mstore\n        /* \"#utility.yul\":5923:5927   */\n      0x12\n        /* \"#utility.yul\":5920:5921   */\n      0x04\n        /* \"#utility.yul\":5913:5928   */\n      mstore\n        /* \"#utility.yul\":5947:5951   */\n      0x24\n        /* \"#utility.yul\":5944:5945   */\n      0x00\n        /* \"#utility.yul\":5937:5952   */\n      revert\n        /* \"#utility.yul\":5964:6149   */\n    tag_48:\n        /* \"#utility.yul\":6004:6005   */\n      0x00\n        /* \"#utility.yul\":6021:6041   */\n      tag_201\n        /* \"#utility.yul\":6039:6040   */\n      dup3\n        /* \"#utility.yul\":6021:6041   */\n      tag_103\n      jump\t// in\n    tag_201:\n        /* \"#utility.yul\":6016:6041   */\n      swap2\n      pop\n        /* \"#utility.yul\":6055:6075   */\n      tag_202\n        /* \"#utility.yul\":6073:6074   */\n      dup4\n        /* \"#utility.yul\":6055:6075   */\n      tag_103\n      jump\t// in\n    tag_202:\n        /* \"#utility.yul\":6050:6075   */\n      swap3\n      pop\n        /* \"#utility.yul\":6094:6095   */\n      dup3\n        /* \"#utility.yul\":6084:6119   */\n      tag_203\n      jumpi\n        /* \"#utility.yul\":6099:6117   */\n      tag_204\n      tag_110\n      jump\t// in\n    tag_204:\n        /* \"#utility.yul\":6084:6119   */\n    tag_203:\n        /* \"#utility.yul\":6141:6142   */\n      dup3\n        /* \"#utility.yul\":6138:6139   */\n      dup3\n        /* \"#utility.yul\":6134:6143   */\n      div\n        /* \"#utility.yul\":6129:6143   */\n      swap1\n      pop\n        /* \"#utility.yul\":5964:6149   */\n      swap3\n      swap2\n      pop\n      pop\n      jump\t// out\n        /* \"#utility.yul\":6155:6324   */\n    tag_111:\n        /* \"#utility.yul\":6239:6250   */\n      0x00\n        /* \"#utility.yul\":6273:6279   */\n      dup3\n        /* \"#utility.yul\":6268:6271   */\n      dup3\n        /* \"#utility.yul\":6261:6280   */\n      mstore\n        /* \"#utility.yul\":6313:6317   */\n      0x20\n        /* \"#utility.yul\":6308:6311   */\n      dup3\n        /* \"#utility.yul\":6304:6318   */\n      add\n        /* \"#utility.yul\":6289:6318   */\n      swap1\n      pop\n        /* \"#utility.yul\":6155:6324   */\n      swap3\n      swap2\n      pop\n      pop\n      jump\t// out\n        /* \"#utility.yul\":6330:6501   */\n    tag_112:\n        /* \"#utility.yul\":6470:6493   */\n      0x6572633230206164647265737320696e76616c69640000000000000000000000\n        /* \"#utility.yul\":6466:6467   */\n      0x00\n        /* \"#utility.yul\":6458:6464   */\n      dup3\n        /* \"#utility.yul\":6454:6468   */\n      add\n        /* \"#utility.yul\":6447:6494   */\n      mstore\n        /* \"#utility.yul\":6330:6501   */\n      pop\n      jump\t// out\n        /* \"#utility.yul\":6507:6873   */\n    tag_113:\n        /* \"#utility.yul\":6649:6652   */\n      0x00\n        /* \"#utility.yul\":6670:6737   */\n      tag_208\n        /* \"#utility.yul\":6734:6736   */\n      0x15\n        /* \"#utility.yul\":6729:6732   */\n      dup4\n        /* \"#utility.yul\":6670:6737   */\n      tag_111\n      jump\t// in\n    tag_208:\n        /* \"#utility.yul\":6663:6737   */\n      swap2\n      pop\n        /* \"#utility.yul\":6746:6839   */\n      tag_209\n        /* \"#utility.yul\":6835:6838   */\n      dup3\n        /* \"#utility.yul\":6746:6839   */\n      tag_112\n      jump\t// in\n    tag_209:\n        /* \"#utility.yul\":6864:6866   */\n      0x20\n        /* \"#utility.yul\":6859:6862   */\n      dup3\n        /* \"#utility.yul\":6855:6867   */\n      add\n        /* \"#utility.yul\":6848:6867   */\n      swap1\n      pop\n        /* \"#utility.yul\":6507:6873   */\n      swap2\n      swap1\n      pop\n      jump\t// out\n        /* \"#utility.yul\":6879:7298   */\n    tag_55:\n        /* \"#utility.yul\":7045:7049   */\n      0x00\n        /* \"#utility.yul\":7083:7085   */\n      0x20\n        /* \"#utility.yul\":7072:7081   */\n      dup3\n        /* \"#utility.yul\":7068:7086   */\n      add\n        /* \"#utility.yul\":7060:7086   */\n      swap1\n      pop\n        /* \"#utility.yul\":7132:7141   */\n      dup2\n        /* \"#utility.yul\":7126:7130   */\n      dup2\n        /* \"#utility.yul\":7122:7142   */\n      sub\n        /* \"#utility.yul\":7118:7119   */\n      0x00\n        /* \"#utility.yul\":7107:7116   */\n      dup4\n        /* \"#utility.yul\":7103:7120   */\n      add\n        /* \"#utility.yul\":7096:7143   */\n      mstore\n        /* \"#utility.yul\":7160:7291   */\n      tag_211\n        /* \"#utility.yul\":7286:7290   */\n      dup2\n        /* \"#utility.yul\":7160:7291   */\n      tag_113\n      jump\t// in\n    tag_211:\n        /* \"#utility.yul\":7152:7291   */\n      swap1\n      pop\n        /* \"#utility.yul\":6879:7298   */\n      swap2\n      swap1\n      pop\n      jump\t// out\n        /* \"#utility.yul\":7304:7473   */\n    tag_114:\n        /* \"#utility.yul\":7444:7465   */\n      0x62656e656669636961727920696e76616c696400000000000000000000000000\n        /* \"#utility.yul\":7440:7441   */\n      0x00\n        /* \"#utility.yul\":7432:7438   */\n      dup3\n        /* \"#utility.yul\":7428:7442   */\n      add\n        /* \"#utility.yul\":7421:7466   */\n      mstore\n        /* \"#utility.yul\":7304:7473   */\n      pop\n      jump\t// out\n        /* \"#utility.yul\":7479:7845   */\n    tag_115:\n        /* \"#utility.yul\":7621:7624   */\n      0x00\n        /* \"#utility.yul\":7642:7709   */\n      tag_214\n        /* \"#utility.yul\":7706:7708   */\n      0x13\n        /* \"#utility.yul\":7701:7704   */\n      dup4\n        /* \"#utility.yul\":7642:7709   */\n      tag_111\n      jump\t// in\n    tag_214:\n        /* \"#utility.yul\":7635:7709   */\n      swap2\n      pop\n        /* \"#utility.yul\":7718:7811   */\n      tag_215\n        /* \"#utility.yul\":7807:7810   */\n      dup3\n        /* \"#utility.yul\":7718:7811   */\n      tag_114\n      jump\t// in\n    tag_215:\n        /* \"#utility.yul\":7836:7838   */\n      0x20\n        /* \"#utility.yul\":7831:7834   */\n      dup3\n        /* \"#utility.yul\":7827:7839   */\n      add\n        /* \"#utility.yul\":7820:7839   */\n      swap1\n      pop\n        /* \"#utility.yul\":7479:7845   */\n      swap2\n      swap1\n      pop\n      jump\t// out\n        /* \"#utility.yul\":7851:8270   */\n    tag_58:\n        /* \"#utility.yul\":8017:8021   */\n      0x00\n        /* \"#utility.yul\":8055:8057   */\n      0x20\n        /* \"#utility.yul\":8044:8053   */\n      dup3\n        /* \"#utility.yul\":8040:8058   */\n      add\n        /* \"#utility.yul\":8032:8058   */\n      swap1\n      pop\n        /* \"#utility.yul\":8104:8113   */\n      dup2\n        /* \"#utility.yul\":8098:8102   */\n      dup2\n        /* \"#utility.yul\":8094:8114   */\n      sub\n        /* \"#utility.yul\":8090:8091   */\n      0x00\n        /* \"#utility.yul\":8079:8088   */\n      dup4\n        /* \"#utility.yul\":8075:8092   */\n      add\n        /* \"#utility.yul\":8068:8115   */\n      mstore\n        /* \"#utility.yul\":8132:8263   */\n      tag_217\n        /* \"#utility.yul\":8258:8262   */\n      dup2\n        /* \"#utility.yul\":8132:8263   */\n      tag_115\n      jump\t// in\n    tag_217:\n        /* \"#utility.yul\":8124:8263   */\n      swap1\n      pop\n        /* \"#utility.yul\":7851:8270   */\n      swap2\n      swap1\n      pop\n      jump\t// out\n        /* \"#utility.yul\":8276:8437   */\n    tag_116:\n        /* \"#utility.yul\":8416:8429   */\n      0x616d6f756e74207a65726f000000000000000000000000000000000000000000\n        /* \"#utility.yul\":8412:8413   */\n      0x00\n        /* \"#utility.yul\":8404:8410   */\n      dup3\n        /* \"#utility.yul\":8400:8414   */\n      add\n        /* \"#utility.yul\":8393:8430   */\n      mstore\n        /* \"#utility.yul\":8276:8437   */\n      pop\n      jump\t// out\n        /* \"#utility.yul\":8443:8809   */\n    tag_117:\n        /* \"#utility.yul\":8585:8588   */\n      0x00\n        /* \"#utility.yul\":8606:8673   */\n      tag_220\n        /* \"#utility.yul\":8670:8672   */\n      0x0b\n        /* \"#utility.yul\":8665:8668   */\n      dup4\n        /* \"#utility.yul\":8606:8673   */\n      tag_111\n      jump\t// in\n    tag_220:\n        /* \"#utility.yul\":8599:8673   */\n      swap2\n      pop\n        /* \"#utility.yul\":8682:8775   */\n      tag_221\n        /* \"#utility.yul\":8771:8774   */\n      dup3\n        /* \"#utility.yul\":8682:8775   */\n      tag_116\n      jump\t// in\n    tag_221:\n        /* \"#utility.yul\":8800:8802   */\n      0x20\n        /* \"#utility.yul\":8795:8798   */\n      dup3\n        /* \"#utility.yul\":8791:8803   */\n      add\n        /* \"#utility.yul\":8784:8803   */\n      swap1\n      pop\n        /* \"#utility.yul\":8443:8809   */\n      swap2\n      swap1\n      pop\n      jump\t// out\n        /* \"#utility.yul\":8815:9234   */\n    tag_61:\n        /* \"#utility.yul\":8981:8985   */\n      0x00\n        /* \"#utility.yul\":9019:9021   */\n      0x20\n        /* \"#utility.yul\":9008:9017   */\n      dup3\n        /* \"#utility.yul\":9004:9022   */\n      add\n        /* \"#utility.yul\":8996:9022   */\n      swap1\n      pop\n        /* \"#utility.yul\":9068:9077   */\n      dup2\n        /* \"#utility.yul\":9062:9066   */\n      dup2\n        /* \"#utility.yul\":9058:9078   */\n      sub\n        /* \"#utility.yul\":9054:9055   */\n      0x00\n        /* \"#utility.yul\":9043:9052   */\n      dup4\n        /* \"#utility.yul\":9039:9056   */\n      add\n        /* \"#utility.yul\":9032:9079   */\n      mstore\n        /* \"#utility.yul\":9096:9227   */\n      tag_223\n        /* \"#utility.yul\":9222:9226   */\n      dup2\n        /* \"#utility.yul\":9096:9227   */\n      tag_117\n      jump\t// in\n    tag_223:\n        /* \"#utility.yul\":9088:9227   */\n      swap1\n      pop\n        /* \"#utility.yul\":8815:9234   */\n      swap2\n      swap1\n      pop\n      jump\t// out\n        /* \"#utility.yul\":9240:9403   */\n    tag_118:\n        /* \"#utility.yul\":9380:9395   */\n      0x6475726174696f6e207a65726f00000000000000000000000000000000000000\n        /* \"#utility.yul\":9376:9377   */\n      0x00\n        /* \"#utility.yul\":9368:9374   */\n      dup3\n        /* \"#utility.yul\":9364:9378   */\n      add\n        /* \"#utility.yul\":9357:9396   */\n      mstore\n        /* \"#utility.yul\":9240:9403   */\n      pop\n      jump\t// out\n        /* \"#utility.yul\":9409:9775   */\n    tag_119:\n        /* \"#utility.yul\":9551:9554   */\n      0x00\n        /* \"#utility.yul\":9572:9639   */\n      tag_226\n        /* \"#utility.yul\":9636:9638   */\n      0x0d\n        /* \"#utility.yul\":9631:9634   */\n      dup4\n        /* \"#utility.yul\":9572:9639   */\n      tag_111\n      jump\t// in\n    tag_226:\n        /* \"#utility.yul\":9565:9639   */\n      swap2\n      pop\n        /* \"#utility.yul\":9648:9741   */\n      tag_227\n        /* \"#utility.yul\":9737:9740   */\n      dup3\n        /* \"#utility.yul\":9648:9741   */\n      tag_118\n      jump\t// in\n    tag_227:\n        /* \"#utility.yul\":9766:9768   */\n      0x20\n        /* \"#utility.yul\":9761:9764   */\n      dup3\n        /* \"#utility.yul\":9757:9769   */\n      add\n        /* \"#utility.yul\":9750:9769   */\n      swap1\n      pop\n        /* \"#utility.yul\":9409:9775   */\n      swap2\n      swap1\n      pop\n      jump\t// out\n        /* \"#utility.yul\":9781:10200   */\n    tag_64:\n        /* \"#utility.yul\":9947:9951   */\n      0x00\n        /* \"#utility.yul\":9985:9987   */\n      0x20\n        /* \"#utility.yul\":9974:9983   */\n      dup3\n        /* \"#utility.yul\":9970:9988   */\n      add\n        /* \"#utility.yul\":9962:9988   */\n      swap1\n      pop\n        /* \"#utility.yul\":10034:10043   */\n      dup2\n        /* \"#utility.yul\":10028:10032   */\n      dup2\n        /* \"#utility.yul\":10024:10044   */\n      sub\n        /* \"#utility.yul\":10020:10021   */\n      0x00\n        /* \"#utility.yul\":10009:10018   */\n      dup4\n        /* \"#utility.yul\":10005:10022   */\n      add\n        /* \"#utility.yul\":9998:10045   */\n      mstore\n        /* \"#utility.yul\":10062:10193   */\n      tag_229\n        /* \"#utility.yul\":10188:10192   */\n      dup2\n        /* \"#utility.yul\":10062:10193   */\n      tag_119\n      jump\t// in\n    tag_229:\n        /* \"#utility.yul\":10054:10193   */\n      swap1\n      pop\n        /* \"#utility.yul\":9781:10200   */\n      swap2\n      swap1\n      pop\n      jump\t// out\n        /* \"#utility.yul\":10206:10374   */\n    tag_120:\n        /* \"#utility.yul\":10346:10366   */\n      0x62656e6566696369617279206578697374730000000000000000000000000000\n        /* \"#utility.yul\":10342:10343   */\n      0x00\n        /* \"#utility.yul\":10334:10340   */\n      dup3\n        /* \"#utility.yul\":10330:10344   */\n      add\n        /* \"#utility.yul\":10323:10367   */\n      mstore\n        /* \"#utility.yul\":10206:10374   */\n      pop\n      jump\t// out\n        /* \"#utility.yul\":10380:10746   */\n    tag_121:\n        /* \"#utility.yul\":10522:10525   */\n      0x00\n        /* \"#utility.yul\":10543:10610   */\n      tag_232\n        /* \"#utility.yul\":10607:10609   */\n      0x12\n        /* \"#utility.yul\":10602:10605   */\n      dup4\n        /* \"#utility.yul\":10543:10610   */\n      tag_111\n      jump\t// in\n    tag_232:\n        /* \"#utility.yul\":10536:10610   */\n      swap2\n      pop\n        /* \"#utility.yul\":10619:10712   */\n      tag_233\n        /* \"#utility.yul\":10708:10711   */\n      dup3\n        /* \"#utility.yul\":10619:10712   */\n      tag_120\n      jump\t// in\n    tag_233:\n        /* \"#utility.yul\":10737:10739   */\n      0x20\n        /* \"#utility.yul\":10732:10735   */\n      dup3\n        /* \"#utility.yul\":10728:10740   */\n      add\n        /* \"#utility.yul\":10721:10740   */\n      swap1\n      pop\n        /* \"#utility.yul\":10380:10746   */\n      swap2\n      swap1\n      pop\n      jump\t// out\n        /* \"#utility.yul\":10752:11171   */\n    tag_67:\n        /* \"#utility.yul\":10918:10922   */\n      0x00\n        /* \"#utility.yul\":10956:10958   */\n      0x20\n        /* \"#utility.yul\":10945:10954   */\n      dup3\n        /* \"#utility.yul\":10941:10959   */\n      add\n        /* \"#utility.yul\":10933:10959   */\n      swap1\n      pop\n        /* \"#utility.yul\":11005:11014   */\n      dup2\n        /* \"#utility.yul\":10999:11003   */\n      dup2\n        /* \"#utility.yul\":10995:11015   */\n      sub\n        /* \"#utility.yul\":10991:10992   */\n      0x00\n        /* \"#utility.yul\":10980:10989   */\n      dup4\n        /* \"#utility.yul\":10976:10993   */\n      add\n        /* \"#utility.yul\":10969:11016   */\n      mstore\n        /* \"#utility.yul\":11033:11164   */\n      tag_235\n        /* \"#utility.yul\":11159:11163   */\n      dup2\n        /* \"#utility.yul\":11033:11164   */\n      tag_121\n      jump\t// in\n    tag_235:\n        /* \"#utility.yul\":11025:11164   */\n      swap1\n      pop\n        /* \"#utility.yul\":10752:11171   */\n      swap2\n      swap1\n      pop\n      jump\t// out\n        /* \"#utility.yul\":11177:11345   */\n    tag_122:\n        /* \"#utility.yul\":11317:11337   */\n      0x72656c65617365416d6f756e74207a65726f0000000000000000000000000000\n        /* \"#utility.yul\":11313:11314   */\n      0x00\n        /* \"#utility.yul\":11305:11311   */\n      dup3\n        /* \"#utility.yul\":11301:11315   */\n      add\n        /* \"#utility.yul\":11294:11338   */\n      mstore\n        /* \"#utility.yul\":11177:11345   */\n      pop\n      jump\t// out\n        /* \"#utility.yul\":11351:11717   */\n    tag_123:\n        /* \"#utility.yul\":11493:11496   */\n      0x00\n        /* \"#utility.yul\":11514:11581   */\n      tag_238\n        /* \"#utility.yul\":11578:11580   */\n      0x12\n        /* \"#utility.yul\":11573:11576   */\n      dup4\n        /* \"#utility.yul\":11514:11581   */\n      tag_111\n      jump\t// in\n    tag_238:\n        /* \"#utility.yul\":11507:11581   */\n      swap2\n      pop\n        /* \"#utility.yul\":11590:11683   */\n      tag_239\n        /* \"#utility.yul\":11679:11682   */\n      dup3\n        /* \"#utility.yul\":11590:11683   */\n      tag_122\n      jump\t// in\n    tag_239:\n        /* \"#utility.yul\":11708:11710   */\n      0x20\n        /* \"#utility.yul\":11703:11706   */\n      dup3\n        /* \"#utility.yul\":11699:11711   */\n      add\n        /* \"#utility.yul\":11692:11711   */\n      swap1\n      pop\n        /* \"#utility.yul\":11351:11717   */\n      swap2\n      swap1\n      pop\n      jump\t// out\n        /* \"#utility.yul\":11723:12142   */\n    tag_78:\n        /* \"#utility.yul\":11889:11893   */\n      0x00\n        /* \"#utility.yul\":11927:11929   */\n      0x20\n        /* \"#utility.yul\":11916:11925   */\n      dup3\n        /* \"#utility.yul\":11912:11930   */\n      add\n        /* \"#utility.yul\":11904:11930   */\n      swap1\n      pop\n        /* \"#utility.yul\":11976:11985   */\n      dup2\n        /* \"#utility.yul\":11970:11974   */\n      dup2\n        /* \"#utility.yul\":11966:11986   */\n      sub\n        /* \"#utility.yul\":11962:11963   */\n      0x00\n        /* \"#utility.yul\":11951:11960   */\n      dup4\n        /* \"#utility.yul\":11947:11964   */\n      add\n        /* \"#utility.yul\":11940:11987   */\n      mstore\n        /* \"#utility.yul\":12004:12135   */\n      tag_241\n        /* \"#utility.yul\":12130:12134   */\n      dup2\n        /* \"#utility.yul\":12004:12135   */\n      tag_123\n      jump\t// in\n    tag_241:\n        /* \"#utility.yul\":11996:12135   */\n      swap1\n      pop\n        /* \"#utility.yul\":11723:12142   */\n      swap2\n      swap1\n      pop\n      jump\t// out\n        /* \"#utility.yul\":12148:12480   */\n    tag_81:\n        /* \"#utility.yul\":12269:12273   */\n      0x00\n        /* \"#utility.yul\":12307:12309   */\n      0x40\n        /* \"#utility.yul\":12296:12305   */\n      dup3\n        /* \"#utility.yul\":12292:12310   */\n      add\n        /* \"#utility.yul\":12284:12310   */\n      swap1\n      pop\n        /* \"#utility.yul\":12320:12391   */\n      tag_243\n        /* \"#utility.yul\":12388:12389   */\n      0x00\n        /* \"#utility.yul\":12377:12386   */\n      dup4\n        /* \"#utility.yul\":12373:12390   */\n      add\n        /* \"#utility.yul\":12364:12370   */\n      dup6\n        /* \"#utility.yul\":12320:12391   */\n      tag_107\n      jump\t// in\n    tag_243:\n        /* \"#utility.yul\":12401:12473   */\n      tag_244\n        /* \"#utility.yul\":12469:12471   */\n      0x20\n        /* \"#utility.yul\":12458:12467   */\n      dup4\n        /* \"#utility.yul\":12454:12472   */\n      add\n        /* \"#utility.yul\":12445:12451   */\n      dup5\n        /* \"#utility.yul\":12401:12473   */\n      tag_104\n      jump\t// in\n    tag_244:\n        /* \"#utility.yul\":12148:12480   */\n      swap4\n      swap3\n      pop\n      pop\n      pop\n      jump\t// out\n        /* \"#utility.yul\":12486:12576   */\n    tag_124:\n        /* \"#utility.yul\":12520:12527   */\n      0x00\n        /* \"#utility.yul\":12563:12568   */\n      dup2\n        /* \"#utility.yul\":12556:12569   */\n      iszero\n        /* \"#utility.yul\":12549:12570   */\n      iszero\n        /* \"#utility.yul\":12538:12570   */\n      swap1\n      pop\n        /* \"#utility.yul\":12486:12576   */\n      swap2\n      swap1\n      pop\n      jump\t// out\n        /* \"#utility.yul\":12582:12698   */\n    tag_125:\n        /* \"#utility.yul\":12652:12673   */\n      tag_247\n        /* \"#utility.yul\":12667:12672   */\n      dup2\n        /* \"#utility.yul\":12652:12673   */\n      tag_124\n      jump\t// in\n    tag_247:\n        /* \"#utility.yul\":12645:12650   */\n      dup2\n        /* \"#utility.yul\":12642:12674   */\n      eq\n        /* \"#utility.yul\":12632:12692   */\n      tag_248\n      jumpi\n        /* \"#utility.yul\":12688:12689   */\n      0x00\n        /* \"#utility.yul\":12685:12686   */\n      dup1\n        /* \"#utility.yul\":12678:12690   */\n      revert\n        /* \"#utility.yul\":12632:12692   */\n    tag_248:\n        /* \"#utility.yul\":12582:12698   */\n      pop\n      jump\t// out\n        /* \"#utility.yul\":12704:12841   */\n    tag_126:\n        /* \"#utility.yul\":12758:12763   */\n      0x00\n        /* \"#utility.yul\":12789:12795   */\n      dup2\n        /* \"#utility.yul\":12783:12796   */\n      mload\n        /* \"#utility.yul\":12774:12796   */\n      swap1\n      pop\n        /* \"#utility.yul\":12805:12835   */\n      tag_250\n        /* \"#utility.yul\":12829:12834   */\n      dup2\n        /* \"#utility.yul\":12805:12835   */\n      tag_125\n      jump\t// in\n    tag_250:\n        /* \"#utility.yul\":12704:12841   */\n      swap3\n      swap2\n      pop\n      pop\n      jump\t// out\n        /* \"#utility.yul\":12847:13192   */\n    tag_85:\n        /* \"#utility.yul\":12914:12920   */\n      0x00\n        /* \"#utility.yul\":12963:12965   */\n      0x20\n        /* \"#utility.yul\":12951:12960   */\n      dup3\n        /* \"#utility.yul\":12942:12949   */\n      dup5\n        /* \"#utility.yul\":12938:12961   */\n      sub\n        /* \"#utility.yul\":12934:12966   */\n      slt\n        /* \"#utility.yul\":12931:13050   */\n      iszero\n      tag_252\n      jumpi\n        /* \"#utility.yul\":12969:13048   */\n      tag_253\n      tag_97\n      jump\t// in\n    tag_253:\n        /* \"#utility.yul\":12931:13050   */\n    tag_252:\n        /* \"#utility.yul\":13089:13090   */\n      0x00\n        /* \"#utility.yul\":13114:13175   */\n      tag_254\n        /* \"#utility.yul\":13167:13174   */\n      dup5\n        /* \"#utility.yul\":13158:13164   */\n      dup3\n        /* \"#utility.yul\":13147:13156   */\n      dup6\n        /* \"#utility.yul\":13143:13165   */\n      add\n        /* \"#utility.yul\":13114:13175   */\n      tag_126\n      jump\t// in\n    tag_254:\n        /* \"#utility.yul\":13104:13175   */\n      swap2\n      pop\n        /* \"#utility.yul\":13060:13185   */\n      pop\n        /* \"#utility.yul\":12847:13192   */\n      swap3\n      swap2\n      pop\n      pop\n      jump\t// out\n        /* \"#utility.yul\":13198:13640   */\n    tag_92:\n        /* \"#utility.yul\":13347:13351   */\n      0x00\n        /* \"#utility.yul\":13385:13387   */\n      0x60\n        /* \"#utility.yul\":13374:13383   */\n      dup3\n        /* \"#utility.yul\":13370:13388   */\n      add\n        /* \"#utility.yul\":13362:13388   */\n      swap1\n      pop\n        /* \"#utility.yul\":13398:13469   */\n      tag_256\n        /* \"#utility.yul\":13466:13467   */\n      0x00\n        /* \"#utility.yul\":13455:13464   */\n      dup4\n        /* \"#utility.yul\":13451:13468   */\n      add\n        /* \"#utility.yul\":13442:13448   */\n      dup7\n        /* \"#utility.yul\":13398:13469   */\n      tag_107\n      jump\t// in\n    tag_256:\n        /* \"#utility.yul\":13479:13551   */\n      tag_257\n        /* \"#utility.yul\":13547:13549   */\n      0x20\n        /* \"#utility.yul\":13536:13545   */\n      dup4\n        /* \"#utility.yul\":13532:13550   */\n      add\n        /* \"#utility.yul\":13523:13529   */\n      dup6\n        /* \"#utility.yul\":13479:13551   */\n      tag_107\n      jump\t// in\n    tag_257:\n        /* \"#utility.yul\":13561:13633   */\n      tag_258\n        /* \"#utility.yul\":13629:13631   */\n      0x40\n        /* \"#utility.yul\":13618:13627   */\n      dup4\n        /* \"#utility.yul\":13614:13632   */\n      add\n        /* \"#utility.yul\":13605:13611   */\n      dup5\n        /* \"#utility.yul\":13561:13633   */\n      tag_104\n      jump\t// in\n    tag_258:\n        /* \"#utility.yul\":13198:13640   */\n      swap5\n      swap4\n      pop\n      pop\n      pop\n      pop\n      jump\t// out\n\n    auxdata: 0xa2646970667358221220053b61b29a03269ef21551e11aea40f638e78aa0033ec4cd8da1b9c1d4aa093264736f6c634300081a0033\n}\n",
				"bytecode": {
					"linkReferences": {},
					"object": "6080604052348015600e575f80fd5b5061138c8061001c5f395ff3fe608060405234801561000f575f80fd5b506004361061004a575f3560e01c80630f4e099b1461004e578063282d2d9a1461007e5780634c31fdc8146100b0578063cd97efa8146100cc575b5f80fd5b61006860048036038101906100639190610cfe565b6100fc565b6040516100759190610d54565b60405180910390f35b61009860048036038101906100939190610cfe565b6105ff565b6040516100a793929190610d6d565b60405180910390f35b6100ca60048036038101906100c59190610dcc565b61062f565b005b6100e660048036038101906100e19190610e30565b61099f565b6040516100f39190610d54565b60405180910390f35b5f805f808573ffffffffffffffffffffffffffffffffffffffff1673ffffffffffffffffffffffffffffffffffffffff1681526020019081526020015f205f8473ffffffffffffffffffffffffffffffffffffffff1673ffffffffffffffffffffffffffffffffffffffff1681526020019081526020015f205f0154036101bc5782826040517fcee5ff1a0000000000000000000000000000000000000000000000000000000081526004016101b3929190610e6a565b60405180910390fd5b5f8373ffffffffffffffffffffffffffffffffffffffff166370a08231306040518263ffffffff1660e01b81526004016101f69190610e91565b602060405180830381865afa158015610211573d5f803e3d5ffd5b505050506040513d601f19601f820116820180604052508101906102359190610ebe565b5f808673ffffffffffffffffffffffffffffffffffffffff1673ffffffffffffffffffffffffffffffffffffffff1681526020019081526020015f205f8573ffffffffffffffffffffffffffffffffffffffff1673ffffffffffffffffffffffffffffffffffffffff1681526020019081526020015f20600201546102ba9190610f16565b90505f805f8673ffffffffffffffffffffffffffffffffffffffff1673ffffffffffffffffffffffffffffffffffffffff1681526020019081526020015f205f8573ffffffffffffffffffffffffffffffffffffffff1673ffffffffffffffffffffffffffffffffffffffff1681526020019081526020015f205f0154426103429190610f49565b90505f808673ffffffffffffffffffffffffffffffffffffffff1673ffffffffffffffffffffffffffffffffffffffff1681526020019081526020015f205f8573ffffffffffffffffffffffffffffffffffffffff1673ffffffffffffffffffffffffffffffffffffffff1681526020019081526020015f2060010154811115610455575f808673ffffffffffffffffffffffffffffffffffffffff1673ffffffffffffffffffffffffffffffffffffffff1681526020019081526020015f205f8573ffffffffffffffffffffffffffffffffffffffff1673ffffffffffffffffffffffffffffffffffffffff1681526020019081526020015f20600201548261044c9190610f49565b925050506105f9565b5f805f8773ffffffffffffffffffffffffffffffffffffffff1673ffffffffffffffffffffffffffffffffffffffff1681526020019081526020015f205f8673ffffffffffffffffffffffffffffffffffffffff1673ffffffffffffffffffffffffffffffffffffffff1681526020019081526020015f2060010154835f808973ffffffffffffffffffffffffffffffffffffffff1673ffffffffffffffffffffffffffffffffffffffff1681526020019081526020015f205f8873ffffffffffffffffffffffffffffffffffffffff1673ffffffffffffffffffffffffffffffffffffffff1681526020019081526020015f205f0154426105579190610f49565b6105619190610f7c565b61056b9190610fea565b90505f808773ffffffffffffffffffffffffffffffffffffffff1673ffffffffffffffffffffffffffffffffffffffff1681526020019081526020015f205f8673ffffffffffffffffffffffffffffffffffffffff1673ffffffffffffffffffffffffffffffffffffffff1681526020019081526020015f2060020154816105f39190610f49565b93505050505b92915050565b5f602052815f5260405f20602052805f5260405f205f9150915050805f0154908060010154908060020154905083565b61063884610bb6565b610677576040517f08c379a000000000000000000000000000000000000000000000000000000000815260040161066e90611074565b60405180910390fd5b5f73ffffffffffffffffffffffffffffffffffffffff168373ffffffffffffffffffffffffffffffffffffffff16036106e5576040517f08c379a00000000000000000000000000000000000000000000000000000000081526004016106dc906110dc565b60405180910390fd5b5f8211610727576040517f08c379a000000000000000000000000000000000000000000000000000000000815260040161071e90611144565b60405180910390fd5b5f8111610769576040517f08c379a0000000000000000000000000000000000000000000000000000000008152600401610760906111ac565b60405180910390fd5b5f805f8673ffffffffffffffffffffffffffffffffffffffff1673ffffffffffffffffffffffffffffffffffffffff1681526020019081526020015f205f8573ffffffffffffffffffffffffffffffffffffffff1673ffffffffffffffffffffffffffffffffffffffff1681526020019081526020015f205f015414610824576040517f08c379a000000000000000000000000000000000000000000000000000000000815260040161081b90611214565b60405180910390fd5b5f429050805f808773ffffffffffffffffffffffffffffffffffffffff1673ffffffffffffffffffffffffffffffffffffffff1681526020019081526020015f205f8673ffffffffffffffffffffffffffffffffffffffff1673ffffffffffffffffffffffffffffffffffffffff1681526020019081526020015f205f0181905550815f808773ffffffffffffffffffffffffffffffffffffffff1673ffffffffffffffffffffffffffffffffffffffff1681526020019081526020015f205f8673ffffffffffffffffffffffffffffffffffffffff1673ffffffffffffffffffffffffffffffffffffffff1681526020019081526020015f206001018190555061092f8584610c1e565b8373ffffffffffffffffffffffffffffffffffffffff168573ffffffffffffffffffffffffffffffffffffffff167f0618834321ce8ecb1b7320e51ab3c6f13c5030ae25a978552e88ded53349532e85848660405161099093929190610d6d565b60405180910390a35050505050565b5f6109a982610bb6565b6109e8576040517f08c379a00000000000000000000000000000000000000000000000000000000081526004016109df90611074565b60405180910390fd5b5f3390505f6109f784836100fc565b90505f8111610a3b576040517f08c379a0000000000000000000000000000000000000000000000000000000008152600401610a329061127c565b60405180910390fd5b805f808673ffffffffffffffffffffffffffffffffffffffff1673ffffffffffffffffffffffffffffffffffffffff1681526020019081526020015f205f8473ffffffffffffffffffffffffffffffffffffffff1673ffffffffffffffffffffffffffffffffffffffff1681526020019081526020015f206002015f828254610ac49190610f16565b925050819055508373ffffffffffffffffffffffffffffffffffffffff1663a9059cbb83836040518363ffffffff1660e01b8152600401610b0692919061129a565b6020604051808303815f875af1158015610b22573d5f803e3d5ffd5b505050506040513d601f19601f82011682018060405250810190610b4691906112f6565b508173ffffffffffffffffffffffffffffffffffffffff168473ffffffffffffffffffffffffffffffffffffffff167f419ca9b9f0dd6884d3462d128d4c6302436c020d0244158c930a17d80ca8be5b83604051610ba49190610d54565b60405180910390a38092505050919050565b5f8073ffffffffffffffffffffffffffffffffffffffff168273ffffffffffffffffffffffffffffffffffffffff161480610c0757505f8273ffffffffffffffffffffffffffffffffffffffff163b145b15610c14575f9050610c19565b600190505b919050565b8173ffffffffffffffffffffffffffffffffffffffff166323b872dd3330846040518463ffffffff1660e01b8152600401610c5b93929190611321565b6020604051808303815f875af1158015610c77573d5f803e3d5ffd5b505050506040513d601f19601f82011682018060405250810190610c9b91906112f6565b505050565b5f80fd5b5f73ffffffffffffffffffffffffffffffffffffffff82169050919050565b5f610ccd82610ca4565b9050919050565b610cdd81610cc3565b8114610ce7575f80fd5b50565b5f81359050610cf881610cd4565b92915050565b5f8060408385031215610d1457610d13610ca0565b5b5f610d2185828601610cea565b9250506020610d3285828601610cea565b9150509250929050565b5f819050919050565b610d4e81610d3c565b82525050565b5f602082019050610d675f830184610d45565b92915050565b5f606082019050610d805f830186610d45565b610d8d6020830185610d45565b610d9a6040830184610d45565b949350505050565b610dab81610d3c565b8114610db5575f80fd5b50565b5f81359050610dc681610da2565b92915050565b5f805f8060808587031215610de457610de3610ca0565b5b5f610df187828801610cea565b9450506020610e0287828801610cea565b9350506040610e1387828801610db8565b9250506060610e2487828801610db8565b91505092959194509250565b5f60208284031215610e4557610e44610ca0565b5b5f610e5284828501610cea565b91505092915050565b610e6481610cc3565b82525050565b5f604082019050610e7d5f830185610e5b565b610e8a6020830184610e5b565b9392505050565b5f602082019050610ea45f830184610e5b565b92915050565b5f81519050610eb881610da2565b92915050565b5f60208284031215610ed357610ed2610ca0565b5b5f610ee084828501610eaa565b91505092915050565b7f4e487b71000000000000000000000000000000000000000000000000000000005f52601160045260245ffd5b5f610f2082610d3c565b9150610f2b83610d3c565b9250828201905080821115610f4357610f42610ee9565b5b92915050565b5f610f5382610d3c565b9150610f5e83610d3c565b9250828203905081811115610f7657610f75610ee9565b5b92915050565b5f610f8682610d3c565b9150610f9183610d3c565b9250828202610f9f81610d3c565b91508282048414831517610fb657610fb5610ee9565b5b5092915050565b7f4e487b71000000000000000000000000000000000000000000000000000000005f52601260045260245ffd5b5f610ff482610d3c565b9150610fff83610d3c565b92508261100f5761100e610fbd565b5b828204905092915050565b5f82825260208201905092915050565b7f6572633230206164647265737320696e76616c696400000000000000000000005f82015250565b5f61105e60158361101a565b91506110698261102a565b602082019050919050565b5f6020820190508181035f83015261108b81611052565b9050919050565b7f62656e656669636961727920696e76616c6964000000000000000000000000005f82015250565b5f6110c660138361101a565b91506110d182611092565b602082019050919050565b5f6020820190508181035f8301526110f3816110ba565b9050919050565b7f616d6f756e74207a65726f0000000000000000000000000000000000000000005f82015250565b5f61112e600b8361101a565b9150611139826110fa565b602082019050919050565b5f6020820190508181035f83015261115b81611122565b9050919050565b7f6475726174696f6e207a65726f000000000000000000000000000000000000005f82015250565b5f611196600d8361101a565b91506111a182611162565b602082019050919050565b5f6020820190508181035f8301526111c38161118a565b9050919050565b7f62656e65666963696172792065786973747300000000000000000000000000005f82015250565b5f6111fe60128361101a565b9150611209826111ca565b602082019050919050565b5f6020820190508181035f83015261122b816111f2565b9050919050565b7f72656c65617365416d6f756e74207a65726f00000000000000000000000000005f82015250565b5f61126660128361101a565b915061127182611232565b602082019050919050565b5f6020820190508181035f8301526112938161125a565b9050919050565b5f6040820190506112ad5f830185610e5b565b6112ba6020830184610d45565b9392505050565b5f8115159050919050565b6112d5816112c1565b81146112df575f80fd5b50565b5f815190506112f0816112cc565b92915050565b5f6020828403121561130b5761130a610ca0565b5b5f611318848285016112e2565b91505092915050565b5f6060820190506113345f830186610e5b565b6113416020830185610e5b565b61134e6040830184610d45565b94935050505056fea2646970667358221220053b61b29a03269ef21551e11aea40f638e78aa0033ec4cd8da1b9c1d4aa093264736f6c634300081a0033",
					"opcodes": "PUSH1 0x80 PUSH1 0x40 MSTORE CALLVALUE DUP1 ISZERO PUSH1 0xE JUMPI PUSH0 DUP1 REVERT JUMPDEST POP PUSH2 0x138C DUP1 PUSH2 0x1C PUSH0 CODECOPY PUSH0 RETURN INVALID PUSH1 0x80 PUSH1 0x40 MSTORE CALLVALUE DUP1 ISZERO PUSH2 0xF JUMPI PUSH0 DUP1 REVERT JUMPDEST POP PUSH1 0x4 CALLDATASIZE LT PUSH2 0x4A JUMPI PUSH0 CALLDATALOAD PUSH1 0xE0 SHR DUP1 PUSH4 0xF4E099B EQ PUSH2 0x4E JUMPI DUP1 PUSH4 0x282D2D9A EQ PUSH2 0x7E JUMPI DUP1 PUSH4 0x4C31FDC8 EQ PUSH2 0xB0 JUMPI DUP1 PUSH4 0xCD97EFA8 EQ PUSH2 0xCC JUMPI JUMPDEST PUSH0 DUP1 REVERT JUMPDEST PUSH2 0x68 PUSH1 0x4 DUP1 CALLDATASIZE SUB DUP2 ADD SWAP1 PUSH2 0x63 SWAP2 SWAP1 PUSH2 0xCFE JUMP JUMPDEST PUSH2 0xFC JUMP JUMPDEST PUSH1 0x40 MLOAD PUSH2 0x75 SWAP2 SWAP1 PUSH2 0xD54 JUMP JUMPDEST PUSH1 0x40 MLOAD DUP1 SWAP2 SUB SWAP1 RETURN JUMPDEST PUSH2 0x98 PUSH1 0x4 DUP1 CALLDATASIZE SUB DUP2 ADD SWAP1 PUSH2 0x93 SWAP2 SWAP1 PUSH2 0xCFE JUMP JUMPDEST PUSH2 0x5FF JUMP JUMPDEST PUSH1 0x40 MLOAD PUSH2 0xA7 SWAP4 SWAP3 SWAP2 SWAP1 PUSH2 0xD6D JUMP JUMPDEST PUSH1 0x40 MLOAD DUP1 SWAP2 SUB SWAP1 RETURN JUMPDEST PUSH2 0xCA PUSH1 0x4 DUP1 CALLDATASIZE SUB DUP2 ADD SWAP1 PUSH2 0xC5 SWAP2 SWAP1 PUSH2 0xDCC JUMP JUMPDEST PUSH2 0x62F JUMP JUMPDEST STOP JUMPDEST PUSH2 0xE6 PUSH1 0x4 DUP1 CALLDATASIZE SUB DUP2 ADD SWAP1 PUSH2 0xE1 SWAP2 SWAP1 PUSH2 0xE30 JUMP JUMPDEST PUSH2 0x99F JUMP JUMPDEST PUSH1 0x40 MLOAD PUSH2 0xF3 SWAP2 SWAP1 PUSH2 0xD54 JUMP JUMPDEST PUSH1 0x40 MLOAD DUP1 SWAP2 SUB SWAP1 RETURN JUMPDEST PUSH0 DUP1 PUSH0 DUP1 DUP6 PUSH20 0xFFFFFFFFFFFFFFFFFFFFFFFFFFFFFFFFFFFFFFFF AND PUSH20 0xFFFFFFFFFFFFFFFFFFFFFFFFFFFFFFFFFFFFFFFF AND DUP2 MSTORE PUSH1 0x20 ADD SWAP1 DUP2 MSTORE PUSH1 0x20 ADD PUSH0 KECCAK256 PUSH0 DUP5 PUSH20 0xFFFFFFFFFFFFFFFFFFFFFFFFFFFFFFFFFFFFFFFF AND PUSH20 0xFFFFFFFFFFFFFFFFFFFFFFFFFFFFFFFFFFFFFFFF AND DUP2 MSTORE PUSH1 0x20 ADD SWAP1 DUP2 MSTORE PUSH1 0x20 ADD PUSH0 KECCAK256 PUSH0 ADD SLOAD SUB PUSH2 0x1BC JUMPI DUP3 DUP3 PUSH1 0x40 MLOAD PUSH32 0xCEE5FF1A00000000000000000000000000000000000000000000000000000000 DUP2 MSTORE PUSH1 0x4 ADD PUSH2 0x1B3 SWAP3 SWAP2 SWAP1 PUSH2 0xE6A JUMP JUMPDEST PUSH1 0x40 MLOAD DUP1 SWAP2 SUB SWAP1 REVERT JUMPDEST PUSH0 DUP4 PUSH20 0xFFFFFFFFFFFFFFFFFFFFFFFFFFFFFFFFFFFFFFFF AND PUSH4 0x70A08231 ADDRESS PUSH1 0x40 MLOAD DUP3 PUSH4 0xFFFFFFFF AND PUSH1 0xE0 SHL DUP2 MSTORE PUSH1 0x4 ADD PUSH2 0x1F6 SWAP2 SWAP1 PUSH2 0xE91 JUMP JUMPDEST PUSH1 0x20 PUSH1 0x40 MLOAD DUP1 DUP4 SUB DUP2 DUP7 GAS STATICCALL ISZERO DUP1 ISZERO PUSH2 0x211 JUMPI RETURNDATASIZE PUSH0 DUP1 RETURNDATACOPY RETURNDATASIZE PUSH0 REVERT JUMPDEST POP POP POP POP PUSH1 0x40 MLOAD RETURNDATASIZE PUSH1 0x1F NOT PUSH1 0x1F DUP3 ADD AND DUP3 ADD DUP1 PUSH1 0x40 MSTORE POP DUP2 ADD SWAP1 PUSH2 0x235 SWAP2 SWAP1 PUSH2 0xEBE JUMP JUMPDEST PUSH0 DUP1 DUP7 PUSH20 0xFFFFFFFFFFFFFFFFFFFFFFFFFFFFFFFFFFFFFFFF AND PUSH20 0xFFFFFFFFFFFFFFFFFFFFFFFFFFFFFFFFFFFFFFFF AND DUP2 MSTORE PUSH1 0x20 ADD SWAP1 DUP2 MSTORE PUSH1 0x20 ADD PUSH0 KECCAK256 PUSH0 DUP6 PUSH20 0xFFFFFFFFFFFFFFFFFFFFFFFFFFFFFFFFFFFFFFFF AND PUSH20 0xFFFFFFFFFFFFFFFFFFFFFFFFFFFFFFFFFFFFFFFF AND DUP2 MSTORE PUSH1 0x20 ADD SWAP1 DUP2 MSTORE PUSH1 0x20 ADD PUSH0 KECCAK256 PUSH1 0x2 ADD SLOAD PUSH2 0x2BA SWAP2 SWAP1 PUSH2 0xF16 JUMP JUMPDEST SWAP1 POP PUSH0 DUP1 PUSH0 DUP7 PUSH20 0xFFFFFFFFFFFFFFFFFFFFFFFFFFFFFFFFFFFFFFFF AND PUSH20 0xFFFFFFFFFFFFFFFFFFFFFFFFFFFFFFFFFFFFFFFF AND DUP2 MSTORE PUSH1 0x20 ADD SWAP1 DUP2 MSTORE PUSH1 0x20 ADD PUSH0 KECCAK256 PUSH0 DUP6 PUSH20 0xFFFFFFFFFFFFFFFFFFFFFFFFFFFFFFFFFFFFFFFF AND PUSH20 0xFFFFFFFFFFFFFFFFFFFFFFFFFFFFFFFFFFFFFFFF AND DUP2 MSTORE PUSH1 0x20 ADD SWAP1 DUP2 MSTORE PUSH1 0x20 ADD PUSH0 KECCAK256 PUSH0 ADD SLOAD TIMESTAMP PUSH2 0x342 SWAP2 SWAP1 PUSH2 0xF49 JUMP JUMPDEST SWAP1 POP PUSH0 DUP1 DUP7 PUSH20 0xFFFFFFFFFFFFFFFFFFFFFFFFFFFFFFFFFFFFFFFF AND PUSH20 0xFFFFFFFFFFFFFFFFFFFFFFFFFFFFFFFFFFFFFFFF AND DUP2 MSTORE PUSH1 0x20 ADD SWAP1 DUP2 MSTORE PUSH1 0x20 ADD PUSH0 KECCAK256 PUSH0 DUP6 PUSH20 0xFFFFFFFFFFFFFFFFFFFFFFFFFFFFFFFFFFFFFFFF AND PUSH20 0xFFFFFFFFFFFFFFFFFFFFFFFFFFFFFFFFFFFFFFFF AND DUP2 MSTORE PUSH1 0x20 ADD SWAP1 DUP2 MSTORE PUSH1 0x20 ADD PUSH0 KECCAK256 PUSH1 0x1 ADD SLOAD DUP2 GT ISZERO PUSH2 0x455 JUMPI PUSH0 DUP1 DUP7 PUSH20 0xFFFFFFFFFFFFFFFFFFFFFFFFFFFFFFFFFFFFFFFF AND PUSH20 0xFFFFFFFFFFFFFFFFFFFFFFFFFFFFFFFFFFFFFFFF AND DUP2 MSTORE PUSH1 0x20 ADD SWAP1 DUP2 MSTORE PUSH1 0x20 ADD PUSH0 KECCAK256 PUSH0 DUP6 PUSH20 0xFFFFFFFFFFFFFFFFFFFFFFFFFFFFFFFFFFFFFFFF AND PUSH20 0xFFFFFFFFFFFFFFFFFFFFFFFFFFFFFFFFFFFFFFFF AND DUP2 MSTORE PUSH1 0x20 ADD SWAP1 DUP2 MSTORE PUSH1 0x20 ADD PUSH0 KECCAK256 PUSH1 0x2 ADD SLOAD DUP3 PUSH2 0x44C SWAP2 SWAP1 PUSH2 0xF49 JUMP JUMPDEST SWAP3 POP POP POP PUSH2 0x5F9 JUMP JUMPDEST PUSH0 DUP1 PUSH0 DUP8 PUSH20 0xFFFFFFFFFFFFFFFFFFFFFFFFFFFFFFFFFFFFFFFF AND PUSH20 0xFFFFFFFFFFFFFFFFFFFFFFFFFFFFFFFFFFFFFFFF AND DUP2 MSTORE PUSH1 0x20 ADD SWAP1 DUP2 MSTORE PUSH1 0x20 ADD PUSH0 KECCAK256 PUSH0 DUP7 PUSH20 0xFFFFFFFFFFFFFFFFFFFFFFFFFFFFFFFFFFFFFFFF AND PUSH20 0xFFFFFFFFFFFFFFFFFFFFFFFFFFFFFFFFFFFFFFFF AND DUP2 MSTORE PUSH1 0x20 ADD SWAP1 DUP2 MSTORE PUSH1 0x20 ADD PUSH0 KECCAK256 PUSH1 0x1 ADD SLOAD DUP4 PUSH0 DUP1 DUP10 PUSH20 0xFFFFFFFFFFFFFFFFFFFFFFFFFFFFFFFFFFFFFFFF AND PUSH20 0xFFFFFFFFFFFFFFFFFFFFFFFFFFFFFFFFFFFFFFFF AND DUP2 MSTORE PUSH1 0x20 ADD SWAP1 DUP2 MSTORE PUSH1 0x20 ADD PUSH0 KECCAK256 PUSH0 DUP9 PUSH20 0xFFFFFFFFFFFFFFFFFFFFFFFFFFFFFFFFFFFFFFFF AND PUSH20 0xFFFFFFFFFFFFFFFFFFFFFFFFFFFFFFFFFFFFFFFF AND DUP2 MSTORE PUSH1 0x20 ADD SWAP1 DUP2 MSTORE PUSH1 0x20 ADD PUSH0 KECCAK256 PUSH0 ADD SLOAD TIMESTAMP PUSH2 0x557 SWAP2 SWAP1 PUSH2 0xF49 JUMP JUMPDEST PUSH2 0x561 SWAP2 SWAP1 PUSH2 0xF7C JUMP JUMPDEST PUSH2 0x56B SWAP2 SWAP1 PUSH2 0xFEA JUMP JUMPDEST SWAP1 POP PUSH0 DUP1 DUP8 PUSH20 0xFFFFFFFFFFFFFFFFFFFFFFFFFFFFFFFFFFFFFFFF AND PUSH20 0xFFFFFFFFFFFFFFFFFFFFFFFFFFFFFFFFFFFFFFFF AND DUP2 MSTORE PUSH1 0x20 ADD SWAP1 DUP2 MSTORE PUSH1 0x20 ADD PUSH0 KECCAK256 PUSH0 DUP7 PUSH20 0xFFFFFFFFFFFFFFFFFFFFFFFFFFFFFFFFFFFFFFFF AND PUSH20 0xFFFFFFFFFFFFFFFFFFFFFFFFFFFFFFFFFFFFFFFF AND DUP2 MSTORE PUSH1 0x20 ADD SWAP1 DUP2 MSTORE PUSH1 0x20 ADD PUSH0 KECCAK256 PUSH1 0x2 ADD SLOAD DUP2 PUSH2 0x5F3 SWAP2 SWAP1 PUSH2 0xF49 JUMP JUMPDEST SWAP4 POP POP POP POP JUMPDEST SWAP3 SWAP2 POP POP JUMP JUMPDEST PUSH0 PUSH1 0x20 MSTORE DUP2 PUSH0 MSTORE PUSH1 0x40 PUSH0 KECCAK256 PUSH1 0x20 MSTORE DUP1 PUSH0 MSTORE PUSH1 0x40 PUSH0 KECCAK256 PUSH0 SWAP2 POP SWAP2 POP POP DUP1 PUSH0 ADD SLOAD SWAP1 DUP1 PUSH1 0x1 ADD SLOAD SWAP1 DUP1 PUSH1 0x2 ADD SLOAD SWAP1 POP DUP4 JUMP JUMPDEST PUSH2 0x638 DUP5 PUSH2 0xBB6 JUMP JUMPDEST PUSH2 0x677 JUMPI PUSH1 0x40 MLOAD PUSH32 0x8C379A000000000000000000000000000000000000000000000000000000000 DUP2 MSTORE PUSH1 0x4 ADD PUSH2 0x66E SWAP1 PUSH2 0x1074 JUMP JUMPDEST PUSH1 0x40 MLOAD DUP1 SWAP2 SUB SWAP1 REVERT JUMPDEST PUSH0 PUSH20 0xFFFFFFFFFFFFFFFFFFFFFFFFFFFFFFFFFFFFFFFF AND DUP4 PUSH20 0xFFFFFFFFFFFFFFFFFFFFFFFFFFFFFFFFFFFFFFFF AND SUB PUSH2 0x6E5 JUMPI PUSH1 0x40 MLOAD PUSH32 0x8C379A000000000000000000000000000000000000000000000000000000000 DUP2 MSTORE PUSH1 0x4 ADD PUSH2 0x6DC SWAP1 PUSH2 0x10DC JUMP JUMPDEST PUSH1 0x40 MLOAD DUP1 SWAP2 SUB SWAP1 REVERT JUMPDEST PUSH0 DUP3 GT PUSH2 0x727 JUMPI PUSH1 0x40 MLOAD PUSH32 0x8C379A000000000000000000000000000000000000000000000000000000000 DUP2 MSTORE PUSH1 0x4 ADD PUSH2 0x71E SWAP1 PUSH2 0x1144 JUMP JUMPDEST PUSH1 0x40 MLOAD DUP1 SWAP2 SUB SWAP1 REVERT JUMPDEST PUSH0 DUP2 GT PUSH2 0x769 JUMPI PUSH1 0x40 MLOAD PUSH32 0x8C379A000000000000000000000000000000000000000000000000000000000 DUP2 MSTORE PUSH1 0x4 ADD PUSH2 0x760 SWAP1 PUSH2 0x11AC JUMP JUMPDEST PUSH1 0x40 MLOAD DUP1 SWAP2 SUB SWAP1 REVERT JUMPDEST PUSH0 DUP1 PUSH0 DUP7 PUSH20 0xFFFFFFFFFFFFFFFFFFFFFFFFFFFFFFFFFFFFFFFF AND PUSH20 0xFFFFFFFFFFFFFFFFFFFFFFFFFFFFFFFFFFFFFFFF AND DUP2 MSTORE PUSH1 0x20 ADD SWAP1 DUP2 MSTORE PUSH1 0x20 ADD PUSH0 KECCAK256 PUSH0 DUP6 PUSH20 0xFFFFFFFFFFFFFFFFFFFFFFFFFFFFFFFFFFFFFFFF AND PUSH20 0xFFFFFFFFFFFFFFFFFFFFFFFFFFFFFFFFFFFFFFFF AND DUP2 MSTORE PUSH1 0x20 ADD SWAP1 DUP2 MSTORE PUSH1 0x20 ADD PUSH0 KECCAK256 PUSH0 ADD SLOAD EQ PUSH2 0x824 JUMPI PUSH1 0x40 MLOAD PUSH32 0x8C379A000000000000000000000000000000000000000000000000000000000 DUP2 MSTORE PUSH1 0x4 ADD PUSH2 0x81B SWAP1 PUSH2 0x1214 JUMP JUMPDEST PUSH1 0x40 MLOAD DUP1 SWAP2 SUB SWAP1 REVERT JUMPDEST PUSH0 TIMESTAMP SWAP1 POP DUP1 PUSH0 DUP1 DUP8 PUSH20 0xFFFFFFFFFFFFFFFFFFFFFFFFFFFFFFFFFFFFFFFF AND PUSH20 0xFFFFFFFFFFFFFFFFFFFFFFFFFFFFFFFFFFFFFFFF AND DUP2 MSTORE PUSH1 0x20 ADD SWAP1 DUP2 MSTORE PUSH1 0x20 ADD PUSH0 KECCAK256 PUSH0 DUP7 PUSH20 0xFFFFFFFFFFFFFFFFFFFFFFFFFFFFFFFFFFFFFFFF AND PUSH20 0xFFFFFFFFFFFFFFFFFFFFFFFFFFFFFFFFFFFFFFFF AND DUP2 MSTORE PUSH1 0x20 ADD SWAP1 DUP2 MSTORE PUSH1 0x20 ADD PUSH0 KECCAK256 PUSH0 ADD DUP2 SWAP1 SSTORE POP DUP2 PUSH0 DUP1 DUP8 PUSH20 0xFFFFFFFFFFFFFFFFFFFFFFFFFFFFFFFFFFFFFFFF AND PUSH20 0xFFFFFFFFFFFFFFFFFFFFFFFFFFFFFFFFFFFFFFFF AND DUP2 MSTORE PUSH1 0x20 ADD SWAP1 DUP2 MSTORE PUSH1 0x20 ADD PUSH0 KECCAK256 PUSH0 DUP7 PUSH20 0xFFFFFFFFFFFFFFFFFFFFFFFFFFFFFFFFFFFFFFFF AND PUSH20 0xFFFFFFFFFFFFFFFFFFFFFFFFFFFFFFFFFFFFFFFF AND DUP2 MSTORE PUSH1 0x20 ADD SWAP1 DUP2 MSTORE PUSH1 0x20 ADD PUSH0 KECCAK256 PUSH1 0x1 ADD DUP2 SWAP1 SSTORE POP PUSH2 0x92F DUP6 DUP5 PUSH2 0xC1E JUMP JUMPDEST DUP4 PUSH20 0xFFFFFFFFFFFFFFFFFFFFFFFFFFFFFFFFFFFFFFFF AND DUP6 PUSH20 0xFFFFFFFFFFFFFFFFFFFFFFFFFFFFFFFFFFFFFFFF AND PUSH32 0x618834321CE8ECB1B7320E51AB3C6F13C5030AE25A978552E88DED53349532E DUP6 DUP5 DUP7 PUSH1 0x40 MLOAD PUSH2 0x990 SWAP4 SWAP3 SWAP2 SWAP1 PUSH2 0xD6D JUMP JUMPDEST PUSH1 0x40 MLOAD DUP1 SWAP2 SUB SWAP1 LOG3 POP POP POP POP POP JUMP JUMPDEST PUSH0 PUSH2 0x9A9 DUP3 PUSH2 0xBB6 JUMP JUMPDEST PUSH2 0x9E8 JUMPI PUSH1 0x40 MLOAD PUSH32 0x8C379A000000000000000000000000000000000000000000000000000000000 DUP2 MSTORE PUSH1 0x4 ADD PUSH2 0x9DF SWAP1 PUSH2 0x1074 JUMP JUMPDEST PUSH1 0x40 MLOAD DUP1 SWAP2 SUB SWAP1 REVERT JUMPDEST PUSH0 CALLER SWAP1 POP PUSH0 PUSH2 0x9F7 DUP5 DUP4 PUSH2 0xFC JUMP JUMPDEST SWAP1 POP PUSH0 DUP2 GT PUSH2 0xA3B JUMPI PUSH1 0x40 MLOAD PUSH32 0x8C379A000000000000000000000000000000000000000000000000000000000 DUP2 MSTORE PUSH1 0x4 ADD PUSH2 0xA32 SWAP1 PUSH2 0x127C JUMP JUMPDEST PUSH1 0x40 MLOAD DUP1 SWAP2 SUB SWAP1 REVERT JUMPDEST DUP1 PUSH0 DUP1 DUP7 PUSH20 0xFFFFFFFFFFFFFFFFFFFFFFFFFFFFFFFFFFFFFFFF AND PUSH20 0xFFFFFFFFFFFFFFFFFFFFFFFFFFFFFFFFFFFFFFFF AND DUP2 MSTORE PUSH1 0x20 ADD SWAP1 DUP2 MSTORE PUSH1 0x20 ADD PUSH0 KECCAK256 PUSH0 DUP5 PUSH20 0xFFFFFFFFFFFFFFFFFFFFFFFFFFFFFFFFFFFFFFFF AND PUSH20 0xFFFFFFFFFFFFFFFFFFFFFFFFFFFFFFFFFFFFFFFF AND DUP2 MSTORE PUSH1 0x20 ADD SWAP1 DUP2 MSTORE PUSH1 0x20 ADD PUSH0 KECCAK256 PUSH1 0x2 ADD PUSH0 DUP3 DUP3 SLOAD PUSH2 0xAC4 SWAP2 SWAP1 PUSH2 0xF16 JUMP JUMPDEST SWAP3 POP POP DUP2 SWAP1 SSTORE POP DUP4 PUSH20 0xFFFFFFFFFFFFFFFFFFFFFFFFFFFFFFFFFFFFFFFF AND PUSH4 0xA9059CBB DUP4 DUP4 PUSH1 0x40 MLOAD DUP4 PUSH4 0xFFFFFFFF AND PUSH1 0xE0 SHL DUP2 MSTORE PUSH1 0x4 ADD PUSH2 0xB06 SWAP3 SWAP2 SWAP1 PUSH2 0x129A JUMP JUMPDEST PUSH1 0x20 PUSH1 0x40 MLOAD DUP1 DUP4 SUB DUP2 PUSH0 DUP8 GAS CALL ISZERO DUP1 ISZERO PUSH2 0xB22 JUMPI RETURNDATASIZE PUSH0 DUP1 RETURNDATACOPY RETURNDATASIZE PUSH0 REVERT JUMPDEST POP POP POP POP PUSH1 0x40 MLOAD RETURNDATASIZE PUSH1 0x1F NOT PUSH1 0x1F DUP3 ADD AND DUP3 ADD DUP1 PUSH1 0x40 MSTORE POP DUP2 ADD SWAP1 PUSH2 0xB46 SWAP2 SWAP1 PUSH2 0x12F6 JUMP JUMPDEST POP DUP2 PUSH20 0xFFFFFFFFFFFFFFFFFFFFFFFFFFFFFFFFFFFFFFFF AND DUP5 PUSH20 0xFFFFFFFFFFFFFFFFFFFFFFFFFFFFFFFFFFFFFFFF AND PUSH32 0x419CA9B9F0DD6884D3462D128D4C6302436C020D0244158C930A17D80CA8BE5B DUP4 PUSH1 0x40 MLOAD PUSH2 0xBA4 SWAP2 SWAP1 PUSH2 0xD54 JUMP JUMPDEST PUSH1 0x40 MLOAD DUP1 SWAP2 SUB SWAP1 LOG3 DUP1 SWAP3 POP POP POP SWAP2 SWAP1 POP JUMP JUMPDEST PUSH0 DUP1 PUSH20 0xFFFFFFFFFFFFFFFFFFFFFFFFFFFFFFFFFFFFFFFF AND DUP3 PUSH20 0xFFFFFFFFFFFFFFFFFFFFFFFFFFFFFFFFFFFFFFFF AND EQ DUP1 PUSH2 0xC07 JUMPI POP PUSH0 DUP3 PUSH20 0xFFFFFFFFFFFFFFFFFFFFFFFFFFFFFFFFFFFFFFFF AND EXTCODESIZE EQ JUMPDEST ISZERO PUSH2 0xC14 JUMPI PUSH0 SWAP1 POP PUSH2 0xC19 JUMP JUMPDEST PUSH1 0x1 SWAP1 POP JUMPDEST SWAP2 SWAP1 POP JUMP JUMPDEST DUP2 PUSH20 0xFFFFFFFFFFFFFFFFFFFFFFFFFFFFFFFFFFFFFFFF AND PUSH4 0x23B872DD CALLER ADDRESS DUP5 PUSH1 0x40 MLOAD DUP5 PUSH4 0xFFFFFFFF AND PUSH1 0xE0 SHL DUP2 MSTORE PUSH1 0x4 ADD PUSH2 0xC5B SWAP4 SWAP3 SWAP2 SWAP1 PUSH2 0x1321 JUMP JUMPDEST PUSH1 0x20 PUSH1 0x40 MLOAD DUP1 DUP4 SUB DUP2 PUSH0 DUP8 GAS CALL ISZERO DUP1 ISZERO PUSH2 0xC77 JUMPI RETURNDATASIZE PUSH0 DUP1 RETURNDATACOPY RETURNDATASIZE PUSH0 REVERT JUMPDEST POP POP POP POP PUSH1 0x40 MLOAD RETURNDATASIZE PUSH1 0x1F NOT PUSH1 0x1F DUP3 ADD AND DUP3 ADD DUP1 PUSH1 0x40 MSTORE POP DUP2 ADD SWAP1 PUSH2 0xC9B SWAP2 SWAP1 PUSH2 0x12F6 JUMP JUMPDEST POP POP POP JUMP JUMPDEST PUSH0 DUP1 REVERT JUMPDEST PUSH0 PUSH20 0xFFFFFFFFFFFFFFFFFFFFFFFFFFFFFFFFFFFFFFFF DUP3 AND SWAP1 POP SWAP2 SWAP1 POP JUMP JUMPDEST PUSH0 PUSH2 0xCCD DUP3 PUSH2 0xCA4 JUMP JUMPDEST SWAP1 POP SWAP2 SWAP1 POP JUMP JUMPDEST PUSH2 0xCDD DUP2 PUSH2 0xCC3 JUMP JUMPDEST DUP2 EQ PUSH2 0xCE7 JUMPI PUSH0 DUP1 REVERT JUMPDEST POP JUMP JUMPDEST PUSH0 DUP2 CALLDATALOAD SWAP1 POP PUSH2 0xCF8 DUP2 PUSH2 0xCD4 JUMP JUMPDEST SWAP3 SWAP2 POP POP JUMP JUMPDEST PUSH0 DUP1 PUSH1 0x40 DUP4 DUP6 SUB SLT ISZERO PUSH2 0xD14 JUMPI PUSH2 0xD13 PUSH2 0xCA0 JUMP JUMPDEST JUMPDEST PUSH0 PUSH2 0xD21 DUP6 DUP3 DUP7 ADD PUSH2 0xCEA JUMP JUMPDEST SWAP3 POP POP PUSH1 0x20 PUSH2 0xD32 DUP6 DUP3 DUP7 ADD PUSH2 0xCEA JUMP JUMPDEST SWAP2 POP POP SWAP3 POP SWAP3 SWAP1 POP JUMP JUMPDEST PUSH0 DUP2 SWAP1 POP SWAP2 SWAP1 POP JUMP JUMPDEST PUSH2 0xD4E DUP2 PUSH2 0xD3C JUMP JUMPDEST DUP3 MSTORE POP POP JUMP JUMPDEST PUSH0 PUSH1 0x20 DUP3 ADD SWAP1 POP PUSH2 0xD67 PUSH0 DUP4 ADD DUP5 PUSH2 0xD45 JUMP JUMPDEST SWAP3 SWAP2 POP POP JUMP JUMPDEST PUSH0 PUSH1 0x60 DUP3 ADD SWAP1 POP PUSH2 0xD80 PUSH0 DUP4 ADD DUP7 PUSH2 0xD45 JUMP JUMPDEST PUSH2 0xD8D PUSH1 0x20 DUP4 ADD DUP6 PUSH2 0xD45 JUMP JUMPDEST PUSH2 0xD9A PUSH1 0x40 DUP4 ADD DUP5 PUSH2 0xD45 JUMP JUMPDEST SWAP5 SWAP4 POP POP POP POP JUMP JUMPDEST PUSH2 0xDAB DUP2 PUSH2 0xD3C JUMP JUMPDEST DUP2 EQ PUSH2 0xDB5 JUMPI PUSH0 DUP1 REVERT JUMPDEST POP JUMP JUMPDEST PUSH0 DUP2 CALLDATALOAD SWAP1 POP PUSH2 0xDC6 DUP2 PUSH2 0xDA2 JUMP JUMPDEST SWAP3 SWAP2 POP POP JUMP JUMPDEST PUSH0 DUP1 PUSH0 DUP1 PUSH1 0x80 DUP6 DUP8 SUB SLT ISZERO PUSH2 0xDE4 JUMPI PUSH2 0xDE3 PUSH2 0xCA0 JUMP JUMPDEST JUMPDEST PUSH0 PUSH2 0xDF1 DUP8 DUP3 DUP9 ADD PUSH2 0xCEA JUMP JUMPDEST SWAP5 POP POP PUSH1 0x20 PUSH2 0xE02 DUP8 DUP3 DUP9 ADD PUSH2 0xCEA JUMP JUMPDEST SWAP4 POP POP PUSH1 0x40 PUSH2 0xE13 DUP8 DUP3 DUP9 ADD PUSH2 0xDB8 JUMP JUMPDEST SWAP3 POP POP PUSH1 0x60 PUSH2 0xE24 DUP8 DUP3 DUP9 ADD PUSH2 0xDB8 JUMP JUMPDEST SWAP2 POP POP SWAP3 SWAP6 SWAP2 SWAP5 POP SWAP3 POP JUMP JUMPDEST PUSH0 PUSH1 0x20 DUP3 DUP5 SUB SLT ISZERO PUSH2 0xE45 JUMPI PUSH2 0xE44 PUSH2 0xCA0 JUMP JUMPDEST JUMPDEST PUSH0 PUSH2 0xE52 DUP5 DUP3 DUP6 ADD PUSH2 0xCEA JUMP JUMPDEST SWAP2 POP POP SWAP3 SWAP2 POP POP JUMP JUMPDEST PUSH2 0xE64 DUP2 PUSH2 0xCC3 JUMP JUMPDEST DUP3 MSTORE POP POP JUMP JUMPDEST PUSH0 PUSH1 0x40 DUP3 ADD SWAP1 POP PUSH2 0xE7D PUSH0 DUP4 ADD DUP6 PUSH2 0xE5B JUMP JUMPDEST PUSH2 0xE8A PUSH1 0x20 DUP4 ADD DUP5 PUSH2 0xE5B JUMP JUMPDEST SWAP4 SWAP3 POP POP POP JUMP JUMPDEST PUSH0 PUSH1 0x20 DUP3 ADD SWAP1 POP PUSH2 0xEA4 PUSH0 DUP4 ADD DUP5 PUSH2 0xE5B JUMP JUMPDEST SWAP3 SWAP2 POP POP JUMP JUMPDEST PUSH0 DUP2 MLOAD SWAP1 POP PUSH2 0xEB8 DUP2 PUSH2 0xDA2 JUMP JUMPDEST SWAP3 SWAP2 POP POP JUMP JUMPDEST PUSH0 PUSH1 0x20 DUP3 DUP5 SUB SLT ISZERO PUSH2 0xED3 JUMPI PUSH2 0xED2 PUSH2 0xCA0 JUMP JUMPDEST JUMPDEST PUSH0 PUSH2 0xEE0 DUP5 DUP3 DUP6 ADD PUSH2 0xEAA JUMP JUMPDEST SWAP2 POP POP SWAP3 SWAP2 POP POP JUMP JUMPDEST PUSH32 0x4E487B7100000000000000000000000000000000000000000000000000000000 PUSH0 MSTORE PUSH1 0x11 PUSH1 0x4 MSTORE PUSH1 0x24 PUSH0 REVERT JUMPDEST PUSH0 PUSH2 0xF20 DUP3 PUSH2 0xD3C JUMP JUMPDEST SWAP2 POP PUSH2 0xF2B DUP4 PUSH2 0xD3C JUMP JUMPDEST SWAP3 POP DUP3 DUP3 ADD SWAP1 POP DUP1 DUP3 GT ISZERO PUSH2 0xF43 JUMPI PUSH2 0xF42 PUSH2 0xEE9 JUMP JUMPDEST JUMPDEST SWAP3 SWAP2 POP POP JUMP JUMPDEST PUSH0 PUSH2 0xF53 DUP3 PUSH2 0xD3C JUMP JUMPDEST SWAP2 POP PUSH2 0xF5E DUP4 PUSH2 0xD3C JUMP JUMPDEST SWAP3 POP DUP3 DUP3 SUB SWAP1 POP DUP2 DUP2 GT ISZERO PUSH2 0xF76 JUMPI PUSH2 0xF75 PUSH2 0xEE9 JUMP JUMPDEST JUMPDEST SWAP3 SWAP2 POP POP JUMP JUMPDEST PUSH0 PUSH2 0xF86 DUP3 PUSH2 0xD3C JUMP JUMPDEST SWAP2 POP PUSH2 0xF91 DUP4 PUSH2 0xD3C JUMP JUMPDEST SWAP3 POP DUP3 DUP3 MUL PUSH2 0xF9F DUP2 PUSH2 0xD3C JUMP JUMPDEST SWAP2 POP DUP3 DUP3 DIV DUP5 EQ DUP4 ISZERO OR PUSH2 0xFB6 JUMPI PUSH2 0xFB5 PUSH2 0xEE9 JUMP JUMPDEST JUMPDEST POP SWAP3 SWAP2 POP POP JUMP JUMPDEST PUSH32 0x4E487B7100000000000000000000000000000000000000000000000000000000 PUSH0 MSTORE PUSH1 0x12 PUSH1 0x4 MSTORE PUSH1 0x24 PUSH0 REVERT JUMPDEST PUSH0 PUSH2 0xFF4 DUP3 PUSH2 0xD3C JUMP JUMPDEST SWAP2 POP PUSH2 0xFFF DUP4 PUSH2 0xD3C JUMP JUMPDEST SWAP3 POP DUP3 PUSH2 0x100F JUMPI PUSH2 0x100E PUSH2 0xFBD JUMP JUMPDEST JUMPDEST DUP3 DUP3 DIV SWAP1 POP SWAP3 SWAP2 POP POP JUMP JUMPDEST PUSH0 DUP3 DUP3 MSTORE PUSH1 0x20 DUP3 ADD SWAP1 POP SWAP3 SWAP2 POP POP JUMP JUMPDEST PUSH32 0x6572633230206164647265737320696E76616C69640000000000000000000000 PUSH0 DUP3 ADD MSTORE POP JUMP JUMPDEST PUSH0 PUSH2 0x105E PUSH1 0x15 DUP4 PUSH2 0x101A JUMP JUMPDEST SWAP2 POP PUSH2 0x1069 DUP3 PUSH2 0x102A JUMP JUMPDEST PUSH1 0x20 DUP3 ADD SWAP1 POP SWAP2 SWAP1 POP JUMP JUMPDEST PUSH0 PUSH1 0x20 DUP3 ADD SWAP1 POP DUP2 DUP2 SUB PUSH0 DUP4 ADD MSTORE PUSH2 0x108B DUP2 PUSH2 0x1052 JUMP JUMPDEST SWAP1 POP SWAP2 SWAP1 POP JUMP JUMPDEST PUSH32 0x62656E656669636961727920696E76616C696400000000000000000000000000 PUSH0 DUP3 ADD MSTORE POP JUMP JUMPDEST PUSH0 PUSH2 0x10C6 PUSH1 0x13 DUP4 PUSH2 0x101A JUMP JUMPDEST SWAP2 POP PUSH2 0x10D1 DUP3 PUSH2 0x1092 JUMP JUMPDEST PUSH1 0x20 DUP3 ADD SWAP1 POP SWAP2 SWAP1 POP JUMP JUMPDEST PUSH0 PUSH1 0x20 DUP3 ADD SWAP1 POP DUP2 DUP2 SUB PUSH0 DUP4 ADD MSTORE PUSH2 0x10F3 DUP2 PUSH2 0x10BA JUMP JUMPDEST SWAP1 POP SWAP2 SWAP1 POP JUMP JUMPDEST PUSH32 0x616D6F756E74207A65726F000000000000000000000000000000000000000000 PUSH0 DUP3 ADD MSTORE POP JUMP JUMPDEST PUSH0 PUSH2 0x112E PUSH1 0xB DUP4 PUSH2 0x101A JUMP JUMPDEST SWAP2 POP PUSH2 0x1139 DUP3 PUSH2 0x10FA JUMP JUMPDEST PUSH1 0x20 DUP3 ADD SWAP1 POP SWAP2 SWAP1 POP JUMP JUMPDEST PUSH0 PUSH1 0x20 DUP3 ADD SWAP1 POP DUP2 DUP2 SUB PUSH0 DUP4 ADD MSTORE PUSH2 0x115B DUP2 PUSH2 0x1122 JUMP JUMPDEST SWAP1 POP SWAP2 SWAP1 POP JUMP JUMPDEST PUSH32 0x6475726174696F6E207A65726F00000000000000000000000000000000000000 PUSH0 DUP3 ADD MSTORE POP JUMP JUMPDEST PUSH0 PUSH2 0x1196 PUSH1 0xD DUP4 PUSH2 0x101A JUMP JUMPDEST SWAP2 POP PUSH2 0x11A1 DUP3 PUSH2 0x1162 JUMP JUMPDEST PUSH1 0x20 DUP3 ADD SWAP1 POP SWAP2 SWAP1 POP JUMP JUMPDEST PUSH0 PUSH1 0x20 DUP3 ADD SWAP1 POP DUP2 DUP2 SUB PUSH0 DUP4 ADD MSTORE PUSH2 0x11C3 DUP2 PUSH2 0x118A JUMP JUMPDEST SWAP1 POP SWAP2 SWAP1 POP JUMP JUMPDEST PUSH32 0x62656E6566696369617279206578697374730000000000000000000000000000 PUSH0 DUP3 ADD MSTORE POP JUMP JUMPDEST PUSH0 PUSH2 0x11FE PUSH1 0x12 DUP4 PUSH2 0x101A JUMP JUMPDEST SWAP2 POP PUSH2 0x1209 DUP3 PUSH2 0x11CA JUMP JUMPDEST PUSH1 0x20 DUP3 ADD SWAP1 POP SWAP2 SWAP1 POP JUMP JUMPDEST PUSH0 PUSH1 0x20 DUP3 ADD SWAP1 POP DUP2 DUP2 SUB PUSH0 DUP4 ADD MSTORE PUSH2 0x122B DUP2 PUSH2 0x11F2 JUMP JUMPDEST SWAP1 POP SWAP2 SWAP1 POP JUMP JUMPDEST PUSH32 0x72656C65617365416D6F756E74207A65726F0000000000000000000000000000 PUSH0 DUP3 ADD MSTORE POP JUMP JUMPDEST PUSH0 PUSH2 0x1266 PUSH1 0x12 DUP4 PUSH2 0x101A JUMP JUMPDEST SWAP2 POP PUSH2 0x1271 DUP3 PUSH2 0x1232 JUMP JUMPDEST PUSH1 0x20 DUP3 ADD SWAP1 POP SWAP2 SWAP1 POP JUMP JUMPDEST PUSH0 PUSH1 0x20 DUP3 ADD SWAP1 POP DUP2 DUP2 SUB PUSH0 DUP4 ADD MSTORE PUSH2 0x1293 DUP2 PUSH2 0x125A JUMP JUMPDEST SWAP1 POP SWAP2 SWAP1 POP JUMP JUMPDEST PUSH0 PUSH1 0x40 DUP3 ADD SWAP1 POP PUSH2 0x12AD PUSH0 DUP4 ADD DUP6 PUSH2 0xE5B JUMP JUMPDEST PUSH2 0x12BA PUSH1 0x20 DUP4 ADD DUP5 PUSH2 0xD45 JUMP JUMPDEST SWAP4 SWAP3 POP POP POP JUMP JUMPDEST PUSH0 DUP2 ISZERO ISZERO SWAP1 POP SWAP2 SWAP1 POP JUMP JUMPDEST PUSH2 0x12D5 DUP2 PUSH2 0x12C1 JUMP JUMPDEST DUP2 EQ PUSH2 0x12DF JUMPI PUSH0 DUP1 REVERT JUMPDEST POP JUMP JUMPDEST PUSH0 DUP2 MLOAD SWAP1 POP PUSH2 0x12F0 DUP2 PUSH2 0x12CC JUMP JUMPDEST SWAP3 SWAP2 POP POP JUMP JUMPDEST PUSH0 PUSH1 0x20 DUP3 DUP5 SUB SLT ISZERO PUSH2 0x130B JUMPI PUSH2 0x130A PUSH2 0xCA0 JUMP JUMPDEST JUMPDEST PUSH0 PUSH2 0x1318 DUP5 DUP3 DUP6 ADD PUSH2 0x12E2 JUMP JUMPDEST SWAP2 POP POP SWAP3 SWAP2 POP POP JUMP JUMPDEST PUSH0 PUSH1 0x60 DUP3 ADD SWAP1 POP PUSH2 0x1334 PUSH0 DUP4 ADD DUP7 PUSH2 0xE5B JUMP JUMPDEST PUSH2 0x1341 PUSH1 0x20 DUP4 ADD DUP6 PUSH2 0xE5B JUMP JUMPDEST PUSH2 0x134E PUSH1 0x40 DUP4 ADD DUP5 PUSH2 0xD45 JUMP JUMPDEST SWAP5 SWAP4 POP POP POP POP JUMP INVALID LOG2 PUSH5 0x6970667358 0x22 SLT KECCAK256 SDIV EXTCODESIZE PUSH2 0xB29A SUB 0x26 SWAP15 CALLCODE ISZERO MLOAD 0xE1 BYTE 0xEA BLOCKHASH 0xF6 CODESIZE 0xE7 DUP11 LOG0 SUB RETURNDATACOPY 0xC4 0xCD DUP14 LOG1 0xB9 0xC1 0xD4 0xAA MULMOD ORIGIN PUSH5 0x736F6C6343 STOP ADDMOD BYTE STOP CALLER "
				},
				"gasEstimates": {
					"creation": {
						"codeDepositCost": "1000800",
						"executionCost": "1039",
						"totalCost": "1001839"
					},
					"external": {
						"addBeneficiaryInfo(address,address,uint256,uint256)": "infinite",
						"calcReleaseAmount(address,address)": "infinite",
						"releaseBeneficiary(address)": "3517",
						"tokenBeneficiaryInfo(address,address)": "infinite"
					},
					"internal": {
						"_checkERC20(address)": "2708",
						"_transfer(address,uint256)": "infinite"
					}
				},
				"methodIdentifiers": {
					"addBeneficiaryInfo(address,address,uint256,uint256)": "4c31fdc8",
					"calcReleaseAmount(address,address)": "0f4e099b",
					"releaseBeneficiary(address)": "cd97efa8",
					"tokenBeneficiaryInfo(address,address)": "282d2d9a"
				}
			},
			"storageLayout": {
				"storage": [
					{
						"astId": 120,
						"contract": "contracts/token/TokenVesting.sol:TokenVesting",
						"label": "tokenBeneficiaryInfo",
						"offset": 0,
						"slot": "0",
						"type": "t_mapping(t_address,t_mapping(t_address,t_struct(BeneficiaryInfo)113_storage))"
					}
				],
				"types": {
					"t_address": {
						"encoding": "inplace",
						"label": "address",
						"numberOfBytes": "20"
					},
					"t_mapping(t_address,t_mapping(t_address,t_struct(BeneficiaryInfo)113_storage))": {
						"encoding": "mapping",
						"key": "t_address",
						"label": "mapping(address => mapping(address => struct TokenVesting.BeneficiaryInfo))",
						"numberOfBytes": "32",
						"value": "t_mapping(t_address,t_struct(BeneficiaryInfo)113_storage)"
					},
					"t_mapping(t_address,t_struct(BeneficiaryInfo)113_storage)": {
						"encoding": "mapping",
						"key": "t_address",
						"label": "mapping(address => struct TokenVesting.BeneficiaryInfo)",
						"numberOfBytes": "32",
						"value": "t_struct(BeneficiaryInfo)113_storage"
					},
					"t_struct(BeneficiaryInfo)113_storage": {
						"encoding": "inplace",
						"label": "struct TokenVesting.BeneficiaryInfo",
						"members": [
							{
								"astId": 108,
								"contract": "contracts/token/TokenVesting.sol:TokenVesting",
								"label": "start",
								"offset": 0,
								"slot": "0",
								"type": "t_uint256"
							},
							{
								"astId": 110,
								"contract": "contracts/token/TokenVesting.sol:TokenVesting",
								"label": "duration",
								"offset": 0,
								"slot": "1",
								"type": "t_uint256"
							},
							{
								"astId": 112,
								"contract": "contracts/token/TokenVesting.sol:TokenVesting",
								"label": "released",
								"offset": 0,
								"slot": "2",
								"type": "t_uint256"
							}
						],
						"numberOfBytes": "96"
					},
					"t_uint256": {
						"encoding": "inplace",
						"label": "uint256",
						"numberOfBytes": "32"
					}
				}
			},
			"userdoc": {
				"kind": "user",
				"methods": {},
				"version": 1
			}
		}
	}
}