{
	"contracts/proxy/EIP2535/LogicOneFacet.sol": {
		"LogicOneFacet": {
			"abi": [
				{
					"inputs": [],
					"name": "decreMyCounter",
					"outputs": [
						{
							"internalType": "bool",
							"name": "",
							"type": "bool"
						}
					],
					"stateMutability": "nonpayable",
					"type": "function"
				},
				{
					"inputs": [],
					"name": "getMyCounter",
					"outputs": [
						{
							"internalType": "uint256",
							"name": "",
							"type": "uint256"
						}
					],
					"stateMutability": "view",
					"type": "function"
				},
				{
					"inputs": [],
					"name": "increMyCounter",
					"outputs": [
						{
							"internalType": "bool",
							"name": "",
							"type": "bool"
						}
					],
					"stateMutability": "nonpayable",
					"type": "function"
				},
				{
					"inputs": [
						{
							"internalType": "uint256",
							"name": "_num",
							"type": "uint256"
						}
					],
					"name": "setMyCounter",
					"outputs": [
						{
							"internalType": "bool",
							"name": "",
							"type": "bool"
						}
					],
					"stateMutability": "nonpayable",
					"type": "function"
				}
			],
			"devdoc": {
				"kind": "dev",
				"methods": {},
				"version": 1
			},
			"evm": {
				"assembly": "    /* \"contracts/proxy/EIP2535/LogicOneFacet.sol\":172:1075  contract LogicOneFacet {... */\n  mstore(0x40, 0x80)\n  callvalue\n  dup1\n  iszero\n  tag_1\n  jumpi\n  0x00\n  dup1\n  revert\ntag_1:\n  pop\n  dataSize(sub_0)\n  dup1\n  dataOffset(sub_0)\n  0x00\n  codecopy\n  0x00\n  return\nstop\n\nsub_0: assembly {\n        /* \"contracts/proxy/EIP2535/LogicOneFacet.sol\":172:1075  contract LogicOneFacet {... */\n      mstore(0x40, 0x80)\n      callvalue\n      dup1\n      iszero\n      tag_1\n      jumpi\n      0x00\n      dup1\n      revert\n    tag_1:\n      pop\n      jumpi(tag_2, lt(calldatasize, 0x04))\n      shr(0xe0, calldataload(0x00))\n      dup1\n      0x5cfe3420\n      eq\n      tag_3\n      jumpi\n      dup1\n      0x6c65a62f\n      eq\n      tag_4\n      jumpi\n      dup1\n      0x8783cf49\n      eq\n      tag_5\n      jumpi\n      dup1\n      0x916d5743\n      eq\n      tag_6\n      jumpi\n    tag_2:\n      0x00\n      dup1\n      revert\n        /* \"contracts/proxy/EIP2535/LogicOneFacet.sol\":445:573  function setMyCounter(uint256 _num) external returns (bool) {... */\n    tag_3:\n      tag_7\n      0x04\n      dup1\n      calldatasize\n      sub\n      dup2\n      add\n      swap1\n      tag_8\n      swap2\n      swap1\n      tag_9\n      jump\t// in\n    tag_8:\n      tag_10\n      jump\t// in\n    tag_7:\n      mload(0x40)\n      tag_11\n      swap2\n      swap1\n      tag_12\n      jump\t// in\n    tag_11:\n      mload(0x40)\n      dup1\n      swap2\n      sub\n      swap1\n      return\n        /* \"contracts/proxy/EIP2535/LogicOneFacet.sol\":696:919  function decreMyCounter() external virtual returns (bool) {... */\n    tag_4:\n      tag_13\n      tag_14\n      jump\t// in\n    tag_13:\n      mload(0x40)\n      tag_15\n      swap2\n      swap1\n      tag_12\n      jump\t// in\n    tag_15:\n      mload(0x40)\n      dup1\n      swap2\n      sub\n      swap1\n      return\n        /* \"contracts/proxy/EIP2535/LogicOneFacet.sol\":578:691  function increMyCounter() external returns (bool) {... */\n    tag_5:\n      tag_16\n      tag_17\n      jump\t// in\n    tag_16:\n      mload(0x40)\n      tag_18\n      swap2\n      swap1\n      tag_12\n      jump\t// in\n    tag_18:\n      mload(0x40)\n      dup1\n      swap2\n      sub\n      swap1\n      return\n        /* \"contracts/proxy/EIP2535/LogicOneFacet.sol\":337:440  function getMyCounter() external view returns (uint256) {... */\n    tag_6:\n      tag_19\n      tag_20\n      jump\t// in\n    tag_19:\n      mload(0x40)\n      tag_21\n      swap2\n      swap1\n      tag_22\n      jump\t// in\n    tag_21:\n      mload(0x40)\n      dup1\n      swap2\n      sub\n      swap1\n      return\n        /* \"contracts/proxy/EIP2535/LogicOneFacet.sol\":445:573  function setMyCounter(uint256 _num) external returns (bool) {... */\n    tag_10:\n        /* \"contracts/proxy/EIP2535/LogicOneFacet.sol\":499:503  bool */\n      0x00\n        /* \"contracts/proxy/EIP2535/LogicOneFacet.sol\":541:545  _num */\n      dup2\n        /* \"contracts/proxy/EIP2535/LogicOneFacet.sol\":515:532  _getCounterSlot() */\n      tag_24\n        /* \"contracts/proxy/EIP2535/LogicOneFacet.sol\":515:530  _getCounterSlot */\n      tag_25\n        /* \"contracts/proxy/EIP2535/LogicOneFacet.sol\":515:532  _getCounterSlot() */\n      jump\t// in\n    tag_24:\n        /* \"contracts/proxy/EIP2535/LogicOneFacet.sol\":515:538  _getCounterSlot().value */\n      0x00\n      add\n        /* \"contracts/proxy/EIP2535/LogicOneFacet.sol\":515:545  _getCounterSlot().value = _num */\n      dup2\n      swap1\n      sstore\n      pop\n        /* \"contracts/proxy/EIP2535/LogicOneFacet.sol\":562:566  true */\n      0x01\n        /* \"contracts/proxy/EIP2535/LogicOneFacet.sol\":555:566  return true */\n      swap1\n      pop\n        /* \"contracts/proxy/EIP2535/LogicOneFacet.sol\":445:573  function setMyCounter(uint256 _num) external returns (bool) {... */\n      swap2\n      swap1\n      pop\n      jump\t// out\n        /* \"contracts/proxy/EIP2535/LogicOneFacet.sol\":696:919  function decreMyCounter() external virtual returns (bool) {... */\n    tag_14:\n        /* \"contracts/proxy/EIP2535/LogicOneFacet.sol\":748:752  bool */\n      0x00\n        /* \"contracts/proxy/EIP2535/LogicOneFacet.sol\":794:795  1 */\n      0x01\n        /* \"contracts/proxy/EIP2535/LogicOneFacet.sol\":768:785  _getCounterSlot() */\n      tag_27\n        /* \"contracts/proxy/EIP2535/LogicOneFacet.sol\":768:783  _getCounterSlot */\n      tag_25\n        /* \"contracts/proxy/EIP2535/LogicOneFacet.sol\":768:785  _getCounterSlot() */\n      jump\t// in\n    tag_27:\n        /* \"contracts/proxy/EIP2535/LogicOneFacet.sol\":768:791  _getCounterSlot().value */\n      0x00\n      add\n      sload\n        /* \"contracts/proxy/EIP2535/LogicOneFacet.sol\":768:795  _getCounterSlot().value > 1 */\n      gt\n        /* \"contracts/proxy/EIP2535/LogicOneFacet.sol\":764:913  if (_getCounterSlot().value > 1){... */\n      iszero\n      tag_28\n      jumpi\n        /* \"contracts/proxy/EIP2535/LogicOneFacet.sol\":810:827  _getCounterSlot() */\n      tag_29\n        /* \"contracts/proxy/EIP2535/LogicOneFacet.sol\":810:825  _getCounterSlot */\n      tag_25\n        /* \"contracts/proxy/EIP2535/LogicOneFacet.sol\":810:827  _getCounterSlot() */\n      jump\t// in\n    tag_29:\n        /* \"contracts/proxy/EIP2535/LogicOneFacet.sol\":810:833  _getCounterSlot().value */\n      0x00\n      add\n      0x00\n        /* \"contracts/proxy/EIP2535/LogicOneFacet.sol\":810:835  _getCounterSlot().value-- */\n      dup2\n      sload\n      dup1\n      swap3\n      swap2\n      swap1\n      tag_30\n      swap1\n      tag_31\n      jump\t// in\n    tag_30:\n      swap2\n      swap1\n      pop\n      sstore\n      pop\n        /* \"contracts/proxy/EIP2535/LogicOneFacet.sol\":856:860  true */\n      0x01\n        /* \"contracts/proxy/EIP2535/LogicOneFacet.sol\":849:860  return true */\n      swap1\n      pop\n      jump(tag_26)\n        /* \"contracts/proxy/EIP2535/LogicOneFacet.sol\":764:913  if (_getCounterSlot().value > 1){... */\n    tag_28:\n        /* \"contracts/proxy/EIP2535/LogicOneFacet.sol\":897:902  false */\n      0x00\n        /* \"contracts/proxy/EIP2535/LogicOneFacet.sol\":890:902  return false */\n      swap1\n      pop\n        /* \"contracts/proxy/EIP2535/LogicOneFacet.sol\":696:919  function decreMyCounter() external virtual returns (bool) {... */\n    tag_26:\n      swap1\n      jump\t// out\n        /* \"contracts/proxy/EIP2535/LogicOneFacet.sol\":578:691  function increMyCounter() external returns (bool) {... */\n    tag_17:\n        /* \"contracts/proxy/EIP2535/LogicOneFacet.sol\":622:626  bool */\n      0x00\n        /* \"contracts/proxy/EIP2535/LogicOneFacet.sol\":638:655  _getCounterSlot() */\n      tag_34\n        /* \"contracts/proxy/EIP2535/LogicOneFacet.sol\":638:653  _getCounterSlot */\n      tag_25\n        /* \"contracts/proxy/EIP2535/LogicOneFacet.sol\":638:655  _getCounterSlot() */\n      jump\t// in\n    tag_34:\n        /* \"contracts/proxy/EIP2535/LogicOneFacet.sol\":638:661  _getCounterSlot().value */\n      0x00\n      add\n      0x00\n        /* \"contracts/proxy/EIP2535/LogicOneFacet.sol\":638:663  _getCounterSlot().value++ */\n      dup2\n      sload\n      dup1\n      swap3\n      swap2\n      swap1\n      tag_35\n      swap1\n      tag_36\n      jump\t// in\n    tag_35:\n      swap2\n      swap1\n      pop\n      sstore\n      pop\n        /* \"contracts/proxy/EIP2535/LogicOneFacet.sol\":680:684  true */\n      0x01\n        /* \"contracts/proxy/EIP2535/LogicOneFacet.sol\":673:684  return true */\n      swap1\n      pop\n        /* \"contracts/proxy/EIP2535/LogicOneFacet.sol\":578:691  function increMyCounter() external returns (bool) {... */\n      swap1\n      jump\t// out\n        /* \"contracts/proxy/EIP2535/LogicOneFacet.sol\":337:440  function getMyCounter() external view returns (uint256) {... */\n    tag_20:\n        /* \"contracts/proxy/EIP2535/LogicOneFacet.sol\":384:391  uint256 */\n      0x00\n        /* \"contracts/proxy/EIP2535/LogicOneFacet.sol\":410:427  _getCounterSlot() */\n      tag_38\n        /* \"contracts/proxy/EIP2535/LogicOneFacet.sol\":410:425  _getCounterSlot */\n      tag_25\n        /* \"contracts/proxy/EIP2535/LogicOneFacet.sol\":410:427  _getCounterSlot() */\n      jump\t// in\n    tag_38:\n        /* \"contracts/proxy/EIP2535/LogicOneFacet.sol\":410:433  _getCounterSlot().value */\n      0x00\n      add\n      sload\n        /* \"contracts/proxy/EIP2535/LogicOneFacet.sol\":403:433  return _getCounterSlot().value */\n      swap1\n      pop\n        /* \"contracts/proxy/EIP2535/LogicOneFacet.sol\":337:440  function getMyCounter() external view returns (uint256) {... */\n      swap1\n      jump\t// out\n        /* \"contracts/proxy/EIP2535/LogicOneFacet.sol\":924:1073  function _getCounterSlot() internal  pure returns (StorageSlot.Uint256Slot storage) {... */\n    tag_25:\n        /* \"contracts/proxy/EIP2535/LogicOneFacet.sol\":975:1006  StorageSlot.Uint256Slot storage */\n      0x00\n        /* \"contracts/proxy/EIP2535/LogicOneFacet.sol\":1025:1066  MY_COUNTER.erc7201Slot().getUint256Slot() */\n      tag_40\n        /* \"contracts/proxy/EIP2535/LogicOneFacet.sol\":1025:1049  MY_COUNTER.erc7201Slot() */\n      tag_41\n        /* \"contracts/proxy/EIP2535/LogicOneFacet.sol\":1025:1035  MY_COUNTER */\n      mload(0x40)\n      dup1\n      0x40\n      add\n      0x40\n      mstore\n      dup1\n      0x1d\n      dup2\n      mstore\n      0x20\n      add\n      0x656970323533352e4c6f6769634f6e6546616365742e636f756e746572000000\n      dup2\n      mstore\n      pop\n        /* \"contracts/proxy/EIP2535/LogicOneFacet.sol\":1025:1047  MY_COUNTER.erc7201Slot */\n      tag_42\n        /* \"contracts/proxy/EIP2535/LogicOneFacet.sol\":1025:1049  MY_COUNTER.erc7201Slot() */\n      jump\t// in\n    tag_41:\n        /* \"contracts/proxy/EIP2535/LogicOneFacet.sol\":1025:1064  MY_COUNTER.erc7201Slot().getUint256Slot */\n      tag_43\n        /* \"contracts/proxy/EIP2535/LogicOneFacet.sol\":1025:1066  MY_COUNTER.erc7201Slot().getUint256Slot() */\n      jump\t// in\n    tag_40:\n        /* \"contracts/proxy/EIP2535/LogicOneFacet.sol\":1018:1066  return MY_COUNTER.erc7201Slot().getUint256Slot() */\n      swap1\n      pop\n        /* \"contracts/proxy/EIP2535/LogicOneFacet.sol\":924:1073  function _getCounterSlot() internal  pure returns (StorageSlot.Uint256Slot storage) {... */\n      swap1\n      jump\t// out\n        /* \"@openzeppelin/contracts/utils/SlotDerivation.sol\":1706:1983  function erc7201Slot(string memory namespace) internal pure returns (bytes32 slot) {... */\n    tag_42:\n        /* \"@openzeppelin/contracts/utils/SlotDerivation.sol\":1775:1787  bytes32 slot */\n      0x00\n        /* \"@openzeppelin/contracts/utils/SlotDerivation.sol\":1906:1907  1 */\n      0x01\n        /* \"@openzeppelin/contracts/utils/SlotDerivation.sol\":1893:1902  namespace */\n      dup3\n        /* \"@openzeppelin/contracts/utils/SlotDerivation.sol\":1887:1903  mload(namespace) */\n      mload\n        /* \"@openzeppelin/contracts/utils/SlotDerivation.sol\":1880:1884  0x20 */\n      0x20\n        /* \"@openzeppelin/contracts/utils/SlotDerivation.sol\":1869:1878  namespace */\n      dup5\n        /* \"@openzeppelin/contracts/utils/SlotDerivation.sol\":1865:1885  add(namespace, 0x20) */\n      add\n        /* \"@openzeppelin/contracts/utils/SlotDerivation.sol\":1855:1904  keccak256(add(namespace, 0x20), mload(namespace)) */\n      keccak256\n        /* \"@openzeppelin/contracts/utils/SlotDerivation.sol\":1851:1908  sub(keccak256(add(namespace, 0x20), mload(namespace)), 1) */\n      sub\n        /* \"@openzeppelin/contracts/utils/SlotDerivation.sol\":1845:1849  0x00 */\n      0x00\n        /* \"@openzeppelin/contracts/utils/SlotDerivation.sol\":1838:1909  mstore(0x00, sub(keccak256(add(namespace, 0x20), mload(namespace)), 1)) */\n      mstore\n        /* \"@openzeppelin/contracts/utils/SlotDerivation.sol\":1961:1965  0xff */\n      0xff\n        /* \"@openzeppelin/contracts/utils/SlotDerivation.sol\":1957:1966  not(0xff) */\n      not\n        /* \"@openzeppelin/contracts/utils/SlotDerivation.sol\":1950:1954  0x20 */\n      0x20\n        /* \"@openzeppelin/contracts/utils/SlotDerivation.sol\":1944:1948  0x00 */\n      0x00\n        /* \"@openzeppelin/contracts/utils/SlotDerivation.sol\":1934:1955  keccak256(0x00, 0x20) */\n      keccak256\n        /* \"@openzeppelin/contracts/utils/SlotDerivation.sol\":1930:1967  and(keccak256(0x00, 0x20), not(0xff)) */\n      and\n        /* \"@openzeppelin/contracts/utils/SlotDerivation.sol\":1922:1967  slot := and(keccak256(0x00, 0x20), not(0xff)) */\n      swap1\n      pop\n        /* \"@openzeppelin/contracts/utils/SlotDerivation.sol\":1706:1983  function erc7201Slot(string memory namespace) internal pure returns (bytes32 slot) {... */\n      swap2\n      swap1\n      pop\n      jump\t// out\n        /* \"@openzeppelin/contracts/utils/StorageSlot.sol\":2679:2842  function getUint256Slot(bytes32 slot) internal pure returns (Uint256Slot storage r) {... */\n    tag_43:\n        /* \"@openzeppelin/contracts/utils/StorageSlot.sol\":2740:2761  Uint256Slot storage r */\n      0x00\n        /* \"@openzeppelin/contracts/utils/StorageSlot.sol\":2822:2826  slot */\n      dup2\n        /* \"@openzeppelin/contracts/utils/StorageSlot.sol\":2812:2826  r.slot := slot */\n      swap1\n      pop\n        /* \"@openzeppelin/contracts/utils/StorageSlot.sol\":2679:2842  function getUint256Slot(bytes32 slot) internal pure returns (Uint256Slot storage r) {... */\n      swap2\n      swap1\n      pop\n      jump\t// out\n        /* \"#utility.yul\":88:205   */\n    tag_47:\n        /* \"#utility.yul\":197:198   */\n      0x00\n        /* \"#utility.yul\":194:195   */\n      dup1\n        /* \"#utility.yul\":187:199   */\n      revert\n        /* \"#utility.yul\":334:411   */\n    tag_49:\n        /* \"#utility.yul\":371:378   */\n      0x00\n        /* \"#utility.yul\":400:405   */\n      dup2\n        /* \"#utility.yul\":389:405   */\n      swap1\n      pop\n        /* \"#utility.yul\":334:411   */\n      swap2\n      swap1\n      pop\n      jump\t// out\n        /* \"#utility.yul\":417:539   */\n    tag_50:\n        /* \"#utility.yul\":490:514   */\n      tag_62\n        /* \"#utility.yul\":508:513   */\n      dup2\n        /* \"#utility.yul\":490:514   */\n      tag_49\n      jump\t// in\n    tag_62:\n        /* \"#utility.yul\":483:488   */\n      dup2\n        /* \"#utility.yul\":480:515   */\n      eq\n        /* \"#utility.yul\":470:533   */\n      tag_63\n      jumpi\n        /* \"#utility.yul\":529:530   */\n      0x00\n        /* \"#utility.yul\":526:527   */\n      dup1\n        /* \"#utility.yul\":519:531   */\n      revert\n        /* \"#utility.yul\":470:533   */\n    tag_63:\n        /* \"#utility.yul\":417:539   */\n      pop\n      jump\t// out\n        /* \"#utility.yul\":545:684   */\n    tag_51:\n        /* \"#utility.yul\":591:596   */\n      0x00\n        /* \"#utility.yul\":629:635   */\n      dup2\n        /* \"#utility.yul\":616:636   */\n      calldataload\n        /* \"#utility.yul\":607:636   */\n      swap1\n      pop\n        /* \"#utility.yul\":645:678   */\n      tag_65\n        /* \"#utility.yul\":672:677   */\n      dup2\n        /* \"#utility.yul\":645:678   */\n      tag_50\n      jump\t// in\n    tag_65:\n        /* \"#utility.yul\":545:684   */\n      swap3\n      swap2\n      pop\n      pop\n      jump\t// out\n        /* \"#utility.yul\":690:1019   */\n    tag_9:\n        /* \"#utility.yul\":749:755   */\n      0x00\n        /* \"#utility.yul\":798:800   */\n      0x20\n        /* \"#utility.yul\":786:795   */\n      dup3\n        /* \"#utility.yul\":777:784   */\n      dup5\n        /* \"#utility.yul\":773:796   */\n      sub\n        /* \"#utility.yul\":769:801   */\n      slt\n        /* \"#utility.yul\":766:885   */\n      iszero\n      tag_67\n      jumpi\n        /* \"#utility.yul\":804:883   */\n      tag_68\n      tag_47\n      jump\t// in\n    tag_68:\n        /* \"#utility.yul\":766:885   */\n    tag_67:\n        /* \"#utility.yul\":924:925   */\n      0x00\n        /* \"#utility.yul\":949:1002   */\n      tag_69\n        /* \"#utility.yul\":994:1001   */\n      dup5\n        /* \"#utility.yul\":985:991   */\n      dup3\n        /* \"#utility.yul\":974:983   */\n      dup6\n        /* \"#utility.yul\":970:992   */\n      add\n        /* \"#utility.yul\":949:1002   */\n      tag_51\n      jump\t// in\n    tag_69:\n        /* \"#utility.yul\":939:1002   */\n      swap2\n      pop\n        /* \"#utility.yul\":895:1012   */\n      pop\n        /* \"#utility.yul\":690:1019   */\n      swap3\n      swap2\n      pop\n      pop\n      jump\t// out\n        /* \"#utility.yul\":1025:1115   */\n    tag_52:\n        /* \"#utility.yul\":1059:1066   */\n      0x00\n        /* \"#utility.yul\":1102:1107   */\n      dup2\n        /* \"#utility.yul\":1095:1108   */\n      iszero\n        /* \"#utility.yul\":1088:1109   */\n      iszero\n        /* \"#utility.yul\":1077:1109   */\n      swap1\n      pop\n        /* \"#utility.yul\":1025:1115   */\n      swap2\n      swap1\n      pop\n      jump\t// out\n        /* \"#utility.yul\":1121:1230   */\n    tag_53:\n        /* \"#utility.yul\":1202:1223   */\n      tag_72\n        /* \"#utility.yul\":1217:1222   */\n      dup2\n        /* \"#utility.yul\":1202:1223   */\n      tag_52\n      jump\t// in\n    tag_72:\n        /* \"#utility.yul\":1197:1200   */\n      dup3\n        /* \"#utility.yul\":1190:1224   */\n      mstore\n        /* \"#utility.yul\":1121:1230   */\n      pop\n      pop\n      jump\t// out\n        /* \"#utility.yul\":1236:1446   */\n    tag_12:\n        /* \"#utility.yul\":1323:1327   */\n      0x00\n        /* \"#utility.yul\":1361:1363   */\n      0x20\n        /* \"#utility.yul\":1350:1359   */\n      dup3\n        /* \"#utility.yul\":1346:1364   */\n      add\n        /* \"#utility.yul\":1338:1364   */\n      swap1\n      pop\n        /* \"#utility.yul\":1374:1439   */\n      tag_74\n        /* \"#utility.yul\":1436:1437   */\n      0x00\n        /* \"#utility.yul\":1425:1434   */\n      dup4\n        /* \"#utility.yul\":1421:1438   */\n      add\n        /* \"#utility.yul\":1412:1418   */\n      dup5\n        /* \"#utility.yul\":1374:1439   */\n      tag_53\n      jump\t// in\n    tag_74:\n        /* \"#utility.yul\":1236:1446   */\n      swap3\n      swap2\n      pop\n      pop\n      jump\t// out\n        /* \"#utility.yul\":1452:1570   */\n    tag_54:\n        /* \"#utility.yul\":1539:1563   */\n      tag_76\n        /* \"#utility.yul\":1557:1562   */\n      dup2\n        /* \"#utility.yul\":1539:1563   */\n      tag_49\n      jump\t// in\n    tag_76:\n        /* \"#utility.yul\":1534:1537   */\n      dup3\n        /* \"#utility.yul\":1527:1564   */\n      mstore\n        /* \"#utility.yul\":1452:1570   */\n      pop\n      pop\n      jump\t// out\n        /* \"#utility.yul\":1576:1798   */\n    tag_22:\n        /* \"#utility.yul\":1669:1673   */\n      0x00\n        /* \"#utility.yul\":1707:1709   */\n      0x20\n        /* \"#utility.yul\":1696:1705   */\n      dup3\n        /* \"#utility.yul\":1692:1710   */\n      add\n        /* \"#utility.yul\":1684:1710   */\n      swap1\n      pop\n        /* \"#utility.yul\":1720:1791   */\n      tag_78\n        /* \"#utility.yul\":1788:1789   */\n      0x00\n        /* \"#utility.yul\":1777:1786   */\n      dup4\n        /* \"#utility.yul\":1773:1790   */\n      add\n        /* \"#utility.yul\":1764:1770   */\n      dup5\n        /* \"#utility.yul\":1720:1791   */\n      tag_54\n      jump\t// in\n    tag_78:\n        /* \"#utility.yul\":1576:1798   */\n      swap3\n      swap2\n      pop\n      pop\n      jump\t// out\n        /* \"#utility.yul\":1804:1984   */\n    tag_55:\n        /* \"#utility.yul\":1852:1929   */\n      0x4e487b7100000000000000000000000000000000000000000000000000000000\n        /* \"#utility.yul\":1849:1850   */\n      0x00\n        /* \"#utility.yul\":1842:1930   */\n      mstore\n        /* \"#utility.yul\":1949:1953   */\n      0x11\n        /* \"#utility.yul\":1946:1947   */\n      0x04\n        /* \"#utility.yul\":1939:1954   */\n      mstore\n        /* \"#utility.yul\":1973:1977   */\n      0x24\n        /* \"#utility.yul\":1970:1971   */\n      0x00\n        /* \"#utility.yul\":1963:1978   */\n      revert\n        /* \"#utility.yul\":1990:2161   */\n    tag_31:\n        /* \"#utility.yul\":2029:2032   */\n      0x00\n        /* \"#utility.yul\":2052:2076   */\n      tag_81\n        /* \"#utility.yul\":2070:2075   */\n      dup3\n        /* \"#utility.yul\":2052:2076   */\n      tag_49\n      jump\t// in\n    tag_81:\n        /* \"#utility.yul\":2043:2076   */\n      swap2\n      pop\n        /* \"#utility.yul\":2098:2102   */\n      0x00\n        /* \"#utility.yul\":2091:2096   */\n      dup3\n        /* \"#utility.yul\":2088:2103   */\n      sub\n        /* \"#utility.yul\":2085:2126   */\n      tag_82\n      jumpi\n        /* \"#utility.yul\":2106:2124   */\n      tag_83\n      tag_55\n      jump\t// in\n    tag_83:\n        /* \"#utility.yul\":2085:2126   */\n    tag_82:\n        /* \"#utility.yul\":2153:2154   */\n      0x01\n        /* \"#utility.yul\":2146:2151   */\n      dup3\n        /* \"#utility.yul\":2142:2155   */\n      sub\n        /* \"#utility.yul\":2135:2155   */\n      swap1\n      pop\n        /* \"#utility.yul\":1990:2161   */\n      swap2\n      swap1\n      pop\n      jump\t// out\n        /* \"#utility.yul\":2167:2400   */\n    tag_36:\n        /* \"#utility.yul\":2206:2209   */\n      0x00\n        /* \"#utility.yul\":2229:2253   */\n      tag_85\n        /* \"#utility.yul\":2247:2252   */\n      dup3\n        /* \"#utility.yul\":2229:2253   */\n      tag_49\n      jump\t// in\n    tag_85:\n        /* \"#utility.yul\":2220:2253   */\n      swap2\n      pop\n        /* \"#utility.yul\":2275:2341   */\n      0xffffffffffffffffffffffffffffffffffffffffffffffffffffffffffffffff\n        /* \"#utility.yul\":2268:2273   */\n      dup3\n        /* \"#utility.yul\":2265:2342   */\n      sub\n        /* \"#utility.yul\":2262:2365   */\n      tag_86\n      jumpi\n        /* \"#utility.yul\":2345:2363   */\n      tag_87\n      tag_55\n      jump\t// in\n    tag_87:\n        /* \"#utility.yul\":2262:2365   */\n    tag_86:\n        /* \"#utility.yul\":2392:2393   */\n      0x01\n        /* \"#utility.yul\":2385:2390   */\n      dup3\n        /* \"#utility.yul\":2381:2394   */\n      add\n        /* \"#utility.yul\":2374:2394   */\n      swap1\n      pop\n        /* \"#utility.yul\":2167:2400   */\n      swap2\n      swap1\n      pop\n      jump\t// out\n\n    auxdata: 0xa2646970667358221220b3197db42dfddb59be79f0143a2a0f5e13581cbad3530ef1628bae6ac1af1f7b64736f6c634300081a0033\n}\n",
				"bytecode": {
					"linkReferences": {},
					"object": "6080604052348015600e575f80fd5b5061036b8061001c5f395ff3fe608060405234801561000f575f80fd5b506004361061004a575f3560e01c80635cfe34201461004e5780636c65a62f1461007e5780638783cf491461009c578063916d5743146100ba575b5f80fd5b61006860048036038101906100639190610214565b6100d8565b6040516100759190610259565b60405180910390f35b6100866100f1565b6040516100939190610259565b60405180910390f35b6100a4610134565b6040516100b19190610259565b60405180910390f35b6100c261015b565b6040516100cf9190610281565b60405180910390f35b5f816100e261016c565b5f018190555060019050919050565b5f60016100fc61016c565b5f0154111561012d5761010d61016c565b5f015f81548092919061011f906102c7565b919050555060019050610131565b5f90505b90565b5f61013d61016c565b5f015f81548092919061014f906102ee565b91905055506001905090565b5f61016461016c565b5f0154905090565b5f6101b36101ae6040518060400160405280601d81526020017f656970323533352e4c6f6769634f6e6546616365742e636f756e7465720000008152506101b8565b6101d4565b905090565b5f600182516020840120035f5260ff1960205f20169050919050565b5f819050919050565b5f80fd5b5f819050919050565b6101f3816101e1565b81146101fd575f80fd5b50565b5f8135905061020e816101ea565b92915050565b5f60208284031215610229576102286101dd565b5b5f61023684828501610200565b91505092915050565b5f8115159050919050565b6102538161023f565b82525050565b5f60208201905061026c5f83018461024a565b92915050565b61027b816101e1565b82525050565b5f6020820190506102945f830184610272565b92915050565b7f4e487b71000000000000000000000000000000000000000000000000000000005f52601160045260245ffd5b5f6102d1826101e1565b91505f82036102e3576102e261029a565b5b600182039050919050565b5f6102f8826101e1565b91507fffffffffffffffffffffffffffffffffffffffffffffffffffffffffffffffff820361032a5761032961029a565b5b60018201905091905056fea2646970667358221220b3197db42dfddb59be79f0143a2a0f5e13581cbad3530ef1628bae6ac1af1f7b64736f6c634300081a0033",
					"opcodes": "PUSH1 0x80 PUSH1 0x40 MSTORE CALLVALUE DUP1 ISZERO PUSH1 0xE JUMPI PUSH0 DUP1 REVERT JUMPDEST POP PUSH2 0x36B DUP1 PUSH2 0x1C PUSH0 CODECOPY PUSH0 RETURN INVALID PUSH1 0x80 PUSH1 0x40 MSTORE CALLVALUE DUP1 ISZERO PUSH2 0xF JUMPI PUSH0 DUP1 REVERT JUMPDEST POP PUSH1 0x4 CALLDATASIZE LT PUSH2 0x4A JUMPI PUSH0 CALLDATALOAD PUSH1 0xE0 SHR DUP1 PUSH4 0x5CFE3420 EQ PUSH2 0x4E JUMPI DUP1 PUSH4 0x6C65A62F EQ PUSH2 0x7E JUMPI DUP1 PUSH4 0x8783CF49 EQ PUSH2 0x9C JUMPI DUP1 PUSH4 0x916D5743 EQ PUSH2 0xBA JUMPI JUMPDEST PUSH0 DUP1 REVERT JUMPDEST PUSH2 0x68 PUSH1 0x4 DUP1 CALLDATASIZE SUB DUP2 ADD SWAP1 PUSH2 0x63 SWAP2 SWAP1 PUSH2 0x214 JUMP JUMPDEST PUSH2 0xD8 JUMP JUMPDEST PUSH1 0x40 MLOAD PUSH2 0x75 SWAP2 SWAP1 PUSH2 0x259 JUMP JUMPDEST PUSH1 0x40 MLOAD DUP1 SWAP2 SUB SWAP1 RETURN JUMPDEST PUSH2 0x86 PUSH2 0xF1 JUMP JUMPDEST PUSH1 0x40 MLOAD PUSH2 0x93 SWAP2 SWAP1 PUSH2 0x259 JUMP JUMPDEST PUSH1 0x40 MLOAD DUP1 SWAP2 SUB SWAP1 RETURN JUMPDEST PUSH2 0xA4 PUSH2 0x134 JUMP JUMPDEST PUSH1 0x40 MLOAD PUSH2 0xB1 SWAP2 SWAP1 PUSH2 0x259 JUMP JUMPDEST PUSH1 0x40 MLOAD DUP1 SWAP2 SUB SWAP1 RETURN JUMPDEST PUSH2 0xC2 PUSH2 0x15B JUMP JUMPDEST PUSH1 0x40 MLOAD PUSH2 0xCF SWAP2 SWAP1 PUSH2 0x281 JUMP JUMPDEST PUSH1 0x40 MLOAD DUP1 SWAP2 SUB SWAP1 RETURN JUMPDEST PUSH0 DUP2 PUSH2 0xE2 PUSH2 0x16C JUMP JUMPDEST PUSH0 ADD DUP2 SWAP1 SSTORE POP PUSH1 0x1 SWAP1 POP SWAP2 SWAP1 POP JUMP JUMPDEST PUSH0 PUSH1 0x1 PUSH2 0xFC PUSH2 0x16C JUMP JUMPDEST PUSH0 ADD SLOAD GT ISZERO PUSH2 0x12D JUMPI PUSH2 0x10D PUSH2 0x16C JUMP JUMPDEST PUSH0 ADD PUSH0 DUP2 SLOAD DUP1 SWAP3 SWAP2 SWAP1 PUSH2 0x11F SWAP1 PUSH2 0x2C7 JUMP JUMPDEST SWAP2 SWAP1 POP SSTORE POP PUSH1 0x1 SWAP1 POP PUSH2 0x131 JUMP JUMPDEST PUSH0 SWAP1 POP JUMPDEST SWAP1 JUMP JUMPDEST PUSH0 PUSH2 0x13D PUSH2 0x16C JUMP JUMPDEST PUSH0 ADD PUSH0 DUP2 SLOAD DUP1 SWAP3 SWAP2 SWAP1 PUSH2 0x14F SWAP1 PUSH2 0x2EE JUMP JUMPDEST SWAP2 SWAP1 POP SSTORE POP PUSH1 0x1 SWAP1 POP SWAP1 JUMP JUMPDEST PUSH0 PUSH2 0x164 PUSH2 0x16C JUMP JUMPDEST PUSH0 ADD SLOAD SWAP1 POP SWAP1 JUMP JUMPDEST PUSH0 PUSH2 0x1B3 PUSH2 0x1AE PUSH1 0x40 MLOAD DUP1 PUSH1 0x40 ADD PUSH1 0x40 MSTORE DUP1 PUSH1 0x1D DUP2 MSTORE PUSH1 0x20 ADD PUSH32 0x656970323533352E4C6F6769634F6E6546616365742E636F756E746572000000 DUP2 MSTORE POP PUSH2 0x1B8 JUMP JUMPDEST PUSH2 0x1D4 JUMP JUMPDEST SWAP1 POP SWAP1 JUMP JUMPDEST PUSH0 PUSH1 0x1 DUP3 MLOAD PUSH1 0x20 DUP5 ADD KECCAK256 SUB PUSH0 MSTORE PUSH1 0xFF NOT PUSH1 0x20 PUSH0 KECCAK256 AND SWAP1 POP SWAP2 SWAP1 POP JUMP JUMPDEST PUSH0 DUP2 SWAP1 POP SWAP2 SWAP1 POP JUMP JUMPDEST PUSH0 DUP1 REVERT JUMPDEST PUSH0 DUP2 SWAP1 POP SWAP2 SWAP1 POP JUMP JUMPDEST PUSH2 0x1F3 DUP2 PUSH2 0x1E1 JUMP JUMPDEST DUP2 EQ PUSH2 0x1FD JUMPI PUSH0 DUP1 REVERT JUMPDEST POP JUMP JUMPDEST PUSH0 DUP2 CALLDATALOAD SWAP1 POP PUSH2 0x20E DUP2 PUSH2 0x1EA JUMP JUMPDEST SWAP3 SWAP2 POP POP JUMP JUMPDEST PUSH0 PUSH1 0x20 DUP3 DUP5 SUB SLT ISZERO PUSH2 0x229 JUMPI PUSH2 0x228 PUSH2 0x1DD JUMP JUMPDEST JUMPDEST PUSH0 PUSH2 0x236 DUP5 DUP3 DUP6 ADD PUSH2 0x200 JUMP JUMPDEST SWAP2 POP POP SWAP3 SWAP2 POP POP JUMP JUMPDEST PUSH0 DUP2 ISZERO ISZERO SWAP1 POP SWAP2 SWAP1 POP JUMP JUMPDEST PUSH2 0x253 DUP2 PUSH2 0x23F JUMP JUMPDEST DUP3 MSTORE POP POP JUMP JUMPDEST PUSH0 PUSH1 0x20 DUP3 ADD SWAP1 POP PUSH2 0x26C PUSH0 DUP4 ADD DUP5 PUSH2 0x24A JUMP JUMPDEST SWAP3 SWAP2 POP POP JUMP JUMPDEST PUSH2 0x27B DUP2 PUSH2 0x1E1 JUMP JUMPDEST DUP3 MSTORE POP POP JUMP JUMPDEST PUSH0 PUSH1 0x20 DUP3 ADD SWAP1 POP PUSH2 0x294 PUSH0 DUP4 ADD DUP5 PUSH2 0x272 JUMP JUMPDEST SWAP3 SWAP2 POP POP JUMP JUMPDEST PUSH32 0x4E487B7100000000000000000000000000000000000000000000000000000000 PUSH0 MSTORE PUSH1 0x11 PUSH1 0x4 MSTORE PUSH1 0x24 PUSH0 REVERT JUMPDEST PUSH0 PUSH2 0x2D1 DUP3 PUSH2 0x1E1 JUMP JUMPDEST SWAP2 POP PUSH0 DUP3 SUB PUSH2 0x2E3 JUMPI PUSH2 0x2E2 PUSH2 0x29A JUMP JUMPDEST JUMPDEST PUSH1 0x1 DUP3 SUB SWAP1 POP SWAP2 SWAP1 POP JUMP JUMPDEST PUSH0 PUSH2 0x2F8 DUP3 PUSH2 0x1E1 JUMP JUMPDEST SWAP2 POP PUSH32 0xFFFFFFFFFFFFFFFFFFFFFFFFFFFFFFFFFFFFFFFFFFFFFFFFFFFFFFFFFFFFFFFF DUP3 SUB PUSH2 0x32A JUMPI PUSH2 0x329 PUSH2 0x29A JUMP JUMPDEST JUMPDEST PUSH1 0x1 DUP3 ADD SWAP1 POP SWAP2 SWAP1 POP JUMP INVALID LOG2 PUSH5 0x6970667358 0x22 SLT KECCAK256 0xB3 NOT PUSH30 0xB42DFDDB59BE79F0143A2A0F5E13581CBAD3530EF1628BAE6AC1AF1F7B64 PUSH20 0x6F6C634300081A00330000000000000000000000 "
				},
				"gasEstimates": {
					"creation": {
						"codeDepositCost": "175000",
						"executionCost": "218",
						"totalCost": "175218"
					},
					"external": {
						"decreMyCounter()": "infinite",
						"getMyCounter()": "2761",
						"increMyCounter()": "24999",
						"setMyCounter(uint256)": "22976"
					},
					"internal": {
						"_getCounterSlot()": "infinite"
					}
				},
				"methodIdentifiers": {
					"decreMyCounter()": "6c65a62f",
					"getMyCounter()": "916d5743",
					"increMyCounter()": "8783cf49",
					"setMyCounter(uint256)": "5cfe3420"
				}
			},
			"storageLayout": {
				"storage": [],
				"types": null
			},
			"userdoc": {
				"kind": "user",
				"methods": {},
				"version": 1
			}
		}
	}
}