{
	"contracts/proxy/EIP2535/RegistLogicContract.sol": {
		"RegistLogicContract": {
			"abi": [
				{
					"anonymous": false,
					"inputs": [
						{
							"indexed": true,
							"internalType": "address",
							"name": "diamondCutAddress",
							"type": "address"
						},
						{
							"components": [
								{
									"internalType": "address",
									"name": "facetAddress",
									"type": "address"
								},
								{
									"internalType": "enum IDiamond.FacetCutAction",
									"name": "action",
									"type": "uint8"
								},
								{
									"internalType": "bytes4[]",
									"name": "functionSelectors",
									"type": "bytes4[]"
								}
							],
							"indexed": false,
							"internalType": "struct IDiamond.FacetCut[]",
							"name": "_diamondCut",
							"type": "tuple[]"
						},
						{
							"indexed": false,
							"internalType": "bool",
							"name": "ok",
							"type": "bool"
						},
						{
							"indexed": false,
							"internalType": "bytes",
							"name": "resultData",
							"type": "bytes"
						}
					],
					"name": "InitCalldataExecute",
					"type": "event"
				},
				{
					"inputs": [
						{
							"internalType": "address",
							"name": "_diamondProxyAddress",
							"type": "address"
						},
						{
							"internalType": "address",
							"name": "_facetAddress",
							"type": "address"
						}
					],
					"name": "registLogicOneAddSelector",
					"outputs": [],
					"stateMutability": "nonpayable",
					"type": "function"
				},
				{
					"inputs": [
						{
							"internalType": "address",
							"name": "_diamondProxyAddress",
							"type": "address"
						},
						{
							"internalType": "address",
							"name": "_facetAddress",
							"type": "address"
						}
					],
					"name": "registLogicOneContract",
					"outputs": [],
					"stateMutability": "nonpayable",
					"type": "function"
				},
				{
					"inputs": [
						{
							"internalType": "address",
							"name": "_diamondProxyAddress",
							"type": "address"
						},
						{
							"internalType": "address",
							"name": "_facetAddress",
							"type": "address"
						}
					],
					"name": "registLogicOneRemoveSelector",
					"outputs": [],
					"stateMutability": "nonpayable",
					"type": "function"
				},
				{
					"inputs": [
						{
							"internalType": "address",
							"name": "_diamondProxyAddress",
							"type": "address"
						},
						{
							"internalType": "address",
							"name": "_facetAddress",
							"type": "address"
						}
					],
					"name": "registLogicOneV2Change",
					"outputs": [],
					"stateMutability": "nonpayable",
					"type": "function"
				},
				{
					"inputs": [
						{
							"internalType": "address",
							"name": "_diamondProxyAddress",
							"type": "address"
						},
						{
							"internalType": "address",
							"name": "_facetAddress",
							"type": "address"
						}
					],
					"name": "registLogicOneV2Replace",
					"outputs": [],
					"stateMutability": "nonpayable",
					"type": "function"
				},
				{
					"inputs": [
						{
							"internalType": "address",
							"name": "_diamondProxyAddress",
							"type": "address"
						},
						{
							"internalType": "address",
							"name": "_facetAddress",
							"type": "address"
						}
					],
					"name": "registLogicTwoContract",
					"outputs": [],
					"stateMutability": "nonpayable",
					"type": "function"
				},
				{
					"inputs": [
						{
							"internalType": "address",
							"name": "_diamondProxyAddress",
							"type": "address"
						},
						{
							"internalType": "address",
							"name": "_facetAddress",
							"type": "address"
						}
					],
					"name": "registLogicTwoRemoveAllSelector",
					"outputs": [],
					"stateMutability": "nonpayable",
					"type": "function"
				},
				{
					"inputs": [
						{
							"internalType": "address",
							"name": "_diamondProxyAddress",
							"type": "address"
						},
						{
							"internalType": "address",
							"name": "_facetAddress",
							"type": "address"
						}
					],
					"name": "registLogicTwoV2Change",
					"outputs": [],
					"stateMutability": "nonpayable",
					"type": "function"
				},
				{
					"inputs": [
						{
							"internalType": "address",
							"name": "_diamondProxyAddress",
							"type": "address"
						},
						{
							"internalType": "address",
							"name": "_facetAddress",
							"type": "address"
						}
					],
					"name": "registLogicTwoV3Change",
					"outputs": [],
					"stateMutability": "nonpayable",
					"type": "function"
				},
				{
					"inputs": [
						{
							"internalType": "address",
							"name": "_diamondProxyAddress",
							"type": "address"
						},
						{
							"internalType": "address",
							"name": "_facetAddress",
							"type": "address"
						}
					],
					"name": "registLogicTwoV3Remove",
					"outputs": [],
					"stateMutability": "nonpayable",
					"type": "function"
				}
			],
			"devdoc": {
				"kind": "dev",
				"methods": {},
				"version": 1
			},
			"evm": {
				"assembly": "    /* \"contracts/proxy/EIP2535/RegistLogicContract.sol\":374:8934  contract RegistLogicContract {... */\n  mstore(0x40, 0x80)\n  callvalue\n  dup1\n  iszero\n  tag_1\n  jumpi\n  0x00\n  dup1\n  revert\ntag_1:\n  pop\n  dataSize(sub_0)\n  dup1\n  dataOffset(sub_0)\n  0x00\n  codecopy\n  0x00\n  return\nstop\n\nsub_0: assembly {\n        /* \"contracts/proxy/EIP2535/RegistLogicContract.sol\":374:8934  contract RegistLogicContract {... */\n      mstore(0x40, 0x80)\n      callvalue\n      dup1\n      iszero\n      tag_1\n      jumpi\n      0x00\n      dup1\n      revert\n    tag_1:\n      pop\n      jumpi(tag_2, lt(calldatasize, 0x04))\n      shr(0xe0, calldataload(0x00))\n      dup1\n      0xc9521dd2\n      gt\n      tag_13\n      jumpi\n      dup1\n      0xc9521dd2\n      eq\n      tag_8\n      jumpi\n      dup1\n      0xd4d8684d\n      eq\n      tag_9\n      jumpi\n      dup1\n      0xd60d34c7\n      eq\n      tag_10\n      jumpi\n      dup1\n      0xe1210147\n      eq\n      tag_11\n      jumpi\n      dup1\n      0xe9c94cdf\n      eq\n      tag_12\n      jumpi\n      jump(tag_2)\n    tag_13:\n      dup1\n      0x0183db70\n      eq\n      tag_3\n      jumpi\n      dup1\n      0x039d7432\n      eq\n      tag_4\n      jumpi\n      dup1\n      0x1699b7bd\n      eq\n      tag_5\n      jumpi\n      dup1\n      0x393907d8\n      eq\n      tag_6\n      jumpi\n      dup1\n      0xb1736870\n      eq\n      tag_7\n      jumpi\n    tag_2:\n      0x00\n      dup1\n      revert\n        /* \"contracts/proxy/EIP2535/RegistLogicContract.sol\":4068:5201  function registLogicOneV2Change(address _diamondProxyAddress, address _facetAddress) external {... */\n    tag_3:\n      tag_14\n      0x04\n      dup1\n      calldatasize\n      sub\n      dup2\n      add\n      swap1\n      tag_15\n      swap2\n      swap1\n      tag_16\n      jump\t// in\n    tag_15:\n      tag_17\n      jump\t// in\n    tag_14:\n      stop\n        /* \"contracts/proxy/EIP2535/RegistLogicContract.sol\":1929:2566  function registLogicOneRemoveSelector(address _diamondProxyAddress, address _facetAddress) external {... */\n    tag_4:\n      tag_18\n      0x04\n      dup1\n      calldatasize\n      sub\n      dup2\n      add\n      swap1\n      tag_19\n      swap2\n      swap1\n      tag_16\n      jump\t// in\n    tag_19:\n      tag_20\n      jump\t// in\n    tag_18:\n      stop\n        /* \"contracts/proxy/EIP2535/RegistLogicContract.sol\":2572:3258  function registLogicTwoContract(address _diamondProxyAddress, address _facetAddress) external {... */\n    tag_5:\n      tag_21\n      0x04\n      dup1\n      calldatasize\n      sub\n      dup2\n      add\n      swap1\n      tag_22\n      swap2\n      swap1\n      tag_16\n      jump\t// in\n    tag_22:\n      tag_23\n      jump\t// in\n    tag_21:\n      stop\n        /* \"contracts/proxy/EIP2535/RegistLogicContract.sol\":5931:6683  function registLogicTwoV2Change(address _diamondProxyAddress, address _facetAddress) external {... */\n    tag_6:\n      tag_24\n      0x04\n      dup1\n      calldatasize\n      sub\n      dup2\n      add\n      swap1\n      tag_25\n      swap2\n      swap1\n      tag_16\n      jump\t// in\n    tag_25:\n      tag_26\n      jump\t// in\n    tag_24:\n      stop\n        /* \"contracts/proxy/EIP2535/RegistLogicContract.sol\":538:1286  function registLogicOneContract(address _diamondProxyAddress, address _facetAddress) external {... */\n    tag_7:\n      tag_27\n      0x04\n      dup1\n      calldatasize\n      sub\n      dup2\n      add\n      swap1\n      tag_28\n      swap2\n      swap1\n      tag_16\n      jump\t// in\n    tag_28:\n      tag_29\n      jump\t// in\n    tag_27:\n      stop\n        /* \"contracts/proxy/EIP2535/RegistLogicContract.sol\":7468:8197  function registLogicTwoV3Remove(address _diamondProxyAddress, address _facetAddress) external {... */\n    tag_8:\n      tag_30\n      0x04\n      dup1\n      calldatasize\n      sub\n      dup2\n      add\n      swap1\n      tag_31\n      swap2\n      swap1\n      tag_16\n      jump\t// in\n    tag_31:\n      tag_32\n      jump\t// in\n    tag_30:\n      stop\n        /* \"contracts/proxy/EIP2535/RegistLogicContract.sol\":3264:3950  function registLogicTwoRemoveAllSelector(address _diamondProxyAddress, address _facetAddress) external {... */\n    tag_9:\n      tag_33\n      0x04\n      dup1\n      calldatasize\n      sub\n      dup2\n      add\n      swap1\n      tag_34\n      swap2\n      swap1\n      tag_16\n      jump\t// in\n    tag_34:\n      tag_35\n      jump\t// in\n    tag_33:\n      stop\n        /* \"contracts/proxy/EIP2535/RegistLogicContract.sol\":1292:1923  function registLogicOneAddSelector(address _diamondProxyAddress, address _facetAddress) external {... */\n    tag_10:\n      tag_36\n      0x04\n      dup1\n      calldatasize\n      sub\n      dup2\n      add\n      swap1\n      tag_37\n      swap2\n      swap1\n      tag_16\n      jump\t// in\n    tag_37:\n      tag_38\n      jump\t// in\n    tag_36:\n      stop\n        /* \"contracts/proxy/EIP2535/RegistLogicContract.sol\":5207:5890  function registLogicOneV2Replace(address _diamondProxyAddress, address _facetAddress) external {... */\n    tag_11:\n      tag_39\n      0x04\n      dup1\n      calldatasize\n      sub\n      dup2\n      add\n      swap1\n      tag_40\n      swap2\n      swap1\n      tag_16\n      jump\t// in\n    tag_40:\n      tag_41\n      jump\t// in\n    tag_39:\n      stop\n        /* \"contracts/proxy/EIP2535/RegistLogicContract.sol\":6689:7462  function registLogicTwoV3Change(address _diamondProxyAddress, address _facetAddress) external {... */\n    tag_12:\n      tag_42\n      0x04\n      dup1\n      calldatasize\n      sub\n      dup2\n      add\n      swap1\n      tag_43\n      swap2\n      swap1\n      tag_16\n      jump\t// in\n    tag_43:\n      tag_44\n      jump\t// in\n    tag_42:\n      stop\n        /* \"contracts/proxy/EIP2535/RegistLogicContract.sol\":4068:5201  function registLogicOneV2Change(address _diamondProxyAddress, address _facetAddress) external {... */\n    tag_17:\n        /* \"contracts/proxy/EIP2535/RegistLogicContract.sol\":4212:4253  IDiamondCut.FacetCut[] memory _diamondCut */\n      0x00\n        /* \"contracts/proxy/EIP2535/RegistLogicContract.sol\":4283:4284  2 */\n      0x02\n        /* \"contracts/proxy/EIP2535/RegistLogicContract.sol\":4256:4285  new IDiamondCut.FacetCut[](2) */\n      0xffffffffffffffff\n      dup2\n      gt\n      iszero\n      tag_46\n      jumpi\n      tag_47\n      tag_48\n      jump\t// in\n    tag_47:\n    tag_46:\n      mload(0x40)\n      swap1\n      dup1\n      dup3\n      mstore\n      dup1\n      0x20\n      mul\n      0x20\n      add\n      dup3\n      add\n      0x40\n      mstore\n      dup1\n      iszero\n      tag_49\n      jumpi\n      dup2\n      0x20\n      add\n    tag_50:\n      tag_51\n      tag_52\n      jump\t// in\n    tag_51:\n      dup2\n      mstore\n      0x20\n      add\n      swap1\n      0x01\n      swap1\n      sub\n      swap1\n      dup2\n      tag_50\n      jumpi\n      swap1\n      pop\n    tag_49:\n      pop\n        /* \"contracts/proxy/EIP2535/RegistLogicContract.sol\":4212:4285  IDiamondCut.FacetCut[] memory _diamondCut = new IDiamondCut.FacetCut[](2) */\n      swap1\n      pop\n        /* \"contracts/proxy/EIP2535/RegistLogicContract.sol\":4352:4380  bytes4[] memory addSelectors */\n      0x00\n        /* \"contracts/proxy/EIP2535/RegistLogicContract.sol\":4396:4397  2 */\n      0x02\n        /* \"contracts/proxy/EIP2535/RegistLogicContract.sol\":4383:4398  new bytes4[](2) */\n      0xffffffffffffffff\n      dup2\n      gt\n      iszero\n      tag_53\n      jumpi\n      tag_54\n      tag_48\n      jump\t// in\n    tag_54:\n    tag_53:\n      mload(0x40)\n      swap1\n      dup1\n      dup3\n      mstore\n      dup1\n      0x20\n      mul\n      0x20\n      add\n      dup3\n      add\n      0x40\n      mstore\n      dup1\n      iszero\n      tag_55\n      jumpi\n      dup2\n      0x20\n      add\n      0x20\n      dup3\n      mul\n      dup1\n      calldatasize\n      dup4\n      calldatacopy\n      dup1\n      dup3\n      add\n      swap2\n      pop\n      pop\n      swap1\n      pop\n    tag_55:\n      pop\n        /* \"contracts/proxy/EIP2535/RegistLogicContract.sol\":4352:4398  bytes4[] memory addSelectors = new bytes4[](2) */\n      swap1\n      pop\n        /* \"contracts/proxy/EIP2535/RegistLogicContract.sol\":4426:4467  LogicOneV2Facet.increByMyCounter.selector */\n      shl(0xe0, 0xec98a839)\n        /* \"contracts/proxy/EIP2535/RegistLogicContract.sol\":4408:4420  addSelectors */\n      dup2\n        /* \"contracts/proxy/EIP2535/RegistLogicContract.sol\":4421:4422  0 */\n      0x00\n        /* \"contracts/proxy/EIP2535/RegistLogicContract.sol\":4408:4423  addSelectors[0] */\n      dup2\n      mload\n      dup2\n      lt\n      tag_56\n      jumpi\n      tag_57\n      tag_58\n      jump\t// in\n    tag_57:\n    tag_56:\n      0x20\n      mul\n      0x20\n      add\n      add\n        /* \"contracts/proxy/EIP2535/RegistLogicContract.sol\":4408:4467  addSelectors[0] = LogicOneV2Facet.increByMyCounter.selector */\n      swap1\n      not(0xffffffffffffffffffffffffffffffffffffffffffffffffffffffff)\n      and\n      swap1\n      dup2\n      not(0xffffffffffffffffffffffffffffffffffffffffffffffffffffffff)\n      and\n      dup2\n      mstore\n      pop\n      pop\n        /* \"contracts/proxy/EIP2535/RegistLogicContract.sol\":4495:4536  LogicOneV2Facet.decreByMyCounter.selector */\n      shl(0xe0, 0x6bcea8b0)\n        /* \"contracts/proxy/EIP2535/RegistLogicContract.sol\":4477:4489  addSelectors */\n      dup2\n        /* \"contracts/proxy/EIP2535/RegistLogicContract.sol\":4490:4491  1 */\n      0x01\n        /* \"contracts/proxy/EIP2535/RegistLogicContract.sol\":4477:4492  addSelectors[1] */\n      dup2\n      mload\n      dup2\n      lt\n      tag_59\n      jumpi\n      tag_60\n      tag_58\n      jump\t// in\n    tag_60:\n    tag_59:\n      0x20\n      mul\n      0x20\n      add\n      add\n        /* \"contracts/proxy/EIP2535/RegistLogicContract.sol\":4477:4536  addSelectors[1] = LogicOneV2Facet.decreByMyCounter.selector */\n      swap1\n      not(0xffffffffffffffffffffffffffffffffffffffffffffffffffffffff)\n      and\n      swap1\n      dup2\n      not(0xffffffffffffffffffffffffffffffffffffffffffffffffffffffff)\n      and\n      dup2\n      mstore\n      pop\n      pop\n        /* \"contracts/proxy/EIP2535/RegistLogicContract.sol\":4572:4736  IDiamond.FacetCut({... */\n      mload(0x40)\n      dup1\n      0x60\n      add\n      0x40\n      mstore\n      dup1\n        /* \"contracts/proxy/EIP2535/RegistLogicContract.sol\":4618:4631  _facetAddress */\n      dup5\n        /* \"contracts/proxy/EIP2535/RegistLogicContract.sol\":4572:4736  IDiamond.FacetCut({... */\n      0xffffffffffffffffffffffffffffffffffffffff\n      and\n      dup2\n      mstore\n      0x20\n      add\n        /* \"contracts/proxy/EIP2535/RegistLogicContract.sol\":4653:4680  IDiamond.FacetCutAction.Add */\n      0x00\n        /* \"contracts/proxy/EIP2535/RegistLogicContract.sol\":4572:4736  IDiamond.FacetCut({... */\n      0x02\n      dup2\n      gt\n      iszero\n      tag_61\n      jumpi\n      tag_62\n      tag_63\n      jump\t// in\n    tag_62:\n    tag_61:\n      dup2\n      mstore\n      0x20\n      add\n        /* \"contracts/proxy/EIP2535/RegistLogicContract.sol\":4713:4725  addSelectors */\n      dup3\n        /* \"contracts/proxy/EIP2535/RegistLogicContract.sol\":4572:4736  IDiamond.FacetCut({... */\n      dup2\n      mstore\n      pop\n        /* \"contracts/proxy/EIP2535/RegistLogicContract.sol\":4555:4566  _diamondCut */\n      dup3\n        /* \"contracts/proxy/EIP2535/RegistLogicContract.sol\":4567:4568  0 */\n      0x00\n        /* \"contracts/proxy/EIP2535/RegistLogicContract.sol\":4555:4569  _diamondCut[0] */\n      dup2\n      mload\n      dup2\n      lt\n      tag_64\n      jumpi\n      tag_65\n      tag_58\n      jump\t// in\n    tag_65:\n    tag_64:\n      0x20\n      mul\n      0x20\n      add\n      add\n        /* \"contracts/proxy/EIP2535/RegistLogicContract.sol\":4555:4736  _diamondCut[0] = IDiamond.FacetCut({... */\n      dup2\n      swap1\n      mstore\n      pop\n        /* \"contracts/proxy/EIP2535/RegistLogicContract.sol\":4785:4817  bytes4[] memory replaceSelectors */\n      0x00\n        /* \"contracts/proxy/EIP2535/RegistLogicContract.sol\":4833:4834  1 */\n      0x01\n        /* \"contracts/proxy/EIP2535/RegistLogicContract.sol\":4820:4835  new bytes4[](1) */\n      0xffffffffffffffff\n      dup2\n      gt\n      iszero\n      tag_66\n      jumpi\n      tag_67\n      tag_48\n      jump\t// in\n    tag_67:\n    tag_66:\n      mload(0x40)\n      swap1\n      dup1\n      dup3\n      mstore\n      dup1\n      0x20\n      mul\n      0x20\n      add\n      dup3\n      add\n      0x40\n      mstore\n      dup1\n      iszero\n      tag_68\n      jumpi\n      dup2\n      0x20\n      add\n      0x20\n      dup3\n      mul\n      dup1\n      calldatasize\n      dup4\n      calldatacopy\n      dup1\n      dup3\n      add\n      swap2\n      pop\n      pop\n      swap1\n      pop\n    tag_68:\n      pop\n        /* \"contracts/proxy/EIP2535/RegistLogicContract.sol\":4785:4835  bytes4[] memory replaceSelectors = new bytes4[](1) */\n      swap1\n      pop\n        /* \"contracts/proxy/EIP2535/RegistLogicContract.sol\":4867:4906  LogicOneV2Facet.decreMyCounter.selector */\n      shl(0xe0, 0x6c65a62f)\n        /* \"contracts/proxy/EIP2535/RegistLogicContract.sol\":4845:4861  replaceSelectors */\n      dup2\n        /* \"contracts/proxy/EIP2535/RegistLogicContract.sol\":4862:4863  0 */\n      0x00\n        /* \"contracts/proxy/EIP2535/RegistLogicContract.sol\":4845:4864  replaceSelectors[0] */\n      dup2\n      mload\n      dup2\n      lt\n      tag_69\n      jumpi\n      tag_70\n      tag_58\n      jump\t// in\n    tag_70:\n    tag_69:\n      0x20\n      mul\n      0x20\n      add\n      add\n        /* \"contracts/proxy/EIP2535/RegistLogicContract.sol\":4845:4906  replaceSelectors[0] = LogicOneV2Facet.decreMyCounter.selector */\n      swap1\n      not(0xffffffffffffffffffffffffffffffffffffffffffffffffffffffff)\n      and\n      swap1\n      dup2\n      not(0xffffffffffffffffffffffffffffffffffffffffffffffffffffffff)\n      and\n      dup2\n      mstore\n      pop\n      pop\n        /* \"contracts/proxy/EIP2535/RegistLogicContract.sol\":4942:5114  IDiamond.FacetCut({... */\n      mload(0x40)\n      dup1\n      0x60\n      add\n      0x40\n      mstore\n      dup1\n        /* \"contracts/proxy/EIP2535/RegistLogicContract.sol\":4988:5001  _facetAddress */\n      dup6\n        /* \"contracts/proxy/EIP2535/RegistLogicContract.sol\":4942:5114  IDiamond.FacetCut({... */\n      0xffffffffffffffffffffffffffffffffffffffff\n      and\n      dup2\n      mstore\n      0x20\n      add\n        /* \"contracts/proxy/EIP2535/RegistLogicContract.sol\":5023:5054  IDiamond.FacetCutAction.Replace */\n      0x01\n        /* \"contracts/proxy/EIP2535/RegistLogicContract.sol\":4942:5114  IDiamond.FacetCut({... */\n      0x02\n      dup2\n      gt\n      iszero\n      tag_71\n      jumpi\n      tag_72\n      tag_63\n      jump\t// in\n    tag_72:\n    tag_71:\n      dup2\n      mstore\n      0x20\n      add\n        /* \"contracts/proxy/EIP2535/RegistLogicContract.sol\":5087:5103  replaceSelectors */\n      dup3\n        /* \"contracts/proxy/EIP2535/RegistLogicContract.sol\":4942:5114  IDiamond.FacetCut({... */\n      dup2\n      mstore\n      pop\n        /* \"contracts/proxy/EIP2535/RegistLogicContract.sol\":4925:4936  _diamondCut */\n      dup4\n        /* \"contracts/proxy/EIP2535/RegistLogicContract.sol\":4937:4938  1 */\n      0x01\n        /* \"contracts/proxy/EIP2535/RegistLogicContract.sol\":4925:4939  _diamondCut[1] */\n      dup2\n      mload\n      dup2\n      lt\n      tag_73\n      jumpi\n      tag_74\n      tag_58\n      jump\t// in\n    tag_74:\n    tag_73:\n      0x20\n      mul\n      0x20\n      add\n      add\n        /* \"contracts/proxy/EIP2535/RegistLogicContract.sol\":4925:5114  _diamondCut[1] = IDiamond.FacetCut({... */\n      dup2\n      swap1\n      mstore\n      pop\n        /* \"contracts/proxy/EIP2535/RegistLogicContract.sol\":5124:5194  _registFacet(_diamondProxyAddress, _diamondCut, address(0), bytes(\"\")) */\n      tag_75\n        /* \"contracts/proxy/EIP2535/RegistLogicContract.sol\":5137:5157  _diamondProxyAddress */\n      dup6\n        /* \"contracts/proxy/EIP2535/RegistLogicContract.sol\":5159:5170  _diamondCut */\n      dup5\n        /* \"contracts/proxy/EIP2535/RegistLogicContract.sol\":5180:5181  0 */\n      0x00\n        /* \"contracts/proxy/EIP2535/RegistLogicContract.sol\":5184:5193  bytes(\"\") */\n      mload(0x40)\n      dup1\n      0x20\n      add\n      0x40\n      mstore\n      dup1\n      0x00\n      dup2\n      mstore\n      pop\n        /* \"contracts/proxy/EIP2535/RegistLogicContract.sol\":5124:5136  _registFacet */\n      tag_76\n        /* \"contracts/proxy/EIP2535/RegistLogicContract.sol\":5124:5194  _registFacet(_diamondProxyAddress, _diamondCut, address(0), bytes(\"\")) */\n      jump\t// in\n    tag_75:\n        /* \"contracts/proxy/EIP2535/RegistLogicContract.sol\":4162:5201  {... */\n      pop\n      pop\n      pop\n        /* \"contracts/proxy/EIP2535/RegistLogicContract.sol\":4068:5201  function registLogicOneV2Change(address _diamondProxyAddress, address _facetAddress) external {... */\n      pop\n      pop\n      jump\t// out\n        /* \"contracts/proxy/EIP2535/RegistLogicContract.sol\":1929:2566  function registLogicOneRemoveSelector(address _diamondProxyAddress, address _facetAddress) external {... */\n    tag_20:\n        /* \"contracts/proxy/EIP2535/RegistLogicContract.sol\":2079:2104  bytes4[] memory selectors */\n      0x00\n        /* \"contracts/proxy/EIP2535/RegistLogicContract.sol\":2120:2121  1 */\n      0x01\n        /* \"contracts/proxy/EIP2535/RegistLogicContract.sol\":2107:2122  new bytes4[](1) */\n      0xffffffffffffffff\n      dup2\n      gt\n      iszero\n      tag_78\n      jumpi\n      tag_79\n      tag_48\n      jump\t// in\n    tag_79:\n    tag_78:\n      mload(0x40)\n      swap1\n      dup1\n      dup3\n      mstore\n      dup1\n      0x20\n      mul\n      0x20\n      add\n      dup3\n      add\n      0x40\n      mstore\n      dup1\n      iszero\n      tag_80\n      jumpi\n      dup2\n      0x20\n      add\n      0x20\n      dup3\n      mul\n      dup1\n      calldatasize\n      dup4\n      calldatacopy\n      dup1\n      dup3\n      add\n      swap2\n      pop\n      pop\n      swap1\n      pop\n    tag_80:\n      pop\n        /* \"contracts/proxy/EIP2535/RegistLogicContract.sol\":2079:2122  bytes4[] memory selectors = new bytes4[](1) */\n      swap1\n      pop\n        /* \"contracts/proxy/EIP2535/RegistLogicContract.sol\":2147:2184  LogicOneFacet.decreMyCounter.selector */\n      shl(0xe0, 0x6c65a62f)\n        /* \"contracts/proxy/EIP2535/RegistLogicContract.sol\":2132:2141  selectors */\n      dup2\n        /* \"contracts/proxy/EIP2535/RegistLogicContract.sol\":2142:2143  0 */\n      0x00\n        /* \"contracts/proxy/EIP2535/RegistLogicContract.sol\":2132:2144  selectors[0] */\n      dup2\n      mload\n      dup2\n      lt\n      tag_81\n      jumpi\n      tag_82\n      tag_58\n      jump\t// in\n    tag_82:\n    tag_81:\n      0x20\n      mul\n      0x20\n      add\n      add\n        /* \"contracts/proxy/EIP2535/RegistLogicContract.sol\":2132:2184  selectors[0] = LogicOneFacet.decreMyCounter.selector */\n      swap1\n      not(0xffffffffffffffffffffffffffffffffffffffffffffffffffffffff)\n      and\n      swap1\n      dup2\n      not(0xffffffffffffffffffffffffffffffffffffffffffffffffffffffff)\n      and\n      dup2\n      mstore\n      pop\n      pop\n        /* \"contracts/proxy/EIP2535/RegistLogicContract.sol\":2203:2244  IDiamondCut.FacetCut[] memory _diamondCut */\n      0x00\n        /* \"contracts/proxy/EIP2535/RegistLogicContract.sol\":2274:2275  1 */\n      0x01\n        /* \"contracts/proxy/EIP2535/RegistLogicContract.sol\":2247:2276  new IDiamondCut.FacetCut[](1) */\n      0xffffffffffffffff\n      dup2\n      gt\n      iszero\n      tag_83\n      jumpi\n      tag_84\n      tag_48\n      jump\t// in\n    tag_84:\n    tag_83:\n      mload(0x40)\n      swap1\n      dup1\n      dup3\n      mstore\n      dup1\n      0x20\n      mul\n      0x20\n      add\n      dup3\n      add\n      0x40\n      mstore\n      dup1\n      iszero\n      tag_85\n      jumpi\n      dup2\n      0x20\n      add\n    tag_86:\n      tag_87\n      tag_52\n      jump\t// in\n    tag_87:\n      dup2\n      mstore\n      0x20\n      add\n      swap1\n      0x01\n      swap1\n      sub\n      swap1\n      dup2\n      tag_86\n      jumpi\n      swap1\n      pop\n    tag_85:\n      pop\n        /* \"contracts/proxy/EIP2535/RegistLogicContract.sol\":2203:2276  IDiamondCut.FacetCut[] memory _diamondCut = new IDiamondCut.FacetCut[](1) */\n      swap1\n      pop\n        /* \"contracts/proxy/EIP2535/RegistLogicContract.sol\":2303:2479  IDiamond.FacetCut({... */\n      mload(0x40)\n      dup1\n      0x60\n      add\n      0x40\n      mstore\n      dup1\n        /* \"contracts/proxy/EIP2535/RegistLogicContract.sol\":2349:2362  _facetAddress */\n      dup5\n        /* \"contracts/proxy/EIP2535/RegistLogicContract.sol\":2303:2479  IDiamond.FacetCut({... */\n      0xffffffffffffffffffffffffffffffffffffffff\n      and\n      dup2\n      mstore\n      0x20\n      add\n        /* \"contracts/proxy/EIP2535/RegistLogicContract.sol\":2384:2414  IDiamond.FacetCutAction.Remove */\n      0x02\n        /* \"contracts/proxy/EIP2535/RegistLogicContract.sol\":2303:2479  IDiamond.FacetCut({... */\n      dup1\n      dup2\n      gt\n      iszero\n      tag_88\n      jumpi\n      tag_89\n      tag_63\n      jump\t// in\n    tag_89:\n    tag_88:\n      dup2\n      mstore\n      0x20\n      add\n        /* \"contracts/proxy/EIP2535/RegistLogicContract.sol\":2459:2468  selectors */\n      dup4\n        /* \"contracts/proxy/EIP2535/RegistLogicContract.sol\":2303:2479  IDiamond.FacetCut({... */\n      dup2\n      mstore\n      pop\n        /* \"contracts/proxy/EIP2535/RegistLogicContract.sol\":2286:2297  _diamondCut */\n      dup2\n        /* \"contracts/proxy/EIP2535/RegistLogicContract.sol\":2298:2299  0 */\n      0x00\n        /* \"contracts/proxy/EIP2535/RegistLogicContract.sol\":2286:2300  _diamondCut[0] */\n      dup2\n      mload\n      dup2\n      lt\n      tag_90\n      jumpi\n      tag_91\n      tag_58\n      jump\t// in\n    tag_91:\n    tag_90:\n      0x20\n      mul\n      0x20\n      add\n      add\n        /* \"contracts/proxy/EIP2535/RegistLogicContract.sol\":2286:2479  _diamondCut[0] = IDiamond.FacetCut({... */\n      dup2\n      swap1\n      mstore\n      pop\n        /* \"contracts/proxy/EIP2535/RegistLogicContract.sol\":2489:2559  _registFacet(_diamondProxyAddress, _diamondCut, address(0), bytes(\"\")) */\n      tag_92\n        /* \"contracts/proxy/EIP2535/RegistLogicContract.sol\":2502:2522  _diamondProxyAddress */\n      dup5\n        /* \"contracts/proxy/EIP2535/RegistLogicContract.sol\":2524:2535  _diamondCut */\n      dup3\n        /* \"contracts/proxy/EIP2535/RegistLogicContract.sol\":2545:2546  0 */\n      0x00\n        /* \"contracts/proxy/EIP2535/RegistLogicContract.sol\":2549:2558  bytes(\"\") */\n      mload(0x40)\n      dup1\n      0x20\n      add\n      0x40\n      mstore\n      dup1\n      0x00\n      dup2\n      mstore\n      pop\n        /* \"contracts/proxy/EIP2535/RegistLogicContract.sol\":2489:2501  _registFacet */\n      tag_76\n        /* \"contracts/proxy/EIP2535/RegistLogicContract.sol\":2489:2559  _registFacet(_diamondProxyAddress, _diamondCut, address(0), bytes(\"\")) */\n      jump\t// in\n    tag_92:\n        /* \"contracts/proxy/EIP2535/RegistLogicContract.sol\":2029:2566  {... */\n      pop\n      pop\n        /* \"contracts/proxy/EIP2535/RegistLogicContract.sol\":1929:2566  function registLogicOneRemoveSelector(address _diamondProxyAddress, address _facetAddress) external {... */\n      pop\n      pop\n      jump\t// out\n        /* \"contracts/proxy/EIP2535/RegistLogicContract.sol\":2572:3258  function registLogicTwoContract(address _diamondProxyAddress, address _facetAddress) external {... */\n    tag_23:\n        /* \"contracts/proxy/EIP2535/RegistLogicContract.sol\":2716:2741  bytes4[] memory selectors */\n      0x00\n        /* \"contracts/proxy/EIP2535/RegistLogicContract.sol\":2757:2758  2 */\n      0x02\n        /* \"contracts/proxy/EIP2535/RegistLogicContract.sol\":2744:2759  new bytes4[](2) */\n      0xffffffffffffffff\n      dup2\n      gt\n      iszero\n      tag_94\n      jumpi\n      tag_95\n      tag_48\n      jump\t// in\n    tag_95:\n    tag_94:\n      mload(0x40)\n      swap1\n      dup1\n      dup3\n      mstore\n      dup1\n      0x20\n      mul\n      0x20\n      add\n      dup3\n      add\n      0x40\n      mstore\n      dup1\n      iszero\n      tag_96\n      jumpi\n      dup2\n      0x20\n      add\n      0x20\n      dup3\n      mul\n      dup1\n      calldatasize\n      dup4\n      calldatacopy\n      dup1\n      dup3\n      add\n      swap2\n      pop\n      pop\n      swap1\n      pop\n    tag_96:\n      pop\n        /* \"contracts/proxy/EIP2535/RegistLogicContract.sol\":2716:2759  bytes4[] memory selectors = new bytes4[](2) */\n      swap1\n      pop\n        /* \"contracts/proxy/EIP2535/RegistLogicContract.sol\":2784:2819  LogicTwoFacet.getMyContent.selector */\n      shl(0xe0, 0xada84967)\n        /* \"contracts/proxy/EIP2535/RegistLogicContract.sol\":2769:2778  selectors */\n      dup2\n        /* \"contracts/proxy/EIP2535/RegistLogicContract.sol\":2779:2780  0 */\n      0x00\n        /* \"contracts/proxy/EIP2535/RegistLogicContract.sol\":2769:2781  selectors[0] */\n      dup2\n      mload\n      dup2\n      lt\n      tag_97\n      jumpi\n      tag_98\n      tag_58\n      jump\t// in\n    tag_98:\n    tag_97:\n      0x20\n      mul\n      0x20\n      add\n      add\n        /* \"contracts/proxy/EIP2535/RegistLogicContract.sol\":2769:2819  selectors[0] = LogicTwoFacet.getMyContent.selector */\n      swap1\n      not(0xffffffffffffffffffffffffffffffffffffffffffffffffffffffff)\n      and\n      swap1\n      dup2\n      not(0xffffffffffffffffffffffffffffffffffffffffffffffffffffffff)\n      and\n      dup2\n      mstore\n      pop\n      pop\n        /* \"contracts/proxy/EIP2535/RegistLogicContract.sol\":2844:2879  LogicTwoFacet.setMyCounter.selector */\n      shl(0xe0, 0x8611ede8)\n        /* \"contracts/proxy/EIP2535/RegistLogicContract.sol\":2829:2838  selectors */\n      dup2\n        /* \"contracts/proxy/EIP2535/RegistLogicContract.sol\":2839:2840  1 */\n      0x01\n        /* \"contracts/proxy/EIP2535/RegistLogicContract.sol\":2829:2841  selectors[1] */\n      dup2\n      mload\n      dup2\n      lt\n      tag_99\n      jumpi\n      tag_100\n      tag_58\n      jump\t// in\n    tag_100:\n    tag_99:\n      0x20\n      mul\n      0x20\n      add\n      add\n        /* \"contracts/proxy/EIP2535/RegistLogicContract.sol\":2829:2879  selectors[1] = LogicTwoFacet.setMyCounter.selector */\n      swap1\n      not(0xffffffffffffffffffffffffffffffffffffffffffffffffffffffff)\n      and\n      swap1\n      dup2\n      not(0xffffffffffffffffffffffffffffffffffffffffffffffffffffffff)\n      and\n      dup2\n      mstore\n      pop\n      pop\n        /* \"contracts/proxy/EIP2535/RegistLogicContract.sol\":2898:2939  IDiamondCut.FacetCut[] memory _diamondCut */\n      0x00\n        /* \"contracts/proxy/EIP2535/RegistLogicContract.sol\":2969:2970  1 */\n      0x01\n        /* \"contracts/proxy/EIP2535/RegistLogicContract.sol\":2942:2971  new IDiamondCut.FacetCut[](1) */\n      0xffffffffffffffff\n      dup2\n      gt\n      iszero\n      tag_101\n      jumpi\n      tag_102\n      tag_48\n      jump\t// in\n    tag_102:\n    tag_101:\n      mload(0x40)\n      swap1\n      dup1\n      dup3\n      mstore\n      dup1\n      0x20\n      mul\n      0x20\n      add\n      dup3\n      add\n      0x40\n      mstore\n      dup1\n      iszero\n      tag_103\n      jumpi\n      dup2\n      0x20\n      add\n    tag_104:\n      tag_105\n      tag_52\n      jump\t// in\n    tag_105:\n      dup2\n      mstore\n      0x20\n      add\n      swap1\n      0x01\n      swap1\n      sub\n      swap1\n      dup2\n      tag_104\n      jumpi\n      swap1\n      pop\n    tag_103:\n      pop\n        /* \"contracts/proxy/EIP2535/RegistLogicContract.sol\":2898:2971  IDiamondCut.FacetCut[] memory _diamondCut = new IDiamondCut.FacetCut[](1) */\n      swap1\n      pop\n        /* \"contracts/proxy/EIP2535/RegistLogicContract.sol\":2998:3171  IDiamond.FacetCut({... */\n      mload(0x40)\n      dup1\n      0x60\n      add\n      0x40\n      mstore\n      dup1\n        /* \"contracts/proxy/EIP2535/RegistLogicContract.sol\":3044:3057  _facetAddress */\n      dup5\n        /* \"contracts/proxy/EIP2535/RegistLogicContract.sol\":2998:3171  IDiamond.FacetCut({... */\n      0xffffffffffffffffffffffffffffffffffffffff\n      and\n      dup2\n      mstore\n      0x20\n      add\n        /* \"contracts/proxy/EIP2535/RegistLogicContract.sol\":3079:3106  IDiamond.FacetCutAction.Add */\n      0x00\n        /* \"contracts/proxy/EIP2535/RegistLogicContract.sol\":2998:3171  IDiamond.FacetCut({... */\n      0x02\n      dup2\n      gt\n      iszero\n      tag_106\n      jumpi\n      tag_107\n      tag_63\n      jump\t// in\n    tag_107:\n    tag_106:\n      dup2\n      mstore\n      0x20\n      add\n        /* \"contracts/proxy/EIP2535/RegistLogicContract.sol\":3151:3160  selectors */\n      dup4\n        /* \"contracts/proxy/EIP2535/RegistLogicContract.sol\":2998:3171  IDiamond.FacetCut({... */\n      dup2\n      mstore\n      pop\n        /* \"contracts/proxy/EIP2535/RegistLogicContract.sol\":2981:2992  _diamondCut */\n      dup2\n        /* \"contracts/proxy/EIP2535/RegistLogicContract.sol\":2993:2994  0 */\n      0x00\n        /* \"contracts/proxy/EIP2535/RegistLogicContract.sol\":2981:2995  _diamondCut[0] */\n      dup2\n      mload\n      dup2\n      lt\n      tag_108\n      jumpi\n      tag_109\n      tag_58\n      jump\t// in\n    tag_109:\n    tag_108:\n      0x20\n      mul\n      0x20\n      add\n      add\n        /* \"contracts/proxy/EIP2535/RegistLogicContract.sol\":2981:3171  _diamondCut[0] = IDiamond.FacetCut({... */\n      dup2\n      swap1\n      mstore\n      pop\n        /* \"contracts/proxy/EIP2535/RegistLogicContract.sol\":3181:3251  _registFacet(_diamondProxyAddress, _diamondCut, address(0), bytes(\"\")) */\n      tag_110\n        /* \"contracts/proxy/EIP2535/RegistLogicContract.sol\":3194:3214  _diamondProxyAddress */\n      dup5\n        /* \"contracts/proxy/EIP2535/RegistLogicContract.sol\":3216:3227  _diamondCut */\n      dup3\n        /* \"contracts/proxy/EIP2535/RegistLogicContract.sol\":3237:3238  0 */\n      0x00\n        /* \"contracts/proxy/EIP2535/RegistLogicContract.sol\":3241:3250  bytes(\"\") */\n      mload(0x40)\n      dup1\n      0x20\n      add\n      0x40\n      mstore\n      dup1\n      0x00\n      dup2\n      mstore\n      pop\n        /* \"contracts/proxy/EIP2535/RegistLogicContract.sol\":3181:3193  _registFacet */\n      tag_76\n        /* \"contracts/proxy/EIP2535/RegistLogicContract.sol\":3181:3251  _registFacet(_diamondProxyAddress, _diamondCut, address(0), bytes(\"\")) */\n      jump\t// in\n    tag_110:\n        /* \"contracts/proxy/EIP2535/RegistLogicContract.sol\":2666:3258  {... */\n      pop\n      pop\n        /* \"contracts/proxy/EIP2535/RegistLogicContract.sol\":2572:3258  function registLogicTwoContract(address _diamondProxyAddress, address _facetAddress) external {... */\n      pop\n      pop\n      jump\t// out\n        /* \"contracts/proxy/EIP2535/RegistLogicContract.sol\":5931:6683  function registLogicTwoV2Change(address _diamondProxyAddress, address _facetAddress) external {... */\n    tag_26:\n        /* \"contracts/proxy/EIP2535/RegistLogicContract.sol\":6075:6116  IDiamondCut.FacetCut[] memory _diamondCut */\n      0x00\n        /* \"contracts/proxy/EIP2535/RegistLogicContract.sol\":6146:6147  1 */\n      0x01\n        /* \"contracts/proxy/EIP2535/RegistLogicContract.sol\":6119:6148  new IDiamondCut.FacetCut[](1) */\n      0xffffffffffffffff\n      dup2\n      gt\n      iszero\n      tag_112\n      jumpi\n      tag_113\n      tag_48\n      jump\t// in\n    tag_113:\n    tag_112:\n      mload(0x40)\n      swap1\n      dup1\n      dup3\n      mstore\n      dup1\n      0x20\n      mul\n      0x20\n      add\n      dup3\n      add\n      0x40\n      mstore\n      dup1\n      iszero\n      tag_114\n      jumpi\n      dup2\n      0x20\n      add\n    tag_115:\n      tag_116\n      tag_52\n      jump\t// in\n    tag_116:\n      dup2\n      mstore\n      0x20\n      add\n      swap1\n      0x01\n      swap1\n      sub\n      swap1\n      dup2\n      tag_115\n      jumpi\n      swap1\n      pop\n    tag_114:\n      pop\n        /* \"contracts/proxy/EIP2535/RegistLogicContract.sol\":6075:6148  IDiamondCut.FacetCut[] memory _diamondCut = new IDiamondCut.FacetCut[](1) */\n      swap1\n      pop\n        /* \"contracts/proxy/EIP2535/RegistLogicContract.sol\":6215:6243  bytes4[] memory addSelectors */\n      0x00\n        /* \"contracts/proxy/EIP2535/RegistLogicContract.sol\":6259:6260  2 */\n      0x02\n        /* \"contracts/proxy/EIP2535/RegistLogicContract.sol\":6246:6261  new bytes4[](2) */\n      0xffffffffffffffff\n      dup2\n      gt\n      iszero\n      tag_117\n      jumpi\n      tag_118\n      tag_48\n      jump\t// in\n    tag_118:\n    tag_117:\n      mload(0x40)\n      swap1\n      dup1\n      dup3\n      mstore\n      dup1\n      0x20\n      mul\n      0x20\n      add\n      dup3\n      add\n      0x40\n      mstore\n      dup1\n      iszero\n      tag_119\n      jumpi\n      dup2\n      0x20\n      add\n      0x20\n      dup3\n      mul\n      dup1\n      calldatasize\n      dup4\n      calldatacopy\n      dup1\n      dup3\n      add\n      swap2\n      pop\n      pop\n      swap1\n      pop\n    tag_119:\n      pop\n        /* \"contracts/proxy/EIP2535/RegistLogicContract.sol\":6215:6261  bytes4[] memory addSelectors = new bytes4[](2) */\n      swap1\n      pop\n        /* \"contracts/proxy/EIP2535/RegistLogicContract.sol\":6289:6329  LogicTwoV2Facet.beforeMyCounter.selector */\n      shl(0xe0, 0x26cfb688)\n        /* \"contracts/proxy/EIP2535/RegistLogicContract.sol\":6271:6283  addSelectors */\n      dup2\n        /* \"contracts/proxy/EIP2535/RegistLogicContract.sol\":6284:6285  0 */\n      0x00\n        /* \"contracts/proxy/EIP2535/RegistLogicContract.sol\":6271:6286  addSelectors[0] */\n      dup2\n      mload\n      dup2\n      lt\n      tag_120\n      jumpi\n      tag_121\n      tag_58\n      jump\t// in\n    tag_121:\n    tag_120:\n      0x20\n      mul\n      0x20\n      add\n      add\n        /* \"contracts/proxy/EIP2535/RegistLogicContract.sol\":6271:6329  addSelectors[0] = LogicTwoV2Facet.beforeMyCounter.selector */\n      swap1\n      not(0xffffffffffffffffffffffffffffffffffffffffffffffffffffffff)\n      and\n      swap1\n      dup2\n      not(0xffffffffffffffffffffffffffffffffffffffffffffffffffffffff)\n      and\n      dup2\n      mstore\n      pop\n      pop\n        /* \"contracts/proxy/EIP2535/RegistLogicContract.sol\":6357:6396  LogicTwoV2Facet.afterMyCounter.selector */\n      shl(0xe0, 0xc2dbe6f9)\n        /* \"contracts/proxy/EIP2535/RegistLogicContract.sol\":6339:6351  addSelectors */\n      dup2\n        /* \"contracts/proxy/EIP2535/RegistLogicContract.sol\":6352:6353  1 */\n      0x01\n        /* \"contracts/proxy/EIP2535/RegistLogicContract.sol\":6339:6354  addSelectors[1] */\n      dup2\n      mload\n      dup2\n      lt\n      tag_122\n      jumpi\n      tag_123\n      tag_58\n      jump\t// in\n    tag_123:\n    tag_122:\n      0x20\n      mul\n      0x20\n      add\n      add\n        /* \"contracts/proxy/EIP2535/RegistLogicContract.sol\":6339:6396  addSelectors[1] = LogicTwoV2Facet.afterMyCounter.selector */\n      swap1\n      not(0xffffffffffffffffffffffffffffffffffffffffffffffffffffffff)\n      and\n      swap1\n      dup2\n      not(0xffffffffffffffffffffffffffffffffffffffffffffffffffffffff)\n      and\n      dup2\n      mstore\n      pop\n      pop\n        /* \"contracts/proxy/EIP2535/RegistLogicContract.sol\":6432:6596  IDiamond.FacetCut({... */\n      mload(0x40)\n      dup1\n      0x60\n      add\n      0x40\n      mstore\n      dup1\n        /* \"contracts/proxy/EIP2535/RegistLogicContract.sol\":6478:6491  _facetAddress */\n      dup5\n        /* \"contracts/proxy/EIP2535/RegistLogicContract.sol\":6432:6596  IDiamond.FacetCut({... */\n      0xffffffffffffffffffffffffffffffffffffffff\n      and\n      dup2\n      mstore\n      0x20\n      add\n        /* \"contracts/proxy/EIP2535/RegistLogicContract.sol\":6513:6540  IDiamond.FacetCutAction.Add */\n      0x00\n        /* \"contracts/proxy/EIP2535/RegistLogicContract.sol\":6432:6596  IDiamond.FacetCut({... */\n      0x02\n      dup2\n      gt\n      iszero\n      tag_124\n      jumpi\n      tag_125\n      tag_63\n      jump\t// in\n    tag_125:\n    tag_124:\n      dup2\n      mstore\n      0x20\n      add\n        /* \"contracts/proxy/EIP2535/RegistLogicContract.sol\":6573:6585  addSelectors */\n      dup3\n        /* \"contracts/proxy/EIP2535/RegistLogicContract.sol\":6432:6596  IDiamond.FacetCut({... */\n      dup2\n      mstore\n      pop\n        /* \"contracts/proxy/EIP2535/RegistLogicContract.sol\":6415:6426  _diamondCut */\n      dup3\n        /* \"contracts/proxy/EIP2535/RegistLogicContract.sol\":6427:6428  0 */\n      0x00\n        /* \"contracts/proxy/EIP2535/RegistLogicContract.sol\":6415:6429  _diamondCut[0] */\n      dup2\n      mload\n      dup2\n      lt\n      tag_126\n      jumpi\n      tag_127\n      tag_58\n      jump\t// in\n    tag_127:\n    tag_126:\n      0x20\n      mul\n      0x20\n      add\n      add\n        /* \"contracts/proxy/EIP2535/RegistLogicContract.sol\":6415:6596  _diamondCut[0] = IDiamond.FacetCut({... */\n      dup2\n      swap1\n      mstore\n      pop\n        /* \"contracts/proxy/EIP2535/RegistLogicContract.sol\":6606:6676  _registFacet(_diamondProxyAddress, _diamondCut, address(0), bytes(\"\")) */\n      tag_128\n        /* \"contracts/proxy/EIP2535/RegistLogicContract.sol\":6619:6639  _diamondProxyAddress */\n      dup5\n        /* \"contracts/proxy/EIP2535/RegistLogicContract.sol\":6641:6652  _diamondCut */\n      dup4\n        /* \"contracts/proxy/EIP2535/RegistLogicContract.sol\":6662:6663  0 */\n      0x00\n        /* \"contracts/proxy/EIP2535/RegistLogicContract.sol\":6666:6675  bytes(\"\") */\n      mload(0x40)\n      dup1\n      0x20\n      add\n      0x40\n      mstore\n      dup1\n      0x00\n      dup2\n      mstore\n      pop\n        /* \"contracts/proxy/EIP2535/RegistLogicContract.sol\":6606:6618  _registFacet */\n      tag_76\n        /* \"contracts/proxy/EIP2535/RegistLogicContract.sol\":6606:6676  _registFacet(_diamondProxyAddress, _diamondCut, address(0), bytes(\"\")) */\n      jump\t// in\n    tag_128:\n        /* \"contracts/proxy/EIP2535/RegistLogicContract.sol\":6025:6683  {... */\n      pop\n      pop\n        /* \"contracts/proxy/EIP2535/RegistLogicContract.sol\":5931:6683  function registLogicTwoV2Change(address _diamondProxyAddress, address _facetAddress) external {... */\n      pop\n      pop\n      jump\t// out\n        /* \"contracts/proxy/EIP2535/RegistLogicContract.sol\":538:1286  function registLogicOneContract(address _diamondProxyAddress, address _facetAddress) external {... */\n    tag_29:\n        /* \"contracts/proxy/EIP2535/RegistLogicContract.sol\":682:707  bytes4[] memory selectors */\n      0x00\n        /* \"contracts/proxy/EIP2535/RegistLogicContract.sol\":723:724  3 */\n      0x03\n        /* \"contracts/proxy/EIP2535/RegistLogicContract.sol\":710:725  new bytes4[](3) */\n      0xffffffffffffffff\n      dup2\n      gt\n      iszero\n      tag_130\n      jumpi\n      tag_131\n      tag_48\n      jump\t// in\n    tag_131:\n    tag_130:\n      mload(0x40)\n      swap1\n      dup1\n      dup3\n      mstore\n      dup1\n      0x20\n      mul\n      0x20\n      add\n      dup3\n      add\n      0x40\n      mstore\n      dup1\n      iszero\n      tag_132\n      jumpi\n      dup2\n      0x20\n      add\n      0x20\n      dup3\n      mul\n      dup1\n      calldatasize\n      dup4\n      calldatacopy\n      dup1\n      dup3\n      add\n      swap2\n      pop\n      pop\n      swap1\n      pop\n    tag_132:\n      pop\n        /* \"contracts/proxy/EIP2535/RegistLogicContract.sol\":682:725  bytes4[] memory selectors = new bytes4[](3) */\n      swap1\n      pop\n        /* \"contracts/proxy/EIP2535/RegistLogicContract.sol\":750:785  LogicOneFacet.getMyCounter.selector */\n      shl(0xe0, 0x916d5743)\n        /* \"contracts/proxy/EIP2535/RegistLogicContract.sol\":735:744  selectors */\n      dup2\n        /* \"contracts/proxy/EIP2535/RegistLogicContract.sol\":745:746  0 */\n      0x00\n        /* \"contracts/proxy/EIP2535/RegistLogicContract.sol\":735:747  selectors[0] */\n      dup2\n      mload\n      dup2\n      lt\n      tag_133\n      jumpi\n      tag_134\n      tag_58\n      jump\t// in\n    tag_134:\n    tag_133:\n      0x20\n      mul\n      0x20\n      add\n      add\n        /* \"contracts/proxy/EIP2535/RegistLogicContract.sol\":735:785  selectors[0] = LogicOneFacet.getMyCounter.selector */\n      swap1\n      not(0xffffffffffffffffffffffffffffffffffffffffffffffffffffffff)\n      and\n      swap1\n      dup2\n      not(0xffffffffffffffffffffffffffffffffffffffffffffffffffffffff)\n      and\n      dup2\n      mstore\n      pop\n      pop\n        /* \"contracts/proxy/EIP2535/RegistLogicContract.sol\":810:845  LogicOneFacet.setMyCounter.selector */\n      shl(0xe0, 0x5cfe3420)\n        /* \"contracts/proxy/EIP2535/RegistLogicContract.sol\":795:804  selectors */\n      dup2\n        /* \"contracts/proxy/EIP2535/RegistLogicContract.sol\":805:806  1 */\n      0x01\n        /* \"contracts/proxy/EIP2535/RegistLogicContract.sol\":795:807  selectors[1] */\n      dup2\n      mload\n      dup2\n      lt\n      tag_135\n      jumpi\n      tag_136\n      tag_58\n      jump\t// in\n    tag_136:\n    tag_135:\n      0x20\n      mul\n      0x20\n      add\n      add\n        /* \"contracts/proxy/EIP2535/RegistLogicContract.sol\":795:845  selectors[1] = LogicOneFacet.setMyCounter.selector */\n      swap1\n      not(0xffffffffffffffffffffffffffffffffffffffffffffffffffffffff)\n      and\n      swap1\n      dup2\n      not(0xffffffffffffffffffffffffffffffffffffffffffffffffffffffff)\n      and\n      dup2\n      mstore\n      pop\n      pop\n        /* \"contracts/proxy/EIP2535/RegistLogicContract.sol\":870:907  LogicOneFacet.increMyCounter.selector */\n      shl(0xe0, 0x8783cf49)\n        /* \"contracts/proxy/EIP2535/RegistLogicContract.sol\":855:864  selectors */\n      dup2\n        /* \"contracts/proxy/EIP2535/RegistLogicContract.sol\":865:866  2 */\n      0x02\n        /* \"contracts/proxy/EIP2535/RegistLogicContract.sol\":855:867  selectors[2] */\n      dup2\n      mload\n      dup2\n      lt\n      tag_137\n      jumpi\n      tag_138\n      tag_58\n      jump\t// in\n    tag_138:\n    tag_137:\n      0x20\n      mul\n      0x20\n      add\n      add\n        /* \"contracts/proxy/EIP2535/RegistLogicContract.sol\":855:907  selectors[2] = LogicOneFacet.increMyCounter.selector */\n      swap1\n      not(0xffffffffffffffffffffffffffffffffffffffffffffffffffffffff)\n      and\n      swap1\n      dup2\n      not(0xffffffffffffffffffffffffffffffffffffffffffffffffffffffff)\n      and\n      dup2\n      mstore\n      pop\n      pop\n        /* \"contracts/proxy/EIP2535/RegistLogicContract.sol\":926:967  IDiamondCut.FacetCut[] memory _diamondCut */\n      0x00\n        /* \"contracts/proxy/EIP2535/RegistLogicContract.sol\":997:998  1 */\n      0x01\n        /* \"contracts/proxy/EIP2535/RegistLogicContract.sol\":970:999  new IDiamondCut.FacetCut[](1) */\n      0xffffffffffffffff\n      dup2\n      gt\n      iszero\n      tag_139\n      jumpi\n      tag_140\n      tag_48\n      jump\t// in\n    tag_140:\n    tag_139:\n      mload(0x40)\n      swap1\n      dup1\n      dup3\n      mstore\n      dup1\n      0x20\n      mul\n      0x20\n      add\n      dup3\n      add\n      0x40\n      mstore\n      dup1\n      iszero\n      tag_141\n      jumpi\n      dup2\n      0x20\n      add\n    tag_142:\n      tag_143\n      tag_52\n      jump\t// in\n    tag_143:\n      dup2\n      mstore\n      0x20\n      add\n      swap1\n      0x01\n      swap1\n      sub\n      swap1\n      dup2\n      tag_142\n      jumpi\n      swap1\n      pop\n    tag_141:\n      pop\n        /* \"contracts/proxy/EIP2535/RegistLogicContract.sol\":926:999  IDiamondCut.FacetCut[] memory _diamondCut = new IDiamondCut.FacetCut[](1) */\n      swap1\n      pop\n        /* \"contracts/proxy/EIP2535/RegistLogicContract.sol\":1026:1199  IDiamond.FacetCut({... */\n      mload(0x40)\n      dup1\n      0x60\n      add\n      0x40\n      mstore\n      dup1\n        /* \"contracts/proxy/EIP2535/RegistLogicContract.sol\":1072:1085  _facetAddress */\n      dup5\n        /* \"contracts/proxy/EIP2535/RegistLogicContract.sol\":1026:1199  IDiamond.FacetCut({... */\n      0xffffffffffffffffffffffffffffffffffffffff\n      and\n      dup2\n      mstore\n      0x20\n      add\n        /* \"contracts/proxy/EIP2535/RegistLogicContract.sol\":1107:1134  IDiamond.FacetCutAction.Add */\n      0x00\n        /* \"contracts/proxy/EIP2535/RegistLogicContract.sol\":1026:1199  IDiamond.FacetCut({... */\n      0x02\n      dup2\n      gt\n      iszero\n      tag_144\n      jumpi\n      tag_145\n      tag_63\n      jump\t// in\n    tag_145:\n    tag_144:\n      dup2\n      mstore\n      0x20\n      add\n        /* \"contracts/proxy/EIP2535/RegistLogicContract.sol\":1179:1188  selectors */\n      dup4\n        /* \"contracts/proxy/EIP2535/RegistLogicContract.sol\":1026:1199  IDiamond.FacetCut({... */\n      dup2\n      mstore\n      pop\n        /* \"contracts/proxy/EIP2535/RegistLogicContract.sol\":1009:1020  _diamondCut */\n      dup2\n        /* \"contracts/proxy/EIP2535/RegistLogicContract.sol\":1021:1022  0 */\n      0x00\n        /* \"contracts/proxy/EIP2535/RegistLogicContract.sol\":1009:1023  _diamondCut[0] */\n      dup2\n      mload\n      dup2\n      lt\n      tag_146\n      jumpi\n      tag_147\n      tag_58\n      jump\t// in\n    tag_147:\n    tag_146:\n      0x20\n      mul\n      0x20\n      add\n      add\n        /* \"contracts/proxy/EIP2535/RegistLogicContract.sol\":1009:1199  _diamondCut[0] = IDiamond.FacetCut({... */\n      dup2\n      swap1\n      mstore\n      pop\n        /* \"contracts/proxy/EIP2535/RegistLogicContract.sol\":1209:1279  _registFacet(_diamondProxyAddress, _diamondCut, address(0), bytes(\"\")) */\n      tag_148\n        /* \"contracts/proxy/EIP2535/RegistLogicContract.sol\":1222:1242  _diamondProxyAddress */\n      dup5\n        /* \"contracts/proxy/EIP2535/RegistLogicContract.sol\":1244:1255  _diamondCut */\n      dup3\n        /* \"contracts/proxy/EIP2535/RegistLogicContract.sol\":1265:1266  0 */\n      0x00\n        /* \"contracts/proxy/EIP2535/RegistLogicContract.sol\":1269:1278  bytes(\"\") */\n      mload(0x40)\n      dup1\n      0x20\n      add\n      0x40\n      mstore\n      dup1\n      0x00\n      dup2\n      mstore\n      pop\n        /* \"contracts/proxy/EIP2535/RegistLogicContract.sol\":1209:1221  _registFacet */\n      tag_76\n        /* \"contracts/proxy/EIP2535/RegistLogicContract.sol\":1209:1279  _registFacet(_diamondProxyAddress, _diamondCut, address(0), bytes(\"\")) */\n      jump\t// in\n    tag_148:\n        /* \"contracts/proxy/EIP2535/RegistLogicContract.sol\":632:1286  {... */\n      pop\n      pop\n        /* \"contracts/proxy/EIP2535/RegistLogicContract.sol\":538:1286  function registLogicOneContract(address _diamondProxyAddress, address _facetAddress) external {... */\n      pop\n      pop\n      jump\t// out\n        /* \"contracts/proxy/EIP2535/RegistLogicContract.sol\":7468:8197  function registLogicTwoV3Remove(address _diamondProxyAddress, address _facetAddress) external {... */\n    tag_32:\n        /* \"contracts/proxy/EIP2535/RegistLogicContract.sol\":7612:7653  IDiamondCut.FacetCut[] memory _diamondCut */\n      0x00\n        /* \"contracts/proxy/EIP2535/RegistLogicContract.sol\":7683:7684  1 */\n      0x01\n        /* \"contracts/proxy/EIP2535/RegistLogicContract.sol\":7656:7685  new IDiamondCut.FacetCut[](1) */\n      0xffffffffffffffff\n      dup2\n      gt\n      iszero\n      tag_150\n      jumpi\n      tag_151\n      tag_48\n      jump\t// in\n    tag_151:\n    tag_150:\n      mload(0x40)\n      swap1\n      dup1\n      dup3\n      mstore\n      dup1\n      0x20\n      mul\n      0x20\n      add\n      dup3\n      add\n      0x40\n      mstore\n      dup1\n      iszero\n      tag_152\n      jumpi\n      dup2\n      0x20\n      add\n    tag_153:\n      tag_154\n      tag_52\n      jump\t// in\n    tag_154:\n      dup2\n      mstore\n      0x20\n      add\n      swap1\n      0x01\n      swap1\n      sub\n      swap1\n      dup2\n      tag_153\n      jumpi\n      swap1\n      pop\n    tag_152:\n      pop\n        /* \"contracts/proxy/EIP2535/RegistLogicContract.sol\":7612:7685  IDiamondCut.FacetCut[] memory _diamondCut = new IDiamondCut.FacetCut[](1) */\n      swap1\n      pop\n        /* \"contracts/proxy/EIP2535/RegistLogicContract.sol\":7752:7780  bytes4[] memory addSelectors */\n      0x00\n        /* \"contracts/proxy/EIP2535/RegistLogicContract.sol\":7796:7797  1 */\n      0x01\n        /* \"contracts/proxy/EIP2535/RegistLogicContract.sol\":7783:7798  new bytes4[](1) */\n      0xffffffffffffffff\n      dup2\n      gt\n      iszero\n      tag_155\n      jumpi\n      tag_156\n      tag_48\n      jump\t// in\n    tag_156:\n    tag_155:\n      mload(0x40)\n      swap1\n      dup1\n      dup3\n      mstore\n      dup1\n      0x20\n      mul\n      0x20\n      add\n      dup3\n      add\n      0x40\n      mstore\n      dup1\n      iszero\n      tag_157\n      jumpi\n      dup2\n      0x20\n      add\n      0x20\n      dup3\n      mul\n      dup1\n      calldatasize\n      dup4\n      calldatacopy\n      dup1\n      dup3\n      add\n      swap2\n      pop\n      pop\n      swap1\n      pop\n    tag_157:\n      pop\n        /* \"contracts/proxy/EIP2535/RegistLogicContract.sol\":7752:7798  bytes4[] memory addSelectors = new bytes4[](1) */\n      swap1\n      pop\n        /* \"contracts/proxy/EIP2535/RegistLogicContract.sol\":7826:7858  LogicTwoV3Facet.getSlot.selector */\n      shl(0xe0, 0x6c877c84)\n        /* \"contracts/proxy/EIP2535/RegistLogicContract.sol\":7808:7820  addSelectors */\n      dup2\n        /* \"contracts/proxy/EIP2535/RegistLogicContract.sol\":7821:7822  0 */\n      0x00\n        /* \"contracts/proxy/EIP2535/RegistLogicContract.sol\":7808:7823  addSelectors[0] */\n      dup2\n      mload\n      dup2\n      lt\n      tag_158\n      jumpi\n      tag_159\n      tag_58\n      jump\t// in\n    tag_159:\n    tag_158:\n      0x20\n      mul\n      0x20\n      add\n      add\n        /* \"contracts/proxy/EIP2535/RegistLogicContract.sol\":7808:7858  addSelectors[0] = LogicTwoV3Facet.getSlot.selector */\n      swap1\n      not(0xffffffffffffffffffffffffffffffffffffffffffffffffffffffff)\n      and\n      swap1\n      dup2\n      not(0xffffffffffffffffffffffffffffffffffffffffffffffffffffffff)\n      and\n      dup2\n      mstore\n      pop\n      pop\n        /* \"contracts/proxy/EIP2535/RegistLogicContract.sol\":7894:8061  IDiamond.FacetCut({... */\n      mload(0x40)\n      dup1\n      0x60\n      add\n      0x40\n      mstore\n      dup1\n        /* \"contracts/proxy/EIP2535/RegistLogicContract.sol\":7940:7953  _facetAddress */\n      dup5\n        /* \"contracts/proxy/EIP2535/RegistLogicContract.sol\":7894:8061  IDiamond.FacetCut({... */\n      0xffffffffffffffffffffffffffffffffffffffff\n      and\n      dup2\n      mstore\n      0x20\n      add\n        /* \"contracts/proxy/EIP2535/RegistLogicContract.sol\":7975:8005  IDiamond.FacetCutAction.Remove */\n      0x02\n        /* \"contracts/proxy/EIP2535/RegistLogicContract.sol\":7894:8061  IDiamond.FacetCut({... */\n      dup1\n      dup2\n      gt\n      iszero\n      tag_160\n      jumpi\n      tag_161\n      tag_63\n      jump\t// in\n    tag_161:\n    tag_160:\n      dup2\n      mstore\n      0x20\n      add\n        /* \"contracts/proxy/EIP2535/RegistLogicContract.sol\":8038:8050  addSelectors */\n      dup3\n        /* \"contracts/proxy/EIP2535/RegistLogicContract.sol\":7894:8061  IDiamond.FacetCut({... */\n      dup2\n      mstore\n      pop\n        /* \"contracts/proxy/EIP2535/RegistLogicContract.sol\":7877:7888  _diamondCut */\n      dup3\n        /* \"contracts/proxy/EIP2535/RegistLogicContract.sol\":7889:7890  0 */\n      0x00\n        /* \"contracts/proxy/EIP2535/RegistLogicContract.sol\":7877:7891  _diamondCut[0] */\n      dup2\n      mload\n      dup2\n      lt\n      tag_162\n      jumpi\n      tag_163\n      tag_58\n      jump\t// in\n    tag_163:\n    tag_162:\n      0x20\n      mul\n      0x20\n      add\n      add\n        /* \"contracts/proxy/EIP2535/RegistLogicContract.sol\":7877:8061  _diamondCut[0] = IDiamond.FacetCut({... */\n      dup2\n      swap1\n      mstore\n      pop\n        /* \"contracts/proxy/EIP2535/RegistLogicContract.sol\":8120:8190  _registFacet(_diamondProxyAddress, _diamondCut, address(0), bytes(\"\")) */\n      tag_164\n        /* \"contracts/proxy/EIP2535/RegistLogicContract.sol\":8133:8153  _diamondProxyAddress */\n      dup5\n        /* \"contracts/proxy/EIP2535/RegistLogicContract.sol\":8155:8166  _diamondCut */\n      dup4\n        /* \"contracts/proxy/EIP2535/RegistLogicContract.sol\":8176:8177  0 */\n      0x00\n        /* \"contracts/proxy/EIP2535/RegistLogicContract.sol\":8180:8189  bytes(\"\") */\n      mload(0x40)\n      dup1\n      0x20\n      add\n      0x40\n      mstore\n      dup1\n      0x00\n      dup2\n      mstore\n      pop\n        /* \"contracts/proxy/EIP2535/RegistLogicContract.sol\":8120:8132  _registFacet */\n      tag_76\n        /* \"contracts/proxy/EIP2535/RegistLogicContract.sol\":8120:8190  _registFacet(_diamondProxyAddress, _diamondCut, address(0), bytes(\"\")) */\n      jump\t// in\n    tag_164:\n        /* \"contracts/proxy/EIP2535/RegistLogicContract.sol\":7562:8197  {... */\n      pop\n      pop\n        /* \"contracts/proxy/EIP2535/RegistLogicContract.sol\":7468:8197  function registLogicTwoV3Remove(address _diamondProxyAddress, address _facetAddress) external {... */\n      pop\n      pop\n      jump\t// out\n        /* \"contracts/proxy/EIP2535/RegistLogicContract.sol\":3264:3950  function registLogicTwoRemoveAllSelector(address _diamondProxyAddress, address _facetAddress) external {... */\n    tag_35:\n        /* \"contracts/proxy/EIP2535/RegistLogicContract.sol\":3417:3442  bytes4[] memory selectors */\n      0x00\n        /* \"contracts/proxy/EIP2535/RegistLogicContract.sol\":3458:3459  2 */\n      0x02\n        /* \"contracts/proxy/EIP2535/RegistLogicContract.sol\":3445:3460  new bytes4[](2) */\n      0xffffffffffffffff\n      dup2\n      gt\n      iszero\n      tag_166\n      jumpi\n      tag_167\n      tag_48\n      jump\t// in\n    tag_167:\n    tag_166:\n      mload(0x40)\n      swap1\n      dup1\n      dup3\n      mstore\n      dup1\n      0x20\n      mul\n      0x20\n      add\n      dup3\n      add\n      0x40\n      mstore\n      dup1\n      iszero\n      tag_168\n      jumpi\n      dup2\n      0x20\n      add\n      0x20\n      dup3\n      mul\n      dup1\n      calldatasize\n      dup4\n      calldatacopy\n      dup1\n      dup3\n      add\n      swap2\n      pop\n      pop\n      swap1\n      pop\n    tag_168:\n      pop\n        /* \"contracts/proxy/EIP2535/RegistLogicContract.sol\":3417:3460  bytes4[] memory selectors = new bytes4[](2) */\n      swap1\n      pop\n        /* \"contracts/proxy/EIP2535/RegistLogicContract.sol\":3485:3520  LogicTwoFacet.getMyContent.selector */\n      shl(0xe0, 0xada84967)\n        /* \"contracts/proxy/EIP2535/RegistLogicContract.sol\":3470:3479  selectors */\n      dup2\n        /* \"contracts/proxy/EIP2535/RegistLogicContract.sol\":3480:3481  0 */\n      0x00\n        /* \"contracts/proxy/EIP2535/RegistLogicContract.sol\":3470:3482  selectors[0] */\n      dup2\n      mload\n      dup2\n      lt\n      tag_169\n      jumpi\n      tag_170\n      tag_58\n      jump\t// in\n    tag_170:\n    tag_169:\n      0x20\n      mul\n      0x20\n      add\n      add\n        /* \"contracts/proxy/EIP2535/RegistLogicContract.sol\":3470:3520  selectors[0] = LogicTwoFacet.getMyContent.selector */\n      swap1\n      not(0xffffffffffffffffffffffffffffffffffffffffffffffffffffffff)\n      and\n      swap1\n      dup2\n      not(0xffffffffffffffffffffffffffffffffffffffffffffffffffffffff)\n      and\n      dup2\n      mstore\n      pop\n      pop\n        /* \"contracts/proxy/EIP2535/RegistLogicContract.sol\":3545:3580  LogicTwoFacet.setMyCounter.selector */\n      shl(0xe0, 0x8611ede8)\n        /* \"contracts/proxy/EIP2535/RegistLogicContract.sol\":3530:3539  selectors */\n      dup2\n        /* \"contracts/proxy/EIP2535/RegistLogicContract.sol\":3540:3541  1 */\n      0x01\n        /* \"contracts/proxy/EIP2535/RegistLogicContract.sol\":3530:3542  selectors[1] */\n      dup2\n      mload\n      dup2\n      lt\n      tag_171\n      jumpi\n      tag_172\n      tag_58\n      jump\t// in\n    tag_172:\n    tag_171:\n      0x20\n      mul\n      0x20\n      add\n      add\n        /* \"contracts/proxy/EIP2535/RegistLogicContract.sol\":3530:3580  selectors[1] = LogicTwoFacet.setMyCounter.selector */\n      swap1\n      not(0xffffffffffffffffffffffffffffffffffffffffffffffffffffffff)\n      and\n      swap1\n      dup2\n      not(0xffffffffffffffffffffffffffffffffffffffffffffffffffffffff)\n      and\n      dup2\n      mstore\n      pop\n      pop\n        /* \"contracts/proxy/EIP2535/RegistLogicContract.sol\":3599:3640  IDiamondCut.FacetCut[] memory _diamondCut */\n      0x00\n        /* \"contracts/proxy/EIP2535/RegistLogicContract.sol\":3670:3671  1 */\n      0x01\n        /* \"contracts/proxy/EIP2535/RegistLogicContract.sol\":3643:3672  new IDiamondCut.FacetCut[](1) */\n      0xffffffffffffffff\n      dup2\n      gt\n      iszero\n      tag_173\n      jumpi\n      tag_174\n      tag_48\n      jump\t// in\n    tag_174:\n    tag_173:\n      mload(0x40)\n      swap1\n      dup1\n      dup3\n      mstore\n      dup1\n      0x20\n      mul\n      0x20\n      add\n      dup3\n      add\n      0x40\n      mstore\n      dup1\n      iszero\n      tag_175\n      jumpi\n      dup2\n      0x20\n      add\n    tag_176:\n      tag_177\n      tag_52\n      jump\t// in\n    tag_177:\n      dup2\n      mstore\n      0x20\n      add\n      swap1\n      0x01\n      swap1\n      sub\n      swap1\n      dup2\n      tag_176\n      jumpi\n      swap1\n      pop\n    tag_175:\n      pop\n        /* \"contracts/proxy/EIP2535/RegistLogicContract.sol\":3599:3672  IDiamondCut.FacetCut[] memory _diamondCut = new IDiamondCut.FacetCut[](1) */\n      swap1\n      pop\n        /* \"contracts/proxy/EIP2535/RegistLogicContract.sol\":3699:3863  IDiamond.FacetCut({... */\n      mload(0x40)\n      dup1\n      0x60\n      add\n      0x40\n      mstore\n      dup1\n        /* \"contracts/proxy/EIP2535/RegistLogicContract.sol\":3745:3758  _facetAddress */\n      dup5\n        /* \"contracts/proxy/EIP2535/RegistLogicContract.sol\":3699:3863  IDiamond.FacetCut({... */\n      0xffffffffffffffffffffffffffffffffffffffff\n      and\n      dup2\n      mstore\n      0x20\n      add\n        /* \"contracts/proxy/EIP2535/RegistLogicContract.sol\":3780:3810  IDiamond.FacetCutAction.Remove */\n      0x02\n        /* \"contracts/proxy/EIP2535/RegistLogicContract.sol\":3699:3863  IDiamond.FacetCut({... */\n      dup1\n      dup2\n      gt\n      iszero\n      tag_178\n      jumpi\n      tag_179\n      tag_63\n      jump\t// in\n    tag_179:\n    tag_178:\n      dup2\n      mstore\n      0x20\n      add\n        /* \"contracts/proxy/EIP2535/RegistLogicContract.sol\":3843:3852  selectors */\n      dup4\n        /* \"contracts/proxy/EIP2535/RegistLogicContract.sol\":3699:3863  IDiamond.FacetCut({... */\n      dup2\n      mstore\n      pop\n        /* \"contracts/proxy/EIP2535/RegistLogicContract.sol\":3682:3693  _diamondCut */\n      dup2\n        /* \"contracts/proxy/EIP2535/RegistLogicContract.sol\":3694:3695  0 */\n      0x00\n        /* \"contracts/proxy/EIP2535/RegistLogicContract.sol\":3682:3696  _diamondCut[0] */\n      dup2\n      mload\n      dup2\n      lt\n      tag_180\n      jumpi\n      tag_181\n      tag_58\n      jump\t// in\n    tag_181:\n    tag_180:\n      0x20\n      mul\n      0x20\n      add\n      add\n        /* \"contracts/proxy/EIP2535/RegistLogicContract.sol\":3682:3863  _diamondCut[0] = IDiamond.FacetCut({... */\n      dup2\n      swap1\n      mstore\n      pop\n        /* \"contracts/proxy/EIP2535/RegistLogicContract.sol\":3873:3943  _registFacet(_diamondProxyAddress, _diamondCut, address(0), bytes(\"\")) */\n      tag_182\n        /* \"contracts/proxy/EIP2535/RegistLogicContract.sol\":3886:3906  _diamondProxyAddress */\n      dup5\n        /* \"contracts/proxy/EIP2535/RegistLogicContract.sol\":3908:3919  _diamondCut */\n      dup3\n        /* \"contracts/proxy/EIP2535/RegistLogicContract.sol\":3929:3930  0 */\n      0x00\n        /* \"contracts/proxy/EIP2535/RegistLogicContract.sol\":3933:3942  bytes(\"\") */\n      mload(0x40)\n      dup1\n      0x20\n      add\n      0x40\n      mstore\n      dup1\n      0x00\n      dup2\n      mstore\n      pop\n        /* \"contracts/proxy/EIP2535/RegistLogicContract.sol\":3873:3885  _registFacet */\n      tag_76\n        /* \"contracts/proxy/EIP2535/RegistLogicContract.sol\":3873:3943  _registFacet(_diamondProxyAddress, _diamondCut, address(0), bytes(\"\")) */\n      jump\t// in\n    tag_182:\n        /* \"contracts/proxy/EIP2535/RegistLogicContract.sol\":3367:3950  {... */\n      pop\n      pop\n        /* \"contracts/proxy/EIP2535/RegistLogicContract.sol\":3264:3950  function registLogicTwoRemoveAllSelector(address _diamondProxyAddress, address _facetAddress) external {... */\n      pop\n      pop\n      jump\t// out\n        /* \"contracts/proxy/EIP2535/RegistLogicContract.sol\":1292:1923  function registLogicOneAddSelector(address _diamondProxyAddress, address _facetAddress) external {... */\n    tag_38:\n        /* \"contracts/proxy/EIP2535/RegistLogicContract.sol\":1439:1464  bytes4[] memory selectors */\n      0x00\n        /* \"contracts/proxy/EIP2535/RegistLogicContract.sol\":1480:1481  1 */\n      0x01\n        /* \"contracts/proxy/EIP2535/RegistLogicContract.sol\":1467:1482  new bytes4[](1) */\n      0xffffffffffffffff\n      dup2\n      gt\n      iszero\n      tag_184\n      jumpi\n      tag_185\n      tag_48\n      jump\t// in\n    tag_185:\n    tag_184:\n      mload(0x40)\n      swap1\n      dup1\n      dup3\n      mstore\n      dup1\n      0x20\n      mul\n      0x20\n      add\n      dup3\n      add\n      0x40\n      mstore\n      dup1\n      iszero\n      tag_186\n      jumpi\n      dup2\n      0x20\n      add\n      0x20\n      dup3\n      mul\n      dup1\n      calldatasize\n      dup4\n      calldatacopy\n      dup1\n      dup3\n      add\n      swap2\n      pop\n      pop\n      swap1\n      pop\n    tag_186:\n      pop\n        /* \"contracts/proxy/EIP2535/RegistLogicContract.sol\":1439:1482  bytes4[] memory selectors = new bytes4[](1) */\n      swap1\n      pop\n        /* \"contracts/proxy/EIP2535/RegistLogicContract.sol\":1507:1544  LogicOneFacet.decreMyCounter.selector */\n      shl(0xe0, 0x6c65a62f)\n        /* \"contracts/proxy/EIP2535/RegistLogicContract.sol\":1492:1501  selectors */\n      dup2\n        /* \"contracts/proxy/EIP2535/RegistLogicContract.sol\":1502:1503  0 */\n      0x00\n        /* \"contracts/proxy/EIP2535/RegistLogicContract.sol\":1492:1504  selectors[0] */\n      dup2\n      mload\n      dup2\n      lt\n      tag_187\n      jumpi\n      tag_188\n      tag_58\n      jump\t// in\n    tag_188:\n    tag_187:\n      0x20\n      mul\n      0x20\n      add\n      add\n        /* \"contracts/proxy/EIP2535/RegistLogicContract.sol\":1492:1544  selectors[0] = LogicOneFacet.decreMyCounter.selector */\n      swap1\n      not(0xffffffffffffffffffffffffffffffffffffffffffffffffffffffff)\n      and\n      swap1\n      dup2\n      not(0xffffffffffffffffffffffffffffffffffffffffffffffffffffffff)\n      and\n      dup2\n      mstore\n      pop\n      pop\n        /* \"contracts/proxy/EIP2535/RegistLogicContract.sol\":1563:1604  IDiamondCut.FacetCut[] memory _diamondCut */\n      0x00\n        /* \"contracts/proxy/EIP2535/RegistLogicContract.sol\":1634:1635  1 */\n      0x01\n        /* \"contracts/proxy/EIP2535/RegistLogicContract.sol\":1607:1636  new IDiamondCut.FacetCut[](1) */\n      0xffffffffffffffff\n      dup2\n      gt\n      iszero\n      tag_189\n      jumpi\n      tag_190\n      tag_48\n      jump\t// in\n    tag_190:\n    tag_189:\n      mload(0x40)\n      swap1\n      dup1\n      dup3\n      mstore\n      dup1\n      0x20\n      mul\n      0x20\n      add\n      dup3\n      add\n      0x40\n      mstore\n      dup1\n      iszero\n      tag_191\n      jumpi\n      dup2\n      0x20\n      add\n    tag_192:\n      tag_193\n      tag_52\n      jump\t// in\n    tag_193:\n      dup2\n      mstore\n      0x20\n      add\n      swap1\n      0x01\n      swap1\n      sub\n      swap1\n      dup2\n      tag_192\n      jumpi\n      swap1\n      pop\n    tag_191:\n      pop\n        /* \"contracts/proxy/EIP2535/RegistLogicContract.sol\":1563:1636  IDiamondCut.FacetCut[] memory _diamondCut = new IDiamondCut.FacetCut[](1) */\n      swap1\n      pop\n        /* \"contracts/proxy/EIP2535/RegistLogicContract.sol\":1663:1836  IDiamond.FacetCut({... */\n      mload(0x40)\n      dup1\n      0x60\n      add\n      0x40\n      mstore\n      dup1\n        /* \"contracts/proxy/EIP2535/RegistLogicContract.sol\":1709:1722  _facetAddress */\n      dup5\n        /* \"contracts/proxy/EIP2535/RegistLogicContract.sol\":1663:1836  IDiamond.FacetCut({... */\n      0xffffffffffffffffffffffffffffffffffffffff\n      and\n      dup2\n      mstore\n      0x20\n      add\n        /* \"contracts/proxy/EIP2535/RegistLogicContract.sol\":1744:1771  IDiamond.FacetCutAction.Add */\n      0x00\n        /* \"contracts/proxy/EIP2535/RegistLogicContract.sol\":1663:1836  IDiamond.FacetCut({... */\n      0x02\n      dup2\n      gt\n      iszero\n      tag_194\n      jumpi\n      tag_195\n      tag_63\n      jump\t// in\n    tag_195:\n    tag_194:\n      dup2\n      mstore\n      0x20\n      add\n        /* \"contracts/proxy/EIP2535/RegistLogicContract.sol\":1816:1825  selectors */\n      dup4\n        /* \"contracts/proxy/EIP2535/RegistLogicContract.sol\":1663:1836  IDiamond.FacetCut({... */\n      dup2\n      mstore\n      pop\n        /* \"contracts/proxy/EIP2535/RegistLogicContract.sol\":1646:1657  _diamondCut */\n      dup2\n        /* \"contracts/proxy/EIP2535/RegistLogicContract.sol\":1658:1659  0 */\n      0x00\n        /* \"contracts/proxy/EIP2535/RegistLogicContract.sol\":1646:1660  _diamondCut[0] */\n      dup2\n      mload\n      dup2\n      lt\n      tag_196\n      jumpi\n      tag_197\n      tag_58\n      jump\t// in\n    tag_197:\n    tag_196:\n      0x20\n      mul\n      0x20\n      add\n      add\n        /* \"contracts/proxy/EIP2535/RegistLogicContract.sol\":1646:1836  _diamondCut[0] = IDiamond.FacetCut({... */\n      dup2\n      swap1\n      mstore\n      pop\n        /* \"contracts/proxy/EIP2535/RegistLogicContract.sol\":1846:1916  _registFacet(_diamondProxyAddress, _diamondCut, address(0), bytes(\"\")) */\n      tag_198\n        /* \"contracts/proxy/EIP2535/RegistLogicContract.sol\":1859:1879  _diamondProxyAddress */\n      dup5\n        /* \"contracts/proxy/EIP2535/RegistLogicContract.sol\":1881:1892  _diamondCut */\n      dup3\n        /* \"contracts/proxy/EIP2535/RegistLogicContract.sol\":1902:1903  0 */\n      0x00\n        /* \"contracts/proxy/EIP2535/RegistLogicContract.sol\":1906:1915  bytes(\"\") */\n      mload(0x40)\n      dup1\n      0x20\n      add\n      0x40\n      mstore\n      dup1\n      0x00\n      dup2\n      mstore\n      pop\n        /* \"contracts/proxy/EIP2535/RegistLogicContract.sol\":1846:1858  _registFacet */\n      tag_76\n        /* \"contracts/proxy/EIP2535/RegistLogicContract.sol\":1846:1916  _registFacet(_diamondProxyAddress, _diamondCut, address(0), bytes(\"\")) */\n      jump\t// in\n    tag_198:\n        /* \"contracts/proxy/EIP2535/RegistLogicContract.sol\":1389:1923  {... */\n      pop\n      pop\n        /* \"contracts/proxy/EIP2535/RegistLogicContract.sol\":1292:1923  function registLogicOneAddSelector(address _diamondProxyAddress, address _facetAddress) external {... */\n      pop\n      pop\n      jump\t// out\n        /* \"contracts/proxy/EIP2535/RegistLogicContract.sol\":5207:5890  function registLogicOneV2Replace(address _diamondProxyAddress, address _facetAddress) external {... */\n    tag_41:\n        /* \"contracts/proxy/EIP2535/RegistLogicContract.sol\":5352:5393  IDiamondCut.FacetCut[] memory _diamondCut */\n      0x00\n        /* \"contracts/proxy/EIP2535/RegistLogicContract.sol\":5423:5424  1 */\n      0x01\n        /* \"contracts/proxy/EIP2535/RegistLogicContract.sol\":5396:5425  new IDiamondCut.FacetCut[](1) */\n      0xffffffffffffffff\n      dup2\n      gt\n      iszero\n      tag_200\n      jumpi\n      tag_201\n      tag_48\n      jump\t// in\n    tag_201:\n    tag_200:\n      mload(0x40)\n      swap1\n      dup1\n      dup3\n      mstore\n      dup1\n      0x20\n      mul\n      0x20\n      add\n      dup3\n      add\n      0x40\n      mstore\n      dup1\n      iszero\n      tag_202\n      jumpi\n      dup2\n      0x20\n      add\n    tag_203:\n      tag_204\n      tag_52\n      jump\t// in\n    tag_204:\n      dup2\n      mstore\n      0x20\n      add\n      swap1\n      0x01\n      swap1\n      sub\n      swap1\n      dup2\n      tag_203\n      jumpi\n      swap1\n      pop\n    tag_202:\n      pop\n        /* \"contracts/proxy/EIP2535/RegistLogicContract.sol\":5352:5425  IDiamondCut.FacetCut[] memory _diamondCut = new IDiamondCut.FacetCut[](1) */\n      swap1\n      pop\n        /* \"contracts/proxy/EIP2535/RegistLogicContract.sol\":5474:5506  bytes4[] memory replaceSelectors */\n      0x00\n        /* \"contracts/proxy/EIP2535/RegistLogicContract.sol\":5522:5523  1 */\n      0x01\n        /* \"contracts/proxy/EIP2535/RegistLogicContract.sol\":5509:5524  new bytes4[](1) */\n      0xffffffffffffffff\n      dup2\n      gt\n      iszero\n      tag_205\n      jumpi\n      tag_206\n      tag_48\n      jump\t// in\n    tag_206:\n    tag_205:\n      mload(0x40)\n      swap1\n      dup1\n      dup3\n      mstore\n      dup1\n      0x20\n      mul\n      0x20\n      add\n      dup3\n      add\n      0x40\n      mstore\n      dup1\n      iszero\n      tag_207\n      jumpi\n      dup2\n      0x20\n      add\n      0x20\n      dup3\n      mul\n      dup1\n      calldatasize\n      dup4\n      calldatacopy\n      dup1\n      dup3\n      add\n      swap2\n      pop\n      pop\n      swap1\n      pop\n    tag_207:\n      pop\n        /* \"contracts/proxy/EIP2535/RegistLogicContract.sol\":5474:5524  bytes4[] memory replaceSelectors = new bytes4[](1) */\n      swap1\n      pop\n        /* \"contracts/proxy/EIP2535/RegistLogicContract.sol\":5556:5595  LogicOneV2Facet.decreMyCounter.selector */\n      shl(0xe0, 0x6c65a62f)\n        /* \"contracts/proxy/EIP2535/RegistLogicContract.sol\":5534:5550  replaceSelectors */\n      dup2\n        /* \"contracts/proxy/EIP2535/RegistLogicContract.sol\":5551:5552  0 */\n      0x00\n        /* \"contracts/proxy/EIP2535/RegistLogicContract.sol\":5534:5553  replaceSelectors[0] */\n      dup2\n      mload\n      dup2\n      lt\n      tag_208\n      jumpi\n      tag_209\n      tag_58\n      jump\t// in\n    tag_209:\n    tag_208:\n      0x20\n      mul\n      0x20\n      add\n      add\n        /* \"contracts/proxy/EIP2535/RegistLogicContract.sol\":5534:5595  replaceSelectors[0] = LogicOneV2Facet.decreMyCounter.selector */\n      swap1\n      not(0xffffffffffffffffffffffffffffffffffffffffffffffffffffffff)\n      and\n      swap1\n      dup2\n      not(0xffffffffffffffffffffffffffffffffffffffffffffffffffffffff)\n      and\n      dup2\n      mstore\n      pop\n      pop\n        /* \"contracts/proxy/EIP2535/RegistLogicContract.sol\":5631:5803  IDiamond.FacetCut({... */\n      mload(0x40)\n      dup1\n      0x60\n      add\n      0x40\n      mstore\n      dup1\n        /* \"contracts/proxy/EIP2535/RegistLogicContract.sol\":5677:5690  _facetAddress */\n      dup5\n        /* \"contracts/proxy/EIP2535/RegistLogicContract.sol\":5631:5803  IDiamond.FacetCut({... */\n      0xffffffffffffffffffffffffffffffffffffffff\n      and\n      dup2\n      mstore\n      0x20\n      add\n        /* \"contracts/proxy/EIP2535/RegistLogicContract.sol\":5712:5743  IDiamond.FacetCutAction.Replace */\n      0x01\n        /* \"contracts/proxy/EIP2535/RegistLogicContract.sol\":5631:5803  IDiamond.FacetCut({... */\n      0x02\n      dup2\n      gt\n      iszero\n      tag_210\n      jumpi\n      tag_211\n      tag_63\n      jump\t// in\n    tag_211:\n    tag_210:\n      dup2\n      mstore\n      0x20\n      add\n        /* \"contracts/proxy/EIP2535/RegistLogicContract.sol\":5776:5792  replaceSelectors */\n      dup3\n        /* \"contracts/proxy/EIP2535/RegistLogicContract.sol\":5631:5803  IDiamond.FacetCut({... */\n      dup2\n      mstore\n      pop\n        /* \"contracts/proxy/EIP2535/RegistLogicContract.sol\":5614:5625  _diamondCut */\n      dup3\n        /* \"contracts/proxy/EIP2535/RegistLogicContract.sol\":5626:5627  0 */\n      0x00\n        /* \"contracts/proxy/EIP2535/RegistLogicContract.sol\":5614:5628  _diamondCut[0] */\n      dup2\n      mload\n      dup2\n      lt\n      tag_212\n      jumpi\n      tag_213\n      tag_58\n      jump\t// in\n    tag_213:\n    tag_212:\n      0x20\n      mul\n      0x20\n      add\n      add\n        /* \"contracts/proxy/EIP2535/RegistLogicContract.sol\":5614:5803  _diamondCut[0] = IDiamond.FacetCut({... */\n      dup2\n      swap1\n      mstore\n      pop\n        /* \"contracts/proxy/EIP2535/RegistLogicContract.sol\":5813:5883  _registFacet(_diamondProxyAddress, _diamondCut, address(0), bytes(\"\")) */\n      tag_214\n        /* \"contracts/proxy/EIP2535/RegistLogicContract.sol\":5826:5846  _diamondProxyAddress */\n      dup5\n        /* \"contracts/proxy/EIP2535/RegistLogicContract.sol\":5848:5859  _diamondCut */\n      dup4\n        /* \"contracts/proxy/EIP2535/RegistLogicContract.sol\":5869:5870  0 */\n      0x00\n        /* \"contracts/proxy/EIP2535/RegistLogicContract.sol\":5873:5882  bytes(\"\") */\n      mload(0x40)\n      dup1\n      0x20\n      add\n      0x40\n      mstore\n      dup1\n      0x00\n      dup2\n      mstore\n      pop\n        /* \"contracts/proxy/EIP2535/RegistLogicContract.sol\":5813:5825  _registFacet */\n      tag_76\n        /* \"contracts/proxy/EIP2535/RegistLogicContract.sol\":5813:5883  _registFacet(_diamondProxyAddress, _diamondCut, address(0), bytes(\"\")) */\n      jump\t// in\n    tag_214:\n        /* \"contracts/proxy/EIP2535/RegistLogicContract.sol\":5302:5890  {... */\n      pop\n      pop\n        /* \"contracts/proxy/EIP2535/RegistLogicContract.sol\":5207:5890  function registLogicOneV2Replace(address _diamondProxyAddress, address _facetAddress) external {... */\n      pop\n      pop\n      jump\t// out\n        /* \"contracts/proxy/EIP2535/RegistLogicContract.sol\":6689:7462  function registLogicTwoV3Change(address _diamondProxyAddress, address _facetAddress) external {... */\n    tag_44:\n        /* \"contracts/proxy/EIP2535/RegistLogicContract.sol\":6833:6874  IDiamondCut.FacetCut[] memory _diamondCut */\n      0x00\n        /* \"contracts/proxy/EIP2535/RegistLogicContract.sol\":6904:6905  1 */\n      0x01\n        /* \"contracts/proxy/EIP2535/RegistLogicContract.sol\":6877:6906  new IDiamondCut.FacetCut[](1) */\n      0xffffffffffffffff\n      dup2\n      gt\n      iszero\n      tag_216\n      jumpi\n      tag_217\n      tag_48\n      jump\t// in\n    tag_217:\n    tag_216:\n      mload(0x40)\n      swap1\n      dup1\n      dup3\n      mstore\n      dup1\n      0x20\n      mul\n      0x20\n      add\n      dup3\n      add\n      0x40\n      mstore\n      dup1\n      iszero\n      tag_218\n      jumpi\n      dup2\n      0x20\n      add\n    tag_219:\n      tag_220\n      tag_52\n      jump\t// in\n    tag_220:\n      dup2\n      mstore\n      0x20\n      add\n      swap1\n      0x01\n      swap1\n      sub\n      swap1\n      dup2\n      tag_219\n      jumpi\n      swap1\n      pop\n    tag_218:\n      pop\n        /* \"contracts/proxy/EIP2535/RegistLogicContract.sol\":6833:6906  IDiamondCut.FacetCut[] memory _diamondCut = new IDiamondCut.FacetCut[](1) */\n      swap1\n      pop\n        /* \"contracts/proxy/EIP2535/RegistLogicContract.sol\":6973:7001  bytes4[] memory addSelectors */\n      0x00\n        /* \"contracts/proxy/EIP2535/RegistLogicContract.sol\":7017:7018  1 */\n      0x01\n        /* \"contracts/proxy/EIP2535/RegistLogicContract.sol\":7004:7019  new bytes4[](1) */\n      0xffffffffffffffff\n      dup2\n      gt\n      iszero\n      tag_221\n      jumpi\n      tag_222\n      tag_48\n      jump\t// in\n    tag_222:\n    tag_221:\n      mload(0x40)\n      swap1\n      dup1\n      dup3\n      mstore\n      dup1\n      0x20\n      mul\n      0x20\n      add\n      dup3\n      add\n      0x40\n      mstore\n      dup1\n      iszero\n      tag_223\n      jumpi\n      dup2\n      0x20\n      add\n      0x20\n      dup3\n      mul\n      dup1\n      calldatasize\n      dup4\n      calldatacopy\n      dup1\n      dup3\n      add\n      swap2\n      pop\n      pop\n      swap1\n      pop\n    tag_223:\n      pop\n        /* \"contracts/proxy/EIP2535/RegistLogicContract.sol\":6973:7019  bytes4[] memory addSelectors = new bytes4[](1) */\n      swap1\n      pop\n        /* \"contracts/proxy/EIP2535/RegistLogicContract.sol\":7047:7079  LogicTwoV3Facet.getSlot.selector */\n      shl(0xe0, 0x6c877c84)\n        /* \"contracts/proxy/EIP2535/RegistLogicContract.sol\":7029:7041  addSelectors */\n      dup2\n        /* \"contracts/proxy/EIP2535/RegistLogicContract.sol\":7042:7043  0 */\n      0x00\n        /* \"contracts/proxy/EIP2535/RegistLogicContract.sol\":7029:7044  addSelectors[0] */\n      dup2\n      mload\n      dup2\n      lt\n      tag_224\n      jumpi\n      tag_225\n      tag_58\n      jump\t// in\n    tag_225:\n    tag_224:\n      0x20\n      mul\n      0x20\n      add\n      add\n        /* \"contracts/proxy/EIP2535/RegistLogicContract.sol\":7029:7079  addSelectors[0] = LogicTwoV3Facet.getSlot.selector */\n      swap1\n      not(0xffffffffffffffffffffffffffffffffffffffffffffffffffffffff)\n      and\n      swap1\n      dup2\n      not(0xffffffffffffffffffffffffffffffffffffffffffffffffffffffff)\n      and\n      dup2\n      mstore\n      pop\n      pop\n        /* \"contracts/proxy/EIP2535/RegistLogicContract.sol\":7115:7279  IDiamond.FacetCut({... */\n      mload(0x40)\n      dup1\n      0x60\n      add\n      0x40\n      mstore\n      dup1\n        /* \"contracts/proxy/EIP2535/RegistLogicContract.sol\":7161:7174  _facetAddress */\n      dup5\n        /* \"contracts/proxy/EIP2535/RegistLogicContract.sol\":7115:7279  IDiamond.FacetCut({... */\n      0xffffffffffffffffffffffffffffffffffffffff\n      and\n      dup2\n      mstore\n      0x20\n      add\n        /* \"contracts/proxy/EIP2535/RegistLogicContract.sol\":7196:7223  IDiamond.FacetCutAction.Add */\n      0x00\n        /* \"contracts/proxy/EIP2535/RegistLogicContract.sol\":7115:7279  IDiamond.FacetCut({... */\n      0x02\n      dup2\n      gt\n      iszero\n      tag_226\n      jumpi\n      tag_227\n      tag_63\n      jump\t// in\n    tag_227:\n    tag_226:\n      dup2\n      mstore\n      0x20\n      add\n        /* \"contracts/proxy/EIP2535/RegistLogicContract.sol\":7256:7268  addSelectors */\n      dup3\n        /* \"contracts/proxy/EIP2535/RegistLogicContract.sol\":7115:7279  IDiamond.FacetCut({... */\n      dup2\n      mstore\n      pop\n        /* \"contracts/proxy/EIP2535/RegistLogicContract.sol\":7098:7109  _diamondCut */\n      dup3\n        /* \"contracts/proxy/EIP2535/RegistLogicContract.sol\":7110:7111  0 */\n      0x00\n        /* \"contracts/proxy/EIP2535/RegistLogicContract.sol\":7098:7112  _diamondCut[0] */\n      dup2\n      mload\n      dup2\n      lt\n      tag_228\n      jumpi\n      tag_229\n      tag_58\n      jump\t// in\n    tag_229:\n    tag_228:\n      0x20\n      mul\n      0x20\n      add\n      add\n        /* \"contracts/proxy/EIP2535/RegistLogicContract.sol\":7098:7279  _diamondCut[0] = IDiamond.FacetCut({... */\n      dup2\n      swap1\n      mstore\n      pop\n        /* \"contracts/proxy/EIP2535/RegistLogicContract.sol\":7338:7455  _registFacet(_diamondProxyAddress, _diamondCut, _facetAddress, abi.encodeWithSelector(LogicTwoV3Facet.init.selector)) */\n      tag_230\n        /* \"contracts/proxy/EIP2535/RegistLogicContract.sol\":7351:7371  _diamondProxyAddress */\n      dup5\n        /* \"contracts/proxy/EIP2535/RegistLogicContract.sol\":7373:7384  _diamondCut */\n      dup4\n        /* \"contracts/proxy/EIP2535/RegistLogicContract.sol\":7386:7399  _facetAddress */\n      dup6\n        /* \"contracts/proxy/EIP2535/RegistLogicContract.sol\":7424:7453  LogicTwoV3Facet.init.selector */\n      shl(0xe0, 0xe1c7392a)\n        /* \"contracts/proxy/EIP2535/RegistLogicContract.sol\":7401:7454  abi.encodeWithSelector(LogicTwoV3Facet.init.selector) */\n      add(0x24, mload(0x40))\n      mload(0x40)\n      0x20\n      dup2\n      dup4\n      sub\n      sub\n      dup2\n      mstore\n      swap1\n      0x40\n      mstore\n      swap1\n      not(0xffffffffffffffffffffffffffffffffffffffffffffffffffffffff)\n      and\n      0x20\n      dup3\n      add\n      dup1\n      mload\n      0xffffffffffffffffffffffffffffffffffffffffffffffffffffffff\n      dup4\n      dup2\n      dup4\n      and\n      or\n      dup4\n      mstore\n      pop\n      pop\n      pop\n      pop\n        /* \"contracts/proxy/EIP2535/RegistLogicContract.sol\":7338:7350  _registFacet */\n      tag_76\n        /* \"contracts/proxy/EIP2535/RegistLogicContract.sol\":7338:7455  _registFacet(_diamondProxyAddress, _diamondCut, _facetAddress, abi.encodeWithSelector(LogicTwoV3Facet.init.selector)) */\n      jump\t// in\n    tag_230:\n        /* \"contracts/proxy/EIP2535/RegistLogicContract.sol\":6783:7462  {... */\n      pop\n      pop\n        /* \"contracts/proxy/EIP2535/RegistLogicContract.sol\":6689:7462  function registLogicTwoV3Change(address _diamondProxyAddress, address _facetAddress) external {... */\n      pop\n      pop\n      jump\t// out\n        /* \"contracts/proxy/EIP2535/RegistLogicContract.sol\":8203:8932  function _registFacet(address _diamondProxyAddress, IDiamondCut.FacetCut[] memory _diamondCut, address _init, bytes memory _calldata) private {... */\n    tag_76:\n        /* \"contracts/proxy/EIP2535/RegistLogicContract.sol\":8775:8795  _diamondProxyAddress */\n      dup4\n        /* \"contracts/proxy/EIP2535/RegistLogicContract.sol\":8763:8807  IDiamondCut(_diamondProxyAddress).diamondCut */\n      0xffffffffffffffffffffffffffffffffffffffff\n      and\n      0x1f931c1c\n        /* \"contracts/proxy/EIP2535/RegistLogicContract.sol\":8808:8819  _diamondCut */\n      dup5\n        /* \"contracts/proxy/EIP2535/RegistLogicContract.sol\":8821:8826  _init */\n      dup5\n        /* \"contracts/proxy/EIP2535/RegistLogicContract.sol\":8828:8837  _calldata */\n      dup5\n        /* \"contracts/proxy/EIP2535/RegistLogicContract.sol\":8763:8838  IDiamondCut(_diamondProxyAddress).diamondCut(_diamondCut, _init, _calldata) */\n      mload(0x40)\n      dup5\n      0xffffffff\n      and\n      0xe0\n      shl\n      dup2\n      mstore\n      0x04\n      add\n      tag_232\n      swap4\n      swap3\n      swap2\n      swap1\n      tag_233\n      jump\t// in\n    tag_232:\n      0x00\n      mload(0x40)\n      dup1\n      dup4\n      sub\n      dup2\n      0x00\n      dup8\n      dup1\n      extcodesize\n      iszero\n      dup1\n      iszero\n      tag_234\n      jumpi\n      0x00\n      dup1\n      revert\n    tag_234:\n      pop\n      gas\n      call\n      iszero\n      dup1\n      iszero\n      tag_236\n      jumpi\n      returndatasize\n      0x00\n      dup1\n      returndatacopy\n      revert(0x00, returndatasize)\n    tag_236:\n      pop\n      pop\n      pop\n      pop\n        /* \"contracts/proxy/EIP2535/RegistLogicContract.sol\":8203:8932  function _registFacet(address _diamondProxyAddress, IDiamondCut.FacetCut[] memory _diamondCut, address _init, bytes memory _calldata) private {... */\n      pop\n      pop\n      pop\n      pop\n      jump\t// out\n    tag_52:\n      mload(0x40)\n      dup1\n      0x60\n      add\n      0x40\n      mstore\n      dup1\n      and(0xffffffffffffffffffffffffffffffffffffffff, 0x00)\n      dup2\n      mstore\n      0x20\n      add\n      0x00\n      0x02\n      dup2\n      gt\n      iszero\n      tag_237\n      jumpi\n      tag_238\n      tag_63\n      jump\t// in\n    tag_238:\n    tag_237:\n      dup2\n      mstore\n      0x20\n      add\n      0x60\n      dup2\n      mstore\n      pop\n      swap1\n      jump\t// out\n        /* \"#utility.yul\":88:205   */\n    tag_240:\n        /* \"#utility.yul\":197:198   */\n      0x00\n        /* \"#utility.yul\":194:195   */\n      dup1\n        /* \"#utility.yul\":187:199   */\n      revert\n        /* \"#utility.yul\":334:460   */\n    tag_242:\n        /* \"#utility.yul\":371:378   */\n      0x00\n        /* \"#utility.yul\":411:453   */\n      0xffffffffffffffffffffffffffffffffffffffff\n        /* \"#utility.yul\":404:409   */\n      dup3\n        /* \"#utility.yul\":400:454   */\n      and\n        /* \"#utility.yul\":389:454   */\n      swap1\n      pop\n        /* \"#utility.yul\":334:460   */\n      swap2\n      swap1\n      pop\n      jump\t// out\n        /* \"#utility.yul\":466:562   */\n    tag_243:\n        /* \"#utility.yul\":503:510   */\n      0x00\n        /* \"#utility.yul\":532:556   */\n      tag_278\n        /* \"#utility.yul\":550:555   */\n      dup3\n        /* \"#utility.yul\":532:556   */\n      tag_242\n      jump\t// in\n    tag_278:\n        /* \"#utility.yul\":521:556   */\n      swap1\n      pop\n        /* \"#utility.yul\":466:562   */\n      swap2\n      swap1\n      pop\n      jump\t// out\n        /* \"#utility.yul\":568:690   */\n    tag_244:\n        /* \"#utility.yul\":641:665   */\n      tag_280\n        /* \"#utility.yul\":659:664   */\n      dup2\n        /* \"#utility.yul\":641:665   */\n      tag_243\n      jump\t// in\n    tag_280:\n        /* \"#utility.yul\":634:639   */\n      dup2\n        /* \"#utility.yul\":631:666   */\n      eq\n        /* \"#utility.yul\":621:684   */\n      tag_281\n      jumpi\n        /* \"#utility.yul\":680:681   */\n      0x00\n        /* \"#utility.yul\":677:678   */\n      dup1\n        /* \"#utility.yul\":670:682   */\n      revert\n        /* \"#utility.yul\":621:684   */\n    tag_281:\n        /* \"#utility.yul\":568:690   */\n      pop\n      jump\t// out\n        /* \"#utility.yul\":696:835   */\n    tag_245:\n        /* \"#utility.yul\":742:747   */\n      0x00\n        /* \"#utility.yul\":780:786   */\n      dup2\n        /* \"#utility.yul\":767:787   */\n      calldataload\n        /* \"#utility.yul\":758:787   */\n      swap1\n      pop\n        /* \"#utility.yul\":796:829   */\n      tag_283\n        /* \"#utility.yul\":823:828   */\n      dup2\n        /* \"#utility.yul\":796:829   */\n      tag_244\n      jump\t// in\n    tag_283:\n        /* \"#utility.yul\":696:835   */\n      swap3\n      swap2\n      pop\n      pop\n      jump\t// out\n        /* \"#utility.yul\":841:1315   */\n    tag_16:\n        /* \"#utility.yul\":909:915   */\n      0x00\n        /* \"#utility.yul\":917:923   */\n      dup1\n        /* \"#utility.yul\":966:968   */\n      0x40\n        /* \"#utility.yul\":954:963   */\n      dup4\n        /* \"#utility.yul\":945:952   */\n      dup6\n        /* \"#utility.yul\":941:964   */\n      sub\n        /* \"#utility.yul\":937:969   */\n      slt\n        /* \"#utility.yul\":934:1053   */\n      iszero\n      tag_285\n      jumpi\n        /* \"#utility.yul\":972:1051   */\n      tag_286\n      tag_240\n      jump\t// in\n    tag_286:\n        /* \"#utility.yul\":934:1053   */\n    tag_285:\n        /* \"#utility.yul\":1092:1093   */\n      0x00\n        /* \"#utility.yul\":1117:1170   */\n      tag_287\n        /* \"#utility.yul\":1162:1169   */\n      dup6\n        /* \"#utility.yul\":1153:1159   */\n      dup3\n        /* \"#utility.yul\":1142:1151   */\n      dup7\n        /* \"#utility.yul\":1138:1160   */\n      add\n        /* \"#utility.yul\":1117:1170   */\n      tag_245\n      jump\t// in\n    tag_287:\n        /* \"#utility.yul\":1107:1170   */\n      swap3\n      pop\n        /* \"#utility.yul\":1063:1180   */\n      pop\n        /* \"#utility.yul\":1219:1221   */\n      0x20\n        /* \"#utility.yul\":1245:1298   */\n      tag_288\n        /* \"#utility.yul\":1290:1297   */\n      dup6\n        /* \"#utility.yul\":1281:1287   */\n      dup3\n        /* \"#utility.yul\":1270:1279   */\n      dup7\n        /* \"#utility.yul\":1266:1288   */\n      add\n        /* \"#utility.yul\":1245:1298   */\n      tag_245\n      jump\t// in\n    tag_288:\n        /* \"#utility.yul\":1235:1298   */\n      swap2\n      pop\n        /* \"#utility.yul\":1190:1308   */\n      pop\n        /* \"#utility.yul\":841:1315   */\n      swap3\n      pop\n      swap3\n      swap1\n      pop\n      jump\t// out\n        /* \"#utility.yul\":1321:1501   */\n    tag_48:\n        /* \"#utility.yul\":1369:1446   */\n      0x4e487b7100000000000000000000000000000000000000000000000000000000\n        /* \"#utility.yul\":1366:1367   */\n      0x00\n        /* \"#utility.yul\":1359:1447   */\n      mstore\n        /* \"#utility.yul\":1466:1470   */\n      0x41\n        /* \"#utility.yul\":1463:1464   */\n      0x04\n        /* \"#utility.yul\":1456:1471   */\n      mstore\n        /* \"#utility.yul\":1490:1494   */\n      0x24\n        /* \"#utility.yul\":1487:1488   */\n      0x00\n        /* \"#utility.yul\":1480:1495   */\n      revert\n        /* \"#utility.yul\":1507:1687   */\n    tag_58:\n        /* \"#utility.yul\":1555:1632   */\n      0x4e487b7100000000000000000000000000000000000000000000000000000000\n        /* \"#utility.yul\":1552:1553   */\n      0x00\n        /* \"#utility.yul\":1545:1633   */\n      mstore\n        /* \"#utility.yul\":1652:1656   */\n      0x32\n        /* \"#utility.yul\":1649:1650   */\n      0x04\n        /* \"#utility.yul\":1642:1657   */\n      mstore\n        /* \"#utility.yul\":1676:1680   */\n      0x24\n        /* \"#utility.yul\":1673:1674   */\n      0x00\n        /* \"#utility.yul\":1666:1681   */\n      revert\n        /* \"#utility.yul\":1693:1873   */\n    tag_63:\n        /* \"#utility.yul\":1741:1818   */\n      0x4e487b7100000000000000000000000000000000000000000000000000000000\n        /* \"#utility.yul\":1738:1739   */\n      0x00\n        /* \"#utility.yul\":1731:1819   */\n      mstore\n        /* \"#utility.yul\":1838:1842   */\n      0x21\n        /* \"#utility.yul\":1835:1836   */\n      0x04\n        /* \"#utility.yul\":1828:1843   */\n      mstore\n        /* \"#utility.yul\":1862:1866   */\n      0x24\n        /* \"#utility.yul\":1859:1860   */\n      0x00\n        /* \"#utility.yul\":1852:1867   */\n      revert\n        /* \"#utility.yul\":1879:2018   */\n    tag_246:\n        /* \"#utility.yul\":1971:1977   */\n      0x00\n        /* \"#utility.yul\":2005:2010   */\n      dup2\n        /* \"#utility.yul\":1999:2011   */\n      mload\n        /* \"#utility.yul\":1989:2011   */\n      swap1\n      pop\n        /* \"#utility.yul\":1879:2018   */\n      swap2\n      swap1\n      pop\n      jump\t// out\n        /* \"#utility.yul\":2024:2233   */\n    tag_247:\n        /* \"#utility.yul\":2148:2159   */\n      0x00\n        /* \"#utility.yul\":2182:2188   */\n      dup3\n        /* \"#utility.yul\":2177:2180   */\n      dup3\n        /* \"#utility.yul\":2170:2189   */\n      mstore\n        /* \"#utility.yul\":2222:2226   */\n      0x20\n        /* \"#utility.yul\":2217:2220   */\n      dup3\n        /* \"#utility.yul\":2213:2227   */\n      add\n        /* \"#utility.yul\":2198:2227   */\n      swap1\n      pop\n        /* \"#utility.yul\":2024:2233   */\n      swap3\n      swap2\n      pop\n      pop\n      jump\t// out\n        /* \"#utility.yul\":2239:2396   */\n    tag_248:\n        /* \"#utility.yul\":2331:2335   */\n      0x00\n        /* \"#utility.yul\":2354:2357   */\n      dup2\n        /* \"#utility.yul\":2346:2357   */\n      swap1\n      pop\n        /* \"#utility.yul\":2384:2388   */\n      0x20\n        /* \"#utility.yul\":2379:2382   */\n      dup3\n        /* \"#utility.yul\":2375:2389   */\n      add\n        /* \"#utility.yul\":2367:2389   */\n      swap1\n      pop\n        /* \"#utility.yul\":2239:2396   */\n      swap2\n      swap1\n      pop\n      jump\t// out\n        /* \"#utility.yul\":2402:2510   */\n    tag_249:\n        /* \"#utility.yul\":2479:2503   */\n      tag_296\n        /* \"#utility.yul\":2497:2502   */\n      dup2\n        /* \"#utility.yul\":2479:2503   */\n      tag_243\n      jump\t// in\n    tag_296:\n        /* \"#utility.yul\":2474:2477   */\n      dup3\n        /* \"#utility.yul\":2467:2504   */\n      mstore\n        /* \"#utility.yul\":2402:2510   */\n      pop\n      pop\n      jump\t// out\n        /* \"#utility.yul\":2516:2639   */\n    tag_250:\n        /* \"#utility.yul\":2607:2608   */\n      0x03\n        /* \"#utility.yul\":2600:2605   */\n      dup2\n        /* \"#utility.yul\":2597:2609   */\n      lt\n        /* \"#utility.yul\":2587:2633   */\n      tag_298\n      jumpi\n        /* \"#utility.yul\":2613:2631   */\n      tag_299\n      tag_63\n      jump\t// in\n    tag_299:\n        /* \"#utility.yul\":2587:2633   */\n    tag_298:\n        /* \"#utility.yul\":2516:2639   */\n      pop\n      jump\t// out\n        /* \"#utility.yul\":2645:2792   */\n    tag_251:\n        /* \"#utility.yul\":2700:2707   */\n      0x00\n        /* \"#utility.yul\":2729:2734   */\n      dup2\n        /* \"#utility.yul\":2718:2734   */\n      swap1\n      pop\n        /* \"#utility.yul\":2735:2786   */\n      tag_301\n        /* \"#utility.yul\":2780:2785   */\n      dup3\n        /* \"#utility.yul\":2735:2786   */\n      tag_250\n      jump\t// in\n    tag_301:\n        /* \"#utility.yul\":2645:2792   */\n      swap2\n      swap1\n      pop\n      jump\t// out\n        /* \"#utility.yul\":2798:2945   */\n    tag_252:\n        /* \"#utility.yul\":2864:2873   */\n      0x00\n        /* \"#utility.yul\":2897:2939   */\n      tag_303\n        /* \"#utility.yul\":2933:2938   */\n      dup3\n        /* \"#utility.yul\":2897:2939   */\n      tag_251\n      jump\t// in\n    tag_303:\n        /* \"#utility.yul\":2884:2939   */\n      swap1\n      pop\n        /* \"#utility.yul\":2798:2945   */\n      swap2\n      swap1\n      pop\n      jump\t// out\n        /* \"#utility.yul\":2951:3104   */\n    tag_253:\n        /* \"#utility.yul\":3044:3097   */\n      tag_305\n        /* \"#utility.yul\":3091:3096   */\n      dup2\n        /* \"#utility.yul\":3044:3097   */\n      tag_252\n      jump\t// in\n    tag_305:\n        /* \"#utility.yul\":3039:3042   */\n      dup3\n        /* \"#utility.yul\":3032:3098   */\n      mstore\n        /* \"#utility.yul\":2951:3104   */\n      pop\n      pop\n      jump\t// out\n        /* \"#utility.yul\":3110:3223   */\n    tag_254:\n        /* \"#utility.yul\":3176:3182   */\n      0x00\n        /* \"#utility.yul\":3210:3215   */\n      dup2\n        /* \"#utility.yul\":3204:3216   */\n      mload\n        /* \"#utility.yul\":3194:3216   */\n      swap1\n      pop\n        /* \"#utility.yul\":3110:3223   */\n      swap2\n      swap1\n      pop\n      jump\t// out\n        /* \"#utility.yul\":3229:3402   */\n    tag_255:\n        /* \"#utility.yul\":3317:3328   */\n      0x00\n        /* \"#utility.yul\":3351:3357   */\n      dup3\n        /* \"#utility.yul\":3346:3349   */\n      dup3\n        /* \"#utility.yul\":3339:3358   */\n      mstore\n        /* \"#utility.yul\":3391:3395   */\n      0x20\n        /* \"#utility.yul\":3386:3389   */\n      dup3\n        /* \"#utility.yul\":3382:3396   */\n      add\n        /* \"#utility.yul\":3367:3396   */\n      swap1\n      pop\n        /* \"#utility.yul\":3229:3402   */\n      swap3\n      swap2\n      pop\n      pop\n      jump\t// out\n        /* \"#utility.yul\":3408:3539   */\n    tag_256:\n        /* \"#utility.yul\":3474:3478   */\n      0x00\n        /* \"#utility.yul\":3497:3500   */\n      dup2\n        /* \"#utility.yul\":3489:3500   */\n      swap1\n      pop\n        /* \"#utility.yul\":3527:3531   */\n      0x20\n        /* \"#utility.yul\":3522:3525   */\n      dup3\n        /* \"#utility.yul\":3518:3532   */\n      add\n        /* \"#utility.yul\":3510:3532   */\n      swap1\n      pop\n        /* \"#utility.yul\":3408:3539   */\n      swap2\n      swap1\n      pop\n      jump\t// out\n        /* \"#utility.yul\":3545:3694   */\n    tag_257:\n        /* \"#utility.yul\":3581:3588   */\n      0x00\n        /* \"#utility.yul\":3621:3687   */\n      0xffffffff00000000000000000000000000000000000000000000000000000000\n        /* \"#utility.yul\":3614:3619   */\n      dup3\n        /* \"#utility.yul\":3610:3688   */\n      and\n        /* \"#utility.yul\":3599:3688   */\n      swap1\n      pop\n        /* \"#utility.yul\":3545:3694   */\n      swap2\n      swap1\n      pop\n      jump\t// out\n        /* \"#utility.yul\":3700:3805   */\n    tag_258:\n        /* \"#utility.yul\":3775:3798   */\n      tag_311\n        /* \"#utility.yul\":3792:3797   */\n      dup2\n        /* \"#utility.yul\":3775:3798   */\n      tag_257\n      jump\t// in\n    tag_311:\n        /* \"#utility.yul\":3770:3773   */\n      dup3\n        /* \"#utility.yul\":3763:3799   */\n      mstore\n        /* \"#utility.yul\":3700:3805   */\n      pop\n      pop\n      jump\t// out\n        /* \"#utility.yul\":3811:3986   */\n    tag_259:\n        /* \"#utility.yul\":3878:3888   */\n      0x00\n        /* \"#utility.yul\":3899:3943   */\n      tag_313\n        /* \"#utility.yul\":3939:3942   */\n      dup4\n        /* \"#utility.yul\":3931:3937   */\n      dup4\n        /* \"#utility.yul\":3899:3943   */\n      tag_258\n      jump\t// in\n    tag_313:\n        /* \"#utility.yul\":3975:3979   */\n      0x20\n        /* \"#utility.yul\":3970:3973   */\n      dup4\n        /* \"#utility.yul\":3966:3980   */\n      add\n        /* \"#utility.yul\":3952:3980   */\n      swap1\n      pop\n        /* \"#utility.yul\":3811:3986   */\n      swap3\n      swap2\n      pop\n      pop\n      jump\t// out\n        /* \"#utility.yul\":3992:4104   */\n    tag_260:\n        /* \"#utility.yul\":4061:4065   */\n      0x00\n        /* \"#utility.yul\":4093:4097   */\n      0x20\n        /* \"#utility.yul\":4088:4091   */\n      dup3\n        /* \"#utility.yul\":4084:4098   */\n      add\n        /* \"#utility.yul\":4076:4098   */\n      swap1\n      pop\n        /* \"#utility.yul\":3992:4104   */\n      swap2\n      swap1\n      pop\n      jump\t// out\n        /* \"#utility.yul\":4138:4842   */\n    tag_261:\n        /* \"#utility.yul\":4245:4248   */\n      0x00\n        /* \"#utility.yul\":4274:4327   */\n      tag_316\n        /* \"#utility.yul\":4321:4326   */\n      dup3\n        /* \"#utility.yul\":4274:4327   */\n      tag_254\n      jump\t// in\n    tag_316:\n        /* \"#utility.yul\":4343:4418   */\n      tag_317\n        /* \"#utility.yul\":4411:4417   */\n      dup2\n        /* \"#utility.yul\":4406:4409   */\n      dup6\n        /* \"#utility.yul\":4343:4418   */\n      tag_255\n      jump\t// in\n    tag_317:\n        /* \"#utility.yul\":4336:4418   */\n      swap4\n      pop\n        /* \"#utility.yul\":4442:4497   */\n      tag_318\n        /* \"#utility.yul\":4491:4496   */\n      dup4\n        /* \"#utility.yul\":4442:4497   */\n      tag_256\n      jump\t// in\n    tag_318:\n        /* \"#utility.yul\":4520:4527   */\n      dup1\n        /* \"#utility.yul\":4551:4552   */\n      0x00\n        /* \"#utility.yul\":4536:4817   */\n    tag_319:\n        /* \"#utility.yul\":4561:4567   */\n      dup4\n        /* \"#utility.yul\":4558:4559   */\n      dup2\n        /* \"#utility.yul\":4555:4568   */\n      lt\n        /* \"#utility.yul\":4536:4817   */\n      iszero\n      tag_321\n      jumpi\n        /* \"#utility.yul\":4637:4643   */\n      dup2\n        /* \"#utility.yul\":4631:4644   */\n      mload\n        /* \"#utility.yul\":4664:4725   */\n      tag_322\n        /* \"#utility.yul\":4721:4724   */\n      dup9\n        /* \"#utility.yul\":4706:4719   */\n      dup3\n        /* \"#utility.yul\":4664:4725   */\n      tag_259\n      jump\t// in\n    tag_322:\n        /* \"#utility.yul\":4657:4725   */\n      swap8\n      pop\n        /* \"#utility.yul\":4748:4807   */\n      tag_323\n        /* \"#utility.yul\":4800:4806   */\n      dup4\n        /* \"#utility.yul\":4748:4807   */\n      tag_260\n      jump\t// in\n    tag_323:\n        /* \"#utility.yul\":4738:4807   */\n      swap3\n      pop\n        /* \"#utility.yul\":4596:4817   */\n      pop\n        /* \"#utility.yul\":4583:4584   */\n      0x01\n        /* \"#utility.yul\":4580:4581   */\n      dup2\n        /* \"#utility.yul\":4576:4585   */\n      add\n        /* \"#utility.yul\":4571:4585   */\n      swap1\n      pop\n        /* \"#utility.yul\":4536:4817   */\n      jump(tag_319)\n    tag_321:\n        /* \"#utility.yul\":4540:4554   */\n      pop\n        /* \"#utility.yul\":4833:4836   */\n      dup6\n        /* \"#utility.yul\":4826:4836   */\n      swap4\n      pop\n        /* \"#utility.yul\":4250:4842   */\n      pop\n      pop\n      pop\n        /* \"#utility.yul\":4138:4842   */\n      swap3\n      swap2\n      pop\n      pop\n      jump\t// out\n        /* \"#utility.yul\":4908:5745   */\n    tag_262:\n        /* \"#utility.yul\":5017:5020   */\n      0x00\n        /* \"#utility.yul\":5053:5057   */\n      0x60\n        /* \"#utility.yul\":5048:5051   */\n      dup4\n        /* \"#utility.yul\":5044:5058   */\n      add\n        /* \"#utility.yul\":5148:5152   */\n      0x00\n        /* \"#utility.yul\":5141:5146   */\n      dup4\n        /* \"#utility.yul\":5137:5153   */\n      add\n        /* \"#utility.yul\":5131:5154   */\n      mload\n        /* \"#utility.yul\":5167:5230   */\n      tag_325\n        /* \"#utility.yul\":5224:5228   */\n      0x00\n        /* \"#utility.yul\":5219:5222   */\n      dup7\n        /* \"#utility.yul\":5215:5229   */\n      add\n        /* \"#utility.yul\":5201:5213   */\n      dup3\n        /* \"#utility.yul\":5167:5230   */\n      tag_249\n      jump\t// in\n    tag_325:\n        /* \"#utility.yul\":5068:5240   */\n      pop\n        /* \"#utility.yul\":5324:5328   */\n      0x20\n        /* \"#utility.yul\":5317:5322   */\n      dup4\n        /* \"#utility.yul\":5313:5329   */\n      add\n        /* \"#utility.yul\":5307:5330   */\n      mload\n        /* \"#utility.yul\":5343:5422   */\n      tag_326\n        /* \"#utility.yul\":5416:5420   */\n      0x20\n        /* \"#utility.yul\":5411:5414   */\n      dup7\n        /* \"#utility.yul\":5407:5421   */\n      add\n        /* \"#utility.yul\":5393:5405   */\n      dup3\n        /* \"#utility.yul\":5343:5422   */\n      tag_253\n      jump\t// in\n    tag_326:\n        /* \"#utility.yul\":5250:5432   */\n      pop\n        /* \"#utility.yul\":5527:5531   */\n      0x40\n        /* \"#utility.yul\":5520:5525   */\n      dup4\n        /* \"#utility.yul\":5516:5532   */\n      add\n        /* \"#utility.yul\":5510:5533   */\n      mload\n        /* \"#utility.yul\":5580:5583   */\n      dup5\n        /* \"#utility.yul\":5574:5578   */\n      dup3\n        /* \"#utility.yul\":5570:5584   */\n      sub\n        /* \"#utility.yul\":5563:5567   */\n      0x40\n        /* \"#utility.yul\":5558:5561   */\n      dup7\n        /* \"#utility.yul\":5554:5568   */\n      add\n        /* \"#utility.yul\":5547:5585   */\n      mstore\n        /* \"#utility.yul\":5606:5707   */\n      tag_327\n        /* \"#utility.yul\":5702:5706   */\n      dup3\n        /* \"#utility.yul\":5688:5700   */\n      dup3\n        /* \"#utility.yul\":5606:5707   */\n      tag_261\n      jump\t// in\n    tag_327:\n        /* \"#utility.yul\":5598:5707   */\n      swap2\n      pop\n        /* \"#utility.yul\":5442:5718   */\n      pop\n        /* \"#utility.yul\":5735:5739   */\n      dup1\n        /* \"#utility.yul\":5728:5739   */\n      swap2\n      pop\n        /* \"#utility.yul\":5022:5745   */\n      pop\n        /* \"#utility.yul\":4908:5745   */\n      swap3\n      swap2\n      pop\n      pop\n      jump\t// out\n        /* \"#utility.yul\":5751:6007   */\n    tag_263:\n        /* \"#utility.yul\":5870:5880   */\n      0x00\n        /* \"#utility.yul\":5905:6001   */\n      tag_329\n        /* \"#utility.yul\":5997:6000   */\n      dup4\n        /* \"#utility.yul\":5989:5995   */\n      dup4\n        /* \"#utility.yul\":5905:6001   */\n      tag_262\n      jump\t// in\n    tag_329:\n        /* \"#utility.yul\":5891:6001   */\n      swap1\n      pop\n        /* \"#utility.yul\":5751:6007   */\n      swap3\n      swap2\n      pop\n      pop\n      jump\t// out\n        /* \"#utility.yul\":6013:6151   */\n    tag_264:\n        /* \"#utility.yul\":6108:6112   */\n      0x00\n        /* \"#utility.yul\":6140:6144   */\n      0x20\n        /* \"#utility.yul\":6135:6138   */\n      dup3\n        /* \"#utility.yul\":6131:6145   */\n      add\n        /* \"#utility.yul\":6123:6145   */\n      swap1\n      pop\n        /* \"#utility.yul\":6013:6151   */\n      swap2\n      swap1\n      pop\n      jump\t// out\n        /* \"#utility.yul\":6221:7332   */\n    tag_265:\n        /* \"#utility.yul\":6390:6393   */\n      0x00\n        /* \"#utility.yul\":6419:6498   */\n      tag_332\n        /* \"#utility.yul\":6492:6497   */\n      dup3\n        /* \"#utility.yul\":6419:6498   */\n      tag_246\n      jump\t// in\n    tag_332:\n        /* \"#utility.yul\":6514:6625   */\n      tag_333\n        /* \"#utility.yul\":6618:6624   */\n      dup2\n        /* \"#utility.yul\":6613:6616   */\n      dup6\n        /* \"#utility.yul\":6514:6625   */\n      tag_247\n      jump\t// in\n    tag_333:\n        /* \"#utility.yul\":6507:6625   */\n      swap4\n      pop\n        /* \"#utility.yul\":6651:6654   */\n      dup4\n        /* \"#utility.yul\":6696:6700   */\n      0x20\n        /* \"#utility.yul\":6688:6694   */\n      dup3\n        /* \"#utility.yul\":6684:6701   */\n      mul\n        /* \"#utility.yul\":6679:6682   */\n      dup6\n        /* \"#utility.yul\":6675:6702   */\n      add\n        /* \"#utility.yul\":6726:6807   */\n      tag_334\n        /* \"#utility.yul\":6801:6806   */\n      dup6\n        /* \"#utility.yul\":6726:6807   */\n      tag_248\n      jump\t// in\n    tag_334:\n        /* \"#utility.yul\":6830:6837   */\n      dup1\n        /* \"#utility.yul\":6861:6862   */\n      0x00\n        /* \"#utility.yul\":6846:7287   */\n    tag_335:\n        /* \"#utility.yul\":6871:6877   */\n      dup6\n        /* \"#utility.yul\":6868:6869   */\n      dup2\n        /* \"#utility.yul\":6865:6878   */\n      lt\n        /* \"#utility.yul\":6846:7287   */\n      iszero\n      tag_337\n      jumpi\n        /* \"#utility.yul\":6942:6951   */\n      dup5\n        /* \"#utility.yul\":6936:6940   */\n      dup5\n        /* \"#utility.yul\":6932:6952   */\n      sub\n        /* \"#utility.yul\":6927:6930   */\n      dup10\n        /* \"#utility.yul\":6920:6953   */\n      mstore\n        /* \"#utility.yul\":6993:6999   */\n      dup2\n        /* \"#utility.yul\":6987:7000   */\n      mload\n        /* \"#utility.yul\":7021:7135   */\n      tag_338\n        /* \"#utility.yul\":7130:7134   */\n      dup6\n        /* \"#utility.yul\":7115:7128   */\n      dup3\n        /* \"#utility.yul\":7021:7135   */\n      tag_263\n      jump\t// in\n    tag_338:\n        /* \"#utility.yul\":7013:7135   */\n      swap5\n      pop\n        /* \"#utility.yul\":7158:7243   */\n      tag_339\n        /* \"#utility.yul\":7236:7242   */\n      dup4\n        /* \"#utility.yul\":7158:7243   */\n      tag_264\n      jump\t// in\n    tag_339:\n        /* \"#utility.yul\":7148:7243   */\n      swap3\n      pop\n        /* \"#utility.yul\":7272:7276   */\n      0x20\n        /* \"#utility.yul\":7267:7270   */\n      dup11\n        /* \"#utility.yul\":7263:7277   */\n      add\n        /* \"#utility.yul\":7256:7277   */\n      swap10\n      pop\n        /* \"#utility.yul\":6906:7287   */\n      pop\n        /* \"#utility.yul\":6893:6894   */\n      0x01\n        /* \"#utility.yul\":6890:6891   */\n      dup2\n        /* \"#utility.yul\":6886:6895   */\n      add\n        /* \"#utility.yul\":6881:6895   */\n      swap1\n      pop\n        /* \"#utility.yul\":6846:7287   */\n      jump(tag_335)\n    tag_337:\n        /* \"#utility.yul\":6850:6864   */\n      pop\n        /* \"#utility.yul\":7303:7307   */\n      dup3\n        /* \"#utility.yul\":7296:7307   */\n      swap8\n      pop\n        /* \"#utility.yul\":7323:7326   */\n      dup8\n        /* \"#utility.yul\":7316:7326   */\n      swap6\n      pop\n        /* \"#utility.yul\":6395:7332   */\n      pop\n      pop\n      pop\n      pop\n      pop\n        /* \"#utility.yul\":6221:7332   */\n      swap3\n      swap2\n      pop\n      pop\n      jump\t// out\n        /* \"#utility.yul\":7338:7456   */\n    tag_266:\n        /* \"#utility.yul\":7425:7449   */\n      tag_341\n        /* \"#utility.yul\":7443:7448   */\n      dup2\n        /* \"#utility.yul\":7425:7449   */\n      tag_243\n      jump\t// in\n    tag_341:\n        /* \"#utility.yul\":7420:7423   */\n      dup3\n        /* \"#utility.yul\":7413:7450   */\n      mstore\n        /* \"#utility.yul\":7338:7456   */\n      pop\n      pop\n      jump\t// out\n        /* \"#utility.yul\":7462:7560   */\n    tag_267:\n        /* \"#utility.yul\":7513:7519   */\n      0x00\n        /* \"#utility.yul\":7547:7552   */\n      dup2\n        /* \"#utility.yul\":7541:7553   */\n      mload\n        /* \"#utility.yul\":7531:7553   */\n      swap1\n      pop\n        /* \"#utility.yul\":7462:7560   */\n      swap2\n      swap1\n      pop\n      jump\t// out\n        /* \"#utility.yul\":7566:7734   */\n    tag_268:\n        /* \"#utility.yul\":7649:7660   */\n      0x00\n        /* \"#utility.yul\":7683:7689   */\n      dup3\n        /* \"#utility.yul\":7678:7681   */\n      dup3\n        /* \"#utility.yul\":7671:7690   */\n      mstore\n        /* \"#utility.yul\":7723:7727   */\n      0x20\n        /* \"#utility.yul\":7718:7721   */\n      dup3\n        /* \"#utility.yul\":7714:7728   */\n      add\n        /* \"#utility.yul\":7699:7728   */\n      swap1\n      pop\n        /* \"#utility.yul\":7566:7734   */\n      swap3\n      swap2\n      pop\n      pop\n      jump\t// out\n        /* \"#utility.yul\":7740:7879   */\n    tag_269:\n        /* \"#utility.yul\":7829:7835   */\n      dup3\n        /* \"#utility.yul\":7824:7827   */\n      dup2\n        /* \"#utility.yul\":7819:7822   */\n      dup4\n        /* \"#utility.yul\":7813:7836   */\n      mcopy\n        /* \"#utility.yul\":7870:7871   */\n      0x00\n        /* \"#utility.yul\":7861:7867   */\n      dup4\n        /* \"#utility.yul\":7856:7859   */\n      dup4\n        /* \"#utility.yul\":7852:7868   */\n      add\n        /* \"#utility.yul\":7845:7872   */\n      mstore\n        /* \"#utility.yul\":7740:7879   */\n      pop\n      pop\n      pop\n      jump\t// out\n        /* \"#utility.yul\":7885:7987   */\n    tag_270:\n        /* \"#utility.yul\":7926:7932   */\n      0x00\n        /* \"#utility.yul\":7977:7979   */\n      0x1f\n        /* \"#utility.yul\":7973:7980   */\n      not\n        /* \"#utility.yul\":7968:7970   */\n      0x1f\n        /* \"#utility.yul\":7961:7966   */\n      dup4\n        /* \"#utility.yul\":7957:7971   */\n      add\n        /* \"#utility.yul\":7953:7981   */\n      and\n        /* \"#utility.yul\":7943:7981   */\n      swap1\n      pop\n        /* \"#utility.yul\":7885:7987   */\n      swap2\n      swap1\n      pop\n      jump\t// out\n        /* \"#utility.yul\":7993:8366   */\n    tag_271:\n        /* \"#utility.yul\":8079:8082   */\n      0x00\n        /* \"#utility.yul\":8107:8145   */\n      tag_347\n        /* \"#utility.yul\":8139:8144   */\n      dup3\n        /* \"#utility.yul\":8107:8145   */\n      tag_267\n      jump\t// in\n    tag_347:\n        /* \"#utility.yul\":8161:8231   */\n      tag_348\n        /* \"#utility.yul\":8224:8230   */\n      dup2\n        /* \"#utility.yul\":8219:8222   */\n      dup6\n        /* \"#utility.yul\":8161:8231   */\n      tag_268\n      jump\t// in\n    tag_348:\n        /* \"#utility.yul\":8154:8231   */\n      swap4\n      pop\n        /* \"#utility.yul\":8240:8305   */\n      tag_349\n        /* \"#utility.yul\":8298:8304   */\n      dup2\n        /* \"#utility.yul\":8293:8296   */\n      dup6\n        /* \"#utility.yul\":8286:8290   */\n      0x20\n        /* \"#utility.yul\":8279:8284   */\n      dup7\n        /* \"#utility.yul\":8275:8291   */\n      add\n        /* \"#utility.yul\":8240:8305   */\n      tag_269\n      jump\t// in\n    tag_349:\n        /* \"#utility.yul\":8330:8359   */\n      tag_350\n        /* \"#utility.yul\":8352:8358   */\n      dup2\n        /* \"#utility.yul\":8330:8359   */\n      tag_270\n      jump\t// in\n    tag_350:\n        /* \"#utility.yul\":8325:8328   */\n      dup5\n        /* \"#utility.yul\":8321:8360   */\n      add\n        /* \"#utility.yul\":8314:8360   */\n      swap2\n      pop\n        /* \"#utility.yul\":8083:8366   */\n      pop\n        /* \"#utility.yul\":7993:8366   */\n      swap3\n      swap2\n      pop\n      pop\n      jump\t// out\n        /* \"#utility.yul\":8372:9152   */\n    tag_233:\n        /* \"#utility.yul\":8639:8643   */\n      0x00\n        /* \"#utility.yul\":8677:8679   */\n      0x60\n        /* \"#utility.yul\":8666:8675   */\n      dup3\n        /* \"#utility.yul\":8662:8680   */\n      add\n        /* \"#utility.yul\":8654:8680   */\n      swap1\n      pop\n        /* \"#utility.yul\":8726:8735   */\n      dup2\n        /* \"#utility.yul\":8720:8724   */\n      dup2\n        /* \"#utility.yul\":8716:8736   */\n      sub\n        /* \"#utility.yul\":8712:8713   */\n      0x00\n        /* \"#utility.yul\":8701:8710   */\n      dup4\n        /* \"#utility.yul\":8697:8714   */\n      add\n        /* \"#utility.yul\":8690:8737   */\n      mstore\n        /* \"#utility.yul\":8754:8912   */\n      tag_352\n        /* \"#utility.yul\":8907:8911   */\n      dup2\n        /* \"#utility.yul\":8898:8904   */\n      dup7\n        /* \"#utility.yul\":8754:8912   */\n      tag_265\n      jump\t// in\n    tag_352:\n        /* \"#utility.yul\":8746:8912   */\n      swap1\n      pop\n        /* \"#utility.yul\":8922:8994   */\n      tag_353\n        /* \"#utility.yul\":8990:8992   */\n      0x20\n        /* \"#utility.yul\":8979:8988   */\n      dup4\n        /* \"#utility.yul\":8975:8993   */\n      add\n        /* \"#utility.yul\":8966:8972   */\n      dup6\n        /* \"#utility.yul\":8922:8994   */\n      tag_266\n      jump\t// in\n    tag_353:\n        /* \"#utility.yul\":9041:9050   */\n      dup2\n        /* \"#utility.yul\":9035:9039   */\n      dup2\n        /* \"#utility.yul\":9031:9051   */\n      sub\n        /* \"#utility.yul\":9026:9028   */\n      0x40\n        /* \"#utility.yul\":9015:9024   */\n      dup4\n        /* \"#utility.yul\":9011:9029   */\n      add\n        /* \"#utility.yul\":9004:9052   */\n      mstore\n        /* \"#utility.yul\":9069:9145   */\n      tag_354\n        /* \"#utility.yul\":9140:9144   */\n      dup2\n        /* \"#utility.yul\":9131:9137   */\n      dup5\n        /* \"#utility.yul\":9069:9145   */\n      tag_271\n      jump\t// in\n    tag_354:\n        /* \"#utility.yul\":9061:9145   */\n      swap1\n      pop\n        /* \"#utility.yul\":8372:9152   */\n      swap5\n      swap4\n      pop\n      pop\n      pop\n      pop\n      jump\t// out\n\n    auxdata: 0xa264697066735822122083b4736748610eab528a7beea0d03b6a9e63d68db2ad473c37317c1caf1ce08364736f6c634300081a0033\n}\n",
				"bytecode": {
					"linkReferences": {},
					"object": "6080604052348015600e575f80fd5b50611a308061001c5f395ff3fe608060405234801561000f575f80fd5b506004361061009c575f3560e01c8063c9521dd211610064578063c9521dd21461012c578063d4d8684d14610148578063d60d34c714610164578063e121014714610180578063e9c94cdf1461019c5761009c565b80630183db70146100a0578063039d7432146100bc5780631699b7bd146100d8578063393907d8146100f4578063b173687014610110575b5f80fd5b6100ba60048036038101906100b59190611634565b6101b8565b005b6100d660048036038101906100d19190611634565b6104c5565b005b6100f260048036038101906100ed9190611634565b610652565b005b61010e60048036038101906101099190611634565b610847565b005b61012a60048036038101906101259190611634565b610a3c565b005b61014660048036038101906101419190611634565b610c99565b005b610162600480360381019061015d9190611634565b610e26565b005b61017e60048036038101906101799190611634565b61101b565b005b61019a60048036038101906101959190611634565b6111a8565b005b6101b660048036038101906101b19190611634565b611336565b005b5f600267ffffffffffffffff8111156101d4576101d3611672565b5b60405190808252806020026020018201604052801561020d57816020015b6101fa61158f565b8152602001906001900390816101f25790505b5090505f600267ffffffffffffffff81111561022c5761022b611672565b5b60405190808252806020026020018201604052801561025a5781602001602082028036833780820191505090505b50905063ec98a83960e01b815f815181106102785761027761169f565b5b60200260200101907bffffffffffffffffffffffffffffffffffffffffffffffffffffffff191690817bffffffffffffffffffffffffffffffffffffffffffffffffffffffff191681525050636bcea8b060e01b816001815181106102e0576102df61169f565b5b60200260200101907bffffffffffffffffffffffffffffffffffffffffffffffffffffffff191690817bffffffffffffffffffffffffffffffffffffffffffffffffffffffff19168152505060405180606001604052808473ffffffffffffffffffffffffffffffffffffffff1681526020015f6002811115610366576103656116cc565b5b815260200182815250825f815181106103825761038161169f565b5b60200260200101819052505f600167ffffffffffffffff8111156103a9576103a8611672565b5b6040519080825280602002602001820160405280156103d75781602001602082028036833780820191505090505b509050636c65a62f60e01b815f815181106103f5576103f461169f565b5b60200260200101907bffffffffffffffffffffffffffffffffffffffffffffffffffffffff191690817bffffffffffffffffffffffffffffffffffffffffffffffffffffffff19168152505060405180606001604052808573ffffffffffffffffffffffffffffffffffffffff1681526020016001600281111561047c5761047b6116cc565b5b815260200182815250836001815181106104995761049861169f565b5b60200260200101819052506104be85845f60405180602001604052805f81525061151f565b5050505050565b5f600167ffffffffffffffff8111156104e1576104e0611672565b5b60405190808252806020026020018201604052801561050f5781602001602082028036833780820191505090505b509050636c65a62f60e01b815f8151811061052d5761052c61169f565b5b60200260200101907bffffffffffffffffffffffffffffffffffffffffffffffffffffffff191690817bffffffffffffffffffffffffffffffffffffffffffffffffffffffff1916815250505f600167ffffffffffffffff81111561059557610594611672565b5b6040519080825280602002602001820160405280156105ce57816020015b6105bb61158f565b8152602001906001900390816105b35790505b50905060405180606001604052808473ffffffffffffffffffffffffffffffffffffffff16815260200160028081111561060b5761060a6116cc565b5b815260200183815250815f815181106106275761062661169f565b5b602002602001018190525061064c84825f60405180602001604052805f81525061151f565b50505050565b5f600267ffffffffffffffff81111561066e5761066d611672565b5b60405190808252806020026020018201604052801561069c5781602001602082028036833780820191505090505b50905063ada8496760e01b815f815181106106ba576106b961169f565b5b60200260200101907bffffffffffffffffffffffffffffffffffffffffffffffffffffffff191690817bffffffffffffffffffffffffffffffffffffffffffffffffffffffff191681525050638611ede860e01b816001815181106107225761072161169f565b5b60200260200101907bffffffffffffffffffffffffffffffffffffffffffffffffffffffff191690817bffffffffffffffffffffffffffffffffffffffffffffffffffffffff1916815250505f600167ffffffffffffffff81111561078a57610789611672565b5b6040519080825280602002602001820160405280156107c357816020015b6107b061158f565b8152602001906001900390816107a85790505b50905060405180606001604052808473ffffffffffffffffffffffffffffffffffffffff1681526020015f6002811115610800576107ff6116cc565b5b815260200183815250815f8151811061081c5761081b61169f565b5b602002602001018190525061084184825f60405180602001604052805f81525061151f565b50505050565b5f600167ffffffffffffffff81111561086357610862611672565b5b60405190808252806020026020018201604052801561089c57816020015b61088961158f565b8152602001906001900390816108815790505b5090505f600267ffffffffffffffff8111156108bb576108ba611672565b5b6040519080825280602002602001820160405280156108e95781602001602082028036833780820191505090505b5090506326cfb68860e01b815f815181106109075761090661169f565b5b60200260200101907bffffffffffffffffffffffffffffffffffffffffffffffffffffffff191690817bffffffffffffffffffffffffffffffffffffffffffffffffffffffff19168152505063c2dbe6f960e01b8160018151811061096f5761096e61169f565b5b60200260200101907bffffffffffffffffffffffffffffffffffffffffffffffffffffffff191690817bffffffffffffffffffffffffffffffffffffffffffffffffffffffff19168152505060405180606001604052808473ffffffffffffffffffffffffffffffffffffffff1681526020015f60028111156109f5576109f46116cc565b5b815260200182815250825f81518110610a1157610a1061169f565b5b6020026020010181905250610a3684835f60405180602001604052805f81525061151f565b50505050565b5f600367ffffffffffffffff811115610a5857610a57611672565b5b604051908082528060200260200182016040528015610a865781602001602082028036833780820191505090505b50905063916d574360e01b815f81518110610aa457610aa361169f565b5b60200260200101907bffffffffffffffffffffffffffffffffffffffffffffffffffffffff191690817bffffffffffffffffffffffffffffffffffffffffffffffffffffffff191681525050635cfe342060e01b81600181518110610b0c57610b0b61169f565b5b60200260200101907bffffffffffffffffffffffffffffffffffffffffffffffffffffffff191690817bffffffffffffffffffffffffffffffffffffffffffffffffffffffff191681525050638783cf4960e01b81600281518110610b7457610b7361169f565b5b60200260200101907bffffffffffffffffffffffffffffffffffffffffffffffffffffffff191690817bffffffffffffffffffffffffffffffffffffffffffffffffffffffff1916815250505f600167ffffffffffffffff811115610bdc57610bdb611672565b5b604051908082528060200260200182016040528015610c1557816020015b610c0261158f565b815260200190600190039081610bfa5790505b50905060405180606001604052808473ffffffffffffffffffffffffffffffffffffffff1681526020015f6002811115610c5257610c516116cc565b5b815260200183815250815f81518110610c6e57610c6d61169f565b5b6020026020010181905250610c9384825f60405180602001604052805f81525061151f565b50505050565b5f600167ffffffffffffffff811115610cb557610cb4611672565b5b604051908082528060200260200182016040528015610cee57816020015b610cdb61158f565b815260200190600190039081610cd35790505b5090505f600167ffffffffffffffff811115610d0d57610d0c611672565b5b604051908082528060200260200182016040528015610d3b5781602001602082028036833780820191505090505b509050636c877c8460e01b815f81518110610d5957610d5861169f565b5b60200260200101907bffffffffffffffffffffffffffffffffffffffffffffffffffffffff191690817bffffffffffffffffffffffffffffffffffffffffffffffffffffffff19168152505060405180606001604052808473ffffffffffffffffffffffffffffffffffffffff168152602001600280811115610ddf57610dde6116cc565b5b815260200182815250825f81518110610dfb57610dfa61169f565b5b6020026020010181905250610e2084835f60405180602001604052805f81525061151f565b50505050565b5f600267ffffffffffffffff811115610e4257610e41611672565b5b604051908082528060200260200182016040528015610e705781602001602082028036833780820191505090505b50905063ada8496760e01b815f81518110610e8e57610e8d61169f565b5b60200260200101907bffffffffffffffffffffffffffffffffffffffffffffffffffffffff191690817bffffffffffffffffffffffffffffffffffffffffffffffffffffffff191681525050638611ede860e01b81600181518110610ef657610ef561169f565b5b60200260200101907bffffffffffffffffffffffffffffffffffffffffffffffffffffffff191690817bffffffffffffffffffffffffffffffffffffffffffffffffffffffff1916815250505f600167ffffffffffffffff811115610f5e57610f5d611672565b5b604051908082528060200260200182016040528015610f9757816020015b610f8461158f565b815260200190600190039081610f7c5790505b50905060405180606001604052808473ffffffffffffffffffffffffffffffffffffffff168152602001600280811115610fd457610fd36116cc565b5b815260200183815250815f81518110610ff057610fef61169f565b5b602002602001018190525061101584825f60405180602001604052805f81525061151f565b50505050565b5f600167ffffffffffffffff81111561103757611036611672565b5b6040519080825280602002602001820160405280156110655781602001602082028036833780820191505090505b509050636c65a62f60e01b815f815181106110835761108261169f565b5b60200260200101907bffffffffffffffffffffffffffffffffffffffffffffffffffffffff191690817bffffffffffffffffffffffffffffffffffffffffffffffffffffffff1916815250505f600167ffffffffffffffff8111156110eb576110ea611672565b5b60405190808252806020026020018201604052801561112457816020015b61111161158f565b8152602001906001900390816111095790505b50905060405180606001604052808473ffffffffffffffffffffffffffffffffffffffff1681526020015f6002811115611161576111606116cc565b5b815260200183815250815f8151811061117d5761117c61169f565b5b60200260200101819052506111a284825f60405180602001604052805f81525061151f565b50505050565b5f600167ffffffffffffffff8111156111c4576111c3611672565b5b6040519080825280602002602001820160405280156111fd57816020015b6111ea61158f565b8152602001906001900390816111e25790505b5090505f600167ffffffffffffffff81111561121c5761121b611672565b5b60405190808252806020026020018201604052801561124a5781602001602082028036833780820191505090505b509050636c65a62f60e01b815f815181106112685761126761169f565b5b60200260200101907bffffffffffffffffffffffffffffffffffffffffffffffffffffffff191690817bffffffffffffffffffffffffffffffffffffffffffffffffffffffff19168152505060405180606001604052808473ffffffffffffffffffffffffffffffffffffffff168152602001600160028111156112ef576112ee6116cc565b5b815260200182815250825f8151811061130b5761130a61169f565b5b602002602001018190525061133084835f60405180602001604052805f81525061151f565b50505050565b5f600167ffffffffffffffff81111561135257611351611672565b5b60405190808252806020026020018201604052801561138b57816020015b61137861158f565b8152602001906001900390816113705790505b5090505f600167ffffffffffffffff8111156113aa576113a9611672565b5b6040519080825280602002602001820160405280156113d85781602001602082028036833780820191505090505b509050636c877c8460e01b815f815181106113f6576113f561169f565b5b60200260200101907bffffffffffffffffffffffffffffffffffffffffffffffffffffffff191690817bffffffffffffffffffffffffffffffffffffffffffffffffffffffff19168152505060405180606001604052808473ffffffffffffffffffffffffffffffffffffffff1681526020015f600281111561147c5761147b6116cc565b5b815260200182815250825f815181106114985761149761169f565b5b602002602001018190525061151984838563e1c7392a60e01b604051602401604051602081830303815290604052907bffffffffffffffffffffffffffffffffffffffffffffffffffffffff19166020820180517bffffffffffffffffffffffffffffffffffffffffffffffffffffffff838183161783525050505061151f565b50505050565b8373ffffffffffffffffffffffffffffffffffffffff16631f931c1c8484846040518463ffffffff1660e01b815260040161155c939291906119b7565b5f604051808303815f87803b158015611573575f80fd5b505af1158015611585573d5f803e3d5ffd5b5050505050505050565b60405180606001604052805f73ffffffffffffffffffffffffffffffffffffffff1681526020015f60028111156115c9576115c86116cc565b5b8152602001606081525090565b5f80fd5b5f73ffffffffffffffffffffffffffffffffffffffff82169050919050565b5f611603826115da565b9050919050565b611613816115f9565b811461161d575f80fd5b50565b5f8135905061162e8161160a565b92915050565b5f806040838503121561164a576116496115d6565b5b5f61165785828601611620565b925050602061166885828601611620565b9150509250929050565b7f4e487b71000000000000000000000000000000000000000000000000000000005f52604160045260245ffd5b7f4e487b71000000000000000000000000000000000000000000000000000000005f52603260045260245ffd5b7f4e487b71000000000000000000000000000000000000000000000000000000005f52602160045260245ffd5b5f81519050919050565b5f82825260208201905092915050565b5f819050602082019050919050565b61172b816115f9565b82525050565b60038110611742576117416116cc565b5b50565b5f81905061175282611731565b919050565b5f61176182611745565b9050919050565b61177181611757565b82525050565b5f81519050919050565b5f82825260208201905092915050565b5f819050602082019050919050565b5f7fffffffff0000000000000000000000000000000000000000000000000000000082169050919050565b6117d4816117a0565b82525050565b5f6117e583836117cb565b60208301905092915050565b5f602082019050919050565b5f61180782611777565b6118118185611781565b935061181c83611791565b805f5b8381101561184c57815161183388826117da565b975061183e836117f1565b92505060018101905061181f565b5085935050505092915050565b5f606083015f83015161186e5f860182611722565b5060208301516118816020860182611768565b506040830151848203604086015261189982826117fd565b9150508091505092915050565b5f6118b18383611859565b905092915050565b5f602082019050919050565b5f6118cf826116f9565b6118d98185611703565b9350836020820285016118eb85611713565b805f5b85811015611926578484038952815161190785826118a6565b9450611912836118b9565b925060208a019950506001810190506118ee565b50829750879550505050505092915050565b611941816115f9565b82525050565b5f81519050919050565b5f82825260208201905092915050565b8281835e5f83830152505050565b5f601f19601f8301169050919050565b5f61198982611947565b6119938185611951565b93506119a3818560208601611961565b6119ac8161196f565b840191505092915050565b5f6060820190508181035f8301526119cf81866118c5565b90506119de6020830185611938565b81810360408301526119f0818461197f565b905094935050505056fea264697066735822122083b4736748610eab528a7beea0d03b6a9e63d68db2ad473c37317c1caf1ce08364736f6c634300081a0033",
					"opcodes": "PUSH1 0x80 PUSH1 0x40 MSTORE CALLVALUE DUP1 ISZERO PUSH1 0xE JUMPI PUSH0 DUP1 REVERT JUMPDEST POP PUSH2 0x1A30 DUP1 PUSH2 0x1C PUSH0 CODECOPY PUSH0 RETURN INVALID PUSH1 0x80 PUSH1 0x40 MSTORE CALLVALUE DUP1 ISZERO PUSH2 0xF JUMPI PUSH0 DUP1 REVERT JUMPDEST POP PUSH1 0x4 CALLDATASIZE LT PUSH2 0x9C JUMPI PUSH0 CALLDATALOAD PUSH1 0xE0 SHR DUP1 PUSH4 0xC9521DD2 GT PUSH2 0x64 JUMPI DUP1 PUSH4 0xC9521DD2 EQ PUSH2 0x12C JUMPI DUP1 PUSH4 0xD4D8684D EQ PUSH2 0x148 JUMPI DUP1 PUSH4 0xD60D34C7 EQ PUSH2 0x164 JUMPI DUP1 PUSH4 0xE1210147 EQ PUSH2 0x180 JUMPI DUP1 PUSH4 0xE9C94CDF EQ PUSH2 0x19C JUMPI PUSH2 0x9C JUMP JUMPDEST DUP1 PUSH4 0x183DB70 EQ PUSH2 0xA0 JUMPI DUP1 PUSH4 0x39D7432 EQ PUSH2 0xBC JUMPI DUP1 PUSH4 0x1699B7BD EQ PUSH2 0xD8 JUMPI DUP1 PUSH4 0x393907D8 EQ PUSH2 0xF4 JUMPI DUP1 PUSH4 0xB1736870 EQ PUSH2 0x110 JUMPI JUMPDEST PUSH0 DUP1 REVERT JUMPDEST PUSH2 0xBA PUSH1 0x4 DUP1 CALLDATASIZE SUB DUP2 ADD SWAP1 PUSH2 0xB5 SWAP2 SWAP1 PUSH2 0x1634 JUMP JUMPDEST PUSH2 0x1B8 JUMP JUMPDEST STOP JUMPDEST PUSH2 0xD6 PUSH1 0x4 DUP1 CALLDATASIZE SUB DUP2 ADD SWAP1 PUSH2 0xD1 SWAP2 SWAP1 PUSH2 0x1634 JUMP JUMPDEST PUSH2 0x4C5 JUMP JUMPDEST STOP JUMPDEST PUSH2 0xF2 PUSH1 0x4 DUP1 CALLDATASIZE SUB DUP2 ADD SWAP1 PUSH2 0xED SWAP2 SWAP1 PUSH2 0x1634 JUMP JUMPDEST PUSH2 0x652 JUMP JUMPDEST STOP JUMPDEST PUSH2 0x10E PUSH1 0x4 DUP1 CALLDATASIZE SUB DUP2 ADD SWAP1 PUSH2 0x109 SWAP2 SWAP1 PUSH2 0x1634 JUMP JUMPDEST PUSH2 0x847 JUMP JUMPDEST STOP JUMPDEST PUSH2 0x12A PUSH1 0x4 DUP1 CALLDATASIZE SUB DUP2 ADD SWAP1 PUSH2 0x125 SWAP2 SWAP1 PUSH2 0x1634 JUMP JUMPDEST PUSH2 0xA3C JUMP JUMPDEST STOP JUMPDEST PUSH2 0x146 PUSH1 0x4 DUP1 CALLDATASIZE SUB DUP2 ADD SWAP1 PUSH2 0x141 SWAP2 SWAP1 PUSH2 0x1634 JUMP JUMPDEST PUSH2 0xC99 JUMP JUMPDEST STOP JUMPDEST PUSH2 0x162 PUSH1 0x4 DUP1 CALLDATASIZE SUB DUP2 ADD SWAP1 PUSH2 0x15D SWAP2 SWAP1 PUSH2 0x1634 JUMP JUMPDEST PUSH2 0xE26 JUMP JUMPDEST STOP JUMPDEST PUSH2 0x17E PUSH1 0x4 DUP1 CALLDATASIZE SUB DUP2 ADD SWAP1 PUSH2 0x179 SWAP2 SWAP1 PUSH2 0x1634 JUMP JUMPDEST PUSH2 0x101B JUMP JUMPDEST STOP JUMPDEST PUSH2 0x19A PUSH1 0x4 DUP1 CALLDATASIZE SUB DUP2 ADD SWAP1 PUSH2 0x195 SWAP2 SWAP1 PUSH2 0x1634 JUMP JUMPDEST PUSH2 0x11A8 JUMP JUMPDEST STOP JUMPDEST PUSH2 0x1B6 PUSH1 0x4 DUP1 CALLDATASIZE SUB DUP2 ADD SWAP1 PUSH2 0x1B1 SWAP2 SWAP1 PUSH2 0x1634 JUMP JUMPDEST PUSH2 0x1336 JUMP JUMPDEST STOP JUMPDEST PUSH0 PUSH1 0x2 PUSH8 0xFFFFFFFFFFFFFFFF DUP2 GT ISZERO PUSH2 0x1D4 JUMPI PUSH2 0x1D3 PUSH2 0x1672 JUMP JUMPDEST JUMPDEST PUSH1 0x40 MLOAD SWAP1 DUP1 DUP3 MSTORE DUP1 PUSH1 0x20 MUL PUSH1 0x20 ADD DUP3 ADD PUSH1 0x40 MSTORE DUP1 ISZERO PUSH2 0x20D JUMPI DUP2 PUSH1 0x20 ADD JUMPDEST PUSH2 0x1FA PUSH2 0x158F JUMP JUMPDEST DUP2 MSTORE PUSH1 0x20 ADD SWAP1 PUSH1 0x1 SWAP1 SUB SWAP1 DUP2 PUSH2 0x1F2 JUMPI SWAP1 POP JUMPDEST POP SWAP1 POP PUSH0 PUSH1 0x2 PUSH8 0xFFFFFFFFFFFFFFFF DUP2 GT ISZERO PUSH2 0x22C JUMPI PUSH2 0x22B PUSH2 0x1672 JUMP JUMPDEST JUMPDEST PUSH1 0x40 MLOAD SWAP1 DUP1 DUP3 MSTORE DUP1 PUSH1 0x20 MUL PUSH1 0x20 ADD DUP3 ADD PUSH1 0x40 MSTORE DUP1 ISZERO PUSH2 0x25A JUMPI DUP2 PUSH1 0x20 ADD PUSH1 0x20 DUP3 MUL DUP1 CALLDATASIZE DUP4 CALLDATACOPY DUP1 DUP3 ADD SWAP2 POP POP SWAP1 POP JUMPDEST POP SWAP1 POP PUSH4 0xEC98A839 PUSH1 0xE0 SHL DUP2 PUSH0 DUP2 MLOAD DUP2 LT PUSH2 0x278 JUMPI PUSH2 0x277 PUSH2 0x169F JUMP JUMPDEST JUMPDEST PUSH1 0x20 MUL PUSH1 0x20 ADD ADD SWAP1 PUSH28 0xFFFFFFFFFFFFFFFFFFFFFFFFFFFFFFFFFFFFFFFFFFFFFFFFFFFFFFFF NOT AND SWAP1 DUP2 PUSH28 0xFFFFFFFFFFFFFFFFFFFFFFFFFFFFFFFFFFFFFFFFFFFFFFFFFFFFFFFF NOT AND DUP2 MSTORE POP POP PUSH4 0x6BCEA8B0 PUSH1 0xE0 SHL DUP2 PUSH1 0x1 DUP2 MLOAD DUP2 LT PUSH2 0x2E0 JUMPI PUSH2 0x2DF PUSH2 0x169F JUMP JUMPDEST JUMPDEST PUSH1 0x20 MUL PUSH1 0x20 ADD ADD SWAP1 PUSH28 0xFFFFFFFFFFFFFFFFFFFFFFFFFFFFFFFFFFFFFFFFFFFFFFFFFFFFFFFF NOT AND SWAP1 DUP2 PUSH28 0xFFFFFFFFFFFFFFFFFFFFFFFFFFFFFFFFFFFFFFFFFFFFFFFFFFFFFFFF NOT AND DUP2 MSTORE POP POP PUSH1 0x40 MLOAD DUP1 PUSH1 0x60 ADD PUSH1 0x40 MSTORE DUP1 DUP5 PUSH20 0xFFFFFFFFFFFFFFFFFFFFFFFFFFFFFFFFFFFFFFFF AND DUP2 MSTORE PUSH1 0x20 ADD PUSH0 PUSH1 0x2 DUP2 GT ISZERO PUSH2 0x366 JUMPI PUSH2 0x365 PUSH2 0x16CC JUMP JUMPDEST JUMPDEST DUP2 MSTORE PUSH1 0x20 ADD DUP3 DUP2 MSTORE POP DUP3 PUSH0 DUP2 MLOAD DUP2 LT PUSH2 0x382 JUMPI PUSH2 0x381 PUSH2 0x169F JUMP JUMPDEST JUMPDEST PUSH1 0x20 MUL PUSH1 0x20 ADD ADD DUP2 SWAP1 MSTORE POP PUSH0 PUSH1 0x1 PUSH8 0xFFFFFFFFFFFFFFFF DUP2 GT ISZERO PUSH2 0x3A9 JUMPI PUSH2 0x3A8 PUSH2 0x1672 JUMP JUMPDEST JUMPDEST PUSH1 0x40 MLOAD SWAP1 DUP1 DUP3 MSTORE DUP1 PUSH1 0x20 MUL PUSH1 0x20 ADD DUP3 ADD PUSH1 0x40 MSTORE DUP1 ISZERO PUSH2 0x3D7 JUMPI DUP2 PUSH1 0x20 ADD PUSH1 0x20 DUP3 MUL DUP1 CALLDATASIZE DUP4 CALLDATACOPY DUP1 DUP3 ADD SWAP2 POP POP SWAP1 POP JUMPDEST POP SWAP1 POP PUSH4 0x6C65A62F PUSH1 0xE0 SHL DUP2 PUSH0 DUP2 MLOAD DUP2 LT PUSH2 0x3F5 JUMPI PUSH2 0x3F4 PUSH2 0x169F JUMP JUMPDEST JUMPDEST PUSH1 0x20 MUL PUSH1 0x20 ADD ADD SWAP1 PUSH28 0xFFFFFFFFFFFFFFFFFFFFFFFFFFFFFFFFFFFFFFFFFFFFFFFFFFFFFFFF NOT AND SWAP1 DUP2 PUSH28 0xFFFFFFFFFFFFFFFFFFFFFFFFFFFFFFFFFFFFFFFFFFFFFFFFFFFFFFFF NOT AND DUP2 MSTORE POP POP PUSH1 0x40 MLOAD DUP1 PUSH1 0x60 ADD PUSH1 0x40 MSTORE DUP1 DUP6 PUSH20 0xFFFFFFFFFFFFFFFFFFFFFFFFFFFFFFFFFFFFFFFF AND DUP2 MSTORE PUSH1 0x20 ADD PUSH1 0x1 PUSH1 0x2 DUP2 GT ISZERO PUSH2 0x47C JUMPI PUSH2 0x47B PUSH2 0x16CC JUMP JUMPDEST JUMPDEST DUP2 MSTORE PUSH1 0x20 ADD DUP3 DUP2 MSTORE POP DUP4 PUSH1 0x1 DUP2 MLOAD DUP2 LT PUSH2 0x499 JUMPI PUSH2 0x498 PUSH2 0x169F JUMP JUMPDEST JUMPDEST PUSH1 0x20 MUL PUSH1 0x20 ADD ADD DUP2 SWAP1 MSTORE POP PUSH2 0x4BE DUP6 DUP5 PUSH0 PUSH1 0x40 MLOAD DUP1 PUSH1 0x20 ADD PUSH1 0x40 MSTORE DUP1 PUSH0 DUP2 MSTORE POP PUSH2 0x151F JUMP JUMPDEST POP POP POP POP POP JUMP JUMPDEST PUSH0 PUSH1 0x1 PUSH8 0xFFFFFFFFFFFFFFFF DUP2 GT ISZERO PUSH2 0x4E1 JUMPI PUSH2 0x4E0 PUSH2 0x1672 JUMP JUMPDEST JUMPDEST PUSH1 0x40 MLOAD SWAP1 DUP1 DUP3 MSTORE DUP1 PUSH1 0x20 MUL PUSH1 0x20 ADD DUP3 ADD PUSH1 0x40 MSTORE DUP1 ISZERO PUSH2 0x50F JUMPI DUP2 PUSH1 0x20 ADD PUSH1 0x20 DUP3 MUL DUP1 CALLDATASIZE DUP4 CALLDATACOPY DUP1 DUP3 ADD SWAP2 POP POP SWAP1 POP JUMPDEST POP SWAP1 POP PUSH4 0x6C65A62F PUSH1 0xE0 SHL DUP2 PUSH0 DUP2 MLOAD DUP2 LT PUSH2 0x52D JUMPI PUSH2 0x52C PUSH2 0x169F JUMP JUMPDEST JUMPDEST PUSH1 0x20 MUL PUSH1 0x20 ADD ADD SWAP1 PUSH28 0xFFFFFFFFFFFFFFFFFFFFFFFFFFFFFFFFFFFFFFFFFFFFFFFFFFFFFFFF NOT AND SWAP1 DUP2 PUSH28 0xFFFFFFFFFFFFFFFFFFFFFFFFFFFFFFFFFFFFFFFFFFFFFFFFFFFFFFFF NOT AND DUP2 MSTORE POP POP PUSH0 PUSH1 0x1 PUSH8 0xFFFFFFFFFFFFFFFF DUP2 GT ISZERO PUSH2 0x595 JUMPI PUSH2 0x594 PUSH2 0x1672 JUMP JUMPDEST JUMPDEST PUSH1 0x40 MLOAD SWAP1 DUP1 DUP3 MSTORE DUP1 PUSH1 0x20 MUL PUSH1 0x20 ADD DUP3 ADD PUSH1 0x40 MSTORE DUP1 ISZERO PUSH2 0x5CE JUMPI DUP2 PUSH1 0x20 ADD JUMPDEST PUSH2 0x5BB PUSH2 0x158F JUMP JUMPDEST DUP2 MSTORE PUSH1 0x20 ADD SWAP1 PUSH1 0x1 SWAP1 SUB SWAP1 DUP2 PUSH2 0x5B3 JUMPI SWAP1 POP JUMPDEST POP SWAP1 POP PUSH1 0x40 MLOAD DUP1 PUSH1 0x60 ADD PUSH1 0x40 MSTORE DUP1 DUP5 PUSH20 0xFFFFFFFFFFFFFFFFFFFFFFFFFFFFFFFFFFFFFFFF AND DUP2 MSTORE PUSH1 0x20 ADD PUSH1 0x2 DUP1 DUP2 GT ISZERO PUSH2 0x60B JUMPI PUSH2 0x60A PUSH2 0x16CC JUMP JUMPDEST JUMPDEST DUP2 MSTORE PUSH1 0x20 ADD DUP4 DUP2 MSTORE POP DUP2 PUSH0 DUP2 MLOAD DUP2 LT PUSH2 0x627 JUMPI PUSH2 0x626 PUSH2 0x169F JUMP JUMPDEST JUMPDEST PUSH1 0x20 MUL PUSH1 0x20 ADD ADD DUP2 SWAP1 MSTORE POP PUSH2 0x64C DUP5 DUP3 PUSH0 PUSH1 0x40 MLOAD DUP1 PUSH1 0x20 ADD PUSH1 0x40 MSTORE DUP1 PUSH0 DUP2 MSTORE POP PUSH2 0x151F JUMP JUMPDEST POP POP POP POP JUMP JUMPDEST PUSH0 PUSH1 0x2 PUSH8 0xFFFFFFFFFFFFFFFF DUP2 GT ISZERO PUSH2 0x66E JUMPI PUSH2 0x66D PUSH2 0x1672 JUMP JUMPDEST JUMPDEST PUSH1 0x40 MLOAD SWAP1 DUP1 DUP3 MSTORE DUP1 PUSH1 0x20 MUL PUSH1 0x20 ADD DUP3 ADD PUSH1 0x40 MSTORE DUP1 ISZERO PUSH2 0x69C JUMPI DUP2 PUSH1 0x20 ADD PUSH1 0x20 DUP3 MUL DUP1 CALLDATASIZE DUP4 CALLDATACOPY DUP1 DUP3 ADD SWAP2 POP POP SWAP1 POP JUMPDEST POP SWAP1 POP PUSH4 0xADA84967 PUSH1 0xE0 SHL DUP2 PUSH0 DUP2 MLOAD DUP2 LT PUSH2 0x6BA JUMPI PUSH2 0x6B9 PUSH2 0x169F JUMP JUMPDEST JUMPDEST PUSH1 0x20 MUL PUSH1 0x20 ADD ADD SWAP1 PUSH28 0xFFFFFFFFFFFFFFFFFFFFFFFFFFFFFFFFFFFFFFFFFFFFFFFFFFFFFFFF NOT AND SWAP1 DUP2 PUSH28 0xFFFFFFFFFFFFFFFFFFFFFFFFFFFFFFFFFFFFFFFFFFFFFFFFFFFFFFFF NOT AND DUP2 MSTORE POP POP PUSH4 0x8611EDE8 PUSH1 0xE0 SHL DUP2 PUSH1 0x1 DUP2 MLOAD DUP2 LT PUSH2 0x722 JUMPI PUSH2 0x721 PUSH2 0x169F JUMP JUMPDEST JUMPDEST PUSH1 0x20 MUL PUSH1 0x20 ADD ADD SWAP1 PUSH28 0xFFFFFFFFFFFFFFFFFFFFFFFFFFFFFFFFFFFFFFFFFFFFFFFFFFFFFFFF NOT AND SWAP1 DUP2 PUSH28 0xFFFFFFFFFFFFFFFFFFFFFFFFFFFFFFFFFFFFFFFFFFFFFFFFFFFFFFFF NOT AND DUP2 MSTORE POP POP PUSH0 PUSH1 0x1 PUSH8 0xFFFFFFFFFFFFFFFF DUP2 GT ISZERO PUSH2 0x78A JUMPI PUSH2 0x789 PUSH2 0x1672 JUMP JUMPDEST JUMPDEST PUSH1 0x40 MLOAD SWAP1 DUP1 DUP3 MSTORE DUP1 PUSH1 0x20 MUL PUSH1 0x20 ADD DUP3 ADD PUSH1 0x40 MSTORE DUP1 ISZERO PUSH2 0x7C3 JUMPI DUP2 PUSH1 0x20 ADD JUMPDEST PUSH2 0x7B0 PUSH2 0x158F JUMP JUMPDEST DUP2 MSTORE PUSH1 0x20 ADD SWAP1 PUSH1 0x1 SWAP1 SUB SWAP1 DUP2 PUSH2 0x7A8 JUMPI SWAP1 POP JUMPDEST POP SWAP1 POP PUSH1 0x40 MLOAD DUP1 PUSH1 0x60 ADD PUSH1 0x40 MSTORE DUP1 DUP5 PUSH20 0xFFFFFFFFFFFFFFFFFFFFFFFFFFFFFFFFFFFFFFFF AND DUP2 MSTORE PUSH1 0x20 ADD PUSH0 PUSH1 0x2 DUP2 GT ISZERO PUSH2 0x800 JUMPI PUSH2 0x7FF PUSH2 0x16CC JUMP JUMPDEST JUMPDEST DUP2 MSTORE PUSH1 0x20 ADD DUP4 DUP2 MSTORE POP DUP2 PUSH0 DUP2 MLOAD DUP2 LT PUSH2 0x81C JUMPI PUSH2 0x81B PUSH2 0x169F JUMP JUMPDEST JUMPDEST PUSH1 0x20 MUL PUSH1 0x20 ADD ADD DUP2 SWAP1 MSTORE POP PUSH2 0x841 DUP5 DUP3 PUSH0 PUSH1 0x40 MLOAD DUP1 PUSH1 0x20 ADD PUSH1 0x40 MSTORE DUP1 PUSH0 DUP2 MSTORE POP PUSH2 0x151F JUMP JUMPDEST POP POP POP POP JUMP JUMPDEST PUSH0 PUSH1 0x1 PUSH8 0xFFFFFFFFFFFFFFFF DUP2 GT ISZERO PUSH2 0x863 JUMPI PUSH2 0x862 PUSH2 0x1672 JUMP JUMPDEST JUMPDEST PUSH1 0x40 MLOAD SWAP1 DUP1 DUP3 MSTORE DUP1 PUSH1 0x20 MUL PUSH1 0x20 ADD DUP3 ADD PUSH1 0x40 MSTORE DUP1 ISZERO PUSH2 0x89C JUMPI DUP2 PUSH1 0x20 ADD JUMPDEST PUSH2 0x889 PUSH2 0x158F JUMP JUMPDEST DUP2 MSTORE PUSH1 0x20 ADD SWAP1 PUSH1 0x1 SWAP1 SUB SWAP1 DUP2 PUSH2 0x881 JUMPI SWAP1 POP JUMPDEST POP SWAP1 POP PUSH0 PUSH1 0x2 PUSH8 0xFFFFFFFFFFFFFFFF DUP2 GT ISZERO PUSH2 0x8BB JUMPI PUSH2 0x8BA PUSH2 0x1672 JUMP JUMPDEST JUMPDEST PUSH1 0x40 MLOAD SWAP1 DUP1 DUP3 MSTORE DUP1 PUSH1 0x20 MUL PUSH1 0x20 ADD DUP3 ADD PUSH1 0x40 MSTORE DUP1 ISZERO PUSH2 0x8E9 JUMPI DUP2 PUSH1 0x20 ADD PUSH1 0x20 DUP3 MUL DUP1 CALLDATASIZE DUP4 CALLDATACOPY DUP1 DUP3 ADD SWAP2 POP POP SWAP1 POP JUMPDEST POP SWAP1 POP PUSH4 0x26CFB688 PUSH1 0xE0 SHL DUP2 PUSH0 DUP2 MLOAD DUP2 LT PUSH2 0x907 JUMPI PUSH2 0x906 PUSH2 0x169F JUMP JUMPDEST JUMPDEST PUSH1 0x20 MUL PUSH1 0x20 ADD ADD SWAP1 PUSH28 0xFFFFFFFFFFFFFFFFFFFFFFFFFFFFFFFFFFFFFFFFFFFFFFFFFFFFFFFF NOT AND SWAP1 DUP2 PUSH28 0xFFFFFFFFFFFFFFFFFFFFFFFFFFFFFFFFFFFFFFFFFFFFFFFFFFFFFFFF NOT AND DUP2 MSTORE POP POP PUSH4 0xC2DBE6F9 PUSH1 0xE0 SHL DUP2 PUSH1 0x1 DUP2 MLOAD DUP2 LT PUSH2 0x96F JUMPI PUSH2 0x96E PUSH2 0x169F JUMP JUMPDEST JUMPDEST PUSH1 0x20 MUL PUSH1 0x20 ADD ADD SWAP1 PUSH28 0xFFFFFFFFFFFFFFFFFFFFFFFFFFFFFFFFFFFFFFFFFFFFFFFFFFFFFFFF NOT AND SWAP1 DUP2 PUSH28 0xFFFFFFFFFFFFFFFFFFFFFFFFFFFFFFFFFFFFFFFFFFFFFFFFFFFFFFFF NOT AND DUP2 MSTORE POP POP PUSH1 0x40 MLOAD DUP1 PUSH1 0x60 ADD PUSH1 0x40 MSTORE DUP1 DUP5 PUSH20 0xFFFFFFFFFFFFFFFFFFFFFFFFFFFFFFFFFFFFFFFF AND DUP2 MSTORE PUSH1 0x20 ADD PUSH0 PUSH1 0x2 DUP2 GT ISZERO PUSH2 0x9F5 JUMPI PUSH2 0x9F4 PUSH2 0x16CC JUMP JUMPDEST JUMPDEST DUP2 MSTORE PUSH1 0x20 ADD DUP3 DUP2 MSTORE POP DUP3 PUSH0 DUP2 MLOAD DUP2 LT PUSH2 0xA11 JUMPI PUSH2 0xA10 PUSH2 0x169F JUMP JUMPDEST JUMPDEST PUSH1 0x20 MUL PUSH1 0x20 ADD ADD DUP2 SWAP1 MSTORE POP PUSH2 0xA36 DUP5 DUP4 PUSH0 PUSH1 0x40 MLOAD DUP1 PUSH1 0x20 ADD PUSH1 0x40 MSTORE DUP1 PUSH0 DUP2 MSTORE POP PUSH2 0x151F JUMP JUMPDEST POP POP POP POP JUMP JUMPDEST PUSH0 PUSH1 0x3 PUSH8 0xFFFFFFFFFFFFFFFF DUP2 GT ISZERO PUSH2 0xA58 JUMPI PUSH2 0xA57 PUSH2 0x1672 JUMP JUMPDEST JUMPDEST PUSH1 0x40 MLOAD SWAP1 DUP1 DUP3 MSTORE DUP1 PUSH1 0x20 MUL PUSH1 0x20 ADD DUP3 ADD PUSH1 0x40 MSTORE DUP1 ISZERO PUSH2 0xA86 JUMPI DUP2 PUSH1 0x20 ADD PUSH1 0x20 DUP3 MUL DUP1 CALLDATASIZE DUP4 CALLDATACOPY DUP1 DUP3 ADD SWAP2 POP POP SWAP1 POP JUMPDEST POP SWAP1 POP PUSH4 0x916D5743 PUSH1 0xE0 SHL DUP2 PUSH0 DUP2 MLOAD DUP2 LT PUSH2 0xAA4 JUMPI PUSH2 0xAA3 PUSH2 0x169F JUMP JUMPDEST JUMPDEST PUSH1 0x20 MUL PUSH1 0x20 ADD ADD SWAP1 PUSH28 0xFFFFFFFFFFFFFFFFFFFFFFFFFFFFFFFFFFFFFFFFFFFFFFFFFFFFFFFF NOT AND SWAP1 DUP2 PUSH28 0xFFFFFFFFFFFFFFFFFFFFFFFFFFFFFFFFFFFFFFFFFFFFFFFFFFFFFFFF NOT AND DUP2 MSTORE POP POP PUSH4 0x5CFE3420 PUSH1 0xE0 SHL DUP2 PUSH1 0x1 DUP2 MLOAD DUP2 LT PUSH2 0xB0C JUMPI PUSH2 0xB0B PUSH2 0x169F JUMP JUMPDEST JUMPDEST PUSH1 0x20 MUL PUSH1 0x20 ADD ADD SWAP1 PUSH28 0xFFFFFFFFFFFFFFFFFFFFFFFFFFFFFFFFFFFFFFFFFFFFFFFFFFFFFFFF NOT AND SWAP1 DUP2 PUSH28 0xFFFFFFFFFFFFFFFFFFFFFFFFFFFFFFFFFFFFFFFFFFFFFFFFFFFFFFFF NOT AND DUP2 MSTORE POP POP PUSH4 0x8783CF49 PUSH1 0xE0 SHL DUP2 PUSH1 0x2 DUP2 MLOAD DUP2 LT PUSH2 0xB74 JUMPI PUSH2 0xB73 PUSH2 0x169F JUMP JUMPDEST JUMPDEST PUSH1 0x20 MUL PUSH1 0x20 ADD ADD SWAP1 PUSH28 0xFFFFFFFFFFFFFFFFFFFFFFFFFFFFFFFFFFFFFFFFFFFFFFFFFFFFFFFF NOT AND SWAP1 DUP2 PUSH28 0xFFFFFFFFFFFFFFFFFFFFFFFFFFFFFFFFFFFFFFFFFFFFFFFFFFFFFFFF NOT AND DUP2 MSTORE POP POP PUSH0 PUSH1 0x1 PUSH8 0xFFFFFFFFFFFFFFFF DUP2 GT ISZERO PUSH2 0xBDC JUMPI PUSH2 0xBDB PUSH2 0x1672 JUMP JUMPDEST JUMPDEST PUSH1 0x40 MLOAD SWAP1 DUP1 DUP3 MSTORE DUP1 PUSH1 0x20 MUL PUSH1 0x20 ADD DUP3 ADD PUSH1 0x40 MSTORE DUP1 ISZERO PUSH2 0xC15 JUMPI DUP2 PUSH1 0x20 ADD JUMPDEST PUSH2 0xC02 PUSH2 0x158F JUMP JUMPDEST DUP2 MSTORE PUSH1 0x20 ADD SWAP1 PUSH1 0x1 SWAP1 SUB SWAP1 DUP2 PUSH2 0xBFA JUMPI SWAP1 POP JUMPDEST POP SWAP1 POP PUSH1 0x40 MLOAD DUP1 PUSH1 0x60 ADD PUSH1 0x40 MSTORE DUP1 DUP5 PUSH20 0xFFFFFFFFFFFFFFFFFFFFFFFFFFFFFFFFFFFFFFFF AND DUP2 MSTORE PUSH1 0x20 ADD PUSH0 PUSH1 0x2 DUP2 GT ISZERO PUSH2 0xC52 JUMPI PUSH2 0xC51 PUSH2 0x16CC JUMP JUMPDEST JUMPDEST DUP2 MSTORE PUSH1 0x20 ADD DUP4 DUP2 MSTORE POP DUP2 PUSH0 DUP2 MLOAD DUP2 LT PUSH2 0xC6E JUMPI PUSH2 0xC6D PUSH2 0x169F JUMP JUMPDEST JUMPDEST PUSH1 0x20 MUL PUSH1 0x20 ADD ADD DUP2 SWAP1 MSTORE POP PUSH2 0xC93 DUP5 DUP3 PUSH0 PUSH1 0x40 MLOAD DUP1 PUSH1 0x20 ADD PUSH1 0x40 MSTORE DUP1 PUSH0 DUP2 MSTORE POP PUSH2 0x151F JUMP JUMPDEST POP POP POP POP JUMP JUMPDEST PUSH0 PUSH1 0x1 PUSH8 0xFFFFFFFFFFFFFFFF DUP2 GT ISZERO PUSH2 0xCB5 JUMPI PUSH2 0xCB4 PUSH2 0x1672 JUMP JUMPDEST JUMPDEST PUSH1 0x40 MLOAD SWAP1 DUP1 DUP3 MSTORE DUP1 PUSH1 0x20 MUL PUSH1 0x20 ADD DUP3 ADD PUSH1 0x40 MSTORE DUP1 ISZERO PUSH2 0xCEE JUMPI DUP2 PUSH1 0x20 ADD JUMPDEST PUSH2 0xCDB PUSH2 0x158F JUMP JUMPDEST DUP2 MSTORE PUSH1 0x20 ADD SWAP1 PUSH1 0x1 SWAP1 SUB SWAP1 DUP2 PUSH2 0xCD3 JUMPI SWAP1 POP JUMPDEST POP SWAP1 POP PUSH0 PUSH1 0x1 PUSH8 0xFFFFFFFFFFFFFFFF DUP2 GT ISZERO PUSH2 0xD0D JUMPI PUSH2 0xD0C PUSH2 0x1672 JUMP JUMPDEST JUMPDEST PUSH1 0x40 MLOAD SWAP1 DUP1 DUP3 MSTORE DUP1 PUSH1 0x20 MUL PUSH1 0x20 ADD DUP3 ADD PUSH1 0x40 MSTORE DUP1 ISZERO PUSH2 0xD3B JUMPI DUP2 PUSH1 0x20 ADD PUSH1 0x20 DUP3 MUL DUP1 CALLDATASIZE DUP4 CALLDATACOPY DUP1 DUP3 ADD SWAP2 POP POP SWAP1 POP JUMPDEST POP SWAP1 POP PUSH4 0x6C877C84 PUSH1 0xE0 SHL DUP2 PUSH0 DUP2 MLOAD DUP2 LT PUSH2 0xD59 JUMPI PUSH2 0xD58 PUSH2 0x169F JUMP JUMPDEST JUMPDEST PUSH1 0x20 MUL PUSH1 0x20 ADD ADD SWAP1 PUSH28 0xFFFFFFFFFFFFFFFFFFFFFFFFFFFFFFFFFFFFFFFFFFFFFFFFFFFFFFFF NOT AND SWAP1 DUP2 PUSH28 0xFFFFFFFFFFFFFFFFFFFFFFFFFFFFFFFFFFFFFFFFFFFFFFFFFFFFFFFF NOT AND DUP2 MSTORE POP POP PUSH1 0x40 MLOAD DUP1 PUSH1 0x60 ADD PUSH1 0x40 MSTORE DUP1 DUP5 PUSH20 0xFFFFFFFFFFFFFFFFFFFFFFFFFFFFFFFFFFFFFFFF AND DUP2 MSTORE PUSH1 0x20 ADD PUSH1 0x2 DUP1 DUP2 GT ISZERO PUSH2 0xDDF JUMPI PUSH2 0xDDE PUSH2 0x16CC JUMP JUMPDEST JUMPDEST DUP2 MSTORE PUSH1 0x20 ADD DUP3 DUP2 MSTORE POP DUP3 PUSH0 DUP2 MLOAD DUP2 LT PUSH2 0xDFB JUMPI PUSH2 0xDFA PUSH2 0x169F JUMP JUMPDEST JUMPDEST PUSH1 0x20 MUL PUSH1 0x20 ADD ADD DUP2 SWAP1 MSTORE POP PUSH2 0xE20 DUP5 DUP4 PUSH0 PUSH1 0x40 MLOAD DUP1 PUSH1 0x20 ADD PUSH1 0x40 MSTORE DUP1 PUSH0 DUP2 MSTORE POP PUSH2 0x151F JUMP JUMPDEST POP POP POP POP JUMP JUMPDEST PUSH0 PUSH1 0x2 PUSH8 0xFFFFFFFFFFFFFFFF DUP2 GT ISZERO PUSH2 0xE42 JUMPI PUSH2 0xE41 PUSH2 0x1672 JUMP JUMPDEST JUMPDEST PUSH1 0x40 MLOAD SWAP1 DUP1 DUP3 MSTORE DUP1 PUSH1 0x20 MUL PUSH1 0x20 ADD DUP3 ADD PUSH1 0x40 MSTORE DUP1 ISZERO PUSH2 0xE70 JUMPI DUP2 PUSH1 0x20 ADD PUSH1 0x20 DUP3 MUL DUP1 CALLDATASIZE DUP4 CALLDATACOPY DUP1 DUP3 ADD SWAP2 POP POP SWAP1 POP JUMPDEST POP SWAP1 POP PUSH4 0xADA84967 PUSH1 0xE0 SHL DUP2 PUSH0 DUP2 MLOAD DUP2 LT PUSH2 0xE8E JUMPI PUSH2 0xE8D PUSH2 0x169F JUMP JUMPDEST JUMPDEST PUSH1 0x20 MUL PUSH1 0x20 ADD ADD SWAP1 PUSH28 0xFFFFFFFFFFFFFFFFFFFFFFFFFFFFFFFFFFFFFFFFFFFFFFFFFFFFFFFF NOT AND SWAP1 DUP2 PUSH28 0xFFFFFFFFFFFFFFFFFFFFFFFFFFFFFFFFFFFFFFFFFFFFFFFFFFFFFFFF NOT AND DUP2 MSTORE POP POP PUSH4 0x8611EDE8 PUSH1 0xE0 SHL DUP2 PUSH1 0x1 DUP2 MLOAD DUP2 LT PUSH2 0xEF6 JUMPI PUSH2 0xEF5 PUSH2 0x169F JUMP JUMPDEST JUMPDEST PUSH1 0x20 MUL PUSH1 0x20 ADD ADD SWAP1 PUSH28 0xFFFFFFFFFFFFFFFFFFFFFFFFFFFFFFFFFFFFFFFFFFFFFFFFFFFFFFFF NOT AND SWAP1 DUP2 PUSH28 0xFFFFFFFFFFFFFFFFFFFFFFFFFFFFFFFFFFFFFFFFFFFFFFFFFFFFFFFF NOT AND DUP2 MSTORE POP POP PUSH0 PUSH1 0x1 PUSH8 0xFFFFFFFFFFFFFFFF DUP2 GT ISZERO PUSH2 0xF5E JUMPI PUSH2 0xF5D PUSH2 0x1672 JUMP JUMPDEST JUMPDEST PUSH1 0x40 MLOAD SWAP1 DUP1 DUP3 MSTORE DUP1 PUSH1 0x20 MUL PUSH1 0x20 ADD DUP3 ADD PUSH1 0x40 MSTORE DUP1 ISZERO PUSH2 0xF97 JUMPI DUP2 PUSH1 0x20 ADD JUMPDEST PUSH2 0xF84 PUSH2 0x158F JUMP JUMPDEST DUP2 MSTORE PUSH1 0x20 ADD SWAP1 PUSH1 0x1 SWAP1 SUB SWAP1 DUP2 PUSH2 0xF7C JUMPI SWAP1 POP JUMPDEST POP SWAP1 POP PUSH1 0x40 MLOAD DUP1 PUSH1 0x60 ADD PUSH1 0x40 MSTORE DUP1 DUP5 PUSH20 0xFFFFFFFFFFFFFFFFFFFFFFFFFFFFFFFFFFFFFFFF AND DUP2 MSTORE PUSH1 0x20 ADD PUSH1 0x2 DUP1 DUP2 GT ISZERO PUSH2 0xFD4 JUMPI PUSH2 0xFD3 PUSH2 0x16CC JUMP JUMPDEST JUMPDEST DUP2 MSTORE PUSH1 0x20 ADD DUP4 DUP2 MSTORE POP DUP2 PUSH0 DUP2 MLOAD DUP2 LT PUSH2 0xFF0 JUMPI PUSH2 0xFEF PUSH2 0x169F JUMP JUMPDEST JUMPDEST PUSH1 0x20 MUL PUSH1 0x20 ADD ADD DUP2 SWAP1 MSTORE POP PUSH2 0x1015 DUP5 DUP3 PUSH0 PUSH1 0x40 MLOAD DUP1 PUSH1 0x20 ADD PUSH1 0x40 MSTORE DUP1 PUSH0 DUP2 MSTORE POP PUSH2 0x151F JUMP JUMPDEST POP POP POP POP JUMP JUMPDEST PUSH0 PUSH1 0x1 PUSH8 0xFFFFFFFFFFFFFFFF DUP2 GT ISZERO PUSH2 0x1037 JUMPI PUSH2 0x1036 PUSH2 0x1672 JUMP JUMPDEST JUMPDEST PUSH1 0x40 MLOAD SWAP1 DUP1 DUP3 MSTORE DUP1 PUSH1 0x20 MUL PUSH1 0x20 ADD DUP3 ADD PUSH1 0x40 MSTORE DUP1 ISZERO PUSH2 0x1065 JUMPI DUP2 PUSH1 0x20 ADD PUSH1 0x20 DUP3 MUL DUP1 CALLDATASIZE DUP4 CALLDATACOPY DUP1 DUP3 ADD SWAP2 POP POP SWAP1 POP JUMPDEST POP SWAP1 POP PUSH4 0x6C65A62F PUSH1 0xE0 SHL DUP2 PUSH0 DUP2 MLOAD DUP2 LT PUSH2 0x1083 JUMPI PUSH2 0x1082 PUSH2 0x169F JUMP JUMPDEST JUMPDEST PUSH1 0x20 MUL PUSH1 0x20 ADD ADD SWAP1 PUSH28 0xFFFFFFFFFFFFFFFFFFFFFFFFFFFFFFFFFFFFFFFFFFFFFFFFFFFFFFFF NOT AND SWAP1 DUP2 PUSH28 0xFFFFFFFFFFFFFFFFFFFFFFFFFFFFFFFFFFFFFFFFFFFFFFFFFFFFFFFF NOT AND DUP2 MSTORE POP POP PUSH0 PUSH1 0x1 PUSH8 0xFFFFFFFFFFFFFFFF DUP2 GT ISZERO PUSH2 0x10EB JUMPI PUSH2 0x10EA PUSH2 0x1672 JUMP JUMPDEST JUMPDEST PUSH1 0x40 MLOAD SWAP1 DUP1 DUP3 MSTORE DUP1 PUSH1 0x20 MUL PUSH1 0x20 ADD DUP3 ADD PUSH1 0x40 MSTORE DUP1 ISZERO PUSH2 0x1124 JUMPI DUP2 PUSH1 0x20 ADD JUMPDEST PUSH2 0x1111 PUSH2 0x158F JUMP JUMPDEST DUP2 MSTORE PUSH1 0x20 ADD SWAP1 PUSH1 0x1 SWAP1 SUB SWAP1 DUP2 PUSH2 0x1109 JUMPI SWAP1 POP JUMPDEST POP SWAP1 POP PUSH1 0x40 MLOAD DUP1 PUSH1 0x60 ADD PUSH1 0x40 MSTORE DUP1 DUP5 PUSH20 0xFFFFFFFFFFFFFFFFFFFFFFFFFFFFFFFFFFFFFFFF AND DUP2 MSTORE PUSH1 0x20 ADD PUSH0 PUSH1 0x2 DUP2 GT ISZERO PUSH2 0x1161 JUMPI PUSH2 0x1160 PUSH2 0x16CC JUMP JUMPDEST JUMPDEST DUP2 MSTORE PUSH1 0x20 ADD DUP4 DUP2 MSTORE POP DUP2 PUSH0 DUP2 MLOAD DUP2 LT PUSH2 0x117D JUMPI PUSH2 0x117C PUSH2 0x169F JUMP JUMPDEST JUMPDEST PUSH1 0x20 MUL PUSH1 0x20 ADD ADD DUP2 SWAP1 MSTORE POP PUSH2 0x11A2 DUP5 DUP3 PUSH0 PUSH1 0x40 MLOAD DUP1 PUSH1 0x20 ADD PUSH1 0x40 MSTORE DUP1 PUSH0 DUP2 MSTORE POP PUSH2 0x151F JUMP JUMPDEST POP POP POP POP JUMP JUMPDEST PUSH0 PUSH1 0x1 PUSH8 0xFFFFFFFFFFFFFFFF DUP2 GT ISZERO PUSH2 0x11C4 JUMPI PUSH2 0x11C3 PUSH2 0x1672 JUMP JUMPDEST JUMPDEST PUSH1 0x40 MLOAD SWAP1 DUP1 DUP3 MSTORE DUP1 PUSH1 0x20 MUL PUSH1 0x20 ADD DUP3 ADD PUSH1 0x40 MSTORE DUP1 ISZERO PUSH2 0x11FD JUMPI DUP2 PUSH1 0x20 ADD JUMPDEST PUSH2 0x11EA PUSH2 0x158F JUMP JUMPDEST DUP2 MSTORE PUSH1 0x20 ADD SWAP1 PUSH1 0x1 SWAP1 SUB SWAP1 DUP2 PUSH2 0x11E2 JUMPI SWAP1 POP JUMPDEST POP SWAP1 POP PUSH0 PUSH1 0x1 PUSH8 0xFFFFFFFFFFFFFFFF DUP2 GT ISZERO PUSH2 0x121C JUMPI PUSH2 0x121B PUSH2 0x1672 JUMP JUMPDEST JUMPDEST PUSH1 0x40 MLOAD SWAP1 DUP1 DUP3 MSTORE DUP1 PUSH1 0x20 MUL PUSH1 0x20 ADD DUP3 ADD PUSH1 0x40 MSTORE DUP1 ISZERO PUSH2 0x124A JUMPI DUP2 PUSH1 0x20 ADD PUSH1 0x20 DUP3 MUL DUP1 CALLDATASIZE DUP4 CALLDATACOPY DUP1 DUP3 ADD SWAP2 POP POP SWAP1 POP JUMPDEST POP SWAP1 POP PUSH4 0x6C65A62F PUSH1 0xE0 SHL DUP2 PUSH0 DUP2 MLOAD DUP2 LT PUSH2 0x1268 JUMPI PUSH2 0x1267 PUSH2 0x169F JUMP JUMPDEST JUMPDEST PUSH1 0x20 MUL PUSH1 0x20 ADD ADD SWAP1 PUSH28 0xFFFFFFFFFFFFFFFFFFFFFFFFFFFFFFFFFFFFFFFFFFFFFFFFFFFFFFFF NOT AND SWAP1 DUP2 PUSH28 0xFFFFFFFFFFFFFFFFFFFFFFFFFFFFFFFFFFFFFFFFFFFFFFFFFFFFFFFF NOT AND DUP2 MSTORE POP POP PUSH1 0x40 MLOAD DUP1 PUSH1 0x60 ADD PUSH1 0x40 MSTORE DUP1 DUP5 PUSH20 0xFFFFFFFFFFFFFFFFFFFFFFFFFFFFFFFFFFFFFFFF AND DUP2 MSTORE PUSH1 0x20 ADD PUSH1 0x1 PUSH1 0x2 DUP2 GT ISZERO PUSH2 0x12EF JUMPI PUSH2 0x12EE PUSH2 0x16CC JUMP JUMPDEST JUMPDEST DUP2 MSTORE PUSH1 0x20 ADD DUP3 DUP2 MSTORE POP DUP3 PUSH0 DUP2 MLOAD DUP2 LT PUSH2 0x130B JUMPI PUSH2 0x130A PUSH2 0x169F JUMP JUMPDEST JUMPDEST PUSH1 0x20 MUL PUSH1 0x20 ADD ADD DUP2 SWAP1 MSTORE POP PUSH2 0x1330 DUP5 DUP4 PUSH0 PUSH1 0x40 MLOAD DUP1 PUSH1 0x20 ADD PUSH1 0x40 MSTORE DUP1 PUSH0 DUP2 MSTORE POP PUSH2 0x151F JUMP JUMPDEST POP POP POP POP JUMP JUMPDEST PUSH0 PUSH1 0x1 PUSH8 0xFFFFFFFFFFFFFFFF DUP2 GT ISZERO PUSH2 0x1352 JUMPI PUSH2 0x1351 PUSH2 0x1672 JUMP JUMPDEST JUMPDEST PUSH1 0x40 MLOAD SWAP1 DUP1 DUP3 MSTORE DUP1 PUSH1 0x20 MUL PUSH1 0x20 ADD DUP3 ADD PUSH1 0x40 MSTORE DUP1 ISZERO PUSH2 0x138B JUMPI DUP2 PUSH1 0x20 ADD JUMPDEST PUSH2 0x1378 PUSH2 0x158F JUMP JUMPDEST DUP2 MSTORE PUSH1 0x20 ADD SWAP1 PUSH1 0x1 SWAP1 SUB SWAP1 DUP2 PUSH2 0x1370 JUMPI SWAP1 POP JUMPDEST POP SWAP1 POP PUSH0 PUSH1 0x1 PUSH8 0xFFFFFFFFFFFFFFFF DUP2 GT ISZERO PUSH2 0x13AA JUMPI PUSH2 0x13A9 PUSH2 0x1672 JUMP JUMPDEST JUMPDEST PUSH1 0x40 MLOAD SWAP1 DUP1 DUP3 MSTORE DUP1 PUSH1 0x20 MUL PUSH1 0x20 ADD DUP3 ADD PUSH1 0x40 MSTORE DUP1 ISZERO PUSH2 0x13D8 JUMPI DUP2 PUSH1 0x20 ADD PUSH1 0x20 DUP3 MUL DUP1 CALLDATASIZE DUP4 CALLDATACOPY DUP1 DUP3 ADD SWAP2 POP POP SWAP1 POP JUMPDEST POP SWAP1 POP PUSH4 0x6C877C84 PUSH1 0xE0 SHL DUP2 PUSH0 DUP2 MLOAD DUP2 LT PUSH2 0x13F6 JUMPI PUSH2 0x13F5 PUSH2 0x169F JUMP JUMPDEST JUMPDEST PUSH1 0x20 MUL PUSH1 0x20 ADD ADD SWAP1 PUSH28 0xFFFFFFFFFFFFFFFFFFFFFFFFFFFFFFFFFFFFFFFFFFFFFFFFFFFFFFFF NOT AND SWAP1 DUP2 PUSH28 0xFFFFFFFFFFFFFFFFFFFFFFFFFFFFFFFFFFFFFFFFFFFFFFFFFFFFFFFF NOT AND DUP2 MSTORE POP POP PUSH1 0x40 MLOAD DUP1 PUSH1 0x60 ADD PUSH1 0x40 MSTORE DUP1 DUP5 PUSH20 0xFFFFFFFFFFFFFFFFFFFFFFFFFFFFFFFFFFFFFFFF AND DUP2 MSTORE PUSH1 0x20 ADD PUSH0 PUSH1 0x2 DUP2 GT ISZERO PUSH2 0x147C JUMPI PUSH2 0x147B PUSH2 0x16CC JUMP JUMPDEST JUMPDEST DUP2 MSTORE PUSH1 0x20 ADD DUP3 DUP2 MSTORE POP DUP3 PUSH0 DUP2 MLOAD DUP2 LT PUSH2 0x1498 JUMPI PUSH2 0x1497 PUSH2 0x169F JUMP JUMPDEST JUMPDEST PUSH1 0x20 MUL PUSH1 0x20 ADD ADD DUP2 SWAP1 MSTORE POP PUSH2 0x1519 DUP5 DUP4 DUP6 PUSH4 0xE1C7392A PUSH1 0xE0 SHL PUSH1 0x40 MLOAD PUSH1 0x24 ADD PUSH1 0x40 MLOAD PUSH1 0x20 DUP2 DUP4 SUB SUB DUP2 MSTORE SWAP1 PUSH1 0x40 MSTORE SWAP1 PUSH28 0xFFFFFFFFFFFFFFFFFFFFFFFFFFFFFFFFFFFFFFFFFFFFFFFFFFFFFFFF NOT AND PUSH1 0x20 DUP3 ADD DUP1 MLOAD PUSH28 0xFFFFFFFFFFFFFFFFFFFFFFFFFFFFFFFFFFFFFFFFFFFFFFFFFFFFFFFF DUP4 DUP2 DUP4 AND OR DUP4 MSTORE POP POP POP POP PUSH2 0x151F JUMP JUMPDEST POP POP POP POP JUMP JUMPDEST DUP4 PUSH20 0xFFFFFFFFFFFFFFFFFFFFFFFFFFFFFFFFFFFFFFFF AND PUSH4 0x1F931C1C DUP5 DUP5 DUP5 PUSH1 0x40 MLOAD DUP5 PUSH4 0xFFFFFFFF AND PUSH1 0xE0 SHL DUP2 MSTORE PUSH1 0x4 ADD PUSH2 0x155C SWAP4 SWAP3 SWAP2 SWAP1 PUSH2 0x19B7 JUMP JUMPDEST PUSH0 PUSH1 0x40 MLOAD DUP1 DUP4 SUB DUP2 PUSH0 DUP8 DUP1 EXTCODESIZE ISZERO DUP1 ISZERO PUSH2 0x1573 JUMPI PUSH0 DUP1 REVERT JUMPDEST POP GAS CALL ISZERO DUP1 ISZERO PUSH2 0x1585 JUMPI RETURNDATASIZE PUSH0 DUP1 RETURNDATACOPY RETURNDATASIZE PUSH0 REVERT JUMPDEST POP POP POP POP POP POP POP POP JUMP JUMPDEST PUSH1 0x40 MLOAD DUP1 PUSH1 0x60 ADD PUSH1 0x40 MSTORE DUP1 PUSH0 PUSH20 0xFFFFFFFFFFFFFFFFFFFFFFFFFFFFFFFFFFFFFFFF AND DUP2 MSTORE PUSH1 0x20 ADD PUSH0 PUSH1 0x2 DUP2 GT ISZERO PUSH2 0x15C9 JUMPI PUSH2 0x15C8 PUSH2 0x16CC JUMP JUMPDEST JUMPDEST DUP2 MSTORE PUSH1 0x20 ADD PUSH1 0x60 DUP2 MSTORE POP SWAP1 JUMP JUMPDEST PUSH0 DUP1 REVERT JUMPDEST PUSH0 PUSH20 0xFFFFFFFFFFFFFFFFFFFFFFFFFFFFFFFFFFFFFFFF DUP3 AND SWAP1 POP SWAP2 SWAP1 POP JUMP JUMPDEST PUSH0 PUSH2 0x1603 DUP3 PUSH2 0x15DA JUMP JUMPDEST SWAP1 POP SWAP2 SWAP1 POP JUMP JUMPDEST PUSH2 0x1613 DUP2 PUSH2 0x15F9 JUMP JUMPDEST DUP2 EQ PUSH2 0x161D JUMPI PUSH0 DUP1 REVERT JUMPDEST POP JUMP JUMPDEST PUSH0 DUP2 CALLDATALOAD SWAP1 POP PUSH2 0x162E DUP2 PUSH2 0x160A JUMP JUMPDEST SWAP3 SWAP2 POP POP JUMP JUMPDEST PUSH0 DUP1 PUSH1 0x40 DUP4 DUP6 SUB SLT ISZERO PUSH2 0x164A JUMPI PUSH2 0x1649 PUSH2 0x15D6 JUMP JUMPDEST JUMPDEST PUSH0 PUSH2 0x1657 DUP6 DUP3 DUP7 ADD PUSH2 0x1620 JUMP JUMPDEST SWAP3 POP POP PUSH1 0x20 PUSH2 0x1668 DUP6 DUP3 DUP7 ADD PUSH2 0x1620 JUMP JUMPDEST SWAP2 POP POP SWAP3 POP SWAP3 SWAP1 POP JUMP JUMPDEST PUSH32 0x4E487B7100000000000000000000000000000000000000000000000000000000 PUSH0 MSTORE PUSH1 0x41 PUSH1 0x4 MSTORE PUSH1 0x24 PUSH0 REVERT JUMPDEST PUSH32 0x4E487B7100000000000000000000000000000000000000000000000000000000 PUSH0 MSTORE PUSH1 0x32 PUSH1 0x4 MSTORE PUSH1 0x24 PUSH0 REVERT JUMPDEST PUSH32 0x4E487B7100000000000000000000000000000000000000000000000000000000 PUSH0 MSTORE PUSH1 0x21 PUSH1 0x4 MSTORE PUSH1 0x24 PUSH0 REVERT JUMPDEST PUSH0 DUP2 MLOAD SWAP1 POP SWAP2 SWAP1 POP JUMP JUMPDEST PUSH0 DUP3 DUP3 MSTORE PUSH1 0x20 DUP3 ADD SWAP1 POP SWAP3 SWAP2 POP POP JUMP JUMPDEST PUSH0 DUP2 SWAP1 POP PUSH1 0x20 DUP3 ADD SWAP1 POP SWAP2 SWAP1 POP JUMP JUMPDEST PUSH2 0x172B DUP2 PUSH2 0x15F9 JUMP JUMPDEST DUP3 MSTORE POP POP JUMP JUMPDEST PUSH1 0x3 DUP2 LT PUSH2 0x1742 JUMPI PUSH2 0x1741 PUSH2 0x16CC JUMP JUMPDEST JUMPDEST POP JUMP JUMPDEST PUSH0 DUP2 SWAP1 POP PUSH2 0x1752 DUP3 PUSH2 0x1731 JUMP JUMPDEST SWAP2 SWAP1 POP JUMP JUMPDEST PUSH0 PUSH2 0x1761 DUP3 PUSH2 0x1745 JUMP JUMPDEST SWAP1 POP SWAP2 SWAP1 POP JUMP JUMPDEST PUSH2 0x1771 DUP2 PUSH2 0x1757 JUMP JUMPDEST DUP3 MSTORE POP POP JUMP JUMPDEST PUSH0 DUP2 MLOAD SWAP1 POP SWAP2 SWAP1 POP JUMP JUMPDEST PUSH0 DUP3 DUP3 MSTORE PUSH1 0x20 DUP3 ADD SWAP1 POP SWAP3 SWAP2 POP POP JUMP JUMPDEST PUSH0 DUP2 SWAP1 POP PUSH1 0x20 DUP3 ADD SWAP1 POP SWAP2 SWAP1 POP JUMP JUMPDEST PUSH0 PUSH32 0xFFFFFFFF00000000000000000000000000000000000000000000000000000000 DUP3 AND SWAP1 POP SWAP2 SWAP1 POP JUMP JUMPDEST PUSH2 0x17D4 DUP2 PUSH2 0x17A0 JUMP JUMPDEST DUP3 MSTORE POP POP JUMP JUMPDEST PUSH0 PUSH2 0x17E5 DUP4 DUP4 PUSH2 0x17CB JUMP JUMPDEST PUSH1 0x20 DUP4 ADD SWAP1 POP SWAP3 SWAP2 POP POP JUMP JUMPDEST PUSH0 PUSH1 0x20 DUP3 ADD SWAP1 POP SWAP2 SWAP1 POP JUMP JUMPDEST PUSH0 PUSH2 0x1807 DUP3 PUSH2 0x1777 JUMP JUMPDEST PUSH2 0x1811 DUP2 DUP6 PUSH2 0x1781 JUMP JUMPDEST SWAP4 POP PUSH2 0x181C DUP4 PUSH2 0x1791 JUMP JUMPDEST DUP1 PUSH0 JUMPDEST DUP4 DUP2 LT ISZERO PUSH2 0x184C JUMPI DUP2 MLOAD PUSH2 0x1833 DUP9 DUP3 PUSH2 0x17DA JUMP JUMPDEST SWAP8 POP PUSH2 0x183E DUP4 PUSH2 0x17F1 JUMP JUMPDEST SWAP3 POP POP PUSH1 0x1 DUP2 ADD SWAP1 POP PUSH2 0x181F JUMP JUMPDEST POP DUP6 SWAP4 POP POP POP POP SWAP3 SWAP2 POP POP JUMP JUMPDEST PUSH0 PUSH1 0x60 DUP4 ADD PUSH0 DUP4 ADD MLOAD PUSH2 0x186E PUSH0 DUP7 ADD DUP3 PUSH2 0x1722 JUMP JUMPDEST POP PUSH1 0x20 DUP4 ADD MLOAD PUSH2 0x1881 PUSH1 0x20 DUP7 ADD DUP3 PUSH2 0x1768 JUMP JUMPDEST POP PUSH1 0x40 DUP4 ADD MLOAD DUP5 DUP3 SUB PUSH1 0x40 DUP7 ADD MSTORE PUSH2 0x1899 DUP3 DUP3 PUSH2 0x17FD JUMP JUMPDEST SWAP2 POP POP DUP1 SWAP2 POP POP SWAP3 SWAP2 POP POP JUMP JUMPDEST PUSH0 PUSH2 0x18B1 DUP4 DUP4 PUSH2 0x1859 JUMP JUMPDEST SWAP1 POP SWAP3 SWAP2 POP POP JUMP JUMPDEST PUSH0 PUSH1 0x20 DUP3 ADD SWAP1 POP SWAP2 SWAP1 POP JUMP JUMPDEST PUSH0 PUSH2 0x18CF DUP3 PUSH2 0x16F9 JUMP JUMPDEST PUSH2 0x18D9 DUP2 DUP6 PUSH2 0x1703 JUMP JUMPDEST SWAP4 POP DUP4 PUSH1 0x20 DUP3 MUL DUP6 ADD PUSH2 0x18EB DUP6 PUSH2 0x1713 JUMP JUMPDEST DUP1 PUSH0 JUMPDEST DUP6 DUP2 LT ISZERO PUSH2 0x1926 JUMPI DUP5 DUP5 SUB DUP10 MSTORE DUP2 MLOAD PUSH2 0x1907 DUP6 DUP3 PUSH2 0x18A6 JUMP JUMPDEST SWAP5 POP PUSH2 0x1912 DUP4 PUSH2 0x18B9 JUMP JUMPDEST SWAP3 POP PUSH1 0x20 DUP11 ADD SWAP10 POP POP PUSH1 0x1 DUP2 ADD SWAP1 POP PUSH2 0x18EE JUMP JUMPDEST POP DUP3 SWAP8 POP DUP8 SWAP6 POP POP POP POP POP POP SWAP3 SWAP2 POP POP JUMP JUMPDEST PUSH2 0x1941 DUP2 PUSH2 0x15F9 JUMP JUMPDEST DUP3 MSTORE POP POP JUMP JUMPDEST PUSH0 DUP2 MLOAD SWAP1 POP SWAP2 SWAP1 POP JUMP JUMPDEST PUSH0 DUP3 DUP3 MSTORE PUSH1 0x20 DUP3 ADD SWAP1 POP SWAP3 SWAP2 POP POP JUMP JUMPDEST DUP3 DUP2 DUP4 MCOPY PUSH0 DUP4 DUP4 ADD MSTORE POP POP POP JUMP JUMPDEST PUSH0 PUSH1 0x1F NOT PUSH1 0x1F DUP4 ADD AND SWAP1 POP SWAP2 SWAP1 POP JUMP JUMPDEST PUSH0 PUSH2 0x1989 DUP3 PUSH2 0x1947 JUMP JUMPDEST PUSH2 0x1993 DUP2 DUP6 PUSH2 0x1951 JUMP JUMPDEST SWAP4 POP PUSH2 0x19A3 DUP2 DUP6 PUSH1 0x20 DUP7 ADD PUSH2 0x1961 JUMP JUMPDEST PUSH2 0x19AC DUP2 PUSH2 0x196F JUMP JUMPDEST DUP5 ADD SWAP2 POP POP SWAP3 SWAP2 POP POP JUMP JUMPDEST PUSH0 PUSH1 0x60 DUP3 ADD SWAP1 POP DUP2 DUP2 SUB PUSH0 DUP4 ADD MSTORE PUSH2 0x19CF DUP2 DUP7 PUSH2 0x18C5 JUMP JUMPDEST SWAP1 POP PUSH2 0x19DE PUSH1 0x20 DUP4 ADD DUP6 PUSH2 0x1938 JUMP JUMPDEST DUP2 DUP2 SUB PUSH1 0x40 DUP4 ADD MSTORE PUSH2 0x19F0 DUP2 DUP5 PUSH2 0x197F JUMP JUMPDEST SWAP1 POP SWAP5 SWAP4 POP POP POP POP JUMP INVALID LOG2 PUSH5 0x6970667358 0x22 SLT KECCAK256 DUP4 0xB4 PUSH20 0x6748610EAB528A7BEEA0D03B6A9E63D68DB2AD47 EXTCODECOPY CALLDATACOPY BALANCE PUSH29 0x1CAF1CE08364736F6C634300081A003300000000000000000000000000 "
				},
				"gasEstimates": {
					"creation": {
						"codeDepositCost": "1340800",
						"executionCost": "1395",
						"totalCost": "1342195"
					},
					"external": {
						"registLogicOneAddSelector(address,address)": "infinite",
						"registLogicOneContract(address,address)": "infinite",
						"registLogicOneRemoveSelector(address,address)": "infinite",
						"registLogicOneV2Change(address,address)": "infinite",
						"registLogicOneV2Replace(address,address)": "infinite",
						"registLogicTwoContract(address,address)": "infinite",
						"registLogicTwoRemoveAllSelector(address,address)": "infinite",
						"registLogicTwoV2Change(address,address)": "infinite",
						"registLogicTwoV3Change(address,address)": "infinite",
						"registLogicTwoV3Remove(address,address)": "infinite"
					},
					"internal": {
						"_registFacet(address,struct IDiamond.FacetCut memory[] memory,address,bytes memory)": "infinite"
					}
				},
				"methodIdentifiers": {
					"registLogicOneAddSelector(address,address)": "d60d34c7",
					"registLogicOneContract(address,address)": "b1736870",
					"registLogicOneRemoveSelector(address,address)": "039d7432",
					"registLogicOneV2Change(address,address)": "0183db70",
					"registLogicOneV2Replace(address,address)": "e1210147",
					"registLogicTwoContract(address,address)": "1699b7bd",
					"registLogicTwoRemoveAllSelector(address,address)": "d4d8684d",
					"registLogicTwoV2Change(address,address)": "393907d8",
					"registLogicTwoV3Change(address,address)": "e9c94cdf",
					"registLogicTwoV3Remove(address,address)": "c9521dd2"
				}
			},
			"storageLayout": {
				"storage": [],
				"types": null
			},
			"userdoc": {
				"kind": "user",
				"methods": {},
				"version": 1
			}
		}
	}
}