{
	"contracts/proxy/EIP2535/LogicOneV2Facet.sol": {
		"LogicOneV2Facet": {
			"abi": [
				{
					"inputs": [
						{
							"internalType": "uint256",
							"name": "_num",
							"type": "uint256"
						}
					],
					"name": "decreByMyCounter",
					"outputs": [
						{
							"internalType": "bool",
							"name": "",
							"type": "bool"
						}
					],
					"stateMutability": "nonpayable",
					"type": "function"
				},
				{
					"inputs": [],
					"name": "decreMyCounter",
					"outputs": [
						{
							"internalType": "bool",
							"name": "",
							"type": "bool"
						}
					],
					"stateMutability": "nonpayable",
					"type": "function"
				},
				{
					"inputs": [],
					"name": "getMyCounter",
					"outputs": [
						{
							"internalType": "uint256",
							"name": "",
							"type": "uint256"
						}
					],
					"stateMutability": "view",
					"type": "function"
				},
				{
					"inputs": [
						{
							"internalType": "uint256",
							"name": "_num",
							"type": "uint256"
						}
					],
					"name": "increByMyCounter",
					"outputs": [
						{
							"internalType": "bool",
							"name": "",
							"type": "bool"
						}
					],
					"stateMutability": "nonpayable",
					"type": "function"
				},
				{
					"inputs": [],
					"name": "increMyCounter",
					"outputs": [
						{
							"internalType": "bool",
							"name": "",
							"type": "bool"
						}
					],
					"stateMutability": "nonpayable",
					"type": "function"
				},
				{
					"inputs": [
						{
							"internalType": "uint256",
							"name": "_num",
							"type": "uint256"
						}
					],
					"name": "setMyCounter",
					"outputs": [
						{
							"internalType": "bool",
							"name": "",
							"type": "bool"
						}
					],
					"stateMutability": "nonpayable",
					"type": "function"
				}
			],
			"devdoc": {
				"kind": "dev",
				"methods": {},
				"version": 1
			},
			"evm": {
				"assembly": "    /* \"contracts/proxy/EIP2535/LogicOneV2Facet.sol\":110:953  contract LogicOneV2Facet is LogicOneFacet {... */\n  mstore(0x40, 0x80)\n  callvalue\n  dup1\n  iszero\n  tag_1\n  jumpi\n  0x00\n  dup1\n  revert\ntag_1:\n  pop\n  dataSize(sub_0)\n  dup1\n  dataOffset(sub_0)\n  0x00\n  codecopy\n  0x00\n  return\nstop\n\nsub_0: assembly {\n        /* \"contracts/proxy/EIP2535/LogicOneV2Facet.sol\":110:953  contract LogicOneV2Facet is LogicOneFacet {... */\n      mstore(0x40, 0x80)\n      callvalue\n      dup1\n      iszero\n      tag_1\n      jumpi\n      0x00\n      dup1\n      revert\n    tag_1:\n      pop\n      jumpi(tag_2, lt(calldatasize, 0x04))\n      shr(0xe0, calldataload(0x00))\n      dup1\n      0x5cfe3420\n      eq\n      tag_3\n      jumpi\n      dup1\n      0x6bcea8b0\n      eq\n      tag_4\n      jumpi\n      dup1\n      0x6c65a62f\n      eq\n      tag_5\n      jumpi\n      dup1\n      0x8783cf49\n      eq\n      tag_6\n      jumpi\n      dup1\n      0x916d5743\n      eq\n      tag_7\n      jumpi\n      dup1\n      0xec98a839\n      eq\n      tag_8\n      jumpi\n    tag_2:\n      0x00\n      dup1\n      revert\n        /* \"contracts/proxy/EIP2535/LogicOneFacet.sol\":445:573  function setMyCounter(uint256 _num) external returns (bool) {... */\n    tag_3:\n      tag_9\n      0x04\n      dup1\n      calldatasize\n      sub\n      dup2\n      add\n      swap1\n      tag_10\n      swap2\n      swap1\n      tag_11\n      jump\t// in\n    tag_10:\n      tag_12\n      jump\t// in\n    tag_9:\n      mload(0x40)\n      tag_13\n      swap2\n      swap1\n      tag_14\n      jump\t// in\n    tag_13:\n      mload(0x40)\n      dup1\n      swap2\n      sub\n      swap1\n      return\n        /* \"contracts/proxy/EIP2535/LogicOneV2Facet.sol\":366:606  function decreByMyCounter(uint256 _num) external returns (bool) {... */\n    tag_4:\n      tag_15\n      0x04\n      dup1\n      calldatasize\n      sub\n      dup2\n      add\n      swap1\n      tag_16\n      swap2\n      swap1\n      tag_11\n      jump\t// in\n    tag_16:\n      tag_17\n      jump\t// in\n    tag_15:\n      mload(0x40)\n      tag_18\n      swap2\n      swap1\n      tag_14\n      jump\t// in\n    tag_18:\n      mload(0x40)\n      dup1\n      swap2\n      sub\n      swap1\n      return\n        /* \"contracts/proxy/EIP2535/LogicOneV2Facet.sol\":723:951  function decreMyCounter() external override  returns (bool) {... */\n    tag_5:\n      tag_19\n      tag_20\n      jump\t// in\n    tag_19:\n      mload(0x40)\n      tag_21\n      swap2\n      swap1\n      tag_14\n      jump\t// in\n    tag_21:\n      mload(0x40)\n      dup1\n      swap2\n      sub\n      swap1\n      return\n        /* \"contracts/proxy/EIP2535/LogicOneFacet.sol\":578:691  function increMyCounter() external returns (bool) {... */\n    tag_6:\n      tag_22\n      tag_23\n      jump\t// in\n    tag_22:\n      mload(0x40)\n      tag_24\n      swap2\n      swap1\n      tag_14\n      jump\t// in\n    tag_24:\n      mload(0x40)\n      dup1\n      swap2\n      sub\n      swap1\n      return\n        /* \"contracts/proxy/EIP2535/LogicOneFacet.sol\":337:440  function getMyCounter() external view returns (uint256) {... */\n    tag_7:\n      tag_25\n      tag_26\n      jump\t// in\n    tag_25:\n      mload(0x40)\n      tag_27\n      swap2\n      swap1\n      tag_28\n      jump\t// in\n    tag_27:\n      mload(0x40)\n      dup1\n      swap2\n      sub\n      swap1\n      return\n        /* \"contracts/proxy/EIP2535/LogicOneV2Facet.sol\":193:326  function increByMyCounter(uint256 _num) external returns (bool) {... */\n    tag_8:\n      tag_29\n      0x04\n      dup1\n      calldatasize\n      sub\n      dup2\n      add\n      swap1\n      tag_30\n      swap2\n      swap1\n      tag_11\n      jump\t// in\n    tag_30:\n      tag_31\n      jump\t// in\n    tag_29:\n      mload(0x40)\n      tag_32\n      swap2\n      swap1\n      tag_14\n      jump\t// in\n    tag_32:\n      mload(0x40)\n      dup1\n      swap2\n      sub\n      swap1\n      return\n        /* \"contracts/proxy/EIP2535/LogicOneFacet.sol\":445:573  function setMyCounter(uint256 _num) external returns (bool) {... */\n    tag_12:\n        /* \"contracts/proxy/EIP2535/LogicOneFacet.sol\":499:503  bool */\n      0x00\n        /* \"contracts/proxy/EIP2535/LogicOneFacet.sol\":541:545  _num */\n      dup2\n        /* \"contracts/proxy/EIP2535/LogicOneFacet.sol\":515:532  _getCounterSlot() */\n      tag_34\n        /* \"contracts/proxy/EIP2535/LogicOneFacet.sol\":515:530  _getCounterSlot */\n      tag_35\n        /* \"contracts/proxy/EIP2535/LogicOneFacet.sol\":515:532  _getCounterSlot() */\n      jump\t// in\n    tag_34:\n        /* \"contracts/proxy/EIP2535/LogicOneFacet.sol\":515:538  _getCounterSlot().value */\n      0x00\n      add\n        /* \"contracts/proxy/EIP2535/LogicOneFacet.sol\":515:545  _getCounterSlot().value = _num */\n      dup2\n      swap1\n      sstore\n      pop\n        /* \"contracts/proxy/EIP2535/LogicOneFacet.sol\":562:566  true */\n      0x01\n        /* \"contracts/proxy/EIP2535/LogicOneFacet.sol\":555:566  return true */\n      swap1\n      pop\n        /* \"contracts/proxy/EIP2535/LogicOneFacet.sol\":445:573  function setMyCounter(uint256 _num) external returns (bool) {... */\n      swap2\n      swap1\n      pop\n      jump\t// out\n        /* \"contracts/proxy/EIP2535/LogicOneV2Facet.sol\":366:606  function decreByMyCounter(uint256 _num) external returns (bool) {... */\n    tag_17:\n        /* \"contracts/proxy/EIP2535/LogicOneV2Facet.sol\":424:428  bool */\n      0x00\n        /* \"contracts/proxy/EIP2535/LogicOneV2Facet.sol\":475:476  0 */\n      dup1\n        /* \"contracts/proxy/EIP2535/LogicOneV2Facet.sol\":468:472  _num */\n      dup3\n        /* \"contracts/proxy/EIP2535/LogicOneV2Facet.sol\":444:461  _getCounterSlot() */\n      tag_37\n        /* \"contracts/proxy/EIP2535/LogicOneV2Facet.sol\":444:459  _getCounterSlot */\n      tag_35\n        /* \"contracts/proxy/EIP2535/LogicOneV2Facet.sol\":444:461  _getCounterSlot() */\n      jump\t// in\n    tag_37:\n        /* \"contracts/proxy/EIP2535/LogicOneV2Facet.sol\":444:467  _getCounterSlot().value */\n      0x00\n      add\n      sload\n        /* \"contracts/proxy/EIP2535/LogicOneV2Facet.sol\":444:472  _getCounterSlot().value-_num */\n      tag_38\n      swap2\n      swap1\n      tag_39\n      jump\t// in\n    tag_38:\n        /* \"contracts/proxy/EIP2535/LogicOneV2Facet.sol\":444:476  _getCounterSlot().value-_num > 0 */\n      gt\n        /* \"contracts/proxy/EIP2535/LogicOneV2Facet.sol\":440:600  if (_getCounterSlot().value-_num > 0){... */\n      iszero\n      tag_40\n      jumpi\n        /* \"contracts/proxy/EIP2535/LogicOneV2Facet.sol\":518:522  _num */\n      dup2\n        /* \"contracts/proxy/EIP2535/LogicOneV2Facet.sol\":491:508  _getCounterSlot() */\n      tag_41\n        /* \"contracts/proxy/EIP2535/LogicOneV2Facet.sol\":491:506  _getCounterSlot */\n      tag_35\n        /* \"contracts/proxy/EIP2535/LogicOneV2Facet.sol\":491:508  _getCounterSlot() */\n      jump\t// in\n    tag_41:\n        /* \"contracts/proxy/EIP2535/LogicOneV2Facet.sol\":491:514  _getCounterSlot().value */\n      0x00\n      add\n      0x00\n        /* \"contracts/proxy/EIP2535/LogicOneV2Facet.sol\":491:522  _getCounterSlot().value -= _num */\n      dup3\n      dup3\n      sload\n      tag_42\n      swap2\n      swap1\n      tag_39\n      jump\t// in\n    tag_42:\n      swap3\n      pop\n      pop\n      dup2\n      swap1\n      sstore\n      pop\n        /* \"contracts/proxy/EIP2535/LogicOneV2Facet.sol\":543:547  true */\n      0x01\n        /* \"contracts/proxy/EIP2535/LogicOneV2Facet.sol\":536:547  return true */\n      swap1\n      pop\n      jump(tag_36)\n        /* \"contracts/proxy/EIP2535/LogicOneV2Facet.sol\":440:600  if (_getCounterSlot().value-_num > 0){... */\n    tag_40:\n        /* \"contracts/proxy/EIP2535/LogicOneV2Facet.sol\":584:589  false */\n      0x00\n        /* \"contracts/proxy/EIP2535/LogicOneV2Facet.sol\":577:589  return false */\n      swap1\n      pop\n        /* \"contracts/proxy/EIP2535/LogicOneV2Facet.sol\":366:606  function decreByMyCounter(uint256 _num) external returns (bool) {... */\n    tag_36:\n      swap2\n      swap1\n      pop\n      jump\t// out\n        /* \"contracts/proxy/EIP2535/LogicOneV2Facet.sol\":723:951  function decreMyCounter() external override  returns (bool) {... */\n    tag_20:\n        /* \"contracts/proxy/EIP2535/LogicOneV2Facet.sol\":777:781  bool */\n      0x00\n        /* \"contracts/proxy/EIP2535/LogicOneV2Facet.sol\":823:824  2 */\n      0x02\n        /* \"contracts/proxy/EIP2535/LogicOneV2Facet.sol\":797:814  _getCounterSlot() */\n      tag_45\n        /* \"contracts/proxy/EIP2535/LogicOneV2Facet.sol\":797:812  _getCounterSlot */\n      tag_35\n        /* \"contracts/proxy/EIP2535/LogicOneV2Facet.sol\":797:814  _getCounterSlot() */\n      jump\t// in\n    tag_45:\n        /* \"contracts/proxy/EIP2535/LogicOneV2Facet.sol\":797:820  _getCounterSlot().value */\n      0x00\n      add\n      sload\n        /* \"contracts/proxy/EIP2535/LogicOneV2Facet.sol\":797:824  _getCounterSlot().value > 2 */\n      gt\n        /* \"contracts/proxy/EIP2535/LogicOneV2Facet.sol\":793:945  if (_getCounterSlot().value > 2){... */\n      iszero\n      tag_46\n      jumpi\n        /* \"contracts/proxy/EIP2535/LogicOneV2Facet.sol\":866:867  2 */\n      0x02\n        /* \"contracts/proxy/EIP2535/LogicOneV2Facet.sol\":839:856  _getCounterSlot() */\n      tag_47\n        /* \"contracts/proxy/EIP2535/LogicOneV2Facet.sol\":839:854  _getCounterSlot */\n      tag_35\n        /* \"contracts/proxy/EIP2535/LogicOneV2Facet.sol\":839:856  _getCounterSlot() */\n      jump\t// in\n    tag_47:\n        /* \"contracts/proxy/EIP2535/LogicOneV2Facet.sol\":839:862  _getCounterSlot().value */\n      0x00\n      add\n      0x00\n        /* \"contracts/proxy/EIP2535/LogicOneV2Facet.sol\":839:867  _getCounterSlot().value -= 2 */\n      dup3\n      dup3\n      sload\n      tag_48\n      swap2\n      swap1\n      tag_39\n      jump\t// in\n    tag_48:\n      swap3\n      pop\n      pop\n      dup2\n      swap1\n      sstore\n      pop\n        /* \"contracts/proxy/EIP2535/LogicOneV2Facet.sol\":888:892  true */\n      0x01\n        /* \"contracts/proxy/EIP2535/LogicOneV2Facet.sol\":881:892  return true */\n      swap1\n      pop\n      jump(tag_44)\n        /* \"contracts/proxy/EIP2535/LogicOneV2Facet.sol\":793:945  if (_getCounterSlot().value > 2){... */\n    tag_46:\n        /* \"contracts/proxy/EIP2535/LogicOneV2Facet.sol\":929:934  false */\n      0x00\n        /* \"contracts/proxy/EIP2535/LogicOneV2Facet.sol\":922:934  return false */\n      swap1\n      pop\n        /* \"contracts/proxy/EIP2535/LogicOneV2Facet.sol\":723:951  function decreMyCounter() external override  returns (bool) {... */\n    tag_44:\n      swap1\n      jump\t// out\n        /* \"contracts/proxy/EIP2535/LogicOneFacet.sol\":578:691  function increMyCounter() external returns (bool) {... */\n    tag_23:\n        /* \"contracts/proxy/EIP2535/LogicOneFacet.sol\":622:626  bool */\n      0x00\n        /* \"contracts/proxy/EIP2535/LogicOneFacet.sol\":638:655  _getCounterSlot() */\n      tag_51\n        /* \"contracts/proxy/EIP2535/LogicOneFacet.sol\":638:653  _getCounterSlot */\n      tag_35\n        /* \"contracts/proxy/EIP2535/LogicOneFacet.sol\":638:655  _getCounterSlot() */\n      jump\t// in\n    tag_51:\n        /* \"contracts/proxy/EIP2535/LogicOneFacet.sol\":638:661  _getCounterSlot().value */\n      0x00\n      add\n      0x00\n        /* \"contracts/proxy/EIP2535/LogicOneFacet.sol\":638:663  _getCounterSlot().value++ */\n      dup2\n      sload\n      dup1\n      swap3\n      swap2\n      swap1\n      tag_52\n      swap1\n      tag_53\n      jump\t// in\n    tag_52:\n      swap2\n      swap1\n      pop\n      sstore\n      pop\n        /* \"contracts/proxy/EIP2535/LogicOneFacet.sol\":680:684  true */\n      0x01\n        /* \"contracts/proxy/EIP2535/LogicOneFacet.sol\":673:684  return true */\n      swap1\n      pop\n        /* \"contracts/proxy/EIP2535/LogicOneFacet.sol\":578:691  function increMyCounter() external returns (bool) {... */\n      swap1\n      jump\t// out\n        /* \"contracts/proxy/EIP2535/LogicOneFacet.sol\":337:440  function getMyCounter() external view returns (uint256) {... */\n    tag_26:\n        /* \"contracts/proxy/EIP2535/LogicOneFacet.sol\":384:391  uint256 */\n      0x00\n        /* \"contracts/proxy/EIP2535/LogicOneFacet.sol\":410:427  _getCounterSlot() */\n      tag_55\n        /* \"contracts/proxy/EIP2535/LogicOneFacet.sol\":410:425  _getCounterSlot */\n      tag_35\n        /* \"contracts/proxy/EIP2535/LogicOneFacet.sol\":410:427  _getCounterSlot() */\n      jump\t// in\n    tag_55:\n        /* \"contracts/proxy/EIP2535/LogicOneFacet.sol\":410:433  _getCounterSlot().value */\n      0x00\n      add\n      sload\n        /* \"contracts/proxy/EIP2535/LogicOneFacet.sol\":403:433  return _getCounterSlot().value */\n      swap1\n      pop\n        /* \"contracts/proxy/EIP2535/LogicOneFacet.sol\":337:440  function getMyCounter() external view returns (uint256) {... */\n      swap1\n      jump\t// out\n        /* \"contracts/proxy/EIP2535/LogicOneV2Facet.sol\":193:326  function increByMyCounter(uint256 _num) external returns (bool) {... */\n    tag_31:\n        /* \"contracts/proxy/EIP2535/LogicOneV2Facet.sol\":251:255  bool */\n      0x00\n        /* \"contracts/proxy/EIP2535/LogicOneV2Facet.sol\":294:298  _num */\n      dup2\n        /* \"contracts/proxy/EIP2535/LogicOneV2Facet.sol\":267:284  _getCounterSlot() */\n      tag_57\n        /* \"contracts/proxy/EIP2535/LogicOneV2Facet.sol\":267:282  _getCounterSlot */\n      tag_35\n        /* \"contracts/proxy/EIP2535/LogicOneV2Facet.sol\":267:284  _getCounterSlot() */\n      jump\t// in\n    tag_57:\n        /* \"contracts/proxy/EIP2535/LogicOneV2Facet.sol\":267:290  _getCounterSlot().value */\n      0x00\n      add\n      0x00\n        /* \"contracts/proxy/EIP2535/LogicOneV2Facet.sol\":267:298  _getCounterSlot().value += _num */\n      dup3\n      dup3\n      sload\n      tag_58\n      swap2\n      swap1\n      tag_59\n      jump\t// in\n    tag_58:\n      swap3\n      pop\n      pop\n      dup2\n      swap1\n      sstore\n      pop\n        /* \"contracts/proxy/EIP2535/LogicOneV2Facet.sol\":315:319  true */\n      0x01\n        /* \"contracts/proxy/EIP2535/LogicOneV2Facet.sol\":308:319  return true */\n      swap1\n      pop\n        /* \"contracts/proxy/EIP2535/LogicOneV2Facet.sol\":193:326  function increByMyCounter(uint256 _num) external returns (bool) {... */\n      swap2\n      swap1\n      pop\n      jump\t// out\n        /* \"contracts/proxy/EIP2535/LogicOneFacet.sol\":924:1073  function _getCounterSlot() internal  pure returns (StorageSlot.Uint256Slot storage) {... */\n    tag_35:\n        /* \"contracts/proxy/EIP2535/LogicOneFacet.sol\":975:1006  StorageSlot.Uint256Slot storage */\n      0x00\n        /* \"contracts/proxy/EIP2535/LogicOneFacet.sol\":1025:1066  MY_COUNTER.erc7201Slot().getUint256Slot() */\n      tag_61\n        /* \"contracts/proxy/EIP2535/LogicOneFacet.sol\":1025:1049  MY_COUNTER.erc7201Slot() */\n      tag_62\n        /* \"contracts/proxy/EIP2535/LogicOneFacet.sol\":1025:1035  MY_COUNTER */\n      mload(0x40)\n      dup1\n      0x40\n      add\n      0x40\n      mstore\n      dup1\n      0x1d\n      dup2\n      mstore\n      0x20\n      add\n      0x656970323533352e4c6f6769634f6e6546616365742e636f756e746572000000\n      dup2\n      mstore\n      pop\n        /* \"contracts/proxy/EIP2535/LogicOneFacet.sol\":1025:1047  MY_COUNTER.erc7201Slot */\n      tag_63\n        /* \"contracts/proxy/EIP2535/LogicOneFacet.sol\":1025:1049  MY_COUNTER.erc7201Slot() */\n      jump\t// in\n    tag_62:\n        /* \"contracts/proxy/EIP2535/LogicOneFacet.sol\":1025:1064  MY_COUNTER.erc7201Slot().getUint256Slot */\n      tag_64\n        /* \"contracts/proxy/EIP2535/LogicOneFacet.sol\":1025:1066  MY_COUNTER.erc7201Slot().getUint256Slot() */\n      jump\t// in\n    tag_61:\n        /* \"contracts/proxy/EIP2535/LogicOneFacet.sol\":1018:1066  return MY_COUNTER.erc7201Slot().getUint256Slot() */\n      swap1\n      pop\n        /* \"contracts/proxy/EIP2535/LogicOneFacet.sol\":924:1073  function _getCounterSlot() internal  pure returns (StorageSlot.Uint256Slot storage) {... */\n      swap1\n      jump\t// out\n        /* \"@openzeppelin/contracts/utils/SlotDerivation.sol\":1706:1983  function erc7201Slot(string memory namespace) internal pure returns (bytes32 slot) {... */\n    tag_63:\n        /* \"@openzeppelin/contracts/utils/SlotDerivation.sol\":1775:1787  bytes32 slot */\n      0x00\n        /* \"@openzeppelin/contracts/utils/SlotDerivation.sol\":1906:1907  1 */\n      0x01\n        /* \"@openzeppelin/contracts/utils/SlotDerivation.sol\":1893:1902  namespace */\n      dup3\n        /* \"@openzeppelin/contracts/utils/SlotDerivation.sol\":1887:1903  mload(namespace) */\n      mload\n        /* \"@openzeppelin/contracts/utils/SlotDerivation.sol\":1880:1884  0x20 */\n      0x20\n        /* \"@openzeppelin/contracts/utils/SlotDerivation.sol\":1869:1878  namespace */\n      dup5\n        /* \"@openzeppelin/contracts/utils/SlotDerivation.sol\":1865:1885  add(namespace, 0x20) */\n      add\n        /* \"@openzeppelin/contracts/utils/SlotDerivation.sol\":1855:1904  keccak256(add(namespace, 0x20), mload(namespace)) */\n      keccak256\n        /* \"@openzeppelin/contracts/utils/SlotDerivation.sol\":1851:1908  sub(keccak256(add(namespace, 0x20), mload(namespace)), 1) */\n      sub\n        /* \"@openzeppelin/contracts/utils/SlotDerivation.sol\":1845:1849  0x00 */\n      0x00\n        /* \"@openzeppelin/contracts/utils/SlotDerivation.sol\":1838:1909  mstore(0x00, sub(keccak256(add(namespace, 0x20), mload(namespace)), 1)) */\n      mstore\n        /* \"@openzeppelin/contracts/utils/SlotDerivation.sol\":1961:1965  0xff */\n      0xff\n        /* \"@openzeppelin/contracts/utils/SlotDerivation.sol\":1957:1966  not(0xff) */\n      not\n        /* \"@openzeppelin/contracts/utils/SlotDerivation.sol\":1950:1954  0x20 */\n      0x20\n        /* \"@openzeppelin/contracts/utils/SlotDerivation.sol\":1944:1948  0x00 */\n      0x00\n        /* \"@openzeppelin/contracts/utils/SlotDerivation.sol\":1934:1955  keccak256(0x00, 0x20) */\n      keccak256\n        /* \"@openzeppelin/contracts/utils/SlotDerivation.sol\":1930:1967  and(keccak256(0x00, 0x20), not(0xff)) */\n      and\n        /* \"@openzeppelin/contracts/utils/SlotDerivation.sol\":1922:1967  slot := and(keccak256(0x00, 0x20), not(0xff)) */\n      swap1\n      pop\n        /* \"@openzeppelin/contracts/utils/SlotDerivation.sol\":1706:1983  function erc7201Slot(string memory namespace) internal pure returns (bytes32 slot) {... */\n      swap2\n      swap1\n      pop\n      jump\t// out\n        /* \"@openzeppelin/contracts/utils/StorageSlot.sol\":2679:2842  function getUint256Slot(bytes32 slot) internal pure returns (Uint256Slot storage r) {... */\n    tag_64:\n        /* \"@openzeppelin/contracts/utils/StorageSlot.sol\":2740:2761  Uint256Slot storage r */\n      0x00\n        /* \"@openzeppelin/contracts/utils/StorageSlot.sol\":2822:2826  slot */\n      dup2\n        /* \"@openzeppelin/contracts/utils/StorageSlot.sol\":2812:2826  r.slot := slot */\n      swap1\n      pop\n        /* \"@openzeppelin/contracts/utils/StorageSlot.sol\":2679:2842  function getUint256Slot(bytes32 slot) internal pure returns (Uint256Slot storage r) {... */\n      swap2\n      swap1\n      pop\n      jump\t// out\n        /* \"#utility.yul\":88:205   */\n    tag_68:\n        /* \"#utility.yul\":197:198   */\n      0x00\n        /* \"#utility.yul\":194:195   */\n      dup1\n        /* \"#utility.yul\":187:199   */\n      revert\n        /* \"#utility.yul\":334:411   */\n    tag_70:\n        /* \"#utility.yul\":371:378   */\n      0x00\n        /* \"#utility.yul\":400:405   */\n      dup2\n        /* \"#utility.yul\":389:405   */\n      swap1\n      pop\n        /* \"#utility.yul\":334:411   */\n      swap2\n      swap1\n      pop\n      jump\t// out\n        /* \"#utility.yul\":417:539   */\n    tag_71:\n        /* \"#utility.yul\":490:514   */\n      tag_83\n        /* \"#utility.yul\":508:513   */\n      dup2\n        /* \"#utility.yul\":490:514   */\n      tag_70\n      jump\t// in\n    tag_83:\n        /* \"#utility.yul\":483:488   */\n      dup2\n        /* \"#utility.yul\":480:515   */\n      eq\n        /* \"#utility.yul\":470:533   */\n      tag_84\n      jumpi\n        /* \"#utility.yul\":529:530   */\n      0x00\n        /* \"#utility.yul\":526:527   */\n      dup1\n        /* \"#utility.yul\":519:531   */\n      revert\n        /* \"#utility.yul\":470:533   */\n    tag_84:\n        /* \"#utility.yul\":417:539   */\n      pop\n      jump\t// out\n        /* \"#utility.yul\":545:684   */\n    tag_72:\n        /* \"#utility.yul\":591:596   */\n      0x00\n        /* \"#utility.yul\":629:635   */\n      dup2\n        /* \"#utility.yul\":616:636   */\n      calldataload\n        /* \"#utility.yul\":607:636   */\n      swap1\n      pop\n        /* \"#utility.yul\":645:678   */\n      tag_86\n        /* \"#utility.yul\":672:677   */\n      dup2\n        /* \"#utility.yul\":645:678   */\n      tag_71\n      jump\t// in\n    tag_86:\n        /* \"#utility.yul\":545:684   */\n      swap3\n      swap2\n      pop\n      pop\n      jump\t// out\n        /* \"#utility.yul\":690:1019   */\n    tag_11:\n        /* \"#utility.yul\":749:755   */\n      0x00\n        /* \"#utility.yul\":798:800   */\n      0x20\n        /* \"#utility.yul\":786:795   */\n      dup3\n        /* \"#utility.yul\":777:784   */\n      dup5\n        /* \"#utility.yul\":773:796   */\n      sub\n        /* \"#utility.yul\":769:801   */\n      slt\n        /* \"#utility.yul\":766:885   */\n      iszero\n      tag_88\n      jumpi\n        /* \"#utility.yul\":804:883   */\n      tag_89\n      tag_68\n      jump\t// in\n    tag_89:\n        /* \"#utility.yul\":766:885   */\n    tag_88:\n        /* \"#utility.yul\":924:925   */\n      0x00\n        /* \"#utility.yul\":949:1002   */\n      tag_90\n        /* \"#utility.yul\":994:1001   */\n      dup5\n        /* \"#utility.yul\":985:991   */\n      dup3\n        /* \"#utility.yul\":974:983   */\n      dup6\n        /* \"#utility.yul\":970:992   */\n      add\n        /* \"#utility.yul\":949:1002   */\n      tag_72\n      jump\t// in\n    tag_90:\n        /* \"#utility.yul\":939:1002   */\n      swap2\n      pop\n        /* \"#utility.yul\":895:1012   */\n      pop\n        /* \"#utility.yul\":690:1019   */\n      swap3\n      swap2\n      pop\n      pop\n      jump\t// out\n        /* \"#utility.yul\":1025:1115   */\n    tag_73:\n        /* \"#utility.yul\":1059:1066   */\n      0x00\n        /* \"#utility.yul\":1102:1107   */\n      dup2\n        /* \"#utility.yul\":1095:1108   */\n      iszero\n        /* \"#utility.yul\":1088:1109   */\n      iszero\n        /* \"#utility.yul\":1077:1109   */\n      swap1\n      pop\n        /* \"#utility.yul\":1025:1115   */\n      swap2\n      swap1\n      pop\n      jump\t// out\n        /* \"#utility.yul\":1121:1230   */\n    tag_74:\n        /* \"#utility.yul\":1202:1223   */\n      tag_93\n        /* \"#utility.yul\":1217:1222   */\n      dup2\n        /* \"#utility.yul\":1202:1223   */\n      tag_73\n      jump\t// in\n    tag_93:\n        /* \"#utility.yul\":1197:1200   */\n      dup3\n        /* \"#utility.yul\":1190:1224   */\n      mstore\n        /* \"#utility.yul\":1121:1230   */\n      pop\n      pop\n      jump\t// out\n        /* \"#utility.yul\":1236:1446   */\n    tag_14:\n        /* \"#utility.yul\":1323:1327   */\n      0x00\n        /* \"#utility.yul\":1361:1363   */\n      0x20\n        /* \"#utility.yul\":1350:1359   */\n      dup3\n        /* \"#utility.yul\":1346:1364   */\n      add\n        /* \"#utility.yul\":1338:1364   */\n      swap1\n      pop\n        /* \"#utility.yul\":1374:1439   */\n      tag_95\n        /* \"#utility.yul\":1436:1437   */\n      0x00\n        /* \"#utility.yul\":1425:1434   */\n      dup4\n        /* \"#utility.yul\":1421:1438   */\n      add\n        /* \"#utility.yul\":1412:1418   */\n      dup5\n        /* \"#utility.yul\":1374:1439   */\n      tag_74\n      jump\t// in\n    tag_95:\n        /* \"#utility.yul\":1236:1446   */\n      swap3\n      swap2\n      pop\n      pop\n      jump\t// out\n        /* \"#utility.yul\":1452:1570   */\n    tag_75:\n        /* \"#utility.yul\":1539:1563   */\n      tag_97\n        /* \"#utility.yul\":1557:1562   */\n      dup2\n        /* \"#utility.yul\":1539:1563   */\n      tag_70\n      jump\t// in\n    tag_97:\n        /* \"#utility.yul\":1534:1537   */\n      dup3\n        /* \"#utility.yul\":1527:1564   */\n      mstore\n        /* \"#utility.yul\":1452:1570   */\n      pop\n      pop\n      jump\t// out\n        /* \"#utility.yul\":1576:1798   */\n    tag_28:\n        /* \"#utility.yul\":1669:1673   */\n      0x00\n        /* \"#utility.yul\":1707:1709   */\n      0x20\n        /* \"#utility.yul\":1696:1705   */\n      dup3\n        /* \"#utility.yul\":1692:1710   */\n      add\n        /* \"#utility.yul\":1684:1710   */\n      swap1\n      pop\n        /* \"#utility.yul\":1720:1791   */\n      tag_99\n        /* \"#utility.yul\":1788:1789   */\n      0x00\n        /* \"#utility.yul\":1777:1786   */\n      dup4\n        /* \"#utility.yul\":1773:1790   */\n      add\n        /* \"#utility.yul\":1764:1770   */\n      dup5\n        /* \"#utility.yul\":1720:1791   */\n      tag_75\n      jump\t// in\n    tag_99:\n        /* \"#utility.yul\":1576:1798   */\n      swap3\n      swap2\n      pop\n      pop\n      jump\t// out\n        /* \"#utility.yul\":1804:1984   */\n    tag_76:\n        /* \"#utility.yul\":1852:1929   */\n      0x4e487b7100000000000000000000000000000000000000000000000000000000\n        /* \"#utility.yul\":1849:1850   */\n      0x00\n        /* \"#utility.yul\":1842:1930   */\n      mstore\n        /* \"#utility.yul\":1949:1953   */\n      0x11\n        /* \"#utility.yul\":1946:1947   */\n      0x04\n        /* \"#utility.yul\":1939:1954   */\n      mstore\n        /* \"#utility.yul\":1973:1977   */\n      0x24\n        /* \"#utility.yul\":1970:1971   */\n      0x00\n        /* \"#utility.yul\":1963:1978   */\n      revert\n        /* \"#utility.yul\":1990:2184   */\n    tag_39:\n        /* \"#utility.yul\":2030:2034   */\n      0x00\n        /* \"#utility.yul\":2050:2070   */\n      tag_102\n        /* \"#utility.yul\":2068:2069   */\n      dup3\n        /* \"#utility.yul\":2050:2070   */\n      tag_70\n      jump\t// in\n    tag_102:\n        /* \"#utility.yul\":2045:2070   */\n      swap2\n      pop\n        /* \"#utility.yul\":2084:2104   */\n      tag_103\n        /* \"#utility.yul\":2102:2103   */\n      dup4\n        /* \"#utility.yul\":2084:2104   */\n      tag_70\n      jump\t// in\n    tag_103:\n        /* \"#utility.yul\":2079:2104   */\n      swap3\n      pop\n        /* \"#utility.yul\":2128:2129   */\n      dup3\n        /* \"#utility.yul\":2125:2126   */\n      dup3\n        /* \"#utility.yul\":2121:2130   */\n      sub\n        /* \"#utility.yul\":2113:2130   */\n      swap1\n      pop\n        /* \"#utility.yul\":2152:2153   */\n      dup2\n        /* \"#utility.yul\":2146:2150   */\n      dup2\n        /* \"#utility.yul\":2143:2154   */\n      gt\n        /* \"#utility.yul\":2140:2177   */\n      iszero\n      tag_104\n      jumpi\n        /* \"#utility.yul\":2157:2175   */\n      tag_105\n      tag_76\n      jump\t// in\n    tag_105:\n        /* \"#utility.yul\":2140:2177   */\n    tag_104:\n        /* \"#utility.yul\":1990:2184   */\n      swap3\n      swap2\n      pop\n      pop\n      jump\t// out\n        /* \"#utility.yul\":2190:2423   */\n    tag_53:\n        /* \"#utility.yul\":2229:2232   */\n      0x00\n        /* \"#utility.yul\":2252:2276   */\n      tag_107\n        /* \"#utility.yul\":2270:2275   */\n      dup3\n        /* \"#utility.yul\":2252:2276   */\n      tag_70\n      jump\t// in\n    tag_107:\n        /* \"#utility.yul\":2243:2276   */\n      swap2\n      pop\n        /* \"#utility.yul\":2298:2364   */\n      0xffffffffffffffffffffffffffffffffffffffffffffffffffffffffffffffff\n        /* \"#utility.yul\":2291:2296   */\n      dup3\n        /* \"#utility.yul\":2288:2365   */\n      sub\n        /* \"#utility.yul\":2285:2388   */\n      tag_108\n      jumpi\n        /* \"#utility.yul\":2368:2386   */\n      tag_109\n      tag_76\n      jump\t// in\n    tag_109:\n        /* \"#utility.yul\":2285:2388   */\n    tag_108:\n        /* \"#utility.yul\":2415:2416   */\n      0x01\n        /* \"#utility.yul\":2408:2413   */\n      dup3\n        /* \"#utility.yul\":2404:2417   */\n      add\n        /* \"#utility.yul\":2397:2417   */\n      swap1\n      pop\n        /* \"#utility.yul\":2190:2423   */\n      swap2\n      swap1\n      pop\n      jump\t// out\n        /* \"#utility.yul\":2429:2620   */\n    tag_59:\n        /* \"#utility.yul\":2469:2472   */\n      0x00\n        /* \"#utility.yul\":2488:2508   */\n      tag_111\n        /* \"#utility.yul\":2506:2507   */\n      dup3\n        /* \"#utility.yul\":2488:2508   */\n      tag_70\n      jump\t// in\n    tag_111:\n        /* \"#utility.yul\":2483:2508   */\n      swap2\n      pop\n        /* \"#utility.yul\":2522:2542   */\n      tag_112\n        /* \"#utility.yul\":2540:2541   */\n      dup4\n        /* \"#utility.yul\":2522:2542   */\n      tag_70\n      jump\t// in\n    tag_112:\n        /* \"#utility.yul\":2517:2542   */\n      swap3\n      pop\n        /* \"#utility.yul\":2565:2566   */\n      dup3\n        /* \"#utility.yul\":2562:2563   */\n      dup3\n        /* \"#utility.yul\":2558:2567   */\n      add\n        /* \"#utility.yul\":2551:2567   */\n      swap1\n      pop\n        /* \"#utility.yul\":2586:2589   */\n      dup1\n        /* \"#utility.yul\":2583:2584   */\n      dup3\n        /* \"#utility.yul\":2580:2590   */\n      gt\n        /* \"#utility.yul\":2577:2613   */\n      iszero\n      tag_113\n      jumpi\n        /* \"#utility.yul\":2593:2611   */\n      tag_114\n      tag_76\n      jump\t// in\n    tag_114:\n        /* \"#utility.yul\":2577:2613   */\n    tag_113:\n        /* \"#utility.yul\":2429:2620   */\n      swap3\n      swap2\n      pop\n      pop\n      jump\t// out\n\n    auxdata: 0xa2646970667358221220c5b1edd9af3b8d3a862151e0256b4b08b287c168019e3a2f56100db7d35c03eb64736f6c634300081a0033\n}\n",
				"bytecode": {
					"linkReferences": {},
					"object": "6080604052348015600e575f80fd5b5061049c8061001c5f395ff3fe608060405234801561000f575f80fd5b5060043610610060575f3560e01c80635cfe3420146100645780636bcea8b0146100945780636c65a62f146100c45780638783cf49146100e2578063916d574314610100578063ec98a8391461011e575b5f80fd5b61007e60048036038101906100799190610306565b61014e565b60405161008b919061034b565b60405180910390f35b6100ae60048036038101906100a99190610306565b610167565b6040516100bb919061034b565b60405180910390f35b6100cc6101b7565b6040516100d9919061034b565b60405180910390f35b6100ea6101fc565b6040516100f7919061034b565b60405180910390f35b610108610223565b6040516101159190610373565b60405180910390f35b61013860048036038101906101339190610306565b610234565b604051610145919061034b565b60405180910390f35b5f8161015861025e565b5f018190555060019050919050565b5f808261017261025e565b5f015461017f91906103b9565b11156101ae578161018e61025e565b5f015f82825461019e91906103b9565b92505081905550600190506101b2565b5f90505b919050565b5f60026101c261025e565b5f015411156101f55760026101d561025e565b5f015f8282546101e591906103b9565b92505081905550600190506101f9565b5f90505b90565b5f61020561025e565b5f015f815480929190610217906103ec565b91905055506001905090565b5f61022c61025e565b5f0154905090565b5f8161023e61025e565b5f015f82825461024e9190610433565b9250508190555060019050919050565b5f6102a56102a06040518060400160405280601d81526020017f656970323533352e4c6f6769634f6e6546616365742e636f756e7465720000008152506102aa565b6102c6565b905090565b5f600182516020840120035f5260ff1960205f20169050919050565b5f819050919050565b5f80fd5b5f819050919050565b6102e5816102d3565b81146102ef575f80fd5b50565b5f81359050610300816102dc565b92915050565b5f6020828403121561031b5761031a6102cf565b5b5f610328848285016102f2565b91505092915050565b5f8115159050919050565b61034581610331565b82525050565b5f60208201905061035e5f83018461033c565b92915050565b61036d816102d3565b82525050565b5f6020820190506103865f830184610364565b92915050565b7f4e487b71000000000000000000000000000000000000000000000000000000005f52601160045260245ffd5b5f6103c3826102d3565b91506103ce836102d3565b92508282039050818111156103e6576103e561038c565b5b92915050565b5f6103f6826102d3565b91507fffffffffffffffffffffffffffffffffffffffffffffffffffffffffffffffff82036104285761042761038c565b5b600182019050919050565b5f61043d826102d3565b9150610448836102d3565b92508282019050808211156104605761045f61038c565b5b9291505056fea2646970667358221220c5b1edd9af3b8d3a862151e0256b4b08b287c168019e3a2f56100db7d35c03eb64736f6c634300081a0033",
					"opcodes": "PUSH1 0x80 PUSH1 0x40 MSTORE CALLVALUE DUP1 ISZERO PUSH1 0xE JUMPI PUSH0 DUP1 REVERT JUMPDEST POP PUSH2 0x49C DUP1 PUSH2 0x1C PUSH0 CODECOPY PUSH0 RETURN INVALID PUSH1 0x80 PUSH1 0x40 MSTORE CALLVALUE DUP1 ISZERO PUSH2 0xF JUMPI PUSH0 DUP1 REVERT JUMPDEST POP PUSH1 0x4 CALLDATASIZE LT PUSH2 0x60 JUMPI PUSH0 CALLDATALOAD PUSH1 0xE0 SHR DUP1 PUSH4 0x5CFE3420 EQ PUSH2 0x64 JUMPI DUP1 PUSH4 0x6BCEA8B0 EQ PUSH2 0x94 JUMPI DUP1 PUSH4 0x6C65A62F EQ PUSH2 0xC4 JUMPI DUP1 PUSH4 0x8783CF49 EQ PUSH2 0xE2 JUMPI DUP1 PUSH4 0x916D5743 EQ PUSH2 0x100 JUMPI DUP1 PUSH4 0xEC98A839 EQ PUSH2 0x11E JUMPI JUMPDEST PUSH0 DUP1 REVERT JUMPDEST PUSH2 0x7E PUSH1 0x4 DUP1 CALLDATASIZE SUB DUP2 ADD SWAP1 PUSH2 0x79 SWAP2 SWAP1 PUSH2 0x306 JUMP JUMPDEST PUSH2 0x14E JUMP JUMPDEST PUSH1 0x40 MLOAD PUSH2 0x8B SWAP2 SWAP1 PUSH2 0x34B JUMP JUMPDEST PUSH1 0x40 MLOAD DUP1 SWAP2 SUB SWAP1 RETURN JUMPDEST PUSH2 0xAE PUSH1 0x4 DUP1 CALLDATASIZE SUB DUP2 ADD SWAP1 PUSH2 0xA9 SWAP2 SWAP1 PUSH2 0x306 JUMP JUMPDEST PUSH2 0x167 JUMP JUMPDEST PUSH1 0x40 MLOAD PUSH2 0xBB SWAP2 SWAP1 PUSH2 0x34B JUMP JUMPDEST PUSH1 0x40 MLOAD DUP1 SWAP2 SUB SWAP1 RETURN JUMPDEST PUSH2 0xCC PUSH2 0x1B7 JUMP JUMPDEST PUSH1 0x40 MLOAD PUSH2 0xD9 SWAP2 SWAP1 PUSH2 0x34B JUMP JUMPDEST PUSH1 0x40 MLOAD DUP1 SWAP2 SUB SWAP1 RETURN JUMPDEST PUSH2 0xEA PUSH2 0x1FC JUMP JUMPDEST PUSH1 0x40 MLOAD PUSH2 0xF7 SWAP2 SWAP1 PUSH2 0x34B JUMP JUMPDEST PUSH1 0x40 MLOAD DUP1 SWAP2 SUB SWAP1 RETURN JUMPDEST PUSH2 0x108 PUSH2 0x223 JUMP JUMPDEST PUSH1 0x40 MLOAD PUSH2 0x115 SWAP2 SWAP1 PUSH2 0x373 JUMP JUMPDEST PUSH1 0x40 MLOAD DUP1 SWAP2 SUB SWAP1 RETURN JUMPDEST PUSH2 0x138 PUSH1 0x4 DUP1 CALLDATASIZE SUB DUP2 ADD SWAP1 PUSH2 0x133 SWAP2 SWAP1 PUSH2 0x306 JUMP JUMPDEST PUSH2 0x234 JUMP JUMPDEST PUSH1 0x40 MLOAD PUSH2 0x145 SWAP2 SWAP1 PUSH2 0x34B JUMP JUMPDEST PUSH1 0x40 MLOAD DUP1 SWAP2 SUB SWAP1 RETURN JUMPDEST PUSH0 DUP2 PUSH2 0x158 PUSH2 0x25E JUMP JUMPDEST PUSH0 ADD DUP2 SWAP1 SSTORE POP PUSH1 0x1 SWAP1 POP SWAP2 SWAP1 POP JUMP JUMPDEST PUSH0 DUP1 DUP3 PUSH2 0x172 PUSH2 0x25E JUMP JUMPDEST PUSH0 ADD SLOAD PUSH2 0x17F SWAP2 SWAP1 PUSH2 0x3B9 JUMP JUMPDEST GT ISZERO PUSH2 0x1AE JUMPI DUP2 PUSH2 0x18E PUSH2 0x25E JUMP JUMPDEST PUSH0 ADD PUSH0 DUP3 DUP3 SLOAD PUSH2 0x19E SWAP2 SWAP1 PUSH2 0x3B9 JUMP JUMPDEST SWAP3 POP POP DUP2 SWAP1 SSTORE POP PUSH1 0x1 SWAP1 POP PUSH2 0x1B2 JUMP JUMPDEST PUSH0 SWAP1 POP JUMPDEST SWAP2 SWAP1 POP JUMP JUMPDEST PUSH0 PUSH1 0x2 PUSH2 0x1C2 PUSH2 0x25E JUMP JUMPDEST PUSH0 ADD SLOAD GT ISZERO PUSH2 0x1F5 JUMPI PUSH1 0x2 PUSH2 0x1D5 PUSH2 0x25E JUMP JUMPDEST PUSH0 ADD PUSH0 DUP3 DUP3 SLOAD PUSH2 0x1E5 SWAP2 SWAP1 PUSH2 0x3B9 JUMP JUMPDEST SWAP3 POP POP DUP2 SWAP1 SSTORE POP PUSH1 0x1 SWAP1 POP PUSH2 0x1F9 JUMP JUMPDEST PUSH0 SWAP1 POP JUMPDEST SWAP1 JUMP JUMPDEST PUSH0 PUSH2 0x205 PUSH2 0x25E JUMP JUMPDEST PUSH0 ADD PUSH0 DUP2 SLOAD DUP1 SWAP3 SWAP2 SWAP1 PUSH2 0x217 SWAP1 PUSH2 0x3EC JUMP JUMPDEST SWAP2 SWAP1 POP SSTORE POP PUSH1 0x1 SWAP1 POP SWAP1 JUMP JUMPDEST PUSH0 PUSH2 0x22C PUSH2 0x25E JUMP JUMPDEST PUSH0 ADD SLOAD SWAP1 POP SWAP1 JUMP JUMPDEST PUSH0 DUP2 PUSH2 0x23E PUSH2 0x25E JUMP JUMPDEST PUSH0 ADD PUSH0 DUP3 DUP3 SLOAD PUSH2 0x24E SWAP2 SWAP1 PUSH2 0x433 JUMP JUMPDEST SWAP3 POP POP DUP2 SWAP1 SSTORE POP PUSH1 0x1 SWAP1 POP SWAP2 SWAP1 POP JUMP JUMPDEST PUSH0 PUSH2 0x2A5 PUSH2 0x2A0 PUSH1 0x40 MLOAD DUP1 PUSH1 0x40 ADD PUSH1 0x40 MSTORE DUP1 PUSH1 0x1D DUP2 MSTORE PUSH1 0x20 ADD PUSH32 0x656970323533352E4C6F6769634F6E6546616365742E636F756E746572000000 DUP2 MSTORE POP PUSH2 0x2AA JUMP JUMPDEST PUSH2 0x2C6 JUMP JUMPDEST SWAP1 POP SWAP1 JUMP JUMPDEST PUSH0 PUSH1 0x1 DUP3 MLOAD PUSH1 0x20 DUP5 ADD KECCAK256 SUB PUSH0 MSTORE PUSH1 0xFF NOT PUSH1 0x20 PUSH0 KECCAK256 AND SWAP1 POP SWAP2 SWAP1 POP JUMP JUMPDEST PUSH0 DUP2 SWAP1 POP SWAP2 SWAP1 POP JUMP JUMPDEST PUSH0 DUP1 REVERT JUMPDEST PUSH0 DUP2 SWAP1 POP SWAP2 SWAP1 POP JUMP JUMPDEST PUSH2 0x2E5 DUP2 PUSH2 0x2D3 JUMP JUMPDEST DUP2 EQ PUSH2 0x2EF JUMPI PUSH0 DUP1 REVERT JUMPDEST POP JUMP JUMPDEST PUSH0 DUP2 CALLDATALOAD SWAP1 POP PUSH2 0x300 DUP2 PUSH2 0x2DC JUMP JUMPDEST SWAP3 SWAP2 POP POP JUMP JUMPDEST PUSH0 PUSH1 0x20 DUP3 DUP5 SUB SLT ISZERO PUSH2 0x31B JUMPI PUSH2 0x31A PUSH2 0x2CF JUMP JUMPDEST JUMPDEST PUSH0 PUSH2 0x328 DUP5 DUP3 DUP6 ADD PUSH2 0x2F2 JUMP JUMPDEST SWAP2 POP POP SWAP3 SWAP2 POP POP JUMP JUMPDEST PUSH0 DUP2 ISZERO ISZERO SWAP1 POP SWAP2 SWAP1 POP JUMP JUMPDEST PUSH2 0x345 DUP2 PUSH2 0x331 JUMP JUMPDEST DUP3 MSTORE POP POP JUMP JUMPDEST PUSH0 PUSH1 0x20 DUP3 ADD SWAP1 POP PUSH2 0x35E PUSH0 DUP4 ADD DUP5 PUSH2 0x33C JUMP JUMPDEST SWAP3 SWAP2 POP POP JUMP JUMPDEST PUSH2 0x36D DUP2 PUSH2 0x2D3 JUMP JUMPDEST DUP3 MSTORE POP POP JUMP JUMPDEST PUSH0 PUSH1 0x20 DUP3 ADD SWAP1 POP PUSH2 0x386 PUSH0 DUP4 ADD DUP5 PUSH2 0x364 JUMP JUMPDEST SWAP3 SWAP2 POP POP JUMP JUMPDEST PUSH32 0x4E487B7100000000000000000000000000000000000000000000000000000000 PUSH0 MSTORE PUSH1 0x11 PUSH1 0x4 MSTORE PUSH1 0x24 PUSH0 REVERT JUMPDEST PUSH0 PUSH2 0x3C3 DUP3 PUSH2 0x2D3 JUMP JUMPDEST SWAP2 POP PUSH2 0x3CE DUP4 PUSH2 0x2D3 JUMP JUMPDEST SWAP3 POP DUP3 DUP3 SUB SWAP1 POP DUP2 DUP2 GT ISZERO PUSH2 0x3E6 JUMPI PUSH2 0x3E5 PUSH2 0x38C JUMP JUMPDEST JUMPDEST SWAP3 SWAP2 POP POP JUMP JUMPDEST PUSH0 PUSH2 0x3F6 DUP3 PUSH2 0x2D3 JUMP JUMPDEST SWAP2 POP PUSH32 0xFFFFFFFFFFFFFFFFFFFFFFFFFFFFFFFFFFFFFFFFFFFFFFFFFFFFFFFFFFFFFFFF DUP3 SUB PUSH2 0x428 JUMPI PUSH2 0x427 PUSH2 0x38C JUMP JUMPDEST JUMPDEST PUSH1 0x1 DUP3 ADD SWAP1 POP SWAP2 SWAP1 POP JUMP JUMPDEST PUSH0 PUSH2 0x43D DUP3 PUSH2 0x2D3 JUMP JUMPDEST SWAP2 POP PUSH2 0x448 DUP4 PUSH2 0x2D3 JUMP JUMPDEST SWAP3 POP DUP3 DUP3 ADD SWAP1 POP DUP1 DUP3 GT ISZERO PUSH2 0x460 JUMPI PUSH2 0x45F PUSH2 0x38C JUMP JUMPDEST JUMPDEST SWAP3 SWAP2 POP POP JUMP INVALID LOG2 PUSH5 0x6970667358 0x22 SLT KECCAK256 0xC5 0xB1 0xED 0xD9 0xAF EXTCODESIZE DUP14 GASPRICE DUP7 0x21 MLOAD 0xE0 0x25 PUSH12 0x4B08B287C168019E3A2F5610 0xD 0xB7 0xD3 TLOAD SUB 0xEB PUSH5 0x736F6C6343 STOP ADDMOD BYTE STOP CALLER "
				},
				"gasEstimates": {
					"creation": {
						"codeDepositCost": "236000",
						"executionCost": "273",
						"totalCost": "236273"
					},
					"external": {
						"decreByMyCounter(uint256)": "infinite",
						"decreMyCounter()": "infinite",
						"getMyCounter()": "2783",
						"increByMyCounter(uint256)": "infinite",
						"increMyCounter()": "25021",
						"setMyCounter(uint256)": "22976"
					}
				},
				"methodIdentifiers": {
					"decreByMyCounter(uint256)": "6bcea8b0",
					"decreMyCounter()": "6c65a62f",
					"getMyCounter()": "916d5743",
					"increByMyCounter(uint256)": "ec98a839",
					"increMyCounter()": "8783cf49",
					"setMyCounter(uint256)": "5cfe3420"
				}
			},
			"storageLayout": {
				"storage": [],
				"types": null
			},
			"userdoc": {
				"kind": "user",
				"methods": {},
				"version": 1
			}
		}
	}
}