{
	"contracts/proxy/EIP2535/LogicTwoV2Facet.sol": {
		"LogicTwoV2Facet": {
			"abi": [
				{
					"inputs": [
						{
							"internalType": "string",
							"name": "_content",
							"type": "string"
						}
					],
					"name": "afterMyCounter",
					"outputs": [
						{
							"internalType": "bool",
							"name": "",
							"type": "bool"
						}
					],
					"stateMutability": "nonpayable",
					"type": "function"
				},
				{
					"inputs": [
						{
							"internalType": "string",
							"name": "_content",
							"type": "string"
						}
					],
					"name": "beforeMyCounter",
					"outputs": [
						{
							"internalType": "bool",
							"name": "",
							"type": "bool"
						}
					],
					"stateMutability": "nonpayable",
					"type": "function"
				},
				{
					"inputs": [],
					"name": "getMyContent",
					"outputs": [
						{
							"internalType": "string",
							"name": "",
							"type": "string"
						}
					],
					"stateMutability": "view",
					"type": "function"
				},
				{
					"inputs": [
						{
							"internalType": "string",
							"name": "_content",
							"type": "string"
						}
					],
					"name": "setMyCounter",
					"outputs": [
						{
							"internalType": "bool",
							"name": "",
							"type": "bool"
						}
					],
					"stateMutability": "nonpayable",
					"type": "function"
				}
			],
			"devdoc": {
				"kind": "dev",
				"methods": {},
				"version": 1
			},
			"evm": {
				"assembly": "    /* \"contracts/proxy/EIP2535/LogicTwoV2Facet.sol\":110:831  contract LogicTwoV2Facet is LogicTwoFacet {... */\n  mstore(0x40, 0x80)\n  callvalue\n  dup1\n  iszero\n  tag_1\n  jumpi\n  0x00\n  dup1\n  revert\ntag_1:\n  pop\n  dataSize(sub_0)\n  dup1\n  dataOffset(sub_0)\n  0x00\n  codecopy\n  0x00\n  return\nstop\n\nsub_0: assembly {\n        /* \"contracts/proxy/EIP2535/LogicTwoV2Facet.sol\":110:831  contract LogicTwoV2Facet is LogicTwoFacet {... */\n      mstore(0x40, 0x80)\n      callvalue\n      dup1\n      iszero\n      tag_1\n      jumpi\n      0x00\n      dup1\n      revert\n    tag_1:\n      pop\n      jumpi(tag_2, lt(calldatasize, 0x04))\n      shr(0xe0, calldataload(0x00))\n      dup1\n      0x26cfb688\n      eq\n      tag_3\n      jumpi\n      dup1\n      0x8611ede8\n      eq\n      tag_4\n      jumpi\n      dup1\n      0xada84967\n      eq\n      tag_5\n      jumpi\n      dup1\n      0xc2dbe6f9\n      eq\n      tag_6\n      jumpi\n    tag_2:\n      0x00\n      dup1\n      revert\n        /* \"contracts/proxy/EIP2535/LogicTwoV2Facet.sol\":192:410  function beforeMyCounter(string memory _content) external returns (bool) {... */\n    tag_3:\n      tag_7\n      0x04\n      dup1\n      calldatasize\n      sub\n      dup2\n      add\n      swap1\n      tag_8\n      swap2\n      swap1\n      tag_9\n      jump\t// in\n    tag_8:\n      tag_10\n      jump\t// in\n    tag_7:\n      mload(0x40)\n      tag_11\n      swap2\n      swap1\n      tag_12\n      jump\t// in\n    tag_11:\n      mload(0x40)\n      dup1\n      swap2\n      sub\n      swap1\n      return\n        /* \"contracts/proxy/EIP2535/LogicTwoFacet.sol\":452:594  function setMyCounter(string memory _content) external returns (bool) {... */\n    tag_4:\n      tag_13\n      0x04\n      dup1\n      calldatasize\n      sub\n      dup2\n      add\n      swap1\n      tag_14\n      swap2\n      swap1\n      tag_9\n      jump\t// in\n    tag_14:\n      tag_15\n      jump\t// in\n    tag_13:\n      mload(0x40)\n      tag_16\n      swap2\n      swap1\n      tag_12\n      jump\t// in\n    tag_16:\n      mload(0x40)\n      dup1\n      swap2\n      sub\n      swap1\n      return\n        /* \"contracts/proxy/EIP2535/LogicTwoFacet.sol\":338:447  function getMyContent() external view returns (string memory) {... */\n    tag_5:\n      tag_17\n      tag_18\n      jump\t// in\n    tag_17:\n      mload(0x40)\n      tag_19\n      swap2\n      swap1\n      tag_20\n      jump\t// in\n    tag_19:\n      mload(0x40)\n      dup1\n      swap2\n      sub\n      swap1\n      return\n        /* \"contracts/proxy/EIP2535/LogicTwoV2Facet.sol\":448:665  function afterMyCounter(string memory _content) external returns (bool) {... */\n    tag_6:\n      tag_21\n      0x04\n      dup1\n      calldatasize\n      sub\n      dup2\n      add\n      swap1\n      tag_22\n      swap2\n      swap1\n      tag_9\n      jump\t// in\n    tag_22:\n      tag_23\n      jump\t// in\n    tag_21:\n      mload(0x40)\n      tag_24\n      swap2\n      swap1\n      tag_12\n      jump\t// in\n    tag_24:\n      mload(0x40)\n      dup1\n      swap2\n      sub\n      swap1\n      return\n        /* \"contracts/proxy/EIP2535/LogicTwoV2Facet.sol\":192:410  function beforeMyCounter(string memory _content) external returns (bool) {... */\n    tag_10:\n        /* \"contracts/proxy/EIP2535/LogicTwoV2Facet.sol\":259:263  bool */\n      0x00\n        /* \"contracts/proxy/EIP2535/LogicTwoV2Facet.sol\":275:295  string memory oldVal */\n      dup1\n        /* \"contracts/proxy/EIP2535/LogicTwoV2Facet.sol\":298:315  _getContentSlot() */\n      tag_26\n        /* \"contracts/proxy/EIP2535/LogicTwoV2Facet.sol\":298:313  _getContentSlot */\n      tag_27\n        /* \"contracts/proxy/EIP2535/LogicTwoV2Facet.sol\":298:315  _getContentSlot() */\n      jump\t// in\n    tag_26:\n        /* \"contracts/proxy/EIP2535/LogicTwoV2Facet.sol\":298:321  _getContentSlot().value */\n      0x00\n      add\n        /* \"contracts/proxy/EIP2535/LogicTwoV2Facet.sol\":275:321  string memory oldVal = _getContentSlot().value */\n      dup1\n      sload\n      tag_28\n      swap1\n      tag_29\n      jump\t// in\n    tag_28:\n      dup1\n      0x1f\n      add\n      0x20\n      dup1\n      swap2\n      div\n      mul\n      0x20\n      add\n      mload(0x40)\n      swap1\n      dup2\n      add\n      0x40\n      mstore\n      dup1\n      swap3\n      swap2\n      swap1\n      dup2\n      dup2\n      mstore\n      0x20\n      add\n      dup3\n      dup1\n      sload\n      tag_30\n      swap1\n      tag_29\n      jump\t// in\n    tag_30:\n      dup1\n      iszero\n      tag_31\n      jumpi\n      dup1\n      0x1f\n      lt\n      tag_32\n      jumpi\n      0x0100\n      dup1\n      dup4\n      sload\n      div\n      mul\n      dup4\n      mstore\n      swap2\n      0x20\n      add\n      swap2\n      jump(tag_31)\n    tag_32:\n      dup3\n      add\n      swap2\n      swap1\n      0x00\n      mstore\n      keccak256(0x00, 0x20)\n      swap1\n    tag_33:\n      dup2\n      sload\n      dup2\n      mstore\n      swap1\n      0x01\n      add\n      swap1\n      0x20\n      add\n      dup1\n      dup4\n      gt\n      tag_33\n      jumpi\n      dup3\n      swap1\n      sub\n      0x1f\n      and\n      dup3\n      add\n      swap2\n    tag_31:\n      pop\n      pop\n      pop\n      pop\n      pop\n      swap1\n      pop\n        /* \"contracts/proxy/EIP2535/LogicTwoV2Facet.sol\":357:382  _concat(_content, oldVal) */\n      tag_34\n        /* \"contracts/proxy/EIP2535/LogicTwoV2Facet.sol\":365:373  _content */\n      dup4\n        /* \"contracts/proxy/EIP2535/LogicTwoV2Facet.sol\":375:381  oldVal */\n      dup3\n        /* \"contracts/proxy/EIP2535/LogicTwoV2Facet.sol\":357:364  _concat */\n      tag_35\n        /* \"contracts/proxy/EIP2535/LogicTwoV2Facet.sol\":357:382  _concat(_content, oldVal) */\n      jump\t// in\n    tag_34:\n        /* \"contracts/proxy/EIP2535/LogicTwoV2Facet.sol\":331:348  _getContentSlot() */\n      tag_36\n        /* \"contracts/proxy/EIP2535/LogicTwoV2Facet.sol\":331:346  _getContentSlot */\n      tag_27\n        /* \"contracts/proxy/EIP2535/LogicTwoV2Facet.sol\":331:348  _getContentSlot() */\n      jump\t// in\n    tag_36:\n        /* \"contracts/proxy/EIP2535/LogicTwoV2Facet.sol\":331:354  _getContentSlot().value */\n      0x00\n      add\n        /* \"contracts/proxy/EIP2535/LogicTwoV2Facet.sol\":331:382  _getContentSlot().value = _concat(_content, oldVal) */\n      swap1\n      dup2\n      tag_37\n      swap2\n      swap1\n      tag_38\n      jump\t// in\n    tag_37:\n      pop\n        /* \"contracts/proxy/EIP2535/LogicTwoV2Facet.sol\":399:403  true */\n      0x01\n        /* \"contracts/proxy/EIP2535/LogicTwoV2Facet.sol\":392:403  return true */\n      swap2\n      pop\n      pop\n        /* \"contracts/proxy/EIP2535/LogicTwoV2Facet.sol\":192:410  function beforeMyCounter(string memory _content) external returns (bool) {... */\n      swap2\n      swap1\n      pop\n      jump\t// out\n        /* \"contracts/proxy/EIP2535/LogicTwoFacet.sol\":452:594  function setMyCounter(string memory _content) external returns (bool) {... */\n    tag_15:\n        /* \"contracts/proxy/EIP2535/LogicTwoFacet.sol\":516:520  bool */\n      0x00\n        /* \"contracts/proxy/EIP2535/LogicTwoFacet.sol\":558:566  _content */\n      dup2\n        /* \"contracts/proxy/EIP2535/LogicTwoFacet.sol\":532:549  _getContentSlot() */\n      tag_40\n        /* \"contracts/proxy/EIP2535/LogicTwoFacet.sol\":532:547  _getContentSlot */\n      tag_27\n        /* \"contracts/proxy/EIP2535/LogicTwoFacet.sol\":532:549  _getContentSlot() */\n      jump\t// in\n    tag_40:\n        /* \"contracts/proxy/EIP2535/LogicTwoFacet.sol\":532:555  _getContentSlot().value */\n      0x00\n      add\n        /* \"contracts/proxy/EIP2535/LogicTwoFacet.sol\":532:566  _getContentSlot().value = _content */\n      swap1\n      dup2\n      tag_41\n      swap2\n      swap1\n      tag_38\n      jump\t// in\n    tag_41:\n      pop\n        /* \"contracts/proxy/EIP2535/LogicTwoFacet.sol\":583:587  true */\n      0x01\n        /* \"contracts/proxy/EIP2535/LogicTwoFacet.sol\":576:587  return true */\n      swap1\n      pop\n        /* \"contracts/proxy/EIP2535/LogicTwoFacet.sol\":452:594  function setMyCounter(string memory _content) external returns (bool) {... */\n      swap2\n      swap1\n      pop\n      jump\t// out\n        /* \"contracts/proxy/EIP2535/LogicTwoFacet.sol\":338:447  function getMyContent() external view returns (string memory) {... */\n    tag_18:\n        /* \"contracts/proxy/EIP2535/LogicTwoFacet.sol\":385:398  string memory */\n      0x60\n        /* \"contracts/proxy/EIP2535/LogicTwoFacet.sol\":417:434  _getContentSlot() */\n      tag_43\n        /* \"contracts/proxy/EIP2535/LogicTwoFacet.sol\":417:432  _getContentSlot */\n      tag_27\n        /* \"contracts/proxy/EIP2535/LogicTwoFacet.sol\":417:434  _getContentSlot() */\n      jump\t// in\n    tag_43:\n        /* \"contracts/proxy/EIP2535/LogicTwoFacet.sol\":417:440  _getContentSlot().value */\n      0x00\n      add\n        /* \"contracts/proxy/EIP2535/LogicTwoFacet.sol\":410:440  return _getContentSlot().value */\n      dup1\n      sload\n      tag_44\n      swap1\n      tag_29\n      jump\t// in\n    tag_44:\n      dup1\n      0x1f\n      add\n      0x20\n      dup1\n      swap2\n      div\n      mul\n      0x20\n      add\n      mload(0x40)\n      swap1\n      dup2\n      add\n      0x40\n      mstore\n      dup1\n      swap3\n      swap2\n      swap1\n      dup2\n      dup2\n      mstore\n      0x20\n      add\n      dup3\n      dup1\n      sload\n      tag_45\n      swap1\n      tag_29\n      jump\t// in\n    tag_45:\n      dup1\n      iszero\n      tag_46\n      jumpi\n      dup1\n      0x1f\n      lt\n      tag_47\n      jumpi\n      0x0100\n      dup1\n      dup4\n      sload\n      div\n      mul\n      dup4\n      mstore\n      swap2\n      0x20\n      add\n      swap2\n      jump(tag_46)\n    tag_47:\n      dup3\n      add\n      swap2\n      swap1\n      0x00\n      mstore\n      keccak256(0x00, 0x20)\n      swap1\n    tag_48:\n      dup2\n      sload\n      dup2\n      mstore\n      swap1\n      0x01\n      add\n      swap1\n      0x20\n      add\n      dup1\n      dup4\n      gt\n      tag_48\n      jumpi\n      dup3\n      swap1\n      sub\n      0x1f\n      and\n      dup3\n      add\n      swap2\n    tag_46:\n      pop\n      pop\n      pop\n      pop\n      pop\n      swap1\n      pop\n        /* \"contracts/proxy/EIP2535/LogicTwoFacet.sol\":338:447  function getMyContent() external view returns (string memory) {... */\n      swap1\n      jump\t// out\n        /* \"contracts/proxy/EIP2535/LogicTwoV2Facet.sol\":448:665  function afterMyCounter(string memory _content) external returns (bool) {... */\n    tag_23:\n        /* \"contracts/proxy/EIP2535/LogicTwoV2Facet.sol\":514:518  bool */\n      0x00\n        /* \"contracts/proxy/EIP2535/LogicTwoV2Facet.sol\":530:550  string memory oldVal */\n      dup1\n        /* \"contracts/proxy/EIP2535/LogicTwoV2Facet.sol\":553:570  _getContentSlot() */\n      tag_50\n        /* \"contracts/proxy/EIP2535/LogicTwoV2Facet.sol\":553:568  _getContentSlot */\n      tag_27\n        /* \"contracts/proxy/EIP2535/LogicTwoV2Facet.sol\":553:570  _getContentSlot() */\n      jump\t// in\n    tag_50:\n        /* \"contracts/proxy/EIP2535/LogicTwoV2Facet.sol\":553:576  _getContentSlot().value */\n      0x00\n      add\n        /* \"contracts/proxy/EIP2535/LogicTwoV2Facet.sol\":530:576  string memory oldVal = _getContentSlot().value */\n      dup1\n      sload\n      tag_51\n      swap1\n      tag_29\n      jump\t// in\n    tag_51:\n      dup1\n      0x1f\n      add\n      0x20\n      dup1\n      swap2\n      div\n      mul\n      0x20\n      add\n      mload(0x40)\n      swap1\n      dup2\n      add\n      0x40\n      mstore\n      dup1\n      swap3\n      swap2\n      swap1\n      dup2\n      dup2\n      mstore\n      0x20\n      add\n      dup3\n      dup1\n      sload\n      tag_52\n      swap1\n      tag_29\n      jump\t// in\n    tag_52:\n      dup1\n      iszero\n      tag_53\n      jumpi\n      dup1\n      0x1f\n      lt\n      tag_54\n      jumpi\n      0x0100\n      dup1\n      dup4\n      sload\n      div\n      mul\n      dup4\n      mstore\n      swap2\n      0x20\n      add\n      swap2\n      jump(tag_53)\n    tag_54:\n      dup3\n      add\n      swap2\n      swap1\n      0x00\n      mstore\n      keccak256(0x00, 0x20)\n      swap1\n    tag_55:\n      dup2\n      sload\n      dup2\n      mstore\n      swap1\n      0x01\n      add\n      swap1\n      0x20\n      add\n      dup1\n      dup4\n      gt\n      tag_55\n      jumpi\n      dup3\n      swap1\n      sub\n      0x1f\n      and\n      dup3\n      add\n      swap2\n    tag_53:\n      pop\n      pop\n      pop\n      pop\n      pop\n      swap1\n      pop\n        /* \"contracts/proxy/EIP2535/LogicTwoV2Facet.sol\":612:637  _concat(oldVal, _content) */\n      tag_56\n        /* \"contracts/proxy/EIP2535/LogicTwoV2Facet.sol\":620:626  oldVal */\n      dup2\n        /* \"contracts/proxy/EIP2535/LogicTwoV2Facet.sol\":628:636  _content */\n      dup5\n        /* \"contracts/proxy/EIP2535/LogicTwoV2Facet.sol\":612:619  _concat */\n      tag_35\n        /* \"contracts/proxy/EIP2535/LogicTwoV2Facet.sol\":612:637  _concat(oldVal, _content) */\n      jump\t// in\n    tag_56:\n        /* \"contracts/proxy/EIP2535/LogicTwoV2Facet.sol\":586:603  _getContentSlot() */\n      tag_57\n        /* \"contracts/proxy/EIP2535/LogicTwoV2Facet.sol\":586:601  _getContentSlot */\n      tag_27\n        /* \"contracts/proxy/EIP2535/LogicTwoV2Facet.sol\":586:603  _getContentSlot() */\n      jump\t// in\n    tag_57:\n        /* \"contracts/proxy/EIP2535/LogicTwoV2Facet.sol\":586:609  _getContentSlot().value */\n      0x00\n      add\n        /* \"contracts/proxy/EIP2535/LogicTwoV2Facet.sol\":586:637  _getContentSlot().value = _concat(oldVal, _content) */\n      swap1\n      dup2\n      tag_58\n      swap2\n      swap1\n      tag_38\n      jump\t// in\n    tag_58:\n      pop\n        /* \"contracts/proxy/EIP2535/LogicTwoV2Facet.sol\":654:658  true */\n      0x01\n        /* \"contracts/proxy/EIP2535/LogicTwoV2Facet.sol\":647:658  return true */\n      swap2\n      pop\n      pop\n        /* \"contracts/proxy/EIP2535/LogicTwoV2Facet.sol\":448:665  function afterMyCounter(string memory _content) external returns (bool) {... */\n      swap2\n      swap1\n      pop\n      jump\t// out\n        /* \"contracts/proxy/EIP2535/LogicTwoFacet.sol\":599:745  function _getContentSlot() internal pure returns (StorageSlot.StringSlot storage) {... */\n    tag_27:\n        /* \"contracts/proxy/EIP2535/LogicTwoFacet.sol\":649:679  StorageSlot.StringSlot storage */\n      0x00\n        /* \"contracts/proxy/EIP2535/LogicTwoFacet.sol\":698:738  MY_CONTENT.erc7201Slot().getStringSlot() */\n      tag_60\n        /* \"contracts/proxy/EIP2535/LogicTwoFacet.sol\":698:722  MY_CONTENT.erc7201Slot() */\n      tag_61\n        /* \"contracts/proxy/EIP2535/LogicTwoFacet.sol\":698:708  MY_CONTENT */\n      mload(0x40)\n      dup1\n      0x40\n      add\n      0x40\n      mstore\n      dup1\n      0x1d\n      dup2\n      mstore\n      0x20\n      add\n      0x656970323533352e4c6f67696354776f46616365742e636f6e74656e74000000\n      dup2\n      mstore\n      pop\n        /* \"contracts/proxy/EIP2535/LogicTwoFacet.sol\":698:720  MY_CONTENT.erc7201Slot */\n      tag_62\n        /* \"contracts/proxy/EIP2535/LogicTwoFacet.sol\":698:722  MY_CONTENT.erc7201Slot() */\n      jump\t// in\n    tag_61:\n        /* \"contracts/proxy/EIP2535/LogicTwoFacet.sol\":698:736  MY_CONTENT.erc7201Slot().getStringSlot */\n      tag_63\n        /* \"contracts/proxy/EIP2535/LogicTwoFacet.sol\":698:738  MY_CONTENT.erc7201Slot().getStringSlot() */\n      jump\t// in\n    tag_60:\n        /* \"contracts/proxy/EIP2535/LogicTwoFacet.sol\":691:738  return MY_CONTENT.erc7201Slot().getStringSlot() */\n      swap1\n      pop\n        /* \"contracts/proxy/EIP2535/LogicTwoFacet.sol\":599:745  function _getContentSlot() internal pure returns (StorageSlot.StringSlot storage) {... */\n      swap1\n      jump\t// out\n        /* \"contracts/proxy/EIP2535/LogicTwoV2Facet.sol\":670:829  function _concat(string memory str1, string memory str2) private pure returns (string memory) {... */\n    tag_35:\n        /* \"contracts/proxy/EIP2535/LogicTwoV2Facet.sol\":749:762  string memory */\n      0x60\n        /* \"contracts/proxy/EIP2535/LogicTwoV2Facet.sol\":805:809  str1 */\n      dup3\n        /* \"contracts/proxy/EIP2535/LogicTwoV2Facet.sol\":816:820  str2 */\n      dup3\n        /* \"contracts/proxy/EIP2535/LogicTwoV2Facet.sol\":788:821  abi.encodePacked(str1, \",\", str2) */\n      add(0x20, mload(0x40))\n      tag_65\n      swap3\n      swap2\n      swap1\n      tag_66\n      jump\t// in\n    tag_65:\n      mload(0x40)\n      0x20\n      dup2\n      dup4\n      sub\n      sub\n      dup2\n      mstore\n      swap1\n      0x40\n      mstore\n        /* \"contracts/proxy/EIP2535/LogicTwoV2Facet.sol\":774:822  return string(abi.encodePacked(str1, \",\", str2)) */\n      swap1\n      pop\n        /* \"contracts/proxy/EIP2535/LogicTwoV2Facet.sol\":670:829  function _concat(string memory str1, string memory str2) private pure returns (string memory) {... */\n      swap3\n      swap2\n      pop\n      pop\n      jump\t// out\n        /* \"@openzeppelin/contracts/utils/SlotDerivation.sol\":1706:1983  function erc7201Slot(string memory namespace) internal pure returns (bytes32 slot) {... */\n    tag_62:\n        /* \"@openzeppelin/contracts/utils/SlotDerivation.sol\":1775:1787  bytes32 slot */\n      0x00\n        /* \"@openzeppelin/contracts/utils/SlotDerivation.sol\":1906:1907  1 */\n      0x01\n        /* \"@openzeppelin/contracts/utils/SlotDerivation.sol\":1893:1902  namespace */\n      dup3\n        /* \"@openzeppelin/contracts/utils/SlotDerivation.sol\":1887:1903  mload(namespace) */\n      mload\n        /* \"@openzeppelin/contracts/utils/SlotDerivation.sol\":1880:1884  0x20 */\n      0x20\n        /* \"@openzeppelin/contracts/utils/SlotDerivation.sol\":1869:1878  namespace */\n      dup5\n        /* \"@openzeppelin/contracts/utils/SlotDerivation.sol\":1865:1885  add(namespace, 0x20) */\n      add\n        /* \"@openzeppelin/contracts/utils/SlotDerivation.sol\":1855:1904  keccak256(add(namespace, 0x20), mload(namespace)) */\n      keccak256\n        /* \"@openzeppelin/contracts/utils/SlotDerivation.sol\":1851:1908  sub(keccak256(add(namespace, 0x20), mload(namespace)), 1) */\n      sub\n        /* \"@openzeppelin/contracts/utils/SlotDerivation.sol\":1845:1849  0x00 */\n      0x00\n        /* \"@openzeppelin/contracts/utils/SlotDerivation.sol\":1838:1909  mstore(0x00, sub(keccak256(add(namespace, 0x20), mload(namespace)), 1)) */\n      mstore\n        /* \"@openzeppelin/contracts/utils/SlotDerivation.sol\":1961:1965  0xff */\n      0xff\n        /* \"@openzeppelin/contracts/utils/SlotDerivation.sol\":1957:1966  not(0xff) */\n      not\n        /* \"@openzeppelin/contracts/utils/SlotDerivation.sol\":1950:1954  0x20 */\n      0x20\n        /* \"@openzeppelin/contracts/utils/SlotDerivation.sol\":1944:1948  0x00 */\n      0x00\n        /* \"@openzeppelin/contracts/utils/SlotDerivation.sol\":1934:1955  keccak256(0x00, 0x20) */\n      keccak256\n        /* \"@openzeppelin/contracts/utils/SlotDerivation.sol\":1930:1967  and(keccak256(0x00, 0x20), not(0xff)) */\n      and\n        /* \"@openzeppelin/contracts/utils/SlotDerivation.sol\":1922:1967  slot := and(keccak256(0x00, 0x20), not(0xff)) */\n      swap1\n      pop\n        /* \"@openzeppelin/contracts/utils/SlotDerivation.sol\":1706:1983  function erc7201Slot(string memory namespace) internal pure returns (bytes32 slot) {... */\n      swap2\n      swap1\n      pop\n      jump\t// out\n        /* \"@openzeppelin/contracts/utils/StorageSlot.sol\":3195:3356  function getStringSlot(bytes32 slot) internal pure returns (StringSlot storage r) {... */\n    tag_63:\n        /* \"@openzeppelin/contracts/utils/StorageSlot.sol\":3255:3275  StringSlot storage r */\n      0x00\n        /* \"@openzeppelin/contracts/utils/StorageSlot.sol\":3336:3340  slot */\n      dup2\n        /* \"@openzeppelin/contracts/utils/StorageSlot.sol\":3326:3340  r.slot := slot */\n      swap1\n      pop\n        /* \"@openzeppelin/contracts/utils/StorageSlot.sol\":3195:3356  function getStringSlot(bytes32 slot) internal pure returns (StringSlot storage r) {... */\n      swap2\n      swap1\n      pop\n      jump\t// out\n        /* \"#utility.yul\":7:82   */\n    tag_69:\n        /* \"#utility.yul\":40:46   */\n      0x00\n        /* \"#utility.yul\":73:75   */\n      0x40\n        /* \"#utility.yul\":67:76   */\n      mload\n        /* \"#utility.yul\":57:76   */\n      swap1\n      pop\n        /* \"#utility.yul\":7:82   */\n      swap1\n      jump\t// out\n        /* \"#utility.yul\":88:205   */\n    tag_70:\n        /* \"#utility.yul\":197:198   */\n      0x00\n        /* \"#utility.yul\":194:195   */\n      dup1\n        /* \"#utility.yul\":187:199   */\n      revert\n        /* \"#utility.yul\":211:328   */\n    tag_71:\n        /* \"#utility.yul\":320:321   */\n      0x00\n        /* \"#utility.yul\":317:318   */\n      dup1\n        /* \"#utility.yul\":310:322   */\n      revert\n        /* \"#utility.yul\":334:451   */\n    tag_72:\n        /* \"#utility.yul\":443:444   */\n      0x00\n        /* \"#utility.yul\":440:441   */\n      dup1\n        /* \"#utility.yul\":433:445   */\n      revert\n        /* \"#utility.yul\":457:574   */\n    tag_73:\n        /* \"#utility.yul\":566:567   */\n      0x00\n        /* \"#utility.yul\":563:564   */\n      dup1\n        /* \"#utility.yul\":556:568   */\n      revert\n        /* \"#utility.yul\":580:682   */\n    tag_74:\n        /* \"#utility.yul\":621:627   */\n      0x00\n        /* \"#utility.yul\":672:674   */\n      0x1f\n        /* \"#utility.yul\":668:675   */\n      not\n        /* \"#utility.yul\":663:665   */\n      0x1f\n        /* \"#utility.yul\":656:661   */\n      dup4\n        /* \"#utility.yul\":652:666   */\n      add\n        /* \"#utility.yul\":648:676   */\n      and\n        /* \"#utility.yul\":638:676   */\n      swap1\n      pop\n        /* \"#utility.yul\":580:682   */\n      swap2\n      swap1\n      pop\n      jump\t// out\n        /* \"#utility.yul\":688:868   */\n    tag_75:\n        /* \"#utility.yul\":736:813   */\n      0x4e487b7100000000000000000000000000000000000000000000000000000000\n        /* \"#utility.yul\":733:734   */\n      0x00\n        /* \"#utility.yul\":726:814   */\n      mstore\n        /* \"#utility.yul\":833:837   */\n      0x41\n        /* \"#utility.yul\":830:831   */\n      0x04\n        /* \"#utility.yul\":823:838   */\n      mstore\n        /* \"#utility.yul\":857:861   */\n      0x24\n        /* \"#utility.yul\":854:855   */\n      0x00\n        /* \"#utility.yul\":847:862   */\n      revert\n        /* \"#utility.yul\":874:1155   */\n    tag_76:\n        /* \"#utility.yul\":957:984   */\n      tag_118\n        /* \"#utility.yul\":979:983   */\n      dup3\n        /* \"#utility.yul\":957:984   */\n      tag_74\n      jump\t// in\n    tag_118:\n        /* \"#utility.yul\":949:955   */\n      dup2\n        /* \"#utility.yul\":945:985   */\n      add\n        /* \"#utility.yul\":1087:1093   */\n      dup2\n        /* \"#utility.yul\":1075:1085   */\n      dup2\n        /* \"#utility.yul\":1072:1094   */\n      lt\n        /* \"#utility.yul\":1051:1069   */\n      0xffffffffffffffff\n        /* \"#utility.yul\":1039:1049   */\n      dup3\n        /* \"#utility.yul\":1036:1070   */\n      gt\n        /* \"#utility.yul\":1033:1095   */\n      or\n        /* \"#utility.yul\":1030:1118   */\n      iszero\n      tag_119\n      jumpi\n        /* \"#utility.yul\":1098:1116   */\n      tag_120\n      tag_75\n      jump\t// in\n    tag_120:\n        /* \"#utility.yul\":1030:1118   */\n    tag_119:\n        /* \"#utility.yul\":1138:1148   */\n      dup1\n        /* \"#utility.yul\":1134:1136   */\n      0x40\n        /* \"#utility.yul\":1127:1149   */\n      mstore\n        /* \"#utility.yul\":917:1155   */\n      pop\n        /* \"#utility.yul\":874:1155   */\n      pop\n      pop\n      jump\t// out\n        /* \"#utility.yul\":1161:1290   */\n    tag_77:\n        /* \"#utility.yul\":1195:1201   */\n      0x00\n        /* \"#utility.yul\":1222:1242   */\n      tag_122\n      tag_69\n      jump\t// in\n    tag_122:\n        /* \"#utility.yul\":1212:1242   */\n      swap1\n      pop\n        /* \"#utility.yul\":1251:1284   */\n      tag_123\n        /* \"#utility.yul\":1279:1283   */\n      dup3\n        /* \"#utility.yul\":1271:1277   */\n      dup3\n        /* \"#utility.yul\":1251:1284   */\n      tag_76\n      jump\t// in\n    tag_123:\n        /* \"#utility.yul\":1161:1290   */\n      swap2\n      swap1\n      pop\n      jump\t// out\n        /* \"#utility.yul\":1296:1604   */\n    tag_78:\n        /* \"#utility.yul\":1358:1362   */\n      0x00\n        /* \"#utility.yul\":1448:1466   */\n      0xffffffffffffffff\n        /* \"#utility.yul\":1440:1446   */\n      dup3\n        /* \"#utility.yul\":1437:1467   */\n      gt\n        /* \"#utility.yul\":1434:1490   */\n      iszero\n      tag_125\n      jumpi\n        /* \"#utility.yul\":1470:1488   */\n      tag_126\n      tag_75\n      jump\t// in\n    tag_126:\n        /* \"#utility.yul\":1434:1490   */\n    tag_125:\n        /* \"#utility.yul\":1508:1537   */\n      tag_127\n        /* \"#utility.yul\":1530:1536   */\n      dup3\n        /* \"#utility.yul\":1508:1537   */\n      tag_74\n      jump\t// in\n    tag_127:\n        /* \"#utility.yul\":1500:1537   */\n      swap1\n      pop\n        /* \"#utility.yul\":1592:1596   */\n      0x20\n        /* \"#utility.yul\":1586:1590   */\n      dup2\n        /* \"#utility.yul\":1582:1597   */\n      add\n        /* \"#utility.yul\":1574:1597   */\n      swap1\n      pop\n        /* \"#utility.yul\":1296:1604   */\n      swap2\n      swap1\n      pop\n      jump\t// out\n        /* \"#utility.yul\":1610:1758   */\n    tag_79:\n        /* \"#utility.yul\":1708:1714   */\n      dup3\n        /* \"#utility.yul\":1703:1706   */\n      dup2\n        /* \"#utility.yul\":1698:1701   */\n      dup4\n        /* \"#utility.yul\":1685:1715   */\n      calldatacopy\n        /* \"#utility.yul\":1749:1750   */\n      0x00\n        /* \"#utility.yul\":1740:1746   */\n      dup4\n        /* \"#utility.yul\":1735:1738   */\n      dup4\n        /* \"#utility.yul\":1731:1747   */\n      add\n        /* \"#utility.yul\":1724:1751   */\n      mstore\n        /* \"#utility.yul\":1610:1758   */\n      pop\n      pop\n      pop\n      jump\t// out\n        /* \"#utility.yul\":1764:2189   */\n    tag_80:\n        /* \"#utility.yul\":1842:1847   */\n      0x00\n        /* \"#utility.yul\":1867:1933   */\n      tag_130\n        /* \"#utility.yul\":1883:1932   */\n      tag_131\n        /* \"#utility.yul\":1925:1931   */\n      dup5\n        /* \"#utility.yul\":1883:1932   */\n      tag_78\n      jump\t// in\n    tag_131:\n        /* \"#utility.yul\":1867:1933   */\n      tag_77\n      jump\t// in\n    tag_130:\n        /* \"#utility.yul\":1858:1933   */\n      swap1\n      pop\n        /* \"#utility.yul\":1956:1962   */\n      dup3\n        /* \"#utility.yul\":1949:1954   */\n      dup2\n        /* \"#utility.yul\":1942:1963   */\n      mstore\n        /* \"#utility.yul\":1994:1998   */\n      0x20\n        /* \"#utility.yul\":1987:1992   */\n      dup2\n        /* \"#utility.yul\":1983:1999   */\n      add\n        /* \"#utility.yul\":2032:2035   */\n      dup5\n        /* \"#utility.yul\":2023:2029   */\n      dup5\n        /* \"#utility.yul\":2018:2021   */\n      dup5\n        /* \"#utility.yul\":2014:2030   */\n      add\n        /* \"#utility.yul\":2011:2036   */\n      gt\n        /* \"#utility.yul\":2008:2120   */\n      iszero\n      tag_132\n      jumpi\n        /* \"#utility.yul\":2039:2118   */\n      tag_133\n      tag_73\n      jump\t// in\n    tag_133:\n        /* \"#utility.yul\":2008:2120   */\n    tag_132:\n        /* \"#utility.yul\":2129:2183   */\n      tag_134\n        /* \"#utility.yul\":2176:2182   */\n      dup5\n        /* \"#utility.yul\":2171:2174   */\n      dup3\n        /* \"#utility.yul\":2166:2169   */\n      dup6\n        /* \"#utility.yul\":2129:2183   */\n      tag_79\n      jump\t// in\n    tag_134:\n        /* \"#utility.yul\":1848:2189   */\n      pop\n        /* \"#utility.yul\":1764:2189   */\n      swap4\n      swap3\n      pop\n      pop\n      pop\n      jump\t// out\n        /* \"#utility.yul\":2209:2549   */\n    tag_81:\n        /* \"#utility.yul\":2265:2270   */\n      0x00\n        /* \"#utility.yul\":2314:2317   */\n      dup3\n        /* \"#utility.yul\":2307:2311   */\n      0x1f\n        /* \"#utility.yul\":2299:2305   */\n      dup4\n        /* \"#utility.yul\":2295:2312   */\n      add\n        /* \"#utility.yul\":2291:2318   */\n      slt\n        /* \"#utility.yul\":2281:2403   */\n      tag_136\n      jumpi\n        /* \"#utility.yul\":2322:2401   */\n      tag_137\n      tag_72\n      jump\t// in\n    tag_137:\n        /* \"#utility.yul\":2281:2403   */\n    tag_136:\n        /* \"#utility.yul\":2439:2445   */\n      dup2\n        /* \"#utility.yul\":2426:2446   */\n      calldataload\n        /* \"#utility.yul\":2464:2543   */\n      tag_138\n        /* \"#utility.yul\":2539:2542   */\n      dup5\n        /* \"#utility.yul\":2531:2537   */\n      dup3\n        /* \"#utility.yul\":2524:2528   */\n      0x20\n        /* \"#utility.yul\":2516:2522   */\n      dup7\n        /* \"#utility.yul\":2512:2529   */\n      add\n        /* \"#utility.yul\":2464:2543   */\n      tag_80\n      jump\t// in\n    tag_138:\n        /* \"#utility.yul\":2455:2543   */\n      swap2\n      pop\n        /* \"#utility.yul\":2271:2549   */\n      pop\n        /* \"#utility.yul\":2209:2549   */\n      swap3\n      swap2\n      pop\n      pop\n      jump\t// out\n        /* \"#utility.yul\":2555:3064   */\n    tag_9:\n        /* \"#utility.yul\":2624:2630   */\n      0x00\n        /* \"#utility.yul\":2673:2675   */\n      0x20\n        /* \"#utility.yul\":2661:2670   */\n      dup3\n        /* \"#utility.yul\":2652:2659   */\n      dup5\n        /* \"#utility.yul\":2648:2671   */\n      sub\n        /* \"#utility.yul\":2644:2676   */\n      slt\n        /* \"#utility.yul\":2641:2760   */\n      iszero\n      tag_140\n      jumpi\n        /* \"#utility.yul\":2679:2758   */\n      tag_141\n      tag_70\n      jump\t// in\n    tag_141:\n        /* \"#utility.yul\":2641:2760   */\n    tag_140:\n        /* \"#utility.yul\":2827:2828   */\n      0x00\n        /* \"#utility.yul\":2816:2825   */\n      dup3\n        /* \"#utility.yul\":2812:2829   */\n      add\n        /* \"#utility.yul\":2799:2830   */\n      calldataload\n        /* \"#utility.yul\":2857:2875   */\n      0xffffffffffffffff\n        /* \"#utility.yul\":2849:2855   */\n      dup2\n        /* \"#utility.yul\":2846:2876   */\n      gt\n        /* \"#utility.yul\":2843:2960   */\n      iszero\n      tag_142\n      jumpi\n        /* \"#utility.yul\":2879:2958   */\n      tag_143\n      tag_71\n      jump\t// in\n    tag_143:\n        /* \"#utility.yul\":2843:2960   */\n    tag_142:\n        /* \"#utility.yul\":2984:3047   */\n      tag_144\n        /* \"#utility.yul\":3039:3046   */\n      dup5\n        /* \"#utility.yul\":3030:3036   */\n      dup3\n        /* \"#utility.yul\":3019:3028   */\n      dup6\n        /* \"#utility.yul\":3015:3037   */\n      add\n        /* \"#utility.yul\":2984:3047   */\n      tag_81\n      jump\t// in\n    tag_144:\n        /* \"#utility.yul\":2974:3047   */\n      swap2\n      pop\n        /* \"#utility.yul\":2770:3057   */\n      pop\n        /* \"#utility.yul\":2555:3064   */\n      swap3\n      swap2\n      pop\n      pop\n      jump\t// out\n        /* \"#utility.yul\":3070:3160   */\n    tag_82:\n        /* \"#utility.yul\":3104:3111   */\n      0x00\n        /* \"#utility.yul\":3147:3152   */\n      dup2\n        /* \"#utility.yul\":3140:3153   */\n      iszero\n        /* \"#utility.yul\":3133:3154   */\n      iszero\n        /* \"#utility.yul\":3122:3154   */\n      swap1\n      pop\n        /* \"#utility.yul\":3070:3160   */\n      swap2\n      swap1\n      pop\n      jump\t// out\n        /* \"#utility.yul\":3166:3275   */\n    tag_83:\n        /* \"#utility.yul\":3247:3268   */\n      tag_147\n        /* \"#utility.yul\":3262:3267   */\n      dup2\n        /* \"#utility.yul\":3247:3268   */\n      tag_82\n      jump\t// in\n    tag_147:\n        /* \"#utility.yul\":3242:3245   */\n      dup3\n        /* \"#utility.yul\":3235:3269   */\n      mstore\n        /* \"#utility.yul\":3166:3275   */\n      pop\n      pop\n      jump\t// out\n        /* \"#utility.yul\":3281:3491   */\n    tag_12:\n        /* \"#utility.yul\":3368:3372   */\n      0x00\n        /* \"#utility.yul\":3406:3408   */\n      0x20\n        /* \"#utility.yul\":3395:3404   */\n      dup3\n        /* \"#utility.yul\":3391:3409   */\n      add\n        /* \"#utility.yul\":3383:3409   */\n      swap1\n      pop\n        /* \"#utility.yul\":3419:3484   */\n      tag_149\n        /* \"#utility.yul\":3481:3482   */\n      0x00\n        /* \"#utility.yul\":3470:3479   */\n      dup4\n        /* \"#utility.yul\":3466:3483   */\n      add\n        /* \"#utility.yul\":3457:3463   */\n      dup5\n        /* \"#utility.yul\":3419:3484   */\n      tag_83\n      jump\t// in\n    tag_149:\n        /* \"#utility.yul\":3281:3491   */\n      swap3\n      swap2\n      pop\n      pop\n      jump\t// out\n        /* \"#utility.yul\":3497:3596   */\n    tag_84:\n        /* \"#utility.yul\":3549:3555   */\n      0x00\n        /* \"#utility.yul\":3583:3588   */\n      dup2\n        /* \"#utility.yul\":3577:3589   */\n      mload\n        /* \"#utility.yul\":3567:3589   */\n      swap1\n      pop\n        /* \"#utility.yul\":3497:3596   */\n      swap2\n      swap1\n      pop\n      jump\t// out\n        /* \"#utility.yul\":3602:3771   */\n    tag_85:\n        /* \"#utility.yul\":3686:3697   */\n      0x00\n        /* \"#utility.yul\":3720:3726   */\n      dup3\n        /* \"#utility.yul\":3715:3718   */\n      dup3\n        /* \"#utility.yul\":3708:3727   */\n      mstore\n        /* \"#utility.yul\":3760:3764   */\n      0x20\n        /* \"#utility.yul\":3755:3758   */\n      dup3\n        /* \"#utility.yul\":3751:3765   */\n      add\n        /* \"#utility.yul\":3736:3765   */\n      swap1\n      pop\n        /* \"#utility.yul\":3602:3771   */\n      swap3\n      swap2\n      pop\n      pop\n      jump\t// out\n        /* \"#utility.yul\":3777:3916   */\n    tag_86:\n        /* \"#utility.yul\":3866:3872   */\n      dup3\n        /* \"#utility.yul\":3861:3864   */\n      dup2\n        /* \"#utility.yul\":3856:3859   */\n      dup4\n        /* \"#utility.yul\":3850:3873   */\n      mcopy\n        /* \"#utility.yul\":3907:3908   */\n      0x00\n        /* \"#utility.yul\":3898:3904   */\n      dup4\n        /* \"#utility.yul\":3893:3896   */\n      dup4\n        /* \"#utility.yul\":3889:3905   */\n      add\n        /* \"#utility.yul\":3882:3909   */\n      mstore\n        /* \"#utility.yul\":3777:3916   */\n      pop\n      pop\n      pop\n      jump\t// out\n        /* \"#utility.yul\":3922:4299   */\n    tag_87:\n        /* \"#utility.yul\":4010:4013   */\n      0x00\n        /* \"#utility.yul\":4038:4077   */\n      tag_154\n        /* \"#utility.yul\":4071:4076   */\n      dup3\n        /* \"#utility.yul\":4038:4077   */\n      tag_84\n      jump\t// in\n    tag_154:\n        /* \"#utility.yul\":4093:4164   */\n      tag_155\n        /* \"#utility.yul\":4157:4163   */\n      dup2\n        /* \"#utility.yul\":4152:4155   */\n      dup6\n        /* \"#utility.yul\":4093:4164   */\n      tag_85\n      jump\t// in\n    tag_155:\n        /* \"#utility.yul\":4086:4164   */\n      swap4\n      pop\n        /* \"#utility.yul\":4173:4238   */\n      tag_156\n        /* \"#utility.yul\":4231:4237   */\n      dup2\n        /* \"#utility.yul\":4226:4229   */\n      dup6\n        /* \"#utility.yul\":4219:4223   */\n      0x20\n        /* \"#utility.yul\":4212:4217   */\n      dup7\n        /* \"#utility.yul\":4208:4224   */\n      add\n        /* \"#utility.yul\":4173:4238   */\n      tag_86\n      jump\t// in\n    tag_156:\n        /* \"#utility.yul\":4263:4292   */\n      tag_157\n        /* \"#utility.yul\":4285:4291   */\n      dup2\n        /* \"#utility.yul\":4263:4292   */\n      tag_74\n      jump\t// in\n    tag_157:\n        /* \"#utility.yul\":4258:4261   */\n      dup5\n        /* \"#utility.yul\":4254:4293   */\n      add\n        /* \"#utility.yul\":4247:4293   */\n      swap2\n      pop\n        /* \"#utility.yul\":4014:4299   */\n      pop\n        /* \"#utility.yul\":3922:4299   */\n      swap3\n      swap2\n      pop\n      pop\n      jump\t// out\n        /* \"#utility.yul\":4305:4618   */\n    tag_20:\n        /* \"#utility.yul\":4418:4422   */\n      0x00\n        /* \"#utility.yul\":4456:4458   */\n      0x20\n        /* \"#utility.yul\":4445:4454   */\n      dup3\n        /* \"#utility.yul\":4441:4459   */\n      add\n        /* \"#utility.yul\":4433:4459   */\n      swap1\n      pop\n        /* \"#utility.yul\":4505:4514   */\n      dup2\n        /* \"#utility.yul\":4499:4503   */\n      dup2\n        /* \"#utility.yul\":4495:4515   */\n      sub\n        /* \"#utility.yul\":4491:4492   */\n      0x00\n        /* \"#utility.yul\":4480:4489   */\n      dup4\n        /* \"#utility.yul\":4476:4493   */\n      add\n        /* \"#utility.yul\":4469:4516   */\n      mstore\n        /* \"#utility.yul\":4533:4611   */\n      tag_159\n        /* \"#utility.yul\":4606:4610   */\n      dup2\n        /* \"#utility.yul\":4597:4603   */\n      dup5\n        /* \"#utility.yul\":4533:4611   */\n      tag_87\n      jump\t// in\n    tag_159:\n        /* \"#utility.yul\":4525:4611   */\n      swap1\n      pop\n        /* \"#utility.yul\":4305:4618   */\n      swap3\n      swap2\n      pop\n      pop\n      jump\t// out\n        /* \"#utility.yul\":4624:4804   */\n    tag_88:\n        /* \"#utility.yul\":4672:4749   */\n      0x4e487b7100000000000000000000000000000000000000000000000000000000\n        /* \"#utility.yul\":4669:4670   */\n      0x00\n        /* \"#utility.yul\":4662:4750   */\n      mstore\n        /* \"#utility.yul\":4769:4773   */\n      0x22\n        /* \"#utility.yul\":4766:4767   */\n      0x04\n        /* \"#utility.yul\":4759:4774   */\n      mstore\n        /* \"#utility.yul\":4793:4797   */\n      0x24\n        /* \"#utility.yul\":4790:4791   */\n      0x00\n        /* \"#utility.yul\":4783:4798   */\n      revert\n        /* \"#utility.yul\":4810:5130   */\n    tag_29:\n        /* \"#utility.yul\":4854:4860   */\n      0x00\n        /* \"#utility.yul\":4891:4892   */\n      0x02\n        /* \"#utility.yul\":4885:4889   */\n      dup3\n        /* \"#utility.yul\":4881:4893   */\n      div\n        /* \"#utility.yul\":4871:4893   */\n      swap1\n      pop\n        /* \"#utility.yul\":4938:4939   */\n      0x01\n        /* \"#utility.yul\":4932:4936   */\n      dup3\n        /* \"#utility.yul\":4928:4940   */\n      and\n        /* \"#utility.yul\":4959:4977   */\n      dup1\n        /* \"#utility.yul\":4949:5030   */\n      tag_162\n      jumpi\n        /* \"#utility.yul\":5015:5019   */\n      0x7f\n        /* \"#utility.yul\":5007:5013   */\n      dup3\n        /* \"#utility.yul\":5003:5020   */\n      and\n        /* \"#utility.yul\":4993:5020   */\n      swap2\n      pop\n        /* \"#utility.yul\":4949:5030   */\n    tag_162:\n        /* \"#utility.yul\":5077:5079   */\n      0x20\n        /* \"#utility.yul\":5069:5075   */\n      dup3\n        /* \"#utility.yul\":5066:5080   */\n      lt\n        /* \"#utility.yul\":5046:5064   */\n      dup2\n        /* \"#utility.yul\":5043:5081   */\n      sub\n        /* \"#utility.yul\":5040:5124   */\n      tag_163\n      jumpi\n        /* \"#utility.yul\":5096:5114   */\n      tag_164\n      tag_88\n      jump\t// in\n    tag_164:\n        /* \"#utility.yul\":5040:5124   */\n    tag_163:\n        /* \"#utility.yul\":4861:5130   */\n      pop\n        /* \"#utility.yul\":4810:5130   */\n      swap2\n      swap1\n      pop\n      jump\t// out\n        /* \"#utility.yul\":5136:5277   */\n    tag_89:\n        /* \"#utility.yul\":5185:5189   */\n      0x00\n        /* \"#utility.yul\":5208:5211   */\n      dup2\n        /* \"#utility.yul\":5200:5211   */\n      swap1\n      pop\n        /* \"#utility.yul\":5231:5234   */\n      dup2\n        /* \"#utility.yul\":5228:5229   */\n      0x00\n        /* \"#utility.yul\":5221:5235   */\n      mstore\n        /* \"#utility.yul\":5265:5269   */\n      0x20\n        /* \"#utility.yul\":5262:5263   */\n      0x00\n        /* \"#utility.yul\":5252:5270   */\n      keccak256\n        /* \"#utility.yul\":5244:5270   */\n      swap1\n      pop\n        /* \"#utility.yul\":5136:5277   */\n      swap2\n      swap1\n      pop\n      jump\t// out\n        /* \"#utility.yul\":5283:5376   */\n    tag_90:\n        /* \"#utility.yul\":5320:5326   */\n      0x00\n        /* \"#utility.yul\":5367:5369   */\n      0x20\n        /* \"#utility.yul\":5362:5364   */\n      0x1f\n        /* \"#utility.yul\":5355:5360   */\n      dup4\n        /* \"#utility.yul\":5351:5365   */\n      add\n        /* \"#utility.yul\":5347:5370   */\n      div\n        /* \"#utility.yul\":5337:5370   */\n      swap1\n      pop\n        /* \"#utility.yul\":5283:5376   */\n      swap2\n      swap1\n      pop\n      jump\t// out\n        /* \"#utility.yul\":5382:5489   */\n    tag_91:\n        /* \"#utility.yul\":5426:5434   */\n      0x00\n        /* \"#utility.yul\":5476:5481   */\n      dup3\n        /* \"#utility.yul\":5470:5474   */\n      dup3\n        /* \"#utility.yul\":5466:5482   */\n      shl\n        /* \"#utility.yul\":5445:5482   */\n      swap1\n      pop\n        /* \"#utility.yul\":5382:5489   */\n      swap3\n      swap2\n      pop\n      pop\n      jump\t// out\n        /* \"#utility.yul\":5495:5888   */\n    tag_92:\n        /* \"#utility.yul\":5564:5570   */\n      0x00\n        /* \"#utility.yul\":5614:5615   */\n      0x08\n        /* \"#utility.yul\":5602:5612   */\n      dup4\n        /* \"#utility.yul\":5598:5616   */\n      mul\n        /* \"#utility.yul\":5637:5734   */\n      tag_169\n        /* \"#utility.yul\":5667:5733   */\n      0xffffffffffffffffffffffffffffffffffffffffffffffffffffffffffffffff\n        /* \"#utility.yul\":5656:5665   */\n      dup3\n        /* \"#utility.yul\":5637:5734   */\n      tag_91\n      jump\t// in\n    tag_169:\n        /* \"#utility.yul\":5755:5794   */\n      tag_170\n        /* \"#utility.yul\":5785:5793   */\n      dup7\n        /* \"#utility.yul\":5774:5783   */\n      dup4\n        /* \"#utility.yul\":5755:5794   */\n      tag_91\n      jump\t// in\n    tag_170:\n        /* \"#utility.yul\":5743:5794   */\n      swap6\n      pop\n        /* \"#utility.yul\":5827:5831   */\n      dup1\n        /* \"#utility.yul\":5823:5832   */\n      not\n        /* \"#utility.yul\":5816:5821   */\n      dup5\n        /* \"#utility.yul\":5812:5833   */\n      and\n        /* \"#utility.yul\":5803:5833   */\n      swap4\n      pop\n        /* \"#utility.yul\":5876:5880   */\n      dup1\n        /* \"#utility.yul\":5866:5874   */\n      dup7\n        /* \"#utility.yul\":5862:5881   */\n      and\n        /* \"#utility.yul\":5855:5860   */\n      dup5\n        /* \"#utility.yul\":5852:5882   */\n      or\n        /* \"#utility.yul\":5842:5882   */\n      swap3\n      pop\n        /* \"#utility.yul\":5571:5888   */\n      pop\n      pop\n        /* \"#utility.yul\":5495:5888   */\n      swap4\n      swap3\n      pop\n      pop\n      pop\n      jump\t// out\n        /* \"#utility.yul\":5894:5971   */\n    tag_93:\n        /* \"#utility.yul\":5931:5938   */\n      0x00\n        /* \"#utility.yul\":5960:5965   */\n      dup2\n        /* \"#utility.yul\":5949:5965   */\n      swap1\n      pop\n        /* \"#utility.yul\":5894:5971   */\n      swap2\n      swap1\n      pop\n      jump\t// out\n        /* \"#utility.yul\":5977:6037   */\n    tag_94:\n        /* \"#utility.yul\":6005:6008   */\n      0x00\n        /* \"#utility.yul\":6026:6031   */\n      dup2\n        /* \"#utility.yul\":6019:6031   */\n      swap1\n      pop\n        /* \"#utility.yul\":5977:6037   */\n      swap2\n      swap1\n      pop\n      jump\t// out\n        /* \"#utility.yul\":6043:6185   */\n    tag_95:\n        /* \"#utility.yul\":6093:6102   */\n      0x00\n        /* \"#utility.yul\":6126:6179   */\n      tag_174\n        /* \"#utility.yul\":6144:6178   */\n      tag_175\n        /* \"#utility.yul\":6153:6177   */\n      tag_176\n        /* \"#utility.yul\":6171:6176   */\n      dup5\n        /* \"#utility.yul\":6153:6177   */\n      tag_93\n      jump\t// in\n    tag_176:\n        /* \"#utility.yul\":6144:6178   */\n      tag_94\n      jump\t// in\n    tag_175:\n        /* \"#utility.yul\":6126:6179   */\n      tag_93\n      jump\t// in\n    tag_174:\n        /* \"#utility.yul\":6113:6179   */\n      swap1\n      pop\n        /* \"#utility.yul\":6043:6185   */\n      swap2\n      swap1\n      pop\n      jump\t// out\n        /* \"#utility.yul\":6191:6266   */\n    tag_96:\n        /* \"#utility.yul\":6234:6237   */\n      0x00\n        /* \"#utility.yul\":6255:6260   */\n      dup2\n        /* \"#utility.yul\":6248:6260   */\n      swap1\n      pop\n        /* \"#utility.yul\":6191:6266   */\n      swap2\n      swap1\n      pop\n      jump\t// out\n        /* \"#utility.yul\":6272:6541   */\n    tag_97:\n        /* \"#utility.yul\":6382:6421   */\n      tag_179\n        /* \"#utility.yul\":6413:6420   */\n      dup4\n        /* \"#utility.yul\":6382:6421   */\n      tag_95\n      jump\t// in\n    tag_179:\n        /* \"#utility.yul\":6443:6534   */\n      tag_180\n        /* \"#utility.yul\":6492:6533   */\n      tag_181\n        /* \"#utility.yul\":6516:6532   */\n      dup3\n        /* \"#utility.yul\":6492:6533   */\n      tag_96\n      jump\t// in\n    tag_181:\n        /* \"#utility.yul\":6484:6490   */\n      dup5\n        /* \"#utility.yul\":6477:6481   */\n      dup5\n        /* \"#utility.yul\":6471:6482   */\n      sload\n        /* \"#utility.yul\":6443:6534   */\n      tag_92\n      jump\t// in\n    tag_180:\n        /* \"#utility.yul\":6437:6441   */\n      dup3\n        /* \"#utility.yul\":6430:6535   */\n      sstore\n        /* \"#utility.yul\":6348:6541   */\n      pop\n        /* \"#utility.yul\":6272:6541   */\n      pop\n      pop\n      pop\n      jump\t// out\n        /* \"#utility.yul\":6547:6620   */\n    tag_98:\n        /* \"#utility.yul\":6592:6595   */\n      0x00\n        /* \"#utility.yul\":6547:6620   */\n      swap1\n      jump\t// out\n        /* \"#utility.yul\":6626:6815   */\n    tag_99:\n        /* \"#utility.yul\":6703:6735   */\n      tag_184\n      tag_98\n      jump\t// in\n    tag_184:\n        /* \"#utility.yul\":6744:6809   */\n      tag_185\n        /* \"#utility.yul\":6802:6808   */\n      dup2\n        /* \"#utility.yul\":6794:6800   */\n      dup5\n        /* \"#utility.yul\":6788:6792   */\n      dup5\n        /* \"#utility.yul\":6744:6809   */\n      tag_97\n      jump\t// in\n    tag_185:\n        /* \"#utility.yul\":6679:6815   */\n      pop\n        /* \"#utility.yul\":6626:6815   */\n      pop\n      pop\n      jump\t// out\n        /* \"#utility.yul\":6821:7007   */\n    tag_100:\n        /* \"#utility.yul\":6881:7001   */\n    tag_187:\n        /* \"#utility.yul\":6898:6901   */\n      dup2\n        /* \"#utility.yul\":6891:6896   */\n      dup2\n        /* \"#utility.yul\":6888:6902   */\n      lt\n        /* \"#utility.yul\":6881:7001   */\n      iszero\n      tag_189\n      jumpi\n        /* \"#utility.yul\":6952:6991   */\n      tag_190\n        /* \"#utility.yul\":6989:6990   */\n      0x00\n        /* \"#utility.yul\":6982:6987   */\n      dup3\n        /* \"#utility.yul\":6952:6991   */\n      tag_99\n      jump\t// in\n    tag_190:\n        /* \"#utility.yul\":6925:6926   */\n      0x01\n        /* \"#utility.yul\":6918:6923   */\n      dup2\n        /* \"#utility.yul\":6914:6927   */\n      add\n        /* \"#utility.yul\":6905:6927   */\n      swap1\n      pop\n        /* \"#utility.yul\":6881:7001   */\n      jump(tag_187)\n    tag_189:\n        /* \"#utility.yul\":6821:7007   */\n      pop\n      pop\n      jump\t// out\n        /* \"#utility.yul\":7013:7556   */\n    tag_101:\n        /* \"#utility.yul\":7114:7116   */\n      0x1f\n        /* \"#utility.yul\":7109:7112   */\n      dup3\n        /* \"#utility.yul\":7106:7117   */\n      gt\n        /* \"#utility.yul\":7103:7549   */\n      iszero\n      tag_192\n      jumpi\n        /* \"#utility.yul\":7148:7186   */\n      tag_193\n        /* \"#utility.yul\":7180:7185   */\n      dup2\n        /* \"#utility.yul\":7148:7186   */\n      tag_89\n      jump\t// in\n    tag_193:\n        /* \"#utility.yul\":7232:7261   */\n      tag_194\n        /* \"#utility.yul\":7250:7260   */\n      dup5\n        /* \"#utility.yul\":7232:7261   */\n      tag_90\n      jump\t// in\n    tag_194:\n        /* \"#utility.yul\":7222:7230   */\n      dup2\n        /* \"#utility.yul\":7218:7262   */\n      add\n        /* \"#utility.yul\":7415:7417   */\n      0x20\n        /* \"#utility.yul\":7403:7413   */\n      dup6\n        /* \"#utility.yul\":7400:7418   */\n      lt\n        /* \"#utility.yul\":7397:7446   */\n      iszero\n      tag_195\n      jumpi\n        /* \"#utility.yul\":7436:7444   */\n      dup2\n        /* \"#utility.yul\":7421:7444   */\n      swap1\n      pop\n        /* \"#utility.yul\":7397:7446   */\n    tag_195:\n        /* \"#utility.yul\":7459:7539   */\n      tag_196\n        /* \"#utility.yul\":7515:7537   */\n      tag_197\n        /* \"#utility.yul\":7533:7536   */\n      dup6\n        /* \"#utility.yul\":7515:7537   */\n      tag_90\n      jump\t// in\n    tag_197:\n        /* \"#utility.yul\":7505:7513   */\n      dup4\n        /* \"#utility.yul\":7501:7538   */\n      add\n        /* \"#utility.yul\":7488:7499   */\n      dup3\n        /* \"#utility.yul\":7459:7539   */\n      tag_100\n      jump\t// in\n    tag_196:\n        /* \"#utility.yul\":7118:7549   */\n      pop\n      pop\n        /* \"#utility.yul\":7103:7549   */\n    tag_192:\n        /* \"#utility.yul\":7013:7556   */\n      pop\n      pop\n      pop\n      jump\t// out\n        /* \"#utility.yul\":7562:7679   */\n    tag_102:\n        /* \"#utility.yul\":7616:7624   */\n      0x00\n        /* \"#utility.yul\":7666:7671   */\n      dup3\n        /* \"#utility.yul\":7660:7664   */\n      dup3\n        /* \"#utility.yul\":7656:7672   */\n      shr\n        /* \"#utility.yul\":7635:7672   */\n      swap1\n      pop\n        /* \"#utility.yul\":7562:7679   */\n      swap3\n      swap2\n      pop\n      pop\n      jump\t// out\n        /* \"#utility.yul\":7685:7854   */\n    tag_103:\n        /* \"#utility.yul\":7729:7735   */\n      0x00\n        /* \"#utility.yul\":7762:7813   */\n      tag_200\n        /* \"#utility.yul\":7810:7811   */\n      0x00\n        /* \"#utility.yul\":7806:7812   */\n      not\n        /* \"#utility.yul\":7798:7803   */\n      dup5\n        /* \"#utility.yul\":7795:7796   */\n      0x08\n        /* \"#utility.yul\":7791:7804   */\n      mul\n        /* \"#utility.yul\":7762:7813   */\n      tag_102\n      jump\t// in\n    tag_200:\n        /* \"#utility.yul\":7758:7814   */\n      not\n        /* \"#utility.yul\":7843:7847   */\n      dup1\n        /* \"#utility.yul\":7837:7841   */\n      dup4\n        /* \"#utility.yul\":7833:7848   */\n      and\n        /* \"#utility.yul\":7823:7848   */\n      swap2\n      pop\n        /* \"#utility.yul\":7736:7854   */\n      pop\n        /* \"#utility.yul\":7685:7854   */\n      swap3\n      swap2\n      pop\n      pop\n      jump\t// out\n        /* \"#utility.yul\":7859:8154   */\n    tag_104:\n        /* \"#utility.yul\":7935:7939   */\n      0x00\n        /* \"#utility.yul\":8081:8110   */\n      tag_202\n        /* \"#utility.yul\":8106:8109   */\n      dup4\n        /* \"#utility.yul\":8100:8104   */\n      dup4\n        /* \"#utility.yul\":8081:8110   */\n      tag_103\n      jump\t// in\n    tag_202:\n        /* \"#utility.yul\":8073:8110   */\n      swap2\n      pop\n        /* \"#utility.yul\":8143:8146   */\n      dup3\n        /* \"#utility.yul\":8140:8141   */\n      0x02\n        /* \"#utility.yul\":8136:8147   */\n      mul\n        /* \"#utility.yul\":8130:8134   */\n      dup3\n        /* \"#utility.yul\":8127:8148   */\n      or\n        /* \"#utility.yul\":8119:8148   */\n      swap1\n      pop\n        /* \"#utility.yul\":7859:8154   */\n      swap3\n      swap2\n      pop\n      pop\n      jump\t// out\n        /* \"#utility.yul\":8159:9554   */\n    tag_38:\n        /* \"#utility.yul\":8276:8313   */\n      tag_204\n        /* \"#utility.yul\":8309:8312   */\n      dup3\n        /* \"#utility.yul\":8276:8313   */\n      tag_84\n      jump\t// in\n    tag_204:\n        /* \"#utility.yul\":8378:8396   */\n      0xffffffffffffffff\n        /* \"#utility.yul\":8370:8376   */\n      dup2\n        /* \"#utility.yul\":8367:8397   */\n      gt\n        /* \"#utility.yul\":8364:8420   */\n      iszero\n      tag_205\n      jumpi\n        /* \"#utility.yul\":8400:8418   */\n      tag_206\n      tag_75\n      jump\t// in\n    tag_206:\n        /* \"#utility.yul\":8364:8420   */\n    tag_205:\n        /* \"#utility.yul\":8444:8482   */\n      tag_207\n        /* \"#utility.yul\":8476:8480   */\n      dup3\n        /* \"#utility.yul\":8470:8481   */\n      sload\n        /* \"#utility.yul\":8444:8482   */\n      tag_29\n      jump\t// in\n    tag_207:\n        /* \"#utility.yul\":8529:8596   */\n      tag_208\n        /* \"#utility.yul\":8589:8595   */\n      dup3\n        /* \"#utility.yul\":8581:8587   */\n      dup3\n        /* \"#utility.yul\":8575:8579   */\n      dup6\n        /* \"#utility.yul\":8529:8596   */\n      tag_101\n      jump\t// in\n    tag_208:\n        /* \"#utility.yul\":8623:8624   */\n      0x00\n        /* \"#utility.yul\":8647:8651   */\n      0x20\n        /* \"#utility.yul\":8634:8651   */\n      swap1\n      pop\n        /* \"#utility.yul\":8679:8681   */\n      0x1f\n        /* \"#utility.yul\":8671:8677   */\n      dup4\n        /* \"#utility.yul\":8668:8682   */\n      gt\n        /* \"#utility.yul\":8696:8697   */\n      0x01\n        /* \"#utility.yul\":8691:9309   */\n      dup2\n      eq\n      tag_210\n      jumpi\n        /* \"#utility.yul\":9353:9354   */\n      0x00\n        /* \"#utility.yul\":9370:9376   */\n      dup5\n        /* \"#utility.yul\":9367:9444   */\n      iszero\n      tag_211\n      jumpi\n        /* \"#utility.yul\":9419:9428   */\n      dup3\n        /* \"#utility.yul\":9414:9417   */\n      dup8\n        /* \"#utility.yul\":9410:9429   */\n      add\n        /* \"#utility.yul\":9404:9430   */\n      mload\n        /* \"#utility.yul\":9395:9430   */\n      swap1\n      pop\n        /* \"#utility.yul\":9367:9444   */\n    tag_211:\n        /* \"#utility.yul\":9470:9537   */\n      tag_212\n        /* \"#utility.yul\":9530:9536   */\n      dup6\n        /* \"#utility.yul\":9523:9528   */\n      dup3\n        /* \"#utility.yul\":9470:9537   */\n      tag_104\n      jump\t// in\n    tag_212:\n        /* \"#utility.yul\":9464:9468   */\n      dup7\n        /* \"#utility.yul\":9457:9538   */\n      sstore\n        /* \"#utility.yul\":9326:9548   */\n      pop\n        /* \"#utility.yul\":8661:9548   */\n      jump(tag_209)\n        /* \"#utility.yul\":8691:9309   */\n    tag_210:\n        /* \"#utility.yul\":8743:8747   */\n      0x1f\n        /* \"#utility.yul\":8739:8748   */\n      not\n        /* \"#utility.yul\":8731:8737   */\n      dup5\n        /* \"#utility.yul\":8727:8749   */\n      and\n        /* \"#utility.yul\":8777:8814   */\n      tag_213\n        /* \"#utility.yul\":8809:8813   */\n      dup7\n        /* \"#utility.yul\":8777:8814   */\n      tag_89\n      jump\t// in\n    tag_213:\n        /* \"#utility.yul\":8836:8837   */\n      0x00\n        /* \"#utility.yul\":8850:9058   */\n    tag_214:\n        /* \"#utility.yul\":8864:8871   */\n      dup3\n        /* \"#utility.yul\":8861:8862   */\n      dup2\n        /* \"#utility.yul\":8858:8872   */\n      lt\n        /* \"#utility.yul\":8850:9058   */\n      iszero\n      tag_216\n      jumpi\n        /* \"#utility.yul\":8943:8952   */\n      dup5\n        /* \"#utility.yul\":8938:8941   */\n      dup10\n        /* \"#utility.yul\":8934:8953   */\n      add\n        /* \"#utility.yul\":8928:8954   */\n      mload\n        /* \"#utility.yul\":8920:8926   */\n      dup3\n        /* \"#utility.yul\":8913:8955   */\n      sstore\n        /* \"#utility.yul\":8994:8995   */\n      0x01\n        /* \"#utility.yul\":8986:8992   */\n      dup3\n        /* \"#utility.yul\":8982:8996   */\n      add\n        /* \"#utility.yul\":8972:8996   */\n      swap2\n      pop\n        /* \"#utility.yul\":9041:9043   */\n      0x20\n        /* \"#utility.yul\":9030:9039   */\n      dup6\n        /* \"#utility.yul\":9026:9044   */\n      add\n        /* \"#utility.yul\":9013:9044   */\n      swap5\n      pop\n        /* \"#utility.yul\":8887:8891   */\n      0x20\n        /* \"#utility.yul\":8884:8885   */\n      dup2\n        /* \"#utility.yul\":8880:8892   */\n      add\n        /* \"#utility.yul\":8875:8892   */\n      swap1\n      pop\n        /* \"#utility.yul\":8850:9058   */\n      jump(tag_214)\n    tag_216:\n        /* \"#utility.yul\":9086:9092   */\n      dup7\n        /* \"#utility.yul\":9077:9084   */\n      dup4\n        /* \"#utility.yul\":9074:9093   */\n      lt\n        /* \"#utility.yul\":9071:9250   */\n      iszero\n      tag_217\n      jumpi\n        /* \"#utility.yul\":9144:9153   */\n      dup5\n        /* \"#utility.yul\":9139:9142   */\n      dup10\n        /* \"#utility.yul\":9135:9154   */\n      add\n        /* \"#utility.yul\":9129:9155   */\n      mload\n        /* \"#utility.yul\":9187:9235   */\n      tag_218\n        /* \"#utility.yul\":9229:9233   */\n      0x1f\n        /* \"#utility.yul\":9221:9227   */\n      dup10\n        /* \"#utility.yul\":9217:9234   */\n      and\n        /* \"#utility.yul\":9206:9215   */\n      dup3\n        /* \"#utility.yul\":9187:9235   */\n      tag_103\n      jump\t// in\n    tag_218:\n        /* \"#utility.yul\":9179:9185   */\n      dup4\n        /* \"#utility.yul\":9172:9236   */\n      sstore\n        /* \"#utility.yul\":9094:9250   */\n      pop\n        /* \"#utility.yul\":9071:9250   */\n    tag_217:\n        /* \"#utility.yul\":9296:9297   */\n      0x01\n        /* \"#utility.yul\":9292:9293   */\n      0x02\n        /* \"#utility.yul\":9284:9290   */\n      dup9\n        /* \"#utility.yul\":9280:9294   */\n      mul\n        /* \"#utility.yul\":9276:9298   */\n      add\n        /* \"#utility.yul\":9270:9274   */\n      dup9\n        /* \"#utility.yul\":9263:9299   */\n      sstore\n        /* \"#utility.yul\":8698:9309   */\n      pop\n      pop\n      pop\n        /* \"#utility.yul\":8661:9548   */\n    tag_209:\n      pop\n        /* \"#utility.yul\":8251:9554   */\n      pop\n      pop\n      pop\n        /* \"#utility.yul\":8159:9554   */\n      pop\n      pop\n      jump\t// out\n        /* \"#utility.yul\":9560:9708   */\n    tag_105:\n        /* \"#utility.yul\":9662:9673   */\n      0x00\n        /* \"#utility.yul\":9699:9702   */\n      dup2\n        /* \"#utility.yul\":9684:9702   */\n      swap1\n      pop\n        /* \"#utility.yul\":9560:9708   */\n      swap3\n      swap2\n      pop\n      pop\n      jump\t// out\n        /* \"#utility.yul\":9714:10104   */\n    tag_106:\n        /* \"#utility.yul\":9820:9823   */\n      0x00\n        /* \"#utility.yul\":9848:9887   */\n      tag_221\n        /* \"#utility.yul\":9881:9886   */\n      dup3\n        /* \"#utility.yul\":9848:9887   */\n      tag_84\n      jump\t// in\n    tag_221:\n        /* \"#utility.yul\":9903:9992   */\n      tag_222\n        /* \"#utility.yul\":9985:9991   */\n      dup2\n        /* \"#utility.yul\":9980:9983   */\n      dup6\n        /* \"#utility.yul\":9903:9992   */\n      tag_105\n      jump\t// in\n    tag_222:\n        /* \"#utility.yul\":9896:9992   */\n      swap4\n      pop\n        /* \"#utility.yul\":10001:10066   */\n      tag_223\n        /* \"#utility.yul\":10059:10065   */\n      dup2\n        /* \"#utility.yul\":10054:10057   */\n      dup6\n        /* \"#utility.yul\":10047:10051   */\n      0x20\n        /* \"#utility.yul\":10040:10045   */\n      dup7\n        /* \"#utility.yul\":10036:10052   */\n      add\n        /* \"#utility.yul\":10001:10066   */\n      tag_86\n      jump\t// in\n    tag_223:\n        /* \"#utility.yul\":10091:10097   */\n      dup1\n        /* \"#utility.yul\":10086:10089   */\n      dup5\n        /* \"#utility.yul\":10082:10098   */\n      add\n        /* \"#utility.yul\":10075:10098   */\n      swap2\n      pop\n        /* \"#utility.yul\":9824:10104   */\n      pop\n        /* \"#utility.yul\":9714:10104   */\n      swap3\n      swap2\n      pop\n      pop\n      jump\t// out\n        /* \"#utility.yul\":10110:10261   */\n    tag_107:\n        /* \"#utility.yul\":10250:10253   */\n      0x2c00000000000000000000000000000000000000000000000000000000000000\n        /* \"#utility.yul\":10246:10247   */\n      0x00\n        /* \"#utility.yul\":10238:10244   */\n      dup3\n        /* \"#utility.yul\":10234:10248   */\n      add\n        /* \"#utility.yul\":10227:10254   */\n      mstore\n        /* \"#utility.yul\":10110:10261   */\n      pop\n      jump\t// out\n        /* \"#utility.yul\":10267:10667   */\n    tag_108:\n        /* \"#utility.yul\":10427:10430   */\n      0x00\n        /* \"#utility.yul\":10448:10532   */\n      tag_226\n        /* \"#utility.yul\":10530:10531   */\n      0x01\n        /* \"#utility.yul\":10525:10528   */\n      dup4\n        /* \"#utility.yul\":10448:10532   */\n      tag_105\n      jump\t// in\n    tag_226:\n        /* \"#utility.yul\":10441:10532   */\n      swap2\n      pop\n        /* \"#utility.yul\":10541:10634   */\n      tag_227\n        /* \"#utility.yul\":10630:10633   */\n      dup3\n        /* \"#utility.yul\":10541:10634   */\n      tag_107\n      jump\t// in\n    tag_227:\n        /* \"#utility.yul\":10659:10660   */\n      0x01\n        /* \"#utility.yul\":10654:10657   */\n      dup3\n        /* \"#utility.yul\":10650:10661   */\n      add\n        /* \"#utility.yul\":10643:10661   */\n      swap1\n      pop\n        /* \"#utility.yul\":10267:10667   */\n      swap2\n      swap1\n      pop\n      jump\t// out\n        /* \"#utility.yul\":10673:11374   */\n    tag_66:\n        /* \"#utility.yul\":10954:10957   */\n      0x00\n        /* \"#utility.yul\":10976:11071   */\n      tag_229\n        /* \"#utility.yul\":11067:11070   */\n      dup3\n        /* \"#utility.yul\":11058:11064   */\n      dup6\n        /* \"#utility.yul\":10976:11071   */\n      tag_106\n      jump\t// in\n    tag_229:\n        /* \"#utility.yul\":10969:11071   */\n      swap2\n      pop\n        /* \"#utility.yul\":11088:11236   */\n      tag_230\n        /* \"#utility.yul\":11232:11235   */\n      dup3\n        /* \"#utility.yul\":11088:11236   */\n      tag_108\n      jump\t// in\n    tag_230:\n        /* \"#utility.yul\":11081:11236   */\n      swap2\n      pop\n        /* \"#utility.yul\":11253:11348   */\n      tag_231\n        /* \"#utility.yul\":11344:11347   */\n      dup3\n        /* \"#utility.yul\":11335:11341   */\n      dup5\n        /* \"#utility.yul\":11253:11348   */\n      tag_106\n      jump\t// in\n    tag_231:\n        /* \"#utility.yul\":11246:11348   */\n      swap2\n      pop\n        /* \"#utility.yul\":11365:11368   */\n      dup2\n        /* \"#utility.yul\":11358:11368   */\n      swap1\n      pop\n        /* \"#utility.yul\":10673:11374   */\n      swap4\n      swap3\n      pop\n      pop\n      pop\n      jump\t// out\n\n    auxdata: 0xa26469706673582212200aa2ad4029400c36cad32eaaafbbb8f34205cc4c94d17ed24569f45cc749627064736f6c634300081a0033\n}\n",
				"bytecode": {
					"linkReferences": {},
					"object": "6080604052348015600e575f80fd5b506109d48061001c5f395ff3fe608060405234801561000f575f80fd5b506004361061004a575f3560e01c806326cfb6881461004e5780638611ede81461007e578063ada84967146100ae578063c2dbe6f9146100cc575b5f80fd5b61006860048036038101906100639190610520565b6100fc565b6040516100759190610581565b60405180910390f35b61009860048036038101906100939190610520565b6101bc565b6040516100a59190610581565b60405180910390f35b6100b66101de565b6040516100c391906105fa565b60405180910390f35b6100e660048036038101906100e19190610520565b610276565b6040516100f39190610581565b60405180910390f35b5f80610106610336565b5f01805461011390610647565b80601f016020809104026020016040519081016040528092919081815260200182805461013f90610647565b801561018a5780601f106101615761010080835404028352916020019161018a565b820191905f5260205f20905b81548152906001019060200180831161016d57829003601f168201915b5050505050905061019b8382610382565b6101a3610336565b5f0190816101b1919061081d565b506001915050919050565b5f816101c6610336565b5f0190816101d4919061081d565b5060019050919050565b60606101e8610336565b5f0180546101f590610647565b80601f016020809104026020016040519081016040528092919081815260200182805461022190610647565b801561026c5780601f106102435761010080835404028352916020019161026c565b820191905f5260205f20905b81548152906001019060200180831161024f57829003601f168201915b5050505050905090565b5f80610280610336565b5f01805461028d90610647565b80601f01602080910402602001604051908101604052809291908181526020018280546102b990610647565b80156103045780601f106102db57610100808354040283529160200191610304565b820191905f5260205f20905b8154815290600101906020018083116102e757829003601f168201915b505050505090506103158184610382565b61031d610336565b5f01908161032b919061081d565b506001915050919050565b5f61037d6103786040518060400160405280601d81526020017f656970323533352e4c6f67696354776f46616365742e636f6e74656e740000008152506103ae565b6103ca565b905090565b60608282604051602001610397929190610970565b604051602081830303815290604052905092915050565b5f600182516020840120035f5260ff1960205f20169050919050565b5f819050919050565b5f604051905090565b5f80fd5b5f80fd5b5f80fd5b5f80fd5b5f601f19601f8301169050919050565b7f4e487b71000000000000000000000000000000000000000000000000000000005f52604160045260245ffd5b610432826103ec565b810181811067ffffffffffffffff82111715610451576104506103fc565b5b80604052505050565b5f6104636103d3565b905061046f8282610429565b919050565b5f67ffffffffffffffff82111561048e5761048d6103fc565b5b610497826103ec565b9050602081019050919050565b828183375f83830152505050565b5f6104c46104bf84610474565b61045a565b9050828152602081018484840111156104e0576104df6103e8565b5b6104eb8482856104a4565b509392505050565b5f82601f830112610507576105066103e4565b5b81356105178482602086016104b2565b91505092915050565b5f60208284031215610535576105346103dc565b5b5f82013567ffffffffffffffff811115610552576105516103e0565b5b61055e848285016104f3565b91505092915050565b5f8115159050919050565b61057b81610567565b82525050565b5f6020820190506105945f830184610572565b92915050565b5f81519050919050565b5f82825260208201905092915050565b8281835e5f83830152505050565b5f6105cc8261059a565b6105d681856105a4565b93506105e68185602086016105b4565b6105ef816103ec565b840191505092915050565b5f6020820190508181035f83015261061281846105c2565b905092915050565b7f4e487b71000000000000000000000000000000000000000000000000000000005f52602260045260245ffd5b5f600282049050600182168061065e57607f821691505b6020821081036106715761067061061a565b5b50919050565b5f819050815f5260205f209050919050565b5f6020601f8301049050919050565b5f82821b905092915050565b5f600883026106d37fffffffffffffffffffffffffffffffffffffffffffffffffffffffffffffffff82610698565b6106dd8683610698565b95508019841693508086168417925050509392505050565b5f819050919050565b5f819050919050565b5f61072161071c610717846106f5565b6106fe565b6106f5565b9050919050565b5f819050919050565b61073a83610707565b61074e61074682610728565b8484546106a4565b825550505050565b5f90565b610762610756565b61076d818484610731565b505050565b5b81811015610790576107855f8261075a565b600181019050610773565b5050565b601f8211156107d5576107a681610677565b6107af84610689565b810160208510156107be578190505b6107d26107ca85610689565b830182610772565b50505b505050565b5f82821c905092915050565b5f6107f55f19846008026107da565b1980831691505092915050565b5f61080d83836107e6565b9150826002028217905092915050565b6108268261059a565b67ffffffffffffffff81111561083f5761083e6103fc565b5b6108498254610647565b610854828285610794565b5f60209050601f831160018114610885575f8415610873578287015190505b61087d8582610802565b8655506108e4565b601f19841661089386610677565b5f5b828110156108ba57848901518255600182019150602085019450602081019050610895565b868310156108d757848901516108d3601f8916826107e6565b8355505b6001600288020188555050505b505050505050565b5f81905092915050565b5f6109008261059a565b61090a81856108ec565b935061091a8185602086016105b4565b80840191505092915050565b7f2c000000000000000000000000000000000000000000000000000000000000005f82015250565b5f61095a6001836108ec565b915061096582610926565b600182019050919050565b5f61097b82856108f6565b91506109868261094e565b915061099282846108f6565b9150819050939250505056fea26469706673582212200aa2ad4029400c36cad32eaaafbbb8f34205cc4c94d17ed24569f45cc749627064736f6c634300081a0033",
					"opcodes": "PUSH1 0x80 PUSH1 0x40 MSTORE CALLVALUE DUP1 ISZERO PUSH1 0xE JUMPI PUSH0 DUP1 REVERT JUMPDEST POP PUSH2 0x9D4 DUP1 PUSH2 0x1C PUSH0 CODECOPY PUSH0 RETURN INVALID PUSH1 0x80 PUSH1 0x40 MSTORE CALLVALUE DUP1 ISZERO PUSH2 0xF JUMPI PUSH0 DUP1 REVERT JUMPDEST POP PUSH1 0x4 CALLDATASIZE LT PUSH2 0x4A JUMPI PUSH0 CALLDATALOAD PUSH1 0xE0 SHR DUP1 PUSH4 0x26CFB688 EQ PUSH2 0x4E JUMPI DUP1 PUSH4 0x8611EDE8 EQ PUSH2 0x7E JUMPI DUP1 PUSH4 0xADA84967 EQ PUSH2 0xAE JUMPI DUP1 PUSH4 0xC2DBE6F9 EQ PUSH2 0xCC JUMPI JUMPDEST PUSH0 DUP1 REVERT JUMPDEST PUSH2 0x68 PUSH1 0x4 DUP1 CALLDATASIZE SUB DUP2 ADD SWAP1 PUSH2 0x63 SWAP2 SWAP1 PUSH2 0x520 JUMP JUMPDEST PUSH2 0xFC JUMP JUMPDEST PUSH1 0x40 MLOAD PUSH2 0x75 SWAP2 SWAP1 PUSH2 0x581 JUMP JUMPDEST PUSH1 0x40 MLOAD DUP1 SWAP2 SUB SWAP1 RETURN JUMPDEST PUSH2 0x98 PUSH1 0x4 DUP1 CALLDATASIZE SUB DUP2 ADD SWAP1 PUSH2 0x93 SWAP2 SWAP1 PUSH2 0x520 JUMP JUMPDEST PUSH2 0x1BC JUMP JUMPDEST PUSH1 0x40 MLOAD PUSH2 0xA5 SWAP2 SWAP1 PUSH2 0x581 JUMP JUMPDEST PUSH1 0x40 MLOAD DUP1 SWAP2 SUB SWAP1 RETURN JUMPDEST PUSH2 0xB6 PUSH2 0x1DE JUMP JUMPDEST PUSH1 0x40 MLOAD PUSH2 0xC3 SWAP2 SWAP1 PUSH2 0x5FA JUMP JUMPDEST PUSH1 0x40 MLOAD DUP1 SWAP2 SUB SWAP1 RETURN JUMPDEST PUSH2 0xE6 PUSH1 0x4 DUP1 CALLDATASIZE SUB DUP2 ADD SWAP1 PUSH2 0xE1 SWAP2 SWAP1 PUSH2 0x520 JUMP JUMPDEST PUSH2 0x276 JUMP JUMPDEST PUSH1 0x40 MLOAD PUSH2 0xF3 SWAP2 SWAP1 PUSH2 0x581 JUMP JUMPDEST PUSH1 0x40 MLOAD DUP1 SWAP2 SUB SWAP1 RETURN JUMPDEST PUSH0 DUP1 PUSH2 0x106 PUSH2 0x336 JUMP JUMPDEST PUSH0 ADD DUP1 SLOAD PUSH2 0x113 SWAP1 PUSH2 0x647 JUMP JUMPDEST DUP1 PUSH1 0x1F ADD PUSH1 0x20 DUP1 SWAP2 DIV MUL PUSH1 0x20 ADD PUSH1 0x40 MLOAD SWAP1 DUP2 ADD PUSH1 0x40 MSTORE DUP1 SWAP3 SWAP2 SWAP1 DUP2 DUP2 MSTORE PUSH1 0x20 ADD DUP3 DUP1 SLOAD PUSH2 0x13F SWAP1 PUSH2 0x647 JUMP JUMPDEST DUP1 ISZERO PUSH2 0x18A JUMPI DUP1 PUSH1 0x1F LT PUSH2 0x161 JUMPI PUSH2 0x100 DUP1 DUP4 SLOAD DIV MUL DUP4 MSTORE SWAP2 PUSH1 0x20 ADD SWAP2 PUSH2 0x18A JUMP JUMPDEST DUP3 ADD SWAP2 SWAP1 PUSH0 MSTORE PUSH1 0x20 PUSH0 KECCAK256 SWAP1 JUMPDEST DUP2 SLOAD DUP2 MSTORE SWAP1 PUSH1 0x1 ADD SWAP1 PUSH1 0x20 ADD DUP1 DUP4 GT PUSH2 0x16D JUMPI DUP3 SWAP1 SUB PUSH1 0x1F AND DUP3 ADD SWAP2 JUMPDEST POP POP POP POP POP SWAP1 POP PUSH2 0x19B DUP4 DUP3 PUSH2 0x382 JUMP JUMPDEST PUSH2 0x1A3 PUSH2 0x336 JUMP JUMPDEST PUSH0 ADD SWAP1 DUP2 PUSH2 0x1B1 SWAP2 SWAP1 PUSH2 0x81D JUMP JUMPDEST POP PUSH1 0x1 SWAP2 POP POP SWAP2 SWAP1 POP JUMP JUMPDEST PUSH0 DUP2 PUSH2 0x1C6 PUSH2 0x336 JUMP JUMPDEST PUSH0 ADD SWAP1 DUP2 PUSH2 0x1D4 SWAP2 SWAP1 PUSH2 0x81D JUMP JUMPDEST POP PUSH1 0x1 SWAP1 POP SWAP2 SWAP1 POP JUMP JUMPDEST PUSH1 0x60 PUSH2 0x1E8 PUSH2 0x336 JUMP JUMPDEST PUSH0 ADD DUP1 SLOAD PUSH2 0x1F5 SWAP1 PUSH2 0x647 JUMP JUMPDEST DUP1 PUSH1 0x1F ADD PUSH1 0x20 DUP1 SWAP2 DIV MUL PUSH1 0x20 ADD PUSH1 0x40 MLOAD SWAP1 DUP2 ADD PUSH1 0x40 MSTORE DUP1 SWAP3 SWAP2 SWAP1 DUP2 DUP2 MSTORE PUSH1 0x20 ADD DUP3 DUP1 SLOAD PUSH2 0x221 SWAP1 PUSH2 0x647 JUMP JUMPDEST DUP1 ISZERO PUSH2 0x26C JUMPI DUP1 PUSH1 0x1F LT PUSH2 0x243 JUMPI PUSH2 0x100 DUP1 DUP4 SLOAD DIV MUL DUP4 MSTORE SWAP2 PUSH1 0x20 ADD SWAP2 PUSH2 0x26C JUMP JUMPDEST DUP3 ADD SWAP2 SWAP1 PUSH0 MSTORE PUSH1 0x20 PUSH0 KECCAK256 SWAP1 JUMPDEST DUP2 SLOAD DUP2 MSTORE SWAP1 PUSH1 0x1 ADD SWAP1 PUSH1 0x20 ADD DUP1 DUP4 GT PUSH2 0x24F JUMPI DUP3 SWAP1 SUB PUSH1 0x1F AND DUP3 ADD SWAP2 JUMPDEST POP POP POP POP POP SWAP1 POP SWAP1 JUMP JUMPDEST PUSH0 DUP1 PUSH2 0x280 PUSH2 0x336 JUMP JUMPDEST PUSH0 ADD DUP1 SLOAD PUSH2 0x28D SWAP1 PUSH2 0x647 JUMP JUMPDEST DUP1 PUSH1 0x1F ADD PUSH1 0x20 DUP1 SWAP2 DIV MUL PUSH1 0x20 ADD PUSH1 0x40 MLOAD SWAP1 DUP2 ADD PUSH1 0x40 MSTORE DUP1 SWAP3 SWAP2 SWAP1 DUP2 DUP2 MSTORE PUSH1 0x20 ADD DUP3 DUP1 SLOAD PUSH2 0x2B9 SWAP1 PUSH2 0x647 JUMP JUMPDEST DUP1 ISZERO PUSH2 0x304 JUMPI DUP1 PUSH1 0x1F LT PUSH2 0x2DB JUMPI PUSH2 0x100 DUP1 DUP4 SLOAD DIV MUL DUP4 MSTORE SWAP2 PUSH1 0x20 ADD SWAP2 PUSH2 0x304 JUMP JUMPDEST DUP3 ADD SWAP2 SWAP1 PUSH0 MSTORE PUSH1 0x20 PUSH0 KECCAK256 SWAP1 JUMPDEST DUP2 SLOAD DUP2 MSTORE SWAP1 PUSH1 0x1 ADD SWAP1 PUSH1 0x20 ADD DUP1 DUP4 GT PUSH2 0x2E7 JUMPI DUP3 SWAP1 SUB PUSH1 0x1F AND DUP3 ADD SWAP2 JUMPDEST POP POP POP POP POP SWAP1 POP PUSH2 0x315 DUP2 DUP5 PUSH2 0x382 JUMP JUMPDEST PUSH2 0x31D PUSH2 0x336 JUMP JUMPDEST PUSH0 ADD SWAP1 DUP2 PUSH2 0x32B SWAP2 SWAP1 PUSH2 0x81D JUMP JUMPDEST POP PUSH1 0x1 SWAP2 POP POP SWAP2 SWAP1 POP JUMP JUMPDEST PUSH0 PUSH2 0x37D PUSH2 0x378 PUSH1 0x40 MLOAD DUP1 PUSH1 0x40 ADD PUSH1 0x40 MSTORE DUP1 PUSH1 0x1D DUP2 MSTORE PUSH1 0x20 ADD PUSH32 0x656970323533352E4C6F67696354776F46616365742E636F6E74656E74000000 DUP2 MSTORE POP PUSH2 0x3AE JUMP JUMPDEST PUSH2 0x3CA JUMP JUMPDEST SWAP1 POP SWAP1 JUMP JUMPDEST PUSH1 0x60 DUP3 DUP3 PUSH1 0x40 MLOAD PUSH1 0x20 ADD PUSH2 0x397 SWAP3 SWAP2 SWAP1 PUSH2 0x970 JUMP JUMPDEST PUSH1 0x40 MLOAD PUSH1 0x20 DUP2 DUP4 SUB SUB DUP2 MSTORE SWAP1 PUSH1 0x40 MSTORE SWAP1 POP SWAP3 SWAP2 POP POP JUMP JUMPDEST PUSH0 PUSH1 0x1 DUP3 MLOAD PUSH1 0x20 DUP5 ADD KECCAK256 SUB PUSH0 MSTORE PUSH1 0xFF NOT PUSH1 0x20 PUSH0 KECCAK256 AND SWAP1 POP SWAP2 SWAP1 POP JUMP JUMPDEST PUSH0 DUP2 SWAP1 POP SWAP2 SWAP1 POP JUMP JUMPDEST PUSH0 PUSH1 0x40 MLOAD SWAP1 POP SWAP1 JUMP JUMPDEST PUSH0 DUP1 REVERT JUMPDEST PUSH0 DUP1 REVERT JUMPDEST PUSH0 DUP1 REVERT JUMPDEST PUSH0 DUP1 REVERT JUMPDEST PUSH0 PUSH1 0x1F NOT PUSH1 0x1F DUP4 ADD AND SWAP1 POP SWAP2 SWAP1 POP JUMP JUMPDEST PUSH32 0x4E487B7100000000000000000000000000000000000000000000000000000000 PUSH0 MSTORE PUSH1 0x41 PUSH1 0x4 MSTORE PUSH1 0x24 PUSH0 REVERT JUMPDEST PUSH2 0x432 DUP3 PUSH2 0x3EC JUMP JUMPDEST DUP2 ADD DUP2 DUP2 LT PUSH8 0xFFFFFFFFFFFFFFFF DUP3 GT OR ISZERO PUSH2 0x451 JUMPI PUSH2 0x450 PUSH2 0x3FC JUMP JUMPDEST JUMPDEST DUP1 PUSH1 0x40 MSTORE POP POP POP JUMP JUMPDEST PUSH0 PUSH2 0x463 PUSH2 0x3D3 JUMP JUMPDEST SWAP1 POP PUSH2 0x46F DUP3 DUP3 PUSH2 0x429 JUMP JUMPDEST SWAP2 SWAP1 POP JUMP JUMPDEST PUSH0 PUSH8 0xFFFFFFFFFFFFFFFF DUP3 GT ISZERO PUSH2 0x48E JUMPI PUSH2 0x48D PUSH2 0x3FC JUMP JUMPDEST JUMPDEST PUSH2 0x497 DUP3 PUSH2 0x3EC JUMP JUMPDEST SWAP1 POP PUSH1 0x20 DUP2 ADD SWAP1 POP SWAP2 SWAP1 POP JUMP JUMPDEST DUP3 DUP2 DUP4 CALLDATACOPY PUSH0 DUP4 DUP4 ADD MSTORE POP POP POP JUMP JUMPDEST PUSH0 PUSH2 0x4C4 PUSH2 0x4BF DUP5 PUSH2 0x474 JUMP JUMPDEST PUSH2 0x45A JUMP JUMPDEST SWAP1 POP DUP3 DUP2 MSTORE PUSH1 0x20 DUP2 ADD DUP5 DUP5 DUP5 ADD GT ISZERO PUSH2 0x4E0 JUMPI PUSH2 0x4DF PUSH2 0x3E8 JUMP JUMPDEST JUMPDEST PUSH2 0x4EB DUP5 DUP3 DUP6 PUSH2 0x4A4 JUMP JUMPDEST POP SWAP4 SWAP3 POP POP POP JUMP JUMPDEST PUSH0 DUP3 PUSH1 0x1F DUP4 ADD SLT PUSH2 0x507 JUMPI PUSH2 0x506 PUSH2 0x3E4 JUMP JUMPDEST JUMPDEST DUP2 CALLDATALOAD PUSH2 0x517 DUP5 DUP3 PUSH1 0x20 DUP7 ADD PUSH2 0x4B2 JUMP JUMPDEST SWAP2 POP POP SWAP3 SWAP2 POP POP JUMP JUMPDEST PUSH0 PUSH1 0x20 DUP3 DUP5 SUB SLT ISZERO PUSH2 0x535 JUMPI PUSH2 0x534 PUSH2 0x3DC JUMP JUMPDEST JUMPDEST PUSH0 DUP3 ADD CALLDATALOAD PUSH8 0xFFFFFFFFFFFFFFFF DUP2 GT ISZERO PUSH2 0x552 JUMPI PUSH2 0x551 PUSH2 0x3E0 JUMP JUMPDEST JUMPDEST PUSH2 0x55E DUP5 DUP3 DUP6 ADD PUSH2 0x4F3 JUMP JUMPDEST SWAP2 POP POP SWAP3 SWAP2 POP POP JUMP JUMPDEST PUSH0 DUP2 ISZERO ISZERO SWAP1 POP SWAP2 SWAP1 POP JUMP JUMPDEST PUSH2 0x57B DUP2 PUSH2 0x567 JUMP JUMPDEST DUP3 MSTORE POP POP JUMP JUMPDEST PUSH0 PUSH1 0x20 DUP3 ADD SWAP1 POP PUSH2 0x594 PUSH0 DUP4 ADD DUP5 PUSH2 0x572 JUMP JUMPDEST SWAP3 SWAP2 POP POP JUMP JUMPDEST PUSH0 DUP2 MLOAD SWAP1 POP SWAP2 SWAP1 POP JUMP JUMPDEST PUSH0 DUP3 DUP3 MSTORE PUSH1 0x20 DUP3 ADD SWAP1 POP SWAP3 SWAP2 POP POP JUMP JUMPDEST DUP3 DUP2 DUP4 MCOPY PUSH0 DUP4 DUP4 ADD MSTORE POP POP POP JUMP JUMPDEST PUSH0 PUSH2 0x5CC DUP3 PUSH2 0x59A JUMP JUMPDEST PUSH2 0x5D6 DUP2 DUP6 PUSH2 0x5A4 JUMP JUMPDEST SWAP4 POP PUSH2 0x5E6 DUP2 DUP6 PUSH1 0x20 DUP7 ADD PUSH2 0x5B4 JUMP JUMPDEST PUSH2 0x5EF DUP2 PUSH2 0x3EC JUMP JUMPDEST DUP5 ADD SWAP2 POP POP SWAP3 SWAP2 POP POP JUMP JUMPDEST PUSH0 PUSH1 0x20 DUP3 ADD SWAP1 POP DUP2 DUP2 SUB PUSH0 DUP4 ADD MSTORE PUSH2 0x612 DUP2 DUP5 PUSH2 0x5C2 JUMP JUMPDEST SWAP1 POP SWAP3 SWAP2 POP POP JUMP JUMPDEST PUSH32 0x4E487B7100000000000000000000000000000000000000000000000000000000 PUSH0 MSTORE PUSH1 0x22 PUSH1 0x4 MSTORE PUSH1 0x24 PUSH0 REVERT JUMPDEST PUSH0 PUSH1 0x2 DUP3 DIV SWAP1 POP PUSH1 0x1 DUP3 AND DUP1 PUSH2 0x65E JUMPI PUSH1 0x7F DUP3 AND SWAP2 POP JUMPDEST PUSH1 0x20 DUP3 LT DUP2 SUB PUSH2 0x671 JUMPI PUSH2 0x670 PUSH2 0x61A JUMP JUMPDEST JUMPDEST POP SWAP2 SWAP1 POP JUMP JUMPDEST PUSH0 DUP2 SWAP1 POP DUP2 PUSH0 MSTORE PUSH1 0x20 PUSH0 KECCAK256 SWAP1 POP SWAP2 SWAP1 POP JUMP JUMPDEST PUSH0 PUSH1 0x20 PUSH1 0x1F DUP4 ADD DIV SWAP1 POP SWAP2 SWAP1 POP JUMP JUMPDEST PUSH0 DUP3 DUP3 SHL SWAP1 POP SWAP3 SWAP2 POP POP JUMP JUMPDEST PUSH0 PUSH1 0x8 DUP4 MUL PUSH2 0x6D3 PUSH32 0xFFFFFFFFFFFFFFFFFFFFFFFFFFFFFFFFFFFFFFFFFFFFFFFFFFFFFFFFFFFFFFFF DUP3 PUSH2 0x698 JUMP JUMPDEST PUSH2 0x6DD DUP7 DUP4 PUSH2 0x698 JUMP JUMPDEST SWAP6 POP DUP1 NOT DUP5 AND SWAP4 POP DUP1 DUP7 AND DUP5 OR SWAP3 POP POP POP SWAP4 SWAP3 POP POP POP JUMP JUMPDEST PUSH0 DUP2 SWAP1 POP SWAP2 SWAP1 POP JUMP JUMPDEST PUSH0 DUP2 SWAP1 POP SWAP2 SWAP1 POP JUMP JUMPDEST PUSH0 PUSH2 0x721 PUSH2 0x71C PUSH2 0x717 DUP5 PUSH2 0x6F5 JUMP JUMPDEST PUSH2 0x6FE JUMP JUMPDEST PUSH2 0x6F5 JUMP JUMPDEST SWAP1 POP SWAP2 SWAP1 POP JUMP JUMPDEST PUSH0 DUP2 SWAP1 POP SWAP2 SWAP1 POP JUMP JUMPDEST PUSH2 0x73A DUP4 PUSH2 0x707 JUMP JUMPDEST PUSH2 0x74E PUSH2 0x746 DUP3 PUSH2 0x728 JUMP JUMPDEST DUP5 DUP5 SLOAD PUSH2 0x6A4 JUMP JUMPDEST DUP3 SSTORE POP POP POP POP JUMP JUMPDEST PUSH0 SWAP1 JUMP JUMPDEST PUSH2 0x762 PUSH2 0x756 JUMP JUMPDEST PUSH2 0x76D DUP2 DUP5 DUP5 PUSH2 0x731 JUMP JUMPDEST POP POP POP JUMP JUMPDEST JUMPDEST DUP2 DUP2 LT ISZERO PUSH2 0x790 JUMPI PUSH2 0x785 PUSH0 DUP3 PUSH2 0x75A JUMP JUMPDEST PUSH1 0x1 DUP2 ADD SWAP1 POP PUSH2 0x773 JUMP JUMPDEST POP POP JUMP JUMPDEST PUSH1 0x1F DUP3 GT ISZERO PUSH2 0x7D5 JUMPI PUSH2 0x7A6 DUP2 PUSH2 0x677 JUMP JUMPDEST PUSH2 0x7AF DUP5 PUSH2 0x689 JUMP JUMPDEST DUP2 ADD PUSH1 0x20 DUP6 LT ISZERO PUSH2 0x7BE JUMPI DUP2 SWAP1 POP JUMPDEST PUSH2 0x7D2 PUSH2 0x7CA DUP6 PUSH2 0x689 JUMP JUMPDEST DUP4 ADD DUP3 PUSH2 0x772 JUMP JUMPDEST POP POP JUMPDEST POP POP POP JUMP JUMPDEST PUSH0 DUP3 DUP3 SHR SWAP1 POP SWAP3 SWAP2 POP POP JUMP JUMPDEST PUSH0 PUSH2 0x7F5 PUSH0 NOT DUP5 PUSH1 0x8 MUL PUSH2 0x7DA JUMP JUMPDEST NOT DUP1 DUP4 AND SWAP2 POP POP SWAP3 SWAP2 POP POP JUMP JUMPDEST PUSH0 PUSH2 0x80D DUP4 DUP4 PUSH2 0x7E6 JUMP JUMPDEST SWAP2 POP DUP3 PUSH1 0x2 MUL DUP3 OR SWAP1 POP SWAP3 SWAP2 POP POP JUMP JUMPDEST PUSH2 0x826 DUP3 PUSH2 0x59A JUMP JUMPDEST PUSH8 0xFFFFFFFFFFFFFFFF DUP2 GT ISZERO PUSH2 0x83F JUMPI PUSH2 0x83E PUSH2 0x3FC JUMP JUMPDEST JUMPDEST PUSH2 0x849 DUP3 SLOAD PUSH2 0x647 JUMP JUMPDEST PUSH2 0x854 DUP3 DUP3 DUP6 PUSH2 0x794 JUMP JUMPDEST PUSH0 PUSH1 0x20 SWAP1 POP PUSH1 0x1F DUP4 GT PUSH1 0x1 DUP2 EQ PUSH2 0x885 JUMPI PUSH0 DUP5 ISZERO PUSH2 0x873 JUMPI DUP3 DUP8 ADD MLOAD SWAP1 POP JUMPDEST PUSH2 0x87D DUP6 DUP3 PUSH2 0x802 JUMP JUMPDEST DUP7 SSTORE POP PUSH2 0x8E4 JUMP JUMPDEST PUSH1 0x1F NOT DUP5 AND PUSH2 0x893 DUP7 PUSH2 0x677 JUMP JUMPDEST PUSH0 JUMPDEST DUP3 DUP2 LT ISZERO PUSH2 0x8BA JUMPI DUP5 DUP10 ADD MLOAD DUP3 SSTORE PUSH1 0x1 DUP3 ADD SWAP2 POP PUSH1 0x20 DUP6 ADD SWAP5 POP PUSH1 0x20 DUP2 ADD SWAP1 POP PUSH2 0x895 JUMP JUMPDEST DUP7 DUP4 LT ISZERO PUSH2 0x8D7 JUMPI DUP5 DUP10 ADD MLOAD PUSH2 0x8D3 PUSH1 0x1F DUP10 AND DUP3 PUSH2 0x7E6 JUMP JUMPDEST DUP4 SSTORE POP JUMPDEST PUSH1 0x1 PUSH1 0x2 DUP9 MUL ADD DUP9 SSTORE POP POP POP JUMPDEST POP POP POP POP POP POP JUMP JUMPDEST PUSH0 DUP2 SWAP1 POP SWAP3 SWAP2 POP POP JUMP JUMPDEST PUSH0 PUSH2 0x900 DUP3 PUSH2 0x59A JUMP JUMPDEST PUSH2 0x90A DUP2 DUP6 PUSH2 0x8EC JUMP JUMPDEST SWAP4 POP PUSH2 0x91A DUP2 DUP6 PUSH1 0x20 DUP7 ADD PUSH2 0x5B4 JUMP JUMPDEST DUP1 DUP5 ADD SWAP2 POP POP SWAP3 SWAP2 POP POP JUMP JUMPDEST PUSH32 0x2C00000000000000000000000000000000000000000000000000000000000000 PUSH0 DUP3 ADD MSTORE POP JUMP JUMPDEST PUSH0 PUSH2 0x95A PUSH1 0x1 DUP4 PUSH2 0x8EC JUMP JUMPDEST SWAP2 POP PUSH2 0x965 DUP3 PUSH2 0x926 JUMP JUMPDEST PUSH1 0x1 DUP3 ADD SWAP1 POP SWAP2 SWAP1 POP JUMP JUMPDEST PUSH0 PUSH2 0x97B DUP3 DUP6 PUSH2 0x8F6 JUMP JUMPDEST SWAP2 POP PUSH2 0x986 DUP3 PUSH2 0x94E JUMP JUMPDEST SWAP2 POP PUSH2 0x992 DUP3 DUP5 PUSH2 0x8F6 JUMP JUMPDEST SWAP2 POP DUP2 SWAP1 POP SWAP4 SWAP3 POP POP POP JUMP INVALID LOG2 PUSH5 0x6970667358 0x22 SLT KECCAK256 EXP LOG2 0xAD BLOCKHASH 0x29 BLOCKHASH 0xC CALLDATASIZE 0xCA 0xD3 0x2E 0xAA 0xAF 0xBB 0xB8 RETURN TIMESTAMP SDIV 0xCC 0x4C SWAP5 0xD1 PUSH31 0xD24569F45CC749627064736F6C634300081A00330000000000000000000000 "
				},
				"gasEstimates": {
					"creation": {
						"codeDepositCost": "503200",
						"executionCost": "535",
						"totalCost": "503735"
					},
					"external": {
						"afterMyCounter(string)": "infinite",
						"beforeMyCounter(string)": "infinite",
						"getMyContent()": "infinite",
						"setMyCounter(string)": "infinite"
					},
					"internal": {
						"_concat(string memory,string memory)": "infinite"
					}
				},
				"methodIdentifiers": {
					"afterMyCounter(string)": "c2dbe6f9",
					"beforeMyCounter(string)": "26cfb688",
					"getMyContent()": "ada84967",
					"setMyCounter(string)": "8611ede8"
				}
			},
			"storageLayout": {
				"storage": [],
				"types": null
			},
			"userdoc": {
				"kind": "user",
				"methods": {},
				"version": 1
			}
		}
	}
}