{
	"contracts/proxy/EIP2535/SlotDerivationTest.sol": {
		"SlotDerivationTest": {
			"abi": [
				{
					"inputs": [],
					"stateMutability": "nonpayable",
					"type": "constructor"
				},
				{
					"inputs": [],
					"name": "ERC7201_NAMESPACE",
					"outputs": [
						{
							"internalType": "string",
							"name": "",
							"type": "string"
						}
					],
					"stateMutability": "view",
					"type": "function"
				}
			],
			"devdoc": {
				"kind": "dev",
				"methods": {},
				"version": 1
			},
			"evm": {
				"assembly": "    /* \"contracts/proxy/EIP2535/SlotDerivationTest.sol\":230:569  contract SlotDerivationTest {... */\n  mstore(0x40, 0xa0)\n    /* \"contracts/proxy/EIP2535/SlotDerivationTest.sol\":474:567  constructor () {... */\n  callvalue\n  dup1\n  iszero\n  tag_1\n  jumpi\n  0x00\n  dup1\n  revert\ntag_1:\n  pop\n    /* \"contracts/proxy/EIP2535/SlotDerivationTest.sol\":515:560  SlotDerivation.erc7201Slot(ERC7201_NAMESPACE) */\n  tag_4\n    /* \"contracts/proxy/EIP2535/SlotDerivationTest.sol\":542:559  ERC7201_NAMESPACE */\n  mload(0x40)\n  dup1\n  0x40\n  add\n  0x40\n  mstore\n  dup1\n  0x1c\n  dup2\n  mstore\n  0x20\n  add\n  0x536c6f7444657269766174696f6e546573742e4e616d65737061636500000000\n  dup2\n  mstore\n  pop\n    /* \"contracts/proxy/EIP2535/SlotDerivationTest.sol\":515:541  SlotDerivation.erc7201Slot */\n  shl(0x20, tag_5)\n    /* \"contracts/proxy/EIP2535/SlotDerivationTest.sol\":515:560  SlotDerivation.erc7201Slot(ERC7201_NAMESPACE) */\n  0x20\n  shr\n  jump\t// in\ntag_4:\n    /* \"contracts/proxy/EIP2535/SlotDerivationTest.sol\":499:560  _ADDRESS_SLOT = SlotDerivation.erc7201Slot(ERC7201_NAMESPACE) */\n  0x80\n  dup2\n  dup2\n  mstore\n  pop\n  pop\n    /* \"contracts/proxy/EIP2535/SlotDerivationTest.sol\":230:569  contract SlotDerivationTest {... */\n  jump(tag_6)\n    /* \"@openzeppelin/contracts/utils/SlotDerivation.sol\":1706:1983  function erc7201Slot(string memory namespace) internal pure returns (bytes32 slot) {... */\ntag_5:\n    /* \"@openzeppelin/contracts/utils/SlotDerivation.sol\":1775:1787  bytes32 slot */\n  0x00\n    /* \"@openzeppelin/contracts/utils/SlotDerivation.sol\":1906:1907  1 */\n  0x01\n    /* \"@openzeppelin/contracts/utils/SlotDerivation.sol\":1893:1902  namespace */\n  dup3\n    /* \"@openzeppelin/contracts/utils/SlotDerivation.sol\":1887:1903  mload(namespace) */\n  mload\n    /* \"@openzeppelin/contracts/utils/SlotDerivation.sol\":1880:1884  0x20 */\n  0x20\n    /* \"@openzeppelin/contracts/utils/SlotDerivation.sol\":1869:1878  namespace */\n  dup5\n    /* \"@openzeppelin/contracts/utils/SlotDerivation.sol\":1865:1885  add(namespace, 0x20) */\n  add\n    /* \"@openzeppelin/contracts/utils/SlotDerivation.sol\":1855:1904  keccak256(add(namespace, 0x20), mload(namespace)) */\n  keccak256\n    /* \"@openzeppelin/contracts/utils/SlotDerivation.sol\":1851:1908  sub(keccak256(add(namespace, 0x20), mload(namespace)), 1) */\n  sub\n    /* \"@openzeppelin/contracts/utils/SlotDerivation.sol\":1845:1849  0x00 */\n  0x00\n    /* \"@openzeppelin/contracts/utils/SlotDerivation.sol\":1838:1909  mstore(0x00, sub(keccak256(add(namespace, 0x20), mload(namespace)), 1)) */\n  mstore\n    /* \"@openzeppelin/contracts/utils/SlotDerivation.sol\":1961:1965  0xff */\n  0xff\n    /* \"@openzeppelin/contracts/utils/SlotDerivation.sol\":1957:1966  not(0xff) */\n  not\n    /* \"@openzeppelin/contracts/utils/SlotDerivation.sol\":1950:1954  0x20 */\n  0x20\n    /* \"@openzeppelin/contracts/utils/SlotDerivation.sol\":1944:1948  0x00 */\n  0x00\n    /* \"@openzeppelin/contracts/utils/SlotDerivation.sol\":1934:1955  keccak256(0x00, 0x20) */\n  keccak256\n    /* \"@openzeppelin/contracts/utils/SlotDerivation.sol\":1930:1967  and(keccak256(0x00, 0x20), not(0xff)) */\n  and\n    /* \"@openzeppelin/contracts/utils/SlotDerivation.sol\":1922:1967  slot := and(keccak256(0x00, 0x20), not(0xff)) */\n  swap1\n  pop\n    /* \"@openzeppelin/contracts/utils/SlotDerivation.sol\":1706:1983  function erc7201Slot(string memory namespace) internal pure returns (bytes32 slot) {... */\n  swap2\n  swap1\n  pop\n  jump\t// out\n    /* \"contracts/proxy/EIP2535/SlotDerivationTest.sol\":230:569  contract SlotDerivationTest {... */\ntag_6:\n  mload(0x80)\n  codecopy(0x00, dataOffset(sub_0), dataSize(sub_0))\n  0x00\n  assignImmutable(\"0x8ee194a39585e57c39bf9248c7b5f13f54afd305274516573340f7767a485c6e\")\n  return(0x00, dataSize(sub_0))\nstop\n\nsub_0: assembly {\n        /* \"contracts/proxy/EIP2535/SlotDerivationTest.sol\":230:569  contract SlotDerivationTest {... */\n      mstore(0x40, 0x80)\n      callvalue\n      dup1\n      iszero\n      tag_1\n      jumpi\n      0x00\n      dup1\n      revert\n    tag_1:\n      pop\n      jumpi(tag_2, lt(calldatasize, 0x04))\n      shr(0xe0, calldataload(0x00))\n      dup1\n      0x1516f08e\n      eq\n      tag_3\n      jumpi\n    tag_2:\n      0x00\n      dup1\n      revert\n        /* \"contracts/proxy/EIP2535/SlotDerivationTest.sol\":350:423  string public constant ERC7201_NAMESPACE = \"SlotDerivationTest.Namespace\" */\n    tag_3:\n      tag_4\n      tag_5\n      jump\t// in\n    tag_4:\n      mload(0x40)\n      tag_6\n      swap2\n      swap1\n      tag_7\n      jump\t// in\n    tag_6:\n      mload(0x40)\n      dup1\n      swap2\n      sub\n      swap1\n      return\n    tag_5:\n      mload(0x40)\n      dup1\n      0x40\n      add\n      0x40\n      mstore\n      dup1\n      0x1c\n      dup2\n      mstore\n      0x20\n      add\n      0x536c6f7444657269766174696f6e546573742e4e616d65737061636500000000\n      dup2\n      mstore\n      pop\n      dup2\n      jump\t// out\n        /* \"#utility.yul\":7:106   */\n    tag_8:\n        /* \"#utility.yul\":59:65   */\n      0x00\n        /* \"#utility.yul\":93:98   */\n      dup2\n        /* \"#utility.yul\":87:99   */\n      mload\n        /* \"#utility.yul\":77:99   */\n      swap1\n      pop\n        /* \"#utility.yul\":7:106   */\n      swap2\n      swap1\n      pop\n      jump\t// out\n        /* \"#utility.yul\":112:281   */\n    tag_9:\n        /* \"#utility.yul\":196:207   */\n      0x00\n        /* \"#utility.yul\":230:236   */\n      dup3\n        /* \"#utility.yul\":225:228   */\n      dup3\n        /* \"#utility.yul\":218:237   */\n      mstore\n        /* \"#utility.yul\":270:274   */\n      0x20\n        /* \"#utility.yul\":265:268   */\n      dup3\n        /* \"#utility.yul\":261:275   */\n      add\n        /* \"#utility.yul\":246:275   */\n      swap1\n      pop\n        /* \"#utility.yul\":112:281   */\n      swap3\n      swap2\n      pop\n      pop\n      jump\t// out\n        /* \"#utility.yul\":287:426   */\n    tag_10:\n        /* \"#utility.yul\":376:382   */\n      dup3\n        /* \"#utility.yul\":371:374   */\n      dup2\n        /* \"#utility.yul\":366:369   */\n      dup4\n        /* \"#utility.yul\":360:383   */\n      mcopy\n        /* \"#utility.yul\":417:418   */\n      0x00\n        /* \"#utility.yul\":408:414   */\n      dup4\n        /* \"#utility.yul\":403:406   */\n      dup4\n        /* \"#utility.yul\":399:415   */\n      add\n        /* \"#utility.yul\":392:419   */\n      mstore\n        /* \"#utility.yul\":287:426   */\n      pop\n      pop\n      pop\n      jump\t// out\n        /* \"#utility.yul\":432:534   */\n    tag_11:\n        /* \"#utility.yul\":473:479   */\n      0x00\n        /* \"#utility.yul\":524:526   */\n      0x1f\n        /* \"#utility.yul\":520:527   */\n      not\n        /* \"#utility.yul\":515:517   */\n      0x1f\n        /* \"#utility.yul\":508:513   */\n      dup4\n        /* \"#utility.yul\":504:518   */\n      add\n        /* \"#utility.yul\":500:528   */\n      and\n        /* \"#utility.yul\":490:528   */\n      swap1\n      pop\n        /* \"#utility.yul\":432:534   */\n      swap2\n      swap1\n      pop\n      jump\t// out\n        /* \"#utility.yul\":540:917   */\n    tag_12:\n        /* \"#utility.yul\":628:631   */\n      0x00\n        /* \"#utility.yul\":656:695   */\n      tag_19\n        /* \"#utility.yul\":689:694   */\n      dup3\n        /* \"#utility.yul\":656:695   */\n      tag_8\n      jump\t// in\n    tag_19:\n        /* \"#utility.yul\":711:782   */\n      tag_20\n        /* \"#utility.yul\":775:781   */\n      dup2\n        /* \"#utility.yul\":770:773   */\n      dup6\n        /* \"#utility.yul\":711:782   */\n      tag_9\n      jump\t// in\n    tag_20:\n        /* \"#utility.yul\":704:782   */\n      swap4\n      pop\n        /* \"#utility.yul\":791:856   */\n      tag_21\n        /* \"#utility.yul\":849:855   */\n      dup2\n        /* \"#utility.yul\":844:847   */\n      dup6\n        /* \"#utility.yul\":837:841   */\n      0x20\n        /* \"#utility.yul\":830:835   */\n      dup7\n        /* \"#utility.yul\":826:842   */\n      add\n        /* \"#utility.yul\":791:856   */\n      tag_10\n      jump\t// in\n    tag_21:\n        /* \"#utility.yul\":881:910   */\n      tag_22\n        /* \"#utility.yul\":903:909   */\n      dup2\n        /* \"#utility.yul\":881:910   */\n      tag_11\n      jump\t// in\n    tag_22:\n        /* \"#utility.yul\":876:879   */\n      dup5\n        /* \"#utility.yul\":872:911   */\n      add\n        /* \"#utility.yul\":865:911   */\n      swap2\n      pop\n        /* \"#utility.yul\":632:917   */\n      pop\n        /* \"#utility.yul\":540:917   */\n      swap3\n      swap2\n      pop\n      pop\n      jump\t// out\n        /* \"#utility.yul\":923:1236   */\n    tag_7:\n        /* \"#utility.yul\":1036:1040   */\n      0x00\n        /* \"#utility.yul\":1074:1076   */\n      0x20\n        /* \"#utility.yul\":1063:1072   */\n      dup3\n        /* \"#utility.yul\":1059:1077   */\n      add\n        /* \"#utility.yul\":1051:1077   */\n      swap1\n      pop\n        /* \"#utility.yul\":1123:1132   */\n      dup2\n        /* \"#utility.yul\":1117:1121   */\n      dup2\n        /* \"#utility.yul\":1113:1133   */\n      sub\n        /* \"#utility.yul\":1109:1110   */\n      0x00\n        /* \"#utility.yul\":1098:1107   */\n      dup4\n        /* \"#utility.yul\":1094:1111   */\n      add\n        /* \"#utility.yul\":1087:1134   */\n      mstore\n        /* \"#utility.yul\":1151:1229   */\n      tag_24\n        /* \"#utility.yul\":1224:1228   */\n      dup2\n        /* \"#utility.yul\":1215:1221   */\n      dup5\n        /* \"#utility.yul\":1151:1229   */\n      tag_12\n      jump\t// in\n    tag_24:\n        /* \"#utility.yul\":1143:1229   */\n      swap1\n      pop\n        /* \"#utility.yul\":923:1236   */\n      swap3\n      swap2\n      pop\n      pop\n      jump\t// out\n\n    auxdata: 0xa2646970667358221220b63de1a51e6a61216cf018ab34d55ebbe9b3809643bf2388db6df5da8972956164736f6c634300081a0033\n}\n",
				"bytecode": {
					"linkReferences": {},
					"object": "60a0604052348015600e575f80fd5b5060516040518060400160405280601c81526020017f536c6f7444657269766174696f6e546573742e4e616d65737061636500000000815250605c60201b60201c565b608081815250506078565b5f600182516020840120035f5260ff1960205f20169050919050565b60805161014a61008d5f395f505061014a5ff3fe608060405234801561000f575f80fd5b5060043610610029575f3560e01c80631516f08e1461002d575b5f80fd5b61003561004b565b60405161004291906100f4565b60405180910390f35b6040518060400160405280601c81526020017f536c6f7444657269766174696f6e546573742e4e616d6573706163650000000081525081565b5f81519050919050565b5f82825260208201905092915050565b8281835e5f83830152505050565b5f601f19601f8301169050919050565b5f6100c682610084565b6100d0818561008e565b93506100e081856020860161009e565b6100e9816100ac565b840191505092915050565b5f6020820190508181035f83015261010c81846100bc565b90509291505056fea2646970667358221220b63de1a51e6a61216cf018ab34d55ebbe9b3809643bf2388db6df5da8972956164736f6c634300081a0033",
					"opcodes": "PUSH1 0xA0 PUSH1 0x40 MSTORE CALLVALUE DUP1 ISZERO PUSH1 0xE JUMPI PUSH0 DUP1 REVERT JUMPDEST POP PUSH1 0x51 PUSH1 0x40 MLOAD DUP1 PUSH1 0x40 ADD PUSH1 0x40 MSTORE DUP1 PUSH1 0x1C DUP2 MSTORE PUSH1 0x20 ADD PUSH32 0x536C6F7444657269766174696F6E546573742E4E616D65737061636500000000 DUP2 MSTORE POP PUSH1 0x5C PUSH1 0x20 SHL PUSH1 0x20 SHR JUMP JUMPDEST PUSH1 0x80 DUP2 DUP2 MSTORE POP POP PUSH1 0x78 JUMP JUMPDEST PUSH0 PUSH1 0x1 DUP3 MLOAD PUSH1 0x20 DUP5 ADD KECCAK256 SUB PUSH0 MSTORE PUSH1 0xFF NOT PUSH1 0x20 PUSH0 KECCAK256 AND SWAP1 POP SWAP2 SWAP1 POP JUMP JUMPDEST PUSH1 0x80 MLOAD PUSH2 0x14A PUSH2 0x8D PUSH0 CODECOPY PUSH0 POP POP PUSH2 0x14A PUSH0 RETURN INVALID PUSH1 0x80 PUSH1 0x40 MSTORE CALLVALUE DUP1 ISZERO PUSH2 0xF JUMPI PUSH0 DUP1 REVERT JUMPDEST POP PUSH1 0x4 CALLDATASIZE LT PUSH2 0x29 JUMPI PUSH0 CALLDATALOAD PUSH1 0xE0 SHR DUP1 PUSH4 0x1516F08E EQ PUSH2 0x2D JUMPI JUMPDEST PUSH0 DUP1 REVERT JUMPDEST PUSH2 0x35 PUSH2 0x4B JUMP JUMPDEST PUSH1 0x40 MLOAD PUSH2 0x42 SWAP2 SWAP1 PUSH2 0xF4 JUMP JUMPDEST PUSH1 0x40 MLOAD DUP1 SWAP2 SUB SWAP1 RETURN JUMPDEST PUSH1 0x40 MLOAD DUP1 PUSH1 0x40 ADD PUSH1 0x40 MSTORE DUP1 PUSH1 0x1C DUP2 MSTORE PUSH1 0x20 ADD PUSH32 0x536C6F7444657269766174696F6E546573742E4E616D65737061636500000000 DUP2 MSTORE POP DUP2 JUMP JUMPDEST PUSH0 DUP2 MLOAD SWAP1 POP SWAP2 SWAP1 POP JUMP JUMPDEST PUSH0 DUP3 DUP3 MSTORE PUSH1 0x20 DUP3 ADD SWAP1 POP SWAP3 SWAP2 POP POP JUMP JUMPDEST DUP3 DUP2 DUP4 MCOPY PUSH0 DUP4 DUP4 ADD MSTORE POP POP POP JUMP JUMPDEST PUSH0 PUSH1 0x1F NOT PUSH1 0x1F DUP4 ADD AND SWAP1 POP SWAP2 SWAP1 POP JUMP JUMPDEST PUSH0 PUSH2 0xC6 DUP3 PUSH2 0x84 JUMP JUMPDEST PUSH2 0xD0 DUP2 DUP6 PUSH2 0x8E JUMP JUMPDEST SWAP4 POP PUSH2 0xE0 DUP2 DUP6 PUSH1 0x20 DUP7 ADD PUSH2 0x9E JUMP JUMPDEST PUSH2 0xE9 DUP2 PUSH2 0xAC JUMP JUMPDEST DUP5 ADD SWAP2 POP POP SWAP3 SWAP2 POP POP JUMP JUMPDEST PUSH0 PUSH1 0x20 DUP3 ADD SWAP1 POP DUP2 DUP2 SUB PUSH0 DUP4 ADD MSTORE PUSH2 0x10C DUP2 DUP5 PUSH2 0xBC JUMP JUMPDEST SWAP1 POP SWAP3 SWAP2 POP POP JUMP INVALID LOG2 PUSH5 0x6970667358 0x22 SLT KECCAK256 0xB6 RETURNDATASIZE 0xE1 0xA5 0x1E PUSH11 0x61216CF018AB34D55EBBE9 0xB3 DUP1 SWAP7 NUMBER 0xBF 0x23 DUP9 0xDB PUSH14 0xF5DA8972956164736F6C63430008 BYTE STOP CALLER "
				},
				"gasEstimates": {
					"creation": {
						"codeDepositCost": "66000",
						"executionCost": "infinite",
						"totalCost": "infinite"
					},
					"external": {
						"ERC7201_NAMESPACE()": "infinite"
					}
				},
				"methodIdentifiers": {
					"ERC7201_NAMESPACE()": "1516f08e"
				}
			},
			"storageLayout": {
				"storage": [],
				"types": null
			},
			"userdoc": {
				"kind": "user",
				"methods": {},
				"version": 1
			}
		}
	}
}