{
	"contracts/structs/BitMapsTest.sol": {
		"BitMapsTest": {
			"abi": [
				{
					"inputs": [
						{
							"internalType": "uint8",
							"name": "value",
							"type": "uint8"
						}
					],
					"name": "OutOfByteValueRange",
					"type": "error"
				},
				{
					"inputs": [
						{
							"internalType": "uint8",
							"name": "value",
							"type": "uint8"
						}
					],
					"name": "OutOfFourBitValueRange",
					"type": "error"
				},
				{
					"inputs": [
						{
							"internalType": "uint8",
							"name": "value",
							"type": "uint8"
						}
					],
					"name": "OutOfTwoBitValueRange",
					"type": "error"
				},
				{
					"inputs": [
						{
							"internalType": "uint8",
							"name": "value",
							"type": "uint8"
						}
					],
					"name": "addAddressTwoBitsMap",
					"outputs": [],
					"stateMutability": "nonpayable",
					"type": "function"
				},
				{
					"inputs": [
						{
							"internalType": "uint256",
							"name": "data",
							"type": "uint256"
						},
						{
							"internalType": "uint8",
							"name": "value",
							"type": "uint8"
						}
					],
					"name": "addUint256ByteMap",
					"outputs": [],
					"stateMutability": "nonpayable",
					"type": "function"
				},
				{
					"inputs": [
						{
							"internalType": "uint256",
							"name": "data",
							"type": "uint256"
						},
						{
							"internalType": "uint8",
							"name": "value",
							"type": "uint8"
						}
					],
					"name": "addUint256FourBitsMap",
					"outputs": [],
					"stateMutability": "nonpayable",
					"type": "function"
				},
				{
					"inputs": [
						{
							"internalType": "uint256",
							"name": "data",
							"type": "uint256"
						},
						{
							"internalType": "uint8",
							"name": "value",
							"type": "uint8"
						}
					],
					"name": "addUint256TwoBitsMap",
					"outputs": [],
					"stateMutability": "nonpayable",
					"type": "function"
				},
				{
					"inputs": [],
					"name": "calcelFriend",
					"outputs": [],
					"stateMutability": "nonpayable",
					"type": "function"
				},
				{
					"inputs": [],
					"name": "check",
					"outputs": [
						{
							"internalType": "string",
							"name": "result",
							"type": "string"
						}
					],
					"stateMutability": "nonpayable",
					"type": "function"
				},
				{
					"inputs": [],
					"name": "getAddressTwoBitsMap",
					"outputs": [
						{
							"internalType": "uint8",
							"name": "",
							"type": "uint8"
						}
					],
					"stateMutability": "view",
					"type": "function"
				},
				{
					"inputs": [
						{
							"internalType": "uint256",
							"name": "data",
							"type": "uint256"
						}
					],
					"name": "getUint256ByteMap",
					"outputs": [
						{
							"internalType": "uint8",
							"name": "",
							"type": "uint8"
						}
					],
					"stateMutability": "view",
					"type": "function"
				},
				{
					"inputs": [
						{
							"internalType": "uint256",
							"name": "data",
							"type": "uint256"
						}
					],
					"name": "getUint256FourBitsMap",
					"outputs": [
						{
							"internalType": "uint8",
							"name": "",
							"type": "uint8"
						}
					],
					"stateMutability": "view",
					"type": "function"
				},
				{
					"inputs": [
						{
							"internalType": "uint256",
							"name": "data",
							"type": "uint256"
						}
					],
					"name": "getUint256TwoBitsMap",
					"outputs": [
						{
							"internalType": "uint8",
							"name": "",
							"type": "uint8"
						}
					],
					"stateMutability": "view",
					"type": "function"
				}
			],
			"devdoc": {
				"kind": "dev",
				"methods": {},
				"version": 1
			},
			"evm": {
				"assembly": "    /* \"contracts/structs/BitMapsTest.sol\":143:1862  contract BitMapsTest {... */\n  mstore(0x40, 0x80)\n  callvalue\n  dup1\n  iszero\n  tag_1\n  jumpi\n  0x00\n  dup1\n  revert\ntag_1:\n  pop\n  dataSize(sub_0)\n  dup1\n  dataOffset(sub_0)\n  0x00\n  codecopy\n  0x00\n  return\nstop\n\nsub_0: assembly {\n        /* \"contracts/structs/BitMapsTest.sol\":143:1862  contract BitMapsTest {... */\n      mstore(0x40, 0x80)\n      callvalue\n      dup1\n      iszero\n      tag_1\n      jumpi\n      0x00\n      dup1\n      revert\n    tag_1:\n      pop\n      jumpi(tag_2, lt(calldatasize, 0x04))\n      shr(0xe0, calldataload(0x00))\n      dup1\n      0x94fb5fa0\n      gt\n      tag_13\n      jumpi\n      dup1\n      0x94fb5fa0\n      eq\n      tag_8\n      jumpi\n      dup1\n      0xc50115f9\n      eq\n      tag_9\n      jumpi\n      dup1\n      0xdd7af8b0\n      eq\n      tag_10\n      jumpi\n      dup1\n      0xe91e0ef3\n      eq\n      tag_11\n      jumpi\n      dup1\n      0xf5f6f027\n      eq\n      tag_12\n      jumpi\n      jump(tag_2)\n    tag_13:\n      dup1\n      0x1439c35b\n      eq\n      tag_3\n      jumpi\n      dup1\n      0x8146911d\n      eq\n      tag_4\n      jumpi\n      dup1\n      0x82f76880\n      eq\n      tag_5\n      jumpi\n      dup1\n      0x919840ad\n      eq\n      tag_6\n      jumpi\n      dup1\n      0x93eeeb41\n      eq\n      tag_7\n      jumpi\n    tag_2:\n      0x00\n      dup1\n      revert\n        /* \"contracts/structs/BitMapsTest.sol\":1313:1431  function addUint256FourBitsMap(uint256 data,uint8 value) external {... */\n    tag_3:\n      tag_14\n      0x04\n      dup1\n      calldatasize\n      sub\n      dup2\n      add\n      swap1\n      tag_15\n      swap2\n      swap1\n      tag_16\n      jump\t// in\n    tag_15:\n      tag_17\n      jump\t// in\n    tag_14:\n      stop\n        /* \"contracts/structs/BitMapsTest.sol\":805:924  function getAddressTwoBitsMap() external view returns (uint8) {... */\n    tag_4:\n      tag_18\n      tag_19\n      jump\t// in\n    tag_18:\n      mload(0x40)\n      tag_20\n      swap2\n      swap1\n      tag_21\n      jump\t// in\n    tag_20:\n      mload(0x40)\n      dup1\n      swap2\n      sub\n      swap1\n      return\n        /* \"contracts/structs/BitMapsTest.sol\":1113:1238  function getUint256TwoBitsMap(uint256 data) external view returns (uint8) {... */\n    tag_5:\n      tag_22\n      0x04\n      dup1\n      calldatasize\n      sub\n      dup2\n      add\n      swap1\n      tag_23\n      swap2\n      swap1\n      tag_24\n      jump\t// in\n    tag_23:\n      tag_25\n      jump\t// in\n    tag_22:\n      mload(0x40)\n      tag_26\n      swap2\n      swap1\n      tag_21\n      jump\t// in\n    tag_26:\n      mload(0x40)\n      dup1\n      swap2\n      sub\n      swap1\n      return\n        /* \"contracts/structs/BitMapsTest.sol\":242:506  function check() external returns (string memory result) {... */\n    tag_6:\n      tag_27\n      tag_28\n      jump\t// in\n    tag_27:\n      mload(0x40)\n      tag_29\n      swap2\n      swap1\n      tag_30\n      jump\t// in\n    tag_29:\n      mload(0x40)\n      dup1\n      swap2\n      sub\n      swap1\n      return\n        /* \"contracts/structs/BitMapsTest.sol\":691:800  function addAddressTwoBitsMap(uint8 value) external {... */\n    tag_7:\n      tag_31\n      0x04\n      dup1\n      calldatasize\n      sub\n      dup2\n      add\n      swap1\n      tag_32\n      swap2\n      swap1\n      tag_33\n      jump\t// in\n    tag_32:\n      tag_34\n      jump\t// in\n    tag_31:\n      stop\n        /* \"contracts/structs/BitMapsTest.sol\":1626:1736  function addUint256ByteMap(uint256 data,uint8 value) external {... */\n    tag_8:\n      tag_35\n      0x04\n      dup1\n      calldatasize\n      sub\n      dup2\n      add\n      swap1\n      tag_36\n      swap2\n      swap1\n      tag_16\n      jump\t// in\n    tag_36:\n      tag_37\n      jump\t// in\n    tag_35:\n      stop\n        /* \"contracts/structs/BitMapsTest.sol\":1741:1860  function getUint256ByteMap(uint256 data) external view returns (uint8) {... */\n    tag_9:\n      tag_38\n      0x04\n      dup1\n      calldatasize\n      sub\n      dup2\n      add\n      swap1\n      tag_39\n      swap2\n      swap1\n      tag_24\n      jump\t// in\n    tag_39:\n      tag_40\n      jump\t// in\n    tag_38:\n      mload(0x40)\n      tag_41\n      swap2\n      swap1\n      tag_21\n      jump\t// in\n    tag_41:\n      mload(0x40)\n      dup1\n      swap2\n      sub\n      swap1\n      return\n        /* \"contracts/structs/BitMapsTest.sol\":1436:1563  function getUint256FourBitsMap(uint256 data) external view returns (uint8) {... */\n    tag_10:\n      tag_42\n      0x04\n      dup1\n      calldatasize\n      sub\n      dup2\n      add\n      swap1\n      tag_43\n      swap2\n      swap1\n      tag_24\n      jump\t// in\n    tag_43:\n      tag_44\n      jump\t// in\n    tag_42:\n      mload(0x40)\n      tag_45\n      swap2\n      swap1\n      tag_21\n      jump\t// in\n    tag_45:\n      mload(0x40)\n      dup1\n      swap2\n      sub\n      swap1\n      return\n        /* \"contracts/structs/BitMapsTest.sol\":512:591  function calcelFriend() external {... */\n    tag_11:\n      tag_46\n      tag_47\n      jump\t// in\n    tag_46:\n      stop\n        /* \"contracts/structs/BitMapsTest.sol\":992:1108  function addUint256TwoBitsMap(uint256 data,uint8 value) external {... */\n    tag_12:\n      tag_48\n      0x04\n      dup1\n      calldatasize\n      sub\n      dup2\n      add\n      swap1\n      tag_49\n      swap2\n      swap1\n      tag_16\n      jump\t// in\n    tag_49:\n      tag_50\n      jump\t// in\n    tag_48:\n      stop\n        /* \"contracts/structs/BitMapsTest.sol\":1313:1431  function addUint256FourBitsMap(uint256 data,uint8 value) external {... */\n    tag_17:\n        /* \"contracts/structs/BitMapsTest.sol\":1389:1424  uint256FourBitsMap.set(data, value) */\n      tag_52\n        /* \"contracts/structs/BitMapsTest.sol\":1412:1416  data */\n      dup3\n        /* \"contracts/structs/BitMapsTest.sol\":1418:1423  value */\n      dup3\n        /* \"contracts/structs/BitMapsTest.sol\":1389:1407  uint256FourBitsMap */\n      0x03\n        /* \"contracts/structs/BitMapsTest.sol\":1389:1411  uint256FourBitsMap.set */\n      tag_53\n      swap1\n        /* \"contracts/structs/BitMapsTest.sol\":1389:1424  uint256FourBitsMap.set(data, value) */\n      swap3\n      swap2\n      swap1\n      0xffffffff\n      and\n      jump\t// in\n    tag_52:\n        /* \"contracts/structs/BitMapsTest.sol\":1313:1431  function addUint256FourBitsMap(uint256 data,uint8 value) external {... */\n      pop\n      pop\n      jump\t// out\n        /* \"contracts/structs/BitMapsTest.sol\":805:924  function getAddressTwoBitsMap() external view returns (uint8) {... */\n    tag_19:\n        /* \"contracts/structs/BitMapsTest.sol\":860:865  uint8 */\n      0x00\n        /* \"contracts/structs/BitMapsTest.sol\":884:917  addressTwoBitsMap.get(msg.sender) */\n      tag_55\n        /* \"contracts/structs/BitMapsTest.sol\":906:916  msg.sender */\n      caller\n        /* \"contracts/structs/BitMapsTest.sol\":884:901  addressTwoBitsMap */\n      0x01\n        /* \"contracts/structs/BitMapsTest.sol\":884:905  addressTwoBitsMap.get */\n      tag_56\n      swap1\n        /* \"contracts/structs/BitMapsTest.sol\":884:917  addressTwoBitsMap.get(msg.sender) */\n      swap2\n      swap1\n      0xffffffff\n      and\n      jump\t// in\n    tag_55:\n        /* \"contracts/structs/BitMapsTest.sol\":877:917  return addressTwoBitsMap.get(msg.sender) */\n      swap1\n      pop\n        /* \"contracts/structs/BitMapsTest.sol\":805:924  function getAddressTwoBitsMap() external view returns (uint8) {... */\n      swap1\n      jump\t// out\n        /* \"contracts/structs/BitMapsTest.sol\":1113:1238  function getUint256TwoBitsMap(uint256 data) external view returns (uint8) {... */\n    tag_25:\n        /* \"contracts/structs/BitMapsTest.sol\":1180:1185  uint8 */\n      0x00\n        /* \"contracts/structs/BitMapsTest.sol\":1204:1231  uint256TwoBitsMap.get(data) */\n      tag_58\n        /* \"contracts/structs/BitMapsTest.sol\":1226:1230  data */\n      dup3\n        /* \"contracts/structs/BitMapsTest.sol\":1204:1221  uint256TwoBitsMap */\n      0x02\n        /* \"contracts/structs/BitMapsTest.sol\":1204:1225  uint256TwoBitsMap.get */\n      tag_59\n      swap1\n        /* \"contracts/structs/BitMapsTest.sol\":1204:1231  uint256TwoBitsMap.get(data) */\n      swap2\n      swap1\n      0xffffffff\n      and\n      jump\t// in\n    tag_58:\n        /* \"contracts/structs/BitMapsTest.sol\":1197:1231  return uint256TwoBitsMap.get(data) */\n      swap1\n      pop\n        /* \"contracts/structs/BitMapsTest.sol\":1113:1238  function getUint256TwoBitsMap(uint256 data) external view returns (uint8) {... */\n      swap2\n      swap1\n      pop\n      jump\t// out\n        /* \"contracts/structs/BitMapsTest.sol\":242:506  function check() external returns (string memory result) {... */\n    tag_28:\n        /* \"contracts/structs/BitMapsTest.sol\":277:297  string memory result */\n      0x60\n        /* \"contracts/structs/BitMapsTest.sol\":314:341  checkAccess.get(msg.sender) */\n      tag_61\n        /* \"contracts/structs/BitMapsTest.sol\":330:340  msg.sender */\n      caller\n        /* \"contracts/structs/BitMapsTest.sol\":314:325  checkAccess */\n      0x00\n        /* \"contracts/structs/BitMapsTest.sol\":314:329  checkAccess.get */\n      tag_62\n      swap1\n        /* \"contracts/structs/BitMapsTest.sol\":314:341  checkAccess.get(msg.sender) */\n      swap2\n      swap1\n      0xffffffff\n      and\n      jump\t// in\n    tag_61:\n        /* \"contracts/structs/BitMapsTest.sol\":309:500  if (!checkAccess.get(msg.sender)) {... */\n      tag_63\n      jumpi\n        /* \"contracts/structs/BitMapsTest.sol\":357:393  result = \"welcome, nice to meet you\" */\n      mload(0x40)\n      dup1\n      0x40\n      add\n      0x40\n      mstore\n      dup1\n      0x19\n      dup2\n      mstore\n      0x20\n      add\n      0x77656c636f6d652c206e69636520746f206d65657420796f7500000000000000\n      dup2\n      mstore\n      pop\n      swap1\n      pop\n        /* \"contracts/structs/BitMapsTest.sol\":407:434  checkAccess.set(msg.sender) */\n      tag_64\n        /* \"contracts/structs/BitMapsTest.sol\":423:433  msg.sender */\n      caller\n        /* \"contracts/structs/BitMapsTest.sol\":407:418  checkAccess */\n      0x00\n        /* \"contracts/structs/BitMapsTest.sol\":407:422  checkAccess.set */\n      tag_65\n      swap1\n        /* \"contracts/structs/BitMapsTest.sol\":407:434  checkAccess.set(msg.sender) */\n      swap2\n      swap1\n      0xffffffff\n      and\n      jump\t// in\n    tag_64:\n        /* \"contracts/structs/BitMapsTest.sol\":309:500  if (!checkAccess.get(msg.sender)) {... */\n      jump(tag_66)\n    tag_63:\n        /* \"contracts/structs/BitMapsTest.sol\":464:489  result = \"hi, my brother\" */\n      mload(0x40)\n      dup1\n      0x40\n      add\n      0x40\n      mstore\n      dup1\n      0x0e\n      dup2\n      mstore\n      0x20\n      add\n      0x68692c206d792062726f74686572000000000000000000000000000000000000\n      dup2\n      mstore\n      pop\n      swap1\n      pop\n        /* \"contracts/structs/BitMapsTest.sol\":309:500  if (!checkAccess.get(msg.sender)) {... */\n    tag_66:\n        /* \"contracts/structs/BitMapsTest.sol\":242:506  function check() external returns (string memory result) {... */\n      swap1\n      jump\t// out\n        /* \"contracts/structs/BitMapsTest.sol\":691:800  function addAddressTwoBitsMap(uint8 value) external {... */\n    tag_34:\n        /* \"contracts/structs/BitMapsTest.sol\":753:793  addressTwoBitsMap.set(msg.sender, value) */\n      tag_68\n        /* \"contracts/structs/BitMapsTest.sol\":775:785  msg.sender */\n      caller\n        /* \"contracts/structs/BitMapsTest.sol\":787:792  value */\n      dup3\n        /* \"contracts/structs/BitMapsTest.sol\":753:770  addressTwoBitsMap */\n      0x01\n        /* \"contracts/structs/BitMapsTest.sol\":753:774  addressTwoBitsMap.set */\n      tag_69\n      swap1\n        /* \"contracts/structs/BitMapsTest.sol\":753:793  addressTwoBitsMap.set(msg.sender, value) */\n      swap3\n      swap2\n      swap1\n      0xffffffff\n      and\n      jump\t// in\n    tag_68:\n        /* \"contracts/structs/BitMapsTest.sol\":691:800  function addAddressTwoBitsMap(uint8 value) external {... */\n      pop\n      jump\t// out\n        /* \"contracts/structs/BitMapsTest.sol\":1626:1736  function addUint256ByteMap(uint256 data,uint8 value) external {... */\n    tag_37:\n        /* \"contracts/structs/BitMapsTest.sol\":1698:1729  uint256ByteMap.set(data, value) */\n      tag_71\n        /* \"contracts/structs/BitMapsTest.sol\":1717:1721  data */\n      dup3\n        /* \"contracts/structs/BitMapsTest.sol\":1723:1728  value */\n      dup3\n        /* \"contracts/structs/BitMapsTest.sol\":1698:1712  uint256ByteMap */\n      0x04\n        /* \"contracts/structs/BitMapsTest.sol\":1698:1716  uint256ByteMap.set */\n      tag_72\n      swap1\n        /* \"contracts/structs/BitMapsTest.sol\":1698:1729  uint256ByteMap.set(data, value) */\n      swap3\n      swap2\n      swap1\n      0xffffffff\n      and\n      jump\t// in\n    tag_71:\n        /* \"contracts/structs/BitMapsTest.sol\":1626:1736  function addUint256ByteMap(uint256 data,uint8 value) external {... */\n      pop\n      pop\n      jump\t// out\n        /* \"contracts/structs/BitMapsTest.sol\":1741:1860  function getUint256ByteMap(uint256 data) external view returns (uint8) {... */\n    tag_40:\n        /* \"contracts/structs/BitMapsTest.sol\":1805:1810  uint8 */\n      0x00\n        /* \"contracts/structs/BitMapsTest.sol\":1829:1853  uint256ByteMap.get(data) */\n      tag_74\n        /* \"contracts/structs/BitMapsTest.sol\":1848:1852  data */\n      dup3\n        /* \"contracts/structs/BitMapsTest.sol\":1829:1843  uint256ByteMap */\n      0x04\n        /* \"contracts/structs/BitMapsTest.sol\":1829:1847  uint256ByteMap.get */\n      tag_75\n      swap1\n        /* \"contracts/structs/BitMapsTest.sol\":1829:1853  uint256ByteMap.get(data) */\n      swap2\n      swap1\n      0xffffffff\n      and\n      jump\t// in\n    tag_74:\n        /* \"contracts/structs/BitMapsTest.sol\":1822:1853  return uint256ByteMap.get(data) */\n      swap1\n      pop\n        /* \"contracts/structs/BitMapsTest.sol\":1741:1860  function getUint256ByteMap(uint256 data) external view returns (uint8) {... */\n      swap2\n      swap1\n      pop\n      jump\t// out\n        /* \"contracts/structs/BitMapsTest.sol\":1436:1563  function getUint256FourBitsMap(uint256 data) external view returns (uint8) {... */\n    tag_44:\n        /* \"contracts/structs/BitMapsTest.sol\":1504:1509  uint8 */\n      0x00\n        /* \"contracts/structs/BitMapsTest.sol\":1528:1556  uint256FourBitsMap.get(data) */\n      tag_77\n        /* \"contracts/structs/BitMapsTest.sol\":1551:1555  data */\n      dup3\n        /* \"contracts/structs/BitMapsTest.sol\":1528:1546  uint256FourBitsMap */\n      0x03\n        /* \"contracts/structs/BitMapsTest.sol\":1528:1550  uint256FourBitsMap.get */\n      tag_78\n      swap1\n        /* \"contracts/structs/BitMapsTest.sol\":1528:1556  uint256FourBitsMap.get(data) */\n      swap2\n      swap1\n      0xffffffff\n      and\n      jump\t// in\n    tag_77:\n        /* \"contracts/structs/BitMapsTest.sol\":1521:1556  return uint256FourBitsMap.get(data) */\n      swap1\n      pop\n        /* \"contracts/structs/BitMapsTest.sol\":1436:1563  function getUint256FourBitsMap(uint256 data) external view returns (uint8) {... */\n      swap2\n      swap1\n      pop\n      jump\t// out\n        /* \"contracts/structs/BitMapsTest.sol\":512:591  function calcelFriend() external {... */\n    tag_47:\n        /* \"contracts/structs/BitMapsTest.sol\":555:584  checkAccess.unset(msg.sender) */\n      tag_80\n        /* \"contracts/structs/BitMapsTest.sol\":573:583  msg.sender */\n      caller\n        /* \"contracts/structs/BitMapsTest.sol\":555:566  checkAccess */\n      0x00\n        /* \"contracts/structs/BitMapsTest.sol\":555:572  checkAccess.unset */\n      tag_81\n      swap1\n        /* \"contracts/structs/BitMapsTest.sol\":555:584  checkAccess.unset(msg.sender) */\n      swap2\n      swap1\n      0xffffffff\n      and\n      jump\t// in\n    tag_80:\n        /* \"contracts/structs/BitMapsTest.sol\":512:591  function calcelFriend() external {... */\n      jump\t// out\n        /* \"contracts/structs/BitMapsTest.sol\":992:1108  function addUint256TwoBitsMap(uint256 data,uint8 value) external {... */\n    tag_50:\n        /* \"contracts/structs/BitMapsTest.sol\":1067:1101  uint256TwoBitsMap.set(data, value) */\n      tag_83\n        /* \"contracts/structs/BitMapsTest.sol\":1089:1093  data */\n      dup3\n        /* \"contracts/structs/BitMapsTest.sol\":1095:1100  value */\n      dup3\n        /* \"contracts/structs/BitMapsTest.sol\":1067:1084  uint256TwoBitsMap */\n      0x02\n        /* \"contracts/structs/BitMapsTest.sol\":1067:1088  uint256TwoBitsMap.set */\n      tag_84\n      swap1\n        /* \"contracts/structs/BitMapsTest.sol\":1067:1101  uint256TwoBitsMap.set(data, value) */\n      swap3\n      swap2\n      swap1\n      0xffffffff\n      and\n      jump\t// in\n    tag_83:\n        /* \"contracts/structs/BitMapsTest.sol\":992:1108  function addUint256TwoBitsMap(uint256 data,uint8 value) external {... */\n      pop\n      pop\n      jump\t// out\n        /* \"contracts/structs/MultiBitsMaps.sol\":6627:6760  function set(Uint256FourBitsMap storage bitmap, uint256 data, uint8 value) internal {... */\n    tag_53:\n        /* \"contracts/structs/MultiBitsMaps.sol\":6721:6753  _set(bitmap._inner, data, value) */\n      tag_86\n        /* \"contracts/structs/MultiBitsMaps.sol\":6726:6732  bitmap */\n      dup4\n        /* \"contracts/structs/MultiBitsMaps.sol\":6726:6739  bitmap._inner */\n      0x00\n      add\n        /* \"contracts/structs/MultiBitsMaps.sol\":6741:6745  data */\n      dup4\n        /* \"contracts/structs/MultiBitsMaps.sol\":6747:6752  value */\n      dup4\n        /* \"contracts/structs/MultiBitsMaps.sol\":6721:6725  _set */\n      tag_87\n        /* \"contracts/structs/MultiBitsMaps.sol\":6721:6753  _set(bitmap._inner, data, value) */\n      jump\t// in\n    tag_86:\n        /* \"contracts/structs/MultiBitsMaps.sol\":6627:6760  function set(Uint256FourBitsMap storage bitmap, uint256 data, uint8 value) internal {... */\n      pop\n      pop\n      pop\n      jump\t// out\n        /* \"contracts/structs/MultiBitsMaps.sol\":3641:3800  function get(AddressTwoBitsMap storage bitmap, address data) internal view returns (uint8) {... */\n    tag_56:\n        /* \"contracts/structs/MultiBitsMaps.sol\":3725:3730  uint8 */\n      0x00\n        /* \"contracts/structs/MultiBitsMaps.sol\":3749:3793  _get(bitmap._inner, _addressToUint256(data)) */\n      tag_89\n        /* \"contracts/structs/MultiBitsMaps.sol\":3754:3760  bitmap */\n      dup4\n        /* \"contracts/structs/MultiBitsMaps.sol\":3754:3767  bitmap._inner */\n      0x00\n      add\n        /* \"contracts/structs/MultiBitsMaps.sol\":3769:3792  _addressToUint256(data) */\n      tag_90\n        /* \"contracts/structs/MultiBitsMaps.sol\":3787:3791  data */\n      dup5\n        /* \"contracts/structs/MultiBitsMaps.sol\":3769:3786  _addressToUint256 */\n      tag_91\n        /* \"contracts/structs/MultiBitsMaps.sol\":3769:3792  _addressToUint256(data) */\n      jump\t// in\n    tag_90:\n        /* \"contracts/structs/MultiBitsMaps.sol\":3749:3753  _get */\n      tag_92\n        /* \"contracts/structs/MultiBitsMaps.sol\":3749:3793  _get(bitmap._inner, _addressToUint256(data)) */\n      jump\t// in\n    tag_89:\n        /* \"contracts/structs/MultiBitsMaps.sol\":3742:3793  return _get(bitmap._inner, _addressToUint256(data)) */\n      swap1\n      pop\n        /* \"contracts/structs/MultiBitsMaps.sol\":3641:3800  function get(AddressTwoBitsMap storage bitmap, address data) internal view returns (uint8) {... */\n      swap3\n      swap2\n      pop\n      pop\n      jump\t// out\n        /* \"contracts/structs/MultiBitsMaps.sol\":3060:3200  function get(Uint256TwoBitsMap storage bitmap, uint256 data) internal view returns (uint8) {... */\n    tag_59:\n        /* \"contracts/structs/MultiBitsMaps.sol\":3144:3149  uint8 */\n      0x00\n        /* \"contracts/structs/MultiBitsMaps.sol\":3168:3193  _get(bitmap._inner, data) */\n      tag_94\n        /* \"contracts/structs/MultiBitsMaps.sol\":3173:3179  bitmap */\n      dup4\n        /* \"contracts/structs/MultiBitsMaps.sol\":3173:3186  bitmap._inner */\n      0x00\n      add\n        /* \"contracts/structs/MultiBitsMaps.sol\":3188:3192  data */\n      dup4\n        /* \"contracts/structs/MultiBitsMaps.sol\":3168:3172  _get */\n      tag_92\n        /* \"contracts/structs/MultiBitsMaps.sol\":3168:3193  _get(bitmap._inner, data) */\n      jump\t// in\n    tag_94:\n        /* \"contracts/structs/MultiBitsMaps.sol\":3161:3193  return _get(bitmap._inner, data) */\n      swap1\n      pop\n        /* \"contracts/structs/MultiBitsMaps.sol\":3060:3200  function get(Uint256TwoBitsMap storage bitmap, uint256 data) internal view returns (uint8) {... */\n      swap3\n      swap2\n      pop\n      pop\n      jump\t// out\n        /* \"contracts/structs/BitMaps.sol\":2752:2906  function get(AddressBitMap storage bitmap, address data) internal view returns (bool) {... */\n    tag_62:\n        /* \"contracts/structs/BitMaps.sol\":2832:2836  bool */\n      0x00\n        /* \"contracts/structs/BitMaps.sol\":2855:2899  _get(bitmap._inner, _addressToUint256(data)) */\n      tag_96\n        /* \"contracts/structs/BitMaps.sol\":2860:2866  bitmap */\n      dup4\n        /* \"contracts/structs/BitMaps.sol\":2860:2873  bitmap._inner */\n      0x00\n      add\n        /* \"contracts/structs/BitMaps.sol\":2875:2898  _addressToUint256(data) */\n      tag_97\n        /* \"contracts/structs/BitMaps.sol\":2893:2897  data */\n      dup5\n        /* \"contracts/structs/BitMaps.sol\":2875:2892  _addressToUint256 */\n      tag_98\n        /* \"contracts/structs/BitMaps.sol\":2875:2898  _addressToUint256(data) */\n      jump\t// in\n    tag_97:\n        /* \"contracts/structs/BitMaps.sol\":2855:2859  _get */\n      tag_99\n        /* \"contracts/structs/BitMaps.sol\":2855:2899  _get(bitmap._inner, _addressToUint256(data)) */\n      jump\t// in\n    tag_96:\n        /* \"contracts/structs/BitMaps.sol\":2848:2899  return _get(bitmap._inner, _addressToUint256(data)) */\n      swap1\n      pop\n        /* \"contracts/structs/BitMaps.sol\":2752:2906  function get(AddressBitMap storage bitmap, address data) internal view returns (bool) {... */\n      swap3\n      swap2\n      pop\n      pop\n      jump\t// out\n        /* \"contracts/structs/BitMaps.sol\":3195:3322  function set(AddressBitMap storage bitmap, address data) internal {... */\n    tag_65:\n        /* \"contracts/structs/BitMaps.sol\":3271:3315  _set(bitmap._inner, _addressToUint256(data)) */\n      tag_101\n        /* \"contracts/structs/BitMaps.sol\":3276:3282  bitmap */\n      dup3\n        /* \"contracts/structs/BitMaps.sol\":3276:3289  bitmap._inner */\n      0x00\n      add\n        /* \"contracts/structs/BitMaps.sol\":3291:3314  _addressToUint256(data) */\n      tag_102\n        /* \"contracts/structs/BitMaps.sol\":3309:3313  data */\n      dup4\n        /* \"contracts/structs/BitMaps.sol\":3291:3308  _addressToUint256 */\n      tag_98\n        /* \"contracts/structs/BitMaps.sol\":3291:3314  _addressToUint256(data) */\n      jump\t// in\n    tag_102:\n        /* \"contracts/structs/BitMaps.sol\":3271:3275  _set */\n      tag_103\n        /* \"contracts/structs/BitMaps.sol\":3271:3315  _set(bitmap._inner, _addressToUint256(data)) */\n      jump\t// in\n    tag_101:\n        /* \"contracts/structs/BitMaps.sol\":3195:3322  function set(AddressBitMap storage bitmap, address data) internal {... */\n      pop\n      pop\n      jump\t// out\n        /* \"contracts/structs/MultiBitsMaps.sol\":3877:4028  function set(AddressTwoBitsMap storage bitmap, address data, uint8 value) internal {... */\n    tag_69:\n        /* \"contracts/structs/MultiBitsMaps.sol\":3970:4021  _set(bitmap._inner, _addressToUint256(data), value) */\n      tag_105\n        /* \"contracts/structs/MultiBitsMaps.sol\":3975:3981  bitmap */\n      dup4\n        /* \"contracts/structs/MultiBitsMaps.sol\":3975:3988  bitmap._inner */\n      0x00\n      add\n        /* \"contracts/structs/MultiBitsMaps.sol\":3990:4013  _addressToUint256(data) */\n      tag_106\n        /* \"contracts/structs/MultiBitsMaps.sol\":4008:4012  data */\n      dup5\n        /* \"contracts/structs/MultiBitsMaps.sol\":3990:4007  _addressToUint256 */\n      tag_91\n        /* \"contracts/structs/MultiBitsMaps.sol\":3990:4013  _addressToUint256(data) */\n      jump\t// in\n    tag_106:\n        /* \"contracts/structs/MultiBitsMaps.sol\":4015:4020  value */\n      dup4\n        /* \"contracts/structs/MultiBitsMaps.sol\":3970:3974  _set */\n      tag_107\n        /* \"contracts/structs/MultiBitsMaps.sol\":3970:4021  _set(bitmap._inner, _addressToUint256(data), value) */\n      jump\t// in\n    tag_105:\n        /* \"contracts/structs/MultiBitsMaps.sol\":3877:4028  function set(AddressTwoBitsMap storage bitmap, address data, uint8 value) internal {... */\n      pop\n      pop\n      pop\n      jump\t// out\n        /* \"contracts/structs/MultiBitsMaps.sol\":9088:9217  function set(Uint256ByteMap storage bitmap, uint256 data, uint8 value) internal {... */\n    tag_72:\n        /* \"contracts/structs/MultiBitsMaps.sol\":9178:9210  _set(bitmap._inner, data, value) */\n      tag_109\n        /* \"contracts/structs/MultiBitsMaps.sol\":9183:9189  bitmap */\n      dup4\n        /* \"contracts/structs/MultiBitsMaps.sol\":9183:9196  bitmap._inner */\n      0x00\n      add\n        /* \"contracts/structs/MultiBitsMaps.sol\":9198:9202  data */\n      dup4\n        /* \"contracts/structs/MultiBitsMaps.sol\":9204:9209  value */\n      dup4\n        /* \"contracts/structs/MultiBitsMaps.sol\":9178:9182  _set */\n      tag_110\n        /* \"contracts/structs/MultiBitsMaps.sol\":9178:9210  _set(bitmap._inner, data, value) */\n      jump\t// in\n    tag_109:\n        /* \"contracts/structs/MultiBitsMaps.sol\":9088:9217  function set(Uint256ByteMap storage bitmap, uint256 data, uint8 value) internal {... */\n      pop\n      pop\n      pop\n      jump\t// out\n        /* \"contracts/structs/MultiBitsMaps.sol\":8945:9082  function get(Uint256ByteMap storage bitmap, uint256 data) internal view returns (uint8) {... */\n    tag_75:\n        /* \"contracts/structs/MultiBitsMaps.sol\":9026:9031  uint8 */\n      0x00\n        /* \"contracts/structs/MultiBitsMaps.sol\":9050:9075  _get(bitmap._inner, data) */\n      tag_112\n        /* \"contracts/structs/MultiBitsMaps.sol\":9055:9061  bitmap */\n      dup4\n        /* \"contracts/structs/MultiBitsMaps.sol\":9055:9068  bitmap._inner */\n      0x00\n      add\n        /* \"contracts/structs/MultiBitsMaps.sol\":9070:9074  data */\n      dup4\n        /* \"contracts/structs/MultiBitsMaps.sol\":9050:9054  _get */\n      tag_113\n        /* \"contracts/structs/MultiBitsMaps.sol\":9050:9075  _get(bitmap._inner, data) */\n      jump\t// in\n    tag_112:\n        /* \"contracts/structs/MultiBitsMaps.sol\":9043:9075  return _get(bitmap._inner, data) */\n      swap1\n      pop\n        /* \"contracts/structs/MultiBitsMaps.sol\":8945:9082  function get(Uint256ByteMap storage bitmap, uint256 data) internal view returns (uint8) {... */\n      swap3\n      swap2\n      pop\n      pop\n      jump\t// out\n        /* \"contracts/structs/MultiBitsMaps.sol\":6480:6621  function get(Uint256FourBitsMap storage bitmap, uint256 data) internal view returns (uint8) {... */\n    tag_78:\n        /* \"contracts/structs/MultiBitsMaps.sol\":6565:6570  uint8 */\n      0x00\n        /* \"contracts/structs/MultiBitsMaps.sol\":6589:6614  _get(bitmap._inner, data) */\n      tag_115\n        /* \"contracts/structs/MultiBitsMaps.sol\":6594:6600  bitmap */\n      dup4\n        /* \"contracts/structs/MultiBitsMaps.sol\":6594:6607  bitmap._inner */\n      0x00\n      add\n        /* \"contracts/structs/MultiBitsMaps.sol\":6609:6613  data */\n      dup4\n        /* \"contracts/structs/MultiBitsMaps.sol\":6589:6593  _get */\n      tag_116\n        /* \"contracts/structs/MultiBitsMaps.sol\":6589:6614  _get(bitmap._inner, data) */\n      jump\t// in\n    tag_115:\n        /* \"contracts/structs/MultiBitsMaps.sol\":6582:6614  return _get(bitmap._inner, data) */\n      swap1\n      pop\n        /* \"contracts/structs/MultiBitsMaps.sol\":6480:6621  function get(Uint256FourBitsMap storage bitmap, uint256 data) internal view returns (uint8) {... */\n      swap3\n      swap2\n      pop\n      pop\n      jump\t// out\n        /* \"contracts/structs/BitMaps.sol\":3382:3513  function unset(AddressBitMap storage bitmap, address data) internal {... */\n    tag_81:\n        /* \"contracts/structs/BitMaps.sol\":3460:3506  _unset(bitmap._inner, _addressToUint256(data)) */\n      tag_118\n        /* \"contracts/structs/BitMaps.sol\":3467:3473  bitmap */\n      dup3\n        /* \"contracts/structs/BitMaps.sol\":3467:3480  bitmap._inner */\n      0x00\n      add\n        /* \"contracts/structs/BitMaps.sol\":3482:3505  _addressToUint256(data) */\n      tag_119\n        /* \"contracts/structs/BitMaps.sol\":3500:3504  data */\n      dup4\n        /* \"contracts/structs/BitMaps.sol\":3482:3499  _addressToUint256 */\n      tag_98\n        /* \"contracts/structs/BitMaps.sol\":3482:3505  _addressToUint256(data) */\n      jump\t// in\n    tag_119:\n        /* \"contracts/structs/BitMaps.sol\":3460:3466  _unset */\n      tag_120\n        /* \"contracts/structs/BitMaps.sol\":3460:3506  _unset(bitmap._inner, _addressToUint256(data)) */\n      jump\t// in\n    tag_118:\n        /* \"contracts/structs/BitMaps.sol\":3382:3513  function unset(AddressBitMap storage bitmap, address data) internal {... */\n      pop\n      pop\n      jump\t// out\n        /* \"contracts/structs/MultiBitsMaps.sol\":3277:3409  function set(Uint256TwoBitsMap storage bitmap, uint256 data, uint8 value) internal {... */\n    tag_84:\n        /* \"contracts/structs/MultiBitsMaps.sol\":3370:3402  _set(bitmap._inner, data, value) */\n      tag_122\n        /* \"contracts/structs/MultiBitsMaps.sol\":3375:3381  bitmap */\n      dup4\n        /* \"contracts/structs/MultiBitsMaps.sol\":3375:3388  bitmap._inner */\n      0x00\n      add\n        /* \"contracts/structs/MultiBitsMaps.sol\":3390:3394  data */\n      dup4\n        /* \"contracts/structs/MultiBitsMaps.sol\":3396:3401  value */\n      dup4\n        /* \"contracts/structs/MultiBitsMaps.sol\":3370:3374  _set */\n      tag_107\n        /* \"contracts/structs/MultiBitsMaps.sol\":3370:3402  _set(bitmap._inner, data, value) */\n      jump\t// in\n    tag_122:\n        /* \"contracts/structs/MultiBitsMaps.sol\":3277:3409  function set(Uint256TwoBitsMap storage bitmap, uint256 data, uint8 value) internal {... */\n      pop\n      pop\n      pop\n      jump\t// out\n        /* \"contracts/structs/MultiBitsMaps.sol\":5657:6015  function _set(FourBitsMap storage bitmap, uint256 data, uint8 value) private {... */\n    tag_87:\n        /* \"contracts/structs/MultiBitsMaps.sol\":5756:5760  0x0F */\n      0x0f\n        /* \"contracts/structs/MultiBitsMaps.sol\":5748:5753  value */\n      dup2\n        /* \"contracts/structs/MultiBitsMaps.sol\":5748:5760  value > 0x0F */\n      0xff\n      and\n      gt\n        /* \"contracts/structs/MultiBitsMaps.sol\":5744:5823  if (value > 0x0F) {... */\n      iszero\n      tag_124\n      jumpi\n        /* \"contracts/structs/MultiBitsMaps.sol\":5806:5811  value */\n      dup1\n        /* \"contracts/structs/MultiBitsMaps.sol\":5783:5812  OutOfFourBitValueRange(value) */\n      mload(0x40)\n      0x82b0e9dc00000000000000000000000000000000000000000000000000000000\n      dup2\n      mstore\n      0x04\n      add\n      tag_125\n      swap2\n      swap1\n      tag_21\n      jump\t// in\n    tag_125:\n      mload(0x40)\n      dup1\n      swap2\n      sub\n      swap1\n      revert\n        /* \"contracts/structs/MultiBitsMaps.sol\":5744:5823  if (value > 0x0F) {... */\n    tag_124:\n        /* \"contracts/structs/MultiBitsMaps.sol\":5833:5847  uint256 bucket */\n      0x00\n        /* \"contracts/structs/MultiBitsMaps.sol\":5849:5861  uint256 mask */\n      dup1\n        /* \"contracts/structs/MultiBitsMaps.sol\":5863:5878  uint8 bitOffset */\n      0x00\n        /* \"contracts/structs/MultiBitsMaps.sol\":5882:5913  _calcFourBitBucketAndMask(data) */\n      tag_126\n        /* \"contracts/structs/MultiBitsMaps.sol\":5908:5912  data */\n      dup6\n        /* \"contracts/structs/MultiBitsMaps.sol\":5882:5907  _calcFourBitBucketAndMask */\n      tag_127\n        /* \"contracts/structs/MultiBitsMaps.sol\":5882:5913  _calcFourBitBucketAndMask(data) */\n      jump\t// in\n    tag_126:\n        /* \"contracts/structs/MultiBitsMaps.sol\":5832:5913  (uint256 bucket, uint256 mask, uint8 bitOffset) = _calcFourBitBucketAndMask(data) */\n      swap3\n      pop\n      swap3\n      pop\n      swap3\n      pop\n        /* \"contracts/structs/MultiBitsMaps.sol\":5998:6007  bitOffset */\n      dup1\n        /* \"contracts/structs/MultiBitsMaps.sol\":5980:6007  uint256(value) << bitOffset */\n      0xff\n      and\n        /* \"contracts/structs/MultiBitsMaps.sol\":5988:5993  value */\n      dup5\n        /* \"contracts/structs/MultiBitsMaps.sol\":5980:5994  uint256(value) */\n      0xff\n      and\n        /* \"contracts/structs/MultiBitsMaps.sol\":5980:6007  uint256(value) << bitOffset */\n      swap1\n      shl\n        /* \"contracts/structs/MultiBitsMaps.sol\":5971:5975  mask */\n      dup3\n        /* \"contracts/structs/MultiBitsMaps.sol\":5970:5975  ~mask */\n      not\n        /* \"contracts/structs/MultiBitsMaps.sol\":5947:5953  bitmap */\n      dup8\n        /* \"contracts/structs/MultiBitsMaps.sol\":5947:5959  bitmap._data */\n      0x00\n      add\n        /* \"contracts/structs/MultiBitsMaps.sol\":5947:5967  bitmap._data[bucket] */\n      0x00\n        /* \"contracts/structs/MultiBitsMaps.sol\":5960:5966  bucket */\n      dup7\n        /* \"contracts/structs/MultiBitsMaps.sol\":5947:5967  bitmap._data[bucket] */\n      dup2\n      mstore\n      0x20\n      add\n      swap1\n      dup2\n      mstore\n      0x20\n      add\n      0x00\n      keccak256\n      sload\n        /* \"contracts/structs/MultiBitsMaps.sol\":5947:5975  bitmap._data[bucket] & ~mask */\n      and\n        /* \"contracts/structs/MultiBitsMaps.sol\":5946:6008  (bitmap._data[bucket] & ~mask) | (uint256(value) << bitOffset) */\n      or\n        /* \"contracts/structs/MultiBitsMaps.sol\":5923:5929  bitmap */\n      dup7\n        /* \"contracts/structs/MultiBitsMaps.sol\":5923:5935  bitmap._data */\n      0x00\n      add\n        /* \"contracts/structs/MultiBitsMaps.sol\":5923:5943  bitmap._data[bucket] */\n      0x00\n        /* \"contracts/structs/MultiBitsMaps.sol\":5936:5942  bucket */\n      dup6\n        /* \"contracts/structs/MultiBitsMaps.sol\":5923:5943  bitmap._data[bucket] */\n      dup2\n      mstore\n      0x20\n      add\n      swap1\n      dup2\n      mstore\n      0x20\n      add\n      0x00\n      keccak256\n        /* \"contracts/structs/MultiBitsMaps.sol\":5923:6008  bitmap._data[bucket] = (bitmap._data[bucket] & ~mask) | (uint256(value) << bitOffset) */\n      dup2\n      swap1\n      sstore\n      pop\n        /* \"contracts/structs/MultiBitsMaps.sol\":5734:6015  {... */\n      pop\n      pop\n      pop\n        /* \"contracts/structs/MultiBitsMaps.sol\":5657:6015  function _set(FourBitsMap storage bitmap, uint256 data, uint8 value) private {... */\n      pop\n      pop\n      pop\n      jump\t// out\n        /* \"contracts/structs/MultiBitsMaps.sol\":4114:4232  function _addressToUint256(address data) private pure returns (uint256) {... */\n    tag_91:\n        /* \"contracts/structs/MultiBitsMaps.sol\":4177:4184  uint256 */\n      0x00\n        /* \"contracts/structs/MultiBitsMaps.sol\":4219:4223  data */\n      dup2\n        /* \"contracts/structs/MultiBitsMaps.sol\":4203:4225  uint256(uint160(data)) */\n      0xffffffffffffffffffffffffffffffffffffffff\n      and\n        /* \"contracts/structs/MultiBitsMaps.sol\":4196:4225  return uint256(uint160(data)) */\n      swap1\n      pop\n        /* \"contracts/structs/MultiBitsMaps.sol\":4114:4232  function _addressToUint256(address data) private pure returns (uint256) {... */\n      swap2\n      swap1\n      pop\n      jump\t// out\n        /* \"contracts/structs/MultiBitsMaps.sol\":1169:1416  function _get(TwoBitsMap storage bitmap, uint256 data) private view returns (uint8) {... */\n    tag_92:\n        /* \"contracts/structs/MultiBitsMaps.sol\":1246:1251  uint8 */\n      0x00\n        /* \"contracts/structs/MultiBitsMaps.sol\":1264:1278  uint256 bucket */\n      dup1\n        /* \"contracts/structs/MultiBitsMaps.sol\":1280:1292  uint256 mask */\n      0x00\n        /* \"contracts/structs/MultiBitsMaps.sol\":1294:1309  uint8 bitOffset */\n      dup1\n        /* \"contracts/structs/MultiBitsMaps.sol\":1313:1343  _calcTwoBitBucketAndMask(data) */\n      tag_130\n        /* \"contracts/structs/MultiBitsMaps.sol\":1338:1342  data */\n      dup6\n        /* \"contracts/structs/MultiBitsMaps.sol\":1313:1337  _calcTwoBitBucketAndMask */\n      tag_131\n        /* \"contracts/structs/MultiBitsMaps.sol\":1313:1343  _calcTwoBitBucketAndMask(data) */\n      jump\t// in\n    tag_130:\n        /* \"contracts/structs/MultiBitsMaps.sol\":1263:1343  (uint256 bucket, uint256 mask, uint8 bitOffset) = _calcTwoBitBucketAndMask(data) */\n      swap3\n      pop\n      swap3\n      pop\n      swap3\n      pop\n        /* \"contracts/structs/MultiBitsMaps.sol\":1399:1408  bitOffset */\n      dup1\n        /* \"contracts/structs/MultiBitsMaps.sol\":1366:1408  (bitmap._data[bucket] & mask) >> bitOffset */\n      0xff\n      and\n        /* \"contracts/structs/MultiBitsMaps.sol\":1390:1394  mask */\n      dup3\n        /* \"contracts/structs/MultiBitsMaps.sol\":1367:1373  bitmap */\n      dup8\n        /* \"contracts/structs/MultiBitsMaps.sol\":1367:1379  bitmap._data */\n      0x00\n      add\n        /* \"contracts/structs/MultiBitsMaps.sol\":1367:1387  bitmap._data[bucket] */\n      0x00\n        /* \"contracts/structs/MultiBitsMaps.sol\":1380:1386  bucket */\n      dup7\n        /* \"contracts/structs/MultiBitsMaps.sol\":1367:1387  bitmap._data[bucket] */\n      dup2\n      mstore\n      0x20\n      add\n      swap1\n      dup2\n      mstore\n      0x20\n      add\n      0x00\n      keccak256\n      sload\n        /* \"contracts/structs/MultiBitsMaps.sol\":1367:1394  bitmap._data[bucket] & mask */\n      and\n        /* \"contracts/structs/MultiBitsMaps.sol\":1366:1408  (bitmap._data[bucket] & mask) >> bitOffset */\n      swap1\n      shr\n        /* \"contracts/structs/MultiBitsMaps.sol\":1353:1409  return uint8((bitmap._data[bucket] & mask) >> bitOffset) */\n      swap4\n      pop\n      pop\n      pop\n      pop\n        /* \"contracts/structs/MultiBitsMaps.sol\":1169:1416  function _get(TwoBitsMap storage bitmap, uint256 data) private view returns (uint8) {... */\n      swap3\n      swap2\n      pop\n      pop\n      jump\t// out\n        /* \"contracts/structs/BitMaps.sol\":3519:3637  function _addressToUint256(address data) private pure returns (uint256) {... */\n    tag_98:\n        /* \"contracts/structs/BitMaps.sol\":3582:3589  uint256 */\n      0x00\n        /* \"contracts/structs/BitMaps.sol\":3624:3628  data */\n      dup2\n        /* \"contracts/structs/BitMaps.sol\":3608:3630  uint256(uint160(data)) */\n      0xffffffffffffffffffffffffffffffffffffffff\n      and\n        /* \"contracts/structs/BitMaps.sol\":3601:3630  return uint256(uint160(data)) */\n      swap1\n      pop\n        /* \"contracts/structs/BitMaps.sol\":3519:3637  function _addressToUint256(address data) private pure returns (uint256) {... */\n      swap2\n      swap1\n      pop\n      jump\t// out\n        /* \"contracts/structs/BitMaps.sol\":341:543  function _get(BitMap storage bitmap, uint256 data) private view returns (bool) {... */\n    tag_99:\n        /* \"contracts/structs/BitMaps.sol\":414:418  bool */\n      0x00\n        /* \"contracts/structs/BitMaps.sol\":431:445  uint256 bucket */\n      dup1\n        /* \"contracts/structs/BitMaps.sol\":447:459  uint256 mask */\n      0x00\n        /* \"contracts/structs/BitMaps.sol\":463:487  _calcBucketAndMask(data) */\n      tag_134\n        /* \"contracts/structs/BitMaps.sol\":482:486  data */\n      dup5\n        /* \"contracts/structs/BitMaps.sol\":463:481  _calcBucketAndMask */\n      tag_135\n        /* \"contracts/structs/BitMaps.sol\":463:487  _calcBucketAndMask(data) */\n      jump\t// in\n    tag_134:\n        /* \"contracts/structs/BitMaps.sol\":430:487  (uint256 bucket, uint256 mask) = _calcBucketAndMask(data) */\n      swap2\n      pop\n      swap2\n      pop\n        /* \"contracts/structs/BitMaps.sol\":535:536  0 */\n      0x00\n        /* \"contracts/structs/BitMaps.sol\":527:531  mask */\n      dup2\n        /* \"contracts/structs/BitMaps.sol\":504:510  bitmap */\n      dup7\n        /* \"contracts/structs/BitMaps.sol\":504:516  bitmap._data */\n      0x00\n      add\n        /* \"contracts/structs/BitMaps.sol\":504:524  bitmap._data[bucket] */\n      0x00\n        /* \"contracts/structs/BitMaps.sol\":517:523  bucket */\n      dup6\n        /* \"contracts/structs/BitMaps.sol\":504:524  bitmap._data[bucket] */\n      dup2\n      mstore\n      0x20\n      add\n      swap1\n      dup2\n      mstore\n      0x20\n      add\n      0x00\n      keccak256\n      sload\n        /* \"contracts/structs/BitMaps.sol\":504:531  bitmap._data[bucket] & mask */\n      and\n        /* \"contracts/structs/BitMaps.sol\":504:536  bitmap._data[bucket] & mask != 0 */\n      eq\n      iszero\n        /* \"contracts/structs/BitMaps.sol\":497:536  return bitmap._data[bucket] & mask != 0 */\n      swap3\n      pop\n      pop\n      pop\n        /* \"contracts/structs/BitMaps.sol\":341:543  function _get(BitMap storage bitmap, uint256 data) private view returns (bool) {... */\n      swap3\n      swap2\n      pop\n      pop\n      jump\t// out\n        /* \"contracts/structs/BitMaps.sol\":876:1047  function _set(BitMap storage bitmap, uint256 data) private {... */\n    tag_103:\n        /* \"contracts/structs/BitMaps.sol\":946:960  uint256 bucket */\n      0x00\n        /* \"contracts/structs/BitMaps.sol\":962:974  uint256 mask */\n      dup1\n        /* \"contracts/structs/BitMaps.sol\":978:1002  _calcBucketAndMask(data) */\n      tag_137\n        /* \"contracts/structs/BitMaps.sol\":997:1001  data */\n      dup4\n        /* \"contracts/structs/BitMaps.sol\":978:996  _calcBucketAndMask */\n      tag_135\n        /* \"contracts/structs/BitMaps.sol\":978:1002  _calcBucketAndMask(data) */\n      jump\t// in\n    tag_137:\n        /* \"contracts/structs/BitMaps.sol\":945:1002  (uint256 bucket, uint256 mask) = _calcBucketAndMask(data) */\n      swap2\n      pop\n      swap2\n      pop\n        /* \"contracts/structs/BitMaps.sol\":1036:1040  mask */\n      dup1\n        /* \"contracts/structs/BitMaps.sol\":1012:1018  bitmap */\n      dup5\n        /* \"contracts/structs/BitMaps.sol\":1012:1024  bitmap._data */\n      0x00\n      add\n        /* \"contracts/structs/BitMaps.sol\":1012:1032  bitmap._data[bucket] */\n      0x00\n        /* \"contracts/structs/BitMaps.sol\":1025:1031  bucket */\n      dup5\n        /* \"contracts/structs/BitMaps.sol\":1012:1032  bitmap._data[bucket] */\n      dup2\n      mstore\n      0x20\n      add\n      swap1\n      dup2\n      mstore\n      0x20\n      add\n      0x00\n      keccak256\n      0x00\n        /* \"contracts/structs/BitMaps.sol\":1012:1040  bitmap._data[bucket] |= mask */\n      dup3\n      dup3\n      sload\n      or\n      swap3\n      pop\n      pop\n      dup2\n      swap1\n      sstore\n      pop\n        /* \"contracts/structs/BitMaps.sol\":935:1047  {... */\n      pop\n      pop\n        /* \"contracts/structs/BitMaps.sol\":876:1047  function _set(BitMap storage bitmap, uint256 data) private {... */\n      pop\n      pop\n      jump\t// out\n        /* \"contracts/structs/MultiBitsMaps.sol\":1666:2077  function _set(TwoBitsMap storage bitmap, uint256 data, uint8 value) private {... */\n    tag_107:\n        /* \"contracts/structs/MultiBitsMaps.sol\":1764:1768  0x03 */\n      0x03\n        /* \"contracts/structs/MultiBitsMaps.sol\":1756:1761  value */\n      dup2\n        /* \"contracts/structs/MultiBitsMaps.sol\":1756:1768  value > 0x03 */\n      0xff\n      and\n      gt\n        /* \"contracts/structs/MultiBitsMaps.sol\":1752:1830  if (value > 0x03) {... */\n      iszero\n      tag_139\n      jumpi\n        /* \"contracts/structs/MultiBitsMaps.sol\":1813:1818  value */\n      dup1\n        /* \"contracts/structs/MultiBitsMaps.sol\":1791:1819  OutOfTwoBitValueRange(value) */\n      mload(0x40)\n      0x9a0c551800000000000000000000000000000000000000000000000000000000\n      dup2\n      mstore\n      0x04\n      add\n      tag_140\n      swap2\n      swap1\n      tag_21\n      jump\t// in\n    tag_140:\n      mload(0x40)\n      dup1\n      swap2\n      sub\n      swap1\n      revert\n        /* \"contracts/structs/MultiBitsMaps.sol\":1752:1830  if (value > 0x03) {... */\n    tag_139:\n        /* \"contracts/structs/MultiBitsMaps.sol\":1840:1854  uint256 bucket */\n      0x00\n        /* \"contracts/structs/MultiBitsMaps.sol\":1856:1868  uint256 mask */\n      dup1\n        /* \"contracts/structs/MultiBitsMaps.sol\":1870:1885  uint8 bitOffset */\n      0x00\n        /* \"contracts/structs/MultiBitsMaps.sol\":1889:1919  _calcTwoBitBucketAndMask(data) */\n      tag_141\n        /* \"contracts/structs/MultiBitsMaps.sol\":1914:1918  data */\n      dup6\n        /* \"contracts/structs/MultiBitsMaps.sol\":1889:1913  _calcTwoBitBucketAndMask */\n      tag_131\n        /* \"contracts/structs/MultiBitsMaps.sol\":1889:1919  _calcTwoBitBucketAndMask(data) */\n      jump\t// in\n    tag_141:\n        /* \"contracts/structs/MultiBitsMaps.sol\":1839:1919  (uint256 bucket, uint256 mask, uint8 bitOffset) = _calcTwoBitBucketAndMask(data) */\n      swap3\n      pop\n      swap3\n      pop\n      swap3\n      pop\n        /* \"contracts/structs/MultiBitsMaps.sol\":2060:2069  bitOffset */\n      dup1\n        /* \"contracts/structs/MultiBitsMaps.sol\":2042:2069  uint256(value) << bitOffset */\n      0xff\n      and\n        /* \"contracts/structs/MultiBitsMaps.sol\":2050:2055  value */\n      dup5\n        /* \"contracts/structs/MultiBitsMaps.sol\":2042:2056  uint256(value) */\n      0xff\n      and\n        /* \"contracts/structs/MultiBitsMaps.sol\":2042:2069  uint256(value) << bitOffset */\n      swap1\n      shl\n        /* \"contracts/structs/MultiBitsMaps.sol\":2033:2037  mask */\n      dup3\n        /* \"contracts/structs/MultiBitsMaps.sol\":2032:2037  ~mask */\n      not\n        /* \"contracts/structs/MultiBitsMaps.sol\":2009:2015  bitmap */\n      dup8\n        /* \"contracts/structs/MultiBitsMaps.sol\":2009:2021  bitmap._data */\n      0x00\n      add\n        /* \"contracts/structs/MultiBitsMaps.sol\":2009:2029  bitmap._data[bucket] */\n      0x00\n        /* \"contracts/structs/MultiBitsMaps.sol\":2022:2028  bucket */\n      dup7\n        /* \"contracts/structs/MultiBitsMaps.sol\":2009:2029  bitmap._data[bucket] */\n      dup2\n      mstore\n      0x20\n      add\n      swap1\n      dup2\n      mstore\n      0x20\n      add\n      0x00\n      keccak256\n      sload\n        /* \"contracts/structs/MultiBitsMaps.sol\":2009:2037  bitmap._data[bucket] & ~mask */\n      and\n        /* \"contracts/structs/MultiBitsMaps.sol\":2008:2070  (bitmap._data[bucket] & ~mask) | (uint256(value) << bitOffset) */\n      or\n        /* \"contracts/structs/MultiBitsMaps.sol\":1985:1991  bitmap */\n      dup7\n        /* \"contracts/structs/MultiBitsMaps.sol\":1985:1997  bitmap._data */\n      0x00\n      add\n        /* \"contracts/structs/MultiBitsMaps.sol\":1985:2005  bitmap._data[bucket] */\n      0x00\n        /* \"contracts/structs/MultiBitsMaps.sol\":1998:2004  bucket */\n      dup6\n        /* \"contracts/structs/MultiBitsMaps.sol\":1985:2005  bitmap._data[bucket] */\n      dup2\n      mstore\n      0x20\n      add\n      swap1\n      dup2\n      mstore\n      0x20\n      add\n      0x00\n      keccak256\n        /* \"contracts/structs/MultiBitsMaps.sol\":1985:2070  bitmap._data[bucket] = (bitmap._data[bucket] & ~mask) | (uint256(value) << bitOffset) */\n      dup2\n      swap1\n      sstore\n      pop\n        /* \"contracts/structs/MultiBitsMaps.sol\":1742:2077  {... */\n      pop\n      pop\n      pop\n        /* \"contracts/structs/MultiBitsMaps.sol\":1666:2077  function _set(TwoBitsMap storage bitmap, uint256 data, uint8 value) private {... */\n      pop\n      pop\n      pop\n      jump\t// out\n        /* \"contracts/structs/MultiBitsMaps.sol\":8142:8490  function _set(ByteMap storage bitmap, uint256 data, uint8 value) private {... */\n    tag_110:\n        /* \"contracts/structs/MultiBitsMaps.sol\":8237:8241  0xFF */\n      0xff\n        /* \"contracts/structs/MultiBitsMaps.sol\":8229:8234  value */\n      dup2\n        /* \"contracts/structs/MultiBitsMaps.sol\":8229:8241  value > 0xFF */\n      0xff\n      and\n      gt\n        /* \"contracts/structs/MultiBitsMaps.sol\":8225:8301  if (value > 0xFF) {... */\n      iszero\n      tag_143\n      jumpi\n        /* \"contracts/structs/MultiBitsMaps.sol\":8284:8289  value */\n      dup1\n        /* \"contracts/structs/MultiBitsMaps.sol\":8264:8290  OutOfByteValueRange(value) */\n      mload(0x40)\n      0xae27873100000000000000000000000000000000000000000000000000000000\n      dup2\n      mstore\n      0x04\n      add\n      tag_144\n      swap2\n      swap1\n      tag_21\n      jump\t// in\n    tag_144:\n      mload(0x40)\n      dup1\n      swap2\n      sub\n      swap1\n      revert\n        /* \"contracts/structs/MultiBitsMaps.sol\":8225:8301  if (value > 0xFF) {... */\n    tag_143:\n        /* \"contracts/structs/MultiBitsMaps.sol\":8311:8325  uint256 bucket */\n      0x00\n        /* \"contracts/structs/MultiBitsMaps.sol\":8327:8339  uint256 mask */\n      dup1\n        /* \"contracts/structs/MultiBitsMaps.sol\":8341:8356  uint8 bitOffset */\n      0x00\n        /* \"contracts/structs/MultiBitsMaps.sol\":8360:8388  _calcByteBucketAndMask(data) */\n      tag_145\n        /* \"contracts/structs/MultiBitsMaps.sol\":8383:8387  data */\n      dup6\n        /* \"contracts/structs/MultiBitsMaps.sol\":8360:8382  _calcByteBucketAndMask */\n      tag_146\n        /* \"contracts/structs/MultiBitsMaps.sol\":8360:8388  _calcByteBucketAndMask(data) */\n      jump\t// in\n    tag_145:\n        /* \"contracts/structs/MultiBitsMaps.sol\":8310:8388  (uint256 bucket, uint256 mask, uint8 bitOffset) = _calcByteBucketAndMask(data) */\n      swap3\n      pop\n      swap3\n      pop\n      swap3\n      pop\n        /* \"contracts/structs/MultiBitsMaps.sol\":8473:8482  bitOffset */\n      dup1\n        /* \"contracts/structs/MultiBitsMaps.sol\":8455:8482  uint256(value) << bitOffset */\n      0xff\n      and\n        /* \"contracts/structs/MultiBitsMaps.sol\":8463:8468  value */\n      dup5\n        /* \"contracts/structs/MultiBitsMaps.sol\":8455:8469  uint256(value) */\n      0xff\n      and\n        /* \"contracts/structs/MultiBitsMaps.sol\":8455:8482  uint256(value) << bitOffset */\n      swap1\n      shl\n        /* \"contracts/structs/MultiBitsMaps.sol\":8446:8450  mask */\n      dup3\n        /* \"contracts/structs/MultiBitsMaps.sol\":8445:8450  ~mask */\n      not\n        /* \"contracts/structs/MultiBitsMaps.sol\":8422:8428  bitmap */\n      dup8\n        /* \"contracts/structs/MultiBitsMaps.sol\":8422:8434  bitmap._data */\n      0x00\n      add\n        /* \"contracts/structs/MultiBitsMaps.sol\":8422:8442  bitmap._data[bucket] */\n      0x00\n        /* \"contracts/structs/MultiBitsMaps.sol\":8435:8441  bucket */\n      dup7\n        /* \"contracts/structs/MultiBitsMaps.sol\":8422:8442  bitmap._data[bucket] */\n      dup2\n      mstore\n      0x20\n      add\n      swap1\n      dup2\n      mstore\n      0x20\n      add\n      0x00\n      keccak256\n      sload\n        /* \"contracts/structs/MultiBitsMaps.sol\":8422:8450  bitmap._data[bucket] & ~mask */\n      and\n        /* \"contracts/structs/MultiBitsMaps.sol\":8421:8483  (bitmap._data[bucket] & ~mask) | (uint256(value) << bitOffset) */\n      or\n        /* \"contracts/structs/MultiBitsMaps.sol\":8398:8404  bitmap */\n      dup7\n        /* \"contracts/structs/MultiBitsMaps.sol\":8398:8410  bitmap._data */\n      0x00\n      add\n        /* \"contracts/structs/MultiBitsMaps.sol\":8398:8418  bitmap._data[bucket] */\n      0x00\n        /* \"contracts/structs/MultiBitsMaps.sol\":8411:8417  bucket */\n      dup6\n        /* \"contracts/structs/MultiBitsMaps.sol\":8398:8418  bitmap._data[bucket] */\n      dup2\n      mstore\n      0x20\n      add\n      swap1\n      dup2\n      mstore\n      0x20\n      add\n      0x00\n      keccak256\n        /* \"contracts/structs/MultiBitsMaps.sol\":8398:8483  bitmap._data[bucket] = (bitmap._data[bucket] & ~mask) | (uint256(value) << bitOffset) */\n      dup2\n      swap1\n      sstore\n      pop\n        /* \"contracts/structs/MultiBitsMaps.sol\":8215:8490  {... */\n      pop\n      pop\n      pop\n        /* \"contracts/structs/MultiBitsMaps.sol\":8142:8490  function _set(ByteMap storage bitmap, uint256 data, uint8 value) private {... */\n      pop\n      pop\n      pop\n      jump\t// out\n        /* \"contracts/structs/MultiBitsMaps.sol\":7821:8063  function _get(ByteMap storage bitmap, uint256 data) private view returns (uint8) {... */\n    tag_113:\n        /* \"contracts/structs/MultiBitsMaps.sol\":7895:7900  uint8 */\n      0x00\n        /* \"contracts/structs/MultiBitsMaps.sol\":7913:7927  uint256 bucket */\n      dup1\n        /* \"contracts/structs/MultiBitsMaps.sol\":7929:7941  uint256 mask */\n      0x00\n        /* \"contracts/structs/MultiBitsMaps.sol\":7943:7958  uint8 bitOffset */\n      dup1\n        /* \"contracts/structs/MultiBitsMaps.sol\":7962:7990  _calcByteBucketAndMask(data) */\n      tag_148\n        /* \"contracts/structs/MultiBitsMaps.sol\":7985:7989  data */\n      dup6\n        /* \"contracts/structs/MultiBitsMaps.sol\":7962:7984  _calcByteBucketAndMask */\n      tag_146\n        /* \"contracts/structs/MultiBitsMaps.sol\":7962:7990  _calcByteBucketAndMask(data) */\n      jump\t// in\n    tag_148:\n        /* \"contracts/structs/MultiBitsMaps.sol\":7912:7990  (uint256 bucket, uint256 mask, uint8 bitOffset) = _calcByteBucketAndMask(data) */\n      swap3\n      pop\n      swap3\n      pop\n      swap3\n      pop\n        /* \"contracts/structs/MultiBitsMaps.sol\":8046:8055  bitOffset */\n      dup1\n        /* \"contracts/structs/MultiBitsMaps.sol\":8013:8055  (bitmap._data[bucket] & mask) >> bitOffset */\n      0xff\n      and\n        /* \"contracts/structs/MultiBitsMaps.sol\":8037:8041  mask */\n      dup3\n        /* \"contracts/structs/MultiBitsMaps.sol\":8014:8020  bitmap */\n      dup8\n        /* \"contracts/structs/MultiBitsMaps.sol\":8014:8026  bitmap._data */\n      0x00\n      add\n        /* \"contracts/structs/MultiBitsMaps.sol\":8014:8034  bitmap._data[bucket] */\n      0x00\n        /* \"contracts/structs/MultiBitsMaps.sol\":8027:8033  bucket */\n      dup7\n        /* \"contracts/structs/MultiBitsMaps.sol\":8014:8034  bitmap._data[bucket] */\n      dup2\n      mstore\n      0x20\n      add\n      swap1\n      dup2\n      mstore\n      0x20\n      add\n      0x00\n      keccak256\n      sload\n        /* \"contracts/structs/MultiBitsMaps.sol\":8014:8041  bitmap._data[bucket] & mask */\n      and\n        /* \"contracts/structs/MultiBitsMaps.sol\":8013:8055  (bitmap._data[bucket] & mask) >> bitOffset */\n      swap1\n      shr\n        /* \"contracts/structs/MultiBitsMaps.sol\":8000:8056  return uint8((bitmap._data[bucket] & mask) >> bitOffset) */\n      swap4\n      pop\n      pop\n      pop\n      pop\n        /* \"contracts/structs/MultiBitsMaps.sol\":7821:8063  function _get(ByteMap storage bitmap, uint256 data) private view returns (uint8) {... */\n      swap3\n      swap2\n      pop\n      pop\n      jump\t// out\n        /* \"contracts/structs/MultiBitsMaps.sol\":5329:5578  function _get(FourBitsMap storage bitmap, uint256 data) private view returns (uint8) {... */\n    tag_116:\n        /* \"contracts/structs/MultiBitsMaps.sol\":5407:5412  uint8 */\n      0x00\n        /* \"contracts/structs/MultiBitsMaps.sol\":5425:5439  uint256 bucket */\n      dup1\n        /* \"contracts/structs/MultiBitsMaps.sol\":5441:5453  uint256 mask */\n      0x00\n        /* \"contracts/structs/MultiBitsMaps.sol\":5455:5470  uint8 bitOffset */\n      dup1\n        /* \"contracts/structs/MultiBitsMaps.sol\":5474:5505  _calcFourBitBucketAndMask(data) */\n      tag_150\n        /* \"contracts/structs/MultiBitsMaps.sol\":5500:5504  data */\n      dup6\n        /* \"contracts/structs/MultiBitsMaps.sol\":5474:5499  _calcFourBitBucketAndMask */\n      tag_127\n        /* \"contracts/structs/MultiBitsMaps.sol\":5474:5505  _calcFourBitBucketAndMask(data) */\n      jump\t// in\n    tag_150:\n        /* \"contracts/structs/MultiBitsMaps.sol\":5424:5505  (uint256 bucket, uint256 mask, uint8 bitOffset) = _calcFourBitBucketAndMask(data) */\n      swap3\n      pop\n      swap3\n      pop\n      swap3\n      pop\n        /* \"contracts/structs/MultiBitsMaps.sol\":5561:5570  bitOffset */\n      dup1\n        /* \"contracts/structs/MultiBitsMaps.sol\":5528:5570  (bitmap._data[bucket] & mask) >> bitOffset */\n      0xff\n      and\n        /* \"contracts/structs/MultiBitsMaps.sol\":5552:5556  mask */\n      dup3\n        /* \"contracts/structs/MultiBitsMaps.sol\":5529:5535  bitmap */\n      dup8\n        /* \"contracts/structs/MultiBitsMaps.sol\":5529:5541  bitmap._data */\n      0x00\n      add\n        /* \"contracts/structs/MultiBitsMaps.sol\":5529:5549  bitmap._data[bucket] */\n      0x00\n        /* \"contracts/structs/MultiBitsMaps.sol\":5542:5548  bucket */\n      dup7\n        /* \"contracts/structs/MultiBitsMaps.sol\":5529:5549  bitmap._data[bucket] */\n      dup2\n      mstore\n      0x20\n      add\n      swap1\n      dup2\n      mstore\n      0x20\n      add\n      0x00\n      keccak256\n      sload\n        /* \"contracts/structs/MultiBitsMaps.sol\":5529:5556  bitmap._data[bucket] & mask */\n      and\n        /* \"contracts/structs/MultiBitsMaps.sol\":5528:5570  (bitmap._data[bucket] & mask) >> bitOffset */\n      swap1\n      shr\n        /* \"contracts/structs/MultiBitsMaps.sol\":5515:5571  return uint8((bitmap._data[bucket] & mask) >> bitOffset) */\n      swap4\n      pop\n      pop\n      pop\n      pop\n        /* \"contracts/structs/MultiBitsMaps.sol\":5329:5578  function _get(FourBitsMap storage bitmap, uint256 data) private view returns (uint8) {... */\n      swap3\n      swap2\n      pop\n      pop\n      jump\t// out\n        /* \"contracts/structs/BitMaps.sol\":1107:1281  function _unset(BitMap storage bitmap, uint256 data) private {... */\n    tag_120:\n        /* \"contracts/structs/BitMaps.sol\":1179:1193  uint256 bucket */\n      0x00\n        /* \"contracts/structs/BitMaps.sol\":1195:1207  uint256 mask */\n      dup1\n        /* \"contracts/structs/BitMaps.sol\":1211:1235  _calcBucketAndMask(data) */\n      tag_152\n        /* \"contracts/structs/BitMaps.sol\":1230:1234  data */\n      dup4\n        /* \"contracts/structs/BitMaps.sol\":1211:1229  _calcBucketAndMask */\n      tag_135\n        /* \"contracts/structs/BitMaps.sol\":1211:1235  _calcBucketAndMask(data) */\n      jump\t// in\n    tag_152:\n        /* \"contracts/structs/BitMaps.sol\":1178:1235  (uint256 bucket, uint256 mask) = _calcBucketAndMask(data) */\n      swap2\n      pop\n      swap2\n      pop\n        /* \"contracts/structs/BitMaps.sol\":1270:1274  mask */\n      dup1\n        /* \"contracts/structs/BitMaps.sol\":1269:1274  ~mask */\n      not\n        /* \"contracts/structs/BitMaps.sol\":1245:1251  bitmap */\n      dup5\n        /* \"contracts/structs/BitMaps.sol\":1245:1257  bitmap._data */\n      0x00\n      add\n        /* \"contracts/structs/BitMaps.sol\":1245:1265  bitmap._data[bucket] */\n      0x00\n        /* \"contracts/structs/BitMaps.sol\":1258:1264  bucket */\n      dup5\n        /* \"contracts/structs/BitMaps.sol\":1245:1265  bitmap._data[bucket] */\n      dup2\n      mstore\n      0x20\n      add\n      swap1\n      dup2\n      mstore\n      0x20\n      add\n      0x00\n      keccak256\n      0x00\n        /* \"contracts/structs/BitMaps.sol\":1245:1274  bitmap._data[bucket] &= ~mask */\n      dup3\n      dup3\n      sload\n      and\n      swap3\n      pop\n      pop\n      dup2\n      swap1\n      sstore\n      pop\n        /* \"contracts/structs/BitMaps.sol\":1168:1281  {... */\n      pop\n      pop\n        /* \"contracts/structs/BitMaps.sol\":1107:1281  function _unset(BitMap storage bitmap, uint256 data) private {... */\n      pop\n      pop\n      jump\t// out\n        /* \"contracts/structs/MultiBitsMaps.sol\":6116:6407  function _calcFourBitBucketAndMask(uint256 data)... */\n    tag_127:\n        /* \"contracts/structs/MultiBitsMaps.sol\":6211:6225  uint256 bucket */\n      0x00\n        /* \"contracts/structs/MultiBitsMaps.sol\":6227:6239  uint256 mask */\n      dup1\n        /* \"contracts/structs/MultiBitsMaps.sol\":6241:6256  uint8 bitOffset */\n      0x00\n        /* \"contracts/structs/MultiBitsMaps.sol\":6289:6290  6 */\n      0x06\n        /* \"contracts/structs/MultiBitsMaps.sol\":6281:6285  data */\n      dup5\n        /* \"contracts/structs/MultiBitsMaps.sol\":6281:6290  data >> 6 */\n      swap1\n      shr\n        /* \"contracts/structs/MultiBitsMaps.sol\":6272:6290  bucket = data >> 6 */\n      swap3\n      pop\n        /* \"contracts/structs/MultiBitsMaps.sol\":6360:6364  0x3F */\n      0x3f\n        /* \"contracts/structs/MultiBitsMaps.sol\":6353:6357  data */\n      dup5\n        /* \"contracts/structs/MultiBitsMaps.sol\":6353:6364  data & 0x3F */\n      and\n        /* \"contracts/structs/MultiBitsMaps.sol\":6348:6349  4 */\n      0x04\n        /* \"contracts/structs/MultiBitsMaps.sol\":6348:6365  4 * (data & 0x3F) */\n      tag_154\n      swap2\n      swap1\n      tag_155\n      jump\t// in\n    tag_154:\n        /* \"contracts/structs/MultiBitsMaps.sol\":6330:6366  bitOffset = uint8(4 * (data & 0x3F)) */\n      swap1\n      pop\n        /* \"contracts/structs/MultiBitsMaps.sol\":6391:6400  bitOffset */\n      dup1\n        /* \"contracts/structs/MultiBitsMaps.sol\":6383:6400  0x0F << bitOffset */\n      0xff\n      and\n        /* \"contracts/structs/MultiBitsMaps.sol\":6383:6387  0x0F */\n      0x0f\n        /* \"contracts/structs/MultiBitsMaps.sol\":6383:6400  0x0F << bitOffset */\n      swap1\n      shl\n        /* \"contracts/structs/MultiBitsMaps.sol\":6376:6400  mask = 0x0F << bitOffset */\n      swap2\n      pop\n        /* \"contracts/structs/MultiBitsMaps.sol\":6116:6407  function _calcFourBitBucketAndMask(uint256 data)... */\n      swap2\n      swap4\n      swap1\n      swap3\n      pop\n      jump\t// out\n        /* \"contracts/structs/MultiBitsMaps.sol\":2414:2828  function _calcTwoBitBucketAndMask(uint256 data)... */\n    tag_131:\n        /* \"contracts/structs/MultiBitsMaps.sol\":2508:2522  uint256 bucket */\n      0x00\n        /* \"contracts/structs/MultiBitsMaps.sol\":2524:2536  uint256 mask */\n      dup1\n        /* \"contracts/structs/MultiBitsMaps.sol\":2538:2553  uint8 bitOffset */\n      0x00\n        /* \"contracts/structs/MultiBitsMaps.sol\":2586:2587  7 */\n      0x07\n        /* \"contracts/structs/MultiBitsMaps.sol\":2578:2582  data */\n      dup5\n        /* \"contracts/structs/MultiBitsMaps.sol\":2578:2587  data >> 7 */\n      swap1\n      shr\n        /* \"contracts/structs/MultiBitsMaps.sol\":2569:2587  bucket = data >> 7 */\n      swap3\n      pop\n        /* \"contracts/structs/MultiBitsMaps.sol\":2683:2687  0x7f */\n      0x7f\n        /* \"contracts/structs/MultiBitsMaps.sol\":2676:2680  data */\n      dup5\n        /* \"contracts/structs/MultiBitsMaps.sol\":2676:2687  data & 0x7f */\n      and\n        /* \"contracts/structs/MultiBitsMaps.sol\":2671:2672  2 */\n      0x02\n        /* \"contracts/structs/MultiBitsMaps.sol\":2671:2688  2 * (data & 0x7f) */\n      tag_157\n      swap2\n      swap1\n      tag_155\n      jump\t// in\n    tag_157:\n        /* \"contracts/structs/MultiBitsMaps.sol\":2653:2689  bitOffset = uint8(2 * (data & 0x7f)) */\n      swap1\n      pop\n        /* \"contracts/structs/MultiBitsMaps.sol\":2777:2786  bitOffset */\n      dup1\n        /* \"contracts/structs/MultiBitsMaps.sol\":2769:2786  0x03 << bitOffset */\n      0xff\n      and\n        /* \"contracts/structs/MultiBitsMaps.sol\":2769:2773  0x03 */\n      0x03\n        /* \"contracts/structs/MultiBitsMaps.sol\":2769:2786  0x03 << bitOffset */\n      swap1\n      shl\n        /* \"contracts/structs/MultiBitsMaps.sol\":2762:2786  mask = 0x03 << bitOffset */\n      swap2\n      pop\n        /* \"contracts/structs/MultiBitsMaps.sol\":2414:2828  function _calcTwoBitBucketAndMask(uint256 data)... */\n      swap2\n      swap4\n      swap1\n      swap3\n      pop\n      jump\t// out\n        /* \"contracts/structs/BitMaps.sol\":1329:1757  function _calcBucketAndMask(uint256 data) private pure returns (uint256 bucket, uint256 mask) {... */\n    tag_135:\n        /* \"contracts/structs/BitMaps.sol\":1393:1407  uint256 bucket */\n      0x00\n        /* \"contracts/structs/BitMaps.sol\":1409:1421  uint256 mask */\n      dup1\n        /* \"contracts/structs/BitMaps.sol\":1525:1526  8 */\n      0x08\n        /* \"contracts/structs/BitMaps.sol\":1517:1521  data */\n      dup4\n        /* \"contracts/structs/BitMaps.sol\":1517:1526  data >> 8 */\n      swap1\n      shr\n        /* \"contracts/structs/BitMaps.sol\":1508:1526  bucket = data >> 8 */\n      swap2\n      pop\n        /* \"contracts/structs/BitMaps.sol\":1745:1749  0xff */\n      0xff\n        /* \"contracts/structs/BitMaps.sol\":1738:1742  data */\n      dup4\n        /* \"contracts/structs/BitMaps.sol\":1738:1749  data & 0xff */\n      and\n        /* \"contracts/structs/BitMaps.sol\":1732:1733  1 */\n      0x01\n        /* \"contracts/structs/BitMaps.sol\":1732:1750  1 << (data & 0xff) */\n      swap1\n      shl\n        /* \"contracts/structs/BitMaps.sol\":1725:1750  mask = 1 << (data & 0xff) */\n      swap1\n      pop\n        /* \"contracts/structs/BitMaps.sol\":1329:1757  function _calcBucketAndMask(uint256 data) private pure returns (uint256 bucket, uint256 mask) {... */\n      swap2\n      pop\n      swap2\n      jump\t// out\n        /* \"contracts/structs/MultiBitsMaps.sol\":8592:8880  function _calcByteBucketAndMask(uint256 data)... */\n    tag_146:\n        /* \"contracts/structs/MultiBitsMaps.sol\":8684:8698  uint256 bucket */\n      0x00\n        /* \"contracts/structs/MultiBitsMaps.sol\":8700:8712  uint256 mask */\n      dup1\n        /* \"contracts/structs/MultiBitsMaps.sol\":8714:8729  uint8 bitOffset */\n      0x00\n        /* \"contracts/structs/MultiBitsMaps.sol\":8762:8763  5 */\n      0x05\n        /* \"contracts/structs/MultiBitsMaps.sol\":8754:8758  data */\n      dup5\n        /* \"contracts/structs/MultiBitsMaps.sol\":8754:8763  data >> 5 */\n      swap1\n      shr\n        /* \"contracts/structs/MultiBitsMaps.sol\":8745:8763  bucket = data >> 5 */\n      swap3\n      pop\n        /* \"contracts/structs/MultiBitsMaps.sol\":8833:8837  0x1F */\n      0x1f\n        /* \"contracts/structs/MultiBitsMaps.sol\":8826:8830  data */\n      dup5\n        /* \"contracts/structs/MultiBitsMaps.sol\":8826:8837  data & 0x1F */\n      and\n        /* \"contracts/structs/MultiBitsMaps.sol\":8821:8822  8 */\n      0x08\n        /* \"contracts/structs/MultiBitsMaps.sol\":8821:8838  8 * (data & 0x1F) */\n      tag_160\n      swap2\n      swap1\n      tag_155\n      jump\t// in\n    tag_160:\n        /* \"contracts/structs/MultiBitsMaps.sol\":8803:8839  bitOffset = uint8(8 * (data & 0x1F)) */\n      swap1\n      pop\n        /* \"contracts/structs/MultiBitsMaps.sol\":8864:8873  bitOffset */\n      dup1\n        /* \"contracts/structs/MultiBitsMaps.sol\":8856:8873  0xFF << bitOffset */\n      0xff\n      and\n        /* \"contracts/structs/MultiBitsMaps.sol\":8856:8860  0xFF */\n      0xff\n        /* \"contracts/structs/MultiBitsMaps.sol\":8856:8873  0xFF << bitOffset */\n      swap1\n      shl\n        /* \"contracts/structs/MultiBitsMaps.sol\":8849:8873  mask = 0xFF << bitOffset */\n      swap2\n      pop\n        /* \"contracts/structs/MultiBitsMaps.sol\":8592:8880  function _calcByteBucketAndMask(uint256 data)... */\n      swap2\n      swap4\n      swap1\n      swap3\n      pop\n      jump\t// out\n        /* \"#utility.yul\":88:205   */\n    tag_162:\n        /* \"#utility.yul\":197:198   */\n      0x00\n        /* \"#utility.yul\":194:195   */\n      dup1\n        /* \"#utility.yul\":187:199   */\n      revert\n        /* \"#utility.yul\":334:411   */\n    tag_164:\n        /* \"#utility.yul\":371:378   */\n      0x00\n        /* \"#utility.yul\":400:405   */\n      dup2\n        /* \"#utility.yul\":389:405   */\n      swap1\n      pop\n        /* \"#utility.yul\":334:411   */\n      swap2\n      swap1\n      pop\n      jump\t// out\n        /* \"#utility.yul\":417:539   */\n    tag_165:\n        /* \"#utility.yul\":490:514   */\n      tag_183\n        /* \"#utility.yul\":508:513   */\n      dup2\n        /* \"#utility.yul\":490:514   */\n      tag_164\n      jump\t// in\n    tag_183:\n        /* \"#utility.yul\":483:488   */\n      dup2\n        /* \"#utility.yul\":480:515   */\n      eq\n        /* \"#utility.yul\":470:533   */\n      tag_184\n      jumpi\n        /* \"#utility.yul\":529:530   */\n      0x00\n        /* \"#utility.yul\":526:527   */\n      dup1\n        /* \"#utility.yul\":519:531   */\n      revert\n        /* \"#utility.yul\":470:533   */\n    tag_184:\n        /* \"#utility.yul\":417:539   */\n      pop\n      jump\t// out\n        /* \"#utility.yul\":545:684   */\n    tag_166:\n        /* \"#utility.yul\":591:596   */\n      0x00\n        /* \"#utility.yul\":629:635   */\n      dup2\n        /* \"#utility.yul\":616:636   */\n      calldataload\n        /* \"#utility.yul\":607:636   */\n      swap1\n      pop\n        /* \"#utility.yul\":645:678   */\n      tag_186\n        /* \"#utility.yul\":672:677   */\n      dup2\n        /* \"#utility.yul\":645:678   */\n      tag_165\n      jump\t// in\n    tag_186:\n        /* \"#utility.yul\":545:684   */\n      swap3\n      swap2\n      pop\n      pop\n      jump\t// out\n        /* \"#utility.yul\":690:776   */\n    tag_167:\n        /* \"#utility.yul\":725:732   */\n      0x00\n        /* \"#utility.yul\":765:769   */\n      0xff\n        /* \"#utility.yul\":758:763   */\n      dup3\n        /* \"#utility.yul\":754:770   */\n      and\n        /* \"#utility.yul\":743:770   */\n      swap1\n      pop\n        /* \"#utility.yul\":690:776   */\n      swap2\n      swap1\n      pop\n      jump\t// out\n        /* \"#utility.yul\":782:900   */\n    tag_168:\n        /* \"#utility.yul\":853:875   */\n      tag_189\n        /* \"#utility.yul\":869:874   */\n      dup2\n        /* \"#utility.yul\":853:875   */\n      tag_167\n      jump\t// in\n    tag_189:\n        /* \"#utility.yul\":846:851   */\n      dup2\n        /* \"#utility.yul\":843:876   */\n      eq\n        /* \"#utility.yul\":833:894   */\n      tag_190\n      jumpi\n        /* \"#utility.yul\":890:891   */\n      0x00\n        /* \"#utility.yul\":887:888   */\n      dup1\n        /* \"#utility.yul\":880:892   */\n      revert\n        /* \"#utility.yul\":833:894   */\n    tag_190:\n        /* \"#utility.yul\":782:900   */\n      pop\n      jump\t// out\n        /* \"#utility.yul\":906:1041   */\n    tag_169:\n        /* \"#utility.yul\":950:955   */\n      0x00\n        /* \"#utility.yul\":988:994   */\n      dup2\n        /* \"#utility.yul\":975:995   */\n      calldataload\n        /* \"#utility.yul\":966:995   */\n      swap1\n      pop\n        /* \"#utility.yul\":1004:1035   */\n      tag_192\n        /* \"#utility.yul\":1029:1034   */\n      dup2\n        /* \"#utility.yul\":1004:1035   */\n      tag_168\n      jump\t// in\n    tag_192:\n        /* \"#utility.yul\":906:1041   */\n      swap3\n      swap2\n      pop\n      pop\n      jump\t// out\n        /* \"#utility.yul\":1047:1517   */\n    tag_16:\n        /* \"#utility.yul\":1113:1119   */\n      0x00\n        /* \"#utility.yul\":1121:1127   */\n      dup1\n        /* \"#utility.yul\":1170:1172   */\n      0x40\n        /* \"#utility.yul\":1158:1167   */\n      dup4\n        /* \"#utility.yul\":1149:1156   */\n      dup6\n        /* \"#utility.yul\":1145:1168   */\n      sub\n        /* \"#utility.yul\":1141:1173   */\n      slt\n        /* \"#utility.yul\":1138:1257   */\n      iszero\n      tag_194\n      jumpi\n        /* \"#utility.yul\":1176:1255   */\n      tag_195\n      tag_162\n      jump\t// in\n    tag_195:\n        /* \"#utility.yul\":1138:1257   */\n    tag_194:\n        /* \"#utility.yul\":1296:1297   */\n      0x00\n        /* \"#utility.yul\":1321:1374   */\n      tag_196\n        /* \"#utility.yul\":1366:1373   */\n      dup6\n        /* \"#utility.yul\":1357:1363   */\n      dup3\n        /* \"#utility.yul\":1346:1355   */\n      dup7\n        /* \"#utility.yul\":1342:1364   */\n      add\n        /* \"#utility.yul\":1321:1374   */\n      tag_166\n      jump\t// in\n    tag_196:\n        /* \"#utility.yul\":1311:1374   */\n      swap3\n      pop\n        /* \"#utility.yul\":1267:1384   */\n      pop\n        /* \"#utility.yul\":1423:1425   */\n      0x20\n        /* \"#utility.yul\":1449:1500   */\n      tag_197\n        /* \"#utility.yul\":1492:1499   */\n      dup6\n        /* \"#utility.yul\":1483:1489   */\n      dup3\n        /* \"#utility.yul\":1472:1481   */\n      dup7\n        /* \"#utility.yul\":1468:1490   */\n      add\n        /* \"#utility.yul\":1449:1500   */\n      tag_169\n      jump\t// in\n    tag_197:\n        /* \"#utility.yul\":1439:1500   */\n      swap2\n      pop\n        /* \"#utility.yul\":1394:1510   */\n      pop\n        /* \"#utility.yul\":1047:1517   */\n      swap3\n      pop\n      swap3\n      swap1\n      pop\n      jump\t// out\n        /* \"#utility.yul\":1523:1635   */\n    tag_170:\n        /* \"#utility.yul\":1606:1628   */\n      tag_199\n        /* \"#utility.yul\":1622:1627   */\n      dup2\n        /* \"#utility.yul\":1606:1628   */\n      tag_167\n      jump\t// in\n    tag_199:\n        /* \"#utility.yul\":1601:1604   */\n      dup3\n        /* \"#utility.yul\":1594:1629   */\n      mstore\n        /* \"#utility.yul\":1523:1635   */\n      pop\n      pop\n      jump\t// out\n        /* \"#utility.yul\":1641:1855   */\n    tag_21:\n        /* \"#utility.yul\":1730:1734   */\n      0x00\n        /* \"#utility.yul\":1768:1770   */\n      0x20\n        /* \"#utility.yul\":1757:1766   */\n      dup3\n        /* \"#utility.yul\":1753:1771   */\n      add\n        /* \"#utility.yul\":1745:1771   */\n      swap1\n      pop\n        /* \"#utility.yul\":1781:1848   */\n      tag_201\n        /* \"#utility.yul\":1845:1846   */\n      0x00\n        /* \"#utility.yul\":1834:1843   */\n      dup4\n        /* \"#utility.yul\":1830:1847   */\n      add\n        /* \"#utility.yul\":1821:1827   */\n      dup5\n        /* \"#utility.yul\":1781:1848   */\n      tag_170\n      jump\t// in\n    tag_201:\n        /* \"#utility.yul\":1641:1855   */\n      swap3\n      swap2\n      pop\n      pop\n      jump\t// out\n        /* \"#utility.yul\":1861:2190   */\n    tag_24:\n        /* \"#utility.yul\":1920:1926   */\n      0x00\n        /* \"#utility.yul\":1969:1971   */\n      0x20\n        /* \"#utility.yul\":1957:1966   */\n      dup3\n        /* \"#utility.yul\":1948:1955   */\n      dup5\n        /* \"#utility.yul\":1944:1967   */\n      sub\n        /* \"#utility.yul\":1940:1972   */\n      slt\n        /* \"#utility.yul\":1937:2056   */\n      iszero\n      tag_203\n      jumpi\n        /* \"#utility.yul\":1975:2054   */\n      tag_204\n      tag_162\n      jump\t// in\n    tag_204:\n        /* \"#utility.yul\":1937:2056   */\n    tag_203:\n        /* \"#utility.yul\":2095:2096   */\n      0x00\n        /* \"#utility.yul\":2120:2173   */\n      tag_205\n        /* \"#utility.yul\":2165:2172   */\n      dup5\n        /* \"#utility.yul\":2156:2162   */\n      dup3\n        /* \"#utility.yul\":2145:2154   */\n      dup6\n        /* \"#utility.yul\":2141:2163   */\n      add\n        /* \"#utility.yul\":2120:2173   */\n      tag_166\n      jump\t// in\n    tag_205:\n        /* \"#utility.yul\":2110:2173   */\n      swap2\n      pop\n        /* \"#utility.yul\":2066:2183   */\n      pop\n        /* \"#utility.yul\":1861:2190   */\n      swap3\n      swap2\n      pop\n      pop\n      jump\t// out\n        /* \"#utility.yul\":2196:2295   */\n    tag_171:\n        /* \"#utility.yul\":2248:2254   */\n      0x00\n        /* \"#utility.yul\":2282:2287   */\n      dup2\n        /* \"#utility.yul\":2276:2288   */\n      mload\n        /* \"#utility.yul\":2266:2288   */\n      swap1\n      pop\n        /* \"#utility.yul\":2196:2295   */\n      swap2\n      swap1\n      pop\n      jump\t// out\n        /* \"#utility.yul\":2301:2470   */\n    tag_172:\n        /* \"#utility.yul\":2385:2396   */\n      0x00\n        /* \"#utility.yul\":2419:2425   */\n      dup3\n        /* \"#utility.yul\":2414:2417   */\n      dup3\n        /* \"#utility.yul\":2407:2426   */\n      mstore\n        /* \"#utility.yul\":2459:2463   */\n      0x20\n        /* \"#utility.yul\":2454:2457   */\n      dup3\n        /* \"#utility.yul\":2450:2464   */\n      add\n        /* \"#utility.yul\":2435:2464   */\n      swap1\n      pop\n        /* \"#utility.yul\":2301:2470   */\n      swap3\n      swap2\n      pop\n      pop\n      jump\t// out\n        /* \"#utility.yul\":2476:2615   */\n    tag_173:\n        /* \"#utility.yul\":2565:2571   */\n      dup3\n        /* \"#utility.yul\":2560:2563   */\n      dup2\n        /* \"#utility.yul\":2555:2558   */\n      dup4\n        /* \"#utility.yul\":2549:2572   */\n      mcopy\n        /* \"#utility.yul\":2606:2607   */\n      0x00\n        /* \"#utility.yul\":2597:2603   */\n      dup4\n        /* \"#utility.yul\":2592:2595   */\n      dup4\n        /* \"#utility.yul\":2588:2604   */\n      add\n        /* \"#utility.yul\":2581:2608   */\n      mstore\n        /* \"#utility.yul\":2476:2615   */\n      pop\n      pop\n      pop\n      jump\t// out\n        /* \"#utility.yul\":2621:2723   */\n    tag_174:\n        /* \"#utility.yul\":2662:2668   */\n      0x00\n        /* \"#utility.yul\":2713:2715   */\n      0x1f\n        /* \"#utility.yul\":2709:2716   */\n      not\n        /* \"#utility.yul\":2704:2706   */\n      0x1f\n        /* \"#utility.yul\":2697:2702   */\n      dup4\n        /* \"#utility.yul\":2693:2707   */\n      add\n        /* \"#utility.yul\":2689:2717   */\n      and\n        /* \"#utility.yul\":2679:2717   */\n      swap1\n      pop\n        /* \"#utility.yul\":2621:2723   */\n      swap2\n      swap1\n      pop\n      jump\t// out\n        /* \"#utility.yul\":2729:3106   */\n    tag_175:\n        /* \"#utility.yul\":2817:2820   */\n      0x00\n        /* \"#utility.yul\":2845:2884   */\n      tag_211\n        /* \"#utility.yul\":2878:2883   */\n      dup3\n        /* \"#utility.yul\":2845:2884   */\n      tag_171\n      jump\t// in\n    tag_211:\n        /* \"#utility.yul\":2900:2971   */\n      tag_212\n        /* \"#utility.yul\":2964:2970   */\n      dup2\n        /* \"#utility.yul\":2959:2962   */\n      dup6\n        /* \"#utility.yul\":2900:2971   */\n      tag_172\n      jump\t// in\n    tag_212:\n        /* \"#utility.yul\":2893:2971   */\n      swap4\n      pop\n        /* \"#utility.yul\":2980:3045   */\n      tag_213\n        /* \"#utility.yul\":3038:3044   */\n      dup2\n        /* \"#utility.yul\":3033:3036   */\n      dup6\n        /* \"#utility.yul\":3026:3030   */\n      0x20\n        /* \"#utility.yul\":3019:3024   */\n      dup7\n        /* \"#utility.yul\":3015:3031   */\n      add\n        /* \"#utility.yul\":2980:3045   */\n      tag_173\n      jump\t// in\n    tag_213:\n        /* \"#utility.yul\":3070:3099   */\n      tag_214\n        /* \"#utility.yul\":3092:3098   */\n      dup2\n        /* \"#utility.yul\":3070:3099   */\n      tag_174\n      jump\t// in\n    tag_214:\n        /* \"#utility.yul\":3065:3068   */\n      dup5\n        /* \"#utility.yul\":3061:3100   */\n      add\n        /* \"#utility.yul\":3054:3100   */\n      swap2\n      pop\n        /* \"#utility.yul\":2821:3106   */\n      pop\n        /* \"#utility.yul\":2729:3106   */\n      swap3\n      swap2\n      pop\n      pop\n      jump\t// out\n        /* \"#utility.yul\":3112:3425   */\n    tag_30:\n        /* \"#utility.yul\":3225:3229   */\n      0x00\n        /* \"#utility.yul\":3263:3265   */\n      0x20\n        /* \"#utility.yul\":3252:3261   */\n      dup3\n        /* \"#utility.yul\":3248:3266   */\n      add\n        /* \"#utility.yul\":3240:3266   */\n      swap1\n      pop\n        /* \"#utility.yul\":3312:3321   */\n      dup2\n        /* \"#utility.yul\":3306:3310   */\n      dup2\n        /* \"#utility.yul\":3302:3322   */\n      sub\n        /* \"#utility.yul\":3298:3299   */\n      0x00\n        /* \"#utility.yul\":3287:3296   */\n      dup4\n        /* \"#utility.yul\":3283:3300   */\n      add\n        /* \"#utility.yul\":3276:3323   */\n      mstore\n        /* \"#utility.yul\":3340:3418   */\n      tag_216\n        /* \"#utility.yul\":3413:3417   */\n      dup2\n        /* \"#utility.yul\":3404:3410   */\n      dup5\n        /* \"#utility.yul\":3340:3418   */\n      tag_175\n      jump\t// in\n    tag_216:\n        /* \"#utility.yul\":3332:3418   */\n      swap1\n      pop\n        /* \"#utility.yul\":3112:3425   */\n      swap3\n      swap2\n      pop\n      pop\n      jump\t// out\n        /* \"#utility.yul\":3431:3756   */\n    tag_33:\n        /* \"#utility.yul\":3488:3494   */\n      0x00\n        /* \"#utility.yul\":3537:3539   */\n      0x20\n        /* \"#utility.yul\":3525:3534   */\n      dup3\n        /* \"#utility.yul\":3516:3523   */\n      dup5\n        /* \"#utility.yul\":3512:3535   */\n      sub\n        /* \"#utility.yul\":3508:3540   */\n      slt\n        /* \"#utility.yul\":3505:3624   */\n      iszero\n      tag_218\n      jumpi\n        /* \"#utility.yul\":3543:3622   */\n      tag_219\n      tag_162\n      jump\t// in\n    tag_219:\n        /* \"#utility.yul\":3505:3624   */\n    tag_218:\n        /* \"#utility.yul\":3663:3664   */\n      0x00\n        /* \"#utility.yul\":3688:3739   */\n      tag_220\n        /* \"#utility.yul\":3731:3738   */\n      dup5\n        /* \"#utility.yul\":3722:3728   */\n      dup3\n        /* \"#utility.yul\":3711:3720   */\n      dup6\n        /* \"#utility.yul\":3707:3729   */\n      add\n        /* \"#utility.yul\":3688:3739   */\n      tag_169\n      jump\t// in\n    tag_220:\n        /* \"#utility.yul\":3678:3739   */\n      swap2\n      pop\n        /* \"#utility.yul\":3634:3749   */\n      pop\n        /* \"#utility.yul\":3431:3756   */\n      swap3\n      swap2\n      pop\n      pop\n      jump\t// out\n        /* \"#utility.yul\":3762:3942   */\n    tag_176:\n        /* \"#utility.yul\":3810:3887   */\n      0x4e487b7100000000000000000000000000000000000000000000000000000000\n        /* \"#utility.yul\":3807:3808   */\n      0x00\n        /* \"#utility.yul\":3800:3888   */\n      mstore\n        /* \"#utility.yul\":3907:3911   */\n      0x11\n        /* \"#utility.yul\":3904:3905   */\n      0x04\n        /* \"#utility.yul\":3897:3912   */\n      mstore\n        /* \"#utility.yul\":3931:3935   */\n      0x24\n        /* \"#utility.yul\":3928:3929   */\n      0x00\n        /* \"#utility.yul\":3921:3936   */\n      revert\n        /* \"#utility.yul\":3948:4358   */\n    tag_155:\n        /* \"#utility.yul\":3988:3995   */\n      0x00\n        /* \"#utility.yul\":4011:4031   */\n      tag_223\n        /* \"#utility.yul\":4029:4030   */\n      dup3\n        /* \"#utility.yul\":4011:4031   */\n      tag_164\n      jump\t// in\n    tag_223:\n        /* \"#utility.yul\":4006:4031   */\n      swap2\n      pop\n        /* \"#utility.yul\":4045:4065   */\n      tag_224\n        /* \"#utility.yul\":4063:4064   */\n      dup4\n        /* \"#utility.yul\":4045:4065   */\n      tag_164\n      jump\t// in\n    tag_224:\n        /* \"#utility.yul\":4040:4065   */\n      swap3\n      pop\n        /* \"#utility.yul\":4100:4101   */\n      dup3\n        /* \"#utility.yul\":4097:4098   */\n      dup3\n        /* \"#utility.yul\":4093:4102   */\n      mul\n        /* \"#utility.yul\":4122:4152   */\n      tag_225\n        /* \"#utility.yul\":4140:4151   */\n      dup2\n        /* \"#utility.yul\":4122:4152   */\n      tag_164\n      jump\t// in\n    tag_225:\n        /* \"#utility.yul\":4111:4152   */\n      swap2\n      pop\n        /* \"#utility.yul\":4301:4302   */\n      dup3\n        /* \"#utility.yul\":4292:4299   */\n      dup3\n        /* \"#utility.yul\":4288:4303   */\n      div\n        /* \"#utility.yul\":4285:4286   */\n      dup5\n        /* \"#utility.yul\":4282:4304   */\n      eq\n        /* \"#utility.yul\":4262:4263   */\n      dup4\n        /* \"#utility.yul\":4255:4264   */\n      iszero\n        /* \"#utility.yul\":4235:4318   */\n      or\n        /* \"#utility.yul\":4212:4351   */\n      tag_226\n      jumpi\n        /* \"#utility.yul\":4331:4349   */\n      tag_227\n      tag_176\n      jump\t// in\n    tag_227:\n        /* \"#utility.yul\":4212:4351   */\n    tag_226:\n        /* \"#utility.yul\":3996:4358   */\n      pop\n        /* \"#utility.yul\":3948:4358   */\n      swap3\n      swap2\n      pop\n      pop\n      jump\t// out\n\n    auxdata: 0xa2646970667358221220f72ce5aa36ac0ccdf31232fac3c6206c06339baf62fae8e128f51e5d7a2fe22d64736f6c634300081a0033\n}\n",
				"bytecode": {
					"linkReferences": {},
					"object": "6080604052348015600e575f80fd5b50610abc8061001c5f395ff3fe608060405234801561000f575f80fd5b506004361061009c575f3560e01c806394fb5fa01161006457806394fb5fa014610144578063c50115f914610160578063dd7af8b014610190578063e91e0ef3146101c0578063f5f6f027146101ca5761009c565b80631439c35b146100a05780638146911d146100bc57806382f76880146100da578063919840ad1461010a57806393eeeb4114610128575b5f80fd5b6100ba60048036038101906100b591906108cc565b6101e6565b005b6100c4610200565b6040516100d19190610919565b60405180910390f35b6100f460048036038101906100ef9190610932565b61021a565b6040516101019190610919565b60405180910390f35b610112610236565b60405161011f91906109cd565b60405180910390f35b610142600480360381019061013d91906109ed565b6102db565b005b61015e600480360381019061015991906108cc565b6102f4565b005b61017a60048036038101906101759190610932565b61030e565b6040516101879190610919565b60405180910390f35b6101aa60048036038101906101a59190610932565b61032a565b6040516101b79190610919565b60405180910390f35b6101c8610346565b005b6101e460048036038101906101df91906108cc565b61035b565b005b6101fc828260036103759092919063ffffffff16565b5050565b5f61021533600161038790919063ffffffff16565b905090565b5f61022f8260026103a490919063ffffffff16565b9050919050565b606061024b335f6103b990919063ffffffff16565b61029f576040518060400160405280601981526020017f77656c636f6d652c206e69636520746f206d65657420796f7500000000000000815250905061029a335f6103d690919063ffffffff16565b6102d8565b6040518060400160405280600e81526020017f68692c206d792062726f7468657200000000000000000000000000000000000081525090505b90565b6102f1338260016103ee9092919063ffffffff16565b50565b61030a828260046104089092919063ffffffff16565b5050565b5f61032382600461041a90919063ffffffff16565b9050919050565b5f61033f82600361042f90919063ffffffff16565b9050919050565b610359335f61044490919063ffffffff16565b565b6103718282600261045c9092919063ffffffff16565b5050565b610382835f01838361046e565b505050565b5f61039c835f0161039784610508565b610527565b905092915050565b5f6103b1835f0183610527565b905092915050565b5f6103ce835f016103c984610560565b61057f565b905092915050565b6103ea825f016103e583610560565b6105b1565b5050565b610403835f016103fd84610508565b836105e5565b505050565b610415835f01838361067f565b505050565b5f610427835f0183610719565b905092915050565b5f61043c835f0183610752565b905092915050565b610458825f0161045383610560565b61078b565b5050565b610469835f0183836105e5565b505050565b600f8160ff1611156104b757806040517f82b0e9dc0000000000000000000000000000000000000000000000000000000081526004016104ae9190610919565b60405180910390fd5b5f805f6104c3856107c0565b9250925092508060ff168460ff16901b8219875f015f8681526020019081526020015f20541617865f015f8581526020019081526020015f2081905550505050505050565b5f8173ffffffffffffffffffffffffffffffffffffffff169050919050565b5f805f80610534856107ed565b9250925092508060ff1682875f015f8681526020019081526020015f205416901c935050505092915050565b5f8173ffffffffffffffffffffffffffffffffffffffff169050919050565b5f805f61058b8461081a565b915091505f81865f015f8581526020019081526020015f20541614159250505092915050565b5f806105bc8361081a565b9150915080845f015f8481526020019081526020015f205f828254179250508190555050505050565b60038160ff16111561062e57806040517f9a0c55180000000000000000000000000000000000000000000000000000000081526004016106259190610919565b60405180910390fd5b5f805f61063a856107ed565b9250925092508060ff168460ff16901b8219875f015f8681526020019081526020015f20541617865f015f8581526020019081526020015f2081905550505050505050565b60ff8160ff1611156106c857806040517fae2787310000000000000000000000000000000000000000000000000000000081526004016106bf9190610919565b60405180910390fd5b5f805f6106d485610832565b9250925092508060ff168460ff16901b8219875f015f8681526020019081526020015f20541617865f015f8581526020019081526020015f2081905550505050505050565b5f805f8061072685610832565b9250925092508060ff1682875f015f8681526020019081526020015f205416901c935050505092915050565b5f805f8061075f856107c0565b9250925092508060ff1682875f015f8681526020019081526020015f205416901c935050505092915050565b5f806107968361081a565b915091508019845f015f8481526020019081526020015f205f828254169250508190555050505050565b5f805f600684901c9250603f841660046107da9190610a45565b90508060ff16600f901b91509193909250565b5f805f600784901c9250607f841660026108079190610a45565b90508060ff166003901b91509193909250565b5f80600883901c915060ff83166001901b9050915091565b5f805f600584901c9250601f8416600861084c9190610a45565b90508060ff1660ff901b91509193909250565b5f80fd5b5f819050919050565b61087581610863565b811461087f575f80fd5b50565b5f813590506108908161086c565b92915050565b5f60ff82169050919050565b6108ab81610896565b81146108b5575f80fd5b50565b5f813590506108c6816108a2565b92915050565b5f80604083850312156108e2576108e161085f565b5b5f6108ef85828601610882565b9250506020610900858286016108b8565b9150509250929050565b61091381610896565b82525050565b5f60208201905061092c5f83018461090a565b92915050565b5f602082840312156109475761094661085f565b5b5f61095484828501610882565b91505092915050565b5f81519050919050565b5f82825260208201905092915050565b8281835e5f83830152505050565b5f601f19601f8301169050919050565b5f61099f8261095d565b6109a98185610967565b93506109b9818560208601610977565b6109c281610985565b840191505092915050565b5f6020820190508181035f8301526109e58184610995565b905092915050565b5f60208284031215610a0257610a0161085f565b5b5f610a0f848285016108b8565b91505092915050565b7f4e487b71000000000000000000000000000000000000000000000000000000005f52601160045260245ffd5b5f610a4f82610863565b9150610a5a83610863565b9250828202610a6881610863565b91508282048414831517610a7f57610a7e610a18565b5b509291505056fea2646970667358221220f72ce5aa36ac0ccdf31232fac3c6206c06339baf62fae8e128f51e5d7a2fe22d64736f6c634300081a0033",
					"opcodes": "PUSH1 0x80 PUSH1 0x40 MSTORE CALLVALUE DUP1 ISZERO PUSH1 0xE JUMPI PUSH0 DUP1 REVERT JUMPDEST POP PUSH2 0xABC DUP1 PUSH2 0x1C PUSH0 CODECOPY PUSH0 RETURN INVALID PUSH1 0x80 PUSH1 0x40 MSTORE CALLVALUE DUP1 ISZERO PUSH2 0xF JUMPI PUSH0 DUP1 REVERT JUMPDEST POP PUSH1 0x4 CALLDATASIZE LT PUSH2 0x9C JUMPI PUSH0 CALLDATALOAD PUSH1 0xE0 SHR DUP1 PUSH4 0x94FB5FA0 GT PUSH2 0x64 JUMPI DUP1 PUSH4 0x94FB5FA0 EQ PUSH2 0x144 JUMPI DUP1 PUSH4 0xC50115F9 EQ PUSH2 0x160 JUMPI DUP1 PUSH4 0xDD7AF8B0 EQ PUSH2 0x190 JUMPI DUP1 PUSH4 0xE91E0EF3 EQ PUSH2 0x1C0 JUMPI DUP1 PUSH4 0xF5F6F027 EQ PUSH2 0x1CA JUMPI PUSH2 0x9C JUMP JUMPDEST DUP1 PUSH4 0x1439C35B EQ PUSH2 0xA0 JUMPI DUP1 PUSH4 0x8146911D EQ PUSH2 0xBC JUMPI DUP1 PUSH4 0x82F76880 EQ PUSH2 0xDA JUMPI DUP1 PUSH4 0x919840AD EQ PUSH2 0x10A JUMPI DUP1 PUSH4 0x93EEEB41 EQ PUSH2 0x128 JUMPI JUMPDEST PUSH0 DUP1 REVERT JUMPDEST PUSH2 0xBA PUSH1 0x4 DUP1 CALLDATASIZE SUB DUP2 ADD SWAP1 PUSH2 0xB5 SWAP2 SWAP1 PUSH2 0x8CC JUMP JUMPDEST PUSH2 0x1E6 JUMP JUMPDEST STOP JUMPDEST PUSH2 0xC4 PUSH2 0x200 JUMP JUMPDEST PUSH1 0x40 MLOAD PUSH2 0xD1 SWAP2 SWAP1 PUSH2 0x919 JUMP JUMPDEST PUSH1 0x40 MLOAD DUP1 SWAP2 SUB SWAP1 RETURN JUMPDEST PUSH2 0xF4 PUSH1 0x4 DUP1 CALLDATASIZE SUB DUP2 ADD SWAP1 PUSH2 0xEF SWAP2 SWAP1 PUSH2 0x932 JUMP JUMPDEST PUSH2 0x21A JUMP JUMPDEST PUSH1 0x40 MLOAD PUSH2 0x101 SWAP2 SWAP1 PUSH2 0x919 JUMP JUMPDEST PUSH1 0x40 MLOAD DUP1 SWAP2 SUB SWAP1 RETURN JUMPDEST PUSH2 0x112 PUSH2 0x236 JUMP JUMPDEST PUSH1 0x40 MLOAD PUSH2 0x11F SWAP2 SWAP1 PUSH2 0x9CD JUMP JUMPDEST PUSH1 0x40 MLOAD DUP1 SWAP2 SUB SWAP1 RETURN JUMPDEST PUSH2 0x142 PUSH1 0x4 DUP1 CALLDATASIZE SUB DUP2 ADD SWAP1 PUSH2 0x13D SWAP2 SWAP1 PUSH2 0x9ED JUMP JUMPDEST PUSH2 0x2DB JUMP JUMPDEST STOP JUMPDEST PUSH2 0x15E PUSH1 0x4 DUP1 CALLDATASIZE SUB DUP2 ADD SWAP1 PUSH2 0x159 SWAP2 SWAP1 PUSH2 0x8CC JUMP JUMPDEST PUSH2 0x2F4 JUMP JUMPDEST STOP JUMPDEST PUSH2 0x17A PUSH1 0x4 DUP1 CALLDATASIZE SUB DUP2 ADD SWAP1 PUSH2 0x175 SWAP2 SWAP1 PUSH2 0x932 JUMP JUMPDEST PUSH2 0x30E JUMP JUMPDEST PUSH1 0x40 MLOAD PUSH2 0x187 SWAP2 SWAP1 PUSH2 0x919 JUMP JUMPDEST PUSH1 0x40 MLOAD DUP1 SWAP2 SUB SWAP1 RETURN JUMPDEST PUSH2 0x1AA PUSH1 0x4 DUP1 CALLDATASIZE SUB DUP2 ADD SWAP1 PUSH2 0x1A5 SWAP2 SWAP1 PUSH2 0x932 JUMP JUMPDEST PUSH2 0x32A JUMP JUMPDEST PUSH1 0x40 MLOAD PUSH2 0x1B7 SWAP2 SWAP1 PUSH2 0x919 JUMP JUMPDEST PUSH1 0x40 MLOAD DUP1 SWAP2 SUB SWAP1 RETURN JUMPDEST PUSH2 0x1C8 PUSH2 0x346 JUMP JUMPDEST STOP JUMPDEST PUSH2 0x1E4 PUSH1 0x4 DUP1 CALLDATASIZE SUB DUP2 ADD SWAP1 PUSH2 0x1DF SWAP2 SWAP1 PUSH2 0x8CC JUMP JUMPDEST PUSH2 0x35B JUMP JUMPDEST STOP JUMPDEST PUSH2 0x1FC DUP3 DUP3 PUSH1 0x3 PUSH2 0x375 SWAP1 SWAP3 SWAP2 SWAP1 PUSH4 0xFFFFFFFF AND JUMP JUMPDEST POP POP JUMP JUMPDEST PUSH0 PUSH2 0x215 CALLER PUSH1 0x1 PUSH2 0x387 SWAP1 SWAP2 SWAP1 PUSH4 0xFFFFFFFF AND JUMP JUMPDEST SWAP1 POP SWAP1 JUMP JUMPDEST PUSH0 PUSH2 0x22F DUP3 PUSH1 0x2 PUSH2 0x3A4 SWAP1 SWAP2 SWAP1 PUSH4 0xFFFFFFFF AND JUMP JUMPDEST SWAP1 POP SWAP2 SWAP1 POP JUMP JUMPDEST PUSH1 0x60 PUSH2 0x24B CALLER PUSH0 PUSH2 0x3B9 SWAP1 SWAP2 SWAP1 PUSH4 0xFFFFFFFF AND JUMP JUMPDEST PUSH2 0x29F JUMPI PUSH1 0x40 MLOAD DUP1 PUSH1 0x40 ADD PUSH1 0x40 MSTORE DUP1 PUSH1 0x19 DUP2 MSTORE PUSH1 0x20 ADD PUSH32 0x77656C636F6D652C206E69636520746F206D65657420796F7500000000000000 DUP2 MSTORE POP SWAP1 POP PUSH2 0x29A CALLER PUSH0 PUSH2 0x3D6 SWAP1 SWAP2 SWAP1 PUSH4 0xFFFFFFFF AND JUMP JUMPDEST PUSH2 0x2D8 JUMP JUMPDEST PUSH1 0x40 MLOAD DUP1 PUSH1 0x40 ADD PUSH1 0x40 MSTORE DUP1 PUSH1 0xE DUP2 MSTORE PUSH1 0x20 ADD PUSH32 0x68692C206D792062726F74686572000000000000000000000000000000000000 DUP2 MSTORE POP SWAP1 POP JUMPDEST SWAP1 JUMP JUMPDEST PUSH2 0x2F1 CALLER DUP3 PUSH1 0x1 PUSH2 0x3EE SWAP1 SWAP3 SWAP2 SWAP1 PUSH4 0xFFFFFFFF AND JUMP JUMPDEST POP JUMP JUMPDEST PUSH2 0x30A DUP3 DUP3 PUSH1 0x4 PUSH2 0x408 SWAP1 SWAP3 SWAP2 SWAP1 PUSH4 0xFFFFFFFF AND JUMP JUMPDEST POP POP JUMP JUMPDEST PUSH0 PUSH2 0x323 DUP3 PUSH1 0x4 PUSH2 0x41A SWAP1 SWAP2 SWAP1 PUSH4 0xFFFFFFFF AND JUMP JUMPDEST SWAP1 POP SWAP2 SWAP1 POP JUMP JUMPDEST PUSH0 PUSH2 0x33F DUP3 PUSH1 0x3 PUSH2 0x42F SWAP1 SWAP2 SWAP1 PUSH4 0xFFFFFFFF AND JUMP JUMPDEST SWAP1 POP SWAP2 SWAP1 POP JUMP JUMPDEST PUSH2 0x359 CALLER PUSH0 PUSH2 0x444 SWAP1 SWAP2 SWAP1 PUSH4 0xFFFFFFFF AND JUMP JUMPDEST JUMP JUMPDEST PUSH2 0x371 DUP3 DUP3 PUSH1 0x2 PUSH2 0x45C SWAP1 SWAP3 SWAP2 SWAP1 PUSH4 0xFFFFFFFF AND JUMP JUMPDEST POP POP JUMP JUMPDEST PUSH2 0x382 DUP4 PUSH0 ADD DUP4 DUP4 PUSH2 0x46E JUMP JUMPDEST POP POP POP JUMP JUMPDEST PUSH0 PUSH2 0x39C DUP4 PUSH0 ADD PUSH2 0x397 DUP5 PUSH2 0x508 JUMP JUMPDEST PUSH2 0x527 JUMP JUMPDEST SWAP1 POP SWAP3 SWAP2 POP POP JUMP JUMPDEST PUSH0 PUSH2 0x3B1 DUP4 PUSH0 ADD DUP4 PUSH2 0x527 JUMP JUMPDEST SWAP1 POP SWAP3 SWAP2 POP POP JUMP JUMPDEST PUSH0 PUSH2 0x3CE DUP4 PUSH0 ADD PUSH2 0x3C9 DUP5 PUSH2 0x560 JUMP JUMPDEST PUSH2 0x57F JUMP JUMPDEST SWAP1 POP SWAP3 SWAP2 POP POP JUMP JUMPDEST PUSH2 0x3EA DUP3 PUSH0 ADD PUSH2 0x3E5 DUP4 PUSH2 0x560 JUMP JUMPDEST PUSH2 0x5B1 JUMP JUMPDEST POP POP JUMP JUMPDEST PUSH2 0x403 DUP4 PUSH0 ADD PUSH2 0x3FD DUP5 PUSH2 0x508 JUMP JUMPDEST DUP4 PUSH2 0x5E5 JUMP JUMPDEST POP POP POP JUMP JUMPDEST PUSH2 0x415 DUP4 PUSH0 ADD DUP4 DUP4 PUSH2 0x67F JUMP JUMPDEST POP POP POP JUMP JUMPDEST PUSH0 PUSH2 0x427 DUP4 PUSH0 ADD DUP4 PUSH2 0x719 JUMP JUMPDEST SWAP1 POP SWAP3 SWAP2 POP POP JUMP JUMPDEST PUSH0 PUSH2 0x43C DUP4 PUSH0 ADD DUP4 PUSH2 0x752 JUMP JUMPDEST SWAP1 POP SWAP3 SWAP2 POP POP JUMP JUMPDEST PUSH2 0x458 DUP3 PUSH0 ADD PUSH2 0x453 DUP4 PUSH2 0x560 JUMP JUMPDEST PUSH2 0x78B JUMP JUMPDEST POP POP JUMP JUMPDEST PUSH2 0x469 DUP4 PUSH0 ADD DUP4 DUP4 PUSH2 0x5E5 JUMP JUMPDEST POP POP POP JUMP JUMPDEST PUSH1 0xF DUP2 PUSH1 0xFF AND GT ISZERO PUSH2 0x4B7 JUMPI DUP1 PUSH1 0x40 MLOAD PUSH32 0x82B0E9DC00000000000000000000000000000000000000000000000000000000 DUP2 MSTORE PUSH1 0x4 ADD PUSH2 0x4AE SWAP2 SWAP1 PUSH2 0x919 JUMP JUMPDEST PUSH1 0x40 MLOAD DUP1 SWAP2 SUB SWAP1 REVERT JUMPDEST PUSH0 DUP1 PUSH0 PUSH2 0x4C3 DUP6 PUSH2 0x7C0 JUMP JUMPDEST SWAP3 POP SWAP3 POP SWAP3 POP DUP1 PUSH1 0xFF AND DUP5 PUSH1 0xFF AND SWAP1 SHL DUP3 NOT DUP8 PUSH0 ADD PUSH0 DUP7 DUP2 MSTORE PUSH1 0x20 ADD SWAP1 DUP2 MSTORE PUSH1 0x20 ADD PUSH0 KECCAK256 SLOAD AND OR DUP7 PUSH0 ADD PUSH0 DUP6 DUP2 MSTORE PUSH1 0x20 ADD SWAP1 DUP2 MSTORE PUSH1 0x20 ADD PUSH0 KECCAK256 DUP2 SWAP1 SSTORE POP POP POP POP POP POP POP JUMP JUMPDEST PUSH0 DUP2 PUSH20 0xFFFFFFFFFFFFFFFFFFFFFFFFFFFFFFFFFFFFFFFF AND SWAP1 POP SWAP2 SWAP1 POP JUMP JUMPDEST PUSH0 DUP1 PUSH0 DUP1 PUSH2 0x534 DUP6 PUSH2 0x7ED JUMP JUMPDEST SWAP3 POP SWAP3 POP SWAP3 POP DUP1 PUSH1 0xFF AND DUP3 DUP8 PUSH0 ADD PUSH0 DUP7 DUP2 MSTORE PUSH1 0x20 ADD SWAP1 DUP2 MSTORE PUSH1 0x20 ADD PUSH0 KECCAK256 SLOAD AND SWAP1 SHR SWAP4 POP POP POP POP SWAP3 SWAP2 POP POP JUMP JUMPDEST PUSH0 DUP2 PUSH20 0xFFFFFFFFFFFFFFFFFFFFFFFFFFFFFFFFFFFFFFFF AND SWAP1 POP SWAP2 SWAP1 POP JUMP JUMPDEST PUSH0 DUP1 PUSH0 PUSH2 0x58B DUP5 PUSH2 0x81A JUMP JUMPDEST SWAP2 POP SWAP2 POP PUSH0 DUP2 DUP7 PUSH0 ADD PUSH0 DUP6 DUP2 MSTORE PUSH1 0x20 ADD SWAP1 DUP2 MSTORE PUSH1 0x20 ADD PUSH0 KECCAK256 SLOAD AND EQ ISZERO SWAP3 POP POP POP SWAP3 SWAP2 POP POP JUMP JUMPDEST PUSH0 DUP1 PUSH2 0x5BC DUP4 PUSH2 0x81A JUMP JUMPDEST SWAP2 POP SWAP2 POP DUP1 DUP5 PUSH0 ADD PUSH0 DUP5 DUP2 MSTORE PUSH1 0x20 ADD SWAP1 DUP2 MSTORE PUSH1 0x20 ADD PUSH0 KECCAK256 PUSH0 DUP3 DUP3 SLOAD OR SWAP3 POP POP DUP2 SWAP1 SSTORE POP POP POP POP POP JUMP JUMPDEST PUSH1 0x3 DUP2 PUSH1 0xFF AND GT ISZERO PUSH2 0x62E JUMPI DUP1 PUSH1 0x40 MLOAD PUSH32 0x9A0C551800000000000000000000000000000000000000000000000000000000 DUP2 MSTORE PUSH1 0x4 ADD PUSH2 0x625 SWAP2 SWAP1 PUSH2 0x919 JUMP JUMPDEST PUSH1 0x40 MLOAD DUP1 SWAP2 SUB SWAP1 REVERT JUMPDEST PUSH0 DUP1 PUSH0 PUSH2 0x63A DUP6 PUSH2 0x7ED JUMP JUMPDEST SWAP3 POP SWAP3 POP SWAP3 POP DUP1 PUSH1 0xFF AND DUP5 PUSH1 0xFF AND SWAP1 SHL DUP3 NOT DUP8 PUSH0 ADD PUSH0 DUP7 DUP2 MSTORE PUSH1 0x20 ADD SWAP1 DUP2 MSTORE PUSH1 0x20 ADD PUSH0 KECCAK256 SLOAD AND OR DUP7 PUSH0 ADD PUSH0 DUP6 DUP2 MSTORE PUSH1 0x20 ADD SWAP1 DUP2 MSTORE PUSH1 0x20 ADD PUSH0 KECCAK256 DUP2 SWAP1 SSTORE POP POP POP POP POP POP POP JUMP JUMPDEST PUSH1 0xFF DUP2 PUSH1 0xFF AND GT ISZERO PUSH2 0x6C8 JUMPI DUP1 PUSH1 0x40 MLOAD PUSH32 0xAE27873100000000000000000000000000000000000000000000000000000000 DUP2 MSTORE PUSH1 0x4 ADD PUSH2 0x6BF SWAP2 SWAP1 PUSH2 0x919 JUMP JUMPDEST PUSH1 0x40 MLOAD DUP1 SWAP2 SUB SWAP1 REVERT JUMPDEST PUSH0 DUP1 PUSH0 PUSH2 0x6D4 DUP6 PUSH2 0x832 JUMP JUMPDEST SWAP3 POP SWAP3 POP SWAP3 POP DUP1 PUSH1 0xFF AND DUP5 PUSH1 0xFF AND SWAP1 SHL DUP3 NOT DUP8 PUSH0 ADD PUSH0 DUP7 DUP2 MSTORE PUSH1 0x20 ADD SWAP1 DUP2 MSTORE PUSH1 0x20 ADD PUSH0 KECCAK256 SLOAD AND OR DUP7 PUSH0 ADD PUSH0 DUP6 DUP2 MSTORE PUSH1 0x20 ADD SWAP1 DUP2 MSTORE PUSH1 0x20 ADD PUSH0 KECCAK256 DUP2 SWAP1 SSTORE POP POP POP POP POP POP POP JUMP JUMPDEST PUSH0 DUP1 PUSH0 DUP1 PUSH2 0x726 DUP6 PUSH2 0x832 JUMP JUMPDEST SWAP3 POP SWAP3 POP SWAP3 POP DUP1 PUSH1 0xFF AND DUP3 DUP8 PUSH0 ADD PUSH0 DUP7 DUP2 MSTORE PUSH1 0x20 ADD SWAP1 DUP2 MSTORE PUSH1 0x20 ADD PUSH0 KECCAK256 SLOAD AND SWAP1 SHR SWAP4 POP POP POP POP SWAP3 SWAP2 POP POP JUMP JUMPDEST PUSH0 DUP1 PUSH0 DUP1 PUSH2 0x75F DUP6 PUSH2 0x7C0 JUMP JUMPDEST SWAP3 POP SWAP3 POP SWAP3 POP DUP1 PUSH1 0xFF AND DUP3 DUP8 PUSH0 ADD PUSH0 DUP7 DUP2 MSTORE PUSH1 0x20 ADD SWAP1 DUP2 MSTORE PUSH1 0x20 ADD PUSH0 KECCAK256 SLOAD AND SWAP1 SHR SWAP4 POP POP POP POP SWAP3 SWAP2 POP POP JUMP JUMPDEST PUSH0 DUP1 PUSH2 0x796 DUP4 PUSH2 0x81A JUMP JUMPDEST SWAP2 POP SWAP2 POP DUP1 NOT DUP5 PUSH0 ADD PUSH0 DUP5 DUP2 MSTORE PUSH1 0x20 ADD SWAP1 DUP2 MSTORE PUSH1 0x20 ADD PUSH0 KECCAK256 PUSH0 DUP3 DUP3 SLOAD AND SWAP3 POP POP DUP2 SWAP1 SSTORE POP POP POP POP POP JUMP JUMPDEST PUSH0 DUP1 PUSH0 PUSH1 0x6 DUP5 SWAP1 SHR SWAP3 POP PUSH1 0x3F DUP5 AND PUSH1 0x4 PUSH2 0x7DA SWAP2 SWAP1 PUSH2 0xA45 JUMP JUMPDEST SWAP1 POP DUP1 PUSH1 0xFF AND PUSH1 0xF SWAP1 SHL SWAP2 POP SWAP2 SWAP4 SWAP1 SWAP3 POP JUMP JUMPDEST PUSH0 DUP1 PUSH0 PUSH1 0x7 DUP5 SWAP1 SHR SWAP3 POP PUSH1 0x7F DUP5 AND PUSH1 0x2 PUSH2 0x807 SWAP2 SWAP1 PUSH2 0xA45 JUMP JUMPDEST SWAP1 POP DUP1 PUSH1 0xFF AND PUSH1 0x3 SWAP1 SHL SWAP2 POP SWAP2 SWAP4 SWAP1 SWAP3 POP JUMP JUMPDEST PUSH0 DUP1 PUSH1 0x8 DUP4 SWAP1 SHR SWAP2 POP PUSH1 0xFF DUP4 AND PUSH1 0x1 SWAP1 SHL SWAP1 POP SWAP2 POP SWAP2 JUMP JUMPDEST PUSH0 DUP1 PUSH0 PUSH1 0x5 DUP5 SWAP1 SHR SWAP3 POP PUSH1 0x1F DUP5 AND PUSH1 0x8 PUSH2 0x84C SWAP2 SWAP1 PUSH2 0xA45 JUMP JUMPDEST SWAP1 POP DUP1 PUSH1 0xFF AND PUSH1 0xFF SWAP1 SHL SWAP2 POP SWAP2 SWAP4 SWAP1 SWAP3 POP JUMP JUMPDEST PUSH0 DUP1 REVERT JUMPDEST PUSH0 DUP2 SWAP1 POP SWAP2 SWAP1 POP JUMP JUMPDEST PUSH2 0x875 DUP2 PUSH2 0x863 JUMP JUMPDEST DUP2 EQ PUSH2 0x87F JUMPI PUSH0 DUP1 REVERT JUMPDEST POP JUMP JUMPDEST PUSH0 DUP2 CALLDATALOAD SWAP1 POP PUSH2 0x890 DUP2 PUSH2 0x86C JUMP JUMPDEST SWAP3 SWAP2 POP POP JUMP JUMPDEST PUSH0 PUSH1 0xFF DUP3 AND SWAP1 POP SWAP2 SWAP1 POP JUMP JUMPDEST PUSH2 0x8AB DUP2 PUSH2 0x896 JUMP JUMPDEST DUP2 EQ PUSH2 0x8B5 JUMPI PUSH0 DUP1 REVERT JUMPDEST POP JUMP JUMPDEST PUSH0 DUP2 CALLDATALOAD SWAP1 POP PUSH2 0x8C6 DUP2 PUSH2 0x8A2 JUMP JUMPDEST SWAP3 SWAP2 POP POP JUMP JUMPDEST PUSH0 DUP1 PUSH1 0x40 DUP4 DUP6 SUB SLT ISZERO PUSH2 0x8E2 JUMPI PUSH2 0x8E1 PUSH2 0x85F JUMP JUMPDEST JUMPDEST PUSH0 PUSH2 0x8EF DUP6 DUP3 DUP7 ADD PUSH2 0x882 JUMP JUMPDEST SWAP3 POP POP PUSH1 0x20 PUSH2 0x900 DUP6 DUP3 DUP7 ADD PUSH2 0x8B8 JUMP JUMPDEST SWAP2 POP POP SWAP3 POP SWAP3 SWAP1 POP JUMP JUMPDEST PUSH2 0x913 DUP2 PUSH2 0x896 JUMP JUMPDEST DUP3 MSTORE POP POP JUMP JUMPDEST PUSH0 PUSH1 0x20 DUP3 ADD SWAP1 POP PUSH2 0x92C PUSH0 DUP4 ADD DUP5 PUSH2 0x90A JUMP JUMPDEST SWAP3 SWAP2 POP POP JUMP JUMPDEST PUSH0 PUSH1 0x20 DUP3 DUP5 SUB SLT ISZERO PUSH2 0x947 JUMPI PUSH2 0x946 PUSH2 0x85F JUMP JUMPDEST JUMPDEST PUSH0 PUSH2 0x954 DUP5 DUP3 DUP6 ADD PUSH2 0x882 JUMP JUMPDEST SWAP2 POP POP SWAP3 SWAP2 POP POP JUMP JUMPDEST PUSH0 DUP2 MLOAD SWAP1 POP SWAP2 SWAP1 POP JUMP JUMPDEST PUSH0 DUP3 DUP3 MSTORE PUSH1 0x20 DUP3 ADD SWAP1 POP SWAP3 SWAP2 POP POP JUMP JUMPDEST DUP3 DUP2 DUP4 MCOPY PUSH0 DUP4 DUP4 ADD MSTORE POP POP POP JUMP JUMPDEST PUSH0 PUSH1 0x1F NOT PUSH1 0x1F DUP4 ADD AND SWAP1 POP SWAP2 SWAP1 POP JUMP JUMPDEST PUSH0 PUSH2 0x99F DUP3 PUSH2 0x95D JUMP JUMPDEST PUSH2 0x9A9 DUP2 DUP6 PUSH2 0x967 JUMP JUMPDEST SWAP4 POP PUSH2 0x9B9 DUP2 DUP6 PUSH1 0x20 DUP7 ADD PUSH2 0x977 JUMP JUMPDEST PUSH2 0x9C2 DUP2 PUSH2 0x985 JUMP JUMPDEST DUP5 ADD SWAP2 POP POP SWAP3 SWAP2 POP POP JUMP JUMPDEST PUSH0 PUSH1 0x20 DUP3 ADD SWAP1 POP DUP2 DUP2 SUB PUSH0 DUP4 ADD MSTORE PUSH2 0x9E5 DUP2 DUP5 PUSH2 0x995 JUMP JUMPDEST SWAP1 POP SWAP3 SWAP2 POP POP JUMP JUMPDEST PUSH0 PUSH1 0x20 DUP3 DUP5 SUB SLT ISZERO PUSH2 0xA02 JUMPI PUSH2 0xA01 PUSH2 0x85F JUMP JUMPDEST JUMPDEST PUSH0 PUSH2 0xA0F DUP5 DUP3 DUP6 ADD PUSH2 0x8B8 JUMP JUMPDEST SWAP2 POP POP SWAP3 SWAP2 POP POP JUMP JUMPDEST PUSH32 0x4E487B7100000000000000000000000000000000000000000000000000000000 PUSH0 MSTORE PUSH1 0x11 PUSH1 0x4 MSTORE PUSH1 0x24 PUSH0 REVERT JUMPDEST PUSH0 PUSH2 0xA4F DUP3 PUSH2 0x863 JUMP JUMPDEST SWAP2 POP PUSH2 0xA5A DUP4 PUSH2 0x863 JUMP JUMPDEST SWAP3 POP DUP3 DUP3 MUL PUSH2 0xA68 DUP2 PUSH2 0x863 JUMP JUMPDEST SWAP2 POP DUP3 DUP3 DIV DUP5 EQ DUP4 ISZERO OR PUSH2 0xA7F JUMPI PUSH2 0xA7E PUSH2 0xA18 JUMP JUMPDEST JUMPDEST POP SWAP3 SWAP2 POP POP JUMP INVALID LOG2 PUSH5 0x6970667358 0x22 SLT KECCAK256 0xF7 0x2C 0xE5 0xAA CALLDATASIZE 0xAC 0xC 0xCD RETURN SLT ORIGIN STATICCALL 0xC3 0xC6 KECCAK256 PUSH13 0x6339BAF62FAE8E128F51E5D7A 0x2F 0xE2 0x2D PUSH5 0x736F6C6343 STOP ADDMOD BYTE STOP CALLER "
				},
				"gasEstimates": {
					"creation": {
						"codeDepositCost": "549600",
						"executionCost": "579",
						"totalCost": "550179"
					},
					"external": {
						"addAddressTwoBitsMap(uint8)": "infinite",
						"addUint256ByteMap(uint256,uint8)": "infinite",
						"addUint256FourBitsMap(uint256,uint8)": "infinite",
						"addUint256TwoBitsMap(uint256,uint8)": "infinite",
						"calcelFriend()": "infinite",
						"check()": "infinite",
						"getAddressTwoBitsMap()": "infinite",
						"getUint256ByteMap(uint256)": "infinite",
						"getUint256FourBitsMap(uint256)": "infinite",
						"getUint256TwoBitsMap(uint256)": "infinite"
					}
				},
				"methodIdentifiers": {
					"addAddressTwoBitsMap(uint8)": "93eeeb41",
					"addUint256ByteMap(uint256,uint8)": "94fb5fa0",
					"addUint256FourBitsMap(uint256,uint8)": "1439c35b",
					"addUint256TwoBitsMap(uint256,uint8)": "f5f6f027",
					"calcelFriend()": "e91e0ef3",
					"check()": "919840ad",
					"getAddressTwoBitsMap()": "8146911d",
					"getUint256ByteMap(uint256)": "c50115f9",
					"getUint256FourBitsMap(uint256)": "dd7af8b0",
					"getUint256TwoBitsMap(uint256)": "82f76880"
				}
			},
			"storageLayout": {
				"storage": [
					{
						"astId": 413,
						"contract": "contracts/structs/BitMapsTest.sol:BitMapsTest",
						"label": "checkAccess",
						"offset": 0,
						"slot": "0",
						"type": "t_struct(AddressBitMap)216_storage"
					},
					{
						"astId": 459,
						"contract": "contracts/structs/BitMapsTest.sol:BitMapsTest",
						"label": "addressTwoBitsMap",
						"offset": 0,
						"slot": "1",
						"type": "t_struct(AddressTwoBitsMap)773_storage"
					},
					{
						"astId": 488,
						"contract": "contracts/structs/BitMapsTest.sol:BitMapsTest",
						"label": "uint256TwoBitsMap",
						"offset": 0,
						"slot": "2",
						"type": "t_struct(Uint256TwoBitsMap)731_storage"
					},
					{
						"astId": 519,
						"contract": "contracts/structs/BitMapsTest.sol:BitMapsTest",
						"label": "uint256FourBitsMap",
						"offset": 0,
						"slot": "3",
						"type": "t_struct(Uint256FourBitsMap)1027_storage"
					},
					{
						"astId": 550,
						"contract": "contracts/structs/BitMapsTest.sol:BitMapsTest",
						"label": "uint256ByteMap",
						"offset": 0,
						"slot": "4",
						"type": "t_struct(Uint256ByteMap)1284_storage"
					}
				],
				"types": {
					"t_mapping(t_uint256,t_uint256)": {
						"encoding": "mapping",
						"key": "t_uint256",
						"label": "mapping(uint256 => uint256)",
						"numberOfBytes": "32",
						"value": "t_uint256"
					},
					"t_struct(AddressBitMap)216_storage": {
						"encoding": "inplace",
						"label": "struct BitMaps.AddressBitMap",
						"members": [
							{
								"astId": 215,
								"contract": "contracts/structs/BitMapsTest.sol:BitMapsTest",
								"label": "_inner",
								"offset": 0,
								"slot": "0",
								"type": "t_struct(BitMap)6_storage"
							}
						],
						"numberOfBytes": "32"
					},
					"t_struct(AddressTwoBitsMap)773_storage": {
						"encoding": "inplace",
						"label": "struct MultiBitsMaps.AddressTwoBitsMap",
						"members": [
							{
								"astId": 772,
								"contract": "contracts/structs/BitMapsTest.sol:BitMapsTest",
								"label": "_inner",
								"offset": 0,
								"slot": "0",
								"type": "t_struct(TwoBitsMap)600_storage"
							}
						],
						"numberOfBytes": "32"
					},
					"t_struct(BitMap)6_storage": {
						"encoding": "inplace",
						"label": "struct BitMaps.BitMap",
						"members": [
							{
								"astId": 5,
								"contract": "contracts/structs/BitMapsTest.sol:BitMapsTest",
								"label": "_data",
								"offset": 0,
								"slot": "0",
								"type": "t_mapping(t_uint256,t_uint256)"
							}
						],
						"numberOfBytes": "32"
					},
					"t_struct(ByteMap)1154_storage": {
						"encoding": "inplace",
						"label": "struct MultiBitsMaps.ByteMap",
						"members": [
							{
								"astId": 1153,
								"contract": "contracts/structs/BitMapsTest.sol:BitMapsTest",
								"label": "_data",
								"offset": 0,
								"slot": "0",
								"type": "t_mapping(t_uint256,t_uint256)"
							}
						],
						"numberOfBytes": "32"
					},
					"t_struct(FourBitsMap)897_storage": {
						"encoding": "inplace",
						"label": "struct MultiBitsMaps.FourBitsMap",
						"members": [
							{
								"astId": 896,
								"contract": "contracts/structs/BitMapsTest.sol:BitMapsTest",
								"label": "_data",
								"offset": 0,
								"slot": "0",
								"type": "t_mapping(t_uint256,t_uint256)"
							}
						],
						"numberOfBytes": "32"
					},
					"t_struct(TwoBitsMap)600_storage": {
						"encoding": "inplace",
						"label": "struct MultiBitsMaps.TwoBitsMap",
						"members": [
							{
								"astId": 599,
								"contract": "contracts/structs/BitMapsTest.sol:BitMapsTest",
								"label": "_data",
								"offset": 0,
								"slot": "0",
								"type": "t_mapping(t_uint256,t_uint256)"
							}
						],
						"numberOfBytes": "32"
					},
					"t_struct(Uint256ByteMap)1284_storage": {
						"encoding": "inplace",
						"label": "struct MultiBitsMaps.Uint256ByteMap",
						"members": [
							{
								"astId": 1283,
								"contract": "contracts/structs/BitMapsTest.sol:BitMapsTest",
								"label": "_inner",
								"offset": 0,
								"slot": "0",
								"type": "t_struct(ByteMap)1154_storage"
							}
						],
						"numberOfBytes": "32"
					},
					"t_struct(Uint256FourBitsMap)1027_storage": {
						"encoding": "inplace",
						"label": "struct MultiBitsMaps.Uint256FourBitsMap",
						"members": [
							{
								"astId": 1026,
								"contract": "contracts/structs/BitMapsTest.sol:BitMapsTest",
								"label": "_inner",
								"offset": 0,
								"slot": "0",
								"type": "t_struct(FourBitsMap)897_storage"
							}
						],
						"numberOfBytes": "32"
					},
					"t_struct(Uint256TwoBitsMap)731_storage": {
						"encoding": "inplace",
						"label": "struct MultiBitsMaps.Uint256TwoBitsMap",
						"members": [
							{
								"astId": 730,
								"contract": "contracts/structs/BitMapsTest.sol:BitMapsTest",
								"label": "_inner",
								"offset": 0,
								"slot": "0",
								"type": "t_struct(TwoBitsMap)600_storage"
							}
						],
						"numberOfBytes": "32"
					},
					"t_uint256": {
						"encoding": "inplace",
						"label": "uint256",
						"numberOfBytes": "32"
					}
				}
			},
			"userdoc": {
				"kind": "user",
				"methods": {},
				"version": 1
			}
		}
	}
}