{
	"data": {
		"bytecode": {
			"linkReferences": {},
			"object": "608060405234801561000f575f80fd5b506040516111d63803806111d683398181016040528101906100319190610430565b336100418161005960201b60201c565b5061005282826100cd60201b60201c565b5050610589565b8061008b7fb53127684a568b3173ae13b9f8a6016e243e63b6e8ee1178d6a717850b5d61035f1b61020c60201b60201c565b5f015f6101000a81548173ffffffffffffffffffffffffffffffffffffffff021916908373ffffffffffffffffffffffffffffffffffffffff16021790555050565b5f73ffffffffffffffffffffffffffffffffffffffff168273ffffffffffffffffffffffffffffffffffffffff1603610132576040517fae7c562200000000000000000000000000000000000000000000000000000000815260040160405180910390fd5b6101418261021560201b60201c565b5f81511115610208575f808373ffffffffffffffffffffffffffffffffffffffff168360405161017191906104ce565b5f60405180830381855af49150503d805f81146101a9576040519150601f19603f3d011682016040523d82523d5f602084013e6101ae565b606091505b50915091508373ffffffffffffffffffffffffffffffffffffffff167f20423e22d1f0b31668780a7b6e52a7ad77a44c7dd910f738df5e2d06244fb5598484846040516101fd93929190610546565b60405180910390a250505b5050565b5f819050919050565b806102477f360894a13ba1a3210667c828492db98dca3e2076cc3735a920a3ca505d382bbc5f1b61020c60201b60201c565b5f015f6101000a81548173ffffffffffffffffffffffffffffffffffffffff021916908373ffffffffffffffffffffffffffffffffffffffff16021790555050565b5f604051905090565b5f80fd5b5f80fd5b5f73ffffffffffffffffffffffffffffffffffffffff82169050919050565b5f6102c38261029a565b9050919050565b6102d3816102b9565b81146102dd575f80fd5b50565b5f815190506102ee816102ca565b92915050565b5f80fd5b5f80fd5b5f601f19601f8301169050919050565b7f4e487b71000000000000000000000000000000000000000000000000000000005f52604160045260245ffd5b610342826102fc565b810181811067ffffffffffffffff821117156103615761036061030c565b5b80604052505050565b5f610373610289565b905061037f8282610339565b919050565b5f67ffffffffffffffff82111561039e5761039d61030c565b5b6103a7826102fc565b9050602081019050919050565b8281835e5f83830152505050565b5f6103d46103cf84610384565b61036a565b9050828152602081018484840111156103f0576103ef6102f8565b5b6103fb8482856103b4565b509392505050565b5f82601f830112610417576104166102f4565b5b81516104278482602086016103c2565b91505092915050565b5f806040838503121561044657610445610292565b5b5f610453858286016102e0565b925050602083015167ffffffffffffffff81111561047457610473610296565b5b61048085828601610403565b9150509250929050565b5f81519050919050565b5f81905092915050565b5f6104a88261048a565b6104b28185610494565b93506104c28185602086016103b4565b80840191505092915050565b5f6104d9828461049e565b915081905092915050565b5f82825260208201905092915050565b5f6104fe8261048a565b61050881856104e4565b93506105188185602086016103b4565b610521816102fc565b840191505092915050565b5f8115159050919050565b6105408161052c565b82525050565b5f6060820190508181035f83015261055e81866104f4565b905061056d6020830185610537565b818103604083015261057f81846104f4565b9050949350505050565b610c40806105965f395ff3fe608060405260043610610037575f3560e01c80636e9960c3146101505780638f2839701461017a57806395fae7ac146101a25761003e565b3661003e57005b6100466101ca565b73ffffffffffffffffffffffffffffffffffffffff163373ffffffffffffffffffffffffffffffffffffffff16036100b3576040517f08c379a00000000000000000000000000000000000000000000000000000000081526004016100aa90610721565b60405180910390fd5b5f357fffffffff00000000000000000000000000000000000000000000000000000000167bffffffffffffffffffffffffffffffffffffffffffffffffffffffff19163373ffffffffffffffffffffffffffffffffffffffff167f0a2e94dc85c608109377f1d4e7fd45e8eed5fe3acdaf32e2423ec8e069d40a075f3660405161013e929190610799565b60405180910390a361014e61021d565b005b34801561015b575f80fd5b5061016461022f565b60405161017191906107fa565b60405180910390f35b348015610185575f80fd5b506101a0600480360381019061019b919061084e565b61023d565b005b3480156101ad575f80fd5b506101c860048036038101906101c39190610997565b6102be565b005b5f6101f67fb53127684a568b3173ae13b9f8a6016e243e63b6e8ee1178d6a717850b5d61035f1b6103b6565b5f015f9054906101000a900473ffffffffffffffffffffffffffffffffffffffff16905090565b61022d6102286103bf565b610412565b565b5f6102386101ca565b905090565b6102456101ca565b73ffffffffffffffffffffffffffffffffffffffff163373ffffffffffffffffffffffffffffffffffffffff16146102b2576040517f21f353dc0000000000000000000000000000000000000000000000000000000081526004016102a990610a61565b60405180910390fd5b6102bb81610431565b50565b6102c66101ca565b73ffffffffffffffffffffffffffffffffffffffff163373ffffffffffffffffffffffffffffffffffffffff1614610333576040517f21f353dc00000000000000000000000000000000000000000000000000000000815260040161032a90610a61565b60405180910390fd5b61033b6101ca565b73ffffffffffffffffffffffffffffffffffffffff163373ffffffffffffffffffffffffffffffffffffffff16146103a8576040517f08c379a000000000000000000000000000000000000000000000000000000000815260040161039f90610aef565b60405180910390fd5b6103b282826104b2565b5050565b5f819050919050565b5f6103eb7f360894a13ba1a3210667c828492db98dca3e2076cc3735a920a3ca505d382bbc5f1b6103b6565b5f015f9054906101000a900473ffffffffffffffffffffffffffffffffffffffff16905090565b365f80375f80365f845af43d5f803e805f811461042d573d5ff35b3d5ffd5b6104396101ca565b73ffffffffffffffffffffffffffffffffffffffff163373ffffffffffffffffffffffffffffffffffffffff16146104a6576040517f21f353dc00000000000000000000000000000000000000000000000000000000815260040161049d90610a61565b60405180910390fd5b6104af816105eb565b50565b5f73ffffffffffffffffffffffffffffffffffffffff168273ffffffffffffffffffffffffffffffffffffffff1603610517576040517fae7c562200000000000000000000000000000000000000000000000000000000815260040160405180910390fd5b61052082610659565b5f815111156105e7575f808373ffffffffffffffffffffffffffffffffffffffff16836040516105509190610b5f565b5f60405180830381855af49150503d805f8114610588576040519150601f19603f3d011682016040523d82523d5f602084013e61058d565b606091505b50915091508373ffffffffffffffffffffffffffffffffffffffff167f20423e22d1f0b31668780a7b6e52a7ad77a44c7dd910f738df5e2d06244fb5598484846040516105dc93929190610bc7565b60405180910390a250505b5050565b806106177fb53127684a568b3173ae13b9f8a6016e243e63b6e8ee1178d6a717850b5d61035f1b6103b6565b5f015f6101000a81548173ffffffffffffffffffffffffffffffffffffffff021916908373ffffffffffffffffffffffffffffffffffffffff16021790555050565b806106857f360894a13ba1a3210667c828492db98dca3e2076cc3735a920a3ca505d382bbc5f1b6103b6565b5f015f6101000a81548173ffffffffffffffffffffffffffffffffffffffff021916908373ffffffffffffffffffffffffffffffffffffffff16021790555050565b5f82825260208201905092915050565b7f66616c6c6261636b3a2061646d696e2063616e206e6f742061636365737300005f82015250565b5f61070b601e836106c7565b9150610716826106d7565b602082019050919050565b5f6020820190508181035f830152610738816106ff565b9050919050565b5f82825260208201905092915050565b828183375f83830152505050565b5f601f19601f8301169050919050565b5f610778838561073f565b935061078583858461074f565b61078e8361075d565b840190509392505050565b5f6020820190508181035f8301526107b281848661076d565b90509392505050565b5f73ffffffffffffffffffffffffffffffffffffffff82169050919050565b5f6107e4826107bb565b9050919050565b6107f4816107da565b82525050565b5f60208201905061080d5f8301846107eb565b92915050565b5f604051905090565b5f80fd5b5f80fd5b61082d816107da565b8114610837575f80fd5b50565b5f8135905061084881610824565b92915050565b5f602082840312156108635761086261081c565b5b5f6108708482850161083a565b91505092915050565b5f80fd5b5f80fd5b7f4e487b71000000000000000000000000000000000000000000000000000000005f52604160045260245ffd5b6108b78261075d565b810181811067ffffffffffffffff821117156108d6576108d5610881565b5b80604052505050565b5f6108e8610813565b90506108f482826108ae565b919050565b5f67ffffffffffffffff82111561091357610912610881565b5b61091c8261075d565b9050602081019050919050565b5f61093b610936846108f9565b6108df565b9050828152602081018484840111156109575761095661087d565b5b61096284828561074f565b509392505050565b5f82601f83011261097e5761097d610879565b5b813561098e848260208601610929565b91505092915050565b5f80604083850312156109ad576109ac61081c565b5b5f6109ba8582860161083a565b925050602083013567ffffffffffffffff8111156109db576109da610820565b5b6109e78582860161096a565b9150509250929050565b7f4f6e6c792061646d696e2063616e2063616c6c20746869732066756e6374696f5f8201527f6e00000000000000000000000000000000000000000000000000000000000000602082015250565b5f610a4b6021836106c7565b9150610a56826109f1565b604082019050919050565b5f6020820190508181035f830152610a7881610a3f565b9050919050565b7f757067726164654c6f676963416464726573733a206f6e6c792061646d696e205f8201527f63616e20646f0000000000000000000000000000000000000000000000000000602082015250565b5f610ad96026836106c7565b9150610ae482610a7f565b604082019050919050565b5f6020820190508181035f830152610b0681610acd565b9050919050565b5f81519050919050565b5f81905092915050565b8281835e5f83830152505050565b5f610b3982610b0d565b610b438185610b17565b9350610b53818560208601610b21565b80840191505092915050565b5f610b6a8284610b2f565b915081905092915050565b5f610b7f82610b0d565b610b89818561073f565b9350610b99818560208601610b21565b610ba28161075d565b840191505092915050565b5f8115159050919050565b610bc181610bad565b82525050565b5f6060820190508181035f830152610bdf8186610b75565b9050610bee6020830185610bb8565b8181036040830152610c008184610b75565b905094935050505056fea2646970667358221220b873b39aeed74036ca486d267161390c2bffc07dc47eb1c0ef4b43fc7aa5ff8b64736f6c634300081a0033",
			"opcodes": "PUSH1 0x80 PUSH1 0x40 MSTORE CALLVALUE DUP1 ISZERO PUSH2 0xF JUMPI PUSH0 DUP1 REVERT JUMPDEST POP PUSH1 0x40 MLOAD PUSH2 0x11D6 CODESIZE SUB DUP1 PUSH2 0x11D6 DUP4 CODECOPY DUP2 DUP2 ADD PUSH1 0x40 MSTORE DUP2 ADD SWAP1 PUSH2 0x31 SWAP2 SWAP1 PUSH2 0x430 JUMP JUMPDEST CALLER PUSH2 0x41 DUP2 PUSH2 0x59 PUSH1 0x20 SHL PUSH1 0x20 SHR JUMP JUMPDEST POP PUSH2 0x52 DUP3 DUP3 PUSH2 0xCD PUSH1 0x20 SHL PUSH1 0x20 SHR JUMP JUMPDEST POP POP PUSH2 0x589 JUMP JUMPDEST DUP1 PUSH2 0x8B PUSH32 0xB53127684A568B3173AE13B9F8A6016E243E63B6E8EE1178D6A717850B5D6103 PUSH0 SHL PUSH2 0x20C PUSH1 0x20 SHL PUSH1 0x20 SHR JUMP JUMPDEST PUSH0 ADD PUSH0 PUSH2 0x100 EXP DUP2 SLOAD DUP2 PUSH20 0xFFFFFFFFFFFFFFFFFFFFFFFFFFFFFFFFFFFFFFFF MUL NOT AND SWAP1 DUP4 PUSH20 0xFFFFFFFFFFFFFFFFFFFFFFFFFFFFFFFFFFFFFFFF AND MUL OR SWAP1 SSTORE POP POP JUMP JUMPDEST PUSH0 PUSH20 0xFFFFFFFFFFFFFFFFFFFFFFFFFFFFFFFFFFFFFFFF AND DUP3 PUSH20 0xFFFFFFFFFFFFFFFFFFFFFFFFFFFFFFFFFFFFFFFF AND SUB PUSH2 0x132 JUMPI PUSH1 0x40 MLOAD PUSH32 0xAE7C562200000000000000000000000000000000000000000000000000000000 DUP2 MSTORE PUSH1 0x4 ADD PUSH1 0x40 MLOAD DUP1 SWAP2 SUB SWAP1 REVERT JUMPDEST PUSH2 0x141 DUP3 PUSH2 0x215 PUSH1 0x20 SHL PUSH1 0x20 SHR JUMP JUMPDEST PUSH0 DUP2 MLOAD GT ISZERO PUSH2 0x208 JUMPI PUSH0 DUP1 DUP4 PUSH20 0xFFFFFFFFFFFFFFFFFFFFFFFFFFFFFFFFFFFFFFFF AND DUP4 PUSH1 0x40 MLOAD PUSH2 0x171 SWAP2 SWAP1 PUSH2 0x4CE JUMP JUMPDEST PUSH0 PUSH1 0x40 MLOAD DUP1 DUP4 SUB DUP2 DUP6 GAS DELEGATECALL SWAP2 POP POP RETURNDATASIZE DUP1 PUSH0 DUP2 EQ PUSH2 0x1A9 JUMPI PUSH1 0x40 MLOAD SWAP2 POP PUSH1 0x1F NOT PUSH1 0x3F RETURNDATASIZE ADD AND DUP3 ADD PUSH1 0x40 MSTORE RETURNDATASIZE DUP3 MSTORE RETURNDATASIZE PUSH0 PUSH1 0x20 DUP5 ADD RETURNDATACOPY PUSH2 0x1AE JUMP JUMPDEST PUSH1 0x60 SWAP2 POP JUMPDEST POP SWAP2 POP SWAP2 POP DUP4 PUSH20 0xFFFFFFFFFFFFFFFFFFFFFFFFFFFFFFFFFFFFFFFF AND PUSH32 0x20423E22D1F0B31668780A7B6E52A7AD77A44C7DD910F738DF5E2D06244FB559 DUP5 DUP5 DUP5 PUSH1 0x40 MLOAD PUSH2 0x1FD SWAP4 SWAP3 SWAP2 SWAP1 PUSH2 0x546 JUMP JUMPDEST PUSH1 0x40 MLOAD DUP1 SWAP2 SUB SWAP1 LOG2 POP POP JUMPDEST POP POP JUMP JUMPDEST PUSH0 DUP2 SWAP1 POP SWAP2 SWAP1 POP JUMP JUMPDEST DUP1 PUSH2 0x247 PUSH32 0x360894A13BA1A3210667C828492DB98DCA3E2076CC3735A920A3CA505D382BBC PUSH0 SHL PUSH2 0x20C PUSH1 0x20 SHL PUSH1 0x20 SHR JUMP JUMPDEST PUSH0 ADD PUSH0 PUSH2 0x100 EXP DUP2 SLOAD DUP2 PUSH20 0xFFFFFFFFFFFFFFFFFFFFFFFFFFFFFFFFFFFFFFFF MUL NOT AND SWAP1 DUP4 PUSH20 0xFFFFFFFFFFFFFFFFFFFFFFFFFFFFFFFFFFFFFFFF AND MUL OR SWAP1 SSTORE POP POP JUMP JUMPDEST PUSH0 PUSH1 0x40 MLOAD SWAP1 POP SWAP1 JUMP JUMPDEST PUSH0 DUP1 REVERT JUMPDEST PUSH0 DUP1 REVERT JUMPDEST PUSH0 PUSH20 0xFFFFFFFFFFFFFFFFFFFFFFFFFFFFFFFFFFFFFFFF DUP3 AND SWAP1 POP SWAP2 SWAP1 POP JUMP JUMPDEST PUSH0 PUSH2 0x2C3 DUP3 PUSH2 0x29A JUMP JUMPDEST SWAP1 POP SWAP2 SWAP1 POP JUMP JUMPDEST PUSH2 0x2D3 DUP2 PUSH2 0x2B9 JUMP JUMPDEST DUP2 EQ PUSH2 0x2DD JUMPI PUSH0 DUP1 REVERT JUMPDEST POP JUMP JUMPDEST PUSH0 DUP2 MLOAD SWAP1 POP PUSH2 0x2EE DUP2 PUSH2 0x2CA JUMP JUMPDEST SWAP3 SWAP2 POP POP JUMP JUMPDEST PUSH0 DUP1 REVERT JUMPDEST PUSH0 DUP1 REVERT JUMPDEST PUSH0 PUSH1 0x1F NOT PUSH1 0x1F DUP4 ADD AND SWAP1 POP SWAP2 SWAP1 POP JUMP JUMPDEST PUSH32 0x4E487B7100000000000000000000000000000000000000000000000000000000 PUSH0 MSTORE PUSH1 0x41 PUSH1 0x4 MSTORE PUSH1 0x24 PUSH0 REVERT JUMPDEST PUSH2 0x342 DUP3 PUSH2 0x2FC JUMP JUMPDEST DUP2 ADD DUP2 DUP2 LT PUSH8 0xFFFFFFFFFFFFFFFF DUP3 GT OR ISZERO PUSH2 0x361 JUMPI PUSH2 0x360 PUSH2 0x30C JUMP JUMPDEST JUMPDEST DUP1 PUSH1 0x40 MSTORE POP POP POP JUMP JUMPDEST PUSH0 PUSH2 0x373 PUSH2 0x289 JUMP JUMPDEST SWAP1 POP PUSH2 0x37F DUP3 DUP3 PUSH2 0x339 JUMP JUMPDEST SWAP2 SWAP1 POP JUMP JUMPDEST PUSH0 PUSH8 0xFFFFFFFFFFFFFFFF DUP3 GT ISZERO PUSH2 0x39E JUMPI PUSH2 0x39D PUSH2 0x30C JUMP JUMPDEST JUMPDEST PUSH2 0x3A7 DUP3 PUSH2 0x2FC JUMP JUMPDEST SWAP1 POP PUSH1 0x20 DUP2 ADD SWAP1 POP SWAP2 SWAP1 POP JUMP JUMPDEST DUP3 DUP2 DUP4 MCOPY PUSH0 DUP4 DUP4 ADD MSTORE POP POP POP JUMP JUMPDEST PUSH0 PUSH2 0x3D4 PUSH2 0x3CF DUP5 PUSH2 0x384 JUMP JUMPDEST PUSH2 0x36A JUMP JUMPDEST SWAP1 POP DUP3 DUP2 MSTORE PUSH1 0x20 DUP2 ADD DUP5 DUP5 DUP5 ADD GT ISZERO PUSH2 0x3F0 JUMPI PUSH2 0x3EF PUSH2 0x2F8 JUMP JUMPDEST JUMPDEST PUSH2 0x3FB DUP5 DUP3 DUP6 PUSH2 0x3B4 JUMP JUMPDEST POP SWAP4 SWAP3 POP POP POP JUMP JUMPDEST PUSH0 DUP3 PUSH1 0x1F DUP4 ADD SLT PUSH2 0x417 JUMPI PUSH2 0x416 PUSH2 0x2F4 JUMP JUMPDEST JUMPDEST DUP2 MLOAD PUSH2 0x427 DUP5 DUP3 PUSH1 0x20 DUP7 ADD PUSH2 0x3C2 JUMP JUMPDEST SWAP2 POP POP SWAP3 SWAP2 POP POP JUMP JUMPDEST PUSH0 DUP1 PUSH1 0x40 DUP4 DUP6 SUB SLT ISZERO PUSH2 0x446 JUMPI PUSH2 0x445 PUSH2 0x292 JUMP JUMPDEST JUMPDEST PUSH0 PUSH2 0x453 DUP6 DUP3 DUP7 ADD PUSH2 0x2E0 JUMP JUMPDEST SWAP3 POP POP PUSH1 0x20 DUP4 ADD MLOAD PUSH8 0xFFFFFFFFFFFFFFFF DUP2 GT ISZERO PUSH2 0x474 JUMPI PUSH2 0x473 PUSH2 0x296 JUMP JUMPDEST JUMPDEST PUSH2 0x480 DUP6 DUP3 DUP7 ADD PUSH2 0x403 JUMP JUMPDEST SWAP2 POP POP SWAP3 POP SWAP3 SWAP1 POP JUMP JUMPDEST PUSH0 DUP2 MLOAD SWAP1 POP SWAP2 SWAP1 POP JUMP JUMPDEST PUSH0 DUP2 SWAP1 POP SWAP3 SWAP2 POP POP JUMP JUMPDEST PUSH0 PUSH2 0x4A8 DUP3 PUSH2 0x48A JUMP JUMPDEST PUSH2 0x4B2 DUP2 DUP6 PUSH2 0x494 JUMP JUMPDEST SWAP4 POP PUSH2 0x4C2 DUP2 DUP6 PUSH1 0x20 DUP7 ADD PUSH2 0x3B4 JUMP JUMPDEST DUP1 DUP5 ADD SWAP2 POP POP SWAP3 SWAP2 POP POP JUMP JUMPDEST PUSH0 PUSH2 0x4D9 DUP3 DUP5 PUSH2 0x49E JUMP JUMPDEST SWAP2 POP DUP2 SWAP1 POP SWAP3 SWAP2 POP POP JUMP JUMPDEST PUSH0 DUP3 DUP3 MSTORE PUSH1 0x20 DUP3 ADD SWAP1 POP SWAP3 SWAP2 POP POP JUMP JUMPDEST PUSH0 PUSH2 0x4FE DUP3 PUSH2 0x48A JUMP JUMPDEST PUSH2 0x508 DUP2 DUP6 PUSH2 0x4E4 JUMP JUMPDEST SWAP4 POP PUSH2 0x518 DUP2 DUP6 PUSH1 0x20 DUP7 ADD PUSH2 0x3B4 JUMP JUMPDEST PUSH2 0x521 DUP2 PUSH2 0x2FC JUMP JUMPDEST DUP5 ADD SWAP2 POP POP SWAP3 SWAP2 POP POP JUMP JUMPDEST PUSH0 DUP2 ISZERO ISZERO SWAP1 POP SWAP2 SWAP1 POP JUMP JUMPDEST PUSH2 0x540 DUP2 PUSH2 0x52C JUMP JUMPDEST DUP3 MSTORE POP POP JUMP JUMPDEST PUSH0 PUSH1 0x60 DUP3 ADD SWAP1 POP DUP2 DUP2 SUB PUSH0 DUP4 ADD MSTORE PUSH2 0x55E DUP2 DUP7 PUSH2 0x4F4 JUMP JUMPDEST SWAP1 POP PUSH2 0x56D PUSH1 0x20 DUP4 ADD DUP6 PUSH2 0x537 JUMP JUMPDEST DUP2 DUP2 SUB PUSH1 0x40 DUP4 ADD MSTORE PUSH2 0x57F DUP2 DUP5 PUSH2 0x4F4 JUMP JUMPDEST SWAP1 POP SWAP5 SWAP4 POP POP POP POP JUMP JUMPDEST PUSH2 0xC40 DUP1 PUSH2 0x596 PUSH0 CODECOPY PUSH0 RETURN INVALID PUSH1 0x80 PUSH1 0x40 MSTORE PUSH1 0x4 CALLDATASIZE LT PUSH2 0x37 JUMPI PUSH0 CALLDATALOAD PUSH1 0xE0 SHR DUP1 PUSH4 0x6E9960C3 EQ PUSH2 0x150 JUMPI DUP1 PUSH4 0x8F283970 EQ PUSH2 0x17A JUMPI DUP1 PUSH4 0x95FAE7AC EQ PUSH2 0x1A2 JUMPI PUSH2 0x3E JUMP JUMPDEST CALLDATASIZE PUSH2 0x3E JUMPI STOP JUMPDEST PUSH2 0x46 PUSH2 0x1CA JUMP JUMPDEST PUSH20 0xFFFFFFFFFFFFFFFFFFFFFFFFFFFFFFFFFFFFFFFF AND CALLER PUSH20 0xFFFFFFFFFFFFFFFFFFFFFFFFFFFFFFFFFFFFFFFF AND SUB PUSH2 0xB3 JUMPI PUSH1 0x40 MLOAD PUSH32 0x8C379A000000000000000000000000000000000000000000000000000000000 DUP2 MSTORE PUSH1 0x4 ADD PUSH2 0xAA SWAP1 PUSH2 0x721 JUMP JUMPDEST PUSH1 0x40 MLOAD DUP1 SWAP2 SUB SWAP1 REVERT JUMPDEST PUSH0 CALLDATALOAD PUSH32 0xFFFFFFFF00000000000000000000000000000000000000000000000000000000 AND PUSH28 0xFFFFFFFFFFFFFFFFFFFFFFFFFFFFFFFFFFFFFFFFFFFFFFFFFFFFFFFF NOT AND CALLER PUSH20 0xFFFFFFFFFFFFFFFFFFFFFFFFFFFFFFFFFFFFFFFF AND PUSH32 0xA2E94DC85C608109377F1D4E7FD45E8EED5FE3ACDAF32E2423EC8E069D40A07 PUSH0 CALLDATASIZE PUSH1 0x40 MLOAD PUSH2 0x13E SWAP3 SWAP2 SWAP1 PUSH2 0x799 JUMP JUMPDEST PUSH1 0x40 MLOAD DUP1 SWAP2 SUB SWAP1 LOG3 PUSH2 0x14E PUSH2 0x21D JUMP JUMPDEST STOP JUMPDEST CALLVALUE DUP1 ISZERO PUSH2 0x15B JUMPI PUSH0 DUP1 REVERT JUMPDEST POP PUSH2 0x164 PUSH2 0x22F JUMP JUMPDEST PUSH1 0x40 MLOAD PUSH2 0x171 SWAP2 SWAP1 PUSH2 0x7FA JUMP JUMPDEST PUSH1 0x40 MLOAD DUP1 SWAP2 SUB SWAP1 RETURN JUMPDEST CALLVALUE DUP1 ISZERO PUSH2 0x185 JUMPI PUSH0 DUP1 REVERT JUMPDEST POP PUSH2 0x1A0 PUSH1 0x4 DUP1 CALLDATASIZE SUB DUP2 ADD SWAP1 PUSH2 0x19B SWAP2 SWAP1 PUSH2 0x84E JUMP JUMPDEST PUSH2 0x23D JUMP JUMPDEST STOP JUMPDEST CALLVALUE DUP1 ISZERO PUSH2 0x1AD JUMPI PUSH0 DUP1 REVERT JUMPDEST POP PUSH2 0x1C8 PUSH1 0x4 DUP1 CALLDATASIZE SUB DUP2 ADD SWAP1 PUSH2 0x1C3 SWAP2 SWAP1 PUSH2 0x997 JUMP JUMPDEST PUSH2 0x2BE JUMP JUMPDEST STOP JUMPDEST PUSH0 PUSH2 0x1F6 PUSH32 0xB53127684A568B3173AE13B9F8A6016E243E63B6E8EE1178D6A717850B5D6103 PUSH0 SHL PUSH2 0x3B6 JUMP JUMPDEST PUSH0 ADD PUSH0 SWAP1 SLOAD SWAP1 PUSH2 0x100 EXP SWAP1 DIV PUSH20 0xFFFFFFFFFFFFFFFFFFFFFFFFFFFFFFFFFFFFFFFF AND SWAP1 POP SWAP1 JUMP JUMPDEST PUSH2 0x22D PUSH2 0x228 PUSH2 0x3BF JUMP JUMPDEST PUSH2 0x412 JUMP JUMPDEST JUMP JUMPDEST PUSH0 PUSH2 0x238 PUSH2 0x1CA JUMP JUMPDEST SWAP1 POP SWAP1 JUMP JUMPDEST PUSH2 0x245 PUSH2 0x1CA JUMP JUMPDEST PUSH20 0xFFFFFFFFFFFFFFFFFFFFFFFFFFFFFFFFFFFFFFFF AND CALLER PUSH20 0xFFFFFFFFFFFFFFFFFFFFFFFFFFFFFFFFFFFFFFFF AND EQ PUSH2 0x2B2 JUMPI PUSH1 0x40 MLOAD PUSH32 0x21F353DC00000000000000000000000000000000000000000000000000000000 DUP2 MSTORE PUSH1 0x4 ADD PUSH2 0x2A9 SWAP1 PUSH2 0xA61 JUMP JUMPDEST PUSH1 0x40 MLOAD DUP1 SWAP2 SUB SWAP1 REVERT JUMPDEST PUSH2 0x2BB DUP2 PUSH2 0x431 JUMP JUMPDEST POP JUMP JUMPDEST PUSH2 0x2C6 PUSH2 0x1CA JUMP JUMPDEST PUSH20 0xFFFFFFFFFFFFFFFFFFFFFFFFFFFFFFFFFFFFFFFF AND CALLER PUSH20 0xFFFFFFFFFFFFFFFFFFFFFFFFFFFFFFFFFFFFFFFF AND EQ PUSH2 0x333 JUMPI PUSH1 0x40 MLOAD PUSH32 0x21F353DC00000000000000000000000000000000000000000000000000000000 DUP2 MSTORE PUSH1 0x4 ADD PUSH2 0x32A SWAP1 PUSH2 0xA61 JUMP JUMPDEST PUSH1 0x40 MLOAD DUP1 SWAP2 SUB SWAP1 REVERT JUMPDEST PUSH2 0x33B PUSH2 0x1CA JUMP JUMPDEST PUSH20 0xFFFFFFFFFFFFFFFFFFFFFFFFFFFFFFFFFFFFFFFF AND CALLER PUSH20 0xFFFFFFFFFFFFFFFFFFFFFFFFFFFFFFFFFFFFFFFF AND EQ PUSH2 0x3A8 JUMPI PUSH1 0x40 MLOAD PUSH32 0x8C379A000000000000000000000000000000000000000000000000000000000 DUP2 MSTORE PUSH1 0x4 ADD PUSH2 0x39F SWAP1 PUSH2 0xAEF JUMP JUMPDEST PUSH1 0x40 MLOAD DUP1 SWAP2 SUB SWAP1 REVERT JUMPDEST PUSH2 0x3B2 DUP3 DUP3 PUSH2 0x4B2 JUMP JUMPDEST POP POP JUMP JUMPDEST PUSH0 DUP2 SWAP1 POP SWAP2 SWAP1 POP JUMP JUMPDEST PUSH0 PUSH2 0x3EB PUSH32 0x360894A13BA1A3210667C828492DB98DCA3E2076CC3735A920A3CA505D382BBC PUSH0 SHL PUSH2 0x3B6 JUMP JUMPDEST PUSH0 ADD PUSH0 SWAP1 SLOAD SWAP1 PUSH2 0x100 EXP SWAP1 DIV PUSH20 0xFFFFFFFFFFFFFFFFFFFFFFFFFFFFFFFFFFFFFFFF AND SWAP1 POP SWAP1 JUMP JUMPDEST CALLDATASIZE PUSH0 DUP1 CALLDATACOPY PUSH0 DUP1 CALLDATASIZE PUSH0 DUP5 GAS DELEGATECALL RETURNDATASIZE PUSH0 DUP1 RETURNDATACOPY DUP1 PUSH0 DUP2 EQ PUSH2 0x42D JUMPI RETURNDATASIZE PUSH0 RETURN JUMPDEST RETURNDATASIZE PUSH0 REVERT JUMPDEST PUSH2 0x439 PUSH2 0x1CA JUMP JUMPDEST PUSH20 0xFFFFFFFFFFFFFFFFFFFFFFFFFFFFFFFFFFFFFFFF AND CALLER PUSH20 0xFFFFFFFFFFFFFFFFFFFFFFFFFFFFFFFFFFFFFFFF AND EQ PUSH2 0x4A6 JUMPI PUSH1 0x40 MLOAD PUSH32 0x21F353DC00000000000000000000000000000000000000000000000000000000 DUP2 MSTORE PUSH1 0x4 ADD PUSH2 0x49D SWAP1 PUSH2 0xA61 JUMP JUMPDEST PUSH1 0x40 MLOAD DUP1 SWAP2 SUB SWAP1 REVERT JUMPDEST PUSH2 0x4AF DUP2 PUSH2 0x5EB JUMP JUMPDEST POP JUMP JUMPDEST PUSH0 PUSH20 0xFFFFFFFFFFFFFFFFFFFFFFFFFFFFFFFFFFFFFFFF AND DUP3 PUSH20 0xFFFFFFFFFFFFFFFFFFFFFFFFFFFFFFFFFFFFFFFF AND SUB PUSH2 0x517 JUMPI PUSH1 0x40 MLOAD PUSH32 0xAE7C562200000000000000000000000000000000000000000000000000000000 DUP2 MSTORE PUSH1 0x4 ADD PUSH1 0x40 MLOAD DUP1 SWAP2 SUB SWAP1 REVERT JUMPDEST PUSH2 0x520 DUP3 PUSH2 0x659 JUMP JUMPDEST PUSH0 DUP2 MLOAD GT ISZERO PUSH2 0x5E7 JUMPI PUSH0 DUP1 DUP4 PUSH20 0xFFFFFFFFFFFFFFFFFFFFFFFFFFFFFFFFFFFFFFFF AND DUP4 PUSH1 0x40 MLOAD PUSH2 0x550 SWAP2 SWAP1 PUSH2 0xB5F JUMP JUMPDEST PUSH0 PUSH1 0x40 MLOAD DUP1 DUP4 SUB DUP2 DUP6 GAS DELEGATECALL SWAP2 POP POP RETURNDATASIZE DUP1 PUSH0 DUP2 EQ PUSH2 0x588 JUMPI PUSH1 0x40 MLOAD SWAP2 POP PUSH1 0x1F NOT PUSH1 0x3F RETURNDATASIZE ADD AND DUP3 ADD PUSH1 0x40 MSTORE RETURNDATASIZE DUP3 MSTORE RETURNDATASIZE PUSH0 PUSH1 0x20 DUP5 ADD RETURNDATACOPY PUSH2 0x58D JUMP JUMPDEST PUSH1 0x60 SWAP2 POP JUMPDEST POP SWAP2 POP SWAP2 POP DUP4 PUSH20 0xFFFFFFFFFFFFFFFFFFFFFFFFFFFFFFFFFFFFFFFF AND PUSH32 0x20423E22D1F0B31668780A7B6E52A7AD77A44C7DD910F738DF5E2D06244FB559 DUP5 DUP5 DUP5 PUSH1 0x40 MLOAD PUSH2 0x5DC SWAP4 SWAP3 SWAP2 SWAP1 PUSH2 0xBC7 JUMP JUMPDEST PUSH1 0x40 MLOAD DUP1 SWAP2 SUB SWAP1 LOG2 POP POP JUMPDEST POP POP JUMP JUMPDEST DUP1 PUSH2 0x617 PUSH32 0xB53127684A568B3173AE13B9F8A6016E243E63B6E8EE1178D6A717850B5D6103 PUSH0 SHL PUSH2 0x3B6 JUMP JUMPDEST PUSH0 ADD PUSH0 PUSH2 0x100 EXP DUP2 SLOAD DUP2 PUSH20 0xFFFFFFFFFFFFFFFFFFFFFFFFFFFFFFFFFFFFFFFF MUL NOT AND SWAP1 DUP4 PUSH20 0xFFFFFFFFFFFFFFFFFFFFFFFFFFFFFFFFFFFFFFFF AND MUL OR SWAP1 SSTORE POP POP JUMP JUMPDEST DUP1 PUSH2 0x685 PUSH32 0x360894A13BA1A3210667C828492DB98DCA3E2076CC3735A920A3CA505D382BBC PUSH0 SHL PUSH2 0x3B6 JUMP JUMPDEST PUSH0 ADD PUSH0 PUSH2 0x100 EXP DUP2 SLOAD DUP2 PUSH20 0xFFFFFFFFFFFFFFFFFFFFFFFFFFFFFFFFFFFFFFFF MUL NOT AND SWAP1 DUP4 PUSH20 0xFFFFFFFFFFFFFFFFFFFFFFFFFFFFFFFFFFFFFFFF AND MUL OR SWAP1 SSTORE POP POP JUMP JUMPDEST PUSH0 DUP3 DUP3 MSTORE PUSH1 0x20 DUP3 ADD SWAP1 POP SWAP3 SWAP2 POP POP JUMP JUMPDEST PUSH32 0x66616C6C6261636B3A2061646D696E2063616E206E6F74206163636573730000 PUSH0 DUP3 ADD MSTORE POP JUMP JUMPDEST PUSH0 PUSH2 0x70B PUSH1 0x1E DUP4 PUSH2 0x6C7 JUMP JUMPDEST SWAP2 POP PUSH2 0x716 DUP3 PUSH2 0x6D7 JUMP JUMPDEST PUSH1 0x20 DUP3 ADD SWAP1 POP SWAP2 SWAP1 POP JUMP JUMPDEST PUSH0 PUSH1 0x20 DUP3 ADD SWAP1 POP DUP2 DUP2 SUB PUSH0 DUP4 ADD MSTORE PUSH2 0x738 DUP2 PUSH2 0x6FF JUMP JUMPDEST SWAP1 POP SWAP2 SWAP1 POP JUMP JUMPDEST PUSH0 DUP3 DUP3 MSTORE PUSH1 0x20 DUP3 ADD SWAP1 POP SWAP3 SWAP2 POP POP JUMP JUMPDEST DUP3 DUP2 DUP4 CALLDATACOPY PUSH0 DUP4 DUP4 ADD MSTORE POP POP POP JUMP JUMPDEST PUSH0 PUSH1 0x1F NOT PUSH1 0x1F DUP4 ADD AND SWAP1 POP SWAP2 SWAP1 POP JUMP JUMPDEST PUSH0 PUSH2 0x778 DUP4 DUP6 PUSH2 0x73F JUMP JUMPDEST SWAP4 POP PUSH2 0x785 DUP4 DUP6 DUP5 PUSH2 0x74F JUMP JUMPDEST PUSH2 0x78E DUP4 PUSH2 0x75D JUMP JUMPDEST DUP5 ADD SWAP1 POP SWAP4 SWAP3 POP POP POP JUMP JUMPDEST PUSH0 PUSH1 0x20 DUP3 ADD SWAP1 POP DUP2 DUP2 SUB PUSH0 DUP4 ADD MSTORE PUSH2 0x7B2 DUP2 DUP5 DUP7 PUSH2 0x76D JUMP JUMPDEST SWAP1 POP SWAP4 SWAP3 POP POP POP JUMP JUMPDEST PUSH0 PUSH20 0xFFFFFFFFFFFFFFFFFFFFFFFFFFFFFFFFFFFFFFFF DUP3 AND SWAP1 POP SWAP2 SWAP1 POP JUMP JUMPDEST PUSH0 PUSH2 0x7E4 DUP3 PUSH2 0x7BB JUMP JUMPDEST SWAP1 POP SWAP2 SWAP1 POP JUMP JUMPDEST PUSH2 0x7F4 DUP2 PUSH2 0x7DA JUMP JUMPDEST DUP3 MSTORE POP POP JUMP JUMPDEST PUSH0 PUSH1 0x20 DUP3 ADD SWAP1 POP PUSH2 0x80D PUSH0 DUP4 ADD DUP5 PUSH2 0x7EB JUMP JUMPDEST SWAP3 SWAP2 POP POP JUMP JUMPDEST PUSH0 PUSH1 0x40 MLOAD SWAP1 POP SWAP1 JUMP JUMPDEST PUSH0 DUP1 REVERT JUMPDEST PUSH0 DUP1 REVERT JUMPDEST PUSH2 0x82D DUP2 PUSH2 0x7DA JUMP JUMPDEST DUP2 EQ PUSH2 0x837 JUMPI PUSH0 DUP1 REVERT JUMPDEST POP JUMP JUMPDEST PUSH0 DUP2 CALLDATALOAD SWAP1 POP PUSH2 0x848 DUP2 PUSH2 0x824 JUMP JUMPDEST SWAP3 SWAP2 POP POP JUMP JUMPDEST PUSH0 PUSH1 0x20 DUP3 DUP5 SUB SLT ISZERO PUSH2 0x863 JUMPI PUSH2 0x862 PUSH2 0x81C JUMP JUMPDEST JUMPDEST PUSH0 PUSH2 0x870 DUP5 DUP3 DUP6 ADD PUSH2 0x83A JUMP JUMPDEST SWAP2 POP POP SWAP3 SWAP2 POP POP JUMP JUMPDEST PUSH0 DUP1 REVERT JUMPDEST PUSH0 DUP1 REVERT JUMPDEST PUSH32 0x4E487B7100000000000000000000000000000000000000000000000000000000 PUSH0 MSTORE PUSH1 0x41 PUSH1 0x4 MSTORE PUSH1 0x24 PUSH0 REVERT JUMPDEST PUSH2 0x8B7 DUP3 PUSH2 0x75D JUMP JUMPDEST DUP2 ADD DUP2 DUP2 LT PUSH8 0xFFFFFFFFFFFFFFFF DUP3 GT OR ISZERO PUSH2 0x8D6 JUMPI PUSH2 0x8D5 PUSH2 0x881 JUMP JUMPDEST JUMPDEST DUP1 PUSH1 0x40 MSTORE POP POP POP JUMP JUMPDEST PUSH0 PUSH2 0x8E8 PUSH2 0x813 JUMP JUMPDEST SWAP1 POP PUSH2 0x8F4 DUP3 DUP3 PUSH2 0x8AE JUMP JUMPDEST SWAP2 SWAP1 POP JUMP JUMPDEST PUSH0 PUSH8 0xFFFFFFFFFFFFFFFF DUP3 GT ISZERO PUSH2 0x913 JUMPI PUSH2 0x912 PUSH2 0x881 JUMP JUMPDEST JUMPDEST PUSH2 0x91C DUP3 PUSH2 0x75D JUMP JUMPDEST SWAP1 POP PUSH1 0x20 DUP2 ADD SWAP1 POP SWAP2 SWAP1 POP JUMP JUMPDEST PUSH0 PUSH2 0x93B PUSH2 0x936 DUP5 PUSH2 0x8F9 JUMP JUMPDEST PUSH2 0x8DF JUMP JUMPDEST SWAP1 POP DUP3 DUP2 MSTORE PUSH1 0x20 DUP2 ADD DUP5 DUP5 DUP5 ADD GT ISZERO PUSH2 0x957 JUMPI PUSH2 0x956 PUSH2 0x87D JUMP JUMPDEST JUMPDEST PUSH2 0x962 DUP5 DUP3 DUP6 PUSH2 0x74F JUMP JUMPDEST POP SWAP4 SWAP3 POP POP POP JUMP JUMPDEST PUSH0 DUP3 PUSH1 0x1F DUP4 ADD SLT PUSH2 0x97E JUMPI PUSH2 0x97D PUSH2 0x879 JUMP JUMPDEST JUMPDEST DUP2 CALLDATALOAD PUSH2 0x98E DUP5 DUP3 PUSH1 0x20 DUP7 ADD PUSH2 0x929 JUMP JUMPDEST SWAP2 POP POP SWAP3 SWAP2 POP POP JUMP JUMPDEST PUSH0 DUP1 PUSH1 0x40 DUP4 DUP6 SUB SLT ISZERO PUSH2 0x9AD JUMPI PUSH2 0x9AC PUSH2 0x81C JUMP JUMPDEST JUMPDEST PUSH0 PUSH2 0x9BA DUP6 DUP3 DUP7 ADD PUSH2 0x83A JUMP JUMPDEST SWAP3 POP POP PUSH1 0x20 DUP4 ADD CALLDATALOAD PUSH8 0xFFFFFFFFFFFFFFFF DUP2 GT ISZERO PUSH2 0x9DB JUMPI PUSH2 0x9DA PUSH2 0x820 JUMP JUMPDEST JUMPDEST PUSH2 0x9E7 DUP6 DUP3 DUP7 ADD PUSH2 0x96A JUMP JUMPDEST SWAP2 POP POP SWAP3 POP SWAP3 SWAP1 POP JUMP JUMPDEST PUSH32 0x4F6E6C792061646D696E2063616E2063616C6C20746869732066756E6374696F PUSH0 DUP3 ADD MSTORE PUSH32 0x6E00000000000000000000000000000000000000000000000000000000000000 PUSH1 0x20 DUP3 ADD MSTORE POP JUMP JUMPDEST PUSH0 PUSH2 0xA4B PUSH1 0x21 DUP4 PUSH2 0x6C7 JUMP JUMPDEST SWAP2 POP PUSH2 0xA56 DUP3 PUSH2 0x9F1 JUMP JUMPDEST PUSH1 0x40 DUP3 ADD SWAP1 POP SWAP2 SWAP1 POP JUMP JUMPDEST PUSH0 PUSH1 0x20 DUP3 ADD SWAP1 POP DUP2 DUP2 SUB PUSH0 DUP4 ADD MSTORE PUSH2 0xA78 DUP2 PUSH2 0xA3F JUMP JUMPDEST SWAP1 POP SWAP2 SWAP1 POP JUMP JUMPDEST PUSH32 0x757067726164654C6F676963416464726573733A206F6E6C792061646D696E20 PUSH0 DUP3 ADD MSTORE PUSH32 0x63616E20646F0000000000000000000000000000000000000000000000000000 PUSH1 0x20 DUP3 ADD MSTORE POP JUMP JUMPDEST PUSH0 PUSH2 0xAD9 PUSH1 0x26 DUP4 PUSH2 0x6C7 JUMP JUMPDEST SWAP2 POP PUSH2 0xAE4 DUP3 PUSH2 0xA7F JUMP JUMPDEST PUSH1 0x40 DUP3 ADD SWAP1 POP SWAP2 SWAP1 POP JUMP JUMPDEST PUSH0 PUSH1 0x20 DUP3 ADD SWAP1 POP DUP2 DUP2 SUB PUSH0 DUP4 ADD MSTORE PUSH2 0xB06 DUP2 PUSH2 0xACD JUMP JUMPDEST SWAP1 POP SWAP2 SWAP1 POP JUMP JUMPDEST PUSH0 DUP2 MLOAD SWAP1 POP SWAP2 SWAP1 POP JUMP JUMPDEST PUSH0 DUP2 SWAP1 POP SWAP3 SWAP2 POP POP JUMP JUMPDEST DUP3 DUP2 DUP4 MCOPY PUSH0 DUP4 DUP4 ADD MSTORE POP POP POP JUMP JUMPDEST PUSH0 PUSH2 0xB39 DUP3 PUSH2 0xB0D JUMP JUMPDEST PUSH2 0xB43 DUP2 DUP6 PUSH2 0xB17 JUMP JUMPDEST SWAP4 POP PUSH2 0xB53 DUP2 DUP6 PUSH1 0x20 DUP7 ADD PUSH2 0xB21 JUMP JUMPDEST DUP1 DUP5 ADD SWAP2 POP POP SWAP3 SWAP2 POP POP JUMP JUMPDEST PUSH0 PUSH2 0xB6A DUP3 DUP5 PUSH2 0xB2F JUMP JUMPDEST SWAP2 POP DUP2 SWAP1 POP SWAP3 SWAP2 POP POP JUMP JUMPDEST PUSH0 PUSH2 0xB7F DUP3 PUSH2 0xB0D JUMP JUMPDEST PUSH2 0xB89 DUP2 DUP6 PUSH2 0x73F JUMP JUMPDEST SWAP4 POP PUSH2 0xB99 DUP2 DUP6 PUSH1 0x20 DUP7 ADD PUSH2 0xB21 JUMP JUMPDEST PUSH2 0xBA2 DUP2 PUSH2 0x75D JUMP JUMPDEST DUP5 ADD SWAP2 POP POP SWAP3 SWAP2 POP POP JUMP JUMPDEST PUSH0 DUP2 ISZERO ISZERO SWAP1 POP SWAP2 SWAP1 POP JUMP JUMPDEST PUSH2 0xBC1 DUP2 PUSH2 0xBAD JUMP JUMPDEST DUP3 MSTORE POP POP JUMP JUMPDEST PUSH0 PUSH1 0x60 DUP3 ADD SWAP1 POP DUP2 DUP2 SUB PUSH0 DUP4 ADD MSTORE PUSH2 0xBDF DUP2 DUP7 PUSH2 0xB75 JUMP JUMPDEST SWAP1 POP PUSH2 0xBEE PUSH1 0x20 DUP4 ADD DUP6 PUSH2 0xBB8 JUMP JUMPDEST DUP2 DUP2 SUB PUSH1 0x40 DUP4 ADD MSTORE PUSH2 0xC00 DUP2 DUP5 PUSH2 0xB75 JUMP JUMPDEST SWAP1 POP SWAP5 SWAP4 POP POP POP POP JUMP INVALID LOG2 PUSH5 0x6970667358 0x22 SLT KECCAK256 0xB8 PUSH20 0xB39AEED74036CA486D267161390C2BFFC07DC47E 0xB1 0xC0 0xEF 0x4B NUMBER 0xFC PUSH27 0xA5FF8B64736F6C634300081A003300000000000000000000000000 "
		},
		"gasEstimates": {
			"creation": {
				"codeDepositCost": "627200",
				"executionCost": "infinite",
				"totalCost": "infinite"
			},
			"external": {
				"": "infinite",
				"changeAdmin(address)": "infinite",
				"getAdmin()": "2579",
				"upgradeLogicAddress(address,bytes)": "infinite"
			},
			"internal": {
				"_upgradeAndCall(address,bytes memory)": "infinite"
			}
		},
		"methodIdentifiers": {
			"changeAdmin(address)": "8f283970",
			"getAdmin()": "6e9960c3",
			"upgradeLogicAddress(address,bytes)": "95fae7ac"
		}
	},
	"abi": [
		{
			"inputs": [
				{
					"internalType": "address",
					"name": "_logicAddress",
					"type": "address"
				},
				{
					"internalType": "bytes",
					"name": "data",
					"type": "bytes"
				}
			],
			"stateMutability": "nonpayable",
			"type": "constructor"
		},
		{
			"inputs": [],
			"name": "AddressEmptyError",
			"type": "error"
		},
		{
			"inputs": [
				{
					"internalType": "string",
					"name": "data",
					"type": "string"
				}
			],
			"name": "NotAdminError",
			"type": "error"
		},
		{
			"anonymous": false,
			"inputs": [
				{
					"indexed": true,
					"internalType": "address",
					"name": "from",
					"type": "address"
				},
				{
					"indexed": true,
					"internalType": "bytes4",
					"name": "msgSig",
					"type": "bytes4"
				},
				{
					"indexed": false,
					"internalType": "bytes",
					"name": "msgData",
					"type": "bytes"
				}
			],
			"name": "FallbackLog",
			"type": "event"
		},
		{
			"anonymous": false,
			"inputs": [
				{
					"indexed": true,
					"internalType": "address",
					"name": "logicAddress",
					"type": "address"
				},
				{
					"indexed": false,
					"internalType": "bytes",
					"name": "data",
					"type": "bytes"
				},
				{
					"indexed": false,
					"internalType": "bool",
					"name": "success",
					"type": "bool"
				},
				{
					"indexed": false,
					"internalType": "bytes",
					"name": "resultData",
					"type": "bytes"
				}
			],
			"name": "UpgradeAndCallLog",
			"type": "event"
		},
		{
			"stateMutability": "payable",
			"type": "fallback"
		},
		{
			"inputs": [
				{
					"internalType": "address",
					"name": "_newAdmin",
					"type": "address"
				}
			],
			"name": "changeAdmin",
			"outputs": [],
			"stateMutability": "nonpayable",
			"type": "function"
		},
		{
			"inputs": [],
			"name": "getAdmin",
			"outputs": [
				{
					"internalType": "address",
					"name": "",
					"type": "address"
				}
			],
			"stateMutability": "view",
			"type": "function"
		},
		{
			"inputs": [
				{
					"internalType": "address",
					"name": "newLogicAddress",
					"type": "address"
				},
				{
					"internalType": "bytes",
					"name": "data",
					"type": "bytes"
				}
			],
			"name": "upgradeLogicAddress",
			"outputs": [],
			"stateMutability": "nonpayable",
			"type": "function"
		},
		{
			"stateMutability": "payable",
			"type": "receive"
		}
	]
}