{
	"data": {
		"bytecode": {
			"linkReferences": {},
			"object": "608060405234801561000f575f5ffd5b506040518060400160405280600581526020017f4e455a48410000000000000000000000000000000000000000000000000000008152506040518060400160405280600281526020017f4e5a000000000000000000000000000000000000000000000000000000000000815250816003908161008b9190610663565b50806004908161009b9190610663565b5050506100ad336100ce60201b60201c565b6100c9336b204fce5e3e2502611000000061016360201b60201c565b610847565b806101216101166040518060400160405280601c81526020017f4772616e7450726976696c656765732e61646d696e41646472657373000000008152506101e860201b60201c565b61020460201b60201c565b5f015f6101000a81548173ffffffffffffffffffffffffffffffffffffffff021916908373ffffffffffffffffffffffffffffffffffffffff16021790555050565b5f73ffffffffffffffffffffffffffffffffffffffff168273ffffffffffffffffffffffffffffffffffffffff16036101d3575f6040517fec442f050000000000000000000000000000000000000000000000000000000081526004016101ca9190610771565b60405180910390fd5b6101e45f838361020d60201b60201c565b5050565b5f600182516020840120035f5260ff1960205f20169050919050565b5f819050919050565b5f73ffffffffffffffffffffffffffffffffffffffff168373ffffffffffffffffffffffffffffffffffffffff160361025d578060025f82825461025191906107b7565b9250508190555061032b565b5f5f5f8573ffffffffffffffffffffffffffffffffffffffff1673ffffffffffffffffffffffffffffffffffffffff1681526020019081526020015f20549050818110156102e6578381836040517fe450d38c0000000000000000000000000000000000000000000000000000000081526004016102dd939291906107f9565b60405180910390fd5b8181035f5f8673ffffffffffffffffffffffffffffffffffffffff1673ffffffffffffffffffffffffffffffffffffffff1681526020019081526020015f2081905550505b5f73ffffffffffffffffffffffffffffffffffffffff168273ffffffffffffffffffffffffffffffffffffffff1603610372578060025f82825403925050819055506103bc565b805f5f8473ffffffffffffffffffffffffffffffffffffffff1673ffffffffffffffffffffffffffffffffffffffff1681526020019081526020015f205f82825401925050819055505b8173ffffffffffffffffffffffffffffffffffffffff168373ffffffffffffffffffffffffffffffffffffffff167fddf252ad1be2c89b69c2b068fc378daa952ba7f163c4a11628f55a4df523b3ef83604051610419919061082e565b60405180910390a3505050565b5f81519050919050565b7f4e487b71000000000000000000000000000000000000000000000000000000005f52604160045260245ffd5b7f4e487b71000000000000000000000000000000000000000000000000000000005f52602260045260245ffd5b5f60028204905060018216806104a157607f821691505b6020821081036104b4576104b361045d565b5b50919050565b5f819050815f5260205f209050919050565b5f6020601f8301049050919050565b5f82821b905092915050565b5f600883026105167fffffffffffffffffffffffffffffffffffffffffffffffffffffffffffffffff826104db565b61052086836104db565b95508019841693508086168417925050509392505050565b5f819050919050565b5f819050919050565b5f61056461055f61055a84610538565b610541565b610538565b9050919050565b5f819050919050565b61057d8361054a565b6105916105898261056b565b8484546104e7565b825550505050565b5f5f905090565b6105a8610599565b6105b3818484610574565b505050565b5b818110156105d6576105cb5f826105a0565b6001810190506105b9565b5050565b601f82111561061b576105ec816104ba565b6105f5846104cc565b81016020851015610604578190505b610618610610856104cc565b8301826105b8565b50505b505050565b5f82821c905092915050565b5f61063b5f1984600802610620565b1980831691505092915050565b5f610653838361062c565b9150826002028217905092915050565b61066c82610426565b67ffffffffffffffff81111561068557610684610430565b5b61068f825461048a565b61069a8282856105da565b5f60209050601f8311600181146106cb575f84156106b9578287015190505b6106c38582610648565b86555061072a565b601f1984166106d9866104ba565b5f5b82811015610700578489015182556001820191506020850194506020810190506106db565b8683101561071d5784890151610719601f89168261062c565b8355505b6001600288020188555050505b505050505050565b5f73ffffffffffffffffffffffffffffffffffffffff82169050919050565b5f61075b82610732565b9050919050565b61076b81610751565b82525050565b5f6020820190506107845f830184610762565b92915050565b7f4e487b71000000000000000000000000000000000000000000000000000000005f52601160045260245ffd5b5f6107c182610538565b91506107cc83610538565b92508282019050808211156107e4576107e361078a565b5b92915050565b6107f381610538565b82525050565b5f60608201905061080c5f830186610762565b61081960208301856107ea565b61082660408301846107ea565b949350505050565b5f6020820190506108415f8301846107ea565b92915050565b61174b806108545f395ff3fe608060405234801561000f575f5ffd5b5060043610610109575f3560e01c806340c10f19116100a057806395d89b411161006f57806395d89b41146102a5578063a9059cbb146102c3578063b2e6b912146102f3578063dd62ed3e14610311578063efb98bcf1461034157610109565b806340c10f191461021f57806370a082311461023b5780638f2839701461026b57806395cfbf6d1461028757610109565b806323b872dd116100dc57806323b872dd146101975780632a905318146101c7578063313ce567146101e55780633cc38f5c1461020357610109565b806306fdde031461010d578063095ea7b31461012b57806318160ddd1461015b5780631882140014610179575b5f5ffd5b61011561035f565b604051610122919061129b565b60405180910390f35b6101456004803603810190610140919061134c565b6103ef565b60405161015291906113a4565b60405180910390f35b610163610411565b60405161017091906113cc565b60405180910390f35b61018161041a565b60405161018e919061129b565b60405180910390f35b6101b160048036038101906101ac91906113e5565b610453565b6040516101be91906113a4565b60405180910390f35b6101cf610481565b6040516101dc919061129b565b60405180910390f35b6101ed6104ba565b6040516101fa9190611450565b60405180910390f35b61021d6004803603810190610218919061134c565b6104c2565b005b6102396004803603810190610234919061134c565b6105f7565b005b61025560048036038101906102509190611469565b61067a565b60405161026291906113cc565b60405180910390f35b61028560048036038101906102809190611469565b6106bf565b005b61028f6107a5565b60405161029c919061129b565b60405180910390f35b6102ad6107de565b6040516102ba919061129b565b60405180910390f35b6102dd60048036038101906102d8919061134c565b61086e565b6040516102ea91906113a4565b60405180910390f35b6102fb610890565b60405161030891906114a3565b60405180910390f35b61032b600480360381019061032691906114bc565b61089e565b60405161033891906113cc565b60405180910390f35b610349610920565b60405161035691906113cc565b60405180910390f35b60606003805461036e90611527565b80601f016020809104026020016040519081016040528092919081815260200182805461039a90611527565b80156103e55780601f106103bc576101008083540402835291602001916103e5565b820191905f5260205f20905b8154815290600101906020018083116103c857829003601f168201915b5050505050905090565b5f5f6103f9610a20565b9050610406818585610a27565b600191505092915050565b5f600254905090565b6040518060400160405280600581526020017f4e455a484100000000000000000000000000000000000000000000000000000081525081565b5f5f61045d610a20565b905061046a858285610a39565b610475858585610acc565b60019150509392505050565b6040518060400160405280600281526020017f4e5a00000000000000000000000000000000000000000000000000000000000081525081565b5f6012905090565b6104ca610bbc565b73ffffffffffffffffffffffffffffffffffffffff163373ffffffffffffffffffffffffffffffffffffffff1614610537576040517f0a2a9e3e00000000000000000000000000000000000000000000000000000000815260040161052e906115a1565b60405180910390fd5b5f73ffffffffffffffffffffffffffffffffffffffff168273ffffffffffffffffffffffffffffffffffffffff160361059c576040517f5bb7a72300000000000000000000000000000000000000000000000000000000815260040160405180910390fd5b5f81036105d5576040517fe16a8aa400000000000000000000000000000000000000000000000000000000815260040160405180910390fd5b5f6105df83610c2a565b905042815f0181905550818160010181905550505050565b6105ff610bbc565b73ffffffffffffffffffffffffffffffffffffffff163373ffffffffffffffffffffffffffffffffffffffff161461066c576040517f0a2a9e3e000000000000000000000000000000000000000000000000000000008152600401610663906115a1565b60405180910390fd5b6106768282610c8f565b5050565b5f5f5f8373ffffffffffffffffffffffffffffffffffffffff1673ffffffffffffffffffffffffffffffffffffffff1681526020019081526020015f20549050919050565b6106c7610bbc565b73ffffffffffffffffffffffffffffffffffffffff163373ffffffffffffffffffffffffffffffffffffffff1614610734576040517f0a2a9e3e00000000000000000000000000000000000000000000000000000000815260040161072b906115a1565b60405180910390fd5b5f73ffffffffffffffffffffffffffffffffffffffff168173ffffffffffffffffffffffffffffffffffffffff1603610799576040517f5bb7a72300000000000000000000000000000000000000000000000000000000815260040160405180910390fd5b6107a281610d0e565b50565b6040518060400160405280601981526020017f4772616e7450726976696c656765732e4e616d6573706163650000000000000081525081565b6060600480546107ed90611527565b80601f016020809104026020016040519081016040528092919081815260200182805461081990611527565b80156108645780601f1061083b57610100808354040283529160200191610864565b820191905f5260205f20905b81548152906001019060200180831161084757829003601f168201915b5050505050905090565b5f5f610878610a20565b9050610885818585610acc565b600191505092915050565b5f610899610bbc565b905090565b5f60015f8473ffffffffffffffffffffffffffffffffffffffff1673ffffffffffffffffffffffffffffffffffffffff1681526020019081526020015f205f8373ffffffffffffffffffffffffffffffffffffffff1673ffffffffffffffffffffffffffffffffffffffff1681526020019081526020015f2054905092915050565b5f610929610bbc565b73ffffffffffffffffffffffffffffffffffffffff163373ffffffffffffffffffffffffffffffffffffffff161415801561096a575061096833610d97565b155b156109aa576040517f5e9b54e10000000000000000000000000000000000000000000000000000000081526004016109a19061162f565b60405180910390fd5b5f6109b433610c2a565b90505f815f015490505f826001015490505f8214806109d257505f81145b156109e2575f9350505050610a1d565b4281836109ef919061167a565b1015610a00575f9350505050610a1d565b428183610a0d919061167a565b610a1791906116ad565b93505050505b90565b5f33905090565b610a348383836001610dfb565b505050565b5f610a44848461089e565b90507fffffffffffffffffffffffffffffffffffffffffffffffffffffffffffffffff811015610ac65781811015610ab7578281836040517ffb8f41b2000000000000000000000000000000000000000000000000000000008152600401610aae939291906116e0565b60405180910390fd5b610ac584848484035f610dfb565b5b50505050565b5f73ffffffffffffffffffffffffffffffffffffffff168373ffffffffffffffffffffffffffffffffffffffff1603610b3c575f6040517f96c6fd1e000000000000000000000000000000000000000000000000000000008152600401610b3391906114a3565b60405180910390fd5b5f73ffffffffffffffffffffffffffffffffffffffff168273ffffffffffffffffffffffffffffffffffffffff1603610bac575f6040517fec442f05000000000000000000000000000000000000000000000000000000008152600401610ba391906114a3565b60405180910390fd5b610bb7838383610fca565b505050565b5f610c03610bfe6040518060400160405280601c81526020017f4772616e7450726976696c656765732e61646d696e41646472657373000000008152506111e3565b6111ff565b5f015f9054906101000a900473ffffffffffffffffffffffffffffffffffffffff16905090565b5f5f610c7c83610c6e6040518060400160405280601981526020017f4772616e7450726976696c656765732e4e616d657370616365000000000000008152506111e3565b61120890919063ffffffff16565b9050610c8781611222565b915050919050565b5f73ffffffffffffffffffffffffffffffffffffffff168273ffffffffffffffffffffffffffffffffffffffff1603610cff575f6040517fec442f05000000000000000000000000000000000000000000000000000000008152600401610cf691906114a3565b60405180910390fd5b610d0a5f8383610fca565b5050565b80610d55610d506040518060400160405280601c81526020017f4772616e7450726976696c656765732e61646d696e41646472657373000000008152506111e3565b6111ff565b5f015f6101000a81548173ffffffffffffffffffffffffffffffffffffffff021916908373ffffffffffffffffffffffffffffffffffffffff16021790555050565b5f5f610da283610c2a565b90505f815f015490505f826001015490505f821480610dc057505f81145b15610dd0575f9350505050610df6565b8082610ddc919061167a565b421115610dee575f9350505050610df6565b600193505050505b919050565b5f73ffffffffffffffffffffffffffffffffffffffff168473ffffffffffffffffffffffffffffffffffffffff1603610e6b575f6040517fe602df05000000000000000000000000000000000000000000000000000000008152600401610e6291906114a3565b60405180910390fd5b5f73ffffffffffffffffffffffffffffffffffffffff168373ffffffffffffffffffffffffffffffffffffffff1603610edb575f6040517f94280d62000000000000000000000000000000000000000000000000000000008152600401610ed291906114a3565b60405180910390fd5b8160015f8673ffffffffffffffffffffffffffffffffffffffff1673ffffffffffffffffffffffffffffffffffffffff1681526020019081526020015f205f8573ffffffffffffffffffffffffffffffffffffffff1673ffffffffffffffffffffffffffffffffffffffff1681526020019081526020015f20819055508015610fc4578273ffffffffffffffffffffffffffffffffffffffff168473ffffffffffffffffffffffffffffffffffffffff167f8c5be1e5ebec7d5bd14f71427d1e84f3dd0314c0f7b2291e5b200ac8c7c3b92584604051610fbb91906113cc565b60405180910390a35b50505050565b5f73ffffffffffffffffffffffffffffffffffffffff168373ffffffffffffffffffffffffffffffffffffffff160361101a578060025f82825461100e919061167a565b925050819055506110e8565b5f5f5f8573ffffffffffffffffffffffffffffffffffffffff1673ffffffffffffffffffffffffffffffffffffffff1681526020019081526020015f20549050818110156110a3578381836040517fe450d38c00000000000000000000000000000000000000000000000000000000815260040161109a939291906116e0565b60405180910390fd5b8181035f5f8673ffffffffffffffffffffffffffffffffffffffff1673ffffffffffffffffffffffffffffffffffffffff1681526020019081526020015f2081905550505b5f73ffffffffffffffffffffffffffffffffffffffff168273ffffffffffffffffffffffffffffffffffffffff160361112f578060025f8282540392505081905550611179565b805f5f8473ffffffffffffffffffffffffffffffffffffffff1673ffffffffffffffffffffffffffffffffffffffff1681526020019081526020015f205f82825401925050819055505b8173ffffffffffffffffffffffffffffffffffffffff168373ffffffffffffffffffffffffffffffffffffffff167fddf252ad1be2c89b69c2b068fc378daa952ba7f163c4a11628f55a4df523b3ef836040516111d691906113cc565b60405180910390a3505050565b5f600182516020840120035f5260ff1960205f20169050919050565b5f819050919050565b5f5f1960601c82165f528260205260405f20905092915050565b5f819050919050565b5f81519050919050565b5f82825260208201905092915050565b8281835e5f83830152505050565b5f601f19601f8301169050919050565b5f61126d8261122b565b6112778185611235565b9350611287818560208601611245565b61129081611253565b840191505092915050565b5f6020820190508181035f8301526112b38184611263565b905092915050565b5f5ffd5b5f73ffffffffffffffffffffffffffffffffffffffff82169050919050565b5f6112e8826112bf565b9050919050565b6112f8816112de565b8114611302575f5ffd5b50565b5f81359050611313816112ef565b92915050565b5f819050919050565b61132b81611319565b8114611335575f5ffd5b50565b5f8135905061134681611322565b92915050565b5f5f60408385031215611362576113616112bb565b5b5f61136f85828601611305565b925050602061138085828601611338565b9150509250929050565b5f8115159050919050565b61139e8161138a565b82525050565b5f6020820190506113b75f830184611395565b92915050565b6113c681611319565b82525050565b5f6020820190506113df5f8301846113bd565b92915050565b5f5f5f606084860312156113fc576113fb6112bb565b5b5f61140986828701611305565b935050602061141a86828701611305565b925050604061142b86828701611338565b9150509250925092565b5f60ff82169050919050565b61144a81611435565b82525050565b5f6020820190506114635f830184611441565b92915050565b5f6020828403121561147e5761147d6112bb565b5b5f61148b84828501611305565b91505092915050565b61149d816112de565b82525050565b5f6020820190506114b65f830184611494565b92915050565b5f5f604083850312156114d2576114d16112bb565b5b5f6114df85828601611305565b92505060206114f085828601611305565b9150509250929050565b7f4e487b71000000000000000000000000000000000000000000000000000000005f52602260045260245ffd5b5f600282049050600182168061153e57607f821691505b602082108103611551576115506114fa565b5b50919050565b7f6f6e6c792061646d696e20616464726573732063616e206163636573730000005f82015250565b5f61158b601d83611235565b915061159682611557565b602082019050919050565b5f6020820190508181035f8301526115b88161157f565b9050919050565b7f6f6e6c79206c6567616c206f776e657220616464726573732063616e206163635f8201527f6573730000000000000000000000000000000000000000000000000000000000602082015250565b5f611619602383611235565b9150611624826115bf565b604082019050919050565b5f6020820190508181035f8301526116468161160d565b9050919050565b7f4e487b71000000000000000000000000000000000000000000000000000000005f52601160045260245ffd5b5f61168482611319565b915061168f83611319565b92508282019050808211156116a7576116a661164d565b5b92915050565b5f6116b782611319565b91506116c283611319565b92508282039050818111156116da576116d961164d565b5b92915050565b5f6060820190506116f35f830186611494565b61170060208301856113bd565b61170d60408301846113bd565b94935050505056fea2646970667358221220b6eddae11d211944fc029eae0ed4e2bf525e71b9295c27f9768c79254b36c03f64736f6c634300081e0033",
			"opcodes": "PUSH1 0x80 PUSH1 0x40 MSTORE CALLVALUE DUP1 ISZERO PUSH2 0xF JUMPI PUSH0 PUSH0 REVERT JUMPDEST POP PUSH1 0x40 MLOAD DUP1 PUSH1 0x40 ADD PUSH1 0x40 MSTORE DUP1 PUSH1 0x5 DUP2 MSTORE PUSH1 0x20 ADD PUSH32 0x4E455A4841000000000000000000000000000000000000000000000000000000 DUP2 MSTORE POP PUSH1 0x40 MLOAD DUP1 PUSH1 0x40 ADD PUSH1 0x40 MSTORE DUP1 PUSH1 0x2 DUP2 MSTORE PUSH1 0x20 ADD PUSH32 0x4E5A000000000000000000000000000000000000000000000000000000000000 DUP2 MSTORE POP DUP2 PUSH1 0x3 SWAP1 DUP2 PUSH2 0x8B SWAP2 SWAP1 PUSH2 0x663 JUMP JUMPDEST POP DUP1 PUSH1 0x4 SWAP1 DUP2 PUSH2 0x9B SWAP2 SWAP1 PUSH2 0x663 JUMP JUMPDEST POP POP POP PUSH2 0xAD CALLER PUSH2 0xCE PUSH1 0x20 SHL PUSH1 0x20 SHR JUMP JUMPDEST PUSH2 0xC9 CALLER PUSH12 0x204FCE5E3E25026110000000 PUSH2 0x163 PUSH1 0x20 SHL PUSH1 0x20 SHR JUMP JUMPDEST PUSH2 0x847 JUMP JUMPDEST DUP1 PUSH2 0x121 PUSH2 0x116 PUSH1 0x40 MLOAD DUP1 PUSH1 0x40 ADD PUSH1 0x40 MSTORE DUP1 PUSH1 0x1C DUP2 MSTORE PUSH1 0x20 ADD PUSH32 0x4772616E7450726976696C656765732E61646D696E4164647265737300000000 DUP2 MSTORE POP PUSH2 0x1E8 PUSH1 0x20 SHL PUSH1 0x20 SHR JUMP JUMPDEST PUSH2 0x204 PUSH1 0x20 SHL PUSH1 0x20 SHR JUMP JUMPDEST PUSH0 ADD PUSH0 PUSH2 0x100 EXP DUP2 SLOAD DUP2 PUSH20 0xFFFFFFFFFFFFFFFFFFFFFFFFFFFFFFFFFFFFFFFF MUL NOT AND SWAP1 DUP4 PUSH20 0xFFFFFFFFFFFFFFFFFFFFFFFFFFFFFFFFFFFFFFFF AND MUL OR SWAP1 SSTORE POP POP JUMP JUMPDEST PUSH0 PUSH20 0xFFFFFFFFFFFFFFFFFFFFFFFFFFFFFFFFFFFFFFFF AND DUP3 PUSH20 0xFFFFFFFFFFFFFFFFFFFFFFFFFFFFFFFFFFFFFFFF AND SUB PUSH2 0x1D3 JUMPI PUSH0 PUSH1 0x40 MLOAD PUSH32 0xEC442F0500000000000000000000000000000000000000000000000000000000 DUP2 MSTORE PUSH1 0x4 ADD PUSH2 0x1CA SWAP2 SWAP1 PUSH2 0x771 JUMP JUMPDEST PUSH1 0x40 MLOAD DUP1 SWAP2 SUB SWAP1 REVERT JUMPDEST PUSH2 0x1E4 PUSH0 DUP4 DUP4 PUSH2 0x20D PUSH1 0x20 SHL PUSH1 0x20 SHR JUMP JUMPDEST POP POP JUMP JUMPDEST PUSH0 PUSH1 0x1 DUP3 MLOAD PUSH1 0x20 DUP5 ADD KECCAK256 SUB PUSH0 MSTORE PUSH1 0xFF NOT PUSH1 0x20 PUSH0 KECCAK256 AND SWAP1 POP SWAP2 SWAP1 POP JUMP JUMPDEST PUSH0 DUP2 SWAP1 POP SWAP2 SWAP1 POP JUMP JUMPDEST PUSH0 PUSH20 0xFFFFFFFFFFFFFFFFFFFFFFFFFFFFFFFFFFFFFFFF AND DUP4 PUSH20 0xFFFFFFFFFFFFFFFFFFFFFFFFFFFFFFFFFFFFFFFF AND SUB PUSH2 0x25D JUMPI DUP1 PUSH1 0x2 PUSH0 DUP3 DUP3 SLOAD PUSH2 0x251 SWAP2 SWAP1 PUSH2 0x7B7 JUMP JUMPDEST SWAP3 POP POP DUP2 SWAP1 SSTORE POP PUSH2 0x32B JUMP JUMPDEST PUSH0 PUSH0 PUSH0 DUP6 PUSH20 0xFFFFFFFFFFFFFFFFFFFFFFFFFFFFFFFFFFFFFFFF AND PUSH20 0xFFFFFFFFFFFFFFFFFFFFFFFFFFFFFFFFFFFFFFFF AND DUP2 MSTORE PUSH1 0x20 ADD SWAP1 DUP2 MSTORE PUSH1 0x20 ADD PUSH0 KECCAK256 SLOAD SWAP1 POP DUP2 DUP2 LT ISZERO PUSH2 0x2E6 JUMPI DUP4 DUP2 DUP4 PUSH1 0x40 MLOAD PUSH32 0xE450D38C00000000000000000000000000000000000000000000000000000000 DUP2 MSTORE PUSH1 0x4 ADD PUSH2 0x2DD SWAP4 SWAP3 SWAP2 SWAP1 PUSH2 0x7F9 JUMP JUMPDEST PUSH1 0x40 MLOAD DUP1 SWAP2 SUB SWAP1 REVERT JUMPDEST DUP2 DUP2 SUB PUSH0 PUSH0 DUP7 PUSH20 0xFFFFFFFFFFFFFFFFFFFFFFFFFFFFFFFFFFFFFFFF AND PUSH20 0xFFFFFFFFFFFFFFFFFFFFFFFFFFFFFFFFFFFFFFFF AND DUP2 MSTORE PUSH1 0x20 ADD SWAP1 DUP2 MSTORE PUSH1 0x20 ADD PUSH0 KECCAK256 DUP2 SWAP1 SSTORE POP POP JUMPDEST PUSH0 PUSH20 0xFFFFFFFFFFFFFFFFFFFFFFFFFFFFFFFFFFFFFFFF AND DUP3 PUSH20 0xFFFFFFFFFFFFFFFFFFFFFFFFFFFFFFFFFFFFFFFF AND SUB PUSH2 0x372 JUMPI DUP1 PUSH1 0x2 PUSH0 DUP3 DUP3 SLOAD SUB SWAP3 POP POP DUP2 SWAP1 SSTORE POP PUSH2 0x3BC JUMP JUMPDEST DUP1 PUSH0 PUSH0 DUP5 PUSH20 0xFFFFFFFFFFFFFFFFFFFFFFFFFFFFFFFFFFFFFFFF AND PUSH20 0xFFFFFFFFFFFFFFFFFFFFFFFFFFFFFFFFFFFFFFFF AND DUP2 MSTORE PUSH1 0x20 ADD SWAP1 DUP2 MSTORE PUSH1 0x20 ADD PUSH0 KECCAK256 PUSH0 DUP3 DUP3 SLOAD ADD SWAP3 POP POP DUP2 SWAP1 SSTORE POP JUMPDEST DUP2 PUSH20 0xFFFFFFFFFFFFFFFFFFFFFFFFFFFFFFFFFFFFFFFF AND DUP4 PUSH20 0xFFFFFFFFFFFFFFFFFFFFFFFFFFFFFFFFFFFFFFFF AND PUSH32 0xDDF252AD1BE2C89B69C2B068FC378DAA952BA7F163C4A11628F55A4DF523B3EF DUP4 PUSH1 0x40 MLOAD PUSH2 0x419 SWAP2 SWAP1 PUSH2 0x82E JUMP JUMPDEST PUSH1 0x40 MLOAD DUP1 SWAP2 SUB SWAP1 LOG3 POP POP POP JUMP JUMPDEST PUSH0 DUP2 MLOAD SWAP1 POP SWAP2 SWAP1 POP JUMP JUMPDEST PUSH32 0x4E487B7100000000000000000000000000000000000000000000000000000000 PUSH0 MSTORE PUSH1 0x41 PUSH1 0x4 MSTORE PUSH1 0x24 PUSH0 REVERT JUMPDEST PUSH32 0x4E487B7100000000000000000000000000000000000000000000000000000000 PUSH0 MSTORE PUSH1 0x22 PUSH1 0x4 MSTORE PUSH1 0x24 PUSH0 REVERT JUMPDEST PUSH0 PUSH1 0x2 DUP3 DIV SWAP1 POP PUSH1 0x1 DUP3 AND DUP1 PUSH2 0x4A1 JUMPI PUSH1 0x7F DUP3 AND SWAP2 POP JUMPDEST PUSH1 0x20 DUP3 LT DUP2 SUB PUSH2 0x4B4 JUMPI PUSH2 0x4B3 PUSH2 0x45D JUMP JUMPDEST JUMPDEST POP SWAP2 SWAP1 POP JUMP JUMPDEST PUSH0 DUP2 SWAP1 POP DUP2 PUSH0 MSTORE PUSH1 0x20 PUSH0 KECCAK256 SWAP1 POP SWAP2 SWAP1 POP JUMP JUMPDEST PUSH0 PUSH1 0x20 PUSH1 0x1F DUP4 ADD DIV SWAP1 POP SWAP2 SWAP1 POP JUMP JUMPDEST PUSH0 DUP3 DUP3 SHL SWAP1 POP SWAP3 SWAP2 POP POP JUMP JUMPDEST PUSH0 PUSH1 0x8 DUP4 MUL PUSH2 0x516 PUSH32 0xFFFFFFFFFFFFFFFFFFFFFFFFFFFFFFFFFFFFFFFFFFFFFFFFFFFFFFFFFFFFFFFF DUP3 PUSH2 0x4DB JUMP JUMPDEST PUSH2 0x520 DUP7 DUP4 PUSH2 0x4DB JUMP JUMPDEST SWAP6 POP DUP1 NOT DUP5 AND SWAP4 POP DUP1 DUP7 AND DUP5 OR SWAP3 POP POP POP SWAP4 SWAP3 POP POP POP JUMP JUMPDEST PUSH0 DUP2 SWAP1 POP SWAP2 SWAP1 POP JUMP JUMPDEST PUSH0 DUP2 SWAP1 POP SWAP2 SWAP1 POP JUMP JUMPDEST PUSH0 PUSH2 0x564 PUSH2 0x55F PUSH2 0x55A DUP5 PUSH2 0x538 JUMP JUMPDEST PUSH2 0x541 JUMP JUMPDEST PUSH2 0x538 JUMP JUMPDEST SWAP1 POP SWAP2 SWAP1 POP JUMP JUMPDEST PUSH0 DUP2 SWAP1 POP SWAP2 SWAP1 POP JUMP JUMPDEST PUSH2 0x57D DUP4 PUSH2 0x54A JUMP JUMPDEST PUSH2 0x591 PUSH2 0x589 DUP3 PUSH2 0x56B JUMP JUMPDEST DUP5 DUP5 SLOAD PUSH2 0x4E7 JUMP JUMPDEST DUP3 SSTORE POP POP POP POP JUMP JUMPDEST PUSH0 PUSH0 SWAP1 POP SWAP1 JUMP JUMPDEST PUSH2 0x5A8 PUSH2 0x599 JUMP JUMPDEST PUSH2 0x5B3 DUP2 DUP5 DUP5 PUSH2 0x574 JUMP JUMPDEST POP POP POP JUMP JUMPDEST JUMPDEST DUP2 DUP2 LT ISZERO PUSH2 0x5D6 JUMPI PUSH2 0x5CB PUSH0 DUP3 PUSH2 0x5A0 JUMP JUMPDEST PUSH1 0x1 DUP2 ADD SWAP1 POP PUSH2 0x5B9 JUMP JUMPDEST POP POP JUMP JUMPDEST PUSH1 0x1F DUP3 GT ISZERO PUSH2 0x61B JUMPI PUSH2 0x5EC DUP2 PUSH2 0x4BA JUMP JUMPDEST PUSH2 0x5F5 DUP5 PUSH2 0x4CC JUMP JUMPDEST DUP2 ADD PUSH1 0x20 DUP6 LT ISZERO PUSH2 0x604 JUMPI DUP2 SWAP1 POP JUMPDEST PUSH2 0x618 PUSH2 0x610 DUP6 PUSH2 0x4CC JUMP JUMPDEST DUP4 ADD DUP3 PUSH2 0x5B8 JUMP JUMPDEST POP POP JUMPDEST POP POP POP JUMP JUMPDEST PUSH0 DUP3 DUP3 SHR SWAP1 POP SWAP3 SWAP2 POP POP JUMP JUMPDEST PUSH0 PUSH2 0x63B PUSH0 NOT DUP5 PUSH1 0x8 MUL PUSH2 0x620 JUMP JUMPDEST NOT DUP1 DUP4 AND SWAP2 POP POP SWAP3 SWAP2 POP POP JUMP JUMPDEST PUSH0 PUSH2 0x653 DUP4 DUP4 PUSH2 0x62C JUMP JUMPDEST SWAP2 POP DUP3 PUSH1 0x2 MUL DUP3 OR SWAP1 POP SWAP3 SWAP2 POP POP JUMP JUMPDEST PUSH2 0x66C DUP3 PUSH2 0x426 JUMP JUMPDEST PUSH8 0xFFFFFFFFFFFFFFFF DUP2 GT ISZERO PUSH2 0x685 JUMPI PUSH2 0x684 PUSH2 0x430 JUMP JUMPDEST JUMPDEST PUSH2 0x68F DUP3 SLOAD PUSH2 0x48A JUMP JUMPDEST PUSH2 0x69A DUP3 DUP3 DUP6 PUSH2 0x5DA JUMP JUMPDEST PUSH0 PUSH1 0x20 SWAP1 POP PUSH1 0x1F DUP4 GT PUSH1 0x1 DUP2 EQ PUSH2 0x6CB JUMPI PUSH0 DUP5 ISZERO PUSH2 0x6B9 JUMPI DUP3 DUP8 ADD MLOAD SWAP1 POP JUMPDEST PUSH2 0x6C3 DUP6 DUP3 PUSH2 0x648 JUMP JUMPDEST DUP7 SSTORE POP PUSH2 0x72A JUMP JUMPDEST PUSH1 0x1F NOT DUP5 AND PUSH2 0x6D9 DUP7 PUSH2 0x4BA JUMP JUMPDEST PUSH0 JUMPDEST DUP3 DUP2 LT ISZERO PUSH2 0x700 JUMPI DUP5 DUP10 ADD MLOAD DUP3 SSTORE PUSH1 0x1 DUP3 ADD SWAP2 POP PUSH1 0x20 DUP6 ADD SWAP5 POP PUSH1 0x20 DUP2 ADD SWAP1 POP PUSH2 0x6DB JUMP JUMPDEST DUP7 DUP4 LT ISZERO PUSH2 0x71D JUMPI DUP5 DUP10 ADD MLOAD PUSH2 0x719 PUSH1 0x1F DUP10 AND DUP3 PUSH2 0x62C JUMP JUMPDEST DUP4 SSTORE POP JUMPDEST PUSH1 0x1 PUSH1 0x2 DUP9 MUL ADD DUP9 SSTORE POP POP POP JUMPDEST POP POP POP POP POP POP JUMP JUMPDEST PUSH0 PUSH20 0xFFFFFFFFFFFFFFFFFFFFFFFFFFFFFFFFFFFFFFFF DUP3 AND SWAP1 POP SWAP2 SWAP1 POP JUMP JUMPDEST PUSH0 PUSH2 0x75B DUP3 PUSH2 0x732 JUMP JUMPDEST SWAP1 POP SWAP2 SWAP1 POP JUMP JUMPDEST PUSH2 0x76B DUP2 PUSH2 0x751 JUMP JUMPDEST DUP3 MSTORE POP POP JUMP JUMPDEST PUSH0 PUSH1 0x20 DUP3 ADD SWAP1 POP PUSH2 0x784 PUSH0 DUP4 ADD DUP5 PUSH2 0x762 JUMP JUMPDEST SWAP3 SWAP2 POP POP JUMP JUMPDEST PUSH32 0x4E487B7100000000000000000000000000000000000000000000000000000000 PUSH0 MSTORE PUSH1 0x11 PUSH1 0x4 MSTORE PUSH1 0x24 PUSH0 REVERT JUMPDEST PUSH0 PUSH2 0x7C1 DUP3 PUSH2 0x538 JUMP JUMPDEST SWAP2 POP PUSH2 0x7CC DUP4 PUSH2 0x538 JUMP JUMPDEST SWAP3 POP DUP3 DUP3 ADD SWAP1 POP DUP1 DUP3 GT ISZERO PUSH2 0x7E4 JUMPI PUSH2 0x7E3 PUSH2 0x78A JUMP JUMPDEST JUMPDEST SWAP3 SWAP2 POP POP JUMP JUMPDEST PUSH2 0x7F3 DUP2 PUSH2 0x538 JUMP JUMPDEST DUP3 MSTORE POP POP JUMP JUMPDEST PUSH0 PUSH1 0x60 DUP3 ADD SWAP1 POP PUSH2 0x80C PUSH0 DUP4 ADD DUP7 PUSH2 0x762 JUMP JUMPDEST PUSH2 0x819 PUSH1 0x20 DUP4 ADD DUP6 PUSH2 0x7EA JUMP JUMPDEST PUSH2 0x826 PUSH1 0x40 DUP4 ADD DUP5 PUSH2 0x7EA JUMP JUMPDEST SWAP5 SWAP4 POP POP POP POP JUMP JUMPDEST PUSH0 PUSH1 0x20 DUP3 ADD SWAP1 POP PUSH2 0x841 PUSH0 DUP4 ADD DUP5 PUSH2 0x7EA JUMP JUMPDEST SWAP3 SWAP2 POP POP JUMP JUMPDEST PUSH2 0x174B DUP1 PUSH2 0x854 PUSH0 CODECOPY PUSH0 RETURN INVALID PUSH1 0x80 PUSH1 0x40 MSTORE CALLVALUE DUP1 ISZERO PUSH2 0xF JUMPI PUSH0 PUSH0 REVERT JUMPDEST POP PUSH1 0x4 CALLDATASIZE LT PUSH2 0x109 JUMPI PUSH0 CALLDATALOAD PUSH1 0xE0 SHR DUP1 PUSH4 0x40C10F19 GT PUSH2 0xA0 JUMPI DUP1 PUSH4 0x95D89B41 GT PUSH2 0x6F JUMPI DUP1 PUSH4 0x95D89B41 EQ PUSH2 0x2A5 JUMPI DUP1 PUSH4 0xA9059CBB EQ PUSH2 0x2C3 JUMPI DUP1 PUSH4 0xB2E6B912 EQ PUSH2 0x2F3 JUMPI DUP1 PUSH4 0xDD62ED3E EQ PUSH2 0x311 JUMPI DUP1 PUSH4 0xEFB98BCF EQ PUSH2 0x341 JUMPI PUSH2 0x109 JUMP JUMPDEST DUP1 PUSH4 0x40C10F19 EQ PUSH2 0x21F JUMPI DUP1 PUSH4 0x70A08231 EQ PUSH2 0x23B JUMPI DUP1 PUSH4 0x8F283970 EQ PUSH2 0x26B JUMPI DUP1 PUSH4 0x95CFBF6D EQ PUSH2 0x287 JUMPI PUSH2 0x109 JUMP JUMPDEST DUP1 PUSH4 0x23B872DD GT PUSH2 0xDC JUMPI DUP1 PUSH4 0x23B872DD EQ PUSH2 0x197 JUMPI DUP1 PUSH4 0x2A905318 EQ PUSH2 0x1C7 JUMPI DUP1 PUSH4 0x313CE567 EQ PUSH2 0x1E5 JUMPI DUP1 PUSH4 0x3CC38F5C EQ PUSH2 0x203 JUMPI PUSH2 0x109 JUMP JUMPDEST DUP1 PUSH4 0x6FDDE03 EQ PUSH2 0x10D JUMPI DUP1 PUSH4 0x95EA7B3 EQ PUSH2 0x12B JUMPI DUP1 PUSH4 0x18160DDD EQ PUSH2 0x15B JUMPI DUP1 PUSH4 0x18821400 EQ PUSH2 0x179 JUMPI JUMPDEST PUSH0 PUSH0 REVERT JUMPDEST PUSH2 0x115 PUSH2 0x35F JUMP JUMPDEST PUSH1 0x40 MLOAD PUSH2 0x122 SWAP2 SWAP1 PUSH2 0x129B JUMP JUMPDEST PUSH1 0x40 MLOAD DUP1 SWAP2 SUB SWAP1 RETURN JUMPDEST PUSH2 0x145 PUSH1 0x4 DUP1 CALLDATASIZE SUB DUP2 ADD SWAP1 PUSH2 0x140 SWAP2 SWAP1 PUSH2 0x134C JUMP JUMPDEST PUSH2 0x3EF JUMP JUMPDEST PUSH1 0x40 MLOAD PUSH2 0x152 SWAP2 SWAP1 PUSH2 0x13A4 JUMP JUMPDEST PUSH1 0x40 MLOAD DUP1 SWAP2 SUB SWAP1 RETURN JUMPDEST PUSH2 0x163 PUSH2 0x411 JUMP JUMPDEST PUSH1 0x40 MLOAD PUSH2 0x170 SWAP2 SWAP1 PUSH2 0x13CC JUMP JUMPDEST PUSH1 0x40 MLOAD DUP1 SWAP2 SUB SWAP1 RETURN JUMPDEST PUSH2 0x181 PUSH2 0x41A JUMP JUMPDEST PUSH1 0x40 MLOAD PUSH2 0x18E SWAP2 SWAP1 PUSH2 0x129B JUMP JUMPDEST PUSH1 0x40 MLOAD DUP1 SWAP2 SUB SWAP1 RETURN JUMPDEST PUSH2 0x1B1 PUSH1 0x4 DUP1 CALLDATASIZE SUB DUP2 ADD SWAP1 PUSH2 0x1AC SWAP2 SWAP1 PUSH2 0x13E5 JUMP JUMPDEST PUSH2 0x453 JUMP JUMPDEST PUSH1 0x40 MLOAD PUSH2 0x1BE SWAP2 SWAP1 PUSH2 0x13A4 JUMP JUMPDEST PUSH1 0x40 MLOAD DUP1 SWAP2 SUB SWAP1 RETURN JUMPDEST PUSH2 0x1CF PUSH2 0x481 JUMP JUMPDEST PUSH1 0x40 MLOAD PUSH2 0x1DC SWAP2 SWAP1 PUSH2 0x129B JUMP JUMPDEST PUSH1 0x40 MLOAD DUP1 SWAP2 SUB SWAP1 RETURN JUMPDEST PUSH2 0x1ED PUSH2 0x4BA JUMP JUMPDEST PUSH1 0x40 MLOAD PUSH2 0x1FA SWAP2 SWAP1 PUSH2 0x1450 JUMP JUMPDEST PUSH1 0x40 MLOAD DUP1 SWAP2 SUB SWAP1 RETURN JUMPDEST PUSH2 0x21D PUSH1 0x4 DUP1 CALLDATASIZE SUB DUP2 ADD SWAP1 PUSH2 0x218 SWAP2 SWAP1 PUSH2 0x134C JUMP JUMPDEST PUSH2 0x4C2 JUMP JUMPDEST STOP JUMPDEST PUSH2 0x239 PUSH1 0x4 DUP1 CALLDATASIZE SUB DUP2 ADD SWAP1 PUSH2 0x234 SWAP2 SWAP1 PUSH2 0x134C JUMP JUMPDEST PUSH2 0x5F7 JUMP JUMPDEST STOP JUMPDEST PUSH2 0x255 PUSH1 0x4 DUP1 CALLDATASIZE SUB DUP2 ADD SWAP1 PUSH2 0x250 SWAP2 SWAP1 PUSH2 0x1469 JUMP JUMPDEST PUSH2 0x67A JUMP JUMPDEST PUSH1 0x40 MLOAD PUSH2 0x262 SWAP2 SWAP1 PUSH2 0x13CC JUMP JUMPDEST PUSH1 0x40 MLOAD DUP1 SWAP2 SUB SWAP1 RETURN JUMPDEST PUSH2 0x285 PUSH1 0x4 DUP1 CALLDATASIZE SUB DUP2 ADD SWAP1 PUSH2 0x280 SWAP2 SWAP1 PUSH2 0x1469 JUMP JUMPDEST PUSH2 0x6BF JUMP JUMPDEST STOP JUMPDEST PUSH2 0x28F PUSH2 0x7A5 JUMP JUMPDEST PUSH1 0x40 MLOAD PUSH2 0x29C SWAP2 SWAP1 PUSH2 0x129B JUMP JUMPDEST PUSH1 0x40 MLOAD DUP1 SWAP2 SUB SWAP1 RETURN JUMPDEST PUSH2 0x2AD PUSH2 0x7DE JUMP JUMPDEST PUSH1 0x40 MLOAD PUSH2 0x2BA SWAP2 SWAP1 PUSH2 0x129B JUMP JUMPDEST PUSH1 0x40 MLOAD DUP1 SWAP2 SUB SWAP1 RETURN JUMPDEST PUSH2 0x2DD PUSH1 0x4 DUP1 CALLDATASIZE SUB DUP2 ADD SWAP1 PUSH2 0x2D8 SWAP2 SWAP1 PUSH2 0x134C JUMP JUMPDEST PUSH2 0x86E JUMP JUMPDEST PUSH1 0x40 MLOAD PUSH2 0x2EA SWAP2 SWAP1 PUSH2 0x13A4 JUMP JUMPDEST PUSH1 0x40 MLOAD DUP1 SWAP2 SUB SWAP1 RETURN JUMPDEST PUSH2 0x2FB PUSH2 0x890 JUMP JUMPDEST PUSH1 0x40 MLOAD PUSH2 0x308 SWAP2 SWAP1 PUSH2 0x14A3 JUMP JUMPDEST PUSH1 0x40 MLOAD DUP1 SWAP2 SUB SWAP1 RETURN JUMPDEST PUSH2 0x32B PUSH1 0x4 DUP1 CALLDATASIZE SUB DUP2 ADD SWAP1 PUSH2 0x326 SWAP2 SWAP1 PUSH2 0x14BC JUMP JUMPDEST PUSH2 0x89E JUMP JUMPDEST PUSH1 0x40 MLOAD PUSH2 0x338 SWAP2 SWAP1 PUSH2 0x13CC JUMP JUMPDEST PUSH1 0x40 MLOAD DUP1 SWAP2 SUB SWAP1 RETURN JUMPDEST PUSH2 0x349 PUSH2 0x920 JUMP JUMPDEST PUSH1 0x40 MLOAD PUSH2 0x356 SWAP2 SWAP1 PUSH2 0x13CC JUMP JUMPDEST PUSH1 0x40 MLOAD DUP1 SWAP2 SUB SWAP1 RETURN JUMPDEST PUSH1 0x60 PUSH1 0x3 DUP1 SLOAD PUSH2 0x36E SWAP1 PUSH2 0x1527 JUMP JUMPDEST DUP1 PUSH1 0x1F ADD PUSH1 0x20 DUP1 SWAP2 DIV MUL PUSH1 0x20 ADD PUSH1 0x40 MLOAD SWAP1 DUP2 ADD PUSH1 0x40 MSTORE DUP1 SWAP3 SWAP2 SWAP1 DUP2 DUP2 MSTORE PUSH1 0x20 ADD DUP3 DUP1 SLOAD PUSH2 0x39A SWAP1 PUSH2 0x1527 JUMP JUMPDEST DUP1 ISZERO PUSH2 0x3E5 JUMPI DUP1 PUSH1 0x1F LT PUSH2 0x3BC JUMPI PUSH2 0x100 DUP1 DUP4 SLOAD DIV MUL DUP4 MSTORE SWAP2 PUSH1 0x20 ADD SWAP2 PUSH2 0x3E5 JUMP JUMPDEST DUP3 ADD SWAP2 SWAP1 PUSH0 MSTORE PUSH1 0x20 PUSH0 KECCAK256 SWAP1 JUMPDEST DUP2 SLOAD DUP2 MSTORE SWAP1 PUSH1 0x1 ADD SWAP1 PUSH1 0x20 ADD DUP1 DUP4 GT PUSH2 0x3C8 JUMPI DUP3 SWAP1 SUB PUSH1 0x1F AND DUP3 ADD SWAP2 JUMPDEST POP POP POP POP POP SWAP1 POP SWAP1 JUMP JUMPDEST PUSH0 PUSH0 PUSH2 0x3F9 PUSH2 0xA20 JUMP JUMPDEST SWAP1 POP PUSH2 0x406 DUP2 DUP6 DUP6 PUSH2 0xA27 JUMP JUMPDEST PUSH1 0x1 SWAP2 POP POP SWAP3 SWAP2 POP POP JUMP JUMPDEST PUSH0 PUSH1 0x2 SLOAD SWAP1 POP SWAP1 JUMP JUMPDEST PUSH1 0x40 MLOAD DUP1 PUSH1 0x40 ADD PUSH1 0x40 MSTORE DUP1 PUSH1 0x5 DUP2 MSTORE PUSH1 0x20 ADD PUSH32 0x4E455A4841000000000000000000000000000000000000000000000000000000 DUP2 MSTORE POP DUP2 JUMP JUMPDEST PUSH0 PUSH0 PUSH2 0x45D PUSH2 0xA20 JUMP JUMPDEST SWAP1 POP PUSH2 0x46A DUP6 DUP3 DUP6 PUSH2 0xA39 JUMP JUMPDEST PUSH2 0x475 DUP6 DUP6 DUP6 PUSH2 0xACC JUMP JUMPDEST PUSH1 0x1 SWAP2 POP POP SWAP4 SWAP3 POP POP POP JUMP JUMPDEST PUSH1 0x40 MLOAD DUP1 PUSH1 0x40 ADD PUSH1 0x40 MSTORE DUP1 PUSH1 0x2 DUP2 MSTORE PUSH1 0x20 ADD PUSH32 0x4E5A000000000000000000000000000000000000000000000000000000000000 DUP2 MSTORE POP DUP2 JUMP JUMPDEST PUSH0 PUSH1 0x12 SWAP1 POP SWAP1 JUMP JUMPDEST PUSH2 0x4CA PUSH2 0xBBC JUMP JUMPDEST PUSH20 0xFFFFFFFFFFFFFFFFFFFFFFFFFFFFFFFFFFFFFFFF AND CALLER PUSH20 0xFFFFFFFFFFFFFFFFFFFFFFFFFFFFFFFFFFFFFFFF AND EQ PUSH2 0x537 JUMPI PUSH1 0x40 MLOAD PUSH32 0xA2A9E3E00000000000000000000000000000000000000000000000000000000 DUP2 MSTORE PUSH1 0x4 ADD PUSH2 0x52E SWAP1 PUSH2 0x15A1 JUMP JUMPDEST PUSH1 0x40 MLOAD DUP1 SWAP2 SUB SWAP1 REVERT JUMPDEST PUSH0 PUSH20 0xFFFFFFFFFFFFFFFFFFFFFFFFFFFFFFFFFFFFFFFF AND DUP3 PUSH20 0xFFFFFFFFFFFFFFFFFFFFFFFFFFFFFFFFFFFFFFFF AND SUB PUSH2 0x59C JUMPI PUSH1 0x40 MLOAD PUSH32 0x5BB7A72300000000000000000000000000000000000000000000000000000000 DUP2 MSTORE PUSH1 0x4 ADD PUSH1 0x40 MLOAD DUP1 SWAP2 SUB SWAP1 REVERT JUMPDEST PUSH0 DUP2 SUB PUSH2 0x5D5 JUMPI PUSH1 0x40 MLOAD PUSH32 0xE16A8AA400000000000000000000000000000000000000000000000000000000 DUP2 MSTORE PUSH1 0x4 ADD PUSH1 0x40 MLOAD DUP1 SWAP2 SUB SWAP1 REVERT JUMPDEST PUSH0 PUSH2 0x5DF DUP4 PUSH2 0xC2A JUMP JUMPDEST SWAP1 POP TIMESTAMP DUP2 PUSH0 ADD DUP2 SWAP1 SSTORE POP DUP2 DUP2 PUSH1 0x1 ADD DUP2 SWAP1 SSTORE POP POP POP POP JUMP JUMPDEST PUSH2 0x5FF PUSH2 0xBBC JUMP JUMPDEST PUSH20 0xFFFFFFFFFFFFFFFFFFFFFFFFFFFFFFFFFFFFFFFF AND CALLER PUSH20 0xFFFFFFFFFFFFFFFFFFFFFFFFFFFFFFFFFFFFFFFF AND EQ PUSH2 0x66C JUMPI PUSH1 0x40 MLOAD PUSH32 0xA2A9E3E00000000000000000000000000000000000000000000000000000000 DUP2 MSTORE PUSH1 0x4 ADD PUSH2 0x663 SWAP1 PUSH2 0x15A1 JUMP JUMPDEST PUSH1 0x40 MLOAD DUP1 SWAP2 SUB SWAP1 REVERT JUMPDEST PUSH2 0x676 DUP3 DUP3 PUSH2 0xC8F JUMP JUMPDEST POP POP JUMP JUMPDEST PUSH0 PUSH0 PUSH0 DUP4 PUSH20 0xFFFFFFFFFFFFFFFFFFFFFFFFFFFFFFFFFFFFFFFF AND PUSH20 0xFFFFFFFFFFFFFFFFFFFFFFFFFFFFFFFFFFFFFFFF AND DUP2 MSTORE PUSH1 0x20 ADD SWAP1 DUP2 MSTORE PUSH1 0x20 ADD PUSH0 KECCAK256 SLOAD SWAP1 POP SWAP2 SWAP1 POP JUMP JUMPDEST PUSH2 0x6C7 PUSH2 0xBBC JUMP JUMPDEST PUSH20 0xFFFFFFFFFFFFFFFFFFFFFFFFFFFFFFFFFFFFFFFF AND CALLER PUSH20 0xFFFFFFFFFFFFFFFFFFFFFFFFFFFFFFFFFFFFFFFF AND EQ PUSH2 0x734 JUMPI PUSH1 0x40 MLOAD PUSH32 0xA2A9E3E00000000000000000000000000000000000000000000000000000000 DUP2 MSTORE PUSH1 0x4 ADD PUSH2 0x72B SWAP1 PUSH2 0x15A1 JUMP JUMPDEST PUSH1 0x40 MLOAD DUP1 SWAP2 SUB SWAP1 REVERT JUMPDEST PUSH0 PUSH20 0xFFFFFFFFFFFFFFFFFFFFFFFFFFFFFFFFFFFFFFFF AND DUP2 PUSH20 0xFFFFFFFFFFFFFFFFFFFFFFFFFFFFFFFFFFFFFFFF AND SUB PUSH2 0x799 JUMPI PUSH1 0x40 MLOAD PUSH32 0x5BB7A72300000000000000000000000000000000000000000000000000000000 DUP2 MSTORE PUSH1 0x4 ADD PUSH1 0x40 MLOAD DUP1 SWAP2 SUB SWAP1 REVERT JUMPDEST PUSH2 0x7A2 DUP2 PUSH2 0xD0E JUMP JUMPDEST POP JUMP JUMPDEST PUSH1 0x40 MLOAD DUP1 PUSH1 0x40 ADD PUSH1 0x40 MSTORE DUP1 PUSH1 0x19 DUP2 MSTORE PUSH1 0x20 ADD PUSH32 0x4772616E7450726976696C656765732E4E616D65737061636500000000000000 DUP2 MSTORE POP DUP2 JUMP JUMPDEST PUSH1 0x60 PUSH1 0x4 DUP1 SLOAD PUSH2 0x7ED SWAP1 PUSH2 0x1527 JUMP JUMPDEST DUP1 PUSH1 0x1F ADD PUSH1 0x20 DUP1 SWAP2 DIV MUL PUSH1 0x20 ADD PUSH1 0x40 MLOAD SWAP1 DUP2 ADD PUSH1 0x40 MSTORE DUP1 SWAP3 SWAP2 SWAP1 DUP2 DUP2 MSTORE PUSH1 0x20 ADD DUP3 DUP1 SLOAD PUSH2 0x819 SWAP1 PUSH2 0x1527 JUMP JUMPDEST DUP1 ISZERO PUSH2 0x864 JUMPI DUP1 PUSH1 0x1F LT PUSH2 0x83B JUMPI PUSH2 0x100 DUP1 DUP4 SLOAD DIV MUL DUP4 MSTORE SWAP2 PUSH1 0x20 ADD SWAP2 PUSH2 0x864 JUMP JUMPDEST DUP3 ADD SWAP2 SWAP1 PUSH0 MSTORE PUSH1 0x20 PUSH0 KECCAK256 SWAP1 JUMPDEST DUP2 SLOAD DUP2 MSTORE SWAP1 PUSH1 0x1 ADD SWAP1 PUSH1 0x20 ADD DUP1 DUP4 GT PUSH2 0x847 JUMPI DUP3 SWAP1 SUB PUSH1 0x1F AND DUP3 ADD SWAP2 JUMPDEST POP POP POP POP POP SWAP1 POP SWAP1 JUMP JUMPDEST PUSH0 PUSH0 PUSH2 0x878 PUSH2 0xA20 JUMP JUMPDEST SWAP1 POP PUSH2 0x885 DUP2 DUP6 DUP6 PUSH2 0xACC JUMP JUMPDEST PUSH1 0x1 SWAP2 POP POP SWAP3 SWAP2 POP POP JUMP JUMPDEST PUSH0 PUSH2 0x899 PUSH2 0xBBC JUMP JUMPDEST SWAP1 POP SWAP1 JUMP JUMPDEST PUSH0 PUSH1 0x1 PUSH0 DUP5 PUSH20 0xFFFFFFFFFFFFFFFFFFFFFFFFFFFFFFFFFFFFFFFF AND PUSH20 0xFFFFFFFFFFFFFFFFFFFFFFFFFFFFFFFFFFFFFFFF AND DUP2 MSTORE PUSH1 0x20 ADD SWAP1 DUP2 MSTORE PUSH1 0x20 ADD PUSH0 KECCAK256 PUSH0 DUP4 PUSH20 0xFFFFFFFFFFFFFFFFFFFFFFFFFFFFFFFFFFFFFFFF AND PUSH20 0xFFFFFFFFFFFFFFFFFFFFFFFFFFFFFFFFFFFFFFFF AND DUP2 MSTORE PUSH1 0x20 ADD SWAP1 DUP2 MSTORE PUSH1 0x20 ADD PUSH0 KECCAK256 SLOAD SWAP1 POP SWAP3 SWAP2 POP POP JUMP JUMPDEST PUSH0 PUSH2 0x929 PUSH2 0xBBC JUMP JUMPDEST PUSH20 0xFFFFFFFFFFFFFFFFFFFFFFFFFFFFFFFFFFFFFFFF AND CALLER PUSH20 0xFFFFFFFFFFFFFFFFFFFFFFFFFFFFFFFFFFFFFFFF AND EQ ISZERO DUP1 ISZERO PUSH2 0x96A JUMPI POP PUSH2 0x968 CALLER PUSH2 0xD97 JUMP JUMPDEST ISZERO JUMPDEST ISZERO PUSH2 0x9AA JUMPI PUSH1 0x40 MLOAD PUSH32 0x5E9B54E100000000000000000000000000000000000000000000000000000000 DUP2 MSTORE PUSH1 0x4 ADD PUSH2 0x9A1 SWAP1 PUSH2 0x162F JUMP JUMPDEST PUSH1 0x40 MLOAD DUP1 SWAP2 SUB SWAP1 REVERT JUMPDEST PUSH0 PUSH2 0x9B4 CALLER PUSH2 0xC2A JUMP JUMPDEST SWAP1 POP PUSH0 DUP2 PUSH0 ADD SLOAD SWAP1 POP PUSH0 DUP3 PUSH1 0x1 ADD SLOAD SWAP1 POP PUSH0 DUP3 EQ DUP1 PUSH2 0x9D2 JUMPI POP PUSH0 DUP2 EQ JUMPDEST ISZERO PUSH2 0x9E2 JUMPI PUSH0 SWAP4 POP POP POP POP PUSH2 0xA1D JUMP JUMPDEST TIMESTAMP DUP2 DUP4 PUSH2 0x9EF SWAP2 SWAP1 PUSH2 0x167A JUMP JUMPDEST LT ISZERO PUSH2 0xA00 JUMPI PUSH0 SWAP4 POP POP POP POP PUSH2 0xA1D JUMP JUMPDEST TIMESTAMP DUP2 DUP4 PUSH2 0xA0D SWAP2 SWAP1 PUSH2 0x167A JUMP JUMPDEST PUSH2 0xA17 SWAP2 SWAP1 PUSH2 0x16AD JUMP JUMPDEST SWAP4 POP POP POP POP JUMPDEST SWAP1 JUMP JUMPDEST PUSH0 CALLER SWAP1 POP SWAP1 JUMP JUMPDEST PUSH2 0xA34 DUP4 DUP4 DUP4 PUSH1 0x1 PUSH2 0xDFB JUMP JUMPDEST POP POP POP JUMP JUMPDEST PUSH0 PUSH2 0xA44 DUP5 DUP5 PUSH2 0x89E JUMP JUMPDEST SWAP1 POP PUSH32 0xFFFFFFFFFFFFFFFFFFFFFFFFFFFFFFFFFFFFFFFFFFFFFFFFFFFFFFFFFFFFFFFF DUP2 LT ISZERO PUSH2 0xAC6 JUMPI DUP2 DUP2 LT ISZERO PUSH2 0xAB7 JUMPI DUP3 DUP2 DUP4 PUSH1 0x40 MLOAD PUSH32 0xFB8F41B200000000000000000000000000000000000000000000000000000000 DUP2 MSTORE PUSH1 0x4 ADD PUSH2 0xAAE SWAP4 SWAP3 SWAP2 SWAP1 PUSH2 0x16E0 JUMP JUMPDEST PUSH1 0x40 MLOAD DUP1 SWAP2 SUB SWAP1 REVERT JUMPDEST PUSH2 0xAC5 DUP5 DUP5 DUP5 DUP5 SUB PUSH0 PUSH2 0xDFB JUMP JUMPDEST JUMPDEST POP POP POP POP JUMP JUMPDEST PUSH0 PUSH20 0xFFFFFFFFFFFFFFFFFFFFFFFFFFFFFFFFFFFFFFFF AND DUP4 PUSH20 0xFFFFFFFFFFFFFFFFFFFFFFFFFFFFFFFFFFFFFFFF AND SUB PUSH2 0xB3C JUMPI PUSH0 PUSH1 0x40 MLOAD PUSH32 0x96C6FD1E00000000000000000000000000000000000000000000000000000000 DUP2 MSTORE PUSH1 0x4 ADD PUSH2 0xB33 SWAP2 SWAP1 PUSH2 0x14A3 JUMP JUMPDEST PUSH1 0x40 MLOAD DUP1 SWAP2 SUB SWAP1 REVERT JUMPDEST PUSH0 PUSH20 0xFFFFFFFFFFFFFFFFFFFFFFFFFFFFFFFFFFFFFFFF AND DUP3 PUSH20 0xFFFFFFFFFFFFFFFFFFFFFFFFFFFFFFFFFFFFFFFF AND SUB PUSH2 0xBAC JUMPI PUSH0 PUSH1 0x40 MLOAD PUSH32 0xEC442F0500000000000000000000000000000000000000000000000000000000 DUP2 MSTORE PUSH1 0x4 ADD PUSH2 0xBA3 SWAP2 SWAP1 PUSH2 0x14A3 JUMP JUMPDEST PUSH1 0x40 MLOAD DUP1 SWAP2 SUB SWAP1 REVERT JUMPDEST PUSH2 0xBB7 DUP4 DUP4 DUP4 PUSH2 0xFCA JUMP JUMPDEST POP POP POP JUMP JUMPDEST PUSH0 PUSH2 0xC03 PUSH2 0xBFE PUSH1 0x40 MLOAD DUP1 PUSH1 0x40 ADD PUSH1 0x40 MSTORE DUP1 PUSH1 0x1C DUP2 MSTORE PUSH1 0x20 ADD PUSH32 0x4772616E7450726976696C656765732E61646D696E4164647265737300000000 DUP2 MSTORE POP PUSH2 0x11E3 JUMP JUMPDEST PUSH2 0x11FF JUMP JUMPDEST PUSH0 ADD PUSH0 SWAP1 SLOAD SWAP1 PUSH2 0x100 EXP SWAP1 DIV PUSH20 0xFFFFFFFFFFFFFFFFFFFFFFFFFFFFFFFFFFFFFFFF AND SWAP1 POP SWAP1 JUMP JUMPDEST PUSH0 PUSH0 PUSH2 0xC7C DUP4 PUSH2 0xC6E PUSH1 0x40 MLOAD DUP1 PUSH1 0x40 ADD PUSH1 0x40 MSTORE DUP1 PUSH1 0x19 DUP2 MSTORE PUSH1 0x20 ADD PUSH32 0x4772616E7450726976696C656765732E4E616D65737061636500000000000000 DUP2 MSTORE POP PUSH2 0x11E3 JUMP JUMPDEST PUSH2 0x1208 SWAP1 SWAP2 SWAP1 PUSH4 0xFFFFFFFF AND JUMP JUMPDEST SWAP1 POP PUSH2 0xC87 DUP2 PUSH2 0x1222 JUMP JUMPDEST SWAP2 POP POP SWAP2 SWAP1 POP JUMP JUMPDEST PUSH0 PUSH20 0xFFFFFFFFFFFFFFFFFFFFFFFFFFFFFFFFFFFFFFFF AND DUP3 PUSH20 0xFFFFFFFFFFFFFFFFFFFFFFFFFFFFFFFFFFFFFFFF AND SUB PUSH2 0xCFF JUMPI PUSH0 PUSH1 0x40 MLOAD PUSH32 0xEC442F0500000000000000000000000000000000000000000000000000000000 DUP2 MSTORE PUSH1 0x4 ADD PUSH2 0xCF6 SWAP2 SWAP1 PUSH2 0x14A3 JUMP JUMPDEST PUSH1 0x40 MLOAD DUP1 SWAP2 SUB SWAP1 REVERT JUMPDEST PUSH2 0xD0A PUSH0 DUP4 DUP4 PUSH2 0xFCA JUMP JUMPDEST POP POP JUMP JUMPDEST DUP1 PUSH2 0xD55 PUSH2 0xD50 PUSH1 0x40 MLOAD DUP1 PUSH1 0x40 ADD PUSH1 0x40 MSTORE DUP1 PUSH1 0x1C DUP2 MSTORE PUSH1 0x20 ADD PUSH32 0x4772616E7450726976696C656765732E61646D696E4164647265737300000000 DUP2 MSTORE POP PUSH2 0x11E3 JUMP JUMPDEST PUSH2 0x11FF JUMP JUMPDEST PUSH0 ADD PUSH0 PUSH2 0x100 EXP DUP2 SLOAD DUP2 PUSH20 0xFFFFFFFFFFFFFFFFFFFFFFFFFFFFFFFFFFFFFFFF MUL NOT AND SWAP1 DUP4 PUSH20 0xFFFFFFFFFFFFFFFFFFFFFFFFFFFFFFFFFFFFFFFF AND MUL OR SWAP1 SSTORE POP POP JUMP JUMPDEST PUSH0 PUSH0 PUSH2 0xDA2 DUP4 PUSH2 0xC2A JUMP JUMPDEST SWAP1 POP PUSH0 DUP2 PUSH0 ADD SLOAD SWAP1 POP PUSH0 DUP3 PUSH1 0x1 ADD SLOAD SWAP1 POP PUSH0 DUP3 EQ DUP1 PUSH2 0xDC0 JUMPI POP PUSH0 DUP2 EQ JUMPDEST ISZERO PUSH2 0xDD0 JUMPI PUSH0 SWAP4 POP POP POP POP PUSH2 0xDF6 JUMP JUMPDEST DUP1 DUP3 PUSH2 0xDDC SWAP2 SWAP1 PUSH2 0x167A JUMP JUMPDEST TIMESTAMP GT ISZERO PUSH2 0xDEE JUMPI PUSH0 SWAP4 POP POP POP POP PUSH2 0xDF6 JUMP JUMPDEST PUSH1 0x1 SWAP4 POP POP POP POP JUMPDEST SWAP2 SWAP1 POP JUMP JUMPDEST PUSH0 PUSH20 0xFFFFFFFFFFFFFFFFFFFFFFFFFFFFFFFFFFFFFFFF AND DUP5 PUSH20 0xFFFFFFFFFFFFFFFFFFFFFFFFFFFFFFFFFFFFFFFF AND SUB PUSH2 0xE6B JUMPI PUSH0 PUSH1 0x40 MLOAD PUSH32 0xE602DF0500000000000000000000000000000000000000000000000000000000 DUP2 MSTORE PUSH1 0x4 ADD PUSH2 0xE62 SWAP2 SWAP1 PUSH2 0x14A3 JUMP JUMPDEST PUSH1 0x40 MLOAD DUP1 SWAP2 SUB SWAP1 REVERT JUMPDEST PUSH0 PUSH20 0xFFFFFFFFFFFFFFFFFFFFFFFFFFFFFFFFFFFFFFFF AND DUP4 PUSH20 0xFFFFFFFFFFFFFFFFFFFFFFFFFFFFFFFFFFFFFFFF AND SUB PUSH2 0xEDB JUMPI PUSH0 PUSH1 0x40 MLOAD PUSH32 0x94280D6200000000000000000000000000000000000000000000000000000000 DUP2 MSTORE PUSH1 0x4 ADD PUSH2 0xED2 SWAP2 SWAP1 PUSH2 0x14A3 JUMP JUMPDEST PUSH1 0x40 MLOAD DUP1 SWAP2 SUB SWAP1 REVERT JUMPDEST DUP2 PUSH1 0x1 PUSH0 DUP7 PUSH20 0xFFFFFFFFFFFFFFFFFFFFFFFFFFFFFFFFFFFFFFFF AND PUSH20 0xFFFFFFFFFFFFFFFFFFFFFFFFFFFFFFFFFFFFFFFF AND DUP2 MSTORE PUSH1 0x20 ADD SWAP1 DUP2 MSTORE PUSH1 0x20 ADD PUSH0 KECCAK256 PUSH0 DUP6 PUSH20 0xFFFFFFFFFFFFFFFFFFFFFFFFFFFFFFFFFFFFFFFF AND PUSH20 0xFFFFFFFFFFFFFFFFFFFFFFFFFFFFFFFFFFFFFFFF AND DUP2 MSTORE PUSH1 0x20 ADD SWAP1 DUP2 MSTORE PUSH1 0x20 ADD PUSH0 KECCAK256 DUP2 SWAP1 SSTORE POP DUP1 ISZERO PUSH2 0xFC4 JUMPI DUP3 PUSH20 0xFFFFFFFFFFFFFFFFFFFFFFFFFFFFFFFFFFFFFFFF AND DUP5 PUSH20 0xFFFFFFFFFFFFFFFFFFFFFFFFFFFFFFFFFFFFFFFF AND PUSH32 0x8C5BE1E5EBEC7D5BD14F71427D1E84F3DD0314C0F7B2291E5B200AC8C7C3B925 DUP5 PUSH1 0x40 MLOAD PUSH2 0xFBB SWAP2 SWAP1 PUSH2 0x13CC JUMP JUMPDEST PUSH1 0x40 MLOAD DUP1 SWAP2 SUB SWAP1 LOG3 JUMPDEST POP POP POP POP JUMP JUMPDEST PUSH0 PUSH20 0xFFFFFFFFFFFFFFFFFFFFFFFFFFFFFFFFFFFFFFFF AND DUP4 PUSH20 0xFFFFFFFFFFFFFFFFFFFFFFFFFFFFFFFFFFFFFFFF AND SUB PUSH2 0x101A JUMPI DUP1 PUSH1 0x2 PUSH0 DUP3 DUP3 SLOAD PUSH2 0x100E SWAP2 SWAP1 PUSH2 0x167A JUMP JUMPDEST SWAP3 POP POP DUP2 SWAP1 SSTORE POP PUSH2 0x10E8 JUMP JUMPDEST PUSH0 PUSH0 PUSH0 DUP6 PUSH20 0xFFFFFFFFFFFFFFFFFFFFFFFFFFFFFFFFFFFFFFFF AND PUSH20 0xFFFFFFFFFFFFFFFFFFFFFFFFFFFFFFFFFFFFFFFF AND DUP2 MSTORE PUSH1 0x20 ADD SWAP1 DUP2 MSTORE PUSH1 0x20 ADD PUSH0 KECCAK256 SLOAD SWAP1 POP DUP2 DUP2 LT ISZERO PUSH2 0x10A3 JUMPI DUP4 DUP2 DUP4 PUSH1 0x40 MLOAD PUSH32 0xE450D38C00000000000000000000000000000000000000000000000000000000 DUP2 MSTORE PUSH1 0x4 ADD PUSH2 0x109A SWAP4 SWAP3 SWAP2 SWAP1 PUSH2 0x16E0 JUMP JUMPDEST PUSH1 0x40 MLOAD DUP1 SWAP2 SUB SWAP1 REVERT JUMPDEST DUP2 DUP2 SUB PUSH0 PUSH0 DUP7 PUSH20 0xFFFFFFFFFFFFFFFFFFFFFFFFFFFFFFFFFFFFFFFF AND PUSH20 0xFFFFFFFFFFFFFFFFFFFFFFFFFFFFFFFFFFFFFFFF AND DUP2 MSTORE PUSH1 0x20 ADD SWAP1 DUP2 MSTORE PUSH1 0x20 ADD PUSH0 KECCAK256 DUP2 SWAP1 SSTORE POP POP JUMPDEST PUSH0 PUSH20 0xFFFFFFFFFFFFFFFFFFFFFFFFFFFFFFFFFFFFFFFF AND DUP3 PUSH20 0xFFFFFFFFFFFFFFFFFFFFFFFFFFFFFFFFFFFFFFFF AND SUB PUSH2 0x112F JUMPI DUP1 PUSH1 0x2 PUSH0 DUP3 DUP3 SLOAD SUB SWAP3 POP POP DUP2 SWAP1 SSTORE POP PUSH2 0x1179 JUMP JUMPDEST DUP1 PUSH0 PUSH0 DUP5 PUSH20 0xFFFFFFFFFFFFFFFFFFFFFFFFFFFFFFFFFFFFFFFF AND PUSH20 0xFFFFFFFFFFFFFFFFFFFFFFFFFFFFFFFFFFFFFFFF AND DUP2 MSTORE PUSH1 0x20 ADD SWAP1 DUP2 MSTORE PUSH1 0x20 ADD PUSH0 KECCAK256 PUSH0 DUP3 DUP3 SLOAD ADD SWAP3 POP POP DUP2 SWAP1 SSTORE POP JUMPDEST DUP2 PUSH20 0xFFFFFFFFFFFFFFFFFFFFFFFFFFFFFFFFFFFFFFFF AND DUP4 PUSH20 0xFFFFFFFFFFFFFFFFFFFFFFFFFFFFFFFFFFFFFFFF AND PUSH32 0xDDF252AD1BE2C89B69C2B068FC378DAA952BA7F163C4A11628F55A4DF523B3EF DUP4 PUSH1 0x40 MLOAD PUSH2 0x11D6 SWAP2 SWAP1 PUSH2 0x13CC JUMP JUMPDEST PUSH1 0x40 MLOAD DUP1 SWAP2 SUB SWAP1 LOG3 POP POP POP JUMP JUMPDEST PUSH0 PUSH1 0x1 DUP3 MLOAD PUSH1 0x20 DUP5 ADD KECCAK256 SUB PUSH0 MSTORE PUSH1 0xFF NOT PUSH1 0x20 PUSH0 KECCAK256 AND SWAP1 POP SWAP2 SWAP1 POP JUMP JUMPDEST PUSH0 DUP2 SWAP1 POP SWAP2 SWAP1 POP JUMP JUMPDEST PUSH0 PUSH0 NOT PUSH1 0x60 SHR DUP3 AND PUSH0 MSTORE DUP3 PUSH1 0x20 MSTORE PUSH1 0x40 PUSH0 KECCAK256 SWAP1 POP SWAP3 SWAP2 POP POP JUMP JUMPDEST PUSH0 DUP2 SWAP1 POP SWAP2 SWAP1 POP JUMP JUMPDEST PUSH0 DUP2 MLOAD SWAP1 POP SWAP2 SWAP1 POP JUMP JUMPDEST PUSH0 DUP3 DUP3 MSTORE PUSH1 0x20 DUP3 ADD SWAP1 POP SWAP3 SWAP2 POP POP JUMP JUMPDEST DUP3 DUP2 DUP4 MCOPY PUSH0 DUP4 DUP4 ADD MSTORE POP POP POP JUMP JUMPDEST PUSH0 PUSH1 0x1F NOT PUSH1 0x1F DUP4 ADD AND SWAP1 POP SWAP2 SWAP1 POP JUMP JUMPDEST PUSH0 PUSH2 0x126D DUP3 PUSH2 0x122B JUMP JUMPDEST PUSH2 0x1277 DUP2 DUP6 PUSH2 0x1235 JUMP JUMPDEST SWAP4 POP PUSH2 0x1287 DUP2 DUP6 PUSH1 0x20 DUP7 ADD PUSH2 0x1245 JUMP JUMPDEST PUSH2 0x1290 DUP2 PUSH2 0x1253 JUMP JUMPDEST DUP5 ADD SWAP2 POP POP SWAP3 SWAP2 POP POP JUMP JUMPDEST PUSH0 PUSH1 0x20 DUP3 ADD SWAP1 POP DUP2 DUP2 SUB PUSH0 DUP4 ADD MSTORE PUSH2 0x12B3 DUP2 DUP5 PUSH2 0x1263 JUMP JUMPDEST SWAP1 POP SWAP3 SWAP2 POP POP JUMP JUMPDEST PUSH0 PUSH0 REVERT JUMPDEST PUSH0 PUSH20 0xFFFFFFFFFFFFFFFFFFFFFFFFFFFFFFFFFFFFFFFF DUP3 AND SWAP1 POP SWAP2 SWAP1 POP JUMP JUMPDEST PUSH0 PUSH2 0x12E8 DUP3 PUSH2 0x12BF JUMP JUMPDEST SWAP1 POP SWAP2 SWAP1 POP JUMP JUMPDEST PUSH2 0x12F8 DUP2 PUSH2 0x12DE JUMP JUMPDEST DUP2 EQ PUSH2 0x1302 JUMPI PUSH0 PUSH0 REVERT JUMPDEST POP JUMP JUMPDEST PUSH0 DUP2 CALLDATALOAD SWAP1 POP PUSH2 0x1313 DUP2 PUSH2 0x12EF JUMP JUMPDEST SWAP3 SWAP2 POP POP JUMP JUMPDEST PUSH0 DUP2 SWAP1 POP SWAP2 SWAP1 POP JUMP JUMPDEST PUSH2 0x132B DUP2 PUSH2 0x1319 JUMP JUMPDEST DUP2 EQ PUSH2 0x1335 JUMPI PUSH0 PUSH0 REVERT JUMPDEST POP JUMP JUMPDEST PUSH0 DUP2 CALLDATALOAD SWAP1 POP PUSH2 0x1346 DUP2 PUSH2 0x1322 JUMP JUMPDEST SWAP3 SWAP2 POP POP JUMP JUMPDEST PUSH0 PUSH0 PUSH1 0x40 DUP4 DUP6 SUB SLT ISZERO PUSH2 0x1362 JUMPI PUSH2 0x1361 PUSH2 0x12BB JUMP JUMPDEST JUMPDEST PUSH0 PUSH2 0x136F DUP6 DUP3 DUP7 ADD PUSH2 0x1305 JUMP JUMPDEST SWAP3 POP POP PUSH1 0x20 PUSH2 0x1380 DUP6 DUP3 DUP7 ADD PUSH2 0x1338 JUMP JUMPDEST SWAP2 POP POP SWAP3 POP SWAP3 SWAP1 POP JUMP JUMPDEST PUSH0 DUP2 ISZERO ISZERO SWAP1 POP SWAP2 SWAP1 POP JUMP JUMPDEST PUSH2 0x139E DUP2 PUSH2 0x138A JUMP JUMPDEST DUP3 MSTORE POP POP JUMP JUMPDEST PUSH0 PUSH1 0x20 DUP3 ADD SWAP1 POP PUSH2 0x13B7 PUSH0 DUP4 ADD DUP5 PUSH2 0x1395 JUMP JUMPDEST SWAP3 SWAP2 POP POP JUMP JUMPDEST PUSH2 0x13C6 DUP2 PUSH2 0x1319 JUMP JUMPDEST DUP3 MSTORE POP POP JUMP JUMPDEST PUSH0 PUSH1 0x20 DUP3 ADD SWAP1 POP PUSH2 0x13DF PUSH0 DUP4 ADD DUP5 PUSH2 0x13BD JUMP JUMPDEST SWAP3 SWAP2 POP POP JUMP JUMPDEST PUSH0 PUSH0 PUSH0 PUSH1 0x60 DUP5 DUP7 SUB SLT ISZERO PUSH2 0x13FC JUMPI PUSH2 0x13FB PUSH2 0x12BB JUMP JUMPDEST JUMPDEST PUSH0 PUSH2 0x1409 DUP7 DUP3 DUP8 ADD PUSH2 0x1305 JUMP JUMPDEST SWAP4 POP POP PUSH1 0x20 PUSH2 0x141A DUP7 DUP3 DUP8 ADD PUSH2 0x1305 JUMP JUMPDEST SWAP3 POP POP PUSH1 0x40 PUSH2 0x142B DUP7 DUP3 DUP8 ADD PUSH2 0x1338 JUMP JUMPDEST SWAP2 POP POP SWAP3 POP SWAP3 POP SWAP3 JUMP JUMPDEST PUSH0 PUSH1 0xFF DUP3 AND SWAP1 POP SWAP2 SWAP1 POP JUMP JUMPDEST PUSH2 0x144A DUP2 PUSH2 0x1435 JUMP JUMPDEST DUP3 MSTORE POP POP JUMP JUMPDEST PUSH0 PUSH1 0x20 DUP3 ADD SWAP1 POP PUSH2 0x1463 PUSH0 DUP4 ADD DUP5 PUSH2 0x1441 JUMP JUMPDEST SWAP3 SWAP2 POP POP JUMP JUMPDEST PUSH0 PUSH1 0x20 DUP3 DUP5 SUB SLT ISZERO PUSH2 0x147E JUMPI PUSH2 0x147D PUSH2 0x12BB JUMP JUMPDEST JUMPDEST PUSH0 PUSH2 0x148B DUP5 DUP3 DUP6 ADD PUSH2 0x1305 JUMP JUMPDEST SWAP2 POP POP SWAP3 SWAP2 POP POP JUMP JUMPDEST PUSH2 0x149D DUP2 PUSH2 0x12DE JUMP JUMPDEST DUP3 MSTORE POP POP JUMP JUMPDEST PUSH0 PUSH1 0x20 DUP3 ADD SWAP1 POP PUSH2 0x14B6 PUSH0 DUP4 ADD DUP5 PUSH2 0x1494 JUMP JUMPDEST SWAP3 SWAP2 POP POP JUMP JUMPDEST PUSH0 PUSH0 PUSH1 0x40 DUP4 DUP6 SUB SLT ISZERO PUSH2 0x14D2 JUMPI PUSH2 0x14D1 PUSH2 0x12BB JUMP JUMPDEST JUMPDEST PUSH0 PUSH2 0x14DF DUP6 DUP3 DUP7 ADD PUSH2 0x1305 JUMP JUMPDEST SWAP3 POP POP PUSH1 0x20 PUSH2 0x14F0 DUP6 DUP3 DUP7 ADD PUSH2 0x1305 JUMP JUMPDEST SWAP2 POP POP SWAP3 POP SWAP3 SWAP1 POP JUMP JUMPDEST PUSH32 0x4E487B7100000000000000000000000000000000000000000000000000000000 PUSH0 MSTORE PUSH1 0x22 PUSH1 0x4 MSTORE PUSH1 0x24 PUSH0 REVERT JUMPDEST PUSH0 PUSH1 0x2 DUP3 DIV SWAP1 POP PUSH1 0x1 DUP3 AND DUP1 PUSH2 0x153E JUMPI PUSH1 0x7F DUP3 AND SWAP2 POP JUMPDEST PUSH1 0x20 DUP3 LT DUP2 SUB PUSH2 0x1551 JUMPI PUSH2 0x1550 PUSH2 0x14FA JUMP JUMPDEST JUMPDEST POP SWAP2 SWAP1 POP JUMP JUMPDEST PUSH32 0x6F6E6C792061646D696E20616464726573732063616E20616363657373000000 PUSH0 DUP3 ADD MSTORE POP JUMP JUMPDEST PUSH0 PUSH2 0x158B PUSH1 0x1D DUP4 PUSH2 0x1235 JUMP JUMPDEST SWAP2 POP PUSH2 0x1596 DUP3 PUSH2 0x1557 JUMP JUMPDEST PUSH1 0x20 DUP3 ADD SWAP1 POP SWAP2 SWAP1 POP JUMP JUMPDEST PUSH0 PUSH1 0x20 DUP3 ADD SWAP1 POP DUP2 DUP2 SUB PUSH0 DUP4 ADD MSTORE PUSH2 0x15B8 DUP2 PUSH2 0x157F JUMP JUMPDEST SWAP1 POP SWAP2 SWAP1 POP JUMP JUMPDEST PUSH32 0x6F6E6C79206C6567616C206F776E657220616464726573732063616E20616363 PUSH0 DUP3 ADD MSTORE PUSH32 0x6573730000000000000000000000000000000000000000000000000000000000 PUSH1 0x20 DUP3 ADD MSTORE POP JUMP JUMPDEST PUSH0 PUSH2 0x1619 PUSH1 0x23 DUP4 PUSH2 0x1235 JUMP JUMPDEST SWAP2 POP PUSH2 0x1624 DUP3 PUSH2 0x15BF JUMP JUMPDEST PUSH1 0x40 DUP3 ADD SWAP1 POP SWAP2 SWAP1 POP JUMP JUMPDEST PUSH0 PUSH1 0x20 DUP3 ADD SWAP1 POP DUP2 DUP2 SUB PUSH0 DUP4 ADD MSTORE PUSH2 0x1646 DUP2 PUSH2 0x160D JUMP JUMPDEST SWAP1 POP SWAP2 SWAP1 POP JUMP JUMPDEST PUSH32 0x4E487B7100000000000000000000000000000000000000000000000000000000 PUSH0 MSTORE PUSH1 0x11 PUSH1 0x4 MSTORE PUSH1 0x24 PUSH0 REVERT JUMPDEST PUSH0 PUSH2 0x1684 DUP3 PUSH2 0x1319 JUMP JUMPDEST SWAP2 POP PUSH2 0x168F DUP4 PUSH2 0x1319 JUMP JUMPDEST SWAP3 POP DUP3 DUP3 ADD SWAP1 POP DUP1 DUP3 GT ISZERO PUSH2 0x16A7 JUMPI PUSH2 0x16A6 PUSH2 0x164D JUMP JUMPDEST JUMPDEST SWAP3 SWAP2 POP POP JUMP JUMPDEST PUSH0 PUSH2 0x16B7 DUP3 PUSH2 0x1319 JUMP JUMPDEST SWAP2 POP PUSH2 0x16C2 DUP4 PUSH2 0x1319 JUMP JUMPDEST SWAP3 POP DUP3 DUP3 SUB SWAP1 POP DUP2 DUP2 GT ISZERO PUSH2 0x16DA JUMPI PUSH2 0x16D9 PUSH2 0x164D JUMP JUMPDEST JUMPDEST SWAP3 SWAP2 POP POP JUMP JUMPDEST PUSH0 PUSH1 0x60 DUP3 ADD SWAP1 POP PUSH2 0x16F3 PUSH0 DUP4 ADD DUP7 PUSH2 0x1494 JUMP JUMPDEST PUSH2 0x1700 PUSH1 0x20 DUP4 ADD DUP6 PUSH2 0x13BD JUMP JUMPDEST PUSH2 0x170D PUSH1 0x40 DUP4 ADD DUP5 PUSH2 0x13BD JUMP JUMPDEST SWAP5 SWAP4 POP POP POP POP JUMP INVALID LOG2 PUSH5 0x6970667358 0x22 SLT KECCAK256 0xB6 0xED 0xDA RJUMPI 0x1D21 NOT PREVRANDAO 0xFC MUL SWAP15 0xAE 0xE 0xD4 0xE2 0xBF MSTORE MCOPY PUSH18 0xB9295C27F9768C79254B36C03F64736F6C63 NUMBER STOP ADDMOD 0x1E STOP CALLER "
		},
		"gasEstimates": {
			"creation": {
				"codeDepositCost": "1192600",
				"executionCost": "infinite",
				"totalCost": "infinite"
			},
			"external": {
				"GRANTPRIVILEGES_NAMESPACE()": "infinite",
				"TOKEN_NAME()": "infinite",
				"TOKEN_SYMBOL()": "infinite",
				"addOwner(address,uint256)": "infinite",
				"allowance(address,address)": "infinite",
				"approve(address,uint256)": "infinite",
				"balanceOf(address)": "2873",
				"changeAdmin(address)": "infinite",
				"decimals()": "405",
				"getAdminAddress()": "2866",
				"getRemainingTime()": "infinite",
				"mint(address,uint256)": "infinite",
				"name()": "infinite",
				"symbol()": "infinite",
				"totalSupply()": "2500",
				"transfer(address,uint256)": "infinite",
				"transferFrom(address,address,uint256)": "infinite"
			}
		},
		"methodIdentifiers": {
			"GRANTPRIVILEGES_NAMESPACE()": "95cfbf6d",
			"TOKEN_NAME()": "18821400",
			"TOKEN_SYMBOL()": "2a905318",
			"addOwner(address,uint256)": "3cc38f5c",
			"allowance(address,address)": "dd62ed3e",
			"approve(address,uint256)": "095ea7b3",
			"balanceOf(address)": "70a08231",
			"changeAdmin(address)": "8f283970",
			"decimals()": "313ce567",
			"getAdminAddress()": "b2e6b912",
			"getRemainingTime()": "efb98bcf",
			"mint(address,uint256)": "40c10f19",
			"name()": "06fdde03",
			"symbol()": "95d89b41",
			"totalSupply()": "18160ddd",
			"transfer(address,uint256)": "a9059cbb",
			"transferFrom(address,address,uint256)": "23b872dd"
		}
	},
	"abi": [
		{
			"inputs": [],
			"stateMutability": "nonpayable",
			"type": "constructor"
		},
		{
			"inputs": [],
			"name": "AddressEmpty",
			"type": "error"
		},
		{
			"inputs": [
				{
					"internalType": "address",
					"name": "spender",
					"type": "address"
				},
				{
					"internalType": "uint256",
					"name": "allowance",
					"type": "uint256"
				},
				{
					"internalType": "uint256",
					"name": "needed",
					"type": "uint256"
				}
			],
			"name": "ERC20InsufficientAllowance",
			"type": "error"
		},
		{
			"inputs": [
				{
					"internalType": "address",
					"name": "sender",
					"type": "address"
				},
				{
					"internalType": "uint256",
					"name": "balance",
					"type": "uint256"
				},
				{
					"internalType": "uint256",
					"name": "needed",
					"type": "uint256"
				}
			],
			"name": "ERC20InsufficientBalance",
			"type": "error"
		},
		{
			"inputs": [
				{
					"internalType": "address",
					"name": "approver",
					"type": "address"
				}
			],
			"name": "ERC20InvalidApprover",
			"type": "error"
		},
		{
			"inputs": [
				{
					"internalType": "address",
					"name": "receiver",
					"type": "address"
				}
			],
			"name": "ERC20InvalidReceiver",
			"type": "error"
		},
		{
			"inputs": [
				{
					"internalType": "address",
					"name": "sender",
					"type": "address"
				}
			],
			"name": "ERC20InvalidSender",
			"type": "error"
		},
		{
			"inputs": [
				{
					"internalType": "address",
					"name": "spender",
					"type": "address"
				}
			],
			"name": "ERC20InvalidSpender",
			"type": "error"
		},
		{
			"inputs": [
				{
					"internalType": "string",
					"name": "info",
					"type": "string"
				}
			],
			"name": "OnlyAdmin",
			"type": "error"
		},
		{
			"inputs": [
				{
					"internalType": "string",
					"name": "info",
					"type": "string"
				}
			],
			"name": "OnlyLegalOwner",
			"type": "error"
		},
		{
			"inputs": [],
			"name": "TimeLimitZero",
			"type": "error"
		},
		{
			"anonymous": false,
			"inputs": [
				{
					"indexed": true,
					"internalType": "address",
					"name": "owner",
					"type": "address"
				},
				{
					"indexed": true,
					"internalType": "address",
					"name": "spender",
					"type": "address"
				},
				{
					"indexed": false,
					"internalType": "uint256",
					"name": "value",
					"type": "uint256"
				}
			],
			"name": "Approval",
			"type": "event"
		},
		{
			"anonymous": false,
			"inputs": [
				{
					"indexed": true,
					"internalType": "address",
					"name": "from",
					"type": "address"
				},
				{
					"indexed": true,
					"internalType": "address",
					"name": "to",
					"type": "address"
				},
				{
					"indexed": false,
					"internalType": "uint256",
					"name": "value",
					"type": "uint256"
				}
			],
			"name": "Transfer",
			"type": "event"
		},
		{
			"inputs": [],
			"name": "GRANTPRIVILEGES_NAMESPACE",
			"outputs": [
				{
					"internalType": "string",
					"name": "",
					"type": "string"
				}
			],
			"stateMutability": "view",
			"type": "function"
		},
		{
			"inputs": [],
			"name": "TOKEN_NAME",
			"outputs": [
				{
					"internalType": "string",
					"name": "",
					"type": "string"
				}
			],
			"stateMutability": "view",
			"type": "function"
		},
		{
			"inputs": [],
			"name": "TOKEN_SYMBOL",
			"outputs": [
				{
					"internalType": "string",
					"name": "",
					"type": "string"
				}
			],
			"stateMutability": "view",
			"type": "function"
		},
		{
			"inputs": [
				{
					"internalType": "address",
					"name": "newOwner",
					"type": "address"
				},
				{
					"internalType": "uint256",
					"name": "_timeLimit",
					"type": "uint256"
				}
			],
			"name": "addOwner",
			"outputs": [],
			"stateMutability": "nonpayable",
			"type": "function"
		},
		{
			"inputs": [
				{
					"internalType": "address",
					"name": "owner",
					"type": "address"
				},
				{
					"internalType": "address",
					"name": "spender",
					"type": "address"
				}
			],
			"name": "allowance",
			"outputs": [
				{
					"internalType": "uint256",
					"name": "",
					"type": "uint256"
				}
			],
			"stateMutability": "view",
			"type": "function"
		},
		{
			"inputs": [
				{
					"internalType": "address",
					"name": "spender",
					"type": "address"
				},
				{
					"internalType": "uint256",
					"name": "value",
					"type": "uint256"
				}
			],
			"name": "approve",
			"outputs": [
				{
					"internalType": "bool",
					"name": "",
					"type": "bool"
				}
			],
			"stateMutability": "nonpayable",
			"type": "function"
		},
		{
			"inputs": [
				{
					"internalType": "address",
					"name": "account",
					"type": "address"
				}
			],
			"name": "balanceOf",
			"outputs": [
				{
					"internalType": "uint256",
					"name": "",
					"type": "uint256"
				}
			],
			"stateMutability": "view",
			"type": "function"
		},
		{
			"inputs": [
				{
					"internalType": "address",
					"name": "newAdmin",
					"type": "address"
				}
			],
			"name": "changeAdmin",
			"outputs": [],
			"stateMutability": "nonpayable",
			"type": "function"
		},
		{
			"inputs": [],
			"name": "decimals",
			"outputs": [
				{
					"internalType": "uint8",
					"name": "",
					"type": "uint8"
				}
			],
			"stateMutability": "view",
			"type": "function"
		},
		{
			"inputs": [],
			"name": "getAdminAddress",
			"outputs": [
				{
					"internalType": "address",
					"name": "",
					"type": "address"
				}
			],
			"stateMutability": "view",
			"type": "function"
		},
		{
			"inputs": [],
			"name": "getRemainingTime",
			"outputs": [
				{
					"internalType": "uint256",
					"name": "",
					"type": "uint256"
				}
			],
			"stateMutability": "view",
			"type": "function"
		},
		{
			"inputs": [
				{
					"internalType": "address",
					"name": "account",
					"type": "address"
				},
				{
					"internalType": "uint256",
					"name": "value",
					"type": "uint256"
				}
			],
			"name": "mint",
			"outputs": [],
			"stateMutability": "nonpayable",
			"type": "function"
		},
		{
			"inputs": [],
			"name": "name",
			"outputs": [
				{
					"internalType": "string",
					"name": "",
					"type": "string"
				}
			],
			"stateMutability": "view",
			"type": "function"
		},
		{
			"inputs": [],
			"name": "symbol",
			"outputs": [
				{
					"internalType": "string",
					"name": "",
					"type": "string"
				}
			],
			"stateMutability": "view",
			"type": "function"
		},
		{
			"inputs": [],
			"name": "totalSupply",
			"outputs": [
				{
					"internalType": "uint256",
					"name": "",
					"type": "uint256"
				}
			],
			"stateMutability": "view",
			"type": "function"
		},
		{
			"inputs": [
				{
					"internalType": "address",
					"name": "to",
					"type": "address"
				},
				{
					"internalType": "uint256",
					"name": "value",
					"type": "uint256"
				}
			],
			"name": "transfer",
			"outputs": [
				{
					"internalType": "bool",
					"name": "",
					"type": "bool"
				}
			],
			"stateMutability": "nonpayable",
			"type": "function"
		},
		{
			"inputs": [
				{
					"internalType": "address",
					"name": "from",
					"type": "address"
				},
				{
					"internalType": "address",
					"name": "to",
					"type": "address"
				},
				{
					"internalType": "uint256",
					"name": "value",
					"type": "uint256"
				}
			],
			"name": "transferFrom",
			"outputs": [
				{
					"internalType": "bool",
					"name": "",
					"type": "bool"
				}
			],
			"stateMutability": "nonpayable",
			"type": "function"
		}
	]
}